{
  "_format": "hh-sol-artifact-1",
  "contractName": "MarsRouter",
  "sourceName": "contracts/OneRouterNeon.sol",
  "abi": [
    {
      "inputs": [
        {
          "internalType": "address",
          "name": "_WETH",
          "type": "address"
        },
        {
          "internalType": "address",
          "name": "_treasury",
          "type": "address"
        },
        {
          "internalType": "uint256",
          "name": "_txFee",
          "type": "uint256"
        }
      ],
      "stateMutability": "nonpayable",
      "type": "constructor"
    },
    {
      "anonymous": false,
      "inputs": [
        {
          "indexed": true,
          "internalType": "address",
          "name": "previousOwner",
          "type": "address"
        },
        {
          "indexed": true,
          "internalType": "address",
          "name": "newOwner",
          "type": "address"
        }
      ],
      "name": "OwnershipTransferred",
      "type": "event"
    },
    {
      "inputs": [],
      "name": "WETH",
      "outputs": [
        {
          "internalType": "address",
          "name": "",
          "type": "address"
        }
      ],
      "stateMutability": "view",
      "type": "function"
    },
    {
      "inputs": [
        {
          "internalType": "uint256",
          "name": "_newFee",
          "type": "uint256"
        }
      ],
      "name": "changeFee",
      "outputs": [],
      "stateMutability": "nonpayable",
      "type": "function"
    },
    {
      "inputs": [
        {
          "internalType": "address",
          "name": "_newTreasury",
          "type": "address"
        }
      ],
      "name": "changeTreasury",
      "outputs": [],
      "stateMutability": "nonpayable",
      "type": "function"
    },
    {
      "inputs": [],
      "name": "flatFee",
      "outputs": [
        {
          "internalType": "uint256",
          "name": "fee",
          "type": "uint256"
        }
      ],
      "stateMutability": "view",
      "type": "function"
    },
    {
      "inputs": [
        {
          "internalType": "address",
          "name": "account",
          "type": "address"
        }
      ],
      "name": "isOwner",
      "outputs": [
        {
          "internalType": "bool",
          "name": "",
          "type": "bool"
        }
      ],
      "stateMutability": "view",
      "type": "function"
    },
    {
      "inputs": [],
      "name": "owner",
      "outputs": [
        {
          "internalType": "address",
          "name": "",
          "type": "address"
        }
      ],
      "stateMutability": "view",
      "type": "function"
    },
    {
      "inputs": [],
      "name": "renounceOwnership",
      "outputs": [],
      "stateMutability": "nonpayable",
      "type": "function"
    },
    {
      "inputs": [
        {
          "internalType": "uint256",
          "name": "amountOut",
          "type": "uint256"
        },
        {
          "internalType": "address[]",
          "name": "path",
          "type": "address[]"
        },
        {
          "internalType": "address",
          "name": "to",
          "type": "address"
        },
        {
          "internalType": "uint256",
          "name": "deadline",
          "type": "uint256"
        },
        {
          "internalType": "address",
          "name": "router",
          "type": "address"
        }
      ],
      "name": "swapETHForExactTokens",
      "outputs": [
        {
          "internalType": "uint256[]",
          "name": "amounts",
          "type": "uint256[]"
        }
      ],
      "stateMutability": "payable",
      "type": "function"
    },
    {
      "inputs": [
        {
          "internalType": "uint256",
          "name": "amountOutMin",
          "type": "uint256"
        },
        {
          "internalType": "address[]",
          "name": "path",
          "type": "address[]"
        },
        {
          "internalType": "address",
          "name": "to",
          "type": "address"
        },
        {
          "internalType": "uint256",
          "name": "deadline",
          "type": "uint256"
        },
        {
          "internalType": "address",
          "name": "router",
          "type": "address"
        }
      ],
      "name": "swapExactETHForTokens",
      "outputs": [
        {
          "internalType": "uint256[]",
          "name": "amounts",
          "type": "uint256[]"
        }
      ],
      "stateMutability": "payable",
      "type": "function"
    },
    {
      "inputs": [
        {
          "internalType": "uint256",
          "name": "amountOutMin",
          "type": "uint256"
        },
        {
          "internalType": "address[]",
          "name": "path",
          "type": "address[]"
        },
        {
          "internalType": "address",
          "name": "to",
          "type": "address"
        },
        {
          "internalType": "uint256",
          "name": "deadline",
          "type": "uint256"
        },
        {
          "internalType": "address",
          "name": "router",
          "type": "address"
        }
      ],
      "name": "swapExactETHForTokensSupportingFeeOnTransferTokens",
      "outputs": [],
      "stateMutability": "payable",
      "type": "function"
    },
    {
      "inputs": [
        {
          "internalType": "uint256",
          "name": "amountIn",
          "type": "uint256"
        },
        {
          "internalType": "uint256",
          "name": "amountOutMin",
          "type": "uint256"
        },
        {
          "internalType": "address[]",
          "name": "path",
          "type": "address[]"
        },
        {
          "internalType": "address",
          "name": "to",
          "type": "address"
        },
        {
          "internalType": "uint256",
          "name": "deadline",
          "type": "uint256"
        },
        {
          "internalType": "address",
          "name": "router",
          "type": "address"
        }
      ],
      "name": "swapExactTokensForETH",
      "outputs": [
        {
          "internalType": "uint256[]",
          "name": "amounts",
          "type": "uint256[]"
        }
      ],
      "stateMutability": "payable",
      "type": "function"
    },
    {
      "inputs": [
        {
          "internalType": "uint256",
          "name": "amountIn",
          "type": "uint256"
        },
        {
          "internalType": "uint256",
          "name": "amountOutMin",
          "type": "uint256"
        },
        {
          "internalType": "address[]",
          "name": "path",
          "type": "address[]"
        },
        {
          "internalType": "address",
          "name": "to",
          "type": "address"
        },
        {
          "internalType": "uint256",
          "name": "deadline",
          "type": "uint256"
        },
        {
          "internalType": "address",
          "name": "router",
          "type": "address"
        }
      ],
      "name": "swapExactTokensForETHSupportingFeeOnTransferTokens",
      "outputs": [],
      "stateMutability": "payable",
      "type": "function"
    },
    {
      "inputs": [
        {
          "internalType": "uint256",
          "name": "amountIn",
          "type": "uint256"
        },
        {
          "internalType": "uint256",
          "name": "amountOutMin",
          "type": "uint256"
        },
        {
          "internalType": "address[]",
          "name": "path",
          "type": "address[]"
        },
        {
          "internalType": "address",
          "name": "to",
          "type": "address"
        },
        {
          "internalType": "uint256",
          "name": "deadline",
          "type": "uint256"
        },
        {
          "internalType": "address",
          "name": "router",
          "type": "address"
        }
      ],
      "name": "swapExactTokensForTokens",
      "outputs": [
        {
          "internalType": "uint256[]",
          "name": "amounts",
          "type": "uint256[]"
        }
      ],
      "stateMutability": "payable",
      "type": "function"
    },
    {
      "inputs": [
        {
          "internalType": "uint256",
          "name": "amountIn",
          "type": "uint256"
        },
        {
          "internalType": "uint256",
          "name": "amountOutMin",
          "type": "uint256"
        },
        {
          "internalType": "address[]",
          "name": "path",
          "type": "address[]"
        },
        {
          "internalType": "address",
          "name": "to",
          "type": "address"
        },
        {
          "internalType": "uint256",
          "name": "deadline",
          "type": "uint256"
        },
        {
          "internalType": "address",
          "name": "router",
          "type": "address"
        }
      ],
      "name": "swapExactTokensForTokensSupportingFeeOnTransferTokens",
      "outputs": [],
      "stateMutability": "payable",
      "type": "function"
    },
    {
      "inputs": [
        {
          "internalType": "uint256",
          "name": "amountOut",
          "type": "uint256"
        },
        {
          "internalType": "uint256",
          "name": "amountInMax",
          "type": "uint256"
        },
        {
          "internalType": "address[]",
          "name": "path",
          "type": "address[]"
        },
        {
          "internalType": "address",
          "name": "to",
          "type": "address"
        },
        {
          "internalType": "uint256",
          "name": "deadline",
          "type": "uint256"
        },
        {
          "internalType": "address",
          "name": "router",
          "type": "address"
        }
      ],
      "name": "swapTokensForExactETH",
      "outputs": [
        {
          "internalType": "uint256[]",
          "name": "amounts",
          "type": "uint256[]"
        }
      ],
      "stateMutability": "payable",
      "type": "function"
    },
    {
      "inputs": [
        {
          "internalType": "uint256",
          "name": "amountOut",
          "type": "uint256"
        },
        {
          "internalType": "uint256",
          "name": "amountInMax",
          "type": "uint256"
        },
        {
          "internalType": "address[]",
          "name": "path",
          "type": "address[]"
        },
        {
          "internalType": "address",
          "name": "to",
          "type": "address"
        },
        {
          "internalType": "uint256",
          "name": "deadline",
          "type": "uint256"
        },
        {
          "internalType": "address",
          "name": "router",
          "type": "address"
        }
      ],
      "name": "swapTokensForExactTokens",
      "outputs": [
        {
          "internalType": "uint256[]",
          "name": "amounts",
          "type": "uint256[]"
        }
      ],
      "stateMutability": "payable",
      "type": "function"
    },
    {
      "inputs": [
        {
          "internalType": "address",
          "name": "newOwner",
          "type": "address"
        }
      ],
      "name": "transferOwnership",
      "outputs": [],
      "stateMutability": "nonpayable",
      "type": "function"
    },
    {
      "inputs": [],
      "name": "treasury",
      "outputs": [
        {
          "internalType": "address",
          "name": "",
          "type": "address"
        }
      ],
      "stateMutability": "view",
      "type": "function"
    },
    {
      "inputs": [],
      "name": "txFee",
      "outputs": [
        {
          "internalType": "uint256",
          "name": "",
          "type": "uint256"
        }
      ],
      "stateMutability": "view",
      "type": "function"
    },
    {
      "inputs": [],
      "name": "withdawlBNB",
      "outputs": [],
      "stateMutability": "nonpayable",
      "type": "function"
    },
    {
      "inputs": [
        {
          "internalType": "address",
          "name": "_tokenAddress",
          "type": "address"
        }
      ],
      "name": "withdrawlToken",
      "outputs": [],
      "stateMutability": "nonpayable",
      "type": "function"
    },
    {
      "stateMutability": "payable",
      "type": "receive"
    }
  ],
  "bytecode": "0x60a06040526000196001553480156200001757600080fd5b50604051620032f6380380620032f68339810160408190526200003a91620000c6565b600080546001600160a01b0319163390811782556040519091907f8be0079c531659141344cd1fd0a4f28419497f9722a3daafe3b4186f6b6457e0908290a36001600160a01b03928316608052600280546001600160a01b031916929093169190911790915560035562000107565b80516001600160a01b0381168114620000c157600080fd5b919050565b600080600060608486031215620000dc57600080fd5b620000e784620000a9565b9250620000f760208501620000a9565b9150604084015190509250925092565b608051613163620001936000396000818161013e0152818161031c015281816106e8015281816107c50152818161083901528181610b6a01528181610d3401528181610e9301528181611065015281816110f3015281816112fc0152818161149701528181611525015281816116d60152818161182c015281816118d70152611a7b01526131636000f3fe60806040526004361061012e5760003560e01c80638da5cb5b116100ab578063b14f2a391161006f578063b14f2a391461033e578063cf8204611461035e578063d9eb594714610382578063e799ffb114610397578063f2fde38b146103ac578063f824f62e146103cc57600080fd5b80638da5cb5b146102a6578063962efddb146102c4578063a32166ee146102d7578063ac5cad56146102ea578063ad5c46481461030a57600080fd5b8063344933be116100f2578063344933be146102135780633d0e3ec51461022657806361d027b3146102395780636a1db1bf14610271578063715018a61461029157600080fd5b806305a1450d14610172578063088890dc1461019b5780632232ea43146101ae5780632f100e4a146101c15780632f54bf6e146101d457600080fd5b3661016d57336001600160a01b037f0000000000000000000000000000000000000000000000000000000000000000161461016b5761016b612b14565b005b600080fd5b610185610180366004612b84565b6103df565b6040516101929190612c0b565b60405180910390f35b61016b6101a9366004612c4f565b61065f565b6101856101bc366004612b84565b610ad7565b6101856101cf366004612c4f565b610e08565b3480156101e057600080fd5b506102036101ef366004612ccb565b6000546001600160a01b0391821691161490565b6040519015158152602001610192565b610185610221366004612c4f565b611271565b61016b610234366004612b84565b611645565b34801561024557600080fd5b50600254610259906001600160a01b031681565b6040516001600160a01b039091168152602001610192565b34801561027d57600080fd5b5061016b61028c366004612cef565b611945565b34801561029d57600080fd5b5061016b611974565b3480156102b257600080fd5b506000546001600160a01b0316610259565b6101856102d2366004612b84565b6119e8565b6101856102e5366004612b84565b611be0565b3480156102f657600080fd5b5061016b610305366004612ccb565b611d96565b34801561031657600080fd5b506102597f000000000000000000000000000000000000000000000000000000000000000081565b34801561034a57600080fd5b5061016b610359366004612ccb565b611ea5565b34801561036a57600080fd5b5061037460035481565b604051908152602001610192565b34801561038e57600080fd5b50600354610374565b3480156103a357600080fd5b5061016b611ef1565b3480156103b857600080fd5b5061016b6103c7366004612ccb565b611f4a565b61016b6103da366004612b84565b611f7d565b6060824281101561040b5760405162461bcd60e51b815260040161040290612d08565b60405180910390fd5b61044787878080602002602001604051908101604052809392919081815260200183836020028082843760009201919091525061219f92505050565b506000836001600160a01b031663c45a01556040518163ffffffff1660e01b8152600401602060405180830381865afa158015610488573d6000803e3d6000fd5b505050506040513d601f19601f820116820180604052508101906104ac9190612d38565b60405163d06ca61f60e01b81529091506001600160a01b0385169063d06ca61f906104df908d908c908c90600401612d55565b600060405180830381865afa1580156104fc573d6000803e3d6000fd5b505050506040513d6000823e601f3d908101601f191682016040526105249190810190612dc3565b92508883600185516105369190612e97565b8151811061054657610546612eaa565b6020026020010151101561056c5760405162461bcd60e51b815260040161040290612ec0565b6106118888600081811061058257610582612eaa565b90506020020160208101906105979190612ccb565b336105f1848c8c60008181106105af576105af612eaa565b90506020020160208101906105c49190612ccb565b8d8d60018181106105d7576105d7612eaa565b90506020020160208101906105ec9190612ccb565b6121da565b8660008151811061060457610604612eaa565b6020026020010151612258565b610652838989808060200260200160405190810160405280939291908181526020018383602002808284376000920191909152508b92508691506123889050565b5050979650505050505050565b81428110156106805760405162461bcd60e51b815260040161040290612d08565b6000826001600160a01b031663c45a01556040518163ffffffff1660e01b8152600401602060405180830381865afa1580156106c0573d6000803e3d6000fd5b505050506040513d601f19601f820116820180604052508101906106e49190612d38565b90507f00000000000000000000000000000000000000000000000000000000000000006001600160a01b03168787600081811061072357610723612eaa565b90506020020160208101906107389190612ccb565b6001600160a01b03161461075e5760405162461bcd60e51b815260040161040290612f09565b6000600354606461076f9190612f40565b341161077b57346107c1565b6107b788888080602002602001604051908101604052809392919081815260200183836020028082843760009201919091525061219f92505050565b6107c19034612e97565b90507f00000000000000000000000000000000000000000000000000000000000000006001600160a01b031663d0e30db0826040518263ffffffff1660e01b81526004016000604051808303818588803b15801561081e57600080fd5b505af1158015610832573d6000803e3d6000fd5b50505050507f00000000000000000000000000000000000000000000000000000000000000006001600160a01b031663a9059cbb6108a5848b8b600081811061087d5761087d612eaa565b90506020020160208101906108929190612ccb565b8c8c60018181106105d7576105d7612eaa565b6040516001600160e01b031960e084901b1681526001600160a01b039091166004820152602481018490526044016020604051808303816000875af11580156108f2573d6000803e3d6000fd5b505050506040513d601f19601f820116820180604052508101906109169190612f57565b61092257610922612b14565b60008888610931600182612e97565b81811061094057610940612eaa565b90506020020160208101906109559190612ccb565b6040516370a0823160e01b81526001600160a01b03898116600483015291909116906370a0823190602401602060405180830381865afa15801561099d573d6000803e3d6000fd5b505050506040513d601f19601f820116820180604052508101906109c19190612f79565b9050610a048989808060200260200160405190810160405280939291908181526020018383602002808284376000920191909152508b9250879150899050612551565b89610aad828b8b610a16600182612e97565b818110610a2557610a25612eaa565b9050602002016020810190610a3a9190612ccb565b6040516370a0823160e01b81526001600160a01b038c8116600483015291909116906370a08231906024015b602060405180830381865afa158015610a83573d6000803e3d6000fd5b505050506040513d601f19601f82011682018060405250810190610aa79190612f79565b9061269c565b1015610acb5760405162461bcd60e51b815260040161040290612ec0565b50505050505050505050565b60608242811015610afa5760405162461bcd60e51b815260040161040290612d08565b6000836001600160a01b031663c45a01556040518163ffffffff1660e01b8152600401602060405180830381865afa158015610b3a573d6000803e3d6000fd5b505050506040513d601f19601f82011682018060405250810190610b5e9190612d38565b90506001600160a01b037f0000000000000000000000000000000000000000000000000000000000000000168888610b97600182612e97565b818110610ba657610ba6612eaa565b9050602002016020810190610bbb9190612ccb565b6001600160a01b031614610be15760405162461bcd60e51b815260040161040290612f09565b610c1d88888080602002602001604051908101604052809392919081815260200183836020028082843760009201919091525061219f92505050565b5060405163d06ca61f60e01b81526001600160a01b0385169063d06ca61f90610c4e908d908c908c90600401612d55565b600060405180830381865afa158015610c6b573d6000803e3d6000fd5b505050506040513d6000823e601f3d908101601f19168201604052610c939190810190612dc3565b9250888360018551610ca59190612e97565b81518110610cb557610cb5612eaa565b60200260200101511015610cdb5760405162461bcd60e51b815260040161040290612ec0565b610cf18888600081811061058257610582612eaa565b610d32838989808060200260200160405190810160405280939291908181526020018383602002808284376000920191909152503092508691506123889050565b7f00000000000000000000000000000000000000000000000000000000000000006001600160a01b0316632e1a7d4d8460018651610d709190612e97565b81518110610d8057610d80612eaa565b60200260200101516040518263ffffffff1660e01b8152600401610da691815260200190565b600060405180830381600087803b158015610dc057600080fd5b505af1158015610dd4573d6000803e3d6000fd5b50505050610652868460018651610deb9190612e97565b81518110610dfb57610dfb612eaa565b60200260200101516126f8565b60608242811015610e2b5760405162461bcd60e51b815260040161040290612d08565b6000836001600160a01b031663c45a01556040518163ffffffff1660e01b8152600401602060405180830381865afa158015610e6b573d6000803e3d6000fd5b505050506040513d601f19601f82011682018060405250810190610e8f9190612d38565b90507f00000000000000000000000000000000000000000000000000000000000000006001600160a01b031688886000818110610ece57610ece612eaa565b9050602002016020810190610ee39190612ccb565b6001600160a01b031614610f095760405162461bcd60e51b815260040161040290612f09565b6040516307c0329d60e21b81526001600160a01b03851690631f00ca7490610f39908c908c908c90600401612d55565b600060405180830381865afa158015610f56573d6000803e3d6000fd5b505050506040513d6000823e601f3d908101601f19168201604052610f7e9190810190612dc3565b925060006003546064610f919190612f40565b3411610f9e576000610fda565b610fda89898080602002602001604051908101604052809392919081815260200183836020028082843760009201919091525061219f92505050565b90508084600081518110610ff057610ff0612eaa565b60200260200101516110029190612e97565b8460008151811061101557611015612eaa565b602090810291909101015261102a8134612e97565b8460008151811061103d5761103d612eaa565b602002602001015111156110635760405162461bcd60e51b815260040161040290612f92565b7f00000000000000000000000000000000000000000000000000000000000000006001600160a01b031663d0e30db0856000815181106110a5576110a5612eaa565b60200260200101516040518263ffffffff1660e01b81526004016000604051808303818588803b1580156110d857600080fd5b505af11580156110ec573d6000803e3d6000fd5b50505050507f00000000000000000000000000000000000000000000000000000000000000006001600160a01b031663a9059cbb611137848c8c60008181106105af576105af612eaa565b8660008151811061114a5761114a612eaa565b60200260200101516040518363ffffffff1660e01b81526004016111839291906001600160a01b03929092168252602082015260400190565b6020604051808303816000875af11580156111a2573d6000803e3d6000fd5b505050506040513d601f19601f820116820180604052508101906111c69190612f57565b6111d2576111d2612b14565b611213848a8a808060200260200160405190810160405280939291908181526020018383602002808284376000920191909152508c92508791506123889050565b8360008151811061122657611226612eaa565b602002602001015134111561126457611264338560008151811061124c5761124c612eaa565b60200260200101513461125f9190612e97565b6126f8565b5050509695505050505050565b606082428110156112945760405162461bcd60e51b815260040161040290612d08565b6000836001600160a01b031663c45a01556040518163ffffffff1660e01b8152600401602060405180830381865afa1580156112d4573d6000803e3d6000fd5b505050506040513d601f19601f820116820180604052508101906112f89190612d38565b90507f00000000000000000000000000000000000000000000000000000000000000006001600160a01b03168888600081811061133757611337612eaa565b905060200201602081019061134c9190612ccb565b6001600160a01b0316146113725760405162461bcd60e51b815260040161040290612f09565b600060035460646113839190612f40565b341161138f57346113d5565b6113cb89898080602002602001604051908101604052809392919081815260200183836020028082843760009201919091525061219f92505050565b6113d59034612e97565b60405163d06ca61f60e01b81529091506001600160a01b0386169063d06ca61f906114089084908d908d90600401612d55565b600060405180830381865afa158015611425573d6000803e3d6000fd5b505050506040513d6000823e601f3d908101601f1916820160405261144d9190810190612dc3565b935089846001865161145f9190612e97565b8151811061146f5761146f612eaa565b602002602001015110156114955760405162461bcd60e51b815260040161040290612ec0565b7f00000000000000000000000000000000000000000000000000000000000000006001600160a01b031663d0e30db0856000815181106114d7576114d7612eaa565b60200260200101516040518263ffffffff1660e01b81526004016000604051808303818588803b15801561150a57600080fd5b505af115801561151e573d6000803e3d6000fd5b50505050507f00000000000000000000000000000000000000000000000000000000000000006001600160a01b031663a9059cbb611569848c8c60008181106105af576105af612eaa565b8660008151811061157c5761157c612eaa565b60200260200101516040518363ffffffff1660e01b81526004016115b59291906001600160a01b03929092168252602082015260400190565b6020604051808303816000875af11580156115d4573d6000803e3d6000fd5b505050506040513d601f19601f820116820180604052508101906115f89190612f57565b61160457611604612b14565b611264848a8a808060200260200160405190810160405280939291908181526020018383602002808284376000920191909152508c92508791506123889050565b81428110156116665760405162461bcd60e51b815260040161040290612d08565b6000826001600160a01b031663c45a01556040518163ffffffff1660e01b8152600401602060405180830381865afa1580156116a6573d6000803e3d6000fd5b505050506040513d601f19601f820116820180604052508101906116ca9190612d38565b90506001600160a01b037f0000000000000000000000000000000000000000000000000000000000000000168787611703600182612e97565b81811061171257611712612eaa565b90506020020160208101906117279190612ccb565b6001600160a01b03161461174d5760405162461bcd60e51b815260040161040290612f09565b61178987878080602002602001604051908101604052809392919081815260200183836020028082843760009201919091525061219f92505050565b506117d3878760008181106117a0576117a0612eaa565b90506020020160208101906117b59190612ccb565b336117cd848b8b600081811061087d5761087d612eaa565b8c612258565b611814878780806020026020016040519081016040528093929190818152602001838360200280828437600092019190915250309250859150879050612551565b6040516370a0823160e01b81523060048201526000907f00000000000000000000000000000000000000000000000000000000000000006001600160a01b0316906370a0823190602401602060405180830381865afa15801561187b573d6000803e3d6000fd5b505050506040513d601f19601f8201168201806040525081019061189f9190612f79565b9050888110156118c15760405162461bcd60e51b815260040161040290612ec0565b604051632e1a7d4d60e01b8152600481018290527f00000000000000000000000000000000000000000000000000000000000000006001600160a01b031690632e1a7d4d90602401600060405180830381600087803b15801561192357600080fd5b505af1158015611937573d6000803e3d6000fd5b50505050610acb86826126f8565b6000546001600160a01b0316331461196f5760405162461bcd60e51b815260040161040290612fd5565b600355565b6000546001600160a01b0316331461199e5760405162461bcd60e51b815260040161040290612fd5565b600080546040516001600160a01b03909116907f8be0079c531659141344cd1fd0a4f28419497f9722a3daafe3b4186f6b6457e0908390a3600080546001600160a01b0319169055565b60608242811015611a0b5760405162461bcd60e51b815260040161040290612d08565b6000836001600160a01b031663c45a01556040518163ffffffff1660e01b8152600401602060405180830381865afa158015611a4b573d6000803e3d6000fd5b505050506040513d601f19601f82011682018060405250810190611a6f9190612d38565b90506001600160a01b037f0000000000000000000000000000000000000000000000000000000000000000168888611aa8600182612e97565b818110611ab757611ab7612eaa565b9050602002016020810190611acc9190612ccb565b6001600160a01b031614611af25760405162461bcd60e51b815260040161040290612f09565b6040516307c0329d60e21b81526001600160a01b03851690631f00ca7490611b22908d908c908c90600401612d55565b600060405180830381865afa158015611b3f573d6000803e3d6000fd5b505050506040513d6000823e601f3d908101601f19168201604052611b679190810190612dc3565b9250611ba588888080602002602001604051908101604052809392919081815260200183836020028082843760009201919091525061219f92505050565b508883600081518110611bba57611bba612eaa565b60200260200101511115610cdb5760405162461bcd60e51b815260040161040290612f92565b60608242811015611c035760405162461bcd60e51b815260040161040290612d08565b611c3f87878080602002602001604051908101604052809392919081815260200183836020028082843760009201919091525061219f92505050565b506000836001600160a01b031663c45a01556040518163ffffffff1660e01b8152600401602060405180830381865afa158015611c80573d6000803e3d6000fd5b505050506040513d601f19601f82011682018060405250810190611ca49190612d38565b6040516307c0329d60e21b81529091506001600160a01b03851690631f00ca7490611cd7908d908c908c90600401612d55565b600060405180830381865afa158015611cf4573d6000803e3d6000fd5b505050506040513d6000823e601f3d908101601f19168201604052611d1c9190810190612dc3565b92508883600081518110611d3257611d32612eaa565b6020026020010151111561056c5760405162461bcd60e51b815260206004820152602560248201527f4d617253776170526f757465723a204558434553534956455f494e5055545f416044820152641353d5539560da1b6064820152608401610402565b6000546001600160a01b03163314611dc05760405162461bcd60e51b815260040161040290612fd5565b6040516370a0823160e01b81523060048201526001600160a01b0382169063a9059cbb90339083906370a0823190602401602060405180830381865afa158015611e0e573d6000803e3d6000fd5b505050506040513d601f19601f82011682018060405250810190611e329190612f79565b6040516001600160e01b031960e085901b1681526001600160a01b03909216600483015260248201526044016020604051808303816000875af1158015611e7d573d6000803e3d6000fd5b505050506040513d601f19601f82011682018060405250810190611ea19190612f57565b5050565b6000546001600160a01b03163314611ecf5760405162461bcd60e51b815260040161040290612fd5565b600280546001600160a01b0319166001600160a01b0392909216919091179055565b6000546001600160a01b03163314611f1b5760405162461bcd60e51b815260040161040290612fd5565b60405133904780156108fc02916000818181858888f19350505050158015611f47573d6000803e3d6000fd5b50565b6000546001600160a01b03163314611f745760405162461bcd60e51b815260040161040290612fd5565b611f47816127c6565b8142811015611f9e5760405162461bcd60e51b815260040161040290612d08565b611fda86868080602002602001604051908101604052809392919081815260200183836020028082843760009201919091525061219f92505050565b506000826001600160a01b031663c45a01556040518163ffffffff1660e01b8152600401602060405180830381865afa15801561201b573d6000803e3d6000fd5b505050506040513d601f19601f8201168201806040525081019061203f9190612d38565b9050612057878760008181106117a0576117a0612eaa565b60008787612066600182612e97565b81811061207557612075612eaa565b905060200201602081019061208a9190612ccb565b6040516370a0823160e01b81526001600160a01b03888116600483015291909116906370a0823190602401602060405180830381865afa1580156120d2573d6000803e3d6000fd5b505050506040513d601f19601f820116820180604052508101906120f69190612f79565b90506121398888808060200260200160405190810160405280939291908181526020018383602002808284376000920191909152508a9250869150889050612551565b88610aad828a8a61214b600182612e97565b81811061215a5761215a612eaa565b905060200201602081019061216f9190612ccb565b6040516370a0823160e01b81526001600160a01b038b8116600483015291909116906370a0823190602401610a66565b6000600182516121af9190612e97565b6003546121bc9190612f40565b6002549091506121d5906001600160a01b0316826126f8565b919050565b60405163e6a4390560e01b81526001600160a01b03838116600483015282811660248301526000919085169063e6a4390590604401602060405180830381865afa15801561222c573d6000803e3d6000fd5b505050506040513d601f19601f820116820180604052508101906122509190612d38565b949350505050565b604080516001600160a01b0385811660248301528481166044830152606480830185905283518084039091018152608490920183526020820180516001600160e01b03166323b872dd60e01b17905291516000928392908816916122bc919061302e565b6000604051808303816000865af19150503d80600081146122f9576040519150601f19603f3d011682016040523d82523d6000602084013e6122fe565b606091505b50915091508180156123285750805115806123285750808060200190518101906123289190612f57565b6123805760405162461bcd60e51b8152602060048201526024808201527f5472616e7366657248656c7065723a205452414e534645525f46524f4d5f46416044820152631253115160e21b6064820152608401610402565b505050505050565b60005b600184516123999190612e97565b81101561254a576000808583815181106123b5576123b5612eaa565b6020026020010151868460016123cb919061304a565b815181106123db576123db612eaa565b60200260200101519150915060006123f38383612886565b50905060008861240486600161304a565b8151811061241457612414612eaa565b60200260200101519050600080836001600160a01b0316866001600160a01b03161461244257826000612446565b6000835b91509150600060028b5161245a9190612e97565b88106124665789612494565b61249489878d6124778c600261304a565b8151811061248757612487612eaa565b60200260200101516121da565b90506124a18988886121da565b6001600160a01b031663022c0d9f84848460006040519080825280601f01601f1916602001820160405280156124de576020820181803683370190505b506040518563ffffffff1660e01b81526004016124fe949392919061305d565b600060405180830381600087803b15801561251857600080fd5b505af115801561252c573d6000803e3d6000fd5b50505050505050505050508080612542906130ad565b91505061238b565b5050505050565b60005b600185516125629190612e97565b81101561254a5760008086838151811061257e5761257e612eaa565b602002602001015187846001612594919061304a565b815181106125a4576125a4612eaa565b60200260200101519150915060006125bc8383612886565b50905060006125cc8785856121da565b90506000806125dd8387868b61297b565b91509150600060028c516125f19190612e97565b88106125fd578a61260e565b61260e8a878e6124778c600261304a565b6040805160008152602081019182905263022c0d9f60e01b9091529091506001600160a01b0385169063022c0d9f90612650908690869086906024810161305d565b600060405180830381600087803b15801561266a57600080fd5b505af115801561267e573d6000803e3d6000fd5b50505050505050505050508080612694906130ad565b915050612554565b6000826126a98382612e97565b91508111156126f25760405162461bcd60e51b815260206004820152601560248201527464732d6d6174682d7375622d756e646572666c6f7760581b6044820152606401610402565b92915050565b604080516000808252602082019092526001600160a01b038416908390604051612722919061302e565b60006040518083038185875af1925050503d806000811461275f576040519150601f19603f3d011682016040523d82523d6000602084013e612764565b606091505b50509050806127c15760405162461bcd60e51b815260206004820152602360248201527f5472616e7366657248656c7065723a204554485f5452414e534645525f46414960448201526213115160ea1b6064820152608401610402565b505050565b6001600160a01b03811661282b5760405162461bcd60e51b815260206004820152602660248201527f4f776e61626c653a206e6577206f776e657220697320746865207a65726f206160448201526564647265737360d01b6064820152608401610402565b600080546040516001600160a01b03808516939216917f8be0079c531659141344cd1fd0a4f28419497f9722a3daafe3b4186f6b6457e091a3600080546001600160a01b0319166001600160a01b0392909216919091179055565b600080826001600160a01b0316846001600160a01b0316036128f65760405162461bcd60e51b815260206004820152602360248201527f4d6172537761704c6962726172793a204944454e544943414c5f41444452455360448201526253455360e81b6064820152608401610402565b826001600160a01b0316846001600160a01b031610612916578284612919565b83835b90925090506001600160a01b0382166129745760405162461bcd60e51b815260206004820152601c60248201527f4d6172537761704c6962726172793a205a45524f5f41444452455353000000006044820152606401610402565b9250929050565b600080600080876001600160a01b0316630902f1ac6040518163ffffffff1660e01b8152600401606060405180830381865afa1580156129bf573d6000803e3d6000fd5b505050506040513d601f19601f820116820180604052508101906129e391906130dd565b506001600160701b031691506001600160701b03169150600080876001600160a01b0316896001600160a01b031614612a1d578284612a20565b83835b6040516370a0823160e01b81526001600160a01b038d81166004830152929450909250600091612a5d9185918d16906370a0823190602401610a66565b604051630153543560e21b81526004810182905260248101859052604481018490529091506000906001600160a01b038a169063054d50d490606401602060405180830381865afa158015612ab6573d6000803e3d6000fd5b505050506040513d601f19601f82011682018060405250810190612ada9190612f79565b9050896001600160a01b03168b6001600160a01b031614612afd57806000612b01565b6000815b909d909c509a5050505050505050505050565b634e487b7160e01b600052600160045260246000fd5b60008083601f840112612b3c57600080fd5b50813567ffffffffffffffff811115612b5457600080fd5b6020830191508360208260051b850101111561297457600080fd5b6001600160a01b0381168114611f4757600080fd5b600080600080600080600060c0888a031215612b9f57600080fd5b8735965060208801359550604088013567ffffffffffffffff811115612bc457600080fd5b612bd08a828b01612b2a565b9096509450506060880135612be481612b6f565b92506080880135915060a0880135612bfb81612b6f565b8091505092959891949750929550565b6020808252825182820181905260009190848201906040850190845b81811015612c4357835183529284019291840191600101612c27565b50909695505050505050565b60008060008060008060a08789031215612c6857600080fd5b86359550602087013567ffffffffffffffff811115612c8657600080fd5b612c9289828a01612b2a565b9096509450506040870135612ca681612b6f565b9250606087013591506080870135612cbd81612b6f565b809150509295509295509295565b600060208284031215612cdd57600080fd5b8135612ce881612b6f565b9392505050565b600060208284031215612d0157600080fd5b5035919050565b60208082526016908201527513585c94ddd85c149bdd5d195c8e881156141254915160521b604082015260600190565b600060208284031215612d4a57600080fd5b8151612ce881612b6f565b83815260406020808301829052908201839052600090849060608401835b86811015612da1578335612d8681612b6f565b6001600160a01b031682529282019290820190600101612d73565b50979650505050505050565b634e487b7160e01b600052604160045260246000fd5b60006020808385031215612dd657600080fd5b825167ffffffffffffffff80821115612dee57600080fd5b818501915085601f830112612e0257600080fd5b815181811115612e1457612e14612dad565b8060051b604051601f19603f83011681018181108582111715612e3957612e39612dad565b604052918252848201925083810185019188831115612e5757600080fd5b938501935b82851015612e7557845184529385019392850192612e5c565b98975050505050505050565b634e487b7160e01b600052601160045260246000fd5b818103818111156126f2576126f2612e81565b634e487b7160e01b600052603260045260246000fd5b60208082526029908201527f4d617253776170526f757465723a20494e53554646494349454e545f4f555450604082015268155517d05353d5539560ba1b606082015260800190565b6020808252601b908201527f4d617253776170526f757465723a20494e56414c49445f504154480000000000604082015260600190565b80820281158282048414176126f2576126f2612e81565b600060208284031215612f6957600080fd5b81518015158114612ce857600080fd5b600060208284031215612f8b57600080fd5b5051919050565b60208082526023908201527f4d4152535f526f757465723a204558434553534956455f494e5055545f414d4f60408201526215539560ea1b606082015260800190565b6020808252818101527f4f776e61626c653a2063616c6c6572206973206e6f7420746865206f776e6572604082015260600190565b60005b8381101561302557818101518382015260200161300d565b50506000910152565b6000825161304081846020870161300a565b9190910192915050565b808201808211156126f2576126f2612e81565b84815283602082015260018060a01b038316604082015260806060820152600082518060808401526130968160a085016020870161300a565b601f01601f19169190910160a00195945050505050565b6000600182016130bf576130bf612e81565b5060010190565b80516001600160701b03811681146121d557600080fd5b6000806000606084860312156130f257600080fd5b6130fb846130c6565b9250613109602085016130c6565b9150604084015163ffffffff8116811461312257600080fd5b80915050925092509256fea2646970667358221220402290570af9adc3d5075462cc626c36ec266b293f7f71cc156e0ee8c051608a64736f6c63430008140033",
  "linkReferences": {},
  "deployedLinkReferences": {}
}