{
  "_format": "hh-sol-artifact-1",
  "contractName": "SHDVToken",
  "sourceName": "contracts/SHDVToken.sol",
  "abi": [
    {
      "inputs": [
        {
          "internalType": "address",
          "name": "_presaleWallet",
          "type": "address"
        },
        {
          "internalType": "address",
          "name": "_liquidityWallet",
          "type": "address"
        },
        {
          "internalType": "address",
          "name": "_teamWallet",
          "type": "address"
        },
        {
          "internalType": "address",
          "name": "_marketingWallet",
          "type": "address"
        },
        {
          "internalType": "address",
          "name": "_ecosystemWallet",
          "type": "address"
        }
      ],
      "stateMutability": "nonpayable",
      "type": "constructor"
    },
    {
      "inputs": [
        {
          "internalType": "address",
          "name": "spender",
          "type": "address"
        },
        {
          "internalType": "uint256",
          "name": "allowance",
          "type": "uint256"
        },
        {
          "internalType": "uint256",
          "name": "needed",
          "type": "uint256"
        }
      ],
      "name": "ERC20InsufficientAllowance",
      "type": "error"
    },
    {
      "inputs": [
        {
          "internalType": "address",
          "name": "sender",
          "type": "address"
        },
        {
          "internalType": "uint256",
          "name": "balance",
          "type": "uint256"
        },
        {
          "internalType": "uint256",
          "name": "needed",
          "type": "uint256"
        }
      ],
      "name": "ERC20InsufficientBalance",
      "type": "error"
    },
    {
      "inputs": [
        {
          "internalType": "address",
          "name": "approver",
          "type": "address"
        }
      ],
      "name": "ERC20InvalidApprover",
      "type": "error"
    },
    {
      "inputs": [
        {
          "internalType": "address",
          "name": "receiver",
          "type": "address"
        }
      ],
      "name": "ERC20InvalidReceiver",
      "type": "error"
    },
    {
      "inputs": [
        {
          "internalType": "address",
          "name": "sender",
          "type": "address"
        }
      ],
      "name": "ERC20InvalidSender",
      "type": "error"
    },
    {
      "inputs": [
        {
          "internalType": "address",
          "name": "spender",
          "type": "address"
        }
      ],
      "name": "ERC20InvalidSpender",
      "type": "error"
    },
    {
      "inputs": [],
      "name": "EnforcedPause",
      "type": "error"
    },
    {
      "inputs": [],
      "name": "ExpectedPause",
      "type": "error"
    },
    {
      "inputs": [
        {
          "internalType": "address",
          "name": "owner",
          "type": "address"
        }
      ],
      "name": "OwnableInvalidOwner",
      "type": "error"
    },
    {
      "inputs": [
        {
          "internalType": "address",
          "name": "account",
          "type": "address"
        }
      ],
      "name": "OwnableUnauthorizedAccount",
      "type": "error"
    },
    {
      "anonymous": false,
      "inputs": [
        {
          "indexed": true,
          "internalType": "address",
          "name": "owner",
          "type": "address"
        },
        {
          "indexed": true,
          "internalType": "address",
          "name": "spender",
          "type": "address"
        },
        {
          "indexed": false,
          "internalType": "uint256",
          "name": "value",
          "type": "uint256"
        }
      ],
      "name": "Approval",
      "type": "event"
    },
    {
      "anonymous": false,
      "inputs": [
        {
          "indexed": true,
          "internalType": "address",
          "name": "account",
          "type": "address"
        }
      ],
      "name": "FeeDiscountGranted",
      "type": "event"
    },
    {
      "anonymous": false,
      "inputs": [
        {
          "indexed": true,
          "internalType": "address",
          "name": "previousOwner",
          "type": "address"
        },
        {
          "indexed": true,
          "internalType": "address",
          "name": "newOwner",
          "type": "address"
        }
      ],
      "name": "OwnershipTransferred",
      "type": "event"
    },
    {
      "anonymous": false,
      "inputs": [
        {
          "indexed": false,
          "internalType": "address",
          "name": "account",
          "type": "address"
        }
      ],
      "name": "Paused",
      "type": "event"
    },
    {
      "anonymous": false,
      "inputs": [
        {
          "indexed": true,
          "internalType": "address",
          "name": "account",
          "type": "address"
        },
        {
          "indexed": false,
          "internalType": "uint256",
          "name": "amount",
          "type": "uint256"
        }
      ],
      "name": "Staked",
      "type": "event"
    },
    {
      "anonymous": false,
      "inputs": [
        {
          "indexed": true,
          "internalType": "address",
          "name": "from",
          "type": "address"
        },
        {
          "indexed": true,
          "internalType": "address",
          "name": "to",
          "type": "address"
        },
        {
          "indexed": false,
          "internalType": "uint256",
          "name": "value",
          "type": "uint256"
        }
      ],
      "name": "Transfer",
      "type": "event"
    },
    {
      "anonymous": false,
      "inputs": [
        {
          "indexed": false,
          "internalType": "address",
          "name": "account",
          "type": "address"
        }
      ],
      "name": "Unpaused",
      "type": "event"
    },
    {
      "anonymous": false,
      "inputs": [
        {
          "indexed": true,
          "internalType": "address",
          "name": "account",
          "type": "address"
        },
        {
          "indexed": false,
          "internalType": "uint256",
          "name": "amount",
          "type": "uint256"
        }
      ],
      "name": "Unstaked",
      "type": "event"
    },
    {
      "inputs": [],
      "name": "ECOSYSTEM_ALLOCATION",
      "outputs": [
        {
          "internalType": "uint256",
          "name": "",
          "type": "uint256"
        }
      ],
      "stateMutability": "view",
      "type": "function"
    },
    {
      "inputs": [],
      "name": "LIQUIDITY_ALLOCATION",
      "outputs": [
        {
          "internalType": "uint256",
          "name": "",
          "type": "uint256"
        }
      ],
      "stateMutability": "view",
      "type": "function"
    },
    {
      "inputs": [],
      "name": "MARKETING_ALLOCATION",
      "outputs": [
        {
          "internalType": "uint256",
          "name": "",
          "type": "uint256"
        }
      ],
      "stateMutability": "view",
      "type": "function"
    },
    {
      "inputs": [],
      "name": "PRESALE_ALLOCATION",
      "outputs": [
        {
          "internalType": "uint256",
          "name": "",
          "type": "uint256"
        }
      ],
      "stateMutability": "view",
      "type": "function"
    },
    {
      "inputs": [],
      "name": "TEAM_ALLOCATION",
      "outputs": [
        {
          "internalType": "uint256",
          "name": "",
          "type": "uint256"
        }
      ],
      "stateMutability": "view",
      "type": "function"
    },
    {
      "inputs": [],
      "name": "TOTAL_SUPPLY",
      "outputs": [
        {
          "internalType": "uint256",
          "name": "",
          "type": "uint256"
        }
      ],
      "stateMutability": "view",
      "type": "function"
    },
    {
      "inputs": [],
      "name": "VESTING_CLIFF",
      "outputs": [
        {
          "internalType": "uint256",
          "name": "",
          "type": "uint256"
        }
      ],
      "stateMutability": "view",
      "type": "function"
    },
    {
      "inputs": [],
      "name": "VESTING_DURATION",
      "outputs": [
        {
          "internalType": "uint256",
          "name": "",
          "type": "uint256"
        }
      ],
      "stateMutability": "view",
      "type": "function"
    },
    {
      "inputs": [
        {
          "internalType": "address",
          "name": "owner",
          "type": "address"
        },
        {
          "internalType": "address",
          "name": "spender",
          "type": "address"
        }
      ],
      "name": "allowance",
      "outputs": [
        {
          "internalType": "uint256",
          "name": "",
          "type": "uint256"
        }
      ],
      "stateMutability": "view",
      "type": "function"
    },
    {
      "inputs": [
        {
          "internalType": "address",
          "name": "spender",
          "type": "address"
        },
        {
          "internalType": "uint256",
          "name": "value",
          "type": "uint256"
        }
      ],
      "name": "approve",
      "outputs": [
        {
          "internalType": "bool",
          "name": "",
          "type": "bool"
        }
      ],
      "stateMutability": "nonpayable",
      "type": "function"
    },
    {
      "inputs": [
        {
          "internalType": "address",
          "name": "account",
          "type": "address"
        }
      ],
      "name": "balanceOf",
      "outputs": [
        {
          "internalType": "uint256",
          "name": "",
          "type": "uint256"
        }
      ],
      "stateMutability": "view",
      "type": "function"
    },
    {
      "inputs": [
        {
          "internalType": "uint256",
          "name": "value",
          "type": "uint256"
        }
      ],
      "name": "burn",
      "outputs": [],
      "stateMutability": "nonpayable",
      "type": "function"
    },
    {
      "inputs": [
        {
          "internalType": "address",
          "name": "account",
          "type": "address"
        },
        {
          "internalType": "uint256",
          "name": "value",
          "type": "uint256"
        }
      ],
      "name": "burnFrom",
      "outputs": [],
      "stateMutability": "nonpayable",
      "type": "function"
    },
    {
      "inputs": [],
      "name": "decimals",
      "outputs": [
        {
          "internalType": "uint8",
          "name": "",
          "type": "uint8"
        }
      ],
      "stateMutability": "view",
      "type": "function"
    },
    {
      "inputs": [
        {
          "internalType": "address",
          "name": "",
          "type": "address"
        }
      ],
      "name": "feeDiscountEligible",
      "outputs": [
        {
          "internalType": "bool",
          "name": "",
          "type": "bool"
        }
      ],
      "stateMutability": "view",
      "type": "function"
    },
    {
      "inputs": [
        {
          "internalType": "address",
          "name": "account",
          "type": "address"
        }
      ],
      "name": "getFeeDiscount",
      "outputs": [
        {
          "internalType": "uint256",
          "name": "",
          "type": "uint256"
        }
      ],
      "stateMutability": "view",
      "type": "function"
    },
    {
      "inputs": [
        {
          "internalType": "address",
          "name": "account",
          "type": "address"
        }
      ],
      "name": "grantFeeDiscount",
      "outputs": [],
      "stateMutability": "nonpayable",
      "type": "function"
    },
    {
      "inputs": [
        {
          "internalType": "address",
          "name": "account",
          "type": "address"
        }
      ],
      "name": "hasAIAccess",
      "outputs": [
        {
          "internalType": "bool",
          "name": "",
          "type": "bool"
        }
      ],
      "stateMutability": "view",
      "type": "function"
    },
    {
      "inputs": [],
      "name": "name",
      "outputs": [
        {
          "internalType": "string",
          "name": "",
          "type": "string"
        }
      ],
      "stateMutability": "view",
      "type": "function"
    },
    {
      "inputs": [],
      "name": "owner",
      "outputs": [
        {
          "internalType": "address",
          "name": "",
          "type": "address"
        }
      ],
      "stateMutability": "view",
      "type": "function"
    },
    {
      "inputs": [],
      "name": "pause",
      "outputs": [],
      "stateMutability": "nonpayable",
      "type": "function"
    },
    {
      "inputs": [],
      "name": "paused",
      "outputs": [
        {
          "internalType": "bool",
          "name": "",
          "type": "bool"
        }
      ],
      "stateMutability": "view",
      "type": "function"
    },
    {
      "inputs": [],
      "name": "releaseVestedTokens",
      "outputs": [],
      "stateMutability": "nonpayable",
      "type": "function"
    },
    {
      "inputs": [],
      "name": "renounceOwnership",
      "outputs": [],
      "stateMutability": "nonpayable",
      "type": "function"
    },
    {
      "inputs": [
        {
          "internalType": "uint256",
          "name": "amount",
          "type": "uint256"
        }
      ],
      "name": "stake",
      "outputs": [],
      "stateMutability": "nonpayable",
      "type": "function"
    },
    {
      "inputs": [
        {
          "internalType": "address",
          "name": "",
          "type": "address"
        }
      ],
      "name": "stakedAmount",
      "outputs": [
        {
          "internalType": "uint256",
          "name": "",
          "type": "uint256"
        }
      ],
      "stateMutability": "view",
      "type": "function"
    },
    {
      "inputs": [],
      "name": "symbol",
      "outputs": [
        {
          "internalType": "string",
          "name": "",
          "type": "string"
        }
      ],
      "stateMutability": "view",
      "type": "function"
    },
    {
      "inputs": [],
      "name": "teamWallet",
      "outputs": [
        {
          "internalType": "address",
          "name": "",
          "type": "address"
        }
      ],
      "stateMutability": "view",
      "type": "function"
    },
    {
      "inputs": [],
      "name": "totalSupply",
      "outputs": [
        {
          "internalType": "uint256",
          "name": "",
          "type": "uint256"
        }
      ],
      "stateMutability": "view",
      "type": "function"
    },
    {
      "inputs": [
        {
          "internalType": "address",
          "name": "to",
          "type": "address"
        },
        {
          "internalType": "uint256",
          "name": "value",
          "type": "uint256"
        }
      ],
      "name": "transfer",
      "outputs": [
        {
          "internalType": "bool",
          "name": "",
          "type": "bool"
        }
      ],
      "stateMutability": "nonpayable",
      "type": "function"
    },
    {
      "inputs": [
        {
          "internalType": "address",
          "name": "from",
          "type": "address"
        },
        {
          "internalType": "address",
          "name": "to",
          "type": "address"
        },
        {
          "internalType": "uint256",
          "name": "value",
          "type": "uint256"
        }
      ],
      "name": "transferFrom",
      "outputs": [
        {
          "internalType": "bool",
          "name": "",
          "type": "bool"
        }
      ],
      "stateMutability": "nonpayable",
      "type": "function"
    },
    {
      "inputs": [
        {
          "internalType": "address",
          "name": "newOwner",
          "type": "address"
        }
      ],
      "name": "transferOwnership",
      "outputs": [],
      "stateMutability": "nonpayable",
      "type": "function"
    },
    {
      "inputs": [],
      "name": "unpause",
      "outputs": [],
      "stateMutability": "nonpayable",
      "type": "function"
    },
    {
      "inputs": [
        {
          "internalType": "uint256",
          "name": "amount",
          "type": "uint256"
        }
      ],
      "name": "unstake",
      "outputs": [],
      "stateMutability": "nonpayable",
      "type": "function"
    },
    {
      "inputs": [],
      "name": "vestingStartTime",
      "outputs": [
        {
          "internalType": "uint256",
          "name": "",
          "type": "uint256"
        }
      ],
      "stateMutability": "view",
      "type": "function"
    }
  ],
  "bytecode": "0x60806040523480156200001157600080fd5b50604051620019e1380380620019e183398101604081905262000034916200061f565b846040518060400160405280601481526020017f536861646f775661756c742050726f746f636f6c0000000000000000000000008152506040518060400160405280600481526020016329a4222b60e11b815250816003908162000099919062000733565b506004620000a8828262000733565b5050506001600160a01b038116620000db57604051631e4fbdf760e01b8152600060048201526024015b60405180910390fd5b620000e681620003e1565b506001600160a01b0385166200013f5760405162461bcd60e51b815260206004820152601660248201527f496e76616c69642070726573616c652077616c6c6574000000000000000000006044820152606401620000d2565b6001600160a01b038416620001975760405162461bcd60e51b815260206004820152601860248201527f496e76616c6964206c69717569646974792077616c6c657400000000000000006044820152606401620000d2565b6001600160a01b038316620001ef5760405162461bcd60e51b815260206004820152601360248201527f496e76616c6964207465616d2077616c6c6574000000000000000000000000006044820152606401620000d2565b6001600160a01b038216620002475760405162461bcd60e51b815260206004820152601860248201527f496e76616c6964206d61726b6574696e672077616c6c657400000000000000006044820152606401620000d2565b6001600160a01b0381166200029f5760405162461bcd60e51b815260206004820152601860248201527f496e76616c69642065636f73797374656d2077616c6c657400000000000000006044820152606401620000d2565b600780546001600160a01b0319166001600160a01b03851617905542600655620002f0856064620002de6b033b2e3c9fd0803ce8000000601462000815565b620002ea919062000835565b62000433565b62000310846064620002de6b033b2e3c9fd0803ce8000000601e62000815565b62000330836064620002de6b033b2e3c9fd0803ce8000000601462000815565b62000350826064620002de6b033b2e3c9fd0803ce8000000600f62000815565b62000370816064620002de6b033b2e3c9fd0803ce8000000600f62000815565b6b033b2e3c9fd0803ce80000006200038760025490565b14620003d65760405162461bcd60e51b815260206004820152601560248201527f546f74616c20737570706c79206d69736d6174636800000000000000000000006044820152606401620000d2565b50505050506200086e565b600580546001600160a01b038381166001600160a01b0319831681179093556040519116919082907f8be0079c531659141344cd1fd0a4f28419497f9722a3daafe3b4186f6b6457e090600090a35050565b6001600160a01b0382166200045f5760405163ec442f0560e01b815260006004820152602401620000d2565b6200046d6000838362000471565b5050565b6200047e83838362000483565b505050565b6200048d6200049a565b6200047e838383620004cf565b620004ae600554600160a01b900460ff1690565b15620004cd5760405163d93c066560e01b815260040160405180910390fd5b565b6001600160a01b038316620004fe578060026000828254620004f2919062000858565b90915550620005729050565b6001600160a01b03831660009081526020819052604090205481811015620005535760405163391434e360e21b81526001600160a01b03851660048201526024810182905260448101839052606401620000d2565b6001600160a01b03841660009081526020819052604090209082900390555b6001600160a01b0382166200059057600280548290039055620005af565b6001600160a01b03821660009081526020819052604090208054820190555b816001600160a01b0316836001600160a01b03167fddf252ad1be2c89b69c2b068fc378daa952ba7f163c4a11628f55a4df523b3ef83604051620005f591815260200190565b60405180910390a3505050565b80516001600160a01b03811681146200061a57600080fd5b919050565b600080600080600060a086880312156200063857600080fd5b620006438662000602565b9450620006536020870162000602565b9350620006636040870162000602565b9250620006736060870162000602565b9150620006836080870162000602565b90509295509295909350565b634e487b7160e01b600052604160045260246000fd5b600181811c90821680620006ba57607f821691505b602082108103620006db57634e487b7160e01b600052602260045260246000fd5b50919050565b601f8211156200047e57600081815260208120601f850160051c810160208610156200070a5750805b601f850160051c820191505b818110156200072b5782815560010162000716565b505050505050565b81516001600160401b038111156200074f576200074f6200068f565b6200076781620007608454620006a5565b84620006e1565b602080601f8311600181146200079f5760008415620007865750858301515b600019600386901b1c1916600185901b1785556200072b565b600085815260208120601f198616915b82811015620007d057888601518255948401946001909101908401620007af565b5085821015620007ef5787850151600019600388901b60f8161c191681555b5050505050600190811b01905550565b634e487b7160e01b600052601160045260246000fd5b80820281158282048414176200082f576200082f620007ff565b92915050565b6000826200085357634e487b7160e01b600052601260045260246000fd5b500490565b808201808211156200082f576200082f620007ff565b611163806200087e6000396000f3fe608060405234801561001057600080fd5b50600436106102105760003560e01c806379cc679011610125578063a9059cbb116100ad578063dd62ed3e1161007c578063dd62ed3e14610446578063f2fde38b1461047f578063f9428f3814610492578063f99318551461049a578063fd99cbed1461042b57600080fd5b8063a9059cbb14610405578063b7fa7cfc14610418578063c7b5a48c1461042b578063cf364dd31461043357600080fd5b8063902d55a5116100f4578063902d55a5146103ce57806390534f24146103c657806395d89b41146103e1578063a694fc3a146103e9578063a8660a78146103fc57600080fd5b806379cc67901461039a5780638456cb59146103ad5780638da5cb5b146103b55780638e80bd39146103c657600080fd5b8063408d7595116101a8578063599270441161017757806359927044146103215780635c975abb1461034c57806363f3dbe51461035e57806370a0823114610369578063715018a61461039257600080fd5b8063408d7595146102d857806342966c68146102fb5780634cfc4d301461030e57806354dd1da41461031957600080fd5b806323b872dd116101e457806323b872dd146102995780632e17de78146102ac578063313ce567146102c15780633f4ba83a146102d057600080fd5b806275c6d71461021557806306fdde031461025f578063095ea7b31461027457806318160ddd14610287575b600080fd5b61024a610223366004610f5c565b6001600160a01b0316600090815260096020526040902054683635c9adc5dea00000111590565b60405190151581526020015b60405180910390f35b6102676104ba565b6040516102569190610f7e565b61024a610282366004610fcc565b61054c565b6002545b604051908152602001610256565b61024a6102a7366004610ff6565b610566565b6102bf6102ba366004611032565b61058a565b005b60405160128152602001610256565b6102bf6106a7565b61024a6102e6366004610f5c565b60086020526000908152604090205460ff1681565b6102bf610309366004611032565b6106b9565b61028b630784ce0081565b6102bf6106c6565b600754610334906001600160a01b031681565b6040516001600160a01b039091168152602001610256565b600554600160a01b900460ff1661024a565b61028b6301e1338081565b61028b610377366004610f5c565b6001600160a01b031660009081526020819052604090205490565b6102bf6107c6565b6102bf6103a8366004610fcc565b6107d8565b6102bf6107f1565b6005546001600160a01b0316610334565b61028b610801565b61028b6b033b2e3c9fd0803ce800000081565b610267610827565b6102bf6103f7366004611032565b610836565b61028b60065481565b61024a610413366004610fcc565b61093d565b61028b610426366004610f5c565b61094b565b61028b6109da565b6102bf610441366004610f5c565b6109f3565b61028b61045436600461104b565b6001600160a01b03918216600090815260016020908152604080832093909416825291909152205490565b6102bf61048d366004610f5c565b610a47565b61028b610a82565b61028b6104a8366004610f5c565b60096020526000908152604090205481565b6060600380546104c99061107e565b80601f01602080910402602001604051908101604052809291908181526020018280546104f59061107e565b80156105425780601f1061051757610100808354040283529160200191610542565b820191906000526020600020905b81548152906001019060200180831161052557829003601f168201915b5050505050905090565b60003361055a818585610a9b565b60019150505b92915050565b600033610574858285610aa8565b61057f858585610b27565b506001949350505050565b600081116105df5760405162461bcd60e51b815260206004820152601d60248201527f416d6f756e74206d7573742062652067726561746572207468616e203000000060448201526064015b60405180910390fd5b3360009081526009602052604090205481111561063e5760405162461bcd60e51b815260206004820152601a60248201527f496e73756666696369656e74207374616b656420616d6f756e7400000000000060448201526064016105d6565b336000908152600960205260408120805483929061065d9084906110ce565b9091555061066e9050303383610b27565b60405181815233907f0f5bb82176feb1b5e747e28471aa92156a04d9f3ab9f45f28e2d704232b93f75906020015b60405180910390a250565b6106af610b86565b6106b7610bb3565b565b6106c33382610c08565b50565b6301e133806006546106d891906110e1565b4210156107275760405162461bcd60e51b815260206004820152601960248201527f56657374696e6720636c696666206e6f7420726561636865640000000000000060448201526064016105d6565b60006006544261073791906110ce565b90506000630784ce0082606461075a6b033b2e3c9fd0803ce800000060146110f4565b610764919061110b565b61076e91906110f4565b610778919061110b565b6007546001600160a01b0316600090815260208190526040812054919250906107a190836110ce565b905080156107c1576007546107c19030906001600160a01b031683610b27565b505050565b6107ce610b86565b6106b76000610c3e565b6107e3823383610aa8565b6107ed8282610c08565b5050565b6107f9610b86565b6106b7610c90565b606461081a6b033b2e3c9fd0803ce8000000600f6110f4565b610824919061110b565b81565b6060600480546104c99061107e565b600081116108865760405162461bcd60e51b815260206004820152601d60248201527f416d6f756e74206d7573742062652067726561746572207468616e203000000060448201526064016105d6565b336000908152602081905260409020548111156108dc5760405162461bcd60e51b8152602060048201526014602482015273496e73756666696369656e742062616c616e636560601b60448201526064016105d6565b6108e7333083610b27565b33600090815260096020526040812080548392906109069084906110e1565b909155505060405181815233907f9e71bc8eea02a63969f509818f2dafb9254532904319f9dbda79b67bd34a5f3d9060200161069c565b60003361055a818585610b27565b6001600160a01b03811660009081526008602052604081205460ff168061099457506001600160a01b03821660009081526009602052604090205469021e19e0c9bab240000011155b156109a157506053919050565b6001600160a01b03821660009081526009602052604090205469010f0cf064dd59200000116109d257506032919050565b506000919050565b606461081a6b033b2e3c9fd0803ce800000060146110f4565b6109fb610b86565b6001600160a01b038116600081815260086020526040808220805460ff19166001179055517f90f2c7a0ea0b7154747851ceb13a69ece58eddbb9e55d96783b2c93899edffad9190a250565b610a4f610b86565b6001600160a01b038116610a7957604051631e4fbdf760e01b8152600060048201526024016105d6565b6106c381610c3e565b606461081a6b033b2e3c9fd0803ce8000000601e6110f4565b6107c18383836001610cd3565b6001600160a01b03838116600090815260016020908152604080832093861683529290522054600019811015610b215781811015610b1257604051637dc7a0d960e11b81526001600160a01b038416600482015260248101829052604481018390526064016105d6565b610b2184848484036000610cd3565b50505050565b6001600160a01b038316610b5157604051634b637e8f60e11b8152600060048201526024016105d6565b6001600160a01b038216610b7b5760405163ec442f0560e01b8152600060048201526024016105d6565b6107c1838383610da8565b6005546001600160a01b031633146106b75760405163118cdaa760e01b81523360048201526024016105d6565b610bbb610db3565b6005805460ff60a01b191690557f5db9ee0a495bf2e6ff9c91a7834c1ba4fdd244a5e8aa4e537bd38aeae4b073aa335b6040516001600160a01b03909116815260200160405180910390a1565b6001600160a01b038216610c3257604051634b637e8f60e11b8152600060048201526024016105d6565b6107ed82600083610da8565b600580546001600160a01b038381166001600160a01b0319831681179093556040519116919082907f8be0079c531659141344cd1fd0a4f28419497f9722a3daafe3b4186f6b6457e090600090a35050565b610c98610ddd565b6005805460ff60a01b1916600160a01b1790557f62e78cea01bee320cd4e420270b5ea74000d11b0c9f74754ebdbfc544b05a258610beb3390565b6001600160a01b038416610cfd5760405163e602df0560e01b8152600060048201526024016105d6565b6001600160a01b038316610d2757604051634a1406b160e11b8152600060048201526024016105d6565b6001600160a01b0380851660009081526001602090815260408083209387168352929052208290558015610b2157826001600160a01b0316846001600160a01b03167f8c5be1e5ebec7d5bd14f71427d1e84f3dd0314c0f7b2291e5b200ac8c7c3b92584604051610d9a91815260200190565b60405180910390a350505050565b6107c1838383610e08565b600554600160a01b900460ff166106b757604051638dfc202b60e01b815260040160405180910390fd5b600554600160a01b900460ff16156106b75760405163d93c066560e01b815260040160405180910390fd5b610e10610ddd565b6107c18383836001600160a01b038316610e41578060026000828254610e3691906110e1565b90915550610eb39050565b6001600160a01b03831660009081526020819052604090205481811015610e945760405163391434e360e21b81526001600160a01b038516600482015260248101829052604481018390526064016105d6565b6001600160a01b03841660009081526020819052604090209082900390555b6001600160a01b038216610ecf57600280548290039055610eee565b6001600160a01b03821660009081526020819052604090208054820190555b816001600160a01b0316836001600160a01b03167fddf252ad1be2c89b69c2b068fc378daa952ba7f163c4a11628f55a4df523b3ef83604051610f3391815260200190565b60405180910390a3505050565b80356001600160a01b0381168114610f5757600080fd5b919050565b600060208284031215610f6e57600080fd5b610f7782610f40565b9392505050565b600060208083528351808285015260005b81811015610fab57858101830151858201604001528201610f8f565b506000604082860101526040601f19601f8301168501019250505092915050565b60008060408385031215610fdf57600080fd5b610fe883610f40565b946020939093013593505050565b60008060006060848603121561100b57600080fd5b61101484610f40565b925061102260208501610f40565b9150604084013590509250925092565b60006020828403121561104457600080fd5b5035919050565b6000806040838503121561105e57600080fd5b61106783610f40565b915061107560208401610f40565b90509250929050565b600181811c9082168061109257607f821691505b6020821081036110b257634e487b7160e01b600052602260045260246000fd5b50919050565b634e487b7160e01b600052601160045260246000fd5b81810381811115610560576105606110b8565b80820180821115610560576105606110b8565b8082028115828204841417610560576105606110b8565b60008261112857634e487b7160e01b600052601260045260246000fd5b50049056fea2646970667358221220bb4512953ab1a459711c8fe64eb86d989840d3be3c9a1347cfe4cd508cba346a64736f6c63430008140033",
  "linkReferences": {},
  "deployedLinkReferences": {}
}