{
	"data": {
		"bytecode": {
			"linkReferences": {},
			"object": "608060405267016345785d8a00006003556000600655670de0b6b3a7640000600755600a6008819055606e6009556014908190556064600c819055600d819055600e8190556096600f5560c86010556032601155601255805460ff191690553480156200006b57600080fd5b50604051620036f9380380620036f98339810160408190526200008e916200017e565b620000993362000111565b600180546001600160a01b038087166001600160a01b0319928316179092556002805492861692909116919091179055600754620000d9906019620001db565b600555600480546001600160a01b039384166001600160a01b031991821617909155600b805492909316911617905550620002099050565b600080546001600160a01b038381166001600160a01b0319831681178455604051919092169283917f8be0079c531659141344cd1fd0a4f28419497f9722a3daafe3b4186f6b6457e09190a35050565b80516001600160a01b03811681146200017957600080fd5b919050565b600080600080608085870312156200019557600080fd5b620001a08562000161565b9350620001b06020860162000161565b9250620001c06040860162000161565b9150620001d06060860162000161565b905092959194509250565b60008160001904831182151516156200020457634e487b7160e01b600052601160045260246000fd5b500290565b6134e080620002196000396000f3fe6080604052600436106103545760003560e01c8063832ef347116101c6578063ce9fa82d116100f7578063f2fde38b11610095578063f6e674ef1161006f578063f6e674ef14610a36578063f9e154ee14610a3e578063fa68708a14610a53578063fc95e4ab14610ab457600080fd5b8063f2fde38b146109d6578063f4a63bd8146109f6578063f5d7bd7f14610a1657600080fd5b8063e62fefc4116100d1578063e62fefc414610980578063e8f7d35d14610996578063f071db5a146109ab578063f0900ca4146109c157600080fd5b8063ce9fa82d1461093a578063d24b22e11461095a578063d8f23f2e1461096d57600080fd5b8063b69473b311610164578063c626c52e1161013e578063c626c52e146108ad578063c8b54a4e146108dd578063c9b1c1fa14610912578063ce5d4c5e1461092757600080fd5b8063b69473b314610865578063b7189dda1461086d578063c3dfdae61461088d57600080fd5b806397e4b05e116101a057806397e4b05e146107a45780639d7d6667146107c45780639fb4620d1461081b578063b187bd261461083b57600080fd5b8063832ef347146107395780638c5afb5a1461074f5780638da5cb5b1461078657600080fd5b806341b0c25b116102a0578063715018a61161023e5780637c54d20c116102185780637c54d20c146106e55780637df48f2c146106fb57806380d29e6614610703578063820b581a1461072357600080fd5b8063715018a614610673578063768367c4146106885780637a1d2db5146106c557600080fd5b80634da928001161027a5780634da928001461057e57806353f836db1461059e5780635a77800c146105be5780635eaaa90c1461065e57600080fd5b806341b0c25b1461052a57806342ff8e441461053f5780634628df651461056957600080fd5b80632c1ef96a1161030d57806339849771116102e757806339849771146104a05780633b84edbd146104b65780633b8d3c56146104d65780633e625844146104f657600080fd5b80632c1ef96a146104285780633109430114610448578063342eb7cc1461048057600080fd5b8063043531b114610360578063187e6f89146103825780631d111d13146103ab57806321154ec5146103c0578063283dd0cb146103e057806329ceb4181461040857600080fd5b3661035b57005b600080fd5b34801561036c57600080fd5b5061038061037b366004613099565b610ad4565b005b34801561038e57600080fd5b5061039860055481565b6040519081526020015b60405180910390f35b3480156103b757600080fd5b50610380610b37565b3480156103cc57600080fd5b506103806103db366004613099565b610b65565b6103f36103ee366004613099565b610b72565b604080519283526020830191909152016103a2565b34801561041457600080fd5b50610380610423366004613099565b610d2f565b34801561043457600080fd5b50610380610443366004612f6e565b610d3c565b34801561045457600080fd5b50600454610468906001600160a01b031681565b6040516001600160a01b0390911681526020016103a2565b34801561048c57600080fd5b50600254610468906001600160a01b031681565b3480156104ac57600080fd5b50610398600a5481565b3480156104c257600080fd5b506103806104d1366004612efb565b610dcf565b3480156104e257600080fd5b506103806104f1366004613099565b610df9565b34801561050257600080fd5b50610516610511366004612efb565b610e06565b6040516103a2989796959493929190613281565b34801561053657600080fd5b506104686110d5565b61055261054d366004613099565b611162565b6040805192151583529015156020830152016103a2565b34801561057557600080fd5b5061039861119f565b34801561058a57600080fd5b5061038061059936600461305f565b611229565b3480156105aa57600080fd5b506103986105b9366004613099565b611244565b3480156105ca57600080fd5b5061062f6105d9366004612efb565b6001600160a01b031660009081526017602090815260408083205460188352818420908452909152902080546001820154600283015460038401546004850154600590950154939592949193909260ff90911690565b6040805196875260208701959095529385019290925260608401526080830152151560a082015260c0016103a2565b34801561066a57600080fd5b5061038061130f565b34801561067f57600080fd5b506103806114f8565b34801561069457600080fd5b5061069d61150a565b604080519586526020860194909452928401919091526060830152608082015260a0016103a2565b3480156106d157600080fd5b506103986106e03660046130cb565b61153c565b3480156106f157600080fd5b5061039860075481565b61069d61162c565b34801561070f57600080fd5b5061038061071e366004612efb565b611676565b34801561072f57600080fd5b5061039860085481565b34801561074557600080fd5b5061039860095481565b34801561075b57600080fd5b5061076f61076a366004612f9a565b6116a0565b6040805192151583526020830191909152016103a2565b34801561079257600080fd5b506000546001600160a01b0316610468565b3480156107b057600080fd5b506103806107bf366004613130565b611820565b3480156107d057600080fd5b50600c54600d54600e54600f54601054601154601254604080519788526020880196909652948601939093526060850191909152608084015260a083015260c082015260e0016103a2565b34801561082757600080fd5b50610380610836366004613099565b611848565b34801561084757600080fd5b506014546108559060ff1681565b60405190151581526020016103a2565b6105526118fa565b34801561087957600080fd5b50610380610888366004612efb565b611938565b34801561089957600080fd5b50600154610468906001600160a01b031681565b3480156108b957600080fd5b506108556108c8366004612efb565b60136020526000908152604090205460ff1681565b6108f06108eb366004613104565b611962565b60408051948552602085019390935291830152151560608201526080016103a2565b34801561091e57600080fd5b50610380611b25565b61069d610935366004613099565b611c37565b34801561094657600080fd5b50610380610955366004613099565b611d65565b610380610968366004613099565b611dd0565b61055261097b366004613099565b6120de565b34801561098c57600080fd5b5061039860035481565b3480156109a257600080fd5b50610398612111565b3480156109b757600080fd5b5061039860065481565b3480156109cd57600080fd5b50610398612135565b3480156109e257600080fd5b506103806109f1366004612efb565b61223c565b348015610a0257600080fd5b50610380610a11366004613099565b6122b5565b348015610a2257600080fd5b50610380610a31366004612f35565b6122c2565b6105526122f5565b348015610a4a57600080fd5b5061038061232a565b348015610a5f57600080fd5b50610a73610a6e36600461305f565b6124d3565b60408051981515895260208901979097529587019490945260608601929092526080850152151560a0840152151560c083015260e0820152610100016103a2565b348015610ac057600080fd5b50610398610acf3660046130cb565b6126bb565b610adc612726565b6064811115610b325760405162461bcd60e51b815260206004820152601b60248201527f6d757374206265206265747765656e203020616e64203130302025000000000060448201526064015b60405180910390fd5b600855565b610b3f612726565b60405133904780156108fc02916000818181858888f19350505050610b6357600080fd5b565b610b6d612726565b600a55565b601454600090819060ff1615610b9a5760405162461bcd60e51b8152600401610b2990613332565b3360009081526017602090815260408083205460188352818420818552909252909120600581015460ff1615610c0a5760405162461bcd60e51b81526020600482015260156024820152744d7573742066696e697368206c6173742047616d6560581b6044820152606401610b29565b610c178160020154612780565b60028101859055601154600382015560058101805460ff19166001908117909155546040516323b872dd60e01b8152336004820152306024820152604481018790526001600160a01b03909116906323b872dd90606401602060405180830381600087803b158015610c8857600080fd5b505af1158015610c9c573d6000803e3d6000fd5b505050506040513d601f19601f82011682018060405250810190610cc0919061307c565b50610cc9612a74565b80835560018301829055604080513381526020810192909252810191909152606081018690527fe3fa5bde10d75bbf2fd822cbd4924ea5eec3bce141d9161a8130aeb9f1e5358f9060800160405180910390a18054600190910154909350915050915091565b610d37612726565b600555565b610d44612726565b60405163a9059cbb60e01b8152336004820152602481018290526001600160a01b0383169063a9059cbb906044015b602060405180830381600087803b158015610d8d57600080fd5b505af1158015610da1573d6000803e3d6000fd5b505050506040513d601f19601f82011682018060405250810190610dc5919061307c565b5050600060065550565b610dd7612726565b600b80546001600160a01b0319166001600160a01b0392909216919091179055565b610e01612726565b600355565b6001600160a01b038116600090815260196020908152604080832054601a83528184208185529092528220805460609384938493849383928392839267ffffffffffffffff811115610e5a57610e5a613471565b604051908082528060200260200182016040528015610e83578160200160208202803683370190505b50815460408051602080840282018101909252828152929c50839190830182828015610ece57602002820191906000526020600020905b815481526020019060010190808311610eba575b50508454939d50505067ffffffffffffffff8211159050610ef157610ef1613471565b604051908082528060200260200182016040528015610f1a578160200160208202803683370190505b5060018201805460408051602080840282018101909252828152939c50830182828015610f6657602002820191906000526020600020905b815481526020019060010190808311610f52575b5050506002840154929b50505067ffffffffffffffff811115610f8b57610f8b613471565b604051908082528060200260200182016040528015610fb4578160200160208202803683370190505b5060028201805460408051602080840282018101909252828152939b5083018282801561100057602002820191906000526020600020905b815481526020019060010190808311610fec575b50508454939b50505067ffffffffffffffff821115905061102357611023613471565b60405190808252806020026020018201604052801561104c578160200160208202803683370190505b5060038201805460408051602080840282018101909252828152939a5083018282801561109857602002820191906000526020600020905b815481526020019060010190808311611084575b505050505096508060040154955080600501549450806006015493508060070160009054906101000a900460ff1692505050919395975091939597565b6000600460009054906101000a90046001600160a01b03166001600160a01b03166361d027b36040518163ffffffff1660e01b815260040160206040518083038186803b15801561112557600080fd5b505afa158015611139573d6000803e3d6000fd5b505050506040513d601f19601f8201168201806040525081019061115d9190612f18565b905090565b601454600090819060ff161561118a5760405162461bcd60e51b8152600401610b2990613332565b611195836001612b03565b9094909350915050565b6006546001546040516370a0823160e01b8152306004820152600092916001600160a01b0316906370a082319060240160206040518083038186803b1580156111e757600080fd5b505afa1580156111fb573d6000803e3d6000fd5b505050506040513d601f19601f8201168201806040525081019061121f91906130b2565b61115d91906133e9565b611231612726565b6014805460ff1916911515919091179055565b600080600b60009054906101000a90046001600160a01b03166001600160a01b031663dbdff2c16040518163ffffffff1660e01b8152600401602060405180830381600087803b15801561129757600080fd5b505af11580156112ab573d6000803e3d6000fd5b505050506040513d601f19601f820116820180604052508101906112cf91906130b2565b905082816040516020016112e591815260200190565b6040516020818303038152906040528051906020012060001c611308919061341b565b9392505050565b60145460ff16156113325760405162461bcd60e51b8152600401610b2990613332565b33600090815260196020908152604080832054601a8352818420818552909252909120600781015460ff166113795760405162461bcd60e51b8152600401610b29906132fb565b6004810154600090819081805b61138e612bf3565b600288018054600181810183556000928352602080842090920184905560038b0180549182018155808452928290200184905581546040805182840281018401909152818152939650939450611418939083018282801561140e57602002820191906000526020600020905b8154815260200190600101908083116113fa575b50505050506116a0565b95505060118510801561142e5750856005015485105b6113865760158511806114445750848660050154115b15611460576001935061145d8660040154601254612c6a565b92505b60058601546040517f04bcbdfa7453595c0b74372e71e39f68ec571585d404fc01d65bf50c191f6a8c916114af9133918a916001830191600284019160038501918b918e906000908f906131ec565b60405180910390a13360009081526019602052604081208054600192906114d790849061339e565b909155508490506114ef576114ef8660040154611877565b50505050505050565b611500612726565b610b636000612d34565b600080600080600061151a612111565b60075460095461152861119f565b600354945094509450945094509091929394565b3360009081526013602052604081205460ff1661156b5760405162461bcd60e51b8152600401610b299061335c565b60648360646009548761157e91906133ca565b61158891906133b6565b61159291906133ca565b61159c91906133b6565b60015460405163a9059cbb60e01b81526001600160a01b0385811660048301526024820184905292935091169063a9059cbb90604401602060405180830381600087803b1580156115ec57600080fd5b505af1158015611600573d6000803e3d6000fd5b505050506040513d601f19601f82011682018060405250810190611624919061307c565b509392505050565b601454600090819081908190819060ff161561165a5760405162461bcd60e51b8152600401610b2990613332565b611665600754611c37565b939992985090965094509092509050565b61167e612726565b600180546001600160a01b0319166001600160a01b0392909216919091179055565b60008080805b8451811015611799576000808683815181106116c4576116c461345b565b60200260200101511180156116f2575060098683815181106116e8576116e861345b565b6020026020010151105b15611720578582815181106117095761170961345b565b6020026020010151600161171d919061339e565b90505b60098683815181106117345761173461345b565b6020026020010151106117455750600a5b8582815181106117575761175761345b565b6020026020010151600014156117795761177260018461339e565b9250600090505b611783818561339e565b935050808061179190613400565b9150506116a6565b50801561180c578160005b828110156117ec57600060156117bb84600b61339e565b116117c85750600b6117cc565b5060015b6117d6818461339e565b92505080806117e490613400565b9150506117a4565b50601581116117fd5780925061180a565b611807828461339e565b92505b505b601582111561181a57600192505b50915091565b611828612726565b600c96909655600d94909455600e92909255600f55601055601155601255565b3360009081526013602052604090205460ff166118775760405162461bcd60e51b8152600401610b299061335c565b600060646008548361188991906133ca565b61189391906133b6565b905080600660008282546118a7919061339e565b9091555050600554600654106118f65760015460025460065460405163a9059cbb60e01b81526001600160a01b039283166004820152602481019190915291169063a9059cbb90604401610d73565b5050565b601454600090819060ff16156119225760405162461bcd60e51b8152600401610b2990613332565b61192f6007546000612b03565b90939092509050565b611940612726565b600280546001600160a01b0319166001600160a01b0392909216919091179055565b60145460009081908190819060ff161561198e5760405162461bcd60e51b8152600401610b2990613332565b846006148061199d575084600c145b806119a85750846014145b6119f45760405162461bcd60e51b815260206004820152601960248201527f6e6f74206120646963652073697a6520617661696c61626c65000000000000006044820152606401610b29565b600086118015611a045750848611155b611a485760405162461bcd60e51b8152602060048201526015602482015274206d7573742062652077697468696e20737065637360581b6044820152606401610b29565b611a5187612780565b600e54600c861415611a625750600f545b8560141415611a7057506010545b86935085925060009150611a8386611244565b611a8e90600161339e565b945086851415611a9d57600191505b60008215611ab257611aaf8983612d84565b90505b82611ac357611ac089612db7565b90505b604080513381526020810188905290810186905260608101859052831515608082015260a081018290527f08a2b5309b1d1ccd8ebe92ab072b951111018932c2bc5c535808182ba7255a8a9060c00160405180910390a1505093509350935093565b611b2d612726565b6001546040516370a0823160e01b81523060048201526000916001600160a01b0316906370a082319060240160206040518083038186803b158015611b7157600080fd5b505afa158015611b85573d6000803e3d6000fd5b505050506040513d601f19601f82011682018060405250810190611ba991906130b2565b60015460405163a9059cbb60e01b8152336004820152602481018390529192506001600160a01b03169063a9059cbb90604401602060405180830381600087803b158015611bf657600080fd5b505af1158015611c0a573d6000803e3d6000fd5b505050506040513d601f19601f82011682018060405250810190611c2e919061307c565b50506000600655565b601454600090819081908190819060ff1615611c655760405162461bcd60e51b8152600401610b2990613332565b611c6e86612780565b611c76612e58565b9093509150611c83612e58565b909550935084831115611c94575060005b84831015611ca0575060015b84831415611cac575060025b600081611cc257611cbf87600d54612d84565b90505b8160011415611cd757611cd487612db7565b90505b6040805133815260208101889052908101869052606081018590526080810184905260a0810183905260c081018290527fd11a8c761be4ee6ea7436f4334f6edc0102e2655078c150d7b799db9efde994b9060e00160405180910390a1336000908152601560205260408120805460019290611d5490849061339e565b925050819055505091939590929450565b611d6d612726565b60328110158015611d7f575060c88111155b611dcb5760405162461bcd60e51b815260206004820152601c60248201527f6d757374206265206265747765656e20353020616e64203230302025000000006044820152606401610b29565b600955565b60145460ff1615611df35760405162461bcd60e51b8152600401610b2990613332565b33600090815260196020908152604080832054601a8352818420818552909252909120600781015460ff1615611e635760405162461bcd60e51b81526020600482015260156024820152744d7573742066696e697368206c6173742047616d6560581b6044820152606401610b29565b611e708160040154612780565b600481810184905560078201805460ff19166001908117909155546040516323b872dd60e01b81523392810192909252306024830152604482018590526001600160a01b0316906323b872dd90606401602060405180830381600087803b158015611eda57600080fd5b505af1158015611eee573d6000803e3d6000fd5b505050506040513d601f19601f82011682018060405250810190611f12919061307c565b5060008060005b6002811015611f6d57611f2a612bf3565b8554600181810188556000888152602080822090930184905581890180549283018155815291909120018290559350915080611f6581613400565b915050611f19565b50600080611fca8560010180548060200260200160405190810160405280929190818152602001828054801561140e57602002820191906000526020600020908154815260200190600101908083116113fa5750505050506116a0565b600587018190559092509050611fde612bf3565b600287018054600181810183556000928352602080842090920184905560038a018054918201815580845282842090910185905580546040805182850281018501909152818152949950949750919361206a93929183018282801561140e57602002820191906000526020600020908154815260200190600101908083116113fa5750505050506116a0565b9150508086600601819055507f04bcbdfa7453595c0b74372e71e39f68ec571585d404fc01d65bf50c191f6a8c338760000188600101896002018a6003018d8c600501548d600601548b60006040516120cc9a999897969594939291906131ec565b60405180910390a15050505050505050565b601454600090819060ff16156121065760405162461bcd60e51b8152600401610b2990613332565b611195836000612b03565b6000600a5460065461212161119f565b61212b91906133e9565b61115d91906133b6565b60145460009060ff161561215b5760405162461bcd60e51b8152600401610b2990613332565b3360009081526017602090815260408083205460188352818420818552909252909120600581015460ff166121c25760405162461bcd60e51b815260206004820152600d60248201526c6e6f7420696e20612067616d6560981b6044820152606401610b29565b6121d481600201548260030154612c6a565b60408051338152602081018390529194507f293b0ebfc4f0e3517e5481605c5b7bd3194453b3f323bc1322b6d4e9ba326ec3910160405180910390a133600090815260176020526040812080546001929061223090849061339e565b92505081905550505090565b612244612726565b6001600160a01b0381166122a95760405162461bcd60e51b815260206004820152602660248201527f4f776e61626c653a206e6577206f776e657220697320746865207a65726f206160448201526564647265737360d01b6064820152608401610b29565b6122b281612d34565b50565b6122bd612726565b600755565b6122ca612726565b6001600160a01b03919091166000908152601360205260409020805460ff1916911515919091179055565b601454600090819060ff161561231d5760405162461bcd60e51b8152600401610b2990613332565b61192f6007546001612b03565b60145460ff161561234d5760405162461bcd60e51b8152600401610b2990613332565b33600090815260196020908152604080832054601a8352818420818552909252909120600781015460ff166123945760405162461bcd60e51b8152600401610b29906132fb565b60008061239f612bf3565b845460018181018755600087815260208082209093018490558188018054928301815580825283822090920185905581546040805182860281018601909152818152949750949550938493612429939092919083018282801561140e57602002820191906000526020600020908154815260200190600101908083116113fa5750505050506116a0565b60058701819055600487015460068801546040519395509193507f04bcbdfa7453595c0b74372e71e39f68ec571585d404fc01d65bf50c191f6a8c9261248a9233928a9260018401926002850192600386019290918a918c906000906131ec565b60405180910390a181156124cb573360009081526019602052604081208054600192906124b890849061339e565b909155505060048501546124cb90611877565b505050505050565b600080600080600080600080601460009054906101000a900460ff161561250c5760405162461bcd60e51b8152600401610b2990613332565b3360009081526017602090815260408083205460188352818420818552909252909120600581015460ff166125535760405162461bcd60e51b8152600401610b29906132fb565b805460018201549099509750612567612a74565b82556001820181905588101561257c57600199505b8915158b151514156125f157601154816003015461259a919061339e565b600382018190556002820154906064906125b490836133ca565b6125be91906133b6565b6125c8919061339e565b6004820181905560038201546001965090935061012c116125f157600193506125ef612135565b505b80546001820154600283015460408051338152602081018e90528082018d90526060810194909452608084019290925287151560a084015260c0830186905286151560e0840152610100830152517f30d0b6d78e1e426a1acfeb2484586c636eb5c8af529f4733d844d5e7a86a065b918190036101200190a1846126a25733600090815260176020526040812080546001929061268f90849061339e565b909155505060028101546126a290611877565b8054600190910154909650945050919395975091939597565b3360009081526013602052604081205460ff166126ea5760405162461bcd60e51b8152600401610b299061335c565b836064846064600954886126fe91906133ca565b61270891906133b6565b61271291906133ca565b61271c91906133b6565b61159c919061339e565b6000546001600160a01b03163314610b635760405162461bcd60e51b815260206004820181905260248201527f4f776e61626c653a2063616c6c6572206973206e6f7420746865206f776e65726044820152606401610b29565b6000600460009054906101000a90046001600160a01b03166001600160a01b03166361d027b36040518163ffffffff1660e01b815260040160206040518083038186803b1580156127d057600080fd5b505afa1580156127e4573d6000803e3d6000fd5b505050506040513d601f19601f820116820180604052508101906128089190612f18565b9050612812612111565b8211156128615760405162461bcd60e51b815260206004820152601b60248201527f796f7572206265742069732061626f766520746865206c696d697400000000006044820152606401610b29565b6001546040516370a0823160e01b815233600482015283916001600160a01b0316906370a082319060240160206040518083038186803b1580156128a457600080fd5b505afa1580156128b8573d6000803e3d6000fd5b505050506040513d601f19601f820116820180604052508101906128dc91906130b2565b10156129215760405162461bcd60e51b8152602060048201526014602482015273496e73756666696369656e742062616c616e636560601b6044820152606401610b29565b600154604051636eb1769f60e11b815233600482015230602482015283916001600160a01b03169063dd62ed3e9060440160206040518083038186803b15801561296a57600080fd5b505afa15801561297e573d6000803e3d6000fd5b505050506040513d601f19601f820116820180604052508101906129a291906130b2565b10156129fc5760405162461bcd60e51b8152602060048201526024808201527f706c6561736520617070726f766520636f6e7472616374206f6e2047616d655460448201526337b5b2b760e11b6064820152608401610b29565b600354156118f657600354471015612a475760405162461bcd60e51b815260206004820152600e60248201526d2737ba1032b737bab3b41021272160911b6044820152606401610b29565b6040516001600160a01b038216904780156108fc02916000818181858888f193505050506118f657600080fd5b33600090815260176020908152604080832054601883528184208185529092528220829182915b612aa56004611244565b9350612ab1600d611244565b945084612abf85600d6133ca565b612ac9919061339e565b600081815260068301602052604090205490935060ff16612a9b5760009283526006016020525060409020805460ff191660011790559091565b601454600090819060ff1615612b2b5760405162461bcd60e51b8152600401610b2990613332565b612b3484612780565b6000612b41612710611244565b90506110688110612b56578315925082612b5b565b839250825b5082151584151514612b71576000915081612b77565b60019150815b5060008215612b8f57612b8c86600c54612d84565b90505b82612ba057612b9d86612db7565b90505b60408051338152841515602082015290810182905284151560608201527f4f91bbc3534b7027dcd697dd5aa5b2dfaeb6895a895837adcaa84815ca3c45229060800160405180910390a150509250929050565b33600090815260196020908152604080832054601a83528184208185529092528220829182915b612c246004611244565b9350612c30600d611244565b945084612c3e85600d6133ca565b612c48919061339e565b600081815260088301602052604090205490935060ff16612c1a575050509091565b600082606483606460095487612c8091906133ca565b612c8a91906133b6565b612c9491906133ca565b612c9e91906133b6565b612ca8919061339e565b60015460405163a9059cbb60e01b8152336004820152602481018390529192506001600160a01b03169063a9059cbb90604401602060405180830381600087803b158015612cf557600080fd5b505af1158015612d09573d6000803e3d6000fd5b505050506040513d601f19601f82011682018060405250810190612d2d919061307c565b5092915050565b600080546001600160a01b038381166001600160a01b0319831681178455604051919092169283917f8be0079c531659141344cd1fd0a4f28419497f9722a3daafe3b4186f6b6457e09190a35050565b6000606482606460095486612d9991906133ca565b612da391906133b6565b612dad91906133ca565b612ca891906133b6565b6001546040516323b872dd60e01b81523360048201523060248201526044810183905282916001600160a01b0316906323b872dd90606401602060405180830381600087803b158015612e0957600080fd5b505af1158015612e1d573d6000803e3d6000fd5b505050506040513d601f19601f82011682018060405250810190612e41919061307c565b5060085415612e5357612e5382611877565b919050565b33600090815260156020526040812054819081905b612e776004611244565b9250612e83600d611244565b935083612e9184600d6133ca565b612e9b919061339e565b336000908152601660209081526040808320858452825280832084845290915290205490925060ff16612e6d57336000908152601660209081526040808320938352928152828220938252929092529020805460ff191660011790559091565b600060208284031215612f0d57600080fd5b813561130881613487565b600060208284031215612f2a57600080fd5b815161130881613487565b60008060408385031215612f4857600080fd5b8235612f5381613487565b91506020830135612f638161349c565b809150509250929050565b60008060408385031215612f8157600080fd5b8235612f8c81613487565b946020939093013593505050565b60006020808385031215612fad57600080fd5b823567ffffffffffffffff80821115612fc557600080fd5b818501915085601f830112612fd957600080fd5b813581811115612feb57612feb613471565b8060051b604051601f19603f8301168101818110858211171561301057613010613471565b604052828152858101935084860182860187018a101561302f57600080fd5b600095505b83861015613052578035855260019590950194938601938601613034565b5098975050505050505050565b60006020828403121561307157600080fd5b81356113088161349c565b60006020828403121561308e57600080fd5b81516113088161349c565b6000602082840312156130ab57600080fd5b5035919050565b6000602082840312156130c457600080fd5b5051919050565b6000806000606084860312156130e057600080fd5b833592506020840135915060408401356130f981613487565b809150509250925092565b60008060006060848603121561311957600080fd5b505081359360208301359350604090920135919050565b600080600080600080600060e0888a03121561314b57600080fd5b505085359760208701359750604087013596606081013596506080810135955060a0810135945060c0013592509050565b600081518084526020808501945080840160005b838110156131ac57815187529582019590820190600101613190565b509495945050505050565b6000815480845260208085019450836000528060002060005b838110156131ac578154875295820195600191820191016131d0565b6001600160a01b038b168152610140602082018190526000906132118382018d6131b7565b90508281036040840152613225818c6131b7565b90508281036060840152613239818b6131b7565b9050828103608084015261324d818a6131b7565b60a0840198909852505060c081019490945260e0840192909252151561010083015215156101209091015295945050505050565b60006101008083526132958184018c61317c565b905082810360208401526132a9818b61317c565b905082810360408401526132bd818a61317c565b905082810360608401526132d1818961317c565b9150508560808301528460a08301528360c083015282151560e08301529998505050505050505050565b6020808252601a908201527f53746172744e657747616d6520746f20706c617920616761696e000000000000604082015260600190565b60208082526010908201526f19d85b595cc8185c99481c185d5cd95960821b604082015260600190565b60208082526022908201527f796f7520617265206e6f7420612067616d6520636f6e747261637420666f7220604082015261464760f01b606082015260800190565b600082198211156133b1576133b161342f565b500190565b6000826133c5576133c5613445565b500490565b60008160001904831182151516156133e4576133e461342f565b500290565b6000828210156133fb576133fb61342f565b500390565b60006000198214156134145761341461342f565b5060010190565b60008261342a5761342a613445565b500690565b634e487b7160e01b600052601160045260246000fd5b634e487b7160e01b600052601260045260246000fd5b634e487b7160e01b600052603260045260246000fd5b634e487b7160e01b600052604160045260246000fd5b6001600160a01b03811681146122b257600080fd5b80151581146122b257600080fdfea2646970667358221220e8f04ffb8299a3525fc32b1d4e1ad74c40a137ce193c4174429147e393c9184264736f6c63430008070033",
			"opcodes": "PUSH1 0x80 PUSH1 0x40 MSTORE PUSH8 0x16345785D8A0000 PUSH1 0x3 SSTORE PUSH1 0x0 PUSH1 0x6 SSTORE PUSH8 0xDE0B6B3A7640000 PUSH1 0x7 SSTORE PUSH1 0xA PUSH1 0x8 DUP2 SWAP1 SSTORE PUSH1 0x6E PUSH1 0x9 SSTORE PUSH1 0x14 SWAP1 DUP2 SWAP1 SSTORE PUSH1 0x64 PUSH1 0xC DUP2 SWAP1 SSTORE PUSH1 0xD DUP2 SWAP1 SSTORE PUSH1 0xE DUP2 SWAP1 SSTORE PUSH1 0x96 PUSH1 0xF SSTORE PUSH1 0xC8 PUSH1 0x10 SSTORE PUSH1 0x32 PUSH1 0x11 SSTORE PUSH1 0x12 SSTORE DUP1 SLOAD PUSH1 0xFF NOT AND SWAP1 SSTORE CALLVALUE DUP1 ISZERO PUSH3 0x6B JUMPI PUSH1 0x0 DUP1 REVERT JUMPDEST POP PUSH1 0x40 MLOAD PUSH3 0x36F9 CODESIZE SUB DUP1 PUSH3 0x36F9 DUP4 CODECOPY DUP2 ADD PUSH1 0x40 DUP2 SWAP1 MSTORE PUSH3 0x8E SWAP2 PUSH3 0x17E JUMP JUMPDEST PUSH3 0x99 CALLER PUSH3 0x111 JUMP JUMPDEST PUSH1 0x1 DUP1 SLOAD PUSH1 0x1 PUSH1 0x1 PUSH1 0xA0 SHL SUB DUP1 DUP8 AND PUSH1 0x1 PUSH1 0x1 PUSH1 0xA0 SHL SUB NOT SWAP3 DUP4 AND OR SWAP1 SWAP3 SSTORE PUSH1 0x2 DUP1 SLOAD SWAP3 DUP7 AND SWAP3 SWAP1 SWAP2 AND SWAP2 SWAP1 SWAP2 OR SWAP1 SSTORE PUSH1 0x7 SLOAD PUSH3 0xD9 SWAP1 PUSH1 0x19 PUSH3 0x1DB JUMP JUMPDEST PUSH1 0x5 SSTORE PUSH1 0x4 DUP1 SLOAD PUSH1 0x1 PUSH1 0x1 PUSH1 0xA0 SHL SUB SWAP4 DUP5 AND PUSH1 0x1 PUSH1 0x1 PUSH1 0xA0 SHL SUB NOT SWAP2 DUP3 AND OR SWAP1 SWAP2 SSTORE PUSH1 0xB DUP1 SLOAD SWAP3 SWAP1 SWAP4 AND SWAP2 AND OR SWAP1 SSTORE POP PUSH3 0x209 SWAP1 POP JUMP JUMPDEST PUSH1 0x0 DUP1 SLOAD PUSH1 0x1 PUSH1 0x1 PUSH1 0xA0 SHL SUB DUP4 DUP2 AND PUSH1 0x1 PUSH1 0x1 PUSH1 0xA0 SHL SUB NOT DUP4 AND DUP2 OR DUP5 SSTORE PUSH1 0x40 MLOAD SWAP2 SWAP1 SWAP3 AND SWAP3 DUP4 SWAP2 PUSH32 0x8BE0079C531659141344CD1FD0A4F28419497F9722A3DAAFE3B4186F6B6457E0 SWAP2 SWAP1 LOG3 POP POP JUMP JUMPDEST DUP1 MLOAD PUSH1 0x1 PUSH1 0x1 PUSH1 0xA0 SHL SUB DUP2 AND DUP2 EQ PUSH3 0x179 JUMPI PUSH1 0x0 DUP1 REVERT JUMPDEST SWAP2 SWAP1 POP JUMP JUMPDEST PUSH1 0x0 DUP1 PUSH1 0x0 DUP1 PUSH1 0x80 DUP6 DUP8 SUB SLT ISZERO PUSH3 0x195 JUMPI PUSH1 0x0 DUP1 REVERT JUMPDEST PUSH3 0x1A0 DUP6 PUSH3 0x161 JUMP JUMPDEST SWAP4 POP PUSH3 0x1B0 PUSH1 0x20 DUP7 ADD PUSH3 0x161 JUMP JUMPDEST SWAP3 POP PUSH3 0x1C0 PUSH1 0x40 DUP7 ADD PUSH3 0x161 JUMP JUMPDEST SWAP2 POP PUSH3 0x1D0 PUSH1 0x60 DUP7 ADD PUSH3 0x161 JUMP JUMPDEST SWAP1 POP SWAP3 SWAP6 SWAP2 SWAP5 POP SWAP3 POP JUMP JUMPDEST PUSH1 0x0 DUP2 PUSH1 0x0 NOT DIV DUP4 GT DUP3 ISZERO ISZERO AND ISZERO PUSH3 0x204 JUMPI PUSH4 0x4E487B71 PUSH1 0xE0 SHL PUSH1 0x0 MSTORE PUSH1 0x11 PUSH1 0x4 MSTORE PUSH1 0x24 PUSH1 0x0 REVERT JUMPDEST POP MUL SWAP1 JUMP JUMPDEST PUSH2 0x34E0 DUP1 PUSH3 0x219 PUSH1 0x0 CODECOPY PUSH1 0x0 RETURN INVALID PUSH1 0x80 PUSH1 0x40 MSTORE PUSH1 0x4 CALLDATASIZE LT PUSH2 0x354 JUMPI PUSH1 0x0 CALLDATALOAD PUSH1 0xE0 SHR DUP1 PUSH4 0x832EF347 GT PUSH2 0x1C6 JUMPI DUP1 PUSH4 0xCE9FA82D GT PUSH2 0xF7 JUMPI DUP1 PUSH4 0xF2FDE38B GT PUSH2 0x95 JUMPI DUP1 PUSH4 0xF6E674EF GT PUSH2 0x6F JUMPI DUP1 PUSH4 0xF6E674EF EQ PUSH2 0xA36 JUMPI DUP1 PUSH4 0xF9E154EE EQ PUSH2 0xA3E JUMPI DUP1 PUSH4 0xFA68708A EQ PUSH2 0xA53 JUMPI DUP1 PUSH4 0xFC95E4AB EQ PUSH2 0xAB4 JUMPI PUSH1 0x0 DUP1 REVERT JUMPDEST DUP1 PUSH4 0xF2FDE38B EQ PUSH2 0x9D6 JUMPI DUP1 PUSH4 0xF4A63BD8 EQ PUSH2 0x9F6 JUMPI DUP1 PUSH4 0xF5D7BD7F EQ PUSH2 0xA16 JUMPI PUSH1 0x0 DUP1 REVERT JUMPDEST DUP1 PUSH4 0xE62FEFC4 GT PUSH2 0xD1 JUMPI DUP1 PUSH4 0xE62FEFC4 EQ PUSH2 0x980 JUMPI DUP1 PUSH4 0xE8F7D35D EQ PUSH2 0x996 JUMPI DUP1 PUSH4 0xF071DB5A EQ PUSH2 0x9AB JUMPI DUP1 PUSH4 0xF0900CA4 EQ PUSH2 0x9C1 JUMPI PUSH1 0x0 DUP1 REVERT JUMPDEST DUP1 PUSH4 0xCE9FA82D EQ PUSH2 0x93A JUMPI DUP1 PUSH4 0xD24B22E1 EQ PUSH2 0x95A JUMPI DUP1 PUSH4 0xD8F23F2E EQ PUSH2 0x96D JUMPI PUSH1 0x0 DUP1 REVERT JUMPDEST DUP1 PUSH4 0xB69473B3 GT PUSH2 0x164 JUMPI DUP1 PUSH4 0xC626C52E GT PUSH2 0x13E JUMPI DUP1 PUSH4 0xC626C52E EQ PUSH2 0x8AD JUMPI DUP1 PUSH4 0xC8B54A4E EQ PUSH2 0x8DD JUMPI DUP1 PUSH4 0xC9B1C1FA EQ PUSH2 0x912 JUMPI DUP1 PUSH4 0xCE5D4C5E EQ PUSH2 0x927 JUMPI PUSH1 0x0 DUP1 REVERT JUMPDEST DUP1 PUSH4 0xB69473B3 EQ PUSH2 0x865 JUMPI DUP1 PUSH4 0xB7189DDA EQ PUSH2 0x86D JUMPI DUP1 PUSH4 0xC3DFDAE6 EQ PUSH2 0x88D JUMPI PUSH1 0x0 DUP1 REVERT JUMPDEST DUP1 PUSH4 0x97E4B05E GT PUSH2 0x1A0 JUMPI DUP1 PUSH4 0x97E4B05E EQ PUSH2 0x7A4 JUMPI DUP1 PUSH4 0x9D7D6667 EQ PUSH2 0x7C4 JUMPI DUP1 PUSH4 0x9FB4620D EQ PUSH2 0x81B JUMPI DUP1 PUSH4 0xB187BD26 EQ PUSH2 0x83B JUMPI PUSH1 0x0 DUP1 REVERT JUMPDEST DUP1 PUSH4 0x832EF347 EQ PUSH2 0x739 JUMPI DUP1 PUSH4 0x8C5AFB5A EQ PUSH2 0x74F JUMPI DUP1 PUSH4 0x8DA5CB5B EQ PUSH2 0x786 JUMPI PUSH1 0x0 DUP1 REVERT JUMPDEST DUP1 PUSH4 0x41B0C25B GT PUSH2 0x2A0 JUMPI DUP1 PUSH4 0x715018A6 GT PUSH2 0x23E JUMPI DUP1 PUSH4 0x7C54D20C GT PUSH2 0x218 JUMPI DUP1 PUSH4 0x7C54D20C EQ PUSH2 0x6E5 JUMPI DUP1 PUSH4 0x7DF48F2C EQ PUSH2 0x6FB JUMPI DUP1 PUSH4 0x80D29E66 EQ PUSH2 0x703 JUMPI DUP1 PUSH4 0x820B581A EQ PUSH2 0x723 JUMPI PUSH1 0x0 DUP1 REVERT JUMPDEST DUP1 PUSH4 0x715018A6 EQ PUSH2 0x673 JUMPI DUP1 PUSH4 0x768367C4 EQ PUSH2 0x688 JUMPI DUP1 PUSH4 0x7A1D2DB5 EQ PUSH2 0x6C5 JUMPI PUSH1 0x0 DUP1 REVERT JUMPDEST DUP1 PUSH4 0x4DA92800 GT PUSH2 0x27A JUMPI DUP1 PUSH4 0x4DA92800 EQ PUSH2 0x57E JUMPI DUP1 PUSH4 0x53F836DB EQ PUSH2 0x59E JUMPI DUP1 PUSH4 0x5A77800C EQ PUSH2 0x5BE JUMPI DUP1 PUSH4 0x5EAAA90C EQ PUSH2 0x65E JUMPI PUSH1 0x0 DUP1 REVERT JUMPDEST DUP1 PUSH4 0x41B0C25B EQ PUSH2 0x52A JUMPI DUP1 PUSH4 0x42FF8E44 EQ PUSH2 0x53F JUMPI DUP1 PUSH4 0x4628DF65 EQ PUSH2 0x569 JUMPI PUSH1 0x0 DUP1 REVERT JUMPDEST DUP1 PUSH4 0x2C1EF96A GT PUSH2 0x30D JUMPI DUP1 PUSH4 0x39849771 GT PUSH2 0x2E7 JUMPI DUP1 PUSH4 0x39849771 EQ PUSH2 0x4A0 JUMPI DUP1 PUSH4 0x3B84EDBD EQ PUSH2 0x4B6 JUMPI DUP1 PUSH4 0x3B8D3C56 EQ PUSH2 0x4D6 JUMPI DUP1 PUSH4 0x3E625844 EQ PUSH2 0x4F6 JUMPI PUSH1 0x0 DUP1 REVERT JUMPDEST DUP1 PUSH4 0x2C1EF96A EQ PUSH2 0x428 JUMPI DUP1 PUSH4 0x31094301 EQ PUSH2 0x448 JUMPI DUP1 PUSH4 0x342EB7CC EQ PUSH2 0x480 JUMPI PUSH1 0x0 DUP1 REVERT JUMPDEST DUP1 PUSH4 0x43531B1 EQ PUSH2 0x360 JUMPI DUP1 PUSH4 0x187E6F89 EQ PUSH2 0x382 JUMPI DUP1 PUSH4 0x1D111D13 EQ PUSH2 0x3AB JUMPI DUP1 PUSH4 0x21154EC5 EQ PUSH2 0x3C0 JUMPI DUP1 PUSH4 0x283DD0CB EQ PUSH2 0x3E0 JUMPI DUP1 PUSH4 0x29CEB418 EQ PUSH2 0x408 JUMPI PUSH1 0x0 DUP1 REVERT JUMPDEST CALLDATASIZE PUSH2 0x35B JUMPI STOP JUMPDEST PUSH1 0x0 DUP1 REVERT JUMPDEST CALLVALUE DUP1 ISZERO PUSH2 0x36C JUMPI PUSH1 0x0 DUP1 REVERT JUMPDEST POP PUSH2 0x380 PUSH2 0x37B CALLDATASIZE PUSH1 0x4 PUSH2 0x3099 JUMP JUMPDEST PUSH2 0xAD4 JUMP JUMPDEST STOP JUMPDEST CALLVALUE DUP1 ISZERO PUSH2 0x38E JUMPI PUSH1 0x0 DUP1 REVERT JUMPDEST POP PUSH2 0x398 PUSH1 0x5 SLOAD DUP2 JUMP JUMPDEST PUSH1 0x40 MLOAD SWAP1 DUP2 MSTORE PUSH1 0x20 ADD JUMPDEST PUSH1 0x40 MLOAD DUP1 SWAP2 SUB SWAP1 RETURN JUMPDEST CALLVALUE DUP1 ISZERO PUSH2 0x3B7 JUMPI PUSH1 0x0 DUP1 REVERT JUMPDEST POP PUSH2 0x380 PUSH2 0xB37 JUMP JUMPDEST CALLVALUE DUP1 ISZERO PUSH2 0x3CC JUMPI PUSH1 0x0 DUP1 REVERT JUMPDEST POP PUSH2 0x380 PUSH2 0x3DB CALLDATASIZE PUSH1 0x4 PUSH2 0x3099 JUMP JUMPDEST PUSH2 0xB65 JUMP JUMPDEST PUSH2 0x3F3 PUSH2 0x3EE CALLDATASIZE PUSH1 0x4 PUSH2 0x3099 JUMP JUMPDEST PUSH2 0xB72 JUMP JUMPDEST PUSH1 0x40 DUP1 MLOAD SWAP3 DUP4 MSTORE PUSH1 0x20 DUP4 ADD SWAP2 SWAP1 SWAP2 MSTORE ADD PUSH2 0x3A2 JUMP JUMPDEST CALLVALUE DUP1 ISZERO PUSH2 0x414 JUMPI PUSH1 0x0 DUP1 REVERT JUMPDEST POP PUSH2 0x380 PUSH2 0x423 CALLDATASIZE PUSH1 0x4 PUSH2 0x3099 JUMP JUMPDEST PUSH2 0xD2F JUMP JUMPDEST CALLVALUE DUP1 ISZERO PUSH2 0x434 JUMPI PUSH1 0x0 DUP1 REVERT JUMPDEST POP PUSH2 0x380 PUSH2 0x443 CALLDATASIZE PUSH1 0x4 PUSH2 0x2F6E JUMP JUMPDEST PUSH2 0xD3C JUMP JUMPDEST CALLVALUE DUP1 ISZERO PUSH2 0x454 JUMPI PUSH1 0x0 DUP1 REVERT JUMPDEST POP PUSH1 0x4 SLOAD PUSH2 0x468 SWAP1 PUSH1 0x1 PUSH1 0x1 PUSH1 0xA0 SHL SUB AND DUP2 JUMP JUMPDEST PUSH1 0x40 MLOAD PUSH1 0x1 PUSH1 0x1 PUSH1 0xA0 SHL SUB SWAP1 SWAP2 AND DUP2 MSTORE PUSH1 0x20 ADD PUSH2 0x3A2 JUMP JUMPDEST CALLVALUE DUP1 ISZERO PUSH2 0x48C JUMPI PUSH1 0x0 DUP1 REVERT JUMPDEST POP PUSH1 0x2 SLOAD PUSH2 0x468 SWAP1 PUSH1 0x1 PUSH1 0x1 PUSH1 0xA0 SHL SUB AND DUP2 JUMP JUMPDEST CALLVALUE DUP1 ISZERO PUSH2 0x4AC JUMPI PUSH1 0x0 DUP1 REVERT JUMPDEST POP PUSH2 0x398 PUSH1 0xA SLOAD DUP2 JUMP JUMPDEST CALLVALUE DUP1 ISZERO PUSH2 0x4C2 JUMPI PUSH1 0x0 DUP1 REVERT JUMPDEST POP PUSH2 0x380 PUSH2 0x4D1 CALLDATASIZE PUSH1 0x4 PUSH2 0x2EFB JUMP JUMPDEST PUSH2 0xDCF JUMP JUMPDEST CALLVALUE DUP1 ISZERO PUSH2 0x4E2 JUMPI PUSH1 0x0 DUP1 REVERT JUMPDEST POP PUSH2 0x380 PUSH2 0x4F1 CALLDATASIZE PUSH1 0x4 PUSH2 0x3099 JUMP JUMPDEST PUSH2 0xDF9 JUMP JUMPDEST CALLVALUE DUP1 ISZERO PUSH2 0x502 JUMPI PUSH1 0x0 DUP1 REVERT JUMPDEST POP PUSH2 0x516 PUSH2 0x511 CALLDATASIZE PUSH1 0x4 PUSH2 0x2EFB JUMP JUMPDEST PUSH2 0xE06 JUMP JUMPDEST PUSH1 0x40 MLOAD PUSH2 0x3A2 SWAP9 SWAP8 SWAP7 SWAP6 SWAP5 SWAP4 SWAP3 SWAP2 SWAP1 PUSH2 0x3281 JUMP JUMPDEST CALLVALUE DUP1 ISZERO PUSH2 0x536 JUMPI PUSH1 0x0 DUP1 REVERT JUMPDEST POP PUSH2 0x468 PUSH2 0x10D5 JUMP JUMPDEST PUSH2 0x552 PUSH2 0x54D CALLDATASIZE PUSH1 0x4 PUSH2 0x3099 JUMP JUMPDEST PUSH2 0x1162 JUMP JUMPDEST PUSH1 0x40 DUP1 MLOAD SWAP3 ISZERO ISZERO DUP4 MSTORE SWAP1 ISZERO ISZERO PUSH1 0x20 DUP4 ADD MSTORE ADD PUSH2 0x3A2 JUMP JUMPDEST CALLVALUE DUP1 ISZERO PUSH2 0x575 JUMPI PUSH1 0x0 DUP1 REVERT JUMPDEST POP PUSH2 0x398 PUSH2 0x119F JUMP JUMPDEST CALLVALUE DUP1 ISZERO PUSH2 0x58A JUMPI PUSH1 0x0 DUP1 REVERT JUMPDEST POP PUSH2 0x380 PUSH2 0x599 CALLDATASIZE PUSH1 0x4 PUSH2 0x305F JUMP JUMPDEST PUSH2 0x1229 JUMP JUMPDEST CALLVALUE DUP1 ISZERO PUSH2 0x5AA JUMPI PUSH1 0x0 DUP1 REVERT JUMPDEST POP PUSH2 0x398 PUSH2 0x5B9 CALLDATASIZE PUSH1 0x4 PUSH2 0x3099 JUMP JUMPDEST PUSH2 0x1244 JUMP JUMPDEST CALLVALUE DUP1 ISZERO PUSH2 0x5CA JUMPI PUSH1 0x0 DUP1 REVERT JUMPDEST POP PUSH2 0x62F PUSH2 0x5D9 CALLDATASIZE PUSH1 0x4 PUSH2 0x2EFB JUMP JUMPDEST PUSH1 0x1 PUSH1 0x1 PUSH1 0xA0 SHL SUB AND PUSH1 0x0 SWAP1 DUP2 MSTORE PUSH1 0x17 PUSH1 0x20 SWAP1 DUP2 MSTORE PUSH1 0x40 DUP1 DUP4 KECCAK256 SLOAD PUSH1 0x18 DUP4 MSTORE DUP2 DUP5 KECCAK256 SWAP1 DUP5 MSTORE SWAP1 SWAP2 MSTORE SWAP1 KECCAK256 DUP1 SLOAD PUSH1 0x1 DUP3 ADD SLOAD PUSH1 0x2 DUP4 ADD SLOAD PUSH1 0x3 DUP5 ADD SLOAD PUSH1 0x4 DUP6 ADD SLOAD PUSH1 0x5 SWAP1 SWAP6 ADD SLOAD SWAP4 SWAP6 SWAP3 SWAP5 SWAP2 SWAP4 SWAP1 SWAP3 PUSH1 0xFF SWAP1 SWAP2 AND SWAP1 JUMP JUMPDEST PUSH1 0x40 DUP1 MLOAD SWAP7 DUP8 MSTORE PUSH1 0x20 DUP8 ADD SWAP6 SWAP1 SWAP6 MSTORE SWAP4 DUP6 ADD SWAP3 SWAP1 SWAP3 MSTORE PUSH1 0x60 DUP5 ADD MSTORE PUSH1 0x80 DUP4 ADD MSTORE ISZERO ISZERO PUSH1 0xA0 DUP3 ADD MSTORE PUSH1 0xC0 ADD PUSH2 0x3A2 JUMP JUMPDEST CALLVALUE DUP1 ISZERO PUSH2 0x66A JUMPI PUSH1 0x0 DUP1 REVERT JUMPDEST POP PUSH2 0x380 PUSH2 0x130F JUMP JUMPDEST CALLVALUE DUP1 ISZERO PUSH2 0x67F JUMPI PUSH1 0x0 DUP1 REVERT JUMPDEST POP PUSH2 0x380 PUSH2 0x14F8 JUMP JUMPDEST CALLVALUE DUP1 ISZERO PUSH2 0x694 JUMPI PUSH1 0x0 DUP1 REVERT JUMPDEST POP PUSH2 0x69D PUSH2 0x150A JUMP JUMPDEST PUSH1 0x40 DUP1 MLOAD SWAP6 DUP7 MSTORE PUSH1 0x20 DUP7 ADD SWAP5 SWAP1 SWAP5 MSTORE SWAP3 DUP5 ADD SWAP2 SWAP1 SWAP2 MSTORE PUSH1 0x60 DUP4 ADD MSTORE PUSH1 0x80 DUP3 ADD MSTORE PUSH1 0xA0 ADD PUSH2 0x3A2 JUMP JUMPDEST CALLVALUE DUP1 ISZERO PUSH2 0x6D1 JUMPI PUSH1 0x0 DUP1 REVERT JUMPDEST POP PUSH2 0x398 PUSH2 0x6E0 CALLDATASIZE PUSH1 0x4 PUSH2 0x30CB JUMP JUMPDEST PUSH2 0x153C JUMP JUMPDEST CALLVALUE DUP1 ISZERO PUSH2 0x6F1 JUMPI PUSH1 0x0 DUP1 REVERT JUMPDEST POP PUSH2 0x398 PUSH1 0x7 SLOAD DUP2 JUMP JUMPDEST PUSH2 0x69D PUSH2 0x162C JUMP JUMPDEST CALLVALUE DUP1 ISZERO PUSH2 0x70F JUMPI PUSH1 0x0 DUP1 REVERT JUMPDEST POP PUSH2 0x380 PUSH2 0x71E CALLDATASIZE PUSH1 0x4 PUSH2 0x2EFB JUMP JUMPDEST PUSH2 0x1676 JUMP JUMPDEST CALLVALUE DUP1 ISZERO PUSH2 0x72F JUMPI PUSH1 0x0 DUP1 REVERT JUMPDEST POP PUSH2 0x398 PUSH1 0x8 SLOAD DUP2 JUMP JUMPDEST CALLVALUE DUP1 ISZERO PUSH2 0x745 JUMPI PUSH1 0x0 DUP1 REVERT JUMPDEST POP PUSH2 0x398 PUSH1 0x9 SLOAD DUP2 JUMP JUMPDEST CALLVALUE DUP1 ISZERO PUSH2 0x75B JUMPI PUSH1 0x0 DUP1 REVERT JUMPDEST POP PUSH2 0x76F PUSH2 0x76A CALLDATASIZE PUSH1 0x4 PUSH2 0x2F9A JUMP JUMPDEST PUSH2 0x16A0 JUMP JUMPDEST PUSH1 0x40 DUP1 MLOAD SWAP3 ISZERO ISZERO DUP4 MSTORE PUSH1 0x20 DUP4 ADD SWAP2 SWAP1 SWAP2 MSTORE ADD PUSH2 0x3A2 JUMP JUMPDEST CALLVALUE DUP1 ISZERO PUSH2 0x792 JUMPI PUSH1 0x0 DUP1 REVERT JUMPDEST POP PUSH1 0x0 SLOAD PUSH1 0x1 PUSH1 0x1 PUSH1 0xA0 SHL SUB AND PUSH2 0x468 JUMP JUMPDEST CALLVALUE DUP1 ISZERO PUSH2 0x7B0 JUMPI PUSH1 0x0 DUP1 REVERT JUMPDEST POP PUSH2 0x380 PUSH2 0x7BF CALLDATASIZE PUSH1 0x4 PUSH2 0x3130 JUMP JUMPDEST PUSH2 0x1820 JUMP JUMPDEST CALLVALUE DUP1 ISZERO PUSH2 0x7D0 JUMPI PUSH1 0x0 DUP1 REVERT JUMPDEST POP PUSH1 0xC SLOAD PUSH1 0xD SLOAD PUSH1 0xE SLOAD PUSH1 0xF SLOAD PUSH1 0x10 SLOAD PUSH1 0x11 SLOAD PUSH1 0x12 SLOAD PUSH1 0x40 DUP1 MLOAD SWAP8 DUP9 MSTORE PUSH1 0x20 DUP9 ADD SWAP7 SWAP1 SWAP7 MSTORE SWAP5 DUP7 ADD SWAP4 SWAP1 SWAP4 MSTORE PUSH1 0x60 DUP6 ADD SWAP2 SWAP1 SWAP2 MSTORE PUSH1 0x80 DUP5 ADD MSTORE PUSH1 0xA0 DUP4 ADD MSTORE PUSH1 0xC0 DUP3 ADD MSTORE PUSH1 0xE0 ADD PUSH2 0x3A2 JUMP JUMPDEST CALLVALUE DUP1 ISZERO PUSH2 0x827 JUMPI PUSH1 0x0 DUP1 REVERT JUMPDEST POP PUSH2 0x380 PUSH2 0x836 CALLDATASIZE PUSH1 0x4 PUSH2 0x3099 JUMP JUMPDEST PUSH2 0x1848 JUMP JUMPDEST CALLVALUE DUP1 ISZERO PUSH2 0x847 JUMPI PUSH1 0x0 DUP1 REVERT JUMPDEST POP PUSH1 0x14 SLOAD PUSH2 0x855 SWAP1 PUSH1 0xFF AND DUP2 JUMP JUMPDEST PUSH1 0x40 MLOAD SWAP1 ISZERO ISZERO DUP2 MSTORE PUSH1 0x20 ADD PUSH2 0x3A2 JUMP JUMPDEST PUSH2 0x552 PUSH2 0x18FA JUMP JUMPDEST CALLVALUE DUP1 ISZERO PUSH2 0x879 JUMPI PUSH1 0x0 DUP1 REVERT JUMPDEST POP PUSH2 0x380 PUSH2 0x888 CALLDATASIZE PUSH1 0x4 PUSH2 0x2EFB JUMP JUMPDEST PUSH2 0x1938 JUMP JUMPDEST CALLVALUE DUP1 ISZERO PUSH2 0x899 JUMPI PUSH1 0x0 DUP1 REVERT JUMPDEST POP PUSH1 0x1 SLOAD PUSH2 0x468 SWAP1 PUSH1 0x1 PUSH1 0x1 PUSH1 0xA0 SHL SUB AND DUP2 JUMP JUMPDEST CALLVALUE DUP1 ISZERO PUSH2 0x8B9 JUMPI PUSH1 0x0 DUP1 REVERT JUMPDEST POP PUSH2 0x855 PUSH2 0x8C8 CALLDATASIZE PUSH1 0x4 PUSH2 0x2EFB JUMP JUMPDEST PUSH1 0x13 PUSH1 0x20 MSTORE PUSH1 0x0 SWAP1 DUP2 MSTORE PUSH1 0x40 SWAP1 KECCAK256 SLOAD PUSH1 0xFF AND DUP2 JUMP JUMPDEST PUSH2 0x8F0 PUSH2 0x8EB CALLDATASIZE PUSH1 0x4 PUSH2 0x3104 JUMP JUMPDEST PUSH2 0x1962 JUMP JUMPDEST PUSH1 0x40 DUP1 MLOAD SWAP5 DUP6 MSTORE PUSH1 0x20 DUP6 ADD SWAP4 SWAP1 SWAP4 MSTORE SWAP2 DUP4 ADD MSTORE ISZERO ISZERO PUSH1 0x60 DUP3 ADD MSTORE PUSH1 0x80 ADD PUSH2 0x3A2 JUMP JUMPDEST CALLVALUE DUP1 ISZERO PUSH2 0x91E JUMPI PUSH1 0x0 DUP1 REVERT JUMPDEST POP PUSH2 0x380 PUSH2 0x1B25 JUMP JUMPDEST PUSH2 0x69D PUSH2 0x935 CALLDATASIZE PUSH1 0x4 PUSH2 0x3099 JUMP JUMPDEST PUSH2 0x1C37 JUMP JUMPDEST CALLVALUE DUP1 ISZERO PUSH2 0x946 JUMPI PUSH1 0x0 DUP1 REVERT JUMPDEST POP PUSH2 0x380 PUSH2 0x955 CALLDATASIZE PUSH1 0x4 PUSH2 0x3099 JUMP JUMPDEST PUSH2 0x1D65 JUMP JUMPDEST PUSH2 0x380 PUSH2 0x968 CALLDATASIZE PUSH1 0x4 PUSH2 0x3099 JUMP JUMPDEST PUSH2 0x1DD0 JUMP JUMPDEST PUSH2 0x552 PUSH2 0x97B CALLDATASIZE PUSH1 0x4 PUSH2 0x3099 JUMP JUMPDEST PUSH2 0x20DE JUMP JUMPDEST CALLVALUE DUP1 ISZERO PUSH2 0x98C JUMPI PUSH1 0x0 DUP1 REVERT JUMPDEST POP PUSH2 0x398 PUSH1 0x3 SLOAD DUP2 JUMP JUMPDEST CALLVALUE DUP1 ISZERO PUSH2 0x9A2 JUMPI PUSH1 0x0 DUP1 REVERT JUMPDEST POP PUSH2 0x398 PUSH2 0x2111 JUMP JUMPDEST CALLVALUE DUP1 ISZERO PUSH2 0x9B7 JUMPI PUSH1 0x0 DUP1 REVERT JUMPDEST POP PUSH2 0x398 PUSH1 0x6 SLOAD DUP2 JUMP JUMPDEST CALLVALUE DUP1 ISZERO PUSH2 0x9CD JUMPI PUSH1 0x0 DUP1 REVERT JUMPDEST POP PUSH2 0x398 PUSH2 0x2135 JUMP JUMPDEST CALLVALUE DUP1 ISZERO PUSH2 0x9E2 JUMPI PUSH1 0x0 DUP1 REVERT JUMPDEST POP PUSH2 0x380 PUSH2 0x9F1 CALLDATASIZE PUSH1 0x4 PUSH2 0x2EFB JUMP JUMPDEST PUSH2 0x223C JUMP JUMPDEST CALLVALUE DUP1 ISZERO PUSH2 0xA02 JUMPI PUSH1 0x0 DUP1 REVERT JUMPDEST POP PUSH2 0x380 PUSH2 0xA11 CALLDATASIZE PUSH1 0x4 PUSH2 0x3099 JUMP JUMPDEST PUSH2 0x22B5 JUMP JUMPDEST CALLVALUE DUP1 ISZERO PUSH2 0xA22 JUMPI PUSH1 0x0 DUP1 REVERT JUMPDEST POP PUSH2 0x380 PUSH2 0xA31 CALLDATASIZE PUSH1 0x4 PUSH2 0x2F35 JUMP JUMPDEST PUSH2 0x22C2 JUMP JUMPDEST PUSH2 0x552 PUSH2 0x22F5 JUMP JUMPDEST CALLVALUE DUP1 ISZERO PUSH2 0xA4A JUMPI PUSH1 0x0 DUP1 REVERT JUMPDEST POP PUSH2 0x380 PUSH2 0x232A JUMP JUMPDEST CALLVALUE DUP1 ISZERO PUSH2 0xA5F JUMPI PUSH1 0x0 DUP1 REVERT JUMPDEST POP PUSH2 0xA73 PUSH2 0xA6E CALLDATASIZE PUSH1 0x4 PUSH2 0x305F JUMP JUMPDEST PUSH2 0x24D3 JUMP JUMPDEST PUSH1 0x40 DUP1 MLOAD SWAP9 ISZERO ISZERO DUP10 MSTORE PUSH1 0x20 DUP10 ADD SWAP8 SWAP1 SWAP8 MSTORE SWAP6 DUP8 ADD SWAP5 SWAP1 SWAP5 MSTORE PUSH1 0x60 DUP7 ADD SWAP3 SWAP1 SWAP3 MSTORE PUSH1 0x80 DUP6 ADD MSTORE ISZERO ISZERO PUSH1 0xA0 DUP5 ADD MSTORE ISZERO ISZERO PUSH1 0xC0 DUP4 ADD MSTORE PUSH1 0xE0 DUP3 ADD MSTORE PUSH2 0x100 ADD PUSH2 0x3A2 JUMP JUMPDEST CALLVALUE DUP1 ISZERO PUSH2 0xAC0 JUMPI PUSH1 0x0 DUP1 REVERT JUMPDEST POP PUSH2 0x398 PUSH2 0xACF CALLDATASIZE PUSH1 0x4 PUSH2 0x30CB JUMP JUMPDEST PUSH2 0x26BB JUMP JUMPDEST PUSH2 0xADC PUSH2 0x2726 JUMP JUMPDEST PUSH1 0x64 DUP2 GT ISZERO PUSH2 0xB32 JUMPI PUSH1 0x40 MLOAD PUSH3 0x461BCD PUSH1 0xE5 SHL DUP2 MSTORE PUSH1 0x20 PUSH1 0x4 DUP3 ADD MSTORE PUSH1 0x1B PUSH1 0x24 DUP3 ADD MSTORE PUSH32 0x6D757374206265206265747765656E203020616E642031303020250000000000 PUSH1 0x44 DUP3 ADD MSTORE PUSH1 0x64 ADD JUMPDEST PUSH1 0x40 MLOAD DUP1 SWAP2 SUB SWAP1 REVERT JUMPDEST PUSH1 0x8 SSTORE JUMP JUMPDEST PUSH2 0xB3F PUSH2 0x2726 JUMP JUMPDEST PUSH1 0x40 MLOAD CALLER SWAP1 SELFBALANCE DUP1 ISZERO PUSH2 0x8FC MUL SWAP2 PUSH1 0x0 DUP2 DUP2 DUP2 DUP6 DUP9 DUP9 CALL SWAP4 POP POP POP POP PUSH2 0xB63 JUMPI PUSH1 0x0 DUP1 REVERT JUMPDEST JUMP JUMPDEST PUSH2 0xB6D PUSH2 0x2726 JUMP JUMPDEST PUSH1 0xA SSTORE JUMP JUMPDEST PUSH1 0x14 SLOAD PUSH1 0x0 SWAP1 DUP2 SWAP1 PUSH1 0xFF AND ISZERO PUSH2 0xB9A JUMPI PUSH1 0x40 MLOAD PUSH3 0x461BCD PUSH1 0xE5 SHL DUP2 MSTORE PUSH1 0x4 ADD PUSH2 0xB29 SWAP1 PUSH2 0x3332 JUMP JUMPDEST CALLER PUSH1 0x0 SWAP1 DUP2 MSTORE PUSH1 0x17 PUSH1 0x20 SWAP1 DUP2 MSTORE PUSH1 0x40 DUP1 DUP4 KECCAK256 SLOAD PUSH1 0x18 DUP4 MSTORE DUP2 DUP5 KECCAK256 DUP2 DUP6 MSTORE SWAP1 SWAP3 MSTORE SWAP1 SWAP2 KECCAK256 PUSH1 0x5 DUP2 ADD SLOAD PUSH1 0xFF AND ISZERO PUSH2 0xC0A JUMPI PUSH1 0x40 MLOAD PUSH3 0x461BCD PUSH1 0xE5 SHL DUP2 MSTORE PUSH1 0x20 PUSH1 0x4 DUP3 ADD MSTORE PUSH1 0x15 PUSH1 0x24 DUP3 ADD MSTORE PUSH21 0x4D7573742066696E697368206C6173742047616D65 PUSH1 0x58 SHL PUSH1 0x44 DUP3 ADD MSTORE PUSH1 0x64 ADD PUSH2 0xB29 JUMP JUMPDEST PUSH2 0xC17 DUP2 PUSH1 0x2 ADD SLOAD PUSH2 0x2780 JUMP JUMPDEST PUSH1 0x2 DUP2 ADD DUP6 SWAP1 SSTORE PUSH1 0x11 SLOAD PUSH1 0x3 DUP3 ADD SSTORE PUSH1 0x5 DUP2 ADD DUP1 SLOAD PUSH1 0xFF NOT AND PUSH1 0x1 SWAP1 DUP2 OR SWAP1 SWAP2 SSTORE SLOAD PUSH1 0x40 MLOAD PUSH4 0x23B872DD PUSH1 0xE0 SHL DUP2 MSTORE CALLER PUSH1 0x4 DUP3 ADD MSTORE ADDRESS PUSH1 0x24 DUP3 ADD MSTORE PUSH1 0x44 DUP2 ADD DUP8 SWAP1 MSTORE PUSH1 0x1 PUSH1 0x1 PUSH1 0xA0 SHL SUB SWAP1 SWAP2 AND SWAP1 PUSH4 0x23B872DD SWAP1 PUSH1 0x64 ADD PUSH1 0x20 PUSH1 0x40 MLOAD DUP1 DUP4 SUB DUP2 PUSH1 0x0 DUP8 DUP1 EXTCODESIZE ISZERO DUP1 ISZERO PUSH2 0xC88 JUMPI PUSH1 0x0 DUP1 REVERT JUMPDEST POP GAS CALL ISZERO DUP1 ISZERO PUSH2 0xC9C JUMPI RETURNDATASIZE PUSH1 0x0 DUP1 RETURNDATACOPY RETURNDATASIZE PUSH1 0x0 REVERT JUMPDEST POP POP POP POP PUSH1 0x40 MLOAD RETURNDATASIZE PUSH1 0x1F NOT PUSH1 0x1F DUP3 ADD AND DUP3 ADD DUP1 PUSH1 0x40 MSTORE POP DUP2 ADD SWAP1 PUSH2 0xCC0 SWAP2 SWAP1 PUSH2 0x307C JUMP JUMPDEST POP PUSH2 0xCC9 PUSH2 0x2A74 JUMP JUMPDEST DUP1 DUP4 SSTORE PUSH1 0x1 DUP4 ADD DUP3 SWAP1 SSTORE PUSH1 0x40 DUP1 MLOAD CALLER DUP2 MSTORE PUSH1 0x20 DUP2 ADD SWAP3 SWAP1 SWAP3 MSTORE DUP2 ADD SWAP2 SWAP1 SWAP2 MSTORE PUSH1 0x60 DUP2 ADD DUP7 SWAP1 MSTORE PUSH32 0xE3FA5BDE10D75BBF2FD822CBD4924EA5EEC3BCE141D9161A8130AEB9F1E5358F SWAP1 PUSH1 0x80 ADD PUSH1 0x40 MLOAD DUP1 SWAP2 SUB SWAP1 LOG1 DUP1 SLOAD PUSH1 0x1 SWAP1 SWAP2 ADD SLOAD SWAP1 SWAP4 POP SWAP2 POP POP SWAP2 POP SWAP2 JUMP JUMPDEST PUSH2 0xD37 PUSH2 0x2726 JUMP JUMPDEST PUSH1 0x5 SSTORE JUMP JUMPDEST PUSH2 0xD44 PUSH2 0x2726 JUMP JUMPDEST PUSH1 0x40 MLOAD PUSH4 0xA9059CBB PUSH1 0xE0 SHL DUP2 MSTORE CALLER PUSH1 0x4 DUP3 ADD MSTORE PUSH1 0x24 DUP2 ADD DUP3 SWAP1 MSTORE PUSH1 0x1 PUSH1 0x1 PUSH1 0xA0 SHL SUB DUP4 AND SWAP1 PUSH4 0xA9059CBB SWAP1 PUSH1 0x44 ADD JUMPDEST PUSH1 0x20 PUSH1 0x40 MLOAD DUP1 DUP4 SUB DUP2 PUSH1 0x0 DUP8 DUP1 EXTCODESIZE ISZERO DUP1 ISZERO PUSH2 0xD8D JUMPI PUSH1 0x0 DUP1 REVERT JUMPDEST POP GAS CALL ISZERO DUP1 ISZERO PUSH2 0xDA1 JUMPI RETURNDATASIZE PUSH1 0x0 DUP1 RETURNDATACOPY RETURNDATASIZE PUSH1 0x0 REVERT JUMPDEST POP POP POP POP PUSH1 0x40 MLOAD RETURNDATASIZE PUSH1 0x1F NOT PUSH1 0x1F DUP3 ADD AND DUP3 ADD DUP1 PUSH1 0x40 MSTORE POP DUP2 ADD SWAP1 PUSH2 0xDC5 SWAP2 SWAP1 PUSH2 0x307C JUMP JUMPDEST POP POP PUSH1 0x0 PUSH1 0x6 SSTORE POP JUMP JUMPDEST PUSH2 0xDD7 PUSH2 0x2726 JUMP JUMPDEST PUSH1 0xB DUP1 SLOAD PUSH1 0x1 PUSH1 0x1 PUSH1 0xA0 SHL SUB NOT AND PUSH1 0x1 PUSH1 0x1 PUSH1 0xA0 SHL SUB SWAP3 SWAP1 SWAP3 AND SWAP2 SWAP1 SWAP2 OR SWAP1 SSTORE JUMP JUMPDEST PUSH2 0xE01 PUSH2 0x2726 JUMP JUMPDEST PUSH1 0x3 SSTORE JUMP JUMPDEST PUSH1 0x1 PUSH1 0x1 PUSH1 0xA0 SHL SUB DUP2 AND PUSH1 0x0 SWAP1 DUP2 MSTORE PUSH1 0x19 PUSH1 0x20 SWAP1 DUP2 MSTORE PUSH1 0x40 DUP1 DUP4 KECCAK256 SLOAD PUSH1 0x1A DUP4 MSTORE DUP2 DUP5 KECCAK256 DUP2 DUP6 MSTORE SWAP1 SWAP3 MSTORE DUP3 KECCAK256 DUP1 SLOAD PUSH1 0x60 SWAP4 DUP5 SWAP4 DUP5 SWAP4 DUP5 SWAP4 DUP4 SWAP3 DUP4 SWAP3 DUP4 SWAP3 PUSH8 0xFFFFFFFFFFFFFFFF DUP2 GT ISZERO PUSH2 0xE5A JUMPI PUSH2 0xE5A PUSH2 0x3471 JUMP JUMPDEST PUSH1 0x40 MLOAD SWAP1 DUP1 DUP3 MSTORE DUP1 PUSH1 0x20 MUL PUSH1 0x20 ADD DUP3 ADD PUSH1 0x40 MSTORE DUP1 ISZERO PUSH2 0xE83 JUMPI DUP2 PUSH1 0x20 ADD PUSH1 0x20 DUP3 MUL DUP1 CALLDATASIZE DUP4 CALLDATACOPY ADD SWAP1 POP JUMPDEST POP DUP2 SLOAD PUSH1 0x40 DUP1 MLOAD PUSH1 0x20 DUP1 DUP5 MUL DUP3 ADD DUP2 ADD SWAP1 SWAP3 MSTORE DUP3 DUP2 MSTORE SWAP3 SWAP13 POP DUP4 SWAP2 SWAP1 DUP4 ADD DUP3 DUP3 DUP1 ISZERO PUSH2 0xECE JUMPI PUSH1 0x20 MUL DUP3 ADD SWAP2 SWAP1 PUSH1 0x0 MSTORE PUSH1 0x20 PUSH1 0x0 KECCAK256 SWAP1 JUMPDEST DUP2 SLOAD DUP2 MSTORE PUSH1 0x20 ADD SWAP1 PUSH1 0x1 ADD SWAP1 DUP1 DUP4 GT PUSH2 0xEBA JUMPI JUMPDEST POP POP DUP5 SLOAD SWAP4 SWAP14 POP POP POP PUSH8 0xFFFFFFFFFFFFFFFF DUP3 GT ISZERO SWAP1 POP PUSH2 0xEF1 JUMPI PUSH2 0xEF1 PUSH2 0x3471 JUMP JUMPDEST PUSH1 0x40 MLOAD SWAP1 DUP1 DUP3 MSTORE DUP1 PUSH1 0x20 MUL PUSH1 0x20 ADD DUP3 ADD PUSH1 0x40 MSTORE DUP1 ISZERO PUSH2 0xF1A JUMPI DUP2 PUSH1 0x20 ADD PUSH1 0x20 DUP3 MUL DUP1 CALLDATASIZE DUP4 CALLDATACOPY ADD SWAP1 POP JUMPDEST POP PUSH1 0x1 DUP3 ADD DUP1 SLOAD PUSH1 0x40 DUP1 MLOAD PUSH1 0x20 DUP1 DUP5 MUL DUP3 ADD DUP2 ADD SWAP1 SWAP3 MSTORE DUP3 DUP2 MSTORE SWAP4 SWAP13 POP DUP4 ADD DUP3 DUP3 DUP1 ISZERO PUSH2 0xF66 JUMPI PUSH1 0x20 MUL DUP3 ADD SWAP2 SWAP1 PUSH1 0x0 MSTORE PUSH1 0x20 PUSH1 0x0 KECCAK256 SWAP1 JUMPDEST DUP2 SLOAD DUP2 MSTORE PUSH1 0x20 ADD SWAP1 PUSH1 0x1 ADD SWAP1 DUP1 DUP4 GT PUSH2 0xF52 JUMPI JUMPDEST POP POP POP PUSH1 0x2 DUP5 ADD SLOAD SWAP3 SWAP12 POP POP POP PUSH8 0xFFFFFFFFFFFFFFFF DUP2 GT ISZERO PUSH2 0xF8B JUMPI PUSH2 0xF8B PUSH2 0x3471 JUMP JUMPDEST PUSH1 0x40 MLOAD SWAP1 DUP1 DUP3 MSTORE DUP1 PUSH1 0x20 MUL PUSH1 0x20 ADD DUP3 ADD PUSH1 0x40 MSTORE DUP1 ISZERO PUSH2 0xFB4 JUMPI DUP2 PUSH1 0x20 ADD PUSH1 0x20 DUP3 MUL DUP1 CALLDATASIZE DUP4 CALLDATACOPY ADD SWAP1 POP JUMPDEST POP PUSH1 0x2 DUP3 ADD DUP1 SLOAD PUSH1 0x40 DUP1 MLOAD PUSH1 0x20 DUP1 DUP5 MUL DUP3 ADD DUP2 ADD SWAP1 SWAP3 MSTORE DUP3 DUP2 MSTORE SWAP4 SWAP12 POP DUP4 ADD DUP3 DUP3 DUP1 ISZERO PUSH2 0x1000 JUMPI PUSH1 0x20 MUL DUP3 ADD SWAP2 SWAP1 PUSH1 0x0 MSTORE PUSH1 0x20 PUSH1 0x0 KECCAK256 SWAP1 JUMPDEST DUP2 SLOAD DUP2 MSTORE PUSH1 0x20 ADD SWAP1 PUSH1 0x1 ADD SWAP1 DUP1 DUP4 GT PUSH2 0xFEC JUMPI JUMPDEST POP POP DUP5 SLOAD SWAP4 SWAP12 POP POP POP PUSH8 0xFFFFFFFFFFFFFFFF DUP3 GT ISZERO SWAP1 POP PUSH2 0x1023 JUMPI PUSH2 0x1023 PUSH2 0x3471 JUMP JUMPDEST PUSH1 0x40 MLOAD SWAP1 DUP1 DUP3 MSTORE DUP1 PUSH1 0x20 MUL PUSH1 0x20 ADD DUP3 ADD PUSH1 0x40 MSTORE DUP1 ISZERO PUSH2 0x104C JUMPI DUP2 PUSH1 0x20 ADD PUSH1 0x20 DUP3 MUL DUP1 CALLDATASIZE DUP4 CALLDATACOPY ADD SWAP1 POP JUMPDEST POP PUSH1 0x3 DUP3 ADD DUP1 SLOAD PUSH1 0x40 DUP1 MLOAD PUSH1 0x20 DUP1 DUP5 MUL DUP3 ADD DUP2 ADD SWAP1 SWAP3 MSTORE DUP3 DUP2 MSTORE SWAP4 SWAP11 POP DUP4 ADD DUP3 DUP3 DUP1 ISZERO PUSH2 0x1098 JUMPI PUSH1 0x20 MUL DUP3 ADD SWAP2 SWAP1 PUSH1 0x0 MSTORE PUSH1 0x20 PUSH1 0x0 KECCAK256 SWAP1 JUMPDEST DUP2 SLOAD DUP2 MSTORE PUSH1 0x20 ADD SWAP1 PUSH1 0x1 ADD SWAP1 DUP1 DUP4 GT PUSH2 0x1084 JUMPI JUMPDEST POP POP POP POP POP SWAP7 POP DUP1 PUSH1 0x4 ADD SLOAD SWAP6 POP DUP1 PUSH1 0x5 ADD SLOAD SWAP5 POP DUP1 PUSH1 0x6 ADD SLOAD SWAP4 POP DUP1 PUSH1 0x7 ADD PUSH1 0x0 SWAP1 SLOAD SWAP1 PUSH2 0x100 EXP SWAP1 DIV PUSH1 0xFF AND SWAP3 POP POP POP SWAP2 SWAP4 SWAP6 SWAP8 POP SWAP2 SWAP4 SWAP6 SWAP8 JUMP JUMPDEST PUSH1 0x0 PUSH1 0x4 PUSH1 0x0 SWAP1 SLOAD SWAP1 PUSH2 0x100 EXP SWAP1 DIV PUSH1 0x1 PUSH1 0x1 PUSH1 0xA0 SHL SUB AND PUSH1 0x1 PUSH1 0x1 PUSH1 0xA0 SHL SUB AND PUSH4 0x61D027B3 PUSH1 0x40 MLOAD DUP2 PUSH4 0xFFFFFFFF AND PUSH1 0xE0 SHL DUP2 MSTORE PUSH1 0x4 ADD PUSH1 0x20 PUSH1 0x40 MLOAD DUP1 DUP4 SUB DUP2 DUP7 DUP1 EXTCODESIZE ISZERO DUP1 ISZERO PUSH2 0x1125 JUMPI PUSH1 0x0 DUP1 REVERT JUMPDEST POP GAS STATICCALL ISZERO DUP1 ISZERO PUSH2 0x1139 JUMPI RETURNDATASIZE PUSH1 0x0 DUP1 RETURNDATACOPY RETURNDATASIZE PUSH1 0x0 REVERT JUMPDEST POP POP POP POP PUSH1 0x40 MLOAD RETURNDATASIZE PUSH1 0x1F NOT PUSH1 0x1F DUP3 ADD AND DUP3 ADD DUP1 PUSH1 0x40 MSTORE POP DUP2 ADD SWAP1 PUSH2 0x115D SWAP2 SWAP1 PUSH2 0x2F18 JUMP JUMPDEST SWAP1 POP SWAP1 JUMP JUMPDEST PUSH1 0x14 SLOAD PUSH1 0x0 SWAP1 DUP2 SWAP1 PUSH1 0xFF AND ISZERO PUSH2 0x118A JUMPI PUSH1 0x40 MLOAD PUSH3 0x461BCD PUSH1 0xE5 SHL DUP2 MSTORE PUSH1 0x4 ADD PUSH2 0xB29 SWAP1 PUSH2 0x3332 JUMP JUMPDEST PUSH2 0x1195 DUP4 PUSH1 0x1 PUSH2 0x2B03 JUMP JUMPDEST SWAP1 SWAP5 SWAP1 SWAP4 POP SWAP2 POP POP JUMP JUMPDEST PUSH1 0x6 SLOAD PUSH1 0x1 SLOAD PUSH1 0x40 MLOAD PUSH4 0x70A08231 PUSH1 0xE0 SHL DUP2 MSTORE ADDRESS PUSH1 0x4 DUP3 ADD MSTORE PUSH1 0x0 SWAP3 SWAP2 PUSH1 0x1 PUSH1 0x1 PUSH1 0xA0 SHL SUB AND SWAP1 PUSH4 0x70A08231 SWAP1 PUSH1 0x24 ADD PUSH1 0x20 PUSH1 0x40 MLOAD DUP1 DUP4 SUB DUP2 DUP7 DUP1 EXTCODESIZE ISZERO DUP1 ISZERO PUSH2 0x11E7 JUMPI PUSH1 0x0 DUP1 REVERT JUMPDEST POP GAS STATICCALL ISZERO DUP1 ISZERO PUSH2 0x11FB JUMPI RETURNDATASIZE PUSH1 0x0 DUP1 RETURNDATACOPY RETURNDATASIZE PUSH1 0x0 REVERT JUMPDEST POP POP POP POP PUSH1 0x40 MLOAD RETURNDATASIZE PUSH1 0x1F NOT PUSH1 0x1F DUP3 ADD AND DUP3 ADD DUP1 PUSH1 0x40 MSTORE POP DUP2 ADD SWAP1 PUSH2 0x121F SWAP2 SWAP1 PUSH2 0x30B2 JUMP JUMPDEST PUSH2 0x115D SWAP2 SWAP1 PUSH2 0x33E9 JUMP JUMPDEST PUSH2 0x1231 PUSH2 0x2726 JUMP JUMPDEST PUSH1 0x14 DUP1 SLOAD PUSH1 0xFF NOT AND SWAP2 ISZERO ISZERO SWAP2 SWAP1 SWAP2 OR SWAP1 SSTORE JUMP JUMPDEST PUSH1 0x0 DUP1 PUSH1 0xB PUSH1 0x0 SWAP1 SLOAD SWAP1 PUSH2 0x100 EXP SWAP1 DIV PUSH1 0x1 PUSH1 0x1 PUSH1 0xA0 SHL SUB AND PUSH1 0x1 PUSH1 0x1 PUSH1 0xA0 SHL SUB AND PUSH4 0xDBDFF2C1 PUSH1 0x40 MLOAD DUP2 PUSH4 0xFFFFFFFF AND PUSH1 0xE0 SHL DUP2 MSTORE PUSH1 0x4 ADD PUSH1 0x20 PUSH1 0x40 MLOAD DUP1 DUP4 SUB DUP2 PUSH1 0x0 DUP8 DUP1 EXTCODESIZE ISZERO DUP1 ISZERO PUSH2 0x1297 JUMPI PUSH1 0x0 DUP1 REVERT JUMPDEST POP GAS CALL ISZERO DUP1 ISZERO PUSH2 0x12AB JUMPI RETURNDATASIZE PUSH1 0x0 DUP1 RETURNDATACOPY RETURNDATASIZE PUSH1 0x0 REVERT JUMPDEST POP POP POP POP PUSH1 0x40 MLOAD RETURNDATASIZE PUSH1 0x1F NOT PUSH1 0x1F DUP3 ADD AND DUP3 ADD DUP1 PUSH1 0x40 MSTORE POP DUP2 ADD SWAP1 PUSH2 0x12CF SWAP2 SWAP1 PUSH2 0x30B2 JUMP JUMPDEST SWAP1 POP DUP3 DUP2 PUSH1 0x40 MLOAD PUSH1 0x20 ADD PUSH2 0x12E5 SWAP2 DUP2 MSTORE PUSH1 0x20 ADD SWAP1 JUMP JUMPDEST PUSH1 0x40 MLOAD PUSH1 0x20 DUP2 DUP4 SUB SUB DUP2 MSTORE SWAP1 PUSH1 0x40 MSTORE DUP1 MLOAD SWAP1 PUSH1 0x20 ADD KECCAK256 PUSH1 0x0 SHR PUSH2 0x1308 SWAP2 SWAP1 PUSH2 0x341B JUMP JUMPDEST SWAP4 SWAP3 POP POP POP JUMP JUMPDEST PUSH1 0x14 SLOAD PUSH1 0xFF AND ISZERO PUSH2 0x1332 JUMPI PUSH1 0x40 MLOAD PUSH3 0x461BCD PUSH1 0xE5 SHL DUP2 MSTORE PUSH1 0x4 ADD PUSH2 0xB29 SWAP1 PUSH2 0x3332 JUMP JUMPDEST CALLER PUSH1 0x0 SWAP1 DUP2 MSTORE PUSH1 0x19 PUSH1 0x20 SWAP1 DUP2 MSTORE PUSH1 0x40 DUP1 DUP4 KECCAK256 SLOAD PUSH1 0x1A DUP4 MSTORE DUP2 DUP5 KECCAK256 DUP2 DUP6 MSTORE SWAP1 SWAP3 MSTORE SWAP1 SWAP2 KECCAK256 PUSH1 0x7 DUP2 ADD SLOAD PUSH1 0xFF AND PUSH2 0x1379 JUMPI PUSH1 0x40 MLOAD PUSH3 0x461BCD PUSH1 0xE5 SHL DUP2 MSTORE PUSH1 0x4 ADD PUSH2 0xB29 SWAP1 PUSH2 0x32FB JUMP JUMPDEST PUSH1 0x4 DUP2 ADD SLOAD PUSH1 0x0 SWAP1 DUP2 SWAP1 DUP2 DUP1 JUMPDEST PUSH2 0x138E PUSH2 0x2BF3 JUMP JUMPDEST PUSH1 0x2 DUP9 ADD DUP1 SLOAD PUSH1 0x1 DUP2 DUP2 ADD DUP4 SSTORE PUSH1 0x0 SWAP3 DUP4 MSTORE PUSH1 0x20 DUP1 DUP5 KECCAK256 SWAP1 SWAP3 ADD DUP5 SWAP1 SSTORE PUSH1 0x3 DUP12 ADD DUP1 SLOAD SWAP2 DUP3 ADD DUP2 SSTORE DUP1 DUP5 MSTORE SWAP3 DUP3 SWAP1 KECCAK256 ADD DUP5 SWAP1 SSTORE DUP2 SLOAD PUSH1 0x40 DUP1 MLOAD DUP3 DUP5 MUL DUP2 ADD DUP5 ADD SWAP1 SWAP2 MSTORE DUP2 DUP2 MSTORE SWAP4 SWAP7 POP SWAP4 SWAP5 POP PUSH2 0x1418 SWAP4 SWAP1 DUP4 ADD DUP3 DUP3 DUP1 ISZERO PUSH2 0x140E JUMPI PUSH1 0x20 MUL DUP3 ADD SWAP2 SWAP1 PUSH1 0x0 MSTORE PUSH1 0x20 PUSH1 0x0 KECCAK256 SWAP1 JUMPDEST DUP2 SLOAD DUP2 MSTORE PUSH1 0x20 ADD SWAP1 PUSH1 0x1 ADD SWAP1 DUP1 DUP4 GT PUSH2 0x13FA JUMPI JUMPDEST POP POP POP POP POP PUSH2 0x16A0 JUMP JUMPDEST SWAP6 POP POP PUSH1 0x11 DUP6 LT DUP1 ISZERO PUSH2 0x142E JUMPI POP DUP6 PUSH1 0x5 ADD SLOAD DUP6 LT JUMPDEST PUSH2 0x1386 JUMPI PUSH1 0x15 DUP6 GT DUP1 PUSH2 0x1444 JUMPI POP DUP5 DUP7 PUSH1 0x5 ADD SLOAD GT JUMPDEST ISZERO PUSH2 0x1460 JUMPI PUSH1 0x1 SWAP4 POP PUSH2 0x145D DUP7 PUSH1 0x4 ADD SLOAD PUSH1 0x12 SLOAD PUSH2 0x2C6A JUMP JUMPDEST SWAP3 POP JUMPDEST PUSH1 0x5 DUP7 ADD SLOAD PUSH1 0x40 MLOAD PUSH32 0x4BCBDFA7453595C0B74372E71E39F68EC571585D404FC01D65BF50C191F6A8C SWAP2 PUSH2 0x14AF SWAP2 CALLER SWAP2 DUP11 SWAP2 PUSH1 0x1 DUP4 ADD SWAP2 PUSH1 0x2 DUP5 ADD SWAP2 PUSH1 0x3 DUP6 ADD SWAP2 DUP12 SWAP2 DUP15 SWAP1 PUSH1 0x0 SWAP1 DUP16 SWAP1 PUSH2 0x31EC JUMP JUMPDEST PUSH1 0x40 MLOAD DUP1 SWAP2 SUB SWAP1 LOG1 CALLER PUSH1 0x0 SWAP1 DUP2 MSTORE PUSH1 0x19 PUSH1 0x20 MSTORE PUSH1 0x40 DUP2 KECCAK256 DUP1 SLOAD PUSH1 0x1 SWAP3 SWAP1 PUSH2 0x14D7 SWAP1 DUP5 SWAP1 PUSH2 0x339E JUMP JUMPDEST SWAP1 SWAP2 SSTORE POP DUP5 SWAP1 POP PUSH2 0x14EF JUMPI PUSH2 0x14EF DUP7 PUSH1 0x4 ADD SLOAD PUSH2 0x1877 JUMP JUMPDEST POP POP POP POP POP POP POP JUMP JUMPDEST PUSH2 0x1500 PUSH2 0x2726 JUMP JUMPDEST PUSH2 0xB63 PUSH1 0x0 PUSH2 0x2D34 JUMP JUMPDEST PUSH1 0x0 DUP1 PUSH1 0x0 DUP1 PUSH1 0x0 PUSH2 0x151A PUSH2 0x2111 JUMP JUMPDEST PUSH1 0x7 SLOAD PUSH1 0x9 SLOAD PUSH2 0x1528 PUSH2 0x119F JUMP JUMPDEST PUSH1 0x3 SLOAD SWAP5 POP SWAP5 POP SWAP5 POP SWAP5 POP SWAP5 POP SWAP1 SWAP2 SWAP3 SWAP4 SWAP5 JUMP JUMPDEST CALLER PUSH1 0x0 SWAP1 DUP2 MSTORE PUSH1 0x13 PUSH1 0x20 MSTORE PUSH1 0x40 DUP2 KECCAK256 SLOAD PUSH1 0xFF AND PUSH2 0x156B JUMPI PUSH1 0x40 MLOAD PUSH3 0x461BCD PUSH1 0xE5 SHL DUP2 MSTORE PUSH1 0x4 ADD PUSH2 0xB29 SWAP1 PUSH2 0x335C JUMP JUMPDEST PUSH1 0x64 DUP4 PUSH1 0x64 PUSH1 0x9 SLOAD DUP8 PUSH2 0x157E SWAP2 SWAP1 PUSH2 0x33CA JUMP JUMPDEST PUSH2 0x1588 SWAP2 SWAP1 PUSH2 0x33B6 JUMP JUMPDEST PUSH2 0x1592 SWAP2 SWAP1 PUSH2 0x33CA JUMP JUMPDEST PUSH2 0x159C SWAP2 SWAP1 PUSH2 0x33B6 JUMP JUMPDEST PUSH1 0x1 SLOAD PUSH1 0x40 MLOAD PUSH4 0xA9059CBB PUSH1 0xE0 SHL DUP2 MSTORE PUSH1 0x1 PUSH1 0x1 PUSH1 0xA0 SHL SUB DUP6 DUP2 AND PUSH1 0x4 DUP4 ADD MSTORE PUSH1 0x24 DUP3 ADD DUP5 SWAP1 MSTORE SWAP3 SWAP4 POP SWAP2 AND SWAP1 PUSH4 0xA9059CBB SWAP1 PUSH1 0x44 ADD PUSH1 0x20 PUSH1 0x40 MLOAD DUP1 DUP4 SUB DUP2 PUSH1 0x0 DUP8 DUP1 EXTCODESIZE ISZERO DUP1 ISZERO PUSH2 0x15EC JUMPI PUSH1 0x0 DUP1 REVERT JUMPDEST POP GAS CALL ISZERO DUP1 ISZERO PUSH2 0x1600 JUMPI RETURNDATASIZE PUSH1 0x0 DUP1 RETURNDATACOPY RETURNDATASIZE PUSH1 0x0 REVERT JUMPDEST POP POP POP POP PUSH1 0x40 MLOAD RETURNDATASIZE PUSH1 0x1F NOT PUSH1 0x1F DUP3 ADD AND DUP3 ADD DUP1 PUSH1 0x40 MSTORE POP DUP2 ADD SWAP1 PUSH2 0x1624 SWAP2 SWAP1 PUSH2 0x307C JUMP JUMPDEST POP SWAP4 SWAP3 POP POP POP JUMP JUMPDEST PUSH1 0x14 SLOAD PUSH1 0x0 SWAP1 DUP2 SWAP1 DUP2 SWAP1 DUP2 SWAP1 DUP2 SWAP1 PUSH1 0xFF AND ISZERO PUSH2 0x165A JUMPI PUSH1 0x40 MLOAD PUSH3 0x461BCD PUSH1 0xE5 SHL DUP2 MSTORE PUSH1 0x4 ADD PUSH2 0xB29 SWAP1 PUSH2 0x3332 JUMP JUMPDEST PUSH2 0x1665 PUSH1 0x7 SLOAD PUSH2 0x1C37 JUMP JUMPDEST SWAP4 SWAP10 SWAP3 SWAP9 POP SWAP1 SWAP7 POP SWAP5 POP SWAP1 SWAP3 POP SWAP1 POP JUMP JUMPDEST PUSH2 0x167E PUSH2 0x2726 JUMP JUMPDEST PUSH1 0x1 DUP1 SLOAD PUSH1 0x1 PUSH1 0x1 PUSH1 0xA0 SHL SUB NOT AND PUSH1 0x1 PUSH1 0x1 PUSH1 0xA0 SHL SUB SWAP3 SWAP1 SWAP3 AND SWAP2 SWAP1 SWAP2 OR SWAP1 SSTORE JUMP JUMPDEST PUSH1 0x0 DUP1 DUP1 DUP1 JUMPDEST DUP5 MLOAD DUP2 LT ISZERO PUSH2 0x1799 JUMPI PUSH1 0x0 DUP1 DUP7 DUP4 DUP2 MLOAD DUP2 LT PUSH2 0x16C4 JUMPI PUSH2 0x16C4 PUSH2 0x345B JUMP JUMPDEST PUSH1 0x20 MUL PUSH1 0x20 ADD ADD MLOAD GT DUP1 ISZERO PUSH2 0x16F2 JUMPI POP PUSH1 0x9 DUP7 DUP4 DUP2 MLOAD DUP2 LT PUSH2 0x16E8 JUMPI PUSH2 0x16E8 PUSH2 0x345B JUMP JUMPDEST PUSH1 0x20 MUL PUSH1 0x20 ADD ADD MLOAD LT JUMPDEST ISZERO PUSH2 0x1720 JUMPI DUP6 DUP3 DUP2 MLOAD DUP2 LT PUSH2 0x1709 JUMPI PUSH2 0x1709 PUSH2 0x345B JUMP JUMPDEST PUSH1 0x20 MUL PUSH1 0x20 ADD ADD MLOAD PUSH1 0x1 PUSH2 0x171D SWAP2 SWAP1 PUSH2 0x339E JUMP JUMPDEST SWAP1 POP JUMPDEST PUSH1 0x9 DUP7 DUP4 DUP2 MLOAD DUP2 LT PUSH2 0x1734 JUMPI PUSH2 0x1734 PUSH2 0x345B JUMP JUMPDEST PUSH1 0x20 MUL PUSH1 0x20 ADD ADD MLOAD LT PUSH2 0x1745 JUMPI POP PUSH1 0xA JUMPDEST DUP6 DUP3 DUP2 MLOAD DUP2 LT PUSH2 0x1757 JUMPI PUSH2 0x1757 PUSH2 0x345B JUMP JUMPDEST PUSH1 0x20 MUL PUSH1 0x20 ADD ADD MLOAD PUSH1 0x0 EQ ISZERO PUSH2 0x1779 JUMPI PUSH2 0x1772 PUSH1 0x1 DUP5 PUSH2 0x339E JUMP JUMPDEST SWAP3 POP PUSH1 0x0 SWAP1 POP JUMPDEST PUSH2 0x1783 DUP2 DUP6 PUSH2 0x339E JUMP JUMPDEST SWAP4 POP POP DUP1 DUP1 PUSH2 0x1791 SWAP1 PUSH2 0x3400 JUMP JUMPDEST SWAP2 POP POP PUSH2 0x16A6 JUMP JUMPDEST POP DUP1 ISZERO PUSH2 0x180C JUMPI DUP2 PUSH1 0x0 JUMPDEST DUP3 DUP2 LT ISZERO PUSH2 0x17EC JUMPI PUSH1 0x0 PUSH1 0x15 PUSH2 0x17BB DUP5 PUSH1 0xB PUSH2 0x339E JUMP JUMPDEST GT PUSH2 0x17C8 JUMPI POP PUSH1 0xB PUSH2 0x17CC JUMP JUMPDEST POP PUSH1 0x1 JUMPDEST PUSH2 0x17D6 DUP2 DUP5 PUSH2 0x339E JUMP JUMPDEST SWAP3 POP POP DUP1 DUP1 PUSH2 0x17E4 SWAP1 PUSH2 0x3400 JUMP JUMPDEST SWAP2 POP POP PUSH2 0x17A4 JUMP JUMPDEST POP PUSH1 0x15 DUP2 GT PUSH2 0x17FD JUMPI DUP1 SWAP3 POP PUSH2 0x180A JUMP JUMPDEST PUSH2 0x1807 DUP3 DUP5 PUSH2 0x339E JUMP JUMPDEST SWAP3 POP JUMPDEST POP JUMPDEST PUSH1 0x15 DUP3 GT ISZERO PUSH2 0x181A JUMPI PUSH1 0x1 SWAP3 POP JUMPDEST POP SWAP2 POP SWAP2 JUMP JUMPDEST PUSH2 0x1828 PUSH2 0x2726 JUMP JUMPDEST PUSH1 0xC SWAP7 SWAP1 SWAP7 SSTORE PUSH1 0xD SWAP5 SWAP1 SWAP5 SSTORE PUSH1 0xE SWAP3 SWAP1 SWAP3 SSTORE PUSH1 0xF SSTORE PUSH1 0x10 SSTORE PUSH1 0x11 SSTORE PUSH1 0x12 SSTORE JUMP JUMPDEST CALLER PUSH1 0x0 SWAP1 DUP2 MSTORE PUSH1 0x13 PUSH1 0x20 MSTORE PUSH1 0x40 SWAP1 KECCAK256 SLOAD PUSH1 0xFF AND PUSH2 0x1877 JUMPI PUSH1 0x40 MLOAD PUSH3 0x461BCD PUSH1 0xE5 SHL DUP2 MSTORE PUSH1 0x4 ADD PUSH2 0xB29 SWAP1 PUSH2 0x335C JUMP JUMPDEST PUSH1 0x0 PUSH1 0x64 PUSH1 0x8 SLOAD DUP4 PUSH2 0x1889 SWAP2 SWAP1 PUSH2 0x33CA JUMP JUMPDEST PUSH2 0x1893 SWAP2 SWAP1 PUSH2 0x33B6 JUMP JUMPDEST SWAP1 POP DUP1 PUSH1 0x6 PUSH1 0x0 DUP3 DUP3 SLOAD PUSH2 0x18A7 SWAP2 SWAP1 PUSH2 0x339E JUMP JUMPDEST SWAP1 SWAP2 SSTORE POP POP PUSH1 0x5 SLOAD PUSH1 0x6 SLOAD LT PUSH2 0x18F6 JUMPI PUSH1 0x1 SLOAD PUSH1 0x2 SLOAD PUSH1 0x6 SLOAD PUSH1 0x40 MLOAD PUSH4 0xA9059CBB PUSH1 0xE0 SHL DUP2 MSTORE PUSH1 0x1 PUSH1 0x1 PUSH1 0xA0 SHL SUB SWAP3 DUP4 AND PUSH1 0x4 DUP3 ADD MSTORE PUSH1 0x24 DUP2 ADD SWAP2 SWAP1 SWAP2 MSTORE SWAP2 AND SWAP1 PUSH4 0xA9059CBB SWAP1 PUSH1 0x44 ADD PUSH2 0xD73 JUMP JUMPDEST POP POP JUMP JUMPDEST PUSH1 0x14 SLOAD PUSH1 0x0 SWAP1 DUP2 SWAP1 PUSH1 0xFF AND ISZERO PUSH2 0x1922 JUMPI PUSH1 0x40 MLOAD PUSH3 0x461BCD PUSH1 0xE5 SHL DUP2 MSTORE PUSH1 0x4 ADD PUSH2 0xB29 SWAP1 PUSH2 0x3332 JUMP JUMPDEST PUSH2 0x192F PUSH1 0x7 SLOAD PUSH1 0x0 PUSH2 0x2B03 JUMP JUMPDEST SWAP1 SWAP4 SWAP1 SWAP3 POP SWAP1 POP JUMP JUMPDEST PUSH2 0x1940 PUSH2 0x2726 JUMP JUMPDEST PUSH1 0x2 DUP1 SLOAD PUSH1 0x1 PUSH1 0x1 PUSH1 0xA0 SHL SUB NOT AND PUSH1 0x1 PUSH1 0x1 PUSH1 0xA0 SHL SUB SWAP3 SWAP1 SWAP3 AND SWAP2 SWAP1 SWAP2 OR SWAP1 SSTORE JUMP JUMPDEST PUSH1 0x14 SLOAD PUSH1 0x0 SWAP1 DUP2 SWAP1 DUP2 SWAP1 DUP2 SWAP1 PUSH1 0xFF AND ISZERO PUSH2 0x198E JUMPI PUSH1 0x40 MLOAD PUSH3 0x461BCD PUSH1 0xE5 SHL DUP2 MSTORE PUSH1 0x4 ADD PUSH2 0xB29 SWAP1 PUSH2 0x3332 JUMP JUMPDEST DUP5 PUSH1 0x6 EQ DUP1 PUSH2 0x199D JUMPI POP DUP5 PUSH1 0xC EQ JUMPDEST DUP1 PUSH2 0x19A8 JUMPI POP DUP5 PUSH1 0x14 EQ JUMPDEST PUSH2 0x19F4 JUMPI PUSH1 0x40 MLOAD PUSH3 0x461BCD PUSH1 0xE5 SHL DUP2 MSTORE PUSH1 0x20 PUSH1 0x4 DUP3 ADD MSTORE PUSH1 0x19 PUSH1 0x24 DUP3 ADD MSTORE PUSH32 0x6E6F74206120646963652073697A6520617661696C61626C6500000000000000 PUSH1 0x44 DUP3 ADD MSTORE PUSH1 0x64 ADD PUSH2 0xB29 JUMP JUMPDEST PUSH1 0x0 DUP7 GT DUP1 ISZERO PUSH2 0x1A04 JUMPI POP DUP5 DUP7 GT ISZERO JUMPDEST PUSH2 0x1A48 JUMPI PUSH1 0x40 MLOAD PUSH3 0x461BCD PUSH1 0xE5 SHL DUP2 MSTORE PUSH1 0x20 PUSH1 0x4 DUP3 ADD MSTORE PUSH1 0x15 PUSH1 0x24 DUP3 ADD MSTORE PUSH21 0x206D7573742062652077697468696E207370656373 PUSH1 0x58 SHL PUSH1 0x44 DUP3 ADD MSTORE PUSH1 0x64 ADD PUSH2 0xB29 JUMP JUMPDEST PUSH2 0x1A51 DUP8 PUSH2 0x2780 JUMP JUMPDEST PUSH1 0xE SLOAD PUSH1 0xC DUP7 EQ ISZERO PUSH2 0x1A62 JUMPI POP PUSH1 0xF SLOAD JUMPDEST DUP6 PUSH1 0x14 EQ ISZERO PUSH2 0x1A70 JUMPI POP PUSH1 0x10 SLOAD JUMPDEST DUP7 SWAP4 POP DUP6 SWAP3 POP PUSH1 0x0 SWAP2 POP PUSH2 0x1A83 DUP7 PUSH2 0x1244 JUMP JUMPDEST PUSH2 0x1A8E SWAP1 PUSH1 0x1 PUSH2 0x339E JUMP JUMPDEST SWAP5 POP DUP7 DUP6 EQ ISZERO PUSH2 0x1A9D JUMPI PUSH1 0x1 SWAP2 POP JUMPDEST PUSH1 0x0 DUP3 ISZERO PUSH2 0x1AB2 JUMPI PUSH2 0x1AAF DUP10 DUP4 PUSH2 0x2D84 JUMP JUMPDEST SWAP1 POP JUMPDEST DUP3 PUSH2 0x1AC3 JUMPI PUSH2 0x1AC0 DUP10 PUSH2 0x2DB7 JUMP JUMPDEST SWAP1 POP JUMPDEST PUSH1 0x40 DUP1 MLOAD CALLER DUP2 MSTORE PUSH1 0x20 DUP2 ADD DUP9 SWAP1 MSTORE SWAP1 DUP2 ADD DUP7 SWAP1 MSTORE PUSH1 0x60 DUP2 ADD DUP6 SWAP1 MSTORE DUP4 ISZERO ISZERO PUSH1 0x80 DUP3 ADD MSTORE PUSH1 0xA0 DUP2 ADD DUP3 SWAP1 MSTORE PUSH32 0x8A2B5309B1D1CCD8EBE92AB072B951111018932C2BC5C535808182BA7255A8A SWAP1 PUSH1 0xC0 ADD PUSH1 0x40 MLOAD DUP1 SWAP2 SUB SWAP1 LOG1 POP POP SWAP4 POP SWAP4 POP SWAP4 POP SWAP4 JUMP JUMPDEST PUSH2 0x1B2D PUSH2 0x2726 JUMP JUMPDEST PUSH1 0x1 SLOAD PUSH1 0x40 MLOAD PUSH4 0x70A08231 PUSH1 0xE0 SHL DUP2 MSTORE ADDRESS PUSH1 0x4 DUP3 ADD MSTORE PUSH1 0x0 SWAP2 PUSH1 0x1 PUSH1 0x1 PUSH1 0xA0 SHL SUB AND SWAP1 PUSH4 0x70A08231 SWAP1 PUSH1 0x24 ADD PUSH1 0x20 PUSH1 0x40 MLOAD DUP1 DUP4 SUB DUP2 DUP7 DUP1 EXTCODESIZE ISZERO DUP1 ISZERO PUSH2 0x1B71 JUMPI PUSH1 0x0 DUP1 REVERT JUMPDEST POP GAS STATICCALL ISZERO DUP1 ISZERO PUSH2 0x1B85 JUMPI RETURNDATASIZE PUSH1 0x0 DUP1 RETURNDATACOPY RETURNDATASIZE PUSH1 0x0 REVERT JUMPDEST POP POP POP POP PUSH1 0x40 MLOAD RETURNDATASIZE PUSH1 0x1F NOT PUSH1 0x1F DUP3 ADD AND DUP3 ADD DUP1 PUSH1 0x40 MSTORE POP DUP2 ADD SWAP1 PUSH2 0x1BA9 SWAP2 SWAP1 PUSH2 0x30B2 JUMP JUMPDEST PUSH1 0x1 SLOAD PUSH1 0x40 MLOAD PUSH4 0xA9059CBB PUSH1 0xE0 SHL DUP2 MSTORE CALLER PUSH1 0x4 DUP3 ADD MSTORE PUSH1 0x24 DUP2 ADD DUP4 SWAP1 MSTORE SWAP2 SWAP3 POP PUSH1 0x1 PUSH1 0x1 PUSH1 0xA0 SHL SUB AND SWAP1 PUSH4 0xA9059CBB SWAP1 PUSH1 0x44 ADD PUSH1 0x20 PUSH1 0x40 MLOAD DUP1 DUP4 SUB DUP2 PUSH1 0x0 DUP8 DUP1 EXTCODESIZE ISZERO DUP1 ISZERO PUSH2 0x1BF6 JUMPI PUSH1 0x0 DUP1 REVERT JUMPDEST POP GAS CALL ISZERO DUP1 ISZERO PUSH2 0x1C0A JUMPI RETURNDATASIZE PUSH1 0x0 DUP1 RETURNDATACOPY RETURNDATASIZE PUSH1 0x0 REVERT JUMPDEST POP POP POP POP PUSH1 0x40 MLOAD RETURNDATASIZE PUSH1 0x1F NOT PUSH1 0x1F DUP3 ADD AND DUP3 ADD DUP1 PUSH1 0x40 MSTORE POP DUP2 ADD SWAP1 PUSH2 0x1C2E SWAP2 SWAP1 PUSH2 0x307C JUMP JUMPDEST POP POP PUSH1 0x0 PUSH1 0x6 SSTORE JUMP JUMPDEST PUSH1 0x14 SLOAD PUSH1 0x0 SWAP1 DUP2 SWAP1 DUP2 SWAP1 DUP2 SWAP1 DUP2 SWAP1 PUSH1 0xFF AND ISZERO PUSH2 0x1C65 JUMPI PUSH1 0x40 MLOAD PUSH3 0x461BCD PUSH1 0xE5 SHL DUP2 MSTORE PUSH1 0x4 ADD PUSH2 0xB29 SWAP1 PUSH2 0x3332 JUMP JUMPDEST PUSH2 0x1C6E DUP7 PUSH2 0x2780 JUMP JUMPDEST PUSH2 0x1C76 PUSH2 0x2E58 JUMP JUMPDEST SWAP1 SWAP4 POP SWAP2 POP PUSH2 0x1C83 PUSH2 0x2E58 JUMP JUMPDEST SWAP1 SWAP6 POP SWAP4 POP DUP5 DUP4 GT ISZERO PUSH2 0x1C94 JUMPI POP PUSH1 0x0 JUMPDEST DUP5 DUP4 LT ISZERO PUSH2 0x1CA0 JUMPI POP PUSH1 0x1 JUMPDEST DUP5 DUP4 EQ ISZERO PUSH2 0x1CAC JUMPI POP PUSH1 0x2 JUMPDEST PUSH1 0x0 DUP2 PUSH2 0x1CC2 JUMPI PUSH2 0x1CBF DUP8 PUSH1 0xD SLOAD PUSH2 0x2D84 JUMP JUMPDEST SWAP1 POP JUMPDEST DUP2 PUSH1 0x1 EQ ISZERO PUSH2 0x1CD7 JUMPI PUSH2 0x1CD4 DUP8 PUSH2 0x2DB7 JUMP JUMPDEST SWAP1 POP JUMPDEST PUSH1 0x40 DUP1 MLOAD CALLER DUP2 MSTORE PUSH1 0x20 DUP2 ADD DUP9 SWAP1 MSTORE SWAP1 DUP2 ADD DUP7 SWAP1 MSTORE PUSH1 0x60 DUP2 ADD DUP6 SWAP1 MSTORE PUSH1 0x80 DUP2 ADD DUP5 SWAP1 MSTORE PUSH1 0xA0 DUP2 ADD DUP4 SWAP1 MSTORE PUSH1 0xC0 DUP2 ADD DUP3 SWAP1 MSTORE PUSH32 0xD11A8C761BE4EE6EA7436F4334F6EDC0102E2655078C150D7B799DB9EFDE994B SWAP1 PUSH1 0xE0 ADD PUSH1 0x40 MLOAD DUP1 SWAP2 SUB SWAP1 LOG1 CALLER PUSH1 0x0 SWAP1 DUP2 MSTORE PUSH1 0x15 PUSH1 0x20 MSTORE PUSH1 0x40 DUP2 KECCAK256 DUP1 SLOAD PUSH1 0x1 SWAP3 SWAP1 PUSH2 0x1D54 SWAP1 DUP5 SWAP1 PUSH2 0x339E JUMP JUMPDEST SWAP3 POP POP DUP2 SWAP1 SSTORE POP POP SWAP2 SWAP4 SWAP6 SWAP1 SWAP3 SWAP5 POP JUMP JUMPDEST PUSH2 0x1D6D PUSH2 0x2726 JUMP JUMPDEST PUSH1 0x32 DUP2 LT ISZERO DUP1 ISZERO PUSH2 0x1D7F JUMPI POP PUSH1 0xC8 DUP2 GT ISZERO JUMPDEST PUSH2 0x1DCB JUMPI PUSH1 0x40 MLOAD PUSH3 0x461BCD PUSH1 0xE5 SHL DUP2 MSTORE PUSH1 0x20 PUSH1 0x4 DUP3 ADD MSTORE PUSH1 0x1C PUSH1 0x24 DUP3 ADD MSTORE PUSH32 0x6D757374206265206265747765656E20353020616E6420323030202500000000 PUSH1 0x44 DUP3 ADD MSTORE PUSH1 0x64 ADD PUSH2 0xB29 JUMP JUMPDEST PUSH1 0x9 SSTORE JUMP JUMPDEST PUSH1 0x14 SLOAD PUSH1 0xFF AND ISZERO PUSH2 0x1DF3 JUMPI PUSH1 0x40 MLOAD PUSH3 0x461BCD PUSH1 0xE5 SHL DUP2 MSTORE PUSH1 0x4 ADD PUSH2 0xB29 SWAP1 PUSH2 0x3332 JUMP JUMPDEST CALLER PUSH1 0x0 SWAP1 DUP2 MSTORE PUSH1 0x19 PUSH1 0x20 SWAP1 DUP2 MSTORE PUSH1 0x40 DUP1 DUP4 KECCAK256 SLOAD PUSH1 0x1A DUP4 MSTORE DUP2 DUP5 KECCAK256 DUP2 DUP6 MSTORE SWAP1 SWAP3 MSTORE SWAP1 SWAP2 KECCAK256 PUSH1 0x7 DUP2 ADD SLOAD PUSH1 0xFF AND ISZERO PUSH2 0x1E63 JUMPI PUSH1 0x40 MLOAD PUSH3 0x461BCD PUSH1 0xE5 SHL DUP2 MSTORE PUSH1 0x20 PUSH1 0x4 DUP3 ADD MSTORE PUSH1 0x15 PUSH1 0x24 DUP3 ADD MSTORE PUSH21 0x4D7573742066696E697368206C6173742047616D65 PUSH1 0x58 SHL PUSH1 0x44 DUP3 ADD MSTORE PUSH1 0x64 ADD PUSH2 0xB29 JUMP JUMPDEST PUSH2 0x1E70 DUP2 PUSH1 0x4 ADD SLOAD PUSH2 0x2780 JUMP JUMPDEST PUSH1 0x4 DUP2 DUP2 ADD DUP5 SWAP1 SSTORE PUSH1 0x7 DUP3 ADD DUP1 SLOAD PUSH1 0xFF NOT AND PUSH1 0x1 SWAP1 DUP2 OR SWAP1 SWAP2 SSTORE SLOAD PUSH1 0x40 MLOAD PUSH4 0x23B872DD PUSH1 0xE0 SHL DUP2 MSTORE CALLER SWAP3 DUP2 ADD SWAP3 SWAP1 SWAP3 MSTORE ADDRESS PUSH1 0x24 DUP4 ADD MSTORE PUSH1 0x44 DUP3 ADD DUP6 SWAP1 MSTORE PUSH1 0x1 PUSH1 0x1 PUSH1 0xA0 SHL SUB AND SWAP1 PUSH4 0x23B872DD SWAP1 PUSH1 0x64 ADD PUSH1 0x20 PUSH1 0x40 MLOAD DUP1 DUP4 SUB DUP2 PUSH1 0x0 DUP8 DUP1 EXTCODESIZE ISZERO DUP1 ISZERO PUSH2 0x1EDA JUMPI PUSH1 0x0 DUP1 REVERT JUMPDEST POP GAS CALL ISZERO DUP1 ISZERO PUSH2 0x1EEE JUMPI RETURNDATASIZE PUSH1 0x0 DUP1 RETURNDATACOPY RETURNDATASIZE PUSH1 0x0 REVERT JUMPDEST POP POP POP POP PUSH1 0x40 MLOAD RETURNDATASIZE PUSH1 0x1F NOT PUSH1 0x1F DUP3 ADD AND DUP3 ADD DUP1 PUSH1 0x40 MSTORE POP DUP2 ADD SWAP1 PUSH2 0x1F12 SWAP2 SWAP1 PUSH2 0x307C JUMP JUMPDEST POP PUSH1 0x0 DUP1 PUSH1 0x0 JUMPDEST PUSH1 0x2 DUP2 LT ISZERO PUSH2 0x1F6D JUMPI PUSH2 0x1F2A PUSH2 0x2BF3 JUMP JUMPDEST DUP6 SLOAD PUSH1 0x1 DUP2 DUP2 ADD DUP9 SSTORE PUSH1 0x0 DUP9 DUP2 MSTORE PUSH1 0x20 DUP1 DUP3 KECCAK256 SWAP1 SWAP4 ADD DUP5 SWAP1 SSTORE DUP2 DUP10 ADD DUP1 SLOAD SWAP3 DUP4 ADD DUP2 SSTORE DUP2 MSTORE SWAP2 SWAP1 SWAP2 KECCAK256 ADD DUP3 SWAP1 SSTORE SWAP4 POP SWAP2 POP DUP1 PUSH2 0x1F65 DUP2 PUSH2 0x3400 JUMP JUMPDEST SWAP2 POP POP PUSH2 0x1F19 JUMP JUMPDEST POP PUSH1 0x0 DUP1 PUSH2 0x1FCA DUP6 PUSH1 0x1 ADD DUP1 SLOAD DUP1 PUSH1 0x20 MUL PUSH1 0x20 ADD PUSH1 0x40 MLOAD SWAP1 DUP2 ADD PUSH1 0x40 MSTORE DUP1 SWAP3 SWAP2 SWAP1 DUP2 DUP2 MSTORE PUSH1 0x20 ADD DUP3 DUP1 SLOAD DUP1 ISZERO PUSH2 0x140E JUMPI PUSH1 0x20 MUL DUP3 ADD SWAP2 SWAP1 PUSH1 0x0 MSTORE PUSH1 0x20 PUSH1 0x0 KECCAK256 SWAP1 DUP2 SLOAD DUP2 MSTORE PUSH1 0x20 ADD SWAP1 PUSH1 0x1 ADD SWAP1 DUP1 DUP4 GT PUSH2 0x13FA JUMPI POP POP POP POP POP PUSH2 0x16A0 JUMP JUMPDEST PUSH1 0x5 DUP8 ADD DUP2 SWAP1 SSTORE SWAP1 SWAP3 POP SWAP1 POP PUSH2 0x1FDE PUSH2 0x2BF3 JUMP JUMPDEST PUSH1 0x2 DUP8 ADD DUP1 SLOAD PUSH1 0x1 DUP2 DUP2 ADD DUP4 SSTORE PUSH1 0x0 SWAP3 DUP4 MSTORE PUSH1 0x20 DUP1 DUP5 KECCAK256 SWAP1 SWAP3 ADD DUP5 SWAP1 SSTORE PUSH1 0x3 DUP11 ADD DUP1 SLOAD SWAP2 DUP3 ADD DUP2 SSTORE DUP1 DUP5 MSTORE DUP3 DUP5 KECCAK256 SWAP1 SWAP2 ADD DUP6 SWAP1 SSTORE DUP1 SLOAD PUSH1 0x40 DUP1 MLOAD DUP3 DUP6 MUL DUP2 ADD DUP6 ADD SWAP1 SWAP2 MSTORE DUP2 DUP2 MSTORE SWAP5 SWAP10 POP SWAP5 SWAP8 POP SWAP2 SWAP4 PUSH2 0x206A SWAP4 SWAP3 SWAP2 DUP4 ADD DUP3 DUP3 DUP1 ISZERO PUSH2 0x140E JUMPI PUSH1 0x20 MUL DUP3 ADD SWAP2 SWAP1 PUSH1 0x0 MSTORE PUSH1 0x20 PUSH1 0x0 KECCAK256 SWAP1 DUP2 SLOAD DUP2 MSTORE PUSH1 0x20 ADD SWAP1 PUSH1 0x1 ADD SWAP1 DUP1 DUP4 GT PUSH2 0x13FA JUMPI POP POP POP POP POP PUSH2 0x16A0 JUMP JUMPDEST SWAP2 POP POP DUP1 DUP7 PUSH1 0x6 ADD DUP2 SWAP1 SSTORE POP PUSH32 0x4BCBDFA7453595C0B74372E71E39F68EC571585D404FC01D65BF50C191F6A8C CALLER DUP8 PUSH1 0x0 ADD DUP9 PUSH1 0x1 ADD DUP10 PUSH1 0x2 ADD DUP11 PUSH1 0x3 ADD DUP14 DUP13 PUSH1 0x5 ADD SLOAD DUP14 PUSH1 0x6 ADD SLOAD DUP12 PUSH1 0x0 PUSH1 0x40 MLOAD PUSH2 0x20CC SWAP11 SWAP10 SWAP9 SWAP8 SWAP7 SWAP6 SWAP5 SWAP4 SWAP3 SWAP2 SWAP1 PUSH2 0x31EC JUMP JUMPDEST PUSH1 0x40 MLOAD DUP1 SWAP2 SUB SWAP1 LOG1 POP POP POP POP POP POP POP POP JUMP JUMPDEST PUSH1 0x14 SLOAD PUSH1 0x0 SWAP1 DUP2 SWAP1 PUSH1 0xFF AND ISZERO PUSH2 0x2106 JUMPI PUSH1 0x40 MLOAD PUSH3 0x461BCD PUSH1 0xE5 SHL DUP2 MSTORE PUSH1 0x4 ADD PUSH2 0xB29 SWAP1 PUSH2 0x3332 JUMP JUMPDEST PUSH2 0x1195 DUP4 PUSH1 0x0 PUSH2 0x2B03 JUMP JUMPDEST PUSH1 0x0 PUSH1 0xA SLOAD PUSH1 0x6 SLOAD PUSH2 0x2121 PUSH2 0x119F JUMP JUMPDEST PUSH2 0x212B SWAP2 SWAP1 PUSH2 0x33E9 JUMP JUMPDEST PUSH2 0x115D SWAP2 SWAP1 PUSH2 0x33B6 JUMP JUMPDEST PUSH1 0x14 SLOAD PUSH1 0x0 SWAP1 PUSH1 0xFF AND ISZERO PUSH2 0x215B JUMPI PUSH1 0x40 MLOAD PUSH3 0x461BCD PUSH1 0xE5 SHL DUP2 MSTORE PUSH1 0x4 ADD PUSH2 0xB29 SWAP1 PUSH2 0x3332 JUMP JUMPDEST CALLER PUSH1 0x0 SWAP1 DUP2 MSTORE PUSH1 0x17 PUSH1 0x20 SWAP1 DUP2 MSTORE PUSH1 0x40 DUP1 DUP4 KECCAK256 SLOAD PUSH1 0x18 DUP4 MSTORE DUP2 DUP5 KECCAK256 DUP2 DUP6 MSTORE SWAP1 SWAP3 MSTORE SWAP1 SWAP2 KECCAK256 PUSH1 0x5 DUP2 ADD SLOAD PUSH1 0xFF AND PUSH2 0x21C2 JUMPI PUSH1 0x40 MLOAD PUSH3 0x461BCD PUSH1 0xE5 SHL DUP2 MSTORE PUSH1 0x20 PUSH1 0x4 DUP3 ADD MSTORE PUSH1 0xD PUSH1 0x24 DUP3 ADD MSTORE PUSH13 0x6E6F7420696E20612067616D65 PUSH1 0x98 SHL PUSH1 0x44 DUP3 ADD MSTORE PUSH1 0x64 ADD PUSH2 0xB29 JUMP JUMPDEST PUSH2 0x21D4 DUP2 PUSH1 0x2 ADD SLOAD DUP3 PUSH1 0x3 ADD SLOAD PUSH2 0x2C6A JUMP JUMPDEST PUSH1 0x40 DUP1 MLOAD CALLER DUP2 MSTORE PUSH1 0x20 DUP2 ADD DUP4 SWAP1 MSTORE SWAP2 SWAP5 POP PUSH32 0x293B0EBFC4F0E3517E5481605C5B7BD3194453B3F323BC1322B6D4E9BA326EC3 SWAP2 ADD PUSH1 0x40 MLOAD DUP1 SWAP2 SUB SWAP1 LOG1 CALLER PUSH1 0x0 SWAP1 DUP2 MSTORE PUSH1 0x17 PUSH1 0x20 MSTORE PUSH1 0x40 DUP2 KECCAK256 DUP1 SLOAD PUSH1 0x1 SWAP3 SWAP1 PUSH2 0x2230 SWAP1 DUP5 SWAP1 PUSH2 0x339E JUMP JUMPDEST SWAP3 POP POP DUP2 SWAP1 SSTORE POP POP POP SWAP1 JUMP JUMPDEST PUSH2 0x2244 PUSH2 0x2726 JUMP JUMPDEST PUSH1 0x1 PUSH1 0x1 PUSH1 0xA0 SHL SUB DUP2 AND PUSH2 0x22A9 JUMPI PUSH1 0x40 MLOAD PUSH3 0x461BCD PUSH1 0xE5 SHL DUP2 MSTORE PUSH1 0x20 PUSH1 0x4 DUP3 ADD MSTORE PUSH1 0x26 PUSH1 0x24 DUP3 ADD MSTORE PUSH32 0x4F776E61626C653A206E6577206F776E657220697320746865207A65726F2061 PUSH1 0x44 DUP3 ADD MSTORE PUSH6 0x646472657373 PUSH1 0xD0 SHL PUSH1 0x64 DUP3 ADD MSTORE PUSH1 0x84 ADD PUSH2 0xB29 JUMP JUMPDEST PUSH2 0x22B2 DUP2 PUSH2 0x2D34 JUMP JUMPDEST POP JUMP JUMPDEST PUSH2 0x22BD PUSH2 0x2726 JUMP JUMPDEST PUSH1 0x7 SSTORE JUMP JUMPDEST PUSH2 0x22CA PUSH2 0x2726 JUMP JUMPDEST PUSH1 0x1 PUSH1 0x1 PUSH1 0xA0 SHL SUB SWAP2 SWAP1 SWAP2 AND PUSH1 0x0 SWAP1 DUP2 MSTORE PUSH1 0x13 PUSH1 0x20 MSTORE PUSH1 0x40 SWAP1 KECCAK256 DUP1 SLOAD PUSH1 0xFF NOT AND SWAP2 ISZERO ISZERO SWAP2 SWAP1 SWAP2 OR SWAP1 SSTORE JUMP JUMPDEST PUSH1 0x14 SLOAD PUSH1 0x0 SWAP1 DUP2 SWAP1 PUSH1 0xFF AND ISZERO PUSH2 0x231D JUMPI PUSH1 0x40 MLOAD PUSH3 0x461BCD PUSH1 0xE5 SHL DUP2 MSTORE PUSH1 0x4 ADD PUSH2 0xB29 SWAP1 PUSH2 0x3332 JUMP JUMPDEST PUSH2 0x192F PUSH1 0x7 SLOAD PUSH1 0x1 PUSH2 0x2B03 JUMP JUMPDEST PUSH1 0x14 SLOAD PUSH1 0xFF AND ISZERO PUSH2 0x234D JUMPI PUSH1 0x40 MLOAD PUSH3 0x461BCD PUSH1 0xE5 SHL DUP2 MSTORE PUSH1 0x4 ADD PUSH2 0xB29 SWAP1 PUSH2 0x3332 JUMP JUMPDEST CALLER PUSH1 0x0 SWAP1 DUP2 MSTORE PUSH1 0x19 PUSH1 0x20 SWAP1 DUP2 MSTORE PUSH1 0x40 DUP1 DUP4 KECCAK256 SLOAD PUSH1 0x1A DUP4 MSTORE DUP2 DUP5 KECCAK256 DUP2 DUP6 MSTORE SWAP1 SWAP3 MSTORE SWAP1 SWAP2 KECCAK256 PUSH1 0x7 DUP2 ADD SLOAD PUSH1 0xFF AND PUSH2 0x2394 JUMPI PUSH1 0x40 MLOAD PUSH3 0x461BCD PUSH1 0xE5 SHL DUP2 MSTORE PUSH1 0x4 ADD PUSH2 0xB29 SWAP1 PUSH2 0x32FB JUMP JUMPDEST PUSH1 0x0 DUP1 PUSH2 0x239F PUSH2 0x2BF3 JUMP JUMPDEST DUP5 SLOAD PUSH1 0x1 DUP2 DUP2 ADD DUP8 SSTORE PUSH1 0x0 DUP8 DUP2 MSTORE PUSH1 0x20 DUP1 DUP3 KECCAK256 SWAP1 SWAP4 ADD DUP5 SWAP1 SSTORE DUP2 DUP9 ADD DUP1 SLOAD SWAP3 DUP4 ADD DUP2 SSTORE DUP1 DUP3 MSTORE DUP4 DUP3 KECCAK256 SWAP1 SWAP3 ADD DUP6 SWAP1 SSTORE DUP2 SLOAD PUSH1 0x40 DUP1 MLOAD DUP3 DUP7 MUL DUP2 ADD DUP7 ADD SWAP1 SWAP2 MSTORE DUP2 DUP2 MSTORE SWAP5 SWAP8 POP SWAP5 SWAP6 POP SWAP4 DUP5 SWAP4 PUSH2 0x2429 SWAP4 SWAP1 SWAP3 SWAP2 SWAP1 DUP4 ADD DUP3 DUP3 DUP1 ISZERO PUSH2 0x140E JUMPI PUSH1 0x20 MUL DUP3 ADD SWAP2 SWAP1 PUSH1 0x0 MSTORE PUSH1 0x20 PUSH1 0x0 KECCAK256 SWAP1 DUP2 SLOAD DUP2 MSTORE PUSH1 0x20 ADD SWAP1 PUSH1 0x1 ADD SWAP1 DUP1 DUP4 GT PUSH2 0x13FA JUMPI POP POP POP POP POP PUSH2 0x16A0 JUMP JUMPDEST PUSH1 0x5 DUP8 ADD DUP2 SWAP1 SSTORE PUSH1 0x4 DUP8 ADD SLOAD PUSH1 0x6 DUP9 ADD SLOAD PUSH1 0x40 MLOAD SWAP4 SWAP6 POP SWAP2 SWAP4 POP PUSH32 0x4BCBDFA7453595C0B74372E71E39F68EC571585D404FC01D65BF50C191F6A8C SWAP3 PUSH2 0x248A SWAP3 CALLER SWAP3 DUP11 SWAP3 PUSH1 0x1 DUP5 ADD SWAP3 PUSH1 0x2 DUP6 ADD SWAP3 PUSH1 0x3 DUP7 ADD SWAP3 SWAP1 SWAP2 DUP11 SWAP2 DUP13 SWAP1 PUSH1 0x0 SWAP1 PUSH2 0x31EC JUMP JUMPDEST PUSH1 0x40 MLOAD DUP1 SWAP2 SUB SWAP1 LOG1 DUP2 ISZERO PUSH2 0x24CB JUMPI CALLER PUSH1 0x0 SWAP1 DUP2 MSTORE PUSH1 0x19 PUSH1 0x20 MSTORE PUSH1 0x40 DUP2 KECCAK256 DUP1 SLOAD PUSH1 0x1 SWAP3 SWAP1 PUSH2 0x24B8 SWAP1 DUP5 SWAP1 PUSH2 0x339E JUMP JUMPDEST SWAP1 SWAP2 SSTORE POP POP PUSH1 0x4 DUP6 ADD SLOAD PUSH2 0x24CB SWAP1 PUSH2 0x1877 JUMP JUMPDEST POP POP POP POP POP POP JUMP JUMPDEST PUSH1 0x0 DUP1 PUSH1 0x0 DUP1 PUSH1 0x0 DUP1 PUSH1 0x0 DUP1 PUSH1 0x14 PUSH1 0x0 SWAP1 SLOAD SWAP1 PUSH2 0x100 EXP SWAP1 DIV PUSH1 0xFF AND ISZERO PUSH2 0x250C JUMPI PUSH1 0x40 MLOAD PUSH3 0x461BCD PUSH1 0xE5 SHL DUP2 MSTORE PUSH1 0x4 ADD PUSH2 0xB29 SWAP1 PUSH2 0x3332 JUMP JUMPDEST CALLER PUSH1 0x0 SWAP1 DUP2 MSTORE PUSH1 0x17 PUSH1 0x20 SWAP1 DUP2 MSTORE PUSH1 0x40 DUP1 DUP4 KECCAK256 SLOAD PUSH1 0x18 DUP4 MSTORE DUP2 DUP5 KECCAK256 DUP2 DUP6 MSTORE SWAP1 SWAP3 MSTORE SWAP1 SWAP2 KECCAK256 PUSH1 0x5 DUP2 ADD SLOAD PUSH1 0xFF AND PUSH2 0x2553 JUMPI PUSH1 0x40 MLOAD PUSH3 0x461BCD PUSH1 0xE5 SHL DUP2 MSTORE PUSH1 0x4 ADD PUSH2 0xB29 SWAP1 PUSH2 0x32FB JUMP JUMPDEST DUP1 SLOAD PUSH1 0x1 DUP3 ADD SLOAD SWAP1 SWAP10 POP SWAP8 POP PUSH2 0x2567 PUSH2 0x2A74 JUMP JUMPDEST DUP3 SSTORE PUSH1 0x1 DUP3 ADD DUP2 SWAP1 SSTORE DUP9 LT ISZERO PUSH2 0x257C JUMPI PUSH1 0x1 SWAP10 POP JUMPDEST DUP10 ISZERO ISZERO DUP12 ISZERO ISZERO EQ ISZERO PUSH2 0x25F1 JUMPI PUSH1 0x11 SLOAD DUP2 PUSH1 0x3 ADD SLOAD PUSH2 0x259A SWAP2 SWAP1 PUSH2 0x339E JUMP JUMPDEST PUSH1 0x3 DUP3 ADD DUP2 SWAP1 SSTORE PUSH1 0x2 DUP3 ADD SLOAD SWAP1 PUSH1 0x64 SWAP1 PUSH2 0x25B4 SWAP1 DUP4 PUSH2 0x33CA JUMP JUMPDEST PUSH2 0x25BE SWAP2 SWAP1 PUSH2 0x33B6 JUMP JUMPDEST PUSH2 0x25C8 SWAP2 SWAP1 PUSH2 0x339E JUMP JUMPDEST PUSH1 0x4 DUP3 ADD DUP2 SWAP1 SSTORE PUSH1 0x3 DUP3 ADD SLOAD PUSH1 0x1 SWAP7 POP SWAP1 SWAP4 POP PUSH2 0x12C GT PUSH2 0x25F1 JUMPI PUSH1 0x1 SWAP4 POP PUSH2 0x25EF PUSH2 0x2135 JUMP JUMPDEST POP JUMPDEST DUP1 SLOAD PUSH1 0x1 DUP3 ADD SLOAD PUSH1 0x2 DUP4 ADD SLOAD PUSH1 0x40 DUP1 MLOAD CALLER DUP2 MSTORE PUSH1 0x20 DUP2 ADD DUP15 SWAP1 MSTORE DUP1 DUP3 ADD DUP14 SWAP1 MSTORE PUSH1 0x60 DUP2 ADD SWAP5 SWAP1 SWAP5 MSTORE PUSH1 0x80 DUP5 ADD SWAP3 SWAP1 SWAP3 MSTORE DUP8 ISZERO ISZERO PUSH1 0xA0 DUP5 ADD MSTORE PUSH1 0xC0 DUP4 ADD DUP7 SWAP1 MSTORE DUP7 ISZERO ISZERO PUSH1 0xE0 DUP5 ADD MSTORE PUSH2 0x100 DUP4 ADD MSTORE MLOAD PUSH32 0x30D0B6D78E1E426A1ACFEB2484586C636EB5C8AF529F4733D844D5E7A86A065B SWAP2 DUP2 SWAP1 SUB PUSH2 0x120 ADD SWAP1 LOG1 DUP5 PUSH2 0x26A2 JUMPI CALLER PUSH1 0x0 SWAP1 DUP2 MSTORE PUSH1 0x17 PUSH1 0x20 MSTORE PUSH1 0x40 DUP2 KECCAK256 DUP1 SLOAD PUSH1 0x1 SWAP3 SWAP1 PUSH2 0x268F SWAP1 DUP5 SWAP1 PUSH2 0x339E JUMP JUMPDEST SWAP1 SWAP2 SSTORE POP POP PUSH1 0x2 DUP2 ADD SLOAD PUSH2 0x26A2 SWAP1 PUSH2 0x1877 JUMP JUMPDEST DUP1 SLOAD PUSH1 0x1 SWAP1 SWAP2 ADD SLOAD SWAP1 SWAP7 POP SWAP5 POP POP SWAP2 SWAP4 SWAP6 SWAP8 POP SWAP2 SWAP4 SWAP6 SWAP8 JUMP JUMPDEST CALLER PUSH1 0x0 SWAP1 DUP2 MSTORE PUSH1 0x13 PUSH1 0x20 MSTORE PUSH1 0x40 DUP2 KECCAK256 SLOAD PUSH1 0xFF AND PUSH2 0x26EA JUMPI PUSH1 0x40 MLOAD PUSH3 0x461BCD PUSH1 0xE5 SHL DUP2 MSTORE PUSH1 0x4 ADD PUSH2 0xB29 SWAP1 PUSH2 0x335C JUMP JUMPDEST DUP4 PUSH1 0x64 DUP5 PUSH1 0x64 PUSH1 0x9 SLOAD DUP9 PUSH2 0x26FE SWAP2 SWAP1 PUSH2 0x33CA JUMP JUMPDEST PUSH2 0x2708 SWAP2 SWAP1 PUSH2 0x33B6 JUMP JUMPDEST PUSH2 0x2712 SWAP2 SWAP1 PUSH2 0x33CA JUMP JUMPDEST PUSH2 0x271C SWAP2 SWAP1 PUSH2 0x33B6 JUMP JUMPDEST PUSH2 0x159C SWAP2 SWAP1 PUSH2 0x339E JUMP JUMPDEST PUSH1 0x0 SLOAD PUSH1 0x1 PUSH1 0x1 PUSH1 0xA0 SHL SUB AND CALLER EQ PUSH2 0xB63 JUMPI PUSH1 0x40 MLOAD PUSH3 0x461BCD PUSH1 0xE5 SHL DUP2 MSTORE PUSH1 0x20 PUSH1 0x4 DUP3 ADD DUP2 SWAP1 MSTORE PUSH1 0x24 DUP3 ADD MSTORE PUSH32 0x4F776E61626C653A2063616C6C6572206973206E6F7420746865206F776E6572 PUSH1 0x44 DUP3 ADD MSTORE PUSH1 0x64 ADD PUSH2 0xB29 JUMP JUMPDEST PUSH1 0x0 PUSH1 0x4 PUSH1 0x0 SWAP1 SLOAD SWAP1 PUSH2 0x100 EXP SWAP1 DIV PUSH1 0x1 PUSH1 0x1 PUSH1 0xA0 SHL SUB AND PUSH1 0x1 PUSH1 0x1 PUSH1 0xA0 SHL SUB AND PUSH4 0x61D027B3 PUSH1 0x40 MLOAD DUP2 PUSH4 0xFFFFFFFF AND PUSH1 0xE0 SHL DUP2 MSTORE PUSH1 0x4 ADD PUSH1 0x20 PUSH1 0x40 MLOAD DUP1 DUP4 SUB DUP2 DUP7 DUP1 EXTCODESIZE ISZERO DUP1 ISZERO PUSH2 0x27D0 JUMPI PUSH1 0x0 DUP1 REVERT JUMPDEST POP GAS STATICCALL ISZERO DUP1 ISZERO PUSH2 0x27E4 JUMPI RETURNDATASIZE PUSH1 0x0 DUP1 RETURNDATACOPY RETURNDATASIZE PUSH1 0x0 REVERT JUMPDEST POP POP POP POP PUSH1 0x40 MLOAD RETURNDATASIZE PUSH1 0x1F NOT PUSH1 0x1F DUP3 ADD AND DUP3 ADD DUP1 PUSH1 0x40 MSTORE POP DUP2 ADD SWAP1 PUSH2 0x2808 SWAP2 SWAP1 PUSH2 0x2F18 JUMP JUMPDEST SWAP1 POP PUSH2 0x2812 PUSH2 0x2111 JUMP JUMPDEST DUP3 GT ISZERO PUSH2 0x2861 JUMPI PUSH1 0x40 MLOAD PUSH3 0x461BCD PUSH1 0xE5 SHL DUP2 MSTORE PUSH1 0x20 PUSH1 0x4 DUP3 ADD MSTORE PUSH1 0x1B PUSH1 0x24 DUP3 ADD MSTORE PUSH32 0x796F7572206265742069732061626F766520746865206C696D69740000000000 PUSH1 0x44 DUP3 ADD MSTORE PUSH1 0x64 ADD PUSH2 0xB29 JUMP JUMPDEST PUSH1 0x1 SLOAD PUSH1 0x40 MLOAD PUSH4 0x70A08231 PUSH1 0xE0 SHL DUP2 MSTORE CALLER PUSH1 0x4 DUP3 ADD MSTORE DUP4 SWAP2 PUSH1 0x1 PUSH1 0x1 PUSH1 0xA0 SHL SUB AND SWAP1 PUSH4 0x70A08231 SWAP1 PUSH1 0x24 ADD PUSH1 0x20 PUSH1 0x40 MLOAD DUP1 DUP4 SUB DUP2 DUP7 DUP1 EXTCODESIZE ISZERO DUP1 ISZERO PUSH2 0x28A4 JUMPI PUSH1 0x0 DUP1 REVERT JUMPDEST POP GAS STATICCALL ISZERO DUP1 ISZERO PUSH2 0x28B8 JUMPI RETURNDATASIZE PUSH1 0x0 DUP1 RETURNDATACOPY RETURNDATASIZE PUSH1 0x0 REVERT JUMPDEST POP POP POP POP PUSH1 0x40 MLOAD RETURNDATASIZE PUSH1 0x1F NOT PUSH1 0x1F DUP3 ADD AND DUP3 ADD DUP1 PUSH1 0x40 MSTORE POP DUP2 ADD SWAP1 PUSH2 0x28DC SWAP2 SWAP1 PUSH2 0x30B2 JUMP JUMPDEST LT ISZERO PUSH2 0x2921 JUMPI PUSH1 0x40 MLOAD PUSH3 0x461BCD PUSH1 0xE5 SHL DUP2 MSTORE PUSH1 0x20 PUSH1 0x4 DUP3 ADD MSTORE PUSH1 0x14 PUSH1 0x24 DUP3 ADD MSTORE PUSH20 0x496E73756666696369656E742062616C616E6365 PUSH1 0x60 SHL PUSH1 0x44 DUP3 ADD MSTORE PUSH1 0x64 ADD PUSH2 0xB29 JUMP JUMPDEST PUSH1 0x1 SLOAD PUSH1 0x40 MLOAD PUSH4 0x6EB1769F PUSH1 0xE1 SHL DUP2 MSTORE CALLER PUSH1 0x4 DUP3 ADD MSTORE ADDRESS PUSH1 0x24 DUP3 ADD MSTORE DUP4 SWAP2 PUSH1 0x1 PUSH1 0x1 PUSH1 0xA0 SHL SUB AND SWAP1 PUSH4 0xDD62ED3E SWAP1 PUSH1 0x44 ADD PUSH1 0x20 PUSH1 0x40 MLOAD DUP1 DUP4 SUB DUP2 DUP7 DUP1 EXTCODESIZE ISZERO DUP1 ISZERO PUSH2 0x296A JUMPI PUSH1 0x0 DUP1 REVERT JUMPDEST POP GAS STATICCALL ISZERO DUP1 ISZERO PUSH2 0x297E JUMPI RETURNDATASIZE PUSH1 0x0 DUP1 RETURNDATACOPY RETURNDATASIZE PUSH1 0x0 REVERT JUMPDEST POP POP POP POP PUSH1 0x40 MLOAD RETURNDATASIZE PUSH1 0x1F NOT PUSH1 0x1F DUP3 ADD AND DUP3 ADD DUP1 PUSH1 0x40 MSTORE POP DUP2 ADD SWAP1 PUSH2 0x29A2 SWAP2 SWAP1 PUSH2 0x30B2 JUMP JUMPDEST LT ISZERO PUSH2 0x29FC JUMPI PUSH1 0x40 MLOAD PUSH3 0x461BCD PUSH1 0xE5 SHL DUP2 MSTORE PUSH1 0x20 PUSH1 0x4 DUP3 ADD MSTORE PUSH1 0x24 DUP1 DUP3 ADD MSTORE PUSH32 0x706C6561736520617070726F766520636F6E7472616374206F6E2047616D6554 PUSH1 0x44 DUP3 ADD MSTORE PUSH4 0x37B5B2B7 PUSH1 0xE1 SHL PUSH1 0x64 DUP3 ADD MSTORE PUSH1 0x84 ADD PUSH2 0xB29 JUMP JUMPDEST PUSH1 0x3 SLOAD ISZERO PUSH2 0x18F6 JUMPI PUSH1 0x3 SLOAD SELFBALANCE LT ISZERO PUSH2 0x2A47 JUMPI PUSH1 0x40 MLOAD PUSH3 0x461BCD PUSH1 0xE5 SHL DUP2 MSTORE PUSH1 0x20 PUSH1 0x4 DUP3 ADD MSTORE PUSH1 0xE PUSH1 0x24 DUP3 ADD MSTORE PUSH14 0x2737BA1032B737BAB3B410212721 PUSH1 0x91 SHL PUSH1 0x44 DUP3 ADD MSTORE PUSH1 0x64 ADD PUSH2 0xB29 JUMP JUMPDEST PUSH1 0x40 MLOAD PUSH1 0x1 PUSH1 0x1 PUSH1 0xA0 SHL SUB DUP3 AND SWAP1 SELFBALANCE DUP1 ISZERO PUSH2 0x8FC MUL SWAP2 PUSH1 0x0 DUP2 DUP2 DUP2 DUP6 DUP9 DUP9 CALL SWAP4 POP POP POP POP PUSH2 0x18F6 JUMPI PUSH1 0x0 DUP1 REVERT JUMPDEST CALLER PUSH1 0x0 SWAP1 DUP2 MSTORE PUSH1 0x17 PUSH1 0x20 SWAP1 DUP2 MSTORE PUSH1 0x40 DUP1 DUP4 KECCAK256 SLOAD PUSH1 0x18 DUP4 MSTORE DUP2 DUP5 KECCAK256 DUP2 DUP6 MSTORE SWAP1 SWAP3 MSTORE DUP3 KECCAK256 DUP3 SWAP2 DUP3 SWAP2 JUMPDEST PUSH2 0x2AA5 PUSH1 0x4 PUSH2 0x1244 JUMP JUMPDEST SWAP4 POP PUSH2 0x2AB1 PUSH1 0xD PUSH2 0x1244 JUMP JUMPDEST SWAP5 POP DUP5 PUSH2 0x2ABF DUP6 PUSH1 0xD PUSH2 0x33CA JUMP JUMPDEST PUSH2 0x2AC9 SWAP2 SWAP1 PUSH2 0x339E JUMP JUMPDEST PUSH1 0x0 DUP2 DUP2 MSTORE PUSH1 0x6 DUP4 ADD PUSH1 0x20 MSTORE PUSH1 0x40 SWAP1 KECCAK256 SLOAD SWAP1 SWAP4 POP PUSH1 0xFF AND PUSH2 0x2A9B JUMPI PUSH1 0x0 SWAP3 DUP4 MSTORE PUSH1 0x6 ADD PUSH1 0x20 MSTORE POP PUSH1 0x40 SWAP1 KECCAK256 DUP1 SLOAD PUSH1 0xFF NOT AND PUSH1 0x1 OR SWAP1 SSTORE SWAP1 SWAP2 JUMP JUMPDEST PUSH1 0x14 SLOAD PUSH1 0x0 SWAP1 DUP2 SWAP1 PUSH1 0xFF AND ISZERO PUSH2 0x2B2B JUMPI PUSH1 0x40 MLOAD PUSH3 0x461BCD PUSH1 0xE5 SHL DUP2 MSTORE PUSH1 0x4 ADD PUSH2 0xB29 SWAP1 PUSH2 0x3332 JUMP JUMPDEST PUSH2 0x2B34 DUP5 PUSH2 0x2780 JUMP JUMPDEST PUSH1 0x0 PUSH2 0x2B41 PUSH2 0x2710 PUSH2 0x1244 JUMP JUMPDEST SWAP1 POP PUSH2 0x1068 DUP2 LT PUSH2 0x2B56 JUMPI DUP4 ISZERO SWAP3 POP DUP3 PUSH2 0x2B5B JUMP JUMPDEST DUP4 SWAP3 POP DUP3 JUMPDEST POP DUP3 ISZERO ISZERO DUP5 ISZERO ISZERO EQ PUSH2 0x2B71 JUMPI PUSH1 0x0 SWAP2 POP DUP2 PUSH2 0x2B77 JUMP JUMPDEST PUSH1 0x1 SWAP2 POP DUP2 JUMPDEST POP PUSH1 0x0 DUP3 ISZERO PUSH2 0x2B8F JUMPI PUSH2 0x2B8C DUP7 PUSH1 0xC SLOAD PUSH2 0x2D84 JUMP JUMPDEST SWAP1 POP JUMPDEST DUP3 PUSH2 0x2BA0 JUMPI PUSH2 0x2B9D DUP7 PUSH2 0x2DB7 JUMP JUMPDEST SWAP1 POP JUMPDEST PUSH1 0x40 DUP1 MLOAD CALLER DUP2 MSTORE DUP5 ISZERO ISZERO PUSH1 0x20 DUP3 ADD MSTORE SWAP1 DUP2 ADD DUP3 SWAP1 MSTORE DUP5 ISZERO ISZERO PUSH1 0x60 DUP3 ADD MSTORE PUSH32 0x4F91BBC3534B7027DCD697DD5AA5B2DFAEB6895A895837ADCAA84815CA3C4522 SWAP1 PUSH1 0x80 ADD PUSH1 0x40 MLOAD DUP1 SWAP2 SUB SWAP1 LOG1 POP POP SWAP3 POP SWAP3 SWAP1 POP JUMP JUMPDEST CALLER PUSH1 0x0 SWAP1 DUP2 MSTORE PUSH1 0x19 PUSH1 0x20 SWAP1 DUP2 MSTORE PUSH1 0x40 DUP1 DUP4 KECCAK256 SLOAD PUSH1 0x1A DUP4 MSTORE DUP2 DUP5 KECCAK256 DUP2 DUP6 MSTORE SWAP1 SWAP3 MSTORE DUP3 KECCAK256 DUP3 SWAP2 DUP3 SWAP2 JUMPDEST PUSH2 0x2C24 PUSH1 0x4 PUSH2 0x1244 JUMP JUMPDEST SWAP4 POP PUSH2 0x2C30 PUSH1 0xD PUSH2 0x1244 JUMP JUMPDEST SWAP5 POP DUP5 PUSH2 0x2C3E DUP6 PUSH1 0xD PUSH2 0x33CA JUMP JUMPDEST PUSH2 0x2C48 SWAP2 SWAP1 PUSH2 0x339E JUMP JUMPDEST PUSH1 0x0 DUP2 DUP2 MSTORE PUSH1 0x8 DUP4 ADD PUSH1 0x20 MSTORE PUSH1 0x40 SWAP1 KECCAK256 SLOAD SWAP1 SWAP4 POP PUSH1 0xFF AND PUSH2 0x2C1A JUMPI POP POP POP SWAP1 SWAP2 JUMP JUMPDEST PUSH1 0x0 DUP3 PUSH1 0x64 DUP4 PUSH1 0x64 PUSH1 0x9 SLOAD DUP8 PUSH2 0x2C80 SWAP2 SWAP1 PUSH2 0x33CA JUMP JUMPDEST PUSH2 0x2C8A SWAP2 SWAP1 PUSH2 0x33B6 JUMP JUMPDEST PUSH2 0x2C94 SWAP2 SWAP1 PUSH2 0x33CA JUMP JUMPDEST PUSH2 0x2C9E SWAP2 SWAP1 PUSH2 0x33B6 JUMP JUMPDEST PUSH2 0x2CA8 SWAP2 SWAP1 PUSH2 0x339E JUMP JUMPDEST PUSH1 0x1 SLOAD PUSH1 0x40 MLOAD PUSH4 0xA9059CBB PUSH1 0xE0 SHL DUP2 MSTORE CALLER PUSH1 0x4 DUP3 ADD MSTORE PUSH1 0x24 DUP2 ADD DUP4 SWAP1 MSTORE SWAP2 SWAP3 POP PUSH1 0x1 PUSH1 0x1 PUSH1 0xA0 SHL SUB AND SWAP1 PUSH4 0xA9059CBB SWAP1 PUSH1 0x44 ADD PUSH1 0x20 PUSH1 0x40 MLOAD DUP1 DUP4 SUB DUP2 PUSH1 0x0 DUP8 DUP1 EXTCODESIZE ISZERO DUP1 ISZERO PUSH2 0x2CF5 JUMPI PUSH1 0x0 DUP1 REVERT JUMPDEST POP GAS CALL ISZERO DUP1 ISZERO PUSH2 0x2D09 JUMPI RETURNDATASIZE PUSH1 0x0 DUP1 RETURNDATACOPY RETURNDATASIZE PUSH1 0x0 REVERT JUMPDEST POP POP POP POP PUSH1 0x40 MLOAD RETURNDATASIZE PUSH1 0x1F NOT PUSH1 0x1F DUP3 ADD AND DUP3 ADD DUP1 PUSH1 0x40 MSTORE POP DUP2 ADD SWAP1 PUSH2 0x2D2D SWAP2 SWAP1 PUSH2 0x307C JUMP JUMPDEST POP SWAP3 SWAP2 POP POP JUMP JUMPDEST PUSH1 0x0 DUP1 SLOAD PUSH1 0x1 PUSH1 0x1 PUSH1 0xA0 SHL SUB DUP4 DUP2 AND PUSH1 0x1 PUSH1 0x1 PUSH1 0xA0 SHL SUB NOT DUP4 AND DUP2 OR DUP5 SSTORE PUSH1 0x40 MLOAD SWAP2 SWAP1 SWAP3 AND SWAP3 DUP4 SWAP2 PUSH32 0x8BE0079C531659141344CD1FD0A4F28419497F9722A3DAAFE3B4186F6B6457E0 SWAP2 SWAP1 LOG3 POP POP JUMP JUMPDEST PUSH1 0x0 PUSH1 0x64 DUP3 PUSH1 0x64 PUSH1 0x9 SLOAD DUP7 PUSH2 0x2D99 SWAP2 SWAP1 PUSH2 0x33CA JUMP JUMPDEST PUSH2 0x2DA3 SWAP2 SWAP1 PUSH2 0x33B6 JUMP JUMPDEST PUSH2 0x2DAD SWAP2 SWAP1 PUSH2 0x33CA JUMP JUMPDEST PUSH2 0x2CA8 SWAP2 SWAP1 PUSH2 0x33B6 JUMP JUMPDEST PUSH1 0x1 SLOAD PUSH1 0x40 MLOAD PUSH4 0x23B872DD PUSH1 0xE0 SHL DUP2 MSTORE CALLER PUSH1 0x4 DUP3 ADD MSTORE ADDRESS PUSH1 0x24 DUP3 ADD MSTORE PUSH1 0x44 DUP2 ADD DUP4 SWAP1 MSTORE DUP3 SWAP2 PUSH1 0x1 PUSH1 0x1 PUSH1 0xA0 SHL SUB AND SWAP1 PUSH4 0x23B872DD SWAP1 PUSH1 0x64 ADD PUSH1 0x20 PUSH1 0x40 MLOAD DUP1 DUP4 SUB DUP2 PUSH1 0x0 DUP8 DUP1 EXTCODESIZE ISZERO DUP1 ISZERO PUSH2 0x2E09 JUMPI PUSH1 0x0 DUP1 REVERT JUMPDEST POP GAS CALL ISZERO DUP1 ISZERO PUSH2 0x2E1D JUMPI RETURNDATASIZE PUSH1 0x0 DUP1 RETURNDATACOPY RETURNDATASIZE PUSH1 0x0 REVERT JUMPDEST POP POP POP POP PUSH1 0x40 MLOAD RETURNDATASIZE PUSH1 0x1F NOT PUSH1 0x1F DUP3 ADD AND DUP3 ADD DUP1 PUSH1 0x40 MSTORE POP DUP2 ADD SWAP1 PUSH2 0x2E41 SWAP2 SWAP1 PUSH2 0x307C JUMP JUMPDEST POP PUSH1 0x8 SLOAD ISZERO PUSH2 0x2E53 JUMPI PUSH2 0x2E53 DUP3 PUSH2 0x1877 JUMP JUMPDEST SWAP2 SWAP1 POP JUMP JUMPDEST CALLER PUSH1 0x0 SWAP1 DUP2 MSTORE PUSH1 0x15 PUSH1 0x20 MSTORE PUSH1 0x40 DUP2 KECCAK256 SLOAD DUP2 SWAP1 DUP2 SWAP1 JUMPDEST PUSH2 0x2E77 PUSH1 0x4 PUSH2 0x1244 JUMP JUMPDEST SWAP3 POP PUSH2 0x2E83 PUSH1 0xD PUSH2 0x1244 JUMP JUMPDEST SWAP4 POP DUP4 PUSH2 0x2E91 DUP5 PUSH1 0xD PUSH2 0x33CA JUMP JUMPDEST PUSH2 0x2E9B SWAP2 SWAP1 PUSH2 0x339E JUMP JUMPDEST CALLER PUSH1 0x0 SWAP1 DUP2 MSTORE PUSH1 0x16 PUSH1 0x20 SWAP1 DUP2 MSTORE PUSH1 0x40 DUP1 DUP4 KECCAK256 DUP6 DUP5 MSTORE DUP3 MSTORE DUP1 DUP4 KECCAK256 DUP5 DUP5 MSTORE SWAP1 SWAP2 MSTORE SWAP1 KECCAK256 SLOAD SWAP1 SWAP3 POP PUSH1 0xFF AND PUSH2 0x2E6D JUMPI CALLER PUSH1 0x0 SWAP1 DUP2 MSTORE PUSH1 0x16 PUSH1 0x20 SWAP1 DUP2 MSTORE PUSH1 0x40 DUP1 DUP4 KECCAK256 SWAP4 DUP4 MSTORE SWAP3 DUP2 MSTORE DUP3 DUP3 KECCAK256 SWAP4 DUP3 MSTORE SWAP3 SWAP1 SWAP3 MSTORE SWAP1 KECCAK256 DUP1 SLOAD PUSH1 0xFF NOT AND PUSH1 0x1 OR SWAP1 SSTORE SWAP1 SWAP2 JUMP JUMPDEST PUSH1 0x0 PUSH1 0x20 DUP3 DUP5 SUB SLT ISZERO PUSH2 0x2F0D JUMPI PUSH1 0x0 DUP1 REVERT JUMPDEST DUP2 CALLDATALOAD PUSH2 0x1308 DUP2 PUSH2 0x3487 JUMP JUMPDEST PUSH1 0x0 PUSH1 0x20 DUP3 DUP5 SUB SLT ISZERO PUSH2 0x2F2A JUMPI PUSH1 0x0 DUP1 REVERT JUMPDEST DUP2 MLOAD PUSH2 0x1308 DUP2 PUSH2 0x3487 JUMP JUMPDEST PUSH1 0x0 DUP1 PUSH1 0x40 DUP4 DUP6 SUB SLT ISZERO PUSH2 0x2F48 JUMPI PUSH1 0x0 DUP1 REVERT JUMPDEST DUP3 CALLDATALOAD PUSH2 0x2F53 DUP2 PUSH2 0x3487 JUMP JUMPDEST SWAP2 POP PUSH1 0x20 DUP4 ADD CALLDATALOAD PUSH2 0x2F63 DUP2 PUSH2 0x349C JUMP JUMPDEST DUP1 SWAP2 POP POP SWAP3 POP SWAP3 SWAP1 POP JUMP JUMPDEST PUSH1 0x0 DUP1 PUSH1 0x40 DUP4 DUP6 SUB SLT ISZERO PUSH2 0x2F81 JUMPI PUSH1 0x0 DUP1 REVERT JUMPDEST DUP3 CALLDATALOAD PUSH2 0x2F8C DUP2 PUSH2 0x3487 JUMP JUMPDEST SWAP5 PUSH1 0x20 SWAP4 SWAP1 SWAP4 ADD CALLDATALOAD SWAP4 POP POP POP JUMP JUMPDEST PUSH1 0x0 PUSH1 0x20 DUP1 DUP4 DUP6 SUB SLT ISZERO PUSH2 0x2FAD JUMPI PUSH1 0x0 DUP1 REVERT JUMPDEST DUP3 CALLDATALOAD PUSH8 0xFFFFFFFFFFFFFFFF DUP1 DUP3 GT ISZERO PUSH2 0x2FC5 JUMPI PUSH1 0x0 DUP1 REVERT JUMPDEST DUP2 DUP6 ADD SWAP2 POP DUP6 PUSH1 0x1F DUP4 ADD SLT PUSH2 0x2FD9 JUMPI PUSH1 0x0 DUP1 REVERT JUMPDEST DUP2 CALLDATALOAD DUP2 DUP2 GT ISZERO PUSH2 0x2FEB JUMPI PUSH2 0x2FEB PUSH2 0x3471 JUMP JUMPDEST DUP1 PUSH1 0x5 SHL PUSH1 0x40 MLOAD PUSH1 0x1F NOT PUSH1 0x3F DUP4 ADD AND DUP2 ADD DUP2 DUP2 LT DUP6 DUP3 GT OR ISZERO PUSH2 0x3010 JUMPI PUSH2 0x3010 PUSH2 0x3471 JUMP JUMPDEST PUSH1 0x40 MSTORE DUP3 DUP2 MSTORE DUP6 DUP2 ADD SWAP4 POP DUP5 DUP7 ADD DUP3 DUP7 ADD DUP8 ADD DUP11 LT ISZERO PUSH2 0x302F JUMPI PUSH1 0x0 DUP1 REVERT JUMPDEST PUSH1 0x0 SWAP6 POP JUMPDEST DUP4 DUP7 LT ISZERO PUSH2 0x3052 JUMPI DUP1 CALLDATALOAD DUP6 MSTORE PUSH1 0x1 SWAP6 SWAP1 SWAP6 ADD SWAP5 SWAP4 DUP7 ADD SWAP4 DUP7 ADD PUSH2 0x3034 JUMP JUMPDEST POP SWAP9 SWAP8 POP POP POP POP POP POP POP POP JUMP JUMPDEST PUSH1 0x0 PUSH1 0x20 DUP3 DUP5 SUB SLT ISZERO PUSH2 0x3071 JUMPI PUSH1 0x0 DUP1 REVERT JUMPDEST DUP2 CALLDATALOAD PUSH2 0x1308 DUP2 PUSH2 0x349C JUMP JUMPDEST PUSH1 0x0 PUSH1 0x20 DUP3 DUP5 SUB SLT ISZERO PUSH2 0x308E JUMPI PUSH1 0x0 DUP1 REVERT JUMPDEST DUP2 MLOAD PUSH2 0x1308 DUP2 PUSH2 0x349C JUMP JUMPDEST PUSH1 0x0 PUSH1 0x20 DUP3 DUP5 SUB SLT ISZERO PUSH2 0x30AB JUMPI PUSH1 0x0 DUP1 REVERT JUMPDEST POP CALLDATALOAD SWAP2 SWAP1 POP JUMP JUMPDEST PUSH1 0x0 PUSH1 0x20 DUP3 DUP5 SUB SLT ISZERO PUSH2 0x30C4 JUMPI PUSH1 0x0 DUP1 REVERT JUMPDEST POP MLOAD SWAP2 SWAP1 POP JUMP JUMPDEST PUSH1 0x0 DUP1 PUSH1 0x0 PUSH1 0x60 DUP5 DUP7 SUB SLT ISZERO PUSH2 0x30E0 JUMPI PUSH1 0x0 DUP1 REVERT JUMPDEST DUP4 CALLDATALOAD SWAP3 POP PUSH1 0x20 DUP5 ADD CALLDATALOAD SWAP2 POP PUSH1 0x40 DUP5 ADD CALLDATALOAD PUSH2 0x30F9 DUP2 PUSH2 0x3487 JUMP JUMPDEST DUP1 SWAP2 POP POP SWAP3 POP SWAP3 POP SWAP3 JUMP JUMPDEST PUSH1 0x0 DUP1 PUSH1 0x0 PUSH1 0x60 DUP5 DUP7 SUB SLT ISZERO PUSH2 0x3119 JUMPI PUSH1 0x0 DUP1 REVERT JUMPDEST POP POP DUP2 CALLDATALOAD SWAP4 PUSH1 0x20 DUP4 ADD CALLDATALOAD SWAP4 POP PUSH1 0x40 SWAP1 SWAP3 ADD CALLDATALOAD SWAP2 SWAP1 POP JUMP JUMPDEST PUSH1 0x0 DUP1 PUSH1 0x0 DUP1 PUSH1 0x0 DUP1 PUSH1 0x0 PUSH1 0xE0 DUP9 DUP11 SUB SLT ISZERO PUSH2 0x314B JUMPI PUSH1 0x0 DUP1 REVERT JUMPDEST POP POP DUP6 CALLDATALOAD SWAP8 PUSH1 0x20 DUP8 ADD CALLDATALOAD SWAP8 POP PUSH1 0x40 DUP8 ADD CALLDATALOAD SWAP7 PUSH1 0x60 DUP2 ADD CALLDATALOAD SWAP7 POP PUSH1 0x80 DUP2 ADD CALLDATALOAD SWAP6 POP PUSH1 0xA0 DUP2 ADD CALLDATALOAD SWAP5 POP PUSH1 0xC0 ADD CALLDATALOAD SWAP3 POP SWAP1 POP JUMP JUMPDEST PUSH1 0x0 DUP2 MLOAD DUP1 DUP5 MSTORE PUSH1 0x20 DUP1 DUP6 ADD SWAP5 POP DUP1 DUP5 ADD PUSH1 0x0 JUMPDEST DUP4 DUP2 LT ISZERO PUSH2 0x31AC JUMPI DUP2 MLOAD DUP8 MSTORE SWAP6 DUP3 ADD SWAP6 SWAP1 DUP3 ADD SWAP1 PUSH1 0x1 ADD PUSH2 0x3190 JUMP JUMPDEST POP SWAP5 SWAP6 SWAP5 POP POP POP POP POP JUMP JUMPDEST PUSH1 0x0 DUP2 SLOAD DUP1 DUP5 MSTORE PUSH1 0x20 DUP1 DUP6 ADD SWAP5 POP DUP4 PUSH1 0x0 MSTORE DUP1 PUSH1 0x0 KECCAK256 PUSH1 0x0 JUMPDEST DUP4 DUP2 LT ISZERO PUSH2 0x31AC JUMPI DUP2 SLOAD DUP8 MSTORE SWAP6 DUP3 ADD SWAP6 PUSH1 0x1 SWAP2 DUP3 ADD SWAP2 ADD PUSH2 0x31D0 JUMP JUMPDEST PUSH1 0x1 PUSH1 0x1 PUSH1 0xA0 SHL SUB DUP12 AND DUP2 MSTORE PUSH2 0x140 PUSH1 0x20 DUP3 ADD DUP2 SWAP1 MSTORE PUSH1 0x0 SWAP1 PUSH2 0x3211 DUP4 DUP3 ADD DUP14 PUSH2 0x31B7 JUMP JUMPDEST SWAP1 POP DUP3 DUP2 SUB PUSH1 0x40 DUP5 ADD MSTORE PUSH2 0x3225 DUP2 DUP13 PUSH2 0x31B7 JUMP JUMPDEST SWAP1 POP DUP3 DUP2 SUB PUSH1 0x60 DUP5 ADD MSTORE PUSH2 0x3239 DUP2 DUP12 PUSH2 0x31B7 JUMP JUMPDEST SWAP1 POP DUP3 DUP2 SUB PUSH1 0x80 DUP5 ADD MSTORE PUSH2 0x324D DUP2 DUP11 PUSH2 0x31B7 JUMP JUMPDEST PUSH1 0xA0 DUP5 ADD SWAP9 SWAP1 SWAP9 MSTORE POP POP PUSH1 0xC0 DUP2 ADD SWAP5 SWAP1 SWAP5 MSTORE PUSH1 0xE0 DUP5 ADD SWAP3 SWAP1 SWAP3 MSTORE ISZERO ISZERO PUSH2 0x100 DUP4 ADD MSTORE ISZERO ISZERO PUSH2 0x120 SWAP1 SWAP2 ADD MSTORE SWAP6 SWAP5 POP POP POP POP POP JUMP JUMPDEST PUSH1 0x0 PUSH2 0x100 DUP1 DUP4 MSTORE PUSH2 0x3295 DUP2 DUP5 ADD DUP13 PUSH2 0x317C JUMP JUMPDEST SWAP1 POP DUP3 DUP2 SUB PUSH1 0x20 DUP5 ADD MSTORE PUSH2 0x32A9 DUP2 DUP12 PUSH2 0x317C JUMP JUMPDEST SWAP1 POP DUP3 DUP2 SUB PUSH1 0x40 DUP5 ADD MSTORE PUSH2 0x32BD DUP2 DUP11 PUSH2 0x317C JUMP JUMPDEST SWAP1 POP DUP3 DUP2 SUB PUSH1 0x60 DUP5 ADD MSTORE PUSH2 0x32D1 DUP2 DUP10 PUSH2 0x317C JUMP JUMPDEST SWAP2 POP POP DUP6 PUSH1 0x80 DUP4 ADD MSTORE DUP5 PUSH1 0xA0 DUP4 ADD MSTORE DUP4 PUSH1 0xC0 DUP4 ADD MSTORE DUP3 ISZERO ISZERO PUSH1 0xE0 DUP4 ADD MSTORE SWAP10 SWAP9 POP POP POP POP POP POP POP POP POP JUMP JUMPDEST PUSH1 0x20 DUP1 DUP3 MSTORE PUSH1 0x1A SWAP1 DUP3 ADD MSTORE PUSH32 0x53746172744E657747616D6520746F20706C617920616761696E000000000000 PUSH1 0x40 DUP3 ADD MSTORE PUSH1 0x60 ADD SWAP1 JUMP JUMPDEST PUSH1 0x20 DUP1 DUP3 MSTORE PUSH1 0x10 SWAP1 DUP3 ADD MSTORE PUSH16 0x19D85B595CC8185C99481C185D5CD959 PUSH1 0x82 SHL PUSH1 0x40 DUP3 ADD MSTORE PUSH1 0x60 ADD SWAP1 JUMP JUMPDEST PUSH1 0x20 DUP1 DUP3 MSTORE PUSH1 0x22 SWAP1 DUP3 ADD MSTORE PUSH32 0x796F7520617265206E6F7420612067616D6520636F6E747261637420666F7220 PUSH1 0x40 DUP3 ADD MSTORE PUSH2 0x4647 PUSH1 0xF0 SHL PUSH1 0x60 DUP3 ADD MSTORE PUSH1 0x80 ADD SWAP1 JUMP JUMPDEST PUSH1 0x0 DUP3 NOT DUP3 GT ISZERO PUSH2 0x33B1 JUMPI PUSH2 0x33B1 PUSH2 0x342F JUMP JUMPDEST POP ADD SWAP1 JUMP JUMPDEST PUSH1 0x0 DUP3 PUSH2 0x33C5 JUMPI PUSH2 0x33C5 PUSH2 0x3445 JUMP JUMPDEST POP DIV SWAP1 JUMP JUMPDEST PUSH1 0x0 DUP2 PUSH1 0x0 NOT DIV DUP4 GT DUP3 ISZERO ISZERO AND ISZERO PUSH2 0x33E4 JUMPI PUSH2 0x33E4 PUSH2 0x342F JUMP JUMPDEST POP MUL SWAP1 JUMP JUMPDEST PUSH1 0x0 DUP3 DUP3 LT ISZERO PUSH2 0x33FB JUMPI PUSH2 0x33FB PUSH2 0x342F JUMP JUMPDEST POP SUB SWAP1 JUMP JUMPDEST PUSH1 0x0 PUSH1 0x0 NOT DUP3 EQ ISZERO PUSH2 0x3414 JUMPI PUSH2 0x3414 PUSH2 0x342F JUMP JUMPDEST POP PUSH1 0x1 ADD SWAP1 JUMP JUMPDEST PUSH1 0x0 DUP3 PUSH2 0x342A JUMPI PUSH2 0x342A PUSH2 0x3445 JUMP JUMPDEST POP MOD SWAP1 JUMP JUMPDEST PUSH4 0x4E487B71 PUSH1 0xE0 SHL PUSH1 0x0 MSTORE PUSH1 0x11 PUSH1 0x4 MSTORE PUSH1 0x24 PUSH1 0x0 REVERT JUMPDEST PUSH4 0x4E487B71 PUSH1 0xE0 SHL PUSH1 0x0 MSTORE PUSH1 0x12 PUSH1 0x4 MSTORE PUSH1 0x24 PUSH1 0x0 REVERT JUMPDEST PUSH4 0x4E487B71 PUSH1 0xE0 SHL PUSH1 0x0 MSTORE PUSH1 0x32 PUSH1 0x4 MSTORE PUSH1 0x24 PUSH1 0x0 REVERT JUMPDEST PUSH4 0x4E487B71 PUSH1 0xE0 SHL PUSH1 0x0 MSTORE PUSH1 0x41 PUSH1 0x4 MSTORE PUSH1 0x24 PUSH1 0x0 REVERT JUMPDEST PUSH1 0x1 PUSH1 0x1 PUSH1 0xA0 SHL SUB DUP2 AND DUP2 EQ PUSH2 0x22B2 JUMPI PUSH1 0x0 DUP1 REVERT JUMPDEST DUP1 ISZERO ISZERO DUP2 EQ PUSH2 0x22B2 JUMPI PUSH1 0x0 DUP1 REVERT INVALID LOG2 PUSH5 0x6970667358 0x22 SLT KECCAK256 0xE8 CREATE 0x4F 0xFB DUP3 SWAP10 LOG3 MSTORE 0x5F 0xC3 0x2B SAR 0x4E BYTE 0xD7 0x4C BLOCKHASH LOG1 CALLDATACOPY 0xCE NOT EXTCODECOPY COINBASE PUSH21 0x429147E393C9184264736F6C634300080700330000 "
		},
		"gasEstimates": {
			"creation": {
				"codeDepositCost": "2707200",
				"executionCost": "infinite",
				"totalCost": "infinite"
			},
			"external": {
				"BNBTreasury()": "infinite",
				"BNBfee()": "2351",
				"BetHeads(uint256)": "infinite",
				"BetTails(uint256)": "infinite",
				"FeeDivisor()": "2417",
				"amountToSendAt()": "2353",
				"blackJackHitMe()": "infinite",
				"blackJackHold()": "infinite",
				"blackJackUser(address)": "infinite",
				"checkIfBust(uint256[])": "infinite",
				"cutTheDeck(uint256)": "infinite",
				"cutTheDeckQuick()": "infinite",
				"diceCall(uint256,uint256,uint256)": "infinite",
				"feesCollected()": "2395",
				"gameToken()": "2449",
				"highCard(address)": "15561",
				"highCardGuess(bool)": "infinite",
				"highCardTakeMoney()": "infinite",
				"isGame(address)": "2592",
				"isPaused()": "2444",
				"marsFactory()": "2428",
				"maxBetAllowed()": "infinite",
				"maxBetDivisor()": "2352",
				"multipliers()": "15108",
				"owner()": "2444",
				"pauseGames(bool)": "26755",
				"payOutDivisor()": "2353",
				"potAmount()": "infinite",
				"quickBetAmount()": "2351",
				"quickBetHeads()": "infinite",
				"quickBetTails()": "infinite",
				"renounceOwnership()": "infinite",
				"rng(uint256)": "infinite",
				"sendFeesGame(uint256)": "infinite",
				"sendIsWinnerGame(uint256,uint256,address)": "infinite",
				"sendIsWinnerPrePaidGame(uint256,uint256,address)": "infinite",
				"setAmountToSendAt(uint256)": "24645",
				"setCostBNB(uint256)": "24600",
				"setFeeDivisor(uint256)": "24561",
				"setGameMultipliers(uint256,uint256,uint256,uint256,uint256,uint256,uint256)": "157321",
				"setGameToken(address)": "26840",
				"setMaxBetDivisor(uint256)": "24601",
				"setNewGame(address,bool)": "infinite",
				"setPayOutDivisor(uint256)": "24616",
				"setQuickBetAmount(uint256)": "24577",
				"setRNG(address)": "26819",
				"setTokenTreasury(address)": "26819",
				"startBlackJack(uint256)": "infinite",
				"startHighCard(uint256)": "infinite",
				"stateCallMain()": "infinite",
				"tokenTreasury()": "2450",
				"transferOwnership(address)": "infinite",
				"withdrawBNB()": "infinite",
				"withdrawlAllGameToken()": "infinite",
				"withdrawlToken(address,uint256)": "infinite"
			},
			"internal": {
				"checkReqs(uint256)": "infinite",
				"drawACardBJ()": "infinite",
				"drawACardCTD()": "infinite",
				"drawACardHC()": "infinite",
				"flipTheCoin(uint256,bool)": "infinite",
				"sendFees(uint256)": "infinite",
				"sendIsLoser(uint256)": "infinite",
				"sendIsWinner(uint256,uint256)": "infinite",
				"sendIsWinnerPrePaid(uint256,uint256)": "infinite"
			}
		},
		"methodIdentifiers": {
			"BNBTreasury()": "41b0c25b",
			"BNBfee()": "e62fefc4",
			"BetHeads(uint256)": "42ff8e44",
			"BetTails(uint256)": "d8f23f2e",
			"FeeDivisor()": "820b581a",
			"amountToSendAt()": "187e6f89",
			"blackJackHitMe()": "f9e154ee",
			"blackJackHold()": "5eaaa90c",
			"blackJackUser(address)": "3e625844",
			"checkIfBust(uint256[])": "8c5afb5a",
			"cutTheDeck(uint256)": "ce5d4c5e",
			"cutTheDeckQuick()": "7df48f2c",
			"diceCall(uint256,uint256,uint256)": "c8b54a4e",
			"feesCollected()": "f071db5a",
			"gameToken()": "c3dfdae6",
			"highCard(address)": "5a77800c",
			"highCardGuess(bool)": "fa68708a",
			"highCardTakeMoney()": "f0900ca4",
			"isGame(address)": "c626c52e",
			"isPaused()": "b187bd26",
			"marsFactory()": "31094301",
			"maxBetAllowed()": "e8f7d35d",
			"maxBetDivisor()": "39849771",
			"multipliers()": "9d7d6667",
			"owner()": "8da5cb5b",
			"pauseGames(bool)": "4da92800",
			"payOutDivisor()": "832ef347",
			"potAmount()": "4628df65",
			"quickBetAmount()": "7c54d20c",
			"quickBetHeads()": "f6e674ef",
			"quickBetTails()": "b69473b3",
			"renounceOwnership()": "715018a6",
			"rng(uint256)": "53f836db",
			"sendFeesGame(uint256)": "9fb4620d",
			"sendIsWinnerGame(uint256,uint256,address)": "7a1d2db5",
			"sendIsWinnerPrePaidGame(uint256,uint256,address)": "fc95e4ab",
			"setAmountToSendAt(uint256)": "29ceb418",
			"setCostBNB(uint256)": "3b8d3c56",
			"setFeeDivisor(uint256)": "043531b1",
			"setGameMultipliers(uint256,uint256,uint256,uint256,uint256,uint256,uint256)": "97e4b05e",
			"setGameToken(address)": "80d29e66",
			"setMaxBetDivisor(uint256)": "21154ec5",
			"setNewGame(address,bool)": "f5d7bd7f",
			"setPayOutDivisor(uint256)": "ce9fa82d",
			"setQuickBetAmount(uint256)": "f4a63bd8",
			"setRNG(address)": "3b84edbd",
			"setTokenTreasury(address)": "b7189dda",
			"startBlackJack(uint256)": "d24b22e1",
			"startHighCard(uint256)": "283dd0cb",
			"stateCallMain()": "768367c4",
			"tokenTreasury()": "342eb7cc",
			"transferOwnership(address)": "f2fde38b",
			"withdrawBNB()": "1d111d13",
			"withdrawlAllGameToken()": "c9b1c1fa",
			"withdrawlToken(address,uint256)": "2c1ef96a"
		}
	},
	"abi": [
		{
			"inputs": [
				{
					"internalType": "address",
					"name": "_gameToken",
					"type": "address"
				},
				{
					"internalType": "address",
					"name": "_tokenTreasury",
					"type": "address"
				},
				{
					"internalType": "address",
					"name": "_marsFactory",
					"type": "address"
				},
				{
					"internalType": "address",
					"name": "_rng",
					"type": "address"
				}
			],
			"stateMutability": "nonpayable",
			"type": "constructor"
		},
		{
			"anonymous": false,
			"inputs": [
				{
					"indexed": false,
					"internalType": "address",
					"name": "player",
					"type": "address"
				},
				{
					"indexed": false,
					"internalType": "uint256[]",
					"name": "playersSuits",
					"type": "uint256[]"
				},
				{
					"indexed": false,
					"internalType": "uint256[]",
					"name": "playersNumbers",
					"type": "uint256[]"
				},
				{
					"indexed": false,
					"internalType": "uint256[]",
					"name": "Dsuit",
					"type": "uint256[]"
				},
				{
					"indexed": false,
					"internalType": "uint256[]",
					"name": "Dnumber",
					"type": "uint256[]"
				},
				{
					"indexed": false,
					"internalType": "uint256",
					"name": "betAmount",
					"type": "uint256"
				},
				{
					"indexed": false,
					"internalType": "uint256",
					"name": "total",
					"type": "uint256"
				},
				{
					"indexed": false,
					"internalType": "uint256",
					"name": "Dtotal",
					"type": "uint256"
				},
				{
					"indexed": false,
					"internalType": "bool",
					"name": "bust",
					"type": "bool"
				},
				{
					"indexed": false,
					"internalType": "bool",
					"name": "isWinner",
					"type": "bool"
				}
			],
			"name": "BlackJackGame",
			"type": "event"
		},
		{
			"anonymous": false,
			"inputs": [
				{
					"indexed": false,
					"internalType": "address",
					"name": "player",
					"type": "address"
				},
				{
					"indexed": false,
					"internalType": "uint256",
					"name": "suit",
					"type": "uint256"
				},
				{
					"indexed": false,
					"internalType": "uint256",
					"name": "number",
					"type": "uint256"
				},
				{
					"indexed": false,
					"internalType": "uint256",
					"name": "bet",
					"type": "uint256"
				}
			],
			"name": "HighCardFirst",
			"type": "event"
		},
		{
			"anonymous": false,
			"inputs": [
				{
					"indexed": false,
					"internalType": "address",
					"name": "player",
					"type": "address"
				},
				{
					"indexed": false,
					"internalType": "uint256",
					"name": "LastCardSuit",
					"type": "uint256"
				},
				{
					"indexed": false,
					"internalType": "uint256",
					"name": "LastCardNumber",
					"type": "uint256"
				},
				{
					"indexed": false,
					"internalType": "uint256",
					"name": "newCardSuit",
					"type": "uint256"
				},
				{
					"indexed": false,
					"internalType": "uint256",
					"name": "newCardNumber",
					"type": "uint256"
				},
				{
					"indexed": false,
					"internalType": "bool",
					"name": "isWinner",
					"type": "bool"
				},
				{
					"indexed": false,
					"internalType": "uint256",
					"name": "winnings",
					"type": "uint256"
				},
				{
					"indexed": false,
					"internalType": "bool",
					"name": "isJackpot",
					"type": "bool"
				},
				{
					"indexed": false,
					"internalType": "uint256",
					"name": "currentBet",
					"type": "uint256"
				}
			],
			"name": "HighCardGuess",
			"type": "event"
		},
		{
			"anonymous": false,
			"inputs": [
				{
					"indexed": false,
					"internalType": "address",
					"name": "player",
					"type": "address"
				},
				{
					"indexed": false,
					"internalType": "uint256",
					"name": "amount",
					"type": "uint256"
				}
			],
			"name": "HighCardTakeMoney",
			"type": "event"
		},
		{
			"anonymous": false,
			"inputs": [
				{
					"indexed": true,
					"internalType": "address",
					"name": "previousOwner",
					"type": "address"
				},
				{
					"indexed": true,
					"internalType": "address",
					"name": "newOwner",
					"type": "address"
				}
			],
			"name": "OwnershipTransferred",
			"type": "event"
		},
		{
			"anonymous": false,
			"inputs": [
				{
					"indexed": false,
					"internalType": "address",
					"name": "player",
					"type": "address"
				},
				{
					"indexed": false,
					"internalType": "uint256",
					"name": "houseCard",
					"type": "uint256"
				},
				{
					"indexed": false,
					"internalType": "uint256",
					"name": "houseSuit",
					"type": "uint256"
				},
				{
					"indexed": false,
					"internalType": "uint256",
					"name": "playerCard",
					"type": "uint256"
				},
				{
					"indexed": false,
					"internalType": "uint256",
					"name": "playerSuit",
					"type": "uint256"
				},
				{
					"indexed": false,
					"internalType": "uint256",
					"name": "result",
					"type": "uint256"
				},
				{
					"indexed": false,
					"internalType": "uint256",
					"name": "amount",
					"type": "uint256"
				}
			],
			"name": "cutTheDeckResults",
			"type": "event"
		},
		{
			"anonymous": false,
			"inputs": [
				{
					"indexed": false,
					"internalType": "address",
					"name": "player",
					"type": "address"
				},
				{
					"indexed": false,
					"internalType": "uint256",
					"name": "houseRoll",
					"type": "uint256"
				},
				{
					"indexed": false,
					"internalType": "uint256",
					"name": "playerChoice",
					"type": "uint256"
				},
				{
					"indexed": false,
					"internalType": "uint256",
					"name": "diceSize",
					"type": "uint256"
				},
				{
					"indexed": false,
					"internalType": "bool",
					"name": "isWinner",
					"type": "bool"
				},
				{
					"indexed": false,
					"internalType": "uint256",
					"name": "amount",
					"type": "uint256"
				}
			],
			"name": "diceCallResults",
			"type": "event"
		},
		{
			"anonymous": false,
			"inputs": [
				{
					"indexed": false,
					"internalType": "address",
					"name": "player",
					"type": "address"
				},
				{
					"indexed": false,
					"internalType": "bool",
					"name": "win",
					"type": "bool"
				},
				{
					"indexed": false,
					"internalType": "uint256",
					"name": "amount",
					"type": "uint256"
				},
				{
					"indexed": false,
					"internalType": "bool",
					"name": "isHeads",
					"type": "bool"
				}
			],
			"name": "results",
			"type": "event"
		},
		{
			"inputs": [],
			"name": "BNBTreasury",
			"outputs": [
				{
					"internalType": "address",
					"name": "",
					"type": "address"
				}
			],
			"stateMutability": "view",
			"type": "function"
		},
		{
			"inputs": [],
			"name": "BNBfee",
			"outputs": [
				{
					"internalType": "uint256",
					"name": "",
					"type": "uint256"
				}
			],
			"stateMutability": "view",
			"type": "function"
		},
		{
			"inputs": [
				{
					"internalType": "uint256",
					"name": "amount",
					"type": "uint256"
				}
			],
			"name": "BetHeads",
			"outputs": [
				{
					"internalType": "bool",
					"name": "isHeads",
					"type": "bool"
				},
				{
					"internalType": "bool",
					"name": "isWinner",
					"type": "bool"
				}
			],
			"stateMutability": "payable",
			"type": "function"
		},
		{
			"inputs": [
				{
					"internalType": "uint256",
					"name": "amount",
					"type": "uint256"
				}
			],
			"name": "BetTails",
			"outputs": [
				{
					"internalType": "bool",
					"name": "isHeads",
					"type": "bool"
				},
				{
					"internalType": "bool",
					"name": "isWinner",
					"type": "bool"
				}
			],
			"stateMutability": "payable",
			"type": "function"
		},
		{
			"inputs": [],
			"name": "FeeDivisor",
			"outputs": [
				{
					"internalType": "uint256",
					"name": "",
					"type": "uint256"
				}
			],
			"stateMutability": "view",
			"type": "function"
		},
		{
			"inputs": [],
			"name": "amountToSendAt",
			"outputs": [
				{
					"internalType": "uint256",
					"name": "",
					"type": "uint256"
				}
			],
			"stateMutability": "view",
			"type": "function"
		},
		{
			"inputs": [],
			"name": "blackJackHitMe",
			"outputs": [],
			"stateMutability": "nonpayable",
			"type": "function"
		},
		{
			"inputs": [],
			"name": "blackJackHold",
			"outputs": [],
			"stateMutability": "nonpayable",
			"type": "function"
		},
		{
			"inputs": [
				{
					"internalType": "address",
					"name": "_user",
					"type": "address"
				}
			],
			"name": "blackJackUser",
			"outputs": [
				{
					"internalType": "uint256[]",
					"name": "_playerSuits",
					"type": "uint256[]"
				},
				{
					"internalType": "uint256[]",
					"name": "_playerNumbers",
					"type": "uint256[]"
				},
				{
					"internalType": "uint256[]",
					"name": "_houseSuits",
					"type": "uint256[]"
				},
				{
					"internalType": "uint256[]",
					"name": "_houseNumbers",
					"type": "uint256[]"
				},
				{
					"internalType": "uint256",
					"name": "_currentBet",
					"type": "uint256"
				},
				{
					"internalType": "uint256",
					"name": "_total",
					"type": "uint256"
				},
				{
					"internalType": "uint256",
					"name": "_Dtotal",
					"type": "uint256"
				},
				{
					"internalType": "bool",
					"name": "_gameStarted",
					"type": "bool"
				}
			],
			"stateMutability": "view",
			"type": "function"
		},
		{
			"inputs": [
				{
					"internalType": "uint256[]",
					"name": "numbers",
					"type": "uint256[]"
				}
			],
			"name": "checkIfBust",
			"outputs": [
				{
					"internalType": "bool",
					"name": "bust",
					"type": "bool"
				},
				{
					"internalType": "uint256",
					"name": "total",
					"type": "uint256"
				}
			],
			"stateMutability": "pure",
			"type": "function"
		},
		{
			"inputs": [
				{
					"internalType": "uint256",
					"name": "_betAmount",
					"type": "uint256"
				}
			],
			"name": "cutTheDeck",
			"outputs": [
				{
					"internalType": "uint256",
					"name": "houseCard",
					"type": "uint256"
				},
				{
					"internalType": "uint256",
					"name": "houseSuit",
					"type": "uint256"
				},
				{
					"internalType": "uint256",
					"name": "playerCard",
					"type": "uint256"
				},
				{
					"internalType": "uint256",
					"name": "playerSuit",
					"type": "uint256"
				},
				{
					"internalType": "uint256",
					"name": "result",
					"type": "uint256"
				}
			],
			"stateMutability": "payable",
			"type": "function"
		},
		{
			"inputs": [],
			"name": "cutTheDeckQuick",
			"outputs": [
				{
					"internalType": "uint256",
					"name": "houseCard",
					"type": "uint256"
				},
				{
					"internalType": "uint256",
					"name": "houseSuit",
					"type": "uint256"
				},
				{
					"internalType": "uint256",
					"name": "playerCard",
					"type": "uint256"
				},
				{
					"internalType": "uint256",
					"name": "playerSuit",
					"type": "uint256"
				},
				{
					"internalType": "uint256",
					"name": "result",
					"type": "uint256"
				}
			],
			"stateMutability": "payable",
			"type": "function"
		},
		{
			"inputs": [
				{
					"internalType": "uint256",
					"name": "_betAmount",
					"type": "uint256"
				},
				{
					"internalType": "uint256",
					"name": "choice",
					"type": "uint256"
				},
				{
					"internalType": "uint256",
					"name": "diceChoice",
					"type": "uint256"
				}
			],
			"name": "diceCall",
			"outputs": [
				{
					"internalType": "uint256",
					"name": "houseRoll",
					"type": "uint256"
				},
				{
					"internalType": "uint256",
					"name": "playerChoice",
					"type": "uint256"
				},
				{
					"internalType": "uint256",
					"name": "diceSize",
					"type": "uint256"
				},
				{
					"internalType": "bool",
					"name": "isWinner",
					"type": "bool"
				}
			],
			"stateMutability": "payable",
			"type": "function"
		},
		{
			"inputs": [],
			"name": "feesCollected",
			"outputs": [
				{
					"internalType": "uint256",
					"name": "",
					"type": "uint256"
				}
			],
			"stateMutability": "view",
			"type": "function"
		},
		{
			"inputs": [],
			"name": "gameToken",
			"outputs": [
				{
					"internalType": "address",
					"name": "",
					"type": "address"
				}
			],
			"stateMutability": "view",
			"type": "function"
		},
		{
			"inputs": [
				{
					"internalType": "address",
					"name": "_user",
					"type": "address"
				}
			],
			"name": "highCard",
			"outputs": [
				{
					"internalType": "uint256",
					"name": "currentCardSuit",
					"type": "uint256"
				},
				{
					"internalType": "uint256",
					"name": "currentCardNumber",
					"type": "uint256"
				},
				{
					"internalType": "uint256",
					"name": "currentBet",
					"type": "uint256"
				},
				{
					"internalType": "uint256",
					"name": "multiplier",
					"type": "uint256"
				},
				{
					"internalType": "uint256",
					"name": "winnings",
					"type": "uint256"
				},
				{
					"internalType": "bool",
					"name": "gameStarted",
					"type": "bool"
				}
			],
			"stateMutability": "view",
			"type": "function"
		},
		{
			"inputs": [
				{
					"internalType": "bool",
					"name": "guessHigh",
					"type": "bool"
				}
			],
			"name": "highCardGuess",
			"outputs": [
				{
					"internalType": "bool",
					"name": "resultHigh",
					"type": "bool"
				},
				{
					"internalType": "uint256",
					"name": "LastCardSuit",
					"type": "uint256"
				},
				{
					"internalType": "uint256",
					"name": "LastCardNumber",
					"type": "uint256"
				},
				{
					"internalType": "uint256",
					"name": "newCardSuit",
					"type": "uint256"
				},
				{
					"internalType": "uint256",
					"name": "newCardNumber",
					"type": "uint256"
				},
				{
					"internalType": "bool",
					"name": "isWinner",
					"type": "bool"
				},
				{
					"internalType": "bool",
					"name": "isJackpot",
					"type": "bool"
				},
				{
					"internalType": "uint256",
					"name": "winnings",
					"type": "uint256"
				}
			],
			"stateMutability": "nonpayable",
			"type": "function"
		},
		{
			"inputs": [],
			"name": "highCardTakeMoney",
			"outputs": [
				{
					"internalType": "uint256",
					"name": "amount",
					"type": "uint256"
				}
			],
			"stateMutability": "nonpayable",
			"type": "function"
		},
		{
			"inputs": [
				{
					"internalType": "address",
					"name": "",
					"type": "address"
				}
			],
			"name": "isGame",
			"outputs": [
				{
					"internalType": "bool",
					"name": "",
					"type": "bool"
				}
			],
			"stateMutability": "view",
			"type": "function"
		},
		{
			"inputs": [],
			"name": "isPaused",
			"outputs": [
				{
					"internalType": "bool",
					"name": "",
					"type": "bool"
				}
			],
			"stateMutability": "view",
			"type": "function"
		},
		{
			"inputs": [],
			"name": "marsFactory",
			"outputs": [
				{
					"internalType": "address",
					"name": "",
					"type": "address"
				}
			],
			"stateMutability": "view",
			"type": "function"
		},
		{
			"inputs": [],
			"name": "maxBetAllowed",
			"outputs": [
				{
					"internalType": "uint256",
					"name": "",
					"type": "uint256"
				}
			],
			"stateMutability": "view",
			"type": "function"
		},
		{
			"inputs": [],
			"name": "maxBetDivisor",
			"outputs": [
				{
					"internalType": "uint256",
					"name": "",
					"type": "uint256"
				}
			],
			"stateMutability": "view",
			"type": "function"
		},
		{
			"inputs": [],
			"name": "multipliers",
			"outputs": [
				{
					"internalType": "uint256",
					"name": "_coinFlipM",
					"type": "uint256"
				},
				{
					"internalType": "uint256",
					"name": "_deckCutM",
					"type": "uint256"
				},
				{
					"internalType": "uint256",
					"name": "_diceCall6M",
					"type": "uint256"
				},
				{
					"internalType": "uint256",
					"name": "_diceCall12M",
					"type": "uint256"
				},
				{
					"internalType": "uint256",
					"name": "_diceCall20M",
					"type": "uint256"
				},
				{
					"internalType": "uint256",
					"name": "_highCardStart",
					"type": "uint256"
				},
				{
					"internalType": "uint256",
					"name": "_blackJackM",
					"type": "uint256"
				}
			],
			"stateMutability": "view",
			"type": "function"
		},
		{
			"inputs": [],
			"name": "owner",
			"outputs": [
				{
					"internalType": "address",
					"name": "",
					"type": "address"
				}
			],
			"stateMutability": "view",
			"type": "function"
		},
		{
			"inputs": [
				{
					"internalType": "bool",
					"name": "_isPaused",
					"type": "bool"
				}
			],
			"name": "pauseGames",
			"outputs": [],
			"stateMutability": "nonpayable",
			"type": "function"
		},
		{
			"inputs": [],
			"name": "payOutDivisor",
			"outputs": [
				{
					"internalType": "uint256",
					"name": "",
					"type": "uint256"
				}
			],
			"stateMutability": "view",
			"type": "function"
		},
		{
			"inputs": [],
			"name": "potAmount",
			"outputs": [
				{
					"internalType": "uint256",
					"name": "",
					"type": "uint256"
				}
			],
			"stateMutability": "view",
			"type": "function"
		},
		{
			"inputs": [],
			"name": "quickBetAmount",
			"outputs": [
				{
					"internalType": "uint256",
					"name": "",
					"type": "uint256"
				}
			],
			"stateMutability": "view",
			"type": "function"
		},
		{
			"inputs": [],
			"name": "quickBetHeads",
			"outputs": [
				{
					"internalType": "bool",
					"name": "isHeads",
					"type": "bool"
				},
				{
					"internalType": "bool",
					"name": "isWinner",
					"type": "bool"
				}
			],
			"stateMutability": "payable",
			"type": "function"
		},
		{
			"inputs": [],
			"name": "quickBetTails",
			"outputs": [
				{
					"internalType": "bool",
					"name": "isHeads",
					"type": "bool"
				},
				{
					"internalType": "bool",
					"name": "isWinner",
					"type": "bool"
				}
			],
			"stateMutability": "payable",
			"type": "function"
		},
		{
			"inputs": [],
			"name": "renounceOwnership",
			"outputs": [],
			"stateMutability": "nonpayable",
			"type": "function"
		},
		{
			"inputs": [
				{
					"internalType": "uint256",
					"name": "mod",
					"type": "uint256"
				}
			],
			"name": "rng",
			"outputs": [
				{
					"internalType": "uint256",
					"name": "value",
					"type": "uint256"
				}
			],
			"stateMutability": "nonpayable",
			"type": "function"
		},
		{
			"inputs": [
				{
					"internalType": "uint256",
					"name": "amount",
					"type": "uint256"
				}
			],
			"name": "sendFeesGame",
			"outputs": [],
			"stateMutability": "nonpayable",
			"type": "function"
		},
		{
			"inputs": [
				{
					"internalType": "uint256",
					"name": "amount",
					"type": "uint256"
				},
				{
					"internalType": "uint256",
					"name": "multiplier",
					"type": "uint256"
				},
				{
					"internalType": "address",
					"name": "_user",
					"type": "address"
				}
			],
			"name": "sendIsWinnerGame",
			"outputs": [
				{
					"internalType": "uint256",
					"name": "payOut",
					"type": "uint256"
				}
			],
			"stateMutability": "nonpayable",
			"type": "function"
		},
		{
			"inputs": [
				{
					"internalType": "uint256",
					"name": "amount",
					"type": "uint256"
				},
				{
					"internalType": "uint256",
					"name": "multiplier",
					"type": "uint256"
				},
				{
					"internalType": "address",
					"name": "_user",
					"type": "address"
				}
			],
			"name": "sendIsWinnerPrePaidGame",
			"outputs": [
				{
					"internalType": "uint256",
					"name": "winnings",
					"type": "uint256"
				}
			],
			"stateMutability": "nonpayable",
			"type": "function"
		},
		{
			"inputs": [
				{
					"internalType": "uint256",
					"name": "amount",
					"type": "uint256"
				}
			],
			"name": "setAmountToSendAt",
			"outputs": [],
			"stateMutability": "nonpayable",
			"type": "function"
		},
		{
			"inputs": [
				{
					"internalType": "uint256",
					"name": "_newCost",
					"type": "uint256"
				}
			],
			"name": "setCostBNB",
			"outputs": [],
			"stateMutability": "nonpayable",
			"type": "function"
		},
		{
			"inputs": [
				{
					"internalType": "uint256",
					"name": "newDivisor",
					"type": "uint256"
				}
			],
			"name": "setFeeDivisor",
			"outputs": [],
			"stateMutability": "nonpayable",
			"type": "function"
		},
		{
			"inputs": [
				{
					"internalType": "uint256",
					"name": "_coinFlipM",
					"type": "uint256"
				},
				{
					"internalType": "uint256",
					"name": "_deckCutM",
					"type": "uint256"
				},
				{
					"internalType": "uint256",
					"name": "_diceCall6M",
					"type": "uint256"
				},
				{
					"internalType": "uint256",
					"name": "_diceCall12M",
					"type": "uint256"
				},
				{
					"internalType": "uint256",
					"name": "_diceCall20M",
					"type": "uint256"
				},
				{
					"internalType": "uint256",
					"name": "_highCardStart",
					"type": "uint256"
				},
				{
					"internalType": "uint256",
					"name": "_blackJackM",
					"type": "uint256"
				}
			],
			"name": "setGameMultipliers",
			"outputs": [],
			"stateMutability": "nonpayable",
			"type": "function"
		},
		{
			"inputs": [
				{
					"internalType": "address",
					"name": "_token",
					"type": "address"
				}
			],
			"name": "setGameToken",
			"outputs": [],
			"stateMutability": "nonpayable",
			"type": "function"
		},
		{
			"inputs": [
				{
					"internalType": "uint256",
					"name": "amount",
					"type": "uint256"
				}
			],
			"name": "setMaxBetDivisor",
			"outputs": [],
			"stateMutability": "nonpayable",
			"type": "function"
		},
		{
			"inputs": [
				{
					"internalType": "address",
					"name": "newGame",
					"type": "address"
				},
				{
					"internalType": "bool",
					"name": "isActive",
					"type": "bool"
				}
			],
			"name": "setNewGame",
			"outputs": [],
			"stateMutability": "nonpayable",
			"type": "function"
		},
		{
			"inputs": [
				{
					"internalType": "uint256",
					"name": "newPayOutDivisor",
					"type": "uint256"
				}
			],
			"name": "setPayOutDivisor",
			"outputs": [],
			"stateMutability": "nonpayable",
			"type": "function"
		},
		{
			"inputs": [
				{
					"internalType": "uint256",
					"name": "amount",
					"type": "uint256"
				}
			],
			"name": "setQuickBetAmount",
			"outputs": [],
			"stateMutability": "nonpayable",
			"type": "function"
		},
		{
			"inputs": [
				{
					"internalType": "address",
					"name": "newRNG",
					"type": "address"
				}
			],
			"name": "setRNG",
			"outputs": [],
			"stateMutability": "nonpayable",
			"type": "function"
		},
		{
			"inputs": [
				{
					"internalType": "address",
					"name": "newTokenTreasury",
					"type": "address"
				}
			],
			"name": "setTokenTreasury",
			"outputs": [],
			"stateMutability": "nonpayable",
			"type": "function"
		},
		{
			"inputs": [
				{
					"internalType": "uint256",
					"name": "_betAmount",
					"type": "uint256"
				}
			],
			"name": "startBlackJack",
			"outputs": [],
			"stateMutability": "payable",
			"type": "function"
		},
		{
			"inputs": [
				{
					"internalType": "uint256",
					"name": "_betAmount",
					"type": "uint256"
				}
			],
			"name": "startHighCard",
			"outputs": [
				{
					"internalType": "uint256",
					"name": "currentCardSuit",
					"type": "uint256"
				},
				{
					"internalType": "uint256",
					"name": "currentCardNumber",
					"type": "uint256"
				}
			],
			"stateMutability": "payable",
			"type": "function"
		},
		{
			"inputs": [],
			"name": "stateCallMain",
			"outputs": [
				{
					"internalType": "uint256",
					"name": "_maxBetAllowed",
					"type": "uint256"
				},
				{
					"internalType": "uint256",
					"name": "_quickBetAmount",
					"type": "uint256"
				},
				{
					"internalType": "uint256",
					"name": "_payOutDivisor",
					"type": "uint256"
				},
				{
					"internalType": "uint256",
					"name": "_potAmount",
					"type": "uint256"
				},
				{
					"internalType": "uint256",
					"name": "_bnbFee",
					"type": "uint256"
				}
			],
			"stateMutability": "view",
			"type": "function"
		},
		{
			"inputs": [],
			"name": "tokenTreasury",
			"outputs": [
				{
					"internalType": "address",
					"name": "",
					"type": "address"
				}
			],
			"stateMutability": "view",
			"type": "function"
		},
		{
			"inputs": [
				{
					"internalType": "address",
					"name": "newOwner",
					"type": "address"
				}
			],
			"name": "transferOwnership",
			"outputs": [],
			"stateMutability": "nonpayable",
			"type": "function"
		},
		{
			"inputs": [],
			"name": "withdrawBNB",
			"outputs": [],
			"stateMutability": "nonpayable",
			"type": "function"
		},
		{
			"inputs": [],
			"name": "withdrawlAllGameToken",
			"outputs": [],
			"stateMutability": "nonpayable",
			"type": "function"
		},
		{
			"inputs": [
				{
					"internalType": "address",
					"name": "_tokenAddress",
					"type": "address"
				},
				{
					"internalType": "uint256",
					"name": "_amount",
					"type": "uint256"
				}
			],
			"name": "withdrawlToken",
			"outputs": [],
			"stateMutability": "nonpayable",
			"type": "function"
		},
		{
			"stateMutability": "payable",
			"type": "receive"
		}
	]
}