{
	"data": {
		"bytecode": {
			"linkReferences": {},
			"object": "6706f05b59d3b200006004908155680d8d726b7177a800006005908155674563918244f4000060069081556101f4600781905560085560c86009556101e060405260006080908152600160a052600260c052600360e052610100939093526101209190915261014052600a61016081905260146101805260326101a05260646101c0526200008f91600b62000628565b5060408051610160810182526102bc8152606460208201819052601e9282018390526060820152600f608082015260a0810191909152600a60c0820152600760e0820152600461010082015260036101208201526001610140820152620000fa90600b90816200067d565b506103e8600c556006600d556000600e819055600f8190556010556015805460ff191690553480156200012c57600080fd5b50604051620039c5380380620039c58339810160408190526200014f916200071a565b6200015a33620004a5565b6040805160e0810182524280825260016020808401828152600085870181815260608088018381526080808a0185815260a0808c0187815260c0808e0189815289805260168c529d517f0263c2b778d062355049effc2dece97bc6547ff8a88a3258daa512061c2153dd5598517f0263c2b778d062355049effc2dece97bc6547ff8a88a3258daa512061c2153de5595517f0263c2b778d062355049effc2dece97bc6547ff8a88a3258daa512061c2153df80546001600160a01b03199081166001600160a01b039384161790915594517f0263c2b778d062355049effc2dece97bc6547ff8a88a3258daa512061c2153e05591517f0263c2b778d062355049effc2dece97bc6547ff8a88a3258daa512061c2153e18054861691841691909117905594517f0263c2b778d062355049effc2dece97bc6547ff8a88a3258daa512061c2153e25599517f0263c2b778d062355049effc2dece97bc6547ff8a88a3258daa512061c2153e3558a519586018b52978552848601968752848a018481529185018481529785018481529285018481529380526017865293517fd840e16649f6b9a295d95876f4633d3a6b10b55e8162971cf78afd886d5ec89b5594517fd840e16649f6b9a295d95876f4633d3a6b10b55e8162971cf78afd886d5ec89c5593517fd840e16649f6b9a295d95876f4633d3a6b10b55e8162971cf78afd886d5ec89d8054841691881691909117905593517fd840e16649f6b9a295d95876f4633d3a6b10b55e8162971cf78afd886d5ec89e5591517fd840e16649f6b9a295d95876f4633d3a6b10b55e8162971cf78afd886d5ec89f805460ff191691151591909117905591517fd840e16649f6b9a295d95876f4633d3a6b10b55e8162971cf78afd886d5ec8a0556002805482168885169081179091556003805490921693871693909317905582516315ab88c960e31b815292516200047c9363ad5c4648926004808301939192829003018186803b1580156200043b57600080fd5b505afa15801562000450573d6000803e3d6000fd5b505050506040513d601f19601f82011682018060405250810190620004769190620006f5565b620004f5565b600180546001600160a01b0319166001600160a01b039290921691909117905550620007649050565b600080546001600160a01b038381166001600160a01b0319831681178455604051919092169283917f8be0079c531659141344cd1fd0a4f28419497f9722a3daafe3b4186f6b6457e09190a35050565b620004ff620005ca565b6001600160a01b03811660009081526014602052604090205460ff1615620005635760405162461bcd60e51b815260206004820152601260248201527120b63932b0b23c9030902830bcaa37b5b2b760711b60448201526064015b60405180910390fd5b6013805460018181019092557f66de8ffda797e3de9c05e8fc57b3bf0ec28a930d40b0d285d93c06501cf6a0900180546001600160a01b039093166001600160a01b031990931683179055600091825260146020526040909120805460ff19169091179055565b6000546001600160a01b03163314620006265760405162461bcd60e51b815260206004820181905260248201527f4f776e61626c653a2063616c6c6572206973206e6f7420746865206f776e657260448201526064016200055a565b565b8280548282559060005260206000209081019282156200066b579160200282015b828111156200066b578251829060ff1690559160200191906001019062000649565b5062000679929150620006c1565b5090565b8280548282559060005260206000209081019282156200066b579160200282015b828111156200066b578251829061ffff169055916020019190600101906200069e565b5b80821115620006795760008155600101620006c2565b80516001600160a01b0381168114620006f057600080fd5b919050565b6000602082840312156200070857600080fd5b6200071382620006d8565b9392505050565b6000806000606084860312156200073057600080fd5b6200073b84620006d8565b92506200074b60208501620006d8565b91506200075b60408501620006d8565b90509250925092565b61325180620007746000396000f3fe6080604052600436106102cd5760003560e01c8063715018a611610175578063b3a42e03116100dc578063dbf14fbe11610095578063f2fde38b1161006f578063f2fde38b146109a6578063f56e9c66146109c6578063fc96b65e146109e6578063fde3549d14610a1b57600080fd5b8063dbf14fbe14610941578063e1b8cf8214610961578063e45feaa41461098157600080fd5b8063b3a42e03146108bc578063c54c7da6146108d2578063c562a68414610500578063d57f1d9b146108e8578063d8f56bb6146108fe578063db6e26441461091457600080fd5b80639a22e5501161012e5780639a22e550146107815780639a2967f71461081c578063a9cf2ed31461083c578063ae0ae8af1461085c578063b187bd261461087c578063b2a82044146108a657600080fd5b8063715018a6146106e057806374ca5477146106f557806380d978101461070a5780638da5cb5b14610720578063980c1dbb1461073e5780639980f7251461076b57600080fd5b806335593286116102345780634a9fdb0f116101ed57806353f836db116101c757806353f836db1461066a57806362102a5f1461068a5780636827e764146106aa578063709ec8b4146106c057600080fd5b80634a9fdb0f146105fd5780634c3abcfc1461061d5780634da928001461064a57600080fd5b806335593286146104b5578063370158ea146104d55780633b84edbd146105005780634595eb6e1461052057806346156ea0146105c75780634a78cdba146105e757600080fd5b8063127f4b2e11610286578063127f4b2e146103f55780631c75b6b2146104155780631cc05606146104355780631eaa6a00146104555780632c1ef96a14610475578063340ac20f1461049557600080fd5b8063026108da146102d95780630535020d146102fb57806305e30f51146103385780630836ec1d146103665780630a2282ae146103865780630b336a71146103c057600080fd5b366102d457005b600080fd5b3480156102e557600080fd5b506102f96102f4366004612e26565b610a23565b005b34801561030757600080fd5b5061031b610316366004612e26565b610b34565b6040516001600160a01b0390911681526020015b60405180910390f35b34801561034457600080fd5b50610358610353366004612e26565b610b5e565b60405190815260200161032f565b34801561037257600080fd5b506102f9610381366004612e58565b610b7f565b61038e610b92565b604080519586526001600160a01b0390941660208601529284019190915215156060830152608082015260a00161032f565b3480156103cc57600080fd5b506103e06103db366004612e26565b610edc565b6040805192835290151560208301520161032f565b34801561040157600080fd5b506102f9610410366004612e26565b610fd7565b34801561042157600080fd5b506102f9610430366004612e26565b611073565b34801561044157600080fd5b50610358610450366004612d5c565b6110c2565b34801561046157600080fd5b506102f9610470366004612e26565b6110f3565b34801561048157600080fd5b506102f9610490366004612d5c565b611100565b3480156104a157600080fd5b506102f96104b0366004612d22565b61118d565b3480156104c157600080fd5b5060115461031b906001600160a01b031681565b3480156104e157600080fd5b506104ea6111b7565b60405161032f9a9998979695949392919061305a565b34801561050c57600080fd5b506102f961051b366004612d22565b611342565b34801561052c57600080fd5b5061058461053b366004612e26565b6016602052600090815260409020805460018201546002830154600384015460048501546005860154600690960154949593946001600160a01b03938416949293909116919087565b6040805197885260208801969096526001600160a01b03948516958701959095526060860192909252909116608084015260a083015260c082015260e00161032f565b3480156105d357600080fd5b506103586105e2366004612e26565b61136c565b3480156105f357600080fd5b50610358600e5481565b34801561060957600080fd5b506102f9610618366004612e26565b61137c565b34801561062957600080fd5b50610358610638366004612d22565b60196020526000908152604090205481565b34801561065657600080fd5b506102f9610665366004612dec565b6113cb565b34801561067657600080fd5b50610358610685366004612e26565b6113e6565b34801561069657600080fd5b506102f96106a5366004612d88565b6114b1565b3480156106b657600080fd5b5061035860075481565b3480156106cc57600080fd5b5061031b6106db366004612e26565b6115d5565b3480156106ec57600080fd5b506102f96115e5565b34801561070157600080fd5b506102f96115f9565b34801561071657600080fd5b5061035860065481565b34801561072c57600080fd5b506000546001600160a01b031661031b565b34801561074a57600080fd5b5061075e610759366004612e26565b61162c565b60405161032f9190612eb5565b34801561077757600080fd5b5061035860095481565b34801561078d57600080fd5b506107e161079c366004612e26565b601760205260009081526040902080546001820154600283015460038401546004850154600590950154939492936001600160a01b0390921692909160ff9091169086565b6040805196875260208701959095526001600160a01b03909316938501939093526060840152901515608083015260a082015260c00161032f565b34801561082857600080fd5b506102f9610837366004612e26565b6117dc565b34801561084857600080fd5b506102f9610857366004612d22565b6117e9565b34801561086857600080fd5b506102f9610877366004612d5c565b6118b6565b34801561088857600080fd5b506015546108969060ff1681565b604051901515815260200161032f565b3480156108b257600080fd5b5061035860105481565b3480156108c857600080fd5b5061035860085481565b3480156108de57600080fd5b50610358600f5481565b3480156108f457600080fd5b50610358600d5481565b34801561090a57600080fd5b50610358600c5481565b34801561092057600080fd5b5061093461092f366004612e26565b611906565b60405161032f9190612f38565b34801561094d57600080fd5b506102f961095c366004612d22565b611ac4565b34801561096d57600080fd5b506102f961097c366004612e26565b611c4e565b61099461098f366004612d22565b611cac565b60405161032f96959493929190613025565b3480156109b257600080fd5b506102f96109c1366004612d22565b612937565b3480156109d257600080fd5b506102f96109e1366004612d22565b6129ad565b3480156109f257600080fd5b50610a06610a01366004612e26565b612aa6565b6040805192835260208301919091520161032f565b6102f9612b5e565b610a2b612b77565b600154604080516361d027b360e01b815290516000926001600160a01b0316916361d027b3916004808301926020929190829003018186803b158015610a7057600080fd5b505afa158015610a84573d6000803e3d6000fd5b505050506040513d601f19601f82011682018060405250810190610aa89190612d3f565b9050600e54821115610aeb5760405162461bcd60e51b81526020600482015260076024820152660a8dede9aeac6d60cb1b60448201526064015b60405180910390fd5b6040516001600160a01b0382169083156108fc029084906000818181858888f19350505050610b1957600080fd5b81600e6000828254610b2b919061310d565b90915550505050565b60138181548110610b4457600080fd5b6000918252602090912001546001600160a01b0316905081565b600a8181548110610b6e57600080fd5b600091825260209091200154905081565b610b87612b77565b600491909155600555565b601554600090819081908190819060ff1615610be35760405162461bcd60e51b815260206004820152601060248201526f19d85b595cc8185c99481c185d5cd95960821b6044820152606401610ae2565b600654341015610c265760405162461bcd60e51b815260206004820152600e60248201526d3737ba1032b737bab3b41021272160911b6044820152606401610ae2565b600061271060075434610c3991906130ee565b610c4391906130da565b90506000600160009054906101000a90046001600160a01b03166001600160a01b03166361d027b36040518163ffffffff1660e01b815260040160206040518083038186803b158015610c9557600080fd5b505afa158015610ca9573d6000803e3d6000fd5b505050506040513d601f19601f82011682018060405250810190610ccd9190612d3f565b6040519091506001600160a01b0382169083156108fc029084906000818181858888f19350505050610cfe57600080fd5b610d098260026130ee565b610d13903461310d565b945084600e6000828254610d2791906130c2565b92505081905550600160106000828254610d4191906130c2565b925050819055506000610d556009546113e6565b90506005600954610d66919061310d565b8114610d76576000945084610d7c565b60019450845b5084610d8c576000935083610d93565b600e549350835b508415610dc557604051339085156108fc029086906000818181858888f19350505050610dbf57600080fd5b6000600e555b6040805160c08101825242815260108054602080840182815233858701818152606087018e81528d15156080890190815260a089018e815260009788526017909652958990209751885592516001880155516002870180546001600160a01b03929092166001600160a01b031990921691909117905590516003860155915160048501805491151560ff19909216919091179055516005909301929092555491517f0b99472f4356feb056b789b1b95177a76dda68c70e20005c2959cc3267185e1092610ec29290918a908a908a909485526001600160a01b03939093166020850152604084019190915215156060830152608082015260a00190565b60405180910390a160105433975097505050509091929394565b600080600080610eeb85612aa6565b90925090506000610f0061068583600a6130ee565b90506000610f0f83600a6130ee565b905060008411610f4d5760405162461bcd60e51b8152602060048201526009602482015268506f7420456d70747960b81b6044820152606401610ae2565b6000945084610f5d600384613156565b90508015610f6a57600195505b6000610f7760018761310d565b90505b600b8181548110610f8d57610f8d6131ac565b9060005260206000200154600a610fa491906130ee565b610fae908461310d565b9250828410610fc557809750505050505050915091565b80610fcf81613124565b915050610f7a565b610fdf612b77565b600e54610fec904761310d565b81111561104b5760405162461bcd60e51b815260206004820152602760248201527f52656d6f7665206a61636b706f742066756e64732077697468206f74686572206044820152666d6574686f647360c81b6064820152608401610ae2565b604051339082156108fc029083906000818181858888f1935050505061107057600080fd5b50565b61107b612b77565b6107d081106110bd5760405162461bcd60e51b815260206004820152600e60248201526d04c657373207468616e20323030360941b6044820152606401610ae2565b600755565b601860205281600052604060002081815481106110de57600080fd5b90600052602060002001600091509150505481565b6110fb612b77565b600655565b611108612b77565b60405163a9059cbb60e01b8152336004820152602481018290526001600160a01b0383169063a9059cbb90604401602060405180830381600087803b15801561115057600080fd5b505af1158015611164573d6000803e3d6000fd5b505050506040513d601f19601f820116820180604052508101906111889190612e09565b505050565b611195612b77565b600280546001600160a01b0319166001600160a01b0392909216919091179055565b6000806000806000606060006060600080600b8054905067ffffffffffffffff8111156111e6576111e66131c2565b60405190808252806020026020018201604052801561120f578160200160208202803683370190505b50600b80546040805160208084028201810190925282815293985083018282801561125957602002820191906000526020600020905b815481526020019060010190808311611245575b5050600a54939850505067ffffffffffffffff821115905061127d5761127d6131c2565b6040519080825280602002602001820160405280156112a6578160200160208202803683370190505b50600a8054604080516020808402820181019092528281529396508301828280156112f057602002820191906000526020600020905b8154815260200190600101908083116112dc575b50505050509250600e5447611305919061310d565b9750600d549650600454600554898960065489600c5489600e54600954995099509950995099509950995099509950995090919293949596979899565b61134a612b77565b600380546001600160a01b0319166001600160a01b0392909216919091179055565b600b8181548110610b6e57600080fd5b611384612b77565b6107d081106113c65760405162461bcd60e51b815260206004820152600e60248201526d04c657373207468616e20323030360941b6044820152606401610ae2565b600855565b6113d3612b77565b6015805460ff1916911515919091179055565b600080600360009054906101000a90046001600160a01b03166001600160a01b031663dbdff2c16040518163ffffffff1660e01b8152600401602060405180830381600087803b15801561143957600080fd5b505af115801561144d573d6000803e3d6000fd5b505050506040513d601f19601f820116820180604052508101906114719190612e3f565b9050828160405160200161148791815260200190565b6040516020818303038152906040528051906020012060001c6114aa9190613156565b9392505050565b6114b9612b77565b600060015b835181101561155c57836114d360018361310d565b815181106114e3576114e36131ac565b60200260200101518482815181106114fd576114fd6131ac565b60200260200101511161154a5760405162461bcd60e51b8152602060048201526015602482015274185919081b1bddd95cdd081d1bc81a1a59da195cdd605a1b6044820152606401610ae2565b806115548161313b565b9150506114be565b5060005b82518110156115a25782818151811061157b5761157b6131ac565b60200260200101518261158e91906130c2565b91508061159a8161313b565b915050611560565b5082516115b690600a906020860190612c21565b50600c81905581516115cf90600b906020850190612c21565b50505050565b60128181548110610b4457600080fd5b6115ed612b77565b6115f76000612bd1565b565b611601612b77565b60405133904780156108fc02916000818181858888f1935050505061162557600080fd5b6000600e55565b60606000805b600f5481116116715760008181526016602052604090205484101561165f578161165b8161313b565b9250505b806116698161313b565b915050611632565b50600081600f54600161168491906130c2565b61168e919061310d565b90506000808367ffffffffffffffff8111156116ac576116ac6131c2565b60405190808252806020026020018201604052801561172157816020015b61170e6040518060c00160405280600081526020016000815260200160006001600160a01b0316815260200160008152602001600015158152602001600081525090565b8152602001906001900390816116ca5790505b509050825b600f5481116117d257600081815260176020908152604091829020825160c0810184528154815260018201549281019290925260028101546001600160a01b03169282019290925260038201546060820152600482015460ff161515608082015260059091015460a082015282518390859081106117a6576117a66131ac565b602002602001018190525082806117bc9061313b565b93505080806117ca9061313b565b915050611726565b5095945050505050565b6117e4612b77565b600955565b6117f1612b77565b6001600160a01b03811660009081526014602052604090205460ff161561184f5760405162461bcd60e51b815260206004820152601260248201527120b63932b0b23c9030902830bcaa37b5b2b760711b6044820152606401610ae2565b6013805460018181019092557f66de8ffda797e3de9c05e8fc57b3bf0ec28a930d40b0d285d93c06501cf6a0900180546001600160a01b039093166001600160a01b031990931683179055600091825260146020526040909120805460ff19169091179055565b6118be612b77565b6001600160a01b038216600081815260186020908152604080832080546001818101835591855283852001869055938352601990915281208054909190610b2b9084906130c2565b60606000805b600f54811161194b5760008181526016602052604090205484101561193957816119358161313b565b9250505b806119438161313b565b91505061190c565b50600081600f54600161195e91906130c2565b611968919061310d565b90506000808367ffffffffffffffff811115611986576119866131c2565b604051908082528060200260200182016040528015611a0957816020015b6119f66040518060e00160405280600081526020016000815260200160006001600160a01b031681526020016000815260200160006001600160a01b0316815260200160008152602001600081525090565b8152602001906001900390816119a45790505b509050825b600f5481116117d257600081815260166020908152604091829020825160e0810184528154815260018201549281019290925260028101546001600160a01b03908116938301939093526003810154606083015260048101549092166080820152600582015460a082015260069091015460c08201528251839085908110611a9857611a986131ac565b60200260200101819052508280611aae9061313b565b9350508080611abc9061313b565b915050611a0e565b611acc612b77565b6001600160a01b03811660009081526014602052604090205460ff16611b255760405162461bcd60e51b815260206004820152600e60248201526d2737ba1020902830bcaa37b5b2b760911b6044820152606401610ae2565b60005b601354811015611c4a57816001600160a01b031660138281548110611b4f57611b4f6131ac565b6000918252602090912001546001600160a01b03161415611c385760138054611b7a9060019061310d565b81548110611b8a57611b8a6131ac565b600091825260209091200154601380546001600160a01b039092169183908110611bb657611bb66131ac565b9060005260206000200160006101000a8154816001600160a01b0302191690836001600160a01b031602179055506013805480611bf557611bf5613196565b60008281526020808220830160001990810180546001600160a01b03191690559092019092556001600160a01b03841682526014905260409020805460ff191690555b80611c428161313b565b915050611b28565b5050565b611c56612b77565b60028110158015611c685750600a8111155b611ca75760405162461bcd60e51b815260206004820152601060248201526f06265747765656e203220616e642031360841b6044820152606401610ae2565b600d55565b6015546000908190819081908190819060ff1615611cff5760405162461bcd60e51b815260206004820152601060248201526f19d85b595cc8185c99481c185d5cd95960821b6044820152606401610ae2565b348015611e7c57600154604080516361d027b360e01b815290516000926001600160a01b0316916361d027b3916004808301926020929190829003018186803b158015611d4b57600080fd5b505afa158015611d5f573d6000803e3d6000fd5b505050506040513d601f19601f82011682018060405250810190611d839190612d3f565b90506004543410158015611d9957506005543411155b611dd85760405162461bcd60e51b815260206004820152601060248201526f426574206f7574206f662052616e676560801b6044820152606401610ae2565b600061271060075434611deb91906130ee565b611df591906130da565b6040519091506001600160a01b0383169082156108fc029083906000818181858888f19350505050611e2657600080fd5b600061271060085434611e3991906130ee565b611e4391906130da565b905080600e6000828254611e5791906130c2565b90915550819050611e68833461310d565b611e72919061310d565b9750505050611f5e565b3360009081526019602052604090205480611ec85760405162461bcd60e51b815260206004820152600c60248201526b4e6f2046726565506c61797360a01b6044820152606401610ae2565b336000908152601860205260409020611ee260018361310d565b81548110611ef257611ef26131ac565b60009182526020808320909101543383526018909152604090912080549193509080611f2057611f20613196565b6000828152602080822083016000199081018390559092019092553382526019905260408120805460019290611f5790849061310d565b9091555050505b6001600f6000828254611f7191906130c2565b90915550506001600160a01b03881660009081526014602052604090205460ff16611fcf5760405162461bcd60e51b815260206004820152600e60248201526d2737ba1030902830bcba37b5b2b760911b6044820152606401610ae2565b600080611fdb83610edc565b91509150600a8281548110611ff257611ff26131ac565b906000526020600020015460001415612171576000805160206131fc833981519152600f543389896000600a888154811061202f5761202f6131ac565b906000526020600020015460405161204c96959493929190613025565b60405180910390a16040518060e00160405280428152602001600f548152602001336001600160a01b03168152602001888152602001876001600160a01b0316815260200160008152602001600a84815481106120ab576120ab6131ac565b6000918252602080832090910154909252600f80548252601683526040808320855181559385015160018501558401516002840180546001600160a01b039283166001600160a01b03199182161790915560608601516003860155608086015160048601805491909316911617905560a0840151600584015560c0909301516006909201919091559054600a8054919233928b928b929188908110612152576121526131ac565b906000526020600020015498509850985098509850985050505061292e565b600a8281548110612184576121846131ac565b9060005260206000200154600314806121ce5750600a82815481106121ab576121ab6131ac565b906000526020600020015460051480156121ce57506011546001600160a01b0316155b1561224357336000818152601860209081526040808320805460018181018355918552838520018890559383526019909152812080549091906122129084906130c2565b925050819055506000805160206131fc833981519152600f543389896000600a888154811061202f5761202f6131ac565b600a8281548110612256576122566131ac565b90600052602060002001546005141561243c57601154604051631cdfd52f60e11b8152336004820152600160248201526001600160a01b039091169081906339bfaa5e90604401600060405180830381600087803b1580156122b757600080fd5b505af11580156122cb573d6000803e3d6000fd5b505050506000805160206131fc833981519152600f54338a8a6000600a89815481106122f9576122f96131ac565b906000526020600020015460405161231696959493929190613025565b60405180910390a16040518060e00160405280428152602001600f548152602001336001600160a01b03168152602001898152602001886001600160a01b0316815260200160008152602001600a8581548110612375576123756131ac565b6000918252602080832090910154909252600f80548252601683526040808320855181559385015160018501558401516002840180546001600160a01b039283166001600160a01b03199182161790915560608601516003860155608086015160048601805491909316911617905560a0840151600584015560c0909301516006909201919091559054600a8054919233928c928c92918990811061241c5761241c6131ac565b90600052602060002001549950995099509950995099505050505061292e565b8061244b576000955085612450565b899550855b5082600a8381548110612465576124656131ac565b906000526020600020015461247a91906130ee565b945080158061251f5750600260009054906101000a90046001600160a01b03166001600160a01b031663ad5c46486040518163ffffffff1660e01b815260040160206040518083038186803b1580156124d257600080fd5b505afa1580156124e6573d6000803e3d6000fd5b505050506040513d601f19601f8201168201806040525081019061250a9190612d3f565b6001600160a01b03168a6001600160a01b0316145b1561254e57604051339086156108fc029087906000818181858888f1935050505061254957600080fd5b6127c8565b6040516370a0823160e01b81523360048201526000906001600160a01b038c16906370a082319060240160206040518083038186803b15801561259057600080fd5b505afa1580156125a4573d6000803e3d6000fd5b505050506040513d601f19601f820116820180604052508101906125c89190612e3f565b60408051600280825260608201835292935060009290916020830190803683375050600254604080516315ab88c960e31b815290519394506001600160a01b039091169263ad5c464892506004808301926020929190829003018186803b15801561263257600080fd5b505afa158015612646573d6000803e3d6000fd5b505050506040513d601f19601f8201168201806040525081019061266a9190612d3f565b8160008151811061267d5761267d6131ac565b60200260200101906001600160a01b031690816001600160a01b0316815250508b816001815181106126b1576126b16131ac565b6001600160a01b03928316602091820292909201015260025460405163b6f9de9560e01b815291169063b6f9de959089906126f790600090869033904290600401612fbb565b6000604051808303818588803b15801561271057600080fd5b505af1158015612724573d6000803e3d6000fd5b505050505060008c6001600160a01b03166370a08231336040518263ffffffff1660e01b815260040161276691906001600160a01b0391909116815260200190565b60206040518083038186803b15801561277e57600080fd5b505afa158015612792573d6000803e3d6000fd5b505050506040513d601f19601f820116820180604052508101906127b69190612e3f565b90506127c2838261310d565b97505050505b6040518060e00160405280428152602001600f548152602001336001600160a01b03168152602001888152602001876001600160a01b03168152602001868152602001600a848154811061281e5761281e6131ac565b6000918252602080832090910154909252600f805482526016835260409182902084518155928401516001840155908301516002830180546001600160a01b039283166001600160a01b03199182161790915560608501516003850155608085015160048501805491909316911617905560a0830151600583015560c09092015160069091015554600a80546000805160206131fc833981519152929133918b918b918b9190899081106128d4576128d46131ac565b90600052602060002001546040516128f196959493929190613025565b60405180910390a1600f5433888888600a8781548110612913576129136131ac565b90600052602060002001549850985098509850985098505050505b91939550919395565b61293f612b77565b6001600160a01b0381166129a45760405162461bcd60e51b815260206004820152602660248201527f4f776e61626c653a206e6577206f776e657220697320746865207a65726f206160448201526564647265737360d01b6064820152608401610ae2565b61107081612bd1565b6129b5612b77565b601180546001600160a01b0319166001600160a01b0383169081179091556040805163f6a15d7160e01b815290513091839163f6a15d7191600480820192602092909190829003018186803b158015612a0d57600080fd5b505afa158015612a21573d6000803e3d6000fd5b505050506040513d601f19601f82011682018060405250810190612a459190612d3f565b6001600160a01b031614611c4a5760405162461bcd60e51b815260206004820152602260248201527f4d757374206265207375624f7020666f7220746865204e465420636f6e74726160448201526118dd60f21b6064820152608401610ae2565b6000806000600e5447612ab9919061310d565b9050600092506000915060005b600a54811015612b5757600d54600a8281548110612ae657612ae66131ac565b906000526020600020015486612afc91906130ee565b612b0691906130ee565b8210612b4557612b176001856130c2565b9350600b8181548110612b2c57612b2c6131ac565b906000526020600020015483612b4291906130c2565b92505b80612b4f8161313b565b915050612ac6565b5050915091565b34600e6000828254612b7091906130c2565b9091555050565b6000546001600160a01b031633146115f75760405162461bcd60e51b815260206004820181905260248201527f4f776e61626c653a2063616c6c6572206973206e6f7420746865206f776e65726044820152606401610ae2565b600080546001600160a01b038381166001600160a01b0319831681178455604051919092169283917f8be0079c531659141344cd1fd0a4f28419497f9722a3daafe3b4186f6b6457e09190a35050565b828054828255906000526020600020908101928215612c5c579160200282015b82811115612c5c578251825591602001919060010190612c41565b50612c68929150612c6c565b5090565b5b80821115612c685760008155600101612c6d565b600082601f830112612c9257600080fd5b8135602067ffffffffffffffff80831115612caf57612caf6131c2565b8260051b604051601f19603f83011681018181108482111715612cd457612cd46131c2565b60405284815283810192508684018288018501891015612cf357600080fd5b600092505b85831015612d16578035845292840192600192909201918401612cf8565b50979650505050505050565b600060208284031215612d3457600080fd5b81356114aa816131d8565b600060208284031215612d5157600080fd5b81516114aa816131d8565b60008060408385031215612d6f57600080fd5b8235612d7a816131d8565b946020939093013593505050565b60008060408385031215612d9b57600080fd5b823567ffffffffffffffff80821115612db357600080fd5b612dbf86838701612c81565b93506020850135915080821115612dd557600080fd5b50612de285828601612c81565b9150509250929050565b600060208284031215612dfe57600080fd5b81356114aa816131ed565b600060208284031215612e1b57600080fd5b81516114aa816131ed565b600060208284031215612e3857600080fd5b5035919050565b600060208284031215612e5157600080fd5b5051919050565b60008060408385031215612e6b57600080fd5b50508035926020909101359150565b600081518084526020808501945080840160005b83811015612eaa57815187529582019590820190600101612e8e565b509495945050505050565b602080825282518282018190526000919060409081850190868401855b82811015612f2b578151805185528681015187860152858101516001600160a01b0316868601526060808201519086015260808082015115159086015260a0908101519085015260c09093019290850190600101612ed2565b5091979650505050505050565b602080825282518282018190526000919060409081850190868401855b82811015612f2b578151805185528681015187860152858101516001600160a01b0390811687870152606080830151908701526080808301519091169086015260a0808201519086015260c0908101519085015260e09093019290850190600101612f55565b600060808201868352602060808185015281875180845260a086019150828901935060005b818110156130055784516001600160a01b031683529383019391830191600101612fe0565b50506001600160a01b039690961660408501525050506060015292915050565b9586526001600160a01b039485166020870152604086019390935292166060840152608083019190915260a082015260c00190565b60006101408c83528b60208401528a60408401528960608401528860808401528060a084015261308c81840189612e7a565b90508660c084015282810360e08401526130a68187612e7a565b6101008401959095525050610120015298975050505050505050565b600082198211156130d5576130d561316a565b500190565b6000826130e9576130e9613180565b500490565b60008160001904831182151516156131085761310861316a565b500290565b60008282101561311f5761311f61316a565b500390565b6000816131335761313361316a565b506000190190565b600060001982141561314f5761314f61316a565b5060010190565b60008261316557613165613180565b500690565b634e487b7160e01b600052601160045260246000fd5b634e487b7160e01b600052601260045260246000fd5b634e487b7160e01b600052603160045260246000fd5b634e487b7160e01b600052603260045260246000fd5b634e487b7160e01b600052604160045260246000fd5b6001600160a01b038116811461107057600080fd5b801515811461107057600080fdfe281f35b208c702e315f5e081c071ba0ebb3f2d13b733a13592e3f20ce9d924baa2646970667358221220e2993293dd1a4ac821d5d94fa6e2f57ba0ffb686a88dd7d9ea619eddf975b52964736f6c63430008070033",
			"opcodes": "PUSH8 0x6F05B59D3B20000 PUSH1 0x4 SWAP1 DUP2 SSTORE PUSH9 0xD8D726B7177A80000 PUSH1 0x5 SWAP1 DUP2 SSTORE PUSH8 0x4563918244F40000 PUSH1 0x6 SWAP1 DUP2 SSTORE PUSH2 0x1F4 PUSH1 0x7 DUP2 SWAP1 SSTORE PUSH1 0x8 SSTORE PUSH1 0xC8 PUSH1 0x9 SSTORE PUSH2 0x1E0 PUSH1 0x40 MSTORE PUSH1 0x0 PUSH1 0x80 SWAP1 DUP2 MSTORE PUSH1 0x1 PUSH1 0xA0 MSTORE PUSH1 0x2 PUSH1 0xC0 MSTORE PUSH1 0x3 PUSH1 0xE0 MSTORE PUSH2 0x100 SWAP4 SWAP1 SWAP4 MSTORE PUSH2 0x120 SWAP2 SWAP1 SWAP2 MSTORE PUSH2 0x140 MSTORE PUSH1 0xA PUSH2 0x160 DUP2 SWAP1 MSTORE PUSH1 0x14 PUSH2 0x180 MSTORE PUSH1 0x32 PUSH2 0x1A0 MSTORE PUSH1 0x64 PUSH2 0x1C0 MSTORE PUSH3 0x8F SWAP2 PUSH1 0xB PUSH3 0x628 JUMP JUMPDEST POP PUSH1 0x40 DUP1 MLOAD PUSH2 0x160 DUP2 ADD DUP3 MSTORE PUSH2 0x2BC DUP2 MSTORE PUSH1 0x64 PUSH1 0x20 DUP3 ADD DUP2 SWAP1 MSTORE PUSH1 0x1E SWAP3 DUP3 ADD DUP4 SWAP1 MSTORE PUSH1 0x60 DUP3 ADD MSTORE PUSH1 0xF PUSH1 0x80 DUP3 ADD MSTORE PUSH1 0xA0 DUP2 ADD SWAP2 SWAP1 SWAP2 MSTORE PUSH1 0xA PUSH1 0xC0 DUP3 ADD MSTORE PUSH1 0x7 PUSH1 0xE0 DUP3 ADD MSTORE PUSH1 0x4 PUSH2 0x100 DUP3 ADD MSTORE PUSH1 0x3 PUSH2 0x120 DUP3 ADD MSTORE PUSH1 0x1 PUSH2 0x140 DUP3 ADD MSTORE PUSH3 0xFA SWAP1 PUSH1 0xB SWAP1 DUP2 PUSH3 0x67D JUMP JUMPDEST POP PUSH2 0x3E8 PUSH1 0xC SSTORE PUSH1 0x6 PUSH1 0xD SSTORE PUSH1 0x0 PUSH1 0xE DUP2 SWAP1 SSTORE PUSH1 0xF DUP2 SWAP1 SSTORE PUSH1 0x10 SSTORE PUSH1 0x15 DUP1 SLOAD PUSH1 0xFF NOT AND SWAP1 SSTORE CALLVALUE DUP1 ISZERO PUSH3 0x12C JUMPI PUSH1 0x0 DUP1 REVERT JUMPDEST POP PUSH1 0x40 MLOAD PUSH3 0x39C5 CODESIZE SUB DUP1 PUSH3 0x39C5 DUP4 CODECOPY DUP2 ADD PUSH1 0x40 DUP2 SWAP1 MSTORE PUSH3 0x14F SWAP2 PUSH3 0x71A JUMP JUMPDEST PUSH3 0x15A CALLER PUSH3 0x4A5 JUMP JUMPDEST PUSH1 0x40 DUP1 MLOAD PUSH1 0xE0 DUP2 ADD DUP3 MSTORE TIMESTAMP DUP1 DUP3 MSTORE PUSH1 0x1 PUSH1 0x20 DUP1 DUP5 ADD DUP3 DUP2 MSTORE PUSH1 0x0 DUP6 DUP8 ADD DUP2 DUP2 MSTORE PUSH1 0x60 DUP1 DUP9 ADD DUP4 DUP2 MSTORE PUSH1 0x80 DUP1 DUP11 ADD DUP6 DUP2 MSTORE PUSH1 0xA0 DUP1 DUP13 ADD DUP8 DUP2 MSTORE PUSH1 0xC0 DUP1 DUP15 ADD DUP10 DUP2 MSTORE DUP10 DUP1 MSTORE PUSH1 0x16 DUP13 MSTORE SWAP14 MLOAD PUSH32 0x263C2B778D062355049EFFC2DECE97BC6547FF8A88A3258DAA512061C2153DD SSTORE SWAP9 MLOAD PUSH32 0x263C2B778D062355049EFFC2DECE97BC6547FF8A88A3258DAA512061C2153DE SSTORE SWAP6 MLOAD PUSH32 0x263C2B778D062355049EFFC2DECE97BC6547FF8A88A3258DAA512061C2153DF DUP1 SLOAD PUSH1 0x1 PUSH1 0x1 PUSH1 0xA0 SHL SUB NOT SWAP1 DUP2 AND PUSH1 0x1 PUSH1 0x1 PUSH1 0xA0 SHL SUB SWAP4 DUP5 AND OR SWAP1 SWAP2 SSTORE SWAP5 MLOAD PUSH32 0x263C2B778D062355049EFFC2DECE97BC6547FF8A88A3258DAA512061C2153E0 SSTORE SWAP2 MLOAD PUSH32 0x263C2B778D062355049EFFC2DECE97BC6547FF8A88A3258DAA512061C2153E1 DUP1 SLOAD DUP7 AND SWAP2 DUP5 AND SWAP2 SWAP1 SWAP2 OR SWAP1 SSTORE SWAP5 MLOAD PUSH32 0x263C2B778D062355049EFFC2DECE97BC6547FF8A88A3258DAA512061C2153E2 SSTORE SWAP10 MLOAD PUSH32 0x263C2B778D062355049EFFC2DECE97BC6547FF8A88A3258DAA512061C2153E3 SSTORE DUP11 MLOAD SWAP6 DUP7 ADD DUP12 MSTORE SWAP8 DUP6 MSTORE DUP5 DUP7 ADD SWAP7 DUP8 MSTORE DUP5 DUP11 ADD DUP5 DUP2 MSTORE SWAP2 DUP6 ADD DUP5 DUP2 MSTORE SWAP8 DUP6 ADD DUP5 DUP2 MSTORE SWAP3 DUP6 ADD DUP5 DUP2 MSTORE SWAP4 DUP1 MSTORE PUSH1 0x17 DUP7 MSTORE SWAP4 MLOAD PUSH32 0xD840E16649F6B9A295D95876F4633D3A6B10B55E8162971CF78AFD886D5EC89B SSTORE SWAP5 MLOAD PUSH32 0xD840E16649F6B9A295D95876F4633D3A6B10B55E8162971CF78AFD886D5EC89C SSTORE SWAP4 MLOAD PUSH32 0xD840E16649F6B9A295D95876F4633D3A6B10B55E8162971CF78AFD886D5EC89D DUP1 SLOAD DUP5 AND SWAP2 DUP9 AND SWAP2 SWAP1 SWAP2 OR SWAP1 SSTORE SWAP4 MLOAD PUSH32 0xD840E16649F6B9A295D95876F4633D3A6B10B55E8162971CF78AFD886D5EC89E SSTORE SWAP2 MLOAD PUSH32 0xD840E16649F6B9A295D95876F4633D3A6B10B55E8162971CF78AFD886D5EC89F DUP1 SLOAD PUSH1 0xFF NOT AND SWAP2 ISZERO ISZERO SWAP2 SWAP1 SWAP2 OR SWAP1 SSTORE SWAP2 MLOAD PUSH32 0xD840E16649F6B9A295D95876F4633D3A6B10B55E8162971CF78AFD886D5EC8A0 SSTORE PUSH1 0x2 DUP1 SLOAD DUP3 AND DUP9 DUP6 AND SWAP1 DUP2 OR SWAP1 SWAP2 SSTORE PUSH1 0x3 DUP1 SLOAD SWAP1 SWAP3 AND SWAP4 DUP8 AND SWAP4 SWAP1 SWAP4 OR SWAP1 SSTORE DUP3 MLOAD PUSH4 0x15AB88C9 PUSH1 0xE3 SHL DUP2 MSTORE SWAP3 MLOAD PUSH3 0x47C SWAP4 PUSH4 0xAD5C4648 SWAP3 PUSH1 0x4 DUP1 DUP4 ADD SWAP4 SWAP2 SWAP3 DUP3 SWAP1 SUB ADD DUP2 DUP7 DUP1 EXTCODESIZE ISZERO DUP1 ISZERO PUSH3 0x43B JUMPI PUSH1 0x0 DUP1 REVERT JUMPDEST POP GAS STATICCALL ISZERO DUP1 ISZERO PUSH3 0x450 JUMPI RETURNDATASIZE PUSH1 0x0 DUP1 RETURNDATACOPY RETURNDATASIZE PUSH1 0x0 REVERT JUMPDEST POP POP POP POP PUSH1 0x40 MLOAD RETURNDATASIZE PUSH1 0x1F NOT PUSH1 0x1F DUP3 ADD AND DUP3 ADD DUP1 PUSH1 0x40 MSTORE POP DUP2 ADD SWAP1 PUSH3 0x476 SWAP2 SWAP1 PUSH3 0x6F5 JUMP JUMPDEST PUSH3 0x4F5 JUMP JUMPDEST PUSH1 0x1 DUP1 SLOAD PUSH1 0x1 PUSH1 0x1 PUSH1 0xA0 SHL SUB NOT AND PUSH1 0x1 PUSH1 0x1 PUSH1 0xA0 SHL SUB SWAP3 SWAP1 SWAP3 AND SWAP2 SWAP1 SWAP2 OR SWAP1 SSTORE POP PUSH3 0x764 SWAP1 POP JUMP JUMPDEST PUSH1 0x0 DUP1 SLOAD PUSH1 0x1 PUSH1 0x1 PUSH1 0xA0 SHL SUB DUP4 DUP2 AND PUSH1 0x1 PUSH1 0x1 PUSH1 0xA0 SHL SUB NOT DUP4 AND DUP2 OR DUP5 SSTORE PUSH1 0x40 MLOAD SWAP2 SWAP1 SWAP3 AND SWAP3 DUP4 SWAP2 PUSH32 0x8BE0079C531659141344CD1FD0A4F28419497F9722A3DAAFE3B4186F6B6457E0 SWAP2 SWAP1 LOG3 POP POP JUMP JUMPDEST PUSH3 0x4FF PUSH3 0x5CA JUMP JUMPDEST PUSH1 0x1 PUSH1 0x1 PUSH1 0xA0 SHL SUB DUP2 AND PUSH1 0x0 SWAP1 DUP2 MSTORE PUSH1 0x14 PUSH1 0x20 MSTORE PUSH1 0x40 SWAP1 KECCAK256 SLOAD PUSH1 0xFF AND ISZERO PUSH3 0x563 JUMPI PUSH1 0x40 MLOAD PUSH3 0x461BCD PUSH1 0xE5 SHL DUP2 MSTORE PUSH1 0x20 PUSH1 0x4 DUP3 ADD MSTORE PUSH1 0x12 PUSH1 0x24 DUP3 ADD MSTORE PUSH18 0x20B63932B0B23C9030902830BCAA37B5B2B7 PUSH1 0x71 SHL PUSH1 0x44 DUP3 ADD MSTORE PUSH1 0x64 ADD JUMPDEST PUSH1 0x40 MLOAD DUP1 SWAP2 SUB SWAP1 REVERT JUMPDEST PUSH1 0x13 DUP1 SLOAD PUSH1 0x1 DUP2 DUP2 ADD SWAP1 SWAP3 SSTORE PUSH32 0x66DE8FFDA797E3DE9C05E8FC57B3BF0EC28A930D40B0D285D93C06501CF6A090 ADD DUP1 SLOAD PUSH1 0x1 PUSH1 0x1 PUSH1 0xA0 SHL SUB SWAP1 SWAP4 AND PUSH1 0x1 PUSH1 0x1 PUSH1 0xA0 SHL SUB NOT SWAP1 SWAP4 AND DUP4 OR SWAP1 SSTORE PUSH1 0x0 SWAP2 DUP3 MSTORE PUSH1 0x14 PUSH1 0x20 MSTORE PUSH1 0x40 SWAP1 SWAP2 KECCAK256 DUP1 SLOAD PUSH1 0xFF NOT AND SWAP1 SWAP2 OR SWAP1 SSTORE JUMP JUMPDEST PUSH1 0x0 SLOAD PUSH1 0x1 PUSH1 0x1 PUSH1 0xA0 SHL SUB AND CALLER EQ PUSH3 0x626 JUMPI PUSH1 0x40 MLOAD PUSH3 0x461BCD PUSH1 0xE5 SHL DUP2 MSTORE PUSH1 0x20 PUSH1 0x4 DUP3 ADD DUP2 SWAP1 MSTORE PUSH1 0x24 DUP3 ADD MSTORE PUSH32 0x4F776E61626C653A2063616C6C6572206973206E6F7420746865206F776E6572 PUSH1 0x44 DUP3 ADD MSTORE PUSH1 0x64 ADD PUSH3 0x55A JUMP JUMPDEST JUMP JUMPDEST DUP3 DUP1 SLOAD DUP3 DUP3 SSTORE SWAP1 PUSH1 0x0 MSTORE PUSH1 0x20 PUSH1 0x0 KECCAK256 SWAP1 DUP2 ADD SWAP3 DUP3 ISZERO PUSH3 0x66B JUMPI SWAP2 PUSH1 0x20 MUL DUP3 ADD JUMPDEST DUP3 DUP2 GT ISZERO PUSH3 0x66B JUMPI DUP3 MLOAD DUP3 SWAP1 PUSH1 0xFF AND SWAP1 SSTORE SWAP2 PUSH1 0x20 ADD SWAP2 SWAP1 PUSH1 0x1 ADD SWAP1 PUSH3 0x649 JUMP JUMPDEST POP PUSH3 0x679 SWAP3 SWAP2 POP PUSH3 0x6C1 JUMP JUMPDEST POP SWAP1 JUMP JUMPDEST DUP3 DUP1 SLOAD DUP3 DUP3 SSTORE SWAP1 PUSH1 0x0 MSTORE PUSH1 0x20 PUSH1 0x0 KECCAK256 SWAP1 DUP2 ADD SWAP3 DUP3 ISZERO PUSH3 0x66B JUMPI SWAP2 PUSH1 0x20 MUL DUP3 ADD JUMPDEST DUP3 DUP2 GT ISZERO PUSH3 0x66B JUMPI DUP3 MLOAD DUP3 SWAP1 PUSH2 0xFFFF AND SWAP1 SSTORE SWAP2 PUSH1 0x20 ADD SWAP2 SWAP1 PUSH1 0x1 ADD SWAP1 PUSH3 0x69E JUMP JUMPDEST JUMPDEST DUP1 DUP3 GT ISZERO PUSH3 0x679 JUMPI PUSH1 0x0 DUP2 SSTORE PUSH1 0x1 ADD PUSH3 0x6C2 JUMP JUMPDEST DUP1 MLOAD PUSH1 0x1 PUSH1 0x1 PUSH1 0xA0 SHL SUB DUP2 AND DUP2 EQ PUSH3 0x6F0 JUMPI PUSH1 0x0 DUP1 REVERT JUMPDEST SWAP2 SWAP1 POP JUMP JUMPDEST PUSH1 0x0 PUSH1 0x20 DUP3 DUP5 SUB SLT ISZERO PUSH3 0x708 JUMPI PUSH1 0x0 DUP1 REVERT JUMPDEST PUSH3 0x713 DUP3 PUSH3 0x6D8 JUMP JUMPDEST SWAP4 SWAP3 POP POP POP JUMP JUMPDEST PUSH1 0x0 DUP1 PUSH1 0x0 PUSH1 0x60 DUP5 DUP7 SUB SLT ISZERO PUSH3 0x730 JUMPI PUSH1 0x0 DUP1 REVERT JUMPDEST PUSH3 0x73B DUP5 PUSH3 0x6D8 JUMP JUMPDEST SWAP3 POP PUSH3 0x74B PUSH1 0x20 DUP6 ADD PUSH3 0x6D8 JUMP JUMPDEST SWAP2 POP PUSH3 0x75B PUSH1 0x40 DUP6 ADD PUSH3 0x6D8 JUMP JUMPDEST SWAP1 POP SWAP3 POP SWAP3 POP SWAP3 JUMP JUMPDEST PUSH2 0x3251 DUP1 PUSH3 0x774 PUSH1 0x0 CODECOPY PUSH1 0x0 RETURN INVALID PUSH1 0x80 PUSH1 0x40 MSTORE PUSH1 0x4 CALLDATASIZE LT PUSH2 0x2CD JUMPI PUSH1 0x0 CALLDATALOAD PUSH1 0xE0 SHR DUP1 PUSH4 0x715018A6 GT PUSH2 0x175 JUMPI DUP1 PUSH4 0xB3A42E03 GT PUSH2 0xDC JUMPI DUP1 PUSH4 0xDBF14FBE GT PUSH2 0x95 JUMPI DUP1 PUSH4 0xF2FDE38B GT PUSH2 0x6F JUMPI DUP1 PUSH4 0xF2FDE38B EQ PUSH2 0x9A6 JUMPI DUP1 PUSH4 0xF56E9C66 EQ PUSH2 0x9C6 JUMPI DUP1 PUSH4 0xFC96B65E EQ PUSH2 0x9E6 JUMPI DUP1 PUSH4 0xFDE3549D EQ PUSH2 0xA1B JUMPI PUSH1 0x0 DUP1 REVERT JUMPDEST DUP1 PUSH4 0xDBF14FBE EQ PUSH2 0x941 JUMPI DUP1 PUSH4 0xE1B8CF82 EQ PUSH2 0x961 JUMPI DUP1 PUSH4 0xE45FEAA4 EQ PUSH2 0x981 JUMPI PUSH1 0x0 DUP1 REVERT JUMPDEST DUP1 PUSH4 0xB3A42E03 EQ PUSH2 0x8BC JUMPI DUP1 PUSH4 0xC54C7DA6 EQ PUSH2 0x8D2 JUMPI DUP1 PUSH4 0xC562A684 EQ PUSH2 0x500 JUMPI DUP1 PUSH4 0xD57F1D9B EQ PUSH2 0x8E8 JUMPI DUP1 PUSH4 0xD8F56BB6 EQ PUSH2 0x8FE JUMPI DUP1 PUSH4 0xDB6E2644 EQ PUSH2 0x914 JUMPI PUSH1 0x0 DUP1 REVERT JUMPDEST DUP1 PUSH4 0x9A22E550 GT PUSH2 0x12E JUMPI DUP1 PUSH4 0x9A22E550 EQ PUSH2 0x781 JUMPI DUP1 PUSH4 0x9A2967F7 EQ PUSH2 0x81C JUMPI DUP1 PUSH4 0xA9CF2ED3 EQ PUSH2 0x83C JUMPI DUP1 PUSH4 0xAE0AE8AF EQ PUSH2 0x85C JUMPI DUP1 PUSH4 0xB187BD26 EQ PUSH2 0x87C JUMPI DUP1 PUSH4 0xB2A82044 EQ PUSH2 0x8A6 JUMPI PUSH1 0x0 DUP1 REVERT JUMPDEST DUP1 PUSH4 0x715018A6 EQ PUSH2 0x6E0 JUMPI DUP1 PUSH4 0x74CA5477 EQ PUSH2 0x6F5 JUMPI DUP1 PUSH4 0x80D97810 EQ PUSH2 0x70A JUMPI DUP1 PUSH4 0x8DA5CB5B EQ PUSH2 0x720 JUMPI DUP1 PUSH4 0x980C1DBB EQ PUSH2 0x73E JUMPI DUP1 PUSH4 0x9980F725 EQ PUSH2 0x76B JUMPI PUSH1 0x0 DUP1 REVERT JUMPDEST DUP1 PUSH4 0x35593286 GT PUSH2 0x234 JUMPI DUP1 PUSH4 0x4A9FDB0F GT PUSH2 0x1ED JUMPI DUP1 PUSH4 0x53F836DB GT PUSH2 0x1C7 JUMPI DUP1 PUSH4 0x53F836DB EQ PUSH2 0x66A JUMPI DUP1 PUSH4 0x62102A5F EQ PUSH2 0x68A JUMPI DUP1 PUSH4 0x6827E764 EQ PUSH2 0x6AA JUMPI DUP1 PUSH4 0x709EC8B4 EQ PUSH2 0x6C0 JUMPI PUSH1 0x0 DUP1 REVERT JUMPDEST DUP1 PUSH4 0x4A9FDB0F EQ PUSH2 0x5FD JUMPI DUP1 PUSH4 0x4C3ABCFC EQ PUSH2 0x61D JUMPI DUP1 PUSH4 0x4DA92800 EQ PUSH2 0x64A JUMPI PUSH1 0x0 DUP1 REVERT JUMPDEST DUP1 PUSH4 0x35593286 EQ PUSH2 0x4B5 JUMPI DUP1 PUSH4 0x370158EA EQ PUSH2 0x4D5 JUMPI DUP1 PUSH4 0x3B84EDBD EQ PUSH2 0x500 JUMPI DUP1 PUSH4 0x4595EB6E EQ PUSH2 0x520 JUMPI DUP1 PUSH4 0x46156EA0 EQ PUSH2 0x5C7 JUMPI DUP1 PUSH4 0x4A78CDBA EQ PUSH2 0x5E7 JUMPI PUSH1 0x0 DUP1 REVERT JUMPDEST DUP1 PUSH4 0x127F4B2E GT PUSH2 0x286 JUMPI DUP1 PUSH4 0x127F4B2E EQ PUSH2 0x3F5 JUMPI DUP1 PUSH4 0x1C75B6B2 EQ PUSH2 0x415 JUMPI DUP1 PUSH4 0x1CC05606 EQ PUSH2 0x435 JUMPI DUP1 PUSH4 0x1EAA6A00 EQ PUSH2 0x455 JUMPI DUP1 PUSH4 0x2C1EF96A EQ PUSH2 0x475 JUMPI DUP1 PUSH4 0x340AC20F EQ PUSH2 0x495 JUMPI PUSH1 0x0 DUP1 REVERT JUMPDEST DUP1 PUSH4 0x26108DA EQ PUSH2 0x2D9 JUMPI DUP1 PUSH4 0x535020D EQ PUSH2 0x2FB JUMPI DUP1 PUSH4 0x5E30F51 EQ PUSH2 0x338 JUMPI DUP1 PUSH4 0x836EC1D EQ PUSH2 0x366 JUMPI DUP1 PUSH4 0xA2282AE EQ PUSH2 0x386 JUMPI DUP1 PUSH4 0xB336A71 EQ PUSH2 0x3C0 JUMPI PUSH1 0x0 DUP1 REVERT JUMPDEST CALLDATASIZE PUSH2 0x2D4 JUMPI STOP JUMPDEST PUSH1 0x0 DUP1 REVERT JUMPDEST CALLVALUE DUP1 ISZERO PUSH2 0x2E5 JUMPI PUSH1 0x0 DUP1 REVERT JUMPDEST POP PUSH2 0x2F9 PUSH2 0x2F4 CALLDATASIZE PUSH1 0x4 PUSH2 0x2E26 JUMP JUMPDEST PUSH2 0xA23 JUMP JUMPDEST STOP JUMPDEST CALLVALUE DUP1 ISZERO PUSH2 0x307 JUMPI PUSH1 0x0 DUP1 REVERT JUMPDEST POP PUSH2 0x31B PUSH2 0x316 CALLDATASIZE PUSH1 0x4 PUSH2 0x2E26 JUMP JUMPDEST PUSH2 0xB34 JUMP JUMPDEST PUSH1 0x40 MLOAD PUSH1 0x1 PUSH1 0x1 PUSH1 0xA0 SHL SUB SWAP1 SWAP2 AND DUP2 MSTORE PUSH1 0x20 ADD JUMPDEST PUSH1 0x40 MLOAD DUP1 SWAP2 SUB SWAP1 RETURN JUMPDEST CALLVALUE DUP1 ISZERO PUSH2 0x344 JUMPI PUSH1 0x0 DUP1 REVERT JUMPDEST POP PUSH2 0x358 PUSH2 0x353 CALLDATASIZE PUSH1 0x4 PUSH2 0x2E26 JUMP JUMPDEST PUSH2 0xB5E JUMP JUMPDEST PUSH1 0x40 MLOAD SWAP1 DUP2 MSTORE PUSH1 0x20 ADD PUSH2 0x32F JUMP JUMPDEST CALLVALUE DUP1 ISZERO PUSH2 0x372 JUMPI PUSH1 0x0 DUP1 REVERT JUMPDEST POP PUSH2 0x2F9 PUSH2 0x381 CALLDATASIZE PUSH1 0x4 PUSH2 0x2E58 JUMP JUMPDEST PUSH2 0xB7F JUMP JUMPDEST PUSH2 0x38E PUSH2 0xB92 JUMP JUMPDEST PUSH1 0x40 DUP1 MLOAD SWAP6 DUP7 MSTORE PUSH1 0x1 PUSH1 0x1 PUSH1 0xA0 SHL SUB SWAP1 SWAP5 AND PUSH1 0x20 DUP7 ADD MSTORE SWAP3 DUP5 ADD SWAP2 SWAP1 SWAP2 MSTORE ISZERO ISZERO PUSH1 0x60 DUP4 ADD MSTORE PUSH1 0x80 DUP3 ADD MSTORE PUSH1 0xA0 ADD PUSH2 0x32F JUMP JUMPDEST CALLVALUE DUP1 ISZERO PUSH2 0x3CC JUMPI PUSH1 0x0 DUP1 REVERT JUMPDEST POP PUSH2 0x3E0 PUSH2 0x3DB CALLDATASIZE PUSH1 0x4 PUSH2 0x2E26 JUMP JUMPDEST PUSH2 0xEDC JUMP JUMPDEST PUSH1 0x40 DUP1 MLOAD SWAP3 DUP4 MSTORE SWAP1 ISZERO ISZERO PUSH1 0x20 DUP4 ADD MSTORE ADD PUSH2 0x32F JUMP JUMPDEST CALLVALUE DUP1 ISZERO PUSH2 0x401 JUMPI PUSH1 0x0 DUP1 REVERT JUMPDEST POP PUSH2 0x2F9 PUSH2 0x410 CALLDATASIZE PUSH1 0x4 PUSH2 0x2E26 JUMP JUMPDEST PUSH2 0xFD7 JUMP JUMPDEST CALLVALUE DUP1 ISZERO PUSH2 0x421 JUMPI PUSH1 0x0 DUP1 REVERT JUMPDEST POP PUSH2 0x2F9 PUSH2 0x430 CALLDATASIZE PUSH1 0x4 PUSH2 0x2E26 JUMP JUMPDEST PUSH2 0x1073 JUMP JUMPDEST CALLVALUE DUP1 ISZERO PUSH2 0x441 JUMPI PUSH1 0x0 DUP1 REVERT JUMPDEST POP PUSH2 0x358 PUSH2 0x450 CALLDATASIZE PUSH1 0x4 PUSH2 0x2D5C JUMP JUMPDEST PUSH2 0x10C2 JUMP JUMPDEST CALLVALUE DUP1 ISZERO PUSH2 0x461 JUMPI PUSH1 0x0 DUP1 REVERT JUMPDEST POP PUSH2 0x2F9 PUSH2 0x470 CALLDATASIZE PUSH1 0x4 PUSH2 0x2E26 JUMP JUMPDEST PUSH2 0x10F3 JUMP JUMPDEST CALLVALUE DUP1 ISZERO PUSH2 0x481 JUMPI PUSH1 0x0 DUP1 REVERT JUMPDEST POP PUSH2 0x2F9 PUSH2 0x490 CALLDATASIZE PUSH1 0x4 PUSH2 0x2D5C JUMP JUMPDEST PUSH2 0x1100 JUMP JUMPDEST CALLVALUE DUP1 ISZERO PUSH2 0x4A1 JUMPI PUSH1 0x0 DUP1 REVERT JUMPDEST POP PUSH2 0x2F9 PUSH2 0x4B0 CALLDATASIZE PUSH1 0x4 PUSH2 0x2D22 JUMP JUMPDEST PUSH2 0x118D JUMP JUMPDEST CALLVALUE DUP1 ISZERO PUSH2 0x4C1 JUMPI PUSH1 0x0 DUP1 REVERT JUMPDEST POP PUSH1 0x11 SLOAD PUSH2 0x31B SWAP1 PUSH1 0x1 PUSH1 0x1 PUSH1 0xA0 SHL SUB AND DUP2 JUMP JUMPDEST CALLVALUE DUP1 ISZERO PUSH2 0x4E1 JUMPI PUSH1 0x0 DUP1 REVERT JUMPDEST POP PUSH2 0x4EA PUSH2 0x11B7 JUMP JUMPDEST PUSH1 0x40 MLOAD PUSH2 0x32F SWAP11 SWAP10 SWAP9 SWAP8 SWAP7 SWAP6 SWAP5 SWAP4 SWAP3 SWAP2 SWAP1 PUSH2 0x305A JUMP JUMPDEST CALLVALUE DUP1 ISZERO PUSH2 0x50C JUMPI PUSH1 0x0 DUP1 REVERT JUMPDEST POP PUSH2 0x2F9 PUSH2 0x51B CALLDATASIZE PUSH1 0x4 PUSH2 0x2D22 JUMP JUMPDEST PUSH2 0x1342 JUMP JUMPDEST CALLVALUE DUP1 ISZERO PUSH2 0x52C JUMPI PUSH1 0x0 DUP1 REVERT JUMPDEST POP PUSH2 0x584 PUSH2 0x53B CALLDATASIZE PUSH1 0x4 PUSH2 0x2E26 JUMP JUMPDEST PUSH1 0x16 PUSH1 0x20 MSTORE PUSH1 0x0 SWAP1 DUP2 MSTORE PUSH1 0x40 SWAP1 KECCAK256 DUP1 SLOAD PUSH1 0x1 DUP3 ADD SLOAD PUSH1 0x2 DUP4 ADD SLOAD PUSH1 0x3 DUP5 ADD SLOAD PUSH1 0x4 DUP6 ADD SLOAD PUSH1 0x5 DUP7 ADD SLOAD PUSH1 0x6 SWAP1 SWAP7 ADD SLOAD SWAP5 SWAP6 SWAP4 SWAP5 PUSH1 0x1 PUSH1 0x1 PUSH1 0xA0 SHL SUB SWAP4 DUP5 AND SWAP5 SWAP3 SWAP4 SWAP1 SWAP2 AND SWAP2 SWAP1 DUP8 JUMP JUMPDEST PUSH1 0x40 DUP1 MLOAD SWAP8 DUP9 MSTORE PUSH1 0x20 DUP9 ADD SWAP7 SWAP1 SWAP7 MSTORE PUSH1 0x1 PUSH1 0x1 PUSH1 0xA0 SHL SUB SWAP5 DUP6 AND SWAP6 DUP8 ADD SWAP6 SWAP1 SWAP6 MSTORE PUSH1 0x60 DUP7 ADD SWAP3 SWAP1 SWAP3 MSTORE SWAP1 SWAP2 AND PUSH1 0x80 DUP5 ADD MSTORE PUSH1 0xA0 DUP4 ADD MSTORE PUSH1 0xC0 DUP3 ADD MSTORE PUSH1 0xE0 ADD PUSH2 0x32F JUMP JUMPDEST CALLVALUE DUP1 ISZERO PUSH2 0x5D3 JUMPI PUSH1 0x0 DUP1 REVERT JUMPDEST POP PUSH2 0x358 PUSH2 0x5E2 CALLDATASIZE PUSH1 0x4 PUSH2 0x2E26 JUMP JUMPDEST PUSH2 0x136C JUMP JUMPDEST CALLVALUE DUP1 ISZERO PUSH2 0x5F3 JUMPI PUSH1 0x0 DUP1 REVERT JUMPDEST POP PUSH2 0x358 PUSH1 0xE SLOAD DUP2 JUMP JUMPDEST CALLVALUE DUP1 ISZERO PUSH2 0x609 JUMPI PUSH1 0x0 DUP1 REVERT JUMPDEST POP PUSH2 0x2F9 PUSH2 0x618 CALLDATASIZE PUSH1 0x4 PUSH2 0x2E26 JUMP JUMPDEST PUSH2 0x137C JUMP JUMPDEST CALLVALUE DUP1 ISZERO PUSH2 0x629 JUMPI PUSH1 0x0 DUP1 REVERT JUMPDEST POP PUSH2 0x358 PUSH2 0x638 CALLDATASIZE PUSH1 0x4 PUSH2 0x2D22 JUMP JUMPDEST PUSH1 0x19 PUSH1 0x20 MSTORE PUSH1 0x0 SWAP1 DUP2 MSTORE PUSH1 0x40 SWAP1 KECCAK256 SLOAD DUP2 JUMP JUMPDEST CALLVALUE DUP1 ISZERO PUSH2 0x656 JUMPI PUSH1 0x0 DUP1 REVERT JUMPDEST POP PUSH2 0x2F9 PUSH2 0x665 CALLDATASIZE PUSH1 0x4 PUSH2 0x2DEC JUMP JUMPDEST PUSH2 0x13CB JUMP JUMPDEST CALLVALUE DUP1 ISZERO PUSH2 0x676 JUMPI PUSH1 0x0 DUP1 REVERT JUMPDEST POP PUSH2 0x358 PUSH2 0x685 CALLDATASIZE PUSH1 0x4 PUSH2 0x2E26 JUMP JUMPDEST PUSH2 0x13E6 JUMP JUMPDEST CALLVALUE DUP1 ISZERO PUSH2 0x696 JUMPI PUSH1 0x0 DUP1 REVERT JUMPDEST POP PUSH2 0x2F9 PUSH2 0x6A5 CALLDATASIZE PUSH1 0x4 PUSH2 0x2D88 JUMP JUMPDEST PUSH2 0x14B1 JUMP JUMPDEST CALLVALUE DUP1 ISZERO PUSH2 0x6B6 JUMPI PUSH1 0x0 DUP1 REVERT JUMPDEST POP PUSH2 0x358 PUSH1 0x7 SLOAD DUP2 JUMP JUMPDEST CALLVALUE DUP1 ISZERO PUSH2 0x6CC JUMPI PUSH1 0x0 DUP1 REVERT JUMPDEST POP PUSH2 0x31B PUSH2 0x6DB CALLDATASIZE PUSH1 0x4 PUSH2 0x2E26 JUMP JUMPDEST PUSH2 0x15D5 JUMP JUMPDEST CALLVALUE DUP1 ISZERO PUSH2 0x6EC JUMPI PUSH1 0x0 DUP1 REVERT JUMPDEST POP PUSH2 0x2F9 PUSH2 0x15E5 JUMP JUMPDEST CALLVALUE DUP1 ISZERO PUSH2 0x701 JUMPI PUSH1 0x0 DUP1 REVERT JUMPDEST POP PUSH2 0x2F9 PUSH2 0x15F9 JUMP JUMPDEST CALLVALUE DUP1 ISZERO PUSH2 0x716 JUMPI PUSH1 0x0 DUP1 REVERT JUMPDEST POP PUSH2 0x358 PUSH1 0x6 SLOAD DUP2 JUMP JUMPDEST CALLVALUE DUP1 ISZERO PUSH2 0x72C JUMPI PUSH1 0x0 DUP1 REVERT JUMPDEST POP PUSH1 0x0 SLOAD PUSH1 0x1 PUSH1 0x1 PUSH1 0xA0 SHL SUB AND PUSH2 0x31B JUMP JUMPDEST CALLVALUE DUP1 ISZERO PUSH2 0x74A JUMPI PUSH1 0x0 DUP1 REVERT JUMPDEST POP PUSH2 0x75E PUSH2 0x759 CALLDATASIZE PUSH1 0x4 PUSH2 0x2E26 JUMP JUMPDEST PUSH2 0x162C JUMP JUMPDEST PUSH1 0x40 MLOAD PUSH2 0x32F SWAP2 SWAP1 PUSH2 0x2EB5 JUMP JUMPDEST CALLVALUE DUP1 ISZERO PUSH2 0x777 JUMPI PUSH1 0x0 DUP1 REVERT JUMPDEST POP PUSH2 0x358 PUSH1 0x9 SLOAD DUP2 JUMP JUMPDEST CALLVALUE DUP1 ISZERO PUSH2 0x78D JUMPI PUSH1 0x0 DUP1 REVERT JUMPDEST POP PUSH2 0x7E1 PUSH2 0x79C CALLDATASIZE PUSH1 0x4 PUSH2 0x2E26 JUMP JUMPDEST PUSH1 0x17 PUSH1 0x20 MSTORE PUSH1 0x0 SWAP1 DUP2 MSTORE PUSH1 0x40 SWAP1 KECCAK256 DUP1 SLOAD PUSH1 0x1 DUP3 ADD SLOAD PUSH1 0x2 DUP4 ADD SLOAD PUSH1 0x3 DUP5 ADD SLOAD PUSH1 0x4 DUP6 ADD SLOAD PUSH1 0x5 SWAP1 SWAP6 ADD SLOAD SWAP4 SWAP5 SWAP3 SWAP4 PUSH1 0x1 PUSH1 0x1 PUSH1 0xA0 SHL SUB SWAP1 SWAP3 AND SWAP3 SWAP1 SWAP2 PUSH1 0xFF SWAP1 SWAP2 AND SWAP1 DUP7 JUMP JUMPDEST PUSH1 0x40 DUP1 MLOAD SWAP7 DUP8 MSTORE PUSH1 0x20 DUP8 ADD SWAP6 SWAP1 SWAP6 MSTORE PUSH1 0x1 PUSH1 0x1 PUSH1 0xA0 SHL SUB SWAP1 SWAP4 AND SWAP4 DUP6 ADD SWAP4 SWAP1 SWAP4 MSTORE PUSH1 0x60 DUP5 ADD MSTORE SWAP1 ISZERO ISZERO PUSH1 0x80 DUP4 ADD MSTORE PUSH1 0xA0 DUP3 ADD MSTORE PUSH1 0xC0 ADD PUSH2 0x32F JUMP JUMPDEST CALLVALUE DUP1 ISZERO PUSH2 0x828 JUMPI PUSH1 0x0 DUP1 REVERT JUMPDEST POP PUSH2 0x2F9 PUSH2 0x837 CALLDATASIZE PUSH1 0x4 PUSH2 0x2E26 JUMP JUMPDEST PUSH2 0x17DC JUMP JUMPDEST CALLVALUE DUP1 ISZERO PUSH2 0x848 JUMPI PUSH1 0x0 DUP1 REVERT JUMPDEST POP PUSH2 0x2F9 PUSH2 0x857 CALLDATASIZE PUSH1 0x4 PUSH2 0x2D22 JUMP JUMPDEST PUSH2 0x17E9 JUMP JUMPDEST CALLVALUE DUP1 ISZERO PUSH2 0x868 JUMPI PUSH1 0x0 DUP1 REVERT JUMPDEST POP PUSH2 0x2F9 PUSH2 0x877 CALLDATASIZE PUSH1 0x4 PUSH2 0x2D5C JUMP JUMPDEST PUSH2 0x18B6 JUMP JUMPDEST CALLVALUE DUP1 ISZERO PUSH2 0x888 JUMPI PUSH1 0x0 DUP1 REVERT JUMPDEST POP PUSH1 0x15 SLOAD PUSH2 0x896 SWAP1 PUSH1 0xFF AND DUP2 JUMP JUMPDEST PUSH1 0x40 MLOAD SWAP1 ISZERO ISZERO DUP2 MSTORE PUSH1 0x20 ADD PUSH2 0x32F JUMP JUMPDEST CALLVALUE DUP1 ISZERO PUSH2 0x8B2 JUMPI PUSH1 0x0 DUP1 REVERT JUMPDEST POP PUSH2 0x358 PUSH1 0x10 SLOAD DUP2 JUMP JUMPDEST CALLVALUE DUP1 ISZERO PUSH2 0x8C8 JUMPI PUSH1 0x0 DUP1 REVERT JUMPDEST POP PUSH2 0x358 PUSH1 0x8 SLOAD DUP2 JUMP JUMPDEST CALLVALUE DUP1 ISZERO PUSH2 0x8DE JUMPI PUSH1 0x0 DUP1 REVERT JUMPDEST POP PUSH2 0x358 PUSH1 0xF SLOAD DUP2 JUMP JUMPDEST CALLVALUE DUP1 ISZERO PUSH2 0x8F4 JUMPI PUSH1 0x0 DUP1 REVERT JUMPDEST POP PUSH2 0x358 PUSH1 0xD SLOAD DUP2 JUMP JUMPDEST CALLVALUE DUP1 ISZERO PUSH2 0x90A JUMPI PUSH1 0x0 DUP1 REVERT JUMPDEST POP PUSH2 0x358 PUSH1 0xC SLOAD DUP2 JUMP JUMPDEST CALLVALUE DUP1 ISZERO PUSH2 0x920 JUMPI PUSH1 0x0 DUP1 REVERT JUMPDEST POP PUSH2 0x934 PUSH2 0x92F CALLDATASIZE PUSH1 0x4 PUSH2 0x2E26 JUMP JUMPDEST PUSH2 0x1906 JUMP JUMPDEST PUSH1 0x40 MLOAD PUSH2 0x32F SWAP2 SWAP1 PUSH2 0x2F38 JUMP JUMPDEST CALLVALUE DUP1 ISZERO PUSH2 0x94D JUMPI PUSH1 0x0 DUP1 REVERT JUMPDEST POP PUSH2 0x2F9 PUSH2 0x95C CALLDATASIZE PUSH1 0x4 PUSH2 0x2D22 JUMP JUMPDEST PUSH2 0x1AC4 JUMP JUMPDEST CALLVALUE DUP1 ISZERO PUSH2 0x96D JUMPI PUSH1 0x0 DUP1 REVERT JUMPDEST POP PUSH2 0x2F9 PUSH2 0x97C CALLDATASIZE PUSH1 0x4 PUSH2 0x2E26 JUMP JUMPDEST PUSH2 0x1C4E JUMP JUMPDEST PUSH2 0x994 PUSH2 0x98F CALLDATASIZE PUSH1 0x4 PUSH2 0x2D22 JUMP JUMPDEST PUSH2 0x1CAC JUMP JUMPDEST PUSH1 0x40 MLOAD PUSH2 0x32F SWAP7 SWAP6 SWAP5 SWAP4 SWAP3 SWAP2 SWAP1 PUSH2 0x3025 JUMP JUMPDEST CALLVALUE DUP1 ISZERO PUSH2 0x9B2 JUMPI PUSH1 0x0 DUP1 REVERT JUMPDEST POP PUSH2 0x2F9 PUSH2 0x9C1 CALLDATASIZE PUSH1 0x4 PUSH2 0x2D22 JUMP JUMPDEST PUSH2 0x2937 JUMP JUMPDEST CALLVALUE DUP1 ISZERO PUSH2 0x9D2 JUMPI PUSH1 0x0 DUP1 REVERT JUMPDEST POP PUSH2 0x2F9 PUSH2 0x9E1 CALLDATASIZE PUSH1 0x4 PUSH2 0x2D22 JUMP JUMPDEST PUSH2 0x29AD JUMP JUMPDEST CALLVALUE DUP1 ISZERO PUSH2 0x9F2 JUMPI PUSH1 0x0 DUP1 REVERT JUMPDEST POP PUSH2 0xA06 PUSH2 0xA01 CALLDATASIZE PUSH1 0x4 PUSH2 0x2E26 JUMP JUMPDEST PUSH2 0x2AA6 JUMP JUMPDEST PUSH1 0x40 DUP1 MLOAD SWAP3 DUP4 MSTORE PUSH1 0x20 DUP4 ADD SWAP2 SWAP1 SWAP2 MSTORE ADD PUSH2 0x32F JUMP JUMPDEST PUSH2 0x2F9 PUSH2 0x2B5E JUMP JUMPDEST PUSH2 0xA2B PUSH2 0x2B77 JUMP JUMPDEST PUSH1 0x1 SLOAD PUSH1 0x40 DUP1 MLOAD PUSH4 0x61D027B3 PUSH1 0xE0 SHL DUP2 MSTORE SWAP1 MLOAD PUSH1 0x0 SWAP3 PUSH1 0x1 PUSH1 0x1 PUSH1 0xA0 SHL SUB AND SWAP2 PUSH4 0x61D027B3 SWAP2 PUSH1 0x4 DUP1 DUP4 ADD SWAP3 PUSH1 0x20 SWAP3 SWAP2 SWAP1 DUP3 SWAP1 SUB ADD DUP2 DUP7 DUP1 EXTCODESIZE ISZERO DUP1 ISZERO PUSH2 0xA70 JUMPI PUSH1 0x0 DUP1 REVERT JUMPDEST POP GAS STATICCALL ISZERO DUP1 ISZERO PUSH2 0xA84 JUMPI RETURNDATASIZE PUSH1 0x0 DUP1 RETURNDATACOPY RETURNDATASIZE PUSH1 0x0 REVERT JUMPDEST POP POP POP POP PUSH1 0x40 MLOAD RETURNDATASIZE PUSH1 0x1F NOT PUSH1 0x1F DUP3 ADD AND DUP3 ADD DUP1 PUSH1 0x40 MSTORE POP DUP2 ADD SWAP1 PUSH2 0xAA8 SWAP2 SWAP1 PUSH2 0x2D3F JUMP JUMPDEST SWAP1 POP PUSH1 0xE SLOAD DUP3 GT ISZERO PUSH2 0xAEB JUMPI PUSH1 0x40 MLOAD PUSH3 0x461BCD PUSH1 0xE5 SHL DUP2 MSTORE PUSH1 0x20 PUSH1 0x4 DUP3 ADD MSTORE PUSH1 0x7 PUSH1 0x24 DUP3 ADD MSTORE PUSH7 0xA8DEDE9AEAC6D PUSH1 0xCB SHL PUSH1 0x44 DUP3 ADD MSTORE PUSH1 0x64 ADD JUMPDEST PUSH1 0x40 MLOAD DUP1 SWAP2 SUB SWAP1 REVERT JUMPDEST PUSH1 0x40 MLOAD PUSH1 0x1 PUSH1 0x1 PUSH1 0xA0 SHL SUB DUP3 AND SWAP1 DUP4 ISZERO PUSH2 0x8FC MUL SWAP1 DUP5 SWAP1 PUSH1 0x0 DUP2 DUP2 DUP2 DUP6 DUP9 DUP9 CALL SWAP4 POP POP POP POP PUSH2 0xB19 JUMPI PUSH1 0x0 DUP1 REVERT JUMPDEST DUP2 PUSH1 0xE PUSH1 0x0 DUP3 DUP3 SLOAD PUSH2 0xB2B SWAP2 SWAP1 PUSH2 0x310D JUMP JUMPDEST SWAP1 SWAP2 SSTORE POP POP POP POP JUMP JUMPDEST PUSH1 0x13 DUP2 DUP2 SLOAD DUP2 LT PUSH2 0xB44 JUMPI PUSH1 0x0 DUP1 REVERT JUMPDEST PUSH1 0x0 SWAP2 DUP3 MSTORE PUSH1 0x20 SWAP1 SWAP2 KECCAK256 ADD SLOAD PUSH1 0x1 PUSH1 0x1 PUSH1 0xA0 SHL SUB AND SWAP1 POP DUP2 JUMP JUMPDEST PUSH1 0xA DUP2 DUP2 SLOAD DUP2 LT PUSH2 0xB6E JUMPI PUSH1 0x0 DUP1 REVERT JUMPDEST PUSH1 0x0 SWAP2 DUP3 MSTORE PUSH1 0x20 SWAP1 SWAP2 KECCAK256 ADD SLOAD SWAP1 POP DUP2 JUMP JUMPDEST PUSH2 0xB87 PUSH2 0x2B77 JUMP JUMPDEST PUSH1 0x4 SWAP2 SWAP1 SWAP2 SSTORE PUSH1 0x5 SSTORE JUMP JUMPDEST PUSH1 0x15 SLOAD PUSH1 0x0 SWAP1 DUP2 SWAP1 DUP2 SWAP1 DUP2 SWAP1 DUP2 SWAP1 PUSH1 0xFF AND ISZERO PUSH2 0xBE3 JUMPI PUSH1 0x40 MLOAD PUSH3 0x461BCD PUSH1 0xE5 SHL DUP2 MSTORE PUSH1 0x20 PUSH1 0x4 DUP3 ADD MSTORE PUSH1 0x10 PUSH1 0x24 DUP3 ADD MSTORE PUSH16 0x19D85B595CC8185C99481C185D5CD959 PUSH1 0x82 SHL PUSH1 0x44 DUP3 ADD MSTORE PUSH1 0x64 ADD PUSH2 0xAE2 JUMP JUMPDEST PUSH1 0x6 SLOAD CALLVALUE LT ISZERO PUSH2 0xC26 JUMPI PUSH1 0x40 MLOAD PUSH3 0x461BCD PUSH1 0xE5 SHL DUP2 MSTORE PUSH1 0x20 PUSH1 0x4 DUP3 ADD MSTORE PUSH1 0xE PUSH1 0x24 DUP3 ADD MSTORE PUSH14 0x3737BA1032B737BAB3B410212721 PUSH1 0x91 SHL PUSH1 0x44 DUP3 ADD MSTORE PUSH1 0x64 ADD PUSH2 0xAE2 JUMP JUMPDEST PUSH1 0x0 PUSH2 0x2710 PUSH1 0x7 SLOAD CALLVALUE PUSH2 0xC39 SWAP2 SWAP1 PUSH2 0x30EE JUMP JUMPDEST PUSH2 0xC43 SWAP2 SWAP1 PUSH2 0x30DA JUMP JUMPDEST SWAP1 POP PUSH1 0x0 PUSH1 0x1 PUSH1 0x0 SWAP1 SLOAD SWAP1 PUSH2 0x100 EXP SWAP1 DIV PUSH1 0x1 PUSH1 0x1 PUSH1 0xA0 SHL SUB AND PUSH1 0x1 PUSH1 0x1 PUSH1 0xA0 SHL SUB AND PUSH4 0x61D027B3 PUSH1 0x40 MLOAD DUP2 PUSH4 0xFFFFFFFF AND PUSH1 0xE0 SHL DUP2 MSTORE PUSH1 0x4 ADD PUSH1 0x20 PUSH1 0x40 MLOAD DUP1 DUP4 SUB DUP2 DUP7 DUP1 EXTCODESIZE ISZERO DUP1 ISZERO PUSH2 0xC95 JUMPI PUSH1 0x0 DUP1 REVERT JUMPDEST POP GAS STATICCALL ISZERO DUP1 ISZERO PUSH2 0xCA9 JUMPI RETURNDATASIZE PUSH1 0x0 DUP1 RETURNDATACOPY RETURNDATASIZE PUSH1 0x0 REVERT JUMPDEST POP POP POP POP PUSH1 0x40 MLOAD RETURNDATASIZE PUSH1 0x1F NOT PUSH1 0x1F DUP3 ADD AND DUP3 ADD DUP1 PUSH1 0x40 MSTORE POP DUP2 ADD SWAP1 PUSH2 0xCCD SWAP2 SWAP1 PUSH2 0x2D3F JUMP JUMPDEST PUSH1 0x40 MLOAD SWAP1 SWAP2 POP PUSH1 0x1 PUSH1 0x1 PUSH1 0xA0 SHL SUB DUP3 AND SWAP1 DUP4 ISZERO PUSH2 0x8FC MUL SWAP1 DUP5 SWAP1 PUSH1 0x0 DUP2 DUP2 DUP2 DUP6 DUP9 DUP9 CALL SWAP4 POP POP POP POP PUSH2 0xCFE JUMPI PUSH1 0x0 DUP1 REVERT JUMPDEST PUSH2 0xD09 DUP3 PUSH1 0x2 PUSH2 0x30EE JUMP JUMPDEST PUSH2 0xD13 SWAP1 CALLVALUE PUSH2 0x310D JUMP JUMPDEST SWAP5 POP DUP5 PUSH1 0xE PUSH1 0x0 DUP3 DUP3 SLOAD PUSH2 0xD27 SWAP2 SWAP1 PUSH2 0x30C2 JUMP JUMPDEST SWAP3 POP POP DUP2 SWAP1 SSTORE POP PUSH1 0x1 PUSH1 0x10 PUSH1 0x0 DUP3 DUP3 SLOAD PUSH2 0xD41 SWAP2 SWAP1 PUSH2 0x30C2 JUMP JUMPDEST SWAP3 POP POP DUP2 SWAP1 SSTORE POP PUSH1 0x0 PUSH2 0xD55 PUSH1 0x9 SLOAD PUSH2 0x13E6 JUMP JUMPDEST SWAP1 POP PUSH1 0x5 PUSH1 0x9 SLOAD PUSH2 0xD66 SWAP2 SWAP1 PUSH2 0x310D JUMP JUMPDEST DUP2 EQ PUSH2 0xD76 JUMPI PUSH1 0x0 SWAP5 POP DUP5 PUSH2 0xD7C JUMP JUMPDEST PUSH1 0x1 SWAP5 POP DUP5 JUMPDEST POP DUP5 PUSH2 0xD8C JUMPI PUSH1 0x0 SWAP4 POP DUP4 PUSH2 0xD93 JUMP JUMPDEST PUSH1 0xE SLOAD SWAP4 POP DUP4 JUMPDEST POP DUP5 ISZERO PUSH2 0xDC5 JUMPI PUSH1 0x40 MLOAD CALLER SWAP1 DUP6 ISZERO PUSH2 0x8FC MUL SWAP1 DUP7 SWAP1 PUSH1 0x0 DUP2 DUP2 DUP2 DUP6 DUP9 DUP9 CALL SWAP4 POP POP POP POP PUSH2 0xDBF JUMPI PUSH1 0x0 DUP1 REVERT JUMPDEST PUSH1 0x0 PUSH1 0xE SSTORE JUMPDEST PUSH1 0x40 DUP1 MLOAD PUSH1 0xC0 DUP2 ADD DUP3 MSTORE TIMESTAMP DUP2 MSTORE PUSH1 0x10 DUP1 SLOAD PUSH1 0x20 DUP1 DUP5 ADD DUP3 DUP2 MSTORE CALLER DUP6 DUP8 ADD DUP2 DUP2 MSTORE PUSH1 0x60 DUP8 ADD DUP15 DUP2 MSTORE DUP14 ISZERO ISZERO PUSH1 0x80 DUP10 ADD SWAP1 DUP2 MSTORE PUSH1 0xA0 DUP10 ADD DUP15 DUP2 MSTORE PUSH1 0x0 SWAP8 DUP9 MSTORE PUSH1 0x17 SWAP1 SWAP7 MSTORE SWAP6 DUP10 SWAP1 KECCAK256 SWAP8 MLOAD DUP9 SSTORE SWAP3 MLOAD PUSH1 0x1 DUP9 ADD SSTORE MLOAD PUSH1 0x2 DUP8 ADD DUP1 SLOAD PUSH1 0x1 PUSH1 0x1 PUSH1 0xA0 SHL SUB SWAP3 SWAP1 SWAP3 AND PUSH1 0x1 PUSH1 0x1 PUSH1 0xA0 SHL SUB NOT SWAP1 SWAP3 AND SWAP2 SWAP1 SWAP2 OR SWAP1 SSTORE SWAP1 MLOAD PUSH1 0x3 DUP7 ADD SSTORE SWAP2 MLOAD PUSH1 0x4 DUP6 ADD DUP1 SLOAD SWAP2 ISZERO ISZERO PUSH1 0xFF NOT SWAP1 SWAP3 AND SWAP2 SWAP1 SWAP2 OR SWAP1 SSTORE MLOAD PUSH1 0x5 SWAP1 SWAP4 ADD SWAP3 SWAP1 SWAP3 SSTORE SLOAD SWAP2 MLOAD PUSH32 0xB99472F4356FEB056B789B1B95177A76DDA68C70E20005C2959CC3267185E10 SWAP3 PUSH2 0xEC2 SWAP3 SWAP1 SWAP2 DUP11 SWAP1 DUP11 SWAP1 DUP11 SWAP1 SWAP5 DUP6 MSTORE PUSH1 0x1 PUSH1 0x1 PUSH1 0xA0 SHL SUB SWAP4 SWAP1 SWAP4 AND PUSH1 0x20 DUP6 ADD MSTORE PUSH1 0x40 DUP5 ADD SWAP2 SWAP1 SWAP2 MSTORE ISZERO ISZERO PUSH1 0x60 DUP4 ADD MSTORE PUSH1 0x80 DUP3 ADD MSTORE PUSH1 0xA0 ADD SWAP1 JUMP JUMPDEST PUSH1 0x40 MLOAD DUP1 SWAP2 SUB SWAP1 LOG1 PUSH1 0x10 SLOAD CALLER SWAP8 POP SWAP8 POP POP POP POP SWAP1 SWAP2 SWAP3 SWAP4 SWAP5 JUMP JUMPDEST PUSH1 0x0 DUP1 PUSH1 0x0 DUP1 PUSH2 0xEEB DUP6 PUSH2 0x2AA6 JUMP JUMPDEST SWAP1 SWAP3 POP SWAP1 POP PUSH1 0x0 PUSH2 0xF00 PUSH2 0x685 DUP4 PUSH1 0xA PUSH2 0x30EE JUMP JUMPDEST SWAP1 POP PUSH1 0x0 PUSH2 0xF0F DUP4 PUSH1 0xA PUSH2 0x30EE JUMP JUMPDEST SWAP1 POP PUSH1 0x0 DUP5 GT PUSH2 0xF4D JUMPI PUSH1 0x40 MLOAD PUSH3 0x461BCD PUSH1 0xE5 SHL DUP2 MSTORE PUSH1 0x20 PUSH1 0x4 DUP3 ADD MSTORE PUSH1 0x9 PUSH1 0x24 DUP3 ADD MSTORE PUSH9 0x506F7420456D707479 PUSH1 0xB8 SHL PUSH1 0x44 DUP3 ADD MSTORE PUSH1 0x64 ADD PUSH2 0xAE2 JUMP JUMPDEST PUSH1 0x0 SWAP5 POP DUP5 PUSH2 0xF5D PUSH1 0x3 DUP5 PUSH2 0x3156 JUMP JUMPDEST SWAP1 POP DUP1 ISZERO PUSH2 0xF6A JUMPI PUSH1 0x1 SWAP6 POP JUMPDEST PUSH1 0x0 PUSH2 0xF77 PUSH1 0x1 DUP8 PUSH2 0x310D JUMP JUMPDEST SWAP1 POP JUMPDEST PUSH1 0xB DUP2 DUP2 SLOAD DUP2 LT PUSH2 0xF8D JUMPI PUSH2 0xF8D PUSH2 0x31AC JUMP JUMPDEST SWAP1 PUSH1 0x0 MSTORE PUSH1 0x20 PUSH1 0x0 KECCAK256 ADD SLOAD PUSH1 0xA PUSH2 0xFA4 SWAP2 SWAP1 PUSH2 0x30EE JUMP JUMPDEST PUSH2 0xFAE SWAP1 DUP5 PUSH2 0x310D JUMP JUMPDEST SWAP3 POP DUP3 DUP5 LT PUSH2 0xFC5 JUMPI DUP1 SWAP8 POP POP POP POP POP POP POP SWAP2 POP SWAP2 JUMP JUMPDEST DUP1 PUSH2 0xFCF DUP2 PUSH2 0x3124 JUMP JUMPDEST SWAP2 POP POP PUSH2 0xF7A JUMP JUMPDEST PUSH2 0xFDF PUSH2 0x2B77 JUMP JUMPDEST PUSH1 0xE SLOAD PUSH2 0xFEC SWAP1 SELFBALANCE PUSH2 0x310D JUMP JUMPDEST DUP2 GT ISZERO PUSH2 0x104B JUMPI PUSH1 0x40 MLOAD PUSH3 0x461BCD PUSH1 0xE5 SHL DUP2 MSTORE PUSH1 0x20 PUSH1 0x4 DUP3 ADD MSTORE PUSH1 0x27 PUSH1 0x24 DUP3 ADD MSTORE PUSH32 0x52656D6F7665206A61636B706F742066756E64732077697468206F7468657220 PUSH1 0x44 DUP3 ADD MSTORE PUSH7 0x6D6574686F6473 PUSH1 0xC8 SHL PUSH1 0x64 DUP3 ADD MSTORE PUSH1 0x84 ADD PUSH2 0xAE2 JUMP JUMPDEST PUSH1 0x40 MLOAD CALLER SWAP1 DUP3 ISZERO PUSH2 0x8FC MUL SWAP1 DUP4 SWAP1 PUSH1 0x0 DUP2 DUP2 DUP2 DUP6 DUP9 DUP9 CALL SWAP4 POP POP POP POP PUSH2 0x1070 JUMPI PUSH1 0x0 DUP1 REVERT JUMPDEST POP JUMP JUMPDEST PUSH2 0x107B PUSH2 0x2B77 JUMP JUMPDEST PUSH2 0x7D0 DUP2 LT PUSH2 0x10BD JUMPI PUSH1 0x40 MLOAD PUSH3 0x461BCD PUSH1 0xE5 SHL DUP2 MSTORE PUSH1 0x20 PUSH1 0x4 DUP3 ADD MSTORE PUSH1 0xE PUSH1 0x24 DUP3 ADD MSTORE PUSH14 0x4C657373207468616E203230303 PUSH1 0x94 SHL PUSH1 0x44 DUP3 ADD MSTORE PUSH1 0x64 ADD PUSH2 0xAE2 JUMP JUMPDEST PUSH1 0x7 SSTORE JUMP JUMPDEST PUSH1 0x18 PUSH1 0x20 MSTORE DUP2 PUSH1 0x0 MSTORE PUSH1 0x40 PUSH1 0x0 KECCAK256 DUP2 DUP2 SLOAD DUP2 LT PUSH2 0x10DE JUMPI PUSH1 0x0 DUP1 REVERT JUMPDEST SWAP1 PUSH1 0x0 MSTORE PUSH1 0x20 PUSH1 0x0 KECCAK256 ADD PUSH1 0x0 SWAP2 POP SWAP2 POP POP SLOAD DUP2 JUMP JUMPDEST PUSH2 0x10FB PUSH2 0x2B77 JUMP JUMPDEST PUSH1 0x6 SSTORE JUMP JUMPDEST PUSH2 0x1108 PUSH2 0x2B77 JUMP JUMPDEST PUSH1 0x40 MLOAD PUSH4 0xA9059CBB PUSH1 0xE0 SHL DUP2 MSTORE CALLER PUSH1 0x4 DUP3 ADD MSTORE PUSH1 0x24 DUP2 ADD DUP3 SWAP1 MSTORE PUSH1 0x1 PUSH1 0x1 PUSH1 0xA0 SHL SUB DUP4 AND SWAP1 PUSH4 0xA9059CBB SWAP1 PUSH1 0x44 ADD PUSH1 0x20 PUSH1 0x40 MLOAD DUP1 DUP4 SUB DUP2 PUSH1 0x0 DUP8 DUP1 EXTCODESIZE ISZERO DUP1 ISZERO PUSH2 0x1150 JUMPI PUSH1 0x0 DUP1 REVERT JUMPDEST POP GAS CALL ISZERO DUP1 ISZERO PUSH2 0x1164 JUMPI RETURNDATASIZE PUSH1 0x0 DUP1 RETURNDATACOPY RETURNDATASIZE PUSH1 0x0 REVERT JUMPDEST POP POP POP POP PUSH1 0x40 MLOAD RETURNDATASIZE PUSH1 0x1F NOT PUSH1 0x1F DUP3 ADD AND DUP3 ADD DUP1 PUSH1 0x40 MSTORE POP DUP2 ADD SWAP1 PUSH2 0x1188 SWAP2 SWAP1 PUSH2 0x2E09 JUMP JUMPDEST POP POP POP JUMP JUMPDEST PUSH2 0x1195 PUSH2 0x2B77 JUMP JUMPDEST PUSH1 0x2 DUP1 SLOAD PUSH1 0x1 PUSH1 0x1 PUSH1 0xA0 SHL SUB NOT AND PUSH1 0x1 PUSH1 0x1 PUSH1 0xA0 SHL SUB SWAP3 SWAP1 SWAP3 AND SWAP2 SWAP1 SWAP2 OR SWAP1 SSTORE JUMP JUMPDEST PUSH1 0x0 DUP1 PUSH1 0x0 DUP1 PUSH1 0x0 PUSH1 0x60 PUSH1 0x0 PUSH1 0x60 PUSH1 0x0 DUP1 PUSH1 0xB DUP1 SLOAD SWAP1 POP PUSH8 0xFFFFFFFFFFFFFFFF DUP2 GT ISZERO PUSH2 0x11E6 JUMPI PUSH2 0x11E6 PUSH2 0x31C2 JUMP JUMPDEST PUSH1 0x40 MLOAD SWAP1 DUP1 DUP3 MSTORE DUP1 PUSH1 0x20 MUL PUSH1 0x20 ADD DUP3 ADD PUSH1 0x40 MSTORE DUP1 ISZERO PUSH2 0x120F JUMPI DUP2 PUSH1 0x20 ADD PUSH1 0x20 DUP3 MUL DUP1 CALLDATASIZE DUP4 CALLDATACOPY ADD SWAP1 POP JUMPDEST POP PUSH1 0xB DUP1 SLOAD PUSH1 0x40 DUP1 MLOAD PUSH1 0x20 DUP1 DUP5 MUL DUP3 ADD DUP2 ADD SWAP1 SWAP3 MSTORE DUP3 DUP2 MSTORE SWAP4 SWAP9 POP DUP4 ADD DUP3 DUP3 DUP1 ISZERO PUSH2 0x1259 JUMPI PUSH1 0x20 MUL DUP3 ADD SWAP2 SWAP1 PUSH1 0x0 MSTORE PUSH1 0x20 PUSH1 0x0 KECCAK256 SWAP1 JUMPDEST DUP2 SLOAD DUP2 MSTORE PUSH1 0x20 ADD SWAP1 PUSH1 0x1 ADD SWAP1 DUP1 DUP4 GT PUSH2 0x1245 JUMPI JUMPDEST POP POP PUSH1 0xA SLOAD SWAP4 SWAP9 POP POP POP PUSH8 0xFFFFFFFFFFFFFFFF DUP3 GT ISZERO SWAP1 POP PUSH2 0x127D JUMPI PUSH2 0x127D PUSH2 0x31C2 JUMP JUMPDEST PUSH1 0x40 MLOAD SWAP1 DUP1 DUP3 MSTORE DUP1 PUSH1 0x20 MUL PUSH1 0x20 ADD DUP3 ADD PUSH1 0x40 MSTORE DUP1 ISZERO PUSH2 0x12A6 JUMPI DUP2 PUSH1 0x20 ADD PUSH1 0x20 DUP3 MUL DUP1 CALLDATASIZE DUP4 CALLDATACOPY ADD SWAP1 POP JUMPDEST POP PUSH1 0xA DUP1 SLOAD PUSH1 0x40 DUP1 MLOAD PUSH1 0x20 DUP1 DUP5 MUL DUP3 ADD DUP2 ADD SWAP1 SWAP3 MSTORE DUP3 DUP2 MSTORE SWAP4 SWAP7 POP DUP4 ADD DUP3 DUP3 DUP1 ISZERO PUSH2 0x12F0 JUMPI PUSH1 0x20 MUL DUP3 ADD SWAP2 SWAP1 PUSH1 0x0 MSTORE PUSH1 0x20 PUSH1 0x0 KECCAK256 SWAP1 JUMPDEST DUP2 SLOAD DUP2 MSTORE PUSH1 0x20 ADD SWAP1 PUSH1 0x1 ADD SWAP1 DUP1 DUP4 GT PUSH2 0x12DC JUMPI JUMPDEST POP POP POP POP POP SWAP3 POP PUSH1 0xE SLOAD SELFBALANCE PUSH2 0x1305 SWAP2 SWAP1 PUSH2 0x310D JUMP JUMPDEST SWAP8 POP PUSH1 0xD SLOAD SWAP7 POP PUSH1 0x4 SLOAD PUSH1 0x5 SLOAD DUP10 DUP10 PUSH1 0x6 SLOAD DUP10 PUSH1 0xC SLOAD DUP10 PUSH1 0xE SLOAD PUSH1 0x9 SLOAD SWAP10 POP SWAP10 POP SWAP10 POP SWAP10 POP SWAP10 POP SWAP10 POP SWAP10 POP SWAP10 POP SWAP10 POP SWAP10 POP SWAP1 SWAP2 SWAP3 SWAP4 SWAP5 SWAP6 SWAP7 SWAP8 SWAP9 SWAP10 JUMP JUMPDEST PUSH2 0x134A PUSH2 0x2B77 JUMP JUMPDEST PUSH1 0x3 DUP1 SLOAD PUSH1 0x1 PUSH1 0x1 PUSH1 0xA0 SHL SUB NOT AND PUSH1 0x1 PUSH1 0x1 PUSH1 0xA0 SHL SUB SWAP3 SWAP1 SWAP3 AND SWAP2 SWAP1 SWAP2 OR SWAP1 SSTORE JUMP JUMPDEST PUSH1 0xB DUP2 DUP2 SLOAD DUP2 LT PUSH2 0xB6E JUMPI PUSH1 0x0 DUP1 REVERT JUMPDEST PUSH2 0x1384 PUSH2 0x2B77 JUMP JUMPDEST PUSH2 0x7D0 DUP2 LT PUSH2 0x13C6 JUMPI PUSH1 0x40 MLOAD PUSH3 0x461BCD PUSH1 0xE5 SHL DUP2 MSTORE PUSH1 0x20 PUSH1 0x4 DUP3 ADD MSTORE PUSH1 0xE PUSH1 0x24 DUP3 ADD MSTORE PUSH14 0x4C657373207468616E203230303 PUSH1 0x94 SHL PUSH1 0x44 DUP3 ADD MSTORE PUSH1 0x64 ADD PUSH2 0xAE2 JUMP JUMPDEST PUSH1 0x8 SSTORE JUMP JUMPDEST PUSH2 0x13D3 PUSH2 0x2B77 JUMP JUMPDEST PUSH1 0x15 DUP1 SLOAD PUSH1 0xFF NOT AND SWAP2 ISZERO ISZERO SWAP2 SWAP1 SWAP2 OR SWAP1 SSTORE JUMP JUMPDEST PUSH1 0x0 DUP1 PUSH1 0x3 PUSH1 0x0 SWAP1 SLOAD SWAP1 PUSH2 0x100 EXP SWAP1 DIV PUSH1 0x1 PUSH1 0x1 PUSH1 0xA0 SHL SUB AND PUSH1 0x1 PUSH1 0x1 PUSH1 0xA0 SHL SUB AND PUSH4 0xDBDFF2C1 PUSH1 0x40 MLOAD DUP2 PUSH4 0xFFFFFFFF AND PUSH1 0xE0 SHL DUP2 MSTORE PUSH1 0x4 ADD PUSH1 0x20 PUSH1 0x40 MLOAD DUP1 DUP4 SUB DUP2 PUSH1 0x0 DUP8 DUP1 EXTCODESIZE ISZERO DUP1 ISZERO PUSH2 0x1439 JUMPI PUSH1 0x0 DUP1 REVERT JUMPDEST POP GAS CALL ISZERO DUP1 ISZERO PUSH2 0x144D JUMPI RETURNDATASIZE PUSH1 0x0 DUP1 RETURNDATACOPY RETURNDATASIZE PUSH1 0x0 REVERT JUMPDEST POP POP POP POP PUSH1 0x40 MLOAD RETURNDATASIZE PUSH1 0x1F NOT PUSH1 0x1F DUP3 ADD AND DUP3 ADD DUP1 PUSH1 0x40 MSTORE POP DUP2 ADD SWAP1 PUSH2 0x1471 SWAP2 SWAP1 PUSH2 0x2E3F JUMP JUMPDEST SWAP1 POP DUP3 DUP2 PUSH1 0x40 MLOAD PUSH1 0x20 ADD PUSH2 0x1487 SWAP2 DUP2 MSTORE PUSH1 0x20 ADD SWAP1 JUMP JUMPDEST PUSH1 0x40 MLOAD PUSH1 0x20 DUP2 DUP4 SUB SUB DUP2 MSTORE SWAP1 PUSH1 0x40 MSTORE DUP1 MLOAD SWAP1 PUSH1 0x20 ADD KECCAK256 PUSH1 0x0 SHR PUSH2 0x14AA SWAP2 SWAP1 PUSH2 0x3156 JUMP JUMPDEST SWAP4 SWAP3 POP POP POP JUMP JUMPDEST PUSH2 0x14B9 PUSH2 0x2B77 JUMP JUMPDEST PUSH1 0x0 PUSH1 0x1 JUMPDEST DUP4 MLOAD DUP2 LT ISZERO PUSH2 0x155C JUMPI DUP4 PUSH2 0x14D3 PUSH1 0x1 DUP4 PUSH2 0x310D JUMP JUMPDEST DUP2 MLOAD DUP2 LT PUSH2 0x14E3 JUMPI PUSH2 0x14E3 PUSH2 0x31AC JUMP JUMPDEST PUSH1 0x20 MUL PUSH1 0x20 ADD ADD MLOAD DUP5 DUP3 DUP2 MLOAD DUP2 LT PUSH2 0x14FD JUMPI PUSH2 0x14FD PUSH2 0x31AC JUMP JUMPDEST PUSH1 0x20 MUL PUSH1 0x20 ADD ADD MLOAD GT PUSH2 0x154A JUMPI PUSH1 0x40 MLOAD PUSH3 0x461BCD PUSH1 0xE5 SHL DUP2 MSTORE PUSH1 0x20 PUSH1 0x4 DUP3 ADD MSTORE PUSH1 0x15 PUSH1 0x24 DUP3 ADD MSTORE PUSH21 0x185919081B1BDDD95CDD081D1BC81A1A59DA195CDD PUSH1 0x5A SHL PUSH1 0x44 DUP3 ADD MSTORE PUSH1 0x64 ADD PUSH2 0xAE2 JUMP JUMPDEST DUP1 PUSH2 0x1554 DUP2 PUSH2 0x313B JUMP JUMPDEST SWAP2 POP POP PUSH2 0x14BE JUMP JUMPDEST POP PUSH1 0x0 JUMPDEST DUP3 MLOAD DUP2 LT ISZERO PUSH2 0x15A2 JUMPI DUP3 DUP2 DUP2 MLOAD DUP2 LT PUSH2 0x157B JUMPI PUSH2 0x157B PUSH2 0x31AC JUMP JUMPDEST PUSH1 0x20 MUL PUSH1 0x20 ADD ADD MLOAD DUP3 PUSH2 0x158E SWAP2 SWAP1 PUSH2 0x30C2 JUMP JUMPDEST SWAP2 POP DUP1 PUSH2 0x159A DUP2 PUSH2 0x313B JUMP JUMPDEST SWAP2 POP POP PUSH2 0x1560 JUMP JUMPDEST POP DUP3 MLOAD PUSH2 0x15B6 SWAP1 PUSH1 0xA SWAP1 PUSH1 0x20 DUP7 ADD SWAP1 PUSH2 0x2C21 JUMP JUMPDEST POP PUSH1 0xC DUP2 SWAP1 SSTORE DUP2 MLOAD PUSH2 0x15CF SWAP1 PUSH1 0xB SWAP1 PUSH1 0x20 DUP6 ADD SWAP1 PUSH2 0x2C21 JUMP JUMPDEST POP POP POP POP JUMP JUMPDEST PUSH1 0x12 DUP2 DUP2 SLOAD DUP2 LT PUSH2 0xB44 JUMPI PUSH1 0x0 DUP1 REVERT JUMPDEST PUSH2 0x15ED PUSH2 0x2B77 JUMP JUMPDEST PUSH2 0x15F7 PUSH1 0x0 PUSH2 0x2BD1 JUMP JUMPDEST JUMP JUMPDEST PUSH2 0x1601 PUSH2 0x2B77 JUMP JUMPDEST PUSH1 0x40 MLOAD CALLER SWAP1 SELFBALANCE DUP1 ISZERO PUSH2 0x8FC MUL SWAP2 PUSH1 0x0 DUP2 DUP2 DUP2 DUP6 DUP9 DUP9 CALL SWAP4 POP POP POP POP PUSH2 0x1625 JUMPI PUSH1 0x0 DUP1 REVERT JUMPDEST PUSH1 0x0 PUSH1 0xE SSTORE JUMP JUMPDEST PUSH1 0x60 PUSH1 0x0 DUP1 JUMPDEST PUSH1 0xF SLOAD DUP2 GT PUSH2 0x1671 JUMPI PUSH1 0x0 DUP2 DUP2 MSTORE PUSH1 0x16 PUSH1 0x20 MSTORE PUSH1 0x40 SWAP1 KECCAK256 SLOAD DUP5 LT ISZERO PUSH2 0x165F JUMPI DUP2 PUSH2 0x165B DUP2 PUSH2 0x313B JUMP JUMPDEST SWAP3 POP POP JUMPDEST DUP1 PUSH2 0x1669 DUP2 PUSH2 0x313B JUMP JUMPDEST SWAP2 POP POP PUSH2 0x1632 JUMP JUMPDEST POP PUSH1 0x0 DUP2 PUSH1 0xF SLOAD PUSH1 0x1 PUSH2 0x1684 SWAP2 SWAP1 PUSH2 0x30C2 JUMP JUMPDEST PUSH2 0x168E SWAP2 SWAP1 PUSH2 0x310D JUMP JUMPDEST SWAP1 POP PUSH1 0x0 DUP1 DUP4 PUSH8 0xFFFFFFFFFFFFFFFF DUP2 GT ISZERO PUSH2 0x16AC JUMPI PUSH2 0x16AC PUSH2 0x31C2 JUMP JUMPDEST PUSH1 0x40 MLOAD SWAP1 DUP1 DUP3 MSTORE DUP1 PUSH1 0x20 MUL PUSH1 0x20 ADD DUP3 ADD PUSH1 0x40 MSTORE DUP1 ISZERO PUSH2 0x1721 JUMPI DUP2 PUSH1 0x20 ADD JUMPDEST PUSH2 0x170E PUSH1 0x40 MLOAD DUP1 PUSH1 0xC0 ADD PUSH1 0x40 MSTORE DUP1 PUSH1 0x0 DUP2 MSTORE PUSH1 0x20 ADD PUSH1 0x0 DUP2 MSTORE PUSH1 0x20 ADD PUSH1 0x0 PUSH1 0x1 PUSH1 0x1 PUSH1 0xA0 SHL SUB AND DUP2 MSTORE PUSH1 0x20 ADD PUSH1 0x0 DUP2 MSTORE PUSH1 0x20 ADD PUSH1 0x0 ISZERO ISZERO DUP2 MSTORE PUSH1 0x20 ADD PUSH1 0x0 DUP2 MSTORE POP SWAP1 JUMP JUMPDEST DUP2 MSTORE PUSH1 0x20 ADD SWAP1 PUSH1 0x1 SWAP1 SUB SWAP1 DUP2 PUSH2 0x16CA JUMPI SWAP1 POP JUMPDEST POP SWAP1 POP DUP3 JUMPDEST PUSH1 0xF SLOAD DUP2 GT PUSH2 0x17D2 JUMPI PUSH1 0x0 DUP2 DUP2 MSTORE PUSH1 0x17 PUSH1 0x20 SWAP1 DUP2 MSTORE PUSH1 0x40 SWAP2 DUP3 SWAP1 KECCAK256 DUP3 MLOAD PUSH1 0xC0 DUP2 ADD DUP5 MSTORE DUP2 SLOAD DUP2 MSTORE PUSH1 0x1 DUP3 ADD SLOAD SWAP3 DUP2 ADD SWAP3 SWAP1 SWAP3 MSTORE PUSH1 0x2 DUP2 ADD SLOAD PUSH1 0x1 PUSH1 0x1 PUSH1 0xA0 SHL SUB AND SWAP3 DUP3 ADD SWAP3 SWAP1 SWAP3 MSTORE PUSH1 0x3 DUP3 ADD SLOAD PUSH1 0x60 DUP3 ADD MSTORE PUSH1 0x4 DUP3 ADD SLOAD PUSH1 0xFF AND ISZERO ISZERO PUSH1 0x80 DUP3 ADD MSTORE PUSH1 0x5 SWAP1 SWAP2 ADD SLOAD PUSH1 0xA0 DUP3 ADD MSTORE DUP3 MLOAD DUP4 SWAP1 DUP6 SWAP1 DUP2 LT PUSH2 0x17A6 JUMPI PUSH2 0x17A6 PUSH2 0x31AC JUMP JUMPDEST PUSH1 0x20 MUL PUSH1 0x20 ADD ADD DUP2 SWAP1 MSTORE POP DUP3 DUP1 PUSH2 0x17BC SWAP1 PUSH2 0x313B JUMP JUMPDEST SWAP4 POP POP DUP1 DUP1 PUSH2 0x17CA SWAP1 PUSH2 0x313B JUMP JUMPDEST SWAP2 POP POP PUSH2 0x1726 JUMP JUMPDEST POP SWAP6 SWAP5 POP POP POP POP POP JUMP JUMPDEST PUSH2 0x17E4 PUSH2 0x2B77 JUMP JUMPDEST PUSH1 0x9 SSTORE JUMP JUMPDEST PUSH2 0x17F1 PUSH2 0x2B77 JUMP JUMPDEST PUSH1 0x1 PUSH1 0x1 PUSH1 0xA0 SHL SUB DUP2 AND PUSH1 0x0 SWAP1 DUP2 MSTORE PUSH1 0x14 PUSH1 0x20 MSTORE PUSH1 0x40 SWAP1 KECCAK256 SLOAD PUSH1 0xFF AND ISZERO PUSH2 0x184F JUMPI PUSH1 0x40 MLOAD PUSH3 0x461BCD PUSH1 0xE5 SHL DUP2 MSTORE PUSH1 0x20 PUSH1 0x4 DUP3 ADD MSTORE PUSH1 0x12 PUSH1 0x24 DUP3 ADD MSTORE PUSH18 0x20B63932B0B23C9030902830BCAA37B5B2B7 PUSH1 0x71 SHL PUSH1 0x44 DUP3 ADD MSTORE PUSH1 0x64 ADD PUSH2 0xAE2 JUMP JUMPDEST PUSH1 0x13 DUP1 SLOAD PUSH1 0x1 DUP2 DUP2 ADD SWAP1 SWAP3 SSTORE PUSH32 0x66DE8FFDA797E3DE9C05E8FC57B3BF0EC28A930D40B0D285D93C06501CF6A090 ADD DUP1 SLOAD PUSH1 0x1 PUSH1 0x1 PUSH1 0xA0 SHL SUB SWAP1 SWAP4 AND PUSH1 0x1 PUSH1 0x1 PUSH1 0xA0 SHL SUB NOT SWAP1 SWAP4 AND DUP4 OR SWAP1 SSTORE PUSH1 0x0 SWAP2 DUP3 MSTORE PUSH1 0x14 PUSH1 0x20 MSTORE PUSH1 0x40 SWAP1 SWAP2 KECCAK256 DUP1 SLOAD PUSH1 0xFF NOT AND SWAP1 SWAP2 OR SWAP1 SSTORE JUMP JUMPDEST PUSH2 0x18BE PUSH2 0x2B77 JUMP JUMPDEST PUSH1 0x1 PUSH1 0x1 PUSH1 0xA0 SHL SUB DUP3 AND PUSH1 0x0 DUP2 DUP2 MSTORE PUSH1 0x18 PUSH1 0x20 SWAP1 DUP2 MSTORE PUSH1 0x40 DUP1 DUP4 KECCAK256 DUP1 SLOAD PUSH1 0x1 DUP2 DUP2 ADD DUP4 SSTORE SWAP2 DUP6 MSTORE DUP4 DUP6 KECCAK256 ADD DUP7 SWAP1 SSTORE SWAP4 DUP4 MSTORE PUSH1 0x19 SWAP1 SWAP2 MSTORE DUP2 KECCAK256 DUP1 SLOAD SWAP1 SWAP2 SWAP1 PUSH2 0xB2B SWAP1 DUP5 SWAP1 PUSH2 0x30C2 JUMP JUMPDEST PUSH1 0x60 PUSH1 0x0 DUP1 JUMPDEST PUSH1 0xF SLOAD DUP2 GT PUSH2 0x194B JUMPI PUSH1 0x0 DUP2 DUP2 MSTORE PUSH1 0x16 PUSH1 0x20 MSTORE PUSH1 0x40 SWAP1 KECCAK256 SLOAD DUP5 LT ISZERO PUSH2 0x1939 JUMPI DUP2 PUSH2 0x1935 DUP2 PUSH2 0x313B JUMP JUMPDEST SWAP3 POP POP JUMPDEST DUP1 PUSH2 0x1943 DUP2 PUSH2 0x313B JUMP JUMPDEST SWAP2 POP POP PUSH2 0x190C JUMP JUMPDEST POP PUSH1 0x0 DUP2 PUSH1 0xF SLOAD PUSH1 0x1 PUSH2 0x195E SWAP2 SWAP1 PUSH2 0x30C2 JUMP JUMPDEST PUSH2 0x1968 SWAP2 SWAP1 PUSH2 0x310D JUMP JUMPDEST SWAP1 POP PUSH1 0x0 DUP1 DUP4 PUSH8 0xFFFFFFFFFFFFFFFF DUP2 GT ISZERO PUSH2 0x1986 JUMPI PUSH2 0x1986 PUSH2 0x31C2 JUMP JUMPDEST PUSH1 0x40 MLOAD SWAP1 DUP1 DUP3 MSTORE DUP1 PUSH1 0x20 MUL PUSH1 0x20 ADD DUP3 ADD PUSH1 0x40 MSTORE DUP1 ISZERO PUSH2 0x1A09 JUMPI DUP2 PUSH1 0x20 ADD JUMPDEST PUSH2 0x19F6 PUSH1 0x40 MLOAD DUP1 PUSH1 0xE0 ADD PUSH1 0x40 MSTORE DUP1 PUSH1 0x0 DUP2 MSTORE PUSH1 0x20 ADD PUSH1 0x0 DUP2 MSTORE PUSH1 0x20 ADD PUSH1 0x0 PUSH1 0x1 PUSH1 0x1 PUSH1 0xA0 SHL SUB AND DUP2 MSTORE PUSH1 0x20 ADD PUSH1 0x0 DUP2 MSTORE PUSH1 0x20 ADD PUSH1 0x0 PUSH1 0x1 PUSH1 0x1 PUSH1 0xA0 SHL SUB AND DUP2 MSTORE PUSH1 0x20 ADD PUSH1 0x0 DUP2 MSTORE PUSH1 0x20 ADD PUSH1 0x0 DUP2 MSTORE POP SWAP1 JUMP JUMPDEST DUP2 MSTORE PUSH1 0x20 ADD SWAP1 PUSH1 0x1 SWAP1 SUB SWAP1 DUP2 PUSH2 0x19A4 JUMPI SWAP1 POP JUMPDEST POP SWAP1 POP DUP3 JUMPDEST PUSH1 0xF SLOAD DUP2 GT PUSH2 0x17D2 JUMPI PUSH1 0x0 DUP2 DUP2 MSTORE PUSH1 0x16 PUSH1 0x20 SWAP1 DUP2 MSTORE PUSH1 0x40 SWAP2 DUP3 SWAP1 KECCAK256 DUP3 MLOAD PUSH1 0xE0 DUP2 ADD DUP5 MSTORE DUP2 SLOAD DUP2 MSTORE PUSH1 0x1 DUP3 ADD SLOAD SWAP3 DUP2 ADD SWAP3 SWAP1 SWAP3 MSTORE PUSH1 0x2 DUP2 ADD SLOAD PUSH1 0x1 PUSH1 0x1 PUSH1 0xA0 SHL SUB SWAP1 DUP2 AND SWAP4 DUP4 ADD SWAP4 SWAP1 SWAP4 MSTORE PUSH1 0x3 DUP2 ADD SLOAD PUSH1 0x60 DUP4 ADD MSTORE PUSH1 0x4 DUP2 ADD SLOAD SWAP1 SWAP3 AND PUSH1 0x80 DUP3 ADD MSTORE PUSH1 0x5 DUP3 ADD SLOAD PUSH1 0xA0 DUP3 ADD MSTORE PUSH1 0x6 SWAP1 SWAP2 ADD SLOAD PUSH1 0xC0 DUP3 ADD MSTORE DUP3 MLOAD DUP4 SWAP1 DUP6 SWAP1 DUP2 LT PUSH2 0x1A98 JUMPI PUSH2 0x1A98 PUSH2 0x31AC JUMP JUMPDEST PUSH1 0x20 MUL PUSH1 0x20 ADD ADD DUP2 SWAP1 MSTORE POP DUP3 DUP1 PUSH2 0x1AAE SWAP1 PUSH2 0x313B JUMP JUMPDEST SWAP4 POP POP DUP1 DUP1 PUSH2 0x1ABC SWAP1 PUSH2 0x313B JUMP JUMPDEST SWAP2 POP POP PUSH2 0x1A0E JUMP JUMPDEST PUSH2 0x1ACC PUSH2 0x2B77 JUMP JUMPDEST PUSH1 0x1 PUSH1 0x1 PUSH1 0xA0 SHL SUB DUP2 AND PUSH1 0x0 SWAP1 DUP2 MSTORE PUSH1 0x14 PUSH1 0x20 MSTORE PUSH1 0x40 SWAP1 KECCAK256 SLOAD PUSH1 0xFF AND PUSH2 0x1B25 JUMPI PUSH1 0x40 MLOAD PUSH3 0x461BCD PUSH1 0xE5 SHL DUP2 MSTORE PUSH1 0x20 PUSH1 0x4 DUP3 ADD MSTORE PUSH1 0xE PUSH1 0x24 DUP3 ADD MSTORE PUSH14 0x2737BA1020902830BCAA37B5B2B7 PUSH1 0x91 SHL PUSH1 0x44 DUP3 ADD MSTORE PUSH1 0x64 ADD PUSH2 0xAE2 JUMP JUMPDEST PUSH1 0x0 JUMPDEST PUSH1 0x13 SLOAD DUP2 LT ISZERO PUSH2 0x1C4A JUMPI DUP2 PUSH1 0x1 PUSH1 0x1 PUSH1 0xA0 SHL SUB AND PUSH1 0x13 DUP3 DUP2 SLOAD DUP2 LT PUSH2 0x1B4F JUMPI PUSH2 0x1B4F PUSH2 0x31AC JUMP JUMPDEST PUSH1 0x0 SWAP2 DUP3 MSTORE PUSH1 0x20 SWAP1 SWAP2 KECCAK256 ADD SLOAD PUSH1 0x1 PUSH1 0x1 PUSH1 0xA0 SHL SUB AND EQ ISZERO PUSH2 0x1C38 JUMPI PUSH1 0x13 DUP1 SLOAD PUSH2 0x1B7A SWAP1 PUSH1 0x1 SWAP1 PUSH2 0x310D JUMP JUMPDEST DUP2 SLOAD DUP2 LT PUSH2 0x1B8A JUMPI PUSH2 0x1B8A PUSH2 0x31AC JUMP JUMPDEST PUSH1 0x0 SWAP2 DUP3 MSTORE PUSH1 0x20 SWAP1 SWAP2 KECCAK256 ADD SLOAD PUSH1 0x13 DUP1 SLOAD PUSH1 0x1 PUSH1 0x1 PUSH1 0xA0 SHL SUB SWAP1 SWAP3 AND SWAP2 DUP4 SWAP1 DUP2 LT PUSH2 0x1BB6 JUMPI PUSH2 0x1BB6 PUSH2 0x31AC JUMP JUMPDEST SWAP1 PUSH1 0x0 MSTORE PUSH1 0x20 PUSH1 0x0 KECCAK256 ADD PUSH1 0x0 PUSH2 0x100 EXP DUP2 SLOAD DUP2 PUSH1 0x1 PUSH1 0x1 PUSH1 0xA0 SHL SUB MUL NOT AND SWAP1 DUP4 PUSH1 0x1 PUSH1 0x1 PUSH1 0xA0 SHL SUB AND MUL OR SWAP1 SSTORE POP PUSH1 0x13 DUP1 SLOAD DUP1 PUSH2 0x1BF5 JUMPI PUSH2 0x1BF5 PUSH2 0x3196 JUMP JUMPDEST PUSH1 0x0 DUP3 DUP2 MSTORE PUSH1 0x20 DUP1 DUP3 KECCAK256 DUP4 ADD PUSH1 0x0 NOT SWAP1 DUP2 ADD DUP1 SLOAD PUSH1 0x1 PUSH1 0x1 PUSH1 0xA0 SHL SUB NOT AND SWAP1 SSTORE SWAP1 SWAP3 ADD SWAP1 SWAP3 SSTORE PUSH1 0x1 PUSH1 0x1 PUSH1 0xA0 SHL SUB DUP5 AND DUP3 MSTORE PUSH1 0x14 SWAP1 MSTORE PUSH1 0x40 SWAP1 KECCAK256 DUP1 SLOAD PUSH1 0xFF NOT AND SWAP1 SSTORE JUMPDEST DUP1 PUSH2 0x1C42 DUP2 PUSH2 0x313B JUMP JUMPDEST SWAP2 POP POP PUSH2 0x1B28 JUMP JUMPDEST POP POP JUMP JUMPDEST PUSH2 0x1C56 PUSH2 0x2B77 JUMP JUMPDEST PUSH1 0x2 DUP2 LT ISZERO DUP1 ISZERO PUSH2 0x1C68 JUMPI POP PUSH1 0xA DUP2 GT ISZERO JUMPDEST PUSH2 0x1CA7 JUMPI PUSH1 0x40 MLOAD PUSH3 0x461BCD PUSH1 0xE5 SHL DUP2 MSTORE PUSH1 0x20 PUSH1 0x4 DUP3 ADD MSTORE PUSH1 0x10 PUSH1 0x24 DUP3 ADD MSTORE PUSH16 0x6265747765656E203220616E6420313 PUSH1 0x84 SHL PUSH1 0x44 DUP3 ADD MSTORE PUSH1 0x64 ADD PUSH2 0xAE2 JUMP JUMPDEST PUSH1 0xD SSTORE JUMP JUMPDEST PUSH1 0x15 SLOAD PUSH1 0x0 SWAP1 DUP2 SWAP1 DUP2 SWAP1 DUP2 SWAP1 DUP2 SWAP1 DUP2 SWAP1 PUSH1 0xFF AND ISZERO PUSH2 0x1CFF JUMPI PUSH1 0x40 MLOAD PUSH3 0x461BCD PUSH1 0xE5 SHL DUP2 MSTORE PUSH1 0x20 PUSH1 0x4 DUP3 ADD MSTORE PUSH1 0x10 PUSH1 0x24 DUP3 ADD MSTORE PUSH16 0x19D85B595CC8185C99481C185D5CD959 PUSH1 0x82 SHL PUSH1 0x44 DUP3 ADD MSTORE PUSH1 0x64 ADD PUSH2 0xAE2 JUMP JUMPDEST CALLVALUE DUP1 ISZERO PUSH2 0x1E7C JUMPI PUSH1 0x1 SLOAD PUSH1 0x40 DUP1 MLOAD PUSH4 0x61D027B3 PUSH1 0xE0 SHL DUP2 MSTORE SWAP1 MLOAD PUSH1 0x0 SWAP3 PUSH1 0x1 PUSH1 0x1 PUSH1 0xA0 SHL SUB AND SWAP2 PUSH4 0x61D027B3 SWAP2 PUSH1 0x4 DUP1 DUP4 ADD SWAP3 PUSH1 0x20 SWAP3 SWAP2 SWAP1 DUP3 SWAP1 SUB ADD DUP2 DUP7 DUP1 EXTCODESIZE ISZERO DUP1 ISZERO PUSH2 0x1D4B JUMPI PUSH1 0x0 DUP1 REVERT JUMPDEST POP GAS STATICCALL ISZERO DUP1 ISZERO PUSH2 0x1D5F JUMPI RETURNDATASIZE PUSH1 0x0 DUP1 RETURNDATACOPY RETURNDATASIZE PUSH1 0x0 REVERT JUMPDEST POP POP POP POP PUSH1 0x40 MLOAD RETURNDATASIZE PUSH1 0x1F NOT PUSH1 0x1F DUP3 ADD AND DUP3 ADD DUP1 PUSH1 0x40 MSTORE POP DUP2 ADD SWAP1 PUSH2 0x1D83 SWAP2 SWAP1 PUSH2 0x2D3F JUMP JUMPDEST SWAP1 POP PUSH1 0x4 SLOAD CALLVALUE LT ISZERO DUP1 ISZERO PUSH2 0x1D99 JUMPI POP PUSH1 0x5 SLOAD CALLVALUE GT ISZERO JUMPDEST PUSH2 0x1DD8 JUMPI PUSH1 0x40 MLOAD PUSH3 0x461BCD PUSH1 0xE5 SHL DUP2 MSTORE PUSH1 0x20 PUSH1 0x4 DUP3 ADD MSTORE PUSH1 0x10 PUSH1 0x24 DUP3 ADD MSTORE PUSH16 0x426574206F7574206F662052616E6765 PUSH1 0x80 SHL PUSH1 0x44 DUP3 ADD MSTORE PUSH1 0x64 ADD PUSH2 0xAE2 JUMP JUMPDEST PUSH1 0x0 PUSH2 0x2710 PUSH1 0x7 SLOAD CALLVALUE PUSH2 0x1DEB SWAP2 SWAP1 PUSH2 0x30EE JUMP JUMPDEST PUSH2 0x1DF5 SWAP2 SWAP1 PUSH2 0x30DA JUMP JUMPDEST PUSH1 0x40 MLOAD SWAP1 SWAP2 POP PUSH1 0x1 PUSH1 0x1 PUSH1 0xA0 SHL SUB DUP4 AND SWAP1 DUP3 ISZERO PUSH2 0x8FC MUL SWAP1 DUP4 SWAP1 PUSH1 0x0 DUP2 DUP2 DUP2 DUP6 DUP9 DUP9 CALL SWAP4 POP POP POP POP PUSH2 0x1E26 JUMPI PUSH1 0x0 DUP1 REVERT JUMPDEST PUSH1 0x0 PUSH2 0x2710 PUSH1 0x8 SLOAD CALLVALUE PUSH2 0x1E39 SWAP2 SWAP1 PUSH2 0x30EE JUMP JUMPDEST PUSH2 0x1E43 SWAP2 SWAP1 PUSH2 0x30DA JUMP JUMPDEST SWAP1 POP DUP1 PUSH1 0xE PUSH1 0x0 DUP3 DUP3 SLOAD PUSH2 0x1E57 SWAP2 SWAP1 PUSH2 0x30C2 JUMP JUMPDEST SWAP1 SWAP2 SSTORE POP DUP2 SWAP1 POP PUSH2 0x1E68 DUP4 CALLVALUE PUSH2 0x310D JUMP JUMPDEST PUSH2 0x1E72 SWAP2 SWAP1 PUSH2 0x310D JUMP JUMPDEST SWAP8 POP POP POP POP PUSH2 0x1F5E JUMP JUMPDEST CALLER PUSH1 0x0 SWAP1 DUP2 MSTORE PUSH1 0x19 PUSH1 0x20 MSTORE PUSH1 0x40 SWAP1 KECCAK256 SLOAD DUP1 PUSH2 0x1EC8 JUMPI PUSH1 0x40 MLOAD PUSH3 0x461BCD PUSH1 0xE5 SHL DUP2 MSTORE PUSH1 0x20 PUSH1 0x4 DUP3 ADD MSTORE PUSH1 0xC PUSH1 0x24 DUP3 ADD MSTORE PUSH12 0x4E6F2046726565506C617973 PUSH1 0xA0 SHL PUSH1 0x44 DUP3 ADD MSTORE PUSH1 0x64 ADD PUSH2 0xAE2 JUMP JUMPDEST CALLER PUSH1 0x0 SWAP1 DUP2 MSTORE PUSH1 0x18 PUSH1 0x20 MSTORE PUSH1 0x40 SWAP1 KECCAK256 PUSH2 0x1EE2 PUSH1 0x1 DUP4 PUSH2 0x310D JUMP JUMPDEST DUP2 SLOAD DUP2 LT PUSH2 0x1EF2 JUMPI PUSH2 0x1EF2 PUSH2 0x31AC JUMP JUMPDEST PUSH1 0x0 SWAP2 DUP3 MSTORE PUSH1 0x20 DUP1 DUP4 KECCAK256 SWAP1 SWAP2 ADD SLOAD CALLER DUP4 MSTORE PUSH1 0x18 SWAP1 SWAP2 MSTORE PUSH1 0x40 SWAP1 SWAP2 KECCAK256 DUP1 SLOAD SWAP2 SWAP4 POP SWAP1 DUP1 PUSH2 0x1F20 JUMPI PUSH2 0x1F20 PUSH2 0x3196 JUMP JUMPDEST PUSH1 0x0 DUP3 DUP2 MSTORE PUSH1 0x20 DUP1 DUP3 KECCAK256 DUP4 ADD PUSH1 0x0 NOT SWAP1 DUP2 ADD DUP4 SWAP1 SSTORE SWAP1 SWAP3 ADD SWAP1 SWAP3 SSTORE CALLER DUP3 MSTORE PUSH1 0x19 SWAP1 MSTORE PUSH1 0x40 DUP2 KECCAK256 DUP1 SLOAD PUSH1 0x1 SWAP3 SWAP1 PUSH2 0x1F57 SWAP1 DUP5 SWAP1 PUSH2 0x310D JUMP JUMPDEST SWAP1 SWAP2 SSTORE POP POP POP JUMPDEST PUSH1 0x1 PUSH1 0xF PUSH1 0x0 DUP3 DUP3 SLOAD PUSH2 0x1F71 SWAP2 SWAP1 PUSH2 0x30C2 JUMP JUMPDEST SWAP1 SWAP2 SSTORE POP POP PUSH1 0x1 PUSH1 0x1 PUSH1 0xA0 SHL SUB DUP9 AND PUSH1 0x0 SWAP1 DUP2 MSTORE PUSH1 0x14 PUSH1 0x20 MSTORE PUSH1 0x40 SWAP1 KECCAK256 SLOAD PUSH1 0xFF AND PUSH2 0x1FCF JUMPI PUSH1 0x40 MLOAD PUSH3 0x461BCD PUSH1 0xE5 SHL DUP2 MSTORE PUSH1 0x20 PUSH1 0x4 DUP3 ADD MSTORE PUSH1 0xE PUSH1 0x24 DUP3 ADD MSTORE PUSH14 0x2737BA1030902830BCBA37B5B2B7 PUSH1 0x91 SHL PUSH1 0x44 DUP3 ADD MSTORE PUSH1 0x64 ADD PUSH2 0xAE2 JUMP JUMPDEST PUSH1 0x0 DUP1 PUSH2 0x1FDB DUP4 PUSH2 0xEDC JUMP JUMPDEST SWAP2 POP SWAP2 POP PUSH1 0xA DUP3 DUP2 SLOAD DUP2 LT PUSH2 0x1FF2 JUMPI PUSH2 0x1FF2 PUSH2 0x31AC JUMP JUMPDEST SWAP1 PUSH1 0x0 MSTORE PUSH1 0x20 PUSH1 0x0 KECCAK256 ADD SLOAD PUSH1 0x0 EQ ISZERO PUSH2 0x2171 JUMPI PUSH1 0x0 DUP1 MLOAD PUSH1 0x20 PUSH2 0x31FC DUP4 CODECOPY DUP2 MLOAD SWAP2 MSTORE PUSH1 0xF SLOAD CALLER DUP10 DUP10 PUSH1 0x0 PUSH1 0xA DUP9 DUP2 SLOAD DUP2 LT PUSH2 0x202F JUMPI PUSH2 0x202F PUSH2 0x31AC JUMP JUMPDEST SWAP1 PUSH1 0x0 MSTORE PUSH1 0x20 PUSH1 0x0 KECCAK256 ADD SLOAD PUSH1 0x40 MLOAD PUSH2 0x204C SWAP7 SWAP6 SWAP5 SWAP4 SWAP3 SWAP2 SWAP1 PUSH2 0x3025 JUMP JUMPDEST PUSH1 0x40 MLOAD DUP1 SWAP2 SUB SWAP1 LOG1 PUSH1 0x40 MLOAD DUP1 PUSH1 0xE0 ADD PUSH1 0x40 MSTORE DUP1 TIMESTAMP DUP2 MSTORE PUSH1 0x20 ADD PUSH1 0xF SLOAD DUP2 MSTORE PUSH1 0x20 ADD CALLER PUSH1 0x1 PUSH1 0x1 PUSH1 0xA0 SHL SUB AND DUP2 MSTORE PUSH1 0x20 ADD DUP9 DUP2 MSTORE PUSH1 0x20 ADD DUP8 PUSH1 0x1 PUSH1 0x1 PUSH1 0xA0 SHL SUB AND DUP2 MSTORE PUSH1 0x20 ADD PUSH1 0x0 DUP2 MSTORE PUSH1 0x20 ADD PUSH1 0xA DUP5 DUP2 SLOAD DUP2 LT PUSH2 0x20AB JUMPI PUSH2 0x20AB PUSH2 0x31AC JUMP JUMPDEST PUSH1 0x0 SWAP2 DUP3 MSTORE PUSH1 0x20 DUP1 DUP4 KECCAK256 SWAP1 SWAP2 ADD SLOAD SWAP1 SWAP3 MSTORE PUSH1 0xF DUP1 SLOAD DUP3 MSTORE PUSH1 0x16 DUP4 MSTORE PUSH1 0x40 DUP1 DUP4 KECCAK256 DUP6 MLOAD DUP2 SSTORE SWAP4 DUP6 ADD MLOAD PUSH1 0x1 DUP6 ADD SSTORE DUP5 ADD MLOAD PUSH1 0x2 DUP5 ADD DUP1 SLOAD PUSH1 0x1 PUSH1 0x1 PUSH1 0xA0 SHL SUB SWAP3 DUP4 AND PUSH1 0x1 PUSH1 0x1 PUSH1 0xA0 SHL SUB NOT SWAP2 DUP3 AND OR SWAP1 SWAP2 SSTORE PUSH1 0x60 DUP7 ADD MLOAD PUSH1 0x3 DUP7 ADD SSTORE PUSH1 0x80 DUP7 ADD MLOAD PUSH1 0x4 DUP7 ADD DUP1 SLOAD SWAP2 SWAP1 SWAP4 AND SWAP2 AND OR SWAP1 SSTORE PUSH1 0xA0 DUP5 ADD MLOAD PUSH1 0x5 DUP5 ADD SSTORE PUSH1 0xC0 SWAP1 SWAP4 ADD MLOAD PUSH1 0x6 SWAP1 SWAP3 ADD SWAP2 SWAP1 SWAP2 SSTORE SWAP1 SLOAD PUSH1 0xA DUP1 SLOAD SWAP2 SWAP3 CALLER SWAP3 DUP12 SWAP3 DUP12 SWAP3 SWAP2 DUP9 SWAP1 DUP2 LT PUSH2 0x2152 JUMPI PUSH2 0x2152 PUSH2 0x31AC JUMP JUMPDEST SWAP1 PUSH1 0x0 MSTORE PUSH1 0x20 PUSH1 0x0 KECCAK256 ADD SLOAD SWAP9 POP SWAP9 POP SWAP9 POP SWAP9 POP SWAP9 POP SWAP9 POP POP POP POP PUSH2 0x292E JUMP JUMPDEST PUSH1 0xA DUP3 DUP2 SLOAD DUP2 LT PUSH2 0x2184 JUMPI PUSH2 0x2184 PUSH2 0x31AC JUMP JUMPDEST SWAP1 PUSH1 0x0 MSTORE PUSH1 0x20 PUSH1 0x0 KECCAK256 ADD SLOAD PUSH1 0x3 EQ DUP1 PUSH2 0x21CE JUMPI POP PUSH1 0xA DUP3 DUP2 SLOAD DUP2 LT PUSH2 0x21AB JUMPI PUSH2 0x21AB PUSH2 0x31AC JUMP JUMPDEST SWAP1 PUSH1 0x0 MSTORE PUSH1 0x20 PUSH1 0x0 KECCAK256 ADD SLOAD PUSH1 0x5 EQ DUP1 ISZERO PUSH2 0x21CE JUMPI POP PUSH1 0x11 SLOAD PUSH1 0x1 PUSH1 0x1 PUSH1 0xA0 SHL SUB AND ISZERO JUMPDEST ISZERO PUSH2 0x2243 JUMPI CALLER PUSH1 0x0 DUP2 DUP2 MSTORE PUSH1 0x18 PUSH1 0x20 SWAP1 DUP2 MSTORE PUSH1 0x40 DUP1 DUP4 KECCAK256 DUP1 SLOAD PUSH1 0x1 DUP2 DUP2 ADD DUP4 SSTORE SWAP2 DUP6 MSTORE DUP4 DUP6 KECCAK256 ADD DUP9 SWAP1 SSTORE SWAP4 DUP4 MSTORE PUSH1 0x19 SWAP1 SWAP2 MSTORE DUP2 KECCAK256 DUP1 SLOAD SWAP1 SWAP2 SWAP1 PUSH2 0x2212 SWAP1 DUP5 SWAP1 PUSH2 0x30C2 JUMP JUMPDEST SWAP3 POP POP DUP2 SWAP1 SSTORE POP PUSH1 0x0 DUP1 MLOAD PUSH1 0x20 PUSH2 0x31FC DUP4 CODECOPY DUP2 MLOAD SWAP2 MSTORE PUSH1 0xF SLOAD CALLER DUP10 DUP10 PUSH1 0x0 PUSH1 0xA DUP9 DUP2 SLOAD DUP2 LT PUSH2 0x202F JUMPI PUSH2 0x202F PUSH2 0x31AC JUMP JUMPDEST PUSH1 0xA DUP3 DUP2 SLOAD DUP2 LT PUSH2 0x2256 JUMPI PUSH2 0x2256 PUSH2 0x31AC JUMP JUMPDEST SWAP1 PUSH1 0x0 MSTORE PUSH1 0x20 PUSH1 0x0 KECCAK256 ADD SLOAD PUSH1 0x5 EQ ISZERO PUSH2 0x243C JUMPI PUSH1 0x11 SLOAD PUSH1 0x40 MLOAD PUSH4 0x1CDFD52F PUSH1 0xE1 SHL DUP2 MSTORE CALLER PUSH1 0x4 DUP3 ADD MSTORE PUSH1 0x1 PUSH1 0x24 DUP3 ADD MSTORE PUSH1 0x1 PUSH1 0x1 PUSH1 0xA0 SHL SUB SWAP1 SWAP2 AND SWAP1 DUP2 SWAP1 PUSH4 0x39BFAA5E SWAP1 PUSH1 0x44 ADD PUSH1 0x0 PUSH1 0x40 MLOAD DUP1 DUP4 SUB DUP2 PUSH1 0x0 DUP8 DUP1 EXTCODESIZE ISZERO DUP1 ISZERO PUSH2 0x22B7 JUMPI PUSH1 0x0 DUP1 REVERT JUMPDEST POP GAS CALL ISZERO DUP1 ISZERO PUSH2 0x22CB JUMPI RETURNDATASIZE PUSH1 0x0 DUP1 RETURNDATACOPY RETURNDATASIZE PUSH1 0x0 REVERT JUMPDEST POP POP POP POP PUSH1 0x0 DUP1 MLOAD PUSH1 0x20 PUSH2 0x31FC DUP4 CODECOPY DUP2 MLOAD SWAP2 MSTORE PUSH1 0xF SLOAD CALLER DUP11 DUP11 PUSH1 0x0 PUSH1 0xA DUP10 DUP2 SLOAD DUP2 LT PUSH2 0x22F9 JUMPI PUSH2 0x22F9 PUSH2 0x31AC JUMP JUMPDEST SWAP1 PUSH1 0x0 MSTORE PUSH1 0x20 PUSH1 0x0 KECCAK256 ADD SLOAD PUSH1 0x40 MLOAD PUSH2 0x2316 SWAP7 SWAP6 SWAP5 SWAP4 SWAP3 SWAP2 SWAP1 PUSH2 0x3025 JUMP JUMPDEST PUSH1 0x40 MLOAD DUP1 SWAP2 SUB SWAP1 LOG1 PUSH1 0x40 MLOAD DUP1 PUSH1 0xE0 ADD PUSH1 0x40 MSTORE DUP1 TIMESTAMP DUP2 MSTORE PUSH1 0x20 ADD PUSH1 0xF SLOAD DUP2 MSTORE PUSH1 0x20 ADD CALLER PUSH1 0x1 PUSH1 0x1 PUSH1 0xA0 SHL SUB AND DUP2 MSTORE PUSH1 0x20 ADD DUP10 DUP2 MSTORE PUSH1 0x20 ADD DUP9 PUSH1 0x1 PUSH1 0x1 PUSH1 0xA0 SHL SUB AND DUP2 MSTORE PUSH1 0x20 ADD PUSH1 0x0 DUP2 MSTORE PUSH1 0x20 ADD PUSH1 0xA DUP6 DUP2 SLOAD DUP2 LT PUSH2 0x2375 JUMPI PUSH2 0x2375 PUSH2 0x31AC JUMP JUMPDEST PUSH1 0x0 SWAP2 DUP3 MSTORE PUSH1 0x20 DUP1 DUP4 KECCAK256 SWAP1 SWAP2 ADD SLOAD SWAP1 SWAP3 MSTORE PUSH1 0xF DUP1 SLOAD DUP3 MSTORE PUSH1 0x16 DUP4 MSTORE PUSH1 0x40 DUP1 DUP4 KECCAK256 DUP6 MLOAD DUP2 SSTORE SWAP4 DUP6 ADD MLOAD PUSH1 0x1 DUP6 ADD SSTORE DUP5 ADD MLOAD PUSH1 0x2 DUP5 ADD DUP1 SLOAD PUSH1 0x1 PUSH1 0x1 PUSH1 0xA0 SHL SUB SWAP3 DUP4 AND PUSH1 0x1 PUSH1 0x1 PUSH1 0xA0 SHL SUB NOT SWAP2 DUP3 AND OR SWAP1 SWAP2 SSTORE PUSH1 0x60 DUP7 ADD MLOAD PUSH1 0x3 DUP7 ADD SSTORE PUSH1 0x80 DUP7 ADD MLOAD PUSH1 0x4 DUP7 ADD DUP1 SLOAD SWAP2 SWAP1 SWAP4 AND SWAP2 AND OR SWAP1 SSTORE PUSH1 0xA0 DUP5 ADD MLOAD PUSH1 0x5 DUP5 ADD SSTORE PUSH1 0xC0 SWAP1 SWAP4 ADD MLOAD PUSH1 0x6 SWAP1 SWAP3 ADD SWAP2 SWAP1 SWAP2 SSTORE SWAP1 SLOAD PUSH1 0xA DUP1 SLOAD SWAP2 SWAP3 CALLER SWAP3 DUP13 SWAP3 DUP13 SWAP3 SWAP2 DUP10 SWAP1 DUP2 LT PUSH2 0x241C JUMPI PUSH2 0x241C PUSH2 0x31AC JUMP JUMPDEST SWAP1 PUSH1 0x0 MSTORE PUSH1 0x20 PUSH1 0x0 KECCAK256 ADD SLOAD SWAP10 POP SWAP10 POP SWAP10 POP SWAP10 POP SWAP10 POP SWAP10 POP POP POP POP POP PUSH2 0x292E JUMP JUMPDEST DUP1 PUSH2 0x244B JUMPI PUSH1 0x0 SWAP6 POP DUP6 PUSH2 0x2450 JUMP JUMPDEST DUP10 SWAP6 POP DUP6 JUMPDEST POP DUP3 PUSH1 0xA DUP4 DUP2 SLOAD DUP2 LT PUSH2 0x2465 JUMPI PUSH2 0x2465 PUSH2 0x31AC JUMP JUMPDEST SWAP1 PUSH1 0x0 MSTORE PUSH1 0x20 PUSH1 0x0 KECCAK256 ADD SLOAD PUSH2 0x247A SWAP2 SWAP1 PUSH2 0x30EE JUMP JUMPDEST SWAP5 POP DUP1 ISZERO DUP1 PUSH2 0x251F JUMPI POP PUSH1 0x2 PUSH1 0x0 SWAP1 SLOAD SWAP1 PUSH2 0x100 EXP SWAP1 DIV PUSH1 0x1 PUSH1 0x1 PUSH1 0xA0 SHL SUB AND PUSH1 0x1 PUSH1 0x1 PUSH1 0xA0 SHL SUB AND PUSH4 0xAD5C4648 PUSH1 0x40 MLOAD DUP2 PUSH4 0xFFFFFFFF AND PUSH1 0xE0 SHL DUP2 MSTORE PUSH1 0x4 ADD PUSH1 0x20 PUSH1 0x40 MLOAD DUP1 DUP4 SUB DUP2 DUP7 DUP1 EXTCODESIZE ISZERO DUP1 ISZERO PUSH2 0x24D2 JUMPI PUSH1 0x0 DUP1 REVERT JUMPDEST POP GAS STATICCALL ISZERO DUP1 ISZERO PUSH2 0x24E6 JUMPI RETURNDATASIZE PUSH1 0x0 DUP1 RETURNDATACOPY RETURNDATASIZE PUSH1 0x0 REVERT JUMPDEST POP POP POP POP PUSH1 0x40 MLOAD RETURNDATASIZE PUSH1 0x1F NOT PUSH1 0x1F DUP3 ADD AND DUP3 ADD DUP1 PUSH1 0x40 MSTORE POP DUP2 ADD SWAP1 PUSH2 0x250A SWAP2 SWAP1 PUSH2 0x2D3F JUMP JUMPDEST PUSH1 0x1 PUSH1 0x1 PUSH1 0xA0 SHL SUB AND DUP11 PUSH1 0x1 PUSH1 0x1 PUSH1 0xA0 SHL SUB AND EQ JUMPDEST ISZERO PUSH2 0x254E JUMPI PUSH1 0x40 MLOAD CALLER SWAP1 DUP7 ISZERO PUSH2 0x8FC MUL SWAP1 DUP8 SWAP1 PUSH1 0x0 DUP2 DUP2 DUP2 DUP6 DUP9 DUP9 CALL SWAP4 POP POP POP POP PUSH2 0x2549 JUMPI PUSH1 0x0 DUP1 REVERT JUMPDEST PUSH2 0x27C8 JUMP JUMPDEST PUSH1 0x40 MLOAD PUSH4 0x70A08231 PUSH1 0xE0 SHL DUP2 MSTORE CALLER PUSH1 0x4 DUP3 ADD MSTORE PUSH1 0x0 SWAP1 PUSH1 0x1 PUSH1 0x1 PUSH1 0xA0 SHL SUB DUP13 AND SWAP1 PUSH4 0x70A08231 SWAP1 PUSH1 0x24 ADD PUSH1 0x20 PUSH1 0x40 MLOAD DUP1 DUP4 SUB DUP2 DUP7 DUP1 EXTCODESIZE ISZERO DUP1 ISZERO PUSH2 0x2590 JUMPI PUSH1 0x0 DUP1 REVERT JUMPDEST POP GAS STATICCALL ISZERO DUP1 ISZERO PUSH2 0x25A4 JUMPI RETURNDATASIZE PUSH1 0x0 DUP1 RETURNDATACOPY RETURNDATASIZE PUSH1 0x0 REVERT JUMPDEST POP POP POP POP PUSH1 0x40 MLOAD RETURNDATASIZE PUSH1 0x1F NOT PUSH1 0x1F DUP3 ADD AND DUP3 ADD DUP1 PUSH1 0x40 MSTORE POP DUP2 ADD SWAP1 PUSH2 0x25C8 SWAP2 SWAP1 PUSH2 0x2E3F JUMP JUMPDEST PUSH1 0x40 DUP1 MLOAD PUSH1 0x2 DUP1 DUP3 MSTORE PUSH1 0x60 DUP3 ADD DUP4 MSTORE SWAP3 SWAP4 POP PUSH1 0x0 SWAP3 SWAP1 SWAP2 PUSH1 0x20 DUP4 ADD SWAP1 DUP1 CALLDATASIZE DUP4 CALLDATACOPY POP POP PUSH1 0x2 SLOAD PUSH1 0x40 DUP1 MLOAD PUSH4 0x15AB88C9 PUSH1 0xE3 SHL DUP2 MSTORE SWAP1 MLOAD SWAP4 SWAP5 POP PUSH1 0x1 PUSH1 0x1 PUSH1 0xA0 SHL SUB SWAP1 SWAP2 AND SWAP3 PUSH4 0xAD5C4648 SWAP3 POP PUSH1 0x4 DUP1 DUP4 ADD SWAP3 PUSH1 0x20 SWAP3 SWAP2 SWAP1 DUP3 SWAP1 SUB ADD DUP2 DUP7 DUP1 EXTCODESIZE ISZERO DUP1 ISZERO PUSH2 0x2632 JUMPI PUSH1 0x0 DUP1 REVERT JUMPDEST POP GAS STATICCALL ISZERO DUP1 ISZERO PUSH2 0x2646 JUMPI RETURNDATASIZE PUSH1 0x0 DUP1 RETURNDATACOPY RETURNDATASIZE PUSH1 0x0 REVERT JUMPDEST POP POP POP POP PUSH1 0x40 MLOAD RETURNDATASIZE PUSH1 0x1F NOT PUSH1 0x1F DUP3 ADD AND DUP3 ADD DUP1 PUSH1 0x40 MSTORE POP DUP2 ADD SWAP1 PUSH2 0x266A SWAP2 SWAP1 PUSH2 0x2D3F JUMP JUMPDEST DUP2 PUSH1 0x0 DUP2 MLOAD DUP2 LT PUSH2 0x267D JUMPI PUSH2 0x267D PUSH2 0x31AC JUMP JUMPDEST PUSH1 0x20 MUL PUSH1 0x20 ADD ADD SWAP1 PUSH1 0x1 PUSH1 0x1 PUSH1 0xA0 SHL SUB AND SWAP1 DUP2 PUSH1 0x1 PUSH1 0x1 PUSH1 0xA0 SHL SUB AND DUP2 MSTORE POP POP DUP12 DUP2 PUSH1 0x1 DUP2 MLOAD DUP2 LT PUSH2 0x26B1 JUMPI PUSH2 0x26B1 PUSH2 0x31AC JUMP JUMPDEST PUSH1 0x1 PUSH1 0x1 PUSH1 0xA0 SHL SUB SWAP3 DUP4 AND PUSH1 0x20 SWAP2 DUP3 MUL SWAP3 SWAP1 SWAP3 ADD ADD MSTORE PUSH1 0x2 SLOAD PUSH1 0x40 MLOAD PUSH4 0xB6F9DE95 PUSH1 0xE0 SHL DUP2 MSTORE SWAP2 AND SWAP1 PUSH4 0xB6F9DE95 SWAP1 DUP10 SWAP1 PUSH2 0x26F7 SWAP1 PUSH1 0x0 SWAP1 DUP7 SWAP1 CALLER SWAP1 TIMESTAMP SWAP1 PUSH1 0x4 ADD PUSH2 0x2FBB JUMP JUMPDEST PUSH1 0x0 PUSH1 0x40 MLOAD DUP1 DUP4 SUB DUP2 DUP6 DUP9 DUP1 EXTCODESIZE ISZERO DUP1 ISZERO PUSH2 0x2710 JUMPI PUSH1 0x0 DUP1 REVERT JUMPDEST POP GAS CALL ISZERO DUP1 ISZERO PUSH2 0x2724 JUMPI RETURNDATASIZE PUSH1 0x0 DUP1 RETURNDATACOPY RETURNDATASIZE PUSH1 0x0 REVERT JUMPDEST POP POP POP POP POP PUSH1 0x0 DUP13 PUSH1 0x1 PUSH1 0x1 PUSH1 0xA0 SHL SUB AND PUSH4 0x70A08231 CALLER PUSH1 0x40 MLOAD DUP3 PUSH4 0xFFFFFFFF AND PUSH1 0xE0 SHL DUP2 MSTORE PUSH1 0x4 ADD PUSH2 0x2766 SWAP2 SWAP1 PUSH1 0x1 PUSH1 0x1 PUSH1 0xA0 SHL SUB SWAP2 SWAP1 SWAP2 AND DUP2 MSTORE PUSH1 0x20 ADD SWAP1 JUMP JUMPDEST PUSH1 0x20 PUSH1 0x40 MLOAD DUP1 DUP4 SUB DUP2 DUP7 DUP1 EXTCODESIZE ISZERO DUP1 ISZERO PUSH2 0x277E JUMPI PUSH1 0x0 DUP1 REVERT JUMPDEST POP GAS STATICCALL ISZERO DUP1 ISZERO PUSH2 0x2792 JUMPI RETURNDATASIZE PUSH1 0x0 DUP1 RETURNDATACOPY RETURNDATASIZE PUSH1 0x0 REVERT JUMPDEST POP POP POP POP PUSH1 0x40 MLOAD RETURNDATASIZE PUSH1 0x1F NOT PUSH1 0x1F DUP3 ADD AND DUP3 ADD DUP1 PUSH1 0x40 MSTORE POP DUP2 ADD SWAP1 PUSH2 0x27B6 SWAP2 SWAP1 PUSH2 0x2E3F JUMP JUMPDEST SWAP1 POP PUSH2 0x27C2 DUP4 DUP3 PUSH2 0x310D JUMP JUMPDEST SWAP8 POP POP POP POP JUMPDEST PUSH1 0x40 MLOAD DUP1 PUSH1 0xE0 ADD PUSH1 0x40 MSTORE DUP1 TIMESTAMP DUP2 MSTORE PUSH1 0x20 ADD PUSH1 0xF SLOAD DUP2 MSTORE PUSH1 0x20 ADD CALLER PUSH1 0x1 PUSH1 0x1 PUSH1 0xA0 SHL SUB AND DUP2 MSTORE PUSH1 0x20 ADD DUP9 DUP2 MSTORE PUSH1 0x20 ADD DUP8 PUSH1 0x1 PUSH1 0x1 PUSH1 0xA0 SHL SUB AND DUP2 MSTORE PUSH1 0x20 ADD DUP7 DUP2 MSTORE PUSH1 0x20 ADD PUSH1 0xA DUP5 DUP2 SLOAD DUP2 LT PUSH2 0x281E JUMPI PUSH2 0x281E PUSH2 0x31AC JUMP JUMPDEST PUSH1 0x0 SWAP2 DUP3 MSTORE PUSH1 0x20 DUP1 DUP4 KECCAK256 SWAP1 SWAP2 ADD SLOAD SWAP1 SWAP3 MSTORE PUSH1 0xF DUP1 SLOAD DUP3 MSTORE PUSH1 0x16 DUP4 MSTORE PUSH1 0x40 SWAP2 DUP3 SWAP1 KECCAK256 DUP5 MLOAD DUP2 SSTORE SWAP3 DUP5 ADD MLOAD PUSH1 0x1 DUP5 ADD SSTORE SWAP1 DUP4 ADD MLOAD PUSH1 0x2 DUP4 ADD DUP1 SLOAD PUSH1 0x1 PUSH1 0x1 PUSH1 0xA0 SHL SUB SWAP3 DUP4 AND PUSH1 0x1 PUSH1 0x1 PUSH1 0xA0 SHL SUB NOT SWAP2 DUP3 AND OR SWAP1 SWAP2 SSTORE PUSH1 0x60 DUP6 ADD MLOAD PUSH1 0x3 DUP6 ADD SSTORE PUSH1 0x80 DUP6 ADD MLOAD PUSH1 0x4 DUP6 ADD DUP1 SLOAD SWAP2 SWAP1 SWAP4 AND SWAP2 AND OR SWAP1 SSTORE PUSH1 0xA0 DUP4 ADD MLOAD PUSH1 0x5 DUP4 ADD SSTORE PUSH1 0xC0 SWAP1 SWAP3 ADD MLOAD PUSH1 0x6 SWAP1 SWAP2 ADD SSTORE SLOAD PUSH1 0xA DUP1 SLOAD PUSH1 0x0 DUP1 MLOAD PUSH1 0x20 PUSH2 0x31FC DUP4 CODECOPY DUP2 MLOAD SWAP2 MSTORE SWAP3 SWAP2 CALLER SWAP2 DUP12 SWAP2 DUP12 SWAP2 DUP12 SWAP2 SWAP1 DUP10 SWAP1 DUP2 LT PUSH2 0x28D4 JUMPI PUSH2 0x28D4 PUSH2 0x31AC JUMP JUMPDEST SWAP1 PUSH1 0x0 MSTORE PUSH1 0x20 PUSH1 0x0 KECCAK256 ADD SLOAD PUSH1 0x40 MLOAD PUSH2 0x28F1 SWAP7 SWAP6 SWAP5 SWAP4 SWAP3 SWAP2 SWAP1 PUSH2 0x3025 JUMP JUMPDEST PUSH1 0x40 MLOAD DUP1 SWAP2 SUB SWAP1 LOG1 PUSH1 0xF SLOAD CALLER DUP9 DUP9 DUP9 PUSH1 0xA DUP8 DUP2 SLOAD DUP2 LT PUSH2 0x2913 JUMPI PUSH2 0x2913 PUSH2 0x31AC JUMP JUMPDEST SWAP1 PUSH1 0x0 MSTORE PUSH1 0x20 PUSH1 0x0 KECCAK256 ADD SLOAD SWAP9 POP SWAP9 POP SWAP9 POP SWAP9 POP SWAP9 POP SWAP9 POP POP POP POP JUMPDEST SWAP2 SWAP4 SWAP6 POP SWAP2 SWAP4 SWAP6 JUMP JUMPDEST PUSH2 0x293F PUSH2 0x2B77 JUMP JUMPDEST PUSH1 0x1 PUSH1 0x1 PUSH1 0xA0 SHL SUB DUP2 AND PUSH2 0x29A4 JUMPI PUSH1 0x40 MLOAD PUSH3 0x461BCD PUSH1 0xE5 SHL DUP2 MSTORE PUSH1 0x20 PUSH1 0x4 DUP3 ADD MSTORE PUSH1 0x26 PUSH1 0x24 DUP3 ADD MSTORE PUSH32 0x4F776E61626C653A206E6577206F776E657220697320746865207A65726F2061 PUSH1 0x44 DUP3 ADD MSTORE PUSH6 0x646472657373 PUSH1 0xD0 SHL PUSH1 0x64 DUP3 ADD MSTORE PUSH1 0x84 ADD PUSH2 0xAE2 JUMP JUMPDEST PUSH2 0x1070 DUP2 PUSH2 0x2BD1 JUMP JUMPDEST PUSH2 0x29B5 PUSH2 0x2B77 JUMP JUMPDEST PUSH1 0x11 DUP1 SLOAD PUSH1 0x1 PUSH1 0x1 PUSH1 0xA0 SHL SUB NOT AND PUSH1 0x1 PUSH1 0x1 PUSH1 0xA0 SHL SUB DUP4 AND SWAP1 DUP2 OR SWAP1 SWAP2 SSTORE PUSH1 0x40 DUP1 MLOAD PUSH4 0xF6A15D71 PUSH1 0xE0 SHL DUP2 MSTORE SWAP1 MLOAD ADDRESS SWAP2 DUP4 SWAP2 PUSH4 0xF6A15D71 SWAP2 PUSH1 0x4 DUP1 DUP3 ADD SWAP3 PUSH1 0x20 SWAP3 SWAP1 SWAP2 SWAP1 DUP3 SWAP1 SUB ADD DUP2 DUP7 DUP1 EXTCODESIZE ISZERO DUP1 ISZERO PUSH2 0x2A0D JUMPI PUSH1 0x0 DUP1 REVERT JUMPDEST POP GAS STATICCALL ISZERO DUP1 ISZERO PUSH2 0x2A21 JUMPI RETURNDATASIZE PUSH1 0x0 DUP1 RETURNDATACOPY RETURNDATASIZE PUSH1 0x0 REVERT JUMPDEST POP POP POP POP PUSH1 0x40 MLOAD RETURNDATASIZE PUSH1 0x1F NOT PUSH1 0x1F DUP3 ADD AND DUP3 ADD DUP1 PUSH1 0x40 MSTORE POP DUP2 ADD SWAP1 PUSH2 0x2A45 SWAP2 SWAP1 PUSH2 0x2D3F JUMP JUMPDEST PUSH1 0x1 PUSH1 0x1 PUSH1 0xA0 SHL SUB AND EQ PUSH2 0x1C4A JUMPI PUSH1 0x40 MLOAD PUSH3 0x461BCD PUSH1 0xE5 SHL DUP2 MSTORE PUSH1 0x20 PUSH1 0x4 DUP3 ADD MSTORE PUSH1 0x22 PUSH1 0x24 DUP3 ADD MSTORE PUSH32 0x4D757374206265207375624F7020666F7220746865204E465420636F6E747261 PUSH1 0x44 DUP3 ADD MSTORE PUSH2 0x18DD PUSH1 0xF2 SHL PUSH1 0x64 DUP3 ADD MSTORE PUSH1 0x84 ADD PUSH2 0xAE2 JUMP JUMPDEST PUSH1 0x0 DUP1 PUSH1 0x0 PUSH1 0xE SLOAD SELFBALANCE PUSH2 0x2AB9 SWAP2 SWAP1 PUSH2 0x310D JUMP JUMPDEST SWAP1 POP PUSH1 0x0 SWAP3 POP PUSH1 0x0 SWAP2 POP PUSH1 0x0 JUMPDEST PUSH1 0xA SLOAD DUP2 LT ISZERO PUSH2 0x2B57 JUMPI PUSH1 0xD SLOAD PUSH1 0xA DUP3 DUP2 SLOAD DUP2 LT PUSH2 0x2AE6 JUMPI PUSH2 0x2AE6 PUSH2 0x31AC JUMP JUMPDEST SWAP1 PUSH1 0x0 MSTORE PUSH1 0x20 PUSH1 0x0 KECCAK256 ADD SLOAD DUP7 PUSH2 0x2AFC SWAP2 SWAP1 PUSH2 0x30EE JUMP JUMPDEST PUSH2 0x2B06 SWAP2 SWAP1 PUSH2 0x30EE JUMP JUMPDEST DUP3 LT PUSH2 0x2B45 JUMPI PUSH2 0x2B17 PUSH1 0x1 DUP6 PUSH2 0x30C2 JUMP JUMPDEST SWAP4 POP PUSH1 0xB DUP2 DUP2 SLOAD DUP2 LT PUSH2 0x2B2C JUMPI PUSH2 0x2B2C PUSH2 0x31AC JUMP JUMPDEST SWAP1 PUSH1 0x0 MSTORE PUSH1 0x20 PUSH1 0x0 KECCAK256 ADD SLOAD DUP4 PUSH2 0x2B42 SWAP2 SWAP1 PUSH2 0x30C2 JUMP JUMPDEST SWAP3 POP JUMPDEST DUP1 PUSH2 0x2B4F DUP2 PUSH2 0x313B JUMP JUMPDEST SWAP2 POP POP PUSH2 0x2AC6 JUMP JUMPDEST POP POP SWAP2 POP SWAP2 JUMP JUMPDEST CALLVALUE PUSH1 0xE PUSH1 0x0 DUP3 DUP3 SLOAD PUSH2 0x2B70 SWAP2 SWAP1 PUSH2 0x30C2 JUMP JUMPDEST SWAP1 SWAP2 SSTORE POP POP JUMP JUMPDEST PUSH1 0x0 SLOAD PUSH1 0x1 PUSH1 0x1 PUSH1 0xA0 SHL SUB AND CALLER EQ PUSH2 0x15F7 JUMPI PUSH1 0x40 MLOAD PUSH3 0x461BCD PUSH1 0xE5 SHL DUP2 MSTORE PUSH1 0x20 PUSH1 0x4 DUP3 ADD DUP2 SWAP1 MSTORE PUSH1 0x24 DUP3 ADD MSTORE PUSH32 0x4F776E61626C653A2063616C6C6572206973206E6F7420746865206F776E6572 PUSH1 0x44 DUP3 ADD MSTORE PUSH1 0x64 ADD PUSH2 0xAE2 JUMP JUMPDEST PUSH1 0x0 DUP1 SLOAD PUSH1 0x1 PUSH1 0x1 PUSH1 0xA0 SHL SUB DUP4 DUP2 AND PUSH1 0x1 PUSH1 0x1 PUSH1 0xA0 SHL SUB NOT DUP4 AND DUP2 OR DUP5 SSTORE PUSH1 0x40 MLOAD SWAP2 SWAP1 SWAP3 AND SWAP3 DUP4 SWAP2 PUSH32 0x8BE0079C531659141344CD1FD0A4F28419497F9722A3DAAFE3B4186F6B6457E0 SWAP2 SWAP1 LOG3 POP POP JUMP JUMPDEST DUP3 DUP1 SLOAD DUP3 DUP3 SSTORE SWAP1 PUSH1 0x0 MSTORE PUSH1 0x20 PUSH1 0x0 KECCAK256 SWAP1 DUP2 ADD SWAP3 DUP3 ISZERO PUSH2 0x2C5C JUMPI SWAP2 PUSH1 0x20 MUL DUP3 ADD JUMPDEST DUP3 DUP2 GT ISZERO PUSH2 0x2C5C JUMPI DUP3 MLOAD DUP3 SSTORE SWAP2 PUSH1 0x20 ADD SWAP2 SWAP1 PUSH1 0x1 ADD SWAP1 PUSH2 0x2C41 JUMP JUMPDEST POP PUSH2 0x2C68 SWAP3 SWAP2 POP PUSH2 0x2C6C JUMP JUMPDEST POP SWAP1 JUMP JUMPDEST JUMPDEST DUP1 DUP3 GT ISZERO PUSH2 0x2C68 JUMPI PUSH1 0x0 DUP2 SSTORE PUSH1 0x1 ADD PUSH2 0x2C6D JUMP JUMPDEST PUSH1 0x0 DUP3 PUSH1 0x1F DUP4 ADD SLT PUSH2 0x2C92 JUMPI PUSH1 0x0 DUP1 REVERT JUMPDEST DUP2 CALLDATALOAD PUSH1 0x20 PUSH8 0xFFFFFFFFFFFFFFFF DUP1 DUP4 GT ISZERO PUSH2 0x2CAF JUMPI PUSH2 0x2CAF PUSH2 0x31C2 JUMP JUMPDEST DUP3 PUSH1 0x5 SHL PUSH1 0x40 MLOAD PUSH1 0x1F NOT PUSH1 0x3F DUP4 ADD AND DUP2 ADD DUP2 DUP2 LT DUP5 DUP3 GT OR ISZERO PUSH2 0x2CD4 JUMPI PUSH2 0x2CD4 PUSH2 0x31C2 JUMP JUMPDEST PUSH1 0x40 MSTORE DUP5 DUP2 MSTORE DUP4 DUP2 ADD SWAP3 POP DUP7 DUP5 ADD DUP3 DUP9 ADD DUP6 ADD DUP10 LT ISZERO PUSH2 0x2CF3 JUMPI PUSH1 0x0 DUP1 REVERT JUMPDEST PUSH1 0x0 SWAP3 POP JUMPDEST DUP6 DUP4 LT ISZERO PUSH2 0x2D16 JUMPI DUP1 CALLDATALOAD DUP5 MSTORE SWAP3 DUP5 ADD SWAP3 PUSH1 0x1 SWAP3 SWAP1 SWAP3 ADD SWAP2 DUP5 ADD PUSH2 0x2CF8 JUMP JUMPDEST POP SWAP8 SWAP7 POP POP POP POP POP POP POP JUMP JUMPDEST PUSH1 0x0 PUSH1 0x20 DUP3 DUP5 SUB SLT ISZERO PUSH2 0x2D34 JUMPI PUSH1 0x0 DUP1 REVERT JUMPDEST DUP2 CALLDATALOAD PUSH2 0x14AA DUP2 PUSH2 0x31D8 JUMP JUMPDEST PUSH1 0x0 PUSH1 0x20 DUP3 DUP5 SUB SLT ISZERO PUSH2 0x2D51 JUMPI PUSH1 0x0 DUP1 REVERT JUMPDEST DUP2 MLOAD PUSH2 0x14AA DUP2 PUSH2 0x31D8 JUMP JUMPDEST PUSH1 0x0 DUP1 PUSH1 0x40 DUP4 DUP6 SUB SLT ISZERO PUSH2 0x2D6F JUMPI PUSH1 0x0 DUP1 REVERT JUMPDEST DUP3 CALLDATALOAD PUSH2 0x2D7A DUP2 PUSH2 0x31D8 JUMP JUMPDEST SWAP5 PUSH1 0x20 SWAP4 SWAP1 SWAP4 ADD CALLDATALOAD SWAP4 POP POP POP JUMP JUMPDEST PUSH1 0x0 DUP1 PUSH1 0x40 DUP4 DUP6 SUB SLT ISZERO PUSH2 0x2D9B JUMPI PUSH1 0x0 DUP1 REVERT JUMPDEST DUP3 CALLDATALOAD PUSH8 0xFFFFFFFFFFFFFFFF DUP1 DUP3 GT ISZERO PUSH2 0x2DB3 JUMPI PUSH1 0x0 DUP1 REVERT JUMPDEST PUSH2 0x2DBF DUP7 DUP4 DUP8 ADD PUSH2 0x2C81 JUMP JUMPDEST SWAP4 POP PUSH1 0x20 DUP6 ADD CALLDATALOAD SWAP2 POP DUP1 DUP3 GT ISZERO PUSH2 0x2DD5 JUMPI PUSH1 0x0 DUP1 REVERT JUMPDEST POP PUSH2 0x2DE2 DUP6 DUP3 DUP7 ADD PUSH2 0x2C81 JUMP JUMPDEST SWAP2 POP POP SWAP3 POP SWAP3 SWAP1 POP JUMP JUMPDEST PUSH1 0x0 PUSH1 0x20 DUP3 DUP5 SUB SLT ISZERO PUSH2 0x2DFE JUMPI PUSH1 0x0 DUP1 REVERT JUMPDEST DUP2 CALLDATALOAD PUSH2 0x14AA DUP2 PUSH2 0x31ED JUMP JUMPDEST PUSH1 0x0 PUSH1 0x20 DUP3 DUP5 SUB SLT ISZERO PUSH2 0x2E1B JUMPI PUSH1 0x0 DUP1 REVERT JUMPDEST DUP2 MLOAD PUSH2 0x14AA DUP2 PUSH2 0x31ED JUMP JUMPDEST PUSH1 0x0 PUSH1 0x20 DUP3 DUP5 SUB SLT ISZERO PUSH2 0x2E38 JUMPI PUSH1 0x0 DUP1 REVERT JUMPDEST POP CALLDATALOAD SWAP2 SWAP1 POP JUMP JUMPDEST PUSH1 0x0 PUSH1 0x20 DUP3 DUP5 SUB SLT ISZERO PUSH2 0x2E51 JUMPI PUSH1 0x0 DUP1 REVERT JUMPDEST POP MLOAD SWAP2 SWAP1 POP JUMP JUMPDEST PUSH1 0x0 DUP1 PUSH1 0x40 DUP4 DUP6 SUB SLT ISZERO PUSH2 0x2E6B JUMPI PUSH1 0x0 DUP1 REVERT JUMPDEST POP POP DUP1 CALLDATALOAD SWAP3 PUSH1 0x20 SWAP1 SWAP2 ADD CALLDATALOAD SWAP2 POP JUMP JUMPDEST PUSH1 0x0 DUP2 MLOAD DUP1 DUP5 MSTORE PUSH1 0x20 DUP1 DUP6 ADD SWAP5 POP DUP1 DUP5 ADD PUSH1 0x0 JUMPDEST DUP4 DUP2 LT ISZERO PUSH2 0x2EAA JUMPI DUP2 MLOAD DUP8 MSTORE SWAP6 DUP3 ADD SWAP6 SWAP1 DUP3 ADD SWAP1 PUSH1 0x1 ADD PUSH2 0x2E8E JUMP JUMPDEST POP SWAP5 SWAP6 SWAP5 POP POP POP POP POP JUMP JUMPDEST PUSH1 0x20 DUP1 DUP3 MSTORE DUP3 MLOAD DUP3 DUP3 ADD DUP2 SWAP1 MSTORE PUSH1 0x0 SWAP2 SWAP1 PUSH1 0x40 SWAP1 DUP2 DUP6 ADD SWAP1 DUP7 DUP5 ADD DUP6 JUMPDEST DUP3 DUP2 LT ISZERO PUSH2 0x2F2B JUMPI DUP2 MLOAD DUP1 MLOAD DUP6 MSTORE DUP7 DUP2 ADD MLOAD DUP8 DUP7 ADD MSTORE DUP6 DUP2 ADD MLOAD PUSH1 0x1 PUSH1 0x1 PUSH1 0xA0 SHL SUB AND DUP7 DUP7 ADD MSTORE PUSH1 0x60 DUP1 DUP3 ADD MLOAD SWAP1 DUP7 ADD MSTORE PUSH1 0x80 DUP1 DUP3 ADD MLOAD ISZERO ISZERO SWAP1 DUP7 ADD MSTORE PUSH1 0xA0 SWAP1 DUP2 ADD MLOAD SWAP1 DUP6 ADD MSTORE PUSH1 0xC0 SWAP1 SWAP4 ADD SWAP3 SWAP1 DUP6 ADD SWAP1 PUSH1 0x1 ADD PUSH2 0x2ED2 JUMP JUMPDEST POP SWAP2 SWAP8 SWAP7 POP POP POP POP POP POP POP JUMP JUMPDEST PUSH1 0x20 DUP1 DUP3 MSTORE DUP3 MLOAD DUP3 DUP3 ADD DUP2 SWAP1 MSTORE PUSH1 0x0 SWAP2 SWAP1 PUSH1 0x40 SWAP1 DUP2 DUP6 ADD SWAP1 DUP7 DUP5 ADD DUP6 JUMPDEST DUP3 DUP2 LT ISZERO PUSH2 0x2F2B JUMPI DUP2 MLOAD DUP1 MLOAD DUP6 MSTORE DUP7 DUP2 ADD MLOAD DUP8 DUP7 ADD MSTORE DUP6 DUP2 ADD MLOAD PUSH1 0x1 PUSH1 0x1 PUSH1 0xA0 SHL SUB SWAP1 DUP2 AND DUP8 DUP8 ADD MSTORE PUSH1 0x60 DUP1 DUP4 ADD MLOAD SWAP1 DUP8 ADD MSTORE PUSH1 0x80 DUP1 DUP4 ADD MLOAD SWAP1 SWAP2 AND SWAP1 DUP7 ADD MSTORE PUSH1 0xA0 DUP1 DUP3 ADD MLOAD SWAP1 DUP7 ADD MSTORE PUSH1 0xC0 SWAP1 DUP2 ADD MLOAD SWAP1 DUP6 ADD MSTORE PUSH1 0xE0 SWAP1 SWAP4 ADD SWAP3 SWAP1 DUP6 ADD SWAP1 PUSH1 0x1 ADD PUSH2 0x2F55 JUMP JUMPDEST PUSH1 0x0 PUSH1 0x80 DUP3 ADD DUP7 DUP4 MSTORE PUSH1 0x20 PUSH1 0x80 DUP2 DUP6 ADD MSTORE DUP2 DUP8 MLOAD DUP1 DUP5 MSTORE PUSH1 0xA0 DUP7 ADD SWAP2 POP DUP3 DUP10 ADD SWAP4 POP PUSH1 0x0 JUMPDEST DUP2 DUP2 LT ISZERO PUSH2 0x3005 JUMPI DUP5 MLOAD PUSH1 0x1 PUSH1 0x1 PUSH1 0xA0 SHL SUB AND DUP4 MSTORE SWAP4 DUP4 ADD SWAP4 SWAP2 DUP4 ADD SWAP2 PUSH1 0x1 ADD PUSH2 0x2FE0 JUMP JUMPDEST POP POP PUSH1 0x1 PUSH1 0x1 PUSH1 0xA0 SHL SUB SWAP7 SWAP1 SWAP7 AND PUSH1 0x40 DUP6 ADD MSTORE POP POP POP PUSH1 0x60 ADD MSTORE SWAP3 SWAP2 POP POP JUMP JUMPDEST SWAP6 DUP7 MSTORE PUSH1 0x1 PUSH1 0x1 PUSH1 0xA0 SHL SUB SWAP5 DUP6 AND PUSH1 0x20 DUP8 ADD MSTORE PUSH1 0x40 DUP7 ADD SWAP4 SWAP1 SWAP4 MSTORE SWAP3 AND PUSH1 0x60 DUP5 ADD MSTORE PUSH1 0x80 DUP4 ADD SWAP2 SWAP1 SWAP2 MSTORE PUSH1 0xA0 DUP3 ADD MSTORE PUSH1 0xC0 ADD SWAP1 JUMP JUMPDEST PUSH1 0x0 PUSH2 0x140 DUP13 DUP4 MSTORE DUP12 PUSH1 0x20 DUP5 ADD MSTORE DUP11 PUSH1 0x40 DUP5 ADD MSTORE DUP10 PUSH1 0x60 DUP5 ADD MSTORE DUP9 PUSH1 0x80 DUP5 ADD MSTORE DUP1 PUSH1 0xA0 DUP5 ADD MSTORE PUSH2 0x308C DUP2 DUP5 ADD DUP10 PUSH2 0x2E7A JUMP JUMPDEST SWAP1 POP DUP7 PUSH1 0xC0 DUP5 ADD MSTORE DUP3 DUP2 SUB PUSH1 0xE0 DUP5 ADD MSTORE PUSH2 0x30A6 DUP2 DUP8 PUSH2 0x2E7A JUMP JUMPDEST PUSH2 0x100 DUP5 ADD SWAP6 SWAP1 SWAP6 MSTORE POP POP PUSH2 0x120 ADD MSTORE SWAP9 SWAP8 POP POP POP POP POP POP POP POP JUMP JUMPDEST PUSH1 0x0 DUP3 NOT DUP3 GT ISZERO PUSH2 0x30D5 JUMPI PUSH2 0x30D5 PUSH2 0x316A JUMP JUMPDEST POP ADD SWAP1 JUMP JUMPDEST PUSH1 0x0 DUP3 PUSH2 0x30E9 JUMPI PUSH2 0x30E9 PUSH2 0x3180 JUMP JUMPDEST POP DIV SWAP1 JUMP JUMPDEST PUSH1 0x0 DUP2 PUSH1 0x0 NOT DIV DUP4 GT DUP3 ISZERO ISZERO AND ISZERO PUSH2 0x3108 JUMPI PUSH2 0x3108 PUSH2 0x316A JUMP JUMPDEST POP MUL SWAP1 JUMP JUMPDEST PUSH1 0x0 DUP3 DUP3 LT ISZERO PUSH2 0x311F JUMPI PUSH2 0x311F PUSH2 0x316A JUMP JUMPDEST POP SUB SWAP1 JUMP JUMPDEST PUSH1 0x0 DUP2 PUSH2 0x3133 JUMPI PUSH2 0x3133 PUSH2 0x316A JUMP JUMPDEST POP PUSH1 0x0 NOT ADD SWAP1 JUMP JUMPDEST PUSH1 0x0 PUSH1 0x0 NOT DUP3 EQ ISZERO PUSH2 0x314F JUMPI PUSH2 0x314F PUSH2 0x316A JUMP JUMPDEST POP PUSH1 0x1 ADD SWAP1 JUMP JUMPDEST PUSH1 0x0 DUP3 PUSH2 0x3165 JUMPI PUSH2 0x3165 PUSH2 0x3180 JUMP JUMPDEST POP MOD SWAP1 JUMP JUMPDEST PUSH4 0x4E487B71 PUSH1 0xE0 SHL PUSH1 0x0 MSTORE PUSH1 0x11 PUSH1 0x4 MSTORE PUSH1 0x24 PUSH1 0x0 REVERT JUMPDEST PUSH4 0x4E487B71 PUSH1 0xE0 SHL PUSH1 0x0 MSTORE PUSH1 0x12 PUSH1 0x4 MSTORE PUSH1 0x24 PUSH1 0x0 REVERT JUMPDEST PUSH4 0x4E487B71 PUSH1 0xE0 SHL PUSH1 0x0 MSTORE PUSH1 0x31 PUSH1 0x4 MSTORE PUSH1 0x24 PUSH1 0x0 REVERT JUMPDEST PUSH4 0x4E487B71 PUSH1 0xE0 SHL PUSH1 0x0 MSTORE PUSH1 0x32 PUSH1 0x4 MSTORE PUSH1 0x24 PUSH1 0x0 REVERT JUMPDEST PUSH4 0x4E487B71 PUSH1 0xE0 SHL PUSH1 0x0 MSTORE PUSH1 0x41 PUSH1 0x4 MSTORE PUSH1 0x24 PUSH1 0x0 REVERT JUMPDEST PUSH1 0x1 PUSH1 0x1 PUSH1 0xA0 SHL SUB DUP2 AND DUP2 EQ PUSH2 0x1070 JUMPI PUSH1 0x0 DUP1 REVERT JUMPDEST DUP1 ISZERO ISZERO DUP2 EQ PUSH2 0x1070 JUMPI PUSH1 0x0 DUP1 REVERT INVALID 0x28 0x1F CALLDATALOAD 0xB2 ADDMOD 0xC7 MUL 0xE3 ISZERO CREATE2 0xE0 DUP2 0xC0 PUSH18 0xBA0EBB3F2D13B733A13592E3F20CE9D924BA LOG2 PUSH5 0x6970667358 0x22 SLT KECCAK256 0xE2 SWAP10 ORIGIN SWAP4 0xDD BYTE 0x4A 0xC8 0x21 0xD5 0xD9 0x4F 0xA6 0xE2 CREATE2 PUSH28 0xA0FFB686A88DD7D9EA619EDDF975B52964736F6C6343000807003300 "
		},
		"gasEstimates": {
			"creation": {
				"codeDepositCost": "2576200",
				"executionCost": "infinite",
				"totalCost": "infinite"
			},
			"external": {
				"JackPot()": "infinite",
				"addFreePlay(address,uint256)": "73434",
				"addPayToken(address)": "77551",
				"blackList(uint256)": "4736",
				"buyScratcher(address)": "infinite",
				"chancePer()": "2428",
				"changeRNG(address)": "26818",
				"changeRouter(address)": "26885",
				"currentNFT()": "2372",
				"devFee()": "2406",
				"freePlay(address,uint256)": "4828",
				"getMaxWinSize(uint256)": "infinite",
				"howManyFP(address)": "2603",
				"info()": "infinite",
				"injectJackPot()": "24546",
				"isPaused()": "2443",
				"jackPot()": "2451",
				"jackPotChance()": "2451",
				"jackPotCostBNB()": "2385",
				"jackPotFee()": "2340",
				"jackPotHistory(uint256)": "13223",
				"jackPotTicketNumber()": "2450",
				"multiplier(uint256)": "4666",
				"odds(uint256)": "4709",
				"owner()": "2432",
				"pauseGames(bool)": "26799",
				"payTokens(uint256)": "4672",
				"pickTicket(uint256)": "infinite",
				"reducejackPot(uint256)": "infinite",
				"removePayToken(address)": "infinite",
				"renounceOwnership()": "infinite",
				"rng(uint256)": "infinite",
				"safetyMultiplier()": "2406",
				"scratchHistory(uint256)": "15423",
				"setBets(uint256,uint256)": "46736",
				"setDevFee(uint256)": "24579",
				"setJackPotChance(uint256)": "24555",
				"setJackPotFee(uint256)": "24579",
				"setNFT(address)": "infinite",
				"setRNG(address)": "26819",
				"setSafetyMultiplier(uint256)": "24637",
				"setjackpotCost(uint256)": "24600",
				"setupPerThousand(uint256[],uint256[])": "infinite",
				"ticketNumber()": "2362",
				"transferOwnership(address)": "infinite",
				"viewJackPotHistory(uint256)": "infinite",
				"viewScratcherHistory(uint256)": "infinite",
				"withdrawALL_BNB()": "infinite",
				"withdrawBNB(uint256)": "infinite",
				"withdrawlToken(address,uint256)": "infinite"
			}
		},
		"methodIdentifiers": {
			"JackPot()": "0a2282ae",
			"addFreePlay(address,uint256)": "ae0ae8af",
			"addPayToken(address)": "a9cf2ed3",
			"blackList(uint256)": "709ec8b4",
			"buyScratcher(address)": "e45feaa4",
			"chancePer()": "d8f56bb6",
			"changeRNG(address)": "c562a684",
			"changeRouter(address)": "340ac20f",
			"currentNFT()": "35593286",
			"devFee()": "6827e764",
			"freePlay(address,uint256)": "1cc05606",
			"getMaxWinSize(uint256)": "fc96b65e",
			"howManyFP(address)": "4c3abcfc",
			"info()": "370158ea",
			"injectJackPot()": "fde3549d",
			"isPaused()": "b187bd26",
			"jackPot()": "4a78cdba",
			"jackPotChance()": "9980f725",
			"jackPotCostBNB()": "80d97810",
			"jackPotFee()": "b3a42e03",
			"jackPotHistory(uint256)": "9a22e550",
			"jackPotTicketNumber()": "b2a82044",
			"multiplier(uint256)": "05e30f51",
			"odds(uint256)": "46156ea0",
			"owner()": "8da5cb5b",
			"pauseGames(bool)": "4da92800",
			"payTokens(uint256)": "0535020d",
			"pickTicket(uint256)": "0b336a71",
			"reducejackPot(uint256)": "026108da",
			"removePayToken(address)": "dbf14fbe",
			"renounceOwnership()": "715018a6",
			"rng(uint256)": "53f836db",
			"safetyMultiplier()": "d57f1d9b",
			"scratchHistory(uint256)": "4595eb6e",
			"setBets(uint256,uint256)": "0836ec1d",
			"setDevFee(uint256)": "1c75b6b2",
			"setJackPotChance(uint256)": "9a2967f7",
			"setJackPotFee(uint256)": "4a9fdb0f",
			"setNFT(address)": "f56e9c66",
			"setRNG(address)": "3b84edbd",
			"setSafetyMultiplier(uint256)": "e1b8cf82",
			"setjackpotCost(uint256)": "1eaa6a00",
			"setupPerThousand(uint256[],uint256[])": "62102a5f",
			"ticketNumber()": "c54c7da6",
			"transferOwnership(address)": "f2fde38b",
			"viewJackPotHistory(uint256)": "980c1dbb",
			"viewScratcherHistory(uint256)": "db6e2644",
			"withdrawALL_BNB()": "74ca5477",
			"withdrawBNB(uint256)": "127f4b2e",
			"withdrawlToken(address,uint256)": "2c1ef96a"
		}
	},
	"abi": [
		{
			"inputs": [
				{
					"internalType": "address",
					"name": "_router",
					"type": "address"
				},
				{
					"internalType": "address",
					"name": "_rng",
					"type": "address"
				},
				{
					"internalType": "address",
					"name": "_marsFactory",
					"type": "address"
				}
			],
			"stateMutability": "nonpayable",
			"type": "constructor"
		},
		{
			"anonymous": false,
			"inputs": [
				{
					"indexed": false,
					"internalType": "uint256",
					"name": "ticketNumber",
					"type": "uint256"
				},
				{
					"indexed": false,
					"internalType": "address",
					"name": "player",
					"type": "address"
				},
				{
					"indexed": false,
					"internalType": "uint256",
					"name": "addToPot",
					"type": "uint256"
				},
				{
					"indexed": false,
					"internalType": "bool",
					"name": "isWinner",
					"type": "bool"
				},
				{
					"indexed": false,
					"internalType": "uint256",
					"name": "_amount",
					"type": "uint256"
				}
			],
			"name": "JackPotPurchase",
			"type": "event"
		},
		{
			"anonymous": false,
			"inputs": [
				{
					"indexed": true,
					"internalType": "address",
					"name": "previousOwner",
					"type": "address"
				},
				{
					"indexed": true,
					"internalType": "address",
					"name": "newOwner",
					"type": "address"
				}
			],
			"name": "OwnershipTransferred",
			"type": "event"
		},
		{
			"anonymous": false,
			"inputs": [
				{
					"indexed": false,
					"internalType": "uint256",
					"name": "ticketNumber",
					"type": "uint256"
				},
				{
					"indexed": false,
					"internalType": "address",
					"name": "player",
					"type": "address"
				},
				{
					"indexed": false,
					"internalType": "uint256",
					"name": "addToPot",
					"type": "uint256"
				},
				{
					"indexed": false,
					"internalType": "address",
					"name": "token",
					"type": "address"
				},
				{
					"indexed": false,
					"internalType": "uint256",
					"name": "amount",
					"type": "uint256"
				},
				{
					"indexed": false,
					"internalType": "uint256",
					"name": "_multiplier",
					"type": "uint256"
				}
			],
			"name": "ticketPurchase",
			"type": "event"
		},
		{
			"inputs": [],
			"name": "JackPot",
			"outputs": [
				{
					"internalType": "uint256",
					"name": "ticket",
					"type": "uint256"
				},
				{
					"internalType": "address",
					"name": "player",
					"type": "address"
				},
				{
					"internalType": "uint256",
					"name": "addToJackPot",
					"type": "uint256"
				},
				{
					"internalType": "bool",
					"name": "isWinner",
					"type": "bool"
				},
				{
					"internalType": "uint256",
					"name": "_amount",
					"type": "uint256"
				}
			],
			"stateMutability": "payable",
			"type": "function"
		},
		{
			"inputs": [
				{
					"internalType": "address",
					"name": "_user",
					"type": "address"
				},
				{
					"internalType": "uint256",
					"name": "bet",
					"type": "uint256"
				}
			],
			"name": "addFreePlay",
			"outputs": [],
			"stateMutability": "nonpayable",
			"type": "function"
		},
		{
			"inputs": [
				{
					"internalType": "address",
					"name": "_payToken",
					"type": "address"
				}
			],
			"name": "addPayToken",
			"outputs": [],
			"stateMutability": "nonpayable",
			"type": "function"
		},
		{
			"inputs": [
				{
					"internalType": "uint256",
					"name": "",
					"type": "uint256"
				}
			],
			"name": "blackList",
			"outputs": [
				{
					"internalType": "address",
					"name": "",
					"type": "address"
				}
			],
			"stateMutability": "view",
			"type": "function"
		},
		{
			"inputs": [
				{
					"internalType": "address",
					"name": "_payToken",
					"type": "address"
				}
			],
			"name": "buyScratcher",
			"outputs": [
				{
					"internalType": "uint256",
					"name": "ticket",
					"type": "uint256"
				},
				{
					"internalType": "address",
					"name": "player",
					"type": "address"
				},
				{
					"internalType": "uint256",
					"name": "addToPot",
					"type": "uint256"
				},
				{
					"internalType": "address",
					"name": "token",
					"type": "address"
				},
				{
					"internalType": "uint256",
					"name": "amount",
					"type": "uint256"
				},
				{
					"internalType": "uint256",
					"name": "_multiplier",
					"type": "uint256"
				}
			],
			"stateMutability": "payable",
			"type": "function"
		},
		{
			"inputs": [],
			"name": "chancePer",
			"outputs": [
				{
					"internalType": "uint256",
					"name": "",
					"type": "uint256"
				}
			],
			"stateMutability": "view",
			"type": "function"
		},
		{
			"inputs": [
				{
					"internalType": "address",
					"name": "RNG",
					"type": "address"
				}
			],
			"name": "changeRNG",
			"outputs": [],
			"stateMutability": "nonpayable",
			"type": "function"
		},
		{
			"inputs": [
				{
					"internalType": "address",
					"name": "_router",
					"type": "address"
				}
			],
			"name": "changeRouter",
			"outputs": [],
			"stateMutability": "nonpayable",
			"type": "function"
		},
		{
			"inputs": [],
			"name": "currentNFT",
			"outputs": [
				{
					"internalType": "address",
					"name": "",
					"type": "address"
				}
			],
			"stateMutability": "view",
			"type": "function"
		},
		{
			"inputs": [],
			"name": "devFee",
			"outputs": [
				{
					"internalType": "uint256",
					"name": "",
					"type": "uint256"
				}
			],
			"stateMutability": "view",
			"type": "function"
		},
		{
			"inputs": [
				{
					"internalType": "address",
					"name": "",
					"type": "address"
				},
				{
					"internalType": "uint256",
					"name": "",
					"type": "uint256"
				}
			],
			"name": "freePlay",
			"outputs": [
				{
					"internalType": "uint256",
					"name": "",
					"type": "uint256"
				}
			],
			"stateMutability": "view",
			"type": "function"
		},
		{
			"inputs": [
				{
					"internalType": "uint256",
					"name": "bet",
					"type": "uint256"
				}
			],
			"name": "getMaxWinSize",
			"outputs": [
				{
					"internalType": "uint256",
					"name": "av_Winners",
					"type": "uint256"
				},
				{
					"internalType": "uint256",
					"name": "newChancePer",
					"type": "uint256"
				}
			],
			"stateMutability": "view",
			"type": "function"
		},
		{
			"inputs": [
				{
					"internalType": "address",
					"name": "",
					"type": "address"
				}
			],
			"name": "howManyFP",
			"outputs": [
				{
					"internalType": "uint256",
					"name": "",
					"type": "uint256"
				}
			],
			"stateMutability": "view",
			"type": "function"
		},
		{
			"inputs": [],
			"name": "info",
			"outputs": [
				{
					"internalType": "uint256",
					"name": "_minBet",
					"type": "uint256"
				},
				{
					"internalType": "uint256",
					"name": "_maxBet",
					"type": "uint256"
				},
				{
					"internalType": "uint256",
					"name": "_avlFunds",
					"type": "uint256"
				},
				{
					"internalType": "uint256",
					"name": "_sm",
					"type": "uint256"
				},
				{
					"internalType": "uint256",
					"name": "_jackPotCostBNB",
					"type": "uint256"
				},
				{
					"internalType": "uint256[]",
					"name": "_chances",
					"type": "uint256[]"
				},
				{
					"internalType": "uint256",
					"name": "_totalChance",
					"type": "uint256"
				},
				{
					"internalType": "uint256[]",
					"name": "_multipliers",
					"type": "uint256[]"
				},
				{
					"internalType": "uint256",
					"name": "_jackPot",
					"type": "uint256"
				},
				{
					"internalType": "uint256",
					"name": "_jackPotChance",
					"type": "uint256"
				}
			],
			"stateMutability": "view",
			"type": "function"
		},
		{
			"inputs": [],
			"name": "injectJackPot",
			"outputs": [],
			"stateMutability": "payable",
			"type": "function"
		},
		{
			"inputs": [],
			"name": "isPaused",
			"outputs": [
				{
					"internalType": "bool",
					"name": "",
					"type": "bool"
				}
			],
			"stateMutability": "view",
			"type": "function"
		},
		{
			"inputs": [],
			"name": "jackPot",
			"outputs": [
				{
					"internalType": "uint256",
					"name": "",
					"type": "uint256"
				}
			],
			"stateMutability": "view",
			"type": "function"
		},
		{
			"inputs": [],
			"name": "jackPotChance",
			"outputs": [
				{
					"internalType": "uint256",
					"name": "",
					"type": "uint256"
				}
			],
			"stateMutability": "view",
			"type": "function"
		},
		{
			"inputs": [],
			"name": "jackPotCostBNB",
			"outputs": [
				{
					"internalType": "uint256",
					"name": "",
					"type": "uint256"
				}
			],
			"stateMutability": "view",
			"type": "function"
		},
		{
			"inputs": [],
			"name": "jackPotFee",
			"outputs": [
				{
					"internalType": "uint256",
					"name": "",
					"type": "uint256"
				}
			],
			"stateMutability": "view",
			"type": "function"
		},
		{
			"inputs": [
				{
					"internalType": "uint256",
					"name": "",
					"type": "uint256"
				}
			],
			"name": "jackPotHistory",
			"outputs": [
				{
					"internalType": "uint256",
					"name": "time",
					"type": "uint256"
				},
				{
					"internalType": "uint256",
					"name": "ticket",
					"type": "uint256"
				},
				{
					"internalType": "address",
					"name": "player",
					"type": "address"
				},
				{
					"internalType": "uint256",
					"name": "addToPot",
					"type": "uint256"
				},
				{
					"internalType": "bool",
					"name": "isWinner",
					"type": "bool"
				},
				{
					"internalType": "uint256",
					"name": "_amount",
					"type": "uint256"
				}
			],
			"stateMutability": "view",
			"type": "function"
		},
		{
			"inputs": [],
			"name": "jackPotTicketNumber",
			"outputs": [
				{
					"internalType": "uint256",
					"name": "",
					"type": "uint256"
				}
			],
			"stateMutability": "view",
			"type": "function"
		},
		{
			"inputs": [
				{
					"internalType": "uint256",
					"name": "",
					"type": "uint256"
				}
			],
			"name": "multiplier",
			"outputs": [
				{
					"internalType": "uint256",
					"name": "",
					"type": "uint256"
				}
			],
			"stateMutability": "view",
			"type": "function"
		},
		{
			"inputs": [
				{
					"internalType": "uint256",
					"name": "",
					"type": "uint256"
				}
			],
			"name": "odds",
			"outputs": [
				{
					"internalType": "uint256",
					"name": "",
					"type": "uint256"
				}
			],
			"stateMutability": "view",
			"type": "function"
		},
		{
			"inputs": [],
			"name": "owner",
			"outputs": [
				{
					"internalType": "address",
					"name": "",
					"type": "address"
				}
			],
			"stateMutability": "view",
			"type": "function"
		},
		{
			"inputs": [
				{
					"internalType": "bool",
					"name": "_isPaused",
					"type": "bool"
				}
			],
			"name": "pauseGames",
			"outputs": [],
			"stateMutability": "nonpayable",
			"type": "function"
		},
		{
			"inputs": [
				{
					"internalType": "uint256",
					"name": "",
					"type": "uint256"
				}
			],
			"name": "payTokens",
			"outputs": [
				{
					"internalType": "address",
					"name": "",
					"type": "address"
				}
			],
			"stateMutability": "view",
			"type": "function"
		},
		{
			"inputs": [
				{
					"internalType": "uint256",
					"name": "_bet",
					"type": "uint256"
				}
			],
			"name": "pickTicket",
			"outputs": [
				{
					"internalType": "uint256",
					"name": "ticketPicked",
					"type": "uint256"
				},
				{
					"internalType": "bool",
					"name": "isToken",
					"type": "bool"
				}
			],
			"stateMutability": "nonpayable",
			"type": "function"
		},
		{
			"inputs": [
				{
					"internalType": "uint256",
					"name": "_amount",
					"type": "uint256"
				}
			],
			"name": "reducejackPot",
			"outputs": [],
			"stateMutability": "nonpayable",
			"type": "function"
		},
		{
			"inputs": [
				{
					"internalType": "address",
					"name": "_payToken",
					"type": "address"
				}
			],
			"name": "removePayToken",
			"outputs": [],
			"stateMutability": "nonpayable",
			"type": "function"
		},
		{
			"inputs": [],
			"name": "renounceOwnership",
			"outputs": [],
			"stateMutability": "nonpayable",
			"type": "function"
		},
		{
			"inputs": [
				{
					"internalType": "uint256",
					"name": "mod",
					"type": "uint256"
				}
			],
			"name": "rng",
			"outputs": [
				{
					"internalType": "uint256",
					"name": "value",
					"type": "uint256"
				}
			],
			"stateMutability": "nonpayable",
			"type": "function"
		},
		{
			"inputs": [],
			"name": "safetyMultiplier",
			"outputs": [
				{
					"internalType": "uint256",
					"name": "",
					"type": "uint256"
				}
			],
			"stateMutability": "view",
			"type": "function"
		},
		{
			"inputs": [
				{
					"internalType": "uint256",
					"name": "",
					"type": "uint256"
				}
			],
			"name": "scratchHistory",
			"outputs": [
				{
					"internalType": "uint256",
					"name": "time",
					"type": "uint256"
				},
				{
					"internalType": "uint256",
					"name": "ticket",
					"type": "uint256"
				},
				{
					"internalType": "address",
					"name": "player",
					"type": "address"
				},
				{
					"internalType": "uint256",
					"name": "addToPot",
					"type": "uint256"
				},
				{
					"internalType": "address",
					"name": "token",
					"type": "address"
				},
				{
					"internalType": "uint256",
					"name": "amount",
					"type": "uint256"
				},
				{
					"internalType": "uint256",
					"name": "ticketValue",
					"type": "uint256"
				}
			],
			"stateMutability": "view",
			"type": "function"
		},
		{
			"inputs": [
				{
					"internalType": "uint256",
					"name": "_newMin",
					"type": "uint256"
				},
				{
					"internalType": "uint256",
					"name": "_newMax",
					"type": "uint256"
				}
			],
			"name": "setBets",
			"outputs": [],
			"stateMutability": "nonpayable",
			"type": "function"
		},
		{
			"inputs": [
				{
					"internalType": "uint256",
					"name": "newDevFee",
					"type": "uint256"
				}
			],
			"name": "setDevFee",
			"outputs": [],
			"stateMutability": "nonpayable",
			"type": "function"
		},
		{
			"inputs": [
				{
					"internalType": "uint256",
					"name": "newJackPotChance",
					"type": "uint256"
				}
			],
			"name": "setJackPotChance",
			"outputs": [],
			"stateMutability": "nonpayable",
			"type": "function"
		},
		{
			"inputs": [
				{
					"internalType": "uint256",
					"name": "newjackPotFee",
					"type": "uint256"
				}
			],
			"name": "setJackPotFee",
			"outputs": [],
			"stateMutability": "nonpayable",
			"type": "function"
		},
		{
			"inputs": [
				{
					"internalType": "address",
					"name": "newNFTContract",
					"type": "address"
				}
			],
			"name": "setNFT",
			"outputs": [],
			"stateMutability": "nonpayable",
			"type": "function"
		},
		{
			"inputs": [
				{
					"internalType": "address",
					"name": "newRNG",
					"type": "address"
				}
			],
			"name": "setRNG",
			"outputs": [],
			"stateMutability": "nonpayable",
			"type": "function"
		},
		{
			"inputs": [
				{
					"internalType": "uint256",
					"name": "newSafety",
					"type": "uint256"
				}
			],
			"name": "setSafetyMultiplier",
			"outputs": [],
			"stateMutability": "nonpayable",
			"type": "function"
		},
		{
			"inputs": [
				{
					"internalType": "uint256",
					"name": "newJackPotCost",
					"type": "uint256"
				}
			],
			"name": "setjackpotCost",
			"outputs": [],
			"stateMutability": "nonpayable",
			"type": "function"
		},
		{
			"inputs": [
				{
					"internalType": "uint256[]",
					"name": "_multiplier",
					"type": "uint256[]"
				},
				{
					"internalType": "uint256[]",
					"name": "_odds",
					"type": "uint256[]"
				}
			],
			"name": "setupPerThousand",
			"outputs": [],
			"stateMutability": "nonpayable",
			"type": "function"
		},
		{
			"inputs": [],
			"name": "ticketNumber",
			"outputs": [
				{
					"internalType": "uint256",
					"name": "",
					"type": "uint256"
				}
			],
			"stateMutability": "view",
			"type": "function"
		},
		{
			"inputs": [
				{
					"internalType": "address",
					"name": "newOwner",
					"type": "address"
				}
			],
			"name": "transferOwnership",
			"outputs": [],
			"stateMutability": "nonpayable",
			"type": "function"
		},
		{
			"inputs": [
				{
					"internalType": "uint256",
					"name": "timeToCheckTo",
					"type": "uint256"
				}
			],
			"name": "viewJackPotHistory",
			"outputs": [
				{
					"components": [
						{
							"internalType": "uint256",
							"name": "time",
							"type": "uint256"
						},
						{
							"internalType": "uint256",
							"name": "ticket",
							"type": "uint256"
						},
						{
							"internalType": "address",
							"name": "player",
							"type": "address"
						},
						{
							"internalType": "uint256",
							"name": "addToPot",
							"type": "uint256"
						},
						{
							"internalType": "bool",
							"name": "isWinner",
							"type": "bool"
						},
						{
							"internalType": "uint256",
							"name": "_amount",
							"type": "uint256"
						}
					],
					"internalType": "struct Scratchers.HistoryJ[]",
					"name": "jHistory",
					"type": "tuple[]"
				}
			],
			"stateMutability": "view",
			"type": "function"
		},
		{
			"inputs": [
				{
					"internalType": "uint256",
					"name": "timeToCheckTo",
					"type": "uint256"
				}
			],
			"name": "viewScratcherHistory",
			"outputs": [
				{
					"components": [
						{
							"internalType": "uint256",
							"name": "time",
							"type": "uint256"
						},
						{
							"internalType": "uint256",
							"name": "ticket",
							"type": "uint256"
						},
						{
							"internalType": "address",
							"name": "player",
							"type": "address"
						},
						{
							"internalType": "uint256",
							"name": "addToPot",
							"type": "uint256"
						},
						{
							"internalType": "address",
							"name": "token",
							"type": "address"
						},
						{
							"internalType": "uint256",
							"name": "amount",
							"type": "uint256"
						},
						{
							"internalType": "uint256",
							"name": "ticketValue",
							"type": "uint256"
						}
					],
					"internalType": "struct Scratchers.History[]",
					"name": "sHistory",
					"type": "tuple[]"
				}
			],
			"stateMutability": "view",
			"type": "function"
		},
		{
			"inputs": [],
			"name": "withdrawALL_BNB",
			"outputs": [],
			"stateMutability": "nonpayable",
			"type": "function"
		},
		{
			"inputs": [
				{
					"internalType": "uint256",
					"name": "_amount",
					"type": "uint256"
				}
			],
			"name": "withdrawBNB",
			"outputs": [],
			"stateMutability": "nonpayable",
			"type": "function"
		},
		{
			"inputs": [
				{
					"internalType": "address",
					"name": "_tokenAddress",
					"type": "address"
				},
				{
					"internalType": "uint256",
					"name": "_amount",
					"type": "uint256"
				}
			],
			"name": "withdrawlToken",
			"outputs": [],
			"stateMutability": "nonpayable",
			"type": "function"
		},
		{
			"stateMutability": "payable",
			"type": "receive"
		}
	]
}