{
  "_format": "hh-sol-artifact-1",
  "contractName": "othersRouter",
  "sourceName": "contracts/Mswap3rdPartyRouter.sol",
  "abi": [
    {
      "inputs": [
        {
          "internalType": "address",
          "name": "_factory",
          "type": "address"
        },
        {
          "internalType": "address",
          "name": "_WETH",
          "type": "address"
        },
        {
          "internalType": "address",
          "name": "_marsFactory",
          "type": "address"
        }
      ],
      "stateMutability": "nonpayable",
      "type": "constructor"
    },
    {
      "anonymous": false,
      "inputs": [
        {
          "indexed": true,
          "internalType": "address",
          "name": "previousOwner",
          "type": "address"
        },
        {
          "indexed": true,
          "internalType": "address",
          "name": "newOwner",
          "type": "address"
        }
      ],
      "name": "OwnershipTransferred",
      "type": "event"
    },
    {
      "inputs": [],
      "name": "WETH",
      "outputs": [
        {
          "internalType": "address",
          "name": "",
          "type": "address"
        }
      ],
      "stateMutability": "view",
      "type": "function"
    },
    {
      "inputs": [
        {
          "internalType": "address",
          "name": "tokenA",
          "type": "address"
        },
        {
          "internalType": "address",
          "name": "tokenB",
          "type": "address"
        },
        {
          "internalType": "uint256",
          "name": "amountADesired",
          "type": "uint256"
        },
        {
          "internalType": "uint256",
          "name": "amountBDesired",
          "type": "uint256"
        },
        {
          "internalType": "uint256",
          "name": "amountAMin",
          "type": "uint256"
        },
        {
          "internalType": "uint256",
          "name": "amountBMin",
          "type": "uint256"
        },
        {
          "internalType": "address",
          "name": "to",
          "type": "address"
        },
        {
          "internalType": "uint256",
          "name": "deadline",
          "type": "uint256"
        }
      ],
      "name": "addLiquidity",
      "outputs": [
        {
          "internalType": "uint256",
          "name": "amountA",
          "type": "uint256"
        },
        {
          "internalType": "uint256",
          "name": "amountB",
          "type": "uint256"
        },
        {
          "internalType": "uint256",
          "name": "liquidity",
          "type": "uint256"
        }
      ],
      "stateMutability": "nonpayable",
      "type": "function"
    },
    {
      "inputs": [
        {
          "internalType": "address",
          "name": "token",
          "type": "address"
        },
        {
          "internalType": "uint256",
          "name": "amountTokenDesired",
          "type": "uint256"
        },
        {
          "internalType": "uint256",
          "name": "amountTokenMin",
          "type": "uint256"
        },
        {
          "internalType": "uint256",
          "name": "amountETHMin",
          "type": "uint256"
        },
        {
          "internalType": "address",
          "name": "to",
          "type": "address"
        },
        {
          "internalType": "uint256",
          "name": "deadline",
          "type": "uint256"
        }
      ],
      "name": "addLiquidityETH",
      "outputs": [
        {
          "internalType": "uint256",
          "name": "amountToken",
          "type": "uint256"
        },
        {
          "internalType": "uint256",
          "name": "amountETH",
          "type": "uint256"
        },
        {
          "internalType": "uint256",
          "name": "liquidity",
          "type": "uint256"
        }
      ],
      "stateMutability": "payable",
      "type": "function"
    },
    {
      "inputs": [],
      "name": "factory",
      "outputs": [
        {
          "internalType": "address",
          "name": "",
          "type": "address"
        }
      ],
      "stateMutability": "view",
      "type": "function"
    },
    {
      "inputs": [
        {
          "internalType": "uint256",
          "name": "amountOut",
          "type": "uint256"
        },
        {
          "internalType": "uint256",
          "name": "reserveIn",
          "type": "uint256"
        },
        {
          "internalType": "uint256",
          "name": "reserveOut",
          "type": "uint256"
        }
      ],
      "name": "getAmountIn",
      "outputs": [
        {
          "internalType": "uint256",
          "name": "amountIn",
          "type": "uint256"
        }
      ],
      "stateMutability": "pure",
      "type": "function"
    },
    {
      "inputs": [
        {
          "internalType": "uint256",
          "name": "amountIn",
          "type": "uint256"
        },
        {
          "internalType": "uint256",
          "name": "reserveIn",
          "type": "uint256"
        },
        {
          "internalType": "uint256",
          "name": "reserveOut",
          "type": "uint256"
        }
      ],
      "name": "getAmountOut",
      "outputs": [
        {
          "internalType": "uint256",
          "name": "amountOut",
          "type": "uint256"
        }
      ],
      "stateMutability": "pure",
      "type": "function"
    },
    {
      "inputs": [
        {
          "internalType": "uint256",
          "name": "amountOut",
          "type": "uint256"
        },
        {
          "internalType": "address[]",
          "name": "path",
          "type": "address[]"
        }
      ],
      "name": "getAmountsIn",
      "outputs": [
        {
          "internalType": "uint256[]",
          "name": "amounts",
          "type": "uint256[]"
        }
      ],
      "stateMutability": "view",
      "type": "function"
    },
    {
      "inputs": [
        {
          "internalType": "uint256",
          "name": "amountIn",
          "type": "uint256"
        },
        {
          "internalType": "address[]",
          "name": "path",
          "type": "address[]"
        }
      ],
      "name": "getAmountsOut",
      "outputs": [
        {
          "internalType": "uint256[]",
          "name": "amounts",
          "type": "uint256[]"
        }
      ],
      "stateMutability": "view",
      "type": "function"
    },
    {
      "inputs": [],
      "name": "marsFactory",
      "outputs": [
        {
          "internalType": "address",
          "name": "",
          "type": "address"
        }
      ],
      "stateMutability": "view",
      "type": "function"
    },
    {
      "inputs": [],
      "name": "owner",
      "outputs": [
        {
          "internalType": "address",
          "name": "",
          "type": "address"
        }
      ],
      "stateMutability": "view",
      "type": "function"
    },
    {
      "inputs": [
        {
          "internalType": "uint256",
          "name": "amountA",
          "type": "uint256"
        },
        {
          "internalType": "uint256",
          "name": "reserveA",
          "type": "uint256"
        },
        {
          "internalType": "uint256",
          "name": "reserveB",
          "type": "uint256"
        }
      ],
      "name": "quote",
      "outputs": [
        {
          "internalType": "uint256",
          "name": "amountB",
          "type": "uint256"
        }
      ],
      "stateMutability": "pure",
      "type": "function"
    },
    {
      "inputs": [
        {
          "internalType": "address",
          "name": "tokenA",
          "type": "address"
        },
        {
          "internalType": "address",
          "name": "tokenB",
          "type": "address"
        },
        {
          "internalType": "uint256",
          "name": "liquidity",
          "type": "uint256"
        },
        {
          "internalType": "uint256",
          "name": "amountAMin",
          "type": "uint256"
        },
        {
          "internalType": "uint256",
          "name": "amountBMin",
          "type": "uint256"
        },
        {
          "internalType": "address",
          "name": "to",
          "type": "address"
        },
        {
          "internalType": "uint256",
          "name": "deadline",
          "type": "uint256"
        }
      ],
      "name": "removeLiquidity",
      "outputs": [
        {
          "internalType": "uint256",
          "name": "amountA",
          "type": "uint256"
        },
        {
          "internalType": "uint256",
          "name": "amountB",
          "type": "uint256"
        }
      ],
      "stateMutability": "nonpayable",
      "type": "function"
    },
    {
      "inputs": [
        {
          "internalType": "address",
          "name": "token",
          "type": "address"
        },
        {
          "internalType": "uint256",
          "name": "liquidity",
          "type": "uint256"
        },
        {
          "internalType": "uint256",
          "name": "amountTokenMin",
          "type": "uint256"
        },
        {
          "internalType": "uint256",
          "name": "amountETHMin",
          "type": "uint256"
        },
        {
          "internalType": "address",
          "name": "to",
          "type": "address"
        },
        {
          "internalType": "uint256",
          "name": "deadline",
          "type": "uint256"
        }
      ],
      "name": "removeLiquidityETH",
      "outputs": [
        {
          "internalType": "uint256",
          "name": "amountToken",
          "type": "uint256"
        },
        {
          "internalType": "uint256",
          "name": "amountETH",
          "type": "uint256"
        }
      ],
      "stateMutability": "nonpayable",
      "type": "function"
    },
    {
      "inputs": [
        {
          "internalType": "address",
          "name": "token",
          "type": "address"
        },
        {
          "internalType": "uint256",
          "name": "liquidity",
          "type": "uint256"
        },
        {
          "internalType": "uint256",
          "name": "amountTokenMin",
          "type": "uint256"
        },
        {
          "internalType": "uint256",
          "name": "amountETHMin",
          "type": "uint256"
        },
        {
          "internalType": "address",
          "name": "to",
          "type": "address"
        },
        {
          "internalType": "uint256",
          "name": "deadline",
          "type": "uint256"
        }
      ],
      "name": "removeLiquidityETHSupportingFeeOnTransferTokens",
      "outputs": [
        {
          "internalType": "uint256",
          "name": "amountETH",
          "type": "uint256"
        }
      ],
      "stateMutability": "nonpayable",
      "type": "function"
    },
    {
      "inputs": [],
      "name": "renounceOwnership",
      "outputs": [],
      "stateMutability": "nonpayable",
      "type": "function"
    },
    {
      "inputs": [
        {
          "internalType": "uint256",
          "name": "amountOut",
          "type": "uint256"
        },
        {
          "internalType": "address[]",
          "name": "path",
          "type": "address[]"
        },
        {
          "internalType": "address",
          "name": "to",
          "type": "address"
        },
        {
          "internalType": "uint256",
          "name": "deadline",
          "type": "uint256"
        }
      ],
      "name": "swapETHForExactTokens",
      "outputs": [
        {
          "internalType": "uint256[]",
          "name": "amounts",
          "type": "uint256[]"
        }
      ],
      "stateMutability": "payable",
      "type": "function"
    },
    {
      "inputs": [
        {
          "internalType": "uint256",
          "name": "amountOutMin",
          "type": "uint256"
        },
        {
          "internalType": "address[]",
          "name": "path",
          "type": "address[]"
        },
        {
          "internalType": "address",
          "name": "to",
          "type": "address"
        },
        {
          "internalType": "uint256",
          "name": "deadline",
          "type": "uint256"
        }
      ],
      "name": "swapExactETHForTokens",
      "outputs": [
        {
          "internalType": "uint256[]",
          "name": "amounts",
          "type": "uint256[]"
        }
      ],
      "stateMutability": "payable",
      "type": "function"
    },
    {
      "inputs": [
        {
          "internalType": "uint256",
          "name": "amountOutMin",
          "type": "uint256"
        },
        {
          "internalType": "address[]",
          "name": "path",
          "type": "address[]"
        },
        {
          "internalType": "address",
          "name": "to",
          "type": "address"
        },
        {
          "internalType": "uint256",
          "name": "deadline",
          "type": "uint256"
        }
      ],
      "name": "swapExactETHForTokensSupportingFeeOnTransferTokens",
      "outputs": [],
      "stateMutability": "payable",
      "type": "function"
    },
    {
      "inputs": [
        {
          "internalType": "uint256",
          "name": "amountIn",
          "type": "uint256"
        },
        {
          "internalType": "uint256",
          "name": "amountOutMin",
          "type": "uint256"
        },
        {
          "internalType": "address[]",
          "name": "path",
          "type": "address[]"
        },
        {
          "internalType": "address",
          "name": "to",
          "type": "address"
        },
        {
          "internalType": "uint256",
          "name": "deadline",
          "type": "uint256"
        }
      ],
      "name": "swapExactTokensForETH",
      "outputs": [
        {
          "internalType": "uint256[]",
          "name": "amounts",
          "type": "uint256[]"
        }
      ],
      "stateMutability": "payable",
      "type": "function"
    },
    {
      "inputs": [
        {
          "internalType": "uint256",
          "name": "amountIn",
          "type": "uint256"
        },
        {
          "internalType": "uint256",
          "name": "amountOutMin",
          "type": "uint256"
        },
        {
          "internalType": "address[]",
          "name": "path",
          "type": "address[]"
        },
        {
          "internalType": "address",
          "name": "to",
          "type": "address"
        },
        {
          "internalType": "uint256",
          "name": "deadline",
          "type": "uint256"
        }
      ],
      "name": "swapExactTokensForETHSupportingFeeOnTransferTokens",
      "outputs": [],
      "stateMutability": "payable",
      "type": "function"
    },
    {
      "inputs": [
        {
          "internalType": "uint256",
          "name": "amountIn",
          "type": "uint256"
        },
        {
          "internalType": "uint256",
          "name": "amountOutMin",
          "type": "uint256"
        },
        {
          "internalType": "address[]",
          "name": "path",
          "type": "address[]"
        },
        {
          "internalType": "address",
          "name": "to",
          "type": "address"
        },
        {
          "internalType": "uint256",
          "name": "deadline",
          "type": "uint256"
        }
      ],
      "name": "swapExactTokensForTokens",
      "outputs": [
        {
          "internalType": "uint256[]",
          "name": "amounts",
          "type": "uint256[]"
        }
      ],
      "stateMutability": "payable",
      "type": "function"
    },
    {
      "inputs": [
        {
          "internalType": "uint256",
          "name": "amountIn",
          "type": "uint256"
        },
        {
          "internalType": "uint256",
          "name": "amountOutMin",
          "type": "uint256"
        },
        {
          "internalType": "address[]",
          "name": "path",
          "type": "address[]"
        },
        {
          "internalType": "address",
          "name": "to",
          "type": "address"
        },
        {
          "internalType": "uint256",
          "name": "deadline",
          "type": "uint256"
        }
      ],
      "name": "swapExactTokensForTokensSupportingFeeOnTransferTokens",
      "outputs": [],
      "stateMutability": "payable",
      "type": "function"
    },
    {
      "inputs": [
        {
          "internalType": "uint256",
          "name": "amountOut",
          "type": "uint256"
        },
        {
          "internalType": "uint256",
          "name": "amountInMax",
          "type": "uint256"
        },
        {
          "internalType": "address[]",
          "name": "path",
          "type": "address[]"
        },
        {
          "internalType": "address",
          "name": "to",
          "type": "address"
        },
        {
          "internalType": "uint256",
          "name": "deadline",
          "type": "uint256"
        }
      ],
      "name": "swapTokensForExactETH",
      "outputs": [
        {
          "internalType": "uint256[]",
          "name": "amounts",
          "type": "uint256[]"
        }
      ],
      "stateMutability": "payable",
      "type": "function"
    },
    {
      "inputs": [
        {
          "internalType": "uint256",
          "name": "amountOut",
          "type": "uint256"
        },
        {
          "internalType": "uint256",
          "name": "amountInMax",
          "type": "uint256"
        },
        {
          "internalType": "address[]",
          "name": "path",
          "type": "address[]"
        },
        {
          "internalType": "address",
          "name": "to",
          "type": "address"
        },
        {
          "internalType": "uint256",
          "name": "deadline",
          "type": "uint256"
        }
      ],
      "name": "swapTokensForExactTokens",
      "outputs": [
        {
          "internalType": "uint256[]",
          "name": "amounts",
          "type": "uint256[]"
        }
      ],
      "stateMutability": "payable",
      "type": "function"
    },
    {
      "inputs": [
        {
          "internalType": "address",
          "name": "newOwner",
          "type": "address"
        }
      ],
      "name": "transferOwnership",
      "outputs": [],
      "stateMutability": "nonpayable",
      "type": "function"
    },
    {
      "inputs": [],
      "name": "txFee",
      "outputs": [
        {
          "internalType": "uint256",
          "name": "",
          "type": "uint256"
        }
      ],
      "stateMutability": "view",
      "type": "function"
    },
    {
      "inputs": [],
      "name": "withdawlBNB",
      "outputs": [],
      "stateMutability": "nonpayable",
      "type": "function"
    },
    {
      "inputs": [
        {
          "internalType": "address",
          "name": "_tokenAddress",
          "type": "address"
        }
      ],
      "name": "withdrawlToken",
      "outputs": [],
      "stateMutability": "nonpayable",
      "type": "function"
    },
    {
      "stateMutability": "payable",
      "type": "receive"
    }
  ],
  "bytecode": "0x60c06040523480156200001157600080fd5b506040516200448f3803806200448f8339810160408190526200003491620000db565b6200003f336200006e565b6001600160a01b0392831660805290821660a052600180546001600160a01b0319169190921617905562000125565b600080546001600160a01b038381166001600160a01b0319831681178455604051919092169283917f8be0079c531659141344cd1fd0a4f28419497f9722a3daafe3b4186f6b6457e09190a35050565b80516001600160a01b0381168114620000d657600080fd5b919050565b600080600060608486031215620000f157600080fd5b620000fc84620000be565b92506200010c60208501620000be565b91506200011c60408501620000be565b90509250925092565b60805160a0516142026200028d600039600081816103a001528181610567015281816105b601528181610672015281816108d201528181610b6f01528181610fbd015281816110dd015281816111880152818161121b015281816113a201528181611430015281816117c50152818161187d0152818161190e015281816119ef01528181611a630152818161210c01528181612162015281816121960152818161222b015281816123640152818161252301526125b10152600081816104470152818161072b015281816107fd015281816109b801528181610a4c01528181610beb01528181610d4c015281816112ff01528181611462015281816115eb01528181611a9501528181611cb401528181611ecb01528181611f8a01528181612140015281816123df015281816125e301528181612eb601528181612f06015281816131ca01528181613332015281816136bc0152818161375e01526137d501526142026000f3fe6080604052600436106101bb5760003560e01c8063ac5cad56116100ec578063cf8204611161008a578063e8e3370011610064578063e8e33700146104b3578063f2fde38b146104ee578063f305d7191461050e578063fb3bdb411461052157600080fd5b8063cf82046114610469578063d06ca61f1461047e578063e799ffb11461049e57600080fd5b8063af2979eb116100c6578063af2979eb146103e2578063b6f9de9514610402578063baa2abde14610415578063c45a01551461043557600080fd5b8063ac5cad561461036e578063ad5c46481461038e578063ad615dec146103c257600080fd5b80635c11d795116101595780637ff36ab5116101335780637ff36ab51461030a57806385f8c2591461031d5780638803dbee1461033d5780638da5cb5b1461035057600080fd5b80635c11d795146102cd578063715018a6146102e2578063791ac947146102f757600080fd5b80631f00ca74116101955780631f00ca741461024f578063310943011461026f57806338ed1739146102a75780634a25d94a146102ba57600080fd5b806302751cec146101c7578063054d50d41461020157806318cbafe51461022f57600080fd5b366101c257005b600080fd5b3480156101d357600080fd5b506101e76101e23660046139c5565b610534565b604080519283526020830191909152015b60405180910390f35b34801561020d57600080fd5b5061022161021c366004613a23565b610630565b6040519081526020016101f8565b61024261023d366004613a94565b610645565b6040516101f89190613b07565b34801561025b57600080fd5b5061024261026a366004613b61565b6109b1565b34801561027b57600080fd5b5060015461028f906001600160a01b031681565b6040516001600160a01b0390911681526020016101f8565b6102426102b5366004613a94565b6109e7565b6102426102c8366004613a94565b610b42565b6102e06102db366004613a94565b610cbd565b005b3480156102ee57600080fd5b506102e0610f5c565b6102e0610305366004613a94565b610f92565b610242610318366004613c32565b6111f6565b34801561032957600080fd5b50610221610338366004613a23565b611579565b61024261034b366004613a94565b611586565b34801561035c57600080fd5b506000546001600160a01b031661028f565b34801561037a57600080fd5b506102e0610389366004613c99565b611680565b34801561039a57600080fd5b5061028f7f000000000000000000000000000000000000000000000000000000000000000081565b3480156103ce57600080fd5b506102216103dd366004613a23565b61178f565b3480156103ee57600080fd5b506102216103fd3660046139c5565b61179c565b6102e0610410366004613c32565b6118eb565b34801561042157600080fd5b506101e7610430366004613cbd565b611c89565b34801561044157600080fd5b5061028f7f000000000000000000000000000000000000000000000000000000000000000081565b34801561047557600080fd5b50610221611e51565b34801561048a57600080fd5b50610242610499366004613b61565b611ec4565b3480156104aa57600080fd5b506102e0611ef1565b3480156104bf57600080fd5b506104d36104ce366004613d2f565b611f4a565b604080519384526020840192909252908201526060016101f8565b3480156104fa57600080fd5b506102e0610509366004613c99565b612048565b6104d361051c3660046139c5565b6120e0565b61024261052f366004613c32565b61233f565b60008082428110156105615760405162461bcd60e51b815260040161055890613dab565b60405180910390fd5b610590897f00000000000000000000000000000000000000000000000000000000000000008a8a8a308a611c89565b90935091506105a089868561273b565b604051632e1a7d4d60e01b8152600481018390527f00000000000000000000000000000000000000000000000000000000000000006001600160a01b031690632e1a7d4d90602401600060405180830381600087803b15801561060257600080fd5b505af1158015610616573d6000803e3d6000fd5b505050506106248583612856565b50965096945050505050565b600061063d848484612924565b949350505050565b606081428110156106685760405162461bcd60e51b815260040161055890613dab565b6001600160a01b037f000000000000000000000000000000000000000000000000000000000000000016868661069f600182613def565b8181106106ae576106ae613e02565b90506020020160208101906106c39190613c99565b6001600160a01b0316146106e95760405162461bcd60e51b815260040161055890613e18565b6107258686808060200260200160405190810160405280939291908181526020018383602002808284376000920191909152506129fa92505050565b506107847f000000000000000000000000000000000000000000000000000000000000000089888880806020026020016040519081016040528093929190818152602001838360200280828437600092019190915250612aa992505050565b91508682600184516107969190613def565b815181106107a6576107a6613e02565b602002602001015110156107cc5760405162461bcd60e51b815260040161055890613e4f565b610891868660008181106107e2576107e2613e02565b90506020020160208101906107f79190613c99565b336108717f00000000000000000000000000000000000000000000000000000000000000008a8a600081811061082f5761082f613e02565b90506020020160208101906108449190613c99565b8b8b600181811061085757610857613e02565b905060200201602081019061086c9190613c99565b612c2d565b8560008151811061088457610884613e02565b6020026020010151612ca3565b6108d082878780806020026020016040519081016040528093929190818152602001838360200280828437600092019190915250309250612dd3915050565b7f00000000000000000000000000000000000000000000000000000000000000006001600160a01b0316632e1a7d4d836001855161090e9190613def565b8151811061091e5761091e613e02565b60200260200101516040518263ffffffff1660e01b815260040161094491815260200190565b600060405180830381600087803b15801561095e57600080fd5b505af1158015610972573d6000803e3d6000fd5b505050506109a68483600185516109899190613def565b8151811061099957610999613e02565b6020026020010151612856565b509695505050505050565b60606109de7f00000000000000000000000000000000000000000000000000000000000000008484612fdb565b90505b92915050565b60608142811015610a0a5760405162461bcd60e51b815260040161055890613dab565b610a468686808060200260200160405190810160405280939291908181526020018383602002808284376000920191909152506129fa92505050565b50610aa57f000000000000000000000000000000000000000000000000000000000000000089888880806020026020016040519081016040528093929190818152602001838360200280828437600092019190915250612aa992505050565b9150868260018451610ab79190613def565b81518110610ac757610ac7613e02565b60200260200101511015610aed5760405162461bcd60e51b815260040161055890613e4f565b610b03868660008181106107e2576107e2613e02565b6109a682878780806020026020016040519081016040528093929190818152602001838360200280828437600092019190915250899250612dd3915050565b60608142811015610b655760405162461bcd60e51b815260040161055890613dab565b6001600160a01b037f0000000000000000000000000000000000000000000000000000000000000000168686610b9c600182613def565b818110610bab57610bab613e02565b9050602002016020810190610bc09190613c99565b6001600160a01b031614610be65760405162461bcd60e51b815260040161055890613e18565b610c447f000000000000000000000000000000000000000000000000000000000000000089888880806020026020016040519081016040528093929190818152602001838360200280828437600092019190915250612fdb92505050565b9150610c828686808060200260200160405190810160405280939291908181526020018383602002808284376000920191909152506129fa92505050565b508682600081518110610c9757610c97613e02565b602002602001015111156107cc5760405162461bcd60e51b815260040161055890613e96565b8042811015610cde5760405162461bcd60e51b815260040161055890613dab565b610d1a8585808060200260200160405190810160405280939291908181526020018383602002808284376000920191909152506129fa92505050565b50610dac85856000818110610d3157610d31613e02565b9050602002016020810190610d469190613c99565b33610da67f000000000000000000000000000000000000000000000000000000000000000089896000818110610d7e57610d7e613e02565b9050602002016020810190610d939190613c99565b8a8a600181811061085757610857613e02565b8a612ca3565b60008585610dbb600182613def565b818110610dca57610dca613e02565b9050602002016020810190610ddf9190613c99565b6040516370a0823160e01b81526001600160a01b03868116600483015291909116906370a0823190602401602060405180830381865afa158015610e27573d6000803e3d6000fd5b505050506040513d601f19601f82011682018060405250810190610e4b9190613ed9565b9050610e8b868680806020026020016040519081016040528093929190818152602001838360200280828437600092019190915250889250613155915050565b86610f34828888610e9d600182613def565b818110610eac57610eac613e02565b9050602002016020810190610ec19190613c99565b6040516370a0823160e01b81526001600160a01b03898116600483015291909116906370a08231906024015b602060405180830381865afa158015610f0a573d6000803e3d6000fd5b505050506040513d601f19601f82011682018060405250810190610f2e9190613ed9565b906133ee565b1015610f525760405162461bcd60e51b815260040161055890613e4f565b5050505050505050565b6000546001600160a01b03163314610f865760405162461bcd60e51b815260040161055890613ef2565b610f9060006133fa565b565b8042811015610fb35760405162461bcd60e51b815260040161055890613dab565b6001600160a01b037f0000000000000000000000000000000000000000000000000000000000000000168585610fea600182613def565b818110610ff957610ff9613e02565b905060200201602081019061100e9190613c99565b6001600160a01b0316146110345760405162461bcd60e51b815260040161055890613e18565b6110708585808060200260200160405190810160405280939291908181526020018383602002808284376000920191909152506129fa92505050565b5061108785856000818110610d3157610d31613e02565b6110c5858580806020026020016040519081016040528093929190818152602001838360200280828437600092019190915250309250613155915050565b6040516370a0823160e01b81523060048201526000907f00000000000000000000000000000000000000000000000000000000000000006001600160a01b0316906370a0823190602401602060405180830381865afa15801561112c573d6000803e3d6000fd5b505050506040513d601f19601f820116820180604052508101906111509190613ed9565b9050868110156111725760405162461bcd60e51b815260040161055890613e4f565b604051632e1a7d4d60e01b8152600481018290527f00000000000000000000000000000000000000000000000000000000000000006001600160a01b031690632e1a7d4d90602401600060405180830381600087803b1580156111d457600080fd5b505af11580156111e8573d6000803e3d6000fd5b50505050610f528482612856565b606081428110156112195760405162461bcd60e51b815260040161055890613dab565b7f00000000000000000000000000000000000000000000000000000000000000006001600160a01b03168686600081811061125657611256613e02565b905060200201602081019061126b9190613c99565b6001600160a01b0316146112915760405162461bcd60e51b815260040161055890613e18565b600061129b611e51565b6112a6906064613f27565b34116112b257346112f8565b6112ee8787808060200260200160405190810160405280939291908181526020018383602002808284376000920191909152506129fa92505050565b6112f89034613def565b90506113587f000000000000000000000000000000000000000000000000000000000000000082898980806020026020016040519081016040528093929190818152602001838360200280828437600092019190915250612aa992505050565b925087836001855161136a9190613def565b8151811061137a5761137a613e02565b602002602001015110156113a05760405162461bcd60e51b815260040161055890613e4f565b7f00000000000000000000000000000000000000000000000000000000000000006001600160a01b031663d0e30db0846000815181106113e2576113e2613e02565b60200260200101516040518263ffffffff1660e01b81526004016000604051808303818588803b15801561141557600080fd5b505af1158015611429573d6000803e3d6000fd5b50505050507f00000000000000000000000000000000000000000000000000000000000000006001600160a01b031663a9059cbb6114947f00000000000000000000000000000000000000000000000000000000000000008a8a600081811061082f5761082f613e02565b856000815181106114a7576114a7613e02565b60200260200101516040518363ffffffff1660e01b81526004016114e09291906001600160a01b03929092168252602082015260400190565b6020604051808303816000875af11580156114ff573d6000803e3d6000fd5b505050506040513d601f19601f820116820180604052508101906115239190613f3e565b61152f5761152f613f60565b61156e838888808060200260200160405190810160405280939291908181526020018383602002808284376000920191909152508a9250612dd3915050565b505095945050505050565b600061063d84848461344a565b606081428110156115a95760405162461bcd60e51b815260040161055890613dab565b6115e58686808060200260200160405190810160405280939291908181526020018383602002808284376000920191909152506129fa92505050565b506116447f000000000000000000000000000000000000000000000000000000000000000089888880806020026020016040519081016040528093929190818152602001838360200280828437600092019190915250612fdb92505050565b9150868260008151811061165a5761165a613e02565b60200260200101511115610aed5760405162461bcd60e51b815260040161055890613e96565b6000546001600160a01b031633146116aa5760405162461bcd60e51b815260040161055890613ef2565b6040516370a0823160e01b81523060048201526001600160a01b0382169063a9059cbb90339083906370a0823190602401602060405180830381865afa1580156116f8573d6000803e3d6000fd5b505050506040513d601f19601f8201168201806040525081019061171c9190613ed9565b6040516001600160e01b031960e085901b1681526001600160a01b03909216600483015260248201526044016020604051808303816000875af1158015611767573d6000803e3d6000fd5b505050506040513d601f19601f8201168201806040525081019061178b9190613f3e565b5050565b600061063d84848461351a565b600081428110156117bf5760405162461bcd60e51b815260040161055890613dab565b6117ee887f00000000000000000000000000000000000000000000000000000000000000008989893089611c89565b6040516370a0823160e01b81523060048201529093506118679150899086906001600160a01b038316906370a0823190602401602060405180830381865afa15801561183e573d6000803e3d6000fd5b505050506040513d601f19601f820116820180604052508101906118629190613ed9565b61273b565b604051632e1a7d4d60e01b8152600481018390527f00000000000000000000000000000000000000000000000000000000000000006001600160a01b031690632e1a7d4d90602401600060405180830381600087803b1580156118c957600080fd5b505af11580156118dd573d6000803e3d6000fd5b505050506109a68483612856565b804281101561190c5760405162461bcd60e51b815260040161055890613dab565b7f00000000000000000000000000000000000000000000000000000000000000006001600160a01b03168585600081811061194957611949613e02565b905060200201602081019061195e9190613c99565b6001600160a01b0316146119845760405162461bcd60e51b815260040161055890613e18565b600061198e611e51565b611999906064613f27565b34116119a557346119eb565b6119e18686808060200260200160405190810160405280939291908181526020018383602002808284376000920191909152506129fa92505050565b6119eb9034613def565b90507f00000000000000000000000000000000000000000000000000000000000000006001600160a01b031663d0e30db0826040518263ffffffff1660e01b81526004016000604051808303818588803b158015611a4857600080fd5b505af1158015611a5c573d6000803e3d6000fd5b50505050507f00000000000000000000000000000000000000000000000000000000000000006001600160a01b031663a9059cbb611ac77f000000000000000000000000000000000000000000000000000000000000000089896000818110610d7e57610d7e613e02565b6040516001600160e01b031960e084901b1681526001600160a01b039091166004820152602481018490526044016020604051808303816000875af1158015611b14573d6000803e3d6000fd5b505050506040513d601f19601f82011682018060405250810190611b389190613f3e565b611b4457611b44613f60565b60008686611b53600182613def565b818110611b6257611b62613e02565b9050602002016020810190611b779190613c99565b6040516370a0823160e01b81526001600160a01b03878116600483015291909116906370a0823190602401602060405180830381865afa158015611bbf573d6000803e3d6000fd5b505050506040513d601f19601f82011682018060405250810190611be39190613ed9565b9050611c23878780806020026020016040519081016040528093929190818152602001838360200280828437600092019190915250899250613155915050565b87610f34828989611c35600182613def565b818110611c4457611c44613e02565b9050602002016020810190611c599190613c99565b6040516370a0823160e01b81526001600160a01b038a8116600483015291909116906370a0823190602401610eed565b6000808242811015611cad5760405162461bcd60e51b815260040161055890613dab565b6000611cda7f00000000000000000000000000000000000000000000000000000000000000008c8c612c2d565b6040516323b872dd60e01b81523360048201526001600160a01b03821660248201819052604482018c90529192506323b872dd906064016020604051808303816000875af1158015611d30573d6000803e3d6000fd5b505050506040513d601f19601f82011682018060405250810190611d549190613f3e565b5060405163226bf2d160e21b81526001600160a01b03878116600483015260009182918416906389afcb449060240160408051808303816000875af1158015611da1573d6000803e3d6000fd5b505050506040513d601f19601f82011682018060405250810190611dc59190613f76565b915091506000611dd58e8e6135ac565b509050806001600160a01b03168e6001600160a01b031614611df8578183611dfb565b82825b90975095508a871015611e205760405162461bcd60e51b815260040161055890613f9a565b89861015611e405760405162461bcd60e51b815260040161055890613fdc565b505050505097509795505050505050565b6001546040805163d9eb594760e01b815290516000926001600160a01b03169163d9eb59479160048083019260209291908290030181865afa158015611e9b573d6000803e3d6000fd5b505050506040513d601f19601f82011682018060405250810190611ebf9190613ed9565b905090565b60606109de7f00000000000000000000000000000000000000000000000000000000000000008484612aa9565b6000546001600160a01b03163314611f1b5760405162461bcd60e51b815260040161055890613ef2565b60405133904780156108fc02916000818181858888f19350505050158015611f47573d6000803e3d6000fd5b50565b60008060008342811015611f705760405162461bcd60e51b815260040161055890613dab565b611f7e8c8c8c8c8c8c61368e565b90945092506000611fb07f00000000000000000000000000000000000000000000000000000000000000008e8e612c2d565b9050611fbe8d338388612ca3565b611fca8c338387612ca3565b6040516335313c2160e11b81526001600160a01b038881166004830152821690636a627842906024016020604051808303816000875af1158015612012573d6000803e3d6000fd5b505050506040513d601f19601f820116820180604052508101906120369190613ed9565b92505050985098509895505050505050565b6000546001600160a01b031633146120725760405162461bcd60e51b815260040161055890613ef2565b6001600160a01b0381166120d75760405162461bcd60e51b815260206004820152602660248201527f4f776e61626c653a206e6577206f776e657220697320746865207a65726f206160448201526564647265737360d01b6064820152608401610558565b611f47816133fa565b600080600083428110156121065760405162461bcd60e51b815260040161055890613dab565b6121348a7f00000000000000000000000000000000000000000000000000000000000000008b348c8c61368e565b909450925060006121867f00000000000000000000000000000000000000000000000000000000000000008c7f0000000000000000000000000000000000000000000000000000000000000000612c2d565b90506121948b338388612ca3565b7f00000000000000000000000000000000000000000000000000000000000000006001600160a01b031663d0e30db0856040518263ffffffff1660e01b81526004016000604051808303818588803b1580156121ef57600080fd5b505af1158015612203573d6000803e3d6000fd5b505060405163a9059cbb60e01b81526001600160a01b038581166004830152602482018990527f000000000000000000000000000000000000000000000000000000000000000016935063a9059cbb925060440190506020604051808303816000875af1158015612278573d6000803e3d6000fd5b505050506040513d601f19601f8201168201806040525081019061229c9190613f3e565b6122a8576122a8613f60565b6040516335313c2160e11b81526001600160a01b038881166004830152821690636a627842906024016020604051808303816000875af11580156122f0573d6000803e3d6000fd5b505050506040513d601f19601f820116820180604052508101906123149190613ed9565b925083341115612331576123313361232c8634613def565b612856565b505096509650969350505050565b606081428110156123625760405162461bcd60e51b815260040161055890613dab565b7f00000000000000000000000000000000000000000000000000000000000000006001600160a01b03168686600081811061239f5761239f613e02565b90506020020160208101906123b49190613c99565b6001600160a01b0316146123da5760405162461bcd60e51b815260040161055890613e18565b6124387f000000000000000000000000000000000000000000000000000000000000000088888880806020026020016040519081016040528093929190818152602001838360200280828437600092019190915250612fdb92505050565b91506000612444611e51565b61244f906064613f27565b341161245c576000612498565b6124988787808060200260200160405190810160405280939291908181526020018383602002808284376000920191909152506129fa92505050565b905080836000815181106124ae576124ae613e02565b60200260200101516124c09190613def565b836000815181106124d3576124d3613e02565b60209081029190910101526124e88134613def565b836000815181106124fb576124fb613e02565b602002602001015111156125215760405162461bcd60e51b815260040161055890613e96565b7f00000000000000000000000000000000000000000000000000000000000000006001600160a01b031663d0e30db08460008151811061256357612563613e02565b60200260200101516040518263ffffffff1660e01b81526004016000604051808303818588803b15801561259657600080fd5b505af11580156125aa573d6000803e3d6000fd5b50505050507f00000000000000000000000000000000000000000000000000000000000000006001600160a01b031663a9059cbb6126157f00000000000000000000000000000000000000000000000000000000000000008a8a600081811061082f5761082f613e02565b8560008151811061262857612628613e02565b60200260200101516040518363ffffffff1660e01b81526004016126619291906001600160a01b03929092168252602082015260400190565b6020604051808303816000875af1158015612680573d6000803e3d6000fd5b505050506040513d601f19601f820116820180604052508101906126a49190613f3e565b6126b0576126b0613f60565b6126ef838888808060200260200160405190810160405280939291908181526020018383602002808284376000920191909152508a9250612dd3915050565b8260008151811061270257612702613e02565b602002602001015134111561156e5761156e338460008151811061272857612728613e02565b60200260200101513461232c9190613def565b604080516001600160a01b038481166024830152604480830185905283518084039091018152606490920183526020820180516001600160e01b031663a9059cbb60e01b17905291516000928392908716916127979190614042565b6000604051808303816000865af19150503d80600081146127d4576040519150601f19603f3d011682016040523d82523d6000602084013e6127d9565b606091505b50915091508180156128035750805115806128035750808060200190518101906128039190613f3e565b61284f5760405162461bcd60e51b815260206004820152601f60248201527f5472616e7366657248656c7065723a205452414e534645525f4641494c4544006044820152606401610558565b5050505050565b604080516000808252602082019092526001600160a01b0384169083906040516128809190614042565b60006040518083038185875af1925050503d80600081146128bd576040519150601f19603f3d011682016040523d82523d6000602084013e6128c2565b606091505b505090508061291f5760405162461bcd60e51b815260206004820152602360248201527f5472616e7366657248656c7065723a204554485f5452414e534645525f46414960448201526213115160ea1b6064820152608401610558565b505050565b60008084116129815760405162461bcd60e51b815260206004820152602360248201527f494c6962726172793a20494e53554646494349454e545f494e5055545f414d4f60448201526215539560ea1b6064820152608401610558565b6000831180156129915750600082115b6129ad5760405162461bcd60e51b81526004016105589061405e565b60006129bb856126f76138b2565b905060006129c982856138b2565b905060006129e3836129dd886127106138b2565b906138be565b90506129ef8183614093565b979650505050505050565b600060018251612a0a9190613def565b612a12611e51565b612a1c9190613f27565b90506000600160009054906101000a90046001600160a01b03166001600160a01b03166361d027b36040518163ffffffff1660e01b8152600401602060405180830381865afa158015612a73573d6000803e3d6000fd5b505050506040513d601f19601f82011682018060405250810190612a9791906140b5565b9050612aa38183612856565b50919050565b6060600282511015612af65760405162461bcd60e51b815260206004820152601660248201527509298d2c4e4c2e4f27440929cac82989288bea082a8960531b6044820152606401610558565b815167ffffffffffffffff811115612b1057612b10613b4b565b604051908082528060200260200182016040528015612b39578160200160208202803683370190505b5090508281600081518110612b5057612b50613e02565b60200260200101818152505060005b60018351612b6d9190613def565b811015612c2557600080612bc087868581518110612b8d57612b8d613e02565b602002602001015187866001612ba391906140d2565b81518110612bb357612bb3613e02565b60200260200101516138ca565b91509150612be8848481518110612bd957612bd9613e02565b60200260200101518383612924565b84612bf48560016140d2565b81518110612c0457612c04613e02565b60200260200101818152505050508080612c1d906140e5565b915050612b5f565b509392505050565b60405163e6a4390560e01b81526001600160a01b03838116600483015282811660248301526000919085169063e6a4390590604401602060405180830381865afa158015612c7f573d6000803e3d6000fd5b505050506040513d601f19601f8201168201806040525081019061063d91906140b5565b604080516001600160a01b0385811660248301528481166044830152606480830185905283518084039091018152608490920183526020820180516001600160e01b03166323b872dd60e01b1790529151600092839290881691612d079190614042565b6000604051808303816000865af19150503d8060008114612d44576040519150601f19603f3d011682016040523d82523d6000602084013e612d49565b606091505b5091509150818015612d73575080511580612d73575080806020019051810190612d739190613f3e565b612dcb5760405162461bcd60e51b8152602060048201526024808201527f5472616e7366657248656c7065723a205452414e534645525f46524f4d5f46416044820152631253115160e21b6064820152608401610558565b505050505050565b60005b60018351612de49190613def565b811015612fd557600080848381518110612e0057612e00613e02565b602002602001015185846001612e1691906140d2565b81518110612e2657612e26613e02565b6020026020010151915091506000612e3e83836135ac565b509050600087612e4f8660016140d2565b81518110612e5f57612e5f613e02565b60200260200101519050600080836001600160a01b0316866001600160a01b031614612e8d57826000612e91565b6000835b91509150600060028a51612ea59190613def565b8810612eb15788612eff565b612eff7f0000000000000000000000000000000000000000000000000000000000000000878c612ee28c60026140d2565b81518110612ef257612ef2613e02565b6020026020010151612c2d565b9050612f2c7f00000000000000000000000000000000000000000000000000000000000000008888612c2d565b6001600160a01b031663022c0d9f84848460006040519080825280601f01601f191660200182016040528015612f69576020820181803683370190505b506040518563ffffffff1660e01b8152600401612f8994939291906140fe565b600060405180830381600087803b158015612fa357600080fd5b505af1158015612fb7573d6000803e3d6000fd5b50505050505050505050508080612fcd906140e5565b915050612dd6565b50505050565b60606002825110156130285760405162461bcd60e51b815260206004820152601660248201527509298d2c4e4c2e4f27440929cac82989288bea082a8960531b6044820152606401610558565b815167ffffffffffffffff81111561304257613042613b4b565b60405190808252806020026020018201604052801561306b578160200160208202803683370190505b50905082816001835161307e9190613def565b8151811061308e5761308e613e02565b6020026020010181815250506000600183516130aa9190613def565b90505b8015612c25576000806130f087866130c6600187613def565b815181106130d6576130d6613e02565b6020026020010151878681518110612bb357612bb3613e02565b9150915061311884848151811061310957613109613e02565b6020026020010151838361344a565b84613124600186613def565b8151811061313457613134613e02565b6020026020010181815250505050808061314d9061414e565b9150506130ad565b60005b600183516131669190613def565b81101561291f5760008084838151811061318257613182613e02565b60200260200101518584600161319891906140d2565b815181106131a8576131a8613e02565b60200260200101519150915060006131c083836135ac565b50905060006131f07f00000000000000000000000000000000000000000000000000000000000000008585612c2d565b9050600080600080846001600160a01b0316630902f1ac6040518163ffffffff1660e01b8152600401606060405180830381865afa158015613236573d6000803e3d6000fd5b505050506040513d601f19601f8201168201806040525081019061325a919061417c565b506001600160701b031691506001600160701b03169150600080876001600160a01b03168a6001600160a01b031614613294578284613297565b83835b6040516370a0823160e01b81526001600160a01b038a811660048301529294509092506132d2918491908d16906370a0823190602401610eed565b95506132df868383612924565b945050505050600080856001600160a01b0316886001600160a01b0316146133095782600061330d565b6000835b91509150600060028c516133219190613def565b8a1061332d578a61335e565b61335e7f0000000000000000000000000000000000000000000000000000000000000000898e612ee28e60026140d2565b6040805160008152602081019182905263022c0d9f60e01b9091529091506001600160a01b0387169063022c0d9f906133a090869086908690602481016140fe565b600060405180830381600087803b1580156133ba57600080fd5b505af11580156133ce573d6000803e3d6000fd5b5050505050505050505050505080806133e6906140e5565b915050613158565b60006109de8284613def565b600080546001600160a01b038381166001600160a01b0319831681178455604051919092169283917f8be0079c531659141344cd1fd0a4f28419497f9722a3daafe3b4186f6b6457e09190a35050565b60008084116134a75760405162461bcd60e51b8152602060048201526024808201527f494c6962726172793a20494e53554646494349454e545f4f55545055545f414d60448201526313d5539560e21b6064820152608401610558565b6000831180156134b75750600082115b6134d35760405162461bcd60e51b81526004016105589061405e565b60006134eb6127106134e586886138b2565b906138b2565b905060006134ff6126f76134e586896133ee565b905061351060016129dd8385614093565b9695505050505050565b600080841161356b5760405162461bcd60e51b815260206004820152601d60248201527f494c6962726172793a20494e53554646494349454e545f414d4f554e540000006044820152606401610558565b60008311801561357b5750600082115b6135975760405162461bcd60e51b81526004016105589061405e565b826135a285846138b2565b61063d9190614093565b600080826001600160a01b0316846001600160a01b0316036136105760405162461bcd60e51b815260206004820152601d60248201527f494c6962726172793a204944454e544943414c5f4144445245535345530000006044820152606401610558565b826001600160a01b0316846001600160a01b031610613630578284613633565b83835b90925090506001600160a01b0382166136875760405162461bcd60e51b8152602060048201526016602482015275494c6962726172793a205a45524f5f4144445245535360501b6044820152606401610558565b9250929050565b60405163e6a4390560e01b81526001600160a01b0387811660048301528681166024830152600091829182917f00000000000000000000000000000000000000000000000000000000000000009091169063e6a4390590604401602060405180830381865afa158015613705573d6000803e3d6000fd5b505050506040513d601f19601f8201168201806040525081019061372991906140b5565b6001600160a01b0316036137cd576040516364e329cb60e11b81526001600160a01b03898116600483015288811660248301527f0000000000000000000000000000000000000000000000000000000000000000169063c9c65396906044016020604051808303816000875af11580156137a7573d6000803e3d6000fd5b505050506040513d601f19601f820116820180604052508101906137cb91906140b5565b505b6000806137fb7f00000000000000000000000000000000000000000000000000000000000000008b8b6138ca565b9150915081600014801561380d575080155b1561381d578793508692506138a5565b600061382a89848461351a565b905087811161385e57858110156138535760405162461bcd60e51b815260040161055890613fdc565b8894509250826138a3565b600061386b89848661351a565b90508981111561387d5761387d613f60565b8781101561389d5760405162461bcd60e51b815260040161055890613f9a565b94508793505b505b5050965096945050505050565b60006109de8284613f27565b60006109de82846140d2565b60008060006138d985856135ac565b5090506138e7868686612c2d565b506000806138f6888888612c2d565b6001600160a01b0316630902f1ac6040518163ffffffff1660e01b8152600401606060405180830381865afa158015613933573d6000803e3d6000fd5b505050506040513d601f19601f82011682018060405250810190613957919061417c565b506001600160701b031691506001600160701b03169150826001600160a01b0316876001600160a01b03161461398e578082613991565b81815b90999098509650505050505050565b6001600160a01b0381168114611f4757600080fd5b80356139c0816139a0565b919050565b60008060008060008060c087890312156139de57600080fd5b86356139e9816139a0565b95506020870135945060408701359350606087013592506080870135613a0e816139a0565b8092505060a087013590509295509295509295565b600080600060608486031215613a3857600080fd5b505081359360208301359350604090920135919050565b60008083601f840112613a6157600080fd5b50813567ffffffffffffffff811115613a7957600080fd5b6020830191508360208260051b850101111561368757600080fd5b60008060008060008060a08789031215613aad57600080fd5b8635955060208701359450604087013567ffffffffffffffff811115613ad257600080fd5b613ade89828a01613a4f565b9095509350506060870135613af2816139a0565b80925050608087013590509295509295509295565b6020808252825182820181905260009190848201906040850190845b81811015613b3f57835183529284019291840191600101613b23565b50909695505050505050565b634e487b7160e01b600052604160045260246000fd5b60008060408385031215613b7457600080fd5b8235915060208084013567ffffffffffffffff80821115613b9457600080fd5b818601915086601f830112613ba857600080fd5b813581811115613bba57613bba613b4b565b8060051b604051601f19603f83011681018181108582111715613bdf57613bdf613b4b565b604052918252848201925083810185019189831115613bfd57600080fd5b938501935b82851015613c2257613c13856139b5565b84529385019392850192613c02565b8096505050505050509250929050565b600080600080600060808688031215613c4a57600080fd5b85359450602086013567ffffffffffffffff811115613c6857600080fd5b613c7488828901613a4f565b9095509350506040860135613c88816139a0565b949793965091946060013592915050565b600060208284031215613cab57600080fd5b8135613cb6816139a0565b9392505050565b600080600080600080600060e0888a031215613cd857600080fd5b8735613ce3816139a0565b96506020880135613cf3816139a0565b955060408801359450606088013593506080880135925060a0880135613d18816139a0565b8092505060c0880135905092959891949750929550565b600080600080600080600080610100898b031215613d4c57600080fd5b8835613d57816139a0565b97506020890135613d67816139a0565b965060408901359550606089013594506080890135935060a0890135925060c0890135613d93816139a0565b8092505060e089013590509295985092959890939650565b60208082526014908201527313505494d7d49bdd5d195c8e881156141254915160621b604082015260600190565b634e487b7160e01b600052601160045260246000fd5b818103818111156109e1576109e1613dd9565b634e487b7160e01b600052603260045260246000fd5b60208082526019908201527f4d4152535f526f757465723a20494e56414c49445f5041544800000000000000604082015260600190565b60208082526027908201527f4d4152535f526f757465723a20494e53554646494349454e545f4f555450555460408201526617d05353d5539560ca1b606082015260800190565b60208082526023908201527f4d4152535f526f757465723a204558434553534956455f494e5055545f414d4f60408201526215539560ea1b606082015260800190565b600060208284031215613eeb57600080fd5b5051919050565b6020808252818101527f4f776e61626c653a2063616c6c6572206973206e6f7420746865206f776e6572604082015260600190565b80820281158282048414176109e1576109e1613dd9565b600060208284031215613f5057600080fd5b81518015158114613cb657600080fd5b634e487b7160e01b600052600160045260246000fd5b60008060408385031215613f8957600080fd5b505080516020909101519092909150565b60208082526022908201527f4d4152535f526f757465723a20494e53554646494349454e545f415f414d4f55604082015261139560f21b606082015260800190565b60208082526022908201527f4d4152535f526f757465723a20494e53554646494349454e545f425f414d4f55604082015261139560f21b606082015260800190565b60005b83811015614039578181015183820152602001614021565b50506000910152565b6000825161405481846020870161401e565b9190910192915050565b6020808252818101527f494c6962726172793a20494e53554646494349454e545f4c4951554944495459604082015260600190565b6000826140b057634e487b7160e01b600052601260045260246000fd5b500490565b6000602082840312156140c757600080fd5b8151613cb6816139a0565b808201808211156109e1576109e1613dd9565b6000600182016140f7576140f7613dd9565b5060010190565b84815283602082015260018060a01b038316604082015260806060820152600082518060808401526141378160a085016020870161401e565b601f01601f19169190910160a00195945050505050565b60008161415d5761415d613dd9565b506000190190565b80516001600160701b03811681146139c057600080fd5b60008060006060848603121561419157600080fd5b61419a84614165565b92506141a860208501614165565b9150604084015163ffffffff811681146141c157600080fd5b80915050925092509256fea2646970667358221220b9d8c95f7f819990af2ad7c553a6299d9ca9908b6faec5e70bd4367d23e92e7764736f6c63430008140033",
  "linkReferences": {},
  "deployedLinkReferences": {}
}