{
	"data": {
		"bytecode": {
			"linkReferences": {},
			"object": "60c06040523480156200001157600080fd5b506040516200448f3803806200448f8339810160408190526200003491620000db565b6200003f336200006e565b6001600160a01b0392831660805290821660a052600180546001600160a01b0319169190921617905562000125565b600080546001600160a01b038381166001600160a01b0319831681178455604051919092169283917f8be0079c531659141344cd1fd0a4f28419497f9722a3daafe3b4186f6b6457e09190a35050565b80516001600160a01b0381168114620000d657600080fd5b919050565b600080600060608486031215620000f157600080fd5b620000fc84620000be565b92506200010c60208501620000be565b91506200011c60408501620000be565b90509250925092565b60805160a0516142026200028d600039600081816103a001528181610567015281816105b601528181610672015281816108d201528181610b6f01528181610fbd015281816110dd015281816111880152818161121b015281816113a201528181611430015281816117c50152818161187d0152818161190e015281816119ef01528181611a630152818161210c01528181612162015281816121960152818161222b015281816123640152818161252301526125b10152600081816104470152818161072b015281816107fd015281816109b801528181610a4c01528181610beb01528181610d4c015281816112ff01528181611462015281816115eb01528181611a9501528181611cb401528181611ecb01528181611f8a01528181612140015281816123df015281816125e301528181612eb601528181612f06015281816131ca01528181613332015281816136bc0152818161375e01526137d501526142026000f3fe6080604052600436106101bb5760003560e01c8063ac5cad56116100ec578063cf8204611161008a578063e8e3370011610064578063e8e33700146104b3578063f2fde38b146104ee578063f305d7191461050e578063fb3bdb411461052157600080fd5b8063cf82046114610469578063d06ca61f1461047e578063e799ffb11461049e57600080fd5b8063af2979eb116100c6578063af2979eb146103e2578063b6f9de9514610402578063baa2abde14610415578063c45a01551461043557600080fd5b8063ac5cad561461036e578063ad5c46481461038e578063ad615dec146103c257600080fd5b80635c11d795116101595780637ff36ab5116101335780637ff36ab51461030a57806385f8c2591461031d5780638803dbee1461033d5780638da5cb5b1461035057600080fd5b80635c11d795146102cd578063715018a6146102e2578063791ac947146102f757600080fd5b80631f00ca74116101955780631f00ca741461024f578063310943011461026f57806338ed1739146102a75780634a25d94a146102ba57600080fd5b806302751cec146101c7578063054d50d41461020157806318cbafe51461022f57600080fd5b366101c257005b600080fd5b3480156101d357600080fd5b506101e76101e23660046139c5565b610534565b604080519283526020830191909152015b60405180910390f35b34801561020d57600080fd5b5061022161021c366004613a23565b610630565b6040519081526020016101f8565b61024261023d366004613a94565b610645565b6040516101f89190613b07565b34801561025b57600080fd5b5061024261026a366004613b61565b6109b1565b34801561027b57600080fd5b5060015461028f906001600160a01b031681565b6040516001600160a01b0390911681526020016101f8565b6102426102b5366004613a94565b6109e7565b6102426102c8366004613a94565b610b42565b6102e06102db366004613a94565b610cbd565b005b3480156102ee57600080fd5b506102e0610f5c565b6102e0610305366004613a94565b610f92565b610242610318366004613c32565b6111f6565b34801561032957600080fd5b50610221610338366004613a23565b611579565b61024261034b366004613a94565b611586565b34801561035c57600080fd5b506000546001600160a01b031661028f565b34801561037a57600080fd5b506102e0610389366004613c99565b611680565b34801561039a57600080fd5b5061028f7f000000000000000000000000000000000000000000000000000000000000000081565b3480156103ce57600080fd5b506102216103dd366004613a23565b61178f565b3480156103ee57600080fd5b506102216103fd3660046139c5565b61179c565b6102e0610410366004613c32565b6118eb565b34801561042157600080fd5b506101e7610430366004613cbd565b611c89565b34801561044157600080fd5b5061028f7f000000000000000000000000000000000000000000000000000000000000000081565b34801561047557600080fd5b50610221611e51565b34801561048a57600080fd5b50610242610499366004613b61565b611ec4565b3480156104aa57600080fd5b506102e0611ef1565b3480156104bf57600080fd5b506104d36104ce366004613d2f565b611f4a565b604080519384526020840192909252908201526060016101f8565b3480156104fa57600080fd5b506102e0610509366004613c99565b612048565b6104d361051c3660046139c5565b6120e0565b61024261052f366004613c32565b61233f565b60008082428110156105615760405162461bcd60e51b815260040161055890613dab565b60405180910390fd5b610590897f00000000000000000000000000000000000000000000000000000000000000008a8a8a308a611c89565b90935091506105a089868561273b565b604051632e1a7d4d60e01b8152600481018390527f00000000000000000000000000000000000000000000000000000000000000006001600160a01b031690632e1a7d4d90602401600060405180830381600087803b15801561060257600080fd5b505af1158015610616573d6000803e3d6000fd5b505050506106248583612856565b50965096945050505050565b600061063d848484612924565b949350505050565b606081428110156106685760405162461bcd60e51b815260040161055890613dab565b6001600160a01b037f000000000000000000000000000000000000000000000000000000000000000016868661069f600182613def565b8181106106ae576106ae613e02565b90506020020160208101906106c39190613c99565b6001600160a01b0316146106e95760405162461bcd60e51b815260040161055890613e18565b6107258686808060200260200160405190810160405280939291908181526020018383602002808284376000920191909152506129fa92505050565b506107847f000000000000000000000000000000000000000000000000000000000000000089888880806020026020016040519081016040528093929190818152602001838360200280828437600092019190915250612aa992505050565b91508682600184516107969190613def565b815181106107a6576107a6613e02565b602002602001015110156107cc5760405162461bcd60e51b815260040161055890613e4f565b610891868660008181106107e2576107e2613e02565b90506020020160208101906107f79190613c99565b336108717f00000000000000000000000000000000000000000000000000000000000000008a8a600081811061082f5761082f613e02565b90506020020160208101906108449190613c99565b8b8b600181811061085757610857613e02565b905060200201602081019061086c9190613c99565b612c2d565b8560008151811061088457610884613e02565b6020026020010151612ca3565b6108d082878780806020026020016040519081016040528093929190818152602001838360200280828437600092019190915250309250612dd3915050565b7f00000000000000000000000000000000000000000000000000000000000000006001600160a01b0316632e1a7d4d836001855161090e9190613def565b8151811061091e5761091e613e02565b60200260200101516040518263ffffffff1660e01b815260040161094491815260200190565b600060405180830381600087803b15801561095e57600080fd5b505af1158015610972573d6000803e3d6000fd5b505050506109a68483600185516109899190613def565b8151811061099957610999613e02565b6020026020010151612856565b509695505050505050565b60606109de7f00000000000000000000000000000000000000000000000000000000000000008484612fdb565b90505b92915050565b60608142811015610a0a5760405162461bcd60e51b815260040161055890613dab565b610a468686808060200260200160405190810160405280939291908181526020018383602002808284376000920191909152506129fa92505050565b50610aa57f000000000000000000000000000000000000000000000000000000000000000089888880806020026020016040519081016040528093929190818152602001838360200280828437600092019190915250612aa992505050565b9150868260018451610ab79190613def565b81518110610ac757610ac7613e02565b60200260200101511015610aed5760405162461bcd60e51b815260040161055890613e4f565b610b03868660008181106107e2576107e2613e02565b6109a682878780806020026020016040519081016040528093929190818152602001838360200280828437600092019190915250899250612dd3915050565b60608142811015610b655760405162461bcd60e51b815260040161055890613dab565b6001600160a01b037f0000000000000000000000000000000000000000000000000000000000000000168686610b9c600182613def565b818110610bab57610bab613e02565b9050602002016020810190610bc09190613c99565b6001600160a01b031614610be65760405162461bcd60e51b815260040161055890613e18565b610c447f000000000000000000000000000000000000000000000000000000000000000089888880806020026020016040519081016040528093929190818152602001838360200280828437600092019190915250612fdb92505050565b9150610c828686808060200260200160405190810160405280939291908181526020018383602002808284376000920191909152506129fa92505050565b508682600081518110610c9757610c97613e02565b602002602001015111156107cc5760405162461bcd60e51b815260040161055890613e96565b8042811015610cde5760405162461bcd60e51b815260040161055890613dab565b610d1a8585808060200260200160405190810160405280939291908181526020018383602002808284376000920191909152506129fa92505050565b50610dac85856000818110610d3157610d31613e02565b9050602002016020810190610d469190613c99565b33610da67f000000000000000000000000000000000000000000000000000000000000000089896000818110610d7e57610d7e613e02565b9050602002016020810190610d939190613c99565b8a8a600181811061085757610857613e02565b8a612ca3565b60008585610dbb600182613def565b818110610dca57610dca613e02565b9050602002016020810190610ddf9190613c99565b6040516370a0823160e01b81526001600160a01b03868116600483015291909116906370a0823190602401602060405180830381865afa158015610e27573d6000803e3d6000fd5b505050506040513d601f19601f82011682018060405250810190610e4b9190613ed9565b9050610e8b868680806020026020016040519081016040528093929190818152602001838360200280828437600092019190915250889250613155915050565b86610f34828888610e9d600182613def565b818110610eac57610eac613e02565b9050602002016020810190610ec19190613c99565b6040516370a0823160e01b81526001600160a01b03898116600483015291909116906370a08231906024015b602060405180830381865afa158015610f0a573d6000803e3d6000fd5b505050506040513d601f19601f82011682018060405250810190610f2e9190613ed9565b906133ee565b1015610f525760405162461bcd60e51b815260040161055890613e4f565b5050505050505050565b6000546001600160a01b03163314610f865760405162461bcd60e51b815260040161055890613ef2565b610f9060006133fa565b565b8042811015610fb35760405162461bcd60e51b815260040161055890613dab565b6001600160a01b037f0000000000000000000000000000000000000000000000000000000000000000168585610fea600182613def565b818110610ff957610ff9613e02565b905060200201602081019061100e9190613c99565b6001600160a01b0316146110345760405162461bcd60e51b815260040161055890613e18565b6110708585808060200260200160405190810160405280939291908181526020018383602002808284376000920191909152506129fa92505050565b5061108785856000818110610d3157610d31613e02565b6110c5858580806020026020016040519081016040528093929190818152602001838360200280828437600092019190915250309250613155915050565b6040516370a0823160e01b81523060048201526000907f00000000000000000000000000000000000000000000000000000000000000006001600160a01b0316906370a0823190602401602060405180830381865afa15801561112c573d6000803e3d6000fd5b505050506040513d601f19601f820116820180604052508101906111509190613ed9565b9050868110156111725760405162461bcd60e51b815260040161055890613e4f565b604051632e1a7d4d60e01b8152600481018290527f00000000000000000000000000000000000000000000000000000000000000006001600160a01b031690632e1a7d4d90602401600060405180830381600087803b1580156111d457600080fd5b505af11580156111e8573d6000803e3d6000fd5b50505050610f528482612856565b606081428110156112195760405162461bcd60e51b815260040161055890613dab565b7f00000000000000000000000000000000000000000000000000000000000000006001600160a01b03168686600081811061125657611256613e02565b905060200201602081019061126b9190613c99565b6001600160a01b0316146112915760405162461bcd60e51b815260040161055890613e18565b600061129b611e51565b6112a6906064613f27565b34116112b257346112f8565b6112ee8787808060200260200160405190810160405280939291908181526020018383602002808284376000920191909152506129fa92505050565b6112f89034613def565b90506113587f000000000000000000000000000000000000000000000000000000000000000082898980806020026020016040519081016040528093929190818152602001838360200280828437600092019190915250612aa992505050565b925087836001855161136a9190613def565b8151811061137a5761137a613e02565b602002602001015110156113a05760405162461bcd60e51b815260040161055890613e4f565b7f00000000000000000000000000000000000000000000000000000000000000006001600160a01b031663d0e30db0846000815181106113e2576113e2613e02565b60200260200101516040518263ffffffff1660e01b81526004016000604051808303818588803b15801561141557600080fd5b505af1158015611429573d6000803e3d6000fd5b50505050507f00000000000000000000000000000000000000000000000000000000000000006001600160a01b031663a9059cbb6114947f00000000000000000000000000000000000000000000000000000000000000008a8a600081811061082f5761082f613e02565b856000815181106114a7576114a7613e02565b60200260200101516040518363ffffffff1660e01b81526004016114e09291906001600160a01b03929092168252602082015260400190565b6020604051808303816000875af11580156114ff573d6000803e3d6000fd5b505050506040513d601f19601f820116820180604052508101906115239190613f3e565b61152f5761152f613f60565b61156e838888808060200260200160405190810160405280939291908181526020018383602002808284376000920191909152508a9250612dd3915050565b505095945050505050565b600061063d84848461344a565b606081428110156115a95760405162461bcd60e51b815260040161055890613dab565b6115e58686808060200260200160405190810160405280939291908181526020018383602002808284376000920191909152506129fa92505050565b506116447f000000000000000000000000000000000000000000000000000000000000000089888880806020026020016040519081016040528093929190818152602001838360200280828437600092019190915250612fdb92505050565b9150868260008151811061165a5761165a613e02565b60200260200101511115610aed5760405162461bcd60e51b815260040161055890613e96565b6000546001600160a01b031633146116aa5760405162461bcd60e51b815260040161055890613ef2565b6040516370a0823160e01b81523060048201526001600160a01b0382169063a9059cbb90339083906370a0823190602401602060405180830381865afa1580156116f8573d6000803e3d6000fd5b505050506040513d601f19601f8201168201806040525081019061171c9190613ed9565b6040516001600160e01b031960e085901b1681526001600160a01b03909216600483015260248201526044016020604051808303816000875af1158015611767573d6000803e3d6000fd5b505050506040513d601f19601f8201168201806040525081019061178b9190613f3e565b5050565b600061063d84848461351a565b600081428110156117bf5760405162461bcd60e51b815260040161055890613dab565b6117ee887f00000000000000000000000000000000000000000000000000000000000000008989893089611c89565b6040516370a0823160e01b81523060048201529093506118679150899086906001600160a01b038316906370a0823190602401602060405180830381865afa15801561183e573d6000803e3d6000fd5b505050506040513d601f19601f820116820180604052508101906118629190613ed9565b61273b565b604051632e1a7d4d60e01b8152600481018390527f00000000000000000000000000000000000000000000000000000000000000006001600160a01b031690632e1a7d4d90602401600060405180830381600087803b1580156118c957600080fd5b505af11580156118dd573d6000803e3d6000fd5b505050506109a68483612856565b804281101561190c5760405162461bcd60e51b815260040161055890613dab565b7f00000000000000000000000000000000000000000000000000000000000000006001600160a01b03168585600081811061194957611949613e02565b905060200201602081019061195e9190613c99565b6001600160a01b0316146119845760405162461bcd60e51b815260040161055890613e18565b600061198e611e51565b611999906064613f27565b34116119a557346119eb565b6119e18686808060200260200160405190810160405280939291908181526020018383602002808284376000920191909152506129fa92505050565b6119eb9034613def565b90507f00000000000000000000000000000000000000000000000000000000000000006001600160a01b031663d0e30db0826040518263ffffffff1660e01b81526004016000604051808303818588803b158015611a4857600080fd5b505af1158015611a5c573d6000803e3d6000fd5b50505050507f00000000000000000000000000000000000000000000000000000000000000006001600160a01b031663a9059cbb611ac77f000000000000000000000000000000000000000000000000000000000000000089896000818110610d7e57610d7e613e02565b6040516001600160e01b031960e084901b1681526001600160a01b039091166004820152602481018490526044016020604051808303816000875af1158015611b14573d6000803e3d6000fd5b505050506040513d601f19601f82011682018060405250810190611b389190613f3e565b611b4457611b44613f60565b60008686611b53600182613def565b818110611b6257611b62613e02565b9050602002016020810190611b779190613c99565b6040516370a0823160e01b81526001600160a01b03878116600483015291909116906370a0823190602401602060405180830381865afa158015611bbf573d6000803e3d6000fd5b505050506040513d601f19601f82011682018060405250810190611be39190613ed9565b9050611c23878780806020026020016040519081016040528093929190818152602001838360200280828437600092019190915250899250613155915050565b87610f34828989611c35600182613def565b818110611c4457611c44613e02565b9050602002016020810190611c599190613c99565b6040516370a0823160e01b81526001600160a01b038a8116600483015291909116906370a0823190602401610eed565b6000808242811015611cad5760405162461bcd60e51b815260040161055890613dab565b6000611cda7f00000000000000000000000000000000000000000000000000000000000000008c8c612c2d565b6040516323b872dd60e01b81523360048201526001600160a01b03821660248201819052604482018c90529192506323b872dd906064016020604051808303816000875af1158015611d30573d6000803e3d6000fd5b505050506040513d601f19601f82011682018060405250810190611d549190613f3e565b5060405163226bf2d160e21b81526001600160a01b03878116600483015260009182918416906389afcb449060240160408051808303816000875af1158015611da1573d6000803e3d6000fd5b505050506040513d601f19601f82011682018060405250810190611dc59190613f76565b915091506000611dd58e8e6135ac565b509050806001600160a01b03168e6001600160a01b031614611df8578183611dfb565b82825b90975095508a871015611e205760405162461bcd60e51b815260040161055890613f9a565b89861015611e405760405162461bcd60e51b815260040161055890613fdc565b505050505097509795505050505050565b6001546040805163d9eb594760e01b815290516000926001600160a01b03169163d9eb59479160048083019260209291908290030181865afa158015611e9b573d6000803e3d6000fd5b505050506040513d601f19601f82011682018060405250810190611ebf9190613ed9565b905090565b60606109de7f00000000000000000000000000000000000000000000000000000000000000008484612aa9565b6000546001600160a01b03163314611f1b5760405162461bcd60e51b815260040161055890613ef2565b60405133904780156108fc02916000818181858888f19350505050158015611f47573d6000803e3d6000fd5b50565b60008060008342811015611f705760405162461bcd60e51b815260040161055890613dab565b611f7e8c8c8c8c8c8c61368e565b90945092506000611fb07f00000000000000000000000000000000000000000000000000000000000000008e8e612c2d565b9050611fbe8d338388612ca3565b611fca8c338387612ca3565b6040516335313c2160e11b81526001600160a01b038881166004830152821690636a627842906024016020604051808303816000875af1158015612012573d6000803e3d6000fd5b505050506040513d601f19601f820116820180604052508101906120369190613ed9565b92505050985098509895505050505050565b6000546001600160a01b031633146120725760405162461bcd60e51b815260040161055890613ef2565b6001600160a01b0381166120d75760405162461bcd60e51b815260206004820152602660248201527f4f776e61626c653a206e6577206f776e657220697320746865207a65726f206160448201526564647265737360d01b6064820152608401610558565b611f47816133fa565b600080600083428110156121065760405162461bcd60e51b815260040161055890613dab565b6121348a7f00000000000000000000000000000000000000000000000000000000000000008b348c8c61368e565b909450925060006121867f00000000000000000000000000000000000000000000000000000000000000008c7f0000000000000000000000000000000000000000000000000000000000000000612c2d565b90506121948b338388612ca3565b7f00000000000000000000000000000000000000000000000000000000000000006001600160a01b031663d0e30db0856040518263ffffffff1660e01b81526004016000604051808303818588803b1580156121ef57600080fd5b505af1158015612203573d6000803e3d6000fd5b505060405163a9059cbb60e01b81526001600160a01b038581166004830152602482018990527f000000000000000000000000000000000000000000000000000000000000000016935063a9059cbb925060440190506020604051808303816000875af1158015612278573d6000803e3d6000fd5b505050506040513d601f19601f8201168201806040525081019061229c9190613f3e565b6122a8576122a8613f60565b6040516335313c2160e11b81526001600160a01b038881166004830152821690636a627842906024016020604051808303816000875af11580156122f0573d6000803e3d6000fd5b505050506040513d601f19601f820116820180604052508101906123149190613ed9565b925083341115612331576123313361232c8634613def565b612856565b505096509650969350505050565b606081428110156123625760405162461bcd60e51b815260040161055890613dab565b7f00000000000000000000000000000000000000000000000000000000000000006001600160a01b03168686600081811061239f5761239f613e02565b90506020020160208101906123b49190613c99565b6001600160a01b0316146123da5760405162461bcd60e51b815260040161055890613e18565b6124387f000000000000000000000000000000000000000000000000000000000000000088888880806020026020016040519081016040528093929190818152602001838360200280828437600092019190915250612fdb92505050565b91506000612444611e51565b61244f906064613f27565b341161245c576000612498565b6124988787808060200260200160405190810160405280939291908181526020018383602002808284376000920191909152506129fa92505050565b905080836000815181106124ae576124ae613e02565b60200260200101516124c09190613def565b836000815181106124d3576124d3613e02565b60209081029190910101526124e88134613def565b836000815181106124fb576124fb613e02565b602002602001015111156125215760405162461bcd60e51b815260040161055890613e96565b7f00000000000000000000000000000000000000000000000000000000000000006001600160a01b031663d0e30db08460008151811061256357612563613e02565b60200260200101516040518263ffffffff1660e01b81526004016000604051808303818588803b15801561259657600080fd5b505af11580156125aa573d6000803e3d6000fd5b50505050507f00000000000000000000000000000000000000000000000000000000000000006001600160a01b031663a9059cbb6126157f00000000000000000000000000000000000000000000000000000000000000008a8a600081811061082f5761082f613e02565b8560008151811061262857612628613e02565b60200260200101516040518363ffffffff1660e01b81526004016126619291906001600160a01b03929092168252602082015260400190565b6020604051808303816000875af1158015612680573d6000803e3d6000fd5b505050506040513d601f19601f820116820180604052508101906126a49190613f3e565b6126b0576126b0613f60565b6126ef838888808060200260200160405190810160405280939291908181526020018383602002808284376000920191909152508a9250612dd3915050565b8260008151811061270257612702613e02565b602002602001015134111561156e5761156e338460008151811061272857612728613e02565b60200260200101513461232c9190613def565b604080516001600160a01b038481166024830152604480830185905283518084039091018152606490920183526020820180516001600160e01b031663a9059cbb60e01b17905291516000928392908716916127979190614042565b6000604051808303816000865af19150503d80600081146127d4576040519150601f19603f3d011682016040523d82523d6000602084013e6127d9565b606091505b50915091508180156128035750805115806128035750808060200190518101906128039190613f3e565b61284f5760405162461bcd60e51b815260206004820152601f60248201527f5472616e7366657248656c7065723a205452414e534645525f4641494c4544006044820152606401610558565b5050505050565b604080516000808252602082019092526001600160a01b0384169083906040516128809190614042565b60006040518083038185875af1925050503d80600081146128bd576040519150601f19603f3d011682016040523d82523d6000602084013e6128c2565b606091505b505090508061291f5760405162461bcd60e51b815260206004820152602360248201527f5472616e7366657248656c7065723a204554485f5452414e534645525f46414960448201526213115160ea1b6064820152608401610558565b505050565b60008084116129815760405162461bcd60e51b815260206004820152602360248201527f494c6962726172793a20494e53554646494349454e545f494e5055545f414d4f60448201526215539560ea1b6064820152608401610558565b6000831180156129915750600082115b6129ad5760405162461bcd60e51b81526004016105589061405e565b60006129bb856126f76138b2565b905060006129c982856138b2565b905060006129e3836129dd886127106138b2565b906138be565b90506129ef8183614093565b979650505050505050565b600060018251612a0a9190613def565b612a12611e51565b612a1c9190613f27565b90506000600160009054906101000a90046001600160a01b03166001600160a01b03166361d027b36040518163ffffffff1660e01b8152600401602060405180830381865afa158015612a73573d6000803e3d6000fd5b505050506040513d601f19601f82011682018060405250810190612a9791906140b5565b9050612aa38183612856565b50919050565b6060600282511015612af65760405162461bcd60e51b815260206004820152601660248201527509298d2c4e4c2e4f27440929cac82989288bea082a8960531b6044820152606401610558565b815167ffffffffffffffff811115612b1057612b10613b4b565b604051908082528060200260200182016040528015612b39578160200160208202803683370190505b5090508281600081518110612b5057612b50613e02565b60200260200101818152505060005b60018351612b6d9190613def565b811015612c2557600080612bc087868581518110612b8d57612b8d613e02565b602002602001015187866001612ba391906140d2565b81518110612bb357612bb3613e02565b60200260200101516138ca565b91509150612be8848481518110612bd957612bd9613e02565b60200260200101518383612924565b84612bf48560016140d2565b81518110612c0457612c04613e02565b60200260200101818152505050508080612c1d906140e5565b915050612b5f565b509392505050565b60405163e6a4390560e01b81526001600160a01b03838116600483015282811660248301526000919085169063e6a4390590604401602060405180830381865afa158015612c7f573d6000803e3d6000fd5b505050506040513d601f19601f8201168201806040525081019061063d91906140b5565b604080516001600160a01b0385811660248301528481166044830152606480830185905283518084039091018152608490920183526020820180516001600160e01b03166323b872dd60e01b1790529151600092839290881691612d079190614042565b6000604051808303816000865af19150503d8060008114612d44576040519150601f19603f3d011682016040523d82523d6000602084013e612d49565b606091505b5091509150818015612d73575080511580612d73575080806020019051810190612d739190613f3e565b612dcb5760405162461bcd60e51b8152602060048201526024808201527f5472616e7366657248656c7065723a205452414e534645525f46524f4d5f46416044820152631253115160e21b6064820152608401610558565b505050505050565b60005b60018351612de49190613def565b811015612fd557600080848381518110612e0057612e00613e02565b602002602001015185846001612e1691906140d2565b81518110612e2657612e26613e02565b6020026020010151915091506000612e3e83836135ac565b509050600087612e4f8660016140d2565b81518110612e5f57612e5f613e02565b60200260200101519050600080836001600160a01b0316866001600160a01b031614612e8d57826000612e91565b6000835b91509150600060028a51612ea59190613def565b8810612eb15788612eff565b612eff7f0000000000000000000000000000000000000000000000000000000000000000878c612ee28c60026140d2565b81518110612ef257612ef2613e02565b6020026020010151612c2d565b9050612f2c7f00000000000000000000000000000000000000000000000000000000000000008888612c2d565b6001600160a01b031663022c0d9f84848460006040519080825280601f01601f191660200182016040528015612f69576020820181803683370190505b506040518563ffffffff1660e01b8152600401612f8994939291906140fe565b600060405180830381600087803b158015612fa357600080fd5b505af1158015612fb7573d6000803e3d6000fd5b50505050505050505050508080612fcd906140e5565b915050612dd6565b50505050565b60606002825110156130285760405162461bcd60e51b815260206004820152601660248201527509298d2c4e4c2e4f27440929cac82989288bea082a8960531b6044820152606401610558565b815167ffffffffffffffff81111561304257613042613b4b565b60405190808252806020026020018201604052801561306b578160200160208202803683370190505b50905082816001835161307e9190613def565b8151811061308e5761308e613e02565b6020026020010181815250506000600183516130aa9190613def565b90505b8015612c25576000806130f087866130c6600187613def565b815181106130d6576130d6613e02565b6020026020010151878681518110612bb357612bb3613e02565b9150915061311884848151811061310957613109613e02565b6020026020010151838361344a565b84613124600186613def565b8151811061313457613134613e02565b6020026020010181815250505050808061314d9061414e565b9150506130ad565b60005b600183516131669190613def565b81101561291f5760008084838151811061318257613182613e02565b60200260200101518584600161319891906140d2565b815181106131a8576131a8613e02565b60200260200101519150915060006131c083836135ac565b50905060006131f07f00000000000000000000000000000000000000000000000000000000000000008585612c2d565b9050600080600080846001600160a01b0316630902f1ac6040518163ffffffff1660e01b8152600401606060405180830381865afa158015613236573d6000803e3d6000fd5b505050506040513d601f19601f8201168201806040525081019061325a919061417c565b506001600160701b031691506001600160701b03169150600080876001600160a01b03168a6001600160a01b031614613294578284613297565b83835b6040516370a0823160e01b81526001600160a01b038a811660048301529294509092506132d2918491908d16906370a0823190602401610eed565b95506132df868383612924565b945050505050600080856001600160a01b0316886001600160a01b0316146133095782600061330d565b6000835b91509150600060028c516133219190613def565b8a1061332d578a61335e565b61335e7f0000000000000000000000000000000000000000000000000000000000000000898e612ee28e60026140d2565b6040805160008152602081019182905263022c0d9f60e01b9091529091506001600160a01b0387169063022c0d9f906133a090869086908690602481016140fe565b600060405180830381600087803b1580156133ba57600080fd5b505af11580156133ce573d6000803e3d6000fd5b5050505050505050505050505080806133e6906140e5565b915050613158565b60006109de8284613def565b600080546001600160a01b038381166001600160a01b0319831681178455604051919092169283917f8be0079c531659141344cd1fd0a4f28419497f9722a3daafe3b4186f6b6457e09190a35050565b60008084116134a75760405162461bcd60e51b8152602060048201526024808201527f494c6962726172793a20494e53554646494349454e545f4f55545055545f414d60448201526313d5539560e21b6064820152608401610558565b6000831180156134b75750600082115b6134d35760405162461bcd60e51b81526004016105589061405e565b60006134eb6127106134e586886138b2565b906138b2565b905060006134ff6126f76134e586896133ee565b905061351060016129dd8385614093565b9695505050505050565b600080841161356b5760405162461bcd60e51b815260206004820152601d60248201527f494c6962726172793a20494e53554646494349454e545f414d4f554e540000006044820152606401610558565b60008311801561357b5750600082115b6135975760405162461bcd60e51b81526004016105589061405e565b826135a285846138b2565b61063d9190614093565b600080826001600160a01b0316846001600160a01b0316036136105760405162461bcd60e51b815260206004820152601d60248201527f494c6962726172793a204944454e544943414c5f4144445245535345530000006044820152606401610558565b826001600160a01b0316846001600160a01b031610613630578284613633565b83835b90925090506001600160a01b0382166136875760405162461bcd60e51b8152602060048201526016602482015275494c6962726172793a205a45524f5f4144445245535360501b6044820152606401610558565b9250929050565b60405163e6a4390560e01b81526001600160a01b0387811660048301528681166024830152600091829182917f00000000000000000000000000000000000000000000000000000000000000009091169063e6a4390590604401602060405180830381865afa158015613705573d6000803e3d6000fd5b505050506040513d601f19601f8201168201806040525081019061372991906140b5565b6001600160a01b0316036137cd576040516364e329cb60e11b81526001600160a01b03898116600483015288811660248301527f0000000000000000000000000000000000000000000000000000000000000000169063c9c65396906044016020604051808303816000875af11580156137a7573d6000803e3d6000fd5b505050506040513d601f19601f820116820180604052508101906137cb91906140b5565b505b6000806137fb7f00000000000000000000000000000000000000000000000000000000000000008b8b6138ca565b9150915081600014801561380d575080155b1561381d578793508692506138a5565b600061382a89848461351a565b905087811161385e57858110156138535760405162461bcd60e51b815260040161055890613fdc565b8894509250826138a3565b600061386b89848661351a565b90508981111561387d5761387d613f60565b8781101561389d5760405162461bcd60e51b815260040161055890613f9a565b94508793505b505b5050965096945050505050565b60006109de8284613f27565b60006109de82846140d2565b60008060006138d985856135ac565b5090506138e7868686612c2d565b506000806138f6888888612c2d565b6001600160a01b0316630902f1ac6040518163ffffffff1660e01b8152600401606060405180830381865afa158015613933573d6000803e3d6000fd5b505050506040513d601f19601f82011682018060405250810190613957919061417c565b506001600160701b031691506001600160701b03169150826001600160a01b0316876001600160a01b03161461398e578082613991565b81815b90999098509650505050505050565b6001600160a01b0381168114611f4757600080fd5b80356139c0816139a0565b919050565b60008060008060008060c087890312156139de57600080fd5b86356139e9816139a0565b95506020870135945060408701359350606087013592506080870135613a0e816139a0565b8092505060a087013590509295509295509295565b600080600060608486031215613a3857600080fd5b505081359360208301359350604090920135919050565b60008083601f840112613a6157600080fd5b50813567ffffffffffffffff811115613a7957600080fd5b6020830191508360208260051b850101111561368757600080fd5b60008060008060008060a08789031215613aad57600080fd5b8635955060208701359450604087013567ffffffffffffffff811115613ad257600080fd5b613ade89828a01613a4f565b9095509350506060870135613af2816139a0565b80925050608087013590509295509295509295565b6020808252825182820181905260009190848201906040850190845b81811015613b3f57835183529284019291840191600101613b23565b50909695505050505050565b634e487b7160e01b600052604160045260246000fd5b60008060408385031215613b7457600080fd5b8235915060208084013567ffffffffffffffff80821115613b9457600080fd5b818601915086601f830112613ba857600080fd5b813581811115613bba57613bba613b4b565b8060051b604051601f19603f83011681018181108582111715613bdf57613bdf613b4b565b604052918252848201925083810185019189831115613bfd57600080fd5b938501935b82851015613c2257613c13856139b5565b84529385019392850192613c02565b8096505050505050509250929050565b600080600080600060808688031215613c4a57600080fd5b85359450602086013567ffffffffffffffff811115613c6857600080fd5b613c7488828901613a4f565b9095509350506040860135613c88816139a0565b949793965091946060013592915050565b600060208284031215613cab57600080fd5b8135613cb6816139a0565b9392505050565b600080600080600080600060e0888a031215613cd857600080fd5b8735613ce3816139a0565b96506020880135613cf3816139a0565b955060408801359450606088013593506080880135925060a0880135613d18816139a0565b8092505060c0880135905092959891949750929550565b600080600080600080600080610100898b031215613d4c57600080fd5b8835613d57816139a0565b97506020890135613d67816139a0565b965060408901359550606089013594506080890135935060a0890135925060c0890135613d93816139a0565b8092505060e089013590509295985092959890939650565b60208082526014908201527313505494d7d49bdd5d195c8e881156141254915160621b604082015260600190565b634e487b7160e01b600052601160045260246000fd5b818103818111156109e1576109e1613dd9565b634e487b7160e01b600052603260045260246000fd5b60208082526019908201527f4d4152535f526f757465723a20494e56414c49445f5041544800000000000000604082015260600190565b60208082526027908201527f4d4152535f526f757465723a20494e53554646494349454e545f4f555450555460408201526617d05353d5539560ca1b606082015260800190565b60208082526023908201527f4d4152535f526f757465723a204558434553534956455f494e5055545f414d4f60408201526215539560ea1b606082015260800190565b600060208284031215613eeb57600080fd5b5051919050565b6020808252818101527f4f776e61626c653a2063616c6c6572206973206e6f7420746865206f776e6572604082015260600190565b80820281158282048414176109e1576109e1613dd9565b600060208284031215613f5057600080fd5b81518015158114613cb657600080fd5b634e487b7160e01b600052600160045260246000fd5b60008060408385031215613f8957600080fd5b505080516020909101519092909150565b60208082526022908201527f4d4152535f526f757465723a20494e53554646494349454e545f415f414d4f55604082015261139560f21b606082015260800190565b60208082526022908201527f4d4152535f526f757465723a20494e53554646494349454e545f425f414d4f55604082015261139560f21b606082015260800190565b60005b83811015614039578181015183820152602001614021565b50506000910152565b6000825161405481846020870161401e565b9190910192915050565b6020808252818101527f494c6962726172793a20494e53554646494349454e545f4c4951554944495459604082015260600190565b6000826140b057634e487b7160e01b600052601260045260246000fd5b500490565b6000602082840312156140c757600080fd5b8151613cb6816139a0565b808201808211156109e1576109e1613dd9565b6000600182016140f7576140f7613dd9565b5060010190565b84815283602082015260018060a01b038316604082015260806060820152600082518060808401526141378160a085016020870161401e565b601f01601f19169190910160a00195945050505050565b60008161415d5761415d613dd9565b506000190190565b80516001600160701b03811681146139c057600080fd5b60008060006060848603121561419157600080fd5b61419a84614165565b92506141a860208501614165565b9150604084015163ffffffff811681146141c157600080fd5b80915050925092509256fea264697066735822122033e6ecb4c8d8ed5231911651d0affd518e2d7110b16382fc6110fad7b576027664736f6c63430008120033",
			"opcodes": "PUSH1 0xC0 PUSH1 0x40 MSTORE CALLVALUE DUP1 ISZERO PUSH3 0x11 JUMPI PUSH1 0x0 DUP1 REVERT JUMPDEST POP PUSH1 0x40 MLOAD PUSH3 0x448F CODESIZE SUB DUP1 PUSH3 0x448F DUP4 CODECOPY DUP2 ADD PUSH1 0x40 DUP2 SWAP1 MSTORE PUSH3 0x34 SWAP2 PUSH3 0xDB JUMP JUMPDEST PUSH3 0x3F CALLER PUSH3 0x6E JUMP JUMPDEST PUSH1 0x1 PUSH1 0x1 PUSH1 0xA0 SHL SUB SWAP3 DUP4 AND PUSH1 0x80 MSTORE SWAP1 DUP3 AND PUSH1 0xA0 MSTORE PUSH1 0x1 DUP1 SLOAD PUSH1 0x1 PUSH1 0x1 PUSH1 0xA0 SHL SUB NOT AND SWAP2 SWAP1 SWAP3 AND OR SWAP1 SSTORE PUSH3 0x125 JUMP JUMPDEST PUSH1 0x0 DUP1 SLOAD PUSH1 0x1 PUSH1 0x1 PUSH1 0xA0 SHL SUB DUP4 DUP2 AND PUSH1 0x1 PUSH1 0x1 PUSH1 0xA0 SHL SUB NOT DUP4 AND DUP2 OR DUP5 SSTORE PUSH1 0x40 MLOAD SWAP2 SWAP1 SWAP3 AND SWAP3 DUP4 SWAP2 PUSH32 0x8BE0079C531659141344CD1FD0A4F28419497F9722A3DAAFE3B4186F6B6457E0 SWAP2 SWAP1 LOG3 POP POP JUMP JUMPDEST DUP1 MLOAD PUSH1 0x1 PUSH1 0x1 PUSH1 0xA0 SHL SUB DUP2 AND DUP2 EQ PUSH3 0xD6 JUMPI PUSH1 0x0 DUP1 REVERT JUMPDEST SWAP2 SWAP1 POP JUMP JUMPDEST PUSH1 0x0 DUP1 PUSH1 0x0 PUSH1 0x60 DUP5 DUP7 SUB SLT ISZERO PUSH3 0xF1 JUMPI PUSH1 0x0 DUP1 REVERT JUMPDEST PUSH3 0xFC DUP5 PUSH3 0xBE JUMP JUMPDEST SWAP3 POP PUSH3 0x10C PUSH1 0x20 DUP6 ADD PUSH3 0xBE JUMP JUMPDEST SWAP2 POP PUSH3 0x11C PUSH1 0x40 DUP6 ADD PUSH3 0xBE JUMP JUMPDEST SWAP1 POP SWAP3 POP SWAP3 POP SWAP3 JUMP JUMPDEST PUSH1 0x80 MLOAD PUSH1 0xA0 MLOAD PUSH2 0x4202 PUSH3 0x28D PUSH1 0x0 CODECOPY PUSH1 0x0 DUP2 DUP2 PUSH2 0x3A0 ADD MSTORE DUP2 DUP2 PUSH2 0x567 ADD MSTORE DUP2 DUP2 PUSH2 0x5B6 ADD MSTORE DUP2 DUP2 PUSH2 0x672 ADD MSTORE DUP2 DUP2 PUSH2 0x8D2 ADD MSTORE DUP2 DUP2 PUSH2 0xB6F ADD MSTORE DUP2 DUP2 PUSH2 0xFBD ADD MSTORE DUP2 DUP2 PUSH2 0x10DD ADD MSTORE DUP2 DUP2 PUSH2 0x1188 ADD MSTORE DUP2 DUP2 PUSH2 0x121B ADD MSTORE DUP2 DUP2 PUSH2 0x13A2 ADD MSTORE DUP2 DUP2 PUSH2 0x1430 ADD MSTORE DUP2 DUP2 PUSH2 0x17C5 ADD MSTORE DUP2 DUP2 PUSH2 0x187D ADD MSTORE DUP2 DUP2 PUSH2 0x190E ADD MSTORE DUP2 DUP2 PUSH2 0x19EF ADD MSTORE DUP2 DUP2 PUSH2 0x1A63 ADD MSTORE DUP2 DUP2 PUSH2 0x210C ADD MSTORE DUP2 DUP2 PUSH2 0x2162 ADD MSTORE DUP2 DUP2 PUSH2 0x2196 ADD MSTORE DUP2 DUP2 PUSH2 0x222B ADD MSTORE DUP2 DUP2 PUSH2 0x2364 ADD MSTORE DUP2 DUP2 PUSH2 0x2523 ADD MSTORE PUSH2 0x25B1 ADD MSTORE PUSH1 0x0 DUP2 DUP2 PUSH2 0x447 ADD MSTORE DUP2 DUP2 PUSH2 0x72B ADD MSTORE DUP2 DUP2 PUSH2 0x7FD ADD MSTORE DUP2 DUP2 PUSH2 0x9B8 ADD MSTORE DUP2 DUP2 PUSH2 0xA4C ADD MSTORE DUP2 DUP2 PUSH2 0xBEB ADD MSTORE DUP2 DUP2 PUSH2 0xD4C ADD MSTORE DUP2 DUP2 PUSH2 0x12FF ADD MSTORE DUP2 DUP2 PUSH2 0x1462 ADD MSTORE DUP2 DUP2 PUSH2 0x15EB ADD MSTORE DUP2 DUP2 PUSH2 0x1A95 ADD MSTORE DUP2 DUP2 PUSH2 0x1CB4 ADD MSTORE DUP2 DUP2 PUSH2 0x1ECB ADD MSTORE DUP2 DUP2 PUSH2 0x1F8A ADD MSTORE DUP2 DUP2 PUSH2 0x2140 ADD MSTORE DUP2 DUP2 PUSH2 0x23DF ADD MSTORE DUP2 DUP2 PUSH2 0x25E3 ADD MSTORE DUP2 DUP2 PUSH2 0x2EB6 ADD MSTORE DUP2 DUP2 PUSH2 0x2F06 ADD MSTORE DUP2 DUP2 PUSH2 0x31CA ADD MSTORE DUP2 DUP2 PUSH2 0x3332 ADD MSTORE DUP2 DUP2 PUSH2 0x36BC ADD MSTORE DUP2 DUP2 PUSH2 0x375E ADD MSTORE PUSH2 0x37D5 ADD MSTORE PUSH2 0x4202 PUSH1 0x0 RETURN INVALID PUSH1 0x80 PUSH1 0x40 MSTORE PUSH1 0x4 CALLDATASIZE LT PUSH2 0x1BB JUMPI PUSH1 0x0 CALLDATALOAD PUSH1 0xE0 SHR DUP1 PUSH4 0xAC5CAD56 GT PUSH2 0xEC JUMPI DUP1 PUSH4 0xCF820461 GT PUSH2 0x8A JUMPI DUP1 PUSH4 0xE8E33700 GT PUSH2 0x64 JUMPI DUP1 PUSH4 0xE8E33700 EQ PUSH2 0x4B3 JUMPI DUP1 PUSH4 0xF2FDE38B EQ PUSH2 0x4EE JUMPI DUP1 PUSH4 0xF305D719 EQ PUSH2 0x50E JUMPI DUP1 PUSH4 0xFB3BDB41 EQ PUSH2 0x521 JUMPI PUSH1 0x0 DUP1 REVERT JUMPDEST DUP1 PUSH4 0xCF820461 EQ PUSH2 0x469 JUMPI DUP1 PUSH4 0xD06CA61F EQ PUSH2 0x47E JUMPI DUP1 PUSH4 0xE799FFB1 EQ PUSH2 0x49E JUMPI PUSH1 0x0 DUP1 REVERT JUMPDEST DUP1 PUSH4 0xAF2979EB GT PUSH2 0xC6 JUMPI DUP1 PUSH4 0xAF2979EB EQ PUSH2 0x3E2 JUMPI DUP1 PUSH4 0xB6F9DE95 EQ PUSH2 0x402 JUMPI DUP1 PUSH4 0xBAA2ABDE EQ PUSH2 0x415 JUMPI DUP1 PUSH4 0xC45A0155 EQ PUSH2 0x435 JUMPI PUSH1 0x0 DUP1 REVERT JUMPDEST DUP1 PUSH4 0xAC5CAD56 EQ PUSH2 0x36E JUMPI DUP1 PUSH4 0xAD5C4648 EQ PUSH2 0x38E JUMPI DUP1 PUSH4 0xAD615DEC EQ PUSH2 0x3C2 JUMPI PUSH1 0x0 DUP1 REVERT JUMPDEST DUP1 PUSH4 0x5C11D795 GT PUSH2 0x159 JUMPI DUP1 PUSH4 0x7FF36AB5 GT PUSH2 0x133 JUMPI DUP1 PUSH4 0x7FF36AB5 EQ PUSH2 0x30A JUMPI DUP1 PUSH4 0x85F8C259 EQ PUSH2 0x31D JUMPI DUP1 PUSH4 0x8803DBEE EQ PUSH2 0x33D JUMPI DUP1 PUSH4 0x8DA5CB5B EQ PUSH2 0x350 JUMPI PUSH1 0x0 DUP1 REVERT JUMPDEST DUP1 PUSH4 0x5C11D795 EQ PUSH2 0x2CD JUMPI DUP1 PUSH4 0x715018A6 EQ PUSH2 0x2E2 JUMPI DUP1 PUSH4 0x791AC947 EQ PUSH2 0x2F7 JUMPI PUSH1 0x0 DUP1 REVERT JUMPDEST DUP1 PUSH4 0x1F00CA74 GT PUSH2 0x195 JUMPI DUP1 PUSH4 0x1F00CA74 EQ PUSH2 0x24F JUMPI DUP1 PUSH4 0x31094301 EQ PUSH2 0x26F JUMPI DUP1 PUSH4 0x38ED1739 EQ PUSH2 0x2A7 JUMPI DUP1 PUSH4 0x4A25D94A EQ PUSH2 0x2BA JUMPI PUSH1 0x0 DUP1 REVERT JUMPDEST DUP1 PUSH4 0x2751CEC EQ PUSH2 0x1C7 JUMPI DUP1 PUSH4 0x54D50D4 EQ PUSH2 0x201 JUMPI DUP1 PUSH4 0x18CBAFE5 EQ PUSH2 0x22F JUMPI PUSH1 0x0 DUP1 REVERT JUMPDEST CALLDATASIZE PUSH2 0x1C2 JUMPI STOP JUMPDEST PUSH1 0x0 DUP1 REVERT JUMPDEST CALLVALUE DUP1 ISZERO PUSH2 0x1D3 JUMPI PUSH1 0x0 DUP1 REVERT JUMPDEST POP PUSH2 0x1E7 PUSH2 0x1E2 CALLDATASIZE PUSH1 0x4 PUSH2 0x39C5 JUMP JUMPDEST PUSH2 0x534 JUMP JUMPDEST PUSH1 0x40 DUP1 MLOAD SWAP3 DUP4 MSTORE PUSH1 0x20 DUP4 ADD SWAP2 SWAP1 SWAP2 MSTORE ADD JUMPDEST PUSH1 0x40 MLOAD DUP1 SWAP2 SUB SWAP1 RETURN JUMPDEST CALLVALUE DUP1 ISZERO PUSH2 0x20D JUMPI PUSH1 0x0 DUP1 REVERT JUMPDEST POP PUSH2 0x221 PUSH2 0x21C CALLDATASIZE PUSH1 0x4 PUSH2 0x3A23 JUMP JUMPDEST PUSH2 0x630 JUMP JUMPDEST PUSH1 0x40 MLOAD SWAP1 DUP2 MSTORE PUSH1 0x20 ADD PUSH2 0x1F8 JUMP JUMPDEST PUSH2 0x242 PUSH2 0x23D CALLDATASIZE PUSH1 0x4 PUSH2 0x3A94 JUMP JUMPDEST PUSH2 0x645 JUMP JUMPDEST PUSH1 0x40 MLOAD PUSH2 0x1F8 SWAP2 SWAP1 PUSH2 0x3B07 JUMP JUMPDEST CALLVALUE DUP1 ISZERO PUSH2 0x25B JUMPI PUSH1 0x0 DUP1 REVERT JUMPDEST POP PUSH2 0x242 PUSH2 0x26A CALLDATASIZE PUSH1 0x4 PUSH2 0x3B61 JUMP JUMPDEST PUSH2 0x9B1 JUMP JUMPDEST CALLVALUE DUP1 ISZERO PUSH2 0x27B JUMPI PUSH1 0x0 DUP1 REVERT JUMPDEST POP PUSH1 0x1 SLOAD PUSH2 0x28F SWAP1 PUSH1 0x1 PUSH1 0x1 PUSH1 0xA0 SHL SUB AND DUP2 JUMP JUMPDEST PUSH1 0x40 MLOAD PUSH1 0x1 PUSH1 0x1 PUSH1 0xA0 SHL SUB SWAP1 SWAP2 AND DUP2 MSTORE PUSH1 0x20 ADD PUSH2 0x1F8 JUMP JUMPDEST PUSH2 0x242 PUSH2 0x2B5 CALLDATASIZE PUSH1 0x4 PUSH2 0x3A94 JUMP JUMPDEST PUSH2 0x9E7 JUMP JUMPDEST PUSH2 0x242 PUSH2 0x2C8 CALLDATASIZE PUSH1 0x4 PUSH2 0x3A94 JUMP JUMPDEST PUSH2 0xB42 JUMP JUMPDEST PUSH2 0x2E0 PUSH2 0x2DB CALLDATASIZE PUSH1 0x4 PUSH2 0x3A94 JUMP JUMPDEST PUSH2 0xCBD JUMP JUMPDEST STOP JUMPDEST CALLVALUE DUP1 ISZERO PUSH2 0x2EE JUMPI PUSH1 0x0 DUP1 REVERT JUMPDEST POP PUSH2 0x2E0 PUSH2 0xF5C JUMP JUMPDEST PUSH2 0x2E0 PUSH2 0x305 CALLDATASIZE PUSH1 0x4 PUSH2 0x3A94 JUMP JUMPDEST PUSH2 0xF92 JUMP JUMPDEST PUSH2 0x242 PUSH2 0x318 CALLDATASIZE PUSH1 0x4 PUSH2 0x3C32 JUMP JUMPDEST PUSH2 0x11F6 JUMP JUMPDEST CALLVALUE DUP1 ISZERO PUSH2 0x329 JUMPI PUSH1 0x0 DUP1 REVERT JUMPDEST POP PUSH2 0x221 PUSH2 0x338 CALLDATASIZE PUSH1 0x4 PUSH2 0x3A23 JUMP JUMPDEST PUSH2 0x1579 JUMP JUMPDEST PUSH2 0x242 PUSH2 0x34B CALLDATASIZE PUSH1 0x4 PUSH2 0x3A94 JUMP JUMPDEST PUSH2 0x1586 JUMP JUMPDEST CALLVALUE DUP1 ISZERO PUSH2 0x35C JUMPI PUSH1 0x0 DUP1 REVERT JUMPDEST POP PUSH1 0x0 SLOAD PUSH1 0x1 PUSH1 0x1 PUSH1 0xA0 SHL SUB AND PUSH2 0x28F JUMP JUMPDEST CALLVALUE DUP1 ISZERO PUSH2 0x37A JUMPI PUSH1 0x0 DUP1 REVERT JUMPDEST POP PUSH2 0x2E0 PUSH2 0x389 CALLDATASIZE PUSH1 0x4 PUSH2 0x3C99 JUMP JUMPDEST PUSH2 0x1680 JUMP JUMPDEST CALLVALUE DUP1 ISZERO PUSH2 0x39A JUMPI PUSH1 0x0 DUP1 REVERT JUMPDEST POP PUSH2 0x28F PUSH32 0x0 DUP2 JUMP JUMPDEST CALLVALUE DUP1 ISZERO PUSH2 0x3CE JUMPI PUSH1 0x0 DUP1 REVERT JUMPDEST POP PUSH2 0x221 PUSH2 0x3DD CALLDATASIZE PUSH1 0x4 PUSH2 0x3A23 JUMP JUMPDEST PUSH2 0x178F JUMP JUMPDEST CALLVALUE DUP1 ISZERO PUSH2 0x3EE JUMPI PUSH1 0x0 DUP1 REVERT JUMPDEST POP PUSH2 0x221 PUSH2 0x3FD CALLDATASIZE PUSH1 0x4 PUSH2 0x39C5 JUMP JUMPDEST PUSH2 0x179C JUMP JUMPDEST PUSH2 0x2E0 PUSH2 0x410 CALLDATASIZE PUSH1 0x4 PUSH2 0x3C32 JUMP JUMPDEST PUSH2 0x18EB JUMP JUMPDEST CALLVALUE DUP1 ISZERO PUSH2 0x421 JUMPI PUSH1 0x0 DUP1 REVERT JUMPDEST POP PUSH2 0x1E7 PUSH2 0x430 CALLDATASIZE PUSH1 0x4 PUSH2 0x3CBD JUMP JUMPDEST PUSH2 0x1C89 JUMP JUMPDEST CALLVALUE DUP1 ISZERO PUSH2 0x441 JUMPI PUSH1 0x0 DUP1 REVERT JUMPDEST POP PUSH2 0x28F PUSH32 0x0 DUP2 JUMP JUMPDEST CALLVALUE DUP1 ISZERO PUSH2 0x475 JUMPI PUSH1 0x0 DUP1 REVERT JUMPDEST POP PUSH2 0x221 PUSH2 0x1E51 JUMP JUMPDEST CALLVALUE DUP1 ISZERO PUSH2 0x48A JUMPI PUSH1 0x0 DUP1 REVERT JUMPDEST POP PUSH2 0x242 PUSH2 0x499 CALLDATASIZE PUSH1 0x4 PUSH2 0x3B61 JUMP JUMPDEST PUSH2 0x1EC4 JUMP JUMPDEST CALLVALUE DUP1 ISZERO PUSH2 0x4AA JUMPI PUSH1 0x0 DUP1 REVERT JUMPDEST POP PUSH2 0x2E0 PUSH2 0x1EF1 JUMP JUMPDEST CALLVALUE DUP1 ISZERO PUSH2 0x4BF JUMPI PUSH1 0x0 DUP1 REVERT JUMPDEST POP PUSH2 0x4D3 PUSH2 0x4CE CALLDATASIZE PUSH1 0x4 PUSH2 0x3D2F JUMP JUMPDEST PUSH2 0x1F4A JUMP JUMPDEST PUSH1 0x40 DUP1 MLOAD SWAP4 DUP5 MSTORE PUSH1 0x20 DUP5 ADD SWAP3 SWAP1 SWAP3 MSTORE SWAP1 DUP3 ADD MSTORE PUSH1 0x60 ADD PUSH2 0x1F8 JUMP JUMPDEST CALLVALUE DUP1 ISZERO PUSH2 0x4FA JUMPI PUSH1 0x0 DUP1 REVERT JUMPDEST POP PUSH2 0x2E0 PUSH2 0x509 CALLDATASIZE PUSH1 0x4 PUSH2 0x3C99 JUMP JUMPDEST PUSH2 0x2048 JUMP JUMPDEST PUSH2 0x4D3 PUSH2 0x51C CALLDATASIZE PUSH1 0x4 PUSH2 0x39C5 JUMP JUMPDEST PUSH2 0x20E0 JUMP JUMPDEST PUSH2 0x242 PUSH2 0x52F CALLDATASIZE PUSH1 0x4 PUSH2 0x3C32 JUMP JUMPDEST PUSH2 0x233F JUMP JUMPDEST PUSH1 0x0 DUP1 DUP3 TIMESTAMP DUP2 LT ISZERO PUSH2 0x561 JUMPI PUSH1 0x40 MLOAD PUSH3 0x461BCD PUSH1 0xE5 SHL DUP2 MSTORE PUSH1 0x4 ADD PUSH2 0x558 SWAP1 PUSH2 0x3DAB JUMP JUMPDEST PUSH1 0x40 MLOAD DUP1 SWAP2 SUB SWAP1 REVERT JUMPDEST PUSH2 0x590 DUP10 PUSH32 0x0 DUP11 DUP11 DUP11 ADDRESS DUP11 PUSH2 0x1C89 JUMP JUMPDEST SWAP1 SWAP4 POP SWAP2 POP PUSH2 0x5A0 DUP10 DUP7 DUP6 PUSH2 0x273B JUMP JUMPDEST PUSH1 0x40 MLOAD PUSH4 0x2E1A7D4D PUSH1 0xE0 SHL DUP2 MSTORE PUSH1 0x4 DUP2 ADD DUP4 SWAP1 MSTORE PUSH32 0x0 PUSH1 0x1 PUSH1 0x1 PUSH1 0xA0 SHL SUB AND SWAP1 PUSH4 0x2E1A7D4D SWAP1 PUSH1 0x24 ADD PUSH1 0x0 PUSH1 0x40 MLOAD DUP1 DUP4 SUB DUP2 PUSH1 0x0 DUP8 DUP1 EXTCODESIZE ISZERO DUP1 ISZERO PUSH2 0x602 JUMPI PUSH1 0x0 DUP1 REVERT JUMPDEST POP GAS CALL ISZERO DUP1 ISZERO PUSH2 0x616 JUMPI RETURNDATASIZE PUSH1 0x0 DUP1 RETURNDATACOPY RETURNDATASIZE PUSH1 0x0 REVERT JUMPDEST POP POP POP POP PUSH2 0x624 DUP6 DUP4 PUSH2 0x2856 JUMP JUMPDEST POP SWAP7 POP SWAP7 SWAP5 POP POP POP POP POP JUMP JUMPDEST PUSH1 0x0 PUSH2 0x63D DUP5 DUP5 DUP5 PUSH2 0x2924 JUMP JUMPDEST SWAP5 SWAP4 POP POP POP POP JUMP JUMPDEST PUSH1 0x60 DUP2 TIMESTAMP DUP2 LT ISZERO PUSH2 0x668 JUMPI PUSH1 0x40 MLOAD PUSH3 0x461BCD PUSH1 0xE5 SHL DUP2 MSTORE PUSH1 0x4 ADD PUSH2 0x558 SWAP1 PUSH2 0x3DAB JUMP JUMPDEST PUSH1 0x1 PUSH1 0x1 PUSH1 0xA0 SHL SUB PUSH32 0x0 AND DUP7 DUP7 PUSH2 0x69F PUSH1 0x1 DUP3 PUSH2 0x3DEF JUMP JUMPDEST DUP2 DUP2 LT PUSH2 0x6AE JUMPI PUSH2 0x6AE PUSH2 0x3E02 JUMP JUMPDEST SWAP1 POP PUSH1 0x20 MUL ADD PUSH1 0x20 DUP2 ADD SWAP1 PUSH2 0x6C3 SWAP2 SWAP1 PUSH2 0x3C99 JUMP JUMPDEST PUSH1 0x1 PUSH1 0x1 PUSH1 0xA0 SHL SUB AND EQ PUSH2 0x6E9 JUMPI PUSH1 0x40 MLOAD PUSH3 0x461BCD PUSH1 0xE5 SHL DUP2 MSTORE PUSH1 0x4 ADD PUSH2 0x558 SWAP1 PUSH2 0x3E18 JUMP JUMPDEST PUSH2 0x725 DUP7 DUP7 DUP1 DUP1 PUSH1 0x20 MUL PUSH1 0x20 ADD PUSH1 0x40 MLOAD SWAP1 DUP2 ADD PUSH1 0x40 MSTORE DUP1 SWAP4 SWAP3 SWAP2 SWAP1 DUP2 DUP2 MSTORE PUSH1 0x20 ADD DUP4 DUP4 PUSH1 0x20 MUL DUP1 DUP3 DUP5 CALLDATACOPY PUSH1 0x0 SWAP3 ADD SWAP2 SWAP1 SWAP2 MSTORE POP PUSH2 0x29FA SWAP3 POP POP POP JUMP JUMPDEST POP PUSH2 0x784 PUSH32 0x0 DUP10 DUP9 DUP9 DUP1 DUP1 PUSH1 0x20 MUL PUSH1 0x20 ADD PUSH1 0x40 MLOAD SWAP1 DUP2 ADD PUSH1 0x40 MSTORE DUP1 SWAP4 SWAP3 SWAP2 SWAP1 DUP2 DUP2 MSTORE PUSH1 0x20 ADD DUP4 DUP4 PUSH1 0x20 MUL DUP1 DUP3 DUP5 CALLDATACOPY PUSH1 0x0 SWAP3 ADD SWAP2 SWAP1 SWAP2 MSTORE POP PUSH2 0x2AA9 SWAP3 POP POP POP JUMP JUMPDEST SWAP2 POP DUP7 DUP3 PUSH1 0x1 DUP5 MLOAD PUSH2 0x796 SWAP2 SWAP1 PUSH2 0x3DEF JUMP JUMPDEST DUP2 MLOAD DUP2 LT PUSH2 0x7A6 JUMPI PUSH2 0x7A6 PUSH2 0x3E02 JUMP JUMPDEST PUSH1 0x20 MUL PUSH1 0x20 ADD ADD MLOAD LT ISZERO PUSH2 0x7CC JUMPI PUSH1 0x40 MLOAD PUSH3 0x461BCD PUSH1 0xE5 SHL DUP2 MSTORE PUSH1 0x4 ADD PUSH2 0x558 SWAP1 PUSH2 0x3E4F JUMP JUMPDEST PUSH2 0x891 DUP7 DUP7 PUSH1 0x0 DUP2 DUP2 LT PUSH2 0x7E2 JUMPI PUSH2 0x7E2 PUSH2 0x3E02 JUMP JUMPDEST SWAP1 POP PUSH1 0x20 MUL ADD PUSH1 0x20 DUP2 ADD SWAP1 PUSH2 0x7F7 SWAP2 SWAP1 PUSH2 0x3C99 JUMP JUMPDEST CALLER PUSH2 0x871 PUSH32 0x0 DUP11 DUP11 PUSH1 0x0 DUP2 DUP2 LT PUSH2 0x82F JUMPI PUSH2 0x82F PUSH2 0x3E02 JUMP JUMPDEST SWAP1 POP PUSH1 0x20 MUL ADD PUSH1 0x20 DUP2 ADD SWAP1 PUSH2 0x844 SWAP2 SWAP1 PUSH2 0x3C99 JUMP JUMPDEST DUP12 DUP12 PUSH1 0x1 DUP2 DUP2 LT PUSH2 0x857 JUMPI PUSH2 0x857 PUSH2 0x3E02 JUMP JUMPDEST SWAP1 POP PUSH1 0x20 MUL ADD PUSH1 0x20 DUP2 ADD SWAP1 PUSH2 0x86C SWAP2 SWAP1 PUSH2 0x3C99 JUMP JUMPDEST PUSH2 0x2C2D JUMP JUMPDEST DUP6 PUSH1 0x0 DUP2 MLOAD DUP2 LT PUSH2 0x884 JUMPI PUSH2 0x884 PUSH2 0x3E02 JUMP JUMPDEST PUSH1 0x20 MUL PUSH1 0x20 ADD ADD MLOAD PUSH2 0x2CA3 JUMP JUMPDEST PUSH2 0x8D0 DUP3 DUP8 DUP8 DUP1 DUP1 PUSH1 0x20 MUL PUSH1 0x20 ADD PUSH1 0x40 MLOAD SWAP1 DUP2 ADD PUSH1 0x40 MSTORE DUP1 SWAP4 SWAP3 SWAP2 SWAP1 DUP2 DUP2 MSTORE PUSH1 0x20 ADD DUP4 DUP4 PUSH1 0x20 MUL DUP1 DUP3 DUP5 CALLDATACOPY PUSH1 0x0 SWAP3 ADD SWAP2 SWAP1 SWAP2 MSTORE POP ADDRESS SWAP3 POP PUSH2 0x2DD3 SWAP2 POP POP JUMP JUMPDEST PUSH32 0x0 PUSH1 0x1 PUSH1 0x1 PUSH1 0xA0 SHL SUB AND PUSH4 0x2E1A7D4D DUP4 PUSH1 0x1 DUP6 MLOAD PUSH2 0x90E SWAP2 SWAP1 PUSH2 0x3DEF JUMP JUMPDEST DUP2 MLOAD DUP2 LT PUSH2 0x91E JUMPI PUSH2 0x91E PUSH2 0x3E02 JUMP JUMPDEST PUSH1 0x20 MUL PUSH1 0x20 ADD ADD MLOAD PUSH1 0x40 MLOAD DUP3 PUSH4 0xFFFFFFFF AND PUSH1 0xE0 SHL DUP2 MSTORE PUSH1 0x4 ADD PUSH2 0x944 SWAP2 DUP2 MSTORE PUSH1 0x20 ADD SWAP1 JUMP JUMPDEST PUSH1 0x0 PUSH1 0x40 MLOAD DUP1 DUP4 SUB DUP2 PUSH1 0x0 DUP8 DUP1 EXTCODESIZE ISZERO DUP1 ISZERO PUSH2 0x95E JUMPI PUSH1 0x0 DUP1 REVERT JUMPDEST POP GAS CALL ISZERO DUP1 ISZERO PUSH2 0x972 JUMPI RETURNDATASIZE PUSH1 0x0 DUP1 RETURNDATACOPY RETURNDATASIZE PUSH1 0x0 REVERT JUMPDEST POP POP POP POP PUSH2 0x9A6 DUP5 DUP4 PUSH1 0x1 DUP6 MLOAD PUSH2 0x989 SWAP2 SWAP1 PUSH2 0x3DEF JUMP JUMPDEST DUP2 MLOAD DUP2 LT PUSH2 0x999 JUMPI PUSH2 0x999 PUSH2 0x3E02 JUMP JUMPDEST PUSH1 0x20 MUL PUSH1 0x20 ADD ADD MLOAD PUSH2 0x2856 JUMP JUMPDEST POP SWAP7 SWAP6 POP POP POP POP POP POP JUMP JUMPDEST PUSH1 0x60 PUSH2 0x9DE PUSH32 0x0 DUP5 DUP5 PUSH2 0x2FDB JUMP JUMPDEST SWAP1 POP JUMPDEST SWAP3 SWAP2 POP POP JUMP JUMPDEST PUSH1 0x60 DUP2 TIMESTAMP DUP2 LT ISZERO PUSH2 0xA0A JUMPI PUSH1 0x40 MLOAD PUSH3 0x461BCD PUSH1 0xE5 SHL DUP2 MSTORE PUSH1 0x4 ADD PUSH2 0x558 SWAP1 PUSH2 0x3DAB JUMP JUMPDEST PUSH2 0xA46 DUP7 DUP7 DUP1 DUP1 PUSH1 0x20 MUL PUSH1 0x20 ADD PUSH1 0x40 MLOAD SWAP1 DUP2 ADD PUSH1 0x40 MSTORE DUP1 SWAP4 SWAP3 SWAP2 SWAP1 DUP2 DUP2 MSTORE PUSH1 0x20 ADD DUP4 DUP4 PUSH1 0x20 MUL DUP1 DUP3 DUP5 CALLDATACOPY PUSH1 0x0 SWAP3 ADD SWAP2 SWAP1 SWAP2 MSTORE POP PUSH2 0x29FA SWAP3 POP POP POP JUMP JUMPDEST POP PUSH2 0xAA5 PUSH32 0x0 DUP10 DUP9 DUP9 DUP1 DUP1 PUSH1 0x20 MUL PUSH1 0x20 ADD PUSH1 0x40 MLOAD SWAP1 DUP2 ADD PUSH1 0x40 MSTORE DUP1 SWAP4 SWAP3 SWAP2 SWAP1 DUP2 DUP2 MSTORE PUSH1 0x20 ADD DUP4 DUP4 PUSH1 0x20 MUL DUP1 DUP3 DUP5 CALLDATACOPY PUSH1 0x0 SWAP3 ADD SWAP2 SWAP1 SWAP2 MSTORE POP PUSH2 0x2AA9 SWAP3 POP POP POP JUMP JUMPDEST SWAP2 POP DUP7 DUP3 PUSH1 0x1 DUP5 MLOAD PUSH2 0xAB7 SWAP2 SWAP1 PUSH2 0x3DEF JUMP JUMPDEST DUP2 MLOAD DUP2 LT PUSH2 0xAC7 JUMPI PUSH2 0xAC7 PUSH2 0x3E02 JUMP JUMPDEST PUSH1 0x20 MUL PUSH1 0x20 ADD ADD MLOAD LT ISZERO PUSH2 0xAED JUMPI PUSH1 0x40 MLOAD PUSH3 0x461BCD PUSH1 0xE5 SHL DUP2 MSTORE PUSH1 0x4 ADD PUSH2 0x558 SWAP1 PUSH2 0x3E4F JUMP JUMPDEST PUSH2 0xB03 DUP7 DUP7 PUSH1 0x0 DUP2 DUP2 LT PUSH2 0x7E2 JUMPI PUSH2 0x7E2 PUSH2 0x3E02 JUMP JUMPDEST PUSH2 0x9A6 DUP3 DUP8 DUP8 DUP1 DUP1 PUSH1 0x20 MUL PUSH1 0x20 ADD PUSH1 0x40 MLOAD SWAP1 DUP2 ADD PUSH1 0x40 MSTORE DUP1 SWAP4 SWAP3 SWAP2 SWAP1 DUP2 DUP2 MSTORE PUSH1 0x20 ADD DUP4 DUP4 PUSH1 0x20 MUL DUP1 DUP3 DUP5 CALLDATACOPY PUSH1 0x0 SWAP3 ADD SWAP2 SWAP1 SWAP2 MSTORE POP DUP10 SWAP3 POP PUSH2 0x2DD3 SWAP2 POP POP JUMP JUMPDEST PUSH1 0x60 DUP2 TIMESTAMP DUP2 LT ISZERO PUSH2 0xB65 JUMPI PUSH1 0x40 MLOAD PUSH3 0x461BCD PUSH1 0xE5 SHL DUP2 MSTORE PUSH1 0x4 ADD PUSH2 0x558 SWAP1 PUSH2 0x3DAB JUMP JUMPDEST PUSH1 0x1 PUSH1 0x1 PUSH1 0xA0 SHL SUB PUSH32 0x0 AND DUP7 DUP7 PUSH2 0xB9C PUSH1 0x1 DUP3 PUSH2 0x3DEF JUMP JUMPDEST DUP2 DUP2 LT PUSH2 0xBAB JUMPI PUSH2 0xBAB PUSH2 0x3E02 JUMP JUMPDEST SWAP1 POP PUSH1 0x20 MUL ADD PUSH1 0x20 DUP2 ADD SWAP1 PUSH2 0xBC0 SWAP2 SWAP1 PUSH2 0x3C99 JUMP JUMPDEST PUSH1 0x1 PUSH1 0x1 PUSH1 0xA0 SHL SUB AND EQ PUSH2 0xBE6 JUMPI PUSH1 0x40 MLOAD PUSH3 0x461BCD PUSH1 0xE5 SHL DUP2 MSTORE PUSH1 0x4 ADD PUSH2 0x558 SWAP1 PUSH2 0x3E18 JUMP JUMPDEST PUSH2 0xC44 PUSH32 0x0 DUP10 DUP9 DUP9 DUP1 DUP1 PUSH1 0x20 MUL PUSH1 0x20 ADD PUSH1 0x40 MLOAD SWAP1 DUP2 ADD PUSH1 0x40 MSTORE DUP1 SWAP4 SWAP3 SWAP2 SWAP1 DUP2 DUP2 MSTORE PUSH1 0x20 ADD DUP4 DUP4 PUSH1 0x20 MUL DUP1 DUP3 DUP5 CALLDATACOPY PUSH1 0x0 SWAP3 ADD SWAP2 SWAP1 SWAP2 MSTORE POP PUSH2 0x2FDB SWAP3 POP POP POP JUMP JUMPDEST SWAP2 POP PUSH2 0xC82 DUP7 DUP7 DUP1 DUP1 PUSH1 0x20 MUL PUSH1 0x20 ADD PUSH1 0x40 MLOAD SWAP1 DUP2 ADD PUSH1 0x40 MSTORE DUP1 SWAP4 SWAP3 SWAP2 SWAP1 DUP2 DUP2 MSTORE PUSH1 0x20 ADD DUP4 DUP4 PUSH1 0x20 MUL DUP1 DUP3 DUP5 CALLDATACOPY PUSH1 0x0 SWAP3 ADD SWAP2 SWAP1 SWAP2 MSTORE POP PUSH2 0x29FA SWAP3 POP POP POP JUMP JUMPDEST POP DUP7 DUP3 PUSH1 0x0 DUP2 MLOAD DUP2 LT PUSH2 0xC97 JUMPI PUSH2 0xC97 PUSH2 0x3E02 JUMP JUMPDEST PUSH1 0x20 MUL PUSH1 0x20 ADD ADD MLOAD GT ISZERO PUSH2 0x7CC JUMPI PUSH1 0x40 MLOAD PUSH3 0x461BCD PUSH1 0xE5 SHL DUP2 MSTORE PUSH1 0x4 ADD PUSH2 0x558 SWAP1 PUSH2 0x3E96 JUMP JUMPDEST DUP1 TIMESTAMP DUP2 LT ISZERO PUSH2 0xCDE JUMPI PUSH1 0x40 MLOAD PUSH3 0x461BCD PUSH1 0xE5 SHL DUP2 MSTORE PUSH1 0x4 ADD PUSH2 0x558 SWAP1 PUSH2 0x3DAB JUMP JUMPDEST PUSH2 0xD1A DUP6 DUP6 DUP1 DUP1 PUSH1 0x20 MUL PUSH1 0x20 ADD PUSH1 0x40 MLOAD SWAP1 DUP2 ADD PUSH1 0x40 MSTORE DUP1 SWAP4 SWAP3 SWAP2 SWAP1 DUP2 DUP2 MSTORE PUSH1 0x20 ADD DUP4 DUP4 PUSH1 0x20 MUL DUP1 DUP3 DUP5 CALLDATACOPY PUSH1 0x0 SWAP3 ADD SWAP2 SWAP1 SWAP2 MSTORE POP PUSH2 0x29FA SWAP3 POP POP POP JUMP JUMPDEST POP PUSH2 0xDAC DUP6 DUP6 PUSH1 0x0 DUP2 DUP2 LT PUSH2 0xD31 JUMPI PUSH2 0xD31 PUSH2 0x3E02 JUMP JUMPDEST SWAP1 POP PUSH1 0x20 MUL ADD PUSH1 0x20 DUP2 ADD SWAP1 PUSH2 0xD46 SWAP2 SWAP1 PUSH2 0x3C99 JUMP JUMPDEST CALLER PUSH2 0xDA6 PUSH32 0x0 DUP10 DUP10 PUSH1 0x0 DUP2 DUP2 LT PUSH2 0xD7E JUMPI PUSH2 0xD7E PUSH2 0x3E02 JUMP JUMPDEST SWAP1 POP PUSH1 0x20 MUL ADD PUSH1 0x20 DUP2 ADD SWAP1 PUSH2 0xD93 SWAP2 SWAP1 PUSH2 0x3C99 JUMP JUMPDEST DUP11 DUP11 PUSH1 0x1 DUP2 DUP2 LT PUSH2 0x857 JUMPI PUSH2 0x857 PUSH2 0x3E02 JUMP JUMPDEST DUP11 PUSH2 0x2CA3 JUMP JUMPDEST PUSH1 0x0 DUP6 DUP6 PUSH2 0xDBB PUSH1 0x1 DUP3 PUSH2 0x3DEF JUMP JUMPDEST DUP2 DUP2 LT PUSH2 0xDCA JUMPI PUSH2 0xDCA PUSH2 0x3E02 JUMP JUMPDEST SWAP1 POP PUSH1 0x20 MUL ADD PUSH1 0x20 DUP2 ADD SWAP1 PUSH2 0xDDF SWAP2 SWAP1 PUSH2 0x3C99 JUMP JUMPDEST PUSH1 0x40 MLOAD PUSH4 0x70A08231 PUSH1 0xE0 SHL DUP2 MSTORE PUSH1 0x1 PUSH1 0x1 PUSH1 0xA0 SHL SUB DUP7 DUP2 AND PUSH1 0x4 DUP4 ADD MSTORE SWAP2 SWAP1 SWAP2 AND SWAP1 PUSH4 0x70A08231 SWAP1 PUSH1 0x24 ADD PUSH1 0x20 PUSH1 0x40 MLOAD DUP1 DUP4 SUB DUP2 DUP7 GAS STATICCALL ISZERO DUP1 ISZERO PUSH2 0xE27 JUMPI RETURNDATASIZE PUSH1 0x0 DUP1 RETURNDATACOPY RETURNDATASIZE PUSH1 0x0 REVERT JUMPDEST POP POP POP POP PUSH1 0x40 MLOAD RETURNDATASIZE PUSH1 0x1F NOT PUSH1 0x1F DUP3 ADD AND DUP3 ADD DUP1 PUSH1 0x40 MSTORE POP DUP2 ADD SWAP1 PUSH2 0xE4B SWAP2 SWAP1 PUSH2 0x3ED9 JUMP JUMPDEST SWAP1 POP PUSH2 0xE8B DUP7 DUP7 DUP1 DUP1 PUSH1 0x20 MUL PUSH1 0x20 ADD PUSH1 0x40 MLOAD SWAP1 DUP2 ADD PUSH1 0x40 MSTORE DUP1 SWAP4 SWAP3 SWAP2 SWAP1 DUP2 DUP2 MSTORE PUSH1 0x20 ADD DUP4 DUP4 PUSH1 0x20 MUL DUP1 DUP3 DUP5 CALLDATACOPY PUSH1 0x0 SWAP3 ADD SWAP2 SWAP1 SWAP2 MSTORE POP DUP9 SWAP3 POP PUSH2 0x3155 SWAP2 POP POP JUMP JUMPDEST DUP7 PUSH2 0xF34 DUP3 DUP9 DUP9 PUSH2 0xE9D PUSH1 0x1 DUP3 PUSH2 0x3DEF JUMP JUMPDEST DUP2 DUP2 LT PUSH2 0xEAC JUMPI PUSH2 0xEAC PUSH2 0x3E02 JUMP JUMPDEST SWAP1 POP PUSH1 0x20 MUL ADD PUSH1 0x20 DUP2 ADD SWAP1 PUSH2 0xEC1 SWAP2 SWAP1 PUSH2 0x3C99 JUMP JUMPDEST PUSH1 0x40 MLOAD PUSH4 0x70A08231 PUSH1 0xE0 SHL DUP2 MSTORE PUSH1 0x1 PUSH1 0x1 PUSH1 0xA0 SHL SUB DUP10 DUP2 AND PUSH1 0x4 DUP4 ADD MSTORE SWAP2 SWAP1 SWAP2 AND SWAP1 PUSH4 0x70A08231 SWAP1 PUSH1 0x24 ADD JUMPDEST PUSH1 0x20 PUSH1 0x40 MLOAD DUP1 DUP4 SUB DUP2 DUP7 GAS STATICCALL ISZERO DUP1 ISZERO PUSH2 0xF0A JUMPI RETURNDATASIZE PUSH1 0x0 DUP1 RETURNDATACOPY RETURNDATASIZE PUSH1 0x0 REVERT JUMPDEST POP POP POP POP PUSH1 0x40 MLOAD RETURNDATASIZE PUSH1 0x1F NOT PUSH1 0x1F DUP3 ADD AND DUP3 ADD DUP1 PUSH1 0x40 MSTORE POP DUP2 ADD SWAP1 PUSH2 0xF2E SWAP2 SWAP1 PUSH2 0x3ED9 JUMP JUMPDEST SWAP1 PUSH2 0x33EE JUMP JUMPDEST LT ISZERO PUSH2 0xF52 JUMPI PUSH1 0x40 MLOAD PUSH3 0x461BCD PUSH1 0xE5 SHL DUP2 MSTORE PUSH1 0x4 ADD PUSH2 0x558 SWAP1 PUSH2 0x3E4F JUMP JUMPDEST POP POP POP POP POP POP POP POP JUMP JUMPDEST PUSH1 0x0 SLOAD PUSH1 0x1 PUSH1 0x1 PUSH1 0xA0 SHL SUB AND CALLER EQ PUSH2 0xF86 JUMPI PUSH1 0x40 MLOAD PUSH3 0x461BCD PUSH1 0xE5 SHL DUP2 MSTORE PUSH1 0x4 ADD PUSH2 0x558 SWAP1 PUSH2 0x3EF2 JUMP JUMPDEST PUSH2 0xF90 PUSH1 0x0 PUSH2 0x33FA JUMP JUMPDEST JUMP JUMPDEST DUP1 TIMESTAMP DUP2 LT ISZERO PUSH2 0xFB3 JUMPI PUSH1 0x40 MLOAD PUSH3 0x461BCD PUSH1 0xE5 SHL DUP2 MSTORE PUSH1 0x4 ADD PUSH2 0x558 SWAP1 PUSH2 0x3DAB JUMP JUMPDEST PUSH1 0x1 PUSH1 0x1 PUSH1 0xA0 SHL SUB PUSH32 0x0 AND DUP6 DUP6 PUSH2 0xFEA PUSH1 0x1 DUP3 PUSH2 0x3DEF JUMP JUMPDEST DUP2 DUP2 LT PUSH2 0xFF9 JUMPI PUSH2 0xFF9 PUSH2 0x3E02 JUMP JUMPDEST SWAP1 POP PUSH1 0x20 MUL ADD PUSH1 0x20 DUP2 ADD SWAP1 PUSH2 0x100E SWAP2 SWAP1 PUSH2 0x3C99 JUMP JUMPDEST PUSH1 0x1 PUSH1 0x1 PUSH1 0xA0 SHL SUB AND EQ PUSH2 0x1034 JUMPI PUSH1 0x40 MLOAD PUSH3 0x461BCD PUSH1 0xE5 SHL DUP2 MSTORE PUSH1 0x4 ADD PUSH2 0x558 SWAP1 PUSH2 0x3E18 JUMP JUMPDEST PUSH2 0x1070 DUP6 DUP6 DUP1 DUP1 PUSH1 0x20 MUL PUSH1 0x20 ADD PUSH1 0x40 MLOAD SWAP1 DUP2 ADD PUSH1 0x40 MSTORE DUP1 SWAP4 SWAP3 SWAP2 SWAP1 DUP2 DUP2 MSTORE PUSH1 0x20 ADD DUP4 DUP4 PUSH1 0x20 MUL DUP1 DUP3 DUP5 CALLDATACOPY PUSH1 0x0 SWAP3 ADD SWAP2 SWAP1 SWAP2 MSTORE POP PUSH2 0x29FA SWAP3 POP POP POP JUMP JUMPDEST POP PUSH2 0x1087 DUP6 DUP6 PUSH1 0x0 DUP2 DUP2 LT PUSH2 0xD31 JUMPI PUSH2 0xD31 PUSH2 0x3E02 JUMP JUMPDEST PUSH2 0x10C5 DUP6 DUP6 DUP1 DUP1 PUSH1 0x20 MUL PUSH1 0x20 ADD PUSH1 0x40 MLOAD SWAP1 DUP2 ADD PUSH1 0x40 MSTORE DUP1 SWAP4 SWAP3 SWAP2 SWAP1 DUP2 DUP2 MSTORE PUSH1 0x20 ADD DUP4 DUP4 PUSH1 0x20 MUL DUP1 DUP3 DUP5 CALLDATACOPY PUSH1 0x0 SWAP3 ADD SWAP2 SWAP1 SWAP2 MSTORE POP ADDRESS SWAP3 POP PUSH2 0x3155 SWAP2 POP POP JUMP JUMPDEST PUSH1 0x40 MLOAD PUSH4 0x70A08231 PUSH1 0xE0 SHL DUP2 MSTORE ADDRESS PUSH1 0x4 DUP3 ADD MSTORE PUSH1 0x0 SWAP1 PUSH32 0x0 PUSH1 0x1 PUSH1 0x1 PUSH1 0xA0 SHL SUB AND SWAP1 PUSH4 0x70A08231 SWAP1 PUSH1 0x24 ADD PUSH1 0x20 PUSH1 0x40 MLOAD DUP1 DUP4 SUB DUP2 DUP7 GAS STATICCALL ISZERO DUP1 ISZERO PUSH2 0x112C JUMPI RETURNDATASIZE PUSH1 0x0 DUP1 RETURNDATACOPY RETURNDATASIZE PUSH1 0x0 REVERT JUMPDEST POP POP POP POP PUSH1 0x40 MLOAD RETURNDATASIZE PUSH1 0x1F NOT PUSH1 0x1F DUP3 ADD AND DUP3 ADD DUP1 PUSH1 0x40 MSTORE POP DUP2 ADD SWAP1 PUSH2 0x1150 SWAP2 SWAP1 PUSH2 0x3ED9 JUMP JUMPDEST SWAP1 POP DUP7 DUP2 LT ISZERO PUSH2 0x1172 JUMPI PUSH1 0x40 MLOAD PUSH3 0x461BCD PUSH1 0xE5 SHL DUP2 MSTORE PUSH1 0x4 ADD PUSH2 0x558 SWAP1 PUSH2 0x3E4F JUMP JUMPDEST PUSH1 0x40 MLOAD PUSH4 0x2E1A7D4D PUSH1 0xE0 SHL DUP2 MSTORE PUSH1 0x4 DUP2 ADD DUP3 SWAP1 MSTORE PUSH32 0x0 PUSH1 0x1 PUSH1 0x1 PUSH1 0xA0 SHL SUB AND SWAP1 PUSH4 0x2E1A7D4D SWAP1 PUSH1 0x24 ADD PUSH1 0x0 PUSH1 0x40 MLOAD DUP1 DUP4 SUB DUP2 PUSH1 0x0 DUP8 DUP1 EXTCODESIZE ISZERO DUP1 ISZERO PUSH2 0x11D4 JUMPI PUSH1 0x0 DUP1 REVERT JUMPDEST POP GAS CALL ISZERO DUP1 ISZERO PUSH2 0x11E8 JUMPI RETURNDATASIZE PUSH1 0x0 DUP1 RETURNDATACOPY RETURNDATASIZE PUSH1 0x0 REVERT JUMPDEST POP POP POP POP PUSH2 0xF52 DUP5 DUP3 PUSH2 0x2856 JUMP JUMPDEST PUSH1 0x60 DUP2 TIMESTAMP DUP2 LT ISZERO PUSH2 0x1219 JUMPI PUSH1 0x40 MLOAD PUSH3 0x461BCD PUSH1 0xE5 SHL DUP2 MSTORE PUSH1 0x4 ADD PUSH2 0x558 SWAP1 PUSH2 0x3DAB JUMP JUMPDEST PUSH32 0x0 PUSH1 0x1 PUSH1 0x1 PUSH1 0xA0 SHL SUB AND DUP7 DUP7 PUSH1 0x0 DUP2 DUP2 LT PUSH2 0x1256 JUMPI PUSH2 0x1256 PUSH2 0x3E02 JUMP JUMPDEST SWAP1 POP PUSH1 0x20 MUL ADD PUSH1 0x20 DUP2 ADD SWAP1 PUSH2 0x126B SWAP2 SWAP1 PUSH2 0x3C99 JUMP JUMPDEST PUSH1 0x1 PUSH1 0x1 PUSH1 0xA0 SHL SUB AND EQ PUSH2 0x1291 JUMPI PUSH1 0x40 MLOAD PUSH3 0x461BCD PUSH1 0xE5 SHL DUP2 MSTORE PUSH1 0x4 ADD PUSH2 0x558 SWAP1 PUSH2 0x3E18 JUMP JUMPDEST PUSH1 0x0 PUSH2 0x129B PUSH2 0x1E51 JUMP JUMPDEST PUSH2 0x12A6 SWAP1 PUSH1 0x64 PUSH2 0x3F27 JUMP JUMPDEST CALLVALUE GT PUSH2 0x12B2 JUMPI CALLVALUE PUSH2 0x12F8 JUMP JUMPDEST PUSH2 0x12EE DUP8 DUP8 DUP1 DUP1 PUSH1 0x20 MUL PUSH1 0x20 ADD PUSH1 0x40 MLOAD SWAP1 DUP2 ADD PUSH1 0x40 MSTORE DUP1 SWAP4 SWAP3 SWAP2 SWAP1 DUP2 DUP2 MSTORE PUSH1 0x20 ADD DUP4 DUP4 PUSH1 0x20 MUL DUP1 DUP3 DUP5 CALLDATACOPY PUSH1 0x0 SWAP3 ADD SWAP2 SWAP1 SWAP2 MSTORE POP PUSH2 0x29FA SWAP3 POP POP POP JUMP JUMPDEST PUSH2 0x12F8 SWAP1 CALLVALUE PUSH2 0x3DEF JUMP JUMPDEST SWAP1 POP PUSH2 0x1358 PUSH32 0x0 DUP3 DUP10 DUP10 DUP1 DUP1 PUSH1 0x20 MUL PUSH1 0x20 ADD PUSH1 0x40 MLOAD SWAP1 DUP2 ADD PUSH1 0x40 MSTORE DUP1 SWAP4 SWAP3 SWAP2 SWAP1 DUP2 DUP2 MSTORE PUSH1 0x20 ADD DUP4 DUP4 PUSH1 0x20 MUL DUP1 DUP3 DUP5 CALLDATACOPY PUSH1 0x0 SWAP3 ADD SWAP2 SWAP1 SWAP2 MSTORE POP PUSH2 0x2AA9 SWAP3 POP POP POP JUMP JUMPDEST SWAP3 POP DUP8 DUP4 PUSH1 0x1 DUP6 MLOAD PUSH2 0x136A SWAP2 SWAP1 PUSH2 0x3DEF JUMP JUMPDEST DUP2 MLOAD DUP2 LT PUSH2 0x137A JUMPI PUSH2 0x137A PUSH2 0x3E02 JUMP JUMPDEST PUSH1 0x20 MUL PUSH1 0x20 ADD ADD MLOAD LT ISZERO PUSH2 0x13A0 JUMPI PUSH1 0x40 MLOAD PUSH3 0x461BCD PUSH1 0xE5 SHL DUP2 MSTORE PUSH1 0x4 ADD PUSH2 0x558 SWAP1 PUSH2 0x3E4F JUMP JUMPDEST PUSH32 0x0 PUSH1 0x1 PUSH1 0x1 PUSH1 0xA0 SHL SUB AND PUSH4 0xD0E30DB0 DUP5 PUSH1 0x0 DUP2 MLOAD DUP2 LT PUSH2 0x13E2 JUMPI PUSH2 0x13E2 PUSH2 0x3E02 JUMP JUMPDEST PUSH1 0x20 MUL PUSH1 0x20 ADD ADD MLOAD PUSH1 0x40 MLOAD DUP3 PUSH4 0xFFFFFFFF AND PUSH1 0xE0 SHL DUP2 MSTORE PUSH1 0x4 ADD PUSH1 0x0 PUSH1 0x40 MLOAD DUP1 DUP4 SUB DUP2 DUP6 DUP9 DUP1 EXTCODESIZE ISZERO DUP1 ISZERO PUSH2 0x1415 JUMPI PUSH1 0x0 DUP1 REVERT JUMPDEST POP GAS CALL ISZERO DUP1 ISZERO PUSH2 0x1429 JUMPI RETURNDATASIZE PUSH1 0x0 DUP1 RETURNDATACOPY RETURNDATASIZE PUSH1 0x0 REVERT JUMPDEST POP POP POP POP POP PUSH32 0x0 PUSH1 0x1 PUSH1 0x1 PUSH1 0xA0 SHL SUB AND PUSH4 0xA9059CBB PUSH2 0x1494 PUSH32 0x0 DUP11 DUP11 PUSH1 0x0 DUP2 DUP2 LT PUSH2 0x82F JUMPI PUSH2 0x82F PUSH2 0x3E02 JUMP JUMPDEST DUP6 PUSH1 0x0 DUP2 MLOAD DUP2 LT PUSH2 0x14A7 JUMPI PUSH2 0x14A7 PUSH2 0x3E02 JUMP JUMPDEST PUSH1 0x20 MUL PUSH1 0x20 ADD ADD MLOAD PUSH1 0x40 MLOAD DUP4 PUSH4 0xFFFFFFFF AND PUSH1 0xE0 SHL DUP2 MSTORE PUSH1 0x4 ADD PUSH2 0x14E0 SWAP3 SWAP2 SWAP1 PUSH1 0x1 PUSH1 0x1 PUSH1 0xA0 SHL SUB SWAP3 SWAP1 SWAP3 AND DUP3 MSTORE PUSH1 0x20 DUP3 ADD MSTORE PUSH1 0x40 ADD SWAP1 JUMP JUMPDEST PUSH1 0x20 PUSH1 0x40 MLOAD DUP1 DUP4 SUB DUP2 PUSH1 0x0 DUP8 GAS CALL ISZERO DUP1 ISZERO PUSH2 0x14FF JUMPI RETURNDATASIZE PUSH1 0x0 DUP1 RETURNDATACOPY RETURNDATASIZE PUSH1 0x0 REVERT JUMPDEST POP POP POP POP PUSH1 0x40 MLOAD RETURNDATASIZE PUSH1 0x1F NOT PUSH1 0x1F DUP3 ADD AND DUP3 ADD DUP1 PUSH1 0x40 MSTORE POP DUP2 ADD SWAP1 PUSH2 0x1523 SWAP2 SWAP1 PUSH2 0x3F3E JUMP JUMPDEST PUSH2 0x152F JUMPI PUSH2 0x152F PUSH2 0x3F60 JUMP JUMPDEST PUSH2 0x156E DUP4 DUP9 DUP9 DUP1 DUP1 PUSH1 0x20 MUL PUSH1 0x20 ADD PUSH1 0x40 MLOAD SWAP1 DUP2 ADD PUSH1 0x40 MSTORE DUP1 SWAP4 SWAP3 SWAP2 SWAP1 DUP2 DUP2 MSTORE PUSH1 0x20 ADD DUP4 DUP4 PUSH1 0x20 MUL DUP1 DUP3 DUP5 CALLDATACOPY PUSH1 0x0 SWAP3 ADD SWAP2 SWAP1 SWAP2 MSTORE POP DUP11 SWAP3 POP PUSH2 0x2DD3 SWAP2 POP POP JUMP JUMPDEST POP POP SWAP6 SWAP5 POP POP POP POP POP JUMP JUMPDEST PUSH1 0x0 PUSH2 0x63D DUP5 DUP5 DUP5 PUSH2 0x344A JUMP JUMPDEST PUSH1 0x60 DUP2 TIMESTAMP DUP2 LT ISZERO PUSH2 0x15A9 JUMPI PUSH1 0x40 MLOAD PUSH3 0x461BCD PUSH1 0xE5 SHL DUP2 MSTORE PUSH1 0x4 ADD PUSH2 0x558 SWAP1 PUSH2 0x3DAB JUMP JUMPDEST PUSH2 0x15E5 DUP7 DUP7 DUP1 DUP1 PUSH1 0x20 MUL PUSH1 0x20 ADD PUSH1 0x40 MLOAD SWAP1 DUP2 ADD PUSH1 0x40 MSTORE DUP1 SWAP4 SWAP3 SWAP2 SWAP1 DUP2 DUP2 MSTORE PUSH1 0x20 ADD DUP4 DUP4 PUSH1 0x20 MUL DUP1 DUP3 DUP5 CALLDATACOPY PUSH1 0x0 SWAP3 ADD SWAP2 SWAP1 SWAP2 MSTORE POP PUSH2 0x29FA SWAP3 POP POP POP JUMP JUMPDEST POP PUSH2 0x1644 PUSH32 0x0 DUP10 DUP9 DUP9 DUP1 DUP1 PUSH1 0x20 MUL PUSH1 0x20 ADD PUSH1 0x40 MLOAD SWAP1 DUP2 ADD PUSH1 0x40 MSTORE DUP1 SWAP4 SWAP3 SWAP2 SWAP1 DUP2 DUP2 MSTORE PUSH1 0x20 ADD DUP4 DUP4 PUSH1 0x20 MUL DUP1 DUP3 DUP5 CALLDATACOPY PUSH1 0x0 SWAP3 ADD SWAP2 SWAP1 SWAP2 MSTORE POP PUSH2 0x2FDB SWAP3 POP POP POP JUMP JUMPDEST SWAP2 POP DUP7 DUP3 PUSH1 0x0 DUP2 MLOAD DUP2 LT PUSH2 0x165A JUMPI PUSH2 0x165A PUSH2 0x3E02 JUMP JUMPDEST PUSH1 0x20 MUL PUSH1 0x20 ADD ADD MLOAD GT ISZERO PUSH2 0xAED JUMPI PUSH1 0x40 MLOAD PUSH3 0x461BCD PUSH1 0xE5 SHL DUP2 MSTORE PUSH1 0x4 ADD PUSH2 0x558 SWAP1 PUSH2 0x3E96 JUMP JUMPDEST PUSH1 0x0 SLOAD PUSH1 0x1 PUSH1 0x1 PUSH1 0xA0 SHL SUB AND CALLER EQ PUSH2 0x16AA JUMPI PUSH1 0x40 MLOAD PUSH3 0x461BCD PUSH1 0xE5 SHL DUP2 MSTORE PUSH1 0x4 ADD PUSH2 0x558 SWAP1 PUSH2 0x3EF2 JUMP JUMPDEST PUSH1 0x40 MLOAD PUSH4 0x70A08231 PUSH1 0xE0 SHL DUP2 MSTORE ADDRESS PUSH1 0x4 DUP3 ADD MSTORE PUSH1 0x1 PUSH1 0x1 PUSH1 0xA0 SHL SUB DUP3 AND SWAP1 PUSH4 0xA9059CBB SWAP1 CALLER SWAP1 DUP4 SWAP1 PUSH4 0x70A08231 SWAP1 PUSH1 0x24 ADD PUSH1 0x20 PUSH1 0x40 MLOAD DUP1 DUP4 SUB DUP2 DUP7 GAS STATICCALL ISZERO DUP1 ISZERO PUSH2 0x16F8 JUMPI RETURNDATASIZE PUSH1 0x0 DUP1 RETURNDATACOPY RETURNDATASIZE PUSH1 0x0 REVERT JUMPDEST POP POP POP POP PUSH1 0x40 MLOAD RETURNDATASIZE PUSH1 0x1F NOT PUSH1 0x1F DUP3 ADD AND DUP3 ADD DUP1 PUSH1 0x40 MSTORE POP DUP2 ADD SWAP1 PUSH2 0x171C SWAP2 SWAP1 PUSH2 0x3ED9 JUMP JUMPDEST PUSH1 0x40 MLOAD PUSH1 0x1 PUSH1 0x1 PUSH1 0xE0 SHL SUB NOT PUSH1 0xE0 DUP6 SWAP1 SHL AND DUP2 MSTORE PUSH1 0x1 PUSH1 0x1 PUSH1 0xA0 SHL SUB SWAP1 SWAP3 AND PUSH1 0x4 DUP4 ADD MSTORE PUSH1 0x24 DUP3 ADD MSTORE PUSH1 0x44 ADD PUSH1 0x20 PUSH1 0x40 MLOAD DUP1 DUP4 SUB DUP2 PUSH1 0x0 DUP8 GAS CALL ISZERO DUP1 ISZERO PUSH2 0x1767 JUMPI RETURNDATASIZE PUSH1 0x0 DUP1 RETURNDATACOPY RETURNDATASIZE PUSH1 0x0 REVERT JUMPDEST POP POP POP POP PUSH1 0x40 MLOAD RETURNDATASIZE PUSH1 0x1F NOT PUSH1 0x1F DUP3 ADD AND DUP3 ADD DUP1 PUSH1 0x40 MSTORE POP DUP2 ADD SWAP1 PUSH2 0x178B SWAP2 SWAP1 PUSH2 0x3F3E JUMP JUMPDEST POP POP JUMP JUMPDEST PUSH1 0x0 PUSH2 0x63D DUP5 DUP5 DUP5 PUSH2 0x351A JUMP JUMPDEST PUSH1 0x0 DUP2 TIMESTAMP DUP2 LT ISZERO PUSH2 0x17BF JUMPI PUSH1 0x40 MLOAD PUSH3 0x461BCD PUSH1 0xE5 SHL DUP2 MSTORE PUSH1 0x4 ADD PUSH2 0x558 SWAP1 PUSH2 0x3DAB JUMP JUMPDEST PUSH2 0x17EE DUP9 PUSH32 0x0 DUP10 DUP10 DUP10 ADDRESS DUP10 PUSH2 0x1C89 JUMP JUMPDEST PUSH1 0x40 MLOAD PUSH4 0x70A08231 PUSH1 0xE0 SHL DUP2 MSTORE ADDRESS PUSH1 0x4 DUP3 ADD MSTORE SWAP1 SWAP4 POP PUSH2 0x1867 SWAP2 POP DUP10 SWAP1 DUP7 SWAP1 PUSH1 0x1 PUSH1 0x1 PUSH1 0xA0 SHL SUB DUP4 AND SWAP1 PUSH4 0x70A08231 SWAP1 PUSH1 0x24 ADD PUSH1 0x20 PUSH1 0x40 MLOAD DUP1 DUP4 SUB DUP2 DUP7 GAS STATICCALL ISZERO DUP1 ISZERO PUSH2 0x183E JUMPI RETURNDATASIZE PUSH1 0x0 DUP1 RETURNDATACOPY RETURNDATASIZE PUSH1 0x0 REVERT JUMPDEST POP POP POP POP PUSH1 0x40 MLOAD RETURNDATASIZE PUSH1 0x1F NOT PUSH1 0x1F DUP3 ADD AND DUP3 ADD DUP1 PUSH1 0x40 MSTORE POP DUP2 ADD SWAP1 PUSH2 0x1862 SWAP2 SWAP1 PUSH2 0x3ED9 JUMP JUMPDEST PUSH2 0x273B JUMP JUMPDEST PUSH1 0x40 MLOAD PUSH4 0x2E1A7D4D PUSH1 0xE0 SHL DUP2 MSTORE PUSH1 0x4 DUP2 ADD DUP4 SWAP1 MSTORE PUSH32 0x0 PUSH1 0x1 PUSH1 0x1 PUSH1 0xA0 SHL SUB AND SWAP1 PUSH4 0x2E1A7D4D SWAP1 PUSH1 0x24 ADD PUSH1 0x0 PUSH1 0x40 MLOAD DUP1 DUP4 SUB DUP2 PUSH1 0x0 DUP8 DUP1 EXTCODESIZE ISZERO DUP1 ISZERO PUSH2 0x18C9 JUMPI PUSH1 0x0 DUP1 REVERT JUMPDEST POP GAS CALL ISZERO DUP1 ISZERO PUSH2 0x18DD JUMPI RETURNDATASIZE PUSH1 0x0 DUP1 RETURNDATACOPY RETURNDATASIZE PUSH1 0x0 REVERT JUMPDEST POP POP POP POP PUSH2 0x9A6 DUP5 DUP4 PUSH2 0x2856 JUMP JUMPDEST DUP1 TIMESTAMP DUP2 LT ISZERO PUSH2 0x190C JUMPI PUSH1 0x40 MLOAD PUSH3 0x461BCD PUSH1 0xE5 SHL DUP2 MSTORE PUSH1 0x4 ADD PUSH2 0x558 SWAP1 PUSH2 0x3DAB JUMP JUMPDEST PUSH32 0x0 PUSH1 0x1 PUSH1 0x1 PUSH1 0xA0 SHL SUB AND DUP6 DUP6 PUSH1 0x0 DUP2 DUP2 LT PUSH2 0x1949 JUMPI PUSH2 0x1949 PUSH2 0x3E02 JUMP JUMPDEST SWAP1 POP PUSH1 0x20 MUL ADD PUSH1 0x20 DUP2 ADD SWAP1 PUSH2 0x195E SWAP2 SWAP1 PUSH2 0x3C99 JUMP JUMPDEST PUSH1 0x1 PUSH1 0x1 PUSH1 0xA0 SHL SUB AND EQ PUSH2 0x1984 JUMPI PUSH1 0x40 MLOAD PUSH3 0x461BCD PUSH1 0xE5 SHL DUP2 MSTORE PUSH1 0x4 ADD PUSH2 0x558 SWAP1 PUSH2 0x3E18 JUMP JUMPDEST PUSH1 0x0 PUSH2 0x198E PUSH2 0x1E51 JUMP JUMPDEST PUSH2 0x1999 SWAP1 PUSH1 0x64 PUSH2 0x3F27 JUMP JUMPDEST CALLVALUE GT PUSH2 0x19A5 JUMPI CALLVALUE PUSH2 0x19EB JUMP JUMPDEST PUSH2 0x19E1 DUP7 DUP7 DUP1 DUP1 PUSH1 0x20 MUL PUSH1 0x20 ADD PUSH1 0x40 MLOAD SWAP1 DUP2 ADD PUSH1 0x40 MSTORE DUP1 SWAP4 SWAP3 SWAP2 SWAP1 DUP2 DUP2 MSTORE PUSH1 0x20 ADD DUP4 DUP4 PUSH1 0x20 MUL DUP1 DUP3 DUP5 CALLDATACOPY PUSH1 0x0 SWAP3 ADD SWAP2 SWAP1 SWAP2 MSTORE POP PUSH2 0x29FA SWAP3 POP POP POP JUMP JUMPDEST PUSH2 0x19EB SWAP1 CALLVALUE PUSH2 0x3DEF JUMP JUMPDEST SWAP1 POP PUSH32 0x0 PUSH1 0x1 PUSH1 0x1 PUSH1 0xA0 SHL SUB AND PUSH4 0xD0E30DB0 DUP3 PUSH1 0x40 MLOAD DUP3 PUSH4 0xFFFFFFFF AND PUSH1 0xE0 SHL DUP2 MSTORE PUSH1 0x4 ADD PUSH1 0x0 PUSH1 0x40 MLOAD DUP1 DUP4 SUB DUP2 DUP6 DUP9 DUP1 EXTCODESIZE ISZERO DUP1 ISZERO PUSH2 0x1A48 JUMPI PUSH1 0x0 DUP1 REVERT JUMPDEST POP GAS CALL ISZERO DUP1 ISZERO PUSH2 0x1A5C JUMPI RETURNDATASIZE PUSH1 0x0 DUP1 RETURNDATACOPY RETURNDATASIZE PUSH1 0x0 REVERT JUMPDEST POP POP POP POP POP PUSH32 0x0 PUSH1 0x1 PUSH1 0x1 PUSH1 0xA0 SHL SUB AND PUSH4 0xA9059CBB PUSH2 0x1AC7 PUSH32 0x0 DUP10 DUP10 PUSH1 0x0 DUP2 DUP2 LT PUSH2 0xD7E JUMPI PUSH2 0xD7E PUSH2 0x3E02 JUMP JUMPDEST PUSH1 0x40 MLOAD PUSH1 0x1 PUSH1 0x1 PUSH1 0xE0 SHL SUB NOT PUSH1 0xE0 DUP5 SWAP1 SHL AND DUP2 MSTORE PUSH1 0x1 PUSH1 0x1 PUSH1 0xA0 SHL SUB SWAP1 SWAP2 AND PUSH1 0x4 DUP3 ADD MSTORE PUSH1 0x24 DUP2 ADD DUP5 SWAP1 MSTORE PUSH1 0x44 ADD PUSH1 0x20 PUSH1 0x40 MLOAD DUP1 DUP4 SUB DUP2 PUSH1 0x0 DUP8 GAS CALL ISZERO DUP1 ISZERO PUSH2 0x1B14 JUMPI RETURNDATASIZE PUSH1 0x0 DUP1 RETURNDATACOPY RETURNDATASIZE PUSH1 0x0 REVERT JUMPDEST POP POP POP POP PUSH1 0x40 MLOAD RETURNDATASIZE PUSH1 0x1F NOT PUSH1 0x1F DUP3 ADD AND DUP3 ADD DUP1 PUSH1 0x40 MSTORE POP DUP2 ADD SWAP1 PUSH2 0x1B38 SWAP2 SWAP1 PUSH2 0x3F3E JUMP JUMPDEST PUSH2 0x1B44 JUMPI PUSH2 0x1B44 PUSH2 0x3F60 JUMP JUMPDEST PUSH1 0x0 DUP7 DUP7 PUSH2 0x1B53 PUSH1 0x1 DUP3 PUSH2 0x3DEF JUMP JUMPDEST DUP2 DUP2 LT PUSH2 0x1B62 JUMPI PUSH2 0x1B62 PUSH2 0x3E02 JUMP JUMPDEST SWAP1 POP PUSH1 0x20 MUL ADD PUSH1 0x20 DUP2 ADD SWAP1 PUSH2 0x1B77 SWAP2 SWAP1 PUSH2 0x3C99 JUMP JUMPDEST PUSH1 0x40 MLOAD PUSH4 0x70A08231 PUSH1 0xE0 SHL DUP2 MSTORE PUSH1 0x1 PUSH1 0x1 PUSH1 0xA0 SHL SUB DUP8 DUP2 AND PUSH1 0x4 DUP4 ADD MSTORE SWAP2 SWAP1 SWAP2 AND SWAP1 PUSH4 0x70A08231 SWAP1 PUSH1 0x24 ADD PUSH1 0x20 PUSH1 0x40 MLOAD DUP1 DUP4 SUB DUP2 DUP7 GAS STATICCALL ISZERO DUP1 ISZERO PUSH2 0x1BBF JUMPI RETURNDATASIZE PUSH1 0x0 DUP1 RETURNDATACOPY RETURNDATASIZE PUSH1 0x0 REVERT JUMPDEST POP POP POP POP PUSH1 0x40 MLOAD RETURNDATASIZE PUSH1 0x1F NOT PUSH1 0x1F DUP3 ADD AND DUP3 ADD DUP1 PUSH1 0x40 MSTORE POP DUP2 ADD SWAP1 PUSH2 0x1BE3 SWAP2 SWAP1 PUSH2 0x3ED9 JUMP JUMPDEST SWAP1 POP PUSH2 0x1C23 DUP8 DUP8 DUP1 DUP1 PUSH1 0x20 MUL PUSH1 0x20 ADD PUSH1 0x40 MLOAD SWAP1 DUP2 ADD PUSH1 0x40 MSTORE DUP1 SWAP4 SWAP3 SWAP2 SWAP1 DUP2 DUP2 MSTORE PUSH1 0x20 ADD DUP4 DUP4 PUSH1 0x20 MUL DUP1 DUP3 DUP5 CALLDATACOPY PUSH1 0x0 SWAP3 ADD SWAP2 SWAP1 SWAP2 MSTORE POP DUP10 SWAP3 POP PUSH2 0x3155 SWAP2 POP POP JUMP JUMPDEST DUP8 PUSH2 0xF34 DUP3 DUP10 DUP10 PUSH2 0x1C35 PUSH1 0x1 DUP3 PUSH2 0x3DEF JUMP JUMPDEST DUP2 DUP2 LT PUSH2 0x1C44 JUMPI PUSH2 0x1C44 PUSH2 0x3E02 JUMP JUMPDEST SWAP1 POP PUSH1 0x20 MUL ADD PUSH1 0x20 DUP2 ADD SWAP1 PUSH2 0x1C59 SWAP2 SWAP1 PUSH2 0x3C99 JUMP JUMPDEST PUSH1 0x40 MLOAD PUSH4 0x70A08231 PUSH1 0xE0 SHL DUP2 MSTORE PUSH1 0x1 PUSH1 0x1 PUSH1 0xA0 SHL SUB DUP11 DUP2 AND PUSH1 0x4 DUP4 ADD MSTORE SWAP2 SWAP1 SWAP2 AND SWAP1 PUSH4 0x70A08231 SWAP1 PUSH1 0x24 ADD PUSH2 0xEED JUMP JUMPDEST PUSH1 0x0 DUP1 DUP3 TIMESTAMP DUP2 LT ISZERO PUSH2 0x1CAD JUMPI PUSH1 0x40 MLOAD PUSH3 0x461BCD PUSH1 0xE5 SHL DUP2 MSTORE PUSH1 0x4 ADD PUSH2 0x558 SWAP1 PUSH2 0x3DAB JUMP JUMPDEST PUSH1 0x0 PUSH2 0x1CDA PUSH32 0x0 DUP13 DUP13 PUSH2 0x2C2D JUMP JUMPDEST PUSH1 0x40 MLOAD PUSH4 0x23B872DD PUSH1 0xE0 SHL DUP2 MSTORE CALLER PUSH1 0x4 DUP3 ADD MSTORE PUSH1 0x1 PUSH1 0x1 PUSH1 0xA0 SHL SUB DUP3 AND PUSH1 0x24 DUP3 ADD DUP2 SWAP1 MSTORE PUSH1 0x44 DUP3 ADD DUP13 SWAP1 MSTORE SWAP2 SWAP3 POP PUSH4 0x23B872DD SWAP1 PUSH1 0x64 ADD PUSH1 0x20 PUSH1 0x40 MLOAD DUP1 DUP4 SUB DUP2 PUSH1 0x0 DUP8 GAS CALL ISZERO DUP1 ISZERO PUSH2 0x1D30 JUMPI RETURNDATASIZE PUSH1 0x0 DUP1 RETURNDATACOPY RETURNDATASIZE PUSH1 0x0 REVERT JUMPDEST POP POP POP POP PUSH1 0x40 MLOAD RETURNDATASIZE PUSH1 0x1F NOT PUSH1 0x1F DUP3 ADD AND DUP3 ADD DUP1 PUSH1 0x40 MSTORE POP DUP2 ADD SWAP1 PUSH2 0x1D54 SWAP2 SWAP1 PUSH2 0x3F3E JUMP JUMPDEST POP PUSH1 0x40 MLOAD PUSH4 0x226BF2D1 PUSH1 0xE2 SHL DUP2 MSTORE PUSH1 0x1 PUSH1 0x1 PUSH1 0xA0 SHL SUB DUP8 DUP2 AND PUSH1 0x4 DUP4 ADD MSTORE PUSH1 0x0 SWAP2 DUP3 SWAP2 DUP5 AND SWAP1 PUSH4 0x89AFCB44 SWAP1 PUSH1 0x24 ADD PUSH1 0x40 DUP1 MLOAD DUP1 DUP4 SUB DUP2 PUSH1 0x0 DUP8 GAS CALL ISZERO DUP1 ISZERO PUSH2 0x1DA1 JUMPI RETURNDATASIZE PUSH1 0x0 DUP1 RETURNDATACOPY RETURNDATASIZE PUSH1 0x0 REVERT JUMPDEST POP POP POP POP PUSH1 0x40 MLOAD RETURNDATASIZE PUSH1 0x1F NOT PUSH1 0x1F DUP3 ADD AND DUP3 ADD DUP1 PUSH1 0x40 MSTORE POP DUP2 ADD SWAP1 PUSH2 0x1DC5 SWAP2 SWAP1 PUSH2 0x3F76 JUMP JUMPDEST SWAP2 POP SWAP2 POP PUSH1 0x0 PUSH2 0x1DD5 DUP15 DUP15 PUSH2 0x35AC JUMP JUMPDEST POP SWAP1 POP DUP1 PUSH1 0x1 PUSH1 0x1 PUSH1 0xA0 SHL SUB AND DUP15 PUSH1 0x1 PUSH1 0x1 PUSH1 0xA0 SHL SUB AND EQ PUSH2 0x1DF8 JUMPI DUP2 DUP4 PUSH2 0x1DFB JUMP JUMPDEST DUP3 DUP3 JUMPDEST SWAP1 SWAP8 POP SWAP6 POP DUP11 DUP8 LT ISZERO PUSH2 0x1E20 JUMPI PUSH1 0x40 MLOAD PUSH3 0x461BCD PUSH1 0xE5 SHL DUP2 MSTORE PUSH1 0x4 ADD PUSH2 0x558 SWAP1 PUSH2 0x3F9A JUMP JUMPDEST DUP10 DUP7 LT ISZERO PUSH2 0x1E40 JUMPI PUSH1 0x40 MLOAD PUSH3 0x461BCD PUSH1 0xE5 SHL DUP2 MSTORE PUSH1 0x4 ADD PUSH2 0x558 SWAP1 PUSH2 0x3FDC JUMP JUMPDEST POP POP POP POP POP SWAP8 POP SWAP8 SWAP6 POP POP POP POP POP POP JUMP JUMPDEST PUSH1 0x1 SLOAD PUSH1 0x40 DUP1 MLOAD PUSH4 0xD9EB5947 PUSH1 0xE0 SHL DUP2 MSTORE SWAP1 MLOAD PUSH1 0x0 SWAP3 PUSH1 0x1 PUSH1 0x1 PUSH1 0xA0 SHL SUB AND SWAP2 PUSH4 0xD9EB5947 SWAP2 PUSH1 0x4 DUP1 DUP4 ADD SWAP3 PUSH1 0x20 SWAP3 SWAP2 SWAP1 DUP3 SWAP1 SUB ADD DUP2 DUP7 GAS STATICCALL ISZERO DUP1 ISZERO PUSH2 0x1E9B JUMPI RETURNDATASIZE PUSH1 0x0 DUP1 RETURNDATACOPY RETURNDATASIZE PUSH1 0x0 REVERT JUMPDEST POP POP POP POP PUSH1 0x40 MLOAD RETURNDATASIZE PUSH1 0x1F NOT PUSH1 0x1F DUP3 ADD AND DUP3 ADD DUP1 PUSH1 0x40 MSTORE POP DUP2 ADD SWAP1 PUSH2 0x1EBF SWAP2 SWAP1 PUSH2 0x3ED9 JUMP JUMPDEST SWAP1 POP SWAP1 JUMP JUMPDEST PUSH1 0x60 PUSH2 0x9DE PUSH32 0x0 DUP5 DUP5 PUSH2 0x2AA9 JUMP JUMPDEST PUSH1 0x0 SLOAD PUSH1 0x1 PUSH1 0x1 PUSH1 0xA0 SHL SUB AND CALLER EQ PUSH2 0x1F1B JUMPI PUSH1 0x40 MLOAD PUSH3 0x461BCD PUSH1 0xE5 SHL DUP2 MSTORE PUSH1 0x4 ADD PUSH2 0x558 SWAP1 PUSH2 0x3EF2 JUMP JUMPDEST PUSH1 0x40 MLOAD CALLER SWAP1 SELFBALANCE DUP1 ISZERO PUSH2 0x8FC MUL SWAP2 PUSH1 0x0 DUP2 DUP2 DUP2 DUP6 DUP9 DUP9 CALL SWAP4 POP POP POP POP ISZERO DUP1 ISZERO PUSH2 0x1F47 JUMPI RETURNDATASIZE PUSH1 0x0 DUP1 RETURNDATACOPY RETURNDATASIZE PUSH1 0x0 REVERT JUMPDEST POP JUMP JUMPDEST PUSH1 0x0 DUP1 PUSH1 0x0 DUP4 TIMESTAMP DUP2 LT ISZERO PUSH2 0x1F70 JUMPI PUSH1 0x40 MLOAD PUSH3 0x461BCD PUSH1 0xE5 SHL DUP2 MSTORE PUSH1 0x4 ADD PUSH2 0x558 SWAP1 PUSH2 0x3DAB JUMP JUMPDEST PUSH2 0x1F7E DUP13 DUP13 DUP13 DUP13 DUP13 DUP13 PUSH2 0x368E JUMP JUMPDEST SWAP1 SWAP5 POP SWAP3 POP PUSH1 0x0 PUSH2 0x1FB0 PUSH32 0x0 DUP15 DUP15 PUSH2 0x2C2D JUMP JUMPDEST SWAP1 POP PUSH2 0x1FBE DUP14 CALLER DUP4 DUP9 PUSH2 0x2CA3 JUMP JUMPDEST PUSH2 0x1FCA DUP13 CALLER DUP4 DUP8 PUSH2 0x2CA3 JUMP JUMPDEST PUSH1 0x40 MLOAD PUSH4 0x35313C21 PUSH1 0xE1 SHL DUP2 MSTORE PUSH1 0x1 PUSH1 0x1 PUSH1 0xA0 SHL SUB DUP9 DUP2 AND PUSH1 0x4 DUP4 ADD MSTORE DUP3 AND SWAP1 PUSH4 0x6A627842 SWAP1 PUSH1 0x24 ADD PUSH1 0x20 PUSH1 0x40 MLOAD DUP1 DUP4 SUB DUP2 PUSH1 0x0 DUP8 GAS CALL ISZERO DUP1 ISZERO PUSH2 0x2012 JUMPI RETURNDATASIZE PUSH1 0x0 DUP1 RETURNDATACOPY RETURNDATASIZE PUSH1 0x0 REVERT JUMPDEST POP POP POP POP PUSH1 0x40 MLOAD RETURNDATASIZE PUSH1 0x1F NOT PUSH1 0x1F DUP3 ADD AND DUP3 ADD DUP1 PUSH1 0x40 MSTORE POP DUP2 ADD SWAP1 PUSH2 0x2036 SWAP2 SWAP1 PUSH2 0x3ED9 JUMP JUMPDEST SWAP3 POP POP POP SWAP9 POP SWAP9 POP SWAP9 SWAP6 POP POP POP POP POP POP JUMP JUMPDEST PUSH1 0x0 SLOAD PUSH1 0x1 PUSH1 0x1 PUSH1 0xA0 SHL SUB AND CALLER EQ PUSH2 0x2072 JUMPI PUSH1 0x40 MLOAD PUSH3 0x461BCD PUSH1 0xE5 SHL DUP2 MSTORE PUSH1 0x4 ADD PUSH2 0x558 SWAP1 PUSH2 0x3EF2 JUMP JUMPDEST PUSH1 0x1 PUSH1 0x1 PUSH1 0xA0 SHL SUB DUP2 AND PUSH2 0x20D7 JUMPI PUSH1 0x40 MLOAD PUSH3 0x461BCD PUSH1 0xE5 SHL DUP2 MSTORE PUSH1 0x20 PUSH1 0x4 DUP3 ADD MSTORE PUSH1 0x26 PUSH1 0x24 DUP3 ADD MSTORE PUSH32 0x4F776E61626C653A206E6577206F776E657220697320746865207A65726F2061 PUSH1 0x44 DUP3 ADD MSTORE PUSH6 0x646472657373 PUSH1 0xD0 SHL PUSH1 0x64 DUP3 ADD MSTORE PUSH1 0x84 ADD PUSH2 0x558 JUMP JUMPDEST PUSH2 0x1F47 DUP2 PUSH2 0x33FA JUMP JUMPDEST PUSH1 0x0 DUP1 PUSH1 0x0 DUP4 TIMESTAMP DUP2 LT ISZERO PUSH2 0x2106 JUMPI PUSH1 0x40 MLOAD PUSH3 0x461BCD PUSH1 0xE5 SHL DUP2 MSTORE PUSH1 0x4 ADD PUSH2 0x558 SWAP1 PUSH2 0x3DAB JUMP JUMPDEST PUSH2 0x2134 DUP11 PUSH32 0x0 DUP12 CALLVALUE DUP13 DUP13 PUSH2 0x368E JUMP JUMPDEST SWAP1 SWAP5 POP SWAP3 POP PUSH1 0x0 PUSH2 0x2186 PUSH32 0x0 DUP13 PUSH32 0x0 PUSH2 0x2C2D JUMP JUMPDEST SWAP1 POP PUSH2 0x2194 DUP12 CALLER DUP4 DUP9 PUSH2 0x2CA3 JUMP JUMPDEST PUSH32 0x0 PUSH1 0x1 PUSH1 0x1 PUSH1 0xA0 SHL SUB AND PUSH4 0xD0E30DB0 DUP6 PUSH1 0x40 MLOAD DUP3 PUSH4 0xFFFFFFFF AND PUSH1 0xE0 SHL DUP2 MSTORE PUSH1 0x4 ADD PUSH1 0x0 PUSH1 0x40 MLOAD DUP1 DUP4 SUB DUP2 DUP6 DUP9 DUP1 EXTCODESIZE ISZERO DUP1 ISZERO PUSH2 0x21EF JUMPI PUSH1 0x0 DUP1 REVERT JUMPDEST POP GAS CALL ISZERO DUP1 ISZERO PUSH2 0x2203 JUMPI RETURNDATASIZE PUSH1 0x0 DUP1 RETURNDATACOPY RETURNDATASIZE PUSH1 0x0 REVERT JUMPDEST POP POP PUSH1 0x40 MLOAD PUSH4 0xA9059CBB PUSH1 0xE0 SHL DUP2 MSTORE PUSH1 0x1 PUSH1 0x1 PUSH1 0xA0 SHL SUB DUP6 DUP2 AND PUSH1 0x4 DUP4 ADD MSTORE PUSH1 0x24 DUP3 ADD DUP10 SWAP1 MSTORE PUSH32 0x0 AND SWAP4 POP PUSH4 0xA9059CBB SWAP3 POP PUSH1 0x44 ADD SWAP1 POP PUSH1 0x20 PUSH1 0x40 MLOAD DUP1 DUP4 SUB DUP2 PUSH1 0x0 DUP8 GAS CALL ISZERO DUP1 ISZERO PUSH2 0x2278 JUMPI RETURNDATASIZE PUSH1 0x0 DUP1 RETURNDATACOPY RETURNDATASIZE PUSH1 0x0 REVERT JUMPDEST POP POP POP POP PUSH1 0x40 MLOAD RETURNDATASIZE PUSH1 0x1F NOT PUSH1 0x1F DUP3 ADD AND DUP3 ADD DUP1 PUSH1 0x40 MSTORE POP DUP2 ADD SWAP1 PUSH2 0x229C SWAP2 SWAP1 PUSH2 0x3F3E JUMP JUMPDEST PUSH2 0x22A8 JUMPI PUSH2 0x22A8 PUSH2 0x3F60 JUMP JUMPDEST PUSH1 0x40 MLOAD PUSH4 0x35313C21 PUSH1 0xE1 SHL DUP2 MSTORE PUSH1 0x1 PUSH1 0x1 PUSH1 0xA0 SHL SUB DUP9 DUP2 AND PUSH1 0x4 DUP4 ADD MSTORE DUP3 AND SWAP1 PUSH4 0x6A627842 SWAP1 PUSH1 0x24 ADD PUSH1 0x20 PUSH1 0x40 MLOAD DUP1 DUP4 SUB DUP2 PUSH1 0x0 DUP8 GAS CALL ISZERO DUP1 ISZERO PUSH2 0x22F0 JUMPI RETURNDATASIZE PUSH1 0x0 DUP1 RETURNDATACOPY RETURNDATASIZE PUSH1 0x0 REVERT JUMPDEST POP POP POP POP PUSH1 0x40 MLOAD RETURNDATASIZE PUSH1 0x1F NOT PUSH1 0x1F DUP3 ADD AND DUP3 ADD DUP1 PUSH1 0x40 MSTORE POP DUP2 ADD SWAP1 PUSH2 0x2314 SWAP2 SWAP1 PUSH2 0x3ED9 JUMP JUMPDEST SWAP3 POP DUP4 CALLVALUE GT ISZERO PUSH2 0x2331 JUMPI PUSH2 0x2331 CALLER PUSH2 0x232C DUP7 CALLVALUE PUSH2 0x3DEF JUMP JUMPDEST PUSH2 0x2856 JUMP JUMPDEST POP POP SWAP7 POP SWAP7 POP SWAP7 SWAP4 POP POP POP POP JUMP JUMPDEST PUSH1 0x60 DUP2 TIMESTAMP DUP2 LT ISZERO PUSH2 0x2362 JUMPI PUSH1 0x40 MLOAD PUSH3 0x461BCD PUSH1 0xE5 SHL DUP2 MSTORE PUSH1 0x4 ADD PUSH2 0x558 SWAP1 PUSH2 0x3DAB JUMP JUMPDEST PUSH32 0x0 PUSH1 0x1 PUSH1 0x1 PUSH1 0xA0 SHL SUB AND DUP7 DUP7 PUSH1 0x0 DUP2 DUP2 LT PUSH2 0x239F JUMPI PUSH2 0x239F PUSH2 0x3E02 JUMP JUMPDEST SWAP1 POP PUSH1 0x20 MUL ADD PUSH1 0x20 DUP2 ADD SWAP1 PUSH2 0x23B4 SWAP2 SWAP1 PUSH2 0x3C99 JUMP JUMPDEST PUSH1 0x1 PUSH1 0x1 PUSH1 0xA0 SHL SUB AND EQ PUSH2 0x23DA JUMPI PUSH1 0x40 MLOAD PUSH3 0x461BCD PUSH1 0xE5 SHL DUP2 MSTORE PUSH1 0x4 ADD PUSH2 0x558 SWAP1 PUSH2 0x3E18 JUMP JUMPDEST PUSH2 0x2438 PUSH32 0x0 DUP9 DUP9 DUP9 DUP1 DUP1 PUSH1 0x20 MUL PUSH1 0x20 ADD PUSH1 0x40 MLOAD SWAP1 DUP2 ADD PUSH1 0x40 MSTORE DUP1 SWAP4 SWAP3 SWAP2 SWAP1 DUP2 DUP2 MSTORE PUSH1 0x20 ADD DUP4 DUP4 PUSH1 0x20 MUL DUP1 DUP3 DUP5 CALLDATACOPY PUSH1 0x0 SWAP3 ADD SWAP2 SWAP1 SWAP2 MSTORE POP PUSH2 0x2FDB SWAP3 POP POP POP JUMP JUMPDEST SWAP2 POP PUSH1 0x0 PUSH2 0x2444 PUSH2 0x1E51 JUMP JUMPDEST PUSH2 0x244F SWAP1 PUSH1 0x64 PUSH2 0x3F27 JUMP JUMPDEST CALLVALUE GT PUSH2 0x245C JUMPI PUSH1 0x0 PUSH2 0x2498 JUMP JUMPDEST PUSH2 0x2498 DUP8 DUP8 DUP1 DUP1 PUSH1 0x20 MUL PUSH1 0x20 ADD PUSH1 0x40 MLOAD SWAP1 DUP2 ADD PUSH1 0x40 MSTORE DUP1 SWAP4 SWAP3 SWAP2 SWAP1 DUP2 DUP2 MSTORE PUSH1 0x20 ADD DUP4 DUP4 PUSH1 0x20 MUL DUP1 DUP3 DUP5 CALLDATACOPY PUSH1 0x0 SWAP3 ADD SWAP2 SWAP1 SWAP2 MSTORE POP PUSH2 0x29FA SWAP3 POP POP POP JUMP JUMPDEST SWAP1 POP DUP1 DUP4 PUSH1 0x0 DUP2 MLOAD DUP2 LT PUSH2 0x24AE JUMPI PUSH2 0x24AE PUSH2 0x3E02 JUMP JUMPDEST PUSH1 0x20 MUL PUSH1 0x20 ADD ADD MLOAD PUSH2 0x24C0 SWAP2 SWAP1 PUSH2 0x3DEF JUMP JUMPDEST DUP4 PUSH1 0x0 DUP2 MLOAD DUP2 LT PUSH2 0x24D3 JUMPI PUSH2 0x24D3 PUSH2 0x3E02 JUMP JUMPDEST PUSH1 0x20 SWAP1 DUP2 MUL SWAP2 SWAP1 SWAP2 ADD ADD MSTORE PUSH2 0x24E8 DUP2 CALLVALUE PUSH2 0x3DEF JUMP JUMPDEST DUP4 PUSH1 0x0 DUP2 MLOAD DUP2 LT PUSH2 0x24FB JUMPI PUSH2 0x24FB PUSH2 0x3E02 JUMP JUMPDEST PUSH1 0x20 MUL PUSH1 0x20 ADD ADD MLOAD GT ISZERO PUSH2 0x2521 JUMPI PUSH1 0x40 MLOAD PUSH3 0x461BCD PUSH1 0xE5 SHL DUP2 MSTORE PUSH1 0x4 ADD PUSH2 0x558 SWAP1 PUSH2 0x3E96 JUMP JUMPDEST PUSH32 0x0 PUSH1 0x1 PUSH1 0x1 PUSH1 0xA0 SHL SUB AND PUSH4 0xD0E30DB0 DUP5 PUSH1 0x0 DUP2 MLOAD DUP2 LT PUSH2 0x2563 JUMPI PUSH2 0x2563 PUSH2 0x3E02 JUMP JUMPDEST PUSH1 0x20 MUL PUSH1 0x20 ADD ADD MLOAD PUSH1 0x40 MLOAD DUP3 PUSH4 0xFFFFFFFF AND PUSH1 0xE0 SHL DUP2 MSTORE PUSH1 0x4 ADD PUSH1 0x0 PUSH1 0x40 MLOAD DUP1 DUP4 SUB DUP2 DUP6 DUP9 DUP1 EXTCODESIZE ISZERO DUP1 ISZERO PUSH2 0x2596 JUMPI PUSH1 0x0 DUP1 REVERT JUMPDEST POP GAS CALL ISZERO DUP1 ISZERO PUSH2 0x25AA JUMPI RETURNDATASIZE PUSH1 0x0 DUP1 RETURNDATACOPY RETURNDATASIZE PUSH1 0x0 REVERT JUMPDEST POP POP POP POP POP PUSH32 0x0 PUSH1 0x1 PUSH1 0x1 PUSH1 0xA0 SHL SUB AND PUSH4 0xA9059CBB PUSH2 0x2615 PUSH32 0x0 DUP11 DUP11 PUSH1 0x0 DUP2 DUP2 LT PUSH2 0x82F JUMPI PUSH2 0x82F PUSH2 0x3E02 JUMP JUMPDEST DUP6 PUSH1 0x0 DUP2 MLOAD DUP2 LT PUSH2 0x2628 JUMPI PUSH2 0x2628 PUSH2 0x3E02 JUMP JUMPDEST PUSH1 0x20 MUL PUSH1 0x20 ADD ADD MLOAD PUSH1 0x40 MLOAD DUP4 PUSH4 0xFFFFFFFF AND PUSH1 0xE0 SHL DUP2 MSTORE PUSH1 0x4 ADD PUSH2 0x2661 SWAP3 SWAP2 SWAP1 PUSH1 0x1 PUSH1 0x1 PUSH1 0xA0 SHL SUB SWAP3 SWAP1 SWAP3 AND DUP3 MSTORE PUSH1 0x20 DUP3 ADD MSTORE PUSH1 0x40 ADD SWAP1 JUMP JUMPDEST PUSH1 0x20 PUSH1 0x40 MLOAD DUP1 DUP4 SUB DUP2 PUSH1 0x0 DUP8 GAS CALL ISZERO DUP1 ISZERO PUSH2 0x2680 JUMPI RETURNDATASIZE PUSH1 0x0 DUP1 RETURNDATACOPY RETURNDATASIZE PUSH1 0x0 REVERT JUMPDEST POP POP POP POP PUSH1 0x40 MLOAD RETURNDATASIZE PUSH1 0x1F NOT PUSH1 0x1F DUP3 ADD AND DUP3 ADD DUP1 PUSH1 0x40 MSTORE POP DUP2 ADD SWAP1 PUSH2 0x26A4 SWAP2 SWAP1 PUSH2 0x3F3E JUMP JUMPDEST PUSH2 0x26B0 JUMPI PUSH2 0x26B0 PUSH2 0x3F60 JUMP JUMPDEST PUSH2 0x26EF DUP4 DUP9 DUP9 DUP1 DUP1 PUSH1 0x20 MUL PUSH1 0x20 ADD PUSH1 0x40 MLOAD SWAP1 DUP2 ADD PUSH1 0x40 MSTORE DUP1 SWAP4 SWAP3 SWAP2 SWAP1 DUP2 DUP2 MSTORE PUSH1 0x20 ADD DUP4 DUP4 PUSH1 0x20 MUL DUP1 DUP3 DUP5 CALLDATACOPY PUSH1 0x0 SWAP3 ADD SWAP2 SWAP1 SWAP2 MSTORE POP DUP11 SWAP3 POP PUSH2 0x2DD3 SWAP2 POP POP JUMP JUMPDEST DUP3 PUSH1 0x0 DUP2 MLOAD DUP2 LT PUSH2 0x2702 JUMPI PUSH2 0x2702 PUSH2 0x3E02 JUMP JUMPDEST PUSH1 0x20 MUL PUSH1 0x20 ADD ADD MLOAD CALLVALUE GT ISZERO PUSH2 0x156E JUMPI PUSH2 0x156E CALLER DUP5 PUSH1 0x0 DUP2 MLOAD DUP2 LT PUSH2 0x2728 JUMPI PUSH2 0x2728 PUSH2 0x3E02 JUMP JUMPDEST PUSH1 0x20 MUL PUSH1 0x20 ADD ADD MLOAD CALLVALUE PUSH2 0x232C SWAP2 SWAP1 PUSH2 0x3DEF JUMP JUMPDEST PUSH1 0x40 DUP1 MLOAD PUSH1 0x1 PUSH1 0x1 PUSH1 0xA0 SHL SUB DUP5 DUP2 AND PUSH1 0x24 DUP4 ADD MSTORE PUSH1 0x44 DUP1 DUP4 ADD DUP6 SWAP1 MSTORE DUP4 MLOAD DUP1 DUP5 SUB SWAP1 SWAP2 ADD DUP2 MSTORE PUSH1 0x64 SWAP1 SWAP3 ADD DUP4 MSTORE PUSH1 0x20 DUP3 ADD DUP1 MLOAD PUSH1 0x1 PUSH1 0x1 PUSH1 0xE0 SHL SUB AND PUSH4 0xA9059CBB PUSH1 0xE0 SHL OR SWAP1 MSTORE SWAP2 MLOAD PUSH1 0x0 SWAP3 DUP4 SWAP3 SWAP1 DUP8 AND SWAP2 PUSH2 0x2797 SWAP2 SWAP1 PUSH2 0x4042 JUMP JUMPDEST PUSH1 0x0 PUSH1 0x40 MLOAD DUP1 DUP4 SUB DUP2 PUSH1 0x0 DUP7 GAS CALL SWAP2 POP POP RETURNDATASIZE DUP1 PUSH1 0x0 DUP2 EQ PUSH2 0x27D4 JUMPI PUSH1 0x40 MLOAD SWAP2 POP PUSH1 0x1F NOT PUSH1 0x3F RETURNDATASIZE ADD AND DUP3 ADD PUSH1 0x40 MSTORE RETURNDATASIZE DUP3 MSTORE RETURNDATASIZE PUSH1 0x0 PUSH1 0x20 DUP5 ADD RETURNDATACOPY PUSH2 0x27D9 JUMP JUMPDEST PUSH1 0x60 SWAP2 POP JUMPDEST POP SWAP2 POP SWAP2 POP DUP2 DUP1 ISZERO PUSH2 0x2803 JUMPI POP DUP1 MLOAD ISZERO DUP1 PUSH2 0x2803 JUMPI POP DUP1 DUP1 PUSH1 0x20 ADD SWAP1 MLOAD DUP2 ADD SWAP1 PUSH2 0x2803 SWAP2 SWAP1 PUSH2 0x3F3E JUMP JUMPDEST PUSH2 0x284F JUMPI PUSH1 0x40 MLOAD PUSH3 0x461BCD PUSH1 0xE5 SHL DUP2 MSTORE PUSH1 0x20 PUSH1 0x4 DUP3 ADD MSTORE PUSH1 0x1F PUSH1 0x24 DUP3 ADD MSTORE PUSH32 0x5472616E7366657248656C7065723A205452414E534645525F4641494C454400 PUSH1 0x44 DUP3 ADD MSTORE PUSH1 0x64 ADD PUSH2 0x558 JUMP JUMPDEST POP POP POP POP POP JUMP JUMPDEST PUSH1 0x40 DUP1 MLOAD PUSH1 0x0 DUP1 DUP3 MSTORE PUSH1 0x20 DUP3 ADD SWAP1 SWAP3 MSTORE PUSH1 0x1 PUSH1 0x1 PUSH1 0xA0 SHL SUB DUP5 AND SWAP1 DUP4 SWAP1 PUSH1 0x40 MLOAD PUSH2 0x2880 SWAP2 SWAP1 PUSH2 0x4042 JUMP JUMPDEST PUSH1 0x0 PUSH1 0x40 MLOAD DUP1 DUP4 SUB DUP2 DUP6 DUP8 GAS CALL SWAP3 POP POP POP RETURNDATASIZE DUP1 PUSH1 0x0 DUP2 EQ PUSH2 0x28BD JUMPI PUSH1 0x40 MLOAD SWAP2 POP PUSH1 0x1F NOT PUSH1 0x3F RETURNDATASIZE ADD AND DUP3 ADD PUSH1 0x40 MSTORE RETURNDATASIZE DUP3 MSTORE RETURNDATASIZE PUSH1 0x0 PUSH1 0x20 DUP5 ADD RETURNDATACOPY PUSH2 0x28C2 JUMP JUMPDEST PUSH1 0x60 SWAP2 POP JUMPDEST POP POP SWAP1 POP DUP1 PUSH2 0x291F JUMPI PUSH1 0x40 MLOAD PUSH3 0x461BCD PUSH1 0xE5 SHL DUP2 MSTORE PUSH1 0x20 PUSH1 0x4 DUP3 ADD MSTORE PUSH1 0x23 PUSH1 0x24 DUP3 ADD MSTORE PUSH32 0x5472616E7366657248656C7065723A204554485F5452414E534645525F464149 PUSH1 0x44 DUP3 ADD MSTORE PUSH3 0x131151 PUSH1 0xEA SHL PUSH1 0x64 DUP3 ADD MSTORE PUSH1 0x84 ADD PUSH2 0x558 JUMP JUMPDEST POP POP POP JUMP JUMPDEST PUSH1 0x0 DUP1 DUP5 GT PUSH2 0x2981 JUMPI PUSH1 0x40 MLOAD PUSH3 0x461BCD PUSH1 0xE5 SHL DUP2 MSTORE PUSH1 0x20 PUSH1 0x4 DUP3 ADD MSTORE PUSH1 0x23 PUSH1 0x24 DUP3 ADD MSTORE PUSH32 0x494C6962726172793A20494E53554646494349454E545F494E5055545F414D4F PUSH1 0x44 DUP3 ADD MSTORE PUSH3 0x155395 PUSH1 0xEA SHL PUSH1 0x64 DUP3 ADD MSTORE PUSH1 0x84 ADD PUSH2 0x558 JUMP JUMPDEST PUSH1 0x0 DUP4 GT DUP1 ISZERO PUSH2 0x2991 JUMPI POP PUSH1 0x0 DUP3 GT JUMPDEST PUSH2 0x29AD JUMPI PUSH1 0x40 MLOAD PUSH3 0x461BCD PUSH1 0xE5 SHL DUP2 MSTORE PUSH1 0x4 ADD PUSH2 0x558 SWAP1 PUSH2 0x405E JUMP JUMPDEST PUSH1 0x0 PUSH2 0x29BB DUP6 PUSH2 0x26F7 PUSH2 0x38B2 JUMP JUMPDEST SWAP1 POP PUSH1 0x0 PUSH2 0x29C9 DUP3 DUP6 PUSH2 0x38B2 JUMP JUMPDEST SWAP1 POP PUSH1 0x0 PUSH2 0x29E3 DUP4 PUSH2 0x29DD DUP9 PUSH2 0x2710 PUSH2 0x38B2 JUMP JUMPDEST SWAP1 PUSH2 0x38BE JUMP JUMPDEST SWAP1 POP PUSH2 0x29EF DUP2 DUP4 PUSH2 0x4093 JUMP JUMPDEST SWAP8 SWAP7 POP POP POP POP POP POP POP JUMP JUMPDEST PUSH1 0x0 PUSH1 0x1 DUP3 MLOAD PUSH2 0x2A0A SWAP2 SWAP1 PUSH2 0x3DEF JUMP JUMPDEST PUSH2 0x2A12 PUSH2 0x1E51 JUMP JUMPDEST PUSH2 0x2A1C SWAP2 SWAP1 PUSH2 0x3F27 JUMP JUMPDEST SWAP1 POP PUSH1 0x0 PUSH1 0x1 PUSH1 0x0 SWAP1 SLOAD SWAP1 PUSH2 0x100 EXP SWAP1 DIV PUSH1 0x1 PUSH1 0x1 PUSH1 0xA0 SHL SUB AND PUSH1 0x1 PUSH1 0x1 PUSH1 0xA0 SHL SUB AND PUSH4 0x61D027B3 PUSH1 0x40 MLOAD DUP2 PUSH4 0xFFFFFFFF AND PUSH1 0xE0 SHL DUP2 MSTORE PUSH1 0x4 ADD PUSH1 0x20 PUSH1 0x40 MLOAD DUP1 DUP4 SUB DUP2 DUP7 GAS STATICCALL ISZERO DUP1 ISZERO PUSH2 0x2A73 JUMPI RETURNDATASIZE PUSH1 0x0 DUP1 RETURNDATACOPY RETURNDATASIZE PUSH1 0x0 REVERT JUMPDEST POP POP POP POP PUSH1 0x40 MLOAD RETURNDATASIZE PUSH1 0x1F NOT PUSH1 0x1F DUP3 ADD AND DUP3 ADD DUP1 PUSH1 0x40 MSTORE POP DUP2 ADD SWAP1 PUSH2 0x2A97 SWAP2 SWAP1 PUSH2 0x40B5 JUMP JUMPDEST SWAP1 POP PUSH2 0x2AA3 DUP2 DUP4 PUSH2 0x2856 JUMP JUMPDEST POP SWAP2 SWAP1 POP JUMP JUMPDEST PUSH1 0x60 PUSH1 0x2 DUP3 MLOAD LT ISZERO PUSH2 0x2AF6 JUMPI PUSH1 0x40 MLOAD PUSH3 0x461BCD PUSH1 0xE5 SHL DUP2 MSTORE PUSH1 0x20 PUSH1 0x4 DUP3 ADD MSTORE PUSH1 0x16 PUSH1 0x24 DUP3 ADD MSTORE PUSH22 0x9298D2C4E4C2E4F27440929CAC82989288BEA082A89 PUSH1 0x53 SHL PUSH1 0x44 DUP3 ADD MSTORE PUSH1 0x64 ADD PUSH2 0x558 JUMP JUMPDEST DUP2 MLOAD PUSH8 0xFFFFFFFFFFFFFFFF DUP2 GT ISZERO PUSH2 0x2B10 JUMPI PUSH2 0x2B10 PUSH2 0x3B4B JUMP JUMPDEST PUSH1 0x40 MLOAD SWAP1 DUP1 DUP3 MSTORE DUP1 PUSH1 0x20 MUL PUSH1 0x20 ADD DUP3 ADD PUSH1 0x40 MSTORE DUP1 ISZERO PUSH2 0x2B39 JUMPI DUP2 PUSH1 0x20 ADD PUSH1 0x20 DUP3 MUL DUP1 CALLDATASIZE DUP4 CALLDATACOPY ADD SWAP1 POP JUMPDEST POP SWAP1 POP DUP3 DUP2 PUSH1 0x0 DUP2 MLOAD DUP2 LT PUSH2 0x2B50 JUMPI PUSH2 0x2B50 PUSH2 0x3E02 JUMP JUMPDEST PUSH1 0x20 MUL PUSH1 0x20 ADD ADD DUP2 DUP2 MSTORE POP POP PUSH1 0x0 JUMPDEST PUSH1 0x1 DUP4 MLOAD PUSH2 0x2B6D SWAP2 SWAP1 PUSH2 0x3DEF JUMP JUMPDEST DUP2 LT ISZERO PUSH2 0x2C25 JUMPI PUSH1 0x0 DUP1 PUSH2 0x2BC0 DUP8 DUP7 DUP6 DUP2 MLOAD DUP2 LT PUSH2 0x2B8D JUMPI PUSH2 0x2B8D PUSH2 0x3E02 JUMP JUMPDEST PUSH1 0x20 MUL PUSH1 0x20 ADD ADD MLOAD DUP8 DUP7 PUSH1 0x1 PUSH2 0x2BA3 SWAP2 SWAP1 PUSH2 0x40D2 JUMP JUMPDEST DUP2 MLOAD DUP2 LT PUSH2 0x2BB3 JUMPI PUSH2 0x2BB3 PUSH2 0x3E02 JUMP JUMPDEST PUSH1 0x20 MUL PUSH1 0x20 ADD ADD MLOAD PUSH2 0x38CA JUMP JUMPDEST SWAP2 POP SWAP2 POP PUSH2 0x2BE8 DUP5 DUP5 DUP2 MLOAD DUP2 LT PUSH2 0x2BD9 JUMPI PUSH2 0x2BD9 PUSH2 0x3E02 JUMP JUMPDEST PUSH1 0x20 MUL PUSH1 0x20 ADD ADD MLOAD DUP4 DUP4 PUSH2 0x2924 JUMP JUMPDEST DUP5 PUSH2 0x2BF4 DUP6 PUSH1 0x1 PUSH2 0x40D2 JUMP JUMPDEST DUP2 MLOAD DUP2 LT PUSH2 0x2C04 JUMPI PUSH2 0x2C04 PUSH2 0x3E02 JUMP JUMPDEST PUSH1 0x20 MUL PUSH1 0x20 ADD ADD DUP2 DUP2 MSTORE POP POP POP POP DUP1 DUP1 PUSH2 0x2C1D SWAP1 PUSH2 0x40E5 JUMP JUMPDEST SWAP2 POP POP PUSH2 0x2B5F JUMP JUMPDEST POP SWAP4 SWAP3 POP POP POP JUMP JUMPDEST PUSH1 0x40 MLOAD PUSH4 0xE6A43905 PUSH1 0xE0 SHL DUP2 MSTORE PUSH1 0x1 PUSH1 0x1 PUSH1 0xA0 SHL SUB DUP4 DUP2 AND PUSH1 0x4 DUP4 ADD MSTORE DUP3 DUP2 AND PUSH1 0x24 DUP4 ADD MSTORE PUSH1 0x0 SWAP2 SWAP1 DUP6 AND SWAP1 PUSH4 0xE6A43905 SWAP1 PUSH1 0x44 ADD PUSH1 0x20 PUSH1 0x40 MLOAD DUP1 DUP4 SUB DUP2 DUP7 GAS STATICCALL ISZERO DUP1 ISZERO PUSH2 0x2C7F JUMPI RETURNDATASIZE PUSH1 0x0 DUP1 RETURNDATACOPY RETURNDATASIZE PUSH1 0x0 REVERT JUMPDEST POP POP POP POP PUSH1 0x40 MLOAD RETURNDATASIZE PUSH1 0x1F NOT PUSH1 0x1F DUP3 ADD AND DUP3 ADD DUP1 PUSH1 0x40 MSTORE POP DUP2 ADD SWAP1 PUSH2 0x63D SWAP2 SWAP1 PUSH2 0x40B5 JUMP JUMPDEST PUSH1 0x40 DUP1 MLOAD PUSH1 0x1 PUSH1 0x1 PUSH1 0xA0 SHL SUB DUP6 DUP2 AND PUSH1 0x24 DUP4 ADD MSTORE DUP5 DUP2 AND PUSH1 0x44 DUP4 ADD MSTORE PUSH1 0x64 DUP1 DUP4 ADD DUP6 SWAP1 MSTORE DUP4 MLOAD DUP1 DUP5 SUB SWAP1 SWAP2 ADD DUP2 MSTORE PUSH1 0x84 SWAP1 SWAP3 ADD DUP4 MSTORE PUSH1 0x20 DUP3 ADD DUP1 MLOAD PUSH1 0x1 PUSH1 0x1 PUSH1 0xE0 SHL SUB AND PUSH4 0x23B872DD PUSH1 0xE0 SHL OR SWAP1 MSTORE SWAP2 MLOAD PUSH1 0x0 SWAP3 DUP4 SWAP3 SWAP1 DUP9 AND SWAP2 PUSH2 0x2D07 SWAP2 SWAP1 PUSH2 0x4042 JUMP JUMPDEST PUSH1 0x0 PUSH1 0x40 MLOAD DUP1 DUP4 SUB DUP2 PUSH1 0x0 DUP7 GAS CALL SWAP2 POP POP RETURNDATASIZE DUP1 PUSH1 0x0 DUP2 EQ PUSH2 0x2D44 JUMPI PUSH1 0x40 MLOAD SWAP2 POP PUSH1 0x1F NOT PUSH1 0x3F RETURNDATASIZE ADD AND DUP3 ADD PUSH1 0x40 MSTORE RETURNDATASIZE DUP3 MSTORE RETURNDATASIZE PUSH1 0x0 PUSH1 0x20 DUP5 ADD RETURNDATACOPY PUSH2 0x2D49 JUMP JUMPDEST PUSH1 0x60 SWAP2 POP JUMPDEST POP SWAP2 POP SWAP2 POP DUP2 DUP1 ISZERO PUSH2 0x2D73 JUMPI POP DUP1 MLOAD ISZERO DUP1 PUSH2 0x2D73 JUMPI POP DUP1 DUP1 PUSH1 0x20 ADD SWAP1 MLOAD DUP2 ADD SWAP1 PUSH2 0x2D73 SWAP2 SWAP1 PUSH2 0x3F3E JUMP JUMPDEST PUSH2 0x2DCB JUMPI PUSH1 0x40 MLOAD PUSH3 0x461BCD PUSH1 0xE5 SHL DUP2 MSTORE PUSH1 0x20 PUSH1 0x4 DUP3 ADD MSTORE PUSH1 0x24 DUP1 DUP3 ADD MSTORE PUSH32 0x5472616E7366657248656C7065723A205452414E534645525F46524F4D5F4641 PUSH1 0x44 DUP3 ADD MSTORE PUSH4 0x12531151 PUSH1 0xE2 SHL PUSH1 0x64 DUP3 ADD MSTORE PUSH1 0x84 ADD PUSH2 0x558 JUMP JUMPDEST POP POP POP POP POP POP JUMP JUMPDEST PUSH1 0x0 JUMPDEST PUSH1 0x1 DUP4 MLOAD PUSH2 0x2DE4 SWAP2 SWAP1 PUSH2 0x3DEF JUMP JUMPDEST DUP2 LT ISZERO PUSH2 0x2FD5 JUMPI PUSH1 0x0 DUP1 DUP5 DUP4 DUP2 MLOAD DUP2 LT PUSH2 0x2E00 JUMPI PUSH2 0x2E00 PUSH2 0x3E02 JUMP JUMPDEST PUSH1 0x20 MUL PUSH1 0x20 ADD ADD MLOAD DUP6 DUP5 PUSH1 0x1 PUSH2 0x2E16 SWAP2 SWAP1 PUSH2 0x40D2 JUMP JUMPDEST DUP2 MLOAD DUP2 LT PUSH2 0x2E26 JUMPI PUSH2 0x2E26 PUSH2 0x3E02 JUMP JUMPDEST PUSH1 0x20 MUL PUSH1 0x20 ADD ADD MLOAD SWAP2 POP SWAP2 POP PUSH1 0x0 PUSH2 0x2E3E DUP4 DUP4 PUSH2 0x35AC JUMP JUMPDEST POP SWAP1 POP PUSH1 0x0 DUP8 PUSH2 0x2E4F DUP7 PUSH1 0x1 PUSH2 0x40D2 JUMP JUMPDEST DUP2 MLOAD DUP2 LT PUSH2 0x2E5F JUMPI PUSH2 0x2E5F PUSH2 0x3E02 JUMP JUMPDEST PUSH1 0x20 MUL PUSH1 0x20 ADD ADD MLOAD SWAP1 POP PUSH1 0x0 DUP1 DUP4 PUSH1 0x1 PUSH1 0x1 PUSH1 0xA0 SHL SUB AND DUP7 PUSH1 0x1 PUSH1 0x1 PUSH1 0xA0 SHL SUB AND EQ PUSH2 0x2E8D JUMPI DUP3 PUSH1 0x0 PUSH2 0x2E91 JUMP JUMPDEST PUSH1 0x0 DUP4 JUMPDEST SWAP2 POP SWAP2 POP PUSH1 0x0 PUSH1 0x2 DUP11 MLOAD PUSH2 0x2EA5 SWAP2 SWAP1 PUSH2 0x3DEF JUMP JUMPDEST DUP9 LT PUSH2 0x2EB1 JUMPI DUP9 PUSH2 0x2EFF JUMP JUMPDEST PUSH2 0x2EFF PUSH32 0x0 DUP8 DUP13 PUSH2 0x2EE2 DUP13 PUSH1 0x2 PUSH2 0x40D2 JUMP JUMPDEST DUP2 MLOAD DUP2 LT PUSH2 0x2EF2 JUMPI PUSH2 0x2EF2 PUSH2 0x3E02 JUMP JUMPDEST PUSH1 0x20 MUL PUSH1 0x20 ADD ADD MLOAD PUSH2 0x2C2D JUMP JUMPDEST SWAP1 POP PUSH2 0x2F2C PUSH32 0x0 DUP9 DUP9 PUSH2 0x2C2D JUMP JUMPDEST PUSH1 0x1 PUSH1 0x1 PUSH1 0xA0 SHL SUB AND PUSH4 0x22C0D9F DUP5 DUP5 DUP5 PUSH1 0x0 PUSH1 0x40 MLOAD SWAP1 DUP1 DUP3 MSTORE DUP1 PUSH1 0x1F ADD PUSH1 0x1F NOT AND PUSH1 0x20 ADD DUP3 ADD PUSH1 0x40 MSTORE DUP1 ISZERO PUSH2 0x2F69 JUMPI PUSH1 0x20 DUP3 ADD DUP2 DUP1 CALLDATASIZE DUP4 CALLDATACOPY ADD SWAP1 POP JUMPDEST POP PUSH1 0x40 MLOAD DUP6 PUSH4 0xFFFFFFFF AND PUSH1 0xE0 SHL DUP2 MSTORE PUSH1 0x4 ADD PUSH2 0x2F89 SWAP5 SWAP4 SWAP3 SWAP2 SWAP1 PUSH2 0x40FE JUMP JUMPDEST PUSH1 0x0 PUSH1 0x40 MLOAD DUP1 DUP4 SUB DUP2 PUSH1 0x0 DUP8 DUP1 EXTCODESIZE ISZERO DUP1 ISZERO PUSH2 0x2FA3 JUMPI PUSH1 0x0 DUP1 REVERT JUMPDEST POP GAS CALL ISZERO DUP1 ISZERO PUSH2 0x2FB7 JUMPI RETURNDATASIZE PUSH1 0x0 DUP1 RETURNDATACOPY RETURNDATASIZE PUSH1 0x0 REVERT JUMPDEST POP POP POP POP POP POP POP POP POP POP POP DUP1 DUP1 PUSH2 0x2FCD SWAP1 PUSH2 0x40E5 JUMP JUMPDEST SWAP2 POP POP PUSH2 0x2DD6 JUMP JUMPDEST POP POP POP POP JUMP JUMPDEST PUSH1 0x60 PUSH1 0x2 DUP3 MLOAD LT ISZERO PUSH2 0x3028 JUMPI PUSH1 0x40 MLOAD PUSH3 0x461BCD PUSH1 0xE5 SHL DUP2 MSTORE PUSH1 0x20 PUSH1 0x4 DUP3 ADD MSTORE PUSH1 0x16 PUSH1 0x24 DUP3 ADD MSTORE PUSH22 0x9298D2C4E4C2E4F27440929CAC82989288BEA082A89 PUSH1 0x53 SHL PUSH1 0x44 DUP3 ADD MSTORE PUSH1 0x64 ADD PUSH2 0x558 JUMP JUMPDEST DUP2 MLOAD PUSH8 0xFFFFFFFFFFFFFFFF DUP2 GT ISZERO PUSH2 0x3042 JUMPI PUSH2 0x3042 PUSH2 0x3B4B JUMP JUMPDEST PUSH1 0x40 MLOAD SWAP1 DUP1 DUP3 MSTORE DUP1 PUSH1 0x20 MUL PUSH1 0x20 ADD DUP3 ADD PUSH1 0x40 MSTORE DUP1 ISZERO PUSH2 0x306B JUMPI DUP2 PUSH1 0x20 ADD PUSH1 0x20 DUP3 MUL DUP1 CALLDATASIZE DUP4 CALLDATACOPY ADD SWAP1 POP JUMPDEST POP SWAP1 POP DUP3 DUP2 PUSH1 0x1 DUP4 MLOAD PUSH2 0x307E SWAP2 SWAP1 PUSH2 0x3DEF JUMP JUMPDEST DUP2 MLOAD DUP2 LT PUSH2 0x308E JUMPI PUSH2 0x308E PUSH2 0x3E02 JUMP JUMPDEST PUSH1 0x20 MUL PUSH1 0x20 ADD ADD DUP2 DUP2 MSTORE POP POP PUSH1 0x0 PUSH1 0x1 DUP4 MLOAD PUSH2 0x30AA SWAP2 SWAP1 PUSH2 0x3DEF JUMP JUMPDEST SWAP1 POP JUMPDEST DUP1 ISZERO PUSH2 0x2C25 JUMPI PUSH1 0x0 DUP1 PUSH2 0x30F0 DUP8 DUP7 PUSH2 0x30C6 PUSH1 0x1 DUP8 PUSH2 0x3DEF JUMP JUMPDEST DUP2 MLOAD DUP2 LT PUSH2 0x30D6 JUMPI PUSH2 0x30D6 PUSH2 0x3E02 JUMP JUMPDEST PUSH1 0x20 MUL PUSH1 0x20 ADD ADD MLOAD DUP8 DUP7 DUP2 MLOAD DUP2 LT PUSH2 0x2BB3 JUMPI PUSH2 0x2BB3 PUSH2 0x3E02 JUMP JUMPDEST SWAP2 POP SWAP2 POP PUSH2 0x3118 DUP5 DUP5 DUP2 MLOAD DUP2 LT PUSH2 0x3109 JUMPI PUSH2 0x3109 PUSH2 0x3E02 JUMP JUMPDEST PUSH1 0x20 MUL PUSH1 0x20 ADD ADD MLOAD DUP4 DUP4 PUSH2 0x344A JUMP JUMPDEST DUP5 PUSH2 0x3124 PUSH1 0x1 DUP7 PUSH2 0x3DEF JUMP JUMPDEST DUP2 MLOAD DUP2 LT PUSH2 0x3134 JUMPI PUSH2 0x3134 PUSH2 0x3E02 JUMP JUMPDEST PUSH1 0x20 MUL PUSH1 0x20 ADD ADD DUP2 DUP2 MSTORE POP POP POP POP DUP1 DUP1 PUSH2 0x314D SWAP1 PUSH2 0x414E JUMP JUMPDEST SWAP2 POP POP PUSH2 0x30AD JUMP JUMPDEST PUSH1 0x0 JUMPDEST PUSH1 0x1 DUP4 MLOAD PUSH2 0x3166 SWAP2 SWAP1 PUSH2 0x3DEF JUMP JUMPDEST DUP2 LT ISZERO PUSH2 0x291F JUMPI PUSH1 0x0 DUP1 DUP5 DUP4 DUP2 MLOAD DUP2 LT PUSH2 0x3182 JUMPI PUSH2 0x3182 PUSH2 0x3E02 JUMP JUMPDEST PUSH1 0x20 MUL PUSH1 0x20 ADD ADD MLOAD DUP6 DUP5 PUSH1 0x1 PUSH2 0x3198 SWAP2 SWAP1 PUSH2 0x40D2 JUMP JUMPDEST DUP2 MLOAD DUP2 LT PUSH2 0x31A8 JUMPI PUSH2 0x31A8 PUSH2 0x3E02 JUMP JUMPDEST PUSH1 0x20 MUL PUSH1 0x20 ADD ADD MLOAD SWAP2 POP SWAP2 POP PUSH1 0x0 PUSH2 0x31C0 DUP4 DUP4 PUSH2 0x35AC JUMP JUMPDEST POP SWAP1 POP PUSH1 0x0 PUSH2 0x31F0 PUSH32 0x0 DUP6 DUP6 PUSH2 0x2C2D JUMP JUMPDEST SWAP1 POP PUSH1 0x0 DUP1 PUSH1 0x0 DUP1 DUP5 PUSH1 0x1 PUSH1 0x1 PUSH1 0xA0 SHL SUB AND PUSH4 0x902F1AC PUSH1 0x40 MLOAD DUP2 PUSH4 0xFFFFFFFF AND PUSH1 0xE0 SHL DUP2 MSTORE PUSH1 0x4 ADD PUSH1 0x60 PUSH1 0x40 MLOAD DUP1 DUP4 SUB DUP2 DUP7 GAS STATICCALL ISZERO DUP1 ISZERO PUSH2 0x3236 JUMPI RETURNDATASIZE PUSH1 0x0 DUP1 RETURNDATACOPY RETURNDATASIZE PUSH1 0x0 REVERT JUMPDEST POP POP POP POP PUSH1 0x40 MLOAD RETURNDATASIZE PUSH1 0x1F NOT PUSH1 0x1F DUP3 ADD AND DUP3 ADD DUP1 PUSH1 0x40 MSTORE POP DUP2 ADD SWAP1 PUSH2 0x325A SWAP2 SWAP1 PUSH2 0x417C JUMP JUMPDEST POP PUSH1 0x1 PUSH1 0x1 PUSH1 0x70 SHL SUB AND SWAP2 POP PUSH1 0x1 PUSH1 0x1 PUSH1 0x70 SHL SUB AND SWAP2 POP PUSH1 0x0 DUP1 DUP8 PUSH1 0x1 PUSH1 0x1 PUSH1 0xA0 SHL SUB AND DUP11 PUSH1 0x1 PUSH1 0x1 PUSH1 0xA0 SHL SUB AND EQ PUSH2 0x3294 JUMPI DUP3 DUP5 PUSH2 0x3297 JUMP JUMPDEST DUP4 DUP4 JUMPDEST PUSH1 0x40 MLOAD PUSH4 0x70A08231 PUSH1 0xE0 SHL DUP2 MSTORE PUSH1 0x1 PUSH1 0x1 PUSH1 0xA0 SHL SUB DUP11 DUP2 AND PUSH1 0x4 DUP4 ADD MSTORE SWAP3 SWAP5 POP SWAP1 SWAP3 POP PUSH2 0x32D2 SWAP2 DUP5 SWAP2 SWAP1 DUP14 AND SWAP1 PUSH4 0x70A08231 SWAP1 PUSH1 0x24 ADD PUSH2 0xEED JUMP JUMPDEST SWAP6 POP PUSH2 0x32DF DUP7 DUP4 DUP4 PUSH2 0x2924 JUMP JUMPDEST SWAP5 POP POP POP POP POP PUSH1 0x0 DUP1 DUP6 PUSH1 0x1 PUSH1 0x1 PUSH1 0xA0 SHL SUB AND DUP9 PUSH1 0x1 PUSH1 0x1 PUSH1 0xA0 SHL SUB AND EQ PUSH2 0x3309 JUMPI DUP3 PUSH1 0x0 PUSH2 0x330D JUMP JUMPDEST PUSH1 0x0 DUP4 JUMPDEST SWAP2 POP SWAP2 POP PUSH1 0x0 PUSH1 0x2 DUP13 MLOAD PUSH2 0x3321 SWAP2 SWAP1 PUSH2 0x3DEF JUMP JUMPDEST DUP11 LT PUSH2 0x332D JUMPI DUP11 PUSH2 0x335E JUMP JUMPDEST PUSH2 0x335E PUSH32 0x0 DUP10 DUP15 PUSH2 0x2EE2 DUP15 PUSH1 0x2 PUSH2 0x40D2 JUMP JUMPDEST PUSH1 0x40 DUP1 MLOAD PUSH1 0x0 DUP2 MSTORE PUSH1 0x20 DUP2 ADD SWAP2 DUP3 SWAP1 MSTORE PUSH4 0x22C0D9F PUSH1 0xE0 SHL SWAP1 SWAP2 MSTORE SWAP1 SWAP2 POP PUSH1 0x1 PUSH1 0x1 PUSH1 0xA0 SHL SUB DUP8 AND SWAP1 PUSH4 0x22C0D9F SWAP1 PUSH2 0x33A0 SWAP1 DUP7 SWAP1 DUP7 SWAP1 DUP7 SWAP1 PUSH1 0x24 DUP2 ADD PUSH2 0x40FE JUMP JUMPDEST PUSH1 0x0 PUSH1 0x40 MLOAD DUP1 DUP4 SUB DUP2 PUSH1 0x0 DUP8 DUP1 EXTCODESIZE ISZERO DUP1 ISZERO PUSH2 0x33BA JUMPI PUSH1 0x0 DUP1 REVERT JUMPDEST POP GAS CALL ISZERO DUP1 ISZERO PUSH2 0x33CE JUMPI RETURNDATASIZE PUSH1 0x0 DUP1 RETURNDATACOPY RETURNDATASIZE PUSH1 0x0 REVERT JUMPDEST POP POP POP POP POP POP POP POP POP POP POP POP POP DUP1 DUP1 PUSH2 0x33E6 SWAP1 PUSH2 0x40E5 JUMP JUMPDEST SWAP2 POP POP PUSH2 0x3158 JUMP JUMPDEST PUSH1 0x0 PUSH2 0x9DE DUP3 DUP5 PUSH2 0x3DEF JUMP JUMPDEST PUSH1 0x0 DUP1 SLOAD PUSH1 0x1 PUSH1 0x1 PUSH1 0xA0 SHL SUB DUP4 DUP2 AND PUSH1 0x1 PUSH1 0x1 PUSH1 0xA0 SHL SUB NOT DUP4 AND DUP2 OR DUP5 SSTORE PUSH1 0x40 MLOAD SWAP2 SWAP1 SWAP3 AND SWAP3 DUP4 SWAP2 PUSH32 0x8BE0079C531659141344CD1FD0A4F28419497F9722A3DAAFE3B4186F6B6457E0 SWAP2 SWAP1 LOG3 POP POP JUMP JUMPDEST PUSH1 0x0 DUP1 DUP5 GT PUSH2 0x34A7 JUMPI PUSH1 0x40 MLOAD PUSH3 0x461BCD PUSH1 0xE5 SHL DUP2 MSTORE PUSH1 0x20 PUSH1 0x4 DUP3 ADD MSTORE PUSH1 0x24 DUP1 DUP3 ADD MSTORE PUSH32 0x494C6962726172793A20494E53554646494349454E545F4F55545055545F414D PUSH1 0x44 DUP3 ADD MSTORE PUSH4 0x13D55395 PUSH1 0xE2 SHL PUSH1 0x64 DUP3 ADD MSTORE PUSH1 0x84 ADD PUSH2 0x558 JUMP JUMPDEST PUSH1 0x0 DUP4 GT DUP1 ISZERO PUSH2 0x34B7 JUMPI POP PUSH1 0x0 DUP3 GT JUMPDEST PUSH2 0x34D3 JUMPI PUSH1 0x40 MLOAD PUSH3 0x461BCD PUSH1 0xE5 SHL DUP2 MSTORE PUSH1 0x4 ADD PUSH2 0x558 SWAP1 PUSH2 0x405E JUMP JUMPDEST PUSH1 0x0 PUSH2 0x34EB PUSH2 0x2710 PUSH2 0x34E5 DUP7 DUP9 PUSH2 0x38B2 JUMP JUMPDEST SWAP1 PUSH2 0x38B2 JUMP JUMPDEST SWAP1 POP PUSH1 0x0 PUSH2 0x34FF PUSH2 0x26F7 PUSH2 0x34E5 DUP7 DUP10 PUSH2 0x33EE JUMP JUMPDEST SWAP1 POP PUSH2 0x3510 PUSH1 0x1 PUSH2 0x29DD DUP4 DUP6 PUSH2 0x4093 JUMP JUMPDEST SWAP7 SWAP6 POP POP POP POP POP POP JUMP JUMPDEST PUSH1 0x0 DUP1 DUP5 GT PUSH2 0x356B JUMPI PUSH1 0x40 MLOAD PUSH3 0x461BCD PUSH1 0xE5 SHL DUP2 MSTORE PUSH1 0x20 PUSH1 0x4 DUP3 ADD MSTORE PUSH1 0x1D PUSH1 0x24 DUP3 ADD MSTORE PUSH32 0x494C6962726172793A20494E53554646494349454E545F414D4F554E54000000 PUSH1 0x44 DUP3 ADD MSTORE PUSH1 0x64 ADD PUSH2 0x558 JUMP JUMPDEST PUSH1 0x0 DUP4 GT DUP1 ISZERO PUSH2 0x357B JUMPI POP PUSH1 0x0 DUP3 GT JUMPDEST PUSH2 0x3597 JUMPI PUSH1 0x40 MLOAD PUSH3 0x461BCD PUSH1 0xE5 SHL DUP2 MSTORE PUSH1 0x4 ADD PUSH2 0x558 SWAP1 PUSH2 0x405E JUMP JUMPDEST DUP3 PUSH2 0x35A2 DUP6 DUP5 PUSH2 0x38B2 JUMP JUMPDEST PUSH2 0x63D SWAP2 SWAP1 PUSH2 0x4093 JUMP JUMPDEST PUSH1 0x0 DUP1 DUP3 PUSH1 0x1 PUSH1 0x1 PUSH1 0xA0 SHL SUB AND DUP5 PUSH1 0x1 PUSH1 0x1 PUSH1 0xA0 SHL SUB AND SUB PUSH2 0x3610 JUMPI PUSH1 0x40 MLOAD PUSH3 0x461BCD PUSH1 0xE5 SHL DUP2 MSTORE PUSH1 0x20 PUSH1 0x4 DUP3 ADD MSTORE PUSH1 0x1D PUSH1 0x24 DUP3 ADD MSTORE PUSH32 0x494C6962726172793A204944454E544943414C5F414444524553534553000000 PUSH1 0x44 DUP3 ADD MSTORE PUSH1 0x64 ADD PUSH2 0x558 JUMP JUMPDEST DUP3 PUSH1 0x1 PUSH1 0x1 PUSH1 0xA0 SHL SUB AND DUP5 PUSH1 0x1 PUSH1 0x1 PUSH1 0xA0 SHL SUB AND LT PUSH2 0x3630 JUMPI DUP3 DUP5 PUSH2 0x3633 JUMP JUMPDEST DUP4 DUP4 JUMPDEST SWAP1 SWAP3 POP SWAP1 POP PUSH1 0x1 PUSH1 0x1 PUSH1 0xA0 SHL SUB DUP3 AND PUSH2 0x3687 JUMPI PUSH1 0x40 MLOAD PUSH3 0x461BCD PUSH1 0xE5 SHL DUP2 MSTORE PUSH1 0x20 PUSH1 0x4 DUP3 ADD MSTORE PUSH1 0x16 PUSH1 0x24 DUP3 ADD MSTORE PUSH22 0x494C6962726172793A205A45524F5F41444452455353 PUSH1 0x50 SHL PUSH1 0x44 DUP3 ADD MSTORE PUSH1 0x64 ADD PUSH2 0x558 JUMP JUMPDEST SWAP3 POP SWAP3 SWAP1 POP JUMP JUMPDEST PUSH1 0x40 MLOAD PUSH4 0xE6A43905 PUSH1 0xE0 SHL DUP2 MSTORE PUSH1 0x1 PUSH1 0x1 PUSH1 0xA0 SHL SUB DUP8 DUP2 AND PUSH1 0x4 DUP4 ADD MSTORE DUP7 DUP2 AND PUSH1 0x24 DUP4 ADD MSTORE PUSH1 0x0 SWAP2 DUP3 SWAP2 DUP3 SWAP2 PUSH32 0x0 SWAP1 SWAP2 AND SWAP1 PUSH4 0xE6A43905 SWAP1 PUSH1 0x44 ADD PUSH1 0x20 PUSH1 0x40 MLOAD DUP1 DUP4 SUB DUP2 DUP7 GAS STATICCALL ISZERO DUP1 ISZERO PUSH2 0x3705 JUMPI RETURNDATASIZE PUSH1 0x0 DUP1 RETURNDATACOPY RETURNDATASIZE PUSH1 0x0 REVERT JUMPDEST POP POP POP POP PUSH1 0x40 MLOAD RETURNDATASIZE PUSH1 0x1F NOT PUSH1 0x1F DUP3 ADD AND DUP3 ADD DUP1 PUSH1 0x40 MSTORE POP DUP2 ADD SWAP1 PUSH2 0x3729 SWAP2 SWAP1 PUSH2 0x40B5 JUMP JUMPDEST PUSH1 0x1 PUSH1 0x1 PUSH1 0xA0 SHL SUB AND SUB PUSH2 0x37CD JUMPI PUSH1 0x40 MLOAD PUSH4 0x64E329CB PUSH1 0xE1 SHL DUP2 MSTORE PUSH1 0x1 PUSH1 0x1 PUSH1 0xA0 SHL SUB DUP10 DUP2 AND PUSH1 0x4 DUP4 ADD MSTORE DUP9 DUP2 AND PUSH1 0x24 DUP4 ADD MSTORE PUSH32 0x0 AND SWAP1 PUSH4 0xC9C65396 SWAP1 PUSH1 0x44 ADD PUSH1 0x20 PUSH1 0x40 MLOAD DUP1 DUP4 SUB DUP2 PUSH1 0x0 DUP8 GAS CALL ISZERO DUP1 ISZERO PUSH2 0x37A7 JUMPI RETURNDATASIZE PUSH1 0x0 DUP1 RETURNDATACOPY RETURNDATASIZE PUSH1 0x0 REVERT JUMPDEST POP POP POP POP PUSH1 0x40 MLOAD RETURNDATASIZE PUSH1 0x1F NOT PUSH1 0x1F DUP3 ADD AND DUP3 ADD DUP1 PUSH1 0x40 MSTORE POP DUP2 ADD SWAP1 PUSH2 0x37CB SWAP2 SWAP1 PUSH2 0x40B5 JUMP JUMPDEST POP JUMPDEST PUSH1 0x0 DUP1 PUSH2 0x37FB PUSH32 0x0 DUP12 DUP12 PUSH2 0x38CA JUMP JUMPDEST SWAP2 POP SWAP2 POP DUP2 PUSH1 0x0 EQ DUP1 ISZERO PUSH2 0x380D JUMPI POP DUP1 ISZERO JUMPDEST ISZERO PUSH2 0x381D JUMPI DUP8 SWAP4 POP DUP7 SWAP3 POP PUSH2 0x38A5 JUMP JUMPDEST PUSH1 0x0 PUSH2 0x382A DUP10 DUP5 DUP5 PUSH2 0x351A JUMP JUMPDEST SWAP1 POP DUP8 DUP2 GT PUSH2 0x385E JUMPI DUP6 DUP2 LT ISZERO PUSH2 0x3853 JUMPI PUSH1 0x40 MLOAD PUSH3 0x461BCD PUSH1 0xE5 SHL DUP2 MSTORE PUSH1 0x4 ADD PUSH2 0x558 SWAP1 PUSH2 0x3FDC JUMP JUMPDEST DUP9 SWAP5 POP SWAP3 POP DUP3 PUSH2 0x38A3 JUMP JUMPDEST PUSH1 0x0 PUSH2 0x386B DUP10 DUP5 DUP7 PUSH2 0x351A JUMP JUMPDEST SWAP1 POP DUP10 DUP2 GT ISZERO PUSH2 0x387D JUMPI PUSH2 0x387D PUSH2 0x3F60 JUMP JUMPDEST DUP8 DUP2 LT ISZERO PUSH2 0x389D JUMPI PUSH1 0x40 MLOAD PUSH3 0x461BCD PUSH1 0xE5 SHL DUP2 MSTORE PUSH1 0x4 ADD PUSH2 0x558 SWAP1 PUSH2 0x3F9A JUMP JUMPDEST SWAP5 POP DUP8 SWAP4 POP JUMPDEST POP JUMPDEST POP POP SWAP7 POP SWAP7 SWAP5 POP POP POP POP POP JUMP JUMPDEST PUSH1 0x0 PUSH2 0x9DE DUP3 DUP5 PUSH2 0x3F27 JUMP JUMPDEST PUSH1 0x0 PUSH2 0x9DE DUP3 DUP5 PUSH2 0x40D2 JUMP JUMPDEST PUSH1 0x0 DUP1 PUSH1 0x0 PUSH2 0x38D9 DUP6 DUP6 PUSH2 0x35AC JUMP JUMPDEST POP SWAP1 POP PUSH2 0x38E7 DUP7 DUP7 DUP7 PUSH2 0x2C2D JUMP JUMPDEST POP PUSH1 0x0 DUP1 PUSH2 0x38F6 DUP9 DUP9 DUP9 PUSH2 0x2C2D JUMP JUMPDEST PUSH1 0x1 PUSH1 0x1 PUSH1 0xA0 SHL SUB AND PUSH4 0x902F1AC PUSH1 0x40 MLOAD DUP2 PUSH4 0xFFFFFFFF AND PUSH1 0xE0 SHL DUP2 MSTORE PUSH1 0x4 ADD PUSH1 0x60 PUSH1 0x40 MLOAD DUP1 DUP4 SUB DUP2 DUP7 GAS STATICCALL ISZERO DUP1 ISZERO PUSH2 0x3933 JUMPI RETURNDATASIZE PUSH1 0x0 DUP1 RETURNDATACOPY RETURNDATASIZE PUSH1 0x0 REVERT JUMPDEST POP POP POP POP PUSH1 0x40 MLOAD RETURNDATASIZE PUSH1 0x1F NOT PUSH1 0x1F DUP3 ADD AND DUP3 ADD DUP1 PUSH1 0x40 MSTORE POP DUP2 ADD SWAP1 PUSH2 0x3957 SWAP2 SWAP1 PUSH2 0x417C JUMP JUMPDEST POP PUSH1 0x1 PUSH1 0x1 PUSH1 0x70 SHL SUB AND SWAP2 POP PUSH1 0x1 PUSH1 0x1 PUSH1 0x70 SHL SUB AND SWAP2 POP DUP3 PUSH1 0x1 PUSH1 0x1 PUSH1 0xA0 SHL SUB AND DUP8 PUSH1 0x1 PUSH1 0x1 PUSH1 0xA0 SHL SUB AND EQ PUSH2 0x398E JUMPI DUP1 DUP3 PUSH2 0x3991 JUMP JUMPDEST DUP2 DUP2 JUMPDEST SWAP1 SWAP10 SWAP1 SWAP9 POP SWAP7 POP POP POP POP POP POP POP JUMP JUMPDEST PUSH1 0x1 PUSH1 0x1 PUSH1 0xA0 SHL SUB DUP2 AND DUP2 EQ PUSH2 0x1F47 JUMPI PUSH1 0x0 DUP1 REVERT JUMPDEST DUP1 CALLDATALOAD PUSH2 0x39C0 DUP2 PUSH2 0x39A0 JUMP JUMPDEST SWAP2 SWAP1 POP JUMP JUMPDEST PUSH1 0x0 DUP1 PUSH1 0x0 DUP1 PUSH1 0x0 DUP1 PUSH1 0xC0 DUP8 DUP10 SUB SLT ISZERO PUSH2 0x39DE JUMPI PUSH1 0x0 DUP1 REVERT JUMPDEST DUP7 CALLDATALOAD PUSH2 0x39E9 DUP2 PUSH2 0x39A0 JUMP JUMPDEST SWAP6 POP PUSH1 0x20 DUP8 ADD CALLDATALOAD SWAP5 POP PUSH1 0x40 DUP8 ADD CALLDATALOAD SWAP4 POP PUSH1 0x60 DUP8 ADD CALLDATALOAD SWAP3 POP PUSH1 0x80 DUP8 ADD CALLDATALOAD PUSH2 0x3A0E DUP2 PUSH2 0x39A0 JUMP JUMPDEST DUP1 SWAP3 POP POP PUSH1 0xA0 DUP8 ADD CALLDATALOAD SWAP1 POP SWAP3 SWAP6 POP SWAP3 SWAP6 POP SWAP3 SWAP6 JUMP JUMPDEST PUSH1 0x0 DUP1 PUSH1 0x0 PUSH1 0x60 DUP5 DUP7 SUB SLT ISZERO PUSH2 0x3A38 JUMPI PUSH1 0x0 DUP1 REVERT JUMPDEST POP POP DUP2 CALLDATALOAD SWAP4 PUSH1 0x20 DUP4 ADD CALLDATALOAD SWAP4 POP PUSH1 0x40 SWAP1 SWAP3 ADD CALLDATALOAD SWAP2 SWAP1 POP JUMP JUMPDEST PUSH1 0x0 DUP1 DUP4 PUSH1 0x1F DUP5 ADD SLT PUSH2 0x3A61 JUMPI PUSH1 0x0 DUP1 REVERT JUMPDEST POP DUP2 CALLDATALOAD PUSH8 0xFFFFFFFFFFFFFFFF DUP2 GT ISZERO PUSH2 0x3A79 JUMPI PUSH1 0x0 DUP1 REVERT JUMPDEST PUSH1 0x20 DUP4 ADD SWAP2 POP DUP4 PUSH1 0x20 DUP3 PUSH1 0x5 SHL DUP6 ADD ADD GT ISZERO PUSH2 0x3687 JUMPI PUSH1 0x0 DUP1 REVERT JUMPDEST PUSH1 0x0 DUP1 PUSH1 0x0 DUP1 PUSH1 0x0 DUP1 PUSH1 0xA0 DUP8 DUP10 SUB SLT ISZERO PUSH2 0x3AAD JUMPI PUSH1 0x0 DUP1 REVERT JUMPDEST DUP7 CALLDATALOAD SWAP6 POP PUSH1 0x20 DUP8 ADD CALLDATALOAD SWAP5 POP PUSH1 0x40 DUP8 ADD CALLDATALOAD PUSH8 0xFFFFFFFFFFFFFFFF DUP2 GT ISZERO PUSH2 0x3AD2 JUMPI PUSH1 0x0 DUP1 REVERT JUMPDEST PUSH2 0x3ADE DUP10 DUP3 DUP11 ADD PUSH2 0x3A4F JUMP JUMPDEST SWAP1 SWAP6 POP SWAP4 POP POP PUSH1 0x60 DUP8 ADD CALLDATALOAD PUSH2 0x3AF2 DUP2 PUSH2 0x39A0 JUMP JUMPDEST DUP1 SWAP3 POP POP PUSH1 0x80 DUP8 ADD CALLDATALOAD SWAP1 POP SWAP3 SWAP6 POP SWAP3 SWAP6 POP SWAP3 SWAP6 JUMP JUMPDEST PUSH1 0x20 DUP1 DUP3 MSTORE DUP3 MLOAD DUP3 DUP3 ADD DUP2 SWAP1 MSTORE PUSH1 0x0 SWAP2 SWAP1 DUP5 DUP3 ADD SWAP1 PUSH1 0x40 DUP6 ADD SWAP1 DUP5 JUMPDEST DUP2 DUP2 LT ISZERO PUSH2 0x3B3F JUMPI DUP4 MLOAD DUP4 MSTORE SWAP3 DUP5 ADD SWAP3 SWAP2 DUP5 ADD SWAP2 PUSH1 0x1 ADD PUSH2 0x3B23 JUMP JUMPDEST POP SWAP1 SWAP7 SWAP6 POP POP POP POP POP POP JUMP JUMPDEST PUSH4 0x4E487B71 PUSH1 0xE0 SHL PUSH1 0x0 MSTORE PUSH1 0x41 PUSH1 0x4 MSTORE PUSH1 0x24 PUSH1 0x0 REVERT JUMPDEST PUSH1 0x0 DUP1 PUSH1 0x40 DUP4 DUP6 SUB SLT ISZERO PUSH2 0x3B74 JUMPI PUSH1 0x0 DUP1 REVERT JUMPDEST DUP3 CALLDATALOAD SWAP2 POP PUSH1 0x20 DUP1 DUP5 ADD CALLDATALOAD PUSH8 0xFFFFFFFFFFFFFFFF DUP1 DUP3 GT ISZERO PUSH2 0x3B94 JUMPI PUSH1 0x0 DUP1 REVERT JUMPDEST DUP2 DUP7 ADD SWAP2 POP DUP7 PUSH1 0x1F DUP4 ADD SLT PUSH2 0x3BA8 JUMPI PUSH1 0x0 DUP1 REVERT JUMPDEST DUP2 CALLDATALOAD DUP2 DUP2 GT ISZERO PUSH2 0x3BBA JUMPI PUSH2 0x3BBA PUSH2 0x3B4B JUMP JUMPDEST DUP1 PUSH1 0x5 SHL PUSH1 0x40 MLOAD PUSH1 0x1F NOT PUSH1 0x3F DUP4 ADD AND DUP2 ADD DUP2 DUP2 LT DUP6 DUP3 GT OR ISZERO PUSH2 0x3BDF JUMPI PUSH2 0x3BDF PUSH2 0x3B4B JUMP JUMPDEST PUSH1 0x40 MSTORE SWAP2 DUP3 MSTORE DUP5 DUP3 ADD SWAP3 POP DUP4 DUP2 ADD DUP6 ADD SWAP2 DUP10 DUP4 GT ISZERO PUSH2 0x3BFD JUMPI PUSH1 0x0 DUP1 REVERT JUMPDEST SWAP4 DUP6 ADD SWAP4 JUMPDEST DUP3 DUP6 LT ISZERO PUSH2 0x3C22 JUMPI PUSH2 0x3C13 DUP6 PUSH2 0x39B5 JUMP JUMPDEST DUP5 MSTORE SWAP4 DUP6 ADD SWAP4 SWAP3 DUP6 ADD SWAP3 PUSH2 0x3C02 JUMP JUMPDEST DUP1 SWAP7 POP POP POP POP POP POP POP SWAP3 POP SWAP3 SWAP1 POP JUMP JUMPDEST PUSH1 0x0 DUP1 PUSH1 0x0 DUP1 PUSH1 0x0 PUSH1 0x80 DUP7 DUP9 SUB SLT ISZERO PUSH2 0x3C4A JUMPI PUSH1 0x0 DUP1 REVERT JUMPDEST DUP6 CALLDATALOAD SWAP5 POP PUSH1 0x20 DUP7 ADD CALLDATALOAD PUSH8 0xFFFFFFFFFFFFFFFF DUP2 GT ISZERO PUSH2 0x3C68 JUMPI PUSH1 0x0 DUP1 REVERT JUMPDEST PUSH2 0x3C74 DUP9 DUP3 DUP10 ADD PUSH2 0x3A4F JUMP JUMPDEST SWAP1 SWAP6 POP SWAP4 POP POP PUSH1 0x40 DUP7 ADD CALLDATALOAD PUSH2 0x3C88 DUP2 PUSH2 0x39A0 JUMP JUMPDEST SWAP5 SWAP8 SWAP4 SWAP7 POP SWAP2 SWAP5 PUSH1 0x60 ADD CALLDATALOAD SWAP3 SWAP2 POP POP JUMP JUMPDEST PUSH1 0x0 PUSH1 0x20 DUP3 DUP5 SUB SLT ISZERO PUSH2 0x3CAB JUMPI PUSH1 0x0 DUP1 REVERT JUMPDEST DUP2 CALLDATALOAD PUSH2 0x3CB6 DUP2 PUSH2 0x39A0 JUMP JUMPDEST SWAP4 SWAP3 POP POP POP JUMP JUMPDEST PUSH1 0x0 DUP1 PUSH1 0x0 DUP1 PUSH1 0x0 DUP1 PUSH1 0x0 PUSH1 0xE0 DUP9 DUP11 SUB SLT ISZERO PUSH2 0x3CD8 JUMPI PUSH1 0x0 DUP1 REVERT JUMPDEST DUP8 CALLDATALOAD PUSH2 0x3CE3 DUP2 PUSH2 0x39A0 JUMP JUMPDEST SWAP7 POP PUSH1 0x20 DUP9 ADD CALLDATALOAD PUSH2 0x3CF3 DUP2 PUSH2 0x39A0 JUMP JUMPDEST SWAP6 POP PUSH1 0x40 DUP9 ADD CALLDATALOAD SWAP5 POP PUSH1 0x60 DUP9 ADD CALLDATALOAD SWAP4 POP PUSH1 0x80 DUP9 ADD CALLDATALOAD SWAP3 POP PUSH1 0xA0 DUP9 ADD CALLDATALOAD PUSH2 0x3D18 DUP2 PUSH2 0x39A0 JUMP JUMPDEST DUP1 SWAP3 POP POP PUSH1 0xC0 DUP9 ADD CALLDATALOAD SWAP1 POP SWAP3 SWAP6 SWAP9 SWAP2 SWAP5 SWAP8 POP SWAP3 SWAP6 POP JUMP JUMPDEST PUSH1 0x0 DUP1 PUSH1 0x0 DUP1 PUSH1 0x0 DUP1 PUSH1 0x0 DUP1 PUSH2 0x100 DUP10 DUP12 SUB SLT ISZERO PUSH2 0x3D4C JUMPI PUSH1 0x0 DUP1 REVERT JUMPDEST DUP9 CALLDATALOAD PUSH2 0x3D57 DUP2 PUSH2 0x39A0 JUMP JUMPDEST SWAP8 POP PUSH1 0x20 DUP10 ADD CALLDATALOAD PUSH2 0x3D67 DUP2 PUSH2 0x39A0 JUMP JUMPDEST SWAP7 POP PUSH1 0x40 DUP10 ADD CALLDATALOAD SWAP6 POP PUSH1 0x60 DUP10 ADD CALLDATALOAD SWAP5 POP PUSH1 0x80 DUP10 ADD CALLDATALOAD SWAP4 POP PUSH1 0xA0 DUP10 ADD CALLDATALOAD SWAP3 POP PUSH1 0xC0 DUP10 ADD CALLDATALOAD PUSH2 0x3D93 DUP2 PUSH2 0x39A0 JUMP JUMPDEST DUP1 SWAP3 POP POP PUSH1 0xE0 DUP10 ADD CALLDATALOAD SWAP1 POP SWAP3 SWAP6 SWAP9 POP SWAP3 SWAP6 SWAP9 SWAP1 SWAP4 SWAP7 POP JUMP JUMPDEST PUSH1 0x20 DUP1 DUP3 MSTORE PUSH1 0x14 SWAP1 DUP3 ADD MSTORE PUSH20 0x13505494D7D49BDD5D195C8E8811561412549151 PUSH1 0x62 SHL PUSH1 0x40 DUP3 ADD MSTORE PUSH1 0x60 ADD SWAP1 JUMP JUMPDEST PUSH4 0x4E487B71 PUSH1 0xE0 SHL PUSH1 0x0 MSTORE PUSH1 0x11 PUSH1 0x4 MSTORE PUSH1 0x24 PUSH1 0x0 REVERT JUMPDEST DUP2 DUP2 SUB DUP2 DUP2 GT ISZERO PUSH2 0x9E1 JUMPI PUSH2 0x9E1 PUSH2 0x3DD9 JUMP JUMPDEST PUSH4 0x4E487B71 PUSH1 0xE0 SHL PUSH1 0x0 MSTORE PUSH1 0x32 PUSH1 0x4 MSTORE PUSH1 0x24 PUSH1 0x0 REVERT JUMPDEST PUSH1 0x20 DUP1 DUP3 MSTORE PUSH1 0x19 SWAP1 DUP3 ADD MSTORE PUSH32 0x4D4152535F526F757465723A20494E56414C49445F5041544800000000000000 PUSH1 0x40 DUP3 ADD MSTORE PUSH1 0x60 ADD SWAP1 JUMP JUMPDEST PUSH1 0x20 DUP1 DUP3 MSTORE PUSH1 0x27 SWAP1 DUP3 ADD MSTORE PUSH32 0x4D4152535F526F757465723A20494E53554646494349454E545F4F5554505554 PUSH1 0x40 DUP3 ADD MSTORE PUSH7 0x17D05353D55395 PUSH1 0xCA SHL PUSH1 0x60 DUP3 ADD MSTORE PUSH1 0x80 ADD SWAP1 JUMP JUMPDEST PUSH1 0x20 DUP1 DUP3 MSTORE PUSH1 0x23 SWAP1 DUP3 ADD MSTORE PUSH32 0x4D4152535F526F757465723A204558434553534956455F494E5055545F414D4F PUSH1 0x40 DUP3 ADD MSTORE PUSH3 0x155395 PUSH1 0xEA SHL PUSH1 0x60 DUP3 ADD MSTORE PUSH1 0x80 ADD SWAP1 JUMP JUMPDEST PUSH1 0x0 PUSH1 0x20 DUP3 DUP5 SUB SLT ISZERO PUSH2 0x3EEB JUMPI PUSH1 0x0 DUP1 REVERT JUMPDEST POP MLOAD SWAP2 SWAP1 POP JUMP JUMPDEST PUSH1 0x20 DUP1 DUP3 MSTORE DUP2 DUP2 ADD MSTORE PUSH32 0x4F776E61626C653A2063616C6C6572206973206E6F7420746865206F776E6572 PUSH1 0x40 DUP3 ADD MSTORE PUSH1 0x60 ADD SWAP1 JUMP JUMPDEST DUP1 DUP3 MUL DUP2 ISZERO DUP3 DUP3 DIV DUP5 EQ OR PUSH2 0x9E1 JUMPI PUSH2 0x9E1 PUSH2 0x3DD9 JUMP JUMPDEST PUSH1 0x0 PUSH1 0x20 DUP3 DUP5 SUB SLT ISZERO PUSH2 0x3F50 JUMPI PUSH1 0x0 DUP1 REVERT JUMPDEST DUP2 MLOAD DUP1 ISZERO ISZERO DUP2 EQ PUSH2 0x3CB6 JUMPI PUSH1 0x0 DUP1 REVERT JUMPDEST PUSH4 0x4E487B71 PUSH1 0xE0 SHL PUSH1 0x0 MSTORE PUSH1 0x1 PUSH1 0x4 MSTORE PUSH1 0x24 PUSH1 0x0 REVERT JUMPDEST PUSH1 0x0 DUP1 PUSH1 0x40 DUP4 DUP6 SUB SLT ISZERO PUSH2 0x3F89 JUMPI PUSH1 0x0 DUP1 REVERT JUMPDEST POP POP DUP1 MLOAD PUSH1 0x20 SWAP1 SWAP2 ADD MLOAD SWAP1 SWAP3 SWAP1 SWAP2 POP JUMP JUMPDEST PUSH1 0x20 DUP1 DUP3 MSTORE PUSH1 0x22 SWAP1 DUP3 ADD MSTORE PUSH32 0x4D4152535F526F757465723A20494E53554646494349454E545F415F414D4F55 PUSH1 0x40 DUP3 ADD MSTORE PUSH2 0x1395 PUSH1 0xF2 SHL PUSH1 0x60 DUP3 ADD MSTORE PUSH1 0x80 ADD SWAP1 JUMP JUMPDEST PUSH1 0x20 DUP1 DUP3 MSTORE PUSH1 0x22 SWAP1 DUP3 ADD MSTORE PUSH32 0x4D4152535F526F757465723A20494E53554646494349454E545F425F414D4F55 PUSH1 0x40 DUP3 ADD MSTORE PUSH2 0x1395 PUSH1 0xF2 SHL PUSH1 0x60 DUP3 ADD MSTORE PUSH1 0x80 ADD SWAP1 JUMP JUMPDEST PUSH1 0x0 JUMPDEST DUP4 DUP2 LT ISZERO PUSH2 0x4039 JUMPI DUP2 DUP2 ADD MLOAD DUP4 DUP3 ADD MSTORE PUSH1 0x20 ADD PUSH2 0x4021 JUMP JUMPDEST POP POP PUSH1 0x0 SWAP2 ADD MSTORE JUMP JUMPDEST PUSH1 0x0 DUP3 MLOAD PUSH2 0x4054 DUP2 DUP5 PUSH1 0x20 DUP8 ADD PUSH2 0x401E JUMP JUMPDEST SWAP2 SWAP1 SWAP2 ADD SWAP3 SWAP2 POP POP JUMP JUMPDEST PUSH1 0x20 DUP1 DUP3 MSTORE DUP2 DUP2 ADD MSTORE PUSH32 0x494C6962726172793A20494E53554646494349454E545F4C4951554944495459 PUSH1 0x40 DUP3 ADD MSTORE PUSH1 0x60 ADD SWAP1 JUMP JUMPDEST PUSH1 0x0 DUP3 PUSH2 0x40B0 JUMPI PUSH4 0x4E487B71 PUSH1 0xE0 SHL PUSH1 0x0 MSTORE PUSH1 0x12 PUSH1 0x4 MSTORE PUSH1 0x24 PUSH1 0x0 REVERT JUMPDEST POP DIV SWAP1 JUMP JUMPDEST PUSH1 0x0 PUSH1 0x20 DUP3 DUP5 SUB SLT ISZERO PUSH2 0x40C7 JUMPI PUSH1 0x0 DUP1 REVERT JUMPDEST DUP2 MLOAD PUSH2 0x3CB6 DUP2 PUSH2 0x39A0 JUMP JUMPDEST DUP1 DUP3 ADD DUP1 DUP3 GT ISZERO PUSH2 0x9E1 JUMPI PUSH2 0x9E1 PUSH2 0x3DD9 JUMP JUMPDEST PUSH1 0x0 PUSH1 0x1 DUP3 ADD PUSH2 0x40F7 JUMPI PUSH2 0x40F7 PUSH2 0x3DD9 JUMP JUMPDEST POP PUSH1 0x1 ADD SWAP1 JUMP JUMPDEST DUP5 DUP2 MSTORE DUP4 PUSH1 0x20 DUP3 ADD MSTORE PUSH1 0x1 DUP1 PUSH1 0xA0 SHL SUB DUP4 AND PUSH1 0x40 DUP3 ADD MSTORE PUSH1 0x80 PUSH1 0x60 DUP3 ADD MSTORE PUSH1 0x0 DUP3 MLOAD DUP1 PUSH1 0x80 DUP5 ADD MSTORE PUSH2 0x4137 DUP2 PUSH1 0xA0 DUP6 ADD PUSH1 0x20 DUP8 ADD PUSH2 0x401E JUMP JUMPDEST PUSH1 0x1F ADD PUSH1 0x1F NOT AND SWAP2 SWAP1 SWAP2 ADD PUSH1 0xA0 ADD SWAP6 SWAP5 POP POP POP POP POP JUMP JUMPDEST PUSH1 0x0 DUP2 PUSH2 0x415D JUMPI PUSH2 0x415D PUSH2 0x3DD9 JUMP JUMPDEST POP PUSH1 0x0 NOT ADD SWAP1 JUMP JUMPDEST DUP1 MLOAD PUSH1 0x1 PUSH1 0x1 PUSH1 0x70 SHL SUB DUP2 AND DUP2 EQ PUSH2 0x39C0 JUMPI PUSH1 0x0 DUP1 REVERT JUMPDEST PUSH1 0x0 DUP1 PUSH1 0x0 PUSH1 0x60 DUP5 DUP7 SUB SLT ISZERO PUSH2 0x4191 JUMPI PUSH1 0x0 DUP1 REVERT JUMPDEST PUSH2 0x419A DUP5 PUSH2 0x4165 JUMP JUMPDEST SWAP3 POP PUSH2 0x41A8 PUSH1 0x20 DUP6 ADD PUSH2 0x4165 JUMP JUMPDEST SWAP2 POP PUSH1 0x40 DUP5 ADD MLOAD PUSH4 0xFFFFFFFF DUP2 AND DUP2 EQ PUSH2 0x41C1 JUMPI PUSH1 0x0 DUP1 REVERT JUMPDEST DUP1 SWAP2 POP POP SWAP3 POP SWAP3 POP SWAP3 JUMP INVALID LOG2 PUSH5 0x6970667358 0x22 SLT KECCAK256 CALLER 0xE6 0xEC 0xB4 0xC8 0xD8 0xED MSTORE BALANCE SWAP2 AND MLOAD 0xD0 0xAF REVERT MLOAD DUP15 0x2D PUSH18 0x10B16382FC6110FAD7B576027664736F6C63 NUMBER STOP ADDMOD SLT STOP CALLER "
		},
		"gasEstimates": {
			"creation": {
				"codeDepositCost": "3379600",
				"executionCost": "infinite",
				"totalCost": "infinite"
			},
			"external": {
				"WETH()": "infinite",
				"addLiquidity(address,address,uint256,uint256,uint256,uint256,address,uint256)": "infinite",
				"addLiquidityETH(address,uint256,uint256,uint256,address,uint256)": "infinite",
				"factory()": "infinite",
				"getAmountIn(uint256,uint256,uint256)": "infinite",
				"getAmountOut(uint256,uint256,uint256)": "infinite",
				"getAmountsIn(uint256,address[])": "infinite",
				"getAmountsOut(uint256,address[])": "infinite",
				"marsFactory()": "2405",
				"owner()": "2442",
				"quote(uint256,uint256,uint256)": "infinite",
				"removeLiquidity(address,address,uint256,uint256,uint256,address,uint256)": "infinite",
				"removeLiquidityETH(address,uint256,uint256,uint256,address,uint256)": "infinite",
				"removeLiquidityETHSupportingFeeOnTransferTokens(address,uint256,uint256,uint256,address,uint256)": "infinite",
				"renounceOwnership()": "28182",
				"swapETHForExactTokens(uint256,address[],address,uint256)": "infinite",
				"swapExactETHForTokens(uint256,address[],address,uint256)": "infinite",
				"swapExactETHForTokensSupportingFeeOnTransferTokens(uint256,address[],address,uint256)": "infinite",
				"swapExactTokensForETH(uint256,uint256,address[],address,uint256)": "infinite",
				"swapExactTokensForETHSupportingFeeOnTransferTokens(uint256,uint256,address[],address,uint256)": "infinite",
				"swapExactTokensForTokens(uint256,uint256,address[],address,uint256)": "infinite",
				"swapExactTokensForTokensSupportingFeeOnTransferTokens(uint256,uint256,address[],address,uint256)": "infinite",
				"swapTokensForExactETH(uint256,uint256,address[],address,uint256)": "infinite",
				"swapTokensForExactTokens(uint256,uint256,address[],address,uint256)": "infinite",
				"transferOwnership(address)": "infinite",
				"txFee()": "infinite",
				"withdawlBNB()": "infinite",
				"withdrawlToken(address)": "infinite"
			},
			"internal": {
				"_addLiquidity(address,address,uint256,uint256,uint256,uint256)": "infinite",
				"_chargeRouterFee(address[] memory)": "infinite",
				"_swap(uint256[] memory,address[] memory,address)": "infinite",
				"_swapSupportingFeeOnTransferTokens(address[] memory,address)": "infinite"
			}
		},
		"methodIdentifiers": {
			"WETH()": "ad5c4648",
			"addLiquidity(address,address,uint256,uint256,uint256,uint256,address,uint256)": "e8e33700",
			"addLiquidityETH(address,uint256,uint256,uint256,address,uint256)": "f305d719",
			"factory()": "c45a0155",
			"getAmountIn(uint256,uint256,uint256)": "85f8c259",
			"getAmountOut(uint256,uint256,uint256)": "054d50d4",
			"getAmountsIn(uint256,address[])": "1f00ca74",
			"getAmountsOut(uint256,address[])": "d06ca61f",
			"marsFactory()": "31094301",
			"owner()": "8da5cb5b",
			"quote(uint256,uint256,uint256)": "ad615dec",
			"removeLiquidity(address,address,uint256,uint256,uint256,address,uint256)": "baa2abde",
			"removeLiquidityETH(address,uint256,uint256,uint256,address,uint256)": "02751cec",
			"removeLiquidityETHSupportingFeeOnTransferTokens(address,uint256,uint256,uint256,address,uint256)": "af2979eb",
			"renounceOwnership()": "715018a6",
			"swapETHForExactTokens(uint256,address[],address,uint256)": "fb3bdb41",
			"swapExactETHForTokens(uint256,address[],address,uint256)": "7ff36ab5",
			"swapExactETHForTokensSupportingFeeOnTransferTokens(uint256,address[],address,uint256)": "b6f9de95",
			"swapExactTokensForETH(uint256,uint256,address[],address,uint256)": "18cbafe5",
			"swapExactTokensForETHSupportingFeeOnTransferTokens(uint256,uint256,address[],address,uint256)": "791ac947",
			"swapExactTokensForTokens(uint256,uint256,address[],address,uint256)": "38ed1739",
			"swapExactTokensForTokensSupportingFeeOnTransferTokens(uint256,uint256,address[],address,uint256)": "5c11d795",
			"swapTokensForExactETH(uint256,uint256,address[],address,uint256)": "4a25d94a",
			"swapTokensForExactTokens(uint256,uint256,address[],address,uint256)": "8803dbee",
			"transferOwnership(address)": "f2fde38b",
			"txFee()": "cf820461",
			"withdawlBNB()": "e799ffb1",
			"withdrawlToken(address)": "ac5cad56"
		}
	},
	"abi": [
		{
			"inputs": [
				{
					"internalType": "address",
					"name": "_factory",
					"type": "address"
				},
				{
					"internalType": "address",
					"name": "_WETH",
					"type": "address"
				},
				{
					"internalType": "address",
					"name": "_marsFactory",
					"type": "address"
				}
			],
			"stateMutability": "nonpayable",
			"type": "constructor"
		},
		{
			"anonymous": false,
			"inputs": [
				{
					"indexed": true,
					"internalType": "address",
					"name": "previousOwner",
					"type": "address"
				},
				{
					"indexed": true,
					"internalType": "address",
					"name": "newOwner",
					"type": "address"
				}
			],
			"name": "OwnershipTransferred",
			"type": "event"
		},
		{
			"inputs": [],
			"name": "WETH",
			"outputs": [
				{
					"internalType": "address",
					"name": "",
					"type": "address"
				}
			],
			"stateMutability": "view",
			"type": "function"
		},
		{
			"inputs": [
				{
					"internalType": "address",
					"name": "tokenA",
					"type": "address"
				},
				{
					"internalType": "address",
					"name": "tokenB",
					"type": "address"
				},
				{
					"internalType": "uint256",
					"name": "amountADesired",
					"type": "uint256"
				},
				{
					"internalType": "uint256",
					"name": "amountBDesired",
					"type": "uint256"
				},
				{
					"internalType": "uint256",
					"name": "amountAMin",
					"type": "uint256"
				},
				{
					"internalType": "uint256",
					"name": "amountBMin",
					"type": "uint256"
				},
				{
					"internalType": "address",
					"name": "to",
					"type": "address"
				},
				{
					"internalType": "uint256",
					"name": "deadline",
					"type": "uint256"
				}
			],
			"name": "addLiquidity",
			"outputs": [
				{
					"internalType": "uint256",
					"name": "amountA",
					"type": "uint256"
				},
				{
					"internalType": "uint256",
					"name": "amountB",
					"type": "uint256"
				},
				{
					"internalType": "uint256",
					"name": "liquidity",
					"type": "uint256"
				}
			],
			"stateMutability": "nonpayable",
			"type": "function"
		},
		{
			"inputs": [
				{
					"internalType": "address",
					"name": "token",
					"type": "address"
				},
				{
					"internalType": "uint256",
					"name": "amountTokenDesired",
					"type": "uint256"
				},
				{
					"internalType": "uint256",
					"name": "amountTokenMin",
					"type": "uint256"
				},
				{
					"internalType": "uint256",
					"name": "amountETHMin",
					"type": "uint256"
				},
				{
					"internalType": "address",
					"name": "to",
					"type": "address"
				},
				{
					"internalType": "uint256",
					"name": "deadline",
					"type": "uint256"
				}
			],
			"name": "addLiquidityETH",
			"outputs": [
				{
					"internalType": "uint256",
					"name": "amountToken",
					"type": "uint256"
				},
				{
					"internalType": "uint256",
					"name": "amountETH",
					"type": "uint256"
				},
				{
					"internalType": "uint256",
					"name": "liquidity",
					"type": "uint256"
				}
			],
			"stateMutability": "payable",
			"type": "function"
		},
		{
			"inputs": [],
			"name": "factory",
			"outputs": [
				{
					"internalType": "address",
					"name": "",
					"type": "address"
				}
			],
			"stateMutability": "view",
			"type": "function"
		},
		{
			"inputs": [
				{
					"internalType": "uint256",
					"name": "amountOut",
					"type": "uint256"
				},
				{
					"internalType": "uint256",
					"name": "reserveIn",
					"type": "uint256"
				},
				{
					"internalType": "uint256",
					"name": "reserveOut",
					"type": "uint256"
				}
			],
			"name": "getAmountIn",
			"outputs": [
				{
					"internalType": "uint256",
					"name": "amountIn",
					"type": "uint256"
				}
			],
			"stateMutability": "pure",
			"type": "function"
		},
		{
			"inputs": [
				{
					"internalType": "uint256",
					"name": "amountIn",
					"type": "uint256"
				},
				{
					"internalType": "uint256",
					"name": "reserveIn",
					"type": "uint256"
				},
				{
					"internalType": "uint256",
					"name": "reserveOut",
					"type": "uint256"
				}
			],
			"name": "getAmountOut",
			"outputs": [
				{
					"internalType": "uint256",
					"name": "amountOut",
					"type": "uint256"
				}
			],
			"stateMutability": "pure",
			"type": "function"
		},
		{
			"inputs": [
				{
					"internalType": "uint256",
					"name": "amountOut",
					"type": "uint256"
				},
				{
					"internalType": "address[]",
					"name": "path",
					"type": "address[]"
				}
			],
			"name": "getAmountsIn",
			"outputs": [
				{
					"internalType": "uint256[]",
					"name": "amounts",
					"type": "uint256[]"
				}
			],
			"stateMutability": "view",
			"type": "function"
		},
		{
			"inputs": [
				{
					"internalType": "uint256",
					"name": "amountIn",
					"type": "uint256"
				},
				{
					"internalType": "address[]",
					"name": "path",
					"type": "address[]"
				}
			],
			"name": "getAmountsOut",
			"outputs": [
				{
					"internalType": "uint256[]",
					"name": "amounts",
					"type": "uint256[]"
				}
			],
			"stateMutability": "view",
			"type": "function"
		},
		{
			"inputs": [],
			"name": "marsFactory",
			"outputs": [
				{
					"internalType": "address",
					"name": "",
					"type": "address"
				}
			],
			"stateMutability": "view",
			"type": "function"
		},
		{
			"inputs": [],
			"name": "owner",
			"outputs": [
				{
					"internalType": "address",
					"name": "",
					"type": "address"
				}
			],
			"stateMutability": "view",
			"type": "function"
		},
		{
			"inputs": [
				{
					"internalType": "uint256",
					"name": "amountA",
					"type": "uint256"
				},
				{
					"internalType": "uint256",
					"name": "reserveA",
					"type": "uint256"
				},
				{
					"internalType": "uint256",
					"name": "reserveB",
					"type": "uint256"
				}
			],
			"name": "quote",
			"outputs": [
				{
					"internalType": "uint256",
					"name": "amountB",
					"type": "uint256"
				}
			],
			"stateMutability": "pure",
			"type": "function"
		},
		{
			"inputs": [
				{
					"internalType": "address",
					"name": "tokenA",
					"type": "address"
				},
				{
					"internalType": "address",
					"name": "tokenB",
					"type": "address"
				},
				{
					"internalType": "uint256",
					"name": "liquidity",
					"type": "uint256"
				},
				{
					"internalType": "uint256",
					"name": "amountAMin",
					"type": "uint256"
				},
				{
					"internalType": "uint256",
					"name": "amountBMin",
					"type": "uint256"
				},
				{
					"internalType": "address",
					"name": "to",
					"type": "address"
				},
				{
					"internalType": "uint256",
					"name": "deadline",
					"type": "uint256"
				}
			],
			"name": "removeLiquidity",
			"outputs": [
				{
					"internalType": "uint256",
					"name": "amountA",
					"type": "uint256"
				},
				{
					"internalType": "uint256",
					"name": "amountB",
					"type": "uint256"
				}
			],
			"stateMutability": "nonpayable",
			"type": "function"
		},
		{
			"inputs": [
				{
					"internalType": "address",
					"name": "token",
					"type": "address"
				},
				{
					"internalType": "uint256",
					"name": "liquidity",
					"type": "uint256"
				},
				{
					"internalType": "uint256",
					"name": "amountTokenMin",
					"type": "uint256"
				},
				{
					"internalType": "uint256",
					"name": "amountETHMin",
					"type": "uint256"
				},
				{
					"internalType": "address",
					"name": "to",
					"type": "address"
				},
				{
					"internalType": "uint256",
					"name": "deadline",
					"type": "uint256"
				}
			],
			"name": "removeLiquidityETH",
			"outputs": [
				{
					"internalType": "uint256",
					"name": "amountToken",
					"type": "uint256"
				},
				{
					"internalType": "uint256",
					"name": "amountETH",
					"type": "uint256"
				}
			],
			"stateMutability": "nonpayable",
			"type": "function"
		},
		{
			"inputs": [
				{
					"internalType": "address",
					"name": "token",
					"type": "address"
				},
				{
					"internalType": "uint256",
					"name": "liquidity",
					"type": "uint256"
				},
				{
					"internalType": "uint256",
					"name": "amountTokenMin",
					"type": "uint256"
				},
				{
					"internalType": "uint256",
					"name": "amountETHMin",
					"type": "uint256"
				},
				{
					"internalType": "address",
					"name": "to",
					"type": "address"
				},
				{
					"internalType": "uint256",
					"name": "deadline",
					"type": "uint256"
				}
			],
			"name": "removeLiquidityETHSupportingFeeOnTransferTokens",
			"outputs": [
				{
					"internalType": "uint256",
					"name": "amountETH",
					"type": "uint256"
				}
			],
			"stateMutability": "nonpayable",
			"type": "function"
		},
		{
			"inputs": [],
			"name": "renounceOwnership",
			"outputs": [],
			"stateMutability": "nonpayable",
			"type": "function"
		},
		{
			"inputs": [
				{
					"internalType": "uint256",
					"name": "amountOut",
					"type": "uint256"
				},
				{
					"internalType": "address[]",
					"name": "path",
					"type": "address[]"
				},
				{
					"internalType": "address",
					"name": "to",
					"type": "address"
				},
				{
					"internalType": "uint256",
					"name": "deadline",
					"type": "uint256"
				}
			],
			"name": "swapETHForExactTokens",
			"outputs": [
				{
					"internalType": "uint256[]",
					"name": "amounts",
					"type": "uint256[]"
				}
			],
			"stateMutability": "payable",
			"type": "function"
		},
		{
			"inputs": [
				{
					"internalType": "uint256",
					"name": "amountOutMin",
					"type": "uint256"
				},
				{
					"internalType": "address[]",
					"name": "path",
					"type": "address[]"
				},
				{
					"internalType": "address",
					"name": "to",
					"type": "address"
				},
				{
					"internalType": "uint256",
					"name": "deadline",
					"type": "uint256"
				}
			],
			"name": "swapExactETHForTokens",
			"outputs": [
				{
					"internalType": "uint256[]",
					"name": "amounts",
					"type": "uint256[]"
				}
			],
			"stateMutability": "payable",
			"type": "function"
		},
		{
			"inputs": [
				{
					"internalType": "uint256",
					"name": "amountOutMin",
					"type": "uint256"
				},
				{
					"internalType": "address[]",
					"name": "path",
					"type": "address[]"
				},
				{
					"internalType": "address",
					"name": "to",
					"type": "address"
				},
				{
					"internalType": "uint256",
					"name": "deadline",
					"type": "uint256"
				}
			],
			"name": "swapExactETHForTokensSupportingFeeOnTransferTokens",
			"outputs": [],
			"stateMutability": "payable",
			"type": "function"
		},
		{
			"inputs": [
				{
					"internalType": "uint256",
					"name": "amountIn",
					"type": "uint256"
				},
				{
					"internalType": "uint256",
					"name": "amountOutMin",
					"type": "uint256"
				},
				{
					"internalType": "address[]",
					"name": "path",
					"type": "address[]"
				},
				{
					"internalType": "address",
					"name": "to",
					"type": "address"
				},
				{
					"internalType": "uint256",
					"name": "deadline",
					"type": "uint256"
				}
			],
			"name": "swapExactTokensForETH",
			"outputs": [
				{
					"internalType": "uint256[]",
					"name": "amounts",
					"type": "uint256[]"
				}
			],
			"stateMutability": "payable",
			"type": "function"
		},
		{
			"inputs": [
				{
					"internalType": "uint256",
					"name": "amountIn",
					"type": "uint256"
				},
				{
					"internalType": "uint256",
					"name": "amountOutMin",
					"type": "uint256"
				},
				{
					"internalType": "address[]",
					"name": "path",
					"type": "address[]"
				},
				{
					"internalType": "address",
					"name": "to",
					"type": "address"
				},
				{
					"internalType": "uint256",
					"name": "deadline",
					"type": "uint256"
				}
			],
			"name": "swapExactTokensForETHSupportingFeeOnTransferTokens",
			"outputs": [],
			"stateMutability": "payable",
			"type": "function"
		},
		{
			"inputs": [
				{
					"internalType": "uint256",
					"name": "amountIn",
					"type": "uint256"
				},
				{
					"internalType": "uint256",
					"name": "amountOutMin",
					"type": "uint256"
				},
				{
					"internalType": "address[]",
					"name": "path",
					"type": "address[]"
				},
				{
					"internalType": "address",
					"name": "to",
					"type": "address"
				},
				{
					"internalType": "uint256",
					"name": "deadline",
					"type": "uint256"
				}
			],
			"name": "swapExactTokensForTokens",
			"outputs": [
				{
					"internalType": "uint256[]",
					"name": "amounts",
					"type": "uint256[]"
				}
			],
			"stateMutability": "payable",
			"type": "function"
		},
		{
			"inputs": [
				{
					"internalType": "uint256",
					"name": "amountIn",
					"type": "uint256"
				},
				{
					"internalType": "uint256",
					"name": "amountOutMin",
					"type": "uint256"
				},
				{
					"internalType": "address[]",
					"name": "path",
					"type": "address[]"
				},
				{
					"internalType": "address",
					"name": "to",
					"type": "address"
				},
				{
					"internalType": "uint256",
					"name": "deadline",
					"type": "uint256"
				}
			],
			"name": "swapExactTokensForTokensSupportingFeeOnTransferTokens",
			"outputs": [],
			"stateMutability": "payable",
			"type": "function"
		},
		{
			"inputs": [
				{
					"internalType": "uint256",
					"name": "amountOut",
					"type": "uint256"
				},
				{
					"internalType": "uint256",
					"name": "amountInMax",
					"type": "uint256"
				},
				{
					"internalType": "address[]",
					"name": "path",
					"type": "address[]"
				},
				{
					"internalType": "address",
					"name": "to",
					"type": "address"
				},
				{
					"internalType": "uint256",
					"name": "deadline",
					"type": "uint256"
				}
			],
			"name": "swapTokensForExactETH",
			"outputs": [
				{
					"internalType": "uint256[]",
					"name": "amounts",
					"type": "uint256[]"
				}
			],
			"stateMutability": "payable",
			"type": "function"
		},
		{
			"inputs": [
				{
					"internalType": "uint256",
					"name": "amountOut",
					"type": "uint256"
				},
				{
					"internalType": "uint256",
					"name": "amountInMax",
					"type": "uint256"
				},
				{
					"internalType": "address[]",
					"name": "path",
					"type": "address[]"
				},
				{
					"internalType": "address",
					"name": "to",
					"type": "address"
				},
				{
					"internalType": "uint256",
					"name": "deadline",
					"type": "uint256"
				}
			],
			"name": "swapTokensForExactTokens",
			"outputs": [
				{
					"internalType": "uint256[]",
					"name": "amounts",
					"type": "uint256[]"
				}
			],
			"stateMutability": "payable",
			"type": "function"
		},
		{
			"inputs": [
				{
					"internalType": "address",
					"name": "newOwner",
					"type": "address"
				}
			],
			"name": "transferOwnership",
			"outputs": [],
			"stateMutability": "nonpayable",
			"type": "function"
		},
		{
			"inputs": [],
			"name": "txFee",
			"outputs": [
				{
					"internalType": "uint256",
					"name": "",
					"type": "uint256"
				}
			],
			"stateMutability": "view",
			"type": "function"
		},
		{
			"inputs": [],
			"name": "withdawlBNB",
			"outputs": [],
			"stateMutability": "nonpayable",
			"type": "function"
		},
		{
			"inputs": [
				{
					"internalType": "address",
					"name": "_tokenAddress",
					"type": "address"
				}
			],
			"name": "withdrawlToken",
			"outputs": [],
			"stateMutability": "nonpayable",
			"type": "function"
		},
		{
			"stateMutability": "payable",
			"type": "receive"
		}
	]
}