{
  "_format": "hh-sol-artifact-1",
  "contractName": "PreLaunchManager",
  "sourceName": "contracts/launchManagerNeon.sol",
  "abi": [
    {
      "inputs": [
        {
          "internalType": "uint256",
          "name": "_creationFee",
          "type": "uint256"
        },
        {
          "internalType": "uint256",
          "name": "_platformFeePercentage",
          "type": "uint256"
        },
        {
          "internalType": "uint256",
          "name": "_prizeFeePercentage",
          "type": "uint256"
        },
        {
          "internalType": "uint256",
          "name": "_burnFeePercentage",
          "type": "uint256"
        },
        {
          "internalType": "address",
          "name": "_burnToken",
          "type": "address"
        },
        {
          "internalType": "address",
          "name": "_treasury",
          "type": "address"
        },
        {
          "internalType": "address",
          "name": "_prizeTreasury",
          "type": "address"
        },
        {
          "internalType": "address",
          "name": "_router",
          "type": "address"
        },
        {
          "internalType": "uint256",
          "name": "_sponsorshipFee",
          "type": "uint256"
        }
      ],
      "stateMutability": "nonpayable",
      "type": "constructor"
    },
    {
      "inputs": [
        {
          "internalType": "address",
          "name": "owner",
          "type": "address"
        }
      ],
      "name": "OwnableInvalidOwner",
      "type": "error"
    },
    {
      "inputs": [
        {
          "internalType": "address",
          "name": "account",
          "type": "address"
        }
      ],
      "name": "OwnableUnauthorizedAccount",
      "type": "error"
    },
    {
      "inputs": [],
      "name": "ReentrancyGuardReentrantCall",
      "type": "error"
    },
    {
      "anonymous": false,
      "inputs": [
        {
          "indexed": false,
          "internalType": "uint256",
          "name": "roundId",
          "type": "uint256"
        },
        {
          "indexed": true,
          "internalType": "address",
          "name": "user",
          "type": "address"
        },
        {
          "indexed": false,
          "internalType": "uint256",
          "name": "amount",
          "type": "uint256"
        }
      ],
      "name": "Contributed",
      "type": "event"
    },
    {
      "anonymous": false,
      "inputs": [
        {
          "indexed": false,
          "internalType": "uint256",
          "name": "roundId",
          "type": "uint256"
        },
        {
          "indexed": false,
          "internalType": "uint256",
          "name": "tokenAmount",
          "type": "uint256"
        },
        {
          "indexed": false,
          "internalType": "uint256",
          "name": "nativeCoinAmount",
          "type": "uint256"
        }
      ],
      "name": "LiquidityAdded",
      "type": "event"
    },
    {
      "anonymous": false,
      "inputs": [
        {
          "indexed": true,
          "internalType": "address",
          "name": "previousOwner",
          "type": "address"
        },
        {
          "indexed": true,
          "internalType": "address",
          "name": "newOwner",
          "type": "address"
        }
      ],
      "name": "OwnershipTransferred",
      "type": "event"
    },
    {
      "anonymous": false,
      "inputs": [
        {
          "indexed": false,
          "internalType": "address",
          "name": "tokenContract",
          "type": "address"
        },
        {
          "indexed": false,
          "internalType": "string",
          "name": "name",
          "type": "string"
        },
        {
          "indexed": false,
          "internalType": "string",
          "name": "symbol",
          "type": "string"
        },
        {
          "indexed": false,
          "internalType": "uint256",
          "name": "endEpoch",
          "type": "uint256"
        },
        {
          "indexed": false,
          "internalType": "address",
          "name": "creator",
          "type": "address"
        }
      ],
      "name": "RoundStarted",
      "type": "event"
    },
    {
      "anonymous": false,
      "inputs": [
        {
          "indexed": false,
          "internalType": "uint256",
          "name": "roundId",
          "type": "uint256"
        },
        {
          "indexed": true,
          "internalType": "address",
          "name": "user",
          "type": "address"
        },
        {
          "indexed": false,
          "internalType": "uint256",
          "name": "amount",
          "type": "uint256"
        }
      ],
      "name": "TokensCollected",
      "type": "event"
    },
    {
      "anonymous": false,
      "inputs": [
        {
          "indexed": false,
          "internalType": "uint256",
          "name": "roundId",
          "type": "uint256"
        },
        {
          "indexed": false,
          "internalType": "uint256",
          "name": "totalDistributed",
          "type": "uint256"
        }
      ],
      "name": "TokensDistributed",
      "type": "event"
    },
    {
      "inputs": [],
      "name": "burnFeePercentage",
      "outputs": [
        {
          "internalType": "uint256",
          "name": "",
          "type": "uint256"
        }
      ],
      "stateMutability": "view",
      "type": "function"
    },
    {
      "inputs": [],
      "name": "burnToken",
      "outputs": [
        {
          "internalType": "address",
          "name": "",
          "type": "address"
        }
      ],
      "stateMutability": "view",
      "type": "function"
    },
    {
      "inputs": [
        {
          "internalType": "uint256",
          "name": "roundId",
          "type": "uint256"
        }
      ],
      "name": "collect",
      "outputs": [],
      "stateMutability": "nonpayable",
      "type": "function"
    },
    {
      "inputs": [
        {
          "internalType": "uint256",
          "name": "roundId",
          "type": "uint256"
        }
      ],
      "name": "contribute",
      "outputs": [],
      "stateMutability": "payable",
      "type": "function"
    },
    {
      "inputs": [],
      "name": "creationFee",
      "outputs": [
        {
          "internalType": "uint256",
          "name": "",
          "type": "uint256"
        }
      ],
      "stateMutability": "view",
      "type": "function"
    },
    {
      "inputs": [],
      "name": "deadAddress",
      "outputs": [
        {
          "internalType": "address",
          "name": "",
          "type": "address"
        }
      ],
      "stateMutability": "view",
      "type": "function"
    },
    {
      "inputs": [
        {
          "internalType": "uint256",
          "name": "roundId",
          "type": "uint256"
        },
        {
          "internalType": "string",
          "name": "_website",
          "type": "string"
        },
        {
          "internalType": "string",
          "name": "_telegram",
          "type": "string"
        },
        {
          "internalType": "string",
          "name": "_logo",
          "type": "string"
        }
      ],
      "name": "editProjectInfo",
      "outputs": [],
      "stateMutability": "nonpayable",
      "type": "function"
    },
    {
      "inputs": [
        {
          "internalType": "uint256",
          "name": "roundId",
          "type": "uint256"
        }
      ],
      "name": "finalizeRound",
      "outputs": [],
      "stateMutability": "nonpayable",
      "type": "function"
    },
    {
      "inputs": [
        {
          "internalType": "uint256",
          "name": "pageNumber",
          "type": "uint256"
        },
        {
          "internalType": "uint256",
          "name": "pageSize",
          "type": "uint256"
        }
      ],
      "name": "getFinishedRounds",
      "outputs": [
        {
          "components": [
            {
              "internalType": "uint256",
              "name": "roundId",
              "type": "uint256"
            },
            {
              "internalType": "address",
              "name": "tokenContract",
              "type": "address"
            },
            {
              "internalType": "string",
              "name": "name",
              "type": "string"
            },
            {
              "internalType": "string",
              "name": "symbol",
              "type": "string"
            },
            {
              "internalType": "uint256",
              "name": "totalSupply",
              "type": "uint256"
            },
            {
              "internalType": "uint256",
              "name": "totalRaised",
              "type": "uint256"
            },
            {
              "internalType": "uint256",
              "name": "endEpoch",
              "type": "uint256"
            },
            {
              "internalType": "bool",
              "name": "isFinished",
              "type": "bool"
            },
            {
              "internalType": "string",
              "name": "website",
              "type": "string"
            },
            {
              "internalType": "string",
              "name": "telegram",
              "type": "string"
            },
            {
              "internalType": "string",
              "name": "logo",
              "type": "string"
            },
            {
              "internalType": "string",
              "name": "description",
              "type": "string"
            },
            {
              "internalType": "bool",
              "name": "sponsored",
              "type": "bool"
            },
            {
              "internalType": "address",
              "name": "creator",
              "type": "address"
            }
          ],
          "internalType": "struct PreLaunchManager.Round[]",
          "name": "",
          "type": "tuple[]"
        },
        {
          "internalType": "uint256",
          "name": "total",
          "type": "uint256"
        }
      ],
      "stateMutability": "view",
      "type": "function"
    },
    {
      "inputs": [
        {
          "internalType": "uint256",
          "name": "pageNumber",
          "type": "uint256"
        },
        {
          "internalType": "uint256",
          "name": "pageSize",
          "type": "uint256"
        }
      ],
      "name": "getLiveRounds",
      "outputs": [
        {
          "components": [
            {
              "internalType": "uint256",
              "name": "roundId",
              "type": "uint256"
            },
            {
              "internalType": "address",
              "name": "tokenContract",
              "type": "address"
            },
            {
              "internalType": "string",
              "name": "name",
              "type": "string"
            },
            {
              "internalType": "string",
              "name": "symbol",
              "type": "string"
            },
            {
              "internalType": "uint256",
              "name": "totalSupply",
              "type": "uint256"
            },
            {
              "internalType": "uint256",
              "name": "totalRaised",
              "type": "uint256"
            },
            {
              "internalType": "uint256",
              "name": "endEpoch",
              "type": "uint256"
            },
            {
              "internalType": "bool",
              "name": "isFinished",
              "type": "bool"
            },
            {
              "internalType": "string",
              "name": "website",
              "type": "string"
            },
            {
              "internalType": "string",
              "name": "telegram",
              "type": "string"
            },
            {
              "internalType": "string",
              "name": "logo",
              "type": "string"
            },
            {
              "internalType": "string",
              "name": "description",
              "type": "string"
            },
            {
              "internalType": "bool",
              "name": "sponsored",
              "type": "bool"
            },
            {
              "internalType": "address",
              "name": "creator",
              "type": "address"
            }
          ],
          "internalType": "struct PreLaunchManager.Round[]",
          "name": "",
          "type": "tuple[]"
        },
        {
          "internalType": "uint256",
          "name": "total",
          "type": "uint256"
        }
      ],
      "stateMutability": "view",
      "type": "function"
    },
    {
      "inputs": [
        {
          "internalType": "uint256",
          "name": "roundId",
          "type": "uint256"
        }
      ],
      "name": "getRoundContributions",
      "outputs": [
        {
          "components": [
            {
              "internalType": "address",
              "name": "user",
              "type": "address"
            },
            {
              "internalType": "uint256",
              "name": "amount",
              "type": "uint256"
            },
            {
              "internalType": "bool",
              "name": "collected",
              "type": "bool"
            }
          ],
          "internalType": "struct PreLaunchManager.RoundUserContribution[]",
          "name": "",
          "type": "tuple[]"
        }
      ],
      "stateMutability": "view",
      "type": "function"
    },
    {
      "inputs": [
        {
          "internalType": "uint256",
          "name": "roundId",
          "type": "uint256"
        }
      ],
      "name": "getRoundDetails",
      "outputs": [
        {
          "components": [
            {
              "internalType": "uint256",
              "name": "roundId",
              "type": "uint256"
            },
            {
              "internalType": "address",
              "name": "tokenContract",
              "type": "address"
            },
            {
              "internalType": "string",
              "name": "name",
              "type": "string"
            },
            {
              "internalType": "string",
              "name": "symbol",
              "type": "string"
            },
            {
              "internalType": "uint256",
              "name": "totalSupply",
              "type": "uint256"
            },
            {
              "internalType": "uint256",
              "name": "totalRaised",
              "type": "uint256"
            },
            {
              "internalType": "uint256",
              "name": "endEpoch",
              "type": "uint256"
            },
            {
              "internalType": "bool",
              "name": "isFinished",
              "type": "bool"
            },
            {
              "internalType": "string",
              "name": "website",
              "type": "string"
            },
            {
              "internalType": "string",
              "name": "telegram",
              "type": "string"
            },
            {
              "internalType": "string",
              "name": "logo",
              "type": "string"
            },
            {
              "internalType": "string",
              "name": "description",
              "type": "string"
            },
            {
              "internalType": "bool",
              "name": "sponsored",
              "type": "bool"
            },
            {
              "internalType": "address",
              "name": "creator",
              "type": "address"
            }
          ],
          "internalType": "struct PreLaunchManager.Round",
          "name": "",
          "type": "tuple"
        }
      ],
      "stateMutability": "view",
      "type": "function"
    },
    {
      "inputs": [
        {
          "internalType": "uint256",
          "name": "howMany",
          "type": "uint256"
        }
      ],
      "name": "getTop",
      "outputs": [
        {
          "components": [
            {
              "internalType": "uint256",
              "name": "roundId",
              "type": "uint256"
            },
            {
              "internalType": "address",
              "name": "tokenContract",
              "type": "address"
            },
            {
              "internalType": "string",
              "name": "name",
              "type": "string"
            },
            {
              "internalType": "string",
              "name": "symbol",
              "type": "string"
            },
            {
              "internalType": "uint256",
              "name": "totalSupply",
              "type": "uint256"
            },
            {
              "internalType": "uint256",
              "name": "totalRaised",
              "type": "uint256"
            },
            {
              "internalType": "uint256",
              "name": "endEpoch",
              "type": "uint256"
            },
            {
              "internalType": "bool",
              "name": "isFinished",
              "type": "bool"
            },
            {
              "internalType": "string",
              "name": "website",
              "type": "string"
            },
            {
              "internalType": "string",
              "name": "telegram",
              "type": "string"
            },
            {
              "internalType": "string",
              "name": "logo",
              "type": "string"
            },
            {
              "internalType": "string",
              "name": "description",
              "type": "string"
            },
            {
              "internalType": "bool",
              "name": "sponsored",
              "type": "bool"
            },
            {
              "internalType": "address",
              "name": "creator",
              "type": "address"
            }
          ],
          "internalType": "struct PreLaunchManager.Round[]",
          "name": "",
          "type": "tuple[]"
        },
        {
          "internalType": "uint256",
          "name": "total",
          "type": "uint256"
        }
      ],
      "stateMutability": "view",
      "type": "function"
    },
    {
      "inputs": [
        {
          "internalType": "uint256",
          "name": "howMany",
          "type": "uint256"
        }
      ],
      "name": "getTopLiveWithSponsorship",
      "outputs": [
        {
          "components": [
            {
              "internalType": "uint256",
              "name": "roundId",
              "type": "uint256"
            },
            {
              "internalType": "address",
              "name": "tokenContract",
              "type": "address"
            },
            {
              "internalType": "string",
              "name": "name",
              "type": "string"
            },
            {
              "internalType": "string",
              "name": "symbol",
              "type": "string"
            },
            {
              "internalType": "uint256",
              "name": "totalSupply",
              "type": "uint256"
            },
            {
              "internalType": "uint256",
              "name": "totalRaised",
              "type": "uint256"
            },
            {
              "internalType": "uint256",
              "name": "endEpoch",
              "type": "uint256"
            },
            {
              "internalType": "bool",
              "name": "isFinished",
              "type": "bool"
            },
            {
              "internalType": "string",
              "name": "website",
              "type": "string"
            },
            {
              "internalType": "string",
              "name": "telegram",
              "type": "string"
            },
            {
              "internalType": "string",
              "name": "logo",
              "type": "string"
            },
            {
              "internalType": "string",
              "name": "description",
              "type": "string"
            },
            {
              "internalType": "bool",
              "name": "sponsored",
              "type": "bool"
            },
            {
              "internalType": "address",
              "name": "creator",
              "type": "address"
            }
          ],
          "internalType": "struct PreLaunchManager.Round[]",
          "name": "",
          "type": "tuple[]"
        },
        {
          "internalType": "uint256",
          "name": "total",
          "type": "uint256"
        }
      ],
      "stateMutability": "view",
      "type": "function"
    },
    {
      "inputs": [
        {
          "internalType": "uint256",
          "name": "roundId",
          "type": "uint256"
        },
        {
          "internalType": "address",
          "name": "user",
          "type": "address"
        }
      ],
      "name": "getUserContributionAndAllocation",
      "outputs": [
        {
          "internalType": "uint256",
          "name": "contribution",
          "type": "uint256"
        },
        {
          "internalType": "uint256",
          "name": "tokenAllocation",
          "type": "uint256"
        },
        {
          "internalType": "bool",
          "name": "collected",
          "type": "bool"
        }
      ],
      "stateMutability": "view",
      "type": "function"
    },
    {
      "inputs": [],
      "name": "owner",
      "outputs": [
        {
          "internalType": "address",
          "name": "",
          "type": "address"
        }
      ],
      "stateMutability": "view",
      "type": "function"
    },
    {
      "inputs": [],
      "name": "platformFeePercentage",
      "outputs": [
        {
          "internalType": "uint256",
          "name": "",
          "type": "uint256"
        }
      ],
      "stateMutability": "view",
      "type": "function"
    },
    {
      "inputs": [],
      "name": "prizeFeePercentage",
      "outputs": [
        {
          "internalType": "uint256",
          "name": "",
          "type": "uint256"
        }
      ],
      "stateMutability": "view",
      "type": "function"
    },
    {
      "inputs": [],
      "name": "prizeTreasury",
      "outputs": [
        {
          "internalType": "address",
          "name": "",
          "type": "address"
        }
      ],
      "stateMutability": "view",
      "type": "function"
    },
    {
      "inputs": [],
      "name": "renounceOwnership",
      "outputs": [],
      "stateMutability": "nonpayable",
      "type": "function"
    },
    {
      "inputs": [
        {
          "internalType": "uint256",
          "name": "",
          "type": "uint256"
        },
        {
          "internalType": "uint256",
          "name": "",
          "type": "uint256"
        }
      ],
      "name": "roundContributions",
      "outputs": [
        {
          "internalType": "address",
          "name": "user",
          "type": "address"
        },
        {
          "internalType": "uint256",
          "name": "amount",
          "type": "uint256"
        },
        {
          "internalType": "bool",
          "name": "collected",
          "type": "bool"
        }
      ],
      "stateMutability": "view",
      "type": "function"
    },
    {
      "inputs": [
        {
          "internalType": "uint256",
          "name": "",
          "type": "uint256"
        }
      ],
      "name": "rounds",
      "outputs": [
        {
          "internalType": "uint256",
          "name": "roundId",
          "type": "uint256"
        },
        {
          "internalType": "address",
          "name": "tokenContract",
          "type": "address"
        },
        {
          "internalType": "string",
          "name": "name",
          "type": "string"
        },
        {
          "internalType": "string",
          "name": "symbol",
          "type": "string"
        },
        {
          "internalType": "uint256",
          "name": "totalSupply",
          "type": "uint256"
        },
        {
          "internalType": "uint256",
          "name": "totalRaised",
          "type": "uint256"
        },
        {
          "internalType": "uint256",
          "name": "endEpoch",
          "type": "uint256"
        },
        {
          "internalType": "bool",
          "name": "isFinished",
          "type": "bool"
        },
        {
          "internalType": "string",
          "name": "website",
          "type": "string"
        },
        {
          "internalType": "string",
          "name": "telegram",
          "type": "string"
        },
        {
          "internalType": "string",
          "name": "logo",
          "type": "string"
        },
        {
          "internalType": "string",
          "name": "description",
          "type": "string"
        },
        {
          "internalType": "bool",
          "name": "sponsored",
          "type": "bool"
        },
        {
          "internalType": "address",
          "name": "creator",
          "type": "address"
        }
      ],
      "stateMutability": "view",
      "type": "function"
    },
    {
      "inputs": [],
      "name": "router",
      "outputs": [
        {
          "internalType": "contract IUniswapV2Router02",
          "name": "",
          "type": "address"
        }
      ],
      "stateMutability": "view",
      "type": "function"
    },
    {
      "inputs": [
        {
          "internalType": "address",
          "name": "newBurnToken",
          "type": "address"
        }
      ],
      "name": "setBurnToken",
      "outputs": [],
      "stateMutability": "nonpayable",
      "type": "function"
    },
    {
      "inputs": [
        {
          "internalType": "uint256",
          "name": "newCreationFee",
          "type": "uint256"
        }
      ],
      "name": "setCreationFee",
      "outputs": [],
      "stateMutability": "nonpayable",
      "type": "function"
    },
    {
      "inputs": [
        {
          "internalType": "uint256",
          "name": "newPlatformPercentage",
          "type": "uint256"
        },
        {
          "internalType": "uint256",
          "name": "newBurnPercentage",
          "type": "uint256"
        },
        {
          "internalType": "uint256",
          "name": "newPrizePercentage",
          "type": "uint256"
        }
      ],
      "name": "setFeePercentages",
      "outputs": [],
      "stateMutability": "nonpayable",
      "type": "function"
    },
    {
      "inputs": [
        {
          "internalType": "address",
          "name": "newRouter",
          "type": "address"
        }
      ],
      "name": "setRouter",
      "outputs": [],
      "stateMutability": "nonpayable",
      "type": "function"
    },
    {
      "inputs": [
        {
          "internalType": "uint256",
          "name": "newSponsorshipFee",
          "type": "uint256"
        }
      ],
      "name": "setSponsorshipFee",
      "outputs": [],
      "stateMutability": "nonpayable",
      "type": "function"
    },
    {
      "inputs": [
        {
          "internalType": "address",
          "name": "newTreasury",
          "type": "address"
        }
      ],
      "name": "setTreasury",
      "outputs": [],
      "stateMutability": "nonpayable",
      "type": "function"
    },
    {
      "inputs": [],
      "name": "sponsorshipFee",
      "outputs": [
        {
          "internalType": "uint256",
          "name": "",
          "type": "uint256"
        }
      ],
      "stateMutability": "view",
      "type": "function"
    },
    {
      "inputs": [
        {
          "internalType": "string",
          "name": "_name",
          "type": "string"
        },
        {
          "internalType": "string",
          "name": "_symbol",
          "type": "string"
        },
        {
          "internalType": "uint256",
          "name": "initialSupply",
          "type": "uint256"
        },
        {
          "internalType": "uint256",
          "name": "_endEpoch",
          "type": "uint256"
        },
        {
          "internalType": "string",
          "name": "_website",
          "type": "string"
        },
        {
          "internalType": "string",
          "name": "_telegram",
          "type": "string"
        },
        {
          "internalType": "string",
          "name": "_logo",
          "type": "string"
        },
        {
          "internalType": "string",
          "name": "_description",
          "type": "string"
        },
        {
          "internalType": "bool",
          "name": "_sponsored",
          "type": "bool"
        }
      ],
      "name": "startRound",
      "outputs": [],
      "stateMutability": "payable",
      "type": "function"
    },
    {
      "inputs": [
        {
          "internalType": "address",
          "name": "newOwner",
          "type": "address"
        }
      ],
      "name": "transferOwnership",
      "outputs": [],
      "stateMutability": "nonpayable",
      "type": "function"
    },
    {
      "inputs": [],
      "name": "treasury",
      "outputs": [
        {
          "internalType": "address",
          "name": "",
          "type": "address"
        }
      ],
      "stateMutability": "view",
      "type": "function"
    },
    {
      "inputs": [],
      "name": "withdrawPlatformFee",
      "outputs": [],
      "stateMutability": "nonpayable",
      "type": "function"
    }
  ],
  "bytecode": "0x6080604052600280546001600160a01b03191661dead1790553480156200002557600080fd5b50604051620063553803806200635583398101604081905262000048916200015b565b33806200006f57604051631e4fbdf760e01b81526000600482015260240160405180910390fd5b6200007a81620000ee565b5060018055600398909855600496909655600693909355600593909355600a80546001600160a01b03199081166001600160a01b03948516179091556007805482169284169290921790915560098054821693831693909317909255600b80549092169216919091179055600855620001e9565b600080546001600160a01b038381166001600160a01b0319831681178455604051919092169283917f8be0079c531659141344cd1fd0a4f28419497f9722a3daafe3b4186f6b6457e09190a35050565b80516001600160a01b03811681146200015657600080fd5b919050565b60008060008060008060008060006101208a8c0312156200017b57600080fd5b8951985060208a0151975060408a0151965060608a01519550620001a260808b016200013e565b9450620001b260a08b016200013e565b9350620001c260c08b016200013e565b9250620001d260e08b016200013e565b91506101008a015190509295985092959850929598565b61615c80620001f96000396000f3fe608060405260043610620002235760003560e01c8063b6b12e611162000123578063dce0b4e411620000ad578063f0f442601162000078578063f0f44260146200066f578063f2fde38b1462000694578063f4fbb61214620006b9578063f887ea401462000706578063faa0a264146200072857600080fd5b8063dce0b4e414620005e5578063e08f136914620005fd578063e4e988761462000640578063ec82dd66146200065857600080fd5b8063c358798011620000ee578063c3587980146200056b578063c4ceb3391462000590578063cdd78cfc14620005a8578063ce3f865f14620005c057600080fd5b8063b6b12e6114620004d6578063b7d86225146200050a578063c0d78655146200052f578063c1cbbca7146200055457600080fd5b806361d027b311620001b15780638214fab7116200017c5780638214fab714620004045780638c65c81f146200042b5780638da5cb5b146200046c578063a121bd78146200048c578063b4b081df14620004b157600080fd5b806361d027b31462000383578063715018a614620003a5578063755bba5114620003bd5780637c4b74ee14620003e257600080fd5b80633469f6e211620001f25780633469f6e214620002ef57806337caa8b61462000314578063486f280b146200033957806361380f43146200035e57600080fd5b80630c45114d1462000228578063202cefd5146200026557806322b5adbb146200027f57806327c8f83514620002b4575b600080fd5b3480156200023557600080fd5b506200024d6200024736600462004758565b6200074a565b6040516200025c919062004772565b60405180910390f35b3480156200027257600080fd5b506200027d620007e6565b005b3480156200028c57600080fd5b50620002a46200029e366004620047d8565b620008a5565b6040516200025c9291906200498b565b348015620002c157600080fd5b50600254620002d6906001600160a01b031681565b6040516001600160a01b0390911681526020016200025c565b348015620002fc57600080fd5b506200027d6200030e36600462004758565b62000f66565b3480156200032157600080fd5b50620002a46200033336600462004758565b62001092565b3480156200034657600080fd5b50620002a462000358366004620047d8565b6200187b565b3480156200036b57600080fd5b506200027d6200037d36600462004ac9565b62001f2c565b3480156200039057600080fd5b50600954620002d6906001600160a01b031681565b348015620003b257600080fd5b506200027d62002037565b348015620003ca57600080fd5b506200027d620003dc36600462004758565b6200204d565b348015620003ef57600080fd5b50600a54620002d6906001600160a01b031681565b3480156200041157600080fd5b506200041c60085481565b6040519081526020016200025c565b3480156200043857600080fd5b50620004506200044a36600462004758565b6200205c565b6040516200025c9e9d9c9b9a9998979695949392919062004b65565b3480156200047957600080fd5b506000546001600160a01b0316620002d6565b3480156200049957600080fd5b50620002a4620004ab36600462004758565b62002456565b348015620004be57600080fd5b506200027d620004d036600462004c58565b62002c9e565b348015620004e357600080fd5b50620004fb620004f536600462004758565b62002d7b565b6040516200025c919062004c85565b3480156200051757600080fd5b506200027d6200052936600462004758565b6200320a565b3480156200053c57600080fd5b506200027d6200054e36600462004cb7565b62003219565b6200027d6200056536600462004758565b620032ab565b3480156200057857600080fd5b506200027d6200058a36600462004cb7565b620035e6565b3480156200059d57600080fd5b506200041c60065481565b348015620005b557600080fd5b506200041c60045481565b348015620005cd57600080fd5b506200027d620005df36600462004758565b620036c1565b348015620005f257600080fd5b506200041c60035481565b3480156200060a57600080fd5b50620006226200061c36600462004cd7565b620039ad565b6040805193845260208401929092521515908201526060016200025c565b3480156200064d57600080fd5b506200041c60055481565b6200027d6200066936600462004d2b565b62003b66565b3480156200067c57600080fd5b506200027d6200068e36600462004cb7565b62003f7f565b348015620006a157600080fd5b506200027d620006b336600462004cb7565b62004013565b348015620006c657600080fd5b50620006de620006d8366004620047d8565b62004054565b604080516001600160a01b03909416845260208401929092521515908201526060016200025c565b3480156200071357600080fd5b50600b54620002d6906001600160a01b031681565b3480156200073557600080fd5b50600754620002d6906001600160a01b031681565b6060600d6000838152602001908152602001600020805480602002602001604051908101604052809291908181526020016000905b82821015620007db576000848152602090819020604080516060810182526003860290920180546001600160a01b031683526001808201548486015260029091015460ff1615159183019190915290835290920191016200077f565b505050509050919050565b620007f0620040a4565b620007fa620040d3565b600080546040805183815260208101918290526001600160a01b0390921691479162000827919062004e5b565b60006040518083038185875af1925050503d806000811462000866576040519150601f19603f3d011682016040523d82523d6000602084013e6200086b565b606091505b5050905080620008985760405162461bcd60e51b81526004016200088f9062004e79565b60405180910390fd5b50620008a360018055565b565b60606000808311620008cb5760405162461bcd60e51b81526004016200088f9062004ebc565b6000805b600c548110156200092f57600c8181548110620008f057620008f062004eff565b90600052602060002090600d0201600601544210156200091a5781620009168162004f2b565b9250505b80620009268162004f2b565b915050620008cf565b506000846200094060018862004f47565b6200094c919062004f63565b9050600060016200095e878462004f7d565b6200096a919062004f47565b9050828210620009b95760405162461bcd60e51b8152602060048201526019602482015278537461727420696e646578206f7574206f6620626f756e647360381b60448201526064016200088f565b828110620009d157620009ce60018462004f47565b90505b6000620009df838362004f47565b620009ec90600162004f7d565b67ffffffffffffffff81111562000a075762000a07620049f8565b60405190808252806020026020018201604052801562000a4457816020015b62000a30620046c5565b81526020019060019003908162000a265790505b5090506000805b600c548110801562000a5d5750838211155b1562000f5657600c818154811062000a795762000a7962004eff565b90600052602060002090600d02016006015442101562000f415781851115801562000aa45750838211155b1562000f3157600c818154811062000ac05762000ac062004eff565b90600052602060002090600d0201604051806101c0016040529081600082015481526020016001820160009054906101000a90046001600160a01b03166001600160a01b03166001600160a01b0316815260200160028201805462000b259062004f93565b80601f016020809104026020016040519081016040528092919081815260200182805462000b539062004f93565b801562000ba45780601f1062000b785761010080835404028352916020019162000ba4565b820191906000526020600020905b81548152906001019060200180831162000b8657829003601f168201915b5050505050815260200160038201805462000bbf9062004f93565b80601f016020809104026020016040519081016040528092919081815260200182805462000bed9062004f93565b801562000c3e5780601f1062000c125761010080835404028352916020019162000c3e565b820191906000526020600020905b81548152906001019060200180831162000c2057829003601f168201915b5050509183525050600482015460208201526005820154604082015260068201546060820152600782015460ff161515608082015260088201805460a09092019162000c8a9062004f93565b80601f016020809104026020016040519081016040528092919081815260200182805462000cb89062004f93565b801562000d095780601f1062000cdd5761010080835404028352916020019162000d09565b820191906000526020600020905b81548152906001019060200180831162000ceb57829003601f168201915b5050505050815260200160098201805462000d249062004f93565b80601f016020809104026020016040519081016040528092919081815260200182805462000d529062004f93565b801562000da35780601f1062000d775761010080835404028352916020019162000da3565b820191906000526020600020905b81548152906001019060200180831162000d8557829003601f168201915b50505050508152602001600a8201805462000dbe9062004f93565b80601f016020809104026020016040519081016040528092919081815260200182805462000dec9062004f93565b801562000e3d5780601f1062000e115761010080835404028352916020019162000e3d565b820191906000526020600020905b81548152906001019060200180831162000e1f57829003601f168201915b50505050508152602001600b8201805462000e589062004f93565b80601f016020809104026020016040519081016040528092919081815260200182805462000e869062004f93565b801562000ed75780601f1062000eab5761010080835404028352916020019162000ed7565b820191906000526020600020905b81548152906001019060200180831162000eb957829003601f168201915b5050509183525050600c919091015460ff81161515602083015261010090046001600160a01b03166040909101528362000f12878562004f47565b8151811062000f255762000f2562004eff565b60200260200101819052505b8162000f3d8162004f2b565b9250505b8062000f4d8162004f2b565b91505062000a4b565b5090989397509295505050505050565b62000f70620040d3565b600c54811062000f945760405162461bcd60e51b81526004016200088f9062004fcf565b6000600c828154811062000fac5762000fac62004eff565b90600052602060002090600d0201905080600601544210156200100a5760405162461bcd60e51b8152602060048201526015602482015274526f756e64206973207374696c6c2061637469766560581b60448201526064016200088f565b600781015460ff1615620010615760405162461bcd60e51b815260206004820152601960248201527f526f756e6420697320616c72656164792066696e69736865640000000000000060448201526064016200088f565b60058101541562001077576200107782620040fe565b600701805460ff191660011790556200108f60018055565b50565b6060600080805b600c54811015620010f957600c8181548110620010ba57620010ba62004eff565b90600052602060002090600d020160060154421015620010e45781620010e08162004f2b565b9250505b80620010f08162004f2b565b91505062001099565b5060008167ffffffffffffffff811115620011185762001118620049f8565b6040519080825280602002602001820160405280156200115557816020015b62001141620046c5565b815260200190600190039081620011375790505b5090506000805b600c548110156200163a57600c81815481106200117d576200117d62004eff565b90600052602060002090600d0201600601544210156200162557600c8181548110620011ad57620011ad62004eff565b90600052602060002090600d0201604051806101c0016040529081600082015481526020016001820160009054906101000a90046001600160a01b03166001600160a01b03166001600160a01b03168152602001600282018054620012129062004f93565b80601f0160208091040260200160405190810160405280929190818152602001828054620012409062004f93565b8015620012915780601f10620012655761010080835404028352916020019162001291565b820191906000526020600020905b8154815290600101906020018083116200127357829003601f168201915b50505050508152602001600382018054620012ac9062004f93565b80601f0160208091040260200160405190810160405280929190818152602001828054620012da9062004f93565b80156200132b5780601f10620012ff576101008083540402835291602001916200132b565b820191906000526020600020905b8154815290600101906020018083116200130d57829003601f168201915b5050509183525050600482015460208201526005820154604082015260068201546060820152600782015460ff161515608082015260088201805460a090920191620013779062004f93565b80601f0160208091040260200160405190810160405280929190818152602001828054620013a59062004f93565b8015620013f65780601f10620013ca57610100808354040283529160200191620013f6565b820191906000526020600020905b815481529060010190602001808311620013d857829003601f168201915b50505050508152602001600982018054620014119062004f93565b80601f01602080910402602001604051908101604052809291908181526020018280546200143f9062004f93565b8015620014905780601f10620014645761010080835404028352916020019162001490565b820191906000526020600020905b8154815290600101906020018083116200147257829003601f168201915b50505050508152602001600a82018054620014ab9062004f93565b80601f0160208091040260200160405190810160405280929190818152602001828054620014d99062004f93565b80156200152a5780601f10620014fe576101008083540402835291602001916200152a565b820191906000526020600020905b8154815290600101906020018083116200150c57829003601f168201915b50505050508152602001600b82018054620015459062004f93565b80601f0160208091040260200160405190810160405280929190818152602001828054620015739062004f93565b8015620015c45780601f106200159857610100808354040283529160200191620015c4565b820191906000526020600020905b815481529060010190602001808311620015a657829003601f168201915b5050509183525050600c919091015460ff81161515602083015261010090046001600160a01b0316604090910152835184908490811062001609576200160962004eff565b60200260200101819052508180620016219062004f2b565b9250505b80620016318162004f2b565b9150506200115c565b5060005b600183516200164e919062004f47565b811015620017995760005b60018285516200166a919062004f47565b62001676919062004f47565b8110156200178357836200168c82600162004f7d565b815181106200169f576200169f62004eff565b602002602001015160a00151848281518110620016c057620016c062004eff565b602002602001015160a0015110156200176e576000848281518110620016ea57620016ea62004eff565b602002602001015190508482600162001704919062004f7d565b8151811062001717576200171762004eff565b602002602001015185838151811062001734576200173462004eff565b602090810291909101015280856200174e84600162004f7d565b8151811062001761576200176162004eff565b6020026020010181905250505b806200177a8162004f2b565b91505062001659565b5080620017908162004f2b565b9150506200163e565b50600086835111620017ad578251620017af565b865b905060008167ffffffffffffffff811115620017cf57620017cf620049f8565b6040519080825280602002602001820160405280156200180c57816020015b620017f8620046c5565b815260200190600190039081620017ee5790505b50905060005b828110156200186e5784818151811062001830576200183062004eff565b60200260200101518282815181106200184d576200184d62004eff565b60200260200101819052508080620018659062004f2b565b91505062001812565b5097909650945050505050565b60606000808311620018a15760405162461bcd60e51b81526004016200088f9062004ebc565b6000805b600c548110156200190557600c8181548110620018c657620018c662004eff565b90600052602060002090600d020160060154421115620018f05781620018ec8162004f2b565b9250505b80620018fc8162004f2b565b915050620018a5565b506000846200191660018862004f47565b62001922919062004f63565b90506000600162001934878462004f7d565b62001940919062004f47565b90508282106200198f5760405162461bcd60e51b8152602060048201526019602482015278537461727420696e646578206f7574206f6620626f756e647360381b60448201526064016200088f565b828110620019a757620019a460018462004f47565b90505b6000620019b5838362004f47565b620019c290600162004f7d565b67ffffffffffffffff811115620019dd57620019dd620049f8565b60405190808252806020026020018201604052801562001a1a57816020015b62001a06620046c5565b815260200190600190039081620019fc5790505b5090506000805b600c548110801562001a335750838211155b1562000f5657600c818154811062001a4f5762001a4f62004eff565b90600052602060002090600d02016006015442111562001f175781851115801562001a7a5750838211155b1562001f0757600c818154811062001a965762001a9662004eff565b90600052602060002090600d0201604051806101c0016040529081600082015481526020016001820160009054906101000a90046001600160a01b03166001600160a01b03166001600160a01b0316815260200160028201805462001afb9062004f93565b80601f016020809104026020016040519081016040528092919081815260200182805462001b299062004f93565b801562001b7a5780601f1062001b4e5761010080835404028352916020019162001b7a565b820191906000526020600020905b81548152906001019060200180831162001b5c57829003601f168201915b5050505050815260200160038201805462001b959062004f93565b80601f016020809104026020016040519081016040528092919081815260200182805462001bc39062004f93565b801562001c145780601f1062001be85761010080835404028352916020019162001c14565b820191906000526020600020905b81548152906001019060200180831162001bf657829003601f168201915b5050509183525050600482015460208201526005820154604082015260068201546060820152600782015460ff161515608082015260088201805460a09092019162001c609062004f93565b80601f016020809104026020016040519081016040528092919081815260200182805462001c8e9062004f93565b801562001cdf5780601f1062001cb35761010080835404028352916020019162001cdf565b820191906000526020600020905b81548152906001019060200180831162001cc157829003601f168201915b5050505050815260200160098201805462001cfa9062004f93565b80601f016020809104026020016040519081016040528092919081815260200182805462001d289062004f93565b801562001d795780601f1062001d4d5761010080835404028352916020019162001d79565b820191906000526020600020905b81548152906001019060200180831162001d5b57829003601f168201915b50505050508152602001600a8201805462001d949062004f93565b80601f016020809104026020016040519081016040528092919081815260200182805462001dc29062004f93565b801562001e135780601f1062001de75761010080835404028352916020019162001e13565b820191906000526020600020905b81548152906001019060200180831162001df557829003601f168201915b50505050508152602001600b8201805462001e2e9062004f93565b80601f016020809104026020016040519081016040528092919081815260200182805462001e5c9062004f93565b801562001ead5780601f1062001e815761010080835404028352916020019162001ead565b820191906000526020600020905b81548152906001019060200180831162001e8f57829003601f168201915b5050509183525050600c919091015460ff81161515602083015261010090046001600160a01b03166040909101528362001ee8878562004f47565b8151811062001efb5762001efb62004eff565b60200260200101819052505b8162001f138162004f2b565b9250505b8062001f238162004f2b565b91505062001a21565b600c54841062001f505760405162461bcd60e51b81526004016200088f9062004fcf565b6000600c858154811062001f685762001f6862004eff565b90600052602060002090600d0201905080600c0160019054906101000a90046001600160a01b03166001600160a01b0316336001600160a01b03161462001ffd5760405162461bcd60e51b815260206004820152602260248201527f4f6e6c792063726561746f722063616e20656469742074686520736f6369616c604482015261399760f11b60648201526084016200088f565b600881016200200d858262005048565b50600981016200201e848262005048565b50600a81016200202f838262005048565b505050505050565b62002041620040a4565b620008a3600062004308565b62002057620040a4565b600855565b600c81815481106200206d57600080fd5b60009182526020909120600d90910201805460018201546002830180549294506001600160a01b039091169291620020a59062004f93565b80601f0160208091040260200160405190810160405280929190818152602001828054620020d39062004f93565b8015620021245780601f10620020f85761010080835404028352916020019162002124565b820191906000526020600020905b8154815290600101906020018083116200210657829003601f168201915b5050505050908060030180546200213b9062004f93565b80601f0160208091040260200160405190810160405280929190818152602001828054620021699062004f93565b8015620021ba5780601f106200218e57610100808354040283529160200191620021ba565b820191906000526020600020905b8154815290600101906020018083116200219c57829003601f168201915b50505060048401546005850154600686015460078701546008880180549798949793965091945060ff169291620021f19062004f93565b80601f01602080910402602001604051908101604052809291908181526020018280546200221f9062004f93565b8015620022705780601f10620022445761010080835404028352916020019162002270565b820191906000526020600020905b8154815290600101906020018083116200225257829003601f168201915b505050505090806009018054620022879062004f93565b80601f0160208091040260200160405190810160405280929190818152602001828054620022b59062004f93565b8015620023065780601f10620022da5761010080835404028352916020019162002306565b820191906000526020600020905b815481529060010190602001808311620022e857829003601f168201915b50505050509080600a0180546200231d9062004f93565b80601f01602080910402602001604051908101604052809291908181526020018280546200234b9062004f93565b80156200239c5780601f1062002370576101008083540402835291602001916200239c565b820191906000526020600020905b8154815290600101906020018083116200237e57829003601f168201915b50505050509080600b018054620023b39062004f93565b80601f0160208091040260200160405190810160405280929190818152602001828054620023e19062004f93565b8015620024325780601f10620024065761010080835404028352916020019162002432565b820191906000526020600020905b8154815290600101906020018083116200241457829003601f168201915b505050600c909301549192505060ff8116906001600160a01b03610100909104168e565b6060600080805b600c54811015620024f357600c81815481106200247e576200247e62004eff565b90600052602060002090600d02016006015442108015620024c85750600c8181548110620024b057620024b062004eff565b60009182526020909120600c600d90920201015460ff165b15620024de5781620024da8162004f2b565b9250505b80620024ea8162004f2b565b9150506200245d565b5060008167ffffffffffffffff811115620025125762002512620049f8565b6040519080825280602002602001820160405280156200254f57816020015b6200253b620046c5565b815260200190600190039081620025315790505b5090506000805b600c5481101562002a6a57600c818154811062002577576200257762004eff565b90600052602060002090600d02016006015442108015620025c15750600c8181548110620025a957620025a962004eff565b60009182526020909120600c600d90920201015460ff165b1562002a5557600c8181548110620025dd57620025dd62004eff565b90600052602060002090600d0201604051806101c0016040529081600082015481526020016001820160009054906101000a90046001600160a01b03166001600160a01b03166001600160a01b03168152602001600282018054620026429062004f93565b80601f0160208091040260200160405190810160405280929190818152602001828054620026709062004f93565b8015620026c15780601f106200269557610100808354040283529160200191620026c1565b820191906000526020600020905b815481529060010190602001808311620026a357829003601f168201915b50505050508152602001600382018054620026dc9062004f93565b80601f01602080910402602001604051908101604052809291908181526020018280546200270a9062004f93565b80156200275b5780601f106200272f576101008083540402835291602001916200275b565b820191906000526020600020905b8154815290600101906020018083116200273d57829003601f168201915b5050509183525050600482015460208201526005820154604082015260068201546060820152600782015460ff161515608082015260088201805460a090920191620027a79062004f93565b80601f0160208091040260200160405190810160405280929190818152602001828054620027d59062004f93565b8015620028265780601f10620027fa5761010080835404028352916020019162002826565b820191906000526020600020905b8154815290600101906020018083116200280857829003601f168201915b50505050508152602001600982018054620028419062004f93565b80601f01602080910402602001604051908101604052809291908181526020018280546200286f9062004f93565b8015620028c05780601f106200289457610100808354040283529160200191620028c0565b820191906000526020600020905b815481529060010190602001808311620028a257829003601f168201915b50505050508152602001600a82018054620028db9062004f93565b80601f0160208091040260200160405190810160405280929190818152602001828054620029099062004f93565b80156200295a5780601f106200292e576101008083540402835291602001916200295a565b820191906000526020600020905b8154815290600101906020018083116200293c57829003601f168201915b50505050508152602001600b82018054620029759062004f93565b80601f0160208091040260200160405190810160405280929190818152602001828054620029a39062004f93565b8015620029f45780601f10620029c857610100808354040283529160200191620029f4565b820191906000526020600020905b815481529060010190602001808311620029d657829003601f168201915b5050509183525050600c919091015460ff81161515602083015261010090046001600160a01b0316604090910152835184908490811062002a395762002a3962004eff565b6020026020010181905250818062002a519062004f2b565b9250505b8062002a618162004f2b565b91505062002556565b5060005b6001835162002a7e919062004f47565b81101562002bc95760005b600182855162002a9a919062004f47565b62002aa6919062004f47565b81101562002bb3578362002abc82600162004f7d565b8151811062002acf5762002acf62004eff565b602002602001015160a0015184828151811062002af05762002af062004eff565b602002602001015160a00151101562002b9e57600084828151811062002b1a5762002b1a62004eff565b602002602001015190508482600162002b34919062004f7d565b8151811062002b475762002b4762004eff565b602002602001015185838151811062002b645762002b6462004eff565b6020908102919091010152808562002b7e84600162004f7d565b8151811062002b915762002b9162004eff565b6020026020010181905250505b8062002baa8162004f2b565b91505062002a89565b508062002bc08162004f2b565b91505062002a6e565b5060008683511162002bdd57825162002bdf565b865b905060008167ffffffffffffffff81111562002bff5762002bff620049f8565b60405190808252806020026020018201604052801562002c3c57816020015b62002c28620046c5565b81526020019060019003908162002c1e5790505b50905060005b828110156200186e5784818151811062002c605762002c6062004eff565b602002602001015182828151811062002c7d5762002c7d62004eff565b6020026020010181905250808062002c959062004f2b565b91505062002c42565b62002ca8620040a4565b60068162002cb7848662004f7d565b62002cc3919062004f7d565b111562002d135760405162461bcd60e51b815260206004820152601c60248201527f4d617820362520746f74616c2050657263656e7461676520466565730000000060448201526064016200088f565b811562002d6d576007546001600160a01b031662002d6d5760405162461bcd60e51b8152602060048201526016602482015275109d5c9b88151bdad95b881b5d5cdd081899481cd95d60521b60448201526064016200088f565b600492909255600655600555565b62002d85620046c5565b600c54821062002da95760405162461bcd60e51b81526004016200088f9062004fcf565b600c828154811062002dbf5762002dbf62004eff565b90600052602060002090600d0201604051806101c0016040529081600082015481526020016001820160009054906101000a90046001600160a01b03166001600160a01b03166001600160a01b0316815260200160028201805462002e249062004f93565b80601f016020809104026020016040519081016040528092919081815260200182805462002e529062004f93565b801562002ea35780601f1062002e775761010080835404028352916020019162002ea3565b820191906000526020600020905b81548152906001019060200180831162002e8557829003601f168201915b5050505050815260200160038201805462002ebe9062004f93565b80601f016020809104026020016040519081016040528092919081815260200182805462002eec9062004f93565b801562002f3d5780601f1062002f115761010080835404028352916020019162002f3d565b820191906000526020600020905b81548152906001019060200180831162002f1f57829003601f168201915b5050509183525050600482015460208201526005820154604082015260068201546060820152600782015460ff161515608082015260088201805460a09092019162002f899062004f93565b80601f016020809104026020016040519081016040528092919081815260200182805462002fb79062004f93565b8015620030085780601f1062002fdc5761010080835404028352916020019162003008565b820191906000526020600020905b81548152906001019060200180831162002fea57829003601f168201915b50505050508152602001600982018054620030239062004f93565b80601f0160208091040260200160405190810160405280929190818152602001828054620030519062004f93565b8015620030a25780601f106200307657610100808354040283529160200191620030a2565b820191906000526020600020905b8154815290600101906020018083116200308457829003601f168201915b50505050508152602001600a82018054620030bd9062004f93565b80601f0160208091040260200160405190810160405280929190818152602001828054620030eb9062004f93565b80156200313c5780601f1062003110576101008083540402835291602001916200313c565b820191906000526020600020905b8154815290600101906020018083116200311e57829003601f168201915b50505050508152602001600b82018054620031579062004f93565b80601f0160208091040260200160405190810160405280929190818152602001828054620031859062004f93565b8015620031d65780601f10620031aa57610100808354040283529160200191620031d6565b820191906000526020600020905b815481529060010190602001808311620031b857829003601f168201915b5050509183525050600c919091015460ff81161515602083015261010090046001600160a01b031660409091015292915050565b62003214620040a4565b600355565b62003223620040a4565b6001600160a01b038116620032895760405162461bcd60e51b815260206004820152602560248201527f526f7574657220616464726573732063616e6e6f74206265207a65726f206164604482015264647265737360d81b60648201526084016200088f565b600b80546001600160a01b0319166001600160a01b0392909216919091179055565b60005b600c548110156200334757600c8181548110620032cf57620032cf62004eff565b90600052602060002090600d02016006015442101580156200331b5750600c818154811062003302576200330262004eff565b600091825260209091206007600d90920201015460ff16155b1562003332576200332c8162000f66565b62003347565b806200333e8162004f2b565b915050620032ae565b50600c5481106200336c5760405162461bcd60e51b81526004016200088f9062004fcf565b6000600c828154811062003384576200338462004eff565b90600052602060002090600d0201905080600601544210620033db5760405162461bcd60e51b815260206004820152600f60248201526e149bdd5b99081a185cc8195b991959608a1b60448201526064016200088f565b600034116200343c5760405162461bcd60e51b815260206004820152602660248201527f436f6e747269627574696f6e206d7573742062652067726561746572207468616044820152656e207a65726f60d01b60648201526084016200088f565b6000805b6000848152600d60205260409020548110156200350a576000848152600d602052604090208054339190839081106200347d576200347d62004eff565b60009182526020909120600390910201546001600160a01b031603620034f5576000848152600d60205260409020805434919083908110620034c357620034c362004eff565b90600052602060002090600302016001016000828254620034e5919062004f7d565b90915550600192506200350a9050565b80620035018162004f2b565b91505062003440565b50806200358c576000838152600d6020908152604080832081516060810183523381523481850190815292810185815282546001808201855593875294909520905160039094020180546001600160a01b0319166001600160a01b0390941693909317835590519082015590516002909101805460ff19169115159190911790555b34826005016000828254620035a2919062004f7d565b90915550506040805184815234602082015233917fb2ed2e021651f85a4754a44651fc09ac5141bc0329ce4dfe8dd712a5d04a8b39910160405180910390a2505050565b620035f0620040a4565b806001600160a01b03166395d89b416040518163ffffffff1660e01b8152600401600060405180830381865afa9250505080156200365257506040513d6000823e601f3d908101601f191682016040526200364f919081019062005115565b60015b620036a05760405162461bcd60e51b815260206004820152601760248201527f4e6f7420612076616c696420455243323020746f6b656e00000000000000000060448201526064016200088f565b50600780546001600160a01b0383166001600160a01b031990911617905550565b620036cb620040d3565b600c548110620036ef5760405162461bcd60e51b81526004016200088f9062004fcf565b6000600c828154811062003707576200370762004eff565b60009182526020909120600d90910201600781015490915060ff16620037685760405162461bcd60e51b8152602060048201526015602482015274149bdd5b99081a5cc81b9bdd08199a5b9a5cda1959605a1b60448201526064016200088f565b6000806000620037798533620039ad565b92509250925060008311620037d15760405162461bcd60e51b815260206004820152601f60248201527f4e6f20636f6e747269627574696f6e7320666f756e6420666f7220757365720060448201526064016200088f565b8015620038215760405162461bcd60e51b815260206004820152601860248201527f546f6b656e7320616c726561647920636f6c6c6563746564000000000000000060448201526064016200088f565b60005b6000868152600d6020526040902054811015620038e5576000868152600d6020526040902080543391908390811062003861576200386162004eff565b60009182526020909120600390910201546001600160a01b031603620038d0576000868152600d6020526040902080546001919083908110620038a857620038a862004eff565b60009182526020909120600390910201600201805460ff1916911515919091179055620038e5565b80620038dc8162004f2b565b91505062003824565b50600184015460405163a9059cbb60e01b8152336004820152602481018490526001600160a01b0390911690819063a9059cbb906044016020604051808303816000875af11580156200393c573d6000803e3d6000fd5b505050506040513d601f19601f8201168201806040525081019062003962919062005195565b50604080518781526020810185905233917f143b54f5da49c10a9c2e07250ea943b899bf055afa4e72ed0d4a6c3195eb4ccc910160405180910390a250505050506200108f60018055565b6000806000600c805490508510620039d95760405162461bcd60e51b81526004016200088f9062004fcf565b6000600c8681548110620039f157620039f162004eff565b6000918252602082206004600d909202019081015490925090606462003a1983603262004f63565b62003a259190620051b5565b905060009550600094506000935060005b6000898152600d602052604090205481101562003b5b576000898152600d6020526040902080546001600160a01b038a1691908390811062003a7c5762003a7c62004eff565b60009182526020909120600390910201546001600160a01b03160362003b46576000898152600d6020526040902080548290811062003abf5762003abf62004eff565b9060005260206000209060030201600101549650600d60008a8152602001908152602001600020818154811062003afa5762003afa62004eff565b6000918252602090912060026003909202010154600585015460ff90911695501562003b4057600584015462003b31888462004f63565b62003b3d9190620051b5565b95505b62003b5b565b8062003b528162004f2b565b91505062003a36565b505050509250925092565b60005b600c5481101562003c0257600c818154811062003b8a5762003b8a62004eff565b90600052602060002090600d020160060154421015801562003bd65750600c818154811062003bbd5762003bbd62004eff565b600091825260209091206007600d90920201015460ff16155b1562003bed5762003be78162000f66565b62003c02565b8062003bf98162004f2b565b91505062003b69565b50600354811562003c1f5760085462003c1c908262004f7d565b90505b8034101562003c715760405162461bcd60e51b815260206004820152601960248201527f496e73756666696369656e74206372656174696f6e206665650000000000000060448201526064016200088f565b6009546040805160008082526020820192839052926001600160a01b031691849162003c9d9162004e5b565b60006040518083038185875af1925050503d806000811462003cdc576040519150601f19603f3d011682016040523d82523d6000602084013e62003ce1565b606091505b505090508062003d055760405162461bcd60e51b81526004016200088f9062004e79565b60008b8b8b3060405162003d19906200474a565b62003d289493929190620051d8565b604051809103906000f08015801562003d45573d6000803e3d6000fd5b509050600c604051806101c00160405280600c805490508152602001836001600160a01b031681526020018e81526020018d81526020018c8152602001600081526020018b81526020016000151581526020018a81526020018981526020018881526020018781526020018615158152602001336001600160a01b031681525090806001815401808255809150506001900390600052602060002090600d02016000909190919091506000820151816000015560208201518160010160006101000a8154816001600160a01b0302191690836001600160a01b03160217905550604082015181600201908162003e3c919062005048565b506060820151600382019062003e53908262005048565b506080820151600482015560a0820151600582015560c0820151600682015560e082015160078201805460ff1916911515919091179055610100820151600882019062003ea1908262005048565b50610120820151600982019062003eb9908262005048565b50610140820151600a82019062003ed1908262005048565b50610160820151600b82019062003ee9908262005048565b50610180820151600c90910180546101a0909301516001600160a01b031661010002610100600160a81b0319921515929092166001600160a81b0319909316929092171790556040517fb0520f4c27a1775305e68e2b4e20cad78bff1cb9b124bc0e06b59e8b88e99ff09062003f699083908f908f908e90339062005223565b60405180910390a1505050505050505050505050565b62003f89620040a4565b6001600160a01b03811662003ff15760405162461bcd60e51b815260206004820152602760248201527f547265617375727920616464726573732063616e6e6f74206265207a65726f206044820152666164647265737360c81b60648201526084016200088f565b600980546001600160a01b0319166001600160a01b0392909216919091179055565b6200401d620040a4565b6001600160a01b0381166200404957604051631e4fbdf760e01b8152600060048201526024016200088f565b6200108f8162004308565b600d60205281600052604060002081815481106200407157600080fd5b60009182526020909120600390910201805460018201546002909201546001600160a01b03909116935090915060ff1683565b6000546001600160a01b03163314620008a35760405163118cdaa760e01b81523360048201526024016200088f565b600260015403620040f757604051633ee5aeb560e01b815260040160405180910390fd5b6002600155565b6000600c828154811062004116576200411662004eff565b6000918252602082206001600d909202019081015460048201549193506001600160a01b03169160646200414c83603262004f63565b620041589190620051b5565b90506000620041678662004358565b856005015462004178919062004f47565b600b5460405163095ea7b360e01b81526001600160a01b0391821660048201526024810185905291925085169063095ea7b3906044016020604051808303816000875af1158015620041ce573d6000803e3d6000fd5b505050506040513d601f19601f82011682018060405250810190620041f4919062005195565b50600b546002546001600160a01b039182169163f305d719918491889187916000918291166200422742610e1062004f7d565b60405160e089901b6001600160e01b03191681526001600160a01b039687166004820152602481019590955260448501939093526064840191909152909216608482015260a481019190915260c40160606040518083038185885af115801562004295573d6000803e3d6000fd5b50505050506040513d601f19601f82011682018060405250810190620042bc919062005276565b505060408051888152602081018590529081018390527fd7f28048575eead8851d024ead087913957dfb4fd1a02b4d1573f5352a5a2be3915060600160405180910390a1505050505050565b600080546001600160a01b038381166001600160a01b0319831681178455604051919092169283917f8be0079c531659141344cd1fd0a4f28419497f9722a3daafe3b4186f6b6457e09190a35050565b600080600c838154811062004371576200437162004eff565b90600052602060002090600d0201905060006064600554836005015462004399919062004f63565b620043a59190620051b5565b905080156200444457600a546040805160008082526020820192839052926001600160a01b0316918491620043da9162004e5b565b60006040518083038185875af1925050503d806000811462004419576040519150601f19603f3d011682016040523d82523d6000602084013e6200441e565b606091505b5050905080620044425760405162461bcd60e51b81526004016200088f9062004e79565b505b6000606460045484600501546200445c919062004f63565b620044689190620051b5565b9050801562004507576009546040805160008082526020820192839052926001600160a01b03169184916200449d9162004e5b565b60006040518083038185875af1925050503d8060008114620044dc576040519150601f19603f3d011682016040523d82523d6000602084013e620044e1565b606091505b5050905080620045055760405162461bcd60e51b81526004016200088f9062004e79565b505b6000606460065485600501546200451f919062004f63565b6200452b9190620051b5565b90508015620046a2576040805160028082526060820183526000926020830190803683375050600b54604080516315ab88c960e31b815290519394506001600160a01b039091169263ad5c4648925060048083019260209291908290030181865afa1580156200459f573d6000803e3d6000fd5b505050506040513d601f19601f82011682018060405250810190620045c59190620052a5565b81600081518110620045db57620045db62004eff565b6001600160a01b0392831660209182029290920101526007548251911690829060019081106200460f576200460f62004eff565b6001600160a01b039283166020918202929092010152600b546002549082169163b6f9de959185916000918691166200464b42610e1062004f7d565b6040518663ffffffff1660e01b81526004016200466c9493929190620052c5565b6000604051808303818588803b1580156200468657600080fd5b505af11580156200469b573d6000803e3d6000fd5b5050505050505b82620046af828462004f7d565b620046bb919062004f7d565b9695505050505050565b604051806101c001604052806000815260200160006001600160a01b0316815260200160608152602001606081526020016000815260200160008152602001600081526020016000151581526020016060815260200160608152602001606081526020016060815260200160001515815260200160006001600160a01b031681525090565b610df5806200533283390190565b6000602082840312156200476b57600080fd5b5035919050565b602080825282518282018190526000919060409081850190868401855b82811015620047cb57815180516001600160a01b031685528681015187860152850151151585850152606090930192908501906001016200478f565b5091979650505050505050565b60008060408385031215620047ec57600080fd5b50508035926020909101359150565b60005b8381101562004818578181015183820152602001620047fe565b50506000910152565b600081518084526200483b816020860160208601620047fb565b601f01601f19169290920160200192915050565b60006101c08251845260208301516200487360208601826001600160a01b03169052565b5060408301518160408601526200488d8286018262004821565b91505060608301518482036060860152620048a9828262004821565b9150506080830151608085015260a083015160a085015260c083015160c085015260e0830151620048de60e086018215159052565b506101008084015185830382870152620048f9838262004821565b92505050610120808401518583038287015262004917838262004821565b92505050610140808401518583038287015262004935838262004821565b92505050610160808401518583038287015262004953838262004821565b92505050610180808401516200496c8287018215159052565b50506101a0928301516001600160a01b03169390920192909252919050565b6000604082016040835280855180835260608501915060608160051b8601019250602080880160005b83811015620049e657605f19888703018552620049d38683516200484f565b95509382019390820190600101620049b4565b50509490940194909452949350505050565b634e487b7160e01b600052604160045260246000fd5b604051601f8201601f1916810167ffffffffffffffff8111828210171562004a3a5762004a3a620049f8565b604052919050565b600067ffffffffffffffff82111562004a5f5762004a5f620049f8565b50601f01601f191660200190565b600082601f83011262004a7f57600080fd5b813562004a9662004a908262004a42565b62004a0e565b81815284602083860101111562004aac57600080fd5b816020850160208301376000918101602001919091529392505050565b6000806000806080858703121562004ae057600080fd5b84359350602085013567ffffffffffffffff8082111562004b0057600080fd5b62004b0e8883890162004a6d565b9450604087013591508082111562004b2557600080fd5b62004b338883890162004a6d565b9350606087013591508082111562004b4a57600080fd5b5062004b598782880162004a6d565b91505092959194509250565b8e81526001600160a01b038e1660208201526101c06040820152600062004b916101c083018f62004821565b828103606084015262004ba5818f62004821565b90508c60808401528b60a08401528a60c084015262004bc860e084018b15159052565b82810361010084015262004bdd818a62004821565b905082810361012084015262004bf4818962004821565b905082810361014084015262004c0b818862004821565b905082810361016084015262004c22818762004821565b91505062004c3561018083018515159052565b6001600160a01b0383166101a08301529f9e505050505050505050505050505050565b60008060006060848603121562004c6e57600080fd5b505081359360208301359350604090920135919050565b60208152600062004c9a60208301846200484f565b9392505050565b6001600160a01b03811681146200108f57600080fd5b60006020828403121562004cca57600080fd5b813562004c9a8162004ca1565b6000806040838503121562004ceb57600080fd5b82359150602083013562004cff8162004ca1565b809150509250929050565b80151581146200108f57600080fd5b803562004d268162004d0a565b919050565b60008060008060008060008060006101208a8c03121562004d4b57600080fd5b893567ffffffffffffffff8082111562004d6457600080fd5b62004d728d838e0162004a6d565b9a5060208c013591508082111562004d8957600080fd5b62004d978d838e0162004a6d565b995060408c0135985060608c0135975060808c013591508082111562004dbc57600080fd5b62004dca8d838e0162004a6d565b965060a08c013591508082111562004de157600080fd5b62004def8d838e0162004a6d565b955060c08c013591508082111562004e0657600080fd5b62004e148d838e0162004a6d565b945060e08c013591508082111562004e2b57600080fd5b5062004e3a8c828d0162004a6d565b92505062004e4c6101008b0162004d19565b90509295985092959850929598565b6000825162004e6f818460208701620047fb565b9190910192915050565b60208082526023908201527f5472616e7366657248656c7065723a204554485f5452414e534645525f46414960408201526213115160ea1b606082015260800190565b60208082526023908201527f506167652073697a65206d7573742062652067726561746572207468616e207a60408201526265726f60e81b606082015260800190565b634e487b7160e01b600052603260045260246000fd5b634e487b7160e01b600052601160045260246000fd5b60006001820162004f405762004f4062004f15565b5060010190565b8181038181111562004f5d5762004f5d62004f15565b92915050565b808202811582820484141762004f5d5762004f5d62004f15565b8082018082111562004f5d5762004f5d62004f15565b600181811c9082168062004fa857607f821691505b60208210810362004fc957634e487b7160e01b600052602260045260246000fd5b50919050565b60208082526010908201526f125b9d985b1a59081c9bdd5b9908125160821b604082015260600190565b601f8211156200504357600081815260208120601f850160051c81016020861015620050225750805b601f850160051c820191505b818110156200202f578281556001016200502e565b505050565b815167ffffffffffffffff811115620050655762005065620049f8565b6200507d8162005076845462004f93565b8462004ff9565b602080601f831160018114620050b557600084156200509c5750858301515b600019600386901b1c1916600185901b1785556200202f565b600085815260208120601f198616915b82811015620050e657888601518255948401946001909101908401620050c5565b5085821015620051055787850151600019600388901b60f8161c191681555b5050505050600190811b01905550565b6000602082840312156200512857600080fd5b815167ffffffffffffffff8111156200514057600080fd5b8201601f810184136200515257600080fd5b80516200516362004a908262004a42565b8181528560208385010111156200517957600080fd5b6200518c826020830160208601620047fb565b95945050505050565b600060208284031215620051a857600080fd5b815162004c9a8162004d0a565b600082620051d357634e487b7160e01b600052601260045260246000fd5b500490565b608081526000620051ed608083018762004821565b828103602084015262005201818762004821565b604084019590955250506001600160a01b039190911660609091015292915050565b600060018060a01b03808816835260a060208401526200524760a084018862004821565b83810360408501526200525b818862004821565b60608501969096525092909216608090910152509392505050565b6000806000606084860312156200528c57600080fd5b8351925060208401519150604084015190509250925092565b600060208284031215620052b857600080fd5b815162004c9a8162004ca1565b600060808201868352602060808185015281875180845260a086019150828901935060005b81811015620053115784516001600160a01b031683529383019391830191600101620052ea565b50506001600160a01b03969096166040850152505050606001529291505056fe60806040523480156200001157600080fd5b5060405162000df538038062000df5833981016040819052620000349162000382565b3384846003620000458382620004a6565b506004620000548282620004a6565b5050506001600160a01b0381166200008757604051631e4fbdf760e01b8152600060048201526024015b60405180910390fd5b6200009281620000b3565b506200009f818362000105565b620000a962000143565b505050506200059a565b600580546001600160a01b038381166001600160a01b0319831681179093556040519116919082907f8be0079c531659141344cd1fd0a4f28419497f9722a3daafe3b4186f6b6457e090600090a35050565b6001600160a01b038216620001315760405163ec442f0560e01b8152600060048201526024016200007e565b6200013f600083836200015b565b5050565b6200014d6200028e565b620001596000620000b3565b565b6001600160a01b0383166200018a5780600260008282546200017e919062000572565b90915550620001fe9050565b6001600160a01b03831660009081526020819052604090205481811015620001df5760405163391434e360e21b81526001600160a01b038516600482015260248101829052604481018390526064016200007e565b6001600160a01b03841660009081526020819052604090209082900390555b6001600160a01b0382166200021c576002805482900390556200023b565b6001600160a01b03821660009081526020819052604090208054820190555b816001600160a01b0316836001600160a01b03167fddf252ad1be2c89b69c2b068fc378daa952ba7f163c4a11628f55a4df523b3ef836040516200028191815260200190565b60405180910390a3505050565b6005546001600160a01b03163314620001595760405163118cdaa760e01b81523360048201526024016200007e565b634e487b7160e01b600052604160045260246000fd5b600082601f830112620002e557600080fd5b81516001600160401b0380821115620003025762000302620002bd565b604051601f8301601f19908116603f011681019082821181831017156200032d576200032d620002bd565b816040528381526020925086838588010111156200034a57600080fd5b600091505b838210156200036e57858201830151818301840152908201906200034f565b600093810190920192909252949350505050565b600080600080608085870312156200039957600080fd5b84516001600160401b0380821115620003b157600080fd5b620003bf88838901620002d3565b95506020870151915080821115620003d657600080fd5b50620003e587828801620002d3565b60408701516060880151919550935090506001600160a01b03811681146200040c57600080fd5b939692955090935050565b600181811c908216806200042c57607f821691505b6020821081036200044d57634e487b7160e01b600052602260045260246000fd5b50919050565b601f821115620004a157600081815260208120601f850160051c810160208610156200047c5750805b601f850160051c820191505b818110156200049d5782815560010162000488565b5050505b505050565b81516001600160401b03811115620004c257620004c2620002bd565b620004da81620004d3845462000417565b8462000453565b602080601f831160018114620005125760008415620004f95750858301515b600019600386901b1c1916600185901b1785556200049d565b600085815260208120601f198616915b82811015620005435788860151825594840194600190910190840162000522565b5085821015620005625787850151600019600388901b60f8161c191681555b5050505050600190811b01905550565b808201808211156200059457634e487b7160e01b600052601160045260246000fd5b92915050565b61084b80620005aa6000396000f3fe608060405234801561001057600080fd5b50600436106100b45760003560e01c8063715018a611610071578063715018a6146101575780638da5cb5b1461016157806395d89b411461017c578063a9059cbb14610184578063dd62ed3e14610197578063f2fde38b146101d057600080fd5b806306fdde03146100b9578063095ea7b3146100d757806318160ddd146100fa57806323b872dd1461010c578063313ce5671461011f57806370a082311461012e575b600080fd5b6100c16101e3565b6040516100ce9190610695565b60405180910390f35b6100ea6100e53660046106ff565b610275565b60405190151581526020016100ce565b6002545b6040519081526020016100ce565b6100ea61011a366004610729565b61028f565b604051601281526020016100ce565b6100fe61013c366004610765565b6001600160a01b031660009081526020819052604090205490565b61015f6102b3565b005b6005546040516001600160a01b0390911681526020016100ce565b6100c16102c7565b6100ea6101923660046106ff565b6102d6565b6100fe6101a5366004610787565b6001600160a01b03918216600090815260016020908152604080832093909416825291909152205490565b61015f6101de366004610765565b6102e4565b6060600380546101f2906107ba565b80601f016020809104026020016040519081016040528092919081815260200182805461021e906107ba565b801561026b5780601f106102405761010080835404028352916020019161026b565b820191906000526020600020905b81548152906001019060200180831161024e57829003601f168201915b5050505050905090565b600033610283818585610327565b60019150505b92915050565b60003361029d858285610339565b6102a88585856103b8565b506001949350505050565b6102bb610417565b6102c56000610444565b565b6060600480546101f2906107ba565b6000336102838185856103b8565b6102ec610417565b6001600160a01b03811661031b57604051631e4fbdf760e01b8152600060048201526024015b60405180910390fd5b61032481610444565b50565b6103348383836001610496565b505050565b6001600160a01b038381166000908152600160209081526040808320938616835292905220546000198110156103b257818110156103a357604051637dc7a0d960e11b81526001600160a01b03841660048201526024810182905260448101839052606401610312565b6103b284848484036000610496565b50505050565b6001600160a01b0383166103e257604051634b637e8f60e11b815260006004820152602401610312565b6001600160a01b03821661040c5760405163ec442f0560e01b815260006004820152602401610312565b61033483838361056b565b6005546001600160a01b031633146102c55760405163118cdaa760e01b8152336004820152602401610312565b600580546001600160a01b038381166001600160a01b0319831681179093556040519116919082907f8be0079c531659141344cd1fd0a4f28419497f9722a3daafe3b4186f6b6457e090600090a35050565b6001600160a01b0384166104c05760405163e602df0560e01b815260006004820152602401610312565b6001600160a01b0383166104ea57604051634a1406b160e11b815260006004820152602401610312565b6001600160a01b03808516600090815260016020908152604080832093871683529290522082905580156103b257826001600160a01b0316846001600160a01b03167f8c5be1e5ebec7d5bd14f71427d1e84f3dd0314c0f7b2291e5b200ac8c7c3b9258460405161055d91815260200190565b60405180910390a350505050565b6001600160a01b03831661059657806002600082825461058b91906107f4565b909155506106089050565b6001600160a01b038316600090815260208190526040902054818110156105e95760405163391434e360e21b81526001600160a01b03851660048201526024810182905260448101839052606401610312565b6001600160a01b03841660009081526020819052604090209082900390555b6001600160a01b03821661062457600280548290039055610643565b6001600160a01b03821660009081526020819052604090208054820190555b816001600160a01b0316836001600160a01b03167fddf252ad1be2c89b69c2b068fc378daa952ba7f163c4a11628f55a4df523b3ef8360405161068891815260200190565b60405180910390a3505050565b600060208083528351808285015260005b818110156106c2578581018301518582016040015282016106a6565b506000604082860101526040601f19601f8301168501019250505092915050565b80356001600160a01b03811681146106fa57600080fd5b919050565b6000806040838503121561071257600080fd5b61071b836106e3565b946020939093013593505050565b60008060006060848603121561073e57600080fd5b610747846106e3565b9250610755602085016106e3565b9150604084013590509250925092565b60006020828403121561077757600080fd5b610780826106e3565b9392505050565b6000806040838503121561079a57600080fd5b6107a3836106e3565b91506107b1602084016106e3565b90509250929050565b600181811c908216806107ce57607f821691505b6020821081036107ee57634e487b7160e01b600052602260045260246000fd5b50919050565b8082018082111561028957634e487b7160e01b600052601160045260246000fdfea2646970667358221220b26c4ccad4e37bcbe3b892369cf4baa5880bef52f00b5b65d03bdcbd7331b4ef64736f6c63430008140033a264697066735822122035e59d6e99b6404377b55f68e6e16110f78c3f3dc76b7e6fa65997fa9f785ae864736f6c63430008140033",
  "linkReferences": {},
  "deployedLinkReferences": {}
}