{
	"data": {
		"bytecode": {
			"linkReferences": {},
			"object": "608060405234801561001057600080fd5b50613baf806100206000396000f3fe608060405234801561001057600080fd5b506004361061007d5760003560e01c806374c1017b1161005b57806374c1017b146100f0578063bb4b8ce214610114578063c7c7f92314610127578063e767f7ee1461016757600080fd5b806306bfa9381461008257806315d7518e146100b35780631c9a4fd1146100dd575b600080fd5b610095610090366004613421565b61018c565b6040516100aa9998979695949392919061354d565b60405180910390f35b6100c66100c1366004613421565b610a04565b6040516100aa9b9a99989796959493929190613644565b6100956100eb366004613421565b61145b565b6101036100fe366004613421565b611d25565b6040516100aa959493929190613735565b610095610122366004613824565b612381565b61013a610135366004613859565b612b97565b604080519687526020870195909552938501929092526060840152608083015260a082015260c0016100aa565b61017a610175366004613421565b612e39565b6040516100aa969594939291906138c1565b606080606080606080606080606060008a90506000816001600160a01b031663b9fb0fb76040518163ffffffff1660e01b8152600401602060405180830381865afa1580156101df573d6000803e3d6000fd5b505050506040513d601f19601f820116820180604052508101906102039190613943565b9050806001600160401b0381111561021d5761021d61395c565b604051908082528060200260200182016040528015610246578160200160208202803683370190505b509a50806001600160401b038111156102615761026161395c565b60405190808252806020026020018201604052801561028a578160200160208202803683370190505b509950806001600160401b038111156102a5576102a561395c565b6040519080825280602002602001820160405280156102d857816020015b60608152602001906001900390816102c35790505b509850806001600160401b038111156102f3576102f361395c565b60405190808252806020026020018201604052801561032657816020015b60608152602001906001900390816103115790505b509750806001600160401b038111156103415761034161395c565b60405190808252806020026020018201604052801561036a578160200160208202803683370190505b509650806001600160401b038111156103855761038561395c565b6040519080825280602002602001820160405280156103ae578160200160208202803683370190505b509550806001600160401b038111156103c9576103c961395c565b6040519080825280602002602001820160405280156103fc57816020015b60608152602001906001900390816103e75790505b509450806001600160401b038111156104175761041761395c565b60405190808252806020026020018201604052801561044a57816020015b60608152602001906001900390816104355790505b509350806001600160401b038111156104655761046561395c565b60405190808252806020026020018201604052801561048e578160200160208202803683370190505b50925060005b818110156109f45760405163068bcd8d60e01b8152600481018290526001600160a01b0384169063068bcd8d90602401602060405180830381865afa1580156104e1573d6000803e3d6000fd5b505050506040513d601f19601f820116820180604052508101906105059190613972565b8c82815181106105175761051761398f565b60200260200101906001600160a01b031690816001600160a01b0316815250508b81815181106105495761054961398f565b60200260200101516001600160a01b031663cc7a262e6040518163ffffffff1660e01b8152600401602060405180830381865afa15801561058e573d6000803e3d6000fd5b505050506040513d601f19601f820116820180604052508101906105b29190613972565b8b82815181106105c4576105c461398f565b60200260200101906001600160a01b031690816001600160a01b03168152505060008b82815181106105f8576105f861398f565b60200260200101519050806001600160a01b03166306fdde036040518163ffffffff1660e01b8152600401600060405180830381865afa158015610640573d6000803e3d6000fd5b505050506040513d6000823e601f3d908101601f1916820160405261066891908101906139a5565b8b838151811061067a5761067a61398f565b6020026020010181905250806001600160a01b03166395d89b416040518163ffffffff1660e01b8152600401600060405180830381865afa1580156106c3573d6000803e3d6000fd5b505050506040513d6000823e601f3d908101601f191682016040526106eb91908101906139a5565b8a83815181106106fd576106fd61398f565b6020026020010181905250806001600160a01b031663313ce5676040518163ffffffff1660e01b8152600401602060405180830381865afa158015610746573d6000803e3d6000fd5b505050506040513d601f19601f8201168201806040525081019061076a9190613a51565b60ff1689838151811061077f5761077f61398f565b6020026020010181815250508c828151811061079d5761079d61398f565b60200260200101516001600160a01b031663f7c618c16040518163ffffffff1660e01b8152600401602060405180830381865afa1580156107e2573d6000803e3d6000fd5b505050506040513d601f19601f820116820180604052508101906108069190613972565b8883815181106108185761081861398f565b60200260200101906001600160a01b031690816001600160a01b031681525050600088838151811061084c5761084c61398f565b60200260200101519050806001600160a01b03166306fdde036040518163ffffffff1660e01b8152600401600060405180830381865afa158015610894573d6000803e3d6000fd5b505050506040513d6000823e601f3d908101601f191682016040526108bc91908101906139a5565b8884815181106108ce576108ce61398f565b6020026020010181905250806001600160a01b03166395d89b416040518163ffffffff1660e01b8152600401600060405180830381865afa158015610917573d6000803e3d6000fd5b505050506040513d6000823e601f3d908101601f1916820160405261093f91908101906139a5565b8784815181106109515761095161398f565b6020026020010181905250806001600160a01b031663313ce5676040518163ffffffff1660e01b8152600401602060405180830381865afa15801561099a573d6000803e3d6000fd5b505050506040513d601f19601f820116820180604052508101906109be9190613a51565b60ff168684815181106109d3576109d361398f565b602002602001018181525050505080806109ec90613a8a565b915050610494565b5050509193959799909294969850565b606080606080606080606080606080606060008c6001600160a01b031663e8096d456040518163ffffffff1660e01b8152600401602060405180830381865afa158015610a55573d6000803e3d6000fd5b505050506040513d601f19601f82011682018060405250810190610a799190613943565b9050806001600160401b03811115610a9357610a9361395c565b604051908082528060200260200182016040528015610abc578160200160208202803683370190505b509b50806001600160401b03811115610ad757610ad761395c565b604051908082528060200260200182016040528015610b00578160200160208202803683370190505b509a50806001600160401b03811115610b1b57610b1b61395c565b604051908082528060200260200182016040528015610b4e57816020015b6060815260200190600190039081610b395790505b509950806001600160401b03811115610b6957610b6961395c565b604051908082528060200260200182016040528015610b9c57816020015b6060815260200190600190039081610b875790505b509850806001600160401b03811115610bb757610bb761395c565b604051908082528060200260200182016040528015610be0578160200160208202803683370190505b509750806001600160401b03811115610bfb57610bfb61395c565b604051908082528060200260200182016040528015610c24578160200160208202803683370190505b509650806001600160401b03811115610c3f57610c3f61395c565b604051908082528060200260200182016040528015610c7257816020015b6060815260200190600190039081610c5d5790505b509550806001600160401b03811115610c8d57610c8d61395c565b604051908082528060200260200182016040528015610cc057816020015b6060815260200190600190039081610cab5790505b509450806001600160401b03811115610cdb57610cdb61395c565b604051908082528060200260200182016040528015610d0e57816020015b6060815260200190600190039081610cf95790505b509350806001600160401b03811115610d2957610d2961395c565b604051908082528060200260200182016040528015610d52578160200160208202803683370190505b509250806001600160401b03811115610d6d57610d6d61395c565b604051908082528060200260200182016040528015610d96578160200160208202803683370190505b50915060005b8181101561144a57604051636c7b6acb60e11b8152600481018290526001600160a01b038f169063d8f6d59690602401602060405180830381865afa158015610de9573d6000803e3d6000fd5b505050506040513d601f19601f82011682018060405250810190610e0d9190613972565b8d8281518110610e1f57610e1f61398f565b60200260200101906001600160a01b031690816001600160a01b0316815250508c8181518110610e5157610e5161398f565b60200260200101516001600160a01b031663b78136076040518163ffffffff1660e01b8152600401602060405180830381865afa158015610e96573d6000803e3d6000fd5b505050506040513d601f19601f82011682018060405250810190610eba9190613972565b8c8281518110610ecc57610ecc61398f565b60200260200101906001600160a01b031690816001600160a01b03168152505060008c8281518110610f0057610f0061398f565b60200260200101519050806001600160a01b03166306fdde036040518163ffffffff1660e01b8152600401600060405180830381865afa158015610f48573d6000803e3d6000fd5b505050506040513d6000823e601f3d908101601f19168201604052610f7091908101906139a5565b8c8381518110610f8257610f8261398f565b6020026020010181905250806001600160a01b03166395d89b416040518163ffffffff1660e01b8152600401600060405180830381865afa158015610fcb573d6000803e3d6000fd5b505050506040513d6000823e601f3d908101601f19168201604052610ff391908101906139a5565b8b83815181106110055761100561398f565b6020026020010181905250806001600160a01b031663313ce5676040518163ffffffff1660e01b8152600401602060405180830381865afa15801561104e573d6000803e3d6000fd5b505050506040513d601f19601f820116820180604052508101906110729190613a51565b60ff168a83815181106110875761108761398f565b6020026020010181815250508d82815181106110a5576110a561398f565b60200260200101516001600160a01b031663b3f05b976040518163ffffffff1660e01b8152600401602060405180830381865afa1580156110ea573d6000803e3d6000fd5b505050506040513d601f19601f8201168201806040525081019061110e9190613aa3565b8983815181106111205761112061398f565b6020026020010190151590811515815250508d82815181106111445761114461398f565b60200260200101516001600160a01b0316636bb38b286040518163ffffffff1660e01b8152600401600060405180830381865afa158015611189573d6000803e3d6000fd5b505050506040513d6000823e601f3d908101601f191682016040526111b191908101906139a5565b8883815181106111c3576111c361398f565b60200260200101819052508d82815181106111e0576111e061398f565b60200260200101516001600160a01b03166392604bc46040518163ffffffff1660e01b8152600401600060405180830381865afa158015611225573d6000803e3d6000fd5b505050506040513d6000823e601f3d908101601f1916820160405261124d91908101906139a5565b87838151811061125f5761125f61398f565b60200260200101819052508d828151811061127c5761127c61398f565b60200260200101516001600160a01b03166366087e236040518163ffffffff1660e01b8152600401600060405180830381865afa1580156112c1573d6000803e3d6000fd5b505050506040513d6000823e601f3d908101601f191682016040526112e991908101906139a5565b8683815181106112fb576112fb61398f565b60200260200101819052508d82815181106113185761131861398f565b60200260200101516001600160a01b03166307973ccf6040518163ffffffff1660e01b8152600401602060405180830381865afa15801561135d573d6000803e3d6000fd5b505050506040513d601f19601f820116820180604052508101906113819190613943565b8583815181106113935761139361398f565b6020026020010181815250508d82815181106113b1576113b161398f565b60200260200101516001600160a01b0316638da4d3c96040518163ffffffff1660e01b8152600401602060405180830381865afa1580156113f6573d6000803e3d6000fd5b505050506040513d601f19601f8201168201806040525081019061141a9190613943565b84838151811061142c5761142c61398f565b6020908102919091010152508061144281613a8a565b915050610d9c565b505091939597999b90929496989a50565b606080606080606080606080606060008a6001600160a01b031663081e3eda6040518163ffffffff1660e01b8152600401602060405180830381865afa1580156114a9573d6000803e3d6000fd5b505050506040513d601f19601f820116820180604052508101906114cd9190613943565b9050806001600160401b038111156114e7576114e761395c565b604051908082528060200260200182016040528015611510578160200160208202803683370190505b509950806001600160401b0381111561152b5761152b61395c565b604051908082528060200260200182016040528015611554578160200160208202803683370190505b509850806001600160401b0381111561156f5761156f61395c565b6040519080825280602002602001820160405280156115a257816020015b606081526020019060019003908161158d5790505b509750806001600160401b038111156115bd576115bd61395c565b6040519080825280602002602001820160405280156115f057816020015b60608152602001906001900390816115db5790505b509650806001600160401b0381111561160b5761160b61395c565b604051908082528060200260200182016040528015611634578160200160208202803683370190505b509550806001600160401b0381111561164f5761164f61395c565b604051908082528060200260200182016040528015611678578160200160208202803683370190505b509450806001600160401b038111156116935761169361395c565b6040519080825280602002602001820160405280156116c657816020015b60608152602001906001900390816116b15790505b509350806001600160401b038111156116e1576116e161395c565b60405190808252806020026020018201604052801561171457816020015b60608152602001906001900390816116ff5790505b509250806001600160401b0381111561172f5761172f61395c565b604051908082528060200260200182016040528015611758578160200160208202803683370190505b50915060005b81811015611d1657604051631526fe2760e01b8152600481018290526000906001600160a01b038e1690631526fe2790602401608060405180830381865afa1580156117ae573d6000803e3d6000fd5b505050506040513d601f19601f820116820180604052508101906117d29190613ac5565b5050509050808c83815181106117ea576117ea61398f565b60200260200101906001600160a01b031690816001600160a01b03168152505060008c838151811061181e5761181e61398f565b60200260200101519050806001600160a01b0316630dfe16816040518163ffffffff1660e01b8152600401602060405180830381865afa925050508015611882575060408051601f3d908101601f1916820190925261187f91810190613972565b60015b15611d015750806001600160a01b0316630dfe16816040518163ffffffff1660e01b8152600401602060405180830381865afa1580156118c6573d6000803e3d6000fd5b505050506040513d601f19601f820116820180604052508101906118ea9190613972565b8c84815181106118fc576118fc61398f565b60200260200101906001600160a01b031690816001600160a01b031681525050806001600160a01b031663d21220a76040518163ffffffff1660e01b8152600401602060405180830381865afa15801561195a573d6000803e3d6000fd5b505050506040513d601f19601f8201168201806040525081019061197e9190613972565b8884815181106119905761199061398f565b60200260200101906001600160a01b031690816001600160a01b03168152505060008c84815181106119c4576119c461398f565b6020026020010151905060008985815181106119e2576119e261398f565b60200260200101519050816001600160a01b03166306fdde036040518163ffffffff1660e01b8152600401600060405180830381865afa158015611a2a573d6000803e3d6000fd5b505050506040513d6000823e601f3d908101601f19168201604052611a5291908101906139a5565b8d8681518110611a6457611a6461398f565b6020026020010181905250816001600160a01b03166395d89b416040518163ffffffff1660e01b8152600401600060405180830381865afa158015611aad573d6000803e3d6000fd5b505050506040513d6000823e601f3d908101601f19168201604052611ad591908101906139a5565b8c8681518110611ae757611ae761398f565b6020026020010181905250816001600160a01b031663313ce5676040518163ffffffff1660e01b8152600401602060405180830381865afa158015611b30573d6000803e3d6000fd5b505050506040513d601f19601f82011682018060405250810190611b549190613a51565b60ff168b8681518110611b6957611b6961398f565b602002602001018181525050806001600160a01b03166306fdde036040518163ffffffff1660e01b8152600401600060405180830381865afa158015611bb3573d6000803e3d6000fd5b505050506040513d6000823e601f3d908101601f19168201604052611bdb91908101906139a5565b898681518110611bed57611bed61398f565b6020026020010181905250806001600160a01b03166395d89b416040518163ffffffff1660e01b8152600401600060405180830381865afa158015611c36573d6000803e3d6000fd5b505050506040513d6000823e601f3d908101601f19168201604052611c5e91908101906139a5565b888681518110611c7057611c7061398f565b6020026020010181905250806001600160a01b031663313ce5676040518163ffffffff1660e01b8152600401602060405180830381865afa158015611cb9573d6000803e3d6000fd5b505050506040513d601f19601f82011682018060405250810190611cdd9190613a51565b60ff16878681518110611cf257611cf261398f565b60200260200101818152505050505b50508080611d0e90613a8a565b91505061175e565b50509193959799909294969850565b606080606080606060008690506000816001600160a01b031663b9fb0fb76040518163ffffffff1660e01b8152600401602060405180830381865afa158015611d72573d6000803e3d6000fd5b505050506040513d601f19601f82011682018060405250810190611d969190613943565b9050806001600160401b03811115611db057611db061395c565b604051908082528060200260200182016040528015611dd9578160200160208202803683370190505b509650806001600160401b03811115611df457611df461395c565b604051908082528060200260200182016040528015611e1d578160200160208202803683370190505b509550806001600160401b03811115611e3857611e3861395c565b604051908082528060200260200182016040528015611e6b57816020015b6060815260200190600190039081611e565790505b509450806001600160401b03811115611e8657611e8661395c565b604051908082528060200260200182016040528015611eb957816020015b6060815260200190600190039081611ea45790505b509350806001600160401b03811115611ed457611ed461395c565b604051908082528060200260200182016040528015611f1457816020015b604080516020810190915260608152815260200190600190039081611ef25790505b50925060005b818110156123755760405163068bcd8d60e01b8152600481018290526001600160a01b0384169063068bcd8d90602401602060405180830381865afa158015611f67573d6000803e3d6000fd5b505050506040513d601f19601f82011682018060405250810190611f8b9190613972565b888281518110611f9d57611f9d61398f565b60200260200101906001600160a01b031690816001600160a01b031681525050878181518110611fcf57611fcf61398f565b60200260200101516001600160a01b031663cc7a262e6040518163ffffffff1660e01b8152600401602060405180830381865afa158015612014573d6000803e3d6000fd5b505050506040513d601f19601f820116820180604052508101906120389190613972565b87828151811061204a5761204a61398f565b60200260200101906001600160a01b031690816001600160a01b031681525050600087828151811061207e5761207e61398f565b60200260200101519050806001600160a01b03166306fdde036040518163ffffffff1660e01b8152600401600060405180830381865afa1580156120c6573d6000803e3d6000fd5b505050506040513d6000823e601f3d908101601f191682016040526120ee91908101906139a5565b8783815181106121005761210061398f565b6020026020010181905250806001600160a01b03166395d89b416040518163ffffffff1660e01b8152600401600060405180830381865afa158015612149573d6000803e3d6000fd5b505050506040513d6000823e601f3d908101601f1916820160405261217191908101906139a5565b8683815181106121835761218361398f565b602002602001018190525060008983815181106121a2576121a261398f565b60200260200101516001600160a01b031663abb06b956040518163ffffffff1660e01b8152600401602060405180830381865afa1580156121e7573d6000803e3d6000fd5b505050506040513d601f19601f8201168201806040525081019061220b9190613943565b90506000816001600160401b038111156122275761222761395c565b604051908082528060200260200182016040528015612250578160200160208202803683370190505b50905060005b8281101561232c5760008c86815181106122725761227261398f565b60200260200101516001600160a01b031663427f0b00836040518263ffffffff1660e01b81526004016122a791815260200190565b60a060405180830381865afa1580156122c4573d6000803e3d6000fd5b505050506040513d601f19601f820116820180604052508101906122e89190613b04565b505050509050808383815181106123015761230161398f565b6001600160a01b0390921660209283029190910190910152508061232481613a8a565b915050612256565b5060006040518060200160405280838152509050808886815181106123535761235361398f565b602002602001018190525050505050808061236d90613a8a565b915050611f1a565b50505091939590929450565b6060808080808080808060006123978c8c613b4d565b9050806001600160401b038111156123b1576123b161395c565b6040519080825280602002602001820160405280156123da578160200160208202803683370190505b509950806001600160401b038111156123f5576123f561395c565b60405190808252806020026020018201604052801561241e578160200160208202803683370190505b509850806001600160401b038111156124395761243961395c565b60405190808252806020026020018201604052801561246c57816020015b60608152602001906001900390816124575790505b509750806001600160401b038111156124875761248761395c565b6040519080825280602002602001820160405280156124ba57816020015b60608152602001906001900390816124a55790505b509650806001600160401b038111156124d5576124d561395c565b6040519080825280602002602001820160405280156124fe578160200160208202803683370190505b509550806001600160401b038111156125195761251961395c565b604051908082528060200260200182016040528015612542578160200160208202803683370190505b509450806001600160401b0381111561255d5761255d61395c565b60405190808252806020026020018201604052801561259057816020015b606081526020019060019003908161257b5790505b509350806001600160401b038111156125ab576125ab61395c565b6040519080825280602002602001820160405280156125de57816020015b60608152602001906001900390816125c95790505b509250806001600160401b038111156125f9576125f961395c565b604051908082528060200260200182016040528015612622578160200160208202803683370190505b50915060005b81811015612b86578d6001600160a01b0316631e3dd18b828f61264b9190613b66565b6040518263ffffffff1660e01b815260040161266991815260200190565b602060405180830381865afa158015612686573d6000803e3d6000fd5b505050506040513d601f19601f820116820180604052508101906126aa9190613972565b8b82815181106126bc576126bc61398f565b60200260200101906001600160a01b031690816001600160a01b03168152505060008b82815181106126f0576126f061398f565b60200260200101519050806001600160a01b0316630dfe16816040518163ffffffff1660e01b8152600401602060405180830381865afa158015612738573d6000803e3d6000fd5b505050506040513d601f19601f8201168201806040525081019061275c9190613972565b8b838151811061276e5761276e61398f565b60200260200101906001600160a01b031690816001600160a01b031681525050806001600160a01b031663d21220a76040518163ffffffff1660e01b8152600401602060405180830381865afa1580156127cc573d6000803e3d6000fd5b505050506040513d601f19601f820116820180604052508101906127f09190613972565b8783815181106128025761280261398f565b60200260200101906001600160a01b031690816001600160a01b03168152505060008b83815181106128365761283661398f565b6020026020010151905060008884815181106128545761285461398f565b60200260200101519050816001600160a01b03166306fdde036040518163ffffffff1660e01b8152600401600060405180830381865afa15801561289c573d6000803e3d6000fd5b505050506040513d6000823e601f3d908101601f191682016040526128c491908101906139a5565b8c85815181106128d6576128d661398f565b6020026020010181905250816001600160a01b03166395d89b416040518163ffffffff1660e01b8152600401600060405180830381865afa15801561291f573d6000803e3d6000fd5b505050506040513d6000823e601f3d908101601f1916820160405261294791908101906139a5565b8b85815181106129595761295961398f565b6020026020010181905250816001600160a01b031663313ce5676040518163ffffffff1660e01b8152600401602060405180830381865afa1580156129a2573d6000803e3d6000fd5b505050506040513d601f19601f820116820180604052508101906129c69190613a51565b60ff168a85815181106129db576129db61398f565b602002602001018181525050806001600160a01b03166306fdde036040518163ffffffff1660e01b8152600401600060405180830381865afa158015612a25573d6000803e3d6000fd5b505050506040513d6000823e601f3d908101601f19168201604052612a4d91908101906139a5565b888581518110612a5f57612a5f61398f565b6020026020010181905250806001600160a01b03166395d89b416040518163ffffffff1660e01b8152600401600060405180830381865afa158015612aa8573d6000803e3d6000fd5b505050506040513d6000823e601f3d908101601f19168201604052612ad091908101906139a5565b878581518110612ae257612ae261398f565b6020026020010181905250806001600160a01b031663313ce5676040518163ffffffff1660e01b8152600401602060405180830381865afa158015612b2b573d6000803e3d6000fd5b505050506040513d601f19601f82011682018060405250810190612b4f9190613a51565b60ff16868581518110612b6457612b6461398f565b6020026020010181815250505050508080612b7e90613a8a565b915050612628565b505093979b92969a50939750939750565b600080600080600080896001600160a01b0316631526fe278c6040518263ffffffff1660e01b8152600401612bce91815260200190565b608060405180830381865afa158015612beb573d6000803e3d6000fd5b505050506040513d601f19601f82011682018060405250810190612c0f9190613ac5565b9091925090505080965050896001600160a01b03166317caf6f16040518163ffffffff1660e01b8152600401602060405180830381865afa158015612c58573d6000803e3d6000fd5b505050506040513d601f19601f82011682018060405250810190612c7c9190613943565b6040516370a0823160e01b81526001600160a01b038b81166004830152919650908816906370a0823190602401602060405180830381865afa158015612cc6573d6000803e3d6000fd5b505050506040513d601f19601f82011682018060405250810190612cea9190613943565b6040516370a0823160e01b81526001600160a01b038b81166004830152919550908916906370a0823190602401602060405180830381865afa158015612d34573d6000803e3d6000fd5b505050506040513d601f19601f82011682018060405250810190612d589190613943565b6040516370a0823160e01b81526001600160a01b038c81166004830152919450908a16906370a0823190602401602060405180830381865afa158015612da2573d6000803e3d6000fd5b505050506040513d601f19601f82011682018060405250810190612dc69190613943565b9150886001600160a01b03166318160ddd6040518163ffffffff1660e01b8152600401602060405180830381865afa158015612e06573d6000803e3d6000fd5b505050506040513d601f19601f82011682018060405250810190612e2a9190613943565b90509550955095509550955095565b6060806060806060806000876001600160a01b031663e8096d456040518163ffffffff1660e01b8152600401602060405180830381865afa158015612e82573d6000803e3d6000fd5b505050506040513d601f19601f82011682018060405250810190612ea69190613943565b9050806001600160401b03811115612ec057612ec061395c565b604051908082528060200260200182016040528015612ee9578160200160208202803683370190505b509650806001600160401b03811115612f0457612f0461395c565b604051908082528060200260200182016040528015612f2d578160200160208202803683370190505b509550806001600160401b03811115612f4857612f4861395c565b604051908082528060200260200182016040528015612f7b57816020015b6060815260200190600190039081612f665790505b509450806001600160401b03811115612f9657612f9661395c565b604051908082528060200260200182016040528015612fc957816020015b6060815260200190600190039081612fb45790505b509350806001600160401b03811115612fe457612fe461395c565b60405190808252806020026020018201604052801561300d578160200160208202803683370190505b509250806001600160401b038111156130285761302861395c565b604051908082528060200260200182016040528015613051578160200160208202803683370190505b50915060005b818110156133fe57604051636c7b6acb60e11b8152600481018290526001600160a01b038a169063d8f6d59690602401602060405180830381865afa1580156130a4573d6000803e3d6000fd5b505050506040513d601f19601f820116820180604052508101906130c89190613972565b8882815181106130da576130da61398f565b60200260200101906001600160a01b031690816001600160a01b03168152505087818151811061310c5761310c61398f565b60200260200101516001600160a01b031663b78136076040518163ffffffff1660e01b8152600401602060405180830381865afa158015613151573d6000803e3d6000fd5b505050506040513d601f19601f820116820180604052508101906131759190613972565b8782815181106131875761318761398f565b60200260200101906001600160a01b031690816001600160a01b03168152505060008782815181106131bb576131bb61398f565b60200260200101519050806001600160a01b03166306fdde036040518163ffffffff1660e01b8152600401600060405180830381865afa158015613203573d6000803e3d6000fd5b505050506040513d6000823e601f3d908101601f1916820160405261322b91908101906139a5565b87838151811061323d5761323d61398f565b6020026020010181905250806001600160a01b03166395d89b416040518163ffffffff1660e01b8152600401600060405180830381865afa158015613286573d6000803e3d6000fd5b505050506040513d6000823e601f3d908101601f191682016040526132ae91908101906139a5565b8683815181106132c0576132c061398f565b6020026020010181905250806001600160a01b031663313ce5676040518163ffffffff1660e01b8152600401602060405180830381865afa158015613309573d6000803e3d6000fd5b505050506040513d601f19601f8201168201806040525081019061332d9190613a51565b60ff168583815181106133425761334261398f565b6020026020010181815250508882815181106133605761336061398f565b60200260200101516001600160a01b031663b3f05b976040518163ffffffff1660e01b8152600401602060405180830381865afa1580156133a5573d6000803e3d6000fd5b505050506040513d601f19601f820116820180604052508101906133c99190613aa3565b8483815181106133db576133db61398f565b9115156020928302919091019091015250806133f681613a8a565b915050613057565b505091939550919395565b6001600160a01b038116811461341e57600080fd5b50565b60006020828403121561343357600080fd5b813561343e81613409565b9392505050565b600081518084526020808501945080840160005b8381101561347e5781516001600160a01b031687529582019590820190600101613459565b509495945050505050565b60005b838110156134a457818101518382015260200161348c565b50506000910152565b600082825180855260208086019550808260051b84010181860160005b8481101561351057601f1980878503018a52825180518086526134f281888801898501613489565b9a86019a601f019091169390930184019250908301906001016134ca565b5090979650505050505050565b600081518084526020808501945080840160005b8381101561347e57815187529582019590820190600101613531565b60006101208083526135618184018d613445565b90508281036020840152613575818c613445565b90508281036040840152613589818b6134ad565b9050828103606084015261359d818a6134ad565b905082810360808401526135b1818961351d565b905082810360a08401526135c58188613445565b905082810360c08401526135d981876134ad565b905082810360e08401526135ed81866134ad565b9050828103610100840152613602818561351d565b9c9b505050505050505050505050565b600081518084526020808501945080840160005b8381101561347e578151151587529582019590820190600101613626565b60006101608083526136588184018f613445565b9050828103602084015261366c818e613445565b90508281036040840152613680818d6134ad565b90508281036060840152613694818c6134ad565b905082810360808401526136a8818b61351d565b905082810360a08401526136bc818a613612565b905082810360c08401526136d081896134ad565b905082810360e08401526136e481886134ad565b90508281036101008401526136f981876134ad565b905082810361012084015261370e818661351d565b9050828103610140840152613723818561351d565b9e9d5050505050505050505050505050565b60a08152600061374860a0830188613445565b60208382038185015261375b8289613445565b915060408483038186015261377083896134ad565b9250848303606086015261378483886134ad565b925084830360808601528286518085528385019150838160051b8601018489016000805b8481101561381057888403601f190186528251518885528051898601819052908901908390898701905b808310156137fb5783516001600160a01b03168252928b019260019290920191908b01906137d2565b50978a019795505050918701916001016137a8565b50919e9d5050505050505050505050505050565b60008060006060848603121561383957600080fd5b833561384481613409565b95602085013595506040909401359392505050565b600080600080600060a0868803121561387157600080fd5b85359450602086013561388381613409565b9350604086013561389381613409565b925060608601356138a381613409565b915060808601356138b381613409565b809150509295509295909350565b60c0815260006138d460c0830189613445565b82810360208401526138e68189613445565b905082810360408401526138fa81886134ad565b9050828103606084015261390e81876134ad565b90508281036080840152613922818661351d565b905082810360a08401526139368185613612565b9998505050505050505050565b60006020828403121561395557600080fd5b5051919050565b634e487b7160e01b600052604160045260246000fd5b60006020828403121561398457600080fd5b815161343e81613409565b634e487b7160e01b600052603260045260246000fd5b6000602082840312156139b757600080fd5b81516001600160401b03808211156139ce57600080fd5b818401915084601f8301126139e257600080fd5b8151818111156139f4576139f461395c565b604051601f8201601f19908116603f01168101908382118183101715613a1c57613a1c61395c565b81604052828152876020848701011115613a3557600080fd5b613a46836020830160208801613489565b979650505050505050565b600060208284031215613a6357600080fd5b815160ff8116811461343e57600080fd5b634e487b7160e01b600052601160045260246000fd5b600060018201613a9c57613a9c613a74565b5060010190565b600060208284031215613ab557600080fd5b8151801515811461343e57600080fd5b60008060008060808587031215613adb57600080fd5b8451613ae681613409565b60208601516040870151606090970151919890975090945092505050565b600080600080600060a08688031215613b1c57600080fd5b8551613b2781613409565b602087015160408801516060890151608090990151929a91995097965090945092505050565b81810381811115613b6057613b60613a74565b92915050565b80820180821115613b6057613b60613a7456fea2646970667358221220413cff709de0623e1e7bbb7faf842d9d7e783a9b0a48a586638cb51890bd38d364736f6c63430008120033",
			"opcodes": "PUSH1 0x80 PUSH1 0x40 MSTORE CALLVALUE DUP1 ISZERO PUSH2 0x10 JUMPI PUSH1 0x0 DUP1 REVERT JUMPDEST POP PUSH2 0x3BAF DUP1 PUSH2 0x20 PUSH1 0x0 CODECOPY PUSH1 0x0 RETURN INVALID PUSH1 0x80 PUSH1 0x40 MSTORE CALLVALUE DUP1 ISZERO PUSH2 0x10 JUMPI PUSH1 0x0 DUP1 REVERT JUMPDEST POP PUSH1 0x4 CALLDATASIZE LT PUSH2 0x7D JUMPI PUSH1 0x0 CALLDATALOAD PUSH1 0xE0 SHR DUP1 PUSH4 0x74C1017B GT PUSH2 0x5B JUMPI DUP1 PUSH4 0x74C1017B EQ PUSH2 0xF0 JUMPI DUP1 PUSH4 0xBB4B8CE2 EQ PUSH2 0x114 JUMPI DUP1 PUSH4 0xC7C7F923 EQ PUSH2 0x127 JUMPI DUP1 PUSH4 0xE767F7EE EQ PUSH2 0x167 JUMPI PUSH1 0x0 DUP1 REVERT JUMPDEST DUP1 PUSH4 0x6BFA938 EQ PUSH2 0x82 JUMPI DUP1 PUSH4 0x15D7518E EQ PUSH2 0xB3 JUMPI DUP1 PUSH4 0x1C9A4FD1 EQ PUSH2 0xDD JUMPI JUMPDEST PUSH1 0x0 DUP1 REVERT JUMPDEST PUSH2 0x95 PUSH2 0x90 CALLDATASIZE PUSH1 0x4 PUSH2 0x3421 JUMP JUMPDEST PUSH2 0x18C JUMP JUMPDEST PUSH1 0x40 MLOAD PUSH2 0xAA SWAP10 SWAP9 SWAP8 SWAP7 SWAP6 SWAP5 SWAP4 SWAP3 SWAP2 SWAP1 PUSH2 0x354D JUMP JUMPDEST PUSH1 0x40 MLOAD DUP1 SWAP2 SUB SWAP1 RETURN JUMPDEST PUSH2 0xC6 PUSH2 0xC1 CALLDATASIZE PUSH1 0x4 PUSH2 0x3421 JUMP JUMPDEST PUSH2 0xA04 JUMP JUMPDEST PUSH1 0x40 MLOAD PUSH2 0xAA SWAP12 SWAP11 SWAP10 SWAP9 SWAP8 SWAP7 SWAP6 SWAP5 SWAP4 SWAP3 SWAP2 SWAP1 PUSH2 0x3644 JUMP JUMPDEST PUSH2 0x95 PUSH2 0xEB CALLDATASIZE PUSH1 0x4 PUSH2 0x3421 JUMP JUMPDEST PUSH2 0x145B JUMP JUMPDEST PUSH2 0x103 PUSH2 0xFE CALLDATASIZE PUSH1 0x4 PUSH2 0x3421 JUMP JUMPDEST PUSH2 0x1D25 JUMP JUMPDEST PUSH1 0x40 MLOAD PUSH2 0xAA SWAP6 SWAP5 SWAP4 SWAP3 SWAP2 SWAP1 PUSH2 0x3735 JUMP JUMPDEST PUSH2 0x95 PUSH2 0x122 CALLDATASIZE PUSH1 0x4 PUSH2 0x3824 JUMP JUMPDEST PUSH2 0x2381 JUMP JUMPDEST PUSH2 0x13A PUSH2 0x135 CALLDATASIZE PUSH1 0x4 PUSH2 0x3859 JUMP JUMPDEST PUSH2 0x2B97 JUMP JUMPDEST PUSH1 0x40 DUP1 MLOAD SWAP7 DUP8 MSTORE PUSH1 0x20 DUP8 ADD SWAP6 SWAP1 SWAP6 MSTORE SWAP4 DUP6 ADD SWAP3 SWAP1 SWAP3 MSTORE PUSH1 0x60 DUP5 ADD MSTORE PUSH1 0x80 DUP4 ADD MSTORE PUSH1 0xA0 DUP3 ADD MSTORE PUSH1 0xC0 ADD PUSH2 0xAA JUMP JUMPDEST PUSH2 0x17A PUSH2 0x175 CALLDATASIZE PUSH1 0x4 PUSH2 0x3421 JUMP JUMPDEST PUSH2 0x2E39 JUMP JUMPDEST PUSH1 0x40 MLOAD PUSH2 0xAA SWAP7 SWAP6 SWAP5 SWAP4 SWAP3 SWAP2 SWAP1 PUSH2 0x38C1 JUMP JUMPDEST PUSH1 0x60 DUP1 PUSH1 0x60 DUP1 PUSH1 0x60 DUP1 PUSH1 0x60 DUP1 PUSH1 0x60 PUSH1 0x0 DUP11 SWAP1 POP PUSH1 0x0 DUP2 PUSH1 0x1 PUSH1 0x1 PUSH1 0xA0 SHL SUB AND PUSH4 0xB9FB0FB7 PUSH1 0x40 MLOAD DUP2 PUSH4 0xFFFFFFFF AND PUSH1 0xE0 SHL DUP2 MSTORE PUSH1 0x4 ADD PUSH1 0x20 PUSH1 0x40 MLOAD DUP1 DUP4 SUB DUP2 DUP7 GAS STATICCALL ISZERO DUP1 ISZERO PUSH2 0x1DF JUMPI RETURNDATASIZE PUSH1 0x0 DUP1 RETURNDATACOPY RETURNDATASIZE PUSH1 0x0 REVERT JUMPDEST POP POP POP POP PUSH1 0x40 MLOAD RETURNDATASIZE PUSH1 0x1F NOT PUSH1 0x1F DUP3 ADD AND DUP3 ADD DUP1 PUSH1 0x40 MSTORE POP DUP2 ADD SWAP1 PUSH2 0x203 SWAP2 SWAP1 PUSH2 0x3943 JUMP JUMPDEST SWAP1 POP DUP1 PUSH1 0x1 PUSH1 0x1 PUSH1 0x40 SHL SUB DUP2 GT ISZERO PUSH2 0x21D JUMPI PUSH2 0x21D PUSH2 0x395C JUMP JUMPDEST PUSH1 0x40 MLOAD SWAP1 DUP1 DUP3 MSTORE DUP1 PUSH1 0x20 MUL PUSH1 0x20 ADD DUP3 ADD PUSH1 0x40 MSTORE DUP1 ISZERO PUSH2 0x246 JUMPI DUP2 PUSH1 0x20 ADD PUSH1 0x20 DUP3 MUL DUP1 CALLDATASIZE DUP4 CALLDATACOPY ADD SWAP1 POP JUMPDEST POP SWAP11 POP DUP1 PUSH1 0x1 PUSH1 0x1 PUSH1 0x40 SHL SUB DUP2 GT ISZERO PUSH2 0x261 JUMPI PUSH2 0x261 PUSH2 0x395C JUMP JUMPDEST PUSH1 0x40 MLOAD SWAP1 DUP1 DUP3 MSTORE DUP1 PUSH1 0x20 MUL PUSH1 0x20 ADD DUP3 ADD PUSH1 0x40 MSTORE DUP1 ISZERO PUSH2 0x28A JUMPI DUP2 PUSH1 0x20 ADD PUSH1 0x20 DUP3 MUL DUP1 CALLDATASIZE DUP4 CALLDATACOPY ADD SWAP1 POP JUMPDEST POP SWAP10 POP DUP1 PUSH1 0x1 PUSH1 0x1 PUSH1 0x40 SHL SUB DUP2 GT ISZERO PUSH2 0x2A5 JUMPI PUSH2 0x2A5 PUSH2 0x395C JUMP JUMPDEST PUSH1 0x40 MLOAD SWAP1 DUP1 DUP3 MSTORE DUP1 PUSH1 0x20 MUL PUSH1 0x20 ADD DUP3 ADD PUSH1 0x40 MSTORE DUP1 ISZERO PUSH2 0x2D8 JUMPI DUP2 PUSH1 0x20 ADD JUMPDEST PUSH1 0x60 DUP2 MSTORE PUSH1 0x20 ADD SWAP1 PUSH1 0x1 SWAP1 SUB SWAP1 DUP2 PUSH2 0x2C3 JUMPI SWAP1 POP JUMPDEST POP SWAP9 POP DUP1 PUSH1 0x1 PUSH1 0x1 PUSH1 0x40 SHL SUB DUP2 GT ISZERO PUSH2 0x2F3 JUMPI PUSH2 0x2F3 PUSH2 0x395C JUMP JUMPDEST PUSH1 0x40 MLOAD SWAP1 DUP1 DUP3 MSTORE DUP1 PUSH1 0x20 MUL PUSH1 0x20 ADD DUP3 ADD PUSH1 0x40 MSTORE DUP1 ISZERO PUSH2 0x326 JUMPI DUP2 PUSH1 0x20 ADD JUMPDEST PUSH1 0x60 DUP2 MSTORE PUSH1 0x20 ADD SWAP1 PUSH1 0x1 SWAP1 SUB SWAP1 DUP2 PUSH2 0x311 JUMPI SWAP1 POP JUMPDEST POP SWAP8 POP DUP1 PUSH1 0x1 PUSH1 0x1 PUSH1 0x40 SHL SUB DUP2 GT ISZERO PUSH2 0x341 JUMPI PUSH2 0x341 PUSH2 0x395C JUMP JUMPDEST PUSH1 0x40 MLOAD SWAP1 DUP1 DUP3 MSTORE DUP1 PUSH1 0x20 MUL PUSH1 0x20 ADD DUP3 ADD PUSH1 0x40 MSTORE DUP1 ISZERO PUSH2 0x36A JUMPI DUP2 PUSH1 0x20 ADD PUSH1 0x20 DUP3 MUL DUP1 CALLDATASIZE DUP4 CALLDATACOPY ADD SWAP1 POP JUMPDEST POP SWAP7 POP DUP1 PUSH1 0x1 PUSH1 0x1 PUSH1 0x40 SHL SUB DUP2 GT ISZERO PUSH2 0x385 JUMPI PUSH2 0x385 PUSH2 0x395C JUMP JUMPDEST PUSH1 0x40 MLOAD SWAP1 DUP1 DUP3 MSTORE DUP1 PUSH1 0x20 MUL PUSH1 0x20 ADD DUP3 ADD PUSH1 0x40 MSTORE DUP1 ISZERO PUSH2 0x3AE JUMPI DUP2 PUSH1 0x20 ADD PUSH1 0x20 DUP3 MUL DUP1 CALLDATASIZE DUP4 CALLDATACOPY ADD SWAP1 POP JUMPDEST POP SWAP6 POP DUP1 PUSH1 0x1 PUSH1 0x1 PUSH1 0x40 SHL SUB DUP2 GT ISZERO PUSH2 0x3C9 JUMPI PUSH2 0x3C9 PUSH2 0x395C JUMP JUMPDEST PUSH1 0x40 MLOAD SWAP1 DUP1 DUP3 MSTORE DUP1 PUSH1 0x20 MUL PUSH1 0x20 ADD DUP3 ADD PUSH1 0x40 MSTORE DUP1 ISZERO PUSH2 0x3FC JUMPI DUP2 PUSH1 0x20 ADD JUMPDEST PUSH1 0x60 DUP2 MSTORE PUSH1 0x20 ADD SWAP1 PUSH1 0x1 SWAP1 SUB SWAP1 DUP2 PUSH2 0x3E7 JUMPI SWAP1 POP JUMPDEST POP SWAP5 POP DUP1 PUSH1 0x1 PUSH1 0x1 PUSH1 0x40 SHL SUB DUP2 GT ISZERO PUSH2 0x417 JUMPI PUSH2 0x417 PUSH2 0x395C JUMP JUMPDEST PUSH1 0x40 MLOAD SWAP1 DUP1 DUP3 MSTORE DUP1 PUSH1 0x20 MUL PUSH1 0x20 ADD DUP3 ADD PUSH1 0x40 MSTORE DUP1 ISZERO PUSH2 0x44A JUMPI DUP2 PUSH1 0x20 ADD JUMPDEST PUSH1 0x60 DUP2 MSTORE PUSH1 0x20 ADD SWAP1 PUSH1 0x1 SWAP1 SUB SWAP1 DUP2 PUSH2 0x435 JUMPI SWAP1 POP JUMPDEST POP SWAP4 POP DUP1 PUSH1 0x1 PUSH1 0x1 PUSH1 0x40 SHL SUB DUP2 GT ISZERO PUSH2 0x465 JUMPI PUSH2 0x465 PUSH2 0x395C JUMP JUMPDEST PUSH1 0x40 MLOAD SWAP1 DUP1 DUP3 MSTORE DUP1 PUSH1 0x20 MUL PUSH1 0x20 ADD DUP3 ADD PUSH1 0x40 MSTORE DUP1 ISZERO PUSH2 0x48E JUMPI DUP2 PUSH1 0x20 ADD PUSH1 0x20 DUP3 MUL DUP1 CALLDATASIZE DUP4 CALLDATACOPY ADD SWAP1 POP JUMPDEST POP SWAP3 POP PUSH1 0x0 JUMPDEST DUP2 DUP2 LT ISZERO PUSH2 0x9F4 JUMPI PUSH1 0x40 MLOAD PUSH4 0x68BCD8D PUSH1 0xE0 SHL DUP2 MSTORE PUSH1 0x4 DUP2 ADD DUP3 SWAP1 MSTORE PUSH1 0x1 PUSH1 0x1 PUSH1 0xA0 SHL SUB DUP5 AND SWAP1 PUSH4 0x68BCD8D SWAP1 PUSH1 0x24 ADD PUSH1 0x20 PUSH1 0x40 MLOAD DUP1 DUP4 SUB DUP2 DUP7 GAS STATICCALL ISZERO DUP1 ISZERO PUSH2 0x4E1 JUMPI RETURNDATASIZE PUSH1 0x0 DUP1 RETURNDATACOPY RETURNDATASIZE PUSH1 0x0 REVERT JUMPDEST POP POP POP POP PUSH1 0x40 MLOAD RETURNDATASIZE PUSH1 0x1F NOT PUSH1 0x1F DUP3 ADD AND DUP3 ADD DUP1 PUSH1 0x40 MSTORE POP DUP2 ADD SWAP1 PUSH2 0x505 SWAP2 SWAP1 PUSH2 0x3972 JUMP JUMPDEST DUP13 DUP3 DUP2 MLOAD DUP2 LT PUSH2 0x517 JUMPI PUSH2 0x517 PUSH2 0x398F JUMP JUMPDEST PUSH1 0x20 MUL PUSH1 0x20 ADD ADD SWAP1 PUSH1 0x1 PUSH1 0x1 PUSH1 0xA0 SHL SUB AND SWAP1 DUP2 PUSH1 0x1 PUSH1 0x1 PUSH1 0xA0 SHL SUB AND DUP2 MSTORE POP POP DUP12 DUP2 DUP2 MLOAD DUP2 LT PUSH2 0x549 JUMPI PUSH2 0x549 PUSH2 0x398F JUMP JUMPDEST PUSH1 0x20 MUL PUSH1 0x20 ADD ADD MLOAD PUSH1 0x1 PUSH1 0x1 PUSH1 0xA0 SHL SUB AND PUSH4 0xCC7A262E PUSH1 0x40 MLOAD DUP2 PUSH4 0xFFFFFFFF AND PUSH1 0xE0 SHL DUP2 MSTORE PUSH1 0x4 ADD PUSH1 0x20 PUSH1 0x40 MLOAD DUP1 DUP4 SUB DUP2 DUP7 GAS STATICCALL ISZERO DUP1 ISZERO PUSH2 0x58E JUMPI RETURNDATASIZE PUSH1 0x0 DUP1 RETURNDATACOPY RETURNDATASIZE PUSH1 0x0 REVERT JUMPDEST POP POP POP POP PUSH1 0x40 MLOAD RETURNDATASIZE PUSH1 0x1F NOT PUSH1 0x1F DUP3 ADD AND DUP3 ADD DUP1 PUSH1 0x40 MSTORE POP DUP2 ADD SWAP1 PUSH2 0x5B2 SWAP2 SWAP1 PUSH2 0x3972 JUMP JUMPDEST DUP12 DUP3 DUP2 MLOAD DUP2 LT PUSH2 0x5C4 JUMPI PUSH2 0x5C4 PUSH2 0x398F JUMP JUMPDEST PUSH1 0x20 MUL PUSH1 0x20 ADD ADD SWAP1 PUSH1 0x1 PUSH1 0x1 PUSH1 0xA0 SHL SUB AND SWAP1 DUP2 PUSH1 0x1 PUSH1 0x1 PUSH1 0xA0 SHL SUB AND DUP2 MSTORE POP POP PUSH1 0x0 DUP12 DUP3 DUP2 MLOAD DUP2 LT PUSH2 0x5F8 JUMPI PUSH2 0x5F8 PUSH2 0x398F JUMP JUMPDEST PUSH1 0x20 MUL PUSH1 0x20 ADD ADD MLOAD SWAP1 POP DUP1 PUSH1 0x1 PUSH1 0x1 PUSH1 0xA0 SHL SUB AND PUSH4 0x6FDDE03 PUSH1 0x40 MLOAD DUP2 PUSH4 0xFFFFFFFF AND PUSH1 0xE0 SHL DUP2 MSTORE PUSH1 0x4 ADD PUSH1 0x0 PUSH1 0x40 MLOAD DUP1 DUP4 SUB DUP2 DUP7 GAS STATICCALL ISZERO DUP1 ISZERO PUSH2 0x640 JUMPI RETURNDATASIZE PUSH1 0x0 DUP1 RETURNDATACOPY RETURNDATASIZE PUSH1 0x0 REVERT JUMPDEST POP POP POP POP PUSH1 0x40 MLOAD RETURNDATASIZE PUSH1 0x0 DUP3 RETURNDATACOPY PUSH1 0x1F RETURNDATASIZE SWAP1 DUP2 ADD PUSH1 0x1F NOT AND DUP3 ADD PUSH1 0x40 MSTORE PUSH2 0x668 SWAP2 SWAP1 DUP2 ADD SWAP1 PUSH2 0x39A5 JUMP JUMPDEST DUP12 DUP4 DUP2 MLOAD DUP2 LT PUSH2 0x67A JUMPI PUSH2 0x67A PUSH2 0x398F JUMP JUMPDEST PUSH1 0x20 MUL PUSH1 0x20 ADD ADD DUP2 SWAP1 MSTORE POP DUP1 PUSH1 0x1 PUSH1 0x1 PUSH1 0xA0 SHL SUB AND PUSH4 0x95D89B41 PUSH1 0x40 MLOAD DUP2 PUSH4 0xFFFFFFFF AND PUSH1 0xE0 SHL DUP2 MSTORE PUSH1 0x4 ADD PUSH1 0x0 PUSH1 0x40 MLOAD DUP1 DUP4 SUB DUP2 DUP7 GAS STATICCALL ISZERO DUP1 ISZERO PUSH2 0x6C3 JUMPI RETURNDATASIZE PUSH1 0x0 DUP1 RETURNDATACOPY RETURNDATASIZE PUSH1 0x0 REVERT JUMPDEST POP POP POP POP PUSH1 0x40 MLOAD RETURNDATASIZE PUSH1 0x0 DUP3 RETURNDATACOPY PUSH1 0x1F RETURNDATASIZE SWAP1 DUP2 ADD PUSH1 0x1F NOT AND DUP3 ADD PUSH1 0x40 MSTORE PUSH2 0x6EB SWAP2 SWAP1 DUP2 ADD SWAP1 PUSH2 0x39A5 JUMP JUMPDEST DUP11 DUP4 DUP2 MLOAD DUP2 LT PUSH2 0x6FD JUMPI PUSH2 0x6FD PUSH2 0x398F JUMP JUMPDEST PUSH1 0x20 MUL PUSH1 0x20 ADD ADD DUP2 SWAP1 MSTORE POP DUP1 PUSH1 0x1 PUSH1 0x1 PUSH1 0xA0 SHL SUB AND PUSH4 0x313CE567 PUSH1 0x40 MLOAD DUP2 PUSH4 0xFFFFFFFF AND PUSH1 0xE0 SHL DUP2 MSTORE PUSH1 0x4 ADD PUSH1 0x20 PUSH1 0x40 MLOAD DUP1 DUP4 SUB DUP2 DUP7 GAS STATICCALL ISZERO DUP1 ISZERO PUSH2 0x746 JUMPI RETURNDATASIZE PUSH1 0x0 DUP1 RETURNDATACOPY RETURNDATASIZE PUSH1 0x0 REVERT JUMPDEST POP POP POP POP PUSH1 0x40 MLOAD RETURNDATASIZE PUSH1 0x1F NOT PUSH1 0x1F DUP3 ADD AND DUP3 ADD DUP1 PUSH1 0x40 MSTORE POP DUP2 ADD SWAP1 PUSH2 0x76A SWAP2 SWAP1 PUSH2 0x3A51 JUMP JUMPDEST PUSH1 0xFF AND DUP10 DUP4 DUP2 MLOAD DUP2 LT PUSH2 0x77F JUMPI PUSH2 0x77F PUSH2 0x398F JUMP JUMPDEST PUSH1 0x20 MUL PUSH1 0x20 ADD ADD DUP2 DUP2 MSTORE POP POP DUP13 DUP3 DUP2 MLOAD DUP2 LT PUSH2 0x79D JUMPI PUSH2 0x79D PUSH2 0x398F JUMP JUMPDEST PUSH1 0x20 MUL PUSH1 0x20 ADD ADD MLOAD PUSH1 0x1 PUSH1 0x1 PUSH1 0xA0 SHL SUB AND PUSH4 0xF7C618C1 PUSH1 0x40 MLOAD DUP2 PUSH4 0xFFFFFFFF AND PUSH1 0xE0 SHL DUP2 MSTORE PUSH1 0x4 ADD PUSH1 0x20 PUSH1 0x40 MLOAD DUP1 DUP4 SUB DUP2 DUP7 GAS STATICCALL ISZERO DUP1 ISZERO PUSH2 0x7E2 JUMPI RETURNDATASIZE PUSH1 0x0 DUP1 RETURNDATACOPY RETURNDATASIZE PUSH1 0x0 REVERT JUMPDEST POP POP POP POP PUSH1 0x40 MLOAD RETURNDATASIZE PUSH1 0x1F NOT PUSH1 0x1F DUP3 ADD AND DUP3 ADD DUP1 PUSH1 0x40 MSTORE POP DUP2 ADD SWAP1 PUSH2 0x806 SWAP2 SWAP1 PUSH2 0x3972 JUMP JUMPDEST DUP9 DUP4 DUP2 MLOAD DUP2 LT PUSH2 0x818 JUMPI PUSH2 0x818 PUSH2 0x398F JUMP JUMPDEST PUSH1 0x20 MUL PUSH1 0x20 ADD ADD SWAP1 PUSH1 0x1 PUSH1 0x1 PUSH1 0xA0 SHL SUB AND SWAP1 DUP2 PUSH1 0x1 PUSH1 0x1 PUSH1 0xA0 SHL SUB AND DUP2 MSTORE POP POP PUSH1 0x0 DUP9 DUP4 DUP2 MLOAD DUP2 LT PUSH2 0x84C JUMPI PUSH2 0x84C PUSH2 0x398F JUMP JUMPDEST PUSH1 0x20 MUL PUSH1 0x20 ADD ADD MLOAD SWAP1 POP DUP1 PUSH1 0x1 PUSH1 0x1 PUSH1 0xA0 SHL SUB AND PUSH4 0x6FDDE03 PUSH1 0x40 MLOAD DUP2 PUSH4 0xFFFFFFFF AND PUSH1 0xE0 SHL DUP2 MSTORE PUSH1 0x4 ADD PUSH1 0x0 PUSH1 0x40 MLOAD DUP1 DUP4 SUB DUP2 DUP7 GAS STATICCALL ISZERO DUP1 ISZERO PUSH2 0x894 JUMPI RETURNDATASIZE PUSH1 0x0 DUP1 RETURNDATACOPY RETURNDATASIZE PUSH1 0x0 REVERT JUMPDEST POP POP POP POP PUSH1 0x40 MLOAD RETURNDATASIZE PUSH1 0x0 DUP3 RETURNDATACOPY PUSH1 0x1F RETURNDATASIZE SWAP1 DUP2 ADD PUSH1 0x1F NOT AND DUP3 ADD PUSH1 0x40 MSTORE PUSH2 0x8BC SWAP2 SWAP1 DUP2 ADD SWAP1 PUSH2 0x39A5 JUMP JUMPDEST DUP9 DUP5 DUP2 MLOAD DUP2 LT PUSH2 0x8CE JUMPI PUSH2 0x8CE PUSH2 0x398F JUMP JUMPDEST PUSH1 0x20 MUL PUSH1 0x20 ADD ADD DUP2 SWAP1 MSTORE POP DUP1 PUSH1 0x1 PUSH1 0x1 PUSH1 0xA0 SHL SUB AND PUSH4 0x95D89B41 PUSH1 0x40 MLOAD DUP2 PUSH4 0xFFFFFFFF AND PUSH1 0xE0 SHL DUP2 MSTORE PUSH1 0x4 ADD PUSH1 0x0 PUSH1 0x40 MLOAD DUP1 DUP4 SUB DUP2 DUP7 GAS STATICCALL ISZERO DUP1 ISZERO PUSH2 0x917 JUMPI RETURNDATASIZE PUSH1 0x0 DUP1 RETURNDATACOPY RETURNDATASIZE PUSH1 0x0 REVERT JUMPDEST POP POP POP POP PUSH1 0x40 MLOAD RETURNDATASIZE PUSH1 0x0 DUP3 RETURNDATACOPY PUSH1 0x1F RETURNDATASIZE SWAP1 DUP2 ADD PUSH1 0x1F NOT AND DUP3 ADD PUSH1 0x40 MSTORE PUSH2 0x93F SWAP2 SWAP1 DUP2 ADD SWAP1 PUSH2 0x39A5 JUMP JUMPDEST DUP8 DUP5 DUP2 MLOAD DUP2 LT PUSH2 0x951 JUMPI PUSH2 0x951 PUSH2 0x398F JUMP JUMPDEST PUSH1 0x20 MUL PUSH1 0x20 ADD ADD DUP2 SWAP1 MSTORE POP DUP1 PUSH1 0x1 PUSH1 0x1 PUSH1 0xA0 SHL SUB AND PUSH4 0x313CE567 PUSH1 0x40 MLOAD DUP2 PUSH4 0xFFFFFFFF AND PUSH1 0xE0 SHL DUP2 MSTORE PUSH1 0x4 ADD PUSH1 0x20 PUSH1 0x40 MLOAD DUP1 DUP4 SUB DUP2 DUP7 GAS STATICCALL ISZERO DUP1 ISZERO PUSH2 0x99A JUMPI RETURNDATASIZE PUSH1 0x0 DUP1 RETURNDATACOPY RETURNDATASIZE PUSH1 0x0 REVERT JUMPDEST POP POP POP POP PUSH1 0x40 MLOAD RETURNDATASIZE PUSH1 0x1F NOT PUSH1 0x1F DUP3 ADD AND DUP3 ADD DUP1 PUSH1 0x40 MSTORE POP DUP2 ADD SWAP1 PUSH2 0x9BE SWAP2 SWAP1 PUSH2 0x3A51 JUMP JUMPDEST PUSH1 0xFF AND DUP7 DUP5 DUP2 MLOAD DUP2 LT PUSH2 0x9D3 JUMPI PUSH2 0x9D3 PUSH2 0x398F JUMP JUMPDEST PUSH1 0x20 MUL PUSH1 0x20 ADD ADD DUP2 DUP2 MSTORE POP POP POP POP DUP1 DUP1 PUSH2 0x9EC SWAP1 PUSH2 0x3A8A JUMP JUMPDEST SWAP2 POP POP PUSH2 0x494 JUMP JUMPDEST POP POP POP SWAP2 SWAP4 SWAP6 SWAP8 SWAP10 SWAP1 SWAP3 SWAP5 SWAP7 SWAP9 POP JUMP JUMPDEST PUSH1 0x60 DUP1 PUSH1 0x60 DUP1 PUSH1 0x60 DUP1 PUSH1 0x60 DUP1 PUSH1 0x60 DUP1 PUSH1 0x60 PUSH1 0x0 DUP13 PUSH1 0x1 PUSH1 0x1 PUSH1 0xA0 SHL SUB AND PUSH4 0xE8096D45 PUSH1 0x40 MLOAD DUP2 PUSH4 0xFFFFFFFF AND PUSH1 0xE0 SHL DUP2 MSTORE PUSH1 0x4 ADD PUSH1 0x20 PUSH1 0x40 MLOAD DUP1 DUP4 SUB DUP2 DUP7 GAS STATICCALL ISZERO DUP1 ISZERO PUSH2 0xA55 JUMPI RETURNDATASIZE PUSH1 0x0 DUP1 RETURNDATACOPY RETURNDATASIZE PUSH1 0x0 REVERT JUMPDEST POP POP POP POP PUSH1 0x40 MLOAD RETURNDATASIZE PUSH1 0x1F NOT PUSH1 0x1F DUP3 ADD AND DUP3 ADD DUP1 PUSH1 0x40 MSTORE POP DUP2 ADD SWAP1 PUSH2 0xA79 SWAP2 SWAP1 PUSH2 0x3943 JUMP JUMPDEST SWAP1 POP DUP1 PUSH1 0x1 PUSH1 0x1 PUSH1 0x40 SHL SUB DUP2 GT ISZERO PUSH2 0xA93 JUMPI PUSH2 0xA93 PUSH2 0x395C JUMP JUMPDEST PUSH1 0x40 MLOAD SWAP1 DUP1 DUP3 MSTORE DUP1 PUSH1 0x20 MUL PUSH1 0x20 ADD DUP3 ADD PUSH1 0x40 MSTORE DUP1 ISZERO PUSH2 0xABC JUMPI DUP2 PUSH1 0x20 ADD PUSH1 0x20 DUP3 MUL DUP1 CALLDATASIZE DUP4 CALLDATACOPY ADD SWAP1 POP JUMPDEST POP SWAP12 POP DUP1 PUSH1 0x1 PUSH1 0x1 PUSH1 0x40 SHL SUB DUP2 GT ISZERO PUSH2 0xAD7 JUMPI PUSH2 0xAD7 PUSH2 0x395C JUMP JUMPDEST PUSH1 0x40 MLOAD SWAP1 DUP1 DUP3 MSTORE DUP1 PUSH1 0x20 MUL PUSH1 0x20 ADD DUP3 ADD PUSH1 0x40 MSTORE DUP1 ISZERO PUSH2 0xB00 JUMPI DUP2 PUSH1 0x20 ADD PUSH1 0x20 DUP3 MUL DUP1 CALLDATASIZE DUP4 CALLDATACOPY ADD SWAP1 POP JUMPDEST POP SWAP11 POP DUP1 PUSH1 0x1 PUSH1 0x1 PUSH1 0x40 SHL SUB DUP2 GT ISZERO PUSH2 0xB1B JUMPI PUSH2 0xB1B PUSH2 0x395C JUMP JUMPDEST PUSH1 0x40 MLOAD SWAP1 DUP1 DUP3 MSTORE DUP1 PUSH1 0x20 MUL PUSH1 0x20 ADD DUP3 ADD PUSH1 0x40 MSTORE DUP1 ISZERO PUSH2 0xB4E JUMPI DUP2 PUSH1 0x20 ADD JUMPDEST PUSH1 0x60 DUP2 MSTORE PUSH1 0x20 ADD SWAP1 PUSH1 0x1 SWAP1 SUB SWAP1 DUP2 PUSH2 0xB39 JUMPI SWAP1 POP JUMPDEST POP SWAP10 POP DUP1 PUSH1 0x1 PUSH1 0x1 PUSH1 0x40 SHL SUB DUP2 GT ISZERO PUSH2 0xB69 JUMPI PUSH2 0xB69 PUSH2 0x395C JUMP JUMPDEST PUSH1 0x40 MLOAD SWAP1 DUP1 DUP3 MSTORE DUP1 PUSH1 0x20 MUL PUSH1 0x20 ADD DUP3 ADD PUSH1 0x40 MSTORE DUP1 ISZERO PUSH2 0xB9C JUMPI DUP2 PUSH1 0x20 ADD JUMPDEST PUSH1 0x60 DUP2 MSTORE PUSH1 0x20 ADD SWAP1 PUSH1 0x1 SWAP1 SUB SWAP1 DUP2 PUSH2 0xB87 JUMPI SWAP1 POP JUMPDEST POP SWAP9 POP DUP1 PUSH1 0x1 PUSH1 0x1 PUSH1 0x40 SHL SUB DUP2 GT ISZERO PUSH2 0xBB7 JUMPI PUSH2 0xBB7 PUSH2 0x395C JUMP JUMPDEST PUSH1 0x40 MLOAD SWAP1 DUP1 DUP3 MSTORE DUP1 PUSH1 0x20 MUL PUSH1 0x20 ADD DUP3 ADD PUSH1 0x40 MSTORE DUP1 ISZERO PUSH2 0xBE0 JUMPI DUP2 PUSH1 0x20 ADD PUSH1 0x20 DUP3 MUL DUP1 CALLDATASIZE DUP4 CALLDATACOPY ADD SWAP1 POP JUMPDEST POP SWAP8 POP DUP1 PUSH1 0x1 PUSH1 0x1 PUSH1 0x40 SHL SUB DUP2 GT ISZERO PUSH2 0xBFB JUMPI PUSH2 0xBFB PUSH2 0x395C JUMP JUMPDEST PUSH1 0x40 MLOAD SWAP1 DUP1 DUP3 MSTORE DUP1 PUSH1 0x20 MUL PUSH1 0x20 ADD DUP3 ADD PUSH1 0x40 MSTORE DUP1 ISZERO PUSH2 0xC24 JUMPI DUP2 PUSH1 0x20 ADD PUSH1 0x20 DUP3 MUL DUP1 CALLDATASIZE DUP4 CALLDATACOPY ADD SWAP1 POP JUMPDEST POP SWAP7 POP DUP1 PUSH1 0x1 PUSH1 0x1 PUSH1 0x40 SHL SUB DUP2 GT ISZERO PUSH2 0xC3F JUMPI PUSH2 0xC3F PUSH2 0x395C JUMP JUMPDEST PUSH1 0x40 MLOAD SWAP1 DUP1 DUP3 MSTORE DUP1 PUSH1 0x20 MUL PUSH1 0x20 ADD DUP3 ADD PUSH1 0x40 MSTORE DUP1 ISZERO PUSH2 0xC72 JUMPI DUP2 PUSH1 0x20 ADD JUMPDEST PUSH1 0x60 DUP2 MSTORE PUSH1 0x20 ADD SWAP1 PUSH1 0x1 SWAP1 SUB SWAP1 DUP2 PUSH2 0xC5D JUMPI SWAP1 POP JUMPDEST POP SWAP6 POP DUP1 PUSH1 0x1 PUSH1 0x1 PUSH1 0x40 SHL SUB DUP2 GT ISZERO PUSH2 0xC8D JUMPI PUSH2 0xC8D PUSH2 0x395C JUMP JUMPDEST PUSH1 0x40 MLOAD SWAP1 DUP1 DUP3 MSTORE DUP1 PUSH1 0x20 MUL PUSH1 0x20 ADD DUP3 ADD PUSH1 0x40 MSTORE DUP1 ISZERO PUSH2 0xCC0 JUMPI DUP2 PUSH1 0x20 ADD JUMPDEST PUSH1 0x60 DUP2 MSTORE PUSH1 0x20 ADD SWAP1 PUSH1 0x1 SWAP1 SUB SWAP1 DUP2 PUSH2 0xCAB JUMPI SWAP1 POP JUMPDEST POP SWAP5 POP DUP1 PUSH1 0x1 PUSH1 0x1 PUSH1 0x40 SHL SUB DUP2 GT ISZERO PUSH2 0xCDB JUMPI PUSH2 0xCDB PUSH2 0x395C JUMP JUMPDEST PUSH1 0x40 MLOAD SWAP1 DUP1 DUP3 MSTORE DUP1 PUSH1 0x20 MUL PUSH1 0x20 ADD DUP3 ADD PUSH1 0x40 MSTORE DUP1 ISZERO PUSH2 0xD0E JUMPI DUP2 PUSH1 0x20 ADD JUMPDEST PUSH1 0x60 DUP2 MSTORE PUSH1 0x20 ADD SWAP1 PUSH1 0x1 SWAP1 SUB SWAP1 DUP2 PUSH2 0xCF9 JUMPI SWAP1 POP JUMPDEST POP SWAP4 POP DUP1 PUSH1 0x1 PUSH1 0x1 PUSH1 0x40 SHL SUB DUP2 GT ISZERO PUSH2 0xD29 JUMPI PUSH2 0xD29 PUSH2 0x395C JUMP JUMPDEST PUSH1 0x40 MLOAD SWAP1 DUP1 DUP3 MSTORE DUP1 PUSH1 0x20 MUL PUSH1 0x20 ADD DUP3 ADD PUSH1 0x40 MSTORE DUP1 ISZERO PUSH2 0xD52 JUMPI DUP2 PUSH1 0x20 ADD PUSH1 0x20 DUP3 MUL DUP1 CALLDATASIZE DUP4 CALLDATACOPY ADD SWAP1 POP JUMPDEST POP SWAP3 POP DUP1 PUSH1 0x1 PUSH1 0x1 PUSH1 0x40 SHL SUB DUP2 GT ISZERO PUSH2 0xD6D JUMPI PUSH2 0xD6D PUSH2 0x395C JUMP JUMPDEST PUSH1 0x40 MLOAD SWAP1 DUP1 DUP3 MSTORE DUP1 PUSH1 0x20 MUL PUSH1 0x20 ADD DUP3 ADD PUSH1 0x40 MSTORE DUP1 ISZERO PUSH2 0xD96 JUMPI DUP2 PUSH1 0x20 ADD PUSH1 0x20 DUP3 MUL DUP1 CALLDATASIZE DUP4 CALLDATACOPY ADD SWAP1 POP JUMPDEST POP SWAP2 POP PUSH1 0x0 JUMPDEST DUP2 DUP2 LT ISZERO PUSH2 0x144A JUMPI PUSH1 0x40 MLOAD PUSH4 0x6C7B6ACB PUSH1 0xE1 SHL DUP2 MSTORE PUSH1 0x4 DUP2 ADD DUP3 SWAP1 MSTORE PUSH1 0x1 PUSH1 0x1 PUSH1 0xA0 SHL SUB DUP16 AND SWAP1 PUSH4 0xD8F6D596 SWAP1 PUSH1 0x24 ADD PUSH1 0x20 PUSH1 0x40 MLOAD DUP1 DUP4 SUB DUP2 DUP7 GAS STATICCALL ISZERO DUP1 ISZERO PUSH2 0xDE9 JUMPI RETURNDATASIZE PUSH1 0x0 DUP1 RETURNDATACOPY RETURNDATASIZE PUSH1 0x0 REVERT JUMPDEST POP POP POP POP PUSH1 0x40 MLOAD RETURNDATASIZE PUSH1 0x1F NOT PUSH1 0x1F DUP3 ADD AND DUP3 ADD DUP1 PUSH1 0x40 MSTORE POP DUP2 ADD SWAP1 PUSH2 0xE0D SWAP2 SWAP1 PUSH2 0x3972 JUMP JUMPDEST DUP14 DUP3 DUP2 MLOAD DUP2 LT PUSH2 0xE1F JUMPI PUSH2 0xE1F PUSH2 0x398F JUMP JUMPDEST PUSH1 0x20 MUL PUSH1 0x20 ADD ADD SWAP1 PUSH1 0x1 PUSH1 0x1 PUSH1 0xA0 SHL SUB AND SWAP1 DUP2 PUSH1 0x1 PUSH1 0x1 PUSH1 0xA0 SHL SUB AND DUP2 MSTORE POP POP DUP13 DUP2 DUP2 MLOAD DUP2 LT PUSH2 0xE51 JUMPI PUSH2 0xE51 PUSH2 0x398F JUMP JUMPDEST PUSH1 0x20 MUL PUSH1 0x20 ADD ADD MLOAD PUSH1 0x1 PUSH1 0x1 PUSH1 0xA0 SHL SUB AND PUSH4 0xB7813607 PUSH1 0x40 MLOAD DUP2 PUSH4 0xFFFFFFFF AND PUSH1 0xE0 SHL DUP2 MSTORE PUSH1 0x4 ADD PUSH1 0x20 PUSH1 0x40 MLOAD DUP1 DUP4 SUB DUP2 DUP7 GAS STATICCALL ISZERO DUP1 ISZERO PUSH2 0xE96 JUMPI RETURNDATASIZE PUSH1 0x0 DUP1 RETURNDATACOPY RETURNDATASIZE PUSH1 0x0 REVERT JUMPDEST POP POP POP POP PUSH1 0x40 MLOAD RETURNDATASIZE PUSH1 0x1F NOT PUSH1 0x1F DUP3 ADD AND DUP3 ADD DUP1 PUSH1 0x40 MSTORE POP DUP2 ADD SWAP1 PUSH2 0xEBA SWAP2 SWAP1 PUSH2 0x3972 JUMP JUMPDEST DUP13 DUP3 DUP2 MLOAD DUP2 LT PUSH2 0xECC JUMPI PUSH2 0xECC PUSH2 0x398F JUMP JUMPDEST PUSH1 0x20 MUL PUSH1 0x20 ADD ADD SWAP1 PUSH1 0x1 PUSH1 0x1 PUSH1 0xA0 SHL SUB AND SWAP1 DUP2 PUSH1 0x1 PUSH1 0x1 PUSH1 0xA0 SHL SUB AND DUP2 MSTORE POP POP PUSH1 0x0 DUP13 DUP3 DUP2 MLOAD DUP2 LT PUSH2 0xF00 JUMPI PUSH2 0xF00 PUSH2 0x398F JUMP JUMPDEST PUSH1 0x20 MUL PUSH1 0x20 ADD ADD MLOAD SWAP1 POP DUP1 PUSH1 0x1 PUSH1 0x1 PUSH1 0xA0 SHL SUB AND PUSH4 0x6FDDE03 PUSH1 0x40 MLOAD DUP2 PUSH4 0xFFFFFFFF AND PUSH1 0xE0 SHL DUP2 MSTORE PUSH1 0x4 ADD PUSH1 0x0 PUSH1 0x40 MLOAD DUP1 DUP4 SUB DUP2 DUP7 GAS STATICCALL ISZERO DUP1 ISZERO PUSH2 0xF48 JUMPI RETURNDATASIZE PUSH1 0x0 DUP1 RETURNDATACOPY RETURNDATASIZE PUSH1 0x0 REVERT JUMPDEST POP POP POP POP PUSH1 0x40 MLOAD RETURNDATASIZE PUSH1 0x0 DUP3 RETURNDATACOPY PUSH1 0x1F RETURNDATASIZE SWAP1 DUP2 ADD PUSH1 0x1F NOT AND DUP3 ADD PUSH1 0x40 MSTORE PUSH2 0xF70 SWAP2 SWAP1 DUP2 ADD SWAP1 PUSH2 0x39A5 JUMP JUMPDEST DUP13 DUP4 DUP2 MLOAD DUP2 LT PUSH2 0xF82 JUMPI PUSH2 0xF82 PUSH2 0x398F JUMP JUMPDEST PUSH1 0x20 MUL PUSH1 0x20 ADD ADD DUP2 SWAP1 MSTORE POP DUP1 PUSH1 0x1 PUSH1 0x1 PUSH1 0xA0 SHL SUB AND PUSH4 0x95D89B41 PUSH1 0x40 MLOAD DUP2 PUSH4 0xFFFFFFFF AND PUSH1 0xE0 SHL DUP2 MSTORE PUSH1 0x4 ADD PUSH1 0x0 PUSH1 0x40 MLOAD DUP1 DUP4 SUB DUP2 DUP7 GAS STATICCALL ISZERO DUP1 ISZERO PUSH2 0xFCB JUMPI RETURNDATASIZE PUSH1 0x0 DUP1 RETURNDATACOPY RETURNDATASIZE PUSH1 0x0 REVERT JUMPDEST POP POP POP POP PUSH1 0x40 MLOAD RETURNDATASIZE PUSH1 0x0 DUP3 RETURNDATACOPY PUSH1 0x1F RETURNDATASIZE SWAP1 DUP2 ADD PUSH1 0x1F NOT AND DUP3 ADD PUSH1 0x40 MSTORE PUSH2 0xFF3 SWAP2 SWAP1 DUP2 ADD SWAP1 PUSH2 0x39A5 JUMP JUMPDEST DUP12 DUP4 DUP2 MLOAD DUP2 LT PUSH2 0x1005 JUMPI PUSH2 0x1005 PUSH2 0x398F JUMP JUMPDEST PUSH1 0x20 MUL PUSH1 0x20 ADD ADD DUP2 SWAP1 MSTORE POP DUP1 PUSH1 0x1 PUSH1 0x1 PUSH1 0xA0 SHL SUB AND PUSH4 0x313CE567 PUSH1 0x40 MLOAD DUP2 PUSH4 0xFFFFFFFF AND PUSH1 0xE0 SHL DUP2 MSTORE PUSH1 0x4 ADD PUSH1 0x20 PUSH1 0x40 MLOAD DUP1 DUP4 SUB DUP2 DUP7 GAS STATICCALL ISZERO DUP1 ISZERO PUSH2 0x104E JUMPI RETURNDATASIZE PUSH1 0x0 DUP1 RETURNDATACOPY RETURNDATASIZE PUSH1 0x0 REVERT JUMPDEST POP POP POP POP PUSH1 0x40 MLOAD RETURNDATASIZE PUSH1 0x1F NOT PUSH1 0x1F DUP3 ADD AND DUP3 ADD DUP1 PUSH1 0x40 MSTORE POP DUP2 ADD SWAP1 PUSH2 0x1072 SWAP2 SWAP1 PUSH2 0x3A51 JUMP JUMPDEST PUSH1 0xFF AND DUP11 DUP4 DUP2 MLOAD DUP2 LT PUSH2 0x1087 JUMPI PUSH2 0x1087 PUSH2 0x398F JUMP JUMPDEST PUSH1 0x20 MUL PUSH1 0x20 ADD ADD DUP2 DUP2 MSTORE POP POP DUP14 DUP3 DUP2 MLOAD DUP2 LT PUSH2 0x10A5 JUMPI PUSH2 0x10A5 PUSH2 0x398F JUMP JUMPDEST PUSH1 0x20 MUL PUSH1 0x20 ADD ADD MLOAD PUSH1 0x1 PUSH1 0x1 PUSH1 0xA0 SHL SUB AND PUSH4 0xB3F05B97 PUSH1 0x40 MLOAD DUP2 PUSH4 0xFFFFFFFF AND PUSH1 0xE0 SHL DUP2 MSTORE PUSH1 0x4 ADD PUSH1 0x20 PUSH1 0x40 MLOAD DUP1 DUP4 SUB DUP2 DUP7 GAS STATICCALL ISZERO DUP1 ISZERO PUSH2 0x10EA JUMPI RETURNDATASIZE PUSH1 0x0 DUP1 RETURNDATACOPY RETURNDATASIZE PUSH1 0x0 REVERT JUMPDEST POP POP POP POP PUSH1 0x40 MLOAD RETURNDATASIZE PUSH1 0x1F NOT PUSH1 0x1F DUP3 ADD AND DUP3 ADD DUP1 PUSH1 0x40 MSTORE POP DUP2 ADD SWAP1 PUSH2 0x110E SWAP2 SWAP1 PUSH2 0x3AA3 JUMP JUMPDEST DUP10 DUP4 DUP2 MLOAD DUP2 LT PUSH2 0x1120 JUMPI PUSH2 0x1120 PUSH2 0x398F JUMP JUMPDEST PUSH1 0x20 MUL PUSH1 0x20 ADD ADD SWAP1 ISZERO ISZERO SWAP1 DUP2 ISZERO ISZERO DUP2 MSTORE POP POP DUP14 DUP3 DUP2 MLOAD DUP2 LT PUSH2 0x1144 JUMPI PUSH2 0x1144 PUSH2 0x398F JUMP JUMPDEST PUSH1 0x20 MUL PUSH1 0x20 ADD ADD MLOAD PUSH1 0x1 PUSH1 0x1 PUSH1 0xA0 SHL SUB AND PUSH4 0x6BB38B28 PUSH1 0x40 MLOAD DUP2 PUSH4 0xFFFFFFFF AND PUSH1 0xE0 SHL DUP2 MSTORE PUSH1 0x4 ADD PUSH1 0x0 PUSH1 0x40 MLOAD DUP1 DUP4 SUB DUP2 DUP7 GAS STATICCALL ISZERO DUP1 ISZERO PUSH2 0x1189 JUMPI RETURNDATASIZE PUSH1 0x0 DUP1 RETURNDATACOPY RETURNDATASIZE PUSH1 0x0 REVERT JUMPDEST POP POP POP POP PUSH1 0x40 MLOAD RETURNDATASIZE PUSH1 0x0 DUP3 RETURNDATACOPY PUSH1 0x1F RETURNDATASIZE SWAP1 DUP2 ADD PUSH1 0x1F NOT AND DUP3 ADD PUSH1 0x40 MSTORE PUSH2 0x11B1 SWAP2 SWAP1 DUP2 ADD SWAP1 PUSH2 0x39A5 JUMP JUMPDEST DUP9 DUP4 DUP2 MLOAD DUP2 LT PUSH2 0x11C3 JUMPI PUSH2 0x11C3 PUSH2 0x398F JUMP JUMPDEST PUSH1 0x20 MUL PUSH1 0x20 ADD ADD DUP2 SWAP1 MSTORE POP DUP14 DUP3 DUP2 MLOAD DUP2 LT PUSH2 0x11E0 JUMPI PUSH2 0x11E0 PUSH2 0x398F JUMP JUMPDEST PUSH1 0x20 MUL PUSH1 0x20 ADD ADD MLOAD PUSH1 0x1 PUSH1 0x1 PUSH1 0xA0 SHL SUB AND PUSH4 0x92604BC4 PUSH1 0x40 MLOAD DUP2 PUSH4 0xFFFFFFFF AND PUSH1 0xE0 SHL DUP2 MSTORE PUSH1 0x4 ADD PUSH1 0x0 PUSH1 0x40 MLOAD DUP1 DUP4 SUB DUP2 DUP7 GAS STATICCALL ISZERO DUP1 ISZERO PUSH2 0x1225 JUMPI RETURNDATASIZE PUSH1 0x0 DUP1 RETURNDATACOPY RETURNDATASIZE PUSH1 0x0 REVERT JUMPDEST POP POP POP POP PUSH1 0x40 MLOAD RETURNDATASIZE PUSH1 0x0 DUP3 RETURNDATACOPY PUSH1 0x1F RETURNDATASIZE SWAP1 DUP2 ADD PUSH1 0x1F NOT AND DUP3 ADD PUSH1 0x40 MSTORE PUSH2 0x124D SWAP2 SWAP1 DUP2 ADD SWAP1 PUSH2 0x39A5 JUMP JUMPDEST DUP8 DUP4 DUP2 MLOAD DUP2 LT PUSH2 0x125F JUMPI PUSH2 0x125F PUSH2 0x398F JUMP JUMPDEST PUSH1 0x20 MUL PUSH1 0x20 ADD ADD DUP2 SWAP1 MSTORE POP DUP14 DUP3 DUP2 MLOAD DUP2 LT PUSH2 0x127C JUMPI PUSH2 0x127C PUSH2 0x398F JUMP JUMPDEST PUSH1 0x20 MUL PUSH1 0x20 ADD ADD MLOAD PUSH1 0x1 PUSH1 0x1 PUSH1 0xA0 SHL SUB AND PUSH4 0x66087E23 PUSH1 0x40 MLOAD DUP2 PUSH4 0xFFFFFFFF AND PUSH1 0xE0 SHL DUP2 MSTORE PUSH1 0x4 ADD PUSH1 0x0 PUSH1 0x40 MLOAD DUP1 DUP4 SUB DUP2 DUP7 GAS STATICCALL ISZERO DUP1 ISZERO PUSH2 0x12C1 JUMPI RETURNDATASIZE PUSH1 0x0 DUP1 RETURNDATACOPY RETURNDATASIZE PUSH1 0x0 REVERT JUMPDEST POP POP POP POP PUSH1 0x40 MLOAD RETURNDATASIZE PUSH1 0x0 DUP3 RETURNDATACOPY PUSH1 0x1F RETURNDATASIZE SWAP1 DUP2 ADD PUSH1 0x1F NOT AND DUP3 ADD PUSH1 0x40 MSTORE PUSH2 0x12E9 SWAP2 SWAP1 DUP2 ADD SWAP1 PUSH2 0x39A5 JUMP JUMPDEST DUP7 DUP4 DUP2 MLOAD DUP2 LT PUSH2 0x12FB JUMPI PUSH2 0x12FB PUSH2 0x398F JUMP JUMPDEST PUSH1 0x20 MUL PUSH1 0x20 ADD ADD DUP2 SWAP1 MSTORE POP DUP14 DUP3 DUP2 MLOAD DUP2 LT PUSH2 0x1318 JUMPI PUSH2 0x1318 PUSH2 0x398F JUMP JUMPDEST PUSH1 0x20 MUL PUSH1 0x20 ADD ADD MLOAD PUSH1 0x1 PUSH1 0x1 PUSH1 0xA0 SHL SUB AND PUSH4 0x7973CCF PUSH1 0x40 MLOAD DUP2 PUSH4 0xFFFFFFFF AND PUSH1 0xE0 SHL DUP2 MSTORE PUSH1 0x4 ADD PUSH1 0x20 PUSH1 0x40 MLOAD DUP1 DUP4 SUB DUP2 DUP7 GAS STATICCALL ISZERO DUP1 ISZERO PUSH2 0x135D JUMPI RETURNDATASIZE PUSH1 0x0 DUP1 RETURNDATACOPY RETURNDATASIZE PUSH1 0x0 REVERT JUMPDEST POP POP POP POP PUSH1 0x40 MLOAD RETURNDATASIZE PUSH1 0x1F NOT PUSH1 0x1F DUP3 ADD AND DUP3 ADD DUP1 PUSH1 0x40 MSTORE POP DUP2 ADD SWAP1 PUSH2 0x1381 SWAP2 SWAP1 PUSH2 0x3943 JUMP JUMPDEST DUP6 DUP4 DUP2 MLOAD DUP2 LT PUSH2 0x1393 JUMPI PUSH2 0x1393 PUSH2 0x398F JUMP JUMPDEST PUSH1 0x20 MUL PUSH1 0x20 ADD ADD DUP2 DUP2 MSTORE POP POP DUP14 DUP3 DUP2 MLOAD DUP2 LT PUSH2 0x13B1 JUMPI PUSH2 0x13B1 PUSH2 0x398F JUMP JUMPDEST PUSH1 0x20 MUL PUSH1 0x20 ADD ADD MLOAD PUSH1 0x1 PUSH1 0x1 PUSH1 0xA0 SHL SUB AND PUSH4 0x8DA4D3C9 PUSH1 0x40 MLOAD DUP2 PUSH4 0xFFFFFFFF AND PUSH1 0xE0 SHL DUP2 MSTORE PUSH1 0x4 ADD PUSH1 0x20 PUSH1 0x40 MLOAD DUP1 DUP4 SUB DUP2 DUP7 GAS STATICCALL ISZERO DUP1 ISZERO PUSH2 0x13F6 JUMPI RETURNDATASIZE PUSH1 0x0 DUP1 RETURNDATACOPY RETURNDATASIZE PUSH1 0x0 REVERT JUMPDEST POP POP POP POP PUSH1 0x40 MLOAD RETURNDATASIZE PUSH1 0x1F NOT PUSH1 0x1F DUP3 ADD AND DUP3 ADD DUP1 PUSH1 0x40 MSTORE POP DUP2 ADD SWAP1 PUSH2 0x141A SWAP2 SWAP1 PUSH2 0x3943 JUMP JUMPDEST DUP5 DUP4 DUP2 MLOAD DUP2 LT PUSH2 0x142C JUMPI PUSH2 0x142C PUSH2 0x398F JUMP JUMPDEST PUSH1 0x20 SWAP1 DUP2 MUL SWAP2 SWAP1 SWAP2 ADD ADD MSTORE POP DUP1 PUSH2 0x1442 DUP2 PUSH2 0x3A8A JUMP JUMPDEST SWAP2 POP POP PUSH2 0xD9C JUMP JUMPDEST POP POP SWAP2 SWAP4 SWAP6 SWAP8 SWAP10 SWAP12 SWAP1 SWAP3 SWAP5 SWAP7 SWAP9 SWAP11 POP JUMP JUMPDEST PUSH1 0x60 DUP1 PUSH1 0x60 DUP1 PUSH1 0x60 DUP1 PUSH1 0x60 DUP1 PUSH1 0x60 PUSH1 0x0 DUP11 PUSH1 0x1 PUSH1 0x1 PUSH1 0xA0 SHL SUB AND PUSH4 0x81E3EDA PUSH1 0x40 MLOAD DUP2 PUSH4 0xFFFFFFFF AND PUSH1 0xE0 SHL DUP2 MSTORE PUSH1 0x4 ADD PUSH1 0x20 PUSH1 0x40 MLOAD DUP1 DUP4 SUB DUP2 DUP7 GAS STATICCALL ISZERO DUP1 ISZERO PUSH2 0x14A9 JUMPI RETURNDATASIZE PUSH1 0x0 DUP1 RETURNDATACOPY RETURNDATASIZE PUSH1 0x0 REVERT JUMPDEST POP POP POP POP PUSH1 0x40 MLOAD RETURNDATASIZE PUSH1 0x1F NOT PUSH1 0x1F DUP3 ADD AND DUP3 ADD DUP1 PUSH1 0x40 MSTORE POP DUP2 ADD SWAP1 PUSH2 0x14CD SWAP2 SWAP1 PUSH2 0x3943 JUMP JUMPDEST SWAP1 POP DUP1 PUSH1 0x1 PUSH1 0x1 PUSH1 0x40 SHL SUB DUP2 GT ISZERO PUSH2 0x14E7 JUMPI PUSH2 0x14E7 PUSH2 0x395C JUMP JUMPDEST PUSH1 0x40 MLOAD SWAP1 DUP1 DUP3 MSTORE DUP1 PUSH1 0x20 MUL PUSH1 0x20 ADD DUP3 ADD PUSH1 0x40 MSTORE DUP1 ISZERO PUSH2 0x1510 JUMPI DUP2 PUSH1 0x20 ADD PUSH1 0x20 DUP3 MUL DUP1 CALLDATASIZE DUP4 CALLDATACOPY ADD SWAP1 POP JUMPDEST POP SWAP10 POP DUP1 PUSH1 0x1 PUSH1 0x1 PUSH1 0x40 SHL SUB DUP2 GT ISZERO PUSH2 0x152B JUMPI PUSH2 0x152B PUSH2 0x395C JUMP JUMPDEST PUSH1 0x40 MLOAD SWAP1 DUP1 DUP3 MSTORE DUP1 PUSH1 0x20 MUL PUSH1 0x20 ADD DUP3 ADD PUSH1 0x40 MSTORE DUP1 ISZERO PUSH2 0x1554 JUMPI DUP2 PUSH1 0x20 ADD PUSH1 0x20 DUP3 MUL DUP1 CALLDATASIZE DUP4 CALLDATACOPY ADD SWAP1 POP JUMPDEST POP SWAP9 POP DUP1 PUSH1 0x1 PUSH1 0x1 PUSH1 0x40 SHL SUB DUP2 GT ISZERO PUSH2 0x156F JUMPI PUSH2 0x156F PUSH2 0x395C JUMP JUMPDEST PUSH1 0x40 MLOAD SWAP1 DUP1 DUP3 MSTORE DUP1 PUSH1 0x20 MUL PUSH1 0x20 ADD DUP3 ADD PUSH1 0x40 MSTORE DUP1 ISZERO PUSH2 0x15A2 JUMPI DUP2 PUSH1 0x20 ADD JUMPDEST PUSH1 0x60 DUP2 MSTORE PUSH1 0x20 ADD SWAP1 PUSH1 0x1 SWAP1 SUB SWAP1 DUP2 PUSH2 0x158D JUMPI SWAP1 POP JUMPDEST POP SWAP8 POP DUP1 PUSH1 0x1 PUSH1 0x1 PUSH1 0x40 SHL SUB DUP2 GT ISZERO PUSH2 0x15BD JUMPI PUSH2 0x15BD PUSH2 0x395C JUMP JUMPDEST PUSH1 0x40 MLOAD SWAP1 DUP1 DUP3 MSTORE DUP1 PUSH1 0x20 MUL PUSH1 0x20 ADD DUP3 ADD PUSH1 0x40 MSTORE DUP1 ISZERO PUSH2 0x15F0 JUMPI DUP2 PUSH1 0x20 ADD JUMPDEST PUSH1 0x60 DUP2 MSTORE PUSH1 0x20 ADD SWAP1 PUSH1 0x1 SWAP1 SUB SWAP1 DUP2 PUSH2 0x15DB JUMPI SWAP1 POP JUMPDEST POP SWAP7 POP DUP1 PUSH1 0x1 PUSH1 0x1 PUSH1 0x40 SHL SUB DUP2 GT ISZERO PUSH2 0x160B JUMPI PUSH2 0x160B PUSH2 0x395C JUMP JUMPDEST PUSH1 0x40 MLOAD SWAP1 DUP1 DUP3 MSTORE DUP1 PUSH1 0x20 MUL PUSH1 0x20 ADD DUP3 ADD PUSH1 0x40 MSTORE DUP1 ISZERO PUSH2 0x1634 JUMPI DUP2 PUSH1 0x20 ADD PUSH1 0x20 DUP3 MUL DUP1 CALLDATASIZE DUP4 CALLDATACOPY ADD SWAP1 POP JUMPDEST POP SWAP6 POP DUP1 PUSH1 0x1 PUSH1 0x1 PUSH1 0x40 SHL SUB DUP2 GT ISZERO PUSH2 0x164F JUMPI PUSH2 0x164F PUSH2 0x395C JUMP JUMPDEST PUSH1 0x40 MLOAD SWAP1 DUP1 DUP3 MSTORE DUP1 PUSH1 0x20 MUL PUSH1 0x20 ADD DUP3 ADD PUSH1 0x40 MSTORE DUP1 ISZERO PUSH2 0x1678 JUMPI DUP2 PUSH1 0x20 ADD PUSH1 0x20 DUP3 MUL DUP1 CALLDATASIZE DUP4 CALLDATACOPY ADD SWAP1 POP JUMPDEST POP SWAP5 POP DUP1 PUSH1 0x1 PUSH1 0x1 PUSH1 0x40 SHL SUB DUP2 GT ISZERO PUSH2 0x1693 JUMPI PUSH2 0x1693 PUSH2 0x395C JUMP JUMPDEST PUSH1 0x40 MLOAD SWAP1 DUP1 DUP3 MSTORE DUP1 PUSH1 0x20 MUL PUSH1 0x20 ADD DUP3 ADD PUSH1 0x40 MSTORE DUP1 ISZERO PUSH2 0x16C6 JUMPI DUP2 PUSH1 0x20 ADD JUMPDEST PUSH1 0x60 DUP2 MSTORE PUSH1 0x20 ADD SWAP1 PUSH1 0x1 SWAP1 SUB SWAP1 DUP2 PUSH2 0x16B1 JUMPI SWAP1 POP JUMPDEST POP SWAP4 POP DUP1 PUSH1 0x1 PUSH1 0x1 PUSH1 0x40 SHL SUB DUP2 GT ISZERO PUSH2 0x16E1 JUMPI PUSH2 0x16E1 PUSH2 0x395C JUMP JUMPDEST PUSH1 0x40 MLOAD SWAP1 DUP1 DUP3 MSTORE DUP1 PUSH1 0x20 MUL PUSH1 0x20 ADD DUP3 ADD PUSH1 0x40 MSTORE DUP1 ISZERO PUSH2 0x1714 JUMPI DUP2 PUSH1 0x20 ADD JUMPDEST PUSH1 0x60 DUP2 MSTORE PUSH1 0x20 ADD SWAP1 PUSH1 0x1 SWAP1 SUB SWAP1 DUP2 PUSH2 0x16FF JUMPI SWAP1 POP JUMPDEST POP SWAP3 POP DUP1 PUSH1 0x1 PUSH1 0x1 PUSH1 0x40 SHL SUB DUP2 GT ISZERO PUSH2 0x172F JUMPI PUSH2 0x172F PUSH2 0x395C JUMP JUMPDEST PUSH1 0x40 MLOAD SWAP1 DUP1 DUP3 MSTORE DUP1 PUSH1 0x20 MUL PUSH1 0x20 ADD DUP3 ADD PUSH1 0x40 MSTORE DUP1 ISZERO PUSH2 0x1758 JUMPI DUP2 PUSH1 0x20 ADD PUSH1 0x20 DUP3 MUL DUP1 CALLDATASIZE DUP4 CALLDATACOPY ADD SWAP1 POP JUMPDEST POP SWAP2 POP PUSH1 0x0 JUMPDEST DUP2 DUP2 LT ISZERO PUSH2 0x1D16 JUMPI PUSH1 0x40 MLOAD PUSH4 0x1526FE27 PUSH1 0xE0 SHL DUP2 MSTORE PUSH1 0x4 DUP2 ADD DUP3 SWAP1 MSTORE PUSH1 0x0 SWAP1 PUSH1 0x1 PUSH1 0x1 PUSH1 0xA0 SHL SUB DUP15 AND SWAP1 PUSH4 0x1526FE27 SWAP1 PUSH1 0x24 ADD PUSH1 0x80 PUSH1 0x40 MLOAD DUP1 DUP4 SUB DUP2 DUP7 GAS STATICCALL ISZERO DUP1 ISZERO PUSH2 0x17AE JUMPI RETURNDATASIZE PUSH1 0x0 DUP1 RETURNDATACOPY RETURNDATASIZE PUSH1 0x0 REVERT JUMPDEST POP POP POP POP PUSH1 0x40 MLOAD RETURNDATASIZE PUSH1 0x1F NOT PUSH1 0x1F DUP3 ADD AND DUP3 ADD DUP1 PUSH1 0x40 MSTORE POP DUP2 ADD SWAP1 PUSH2 0x17D2 SWAP2 SWAP1 PUSH2 0x3AC5 JUMP JUMPDEST POP POP POP SWAP1 POP DUP1 DUP13 DUP4 DUP2 MLOAD DUP2 LT PUSH2 0x17EA JUMPI PUSH2 0x17EA PUSH2 0x398F JUMP JUMPDEST PUSH1 0x20 MUL PUSH1 0x20 ADD ADD SWAP1 PUSH1 0x1 PUSH1 0x1 PUSH1 0xA0 SHL SUB AND SWAP1 DUP2 PUSH1 0x1 PUSH1 0x1 PUSH1 0xA0 SHL SUB AND DUP2 MSTORE POP POP PUSH1 0x0 DUP13 DUP4 DUP2 MLOAD DUP2 LT PUSH2 0x181E JUMPI PUSH2 0x181E PUSH2 0x398F JUMP JUMPDEST PUSH1 0x20 MUL PUSH1 0x20 ADD ADD MLOAD SWAP1 POP DUP1 PUSH1 0x1 PUSH1 0x1 PUSH1 0xA0 SHL SUB AND PUSH4 0xDFE1681 PUSH1 0x40 MLOAD DUP2 PUSH4 0xFFFFFFFF AND PUSH1 0xE0 SHL DUP2 MSTORE PUSH1 0x4 ADD PUSH1 0x20 PUSH1 0x40 MLOAD DUP1 DUP4 SUB DUP2 DUP7 GAS STATICCALL SWAP3 POP POP POP DUP1 ISZERO PUSH2 0x1882 JUMPI POP PUSH1 0x40 DUP1 MLOAD PUSH1 0x1F RETURNDATASIZE SWAP1 DUP2 ADD PUSH1 0x1F NOT AND DUP3 ADD SWAP1 SWAP3 MSTORE PUSH2 0x187F SWAP2 DUP2 ADD SWAP1 PUSH2 0x3972 JUMP JUMPDEST PUSH1 0x1 JUMPDEST ISZERO PUSH2 0x1D01 JUMPI POP DUP1 PUSH1 0x1 PUSH1 0x1 PUSH1 0xA0 SHL SUB AND PUSH4 0xDFE1681 PUSH1 0x40 MLOAD DUP2 PUSH4 0xFFFFFFFF AND PUSH1 0xE0 SHL DUP2 MSTORE PUSH1 0x4 ADD PUSH1 0x20 PUSH1 0x40 MLOAD DUP1 DUP4 SUB DUP2 DUP7 GAS STATICCALL ISZERO DUP1 ISZERO PUSH2 0x18C6 JUMPI RETURNDATASIZE PUSH1 0x0 DUP1 RETURNDATACOPY RETURNDATASIZE PUSH1 0x0 REVERT JUMPDEST POP POP POP POP PUSH1 0x40 MLOAD RETURNDATASIZE PUSH1 0x1F NOT PUSH1 0x1F DUP3 ADD AND DUP3 ADD DUP1 PUSH1 0x40 MSTORE POP DUP2 ADD SWAP1 PUSH2 0x18EA SWAP2 SWAP1 PUSH2 0x3972 JUMP JUMPDEST DUP13 DUP5 DUP2 MLOAD DUP2 LT PUSH2 0x18FC JUMPI PUSH2 0x18FC PUSH2 0x398F JUMP JUMPDEST PUSH1 0x20 MUL PUSH1 0x20 ADD ADD SWAP1 PUSH1 0x1 PUSH1 0x1 PUSH1 0xA0 SHL SUB AND SWAP1 DUP2 PUSH1 0x1 PUSH1 0x1 PUSH1 0xA0 SHL SUB AND DUP2 MSTORE POP POP DUP1 PUSH1 0x1 PUSH1 0x1 PUSH1 0xA0 SHL SUB AND PUSH4 0xD21220A7 PUSH1 0x40 MLOAD DUP2 PUSH4 0xFFFFFFFF AND PUSH1 0xE0 SHL DUP2 MSTORE PUSH1 0x4 ADD PUSH1 0x20 PUSH1 0x40 MLOAD DUP1 DUP4 SUB DUP2 DUP7 GAS STATICCALL ISZERO DUP1 ISZERO PUSH2 0x195A JUMPI RETURNDATASIZE PUSH1 0x0 DUP1 RETURNDATACOPY RETURNDATASIZE PUSH1 0x0 REVERT JUMPDEST POP POP POP POP PUSH1 0x40 MLOAD RETURNDATASIZE PUSH1 0x1F NOT PUSH1 0x1F DUP3 ADD AND DUP3 ADD DUP1 PUSH1 0x40 MSTORE POP DUP2 ADD SWAP1 PUSH2 0x197E SWAP2 SWAP1 PUSH2 0x3972 JUMP JUMPDEST DUP9 DUP5 DUP2 MLOAD DUP2 LT PUSH2 0x1990 JUMPI PUSH2 0x1990 PUSH2 0x398F JUMP JUMPDEST PUSH1 0x20 MUL PUSH1 0x20 ADD ADD SWAP1 PUSH1 0x1 PUSH1 0x1 PUSH1 0xA0 SHL SUB AND SWAP1 DUP2 PUSH1 0x1 PUSH1 0x1 PUSH1 0xA0 SHL SUB AND DUP2 MSTORE POP POP PUSH1 0x0 DUP13 DUP5 DUP2 MLOAD DUP2 LT PUSH2 0x19C4 JUMPI PUSH2 0x19C4 PUSH2 0x398F JUMP JUMPDEST PUSH1 0x20 MUL PUSH1 0x20 ADD ADD MLOAD SWAP1 POP PUSH1 0x0 DUP10 DUP6 DUP2 MLOAD DUP2 LT PUSH2 0x19E2 JUMPI PUSH2 0x19E2 PUSH2 0x398F JUMP JUMPDEST PUSH1 0x20 MUL PUSH1 0x20 ADD ADD MLOAD SWAP1 POP DUP2 PUSH1 0x1 PUSH1 0x1 PUSH1 0xA0 SHL SUB AND PUSH4 0x6FDDE03 PUSH1 0x40 MLOAD DUP2 PUSH4 0xFFFFFFFF AND PUSH1 0xE0 SHL DUP2 MSTORE PUSH1 0x4 ADD PUSH1 0x0 PUSH1 0x40 MLOAD DUP1 DUP4 SUB DUP2 DUP7 GAS STATICCALL ISZERO DUP1 ISZERO PUSH2 0x1A2A JUMPI RETURNDATASIZE PUSH1 0x0 DUP1 RETURNDATACOPY RETURNDATASIZE PUSH1 0x0 REVERT JUMPDEST POP POP POP POP PUSH1 0x40 MLOAD RETURNDATASIZE PUSH1 0x0 DUP3 RETURNDATACOPY PUSH1 0x1F RETURNDATASIZE SWAP1 DUP2 ADD PUSH1 0x1F NOT AND DUP3 ADD PUSH1 0x40 MSTORE PUSH2 0x1A52 SWAP2 SWAP1 DUP2 ADD SWAP1 PUSH2 0x39A5 JUMP JUMPDEST DUP14 DUP7 DUP2 MLOAD DUP2 LT PUSH2 0x1A64 JUMPI PUSH2 0x1A64 PUSH2 0x398F JUMP JUMPDEST PUSH1 0x20 MUL PUSH1 0x20 ADD ADD DUP2 SWAP1 MSTORE POP DUP2 PUSH1 0x1 PUSH1 0x1 PUSH1 0xA0 SHL SUB AND PUSH4 0x95D89B41 PUSH1 0x40 MLOAD DUP2 PUSH4 0xFFFFFFFF AND PUSH1 0xE0 SHL DUP2 MSTORE PUSH1 0x4 ADD PUSH1 0x0 PUSH1 0x40 MLOAD DUP1 DUP4 SUB DUP2 DUP7 GAS STATICCALL ISZERO DUP1 ISZERO PUSH2 0x1AAD JUMPI RETURNDATASIZE PUSH1 0x0 DUP1 RETURNDATACOPY RETURNDATASIZE PUSH1 0x0 REVERT JUMPDEST POP POP POP POP PUSH1 0x40 MLOAD RETURNDATASIZE PUSH1 0x0 DUP3 RETURNDATACOPY PUSH1 0x1F RETURNDATASIZE SWAP1 DUP2 ADD PUSH1 0x1F NOT AND DUP3 ADD PUSH1 0x40 MSTORE PUSH2 0x1AD5 SWAP2 SWAP1 DUP2 ADD SWAP1 PUSH2 0x39A5 JUMP JUMPDEST DUP13 DUP7 DUP2 MLOAD DUP2 LT PUSH2 0x1AE7 JUMPI PUSH2 0x1AE7 PUSH2 0x398F JUMP JUMPDEST PUSH1 0x20 MUL PUSH1 0x20 ADD ADD DUP2 SWAP1 MSTORE POP DUP2 PUSH1 0x1 PUSH1 0x1 PUSH1 0xA0 SHL SUB AND PUSH4 0x313CE567 PUSH1 0x40 MLOAD DUP2 PUSH4 0xFFFFFFFF AND PUSH1 0xE0 SHL DUP2 MSTORE PUSH1 0x4 ADD PUSH1 0x20 PUSH1 0x40 MLOAD DUP1 DUP4 SUB DUP2 DUP7 GAS STATICCALL ISZERO DUP1 ISZERO PUSH2 0x1B30 JUMPI RETURNDATASIZE PUSH1 0x0 DUP1 RETURNDATACOPY RETURNDATASIZE PUSH1 0x0 REVERT JUMPDEST POP POP POP POP PUSH1 0x40 MLOAD RETURNDATASIZE PUSH1 0x1F NOT PUSH1 0x1F DUP3 ADD AND DUP3 ADD DUP1 PUSH1 0x40 MSTORE POP DUP2 ADD SWAP1 PUSH2 0x1B54 SWAP2 SWAP1 PUSH2 0x3A51 JUMP JUMPDEST PUSH1 0xFF AND DUP12 DUP7 DUP2 MLOAD DUP2 LT PUSH2 0x1B69 JUMPI PUSH2 0x1B69 PUSH2 0x398F JUMP JUMPDEST PUSH1 0x20 MUL PUSH1 0x20 ADD ADD DUP2 DUP2 MSTORE POP POP DUP1 PUSH1 0x1 PUSH1 0x1 PUSH1 0xA0 SHL SUB AND PUSH4 0x6FDDE03 PUSH1 0x40 MLOAD DUP2 PUSH4 0xFFFFFFFF AND PUSH1 0xE0 SHL DUP2 MSTORE PUSH1 0x4 ADD PUSH1 0x0 PUSH1 0x40 MLOAD DUP1 DUP4 SUB DUP2 DUP7 GAS STATICCALL ISZERO DUP1 ISZERO PUSH2 0x1BB3 JUMPI RETURNDATASIZE PUSH1 0x0 DUP1 RETURNDATACOPY RETURNDATASIZE PUSH1 0x0 REVERT JUMPDEST POP POP POP POP PUSH1 0x40 MLOAD RETURNDATASIZE PUSH1 0x0 DUP3 RETURNDATACOPY PUSH1 0x1F RETURNDATASIZE SWAP1 DUP2 ADD PUSH1 0x1F NOT AND DUP3 ADD PUSH1 0x40 MSTORE PUSH2 0x1BDB SWAP2 SWAP1 DUP2 ADD SWAP1 PUSH2 0x39A5 JUMP JUMPDEST DUP10 DUP7 DUP2 MLOAD DUP2 LT PUSH2 0x1BED JUMPI PUSH2 0x1BED PUSH2 0x398F JUMP JUMPDEST PUSH1 0x20 MUL PUSH1 0x20 ADD ADD DUP2 SWAP1 MSTORE POP DUP1 PUSH1 0x1 PUSH1 0x1 PUSH1 0xA0 SHL SUB AND PUSH4 0x95D89B41 PUSH1 0x40 MLOAD DUP2 PUSH4 0xFFFFFFFF AND PUSH1 0xE0 SHL DUP2 MSTORE PUSH1 0x4 ADD PUSH1 0x0 PUSH1 0x40 MLOAD DUP1 DUP4 SUB DUP2 DUP7 GAS STATICCALL ISZERO DUP1 ISZERO PUSH2 0x1C36 JUMPI RETURNDATASIZE PUSH1 0x0 DUP1 RETURNDATACOPY RETURNDATASIZE PUSH1 0x0 REVERT JUMPDEST POP POP POP POP PUSH1 0x40 MLOAD RETURNDATASIZE PUSH1 0x0 DUP3 RETURNDATACOPY PUSH1 0x1F RETURNDATASIZE SWAP1 DUP2 ADD PUSH1 0x1F NOT AND DUP3 ADD PUSH1 0x40 MSTORE PUSH2 0x1C5E SWAP2 SWAP1 DUP2 ADD SWAP1 PUSH2 0x39A5 JUMP JUMPDEST DUP9 DUP7 DUP2 MLOAD DUP2 LT PUSH2 0x1C70 JUMPI PUSH2 0x1C70 PUSH2 0x398F JUMP JUMPDEST PUSH1 0x20 MUL PUSH1 0x20 ADD ADD DUP2 SWAP1 MSTORE POP DUP1 PUSH1 0x1 PUSH1 0x1 PUSH1 0xA0 SHL SUB AND PUSH4 0x313CE567 PUSH1 0x40 MLOAD DUP2 PUSH4 0xFFFFFFFF AND PUSH1 0xE0 SHL DUP2 MSTORE PUSH1 0x4 ADD PUSH1 0x20 PUSH1 0x40 MLOAD DUP1 DUP4 SUB DUP2 DUP7 GAS STATICCALL ISZERO DUP1 ISZERO PUSH2 0x1CB9 JUMPI RETURNDATASIZE PUSH1 0x0 DUP1 RETURNDATACOPY RETURNDATASIZE PUSH1 0x0 REVERT JUMPDEST POP POP POP POP PUSH1 0x40 MLOAD RETURNDATASIZE PUSH1 0x1F NOT PUSH1 0x1F DUP3 ADD AND DUP3 ADD DUP1 PUSH1 0x40 MSTORE POP DUP2 ADD SWAP1 PUSH2 0x1CDD SWAP2 SWAP1 PUSH2 0x3A51 JUMP JUMPDEST PUSH1 0xFF AND DUP8 DUP7 DUP2 MLOAD DUP2 LT PUSH2 0x1CF2 JUMPI PUSH2 0x1CF2 PUSH2 0x398F JUMP JUMPDEST PUSH1 0x20 MUL PUSH1 0x20 ADD ADD DUP2 DUP2 MSTORE POP POP POP POP JUMPDEST POP POP DUP1 DUP1 PUSH2 0x1D0E SWAP1 PUSH2 0x3A8A JUMP JUMPDEST SWAP2 POP POP PUSH2 0x175E JUMP JUMPDEST POP POP SWAP2 SWAP4 SWAP6 SWAP8 SWAP10 SWAP1 SWAP3 SWAP5 SWAP7 SWAP9 POP JUMP JUMPDEST PUSH1 0x60 DUP1 PUSH1 0x60 DUP1 PUSH1 0x60 PUSH1 0x0 DUP7 SWAP1 POP PUSH1 0x0 DUP2 PUSH1 0x1 PUSH1 0x1 PUSH1 0xA0 SHL SUB AND PUSH4 0xB9FB0FB7 PUSH1 0x40 MLOAD DUP2 PUSH4 0xFFFFFFFF AND PUSH1 0xE0 SHL DUP2 MSTORE PUSH1 0x4 ADD PUSH1 0x20 PUSH1 0x40 MLOAD DUP1 DUP4 SUB DUP2 DUP7 GAS STATICCALL ISZERO DUP1 ISZERO PUSH2 0x1D72 JUMPI RETURNDATASIZE PUSH1 0x0 DUP1 RETURNDATACOPY RETURNDATASIZE PUSH1 0x0 REVERT JUMPDEST POP POP POP POP PUSH1 0x40 MLOAD RETURNDATASIZE PUSH1 0x1F NOT PUSH1 0x1F DUP3 ADD AND DUP3 ADD DUP1 PUSH1 0x40 MSTORE POP DUP2 ADD SWAP1 PUSH2 0x1D96 SWAP2 SWAP1 PUSH2 0x3943 JUMP JUMPDEST SWAP1 POP DUP1 PUSH1 0x1 PUSH1 0x1 PUSH1 0x40 SHL SUB DUP2 GT ISZERO PUSH2 0x1DB0 JUMPI PUSH2 0x1DB0 PUSH2 0x395C JUMP JUMPDEST PUSH1 0x40 MLOAD SWAP1 DUP1 DUP3 MSTORE DUP1 PUSH1 0x20 MUL PUSH1 0x20 ADD DUP3 ADD PUSH1 0x40 MSTORE DUP1 ISZERO PUSH2 0x1DD9 JUMPI DUP2 PUSH1 0x20 ADD PUSH1 0x20 DUP3 MUL DUP1 CALLDATASIZE DUP4 CALLDATACOPY ADD SWAP1 POP JUMPDEST POP SWAP7 POP DUP1 PUSH1 0x1 PUSH1 0x1 PUSH1 0x40 SHL SUB DUP2 GT ISZERO PUSH2 0x1DF4 JUMPI PUSH2 0x1DF4 PUSH2 0x395C JUMP JUMPDEST PUSH1 0x40 MLOAD SWAP1 DUP1 DUP3 MSTORE DUP1 PUSH1 0x20 MUL PUSH1 0x20 ADD DUP3 ADD PUSH1 0x40 MSTORE DUP1 ISZERO PUSH2 0x1E1D JUMPI DUP2 PUSH1 0x20 ADD PUSH1 0x20 DUP3 MUL DUP1 CALLDATASIZE DUP4 CALLDATACOPY ADD SWAP1 POP JUMPDEST POP SWAP6 POP DUP1 PUSH1 0x1 PUSH1 0x1 PUSH1 0x40 SHL SUB DUP2 GT ISZERO PUSH2 0x1E38 JUMPI PUSH2 0x1E38 PUSH2 0x395C JUMP JUMPDEST PUSH1 0x40 MLOAD SWAP1 DUP1 DUP3 MSTORE DUP1 PUSH1 0x20 MUL PUSH1 0x20 ADD DUP3 ADD PUSH1 0x40 MSTORE DUP1 ISZERO PUSH2 0x1E6B JUMPI DUP2 PUSH1 0x20 ADD JUMPDEST PUSH1 0x60 DUP2 MSTORE PUSH1 0x20 ADD SWAP1 PUSH1 0x1 SWAP1 SUB SWAP1 DUP2 PUSH2 0x1E56 JUMPI SWAP1 POP JUMPDEST POP SWAP5 POP DUP1 PUSH1 0x1 PUSH1 0x1 PUSH1 0x40 SHL SUB DUP2 GT ISZERO PUSH2 0x1E86 JUMPI PUSH2 0x1E86 PUSH2 0x395C JUMP JUMPDEST PUSH1 0x40 MLOAD SWAP1 DUP1 DUP3 MSTORE DUP1 PUSH1 0x20 MUL PUSH1 0x20 ADD DUP3 ADD PUSH1 0x40 MSTORE DUP1 ISZERO PUSH2 0x1EB9 JUMPI DUP2 PUSH1 0x20 ADD JUMPDEST PUSH1 0x60 DUP2 MSTORE PUSH1 0x20 ADD SWAP1 PUSH1 0x1 SWAP1 SUB SWAP1 DUP2 PUSH2 0x1EA4 JUMPI SWAP1 POP JUMPDEST POP SWAP4 POP DUP1 PUSH1 0x1 PUSH1 0x1 PUSH1 0x40 SHL SUB DUP2 GT ISZERO PUSH2 0x1ED4 JUMPI PUSH2 0x1ED4 PUSH2 0x395C JUMP JUMPDEST PUSH1 0x40 MLOAD SWAP1 DUP1 DUP3 MSTORE DUP1 PUSH1 0x20 MUL PUSH1 0x20 ADD DUP3 ADD PUSH1 0x40 MSTORE DUP1 ISZERO PUSH2 0x1F14 JUMPI DUP2 PUSH1 0x20 ADD JUMPDEST PUSH1 0x40 DUP1 MLOAD PUSH1 0x20 DUP2 ADD SWAP1 SWAP2 MSTORE PUSH1 0x60 DUP2 MSTORE DUP2 MSTORE PUSH1 0x20 ADD SWAP1 PUSH1 0x1 SWAP1 SUB SWAP1 DUP2 PUSH2 0x1EF2 JUMPI SWAP1 POP JUMPDEST POP SWAP3 POP PUSH1 0x0 JUMPDEST DUP2 DUP2 LT ISZERO PUSH2 0x2375 JUMPI PUSH1 0x40 MLOAD PUSH4 0x68BCD8D PUSH1 0xE0 SHL DUP2 MSTORE PUSH1 0x4 DUP2 ADD DUP3 SWAP1 MSTORE PUSH1 0x1 PUSH1 0x1 PUSH1 0xA0 SHL SUB DUP5 AND SWAP1 PUSH4 0x68BCD8D SWAP1 PUSH1 0x24 ADD PUSH1 0x20 PUSH1 0x40 MLOAD DUP1 DUP4 SUB DUP2 DUP7 GAS STATICCALL ISZERO DUP1 ISZERO PUSH2 0x1F67 JUMPI RETURNDATASIZE PUSH1 0x0 DUP1 RETURNDATACOPY RETURNDATASIZE PUSH1 0x0 REVERT JUMPDEST POP POP POP POP PUSH1 0x40 MLOAD RETURNDATASIZE PUSH1 0x1F NOT PUSH1 0x1F DUP3 ADD AND DUP3 ADD DUP1 PUSH1 0x40 MSTORE POP DUP2 ADD SWAP1 PUSH2 0x1F8B SWAP2 SWAP1 PUSH2 0x3972 JUMP JUMPDEST DUP9 DUP3 DUP2 MLOAD DUP2 LT PUSH2 0x1F9D JUMPI PUSH2 0x1F9D PUSH2 0x398F JUMP JUMPDEST PUSH1 0x20 MUL PUSH1 0x20 ADD ADD SWAP1 PUSH1 0x1 PUSH1 0x1 PUSH1 0xA0 SHL SUB AND SWAP1 DUP2 PUSH1 0x1 PUSH1 0x1 PUSH1 0xA0 SHL SUB AND DUP2 MSTORE POP POP DUP8 DUP2 DUP2 MLOAD DUP2 LT PUSH2 0x1FCF JUMPI PUSH2 0x1FCF PUSH2 0x398F JUMP JUMPDEST PUSH1 0x20 MUL PUSH1 0x20 ADD ADD MLOAD PUSH1 0x1 PUSH1 0x1 PUSH1 0xA0 SHL SUB AND PUSH4 0xCC7A262E PUSH1 0x40 MLOAD DUP2 PUSH4 0xFFFFFFFF AND PUSH1 0xE0 SHL DUP2 MSTORE PUSH1 0x4 ADD PUSH1 0x20 PUSH1 0x40 MLOAD DUP1 DUP4 SUB DUP2 DUP7 GAS STATICCALL ISZERO DUP1 ISZERO PUSH2 0x2014 JUMPI RETURNDATASIZE PUSH1 0x0 DUP1 RETURNDATACOPY RETURNDATASIZE PUSH1 0x0 REVERT JUMPDEST POP POP POP POP PUSH1 0x40 MLOAD RETURNDATASIZE PUSH1 0x1F NOT PUSH1 0x1F DUP3 ADD AND DUP3 ADD DUP1 PUSH1 0x40 MSTORE POP DUP2 ADD SWAP1 PUSH2 0x2038 SWAP2 SWAP1 PUSH2 0x3972 JUMP JUMPDEST DUP8 DUP3 DUP2 MLOAD DUP2 LT PUSH2 0x204A JUMPI PUSH2 0x204A PUSH2 0x398F JUMP JUMPDEST PUSH1 0x20 MUL PUSH1 0x20 ADD ADD SWAP1 PUSH1 0x1 PUSH1 0x1 PUSH1 0xA0 SHL SUB AND SWAP1 DUP2 PUSH1 0x1 PUSH1 0x1 PUSH1 0xA0 SHL SUB AND DUP2 MSTORE POP POP PUSH1 0x0 DUP8 DUP3 DUP2 MLOAD DUP2 LT PUSH2 0x207E JUMPI PUSH2 0x207E PUSH2 0x398F JUMP JUMPDEST PUSH1 0x20 MUL PUSH1 0x20 ADD ADD MLOAD SWAP1 POP DUP1 PUSH1 0x1 PUSH1 0x1 PUSH1 0xA0 SHL SUB AND PUSH4 0x6FDDE03 PUSH1 0x40 MLOAD DUP2 PUSH4 0xFFFFFFFF AND PUSH1 0xE0 SHL DUP2 MSTORE PUSH1 0x4 ADD PUSH1 0x0 PUSH1 0x40 MLOAD DUP1 DUP4 SUB DUP2 DUP7 GAS STATICCALL ISZERO DUP1 ISZERO PUSH2 0x20C6 JUMPI RETURNDATASIZE PUSH1 0x0 DUP1 RETURNDATACOPY RETURNDATASIZE PUSH1 0x0 REVERT JUMPDEST POP POP POP POP PUSH1 0x40 MLOAD RETURNDATASIZE PUSH1 0x0 DUP3 RETURNDATACOPY PUSH1 0x1F RETURNDATASIZE SWAP1 DUP2 ADD PUSH1 0x1F NOT AND DUP3 ADD PUSH1 0x40 MSTORE PUSH2 0x20EE SWAP2 SWAP1 DUP2 ADD SWAP1 PUSH2 0x39A5 JUMP JUMPDEST DUP8 DUP4 DUP2 MLOAD DUP2 LT PUSH2 0x2100 JUMPI PUSH2 0x2100 PUSH2 0x398F JUMP JUMPDEST PUSH1 0x20 MUL PUSH1 0x20 ADD ADD DUP2 SWAP1 MSTORE POP DUP1 PUSH1 0x1 PUSH1 0x1 PUSH1 0xA0 SHL SUB AND PUSH4 0x95D89B41 PUSH1 0x40 MLOAD DUP2 PUSH4 0xFFFFFFFF AND PUSH1 0xE0 SHL DUP2 MSTORE PUSH1 0x4 ADD PUSH1 0x0 PUSH1 0x40 MLOAD DUP1 DUP4 SUB DUP2 DUP7 GAS STATICCALL ISZERO DUP1 ISZERO PUSH2 0x2149 JUMPI RETURNDATASIZE PUSH1 0x0 DUP1 RETURNDATACOPY RETURNDATASIZE PUSH1 0x0 REVERT JUMPDEST POP POP POP POP PUSH1 0x40 MLOAD RETURNDATASIZE PUSH1 0x0 DUP3 RETURNDATACOPY PUSH1 0x1F RETURNDATASIZE SWAP1 DUP2 ADD PUSH1 0x1F NOT AND DUP3 ADD PUSH1 0x40 MSTORE PUSH2 0x2171 SWAP2 SWAP1 DUP2 ADD SWAP1 PUSH2 0x39A5 JUMP JUMPDEST DUP7 DUP4 DUP2 MLOAD DUP2 LT PUSH2 0x2183 JUMPI PUSH2 0x2183 PUSH2 0x398F JUMP JUMPDEST PUSH1 0x20 MUL PUSH1 0x20 ADD ADD DUP2 SWAP1 MSTORE POP PUSH1 0x0 DUP10 DUP4 DUP2 MLOAD DUP2 LT PUSH2 0x21A2 JUMPI PUSH2 0x21A2 PUSH2 0x398F JUMP JUMPDEST PUSH1 0x20 MUL PUSH1 0x20 ADD ADD MLOAD PUSH1 0x1 PUSH1 0x1 PUSH1 0xA0 SHL SUB AND PUSH4 0xABB06B95 PUSH1 0x40 MLOAD DUP2 PUSH4 0xFFFFFFFF AND PUSH1 0xE0 SHL DUP2 MSTORE PUSH1 0x4 ADD PUSH1 0x20 PUSH1 0x40 MLOAD DUP1 DUP4 SUB DUP2 DUP7 GAS STATICCALL ISZERO DUP1 ISZERO PUSH2 0x21E7 JUMPI RETURNDATASIZE PUSH1 0x0 DUP1 RETURNDATACOPY RETURNDATASIZE PUSH1 0x0 REVERT JUMPDEST POP POP POP POP PUSH1 0x40 MLOAD RETURNDATASIZE PUSH1 0x1F NOT PUSH1 0x1F DUP3 ADD AND DUP3 ADD DUP1 PUSH1 0x40 MSTORE POP DUP2 ADD SWAP1 PUSH2 0x220B SWAP2 SWAP1 PUSH2 0x3943 JUMP JUMPDEST SWAP1 POP PUSH1 0x0 DUP2 PUSH1 0x1 PUSH1 0x1 PUSH1 0x40 SHL SUB DUP2 GT ISZERO PUSH2 0x2227 JUMPI PUSH2 0x2227 PUSH2 0x395C JUMP JUMPDEST PUSH1 0x40 MLOAD SWAP1 DUP1 DUP3 MSTORE DUP1 PUSH1 0x20 MUL PUSH1 0x20 ADD DUP3 ADD PUSH1 0x40 MSTORE DUP1 ISZERO PUSH2 0x2250 JUMPI DUP2 PUSH1 0x20 ADD PUSH1 0x20 DUP3 MUL DUP1 CALLDATASIZE DUP4 CALLDATACOPY ADD SWAP1 POP JUMPDEST POP SWAP1 POP PUSH1 0x0 JUMPDEST DUP3 DUP2 LT ISZERO PUSH2 0x232C JUMPI PUSH1 0x0 DUP13 DUP7 DUP2 MLOAD DUP2 LT PUSH2 0x2272 JUMPI PUSH2 0x2272 PUSH2 0x398F JUMP JUMPDEST PUSH1 0x20 MUL PUSH1 0x20 ADD ADD MLOAD PUSH1 0x1 PUSH1 0x1 PUSH1 0xA0 SHL SUB AND PUSH4 0x427F0B00 DUP4 PUSH1 0x40 MLOAD DUP3 PUSH4 0xFFFFFFFF AND PUSH1 0xE0 SHL DUP2 MSTORE PUSH1 0x4 ADD PUSH2 0x22A7 SWAP2 DUP2 MSTORE PUSH1 0x20 ADD SWAP1 JUMP JUMPDEST PUSH1 0xA0 PUSH1 0x40 MLOAD DUP1 DUP4 SUB DUP2 DUP7 GAS STATICCALL ISZERO DUP1 ISZERO PUSH2 0x22C4 JUMPI RETURNDATASIZE PUSH1 0x0 DUP1 RETURNDATACOPY RETURNDATASIZE PUSH1 0x0 REVERT JUMPDEST POP POP POP POP PUSH1 0x40 MLOAD RETURNDATASIZE PUSH1 0x1F NOT PUSH1 0x1F DUP3 ADD AND DUP3 ADD DUP1 PUSH1 0x40 MSTORE POP DUP2 ADD SWAP1 PUSH2 0x22E8 SWAP2 SWAP1 PUSH2 0x3B04 JUMP JUMPDEST POP POP POP POP SWAP1 POP DUP1 DUP4 DUP4 DUP2 MLOAD DUP2 LT PUSH2 0x2301 JUMPI PUSH2 0x2301 PUSH2 0x398F JUMP JUMPDEST PUSH1 0x1 PUSH1 0x1 PUSH1 0xA0 SHL SUB SWAP1 SWAP3 AND PUSH1 0x20 SWAP3 DUP4 MUL SWAP2 SWAP1 SWAP2 ADD SWAP1 SWAP2 ADD MSTORE POP DUP1 PUSH2 0x2324 DUP2 PUSH2 0x3A8A JUMP JUMPDEST SWAP2 POP POP PUSH2 0x2256 JUMP JUMPDEST POP PUSH1 0x0 PUSH1 0x40 MLOAD DUP1 PUSH1 0x20 ADD PUSH1 0x40 MSTORE DUP1 DUP4 DUP2 MSTORE POP SWAP1 POP DUP1 DUP9 DUP7 DUP2 MLOAD DUP2 LT PUSH2 0x2353 JUMPI PUSH2 0x2353 PUSH2 0x398F JUMP JUMPDEST PUSH1 0x20 MUL PUSH1 0x20 ADD ADD DUP2 SWAP1 MSTORE POP POP POP POP POP DUP1 DUP1 PUSH2 0x236D SWAP1 PUSH2 0x3A8A JUMP JUMPDEST SWAP2 POP POP PUSH2 0x1F1A JUMP JUMPDEST POP POP POP SWAP2 SWAP4 SWAP6 SWAP1 SWAP3 SWAP5 POP JUMP JUMPDEST PUSH1 0x60 DUP1 DUP1 DUP1 DUP1 DUP1 DUP1 DUP1 DUP1 PUSH1 0x0 PUSH2 0x2397 DUP13 DUP13 PUSH2 0x3B4D JUMP JUMPDEST SWAP1 POP DUP1 PUSH1 0x1 PUSH1 0x1 PUSH1 0x40 SHL SUB DUP2 GT ISZERO PUSH2 0x23B1 JUMPI PUSH2 0x23B1 PUSH2 0x395C JUMP JUMPDEST PUSH1 0x40 MLOAD SWAP1 DUP1 DUP3 MSTORE DUP1 PUSH1 0x20 MUL PUSH1 0x20 ADD DUP3 ADD PUSH1 0x40 MSTORE DUP1 ISZERO PUSH2 0x23DA JUMPI DUP2 PUSH1 0x20 ADD PUSH1 0x20 DUP3 MUL DUP1 CALLDATASIZE DUP4 CALLDATACOPY ADD SWAP1 POP JUMPDEST POP SWAP10 POP DUP1 PUSH1 0x1 PUSH1 0x1 PUSH1 0x40 SHL SUB DUP2 GT ISZERO PUSH2 0x23F5 JUMPI PUSH2 0x23F5 PUSH2 0x395C JUMP JUMPDEST PUSH1 0x40 MLOAD SWAP1 DUP1 DUP3 MSTORE DUP1 PUSH1 0x20 MUL PUSH1 0x20 ADD DUP3 ADD PUSH1 0x40 MSTORE DUP1 ISZERO PUSH2 0x241E JUMPI DUP2 PUSH1 0x20 ADD PUSH1 0x20 DUP3 MUL DUP1 CALLDATASIZE DUP4 CALLDATACOPY ADD SWAP1 POP JUMPDEST POP SWAP9 POP DUP1 PUSH1 0x1 PUSH1 0x1 PUSH1 0x40 SHL SUB DUP2 GT ISZERO PUSH2 0x2439 JUMPI PUSH2 0x2439 PUSH2 0x395C JUMP JUMPDEST PUSH1 0x40 MLOAD SWAP1 DUP1 DUP3 MSTORE DUP1 PUSH1 0x20 MUL PUSH1 0x20 ADD DUP3 ADD PUSH1 0x40 MSTORE DUP1 ISZERO PUSH2 0x246C JUMPI DUP2 PUSH1 0x20 ADD JUMPDEST PUSH1 0x60 DUP2 MSTORE PUSH1 0x20 ADD SWAP1 PUSH1 0x1 SWAP1 SUB SWAP1 DUP2 PUSH2 0x2457 JUMPI SWAP1 POP JUMPDEST POP SWAP8 POP DUP1 PUSH1 0x1 PUSH1 0x1 PUSH1 0x40 SHL SUB DUP2 GT ISZERO PUSH2 0x2487 JUMPI PUSH2 0x2487 PUSH2 0x395C JUMP JUMPDEST PUSH1 0x40 MLOAD SWAP1 DUP1 DUP3 MSTORE DUP1 PUSH1 0x20 MUL PUSH1 0x20 ADD DUP3 ADD PUSH1 0x40 MSTORE DUP1 ISZERO PUSH2 0x24BA JUMPI DUP2 PUSH1 0x20 ADD JUMPDEST PUSH1 0x60 DUP2 MSTORE PUSH1 0x20 ADD SWAP1 PUSH1 0x1 SWAP1 SUB SWAP1 DUP2 PUSH2 0x24A5 JUMPI SWAP1 POP JUMPDEST POP SWAP7 POP DUP1 PUSH1 0x1 PUSH1 0x1 PUSH1 0x40 SHL SUB DUP2 GT ISZERO PUSH2 0x24D5 JUMPI PUSH2 0x24D5 PUSH2 0x395C JUMP JUMPDEST PUSH1 0x40 MLOAD SWAP1 DUP1 DUP3 MSTORE DUP1 PUSH1 0x20 MUL PUSH1 0x20 ADD DUP3 ADD PUSH1 0x40 MSTORE DUP1 ISZERO PUSH2 0x24FE JUMPI DUP2 PUSH1 0x20 ADD PUSH1 0x20 DUP3 MUL DUP1 CALLDATASIZE DUP4 CALLDATACOPY ADD SWAP1 POP JUMPDEST POP SWAP6 POP DUP1 PUSH1 0x1 PUSH1 0x1 PUSH1 0x40 SHL SUB DUP2 GT ISZERO PUSH2 0x2519 JUMPI PUSH2 0x2519 PUSH2 0x395C JUMP JUMPDEST PUSH1 0x40 MLOAD SWAP1 DUP1 DUP3 MSTORE DUP1 PUSH1 0x20 MUL PUSH1 0x20 ADD DUP3 ADD PUSH1 0x40 MSTORE DUP1 ISZERO PUSH2 0x2542 JUMPI DUP2 PUSH1 0x20 ADD PUSH1 0x20 DUP3 MUL DUP1 CALLDATASIZE DUP4 CALLDATACOPY ADD SWAP1 POP JUMPDEST POP SWAP5 POP DUP1 PUSH1 0x1 PUSH1 0x1 PUSH1 0x40 SHL SUB DUP2 GT ISZERO PUSH2 0x255D JUMPI PUSH2 0x255D PUSH2 0x395C JUMP JUMPDEST PUSH1 0x40 MLOAD SWAP1 DUP1 DUP3 MSTORE DUP1 PUSH1 0x20 MUL PUSH1 0x20 ADD DUP3 ADD PUSH1 0x40 MSTORE DUP1 ISZERO PUSH2 0x2590 JUMPI DUP2 PUSH1 0x20 ADD JUMPDEST PUSH1 0x60 DUP2 MSTORE PUSH1 0x20 ADD SWAP1 PUSH1 0x1 SWAP1 SUB SWAP1 DUP2 PUSH2 0x257B JUMPI SWAP1 POP JUMPDEST POP SWAP4 POP DUP1 PUSH1 0x1 PUSH1 0x1 PUSH1 0x40 SHL SUB DUP2 GT ISZERO PUSH2 0x25AB JUMPI PUSH2 0x25AB PUSH2 0x395C JUMP JUMPDEST PUSH1 0x40 MLOAD SWAP1 DUP1 DUP3 MSTORE DUP1 PUSH1 0x20 MUL PUSH1 0x20 ADD DUP3 ADD PUSH1 0x40 MSTORE DUP1 ISZERO PUSH2 0x25DE JUMPI DUP2 PUSH1 0x20 ADD JUMPDEST PUSH1 0x60 DUP2 MSTORE PUSH1 0x20 ADD SWAP1 PUSH1 0x1 SWAP1 SUB SWAP1 DUP2 PUSH2 0x25C9 JUMPI SWAP1 POP JUMPDEST POP SWAP3 POP DUP1 PUSH1 0x1 PUSH1 0x1 PUSH1 0x40 SHL SUB DUP2 GT ISZERO PUSH2 0x25F9 JUMPI PUSH2 0x25F9 PUSH2 0x395C JUMP JUMPDEST PUSH1 0x40 MLOAD SWAP1 DUP1 DUP3 MSTORE DUP1 PUSH1 0x20 MUL PUSH1 0x20 ADD DUP3 ADD PUSH1 0x40 MSTORE DUP1 ISZERO PUSH2 0x2622 JUMPI DUP2 PUSH1 0x20 ADD PUSH1 0x20 DUP3 MUL DUP1 CALLDATASIZE DUP4 CALLDATACOPY ADD SWAP1 POP JUMPDEST POP SWAP2 POP PUSH1 0x0 JUMPDEST DUP2 DUP2 LT ISZERO PUSH2 0x2B86 JUMPI DUP14 PUSH1 0x1 PUSH1 0x1 PUSH1 0xA0 SHL SUB AND PUSH4 0x1E3DD18B DUP3 DUP16 PUSH2 0x264B SWAP2 SWAP1 PUSH2 0x3B66 JUMP JUMPDEST PUSH1 0x40 MLOAD DUP3 PUSH4 0xFFFFFFFF AND PUSH1 0xE0 SHL DUP2 MSTORE PUSH1 0x4 ADD PUSH2 0x2669 SWAP2 DUP2 MSTORE PUSH1 0x20 ADD SWAP1 JUMP JUMPDEST PUSH1 0x20 PUSH1 0x40 MLOAD DUP1 DUP4 SUB DUP2 DUP7 GAS STATICCALL ISZERO DUP1 ISZERO PUSH2 0x2686 JUMPI RETURNDATASIZE PUSH1 0x0 DUP1 RETURNDATACOPY RETURNDATASIZE PUSH1 0x0 REVERT JUMPDEST POP POP POP POP PUSH1 0x40 MLOAD RETURNDATASIZE PUSH1 0x1F NOT PUSH1 0x1F DUP3 ADD AND DUP3 ADD DUP1 PUSH1 0x40 MSTORE POP DUP2 ADD SWAP1 PUSH2 0x26AA SWAP2 SWAP1 PUSH2 0x3972 JUMP JUMPDEST DUP12 DUP3 DUP2 MLOAD DUP2 LT PUSH2 0x26BC JUMPI PUSH2 0x26BC PUSH2 0x398F JUMP JUMPDEST PUSH1 0x20 MUL PUSH1 0x20 ADD ADD SWAP1 PUSH1 0x1 PUSH1 0x1 PUSH1 0xA0 SHL SUB AND SWAP1 DUP2 PUSH1 0x1 PUSH1 0x1 PUSH1 0xA0 SHL SUB AND DUP2 MSTORE POP POP PUSH1 0x0 DUP12 DUP3 DUP2 MLOAD DUP2 LT PUSH2 0x26F0 JUMPI PUSH2 0x26F0 PUSH2 0x398F JUMP JUMPDEST PUSH1 0x20 MUL PUSH1 0x20 ADD ADD MLOAD SWAP1 POP DUP1 PUSH1 0x1 PUSH1 0x1 PUSH1 0xA0 SHL SUB AND PUSH4 0xDFE1681 PUSH1 0x40 MLOAD DUP2 PUSH4 0xFFFFFFFF AND PUSH1 0xE0 SHL DUP2 MSTORE PUSH1 0x4 ADD PUSH1 0x20 PUSH1 0x40 MLOAD DUP1 DUP4 SUB DUP2 DUP7 GAS STATICCALL ISZERO DUP1 ISZERO PUSH2 0x2738 JUMPI RETURNDATASIZE PUSH1 0x0 DUP1 RETURNDATACOPY RETURNDATASIZE PUSH1 0x0 REVERT JUMPDEST POP POP POP POP PUSH1 0x40 MLOAD RETURNDATASIZE PUSH1 0x1F NOT PUSH1 0x1F DUP3 ADD AND DUP3 ADD DUP1 PUSH1 0x40 MSTORE POP DUP2 ADD SWAP1 PUSH2 0x275C SWAP2 SWAP1 PUSH2 0x3972 JUMP JUMPDEST DUP12 DUP4 DUP2 MLOAD DUP2 LT PUSH2 0x276E JUMPI PUSH2 0x276E PUSH2 0x398F JUMP JUMPDEST PUSH1 0x20 MUL PUSH1 0x20 ADD ADD SWAP1 PUSH1 0x1 PUSH1 0x1 PUSH1 0xA0 SHL SUB AND SWAP1 DUP2 PUSH1 0x1 PUSH1 0x1 PUSH1 0xA0 SHL SUB AND DUP2 MSTORE POP POP DUP1 PUSH1 0x1 PUSH1 0x1 PUSH1 0xA0 SHL SUB AND PUSH4 0xD21220A7 PUSH1 0x40 MLOAD DUP2 PUSH4 0xFFFFFFFF AND PUSH1 0xE0 SHL DUP2 MSTORE PUSH1 0x4 ADD PUSH1 0x20 PUSH1 0x40 MLOAD DUP1 DUP4 SUB DUP2 DUP7 GAS STATICCALL ISZERO DUP1 ISZERO PUSH2 0x27CC JUMPI RETURNDATASIZE PUSH1 0x0 DUP1 RETURNDATACOPY RETURNDATASIZE PUSH1 0x0 REVERT JUMPDEST POP POP POP POP PUSH1 0x40 MLOAD RETURNDATASIZE PUSH1 0x1F NOT PUSH1 0x1F DUP3 ADD AND DUP3 ADD DUP1 PUSH1 0x40 MSTORE POP DUP2 ADD SWAP1 PUSH2 0x27F0 SWAP2 SWAP1 PUSH2 0x3972 JUMP JUMPDEST DUP8 DUP4 DUP2 MLOAD DUP2 LT PUSH2 0x2802 JUMPI PUSH2 0x2802 PUSH2 0x398F JUMP JUMPDEST PUSH1 0x20 MUL PUSH1 0x20 ADD ADD SWAP1 PUSH1 0x1 PUSH1 0x1 PUSH1 0xA0 SHL SUB AND SWAP1 DUP2 PUSH1 0x1 PUSH1 0x1 PUSH1 0xA0 SHL SUB AND DUP2 MSTORE POP POP PUSH1 0x0 DUP12 DUP4 DUP2 MLOAD DUP2 LT PUSH2 0x2836 JUMPI PUSH2 0x2836 PUSH2 0x398F JUMP JUMPDEST PUSH1 0x20 MUL PUSH1 0x20 ADD ADD MLOAD SWAP1 POP PUSH1 0x0 DUP9 DUP5 DUP2 MLOAD DUP2 LT PUSH2 0x2854 JUMPI PUSH2 0x2854 PUSH2 0x398F JUMP JUMPDEST PUSH1 0x20 MUL PUSH1 0x20 ADD ADD MLOAD SWAP1 POP DUP2 PUSH1 0x1 PUSH1 0x1 PUSH1 0xA0 SHL SUB AND PUSH4 0x6FDDE03 PUSH1 0x40 MLOAD DUP2 PUSH4 0xFFFFFFFF AND PUSH1 0xE0 SHL DUP2 MSTORE PUSH1 0x4 ADD PUSH1 0x0 PUSH1 0x40 MLOAD DUP1 DUP4 SUB DUP2 DUP7 GAS STATICCALL ISZERO DUP1 ISZERO PUSH2 0x289C JUMPI RETURNDATASIZE PUSH1 0x0 DUP1 RETURNDATACOPY RETURNDATASIZE PUSH1 0x0 REVERT JUMPDEST POP POP POP POP PUSH1 0x40 MLOAD RETURNDATASIZE PUSH1 0x0 DUP3 RETURNDATACOPY PUSH1 0x1F RETURNDATASIZE SWAP1 DUP2 ADD PUSH1 0x1F NOT AND DUP3 ADD PUSH1 0x40 MSTORE PUSH2 0x28C4 SWAP2 SWAP1 DUP2 ADD SWAP1 PUSH2 0x39A5 JUMP JUMPDEST DUP13 DUP6 DUP2 MLOAD DUP2 LT PUSH2 0x28D6 JUMPI PUSH2 0x28D6 PUSH2 0x398F JUMP JUMPDEST PUSH1 0x20 MUL PUSH1 0x20 ADD ADD DUP2 SWAP1 MSTORE POP DUP2 PUSH1 0x1 PUSH1 0x1 PUSH1 0xA0 SHL SUB AND PUSH4 0x95D89B41 PUSH1 0x40 MLOAD DUP2 PUSH4 0xFFFFFFFF AND PUSH1 0xE0 SHL DUP2 MSTORE PUSH1 0x4 ADD PUSH1 0x0 PUSH1 0x40 MLOAD DUP1 DUP4 SUB DUP2 DUP7 GAS STATICCALL ISZERO DUP1 ISZERO PUSH2 0x291F JUMPI RETURNDATASIZE PUSH1 0x0 DUP1 RETURNDATACOPY RETURNDATASIZE PUSH1 0x0 REVERT JUMPDEST POP POP POP POP PUSH1 0x40 MLOAD RETURNDATASIZE PUSH1 0x0 DUP3 RETURNDATACOPY PUSH1 0x1F RETURNDATASIZE SWAP1 DUP2 ADD PUSH1 0x1F NOT AND DUP3 ADD PUSH1 0x40 MSTORE PUSH2 0x2947 SWAP2 SWAP1 DUP2 ADD SWAP1 PUSH2 0x39A5 JUMP JUMPDEST DUP12 DUP6 DUP2 MLOAD DUP2 LT PUSH2 0x2959 JUMPI PUSH2 0x2959 PUSH2 0x398F JUMP JUMPDEST PUSH1 0x20 MUL PUSH1 0x20 ADD ADD DUP2 SWAP1 MSTORE POP DUP2 PUSH1 0x1 PUSH1 0x1 PUSH1 0xA0 SHL SUB AND PUSH4 0x313CE567 PUSH1 0x40 MLOAD DUP2 PUSH4 0xFFFFFFFF AND PUSH1 0xE0 SHL DUP2 MSTORE PUSH1 0x4 ADD PUSH1 0x20 PUSH1 0x40 MLOAD DUP1 DUP4 SUB DUP2 DUP7 GAS STATICCALL ISZERO DUP1 ISZERO PUSH2 0x29A2 JUMPI RETURNDATASIZE PUSH1 0x0 DUP1 RETURNDATACOPY RETURNDATASIZE PUSH1 0x0 REVERT JUMPDEST POP POP POP POP PUSH1 0x40 MLOAD RETURNDATASIZE PUSH1 0x1F NOT PUSH1 0x1F DUP3 ADD AND DUP3 ADD DUP1 PUSH1 0x40 MSTORE POP DUP2 ADD SWAP1 PUSH2 0x29C6 SWAP2 SWAP1 PUSH2 0x3A51 JUMP JUMPDEST PUSH1 0xFF AND DUP11 DUP6 DUP2 MLOAD DUP2 LT PUSH2 0x29DB JUMPI PUSH2 0x29DB PUSH2 0x398F JUMP JUMPDEST PUSH1 0x20 MUL PUSH1 0x20 ADD ADD DUP2 DUP2 MSTORE POP POP DUP1 PUSH1 0x1 PUSH1 0x1 PUSH1 0xA0 SHL SUB AND PUSH4 0x6FDDE03 PUSH1 0x40 MLOAD DUP2 PUSH4 0xFFFFFFFF AND PUSH1 0xE0 SHL DUP2 MSTORE PUSH1 0x4 ADD PUSH1 0x0 PUSH1 0x40 MLOAD DUP1 DUP4 SUB DUP2 DUP7 GAS STATICCALL ISZERO DUP1 ISZERO PUSH2 0x2A25 JUMPI RETURNDATASIZE PUSH1 0x0 DUP1 RETURNDATACOPY RETURNDATASIZE PUSH1 0x0 REVERT JUMPDEST POP POP POP POP PUSH1 0x40 MLOAD RETURNDATASIZE PUSH1 0x0 DUP3 RETURNDATACOPY PUSH1 0x1F RETURNDATASIZE SWAP1 DUP2 ADD PUSH1 0x1F NOT AND DUP3 ADD PUSH1 0x40 MSTORE PUSH2 0x2A4D SWAP2 SWAP1 DUP2 ADD SWAP1 PUSH2 0x39A5 JUMP JUMPDEST DUP9 DUP6 DUP2 MLOAD DUP2 LT PUSH2 0x2A5F JUMPI PUSH2 0x2A5F PUSH2 0x398F JUMP JUMPDEST PUSH1 0x20 MUL PUSH1 0x20 ADD ADD DUP2 SWAP1 MSTORE POP DUP1 PUSH1 0x1 PUSH1 0x1 PUSH1 0xA0 SHL SUB AND PUSH4 0x95D89B41 PUSH1 0x40 MLOAD DUP2 PUSH4 0xFFFFFFFF AND PUSH1 0xE0 SHL DUP2 MSTORE PUSH1 0x4 ADD PUSH1 0x0 PUSH1 0x40 MLOAD DUP1 DUP4 SUB DUP2 DUP7 GAS STATICCALL ISZERO DUP1 ISZERO PUSH2 0x2AA8 JUMPI RETURNDATASIZE PUSH1 0x0 DUP1 RETURNDATACOPY RETURNDATASIZE PUSH1 0x0 REVERT JUMPDEST POP POP POP POP PUSH1 0x40 MLOAD RETURNDATASIZE PUSH1 0x0 DUP3 RETURNDATACOPY PUSH1 0x1F RETURNDATASIZE SWAP1 DUP2 ADD PUSH1 0x1F NOT AND DUP3 ADD PUSH1 0x40 MSTORE PUSH2 0x2AD0 SWAP2 SWAP1 DUP2 ADD SWAP1 PUSH2 0x39A5 JUMP JUMPDEST DUP8 DUP6 DUP2 MLOAD DUP2 LT PUSH2 0x2AE2 JUMPI PUSH2 0x2AE2 PUSH2 0x398F JUMP JUMPDEST PUSH1 0x20 MUL PUSH1 0x20 ADD ADD DUP2 SWAP1 MSTORE POP DUP1 PUSH1 0x1 PUSH1 0x1 PUSH1 0xA0 SHL SUB AND PUSH4 0x313CE567 PUSH1 0x40 MLOAD DUP2 PUSH4 0xFFFFFFFF AND PUSH1 0xE0 SHL DUP2 MSTORE PUSH1 0x4 ADD PUSH1 0x20 PUSH1 0x40 MLOAD DUP1 DUP4 SUB DUP2 DUP7 GAS STATICCALL ISZERO DUP1 ISZERO PUSH2 0x2B2B JUMPI RETURNDATASIZE PUSH1 0x0 DUP1 RETURNDATACOPY RETURNDATASIZE PUSH1 0x0 REVERT JUMPDEST POP POP POP POP PUSH1 0x40 MLOAD RETURNDATASIZE PUSH1 0x1F NOT PUSH1 0x1F DUP3 ADD AND DUP3 ADD DUP1 PUSH1 0x40 MSTORE POP DUP2 ADD SWAP1 PUSH2 0x2B4F SWAP2 SWAP1 PUSH2 0x3A51 JUMP JUMPDEST PUSH1 0xFF AND DUP7 DUP6 DUP2 MLOAD DUP2 LT PUSH2 0x2B64 JUMPI PUSH2 0x2B64 PUSH2 0x398F JUMP JUMPDEST PUSH1 0x20 MUL PUSH1 0x20 ADD ADD DUP2 DUP2 MSTORE POP POP POP POP POP DUP1 DUP1 PUSH2 0x2B7E SWAP1 PUSH2 0x3A8A JUMP JUMPDEST SWAP2 POP POP PUSH2 0x2628 JUMP JUMPDEST POP POP SWAP4 SWAP8 SWAP12 SWAP3 SWAP7 SWAP11 POP SWAP4 SWAP8 POP SWAP4 SWAP8 POP JUMP JUMPDEST PUSH1 0x0 DUP1 PUSH1 0x0 DUP1 PUSH1 0x0 DUP1 DUP10 PUSH1 0x1 PUSH1 0x1 PUSH1 0xA0 SHL SUB AND PUSH4 0x1526FE27 DUP13 PUSH1 0x40 MLOAD DUP3 PUSH4 0xFFFFFFFF AND PUSH1 0xE0 SHL DUP2 MSTORE PUSH1 0x4 ADD PUSH2 0x2BCE SWAP2 DUP2 MSTORE PUSH1 0x20 ADD SWAP1 JUMP JUMPDEST PUSH1 0x80 PUSH1 0x40 MLOAD DUP1 DUP4 SUB DUP2 DUP7 GAS STATICCALL ISZERO DUP1 ISZERO PUSH2 0x2BEB JUMPI RETURNDATASIZE PUSH1 0x0 DUP1 RETURNDATACOPY RETURNDATASIZE PUSH1 0x0 REVERT JUMPDEST POP POP POP POP PUSH1 0x40 MLOAD RETURNDATASIZE PUSH1 0x1F NOT PUSH1 0x1F DUP3 ADD AND DUP3 ADD DUP1 PUSH1 0x40 MSTORE POP DUP2 ADD SWAP1 PUSH2 0x2C0F SWAP2 SWAP1 PUSH2 0x3AC5 JUMP JUMPDEST SWAP1 SWAP2 SWAP3 POP SWAP1 POP POP DUP1 SWAP7 POP POP DUP10 PUSH1 0x1 PUSH1 0x1 PUSH1 0xA0 SHL SUB AND PUSH4 0x17CAF6F1 PUSH1 0x40 MLOAD DUP2 PUSH4 0xFFFFFFFF AND PUSH1 0xE0 SHL DUP2 MSTORE PUSH1 0x4 ADD PUSH1 0x20 PUSH1 0x40 MLOAD DUP1 DUP4 SUB DUP2 DUP7 GAS STATICCALL ISZERO DUP1 ISZERO PUSH2 0x2C58 JUMPI RETURNDATASIZE PUSH1 0x0 DUP1 RETURNDATACOPY RETURNDATASIZE PUSH1 0x0 REVERT JUMPDEST POP POP POP POP PUSH1 0x40 MLOAD RETURNDATASIZE PUSH1 0x1F NOT PUSH1 0x1F DUP3 ADD AND DUP3 ADD DUP1 PUSH1 0x40 MSTORE POP DUP2 ADD SWAP1 PUSH2 0x2C7C SWAP2 SWAP1 PUSH2 0x3943 JUMP JUMPDEST PUSH1 0x40 MLOAD PUSH4 0x70A08231 PUSH1 0xE0 SHL DUP2 MSTORE PUSH1 0x1 PUSH1 0x1 PUSH1 0xA0 SHL SUB DUP12 DUP2 AND PUSH1 0x4 DUP4 ADD MSTORE SWAP2 SWAP7 POP SWAP1 DUP9 AND SWAP1 PUSH4 0x70A08231 SWAP1 PUSH1 0x24 ADD PUSH1 0x20 PUSH1 0x40 MLOAD DUP1 DUP4 SUB DUP2 DUP7 GAS STATICCALL ISZERO DUP1 ISZERO PUSH2 0x2CC6 JUMPI RETURNDATASIZE PUSH1 0x0 DUP1 RETURNDATACOPY RETURNDATASIZE PUSH1 0x0 REVERT JUMPDEST POP POP POP POP PUSH1 0x40 MLOAD RETURNDATASIZE PUSH1 0x1F NOT PUSH1 0x1F DUP3 ADD AND DUP3 ADD DUP1 PUSH1 0x40 MSTORE POP DUP2 ADD SWAP1 PUSH2 0x2CEA SWAP2 SWAP1 PUSH2 0x3943 JUMP JUMPDEST PUSH1 0x40 MLOAD PUSH4 0x70A08231 PUSH1 0xE0 SHL DUP2 MSTORE PUSH1 0x1 PUSH1 0x1 PUSH1 0xA0 SHL SUB DUP12 DUP2 AND PUSH1 0x4 DUP4 ADD MSTORE SWAP2 SWAP6 POP SWAP1 DUP10 AND SWAP1 PUSH4 0x70A08231 SWAP1 PUSH1 0x24 ADD PUSH1 0x20 PUSH1 0x40 MLOAD DUP1 DUP4 SUB DUP2 DUP7 GAS STATICCALL ISZERO DUP1 ISZERO PUSH2 0x2D34 JUMPI RETURNDATASIZE PUSH1 0x0 DUP1 RETURNDATACOPY RETURNDATASIZE PUSH1 0x0 REVERT JUMPDEST POP POP POP POP PUSH1 0x40 MLOAD RETURNDATASIZE PUSH1 0x1F NOT PUSH1 0x1F DUP3 ADD AND DUP3 ADD DUP1 PUSH1 0x40 MSTORE POP DUP2 ADD SWAP1 PUSH2 0x2D58 SWAP2 SWAP1 PUSH2 0x3943 JUMP JUMPDEST PUSH1 0x40 MLOAD PUSH4 0x70A08231 PUSH1 0xE0 SHL DUP2 MSTORE PUSH1 0x1 PUSH1 0x1 PUSH1 0xA0 SHL SUB DUP13 DUP2 AND PUSH1 0x4 DUP4 ADD MSTORE SWAP2 SWAP5 POP SWAP1 DUP11 AND SWAP1 PUSH4 0x70A08231 SWAP1 PUSH1 0x24 ADD PUSH1 0x20 PUSH1 0x40 MLOAD DUP1 DUP4 SUB DUP2 DUP7 GAS STATICCALL ISZERO DUP1 ISZERO PUSH2 0x2DA2 JUMPI RETURNDATASIZE PUSH1 0x0 DUP1 RETURNDATACOPY RETURNDATASIZE PUSH1 0x0 REVERT JUMPDEST POP POP POP POP PUSH1 0x40 MLOAD RETURNDATASIZE PUSH1 0x1F NOT PUSH1 0x1F DUP3 ADD AND DUP3 ADD DUP1 PUSH1 0x40 MSTORE POP DUP2 ADD SWAP1 PUSH2 0x2DC6 SWAP2 SWAP1 PUSH2 0x3943 JUMP JUMPDEST SWAP2 POP DUP9 PUSH1 0x1 PUSH1 0x1 PUSH1 0xA0 SHL SUB AND PUSH4 0x18160DDD PUSH1 0x40 MLOAD DUP2 PUSH4 0xFFFFFFFF AND PUSH1 0xE0 SHL DUP2 MSTORE PUSH1 0x4 ADD PUSH1 0x20 PUSH1 0x40 MLOAD DUP1 DUP4 SUB DUP2 DUP7 GAS STATICCALL ISZERO DUP1 ISZERO PUSH2 0x2E06 JUMPI RETURNDATASIZE PUSH1 0x0 DUP1 RETURNDATACOPY RETURNDATASIZE PUSH1 0x0 REVERT JUMPDEST POP POP POP POP PUSH1 0x40 MLOAD RETURNDATASIZE PUSH1 0x1F NOT PUSH1 0x1F DUP3 ADD AND DUP3 ADD DUP1 PUSH1 0x40 MSTORE POP DUP2 ADD SWAP1 PUSH2 0x2E2A SWAP2 SWAP1 PUSH2 0x3943 JUMP JUMPDEST SWAP1 POP SWAP6 POP SWAP6 POP SWAP6 POP SWAP6 POP SWAP6 POP SWAP6 JUMP JUMPDEST PUSH1 0x60 DUP1 PUSH1 0x60 DUP1 PUSH1 0x60 DUP1 PUSH1 0x0 DUP8 PUSH1 0x1 PUSH1 0x1 PUSH1 0xA0 SHL SUB AND PUSH4 0xE8096D45 PUSH1 0x40 MLOAD DUP2 PUSH4 0xFFFFFFFF AND PUSH1 0xE0 SHL DUP2 MSTORE PUSH1 0x4 ADD PUSH1 0x20 PUSH1 0x40 MLOAD DUP1 DUP4 SUB DUP2 DUP7 GAS STATICCALL ISZERO DUP1 ISZERO PUSH2 0x2E82 JUMPI RETURNDATASIZE PUSH1 0x0 DUP1 RETURNDATACOPY RETURNDATASIZE PUSH1 0x0 REVERT JUMPDEST POP POP POP POP PUSH1 0x40 MLOAD RETURNDATASIZE PUSH1 0x1F NOT PUSH1 0x1F DUP3 ADD AND DUP3 ADD DUP1 PUSH1 0x40 MSTORE POP DUP2 ADD SWAP1 PUSH2 0x2EA6 SWAP2 SWAP1 PUSH2 0x3943 JUMP JUMPDEST SWAP1 POP DUP1 PUSH1 0x1 PUSH1 0x1 PUSH1 0x40 SHL SUB DUP2 GT ISZERO PUSH2 0x2EC0 JUMPI PUSH2 0x2EC0 PUSH2 0x395C JUMP JUMPDEST PUSH1 0x40 MLOAD SWAP1 DUP1 DUP3 MSTORE DUP1 PUSH1 0x20 MUL PUSH1 0x20 ADD DUP3 ADD PUSH1 0x40 MSTORE DUP1 ISZERO PUSH2 0x2EE9 JUMPI DUP2 PUSH1 0x20 ADD PUSH1 0x20 DUP3 MUL DUP1 CALLDATASIZE DUP4 CALLDATACOPY ADD SWAP1 POP JUMPDEST POP SWAP7 POP DUP1 PUSH1 0x1 PUSH1 0x1 PUSH1 0x40 SHL SUB DUP2 GT ISZERO PUSH2 0x2F04 JUMPI PUSH2 0x2F04 PUSH2 0x395C JUMP JUMPDEST PUSH1 0x40 MLOAD SWAP1 DUP1 DUP3 MSTORE DUP1 PUSH1 0x20 MUL PUSH1 0x20 ADD DUP3 ADD PUSH1 0x40 MSTORE DUP1 ISZERO PUSH2 0x2F2D JUMPI DUP2 PUSH1 0x20 ADD PUSH1 0x20 DUP3 MUL DUP1 CALLDATASIZE DUP4 CALLDATACOPY ADD SWAP1 POP JUMPDEST POP SWAP6 POP DUP1 PUSH1 0x1 PUSH1 0x1 PUSH1 0x40 SHL SUB DUP2 GT ISZERO PUSH2 0x2F48 JUMPI PUSH2 0x2F48 PUSH2 0x395C JUMP JUMPDEST PUSH1 0x40 MLOAD SWAP1 DUP1 DUP3 MSTORE DUP1 PUSH1 0x20 MUL PUSH1 0x20 ADD DUP3 ADD PUSH1 0x40 MSTORE DUP1 ISZERO PUSH2 0x2F7B JUMPI DUP2 PUSH1 0x20 ADD JUMPDEST PUSH1 0x60 DUP2 MSTORE PUSH1 0x20 ADD SWAP1 PUSH1 0x1 SWAP1 SUB SWAP1 DUP2 PUSH2 0x2F66 JUMPI SWAP1 POP JUMPDEST POP SWAP5 POP DUP1 PUSH1 0x1 PUSH1 0x1 PUSH1 0x40 SHL SUB DUP2 GT ISZERO PUSH2 0x2F96 JUMPI PUSH2 0x2F96 PUSH2 0x395C JUMP JUMPDEST PUSH1 0x40 MLOAD SWAP1 DUP1 DUP3 MSTORE DUP1 PUSH1 0x20 MUL PUSH1 0x20 ADD DUP3 ADD PUSH1 0x40 MSTORE DUP1 ISZERO PUSH2 0x2FC9 JUMPI DUP2 PUSH1 0x20 ADD JUMPDEST PUSH1 0x60 DUP2 MSTORE PUSH1 0x20 ADD SWAP1 PUSH1 0x1 SWAP1 SUB SWAP1 DUP2 PUSH2 0x2FB4 JUMPI SWAP1 POP JUMPDEST POP SWAP4 POP DUP1 PUSH1 0x1 PUSH1 0x1 PUSH1 0x40 SHL SUB DUP2 GT ISZERO PUSH2 0x2FE4 JUMPI PUSH2 0x2FE4 PUSH2 0x395C JUMP JUMPDEST PUSH1 0x40 MLOAD SWAP1 DUP1 DUP3 MSTORE DUP1 PUSH1 0x20 MUL PUSH1 0x20 ADD DUP3 ADD PUSH1 0x40 MSTORE DUP1 ISZERO PUSH2 0x300D JUMPI DUP2 PUSH1 0x20 ADD PUSH1 0x20 DUP3 MUL DUP1 CALLDATASIZE DUP4 CALLDATACOPY ADD SWAP1 POP JUMPDEST POP SWAP3 POP DUP1 PUSH1 0x1 PUSH1 0x1 PUSH1 0x40 SHL SUB DUP2 GT ISZERO PUSH2 0x3028 JUMPI PUSH2 0x3028 PUSH2 0x395C JUMP JUMPDEST PUSH1 0x40 MLOAD SWAP1 DUP1 DUP3 MSTORE DUP1 PUSH1 0x20 MUL PUSH1 0x20 ADD DUP3 ADD PUSH1 0x40 MSTORE DUP1 ISZERO PUSH2 0x3051 JUMPI DUP2 PUSH1 0x20 ADD PUSH1 0x20 DUP3 MUL DUP1 CALLDATASIZE DUP4 CALLDATACOPY ADD SWAP1 POP JUMPDEST POP SWAP2 POP PUSH1 0x0 JUMPDEST DUP2 DUP2 LT ISZERO PUSH2 0x33FE JUMPI PUSH1 0x40 MLOAD PUSH4 0x6C7B6ACB PUSH1 0xE1 SHL DUP2 MSTORE PUSH1 0x4 DUP2 ADD DUP3 SWAP1 MSTORE PUSH1 0x1 PUSH1 0x1 PUSH1 0xA0 SHL SUB DUP11 AND SWAP1 PUSH4 0xD8F6D596 SWAP1 PUSH1 0x24 ADD PUSH1 0x20 PUSH1 0x40 MLOAD DUP1 DUP4 SUB DUP2 DUP7 GAS STATICCALL ISZERO DUP1 ISZERO PUSH2 0x30A4 JUMPI RETURNDATASIZE PUSH1 0x0 DUP1 RETURNDATACOPY RETURNDATASIZE PUSH1 0x0 REVERT JUMPDEST POP POP POP POP PUSH1 0x40 MLOAD RETURNDATASIZE PUSH1 0x1F NOT PUSH1 0x1F DUP3 ADD AND DUP3 ADD DUP1 PUSH1 0x40 MSTORE POP DUP2 ADD SWAP1 PUSH2 0x30C8 SWAP2 SWAP1 PUSH2 0x3972 JUMP JUMPDEST DUP9 DUP3 DUP2 MLOAD DUP2 LT PUSH2 0x30DA JUMPI PUSH2 0x30DA PUSH2 0x398F JUMP JUMPDEST PUSH1 0x20 MUL PUSH1 0x20 ADD ADD SWAP1 PUSH1 0x1 PUSH1 0x1 PUSH1 0xA0 SHL SUB AND SWAP1 DUP2 PUSH1 0x1 PUSH1 0x1 PUSH1 0xA0 SHL SUB AND DUP2 MSTORE POP POP DUP8 DUP2 DUP2 MLOAD DUP2 LT PUSH2 0x310C JUMPI PUSH2 0x310C PUSH2 0x398F JUMP JUMPDEST PUSH1 0x20 MUL PUSH1 0x20 ADD ADD MLOAD PUSH1 0x1 PUSH1 0x1 PUSH1 0xA0 SHL SUB AND PUSH4 0xB7813607 PUSH1 0x40 MLOAD DUP2 PUSH4 0xFFFFFFFF AND PUSH1 0xE0 SHL DUP2 MSTORE PUSH1 0x4 ADD PUSH1 0x20 PUSH1 0x40 MLOAD DUP1 DUP4 SUB DUP2 DUP7 GAS STATICCALL ISZERO DUP1 ISZERO PUSH2 0x3151 JUMPI RETURNDATASIZE PUSH1 0x0 DUP1 RETURNDATACOPY RETURNDATASIZE PUSH1 0x0 REVERT JUMPDEST POP POP POP POP PUSH1 0x40 MLOAD RETURNDATASIZE PUSH1 0x1F NOT PUSH1 0x1F DUP3 ADD AND DUP3 ADD DUP1 PUSH1 0x40 MSTORE POP DUP2 ADD SWAP1 PUSH2 0x3175 SWAP2 SWAP1 PUSH2 0x3972 JUMP JUMPDEST DUP8 DUP3 DUP2 MLOAD DUP2 LT PUSH2 0x3187 JUMPI PUSH2 0x3187 PUSH2 0x398F JUMP JUMPDEST PUSH1 0x20 MUL PUSH1 0x20 ADD ADD SWAP1 PUSH1 0x1 PUSH1 0x1 PUSH1 0xA0 SHL SUB AND SWAP1 DUP2 PUSH1 0x1 PUSH1 0x1 PUSH1 0xA0 SHL SUB AND DUP2 MSTORE POP POP PUSH1 0x0 DUP8 DUP3 DUP2 MLOAD DUP2 LT PUSH2 0x31BB JUMPI PUSH2 0x31BB PUSH2 0x398F JUMP JUMPDEST PUSH1 0x20 MUL PUSH1 0x20 ADD ADD MLOAD SWAP1 POP DUP1 PUSH1 0x1 PUSH1 0x1 PUSH1 0xA0 SHL SUB AND PUSH4 0x6FDDE03 PUSH1 0x40 MLOAD DUP2 PUSH4 0xFFFFFFFF AND PUSH1 0xE0 SHL DUP2 MSTORE PUSH1 0x4 ADD PUSH1 0x0 PUSH1 0x40 MLOAD DUP1 DUP4 SUB DUP2 DUP7 GAS STATICCALL ISZERO DUP1 ISZERO PUSH2 0x3203 JUMPI RETURNDATASIZE PUSH1 0x0 DUP1 RETURNDATACOPY RETURNDATASIZE PUSH1 0x0 REVERT JUMPDEST POP POP POP POP PUSH1 0x40 MLOAD RETURNDATASIZE PUSH1 0x0 DUP3 RETURNDATACOPY PUSH1 0x1F RETURNDATASIZE SWAP1 DUP2 ADD PUSH1 0x1F NOT AND DUP3 ADD PUSH1 0x40 MSTORE PUSH2 0x322B SWAP2 SWAP1 DUP2 ADD SWAP1 PUSH2 0x39A5 JUMP JUMPDEST DUP8 DUP4 DUP2 MLOAD DUP2 LT PUSH2 0x323D JUMPI PUSH2 0x323D PUSH2 0x398F JUMP JUMPDEST PUSH1 0x20 MUL PUSH1 0x20 ADD ADD DUP2 SWAP1 MSTORE POP DUP1 PUSH1 0x1 PUSH1 0x1 PUSH1 0xA0 SHL SUB AND PUSH4 0x95D89B41 PUSH1 0x40 MLOAD DUP2 PUSH4 0xFFFFFFFF AND PUSH1 0xE0 SHL DUP2 MSTORE PUSH1 0x4 ADD PUSH1 0x0 PUSH1 0x40 MLOAD DUP1 DUP4 SUB DUP2 DUP7 GAS STATICCALL ISZERO DUP1 ISZERO PUSH2 0x3286 JUMPI RETURNDATASIZE PUSH1 0x0 DUP1 RETURNDATACOPY RETURNDATASIZE PUSH1 0x0 REVERT JUMPDEST POP POP POP POP PUSH1 0x40 MLOAD RETURNDATASIZE PUSH1 0x0 DUP3 RETURNDATACOPY PUSH1 0x1F RETURNDATASIZE SWAP1 DUP2 ADD PUSH1 0x1F NOT AND DUP3 ADD PUSH1 0x40 MSTORE PUSH2 0x32AE SWAP2 SWAP1 DUP2 ADD SWAP1 PUSH2 0x39A5 JUMP JUMPDEST DUP7 DUP4 DUP2 MLOAD DUP2 LT PUSH2 0x32C0 JUMPI PUSH2 0x32C0 PUSH2 0x398F JUMP JUMPDEST PUSH1 0x20 MUL PUSH1 0x20 ADD ADD DUP2 SWAP1 MSTORE POP DUP1 PUSH1 0x1 PUSH1 0x1 PUSH1 0xA0 SHL SUB AND PUSH4 0x313CE567 PUSH1 0x40 MLOAD DUP2 PUSH4 0xFFFFFFFF AND PUSH1 0xE0 SHL DUP2 MSTORE PUSH1 0x4 ADD PUSH1 0x20 PUSH1 0x40 MLOAD DUP1 DUP4 SUB DUP2 DUP7 GAS STATICCALL ISZERO DUP1 ISZERO PUSH2 0x3309 JUMPI RETURNDATASIZE PUSH1 0x0 DUP1 RETURNDATACOPY RETURNDATASIZE PUSH1 0x0 REVERT JUMPDEST POP POP POP POP PUSH1 0x40 MLOAD RETURNDATASIZE PUSH1 0x1F NOT PUSH1 0x1F DUP3 ADD AND DUP3 ADD DUP1 PUSH1 0x40 MSTORE POP DUP2 ADD SWAP1 PUSH2 0x332D SWAP2 SWAP1 PUSH2 0x3A51 JUMP JUMPDEST PUSH1 0xFF AND DUP6 DUP4 DUP2 MLOAD DUP2 LT PUSH2 0x3342 JUMPI PUSH2 0x3342 PUSH2 0x398F JUMP JUMPDEST PUSH1 0x20 MUL PUSH1 0x20 ADD ADD DUP2 DUP2 MSTORE POP POP DUP9 DUP3 DUP2 MLOAD DUP2 LT PUSH2 0x3360 JUMPI PUSH2 0x3360 PUSH2 0x398F JUMP JUMPDEST PUSH1 0x20 MUL PUSH1 0x20 ADD ADD MLOAD PUSH1 0x1 PUSH1 0x1 PUSH1 0xA0 SHL SUB AND PUSH4 0xB3F05B97 PUSH1 0x40 MLOAD DUP2 PUSH4 0xFFFFFFFF AND PUSH1 0xE0 SHL DUP2 MSTORE PUSH1 0x4 ADD PUSH1 0x20 PUSH1 0x40 MLOAD DUP1 DUP4 SUB DUP2 DUP7 GAS STATICCALL ISZERO DUP1 ISZERO PUSH2 0x33A5 JUMPI RETURNDATASIZE PUSH1 0x0 DUP1 RETURNDATACOPY RETURNDATASIZE PUSH1 0x0 REVERT JUMPDEST POP POP POP POP PUSH1 0x40 MLOAD RETURNDATASIZE PUSH1 0x1F NOT PUSH1 0x1F DUP3 ADD AND DUP3 ADD DUP1 PUSH1 0x40 MSTORE POP DUP2 ADD SWAP1 PUSH2 0x33C9 SWAP2 SWAP1 PUSH2 0x3AA3 JUMP JUMPDEST DUP5 DUP4 DUP2 MLOAD DUP2 LT PUSH2 0x33DB JUMPI PUSH2 0x33DB PUSH2 0x398F JUMP JUMPDEST SWAP2 ISZERO ISZERO PUSH1 0x20 SWAP3 DUP4 MUL SWAP2 SWAP1 SWAP2 ADD SWAP1 SWAP2 ADD MSTORE POP DUP1 PUSH2 0x33F6 DUP2 PUSH2 0x3A8A JUMP JUMPDEST SWAP2 POP POP PUSH2 0x3057 JUMP JUMPDEST POP POP SWAP2 SWAP4 SWAP6 POP SWAP2 SWAP4 SWAP6 JUMP JUMPDEST PUSH1 0x1 PUSH1 0x1 PUSH1 0xA0 SHL SUB DUP2 AND DUP2 EQ PUSH2 0x341E JUMPI PUSH1 0x0 DUP1 REVERT JUMPDEST POP JUMP JUMPDEST PUSH1 0x0 PUSH1 0x20 DUP3 DUP5 SUB SLT ISZERO PUSH2 0x3433 JUMPI PUSH1 0x0 DUP1 REVERT JUMPDEST DUP2 CALLDATALOAD PUSH2 0x343E DUP2 PUSH2 0x3409 JUMP JUMPDEST SWAP4 SWAP3 POP POP POP JUMP JUMPDEST PUSH1 0x0 DUP2 MLOAD DUP1 DUP5 MSTORE PUSH1 0x20 DUP1 DUP6 ADD SWAP5 POP DUP1 DUP5 ADD PUSH1 0x0 JUMPDEST DUP4 DUP2 LT ISZERO PUSH2 0x347E JUMPI DUP2 MLOAD PUSH1 0x1 PUSH1 0x1 PUSH1 0xA0 SHL SUB AND DUP8 MSTORE SWAP6 DUP3 ADD SWAP6 SWAP1 DUP3 ADD SWAP1 PUSH1 0x1 ADD PUSH2 0x3459 JUMP JUMPDEST POP SWAP5 SWAP6 SWAP5 POP POP POP POP POP JUMP JUMPDEST PUSH1 0x0 JUMPDEST DUP4 DUP2 LT ISZERO PUSH2 0x34A4 JUMPI DUP2 DUP2 ADD MLOAD DUP4 DUP3 ADD MSTORE PUSH1 0x20 ADD PUSH2 0x348C JUMP JUMPDEST POP POP PUSH1 0x0 SWAP2 ADD MSTORE JUMP JUMPDEST PUSH1 0x0 DUP3 DUP3 MLOAD DUP1 DUP6 MSTORE PUSH1 0x20 DUP1 DUP7 ADD SWAP6 POP DUP1 DUP3 PUSH1 0x5 SHL DUP5 ADD ADD DUP2 DUP7 ADD PUSH1 0x0 JUMPDEST DUP5 DUP2 LT ISZERO PUSH2 0x3510 JUMPI PUSH1 0x1F NOT DUP1 DUP8 DUP6 SUB ADD DUP11 MSTORE DUP3 MLOAD DUP1 MLOAD DUP1 DUP7 MSTORE PUSH2 0x34F2 DUP2 DUP9 DUP9 ADD DUP10 DUP6 ADD PUSH2 0x3489 JUMP JUMPDEST SWAP11 DUP7 ADD SWAP11 PUSH1 0x1F ADD SWAP1 SWAP2 AND SWAP4 SWAP1 SWAP4 ADD DUP5 ADD SWAP3 POP SWAP1 DUP4 ADD SWAP1 PUSH1 0x1 ADD PUSH2 0x34CA JUMP JUMPDEST POP SWAP1 SWAP8 SWAP7 POP POP POP POP POP POP POP JUMP JUMPDEST PUSH1 0x0 DUP2 MLOAD DUP1 DUP5 MSTORE PUSH1 0x20 DUP1 DUP6 ADD SWAP5 POP DUP1 DUP5 ADD PUSH1 0x0 JUMPDEST DUP4 DUP2 LT ISZERO PUSH2 0x347E JUMPI DUP2 MLOAD DUP8 MSTORE SWAP6 DUP3 ADD SWAP6 SWAP1 DUP3 ADD SWAP1 PUSH1 0x1 ADD PUSH2 0x3531 JUMP JUMPDEST PUSH1 0x0 PUSH2 0x120 DUP1 DUP4 MSTORE PUSH2 0x3561 DUP2 DUP5 ADD DUP14 PUSH2 0x3445 JUMP JUMPDEST SWAP1 POP DUP3 DUP2 SUB PUSH1 0x20 DUP5 ADD MSTORE PUSH2 0x3575 DUP2 DUP13 PUSH2 0x3445 JUMP JUMPDEST SWAP1 POP DUP3 DUP2 SUB PUSH1 0x40 DUP5 ADD MSTORE PUSH2 0x3589 DUP2 DUP12 PUSH2 0x34AD JUMP JUMPDEST SWAP1 POP DUP3 DUP2 SUB PUSH1 0x60 DUP5 ADD MSTORE PUSH2 0x359D DUP2 DUP11 PUSH2 0x34AD JUMP JUMPDEST SWAP1 POP DUP3 DUP2 SUB PUSH1 0x80 DUP5 ADD MSTORE PUSH2 0x35B1 DUP2 DUP10 PUSH2 0x351D JUMP JUMPDEST SWAP1 POP DUP3 DUP2 SUB PUSH1 0xA0 DUP5 ADD MSTORE PUSH2 0x35C5 DUP2 DUP9 PUSH2 0x3445 JUMP JUMPDEST SWAP1 POP DUP3 DUP2 SUB PUSH1 0xC0 DUP5 ADD MSTORE PUSH2 0x35D9 DUP2 DUP8 PUSH2 0x34AD JUMP JUMPDEST SWAP1 POP DUP3 DUP2 SUB PUSH1 0xE0 DUP5 ADD MSTORE PUSH2 0x35ED DUP2 DUP7 PUSH2 0x34AD JUMP JUMPDEST SWAP1 POP DUP3 DUP2 SUB PUSH2 0x100 DUP5 ADD MSTORE PUSH2 0x3602 DUP2 DUP6 PUSH2 0x351D JUMP JUMPDEST SWAP13 SWAP12 POP POP POP POP POP POP POP POP POP POP POP POP JUMP JUMPDEST PUSH1 0x0 DUP2 MLOAD DUP1 DUP5 MSTORE PUSH1 0x20 DUP1 DUP6 ADD SWAP5 POP DUP1 DUP5 ADD PUSH1 0x0 JUMPDEST DUP4 DUP2 LT ISZERO PUSH2 0x347E JUMPI DUP2 MLOAD ISZERO ISZERO DUP8 MSTORE SWAP6 DUP3 ADD SWAP6 SWAP1 DUP3 ADD SWAP1 PUSH1 0x1 ADD PUSH2 0x3626 JUMP JUMPDEST PUSH1 0x0 PUSH2 0x160 DUP1 DUP4 MSTORE PUSH2 0x3658 DUP2 DUP5 ADD DUP16 PUSH2 0x3445 JUMP JUMPDEST SWAP1 POP DUP3 DUP2 SUB PUSH1 0x20 DUP5 ADD MSTORE PUSH2 0x366C DUP2 DUP15 PUSH2 0x3445 JUMP JUMPDEST SWAP1 POP DUP3 DUP2 SUB PUSH1 0x40 DUP5 ADD MSTORE PUSH2 0x3680 DUP2 DUP14 PUSH2 0x34AD JUMP JUMPDEST SWAP1 POP DUP3 DUP2 SUB PUSH1 0x60 DUP5 ADD MSTORE PUSH2 0x3694 DUP2 DUP13 PUSH2 0x34AD JUMP JUMPDEST SWAP1 POP DUP3 DUP2 SUB PUSH1 0x80 DUP5 ADD MSTORE PUSH2 0x36A8 DUP2 DUP12 PUSH2 0x351D JUMP JUMPDEST SWAP1 POP DUP3 DUP2 SUB PUSH1 0xA0 DUP5 ADD MSTORE PUSH2 0x36BC DUP2 DUP11 PUSH2 0x3612 JUMP JUMPDEST SWAP1 POP DUP3 DUP2 SUB PUSH1 0xC0 DUP5 ADD MSTORE PUSH2 0x36D0 DUP2 DUP10 PUSH2 0x34AD JUMP JUMPDEST SWAP1 POP DUP3 DUP2 SUB PUSH1 0xE0 DUP5 ADD MSTORE PUSH2 0x36E4 DUP2 DUP9 PUSH2 0x34AD JUMP JUMPDEST SWAP1 POP DUP3 DUP2 SUB PUSH2 0x100 DUP5 ADD MSTORE PUSH2 0x36F9 DUP2 DUP8 PUSH2 0x34AD JUMP JUMPDEST SWAP1 POP DUP3 DUP2 SUB PUSH2 0x120 DUP5 ADD MSTORE PUSH2 0x370E DUP2 DUP7 PUSH2 0x351D JUMP JUMPDEST SWAP1 POP DUP3 DUP2 SUB PUSH2 0x140 DUP5 ADD MSTORE PUSH2 0x3723 DUP2 DUP6 PUSH2 0x351D JUMP JUMPDEST SWAP15 SWAP14 POP POP POP POP POP POP POP POP POP POP POP POP POP POP JUMP JUMPDEST PUSH1 0xA0 DUP2 MSTORE PUSH1 0x0 PUSH2 0x3748 PUSH1 0xA0 DUP4 ADD DUP9 PUSH2 0x3445 JUMP JUMPDEST PUSH1 0x20 DUP4 DUP3 SUB DUP2 DUP6 ADD MSTORE PUSH2 0x375B DUP3 DUP10 PUSH2 0x3445 JUMP JUMPDEST SWAP2 POP PUSH1 0x40 DUP5 DUP4 SUB DUP2 DUP7 ADD MSTORE PUSH2 0x3770 DUP4 DUP10 PUSH2 0x34AD JUMP JUMPDEST SWAP3 POP DUP5 DUP4 SUB PUSH1 0x60 DUP7 ADD MSTORE PUSH2 0x3784 DUP4 DUP9 PUSH2 0x34AD JUMP JUMPDEST SWAP3 POP DUP5 DUP4 SUB PUSH1 0x80 DUP7 ADD MSTORE DUP3 DUP7 MLOAD DUP1 DUP6 MSTORE DUP4 DUP6 ADD SWAP2 POP DUP4 DUP2 PUSH1 0x5 SHL DUP7 ADD ADD DUP5 DUP10 ADD PUSH1 0x0 DUP1 JUMPDEST DUP5 DUP2 LT ISZERO PUSH2 0x3810 JUMPI DUP9 DUP5 SUB PUSH1 0x1F NOT ADD DUP7 MSTORE DUP3 MLOAD MLOAD DUP9 DUP6 MSTORE DUP1 MLOAD DUP10 DUP7 ADD DUP2 SWAP1 MSTORE SWAP1 DUP10 ADD SWAP1 DUP4 SWAP1 DUP10 DUP8 ADD SWAP1 JUMPDEST DUP1 DUP4 LT ISZERO PUSH2 0x37FB JUMPI DUP4 MLOAD PUSH1 0x1 PUSH1 0x1 PUSH1 0xA0 SHL SUB AND DUP3 MSTORE SWAP3 DUP12 ADD SWAP3 PUSH1 0x1 SWAP3 SWAP1 SWAP3 ADD SWAP2 SWAP1 DUP12 ADD SWAP1 PUSH2 0x37D2 JUMP JUMPDEST POP SWAP8 DUP11 ADD SWAP8 SWAP6 POP POP POP SWAP2 DUP8 ADD SWAP2 PUSH1 0x1 ADD PUSH2 0x37A8 JUMP JUMPDEST POP SWAP2 SWAP15 SWAP14 POP POP POP POP POP POP POP POP POP POP POP POP POP POP JUMP JUMPDEST PUSH1 0x0 DUP1 PUSH1 0x0 PUSH1 0x60 DUP5 DUP7 SUB SLT ISZERO PUSH2 0x3839 JUMPI PUSH1 0x0 DUP1 REVERT JUMPDEST DUP4 CALLDATALOAD PUSH2 0x3844 DUP2 PUSH2 0x3409 JUMP JUMPDEST SWAP6 PUSH1 0x20 DUP6 ADD CALLDATALOAD SWAP6 POP PUSH1 0x40 SWAP1 SWAP5 ADD CALLDATALOAD SWAP4 SWAP3 POP POP POP JUMP JUMPDEST PUSH1 0x0 DUP1 PUSH1 0x0 DUP1 PUSH1 0x0 PUSH1 0xA0 DUP7 DUP9 SUB SLT ISZERO PUSH2 0x3871 JUMPI PUSH1 0x0 DUP1 REVERT JUMPDEST DUP6 CALLDATALOAD SWAP5 POP PUSH1 0x20 DUP7 ADD CALLDATALOAD PUSH2 0x3883 DUP2 PUSH2 0x3409 JUMP JUMPDEST SWAP4 POP PUSH1 0x40 DUP7 ADD CALLDATALOAD PUSH2 0x3893 DUP2 PUSH2 0x3409 JUMP JUMPDEST SWAP3 POP PUSH1 0x60 DUP7 ADD CALLDATALOAD PUSH2 0x38A3 DUP2 PUSH2 0x3409 JUMP JUMPDEST SWAP2 POP PUSH1 0x80 DUP7 ADD CALLDATALOAD PUSH2 0x38B3 DUP2 PUSH2 0x3409 JUMP JUMPDEST DUP1 SWAP2 POP POP SWAP3 SWAP6 POP SWAP3 SWAP6 SWAP1 SWAP4 POP JUMP JUMPDEST PUSH1 0xC0 DUP2 MSTORE PUSH1 0x0 PUSH2 0x38D4 PUSH1 0xC0 DUP4 ADD DUP10 PUSH2 0x3445 JUMP JUMPDEST DUP3 DUP2 SUB PUSH1 0x20 DUP5 ADD MSTORE PUSH2 0x38E6 DUP2 DUP10 PUSH2 0x3445 JUMP JUMPDEST SWAP1 POP DUP3 DUP2 SUB PUSH1 0x40 DUP5 ADD MSTORE PUSH2 0x38FA DUP2 DUP9 PUSH2 0x34AD JUMP JUMPDEST SWAP1 POP DUP3 DUP2 SUB PUSH1 0x60 DUP5 ADD MSTORE PUSH2 0x390E DUP2 DUP8 PUSH2 0x34AD JUMP JUMPDEST SWAP1 POP DUP3 DUP2 SUB PUSH1 0x80 DUP5 ADD MSTORE PUSH2 0x3922 DUP2 DUP7 PUSH2 0x351D JUMP JUMPDEST SWAP1 POP DUP3 DUP2 SUB PUSH1 0xA0 DUP5 ADD MSTORE PUSH2 0x3936 DUP2 DUP6 PUSH2 0x3612 JUMP JUMPDEST SWAP10 SWAP9 POP POP POP POP POP POP POP POP POP JUMP JUMPDEST PUSH1 0x0 PUSH1 0x20 DUP3 DUP5 SUB SLT ISZERO PUSH2 0x3955 JUMPI PUSH1 0x0 DUP1 REVERT JUMPDEST POP MLOAD SWAP2 SWAP1 POP JUMP JUMPDEST PUSH4 0x4E487B71 PUSH1 0xE0 SHL PUSH1 0x0 MSTORE PUSH1 0x41 PUSH1 0x4 MSTORE PUSH1 0x24 PUSH1 0x0 REVERT JUMPDEST PUSH1 0x0 PUSH1 0x20 DUP3 DUP5 SUB SLT ISZERO PUSH2 0x3984 JUMPI PUSH1 0x0 DUP1 REVERT JUMPDEST DUP2 MLOAD PUSH2 0x343E DUP2 PUSH2 0x3409 JUMP JUMPDEST PUSH4 0x4E487B71 PUSH1 0xE0 SHL PUSH1 0x0 MSTORE PUSH1 0x32 PUSH1 0x4 MSTORE PUSH1 0x24 PUSH1 0x0 REVERT JUMPDEST PUSH1 0x0 PUSH1 0x20 DUP3 DUP5 SUB SLT ISZERO PUSH2 0x39B7 JUMPI PUSH1 0x0 DUP1 REVERT JUMPDEST DUP2 MLOAD PUSH1 0x1 PUSH1 0x1 PUSH1 0x40 SHL SUB DUP1 DUP3 GT ISZERO PUSH2 0x39CE JUMPI PUSH1 0x0 DUP1 REVERT JUMPDEST DUP2 DUP5 ADD SWAP2 POP DUP5 PUSH1 0x1F DUP4 ADD SLT PUSH2 0x39E2 JUMPI PUSH1 0x0 DUP1 REVERT JUMPDEST DUP2 MLOAD DUP2 DUP2 GT ISZERO PUSH2 0x39F4 JUMPI PUSH2 0x39F4 PUSH2 0x395C JUMP JUMPDEST PUSH1 0x40 MLOAD PUSH1 0x1F DUP3 ADD PUSH1 0x1F NOT SWAP1 DUP2 AND PUSH1 0x3F ADD AND DUP2 ADD SWAP1 DUP4 DUP3 GT DUP2 DUP4 LT OR ISZERO PUSH2 0x3A1C JUMPI PUSH2 0x3A1C PUSH2 0x395C JUMP JUMPDEST DUP2 PUSH1 0x40 MSTORE DUP3 DUP2 MSTORE DUP8 PUSH1 0x20 DUP5 DUP8 ADD ADD GT ISZERO PUSH2 0x3A35 JUMPI PUSH1 0x0 DUP1 REVERT JUMPDEST PUSH2 0x3A46 DUP4 PUSH1 0x20 DUP4 ADD PUSH1 0x20 DUP9 ADD PUSH2 0x3489 JUMP JUMPDEST SWAP8 SWAP7 POP POP POP POP POP POP POP JUMP JUMPDEST PUSH1 0x0 PUSH1 0x20 DUP3 DUP5 SUB SLT ISZERO PUSH2 0x3A63 JUMPI PUSH1 0x0 DUP1 REVERT JUMPDEST DUP2 MLOAD PUSH1 0xFF DUP2 AND DUP2 EQ PUSH2 0x343E JUMPI PUSH1 0x0 DUP1 REVERT JUMPDEST PUSH4 0x4E487B71 PUSH1 0xE0 SHL PUSH1 0x0 MSTORE PUSH1 0x11 PUSH1 0x4 MSTORE PUSH1 0x24 PUSH1 0x0 REVERT JUMPDEST PUSH1 0x0 PUSH1 0x1 DUP3 ADD PUSH2 0x3A9C JUMPI PUSH2 0x3A9C PUSH2 0x3A74 JUMP JUMPDEST POP PUSH1 0x1 ADD SWAP1 JUMP JUMPDEST PUSH1 0x0 PUSH1 0x20 DUP3 DUP5 SUB SLT ISZERO PUSH2 0x3AB5 JUMPI PUSH1 0x0 DUP1 REVERT JUMPDEST DUP2 MLOAD DUP1 ISZERO ISZERO DUP2 EQ PUSH2 0x343E JUMPI PUSH1 0x0 DUP1 REVERT JUMPDEST PUSH1 0x0 DUP1 PUSH1 0x0 DUP1 PUSH1 0x80 DUP6 DUP8 SUB SLT ISZERO PUSH2 0x3ADB JUMPI PUSH1 0x0 DUP1 REVERT JUMPDEST DUP5 MLOAD PUSH2 0x3AE6 DUP2 PUSH2 0x3409 JUMP JUMPDEST PUSH1 0x20 DUP7 ADD MLOAD PUSH1 0x40 DUP8 ADD MLOAD PUSH1 0x60 SWAP1 SWAP8 ADD MLOAD SWAP2 SWAP9 SWAP1 SWAP8 POP SWAP1 SWAP5 POP SWAP3 POP POP POP JUMP JUMPDEST PUSH1 0x0 DUP1 PUSH1 0x0 DUP1 PUSH1 0x0 PUSH1 0xA0 DUP7 DUP9 SUB SLT ISZERO PUSH2 0x3B1C JUMPI PUSH1 0x0 DUP1 REVERT JUMPDEST DUP6 MLOAD PUSH2 0x3B27 DUP2 PUSH2 0x3409 JUMP JUMPDEST PUSH1 0x20 DUP8 ADD MLOAD PUSH1 0x40 DUP9 ADD MLOAD PUSH1 0x60 DUP10 ADD MLOAD PUSH1 0x80 SWAP1 SWAP10 ADD MLOAD SWAP3 SWAP11 SWAP2 SWAP10 POP SWAP8 SWAP7 POP SWAP1 SWAP5 POP SWAP3 POP POP POP JUMP JUMPDEST DUP2 DUP2 SUB DUP2 DUP2 GT ISZERO PUSH2 0x3B60 JUMPI PUSH2 0x3B60 PUSH2 0x3A74 JUMP JUMPDEST SWAP3 SWAP2 POP POP JUMP JUMPDEST DUP1 DUP3 ADD DUP1 DUP3 GT ISZERO PUSH2 0x3B60 JUMPI PUSH2 0x3B60 PUSH2 0x3A74 JUMP INVALID LOG2 PUSH5 0x6970667358 0x22 SLT KECCAK256 COINBASE EXTCODECOPY SELFDESTRUCT PUSH17 0x9DE0623E1E7BBB7FAF842D9D7E783A9B0A BASEFEE 0xA5 DUP7 PUSH4 0x8CB51890 0xBD CODESIZE 0xD3 PUSH5 0x736F6C6343 STOP ADDMOD SLT STOP CALLER "
		},
		"gasEstimates": {
			"creation": {
				"codeDepositCost": "3055800",
				"executionCost": "3365",
				"totalCost": "3059165"
			},
			"external": {
				"farmInfo(uint256,address,address,address,address)": "infinite",
				"getApiInfo(address,uint256,uint256)": "infinite",
				"getFarmInfo(address)": "infinite",
				"getNftPoolInfo(address)": "infinite",
				"getPoolInfo(address)": "infinite",
				"getSaleInfos(address)": "infinite",
				"getSaleInfos2(address)": "infinite"
			}
		},
		"methodIdentifiers": {
			"farmInfo(uint256,address,address,address,address)": "c7c7f923",
			"getApiInfo(address,uint256,uint256)": "bb4b8ce2",
			"getFarmInfo(address)": "1c9a4fd1",
			"getNftPoolInfo(address)": "74c1017b",
			"getPoolInfo(address)": "06bfa938",
			"getSaleInfos(address)": "e767f7ee",
			"getSaleInfos2(address)": "15d7518e"
		}
	},
	"abi": [
		{
			"inputs": [
				{
					"internalType": "uint256",
					"name": "pid",
					"type": "uint256"
				},
				{
					"internalType": "address",
					"name": "_MC",
					"type": "address"
				},
				{
					"internalType": "address",
					"name": "lpToken",
					"type": "address"
				},
				{
					"internalType": "address",
					"name": "qToken",
					"type": "address"
				},
				{
					"internalType": "address",
					"name": "token",
					"type": "address"
				}
			],
			"name": "farmInfo",
			"outputs": [
				{
					"internalType": "uint256",
					"name": "APOINT",
					"type": "uint256"
				},
				{
					"internalType": "uint256",
					"name": "TAPOINT",
					"type": "uint256"
				},
				{
					"internalType": "uint256",
					"name": "tBalLP",
					"type": "uint256"
				},
				{
					"internalType": "uint256",
					"name": "qtBalLP",
					"type": "uint256"
				},
				{
					"internalType": "uint256",
					"name": "lpBalMC",
					"type": "uint256"
				},
				{
					"internalType": "uint256",
					"name": "lpTotalSupply",
					"type": "uint256"
				}
			],
			"stateMutability": "view",
			"type": "function"
		},
		{
			"inputs": [
				{
					"internalType": "address",
					"name": "factory",
					"type": "address"
				},
				{
					"internalType": "uint256",
					"name": "start",
					"type": "uint256"
				},
				{
					"internalType": "uint256",
					"name": "end",
					"type": "uint256"
				}
			],
			"name": "getApiInfo",
			"outputs": [
				{
					"internalType": "address[]",
					"name": "pair",
					"type": "address[]"
				},
				{
					"internalType": "address[]",
					"name": "tokenA",
					"type": "address[]"
				},
				{
					"internalType": "string[]",
					"name": "aName",
					"type": "string[]"
				},
				{
					"internalType": "string[]",
					"name": "aSym",
					"type": "string[]"
				},
				{
					"internalType": "uint256[]",
					"name": "aDec",
					"type": "uint256[]"
				},
				{
					"internalType": "address[]",
					"name": "tokenB",
					"type": "address[]"
				},
				{
					"internalType": "string[]",
					"name": "bName",
					"type": "string[]"
				},
				{
					"internalType": "string[]",
					"name": "bSym",
					"type": "string[]"
				},
				{
					"internalType": "uint256[]",
					"name": "bDec",
					"type": "uint256[]"
				}
			],
			"stateMutability": "view",
			"type": "function"
		},
		{
			"inputs": [
				{
					"internalType": "address",
					"name": "MC",
					"type": "address"
				}
			],
			"name": "getFarmInfo",
			"outputs": [
				{
					"internalType": "address[]",
					"name": "pair",
					"type": "address[]"
				},
				{
					"internalType": "address[]",
					"name": "tokenA",
					"type": "address[]"
				},
				{
					"internalType": "string[]",
					"name": "aName",
					"type": "string[]"
				},
				{
					"internalType": "string[]",
					"name": "aSym",
					"type": "string[]"
				},
				{
					"internalType": "uint256[]",
					"name": "aDec",
					"type": "uint256[]"
				},
				{
					"internalType": "address[]",
					"name": "tokenB",
					"type": "address[]"
				},
				{
					"internalType": "string[]",
					"name": "bName",
					"type": "string[]"
				},
				{
					"internalType": "string[]",
					"name": "bSym",
					"type": "string[]"
				},
				{
					"internalType": "uint256[]",
					"name": "bDec",
					"type": "uint256[]"
				}
			],
			"stateMutability": "view",
			"type": "function"
		},
		{
			"inputs": [
				{
					"internalType": "address",
					"name": "poolFactory",
					"type": "address"
				}
			],
			"name": "getNftPoolInfo",
			"outputs": [
				{
					"internalType": "address[]",
					"name": "contractAddress",
					"type": "address[]"
				},
				{
					"internalType": "address[]",
					"name": "stakeAddress",
					"type": "address[]"
				},
				{
					"internalType": "string[]",
					"name": "stakeName",
					"type": "string[]"
				},
				{
					"internalType": "string[]",
					"name": "stakeSym",
					"type": "string[]"
				},
				{
					"components": [
						{
							"internalType": "address[]",
							"name": "earnAddress",
							"type": "address[]"
						}
					],
					"internalType": "struct FarmCollection.EarningTokens[]",
					"name": "earnAddresses",
					"type": "tuple[]"
				}
			],
			"stateMutability": "view",
			"type": "function"
		},
		{
			"inputs": [
				{
					"internalType": "address",
					"name": "poolFactory",
					"type": "address"
				}
			],
			"name": "getPoolInfo",
			"outputs": [
				{
					"internalType": "address[]",
					"name": "contractAddress",
					"type": "address[]"
				},
				{
					"internalType": "address[]",
					"name": "stakeAddress",
					"type": "address[]"
				},
				{
					"internalType": "string[]",
					"name": "stakeName",
					"type": "string[]"
				},
				{
					"internalType": "string[]",
					"name": "stakeSym",
					"type": "string[]"
				},
				{
					"internalType": "uint256[]",
					"name": "stakeDec",
					"type": "uint256[]"
				},
				{
					"internalType": "address[]",
					"name": "earnAddress",
					"type": "address[]"
				},
				{
					"internalType": "string[]",
					"name": "earnName",
					"type": "string[]"
				},
				{
					"internalType": "string[]",
					"name": "earnSym",
					"type": "string[]"
				},
				{
					"internalType": "uint256[]",
					"name": "earnDec",
					"type": "uint256[]"
				}
			],
			"stateMutability": "view",
			"type": "function"
		},
		{
			"inputs": [
				{
					"internalType": "address",
					"name": "factory",
					"type": "address"
				}
			],
			"name": "getSaleInfos",
			"outputs": [
				{
					"internalType": "address[]",
					"name": "sale",
					"type": "address[]"
				},
				{
					"internalType": "address[]",
					"name": "token",
					"type": "address[]"
				},
				{
					"internalType": "string[]",
					"name": "tName",
					"type": "string[]"
				},
				{
					"internalType": "string[]",
					"name": "tSym",
					"type": "string[]"
				},
				{
					"internalType": "uint256[]",
					"name": "tDec",
					"type": "uint256[]"
				},
				{
					"internalType": "bool[]",
					"name": "finalized",
					"type": "bool[]"
				}
			],
			"stateMutability": "view",
			"type": "function"
		},
		{
			"inputs": [
				{
					"internalType": "address",
					"name": "factory",
					"type": "address"
				}
			],
			"name": "getSaleInfos2",
			"outputs": [
				{
					"internalType": "address[]",
					"name": "sale",
					"type": "address[]"
				},
				{
					"internalType": "address[]",
					"name": "token",
					"type": "address[]"
				},
				{
					"internalType": "string[]",
					"name": "tName",
					"type": "string[]"
				},
				{
					"internalType": "string[]",
					"name": "tSym",
					"type": "string[]"
				},
				{
					"internalType": "uint256[]",
					"name": "tDec",
					"type": "uint256[]"
				},
				{
					"internalType": "bool[]",
					"name": "finalized",
					"type": "bool[]"
				},
				{
					"internalType": "string[]",
					"name": "logoURI",
					"type": "string[]"
				},
				{
					"internalType": "string[]",
					"name": "websiteURI",
					"type": "string[]"
				},
				{
					"internalType": "string[]",
					"name": "bannerURI",
					"type": "string[]"
				},
				{
					"internalType": "uint256[]",
					"name": "userCount",
					"type": "uint256[]"
				},
				{
					"internalType": "uint256[]",
					"name": "claimCount",
					"type": "uint256[]"
				}
			],
			"stateMutability": "view",
			"type": "function"
		}
	]
}