{
	"data": {
		"bytecode": {
			"linkReferences": {},
			"object": "6080604052600c805460ff191690556000600d553480156200002057600080fd5b5060405162003e7b38038062003e7b833981016040819052620000439162000190565b600160005562000053336200013e565b6000886001600160a01b03166318160ddd6040518163ffffffff1660e01b815260040160206040518083038186803b1580156200008f57600080fd5b505afa158015620000a4573d6000803e3d6000fd5b505050506040513d601f19601f82011682018060405250810190620000ca919062000222565b1015620000d657600080fd5b600380546001600160a01b03998a166001600160a01b03199182161790915560048054988a169882169890981790975560059590955560069390935560089190915560028054918616918516919091179055601655600e805491909316911617905562000255565b600180546001600160a01b038381166001600160a01b0319831681179093556040519116919082907f8be0079c531659141344cd1fd0a4f28419497f9722a3daafe3b4186f6b6457e090600090a35050565b600080600080600080600080610100898b031215620001ae57600080fd5b8851620001bb816200023c565b60208a0151909850620001ce816200023c565b8097505060408901519550606089015194506080890151935060a0890151620001f7816200023c565b60c08a015160e08b0151919450925062000211816200023c565b809150509295985092959890939650565b6000602082840312156200023557600080fd5b5051919050565b6001600160a01b03811681146200025257600080fd5b50565b613c1680620002656000396000f3fe6080604052600436106102975760003560e01c80638da4d3c91161015a578063ba99110a116100c1578063e799ffb11161007a578063e799ffb114610834578063f0b5325614610849578063f109c9ed1461085f578063f2fde38b14610875578063f887ea4014610895578063f9cd5c12146108b557600080fd5b8063ba99110a14610786578063bad58c4e1461079b578063bd8d8211146107b1578063c78f19f9146107d1578063ca463ca4146107e7578063e0eae6e71461081457600080fd5b8063a5d927d411610113578063a5d927d4146106c9578063a8aa1b31146106de578063b3f05b97146106fe578063b42392f11461071f578063b4da540214610746578063b78136071461076657600080fd5b80638da4d3c9146106165780638da5cb5b1461062c5780638ea5220f1461064a57806392604bc41461066a5780639513997f1461067f578063a4e2d6341461069f57600080fd5b80634af3c9b7116101fe57806366087e23116101b757806366087e23146104f85780636bb38b281461051a5780636e6ff8a91461052f578063715018a6146105455780637ba097591461055a5780637e3f26f21461060357600080fd5b80634af3c9b71461041c5780634e4c36f81461044a578063502f511b1461046a5780635040c6e71461048a5780635e31bfe7146104a057806361d027b3146104c057600080fd5b806335b20af51161025057806335b20af51461034457806337f859b8146103575780633f138d4b1461037757806345b8bf911461039757806346ab91bf146103b757806348cd4cb11461040657600080fd5b80630242e9ea146102a357806307973ccf146102ba578063083c6323146102e35780632374876c146102f957806324c26b58146103195780632ce2fc681461032f57600080fd5b3661029e57005b600080fd5b3480156102af57600080fd5b506102b86108e2565b005b3480156102c657600080fd5b506102d060135481565b6040519081526020015b60405180910390f35b3480156102ef57600080fd5b506102d060065481565b34801561030557600080fd5b506102b86103143660046136c2565b610bc0565b34801561032557600080fd5b506102d0600d5481565b34801561033b57600080fd5b506102b8610ebf565b6102b86103523660046136c2565b610f1f565b34801561036357600080fd5b506102d06103723660046135a7565b611312565b34801561038357600080fd5b506102b86103923660046134d6565b61137f565b3480156103a357600080fd5b506102b86103b2366004613629565b611404565b3480156103c357600080fd5b506103d76103d23660046135a7565b611594565b6040805196875260208701959095529385019290925215156060840152608083015260a082015260c0016102da565b34801561041257600080fd5b506102d060055481565b34801561042857600080fd5b5061043c61043736600461344e565b611654565b6040516102da9291906137d0565b34801561045657600080fd5b506102b86104653660046135a7565b6117ae565b34801561047657600080fd5b506102b861048536600461351f565b6117fe565b34801561049657600080fd5b506102d060075481565b3480156104ac57600080fd5b506102b86104bb3660046135a7565b6118a1565b3480156104cc57600080fd5b506002546104e0906001600160a01b031681565b6040516001600160a01b0390911681526020016102da565b34801561050457600080fd5b5061050d611933565b6040516102da9190613829565b34801561052657600080fd5b5061050d6119c1565b34801561053b57600080fd5b506102d0600b5481565b34801561055157600080fd5b506102b86119ce565b34801561056657600080fd5b50600554600654600854600754601654600354600454600954600a54600b54600c54600d54604080519c8d5260208d019b909b52998b019890985260608a0196909652608089019490945260ff600160a01b9093048316151560a08901526001600160a01b0390911660c088015260e0870152610100860191909152610120850191909152161515610140830152610160820152610180016102da565b6102b86106113660046136c2565b611a04565b34801561062257600080fd5b506102d060145481565b34801561063857600080fd5b506001546001600160a01b03166104e0565b34801561065657600080fd5b506004546104e0906001600160a01b031681565b34801561067657600080fd5b5061050d611ce8565b34801561068b57600080fd5b506102b861069a3660046135d9565b611cf5565b3480156106ab57600080fd5b50600c546106b99060ff1681565b60405190151581526020016102da565b3480156106d557600080fd5b506102b8611e70565b3480156106ea57600080fd5b50600f546104e0906001600160a01b031681565b34801561070a57600080fd5b506003546106b990600160a01b900460ff1681565b34801561072b57600080fd5b50610734600281565b60405160ff90911681526020016102da565b34801561075257600080fd5b506102b861076136600461367f565b612114565b34801561077257600080fd5b506003546104e0906001600160a01b031681565b34801561079257600080fd5b506102b86122b3565b3480156107a757600080fd5b506102d060165481565b3480156107bd57600080fd5b506102b86107cc366004613414565b6123ac565b3480156107dd57600080fd5b506102d0600a5481565b3480156107f357600080fd5b5061080761080236600461344e565b6123f8565b6040516102da9190613753565b34801561082057600080fd5b506102b861082f3660046136c2565b612546565b34801561084057600080fd5b506102b86127d6565b34801561085557600080fd5b506102d060085481565b34801561086b57600080fd5b506102d060095481565b34801561088157600080fd5b506102b8610890366004613414565b61280b565b3480156108a157600080fd5b50600e546104e0906001600160a01b031681565b3480156108c157600080fd5b506108d56108d036600461344e565b6128a3565b6040516102da91906137bd565b600b546108f29062015180613a7d565b600d546108ff9190613958565b42116109455760405162461bcd60e51b815260206004820152601060248201526f139bdd08155b9b1bd8dad9590816595d60821b60448201526064015b60405180910390fd5b6004546001600160a01b031633146109935760405162461bcd60e51b81526020600482015260116024820152702737ba10283937b532b1ba1027bbb732b960791b604482015260640161093c565b600e546040805163c45a015560e01b815290516000926001600160a01b03169163c45a0155916004808301926020929190829003018186803b1580156109d857600080fd5b505afa1580156109ec573d6000803e3d6000fd5b505050506040513d601f19601f82011682018060405250810190610a109190613431565b600354600e54604080516315ab88c960e31b815290516001600160a01b039485169463e6a4390594811693169163ad5c4648916004808301926020929190829003018186803b158015610a6257600080fd5b505afa158015610a76573d6000803e3d6000fd5b505050506040513d601f19601f82011682018060405250810190610a9a9190613431565b6040516001600160e01b031960e085901b1681526001600160a01b0392831660048201529116602482015260440160206040518083038186803b158015610ae057600080fd5b505afa158015610af4573d6000803e3d6000fd5b505050506040513d601f19601f82011682018060405250810190610b189190613431565b6040516370a0823160e01b81523060048201529091506000906001600160a01b038316906370a082319060240160206040518083038186803b158015610b5d57600080fd5b505afa158015610b71573d6000803e3d6000fd5b505050506040513d601f19601f82011682018060405250810190610b9591906135c0565b600454909150610bb2906001600160a01b0384811691168361295f565b5050600c805460ff19169055565b60026000541415610be35760405162461bcd60e51b815260040161093c906138ea565b6002600055333b15610c075760405162461bcd60e51b815260040161093c906138bc565b602154601b54600091610c1991613958565b9050600854811015610c6d5760405162461bcd60e51b815260206004820152601d60248201527f536f667420436170204e6f74204d65742c20757365205265636c61696d000000604482015260640161093c565b6006544211610cb55760405162461bcd60e51b8152602060048201526014602482015273151bdbc819585c9b1e481d1bc81a185c9d995cdd60621b604482015260640161093c565b600260ff831610610cd85760405162461bcd60e51b815260040161093c9061385c565b33600090815260236020908152604080832060ff86168452909152902054610d385760405162461bcd60e51b8152602060048201526013602482015272446964206e6f7420706172746963697061746560681b604482015260640161093c565b33600090815260236020908152604080832060ff80871685529252909120600101541615610d985760405162461bcd60e51b815260206004820152600d60248201526c12185cc81a185c9d995cdd1959609a1b604482015260640161093c565b33600090815260236020908152604080832060ff8616845290915281206001908101805460ff191690911790556014805491610dd383613b31565b91905055506000806000610de733866129b6565b919450925090508015610e4657610e248160178760ff1660028110610e0e57610e0e613b82565b6006020160050154612bc190919063ffffffff16565b60178660ff1660028110610e3a57610e3a613b82565b60060201600501819055505b8215610e6357600354610e63906001600160a01b0316338561295f565b8115610e7357610e733383612bcd565b604080518481526020810184905260ff87169133917f51524c2e5edfedf8b01b29719c661e4fbe27e71734e7cd773dabb7cb712fb3b3910160405180910390a350506001600055505050565b6001546001600160a01b03163314610ee95760405162461bcd60e51b815260040161093c90613887565b6006544210610f0a5760405162461bcd60e51b815260040161093c90613921565b601d54601754610f1a9190613958565b600755565b60026000541415610f425760405162461bcd60e51b815260040161093c906138ea565b6002600055333b15610f665760405162461bcd60e51b815260040161093c906138bc565b34600260ff831610610f8a5760405162461bcd60e51b815260040161093c9061385c565b600060178360ff1660028110610fa257610fa2613b82565b6006020160010154118015610fd15750600060178360ff1660028110610fca57610fca613b82565b6006020154115b61100c5760405162461bcd60e51b815260206004820152600c60248201526b141bdbdb081b9bdd081cd95d60a21b604482015260640161093c565b60055442116110495760405162461bcd60e51b8152602060048201526009602482015268546f6f206561726c7960b81b604482015260640161093c565b60065442106110855760405162461bcd60e51b8152602060048201526008602482015267546f6f206c61746560c01b604482015260640161093c565b600081116110ca5760405162461bcd60e51b81526020600482015260126024820152710416d6f756e74206d757374206265203e20360741b604482015260640161093c565b33600090815260236020908152604080832060ff8616845290915290205461110257601380549060006110fc83613b31565b91905055505b33600090815260236020908152604080832060ff8616845290915290205461112a9082612bc1565b33600090815260236020908152604080832060ff87168085529252822092909255906017906002811061115f5761115f613b82565b600602016002015411156111f75760178260ff166002811061118357611183613b82565b600602016002015433600090815260236020908152604080832060ff8716845290915290205411156111f75760405162461bcd60e51b815260206004820152601b60248201527f4e657720616d6f756e742061626f76652075736572206c696d69740000000000604482015260640161093c565b6112278160178460ff166002811061121157611211613b82565b6006020160040154612bc190919063ffffffff16565b60178360ff166002811061123d5761123d613b82565b600602016004018190555060178260ff166002811061125e5761125e613b82565b6006020154601760ff84166002811061127957611279613b82565b600602016004015411156112cf5760405162461bcd60e51b815260206004820152601960248201527f546869732077696c6c2045786365656420506f6f6c2043617000000000000000604482015260640161093c565b60405181815260ff83169033907ff763e680fce25a97ffd55d8b705370c98b47b2285f7b3b2900c43606fd4180459060200160405180910390a350506001600055565b60006017826002811061132757611327613b82565b600602016003015460ff1661133e57506000919050565b6113796017836002811061135457611354613b82565b60060201600401546017846002811061136f5761136f613b82565b6006020154612c96565b92915050565b6001546001600160a01b031633146113a95760405162461bcd60e51b815260040161093c90613887565b6113bd6001600160a01b038316338361295f565b604080516001600160a01b0384168152602081018390527f74545154aac348a3eac92596bd1971957ca94795f4e954ec5f613b55fab7812991015b60405180910390a15050565b6001546001600160a01b0316331461142e5760405162461bcd60e51b815260040161093c90613887565b60055442106114715760405162461bcd60e51b815260206004820152600f60248201526e125193c81a185cc81cdd185c9d1959608a1b604482015260640161093c565b600260ff8216106114ba5760405162461bcd60e51b8152602060048201526013602482015272141bdbdb08191bd95cc81b9bdd08195e1a5cdd606a1b604482015260640161093c565b8460178260ff16600281106114d1576114d1613b82565b60060201600101819055508360178260ff16600281106114f3576114f3613b82565b600602015582601760ff83166002811061150f5761150f613b82565b60060201600201819055508160178260ff166002811061153157611531613b82565b60060201600301805460ff1916911515919091179055604080518681526020810186905260ff8316918101919091527fddaf243a142670be60c19ff7116b5d8b124717b29bb4cc03cead42161614105b9060600160405180910390a15050505050565b600080600080600080601787600281106115b0576115b0613b82565b6006020154601788600281106115c8576115c8613b82565b6006020160010154601789600281106115e3576115e3613b82565b600602016002015460178a600281106115fe576115fe613b82565b600602016003015460ff1660178b6002811061161c5761161c613b82565b600602016004015460178c6002811061163757611637613b82565b600602016005015495509550955095509550955091939550919395565b60608060008367ffffffffffffffff81111561167257611672613b98565b60405190808252806020026020018201604052801561169b578160200160208202803683370190505b50905060008467ffffffffffffffff8111156116b9576116b9613b98565b6040519080825280602002602001820160405280156116e2578160200160208202803683370190505b50905060005b600260ff821610156117a1576001600160a01b038816600090815260236020908152604080832060ff8516808552925290912054845190918591811061173057611730613b82565b6020908102919091018101919091526001600160a01b038916600090815260238252604080822060ff808616808552919094529120600101548451921691849190811061177f5761177f613b82565b911515602092830291909101909101528061179981613b4c565b9150506116e8565b5090969095509350505050565b6001546001600160a01b031633146117d85760405162461bcd60e51b815260040161093c90613887565b60065442106117f95760405162461bcd60e51b815260040161093c90613921565b600855565b6004546001600160a01b031633148061182157506001546001600160a01b031633145b6118605760405162461bcd60e51b815260206004820152601060248201526f4d75737420686176652061636365737360801b604482015260640161093c565b82516118739060109060208601906132d0565b5081516118879060119060208501906132d0565b50805161189b9060129060208401906132d0565b50505050565b6001546001600160a01b031633146118cb5760405162461bcd60e51b815260040161093c90613887565b60065442106118ec5760405162461bcd60e51b815260040161093c90613921565b601681905560148111156119305760405162461bcd60e51b815260206004820152600b60248201526a08ccaca40e8de4090d2ced60ab1b604482015260640161093c565b50565b6012805461194090613af6565b80601f016020809104026020016040519081016040528092919081815260200182805461196c90613af6565b80156119b95780601f1061198e576101008083540402835291602001916119b9565b820191906000526020600020905b81548152906001019060200180831161199c57829003601f168201915b505050505081565b6010805461194090613af6565b6001546001600160a01b031633146119f85760405162461bcd60e51b815260040161093c90613887565b611a026000612d09565b565b60026000541415611a275760405162461bcd60e51b815260040161093c906138ea565b6002600055333b15611a4b5760405162461bcd60e51b815260040161093c906138bc565b33600090815260236020908152604080832060ff851680855292529091205490600211611a8a5760405162461bcd60e51b815260040161093c9061385c565b600060178360ff1660028110611aa257611aa2613b82565b6006020160010154118015611ad15750600060178360ff1660028110611aca57611aca613b82565b6006020154115b611b0c5760405162461bcd60e51b815260206004820152600c60248201526b141bdbdb081b9bdd081cd95d60a21b604482015260640161093c565b6005544211611b495760405162461bcd60e51b8152602060048201526009602482015268546f6f206561726c7960b81b604482015260640161093c565b6006544210611b855760405162461bcd60e51b8152602060048201526008602482015267546f6f206c61746560c01b604482015260640161093c565b60008111611bca5760405162461bcd60e51b81526020600482015260126024820152710416d6f756e74206d757374206265203e20360741b604482015260640161093c565b3031811115611c295760405162461bcd60e51b815260206004820152602560248201527f436f6e747261637420646f6573206e6f74206861766520656e6f7567682042616044820152646c616e636560d81b606482015260840161093c565b33600090815260236020908152604080832060ff8616845290915281208190556013805491611c5783613adf565b91905055508060178360ff1660028110611c7357611c73613b82565b600602016004016000828254611c899190613a9c565b90915550506016546000906103e890611ca29084613a7d565b611cac9190613970565b600254909150611cc5906001600160a01b031682612bcd565b6000611cd18284613a9c565b9050611cdd3382612bcd565b505060016000555050565b6011805461194090613af6565b6001546001600160a01b03163314611d1f5760405162461bcd60e51b815260040161093c90613887565b6005544210611d625760405162461bcd60e51b815260206004820152600f60248201526e125193c81a185cc81cdd185c9d1959608a1b604482015260640161093c565b808210611dc85760405162461bcd60e51b815260206004820152602e60248201527f4e6577207374617274426c6f636b206d757374206265206c6f7765722074686160448201526d6e206e657720656e64426c6f636b60901b606482015260840161093c565b814210611e305760405162461bcd60e51b815260206004820152603060248201527f4e6577207374617274426c6f636b206d7573742062652068696768657220746860448201526f616e2063757272656e7420626c6f636b60801b606482015260840161093c565b6005829055600681905560408051838152602081018390527f7cd0ab87d19036f3dfadadb232c78aa4879dda3f0c994a9d637532410ee2ce0691016113f8565b6004546001600160a01b0316331480611e9357506001546001600160a01b031633145b611edf5760405162461bcd60e51b815260206004820181905260248201527f4d757374206265204465762057616c6c6574206f7220436f6e74726f6c6c6572604482015260640161093c565b6006544211611f1b5760405162461bcd60e51b81526020600482015260086024820152673737ba1027bb32b960c11b604482015260640161093c565b600354600160a01b900460ff1615611f695760405162461bcd60e51b8152602060048201526011602482015270105b1c9958591e48199a5b985b1a5e9959607a1b604482015260640161093c565b601b546003546040516370a0823160e01b81523060048201526000916001600160a01b0316906370a082319060240160206040518083038186803b158015611fb057600080fd5b505afa158015611fc4573d6000803e3d6000fd5b505050506040513d601f19601f82011682018060405250810190611fe891906135c0565b6008549091503031908311156120df57601754601b546018546000929161200e91613a7d565b6120189190613970565b905060006103e86016548461202d9190613a7d565b6120379190613970565b600254909150612050906001600160a01b031682612bcd565b6009546000901561206657612063612d5b565b90505b6018546000908410612079576000612087565b601854612087908590613a9c565b90506120938282613958565b905080156120b8576004546003546120b8916001600160a01b0391821691168361295f565b3031156120d6576004546120d6906001600160a01b03163031612bcd565b505050506120fc565b6004546003546120fc916001600160a01b0391821691168461295f565b50506003805460ff60a01b1916600160a01b17905550565b6001546001600160a01b0316331461213e5760405162461bcd60e51b815260040161093c90613887565b60085485116121a75760405162461bcd60e51b815260206004820152602f60248201527f636f6d62696e6564207261697365206c696d697473206d757374206265206d6f60448201526e07265207468616e20736f667463617608c1b606482015260840161093c565b8215806121b5575060338310155b6122015760405162461bcd60e51b815260206004820181905260248201527f4966206f76657220302c206d757374206265206d6f7265207468616e20353125604482015260640161093c565b6009839055600a829055600b81905561221e868686600080611404565b60078590556003546040516370a0823160e01b815230600482015287916001600160a01b0316906370a082319060240160206040518083038186803b15801561226657600080fd5b505afa15801561227a573d6000803e3d6000fd5b505050506040513d601f19601f8201168201806040525081019061229e91906135c0565b6122a89190613a9c565b601555505050505050565b6004546001600160a01b03163314806122d657506001546001600160a01b031633145b6123225760405162461bcd60e51b815260206004820181905260248201527f4d757374206265204465762057616c6c6574206f7220436f6e74726f6c6c6572604482015260640161093c565b60055442116123655760405162461bcd60e51b815260206004820152600f60248201526e1b9bdd081cdd185c9d1959081e595d608a1b604482015260640161093c565b60065442106123a65760405162461bcd60e51b815260206004820152600d60248201526c185b1c9958591e48195b991959609a1b604482015260640161093c565b42600655565b6001546001600160a01b031633146123d65760405162461bcd60e51b815260040161093c90613887565b600480546001600160a01b0319166001600160a01b0392909216919091179055565b606060008267ffffffffffffffff81111561241557612415613b98565b60405190808252806020026020018201604052801561244e57816020015b61243b613354565b8152602001906001900390816124335790505b50905060005b60ff811684111561253b57600080600080601789898760ff1681811061247c5761247c613b82565b905060200201602081019061249191906136c2565b60ff16600281106124a4576124a4613b82565b600602015411156124ea576124e28989898760ff168181106124c8576124c8613b82565b90506020020160208101906124dd91906136c2565b6129b6565b919450925090505b604051806060016040528084815260200183815260200182815250858560ff168151811061251a5761251a613b82565b6020026020010181905250505050808061253390613b4c565b915050612454565b5090505b9392505050565b600260005414156125695760405162461bcd60e51b815260040161093c906138ea565b6002600055333b1561258d5760405162461bcd60e51b815260040161093c906138bc565b602154601b5460009161259f91613958565b905060085481106125f25760405162461bcd60e51b815260206004820152601d60248201527f536f66742043617020576173206d65742c207573652048617276657374000000604482015260640161093c565b600654421161263a5760405162461bcd60e51b8152602060048201526014602482015273151bdbc819585c9b1e481d1bc81a185c9d995cdd60621b604482015260640161093c565b600260ff83161061265d5760405162461bcd60e51b815260040161093c9061385c565b33600090815260236020908152604080832060ff861684529091529020546126bd5760405162461bcd60e51b8152602060048201526013602482015272446964206e6f7420706172746963697061746560681b604482015260640161093c565b33600090815260236020908152604080832060ff8087168552925290912060010154161561271d5760405162461bcd60e51b815260206004820152600d60248201526c12185cc81a185c9d995cdd1959609a1b604482015260640161093c565b33600090815260236020908152604080832060ff8616845290915281206001908101805460ff19169091179055601480549161275883613b31565b909155505033600090815260236020908152604080832060ff86168452909152902054801561278b5761278b3382612bcd565b60408051600081526020810183905260ff85169133917f51524c2e5edfedf8b01b29719c661e4fbe27e71734e7cd773dabb7cb712fb3b3910160405180910390a35050600160005550565b6001546001600160a01b031633146128005760405162461bcd60e51b815260040161093c90613887565b611a02333031612bcd565b6001546001600160a01b031633146128355760405162461bcd60e51b815260040161093c90613887565b6001600160a01b03811661289a5760405162461bcd60e51b815260206004820152602660248201527f4f776e61626c653a206e6577206f776e657220697320746865207a65726f206160448201526564647265737360d01b606482015260840161093c565b61193081612d09565b606060008267ffffffffffffffff8111156128c0576128c0613b98565b6040519080825280602002602001820160405280156128e9578160200160208202803683370190505b50905060005b60ff811684111561253b5761292d8686868460ff1681811061291357612913613b82565b905060200201602081019061292891906136c2565b612fbc565b828260ff168151811061294257612942613b82565b60209081029190910101528061295781613b4c565b9150506128ef565b604080516001600160a01b038416602482015260448082018490528251808303909101815260649091019091526020810180516001600160e01b031663a9059cbb60e01b1790526129b1908490613061565b505050565b60008060008060008060178760ff16600281106129d5576129d5613b82565b6006020154601760ff8916600281106129f0576129f0613b82565b60060201600401541115612b3e576000612a0a8989612fbc565b9050612a4b64e8d4a51000612a458360178c60ff1660028110612a2f57612a2f613b82565b600602016001015461313390919063ffffffff16565b9061313f565b93506000612a7d64e8d4a51000612a458460178d60ff1660028110612a7257612a72613b82565b600602015490613133565b6001600160a01b038b16600090815260236020908152604080832060ff8e168452909152902054909150612ab1908261314b565b935060178960ff1660028110612ac957612ac9613b82565b600602016003015460ff1615612b37576000612b1260178b60ff1660028110612af457612af4613b82565b600602016004015460178c60ff166002811061136f5761136f613b82565b9050612b2764e8d4a51000612a458784613133565b9350612b33858561314b565b9450505b5050612bb3565b506000905080612bb0601760ff891660028110612b5d57612b5d613b82565b6006020154612a45601760ff8b1660028110612b7b57612b7b613b82565b60060201600101546001600160a01b038c16600090815260236020908152604080832060ff8f16845290915290205490613133565b92505b919450925090509250925092565b600061253f8284613958565b604080516000808252602082019092526001600160a01b038416908390604051612bf79190613737565b60006040518083038185875af1925050503d8060008114612c34576040519150601f19603f3d011682016040523d82523d6000602084013e612c39565b606091505b50509050806129b15760405162461bcd60e51b815260206004820152602360248201527f5472616e7366657248656c7065723a204554485f5452414e534645525f46414960448201526213115160ea1b606482015260840161093c565b600080612ca3848461313f565b90506101f48110612cbb576377359400915050611379565b60fa8110612cd057639502f900915050611379565b60648110612ce55763b2d05e00915050611379565b60328110612cfb5764012a05f200915050611379565b6402540be400915050611379565b600180546001600160a01b038381166001600160a01b0319831681179093556040519116919082907f8be0079c531659141344cd1fd0a4f28419497f9722a3daafe3b4186f6b6457e090600090a35050565b6000806064600954306001600160a01b031631612d789190613a7d565b612d829190613970565b90506000600360009054906101000a90046001600160a01b03166001600160a01b031663313ce5676040518163ffffffff1660e01b815260040160206040518083038186803b158015612dd457600080fd5b505afa158015612de8573d6000803e3d6000fd5b505050506040513d601f19601f82011682018060405250810190612e0c91906136df565b60ff1690506000612e1e82600a6139d5565b600a54612e2b9085613a7d565b612e359190613970565b600354600e5460405163095ea7b360e01b81526001600160a01b03918216600482015260248101849052929350169063095ea7b390604401602060405180830381600087803b158015612e8757600080fd5b505af1158015612e9b573d6000803e3d6000fd5b505050506040513d601f19601f82011682018060405250810190612ebf9190613502565b50600080600b5411612edc576004546001600160a01b0316612ede565b305b600e5460035460405163f305d71960e01b81526001600160a01b03918216600482015260248101869052600060448201819052606482015281841660848201524260a4820152929350169063f305d71990869060c4016060604051808303818588803b158015612f4d57600080fd5b505af1158015612f61573d6000803e3d6000fd5b50505050506040513d601f19601f82011682018060405250810190612f8691906135fb565b505042600d5550600b54600c805460ff1916911515919091179055601554600090612fb2908490613a9c565b9695505050505050565b60008060178360ff1660028110612fd557612fd5613b82565b6006020160040154111561305957613052613019620f424060178560ff166002811061300357613003613b82565b600602016004015461313390919063ffffffff16565b6001600160a01b038516600090815260236020908152604080832060ff88168452909152902054612a4590670de0b6b3a7640000613133565b9050611379565b506000611379565b60006130b6826040518060400160405280602081526020017f5361666542455032303a206c6f772d6c6576656c2063616c6c206661696c6564815250856001600160a01b03166131579092919063ffffffff16565b8051909150156129b157808060200190518101906130d49190613502565b6129b15760405162461bcd60e51b815260206004820152602a60248201527f5361666542455032303a204245503230206f7065726174696f6e20646964206e6044820152691bdd081cdd58d8d9595960b21b606482015260840161093c565b600061253f8284613a7d565b600061253f8284613970565b600061253f8284613a9c565b6060613166848460008561316e565b949350505050565b606030318311156131d05760405162461bcd60e51b815260206004820152602660248201527f416464726573733a20696e73756666696369656e742062616c616e636520666f6044820152651c8818d85b1b60d21b606482015260840161093c565b843b61321e5760405162461bcd60e51b815260206004820152601d60248201527f416464726573733a2063616c6c20746f206e6f6e2d636f6e7472616374000000604482015260640161093c565b600080866001600160a01b0316858760405161323a9190613737565b60006040518083038185875af1925050503d8060008114613277576040519150601f19603f3d011682016040523d82523d6000602084013e61327c565b606091505b509150915061328c828286613297565b979650505050505050565b606083156132a657508161253f565b8251156132b65782518084602001fd5b8160405162461bcd60e51b815260040161093c9190613829565b8280546132dc90613af6565b90600052602060002090601f0160209004810192826132fe5760008555613344565b82601f1061331757805160ff1916838001178555613344565b82800160010185558215613344579182015b82811115613344578251825591602001919060010190613329565b50613350929150613372565b5090565b60405180606001604052806003906020820280368337509192915050565b5b808211156133505760008155600101613373565b600082601f83011261339857600080fd5b813567ffffffffffffffff808211156133b3576133b3613b98565b604051601f8301601f19908116603f011681019082821181831017156133db576133db613b98565b816040528381528660208588010111156133f457600080fd5b836020870160208301376000602085830101528094505050505092915050565b60006020828403121561342657600080fd5b813561253f81613bae565b60006020828403121561344357600080fd5b815161253f81613bae565b60008060006040848603121561346357600080fd5b833561346e81613bae565b9250602084013567ffffffffffffffff8082111561348b57600080fd5b818601915086601f83011261349f57600080fd5b8135818111156134ae57600080fd5b8760208260051b85010111156134c357600080fd5b6020830194508093505050509250925092565b600080604083850312156134e957600080fd5b82356134f481613bae565b946020939093013593505050565b60006020828403121561351457600080fd5b815161253f81613bc3565b60008060006060848603121561353457600080fd5b833567ffffffffffffffff8082111561354c57600080fd5b61355887838801613387565b9450602086013591508082111561356e57600080fd5b61357a87838801613387565b9350604086013591508082111561359057600080fd5b5061359d86828701613387565b9150509250925092565b6000602082840312156135b957600080fd5b5035919050565b6000602082840312156135d257600080fd5b5051919050565b600080604083850312156135ec57600080fd5b50508035926020909101359150565b60008060006060848603121561361057600080fd5b8351925060208401519150604084015190509250925092565b600080600080600060a0868803121561364157600080fd5b853594506020860135935060408601359250606086013561366181613bc3565b9150608086013561367181613bd1565b809150509295509295909350565b60008060008060008060c0878903121561369857600080fd5b505084359660208601359650604086013595606081013595506080810135945060a0013592509050565b6000602082840312156136d457600080fd5b813561253f81613bd1565b6000602082840312156136f157600080fd5b815161253f81613bd1565b600081518084526020808501945080840160005b8381101561372c57815187529582019590820190600101613710565b509495945050505050565b60008251613749818460208701613ab3565b9190910192915050565b602080825282518282018190526000919084820190604085019084805b828110156137b057845184835b600381101561379a5782518252918801919088019060010161377d565b5050509385019360609390930192600101613770565b5091979650505050505050565b60208152600061253f60208301846136fc565b6040815260006137e360408301856136fc565b82810360208481019190915284518083528582019282019060005b8181101561381c5784511515835293830193918301916001016137fe565b5090979650505050505050565b6020815260008251806020840152613848816040850160208701613ab3565b601f01601f19169190910160400192915050565b602080825260119082015270139bdb881d985b1a59081c1bdbdb081a59607a1b604082015260600190565b6020808252818101527f4f776e61626c653a2063616c6c6572206973206e6f7420746865206f776e6572604082015260600190565b60208082526014908201527318dbdb9d1c9858dd081b9bdd08185b1b1bddd95960621b604082015260600190565b6020808252601f908201527f5265656e7472616e637947756172643a207265656e7472616e742063616c6c00604082015260600190565b6020808252601d908201527f43616e6e6f74206368616e676520616674657220706f6f6c7320656e64000000604082015260600190565b6000821982111561396b5761396b613b6c565b500190565b60008261398d57634e487b7160e01b600052601260045260246000fd5b500490565b600181815b808511156139cd5781600019048211156139b3576139b3613b6c565b808516156139c057918102915b93841c9390800290613997565b509250929050565b600061253f83836000826139eb57506001611379565b816139f857506000611379565b8160018114613a0e5760028114613a1857613a34565b6001915050611379565b60ff841115613a2957613a29613b6c565b50506001821b611379565b5060208310610133831016604e8410600b8410161715613a57575081810a611379565b613a618383613992565b8060001904821115613a7557613a75613b6c565b029392505050565b6000816000190483118215151615613a9757613a97613b6c565b500290565b600082821015613aae57613aae613b6c565b500390565b60005b83811015613ace578181015183820152602001613ab6565b8381111561189b5750506000910152565b600081613aee57613aee613b6c565b506000190190565b600181811c90821680613b0a57607f821691505b60208210811415613b2b57634e487b7160e01b600052602260045260246000fd5b50919050565b6000600019821415613b4557613b45613b6c565b5060010190565b600060ff821660ff811415613b6357613b63613b6c565b60010192915050565b634e487b7160e01b600052601160045260246000fd5b634e487b7160e01b600052603260045260246000fd5b634e487b7160e01b600052604160045260246000fd5b6001600160a01b038116811461193057600080fd5b801515811461193057600080fd5b60ff8116811461193057600080fdfea26469706673582212206b5947c6a36af243c07a7fecfed3ac8a1fc3cc90bd3fcad4c0de31c386313ad664736f6c63430008070033",
			"opcodes": "PUSH1 0x80 PUSH1 0x40 MSTORE PUSH1 0xC DUP1 SLOAD PUSH1 0xFF NOT AND SWAP1 SSTORE PUSH1 0x0 PUSH1 0xD SSTORE CALLVALUE DUP1 ISZERO PUSH3 0x20 JUMPI PUSH1 0x0 DUP1 REVERT JUMPDEST POP PUSH1 0x40 MLOAD PUSH3 0x3E7B CODESIZE SUB DUP1 PUSH3 0x3E7B DUP4 CODECOPY DUP2 ADD PUSH1 0x40 DUP2 SWAP1 MSTORE PUSH3 0x43 SWAP2 PUSH3 0x190 JUMP JUMPDEST PUSH1 0x1 PUSH1 0x0 SSTORE PUSH3 0x53 CALLER PUSH3 0x13E JUMP JUMPDEST PUSH1 0x0 DUP9 PUSH1 0x1 PUSH1 0x1 PUSH1 0xA0 SHL SUB AND PUSH4 0x18160DDD PUSH1 0x40 MLOAD DUP2 PUSH4 0xFFFFFFFF AND PUSH1 0xE0 SHL DUP2 MSTORE PUSH1 0x4 ADD PUSH1 0x20 PUSH1 0x40 MLOAD DUP1 DUP4 SUB DUP2 DUP7 DUP1 EXTCODESIZE ISZERO DUP1 ISZERO PUSH3 0x8F JUMPI PUSH1 0x0 DUP1 REVERT JUMPDEST POP GAS STATICCALL ISZERO DUP1 ISZERO PUSH3 0xA4 JUMPI RETURNDATASIZE PUSH1 0x0 DUP1 RETURNDATACOPY RETURNDATASIZE PUSH1 0x0 REVERT JUMPDEST POP POP POP POP PUSH1 0x40 MLOAD RETURNDATASIZE PUSH1 0x1F NOT PUSH1 0x1F DUP3 ADD AND DUP3 ADD DUP1 PUSH1 0x40 MSTORE POP DUP2 ADD SWAP1 PUSH3 0xCA SWAP2 SWAP1 PUSH3 0x222 JUMP JUMPDEST LT ISZERO PUSH3 0xD6 JUMPI PUSH1 0x0 DUP1 REVERT JUMPDEST PUSH1 0x3 DUP1 SLOAD PUSH1 0x1 PUSH1 0x1 PUSH1 0xA0 SHL SUB SWAP10 DUP11 AND PUSH1 0x1 PUSH1 0x1 PUSH1 0xA0 SHL SUB NOT SWAP2 DUP3 AND OR SWAP1 SWAP2 SSTORE PUSH1 0x4 DUP1 SLOAD SWAP9 DUP11 AND SWAP9 DUP3 AND SWAP9 SWAP1 SWAP9 OR SWAP1 SWAP8 SSTORE PUSH1 0x5 SWAP6 SWAP1 SWAP6 SSTORE PUSH1 0x6 SWAP4 SWAP1 SWAP4 SSTORE PUSH1 0x8 SWAP2 SWAP1 SWAP2 SSTORE PUSH1 0x2 DUP1 SLOAD SWAP2 DUP7 AND SWAP2 DUP6 AND SWAP2 SWAP1 SWAP2 OR SWAP1 SSTORE PUSH1 0x16 SSTORE PUSH1 0xE DUP1 SLOAD SWAP2 SWAP1 SWAP4 AND SWAP2 AND OR SWAP1 SSTORE PUSH3 0x255 JUMP JUMPDEST PUSH1 0x1 DUP1 SLOAD PUSH1 0x1 PUSH1 0x1 PUSH1 0xA0 SHL SUB DUP4 DUP2 AND PUSH1 0x1 PUSH1 0x1 PUSH1 0xA0 SHL SUB NOT DUP4 AND DUP2 OR SWAP1 SWAP4 SSTORE PUSH1 0x40 MLOAD SWAP2 AND SWAP2 SWAP1 DUP3 SWAP1 PUSH32 0x8BE0079C531659141344CD1FD0A4F28419497F9722A3DAAFE3B4186F6B6457E0 SWAP1 PUSH1 0x0 SWAP1 LOG3 POP POP JUMP JUMPDEST PUSH1 0x0 DUP1 PUSH1 0x0 DUP1 PUSH1 0x0 DUP1 PUSH1 0x0 DUP1 PUSH2 0x100 DUP10 DUP12 SUB SLT ISZERO PUSH3 0x1AE JUMPI PUSH1 0x0 DUP1 REVERT JUMPDEST DUP9 MLOAD PUSH3 0x1BB DUP2 PUSH3 0x23C JUMP JUMPDEST PUSH1 0x20 DUP11 ADD MLOAD SWAP1 SWAP9 POP PUSH3 0x1CE DUP2 PUSH3 0x23C JUMP JUMPDEST DUP1 SWAP8 POP POP PUSH1 0x40 DUP10 ADD MLOAD SWAP6 POP PUSH1 0x60 DUP10 ADD MLOAD SWAP5 POP PUSH1 0x80 DUP10 ADD MLOAD SWAP4 POP PUSH1 0xA0 DUP10 ADD MLOAD PUSH3 0x1F7 DUP2 PUSH3 0x23C JUMP JUMPDEST PUSH1 0xC0 DUP11 ADD MLOAD PUSH1 0xE0 DUP12 ADD MLOAD SWAP2 SWAP5 POP SWAP3 POP PUSH3 0x211 DUP2 PUSH3 0x23C JUMP JUMPDEST DUP1 SWAP2 POP POP SWAP3 SWAP6 SWAP9 POP SWAP3 SWAP6 SWAP9 SWAP1 SWAP4 SWAP7 POP JUMP JUMPDEST PUSH1 0x0 PUSH1 0x20 DUP3 DUP5 SUB SLT ISZERO PUSH3 0x235 JUMPI PUSH1 0x0 DUP1 REVERT JUMPDEST POP MLOAD SWAP2 SWAP1 POP JUMP JUMPDEST PUSH1 0x1 PUSH1 0x1 PUSH1 0xA0 SHL SUB DUP2 AND DUP2 EQ PUSH3 0x252 JUMPI PUSH1 0x0 DUP1 REVERT JUMPDEST POP JUMP JUMPDEST PUSH2 0x3C16 DUP1 PUSH3 0x265 PUSH1 0x0 CODECOPY PUSH1 0x0 RETURN INVALID PUSH1 0x80 PUSH1 0x40 MSTORE PUSH1 0x4 CALLDATASIZE LT PUSH2 0x297 JUMPI PUSH1 0x0 CALLDATALOAD PUSH1 0xE0 SHR DUP1 PUSH4 0x8DA4D3C9 GT PUSH2 0x15A JUMPI DUP1 PUSH4 0xBA99110A GT PUSH2 0xC1 JUMPI DUP1 PUSH4 0xE799FFB1 GT PUSH2 0x7A JUMPI DUP1 PUSH4 0xE799FFB1 EQ PUSH2 0x834 JUMPI DUP1 PUSH4 0xF0B53256 EQ PUSH2 0x849 JUMPI DUP1 PUSH4 0xF109C9ED EQ PUSH2 0x85F JUMPI DUP1 PUSH4 0xF2FDE38B EQ PUSH2 0x875 JUMPI DUP1 PUSH4 0xF887EA40 EQ PUSH2 0x895 JUMPI DUP1 PUSH4 0xF9CD5C12 EQ PUSH2 0x8B5 JUMPI PUSH1 0x0 DUP1 REVERT JUMPDEST DUP1 PUSH4 0xBA99110A EQ PUSH2 0x786 JUMPI DUP1 PUSH4 0xBAD58C4E EQ PUSH2 0x79B JUMPI DUP1 PUSH4 0xBD8D8211 EQ PUSH2 0x7B1 JUMPI DUP1 PUSH4 0xC78F19F9 EQ PUSH2 0x7D1 JUMPI DUP1 PUSH4 0xCA463CA4 EQ PUSH2 0x7E7 JUMPI DUP1 PUSH4 0xE0EAE6E7 EQ PUSH2 0x814 JUMPI PUSH1 0x0 DUP1 REVERT JUMPDEST DUP1 PUSH4 0xA5D927D4 GT PUSH2 0x113 JUMPI DUP1 PUSH4 0xA5D927D4 EQ PUSH2 0x6C9 JUMPI DUP1 PUSH4 0xA8AA1B31 EQ PUSH2 0x6DE JUMPI DUP1 PUSH4 0xB3F05B97 EQ PUSH2 0x6FE JUMPI DUP1 PUSH4 0xB42392F1 EQ PUSH2 0x71F JUMPI DUP1 PUSH4 0xB4DA5402 EQ PUSH2 0x746 JUMPI DUP1 PUSH4 0xB7813607 EQ PUSH2 0x766 JUMPI PUSH1 0x0 DUP1 REVERT JUMPDEST DUP1 PUSH4 0x8DA4D3C9 EQ PUSH2 0x616 JUMPI DUP1 PUSH4 0x8DA5CB5B EQ PUSH2 0x62C JUMPI DUP1 PUSH4 0x8EA5220F EQ PUSH2 0x64A JUMPI DUP1 PUSH4 0x92604BC4 EQ PUSH2 0x66A JUMPI DUP1 PUSH4 0x9513997F EQ PUSH2 0x67F JUMPI DUP1 PUSH4 0xA4E2D634 EQ PUSH2 0x69F JUMPI PUSH1 0x0 DUP1 REVERT JUMPDEST DUP1 PUSH4 0x4AF3C9B7 GT PUSH2 0x1FE JUMPI DUP1 PUSH4 0x66087E23 GT PUSH2 0x1B7 JUMPI DUP1 PUSH4 0x66087E23 EQ PUSH2 0x4F8 JUMPI DUP1 PUSH4 0x6BB38B28 EQ PUSH2 0x51A JUMPI DUP1 PUSH4 0x6E6FF8A9 EQ PUSH2 0x52F JUMPI DUP1 PUSH4 0x715018A6 EQ PUSH2 0x545 JUMPI DUP1 PUSH4 0x7BA09759 EQ PUSH2 0x55A JUMPI DUP1 PUSH4 0x7E3F26F2 EQ PUSH2 0x603 JUMPI PUSH1 0x0 DUP1 REVERT JUMPDEST DUP1 PUSH4 0x4AF3C9B7 EQ PUSH2 0x41C JUMPI DUP1 PUSH4 0x4E4C36F8 EQ PUSH2 0x44A JUMPI DUP1 PUSH4 0x502F511B EQ PUSH2 0x46A JUMPI DUP1 PUSH4 0x5040C6E7 EQ PUSH2 0x48A JUMPI DUP1 PUSH4 0x5E31BFE7 EQ PUSH2 0x4A0 JUMPI DUP1 PUSH4 0x61D027B3 EQ PUSH2 0x4C0 JUMPI PUSH1 0x0 DUP1 REVERT JUMPDEST DUP1 PUSH4 0x35B20AF5 GT PUSH2 0x250 JUMPI DUP1 PUSH4 0x35B20AF5 EQ PUSH2 0x344 JUMPI DUP1 PUSH4 0x37F859B8 EQ PUSH2 0x357 JUMPI DUP1 PUSH4 0x3F138D4B EQ PUSH2 0x377 JUMPI DUP1 PUSH4 0x45B8BF91 EQ PUSH2 0x397 JUMPI DUP1 PUSH4 0x46AB91BF EQ PUSH2 0x3B7 JUMPI DUP1 PUSH4 0x48CD4CB1 EQ PUSH2 0x406 JUMPI PUSH1 0x0 DUP1 REVERT JUMPDEST DUP1 PUSH4 0x242E9EA EQ PUSH2 0x2A3 JUMPI DUP1 PUSH4 0x7973CCF EQ PUSH2 0x2BA JUMPI DUP1 PUSH4 0x83C6323 EQ PUSH2 0x2E3 JUMPI DUP1 PUSH4 0x2374876C EQ PUSH2 0x2F9 JUMPI DUP1 PUSH4 0x24C26B58 EQ PUSH2 0x319 JUMPI DUP1 PUSH4 0x2CE2FC68 EQ PUSH2 0x32F JUMPI PUSH1 0x0 DUP1 REVERT JUMPDEST CALLDATASIZE PUSH2 0x29E JUMPI STOP JUMPDEST PUSH1 0x0 DUP1 REVERT JUMPDEST CALLVALUE DUP1 ISZERO PUSH2 0x2AF JUMPI PUSH1 0x0 DUP1 REVERT JUMPDEST POP PUSH2 0x2B8 PUSH2 0x8E2 JUMP JUMPDEST STOP JUMPDEST CALLVALUE DUP1 ISZERO PUSH2 0x2C6 JUMPI PUSH1 0x0 DUP1 REVERT JUMPDEST POP PUSH2 0x2D0 PUSH1 0x13 SLOAD DUP2 JUMP JUMPDEST PUSH1 0x40 MLOAD SWAP1 DUP2 MSTORE PUSH1 0x20 ADD JUMPDEST PUSH1 0x40 MLOAD DUP1 SWAP2 SUB SWAP1 RETURN JUMPDEST CALLVALUE DUP1 ISZERO PUSH2 0x2EF JUMPI PUSH1 0x0 DUP1 REVERT JUMPDEST POP PUSH2 0x2D0 PUSH1 0x6 SLOAD DUP2 JUMP JUMPDEST CALLVALUE DUP1 ISZERO PUSH2 0x305 JUMPI PUSH1 0x0 DUP1 REVERT JUMPDEST POP PUSH2 0x2B8 PUSH2 0x314 CALLDATASIZE PUSH1 0x4 PUSH2 0x36C2 JUMP JUMPDEST PUSH2 0xBC0 JUMP JUMPDEST CALLVALUE DUP1 ISZERO PUSH2 0x325 JUMPI PUSH1 0x0 DUP1 REVERT JUMPDEST POP PUSH2 0x2D0 PUSH1 0xD SLOAD DUP2 JUMP JUMPDEST CALLVALUE DUP1 ISZERO PUSH2 0x33B JUMPI PUSH1 0x0 DUP1 REVERT JUMPDEST POP PUSH2 0x2B8 PUSH2 0xEBF JUMP JUMPDEST PUSH2 0x2B8 PUSH2 0x352 CALLDATASIZE PUSH1 0x4 PUSH2 0x36C2 JUMP JUMPDEST PUSH2 0xF1F JUMP JUMPDEST CALLVALUE DUP1 ISZERO PUSH2 0x363 JUMPI PUSH1 0x0 DUP1 REVERT JUMPDEST POP PUSH2 0x2D0 PUSH2 0x372 CALLDATASIZE PUSH1 0x4 PUSH2 0x35A7 JUMP JUMPDEST PUSH2 0x1312 JUMP JUMPDEST CALLVALUE DUP1 ISZERO PUSH2 0x383 JUMPI PUSH1 0x0 DUP1 REVERT JUMPDEST POP PUSH2 0x2B8 PUSH2 0x392 CALLDATASIZE PUSH1 0x4 PUSH2 0x34D6 JUMP JUMPDEST PUSH2 0x137F JUMP JUMPDEST CALLVALUE DUP1 ISZERO PUSH2 0x3A3 JUMPI PUSH1 0x0 DUP1 REVERT JUMPDEST POP PUSH2 0x2B8 PUSH2 0x3B2 CALLDATASIZE PUSH1 0x4 PUSH2 0x3629 JUMP JUMPDEST PUSH2 0x1404 JUMP JUMPDEST CALLVALUE DUP1 ISZERO PUSH2 0x3C3 JUMPI PUSH1 0x0 DUP1 REVERT JUMPDEST POP PUSH2 0x3D7 PUSH2 0x3D2 CALLDATASIZE PUSH1 0x4 PUSH2 0x35A7 JUMP JUMPDEST PUSH2 0x1594 JUMP JUMPDEST PUSH1 0x40 DUP1 MLOAD SWAP7 DUP8 MSTORE PUSH1 0x20 DUP8 ADD SWAP6 SWAP1 SWAP6 MSTORE SWAP4 DUP6 ADD SWAP3 SWAP1 SWAP3 MSTORE ISZERO ISZERO PUSH1 0x60 DUP5 ADD MSTORE PUSH1 0x80 DUP4 ADD MSTORE PUSH1 0xA0 DUP3 ADD MSTORE PUSH1 0xC0 ADD PUSH2 0x2DA JUMP JUMPDEST CALLVALUE DUP1 ISZERO PUSH2 0x412 JUMPI PUSH1 0x0 DUP1 REVERT JUMPDEST POP PUSH2 0x2D0 PUSH1 0x5 SLOAD DUP2 JUMP JUMPDEST CALLVALUE DUP1 ISZERO PUSH2 0x428 JUMPI PUSH1 0x0 DUP1 REVERT JUMPDEST POP PUSH2 0x43C PUSH2 0x437 CALLDATASIZE PUSH1 0x4 PUSH2 0x344E JUMP JUMPDEST PUSH2 0x1654 JUMP JUMPDEST PUSH1 0x40 MLOAD PUSH2 0x2DA SWAP3 SWAP2 SWAP1 PUSH2 0x37D0 JUMP JUMPDEST CALLVALUE DUP1 ISZERO PUSH2 0x456 JUMPI PUSH1 0x0 DUP1 REVERT JUMPDEST POP PUSH2 0x2B8 PUSH2 0x465 CALLDATASIZE PUSH1 0x4 PUSH2 0x35A7 JUMP JUMPDEST PUSH2 0x17AE JUMP JUMPDEST CALLVALUE DUP1 ISZERO PUSH2 0x476 JUMPI PUSH1 0x0 DUP1 REVERT JUMPDEST POP PUSH2 0x2B8 PUSH2 0x485 CALLDATASIZE PUSH1 0x4 PUSH2 0x351F JUMP JUMPDEST PUSH2 0x17FE JUMP JUMPDEST CALLVALUE DUP1 ISZERO PUSH2 0x496 JUMPI PUSH1 0x0 DUP1 REVERT JUMPDEST POP PUSH2 0x2D0 PUSH1 0x7 SLOAD DUP2 JUMP JUMPDEST CALLVALUE DUP1 ISZERO PUSH2 0x4AC JUMPI PUSH1 0x0 DUP1 REVERT JUMPDEST POP PUSH2 0x2B8 PUSH2 0x4BB CALLDATASIZE PUSH1 0x4 PUSH2 0x35A7 JUMP JUMPDEST PUSH2 0x18A1 JUMP JUMPDEST CALLVALUE DUP1 ISZERO PUSH2 0x4CC JUMPI PUSH1 0x0 DUP1 REVERT JUMPDEST POP PUSH1 0x2 SLOAD PUSH2 0x4E0 SWAP1 PUSH1 0x1 PUSH1 0x1 PUSH1 0xA0 SHL SUB AND DUP2 JUMP JUMPDEST PUSH1 0x40 MLOAD PUSH1 0x1 PUSH1 0x1 PUSH1 0xA0 SHL SUB SWAP1 SWAP2 AND DUP2 MSTORE PUSH1 0x20 ADD PUSH2 0x2DA JUMP JUMPDEST CALLVALUE DUP1 ISZERO PUSH2 0x504 JUMPI PUSH1 0x0 DUP1 REVERT JUMPDEST POP PUSH2 0x50D PUSH2 0x1933 JUMP JUMPDEST PUSH1 0x40 MLOAD PUSH2 0x2DA SWAP2 SWAP1 PUSH2 0x3829 JUMP JUMPDEST CALLVALUE DUP1 ISZERO PUSH2 0x526 JUMPI PUSH1 0x0 DUP1 REVERT JUMPDEST POP PUSH2 0x50D PUSH2 0x19C1 JUMP JUMPDEST CALLVALUE DUP1 ISZERO PUSH2 0x53B JUMPI PUSH1 0x0 DUP1 REVERT JUMPDEST POP PUSH2 0x2D0 PUSH1 0xB SLOAD DUP2 JUMP JUMPDEST CALLVALUE DUP1 ISZERO PUSH2 0x551 JUMPI PUSH1 0x0 DUP1 REVERT JUMPDEST POP PUSH2 0x2B8 PUSH2 0x19CE JUMP JUMPDEST CALLVALUE DUP1 ISZERO PUSH2 0x566 JUMPI PUSH1 0x0 DUP1 REVERT JUMPDEST POP PUSH1 0x5 SLOAD PUSH1 0x6 SLOAD PUSH1 0x8 SLOAD PUSH1 0x7 SLOAD PUSH1 0x16 SLOAD PUSH1 0x3 SLOAD PUSH1 0x4 SLOAD PUSH1 0x9 SLOAD PUSH1 0xA SLOAD PUSH1 0xB SLOAD PUSH1 0xC SLOAD PUSH1 0xD SLOAD PUSH1 0x40 DUP1 MLOAD SWAP13 DUP14 MSTORE PUSH1 0x20 DUP14 ADD SWAP12 SWAP1 SWAP12 MSTORE SWAP10 DUP12 ADD SWAP9 SWAP1 SWAP9 MSTORE PUSH1 0x60 DUP11 ADD SWAP7 SWAP1 SWAP7 MSTORE PUSH1 0x80 DUP10 ADD SWAP5 SWAP1 SWAP5 MSTORE PUSH1 0xFF PUSH1 0x1 PUSH1 0xA0 SHL SWAP1 SWAP4 DIV DUP4 AND ISZERO ISZERO PUSH1 0xA0 DUP10 ADD MSTORE PUSH1 0x1 PUSH1 0x1 PUSH1 0xA0 SHL SUB SWAP1 SWAP2 AND PUSH1 0xC0 DUP9 ADD MSTORE PUSH1 0xE0 DUP8 ADD MSTORE PUSH2 0x100 DUP7 ADD SWAP2 SWAP1 SWAP2 MSTORE PUSH2 0x120 DUP6 ADD SWAP2 SWAP1 SWAP2 MSTORE AND ISZERO ISZERO PUSH2 0x140 DUP4 ADD MSTORE PUSH2 0x160 DUP3 ADD MSTORE PUSH2 0x180 ADD PUSH2 0x2DA JUMP JUMPDEST PUSH2 0x2B8 PUSH2 0x611 CALLDATASIZE PUSH1 0x4 PUSH2 0x36C2 JUMP JUMPDEST PUSH2 0x1A04 JUMP JUMPDEST CALLVALUE DUP1 ISZERO PUSH2 0x622 JUMPI PUSH1 0x0 DUP1 REVERT JUMPDEST POP PUSH2 0x2D0 PUSH1 0x14 SLOAD DUP2 JUMP JUMPDEST CALLVALUE DUP1 ISZERO PUSH2 0x638 JUMPI PUSH1 0x0 DUP1 REVERT JUMPDEST POP PUSH1 0x1 SLOAD PUSH1 0x1 PUSH1 0x1 PUSH1 0xA0 SHL SUB AND PUSH2 0x4E0 JUMP JUMPDEST CALLVALUE DUP1 ISZERO PUSH2 0x656 JUMPI PUSH1 0x0 DUP1 REVERT JUMPDEST POP PUSH1 0x4 SLOAD PUSH2 0x4E0 SWAP1 PUSH1 0x1 PUSH1 0x1 PUSH1 0xA0 SHL SUB AND DUP2 JUMP JUMPDEST CALLVALUE DUP1 ISZERO PUSH2 0x676 JUMPI PUSH1 0x0 DUP1 REVERT JUMPDEST POP PUSH2 0x50D PUSH2 0x1CE8 JUMP JUMPDEST CALLVALUE DUP1 ISZERO PUSH2 0x68B JUMPI PUSH1 0x0 DUP1 REVERT JUMPDEST POP PUSH2 0x2B8 PUSH2 0x69A CALLDATASIZE PUSH1 0x4 PUSH2 0x35D9 JUMP JUMPDEST PUSH2 0x1CF5 JUMP JUMPDEST CALLVALUE DUP1 ISZERO PUSH2 0x6AB JUMPI PUSH1 0x0 DUP1 REVERT JUMPDEST POP PUSH1 0xC SLOAD PUSH2 0x6B9 SWAP1 PUSH1 0xFF AND DUP2 JUMP JUMPDEST PUSH1 0x40 MLOAD SWAP1 ISZERO ISZERO DUP2 MSTORE PUSH1 0x20 ADD PUSH2 0x2DA JUMP JUMPDEST CALLVALUE DUP1 ISZERO PUSH2 0x6D5 JUMPI PUSH1 0x0 DUP1 REVERT JUMPDEST POP PUSH2 0x2B8 PUSH2 0x1E70 JUMP JUMPDEST CALLVALUE DUP1 ISZERO PUSH2 0x6EA JUMPI PUSH1 0x0 DUP1 REVERT JUMPDEST POP PUSH1 0xF SLOAD PUSH2 0x4E0 SWAP1 PUSH1 0x1 PUSH1 0x1 PUSH1 0xA0 SHL SUB AND DUP2 JUMP JUMPDEST CALLVALUE DUP1 ISZERO PUSH2 0x70A JUMPI PUSH1 0x0 DUP1 REVERT JUMPDEST POP PUSH1 0x3 SLOAD PUSH2 0x6B9 SWAP1 PUSH1 0x1 PUSH1 0xA0 SHL SWAP1 DIV PUSH1 0xFF AND DUP2 JUMP JUMPDEST CALLVALUE DUP1 ISZERO PUSH2 0x72B JUMPI PUSH1 0x0 DUP1 REVERT JUMPDEST POP PUSH2 0x734 PUSH1 0x2 DUP2 JUMP JUMPDEST PUSH1 0x40 MLOAD PUSH1 0xFF SWAP1 SWAP2 AND DUP2 MSTORE PUSH1 0x20 ADD PUSH2 0x2DA JUMP JUMPDEST CALLVALUE DUP1 ISZERO PUSH2 0x752 JUMPI PUSH1 0x0 DUP1 REVERT JUMPDEST POP PUSH2 0x2B8 PUSH2 0x761 CALLDATASIZE PUSH1 0x4 PUSH2 0x367F JUMP JUMPDEST PUSH2 0x2114 JUMP JUMPDEST CALLVALUE DUP1 ISZERO PUSH2 0x772 JUMPI PUSH1 0x0 DUP1 REVERT JUMPDEST POP PUSH1 0x3 SLOAD PUSH2 0x4E0 SWAP1 PUSH1 0x1 PUSH1 0x1 PUSH1 0xA0 SHL SUB AND DUP2 JUMP JUMPDEST CALLVALUE DUP1 ISZERO PUSH2 0x792 JUMPI PUSH1 0x0 DUP1 REVERT JUMPDEST POP PUSH2 0x2B8 PUSH2 0x22B3 JUMP JUMPDEST CALLVALUE DUP1 ISZERO PUSH2 0x7A7 JUMPI PUSH1 0x0 DUP1 REVERT JUMPDEST POP PUSH2 0x2D0 PUSH1 0x16 SLOAD DUP2 JUMP JUMPDEST CALLVALUE DUP1 ISZERO PUSH2 0x7BD JUMPI PUSH1 0x0 DUP1 REVERT JUMPDEST POP PUSH2 0x2B8 PUSH2 0x7CC CALLDATASIZE PUSH1 0x4 PUSH2 0x3414 JUMP JUMPDEST PUSH2 0x23AC JUMP JUMPDEST CALLVALUE DUP1 ISZERO PUSH2 0x7DD JUMPI PUSH1 0x0 DUP1 REVERT JUMPDEST POP PUSH2 0x2D0 PUSH1 0xA SLOAD DUP2 JUMP JUMPDEST CALLVALUE DUP1 ISZERO PUSH2 0x7F3 JUMPI PUSH1 0x0 DUP1 REVERT JUMPDEST POP PUSH2 0x807 PUSH2 0x802 CALLDATASIZE PUSH1 0x4 PUSH2 0x344E JUMP JUMPDEST PUSH2 0x23F8 JUMP JUMPDEST PUSH1 0x40 MLOAD PUSH2 0x2DA SWAP2 SWAP1 PUSH2 0x3753 JUMP JUMPDEST CALLVALUE DUP1 ISZERO PUSH2 0x820 JUMPI PUSH1 0x0 DUP1 REVERT JUMPDEST POP PUSH2 0x2B8 PUSH2 0x82F CALLDATASIZE PUSH1 0x4 PUSH2 0x36C2 JUMP JUMPDEST PUSH2 0x2546 JUMP JUMPDEST CALLVALUE DUP1 ISZERO PUSH2 0x840 JUMPI PUSH1 0x0 DUP1 REVERT JUMPDEST POP PUSH2 0x2B8 PUSH2 0x27D6 JUMP JUMPDEST CALLVALUE DUP1 ISZERO PUSH2 0x855 JUMPI PUSH1 0x0 DUP1 REVERT JUMPDEST POP PUSH2 0x2D0 PUSH1 0x8 SLOAD DUP2 JUMP JUMPDEST CALLVALUE DUP1 ISZERO PUSH2 0x86B JUMPI PUSH1 0x0 DUP1 REVERT JUMPDEST POP PUSH2 0x2D0 PUSH1 0x9 SLOAD DUP2 JUMP JUMPDEST CALLVALUE DUP1 ISZERO PUSH2 0x881 JUMPI PUSH1 0x0 DUP1 REVERT JUMPDEST POP PUSH2 0x2B8 PUSH2 0x890 CALLDATASIZE PUSH1 0x4 PUSH2 0x3414 JUMP JUMPDEST PUSH2 0x280B JUMP JUMPDEST CALLVALUE DUP1 ISZERO PUSH2 0x8A1 JUMPI PUSH1 0x0 DUP1 REVERT JUMPDEST POP PUSH1 0xE SLOAD PUSH2 0x4E0 SWAP1 PUSH1 0x1 PUSH1 0x1 PUSH1 0xA0 SHL SUB AND DUP2 JUMP JUMPDEST CALLVALUE DUP1 ISZERO PUSH2 0x8C1 JUMPI PUSH1 0x0 DUP1 REVERT JUMPDEST POP PUSH2 0x8D5 PUSH2 0x8D0 CALLDATASIZE PUSH1 0x4 PUSH2 0x344E JUMP JUMPDEST PUSH2 0x28A3 JUMP JUMPDEST PUSH1 0x40 MLOAD PUSH2 0x2DA SWAP2 SWAP1 PUSH2 0x37BD JUMP JUMPDEST PUSH1 0xB SLOAD PUSH2 0x8F2 SWAP1 PUSH3 0x15180 PUSH2 0x3A7D JUMP JUMPDEST PUSH1 0xD SLOAD PUSH2 0x8FF SWAP2 SWAP1 PUSH2 0x3958 JUMP JUMPDEST TIMESTAMP GT PUSH2 0x945 JUMPI PUSH1 0x40 MLOAD PUSH3 0x461BCD PUSH1 0xE5 SHL DUP2 MSTORE PUSH1 0x20 PUSH1 0x4 DUP3 ADD MSTORE PUSH1 0x10 PUSH1 0x24 DUP3 ADD MSTORE PUSH16 0x139BDD08155B9B1BD8DAD9590816595D PUSH1 0x82 SHL PUSH1 0x44 DUP3 ADD MSTORE PUSH1 0x64 ADD JUMPDEST PUSH1 0x40 MLOAD DUP1 SWAP2 SUB SWAP1 REVERT JUMPDEST PUSH1 0x4 SLOAD PUSH1 0x1 PUSH1 0x1 PUSH1 0xA0 SHL SUB AND CALLER EQ PUSH2 0x993 JUMPI PUSH1 0x40 MLOAD PUSH3 0x461BCD PUSH1 0xE5 SHL DUP2 MSTORE PUSH1 0x20 PUSH1 0x4 DUP3 ADD MSTORE PUSH1 0x11 PUSH1 0x24 DUP3 ADD MSTORE PUSH17 0x2737BA10283937B532B1BA1027BBB732B9 PUSH1 0x79 SHL PUSH1 0x44 DUP3 ADD MSTORE PUSH1 0x64 ADD PUSH2 0x93C JUMP JUMPDEST PUSH1 0xE SLOAD PUSH1 0x40 DUP1 MLOAD PUSH4 0xC45A0155 PUSH1 0xE0 SHL DUP2 MSTORE SWAP1 MLOAD PUSH1 0x0 SWAP3 PUSH1 0x1 PUSH1 0x1 PUSH1 0xA0 SHL SUB AND SWAP2 PUSH4 0xC45A0155 SWAP2 PUSH1 0x4 DUP1 DUP4 ADD SWAP3 PUSH1 0x20 SWAP3 SWAP2 SWAP1 DUP3 SWAP1 SUB ADD DUP2 DUP7 DUP1 EXTCODESIZE ISZERO DUP1 ISZERO PUSH2 0x9D8 JUMPI PUSH1 0x0 DUP1 REVERT JUMPDEST POP GAS STATICCALL ISZERO DUP1 ISZERO PUSH2 0x9EC JUMPI RETURNDATASIZE PUSH1 0x0 DUP1 RETURNDATACOPY RETURNDATASIZE PUSH1 0x0 REVERT JUMPDEST POP POP POP POP PUSH1 0x40 MLOAD RETURNDATASIZE PUSH1 0x1F NOT PUSH1 0x1F DUP3 ADD AND DUP3 ADD DUP1 PUSH1 0x40 MSTORE POP DUP2 ADD SWAP1 PUSH2 0xA10 SWAP2 SWAP1 PUSH2 0x3431 JUMP JUMPDEST PUSH1 0x3 SLOAD PUSH1 0xE SLOAD PUSH1 0x40 DUP1 MLOAD PUSH4 0x15AB88C9 PUSH1 0xE3 SHL DUP2 MSTORE SWAP1 MLOAD PUSH1 0x1 PUSH1 0x1 PUSH1 0xA0 SHL SUB SWAP5 DUP6 AND SWAP5 PUSH4 0xE6A43905 SWAP5 DUP2 AND SWAP4 AND SWAP2 PUSH4 0xAD5C4648 SWAP2 PUSH1 0x4 DUP1 DUP4 ADD SWAP3 PUSH1 0x20 SWAP3 SWAP2 SWAP1 DUP3 SWAP1 SUB ADD DUP2 DUP7 DUP1 EXTCODESIZE ISZERO DUP1 ISZERO PUSH2 0xA62 JUMPI PUSH1 0x0 DUP1 REVERT JUMPDEST POP GAS STATICCALL ISZERO DUP1 ISZERO PUSH2 0xA76 JUMPI RETURNDATASIZE PUSH1 0x0 DUP1 RETURNDATACOPY RETURNDATASIZE PUSH1 0x0 REVERT JUMPDEST POP POP POP POP PUSH1 0x40 MLOAD RETURNDATASIZE PUSH1 0x1F NOT PUSH1 0x1F DUP3 ADD AND DUP3 ADD DUP1 PUSH1 0x40 MSTORE POP DUP2 ADD SWAP1 PUSH2 0xA9A SWAP2 SWAP1 PUSH2 0x3431 JUMP JUMPDEST PUSH1 0x40 MLOAD PUSH1 0x1 PUSH1 0x1 PUSH1 0xE0 SHL SUB NOT PUSH1 0xE0 DUP6 SWAP1 SHL AND DUP2 MSTORE PUSH1 0x1 PUSH1 0x1 PUSH1 0xA0 SHL SUB SWAP3 DUP4 AND PUSH1 0x4 DUP3 ADD MSTORE SWAP2 AND PUSH1 0x24 DUP3 ADD MSTORE PUSH1 0x44 ADD PUSH1 0x20 PUSH1 0x40 MLOAD DUP1 DUP4 SUB DUP2 DUP7 DUP1 EXTCODESIZE ISZERO DUP1 ISZERO PUSH2 0xAE0 JUMPI PUSH1 0x0 DUP1 REVERT JUMPDEST POP GAS STATICCALL ISZERO DUP1 ISZERO PUSH2 0xAF4 JUMPI RETURNDATASIZE PUSH1 0x0 DUP1 RETURNDATACOPY RETURNDATASIZE PUSH1 0x0 REVERT JUMPDEST POP POP POP POP PUSH1 0x40 MLOAD RETURNDATASIZE PUSH1 0x1F NOT PUSH1 0x1F DUP3 ADD AND DUP3 ADD DUP1 PUSH1 0x40 MSTORE POP DUP2 ADD SWAP1 PUSH2 0xB18 SWAP2 SWAP1 PUSH2 0x3431 JUMP JUMPDEST PUSH1 0x40 MLOAD PUSH4 0x70A08231 PUSH1 0xE0 SHL DUP2 MSTORE ADDRESS PUSH1 0x4 DUP3 ADD MSTORE SWAP1 SWAP2 POP PUSH1 0x0 SWAP1 PUSH1 0x1 PUSH1 0x1 PUSH1 0xA0 SHL SUB DUP4 AND SWAP1 PUSH4 0x70A08231 SWAP1 PUSH1 0x24 ADD PUSH1 0x20 PUSH1 0x40 MLOAD DUP1 DUP4 SUB DUP2 DUP7 DUP1 EXTCODESIZE ISZERO DUP1 ISZERO PUSH2 0xB5D JUMPI PUSH1 0x0 DUP1 REVERT JUMPDEST POP GAS STATICCALL ISZERO DUP1 ISZERO PUSH2 0xB71 JUMPI RETURNDATASIZE PUSH1 0x0 DUP1 RETURNDATACOPY RETURNDATASIZE PUSH1 0x0 REVERT JUMPDEST POP POP POP POP PUSH1 0x40 MLOAD RETURNDATASIZE PUSH1 0x1F NOT PUSH1 0x1F DUP3 ADD AND DUP3 ADD DUP1 PUSH1 0x40 MSTORE POP DUP2 ADD SWAP1 PUSH2 0xB95 SWAP2 SWAP1 PUSH2 0x35C0 JUMP JUMPDEST PUSH1 0x4 SLOAD SWAP1 SWAP2 POP PUSH2 0xBB2 SWAP1 PUSH1 0x1 PUSH1 0x1 PUSH1 0xA0 SHL SUB DUP5 DUP2 AND SWAP2 AND DUP4 PUSH2 0x295F JUMP JUMPDEST POP POP PUSH1 0xC DUP1 SLOAD PUSH1 0xFF NOT AND SWAP1 SSTORE JUMP JUMPDEST PUSH1 0x2 PUSH1 0x0 SLOAD EQ ISZERO PUSH2 0xBE3 JUMPI PUSH1 0x40 MLOAD PUSH3 0x461BCD PUSH1 0xE5 SHL DUP2 MSTORE PUSH1 0x4 ADD PUSH2 0x93C SWAP1 PUSH2 0x38EA JUMP JUMPDEST PUSH1 0x2 PUSH1 0x0 SSTORE CALLER EXTCODESIZE ISZERO PUSH2 0xC07 JUMPI PUSH1 0x40 MLOAD PUSH3 0x461BCD PUSH1 0xE5 SHL DUP2 MSTORE PUSH1 0x4 ADD PUSH2 0x93C SWAP1 PUSH2 0x38BC JUMP JUMPDEST PUSH1 0x21 SLOAD PUSH1 0x1B SLOAD PUSH1 0x0 SWAP2 PUSH2 0xC19 SWAP2 PUSH2 0x3958 JUMP JUMPDEST SWAP1 POP PUSH1 0x8 SLOAD DUP2 LT ISZERO PUSH2 0xC6D JUMPI PUSH1 0x40 MLOAD PUSH3 0x461BCD PUSH1 0xE5 SHL DUP2 MSTORE PUSH1 0x20 PUSH1 0x4 DUP3 ADD MSTORE PUSH1 0x1D PUSH1 0x24 DUP3 ADD MSTORE PUSH32 0x536F667420436170204E6F74204D65742C20757365205265636C61696D000000 PUSH1 0x44 DUP3 ADD MSTORE PUSH1 0x64 ADD PUSH2 0x93C JUMP JUMPDEST PUSH1 0x6 SLOAD TIMESTAMP GT PUSH2 0xCB5 JUMPI PUSH1 0x40 MLOAD PUSH3 0x461BCD PUSH1 0xE5 SHL DUP2 MSTORE PUSH1 0x20 PUSH1 0x4 DUP3 ADD MSTORE PUSH1 0x14 PUSH1 0x24 DUP3 ADD MSTORE PUSH20 0x151BDBC819585C9B1E481D1BC81A185C9D995CDD PUSH1 0x62 SHL PUSH1 0x44 DUP3 ADD MSTORE PUSH1 0x64 ADD PUSH2 0x93C JUMP JUMPDEST PUSH1 0x2 PUSH1 0xFF DUP4 AND LT PUSH2 0xCD8 JUMPI PUSH1 0x40 MLOAD PUSH3 0x461BCD PUSH1 0xE5 SHL DUP2 MSTORE PUSH1 0x4 ADD PUSH2 0x93C SWAP1 PUSH2 0x385C JUMP JUMPDEST CALLER PUSH1 0x0 SWAP1 DUP2 MSTORE PUSH1 0x23 PUSH1 0x20 SWAP1 DUP2 MSTORE PUSH1 0x40 DUP1 DUP4 KECCAK256 PUSH1 0xFF DUP7 AND DUP5 MSTORE SWAP1 SWAP2 MSTORE SWAP1 KECCAK256 SLOAD PUSH2 0xD38 JUMPI PUSH1 0x40 MLOAD PUSH3 0x461BCD PUSH1 0xE5 SHL DUP2 MSTORE PUSH1 0x20 PUSH1 0x4 DUP3 ADD MSTORE PUSH1 0x13 PUSH1 0x24 DUP3 ADD MSTORE PUSH19 0x446964206E6F74207061727469636970617465 PUSH1 0x68 SHL PUSH1 0x44 DUP3 ADD MSTORE PUSH1 0x64 ADD PUSH2 0x93C JUMP JUMPDEST CALLER PUSH1 0x0 SWAP1 DUP2 MSTORE PUSH1 0x23 PUSH1 0x20 SWAP1 DUP2 MSTORE PUSH1 0x40 DUP1 DUP4 KECCAK256 PUSH1 0xFF DUP1 DUP8 AND DUP6 MSTORE SWAP3 MSTORE SWAP1 SWAP2 KECCAK256 PUSH1 0x1 ADD SLOAD AND ISZERO PUSH2 0xD98 JUMPI PUSH1 0x40 MLOAD PUSH3 0x461BCD PUSH1 0xE5 SHL DUP2 MSTORE PUSH1 0x20 PUSH1 0x4 DUP3 ADD MSTORE PUSH1 0xD PUSH1 0x24 DUP3 ADD MSTORE PUSH13 0x12185CC81A185C9D995CDD1959 PUSH1 0x9A SHL PUSH1 0x44 DUP3 ADD MSTORE PUSH1 0x64 ADD PUSH2 0x93C JUMP JUMPDEST CALLER PUSH1 0x0 SWAP1 DUP2 MSTORE PUSH1 0x23 PUSH1 0x20 SWAP1 DUP2 MSTORE PUSH1 0x40 DUP1 DUP4 KECCAK256 PUSH1 0xFF DUP7 AND DUP5 MSTORE SWAP1 SWAP2 MSTORE DUP2 KECCAK256 PUSH1 0x1 SWAP1 DUP2 ADD DUP1 SLOAD PUSH1 0xFF NOT AND SWAP1 SWAP2 OR SWAP1 SSTORE PUSH1 0x14 DUP1 SLOAD SWAP2 PUSH2 0xDD3 DUP4 PUSH2 0x3B31 JUMP JUMPDEST SWAP2 SWAP1 POP SSTORE POP PUSH1 0x0 DUP1 PUSH1 0x0 PUSH2 0xDE7 CALLER DUP7 PUSH2 0x29B6 JUMP JUMPDEST SWAP2 SWAP5 POP SWAP3 POP SWAP1 POP DUP1 ISZERO PUSH2 0xE46 JUMPI PUSH2 0xE24 DUP2 PUSH1 0x17 DUP8 PUSH1 0xFF AND PUSH1 0x2 DUP2 LT PUSH2 0xE0E JUMPI PUSH2 0xE0E PUSH2 0x3B82 JUMP JUMPDEST PUSH1 0x6 MUL ADD PUSH1 0x5 ADD SLOAD PUSH2 0x2BC1 SWAP1 SWAP2 SWAP1 PUSH4 0xFFFFFFFF AND JUMP JUMPDEST PUSH1 0x17 DUP7 PUSH1 0xFF AND PUSH1 0x2 DUP2 LT PUSH2 0xE3A JUMPI PUSH2 0xE3A PUSH2 0x3B82 JUMP JUMPDEST PUSH1 0x6 MUL ADD PUSH1 0x5 ADD DUP2 SWAP1 SSTORE POP JUMPDEST DUP3 ISZERO PUSH2 0xE63 JUMPI PUSH1 0x3 SLOAD PUSH2 0xE63 SWAP1 PUSH1 0x1 PUSH1 0x1 PUSH1 0xA0 SHL SUB AND CALLER DUP6 PUSH2 0x295F JUMP JUMPDEST DUP2 ISZERO PUSH2 0xE73 JUMPI PUSH2 0xE73 CALLER DUP4 PUSH2 0x2BCD JUMP JUMPDEST PUSH1 0x40 DUP1 MLOAD DUP5 DUP2 MSTORE PUSH1 0x20 DUP2 ADD DUP5 SWAP1 MSTORE PUSH1 0xFF DUP8 AND SWAP2 CALLER SWAP2 PUSH32 0x51524C2E5EDFEDF8B01B29719C661E4FBE27E71734E7CD773DABB7CB712FB3B3 SWAP2 ADD PUSH1 0x40 MLOAD DUP1 SWAP2 SUB SWAP1 LOG3 POP POP PUSH1 0x1 PUSH1 0x0 SSTORE POP POP POP JUMP JUMPDEST PUSH1 0x1 SLOAD PUSH1 0x1 PUSH1 0x1 PUSH1 0xA0 SHL SUB AND CALLER EQ PUSH2 0xEE9 JUMPI PUSH1 0x40 MLOAD PUSH3 0x461BCD PUSH1 0xE5 SHL DUP2 MSTORE PUSH1 0x4 ADD PUSH2 0x93C SWAP1 PUSH2 0x3887 JUMP JUMPDEST PUSH1 0x6 SLOAD TIMESTAMP LT PUSH2 0xF0A JUMPI PUSH1 0x40 MLOAD PUSH3 0x461BCD PUSH1 0xE5 SHL DUP2 MSTORE PUSH1 0x4 ADD PUSH2 0x93C SWAP1 PUSH2 0x3921 JUMP JUMPDEST PUSH1 0x1D SLOAD PUSH1 0x17 SLOAD PUSH2 0xF1A SWAP2 SWAP1 PUSH2 0x3958 JUMP JUMPDEST PUSH1 0x7 SSTORE JUMP JUMPDEST PUSH1 0x2 PUSH1 0x0 SLOAD EQ ISZERO PUSH2 0xF42 JUMPI PUSH1 0x40 MLOAD PUSH3 0x461BCD PUSH1 0xE5 SHL DUP2 MSTORE PUSH1 0x4 ADD PUSH2 0x93C SWAP1 PUSH2 0x38EA JUMP JUMPDEST PUSH1 0x2 PUSH1 0x0 SSTORE CALLER EXTCODESIZE ISZERO PUSH2 0xF66 JUMPI PUSH1 0x40 MLOAD PUSH3 0x461BCD PUSH1 0xE5 SHL DUP2 MSTORE PUSH1 0x4 ADD PUSH2 0x93C SWAP1 PUSH2 0x38BC JUMP JUMPDEST CALLVALUE PUSH1 0x2 PUSH1 0xFF DUP4 AND LT PUSH2 0xF8A JUMPI PUSH1 0x40 MLOAD PUSH3 0x461BCD PUSH1 0xE5 SHL DUP2 MSTORE PUSH1 0x4 ADD PUSH2 0x93C SWAP1 PUSH2 0x385C JUMP JUMPDEST PUSH1 0x0 PUSH1 0x17 DUP4 PUSH1 0xFF AND PUSH1 0x2 DUP2 LT PUSH2 0xFA2 JUMPI PUSH2 0xFA2 PUSH2 0x3B82 JUMP JUMPDEST PUSH1 0x6 MUL ADD PUSH1 0x1 ADD SLOAD GT DUP1 ISZERO PUSH2 0xFD1 JUMPI POP PUSH1 0x0 PUSH1 0x17 DUP4 PUSH1 0xFF AND PUSH1 0x2 DUP2 LT PUSH2 0xFCA JUMPI PUSH2 0xFCA PUSH2 0x3B82 JUMP JUMPDEST PUSH1 0x6 MUL ADD SLOAD GT JUMPDEST PUSH2 0x100C JUMPI PUSH1 0x40 MLOAD PUSH3 0x461BCD PUSH1 0xE5 SHL DUP2 MSTORE PUSH1 0x20 PUSH1 0x4 DUP3 ADD MSTORE PUSH1 0xC PUSH1 0x24 DUP3 ADD MSTORE PUSH12 0x141BDBDB081B9BDD081CD95D PUSH1 0xA2 SHL PUSH1 0x44 DUP3 ADD MSTORE PUSH1 0x64 ADD PUSH2 0x93C JUMP JUMPDEST PUSH1 0x5 SLOAD TIMESTAMP GT PUSH2 0x1049 JUMPI PUSH1 0x40 MLOAD PUSH3 0x461BCD PUSH1 0xE5 SHL DUP2 MSTORE PUSH1 0x20 PUSH1 0x4 DUP3 ADD MSTORE PUSH1 0x9 PUSH1 0x24 DUP3 ADD MSTORE PUSH9 0x546F6F206561726C79 PUSH1 0xB8 SHL PUSH1 0x44 DUP3 ADD MSTORE PUSH1 0x64 ADD PUSH2 0x93C JUMP JUMPDEST PUSH1 0x6 SLOAD TIMESTAMP LT PUSH2 0x1085 JUMPI PUSH1 0x40 MLOAD PUSH3 0x461BCD PUSH1 0xE5 SHL DUP2 MSTORE PUSH1 0x20 PUSH1 0x4 DUP3 ADD MSTORE PUSH1 0x8 PUSH1 0x24 DUP3 ADD MSTORE PUSH8 0x546F6F206C617465 PUSH1 0xC0 SHL PUSH1 0x44 DUP3 ADD MSTORE PUSH1 0x64 ADD PUSH2 0x93C JUMP JUMPDEST PUSH1 0x0 DUP2 GT PUSH2 0x10CA JUMPI PUSH1 0x40 MLOAD PUSH3 0x461BCD PUSH1 0xE5 SHL DUP2 MSTORE PUSH1 0x20 PUSH1 0x4 DUP3 ADD MSTORE PUSH1 0x12 PUSH1 0x24 DUP3 ADD MSTORE PUSH18 0x416D6F756E74206D757374206265203E203 PUSH1 0x74 SHL PUSH1 0x44 DUP3 ADD MSTORE PUSH1 0x64 ADD PUSH2 0x93C JUMP JUMPDEST CALLER PUSH1 0x0 SWAP1 DUP2 MSTORE PUSH1 0x23 PUSH1 0x20 SWAP1 DUP2 MSTORE PUSH1 0x40 DUP1 DUP4 KECCAK256 PUSH1 0xFF DUP7 AND DUP5 MSTORE SWAP1 SWAP2 MSTORE SWAP1 KECCAK256 SLOAD PUSH2 0x1102 JUMPI PUSH1 0x13 DUP1 SLOAD SWAP1 PUSH1 0x0 PUSH2 0x10FC DUP4 PUSH2 0x3B31 JUMP JUMPDEST SWAP2 SWAP1 POP SSTORE POP JUMPDEST CALLER PUSH1 0x0 SWAP1 DUP2 MSTORE PUSH1 0x23 PUSH1 0x20 SWAP1 DUP2 MSTORE PUSH1 0x40 DUP1 DUP4 KECCAK256 PUSH1 0xFF DUP7 AND DUP5 MSTORE SWAP1 SWAP2 MSTORE SWAP1 KECCAK256 SLOAD PUSH2 0x112A SWAP1 DUP3 PUSH2 0x2BC1 JUMP JUMPDEST CALLER PUSH1 0x0 SWAP1 DUP2 MSTORE PUSH1 0x23 PUSH1 0x20 SWAP1 DUP2 MSTORE PUSH1 0x40 DUP1 DUP4 KECCAK256 PUSH1 0xFF DUP8 AND DUP1 DUP6 MSTORE SWAP3 MSTORE DUP3 KECCAK256 SWAP3 SWAP1 SWAP3 SSTORE SWAP1 PUSH1 0x17 SWAP1 PUSH1 0x2 DUP2 LT PUSH2 0x115F JUMPI PUSH2 0x115F PUSH2 0x3B82 JUMP JUMPDEST PUSH1 0x6 MUL ADD PUSH1 0x2 ADD SLOAD GT ISZERO PUSH2 0x11F7 JUMPI PUSH1 0x17 DUP3 PUSH1 0xFF AND PUSH1 0x2 DUP2 LT PUSH2 0x1183 JUMPI PUSH2 0x1183 PUSH2 0x3B82 JUMP JUMPDEST PUSH1 0x6 MUL ADD PUSH1 0x2 ADD SLOAD CALLER PUSH1 0x0 SWAP1 DUP2 MSTORE PUSH1 0x23 PUSH1 0x20 SWAP1 DUP2 MSTORE PUSH1 0x40 DUP1 DUP4 KECCAK256 PUSH1 0xFF DUP8 AND DUP5 MSTORE SWAP1 SWAP2 MSTORE SWAP1 KECCAK256 SLOAD GT ISZERO PUSH2 0x11F7 JUMPI PUSH1 0x40 MLOAD PUSH3 0x461BCD PUSH1 0xE5 SHL DUP2 MSTORE PUSH1 0x20 PUSH1 0x4 DUP3 ADD MSTORE PUSH1 0x1B PUSH1 0x24 DUP3 ADD MSTORE PUSH32 0x4E657720616D6F756E742061626F76652075736572206C696D69740000000000 PUSH1 0x44 DUP3 ADD MSTORE PUSH1 0x64 ADD PUSH2 0x93C JUMP JUMPDEST PUSH2 0x1227 DUP2 PUSH1 0x17 DUP5 PUSH1 0xFF AND PUSH1 0x2 DUP2 LT PUSH2 0x1211 JUMPI PUSH2 0x1211 PUSH2 0x3B82 JUMP JUMPDEST PUSH1 0x6 MUL ADD PUSH1 0x4 ADD SLOAD PUSH2 0x2BC1 SWAP1 SWAP2 SWAP1 PUSH4 0xFFFFFFFF AND JUMP JUMPDEST PUSH1 0x17 DUP4 PUSH1 0xFF AND PUSH1 0x2 DUP2 LT PUSH2 0x123D JUMPI PUSH2 0x123D PUSH2 0x3B82 JUMP JUMPDEST PUSH1 0x6 MUL ADD PUSH1 0x4 ADD DUP2 SWAP1 SSTORE POP PUSH1 0x17 DUP3 PUSH1 0xFF AND PUSH1 0x2 DUP2 LT PUSH2 0x125E JUMPI PUSH2 0x125E PUSH2 0x3B82 JUMP JUMPDEST PUSH1 0x6 MUL ADD SLOAD PUSH1 0x17 PUSH1 0xFF DUP5 AND PUSH1 0x2 DUP2 LT PUSH2 0x1279 JUMPI PUSH2 0x1279 PUSH2 0x3B82 JUMP JUMPDEST PUSH1 0x6 MUL ADD PUSH1 0x4 ADD SLOAD GT ISZERO PUSH2 0x12CF JUMPI PUSH1 0x40 MLOAD PUSH3 0x461BCD PUSH1 0xE5 SHL DUP2 MSTORE PUSH1 0x20 PUSH1 0x4 DUP3 ADD MSTORE PUSH1 0x19 PUSH1 0x24 DUP3 ADD MSTORE PUSH32 0x546869732077696C6C2045786365656420506F6F6C2043617000000000000000 PUSH1 0x44 DUP3 ADD MSTORE PUSH1 0x64 ADD PUSH2 0x93C JUMP JUMPDEST PUSH1 0x40 MLOAD DUP2 DUP2 MSTORE PUSH1 0xFF DUP4 AND SWAP1 CALLER SWAP1 PUSH32 0xF763E680FCE25A97FFD55D8B705370C98B47B2285F7B3B2900C43606FD418045 SWAP1 PUSH1 0x20 ADD PUSH1 0x40 MLOAD DUP1 SWAP2 SUB SWAP1 LOG3 POP POP PUSH1 0x1 PUSH1 0x0 SSTORE JUMP JUMPDEST PUSH1 0x0 PUSH1 0x17 DUP3 PUSH1 0x2 DUP2 LT PUSH2 0x1327 JUMPI PUSH2 0x1327 PUSH2 0x3B82 JUMP JUMPDEST PUSH1 0x6 MUL ADD PUSH1 0x3 ADD SLOAD PUSH1 0xFF AND PUSH2 0x133E JUMPI POP PUSH1 0x0 SWAP2 SWAP1 POP JUMP JUMPDEST PUSH2 0x1379 PUSH1 0x17 DUP4 PUSH1 0x2 DUP2 LT PUSH2 0x1354 JUMPI PUSH2 0x1354 PUSH2 0x3B82 JUMP JUMPDEST PUSH1 0x6 MUL ADD PUSH1 0x4 ADD SLOAD PUSH1 0x17 DUP5 PUSH1 0x2 DUP2 LT PUSH2 0x136F JUMPI PUSH2 0x136F PUSH2 0x3B82 JUMP JUMPDEST PUSH1 0x6 MUL ADD SLOAD PUSH2 0x2C96 JUMP JUMPDEST SWAP3 SWAP2 POP POP JUMP JUMPDEST PUSH1 0x1 SLOAD PUSH1 0x1 PUSH1 0x1 PUSH1 0xA0 SHL SUB AND CALLER EQ PUSH2 0x13A9 JUMPI PUSH1 0x40 MLOAD PUSH3 0x461BCD PUSH1 0xE5 SHL DUP2 MSTORE PUSH1 0x4 ADD PUSH2 0x93C SWAP1 PUSH2 0x3887 JUMP JUMPDEST PUSH2 0x13BD PUSH1 0x1 PUSH1 0x1 PUSH1 0xA0 SHL SUB DUP4 AND CALLER DUP4 PUSH2 0x295F JUMP JUMPDEST PUSH1 0x40 DUP1 MLOAD PUSH1 0x1 PUSH1 0x1 PUSH1 0xA0 SHL SUB DUP5 AND DUP2 MSTORE PUSH1 0x20 DUP2 ADD DUP4 SWAP1 MSTORE PUSH32 0x74545154AAC348A3EAC92596BD1971957CA94795F4E954EC5F613B55FAB78129 SWAP2 ADD JUMPDEST PUSH1 0x40 MLOAD DUP1 SWAP2 SUB SWAP1 LOG1 POP POP JUMP JUMPDEST PUSH1 0x1 SLOAD PUSH1 0x1 PUSH1 0x1 PUSH1 0xA0 SHL SUB AND CALLER EQ PUSH2 0x142E JUMPI PUSH1 0x40 MLOAD PUSH3 0x461BCD PUSH1 0xE5 SHL DUP2 MSTORE PUSH1 0x4 ADD PUSH2 0x93C SWAP1 PUSH2 0x3887 JUMP JUMPDEST PUSH1 0x5 SLOAD TIMESTAMP LT PUSH2 0x1471 JUMPI PUSH1 0x40 MLOAD PUSH3 0x461BCD PUSH1 0xE5 SHL DUP2 MSTORE PUSH1 0x20 PUSH1 0x4 DUP3 ADD MSTORE PUSH1 0xF PUSH1 0x24 DUP3 ADD MSTORE PUSH15 0x125193C81A185CC81CDD185C9D1959 PUSH1 0x8A SHL PUSH1 0x44 DUP3 ADD MSTORE PUSH1 0x64 ADD PUSH2 0x93C JUMP JUMPDEST PUSH1 0x2 PUSH1 0xFF DUP3 AND LT PUSH2 0x14BA JUMPI PUSH1 0x40 MLOAD PUSH3 0x461BCD PUSH1 0xE5 SHL DUP2 MSTORE PUSH1 0x20 PUSH1 0x4 DUP3 ADD MSTORE PUSH1 0x13 PUSH1 0x24 DUP3 ADD MSTORE PUSH19 0x141BDBDB08191BD95CC81B9BDD08195E1A5CDD PUSH1 0x6A SHL PUSH1 0x44 DUP3 ADD MSTORE PUSH1 0x64 ADD PUSH2 0x93C JUMP JUMPDEST DUP5 PUSH1 0x17 DUP3 PUSH1 0xFF AND PUSH1 0x2 DUP2 LT PUSH2 0x14D1 JUMPI PUSH2 0x14D1 PUSH2 0x3B82 JUMP JUMPDEST PUSH1 0x6 MUL ADD PUSH1 0x1 ADD DUP2 SWAP1 SSTORE POP DUP4 PUSH1 0x17 DUP3 PUSH1 0xFF AND PUSH1 0x2 DUP2 LT PUSH2 0x14F3 JUMPI PUSH2 0x14F3 PUSH2 0x3B82 JUMP JUMPDEST PUSH1 0x6 MUL ADD SSTORE DUP3 PUSH1 0x17 PUSH1 0xFF DUP4 AND PUSH1 0x2 DUP2 LT PUSH2 0x150F JUMPI PUSH2 0x150F PUSH2 0x3B82 JUMP JUMPDEST PUSH1 0x6 MUL ADD PUSH1 0x2 ADD DUP2 SWAP1 SSTORE POP DUP2 PUSH1 0x17 DUP3 PUSH1 0xFF AND PUSH1 0x2 DUP2 LT PUSH2 0x1531 JUMPI PUSH2 0x1531 PUSH2 0x3B82 JUMP JUMPDEST PUSH1 0x6 MUL ADD PUSH1 0x3 ADD DUP1 SLOAD PUSH1 0xFF NOT AND SWAP2 ISZERO ISZERO SWAP2 SWAP1 SWAP2 OR SWAP1 SSTORE PUSH1 0x40 DUP1 MLOAD DUP7 DUP2 MSTORE PUSH1 0x20 DUP2 ADD DUP7 SWAP1 MSTORE PUSH1 0xFF DUP4 AND SWAP2 DUP2 ADD SWAP2 SWAP1 SWAP2 MSTORE PUSH32 0xDDAF243A142670BE60C19FF7116B5D8B124717B29BB4CC03CEAD42161614105B SWAP1 PUSH1 0x60 ADD PUSH1 0x40 MLOAD DUP1 SWAP2 SUB SWAP1 LOG1 POP POP POP POP POP JUMP JUMPDEST PUSH1 0x0 DUP1 PUSH1 0x0 DUP1 PUSH1 0x0 DUP1 PUSH1 0x17 DUP8 PUSH1 0x2 DUP2 LT PUSH2 0x15B0 JUMPI PUSH2 0x15B0 PUSH2 0x3B82 JUMP JUMPDEST PUSH1 0x6 MUL ADD SLOAD PUSH1 0x17 DUP9 PUSH1 0x2 DUP2 LT PUSH2 0x15C8 JUMPI PUSH2 0x15C8 PUSH2 0x3B82 JUMP JUMPDEST PUSH1 0x6 MUL ADD PUSH1 0x1 ADD SLOAD PUSH1 0x17 DUP10 PUSH1 0x2 DUP2 LT PUSH2 0x15E3 JUMPI PUSH2 0x15E3 PUSH2 0x3B82 JUMP JUMPDEST PUSH1 0x6 MUL ADD PUSH1 0x2 ADD SLOAD PUSH1 0x17 DUP11 PUSH1 0x2 DUP2 LT PUSH2 0x15FE JUMPI PUSH2 0x15FE PUSH2 0x3B82 JUMP JUMPDEST PUSH1 0x6 MUL ADD PUSH1 0x3 ADD SLOAD PUSH1 0xFF AND PUSH1 0x17 DUP12 PUSH1 0x2 DUP2 LT PUSH2 0x161C JUMPI PUSH2 0x161C PUSH2 0x3B82 JUMP JUMPDEST PUSH1 0x6 MUL ADD PUSH1 0x4 ADD SLOAD PUSH1 0x17 DUP13 PUSH1 0x2 DUP2 LT PUSH2 0x1637 JUMPI PUSH2 0x1637 PUSH2 0x3B82 JUMP JUMPDEST PUSH1 0x6 MUL ADD PUSH1 0x5 ADD SLOAD SWAP6 POP SWAP6 POP SWAP6 POP SWAP6 POP SWAP6 POP SWAP6 POP SWAP2 SWAP4 SWAP6 POP SWAP2 SWAP4 SWAP6 JUMP JUMPDEST PUSH1 0x60 DUP1 PUSH1 0x0 DUP4 PUSH8 0xFFFFFFFFFFFFFFFF DUP2 GT ISZERO PUSH2 0x1672 JUMPI PUSH2 0x1672 PUSH2 0x3B98 JUMP JUMPDEST PUSH1 0x40 MLOAD SWAP1 DUP1 DUP3 MSTORE DUP1 PUSH1 0x20 MUL PUSH1 0x20 ADD DUP3 ADD PUSH1 0x40 MSTORE DUP1 ISZERO PUSH2 0x169B JUMPI DUP2 PUSH1 0x20 ADD PUSH1 0x20 DUP3 MUL DUP1 CALLDATASIZE DUP4 CALLDATACOPY ADD SWAP1 POP JUMPDEST POP SWAP1 POP PUSH1 0x0 DUP5 PUSH8 0xFFFFFFFFFFFFFFFF DUP2 GT ISZERO PUSH2 0x16B9 JUMPI PUSH2 0x16B9 PUSH2 0x3B98 JUMP JUMPDEST PUSH1 0x40 MLOAD SWAP1 DUP1 DUP3 MSTORE DUP1 PUSH1 0x20 MUL PUSH1 0x20 ADD DUP3 ADD PUSH1 0x40 MSTORE DUP1 ISZERO PUSH2 0x16E2 JUMPI DUP2 PUSH1 0x20 ADD PUSH1 0x20 DUP3 MUL DUP1 CALLDATASIZE DUP4 CALLDATACOPY ADD SWAP1 POP JUMPDEST POP SWAP1 POP PUSH1 0x0 JUMPDEST PUSH1 0x2 PUSH1 0xFF DUP3 AND LT ISZERO PUSH2 0x17A1 JUMPI PUSH1 0x1 PUSH1 0x1 PUSH1 0xA0 SHL SUB DUP9 AND PUSH1 0x0 SWAP1 DUP2 MSTORE PUSH1 0x23 PUSH1 0x20 SWAP1 DUP2 MSTORE PUSH1 0x40 DUP1 DUP4 KECCAK256 PUSH1 0xFF DUP6 AND DUP1 DUP6 MSTORE SWAP3 MSTORE SWAP1 SWAP2 KECCAK256 SLOAD DUP5 MLOAD SWAP1 SWAP2 DUP6 SWAP2 DUP2 LT PUSH2 0x1730 JUMPI PUSH2 0x1730 PUSH2 0x3B82 JUMP JUMPDEST PUSH1 0x20 SWAP1 DUP2 MUL SWAP2 SWAP1 SWAP2 ADD DUP2 ADD SWAP2 SWAP1 SWAP2 MSTORE PUSH1 0x1 PUSH1 0x1 PUSH1 0xA0 SHL SUB DUP10 AND PUSH1 0x0 SWAP1 DUP2 MSTORE PUSH1 0x23 DUP3 MSTORE PUSH1 0x40 DUP1 DUP3 KECCAK256 PUSH1 0xFF DUP1 DUP7 AND DUP1 DUP6 MSTORE SWAP2 SWAP1 SWAP5 MSTORE SWAP2 KECCAK256 PUSH1 0x1 ADD SLOAD DUP5 MLOAD SWAP3 AND SWAP2 DUP5 SWAP2 SWAP1 DUP2 LT PUSH2 0x177F JUMPI PUSH2 0x177F PUSH2 0x3B82 JUMP JUMPDEST SWAP2 ISZERO ISZERO PUSH1 0x20 SWAP3 DUP4 MUL SWAP2 SWAP1 SWAP2 ADD SWAP1 SWAP2 ADD MSTORE DUP1 PUSH2 0x1799 DUP2 PUSH2 0x3B4C JUMP JUMPDEST SWAP2 POP POP PUSH2 0x16E8 JUMP JUMPDEST POP SWAP1 SWAP7 SWAP1 SWAP6 POP SWAP4 POP POP POP POP JUMP JUMPDEST PUSH1 0x1 SLOAD PUSH1 0x1 PUSH1 0x1 PUSH1 0xA0 SHL SUB AND CALLER EQ PUSH2 0x17D8 JUMPI PUSH1 0x40 MLOAD PUSH3 0x461BCD PUSH1 0xE5 SHL DUP2 MSTORE PUSH1 0x4 ADD PUSH2 0x93C SWAP1 PUSH2 0x3887 JUMP JUMPDEST PUSH1 0x6 SLOAD TIMESTAMP LT PUSH2 0x17F9 JUMPI PUSH1 0x40 MLOAD PUSH3 0x461BCD PUSH1 0xE5 SHL DUP2 MSTORE PUSH1 0x4 ADD PUSH2 0x93C SWAP1 PUSH2 0x3921 JUMP JUMPDEST PUSH1 0x8 SSTORE JUMP JUMPDEST PUSH1 0x4 SLOAD PUSH1 0x1 PUSH1 0x1 PUSH1 0xA0 SHL SUB AND CALLER EQ DUP1 PUSH2 0x1821 JUMPI POP PUSH1 0x1 SLOAD PUSH1 0x1 PUSH1 0x1 PUSH1 0xA0 SHL SUB AND CALLER EQ JUMPDEST PUSH2 0x1860 JUMPI PUSH1 0x40 MLOAD PUSH3 0x461BCD PUSH1 0xE5 SHL DUP2 MSTORE PUSH1 0x20 PUSH1 0x4 DUP3 ADD MSTORE PUSH1 0x10 PUSH1 0x24 DUP3 ADD MSTORE PUSH16 0x4D757374206861766520616363657373 PUSH1 0x80 SHL PUSH1 0x44 DUP3 ADD MSTORE PUSH1 0x64 ADD PUSH2 0x93C JUMP JUMPDEST DUP3 MLOAD PUSH2 0x1873 SWAP1 PUSH1 0x10 SWAP1 PUSH1 0x20 DUP7 ADD SWAP1 PUSH2 0x32D0 JUMP JUMPDEST POP DUP2 MLOAD PUSH2 0x1887 SWAP1 PUSH1 0x11 SWAP1 PUSH1 0x20 DUP6 ADD SWAP1 PUSH2 0x32D0 JUMP JUMPDEST POP DUP1 MLOAD PUSH2 0x189B SWAP1 PUSH1 0x12 SWAP1 PUSH1 0x20 DUP5 ADD SWAP1 PUSH2 0x32D0 JUMP JUMPDEST POP POP POP POP JUMP JUMPDEST PUSH1 0x1 SLOAD PUSH1 0x1 PUSH1 0x1 PUSH1 0xA0 SHL SUB AND CALLER EQ PUSH2 0x18CB JUMPI PUSH1 0x40 MLOAD PUSH3 0x461BCD PUSH1 0xE5 SHL DUP2 MSTORE PUSH1 0x4 ADD PUSH2 0x93C SWAP1 PUSH2 0x3887 JUMP JUMPDEST PUSH1 0x6 SLOAD TIMESTAMP LT PUSH2 0x18EC JUMPI PUSH1 0x40 MLOAD PUSH3 0x461BCD PUSH1 0xE5 SHL DUP2 MSTORE PUSH1 0x4 ADD PUSH2 0x93C SWAP1 PUSH2 0x3921 JUMP JUMPDEST PUSH1 0x16 DUP2 SWAP1 SSTORE PUSH1 0x14 DUP2 GT ISZERO PUSH2 0x1930 JUMPI PUSH1 0x40 MLOAD PUSH3 0x461BCD PUSH1 0xE5 SHL DUP2 MSTORE PUSH1 0x20 PUSH1 0x4 DUP3 ADD MSTORE PUSH1 0xB PUSH1 0x24 DUP3 ADD MSTORE PUSH11 0x8CCACA40E8DE4090D2CED PUSH1 0xAB SHL PUSH1 0x44 DUP3 ADD MSTORE PUSH1 0x64 ADD PUSH2 0x93C JUMP JUMPDEST POP JUMP JUMPDEST PUSH1 0x12 DUP1 SLOAD PUSH2 0x1940 SWAP1 PUSH2 0x3AF6 JUMP JUMPDEST DUP1 PUSH1 0x1F ADD PUSH1 0x20 DUP1 SWAP2 DIV MUL PUSH1 0x20 ADD PUSH1 0x40 MLOAD SWAP1 DUP2 ADD PUSH1 0x40 MSTORE DUP1 SWAP3 SWAP2 SWAP1 DUP2 DUP2 MSTORE PUSH1 0x20 ADD DUP3 DUP1 SLOAD PUSH2 0x196C SWAP1 PUSH2 0x3AF6 JUMP JUMPDEST DUP1 ISZERO PUSH2 0x19B9 JUMPI DUP1 PUSH1 0x1F LT PUSH2 0x198E JUMPI PUSH2 0x100 DUP1 DUP4 SLOAD DIV MUL DUP4 MSTORE SWAP2 PUSH1 0x20 ADD SWAP2 PUSH2 0x19B9 JUMP JUMPDEST DUP3 ADD SWAP2 SWAP1 PUSH1 0x0 MSTORE PUSH1 0x20 PUSH1 0x0 KECCAK256 SWAP1 JUMPDEST DUP2 SLOAD DUP2 MSTORE SWAP1 PUSH1 0x1 ADD SWAP1 PUSH1 0x20 ADD DUP1 DUP4 GT PUSH2 0x199C JUMPI DUP3 SWAP1 SUB PUSH1 0x1F AND DUP3 ADD SWAP2 JUMPDEST POP POP POP POP POP DUP2 JUMP JUMPDEST PUSH1 0x10 DUP1 SLOAD PUSH2 0x1940 SWAP1 PUSH2 0x3AF6 JUMP JUMPDEST PUSH1 0x1 SLOAD PUSH1 0x1 PUSH1 0x1 PUSH1 0xA0 SHL SUB AND CALLER EQ PUSH2 0x19F8 JUMPI PUSH1 0x40 MLOAD PUSH3 0x461BCD PUSH1 0xE5 SHL DUP2 MSTORE PUSH1 0x4 ADD PUSH2 0x93C SWAP1 PUSH2 0x3887 JUMP JUMPDEST PUSH2 0x1A02 PUSH1 0x0 PUSH2 0x2D09 JUMP JUMPDEST JUMP JUMPDEST PUSH1 0x2 PUSH1 0x0 SLOAD EQ ISZERO PUSH2 0x1A27 JUMPI PUSH1 0x40 MLOAD PUSH3 0x461BCD PUSH1 0xE5 SHL DUP2 MSTORE PUSH1 0x4 ADD PUSH2 0x93C SWAP1 PUSH2 0x38EA JUMP JUMPDEST PUSH1 0x2 PUSH1 0x0 SSTORE CALLER EXTCODESIZE ISZERO PUSH2 0x1A4B JUMPI PUSH1 0x40 MLOAD PUSH3 0x461BCD PUSH1 0xE5 SHL DUP2 MSTORE PUSH1 0x4 ADD PUSH2 0x93C SWAP1 PUSH2 0x38BC JUMP JUMPDEST CALLER PUSH1 0x0 SWAP1 DUP2 MSTORE PUSH1 0x23 PUSH1 0x20 SWAP1 DUP2 MSTORE PUSH1 0x40 DUP1 DUP4 KECCAK256 PUSH1 0xFF DUP6 AND DUP1 DUP6 MSTORE SWAP3 MSTORE SWAP1 SWAP2 KECCAK256 SLOAD SWAP1 PUSH1 0x2 GT PUSH2 0x1A8A JUMPI PUSH1 0x40 MLOAD PUSH3 0x461BCD PUSH1 0xE5 SHL DUP2 MSTORE PUSH1 0x4 ADD PUSH2 0x93C SWAP1 PUSH2 0x385C JUMP JUMPDEST PUSH1 0x0 PUSH1 0x17 DUP4 PUSH1 0xFF AND PUSH1 0x2 DUP2 LT PUSH2 0x1AA2 JUMPI PUSH2 0x1AA2 PUSH2 0x3B82 JUMP JUMPDEST PUSH1 0x6 MUL ADD PUSH1 0x1 ADD SLOAD GT DUP1 ISZERO PUSH2 0x1AD1 JUMPI POP PUSH1 0x0 PUSH1 0x17 DUP4 PUSH1 0xFF AND PUSH1 0x2 DUP2 LT PUSH2 0x1ACA JUMPI PUSH2 0x1ACA PUSH2 0x3B82 JUMP JUMPDEST PUSH1 0x6 MUL ADD SLOAD GT JUMPDEST PUSH2 0x1B0C JUMPI PUSH1 0x40 MLOAD PUSH3 0x461BCD PUSH1 0xE5 SHL DUP2 MSTORE PUSH1 0x20 PUSH1 0x4 DUP3 ADD MSTORE PUSH1 0xC PUSH1 0x24 DUP3 ADD MSTORE PUSH12 0x141BDBDB081B9BDD081CD95D PUSH1 0xA2 SHL PUSH1 0x44 DUP3 ADD MSTORE PUSH1 0x64 ADD PUSH2 0x93C JUMP JUMPDEST PUSH1 0x5 SLOAD TIMESTAMP GT PUSH2 0x1B49 JUMPI PUSH1 0x40 MLOAD PUSH3 0x461BCD PUSH1 0xE5 SHL DUP2 MSTORE PUSH1 0x20 PUSH1 0x4 DUP3 ADD MSTORE PUSH1 0x9 PUSH1 0x24 DUP3 ADD MSTORE PUSH9 0x546F6F206561726C79 PUSH1 0xB8 SHL PUSH1 0x44 DUP3 ADD MSTORE PUSH1 0x64 ADD PUSH2 0x93C JUMP JUMPDEST PUSH1 0x6 SLOAD TIMESTAMP LT PUSH2 0x1B85 JUMPI PUSH1 0x40 MLOAD PUSH3 0x461BCD PUSH1 0xE5 SHL DUP2 MSTORE PUSH1 0x20 PUSH1 0x4 DUP3 ADD MSTORE PUSH1 0x8 PUSH1 0x24 DUP3 ADD MSTORE PUSH8 0x546F6F206C617465 PUSH1 0xC0 SHL PUSH1 0x44 DUP3 ADD MSTORE PUSH1 0x64 ADD PUSH2 0x93C JUMP JUMPDEST PUSH1 0x0 DUP2 GT PUSH2 0x1BCA JUMPI PUSH1 0x40 MLOAD PUSH3 0x461BCD PUSH1 0xE5 SHL DUP2 MSTORE PUSH1 0x20 PUSH1 0x4 DUP3 ADD MSTORE PUSH1 0x12 PUSH1 0x24 DUP3 ADD MSTORE PUSH18 0x416D6F756E74206D757374206265203E203 PUSH1 0x74 SHL PUSH1 0x44 DUP3 ADD MSTORE PUSH1 0x64 ADD PUSH2 0x93C JUMP JUMPDEST ADDRESS BALANCE DUP2 GT ISZERO PUSH2 0x1C29 JUMPI PUSH1 0x40 MLOAD PUSH3 0x461BCD PUSH1 0xE5 SHL DUP2 MSTORE PUSH1 0x20 PUSH1 0x4 DUP3 ADD MSTORE PUSH1 0x25 PUSH1 0x24 DUP3 ADD MSTORE PUSH32 0x436F6E747261637420646F6573206E6F74206861766520656E6F756768204261 PUSH1 0x44 DUP3 ADD MSTORE PUSH5 0x6C616E6365 PUSH1 0xD8 SHL PUSH1 0x64 DUP3 ADD MSTORE PUSH1 0x84 ADD PUSH2 0x93C JUMP JUMPDEST CALLER PUSH1 0x0 SWAP1 DUP2 MSTORE PUSH1 0x23 PUSH1 0x20 SWAP1 DUP2 MSTORE PUSH1 0x40 DUP1 DUP4 KECCAK256 PUSH1 0xFF DUP7 AND DUP5 MSTORE SWAP1 SWAP2 MSTORE DUP2 KECCAK256 DUP2 SWAP1 SSTORE PUSH1 0x13 DUP1 SLOAD SWAP2 PUSH2 0x1C57 DUP4 PUSH2 0x3ADF JUMP JUMPDEST SWAP2 SWAP1 POP SSTORE POP DUP1 PUSH1 0x17 DUP4 PUSH1 0xFF AND PUSH1 0x2 DUP2 LT PUSH2 0x1C73 JUMPI PUSH2 0x1C73 PUSH2 0x3B82 JUMP JUMPDEST PUSH1 0x6 MUL ADD PUSH1 0x4 ADD PUSH1 0x0 DUP3 DUP3 SLOAD PUSH2 0x1C89 SWAP2 SWAP1 PUSH2 0x3A9C JUMP JUMPDEST SWAP1 SWAP2 SSTORE POP POP PUSH1 0x16 SLOAD PUSH1 0x0 SWAP1 PUSH2 0x3E8 SWAP1 PUSH2 0x1CA2 SWAP1 DUP5 PUSH2 0x3A7D JUMP JUMPDEST PUSH2 0x1CAC SWAP2 SWAP1 PUSH2 0x3970 JUMP JUMPDEST PUSH1 0x2 SLOAD SWAP1 SWAP2 POP PUSH2 0x1CC5 SWAP1 PUSH1 0x1 PUSH1 0x1 PUSH1 0xA0 SHL SUB AND DUP3 PUSH2 0x2BCD JUMP JUMPDEST PUSH1 0x0 PUSH2 0x1CD1 DUP3 DUP5 PUSH2 0x3A9C JUMP JUMPDEST SWAP1 POP PUSH2 0x1CDD CALLER DUP3 PUSH2 0x2BCD JUMP JUMPDEST POP POP PUSH1 0x1 PUSH1 0x0 SSTORE POP POP JUMP JUMPDEST PUSH1 0x11 DUP1 SLOAD PUSH2 0x1940 SWAP1 PUSH2 0x3AF6 JUMP JUMPDEST PUSH1 0x1 SLOAD PUSH1 0x1 PUSH1 0x1 PUSH1 0xA0 SHL SUB AND CALLER EQ PUSH2 0x1D1F JUMPI PUSH1 0x40 MLOAD PUSH3 0x461BCD PUSH1 0xE5 SHL DUP2 MSTORE PUSH1 0x4 ADD PUSH2 0x93C SWAP1 PUSH2 0x3887 JUMP JUMPDEST PUSH1 0x5 SLOAD TIMESTAMP LT PUSH2 0x1D62 JUMPI PUSH1 0x40 MLOAD PUSH3 0x461BCD PUSH1 0xE5 SHL DUP2 MSTORE PUSH1 0x20 PUSH1 0x4 DUP3 ADD MSTORE PUSH1 0xF PUSH1 0x24 DUP3 ADD MSTORE PUSH15 0x125193C81A185CC81CDD185C9D1959 PUSH1 0x8A SHL PUSH1 0x44 DUP3 ADD MSTORE PUSH1 0x64 ADD PUSH2 0x93C JUMP JUMPDEST DUP1 DUP3 LT PUSH2 0x1DC8 JUMPI PUSH1 0x40 MLOAD PUSH3 0x461BCD PUSH1 0xE5 SHL DUP2 MSTORE PUSH1 0x20 PUSH1 0x4 DUP3 ADD MSTORE PUSH1 0x2E PUSH1 0x24 DUP3 ADD MSTORE PUSH32 0x4E6577207374617274426C6F636B206D757374206265206C6F77657220746861 PUSH1 0x44 DUP3 ADD MSTORE PUSH14 0x6E206E657720656E64426C6F636B PUSH1 0x90 SHL PUSH1 0x64 DUP3 ADD MSTORE PUSH1 0x84 ADD PUSH2 0x93C JUMP JUMPDEST DUP2 TIMESTAMP LT PUSH2 0x1E30 JUMPI PUSH1 0x40 MLOAD PUSH3 0x461BCD PUSH1 0xE5 SHL DUP2 MSTORE PUSH1 0x20 PUSH1 0x4 DUP3 ADD MSTORE PUSH1 0x30 PUSH1 0x24 DUP3 ADD MSTORE PUSH32 0x4E6577207374617274426C6F636B206D75737420626520686967686572207468 PUSH1 0x44 DUP3 ADD MSTORE PUSH16 0x616E2063757272656E7420626C6F636B PUSH1 0x80 SHL PUSH1 0x64 DUP3 ADD MSTORE PUSH1 0x84 ADD PUSH2 0x93C JUMP JUMPDEST PUSH1 0x5 DUP3 SWAP1 SSTORE PUSH1 0x6 DUP2 SWAP1 SSTORE PUSH1 0x40 DUP1 MLOAD DUP4 DUP2 MSTORE PUSH1 0x20 DUP2 ADD DUP4 SWAP1 MSTORE PUSH32 0x7CD0AB87D19036F3DFADADB232C78AA4879DDA3F0C994A9D637532410EE2CE06 SWAP2 ADD PUSH2 0x13F8 JUMP JUMPDEST PUSH1 0x4 SLOAD PUSH1 0x1 PUSH1 0x1 PUSH1 0xA0 SHL SUB AND CALLER EQ DUP1 PUSH2 0x1E93 JUMPI POP PUSH1 0x1 SLOAD PUSH1 0x1 PUSH1 0x1 PUSH1 0xA0 SHL SUB AND CALLER EQ JUMPDEST PUSH2 0x1EDF JUMPI PUSH1 0x40 MLOAD PUSH3 0x461BCD PUSH1 0xE5 SHL DUP2 MSTORE PUSH1 0x20 PUSH1 0x4 DUP3 ADD DUP2 SWAP1 MSTORE PUSH1 0x24 DUP3 ADD MSTORE PUSH32 0x4D757374206265204465762057616C6C6574206F7220436F6E74726F6C6C6572 PUSH1 0x44 DUP3 ADD MSTORE PUSH1 0x64 ADD PUSH2 0x93C JUMP JUMPDEST PUSH1 0x6 SLOAD TIMESTAMP GT PUSH2 0x1F1B JUMPI PUSH1 0x40 MLOAD PUSH3 0x461BCD PUSH1 0xE5 SHL DUP2 MSTORE PUSH1 0x20 PUSH1 0x4 DUP3 ADD MSTORE PUSH1 0x8 PUSH1 0x24 DUP3 ADD MSTORE PUSH8 0x3737BA1027BB32B9 PUSH1 0xC1 SHL PUSH1 0x44 DUP3 ADD MSTORE PUSH1 0x64 ADD PUSH2 0x93C JUMP JUMPDEST PUSH1 0x3 SLOAD PUSH1 0x1 PUSH1 0xA0 SHL SWAP1 DIV PUSH1 0xFF AND ISZERO PUSH2 0x1F69 JUMPI PUSH1 0x40 MLOAD PUSH3 0x461BCD PUSH1 0xE5 SHL DUP2 MSTORE PUSH1 0x20 PUSH1 0x4 DUP3 ADD MSTORE PUSH1 0x11 PUSH1 0x24 DUP3 ADD MSTORE PUSH17 0x105B1C9958591E48199A5B985B1A5E9959 PUSH1 0x7A SHL PUSH1 0x44 DUP3 ADD MSTORE PUSH1 0x64 ADD PUSH2 0x93C JUMP JUMPDEST PUSH1 0x1B SLOAD PUSH1 0x3 SLOAD PUSH1 0x40 MLOAD PUSH4 0x70A08231 PUSH1 0xE0 SHL DUP2 MSTORE ADDRESS PUSH1 0x4 DUP3 ADD MSTORE PUSH1 0x0 SWAP2 PUSH1 0x1 PUSH1 0x1 PUSH1 0xA0 SHL SUB AND SWAP1 PUSH4 0x70A08231 SWAP1 PUSH1 0x24 ADD PUSH1 0x20 PUSH1 0x40 MLOAD DUP1 DUP4 SUB DUP2 DUP7 DUP1 EXTCODESIZE ISZERO DUP1 ISZERO PUSH2 0x1FB0 JUMPI PUSH1 0x0 DUP1 REVERT JUMPDEST POP GAS STATICCALL ISZERO DUP1 ISZERO PUSH2 0x1FC4 JUMPI RETURNDATASIZE PUSH1 0x0 DUP1 RETURNDATACOPY RETURNDATASIZE PUSH1 0x0 REVERT JUMPDEST POP POP POP POP PUSH1 0x40 MLOAD RETURNDATASIZE PUSH1 0x1F NOT PUSH1 0x1F DUP3 ADD AND DUP3 ADD DUP1 PUSH1 0x40 MSTORE POP DUP2 ADD SWAP1 PUSH2 0x1FE8 SWAP2 SWAP1 PUSH2 0x35C0 JUMP JUMPDEST PUSH1 0x8 SLOAD SWAP1 SWAP2 POP ADDRESS BALANCE SWAP1 DUP4 GT ISZERO PUSH2 0x20DF JUMPI PUSH1 0x17 SLOAD PUSH1 0x1B SLOAD PUSH1 0x18 SLOAD PUSH1 0x0 SWAP3 SWAP2 PUSH2 0x200E SWAP2 PUSH2 0x3A7D JUMP JUMPDEST PUSH2 0x2018 SWAP2 SWAP1 PUSH2 0x3970 JUMP JUMPDEST SWAP1 POP PUSH1 0x0 PUSH2 0x3E8 PUSH1 0x16 SLOAD DUP5 PUSH2 0x202D SWAP2 SWAP1 PUSH2 0x3A7D JUMP JUMPDEST PUSH2 0x2037 SWAP2 SWAP1 PUSH2 0x3970 JUMP JUMPDEST PUSH1 0x2 SLOAD SWAP1 SWAP2 POP PUSH2 0x2050 SWAP1 PUSH1 0x1 PUSH1 0x1 PUSH1 0xA0 SHL SUB AND DUP3 PUSH2 0x2BCD JUMP JUMPDEST PUSH1 0x9 SLOAD PUSH1 0x0 SWAP1 ISZERO PUSH2 0x2066 JUMPI PUSH2 0x2063 PUSH2 0x2D5B JUMP JUMPDEST SWAP1 POP JUMPDEST PUSH1 0x18 SLOAD PUSH1 0x0 SWAP1 DUP5 LT PUSH2 0x2079 JUMPI PUSH1 0x0 PUSH2 0x2087 JUMP JUMPDEST PUSH1 0x18 SLOAD PUSH2 0x2087 SWAP1 DUP6 SWAP1 PUSH2 0x3A9C JUMP JUMPDEST SWAP1 POP PUSH2 0x2093 DUP3 DUP3 PUSH2 0x3958 JUMP JUMPDEST SWAP1 POP DUP1 ISZERO PUSH2 0x20B8 JUMPI PUSH1 0x4 SLOAD PUSH1 0x3 SLOAD PUSH2 0x20B8 SWAP2 PUSH1 0x1 PUSH1 0x1 PUSH1 0xA0 SHL SUB SWAP2 DUP3 AND SWAP2 AND DUP4 PUSH2 0x295F JUMP JUMPDEST ADDRESS BALANCE ISZERO PUSH2 0x20D6 JUMPI PUSH1 0x4 SLOAD PUSH2 0x20D6 SWAP1 PUSH1 0x1 PUSH1 0x1 PUSH1 0xA0 SHL SUB AND ADDRESS BALANCE PUSH2 0x2BCD JUMP JUMPDEST POP POP POP POP PUSH2 0x20FC JUMP JUMPDEST PUSH1 0x4 SLOAD PUSH1 0x3 SLOAD PUSH2 0x20FC SWAP2 PUSH1 0x1 PUSH1 0x1 PUSH1 0xA0 SHL SUB SWAP2 DUP3 AND SWAP2 AND DUP5 PUSH2 0x295F JUMP JUMPDEST POP POP PUSH1 0x3 DUP1 SLOAD PUSH1 0xFF PUSH1 0xA0 SHL NOT AND PUSH1 0x1 PUSH1 0xA0 SHL OR SWAP1 SSTORE POP JUMP JUMPDEST PUSH1 0x1 SLOAD PUSH1 0x1 PUSH1 0x1 PUSH1 0xA0 SHL SUB AND CALLER EQ PUSH2 0x213E JUMPI PUSH1 0x40 MLOAD PUSH3 0x461BCD PUSH1 0xE5 SHL DUP2 MSTORE PUSH1 0x4 ADD PUSH2 0x93C SWAP1 PUSH2 0x3887 JUMP JUMPDEST PUSH1 0x8 SLOAD DUP6 GT PUSH2 0x21A7 JUMPI PUSH1 0x40 MLOAD PUSH3 0x461BCD PUSH1 0xE5 SHL DUP2 MSTORE PUSH1 0x20 PUSH1 0x4 DUP3 ADD MSTORE PUSH1 0x2F PUSH1 0x24 DUP3 ADD MSTORE PUSH32 0x636F6D62696E6564207261697365206C696D697473206D757374206265206D6F PUSH1 0x44 DUP3 ADD MSTORE PUSH15 0x7265207468616E20736F667463617 PUSH1 0x8C SHL PUSH1 0x64 DUP3 ADD MSTORE PUSH1 0x84 ADD PUSH2 0x93C JUMP JUMPDEST DUP3 ISZERO DUP1 PUSH2 0x21B5 JUMPI POP PUSH1 0x33 DUP4 LT ISZERO JUMPDEST PUSH2 0x2201 JUMPI PUSH1 0x40 MLOAD PUSH3 0x461BCD PUSH1 0xE5 SHL DUP2 MSTORE PUSH1 0x20 PUSH1 0x4 DUP3 ADD DUP2 SWAP1 MSTORE PUSH1 0x24 DUP3 ADD MSTORE PUSH32 0x4966206F76657220302C206D757374206265206D6F7265207468616E20353125 PUSH1 0x44 DUP3 ADD MSTORE PUSH1 0x64 ADD PUSH2 0x93C JUMP JUMPDEST PUSH1 0x9 DUP4 SWAP1 SSTORE PUSH1 0xA DUP3 SWAP1 SSTORE PUSH1 0xB DUP2 SWAP1 SSTORE PUSH2 0x221E DUP7 DUP7 DUP7 PUSH1 0x0 DUP1 PUSH2 0x1404 JUMP JUMPDEST PUSH1 0x7 DUP6 SWAP1 SSTORE PUSH1 0x3 SLOAD PUSH1 0x40 MLOAD PUSH4 0x70A08231 PUSH1 0xE0 SHL DUP2 MSTORE ADDRESS PUSH1 0x4 DUP3 ADD MSTORE DUP8 SWAP2 PUSH1 0x1 PUSH1 0x1 PUSH1 0xA0 SHL SUB AND SWAP1 PUSH4 0x70A08231 SWAP1 PUSH1 0x24 ADD PUSH1 0x20 PUSH1 0x40 MLOAD DUP1 DUP4 SUB DUP2 DUP7 DUP1 EXTCODESIZE ISZERO DUP1 ISZERO PUSH2 0x2266 JUMPI PUSH1 0x0 DUP1 REVERT JUMPDEST POP GAS STATICCALL ISZERO DUP1 ISZERO PUSH2 0x227A JUMPI RETURNDATASIZE PUSH1 0x0 DUP1 RETURNDATACOPY RETURNDATASIZE PUSH1 0x0 REVERT JUMPDEST POP POP POP POP PUSH1 0x40 MLOAD RETURNDATASIZE PUSH1 0x1F NOT PUSH1 0x1F DUP3 ADD AND DUP3 ADD DUP1 PUSH1 0x40 MSTORE POP DUP2 ADD SWAP1 PUSH2 0x229E SWAP2 SWAP1 PUSH2 0x35C0 JUMP JUMPDEST PUSH2 0x22A8 SWAP2 SWAP1 PUSH2 0x3A9C JUMP JUMPDEST PUSH1 0x15 SSTORE POP POP POP POP POP POP JUMP JUMPDEST PUSH1 0x4 SLOAD PUSH1 0x1 PUSH1 0x1 PUSH1 0xA0 SHL SUB AND CALLER EQ DUP1 PUSH2 0x22D6 JUMPI POP PUSH1 0x1 SLOAD PUSH1 0x1 PUSH1 0x1 PUSH1 0xA0 SHL SUB AND CALLER EQ JUMPDEST PUSH2 0x2322 JUMPI PUSH1 0x40 MLOAD PUSH3 0x461BCD PUSH1 0xE5 SHL DUP2 MSTORE PUSH1 0x20 PUSH1 0x4 DUP3 ADD DUP2 SWAP1 MSTORE PUSH1 0x24 DUP3 ADD MSTORE PUSH32 0x4D757374206265204465762057616C6C6574206F7220436F6E74726F6C6C6572 PUSH1 0x44 DUP3 ADD MSTORE PUSH1 0x64 ADD PUSH2 0x93C JUMP JUMPDEST PUSH1 0x5 SLOAD TIMESTAMP GT PUSH2 0x2365 JUMPI PUSH1 0x40 MLOAD PUSH3 0x461BCD PUSH1 0xE5 SHL DUP2 MSTORE PUSH1 0x20 PUSH1 0x4 DUP3 ADD MSTORE PUSH1 0xF PUSH1 0x24 DUP3 ADD MSTORE PUSH15 0x1B9BDD081CDD185C9D1959081E595D PUSH1 0x8A SHL PUSH1 0x44 DUP3 ADD MSTORE PUSH1 0x64 ADD PUSH2 0x93C JUMP JUMPDEST PUSH1 0x6 SLOAD TIMESTAMP LT PUSH2 0x23A6 JUMPI PUSH1 0x40 MLOAD PUSH3 0x461BCD PUSH1 0xE5 SHL DUP2 MSTORE PUSH1 0x20 PUSH1 0x4 DUP3 ADD MSTORE PUSH1 0xD PUSH1 0x24 DUP3 ADD MSTORE PUSH13 0x185B1C9958591E48195B991959 PUSH1 0x9A SHL PUSH1 0x44 DUP3 ADD MSTORE PUSH1 0x64 ADD PUSH2 0x93C JUMP JUMPDEST TIMESTAMP PUSH1 0x6 SSTORE JUMP JUMPDEST PUSH1 0x1 SLOAD PUSH1 0x1 PUSH1 0x1 PUSH1 0xA0 SHL SUB AND CALLER EQ PUSH2 0x23D6 JUMPI PUSH1 0x40 MLOAD PUSH3 0x461BCD PUSH1 0xE5 SHL DUP2 MSTORE PUSH1 0x4 ADD PUSH2 0x93C SWAP1 PUSH2 0x3887 JUMP JUMPDEST PUSH1 0x4 DUP1 SLOAD PUSH1 0x1 PUSH1 0x1 PUSH1 0xA0 SHL SUB NOT AND PUSH1 0x1 PUSH1 0x1 PUSH1 0xA0 SHL SUB SWAP3 SWAP1 SWAP3 AND SWAP2 SWAP1 SWAP2 OR SWAP1 SSTORE JUMP JUMPDEST PUSH1 0x60 PUSH1 0x0 DUP3 PUSH8 0xFFFFFFFFFFFFFFFF DUP2 GT ISZERO PUSH2 0x2415 JUMPI PUSH2 0x2415 PUSH2 0x3B98 JUMP JUMPDEST PUSH1 0x40 MLOAD SWAP1 DUP1 DUP3 MSTORE DUP1 PUSH1 0x20 MUL PUSH1 0x20 ADD DUP3 ADD PUSH1 0x40 MSTORE DUP1 ISZERO PUSH2 0x244E JUMPI DUP2 PUSH1 0x20 ADD JUMPDEST PUSH2 0x243B PUSH2 0x3354 JUMP JUMPDEST DUP2 MSTORE PUSH1 0x20 ADD SWAP1 PUSH1 0x1 SWAP1 SUB SWAP1 DUP2 PUSH2 0x2433 JUMPI SWAP1 POP JUMPDEST POP SWAP1 POP PUSH1 0x0 JUMPDEST PUSH1 0xFF DUP2 AND DUP5 GT ISZERO PUSH2 0x253B JUMPI PUSH1 0x0 DUP1 PUSH1 0x0 DUP1 PUSH1 0x17 DUP10 DUP10 DUP8 PUSH1 0xFF AND DUP2 DUP2 LT PUSH2 0x247C JUMPI PUSH2 0x247C PUSH2 0x3B82 JUMP JUMPDEST SWAP1 POP PUSH1 0x20 MUL ADD PUSH1 0x20 DUP2 ADD SWAP1 PUSH2 0x2491 SWAP2 SWAP1 PUSH2 0x36C2 JUMP JUMPDEST PUSH1 0xFF AND PUSH1 0x2 DUP2 LT PUSH2 0x24A4 JUMPI PUSH2 0x24A4 PUSH2 0x3B82 JUMP JUMPDEST PUSH1 0x6 MUL ADD SLOAD GT ISZERO PUSH2 0x24EA JUMPI PUSH2 0x24E2 DUP10 DUP10 DUP10 DUP8 PUSH1 0xFF AND DUP2 DUP2 LT PUSH2 0x24C8 JUMPI PUSH2 0x24C8 PUSH2 0x3B82 JUMP JUMPDEST SWAP1 POP PUSH1 0x20 MUL ADD PUSH1 0x20 DUP2 ADD SWAP1 PUSH2 0x24DD SWAP2 SWAP1 PUSH2 0x36C2 JUMP JUMPDEST PUSH2 0x29B6 JUMP JUMPDEST SWAP2 SWAP5 POP SWAP3 POP SWAP1 POP JUMPDEST PUSH1 0x40 MLOAD DUP1 PUSH1 0x60 ADD PUSH1 0x40 MSTORE DUP1 DUP5 DUP2 MSTORE PUSH1 0x20 ADD DUP4 DUP2 MSTORE PUSH1 0x20 ADD DUP3 DUP2 MSTORE POP DUP6 DUP6 PUSH1 0xFF AND DUP2 MLOAD DUP2 LT PUSH2 0x251A JUMPI PUSH2 0x251A PUSH2 0x3B82 JUMP JUMPDEST PUSH1 0x20 MUL PUSH1 0x20 ADD ADD DUP2 SWAP1 MSTORE POP POP POP POP DUP1 DUP1 PUSH2 0x2533 SWAP1 PUSH2 0x3B4C JUMP JUMPDEST SWAP2 POP POP PUSH2 0x2454 JUMP JUMPDEST POP SWAP1 POP JUMPDEST SWAP4 SWAP3 POP POP POP JUMP JUMPDEST PUSH1 0x2 PUSH1 0x0 SLOAD EQ ISZERO PUSH2 0x2569 JUMPI PUSH1 0x40 MLOAD PUSH3 0x461BCD PUSH1 0xE5 SHL DUP2 MSTORE PUSH1 0x4 ADD PUSH2 0x93C SWAP1 PUSH2 0x38EA JUMP JUMPDEST PUSH1 0x2 PUSH1 0x0 SSTORE CALLER EXTCODESIZE ISZERO PUSH2 0x258D JUMPI PUSH1 0x40 MLOAD PUSH3 0x461BCD PUSH1 0xE5 SHL DUP2 MSTORE PUSH1 0x4 ADD PUSH2 0x93C SWAP1 PUSH2 0x38BC JUMP JUMPDEST PUSH1 0x21 SLOAD PUSH1 0x1B SLOAD PUSH1 0x0 SWAP2 PUSH2 0x259F SWAP2 PUSH2 0x3958 JUMP JUMPDEST SWAP1 POP PUSH1 0x8 SLOAD DUP2 LT PUSH2 0x25F2 JUMPI PUSH1 0x40 MLOAD PUSH3 0x461BCD PUSH1 0xE5 SHL DUP2 MSTORE PUSH1 0x20 PUSH1 0x4 DUP3 ADD MSTORE PUSH1 0x1D PUSH1 0x24 DUP3 ADD MSTORE PUSH32 0x536F66742043617020576173206D65742C207573652048617276657374000000 PUSH1 0x44 DUP3 ADD MSTORE PUSH1 0x64 ADD PUSH2 0x93C JUMP JUMPDEST PUSH1 0x6 SLOAD TIMESTAMP GT PUSH2 0x263A JUMPI PUSH1 0x40 MLOAD PUSH3 0x461BCD PUSH1 0xE5 SHL DUP2 MSTORE PUSH1 0x20 PUSH1 0x4 DUP3 ADD MSTORE PUSH1 0x14 PUSH1 0x24 DUP3 ADD MSTORE PUSH20 0x151BDBC819585C9B1E481D1BC81A185C9D995CDD PUSH1 0x62 SHL PUSH1 0x44 DUP3 ADD MSTORE PUSH1 0x64 ADD PUSH2 0x93C JUMP JUMPDEST PUSH1 0x2 PUSH1 0xFF DUP4 AND LT PUSH2 0x265D JUMPI PUSH1 0x40 MLOAD PUSH3 0x461BCD PUSH1 0xE5 SHL DUP2 MSTORE PUSH1 0x4 ADD PUSH2 0x93C SWAP1 PUSH2 0x385C JUMP JUMPDEST CALLER PUSH1 0x0 SWAP1 DUP2 MSTORE PUSH1 0x23 PUSH1 0x20 SWAP1 DUP2 MSTORE PUSH1 0x40 DUP1 DUP4 KECCAK256 PUSH1 0xFF DUP7 AND DUP5 MSTORE SWAP1 SWAP2 MSTORE SWAP1 KECCAK256 SLOAD PUSH2 0x26BD JUMPI PUSH1 0x40 MLOAD PUSH3 0x461BCD PUSH1 0xE5 SHL DUP2 MSTORE PUSH1 0x20 PUSH1 0x4 DUP3 ADD MSTORE PUSH1 0x13 PUSH1 0x24 DUP3 ADD MSTORE PUSH19 0x446964206E6F74207061727469636970617465 PUSH1 0x68 SHL PUSH1 0x44 DUP3 ADD MSTORE PUSH1 0x64 ADD PUSH2 0x93C JUMP JUMPDEST CALLER PUSH1 0x0 SWAP1 DUP2 MSTORE PUSH1 0x23 PUSH1 0x20 SWAP1 DUP2 MSTORE PUSH1 0x40 DUP1 DUP4 KECCAK256 PUSH1 0xFF DUP1 DUP8 AND DUP6 MSTORE SWAP3 MSTORE SWAP1 SWAP2 KECCAK256 PUSH1 0x1 ADD SLOAD AND ISZERO PUSH2 0x271D JUMPI PUSH1 0x40 MLOAD PUSH3 0x461BCD PUSH1 0xE5 SHL DUP2 MSTORE PUSH1 0x20 PUSH1 0x4 DUP3 ADD MSTORE PUSH1 0xD PUSH1 0x24 DUP3 ADD MSTORE PUSH13 0x12185CC81A185C9D995CDD1959 PUSH1 0x9A SHL PUSH1 0x44 DUP3 ADD MSTORE PUSH1 0x64 ADD PUSH2 0x93C JUMP JUMPDEST CALLER PUSH1 0x0 SWAP1 DUP2 MSTORE PUSH1 0x23 PUSH1 0x20 SWAP1 DUP2 MSTORE PUSH1 0x40 DUP1 DUP4 KECCAK256 PUSH1 0xFF DUP7 AND DUP5 MSTORE SWAP1 SWAP2 MSTORE DUP2 KECCAK256 PUSH1 0x1 SWAP1 DUP2 ADD DUP1 SLOAD PUSH1 0xFF NOT AND SWAP1 SWAP2 OR SWAP1 SSTORE PUSH1 0x14 DUP1 SLOAD SWAP2 PUSH2 0x2758 DUP4 PUSH2 0x3B31 JUMP JUMPDEST SWAP1 SWAP2 SSTORE POP POP CALLER PUSH1 0x0 SWAP1 DUP2 MSTORE PUSH1 0x23 PUSH1 0x20 SWAP1 DUP2 MSTORE PUSH1 0x40 DUP1 DUP4 KECCAK256 PUSH1 0xFF DUP7 AND DUP5 MSTORE SWAP1 SWAP2 MSTORE SWAP1 KECCAK256 SLOAD DUP1 ISZERO PUSH2 0x278B JUMPI PUSH2 0x278B CALLER DUP3 PUSH2 0x2BCD JUMP JUMPDEST PUSH1 0x40 DUP1 MLOAD PUSH1 0x0 DUP2 MSTORE PUSH1 0x20 DUP2 ADD DUP4 SWAP1 MSTORE PUSH1 0xFF DUP6 AND SWAP2 CALLER SWAP2 PUSH32 0x51524C2E5EDFEDF8B01B29719C661E4FBE27E71734E7CD773DABB7CB712FB3B3 SWAP2 ADD PUSH1 0x40 MLOAD DUP1 SWAP2 SUB SWAP1 LOG3 POP POP PUSH1 0x1 PUSH1 0x0 SSTORE POP JUMP JUMPDEST PUSH1 0x1 SLOAD PUSH1 0x1 PUSH1 0x1 PUSH1 0xA0 SHL SUB AND CALLER EQ PUSH2 0x2800 JUMPI PUSH1 0x40 MLOAD PUSH3 0x461BCD PUSH1 0xE5 SHL DUP2 MSTORE PUSH1 0x4 ADD PUSH2 0x93C SWAP1 PUSH2 0x3887 JUMP JUMPDEST PUSH2 0x1A02 CALLER ADDRESS BALANCE PUSH2 0x2BCD JUMP JUMPDEST PUSH1 0x1 SLOAD PUSH1 0x1 PUSH1 0x1 PUSH1 0xA0 SHL SUB AND CALLER EQ PUSH2 0x2835 JUMPI PUSH1 0x40 MLOAD PUSH3 0x461BCD PUSH1 0xE5 SHL DUP2 MSTORE PUSH1 0x4 ADD PUSH2 0x93C SWAP1 PUSH2 0x3887 JUMP JUMPDEST PUSH1 0x1 PUSH1 0x1 PUSH1 0xA0 SHL SUB DUP2 AND PUSH2 0x289A JUMPI PUSH1 0x40 MLOAD PUSH3 0x461BCD PUSH1 0xE5 SHL DUP2 MSTORE PUSH1 0x20 PUSH1 0x4 DUP3 ADD MSTORE PUSH1 0x26 PUSH1 0x24 DUP3 ADD MSTORE PUSH32 0x4F776E61626C653A206E6577206F776E657220697320746865207A65726F2061 PUSH1 0x44 DUP3 ADD MSTORE PUSH6 0x646472657373 PUSH1 0xD0 SHL PUSH1 0x64 DUP3 ADD MSTORE PUSH1 0x84 ADD PUSH2 0x93C JUMP JUMPDEST PUSH2 0x1930 DUP2 PUSH2 0x2D09 JUMP JUMPDEST PUSH1 0x60 PUSH1 0x0 DUP3 PUSH8 0xFFFFFFFFFFFFFFFF DUP2 GT ISZERO PUSH2 0x28C0 JUMPI PUSH2 0x28C0 PUSH2 0x3B98 JUMP JUMPDEST PUSH1 0x40 MLOAD SWAP1 DUP1 DUP3 MSTORE DUP1 PUSH1 0x20 MUL PUSH1 0x20 ADD DUP3 ADD PUSH1 0x40 MSTORE DUP1 ISZERO PUSH2 0x28E9 JUMPI DUP2 PUSH1 0x20 ADD PUSH1 0x20 DUP3 MUL DUP1 CALLDATASIZE DUP4 CALLDATACOPY ADD SWAP1 POP JUMPDEST POP SWAP1 POP PUSH1 0x0 JUMPDEST PUSH1 0xFF DUP2 AND DUP5 GT ISZERO PUSH2 0x253B JUMPI PUSH2 0x292D DUP7 DUP7 DUP7 DUP5 PUSH1 0xFF AND DUP2 DUP2 LT PUSH2 0x2913 JUMPI PUSH2 0x2913 PUSH2 0x3B82 JUMP JUMPDEST SWAP1 POP PUSH1 0x20 MUL ADD PUSH1 0x20 DUP2 ADD SWAP1 PUSH2 0x2928 SWAP2 SWAP1 PUSH2 0x36C2 JUMP JUMPDEST PUSH2 0x2FBC JUMP JUMPDEST DUP3 DUP3 PUSH1 0xFF AND DUP2 MLOAD DUP2 LT PUSH2 0x2942 JUMPI PUSH2 0x2942 PUSH2 0x3B82 JUMP JUMPDEST PUSH1 0x20 SWAP1 DUP2 MUL SWAP2 SWAP1 SWAP2 ADD ADD MSTORE DUP1 PUSH2 0x2957 DUP2 PUSH2 0x3B4C JUMP JUMPDEST SWAP2 POP POP PUSH2 0x28EF JUMP JUMPDEST PUSH1 0x40 DUP1 MLOAD PUSH1 0x1 PUSH1 0x1 PUSH1 0xA0 SHL SUB DUP5 AND PUSH1 0x24 DUP3 ADD MSTORE PUSH1 0x44 DUP1 DUP3 ADD DUP5 SWAP1 MSTORE DUP3 MLOAD DUP1 DUP4 SUB SWAP1 SWAP2 ADD DUP2 MSTORE PUSH1 0x64 SWAP1 SWAP2 ADD SWAP1 SWAP2 MSTORE PUSH1 0x20 DUP2 ADD DUP1 MLOAD PUSH1 0x1 PUSH1 0x1 PUSH1 0xE0 SHL SUB AND PUSH4 0xA9059CBB PUSH1 0xE0 SHL OR SWAP1 MSTORE PUSH2 0x29B1 SWAP1 DUP5 SWAP1 PUSH2 0x3061 JUMP JUMPDEST POP POP POP JUMP JUMPDEST PUSH1 0x0 DUP1 PUSH1 0x0 DUP1 PUSH1 0x0 DUP1 PUSH1 0x17 DUP8 PUSH1 0xFF AND PUSH1 0x2 DUP2 LT PUSH2 0x29D5 JUMPI PUSH2 0x29D5 PUSH2 0x3B82 JUMP JUMPDEST PUSH1 0x6 MUL ADD SLOAD PUSH1 0x17 PUSH1 0xFF DUP10 AND PUSH1 0x2 DUP2 LT PUSH2 0x29F0 JUMPI PUSH2 0x29F0 PUSH2 0x3B82 JUMP JUMPDEST PUSH1 0x6 MUL ADD PUSH1 0x4 ADD SLOAD GT ISZERO PUSH2 0x2B3E JUMPI PUSH1 0x0 PUSH2 0x2A0A DUP10 DUP10 PUSH2 0x2FBC JUMP JUMPDEST SWAP1 POP PUSH2 0x2A4B PUSH5 0xE8D4A51000 PUSH2 0x2A45 DUP4 PUSH1 0x17 DUP13 PUSH1 0xFF AND PUSH1 0x2 DUP2 LT PUSH2 0x2A2F JUMPI PUSH2 0x2A2F PUSH2 0x3B82 JUMP JUMPDEST PUSH1 0x6 MUL ADD PUSH1 0x1 ADD SLOAD PUSH2 0x3133 SWAP1 SWAP2 SWAP1 PUSH4 0xFFFFFFFF AND JUMP JUMPDEST SWAP1 PUSH2 0x313F JUMP JUMPDEST SWAP4 POP PUSH1 0x0 PUSH2 0x2A7D PUSH5 0xE8D4A51000 PUSH2 0x2A45 DUP5 PUSH1 0x17 DUP14 PUSH1 0xFF AND PUSH1 0x2 DUP2 LT PUSH2 0x2A72 JUMPI PUSH2 0x2A72 PUSH2 0x3B82 JUMP JUMPDEST PUSH1 0x6 MUL ADD SLOAD SWAP1 PUSH2 0x3133 JUMP JUMPDEST PUSH1 0x1 PUSH1 0x1 PUSH1 0xA0 SHL SUB DUP12 AND PUSH1 0x0 SWAP1 DUP2 MSTORE PUSH1 0x23 PUSH1 0x20 SWAP1 DUP2 MSTORE PUSH1 0x40 DUP1 DUP4 KECCAK256 PUSH1 0xFF DUP15 AND DUP5 MSTORE SWAP1 SWAP2 MSTORE SWAP1 KECCAK256 SLOAD SWAP1 SWAP2 POP PUSH2 0x2AB1 SWAP1 DUP3 PUSH2 0x314B JUMP JUMPDEST SWAP4 POP PUSH1 0x17 DUP10 PUSH1 0xFF AND PUSH1 0x2 DUP2 LT PUSH2 0x2AC9 JUMPI PUSH2 0x2AC9 PUSH2 0x3B82 JUMP JUMPDEST PUSH1 0x6 MUL ADD PUSH1 0x3 ADD SLOAD PUSH1 0xFF AND ISZERO PUSH2 0x2B37 JUMPI PUSH1 0x0 PUSH2 0x2B12 PUSH1 0x17 DUP12 PUSH1 0xFF AND PUSH1 0x2 DUP2 LT PUSH2 0x2AF4 JUMPI PUSH2 0x2AF4 PUSH2 0x3B82 JUMP JUMPDEST PUSH1 0x6 MUL ADD PUSH1 0x4 ADD SLOAD PUSH1 0x17 DUP13 PUSH1 0xFF AND PUSH1 0x2 DUP2 LT PUSH2 0x136F JUMPI PUSH2 0x136F PUSH2 0x3B82 JUMP JUMPDEST SWAP1 POP PUSH2 0x2B27 PUSH5 0xE8D4A51000 PUSH2 0x2A45 DUP8 DUP5 PUSH2 0x3133 JUMP JUMPDEST SWAP4 POP PUSH2 0x2B33 DUP6 DUP6 PUSH2 0x314B JUMP JUMPDEST SWAP5 POP POP JUMPDEST POP POP PUSH2 0x2BB3 JUMP JUMPDEST POP PUSH1 0x0 SWAP1 POP DUP1 PUSH2 0x2BB0 PUSH1 0x17 PUSH1 0xFF DUP10 AND PUSH1 0x2 DUP2 LT PUSH2 0x2B5D JUMPI PUSH2 0x2B5D PUSH2 0x3B82 JUMP JUMPDEST PUSH1 0x6 MUL ADD SLOAD PUSH2 0x2A45 PUSH1 0x17 PUSH1 0xFF DUP12 AND PUSH1 0x2 DUP2 LT PUSH2 0x2B7B JUMPI PUSH2 0x2B7B PUSH2 0x3B82 JUMP JUMPDEST PUSH1 0x6 MUL ADD PUSH1 0x1 ADD SLOAD PUSH1 0x1 PUSH1 0x1 PUSH1 0xA0 SHL SUB DUP13 AND PUSH1 0x0 SWAP1 DUP2 MSTORE PUSH1 0x23 PUSH1 0x20 SWAP1 DUP2 MSTORE PUSH1 0x40 DUP1 DUP4 KECCAK256 PUSH1 0xFF DUP16 AND DUP5 MSTORE SWAP1 SWAP2 MSTORE SWAP1 KECCAK256 SLOAD SWAP1 PUSH2 0x3133 JUMP JUMPDEST SWAP3 POP JUMPDEST SWAP2 SWAP5 POP SWAP3 POP SWAP1 POP SWAP3 POP SWAP3 POP SWAP3 JUMP JUMPDEST PUSH1 0x0 PUSH2 0x253F DUP3 DUP5 PUSH2 0x3958 JUMP JUMPDEST PUSH1 0x40 DUP1 MLOAD PUSH1 0x0 DUP1 DUP3 MSTORE PUSH1 0x20 DUP3 ADD SWAP1 SWAP3 MSTORE PUSH1 0x1 PUSH1 0x1 PUSH1 0xA0 SHL SUB DUP5 AND SWAP1 DUP4 SWAP1 PUSH1 0x40 MLOAD PUSH2 0x2BF7 SWAP2 SWAP1 PUSH2 0x3737 JUMP JUMPDEST PUSH1 0x0 PUSH1 0x40 MLOAD DUP1 DUP4 SUB DUP2 DUP6 DUP8 GAS CALL SWAP3 POP POP POP RETURNDATASIZE DUP1 PUSH1 0x0 DUP2 EQ PUSH2 0x2C34 JUMPI PUSH1 0x40 MLOAD SWAP2 POP PUSH1 0x1F NOT PUSH1 0x3F RETURNDATASIZE ADD AND DUP3 ADD PUSH1 0x40 MSTORE RETURNDATASIZE DUP3 MSTORE RETURNDATASIZE PUSH1 0x0 PUSH1 0x20 DUP5 ADD RETURNDATACOPY PUSH2 0x2C39 JUMP JUMPDEST PUSH1 0x60 SWAP2 POP JUMPDEST POP POP SWAP1 POP DUP1 PUSH2 0x29B1 JUMPI PUSH1 0x40 MLOAD PUSH3 0x461BCD PUSH1 0xE5 SHL DUP2 MSTORE PUSH1 0x20 PUSH1 0x4 DUP3 ADD MSTORE PUSH1 0x23 PUSH1 0x24 DUP3 ADD MSTORE PUSH32 0x5472616E7366657248656C7065723A204554485F5452414E534645525F464149 PUSH1 0x44 DUP3 ADD MSTORE PUSH3 0x131151 PUSH1 0xEA SHL PUSH1 0x64 DUP3 ADD MSTORE PUSH1 0x84 ADD PUSH2 0x93C JUMP JUMPDEST PUSH1 0x0 DUP1 PUSH2 0x2CA3 DUP5 DUP5 PUSH2 0x313F JUMP JUMPDEST SWAP1 POP PUSH2 0x1F4 DUP2 LT PUSH2 0x2CBB JUMPI PUSH4 0x77359400 SWAP2 POP POP PUSH2 0x1379 JUMP JUMPDEST PUSH1 0xFA DUP2 LT PUSH2 0x2CD0 JUMPI PUSH4 0x9502F900 SWAP2 POP POP PUSH2 0x1379 JUMP JUMPDEST PUSH1 0x64 DUP2 LT PUSH2 0x2CE5 JUMPI PUSH4 0xB2D05E00 SWAP2 POP POP PUSH2 0x1379 JUMP JUMPDEST PUSH1 0x32 DUP2 LT PUSH2 0x2CFB JUMPI PUSH5 0x12A05F200 SWAP2 POP POP PUSH2 0x1379 JUMP JUMPDEST PUSH5 0x2540BE400 SWAP2 POP POP PUSH2 0x1379 JUMP JUMPDEST PUSH1 0x1 DUP1 SLOAD PUSH1 0x1 PUSH1 0x1 PUSH1 0xA0 SHL SUB DUP4 DUP2 AND PUSH1 0x1 PUSH1 0x1 PUSH1 0xA0 SHL SUB NOT DUP4 AND DUP2 OR SWAP1 SWAP4 SSTORE PUSH1 0x40 MLOAD SWAP2 AND SWAP2 SWAP1 DUP3 SWAP1 PUSH32 0x8BE0079C531659141344CD1FD0A4F28419497F9722A3DAAFE3B4186F6B6457E0 SWAP1 PUSH1 0x0 SWAP1 LOG3 POP POP JUMP JUMPDEST PUSH1 0x0 DUP1 PUSH1 0x64 PUSH1 0x9 SLOAD ADDRESS PUSH1 0x1 PUSH1 0x1 PUSH1 0xA0 SHL SUB AND BALANCE PUSH2 0x2D78 SWAP2 SWAP1 PUSH2 0x3A7D JUMP JUMPDEST PUSH2 0x2D82 SWAP2 SWAP1 PUSH2 0x3970 JUMP JUMPDEST SWAP1 POP PUSH1 0x0 PUSH1 0x3 PUSH1 0x0 SWAP1 SLOAD SWAP1 PUSH2 0x100 EXP SWAP1 DIV PUSH1 0x1 PUSH1 0x1 PUSH1 0xA0 SHL SUB AND PUSH1 0x1 PUSH1 0x1 PUSH1 0xA0 SHL SUB AND PUSH4 0x313CE567 PUSH1 0x40 MLOAD DUP2 PUSH4 0xFFFFFFFF AND PUSH1 0xE0 SHL DUP2 MSTORE PUSH1 0x4 ADD PUSH1 0x20 PUSH1 0x40 MLOAD DUP1 DUP4 SUB DUP2 DUP7 DUP1 EXTCODESIZE ISZERO DUP1 ISZERO PUSH2 0x2DD4 JUMPI PUSH1 0x0 DUP1 REVERT JUMPDEST POP GAS STATICCALL ISZERO DUP1 ISZERO PUSH2 0x2DE8 JUMPI RETURNDATASIZE PUSH1 0x0 DUP1 RETURNDATACOPY RETURNDATASIZE PUSH1 0x0 REVERT JUMPDEST POP POP POP POP PUSH1 0x40 MLOAD RETURNDATASIZE PUSH1 0x1F NOT PUSH1 0x1F DUP3 ADD AND DUP3 ADD DUP1 PUSH1 0x40 MSTORE POP DUP2 ADD SWAP1 PUSH2 0x2E0C SWAP2 SWAP1 PUSH2 0x36DF JUMP JUMPDEST PUSH1 0xFF AND SWAP1 POP PUSH1 0x0 PUSH2 0x2E1E DUP3 PUSH1 0xA PUSH2 0x39D5 JUMP JUMPDEST PUSH1 0xA SLOAD PUSH2 0x2E2B SWAP1 DUP6 PUSH2 0x3A7D JUMP JUMPDEST PUSH2 0x2E35 SWAP2 SWAP1 PUSH2 0x3970 JUMP JUMPDEST PUSH1 0x3 SLOAD PUSH1 0xE SLOAD PUSH1 0x40 MLOAD PUSH4 0x95EA7B3 PUSH1 0xE0 SHL DUP2 MSTORE PUSH1 0x1 PUSH1 0x1 PUSH1 0xA0 SHL SUB SWAP2 DUP3 AND PUSH1 0x4 DUP3 ADD MSTORE PUSH1 0x24 DUP2 ADD DUP5 SWAP1 MSTORE SWAP3 SWAP4 POP AND SWAP1 PUSH4 0x95EA7B3 SWAP1 PUSH1 0x44 ADD PUSH1 0x20 PUSH1 0x40 MLOAD DUP1 DUP4 SUB DUP2 PUSH1 0x0 DUP8 DUP1 EXTCODESIZE ISZERO DUP1 ISZERO PUSH2 0x2E87 JUMPI PUSH1 0x0 DUP1 REVERT JUMPDEST POP GAS CALL ISZERO DUP1 ISZERO PUSH2 0x2E9B JUMPI RETURNDATASIZE PUSH1 0x0 DUP1 RETURNDATACOPY RETURNDATASIZE PUSH1 0x0 REVERT JUMPDEST POP POP POP POP PUSH1 0x40 MLOAD RETURNDATASIZE PUSH1 0x1F NOT PUSH1 0x1F DUP3 ADD AND DUP3 ADD DUP1 PUSH1 0x40 MSTORE POP DUP2 ADD SWAP1 PUSH2 0x2EBF SWAP2 SWAP1 PUSH2 0x3502 JUMP JUMPDEST POP PUSH1 0x0 DUP1 PUSH1 0xB SLOAD GT PUSH2 0x2EDC JUMPI PUSH1 0x4 SLOAD PUSH1 0x1 PUSH1 0x1 PUSH1 0xA0 SHL SUB AND PUSH2 0x2EDE JUMP JUMPDEST ADDRESS JUMPDEST PUSH1 0xE SLOAD PUSH1 0x3 SLOAD PUSH1 0x40 MLOAD PUSH4 0xF305D719 PUSH1 0xE0 SHL DUP2 MSTORE PUSH1 0x1 PUSH1 0x1 PUSH1 0xA0 SHL SUB SWAP2 DUP3 AND PUSH1 0x4 DUP3 ADD MSTORE PUSH1 0x24 DUP2 ADD DUP7 SWAP1 MSTORE PUSH1 0x0 PUSH1 0x44 DUP3 ADD DUP2 SWAP1 MSTORE PUSH1 0x64 DUP3 ADD MSTORE DUP2 DUP5 AND PUSH1 0x84 DUP3 ADD MSTORE TIMESTAMP PUSH1 0xA4 DUP3 ADD MSTORE SWAP3 SWAP4 POP AND SWAP1 PUSH4 0xF305D719 SWAP1 DUP7 SWAP1 PUSH1 0xC4 ADD PUSH1 0x60 PUSH1 0x40 MLOAD DUP1 DUP4 SUB DUP2 DUP6 DUP9 DUP1 EXTCODESIZE ISZERO DUP1 ISZERO PUSH2 0x2F4D JUMPI PUSH1 0x0 DUP1 REVERT JUMPDEST POP GAS CALL ISZERO DUP1 ISZERO PUSH2 0x2F61 JUMPI RETURNDATASIZE PUSH1 0x0 DUP1 RETURNDATACOPY RETURNDATASIZE PUSH1 0x0 REVERT JUMPDEST POP POP POP POP POP PUSH1 0x40 MLOAD RETURNDATASIZE PUSH1 0x1F NOT PUSH1 0x1F DUP3 ADD AND DUP3 ADD DUP1 PUSH1 0x40 MSTORE POP DUP2 ADD SWAP1 PUSH2 0x2F86 SWAP2 SWAP1 PUSH2 0x35FB JUMP JUMPDEST POP POP TIMESTAMP PUSH1 0xD SSTORE POP PUSH1 0xB SLOAD PUSH1 0xC DUP1 SLOAD PUSH1 0xFF NOT AND SWAP2 ISZERO ISZERO SWAP2 SWAP1 SWAP2 OR SWAP1 SSTORE PUSH1 0x15 SLOAD PUSH1 0x0 SWAP1 PUSH2 0x2FB2 SWAP1 DUP5 SWAP1 PUSH2 0x3A9C JUMP JUMPDEST SWAP7 SWAP6 POP POP POP POP POP POP JUMP JUMPDEST PUSH1 0x0 DUP1 PUSH1 0x17 DUP4 PUSH1 0xFF AND PUSH1 0x2 DUP2 LT PUSH2 0x2FD5 JUMPI PUSH2 0x2FD5 PUSH2 0x3B82 JUMP JUMPDEST PUSH1 0x6 MUL ADD PUSH1 0x4 ADD SLOAD GT ISZERO PUSH2 0x3059 JUMPI PUSH2 0x3052 PUSH2 0x3019 PUSH3 0xF4240 PUSH1 0x17 DUP6 PUSH1 0xFF AND PUSH1 0x2 DUP2 LT PUSH2 0x3003 JUMPI PUSH2 0x3003 PUSH2 0x3B82 JUMP JUMPDEST PUSH1 0x6 MUL ADD PUSH1 0x4 ADD SLOAD PUSH2 0x3133 SWAP1 SWAP2 SWAP1 PUSH4 0xFFFFFFFF AND JUMP JUMPDEST PUSH1 0x1 PUSH1 0x1 PUSH1 0xA0 SHL SUB DUP6 AND PUSH1 0x0 SWAP1 DUP2 MSTORE PUSH1 0x23 PUSH1 0x20 SWAP1 DUP2 MSTORE PUSH1 0x40 DUP1 DUP4 KECCAK256 PUSH1 0xFF DUP9 AND DUP5 MSTORE SWAP1 SWAP2 MSTORE SWAP1 KECCAK256 SLOAD PUSH2 0x2A45 SWAP1 PUSH8 0xDE0B6B3A7640000 PUSH2 0x3133 JUMP JUMPDEST SWAP1 POP PUSH2 0x1379 JUMP JUMPDEST POP PUSH1 0x0 PUSH2 0x1379 JUMP JUMPDEST PUSH1 0x0 PUSH2 0x30B6 DUP3 PUSH1 0x40 MLOAD DUP1 PUSH1 0x40 ADD PUSH1 0x40 MSTORE DUP1 PUSH1 0x20 DUP2 MSTORE PUSH1 0x20 ADD PUSH32 0x5361666542455032303A206C6F772D6C6576656C2063616C6C206661696C6564 DUP2 MSTORE POP DUP6 PUSH1 0x1 PUSH1 0x1 PUSH1 0xA0 SHL SUB AND PUSH2 0x3157 SWAP1 SWAP3 SWAP2 SWAP1 PUSH4 0xFFFFFFFF AND JUMP JUMPDEST DUP1 MLOAD SWAP1 SWAP2 POP ISZERO PUSH2 0x29B1 JUMPI DUP1 DUP1 PUSH1 0x20 ADD SWAP1 MLOAD DUP2 ADD SWAP1 PUSH2 0x30D4 SWAP2 SWAP1 PUSH2 0x3502 JUMP JUMPDEST PUSH2 0x29B1 JUMPI PUSH1 0x40 MLOAD PUSH3 0x461BCD PUSH1 0xE5 SHL DUP2 MSTORE PUSH1 0x20 PUSH1 0x4 DUP3 ADD MSTORE PUSH1 0x2A PUSH1 0x24 DUP3 ADD MSTORE PUSH32 0x5361666542455032303A204245503230206F7065726174696F6E20646964206E PUSH1 0x44 DUP3 ADD MSTORE PUSH10 0x1BDD081CDD58D8D95959 PUSH1 0xB2 SHL PUSH1 0x64 DUP3 ADD MSTORE PUSH1 0x84 ADD PUSH2 0x93C JUMP JUMPDEST PUSH1 0x0 PUSH2 0x253F DUP3 DUP5 PUSH2 0x3A7D JUMP JUMPDEST PUSH1 0x0 PUSH2 0x253F DUP3 DUP5 PUSH2 0x3970 JUMP JUMPDEST PUSH1 0x0 PUSH2 0x253F DUP3 DUP5 PUSH2 0x3A9C JUMP JUMPDEST PUSH1 0x60 PUSH2 0x3166 DUP5 DUP5 PUSH1 0x0 DUP6 PUSH2 0x316E JUMP JUMPDEST SWAP5 SWAP4 POP POP POP POP JUMP JUMPDEST PUSH1 0x60 ADDRESS BALANCE DUP4 GT ISZERO PUSH2 0x31D0 JUMPI PUSH1 0x40 MLOAD PUSH3 0x461BCD PUSH1 0xE5 SHL DUP2 MSTORE PUSH1 0x20 PUSH1 0x4 DUP3 ADD MSTORE PUSH1 0x26 PUSH1 0x24 DUP3 ADD MSTORE PUSH32 0x416464726573733A20696E73756666696369656E742062616C616E636520666F PUSH1 0x44 DUP3 ADD MSTORE PUSH6 0x1C8818D85B1B PUSH1 0xD2 SHL PUSH1 0x64 DUP3 ADD MSTORE PUSH1 0x84 ADD PUSH2 0x93C JUMP JUMPDEST DUP5 EXTCODESIZE PUSH2 0x321E JUMPI PUSH1 0x40 MLOAD PUSH3 0x461BCD PUSH1 0xE5 SHL DUP2 MSTORE PUSH1 0x20 PUSH1 0x4 DUP3 ADD MSTORE PUSH1 0x1D PUSH1 0x24 DUP3 ADD MSTORE PUSH32 0x416464726573733A2063616C6C20746F206E6F6E2D636F6E7472616374000000 PUSH1 0x44 DUP3 ADD MSTORE PUSH1 0x64 ADD PUSH2 0x93C JUMP JUMPDEST PUSH1 0x0 DUP1 DUP7 PUSH1 0x1 PUSH1 0x1 PUSH1 0xA0 SHL SUB AND DUP6 DUP8 PUSH1 0x40 MLOAD PUSH2 0x323A SWAP2 SWAP1 PUSH2 0x3737 JUMP JUMPDEST PUSH1 0x0 PUSH1 0x40 MLOAD DUP1 DUP4 SUB DUP2 DUP6 DUP8 GAS CALL SWAP3 POP POP POP RETURNDATASIZE DUP1 PUSH1 0x0 DUP2 EQ PUSH2 0x3277 JUMPI PUSH1 0x40 MLOAD SWAP2 POP PUSH1 0x1F NOT PUSH1 0x3F RETURNDATASIZE ADD AND DUP3 ADD PUSH1 0x40 MSTORE RETURNDATASIZE DUP3 MSTORE RETURNDATASIZE PUSH1 0x0 PUSH1 0x20 DUP5 ADD RETURNDATACOPY PUSH2 0x327C JUMP JUMPDEST PUSH1 0x60 SWAP2 POP JUMPDEST POP SWAP2 POP SWAP2 POP PUSH2 0x328C DUP3 DUP3 DUP7 PUSH2 0x3297 JUMP JUMPDEST SWAP8 SWAP7 POP POP POP POP POP POP POP JUMP JUMPDEST PUSH1 0x60 DUP4 ISZERO PUSH2 0x32A6 JUMPI POP DUP2 PUSH2 0x253F JUMP JUMPDEST DUP3 MLOAD ISZERO PUSH2 0x32B6 JUMPI DUP3 MLOAD DUP1 DUP5 PUSH1 0x20 ADD REVERT JUMPDEST DUP2 PUSH1 0x40 MLOAD PUSH3 0x461BCD PUSH1 0xE5 SHL DUP2 MSTORE PUSH1 0x4 ADD PUSH2 0x93C SWAP2 SWAP1 PUSH2 0x3829 JUMP JUMPDEST DUP3 DUP1 SLOAD PUSH2 0x32DC SWAP1 PUSH2 0x3AF6 JUMP JUMPDEST SWAP1 PUSH1 0x0 MSTORE PUSH1 0x20 PUSH1 0x0 KECCAK256 SWAP1 PUSH1 0x1F ADD PUSH1 0x20 SWAP1 DIV DUP2 ADD SWAP3 DUP3 PUSH2 0x32FE JUMPI PUSH1 0x0 DUP6 SSTORE PUSH2 0x3344 JUMP JUMPDEST DUP3 PUSH1 0x1F LT PUSH2 0x3317 JUMPI DUP1 MLOAD PUSH1 0xFF NOT AND DUP4 DUP1 ADD OR DUP6 SSTORE PUSH2 0x3344 JUMP JUMPDEST DUP3 DUP1 ADD PUSH1 0x1 ADD DUP6 SSTORE DUP3 ISZERO PUSH2 0x3344 JUMPI SWAP2 DUP3 ADD JUMPDEST DUP3 DUP2 GT ISZERO PUSH2 0x3344 JUMPI DUP3 MLOAD DUP3 SSTORE SWAP2 PUSH1 0x20 ADD SWAP2 SWAP1 PUSH1 0x1 ADD SWAP1 PUSH2 0x3329 JUMP JUMPDEST POP PUSH2 0x3350 SWAP3 SWAP2 POP PUSH2 0x3372 JUMP JUMPDEST POP SWAP1 JUMP JUMPDEST PUSH1 0x40 MLOAD DUP1 PUSH1 0x60 ADD PUSH1 0x40 MSTORE DUP1 PUSH1 0x3 SWAP1 PUSH1 0x20 DUP3 MUL DUP1 CALLDATASIZE DUP4 CALLDATACOPY POP SWAP2 SWAP3 SWAP2 POP POP JUMP JUMPDEST JUMPDEST DUP1 DUP3 GT ISZERO PUSH2 0x3350 JUMPI PUSH1 0x0 DUP2 SSTORE PUSH1 0x1 ADD PUSH2 0x3373 JUMP JUMPDEST PUSH1 0x0 DUP3 PUSH1 0x1F DUP4 ADD SLT PUSH2 0x3398 JUMPI PUSH1 0x0 DUP1 REVERT JUMPDEST DUP2 CALLDATALOAD PUSH8 0xFFFFFFFFFFFFFFFF DUP1 DUP3 GT ISZERO PUSH2 0x33B3 JUMPI PUSH2 0x33B3 PUSH2 0x3B98 JUMP JUMPDEST PUSH1 0x40 MLOAD PUSH1 0x1F DUP4 ADD PUSH1 0x1F NOT SWAP1 DUP2 AND PUSH1 0x3F ADD AND DUP2 ADD SWAP1 DUP3 DUP3 GT DUP2 DUP4 LT OR ISZERO PUSH2 0x33DB JUMPI PUSH2 0x33DB PUSH2 0x3B98 JUMP JUMPDEST DUP2 PUSH1 0x40 MSTORE DUP4 DUP2 MSTORE DUP7 PUSH1 0x20 DUP6 DUP9 ADD ADD GT ISZERO PUSH2 0x33F4 JUMPI PUSH1 0x0 DUP1 REVERT JUMPDEST DUP4 PUSH1 0x20 DUP8 ADD PUSH1 0x20 DUP4 ADD CALLDATACOPY PUSH1 0x0 PUSH1 0x20 DUP6 DUP4 ADD ADD MSTORE DUP1 SWAP5 POP POP POP POP POP SWAP3 SWAP2 POP POP JUMP JUMPDEST PUSH1 0x0 PUSH1 0x20 DUP3 DUP5 SUB SLT ISZERO PUSH2 0x3426 JUMPI PUSH1 0x0 DUP1 REVERT JUMPDEST DUP2 CALLDATALOAD PUSH2 0x253F DUP2 PUSH2 0x3BAE JUMP JUMPDEST PUSH1 0x0 PUSH1 0x20 DUP3 DUP5 SUB SLT ISZERO PUSH2 0x3443 JUMPI PUSH1 0x0 DUP1 REVERT JUMPDEST DUP2 MLOAD PUSH2 0x253F DUP2 PUSH2 0x3BAE JUMP JUMPDEST PUSH1 0x0 DUP1 PUSH1 0x0 PUSH1 0x40 DUP5 DUP7 SUB SLT ISZERO PUSH2 0x3463 JUMPI PUSH1 0x0 DUP1 REVERT JUMPDEST DUP4 CALLDATALOAD PUSH2 0x346E DUP2 PUSH2 0x3BAE JUMP JUMPDEST SWAP3 POP PUSH1 0x20 DUP5 ADD CALLDATALOAD PUSH8 0xFFFFFFFFFFFFFFFF DUP1 DUP3 GT ISZERO PUSH2 0x348B JUMPI PUSH1 0x0 DUP1 REVERT JUMPDEST DUP2 DUP7 ADD SWAP2 POP DUP7 PUSH1 0x1F DUP4 ADD SLT PUSH2 0x349F JUMPI PUSH1 0x0 DUP1 REVERT JUMPDEST DUP2 CALLDATALOAD DUP2 DUP2 GT ISZERO PUSH2 0x34AE JUMPI PUSH1 0x0 DUP1 REVERT JUMPDEST DUP8 PUSH1 0x20 DUP3 PUSH1 0x5 SHL DUP6 ADD ADD GT ISZERO PUSH2 0x34C3 JUMPI PUSH1 0x0 DUP1 REVERT JUMPDEST PUSH1 0x20 DUP4 ADD SWAP5 POP DUP1 SWAP4 POP POP POP POP SWAP3 POP SWAP3 POP SWAP3 JUMP JUMPDEST PUSH1 0x0 DUP1 PUSH1 0x40 DUP4 DUP6 SUB SLT ISZERO PUSH2 0x34E9 JUMPI PUSH1 0x0 DUP1 REVERT JUMPDEST DUP3 CALLDATALOAD PUSH2 0x34F4 DUP2 PUSH2 0x3BAE JUMP JUMPDEST SWAP5 PUSH1 0x20 SWAP4 SWAP1 SWAP4 ADD CALLDATALOAD SWAP4 POP POP POP JUMP JUMPDEST PUSH1 0x0 PUSH1 0x20 DUP3 DUP5 SUB SLT ISZERO PUSH2 0x3514 JUMPI PUSH1 0x0 DUP1 REVERT JUMPDEST DUP2 MLOAD PUSH2 0x253F DUP2 PUSH2 0x3BC3 JUMP JUMPDEST PUSH1 0x0 DUP1 PUSH1 0x0 PUSH1 0x60 DUP5 DUP7 SUB SLT ISZERO PUSH2 0x3534 JUMPI PUSH1 0x0 DUP1 REVERT JUMPDEST DUP4 CALLDATALOAD PUSH8 0xFFFFFFFFFFFFFFFF DUP1 DUP3 GT ISZERO PUSH2 0x354C JUMPI PUSH1 0x0 DUP1 REVERT JUMPDEST PUSH2 0x3558 DUP8 DUP4 DUP9 ADD PUSH2 0x3387 JUMP JUMPDEST SWAP5 POP PUSH1 0x20 DUP7 ADD CALLDATALOAD SWAP2 POP DUP1 DUP3 GT ISZERO PUSH2 0x356E JUMPI PUSH1 0x0 DUP1 REVERT JUMPDEST PUSH2 0x357A DUP8 DUP4 DUP9 ADD PUSH2 0x3387 JUMP JUMPDEST SWAP4 POP PUSH1 0x40 DUP7 ADD CALLDATALOAD SWAP2 POP DUP1 DUP3 GT ISZERO PUSH2 0x3590 JUMPI PUSH1 0x0 DUP1 REVERT JUMPDEST POP PUSH2 0x359D DUP7 DUP3 DUP8 ADD PUSH2 0x3387 JUMP JUMPDEST SWAP2 POP POP SWAP3 POP SWAP3 POP SWAP3 JUMP JUMPDEST PUSH1 0x0 PUSH1 0x20 DUP3 DUP5 SUB SLT ISZERO PUSH2 0x35B9 JUMPI PUSH1 0x0 DUP1 REVERT JUMPDEST POP CALLDATALOAD SWAP2 SWAP1 POP JUMP JUMPDEST PUSH1 0x0 PUSH1 0x20 DUP3 DUP5 SUB SLT ISZERO PUSH2 0x35D2 JUMPI PUSH1 0x0 DUP1 REVERT JUMPDEST POP MLOAD SWAP2 SWAP1 POP JUMP JUMPDEST PUSH1 0x0 DUP1 PUSH1 0x40 DUP4 DUP6 SUB SLT ISZERO PUSH2 0x35EC JUMPI PUSH1 0x0 DUP1 REVERT JUMPDEST POP POP DUP1 CALLDATALOAD SWAP3 PUSH1 0x20 SWAP1 SWAP2 ADD CALLDATALOAD SWAP2 POP JUMP JUMPDEST PUSH1 0x0 DUP1 PUSH1 0x0 PUSH1 0x60 DUP5 DUP7 SUB SLT ISZERO PUSH2 0x3610 JUMPI PUSH1 0x0 DUP1 REVERT JUMPDEST DUP4 MLOAD SWAP3 POP PUSH1 0x20 DUP5 ADD MLOAD SWAP2 POP PUSH1 0x40 DUP5 ADD MLOAD SWAP1 POP SWAP3 POP SWAP3 POP SWAP3 JUMP JUMPDEST PUSH1 0x0 DUP1 PUSH1 0x0 DUP1 PUSH1 0x0 PUSH1 0xA0 DUP7 DUP9 SUB SLT ISZERO PUSH2 0x3641 JUMPI PUSH1 0x0 DUP1 REVERT JUMPDEST DUP6 CALLDATALOAD SWAP5 POP PUSH1 0x20 DUP7 ADD CALLDATALOAD SWAP4 POP PUSH1 0x40 DUP7 ADD CALLDATALOAD SWAP3 POP PUSH1 0x60 DUP7 ADD CALLDATALOAD PUSH2 0x3661 DUP2 PUSH2 0x3BC3 JUMP JUMPDEST SWAP2 POP PUSH1 0x80 DUP7 ADD CALLDATALOAD PUSH2 0x3671 DUP2 PUSH2 0x3BD1 JUMP JUMPDEST DUP1 SWAP2 POP POP SWAP3 SWAP6 POP SWAP3 SWAP6 SWAP1 SWAP4 POP JUMP JUMPDEST PUSH1 0x0 DUP1 PUSH1 0x0 DUP1 PUSH1 0x0 DUP1 PUSH1 0xC0 DUP8 DUP10 SUB SLT ISZERO PUSH2 0x3698 JUMPI PUSH1 0x0 DUP1 REVERT JUMPDEST POP POP DUP5 CALLDATALOAD SWAP7 PUSH1 0x20 DUP7 ADD CALLDATALOAD SWAP7 POP PUSH1 0x40 DUP7 ADD CALLDATALOAD SWAP6 PUSH1 0x60 DUP2 ADD CALLDATALOAD SWAP6 POP PUSH1 0x80 DUP2 ADD CALLDATALOAD SWAP5 POP PUSH1 0xA0 ADD CALLDATALOAD SWAP3 POP SWAP1 POP JUMP JUMPDEST PUSH1 0x0 PUSH1 0x20 DUP3 DUP5 SUB SLT ISZERO PUSH2 0x36D4 JUMPI PUSH1 0x0 DUP1 REVERT JUMPDEST DUP2 CALLDATALOAD PUSH2 0x253F DUP2 PUSH2 0x3BD1 JUMP JUMPDEST PUSH1 0x0 PUSH1 0x20 DUP3 DUP5 SUB SLT ISZERO PUSH2 0x36F1 JUMPI PUSH1 0x0 DUP1 REVERT JUMPDEST DUP2 MLOAD PUSH2 0x253F DUP2 PUSH2 0x3BD1 JUMP JUMPDEST PUSH1 0x0 DUP2 MLOAD DUP1 DUP5 MSTORE PUSH1 0x20 DUP1 DUP6 ADD SWAP5 POP DUP1 DUP5 ADD PUSH1 0x0 JUMPDEST DUP4 DUP2 LT ISZERO PUSH2 0x372C JUMPI DUP2 MLOAD DUP8 MSTORE SWAP6 DUP3 ADD SWAP6 SWAP1 DUP3 ADD SWAP1 PUSH1 0x1 ADD PUSH2 0x3710 JUMP JUMPDEST POP SWAP5 SWAP6 SWAP5 POP POP POP POP POP JUMP JUMPDEST PUSH1 0x0 DUP3 MLOAD PUSH2 0x3749 DUP2 DUP5 PUSH1 0x20 DUP8 ADD PUSH2 0x3AB3 JUMP JUMPDEST SWAP2 SWAP1 SWAP2 ADD SWAP3 SWAP2 POP POP JUMP JUMPDEST PUSH1 0x20 DUP1 DUP3 MSTORE DUP3 MLOAD DUP3 DUP3 ADD DUP2 SWAP1 MSTORE PUSH1 0x0 SWAP2 SWAP1 DUP5 DUP3 ADD SWAP1 PUSH1 0x40 DUP6 ADD SWAP1 DUP5 DUP1 JUMPDEST DUP3 DUP2 LT ISZERO PUSH2 0x37B0 JUMPI DUP5 MLOAD DUP5 DUP4 JUMPDEST PUSH1 0x3 DUP2 LT ISZERO PUSH2 0x379A JUMPI DUP3 MLOAD DUP3 MSTORE SWAP2 DUP9 ADD SWAP2 SWAP1 DUP9 ADD SWAP1 PUSH1 0x1 ADD PUSH2 0x377D JUMP JUMPDEST POP POP POP SWAP4 DUP6 ADD SWAP4 PUSH1 0x60 SWAP4 SWAP1 SWAP4 ADD SWAP3 PUSH1 0x1 ADD PUSH2 0x3770 JUMP JUMPDEST POP SWAP2 SWAP8 SWAP7 POP POP POP POP POP POP POP JUMP JUMPDEST PUSH1 0x20 DUP2 MSTORE PUSH1 0x0 PUSH2 0x253F PUSH1 0x20 DUP4 ADD DUP5 PUSH2 0x36FC JUMP JUMPDEST PUSH1 0x40 DUP2 MSTORE PUSH1 0x0 PUSH2 0x37E3 PUSH1 0x40 DUP4 ADD DUP6 PUSH2 0x36FC JUMP JUMPDEST DUP3 DUP2 SUB PUSH1 0x20 DUP5 DUP2 ADD SWAP2 SWAP1 SWAP2 MSTORE DUP5 MLOAD DUP1 DUP4 MSTORE DUP6 DUP3 ADD SWAP3 DUP3 ADD SWAP1 PUSH1 0x0 JUMPDEST DUP2 DUP2 LT ISZERO PUSH2 0x381C JUMPI DUP5 MLOAD ISZERO ISZERO DUP4 MSTORE SWAP4 DUP4 ADD SWAP4 SWAP2 DUP4 ADD SWAP2 PUSH1 0x1 ADD PUSH2 0x37FE JUMP JUMPDEST POP SWAP1 SWAP8 SWAP7 POP POP POP POP POP POP POP JUMP JUMPDEST PUSH1 0x20 DUP2 MSTORE PUSH1 0x0 DUP3 MLOAD DUP1 PUSH1 0x20 DUP5 ADD MSTORE PUSH2 0x3848 DUP2 PUSH1 0x40 DUP6 ADD PUSH1 0x20 DUP8 ADD PUSH2 0x3AB3 JUMP JUMPDEST PUSH1 0x1F ADD PUSH1 0x1F NOT AND SWAP2 SWAP1 SWAP2 ADD PUSH1 0x40 ADD SWAP3 SWAP2 POP POP JUMP JUMPDEST PUSH1 0x20 DUP1 DUP3 MSTORE PUSH1 0x11 SWAP1 DUP3 ADD MSTORE PUSH17 0x139BDB881D985B1A59081C1BDBDB081A59 PUSH1 0x7A SHL PUSH1 0x40 DUP3 ADD MSTORE PUSH1 0x60 ADD SWAP1 JUMP JUMPDEST PUSH1 0x20 DUP1 DUP3 MSTORE DUP2 DUP2 ADD MSTORE PUSH32 0x4F776E61626C653A2063616C6C6572206973206E6F7420746865206F776E6572 PUSH1 0x40 DUP3 ADD MSTORE PUSH1 0x60 ADD SWAP1 JUMP JUMPDEST PUSH1 0x20 DUP1 DUP3 MSTORE PUSH1 0x14 SWAP1 DUP3 ADD MSTORE PUSH20 0x18DBDB9D1C9858DD081B9BDD08185B1B1BDDD959 PUSH1 0x62 SHL PUSH1 0x40 DUP3 ADD MSTORE PUSH1 0x60 ADD SWAP1 JUMP JUMPDEST PUSH1 0x20 DUP1 DUP3 MSTORE PUSH1 0x1F SWAP1 DUP3 ADD MSTORE PUSH32 0x5265656E7472616E637947756172643A207265656E7472616E742063616C6C00 PUSH1 0x40 DUP3 ADD MSTORE PUSH1 0x60 ADD SWAP1 JUMP JUMPDEST PUSH1 0x20 DUP1 DUP3 MSTORE PUSH1 0x1D SWAP1 DUP3 ADD MSTORE PUSH32 0x43616E6E6F74206368616E676520616674657220706F6F6C7320656E64000000 PUSH1 0x40 DUP3 ADD MSTORE PUSH1 0x60 ADD SWAP1 JUMP JUMPDEST PUSH1 0x0 DUP3 NOT DUP3 GT ISZERO PUSH2 0x396B JUMPI PUSH2 0x396B PUSH2 0x3B6C JUMP JUMPDEST POP ADD SWAP1 JUMP JUMPDEST PUSH1 0x0 DUP3 PUSH2 0x398D JUMPI PUSH4 0x4E487B71 PUSH1 0xE0 SHL PUSH1 0x0 MSTORE PUSH1 0x12 PUSH1 0x4 MSTORE PUSH1 0x24 PUSH1 0x0 REVERT JUMPDEST POP DIV SWAP1 JUMP JUMPDEST PUSH1 0x1 DUP2 DUP2 JUMPDEST DUP1 DUP6 GT ISZERO PUSH2 0x39CD JUMPI DUP2 PUSH1 0x0 NOT DIV DUP3 GT ISZERO PUSH2 0x39B3 JUMPI PUSH2 0x39B3 PUSH2 0x3B6C JUMP JUMPDEST DUP1 DUP6 AND ISZERO PUSH2 0x39C0 JUMPI SWAP2 DUP2 MUL SWAP2 JUMPDEST SWAP4 DUP5 SHR SWAP4 SWAP1 DUP1 MUL SWAP1 PUSH2 0x3997 JUMP JUMPDEST POP SWAP3 POP SWAP3 SWAP1 POP JUMP JUMPDEST PUSH1 0x0 PUSH2 0x253F DUP4 DUP4 PUSH1 0x0 DUP3 PUSH2 0x39EB JUMPI POP PUSH1 0x1 PUSH2 0x1379 JUMP JUMPDEST DUP2 PUSH2 0x39F8 JUMPI POP PUSH1 0x0 PUSH2 0x1379 JUMP JUMPDEST DUP2 PUSH1 0x1 DUP2 EQ PUSH2 0x3A0E JUMPI PUSH1 0x2 DUP2 EQ PUSH2 0x3A18 JUMPI PUSH2 0x3A34 JUMP JUMPDEST PUSH1 0x1 SWAP2 POP POP PUSH2 0x1379 JUMP JUMPDEST PUSH1 0xFF DUP5 GT ISZERO PUSH2 0x3A29 JUMPI PUSH2 0x3A29 PUSH2 0x3B6C JUMP JUMPDEST POP POP PUSH1 0x1 DUP3 SHL PUSH2 0x1379 JUMP JUMPDEST POP PUSH1 0x20 DUP4 LT PUSH2 0x133 DUP4 LT AND PUSH1 0x4E DUP5 LT PUSH1 0xB DUP5 LT AND OR ISZERO PUSH2 0x3A57 JUMPI POP DUP2 DUP2 EXP PUSH2 0x1379 JUMP JUMPDEST PUSH2 0x3A61 DUP4 DUP4 PUSH2 0x3992 JUMP JUMPDEST DUP1 PUSH1 0x0 NOT DIV DUP3 GT ISZERO PUSH2 0x3A75 JUMPI PUSH2 0x3A75 PUSH2 0x3B6C JUMP JUMPDEST MUL SWAP4 SWAP3 POP POP POP JUMP JUMPDEST PUSH1 0x0 DUP2 PUSH1 0x0 NOT DIV DUP4 GT DUP3 ISZERO ISZERO AND ISZERO PUSH2 0x3A97 JUMPI PUSH2 0x3A97 PUSH2 0x3B6C JUMP JUMPDEST POP MUL SWAP1 JUMP JUMPDEST PUSH1 0x0 DUP3 DUP3 LT ISZERO PUSH2 0x3AAE JUMPI PUSH2 0x3AAE PUSH2 0x3B6C JUMP JUMPDEST POP SUB SWAP1 JUMP JUMPDEST PUSH1 0x0 JUMPDEST DUP4 DUP2 LT ISZERO PUSH2 0x3ACE JUMPI DUP2 DUP2 ADD MLOAD DUP4 DUP3 ADD MSTORE PUSH1 0x20 ADD PUSH2 0x3AB6 JUMP JUMPDEST DUP4 DUP2 GT ISZERO PUSH2 0x189B JUMPI POP POP PUSH1 0x0 SWAP2 ADD MSTORE JUMP JUMPDEST PUSH1 0x0 DUP2 PUSH2 0x3AEE JUMPI PUSH2 0x3AEE PUSH2 0x3B6C JUMP JUMPDEST POP PUSH1 0x0 NOT ADD SWAP1 JUMP JUMPDEST PUSH1 0x1 DUP2 DUP2 SHR SWAP1 DUP3 AND DUP1 PUSH2 0x3B0A JUMPI PUSH1 0x7F DUP3 AND SWAP2 POP JUMPDEST PUSH1 0x20 DUP3 LT DUP2 EQ ISZERO PUSH2 0x3B2B JUMPI PUSH4 0x4E487B71 PUSH1 0xE0 SHL PUSH1 0x0 MSTORE PUSH1 0x22 PUSH1 0x4 MSTORE PUSH1 0x24 PUSH1 0x0 REVERT JUMPDEST POP SWAP2 SWAP1 POP JUMP JUMPDEST PUSH1 0x0 PUSH1 0x0 NOT DUP3 EQ ISZERO PUSH2 0x3B45 JUMPI PUSH2 0x3B45 PUSH2 0x3B6C JUMP JUMPDEST POP PUSH1 0x1 ADD SWAP1 JUMP JUMPDEST PUSH1 0x0 PUSH1 0xFF DUP3 AND PUSH1 0xFF DUP2 EQ ISZERO PUSH2 0x3B63 JUMPI PUSH2 0x3B63 PUSH2 0x3B6C JUMP JUMPDEST PUSH1 0x1 ADD SWAP3 SWAP2 POP POP JUMP JUMPDEST PUSH4 0x4E487B71 PUSH1 0xE0 SHL PUSH1 0x0 MSTORE PUSH1 0x11 PUSH1 0x4 MSTORE PUSH1 0x24 PUSH1 0x0 REVERT JUMPDEST PUSH4 0x4E487B71 PUSH1 0xE0 SHL PUSH1 0x0 MSTORE PUSH1 0x32 PUSH1 0x4 MSTORE PUSH1 0x24 PUSH1 0x0 REVERT JUMPDEST PUSH4 0x4E487B71 PUSH1 0xE0 SHL PUSH1 0x0 MSTORE PUSH1 0x41 PUSH1 0x4 MSTORE PUSH1 0x24 PUSH1 0x0 REVERT JUMPDEST PUSH1 0x1 PUSH1 0x1 PUSH1 0xA0 SHL SUB DUP2 AND DUP2 EQ PUSH2 0x1930 JUMPI PUSH1 0x0 DUP1 REVERT JUMPDEST DUP1 ISZERO ISZERO DUP2 EQ PUSH2 0x1930 JUMPI PUSH1 0x0 DUP1 REVERT JUMPDEST PUSH1 0xFF DUP2 AND DUP2 EQ PUSH2 0x1930 JUMPI PUSH1 0x0 DUP1 REVERT INVALID LOG2 PUSH5 0x6970667358 0x22 SLT KECCAK256 PUSH12 0x5947C6A36AF243C07A7FECFE 0xD3 0xAC DUP11 0x1F 0xC3 0xCC SWAP1 0xBD EXTCODEHASH 0xCA 0xD4 0xC0 0xDE BALANCE 0xC3 DUP7 BALANCE GASPRICE 0xD6 PUSH5 0x736F6C6343 STOP ADDMOD SMOD STOP CALLER "
		},
		"gasEstimates": {
			"creation": {
				"codeDepositCost": "3076400",
				"executionCost": "infinite",
				"totalCost": "infinite"
			},
			"external": {
				"FinalizeRound()": "infinite",
				"HardCap()": "496",
				"ReclaimFunds(uint8)": "infinite",
				"RecoverLockedLP()": "infinite",
				"SoftCap()": "450",
				"addLogoAndWebsite(string,string,string)": "infinite",
				"bannerURI()": "infinite",
				"changeDevWallet(address)": "20894",
				"changemarsFee(uint256)": "20965",
				"claimCount()": "430",
				"depositPool(uint8)": "infinite",
				"devWallet()": "530",
				"editSoftCap(uint256)": "20754",
				"emergentWithdrawal(uint8)": "infinite",
				"endBlock()": "475",
				"endEarly()": "21123",
				"finalized()": "516",
				"harvestPool(uint8)": "infinite",
				"initialLockEpoch()": "519",
				"isLocked()": "566",
				"listingPrice()": "495",
				"lockDays()": "473",
				"logoURI()": "infinite",
				"marsFee()": "451",
				"numberPools()": "315",
				"offeringToken()": "595",
				"owner()": "502",
				"pair()": "507",
				"recoverWrongTokens(address,uint256)": "infinite",
				"renounceOwnership()": "22328",
				"router()": "572",
				"setHardCap()": "21242",
				"setPool(uint256,uint256,uint256,bool,uint8)": "infinite",
				"setPoolsAfterSendingTokens(uint256,uint256,uint256,uint256,uint256,uint256)": "infinite",
				"startBlock()": "540",
				"toLiquify()": "472",
				"transferOwnership(address)": "infinite",
				"treasury()": "596",
				"updateStartAndEndBlocks(uint256,uint256)": "42253",
				"userCount()": "453",
				"viewData()": "3036",
				"viewPoolInformation(uint256)": "2058",
				"viewPoolTaxRateOverflow(uint256)": "infinite",
				"viewUserAllocationPools(address,uint8[])": "infinite",
				"viewUserInfo(address,uint8[])": "infinite",
				"viewUserOfferingAndRefundingAmountsForPools(address,uint8[])": "infinite",
				"websiteURI()": "infinite",
				"withdawlBNB()": "infinite"
			},
			"internal": {
				"_calculateOfferingAndRefundingAmountsPool(address,uint8)": "infinite",
				"_calculateTaxOverflow(uint256,uint256)": "249",
				"_getUserAllocationPool(address,uint8)": "infinite",
				"_isContract(address)": "infinite",
				"liquifyLockAndSend()": "infinite"
			}
		},
		"methodIdentifiers": {
			"FinalizeRound()": "a5d927d4",
			"HardCap()": "5040c6e7",
			"ReclaimFunds(uint8)": "e0eae6e7",
			"RecoverLockedLP()": "0242e9ea",
			"SoftCap()": "f0b53256",
			"addLogoAndWebsite(string,string,string)": "502f511b",
			"bannerURI()": "66087e23",
			"changeDevWallet(address)": "bd8d8211",
			"changemarsFee(uint256)": "5e31bfe7",
			"claimCount()": "8da4d3c9",
			"depositPool(uint8)": "35b20af5",
			"devWallet()": "8ea5220f",
			"editSoftCap(uint256)": "4e4c36f8",
			"emergentWithdrawal(uint8)": "7e3f26f2",
			"endBlock()": "083c6323",
			"endEarly()": "ba99110a",
			"finalized()": "b3f05b97",
			"harvestPool(uint8)": "2374876c",
			"initialLockEpoch()": "24c26b58",
			"isLocked()": "a4e2d634",
			"listingPrice()": "c78f19f9",
			"lockDays()": "6e6ff8a9",
			"logoURI()": "6bb38b28",
			"marsFee()": "bad58c4e",
			"numberPools()": "b42392f1",
			"offeringToken()": "b7813607",
			"owner()": "8da5cb5b",
			"pair()": "a8aa1b31",
			"recoverWrongTokens(address,uint256)": "3f138d4b",
			"renounceOwnership()": "715018a6",
			"router()": "f887ea40",
			"setHardCap()": "2ce2fc68",
			"setPool(uint256,uint256,uint256,bool,uint8)": "45b8bf91",
			"setPoolsAfterSendingTokens(uint256,uint256,uint256,uint256,uint256,uint256)": "b4da5402",
			"startBlock()": "48cd4cb1",
			"toLiquify()": "f109c9ed",
			"transferOwnership(address)": "f2fde38b",
			"treasury()": "61d027b3",
			"updateStartAndEndBlocks(uint256,uint256)": "9513997f",
			"userCount()": "07973ccf",
			"viewData()": "7ba09759",
			"viewPoolInformation(uint256)": "46ab91bf",
			"viewPoolTaxRateOverflow(uint256)": "37f859b8",
			"viewUserAllocationPools(address,uint8[])": "f9cd5c12",
			"viewUserInfo(address,uint8[])": "4af3c9b7",
			"viewUserOfferingAndRefundingAmountsForPools(address,uint8[])": "ca463ca4",
			"websiteURI()": "92604bc4",
			"withdawlBNB()": "e799ffb1"
		}
	},
	"abi": [
		{
			"inputs": [
				{
					"internalType": "contract IBEP20",
					"name": "_offeringToken",
					"type": "address"
				},
				{
					"internalType": "address",
					"name": "_devWallet",
					"type": "address"
				},
				{
					"internalType": "uint256",
					"name": "_startEpoch",
					"type": "uint256"
				},
				{
					"internalType": "uint256",
					"name": "_endEpoch",
					"type": "uint256"
				},
				{
					"internalType": "uint256",
					"name": "_softCap",
					"type": "uint256"
				},
				{
					"internalType": "address",
					"name": "_treasury",
					"type": "address"
				},
				{
					"internalType": "uint256",
					"name": "_marsFee",
					"type": "uint256"
				},
				{
					"internalType": "address",
					"name": "_router",
					"type": "address"
				}
			],
			"stateMutability": "nonpayable",
			"type": "constructor"
		},
		{
			"anonymous": false,
			"inputs": [
				{
					"indexed": false,
					"internalType": "address",
					"name": "tokenAddress",
					"type": "address"
				},
				{
					"indexed": false,
					"internalType": "uint256",
					"name": "amountTokens",
					"type": "uint256"
				}
			],
			"name": "AdminTokenRecovery",
			"type": "event"
		},
		{
			"anonymous": false,
			"inputs": [
				{
					"indexed": false,
					"internalType": "uint256",
					"name": "amountLP",
					"type": "uint256"
				},
				{
					"indexed": false,
					"internalType": "uint256",
					"name": "amountOfferingToken",
					"type": "uint256"
				}
			],
			"name": "AdminWithdraw",
			"type": "event"
		},
		{
			"anonymous": false,
			"inputs": [
				{
					"indexed": true,
					"internalType": "address",
					"name": "user",
					"type": "address"
				},
				{
					"indexed": false,
					"internalType": "uint256",
					"name": "amount",
					"type": "uint256"
				},
				{
					"indexed": true,
					"internalType": "uint8",
					"name": "pid",
					"type": "uint8"
				}
			],
			"name": "Deposit",
			"type": "event"
		},
		{
			"anonymous": false,
			"inputs": [
				{
					"indexed": true,
					"internalType": "address",
					"name": "user",
					"type": "address"
				},
				{
					"indexed": false,
					"internalType": "uint256",
					"name": "offeringAmount",
					"type": "uint256"
				},
				{
					"indexed": false,
					"internalType": "uint256",
					"name": "excessAmount",
					"type": "uint256"
				},
				{
					"indexed": true,
					"internalType": "uint8",
					"name": "pid",
					"type": "uint8"
				}
			],
			"name": "Harvest",
			"type": "event"
		},
		{
			"anonymous": false,
			"inputs": [
				{
					"indexed": false,
					"internalType": "uint256",
					"name": "startBlock",
					"type": "uint256"
				},
				{
					"indexed": false,
					"internalType": "uint256",
					"name": "endBlock",
					"type": "uint256"
				}
			],
			"name": "NewStartAndEndBlocks",
			"type": "event"
		},
		{
			"anonymous": false,
			"inputs": [
				{
					"indexed": true,
					"internalType": "address",
					"name": "previousOwner",
					"type": "address"
				},
				{
					"indexed": true,
					"internalType": "address",
					"name": "newOwner",
					"type": "address"
				}
			],
			"name": "OwnershipTransferred",
			"type": "event"
		},
		{
			"anonymous": false,
			"inputs": [
				{
					"indexed": false,
					"internalType": "uint256",
					"name": "offeringAmountPool",
					"type": "uint256"
				},
				{
					"indexed": false,
					"internalType": "uint256",
					"name": "raisingAmountPool",
					"type": "uint256"
				},
				{
					"indexed": false,
					"internalType": "uint8",
					"name": "pid",
					"type": "uint8"
				}
			],
			"name": "PoolParametersSet",
			"type": "event"
		},
		{
			"inputs": [],
			"name": "FinalizeRound",
			"outputs": [],
			"stateMutability": "nonpayable",
			"type": "function"
		},
		{
			"inputs": [],
			"name": "HardCap",
			"outputs": [
				{
					"internalType": "uint256",
					"name": "",
					"type": "uint256"
				}
			],
			"stateMutability": "view",
			"type": "function"
		},
		{
			"inputs": [
				{
					"internalType": "uint8",
					"name": "_pid",
					"type": "uint8"
				}
			],
			"name": "ReclaimFunds",
			"outputs": [],
			"stateMutability": "nonpayable",
			"type": "function"
		},
		{
			"inputs": [],
			"name": "RecoverLockedLP",
			"outputs": [],
			"stateMutability": "nonpayable",
			"type": "function"
		},
		{
			"inputs": [],
			"name": "SoftCap",
			"outputs": [
				{
					"internalType": "uint256",
					"name": "",
					"type": "uint256"
				}
			],
			"stateMutability": "view",
			"type": "function"
		},
		{
			"inputs": [
				{
					"internalType": "string",
					"name": "_logo",
					"type": "string"
				},
				{
					"internalType": "string",
					"name": "_website",
					"type": "string"
				},
				{
					"internalType": "string",
					"name": "_bannerURI",
					"type": "string"
				}
			],
			"name": "addLogoAndWebsite",
			"outputs": [],
			"stateMutability": "nonpayable",
			"type": "function"
		},
		{
			"inputs": [],
			"name": "bannerURI",
			"outputs": [
				{
					"internalType": "string",
					"name": "",
					"type": "string"
				}
			],
			"stateMutability": "view",
			"type": "function"
		},
		{
			"inputs": [
				{
					"internalType": "address",
					"name": "_newDevWallet",
					"type": "address"
				}
			],
			"name": "changeDevWallet",
			"outputs": [],
			"stateMutability": "nonpayable",
			"type": "function"
		},
		{
			"inputs": [
				{
					"internalType": "uint256",
					"name": "_newmarsFee",
					"type": "uint256"
				}
			],
			"name": "changemarsFee",
			"outputs": [],
			"stateMutability": "nonpayable",
			"type": "function"
		},
		{
			"inputs": [],
			"name": "claimCount",
			"outputs": [
				{
					"internalType": "uint256",
					"name": "",
					"type": "uint256"
				}
			],
			"stateMutability": "view",
			"type": "function"
		},
		{
			"inputs": [
				{
					"internalType": "uint8",
					"name": "_pid",
					"type": "uint8"
				}
			],
			"name": "depositPool",
			"outputs": [],
			"stateMutability": "payable",
			"type": "function"
		},
		{
			"inputs": [],
			"name": "devWallet",
			"outputs": [
				{
					"internalType": "address",
					"name": "",
					"type": "address"
				}
			],
			"stateMutability": "view",
			"type": "function"
		},
		{
			"inputs": [
				{
					"internalType": "uint256",
					"name": "_newSoftCap",
					"type": "uint256"
				}
			],
			"name": "editSoftCap",
			"outputs": [],
			"stateMutability": "nonpayable",
			"type": "function"
		},
		{
			"inputs": [
				{
					"internalType": "uint8",
					"name": "_pid",
					"type": "uint8"
				}
			],
			"name": "emergentWithdrawal",
			"outputs": [],
			"stateMutability": "payable",
			"type": "function"
		},
		{
			"inputs": [],
			"name": "endBlock",
			"outputs": [
				{
					"internalType": "uint256",
					"name": "",
					"type": "uint256"
				}
			],
			"stateMutability": "view",
			"type": "function"
		},
		{
			"inputs": [],
			"name": "endEarly",
			"outputs": [],
			"stateMutability": "nonpayable",
			"type": "function"
		},
		{
			"inputs": [],
			"name": "finalized",
			"outputs": [
				{
					"internalType": "bool",
					"name": "",
					"type": "bool"
				}
			],
			"stateMutability": "view",
			"type": "function"
		},
		{
			"inputs": [
				{
					"internalType": "uint8",
					"name": "_pid",
					"type": "uint8"
				}
			],
			"name": "harvestPool",
			"outputs": [],
			"stateMutability": "nonpayable",
			"type": "function"
		},
		{
			"inputs": [],
			"name": "initialLockEpoch",
			"outputs": [
				{
					"internalType": "uint256",
					"name": "",
					"type": "uint256"
				}
			],
			"stateMutability": "view",
			"type": "function"
		},
		{
			"inputs": [],
			"name": "isLocked",
			"outputs": [
				{
					"internalType": "bool",
					"name": "",
					"type": "bool"
				}
			],
			"stateMutability": "view",
			"type": "function"
		},
		{
			"inputs": [],
			"name": "listingPrice",
			"outputs": [
				{
					"internalType": "uint256",
					"name": "",
					"type": "uint256"
				}
			],
			"stateMutability": "view",
			"type": "function"
		},
		{
			"inputs": [],
			"name": "lockDays",
			"outputs": [
				{
					"internalType": "uint256",
					"name": "",
					"type": "uint256"
				}
			],
			"stateMutability": "view",
			"type": "function"
		},
		{
			"inputs": [],
			"name": "logoURI",
			"outputs": [
				{
					"internalType": "string",
					"name": "",
					"type": "string"
				}
			],
			"stateMutability": "view",
			"type": "function"
		},
		{
			"inputs": [],
			"name": "marsFee",
			"outputs": [
				{
					"internalType": "uint256",
					"name": "",
					"type": "uint256"
				}
			],
			"stateMutability": "view",
			"type": "function"
		},
		{
			"inputs": [],
			"name": "numberPools",
			"outputs": [
				{
					"internalType": "uint8",
					"name": "",
					"type": "uint8"
				}
			],
			"stateMutability": "view",
			"type": "function"
		},
		{
			"inputs": [],
			"name": "offeringToken",
			"outputs": [
				{
					"internalType": "contract IBEP20",
					"name": "",
					"type": "address"
				}
			],
			"stateMutability": "view",
			"type": "function"
		},
		{
			"inputs": [],
			"name": "owner",
			"outputs": [
				{
					"internalType": "address",
					"name": "",
					"type": "address"
				}
			],
			"stateMutability": "view",
			"type": "function"
		},
		{
			"inputs": [],
			"name": "pair",
			"outputs": [
				{
					"internalType": "address",
					"name": "",
					"type": "address"
				}
			],
			"stateMutability": "view",
			"type": "function"
		},
		{
			"inputs": [
				{
					"internalType": "address",
					"name": "_tokenAddress",
					"type": "address"
				},
				{
					"internalType": "uint256",
					"name": "_tokenAmount",
					"type": "uint256"
				}
			],
			"name": "recoverWrongTokens",
			"outputs": [],
			"stateMutability": "nonpayable",
			"type": "function"
		},
		{
			"inputs": [],
			"name": "renounceOwnership",
			"outputs": [],
			"stateMutability": "nonpayable",
			"type": "function"
		},
		{
			"inputs": [],
			"name": "router",
			"outputs": [
				{
					"internalType": "contract IRouter",
					"name": "",
					"type": "address"
				}
			],
			"stateMutability": "view",
			"type": "function"
		},
		{
			"inputs": [],
			"name": "setHardCap",
			"outputs": [],
			"stateMutability": "nonpayable",
			"type": "function"
		},
		{
			"inputs": [
				{
					"internalType": "uint256",
					"name": "_offeringAmountPool",
					"type": "uint256"
				},
				{
					"internalType": "uint256",
					"name": "_raisingAmountPool",
					"type": "uint256"
				},
				{
					"internalType": "uint256",
					"name": "_limitPerUserInLP",
					"type": "uint256"
				},
				{
					"internalType": "bool",
					"name": "_hasTax",
					"type": "bool"
				},
				{
					"internalType": "uint8",
					"name": "_pid",
					"type": "uint8"
				}
			],
			"name": "setPool",
			"outputs": [],
			"stateMutability": "nonpayable",
			"type": "function"
		},
		{
			"inputs": [
				{
					"internalType": "uint256",
					"name": "offering1_Amount",
					"type": "uint256"
				},
				{
					"internalType": "uint256",
					"name": "_raiseBasic_Goal",
					"type": "uint256"
				},
				{
					"internalType": "uint256",
					"name": "_basicUserLimit1",
					"type": "uint256"
				},
				{
					"internalType": "uint256",
					"name": "_percentToLiquify",
					"type": "uint256"
				},
				{
					"internalType": "uint256",
					"name": "_listingPrice",
					"type": "uint256"
				},
				{
					"internalType": "uint256",
					"name": "_lockDays",
					"type": "uint256"
				}
			],
			"name": "setPoolsAfterSendingTokens",
			"outputs": [],
			"stateMutability": "nonpayable",
			"type": "function"
		},
		{
			"inputs": [],
			"name": "startBlock",
			"outputs": [
				{
					"internalType": "uint256",
					"name": "",
					"type": "uint256"
				}
			],
			"stateMutability": "view",
			"type": "function"
		},
		{
			"inputs": [],
			"name": "toLiquify",
			"outputs": [
				{
					"internalType": "uint256",
					"name": "",
					"type": "uint256"
				}
			],
			"stateMutability": "view",
			"type": "function"
		},
		{
			"inputs": [
				{
					"internalType": "address",
					"name": "newOwner",
					"type": "address"
				}
			],
			"name": "transferOwnership",
			"outputs": [],
			"stateMutability": "nonpayable",
			"type": "function"
		},
		{
			"inputs": [],
			"name": "treasury",
			"outputs": [
				{
					"internalType": "address",
					"name": "",
					"type": "address"
				}
			],
			"stateMutability": "view",
			"type": "function"
		},
		{
			"inputs": [
				{
					"internalType": "uint256",
					"name": "_startBlock",
					"type": "uint256"
				},
				{
					"internalType": "uint256",
					"name": "_endBlock",
					"type": "uint256"
				}
			],
			"name": "updateStartAndEndBlocks",
			"outputs": [],
			"stateMutability": "nonpayable",
			"type": "function"
		},
		{
			"inputs": [],
			"name": "userCount",
			"outputs": [
				{
					"internalType": "uint256",
					"name": "",
					"type": "uint256"
				}
			],
			"stateMutability": "view",
			"type": "function"
		},
		{
			"inputs": [],
			"name": "viewData",
			"outputs": [
				{
					"internalType": "uint256",
					"name": "StartBlock",
					"type": "uint256"
				},
				{
					"internalType": "uint256",
					"name": "EndBlock",
					"type": "uint256"
				},
				{
					"internalType": "uint256",
					"name": "softCap",
					"type": "uint256"
				},
				{
					"internalType": "uint256",
					"name": "hardCap",
					"type": "uint256"
				},
				{
					"internalType": "uint256",
					"name": "MarsFee",
					"type": "uint256"
				},
				{
					"internalType": "bool",
					"name": "Finalized",
					"type": "bool"
				},
				{
					"internalType": "address",
					"name": "DevWallet",
					"type": "address"
				},
				{
					"internalType": "uint256",
					"name": "ToLiquify",
					"type": "uint256"
				},
				{
					"internalType": "uint256",
					"name": "ListingPrice",
					"type": "uint256"
				},
				{
					"internalType": "uint256",
					"name": "LockDays",
					"type": "uint256"
				},
				{
					"internalType": "bool",
					"name": "IsLocked",
					"type": "bool"
				},
				{
					"internalType": "uint256",
					"name": "InitialLockEpoch",
					"type": "uint256"
				}
			],
			"stateMutability": "view",
			"type": "function"
		},
		{
			"inputs": [
				{
					"internalType": "uint256",
					"name": "_pid",
					"type": "uint256"
				}
			],
			"name": "viewPoolInformation",
			"outputs": [
				{
					"internalType": "uint256",
					"name": "",
					"type": "uint256"
				},
				{
					"internalType": "uint256",
					"name": "",
					"type": "uint256"
				},
				{
					"internalType": "uint256",
					"name": "",
					"type": "uint256"
				},
				{
					"internalType": "bool",
					"name": "",
					"type": "bool"
				},
				{
					"internalType": "uint256",
					"name": "",
					"type": "uint256"
				},
				{
					"internalType": "uint256",
					"name": "",
					"type": "uint256"
				}
			],
			"stateMutability": "view",
			"type": "function"
		},
		{
			"inputs": [
				{
					"internalType": "uint256",
					"name": "_pid",
					"type": "uint256"
				}
			],
			"name": "viewPoolTaxRateOverflow",
			"outputs": [
				{
					"internalType": "uint256",
					"name": "",
					"type": "uint256"
				}
			],
			"stateMutability": "view",
			"type": "function"
		},
		{
			"inputs": [
				{
					"internalType": "address",
					"name": "_user",
					"type": "address"
				},
				{
					"internalType": "uint8[]",
					"name": "_pids",
					"type": "uint8[]"
				}
			],
			"name": "viewUserAllocationPools",
			"outputs": [
				{
					"internalType": "uint256[]",
					"name": "",
					"type": "uint256[]"
				}
			],
			"stateMutability": "view",
			"type": "function"
		},
		{
			"inputs": [
				{
					"internalType": "address",
					"name": "_user",
					"type": "address"
				},
				{
					"internalType": "uint8[]",
					"name": "_pids",
					"type": "uint8[]"
				}
			],
			"name": "viewUserInfo",
			"outputs": [
				{
					"internalType": "uint256[]",
					"name": "",
					"type": "uint256[]"
				},
				{
					"internalType": "bool[]",
					"name": "",
					"type": "bool[]"
				}
			],
			"stateMutability": "view",
			"type": "function"
		},
		{
			"inputs": [
				{
					"internalType": "address",
					"name": "_user",
					"type": "address"
				},
				{
					"internalType": "uint8[]",
					"name": "_pids",
					"type": "uint8[]"
				}
			],
			"name": "viewUserOfferingAndRefundingAmountsForPools",
			"outputs": [
				{
					"internalType": "uint256[3][]",
					"name": "",
					"type": "uint256[3][]"
				}
			],
			"stateMutability": "view",
			"type": "function"
		},
		{
			"inputs": [],
			"name": "websiteURI",
			"outputs": [
				{
					"internalType": "string",
					"name": "",
					"type": "string"
				}
			],
			"stateMutability": "view",
			"type": "function"
		},
		{
			"inputs": [],
			"name": "withdawlBNB",
			"outputs": [],
			"stateMutability": "nonpayable",
			"type": "function"
		},
		{
			"stateMutability": "payable",
			"type": "receive"
		}
	]
}