{
	"data": {
		"bytecode": {
			"linkReferences": {},
			"object": "608060405260405162007d8d38038062007d8d833981016040819052620000269162001ddb565b62000031336200117f565b60405160009073449183e39d76fa4c1f516d3ea2feed3e8c99e8f19034908381818185875af1925050503d806000811462000089576040519150601f19603f3d011682016040523d82523d6000602084013e6200008e565b606091505b5050905080620000e55760405162461bcd60e51b815260206004820152601460248201527f6661696c20746f207472616e736665722066656500000000000000000000000060448201526064015b60405180910390fd5b604051620000f39062001bbf565b604051809103906000f08015801562000110573d6000803e3d6000fd5b50601c80546001600160a01b0319166001600160a01b03928316179055604086015160018054919092166001600160a81b031990911617600160a01b60ff8c1602179055600a620001628c8262001f69565b50600b620001718b8262001f69565b50600788905562000185886000196200204b565b620001939060001962002078565b60088190556001600160a01b03838116600090815260026020526040902091909155855116620002065760405162461bcd60e51b815260206004820152601d60248201527f6d61726b6574696e672077616c6c65742063616e206e6f7420626520300000006044820152606401620000dc565b60208501516001600160a01b0316620002625760405162461bcd60e51b815260206004820152601b60248201527f526f7574657220616464726573732063616e206e6f74206265203000000000006044820152606401620000dc565b60608501516001600160a01b0316620002be5760405162461bcd60e51b815260206004820152601c60248201527f54726561737572792077616c6c65742063616e206e6f742062652030000000006044820152606401620000dc565b845160608601516001600160a01b03918216911603620003475760405162461bcd60e51b815260206004820152603560248201527f54726561737572792077616c6c65742063616e206e6f742062652073616d652060448201527f77697468206d61726b6574696e672077616c6c657400000000000000000000006064820152608401620000dc565b61010083015160c084015160808501516040860151865161012c94939291620003709162002094565b6200037c919062002094565b62000388919062002094565b62000394919062002094565b61ffff161115620003e85760405162461bcd60e51b815260206004820152601560248201527f73656c6c20746f74616c20666565203c3d2033302500000000000000000000006044820152606401620000dc565b61012083015160e084015160a08501516060860151602087015161012c94939291620004149162002094565b62000420919062002094565b6200042c919062002094565b62000438919062002094565b61ffff1611156200048c5760405162461bcd60e51b815260206004820152601460248201527f62757920746f74616c20666565203c3d203330250000000000000000000000006044820152606401620000dc565b8251609661ffff90911610620004d65760405162461bcd60e51b815260206004820152600e60248201526d6561636820666565203c2031352560901b6044820152606401620000dc565b6096836001602002015161ffff1610620005245760405162461bcd60e51b815260206004820152600e60248201526d6561636820666565203c2031352560901b6044820152606401620000dc565b6096836002602002015161ffff1610620005725760405162461bcd60e51b815260206004820152600e60248201526d6561636820666565203c2031352560901b6044820152606401620000dc565b6096836003602002015161ffff1610620005c05760405162461bcd60e51b815260206004820152600e60248201526d6561636820666565203c2031352560901b6044820152606401620000dc565b6096836004602002015161ffff16106200060e5760405162461bcd60e51b815260206004820152600e60248201526d6561636820666565203c2031352560901b6044820152606401620000dc565b6096836005602002015161ffff16106200065c5760405162461bcd60e51b815260206004820152600e60248201526d6561636820666565203c2031352560901b6044820152606401620000dc565b6096836006602002015161ffff1610620006aa5760405162461bcd60e51b815260206004820152600e60248201526d6561636820666565203c2031352560901b6044820152606401620000dc565b6096836007602002015161ffff1610620006f85760405162461bcd60e51b815260206004820152600e60248201526d6561636820666565203c2031352560901b6044820152606401620000dc565b6096836008602002015161ffff1610620007465760405162461bcd60e51b815260206004820152600e60248201526d6561636820666565203c2031352560901b6044820152606401620000dc565b6096836009602002015161ffff1610620007945760405162461bcd60e51b815260206004820152600e60248201526d6561636820666565203c2031352560901b6044820152606401620000dc565b8451601780546060880151601880546001600160a01b039283166001600160a01b031991909116179055871515600160a01b9081026001600160a81b0319909316948216948517831793849055604080519190940460ff16151581526000602082018190529492909116909117917fc8dfdd9b91ac62ee1bd8be3541ea02d8e584461c794c6e49e94ccf21c71ebcca910160405180910390a36018546040516000916001600160a01b0316907f79a52cbec002ef70283103eb4140713100276944fca2819713130141d04df183908390a3602085810151601d80546001600160a01b0319166001600160a01b039092169182179055604080516315ab88c960e31b81529051919263ad5c4648926004808401938290030181865afa158015620008c1573d6000803e3d6000fd5b505050506040513d601f19601f82011682018060405250810190620008e79190620020b9565b6001546001600160a01b039081169116146200097c57600154601d5460405163095ea7b360e01b81526001600160a01b039182166004820152600019602482015291169063095ea7b3906044016020604051808303816000875af115801562000954573d6000803e3d6000fd5b505050506040513d601f19601f820116820180604052508101906200097a9190620020d7565b505b601c54620009989030906001600160a01b0316600019620011cf565b601d54620009b49030906001600160a01b0316600019620011cf565b601d546040516000916001600160a01b0316907f8fc842bbd331dfa973645f4ed48b11683d501ebf1352708d77a5da2ab49a576e908390a3601d60009054906101000a90046001600160a01b03166001600160a01b031663c45a01556040518163ffffffff1660e01b8152600401602060405180830381865afa15801562000a40573d6000803e3d6000fd5b505050506040513d601f19601f8201168201806040525081019062000a669190620020b9565b6001546040516364e329cb60e11b81523060048201526001600160a01b03918216602482015291169063c9c65396906044016020604051808303816000875af115801562000ab8573d6000803e3d6000fd5b505050506040513d601f19601f8201168201806040525081019062000ade9190620020b9565b601e80546001600160a01b0319166001600160a01b039290921691909117905582516016805460208087015163ffffffff60281b1990921661ffff9485166501000000000090810261ffff60381b19169190911767010000000000000093861684021793849055604080519185048616825292909304909316928201929092526000818301819052606082015290517f95c5c99557725e816faf752c6675d63483841c28a7a009ed792470a9cb4dea239181900360800190a16040838101516016805460608088015163ffffffff60481b1990921661ffff948516690100000000000000000090810261ffff60581b1916919091176b0100000000000000000000009386168402179384905585519084048516815291909204909216602083015260008284018190529082015290517f1d6b62961d401d548eb1549c97109c0b905ccd7af9c3777d3076cc8438fdfe659181900360800190a160c08301516016805460e086015163ffffffff60681b1990911661ffff9384166d010000000000000000000000000090810261ffff60781b191691909117600160781b9285168302179283905560408051918404851682529190920490921660208201526000818301819052606082015290517f2893ef6309f9df0d45b134fcb021eb854592432db91782f02ce6b9029d1470319181900360800190a16101008301516016805461012086015163ffffffff60881b1990911661ffff938416600160881b90810261ffff60981b191691909117600160981b9285168302179283905560408051918404851682529190920490921660208201526000818301819052606082015290517f01f5c7a45d273917dfc98816f1dd17a88893a7338e7beaa4d305fc8c84f8fe259181900360800190a16080808401516016805460a087015161ffff908116630100000090810264ffff0000001961010096841687021664ffffffff00199094169390931792909217928390556040805194840482168552919092049091166020830152600090820181905260608201527f0a21d45dab14d5d2f53ae98d95d951cd627fcf1b5bc485174326568b5e0a4572910160405180910390a162000e0961271089620020f5565b601981905560408051918252600060208301527f772a06bc936eb749842080c472181e970cd4f23bd1ab7d0b84a80aec26910434910160405180910390a162000e5561271089620020f5565b86101562000ebb5760405162461bcd60e51b815260206004820152602c60248201527f6d61785472616e73616374696f6e416d6f756e74203e3d20746f74616c20737560448201526b070706c79202f2031303030360a41b6064820152608401620000dc565b62000ec961271089620020f5565b87101562000f245760405162461bcd60e51b815260206004820152602160248201527f6d617857616c6c6574203e3d20746f74616c20737570706c79202f20313030306044820152600360fc1b6064820152608401620000dc565b601a87905560408051888152600060208201527fff64d41f60feb77d52f64ae64a9fc3929d57a89d0cc55728762468bae5e0fe52910160405180910390a1601b86905560408051878152600060208201527f35eec0711af6fbe3039535323be51b57996b6945b0d55862607c7a02e52e4507910160405180910390a1600560209081527f7d509c07f0d4edcc2dd1b53aae68677132eb562dcba78e36381b63ccaf66e6ba8054600160ff19918216811790925560068054808401825560008051602062007d6d833981519152908101805461dead6001600160a01b0319918216179091553060008181526040808220805488168917905585548089019096559490930180549092168117909155601f86528282208054851686179055601780546001600160a01b0390811684528484208054871688179055601880548216855285852080548816891790558a8216808652868620805489168a1790557fef94442dfc0e910ca743614215a10fad3ff708bf5378f9c5c958c9192b3bf004805489168a1790559880527fcbaad361c71be11fa6bdbe0e740c6259be964b32182da2da47b54472477c6a17805488168917905592845284842080548716881790559054811683528383208054861687179055905481168252828220805485168617905594815220805490911682179055601e5462001122921690620012f7565b6200112d8262001436565b6040518881526001600160a01b038316906000907fddf252ad1be2c89b69c2b068fc378daa952ba7f163c4a11628f55a4df523b3ef9060200160405180910390a350505050505050505050506200216e565b600080546001600160a01b038381166001600160a01b0319831681178455604051919092169283917f8be0079c531659141344cd1fd0a4f28419497f9722a3daafe3b4186f6b6457e09190a35050565b6001600160a01b038316620012335760405162461bcd60e51b8152602060048201526024808201527f45524332303a20617070726f76652066726f6d20746865207a65726f206164646044820152637265737360e01b6064820152608401620000dc565b6001600160a01b038216620012965760405162461bcd60e51b815260206004820152602260248201527f45524332303a20617070726f766520746f20746865207a65726f206164647265604482015261737360f01b6064820152608401620000dc565b6001600160a01b0383811660008181526004602090815260408083209487168084529482529182902085905590518481527f8c5be1e5ebec7d5bd14f71427d1e84f3dd0314c0f7b2291e5b200ac8c7c3b925910160405180910390a3505050565b6001600160a01b03821660009081526021602052604090205481151560ff9091161515036200138f5760405162461bcd60e51b815260206004820152603860248201527f4175746f6d61746564206d61726b6574206d616b65722070616972206973206160448201527f6c72656164792073657420746f20746861742076616c756500000000000000006064820152608401620000dc565b6001600160a01b0382166000908152602160205260409020805460ff19168215801591909117909155620013ce57620013c882620014f6565b620013d9565b620013d982620016fd565b6001600160a01b03821660008181526020808052604091829020805460ff191685151590811790915591519182527fffa9187bf1f18bf477bd0ea1bcbb64e93b6a98132473929edfce215cd9b16fab910160405180910390a25050565b6000546001600160a01b03163314620014815760405162461bcd60e51b8152602060048201819052602482015260008051602062007d4d8339815191526044820152606401620000dc565b6001600160a01b038116620014e85760405162461bcd60e51b815260206004820152602660248201527f4f776e61626c653a206e6577206f776e657220697320746865207a65726f206160448201526564647265737360d01b6064820152608401620000dc565b620014f3816200117f565b50565b6000546001600160a01b03163314620015415760405162461bcd60e51b8152602060048201819052602482015260008051602062007d4d8339815191526044820152606401620000dc565b6001600160a01b03811660009081526005602052604090205460ff1615620015ac5760405162461bcd60e51b815260206004820152601b60248201527f4163636f756e7420697320616c7265616479206578636c7564656400000000006044820152606401620000dc565b600654603290620015bf9060016200210c565b11156200164b5760405162461bcd60e51b815260206004820152604d60248201527f43616e6e6f74206578636c756465206d6f7265207468616e203530206163636f60448201527f756e74732e2020496e636c75646520612070726576696f75736c79206578636c60648201526c3ab232b21030b2323932b9b99760991b608482015260a401620000dc565b6001600160a01b03811660009081526002602052604090205415620016a8576001600160a01b0381166000908152600260205260409020546200168e9062001973565b6001600160a01b0382166000908152600360205260409020555b6001600160a01b03166000818152600560205260408120805460ff1916600190811790915560068054918201815590915260008051602062007d6d8339815191520180546001600160a01b0319169091179055565b6000546001600160a01b03163314620017485760405162461bcd60e51b8152602060048201819052602482015260008051602062007d4d8339815191526044820152606401620000dc565b6001600160a01b03811660009081526005602052604090205460ff16620017b25760405162461bcd60e51b815260206004820152601760248201527f4163636f756e74206973206e6f74206578636c756465640000000000000000006044820152606401620000dc565b60005b6006548110156200196f57816001600160a01b031660068281548110620017e057620017e062001ec4565b6000918252602090912001546001600160a01b0316036200195a576001600160a01b0382166000908152600260205260409020546200181e620019fd565b6001600160a01b03841660009081526003602052604090205462001843919062002122565b6001600160a01b03841660009081526002602052604090208190556008546200186e90839062002078565b6200187a91906200210c565b6008556001600160a01b0383166000908152600560205260409020805460ff1916905560068054620018af9060019062002078565b81548110620018c257620018c262001ec4565b600091825260209091200154600680546001600160a01b039092169184908110620018f157620018f162001ec4565b9060005260206000200160006101000a8154816001600160a01b0302191690836001600160a01b0316021790555060068054806200193357620019336200213c565b600082815260209020810160001990810180546001600160a01b0319169055019055505050565b80620019668162002152565b915050620017b5565b5050565b6000600854821115620019dc5760405162461bcd60e51b815260206004820152602a60248201527f416d6f756e74206d757374206265206c657373207468616e20746f74616c207260448201526965666c656374696f6e7360b01b6064820152608401620000dc565b6000620019e8620019fd565b9050620019f68184620020f5565b9392505050565b6000808062001a0b62001a23565b909250905062001a1c8183620020f5565b9250505090565b6008546007546000918291825b60065481101562001b8b5782600260006006848154811062001a565762001a5662001ec4565b60009182526020808320909101546001600160a01b03168352820192909252604001902054118062001ac5575081600360006006848154811062001a9e5762001a9e62001ec4565b60009182526020808320909101546001600160a01b03168352820192909252604001902054115b1562001adc57600854600754945094505050509091565b600260006006838154811062001af65762001af662001ec4565b60009182526020808320909101546001600160a01b0316835282019290925260400190205462001b27908462002078565b9250600360006006838154811062001b435762001b4362001ec4565b60009182526020808320909101546001600160a01b0316835282019290925260400190205462001b74908362002078565b91508062001b828162002152565b91505062001a30565b5060075460085462001b9e9190620020f5565b82101562001bb6576008546007549350935050509091565b90939092509050565b61063b806200771283390190565b634e487b7160e01b600052604160045260246000fd5b604051601f8201601f191681016001600160401b038111828210171562001c0e5762001c0e62001bcd565b604052919050565b600082601f83011262001c2857600080fd5b81516001600160401b0381111562001c445762001c4462001bcd565b602062001c5a601f8301601f1916820162001be3565b828152858284870101111562001c6f57600080fd5b60005b8381101562001c8f57858101830151828201840152820162001c72565b506000928101909101919091529392505050565b805160ff8116811462001cb557600080fd5b919050565b80516001600160a01b038116811462001cb557600080fd5b600082601f83011262001ce457600080fd5b604051608081016001600160401b038111828210171562001d095762001d0962001bcd565b60405280608084018581111562001d1f57600080fd5b845b8181101562001d445762001d358162001cba565b83526020928301920162001d21565b509195945050505050565b8051801515811462001cb557600080fd5b600082601f83011262001d7257600080fd5b6040516101408082016001600160401b038111838210171562001d995762001d9962001bcd565b6040528301818582111562001dad57600080fd5b845b8281101562001d4457805161ffff8116811462001dcc5760008081fd5b82526020918201910162001daf565b6000806000806000806000806000806102c08b8d03121562001dfc57600080fd5b8a516001600160401b038082111562001e1457600080fd5b62001e228e838f0162001c16565b9b5060208d015191508082111562001e3957600080fd5b5062001e488d828e0162001c16565b99505062001e5960408c0162001ca3565b975060608b0151965060808b0151955060a08b0151945062001e7f8c60c08d0162001cd2565b935062001e906101408c0162001d4f565b925062001ea28c6101608d0162001d60565b915062001eb36102a08c0162001cba565b90509295989b9194979a5092959850565b634e487b7160e01b600052603260045260246000fd5b600181811c9082168062001eef57607f821691505b60208210810362001f1057634e487b7160e01b600052602260045260246000fd5b50919050565b601f82111562001f6457600081815260208120601f850160051c8101602086101562001f3f5750805b601f850160051c820191505b8181101562001f605782815560010162001f4b565b5050505b505050565b81516001600160401b0381111562001f855762001f8562001bcd565b62001f9d8162001f96845462001eda565b8462001f16565b602080601f83116001811462001fd5576000841562001fbc5750858301515b600019600386901b1c1916600185901b17855562001f60565b600085815260208120601f198616915b82811015620020065788860151825594840194600190910190840162001fe5565b5085821015620020255787850151600019600388901b60f8161c191681555b5050505050600190811b01905550565b634e487b7160e01b600052601260045260246000fd5b6000826200205d576200205d62002035565b500690565b634e487b7160e01b600052601160045260246000fd5b818103818111156200208e576200208e62002062565b92915050565b61ffff818116838216019080821115620020b257620020b262002062565b5092915050565b600060208284031215620020cc57600080fd5b620019f68262001cba565b600060208284031215620020ea57600080fd5b620019f68262001d4f565b60008262002107576200210762002035565b500490565b808201808211156200208e576200208e62002062565b80820281158282048414176200208e576200208e62002062565b634e487b7160e01b600052603160045260246000fd5b60006001820162002167576200216762002062565b5060010190565b615594806200217e6000396000f3fe6080604052600436106103a65760003560e01c806385af30c5116101e7578063c8c8ebe41161010d578063e71dc3f5116100a0578063f420d00f1161006f578063f420d00f14610b54578063f637434214610b74578063f8b45b0514610b96578063fc59d23d14610bac57600080fd5b8063e71dc3f514610ac1578063e9481eee14610ae3578063f11a24d314610b12578063f2fde38b14610b3457600080fd5b8063dd62ed3e116100dc578063dd62ed3e14610a26578063de0aad5314610a6c578063df8408fe14610a8c578063e086e5ec14610aac57600080fd5b8063c8c8ebe4146109b0578063cf089e13146109c6578063cf188ad0146109e6578063d68f8cde14610a0657600080fd5b8063948384dc11610185578063a9059cbb11610154578063a9059cbb1461091e578063aa4980231461093e578063adb873bd1461095e578063b62496f51461098057600080fd5b8063948384dc146108a957806395d89b41146108c95780639a7a23d6146108de578063a457c2d7146108fe57600080fd5b80638da5cb5b116101c15780638da5cb5b146108415780638f0bc1671461085f57806391c1004a14610867578063921369131461088757600080fd5b806385af30c5146107c857806388f82020146107e8578063894760691461082157600080fd5b80634707c551116102cc57806370a082311161026a5780637bce5a04116102395780637bce5a04146107465780637cf84bd714610768578063809d458d146107885780638276e5b0146107a857600080fd5b806370a08231146106d1578063715018a6146106f157806373b9e82c1461070657806375f0a8741461072657600080fd5b806357e62b98116102a657806357e62b981461064c5780635c068a8c1461066d57806365b8dbc01461068f5780636b2fb124146106af57600080fd5b80634707c551146105dc57806352390c02146105fc5780635342acb41461061c57600080fd5b806323b872dd116103445780633685d419116103135780633685d4191461054457806339509351146105645780634549b039146105845780634626402b146105a457600080fd5b806323b872dd146104b85780632ae2f121146104d85780632d838119146104f8578063313ce5671461051857600080fd5b806313114a9d1161038057806313114a9d1461044257806318160ddd146104615780631c499ab0146104765780632073bd851461049857600080fd5b806306fdde03146103b2578063095ea7b3146103dd5780630cfe2f3f1461040d57600080fd5b366103ad57005b600080fd5b3480156103be57600080fd5b506103c7610bc2565b6040516103d49190614f99565b60405180910390f35b3480156103e957600080fd5b506103fd6103f8366004614fe1565b610c54565b60405190151581526020016103d4565b34801561041957600080fd5b5060165461042f906301000000900461ffff1681565b60405161ffff90911681526020016103d4565b34801561044e57600080fd5b506009545b6040519081526020016103d4565b34801561046d57600080fd5b50600754610453565b34801561048257600080fd5b5061049661049136600461500d565b610c6b565b005b3480156104a457600080fd5b506104966104b336600461503d565b610d49565b3480156104c457600080fd5b506103fd6104d3366004615070565b610f48565b3480156104e457600080fd5b506104966104f33660046150bf565b610f9b565b34801561050457600080fd5b5061045361051336600461500d565b61107c565b34801561052457600080fd5b50600154600160a01b900460ff1660405160ff90911681526020016103d4565b34801561055057600080fd5b5061049661055f3660046150f8565b6110f9565b34801561057057600080fd5b506103fd61057f366004614fe1565b611331565b34801561059057600080fd5b5061045361059f366004615115565b611368565b3480156105b057600080fd5b506018546105c4906001600160a01b031681565b6040516001600160a01b0390911681526020016103d4565b3480156105e857600080fd5b506104966105f73660046150bf565b611415565b34801561060857600080fd5b506104966106173660046150f8565b611579565b34801561062857600080fd5b506103fd6106373660046150f8565b601f6020526000908152604090205460ff1681565b34801561065857600080fd5b506017546103fd90600160a01b900460ff1681565b34801561067957600080fd5b5060165461042f90600160781b900461ffff1681565b34801561069b57600080fd5b506104966106aa3660046150f8565b611767565b3480156106bb57600080fd5b5060165461042f90600160681b900461ffff1681565b3480156106dd57600080fd5b506104536106ec3660046150f8565b611b92565b3480156106fd57600080fd5b50610496611bf1565b34801561071257600080fd5b5061049661072136600461500d565b611c27565b34801561073257600080fd5b506017546105c4906001600160a01b031681565b34801561075257600080fd5b5060165461042f90600160581b900461ffff1681565b34801561077457600080fd5b506001546105c4906001600160a01b031681565b34801561079457600080fd5b506104966107a33660046150f8565b611cdc565b3480156107b457600080fd5b506104966107c336600461503d565b611e80565b3480156107d457600080fd5b50601e546105c4906001600160a01b031681565b3480156107f457600080fd5b506103fd6108033660046150f8565b6001600160a01b031660009081526005602052604090205460ff1690565b34801561082d57600080fd5b5061049661083c3660046150f8565b61207f565b34801561084d57600080fd5b506000546001600160a01b03166105c4565b61049661217d565b34801561087357600080fd5b506104966108823660046150f8565b6125d5565b34801561089357600080fd5b5060165461042f90600160481b900461ffff1681565b3480156108b557600080fd5b506104966108c436600461503d565b6128d9565b3480156108d557600080fd5b506103c7612ad4565b3480156108ea57600080fd5b506104966108f93660046150bf565b612ae3565b34801561090a57600080fd5b506103fd610919366004614fe1565b612b17565b34801561092a57600080fd5b506103fd610939366004614fe1565b612b4e565b34801561094a57600080fd5b5061049661095936600461500d565b612b5b565b34801561096a57600080fd5b5060165461042f90600160881b900461ffff1681565b34801561098c57600080fd5b506103fd61099b3660046150f8565b60216020526000908152604090205460ff1681565b3480156109bc57600080fd5b50610453601b5481565b3480156109d257600080fd5b506104966109e136600461503d565b612c3b565b3480156109f257600080fd5b50601d546105c4906001600160a01b031681565b348015610a1257600080fd5b50610496610a2136600461503d565b612e40565b348015610a3257600080fd5b50610453610a4136600461513a565b6001600160a01b03918216600090815260046020908152604080832093909416825291909152205490565b348015610a7857600080fd5b5060165461042f90610100900461ffff1681565b348015610a9857600080fd5b50610496610aa73660046150bf565b613045565b348015610ab857600080fd5b50610496613121565b348015610acd57600080fd5b5060165461042f90600160981b900461ffff1681565b348015610aef57600080fd5b506103fd610afe3660046150f8565b602080526000908152604090205460ff1681565b348015610b1e57600080fd5b5060165461042f90600160381b900461ffff1681565b348015610b4057600080fd5b50610496610b4f3660046150f8565b6131e5565b348015610b6057600080fd5b50601c546105c4906001600160a01b031681565b348015610b8057600080fd5b5060165461042f90600160281b900461ffff1681565b348015610ba257600080fd5b50610453601a5481565b348015610bb857600080fd5b5061045360195481565b6060600a8054610bd190615168565b80601f0160208091040260200160405190810160405280929190818152602001828054610bfd90615168565b8015610c4a5780601f10610c1f57610100808354040283529160200191610c4a565b820191906000526020600020905b815481529060010190602001808311610c2d57829003601f168201915b5050505050905090565b6000610c6133848461327d565b5060015b92915050565b6000546001600160a01b03163314610c9e5760405162461bcd60e51b8152600401610c95906151a2565b60405180910390fd5b612710600754610cae91906151ed565b811015610d075760405162461bcd60e51b815260206004820152602160248201527f6d617857616c6c6574203e3d20746f74616c20737570706c79202f20313030306044820152600360fc1b6064820152608401610c95565b601a546040805183815260208101929092527fff64d41f60feb77d52f64ae64a9fc3929d57a89d0cc55728762468bae5e0fe52910160405180910390a1601a55565b6000546001600160a01b03163314610d735760405162461bcd60e51b8152600401610c95906151a2565b60165461012c9061ffff6101008204811691600160681b8104821691600160481b8204811691610dac91600160281b909104168761520f565b610db6919061520f565b610dc0919061520f565b610dca919061520f565b61ffff161115610dec5760405162461bcd60e51b8152600401610c959061522a565b60165461012c9061ffff63010000008204811691600160781b8104821691600160581b8204811691610e2791600160381b909104168661520f565b610e31919061520f565b610e3b919061520f565b610e45919061520f565b61ffff161115610e675760405162461bcd60e51b8152600401610c9590615259565b60968261ffff161115610e8c5760405162461bcd60e51b8152600401610c9590615287565b60968161ffff161115610eb15760405162461bcd60e51b8152600401610c95906152b0565b6016546040805161ffff85811682528481166020830152600160881b8404811682840152600160981b9093049092166060830152517f01f5c7a45d273917dfc98816f1dd17a88893a7338e7beaa4d305fc8c84f8fe259181900360800190a16016805463ffffffff60881b1916600160881b61ffff9485160261ffff60981b191617600160981b9290931691909102919091179055565b6000610f558484846133a1565b6001600160a01b038416600090815260046020908152604080832033808552925290912054610f90918691610f8b9086906152d8565b61327d565b5060015b9392505050565b6000546001600160a01b03163314610fc55760405162461bcd60e51b8152600401610c95906151a2565b6001600160a01b038216600090815260208052604090205481151560ff90911615150361101e5760405162461bcd60e51b8152602060048201526007602482015266616c726561647960c81b6044820152606401610c95565b6001600160a01b03821660008181526020808052604091829020805460ff191685151590811790915591519182527f82170bbd72c16b30c410014b7382121a699ed119a182e48a0b6cadcc89104ac991015b60405180910390a25050565b60006008548211156110e35760405162461bcd60e51b815260206004820152602a60248201527f416d6f756e74206d757374206265206c657373207468616e20746f74616c207260448201526965666c656374696f6e7360b01b6064820152608401610c95565b60006110ed613760565b9050610f9481846151ed565b6000546001600160a01b031633146111235760405162461bcd60e51b8152600401610c95906151a2565b6001600160a01b03811660009081526005602052604090205460ff1661118b5760405162461bcd60e51b815260206004820152601760248201527f4163636f756e74206973206e6f74206578636c756465640000000000000000006044820152606401610c95565b60005b60065481101561132d57816001600160a01b0316600682815481106111b5576111b56152eb565b6000918252602090912001546001600160a01b03160361131b576001600160a01b0382166000908152600260205260409020546111f0613760565b6001600160a01b0384166000908152600360205260409020546112139190615301565b6001600160a01b038416600090815260026020526040902081905560085461123c9083906152d8565b6112469190615318565b6008556001600160a01b0383166000908152600560205260409020805460ff1916905560068054611279906001906152d8565b81548110611289576112896152eb565b600091825260209091200154600680546001600160a01b0390921691849081106112b5576112b56152eb565b9060005260206000200160006101000a8154816001600160a01b0302191690836001600160a01b0316021790555060068054806112f4576112f461532b565b600082815260209020810160001990810180546001600160a01b0319169055019055505050565b8061132581615341565b91505061118e565b5050565b3360008181526004602090815260408083206001600160a01b03871684529091528120549091610c61918590610f8b908690615318565b60006007548311156113bc5760405162461bcd60e51b815260206004820152601f60248201527f416d6f756e74206d757374206265206c657373207468616e20737570706c79006044820152606401610c95565b60006113c6613760565b9050826113e35760006113d98286615301565b9250610c65915050565b60006113ee85613783565b50505050509050600082826114039190615301565b9350610c6592505050565b5092915050565b6000546001600160a01b0316331461143f5760405162461bcd60e51b8152600401610c95906151a2565b6001600160a01b0382166114955760405162461bcd60e51b815260206004820152601b60248201527f6d61726b6574696e672077616c6c65742063616e2774206265203000000000006044820152606401610c95565b6018546001600160a01b03908116908316036114c35760405162461bcd60e51b8152600401610c959061535a565b601754604080518315158152600160a01b830460ff16151560208201526001600160a01b03928316928516917fc8dfdd9b91ac62ee1bd8be3541ea02d8e584461c794c6e49e94ccf21c71ebcca910160405180910390a360178054911515600160a01b026001600160a81b03199092166001600160a01b039093169283179190911790556000908152601f60209081526040808320805460ff199081166001908117909255928052922080549091169091179055565b6000546001600160a01b031633146115a35760405162461bcd60e51b8152600401610c95906151a2565b6001600160a01b03811660009081526005602052604090205460ff161561160c5760405162461bcd60e51b815260206004820152601b60248201527f4163636f756e7420697320616c7265616479206578636c7564656400000000006044820152606401610c95565b60065460329061161d906001615318565b11156116a75760405162461bcd60e51b815260206004820152604d60248201527f43616e6e6f74206578636c756465206d6f7265207468616e203530206163636f60448201527f756e74732e2020496e636c75646520612070726576696f75736c79206578636c60648201526c3ab232b21030b2323932b9b99760991b608482015260a401610c95565b6001600160a01b03811660009081526002602052604090205415611701576001600160a01b0381166000908152600260205260409020546116e79061107c565b6001600160a01b0382166000908152600360205260409020555b6001600160a01b03166000818152600560205260408120805460ff191660019081179091556006805491820181559091527ff652222313e28459528d920b65115c16c04f3efc82aaedc97be59f3f377c0d3f0180546001600160a01b0319169091179055565b6000546001600160a01b031633146117915760405162461bcd60e51b8152600401610c95906151a2565b601d546001600160a01b03908116908216036117fb5760405162461bcd60e51b815260206004820152602360248201527f54686520726f7574657220616c7265616479206861732074686174206164647260448201526265737360e81b6064820152608401610c95565b601d546040516001600160a01b03918216918316907f8fc842bbd331dfa973645f4ed48b11683d501ebf1352708d77a5da2ab49a576e90600090a3601d80546001600160a01b0319166001600160a01b0383169081179091556040805163c45a015560e01b8152905163c45a0155916004808201926020929091908290030181865afa15801561188f573d6000803e3d6000fd5b505050506040513d601f19601f820116820180604052508101906118b391906153ad565b60015460405163e6a4390560e01b81523060048201526001600160a01b03918216602482015291169063e6a4390590604401602060405180830381865afa158015611902573d6000803e3d6000fd5b505050506040513d601f19601f8201168201806040525081019061192691906153ad565b601e80546001600160a01b0319166001600160a01b03929092169182179055611a5657601d60009054906101000a90046001600160a01b03166001600160a01b031663c45a01556040518163ffffffff1660e01b8152600401602060405180830381865afa15801561199c573d6000803e3d6000fd5b505050506040513d601f19601f820116820180604052508101906119c091906153ad565b6001546040516364e329cb60e11b81523060048201526001600160a01b03918216602482015291169063c9c65396906044016020604051808303816000875af1158015611a11573d6000803e3d6000fd5b505050506040513d601f19601f82011682018060405250810190611a3591906153ad565b601e80546001600160a01b0319166001600160a01b03929092169190911790555b601d54611a709030906001600160a01b031660001961327d565b601d60009054906101000a90046001600160a01b03166001600160a01b031663ad5c46486040518163ffffffff1660e01b8152600401602060405180830381865afa158015611ac3573d6000803e3d6000fd5b505050506040513d601f19601f82011682018060405250810190611ae791906153ad565b6001546001600160a01b03908116911614611b7857600154601d5460405163095ea7b360e01b81526001600160a01b039182166004820152600019602482015291169063095ea7b3906044016020604051808303816000875af1158015611b52573d6000803e3d6000fd5b505050506040513d601f19601f82011682018060405250810190611b7691906153ca565b505b601e54611b8f906001600160a01b031660016137ed565b50565b6001600160a01b03811660009081526005602052604081205460ff1615611bcf57506001600160a01b031660009081526003602052604090205490565b6001600160a01b038216600090815260026020526040902054610c659061107c565b6000546001600160a01b03163314611c1b5760405162461bcd60e51b8152600401610c95906151a2565b611c25600061391d565b565b6000546001600160a01b03163314611c515760405162461bcd60e51b8152600401610c95906151a2565b60008111611c9a5760405162461bcd60e51b815260206004820152601660248201527506d696e416d6f756e74546f54616b65466565203e20360541b6044820152606401610c95565b6019546040805183815260208101929092527f772a06bc936eb749842080c472181e970cd4f23bd1ab7d0b84a80aec26910434910160405180910390a1601955565b6000546001600160a01b03163314611d065760405162461bcd60e51b8152600401610c95906151a2565b6001600160a01b038116611d5c5760405162461bcd60e51b815260206004820152601a60248201527f54726561737572792077616c6c65742063616e277420626520300000000000006044820152606401610c95565b306001600160a01b03821603611dc75760405162461bcd60e51b815260206004820152602a60248201527f54726561737572792077616c6c65742063616e2774206265207468652073616d604482015269329030b9903a37b5b2b760b11b6064820152608401610c95565b6017546001600160a01b03808316911603611df45760405162461bcd60e51b8152600401610c959061535a565b6018546040516001600160a01b03918216918316907f79a52cbec002ef70283103eb4140713100276944fca2819713130141d04df18390600090a3601880546001600160a01b039092166001600160a01b0319909216821790556000908152601f60209081526040808320805460ff199081166001908117909255928052922080549091169091179055565b6000546001600160a01b03163314611eaa5760405162461bcd60e51b8152600401610c95906151a2565b60165461012c9061ffff600160881b82048116916101008104821691600160481b8204811691611ee391600160281b909104168761520f565b611eed919061520f565b611ef7919061520f565b611f01919061520f565b61ffff161115611f235760405162461bcd60e51b8152600401610c959061522a565b60165461012c9061ffff600160981b820481169163010000008104821691600160581b8204811691611f5e91600160381b909104168661520f565b611f68919061520f565b611f72919061520f565b611f7c919061520f565b61ffff161115611f9e5760405162461bcd60e51b8152600401610c9590615259565b60968261ffff161115611fc35760405162461bcd60e51b8152600401610c9590615287565b60968161ffff161115611fe85760405162461bcd60e51b8152600401610c95906152b0565b6016546040805161ffff85811682528481166020830152600160681b8404811682840152600160781b9093049092166060830152517f2893ef6309f9df0d45b134fcb021eb854592432db91782f02ce6b9029d1470319181900360800190a16016805463ffffffff60681b1916600160681b61ffff9485160261ffff60781b191617600160781b9290931691909102919091179055565b6000546001600160a01b031633146120a95760405162461bcd60e51b8152600401610c95906151a2565b6001600160a01b03811630036120ef5760405162461bcd60e51b815260206004820152600b60248201526a139bdd08185b1b1bddd95960aa1b6044820152606401610c95565b611b8f6121046000546001600160a01b031690565b6040516370a0823160e01b81523060048201526001600160a01b038416906370a0823190602401602060405180830381865afa158015612148573d6000803e3d6000fd5b505050506040513d601f19601f8201168201806040525081019061216c91906153e7565b6001600160a01b038416919061396d565b604080516002808252606082018352600092602083019080368337505060015482519293506001600160a01b0316918391506000906121be576121be6152eb565b60200260200101906001600160a01b031690816001600160a01b03168152505030816001815181106121f2576121f26152eb565b6001600160a01b03928316602091820292909201810191909152601d54604080516315ab88c960e31b81529051919093169263ad5c46489260048083019391928290030181865afa15801561224b573d6000803e3d6000fd5b505050506040513d601f19601f8201168201806040525081019061226f91906153ad565b6001600160a01b03168160008151811061228b5761228b6152eb565b60200260200101516001600160a01b03160361231557601d5460185460405163b6f9de9560e01b81526001600160a01b039283169263b6f9de959234926122de9260009288929116904290600401615444565b6000604051808303818588803b1580156122f757600080fd5b505af115801561230b573d6000803e3d6000fd5b505050505061241d565b6001546000906001600160a01b03166370a08231336040516001600160e01b031960e084901b1681526001600160a01b039091166004820152602401602060405180830381865afa15801561236e573d6000803e3d6000fd5b505050506040513d601f19601f8201168201806040525081019061239291906153e7565b90506123ac336001546001600160a01b03169030846139d5565b601d54601854604051635c11d79560e01b81526001600160a01b0392831692635c11d795926123e992869260009289929116904290600401615479565b600060405180830381600087803b15801561240357600080fd5b505af1158015612417573d6000803e3d6000fd5b50505050505b6018546001600160a01b031660009081526005602052604090205460ff161561250b576018546001600160a01b031660009081526003602052604090205460075461246891906152d8565b6007556018546001600160a01b031660009081526002602052604090205460085461249391906152d8565b6008556018546001600160a01b0316600081815260036020908152604080832054905190815291929160008051602061553f833981519152910160405180910390a3601880546001600160a01b0390811660009081526002602090815260408083208390559354909216815260039091529081205550565b6018546001600160a01b031660009081526002602052604081205461252f9061107c565b90508060075461253f91906152d8565b6007556018546001600160a01b031660009081526002602052604090205460085461256a91906152d8565b6008556018546040518281526000916001600160a01b03169060008051602061553f8339815191529060200160405180910390a350601880546001600160a01b0390811660009081526002602090815260408083208390559354909216815260039091529081205550565b6000546001600160a01b031633146125ff5760405162461bcd60e51b8152600401610c95906151a2565b6001546001600160a01b03908116908216036126735760405162461bcd60e51b815260206004820152602d60248201527f5468652062617365546f6b656e466f725061697220616c72656164792068617360448201526c2074686174206164647265737360981b6064820152608401610c95565b600180546001600160a01b0319166001600160a01b0383811691909117909155601d546040805163c45a015560e01b81529051919092169163c45a01559160048083019260209291908290030181865afa1580156126d5573d6000803e3d6000fd5b505050506040513d601f19601f820116820180604052508101906126f991906153ad565b60015460405163e6a4390560e01b81523060048201526001600160a01b03918216602482015291169063e6a4390590604401602060405180830381865afa158015612748573d6000803e3d6000fd5b505050506040513d601f19601f8201168201806040525081019061276c91906153ad565b601e80546001600160a01b0319166001600160a01b03929092169182179055611a7057601d60009054906101000a90046001600160a01b03166001600160a01b031663c45a01556040518163ffffffff1660e01b8152600401602060405180830381865afa1580156127e2573d6000803e3d6000fd5b505050506040513d601f19601f8201168201806040525081019061280691906153ad565b6001546040516364e329cb60e11b81523060048201526001600160a01b03918216602482015291169063c9c65396906044016020604051808303816000875af1158015612857573d6000803e3d6000fd5b505050506040513d601f19601f8201168201806040525081019061287b91906153ad565b601e80546001600160a01b0319166001600160a01b03928316179055601d54604080516315ab88c960e31b81529051919092169163ad5c46489160048083019260209291908290030181865afa158015611ac3573d6000803e3d6000fd5b6000546001600160a01b031633146129035760405162461bcd60e51b8152600401610c95906151a2565b60165461012c9061ffff600160881b8204811691600160681b8104821691600160481b820481169161293e91600160281b909104168761520f565b612948919061520f565b612952919061520f565b61295c919061520f565b61ffff16111561297e5760405162461bcd60e51b8152600401610c959061522a565b60165461012c9061ffff600160981b8204811691600160781b8104821691600160581b82048116916129b991600160381b909104168661520f565b6129c3919061520f565b6129cd919061520f565b6129d7919061520f565b61ffff1611156129f95760405162461bcd60e51b8152600401610c9590615259565b60968261ffff161115612a1e5760405162461bcd60e51b8152600401610c9590615287565b60968161ffff161115612a435760405162461bcd60e51b8152600401610c95906152b0565b6016546040805161ffff85811682528481166020830152610100840481168284015263010000009093049092166060830152517f0a21d45dab14d5d2f53ae98d95d951cd627fcf1b5bc485174326568b5e0a45729181900360800190a16016805464ffffffff00191661010061ffff9485160264ffff00000019161763010000009290931691909102919091179055565b6060600b8054610bd190615168565b6000546001600160a01b03163314612b0d5760405162461bcd60e51b8152600401610c95906151a2565b61132d82826137ed565b3360008181526004602090815260408083206001600160a01b03871684529091528120549091610c61918590610f8b9086906152d8565b6000610c613384846133a1565b6000546001600160a01b03163314612b855760405162461bcd60e51b8152600401610c95906151a2565b612710600754612b9591906151ed565b811015612bf95760405162461bcd60e51b815260206004820152602c60248201527f6d61785472616e73616374696f6e416d6f756e74203e3d20746f74616c20737560448201526b070706c79202f2031303030360a41b6064820152608401610c95565b601b546040805183815260208101929092527f35eec0711af6fbe3039535323be51b57996b6945b0d55862607c7a02e52e4507910160405180910390a1601b55565b6000546001600160a01b03163314612c655760405162461bcd60e51b8152600401610c95906151a2565b60165461012c9061ffff600160881b8204811691600160681b81048216916101008204811691612c9e91600160281b909104168761520f565b612ca8919061520f565b612cb2919061520f565b612cbc919061520f565b61ffff161115612cde5760405162461bcd60e51b8152600401610c959061522a565b60165461012c9061ffff600160981b8204811691600160781b810482169163010000008204811691612d1991600160381b909104168661520f565b612d23919061520f565b612d2d919061520f565b612d37919061520f565b61ffff161115612d595760405162461bcd60e51b8152600401610c9590615259565b60968261ffff161115612d7e5760405162461bcd60e51b8152600401610c9590615287565b60968161ffff161115612da35760405162461bcd60e51b8152600401610c95906152b0565b6016546040805161ffff85811682528481166020830152600160481b8404811682840152600160581b9093049092166060830152517f1d6b62961d401d548eb1549c97109c0b905ccd7af9c3777d3076cc8438fdfe659181900360800190a1601680546cffffffff0000000000000000001916600160481b61ffff9485160261ffff60581b191617600160581b9290931691909102919091179055565b6000546001600160a01b03163314612e6a5760405162461bcd60e51b8152600401610c95906151a2565b60165461012c9061ffff600160881b8204811691600160681b81048216916101008204811691612ea391600160481b909104168761520f565b612ead919061520f565b612eb7919061520f565b612ec1919061520f565b61ffff161115612ee35760405162461bcd60e51b8152600401610c959061522a565b60165461012c9061ffff600160981b8204811691600160781b810482169163010000008204811691612f1e91600160581b909104168661520f565b612f28919061520f565b612f32919061520f565b612f3c919061520f565b61ffff161115612f5e5760405162461bcd60e51b8152600401610c9590615259565b60968261ffff161115612f835760405162461bcd60e51b8152600401610c9590615287565b60968161ffff161115612fa85760405162461bcd60e51b8152600401610c95906152b0565b6016546040805161ffff85811682528481166020830152600160281b8404811682840152600160381b9093049092166060830152517f95c5c99557725e816faf752c6675d63483841c28a7a009ed792470a9cb4dea239181900360800190a16016805468ffffffff00000000001916600160281b61ffff9485160268ffff00000000000000191617600160381b9290931691909102919091179055565b6000546001600160a01b0316331461306f5760405162461bcd60e51b8152600401610c95906151a2565b6001600160a01b0382166000908152601f602052604090205481151560ff9091161515036130c95760405162461bcd60e51b8152602060048201526007602482015266616c726561647960c81b6044820152606401610c95565b6001600160a01b0382166000818152601f6020908152604091829020805460ff191685151590811790915591519182527f2d43abd87b27cee7b0aa8c6f7e0b4a3247b683262a83cbc2318b0df398a49aa99101611070565b6000546001600160a01b0316331461314b5760405162461bcd60e51b8152600401610c95906151a2565b600080546040516001600160a01b039091169047908381818185875af1925050503d8060008114613198576040519150601f19603f3d011682016040523d82523d6000602084013e61319d565b606091505b5050905080611b8f5760405162461bcd60e51b815260206004820152601460248201527311985a5b1959081a5b881dda5d1a191c985dd85b60621b6044820152606401610c95565b6000546001600160a01b0316331461320f5760405162461bcd60e51b8152600401610c95906151a2565b6001600160a01b0381166132745760405162461bcd60e51b815260206004820152602660248201527f4f776e61626c653a206e6577206f776e657220697320746865207a65726f206160448201526564647265737360d01b6064820152608401610c95565b611b8f8161391d565b6001600160a01b0383166132df5760405162461bcd60e51b8152602060048201526024808201527f45524332303a20617070726f76652066726f6d20746865207a65726f206164646044820152637265737360e01b6064820152608401610c95565b6001600160a01b0382166133405760405162461bcd60e51b815260206004820152602260248201527f45524332303a20617070726f766520746f20746865207a65726f206164647265604482015261737360f01b6064820152608401610c95565b6001600160a01b0383811660008181526004602090815260408083209487168084529482529182902085905590518481527f8c5be1e5ebec7d5bd14f71427d1e84f3dd0314c0f7b2291e5b200ac8c7c3b925910160405180910390a3505050565b6001600160a01b0383166134055760405162461bcd60e51b815260206004820152602560248201527f45524332303a207472616e736665722066726f6d20746865207a65726f206164604482015264647265737360d81b6064820152608401610c95565b6001600160a01b0382166134675760405162461bcd60e51b815260206004820152602360248201527f45524332303a207472616e7366657220746f20746865207a65726f206164647260448201526265737360e81b6064820152608401610c95565b600061347230611b92565b6019546016549192508210159060ff1615801561348c5750805b80156134ad5750601e546000906134ab906001600160a01b0316611b92565b115b80156134d157506001600160a01b03841660009081526021602052604090205460ff165b156134de576134de613a13565b613519600c8054600d55600e8054600f5560108054601155601280546013556014805460155560009081905590819055908190559182905555565b60165460ff1615801561354557506001600160a01b0385166000908152601f602052604090205460ff16155b801561356a57506001600160a01b0384166000908152601f602052604090205460ff16155b15613639576001600160a01b03851660009081526021602052604090205460ff16156135d75760165461ffff630100000082048116600c55600160381b82048116600e55600160581b82048116601055600160781b82048116601255600160981b90910416601455613639565b6001600160a01b03841660009081526021602052604090205460ff16156136395760165461ffff61010082048116600c55600160281b82048116600e55600160481b82048116601055600160681b82048116601255600160881b909104166014555b6136448585856142a3565b613667601554601455601354601255600d54600c55600f54600e55601154601055565b60165460ff16613759576001600160a01b038516600090815260208052604090205460ff166136e157601b5483106136e15760405162461bcd60e51b815260206004820152601d60248201527f45524332303a2065786365656473207472616e73666572206c696d69740000006044820152606401610c95565b6001600160a01b038416600090815260208052604090205460ff1661375957601a5461370c85611b92565b106137595760405162461bcd60e51b815260206004820152601f60248201527f45524332303a2065786365656473206d61782077616c6c6574206c696d6974006044820152606401610c95565b5050505050565b600080600061376d61473c565b909250905061377c81836151ed565b9250505090565b6000806000806000806000613797886148bf565b905060006137a4896148dc565b905060006137b18a6148ef565b905060006137be8b614902565b905060006137cb8c614915565b905060006137d88d614928565b9d959c50939a50919850965094509092505050565b6001600160a01b03821660009081526021602052604090205481151560ff9091161515036138835760405162461bcd60e51b815260206004820152603860248201527f4175746f6d61746564206d61726b6574206d616b65722070616972206973206160448201527f6c72656164792073657420746f20746861742076616c756500000000000000006064820152608401610c95565b6001600160a01b0382166000908152602160205260409020805460ff191682158015919091179091556138be576138b982611579565b6138c7565b6138c7826110f9565b6001600160a01b03821660008181526020808052604091829020805460ff191685151590811790915591519182527fffa9187bf1f18bf477bd0ea1bcbb64e93b6a98132473929edfce215cd9b16fab9101611070565b600080546001600160a01b038381166001600160a01b0319831681178455604051919092169283917f8be0079c531659141344cd1fd0a4f28419497f9722a3daafe3b4186f6b6457e09190a35050565b6040516001600160a01b0383166024820152604481018290526139d090849063a9059cbb60e01b906064015b60408051601f198184030181529190526020810180516001600160e01b03166001600160e01b03199093169290921790915261497b565b505050565b6040516001600160a01b0380851660248301528316604482015260648101829052613a0d9085906323b872dd60e01b90608401613999565b50505050565b6016805460ff191660011790556000613a2b30611b92565b90506000602454602354602254613a429190615318565b613a4c9190615318565b9050801580613a5a57508082105b15613a66575050614297565b60006002602254613a7791906151ed565b90506000601d60009054906101000a90046001600160a01b03166001600160a01b031663ad5c46486040518163ffffffff1660e01b8152600401602060405180830381865afa158015613ace573d6000803e3d6000fd5b505050506040513d601f19601f82011682018060405250810190613af291906153ad565b6001546001600160a01b03908116911614613b78576001546040516370a0823160e01b81523060048201526001600160a01b03909116906370a0823190602401602060405180830381865afa158015613b4f573d6000803e3d6000fd5b505050506040513d601f19601f82011682018060405250810190613b7391906153e7565b613b7a565b475b9050600080601760149054906101000a900460ff1615613ea657600060245460235486613ba79190615318565b613bb19190615318565b90508015613bc257613bc281614a4d565b601d54604080516315ab88c960e31b815290516000926001600160a01b03169163ad5c46489160048083019260209291908290030181865afa158015613c0c573d6000803e3d6000fd5b505050506040513d601f19601f82011682018060405250810190613c3091906153ad565b6001546001600160a01b03908116911614613cc0576001546040516370a0823160e01b815230600482015286916001600160a01b0316906370a0823190602401602060405180830381865afa158015613c8d573d6000803e3d6000fd5b505050506040513d601f19601f82011682018060405250810190613cb191906153e7565b613cbb91906152d8565b613cca565b613cca85476152d8565b905060008260235483613cdd9190615301565b613ce791906151ed565b905082613cf48884615301565b613cfe91906151ed565b945084613d0b82846152d8565b613d1591906152d8565b93508015613e9e57601d60009054906101000a90046001600160a01b03166001600160a01b031663ad5c46486040518163ffffffff1660e01b8152600401602060405180830381865afa158015613d70573d6000803e3d6000fd5b505050506040513d601f19601f82011682018060405250810190613d9491906153ad565b6001546001600160a01b03918216911603613e46576017546040516000916001600160a01b03169083908381818185875af1925050503d8060008114613df6576040519150601f19603f3d011682016040523d82523d6000602084013e613dfb565b606091505b505090508015613e40576040805160008152602081018490527f6f92bce3e91466137aa4d5474fe565c002872fb18ed6af4a856959be0a81277a910160405180910390a15b50613e9e565b601754600154613e63916001600160a01b0391821691168361396d565b6040805160008152602081018390527f6f92bce3e91466137aa4d5474fe565c002872fb18ed6af4a856959be0a81277a910160405180910390a15b50505061405a565b600060245485613eb69190615318565b90508015613ec757613ec781614a4d565b601d54604080516315ab88c960e31b815290516000926001600160a01b03169163ad5c46489160048083019260209291908290030181865afa158015613f11573d6000803e3d6000fd5b505050506040513d601f19601f82011682018060405250810190613f3591906153ad565b6001546001600160a01b03908116911614613fc5576001546040516370a0823160e01b815230600482015286916001600160a01b0316906370a0823190602401602060405180830381865afa158015613f92573d6000803e3d6000fd5b505050506040513d601f19601f82011682018060405250810190613fb691906153e7565b613fc091906152d8565b613fcf565b613fcf85476152d8565b905081613fdc8783615301565b613fe691906151ed565b9350613ff284826152d8565b602354909350156140575760175460235461401a9130916001600160a01b03909116906133a1565b60235460408051918252600060208301527f6f92bce3e91466137aa4d5474fe565c002872fb18ed6af4a856959be0a81277a910160405180910390a15b50505b60008411801561406a5750600082115b156140b3576140798483614c0d565b60408051858152602081018490527f28fc98272ce761178794ad6768050fea1648e07f1e2ffe15afd3a290f8381486910160405180910390a15b801561422c57601d60009054906101000a90046001600160a01b03166001600160a01b031663ad5c46486040518163ffffffff1660e01b8152600401602060405180830381865afa15801561410c573d6000803e3d6000fd5b505050506040513d601f19601f8201168201806040525081019061413091906153ad565b6001546001600160a01b039182169116036141db576018546040516000916001600160a01b03169083908381818185875af1925050503d8060008114614192576040519150601f19603f3d011682016040523d82523d6000602084013e614197565b606091505b5050905080156141d5576040518281527fe3630e0003fb3e9f9d835bb839022e52ffd576f9f35c395dd17517106f78cb339060200160405180910390a15b5061422c565b6018546001546141f8916001600160a01b0391821691168361396d565b6040518181527fe3630e0003fb3e9f9d835bb839022e52ffd576f9f35c395dd17517106f78cb339060200160405180910390a15b6000602381905560248190556022819055546001600160a01b03161561427557614270306142626000546001600160a01b031690565b61426b30611b92565b6133a1565b614290565b6018546142909030906001600160a01b031661426b82611b92565b5050505050505b6016805460ff19169055565b6000806000806000806142b587613783565b95509550955095509550955060006142cb613760565b9050816007546142db91906152d8565b6007556142e88183615301565b6008546142f591906152d8565b6008556040518281526000906001600160a01b038c169060008051602061553f8339815191529060200160405180910390a3846022546143359190615318565b602255602354614346908590615318565b602355602454614357908490615318565b6024556000836143678688615318565b6143719190615318565b905061437d8282615301565b306000908152600260205260409020546143979190615318565b3060009081526002602090815260408083209390935560059052205460ff16156143e757306000908152600360205260409020546143d6908290615318565b306000908152600360205260409020555b506001600160a01b038a1660009081526005602052604090205460ff16801561442957506001600160a01b03891660009081526005602052604090205460ff16155b156144fc576001600160a01b038a166000908152600360205260409020546144529089906152d8565b6001600160a01b038b166000908152600360205260409020556144758189615301565b6001600160a01b038b1660009081526002602052604090205461449891906152d8565b6001600160a01b038b166000908152600260205260409020556144bb8188615301565b6001600160a01b038a166000908152600260205260409020546144de9190615318565b6001600160a01b038a166000908152600260205260409020556146e2565b6001600160a01b038a1660009081526005602052604090205460ff1615801561453d57506001600160a01b03891660009081526005602052604090205460ff165b156145c95761454c8189615301565b6001600160a01b038b1660009081526002602052604090205461456f91906152d8565b6001600160a01b03808c16600090815260026020908152604080832094909455918c168152600390915220546145a6908890615318565b6001600160a01b038a166000908152600360205260409020556144bb8188615301565b6001600160a01b038a1660009081526005602052604090205460ff16801561460957506001600160a01b03891660009081526005602052604090205460ff165b15614655576001600160a01b038a166000908152600360205260409020546146329089906152d8565b6001600160a01b038b1660009081526003602052604090205561454c8189615301565b61465f8189615301565b6001600160a01b038b1660009081526002602052604090205461468291906152d8565b6001600160a01b038b166000908152600260205260409020556146a58188615301565b6001600160a01b038a166000908152600260205260409020546146c89190615318565b6001600160a01b038a166000908152600260205260409020555b6146f56146ef8288615301565b87614dce565b886001600160a01b03168a6001600160a01b031660008051602061553f8339815191528960405161472891815260200190565b60405180910390a350505050505050505050565b6008546007546000918291825b60065481101561488e5782600260006006848154811061476b5761476b6152eb565b60009182526020808320909101546001600160a01b0316835282019290925260400190205411806147d657508160036000600684815481106147af576147af6152eb565b60009182526020808320909101546001600160a01b03168352820192909252604001902054115b156147ec57600854600754945094505050509091565b6002600060068381548110614803576148036152eb565b60009182526020808320909101546001600160a01b0316835282019290925260400190205461483290846152d8565b9250600360006006838154811061484b5761484b6152eb565b60009182526020808320909101546001600160a01b0316835282019290925260400190205461487a90836152d8565b91508061488681615341565b915050614749565b5060075460085461489f91906151ed565b8210156148b6576008546007549350935050509091565b90939092509050565b60006103e8600c54836148d29190615301565b610c6591906151ed565b60006103e8600e54836148d29190615301565b60006103e8601054836148d29190615301565b60006103e8601254836148d29190615301565b60006103e8601454836148d29190615301565b60006103e8601054600e54600c546012546014546103e861494991906152d8565b61495391906152d8565b61495d91906152d8565b61496791906152d8565b61497191906152d8565b6148d29084615301565b60006149d0826040518060400160405280602081526020017f5361666545524332303a206c6f772d6c6576656c2063616c6c206661696c6564815250856001600160a01b0316614df49092919063ffffffff16565b8051909150156139d057808060200190518101906149ee91906153ca565b6139d05760405162461bcd60e51b815260206004820152602a60248201527f5361666545524332303a204552433230206f7065726174696f6e20646964206e6044820152691bdd081cdd58d8d9595960b21b6064820152608401610c95565b6040805160028082526060820183526000926020830190803683370190505090503081600081518110614a8257614a826152eb565b6001600160a01b0392831660209182029290920101526001805483519216918391908110614ab257614ab26152eb565b6001600160a01b03928316602091820292909201810191909152601d54604080516315ab88c960e31b81529051919093169263ad5c46489260048083019391928290030181865afa158015614b0b573d6000803e3d6000fd5b505050506040513d601f19601f82011682018060405250810190614b2f91906153ad565b6001600160a01b031681600181518110614b4b57614b4b6152eb565b60200260200101516001600160a01b031603614bd057601d5460405163791ac94760e01b81526001600160a01b039091169063791ac94790614b9a908590600090869030904290600401615479565b600060405180830381600087803b158015614bb457600080fd5b505af1158015614bc8573d6000803e3d6000fd5b505050505050565b601c54601d54604051637274ca1b60e11b81526001600160a01b039283169263e4e9943692614b9a929116908690600090879042906004016154b5565b601d60009054906101000a90046001600160a01b03166001600160a01b031663ad5c46486040518163ffffffff1660e01b8152600401602060405180830381865afa158015614c60573d6000803e3d6000fd5b505050506040513d601f19601f82011682018060405250810190614c8491906153ad565b6001546001600160a01b03918216911603614d2c57601d5460405163f305d71960e01b815230600482015260248101849052600060448201819052606482015261dead60848201524260a48201526001600160a01b039091169063f305d71990839060c40160606040518083038185885af1158015614d07573d6000803e3d6000fd5b50505050506040513d601f19601f8201168201806040525081019061375991906154f4565b601d5460015460405162e8e33760e81b81523060048201526001600160a01b039182166024820152604481018590526064810184905260006084820181905260a482015261dead60c48201524260e482015291169063e8e3370090610104016060604051808303816000875af1158015614daa573d6000803e3d6000fd5b505050506040513d601f19601f8201168201806040525081019061375991906154f4565b81600854614ddc91906152d8565b600855600954614ded908290615318565b6009555050565b6060614e038484600085614e0b565b949350505050565b606082471015614e6c5760405162461bcd60e51b815260206004820152602660248201527f416464726573733a20696e73756666696369656e742062616c616e636520666f6044820152651c8818d85b1b60d21b6064820152608401610c95565b6001600160a01b0385163b614ec35760405162461bcd60e51b815260206004820152601d60248201527f416464726573733a2063616c6c20746f206e6f6e2d636f6e74726163740000006044820152606401610c95565b600080866001600160a01b03168587604051614edf9190615522565b60006040518083038185875af1925050503d8060008114614f1c576040519150601f19603f3d011682016040523d82523d6000602084013e614f21565b606091505b5091509150614f31828286614f3c565b979650505050505050565b60608315614f4b575081610f94565b825115614f5b5782518084602001fd5b8160405162461bcd60e51b8152600401610c959190614f99565b60005b83811015614f90578181015183820152602001614f78565b50506000910152565b6020815260008251806020840152614fb8816040850160208701614f75565b601f01601f19169190910160400192915050565b6001600160a01b0381168114611b8f57600080fd5b60008060408385031215614ff457600080fd5b8235614fff81614fcc565b946020939093013593505050565b60006020828403121561501f57600080fd5b5035919050565b803561ffff8116811461503857600080fd5b919050565b6000806040838503121561505057600080fd5b61505983615026565b915061506760208401615026565b90509250929050565b60008060006060848603121561508557600080fd5b833561509081614fcc565b925060208401356150a081614fcc565b929592945050506040919091013590565b8015158114611b8f57600080fd5b600080604083850312156150d257600080fd5b82356150dd81614fcc565b915060208301356150ed816150b1565b809150509250929050565b60006020828403121561510a57600080fd5b8135610f9481614fcc565b6000806040838503121561512857600080fd5b8235915060208301356150ed816150b1565b6000806040838503121561514d57600080fd5b823561515881614fcc565b915060208301356150ed81614fcc565b600181811c9082168061517c57607f821691505b60208210810361519c57634e487b7160e01b600052602260045260246000fd5b50919050565b6020808252818101527f4f776e61626c653a2063616c6c6572206973206e6f7420746865206f776e6572604082015260600190565b634e487b7160e01b600052601160045260246000fd5b60008261520a57634e487b7160e01b600052601260045260246000fd5b500490565b61ffff81811683821601908082111561140e5761140e6151d7565b60208082526015908201527473656c6c20746f74616c20666565203c3d2033302560581b604082015260600190565b60208082526014908201527362757920746f74616c20666565203c3d2033302560601b604082015260600190565b6020808252600f908201526e73656c6c20666565203c3d2031352560881b604082015260600190565b6020808252600e908201526d62757920666565203c3d2031352560901b604082015260600190565b81810381811115610c6557610c656151d7565b634e487b7160e01b600052603260045260246000fd5b8082028115828204841417610c6557610c656151d7565b80820180821115610c6557610c656151d7565b634e487b7160e01b600052603160045260246000fd5b600060018201615353576153536151d7565b5060010190565b60208082526033908201527f6d61726b6574696e672077616c6c65742063616e27742062652073616d6520776040820152721a5d1a08151c99585cdd5c9e481dd85b1b195d606a1b606082015260800190565b6000602082840312156153bf57600080fd5b8151610f9481614fcc565b6000602082840312156153dc57600080fd5b8151610f94816150b1565b6000602082840312156153f957600080fd5b5051919050565b600081518084526020808501945080840160005b838110156154395781516001600160a01b031687529582019590820190600101615414565b509495945050505050565b84815260806020820152600061545d6080830186615400565b6001600160a01b03949094166040830152506060015292915050565b85815284602082015260a06040820152600061549860a0830186615400565b6001600160a01b0394909416606083015250608001529392505050565b60018060a01b038616815284602082015283604082015260a0606082015260006154e260a0830185615400565b90508260808301529695505050505050565b60008060006060848603121561550957600080fd5b8351925060208401519150604084015190509250925092565b60008251615534818460208701614f75565b919091019291505056feddf252ad1be2c89b69c2b068fc378daa952ba7f163c4a11628f55a4df523b3efa2646970667358221220932b6fbd3cb488d10f7df5d3ef415d64bb4584c1c7630cf17f7ab72d151f48a664736f6c63430008120033608060405234801561001057600080fd5b5061061b806100206000396000f3fe608060405234801561001057600080fd5b506004361061002b5760003560e01c8063e4e9943614610030575b600080fd5b61004361003e366004610438565b610045565b005b600083836100546001826104da565b81811061006357610063610501565b90506020020160208101906100789190610517565b6040516370a0823160e01b81523060048201526001600160a01b0391909116906370a0823190602401602060405180830381865afa1580156100be573d6000803e3d6000fd5b505050506040513d601f19601f820116820180604052508101906100e29190610539565b9050838360008181106100f7576100f7610501565b905060200201602081019061010c9190610517565b6040516323b872dd60e01b8152336004820152306024820152604481018890526001600160a01b0391909116906323b872dd906064016020604051808303816000875af1158015610161573d6000803e3d6000fd5b505050506040513d601f19601f820116820180604052508101906101859190610552565b508383600081811061019957610199610501565b90506020020160208101906101ae9190610517565b60405163095ea7b360e01b81526001600160a01b03898116600483015260248201899052919091169063095ea7b3906044016020604051808303816000875af11580156101ff573d6000803e3d6000fd5b505050506040513d601f19601f820116820180604052508101906102239190610552565b50604051635c11d79560e01b81526001600160a01b03881690635c11d7959061025a90899089908990899030908a90600401610574565b600060405180830381600087803b15801561027457600080fd5b505af1158015610288573d6000803e3d6000fd5b50600092508391508690508561029f6001826104da565b8181106102ae576102ae610501565b90506020020160208101906102c39190610517565b6040516370a0823160e01b81523060048201526001600160a01b0391909116906370a0823190602401602060405180830381865afa158015610309573d6000803e3d6000fd5b505050506040513d601f19601f8201168201806040525081019061032d9190610539565b61033791906104da565b905084846103466001826104da565b81811061035557610355610501565b905060200201602081019061036a9190610517565b6001600160a01b031663a9059cbb8686600081811061038b5761038b610501565b90506020020160208101906103a09190610517565b6040516001600160e01b031960e084901b1681526001600160a01b039091166004820152602481018490526044016020604051808303816000875af11580156103ed573d6000803e3d6000fd5b505050506040513d601f19601f820116820180604052508101906104119190610552565b505050505050505050565b80356001600160a01b038116811461043357600080fd5b919050565b60008060008060008060a0878903121561045157600080fd5b61045a8761041c565b95506020870135945060408701359350606087013567ffffffffffffffff8082111561048557600080fd5b818901915089601f83011261049957600080fd5b8135818111156104a857600080fd5b8a60208260051b85010111156104bd57600080fd5b602083019550809450505050608087013590509295509295509295565b818103818111156104fb57634e487b7160e01b600052601160045260246000fd5b92915050565b634e487b7160e01b600052603260045260246000fd5b60006020828403121561052957600080fd5b6105328261041c565b9392505050565b60006020828403121561054b57600080fd5b5051919050565b60006020828403121561056457600080fd5b8151801515811461053257600080fd5b868152602080820187905260a0604083018190528201859052600090869060c08401835b888110156105c4576001600160a01b036105b18561041c565b1682529282019290820190600101610598565b506001600160a01b039690961660608501525050506080015294935050505056fea2646970667358221220c91ba022ca2332b8ce580a0ae119560abfd71532c1c0416fdd343545ff72bd6764736f6c634300081200334f776e61626c653a2063616c6c6572206973206e6f7420746865206f776e6572f652222313e28459528d920b65115c16c04f3efc82aaedc97be59f3f377c0d3f",
			"opcodes": "PUSH1 0x80 PUSH1 0x40 MSTORE PUSH1 0x40 MLOAD PUSH3 0x7D8D CODESIZE SUB DUP1 PUSH3 0x7D8D DUP4 CODECOPY DUP2 ADD PUSH1 0x40 DUP2 SWAP1 MSTORE PUSH3 0x26 SWAP2 PUSH3 0x1DDB JUMP JUMPDEST PUSH3 0x31 CALLER PUSH3 0x117F JUMP JUMPDEST PUSH1 0x40 MLOAD PUSH1 0x0 SWAP1 PUSH20 0x449183E39D76FA4C1F516D3EA2FEED3E8C99E8F1 SWAP1 CALLVALUE SWAP1 DUP4 DUP2 DUP2 DUP2 DUP6 DUP8 GAS CALL SWAP3 POP POP POP RETURNDATASIZE DUP1 PUSH1 0x0 DUP2 EQ PUSH3 0x89 JUMPI PUSH1 0x40 MLOAD SWAP2 POP PUSH1 0x1F NOT PUSH1 0x3F RETURNDATASIZE ADD AND DUP3 ADD PUSH1 0x40 MSTORE RETURNDATASIZE DUP3 MSTORE RETURNDATASIZE PUSH1 0x0 PUSH1 0x20 DUP5 ADD RETURNDATACOPY PUSH3 0x8E JUMP JUMPDEST PUSH1 0x60 SWAP2 POP JUMPDEST POP POP SWAP1 POP DUP1 PUSH3 0xE5 JUMPI PUSH1 0x40 MLOAD PUSH3 0x461BCD PUSH1 0xE5 SHL DUP2 MSTORE PUSH1 0x20 PUSH1 0x4 DUP3 ADD MSTORE PUSH1 0x14 PUSH1 0x24 DUP3 ADD MSTORE PUSH32 0x6661696C20746F207472616E7366657220666565000000000000000000000000 PUSH1 0x44 DUP3 ADD MSTORE PUSH1 0x64 ADD JUMPDEST PUSH1 0x40 MLOAD DUP1 SWAP2 SUB SWAP1 REVERT JUMPDEST PUSH1 0x40 MLOAD PUSH3 0xF3 SWAP1 PUSH3 0x1BBF JUMP JUMPDEST PUSH1 0x40 MLOAD DUP1 SWAP2 SUB SWAP1 PUSH1 0x0 CREATE DUP1 ISZERO DUP1 ISZERO PUSH3 0x110 JUMPI RETURNDATASIZE PUSH1 0x0 DUP1 RETURNDATACOPY RETURNDATASIZE PUSH1 0x0 REVERT JUMPDEST POP PUSH1 0x1C DUP1 SLOAD PUSH1 0x1 PUSH1 0x1 PUSH1 0xA0 SHL SUB NOT AND PUSH1 0x1 PUSH1 0x1 PUSH1 0xA0 SHL SUB SWAP3 DUP4 AND OR SWAP1 SSTORE PUSH1 0x40 DUP7 ADD MLOAD PUSH1 0x1 DUP1 SLOAD SWAP2 SWAP1 SWAP3 AND PUSH1 0x1 PUSH1 0x1 PUSH1 0xA8 SHL SUB NOT SWAP1 SWAP2 AND OR PUSH1 0x1 PUSH1 0xA0 SHL PUSH1 0xFF DUP13 AND MUL OR SWAP1 SSTORE PUSH1 0xA PUSH3 0x162 DUP13 DUP3 PUSH3 0x1F69 JUMP JUMPDEST POP PUSH1 0xB PUSH3 0x171 DUP12 DUP3 PUSH3 0x1F69 JUMP JUMPDEST POP PUSH1 0x7 DUP9 SWAP1 SSTORE PUSH3 0x185 DUP9 PUSH1 0x0 NOT PUSH3 0x204B JUMP JUMPDEST PUSH3 0x193 SWAP1 PUSH1 0x0 NOT PUSH3 0x2078 JUMP JUMPDEST PUSH1 0x8 DUP2 SWAP1 SSTORE PUSH1 0x1 PUSH1 0x1 PUSH1 0xA0 SHL SUB DUP4 DUP2 AND PUSH1 0x0 SWAP1 DUP2 MSTORE PUSH1 0x2 PUSH1 0x20 MSTORE PUSH1 0x40 SWAP1 KECCAK256 SWAP2 SWAP1 SWAP2 SSTORE DUP6 MLOAD AND PUSH3 0x206 JUMPI PUSH1 0x40 MLOAD PUSH3 0x461BCD PUSH1 0xE5 SHL DUP2 MSTORE PUSH1 0x20 PUSH1 0x4 DUP3 ADD MSTORE PUSH1 0x1D PUSH1 0x24 DUP3 ADD MSTORE PUSH32 0x6D61726B6574696E672077616C6C65742063616E206E6F742062652030000000 PUSH1 0x44 DUP3 ADD MSTORE PUSH1 0x64 ADD PUSH3 0xDC JUMP JUMPDEST PUSH1 0x20 DUP6 ADD MLOAD PUSH1 0x1 PUSH1 0x1 PUSH1 0xA0 SHL SUB AND PUSH3 0x262 JUMPI PUSH1 0x40 MLOAD PUSH3 0x461BCD PUSH1 0xE5 SHL DUP2 MSTORE PUSH1 0x20 PUSH1 0x4 DUP3 ADD MSTORE PUSH1 0x1B PUSH1 0x24 DUP3 ADD MSTORE PUSH32 0x526F7574657220616464726573732063616E206E6F7420626520300000000000 PUSH1 0x44 DUP3 ADD MSTORE PUSH1 0x64 ADD PUSH3 0xDC JUMP JUMPDEST PUSH1 0x60 DUP6 ADD MLOAD PUSH1 0x1 PUSH1 0x1 PUSH1 0xA0 SHL SUB AND PUSH3 0x2BE JUMPI PUSH1 0x40 MLOAD PUSH3 0x461BCD PUSH1 0xE5 SHL DUP2 MSTORE PUSH1 0x20 PUSH1 0x4 DUP3 ADD MSTORE PUSH1 0x1C PUSH1 0x24 DUP3 ADD MSTORE PUSH32 0x54726561737572792077616C6C65742063616E206E6F74206265203000000000 PUSH1 0x44 DUP3 ADD MSTORE PUSH1 0x64 ADD PUSH3 0xDC JUMP JUMPDEST DUP5 MLOAD PUSH1 0x60 DUP7 ADD MLOAD PUSH1 0x1 PUSH1 0x1 PUSH1 0xA0 SHL SUB SWAP2 DUP3 AND SWAP2 AND SUB PUSH3 0x347 JUMPI PUSH1 0x40 MLOAD PUSH3 0x461BCD PUSH1 0xE5 SHL DUP2 MSTORE PUSH1 0x20 PUSH1 0x4 DUP3 ADD MSTORE PUSH1 0x35 PUSH1 0x24 DUP3 ADD MSTORE PUSH32 0x54726561737572792077616C6C65742063616E206E6F742062652073616D6520 PUSH1 0x44 DUP3 ADD MSTORE PUSH32 0x77697468206D61726B6574696E672077616C6C65740000000000000000000000 PUSH1 0x64 DUP3 ADD MSTORE PUSH1 0x84 ADD PUSH3 0xDC JUMP JUMPDEST PUSH2 0x100 DUP4 ADD MLOAD PUSH1 0xC0 DUP5 ADD MLOAD PUSH1 0x80 DUP6 ADD MLOAD PUSH1 0x40 DUP7 ADD MLOAD DUP7 MLOAD PUSH2 0x12C SWAP5 SWAP4 SWAP3 SWAP2 PUSH3 0x370 SWAP2 PUSH3 0x2094 JUMP JUMPDEST PUSH3 0x37C SWAP2 SWAP1 PUSH3 0x2094 JUMP JUMPDEST PUSH3 0x388 SWAP2 SWAP1 PUSH3 0x2094 JUMP JUMPDEST PUSH3 0x394 SWAP2 SWAP1 PUSH3 0x2094 JUMP JUMPDEST PUSH2 0xFFFF AND GT ISZERO PUSH3 0x3E8 JUMPI PUSH1 0x40 MLOAD PUSH3 0x461BCD PUSH1 0xE5 SHL DUP2 MSTORE PUSH1 0x20 PUSH1 0x4 DUP3 ADD MSTORE PUSH1 0x15 PUSH1 0x24 DUP3 ADD MSTORE PUSH32 0x73656C6C20746F74616C20666565203C3D203330250000000000000000000000 PUSH1 0x44 DUP3 ADD MSTORE PUSH1 0x64 ADD PUSH3 0xDC JUMP JUMPDEST PUSH2 0x120 DUP4 ADD MLOAD PUSH1 0xE0 DUP5 ADD MLOAD PUSH1 0xA0 DUP6 ADD MLOAD PUSH1 0x60 DUP7 ADD MLOAD PUSH1 0x20 DUP8 ADD MLOAD PUSH2 0x12C SWAP5 SWAP4 SWAP3 SWAP2 PUSH3 0x414 SWAP2 PUSH3 0x2094 JUMP JUMPDEST PUSH3 0x420 SWAP2 SWAP1 PUSH3 0x2094 JUMP JUMPDEST PUSH3 0x42C SWAP2 SWAP1 PUSH3 0x2094 JUMP JUMPDEST PUSH3 0x438 SWAP2 SWAP1 PUSH3 0x2094 JUMP JUMPDEST PUSH2 0xFFFF AND GT ISZERO PUSH3 0x48C JUMPI PUSH1 0x40 MLOAD PUSH3 0x461BCD PUSH1 0xE5 SHL DUP2 MSTORE PUSH1 0x20 PUSH1 0x4 DUP3 ADD MSTORE PUSH1 0x14 PUSH1 0x24 DUP3 ADD MSTORE PUSH32 0x62757920746F74616C20666565203C3D20333025000000000000000000000000 PUSH1 0x44 DUP3 ADD MSTORE PUSH1 0x64 ADD PUSH3 0xDC JUMP JUMPDEST DUP3 MLOAD PUSH1 0x96 PUSH2 0xFFFF SWAP1 SWAP2 AND LT PUSH3 0x4D6 JUMPI PUSH1 0x40 MLOAD PUSH3 0x461BCD PUSH1 0xE5 SHL DUP2 MSTORE PUSH1 0x20 PUSH1 0x4 DUP3 ADD MSTORE PUSH1 0xE PUSH1 0x24 DUP3 ADD MSTORE PUSH14 0x6561636820666565203C20313525 PUSH1 0x90 SHL PUSH1 0x44 DUP3 ADD MSTORE PUSH1 0x64 ADD PUSH3 0xDC JUMP JUMPDEST PUSH1 0x96 DUP4 PUSH1 0x1 PUSH1 0x20 MUL ADD MLOAD PUSH2 0xFFFF AND LT PUSH3 0x524 JUMPI PUSH1 0x40 MLOAD PUSH3 0x461BCD PUSH1 0xE5 SHL DUP2 MSTORE PUSH1 0x20 PUSH1 0x4 DUP3 ADD MSTORE PUSH1 0xE PUSH1 0x24 DUP3 ADD MSTORE PUSH14 0x6561636820666565203C20313525 PUSH1 0x90 SHL PUSH1 0x44 DUP3 ADD MSTORE PUSH1 0x64 ADD PUSH3 0xDC JUMP JUMPDEST PUSH1 0x96 DUP4 PUSH1 0x2 PUSH1 0x20 MUL ADD MLOAD PUSH2 0xFFFF AND LT PUSH3 0x572 JUMPI PUSH1 0x40 MLOAD PUSH3 0x461BCD PUSH1 0xE5 SHL DUP2 MSTORE PUSH1 0x20 PUSH1 0x4 DUP3 ADD MSTORE PUSH1 0xE PUSH1 0x24 DUP3 ADD MSTORE PUSH14 0x6561636820666565203C20313525 PUSH1 0x90 SHL PUSH1 0x44 DUP3 ADD MSTORE PUSH1 0x64 ADD PUSH3 0xDC JUMP JUMPDEST PUSH1 0x96 DUP4 PUSH1 0x3 PUSH1 0x20 MUL ADD MLOAD PUSH2 0xFFFF AND LT PUSH3 0x5C0 JUMPI PUSH1 0x40 MLOAD PUSH3 0x461BCD PUSH1 0xE5 SHL DUP2 MSTORE PUSH1 0x20 PUSH1 0x4 DUP3 ADD MSTORE PUSH1 0xE PUSH1 0x24 DUP3 ADD MSTORE PUSH14 0x6561636820666565203C20313525 PUSH1 0x90 SHL PUSH1 0x44 DUP3 ADD MSTORE PUSH1 0x64 ADD PUSH3 0xDC JUMP JUMPDEST PUSH1 0x96 DUP4 PUSH1 0x4 PUSH1 0x20 MUL ADD MLOAD PUSH2 0xFFFF AND LT PUSH3 0x60E JUMPI PUSH1 0x40 MLOAD PUSH3 0x461BCD PUSH1 0xE5 SHL DUP2 MSTORE PUSH1 0x20 PUSH1 0x4 DUP3 ADD MSTORE PUSH1 0xE PUSH1 0x24 DUP3 ADD MSTORE PUSH14 0x6561636820666565203C20313525 PUSH1 0x90 SHL PUSH1 0x44 DUP3 ADD MSTORE PUSH1 0x64 ADD PUSH3 0xDC JUMP JUMPDEST PUSH1 0x96 DUP4 PUSH1 0x5 PUSH1 0x20 MUL ADD MLOAD PUSH2 0xFFFF AND LT PUSH3 0x65C JUMPI PUSH1 0x40 MLOAD PUSH3 0x461BCD PUSH1 0xE5 SHL DUP2 MSTORE PUSH1 0x20 PUSH1 0x4 DUP3 ADD MSTORE PUSH1 0xE PUSH1 0x24 DUP3 ADD MSTORE PUSH14 0x6561636820666565203C20313525 PUSH1 0x90 SHL PUSH1 0x44 DUP3 ADD MSTORE PUSH1 0x64 ADD PUSH3 0xDC JUMP JUMPDEST PUSH1 0x96 DUP4 PUSH1 0x6 PUSH1 0x20 MUL ADD MLOAD PUSH2 0xFFFF AND LT PUSH3 0x6AA JUMPI PUSH1 0x40 MLOAD PUSH3 0x461BCD PUSH1 0xE5 SHL DUP2 MSTORE PUSH1 0x20 PUSH1 0x4 DUP3 ADD MSTORE PUSH1 0xE PUSH1 0x24 DUP3 ADD MSTORE PUSH14 0x6561636820666565203C20313525 PUSH1 0x90 SHL PUSH1 0x44 DUP3 ADD MSTORE PUSH1 0x64 ADD PUSH3 0xDC JUMP JUMPDEST PUSH1 0x96 DUP4 PUSH1 0x7 PUSH1 0x20 MUL ADD MLOAD PUSH2 0xFFFF AND LT PUSH3 0x6F8 JUMPI PUSH1 0x40 MLOAD PUSH3 0x461BCD PUSH1 0xE5 SHL DUP2 MSTORE PUSH1 0x20 PUSH1 0x4 DUP3 ADD MSTORE PUSH1 0xE PUSH1 0x24 DUP3 ADD MSTORE PUSH14 0x6561636820666565203C20313525 PUSH1 0x90 SHL PUSH1 0x44 DUP3 ADD MSTORE PUSH1 0x64 ADD PUSH3 0xDC JUMP JUMPDEST PUSH1 0x96 DUP4 PUSH1 0x8 PUSH1 0x20 MUL ADD MLOAD PUSH2 0xFFFF AND LT PUSH3 0x746 JUMPI PUSH1 0x40 MLOAD PUSH3 0x461BCD PUSH1 0xE5 SHL DUP2 MSTORE PUSH1 0x20 PUSH1 0x4 DUP3 ADD MSTORE PUSH1 0xE PUSH1 0x24 DUP3 ADD MSTORE PUSH14 0x6561636820666565203C20313525 PUSH1 0x90 SHL PUSH1 0x44 DUP3 ADD MSTORE PUSH1 0x64 ADD PUSH3 0xDC JUMP JUMPDEST PUSH1 0x96 DUP4 PUSH1 0x9 PUSH1 0x20 MUL ADD MLOAD PUSH2 0xFFFF AND LT PUSH3 0x794 JUMPI PUSH1 0x40 MLOAD PUSH3 0x461BCD PUSH1 0xE5 SHL DUP2 MSTORE PUSH1 0x20 PUSH1 0x4 DUP3 ADD MSTORE PUSH1 0xE PUSH1 0x24 DUP3 ADD MSTORE PUSH14 0x6561636820666565203C20313525 PUSH1 0x90 SHL PUSH1 0x44 DUP3 ADD MSTORE PUSH1 0x64 ADD PUSH3 0xDC JUMP JUMPDEST DUP5 MLOAD PUSH1 0x17 DUP1 SLOAD PUSH1 0x60 DUP9 ADD MLOAD PUSH1 0x18 DUP1 SLOAD PUSH1 0x1 PUSH1 0x1 PUSH1 0xA0 SHL SUB SWAP3 DUP4 AND PUSH1 0x1 PUSH1 0x1 PUSH1 0xA0 SHL SUB NOT SWAP2 SWAP1 SWAP2 AND OR SWAP1 SSTORE DUP8 ISZERO ISZERO PUSH1 0x1 PUSH1 0xA0 SHL SWAP1 DUP2 MUL PUSH1 0x1 PUSH1 0x1 PUSH1 0xA8 SHL SUB NOT SWAP1 SWAP4 AND SWAP5 DUP3 AND SWAP5 DUP6 OR DUP4 OR SWAP4 DUP5 SWAP1 SSTORE PUSH1 0x40 DUP1 MLOAD SWAP2 SWAP1 SWAP5 DIV PUSH1 0xFF AND ISZERO ISZERO DUP2 MSTORE PUSH1 0x0 PUSH1 0x20 DUP3 ADD DUP2 SWAP1 MSTORE SWAP5 SWAP3 SWAP1 SWAP2 AND SWAP1 SWAP2 OR SWAP2 PUSH32 0xC8DFDD9B91AC62EE1BD8BE3541EA02D8E584461C794C6E49E94CCF21C71EBCCA SWAP2 ADD PUSH1 0x40 MLOAD DUP1 SWAP2 SUB SWAP1 LOG3 PUSH1 0x18 SLOAD PUSH1 0x40 MLOAD PUSH1 0x0 SWAP2 PUSH1 0x1 PUSH1 0x1 PUSH1 0xA0 SHL SUB AND SWAP1 PUSH32 0x79A52CBEC002EF70283103EB4140713100276944FCA2819713130141D04DF183 SWAP1 DUP4 SWAP1 LOG3 PUSH1 0x20 DUP6 DUP2 ADD MLOAD PUSH1 0x1D DUP1 SLOAD PUSH1 0x1 PUSH1 0x1 PUSH1 0xA0 SHL SUB NOT AND PUSH1 0x1 PUSH1 0x1 PUSH1 0xA0 SHL SUB SWAP1 SWAP3 AND SWAP2 DUP3 OR SWAP1 SSTORE PUSH1 0x40 DUP1 MLOAD PUSH4 0x15AB88C9 PUSH1 0xE3 SHL DUP2 MSTORE SWAP1 MLOAD SWAP2 SWAP3 PUSH4 0xAD5C4648 SWAP3 PUSH1 0x4 DUP1 DUP5 ADD SWAP4 DUP3 SWAP1 SUB ADD DUP2 DUP7 GAS STATICCALL ISZERO DUP1 ISZERO PUSH3 0x8C1 JUMPI RETURNDATASIZE PUSH1 0x0 DUP1 RETURNDATACOPY RETURNDATASIZE PUSH1 0x0 REVERT JUMPDEST POP POP POP POP PUSH1 0x40 MLOAD RETURNDATASIZE PUSH1 0x1F NOT PUSH1 0x1F DUP3 ADD AND DUP3 ADD DUP1 PUSH1 0x40 MSTORE POP DUP2 ADD SWAP1 PUSH3 0x8E7 SWAP2 SWAP1 PUSH3 0x20B9 JUMP JUMPDEST PUSH1 0x1 SLOAD PUSH1 0x1 PUSH1 0x1 PUSH1 0xA0 SHL SUB SWAP1 DUP2 AND SWAP2 AND EQ PUSH3 0x97C JUMPI PUSH1 0x1 SLOAD PUSH1 0x1D SLOAD PUSH1 0x40 MLOAD PUSH4 0x95EA7B3 PUSH1 0xE0 SHL DUP2 MSTORE PUSH1 0x1 PUSH1 0x1 PUSH1 0xA0 SHL SUB SWAP2 DUP3 AND PUSH1 0x4 DUP3 ADD MSTORE PUSH1 0x0 NOT PUSH1 0x24 DUP3 ADD MSTORE SWAP2 AND SWAP1 PUSH4 0x95EA7B3 SWAP1 PUSH1 0x44 ADD PUSH1 0x20 PUSH1 0x40 MLOAD DUP1 DUP4 SUB DUP2 PUSH1 0x0 DUP8 GAS CALL ISZERO DUP1 ISZERO PUSH3 0x954 JUMPI RETURNDATASIZE PUSH1 0x0 DUP1 RETURNDATACOPY RETURNDATASIZE PUSH1 0x0 REVERT JUMPDEST POP POP POP POP PUSH1 0x40 MLOAD RETURNDATASIZE PUSH1 0x1F NOT PUSH1 0x1F DUP3 ADD AND DUP3 ADD DUP1 PUSH1 0x40 MSTORE POP DUP2 ADD SWAP1 PUSH3 0x97A SWAP2 SWAP1 PUSH3 0x20D7 JUMP JUMPDEST POP JUMPDEST PUSH1 0x1C SLOAD PUSH3 0x998 SWAP1 ADDRESS SWAP1 PUSH1 0x1 PUSH1 0x1 PUSH1 0xA0 SHL SUB AND PUSH1 0x0 NOT PUSH3 0x11CF JUMP JUMPDEST PUSH1 0x1D SLOAD PUSH3 0x9B4 SWAP1 ADDRESS SWAP1 PUSH1 0x1 PUSH1 0x1 PUSH1 0xA0 SHL SUB AND PUSH1 0x0 NOT PUSH3 0x11CF JUMP JUMPDEST PUSH1 0x1D SLOAD PUSH1 0x40 MLOAD PUSH1 0x0 SWAP2 PUSH1 0x1 PUSH1 0x1 PUSH1 0xA0 SHL SUB AND SWAP1 PUSH32 0x8FC842BBD331DFA973645F4ED48B11683D501EBF1352708D77A5DA2AB49A576E SWAP1 DUP4 SWAP1 LOG3 PUSH1 0x1D PUSH1 0x0 SWAP1 SLOAD SWAP1 PUSH2 0x100 EXP SWAP1 DIV PUSH1 0x1 PUSH1 0x1 PUSH1 0xA0 SHL SUB AND PUSH1 0x1 PUSH1 0x1 PUSH1 0xA0 SHL SUB AND PUSH4 0xC45A0155 PUSH1 0x40 MLOAD DUP2 PUSH4 0xFFFFFFFF AND PUSH1 0xE0 SHL DUP2 MSTORE PUSH1 0x4 ADD PUSH1 0x20 PUSH1 0x40 MLOAD DUP1 DUP4 SUB DUP2 DUP7 GAS STATICCALL ISZERO DUP1 ISZERO PUSH3 0xA40 JUMPI RETURNDATASIZE PUSH1 0x0 DUP1 RETURNDATACOPY RETURNDATASIZE PUSH1 0x0 REVERT JUMPDEST POP POP POP POP PUSH1 0x40 MLOAD RETURNDATASIZE PUSH1 0x1F NOT PUSH1 0x1F DUP3 ADD AND DUP3 ADD DUP1 PUSH1 0x40 MSTORE POP DUP2 ADD SWAP1 PUSH3 0xA66 SWAP2 SWAP1 PUSH3 0x20B9 JUMP JUMPDEST PUSH1 0x1 SLOAD PUSH1 0x40 MLOAD PUSH4 0x64E329CB PUSH1 0xE1 SHL DUP2 MSTORE ADDRESS PUSH1 0x4 DUP3 ADD MSTORE PUSH1 0x1 PUSH1 0x1 PUSH1 0xA0 SHL SUB SWAP2 DUP3 AND PUSH1 0x24 DUP3 ADD MSTORE SWAP2 AND SWAP1 PUSH4 0xC9C65396 SWAP1 PUSH1 0x44 ADD PUSH1 0x20 PUSH1 0x40 MLOAD DUP1 DUP4 SUB DUP2 PUSH1 0x0 DUP8 GAS CALL ISZERO DUP1 ISZERO PUSH3 0xAB8 JUMPI RETURNDATASIZE PUSH1 0x0 DUP1 RETURNDATACOPY RETURNDATASIZE PUSH1 0x0 REVERT JUMPDEST POP POP POP POP PUSH1 0x40 MLOAD RETURNDATASIZE PUSH1 0x1F NOT PUSH1 0x1F DUP3 ADD AND DUP3 ADD DUP1 PUSH1 0x40 MSTORE POP DUP2 ADD SWAP1 PUSH3 0xADE SWAP2 SWAP1 PUSH3 0x20B9 JUMP JUMPDEST PUSH1 0x1E DUP1 SLOAD PUSH1 0x1 PUSH1 0x1 PUSH1 0xA0 SHL SUB NOT AND PUSH1 0x1 PUSH1 0x1 PUSH1 0xA0 SHL SUB SWAP3 SWAP1 SWAP3 AND SWAP2 SWAP1 SWAP2 OR SWAP1 SSTORE DUP3 MLOAD PUSH1 0x16 DUP1 SLOAD PUSH1 0x20 DUP1 DUP8 ADD MLOAD PUSH4 0xFFFFFFFF PUSH1 0x28 SHL NOT SWAP1 SWAP3 AND PUSH2 0xFFFF SWAP5 DUP6 AND PUSH6 0x10000000000 SWAP1 DUP2 MUL PUSH2 0xFFFF PUSH1 0x38 SHL NOT AND SWAP2 SWAP1 SWAP2 OR PUSH8 0x100000000000000 SWAP4 DUP7 AND DUP5 MUL OR SWAP4 DUP5 SWAP1 SSTORE PUSH1 0x40 DUP1 MLOAD SWAP2 DUP6 DIV DUP7 AND DUP3 MSTORE SWAP3 SWAP1 SWAP4 DIV SWAP1 SWAP4 AND SWAP3 DUP3 ADD SWAP3 SWAP1 SWAP3 MSTORE PUSH1 0x0 DUP2 DUP4 ADD DUP2 SWAP1 MSTORE PUSH1 0x60 DUP3 ADD MSTORE SWAP1 MLOAD PUSH32 0x95C5C99557725E816FAF752C6675D63483841C28A7A009ED792470A9CB4DEA23 SWAP2 DUP2 SWAP1 SUB PUSH1 0x80 ADD SWAP1 LOG1 PUSH1 0x40 DUP4 DUP2 ADD MLOAD PUSH1 0x16 DUP1 SLOAD PUSH1 0x60 DUP1 DUP9 ADD MLOAD PUSH4 0xFFFFFFFF PUSH1 0x48 SHL NOT SWAP1 SWAP3 AND PUSH2 0xFFFF SWAP5 DUP6 AND PUSH10 0x1000000000000000000 SWAP1 DUP2 MUL PUSH2 0xFFFF PUSH1 0x58 SHL NOT AND SWAP2 SWAP1 SWAP2 OR PUSH12 0x10000000000000000000000 SWAP4 DUP7 AND DUP5 MUL OR SWAP4 DUP5 SWAP1 SSTORE DUP6 MLOAD SWAP1 DUP5 DIV DUP6 AND DUP2 MSTORE SWAP2 SWAP1 SWAP3 DIV SWAP1 SWAP3 AND PUSH1 0x20 DUP4 ADD MSTORE PUSH1 0x0 DUP3 DUP5 ADD DUP2 SWAP1 MSTORE SWAP1 DUP3 ADD MSTORE SWAP1 MLOAD PUSH32 0x1D6B62961D401D548EB1549C97109C0B905CCD7AF9C3777D3076CC8438FDFE65 SWAP2 DUP2 SWAP1 SUB PUSH1 0x80 ADD SWAP1 LOG1 PUSH1 0xC0 DUP4 ADD MLOAD PUSH1 0x16 DUP1 SLOAD PUSH1 0xE0 DUP7 ADD MLOAD PUSH4 0xFFFFFFFF PUSH1 0x68 SHL NOT SWAP1 SWAP2 AND PUSH2 0xFFFF SWAP4 DUP5 AND PUSH14 0x100000000000000000000000000 SWAP1 DUP2 MUL PUSH2 0xFFFF PUSH1 0x78 SHL NOT AND SWAP2 SWAP1 SWAP2 OR PUSH1 0x1 PUSH1 0x78 SHL SWAP3 DUP6 AND DUP4 MUL OR SWAP3 DUP4 SWAP1 SSTORE PUSH1 0x40 DUP1 MLOAD SWAP2 DUP5 DIV DUP6 AND DUP3 MSTORE SWAP2 SWAP1 SWAP3 DIV SWAP1 SWAP3 AND PUSH1 0x20 DUP3 ADD MSTORE PUSH1 0x0 DUP2 DUP4 ADD DUP2 SWAP1 MSTORE PUSH1 0x60 DUP3 ADD MSTORE SWAP1 MLOAD PUSH32 0x2893EF6309F9DF0D45B134FCB021EB854592432DB91782F02CE6B9029D147031 SWAP2 DUP2 SWAP1 SUB PUSH1 0x80 ADD SWAP1 LOG1 PUSH2 0x100 DUP4 ADD MLOAD PUSH1 0x16 DUP1 SLOAD PUSH2 0x120 DUP7 ADD MLOAD PUSH4 0xFFFFFFFF PUSH1 0x88 SHL NOT SWAP1 SWAP2 AND PUSH2 0xFFFF SWAP4 DUP5 AND PUSH1 0x1 PUSH1 0x88 SHL SWAP1 DUP2 MUL PUSH2 0xFFFF PUSH1 0x98 SHL NOT AND SWAP2 SWAP1 SWAP2 OR PUSH1 0x1 PUSH1 0x98 SHL SWAP3 DUP6 AND DUP4 MUL OR SWAP3 DUP4 SWAP1 SSTORE PUSH1 0x40 DUP1 MLOAD SWAP2 DUP5 DIV DUP6 AND DUP3 MSTORE SWAP2 SWAP1 SWAP3 DIV SWAP1 SWAP3 AND PUSH1 0x20 DUP3 ADD MSTORE PUSH1 0x0 DUP2 DUP4 ADD DUP2 SWAP1 MSTORE PUSH1 0x60 DUP3 ADD MSTORE SWAP1 MLOAD PUSH32 0x1F5C7A45D273917DFC98816F1DD17A88893A7338E7BEAA4D305FC8C84F8FE25 SWAP2 DUP2 SWAP1 SUB PUSH1 0x80 ADD SWAP1 LOG1 PUSH1 0x80 DUP1 DUP5 ADD MLOAD PUSH1 0x16 DUP1 SLOAD PUSH1 0xA0 DUP8 ADD MLOAD PUSH2 0xFFFF SWAP1 DUP2 AND PUSH4 0x1000000 SWAP1 DUP2 MUL PUSH5 0xFFFF000000 NOT PUSH2 0x100 SWAP7 DUP5 AND DUP8 MUL AND PUSH5 0xFFFFFFFF00 NOT SWAP1 SWAP5 AND SWAP4 SWAP1 SWAP4 OR SWAP3 SWAP1 SWAP3 OR SWAP3 DUP4 SWAP1 SSTORE PUSH1 0x40 DUP1 MLOAD SWAP5 DUP5 DIV DUP3 AND DUP6 MSTORE SWAP2 SWAP1 SWAP3 DIV SWAP1 SWAP2 AND PUSH1 0x20 DUP4 ADD MSTORE PUSH1 0x0 SWAP1 DUP3 ADD DUP2 SWAP1 MSTORE PUSH1 0x60 DUP3 ADD MSTORE PUSH32 0xA21D45DAB14D5D2F53AE98D95D951CD627FCF1B5BC485174326568B5E0A4572 SWAP2 ADD PUSH1 0x40 MLOAD DUP1 SWAP2 SUB SWAP1 LOG1 PUSH3 0xE09 PUSH2 0x2710 DUP10 PUSH3 0x20F5 JUMP JUMPDEST PUSH1 0x19 DUP2 SWAP1 SSTORE PUSH1 0x40 DUP1 MLOAD SWAP2 DUP3 MSTORE PUSH1 0x0 PUSH1 0x20 DUP4 ADD MSTORE PUSH32 0x772A06BC936EB749842080C472181E970CD4F23BD1AB7D0B84A80AEC26910434 SWAP2 ADD PUSH1 0x40 MLOAD DUP1 SWAP2 SUB SWAP1 LOG1 PUSH3 0xE55 PUSH2 0x2710 DUP10 PUSH3 0x20F5 JUMP JUMPDEST DUP7 LT ISZERO PUSH3 0xEBB JUMPI PUSH1 0x40 MLOAD PUSH3 0x461BCD PUSH1 0xE5 SHL DUP2 MSTORE PUSH1 0x20 PUSH1 0x4 DUP3 ADD MSTORE PUSH1 0x2C PUSH1 0x24 DUP3 ADD MSTORE PUSH32 0x6D61785472616E73616374696F6E416D6F756E74203E3D20746F74616C207375 PUSH1 0x44 DUP3 ADD MSTORE PUSH12 0x70706C79202F20313030303 PUSH1 0xA4 SHL PUSH1 0x64 DUP3 ADD MSTORE PUSH1 0x84 ADD PUSH3 0xDC JUMP JUMPDEST PUSH3 0xEC9 PUSH2 0x2710 DUP10 PUSH3 0x20F5 JUMP JUMPDEST DUP8 LT ISZERO PUSH3 0xF24 JUMPI PUSH1 0x40 MLOAD PUSH3 0x461BCD PUSH1 0xE5 SHL DUP2 MSTORE PUSH1 0x20 PUSH1 0x4 DUP3 ADD MSTORE PUSH1 0x21 PUSH1 0x24 DUP3 ADD MSTORE PUSH32 0x6D617857616C6C6574203E3D20746F74616C20737570706C79202F2031303030 PUSH1 0x44 DUP3 ADD MSTORE PUSH1 0x3 PUSH1 0xFC SHL PUSH1 0x64 DUP3 ADD MSTORE PUSH1 0x84 ADD PUSH3 0xDC JUMP JUMPDEST PUSH1 0x1A DUP8 SWAP1 SSTORE PUSH1 0x40 DUP1 MLOAD DUP9 DUP2 MSTORE PUSH1 0x0 PUSH1 0x20 DUP3 ADD MSTORE PUSH32 0xFF64D41F60FEB77D52F64AE64A9FC3929D57A89D0CC55728762468BAE5E0FE52 SWAP2 ADD PUSH1 0x40 MLOAD DUP1 SWAP2 SUB SWAP1 LOG1 PUSH1 0x1B DUP7 SWAP1 SSTORE PUSH1 0x40 DUP1 MLOAD DUP8 DUP2 MSTORE PUSH1 0x0 PUSH1 0x20 DUP3 ADD MSTORE PUSH32 0x35EEC0711AF6FBE3039535323BE51B57996B6945B0D55862607C7A02E52E4507 SWAP2 ADD PUSH1 0x40 MLOAD DUP1 SWAP2 SUB SWAP1 LOG1 PUSH1 0x5 PUSH1 0x20 SWAP1 DUP2 MSTORE PUSH32 0x7D509C07F0D4EDCC2DD1B53AAE68677132EB562DCBA78E36381B63CCAF66E6BA DUP1 SLOAD PUSH1 0x1 PUSH1 0xFF NOT SWAP2 DUP3 AND DUP2 OR SWAP1 SWAP3 SSTORE PUSH1 0x6 DUP1 SLOAD DUP1 DUP5 ADD DUP3 SSTORE PUSH1 0x0 DUP1 MLOAD PUSH1 0x20 PUSH3 0x7D6D DUP4 CODECOPY DUP2 MLOAD SWAP2 MSTORE SWAP1 DUP2 ADD DUP1 SLOAD PUSH2 0xDEAD PUSH1 0x1 PUSH1 0x1 PUSH1 0xA0 SHL SUB NOT SWAP2 DUP3 AND OR SWAP1 SWAP2 SSTORE ADDRESS PUSH1 0x0 DUP2 DUP2 MSTORE PUSH1 0x40 DUP1 DUP3 KECCAK256 DUP1 SLOAD DUP9 AND DUP10 OR SWAP1 SSTORE DUP6 SLOAD DUP1 DUP10 ADD SWAP1 SWAP7 SSTORE SWAP5 SWAP1 SWAP4 ADD DUP1 SLOAD SWAP1 SWAP3 AND DUP2 OR SWAP1 SWAP2 SSTORE PUSH1 0x1F DUP7 MSTORE DUP3 DUP3 KECCAK256 DUP1 SLOAD DUP6 AND DUP7 OR SWAP1 SSTORE PUSH1 0x17 DUP1 SLOAD PUSH1 0x1 PUSH1 0x1 PUSH1 0xA0 SHL SUB SWAP1 DUP2 AND DUP5 MSTORE DUP5 DUP5 KECCAK256 DUP1 SLOAD DUP8 AND DUP9 OR SWAP1 SSTORE PUSH1 0x18 DUP1 SLOAD DUP3 AND DUP6 MSTORE DUP6 DUP6 KECCAK256 DUP1 SLOAD DUP9 AND DUP10 OR SWAP1 SSTORE DUP11 DUP3 AND DUP1 DUP7 MSTORE DUP7 DUP7 KECCAK256 DUP1 SLOAD DUP10 AND DUP11 OR SWAP1 SSTORE PUSH32 0xEF94442DFC0E910CA743614215A10FAD3FF708BF5378F9C5C958C9192B3BF004 DUP1 SLOAD DUP10 AND DUP11 OR SWAP1 SSTORE SWAP9 DUP1 MSTORE PUSH32 0xCBAAD361C71BE11FA6BDBE0E740C6259BE964B32182DA2DA47B54472477C6A17 DUP1 SLOAD DUP9 AND DUP10 OR SWAP1 SSTORE SWAP3 DUP5 MSTORE DUP5 DUP5 KECCAK256 DUP1 SLOAD DUP8 AND DUP9 OR SWAP1 SSTORE SWAP1 SLOAD DUP2 AND DUP4 MSTORE DUP4 DUP4 KECCAK256 DUP1 SLOAD DUP7 AND DUP8 OR SWAP1 SSTORE SWAP1 SLOAD DUP2 AND DUP3 MSTORE DUP3 DUP3 KECCAK256 DUP1 SLOAD DUP6 AND DUP7 OR SWAP1 SSTORE SWAP5 DUP2 MSTORE KECCAK256 DUP1 SLOAD SWAP1 SWAP2 AND DUP3 OR SWAP1 SSTORE PUSH1 0x1E SLOAD PUSH3 0x1122 SWAP3 AND SWAP1 PUSH3 0x12F7 JUMP JUMPDEST PUSH3 0x112D DUP3 PUSH3 0x1436 JUMP JUMPDEST PUSH1 0x40 MLOAD DUP9 DUP2 MSTORE PUSH1 0x1 PUSH1 0x1 PUSH1 0xA0 SHL SUB DUP4 AND SWAP1 PUSH1 0x0 SWAP1 PUSH32 0xDDF252AD1BE2C89B69C2B068FC378DAA952BA7F163C4A11628F55A4DF523B3EF SWAP1 PUSH1 0x20 ADD PUSH1 0x40 MLOAD DUP1 SWAP2 SUB SWAP1 LOG3 POP POP POP POP POP POP POP POP POP POP POP PUSH3 0x216E JUMP JUMPDEST PUSH1 0x0 DUP1 SLOAD PUSH1 0x1 PUSH1 0x1 PUSH1 0xA0 SHL SUB DUP4 DUP2 AND PUSH1 0x1 PUSH1 0x1 PUSH1 0xA0 SHL SUB NOT DUP4 AND DUP2 OR DUP5 SSTORE PUSH1 0x40 MLOAD SWAP2 SWAP1 SWAP3 AND SWAP3 DUP4 SWAP2 PUSH32 0x8BE0079C531659141344CD1FD0A4F28419497F9722A3DAAFE3B4186F6B6457E0 SWAP2 SWAP1 LOG3 POP POP JUMP JUMPDEST PUSH1 0x1 PUSH1 0x1 PUSH1 0xA0 SHL SUB DUP4 AND PUSH3 0x1233 JUMPI PUSH1 0x40 MLOAD PUSH3 0x461BCD PUSH1 0xE5 SHL DUP2 MSTORE PUSH1 0x20 PUSH1 0x4 DUP3 ADD MSTORE PUSH1 0x24 DUP1 DUP3 ADD MSTORE PUSH32 0x45524332303A20617070726F76652066726F6D20746865207A65726F20616464 PUSH1 0x44 DUP3 ADD MSTORE PUSH4 0x72657373 PUSH1 0xE0 SHL PUSH1 0x64 DUP3 ADD MSTORE PUSH1 0x84 ADD PUSH3 0xDC JUMP JUMPDEST PUSH1 0x1 PUSH1 0x1 PUSH1 0xA0 SHL SUB DUP3 AND PUSH3 0x1296 JUMPI PUSH1 0x40 MLOAD PUSH3 0x461BCD PUSH1 0xE5 SHL DUP2 MSTORE PUSH1 0x20 PUSH1 0x4 DUP3 ADD MSTORE PUSH1 0x22 PUSH1 0x24 DUP3 ADD MSTORE PUSH32 0x45524332303A20617070726F766520746F20746865207A65726F206164647265 PUSH1 0x44 DUP3 ADD MSTORE PUSH2 0x7373 PUSH1 0xF0 SHL PUSH1 0x64 DUP3 ADD MSTORE PUSH1 0x84 ADD PUSH3 0xDC JUMP JUMPDEST PUSH1 0x1 PUSH1 0x1 PUSH1 0xA0 SHL SUB DUP4 DUP2 AND PUSH1 0x0 DUP2 DUP2 MSTORE PUSH1 0x4 PUSH1 0x20 SWAP1 DUP2 MSTORE PUSH1 0x40 DUP1 DUP4 KECCAK256 SWAP5 DUP8 AND DUP1 DUP5 MSTORE SWAP5 DUP3 MSTORE SWAP2 DUP3 SWAP1 KECCAK256 DUP6 SWAP1 SSTORE SWAP1 MLOAD DUP5 DUP2 MSTORE PUSH32 0x8C5BE1E5EBEC7D5BD14F71427D1E84F3DD0314C0F7B2291E5B200AC8C7C3B925 SWAP2 ADD PUSH1 0x40 MLOAD DUP1 SWAP2 SUB SWAP1 LOG3 POP POP POP JUMP JUMPDEST PUSH1 0x1 PUSH1 0x1 PUSH1 0xA0 SHL SUB DUP3 AND PUSH1 0x0 SWAP1 DUP2 MSTORE PUSH1 0x21 PUSH1 0x20 MSTORE PUSH1 0x40 SWAP1 KECCAK256 SLOAD DUP2 ISZERO ISZERO PUSH1 0xFF SWAP1 SWAP2 AND ISZERO ISZERO SUB PUSH3 0x138F JUMPI PUSH1 0x40 MLOAD PUSH3 0x461BCD PUSH1 0xE5 SHL DUP2 MSTORE PUSH1 0x20 PUSH1 0x4 DUP3 ADD MSTORE PUSH1 0x38 PUSH1 0x24 DUP3 ADD MSTORE PUSH32 0x4175746F6D61746564206D61726B6574206D616B657220706169722069732061 PUSH1 0x44 DUP3 ADD MSTORE PUSH32 0x6C72656164792073657420746F20746861742076616C75650000000000000000 PUSH1 0x64 DUP3 ADD MSTORE PUSH1 0x84 ADD PUSH3 0xDC JUMP JUMPDEST PUSH1 0x1 PUSH1 0x1 PUSH1 0xA0 SHL SUB DUP3 AND PUSH1 0x0 SWAP1 DUP2 MSTORE PUSH1 0x21 PUSH1 0x20 MSTORE PUSH1 0x40 SWAP1 KECCAK256 DUP1 SLOAD PUSH1 0xFF NOT AND DUP3 ISZERO DUP1 ISZERO SWAP2 SWAP1 SWAP2 OR SWAP1 SWAP2 SSTORE PUSH3 0x13CE JUMPI PUSH3 0x13C8 DUP3 PUSH3 0x14F6 JUMP JUMPDEST PUSH3 0x13D9 JUMP JUMPDEST PUSH3 0x13D9 DUP3 PUSH3 0x16FD JUMP JUMPDEST PUSH1 0x1 PUSH1 0x1 PUSH1 0xA0 SHL SUB DUP3 AND PUSH1 0x0 DUP2 DUP2 MSTORE PUSH1 0x20 DUP1 DUP1 MSTORE PUSH1 0x40 SWAP2 DUP3 SWAP1 KECCAK256 DUP1 SLOAD PUSH1 0xFF NOT AND DUP6 ISZERO ISZERO SWAP1 DUP2 OR SWAP1 SWAP2 SSTORE SWAP2 MLOAD SWAP2 DUP3 MSTORE PUSH32 0xFFA9187BF1F18BF477BD0EA1BCBB64E93B6A98132473929EDFCE215CD9B16FAB SWAP2 ADD PUSH1 0x40 MLOAD DUP1 SWAP2 SUB SWAP1 LOG2 POP POP JUMP JUMPDEST PUSH1 0x0 SLOAD PUSH1 0x1 PUSH1 0x1 PUSH1 0xA0 SHL SUB AND CALLER EQ PUSH3 0x1481 JUMPI PUSH1 0x40 MLOAD PUSH3 0x461BCD PUSH1 0xE5 SHL DUP2 MSTORE PUSH1 0x20 PUSH1 0x4 DUP3 ADD DUP2 SWAP1 MSTORE PUSH1 0x24 DUP3 ADD MSTORE PUSH1 0x0 DUP1 MLOAD PUSH1 0x20 PUSH3 0x7D4D DUP4 CODECOPY DUP2 MLOAD SWAP2 MSTORE PUSH1 0x44 DUP3 ADD MSTORE PUSH1 0x64 ADD PUSH3 0xDC JUMP JUMPDEST PUSH1 0x1 PUSH1 0x1 PUSH1 0xA0 SHL SUB DUP2 AND PUSH3 0x14E8 JUMPI PUSH1 0x40 MLOAD PUSH3 0x461BCD PUSH1 0xE5 SHL DUP2 MSTORE PUSH1 0x20 PUSH1 0x4 DUP3 ADD MSTORE PUSH1 0x26 PUSH1 0x24 DUP3 ADD MSTORE PUSH32 0x4F776E61626C653A206E6577206F776E657220697320746865207A65726F2061 PUSH1 0x44 DUP3 ADD MSTORE PUSH6 0x646472657373 PUSH1 0xD0 SHL PUSH1 0x64 DUP3 ADD MSTORE PUSH1 0x84 ADD PUSH3 0xDC JUMP JUMPDEST PUSH3 0x14F3 DUP2 PUSH3 0x117F JUMP JUMPDEST POP JUMP JUMPDEST PUSH1 0x0 SLOAD PUSH1 0x1 PUSH1 0x1 PUSH1 0xA0 SHL SUB AND CALLER EQ PUSH3 0x1541 JUMPI PUSH1 0x40 MLOAD PUSH3 0x461BCD PUSH1 0xE5 SHL DUP2 MSTORE PUSH1 0x20 PUSH1 0x4 DUP3 ADD DUP2 SWAP1 MSTORE PUSH1 0x24 DUP3 ADD MSTORE PUSH1 0x0 DUP1 MLOAD PUSH1 0x20 PUSH3 0x7D4D DUP4 CODECOPY DUP2 MLOAD SWAP2 MSTORE PUSH1 0x44 DUP3 ADD MSTORE PUSH1 0x64 ADD PUSH3 0xDC JUMP JUMPDEST PUSH1 0x1 PUSH1 0x1 PUSH1 0xA0 SHL SUB DUP2 AND PUSH1 0x0 SWAP1 DUP2 MSTORE PUSH1 0x5 PUSH1 0x20 MSTORE PUSH1 0x40 SWAP1 KECCAK256 SLOAD PUSH1 0xFF AND ISZERO PUSH3 0x15AC JUMPI PUSH1 0x40 MLOAD PUSH3 0x461BCD PUSH1 0xE5 SHL DUP2 MSTORE PUSH1 0x20 PUSH1 0x4 DUP3 ADD MSTORE PUSH1 0x1B PUSH1 0x24 DUP3 ADD MSTORE PUSH32 0x4163636F756E7420697320616C7265616479206578636C756465640000000000 PUSH1 0x44 DUP3 ADD MSTORE PUSH1 0x64 ADD PUSH3 0xDC JUMP JUMPDEST PUSH1 0x6 SLOAD PUSH1 0x32 SWAP1 PUSH3 0x15BF SWAP1 PUSH1 0x1 PUSH3 0x210C JUMP JUMPDEST GT ISZERO PUSH3 0x164B JUMPI PUSH1 0x40 MLOAD PUSH3 0x461BCD PUSH1 0xE5 SHL DUP2 MSTORE PUSH1 0x20 PUSH1 0x4 DUP3 ADD MSTORE PUSH1 0x4D PUSH1 0x24 DUP3 ADD MSTORE PUSH32 0x43616E6E6F74206578636C756465206D6F7265207468616E203530206163636F PUSH1 0x44 DUP3 ADD MSTORE PUSH32 0x756E74732E2020496E636C75646520612070726576696F75736C79206578636C PUSH1 0x64 DUP3 ADD MSTORE PUSH13 0x3AB232B21030B2323932B9B997 PUSH1 0x99 SHL PUSH1 0x84 DUP3 ADD MSTORE PUSH1 0xA4 ADD PUSH3 0xDC JUMP JUMPDEST PUSH1 0x1 PUSH1 0x1 PUSH1 0xA0 SHL SUB DUP2 AND PUSH1 0x0 SWAP1 DUP2 MSTORE PUSH1 0x2 PUSH1 0x20 MSTORE PUSH1 0x40 SWAP1 KECCAK256 SLOAD ISZERO PUSH3 0x16A8 JUMPI PUSH1 0x1 PUSH1 0x1 PUSH1 0xA0 SHL SUB DUP2 AND PUSH1 0x0 SWAP1 DUP2 MSTORE PUSH1 0x2 PUSH1 0x20 MSTORE PUSH1 0x40 SWAP1 KECCAK256 SLOAD PUSH3 0x168E SWAP1 PUSH3 0x1973 JUMP JUMPDEST PUSH1 0x1 PUSH1 0x1 PUSH1 0xA0 SHL SUB DUP3 AND PUSH1 0x0 SWAP1 DUP2 MSTORE PUSH1 0x3 PUSH1 0x20 MSTORE PUSH1 0x40 SWAP1 KECCAK256 SSTORE JUMPDEST PUSH1 0x1 PUSH1 0x1 PUSH1 0xA0 SHL SUB AND PUSH1 0x0 DUP2 DUP2 MSTORE PUSH1 0x5 PUSH1 0x20 MSTORE PUSH1 0x40 DUP2 KECCAK256 DUP1 SLOAD PUSH1 0xFF NOT AND PUSH1 0x1 SWAP1 DUP2 OR SWAP1 SWAP2 SSTORE PUSH1 0x6 DUP1 SLOAD SWAP2 DUP3 ADD DUP2 SSTORE SWAP1 SWAP2 MSTORE PUSH1 0x0 DUP1 MLOAD PUSH1 0x20 PUSH3 0x7D6D DUP4 CODECOPY DUP2 MLOAD SWAP2 MSTORE ADD DUP1 SLOAD PUSH1 0x1 PUSH1 0x1 PUSH1 0xA0 SHL SUB NOT AND SWAP1 SWAP2 OR SWAP1 SSTORE JUMP JUMPDEST PUSH1 0x0 SLOAD PUSH1 0x1 PUSH1 0x1 PUSH1 0xA0 SHL SUB AND CALLER EQ PUSH3 0x1748 JUMPI PUSH1 0x40 MLOAD PUSH3 0x461BCD PUSH1 0xE5 SHL DUP2 MSTORE PUSH1 0x20 PUSH1 0x4 DUP3 ADD DUP2 SWAP1 MSTORE PUSH1 0x24 DUP3 ADD MSTORE PUSH1 0x0 DUP1 MLOAD PUSH1 0x20 PUSH3 0x7D4D DUP4 CODECOPY DUP2 MLOAD SWAP2 MSTORE PUSH1 0x44 DUP3 ADD MSTORE PUSH1 0x64 ADD PUSH3 0xDC JUMP JUMPDEST PUSH1 0x1 PUSH1 0x1 PUSH1 0xA0 SHL SUB DUP2 AND PUSH1 0x0 SWAP1 DUP2 MSTORE PUSH1 0x5 PUSH1 0x20 MSTORE PUSH1 0x40 SWAP1 KECCAK256 SLOAD PUSH1 0xFF AND PUSH3 0x17B2 JUMPI PUSH1 0x40 MLOAD PUSH3 0x461BCD PUSH1 0xE5 SHL DUP2 MSTORE PUSH1 0x20 PUSH1 0x4 DUP3 ADD MSTORE PUSH1 0x17 PUSH1 0x24 DUP3 ADD MSTORE PUSH32 0x4163636F756E74206973206E6F74206578636C75646564000000000000000000 PUSH1 0x44 DUP3 ADD MSTORE PUSH1 0x64 ADD PUSH3 0xDC JUMP JUMPDEST PUSH1 0x0 JUMPDEST PUSH1 0x6 SLOAD DUP2 LT ISZERO PUSH3 0x196F JUMPI DUP2 PUSH1 0x1 PUSH1 0x1 PUSH1 0xA0 SHL SUB AND PUSH1 0x6 DUP3 DUP2 SLOAD DUP2 LT PUSH3 0x17E0 JUMPI PUSH3 0x17E0 PUSH3 0x1EC4 JUMP JUMPDEST PUSH1 0x0 SWAP2 DUP3 MSTORE PUSH1 0x20 SWAP1 SWAP2 KECCAK256 ADD SLOAD PUSH1 0x1 PUSH1 0x1 PUSH1 0xA0 SHL SUB AND SUB PUSH3 0x195A JUMPI PUSH1 0x1 PUSH1 0x1 PUSH1 0xA0 SHL SUB DUP3 AND PUSH1 0x0 SWAP1 DUP2 MSTORE PUSH1 0x2 PUSH1 0x20 MSTORE PUSH1 0x40 SWAP1 KECCAK256 SLOAD PUSH3 0x181E PUSH3 0x19FD JUMP JUMPDEST PUSH1 0x1 PUSH1 0x1 PUSH1 0xA0 SHL SUB DUP5 AND PUSH1 0x0 SWAP1 DUP2 MSTORE PUSH1 0x3 PUSH1 0x20 MSTORE PUSH1 0x40 SWAP1 KECCAK256 SLOAD PUSH3 0x1843 SWAP2 SWAP1 PUSH3 0x2122 JUMP JUMPDEST PUSH1 0x1 PUSH1 0x1 PUSH1 0xA0 SHL SUB DUP5 AND PUSH1 0x0 SWAP1 DUP2 MSTORE PUSH1 0x2 PUSH1 0x20 MSTORE PUSH1 0x40 SWAP1 KECCAK256 DUP2 SWAP1 SSTORE PUSH1 0x8 SLOAD PUSH3 0x186E SWAP1 DUP4 SWAP1 PUSH3 0x2078 JUMP JUMPDEST PUSH3 0x187A SWAP2 SWAP1 PUSH3 0x210C JUMP JUMPDEST PUSH1 0x8 SSTORE PUSH1 0x1 PUSH1 0x1 PUSH1 0xA0 SHL SUB DUP4 AND PUSH1 0x0 SWAP1 DUP2 MSTORE PUSH1 0x5 PUSH1 0x20 MSTORE PUSH1 0x40 SWAP1 KECCAK256 DUP1 SLOAD PUSH1 0xFF NOT AND SWAP1 SSTORE PUSH1 0x6 DUP1 SLOAD PUSH3 0x18AF SWAP1 PUSH1 0x1 SWAP1 PUSH3 0x2078 JUMP JUMPDEST DUP2 SLOAD DUP2 LT PUSH3 0x18C2 JUMPI PUSH3 0x18C2 PUSH3 0x1EC4 JUMP JUMPDEST PUSH1 0x0 SWAP2 DUP3 MSTORE PUSH1 0x20 SWAP1 SWAP2 KECCAK256 ADD SLOAD PUSH1 0x6 DUP1 SLOAD PUSH1 0x1 PUSH1 0x1 PUSH1 0xA0 SHL SUB SWAP1 SWAP3 AND SWAP2 DUP5 SWAP1 DUP2 LT PUSH3 0x18F1 JUMPI PUSH3 0x18F1 PUSH3 0x1EC4 JUMP JUMPDEST SWAP1 PUSH1 0x0 MSTORE PUSH1 0x20 PUSH1 0x0 KECCAK256 ADD PUSH1 0x0 PUSH2 0x100 EXP DUP2 SLOAD DUP2 PUSH1 0x1 PUSH1 0x1 PUSH1 0xA0 SHL SUB MUL NOT AND SWAP1 DUP4 PUSH1 0x1 PUSH1 0x1 PUSH1 0xA0 SHL SUB AND MUL OR SWAP1 SSTORE POP PUSH1 0x6 DUP1 SLOAD DUP1 PUSH3 0x1933 JUMPI PUSH3 0x1933 PUSH3 0x213C JUMP JUMPDEST PUSH1 0x0 DUP3 DUP2 MSTORE PUSH1 0x20 SWAP1 KECCAK256 DUP2 ADD PUSH1 0x0 NOT SWAP1 DUP2 ADD DUP1 SLOAD PUSH1 0x1 PUSH1 0x1 PUSH1 0xA0 SHL SUB NOT AND SWAP1 SSTORE ADD SWAP1 SSTORE POP POP POP JUMP JUMPDEST DUP1 PUSH3 0x1966 DUP2 PUSH3 0x2152 JUMP JUMPDEST SWAP2 POP POP PUSH3 0x17B5 JUMP JUMPDEST POP POP JUMP JUMPDEST PUSH1 0x0 PUSH1 0x8 SLOAD DUP3 GT ISZERO PUSH3 0x19DC JUMPI PUSH1 0x40 MLOAD PUSH3 0x461BCD PUSH1 0xE5 SHL DUP2 MSTORE PUSH1 0x20 PUSH1 0x4 DUP3 ADD MSTORE PUSH1 0x2A PUSH1 0x24 DUP3 ADD MSTORE PUSH32 0x416D6F756E74206D757374206265206C657373207468616E20746F74616C2072 PUSH1 0x44 DUP3 ADD MSTORE PUSH10 0x65666C656374696F6E73 PUSH1 0xB0 SHL PUSH1 0x64 DUP3 ADD MSTORE PUSH1 0x84 ADD PUSH3 0xDC JUMP JUMPDEST PUSH1 0x0 PUSH3 0x19E8 PUSH3 0x19FD JUMP JUMPDEST SWAP1 POP PUSH3 0x19F6 DUP2 DUP5 PUSH3 0x20F5 JUMP JUMPDEST SWAP4 SWAP3 POP POP POP JUMP JUMPDEST PUSH1 0x0 DUP1 DUP1 PUSH3 0x1A0B PUSH3 0x1A23 JUMP JUMPDEST SWAP1 SWAP3 POP SWAP1 POP PUSH3 0x1A1C DUP2 DUP4 PUSH3 0x20F5 JUMP JUMPDEST SWAP3 POP POP POP SWAP1 JUMP JUMPDEST PUSH1 0x8 SLOAD PUSH1 0x7 SLOAD PUSH1 0x0 SWAP2 DUP3 SWAP2 DUP3 JUMPDEST PUSH1 0x6 SLOAD DUP2 LT ISZERO PUSH3 0x1B8B JUMPI DUP3 PUSH1 0x2 PUSH1 0x0 PUSH1 0x6 DUP5 DUP2 SLOAD DUP2 LT PUSH3 0x1A56 JUMPI PUSH3 0x1A56 PUSH3 0x1EC4 JUMP JUMPDEST PUSH1 0x0 SWAP2 DUP3 MSTORE PUSH1 0x20 DUP1 DUP4 KECCAK256 SWAP1 SWAP2 ADD SLOAD PUSH1 0x1 PUSH1 0x1 PUSH1 0xA0 SHL SUB AND DUP4 MSTORE DUP3 ADD SWAP3 SWAP1 SWAP3 MSTORE PUSH1 0x40 ADD SWAP1 KECCAK256 SLOAD GT DUP1 PUSH3 0x1AC5 JUMPI POP DUP2 PUSH1 0x3 PUSH1 0x0 PUSH1 0x6 DUP5 DUP2 SLOAD DUP2 LT PUSH3 0x1A9E JUMPI PUSH3 0x1A9E PUSH3 0x1EC4 JUMP JUMPDEST PUSH1 0x0 SWAP2 DUP3 MSTORE PUSH1 0x20 DUP1 DUP4 KECCAK256 SWAP1 SWAP2 ADD SLOAD PUSH1 0x1 PUSH1 0x1 PUSH1 0xA0 SHL SUB AND DUP4 MSTORE DUP3 ADD SWAP3 SWAP1 SWAP3 MSTORE PUSH1 0x40 ADD SWAP1 KECCAK256 SLOAD GT JUMPDEST ISZERO PUSH3 0x1ADC JUMPI PUSH1 0x8 SLOAD PUSH1 0x7 SLOAD SWAP5 POP SWAP5 POP POP POP POP SWAP1 SWAP2 JUMP JUMPDEST PUSH1 0x2 PUSH1 0x0 PUSH1 0x6 DUP4 DUP2 SLOAD DUP2 LT PUSH3 0x1AF6 JUMPI PUSH3 0x1AF6 PUSH3 0x1EC4 JUMP JUMPDEST PUSH1 0x0 SWAP2 DUP3 MSTORE PUSH1 0x20 DUP1 DUP4 KECCAK256 SWAP1 SWAP2 ADD SLOAD PUSH1 0x1 PUSH1 0x1 PUSH1 0xA0 SHL SUB AND DUP4 MSTORE DUP3 ADD SWAP3 SWAP1 SWAP3 MSTORE PUSH1 0x40 ADD SWAP1 KECCAK256 SLOAD PUSH3 0x1B27 SWAP1 DUP5 PUSH3 0x2078 JUMP JUMPDEST SWAP3 POP PUSH1 0x3 PUSH1 0x0 PUSH1 0x6 DUP4 DUP2 SLOAD DUP2 LT PUSH3 0x1B43 JUMPI PUSH3 0x1B43 PUSH3 0x1EC4 JUMP JUMPDEST PUSH1 0x0 SWAP2 DUP3 MSTORE PUSH1 0x20 DUP1 DUP4 KECCAK256 SWAP1 SWAP2 ADD SLOAD PUSH1 0x1 PUSH1 0x1 PUSH1 0xA0 SHL SUB AND DUP4 MSTORE DUP3 ADD SWAP3 SWAP1 SWAP3 MSTORE PUSH1 0x40 ADD SWAP1 KECCAK256 SLOAD PUSH3 0x1B74 SWAP1 DUP4 PUSH3 0x2078 JUMP JUMPDEST SWAP2 POP DUP1 PUSH3 0x1B82 DUP2 PUSH3 0x2152 JUMP JUMPDEST SWAP2 POP POP PUSH3 0x1A30 JUMP JUMPDEST POP PUSH1 0x7 SLOAD PUSH1 0x8 SLOAD PUSH3 0x1B9E SWAP2 SWAP1 PUSH3 0x20F5 JUMP JUMPDEST DUP3 LT ISZERO PUSH3 0x1BB6 JUMPI PUSH1 0x8 SLOAD PUSH1 0x7 SLOAD SWAP4 POP SWAP4 POP POP POP SWAP1 SWAP2 JUMP JUMPDEST SWAP1 SWAP4 SWAP1 SWAP3 POP SWAP1 POP JUMP JUMPDEST PUSH2 0x63B DUP1 PUSH3 0x7712 DUP4 CODECOPY ADD SWAP1 JUMP JUMPDEST PUSH4 0x4E487B71 PUSH1 0xE0 SHL PUSH1 0x0 MSTORE PUSH1 0x41 PUSH1 0x4 MSTORE PUSH1 0x24 PUSH1 0x0 REVERT JUMPDEST PUSH1 0x40 MLOAD PUSH1 0x1F DUP3 ADD PUSH1 0x1F NOT AND DUP2 ADD PUSH1 0x1 PUSH1 0x1 PUSH1 0x40 SHL SUB DUP2 GT DUP3 DUP3 LT OR ISZERO PUSH3 0x1C0E JUMPI PUSH3 0x1C0E PUSH3 0x1BCD JUMP JUMPDEST PUSH1 0x40 MSTORE SWAP2 SWAP1 POP JUMP JUMPDEST PUSH1 0x0 DUP3 PUSH1 0x1F DUP4 ADD SLT PUSH3 0x1C28 JUMPI PUSH1 0x0 DUP1 REVERT JUMPDEST DUP2 MLOAD PUSH1 0x1 PUSH1 0x1 PUSH1 0x40 SHL SUB DUP2 GT ISZERO PUSH3 0x1C44 JUMPI PUSH3 0x1C44 PUSH3 0x1BCD JUMP JUMPDEST PUSH1 0x20 PUSH3 0x1C5A PUSH1 0x1F DUP4 ADD PUSH1 0x1F NOT AND DUP3 ADD PUSH3 0x1BE3 JUMP JUMPDEST DUP3 DUP2 MSTORE DUP6 DUP3 DUP5 DUP8 ADD ADD GT ISZERO PUSH3 0x1C6F JUMPI PUSH1 0x0 DUP1 REVERT JUMPDEST PUSH1 0x0 JUMPDEST DUP4 DUP2 LT ISZERO PUSH3 0x1C8F JUMPI DUP6 DUP2 ADD DUP4 ADD MLOAD DUP3 DUP3 ADD DUP5 ADD MSTORE DUP3 ADD PUSH3 0x1C72 JUMP JUMPDEST POP PUSH1 0x0 SWAP3 DUP2 ADD SWAP1 SWAP2 ADD SWAP2 SWAP1 SWAP2 MSTORE SWAP4 SWAP3 POP POP POP JUMP JUMPDEST DUP1 MLOAD PUSH1 0xFF DUP2 AND DUP2 EQ PUSH3 0x1CB5 JUMPI PUSH1 0x0 DUP1 REVERT JUMPDEST SWAP2 SWAP1 POP JUMP JUMPDEST DUP1 MLOAD PUSH1 0x1 PUSH1 0x1 PUSH1 0xA0 SHL SUB DUP2 AND DUP2 EQ PUSH3 0x1CB5 JUMPI PUSH1 0x0 DUP1 REVERT JUMPDEST PUSH1 0x0 DUP3 PUSH1 0x1F DUP4 ADD SLT PUSH3 0x1CE4 JUMPI PUSH1 0x0 DUP1 REVERT JUMPDEST PUSH1 0x40 MLOAD PUSH1 0x80 DUP2 ADD PUSH1 0x1 PUSH1 0x1 PUSH1 0x40 SHL SUB DUP2 GT DUP3 DUP3 LT OR ISZERO PUSH3 0x1D09 JUMPI PUSH3 0x1D09 PUSH3 0x1BCD JUMP JUMPDEST PUSH1 0x40 MSTORE DUP1 PUSH1 0x80 DUP5 ADD DUP6 DUP2 GT ISZERO PUSH3 0x1D1F JUMPI PUSH1 0x0 DUP1 REVERT JUMPDEST DUP5 JUMPDEST DUP2 DUP2 LT ISZERO PUSH3 0x1D44 JUMPI PUSH3 0x1D35 DUP2 PUSH3 0x1CBA JUMP JUMPDEST DUP4 MSTORE PUSH1 0x20 SWAP3 DUP4 ADD SWAP3 ADD PUSH3 0x1D21 JUMP JUMPDEST POP SWAP2 SWAP6 SWAP5 POP POP POP POP POP JUMP JUMPDEST DUP1 MLOAD DUP1 ISZERO ISZERO DUP2 EQ PUSH3 0x1CB5 JUMPI PUSH1 0x0 DUP1 REVERT JUMPDEST PUSH1 0x0 DUP3 PUSH1 0x1F DUP4 ADD SLT PUSH3 0x1D72 JUMPI PUSH1 0x0 DUP1 REVERT JUMPDEST PUSH1 0x40 MLOAD PUSH2 0x140 DUP1 DUP3 ADD PUSH1 0x1 PUSH1 0x1 PUSH1 0x40 SHL SUB DUP2 GT DUP4 DUP3 LT OR ISZERO PUSH3 0x1D99 JUMPI PUSH3 0x1D99 PUSH3 0x1BCD JUMP JUMPDEST PUSH1 0x40 MSTORE DUP4 ADD DUP2 DUP6 DUP3 GT ISZERO PUSH3 0x1DAD JUMPI PUSH1 0x0 DUP1 REVERT JUMPDEST DUP5 JUMPDEST DUP3 DUP2 LT ISZERO PUSH3 0x1D44 JUMPI DUP1 MLOAD PUSH2 0xFFFF DUP2 AND DUP2 EQ PUSH3 0x1DCC JUMPI PUSH1 0x0 DUP1 DUP2 REVERT JUMPDEST DUP3 MSTORE PUSH1 0x20 SWAP2 DUP3 ADD SWAP2 ADD PUSH3 0x1DAF JUMP JUMPDEST PUSH1 0x0 DUP1 PUSH1 0x0 DUP1 PUSH1 0x0 DUP1 PUSH1 0x0 DUP1 PUSH1 0x0 DUP1 PUSH2 0x2C0 DUP12 DUP14 SUB SLT ISZERO PUSH3 0x1DFC JUMPI PUSH1 0x0 DUP1 REVERT JUMPDEST DUP11 MLOAD PUSH1 0x1 PUSH1 0x1 PUSH1 0x40 SHL SUB DUP1 DUP3 GT ISZERO PUSH3 0x1E14 JUMPI PUSH1 0x0 DUP1 REVERT JUMPDEST PUSH3 0x1E22 DUP15 DUP4 DUP16 ADD PUSH3 0x1C16 JUMP JUMPDEST SWAP12 POP PUSH1 0x20 DUP14 ADD MLOAD SWAP2 POP DUP1 DUP3 GT ISZERO PUSH3 0x1E39 JUMPI PUSH1 0x0 DUP1 REVERT JUMPDEST POP PUSH3 0x1E48 DUP14 DUP3 DUP15 ADD PUSH3 0x1C16 JUMP JUMPDEST SWAP10 POP POP PUSH3 0x1E59 PUSH1 0x40 DUP13 ADD PUSH3 0x1CA3 JUMP JUMPDEST SWAP8 POP PUSH1 0x60 DUP12 ADD MLOAD SWAP7 POP PUSH1 0x80 DUP12 ADD MLOAD SWAP6 POP PUSH1 0xA0 DUP12 ADD MLOAD SWAP5 POP PUSH3 0x1E7F DUP13 PUSH1 0xC0 DUP14 ADD PUSH3 0x1CD2 JUMP JUMPDEST SWAP4 POP PUSH3 0x1E90 PUSH2 0x140 DUP13 ADD PUSH3 0x1D4F JUMP JUMPDEST SWAP3 POP PUSH3 0x1EA2 DUP13 PUSH2 0x160 DUP14 ADD PUSH3 0x1D60 JUMP JUMPDEST SWAP2 POP PUSH3 0x1EB3 PUSH2 0x2A0 DUP13 ADD PUSH3 0x1CBA JUMP JUMPDEST SWAP1 POP SWAP3 SWAP6 SWAP9 SWAP12 SWAP2 SWAP5 SWAP8 SWAP11 POP SWAP3 SWAP6 SWAP9 POP JUMP JUMPDEST PUSH4 0x4E487B71 PUSH1 0xE0 SHL PUSH1 0x0 MSTORE PUSH1 0x32 PUSH1 0x4 MSTORE PUSH1 0x24 PUSH1 0x0 REVERT JUMPDEST PUSH1 0x1 DUP2 DUP2 SHR SWAP1 DUP3 AND DUP1 PUSH3 0x1EEF JUMPI PUSH1 0x7F DUP3 AND SWAP2 POP JUMPDEST PUSH1 0x20 DUP3 LT DUP2 SUB PUSH3 0x1F10 JUMPI PUSH4 0x4E487B71 PUSH1 0xE0 SHL PUSH1 0x0 MSTORE PUSH1 0x22 PUSH1 0x4 MSTORE PUSH1 0x24 PUSH1 0x0 REVERT JUMPDEST POP SWAP2 SWAP1 POP JUMP JUMPDEST PUSH1 0x1F DUP3 GT ISZERO PUSH3 0x1F64 JUMPI PUSH1 0x0 DUP2 DUP2 MSTORE PUSH1 0x20 DUP2 KECCAK256 PUSH1 0x1F DUP6 ADD PUSH1 0x5 SHR DUP2 ADD PUSH1 0x20 DUP7 LT ISZERO PUSH3 0x1F3F JUMPI POP DUP1 JUMPDEST PUSH1 0x1F DUP6 ADD PUSH1 0x5 SHR DUP3 ADD SWAP2 POP JUMPDEST DUP2 DUP2 LT ISZERO PUSH3 0x1F60 JUMPI DUP3 DUP2 SSTORE PUSH1 0x1 ADD PUSH3 0x1F4B JUMP JUMPDEST POP POP POP JUMPDEST POP POP POP JUMP JUMPDEST DUP2 MLOAD PUSH1 0x1 PUSH1 0x1 PUSH1 0x40 SHL SUB DUP2 GT ISZERO PUSH3 0x1F85 JUMPI PUSH3 0x1F85 PUSH3 0x1BCD JUMP JUMPDEST PUSH3 0x1F9D DUP2 PUSH3 0x1F96 DUP5 SLOAD PUSH3 0x1EDA JUMP JUMPDEST DUP5 PUSH3 0x1F16 JUMP JUMPDEST PUSH1 0x20 DUP1 PUSH1 0x1F DUP4 GT PUSH1 0x1 DUP2 EQ PUSH3 0x1FD5 JUMPI PUSH1 0x0 DUP5 ISZERO PUSH3 0x1FBC JUMPI POP DUP6 DUP4 ADD MLOAD JUMPDEST PUSH1 0x0 NOT PUSH1 0x3 DUP7 SWAP1 SHL SHR NOT AND PUSH1 0x1 DUP6 SWAP1 SHL OR DUP6 SSTORE PUSH3 0x1F60 JUMP JUMPDEST PUSH1 0x0 DUP6 DUP2 MSTORE PUSH1 0x20 DUP2 KECCAK256 PUSH1 0x1F NOT DUP7 AND SWAP2 JUMPDEST DUP3 DUP2 LT ISZERO PUSH3 0x2006 JUMPI DUP9 DUP7 ADD MLOAD DUP3 SSTORE SWAP5 DUP5 ADD SWAP5 PUSH1 0x1 SWAP1 SWAP2 ADD SWAP1 DUP5 ADD PUSH3 0x1FE5 JUMP JUMPDEST POP DUP6 DUP3 LT ISZERO PUSH3 0x2025 JUMPI DUP8 DUP6 ADD MLOAD PUSH1 0x0 NOT PUSH1 0x3 DUP9 SWAP1 SHL PUSH1 0xF8 AND SHR NOT AND DUP2 SSTORE JUMPDEST POP POP POP POP POP PUSH1 0x1 SWAP1 DUP2 SHL ADD SWAP1 SSTORE POP JUMP JUMPDEST PUSH4 0x4E487B71 PUSH1 0xE0 SHL PUSH1 0x0 MSTORE PUSH1 0x12 PUSH1 0x4 MSTORE PUSH1 0x24 PUSH1 0x0 REVERT JUMPDEST PUSH1 0x0 DUP3 PUSH3 0x205D JUMPI PUSH3 0x205D PUSH3 0x2035 JUMP JUMPDEST POP MOD SWAP1 JUMP JUMPDEST PUSH4 0x4E487B71 PUSH1 0xE0 SHL PUSH1 0x0 MSTORE PUSH1 0x11 PUSH1 0x4 MSTORE PUSH1 0x24 PUSH1 0x0 REVERT JUMPDEST DUP2 DUP2 SUB DUP2 DUP2 GT ISZERO PUSH3 0x208E JUMPI PUSH3 0x208E PUSH3 0x2062 JUMP JUMPDEST SWAP3 SWAP2 POP POP JUMP JUMPDEST PUSH2 0xFFFF DUP2 DUP2 AND DUP4 DUP3 AND ADD SWAP1 DUP1 DUP3 GT ISZERO PUSH3 0x20B2 JUMPI PUSH3 0x20B2 PUSH3 0x2062 JUMP JUMPDEST POP SWAP3 SWAP2 POP POP JUMP JUMPDEST PUSH1 0x0 PUSH1 0x20 DUP3 DUP5 SUB SLT ISZERO PUSH3 0x20CC JUMPI PUSH1 0x0 DUP1 REVERT JUMPDEST PUSH3 0x19F6 DUP3 PUSH3 0x1CBA JUMP JUMPDEST PUSH1 0x0 PUSH1 0x20 DUP3 DUP5 SUB SLT ISZERO PUSH3 0x20EA JUMPI PUSH1 0x0 DUP1 REVERT JUMPDEST PUSH3 0x19F6 DUP3 PUSH3 0x1D4F JUMP JUMPDEST PUSH1 0x0 DUP3 PUSH3 0x2107 JUMPI PUSH3 0x2107 PUSH3 0x2035 JUMP JUMPDEST POP DIV SWAP1 JUMP JUMPDEST DUP1 DUP3 ADD DUP1 DUP3 GT ISZERO PUSH3 0x208E JUMPI PUSH3 0x208E PUSH3 0x2062 JUMP JUMPDEST DUP1 DUP3 MUL DUP2 ISZERO DUP3 DUP3 DIV DUP5 EQ OR PUSH3 0x208E JUMPI PUSH3 0x208E PUSH3 0x2062 JUMP JUMPDEST PUSH4 0x4E487B71 PUSH1 0xE0 SHL PUSH1 0x0 MSTORE PUSH1 0x31 PUSH1 0x4 MSTORE PUSH1 0x24 PUSH1 0x0 REVERT JUMPDEST PUSH1 0x0 PUSH1 0x1 DUP3 ADD PUSH3 0x2167 JUMPI PUSH3 0x2167 PUSH3 0x2062 JUMP JUMPDEST POP PUSH1 0x1 ADD SWAP1 JUMP JUMPDEST PUSH2 0x5594 DUP1 PUSH3 0x217E PUSH1 0x0 CODECOPY PUSH1 0x0 RETURN INVALID PUSH1 0x80 PUSH1 0x40 MSTORE PUSH1 0x4 CALLDATASIZE LT PUSH2 0x3A6 JUMPI PUSH1 0x0 CALLDATALOAD PUSH1 0xE0 SHR DUP1 PUSH4 0x85AF30C5 GT PUSH2 0x1E7 JUMPI DUP1 PUSH4 0xC8C8EBE4 GT PUSH2 0x10D JUMPI DUP1 PUSH4 0xE71DC3F5 GT PUSH2 0xA0 JUMPI DUP1 PUSH4 0xF420D00F GT PUSH2 0x6F JUMPI DUP1 PUSH4 0xF420D00F EQ PUSH2 0xB54 JUMPI DUP1 PUSH4 0xF6374342 EQ PUSH2 0xB74 JUMPI DUP1 PUSH4 0xF8B45B05 EQ PUSH2 0xB96 JUMPI DUP1 PUSH4 0xFC59D23D EQ PUSH2 0xBAC JUMPI PUSH1 0x0 DUP1 REVERT JUMPDEST DUP1 PUSH4 0xE71DC3F5 EQ PUSH2 0xAC1 JUMPI DUP1 PUSH4 0xE9481EEE EQ PUSH2 0xAE3 JUMPI DUP1 PUSH4 0xF11A24D3 EQ PUSH2 0xB12 JUMPI DUP1 PUSH4 0xF2FDE38B EQ PUSH2 0xB34 JUMPI PUSH1 0x0 DUP1 REVERT JUMPDEST DUP1 PUSH4 0xDD62ED3E GT PUSH2 0xDC JUMPI DUP1 PUSH4 0xDD62ED3E EQ PUSH2 0xA26 JUMPI DUP1 PUSH4 0xDE0AAD53 EQ PUSH2 0xA6C JUMPI DUP1 PUSH4 0xDF8408FE EQ PUSH2 0xA8C JUMPI DUP1 PUSH4 0xE086E5EC EQ PUSH2 0xAAC JUMPI PUSH1 0x0 DUP1 REVERT JUMPDEST DUP1 PUSH4 0xC8C8EBE4 EQ PUSH2 0x9B0 JUMPI DUP1 PUSH4 0xCF089E13 EQ PUSH2 0x9C6 JUMPI DUP1 PUSH4 0xCF188AD0 EQ PUSH2 0x9E6 JUMPI DUP1 PUSH4 0xD68F8CDE EQ PUSH2 0xA06 JUMPI PUSH1 0x0 DUP1 REVERT JUMPDEST DUP1 PUSH4 0x948384DC GT PUSH2 0x185 JUMPI DUP1 PUSH4 0xA9059CBB GT PUSH2 0x154 JUMPI DUP1 PUSH4 0xA9059CBB EQ PUSH2 0x91E JUMPI DUP1 PUSH4 0xAA498023 EQ PUSH2 0x93E JUMPI DUP1 PUSH4 0xADB873BD EQ PUSH2 0x95E JUMPI DUP1 PUSH4 0xB62496F5 EQ PUSH2 0x980 JUMPI PUSH1 0x0 DUP1 REVERT JUMPDEST DUP1 PUSH4 0x948384DC EQ PUSH2 0x8A9 JUMPI DUP1 PUSH4 0x95D89B41 EQ PUSH2 0x8C9 JUMPI DUP1 PUSH4 0x9A7A23D6 EQ PUSH2 0x8DE JUMPI DUP1 PUSH4 0xA457C2D7 EQ PUSH2 0x8FE JUMPI PUSH1 0x0 DUP1 REVERT JUMPDEST DUP1 PUSH4 0x8DA5CB5B GT PUSH2 0x1C1 JUMPI DUP1 PUSH4 0x8DA5CB5B EQ PUSH2 0x841 JUMPI DUP1 PUSH4 0x8F0BC167 EQ PUSH2 0x85F JUMPI DUP1 PUSH4 0x91C1004A EQ PUSH2 0x867 JUMPI DUP1 PUSH4 0x92136913 EQ PUSH2 0x887 JUMPI PUSH1 0x0 DUP1 REVERT JUMPDEST DUP1 PUSH4 0x85AF30C5 EQ PUSH2 0x7C8 JUMPI DUP1 PUSH4 0x88F82020 EQ PUSH2 0x7E8 JUMPI DUP1 PUSH4 0x89476069 EQ PUSH2 0x821 JUMPI PUSH1 0x0 DUP1 REVERT JUMPDEST DUP1 PUSH4 0x4707C551 GT PUSH2 0x2CC JUMPI DUP1 PUSH4 0x70A08231 GT PUSH2 0x26A JUMPI DUP1 PUSH4 0x7BCE5A04 GT PUSH2 0x239 JUMPI DUP1 PUSH4 0x7BCE5A04 EQ PUSH2 0x746 JUMPI DUP1 PUSH4 0x7CF84BD7 EQ PUSH2 0x768 JUMPI DUP1 PUSH4 0x809D458D EQ PUSH2 0x788 JUMPI DUP1 PUSH4 0x8276E5B0 EQ PUSH2 0x7A8 JUMPI PUSH1 0x0 DUP1 REVERT JUMPDEST DUP1 PUSH4 0x70A08231 EQ PUSH2 0x6D1 JUMPI DUP1 PUSH4 0x715018A6 EQ PUSH2 0x6F1 JUMPI DUP1 PUSH4 0x73B9E82C EQ PUSH2 0x706 JUMPI DUP1 PUSH4 0x75F0A874 EQ PUSH2 0x726 JUMPI PUSH1 0x0 DUP1 REVERT JUMPDEST DUP1 PUSH4 0x57E62B98 GT PUSH2 0x2A6 JUMPI DUP1 PUSH4 0x57E62B98 EQ PUSH2 0x64C JUMPI DUP1 PUSH4 0x5C068A8C EQ PUSH2 0x66D JUMPI DUP1 PUSH4 0x65B8DBC0 EQ PUSH2 0x68F JUMPI DUP1 PUSH4 0x6B2FB124 EQ PUSH2 0x6AF JUMPI PUSH1 0x0 DUP1 REVERT JUMPDEST DUP1 PUSH4 0x4707C551 EQ PUSH2 0x5DC JUMPI DUP1 PUSH4 0x52390C02 EQ PUSH2 0x5FC JUMPI DUP1 PUSH4 0x5342ACB4 EQ PUSH2 0x61C JUMPI PUSH1 0x0 DUP1 REVERT JUMPDEST DUP1 PUSH4 0x23B872DD GT PUSH2 0x344 JUMPI DUP1 PUSH4 0x3685D419 GT PUSH2 0x313 JUMPI DUP1 PUSH4 0x3685D419 EQ PUSH2 0x544 JUMPI DUP1 PUSH4 0x39509351 EQ PUSH2 0x564 JUMPI DUP1 PUSH4 0x4549B039 EQ PUSH2 0x584 JUMPI DUP1 PUSH4 0x4626402B EQ PUSH2 0x5A4 JUMPI PUSH1 0x0 DUP1 REVERT JUMPDEST DUP1 PUSH4 0x23B872DD EQ PUSH2 0x4B8 JUMPI DUP1 PUSH4 0x2AE2F121 EQ PUSH2 0x4D8 JUMPI DUP1 PUSH4 0x2D838119 EQ PUSH2 0x4F8 JUMPI DUP1 PUSH4 0x313CE567 EQ PUSH2 0x518 JUMPI PUSH1 0x0 DUP1 REVERT JUMPDEST DUP1 PUSH4 0x13114A9D GT PUSH2 0x380 JUMPI DUP1 PUSH4 0x13114A9D EQ PUSH2 0x442 JUMPI DUP1 PUSH4 0x18160DDD EQ PUSH2 0x461 JUMPI DUP1 PUSH4 0x1C499AB0 EQ PUSH2 0x476 JUMPI DUP1 PUSH4 0x2073BD85 EQ PUSH2 0x498 JUMPI PUSH1 0x0 DUP1 REVERT JUMPDEST DUP1 PUSH4 0x6FDDE03 EQ PUSH2 0x3B2 JUMPI DUP1 PUSH4 0x95EA7B3 EQ PUSH2 0x3DD JUMPI DUP1 PUSH4 0xCFE2F3F EQ PUSH2 0x40D JUMPI PUSH1 0x0 DUP1 REVERT JUMPDEST CALLDATASIZE PUSH2 0x3AD JUMPI STOP JUMPDEST PUSH1 0x0 DUP1 REVERT JUMPDEST CALLVALUE DUP1 ISZERO PUSH2 0x3BE JUMPI PUSH1 0x0 DUP1 REVERT JUMPDEST POP PUSH2 0x3C7 PUSH2 0xBC2 JUMP JUMPDEST PUSH1 0x40 MLOAD PUSH2 0x3D4 SWAP2 SWAP1 PUSH2 0x4F99 JUMP JUMPDEST PUSH1 0x40 MLOAD DUP1 SWAP2 SUB SWAP1 RETURN JUMPDEST CALLVALUE DUP1 ISZERO PUSH2 0x3E9 JUMPI PUSH1 0x0 DUP1 REVERT JUMPDEST POP PUSH2 0x3FD PUSH2 0x3F8 CALLDATASIZE PUSH1 0x4 PUSH2 0x4FE1 JUMP JUMPDEST PUSH2 0xC54 JUMP JUMPDEST PUSH1 0x40 MLOAD SWAP1 ISZERO ISZERO DUP2 MSTORE PUSH1 0x20 ADD PUSH2 0x3D4 JUMP JUMPDEST CALLVALUE DUP1 ISZERO PUSH2 0x419 JUMPI PUSH1 0x0 DUP1 REVERT JUMPDEST POP PUSH1 0x16 SLOAD PUSH2 0x42F SWAP1 PUSH4 0x1000000 SWAP1 DIV PUSH2 0xFFFF AND DUP2 JUMP JUMPDEST PUSH1 0x40 MLOAD PUSH2 0xFFFF SWAP1 SWAP2 AND DUP2 MSTORE PUSH1 0x20 ADD PUSH2 0x3D4 JUMP JUMPDEST CALLVALUE DUP1 ISZERO PUSH2 0x44E JUMPI PUSH1 0x0 DUP1 REVERT JUMPDEST POP PUSH1 0x9 SLOAD JUMPDEST PUSH1 0x40 MLOAD SWAP1 DUP2 MSTORE PUSH1 0x20 ADD PUSH2 0x3D4 JUMP JUMPDEST CALLVALUE DUP1 ISZERO PUSH2 0x46D JUMPI PUSH1 0x0 DUP1 REVERT JUMPDEST POP PUSH1 0x7 SLOAD PUSH2 0x453 JUMP JUMPDEST CALLVALUE DUP1 ISZERO PUSH2 0x482 JUMPI PUSH1 0x0 DUP1 REVERT JUMPDEST POP PUSH2 0x496 PUSH2 0x491 CALLDATASIZE PUSH1 0x4 PUSH2 0x500D JUMP JUMPDEST PUSH2 0xC6B JUMP JUMPDEST STOP JUMPDEST CALLVALUE DUP1 ISZERO PUSH2 0x4A4 JUMPI PUSH1 0x0 DUP1 REVERT JUMPDEST POP PUSH2 0x496 PUSH2 0x4B3 CALLDATASIZE PUSH1 0x4 PUSH2 0x503D JUMP JUMPDEST PUSH2 0xD49 JUMP JUMPDEST CALLVALUE DUP1 ISZERO PUSH2 0x4C4 JUMPI PUSH1 0x0 DUP1 REVERT JUMPDEST POP PUSH2 0x3FD PUSH2 0x4D3 CALLDATASIZE PUSH1 0x4 PUSH2 0x5070 JUMP JUMPDEST PUSH2 0xF48 JUMP JUMPDEST CALLVALUE DUP1 ISZERO PUSH2 0x4E4 JUMPI PUSH1 0x0 DUP1 REVERT JUMPDEST POP PUSH2 0x496 PUSH2 0x4F3 CALLDATASIZE PUSH1 0x4 PUSH2 0x50BF JUMP JUMPDEST PUSH2 0xF9B JUMP JUMPDEST CALLVALUE DUP1 ISZERO PUSH2 0x504 JUMPI PUSH1 0x0 DUP1 REVERT JUMPDEST POP PUSH2 0x453 PUSH2 0x513 CALLDATASIZE PUSH1 0x4 PUSH2 0x500D JUMP JUMPDEST PUSH2 0x107C JUMP JUMPDEST CALLVALUE DUP1 ISZERO PUSH2 0x524 JUMPI PUSH1 0x0 DUP1 REVERT JUMPDEST POP PUSH1 0x1 SLOAD PUSH1 0x1 PUSH1 0xA0 SHL SWAP1 DIV PUSH1 0xFF AND PUSH1 0x40 MLOAD PUSH1 0xFF SWAP1 SWAP2 AND DUP2 MSTORE PUSH1 0x20 ADD PUSH2 0x3D4 JUMP JUMPDEST CALLVALUE DUP1 ISZERO PUSH2 0x550 JUMPI PUSH1 0x0 DUP1 REVERT JUMPDEST POP PUSH2 0x496 PUSH2 0x55F CALLDATASIZE PUSH1 0x4 PUSH2 0x50F8 JUMP JUMPDEST PUSH2 0x10F9 JUMP JUMPDEST CALLVALUE DUP1 ISZERO PUSH2 0x570 JUMPI PUSH1 0x0 DUP1 REVERT JUMPDEST POP PUSH2 0x3FD PUSH2 0x57F CALLDATASIZE PUSH1 0x4 PUSH2 0x4FE1 JUMP JUMPDEST PUSH2 0x1331 JUMP JUMPDEST CALLVALUE DUP1 ISZERO PUSH2 0x590 JUMPI PUSH1 0x0 DUP1 REVERT JUMPDEST POP PUSH2 0x453 PUSH2 0x59F CALLDATASIZE PUSH1 0x4 PUSH2 0x5115 JUMP JUMPDEST PUSH2 0x1368 JUMP JUMPDEST CALLVALUE DUP1 ISZERO PUSH2 0x5B0 JUMPI PUSH1 0x0 DUP1 REVERT JUMPDEST POP PUSH1 0x18 SLOAD PUSH2 0x5C4 SWAP1 PUSH1 0x1 PUSH1 0x1 PUSH1 0xA0 SHL SUB AND DUP2 JUMP JUMPDEST PUSH1 0x40 MLOAD PUSH1 0x1 PUSH1 0x1 PUSH1 0xA0 SHL SUB SWAP1 SWAP2 AND DUP2 MSTORE PUSH1 0x20 ADD PUSH2 0x3D4 JUMP JUMPDEST CALLVALUE DUP1 ISZERO PUSH2 0x5E8 JUMPI PUSH1 0x0 DUP1 REVERT JUMPDEST POP PUSH2 0x496 PUSH2 0x5F7 CALLDATASIZE PUSH1 0x4 PUSH2 0x50BF JUMP JUMPDEST PUSH2 0x1415 JUMP JUMPDEST CALLVALUE DUP1 ISZERO PUSH2 0x608 JUMPI PUSH1 0x0 DUP1 REVERT JUMPDEST POP PUSH2 0x496 PUSH2 0x617 CALLDATASIZE PUSH1 0x4 PUSH2 0x50F8 JUMP JUMPDEST PUSH2 0x1579 JUMP JUMPDEST CALLVALUE DUP1 ISZERO PUSH2 0x628 JUMPI PUSH1 0x0 DUP1 REVERT JUMPDEST POP PUSH2 0x3FD PUSH2 0x637 CALLDATASIZE PUSH1 0x4 PUSH2 0x50F8 JUMP JUMPDEST PUSH1 0x1F PUSH1 0x20 MSTORE PUSH1 0x0 SWAP1 DUP2 MSTORE PUSH1 0x40 SWAP1 KECCAK256 SLOAD PUSH1 0xFF AND DUP2 JUMP JUMPDEST CALLVALUE DUP1 ISZERO PUSH2 0x658 JUMPI PUSH1 0x0 DUP1 REVERT JUMPDEST POP PUSH1 0x17 SLOAD PUSH2 0x3FD SWAP1 PUSH1 0x1 PUSH1 0xA0 SHL SWAP1 DIV PUSH1 0xFF AND DUP2 JUMP JUMPDEST CALLVALUE DUP1 ISZERO PUSH2 0x679 JUMPI PUSH1 0x0 DUP1 REVERT JUMPDEST POP PUSH1 0x16 SLOAD PUSH2 0x42F SWAP1 PUSH1 0x1 PUSH1 0x78 SHL SWAP1 DIV PUSH2 0xFFFF AND DUP2 JUMP JUMPDEST CALLVALUE DUP1 ISZERO PUSH2 0x69B JUMPI PUSH1 0x0 DUP1 REVERT JUMPDEST POP PUSH2 0x496 PUSH2 0x6AA CALLDATASIZE PUSH1 0x4 PUSH2 0x50F8 JUMP JUMPDEST PUSH2 0x1767 JUMP JUMPDEST CALLVALUE DUP1 ISZERO PUSH2 0x6BB JUMPI PUSH1 0x0 DUP1 REVERT JUMPDEST POP PUSH1 0x16 SLOAD PUSH2 0x42F SWAP1 PUSH1 0x1 PUSH1 0x68 SHL SWAP1 DIV PUSH2 0xFFFF AND DUP2 JUMP JUMPDEST CALLVALUE DUP1 ISZERO PUSH2 0x6DD JUMPI PUSH1 0x0 DUP1 REVERT JUMPDEST POP PUSH2 0x453 PUSH2 0x6EC CALLDATASIZE PUSH1 0x4 PUSH2 0x50F8 JUMP JUMPDEST PUSH2 0x1B92 JUMP JUMPDEST CALLVALUE DUP1 ISZERO PUSH2 0x6FD JUMPI PUSH1 0x0 DUP1 REVERT JUMPDEST POP PUSH2 0x496 PUSH2 0x1BF1 JUMP JUMPDEST CALLVALUE DUP1 ISZERO PUSH2 0x712 JUMPI PUSH1 0x0 DUP1 REVERT JUMPDEST POP PUSH2 0x496 PUSH2 0x721 CALLDATASIZE PUSH1 0x4 PUSH2 0x500D JUMP JUMPDEST PUSH2 0x1C27 JUMP JUMPDEST CALLVALUE DUP1 ISZERO PUSH2 0x732 JUMPI PUSH1 0x0 DUP1 REVERT JUMPDEST POP PUSH1 0x17 SLOAD PUSH2 0x5C4 SWAP1 PUSH1 0x1 PUSH1 0x1 PUSH1 0xA0 SHL SUB AND DUP2 JUMP JUMPDEST CALLVALUE DUP1 ISZERO PUSH2 0x752 JUMPI PUSH1 0x0 DUP1 REVERT JUMPDEST POP PUSH1 0x16 SLOAD PUSH2 0x42F SWAP1 PUSH1 0x1 PUSH1 0x58 SHL SWAP1 DIV PUSH2 0xFFFF AND DUP2 JUMP JUMPDEST CALLVALUE DUP1 ISZERO PUSH2 0x774 JUMPI PUSH1 0x0 DUP1 REVERT JUMPDEST POP PUSH1 0x1 SLOAD PUSH2 0x5C4 SWAP1 PUSH1 0x1 PUSH1 0x1 PUSH1 0xA0 SHL SUB AND DUP2 JUMP JUMPDEST CALLVALUE DUP1 ISZERO PUSH2 0x794 JUMPI PUSH1 0x0 DUP1 REVERT JUMPDEST POP PUSH2 0x496 PUSH2 0x7A3 CALLDATASIZE PUSH1 0x4 PUSH2 0x50F8 JUMP JUMPDEST PUSH2 0x1CDC JUMP JUMPDEST CALLVALUE DUP1 ISZERO PUSH2 0x7B4 JUMPI PUSH1 0x0 DUP1 REVERT JUMPDEST POP PUSH2 0x496 PUSH2 0x7C3 CALLDATASIZE PUSH1 0x4 PUSH2 0x503D JUMP JUMPDEST PUSH2 0x1E80 JUMP JUMPDEST CALLVALUE DUP1 ISZERO PUSH2 0x7D4 JUMPI PUSH1 0x0 DUP1 REVERT JUMPDEST POP PUSH1 0x1E SLOAD PUSH2 0x5C4 SWAP1 PUSH1 0x1 PUSH1 0x1 PUSH1 0xA0 SHL SUB AND DUP2 JUMP JUMPDEST CALLVALUE DUP1 ISZERO PUSH2 0x7F4 JUMPI PUSH1 0x0 DUP1 REVERT JUMPDEST POP PUSH2 0x3FD PUSH2 0x803 CALLDATASIZE PUSH1 0x4 PUSH2 0x50F8 JUMP JUMPDEST PUSH1 0x1 PUSH1 0x1 PUSH1 0xA0 SHL SUB AND PUSH1 0x0 SWAP1 DUP2 MSTORE PUSH1 0x5 PUSH1 0x20 MSTORE PUSH1 0x40 SWAP1 KECCAK256 SLOAD PUSH1 0xFF AND SWAP1 JUMP JUMPDEST CALLVALUE DUP1 ISZERO PUSH2 0x82D JUMPI PUSH1 0x0 DUP1 REVERT JUMPDEST POP PUSH2 0x496 PUSH2 0x83C CALLDATASIZE PUSH1 0x4 PUSH2 0x50F8 JUMP JUMPDEST PUSH2 0x207F JUMP JUMPDEST CALLVALUE DUP1 ISZERO PUSH2 0x84D JUMPI PUSH1 0x0 DUP1 REVERT JUMPDEST POP PUSH1 0x0 SLOAD PUSH1 0x1 PUSH1 0x1 PUSH1 0xA0 SHL SUB AND PUSH2 0x5C4 JUMP JUMPDEST PUSH2 0x496 PUSH2 0x217D JUMP JUMPDEST CALLVALUE DUP1 ISZERO PUSH2 0x873 JUMPI PUSH1 0x0 DUP1 REVERT JUMPDEST POP PUSH2 0x496 PUSH2 0x882 CALLDATASIZE PUSH1 0x4 PUSH2 0x50F8 JUMP JUMPDEST PUSH2 0x25D5 JUMP JUMPDEST CALLVALUE DUP1 ISZERO PUSH2 0x893 JUMPI PUSH1 0x0 DUP1 REVERT JUMPDEST POP PUSH1 0x16 SLOAD PUSH2 0x42F SWAP1 PUSH1 0x1 PUSH1 0x48 SHL SWAP1 DIV PUSH2 0xFFFF AND DUP2 JUMP JUMPDEST CALLVALUE DUP1 ISZERO PUSH2 0x8B5 JUMPI PUSH1 0x0 DUP1 REVERT JUMPDEST POP PUSH2 0x496 PUSH2 0x8C4 CALLDATASIZE PUSH1 0x4 PUSH2 0x503D JUMP JUMPDEST PUSH2 0x28D9 JUMP JUMPDEST CALLVALUE DUP1 ISZERO PUSH2 0x8D5 JUMPI PUSH1 0x0 DUP1 REVERT JUMPDEST POP PUSH2 0x3C7 PUSH2 0x2AD4 JUMP JUMPDEST CALLVALUE DUP1 ISZERO PUSH2 0x8EA JUMPI PUSH1 0x0 DUP1 REVERT JUMPDEST POP PUSH2 0x496 PUSH2 0x8F9 CALLDATASIZE PUSH1 0x4 PUSH2 0x50BF JUMP JUMPDEST PUSH2 0x2AE3 JUMP JUMPDEST CALLVALUE DUP1 ISZERO PUSH2 0x90A JUMPI PUSH1 0x0 DUP1 REVERT JUMPDEST POP PUSH2 0x3FD PUSH2 0x919 CALLDATASIZE PUSH1 0x4 PUSH2 0x4FE1 JUMP JUMPDEST PUSH2 0x2B17 JUMP JUMPDEST CALLVALUE DUP1 ISZERO PUSH2 0x92A JUMPI PUSH1 0x0 DUP1 REVERT JUMPDEST POP PUSH2 0x3FD PUSH2 0x939 CALLDATASIZE PUSH1 0x4 PUSH2 0x4FE1 JUMP JUMPDEST PUSH2 0x2B4E JUMP JUMPDEST CALLVALUE DUP1 ISZERO PUSH2 0x94A JUMPI PUSH1 0x0 DUP1 REVERT JUMPDEST POP PUSH2 0x496 PUSH2 0x959 CALLDATASIZE PUSH1 0x4 PUSH2 0x500D JUMP JUMPDEST PUSH2 0x2B5B JUMP JUMPDEST CALLVALUE DUP1 ISZERO PUSH2 0x96A JUMPI PUSH1 0x0 DUP1 REVERT JUMPDEST POP PUSH1 0x16 SLOAD PUSH2 0x42F SWAP1 PUSH1 0x1 PUSH1 0x88 SHL SWAP1 DIV PUSH2 0xFFFF AND DUP2 JUMP JUMPDEST CALLVALUE DUP1 ISZERO PUSH2 0x98C JUMPI PUSH1 0x0 DUP1 REVERT JUMPDEST POP PUSH2 0x3FD PUSH2 0x99B CALLDATASIZE PUSH1 0x4 PUSH2 0x50F8 JUMP JUMPDEST PUSH1 0x21 PUSH1 0x20 MSTORE PUSH1 0x0 SWAP1 DUP2 MSTORE PUSH1 0x40 SWAP1 KECCAK256 SLOAD PUSH1 0xFF AND DUP2 JUMP JUMPDEST CALLVALUE DUP1 ISZERO PUSH2 0x9BC JUMPI PUSH1 0x0 DUP1 REVERT JUMPDEST POP PUSH2 0x453 PUSH1 0x1B SLOAD DUP2 JUMP JUMPDEST CALLVALUE DUP1 ISZERO PUSH2 0x9D2 JUMPI PUSH1 0x0 DUP1 REVERT JUMPDEST POP PUSH2 0x496 PUSH2 0x9E1 CALLDATASIZE PUSH1 0x4 PUSH2 0x503D JUMP JUMPDEST PUSH2 0x2C3B JUMP JUMPDEST CALLVALUE DUP1 ISZERO PUSH2 0x9F2 JUMPI PUSH1 0x0 DUP1 REVERT JUMPDEST POP PUSH1 0x1D SLOAD PUSH2 0x5C4 SWAP1 PUSH1 0x1 PUSH1 0x1 PUSH1 0xA0 SHL SUB AND DUP2 JUMP JUMPDEST CALLVALUE DUP1 ISZERO PUSH2 0xA12 JUMPI PUSH1 0x0 DUP1 REVERT JUMPDEST POP PUSH2 0x496 PUSH2 0xA21 CALLDATASIZE PUSH1 0x4 PUSH2 0x503D JUMP JUMPDEST PUSH2 0x2E40 JUMP JUMPDEST CALLVALUE DUP1 ISZERO PUSH2 0xA32 JUMPI PUSH1 0x0 DUP1 REVERT JUMPDEST POP PUSH2 0x453 PUSH2 0xA41 CALLDATASIZE PUSH1 0x4 PUSH2 0x513A JUMP JUMPDEST PUSH1 0x1 PUSH1 0x1 PUSH1 0xA0 SHL SUB SWAP2 DUP3 AND PUSH1 0x0 SWAP1 DUP2 MSTORE PUSH1 0x4 PUSH1 0x20 SWAP1 DUP2 MSTORE PUSH1 0x40 DUP1 DUP4 KECCAK256 SWAP4 SWAP1 SWAP5 AND DUP3 MSTORE SWAP2 SWAP1 SWAP2 MSTORE KECCAK256 SLOAD SWAP1 JUMP JUMPDEST CALLVALUE DUP1 ISZERO PUSH2 0xA78 JUMPI PUSH1 0x0 DUP1 REVERT JUMPDEST POP PUSH1 0x16 SLOAD PUSH2 0x42F SWAP1 PUSH2 0x100 SWAP1 DIV PUSH2 0xFFFF AND DUP2 JUMP JUMPDEST CALLVALUE DUP1 ISZERO PUSH2 0xA98 JUMPI PUSH1 0x0 DUP1 REVERT JUMPDEST POP PUSH2 0x496 PUSH2 0xAA7 CALLDATASIZE PUSH1 0x4 PUSH2 0x50BF JUMP JUMPDEST PUSH2 0x3045 JUMP JUMPDEST CALLVALUE DUP1 ISZERO PUSH2 0xAB8 JUMPI PUSH1 0x0 DUP1 REVERT JUMPDEST POP PUSH2 0x496 PUSH2 0x3121 JUMP JUMPDEST CALLVALUE DUP1 ISZERO PUSH2 0xACD JUMPI PUSH1 0x0 DUP1 REVERT JUMPDEST POP PUSH1 0x16 SLOAD PUSH2 0x42F SWAP1 PUSH1 0x1 PUSH1 0x98 SHL SWAP1 DIV PUSH2 0xFFFF AND DUP2 JUMP JUMPDEST CALLVALUE DUP1 ISZERO PUSH2 0xAEF JUMPI PUSH1 0x0 DUP1 REVERT JUMPDEST POP PUSH2 0x3FD PUSH2 0xAFE CALLDATASIZE PUSH1 0x4 PUSH2 0x50F8 JUMP JUMPDEST PUSH1 0x20 DUP1 MSTORE PUSH1 0x0 SWAP1 DUP2 MSTORE PUSH1 0x40 SWAP1 KECCAK256 SLOAD PUSH1 0xFF AND DUP2 JUMP JUMPDEST CALLVALUE DUP1 ISZERO PUSH2 0xB1E JUMPI PUSH1 0x0 DUP1 REVERT JUMPDEST POP PUSH1 0x16 SLOAD PUSH2 0x42F SWAP1 PUSH1 0x1 PUSH1 0x38 SHL SWAP1 DIV PUSH2 0xFFFF AND DUP2 JUMP JUMPDEST CALLVALUE DUP1 ISZERO PUSH2 0xB40 JUMPI PUSH1 0x0 DUP1 REVERT JUMPDEST POP PUSH2 0x496 PUSH2 0xB4F CALLDATASIZE PUSH1 0x4 PUSH2 0x50F8 JUMP JUMPDEST PUSH2 0x31E5 JUMP JUMPDEST CALLVALUE DUP1 ISZERO PUSH2 0xB60 JUMPI PUSH1 0x0 DUP1 REVERT JUMPDEST POP PUSH1 0x1C SLOAD PUSH2 0x5C4 SWAP1 PUSH1 0x1 PUSH1 0x1 PUSH1 0xA0 SHL SUB AND DUP2 JUMP JUMPDEST CALLVALUE DUP1 ISZERO PUSH2 0xB80 JUMPI PUSH1 0x0 DUP1 REVERT JUMPDEST POP PUSH1 0x16 SLOAD PUSH2 0x42F SWAP1 PUSH1 0x1 PUSH1 0x28 SHL SWAP1 DIV PUSH2 0xFFFF AND DUP2 JUMP JUMPDEST CALLVALUE DUP1 ISZERO PUSH2 0xBA2 JUMPI PUSH1 0x0 DUP1 REVERT JUMPDEST POP PUSH2 0x453 PUSH1 0x1A SLOAD DUP2 JUMP JUMPDEST CALLVALUE DUP1 ISZERO PUSH2 0xBB8 JUMPI PUSH1 0x0 DUP1 REVERT JUMPDEST POP PUSH2 0x453 PUSH1 0x19 SLOAD DUP2 JUMP JUMPDEST PUSH1 0x60 PUSH1 0xA DUP1 SLOAD PUSH2 0xBD1 SWAP1 PUSH2 0x5168 JUMP JUMPDEST DUP1 PUSH1 0x1F ADD PUSH1 0x20 DUP1 SWAP2 DIV MUL PUSH1 0x20 ADD PUSH1 0x40 MLOAD SWAP1 DUP2 ADD PUSH1 0x40 MSTORE DUP1 SWAP3 SWAP2 SWAP1 DUP2 DUP2 MSTORE PUSH1 0x20 ADD DUP3 DUP1 SLOAD PUSH2 0xBFD SWAP1 PUSH2 0x5168 JUMP JUMPDEST DUP1 ISZERO PUSH2 0xC4A JUMPI DUP1 PUSH1 0x1F LT PUSH2 0xC1F JUMPI PUSH2 0x100 DUP1 DUP4 SLOAD DIV MUL DUP4 MSTORE SWAP2 PUSH1 0x20 ADD SWAP2 PUSH2 0xC4A JUMP JUMPDEST DUP3 ADD SWAP2 SWAP1 PUSH1 0x0 MSTORE PUSH1 0x20 PUSH1 0x0 KECCAK256 SWAP1 JUMPDEST DUP2 SLOAD DUP2 MSTORE SWAP1 PUSH1 0x1 ADD SWAP1 PUSH1 0x20 ADD DUP1 DUP4 GT PUSH2 0xC2D JUMPI DUP3 SWAP1 SUB PUSH1 0x1F AND DUP3 ADD SWAP2 JUMPDEST POP POP POP POP POP SWAP1 POP SWAP1 JUMP JUMPDEST PUSH1 0x0 PUSH2 0xC61 CALLER DUP5 DUP5 PUSH2 0x327D JUMP JUMPDEST POP PUSH1 0x1 JUMPDEST SWAP3 SWAP2 POP POP JUMP JUMPDEST PUSH1 0x0 SLOAD PUSH1 0x1 PUSH1 0x1 PUSH1 0xA0 SHL SUB AND CALLER EQ PUSH2 0xC9E JUMPI PUSH1 0x40 MLOAD PUSH3 0x461BCD PUSH1 0xE5 SHL DUP2 MSTORE PUSH1 0x4 ADD PUSH2 0xC95 SWAP1 PUSH2 0x51A2 JUMP JUMPDEST PUSH1 0x40 MLOAD DUP1 SWAP2 SUB SWAP1 REVERT JUMPDEST PUSH2 0x2710 PUSH1 0x7 SLOAD PUSH2 0xCAE SWAP2 SWAP1 PUSH2 0x51ED JUMP JUMPDEST DUP2 LT ISZERO PUSH2 0xD07 JUMPI PUSH1 0x40 MLOAD PUSH3 0x461BCD PUSH1 0xE5 SHL DUP2 MSTORE PUSH1 0x20 PUSH1 0x4 DUP3 ADD MSTORE PUSH1 0x21 PUSH1 0x24 DUP3 ADD MSTORE PUSH32 0x6D617857616C6C6574203E3D20746F74616C20737570706C79202F2031303030 PUSH1 0x44 DUP3 ADD MSTORE PUSH1 0x3 PUSH1 0xFC SHL PUSH1 0x64 DUP3 ADD MSTORE PUSH1 0x84 ADD PUSH2 0xC95 JUMP JUMPDEST PUSH1 0x1A SLOAD PUSH1 0x40 DUP1 MLOAD DUP4 DUP2 MSTORE PUSH1 0x20 DUP2 ADD SWAP3 SWAP1 SWAP3 MSTORE PUSH32 0xFF64D41F60FEB77D52F64AE64A9FC3929D57A89D0CC55728762468BAE5E0FE52 SWAP2 ADD PUSH1 0x40 MLOAD DUP1 SWAP2 SUB SWAP1 LOG1 PUSH1 0x1A SSTORE JUMP JUMPDEST PUSH1 0x0 SLOAD PUSH1 0x1 PUSH1 0x1 PUSH1 0xA0 SHL SUB AND CALLER EQ PUSH2 0xD73 JUMPI PUSH1 0x40 MLOAD PUSH3 0x461BCD PUSH1 0xE5 SHL DUP2 MSTORE PUSH1 0x4 ADD PUSH2 0xC95 SWAP1 PUSH2 0x51A2 JUMP JUMPDEST PUSH1 0x16 SLOAD PUSH2 0x12C SWAP1 PUSH2 0xFFFF PUSH2 0x100 DUP3 DIV DUP2 AND SWAP2 PUSH1 0x1 PUSH1 0x68 SHL DUP2 DIV DUP3 AND SWAP2 PUSH1 0x1 PUSH1 0x48 SHL DUP3 DIV DUP2 AND SWAP2 PUSH2 0xDAC SWAP2 PUSH1 0x1 PUSH1 0x28 SHL SWAP1 SWAP2 DIV AND DUP8 PUSH2 0x520F JUMP JUMPDEST PUSH2 0xDB6 SWAP2 SWAP1 PUSH2 0x520F JUMP JUMPDEST PUSH2 0xDC0 SWAP2 SWAP1 PUSH2 0x520F JUMP JUMPDEST PUSH2 0xDCA SWAP2 SWAP1 PUSH2 0x520F JUMP JUMPDEST PUSH2 0xFFFF AND GT ISZERO PUSH2 0xDEC JUMPI PUSH1 0x40 MLOAD PUSH3 0x461BCD PUSH1 0xE5 SHL DUP2 MSTORE PUSH1 0x4 ADD PUSH2 0xC95 SWAP1 PUSH2 0x522A JUMP JUMPDEST PUSH1 0x16 SLOAD PUSH2 0x12C SWAP1 PUSH2 0xFFFF PUSH4 0x1000000 DUP3 DIV DUP2 AND SWAP2 PUSH1 0x1 PUSH1 0x78 SHL DUP2 DIV DUP3 AND SWAP2 PUSH1 0x1 PUSH1 0x58 SHL DUP3 DIV DUP2 AND SWAP2 PUSH2 0xE27 SWAP2 PUSH1 0x1 PUSH1 0x38 SHL SWAP1 SWAP2 DIV AND DUP7 PUSH2 0x520F JUMP JUMPDEST PUSH2 0xE31 SWAP2 SWAP1 PUSH2 0x520F JUMP JUMPDEST PUSH2 0xE3B SWAP2 SWAP1 PUSH2 0x520F JUMP JUMPDEST PUSH2 0xE45 SWAP2 SWAP1 PUSH2 0x520F JUMP JUMPDEST PUSH2 0xFFFF AND GT ISZERO PUSH2 0xE67 JUMPI PUSH1 0x40 MLOAD PUSH3 0x461BCD PUSH1 0xE5 SHL DUP2 MSTORE PUSH1 0x4 ADD PUSH2 0xC95 SWAP1 PUSH2 0x5259 JUMP JUMPDEST PUSH1 0x96 DUP3 PUSH2 0xFFFF AND GT ISZERO PUSH2 0xE8C JUMPI PUSH1 0x40 MLOAD PUSH3 0x461BCD PUSH1 0xE5 SHL DUP2 MSTORE PUSH1 0x4 ADD PUSH2 0xC95 SWAP1 PUSH2 0x5287 JUMP JUMPDEST PUSH1 0x96 DUP2 PUSH2 0xFFFF AND GT ISZERO PUSH2 0xEB1 JUMPI PUSH1 0x40 MLOAD PUSH3 0x461BCD PUSH1 0xE5 SHL DUP2 MSTORE PUSH1 0x4 ADD PUSH2 0xC95 SWAP1 PUSH2 0x52B0 JUMP JUMPDEST PUSH1 0x16 SLOAD PUSH1 0x40 DUP1 MLOAD PUSH2 0xFFFF DUP6 DUP2 AND DUP3 MSTORE DUP5 DUP2 AND PUSH1 0x20 DUP4 ADD MSTORE PUSH1 0x1 PUSH1 0x88 SHL DUP5 DIV DUP2 AND DUP3 DUP5 ADD MSTORE PUSH1 0x1 PUSH1 0x98 SHL SWAP1 SWAP4 DIV SWAP1 SWAP3 AND PUSH1 0x60 DUP4 ADD MSTORE MLOAD PUSH32 0x1F5C7A45D273917DFC98816F1DD17A88893A7338E7BEAA4D305FC8C84F8FE25 SWAP2 DUP2 SWAP1 SUB PUSH1 0x80 ADD SWAP1 LOG1 PUSH1 0x16 DUP1 SLOAD PUSH4 0xFFFFFFFF PUSH1 0x88 SHL NOT AND PUSH1 0x1 PUSH1 0x88 SHL PUSH2 0xFFFF SWAP5 DUP6 AND MUL PUSH2 0xFFFF PUSH1 0x98 SHL NOT AND OR PUSH1 0x1 PUSH1 0x98 SHL SWAP3 SWAP1 SWAP4 AND SWAP2 SWAP1 SWAP2 MUL SWAP2 SWAP1 SWAP2 OR SWAP1 SSTORE JUMP JUMPDEST PUSH1 0x0 PUSH2 0xF55 DUP5 DUP5 DUP5 PUSH2 0x33A1 JUMP JUMPDEST PUSH1 0x1 PUSH1 0x1 PUSH1 0xA0 SHL SUB DUP5 AND PUSH1 0x0 SWAP1 DUP2 MSTORE PUSH1 0x4 PUSH1 0x20 SWAP1 DUP2 MSTORE PUSH1 0x40 DUP1 DUP4 KECCAK256 CALLER DUP1 DUP6 MSTORE SWAP3 MSTORE SWAP1 SWAP2 KECCAK256 SLOAD PUSH2 0xF90 SWAP2 DUP7 SWAP2 PUSH2 0xF8B SWAP1 DUP7 SWAP1 PUSH2 0x52D8 JUMP JUMPDEST PUSH2 0x327D JUMP JUMPDEST POP PUSH1 0x1 JUMPDEST SWAP4 SWAP3 POP POP POP JUMP JUMPDEST PUSH1 0x0 SLOAD PUSH1 0x1 PUSH1 0x1 PUSH1 0xA0 SHL SUB AND CALLER EQ PUSH2 0xFC5 JUMPI PUSH1 0x40 MLOAD PUSH3 0x461BCD PUSH1 0xE5 SHL DUP2 MSTORE PUSH1 0x4 ADD PUSH2 0xC95 SWAP1 PUSH2 0x51A2 JUMP JUMPDEST PUSH1 0x1 PUSH1 0x1 PUSH1 0xA0 SHL SUB DUP3 AND PUSH1 0x0 SWAP1 DUP2 MSTORE PUSH1 0x20 DUP1 MSTORE PUSH1 0x40 SWAP1 KECCAK256 SLOAD DUP2 ISZERO ISZERO PUSH1 0xFF SWAP1 SWAP2 AND ISZERO ISZERO SUB PUSH2 0x101E JUMPI PUSH1 0x40 MLOAD PUSH3 0x461BCD PUSH1 0xE5 SHL DUP2 MSTORE PUSH1 0x20 PUSH1 0x4 DUP3 ADD MSTORE PUSH1 0x7 PUSH1 0x24 DUP3 ADD MSTORE PUSH7 0x616C7265616479 PUSH1 0xC8 SHL PUSH1 0x44 DUP3 ADD MSTORE PUSH1 0x64 ADD PUSH2 0xC95 JUMP JUMPDEST PUSH1 0x1 PUSH1 0x1 PUSH1 0xA0 SHL SUB DUP3 AND PUSH1 0x0 DUP2 DUP2 MSTORE PUSH1 0x20 DUP1 DUP1 MSTORE PUSH1 0x40 SWAP2 DUP3 SWAP1 KECCAK256 DUP1 SLOAD PUSH1 0xFF NOT AND DUP6 ISZERO ISZERO SWAP1 DUP2 OR SWAP1 SWAP2 SSTORE SWAP2 MLOAD SWAP2 DUP3 MSTORE PUSH32 0x82170BBD72C16B30C410014B7382121A699ED119A182E48A0B6CADCC89104AC9 SWAP2 ADD JUMPDEST PUSH1 0x40 MLOAD DUP1 SWAP2 SUB SWAP1 LOG2 POP POP JUMP JUMPDEST PUSH1 0x0 PUSH1 0x8 SLOAD DUP3 GT ISZERO PUSH2 0x10E3 JUMPI PUSH1 0x40 MLOAD PUSH3 0x461BCD PUSH1 0xE5 SHL DUP2 MSTORE PUSH1 0x20 PUSH1 0x4 DUP3 ADD MSTORE PUSH1 0x2A PUSH1 0x24 DUP3 ADD MSTORE PUSH32 0x416D6F756E74206D757374206265206C657373207468616E20746F74616C2072 PUSH1 0x44 DUP3 ADD MSTORE PUSH10 0x65666C656374696F6E73 PUSH1 0xB0 SHL PUSH1 0x64 DUP3 ADD MSTORE PUSH1 0x84 ADD PUSH2 0xC95 JUMP JUMPDEST PUSH1 0x0 PUSH2 0x10ED PUSH2 0x3760 JUMP JUMPDEST SWAP1 POP PUSH2 0xF94 DUP2 DUP5 PUSH2 0x51ED JUMP JUMPDEST PUSH1 0x0 SLOAD PUSH1 0x1 PUSH1 0x1 PUSH1 0xA0 SHL SUB AND CALLER EQ PUSH2 0x1123 JUMPI PUSH1 0x40 MLOAD PUSH3 0x461BCD PUSH1 0xE5 SHL DUP2 MSTORE PUSH1 0x4 ADD PUSH2 0xC95 SWAP1 PUSH2 0x51A2 JUMP JUMPDEST PUSH1 0x1 PUSH1 0x1 PUSH1 0xA0 SHL SUB DUP2 AND PUSH1 0x0 SWAP1 DUP2 MSTORE PUSH1 0x5 PUSH1 0x20 MSTORE PUSH1 0x40 SWAP1 KECCAK256 SLOAD PUSH1 0xFF AND PUSH2 0x118B JUMPI PUSH1 0x40 MLOAD PUSH3 0x461BCD PUSH1 0xE5 SHL DUP2 MSTORE PUSH1 0x20 PUSH1 0x4 DUP3 ADD MSTORE PUSH1 0x17 PUSH1 0x24 DUP3 ADD MSTORE PUSH32 0x4163636F756E74206973206E6F74206578636C75646564000000000000000000 PUSH1 0x44 DUP3 ADD MSTORE PUSH1 0x64 ADD PUSH2 0xC95 JUMP JUMPDEST PUSH1 0x0 JUMPDEST PUSH1 0x6 SLOAD DUP2 LT ISZERO PUSH2 0x132D JUMPI DUP2 PUSH1 0x1 PUSH1 0x1 PUSH1 0xA0 SHL SUB AND PUSH1 0x6 DUP3 DUP2 SLOAD DUP2 LT PUSH2 0x11B5 JUMPI PUSH2 0x11B5 PUSH2 0x52EB JUMP JUMPDEST PUSH1 0x0 SWAP2 DUP3 MSTORE PUSH1 0x20 SWAP1 SWAP2 KECCAK256 ADD SLOAD PUSH1 0x1 PUSH1 0x1 PUSH1 0xA0 SHL SUB AND SUB PUSH2 0x131B JUMPI PUSH1 0x1 PUSH1 0x1 PUSH1 0xA0 SHL SUB DUP3 AND PUSH1 0x0 SWAP1 DUP2 MSTORE PUSH1 0x2 PUSH1 0x20 MSTORE PUSH1 0x40 SWAP1 KECCAK256 SLOAD PUSH2 0x11F0 PUSH2 0x3760 JUMP JUMPDEST PUSH1 0x1 PUSH1 0x1 PUSH1 0xA0 SHL SUB DUP5 AND PUSH1 0x0 SWAP1 DUP2 MSTORE PUSH1 0x3 PUSH1 0x20 MSTORE PUSH1 0x40 SWAP1 KECCAK256 SLOAD PUSH2 0x1213 SWAP2 SWAP1 PUSH2 0x5301 JUMP JUMPDEST PUSH1 0x1 PUSH1 0x1 PUSH1 0xA0 SHL SUB DUP5 AND PUSH1 0x0 SWAP1 DUP2 MSTORE PUSH1 0x2 PUSH1 0x20 MSTORE PUSH1 0x40 SWAP1 KECCAK256 DUP2 SWAP1 SSTORE PUSH1 0x8 SLOAD PUSH2 0x123C SWAP1 DUP4 SWAP1 PUSH2 0x52D8 JUMP JUMPDEST PUSH2 0x1246 SWAP2 SWAP1 PUSH2 0x5318 JUMP JUMPDEST PUSH1 0x8 SSTORE PUSH1 0x1 PUSH1 0x1 PUSH1 0xA0 SHL SUB DUP4 AND PUSH1 0x0 SWAP1 DUP2 MSTORE PUSH1 0x5 PUSH1 0x20 MSTORE PUSH1 0x40 SWAP1 KECCAK256 DUP1 SLOAD PUSH1 0xFF NOT AND SWAP1 SSTORE PUSH1 0x6 DUP1 SLOAD PUSH2 0x1279 SWAP1 PUSH1 0x1 SWAP1 PUSH2 0x52D8 JUMP JUMPDEST DUP2 SLOAD DUP2 LT PUSH2 0x1289 JUMPI PUSH2 0x1289 PUSH2 0x52EB JUMP JUMPDEST PUSH1 0x0 SWAP2 DUP3 MSTORE PUSH1 0x20 SWAP1 SWAP2 KECCAK256 ADD SLOAD PUSH1 0x6 DUP1 SLOAD PUSH1 0x1 PUSH1 0x1 PUSH1 0xA0 SHL SUB SWAP1 SWAP3 AND SWAP2 DUP5 SWAP1 DUP2 LT PUSH2 0x12B5 JUMPI PUSH2 0x12B5 PUSH2 0x52EB JUMP JUMPDEST SWAP1 PUSH1 0x0 MSTORE PUSH1 0x20 PUSH1 0x0 KECCAK256 ADD PUSH1 0x0 PUSH2 0x100 EXP DUP2 SLOAD DUP2 PUSH1 0x1 PUSH1 0x1 PUSH1 0xA0 SHL SUB MUL NOT AND SWAP1 DUP4 PUSH1 0x1 PUSH1 0x1 PUSH1 0xA0 SHL SUB AND MUL OR SWAP1 SSTORE POP PUSH1 0x6 DUP1 SLOAD DUP1 PUSH2 0x12F4 JUMPI PUSH2 0x12F4 PUSH2 0x532B JUMP JUMPDEST PUSH1 0x0 DUP3 DUP2 MSTORE PUSH1 0x20 SWAP1 KECCAK256 DUP2 ADD PUSH1 0x0 NOT SWAP1 DUP2 ADD DUP1 SLOAD PUSH1 0x1 PUSH1 0x1 PUSH1 0xA0 SHL SUB NOT AND SWAP1 SSTORE ADD SWAP1 SSTORE POP POP POP JUMP JUMPDEST DUP1 PUSH2 0x1325 DUP2 PUSH2 0x5341 JUMP JUMPDEST SWAP2 POP POP PUSH2 0x118E JUMP JUMPDEST POP POP JUMP JUMPDEST CALLER PUSH1 0x0 DUP2 DUP2 MSTORE PUSH1 0x4 PUSH1 0x20 SWAP1 DUP2 MSTORE PUSH1 0x40 DUP1 DUP4 KECCAK256 PUSH1 0x1 PUSH1 0x1 PUSH1 0xA0 SHL SUB DUP8 AND DUP5 MSTORE SWAP1 SWAP2 MSTORE DUP2 KECCAK256 SLOAD SWAP1 SWAP2 PUSH2 0xC61 SWAP2 DUP6 SWAP1 PUSH2 0xF8B SWAP1 DUP7 SWAP1 PUSH2 0x5318 JUMP JUMPDEST PUSH1 0x0 PUSH1 0x7 SLOAD DUP4 GT ISZERO PUSH2 0x13BC JUMPI PUSH1 0x40 MLOAD PUSH3 0x461BCD PUSH1 0xE5 SHL DUP2 MSTORE PUSH1 0x20 PUSH1 0x4 DUP3 ADD MSTORE PUSH1 0x1F PUSH1 0x24 DUP3 ADD MSTORE PUSH32 0x416D6F756E74206D757374206265206C657373207468616E20737570706C7900 PUSH1 0x44 DUP3 ADD MSTORE PUSH1 0x64 ADD PUSH2 0xC95 JUMP JUMPDEST PUSH1 0x0 PUSH2 0x13C6 PUSH2 0x3760 JUMP JUMPDEST SWAP1 POP DUP3 PUSH2 0x13E3 JUMPI PUSH1 0x0 PUSH2 0x13D9 DUP3 DUP7 PUSH2 0x5301 JUMP JUMPDEST SWAP3 POP PUSH2 0xC65 SWAP2 POP POP JUMP JUMPDEST PUSH1 0x0 PUSH2 0x13EE DUP6 PUSH2 0x3783 JUMP JUMPDEST POP POP POP POP POP SWAP1 POP PUSH1 0x0 DUP3 DUP3 PUSH2 0x1403 SWAP2 SWAP1 PUSH2 0x5301 JUMP JUMPDEST SWAP4 POP PUSH2 0xC65 SWAP3 POP POP POP JUMP JUMPDEST POP SWAP3 SWAP2 POP POP JUMP JUMPDEST PUSH1 0x0 SLOAD PUSH1 0x1 PUSH1 0x1 PUSH1 0xA0 SHL SUB AND CALLER EQ PUSH2 0x143F JUMPI PUSH1 0x40 MLOAD PUSH3 0x461BCD PUSH1 0xE5 SHL DUP2 MSTORE PUSH1 0x4 ADD PUSH2 0xC95 SWAP1 PUSH2 0x51A2 JUMP JUMPDEST PUSH1 0x1 PUSH1 0x1 PUSH1 0xA0 SHL SUB DUP3 AND PUSH2 0x1495 JUMPI PUSH1 0x40 MLOAD PUSH3 0x461BCD PUSH1 0xE5 SHL DUP2 MSTORE PUSH1 0x20 PUSH1 0x4 DUP3 ADD MSTORE PUSH1 0x1B PUSH1 0x24 DUP3 ADD MSTORE PUSH32 0x6D61726B6574696E672077616C6C65742063616E277420626520300000000000 PUSH1 0x44 DUP3 ADD MSTORE PUSH1 0x64 ADD PUSH2 0xC95 JUMP JUMPDEST PUSH1 0x18 SLOAD PUSH1 0x1 PUSH1 0x1 PUSH1 0xA0 SHL SUB SWAP1 DUP2 AND SWAP1 DUP4 AND SUB PUSH2 0x14C3 JUMPI PUSH1 0x40 MLOAD PUSH3 0x461BCD PUSH1 0xE5 SHL DUP2 MSTORE PUSH1 0x4 ADD PUSH2 0xC95 SWAP1 PUSH2 0x535A JUMP JUMPDEST PUSH1 0x17 SLOAD PUSH1 0x40 DUP1 MLOAD DUP4 ISZERO ISZERO DUP2 MSTORE PUSH1 0x1 PUSH1 0xA0 SHL DUP4 DIV PUSH1 0xFF AND ISZERO ISZERO PUSH1 0x20 DUP3 ADD MSTORE PUSH1 0x1 PUSH1 0x1 PUSH1 0xA0 SHL SUB SWAP3 DUP4 AND SWAP3 DUP6 AND SWAP2 PUSH32 0xC8DFDD9B91AC62EE1BD8BE3541EA02D8E584461C794C6E49E94CCF21C71EBCCA SWAP2 ADD PUSH1 0x40 MLOAD DUP1 SWAP2 SUB SWAP1 LOG3 PUSH1 0x17 DUP1 SLOAD SWAP2 ISZERO ISZERO PUSH1 0x1 PUSH1 0xA0 SHL MUL PUSH1 0x1 PUSH1 0x1 PUSH1 0xA8 SHL SUB NOT SWAP1 SWAP3 AND PUSH1 0x1 PUSH1 0x1 PUSH1 0xA0 SHL SUB SWAP1 SWAP4 AND SWAP3 DUP4 OR SWAP2 SWAP1 SWAP2 OR SWAP1 SSTORE PUSH1 0x0 SWAP1 DUP2 MSTORE PUSH1 0x1F PUSH1 0x20 SWAP1 DUP2 MSTORE PUSH1 0x40 DUP1 DUP4 KECCAK256 DUP1 SLOAD PUSH1 0xFF NOT SWAP1 DUP2 AND PUSH1 0x1 SWAP1 DUP2 OR SWAP1 SWAP3 SSTORE SWAP3 DUP1 MSTORE SWAP3 KECCAK256 DUP1 SLOAD SWAP1 SWAP2 AND SWAP1 SWAP2 OR SWAP1 SSTORE JUMP JUMPDEST PUSH1 0x0 SLOAD PUSH1 0x1 PUSH1 0x1 PUSH1 0xA0 SHL SUB AND CALLER EQ PUSH2 0x15A3 JUMPI PUSH1 0x40 MLOAD PUSH3 0x461BCD PUSH1 0xE5 SHL DUP2 MSTORE PUSH1 0x4 ADD PUSH2 0xC95 SWAP1 PUSH2 0x51A2 JUMP JUMPDEST PUSH1 0x1 PUSH1 0x1 PUSH1 0xA0 SHL SUB DUP2 AND PUSH1 0x0 SWAP1 DUP2 MSTORE PUSH1 0x5 PUSH1 0x20 MSTORE PUSH1 0x40 SWAP1 KECCAK256 SLOAD PUSH1 0xFF AND ISZERO PUSH2 0x160C JUMPI PUSH1 0x40 MLOAD PUSH3 0x461BCD PUSH1 0xE5 SHL DUP2 MSTORE PUSH1 0x20 PUSH1 0x4 DUP3 ADD MSTORE PUSH1 0x1B PUSH1 0x24 DUP3 ADD MSTORE PUSH32 0x4163636F756E7420697320616C7265616479206578636C756465640000000000 PUSH1 0x44 DUP3 ADD MSTORE PUSH1 0x64 ADD PUSH2 0xC95 JUMP JUMPDEST PUSH1 0x6 SLOAD PUSH1 0x32 SWAP1 PUSH2 0x161D SWAP1 PUSH1 0x1 PUSH2 0x5318 JUMP JUMPDEST GT ISZERO PUSH2 0x16A7 JUMPI PUSH1 0x40 MLOAD PUSH3 0x461BCD PUSH1 0xE5 SHL DUP2 MSTORE PUSH1 0x20 PUSH1 0x4 DUP3 ADD MSTORE PUSH1 0x4D PUSH1 0x24 DUP3 ADD MSTORE PUSH32 0x43616E6E6F74206578636C756465206D6F7265207468616E203530206163636F PUSH1 0x44 DUP3 ADD MSTORE PUSH32 0x756E74732E2020496E636C75646520612070726576696F75736C79206578636C PUSH1 0x64 DUP3 ADD MSTORE PUSH13 0x3AB232B21030B2323932B9B997 PUSH1 0x99 SHL PUSH1 0x84 DUP3 ADD MSTORE PUSH1 0xA4 ADD PUSH2 0xC95 JUMP JUMPDEST PUSH1 0x1 PUSH1 0x1 PUSH1 0xA0 SHL SUB DUP2 AND PUSH1 0x0 SWAP1 DUP2 MSTORE PUSH1 0x2 PUSH1 0x20 MSTORE PUSH1 0x40 SWAP1 KECCAK256 SLOAD ISZERO PUSH2 0x1701 JUMPI PUSH1 0x1 PUSH1 0x1 PUSH1 0xA0 SHL SUB DUP2 AND PUSH1 0x0 SWAP1 DUP2 MSTORE PUSH1 0x2 PUSH1 0x20 MSTORE PUSH1 0x40 SWAP1 KECCAK256 SLOAD PUSH2 0x16E7 SWAP1 PUSH2 0x107C JUMP JUMPDEST PUSH1 0x1 PUSH1 0x1 PUSH1 0xA0 SHL SUB DUP3 AND PUSH1 0x0 SWAP1 DUP2 MSTORE PUSH1 0x3 PUSH1 0x20 MSTORE PUSH1 0x40 SWAP1 KECCAK256 SSTORE JUMPDEST PUSH1 0x1 PUSH1 0x1 PUSH1 0xA0 SHL SUB AND PUSH1 0x0 DUP2 DUP2 MSTORE PUSH1 0x5 PUSH1 0x20 MSTORE PUSH1 0x40 DUP2 KECCAK256 DUP1 SLOAD PUSH1 0xFF NOT AND PUSH1 0x1 SWAP1 DUP2 OR SWAP1 SWAP2 SSTORE PUSH1 0x6 DUP1 SLOAD SWAP2 DUP3 ADD DUP2 SSTORE SWAP1 SWAP2 MSTORE PUSH32 0xF652222313E28459528D920B65115C16C04F3EFC82AAEDC97BE59F3F377C0D3F ADD DUP1 SLOAD PUSH1 0x1 PUSH1 0x1 PUSH1 0xA0 SHL SUB NOT AND SWAP1 SWAP2 OR SWAP1 SSTORE JUMP JUMPDEST PUSH1 0x0 SLOAD PUSH1 0x1 PUSH1 0x1 PUSH1 0xA0 SHL SUB AND CALLER EQ PUSH2 0x1791 JUMPI PUSH1 0x40 MLOAD PUSH3 0x461BCD PUSH1 0xE5 SHL DUP2 MSTORE PUSH1 0x4 ADD PUSH2 0xC95 SWAP1 PUSH2 0x51A2 JUMP JUMPDEST PUSH1 0x1D SLOAD PUSH1 0x1 PUSH1 0x1 PUSH1 0xA0 SHL SUB SWAP1 DUP2 AND SWAP1 DUP3 AND SUB PUSH2 0x17FB JUMPI PUSH1 0x40 MLOAD PUSH3 0x461BCD PUSH1 0xE5 SHL DUP2 MSTORE PUSH1 0x20 PUSH1 0x4 DUP3 ADD MSTORE PUSH1 0x23 PUSH1 0x24 DUP3 ADD MSTORE PUSH32 0x54686520726F7574657220616C72656164792068617320746861742061646472 PUSH1 0x44 DUP3 ADD MSTORE PUSH3 0x657373 PUSH1 0xE8 SHL PUSH1 0x64 DUP3 ADD MSTORE PUSH1 0x84 ADD PUSH2 0xC95 JUMP JUMPDEST PUSH1 0x1D SLOAD PUSH1 0x40 MLOAD PUSH1 0x1 PUSH1 0x1 PUSH1 0xA0 SHL SUB SWAP2 DUP3 AND SWAP2 DUP4 AND SWAP1 PUSH32 0x8FC842BBD331DFA973645F4ED48B11683D501EBF1352708D77A5DA2AB49A576E SWAP1 PUSH1 0x0 SWAP1 LOG3 PUSH1 0x1D DUP1 SLOAD PUSH1 0x1 PUSH1 0x1 PUSH1 0xA0 SHL SUB NOT AND PUSH1 0x1 PUSH1 0x1 PUSH1 0xA0 SHL SUB DUP4 AND SWAP1 DUP2 OR SWAP1 SWAP2 SSTORE PUSH1 0x40 DUP1 MLOAD PUSH4 0xC45A0155 PUSH1 0xE0 SHL DUP2 MSTORE SWAP1 MLOAD PUSH4 0xC45A0155 SWAP2 PUSH1 0x4 DUP1 DUP3 ADD SWAP3 PUSH1 0x20 SWAP3 SWAP1 SWAP2 SWAP1 DUP3 SWAP1 SUB ADD DUP2 DUP7 GAS STATICCALL ISZERO DUP1 ISZERO PUSH2 0x188F JUMPI RETURNDATASIZE PUSH1 0x0 DUP1 RETURNDATACOPY RETURNDATASIZE PUSH1 0x0 REVERT JUMPDEST POP POP POP POP PUSH1 0x40 MLOAD RETURNDATASIZE PUSH1 0x1F NOT PUSH1 0x1F DUP3 ADD AND DUP3 ADD DUP1 PUSH1 0x40 MSTORE POP DUP2 ADD SWAP1 PUSH2 0x18B3 SWAP2 SWAP1 PUSH2 0x53AD JUMP JUMPDEST PUSH1 0x1 SLOAD PUSH1 0x40 MLOAD PUSH4 0xE6A43905 PUSH1 0xE0 SHL DUP2 MSTORE ADDRESS PUSH1 0x4 DUP3 ADD MSTORE PUSH1 0x1 PUSH1 0x1 PUSH1 0xA0 SHL SUB SWAP2 DUP3 AND PUSH1 0x24 DUP3 ADD MSTORE SWAP2 AND SWAP1 PUSH4 0xE6A43905 SWAP1 PUSH1 0x44 ADD PUSH1 0x20 PUSH1 0x40 MLOAD DUP1 DUP4 SUB DUP2 DUP7 GAS STATICCALL ISZERO DUP1 ISZERO PUSH2 0x1902 JUMPI RETURNDATASIZE PUSH1 0x0 DUP1 RETURNDATACOPY RETURNDATASIZE PUSH1 0x0 REVERT JUMPDEST POP POP POP POP PUSH1 0x40 MLOAD RETURNDATASIZE PUSH1 0x1F NOT PUSH1 0x1F DUP3 ADD AND DUP3 ADD DUP1 PUSH1 0x40 MSTORE POP DUP2 ADD SWAP1 PUSH2 0x1926 SWAP2 SWAP1 PUSH2 0x53AD JUMP JUMPDEST PUSH1 0x1E DUP1 SLOAD PUSH1 0x1 PUSH1 0x1 PUSH1 0xA0 SHL SUB NOT AND PUSH1 0x1 PUSH1 0x1 PUSH1 0xA0 SHL SUB SWAP3 SWAP1 SWAP3 AND SWAP2 DUP3 OR SWAP1 SSTORE PUSH2 0x1A56 JUMPI PUSH1 0x1D PUSH1 0x0 SWAP1 SLOAD SWAP1 PUSH2 0x100 EXP SWAP1 DIV PUSH1 0x1 PUSH1 0x1 PUSH1 0xA0 SHL SUB AND PUSH1 0x1 PUSH1 0x1 PUSH1 0xA0 SHL SUB AND PUSH4 0xC45A0155 PUSH1 0x40 MLOAD DUP2 PUSH4 0xFFFFFFFF AND PUSH1 0xE0 SHL DUP2 MSTORE PUSH1 0x4 ADD PUSH1 0x20 PUSH1 0x40 MLOAD DUP1 DUP4 SUB DUP2 DUP7 GAS STATICCALL ISZERO DUP1 ISZERO PUSH2 0x199C JUMPI RETURNDATASIZE PUSH1 0x0 DUP1 RETURNDATACOPY RETURNDATASIZE PUSH1 0x0 REVERT JUMPDEST POP POP POP POP PUSH1 0x40 MLOAD RETURNDATASIZE PUSH1 0x1F NOT PUSH1 0x1F DUP3 ADD AND DUP3 ADD DUP1 PUSH1 0x40 MSTORE POP DUP2 ADD SWAP1 PUSH2 0x19C0 SWAP2 SWAP1 PUSH2 0x53AD JUMP JUMPDEST PUSH1 0x1 SLOAD PUSH1 0x40 MLOAD PUSH4 0x64E329CB PUSH1 0xE1 SHL DUP2 MSTORE ADDRESS PUSH1 0x4 DUP3 ADD MSTORE PUSH1 0x1 PUSH1 0x1 PUSH1 0xA0 SHL SUB SWAP2 DUP3 AND PUSH1 0x24 DUP3 ADD MSTORE SWAP2 AND SWAP1 PUSH4 0xC9C65396 SWAP1 PUSH1 0x44 ADD PUSH1 0x20 PUSH1 0x40 MLOAD DUP1 DUP4 SUB DUP2 PUSH1 0x0 DUP8 GAS CALL ISZERO DUP1 ISZERO PUSH2 0x1A11 JUMPI RETURNDATASIZE PUSH1 0x0 DUP1 RETURNDATACOPY RETURNDATASIZE PUSH1 0x0 REVERT JUMPDEST POP POP POP POP PUSH1 0x40 MLOAD RETURNDATASIZE PUSH1 0x1F NOT PUSH1 0x1F DUP3 ADD AND DUP3 ADD DUP1 PUSH1 0x40 MSTORE POP DUP2 ADD SWAP1 PUSH2 0x1A35 SWAP2 SWAP1 PUSH2 0x53AD JUMP JUMPDEST PUSH1 0x1E DUP1 SLOAD PUSH1 0x1 PUSH1 0x1 PUSH1 0xA0 SHL SUB NOT AND PUSH1 0x1 PUSH1 0x1 PUSH1 0xA0 SHL SUB SWAP3 SWAP1 SWAP3 AND SWAP2 SWAP1 SWAP2 OR SWAP1 SSTORE JUMPDEST PUSH1 0x1D SLOAD PUSH2 0x1A70 SWAP1 ADDRESS SWAP1 PUSH1 0x1 PUSH1 0x1 PUSH1 0xA0 SHL SUB AND PUSH1 0x0 NOT PUSH2 0x327D JUMP JUMPDEST PUSH1 0x1D PUSH1 0x0 SWAP1 SLOAD SWAP1 PUSH2 0x100 EXP SWAP1 DIV PUSH1 0x1 PUSH1 0x1 PUSH1 0xA0 SHL SUB AND PUSH1 0x1 PUSH1 0x1 PUSH1 0xA0 SHL SUB AND PUSH4 0xAD5C4648 PUSH1 0x40 MLOAD DUP2 PUSH4 0xFFFFFFFF AND PUSH1 0xE0 SHL DUP2 MSTORE PUSH1 0x4 ADD PUSH1 0x20 PUSH1 0x40 MLOAD DUP1 DUP4 SUB DUP2 DUP7 GAS STATICCALL ISZERO DUP1 ISZERO PUSH2 0x1AC3 JUMPI RETURNDATASIZE PUSH1 0x0 DUP1 RETURNDATACOPY RETURNDATASIZE PUSH1 0x0 REVERT JUMPDEST POP POP POP POP PUSH1 0x40 MLOAD RETURNDATASIZE PUSH1 0x1F NOT PUSH1 0x1F DUP3 ADD AND DUP3 ADD DUP1 PUSH1 0x40 MSTORE POP DUP2 ADD SWAP1 PUSH2 0x1AE7 SWAP2 SWAP1 PUSH2 0x53AD JUMP JUMPDEST PUSH1 0x1 SLOAD PUSH1 0x1 PUSH1 0x1 PUSH1 0xA0 SHL SUB SWAP1 DUP2 AND SWAP2 AND EQ PUSH2 0x1B78 JUMPI PUSH1 0x1 SLOAD PUSH1 0x1D SLOAD PUSH1 0x40 MLOAD PUSH4 0x95EA7B3 PUSH1 0xE0 SHL DUP2 MSTORE PUSH1 0x1 PUSH1 0x1 PUSH1 0xA0 SHL SUB SWAP2 DUP3 AND PUSH1 0x4 DUP3 ADD MSTORE PUSH1 0x0 NOT PUSH1 0x24 DUP3 ADD MSTORE SWAP2 AND SWAP1 PUSH4 0x95EA7B3 SWAP1 PUSH1 0x44 ADD PUSH1 0x20 PUSH1 0x40 MLOAD DUP1 DUP4 SUB DUP2 PUSH1 0x0 DUP8 GAS CALL ISZERO DUP1 ISZERO PUSH2 0x1B52 JUMPI RETURNDATASIZE PUSH1 0x0 DUP1 RETURNDATACOPY RETURNDATASIZE PUSH1 0x0 REVERT JUMPDEST POP POP POP POP PUSH1 0x40 MLOAD RETURNDATASIZE PUSH1 0x1F NOT PUSH1 0x1F DUP3 ADD AND DUP3 ADD DUP1 PUSH1 0x40 MSTORE POP DUP2 ADD SWAP1 PUSH2 0x1B76 SWAP2 SWAP1 PUSH2 0x53CA JUMP JUMPDEST POP JUMPDEST PUSH1 0x1E SLOAD PUSH2 0x1B8F SWAP1 PUSH1 0x1 PUSH1 0x1 PUSH1 0xA0 SHL SUB AND PUSH1 0x1 PUSH2 0x37ED JUMP JUMPDEST POP JUMP JUMPDEST PUSH1 0x1 PUSH1 0x1 PUSH1 0xA0 SHL SUB DUP2 AND PUSH1 0x0 SWAP1 DUP2 MSTORE PUSH1 0x5 PUSH1 0x20 MSTORE PUSH1 0x40 DUP2 KECCAK256 SLOAD PUSH1 0xFF AND ISZERO PUSH2 0x1BCF JUMPI POP PUSH1 0x1 PUSH1 0x1 PUSH1 0xA0 SHL SUB AND PUSH1 0x0 SWAP1 DUP2 MSTORE PUSH1 0x3 PUSH1 0x20 MSTORE PUSH1 0x40 SWAP1 KECCAK256 SLOAD SWAP1 JUMP JUMPDEST PUSH1 0x1 PUSH1 0x1 PUSH1 0xA0 SHL SUB DUP3 AND PUSH1 0x0 SWAP1 DUP2 MSTORE PUSH1 0x2 PUSH1 0x20 MSTORE PUSH1 0x40 SWAP1 KECCAK256 SLOAD PUSH2 0xC65 SWAP1 PUSH2 0x107C JUMP JUMPDEST PUSH1 0x0 SLOAD PUSH1 0x1 PUSH1 0x1 PUSH1 0xA0 SHL SUB AND CALLER EQ PUSH2 0x1C1B JUMPI PUSH1 0x40 MLOAD PUSH3 0x461BCD PUSH1 0xE5 SHL DUP2 MSTORE PUSH1 0x4 ADD PUSH2 0xC95 SWAP1 PUSH2 0x51A2 JUMP JUMPDEST PUSH2 0x1C25 PUSH1 0x0 PUSH2 0x391D JUMP JUMPDEST JUMP JUMPDEST PUSH1 0x0 SLOAD PUSH1 0x1 PUSH1 0x1 PUSH1 0xA0 SHL SUB AND CALLER EQ PUSH2 0x1C51 JUMPI PUSH1 0x40 MLOAD PUSH3 0x461BCD PUSH1 0xE5 SHL DUP2 MSTORE PUSH1 0x4 ADD PUSH2 0xC95 SWAP1 PUSH2 0x51A2 JUMP JUMPDEST PUSH1 0x0 DUP2 GT PUSH2 0x1C9A JUMPI PUSH1 0x40 MLOAD PUSH3 0x461BCD PUSH1 0xE5 SHL DUP2 MSTORE PUSH1 0x20 PUSH1 0x4 DUP3 ADD MSTORE PUSH1 0x16 PUSH1 0x24 DUP3 ADD MSTORE PUSH22 0x6D696E416D6F756E74546F54616B65466565203E203 PUSH1 0x54 SHL PUSH1 0x44 DUP3 ADD MSTORE PUSH1 0x64 ADD PUSH2 0xC95 JUMP JUMPDEST PUSH1 0x19 SLOAD PUSH1 0x40 DUP1 MLOAD DUP4 DUP2 MSTORE PUSH1 0x20 DUP2 ADD SWAP3 SWAP1 SWAP3 MSTORE PUSH32 0x772A06BC936EB749842080C472181E970CD4F23BD1AB7D0B84A80AEC26910434 SWAP2 ADD PUSH1 0x40 MLOAD DUP1 SWAP2 SUB SWAP1 LOG1 PUSH1 0x19 SSTORE JUMP JUMPDEST PUSH1 0x0 SLOAD PUSH1 0x1 PUSH1 0x1 PUSH1 0xA0 SHL SUB AND CALLER EQ PUSH2 0x1D06 JUMPI PUSH1 0x40 MLOAD PUSH3 0x461BCD PUSH1 0xE5 SHL DUP2 MSTORE PUSH1 0x4 ADD PUSH2 0xC95 SWAP1 PUSH2 0x51A2 JUMP JUMPDEST PUSH1 0x1 PUSH1 0x1 PUSH1 0xA0 SHL SUB DUP2 AND PUSH2 0x1D5C JUMPI PUSH1 0x40 MLOAD PUSH3 0x461BCD PUSH1 0xE5 SHL DUP2 MSTORE PUSH1 0x20 PUSH1 0x4 DUP3 ADD MSTORE PUSH1 0x1A PUSH1 0x24 DUP3 ADD MSTORE PUSH32 0x54726561737572792077616C6C65742063616E27742062652030000000000000 PUSH1 0x44 DUP3 ADD MSTORE PUSH1 0x64 ADD PUSH2 0xC95 JUMP JUMPDEST ADDRESS PUSH1 0x1 PUSH1 0x1 PUSH1 0xA0 SHL SUB DUP3 AND SUB PUSH2 0x1DC7 JUMPI PUSH1 0x40 MLOAD PUSH3 0x461BCD PUSH1 0xE5 SHL DUP2 MSTORE PUSH1 0x20 PUSH1 0x4 DUP3 ADD MSTORE PUSH1 0x2A PUSH1 0x24 DUP3 ADD MSTORE PUSH32 0x54726561737572792077616C6C65742063616E2774206265207468652073616D PUSH1 0x44 DUP3 ADD MSTORE PUSH10 0x329030B9903A37B5B2B7 PUSH1 0xB1 SHL PUSH1 0x64 DUP3 ADD MSTORE PUSH1 0x84 ADD PUSH2 0xC95 JUMP JUMPDEST PUSH1 0x17 SLOAD PUSH1 0x1 PUSH1 0x1 PUSH1 0xA0 SHL SUB DUP1 DUP4 AND SWAP2 AND SUB PUSH2 0x1DF4 JUMPI PUSH1 0x40 MLOAD PUSH3 0x461BCD PUSH1 0xE5 SHL DUP2 MSTORE PUSH1 0x4 ADD PUSH2 0xC95 SWAP1 PUSH2 0x535A JUMP JUMPDEST PUSH1 0x18 SLOAD PUSH1 0x40 MLOAD PUSH1 0x1 PUSH1 0x1 PUSH1 0xA0 SHL SUB SWAP2 DUP3 AND SWAP2 DUP4 AND SWAP1 PUSH32 0x79A52CBEC002EF70283103EB4140713100276944FCA2819713130141D04DF183 SWAP1 PUSH1 0x0 SWAP1 LOG3 PUSH1 0x18 DUP1 SLOAD PUSH1 0x1 PUSH1 0x1 PUSH1 0xA0 SHL SUB SWAP1 SWAP3 AND PUSH1 0x1 PUSH1 0x1 PUSH1 0xA0 SHL SUB NOT SWAP1 SWAP3 AND DUP3 OR SWAP1 SSTORE PUSH1 0x0 SWAP1 DUP2 MSTORE PUSH1 0x1F PUSH1 0x20 SWAP1 DUP2 MSTORE PUSH1 0x40 DUP1 DUP4 KECCAK256 DUP1 SLOAD PUSH1 0xFF NOT SWAP1 DUP2 AND PUSH1 0x1 SWAP1 DUP2 OR SWAP1 SWAP3 SSTORE SWAP3 DUP1 MSTORE SWAP3 KECCAK256 DUP1 SLOAD SWAP1 SWAP2 AND SWAP1 SWAP2 OR SWAP1 SSTORE JUMP JUMPDEST PUSH1 0x0 SLOAD PUSH1 0x1 PUSH1 0x1 PUSH1 0xA0 SHL SUB AND CALLER EQ PUSH2 0x1EAA JUMPI PUSH1 0x40 MLOAD PUSH3 0x461BCD PUSH1 0xE5 SHL DUP2 MSTORE PUSH1 0x4 ADD PUSH2 0xC95 SWAP1 PUSH2 0x51A2 JUMP JUMPDEST PUSH1 0x16 SLOAD PUSH2 0x12C SWAP1 PUSH2 0xFFFF PUSH1 0x1 PUSH1 0x88 SHL DUP3 DIV DUP2 AND SWAP2 PUSH2 0x100 DUP2 DIV DUP3 AND SWAP2 PUSH1 0x1 PUSH1 0x48 SHL DUP3 DIV DUP2 AND SWAP2 PUSH2 0x1EE3 SWAP2 PUSH1 0x1 PUSH1 0x28 SHL SWAP1 SWAP2 DIV AND DUP8 PUSH2 0x520F JUMP JUMPDEST PUSH2 0x1EED SWAP2 SWAP1 PUSH2 0x520F JUMP JUMPDEST PUSH2 0x1EF7 SWAP2 SWAP1 PUSH2 0x520F JUMP JUMPDEST PUSH2 0x1F01 SWAP2 SWAP1 PUSH2 0x520F JUMP JUMPDEST PUSH2 0xFFFF AND GT ISZERO PUSH2 0x1F23 JUMPI PUSH1 0x40 MLOAD PUSH3 0x461BCD PUSH1 0xE5 SHL DUP2 MSTORE PUSH1 0x4 ADD PUSH2 0xC95 SWAP1 PUSH2 0x522A JUMP JUMPDEST PUSH1 0x16 SLOAD PUSH2 0x12C SWAP1 PUSH2 0xFFFF PUSH1 0x1 PUSH1 0x98 SHL DUP3 DIV DUP2 AND SWAP2 PUSH4 0x1000000 DUP2 DIV DUP3 AND SWAP2 PUSH1 0x1 PUSH1 0x58 SHL DUP3 DIV DUP2 AND SWAP2 PUSH2 0x1F5E SWAP2 PUSH1 0x1 PUSH1 0x38 SHL SWAP1 SWAP2 DIV AND DUP7 PUSH2 0x520F JUMP JUMPDEST PUSH2 0x1F68 SWAP2 SWAP1 PUSH2 0x520F JUMP JUMPDEST PUSH2 0x1F72 SWAP2 SWAP1 PUSH2 0x520F JUMP JUMPDEST PUSH2 0x1F7C SWAP2 SWAP1 PUSH2 0x520F JUMP JUMPDEST PUSH2 0xFFFF AND GT ISZERO PUSH2 0x1F9E JUMPI PUSH1 0x40 MLOAD PUSH3 0x461BCD PUSH1 0xE5 SHL DUP2 MSTORE PUSH1 0x4 ADD PUSH2 0xC95 SWAP1 PUSH2 0x5259 JUMP JUMPDEST PUSH1 0x96 DUP3 PUSH2 0xFFFF AND GT ISZERO PUSH2 0x1FC3 JUMPI PUSH1 0x40 MLOAD PUSH3 0x461BCD PUSH1 0xE5 SHL DUP2 MSTORE PUSH1 0x4 ADD PUSH2 0xC95 SWAP1 PUSH2 0x5287 JUMP JUMPDEST PUSH1 0x96 DUP2 PUSH2 0xFFFF AND GT ISZERO PUSH2 0x1FE8 JUMPI PUSH1 0x40 MLOAD PUSH3 0x461BCD PUSH1 0xE5 SHL DUP2 MSTORE PUSH1 0x4 ADD PUSH2 0xC95 SWAP1 PUSH2 0x52B0 JUMP JUMPDEST PUSH1 0x16 SLOAD PUSH1 0x40 DUP1 MLOAD PUSH2 0xFFFF DUP6 DUP2 AND DUP3 MSTORE DUP5 DUP2 AND PUSH1 0x20 DUP4 ADD MSTORE PUSH1 0x1 PUSH1 0x68 SHL DUP5 DIV DUP2 AND DUP3 DUP5 ADD MSTORE PUSH1 0x1 PUSH1 0x78 SHL SWAP1 SWAP4 DIV SWAP1 SWAP3 AND PUSH1 0x60 DUP4 ADD MSTORE MLOAD PUSH32 0x2893EF6309F9DF0D45B134FCB021EB854592432DB91782F02CE6B9029D147031 SWAP2 DUP2 SWAP1 SUB PUSH1 0x80 ADD SWAP1 LOG1 PUSH1 0x16 DUP1 SLOAD PUSH4 0xFFFFFFFF PUSH1 0x68 SHL NOT AND PUSH1 0x1 PUSH1 0x68 SHL PUSH2 0xFFFF SWAP5 DUP6 AND MUL PUSH2 0xFFFF PUSH1 0x78 SHL NOT AND OR PUSH1 0x1 PUSH1 0x78 SHL SWAP3 SWAP1 SWAP4 AND SWAP2 SWAP1 SWAP2 MUL SWAP2 SWAP1 SWAP2 OR SWAP1 SSTORE JUMP JUMPDEST PUSH1 0x0 SLOAD PUSH1 0x1 PUSH1 0x1 PUSH1 0xA0 SHL SUB AND CALLER EQ PUSH2 0x20A9 JUMPI PUSH1 0x40 MLOAD PUSH3 0x461BCD PUSH1 0xE5 SHL DUP2 MSTORE PUSH1 0x4 ADD PUSH2 0xC95 SWAP1 PUSH2 0x51A2 JUMP JUMPDEST PUSH1 0x1 PUSH1 0x1 PUSH1 0xA0 SHL SUB DUP2 AND ADDRESS SUB PUSH2 0x20EF JUMPI PUSH1 0x40 MLOAD PUSH3 0x461BCD PUSH1 0xE5 SHL DUP2 MSTORE PUSH1 0x20 PUSH1 0x4 DUP3 ADD MSTORE PUSH1 0xB PUSH1 0x24 DUP3 ADD MSTORE PUSH11 0x139BDD08185B1B1BDDD959 PUSH1 0xAA SHL PUSH1 0x44 DUP3 ADD MSTORE PUSH1 0x64 ADD PUSH2 0xC95 JUMP JUMPDEST PUSH2 0x1B8F PUSH2 0x2104 PUSH1 0x0 SLOAD PUSH1 0x1 PUSH1 0x1 PUSH1 0xA0 SHL SUB AND SWAP1 JUMP JUMPDEST PUSH1 0x40 MLOAD PUSH4 0x70A08231 PUSH1 0xE0 SHL DUP2 MSTORE ADDRESS PUSH1 0x4 DUP3 ADD MSTORE PUSH1 0x1 PUSH1 0x1 PUSH1 0xA0 SHL SUB DUP5 AND SWAP1 PUSH4 0x70A08231 SWAP1 PUSH1 0x24 ADD PUSH1 0x20 PUSH1 0x40 MLOAD DUP1 DUP4 SUB DUP2 DUP7 GAS STATICCALL ISZERO DUP1 ISZERO PUSH2 0x2148 JUMPI RETURNDATASIZE PUSH1 0x0 DUP1 RETURNDATACOPY RETURNDATASIZE PUSH1 0x0 REVERT JUMPDEST POP POP POP POP PUSH1 0x40 MLOAD RETURNDATASIZE PUSH1 0x1F NOT PUSH1 0x1F DUP3 ADD AND DUP3 ADD DUP1 PUSH1 0x40 MSTORE POP DUP2 ADD SWAP1 PUSH2 0x216C SWAP2 SWAP1 PUSH2 0x53E7 JUMP JUMPDEST PUSH1 0x1 PUSH1 0x1 PUSH1 0xA0 SHL SUB DUP5 AND SWAP2 SWAP1 PUSH2 0x396D JUMP JUMPDEST PUSH1 0x40 DUP1 MLOAD PUSH1 0x2 DUP1 DUP3 MSTORE PUSH1 0x60 DUP3 ADD DUP4 MSTORE PUSH1 0x0 SWAP3 PUSH1 0x20 DUP4 ADD SWAP1 DUP1 CALLDATASIZE DUP4 CALLDATACOPY POP POP PUSH1 0x1 SLOAD DUP3 MLOAD SWAP3 SWAP4 POP PUSH1 0x1 PUSH1 0x1 PUSH1 0xA0 SHL SUB AND SWAP2 DUP4 SWAP2 POP PUSH1 0x0 SWAP1 PUSH2 0x21BE JUMPI PUSH2 0x21BE PUSH2 0x52EB JUMP JUMPDEST PUSH1 0x20 MUL PUSH1 0x20 ADD ADD SWAP1 PUSH1 0x1 PUSH1 0x1 PUSH1 0xA0 SHL SUB AND SWAP1 DUP2 PUSH1 0x1 PUSH1 0x1 PUSH1 0xA0 SHL SUB AND DUP2 MSTORE POP POP ADDRESS DUP2 PUSH1 0x1 DUP2 MLOAD DUP2 LT PUSH2 0x21F2 JUMPI PUSH2 0x21F2 PUSH2 0x52EB JUMP JUMPDEST PUSH1 0x1 PUSH1 0x1 PUSH1 0xA0 SHL SUB SWAP3 DUP4 AND PUSH1 0x20 SWAP2 DUP3 MUL SWAP3 SWAP1 SWAP3 ADD DUP2 ADD SWAP2 SWAP1 SWAP2 MSTORE PUSH1 0x1D SLOAD PUSH1 0x40 DUP1 MLOAD PUSH4 0x15AB88C9 PUSH1 0xE3 SHL DUP2 MSTORE SWAP1 MLOAD SWAP2 SWAP1 SWAP4 AND SWAP3 PUSH4 0xAD5C4648 SWAP3 PUSH1 0x4 DUP1 DUP4 ADD SWAP4 SWAP2 SWAP3 DUP3 SWAP1 SUB ADD DUP2 DUP7 GAS STATICCALL ISZERO DUP1 ISZERO PUSH2 0x224B JUMPI RETURNDATASIZE PUSH1 0x0 DUP1 RETURNDATACOPY RETURNDATASIZE PUSH1 0x0 REVERT JUMPDEST POP POP POP POP PUSH1 0x40 MLOAD RETURNDATASIZE PUSH1 0x1F NOT PUSH1 0x1F DUP3 ADD AND DUP3 ADD DUP1 PUSH1 0x40 MSTORE POP DUP2 ADD SWAP1 PUSH2 0x226F SWAP2 SWAP1 PUSH2 0x53AD JUMP JUMPDEST PUSH1 0x1 PUSH1 0x1 PUSH1 0xA0 SHL SUB AND DUP2 PUSH1 0x0 DUP2 MLOAD DUP2 LT PUSH2 0x228B JUMPI PUSH2 0x228B PUSH2 0x52EB JUMP JUMPDEST PUSH1 0x20 MUL PUSH1 0x20 ADD ADD MLOAD PUSH1 0x1 PUSH1 0x1 PUSH1 0xA0 SHL SUB AND SUB PUSH2 0x2315 JUMPI PUSH1 0x1D SLOAD PUSH1 0x18 SLOAD PUSH1 0x40 MLOAD PUSH4 0xB6F9DE95 PUSH1 0xE0 SHL DUP2 MSTORE PUSH1 0x1 PUSH1 0x1 PUSH1 0xA0 SHL SUB SWAP3 DUP4 AND SWAP3 PUSH4 0xB6F9DE95 SWAP3 CALLVALUE SWAP3 PUSH2 0x22DE SWAP3 PUSH1 0x0 SWAP3 DUP9 SWAP3 SWAP2 AND SWAP1 TIMESTAMP SWAP1 PUSH1 0x4 ADD PUSH2 0x5444 JUMP JUMPDEST PUSH1 0x0 PUSH1 0x40 MLOAD DUP1 DUP4 SUB DUP2 DUP6 DUP9 DUP1 EXTCODESIZE ISZERO DUP1 ISZERO PUSH2 0x22F7 JUMPI PUSH1 0x0 DUP1 REVERT JUMPDEST POP GAS CALL ISZERO DUP1 ISZERO PUSH2 0x230B JUMPI RETURNDATASIZE PUSH1 0x0 DUP1 RETURNDATACOPY RETURNDATASIZE PUSH1 0x0 REVERT JUMPDEST POP POP POP POP POP PUSH2 0x241D JUMP JUMPDEST PUSH1 0x1 SLOAD PUSH1 0x0 SWAP1 PUSH1 0x1 PUSH1 0x1 PUSH1 0xA0 SHL SUB AND PUSH4 0x70A08231 CALLER PUSH1 0x40 MLOAD PUSH1 0x1 PUSH1 0x1 PUSH1 0xE0 SHL SUB NOT PUSH1 0xE0 DUP5 SWAP1 SHL AND DUP2 MSTORE PUSH1 0x1 PUSH1 0x1 PUSH1 0xA0 SHL SUB SWAP1 SWAP2 AND PUSH1 0x4 DUP3 ADD MSTORE PUSH1 0x24 ADD PUSH1 0x20 PUSH1 0x40 MLOAD DUP1 DUP4 SUB DUP2 DUP7 GAS STATICCALL ISZERO DUP1 ISZERO PUSH2 0x236E JUMPI RETURNDATASIZE PUSH1 0x0 DUP1 RETURNDATACOPY RETURNDATASIZE PUSH1 0x0 REVERT JUMPDEST POP POP POP POP PUSH1 0x40 MLOAD RETURNDATASIZE PUSH1 0x1F NOT PUSH1 0x1F DUP3 ADD AND DUP3 ADD DUP1 PUSH1 0x40 MSTORE POP DUP2 ADD SWAP1 PUSH2 0x2392 SWAP2 SWAP1 PUSH2 0x53E7 JUMP JUMPDEST SWAP1 POP PUSH2 0x23AC CALLER PUSH1 0x1 SLOAD PUSH1 0x1 PUSH1 0x1 PUSH1 0xA0 SHL SUB AND SWAP1 ADDRESS DUP5 PUSH2 0x39D5 JUMP JUMPDEST PUSH1 0x1D SLOAD PUSH1 0x18 SLOAD PUSH1 0x40 MLOAD PUSH4 0x5C11D795 PUSH1 0xE0 SHL DUP2 MSTORE PUSH1 0x1 PUSH1 0x1 PUSH1 0xA0 SHL SUB SWAP3 DUP4 AND SWAP3 PUSH4 0x5C11D795 SWAP3 PUSH2 0x23E9 SWAP3 DUP7 SWAP3 PUSH1 0x0 SWAP3 DUP10 SWAP3 SWAP2 AND SWAP1 TIMESTAMP SWAP1 PUSH1 0x4 ADD PUSH2 0x5479 JUMP JUMPDEST PUSH1 0x0 PUSH1 0x40 MLOAD DUP1 DUP4 SUB DUP2 PUSH1 0x0 DUP8 DUP1 EXTCODESIZE ISZERO DUP1 ISZERO PUSH2 0x2403 JUMPI PUSH1 0x0 DUP1 REVERT JUMPDEST POP GAS CALL ISZERO DUP1 ISZERO PUSH2 0x2417 JUMPI RETURNDATASIZE PUSH1 0x0 DUP1 RETURNDATACOPY RETURNDATASIZE PUSH1 0x0 REVERT JUMPDEST POP POP POP POP POP JUMPDEST PUSH1 0x18 SLOAD PUSH1 0x1 PUSH1 0x1 PUSH1 0xA0 SHL SUB AND PUSH1 0x0 SWAP1 DUP2 MSTORE PUSH1 0x5 PUSH1 0x20 MSTORE PUSH1 0x40 SWAP1 KECCAK256 SLOAD PUSH1 0xFF AND ISZERO PUSH2 0x250B JUMPI PUSH1 0x18 SLOAD PUSH1 0x1 PUSH1 0x1 PUSH1 0xA0 SHL SUB AND PUSH1 0x0 SWAP1 DUP2 MSTORE PUSH1 0x3 PUSH1 0x20 MSTORE PUSH1 0x40 SWAP1 KECCAK256 SLOAD PUSH1 0x7 SLOAD PUSH2 0x2468 SWAP2 SWAP1 PUSH2 0x52D8 JUMP JUMPDEST PUSH1 0x7 SSTORE PUSH1 0x18 SLOAD PUSH1 0x1 PUSH1 0x1 PUSH1 0xA0 SHL SUB AND PUSH1 0x0 SWAP1 DUP2 MSTORE PUSH1 0x2 PUSH1 0x20 MSTORE PUSH1 0x40 SWAP1 KECCAK256 SLOAD PUSH1 0x8 SLOAD PUSH2 0x2493 SWAP2 SWAP1 PUSH2 0x52D8 JUMP JUMPDEST PUSH1 0x8 SSTORE PUSH1 0x18 SLOAD PUSH1 0x1 PUSH1 0x1 PUSH1 0xA0 SHL SUB AND PUSH1 0x0 DUP2 DUP2 MSTORE PUSH1 0x3 PUSH1 0x20 SWAP1 DUP2 MSTORE PUSH1 0x40 DUP1 DUP4 KECCAK256 SLOAD SWAP1 MLOAD SWAP1 DUP2 MSTORE SWAP2 SWAP3 SWAP2 PUSH1 0x0 DUP1 MLOAD PUSH1 0x20 PUSH2 0x553F DUP4 CODECOPY DUP2 MLOAD SWAP2 MSTORE SWAP2 ADD PUSH1 0x40 MLOAD DUP1 SWAP2 SUB SWAP1 LOG3 PUSH1 0x18 DUP1 SLOAD PUSH1 0x1 PUSH1 0x1 PUSH1 0xA0 SHL SUB SWAP1 DUP2 AND PUSH1 0x0 SWAP1 DUP2 MSTORE PUSH1 0x2 PUSH1 0x20 SWAP1 DUP2 MSTORE PUSH1 0x40 DUP1 DUP4 KECCAK256 DUP4 SWAP1 SSTORE SWAP4 SLOAD SWAP1 SWAP3 AND DUP2 MSTORE PUSH1 0x3 SWAP1 SWAP2 MSTORE SWAP1 DUP2 KECCAK256 SSTORE POP JUMP JUMPDEST PUSH1 0x18 SLOAD PUSH1 0x1 PUSH1 0x1 PUSH1 0xA0 SHL SUB AND PUSH1 0x0 SWAP1 DUP2 MSTORE PUSH1 0x2 PUSH1 0x20 MSTORE PUSH1 0x40 DUP2 KECCAK256 SLOAD PUSH2 0x252F SWAP1 PUSH2 0x107C JUMP JUMPDEST SWAP1 POP DUP1 PUSH1 0x7 SLOAD PUSH2 0x253F SWAP2 SWAP1 PUSH2 0x52D8 JUMP JUMPDEST PUSH1 0x7 SSTORE PUSH1 0x18 SLOAD PUSH1 0x1 PUSH1 0x1 PUSH1 0xA0 SHL SUB AND PUSH1 0x0 SWAP1 DUP2 MSTORE PUSH1 0x2 PUSH1 0x20 MSTORE PUSH1 0x40 SWAP1 KECCAK256 SLOAD PUSH1 0x8 SLOAD PUSH2 0x256A SWAP2 SWAP1 PUSH2 0x52D8 JUMP JUMPDEST PUSH1 0x8 SSTORE PUSH1 0x18 SLOAD PUSH1 0x40 MLOAD DUP3 DUP2 MSTORE PUSH1 0x0 SWAP2 PUSH1 0x1 PUSH1 0x1 PUSH1 0xA0 SHL SUB AND SWAP1 PUSH1 0x0 DUP1 MLOAD PUSH1 0x20 PUSH2 0x553F DUP4 CODECOPY DUP2 MLOAD SWAP2 MSTORE SWAP1 PUSH1 0x20 ADD PUSH1 0x40 MLOAD DUP1 SWAP2 SUB SWAP1 LOG3 POP PUSH1 0x18 DUP1 SLOAD PUSH1 0x1 PUSH1 0x1 PUSH1 0xA0 SHL SUB SWAP1 DUP2 AND PUSH1 0x0 SWAP1 DUP2 MSTORE PUSH1 0x2 PUSH1 0x20 SWAP1 DUP2 MSTORE PUSH1 0x40 DUP1 DUP4 KECCAK256 DUP4 SWAP1 SSTORE SWAP4 SLOAD SWAP1 SWAP3 AND DUP2 MSTORE PUSH1 0x3 SWAP1 SWAP2 MSTORE SWAP1 DUP2 KECCAK256 SSTORE POP JUMP JUMPDEST PUSH1 0x0 SLOAD PUSH1 0x1 PUSH1 0x1 PUSH1 0xA0 SHL SUB AND CALLER EQ PUSH2 0x25FF JUMPI PUSH1 0x40 MLOAD PUSH3 0x461BCD PUSH1 0xE5 SHL DUP2 MSTORE PUSH1 0x4 ADD PUSH2 0xC95 SWAP1 PUSH2 0x51A2 JUMP JUMPDEST PUSH1 0x1 SLOAD PUSH1 0x1 PUSH1 0x1 PUSH1 0xA0 SHL SUB SWAP1 DUP2 AND SWAP1 DUP3 AND SUB PUSH2 0x2673 JUMPI PUSH1 0x40 MLOAD PUSH3 0x461BCD PUSH1 0xE5 SHL DUP2 MSTORE PUSH1 0x20 PUSH1 0x4 DUP3 ADD MSTORE PUSH1 0x2D PUSH1 0x24 DUP3 ADD MSTORE PUSH32 0x5468652062617365546F6B656E466F725061697220616C726561647920686173 PUSH1 0x44 DUP3 ADD MSTORE PUSH13 0x20746861742061646472657373 PUSH1 0x98 SHL PUSH1 0x64 DUP3 ADD MSTORE PUSH1 0x84 ADD PUSH2 0xC95 JUMP JUMPDEST PUSH1 0x1 DUP1 SLOAD PUSH1 0x1 PUSH1 0x1 PUSH1 0xA0 SHL SUB NOT AND PUSH1 0x1 PUSH1 0x1 PUSH1 0xA0 SHL SUB DUP4 DUP2 AND SWAP2 SWAP1 SWAP2 OR SWAP1 SWAP2 SSTORE PUSH1 0x1D SLOAD PUSH1 0x40 DUP1 MLOAD PUSH4 0xC45A0155 PUSH1 0xE0 SHL DUP2 MSTORE SWAP1 MLOAD SWAP2 SWAP1 SWAP3 AND SWAP2 PUSH4 0xC45A0155 SWAP2 PUSH1 0x4 DUP1 DUP4 ADD SWAP3 PUSH1 0x20 SWAP3 SWAP2 SWAP1 DUP3 SWAP1 SUB ADD DUP2 DUP7 GAS STATICCALL ISZERO DUP1 ISZERO PUSH2 0x26D5 JUMPI RETURNDATASIZE PUSH1 0x0 DUP1 RETURNDATACOPY RETURNDATASIZE PUSH1 0x0 REVERT JUMPDEST POP POP POP POP PUSH1 0x40 MLOAD RETURNDATASIZE PUSH1 0x1F NOT PUSH1 0x1F DUP3 ADD AND DUP3 ADD DUP1 PUSH1 0x40 MSTORE POP DUP2 ADD SWAP1 PUSH2 0x26F9 SWAP2 SWAP1 PUSH2 0x53AD JUMP JUMPDEST PUSH1 0x1 SLOAD PUSH1 0x40 MLOAD PUSH4 0xE6A43905 PUSH1 0xE0 SHL DUP2 MSTORE ADDRESS PUSH1 0x4 DUP3 ADD MSTORE PUSH1 0x1 PUSH1 0x1 PUSH1 0xA0 SHL SUB SWAP2 DUP3 AND PUSH1 0x24 DUP3 ADD MSTORE SWAP2 AND SWAP1 PUSH4 0xE6A43905 SWAP1 PUSH1 0x44 ADD PUSH1 0x20 PUSH1 0x40 MLOAD DUP1 DUP4 SUB DUP2 DUP7 GAS STATICCALL ISZERO DUP1 ISZERO PUSH2 0x2748 JUMPI RETURNDATASIZE PUSH1 0x0 DUP1 RETURNDATACOPY RETURNDATASIZE PUSH1 0x0 REVERT JUMPDEST POP POP POP POP PUSH1 0x40 MLOAD RETURNDATASIZE PUSH1 0x1F NOT PUSH1 0x1F DUP3 ADD AND DUP3 ADD DUP1 PUSH1 0x40 MSTORE POP DUP2 ADD SWAP1 PUSH2 0x276C SWAP2 SWAP1 PUSH2 0x53AD JUMP JUMPDEST PUSH1 0x1E DUP1 SLOAD PUSH1 0x1 PUSH1 0x1 PUSH1 0xA0 SHL SUB NOT AND PUSH1 0x1 PUSH1 0x1 PUSH1 0xA0 SHL SUB SWAP3 SWAP1 SWAP3 AND SWAP2 DUP3 OR SWAP1 SSTORE PUSH2 0x1A70 JUMPI PUSH1 0x1D PUSH1 0x0 SWAP1 SLOAD SWAP1 PUSH2 0x100 EXP SWAP1 DIV PUSH1 0x1 PUSH1 0x1 PUSH1 0xA0 SHL SUB AND PUSH1 0x1 PUSH1 0x1 PUSH1 0xA0 SHL SUB AND PUSH4 0xC45A0155 PUSH1 0x40 MLOAD DUP2 PUSH4 0xFFFFFFFF AND PUSH1 0xE0 SHL DUP2 MSTORE PUSH1 0x4 ADD PUSH1 0x20 PUSH1 0x40 MLOAD DUP1 DUP4 SUB DUP2 DUP7 GAS STATICCALL ISZERO DUP1 ISZERO PUSH2 0x27E2 JUMPI RETURNDATASIZE PUSH1 0x0 DUP1 RETURNDATACOPY RETURNDATASIZE PUSH1 0x0 REVERT JUMPDEST POP POP POP POP PUSH1 0x40 MLOAD RETURNDATASIZE PUSH1 0x1F NOT PUSH1 0x1F DUP3 ADD AND DUP3 ADD DUP1 PUSH1 0x40 MSTORE POP DUP2 ADD SWAP1 PUSH2 0x2806 SWAP2 SWAP1 PUSH2 0x53AD JUMP JUMPDEST PUSH1 0x1 SLOAD PUSH1 0x40 MLOAD PUSH4 0x64E329CB PUSH1 0xE1 SHL DUP2 MSTORE ADDRESS PUSH1 0x4 DUP3 ADD MSTORE PUSH1 0x1 PUSH1 0x1 PUSH1 0xA0 SHL SUB SWAP2 DUP3 AND PUSH1 0x24 DUP3 ADD MSTORE SWAP2 AND SWAP1 PUSH4 0xC9C65396 SWAP1 PUSH1 0x44 ADD PUSH1 0x20 PUSH1 0x40 MLOAD DUP1 DUP4 SUB DUP2 PUSH1 0x0 DUP8 GAS CALL ISZERO DUP1 ISZERO PUSH2 0x2857 JUMPI RETURNDATASIZE PUSH1 0x0 DUP1 RETURNDATACOPY RETURNDATASIZE PUSH1 0x0 REVERT JUMPDEST POP POP POP POP PUSH1 0x40 MLOAD RETURNDATASIZE PUSH1 0x1F NOT PUSH1 0x1F DUP3 ADD AND DUP3 ADD DUP1 PUSH1 0x40 MSTORE POP DUP2 ADD SWAP1 PUSH2 0x287B SWAP2 SWAP1 PUSH2 0x53AD JUMP JUMPDEST PUSH1 0x1E DUP1 SLOAD PUSH1 0x1 PUSH1 0x1 PUSH1 0xA0 SHL SUB NOT AND PUSH1 0x1 PUSH1 0x1 PUSH1 0xA0 SHL SUB SWAP3 DUP4 AND OR SWAP1 SSTORE PUSH1 0x1D SLOAD PUSH1 0x40 DUP1 MLOAD PUSH4 0x15AB88C9 PUSH1 0xE3 SHL DUP2 MSTORE SWAP1 MLOAD SWAP2 SWAP1 SWAP3 AND SWAP2 PUSH4 0xAD5C4648 SWAP2 PUSH1 0x4 DUP1 DUP4 ADD SWAP3 PUSH1 0x20 SWAP3 SWAP2 SWAP1 DUP3 SWAP1 SUB ADD DUP2 DUP7 GAS STATICCALL ISZERO DUP1 ISZERO PUSH2 0x1AC3 JUMPI RETURNDATASIZE PUSH1 0x0 DUP1 RETURNDATACOPY RETURNDATASIZE PUSH1 0x0 REVERT JUMPDEST PUSH1 0x0 SLOAD PUSH1 0x1 PUSH1 0x1 PUSH1 0xA0 SHL SUB AND CALLER EQ PUSH2 0x2903 JUMPI PUSH1 0x40 MLOAD PUSH3 0x461BCD PUSH1 0xE5 SHL DUP2 MSTORE PUSH1 0x4 ADD PUSH2 0xC95 SWAP1 PUSH2 0x51A2 JUMP JUMPDEST PUSH1 0x16 SLOAD PUSH2 0x12C SWAP1 PUSH2 0xFFFF PUSH1 0x1 PUSH1 0x88 SHL DUP3 DIV DUP2 AND SWAP2 PUSH1 0x1 PUSH1 0x68 SHL DUP2 DIV DUP3 AND SWAP2 PUSH1 0x1 PUSH1 0x48 SHL DUP3 DIV DUP2 AND SWAP2 PUSH2 0x293E SWAP2 PUSH1 0x1 PUSH1 0x28 SHL SWAP1 SWAP2 DIV AND DUP8 PUSH2 0x520F JUMP JUMPDEST PUSH2 0x2948 SWAP2 SWAP1 PUSH2 0x520F JUMP JUMPDEST PUSH2 0x2952 SWAP2 SWAP1 PUSH2 0x520F JUMP JUMPDEST PUSH2 0x295C SWAP2 SWAP1 PUSH2 0x520F JUMP JUMPDEST PUSH2 0xFFFF AND GT ISZERO PUSH2 0x297E JUMPI PUSH1 0x40 MLOAD PUSH3 0x461BCD PUSH1 0xE5 SHL DUP2 MSTORE PUSH1 0x4 ADD PUSH2 0xC95 SWAP1 PUSH2 0x522A JUMP JUMPDEST PUSH1 0x16 SLOAD PUSH2 0x12C SWAP1 PUSH2 0xFFFF PUSH1 0x1 PUSH1 0x98 SHL DUP3 DIV DUP2 AND SWAP2 PUSH1 0x1 PUSH1 0x78 SHL DUP2 DIV DUP3 AND SWAP2 PUSH1 0x1 PUSH1 0x58 SHL DUP3 DIV DUP2 AND SWAP2 PUSH2 0x29B9 SWAP2 PUSH1 0x1 PUSH1 0x38 SHL SWAP1 SWAP2 DIV AND DUP7 PUSH2 0x520F JUMP JUMPDEST PUSH2 0x29C3 SWAP2 SWAP1 PUSH2 0x520F JUMP JUMPDEST PUSH2 0x29CD SWAP2 SWAP1 PUSH2 0x520F JUMP JUMPDEST PUSH2 0x29D7 SWAP2 SWAP1 PUSH2 0x520F JUMP JUMPDEST PUSH2 0xFFFF AND GT ISZERO PUSH2 0x29F9 JUMPI PUSH1 0x40 MLOAD PUSH3 0x461BCD PUSH1 0xE5 SHL DUP2 MSTORE PUSH1 0x4 ADD PUSH2 0xC95 SWAP1 PUSH2 0x5259 JUMP JUMPDEST PUSH1 0x96 DUP3 PUSH2 0xFFFF AND GT ISZERO PUSH2 0x2A1E JUMPI PUSH1 0x40 MLOAD PUSH3 0x461BCD PUSH1 0xE5 SHL DUP2 MSTORE PUSH1 0x4 ADD PUSH2 0xC95 SWAP1 PUSH2 0x5287 JUMP JUMPDEST PUSH1 0x96 DUP2 PUSH2 0xFFFF AND GT ISZERO PUSH2 0x2A43 JUMPI PUSH1 0x40 MLOAD PUSH3 0x461BCD PUSH1 0xE5 SHL DUP2 MSTORE PUSH1 0x4 ADD PUSH2 0xC95 SWAP1 PUSH2 0x52B0 JUMP JUMPDEST PUSH1 0x16 SLOAD PUSH1 0x40 DUP1 MLOAD PUSH2 0xFFFF DUP6 DUP2 AND DUP3 MSTORE DUP5 DUP2 AND PUSH1 0x20 DUP4 ADD MSTORE PUSH2 0x100 DUP5 DIV DUP2 AND DUP3 DUP5 ADD MSTORE PUSH4 0x1000000 SWAP1 SWAP4 DIV SWAP1 SWAP3 AND PUSH1 0x60 DUP4 ADD MSTORE MLOAD PUSH32 0xA21D45DAB14D5D2F53AE98D95D951CD627FCF1B5BC485174326568B5E0A4572 SWAP2 DUP2 SWAP1 SUB PUSH1 0x80 ADD SWAP1 LOG1 PUSH1 0x16 DUP1 SLOAD PUSH5 0xFFFFFFFF00 NOT AND PUSH2 0x100 PUSH2 0xFFFF SWAP5 DUP6 AND MUL PUSH5 0xFFFF000000 NOT AND OR PUSH4 0x1000000 SWAP3 SWAP1 SWAP4 AND SWAP2 SWAP1 SWAP2 MUL SWAP2 SWAP1 SWAP2 OR SWAP1 SSTORE JUMP JUMPDEST PUSH1 0x60 PUSH1 0xB DUP1 SLOAD PUSH2 0xBD1 SWAP1 PUSH2 0x5168 JUMP JUMPDEST PUSH1 0x0 SLOAD PUSH1 0x1 PUSH1 0x1 PUSH1 0xA0 SHL SUB AND CALLER EQ PUSH2 0x2B0D JUMPI PUSH1 0x40 MLOAD PUSH3 0x461BCD PUSH1 0xE5 SHL DUP2 MSTORE PUSH1 0x4 ADD PUSH2 0xC95 SWAP1 PUSH2 0x51A2 JUMP JUMPDEST PUSH2 0x132D DUP3 DUP3 PUSH2 0x37ED JUMP JUMPDEST CALLER PUSH1 0x0 DUP2 DUP2 MSTORE PUSH1 0x4 PUSH1 0x20 SWAP1 DUP2 MSTORE PUSH1 0x40 DUP1 DUP4 KECCAK256 PUSH1 0x1 PUSH1 0x1 PUSH1 0xA0 SHL SUB DUP8 AND DUP5 MSTORE SWAP1 SWAP2 MSTORE DUP2 KECCAK256 SLOAD SWAP1 SWAP2 PUSH2 0xC61 SWAP2 DUP6 SWAP1 PUSH2 0xF8B SWAP1 DUP7 SWAP1 PUSH2 0x52D8 JUMP JUMPDEST PUSH1 0x0 PUSH2 0xC61 CALLER DUP5 DUP5 PUSH2 0x33A1 JUMP JUMPDEST PUSH1 0x0 SLOAD PUSH1 0x1 PUSH1 0x1 PUSH1 0xA0 SHL SUB AND CALLER EQ PUSH2 0x2B85 JUMPI PUSH1 0x40 MLOAD PUSH3 0x461BCD PUSH1 0xE5 SHL DUP2 MSTORE PUSH1 0x4 ADD PUSH2 0xC95 SWAP1 PUSH2 0x51A2 JUMP JUMPDEST PUSH2 0x2710 PUSH1 0x7 SLOAD PUSH2 0x2B95 SWAP2 SWAP1 PUSH2 0x51ED JUMP JUMPDEST DUP2 LT ISZERO PUSH2 0x2BF9 JUMPI PUSH1 0x40 MLOAD PUSH3 0x461BCD PUSH1 0xE5 SHL DUP2 MSTORE PUSH1 0x20 PUSH1 0x4 DUP3 ADD MSTORE PUSH1 0x2C PUSH1 0x24 DUP3 ADD MSTORE PUSH32 0x6D61785472616E73616374696F6E416D6F756E74203E3D20746F74616C207375 PUSH1 0x44 DUP3 ADD MSTORE PUSH12 0x70706C79202F20313030303 PUSH1 0xA4 SHL PUSH1 0x64 DUP3 ADD MSTORE PUSH1 0x84 ADD PUSH2 0xC95 JUMP JUMPDEST PUSH1 0x1B SLOAD PUSH1 0x40 DUP1 MLOAD DUP4 DUP2 MSTORE PUSH1 0x20 DUP2 ADD SWAP3 SWAP1 SWAP3 MSTORE PUSH32 0x35EEC0711AF6FBE3039535323BE51B57996B6945B0D55862607C7A02E52E4507 SWAP2 ADD PUSH1 0x40 MLOAD DUP1 SWAP2 SUB SWAP1 LOG1 PUSH1 0x1B SSTORE JUMP JUMPDEST PUSH1 0x0 SLOAD PUSH1 0x1 PUSH1 0x1 PUSH1 0xA0 SHL SUB AND CALLER EQ PUSH2 0x2C65 JUMPI PUSH1 0x40 MLOAD PUSH3 0x461BCD PUSH1 0xE5 SHL DUP2 MSTORE PUSH1 0x4 ADD PUSH2 0xC95 SWAP1 PUSH2 0x51A2 JUMP JUMPDEST PUSH1 0x16 SLOAD PUSH2 0x12C SWAP1 PUSH2 0xFFFF PUSH1 0x1 PUSH1 0x88 SHL DUP3 DIV DUP2 AND SWAP2 PUSH1 0x1 PUSH1 0x68 SHL DUP2 DIV DUP3 AND SWAP2 PUSH2 0x100 DUP3 DIV DUP2 AND SWAP2 PUSH2 0x2C9E SWAP2 PUSH1 0x1 PUSH1 0x28 SHL SWAP1 SWAP2 DIV AND DUP8 PUSH2 0x520F JUMP JUMPDEST PUSH2 0x2CA8 SWAP2 SWAP1 PUSH2 0x520F JUMP JUMPDEST PUSH2 0x2CB2 SWAP2 SWAP1 PUSH2 0x520F JUMP JUMPDEST PUSH2 0x2CBC SWAP2 SWAP1 PUSH2 0x520F JUMP JUMPDEST PUSH2 0xFFFF AND GT ISZERO PUSH2 0x2CDE JUMPI PUSH1 0x40 MLOAD PUSH3 0x461BCD PUSH1 0xE5 SHL DUP2 MSTORE PUSH1 0x4 ADD PUSH2 0xC95 SWAP1 PUSH2 0x522A JUMP JUMPDEST PUSH1 0x16 SLOAD PUSH2 0x12C SWAP1 PUSH2 0xFFFF PUSH1 0x1 PUSH1 0x98 SHL DUP3 DIV DUP2 AND SWAP2 PUSH1 0x1 PUSH1 0x78 SHL DUP2 DIV DUP3 AND SWAP2 PUSH4 0x1000000 DUP3 DIV DUP2 AND SWAP2 PUSH2 0x2D19 SWAP2 PUSH1 0x1 PUSH1 0x38 SHL SWAP1 SWAP2 DIV AND DUP7 PUSH2 0x520F JUMP JUMPDEST PUSH2 0x2D23 SWAP2 SWAP1 PUSH2 0x520F JUMP JUMPDEST PUSH2 0x2D2D SWAP2 SWAP1 PUSH2 0x520F JUMP JUMPDEST PUSH2 0x2D37 SWAP2 SWAP1 PUSH2 0x520F JUMP JUMPDEST PUSH2 0xFFFF AND GT ISZERO PUSH2 0x2D59 JUMPI PUSH1 0x40 MLOAD PUSH3 0x461BCD PUSH1 0xE5 SHL DUP2 MSTORE PUSH1 0x4 ADD PUSH2 0xC95 SWAP1 PUSH2 0x5259 JUMP JUMPDEST PUSH1 0x96 DUP3 PUSH2 0xFFFF AND GT ISZERO PUSH2 0x2D7E JUMPI PUSH1 0x40 MLOAD PUSH3 0x461BCD PUSH1 0xE5 SHL DUP2 MSTORE PUSH1 0x4 ADD PUSH2 0xC95 SWAP1 PUSH2 0x5287 JUMP JUMPDEST PUSH1 0x96 DUP2 PUSH2 0xFFFF AND GT ISZERO PUSH2 0x2DA3 JUMPI PUSH1 0x40 MLOAD PUSH3 0x461BCD PUSH1 0xE5 SHL DUP2 MSTORE PUSH1 0x4 ADD PUSH2 0xC95 SWAP1 PUSH2 0x52B0 JUMP JUMPDEST PUSH1 0x16 SLOAD PUSH1 0x40 DUP1 MLOAD PUSH2 0xFFFF DUP6 DUP2 AND DUP3 MSTORE DUP5 DUP2 AND PUSH1 0x20 DUP4 ADD MSTORE PUSH1 0x1 PUSH1 0x48 SHL DUP5 DIV DUP2 AND DUP3 DUP5 ADD MSTORE PUSH1 0x1 PUSH1 0x58 SHL SWAP1 SWAP4 DIV SWAP1 SWAP3 AND PUSH1 0x60 DUP4 ADD MSTORE MLOAD PUSH32 0x1D6B62961D401D548EB1549C97109C0B905CCD7AF9C3777D3076CC8438FDFE65 SWAP2 DUP2 SWAP1 SUB PUSH1 0x80 ADD SWAP1 LOG1 PUSH1 0x16 DUP1 SLOAD PUSH13 0xFFFFFFFF000000000000000000 NOT AND PUSH1 0x1 PUSH1 0x48 SHL PUSH2 0xFFFF SWAP5 DUP6 AND MUL PUSH2 0xFFFF PUSH1 0x58 SHL NOT AND OR PUSH1 0x1 PUSH1 0x58 SHL SWAP3 SWAP1 SWAP4 AND SWAP2 SWAP1 SWAP2 MUL SWAP2 SWAP1 SWAP2 OR SWAP1 SSTORE JUMP JUMPDEST PUSH1 0x0 SLOAD PUSH1 0x1 PUSH1 0x1 PUSH1 0xA0 SHL SUB AND CALLER EQ PUSH2 0x2E6A JUMPI PUSH1 0x40 MLOAD PUSH3 0x461BCD PUSH1 0xE5 SHL DUP2 MSTORE PUSH1 0x4 ADD PUSH2 0xC95 SWAP1 PUSH2 0x51A2 JUMP JUMPDEST PUSH1 0x16 SLOAD PUSH2 0x12C SWAP1 PUSH2 0xFFFF PUSH1 0x1 PUSH1 0x88 SHL DUP3 DIV DUP2 AND SWAP2 PUSH1 0x1 PUSH1 0x68 SHL DUP2 DIV DUP3 AND SWAP2 PUSH2 0x100 DUP3 DIV DUP2 AND SWAP2 PUSH2 0x2EA3 SWAP2 PUSH1 0x1 PUSH1 0x48 SHL SWAP1 SWAP2 DIV AND DUP8 PUSH2 0x520F JUMP JUMPDEST PUSH2 0x2EAD SWAP2 SWAP1 PUSH2 0x520F JUMP JUMPDEST PUSH2 0x2EB7 SWAP2 SWAP1 PUSH2 0x520F JUMP JUMPDEST PUSH2 0x2EC1 SWAP2 SWAP1 PUSH2 0x520F JUMP JUMPDEST PUSH2 0xFFFF AND GT ISZERO PUSH2 0x2EE3 JUMPI PUSH1 0x40 MLOAD PUSH3 0x461BCD PUSH1 0xE5 SHL DUP2 MSTORE PUSH1 0x4 ADD PUSH2 0xC95 SWAP1 PUSH2 0x522A JUMP JUMPDEST PUSH1 0x16 SLOAD PUSH2 0x12C SWAP1 PUSH2 0xFFFF PUSH1 0x1 PUSH1 0x98 SHL DUP3 DIV DUP2 AND SWAP2 PUSH1 0x1 PUSH1 0x78 SHL DUP2 DIV DUP3 AND SWAP2 PUSH4 0x1000000 DUP3 DIV DUP2 AND SWAP2 PUSH2 0x2F1E SWAP2 PUSH1 0x1 PUSH1 0x58 SHL SWAP1 SWAP2 DIV AND DUP7 PUSH2 0x520F JUMP JUMPDEST PUSH2 0x2F28 SWAP2 SWAP1 PUSH2 0x520F JUMP JUMPDEST PUSH2 0x2F32 SWAP2 SWAP1 PUSH2 0x520F JUMP JUMPDEST PUSH2 0x2F3C SWAP2 SWAP1 PUSH2 0x520F JUMP JUMPDEST PUSH2 0xFFFF AND GT ISZERO PUSH2 0x2F5E JUMPI PUSH1 0x40 MLOAD PUSH3 0x461BCD PUSH1 0xE5 SHL DUP2 MSTORE PUSH1 0x4 ADD PUSH2 0xC95 SWAP1 PUSH2 0x5259 JUMP JUMPDEST PUSH1 0x96 DUP3 PUSH2 0xFFFF AND GT ISZERO PUSH2 0x2F83 JUMPI PUSH1 0x40 MLOAD PUSH3 0x461BCD PUSH1 0xE5 SHL DUP2 MSTORE PUSH1 0x4 ADD PUSH2 0xC95 SWAP1 PUSH2 0x5287 JUMP JUMPDEST PUSH1 0x96 DUP2 PUSH2 0xFFFF AND GT ISZERO PUSH2 0x2FA8 JUMPI PUSH1 0x40 MLOAD PUSH3 0x461BCD PUSH1 0xE5 SHL DUP2 MSTORE PUSH1 0x4 ADD PUSH2 0xC95 SWAP1 PUSH2 0x52B0 JUMP JUMPDEST PUSH1 0x16 SLOAD PUSH1 0x40 DUP1 MLOAD PUSH2 0xFFFF DUP6 DUP2 AND DUP3 MSTORE DUP5 DUP2 AND PUSH1 0x20 DUP4 ADD MSTORE PUSH1 0x1 PUSH1 0x28 SHL DUP5 DIV DUP2 AND DUP3 DUP5 ADD MSTORE PUSH1 0x1 PUSH1 0x38 SHL SWAP1 SWAP4 DIV SWAP1 SWAP3 AND PUSH1 0x60 DUP4 ADD MSTORE MLOAD PUSH32 0x95C5C99557725E816FAF752C6675D63483841C28A7A009ED792470A9CB4DEA23 SWAP2 DUP2 SWAP1 SUB PUSH1 0x80 ADD SWAP1 LOG1 PUSH1 0x16 DUP1 SLOAD PUSH9 0xFFFFFFFF0000000000 NOT AND PUSH1 0x1 PUSH1 0x28 SHL PUSH2 0xFFFF SWAP5 DUP6 AND MUL PUSH9 0xFFFF00000000000000 NOT AND OR PUSH1 0x1 PUSH1 0x38 SHL SWAP3 SWAP1 SWAP4 AND SWAP2 SWAP1 SWAP2 MUL SWAP2 SWAP1 SWAP2 OR SWAP1 SSTORE JUMP JUMPDEST PUSH1 0x0 SLOAD PUSH1 0x1 PUSH1 0x1 PUSH1 0xA0 SHL SUB AND CALLER EQ PUSH2 0x306F JUMPI PUSH1 0x40 MLOAD PUSH3 0x461BCD PUSH1 0xE5 SHL DUP2 MSTORE PUSH1 0x4 ADD PUSH2 0xC95 SWAP1 PUSH2 0x51A2 JUMP JUMPDEST PUSH1 0x1 PUSH1 0x1 PUSH1 0xA0 SHL SUB DUP3 AND PUSH1 0x0 SWAP1 DUP2 MSTORE PUSH1 0x1F PUSH1 0x20 MSTORE PUSH1 0x40 SWAP1 KECCAK256 SLOAD DUP2 ISZERO ISZERO PUSH1 0xFF SWAP1 SWAP2 AND ISZERO ISZERO SUB PUSH2 0x30C9 JUMPI PUSH1 0x40 MLOAD PUSH3 0x461BCD PUSH1 0xE5 SHL DUP2 MSTORE PUSH1 0x20 PUSH1 0x4 DUP3 ADD MSTORE PUSH1 0x7 PUSH1 0x24 DUP3 ADD MSTORE PUSH7 0x616C7265616479 PUSH1 0xC8 SHL PUSH1 0x44 DUP3 ADD MSTORE PUSH1 0x64 ADD PUSH2 0xC95 JUMP JUMPDEST PUSH1 0x1 PUSH1 0x1 PUSH1 0xA0 SHL SUB DUP3 AND PUSH1 0x0 DUP2 DUP2 MSTORE PUSH1 0x1F PUSH1 0x20 SWAP1 DUP2 MSTORE PUSH1 0x40 SWAP2 DUP3 SWAP1 KECCAK256 DUP1 SLOAD PUSH1 0xFF NOT AND DUP6 ISZERO ISZERO SWAP1 DUP2 OR SWAP1 SWAP2 SSTORE SWAP2 MLOAD SWAP2 DUP3 MSTORE PUSH32 0x2D43ABD87B27CEE7B0AA8C6F7E0B4A3247B683262A83CBC2318B0DF398A49AA9 SWAP2 ADD PUSH2 0x1070 JUMP JUMPDEST PUSH1 0x0 SLOAD PUSH1 0x1 PUSH1 0x1 PUSH1 0xA0 SHL SUB AND CALLER EQ PUSH2 0x314B JUMPI PUSH1 0x40 MLOAD PUSH3 0x461BCD PUSH1 0xE5 SHL DUP2 MSTORE PUSH1 0x4 ADD PUSH2 0xC95 SWAP1 PUSH2 0x51A2 JUMP JUMPDEST PUSH1 0x0 DUP1 SLOAD PUSH1 0x40 MLOAD PUSH1 0x1 PUSH1 0x1 PUSH1 0xA0 SHL SUB SWAP1 SWAP2 AND SWAP1 SELFBALANCE SWAP1 DUP4 DUP2 DUP2 DUP2 DUP6 DUP8 GAS CALL SWAP3 POP POP POP RETURNDATASIZE DUP1 PUSH1 0x0 DUP2 EQ PUSH2 0x3198 JUMPI PUSH1 0x40 MLOAD SWAP2 POP PUSH1 0x1F NOT PUSH1 0x3F RETURNDATASIZE ADD AND DUP3 ADD PUSH1 0x40 MSTORE RETURNDATASIZE DUP3 MSTORE RETURNDATASIZE PUSH1 0x0 PUSH1 0x20 DUP5 ADD RETURNDATACOPY PUSH2 0x319D JUMP JUMPDEST PUSH1 0x60 SWAP2 POP JUMPDEST POP POP SWAP1 POP DUP1 PUSH2 0x1B8F JUMPI PUSH1 0x40 MLOAD PUSH3 0x461BCD PUSH1 0xE5 SHL DUP2 MSTORE PUSH1 0x20 PUSH1 0x4 DUP3 ADD MSTORE PUSH1 0x14 PUSH1 0x24 DUP3 ADD MSTORE PUSH20 0x11985A5B1959081A5B881DDA5D1A191C985DD85B PUSH1 0x62 SHL PUSH1 0x44 DUP3 ADD MSTORE PUSH1 0x64 ADD PUSH2 0xC95 JUMP JUMPDEST PUSH1 0x0 SLOAD PUSH1 0x1 PUSH1 0x1 PUSH1 0xA0 SHL SUB AND CALLER EQ PUSH2 0x320F JUMPI PUSH1 0x40 MLOAD PUSH3 0x461BCD PUSH1 0xE5 SHL DUP2 MSTORE PUSH1 0x4 ADD PUSH2 0xC95 SWAP1 PUSH2 0x51A2 JUMP JUMPDEST PUSH1 0x1 PUSH1 0x1 PUSH1 0xA0 SHL SUB DUP2 AND PUSH2 0x3274 JUMPI PUSH1 0x40 MLOAD PUSH3 0x461BCD PUSH1 0xE5 SHL DUP2 MSTORE PUSH1 0x20 PUSH1 0x4 DUP3 ADD MSTORE PUSH1 0x26 PUSH1 0x24 DUP3 ADD MSTORE PUSH32 0x4F776E61626C653A206E6577206F776E657220697320746865207A65726F2061 PUSH1 0x44 DUP3 ADD MSTORE PUSH6 0x646472657373 PUSH1 0xD0 SHL PUSH1 0x64 DUP3 ADD MSTORE PUSH1 0x84 ADD PUSH2 0xC95 JUMP JUMPDEST PUSH2 0x1B8F DUP2 PUSH2 0x391D JUMP JUMPDEST PUSH1 0x1 PUSH1 0x1 PUSH1 0xA0 SHL SUB DUP4 AND PUSH2 0x32DF JUMPI PUSH1 0x40 MLOAD PUSH3 0x461BCD PUSH1 0xE5 SHL DUP2 MSTORE PUSH1 0x20 PUSH1 0x4 DUP3 ADD MSTORE PUSH1 0x24 DUP1 DUP3 ADD MSTORE PUSH32 0x45524332303A20617070726F76652066726F6D20746865207A65726F20616464 PUSH1 0x44 DUP3 ADD MSTORE PUSH4 0x72657373 PUSH1 0xE0 SHL PUSH1 0x64 DUP3 ADD MSTORE PUSH1 0x84 ADD PUSH2 0xC95 JUMP JUMPDEST PUSH1 0x1 PUSH1 0x1 PUSH1 0xA0 SHL SUB DUP3 AND PUSH2 0x3340 JUMPI PUSH1 0x40 MLOAD PUSH3 0x461BCD PUSH1 0xE5 SHL DUP2 MSTORE PUSH1 0x20 PUSH1 0x4 DUP3 ADD MSTORE PUSH1 0x22 PUSH1 0x24 DUP3 ADD MSTORE PUSH32 0x45524332303A20617070726F766520746F20746865207A65726F206164647265 PUSH1 0x44 DUP3 ADD MSTORE PUSH2 0x7373 PUSH1 0xF0 SHL PUSH1 0x64 DUP3 ADD MSTORE PUSH1 0x84 ADD PUSH2 0xC95 JUMP JUMPDEST PUSH1 0x1 PUSH1 0x1 PUSH1 0xA0 SHL SUB DUP4 DUP2 AND PUSH1 0x0 DUP2 DUP2 MSTORE PUSH1 0x4 PUSH1 0x20 SWAP1 DUP2 MSTORE PUSH1 0x40 DUP1 DUP4 KECCAK256 SWAP5 DUP8 AND DUP1 DUP5 MSTORE SWAP5 DUP3 MSTORE SWAP2 DUP3 SWAP1 KECCAK256 DUP6 SWAP1 SSTORE SWAP1 MLOAD DUP5 DUP2 MSTORE PUSH32 0x8C5BE1E5EBEC7D5BD14F71427D1E84F3DD0314C0F7B2291E5B200AC8C7C3B925 SWAP2 ADD PUSH1 0x40 MLOAD DUP1 SWAP2 SUB SWAP1 LOG3 POP POP POP JUMP JUMPDEST PUSH1 0x1 PUSH1 0x1 PUSH1 0xA0 SHL SUB DUP4 AND PUSH2 0x3405 JUMPI PUSH1 0x40 MLOAD PUSH3 0x461BCD PUSH1 0xE5 SHL DUP2 MSTORE PUSH1 0x20 PUSH1 0x4 DUP3 ADD MSTORE PUSH1 0x25 PUSH1 0x24 DUP3 ADD MSTORE PUSH32 0x45524332303A207472616E736665722066726F6D20746865207A65726F206164 PUSH1 0x44 DUP3 ADD MSTORE PUSH5 0x6472657373 PUSH1 0xD8 SHL PUSH1 0x64 DUP3 ADD MSTORE PUSH1 0x84 ADD PUSH2 0xC95 JUMP JUMPDEST PUSH1 0x1 PUSH1 0x1 PUSH1 0xA0 SHL SUB DUP3 AND PUSH2 0x3467 JUMPI PUSH1 0x40 MLOAD PUSH3 0x461BCD PUSH1 0xE5 SHL DUP2 MSTORE PUSH1 0x20 PUSH1 0x4 DUP3 ADD MSTORE PUSH1 0x23 PUSH1 0x24 DUP3 ADD MSTORE PUSH32 0x45524332303A207472616E7366657220746F20746865207A65726F2061646472 PUSH1 0x44 DUP3 ADD MSTORE PUSH3 0x657373 PUSH1 0xE8 SHL PUSH1 0x64 DUP3 ADD MSTORE PUSH1 0x84 ADD PUSH2 0xC95 JUMP JUMPDEST PUSH1 0x0 PUSH2 0x3472 ADDRESS PUSH2 0x1B92 JUMP JUMPDEST PUSH1 0x19 SLOAD PUSH1 0x16 SLOAD SWAP2 SWAP3 POP DUP3 LT ISZERO SWAP1 PUSH1 0xFF AND ISZERO DUP1 ISZERO PUSH2 0x348C JUMPI POP DUP1 JUMPDEST DUP1 ISZERO PUSH2 0x34AD JUMPI POP PUSH1 0x1E SLOAD PUSH1 0x0 SWAP1 PUSH2 0x34AB SWAP1 PUSH1 0x1 PUSH1 0x1 PUSH1 0xA0 SHL SUB AND PUSH2 0x1B92 JUMP JUMPDEST GT JUMPDEST DUP1 ISZERO PUSH2 0x34D1 JUMPI POP PUSH1 0x1 PUSH1 0x1 PUSH1 0xA0 SHL SUB DUP5 AND PUSH1 0x0 SWAP1 DUP2 MSTORE PUSH1 0x21 PUSH1 0x20 MSTORE PUSH1 0x40 SWAP1 KECCAK256 SLOAD PUSH1 0xFF AND JUMPDEST ISZERO PUSH2 0x34DE JUMPI PUSH2 0x34DE PUSH2 0x3A13 JUMP JUMPDEST PUSH2 0x3519 PUSH1 0xC DUP1 SLOAD PUSH1 0xD SSTORE PUSH1 0xE DUP1 SLOAD PUSH1 0xF SSTORE PUSH1 0x10 DUP1 SLOAD PUSH1 0x11 SSTORE PUSH1 0x12 DUP1 SLOAD PUSH1 0x13 SSTORE PUSH1 0x14 DUP1 SLOAD PUSH1 0x15 SSTORE PUSH1 0x0 SWAP1 DUP2 SWAP1 SSTORE SWAP1 DUP2 SWAP1 SSTORE SWAP1 DUP2 SWAP1 SSTORE SWAP2 DUP3 SWAP1 SSTORE SSTORE JUMP JUMPDEST PUSH1 0x16 SLOAD PUSH1 0xFF AND ISZERO DUP1 ISZERO PUSH2 0x3545 JUMPI POP PUSH1 0x1 PUSH1 0x1 PUSH1 0xA0 SHL SUB DUP6 AND PUSH1 0x0 SWAP1 DUP2 MSTORE PUSH1 0x1F PUSH1 0x20 MSTORE PUSH1 0x40 SWAP1 KECCAK256 SLOAD PUSH1 0xFF AND ISZERO JUMPDEST DUP1 ISZERO PUSH2 0x356A JUMPI POP PUSH1 0x1 PUSH1 0x1 PUSH1 0xA0 SHL SUB DUP5 AND PUSH1 0x0 SWAP1 DUP2 MSTORE PUSH1 0x1F PUSH1 0x20 MSTORE PUSH1 0x40 SWAP1 KECCAK256 SLOAD PUSH1 0xFF AND ISZERO JUMPDEST ISZERO PUSH2 0x3639 JUMPI PUSH1 0x1 PUSH1 0x1 PUSH1 0xA0 SHL SUB DUP6 AND PUSH1 0x0 SWAP1 DUP2 MSTORE PUSH1 0x21 PUSH1 0x20 MSTORE PUSH1 0x40 SWAP1 KECCAK256 SLOAD PUSH1 0xFF AND ISZERO PUSH2 0x35D7 JUMPI PUSH1 0x16 SLOAD PUSH2 0xFFFF PUSH4 0x1000000 DUP3 DIV DUP2 AND PUSH1 0xC SSTORE PUSH1 0x1 PUSH1 0x38 SHL DUP3 DIV DUP2 AND PUSH1 0xE SSTORE PUSH1 0x1 PUSH1 0x58 SHL DUP3 DIV DUP2 AND PUSH1 0x10 SSTORE PUSH1 0x1 PUSH1 0x78 SHL DUP3 DIV DUP2 AND PUSH1 0x12 SSTORE PUSH1 0x1 PUSH1 0x98 SHL SWAP1 SWAP2 DIV AND PUSH1 0x14 SSTORE PUSH2 0x3639 JUMP JUMPDEST PUSH1 0x1 PUSH1 0x1 PUSH1 0xA0 SHL SUB DUP5 AND PUSH1 0x0 SWAP1 DUP2 MSTORE PUSH1 0x21 PUSH1 0x20 MSTORE PUSH1 0x40 SWAP1 KECCAK256 SLOAD PUSH1 0xFF AND ISZERO PUSH2 0x3639 JUMPI PUSH1 0x16 SLOAD PUSH2 0xFFFF PUSH2 0x100 DUP3 DIV DUP2 AND PUSH1 0xC SSTORE PUSH1 0x1 PUSH1 0x28 SHL DUP3 DIV DUP2 AND PUSH1 0xE SSTORE PUSH1 0x1 PUSH1 0x48 SHL DUP3 DIV DUP2 AND PUSH1 0x10 SSTORE PUSH1 0x1 PUSH1 0x68 SHL DUP3 DIV DUP2 AND PUSH1 0x12 SSTORE PUSH1 0x1 PUSH1 0x88 SHL SWAP1 SWAP2 DIV AND PUSH1 0x14 SSTORE JUMPDEST PUSH2 0x3644 DUP6 DUP6 DUP6 PUSH2 0x42A3 JUMP JUMPDEST PUSH2 0x3667 PUSH1 0x15 SLOAD PUSH1 0x14 SSTORE PUSH1 0x13 SLOAD PUSH1 0x12 SSTORE PUSH1 0xD SLOAD PUSH1 0xC SSTORE PUSH1 0xF SLOAD PUSH1 0xE SSTORE PUSH1 0x11 SLOAD PUSH1 0x10 SSTORE JUMP JUMPDEST PUSH1 0x16 SLOAD PUSH1 0xFF AND PUSH2 0x3759 JUMPI PUSH1 0x1 PUSH1 0x1 PUSH1 0xA0 SHL SUB DUP6 AND PUSH1 0x0 SWAP1 DUP2 MSTORE PUSH1 0x20 DUP1 MSTORE PUSH1 0x40 SWAP1 KECCAK256 SLOAD PUSH1 0xFF AND PUSH2 0x36E1 JUMPI PUSH1 0x1B SLOAD DUP4 LT PUSH2 0x36E1 JUMPI PUSH1 0x40 MLOAD PUSH3 0x461BCD PUSH1 0xE5 SHL DUP2 MSTORE PUSH1 0x20 PUSH1 0x4 DUP3 ADD MSTORE PUSH1 0x1D PUSH1 0x24 DUP3 ADD MSTORE PUSH32 0x45524332303A2065786365656473207472616E73666572206C696D6974000000 PUSH1 0x44 DUP3 ADD MSTORE PUSH1 0x64 ADD PUSH2 0xC95 JUMP JUMPDEST PUSH1 0x1 PUSH1 0x1 PUSH1 0xA0 SHL SUB DUP5 AND PUSH1 0x0 SWAP1 DUP2 MSTORE PUSH1 0x20 DUP1 MSTORE PUSH1 0x40 SWAP1 KECCAK256 SLOAD PUSH1 0xFF AND PUSH2 0x3759 JUMPI PUSH1 0x1A SLOAD PUSH2 0x370C DUP6 PUSH2 0x1B92 JUMP JUMPDEST LT PUSH2 0x3759 JUMPI PUSH1 0x40 MLOAD PUSH3 0x461BCD PUSH1 0xE5 SHL DUP2 MSTORE PUSH1 0x20 PUSH1 0x4 DUP3 ADD MSTORE PUSH1 0x1F PUSH1 0x24 DUP3 ADD MSTORE PUSH32 0x45524332303A2065786365656473206D61782077616C6C6574206C696D697400 PUSH1 0x44 DUP3 ADD MSTORE PUSH1 0x64 ADD PUSH2 0xC95 JUMP JUMPDEST POP POP POP POP POP JUMP JUMPDEST PUSH1 0x0 DUP1 PUSH1 0x0 PUSH2 0x376D PUSH2 0x473C JUMP JUMPDEST SWAP1 SWAP3 POP SWAP1 POP PUSH2 0x377C DUP2 DUP4 PUSH2 0x51ED JUMP JUMPDEST SWAP3 POP POP POP SWAP1 JUMP JUMPDEST PUSH1 0x0 DUP1 PUSH1 0x0 DUP1 PUSH1 0x0 DUP1 PUSH1 0x0 PUSH2 0x3797 DUP9 PUSH2 0x48BF JUMP JUMPDEST SWAP1 POP PUSH1 0x0 PUSH2 0x37A4 DUP10 PUSH2 0x48DC JUMP JUMPDEST SWAP1 POP PUSH1 0x0 PUSH2 0x37B1 DUP11 PUSH2 0x48EF JUMP JUMPDEST SWAP1 POP PUSH1 0x0 PUSH2 0x37BE DUP12 PUSH2 0x4902 JUMP JUMPDEST SWAP1 POP PUSH1 0x0 PUSH2 0x37CB DUP13 PUSH2 0x4915 JUMP JUMPDEST SWAP1 POP PUSH1 0x0 PUSH2 0x37D8 DUP14 PUSH2 0x4928 JUMP JUMPDEST SWAP14 SWAP6 SWAP13 POP SWAP4 SWAP11 POP SWAP2 SWAP9 POP SWAP7 POP SWAP5 POP SWAP1 SWAP3 POP POP POP JUMP JUMPDEST PUSH1 0x1 PUSH1 0x1 PUSH1 0xA0 SHL SUB DUP3 AND PUSH1 0x0 SWAP1 DUP2 MSTORE PUSH1 0x21 PUSH1 0x20 MSTORE PUSH1 0x40 SWAP1 KECCAK256 SLOAD DUP2 ISZERO ISZERO PUSH1 0xFF SWAP1 SWAP2 AND ISZERO ISZERO SUB PUSH2 0x3883 JUMPI PUSH1 0x40 MLOAD PUSH3 0x461BCD PUSH1 0xE5 SHL DUP2 MSTORE PUSH1 0x20 PUSH1 0x4 DUP3 ADD MSTORE PUSH1 0x38 PUSH1 0x24 DUP3 ADD MSTORE PUSH32 0x4175746F6D61746564206D61726B6574206D616B657220706169722069732061 PUSH1 0x44 DUP3 ADD MSTORE PUSH32 0x6C72656164792073657420746F20746861742076616C75650000000000000000 PUSH1 0x64 DUP3 ADD MSTORE PUSH1 0x84 ADD PUSH2 0xC95 JUMP JUMPDEST PUSH1 0x1 PUSH1 0x1 PUSH1 0xA0 SHL SUB DUP3 AND PUSH1 0x0 SWAP1 DUP2 MSTORE PUSH1 0x21 PUSH1 0x20 MSTORE PUSH1 0x40 SWAP1 KECCAK256 DUP1 SLOAD PUSH1 0xFF NOT AND DUP3 ISZERO DUP1 ISZERO SWAP2 SWAP1 SWAP2 OR SWAP1 SWAP2 SSTORE PUSH2 0x38BE JUMPI PUSH2 0x38B9 DUP3 PUSH2 0x1579 JUMP JUMPDEST PUSH2 0x38C7 JUMP JUMPDEST PUSH2 0x38C7 DUP3 PUSH2 0x10F9 JUMP JUMPDEST PUSH1 0x1 PUSH1 0x1 PUSH1 0xA0 SHL SUB DUP3 AND PUSH1 0x0 DUP2 DUP2 MSTORE PUSH1 0x20 DUP1 DUP1 MSTORE PUSH1 0x40 SWAP2 DUP3 SWAP1 KECCAK256 DUP1 SLOAD PUSH1 0xFF NOT AND DUP6 ISZERO ISZERO SWAP1 DUP2 OR SWAP1 SWAP2 SSTORE SWAP2 MLOAD SWAP2 DUP3 MSTORE PUSH32 0xFFA9187BF1F18BF477BD0EA1BCBB64E93B6A98132473929EDFCE215CD9B16FAB SWAP2 ADD PUSH2 0x1070 JUMP JUMPDEST PUSH1 0x0 DUP1 SLOAD PUSH1 0x1 PUSH1 0x1 PUSH1 0xA0 SHL SUB DUP4 DUP2 AND PUSH1 0x1 PUSH1 0x1 PUSH1 0xA0 SHL SUB NOT DUP4 AND DUP2 OR DUP5 SSTORE PUSH1 0x40 MLOAD SWAP2 SWAP1 SWAP3 AND SWAP3 DUP4 SWAP2 PUSH32 0x8BE0079C531659141344CD1FD0A4F28419497F9722A3DAAFE3B4186F6B6457E0 SWAP2 SWAP1 LOG3 POP POP JUMP JUMPDEST PUSH1 0x40 MLOAD PUSH1 0x1 PUSH1 0x1 PUSH1 0xA0 SHL SUB DUP4 AND PUSH1 0x24 DUP3 ADD MSTORE PUSH1 0x44 DUP2 ADD DUP3 SWAP1 MSTORE PUSH2 0x39D0 SWAP1 DUP5 SWAP1 PUSH4 0xA9059CBB PUSH1 0xE0 SHL SWAP1 PUSH1 0x64 ADD JUMPDEST PUSH1 0x40 DUP1 MLOAD PUSH1 0x1F NOT DUP2 DUP5 SUB ADD DUP2 MSTORE SWAP2 SWAP1 MSTORE PUSH1 0x20 DUP2 ADD DUP1 MLOAD PUSH1 0x1 PUSH1 0x1 PUSH1 0xE0 SHL SUB AND PUSH1 0x1 PUSH1 0x1 PUSH1 0xE0 SHL SUB NOT SWAP1 SWAP4 AND SWAP3 SWAP1 SWAP3 OR SWAP1 SWAP2 MSTORE PUSH2 0x497B JUMP JUMPDEST POP POP POP JUMP JUMPDEST PUSH1 0x40 MLOAD PUSH1 0x1 PUSH1 0x1 PUSH1 0xA0 SHL SUB DUP1 DUP6 AND PUSH1 0x24 DUP4 ADD MSTORE DUP4 AND PUSH1 0x44 DUP3 ADD MSTORE PUSH1 0x64 DUP2 ADD DUP3 SWAP1 MSTORE PUSH2 0x3A0D SWAP1 DUP6 SWAP1 PUSH4 0x23B872DD PUSH1 0xE0 SHL SWAP1 PUSH1 0x84 ADD PUSH2 0x3999 JUMP JUMPDEST POP POP POP POP JUMP JUMPDEST PUSH1 0x16 DUP1 SLOAD PUSH1 0xFF NOT AND PUSH1 0x1 OR SWAP1 SSTORE PUSH1 0x0 PUSH2 0x3A2B ADDRESS PUSH2 0x1B92 JUMP JUMPDEST SWAP1 POP PUSH1 0x0 PUSH1 0x24 SLOAD PUSH1 0x23 SLOAD PUSH1 0x22 SLOAD PUSH2 0x3A42 SWAP2 SWAP1 PUSH2 0x5318 JUMP JUMPDEST PUSH2 0x3A4C SWAP2 SWAP1 PUSH2 0x5318 JUMP JUMPDEST SWAP1 POP DUP1 ISZERO DUP1 PUSH2 0x3A5A JUMPI POP DUP1 DUP3 LT JUMPDEST ISZERO PUSH2 0x3A66 JUMPI POP POP PUSH2 0x4297 JUMP JUMPDEST PUSH1 0x0 PUSH1 0x2 PUSH1 0x22 SLOAD PUSH2 0x3A77 SWAP2 SWAP1 PUSH2 0x51ED JUMP JUMPDEST SWAP1 POP PUSH1 0x0 PUSH1 0x1D PUSH1 0x0 SWAP1 SLOAD SWAP1 PUSH2 0x100 EXP SWAP1 DIV PUSH1 0x1 PUSH1 0x1 PUSH1 0xA0 SHL SUB AND PUSH1 0x1 PUSH1 0x1 PUSH1 0xA0 SHL SUB AND PUSH4 0xAD5C4648 PUSH1 0x40 MLOAD DUP2 PUSH4 0xFFFFFFFF AND PUSH1 0xE0 SHL DUP2 MSTORE PUSH1 0x4 ADD PUSH1 0x20 PUSH1 0x40 MLOAD DUP1 DUP4 SUB DUP2 DUP7 GAS STATICCALL ISZERO DUP1 ISZERO PUSH2 0x3ACE JUMPI RETURNDATASIZE PUSH1 0x0 DUP1 RETURNDATACOPY RETURNDATASIZE PUSH1 0x0 REVERT JUMPDEST POP POP POP POP PUSH1 0x40 MLOAD RETURNDATASIZE PUSH1 0x1F NOT PUSH1 0x1F DUP3 ADD AND DUP3 ADD DUP1 PUSH1 0x40 MSTORE POP DUP2 ADD SWAP1 PUSH2 0x3AF2 SWAP2 SWAP1 PUSH2 0x53AD JUMP JUMPDEST PUSH1 0x1 SLOAD PUSH1 0x1 PUSH1 0x1 PUSH1 0xA0 SHL SUB SWAP1 DUP2 AND SWAP2 AND EQ PUSH2 0x3B78 JUMPI PUSH1 0x1 SLOAD PUSH1 0x40 MLOAD PUSH4 0x70A08231 PUSH1 0xE0 SHL DUP2 MSTORE ADDRESS PUSH1 0x4 DUP3 ADD MSTORE PUSH1 0x1 PUSH1 0x1 PUSH1 0xA0 SHL SUB SWAP1 SWAP2 AND SWAP1 PUSH4 0x70A08231 SWAP1 PUSH1 0x24 ADD PUSH1 0x20 PUSH1 0x40 MLOAD DUP1 DUP4 SUB DUP2 DUP7 GAS STATICCALL ISZERO DUP1 ISZERO PUSH2 0x3B4F JUMPI RETURNDATASIZE PUSH1 0x0 DUP1 RETURNDATACOPY RETURNDATASIZE PUSH1 0x0 REVERT JUMPDEST POP POP POP POP PUSH1 0x40 MLOAD RETURNDATASIZE PUSH1 0x1F NOT PUSH1 0x1F DUP3 ADD AND DUP3 ADD DUP1 PUSH1 0x40 MSTORE POP DUP2 ADD SWAP1 PUSH2 0x3B73 SWAP2 SWAP1 PUSH2 0x53E7 JUMP JUMPDEST PUSH2 0x3B7A JUMP JUMPDEST SELFBALANCE JUMPDEST SWAP1 POP PUSH1 0x0 DUP1 PUSH1 0x17 PUSH1 0x14 SWAP1 SLOAD SWAP1 PUSH2 0x100 EXP SWAP1 DIV PUSH1 0xFF AND ISZERO PUSH2 0x3EA6 JUMPI PUSH1 0x0 PUSH1 0x24 SLOAD PUSH1 0x23 SLOAD DUP7 PUSH2 0x3BA7 SWAP2 SWAP1 PUSH2 0x5318 JUMP JUMPDEST PUSH2 0x3BB1 SWAP2 SWAP1 PUSH2 0x5318 JUMP JUMPDEST SWAP1 POP DUP1 ISZERO PUSH2 0x3BC2 JUMPI PUSH2 0x3BC2 DUP2 PUSH2 0x4A4D JUMP JUMPDEST PUSH1 0x1D SLOAD PUSH1 0x40 DUP1 MLOAD PUSH4 0x15AB88C9 PUSH1 0xE3 SHL DUP2 MSTORE SWAP1 MLOAD PUSH1 0x0 SWAP3 PUSH1 0x1 PUSH1 0x1 PUSH1 0xA0 SHL SUB AND SWAP2 PUSH4 0xAD5C4648 SWAP2 PUSH1 0x4 DUP1 DUP4 ADD SWAP3 PUSH1 0x20 SWAP3 SWAP2 SWAP1 DUP3 SWAP1 SUB ADD DUP2 DUP7 GAS STATICCALL ISZERO DUP1 ISZERO PUSH2 0x3C0C JUMPI RETURNDATASIZE PUSH1 0x0 DUP1 RETURNDATACOPY RETURNDATASIZE PUSH1 0x0 REVERT JUMPDEST POP POP POP POP PUSH1 0x40 MLOAD RETURNDATASIZE PUSH1 0x1F NOT PUSH1 0x1F DUP3 ADD AND DUP3 ADD DUP1 PUSH1 0x40 MSTORE POP DUP2 ADD SWAP1 PUSH2 0x3C30 SWAP2 SWAP1 PUSH2 0x53AD JUMP JUMPDEST PUSH1 0x1 SLOAD PUSH1 0x1 PUSH1 0x1 PUSH1 0xA0 SHL SUB SWAP1 DUP2 AND SWAP2 AND EQ PUSH2 0x3CC0 JUMPI PUSH1 0x1 SLOAD PUSH1 0x40 MLOAD PUSH4 0x70A08231 PUSH1 0xE0 SHL DUP2 MSTORE ADDRESS PUSH1 0x4 DUP3 ADD MSTORE DUP7 SWAP2 PUSH1 0x1 PUSH1 0x1 PUSH1 0xA0 SHL SUB AND SWAP1 PUSH4 0x70A08231 SWAP1 PUSH1 0x24 ADD PUSH1 0x20 PUSH1 0x40 MLOAD DUP1 DUP4 SUB DUP2 DUP7 GAS STATICCALL ISZERO DUP1 ISZERO PUSH2 0x3C8D JUMPI RETURNDATASIZE PUSH1 0x0 DUP1 RETURNDATACOPY RETURNDATASIZE PUSH1 0x0 REVERT JUMPDEST POP POP POP POP PUSH1 0x40 MLOAD RETURNDATASIZE PUSH1 0x1F NOT PUSH1 0x1F DUP3 ADD AND DUP3 ADD DUP1 PUSH1 0x40 MSTORE POP DUP2 ADD SWAP1 PUSH2 0x3CB1 SWAP2 SWAP1 PUSH2 0x53E7 JUMP JUMPDEST PUSH2 0x3CBB SWAP2 SWAP1 PUSH2 0x52D8 JUMP JUMPDEST PUSH2 0x3CCA JUMP JUMPDEST PUSH2 0x3CCA DUP6 SELFBALANCE PUSH2 0x52D8 JUMP JUMPDEST SWAP1 POP PUSH1 0x0 DUP3 PUSH1 0x23 SLOAD DUP4 PUSH2 0x3CDD SWAP2 SWAP1 PUSH2 0x5301 JUMP JUMPDEST PUSH2 0x3CE7 SWAP2 SWAP1 PUSH2 0x51ED JUMP JUMPDEST SWAP1 POP DUP3 PUSH2 0x3CF4 DUP9 DUP5 PUSH2 0x5301 JUMP JUMPDEST PUSH2 0x3CFE SWAP2 SWAP1 PUSH2 0x51ED JUMP JUMPDEST SWAP5 POP DUP5 PUSH2 0x3D0B DUP3 DUP5 PUSH2 0x52D8 JUMP JUMPDEST PUSH2 0x3D15 SWAP2 SWAP1 PUSH2 0x52D8 JUMP JUMPDEST SWAP4 POP DUP1 ISZERO PUSH2 0x3E9E JUMPI PUSH1 0x1D PUSH1 0x0 SWAP1 SLOAD SWAP1 PUSH2 0x100 EXP SWAP1 DIV PUSH1 0x1 PUSH1 0x1 PUSH1 0xA0 SHL SUB AND PUSH1 0x1 PUSH1 0x1 PUSH1 0xA0 SHL SUB AND PUSH4 0xAD5C4648 PUSH1 0x40 MLOAD DUP2 PUSH4 0xFFFFFFFF AND PUSH1 0xE0 SHL DUP2 MSTORE PUSH1 0x4 ADD PUSH1 0x20 PUSH1 0x40 MLOAD DUP1 DUP4 SUB DUP2 DUP7 GAS STATICCALL ISZERO DUP1 ISZERO PUSH2 0x3D70 JUMPI RETURNDATASIZE PUSH1 0x0 DUP1 RETURNDATACOPY RETURNDATASIZE PUSH1 0x0 REVERT JUMPDEST POP POP POP POP PUSH1 0x40 MLOAD RETURNDATASIZE PUSH1 0x1F NOT PUSH1 0x1F DUP3 ADD AND DUP3 ADD DUP1 PUSH1 0x40 MSTORE POP DUP2 ADD SWAP1 PUSH2 0x3D94 SWAP2 SWAP1 PUSH2 0x53AD JUMP JUMPDEST PUSH1 0x1 SLOAD PUSH1 0x1 PUSH1 0x1 PUSH1 0xA0 SHL SUB SWAP2 DUP3 AND SWAP2 AND SUB PUSH2 0x3E46 JUMPI PUSH1 0x17 SLOAD PUSH1 0x40 MLOAD PUSH1 0x0 SWAP2 PUSH1 0x1 PUSH1 0x1 PUSH1 0xA0 SHL SUB AND SWAP1 DUP4 SWAP1 DUP4 DUP2 DUP2 DUP2 DUP6 DUP8 GAS CALL SWAP3 POP POP POP RETURNDATASIZE DUP1 PUSH1 0x0 DUP2 EQ PUSH2 0x3DF6 JUMPI PUSH1 0x40 MLOAD SWAP2 POP PUSH1 0x1F NOT PUSH1 0x3F RETURNDATASIZE ADD AND DUP3 ADD PUSH1 0x40 MSTORE RETURNDATASIZE DUP3 MSTORE RETURNDATASIZE PUSH1 0x0 PUSH1 0x20 DUP5 ADD RETURNDATACOPY PUSH2 0x3DFB JUMP JUMPDEST PUSH1 0x60 SWAP2 POP JUMPDEST POP POP SWAP1 POP DUP1 ISZERO PUSH2 0x3E40 JUMPI PUSH1 0x40 DUP1 MLOAD PUSH1 0x0 DUP2 MSTORE PUSH1 0x20 DUP2 ADD DUP5 SWAP1 MSTORE PUSH32 0x6F92BCE3E91466137AA4D5474FE565C002872FB18ED6AF4A856959BE0A81277A SWAP2 ADD PUSH1 0x40 MLOAD DUP1 SWAP2 SUB SWAP1 LOG1 JUMPDEST POP PUSH2 0x3E9E JUMP JUMPDEST PUSH1 0x17 SLOAD PUSH1 0x1 SLOAD PUSH2 0x3E63 SWAP2 PUSH1 0x1 PUSH1 0x1 PUSH1 0xA0 SHL SUB SWAP2 DUP3 AND SWAP2 AND DUP4 PUSH2 0x396D JUMP JUMPDEST PUSH1 0x40 DUP1 MLOAD PUSH1 0x0 DUP2 MSTORE PUSH1 0x20 DUP2 ADD DUP4 SWAP1 MSTORE PUSH32 0x6F92BCE3E91466137AA4D5474FE565C002872FB18ED6AF4A856959BE0A81277A SWAP2 ADD PUSH1 0x40 MLOAD DUP1 SWAP2 SUB SWAP1 LOG1 JUMPDEST POP POP POP PUSH2 0x405A JUMP JUMPDEST PUSH1 0x0 PUSH1 0x24 SLOAD DUP6 PUSH2 0x3EB6 SWAP2 SWAP1 PUSH2 0x5318 JUMP JUMPDEST SWAP1 POP DUP1 ISZERO PUSH2 0x3EC7 JUMPI PUSH2 0x3EC7 DUP2 PUSH2 0x4A4D JUMP JUMPDEST PUSH1 0x1D SLOAD PUSH1 0x40 DUP1 MLOAD PUSH4 0x15AB88C9 PUSH1 0xE3 SHL DUP2 MSTORE SWAP1 MLOAD PUSH1 0x0 SWAP3 PUSH1 0x1 PUSH1 0x1 PUSH1 0xA0 SHL SUB AND SWAP2 PUSH4 0xAD5C4648 SWAP2 PUSH1 0x4 DUP1 DUP4 ADD SWAP3 PUSH1 0x20 SWAP3 SWAP2 SWAP1 DUP3 SWAP1 SUB ADD DUP2 DUP7 GAS STATICCALL ISZERO DUP1 ISZERO PUSH2 0x3F11 JUMPI RETURNDATASIZE PUSH1 0x0 DUP1 RETURNDATACOPY RETURNDATASIZE PUSH1 0x0 REVERT JUMPDEST POP POP POP POP PUSH1 0x40 MLOAD RETURNDATASIZE PUSH1 0x1F NOT PUSH1 0x1F DUP3 ADD AND DUP3 ADD DUP1 PUSH1 0x40 MSTORE POP DUP2 ADD SWAP1 PUSH2 0x3F35 SWAP2 SWAP1 PUSH2 0x53AD JUMP JUMPDEST PUSH1 0x1 SLOAD PUSH1 0x1 PUSH1 0x1 PUSH1 0xA0 SHL SUB SWAP1 DUP2 AND SWAP2 AND EQ PUSH2 0x3FC5 JUMPI PUSH1 0x1 SLOAD PUSH1 0x40 MLOAD PUSH4 0x70A08231 PUSH1 0xE0 SHL DUP2 MSTORE ADDRESS PUSH1 0x4 DUP3 ADD MSTORE DUP7 SWAP2 PUSH1 0x1 PUSH1 0x1 PUSH1 0xA0 SHL SUB AND SWAP1 PUSH4 0x70A08231 SWAP1 PUSH1 0x24 ADD PUSH1 0x20 PUSH1 0x40 MLOAD DUP1 DUP4 SUB DUP2 DUP7 GAS STATICCALL ISZERO DUP1 ISZERO PUSH2 0x3F92 JUMPI RETURNDATASIZE PUSH1 0x0 DUP1 RETURNDATACOPY RETURNDATASIZE PUSH1 0x0 REVERT JUMPDEST POP POP POP POP PUSH1 0x40 MLOAD RETURNDATASIZE PUSH1 0x1F NOT PUSH1 0x1F DUP3 ADD AND DUP3 ADD DUP1 PUSH1 0x40 MSTORE POP DUP2 ADD SWAP1 PUSH2 0x3FB6 SWAP2 SWAP1 PUSH2 0x53E7 JUMP JUMPDEST PUSH2 0x3FC0 SWAP2 SWAP1 PUSH2 0x52D8 JUMP JUMPDEST PUSH2 0x3FCF JUMP JUMPDEST PUSH2 0x3FCF DUP6 SELFBALANCE PUSH2 0x52D8 JUMP JUMPDEST SWAP1 POP DUP2 PUSH2 0x3FDC DUP8 DUP4 PUSH2 0x5301 JUMP JUMPDEST PUSH2 0x3FE6 SWAP2 SWAP1 PUSH2 0x51ED JUMP JUMPDEST SWAP4 POP PUSH2 0x3FF2 DUP5 DUP3 PUSH2 0x52D8 JUMP JUMPDEST PUSH1 0x23 SLOAD SWAP1 SWAP4 POP ISZERO PUSH2 0x4057 JUMPI PUSH1 0x17 SLOAD PUSH1 0x23 SLOAD PUSH2 0x401A SWAP2 ADDRESS SWAP2 PUSH1 0x1 PUSH1 0x1 PUSH1 0xA0 SHL SUB SWAP1 SWAP2 AND SWAP1 PUSH2 0x33A1 JUMP JUMPDEST PUSH1 0x23 SLOAD PUSH1 0x40 DUP1 MLOAD SWAP2 DUP3 MSTORE PUSH1 0x0 PUSH1 0x20 DUP4 ADD MSTORE PUSH32 0x6F92BCE3E91466137AA4D5474FE565C002872FB18ED6AF4A856959BE0A81277A SWAP2 ADD PUSH1 0x40 MLOAD DUP1 SWAP2 SUB SWAP1 LOG1 JUMPDEST POP POP JUMPDEST PUSH1 0x0 DUP5 GT DUP1 ISZERO PUSH2 0x406A JUMPI POP PUSH1 0x0 DUP3 GT JUMPDEST ISZERO PUSH2 0x40B3 JUMPI PUSH2 0x4079 DUP5 DUP4 PUSH2 0x4C0D JUMP JUMPDEST PUSH1 0x40 DUP1 MLOAD DUP6 DUP2 MSTORE PUSH1 0x20 DUP2 ADD DUP5 SWAP1 MSTORE PUSH32 0x28FC98272CE761178794AD6768050FEA1648E07F1E2FFE15AFD3A290F8381486 SWAP2 ADD PUSH1 0x40 MLOAD DUP1 SWAP2 SUB SWAP1 LOG1 JUMPDEST DUP1 ISZERO PUSH2 0x422C JUMPI PUSH1 0x1D PUSH1 0x0 SWAP1 SLOAD SWAP1 PUSH2 0x100 EXP SWAP1 DIV PUSH1 0x1 PUSH1 0x1 PUSH1 0xA0 SHL SUB AND PUSH1 0x1 PUSH1 0x1 PUSH1 0xA0 SHL SUB AND PUSH4 0xAD5C4648 PUSH1 0x40 MLOAD DUP2 PUSH4 0xFFFFFFFF AND PUSH1 0xE0 SHL DUP2 MSTORE PUSH1 0x4 ADD PUSH1 0x20 PUSH1 0x40 MLOAD DUP1 DUP4 SUB DUP2 DUP7 GAS STATICCALL ISZERO DUP1 ISZERO PUSH2 0x410C JUMPI RETURNDATASIZE PUSH1 0x0 DUP1 RETURNDATACOPY RETURNDATASIZE PUSH1 0x0 REVERT JUMPDEST POP POP POP POP PUSH1 0x40 MLOAD RETURNDATASIZE PUSH1 0x1F NOT PUSH1 0x1F DUP3 ADD AND DUP3 ADD DUP1 PUSH1 0x40 MSTORE POP DUP2 ADD SWAP1 PUSH2 0x4130 SWAP2 SWAP1 PUSH2 0x53AD JUMP JUMPDEST PUSH1 0x1 SLOAD PUSH1 0x1 PUSH1 0x1 PUSH1 0xA0 SHL SUB SWAP2 DUP3 AND SWAP2 AND SUB PUSH2 0x41DB JUMPI PUSH1 0x18 SLOAD PUSH1 0x40 MLOAD PUSH1 0x0 SWAP2 PUSH1 0x1 PUSH1 0x1 PUSH1 0xA0 SHL SUB AND SWAP1 DUP4 SWAP1 DUP4 DUP2 DUP2 DUP2 DUP6 DUP8 GAS CALL SWAP3 POP POP POP RETURNDATASIZE DUP1 PUSH1 0x0 DUP2 EQ PUSH2 0x4192 JUMPI PUSH1 0x40 MLOAD SWAP2 POP PUSH1 0x1F NOT PUSH1 0x3F RETURNDATASIZE ADD AND DUP3 ADD PUSH1 0x40 MSTORE RETURNDATASIZE DUP3 MSTORE RETURNDATASIZE PUSH1 0x0 PUSH1 0x20 DUP5 ADD RETURNDATACOPY PUSH2 0x4197 JUMP JUMPDEST PUSH1 0x60 SWAP2 POP JUMPDEST POP POP SWAP1 POP DUP1 ISZERO PUSH2 0x41D5 JUMPI PUSH1 0x40 MLOAD DUP3 DUP2 MSTORE PUSH32 0xE3630E0003FB3E9F9D835BB839022E52FFD576F9F35C395DD17517106F78CB33 SWAP1 PUSH1 0x20 ADD PUSH1 0x40 MLOAD DUP1 SWAP2 SUB SWAP1 LOG1 JUMPDEST POP PUSH2 0x422C JUMP JUMPDEST PUSH1 0x18 SLOAD PUSH1 0x1 SLOAD PUSH2 0x41F8 SWAP2 PUSH1 0x1 PUSH1 0x1 PUSH1 0xA0 SHL SUB SWAP2 DUP3 AND SWAP2 AND DUP4 PUSH2 0x396D JUMP JUMPDEST PUSH1 0x40 MLOAD DUP2 DUP2 MSTORE PUSH32 0xE3630E0003FB3E9F9D835BB839022E52FFD576F9F35C395DD17517106F78CB33 SWAP1 PUSH1 0x20 ADD PUSH1 0x40 MLOAD DUP1 SWAP2 SUB SWAP1 LOG1 JUMPDEST PUSH1 0x0 PUSH1 0x23 DUP2 SWAP1 SSTORE PUSH1 0x24 DUP2 SWAP1 SSTORE PUSH1 0x22 DUP2 SWAP1 SSTORE SLOAD PUSH1 0x1 PUSH1 0x1 PUSH1 0xA0 SHL SUB AND ISZERO PUSH2 0x4275 JUMPI PUSH2 0x4270 ADDRESS PUSH2 0x4262 PUSH1 0x0 SLOAD PUSH1 0x1 PUSH1 0x1 PUSH1 0xA0 SHL SUB AND SWAP1 JUMP JUMPDEST PUSH2 0x426B ADDRESS PUSH2 0x1B92 JUMP JUMPDEST PUSH2 0x33A1 JUMP JUMPDEST PUSH2 0x4290 JUMP JUMPDEST PUSH1 0x18 SLOAD PUSH2 0x4290 SWAP1 ADDRESS SWAP1 PUSH1 0x1 PUSH1 0x1 PUSH1 0xA0 SHL SUB AND PUSH2 0x426B DUP3 PUSH2 0x1B92 JUMP JUMPDEST POP POP POP POP POP POP JUMPDEST PUSH1 0x16 DUP1 SLOAD PUSH1 0xFF NOT AND SWAP1 SSTORE JUMP JUMPDEST PUSH1 0x0 DUP1 PUSH1 0x0 DUP1 PUSH1 0x0 DUP1 PUSH2 0x42B5 DUP8 PUSH2 0x3783 JUMP JUMPDEST SWAP6 POP SWAP6 POP SWAP6 POP SWAP6 POP SWAP6 POP SWAP6 POP PUSH1 0x0 PUSH2 0x42CB PUSH2 0x3760 JUMP JUMPDEST SWAP1 POP DUP2 PUSH1 0x7 SLOAD PUSH2 0x42DB SWAP2 SWAP1 PUSH2 0x52D8 JUMP JUMPDEST PUSH1 0x7 SSTORE PUSH2 0x42E8 DUP2 DUP4 PUSH2 0x5301 JUMP JUMPDEST PUSH1 0x8 SLOAD PUSH2 0x42F5 SWAP2 SWAP1 PUSH2 0x52D8 JUMP JUMPDEST PUSH1 0x8 SSTORE PUSH1 0x40 MLOAD DUP3 DUP2 MSTORE PUSH1 0x0 SWAP1 PUSH1 0x1 PUSH1 0x1 PUSH1 0xA0 SHL SUB DUP13 AND SWAP1 PUSH1 0x0 DUP1 MLOAD PUSH1 0x20 PUSH2 0x553F DUP4 CODECOPY DUP2 MLOAD SWAP2 MSTORE SWAP1 PUSH1 0x20 ADD PUSH1 0x40 MLOAD DUP1 SWAP2 SUB SWAP1 LOG3 DUP5 PUSH1 0x22 SLOAD PUSH2 0x4335 SWAP2 SWAP1 PUSH2 0x5318 JUMP JUMPDEST PUSH1 0x22 SSTORE PUSH1 0x23 SLOAD PUSH2 0x4346 SWAP1 DUP6 SWAP1 PUSH2 0x5318 JUMP JUMPDEST PUSH1 0x23 SSTORE PUSH1 0x24 SLOAD PUSH2 0x4357 SWAP1 DUP5 SWAP1 PUSH2 0x5318 JUMP JUMPDEST PUSH1 0x24 SSTORE PUSH1 0x0 DUP4 PUSH2 0x4367 DUP7 DUP9 PUSH2 0x5318 JUMP JUMPDEST PUSH2 0x4371 SWAP2 SWAP1 PUSH2 0x5318 JUMP JUMPDEST SWAP1 POP PUSH2 0x437D DUP3 DUP3 PUSH2 0x5301 JUMP JUMPDEST ADDRESS PUSH1 0x0 SWAP1 DUP2 MSTORE PUSH1 0x2 PUSH1 0x20 MSTORE PUSH1 0x40 SWAP1 KECCAK256 SLOAD PUSH2 0x4397 SWAP2 SWAP1 PUSH2 0x5318 JUMP JUMPDEST ADDRESS PUSH1 0x0 SWAP1 DUP2 MSTORE PUSH1 0x2 PUSH1 0x20 SWAP1 DUP2 MSTORE PUSH1 0x40 DUP1 DUP4 KECCAK256 SWAP4 SWAP1 SWAP4 SSTORE PUSH1 0x5 SWAP1 MSTORE KECCAK256 SLOAD PUSH1 0xFF AND ISZERO PUSH2 0x43E7 JUMPI ADDRESS PUSH1 0x0 SWAP1 DUP2 MSTORE PUSH1 0x3 PUSH1 0x20 MSTORE PUSH1 0x40 SWAP1 KECCAK256 SLOAD PUSH2 0x43D6 SWAP1 DUP3 SWAP1 PUSH2 0x5318 JUMP JUMPDEST ADDRESS PUSH1 0x0 SWAP1 DUP2 MSTORE PUSH1 0x3 PUSH1 0x20 MSTORE PUSH1 0x40 SWAP1 KECCAK256 SSTORE JUMPDEST POP PUSH1 0x1 PUSH1 0x1 PUSH1 0xA0 SHL SUB DUP11 AND PUSH1 0x0 SWAP1 DUP2 MSTORE PUSH1 0x5 PUSH1 0x20 MSTORE PUSH1 0x40 SWAP1 KECCAK256 SLOAD PUSH1 0xFF AND DUP1 ISZERO PUSH2 0x4429 JUMPI POP PUSH1 0x1 PUSH1 0x1 PUSH1 0xA0 SHL SUB DUP10 AND PUSH1 0x0 SWAP1 DUP2 MSTORE PUSH1 0x5 PUSH1 0x20 MSTORE PUSH1 0x40 SWAP1 KECCAK256 SLOAD PUSH1 0xFF AND ISZERO JUMPDEST ISZERO PUSH2 0x44FC JUMPI PUSH1 0x1 PUSH1 0x1 PUSH1 0xA0 SHL SUB DUP11 AND PUSH1 0x0 SWAP1 DUP2 MSTORE PUSH1 0x3 PUSH1 0x20 MSTORE PUSH1 0x40 SWAP1 KECCAK256 SLOAD PUSH2 0x4452 SWAP1 DUP10 SWAP1 PUSH2 0x52D8 JUMP JUMPDEST PUSH1 0x1 PUSH1 0x1 PUSH1 0xA0 SHL SUB DUP12 AND PUSH1 0x0 SWAP1 DUP2 MSTORE PUSH1 0x3 PUSH1 0x20 MSTORE PUSH1 0x40 SWAP1 KECCAK256 SSTORE PUSH2 0x4475 DUP2 DUP10 PUSH2 0x5301 JUMP JUMPDEST PUSH1 0x1 PUSH1 0x1 PUSH1 0xA0 SHL SUB DUP12 AND PUSH1 0x0 SWAP1 DUP2 MSTORE PUSH1 0x2 PUSH1 0x20 MSTORE PUSH1 0x40 SWAP1 KECCAK256 SLOAD PUSH2 0x4498 SWAP2 SWAP1 PUSH2 0x52D8 JUMP JUMPDEST PUSH1 0x1 PUSH1 0x1 PUSH1 0xA0 SHL SUB DUP12 AND PUSH1 0x0 SWAP1 DUP2 MSTORE PUSH1 0x2 PUSH1 0x20 MSTORE PUSH1 0x40 SWAP1 KECCAK256 SSTORE PUSH2 0x44BB DUP2 DUP9 PUSH2 0x5301 JUMP JUMPDEST PUSH1 0x1 PUSH1 0x1 PUSH1 0xA0 SHL SUB DUP11 AND PUSH1 0x0 SWAP1 DUP2 MSTORE PUSH1 0x2 PUSH1 0x20 MSTORE PUSH1 0x40 SWAP1 KECCAK256 SLOAD PUSH2 0x44DE SWAP2 SWAP1 PUSH2 0x5318 JUMP JUMPDEST PUSH1 0x1 PUSH1 0x1 PUSH1 0xA0 SHL SUB DUP11 AND PUSH1 0x0 SWAP1 DUP2 MSTORE PUSH1 0x2 PUSH1 0x20 MSTORE PUSH1 0x40 SWAP1 KECCAK256 SSTORE PUSH2 0x46E2 JUMP JUMPDEST PUSH1 0x1 PUSH1 0x1 PUSH1 0xA0 SHL SUB DUP11 AND PUSH1 0x0 SWAP1 DUP2 MSTORE PUSH1 0x5 PUSH1 0x20 MSTORE PUSH1 0x40 SWAP1 KECCAK256 SLOAD PUSH1 0xFF AND ISZERO DUP1 ISZERO PUSH2 0x453D JUMPI POP PUSH1 0x1 PUSH1 0x1 PUSH1 0xA0 SHL SUB DUP10 AND PUSH1 0x0 SWAP1 DUP2 MSTORE PUSH1 0x5 PUSH1 0x20 MSTORE PUSH1 0x40 SWAP1 KECCAK256 SLOAD PUSH1 0xFF AND JUMPDEST ISZERO PUSH2 0x45C9 JUMPI PUSH2 0x454C DUP2 DUP10 PUSH2 0x5301 JUMP JUMPDEST PUSH1 0x1 PUSH1 0x1 PUSH1 0xA0 SHL SUB DUP12 AND PUSH1 0x0 SWAP1 DUP2 MSTORE PUSH1 0x2 PUSH1 0x20 MSTORE PUSH1 0x40 SWAP1 KECCAK256 SLOAD PUSH2 0x456F SWAP2 SWAP1 PUSH2 0x52D8 JUMP JUMPDEST PUSH1 0x1 PUSH1 0x1 PUSH1 0xA0 SHL SUB DUP1 DUP13 AND PUSH1 0x0 SWAP1 DUP2 MSTORE PUSH1 0x2 PUSH1 0x20 SWAP1 DUP2 MSTORE PUSH1 0x40 DUP1 DUP4 KECCAK256 SWAP5 SWAP1 SWAP5 SSTORE SWAP2 DUP13 AND DUP2 MSTORE PUSH1 0x3 SWAP1 SWAP2 MSTORE KECCAK256 SLOAD PUSH2 0x45A6 SWAP1 DUP9 SWAP1 PUSH2 0x5318 JUMP JUMPDEST PUSH1 0x1 PUSH1 0x1 PUSH1 0xA0 SHL SUB DUP11 AND PUSH1 0x0 SWAP1 DUP2 MSTORE PUSH1 0x3 PUSH1 0x20 MSTORE PUSH1 0x40 SWAP1 KECCAK256 SSTORE PUSH2 0x44BB DUP2 DUP9 PUSH2 0x5301 JUMP JUMPDEST PUSH1 0x1 PUSH1 0x1 PUSH1 0xA0 SHL SUB DUP11 AND PUSH1 0x0 SWAP1 DUP2 MSTORE PUSH1 0x5 PUSH1 0x20 MSTORE PUSH1 0x40 SWAP1 KECCAK256 SLOAD PUSH1 0xFF AND DUP1 ISZERO PUSH2 0x4609 JUMPI POP PUSH1 0x1 PUSH1 0x1 PUSH1 0xA0 SHL SUB DUP10 AND PUSH1 0x0 SWAP1 DUP2 MSTORE PUSH1 0x5 PUSH1 0x20 MSTORE PUSH1 0x40 SWAP1 KECCAK256 SLOAD PUSH1 0xFF AND JUMPDEST ISZERO PUSH2 0x4655 JUMPI PUSH1 0x1 PUSH1 0x1 PUSH1 0xA0 SHL SUB DUP11 AND PUSH1 0x0 SWAP1 DUP2 MSTORE PUSH1 0x3 PUSH1 0x20 MSTORE PUSH1 0x40 SWAP1 KECCAK256 SLOAD PUSH2 0x4632 SWAP1 DUP10 SWAP1 PUSH2 0x52D8 JUMP JUMPDEST PUSH1 0x1 PUSH1 0x1 PUSH1 0xA0 SHL SUB DUP12 AND PUSH1 0x0 SWAP1 DUP2 MSTORE PUSH1 0x3 PUSH1 0x20 MSTORE PUSH1 0x40 SWAP1 KECCAK256 SSTORE PUSH2 0x454C DUP2 DUP10 PUSH2 0x5301 JUMP JUMPDEST PUSH2 0x465F DUP2 DUP10 PUSH2 0x5301 JUMP JUMPDEST PUSH1 0x1 PUSH1 0x1 PUSH1 0xA0 SHL SUB DUP12 AND PUSH1 0x0 SWAP1 DUP2 MSTORE PUSH1 0x2 PUSH1 0x20 MSTORE PUSH1 0x40 SWAP1 KECCAK256 SLOAD PUSH2 0x4682 SWAP2 SWAP1 PUSH2 0x52D8 JUMP JUMPDEST PUSH1 0x1 PUSH1 0x1 PUSH1 0xA0 SHL SUB DUP12 AND PUSH1 0x0 SWAP1 DUP2 MSTORE PUSH1 0x2 PUSH1 0x20 MSTORE PUSH1 0x40 SWAP1 KECCAK256 SSTORE PUSH2 0x46A5 DUP2 DUP9 PUSH2 0x5301 JUMP JUMPDEST PUSH1 0x1 PUSH1 0x1 PUSH1 0xA0 SHL SUB DUP11 AND PUSH1 0x0 SWAP1 DUP2 MSTORE PUSH1 0x2 PUSH1 0x20 MSTORE PUSH1 0x40 SWAP1 KECCAK256 SLOAD PUSH2 0x46C8 SWAP2 SWAP1 PUSH2 0x5318 JUMP JUMPDEST PUSH1 0x1 PUSH1 0x1 PUSH1 0xA0 SHL SUB DUP11 AND PUSH1 0x0 SWAP1 DUP2 MSTORE PUSH1 0x2 PUSH1 0x20 MSTORE PUSH1 0x40 SWAP1 KECCAK256 SSTORE JUMPDEST PUSH2 0x46F5 PUSH2 0x46EF DUP3 DUP9 PUSH2 0x5301 JUMP JUMPDEST DUP8 PUSH2 0x4DCE JUMP JUMPDEST DUP9 PUSH1 0x1 PUSH1 0x1 PUSH1 0xA0 SHL SUB AND DUP11 PUSH1 0x1 PUSH1 0x1 PUSH1 0xA0 SHL SUB AND PUSH1 0x0 DUP1 MLOAD PUSH1 0x20 PUSH2 0x553F DUP4 CODECOPY DUP2 MLOAD SWAP2 MSTORE DUP10 PUSH1 0x40 MLOAD PUSH2 0x4728 SWAP2 DUP2 MSTORE PUSH1 0x20 ADD SWAP1 JUMP JUMPDEST PUSH1 0x40 MLOAD DUP1 SWAP2 SUB SWAP1 LOG3 POP POP POP POP POP POP POP POP POP POP JUMP JUMPDEST PUSH1 0x8 SLOAD PUSH1 0x7 SLOAD PUSH1 0x0 SWAP2 DUP3 SWAP2 DUP3 JUMPDEST PUSH1 0x6 SLOAD DUP2 LT ISZERO PUSH2 0x488E JUMPI DUP3 PUSH1 0x2 PUSH1 0x0 PUSH1 0x6 DUP5 DUP2 SLOAD DUP2 LT PUSH2 0x476B JUMPI PUSH2 0x476B PUSH2 0x52EB JUMP JUMPDEST PUSH1 0x0 SWAP2 DUP3 MSTORE PUSH1 0x20 DUP1 DUP4 KECCAK256 SWAP1 SWAP2 ADD SLOAD PUSH1 0x1 PUSH1 0x1 PUSH1 0xA0 SHL SUB AND DUP4 MSTORE DUP3 ADD SWAP3 SWAP1 SWAP3 MSTORE PUSH1 0x40 ADD SWAP1 KECCAK256 SLOAD GT DUP1 PUSH2 0x47D6 JUMPI POP DUP2 PUSH1 0x3 PUSH1 0x0 PUSH1 0x6 DUP5 DUP2 SLOAD DUP2 LT PUSH2 0x47AF JUMPI PUSH2 0x47AF PUSH2 0x52EB JUMP JUMPDEST PUSH1 0x0 SWAP2 DUP3 MSTORE PUSH1 0x20 DUP1 DUP4 KECCAK256 SWAP1 SWAP2 ADD SLOAD PUSH1 0x1 PUSH1 0x1 PUSH1 0xA0 SHL SUB AND DUP4 MSTORE DUP3 ADD SWAP3 SWAP1 SWAP3 MSTORE PUSH1 0x40 ADD SWAP1 KECCAK256 SLOAD GT JUMPDEST ISZERO PUSH2 0x47EC JUMPI PUSH1 0x8 SLOAD PUSH1 0x7 SLOAD SWAP5 POP SWAP5 POP POP POP POP SWAP1 SWAP2 JUMP JUMPDEST PUSH1 0x2 PUSH1 0x0 PUSH1 0x6 DUP4 DUP2 SLOAD DUP2 LT PUSH2 0x4803 JUMPI PUSH2 0x4803 PUSH2 0x52EB JUMP JUMPDEST PUSH1 0x0 SWAP2 DUP3 MSTORE PUSH1 0x20 DUP1 DUP4 KECCAK256 SWAP1 SWAP2 ADD SLOAD PUSH1 0x1 PUSH1 0x1 PUSH1 0xA0 SHL SUB AND DUP4 MSTORE DUP3 ADD SWAP3 SWAP1 SWAP3 MSTORE PUSH1 0x40 ADD SWAP1 KECCAK256 SLOAD PUSH2 0x4832 SWAP1 DUP5 PUSH2 0x52D8 JUMP JUMPDEST SWAP3 POP PUSH1 0x3 PUSH1 0x0 PUSH1 0x6 DUP4 DUP2 SLOAD DUP2 LT PUSH2 0x484B JUMPI PUSH2 0x484B PUSH2 0x52EB JUMP JUMPDEST PUSH1 0x0 SWAP2 DUP3 MSTORE PUSH1 0x20 DUP1 DUP4 KECCAK256 SWAP1 SWAP2 ADD SLOAD PUSH1 0x1 PUSH1 0x1 PUSH1 0xA0 SHL SUB AND DUP4 MSTORE DUP3 ADD SWAP3 SWAP1 SWAP3 MSTORE PUSH1 0x40 ADD SWAP1 KECCAK256 SLOAD PUSH2 0x487A SWAP1 DUP4 PUSH2 0x52D8 JUMP JUMPDEST SWAP2 POP DUP1 PUSH2 0x4886 DUP2 PUSH2 0x5341 JUMP JUMPDEST SWAP2 POP POP PUSH2 0x4749 JUMP JUMPDEST POP PUSH1 0x7 SLOAD PUSH1 0x8 SLOAD PUSH2 0x489F SWAP2 SWAP1 PUSH2 0x51ED JUMP JUMPDEST DUP3 LT ISZERO PUSH2 0x48B6 JUMPI PUSH1 0x8 SLOAD PUSH1 0x7 SLOAD SWAP4 POP SWAP4 POP POP POP SWAP1 SWAP2 JUMP JUMPDEST SWAP1 SWAP4 SWAP1 SWAP3 POP SWAP1 POP JUMP JUMPDEST PUSH1 0x0 PUSH2 0x3E8 PUSH1 0xC SLOAD DUP4 PUSH2 0x48D2 SWAP2 SWAP1 PUSH2 0x5301 JUMP JUMPDEST PUSH2 0xC65 SWAP2 SWAP1 PUSH2 0x51ED JUMP JUMPDEST PUSH1 0x0 PUSH2 0x3E8 PUSH1 0xE SLOAD DUP4 PUSH2 0x48D2 SWAP2 SWAP1 PUSH2 0x5301 JUMP JUMPDEST PUSH1 0x0 PUSH2 0x3E8 PUSH1 0x10 SLOAD DUP4 PUSH2 0x48D2 SWAP2 SWAP1 PUSH2 0x5301 JUMP JUMPDEST PUSH1 0x0 PUSH2 0x3E8 PUSH1 0x12 SLOAD DUP4 PUSH2 0x48D2 SWAP2 SWAP1 PUSH2 0x5301 JUMP JUMPDEST PUSH1 0x0 PUSH2 0x3E8 PUSH1 0x14 SLOAD DUP4 PUSH2 0x48D2 SWAP2 SWAP1 PUSH2 0x5301 JUMP JUMPDEST PUSH1 0x0 PUSH2 0x3E8 PUSH1 0x10 SLOAD PUSH1 0xE SLOAD PUSH1 0xC SLOAD PUSH1 0x12 SLOAD PUSH1 0x14 SLOAD PUSH2 0x3E8 PUSH2 0x4949 SWAP2 SWAP1 PUSH2 0x52D8 JUMP JUMPDEST PUSH2 0x4953 SWAP2 SWAP1 PUSH2 0x52D8 JUMP JUMPDEST PUSH2 0x495D SWAP2 SWAP1 PUSH2 0x52D8 JUMP JUMPDEST PUSH2 0x4967 SWAP2 SWAP1 PUSH2 0x52D8 JUMP JUMPDEST PUSH2 0x4971 SWAP2 SWAP1 PUSH2 0x52D8 JUMP JUMPDEST PUSH2 0x48D2 SWAP1 DUP5 PUSH2 0x5301 JUMP JUMPDEST PUSH1 0x0 PUSH2 0x49D0 DUP3 PUSH1 0x40 MLOAD DUP1 PUSH1 0x40 ADD PUSH1 0x40 MSTORE DUP1 PUSH1 0x20 DUP2 MSTORE PUSH1 0x20 ADD PUSH32 0x5361666545524332303A206C6F772D6C6576656C2063616C6C206661696C6564 DUP2 MSTORE POP DUP6 PUSH1 0x1 PUSH1 0x1 PUSH1 0xA0 SHL SUB AND PUSH2 0x4DF4 SWAP1 SWAP3 SWAP2 SWAP1 PUSH4 0xFFFFFFFF AND JUMP JUMPDEST DUP1 MLOAD SWAP1 SWAP2 POP ISZERO PUSH2 0x39D0 JUMPI DUP1 DUP1 PUSH1 0x20 ADD SWAP1 MLOAD DUP2 ADD SWAP1 PUSH2 0x49EE SWAP2 SWAP1 PUSH2 0x53CA JUMP JUMPDEST PUSH2 0x39D0 JUMPI PUSH1 0x40 MLOAD PUSH3 0x461BCD PUSH1 0xE5 SHL DUP2 MSTORE PUSH1 0x20 PUSH1 0x4 DUP3 ADD MSTORE PUSH1 0x2A PUSH1 0x24 DUP3 ADD MSTORE PUSH32 0x5361666545524332303A204552433230206F7065726174696F6E20646964206E PUSH1 0x44 DUP3 ADD MSTORE PUSH10 0x1BDD081CDD58D8D95959 PUSH1 0xB2 SHL PUSH1 0x64 DUP3 ADD MSTORE PUSH1 0x84 ADD PUSH2 0xC95 JUMP JUMPDEST PUSH1 0x40 DUP1 MLOAD PUSH1 0x2 DUP1 DUP3 MSTORE PUSH1 0x60 DUP3 ADD DUP4 MSTORE PUSH1 0x0 SWAP3 PUSH1 0x20 DUP4 ADD SWAP1 DUP1 CALLDATASIZE DUP4 CALLDATACOPY ADD SWAP1 POP POP SWAP1 POP ADDRESS DUP2 PUSH1 0x0 DUP2 MLOAD DUP2 LT PUSH2 0x4A82 JUMPI PUSH2 0x4A82 PUSH2 0x52EB JUMP JUMPDEST PUSH1 0x1 PUSH1 0x1 PUSH1 0xA0 SHL SUB SWAP3 DUP4 AND PUSH1 0x20 SWAP2 DUP3 MUL SWAP3 SWAP1 SWAP3 ADD ADD MSTORE PUSH1 0x1 DUP1 SLOAD DUP4 MLOAD SWAP3 AND SWAP2 DUP4 SWAP2 SWAP1 DUP2 LT PUSH2 0x4AB2 JUMPI PUSH2 0x4AB2 PUSH2 0x52EB JUMP JUMPDEST PUSH1 0x1 PUSH1 0x1 PUSH1 0xA0 SHL SUB SWAP3 DUP4 AND PUSH1 0x20 SWAP2 DUP3 MUL SWAP3 SWAP1 SWAP3 ADD DUP2 ADD SWAP2 SWAP1 SWAP2 MSTORE PUSH1 0x1D SLOAD PUSH1 0x40 DUP1 MLOAD PUSH4 0x15AB88C9 PUSH1 0xE3 SHL DUP2 MSTORE SWAP1 MLOAD SWAP2 SWAP1 SWAP4 AND SWAP3 PUSH4 0xAD5C4648 SWAP3 PUSH1 0x4 DUP1 DUP4 ADD SWAP4 SWAP2 SWAP3 DUP3 SWAP1 SUB ADD DUP2 DUP7 GAS STATICCALL ISZERO DUP1 ISZERO PUSH2 0x4B0B JUMPI RETURNDATASIZE PUSH1 0x0 DUP1 RETURNDATACOPY RETURNDATASIZE PUSH1 0x0 REVERT JUMPDEST POP POP POP POP PUSH1 0x40 MLOAD RETURNDATASIZE PUSH1 0x1F NOT PUSH1 0x1F DUP3 ADD AND DUP3 ADD DUP1 PUSH1 0x40 MSTORE POP DUP2 ADD SWAP1 PUSH2 0x4B2F SWAP2 SWAP1 PUSH2 0x53AD JUMP JUMPDEST PUSH1 0x1 PUSH1 0x1 PUSH1 0xA0 SHL SUB AND DUP2 PUSH1 0x1 DUP2 MLOAD DUP2 LT PUSH2 0x4B4B JUMPI PUSH2 0x4B4B PUSH2 0x52EB JUMP JUMPDEST PUSH1 0x20 MUL PUSH1 0x20 ADD ADD MLOAD PUSH1 0x1 PUSH1 0x1 PUSH1 0xA0 SHL SUB AND SUB PUSH2 0x4BD0 JUMPI PUSH1 0x1D SLOAD PUSH1 0x40 MLOAD PUSH4 0x791AC947 PUSH1 0xE0 SHL DUP2 MSTORE PUSH1 0x1 PUSH1 0x1 PUSH1 0xA0 SHL SUB SWAP1 SWAP2 AND SWAP1 PUSH4 0x791AC947 SWAP1 PUSH2 0x4B9A SWAP1 DUP6 SWAP1 PUSH1 0x0 SWAP1 DUP7 SWAP1 ADDRESS SWAP1 TIMESTAMP SWAP1 PUSH1 0x4 ADD PUSH2 0x5479 JUMP JUMPDEST PUSH1 0x0 PUSH1 0x40 MLOAD DUP1 DUP4 SUB DUP2 PUSH1 0x0 DUP8 DUP1 EXTCODESIZE ISZERO DUP1 ISZERO PUSH2 0x4BB4 JUMPI PUSH1 0x0 DUP1 REVERT JUMPDEST POP GAS CALL ISZERO DUP1 ISZERO PUSH2 0x4BC8 JUMPI RETURNDATASIZE PUSH1 0x0 DUP1 RETURNDATACOPY RETURNDATASIZE PUSH1 0x0 REVERT JUMPDEST POP POP POP POP POP POP JUMP JUMPDEST PUSH1 0x1C SLOAD PUSH1 0x1D SLOAD PUSH1 0x40 MLOAD PUSH4 0x7274CA1B PUSH1 0xE1 SHL DUP2 MSTORE PUSH1 0x1 PUSH1 0x1 PUSH1 0xA0 SHL SUB SWAP3 DUP4 AND SWAP3 PUSH4 0xE4E99436 SWAP3 PUSH2 0x4B9A SWAP3 SWAP2 AND SWAP1 DUP7 SWAP1 PUSH1 0x0 SWAP1 DUP8 SWAP1 TIMESTAMP SWAP1 PUSH1 0x4 ADD PUSH2 0x54B5 JUMP JUMPDEST PUSH1 0x1D PUSH1 0x0 SWAP1 SLOAD SWAP1 PUSH2 0x100 EXP SWAP1 DIV PUSH1 0x1 PUSH1 0x1 PUSH1 0xA0 SHL SUB AND PUSH1 0x1 PUSH1 0x1 PUSH1 0xA0 SHL SUB AND PUSH4 0xAD5C4648 PUSH1 0x40 MLOAD DUP2 PUSH4 0xFFFFFFFF AND PUSH1 0xE0 SHL DUP2 MSTORE PUSH1 0x4 ADD PUSH1 0x20 PUSH1 0x40 MLOAD DUP1 DUP4 SUB DUP2 DUP7 GAS STATICCALL ISZERO DUP1 ISZERO PUSH2 0x4C60 JUMPI RETURNDATASIZE PUSH1 0x0 DUP1 RETURNDATACOPY RETURNDATASIZE PUSH1 0x0 REVERT JUMPDEST POP POP POP POP PUSH1 0x40 MLOAD RETURNDATASIZE PUSH1 0x1F NOT PUSH1 0x1F DUP3 ADD AND DUP3 ADD DUP1 PUSH1 0x40 MSTORE POP DUP2 ADD SWAP1 PUSH2 0x4C84 SWAP2 SWAP1 PUSH2 0x53AD JUMP JUMPDEST PUSH1 0x1 SLOAD PUSH1 0x1 PUSH1 0x1 PUSH1 0xA0 SHL SUB SWAP2 DUP3 AND SWAP2 AND SUB PUSH2 0x4D2C JUMPI PUSH1 0x1D SLOAD PUSH1 0x40 MLOAD PUSH4 0xF305D719 PUSH1 0xE0 SHL DUP2 MSTORE ADDRESS PUSH1 0x4 DUP3 ADD MSTORE PUSH1 0x24 DUP2 ADD DUP5 SWAP1 MSTORE PUSH1 0x0 PUSH1 0x44 DUP3 ADD DUP2 SWAP1 MSTORE PUSH1 0x64 DUP3 ADD MSTORE PUSH2 0xDEAD PUSH1 0x84 DUP3 ADD MSTORE TIMESTAMP PUSH1 0xA4 DUP3 ADD MSTORE PUSH1 0x1 PUSH1 0x1 PUSH1 0xA0 SHL SUB SWAP1 SWAP2 AND SWAP1 PUSH4 0xF305D719 SWAP1 DUP4 SWAP1 PUSH1 0xC4 ADD PUSH1 0x60 PUSH1 0x40 MLOAD DUP1 DUP4 SUB DUP2 DUP6 DUP9 GAS CALL ISZERO DUP1 ISZERO PUSH2 0x4D07 JUMPI RETURNDATASIZE PUSH1 0x0 DUP1 RETURNDATACOPY RETURNDATASIZE PUSH1 0x0 REVERT JUMPDEST POP POP POP POP POP PUSH1 0x40 MLOAD RETURNDATASIZE PUSH1 0x1F NOT PUSH1 0x1F DUP3 ADD AND DUP3 ADD DUP1 PUSH1 0x40 MSTORE POP DUP2 ADD SWAP1 PUSH2 0x3759 SWAP2 SWAP1 PUSH2 0x54F4 JUMP JUMPDEST PUSH1 0x1D SLOAD PUSH1 0x1 SLOAD PUSH1 0x40 MLOAD PUSH3 0xE8E337 PUSH1 0xE8 SHL DUP2 MSTORE ADDRESS PUSH1 0x4 DUP3 ADD MSTORE PUSH1 0x1 PUSH1 0x1 PUSH1 0xA0 SHL SUB SWAP2 DUP3 AND PUSH1 0x24 DUP3 ADD MSTORE PUSH1 0x44 DUP2 ADD DUP6 SWAP1 MSTORE PUSH1 0x64 DUP2 ADD DUP5 SWAP1 MSTORE PUSH1 0x0 PUSH1 0x84 DUP3 ADD DUP2 SWAP1 MSTORE PUSH1 0xA4 DUP3 ADD MSTORE PUSH2 0xDEAD PUSH1 0xC4 DUP3 ADD MSTORE TIMESTAMP PUSH1 0xE4 DUP3 ADD MSTORE SWAP2 AND SWAP1 PUSH4 0xE8E33700 SWAP1 PUSH2 0x104 ADD PUSH1 0x60 PUSH1 0x40 MLOAD DUP1 DUP4 SUB DUP2 PUSH1 0x0 DUP8 GAS CALL ISZERO DUP1 ISZERO PUSH2 0x4DAA JUMPI RETURNDATASIZE PUSH1 0x0 DUP1 RETURNDATACOPY RETURNDATASIZE PUSH1 0x0 REVERT JUMPDEST POP POP POP POP PUSH1 0x40 MLOAD RETURNDATASIZE PUSH1 0x1F NOT PUSH1 0x1F DUP3 ADD AND DUP3 ADD DUP1 PUSH1 0x40 MSTORE POP DUP2 ADD SWAP1 PUSH2 0x3759 SWAP2 SWAP1 PUSH2 0x54F4 JUMP JUMPDEST DUP2 PUSH1 0x8 SLOAD PUSH2 0x4DDC SWAP2 SWAP1 PUSH2 0x52D8 JUMP JUMPDEST PUSH1 0x8 SSTORE PUSH1 0x9 SLOAD PUSH2 0x4DED SWAP1 DUP3 SWAP1 PUSH2 0x5318 JUMP JUMPDEST PUSH1 0x9 SSTORE POP POP JUMP JUMPDEST PUSH1 0x60 PUSH2 0x4E03 DUP5 DUP5 PUSH1 0x0 DUP6 PUSH2 0x4E0B JUMP JUMPDEST SWAP5 SWAP4 POP POP POP POP JUMP JUMPDEST PUSH1 0x60 DUP3 SELFBALANCE LT ISZERO PUSH2 0x4E6C JUMPI PUSH1 0x40 MLOAD PUSH3 0x461BCD PUSH1 0xE5 SHL DUP2 MSTORE PUSH1 0x20 PUSH1 0x4 DUP3 ADD MSTORE PUSH1 0x26 PUSH1 0x24 DUP3 ADD MSTORE PUSH32 0x416464726573733A20696E73756666696369656E742062616C616E636520666F PUSH1 0x44 DUP3 ADD MSTORE PUSH6 0x1C8818D85B1B PUSH1 0xD2 SHL PUSH1 0x64 DUP3 ADD MSTORE PUSH1 0x84 ADD PUSH2 0xC95 JUMP JUMPDEST PUSH1 0x1 PUSH1 0x1 PUSH1 0xA0 SHL SUB DUP6 AND EXTCODESIZE PUSH2 0x4EC3 JUMPI PUSH1 0x40 MLOAD PUSH3 0x461BCD PUSH1 0xE5 SHL DUP2 MSTORE PUSH1 0x20 PUSH1 0x4 DUP3 ADD MSTORE PUSH1 0x1D PUSH1 0x24 DUP3 ADD MSTORE PUSH32 0x416464726573733A2063616C6C20746F206E6F6E2D636F6E7472616374000000 PUSH1 0x44 DUP3 ADD MSTORE PUSH1 0x64 ADD PUSH2 0xC95 JUMP JUMPDEST PUSH1 0x0 DUP1 DUP7 PUSH1 0x1 PUSH1 0x1 PUSH1 0xA0 SHL SUB AND DUP6 DUP8 PUSH1 0x40 MLOAD PUSH2 0x4EDF SWAP2 SWAP1 PUSH2 0x5522 JUMP JUMPDEST PUSH1 0x0 PUSH1 0x40 MLOAD DUP1 DUP4 SUB DUP2 DUP6 DUP8 GAS CALL SWAP3 POP POP POP RETURNDATASIZE DUP1 PUSH1 0x0 DUP2 EQ PUSH2 0x4F1C JUMPI PUSH1 0x40 MLOAD SWAP2 POP PUSH1 0x1F NOT PUSH1 0x3F RETURNDATASIZE ADD AND DUP3 ADD PUSH1 0x40 MSTORE RETURNDATASIZE DUP3 MSTORE RETURNDATASIZE PUSH1 0x0 PUSH1 0x20 DUP5 ADD RETURNDATACOPY PUSH2 0x4F21 JUMP JUMPDEST PUSH1 0x60 SWAP2 POP JUMPDEST POP SWAP2 POP SWAP2 POP PUSH2 0x4F31 DUP3 DUP3 DUP7 PUSH2 0x4F3C JUMP JUMPDEST SWAP8 SWAP7 POP POP POP POP POP POP POP JUMP JUMPDEST PUSH1 0x60 DUP4 ISZERO PUSH2 0x4F4B JUMPI POP DUP2 PUSH2 0xF94 JUMP JUMPDEST DUP3 MLOAD ISZERO PUSH2 0x4F5B JUMPI DUP3 MLOAD DUP1 DUP5 PUSH1 0x20 ADD REVERT JUMPDEST DUP2 PUSH1 0x40 MLOAD PUSH3 0x461BCD PUSH1 0xE5 SHL DUP2 MSTORE PUSH1 0x4 ADD PUSH2 0xC95 SWAP2 SWAP1 PUSH2 0x4F99 JUMP JUMPDEST PUSH1 0x0 JUMPDEST DUP4 DUP2 LT ISZERO PUSH2 0x4F90 JUMPI DUP2 DUP2 ADD MLOAD DUP4 DUP3 ADD MSTORE PUSH1 0x20 ADD PUSH2 0x4F78 JUMP JUMPDEST POP POP PUSH1 0x0 SWAP2 ADD MSTORE JUMP JUMPDEST PUSH1 0x20 DUP2 MSTORE PUSH1 0x0 DUP3 MLOAD DUP1 PUSH1 0x20 DUP5 ADD MSTORE PUSH2 0x4FB8 DUP2 PUSH1 0x40 DUP6 ADD PUSH1 0x20 DUP8 ADD PUSH2 0x4F75 JUMP JUMPDEST PUSH1 0x1F ADD PUSH1 0x1F NOT AND SWAP2 SWAP1 SWAP2 ADD PUSH1 0x40 ADD SWAP3 SWAP2 POP POP JUMP JUMPDEST PUSH1 0x1 PUSH1 0x1 PUSH1 0xA0 SHL SUB DUP2 AND DUP2 EQ PUSH2 0x1B8F JUMPI PUSH1 0x0 DUP1 REVERT JUMPDEST PUSH1 0x0 DUP1 PUSH1 0x40 DUP4 DUP6 SUB SLT ISZERO PUSH2 0x4FF4 JUMPI PUSH1 0x0 DUP1 REVERT JUMPDEST DUP3 CALLDATALOAD PUSH2 0x4FFF DUP2 PUSH2 0x4FCC JUMP JUMPDEST SWAP5 PUSH1 0x20 SWAP4 SWAP1 SWAP4 ADD CALLDATALOAD SWAP4 POP POP POP JUMP JUMPDEST PUSH1 0x0 PUSH1 0x20 DUP3 DUP5 SUB SLT ISZERO PUSH2 0x501F JUMPI PUSH1 0x0 DUP1 REVERT JUMPDEST POP CALLDATALOAD SWAP2 SWAP1 POP JUMP JUMPDEST DUP1 CALLDATALOAD PUSH2 0xFFFF DUP2 AND DUP2 EQ PUSH2 0x5038 JUMPI PUSH1 0x0 DUP1 REVERT JUMPDEST SWAP2 SWAP1 POP JUMP JUMPDEST PUSH1 0x0 DUP1 PUSH1 0x40 DUP4 DUP6 SUB SLT ISZERO PUSH2 0x5050 JUMPI PUSH1 0x0 DUP1 REVERT JUMPDEST PUSH2 0x5059 DUP4 PUSH2 0x5026 JUMP JUMPDEST SWAP2 POP PUSH2 0x5067 PUSH1 0x20 DUP5 ADD PUSH2 0x5026 JUMP JUMPDEST SWAP1 POP SWAP3 POP SWAP3 SWAP1 POP JUMP JUMPDEST PUSH1 0x0 DUP1 PUSH1 0x0 PUSH1 0x60 DUP5 DUP7 SUB SLT ISZERO PUSH2 0x5085 JUMPI PUSH1 0x0 DUP1 REVERT JUMPDEST DUP4 CALLDATALOAD PUSH2 0x5090 DUP2 PUSH2 0x4FCC JUMP JUMPDEST SWAP3 POP PUSH1 0x20 DUP5 ADD CALLDATALOAD PUSH2 0x50A0 DUP2 PUSH2 0x4FCC JUMP JUMPDEST SWAP3 SWAP6 SWAP3 SWAP5 POP POP POP PUSH1 0x40 SWAP2 SWAP1 SWAP2 ADD CALLDATALOAD SWAP1 JUMP JUMPDEST DUP1 ISZERO ISZERO DUP2 EQ PUSH2 0x1B8F JUMPI PUSH1 0x0 DUP1 REVERT JUMPDEST PUSH1 0x0 DUP1 PUSH1 0x40 DUP4 DUP6 SUB SLT ISZERO PUSH2 0x50D2 JUMPI PUSH1 0x0 DUP1 REVERT JUMPDEST DUP3 CALLDATALOAD PUSH2 0x50DD DUP2 PUSH2 0x4FCC JUMP JUMPDEST SWAP2 POP PUSH1 0x20 DUP4 ADD CALLDATALOAD PUSH2 0x50ED DUP2 PUSH2 0x50B1 JUMP JUMPDEST DUP1 SWAP2 POP POP SWAP3 POP SWAP3 SWAP1 POP JUMP JUMPDEST PUSH1 0x0 PUSH1 0x20 DUP3 DUP5 SUB SLT ISZERO PUSH2 0x510A JUMPI PUSH1 0x0 DUP1 REVERT JUMPDEST DUP2 CALLDATALOAD PUSH2 0xF94 DUP2 PUSH2 0x4FCC JUMP JUMPDEST PUSH1 0x0 DUP1 PUSH1 0x40 DUP4 DUP6 SUB SLT ISZERO PUSH2 0x5128 JUMPI PUSH1 0x0 DUP1 REVERT JUMPDEST DUP3 CALLDATALOAD SWAP2 POP PUSH1 0x20 DUP4 ADD CALLDATALOAD PUSH2 0x50ED DUP2 PUSH2 0x50B1 JUMP JUMPDEST PUSH1 0x0 DUP1 PUSH1 0x40 DUP4 DUP6 SUB SLT ISZERO PUSH2 0x514D JUMPI PUSH1 0x0 DUP1 REVERT JUMPDEST DUP3 CALLDATALOAD PUSH2 0x5158 DUP2 PUSH2 0x4FCC JUMP JUMPDEST SWAP2 POP PUSH1 0x20 DUP4 ADD CALLDATALOAD PUSH2 0x50ED DUP2 PUSH2 0x4FCC JUMP JUMPDEST PUSH1 0x1 DUP2 DUP2 SHR SWAP1 DUP3 AND DUP1 PUSH2 0x517C JUMPI PUSH1 0x7F DUP3 AND SWAP2 POP JUMPDEST PUSH1 0x20 DUP3 LT DUP2 SUB PUSH2 0x519C JUMPI PUSH4 0x4E487B71 PUSH1 0xE0 SHL PUSH1 0x0 MSTORE PUSH1 0x22 PUSH1 0x4 MSTORE PUSH1 0x24 PUSH1 0x0 REVERT JUMPDEST POP SWAP2 SWAP1 POP JUMP JUMPDEST PUSH1 0x20 DUP1 DUP3 MSTORE DUP2 DUP2 ADD MSTORE PUSH32 0x4F776E61626C653A2063616C6C6572206973206E6F7420746865206F776E6572 PUSH1 0x40 DUP3 ADD MSTORE PUSH1 0x60 ADD SWAP1 JUMP JUMPDEST PUSH4 0x4E487B71 PUSH1 0xE0 SHL PUSH1 0x0 MSTORE PUSH1 0x11 PUSH1 0x4 MSTORE PUSH1 0x24 PUSH1 0x0 REVERT JUMPDEST PUSH1 0x0 DUP3 PUSH2 0x520A JUMPI PUSH4 0x4E487B71 PUSH1 0xE0 SHL PUSH1 0x0 MSTORE PUSH1 0x12 PUSH1 0x4 MSTORE PUSH1 0x24 PUSH1 0x0 REVERT JUMPDEST POP DIV SWAP1 JUMP JUMPDEST PUSH2 0xFFFF DUP2 DUP2 AND DUP4 DUP3 AND ADD SWAP1 DUP1 DUP3 GT ISZERO PUSH2 0x140E JUMPI PUSH2 0x140E PUSH2 0x51D7 JUMP JUMPDEST PUSH1 0x20 DUP1 DUP3 MSTORE PUSH1 0x15 SWAP1 DUP3 ADD MSTORE PUSH21 0x73656C6C20746F74616C20666565203C3D20333025 PUSH1 0x58 SHL PUSH1 0x40 DUP3 ADD MSTORE PUSH1 0x60 ADD SWAP1 JUMP JUMPDEST PUSH1 0x20 DUP1 DUP3 MSTORE PUSH1 0x14 SWAP1 DUP3 ADD MSTORE PUSH20 0x62757920746F74616C20666565203C3D20333025 PUSH1 0x60 SHL PUSH1 0x40 DUP3 ADD MSTORE PUSH1 0x60 ADD SWAP1 JUMP JUMPDEST PUSH1 0x20 DUP1 DUP3 MSTORE PUSH1 0xF SWAP1 DUP3 ADD MSTORE PUSH15 0x73656C6C20666565203C3D20313525 PUSH1 0x88 SHL PUSH1 0x40 DUP3 ADD MSTORE PUSH1 0x60 ADD SWAP1 JUMP JUMPDEST PUSH1 0x20 DUP1 DUP3 MSTORE PUSH1 0xE SWAP1 DUP3 ADD MSTORE PUSH14 0x62757920666565203C3D20313525 PUSH1 0x90 SHL PUSH1 0x40 DUP3 ADD MSTORE PUSH1 0x60 ADD SWAP1 JUMP JUMPDEST DUP2 DUP2 SUB DUP2 DUP2 GT ISZERO PUSH2 0xC65 JUMPI PUSH2 0xC65 PUSH2 0x51D7 JUMP JUMPDEST PUSH4 0x4E487B71 PUSH1 0xE0 SHL PUSH1 0x0 MSTORE PUSH1 0x32 PUSH1 0x4 MSTORE PUSH1 0x24 PUSH1 0x0 REVERT JUMPDEST DUP1 DUP3 MUL DUP2 ISZERO DUP3 DUP3 DIV DUP5 EQ OR PUSH2 0xC65 JUMPI PUSH2 0xC65 PUSH2 0x51D7 JUMP JUMPDEST DUP1 DUP3 ADD DUP1 DUP3 GT ISZERO PUSH2 0xC65 JUMPI PUSH2 0xC65 PUSH2 0x51D7 JUMP JUMPDEST PUSH4 0x4E487B71 PUSH1 0xE0 SHL PUSH1 0x0 MSTORE PUSH1 0x31 PUSH1 0x4 MSTORE PUSH1 0x24 PUSH1 0x0 REVERT JUMPDEST PUSH1 0x0 PUSH1 0x1 DUP3 ADD PUSH2 0x5353 JUMPI PUSH2 0x5353 PUSH2 0x51D7 JUMP JUMPDEST POP PUSH1 0x1 ADD SWAP1 JUMP JUMPDEST PUSH1 0x20 DUP1 DUP3 MSTORE PUSH1 0x33 SWAP1 DUP3 ADD MSTORE PUSH32 0x6D61726B6574696E672077616C6C65742063616E27742062652073616D652077 PUSH1 0x40 DUP3 ADD MSTORE PUSH19 0x1A5D1A08151C99585CDD5C9E481DD85B1B195D PUSH1 0x6A SHL PUSH1 0x60 DUP3 ADD MSTORE PUSH1 0x80 ADD SWAP1 JUMP JUMPDEST PUSH1 0x0 PUSH1 0x20 DUP3 DUP5 SUB SLT ISZERO PUSH2 0x53BF JUMPI PUSH1 0x0 DUP1 REVERT JUMPDEST DUP2 MLOAD PUSH2 0xF94 DUP2 PUSH2 0x4FCC JUMP JUMPDEST PUSH1 0x0 PUSH1 0x20 DUP3 DUP5 SUB SLT ISZERO PUSH2 0x53DC JUMPI PUSH1 0x0 DUP1 REVERT JUMPDEST DUP2 MLOAD PUSH2 0xF94 DUP2 PUSH2 0x50B1 JUMP JUMPDEST PUSH1 0x0 PUSH1 0x20 DUP3 DUP5 SUB SLT ISZERO PUSH2 0x53F9 JUMPI PUSH1 0x0 DUP1 REVERT JUMPDEST POP MLOAD SWAP2 SWAP1 POP JUMP JUMPDEST PUSH1 0x0 DUP2 MLOAD DUP1 DUP5 MSTORE PUSH1 0x20 DUP1 DUP6 ADD SWAP5 POP DUP1 DUP5 ADD PUSH1 0x0 JUMPDEST DUP4 DUP2 LT ISZERO PUSH2 0x5439 JUMPI DUP2 MLOAD PUSH1 0x1 PUSH1 0x1 PUSH1 0xA0 SHL SUB AND DUP8 MSTORE SWAP6 DUP3 ADD SWAP6 SWAP1 DUP3 ADD SWAP1 PUSH1 0x1 ADD PUSH2 0x5414 JUMP JUMPDEST POP SWAP5 SWAP6 SWAP5 POP POP POP POP POP JUMP JUMPDEST DUP5 DUP2 MSTORE PUSH1 0x80 PUSH1 0x20 DUP3 ADD MSTORE PUSH1 0x0 PUSH2 0x545D PUSH1 0x80 DUP4 ADD DUP7 PUSH2 0x5400 JUMP JUMPDEST PUSH1 0x1 PUSH1 0x1 PUSH1 0xA0 SHL SUB SWAP5 SWAP1 SWAP5 AND PUSH1 0x40 DUP4 ADD MSTORE POP PUSH1 0x60 ADD MSTORE SWAP3 SWAP2 POP POP JUMP JUMPDEST DUP6 DUP2 MSTORE DUP5 PUSH1 0x20 DUP3 ADD MSTORE PUSH1 0xA0 PUSH1 0x40 DUP3 ADD MSTORE PUSH1 0x0 PUSH2 0x5498 PUSH1 0xA0 DUP4 ADD DUP7 PUSH2 0x5400 JUMP JUMPDEST PUSH1 0x1 PUSH1 0x1 PUSH1 0xA0 SHL SUB SWAP5 SWAP1 SWAP5 AND PUSH1 0x60 DUP4 ADD MSTORE POP PUSH1 0x80 ADD MSTORE SWAP4 SWAP3 POP POP POP JUMP JUMPDEST PUSH1 0x1 DUP1 PUSH1 0xA0 SHL SUB DUP7 AND DUP2 MSTORE DUP5 PUSH1 0x20 DUP3 ADD MSTORE DUP4 PUSH1 0x40 DUP3 ADD MSTORE PUSH1 0xA0 PUSH1 0x60 DUP3 ADD MSTORE PUSH1 0x0 PUSH2 0x54E2 PUSH1 0xA0 DUP4 ADD DUP6 PUSH2 0x5400 JUMP JUMPDEST SWAP1 POP DUP3 PUSH1 0x80 DUP4 ADD MSTORE SWAP7 SWAP6 POP POP POP POP POP POP JUMP JUMPDEST PUSH1 0x0 DUP1 PUSH1 0x0 PUSH1 0x60 DUP5 DUP7 SUB SLT ISZERO PUSH2 0x5509 JUMPI PUSH1 0x0 DUP1 REVERT JUMPDEST DUP4 MLOAD SWAP3 POP PUSH1 0x20 DUP5 ADD MLOAD SWAP2 POP PUSH1 0x40 DUP5 ADD MLOAD SWAP1 POP SWAP3 POP SWAP3 POP SWAP3 JUMP JUMPDEST PUSH1 0x0 DUP3 MLOAD PUSH2 0x5534 DUP2 DUP5 PUSH1 0x20 DUP8 ADD PUSH2 0x4F75 JUMP JUMPDEST SWAP2 SWAP1 SWAP2 ADD SWAP3 SWAP2 POP POP JUMP INVALID 0xDD CALLCODE MSTORE 0xAD SHL 0xE2 0xC8 SWAP12 PUSH10 0xC2B068FC378DAA952BA7 CALL PUSH4 0xC4A11628 CREATE2 GAS 0x4D CREATE2 0x23 0xB3 0xEF LOG2 PUSH5 0x6970667358 0x22 SLT KECCAK256 SWAP4 0x2B PUSH16 0xBD3CB488D10F7DF5D3EF415D64BB4584 0xC1 0xC7 PUSH4 0xCF17F7A 0xB7 0x2D ISZERO 0x1F BASEFEE 0xA6 PUSH5 0x736F6C6343 STOP ADDMOD SLT STOP CALLER PUSH1 0x80 PUSH1 0x40 MSTORE CALLVALUE DUP1 ISZERO PUSH2 0x10 JUMPI PUSH1 0x0 DUP1 REVERT JUMPDEST POP PUSH2 0x61B DUP1 PUSH2 0x20 PUSH1 0x0 CODECOPY PUSH1 0x0 RETURN INVALID PUSH1 0x80 PUSH1 0x40 MSTORE CALLVALUE DUP1 ISZERO PUSH2 0x10 JUMPI PUSH1 0x0 DUP1 REVERT JUMPDEST POP PUSH1 0x4 CALLDATASIZE LT PUSH2 0x2B JUMPI PUSH1 0x0 CALLDATALOAD PUSH1 0xE0 SHR DUP1 PUSH4 0xE4E99436 EQ PUSH2 0x30 JUMPI JUMPDEST PUSH1 0x0 DUP1 REVERT JUMPDEST PUSH2 0x43 PUSH2 0x3E CALLDATASIZE PUSH1 0x4 PUSH2 0x438 JUMP JUMPDEST PUSH2 0x45 JUMP JUMPDEST STOP JUMPDEST PUSH1 0x0 DUP4 DUP4 PUSH2 0x54 PUSH1 0x1 DUP3 PUSH2 0x4DA JUMP JUMPDEST DUP2 DUP2 LT PUSH2 0x63 JUMPI PUSH2 0x63 PUSH2 0x501 JUMP JUMPDEST SWAP1 POP PUSH1 0x20 MUL ADD PUSH1 0x20 DUP2 ADD SWAP1 PUSH2 0x78 SWAP2 SWAP1 PUSH2 0x517 JUMP JUMPDEST PUSH1 0x40 MLOAD PUSH4 0x70A08231 PUSH1 0xE0 SHL DUP2 MSTORE ADDRESS PUSH1 0x4 DUP3 ADD MSTORE PUSH1 0x1 PUSH1 0x1 PUSH1 0xA0 SHL SUB SWAP2 SWAP1 SWAP2 AND SWAP1 PUSH4 0x70A08231 SWAP1 PUSH1 0x24 ADD PUSH1 0x20 PUSH1 0x40 MLOAD DUP1 DUP4 SUB DUP2 DUP7 GAS STATICCALL ISZERO DUP1 ISZERO PUSH2 0xBE JUMPI RETURNDATASIZE PUSH1 0x0 DUP1 RETURNDATACOPY RETURNDATASIZE PUSH1 0x0 REVERT JUMPDEST POP POP POP POP PUSH1 0x40 MLOAD RETURNDATASIZE PUSH1 0x1F NOT PUSH1 0x1F DUP3 ADD AND DUP3 ADD DUP1 PUSH1 0x40 MSTORE POP DUP2 ADD SWAP1 PUSH2 0xE2 SWAP2 SWAP1 PUSH2 0x539 JUMP JUMPDEST SWAP1 POP DUP4 DUP4 PUSH1 0x0 DUP2 DUP2 LT PUSH2 0xF7 JUMPI PUSH2 0xF7 PUSH2 0x501 JUMP JUMPDEST SWAP1 POP PUSH1 0x20 MUL ADD PUSH1 0x20 DUP2 ADD SWAP1 PUSH2 0x10C SWAP2 SWAP1 PUSH2 0x517 JUMP JUMPDEST PUSH1 0x40 MLOAD PUSH4 0x23B872DD PUSH1 0xE0 SHL DUP2 MSTORE CALLER PUSH1 0x4 DUP3 ADD MSTORE ADDRESS PUSH1 0x24 DUP3 ADD MSTORE PUSH1 0x44 DUP2 ADD DUP9 SWAP1 MSTORE PUSH1 0x1 PUSH1 0x1 PUSH1 0xA0 SHL SUB SWAP2 SWAP1 SWAP2 AND SWAP1 PUSH4 0x23B872DD SWAP1 PUSH1 0x64 ADD PUSH1 0x20 PUSH1 0x40 MLOAD DUP1 DUP4 SUB DUP2 PUSH1 0x0 DUP8 GAS CALL ISZERO DUP1 ISZERO PUSH2 0x161 JUMPI RETURNDATASIZE PUSH1 0x0 DUP1 RETURNDATACOPY RETURNDATASIZE PUSH1 0x0 REVERT JUMPDEST POP POP POP POP PUSH1 0x40 MLOAD RETURNDATASIZE PUSH1 0x1F NOT PUSH1 0x1F DUP3 ADD AND DUP3 ADD DUP1 PUSH1 0x40 MSTORE POP DUP2 ADD SWAP1 PUSH2 0x185 SWAP2 SWAP1 PUSH2 0x552 JUMP JUMPDEST POP DUP4 DUP4 PUSH1 0x0 DUP2 DUP2 LT PUSH2 0x199 JUMPI PUSH2 0x199 PUSH2 0x501 JUMP JUMPDEST SWAP1 POP PUSH1 0x20 MUL ADD PUSH1 0x20 DUP2 ADD SWAP1 PUSH2 0x1AE SWAP2 SWAP1 PUSH2 0x517 JUMP JUMPDEST PUSH1 0x40 MLOAD PUSH4 0x95EA7B3 PUSH1 0xE0 SHL DUP2 MSTORE PUSH1 0x1 PUSH1 0x1 PUSH1 0xA0 SHL SUB DUP10 DUP2 AND PUSH1 0x4 DUP4 ADD MSTORE PUSH1 0x24 DUP3 ADD DUP10 SWAP1 MSTORE SWAP2 SWAP1 SWAP2 AND SWAP1 PUSH4 0x95EA7B3 SWAP1 PUSH1 0x44 ADD PUSH1 0x20 PUSH1 0x40 MLOAD DUP1 DUP4 SUB DUP2 PUSH1 0x0 DUP8 GAS CALL ISZERO DUP1 ISZERO PUSH2 0x1FF JUMPI RETURNDATASIZE PUSH1 0x0 DUP1 RETURNDATACOPY RETURNDATASIZE PUSH1 0x0 REVERT JUMPDEST POP POP POP POP PUSH1 0x40 MLOAD RETURNDATASIZE PUSH1 0x1F NOT PUSH1 0x1F DUP3 ADD AND DUP3 ADD DUP1 PUSH1 0x40 MSTORE POP DUP2 ADD SWAP1 PUSH2 0x223 SWAP2 SWAP1 PUSH2 0x552 JUMP JUMPDEST POP PUSH1 0x40 MLOAD PUSH4 0x5C11D795 PUSH1 0xE0 SHL DUP2 MSTORE PUSH1 0x1 PUSH1 0x1 PUSH1 0xA0 SHL SUB DUP9 AND SWAP1 PUSH4 0x5C11D795 SWAP1 PUSH2 0x25A SWAP1 DUP10 SWAP1 DUP10 SWAP1 DUP10 SWAP1 DUP10 SWAP1 ADDRESS SWAP1 DUP11 SWAP1 PUSH1 0x4 ADD PUSH2 0x574 JUMP JUMPDEST PUSH1 0x0 PUSH1 0x40 MLOAD DUP1 DUP4 SUB DUP2 PUSH1 0x0 DUP8 DUP1 EXTCODESIZE ISZERO DUP1 ISZERO PUSH2 0x274 JUMPI PUSH1 0x0 DUP1 REVERT JUMPDEST POP GAS CALL ISZERO DUP1 ISZERO PUSH2 0x288 JUMPI RETURNDATASIZE PUSH1 0x0 DUP1 RETURNDATACOPY RETURNDATASIZE PUSH1 0x0 REVERT JUMPDEST POP PUSH1 0x0 SWAP3 POP DUP4 SWAP2 POP DUP7 SWAP1 POP DUP6 PUSH2 0x29F PUSH1 0x1 DUP3 PUSH2 0x4DA JUMP JUMPDEST DUP2 DUP2 LT PUSH2 0x2AE JUMPI PUSH2 0x2AE PUSH2 0x501 JUMP JUMPDEST SWAP1 POP PUSH1 0x20 MUL ADD PUSH1 0x20 DUP2 ADD SWAP1 PUSH2 0x2C3 SWAP2 SWAP1 PUSH2 0x517 JUMP JUMPDEST PUSH1 0x40 MLOAD PUSH4 0x70A08231 PUSH1 0xE0 SHL DUP2 MSTORE ADDRESS PUSH1 0x4 DUP3 ADD MSTORE PUSH1 0x1 PUSH1 0x1 PUSH1 0xA0 SHL SUB SWAP2 SWAP1 SWAP2 AND SWAP1 PUSH4 0x70A08231 SWAP1 PUSH1 0x24 ADD PUSH1 0x20 PUSH1 0x40 MLOAD DUP1 DUP4 SUB DUP2 DUP7 GAS STATICCALL ISZERO DUP1 ISZERO PUSH2 0x309 JUMPI RETURNDATASIZE PUSH1 0x0 DUP1 RETURNDATACOPY RETURNDATASIZE PUSH1 0x0 REVERT JUMPDEST POP POP POP POP PUSH1 0x40 MLOAD RETURNDATASIZE PUSH1 0x1F NOT PUSH1 0x1F DUP3 ADD AND DUP3 ADD DUP1 PUSH1 0x40 MSTORE POP DUP2 ADD SWAP1 PUSH2 0x32D SWAP2 SWAP1 PUSH2 0x539 JUMP JUMPDEST PUSH2 0x337 SWAP2 SWAP1 PUSH2 0x4DA JUMP JUMPDEST SWAP1 POP DUP5 DUP5 PUSH2 0x346 PUSH1 0x1 DUP3 PUSH2 0x4DA JUMP JUMPDEST DUP2 DUP2 LT PUSH2 0x355 JUMPI PUSH2 0x355 PUSH2 0x501 JUMP JUMPDEST SWAP1 POP PUSH1 0x20 MUL ADD PUSH1 0x20 DUP2 ADD SWAP1 PUSH2 0x36A SWAP2 SWAP1 PUSH2 0x517 JUMP JUMPDEST PUSH1 0x1 PUSH1 0x1 PUSH1 0xA0 SHL SUB AND PUSH4 0xA9059CBB DUP7 DUP7 PUSH1 0x0 DUP2 DUP2 LT PUSH2 0x38B JUMPI PUSH2 0x38B PUSH2 0x501 JUMP JUMPDEST SWAP1 POP PUSH1 0x20 MUL ADD PUSH1 0x20 DUP2 ADD SWAP1 PUSH2 0x3A0 SWAP2 SWAP1 PUSH2 0x517 JUMP JUMPDEST PUSH1 0x40 MLOAD PUSH1 0x1 PUSH1 0x1 PUSH1 0xE0 SHL SUB NOT PUSH1 0xE0 DUP5 SWAP1 SHL AND DUP2 MSTORE PUSH1 0x1 PUSH1 0x1 PUSH1 0xA0 SHL SUB SWAP1 SWAP2 AND PUSH1 0x4 DUP3 ADD MSTORE PUSH1 0x24 DUP2 ADD DUP5 SWAP1 MSTORE PUSH1 0x44 ADD PUSH1 0x20 PUSH1 0x40 MLOAD DUP1 DUP4 SUB DUP2 PUSH1 0x0 DUP8 GAS CALL ISZERO DUP1 ISZERO PUSH2 0x3ED JUMPI RETURNDATASIZE PUSH1 0x0 DUP1 RETURNDATACOPY RETURNDATASIZE PUSH1 0x0 REVERT JUMPDEST POP POP POP POP PUSH1 0x40 MLOAD RETURNDATASIZE PUSH1 0x1F NOT PUSH1 0x1F DUP3 ADD AND DUP3 ADD DUP1 PUSH1 0x40 MSTORE POP DUP2 ADD SWAP1 PUSH2 0x411 SWAP2 SWAP1 PUSH2 0x552 JUMP JUMPDEST POP POP POP POP POP POP POP POP POP JUMP JUMPDEST DUP1 CALLDATALOAD PUSH1 0x1 PUSH1 0x1 PUSH1 0xA0 SHL SUB DUP2 AND DUP2 EQ PUSH2 0x433 JUMPI PUSH1 0x0 DUP1 REVERT JUMPDEST SWAP2 SWAP1 POP JUMP JUMPDEST PUSH1 0x0 DUP1 PUSH1 0x0 DUP1 PUSH1 0x0 DUP1 PUSH1 0xA0 DUP8 DUP10 SUB SLT ISZERO PUSH2 0x451 JUMPI PUSH1 0x0 DUP1 REVERT JUMPDEST PUSH2 0x45A DUP8 PUSH2 0x41C JUMP JUMPDEST SWAP6 POP PUSH1 0x20 DUP8 ADD CALLDATALOAD SWAP5 POP PUSH1 0x40 DUP8 ADD CALLDATALOAD SWAP4 POP PUSH1 0x60 DUP8 ADD CALLDATALOAD PUSH8 0xFFFFFFFFFFFFFFFF DUP1 DUP3 GT ISZERO PUSH2 0x485 JUMPI PUSH1 0x0 DUP1 REVERT JUMPDEST DUP2 DUP10 ADD SWAP2 POP DUP10 PUSH1 0x1F DUP4 ADD SLT PUSH2 0x499 JUMPI PUSH1 0x0 DUP1 REVERT JUMPDEST DUP2 CALLDATALOAD DUP2 DUP2 GT ISZERO PUSH2 0x4A8 JUMPI PUSH1 0x0 DUP1 REVERT JUMPDEST DUP11 PUSH1 0x20 DUP3 PUSH1 0x5 SHL DUP6 ADD ADD GT ISZERO PUSH2 0x4BD JUMPI PUSH1 0x0 DUP1 REVERT JUMPDEST PUSH1 0x20 DUP4 ADD SWAP6 POP DUP1 SWAP5 POP POP POP POP PUSH1 0x80 DUP8 ADD CALLDATALOAD SWAP1 POP SWAP3 SWAP6 POP SWAP3 SWAP6 POP SWAP3 SWAP6 JUMP JUMPDEST DUP2 DUP2 SUB DUP2 DUP2 GT ISZERO PUSH2 0x4FB JUMPI PUSH4 0x4E487B71 PUSH1 0xE0 SHL PUSH1 0x0 MSTORE PUSH1 0x11 PUSH1 0x4 MSTORE PUSH1 0x24 PUSH1 0x0 REVERT JUMPDEST SWAP3 SWAP2 POP POP JUMP JUMPDEST PUSH4 0x4E487B71 PUSH1 0xE0 SHL PUSH1 0x0 MSTORE PUSH1 0x32 PUSH1 0x4 MSTORE PUSH1 0x24 PUSH1 0x0 REVERT JUMPDEST PUSH1 0x0 PUSH1 0x20 DUP3 DUP5 SUB SLT ISZERO PUSH2 0x529 JUMPI PUSH1 0x0 DUP1 REVERT JUMPDEST PUSH2 0x532 DUP3 PUSH2 0x41C JUMP JUMPDEST SWAP4 SWAP3 POP POP POP JUMP JUMPDEST PUSH1 0x0 PUSH1 0x20 DUP3 DUP5 SUB SLT ISZERO PUSH2 0x54B JUMPI PUSH1 0x0 DUP1 REVERT JUMPDEST POP MLOAD SWAP2 SWAP1 POP JUMP JUMPDEST PUSH1 0x0 PUSH1 0x20 DUP3 DUP5 SUB SLT ISZERO PUSH2 0x564 JUMPI PUSH1 0x0 DUP1 REVERT JUMPDEST DUP2 MLOAD DUP1 ISZERO ISZERO DUP2 EQ PUSH2 0x532 JUMPI PUSH1 0x0 DUP1 REVERT JUMPDEST DUP7 DUP2 MSTORE PUSH1 0x20 DUP1 DUP3 ADD DUP8 SWAP1 MSTORE PUSH1 0xA0 PUSH1 0x40 DUP4 ADD DUP2 SWAP1 MSTORE DUP3 ADD DUP6 SWAP1 MSTORE PUSH1 0x0 SWAP1 DUP7 SWAP1 PUSH1 0xC0 DUP5 ADD DUP4 JUMPDEST DUP9 DUP2 LT ISZERO PUSH2 0x5C4 JUMPI PUSH1 0x1 PUSH1 0x1 PUSH1 0xA0 SHL SUB PUSH2 0x5B1 DUP6 PUSH2 0x41C JUMP JUMPDEST AND DUP3 MSTORE SWAP3 DUP3 ADD SWAP3 SWAP1 DUP3 ADD SWAP1 PUSH1 0x1 ADD PUSH2 0x598 JUMP JUMPDEST POP PUSH1 0x1 PUSH1 0x1 PUSH1 0xA0 SHL SUB SWAP7 SWAP1 SWAP7 AND PUSH1 0x60 DUP6 ADD MSTORE POP POP POP PUSH1 0x80 ADD MSTORE SWAP5 SWAP4 POP POP POP POP JUMP INVALID LOG2 PUSH5 0x6970667358 0x22 SLT KECCAK256 0xC9 SHL LOG0 0x22 0xCA 0x23 ORIGIN 0xB8 0xCE PC EXP EXP 0xE1 NOT JUMP EXP 0xBF 0xD7 ISZERO ORIGIN 0xC1 0xC0 COINBASE PUSH16 0xDD343545FF72BD6764736F6C63430008 SLT STOP CALLER 0x4F PUSH24 0x6E61626C653A2063616C6C6572206973206E6F7420746865 KECCAK256 PUSH16 0x776E6572F652222313E28459528D920B PUSH6 0x115C16C04F3E 0xFC DUP3 0xAA 0xED 0xC9 PUSH28 0xE59F3F377C0D3F000000000000000000000000000000000000000000 "
		},
		"gasEstimates": {
			"creation": {
				"codeDepositCost": "4381600",
				"executionCost": "infinite",
				"totalCost": "infinite"
			},
			"external": {
				"allowance(address,address)": "infinite",
				"approve(address,uint256)": "24683",
				"automatedMarketMakerPairs(address)": "2658",
				"balanceOf(address)": "infinite",
				"baseTokenForPair()": "2426",
				"buyBurnFee()": "2397",
				"buyLiquidityFee()": "2441",
				"buyMarketingFee()": "2397",
				"buyRewardFee()": "2438",
				"buyTreasuryFee()": "2420",
				"decimals()": "2447",
				"decreaseAllowance(address,uint256)": "infinite",
				"excludeFromFee(address,bool)": "infinite",
				"excludeFromMaxTransactionAmount(address,bool)": "infinite",
				"excludeFromReward(address)": "infinite",
				"includeInReward(address)": "infinite",
				"increaseAllowance(address,uint256)": "infinite",
				"isExcludedFromFee(address)": "2638",
				"isExcludedFromMaxTransactionAmount(address)": "2614",
				"isExcludedFromReward(address)": "2634",
				"isMarketingFeeBaseToken()": "2395",
				"mainPair()": "2406",
				"mainRouter()": "2449",
				"marketingWallet()": "2471",
				"maxTransactionAmount()": "2363",
				"maxWallet()": "2405",
				"minAmountToTakeFee()": "2427",
				"name()": "infinite",
				"owner()": "2399",
				"reflectionFromToken(uint256,bool)": "infinite",
				"renounceOwnership()": "28204",
				"sellBurnFee()": "2441",
				"sellLiquidityFee()": "2418",
				"sellMarketingFee()": "2464",
				"sellRewardFee()": "2413",
				"sellTreasuryFee()": "2464",
				"setAutomatedMarketMakerPair(address,bool)": "infinite",
				"swapCaller()": "2403",
				"symbol()": "infinite",
				"tokenFromReflection(uint256)": "infinite",
				"totalFees()": "2350",
				"totalSupply()": "2383",
				"transfer(address,uint256)": "infinite",
				"transferFrom(address,address,uint256)": "infinite",
				"transferOwnership(address)": "infinite",
				"treasuryBurn()": "infinite",
				"treasuryWallet()": "2471",
				"updateBurnFee(uint16,uint16)": "infinite",
				"updateLiquidityFee(uint16,uint16)": "infinite",
				"updateMarketingFee(uint16,uint16)": "infinite",
				"updateMarketingWallet(address,bool)": "infinite",
				"updateMaxTransactionAmount(uint256)": "30182",
				"updateMaxWallet(uint256)": "30206",
				"updateMinAmountToTakeFee(uint256)": "28039",
				"updateRewardFee(uint16,uint16)": "infinite",
				"updateTreasuryFee(uint16,uint16)": "infinite",
				"updateTreasuryWallet(address)": "81287",
				"updateUniswapV2Pair(address)": "infinite",
				"updateUniswapV2Router(address)": "infinite",
				"withdrawETH()": "infinite",
				"withdrawToken(address)": "infinite"
			},
			"internal": {
				"_approve(address,address,uint256)": "infinite",
				"_getCurrentSupply()": "infinite",
				"_getRate()": "infinite",
				"_getTValues(uint256)": "infinite",
				"_reflectFee(uint256,uint256)": "infinite",
				"_setAutomatedMarketMakerPair(address,bool)": "infinite",
				"_tokenTransfer(address,address,uint256)": "infinite",
				"_transfer(address,address,uint256)": "infinite",
				"addLiquidity(uint256,uint256)": "infinite",
				"calculateBurnFee(uint256)": "infinite",
				"calculateLiquidityFee(uint256)": "infinite",
				"calculateMarketingFee(uint256)": "infinite",
				"calculateRewardFee(uint256)": "infinite",
				"calculateTransferAmount(uint256)": "infinite",
				"calculateTreasuryFee(uint256)": "infinite",
				"removeAllFee()": "infinite",
				"restoreAllFee()": "infinite",
				"swapTokensForBaseToken(uint256)": "infinite",
				"takeFee()": "infinite"
			}
		},
		"methodIdentifiers": {
			"allowance(address,address)": "dd62ed3e",
			"approve(address,uint256)": "095ea7b3",
			"automatedMarketMakerPairs(address)": "b62496f5",
			"balanceOf(address)": "70a08231",
			"baseTokenForPair()": "7cf84bd7",
			"buyBurnFee()": "e71dc3f5",
			"buyLiquidityFee()": "f11a24d3",
			"buyMarketingFee()": "7bce5a04",
			"buyRewardFee()": "0cfe2f3f",
			"buyTreasuryFee()": "5c068a8c",
			"decimals()": "313ce567",
			"decreaseAllowance(address,uint256)": "a457c2d7",
			"excludeFromFee(address,bool)": "df8408fe",
			"excludeFromMaxTransactionAmount(address,bool)": "2ae2f121",
			"excludeFromReward(address)": "52390c02",
			"includeInReward(address)": "3685d419",
			"increaseAllowance(address,uint256)": "39509351",
			"isExcludedFromFee(address)": "5342acb4",
			"isExcludedFromMaxTransactionAmount(address)": "e9481eee",
			"isExcludedFromReward(address)": "88f82020",
			"isMarketingFeeBaseToken()": "57e62b98",
			"mainPair()": "85af30c5",
			"mainRouter()": "cf188ad0",
			"marketingWallet()": "75f0a874",
			"maxTransactionAmount()": "c8c8ebe4",
			"maxWallet()": "f8b45b05",
			"minAmountToTakeFee()": "fc59d23d",
			"name()": "06fdde03",
			"owner()": "8da5cb5b",
			"reflectionFromToken(uint256,bool)": "4549b039",
			"renounceOwnership()": "715018a6",
			"sellBurnFee()": "adb873bd",
			"sellLiquidityFee()": "f6374342",
			"sellMarketingFee()": "92136913",
			"sellRewardFee()": "de0aad53",
			"sellTreasuryFee()": "6b2fb124",
			"setAutomatedMarketMakerPair(address,bool)": "9a7a23d6",
			"swapCaller()": "f420d00f",
			"symbol()": "95d89b41",
			"tokenFromReflection(uint256)": "2d838119",
			"totalFees()": "13114a9d",
			"totalSupply()": "18160ddd",
			"transfer(address,uint256)": "a9059cbb",
			"transferFrom(address,address,uint256)": "23b872dd",
			"transferOwnership(address)": "f2fde38b",
			"treasuryBurn()": "8f0bc167",
			"treasuryWallet()": "4626402b",
			"updateBurnFee(uint16,uint16)": "2073bd85",
			"updateLiquidityFee(uint16,uint16)": "d68f8cde",
			"updateMarketingFee(uint16,uint16)": "cf089e13",
			"updateMarketingWallet(address,bool)": "4707c551",
			"updateMaxTransactionAmount(uint256)": "aa498023",
			"updateMaxWallet(uint256)": "1c499ab0",
			"updateMinAmountToTakeFee(uint256)": "73b9e82c",
			"updateRewardFee(uint16,uint16)": "948384dc",
			"updateTreasuryFee(uint16,uint16)": "8276e5b0",
			"updateTreasuryWallet(address)": "809d458d",
			"updateUniswapV2Pair(address)": "91c1004a",
			"updateUniswapV2Router(address)": "65b8dbc0",
			"withdrawETH()": "e086e5ec",
			"withdrawToken(address)": "89476069"
		}
	},
	"abi": [
		{
			"inputs": [
				{
					"internalType": "string",
					"name": "__name",
					"type": "string"
				},
				{
					"internalType": "string",
					"name": "__symbol",
					"type": "string"
				},
				{
					"internalType": "uint8",
					"name": "__decimals",
					"type": "uint8"
				},
				{
					"internalType": "uint256",
					"name": "_totalSupply",
					"type": "uint256"
				},
				{
					"internalType": "uint256",
					"name": "_maxWallet",
					"type": "uint256"
				},
				{
					"internalType": "uint256",
					"name": "_maxTransactionAmount",
					"type": "uint256"
				},
				{
					"internalType": "address[4]",
					"name": "_accounts",
					"type": "address[4]"
				},
				{
					"internalType": "bool",
					"name": "_isMarketingFeeBaseToken",
					"type": "bool"
				},
				{
					"internalType": "uint16[10]",
					"name": "_fees",
					"type": "uint16[10]"
				},
				{
					"internalType": "address",
					"name": "_realOwner",
					"type": "address"
				}
			],
			"stateMutability": "payable",
			"type": "constructor"
		},
		{
			"anonymous": false,
			"inputs": [
				{
					"indexed": true,
					"internalType": "address",
					"name": "owner",
					"type": "address"
				},
				{
					"indexed": true,
					"internalType": "address",
					"name": "spender",
					"type": "address"
				},
				{
					"indexed": false,
					"internalType": "uint256",
					"name": "value",
					"type": "uint256"
				}
			],
			"name": "Approval",
			"type": "event"
		},
		{
			"anonymous": false,
			"inputs": [
				{
					"indexed": true,
					"internalType": "address",
					"name": "account",
					"type": "address"
				},
				{
					"indexed": false,
					"internalType": "bool",
					"name": "isEx",
					"type": "bool"
				}
			],
			"name": "ExcludedFromFee",
			"type": "event"
		},
		{
			"anonymous": false,
			"inputs": [
				{
					"indexed": true,
					"internalType": "address",
					"name": "account",
					"type": "address"
				},
				{
					"indexed": false,
					"internalType": "bool",
					"name": "isExcluded",
					"type": "bool"
				}
			],
			"name": "ExcludedFromMaxTransactionAmount",
			"type": "event"
		},
		{
			"anonymous": false,
			"inputs": [
				{
					"indexed": false,
					"internalType": "uint256",
					"name": "marketingFeeTokens",
					"type": "uint256"
				},
				{
					"indexed": false,
					"internalType": "uint256",
					"name": "marketingFeeBaseTokenSwapped",
					"type": "uint256"
				}
			],
			"name": "MarketingFeeTaken",
			"type": "event"
		},
		{
			"anonymous": false,
			"inputs": [
				{
					"indexed": true,
					"internalType": "address",
					"name": "previousOwner",
					"type": "address"
				},
				{
					"indexed": true,
					"internalType": "address",
					"name": "newOwner",
					"type": "address"
				}
			],
			"name": "OwnershipTransferred",
			"type": "event"
		},
		{
			"anonymous": false,
			"inputs": [
				{
					"indexed": true,
					"internalType": "address",
					"name": "pair",
					"type": "address"
				},
				{
					"indexed": false,
					"internalType": "bool",
					"name": "value",
					"type": "bool"
				}
			],
			"name": "SetAutomatedMarketMakerPair",
			"type": "event"
		},
		{
			"anonymous": false,
			"inputs": [
				{
					"indexed": false,
					"internalType": "uint256",
					"name": "tokensForLiquidity",
					"type": "uint256"
				},
				{
					"indexed": false,
					"internalType": "uint256",
					"name": "baseTokenForLiquidity",
					"type": "uint256"
				}
			],
			"name": "SwapAndLiquify",
			"type": "event"
		},
		{
			"anonymous": false,
			"inputs": [
				{
					"indexed": true,
					"internalType": "address",
					"name": "from",
					"type": "address"
				},
				{
					"indexed": true,
					"internalType": "address",
					"name": "to",
					"type": "address"
				},
				{
					"indexed": false,
					"internalType": "uint256",
					"name": "value",
					"type": "uint256"
				}
			],
			"name": "Transfer",
			"type": "event"
		},
		{
			"anonymous": false,
			"inputs": [
				{
					"indexed": false,
					"internalType": "uint256",
					"name": "amount",
					"type": "uint256"
				}
			],
			"name": "TreasuryFeeTaken",
			"type": "event"
		},
		{
			"anonymous": false,
			"inputs": [
				{
					"indexed": false,
					"internalType": "uint16",
					"name": "newSellBurnFee",
					"type": "uint16"
				},
				{
					"indexed": false,
					"internalType": "uint16",
					"name": "newBuyBurnFee",
					"type": "uint16"
				},
				{
					"indexed": false,
					"internalType": "uint16",
					"name": "oldSellBurnFee",
					"type": "uint16"
				},
				{
					"indexed": false,
					"internalType": "uint16",
					"name": "oldBuyBurnFee",
					"type": "uint16"
				}
			],
			"name": "UpdateBurnFee",
			"type": "event"
		},
		{
			"anonymous": false,
			"inputs": [
				{
					"indexed": false,
					"internalType": "uint16",
					"name": "newSellLiquidityFee",
					"type": "uint16"
				},
				{
					"indexed": false,
					"internalType": "uint16",
					"name": "newBuyLiquidityFee",
					"type": "uint16"
				},
				{
					"indexed": false,
					"internalType": "uint16",
					"name": "oldSellLiquidityFee",
					"type": "uint16"
				},
				{
					"indexed": false,
					"internalType": "uint16",
					"name": "oldBuyLiquidityFee",
					"type": "uint16"
				}
			],
			"name": "UpdateLiquidityFee",
			"type": "event"
		},
		{
			"anonymous": false,
			"inputs": [
				{
					"indexed": false,
					"internalType": "uint16",
					"name": "newSellMarketingFee",
					"type": "uint16"
				},
				{
					"indexed": false,
					"internalType": "uint16",
					"name": "newBuyMarketingFee",
					"type": "uint16"
				},
				{
					"indexed": false,
					"internalType": "uint16",
					"name": "oldSellMarketingFee",
					"type": "uint16"
				},
				{
					"indexed": false,
					"internalType": "uint16",
					"name": "oldBuyMarketingFee",
					"type": "uint16"
				}
			],
			"name": "UpdateMarketingFee",
			"type": "event"
		},
		{
			"anonymous": false,
			"inputs": [
				{
					"indexed": true,
					"internalType": "address",
					"name": "newMarketingWallet",
					"type": "address"
				},
				{
					"indexed": false,
					"internalType": "bool",
					"name": "newIsMarketingFeeBaseToken",
					"type": "bool"
				},
				{
					"indexed": true,
					"internalType": "address",
					"name": "oldMarketingWallet",
					"type": "address"
				},
				{
					"indexed": false,
					"internalType": "bool",
					"name": "oldIsMarketingFeeBaseToken",
					"type": "bool"
				}
			],
			"name": "UpdateMarketingWallet",
			"type": "event"
		},
		{
			"anonymous": false,
			"inputs": [
				{
					"indexed": false,
					"internalType": "uint256",
					"name": "newMaxTransactionAmount",
					"type": "uint256"
				},
				{
					"indexed": false,
					"internalType": "uint256",
					"name": "oldMaxTransactionAmount",
					"type": "uint256"
				}
			],
			"name": "UpdateMaxTransactionAmount",
			"type": "event"
		},
		{
			"anonymous": false,
			"inputs": [
				{
					"indexed": false,
					"internalType": "uint256",
					"name": "newMaxWallet",
					"type": "uint256"
				},
				{
					"indexed": false,
					"internalType": "uint256",
					"name": "oldMaxWallet",
					"type": "uint256"
				}
			],
			"name": "UpdateMaxWallet",
			"type": "event"
		},
		{
			"anonymous": false,
			"inputs": [
				{
					"indexed": false,
					"internalType": "uint256",
					"name": "newMinAmountToTakeFee",
					"type": "uint256"
				},
				{
					"indexed": false,
					"internalType": "uint256",
					"name": "oldMinAmountToTakeFee",
					"type": "uint256"
				}
			],
			"name": "UpdateMinAmountToTakeFee",
			"type": "event"
		},
		{
			"anonymous": false,
			"inputs": [
				{
					"indexed": false,
					"internalType": "uint16",
					"name": "newSellRewardFee",
					"type": "uint16"
				},
				{
					"indexed": false,
					"internalType": "uint16",
					"name": "newBuyRewardFee",
					"type": "uint16"
				},
				{
					"indexed": false,
					"internalType": "uint16",
					"name": "oldSellRewardFee",
					"type": "uint16"
				},
				{
					"indexed": false,
					"internalType": "uint16",
					"name": "oldBuyRewardFee",
					"type": "uint16"
				}
			],
			"name": "UpdateRewardFee",
			"type": "event"
		},
		{
			"anonymous": false,
			"inputs": [
				{
					"indexed": false,
					"internalType": "uint16",
					"name": "newSellTreasuryFee",
					"type": "uint16"
				},
				{
					"indexed": false,
					"internalType": "uint16",
					"name": "newBuyTreasuryFee",
					"type": "uint16"
				},
				{
					"indexed": false,
					"internalType": "uint16",
					"name": "oldSellTreasuryFee",
					"type": "uint16"
				},
				{
					"indexed": false,
					"internalType": "uint16",
					"name": "oldBuyTreasuryFee",
					"type": "uint16"
				}
			],
			"name": "UpdateTreasuryFee",
			"type": "event"
		},
		{
			"anonymous": false,
			"inputs": [
				{
					"indexed": true,
					"internalType": "address",
					"name": "newTreasuryWallet",
					"type": "address"
				},
				{
					"indexed": true,
					"internalType": "address",
					"name": "oldTreasuryWallet",
					"type": "address"
				}
			],
			"name": "UpdateTreasuryWallet",
			"type": "event"
		},
		{
			"anonymous": false,
			"inputs": [
				{
					"indexed": true,
					"internalType": "address",
					"name": "newAddress",
					"type": "address"
				},
				{
					"indexed": true,
					"internalType": "address",
					"name": "oldRouter",
					"type": "address"
				}
			],
			"name": "UpdateUniswapV2Router",
			"type": "event"
		},
		{
			"inputs": [
				{
					"internalType": "address",
					"name": "owner",
					"type": "address"
				},
				{
					"internalType": "address",
					"name": "spender",
					"type": "address"
				}
			],
			"name": "allowance",
			"outputs": [
				{
					"internalType": "uint256",
					"name": "",
					"type": "uint256"
				}
			],
			"stateMutability": "view",
			"type": "function"
		},
		{
			"inputs": [
				{
					"internalType": "address",
					"name": "spender",
					"type": "address"
				},
				{
					"internalType": "uint256",
					"name": "amount",
					"type": "uint256"
				}
			],
			"name": "approve",
			"outputs": [
				{
					"internalType": "bool",
					"name": "",
					"type": "bool"
				}
			],
			"stateMutability": "nonpayable",
			"type": "function"
		},
		{
			"inputs": [
				{
					"internalType": "address",
					"name": "",
					"type": "address"
				}
			],
			"name": "automatedMarketMakerPairs",
			"outputs": [
				{
					"internalType": "bool",
					"name": "",
					"type": "bool"
				}
			],
			"stateMutability": "view",
			"type": "function"
		},
		{
			"inputs": [
				{
					"internalType": "address",
					"name": "account",
					"type": "address"
				}
			],
			"name": "balanceOf",
			"outputs": [
				{
					"internalType": "uint256",
					"name": "",
					"type": "uint256"
				}
			],
			"stateMutability": "view",
			"type": "function"
		},
		{
			"inputs": [],
			"name": "baseTokenForPair",
			"outputs": [
				{
					"internalType": "address",
					"name": "",
					"type": "address"
				}
			],
			"stateMutability": "view",
			"type": "function"
		},
		{
			"inputs": [],
			"name": "buyBurnFee",
			"outputs": [
				{
					"internalType": "uint16",
					"name": "",
					"type": "uint16"
				}
			],
			"stateMutability": "view",
			"type": "function"
		},
		{
			"inputs": [],
			"name": "buyLiquidityFee",
			"outputs": [
				{
					"internalType": "uint16",
					"name": "",
					"type": "uint16"
				}
			],
			"stateMutability": "view",
			"type": "function"
		},
		{
			"inputs": [],
			"name": "buyMarketingFee",
			"outputs": [
				{
					"internalType": "uint16",
					"name": "",
					"type": "uint16"
				}
			],
			"stateMutability": "view",
			"type": "function"
		},
		{
			"inputs": [],
			"name": "buyRewardFee",
			"outputs": [
				{
					"internalType": "uint16",
					"name": "",
					"type": "uint16"
				}
			],
			"stateMutability": "view",
			"type": "function"
		},
		{
			"inputs": [],
			"name": "buyTreasuryFee",
			"outputs": [
				{
					"internalType": "uint16",
					"name": "",
					"type": "uint16"
				}
			],
			"stateMutability": "view",
			"type": "function"
		},
		{
			"inputs": [],
			"name": "decimals",
			"outputs": [
				{
					"internalType": "uint8",
					"name": "",
					"type": "uint8"
				}
			],
			"stateMutability": "view",
			"type": "function"
		},
		{
			"inputs": [
				{
					"internalType": "address",
					"name": "spender",
					"type": "address"
				},
				{
					"internalType": "uint256",
					"name": "subtractedValue",
					"type": "uint256"
				}
			],
			"name": "decreaseAllowance",
			"outputs": [
				{
					"internalType": "bool",
					"name": "",
					"type": "bool"
				}
			],
			"stateMutability": "nonpayable",
			"type": "function"
		},
		{
			"inputs": [
				{
					"internalType": "address",
					"name": "account",
					"type": "address"
				},
				{
					"internalType": "bool",
					"name": "isEx",
					"type": "bool"
				}
			],
			"name": "excludeFromFee",
			"outputs": [],
			"stateMutability": "nonpayable",
			"type": "function"
		},
		{
			"inputs": [
				{
					"internalType": "address",
					"name": "account",
					"type": "address"
				},
				{
					"internalType": "bool",
					"name": "isEx",
					"type": "bool"
				}
			],
			"name": "excludeFromMaxTransactionAmount",
			"outputs": [],
			"stateMutability": "nonpayable",
			"type": "function"
		},
		{
			"inputs": [
				{
					"internalType": "address",
					"name": "account",
					"type": "address"
				}
			],
			"name": "excludeFromReward",
			"outputs": [],
			"stateMutability": "nonpayable",
			"type": "function"
		},
		{
			"inputs": [
				{
					"internalType": "address",
					"name": "account",
					"type": "address"
				}
			],
			"name": "includeInReward",
			"outputs": [],
			"stateMutability": "nonpayable",
			"type": "function"
		},
		{
			"inputs": [
				{
					"internalType": "address",
					"name": "spender",
					"type": "address"
				},
				{
					"internalType": "uint256",
					"name": "addedValue",
					"type": "uint256"
				}
			],
			"name": "increaseAllowance",
			"outputs": [
				{
					"internalType": "bool",
					"name": "",
					"type": "bool"
				}
			],
			"stateMutability": "nonpayable",
			"type": "function"
		},
		{
			"inputs": [
				{
					"internalType": "address",
					"name": "",
					"type": "address"
				}
			],
			"name": "isExcludedFromFee",
			"outputs": [
				{
					"internalType": "bool",
					"name": "",
					"type": "bool"
				}
			],
			"stateMutability": "view",
			"type": "function"
		},
		{
			"inputs": [
				{
					"internalType": "address",
					"name": "",
					"type": "address"
				}
			],
			"name": "isExcludedFromMaxTransactionAmount",
			"outputs": [
				{
					"internalType": "bool",
					"name": "",
					"type": "bool"
				}
			],
			"stateMutability": "view",
			"type": "function"
		},
		{
			"inputs": [
				{
					"internalType": "address",
					"name": "account",
					"type": "address"
				}
			],
			"name": "isExcludedFromReward",
			"outputs": [
				{
					"internalType": "bool",
					"name": "",
					"type": "bool"
				}
			],
			"stateMutability": "view",
			"type": "function"
		},
		{
			"inputs": [],
			"name": "isMarketingFeeBaseToken",
			"outputs": [
				{
					"internalType": "bool",
					"name": "",
					"type": "bool"
				}
			],
			"stateMutability": "view",
			"type": "function"
		},
		{
			"inputs": [],
			"name": "mainPair",
			"outputs": [
				{
					"internalType": "address",
					"name": "",
					"type": "address"
				}
			],
			"stateMutability": "view",
			"type": "function"
		},
		{
			"inputs": [],
			"name": "mainRouter",
			"outputs": [
				{
					"internalType": "contract IUniswapV2Router02",
					"name": "",
					"type": "address"
				}
			],
			"stateMutability": "view",
			"type": "function"
		},
		{
			"inputs": [],
			"name": "marketingWallet",
			"outputs": [
				{
					"internalType": "address",
					"name": "",
					"type": "address"
				}
			],
			"stateMutability": "view",
			"type": "function"
		},
		{
			"inputs": [],
			"name": "maxTransactionAmount",
			"outputs": [
				{
					"internalType": "uint256",
					"name": "",
					"type": "uint256"
				}
			],
			"stateMutability": "view",
			"type": "function"
		},
		{
			"inputs": [],
			"name": "maxWallet",
			"outputs": [
				{
					"internalType": "uint256",
					"name": "",
					"type": "uint256"
				}
			],
			"stateMutability": "view",
			"type": "function"
		},
		{
			"inputs": [],
			"name": "minAmountToTakeFee",
			"outputs": [
				{
					"internalType": "uint256",
					"name": "",
					"type": "uint256"
				}
			],
			"stateMutability": "view",
			"type": "function"
		},
		{
			"inputs": [],
			"name": "name",
			"outputs": [
				{
					"internalType": "string",
					"name": "",
					"type": "string"
				}
			],
			"stateMutability": "view",
			"type": "function"
		},
		{
			"inputs": [],
			"name": "owner",
			"outputs": [
				{
					"internalType": "address",
					"name": "",
					"type": "address"
				}
			],
			"stateMutability": "view",
			"type": "function"
		},
		{
			"inputs": [
				{
					"internalType": "uint256",
					"name": "tAmount",
					"type": "uint256"
				},
				{
					"internalType": "bool",
					"name": "deductTransferFee",
					"type": "bool"
				}
			],
			"name": "reflectionFromToken",
			"outputs": [
				{
					"internalType": "uint256",
					"name": "",
					"type": "uint256"
				}
			],
			"stateMutability": "view",
			"type": "function"
		},
		{
			"inputs": [],
			"name": "renounceOwnership",
			"outputs": [],
			"stateMutability": "nonpayable",
			"type": "function"
		},
		{
			"inputs": [],
			"name": "sellBurnFee",
			"outputs": [
				{
					"internalType": "uint16",
					"name": "",
					"type": "uint16"
				}
			],
			"stateMutability": "view",
			"type": "function"
		},
		{
			"inputs": [],
			"name": "sellLiquidityFee",
			"outputs": [
				{
					"internalType": "uint16",
					"name": "",
					"type": "uint16"
				}
			],
			"stateMutability": "view",
			"type": "function"
		},
		{
			"inputs": [],
			"name": "sellMarketingFee",
			"outputs": [
				{
					"internalType": "uint16",
					"name": "",
					"type": "uint16"
				}
			],
			"stateMutability": "view",
			"type": "function"
		},
		{
			"inputs": [],
			"name": "sellRewardFee",
			"outputs": [
				{
					"internalType": "uint16",
					"name": "",
					"type": "uint16"
				}
			],
			"stateMutability": "view",
			"type": "function"
		},
		{
			"inputs": [],
			"name": "sellTreasuryFee",
			"outputs": [
				{
					"internalType": "uint16",
					"name": "",
					"type": "uint16"
				}
			],
			"stateMutability": "view",
			"type": "function"
		},
		{
			"inputs": [
				{
					"internalType": "address",
					"name": "pair",
					"type": "address"
				},
				{
					"internalType": "bool",
					"name": "value",
					"type": "bool"
				}
			],
			"name": "setAutomatedMarketMakerPair",
			"outputs": [],
			"stateMutability": "nonpayable",
			"type": "function"
		},
		{
			"inputs": [],
			"name": "swapCaller",
			"outputs": [
				{
					"internalType": "contract SwapCaller",
					"name": "",
					"type": "address"
				}
			],
			"stateMutability": "view",
			"type": "function"
		},
		{
			"inputs": [],
			"name": "symbol",
			"outputs": [
				{
					"internalType": "string",
					"name": "",
					"type": "string"
				}
			],
			"stateMutability": "view",
			"type": "function"
		},
		{
			"inputs": [
				{
					"internalType": "uint256",
					"name": "rAmount",
					"type": "uint256"
				}
			],
			"name": "tokenFromReflection",
			"outputs": [
				{
					"internalType": "uint256",
					"name": "",
					"type": "uint256"
				}
			],
			"stateMutability": "view",
			"type": "function"
		},
		{
			"inputs": [],
			"name": "totalFees",
			"outputs": [
				{
					"internalType": "uint256",
					"name": "",
					"type": "uint256"
				}
			],
			"stateMutability": "view",
			"type": "function"
		},
		{
			"inputs": [],
			"name": "totalSupply",
			"outputs": [
				{
					"internalType": "uint256",
					"name": "",
					"type": "uint256"
				}
			],
			"stateMutability": "view",
			"type": "function"
		},
		{
			"inputs": [
				{
					"internalType": "address",
					"name": "recipient",
					"type": "address"
				},
				{
					"internalType": "uint256",
					"name": "amount",
					"type": "uint256"
				}
			],
			"name": "transfer",
			"outputs": [
				{
					"internalType": "bool",
					"name": "",
					"type": "bool"
				}
			],
			"stateMutability": "nonpayable",
			"type": "function"
		},
		{
			"inputs": [
				{
					"internalType": "address",
					"name": "sender",
					"type": "address"
				},
				{
					"internalType": "address",
					"name": "recipient",
					"type": "address"
				},
				{
					"internalType": "uint256",
					"name": "amount",
					"type": "uint256"
				}
			],
			"name": "transferFrom",
			"outputs": [
				{
					"internalType": "bool",
					"name": "",
					"type": "bool"
				}
			],
			"stateMutability": "nonpayable",
			"type": "function"
		},
		{
			"inputs": [
				{
					"internalType": "address",
					"name": "newOwner",
					"type": "address"
				}
			],
			"name": "transferOwnership",
			"outputs": [],
			"stateMutability": "nonpayable",
			"type": "function"
		},
		{
			"inputs": [],
			"name": "treasuryBurn",
			"outputs": [],
			"stateMutability": "payable",
			"type": "function"
		},
		{
			"inputs": [],
			"name": "treasuryWallet",
			"outputs": [
				{
					"internalType": "address",
					"name": "",
					"type": "address"
				}
			],
			"stateMutability": "view",
			"type": "function"
		},
		{
			"inputs": [
				{
					"internalType": "uint16",
					"name": "_sellBurnFee",
					"type": "uint16"
				},
				{
					"internalType": "uint16",
					"name": "_buyBurnFee",
					"type": "uint16"
				}
			],
			"name": "updateBurnFee",
			"outputs": [],
			"stateMutability": "nonpayable",
			"type": "function"
		},
		{
			"inputs": [
				{
					"internalType": "uint16",
					"name": "_sellLiquidityFee",
					"type": "uint16"
				},
				{
					"internalType": "uint16",
					"name": "_buyLiquidityFee",
					"type": "uint16"
				}
			],
			"name": "updateLiquidityFee",
			"outputs": [],
			"stateMutability": "nonpayable",
			"type": "function"
		},
		{
			"inputs": [
				{
					"internalType": "uint16",
					"name": "_sellMarketingFee",
					"type": "uint16"
				},
				{
					"internalType": "uint16",
					"name": "_buyMarketingFee",
					"type": "uint16"
				}
			],
			"name": "updateMarketingFee",
			"outputs": [],
			"stateMutability": "nonpayable",
			"type": "function"
		},
		{
			"inputs": [
				{
					"internalType": "address",
					"name": "_marketingWallet",
					"type": "address"
				},
				{
					"internalType": "bool",
					"name": "_isMarketingFeeBaseToken",
					"type": "bool"
				}
			],
			"name": "updateMarketingWallet",
			"outputs": [],
			"stateMutability": "nonpayable",
			"type": "function"
		},
		{
			"inputs": [
				{
					"internalType": "uint256",
					"name": "_maxTransactionAmount",
					"type": "uint256"
				}
			],
			"name": "updateMaxTransactionAmount",
			"outputs": [],
			"stateMutability": "nonpayable",
			"type": "function"
		},
		{
			"inputs": [
				{
					"internalType": "uint256",
					"name": "_maxWallet",
					"type": "uint256"
				}
			],
			"name": "updateMaxWallet",
			"outputs": [],
			"stateMutability": "nonpayable",
			"type": "function"
		},
		{
			"inputs": [
				{
					"internalType": "uint256",
					"name": "_minAmountToTakeFee",
					"type": "uint256"
				}
			],
			"name": "updateMinAmountToTakeFee",
			"outputs": [],
			"stateMutability": "nonpayable",
			"type": "function"
		},
		{
			"inputs": [
				{
					"internalType": "uint16",
					"name": "_sellRewardFee",
					"type": "uint16"
				},
				{
					"internalType": "uint16",
					"name": "_buyRewardFee",
					"type": "uint16"
				}
			],
			"name": "updateRewardFee",
			"outputs": [],
			"stateMutability": "nonpayable",
			"type": "function"
		},
		{
			"inputs": [
				{
					"internalType": "uint16",
					"name": "_sellTreasuryFee",
					"type": "uint16"
				},
				{
					"internalType": "uint16",
					"name": "_buyTreasuryFee",
					"type": "uint16"
				}
			],
			"name": "updateTreasuryFee",
			"outputs": [],
			"stateMutability": "nonpayable",
			"type": "function"
		},
		{
			"inputs": [
				{
					"internalType": "address",
					"name": "_treasuryWallet",
					"type": "address"
				}
			],
			"name": "updateTreasuryWallet",
			"outputs": [],
			"stateMutability": "nonpayable",
			"type": "function"
		},
		{
			"inputs": [
				{
					"internalType": "address",
					"name": "_baseTokenForPair",
					"type": "address"
				}
			],
			"name": "updateUniswapV2Pair",
			"outputs": [],
			"stateMutability": "nonpayable",
			"type": "function"
		},
		{
			"inputs": [
				{
					"internalType": "address",
					"name": "newAddress",
					"type": "address"
				}
			],
			"name": "updateUniswapV2Router",
			"outputs": [],
			"stateMutability": "nonpayable",
			"type": "function"
		},
		{
			"inputs": [],
			"name": "withdrawETH",
			"outputs": [],
			"stateMutability": "nonpayable",
			"type": "function"
		},
		{
			"inputs": [
				{
					"internalType": "address",
					"name": "token",
					"type": "address"
				}
			],
			"name": "withdrawToken",
			"outputs": [],
			"stateMutability": "nonpayable",
			"type": "function"
		},
		{
			"stateMutability": "payable",
			"type": "receive"
		}
	]
}