{
  "_format": "hh-sol-artifact-1",
  "contractName": "MainTokenFactory",
  "sourceName": "contracts/tokenCreatorV1Neon.sol",
  "abi": [
    {
      "inputs": [
        {
          "internalType": "address",
          "name": "_treasury",
          "type": "address"
        },
        {
          "internalType": "uint256",
          "name": "_createFee",
          "type": "uint256"
        }
      ],
      "stateMutability": "nonpayable",
      "type": "constructor"
    },
    {
      "anonymous": false,
      "inputs": [
        {
          "indexed": false,
          "internalType": "address",
          "name": "Token",
          "type": "address"
        }
      ],
      "name": "CreatedToken",
      "type": "event"
    },
    {
      "anonymous": false,
      "inputs": [
        {
          "indexed": true,
          "internalType": "address",
          "name": "previousOwner",
          "type": "address"
        },
        {
          "indexed": true,
          "internalType": "address",
          "name": "newOwner",
          "type": "address"
        }
      ],
      "name": "OwnershipTransferred",
      "type": "event"
    },
    {
      "inputs": [],
      "name": "Controller",
      "outputs": [
        {
          "internalType": "address",
          "name": "",
          "type": "address"
        }
      ],
      "stateMutability": "view",
      "type": "function"
    },
    {
      "inputs": [
        {
          "internalType": "address",
          "name": "newController",
          "type": "address"
        }
      ],
      "name": "changeController",
      "outputs": [],
      "stateMutability": "nonpayable",
      "type": "function"
    },
    {
      "inputs": [
        {
          "internalType": "uint256",
          "name": "_newCreateFee",
          "type": "uint256"
        }
      ],
      "name": "changeCreateFee",
      "outputs": [],
      "stateMutability": "nonpayable",
      "type": "function"
    },
    {
      "inputs": [],
      "name": "createFee",
      "outputs": [
        {
          "internalType": "uint256",
          "name": "",
          "type": "uint256"
        }
      ],
      "stateMutability": "view",
      "type": "function"
    },
    {
      "inputs": [
        {
          "internalType": "string",
          "name": "_name",
          "type": "string"
        },
        {
          "internalType": "string",
          "name": "_symbol",
          "type": "string"
        },
        {
          "internalType": "uint256",
          "name": "initialSupply",
          "type": "uint256"
        },
        {
          "internalType": "address",
          "name": "realOwner",
          "type": "address"
        }
      ],
      "name": "createStandardToken",
      "outputs": [],
      "stateMutability": "nonpayable",
      "type": "function"
    },
    {
      "inputs": [
        {
          "internalType": "string",
          "name": "_name",
          "type": "string"
        },
        {
          "internalType": "string",
          "name": "_symbol",
          "type": "string"
        },
        {
          "internalType": "uint256",
          "name": "_devFee",
          "type": "uint256"
        },
        {
          "internalType": "uint256",
          "name": "_burnFee",
          "type": "uint256"
        },
        {
          "internalType": "uint256",
          "name": "_liqFee",
          "type": "uint256"
        },
        {
          "internalType": "address",
          "name": "_router",
          "type": "address"
        },
        {
          "internalType": "address",
          "name": "_MarketingWallet",
          "type": "address"
        },
        {
          "internalType": "address",
          "name": "_burnToken",
          "type": "address"
        },
        {
          "internalType": "address",
          "name": "_burnRouter",
          "type": "address"
        },
        {
          "internalType": "uint256",
          "name": "initialSupply",
          "type": "uint256"
        },
        {
          "internalType": "address",
          "name": "realOwner",
          "type": "address"
        }
      ],
      "name": "createToken",
      "outputs": [],
      "stateMutability": "payable",
      "type": "function"
    },
    {
      "inputs": [],
      "name": "getMyTokens",
      "outputs": [
        {
          "internalType": "address[]",
          "name": "myCreatedTokens",
          "type": "address[]"
        }
      ],
      "stateMutability": "view",
      "type": "function"
    },
    {
      "inputs": [
        {
          "internalType": "uint256",
          "name": "number",
          "type": "uint256"
        }
      ],
      "name": "getToken",
      "outputs": [
        {
          "internalType": "address",
          "name": "",
          "type": "address"
        }
      ],
      "stateMutability": "view",
      "type": "function"
    },
    {
      "inputs": [],
      "name": "howManyTokens",
      "outputs": [
        {
          "internalType": "uint256",
          "name": "PoolCount",
          "type": "uint256"
        }
      ],
      "stateMutability": "view",
      "type": "function"
    },
    {
      "inputs": [],
      "name": "owner",
      "outputs": [
        {
          "internalType": "address",
          "name": "",
          "type": "address"
        }
      ],
      "stateMutability": "view",
      "type": "function"
    },
    {
      "inputs": [],
      "name": "renounceOwnership",
      "outputs": [],
      "stateMutability": "nonpayable",
      "type": "function"
    },
    {
      "inputs": [
        {
          "internalType": "address",
          "name": "newOwner",
          "type": "address"
        }
      ],
      "name": "transferOwnership",
      "outputs": [],
      "stateMutability": "nonpayable",
      "type": "function"
    },
    {
      "inputs": [],
      "name": "treasury",
      "outputs": [
        {
          "internalType": "address",
          "name": "",
          "type": "address"
        }
      ],
      "stateMutability": "view",
      "type": "function"
    }
  ],
  "bytecode": "0x608060405234801561001057600080fd5b5060405161571838038061571883398101604081905261002f916100bf565b6100383361006f565b60038054336001600160a01b031991821617909155600480549091166001600160a01b0393909316929092179091556005556100f9565b600080546001600160a01b038381166001600160a01b0319831681178455604051919092169283917f8be0079c531659141344cd1fd0a4f28419497f9722a3daafe3b4186f6b6457e09190a35050565b600080604083850312156100d257600080fd5b82516001600160a01b03811681146100e957600080fd5b6020939093015192949293505050565b615610806101086000396000f3fe608060405260043610620000d25760003560e01c80637dbd127e1162000089578063b64e42b91162000060578063b64e42b91462000221578063e4b50cb81462000238578063e6acc72d146200025d578063f2fde38b146200028257600080fd5b80637dbd127e14620001c85780638da5cb5b14620001e9578063b2db919b146200020957600080fd5b80633cebb82314620000d75780635b3b136a14620000fe578063600e27a9146200012e57806361d027b3146200015357806364679356146200018e578063715018a614620001b0575b600080fd5b348015620000e457600080fd5b50620000fc620000f6366004620008c4565b620002a7565b005b3480156200010b57600080fd5b506200011662000335565b604051620001259190620008e9565b60405180910390f35b3480156200013b57600080fd5b50620000fc6200014d366004620009e3565b620003a2565b3480156200016057600080fd5b5060045462000175906001600160a01b031681565b6040516001600160a01b03909116815260200162000125565b3480156200019b57600080fd5b5060035462000175906001600160a01b031681565b348015620001bd57600080fd5b50620000fc620004c5565b348015620001d557600080fd5b506001545b60405190815260200162000125565b348015620001f657600080fd5b506000546001600160a01b031662000175565b3480156200021657600080fd5b50620001da60055481565b620000fc6200023236600462000a6a565b620004dd565b3480156200024557600080fd5b50620001756200025736600462000b5c565b6200071e565b3480156200026a57600080fd5b50620000fc6200027c36600462000b5c565b62000751565b3480156200028f57600080fd5b50620000fc620002a1366004620008c4565b62000760565b6003546001600160a01b03163314620003135760405162461bcd60e51b8152602060048201526024808201527f4d757374206265206368616e6765642062792063757272656e7420636f6e747260448201526337b632b960e11b60648201526084015b60405180910390fd5b600380546001600160a01b0319166001600160a01b0392909216919091179055565b336000908152600260209081526040918290208054835181840281018401909452808452606093928301828280156200039857602002820191906000526020600020905b81546001600160a01b0316815260019091019060200180831162000379575b5050505050905090565b60006001600160a01b03821615620003bb5781620003bd565b335b905060008585858460006001600160a01b0316876001600160a01b031614604051620003e9906200088b565b620003f995949392919062000bca565b604051809103906000f08015801562000416573d6000803e3d6000fd5b506001805480820182557fb10e2d527612073b26eecdfd717e6a320cf44b4afac2b0732d9fcbe2b7fa0cf60180546001600160a01b0384166001600160a01b031991821681179092553360009081526002602090815260408083208054968701815583529181902090940180549092168317909155519081529192507f7bb17726df1f3adee8aa00ba8e8bc5d6f182af3bbf77604639cb7f008dd3b4ed910160405180910390a1505050505050565b620004cf620007df565b620004db60006200083b565b565b6004546005546040805160008082526020820192839052936001600160a01b031692916200050c919062000c1c565b60006040518083038185875af1925050503d80600081146200054b576040519150601f19603f3d011682016040523d82523d6000602084013e62000550565b606091505b5050905080620005af5760405162461bcd60e51b815260206004820152602360248201527f5472616e7366657248656c7065723a204554485f5452414e534645525f46414960448201526213115160ea1b60648201526084016200030a565b60006001600160a01b03831615620005c85782620005ca565b335b905060008d8d8d8d8d60405180604001604052808f6001600160a01b03166001600160a01b031681526020018c6001600160a01b03166001600160a01b03168152508d8d8c8a60006001600160a01b03168e6001600160a01b031614604051620006349062000899565b6200064a9b9a9998979695949392919062000c3a565b604051809103906000f08015801562000667573d6000803e3d6000fd5b506001805480820182557fb10e2d527612073b26eecdfd717e6a320cf44b4afac2b0732d9fcbe2b7fa0cf60180546001600160a01b0384166001600160a01b031991821681179092553360009081526002602090815260408083208054968701815583529181902090940180549092168317909155519081529192507f7bb17726df1f3adee8aa00ba8e8bc5d6f182af3bbf77604639cb7f008dd3b4ed910160405180910390a15050505050505050505050505050565b60006001828154811062000736576200073662000d07565b6000918252602090912001546001600160a01b031692915050565b6200075b620007df565b600555565b6200076a620007df565b6001600160a01b038116620007d15760405162461bcd60e51b815260206004820152602660248201527f4f776e61626c653a206e6577206f776e657220697320746865207a65726f206160448201526564647265737360d01b60648201526084016200030a565b620007dc816200083b565b50565b6000546001600160a01b03163314620004db5760405162461bcd60e51b815260206004820181905260248201527f4f776e61626c653a2063616c6c6572206973206e6f7420746865206f776e657260448201526064016200030a565b600080546001600160a01b038381166001600160a01b0319831681178455604051919092169283917f8be0079c531659141344cd1fd0a4f28419497f9722a3daafe3b4186f6b6457e09190a35050565b6110388062000d1e83390190565b6138858062001d5683390190565b80356001600160a01b0381168114620008bf57600080fd5b919050565b600060208284031215620008d757600080fd5b620008e282620008a7565b9392505050565b6020808252825182820181905260009190848201906040850190845b818110156200092c5783516001600160a01b03168352928401929184019160010162000905565b50909695505050505050565b634e487b7160e01b600052604160045260246000fd5b600082601f8301126200096057600080fd5b813567ffffffffffffffff808211156200097e576200097e62000938565b604051601f8301601f19908116603f01168101908282118183101715620009a957620009a962000938565b81604052838152866020858801011115620009c357600080fd5b836020870160208301376000602085830101528094505050505092915050565b60008060008060808587031215620009fa57600080fd5b843567ffffffffffffffff8082111562000a1357600080fd5b62000a21888389016200094e565b9550602087013591508082111562000a3857600080fd5b5062000a47878288016200094e565b9350506040850135915062000a5f60608601620008a7565b905092959194509250565b60008060008060008060008060008060006101608c8e03121562000a8d57600080fd5b67ffffffffffffffff808d35111562000aa557600080fd5b62000ab48e8e358f016200094e565b9b508060208e0135111562000ac857600080fd5b5062000adb8d60208e01358e016200094e565b995060408c0135985060608c0135975060808c0135965062000b0060a08d01620008a7565b955062000b1060c08d01620008a7565b945062000b2060e08d01620008a7565b935062000b316101008d01620008a7565b92506101208c0135915062000b4a6101408d01620008a7565b90509295989b509295989b9093969950565b60006020828403121562000b6f57600080fd5b5035919050565b60005b8381101562000b9357818101518382015260200162000b79565b50506000910152565b6000815180845262000bb681602086016020860162000b76565b601f01601f19169290920160200192915050565b60a08152600062000bdf60a083018862000b9c565b828103602084015262000bf3818862000b9c565b604084019690965250506001600160a01b03929092166060830152151560809091015292915050565b6000825162000c3081846020870162000b76565b9190910192915050565b600061018080835262000c508184018f62000b9c565b905060208382038185015262000c67828f62000b9c565b92508c60408501528b60608501528a608085015260a0840191508960005b600281101562000cad5781516001600160a01b03168452928201929082019060010162000c85565b5050506001600160a01b03881660e0840152506001600160a01b0386166101008301528461012083015262000cee6101408301856001600160a01b03169052565b8215156101608301529c9b505050505050505050505050565b634e487b7160e01b600052603260045260246000fdfe60806040523480156200001157600080fd5b5060405162001038380380620010388339810160408190526200003491620003a5565b84846200004133620000af565b60046200004f8382620004e4565b5060056200005e8282620004e4565b505050620000828284670de0b6b3a76400006200007c9190620005c6565b620000ff565b8015620000995762000093620001e8565b620000a4565b620000a48262000200565b5050505050620005fc565b600080546001600160a01b038381166001600160a01b0319831681178455604051919092169283917f8be0079c531659141344cd1fd0a4f28419497f9722a3daafe3b4186f6b6457e09190a35050565b6001600160a01b0382166200015b5760405162461bcd60e51b815260206004820152601f60248201527f45524332303a206d696e7420746f20746865207a65726f20616464726573730060448201526064015b60405180910390fd5b80600360008282546200016f9190620005e6565b90915550506001600160a01b038216600090815260016020526040812080548392906200019e908490620005e6565b90915550506040518181526001600160a01b038316906000907fddf252ad1be2c89b69c2b068fc378daa952ba7f163c4a11628f55a4df523b3ef9060200160405180910390a35050565b620001f262000284565b620001fe6000620000af565b565b6200020a62000284565b6001600160a01b038116620002715760405162461bcd60e51b815260206004820152602660248201527f4f776e61626c653a206e6577206f776e657220697320746865207a65726f206160448201526564647265737360d01b606482015260840162000152565b6200027c81620000af565b50565b505050565b6000546001600160a01b03163314620001fe5760405162461bcd60e51b815260206004820181905260248201527f4f776e61626c653a2063616c6c6572206973206e6f7420746865206f776e6572604482015260640162000152565b634e487b7160e01b600052604160045260246000fd5b600082601f8301126200030857600080fd5b81516001600160401b0380821115620003255762000325620002e0565b604051601f8301601f19908116603f01168101908282118183101715620003505762000350620002e0565b816040528381526020925086838588010111156200036d57600080fd5b600091505b8382101562000391578582018301518183018401529082019062000372565b600093810190920192909252949350505050565b600080600080600060a08688031215620003be57600080fd5b85516001600160401b0380821115620003d657600080fd5b620003e489838a01620002f6565b96506020880151915080821115620003fb57600080fd5b506200040a88828901620002f6565b60408801516060890151919650945090506001600160a01b03811681146200043157600080fd5b608087015190925080151581146200044857600080fd5b809150509295509295909350565b600181811c908216806200046b57607f821691505b6020821081036200048c57634e487b7160e01b600052602260045260246000fd5b50919050565b601f8211156200027f57600081815260208120601f850160051c81016020861015620004bb5750805b601f850160051c820191505b81811015620004dc57828155600101620004c7565b505050505050565b81516001600160401b03811115620005005762000500620002e0565b620005188162000511845462000456565b8462000492565b602080601f831160018114620005505760008415620005375750858301515b600019600386901b1c1916600185901b178555620004dc565b600085815260208120601f198616915b82811015620005815788860151825594840194600190910190840162000560565b5085821015620005a05787850151600019600388901b60f8161c191681555b5050505050600190811b01905550565b634e487b7160e01b600052601160045260246000fd5b8082028115828204841417620005e057620005e0620005b0565b92915050565b80820180821115620005e057620005e0620005b0565b610a2c806200060c6000396000f3fe608060405234801561001057600080fd5b50600436106100ea5760003560e01c8063715018a61161008c578063a457c2d711610066578063a457c2d7146101cd578063a9059cbb146101e0578063dd62ed3e146101f3578063f2fde38b1461020657600080fd5b8063715018a6146101a05780638da5cb5b146101aa57806395d89b41146101c557600080fd5b806323b872dd116100c857806323b872dd14610142578063313ce56714610155578063395093511461016457806370a082311461017757600080fd5b806306fdde03146100ef578063095ea7b31461010d57806318160ddd14610130575b600080fd5b6100f7610219565b6040516101049190610876565b60405180910390f35b61012061011b3660046108e0565b6102ab565b6040519015158152602001610104565b6003545b604051908152602001610104565b61012061015036600461090a565b6102c5565b60405160128152602001610104565b6101206101723660046108e0565b6102e9565b610134610185366004610946565b6001600160a01b031660009081526001602052604090205490565b6101a861030b565b005b6000546040516001600160a01b039091168152602001610104565b6100f761031f565b6101206101db3660046108e0565b61032e565b6101206101ee3660046108e0565b6103ae565b610134610201366004610968565b6103bc565b6101a8610214366004610946565b6103e7565b6060600480546102289061099b565b80601f01602080910402602001604051908101604052809291908181526020018280546102549061099b565b80156102a15780601f10610276576101008083540402835291602001916102a1565b820191906000526020600020905b81548152906001019060200180831161028457829003601f168201915b5050505050905090565b6000336102b9818585610460565b60019150505b92915050565b6000336102d3858285610584565b6102de8585856105fe565b506001949350505050565b6000336102b98185856102fc83836103bc565b61030691906109d5565b610460565b6103136107cc565b61031d6000610826565b565b6060600580546102289061099b565b6000338161033c82866103bc565b9050838110156103a15760405162461bcd60e51b815260206004820152602560248201527f45524332303a2064656372656173656420616c6c6f77616e63652062656c6f77604482015264207a65726f60d81b60648201526084015b60405180910390fd5b6102de8286868403610460565b6000336102b98185856105fe565b6001600160a01b03918216600090815260026020908152604080832093909416825291909152205490565b6103ef6107cc565b6001600160a01b0381166104545760405162461bcd60e51b815260206004820152602660248201527f4f776e61626c653a206e6577206f776e657220697320746865207a65726f206160448201526564647265737360d01b6064820152608401610398565b61045d81610826565b50565b6001600160a01b0383166104c25760405162461bcd60e51b8152602060048201526024808201527f45524332303a20617070726f76652066726f6d20746865207a65726f206164646044820152637265737360e01b6064820152608401610398565b6001600160a01b0382166105235760405162461bcd60e51b815260206004820152602260248201527f45524332303a20617070726f766520746f20746865207a65726f206164647265604482015261737360f01b6064820152608401610398565b6001600160a01b0383811660008181526002602090815260408083209487168084529482529182902085905590518481527f8c5be1e5ebec7d5bd14f71427d1e84f3dd0314c0f7b2291e5b200ac8c7c3b925910160405180910390a3505050565b600061059084846103bc565b905060001981146105f857818110156105eb5760405162461bcd60e51b815260206004820152601d60248201527f45524332303a20696e73756666696369656e7420616c6c6f77616e63650000006044820152606401610398565b6105f88484848403610460565b50505050565b6001600160a01b0383166106625760405162461bcd60e51b815260206004820152602560248201527f45524332303a207472616e736665722066726f6d20746865207a65726f206164604482015264647265737360d81b6064820152608401610398565b6001600160a01b0382166106c45760405162461bcd60e51b815260206004820152602360248201527f45524332303a207472616e7366657220746f20746865207a65726f206164647260448201526265737360e81b6064820152608401610398565b6001600160a01b0383166000908152600160205260409020548181101561073c5760405162461bcd60e51b815260206004820152602660248201527f45524332303a207472616e7366657220616d6f756e7420657863656564732062604482015265616c616e636560d01b6064820152608401610398565b6001600160a01b038085166000908152600160205260408082208585039055918516815290812080548492906107739084906109d5565b92505081905550826001600160a01b0316846001600160a01b03167fddf252ad1be2c89b69c2b068fc378daa952ba7f163c4a11628f55a4df523b3ef846040516107bf91815260200190565b60405180910390a36105f8565b6000546001600160a01b0316331461031d5760405162461bcd60e51b815260206004820181905260248201527f4f776e61626c653a2063616c6c6572206973206e6f7420746865206f776e65726044820152606401610398565b600080546001600160a01b038381166001600160a01b0319831681178455604051919092169283917f8be0079c531659141344cd1fd0a4f28419497f9722a3daafe3b4186f6b6457e09190a35050565b600060208083528351808285015260005b818110156108a357858101830151858201604001528201610887565b506000604082860101526040601f19601f8301168501019250505092915050565b80356001600160a01b03811681146108db57600080fd5b919050565b600080604083850312156108f357600080fd5b6108fc836108c4565b946020939093013593505050565b60008060006060848603121561091f57600080fd5b610928846108c4565b9250610936602085016108c4565b9150604084013590509250925092565b60006020828403121561095857600080fd5b610961826108c4565b9392505050565b6000806040838503121561097b57600080fd5b610984836108c4565b9150610992602084016108c4565b90509250929050565b600181811c908216806109af57607f821691505b6020821081036109cf57634e487b7160e01b600052602260045260246000fd5b50919050565b808201808211156102bf57634e487b7160e01b600052601160045260246000fdfea26469706673582212208d76f109294d3eafb4b86f38884e455af5e3ba380953e0dbcc28a32a464e2fdf64736f6c634300081400336080604052601080546001600160a01b03191661dead1790553480156200002557600080fd5b506040516200388538038062003885833981016040819052620000489162000eb4565b8a8a620000553362000179565b60046200006383826200103b565b5060056200007282826200103b565b5050600e80546001600160a01b03199081166001600160a01b0389811691909117909255600d8054821688841617905560208901516007805491909316911617905550620000c089620001c9565b620000cb88620002a8565b620000d687620003ce565b620000e330600162000443565b6200010282620000fc85670de0b6b3a76400006200111d565b62000531565b620f42406200011060035490565b6200011d90600a6200111d565b6200012991906200113d565b600c558551620001399062000616565b6200014682600162000443565b80156200015d576200015762000a1e565b62000168565b620001688262000a36565b50505050505050505050506200119b565b600080546001600160a01b038381166001600160a01b0319831681178455604051919092169283917f8be0079c531659141344cd1fd0a4f28419497f9722a3daafe3b4186f6b6457e09190a35050565b620001d362000ab2565b6008819055600954600a54620001ea908362001160565b620001f6919062001160565b600b55600854156200026057600e546001600160a01b0316620002605760405162461bcd60e51b815260206004820152601a60248201527f536574204d61726b6574696e672057616c6c657420466972737400000000000060448201526064015b60405180910390fd5b6103e8600b541115620002a55760405162461bcd60e51b815260206004820152601b602482015260008051602062003865833981519152604482015260640162000257565b50565b620002b262000ab2565b600a819055600954600854620002ca90839062001160565b620002d6919062001160565b600b8190556103e810156200031d5760405162461bcd60e51b815260206004820152601b602482015260008051602062003865833981519152604482015260640162000257565b600a5415620002a557600d546001600160a01b0316620003745760405162461bcd60e51b8152602060048201526011602482015270109d5c9b951bdad95b881b9bdd0814d95d607a1b604482015260640162000257565b6007546001600160a01b0316620002a55760405162461bcd60e51b815260206004820152601360248201527f4275726e20526f75746572206e6f742053657400000000000000000000000000604482015260640162000257565b620003d862000ab2565b6009819055600a546008548291620003f09162001160565b620003fc919062001160565b600b8190556103e81015620002a55760405162461bcd60e51b815260206004820152601b602482015260008051602062003865833981519152604482015260640162000257565b6200044d62000ab2565b6001600160a01b03821660009081526012602052604090205481151560ff909116151503620004d25760405162461bcd60e51b815260206004820152602a60248201527f4163636f756e7420697320616c7265616479207468652076616c7565206f6620604482015269276578636c756465642760b01b606482015260840162000257565b6001600160a01b038216600081815260126020908152604091829020805460ff191685151590811790915591519182527f9d8f7706ea1113d1a167b526eca956215946dd36cc7df39eb16180222d8b5df7910160405180910390a25050565b6001600160a01b038216620005895760405162461bcd60e51b815260206004820152601f60248201527f45524332303a206d696e7420746f20746865207a65726f206164647265737300604482015260640162000257565b80600360008282546200059d919062001160565b90915550506001600160a01b03821660009081526001602052604081208054839290620005cc90849062001160565b90915550506040518181526001600160a01b038316906000907fddf252ad1be2c89b69c2b068fc378daa952ba7f163c4a11628f55a4df523b3ef9060200160405180910390a35050565b6200062062000ab2565b6006546001600160a01b03908116908216036200068c5760405162461bcd60e51b815260206004820152602360248201527f54686520726f7574657220616c7265616479206861732074686174206164647260448201526265737360e81b606482015260840162000257565b600680546001600160a01b0319166001600160a01b0383169081179091556040805163c45a015560e01b815290516000929163c45a01559160048083019260209291908290030181865afa158015620006e9573d6000803e3d6000fd5b505050506040513d601f19601f820116820180604052508101906200070f919062001176565b6001600160a01b031663e6a4390530600660009054906101000a90046001600160a01b03166001600160a01b031663ad5c46486040518163ffffffff1660e01b8152600401602060405180830381865afa15801562000772573d6000803e3d6000fd5b505050506040513d601f19601f8201168201806040525081019062000798919062001176565b6040516001600160e01b031960e085901b1681526001600160a01b03928316600482015291166024820152604401602060405180830381865afa158015620007e4573d6000803e3d6000fd5b505050506040513d601f19601f820116820180604052508101906200080a919062001176565b90506001600160a01b0381166200099557600660009054906101000a90046001600160a01b03166001600160a01b031663c45a01556040518163ffffffff1660e01b8152600401602060405180830381865afa1580156200086f573d6000803e3d6000fd5b505050506040513d601f19601f8201168201806040525081019062000895919062001176565b6001600160a01b031663c9c6539630600660009054906101000a90046001600160a01b03166001600160a01b031663ad5c46486040518163ffffffff1660e01b8152600401602060405180830381865afa158015620008f8573d6000803e3d6000fd5b505050506040513d601f19601f820116820180604052508101906200091e919062001176565b6040516001600160e01b031960e085901b1681526001600160a01b039283166004820152911660248201526044016020604051808303816000875af11580156200096c573d6000803e3d6000fd5b505050506040513d601f19601f8201168201806040525081019062000992919062001176565b90505b6001600160a01b03811660009081526011602052604090205460ff161515600114801590620009cc57506001600160a01b03811615155b15620009df57620009df81600162000b13565b600654620009fb9030906001600160a01b031660001962000c09565b600f80546001600160a01b0319166001600160a01b039290921691909117905550565b62000a2862000ab2565b62000a34600062000179565b565b62000a4062000ab2565b6001600160a01b03811662000aa75760405162461bcd60e51b815260206004820152602660248201527f4f776e61626c653a206e6577206f776e657220697320746865207a65726f206160448201526564647265737360d01b606482015260840162000257565b620002a58162000179565b6000546001600160a01b0316331462000a345760405162461bcd60e51b815260206004820181905260248201527f4f776e61626c653a2063616c6c6572206973206e6f7420746865206f776e6572604482015260640162000257565b505050565b62000b1d62000ab2565b6001600160a01b03821660009081526011602052604090205481151560ff90911615150362000bb55760405162461bcd60e51b815260206004820152603860248201527f4175746f6d61746564206d61726b6574206d616b65722070616972206973206160448201527f6c72656164792073657420746f20746861742076616c75650000000000000000606482015260840162000257565b6001600160a01b038216600081815260116020526040808220805460ff191685151590811790915590519092917fffa9187bf1f18bf477bd0ea1bcbb64e93b6a98132473929edfce215cd9b16fab91a35050565b6001600160a01b03831662000c6d5760405162461bcd60e51b8152602060048201526024808201527f45524332303a20617070726f76652066726f6d20746865207a65726f206164646044820152637265737360e01b606482015260840162000257565b6001600160a01b03821662000cd05760405162461bcd60e51b815260206004820152602260248201527f45524332303a20617070726f766520746f20746865207a65726f206164647265604482015261737360f01b606482015260840162000257565b6001600160a01b0383811660008181526002602090815260408083209487168084529482529182902085905590518481527f8c5be1e5ebec7d5bd14f71427d1e84f3dd0314c0f7b2291e5b200ac8c7c3b925910160405180910390a3505050565b634e487b7160e01b600052604160045260246000fd5b604051601f8201601f191681016001600160401b038111828210171562000d725762000d7262000d31565b604052919050565b600082601f83011262000d8c57600080fd5b81516001600160401b0381111562000da85762000da862000d31565b602062000dbe601f8301601f1916820162000d47565b828152858284870101111562000dd357600080fd5b60005b8381101562000df357858101830151828201840152820162000dd6565b506000928101909101919091529392505050565b80516001600160a01b038116811462000e1f57600080fd5b919050565b600082601f83011262000e3657600080fd5b604080519081016001600160401b038111828210171562000e5b5762000e5b62000d31565b806040525080604084018581111562000e7357600080fd5b845b8181101562000e985762000e898162000e07565b83526020928301920162000e75565b509195945050505050565b8051801515811462000e1f57600080fd5b60008060008060008060008060008060006101808c8e03121562000ed757600080fd5b8b516001600160401b0381111562000eee57600080fd5b62000efc8e828f0162000d7a565b60208e0151909c5090506001600160401b0381111562000f1b57600080fd5b62000f298e828f0162000d7a565b9a505060408c0151985060608c0151975060808c0151965062000f508d60a08e0162000e24565b955062000f6060e08d0162000e07565b945062000f716101008d0162000e07565b93506101208c0151925062000f8a6101408d0162000e07565b915062000f9b6101608d0162000ea3565b90509295989b509295989b9093969950565b600181811c9082168062000fc257607f821691505b60208210810362000fe357634e487b7160e01b600052602260045260246000fd5b50919050565b601f82111562000b0e57600081815260208120601f850160051c81016020861015620010125750805b601f850160051c820191505b8181101562001033578281556001016200101e565b505050505050565b81516001600160401b0381111562001057576200105762000d31565b6200106f8162001068845462000fad565b8462000fe9565b602080601f831160018114620010a757600084156200108e5750858301515b600019600386901b1c1916600185901b17855562001033565b600085815260208120601f198616915b82811015620010d857888601518255948401946001909101908401620010b7565b5085821015620010f75787850151600019600388901b60f8161c191681555b5050505050600190811b01905550565b634e487b7160e01b600052601160045260246000fd5b808202811582820484141762001137576200113762001107565b92915050565b6000826200115b57634e487b7160e01b600052601260045260246000fd5b500490565b8082018082111562001137576200113762001107565b6000602082840312156200118957600080fd5b620011948262000e07565b9392505050565b6126ba80620011ab6000396000f3fe6080604052600436106102345760003560e01c8063715018a61161012e578063a9059cbb116100ab578063dd62ed3e1161006f578063dd62ed3e14610699578063f2fde38b146106b9578063f6d7eade146106d9578063faa0a264146106f9578063fce589d81461071957600080fd5b8063a9059cbb146105f4578063b62496f514610614578063b9413b5114610644578063b98b677f14610659578063c35879801461067957600080fd5b80638da5cb5b116100f25780638da5cb5b1461056157806395d89b411461057f57806398da3ef314610594578063a457c2d7146105b4578063a7f7b36f146105d457600080fd5b8063715018a6146104bd57806375f0a874146104d257806386917524146104f2578063877c7ff914610508578063894760691461054157600080fd5b8063313ce567116101bc5780634bf2c7c9116101805780634bf2c7c9146104115780635d098b38146104315780636402511e146104515780636827e7641461047157806370a082311461048757600080fd5b8063313ce5671461037f578063357bf15c1461039b57806339509351146103bb57806339e196f6146103db5780633fb0da64146103fb57600080fd5b80631d111d13116102035780631d111d13146102dc5780631dc4b09c146102f15780631df4ccfc1461031157806323b872dd1461032757806326991cc81461034757600080fd5b806306fdde0314610240578063095ea7b31461026b57806318160ddd1461029b5780631c75b6b2146102ba57600080fd5b3661023b57005b600080fd5b34801561024c57600080fd5b5061025561072f565b60405161026291906122cf565b60405180910390f35b34801561027757600080fd5b5061028b610286366004612317565b6107c1565b6040519015158152602001610262565b3480156102a757600080fd5b506003545b604051908152602001610262565b3480156102c657600080fd5b506102da6102d5366004612343565b6107db565b005b3480156102e857600080fd5b506102da610891565b3480156102fd57600080fd5b506102da61030c36600461235c565b610959565b34801561031d57600080fd5b506102ac600b5481565b34801561033357600080fd5b5061028b610342366004612380565b610983565b34801561035357600080fd5b50600f54610367906001600160a01b031681565b6040516001600160a01b039091168152602001610262565b34801561038b57600080fd5b5060405160128152602001610262565b3480156103a757600080fd5b506102da6103b6366004612343565b6109a7565b3480156103c757600080fd5b5061028b6103d6366004612317565b6109f5565b3480156103e757600080fd5b506102da6103f63660046123cf565b610a17565b34801561040757600080fd5b506102ac60095481565b34801561041d57600080fd5b506102da61042c366004612343565b610b01565b34801561043d57600080fd5b506102da61044c36600461235c565b610bf1565b34801561045d57600080fd5b506102da61046c366004612343565b610c6c565b34801561047d57600080fd5b506102ac60085481565b34801561049357600080fd5b506102ac6104a236600461235c565b6001600160a01b031660009081526001602052604090205490565b3480156104c957600080fd5b506102da610c79565b3480156104de57600080fd5b50600e54610367906001600160a01b031681565b3480156104fe57600080fd5b506102ac600c5481565b34801561051457600080fd5b5061028b61052336600461235c565b6001600160a01b031660009081526012602052604090205460ff1690565b34801561054d57600080fd5b506102da61055c36600461235c565b610c8d565b34801561056d57600080fd5b506000546001600160a01b0316610367565b34801561058b57600080fd5b50610255610d7a565b3480156105a057600080fd5b50600754610367906001600160a01b031681565b3480156105c057600080fd5b5061028b6105cf366004612317565b610d89565b3480156105e057600080fd5b506102da6105ef3660046123cf565b610e04565b34801561060057600080fd5b5061028b61060f366004612317565b610ef6565b34801561062057600080fd5b5061028b61062f36600461235c565b60116020526000908152604090205460ff1681565b34801561065057600080fd5b506102da610f04565b34801561066557600080fd5b506102da61067436600461235c565b611349565b34801561068557600080fd5b506102da61069436600461235c565b611734565b3480156106a557600080fd5b506102ac6106b4366004612408565b61175e565b3480156106c557600080fd5b506102da6106d436600461235c565b611789565b3480156106e557600080fd5b50600654610367906001600160a01b031681565b34801561070557600080fd5b50600d54610367906001600160a01b031681565b34801561072557600080fd5b506102ac600a5481565b60606004805461073e90612436565b80601f016020809104026020016040519081016040528092919081815260200182805461076a90612436565b80156107b75780601f1061078c576101008083540402835291602001916107b7565b820191906000526020600020905b81548152906001019060200180831161079a57829003601f168201915b5050505050905090565b6000336107cf8185856117ff565b60019150505b92915050565b6107e3611923565b6008819055600954600a546107f89083612486565b6108029190612486565b600b556008541561086a57600e546001600160a01b031661086a5760405162461bcd60e51b815260206004820152601a60248201527f536574204d61726b6574696e672057616c6c657420466972737400000000000060448201526064015b60405180910390fd5b6103e8600b54111561088e5760405162461bcd60e51b815260040161086190612499565b50565b610899611923565b60408051600080825260208201909252339047906040516108ba91906124d0565b60006040518083038185875af1925050503d80600081146108f7576040519150601f19603f3d011682016040523d82523d6000602084013e6108fc565b606091505b505090508061088e5760405162461bcd60e51b815260206004820152602360248201527f5472616e7366657248656c7065723a204554485f5452414e534645525f46414960448201526213115160ea1b6064820152608401610861565b610961611923565b600780546001600160a01b0319166001600160a01b0392909216919091179055565b60003361099185828561197d565b61099c8585856119f7565b506001949350505050565b6109af611923565b6009819055600a5460085482916109c591612486565b6109cf9190612486565b600b8190556103e8101561088e5760405162461bcd60e51b815260040161086190612499565b6000336107cf818585610a08838361175e565b610a129190612486565b6117ff565b610a1f611923565b6001600160a01b03821660009081526012602052604090205481151560ff909116151503610aa25760405162461bcd60e51b815260206004820152602a60248201527f4163636f756e7420697320616c7265616479207468652076616c7565206f6620604482015269276578636c756465642760b01b6064820152608401610861565b6001600160a01b038216600081815260126020908152604091829020805460ff191685151590811790915591519182527f9d8f7706ea1113d1a167b526eca956215946dd36cc7df39eb16180222d8b5df7910160405180910390a25050565b610b09611923565b600a819055600954600854610b1f908390612486565b610b299190612486565b600b8190556103e81015610b4f5760405162461bcd60e51b815260040161086190612499565b600a541561088e57600d546001600160a01b0316610ba35760405162461bcd60e51b8152602060048201526011602482015270109d5c9b951bdad95b881b9bdd0814d95d607a1b6044820152606401610861565b6007546001600160a01b031661088e5760405162461bcd60e51b8152602060048201526013602482015272109d5c9b88149bdd5d195c881b9bdd0814d95d606a1b6044820152606401610861565b610bf9611923565b600e546001600160a01b03166000908152601260205260409020805460ff19166001179055600e54610c35906001600160a01b03166000610a17565b600e80546001600160a01b0319166001600160a01b039290921691821790556000908152601260205260409020805460ff19169055565b610c74611923565b600c55565b610c81611923565b610c8b6000611b4b565b565b610c95611923565b6040516370a0823160e01b81523060048201526001600160a01b0382169063a9059cbb90339083906370a0823190602401602060405180830381865afa158015610ce3573d6000803e3d6000fd5b505050506040513d601f19601f82011682018060405250810190610d0791906124ec565b6040516001600160e01b031960e085901b1681526001600160a01b03909216600483015260248201526044016020604051808303816000875af1158015610d52573d6000803e3d6000fd5b505050506040513d601f19601f82011682018060405250810190610d769190612505565b5050565b60606005805461073e90612436565b60003381610d97828661175e565b905083811015610df75760405162461bcd60e51b815260206004820152602560248201527f45524332303a2064656372656173656420616c6c6f77616e63652062656c6f77604482015264207a65726f60d81b6064820152608401610861565b61099c82868684036117ff565b610e0c611923565b6001600160a01b03821660009081526011602052604090205481151560ff909116151503610ea25760405162461bcd60e51b815260206004820152603860248201527f4175746f6d61746564206d61726b6574206d616b65722070616972206973206160448201527f6c72656164792073657420746f20746861742076616c756500000000000000006064820152608401610861565b6001600160a01b038216600081815260116020526040808220805460ff191685151590811790915590519092917fffa9187bf1f18bf477bd0ea1bcbb64e93b6a98132473929edfce215cd9b16fab91a35050565b6000336107cf8185856119f7565b610f0c611923565b3060009081526001602052604081205460095415610f4c57600954600b54610f35906002612522565b610f3f9083612539565b610f499190612522565b91505b6000610f58838361255b565b60408051600280825260608201835292935047926000926020830190803683370190505090503081600081518110610f9257610f9261256e565b6001600160a01b03928316602091820292909201810191909152600654604080516315ab88c960e31b81529051919093169263ad5c46489260048083019391928290030181865afa158015610feb573d6000803e3d6000fd5b505050506040513d601f19601f8201168201806040525081019061100f9190612584565b816001815181106110225761102261256e565b6001600160a01b03928316602091820292909201015260065460405163791ac94760e01b815291169063791ac947906110689086906000908690309042906004016125e5565b600060405180830381600087803b15801561108257600080fd5b505af1925050508015611093575060015b6110d75760405162461bcd60e51b815260206004820152601560248201527408cc2d2d8cac840e8de40e6eec2e040e8de40cae8d605b1b6044820152606401610861565b600954156111315760006110eb834761255b565b90506000600954600b5460026111019190612522565b61110b919061255b565b6009546111189084612522565b6111229190612539565b905061112e8782611b9b565b50505b600a54156112ff576000600854600a5461114b9190612486565b600a546111589047612522565b6111629190612539565b60408051600280825260608201835292935060009290916020830190803683375050600754604080516315ab88c960e31b815290519394506001600160a01b039091169263ad5c4648925060048083019260209291908290030181865afa1580156111d1573d6000803e3d6000fd5b505050506040513d601f19601f820116820180604052508101906111f59190612584565b816000815181106112085761120861256e565b6001600160a01b039283166020918202929092010152600d548251911690829060019081106112395761123961256e565b6001600160a01b03928316602091820292909201015260075460105460405163b6f9de9560e01b81529183169263b6f9de95928692611285926000928892909116904290600401612621565b6000604051808303818588803b15801561129e57600080fd5b505af1935050505080156112b0575060015b6112fc5760405162461bcd60e51b815260206004820152601c60248201527f4661696c656420746f207377617020666f72204275726e546f6b656e000000006044820152606401610861565b50505b6008541561134257600e546040516001600160a01b03909116904780156108fc02916000818181858888f19350505050158015611340573d6000803e3d6000fd5b505b5050505050565b611351611923565b6006546001600160a01b03908116908216036113bb5760405162461bcd60e51b815260206004820152602360248201527f54686520726f7574657220616c7265616479206861732074686174206164647260448201526265737360e81b6064820152608401610861565b600680546001600160a01b0319166001600160a01b0383169081179091556040805163c45a015560e01b815290516000929163c45a01559160048083019260209291908290030181865afa158015611417573d6000803e3d6000fd5b505050506040513d601f19601f8201168201806040525081019061143b9190612584565b6001600160a01b031663e6a4390530600660009054906101000a90046001600160a01b03166001600160a01b031663ad5c46486040518163ffffffff1660e01b8152600401602060405180830381865afa15801561149d573d6000803e3d6000fd5b505050506040513d601f19601f820116820180604052508101906114c19190612584565b6040516001600160e01b031960e085901b1681526001600160a01b03928316600482015291166024820152604401602060405180830381865afa15801561150c573d6000803e3d6000fd5b505050506040513d601f19601f820116820180604052508101906115309190612584565b90506001600160a01b0381166116b157600660009054906101000a90046001600160a01b03166001600160a01b031663c45a01556040518163ffffffff1660e01b8152600401602060405180830381865afa158015611593573d6000803e3d6000fd5b505050506040513d601f19601f820116820180604052508101906115b79190612584565b6001600160a01b031663c9c6539630600660009054906101000a90046001600160a01b03166001600160a01b031663ad5c46486040518163ffffffff1660e01b8152600401602060405180830381865afa158015611619573d6000803e3d6000fd5b505050506040513d601f19601f8201168201806040525081019061163d9190612584565b6040516001600160e01b031960e085901b1681526001600160a01b039283166004820152911660248201526044016020604051808303816000875af115801561168a573d6000803e3d6000fd5b505050506040513d601f19601f820116820180604052508101906116ae9190612584565b90505b6001600160a01b03811660009081526011602052604090205460ff1615156001148015906116e757506001600160a01b03811615155b156116f7576116f7816001610e04565b6006546117119030906001600160a01b03166000196117ff565b600f80546001600160a01b0319166001600160a01b039290921691909117905550565b61173c611923565b600d80546001600160a01b0319166001600160a01b0392909216919091179055565b6001600160a01b03918216600090815260026020908152604080832093909416825291909152205490565b611791611923565b6001600160a01b0381166117f65760405162461bcd60e51b815260206004820152602660248201527f4f776e61626c653a206e6577206f776e657220697320746865207a65726f206160448201526564647265737360d01b6064820152608401610861565b61088e81611b4b565b6001600160a01b0383166118615760405162461bcd60e51b8152602060048201526024808201527f45524332303a20617070726f76652066726f6d20746865207a65726f206164646044820152637265737360e01b6064820152608401610861565b6001600160a01b0382166118c25760405162461bcd60e51b815260206004820152602260248201527f45524332303a20617070726f766520746f20746865207a65726f206164647265604482015261737360f01b6064820152608401610861565b6001600160a01b0383811660008181526002602090815260408083209487168084529482529182902085905590518481527f8c5be1e5ebec7d5bd14f71427d1e84f3dd0314c0f7b2291e5b200ac8c7c3b925910160405180910390a3505050565b6000546001600160a01b03163314610c8b5760405162461bcd60e51b815260206004820181905260248201527f4f776e61626c653a2063616c6c6572206973206e6f7420746865206f776e65726044820152606401610861565b6000611989848461175e565b905060001981146119f157818110156119e45760405162461bcd60e51b815260206004820152601d60248201527f45524332303a20696e73756666696369656e7420616c6c6f77616e63650000006044820152606401610861565b6119f184848484036117ff565b50505050565b6001600160a01b03831660009081526012602052604090205460ff16158015611a3957506001600160a01b03821660009081526012602052604090205460ff16155b15611b3b576001600160a01b03821660009081526011602052604090205460ff1680611a7d57506001600160a01b03831660009081526011602052604090205460ff165b15611b3b5760006008541180611a9557506000600a54115b80611aa257506000600954115b15611b3b576000612710600b5483611aba9190612522565b611ac49190612539565b600c5430600090815260016020526040902054919250108015611aea575060135460ff16155b8015611b0e57506001600160a01b03831660009081526011602052604090205460ff165b15611b1b57611b1b611c74565b8015611b3957611b2c8430836120dd565b611b36818361255b565b91505b505b611b468383836120dd565b505050565b600080546001600160a01b038381166001600160a01b0319831681178455604051919092169283917f8be0079c531659141344cd1fd0a4f28419497f9722a3daafe3b4186f6b6457e09190a35050565b60065460105460405163f305d71960e01b81523060048201526024810185905260006044820181905260648201526001600160a01b0391821660848201524260a482015291169063f305d71990839060c40160606040518083038185885af193505050508015611c28575060408051601f3d908101601f19168201909252611c2591810190612656565b60015b6113425760405162461bcd60e51b815260206004820152601760248201527f4661696c656420746f20616464206c69717569646974790000000000000000006044820152606401610861565b6013805460ff19166001179055600080611ca3306001600160a01b031660009081526001602052604090205490565b60095490915015611cd657600954600b54611cbf906002612522565b611cc99083612539565b611cd39190612522565b91505b6000611ce2838361255b565b60408051600280825260608201835292935047926000926020830190803683370190505090503081600081518110611d1c57611d1c61256e565b6001600160a01b03928316602091820292909201810191909152600654604080516315ab88c960e31b81529051919093169263ad5c46489260048083019391928290030181865afa158015611d75573d6000803e3d6000fd5b505050506040513d601f19601f82011682018060405250810190611d999190612584565b81600181518110611dac57611dac61256e565b6001600160a01b03928316602091820292909201015260065460405163791ac94760e01b815291169063791ac94790611df29086906000908690309042906004016125e5565b600060405180830381600087803b158015611e0c57600080fd5b505af1925050508015611e1d575060015b611e615760405162461bcd60e51b815260206004820152601560248201527408cc2d2d8cac840e8de40e6eec2e040e8de40cae8d605b1b6044820152606401610861565b60095415611ebb576000611e75834761255b565b90506000600954600b546002611e8b9190612522565b611e95919061255b565b600954611ea29084612522565b611eac9190612539565b9050611eb88782611b9b565b50505b600a5415612089576000600854600a54611ed59190612486565b600a54611ee29047612522565b611eec9190612539565b60408051600280825260608201835292935060009290916020830190803683375050600754604080516315ab88c960e31b815290519394506001600160a01b039091169263ad5c4648925060048083019260209291908290030181865afa158015611f5b573d6000803e3d6000fd5b505050506040513d601f19601f82011682018060405250810190611f7f9190612584565b81600081518110611f9257611f9261256e565b6001600160a01b039283166020918202929092010152600d54825191169082906001908110611fc357611fc361256e565b6001600160a01b03928316602091820292909201015260075460105460405163b6f9de9560e01b81529183169263b6f9de9592869261200f926000928892909116904290600401612621565b6000604051808303818588803b15801561202857600080fd5b505af19350505050801561203a575060015b6120865760405162461bcd60e51b815260206004820152601c60248201527f4661696c656420746f207377617020666f72204275726e546f6b656e000000006044820152606401610861565b50505b600854156120cc57600e546040516001600160a01b03909116904780156108fc02916000818181858888f193505050501580156120ca573d6000803e3d6000fd5b505b50506013805460ff19169055505050565b6001600160a01b0383166121415760405162461bcd60e51b815260206004820152602560248201527f45524332303a207472616e736665722066726f6d20746865207a65726f206164604482015264647265737360d81b6064820152608401610861565b6001600160a01b0382166121a35760405162461bcd60e51b815260206004820152602360248201527f45524332303a207472616e7366657220746f20746865207a65726f206164647260448201526265737360e81b6064820152608401610861565b6001600160a01b0383166000908152600160205260409020548181101561221b5760405162461bcd60e51b815260206004820152602660248201527f45524332303a207472616e7366657220616d6f756e7420657863656564732062604482015265616c616e636560d01b6064820152608401610861565b6001600160a01b03808516600090815260016020526040808220858503905591851681529081208054849290612252908490612486565b92505081905550826001600160a01b0316846001600160a01b03167fddf252ad1be2c89b69c2b068fc378daa952ba7f163c4a11628f55a4df523b3ef8460405161229e91815260200190565b60405180910390a36119f1565b60005b838110156122c65781810151838201526020016122ae565b50506000910152565b60208152600082518060208401526122ee8160408501602087016122ab565b601f01601f19169190910160400192915050565b6001600160a01b038116811461088e57600080fd5b6000806040838503121561232a57600080fd5b823561233581612302565b946020939093013593505050565b60006020828403121561235557600080fd5b5035919050565b60006020828403121561236e57600080fd5b813561237981612302565b9392505050565b60008060006060848603121561239557600080fd5b83356123a081612302565b925060208401356123b081612302565b929592945050506040919091013590565b801515811461088e57600080fd5b600080604083850312156123e257600080fd5b82356123ed81612302565b915060208301356123fd816123c1565b809150509250929050565b6000806040838503121561241b57600080fd5b823561242681612302565b915060208301356123fd81612302565b600181811c9082168061244a57607f821691505b60208210810361246a57634e487b7160e01b600052602260045260246000fd5b50919050565b634e487b7160e01b600052601160045260246000fd5b808201808211156107d5576107d5612470565b6020808252601b908201527f546f74616c4665652063616e6e6f742065786365656420313030300000000000604082015260600190565b600082516124e28184602087016122ab565b9190910192915050565b6000602082840312156124fe57600080fd5b5051919050565b60006020828403121561251757600080fd5b8151612379816123c1565b80820281158282048414176107d5576107d5612470565b60008261255657634e487b7160e01b600052601260045260246000fd5b500490565b818103818111156107d5576107d5612470565b634e487b7160e01b600052603260045260246000fd5b60006020828403121561259657600080fd5b815161237981612302565b600081518084526020808501945080840160005b838110156125da5781516001600160a01b0316875295820195908201906001016125b5565b509495945050505050565b85815284602082015260a06040820152600061260460a08301866125a1565b6001600160a01b0394909416606083015250608001529392505050565b84815260806020820152600061263a60808301866125a1565b6001600160a01b03949094166040830152506060015292915050565b60008060006060848603121561266b57600080fd5b835192506020840151915060408401519050925092509256fea26469706673582212204fba81f353b0bbfa6d3cb881d438232dbd1e04f83f867c70d678596a9f26c96e64736f6c63430008140033546f74616c4665652063616e6e6f742065786365656420313030300000000000a2646970667358221220ce1fadf54a327c43b33f06d92d22191712de8df6ceebe1b97db4449ce76c1efc64736f6c63430008140033",
  "linkReferences": {},
  "deployedLinkReferences": {}
}