{
  "_format": "hh-sol-artifact-1",
  "contractName": "MainToken",
  "sourceName": "contracts/tokenCreatorV1Neon.sol",
  "abi": [
    {
      "inputs": [
        {
          "internalType": "string",
          "name": "_name",
          "type": "string"
        },
        {
          "internalType": "string",
          "name": "_symbol",
          "type": "string"
        },
        {
          "internalType": "uint256",
          "name": "_devFee",
          "type": "uint256"
        },
        {
          "internalType": "uint256",
          "name": "_burnFee",
          "type": "uint256"
        },
        {
          "internalType": "uint256",
          "name": "_liqFee",
          "type": "uint256"
        },
        {
          "internalType": "address[2]",
          "name": "_routers",
          "type": "address[2]"
        },
        {
          "internalType": "address",
          "name": "_MarketingWallet",
          "type": "address"
        },
        {
          "internalType": "address",
          "name": "_burnToken",
          "type": "address"
        },
        {
          "internalType": "uint256",
          "name": "initialSupply",
          "type": "uint256"
        },
        {
          "internalType": "address",
          "name": "realOwner",
          "type": "address"
        },
        {
          "internalType": "bool",
          "name": "renounce",
          "type": "bool"
        }
      ],
      "stateMutability": "nonpayable",
      "type": "constructor"
    },
    {
      "anonymous": false,
      "inputs": [
        {
          "indexed": true,
          "internalType": "address",
          "name": "owner",
          "type": "address"
        },
        {
          "indexed": true,
          "internalType": "address",
          "name": "spender",
          "type": "address"
        },
        {
          "indexed": false,
          "internalType": "uint256",
          "name": "value",
          "type": "uint256"
        }
      ],
      "name": "Approval",
      "type": "event"
    },
    {
      "anonymous": false,
      "inputs": [
        {
          "indexed": true,
          "internalType": "address",
          "name": "account",
          "type": "address"
        },
        {
          "indexed": false,
          "internalType": "bool",
          "name": "isExcluded",
          "type": "bool"
        }
      ],
      "name": "ExcludeFromFees",
      "type": "event"
    },
    {
      "anonymous": false,
      "inputs": [
        {
          "indexed": true,
          "internalType": "address",
          "name": "previousOwner",
          "type": "address"
        },
        {
          "indexed": true,
          "internalType": "address",
          "name": "newOwner",
          "type": "address"
        }
      ],
      "name": "OwnershipTransferred",
      "type": "event"
    },
    {
      "anonymous": false,
      "inputs": [
        {
          "indexed": true,
          "internalType": "address",
          "name": "pair",
          "type": "address"
        },
        {
          "indexed": true,
          "internalType": "bool",
          "name": "value",
          "type": "bool"
        }
      ],
      "name": "SetAutomatedMarketMakerPair",
      "type": "event"
    },
    {
      "anonymous": false,
      "inputs": [
        {
          "indexed": true,
          "internalType": "address",
          "name": "from",
          "type": "address"
        },
        {
          "indexed": true,
          "internalType": "address",
          "name": "to",
          "type": "address"
        },
        {
          "indexed": false,
          "internalType": "uint256",
          "name": "value",
          "type": "uint256"
        }
      ],
      "name": "Transfer",
      "type": "event"
    },
    {
      "inputs": [],
      "name": "BurnRouter",
      "outputs": [
        {
          "internalType": "contract IRouter",
          "name": "",
          "type": "address"
        }
      ],
      "stateMutability": "view",
      "type": "function"
    },
    {
      "inputs": [],
      "name": "Router",
      "outputs": [
        {
          "internalType": "contract IRouter",
          "name": "",
          "type": "address"
        }
      ],
      "stateMutability": "view",
      "type": "function"
    },
    {
      "inputs": [
        {
          "internalType": "address",
          "name": "pair",
          "type": "address"
        },
        {
          "internalType": "bool",
          "name": "value",
          "type": "bool"
        }
      ],
      "name": "_setAutomatedMarketMakerPair",
      "outputs": [],
      "stateMutability": "nonpayable",
      "type": "function"
    },
    {
      "inputs": [
        {
          "internalType": "address",
          "name": "owner",
          "type": "address"
        },
        {
          "internalType": "address",
          "name": "spender",
          "type": "address"
        }
      ],
      "name": "allowance",
      "outputs": [
        {
          "internalType": "uint256",
          "name": "",
          "type": "uint256"
        }
      ],
      "stateMutability": "view",
      "type": "function"
    },
    {
      "inputs": [
        {
          "internalType": "address",
          "name": "spender",
          "type": "address"
        },
        {
          "internalType": "uint256",
          "name": "amount",
          "type": "uint256"
        }
      ],
      "name": "approve",
      "outputs": [
        {
          "internalType": "bool",
          "name": "",
          "type": "bool"
        }
      ],
      "stateMutability": "nonpayable",
      "type": "function"
    },
    {
      "inputs": [
        {
          "internalType": "address",
          "name": "",
          "type": "address"
        }
      ],
      "name": "automatedMarketMakerPairs",
      "outputs": [
        {
          "internalType": "bool",
          "name": "",
          "type": "bool"
        }
      ],
      "stateMutability": "view",
      "type": "function"
    },
    {
      "inputs": [
        {
          "internalType": "address",
          "name": "account",
          "type": "address"
        }
      ],
      "name": "balanceOf",
      "outputs": [
        {
          "internalType": "uint256",
          "name": "",
          "type": "uint256"
        }
      ],
      "stateMutability": "view",
      "type": "function"
    },
    {
      "inputs": [],
      "name": "burnFee",
      "outputs": [
        {
          "internalType": "uint256",
          "name": "",
          "type": "uint256"
        }
      ],
      "stateMutability": "view",
      "type": "function"
    },
    {
      "inputs": [],
      "name": "burnToken",
      "outputs": [
        {
          "internalType": "address",
          "name": "",
          "type": "address"
        }
      ],
      "stateMutability": "view",
      "type": "function"
    },
    {
      "inputs": [],
      "name": "decimals",
      "outputs": [
        {
          "internalType": "uint8",
          "name": "",
          "type": "uint8"
        }
      ],
      "stateMutability": "view",
      "type": "function"
    },
    {
      "inputs": [
        {
          "internalType": "address",
          "name": "spender",
          "type": "address"
        },
        {
          "internalType": "uint256",
          "name": "subtractedValue",
          "type": "uint256"
        }
      ],
      "name": "decreaseAllowance",
      "outputs": [
        {
          "internalType": "bool",
          "name": "",
          "type": "bool"
        }
      ],
      "stateMutability": "nonpayable",
      "type": "function"
    },
    {
      "inputs": [],
      "name": "devFee",
      "outputs": [
        {
          "internalType": "uint256",
          "name": "",
          "type": "uint256"
        }
      ],
      "stateMutability": "view",
      "type": "function"
    },
    {
      "inputs": [
        {
          "internalType": "address",
          "name": "spender",
          "type": "address"
        },
        {
          "internalType": "uint256",
          "name": "addedValue",
          "type": "uint256"
        }
      ],
      "name": "increaseAllowance",
      "outputs": [
        {
          "internalType": "bool",
          "name": "",
          "type": "bool"
        }
      ],
      "stateMutability": "nonpayable",
      "type": "function"
    },
    {
      "inputs": [
        {
          "internalType": "address",
          "name": "account",
          "type": "address"
        }
      ],
      "name": "isUserExcludedFromFees",
      "outputs": [
        {
          "internalType": "bool",
          "name": "",
          "type": "bool"
        }
      ],
      "stateMutability": "view",
      "type": "function"
    },
    {
      "inputs": [],
      "name": "liqFee",
      "outputs": [
        {
          "internalType": "uint256",
          "name": "",
          "type": "uint256"
        }
      ],
      "stateMutability": "view",
      "type": "function"
    },
    {
      "inputs": [],
      "name": "manualSwapAndBurn",
      "outputs": [],
      "stateMutability": "nonpayable",
      "type": "function"
    },
    {
      "inputs": [],
      "name": "marketingWallet",
      "outputs": [
        {
          "internalType": "address payable",
          "name": "",
          "type": "address"
        }
      ],
      "stateMutability": "view",
      "type": "function"
    },
    {
      "inputs": [],
      "name": "name",
      "outputs": [
        {
          "internalType": "string",
          "name": "",
          "type": "string"
        }
      ],
      "stateMutability": "view",
      "type": "function"
    },
    {
      "inputs": [],
      "name": "owner",
      "outputs": [
        {
          "internalType": "address",
          "name": "",
          "type": "address"
        }
      ],
      "stateMutability": "view",
      "type": "function"
    },
    {
      "inputs": [],
      "name": "renounceOwnership",
      "outputs": [],
      "stateMutability": "nonpayable",
      "type": "function"
    },
    {
      "inputs": [
        {
          "internalType": "uint256",
          "name": "_newBurnFee",
          "type": "uint256"
        }
      ],
      "name": "setBurnFee",
      "outputs": [],
      "stateMutability": "nonpayable",
      "type": "function"
    },
    {
      "inputs": [
        {
          "internalType": "address",
          "name": "_newBurnRouter",
          "type": "address"
        }
      ],
      "name": "setBurnRouter",
      "outputs": [],
      "stateMutability": "nonpayable",
      "type": "function"
    },
    {
      "inputs": [
        {
          "internalType": "address",
          "name": "_newBurnToken",
          "type": "address"
        }
      ],
      "name": "setBurnToken",
      "outputs": [],
      "stateMutability": "nonpayable",
      "type": "function"
    },
    {
      "inputs": [
        {
          "internalType": "uint256",
          "name": "_newDevFee",
          "type": "uint256"
        }
      ],
      "name": "setDevFee",
      "outputs": [],
      "stateMutability": "nonpayable",
      "type": "function"
    },
    {
      "inputs": [
        {
          "internalType": "uint256",
          "name": "_newLiqFee",
          "type": "uint256"
        }
      ],
      "name": "setLiquidityFee",
      "outputs": [],
      "stateMutability": "nonpayable",
      "type": "function"
    },
    {
      "inputs": [
        {
          "internalType": "address payable",
          "name": "newMarketingWallet",
          "type": "address"
        }
      ],
      "name": "setMarketingWallet",
      "outputs": [],
      "stateMutability": "nonpayable",
      "type": "function"
    },
    {
      "inputs": [
        {
          "internalType": "uint256",
          "name": "_newSwapAtAmount",
          "type": "uint256"
        }
      ],
      "name": "setSwapAtAmount",
      "outputs": [],
      "stateMutability": "nonpayable",
      "type": "function"
    },
    {
      "inputs": [
        {
          "internalType": "address",
          "name": "account",
          "type": "address"
        },
        {
          "internalType": "bool",
          "name": "excluded",
          "type": "bool"
        }
      ],
      "name": "setUserExcludedFromFees",
      "outputs": [],
      "stateMutability": "nonpayable",
      "type": "function"
    },
    {
      "inputs": [],
      "name": "swapAtAmount",
      "outputs": [
        {
          "internalType": "uint256",
          "name": "",
          "type": "uint256"
        }
      ],
      "stateMutability": "view",
      "type": "function"
    },
    {
      "inputs": [],
      "name": "swapPair",
      "outputs": [
        {
          "internalType": "address",
          "name": "",
          "type": "address"
        }
      ],
      "stateMutability": "view",
      "type": "function"
    },
    {
      "inputs": [],
      "name": "symbol",
      "outputs": [
        {
          "internalType": "string",
          "name": "",
          "type": "string"
        }
      ],
      "stateMutability": "view",
      "type": "function"
    },
    {
      "inputs": [],
      "name": "totalFee",
      "outputs": [
        {
          "internalType": "uint256",
          "name": "",
          "type": "uint256"
        }
      ],
      "stateMutability": "view",
      "type": "function"
    },
    {
      "inputs": [],
      "name": "totalSupply",
      "outputs": [
        {
          "internalType": "uint256",
          "name": "",
          "type": "uint256"
        }
      ],
      "stateMutability": "view",
      "type": "function"
    },
    {
      "inputs": [
        {
          "internalType": "address",
          "name": "to",
          "type": "address"
        },
        {
          "internalType": "uint256",
          "name": "amount",
          "type": "uint256"
        }
      ],
      "name": "transfer",
      "outputs": [
        {
          "internalType": "bool",
          "name": "",
          "type": "bool"
        }
      ],
      "stateMutability": "nonpayable",
      "type": "function"
    },
    {
      "inputs": [
        {
          "internalType": "address",
          "name": "from",
          "type": "address"
        },
        {
          "internalType": "address",
          "name": "to",
          "type": "address"
        },
        {
          "internalType": "uint256",
          "name": "amount",
          "type": "uint256"
        }
      ],
      "name": "transferFrom",
      "outputs": [
        {
          "internalType": "bool",
          "name": "",
          "type": "bool"
        }
      ],
      "stateMutability": "nonpayable",
      "type": "function"
    },
    {
      "inputs": [
        {
          "internalType": "address",
          "name": "newOwner",
          "type": "address"
        }
      ],
      "name": "transferOwnership",
      "outputs": [],
      "stateMutability": "nonpayable",
      "type": "function"
    },
    {
      "inputs": [
        {
          "internalType": "address",
          "name": "newAddress",
          "type": "address"
        }
      ],
      "name": "updateSwapRouter",
      "outputs": [],
      "stateMutability": "nonpayable",
      "type": "function"
    },
    {
      "inputs": [],
      "name": "withdrawBNB",
      "outputs": [],
      "stateMutability": "nonpayable",
      "type": "function"
    },
    {
      "inputs": [
        {
          "internalType": "address",
          "name": "_tokenAddress",
          "type": "address"
        }
      ],
      "name": "withdrawToken",
      "outputs": [],
      "stateMutability": "nonpayable",
      "type": "function"
    },
    {
      "stateMutability": "payable",
      "type": "receive"
    }
  ],
  "bytecode": "0x6080604052601080546001600160a01b03191661dead1790553480156200002557600080fd5b506040516200388538038062003885833981016040819052620000489162000eb4565b8a8a620000553362000179565b60046200006383826200103b565b5060056200007282826200103b565b5050600e80546001600160a01b03199081166001600160a01b0389811691909117909255600d8054821688841617905560208901516007805491909316911617905550620000c089620001c9565b620000cb88620002a8565b620000d687620003ce565b620000e330600162000443565b6200010282620000fc85670de0b6b3a76400006200111d565b62000531565b620f42406200011060035490565b6200011d90600a6200111d565b6200012991906200113d565b600c558551620001399062000616565b6200014682600162000443565b80156200015d576200015762000a1e565b62000168565b620001688262000a36565b50505050505050505050506200119b565b600080546001600160a01b038381166001600160a01b0319831681178455604051919092169283917f8be0079c531659141344cd1fd0a4f28419497f9722a3daafe3b4186f6b6457e09190a35050565b620001d362000ab2565b6008819055600954600a54620001ea908362001160565b620001f6919062001160565b600b55600854156200026057600e546001600160a01b0316620002605760405162461bcd60e51b815260206004820152601a60248201527f536574204d61726b6574696e672057616c6c657420466972737400000000000060448201526064015b60405180910390fd5b6103e8600b541115620002a55760405162461bcd60e51b815260206004820152601b602482015260008051602062003865833981519152604482015260640162000257565b50565b620002b262000ab2565b600a819055600954600854620002ca90839062001160565b620002d6919062001160565b600b8190556103e810156200031d5760405162461bcd60e51b815260206004820152601b602482015260008051602062003865833981519152604482015260640162000257565b600a5415620002a557600d546001600160a01b0316620003745760405162461bcd60e51b8152602060048201526011602482015270109d5c9b951bdad95b881b9bdd0814d95d607a1b604482015260640162000257565b6007546001600160a01b0316620002a55760405162461bcd60e51b815260206004820152601360248201527f4275726e20526f75746572206e6f742053657400000000000000000000000000604482015260640162000257565b620003d862000ab2565b6009819055600a546008548291620003f09162001160565b620003fc919062001160565b600b8190556103e81015620002a55760405162461bcd60e51b815260206004820152601b602482015260008051602062003865833981519152604482015260640162000257565b6200044d62000ab2565b6001600160a01b03821660009081526012602052604090205481151560ff909116151503620004d25760405162461bcd60e51b815260206004820152602a60248201527f4163636f756e7420697320616c7265616479207468652076616c7565206f6620604482015269276578636c756465642760b01b606482015260840162000257565b6001600160a01b038216600081815260126020908152604091829020805460ff191685151590811790915591519182527f9d8f7706ea1113d1a167b526eca956215946dd36cc7df39eb16180222d8b5df7910160405180910390a25050565b6001600160a01b038216620005895760405162461bcd60e51b815260206004820152601f60248201527f45524332303a206d696e7420746f20746865207a65726f206164647265737300604482015260640162000257565b80600360008282546200059d919062001160565b90915550506001600160a01b03821660009081526001602052604081208054839290620005cc90849062001160565b90915550506040518181526001600160a01b038316906000907fddf252ad1be2c89b69c2b068fc378daa952ba7f163c4a11628f55a4df523b3ef9060200160405180910390a35050565b6200062062000ab2565b6006546001600160a01b03908116908216036200068c5760405162461bcd60e51b815260206004820152602360248201527f54686520726f7574657220616c7265616479206861732074686174206164647260448201526265737360e81b606482015260840162000257565b600680546001600160a01b0319166001600160a01b0383169081179091556040805163c45a015560e01b815290516000929163c45a01559160048083019260209291908290030181865afa158015620006e9573d6000803e3d6000fd5b505050506040513d601f19601f820116820180604052508101906200070f919062001176565b6001600160a01b031663e6a4390530600660009054906101000a90046001600160a01b03166001600160a01b031663ad5c46486040518163ffffffff1660e01b8152600401602060405180830381865afa15801562000772573d6000803e3d6000fd5b505050506040513d601f19601f8201168201806040525081019062000798919062001176565b6040516001600160e01b031960e085901b1681526001600160a01b03928316600482015291166024820152604401602060405180830381865afa158015620007e4573d6000803e3d6000fd5b505050506040513d601f19601f820116820180604052508101906200080a919062001176565b90506001600160a01b0381166200099557600660009054906101000a90046001600160a01b03166001600160a01b031663c45a01556040518163ffffffff1660e01b8152600401602060405180830381865afa1580156200086f573d6000803e3d6000fd5b505050506040513d601f19601f8201168201806040525081019062000895919062001176565b6001600160a01b031663c9c6539630600660009054906101000a90046001600160a01b03166001600160a01b031663ad5c46486040518163ffffffff1660e01b8152600401602060405180830381865afa158015620008f8573d6000803e3d6000fd5b505050506040513d601f19601f820116820180604052508101906200091e919062001176565b6040516001600160e01b031960e085901b1681526001600160a01b039283166004820152911660248201526044016020604051808303816000875af11580156200096c573d6000803e3d6000fd5b505050506040513d601f19601f8201168201806040525081019062000992919062001176565b90505b6001600160a01b03811660009081526011602052604090205460ff161515600114801590620009cc57506001600160a01b03811615155b15620009df57620009df81600162000b13565b600654620009fb9030906001600160a01b031660001962000c09565b600f80546001600160a01b0319166001600160a01b039290921691909117905550565b62000a2862000ab2565b62000a34600062000179565b565b62000a4062000ab2565b6001600160a01b03811662000aa75760405162461bcd60e51b815260206004820152602660248201527f4f776e61626c653a206e6577206f776e657220697320746865207a65726f206160448201526564647265737360d01b606482015260840162000257565b620002a58162000179565b6000546001600160a01b0316331462000a345760405162461bcd60e51b815260206004820181905260248201527f4f776e61626c653a2063616c6c6572206973206e6f7420746865206f776e6572604482015260640162000257565b505050565b62000b1d62000ab2565b6001600160a01b03821660009081526011602052604090205481151560ff90911615150362000bb55760405162461bcd60e51b815260206004820152603860248201527f4175746f6d61746564206d61726b6574206d616b65722070616972206973206160448201527f6c72656164792073657420746f20746861742076616c75650000000000000000606482015260840162000257565b6001600160a01b038216600081815260116020526040808220805460ff191685151590811790915590519092917fffa9187bf1f18bf477bd0ea1bcbb64e93b6a98132473929edfce215cd9b16fab91a35050565b6001600160a01b03831662000c6d5760405162461bcd60e51b8152602060048201526024808201527f45524332303a20617070726f76652066726f6d20746865207a65726f206164646044820152637265737360e01b606482015260840162000257565b6001600160a01b03821662000cd05760405162461bcd60e51b815260206004820152602260248201527f45524332303a20617070726f766520746f20746865207a65726f206164647265604482015261737360f01b606482015260840162000257565b6001600160a01b0383811660008181526002602090815260408083209487168084529482529182902085905590518481527f8c5be1e5ebec7d5bd14f71427d1e84f3dd0314c0f7b2291e5b200ac8c7c3b925910160405180910390a3505050565b634e487b7160e01b600052604160045260246000fd5b604051601f8201601f191681016001600160401b038111828210171562000d725762000d7262000d31565b604052919050565b600082601f83011262000d8c57600080fd5b81516001600160401b0381111562000da85762000da862000d31565b602062000dbe601f8301601f1916820162000d47565b828152858284870101111562000dd357600080fd5b60005b8381101562000df357858101830151828201840152820162000dd6565b506000928101909101919091529392505050565b80516001600160a01b038116811462000e1f57600080fd5b919050565b600082601f83011262000e3657600080fd5b604080519081016001600160401b038111828210171562000e5b5762000e5b62000d31565b806040525080604084018581111562000e7357600080fd5b845b8181101562000e985762000e898162000e07565b83526020928301920162000e75565b509195945050505050565b8051801515811462000e1f57600080fd5b60008060008060008060008060008060006101808c8e03121562000ed757600080fd5b8b516001600160401b0381111562000eee57600080fd5b62000efc8e828f0162000d7a565b60208e0151909c5090506001600160401b0381111562000f1b57600080fd5b62000f298e828f0162000d7a565b9a505060408c0151985060608c0151975060808c0151965062000f508d60a08e0162000e24565b955062000f6060e08d0162000e07565b945062000f716101008d0162000e07565b93506101208c0151925062000f8a6101408d0162000e07565b915062000f9b6101608d0162000ea3565b90509295989b509295989b9093969950565b600181811c9082168062000fc257607f821691505b60208210810362000fe357634e487b7160e01b600052602260045260246000fd5b50919050565b601f82111562000b0e57600081815260208120601f850160051c81016020861015620010125750805b601f850160051c820191505b8181101562001033578281556001016200101e565b505050505050565b81516001600160401b0381111562001057576200105762000d31565b6200106f8162001068845462000fad565b8462000fe9565b602080601f831160018114620010a757600084156200108e5750858301515b600019600386901b1c1916600185901b17855562001033565b600085815260208120601f198616915b82811015620010d857888601518255948401946001909101908401620010b7565b5085821015620010f75787850151600019600388901b60f8161c191681555b5050505050600190811b01905550565b634e487b7160e01b600052601160045260246000fd5b808202811582820484141762001137576200113762001107565b92915050565b6000826200115b57634e487b7160e01b600052601260045260246000fd5b500490565b8082018082111562001137576200113762001107565b6000602082840312156200118957600080fd5b620011948262000e07565b9392505050565b6126ba80620011ab6000396000f3fe6080604052600436106102345760003560e01c8063715018a61161012e578063a9059cbb116100ab578063dd62ed3e1161006f578063dd62ed3e14610699578063f2fde38b146106b9578063f6d7eade146106d9578063faa0a264146106f9578063fce589d81461071957600080fd5b8063a9059cbb146105f4578063b62496f514610614578063b9413b5114610644578063b98b677f14610659578063c35879801461067957600080fd5b80638da5cb5b116100f25780638da5cb5b1461056157806395d89b411461057f57806398da3ef314610594578063a457c2d7146105b4578063a7f7b36f146105d457600080fd5b8063715018a6146104bd57806375f0a874146104d257806386917524146104f2578063877c7ff914610508578063894760691461054157600080fd5b8063313ce567116101bc5780634bf2c7c9116101805780634bf2c7c9146104115780635d098b38146104315780636402511e146104515780636827e7641461047157806370a082311461048757600080fd5b8063313ce5671461037f578063357bf15c1461039b57806339509351146103bb57806339e196f6146103db5780633fb0da64146103fb57600080fd5b80631d111d13116102035780631d111d13146102dc5780631dc4b09c146102f15780631df4ccfc1461031157806323b872dd1461032757806326991cc81461034757600080fd5b806306fdde0314610240578063095ea7b31461026b57806318160ddd1461029b5780631c75b6b2146102ba57600080fd5b3661023b57005b600080fd5b34801561024c57600080fd5b5061025561072f565b60405161026291906122cf565b60405180910390f35b34801561027757600080fd5b5061028b610286366004612317565b6107c1565b6040519015158152602001610262565b3480156102a757600080fd5b506003545b604051908152602001610262565b3480156102c657600080fd5b506102da6102d5366004612343565b6107db565b005b3480156102e857600080fd5b506102da610891565b3480156102fd57600080fd5b506102da61030c36600461235c565b610959565b34801561031d57600080fd5b506102ac600b5481565b34801561033357600080fd5b5061028b610342366004612380565b610983565b34801561035357600080fd5b50600f54610367906001600160a01b031681565b6040516001600160a01b039091168152602001610262565b34801561038b57600080fd5b5060405160128152602001610262565b3480156103a757600080fd5b506102da6103b6366004612343565b6109a7565b3480156103c757600080fd5b5061028b6103d6366004612317565b6109f5565b3480156103e757600080fd5b506102da6103f63660046123cf565b610a17565b34801561040757600080fd5b506102ac60095481565b34801561041d57600080fd5b506102da61042c366004612343565b610b01565b34801561043d57600080fd5b506102da61044c36600461235c565b610bf1565b34801561045d57600080fd5b506102da61046c366004612343565b610c6c565b34801561047d57600080fd5b506102ac60085481565b34801561049357600080fd5b506102ac6104a236600461235c565b6001600160a01b031660009081526001602052604090205490565b3480156104c957600080fd5b506102da610c79565b3480156104de57600080fd5b50600e54610367906001600160a01b031681565b3480156104fe57600080fd5b506102ac600c5481565b34801561051457600080fd5b5061028b61052336600461235c565b6001600160a01b031660009081526012602052604090205460ff1690565b34801561054d57600080fd5b506102da61055c36600461235c565b610c8d565b34801561056d57600080fd5b506000546001600160a01b0316610367565b34801561058b57600080fd5b50610255610d7a565b3480156105a057600080fd5b50600754610367906001600160a01b031681565b3480156105c057600080fd5b5061028b6105cf366004612317565b610d89565b3480156105e057600080fd5b506102da6105ef3660046123cf565b610e04565b34801561060057600080fd5b5061028b61060f366004612317565b610ef6565b34801561062057600080fd5b5061028b61062f36600461235c565b60116020526000908152604090205460ff1681565b34801561065057600080fd5b506102da610f04565b34801561066557600080fd5b506102da61067436600461235c565b611349565b34801561068557600080fd5b506102da61069436600461235c565b611734565b3480156106a557600080fd5b506102ac6106b4366004612408565b61175e565b3480156106c557600080fd5b506102da6106d436600461235c565b611789565b3480156106e557600080fd5b50600654610367906001600160a01b031681565b34801561070557600080fd5b50600d54610367906001600160a01b031681565b34801561072557600080fd5b506102ac600a5481565b60606004805461073e90612436565b80601f016020809104026020016040519081016040528092919081815260200182805461076a90612436565b80156107b75780601f1061078c576101008083540402835291602001916107b7565b820191906000526020600020905b81548152906001019060200180831161079a57829003601f168201915b5050505050905090565b6000336107cf8185856117ff565b60019150505b92915050565b6107e3611923565b6008819055600954600a546107f89083612486565b6108029190612486565b600b556008541561086a57600e546001600160a01b031661086a5760405162461bcd60e51b815260206004820152601a60248201527f536574204d61726b6574696e672057616c6c657420466972737400000000000060448201526064015b60405180910390fd5b6103e8600b54111561088e5760405162461bcd60e51b815260040161086190612499565b50565b610899611923565b60408051600080825260208201909252339047906040516108ba91906124d0565b60006040518083038185875af1925050503d80600081146108f7576040519150601f19603f3d011682016040523d82523d6000602084013e6108fc565b606091505b505090508061088e5760405162461bcd60e51b815260206004820152602360248201527f5472616e7366657248656c7065723a204554485f5452414e534645525f46414960448201526213115160ea1b6064820152608401610861565b610961611923565b600780546001600160a01b0319166001600160a01b0392909216919091179055565b60003361099185828561197d565b61099c8585856119f7565b506001949350505050565b6109af611923565b6009819055600a5460085482916109c591612486565b6109cf9190612486565b600b8190556103e8101561088e5760405162461bcd60e51b815260040161086190612499565b6000336107cf818585610a08838361175e565b610a129190612486565b6117ff565b610a1f611923565b6001600160a01b03821660009081526012602052604090205481151560ff909116151503610aa25760405162461bcd60e51b815260206004820152602a60248201527f4163636f756e7420697320616c7265616479207468652076616c7565206f6620604482015269276578636c756465642760b01b6064820152608401610861565b6001600160a01b038216600081815260126020908152604091829020805460ff191685151590811790915591519182527f9d8f7706ea1113d1a167b526eca956215946dd36cc7df39eb16180222d8b5df7910160405180910390a25050565b610b09611923565b600a819055600954600854610b1f908390612486565b610b299190612486565b600b8190556103e81015610b4f5760405162461bcd60e51b815260040161086190612499565b600a541561088e57600d546001600160a01b0316610ba35760405162461bcd60e51b8152602060048201526011602482015270109d5c9b951bdad95b881b9bdd0814d95d607a1b6044820152606401610861565b6007546001600160a01b031661088e5760405162461bcd60e51b8152602060048201526013602482015272109d5c9b88149bdd5d195c881b9bdd0814d95d606a1b6044820152606401610861565b610bf9611923565b600e546001600160a01b03166000908152601260205260409020805460ff19166001179055600e54610c35906001600160a01b03166000610a17565b600e80546001600160a01b0319166001600160a01b039290921691821790556000908152601260205260409020805460ff19169055565b610c74611923565b600c55565b610c81611923565b610c8b6000611b4b565b565b610c95611923565b6040516370a0823160e01b81523060048201526001600160a01b0382169063a9059cbb90339083906370a0823190602401602060405180830381865afa158015610ce3573d6000803e3d6000fd5b505050506040513d601f19601f82011682018060405250810190610d0791906124ec565b6040516001600160e01b031960e085901b1681526001600160a01b03909216600483015260248201526044016020604051808303816000875af1158015610d52573d6000803e3d6000fd5b505050506040513d601f19601f82011682018060405250810190610d769190612505565b5050565b60606005805461073e90612436565b60003381610d97828661175e565b905083811015610df75760405162461bcd60e51b815260206004820152602560248201527f45524332303a2064656372656173656420616c6c6f77616e63652062656c6f77604482015264207a65726f60d81b6064820152608401610861565b61099c82868684036117ff565b610e0c611923565b6001600160a01b03821660009081526011602052604090205481151560ff909116151503610ea25760405162461bcd60e51b815260206004820152603860248201527f4175746f6d61746564206d61726b6574206d616b65722070616972206973206160448201527f6c72656164792073657420746f20746861742076616c756500000000000000006064820152608401610861565b6001600160a01b038216600081815260116020526040808220805460ff191685151590811790915590519092917fffa9187bf1f18bf477bd0ea1bcbb64e93b6a98132473929edfce215cd9b16fab91a35050565b6000336107cf8185856119f7565b610f0c611923565b3060009081526001602052604081205460095415610f4c57600954600b54610f35906002612522565b610f3f9083612539565b610f499190612522565b91505b6000610f58838361255b565b60408051600280825260608201835292935047926000926020830190803683370190505090503081600081518110610f9257610f9261256e565b6001600160a01b03928316602091820292909201810191909152600654604080516315ab88c960e31b81529051919093169263ad5c46489260048083019391928290030181865afa158015610feb573d6000803e3d6000fd5b505050506040513d601f19601f8201168201806040525081019061100f9190612584565b816001815181106110225761102261256e565b6001600160a01b03928316602091820292909201015260065460405163791ac94760e01b815291169063791ac947906110689086906000908690309042906004016125e5565b600060405180830381600087803b15801561108257600080fd5b505af1925050508015611093575060015b6110d75760405162461bcd60e51b815260206004820152601560248201527408cc2d2d8cac840e8de40e6eec2e040e8de40cae8d605b1b6044820152606401610861565b600954156111315760006110eb834761255b565b90506000600954600b5460026111019190612522565b61110b919061255b565b6009546111189084612522565b6111229190612539565b905061112e8782611b9b565b50505b600a54156112ff576000600854600a5461114b9190612486565b600a546111589047612522565b6111629190612539565b60408051600280825260608201835292935060009290916020830190803683375050600754604080516315ab88c960e31b815290519394506001600160a01b039091169263ad5c4648925060048083019260209291908290030181865afa1580156111d1573d6000803e3d6000fd5b505050506040513d601f19601f820116820180604052508101906111f59190612584565b816000815181106112085761120861256e565b6001600160a01b039283166020918202929092010152600d548251911690829060019081106112395761123961256e565b6001600160a01b03928316602091820292909201015260075460105460405163b6f9de9560e01b81529183169263b6f9de95928692611285926000928892909116904290600401612621565b6000604051808303818588803b15801561129e57600080fd5b505af1935050505080156112b0575060015b6112fc5760405162461bcd60e51b815260206004820152601c60248201527f4661696c656420746f207377617020666f72204275726e546f6b656e000000006044820152606401610861565b50505b6008541561134257600e546040516001600160a01b03909116904780156108fc02916000818181858888f19350505050158015611340573d6000803e3d6000fd5b505b5050505050565b611351611923565b6006546001600160a01b03908116908216036113bb5760405162461bcd60e51b815260206004820152602360248201527f54686520726f7574657220616c7265616479206861732074686174206164647260448201526265737360e81b6064820152608401610861565b600680546001600160a01b0319166001600160a01b0383169081179091556040805163c45a015560e01b815290516000929163c45a01559160048083019260209291908290030181865afa158015611417573d6000803e3d6000fd5b505050506040513d601f19601f8201168201806040525081019061143b9190612584565b6001600160a01b031663e6a4390530600660009054906101000a90046001600160a01b03166001600160a01b031663ad5c46486040518163ffffffff1660e01b8152600401602060405180830381865afa15801561149d573d6000803e3d6000fd5b505050506040513d601f19601f820116820180604052508101906114c19190612584565b6040516001600160e01b031960e085901b1681526001600160a01b03928316600482015291166024820152604401602060405180830381865afa15801561150c573d6000803e3d6000fd5b505050506040513d601f19601f820116820180604052508101906115309190612584565b90506001600160a01b0381166116b157600660009054906101000a90046001600160a01b03166001600160a01b031663c45a01556040518163ffffffff1660e01b8152600401602060405180830381865afa158015611593573d6000803e3d6000fd5b505050506040513d601f19601f820116820180604052508101906115b79190612584565b6001600160a01b031663c9c6539630600660009054906101000a90046001600160a01b03166001600160a01b031663ad5c46486040518163ffffffff1660e01b8152600401602060405180830381865afa158015611619573d6000803e3d6000fd5b505050506040513d601f19601f8201168201806040525081019061163d9190612584565b6040516001600160e01b031960e085901b1681526001600160a01b039283166004820152911660248201526044016020604051808303816000875af115801561168a573d6000803e3d6000fd5b505050506040513d601f19601f820116820180604052508101906116ae9190612584565b90505b6001600160a01b03811660009081526011602052604090205460ff1615156001148015906116e757506001600160a01b03811615155b156116f7576116f7816001610e04565b6006546117119030906001600160a01b03166000196117ff565b600f80546001600160a01b0319166001600160a01b039290921691909117905550565b61173c611923565b600d80546001600160a01b0319166001600160a01b0392909216919091179055565b6001600160a01b03918216600090815260026020908152604080832093909416825291909152205490565b611791611923565b6001600160a01b0381166117f65760405162461bcd60e51b815260206004820152602660248201527f4f776e61626c653a206e6577206f776e657220697320746865207a65726f206160448201526564647265737360d01b6064820152608401610861565b61088e81611b4b565b6001600160a01b0383166118615760405162461bcd60e51b8152602060048201526024808201527f45524332303a20617070726f76652066726f6d20746865207a65726f206164646044820152637265737360e01b6064820152608401610861565b6001600160a01b0382166118c25760405162461bcd60e51b815260206004820152602260248201527f45524332303a20617070726f766520746f20746865207a65726f206164647265604482015261737360f01b6064820152608401610861565b6001600160a01b0383811660008181526002602090815260408083209487168084529482529182902085905590518481527f8c5be1e5ebec7d5bd14f71427d1e84f3dd0314c0f7b2291e5b200ac8c7c3b925910160405180910390a3505050565b6000546001600160a01b03163314610c8b5760405162461bcd60e51b815260206004820181905260248201527f4f776e61626c653a2063616c6c6572206973206e6f7420746865206f776e65726044820152606401610861565b6000611989848461175e565b905060001981146119f157818110156119e45760405162461bcd60e51b815260206004820152601d60248201527f45524332303a20696e73756666696369656e7420616c6c6f77616e63650000006044820152606401610861565b6119f184848484036117ff565b50505050565b6001600160a01b03831660009081526012602052604090205460ff16158015611a3957506001600160a01b03821660009081526012602052604090205460ff16155b15611b3b576001600160a01b03821660009081526011602052604090205460ff1680611a7d57506001600160a01b03831660009081526011602052604090205460ff165b15611b3b5760006008541180611a9557506000600a54115b80611aa257506000600954115b15611b3b576000612710600b5483611aba9190612522565b611ac49190612539565b600c5430600090815260016020526040902054919250108015611aea575060135460ff16155b8015611b0e57506001600160a01b03831660009081526011602052604090205460ff165b15611b1b57611b1b611c74565b8015611b3957611b2c8430836120dd565b611b36818361255b565b91505b505b611b468383836120dd565b505050565b600080546001600160a01b038381166001600160a01b0319831681178455604051919092169283917f8be0079c531659141344cd1fd0a4f28419497f9722a3daafe3b4186f6b6457e09190a35050565b60065460105460405163f305d71960e01b81523060048201526024810185905260006044820181905260648201526001600160a01b0391821660848201524260a482015291169063f305d71990839060c40160606040518083038185885af193505050508015611c28575060408051601f3d908101601f19168201909252611c2591810190612656565b60015b6113425760405162461bcd60e51b815260206004820152601760248201527f4661696c656420746f20616464206c69717569646974790000000000000000006044820152606401610861565b6013805460ff19166001179055600080611ca3306001600160a01b031660009081526001602052604090205490565b60095490915015611cd657600954600b54611cbf906002612522565b611cc99083612539565b611cd39190612522565b91505b6000611ce2838361255b565b60408051600280825260608201835292935047926000926020830190803683370190505090503081600081518110611d1c57611d1c61256e565b6001600160a01b03928316602091820292909201810191909152600654604080516315ab88c960e31b81529051919093169263ad5c46489260048083019391928290030181865afa158015611d75573d6000803e3d6000fd5b505050506040513d601f19601f82011682018060405250810190611d999190612584565b81600181518110611dac57611dac61256e565b6001600160a01b03928316602091820292909201015260065460405163791ac94760e01b815291169063791ac94790611df29086906000908690309042906004016125e5565b600060405180830381600087803b158015611e0c57600080fd5b505af1925050508015611e1d575060015b611e615760405162461bcd60e51b815260206004820152601560248201527408cc2d2d8cac840e8de40e6eec2e040e8de40cae8d605b1b6044820152606401610861565b60095415611ebb576000611e75834761255b565b90506000600954600b546002611e8b9190612522565b611e95919061255b565b600954611ea29084612522565b611eac9190612539565b9050611eb88782611b9b565b50505b600a5415612089576000600854600a54611ed59190612486565b600a54611ee29047612522565b611eec9190612539565b60408051600280825260608201835292935060009290916020830190803683375050600754604080516315ab88c960e31b815290519394506001600160a01b039091169263ad5c4648925060048083019260209291908290030181865afa158015611f5b573d6000803e3d6000fd5b505050506040513d601f19601f82011682018060405250810190611f7f9190612584565b81600081518110611f9257611f9261256e565b6001600160a01b039283166020918202929092010152600d54825191169082906001908110611fc357611fc361256e565b6001600160a01b03928316602091820292909201015260075460105460405163b6f9de9560e01b81529183169263b6f9de9592869261200f926000928892909116904290600401612621565b6000604051808303818588803b15801561202857600080fd5b505af19350505050801561203a575060015b6120865760405162461bcd60e51b815260206004820152601c60248201527f4661696c656420746f207377617020666f72204275726e546f6b656e000000006044820152606401610861565b50505b600854156120cc57600e546040516001600160a01b03909116904780156108fc02916000818181858888f193505050501580156120ca573d6000803e3d6000fd5b505b50506013805460ff19169055505050565b6001600160a01b0383166121415760405162461bcd60e51b815260206004820152602560248201527f45524332303a207472616e736665722066726f6d20746865207a65726f206164604482015264647265737360d81b6064820152608401610861565b6001600160a01b0382166121a35760405162461bcd60e51b815260206004820152602360248201527f45524332303a207472616e7366657220746f20746865207a65726f206164647260448201526265737360e81b6064820152608401610861565b6001600160a01b0383166000908152600160205260409020548181101561221b5760405162461bcd60e51b815260206004820152602660248201527f45524332303a207472616e7366657220616d6f756e7420657863656564732062604482015265616c616e636560d01b6064820152608401610861565b6001600160a01b03808516600090815260016020526040808220858503905591851681529081208054849290612252908490612486565b92505081905550826001600160a01b0316846001600160a01b03167fddf252ad1be2c89b69c2b068fc378daa952ba7f163c4a11628f55a4df523b3ef8460405161229e91815260200190565b60405180910390a36119f1565b60005b838110156122c65781810151838201526020016122ae565b50506000910152565b60208152600082518060208401526122ee8160408501602087016122ab565b601f01601f19169190910160400192915050565b6001600160a01b038116811461088e57600080fd5b6000806040838503121561232a57600080fd5b823561233581612302565b946020939093013593505050565b60006020828403121561235557600080fd5b5035919050565b60006020828403121561236e57600080fd5b813561237981612302565b9392505050565b60008060006060848603121561239557600080fd5b83356123a081612302565b925060208401356123b081612302565b929592945050506040919091013590565b801515811461088e57600080fd5b600080604083850312156123e257600080fd5b82356123ed81612302565b915060208301356123fd816123c1565b809150509250929050565b6000806040838503121561241b57600080fd5b823561242681612302565b915060208301356123fd81612302565b600181811c9082168061244a57607f821691505b60208210810361246a57634e487b7160e01b600052602260045260246000fd5b50919050565b634e487b7160e01b600052601160045260246000fd5b808201808211156107d5576107d5612470565b6020808252601b908201527f546f74616c4665652063616e6e6f742065786365656420313030300000000000604082015260600190565b600082516124e28184602087016122ab565b9190910192915050565b6000602082840312156124fe57600080fd5b5051919050565b60006020828403121561251757600080fd5b8151612379816123c1565b80820281158282048414176107d5576107d5612470565b60008261255657634e487b7160e01b600052601260045260246000fd5b500490565b818103818111156107d5576107d5612470565b634e487b7160e01b600052603260045260246000fd5b60006020828403121561259657600080fd5b815161237981612302565b600081518084526020808501945080840160005b838110156125da5781516001600160a01b0316875295820195908201906001016125b5565b509495945050505050565b85815284602082015260a06040820152600061260460a08301866125a1565b6001600160a01b0394909416606083015250608001529392505050565b84815260806020820152600061263a60808301866125a1565b6001600160a01b03949094166040830152506060015292915050565b60008060006060848603121561266b57600080fd5b835192506020840151915060408401519050925092509256fea26469706673582212204fba81f353b0bbfa6d3cb881d438232dbd1e04f83f867c70d678596a9f26c96e64736f6c63430008140033546f74616c4665652063616e6e6f742065786365656420313030300000000000",
  "linkReferences": {},
  "deployedLinkReferences": {}
}