{
	"MSWAP/OneRouter.sol": {
		"MarsRouter": {
			"abi": [
				{
					"inputs": [
						{
							"internalType": "address",
							"name": "_WETH",
							"type": "address"
						},
						{
							"internalType": "address",
							"name": "_treasury",
							"type": "address"
						},
						{
							"internalType": "uint256",
							"name": "_txFee",
							"type": "uint256"
						}
					],
					"stateMutability": "nonpayable",
					"type": "constructor"
				},
				{
					"anonymous": false,
					"inputs": [
						{
							"indexed": true,
							"internalType": "address",
							"name": "previousOwner",
							"type": "address"
						},
						{
							"indexed": true,
							"internalType": "address",
							"name": "newOwner",
							"type": "address"
						}
					],
					"name": "OwnershipTransferred",
					"type": "event"
				},
				{
					"inputs": [],
					"name": "WETH",
					"outputs": [
						{
							"internalType": "address",
							"name": "",
							"type": "address"
						}
					],
					"stateMutability": "view",
					"type": "function"
				},
				{
					"inputs": [
						{
							"internalType": "uint256",
							"name": "_newFee",
							"type": "uint256"
						}
					],
					"name": "changeFee",
					"outputs": [],
					"stateMutability": "nonpayable",
					"type": "function"
				},
				{
					"inputs": [
						{
							"internalType": "address",
							"name": "_newTreasury",
							"type": "address"
						}
					],
					"name": "changeTreasury",
					"outputs": [],
					"stateMutability": "nonpayable",
					"type": "function"
				},
				{
					"inputs": [],
					"name": "flatFee",
					"outputs": [
						{
							"internalType": "uint256",
							"name": "fee",
							"type": "uint256"
						}
					],
					"stateMutability": "view",
					"type": "function"
				},
				{
					"inputs": [
						{
							"internalType": "address",
							"name": "account",
							"type": "address"
						}
					],
					"name": "isOwner",
					"outputs": [
						{
							"internalType": "bool",
							"name": "",
							"type": "bool"
						}
					],
					"stateMutability": "view",
					"type": "function"
				},
				{
					"inputs": [],
					"name": "owner",
					"outputs": [
						{
							"internalType": "address",
							"name": "",
							"type": "address"
						}
					],
					"stateMutability": "view",
					"type": "function"
				},
				{
					"inputs": [],
					"name": "renounceOwnership",
					"outputs": [],
					"stateMutability": "nonpayable",
					"type": "function"
				},
				{
					"inputs": [
						{
							"internalType": "uint256",
							"name": "amountOut",
							"type": "uint256"
						},
						{
							"internalType": "address[]",
							"name": "path",
							"type": "address[]"
						},
						{
							"internalType": "address",
							"name": "to",
							"type": "address"
						},
						{
							"internalType": "uint256",
							"name": "deadline",
							"type": "uint256"
						},
						{
							"internalType": "address",
							"name": "router",
							"type": "address"
						}
					],
					"name": "swapETHForExactTokens",
					"outputs": [
						{
							"internalType": "uint256[]",
							"name": "amounts",
							"type": "uint256[]"
						}
					],
					"stateMutability": "payable",
					"type": "function"
				},
				{
					"inputs": [
						{
							"internalType": "uint256",
							"name": "amountOutMin",
							"type": "uint256"
						},
						{
							"internalType": "address[]",
							"name": "path",
							"type": "address[]"
						},
						{
							"internalType": "address",
							"name": "to",
							"type": "address"
						},
						{
							"internalType": "uint256",
							"name": "deadline",
							"type": "uint256"
						},
						{
							"internalType": "address",
							"name": "router",
							"type": "address"
						}
					],
					"name": "swapExactETHForTokens",
					"outputs": [
						{
							"internalType": "uint256[]",
							"name": "amounts",
							"type": "uint256[]"
						}
					],
					"stateMutability": "payable",
					"type": "function"
				},
				{
					"inputs": [
						{
							"internalType": "uint256",
							"name": "amountOutMin",
							"type": "uint256"
						},
						{
							"internalType": "address[]",
							"name": "path",
							"type": "address[]"
						},
						{
							"internalType": "address",
							"name": "to",
							"type": "address"
						},
						{
							"internalType": "uint256",
							"name": "deadline",
							"type": "uint256"
						},
						{
							"internalType": "address",
							"name": "router",
							"type": "address"
						}
					],
					"name": "swapExactETHForTokensSupportingFeeOnTransferTokens",
					"outputs": [],
					"stateMutability": "payable",
					"type": "function"
				},
				{
					"inputs": [
						{
							"internalType": "uint256",
							"name": "amountIn",
							"type": "uint256"
						},
						{
							"internalType": "uint256",
							"name": "amountOutMin",
							"type": "uint256"
						},
						{
							"internalType": "address[]",
							"name": "path",
							"type": "address[]"
						},
						{
							"internalType": "address",
							"name": "to",
							"type": "address"
						},
						{
							"internalType": "uint256",
							"name": "deadline",
							"type": "uint256"
						},
						{
							"internalType": "address",
							"name": "router",
							"type": "address"
						}
					],
					"name": "swapExactTokensForETH",
					"outputs": [
						{
							"internalType": "uint256[]",
							"name": "amounts",
							"type": "uint256[]"
						}
					],
					"stateMutability": "payable",
					"type": "function"
				},
				{
					"inputs": [
						{
							"internalType": "uint256",
							"name": "amountIn",
							"type": "uint256"
						},
						{
							"internalType": "uint256",
							"name": "amountOutMin",
							"type": "uint256"
						},
						{
							"internalType": "address[]",
							"name": "path",
							"type": "address[]"
						},
						{
							"internalType": "address",
							"name": "to",
							"type": "address"
						},
						{
							"internalType": "uint256",
							"name": "deadline",
							"type": "uint256"
						},
						{
							"internalType": "address",
							"name": "router",
							"type": "address"
						}
					],
					"name": "swapExactTokensForETHSupportingFeeOnTransferTokens",
					"outputs": [],
					"stateMutability": "payable",
					"type": "function"
				},
				{
					"inputs": [
						{
							"internalType": "uint256",
							"name": "amountIn",
							"type": "uint256"
						},
						{
							"internalType": "uint256",
							"name": "amountOutMin",
							"type": "uint256"
						},
						{
							"internalType": "address[]",
							"name": "path",
							"type": "address[]"
						},
						{
							"internalType": "address",
							"name": "to",
							"type": "address"
						},
						{
							"internalType": "uint256",
							"name": "deadline",
							"type": "uint256"
						},
						{
							"internalType": "address",
							"name": "router",
							"type": "address"
						}
					],
					"name": "swapExactTokensForTokens",
					"outputs": [
						{
							"internalType": "uint256[]",
							"name": "amounts",
							"type": "uint256[]"
						}
					],
					"stateMutability": "payable",
					"type": "function"
				},
				{
					"inputs": [
						{
							"internalType": "uint256",
							"name": "amountIn",
							"type": "uint256"
						},
						{
							"internalType": "uint256",
							"name": "amountOutMin",
							"type": "uint256"
						},
						{
							"internalType": "address[]",
							"name": "path",
							"type": "address[]"
						},
						{
							"internalType": "address",
							"name": "to",
							"type": "address"
						},
						{
							"internalType": "uint256",
							"name": "deadline",
							"type": "uint256"
						},
						{
							"internalType": "address",
							"name": "router",
							"type": "address"
						}
					],
					"name": "swapExactTokensForTokensSupportingFeeOnTransferTokens",
					"outputs": [],
					"stateMutability": "payable",
					"type": "function"
				},
				{
					"inputs": [
						{
							"internalType": "uint256",
							"name": "amountOut",
							"type": "uint256"
						},
						{
							"internalType": "uint256",
							"name": "amountInMax",
							"type": "uint256"
						},
						{
							"internalType": "address[]",
							"name": "path",
							"type": "address[]"
						},
						{
							"internalType": "address",
							"name": "to",
							"type": "address"
						},
						{
							"internalType": "uint256",
							"name": "deadline",
							"type": "uint256"
						},
						{
							"internalType": "address",
							"name": "router",
							"type": "address"
						}
					],
					"name": "swapTokensForExactETH",
					"outputs": [
						{
							"internalType": "uint256[]",
							"name": "amounts",
							"type": "uint256[]"
						}
					],
					"stateMutability": "payable",
					"type": "function"
				},
				{
					"inputs": [
						{
							"internalType": "uint256",
							"name": "amountOut",
							"type": "uint256"
						},
						{
							"internalType": "uint256",
							"name": "amountInMax",
							"type": "uint256"
						},
						{
							"internalType": "address[]",
							"name": "path",
							"type": "address[]"
						},
						{
							"internalType": "address",
							"name": "to",
							"type": "address"
						},
						{
							"internalType": "uint256",
							"name": "deadline",
							"type": "uint256"
						},
						{
							"internalType": "address",
							"name": "router",
							"type": "address"
						}
					],
					"name": "swapTokensForExactTokens",
					"outputs": [
						{
							"internalType": "uint256[]",
							"name": "amounts",
							"type": "uint256[]"
						}
					],
					"stateMutability": "payable",
					"type": "function"
				},
				{
					"inputs": [
						{
							"internalType": "address",
							"name": "newOwner",
							"type": "address"
						}
					],
					"name": "transferOwnership",
					"outputs": [],
					"stateMutability": "nonpayable",
					"type": "function"
				},
				{
					"inputs": [],
					"name": "treasury",
					"outputs": [
						{
							"internalType": "address",
							"name": "",
							"type": "address"
						}
					],
					"stateMutability": "view",
					"type": "function"
				},
				{
					"inputs": [],
					"name": "txFee",
					"outputs": [
						{
							"internalType": "uint256",
							"name": "",
							"type": "uint256"
						}
					],
					"stateMutability": "view",
					"type": "function"
				},
				{
					"inputs": [],
					"name": "withdawlBNB",
					"outputs": [],
					"stateMutability": "nonpayable",
					"type": "function"
				},
				{
					"inputs": [
						{
							"internalType": "address",
							"name": "_tokenAddress",
							"type": "address"
						}
					],
					"name": "withdrawlToken",
					"outputs": [],
					"stateMutability": "nonpayable",
					"type": "function"
				},
				{
					"stateMutability": "payable",
					"type": "receive"
				}
			],
			"devdoc": {
				"kind": "dev",
				"methods": {},
				"version": 1
			},
			"evm": {
				"assembly": "    /* \"MSWAP/OneRouter.sol\":9145:20934  contract MarsRouter is Ownable {\r... */\n  mstore(0x40, 0xa0)\n  not(0x00)\n    /* \"MSWAP/OneRouter.sol\":9215:9243  uint256 MAX_INT = 2**256 - 1 */\n  0x01\n  sstore\n    /* \"MSWAP/OneRouter.sol\":9480:9629  constructor(address _WETH, address _treasury, uint256 _txFee) {\r... */\n  callvalue\n  dup1\n  iszero\n  tag_1\n  jumpi\n  0x00\n  dup1\n  revert\ntag_1:\n  pop\n  mload(0x40)\n  sub(codesize, bytecodeSize)\n  dup1\n  bytecodeSize\n  dup4\n  codecopy\n  dup2\n  add\n  0x40\n  dup2\n  swap1\n  mstore\n  tag_2\n  swap2\n  tag_3\n  jump\t// in\ntag_2:\n    /* \"MSWAP/OneRouter.sol\":7277:7283  _owner */\n  0x00\n    /* \"MSWAP/OneRouter.sol\":7277:7296  _owner = msg.sender */\n  dup1\n  sload\n  not(sub(shl(0xa0, 0x01), 0x01))\n  and\n    /* \"MSWAP/OneRouter.sol\":7286:7296  msg.sender */\n  caller\n    /* \"MSWAP/OneRouter.sol\":7277:7296  _owner = msg.sender */\n  swap1\n  dup2\n  or\n  dup3\n  sstore\n    /* \"MSWAP/OneRouter.sol\":7312:7352  OwnershipTransferred(address(0), _owner) */\n  mload(0x40)\n    /* \"MSWAP/OneRouter.sol\":7286:7296  msg.sender */\n  swap1\n  swap2\n    /* \"MSWAP/OneRouter.sol\":7277:7283  _owner */\n  swap1\n    /* \"MSWAP/OneRouter.sol\":7312:7352  OwnershipTransferred(address(0), _owner) */\n  0x8be0079c531659141344cd1fd0a4f28419497f9722a3daafe3b4186f6b6457e0\n  swap1\n    /* \"MSWAP/OneRouter.sol\":7277:7283  _owner */\n  dup3\n  swap1\n    /* \"MSWAP/OneRouter.sol\":7312:7352  OwnershipTransferred(address(0), _owner) */\n  log3\n    /* \"MSWAP/OneRouter.sol\":9553:9565  WETH = _WETH */\n  0x60\n  swap3\n  swap1\n  swap3\n  shl\n  not(sub(shl(0x60, 0x01), 0x01))\n  and\n  0x80\n  mstore\n    /* \"MSWAP/OneRouter.sol\":9576:9584  treasury */\n  0x02\n    /* \"MSWAP/OneRouter.sol\":9576:9596  treasury = _treasury */\n  dup1\n  sload\n  not(sub(shl(0xa0, 0x01), 0x01))\n  and\n  sub(shl(0xa0, 0x01), 0x01)\n  swap3\n  swap1\n  swap3\n  and\n  swap2\n  swap1\n  swap2\n  or\n  swap1\n  sstore\n    /* \"MSWAP/OneRouter.sol\":9607:9612  txFee */\n  0x03\n    /* \"MSWAP/OneRouter.sol\":9607:9621  txFee = _txFee */\n  sstore\n    /* \"MSWAP/OneRouter.sol\":9145:20934  contract MarsRouter is Ownable {\r... */\n  jump(tag_9)\n    /* \"#utility.yul\":14:191   */\ntag_10:\n    /* \"#utility.yul\":93:106   */\n  dup1\n  mload\n  sub(shl(0xa0, 0x01), 0x01)\n    /* \"#utility.yul\":135:166   */\n  dup2\n  and\n    /* \"#utility.yul\":125:167   */\n  dup2\n  eq\n    /* \"#utility.yul\":115:185   */\n  tag_12\n  jumpi\n    /* \"#utility.yul\":181:182   */\n  0x00\n    /* \"#utility.yul\":178:179   */\n  dup1\n    /* \"#utility.yul\":171:183   */\n  revert\n    /* \"#utility.yul\":115:185   */\ntag_12:\n    /* \"#utility.yul\":14:191   */\n  swap2\n  swap1\n  pop\n  jump\t// out\n    /* \"#utility.yul\":196:550   */\ntag_3:\n    /* \"#utility.yul\":284:290   */\n  0x00\n    /* \"#utility.yul\":292:298   */\n  dup1\n    /* \"#utility.yul\":300:306   */\n  0x00\n    /* \"#utility.yul\":353:355   */\n  0x60\n    /* \"#utility.yul\":341:350   */\n  dup5\n    /* \"#utility.yul\":332:339   */\n  dup7\n    /* \"#utility.yul\":328:351   */\n  sub\n    /* \"#utility.yul\":324:356   */\n  slt\n    /* \"#utility.yul\":321:373   */\n  iszero\n  tag_14\n  jumpi\n    /* \"#utility.yul\":369:370   */\n  0x00\n    /* \"#utility.yul\":366:367   */\n  dup1\n    /* \"#utility.yul\":359:371   */\n  revert\n    /* \"#utility.yul\":321:373   */\ntag_14:\n    /* \"#utility.yul\":392:432   */\n  tag_15\n    /* \"#utility.yul\":422:431   */\n  dup5\n    /* \"#utility.yul\":392:432   */\n  tag_10\n  jump\t// in\ntag_15:\n    /* \"#utility.yul\":382:432   */\n  swap3\n  pop\n    /* \"#utility.yul\":451:500   */\n  tag_16\n    /* \"#utility.yul\":496:498   */\n  0x20\n    /* \"#utility.yul\":485:494   */\n  dup6\n    /* \"#utility.yul\":481:499   */\n  add\n    /* \"#utility.yul\":451:500   */\n  tag_10\n  jump\t// in\ntag_16:\n    /* \"#utility.yul\":441:500   */\n  swap2\n  pop\n    /* \"#utility.yul\":540:542   */\n  0x40\n    /* \"#utility.yul\":529:538   */\n  dup5\n    /* \"#utility.yul\":525:543   */\n  add\n    /* \"#utility.yul\":519:544   */\n  mload\n    /* \"#utility.yul\":509:544   */\n  swap1\n  pop\n    /* \"#utility.yul\":196:550   */\n  swap3\n  pop\n  swap3\n  pop\n  swap3\n  jump\t// out\ntag_9:\n    /* \"MSWAP/OneRouter.sol\":9145:20934  contract MarsRouter is Ownable {\r... */\n  shr(0x60, mload(0x80))\n  codecopy(0x00, dataOffset(sub_0), dataSize(sub_0))\n  0x00\n  assignImmutable(\"0x76ebcca5044475ac2057166e26af5d40b5e78c6fd63a76f9c505daaac868948c\")\n  return(0x00, dataSize(sub_0))\nstop\n\nsub_0: assembly {\n        /* \"MSWAP/OneRouter.sol\":9145:20934  contract MarsRouter is Ownable {\r... */\n      mstore(0x40, 0x80)\n      jumpi(tag_1, lt(calldatasize, 0x04))\n      shr(0xe0, calldataload(0x00))\n      dup1\n      0x8da5cb5b\n      gt\n      tag_24\n      jumpi\n      dup1\n      0xb14f2a39\n      gt\n      tag_25\n      jumpi\n      dup1\n      0xb14f2a39\n      eq\n      tag_18\n      jumpi\n      dup1\n      0xcf820461\n      eq\n      tag_19\n      jumpi\n      dup1\n      0xd9eb5947\n      eq\n      tag_20\n      jumpi\n      dup1\n      0xe799ffb1\n      eq\n      tag_21\n      jumpi\n      dup1\n      0xf2fde38b\n      eq\n      tag_22\n      jumpi\n      dup1\n      0xf824f62e\n      eq\n      tag_23\n      jumpi\n      0x00\n      dup1\n      revert\n    tag_25:\n      dup1\n      0x8da5cb5b\n      eq\n      tag_13\n      jumpi\n      dup1\n      0x962efddb\n      eq\n      tag_14\n      jumpi\n      dup1\n      0xa32166ee\n      eq\n      tag_15\n      jumpi\n      dup1\n      0xac5cad56\n      eq\n      tag_16\n      jumpi\n      dup1\n      0xad5c4648\n      eq\n      tag_17\n      jumpi\n      0x00\n      dup1\n      revert\n    tag_24:\n      dup1\n      0x344933be\n      gt\n      tag_26\n      jumpi\n      dup1\n      0x344933be\n      eq\n      tag_8\n      jumpi\n      dup1\n      0x3d0e3ec5\n      eq\n      tag_9\n      jumpi\n      dup1\n      0x61d027b3\n      eq\n      tag_10\n      jumpi\n      dup1\n      0x6a1db1bf\n      eq\n      tag_11\n      jumpi\n      dup1\n      0x715018a6\n      eq\n      tag_12\n      jumpi\n      0x00\n      dup1\n      revert\n    tag_26:\n      dup1\n      0x05a1450d\n      eq\n      tag_3\n      jumpi\n      dup1\n      0x088890dc\n      eq\n      tag_4\n      jumpi\n      dup1\n      0x2232ea43\n      eq\n      tag_5\n      jumpi\n      dup1\n      0x2f100e4a\n      eq\n      tag_6\n      jumpi\n      dup1\n      0x2f54bf6e\n      eq\n      tag_7\n      jumpi\n      0x00\n      dup1\n      revert\n    tag_1:\n      jumpi(tag_2, calldatasize)\n        /* \"MSWAP/OneRouter.sol\":9682:9692  msg.sender */\n      caller\n      sub(shl(0xa0, 0x01), 0x01)\n        /* \"MSWAP/OneRouter.sol\":9696:9700  WETH */\n      immutable(\"0x76ebcca5044475ac2057166e26af5d40b5e78c6fd63a76f9c505daaac868948c\")\n        /* \"MSWAP/OneRouter.sol\":9682:9700  msg.sender == WETH */\n      and\n      eq\n        /* \"MSWAP/OneRouter.sol\":9675:9701  assert(msg.sender == WETH) */\n      tag_30\n      jumpi\n      tag_30\n      tag_31\n      jump\t// in\n    tag_30:\n        /* \"MSWAP/OneRouter.sol\":9145:20934  contract MarsRouter is Ownable {\r... */\n      stop\n    tag_2:\n      0x00\n      dup1\n      revert\n        /* \"MSWAP/OneRouter.sol\":10629:11361  function swapExactTokensForTokens(\r... */\n    tag_3:\n      tag_32\n      tag_33\n      calldatasize\n      0x04\n      tag_34\n      jump\t// in\n    tag_33:\n      tag_35\n      jump\t// in\n    tag_32:\n      mload(0x40)\n      tag_36\n      swap2\n      swap1\n      tag_37\n      jump\t// in\n    tag_36:\n      mload(0x40)\n      dup1\n      swap2\n      sub\n      swap1\n      return\n        /* \"MSWAP/OneRouter.sol\":18132:19118  function swapExactETHForTokensSupportingFeeOnTransferTokens(\r... */\n    tag_4:\n      tag_30\n      tag_39\n      calldatasize\n      0x04\n      tag_40\n      jump\t// in\n    tag_39:\n      tag_41\n      jump\t// in\n        /* \"MSWAP/OneRouter.sol\":13860:14805  function swapExactTokensForETH(uint amountIn, uint amountOutMin, address[] calldata path, address to, uint deadline, address router)\r... */\n    tag_5:\n      tag_32\n      tag_43\n      calldatasize\n      0x04\n      tag_34\n      jump\t// in\n    tag_43:\n      tag_44\n      jump\t// in\n        /* \"MSWAP/OneRouter.sol\":14811:15782  function swapETHForExactTokens(uint amountOut, address[] calldata path, address to, uint deadline, address router)\r... */\n    tag_6:\n      tag_32\n      tag_47\n      calldatasize\n      0x04\n      tag_40\n      jump\t// in\n    tag_47:\n      tag_48\n      jump\t// in\n        /* \"MSWAP/OneRouter.sol\":7455:7559  function isOwner(address account) public view returns (bool) {\r... */\n    tag_7:\n      callvalue\n      dup1\n      iszero\n      tag_50\n      jumpi\n      0x00\n      dup1\n      revert\n    tag_50:\n      pop\n      tag_51\n      tag_52\n      calldatasize\n      0x04\n      tag_53\n      jump\t// in\n    tag_52:\n        /* \"MSWAP/OneRouter.sol\":7510:7514  bool */\n      0x00\n        /* \"MSWAP/OneRouter.sol\":7545:7551  _owner */\n      sload\n      sub(shl(0xa0, 0x01), 0x01)\n        /* \"MSWAP/OneRouter.sol\":7534:7551  account == _owner */\n      swap2\n      dup3\n      and\n        /* \"MSWAP/OneRouter.sol\":7545:7551  _owner */\n      swap2\n      and\n        /* \"MSWAP/OneRouter.sol\":7534:7551  account == _owner */\n      eq\n      swap1\n        /* \"MSWAP/OneRouter.sol\":7455:7559  function isOwner(address account) public view returns (bool) {\r... */\n      jump\n    tag_51:\n      mload(0x40)\n        /* \"#utility.yul\":7357:7371   */\n      swap1\n      iszero\n        /* \"#utility.yul\":7350:7372   */\n      iszero\n        /* \"#utility.yul\":7332:7373   */\n      dup2\n      mstore\n        /* \"#utility.yul\":7320:7322   */\n      0x20\n        /* \"#utility.yul\":7305:7323   */\n      add\n        /* \"MSWAP/OneRouter.sol\":7455:7559  function isOwner(address account) public view returns (bool) {\r... */\n      tag_36\n        /* \"#utility.yul\":7192:7379   */\n      jump\n        /* \"MSWAP/OneRouter.sol\":12086:12925  function swapExactETHForTokens(uint amountOutMin, address[] calldata path, address to, uint deadline, address router)\r... */\n    tag_8:\n      tag_32\n      tag_58\n      calldatasize\n      0x04\n      tag_40\n      jump\t// in\n    tag_58:\n      tag_59\n      jump\t// in\n        /* \"MSWAP/OneRouter.sol\":19124:20090  function swapExactTokensForETHSupportingFeeOnTransferTokens(\r... */\n    tag_9:\n      tag_30\n      tag_62\n      calldatasize\n      0x04\n      tag_34\n      jump\t// in\n    tag_62:\n      tag_63\n      jump\t// in\n        /* \"MSWAP/OneRouter.sol\":9289:9312  address public treasury */\n    tag_10:\n      callvalue\n      dup1\n      iszero\n      tag_64\n      jumpi\n      0x00\n      dup1\n      revert\n    tag_64:\n      pop\n      sload(0x02)\n      tag_65\n      swap1\n      sub(shl(0xa0, 0x01), 0x01)\n      and\n      dup2\n      jump\n    tag_65:\n      mload(0x40)\n      sub(shl(0xa0, 0x01), 0x01)\n        /* \"#utility.yul\":5543:5575   */\n      swap1\n      swap2\n      and\n        /* \"#utility.yul\":5525:5576   */\n      dup2\n      mstore\n        /* \"#utility.yul\":5513:5515   */\n      0x20\n        /* \"#utility.yul\":5498:5516   */\n      add\n        /* \"MSWAP/OneRouter.sol\":9289:9312  address public treasury */\n      tag_36\n        /* \"#utility.yul\":5379:5582   */\n      jump\n        /* \"MSWAP/OneRouter.sol\":20719:20809  function changeFee( uint256 _newFee) external onlyOwner {\r... */\n    tag_11:\n      callvalue\n      dup1\n      iszero\n      tag_69\n      jumpi\n      0x00\n      dup1\n      revert\n    tag_69:\n      pop\n      tag_30\n      tag_71\n      calldatasize\n      0x04\n      tag_72\n      jump\t// in\n    tag_71:\n      tag_73\n      jump\t// in\n        /* \"MSWAP/OneRouter.sol\":7567:7707  function renounceOwnership() public onlyOwner {\r... */\n    tag_12:\n      callvalue\n      dup1\n      iszero\n      tag_74\n      jumpi\n      0x00\n      dup1\n      revert\n    tag_74:\n      pop\n      tag_30\n      tag_76\n      jump\t// in\n        /* \"MSWAP/OneRouter.sol\":7368:7447  function owner() public view returns (address) {\r... */\n    tag_13:\n      callvalue\n      dup1\n      iszero\n      tag_77\n      jumpi\n      0x00\n      dup1\n      revert\n    tag_77:\n      pop\n        /* \"MSWAP/OneRouter.sol\":7406:7413  address */\n      0x00\n        /* \"MSWAP/OneRouter.sol\":7433:7439  _owner */\n      sload\n      sub(shl(0xa0, 0x01), 0x01)\n      and\n        /* \"MSWAP/OneRouter.sol\":7368:7447  function owner() public view returns (address) {\r... */\n      jump(tag_65)\n        /* \"MSWAP/OneRouter.sol\":12933:13854  function swapTokensForExactETH(uint amountOut, uint amountInMax, address[] calldata path, address to, uint deadline, address router)\r... */\n    tag_14:\n      tag_32\n      tag_82\n      calldatasize\n      0x04\n      tag_34\n      jump\t// in\n    tag_82:\n      tag_83\n      jump\t// in\n        /* \"MSWAP/OneRouter.sol\":11369:12080  function swapTokensForExactTokens(\r... */\n    tag_15:\n      tag_32\n      tag_86\n      calldatasize\n      0x04\n      tag_34\n      jump\t// in\n    tag_86:\n      tag_87\n      jump\t// in\n        /* \"MSWAP/OneRouter.sol\":20445:20620  function withdrawlToken(address _tokenAddress) external onlyOwner {\r... */\n    tag_16:\n      callvalue\n      dup1\n      iszero\n      tag_89\n      jumpi\n      0x00\n      dup1\n      revert\n    tag_89:\n      pop\n      tag_30\n      tag_91\n      calldatasize\n      0x04\n      tag_53\n      jump\t// in\n    tag_91:\n      tag_92\n      jump\t// in\n        /* \"MSWAP/OneRouter.sol\":9252:9282  address public immutable  WETH */\n    tag_17:\n      callvalue\n      dup1\n      iszero\n      tag_93\n      jumpi\n      0x00\n      dup1\n      revert\n    tag_93:\n      pop\n      tag_65\n      immutable(\"0x76ebcca5044475ac2057166e26af5d40b5e78c6fd63a76f9c505daaac868948c\")\n      dup2\n      jump\n        /* \"MSWAP/OneRouter.sol\":20815:20922  function changeTreasury(address _newTreasury) external onlyOwner {\r... */\n    tag_18:\n      callvalue\n      dup1\n      iszero\n      tag_97\n      jumpi\n      0x00\n      dup1\n      revert\n    tag_97:\n      pop\n      tag_30\n      tag_99\n      calldatasize\n      0x04\n      tag_53\n      jump\t// in\n    tag_99:\n      tag_100\n      jump\t// in\n        /* \"MSWAP/OneRouter.sol\":9319:9339  uint256 public txFee */\n    tag_19:\n      callvalue\n      dup1\n      iszero\n      tag_101\n      jumpi\n      0x00\n      dup1\n      revert\n    tag_101:\n      pop\n      tag_102\n      sload(0x03)\n      dup2\n      jump\n    tag_102:\n      mload(0x40)\n        /* \"#utility.yul\":12145:12170   */\n      swap1\n      dup2\n      mstore\n        /* \"#utility.yul\":12133:12135   */\n      0x20\n        /* \"#utility.yul\":12118:12136   */\n      add\n        /* \"MSWAP/OneRouter.sol\":9319:9339  uint256 public txFee */\n      tag_36\n        /* \"#utility.yul\":11999:12176   */\n      jump\n        /* \"MSWAP/OneRouter.sol\":20627:20713  function flatFee() external view returns (uint256 fee) {\r... */\n    tag_20:\n      callvalue\n      dup1\n      iszero\n      tag_106\n      jumpi\n      0x00\n      dup1\n      revert\n    tag_106:\n      pop\n        /* \"MSWAP/OneRouter.sol\":20700:20705  txFee */\n      sload(0x03)\n        /* \"MSWAP/OneRouter.sol\":20627:20713  function flatFee() external view returns (uint256 fee) {\r... */\n      jump(tag_102)\n        /* \"MSWAP/OneRouter.sol\":20325:20437  function withdawlBNB() external onlyOwner {\r... */\n    tag_21:\n      callvalue\n      dup1\n      iszero\n      tag_110\n      jumpi\n      0x00\n      dup1\n      revert\n    tag_110:\n      pop\n      tag_30\n      tag_112\n      jump\t// in\n        /* \"MSWAP/OneRouter.sol\":7952:8061  function transferOwnership(address newOwner) public onlyOwner {\r... */\n    tag_22:\n      callvalue\n      dup1\n      iszero\n      tag_113\n      jumpi\n      0x00\n      dup1\n      revert\n    tag_113:\n      pop\n      tag_30\n      tag_115\n      calldatasize\n      0x04\n      tag_53\n      jump\t// in\n    tag_115:\n      tag_116\n      jump\t// in\n        /* \"MSWAP/OneRouter.sol\":17286:18124  function swapExactTokensForTokensSupportingFeeOnTransferTokens(\r... */\n    tag_23:\n      tag_30\n      tag_118\n      calldatasize\n      0x04\n      tag_34\n      jump\t// in\n    tag_118:\n      tag_119\n      jump\t// in\n        /* \"MSWAP/OneRouter.sol\":10629:11361  function swapExactTokensForTokens(\r... */\n    tag_35:\n        /* \"MSWAP/OneRouter.sol\":10877:10898  uint[] memory amounts */\n      0x60\n        /* \"MSWAP/OneRouter.sol\":10858:10866  deadline */\n      dup3\n        /* \"MSWAP/OneRouter.sol\":9410:9425  block.timestamp */\n      timestamp\n        /* \"MSWAP/OneRouter.sol\":9398:9406  deadline */\n      dup2\n        /* \"MSWAP/OneRouter.sol\":9398:9425  deadline >= block.timestamp */\n      lt\n      iszero\n        /* \"MSWAP/OneRouter.sol\":9390:9452  require(deadline >= block.timestamp, 'MarSwapRouter: EXPIRED') */\n      tag_121\n      jumpi\n      mload(0x40)\n      shl(0xe5, 0x461bcd)\n      dup2\n      mstore\n      0x04\n      add\n      tag_122\n      swap1\n      tag_123\n      jump\t// in\n    tag_122:\n      mload(0x40)\n      dup1\n      swap2\n      sub\n      swap1\n      revert\n    tag_121:\n        /* \"MSWAP/OneRouter.sol\":10911:10933  _chargeRouterFee(path) */\n      tag_125\n        /* \"MSWAP/OneRouter.sol\":10928:10932  path */\n      dup8\n      dup8\n        /* \"MSWAP/OneRouter.sol\":10911:10933  _chargeRouterFee(path) */\n      dup1\n      dup1\n      0x20\n      mul\n      0x20\n      add\n      mload(0x40)\n      swap1\n      dup2\n      add\n      0x40\n      mstore\n      dup1\n      swap4\n      swap3\n      swap2\n      swap1\n      dup2\n      dup2\n      mstore\n      0x20\n      add\n      dup4\n      dup4\n      0x20\n      mul\n      dup1\n      dup3\n      dup5\n      calldatacopy\n      0x00\n      swap3\n      add\n      swap2\n      swap1\n      swap2\n      mstore\n      pop\n        /* \"MSWAP/OneRouter.sol\":10911:10927  _chargeRouterFee */\n      tag_126\n      swap3\n      pop\n      pop\n      pop\n        /* \"MSWAP/OneRouter.sol\":10911:10933  _chargeRouterFee(path) */\n      jump\t// in\n    tag_125:\n      pop\n        /* \"MSWAP/OneRouter.sol\":10944:10959  address factory */\n      0x00\n        /* \"MSWAP/OneRouter.sol\":10969:10975  router */\n      dup4\n      sub(shl(0xa0, 0x01), 0x01)\n        /* \"MSWAP/OneRouter.sol\":10962:10984  Router(router).factory */\n      and\n      0xc45a0155\n        /* \"MSWAP/OneRouter.sol\":10962:10986  Router(router).factory() */\n      mload(0x40)\n      dup2\n      0xffffffff\n      and\n      0xe0\n      shl\n      dup2\n      mstore\n      0x04\n      add\n      0x20\n      mload(0x40)\n      dup1\n      dup4\n      sub\n      dup2\n      dup7\n      dup1\n      extcodesize\n      iszero\n      dup1\n      iszero\n      tag_127\n      jumpi\n      0x00\n      dup1\n      revert\n    tag_127:\n      pop\n      gas\n      staticcall\n      iszero\n      dup1\n      iszero\n      tag_129\n      jumpi\n      returndatasize\n      0x00\n      dup1\n      returndatacopy\n      revert(0x00, returndatasize)\n    tag_129:\n      pop\n      pop\n      pop\n      pop\n      mload(0x40)\n      returndatasize\n      not(0x1f)\n      0x1f\n      dup3\n      add\n      and\n      dup3\n      add\n      dup1\n      0x40\n      mstore\n      pop\n      dup2\n      add\n      swap1\n      tag_130\n      swap2\n      swap1\n      tag_131\n      jump\t// in\n    tag_130:\n        /* \"MSWAP/OneRouter.sol\":11007:11051  Router(router).getAmountsOut(amountIn, path) */\n      mload(0x40)\n      shl(0xe0, 0xd06ca61f)\n      dup2\n      mstore\n        /* \"MSWAP/OneRouter.sol\":10944:10986  address factory = Router(router).factory() */\n      swap1\n      swap2\n      pop\n      sub(shl(0xa0, 0x01), 0x01)\n        /* \"MSWAP/OneRouter.sol\":11007:11035  Router(router).getAmountsOut */\n      dup6\n      and\n      swap1\n      0xd06ca61f\n      swap1\n        /* \"MSWAP/OneRouter.sol\":11007:11051  Router(router).getAmountsOut(amountIn, path) */\n      tag_132\n      swap1\n        /* \"MSWAP/OneRouter.sol\":11036:11044  amountIn */\n      dup14\n      swap1\n        /* \"MSWAP/OneRouter.sol\":11046:11050  path */\n      dup13\n      swap1\n      dup13\n      swap1\n        /* \"MSWAP/OneRouter.sol\":11007:11051  Router(router).getAmountsOut(amountIn, path) */\n      0x04\n      add\n      tag_133\n      jump\t// in\n    tag_132:\n      0x00\n      mload(0x40)\n      dup1\n      dup4\n      sub\n      dup2\n      dup7\n      dup1\n      extcodesize\n      iszero\n      dup1\n      iszero\n      tag_134\n      jumpi\n      0x00\n      dup1\n      revert\n    tag_134:\n      pop\n      gas\n      staticcall\n      iszero\n      dup1\n      iszero\n      tag_136\n      jumpi\n      returndatasize\n      0x00\n      dup1\n      returndatacopy\n      revert(0x00, returndatasize)\n    tag_136:\n      pop\n      pop\n      pop\n      pop\n      mload(0x40)\n      returndatasize\n      0x00\n      dup3\n      returndatacopy\n      0x1f\n      returndatasize\n      swap1\n      dup2\n      add\n      not(0x1f)\n      and\n      dup3\n      add\n      0x40\n      mstore\n      tag_137\n      swap2\n      swap1\n      dup2\n      add\n      swap1\n      tag_138\n      jump\t// in\n    tag_137:\n        /* \"MSWAP/OneRouter.sol\":10997:11051  amounts = Router(router).getAmountsOut(amountIn, path) */\n      swap3\n      pop\n        /* \"MSWAP/OneRouter.sol\":11101:11113  amountOutMin */\n      dup9\n        /* \"MSWAP/OneRouter.sol\":11070:11077  amounts */\n      dup4\n        /* \"MSWAP/OneRouter.sol\":11095:11096  1 */\n      0x01\n        /* \"MSWAP/OneRouter.sol\":11078:11085  amounts */\n      dup6\n        /* \"MSWAP/OneRouter.sol\":11078:11092  amounts.length */\n      mload\n        /* \"MSWAP/OneRouter.sol\":11078:11096  amounts.length - 1 */\n      tag_139\n      swap2\n      swap1\n      tag_140\n      jump\t// in\n    tag_139:\n        /* \"MSWAP/OneRouter.sol\":11070:11097  amounts[amounts.length - 1] */\n      dup2\n      mload\n      dup2\n      lt\n      tag_142\n      jumpi\n      tag_142\n      tag_143\n      jump\t// in\n    tag_142:\n      0x20\n      mul\n      0x20\n      add\n      add\n      mload\n        /* \"MSWAP/OneRouter.sol\":11070:11113  amounts[amounts.length - 1] >= amountOutMin */\n      lt\n      iszero\n        /* \"MSWAP/OneRouter.sol\":11062:11159  require(amounts[amounts.length - 1] >= amountOutMin, 'MarSwapRouter: INSUFFICIENT_OUTPUT_AMOUNT') */\n      tag_144\n      jumpi\n      mload(0x40)\n      shl(0xe5, 0x461bcd)\n      dup2\n      mstore\n      0x04\n      add\n      tag_122\n      swap1\n      tag_146\n      jump\t// in\n    tag_144:\n        /* \"MSWAP/OneRouter.sol\":11170:11309  TransferHelper.safeTransferFrom(\r... */\n      tag_147\n        /* \"MSWAP/OneRouter.sol\":11216:11220  path */\n      dup9\n      dup9\n        /* \"MSWAP/OneRouter.sol\":11221:11222  0 */\n      0x00\n        /* \"MSWAP/OneRouter.sol\":11216:11223  path[0] */\n      dup2\n      dup2\n      lt\n      tag_149\n      jumpi\n      tag_149\n      tag_143\n      jump\t// in\n    tag_149:\n      swap1\n      pop\n      0x20\n      mul\n      add\n      0x20\n      dup2\n      add\n      swap1\n      tag_150\n      swap2\n      swap1\n      tag_53\n      jump\t// in\n    tag_150:\n        /* \"MSWAP/OneRouter.sol\":11225:11235  msg.sender */\n      caller\n        /* \"MSWAP/OneRouter.sol\":11237:11286  MarSwapLibrary.pairFor(factory, path[0], path[1]) */\n      tag_151\n        /* \"MSWAP/OneRouter.sol\":11260:11267  factory */\n      dup5\n        /* \"MSWAP/OneRouter.sol\":11269:11273  path */\n      dup13\n      dup13\n        /* \"MSWAP/OneRouter.sol\":11274:11275  0 */\n      0x00\n        /* \"MSWAP/OneRouter.sol\":11269:11276  path[0] */\n      dup2\n      dup2\n      lt\n      tag_153\n      jumpi\n      tag_153\n      tag_143\n      jump\t// in\n    tag_153:\n      swap1\n      pop\n      0x20\n      mul\n      add\n      0x20\n      dup2\n      add\n      swap1\n      tag_154\n      swap2\n      swap1\n      tag_53\n      jump\t// in\n    tag_154:\n        /* \"MSWAP/OneRouter.sol\":11278:11282  path */\n      dup14\n      dup14\n        /* \"MSWAP/OneRouter.sol\":11283:11284  1 */\n      0x01\n        /* \"MSWAP/OneRouter.sol\":11278:11285  path[1] */\n      dup2\n      dup2\n      lt\n      tag_156\n      jumpi\n      tag_156\n      tag_143\n      jump\t// in\n    tag_156:\n      swap1\n      pop\n      0x20\n      mul\n      add\n      0x20\n      dup2\n      add\n      swap1\n      tag_157\n      swap2\n      swap1\n      tag_53\n      jump\t// in\n    tag_157:\n        /* \"MSWAP/OneRouter.sol\":11237:11259  MarSwapLibrary.pairFor */\n      tag_158\n        /* \"MSWAP/OneRouter.sol\":11237:11286  MarSwapLibrary.pairFor(factory, path[0], path[1]) */\n      jump\t// in\n    tag_151:\n        /* \"MSWAP/OneRouter.sol\":11288:11295  amounts */\n      dup7\n        /* \"MSWAP/OneRouter.sol\":11296:11297  0 */\n      0x00\n        /* \"MSWAP/OneRouter.sol\":11288:11298  amounts[0] */\n      dup2\n      mload\n      dup2\n      lt\n      tag_160\n      jumpi\n      tag_160\n      tag_143\n      jump\t// in\n    tag_160:\n      0x20\n      mul\n      0x20\n      add\n      add\n      mload\n        /* \"MSWAP/OneRouter.sol\":11170:11201  TransferHelper.safeTransferFrom */\n      tag_161\n        /* \"MSWAP/OneRouter.sol\":11170:11309  TransferHelper.safeTransferFrom(\r... */\n      jump\t// in\n    tag_147:\n        /* \"MSWAP/OneRouter.sol\":11320:11353  _swap(amounts, path, to, factory) */\n      tag_162\n        /* \"MSWAP/OneRouter.sol\":11326:11333  amounts */\n      dup4\n        /* \"MSWAP/OneRouter.sol\":11335:11339  path */\n      dup10\n      dup10\n        /* \"MSWAP/OneRouter.sol\":11320:11353  _swap(amounts, path, to, factory) */\n      dup1\n      dup1\n      0x20\n      mul\n      0x20\n      add\n      mload(0x40)\n      swap1\n      dup2\n      add\n      0x40\n      mstore\n      dup1\n      swap4\n      swap3\n      swap2\n      swap1\n      dup2\n      dup2\n      mstore\n      0x20\n      add\n      dup4\n      dup4\n      0x20\n      mul\n      dup1\n      dup3\n      dup5\n      calldatacopy\n      0x00\n      swap3\n      add\n      swap2\n      swap1\n      swap2\n      mstore\n      pop\n        /* \"MSWAP/OneRouter.sol\":11341:11343  to */\n      dup12\n      swap3\n      pop\n        /* \"MSWAP/OneRouter.sol\":11345:11352  factory */\n      dup7\n      swap2\n      pop\n        /* \"MSWAP/OneRouter.sol\":11320:11325  _swap */\n      tag_163\n      swap1\n      pop\n        /* \"MSWAP/OneRouter.sol\":11320:11353  _swap(amounts, path, to, factory) */\n      jump\t// in\n    tag_162:\n        /* \"MSWAP/OneRouter.sol\":10900:11361  {\r... */\n      pop\n        /* \"MSWAP/OneRouter.sol\":10629:11361  function swapExactTokensForTokens(\r... */\n      pop\n      swap8\n      swap7\n      pop\n      pop\n      pop\n      pop\n      pop\n      pop\n      pop\n      jump\t// out\n        /* \"MSWAP/OneRouter.sol\":18132:19118  function swapExactETHForTokensSupportingFeeOnTransferTokens(\r... */\n    tag_41:\n        /* \"MSWAP/OneRouter.sol\":18399:18407  deadline */\n      dup2\n        /* \"MSWAP/OneRouter.sol\":9410:9425  block.timestamp */\n      timestamp\n        /* \"MSWAP/OneRouter.sol\":9398:9406  deadline */\n      dup2\n        /* \"MSWAP/OneRouter.sol\":9398:9425  deadline >= block.timestamp */\n      lt\n      iszero\n        /* \"MSWAP/OneRouter.sol\":9390:9452  require(deadline >= block.timestamp, 'MarSwapRouter: EXPIRED') */\n      tag_165\n      jumpi\n      mload(0x40)\n      shl(0xe5, 0x461bcd)\n      dup2\n      mstore\n      0x04\n      add\n      tag_122\n      swap1\n      tag_123\n      jump\t// in\n    tag_165:\n        /* \"MSWAP/OneRouter.sol\":18425:18440  address factory */\n      0x00\n        /* \"MSWAP/OneRouter.sol\":18450:18456  router */\n      dup3\n      sub(shl(0xa0, 0x01), 0x01)\n        /* \"MSWAP/OneRouter.sol\":18443:18465  Router(router).factory */\n      and\n      0xc45a0155\n        /* \"MSWAP/OneRouter.sol\":18443:18467  Router(router).factory() */\n      mload(0x40)\n      dup2\n      0xffffffff\n      and\n      0xe0\n      shl\n      dup2\n      mstore\n      0x04\n      add\n      0x20\n      mload(0x40)\n      dup1\n      dup4\n      sub\n      dup2\n      dup7\n      dup1\n      extcodesize\n      iszero\n      dup1\n      iszero\n      tag_168\n      jumpi\n      0x00\n      dup1\n      revert\n    tag_168:\n      pop\n      gas\n      staticcall\n      iszero\n      dup1\n      iszero\n      tag_170\n      jumpi\n      returndatasize\n      0x00\n      dup1\n      returndatacopy\n      revert(0x00, returndatasize)\n    tag_170:\n      pop\n      pop\n      pop\n      pop\n      mload(0x40)\n      returndatasize\n      not(0x1f)\n      0x1f\n      dup3\n      add\n      and\n      dup3\n      add\n      dup1\n      0x40\n      mstore\n      pop\n      dup2\n      add\n      swap1\n      tag_171\n      swap2\n      swap1\n      tag_131\n      jump\t// in\n    tag_171:\n        /* \"MSWAP/OneRouter.sol\":18425:18467  address factory = Router(router).factory() */\n      swap1\n      pop\n        /* \"MSWAP/OneRouter.sol\":18497:18501  WETH */\n      immutable(\"0x76ebcca5044475ac2057166e26af5d40b5e78c6fd63a76f9c505daaac868948c\")\n      sub(shl(0xa0, 0x01), 0x01)\n        /* \"MSWAP/OneRouter.sol\":18486:18501  path[0] == WETH */\n      and\n        /* \"MSWAP/OneRouter.sol\":18486:18490  path */\n      dup8\n      dup8\n        /* \"MSWAP/OneRouter.sol\":18491:18492  0 */\n      0x00\n        /* \"MSWAP/OneRouter.sol\":18486:18493  path[0] */\n      dup2\n      dup2\n      lt\n      tag_173\n      jumpi\n      tag_173\n      tag_143\n      jump\t// in\n    tag_173:\n      swap1\n      pop\n      0x20\n      mul\n      add\n      0x20\n      dup2\n      add\n      swap1\n      tag_174\n      swap2\n      swap1\n      tag_53\n      jump\t// in\n    tag_174:\n      sub(shl(0xa0, 0x01), 0x01)\n        /* \"MSWAP/OneRouter.sol\":18486:18501  path[0] == WETH */\n      and\n      eq\n        /* \"MSWAP/OneRouter.sol\":18478:18533  require(path[0] == WETH, 'MarSwapRouter: INVALID_PATH') */\n      tag_175\n      jumpi\n      mload(0x40)\n      shl(0xe5, 0x461bcd)\n      dup2\n      mstore\n      0x04\n      add\n      tag_122\n      swap1\n      tag_177\n      jump\t// in\n    tag_175:\n        /* \"MSWAP/OneRouter.sol\":18544:18557  uint amountIn */\n      0x00\n        /* \"MSWAP/OneRouter.sol\":18572:18577  txFee */\n      sload(0x03)\n        /* \"MSWAP/OneRouter.sol\":18580:18583  100 */\n      0x64\n        /* \"MSWAP/OneRouter.sol\":18572:18583  txFee * 100 */\n      tag_178\n      swap2\n      swap1\n      tag_179\n      jump\t// in\n    tag_178:\n        /* \"MSWAP/OneRouter.sol\":18560:18569  msg.value */\n      callvalue\n        /* \"MSWAP/OneRouter.sol\":18560:18583  msg.value > txFee * 100 */\n      gt\n        /* \"MSWAP/OneRouter.sol\":18560:18632  msg.value > txFee * 100 ? msg.value - _chargeRouterFee(path) : msg.value */\n      tag_180\n      jumpi\n        /* \"MSWAP/OneRouter.sol\":18623:18632  msg.value */\n      callvalue\n        /* \"MSWAP/OneRouter.sol\":18560:18632  msg.value > txFee * 100 ? msg.value - _chargeRouterFee(path) : msg.value */\n      jump(tag_183)\n    tag_180:\n        /* \"MSWAP/OneRouter.sol\":18598:18620  _chargeRouterFee(path) */\n      tag_182\n        /* \"MSWAP/OneRouter.sol\":18615:18619  path */\n      dup9\n      dup9\n        /* \"MSWAP/OneRouter.sol\":18598:18620  _chargeRouterFee(path) */\n      dup1\n      dup1\n      0x20\n      mul\n      0x20\n      add\n      mload(0x40)\n      swap1\n      dup2\n      add\n      0x40\n      mstore\n      dup1\n      swap4\n      swap3\n      swap2\n      swap1\n      dup2\n      dup2\n      mstore\n      0x20\n      add\n      dup4\n      dup4\n      0x20\n      mul\n      dup1\n      dup3\n      dup5\n      calldatacopy\n      0x00\n      swap3\n      add\n      swap2\n      swap1\n      swap2\n      mstore\n      pop\n        /* \"MSWAP/OneRouter.sol\":18598:18614  _chargeRouterFee */\n      tag_126\n      swap3\n      pop\n      pop\n      pop\n        /* \"MSWAP/OneRouter.sol\":18598:18620  _chargeRouterFee(path) */\n      jump\t// in\n    tag_182:\n        /* \"MSWAP/OneRouter.sol\":18586:18620  msg.value - _chargeRouterFee(path) */\n      tag_183\n      swap1\n        /* \"MSWAP/OneRouter.sol\":18586:18595  msg.value */\n      callvalue\n        /* \"MSWAP/OneRouter.sol\":18586:18620  msg.value - _chargeRouterFee(path) */\n      tag_140\n      jump\t// in\n    tag_183:\n        /* \"MSWAP/OneRouter.sol\":18544:18632  uint amountIn = msg.value > txFee * 100 ? msg.value - _chargeRouterFee(path) : msg.value */\n      swap1\n      pop\n        /* \"MSWAP/OneRouter.sol\":18649:18653  WETH */\n      immutable(\"0x76ebcca5044475ac2057166e26af5d40b5e78c6fd63a76f9c505daaac868948c\")\n      sub(shl(0xa0, 0x01), 0x01)\n        /* \"MSWAP/OneRouter.sol\":18643:18662  IWETH(WETH).deposit */\n      and\n      0xd0e30db0\n        /* \"MSWAP/OneRouter.sol\":18670:18678  amountIn */\n      dup3\n        /* \"MSWAP/OneRouter.sol\":18643:18681  IWETH(WETH).deposit{value: amountIn}() */\n      mload(0x40)\n      dup3\n      0xffffffff\n      and\n      0xe0\n      shl\n      dup2\n      mstore\n      0x04\n      add\n      0x00\n      mload(0x40)\n      dup1\n      dup4\n      sub\n      dup2\n      dup6\n      dup9\n      dup1\n      extcodesize\n      iszero\n      dup1\n      iszero\n      tag_184\n      jumpi\n      0x00\n      dup1\n      revert\n    tag_184:\n      pop\n      gas\n      call\n      iszero\n      dup1\n      iszero\n      tag_186\n      jumpi\n      returndatasize\n      0x00\n      dup1\n      returndatacopy\n      revert(0x00, returndatasize)\n    tag_186:\n      pop\n      pop\n      pop\n      pop\n      pop\n        /* \"MSWAP/OneRouter.sol\":18707:18711  WETH */\n      immutable(\"0x76ebcca5044475ac2057166e26af5d40b5e78c6fd63a76f9c505daaac868948c\")\n      sub(shl(0xa0, 0x01), 0x01)\n        /* \"MSWAP/OneRouter.sol\":18701:18721  IWETH(WETH).transfer */\n      and\n      0xa9059cbb\n        /* \"MSWAP/OneRouter.sol\":18722:18771  MarSwapLibrary.pairFor(factory, path[0], path[1]) */\n      tag_187\n        /* \"MSWAP/OneRouter.sol\":18745:18752  factory */\n      dup5\n        /* \"MSWAP/OneRouter.sol\":18754:18758  path */\n      dup12\n      dup12\n        /* \"MSWAP/OneRouter.sol\":18759:18760  0 */\n      0x00\n        /* \"MSWAP/OneRouter.sol\":18754:18761  path[0] */\n      dup2\n      dup2\n      lt\n      tag_189\n      jumpi\n      tag_189\n      tag_143\n      jump\t// in\n    tag_189:\n      swap1\n      pop\n      0x20\n      mul\n      add\n      0x20\n      dup2\n      add\n      swap1\n      tag_190\n      swap2\n      swap1\n      tag_53\n      jump\t// in\n    tag_190:\n        /* \"MSWAP/OneRouter.sol\":18763:18767  path */\n      dup13\n      dup13\n        /* \"MSWAP/OneRouter.sol\":18768:18769  1 */\n      0x01\n        /* \"MSWAP/OneRouter.sol\":18763:18770  path[1] */\n      dup2\n      dup2\n      lt\n      tag_156\n      jumpi\n      tag_156\n      tag_143\n      jump\t// in\n        /* \"MSWAP/OneRouter.sol\":18722:18771  MarSwapLibrary.pairFor(factory, path[0], path[1]) */\n    tag_187:\n        /* \"MSWAP/OneRouter.sol\":18701:18782  IWETH(WETH).transfer(MarSwapLibrary.pairFor(factory, path[0], path[1]), amountIn) */\n      mload(0x40)\n      not(sub(shl(0xe0, 0x01), 0x01))\n      0xe0\n      dup5\n      swap1\n      shl\n      and\n      dup2\n      mstore\n      sub(shl(0xa0, 0x01), 0x01)\n        /* \"#utility.yul\":6468:6500   */\n      swap1\n      swap2\n      and\n        /* \"MSWAP/OneRouter.sol\":18701:18782  IWETH(WETH).transfer(MarSwapLibrary.pairFor(factory, path[0], path[1]), amountIn) */\n      0x04\n      dup3\n      add\n        /* \"#utility.yul\":6450:6501   */\n      mstore\n        /* \"#utility.yul\":6517:6535   */\n      0x24\n      dup2\n      add\n        /* \"#utility.yul\":6510:6544   */\n      dup5\n      swap1\n      mstore\n        /* \"#utility.yul\":6423:6441   */\n      0x44\n      add\n        /* \"MSWAP/OneRouter.sol\":18701:18782  IWETH(WETH).transfer(MarSwapLibrary.pairFor(factory, path[0], path[1]), amountIn) */\n      0x20\n      mload(0x40)\n      dup1\n      dup4\n      sub\n      dup2\n      0x00\n      dup8\n      dup1\n      extcodesize\n      iszero\n      dup1\n      iszero\n      tag_196\n      jumpi\n      0x00\n      dup1\n      revert\n    tag_196:\n      pop\n      gas\n      call\n      iszero\n      dup1\n      iszero\n      tag_198\n      jumpi\n      returndatasize\n      0x00\n      dup1\n      returndatacopy\n      revert(0x00, returndatasize)\n    tag_198:\n      pop\n      pop\n      pop\n      pop\n      mload(0x40)\n      returndatasize\n      not(0x1f)\n      0x1f\n      dup3\n      add\n      and\n      dup3\n      add\n      dup1\n      0x40\n      mstore\n      pop\n      dup2\n      add\n      swap1\n      tag_199\n      swap2\n      swap1\n      tag_200\n      jump\t// in\n    tag_199:\n        /* \"MSWAP/OneRouter.sol\":18694:18783  assert(IWETH(WETH).transfer(MarSwapLibrary.pairFor(factory, path[0], path[1]), amountIn)) */\n      tag_202\n      jumpi\n      tag_202\n      tag_31\n      jump\t// in\n    tag_202:\n        /* \"MSWAP/OneRouter.sol\":18794:18812  uint balanceBefore */\n      0x00\n        /* \"MSWAP/OneRouter.sol\":18822:18826  path */\n      dup9\n      dup9\n        /* \"MSWAP/OneRouter.sol\":18827:18842  path.length - 1 */\n      tag_203\n        /* \"MSWAP/OneRouter.sol\":18841:18842  1 */\n      0x01\n        /* \"MSWAP/OneRouter.sol\":18822:18826  path */\n      dup3\n        /* \"MSWAP/OneRouter.sol\":18827:18842  path.length - 1 */\n      tag_140\n      jump\t// in\n    tag_203:\n        /* \"MSWAP/OneRouter.sol\":18822:18843  path[path.length - 1] */\n      dup2\n      dup2\n      lt\n      tag_205\n      jumpi\n      tag_205\n      tag_143\n      jump\t// in\n    tag_205:\n      swap1\n      pop\n      0x20\n      mul\n      add\n      0x20\n      dup2\n      add\n      swap1\n      tag_206\n      swap2\n      swap1\n      tag_53\n      jump\t// in\n    tag_206:\n        /* \"MSWAP/OneRouter.sol\":18815:18858  IERC20(path[path.length - 1]).balanceOf(to) */\n      mload(0x40)\n      shl(0xe0, 0x70a08231)\n      dup2\n      mstore\n      sub(shl(0xa0, 0x01), 0x01)\n        /* \"#utility.yul\":5543:5575   */\n      dup10\n      dup2\n      and\n        /* \"MSWAP/OneRouter.sol\":18815:18858  IERC20(path[path.length - 1]).balanceOf(to) */\n      0x04\n      dup4\n      add\n        /* \"#utility.yul\":5525:5576   */\n      mstore\n        /* \"MSWAP/OneRouter.sol\":18815:18854  IERC20(path[path.length - 1]).balanceOf */\n      swap2\n      swap1\n      swap2\n      and\n      swap1\n      0x70a08231\n      swap1\n        /* \"#utility.yul\":5498:5516   */\n      0x24\n      add\n        /* \"MSWAP/OneRouter.sol\":18815:18858  IERC20(path[path.length - 1]).balanceOf(to) */\n      0x20\n      mload(0x40)\n      dup1\n      dup4\n      sub\n      dup2\n      dup7\n      dup1\n      extcodesize\n      iszero\n      dup1\n      iszero\n      tag_208\n      jumpi\n      0x00\n      dup1\n      revert\n    tag_208:\n      pop\n      gas\n      staticcall\n      iszero\n      dup1\n      iszero\n      tag_210\n      jumpi\n      returndatasize\n      0x00\n      dup1\n      returndatacopy\n      revert(0x00, returndatasize)\n    tag_210:\n      pop\n      pop\n      pop\n      pop\n      mload(0x40)\n      returndatasize\n      not(0x1f)\n      0x1f\n      dup3\n      add\n      and\n      dup3\n      add\n      dup1\n      0x40\n      mstore\n      pop\n      dup2\n      add\n      swap1\n      tag_211\n      swap2\n      swap1\n      tag_212\n      jump\t// in\n    tag_211:\n        /* \"MSWAP/OneRouter.sol\":18794:18858  uint balanceBefore = IERC20(path[path.length - 1]).balanceOf(to) */\n      swap1\n      pop\n        /* \"MSWAP/OneRouter.sol\":18869:18930  _swapSupportingFeeOnTransferTokens(path, to, factory, router) */\n      tag_213\n        /* \"MSWAP/OneRouter.sol\":18904:18908  path */\n      dup10\n      dup10\n        /* \"MSWAP/OneRouter.sol\":18869:18930  _swapSupportingFeeOnTransferTokens(path, to, factory, router) */\n      dup1\n      dup1\n      0x20\n      mul\n      0x20\n      add\n      mload(0x40)\n      swap1\n      dup2\n      add\n      0x40\n      mstore\n      dup1\n      swap4\n      swap3\n      swap2\n      swap1\n      dup2\n      dup2\n      mstore\n      0x20\n      add\n      dup4\n      dup4\n      0x20\n      mul\n      dup1\n      dup3\n      dup5\n      calldatacopy\n      0x00\n      swap3\n      add\n      swap2\n      swap1\n      swap2\n      mstore\n      pop\n        /* \"MSWAP/OneRouter.sol\":18910:18912  to */\n      dup12\n      swap3\n      pop\n        /* \"MSWAP/OneRouter.sol\":18914:18921  factory */\n      dup8\n      swap2\n      pop\n        /* \"MSWAP/OneRouter.sol\":18923:18929  router */\n      dup10\n      swap1\n      pop\n        /* \"MSWAP/OneRouter.sol\":18869:18903  _swapSupportingFeeOnTransferTokens */\n      tag_214\n        /* \"MSWAP/OneRouter.sol\":18869:18930  _swapSupportingFeeOnTransferTokens(path, to, factory, router) */\n      jump\t// in\n    tag_213:\n        /* \"MSWAP/OneRouter.sol\":19029:19041  amountOutMin */\n      dup10\n        /* \"MSWAP/OneRouter.sol\":18963:19025  IERC20(path[path.length - 1]).balanceOf(to).sub(balanceBefore) */\n      tag_215\n        /* \"MSWAP/OneRouter.sol\":19011:19024  balanceBefore */\n      dup3\n        /* \"MSWAP/OneRouter.sol\":18970:18974  path */\n      dup12\n      dup12\n        /* \"MSWAP/OneRouter.sol\":18975:18990  path.length - 1 */\n      tag_216\n        /* \"MSWAP/OneRouter.sol\":18989:18990  1 */\n      0x01\n        /* \"MSWAP/OneRouter.sol\":18970:18974  path */\n      dup3\n        /* \"MSWAP/OneRouter.sol\":18975:18990  path.length - 1 */\n      tag_140\n      jump\t// in\n    tag_216:\n        /* \"MSWAP/OneRouter.sol\":18970:18991  path[path.length - 1] */\n      dup2\n      dup2\n      lt\n      tag_218\n      jumpi\n      tag_218\n      tag_143\n      jump\t// in\n    tag_218:\n      swap1\n      pop\n      0x20\n      mul\n      add\n      0x20\n      dup2\n      add\n      swap1\n      tag_219\n      swap2\n      swap1\n      tag_53\n      jump\t// in\n    tag_219:\n        /* \"MSWAP/OneRouter.sol\":18963:19006  IERC20(path[path.length - 1]).balanceOf(to) */\n      mload(0x40)\n      shl(0xe0, 0x70a08231)\n      dup2\n      mstore\n      sub(shl(0xa0, 0x01), 0x01)\n        /* \"#utility.yul\":5543:5575   */\n      dup13\n      dup2\n      and\n        /* \"MSWAP/OneRouter.sol\":18963:19006  IERC20(path[path.length - 1]).balanceOf(to) */\n      0x04\n      dup4\n      add\n        /* \"#utility.yul\":5525:5576   */\n      mstore\n        /* \"MSWAP/OneRouter.sol\":18963:19002  IERC20(path[path.length - 1]).balanceOf */\n      swap2\n      swap1\n      swap2\n      and\n      swap1\n      0x70a08231\n      swap1\n        /* \"#utility.yul\":5498:5516   */\n      0x24\n      add\n        /* \"MSWAP/OneRouter.sol\":18963:19006  IERC20(path[path.length - 1]).balanceOf(to) */\n    tag_220:\n      0x20\n      mload(0x40)\n      dup1\n      dup4\n      sub\n      dup2\n      dup7\n      dup1\n      extcodesize\n      iszero\n      dup1\n      iszero\n      tag_221\n      jumpi\n      0x00\n      dup1\n      revert\n    tag_221:\n      pop\n      gas\n      staticcall\n      iszero\n      dup1\n      iszero\n      tag_223\n      jumpi\n      returndatasize\n      0x00\n      dup1\n      returndatacopy\n      revert(0x00, returndatasize)\n    tag_223:\n      pop\n      pop\n      pop\n      pop\n      mload(0x40)\n      returndatasize\n      not(0x1f)\n      0x1f\n      dup3\n      add\n      and\n      dup3\n      add\n      dup1\n      0x40\n      mstore\n      pop\n      dup2\n      add\n      swap1\n      tag_224\n      swap2\n      swap1\n      tag_212\n      jump\t// in\n    tag_224:\n        /* \"MSWAP/OneRouter.sol\":18963:19010  IERC20(path[path.length - 1]).balanceOf(to).sub */\n      swap1\n      tag_225\n        /* \"MSWAP/OneRouter.sol\":18963:19025  IERC20(path[path.length - 1]).balanceOf(to).sub(balanceBefore) */\n      jump\t// in\n    tag_215:\n        /* \"MSWAP/OneRouter.sol\":18963:19041  IERC20(path[path.length - 1]).balanceOf(to).sub(balanceBefore) >= amountOutMin */\n      lt\n      iszero\n        /* \"MSWAP/OneRouter.sol\":18941:19110  require(\r... */\n      tag_226\n      jumpi\n      mload(0x40)\n      shl(0xe5, 0x461bcd)\n      dup2\n      mstore\n      0x04\n      add\n      tag_122\n      swap1\n      tag_146\n      jump\t// in\n    tag_226:\n        /* \"MSWAP/OneRouter.sol\":18414:19118  {\r... */\n      pop\n      pop\n      pop\n        /* \"MSWAP/OneRouter.sol\":18132:19118  function swapExactETHForTokensSupportingFeeOnTransferTokens(\r... */\n      pop\n      pop\n      pop\n      pop\n      pop\n      pop\n      pop\n      jump\t// out\n        /* \"MSWAP/OneRouter.sol\":13860:14805  function swapExactTokensForETH(uint amountIn, uint amountOutMin, address[] calldata path, address to, uint deadline, address router)\r... */\n    tag_44:\n        /* \"MSWAP/OneRouter.sol\":14089:14110  uint[] memory amounts */\n      0x60\n        /* \"MSWAP/OneRouter.sol\":14061:14069  deadline */\n      dup3\n        /* \"MSWAP/OneRouter.sol\":9410:9425  block.timestamp */\n      timestamp\n        /* \"MSWAP/OneRouter.sol\":9398:9406  deadline */\n      dup2\n        /* \"MSWAP/OneRouter.sol\":9398:9425  deadline >= block.timestamp */\n      lt\n      iszero\n        /* \"MSWAP/OneRouter.sol\":9390:9452  require(deadline >= block.timestamp, 'MarSwapRouter: EXPIRED') */\n      tag_229\n      jumpi\n      mload(0x40)\n      shl(0xe5, 0x461bcd)\n      dup2\n      mstore\n      0x04\n      add\n      tag_122\n      swap1\n      tag_123\n      jump\t// in\n    tag_229:\n        /* \"MSWAP/OneRouter.sol\":14128:14143  address factory */\n      0x00\n        /* \"MSWAP/OneRouter.sol\":14153:14159  router */\n      dup4\n      sub(shl(0xa0, 0x01), 0x01)\n        /* \"MSWAP/OneRouter.sol\":14146:14168  Router(router).factory */\n      and\n      0xc45a0155\n        /* \"MSWAP/OneRouter.sol\":14146:14170  Router(router).factory() */\n      mload(0x40)\n      dup2\n      0xffffffff\n      and\n      0xe0\n      shl\n      dup2\n      mstore\n      0x04\n      add\n      0x20\n      mload(0x40)\n      dup1\n      dup4\n      sub\n      dup2\n      dup7\n      dup1\n      extcodesize\n      iszero\n      dup1\n      iszero\n      tag_232\n      jumpi\n      0x00\n      dup1\n      revert\n    tag_232:\n      pop\n      gas\n      staticcall\n      iszero\n      dup1\n      iszero\n      tag_234\n      jumpi\n      returndatasize\n      0x00\n      dup1\n      returndatacopy\n      revert(0x00, returndatasize)\n    tag_234:\n      pop\n      pop\n      pop\n      pop\n      mload(0x40)\n      returndatasize\n      not(0x1f)\n      0x1f\n      dup3\n      add\n      and\n      dup3\n      add\n      dup1\n      0x40\n      mstore\n      pop\n      dup2\n      add\n      swap1\n      tag_235\n      swap2\n      swap1\n      tag_131\n      jump\t// in\n    tag_235:\n        /* \"MSWAP/OneRouter.sol\":14128:14170  address factory = Router(router).factory() */\n      swap1\n      pop\n      sub(shl(0xa0, 0x01), 0x01)\n        /* \"MSWAP/OneRouter.sol\":14214:14218  WETH */\n      immutable(\"0x76ebcca5044475ac2057166e26af5d40b5e78c6fd63a76f9c505daaac868948c\")\n        /* \"MSWAP/OneRouter.sol\":14189:14218  path[path.length - 1] == WETH */\n      and\n        /* \"MSWAP/OneRouter.sol\":14189:14193  path */\n      dup9\n      dup9\n        /* \"MSWAP/OneRouter.sol\":14194:14209  path.length - 1 */\n      tag_236\n        /* \"MSWAP/OneRouter.sol\":14208:14209  1 */\n      0x01\n        /* \"MSWAP/OneRouter.sol\":14189:14193  path */\n      dup3\n        /* \"MSWAP/OneRouter.sol\":14194:14209  path.length - 1 */\n      tag_140\n      jump\t// in\n    tag_236:\n        /* \"MSWAP/OneRouter.sol\":14189:14210  path[path.length - 1] */\n      dup2\n      dup2\n      lt\n      tag_238\n      jumpi\n      tag_238\n      tag_143\n      jump\t// in\n    tag_238:\n      swap1\n      pop\n      0x20\n      mul\n      add\n      0x20\n      dup2\n      add\n      swap1\n      tag_239\n      swap2\n      swap1\n      tag_53\n      jump\t// in\n    tag_239:\n      sub(shl(0xa0, 0x01), 0x01)\n        /* \"MSWAP/OneRouter.sol\":14189:14218  path[path.length - 1] == WETH */\n      and\n      eq\n        /* \"MSWAP/OneRouter.sol\":14181:14250  require(path[path.length - 1] == WETH, 'MarSwapRouter: INVALID_PATH') */\n      tag_240\n      jumpi\n      mload(0x40)\n      shl(0xe5, 0x461bcd)\n      dup2\n      mstore\n      0x04\n      add\n      tag_122\n      swap1\n      tag_177\n      jump\t// in\n    tag_240:\n        /* \"MSWAP/OneRouter.sol\":14261:14283  _chargeRouterFee(path) */\n      tag_242\n        /* \"MSWAP/OneRouter.sol\":14278:14282  path */\n      dup9\n      dup9\n        /* \"MSWAP/OneRouter.sol\":14261:14283  _chargeRouterFee(path) */\n      dup1\n      dup1\n      0x20\n      mul\n      0x20\n      add\n      mload(0x40)\n      swap1\n      dup2\n      add\n      0x40\n      mstore\n      dup1\n      swap4\n      swap3\n      swap2\n      swap1\n      dup2\n      dup2\n      mstore\n      0x20\n      add\n      dup4\n      dup4\n      0x20\n      mul\n      dup1\n      dup3\n      dup5\n      calldatacopy\n      0x00\n      swap3\n      add\n      swap2\n      swap1\n      swap2\n      mstore\n      pop\n        /* \"MSWAP/OneRouter.sol\":14261:14277  _chargeRouterFee */\n      tag_126\n      swap3\n      pop\n      pop\n      pop\n        /* \"MSWAP/OneRouter.sol\":14261:14283  _chargeRouterFee(path) */\n      jump\t// in\n    tag_242:\n      pop\n        /* \"MSWAP/OneRouter.sol\":14304:14348  Router(router).getAmountsOut(amountIn, path) */\n      mload(0x40)\n      shl(0xe0, 0xd06ca61f)\n      dup2\n      mstore\n      sub(shl(0xa0, 0x01), 0x01)\n        /* \"MSWAP/OneRouter.sol\":14304:14332  Router(router).getAmountsOut */\n      dup6\n      and\n      swap1\n      0xd06ca61f\n      swap1\n        /* \"MSWAP/OneRouter.sol\":14304:14348  Router(router).getAmountsOut(amountIn, path) */\n      tag_243\n      swap1\n        /* \"MSWAP/OneRouter.sol\":14333:14341  amountIn */\n      dup14\n      swap1\n        /* \"MSWAP/OneRouter.sol\":14343:14347  path */\n      dup13\n      swap1\n      dup13\n      swap1\n        /* \"MSWAP/OneRouter.sol\":14304:14348  Router(router).getAmountsOut(amountIn, path) */\n      0x04\n      add\n      tag_133\n      jump\t// in\n    tag_243:\n      0x00\n      mload(0x40)\n      dup1\n      dup4\n      sub\n      dup2\n      dup7\n      dup1\n      extcodesize\n      iszero\n      dup1\n      iszero\n      tag_244\n      jumpi\n      0x00\n      dup1\n      revert\n    tag_244:\n      pop\n      gas\n      staticcall\n      iszero\n      dup1\n      iszero\n      tag_246\n      jumpi\n      returndatasize\n      0x00\n      dup1\n      returndatacopy\n      revert(0x00, returndatasize)\n    tag_246:\n      pop\n      pop\n      pop\n      pop\n      mload(0x40)\n      returndatasize\n      0x00\n      dup3\n      returndatacopy\n      0x1f\n      returndatasize\n      swap1\n      dup2\n      add\n      not(0x1f)\n      and\n      dup3\n      add\n      0x40\n      mstore\n      tag_247\n      swap2\n      swap1\n      dup2\n      add\n      swap1\n      tag_138\n      jump\t// in\n    tag_247:\n        /* \"MSWAP/OneRouter.sol\":14294:14348  amounts = Router(router).getAmountsOut(amountIn, path) */\n      swap3\n      pop\n        /* \"MSWAP/OneRouter.sol\":14398:14410  amountOutMin */\n      dup9\n        /* \"MSWAP/OneRouter.sol\":14367:14374  amounts */\n      dup4\n        /* \"MSWAP/OneRouter.sol\":14392:14393  1 */\n      0x01\n        /* \"MSWAP/OneRouter.sol\":14375:14382  amounts */\n      dup6\n        /* \"MSWAP/OneRouter.sol\":14375:14389  amounts.length */\n      mload\n        /* \"MSWAP/OneRouter.sol\":14375:14393  amounts.length - 1 */\n      tag_248\n      swap2\n      swap1\n      tag_140\n      jump\t// in\n    tag_248:\n        /* \"MSWAP/OneRouter.sol\":14367:14394  amounts[amounts.length - 1] */\n      dup2\n      mload\n      dup2\n      lt\n      tag_250\n      jumpi\n      tag_250\n      tag_143\n      jump\t// in\n    tag_250:\n      0x20\n      mul\n      0x20\n      add\n      add\n      mload\n        /* \"MSWAP/OneRouter.sol\":14367:14410  amounts[amounts.length - 1] >= amountOutMin */\n      lt\n      iszero\n        /* \"MSWAP/OneRouter.sol\":14359:14456  require(amounts[amounts.length - 1] >= amountOutMin, 'MarSwapRouter: INSUFFICIENT_OUTPUT_AMOUNT') */\n      tag_251\n      jumpi\n      mload(0x40)\n      shl(0xe5, 0x461bcd)\n      dup2\n      mstore\n      0x04\n      add\n      tag_122\n      swap1\n      tag_146\n      jump\t// in\n    tag_251:\n        /* \"MSWAP/OneRouter.sol\":14467:14606  TransferHelper.safeTransferFrom(\r... */\n      tag_253\n        /* \"MSWAP/OneRouter.sol\":14513:14517  path */\n      dup9\n      dup9\n        /* \"MSWAP/OneRouter.sol\":14518:14519  0 */\n      0x00\n        /* \"MSWAP/OneRouter.sol\":14513:14520  path[0] */\n      dup2\n      dup2\n      lt\n      tag_149\n      jumpi\n      tag_149\n      tag_143\n      jump\t// in\n        /* \"MSWAP/OneRouter.sol\":14467:14606  TransferHelper.safeTransferFrom(\r... */\n    tag_253:\n        /* \"MSWAP/OneRouter.sol\":14617:14661  _swap(amounts, path, address(this), factory) */\n      tag_266\n        /* \"MSWAP/OneRouter.sol\":14623:14630  amounts */\n      dup4\n        /* \"MSWAP/OneRouter.sol\":14632:14636  path */\n      dup10\n      dup10\n        /* \"MSWAP/OneRouter.sol\":14617:14661  _swap(amounts, path, address(this), factory) */\n      dup1\n      dup1\n      0x20\n      mul\n      0x20\n      add\n      mload(0x40)\n      swap1\n      dup2\n      add\n      0x40\n      mstore\n      dup1\n      swap4\n      swap3\n      swap2\n      swap1\n      dup2\n      dup2\n      mstore\n      0x20\n      add\n      dup4\n      dup4\n      0x20\n      mul\n      dup1\n      dup3\n      dup5\n      calldatacopy\n      0x00\n      swap3\n      add\n      swap2\n      swap1\n      swap2\n      mstore\n      pop\n        /* \"MSWAP/OneRouter.sol\":14646:14650  this */\n      address\n      swap3\n      pop\n        /* \"MSWAP/OneRouter.sol\":14653:14660  factory */\n      dup7\n      swap2\n      pop\n        /* \"MSWAP/OneRouter.sol\":14617:14622  _swap */\n      tag_163\n      swap1\n      pop\n        /* \"MSWAP/OneRouter.sol\":14617:14661  _swap(amounts, path, address(this), factory) */\n      jump\t// in\n    tag_266:\n        /* \"MSWAP/OneRouter.sol\":14678:14682  WETH */\n      immutable(\"0x76ebcca5044475ac2057166e26af5d40b5e78c6fd63a76f9c505daaac868948c\")\n      sub(shl(0xa0, 0x01), 0x01)\n        /* \"MSWAP/OneRouter.sol\":14672:14692  IWETH(WETH).withdraw */\n      and\n      0x2e1a7d4d\n        /* \"MSWAP/OneRouter.sol\":14693:14700  amounts */\n      dup5\n        /* \"MSWAP/OneRouter.sol\":14718:14719  1 */\n      0x01\n        /* \"MSWAP/OneRouter.sol\":14701:14708  amounts */\n      dup7\n        /* \"MSWAP/OneRouter.sol\":14701:14715  amounts.length */\n      mload\n        /* \"MSWAP/OneRouter.sol\":14701:14719  amounts.length - 1 */\n      tag_267\n      swap2\n      swap1\n      tag_140\n      jump\t// in\n    tag_267:\n        /* \"MSWAP/OneRouter.sol\":14693:14720  amounts[amounts.length - 1] */\n      dup2\n      mload\n      dup2\n      lt\n      tag_269\n      jumpi\n      tag_269\n      tag_143\n      jump\t// in\n    tag_269:\n      0x20\n      mul\n      0x20\n      add\n      add\n      mload\n        /* \"MSWAP/OneRouter.sol\":14672:14721  IWETH(WETH).withdraw(amounts[amounts.length - 1]) */\n      mload(0x40)\n      dup3\n      0xffffffff\n      and\n      0xe0\n      shl\n      dup2\n      mstore\n      0x04\n      add\n      tag_270\n      swap2\n        /* \"#utility.yul\":12145:12170   */\n      dup2\n      mstore\n        /* \"#utility.yul\":12133:12135   */\n      0x20\n        /* \"#utility.yul\":12118:12136   */\n      add\n      swap1\n        /* \"#utility.yul\":11999:12176   */\n      jump\n        /* \"MSWAP/OneRouter.sol\":14672:14721  IWETH(WETH).withdraw(amounts[amounts.length - 1]) */\n    tag_270:\n      0x00\n      mload(0x40)\n      dup1\n      dup4\n      sub\n      dup2\n      0x00\n      dup8\n      dup1\n      extcodesize\n      iszero\n      dup1\n      iszero\n      tag_271\n      jumpi\n      0x00\n      dup1\n      revert\n    tag_271:\n      pop\n      gas\n      call\n      iszero\n      dup1\n      iszero\n      tag_273\n      jumpi\n      returndatasize\n      0x00\n      dup1\n      returndatacopy\n      revert(0x00, returndatasize)\n    tag_273:\n      pop\n      pop\n      pop\n      pop\n        /* \"MSWAP/OneRouter.sol\":14734:14797  TransferHelper.safeTransferETH(to, amounts[amounts.length - 1]) */\n      tag_162\n        /* \"MSWAP/OneRouter.sol\":14765:14767  to */\n      dup7\n        /* \"MSWAP/OneRouter.sol\":14769:14776  amounts */\n      dup5\n        /* \"MSWAP/OneRouter.sol\":14794:14795  1 */\n      0x01\n        /* \"MSWAP/OneRouter.sol\":14777:14784  amounts */\n      dup7\n        /* \"MSWAP/OneRouter.sol\":14777:14791  amounts.length */\n      mload\n        /* \"MSWAP/OneRouter.sol\":14777:14795  amounts.length - 1 */\n      tag_275\n      swap2\n      swap1\n      tag_140\n      jump\t// in\n    tag_275:\n        /* \"MSWAP/OneRouter.sol\":14769:14796  amounts[amounts.length - 1] */\n      dup2\n      mload\n      dup2\n      lt\n      tag_277\n      jumpi\n      tag_277\n      tag_143\n      jump\t// in\n    tag_277:\n      0x20\n      mul\n      0x20\n      add\n      add\n      mload\n        /* \"MSWAP/OneRouter.sol\":14734:14764  TransferHelper.safeTransferETH */\n      tag_278\n        /* \"MSWAP/OneRouter.sol\":14734:14797  TransferHelper.safeTransferETH(to, amounts[amounts.length - 1]) */\n      jump\t// in\n        /* \"MSWAP/OneRouter.sol\":14811:15782  function swapETHForExactTokens(uint amountOut, address[] calldata path, address to, uint deadline, address router)\r... */\n    tag_48:\n        /* \"MSWAP/OneRouter.sol\":15022:15043  uint[] memory amounts */\n      0x60\n        /* \"MSWAP/OneRouter.sol\":14994:15002  deadline */\n      dup3\n        /* \"MSWAP/OneRouter.sol\":9410:9425  block.timestamp */\n      timestamp\n        /* \"MSWAP/OneRouter.sol\":9398:9406  deadline */\n      dup2\n        /* \"MSWAP/OneRouter.sol\":9398:9425  deadline >= block.timestamp */\n      lt\n      iszero\n        /* \"MSWAP/OneRouter.sol\":9390:9452  require(deadline >= block.timestamp, 'MarSwapRouter: EXPIRED') */\n      tag_280\n      jumpi\n      mload(0x40)\n      shl(0xe5, 0x461bcd)\n      dup2\n      mstore\n      0x04\n      add\n      tag_122\n      swap1\n      tag_123\n      jump\t// in\n    tag_280:\n        /* \"MSWAP/OneRouter.sol\":15061:15076  address factory */\n      0x00\n        /* \"MSWAP/OneRouter.sol\":15086:15092  router */\n      dup4\n      sub(shl(0xa0, 0x01), 0x01)\n        /* \"MSWAP/OneRouter.sol\":15079:15101  Router(router).factory */\n      and\n      0xc45a0155\n        /* \"MSWAP/OneRouter.sol\":15079:15103  Router(router).factory() */\n      mload(0x40)\n      dup2\n      0xffffffff\n      and\n      0xe0\n      shl\n      dup2\n      mstore\n      0x04\n      add\n      0x20\n      mload(0x40)\n      dup1\n      dup4\n      sub\n      dup2\n      dup7\n      dup1\n      extcodesize\n      iszero\n      dup1\n      iszero\n      tag_283\n      jumpi\n      0x00\n      dup1\n      revert\n    tag_283:\n      pop\n      gas\n      staticcall\n      iszero\n      dup1\n      iszero\n      tag_285\n      jumpi\n      returndatasize\n      0x00\n      dup1\n      returndatacopy\n      revert(0x00, returndatasize)\n    tag_285:\n      pop\n      pop\n      pop\n      pop\n      mload(0x40)\n      returndatasize\n      not(0x1f)\n      0x1f\n      dup3\n      add\n      and\n      dup3\n      add\n      dup1\n      0x40\n      mstore\n      pop\n      dup2\n      add\n      swap1\n      tag_286\n      swap2\n      swap1\n      tag_131\n      jump\t// in\n    tag_286:\n        /* \"MSWAP/OneRouter.sol\":15061:15103  address factory = Router(router).factory() */\n      swap1\n      pop\n        /* \"MSWAP/OneRouter.sol\":15133:15137  WETH */\n      immutable(\"0x76ebcca5044475ac2057166e26af5d40b5e78c6fd63a76f9c505daaac868948c\")\n      sub(shl(0xa0, 0x01), 0x01)\n        /* \"MSWAP/OneRouter.sol\":15122:15137  path[0] == WETH */\n      and\n        /* \"MSWAP/OneRouter.sol\":15122:15126  path */\n      dup9\n      dup9\n        /* \"MSWAP/OneRouter.sol\":15127:15128  0 */\n      0x00\n        /* \"MSWAP/OneRouter.sol\":15122:15129  path[0] */\n      dup2\n      dup2\n      lt\n      tag_288\n      jumpi\n      tag_288\n      tag_143\n      jump\t// in\n    tag_288:\n      swap1\n      pop\n      0x20\n      mul\n      add\n      0x20\n      dup2\n      add\n      swap1\n      tag_289\n      swap2\n      swap1\n      tag_53\n      jump\t// in\n    tag_289:\n      sub(shl(0xa0, 0x01), 0x01)\n        /* \"MSWAP/OneRouter.sol\":15122:15137  path[0] == WETH */\n      and\n      eq\n        /* \"MSWAP/OneRouter.sol\":15114:15169  require(path[0] == WETH, 'MarSwapRouter: INVALID_PATH') */\n      tag_290\n      jumpi\n      mload(0x40)\n      shl(0xe5, 0x461bcd)\n      dup2\n      mstore\n      0x04\n      add\n      tag_122\n      swap1\n      tag_177\n      jump\t// in\n    tag_290:\n        /* \"MSWAP/OneRouter.sol\":15190:15234  Router(router).getAmountsIn(amountOut, path) */\n      mload(0x40)\n      shl(0xe2, 0x07c0329d)\n      dup2\n      mstore\n      sub(shl(0xa0, 0x01), 0x01)\n        /* \"MSWAP/OneRouter.sol\":15190:15217  Router(router).getAmountsIn */\n      dup6\n      and\n      swap1\n      0x1f00ca74\n      swap1\n        /* \"MSWAP/OneRouter.sol\":15190:15234  Router(router).getAmountsIn(amountOut, path) */\n      tag_292\n      swap1\n        /* \"MSWAP/OneRouter.sol\":15218:15227  amountOut */\n      dup13\n      swap1\n        /* \"MSWAP/OneRouter.sol\":15229:15233  path */\n      dup13\n      swap1\n      dup13\n      swap1\n        /* \"MSWAP/OneRouter.sol\":15190:15234  Router(router).getAmountsIn(amountOut, path) */\n      0x04\n      add\n      tag_133\n      jump\t// in\n    tag_292:\n      0x00\n      mload(0x40)\n      dup1\n      dup4\n      sub\n      dup2\n      dup7\n      dup1\n      extcodesize\n      iszero\n      dup1\n      iszero\n      tag_293\n      jumpi\n      0x00\n      dup1\n      revert\n    tag_293:\n      pop\n      gas\n      staticcall\n      iszero\n      dup1\n      iszero\n      tag_295\n      jumpi\n      returndatasize\n      0x00\n      dup1\n      returndatacopy\n      revert(0x00, returndatasize)\n    tag_295:\n      pop\n      pop\n      pop\n      pop\n      mload(0x40)\n      returndatasize\n      0x00\n      dup3\n      returndatacopy\n      0x1f\n      returndatasize\n      swap1\n      dup2\n      add\n      not(0x1f)\n      and\n      dup3\n      add\n      0x40\n      mstore\n      tag_296\n      swap2\n      swap1\n      dup2\n      add\n      swap1\n      tag_138\n      jump\t// in\n    tag_296:\n        /* \"MSWAP/OneRouter.sol\":15180:15234  amounts = Router(router).getAmountsIn(amountOut, path) */\n      swap3\n      pop\n        /* \"MSWAP/OneRouter.sol\":15245:15253  uint fee */\n      0x00\n        /* \"MSWAP/OneRouter.sol\":15268:15273  txFee */\n      sload(0x03)\n        /* \"MSWAP/OneRouter.sol\":15276:15279  100 */\n      0x64\n        /* \"MSWAP/OneRouter.sol\":15268:15279  txFee * 100 */\n      tag_297\n      swap2\n      swap1\n      tag_179\n      jump\t// in\n    tag_297:\n        /* \"MSWAP/OneRouter.sol\":15256:15265  msg.value */\n      callvalue\n        /* \"MSWAP/OneRouter.sol\":15256:15279  msg.value > txFee * 100 */\n      gt\n        /* \"MSWAP/OneRouter.sol\":15256:15308  msg.value > txFee * 100 ? _chargeRouterFee(path) : 0 */\n      tag_298\n      jumpi\n        /* \"MSWAP/OneRouter.sol\":15307:15308  0 */\n      0x00\n        /* \"MSWAP/OneRouter.sol\":15256:15308  msg.value > txFee * 100 ? _chargeRouterFee(path) : 0 */\n      jump(tag_300)\n    tag_298:\n        /* \"MSWAP/OneRouter.sol\":15282:15304  _chargeRouterFee(path) */\n      tag_300\n        /* \"MSWAP/OneRouter.sol\":15299:15303  path */\n      dup10\n      dup10\n        /* \"MSWAP/OneRouter.sol\":15282:15304  _chargeRouterFee(path) */\n      dup1\n      dup1\n      0x20\n      mul\n      0x20\n      add\n      mload(0x40)\n      swap1\n      dup2\n      add\n      0x40\n      mstore\n      dup1\n      swap4\n      swap3\n      swap2\n      swap1\n      dup2\n      dup2\n      mstore\n      0x20\n      add\n      dup4\n      dup4\n      0x20\n      mul\n      dup1\n      dup3\n      dup5\n      calldatacopy\n      0x00\n      swap3\n      add\n      swap2\n      swap1\n      swap2\n      mstore\n      pop\n        /* \"MSWAP/OneRouter.sol\":15282:15298  _chargeRouterFee */\n      tag_126\n      swap3\n      pop\n      pop\n      pop\n        /* \"MSWAP/OneRouter.sol\":15282:15304  _chargeRouterFee(path) */\n      jump\t// in\n    tag_300:\n        /* \"MSWAP/OneRouter.sol\":15245:15308  uint fee = msg.value > txFee * 100 ? _chargeRouterFee(path) : 0 */\n      swap1\n      pop\n        /* \"MSWAP/OneRouter.sol\":15345:15348  fee */\n      dup1\n        /* \"MSWAP/OneRouter.sol\":15332:15339  amounts */\n      dup5\n        /* \"MSWAP/OneRouter.sol\":15340:15341  0 */\n      0x00\n        /* \"MSWAP/OneRouter.sol\":15332:15342  amounts[0] */\n      dup2\n      mload\n      dup2\n      lt\n      tag_302\n      jumpi\n      tag_302\n      tag_143\n      jump\t// in\n    tag_302:\n      0x20\n      mul\n      0x20\n      add\n      add\n      mload\n        /* \"MSWAP/OneRouter.sol\":15332:15348  amounts[0] - fee */\n      tag_303\n      swap2\n      swap1\n      tag_140\n      jump\t// in\n    tag_303:\n        /* \"MSWAP/OneRouter.sol\":15319:15326  amounts */\n      dup5\n        /* \"MSWAP/OneRouter.sol\":15327:15328  0 */\n      0x00\n        /* \"MSWAP/OneRouter.sol\":15319:15329  amounts[0] */\n      dup2\n      mload\n      dup2\n      lt\n      tag_305\n      jumpi\n      tag_305\n      tag_143\n      jump\t// in\n    tag_305:\n      0x20\n      swap1\n      dup2\n      mul\n      swap2\n      swap1\n      swap2\n      add\n      add\n        /* \"MSWAP/OneRouter.sol\":15319:15348  amounts[0] = amounts[0] - fee */\n      mstore\n        /* \"MSWAP/OneRouter.sol\":15381:15396  msg.value - fee */\n      tag_306\n        /* \"MSWAP/OneRouter.sol\":15393:15396  fee */\n      dup2\n        /* \"MSWAP/OneRouter.sol\":15381:15390  msg.value */\n      callvalue\n        /* \"MSWAP/OneRouter.sol\":15381:15396  msg.value - fee */\n      tag_140\n      jump\t// in\n    tag_306:\n        /* \"MSWAP/OneRouter.sol\":15367:15374  amounts */\n      dup5\n        /* \"MSWAP/OneRouter.sol\":15375:15376  0 */\n      0x00\n        /* \"MSWAP/OneRouter.sol\":15367:15377  amounts[0] */\n      dup2\n      mload\n      dup2\n      lt\n      tag_308\n      jumpi\n      tag_308\n      tag_143\n      jump\t// in\n    tag_308:\n      0x20\n      mul\n      0x20\n      add\n      add\n      mload\n        /* \"MSWAP/OneRouter.sol\":15367:15396  amounts[0] <= msg.value - fee */\n      gt\n      iszero\n        /* \"MSWAP/OneRouter.sol\":15359:15436  require(amounts[0] <= msg.value - fee, 'MARS_Router: EXCESSIVE_INPUT_AMOUNT') */\n      tag_309\n      jumpi\n      mload(0x40)\n      shl(0xe5, 0x461bcd)\n      dup2\n      mstore\n      0x04\n      add\n      tag_122\n      swap1\n      tag_311\n      jump\t// in\n    tag_309:\n        /* \"MSWAP/OneRouter.sol\":15453:15457  WETH */\n      immutable(\"0x76ebcca5044475ac2057166e26af5d40b5e78c6fd63a76f9c505daaac868948c\")\n      sub(shl(0xa0, 0x01), 0x01)\n        /* \"MSWAP/OneRouter.sol\":15447:15466  IWETH(WETH).deposit */\n      and\n      0xd0e30db0\n        /* \"MSWAP/OneRouter.sol\":15474:15481  amounts */\n      dup6\n        /* \"MSWAP/OneRouter.sol\":15482:15483  0 */\n      0x00\n        /* \"MSWAP/OneRouter.sol\":15474:15484  amounts[0] */\n      dup2\n      mload\n      dup2\n      lt\n      tag_313\n      jumpi\n      tag_313\n      tag_143\n      jump\t// in\n    tag_313:\n      0x20\n      mul\n      0x20\n      add\n      add\n      mload\n        /* \"MSWAP/OneRouter.sol\":15447:15487  IWETH(WETH).deposit{value: amounts[0]}() */\n      mload(0x40)\n      dup3\n      0xffffffff\n      and\n      0xe0\n      shl\n      dup2\n      mstore\n      0x04\n      add\n      0x00\n      mload(0x40)\n      dup1\n      dup4\n      sub\n      dup2\n      dup6\n      dup9\n      dup1\n      extcodesize\n      iszero\n      dup1\n      iszero\n      tag_314\n      jumpi\n      0x00\n      dup1\n      revert\n    tag_314:\n      pop\n      gas\n      call\n      iszero\n      dup1\n      iszero\n      tag_316\n      jumpi\n      returndatasize\n      0x00\n      dup1\n      returndatacopy\n      revert(0x00, returndatasize)\n    tag_316:\n      pop\n      pop\n      pop\n      pop\n      pop\n        /* \"MSWAP/OneRouter.sol\":15511:15515  WETH */\n      immutable(\"0x76ebcca5044475ac2057166e26af5d40b5e78c6fd63a76f9c505daaac868948c\")\n      sub(shl(0xa0, 0x01), 0x01)\n        /* \"MSWAP/OneRouter.sol\":15505:15525  IWETH(WETH).transfer */\n      and\n      0xa9059cbb\n        /* \"MSWAP/OneRouter.sol\":15526:15575  MarSwapLibrary.pairFor(factory, path[0], path[1]) */\n      tag_317\n        /* \"MSWAP/OneRouter.sol\":15549:15556  factory */\n      dup5\n        /* \"MSWAP/OneRouter.sol\":15558:15562  path */\n      dup13\n      dup13\n        /* \"MSWAP/OneRouter.sol\":15563:15564  0 */\n      0x00\n        /* \"MSWAP/OneRouter.sol\":15558:15565  path[0] */\n      dup2\n      dup2\n      lt\n      tag_153\n      jumpi\n      tag_153\n      tag_143\n      jump\t// in\n        /* \"MSWAP/OneRouter.sol\":15526:15575  MarSwapLibrary.pairFor(factory, path[0], path[1]) */\n    tag_317:\n        /* \"MSWAP/OneRouter.sol\":15577:15584  amounts */\n      dup7\n        /* \"MSWAP/OneRouter.sol\":15585:15586  0 */\n      0x00\n        /* \"MSWAP/OneRouter.sol\":15577:15587  amounts[0] */\n      dup2\n      mload\n      dup2\n      lt\n      tag_325\n      jumpi\n      tag_325\n      tag_143\n      jump\t// in\n    tag_325:\n      0x20\n      mul\n      0x20\n      add\n      add\n      mload\n        /* \"MSWAP/OneRouter.sol\":15505:15588  IWETH(WETH).transfer(MarSwapLibrary.pairFor(factory, path[0], path[1]), amounts[0]) */\n      mload(0x40)\n      dup4\n      0xffffffff\n      and\n      0xe0\n      shl\n      dup2\n      mstore\n      0x04\n      add\n      tag_326\n      swap3\n      swap2\n      swap1\n      sub(shl(0xa0, 0x01), 0x01)\n        /* \"#utility.yul\":6468:6500   */\n      swap3\n      swap1\n      swap3\n      and\n        /* \"#utility.yul\":6450:6501   */\n      dup3\n      mstore\n        /* \"#utility.yul\":6532:6534   */\n      0x20\n        /* \"#utility.yul\":6517:6535   */\n      dup3\n      add\n        /* \"#utility.yul\":6510:6544   */\n      mstore\n        /* \"#utility.yul\":6438:6440   */\n      0x40\n        /* \"#utility.yul\":6423:6441   */\n      add\n      swap1\n        /* \"#utility.yul\":6276:6550   */\n      jump\n        /* \"MSWAP/OneRouter.sol\":15505:15588  IWETH(WETH).transfer(MarSwapLibrary.pairFor(factory, path[0], path[1]), amounts[0]) */\n    tag_326:\n      0x20\n      mload(0x40)\n      dup1\n      dup4\n      sub\n      dup2\n      0x00\n      dup8\n      dup1\n      extcodesize\n      iszero\n      dup1\n      iszero\n      tag_327\n      jumpi\n      0x00\n      dup1\n      revert\n    tag_327:\n      pop\n      gas\n      call\n      iszero\n      dup1\n      iszero\n      tag_329\n      jumpi\n      returndatasize\n      0x00\n      dup1\n      returndatacopy\n      revert(0x00, returndatasize)\n    tag_329:\n      pop\n      pop\n      pop\n      pop\n      mload(0x40)\n      returndatasize\n      not(0x1f)\n      0x1f\n      dup3\n      add\n      and\n      dup3\n      add\n      dup1\n      0x40\n      mstore\n      pop\n      dup2\n      add\n      swap1\n      tag_330\n      swap2\n      swap1\n      tag_200\n      jump\t// in\n    tag_330:\n        /* \"MSWAP/OneRouter.sol\":15498:15589  assert(IWETH(WETH).transfer(MarSwapLibrary.pairFor(factory, path[0], path[1]), amounts[0])) */\n      tag_332\n      jumpi\n      tag_332\n      tag_31\n      jump\t// in\n    tag_332:\n        /* \"MSWAP/OneRouter.sol\":15600:15633  _swap(amounts, path, to, factory) */\n      tag_333\n        /* \"MSWAP/OneRouter.sol\":15606:15613  amounts */\n      dup5\n        /* \"MSWAP/OneRouter.sol\":15615:15619  path */\n      dup11\n      dup11\n        /* \"MSWAP/OneRouter.sol\":15600:15633  _swap(amounts, path, to, factory) */\n      dup1\n      dup1\n      0x20\n      mul\n      0x20\n      add\n      mload(0x40)\n      swap1\n      dup2\n      add\n      0x40\n      mstore\n      dup1\n      swap4\n      swap3\n      swap2\n      swap1\n      dup2\n      dup2\n      mstore\n      0x20\n      add\n      dup4\n      dup4\n      0x20\n      mul\n      dup1\n      dup3\n      dup5\n      calldatacopy\n      0x00\n      swap3\n      add\n      swap2\n      swap1\n      swap2\n      mstore\n      pop\n        /* \"MSWAP/OneRouter.sol\":15621:15623  to */\n      dup13\n      swap3\n      pop\n        /* \"MSWAP/OneRouter.sol\":15625:15632  factory */\n      dup8\n      swap2\n      pop\n        /* \"MSWAP/OneRouter.sol\":15600:15605  _swap */\n      tag_163\n      swap1\n      pop\n        /* \"MSWAP/OneRouter.sol\":15600:15633  _swap(amounts, path, to, factory) */\n      jump\t// in\n    tag_333:\n        /* \"MSWAP/OneRouter.sol\":15696:15703  amounts */\n      dup4\n        /* \"MSWAP/OneRouter.sol\":15704:15705  0 */\n      0x00\n        /* \"MSWAP/OneRouter.sol\":15696:15706  amounts[0] */\n      dup2\n      mload\n      dup2\n      lt\n      tag_335\n      jumpi\n      tag_335\n      tag_143\n      jump\t// in\n    tag_335:\n      0x20\n      mul\n      0x20\n      add\n      add\n      mload\n        /* \"MSWAP/OneRouter.sol\":15684:15693  msg.value */\n      callvalue\n        /* \"MSWAP/OneRouter.sol\":15684:15706  msg.value > amounts[0] */\n      gt\n        /* \"MSWAP/OneRouter.sol\":15680:15774  if (msg.value > amounts[0]) TransferHelper.safeTransferETH(msg.sender, msg.value - amounts[0]) */\n      iszero\n      tag_337\n      jumpi\n        /* \"MSWAP/OneRouter.sol\":15708:15774  TransferHelper.safeTransferETH(msg.sender, msg.value - amounts[0]) */\n      tag_337\n        /* \"MSWAP/OneRouter.sol\":15739:15749  msg.sender */\n      caller\n        /* \"MSWAP/OneRouter.sol\":15763:15770  amounts */\n      dup6\n        /* \"MSWAP/OneRouter.sol\":15771:15772  0 */\n      0x00\n        /* \"MSWAP/OneRouter.sol\":15763:15773  amounts[0] */\n      dup2\n      mload\n      dup2\n      lt\n      tag_339\n      jumpi\n      tag_339\n      tag_143\n      jump\t// in\n    tag_339:\n      0x20\n      mul\n      0x20\n      add\n      add\n      mload\n        /* \"MSWAP/OneRouter.sol\":15751:15760  msg.value */\n      callvalue\n        /* \"MSWAP/OneRouter.sol\":15751:15773  msg.value - amounts[0] */\n      tag_340\n      swap2\n      swap1\n      tag_140\n      jump\t// in\n    tag_340:\n        /* \"MSWAP/OneRouter.sol\":15708:15738  TransferHelper.safeTransferETH */\n      tag_278\n        /* \"MSWAP/OneRouter.sol\":15708:15774  TransferHelper.safeTransferETH(msg.sender, msg.value - amounts[0]) */\n      jump\t// in\n    tag_337:\n        /* \"MSWAP/OneRouter.sol\":15050:15782  {\r... */\n      pop\n      pop\n        /* \"MSWAP/OneRouter.sol\":14811:15782  function swapETHForExactTokens(uint amountOut, address[] calldata path, address to, uint deadline, address router)\r... */\n      pop\n      swap7\n      swap6\n      pop\n      pop\n      pop\n      pop\n      pop\n      pop\n      jump\t// out\n        /* \"MSWAP/OneRouter.sol\":12086:12925  function swapExactETHForTokens(uint amountOutMin, address[] calldata path, address to, uint deadline, address router)\r... */\n    tag_59:\n        /* \"MSWAP/OneRouter.sol\":12300:12321  uint[] memory amounts */\n      0x60\n        /* \"MSWAP/OneRouter.sol\":12272:12280  deadline */\n      dup3\n        /* \"MSWAP/OneRouter.sol\":9410:9425  block.timestamp */\n      timestamp\n        /* \"MSWAP/OneRouter.sol\":9398:9406  deadline */\n      dup2\n        /* \"MSWAP/OneRouter.sol\":9398:9425  deadline >= block.timestamp */\n      lt\n      iszero\n        /* \"MSWAP/OneRouter.sol\":9390:9452  require(deadline >= block.timestamp, 'MarSwapRouter: EXPIRED') */\n      tag_343\n      jumpi\n      mload(0x40)\n      shl(0xe5, 0x461bcd)\n      dup2\n      mstore\n      0x04\n      add\n      tag_122\n      swap1\n      tag_123\n      jump\t// in\n    tag_343:\n        /* \"MSWAP/OneRouter.sol\":12339:12354  address factory */\n      0x00\n        /* \"MSWAP/OneRouter.sol\":12364:12370  router */\n      dup4\n      sub(shl(0xa0, 0x01), 0x01)\n        /* \"MSWAP/OneRouter.sol\":12357:12379  Router(router).factory */\n      and\n      0xc45a0155\n        /* \"MSWAP/OneRouter.sol\":12357:12381  Router(router).factory() */\n      mload(0x40)\n      dup2\n      0xffffffff\n      and\n      0xe0\n      shl\n      dup2\n      mstore\n      0x04\n      add\n      0x20\n      mload(0x40)\n      dup1\n      dup4\n      sub\n      dup2\n      dup7\n      dup1\n      extcodesize\n      iszero\n      dup1\n      iszero\n      tag_346\n      jumpi\n      0x00\n      dup1\n      revert\n    tag_346:\n      pop\n      gas\n      staticcall\n      iszero\n      dup1\n      iszero\n      tag_348\n      jumpi\n      returndatasize\n      0x00\n      dup1\n      returndatacopy\n      revert(0x00, returndatasize)\n    tag_348:\n      pop\n      pop\n      pop\n      pop\n      mload(0x40)\n      returndatasize\n      not(0x1f)\n      0x1f\n      dup3\n      add\n      and\n      dup3\n      add\n      dup1\n      0x40\n      mstore\n      pop\n      dup2\n      add\n      swap1\n      tag_349\n      swap2\n      swap1\n      tag_131\n      jump\t// in\n    tag_349:\n        /* \"MSWAP/OneRouter.sol\":12339:12381  address factory = Router(router).factory() */\n      swap1\n      pop\n        /* \"MSWAP/OneRouter.sol\":12411:12415  WETH */\n      immutable(\"0x76ebcca5044475ac2057166e26af5d40b5e78c6fd63a76f9c505daaac868948c\")\n      sub(shl(0xa0, 0x01), 0x01)\n        /* \"MSWAP/OneRouter.sol\":12400:12415  path[0] == WETH */\n      and\n        /* \"MSWAP/OneRouter.sol\":12400:12404  path */\n      dup9\n      dup9\n        /* \"MSWAP/OneRouter.sol\":12405:12406  0 */\n      0x00\n        /* \"MSWAP/OneRouter.sol\":12400:12407  path[0] */\n      dup2\n      dup2\n      lt\n      tag_351\n      jumpi\n      tag_351\n      tag_143\n      jump\t// in\n    tag_351:\n      swap1\n      pop\n      0x20\n      mul\n      add\n      0x20\n      dup2\n      add\n      swap1\n      tag_352\n      swap2\n      swap1\n      tag_53\n      jump\t// in\n    tag_352:\n      sub(shl(0xa0, 0x01), 0x01)\n        /* \"MSWAP/OneRouter.sol\":12400:12415  path[0] == WETH */\n      and\n      eq\n        /* \"MSWAP/OneRouter.sol\":12392:12447  require(path[0] == WETH, 'MarSwapRouter: INVALID_PATH') */\n      tag_353\n      jumpi\n      mload(0x40)\n      shl(0xe5, 0x461bcd)\n      dup2\n      mstore\n      0x04\n      add\n      tag_122\n      swap1\n      tag_177\n      jump\t// in\n    tag_353:\n        /* \"MSWAP/OneRouter.sol\":12459:12472  uint amountIn */\n      0x00\n        /* \"MSWAP/OneRouter.sol\":12487:12492  txFee */\n      sload(0x03)\n        /* \"MSWAP/OneRouter.sol\":12495:12498  100 */\n      0x64\n        /* \"MSWAP/OneRouter.sol\":12487:12498  txFee * 100 */\n      tag_355\n      swap2\n      swap1\n      tag_179\n      jump\t// in\n    tag_355:\n        /* \"MSWAP/OneRouter.sol\":12475:12484  msg.value */\n      callvalue\n        /* \"MSWAP/OneRouter.sol\":12475:12498  msg.value > txFee * 100 */\n      gt\n        /* \"MSWAP/OneRouter.sol\":12475:12547  msg.value > txFee * 100 ? msg.value - _chargeRouterFee(path) : msg.value */\n      tag_356\n      jumpi\n        /* \"MSWAP/OneRouter.sol\":12538:12547  msg.value */\n      callvalue\n        /* \"MSWAP/OneRouter.sol\":12475:12547  msg.value > txFee * 100 ? msg.value - _chargeRouterFee(path) : msg.value */\n      jump(tag_359)\n    tag_356:\n        /* \"MSWAP/OneRouter.sol\":12513:12535  _chargeRouterFee(path) */\n      tag_358\n        /* \"MSWAP/OneRouter.sol\":12530:12534  path */\n      dup10\n      dup10\n        /* \"MSWAP/OneRouter.sol\":12513:12535  _chargeRouterFee(path) */\n      dup1\n      dup1\n      0x20\n      mul\n      0x20\n      add\n      mload(0x40)\n      swap1\n      dup2\n      add\n      0x40\n      mstore\n      dup1\n      swap4\n      swap3\n      swap2\n      swap1\n      dup2\n      dup2\n      mstore\n      0x20\n      add\n      dup4\n      dup4\n      0x20\n      mul\n      dup1\n      dup3\n      dup5\n      calldatacopy\n      0x00\n      swap3\n      add\n      swap2\n      swap1\n      swap2\n      mstore\n      pop\n        /* \"MSWAP/OneRouter.sol\":12513:12529  _chargeRouterFee */\n      tag_126\n      swap3\n      pop\n      pop\n      pop\n        /* \"MSWAP/OneRouter.sol\":12513:12535  _chargeRouterFee(path) */\n      jump\t// in\n    tag_358:\n        /* \"MSWAP/OneRouter.sol\":12501:12535  msg.value - _chargeRouterFee(path) */\n      tag_359\n      swap1\n        /* \"MSWAP/OneRouter.sol\":12501:12510  msg.value */\n      callvalue\n        /* \"MSWAP/OneRouter.sol\":12501:12535  msg.value - _chargeRouterFee(path) */\n      tag_140\n      jump\t// in\n    tag_359:\n        /* \"MSWAP/OneRouter.sol\":12568:12612  Router(router).getAmountsOut(amountIn, path) */\n      mload(0x40)\n      shl(0xe0, 0xd06ca61f)\n      dup2\n      mstore\n        /* \"MSWAP/OneRouter.sol\":12459:12547  uint amountIn = msg.value > txFee * 100 ? msg.value - _chargeRouterFee(path) : msg.value */\n      swap1\n      swap2\n      pop\n      sub(shl(0xa0, 0x01), 0x01)\n        /* \"MSWAP/OneRouter.sol\":12568:12596  Router(router).getAmountsOut */\n      dup7\n      and\n      swap1\n      0xd06ca61f\n      swap1\n        /* \"MSWAP/OneRouter.sol\":12568:12612  Router(router).getAmountsOut(amountIn, path) */\n      tag_360\n      swap1\n        /* \"MSWAP/OneRouter.sol\":12459:12547  uint amountIn = msg.value > txFee * 100 ? msg.value - _chargeRouterFee(path) : msg.value */\n      dup5\n      swap1\n        /* \"MSWAP/OneRouter.sol\":12607:12611  path */\n      dup14\n      swap1\n      dup14\n      swap1\n        /* \"MSWAP/OneRouter.sol\":12568:12612  Router(router).getAmountsOut(amountIn, path) */\n      0x04\n      add\n      tag_133\n      jump\t// in\n    tag_360:\n      0x00\n      mload(0x40)\n      dup1\n      dup4\n      sub\n      dup2\n      dup7\n      dup1\n      extcodesize\n      iszero\n      dup1\n      iszero\n      tag_361\n      jumpi\n      0x00\n      dup1\n      revert\n    tag_361:\n      pop\n      gas\n      staticcall\n      iszero\n      dup1\n      iszero\n      tag_363\n      jumpi\n      returndatasize\n      0x00\n      dup1\n      returndatacopy\n      revert(0x00, returndatasize)\n    tag_363:\n      pop\n      pop\n      pop\n      pop\n      mload(0x40)\n      returndatasize\n      0x00\n      dup3\n      returndatacopy\n      0x1f\n      returndatasize\n      swap1\n      dup2\n      add\n      not(0x1f)\n      and\n      dup3\n      add\n      0x40\n      mstore\n      tag_364\n      swap2\n      swap1\n      dup2\n      add\n      swap1\n      tag_138\n      jump\t// in\n    tag_364:\n        /* \"MSWAP/OneRouter.sol\":12558:12612  amounts = Router(router).getAmountsOut(amountIn, path) */\n      swap4\n      pop\n        /* \"MSWAP/OneRouter.sol\":12662:12674  amountOutMin */\n      dup10\n        /* \"MSWAP/OneRouter.sol\":12631:12638  amounts */\n      dup5\n        /* \"MSWAP/OneRouter.sol\":12656:12657  1 */\n      0x01\n        /* \"MSWAP/OneRouter.sol\":12639:12646  amounts */\n      dup7\n        /* \"MSWAP/OneRouter.sol\":12639:12653  amounts.length */\n      mload\n        /* \"MSWAP/OneRouter.sol\":12639:12657  amounts.length - 1 */\n      tag_365\n      swap2\n      swap1\n      tag_140\n      jump\t// in\n    tag_365:\n        /* \"MSWAP/OneRouter.sol\":12631:12658  amounts[amounts.length - 1] */\n      dup2\n      mload\n      dup2\n      lt\n      tag_367\n      jumpi\n      tag_367\n      tag_143\n      jump\t// in\n    tag_367:\n      0x20\n      mul\n      0x20\n      add\n      add\n      mload\n        /* \"MSWAP/OneRouter.sol\":12631:12674  amounts[amounts.length - 1] >= amountOutMin */\n      lt\n      iszero\n        /* \"MSWAP/OneRouter.sol\":12623:12720  require(amounts[amounts.length - 1] >= amountOutMin, 'MarSwapRouter: INSUFFICIENT_OUTPUT_AMOUNT') */\n      tag_368\n      jumpi\n      mload(0x40)\n      shl(0xe5, 0x461bcd)\n      dup2\n      mstore\n      0x04\n      add\n      tag_122\n      swap1\n      tag_146\n      jump\t// in\n    tag_368:\n        /* \"MSWAP/OneRouter.sol\":12737:12741  WETH */\n      immutable(\"0x76ebcca5044475ac2057166e26af5d40b5e78c6fd63a76f9c505daaac868948c\")\n      sub(shl(0xa0, 0x01), 0x01)\n        /* \"MSWAP/OneRouter.sol\":12731:12750  IWETH(WETH).deposit */\n      and\n      0xd0e30db0\n        /* \"MSWAP/OneRouter.sol\":12758:12765  amounts */\n      dup6\n        /* \"MSWAP/OneRouter.sol\":12766:12767  0 */\n      0x00\n        /* \"MSWAP/OneRouter.sol\":12758:12768  amounts[0] */\n      dup2\n      mload\n      dup2\n      lt\n      tag_371\n      jumpi\n      tag_371\n      tag_143\n      jump\t// in\n    tag_371:\n      0x20\n      mul\n      0x20\n      add\n      add\n      mload\n        /* \"MSWAP/OneRouter.sol\":12731:12771  IWETH(WETH).deposit{value: amounts[0]}() */\n      mload(0x40)\n      dup3\n      0xffffffff\n      and\n      0xe0\n      shl\n      dup2\n      mstore\n      0x04\n      add\n      0x00\n      mload(0x40)\n      dup1\n      dup4\n      sub\n      dup2\n      dup6\n      dup9\n      dup1\n      extcodesize\n      iszero\n      dup1\n      iszero\n      tag_372\n      jumpi\n      0x00\n      dup1\n      revert\n    tag_372:\n      pop\n      gas\n      call\n      iszero\n      dup1\n      iszero\n      tag_374\n      jumpi\n      returndatasize\n      0x00\n      dup1\n      returndatacopy\n      revert(0x00, returndatasize)\n    tag_374:\n      pop\n      pop\n      pop\n      pop\n      pop\n        /* \"MSWAP/OneRouter.sol\":12795:12799  WETH */\n      immutable(\"0x76ebcca5044475ac2057166e26af5d40b5e78c6fd63a76f9c505daaac868948c\")\n      sub(shl(0xa0, 0x01), 0x01)\n        /* \"MSWAP/OneRouter.sol\":12789:12809  IWETH(WETH).transfer */\n      and\n      0xa9059cbb\n        /* \"MSWAP/OneRouter.sol\":12810:12859  MarSwapLibrary.pairFor(factory, path[0], path[1]) */\n      tag_375\n        /* \"MSWAP/OneRouter.sol\":12833:12840  factory */\n      dup5\n        /* \"MSWAP/OneRouter.sol\":12842:12846  path */\n      dup13\n      dup13\n        /* \"MSWAP/OneRouter.sol\":12847:12848  0 */\n      0x00\n        /* \"MSWAP/OneRouter.sol\":12842:12849  path[0] */\n      dup2\n      dup2\n      lt\n      tag_153\n      jumpi\n      tag_153\n      tag_143\n      jump\t// in\n        /* \"MSWAP/OneRouter.sol\":12810:12859  MarSwapLibrary.pairFor(factory, path[0], path[1]) */\n    tag_375:\n        /* \"MSWAP/OneRouter.sol\":12861:12868  amounts */\n      dup7\n        /* \"MSWAP/OneRouter.sol\":12869:12870  0 */\n      0x00\n        /* \"MSWAP/OneRouter.sol\":12861:12871  amounts[0] */\n      dup2\n      mload\n      dup2\n      lt\n      tag_383\n      jumpi\n      tag_383\n      tag_143\n      jump\t// in\n    tag_383:\n      0x20\n      mul\n      0x20\n      add\n      add\n      mload\n        /* \"MSWAP/OneRouter.sol\":12789:12872  IWETH(WETH).transfer(MarSwapLibrary.pairFor(factory, path[0], path[1]), amounts[0]) */\n      mload(0x40)\n      dup4\n      0xffffffff\n      and\n      0xe0\n      shl\n      dup2\n      mstore\n      0x04\n      add\n      tag_384\n      swap3\n      swap2\n      swap1\n      sub(shl(0xa0, 0x01), 0x01)\n        /* \"#utility.yul\":6468:6500   */\n      swap3\n      swap1\n      swap3\n      and\n        /* \"#utility.yul\":6450:6501   */\n      dup3\n      mstore\n        /* \"#utility.yul\":6532:6534   */\n      0x20\n        /* \"#utility.yul\":6517:6535   */\n      dup3\n      add\n        /* \"#utility.yul\":6510:6544   */\n      mstore\n        /* \"#utility.yul\":6438:6440   */\n      0x40\n        /* \"#utility.yul\":6423:6441   */\n      add\n      swap1\n        /* \"#utility.yul\":6276:6550   */\n      jump\n        /* \"MSWAP/OneRouter.sol\":12789:12872  IWETH(WETH).transfer(MarSwapLibrary.pairFor(factory, path[0], path[1]), amounts[0]) */\n    tag_384:\n      0x20\n      mload(0x40)\n      dup1\n      dup4\n      sub\n      dup2\n      0x00\n      dup8\n      dup1\n      extcodesize\n      iszero\n      dup1\n      iszero\n      tag_385\n      jumpi\n      0x00\n      dup1\n      revert\n    tag_385:\n      pop\n      gas\n      call\n      iszero\n      dup1\n      iszero\n      tag_387\n      jumpi\n      returndatasize\n      0x00\n      dup1\n      returndatacopy\n      revert(0x00, returndatasize)\n    tag_387:\n      pop\n      pop\n      pop\n      pop\n      mload(0x40)\n      returndatasize\n      not(0x1f)\n      0x1f\n      dup3\n      add\n      and\n      dup3\n      add\n      dup1\n      0x40\n      mstore\n      pop\n      dup2\n      add\n      swap1\n      tag_388\n      swap2\n      swap1\n      tag_200\n      jump\t// in\n    tag_388:\n        /* \"MSWAP/OneRouter.sol\":12782:12873  assert(IWETH(WETH).transfer(MarSwapLibrary.pairFor(factory, path[0], path[1]), amounts[0])) */\n      tag_390\n      jumpi\n      tag_390\n      tag_31\n      jump\t// in\n    tag_390:\n        /* \"MSWAP/OneRouter.sol\":12884:12917  _swap(amounts, path, to, factory) */\n      tag_337\n        /* \"MSWAP/OneRouter.sol\":12890:12897  amounts */\n      dup5\n        /* \"MSWAP/OneRouter.sol\":12899:12903  path */\n      dup11\n      dup11\n        /* \"MSWAP/OneRouter.sol\":12884:12917  _swap(amounts, path, to, factory) */\n      dup1\n      dup1\n      0x20\n      mul\n      0x20\n      add\n      mload(0x40)\n      swap1\n      dup2\n      add\n      0x40\n      mstore\n      dup1\n      swap4\n      swap3\n      swap2\n      swap1\n      dup2\n      dup2\n      mstore\n      0x20\n      add\n      dup4\n      dup4\n      0x20\n      mul\n      dup1\n      dup3\n      dup5\n      calldatacopy\n      0x00\n      swap3\n      add\n      swap2\n      swap1\n      swap2\n      mstore\n      pop\n        /* \"MSWAP/OneRouter.sol\":12905:12907  to */\n      dup13\n      swap3\n      pop\n        /* \"MSWAP/OneRouter.sol\":12909:12916  factory */\n      dup8\n      swap2\n      pop\n        /* \"MSWAP/OneRouter.sol\":12884:12889  _swap */\n      tag_163\n      swap1\n      pop\n        /* \"MSWAP/OneRouter.sol\":12884:12917  _swap(amounts, path, to, factory) */\n      jump\t// in\n        /* \"MSWAP/OneRouter.sol\":19124:20090  function swapExactTokensForETHSupportingFeeOnTransferTokens(\r... */\n    tag_63:\n        /* \"MSWAP/OneRouter.sol\":19415:19423  deadline */\n      dup2\n        /* \"MSWAP/OneRouter.sol\":9410:9425  block.timestamp */\n      timestamp\n        /* \"MSWAP/OneRouter.sol\":9398:9406  deadline */\n      dup2\n        /* \"MSWAP/OneRouter.sol\":9398:9425  deadline >= block.timestamp */\n      lt\n      iszero\n        /* \"MSWAP/OneRouter.sol\":9390:9452  require(deadline >= block.timestamp, 'MarSwapRouter: EXPIRED') */\n      tag_393\n      jumpi\n      mload(0x40)\n      shl(0xe5, 0x461bcd)\n      dup2\n      mstore\n      0x04\n      add\n      tag_122\n      swap1\n      tag_123\n      jump\t// in\n    tag_393:\n        /* \"MSWAP/OneRouter.sol\":19441:19456  address factory */\n      0x00\n        /* \"MSWAP/OneRouter.sol\":19466:19472  router */\n      dup3\n      sub(shl(0xa0, 0x01), 0x01)\n        /* \"MSWAP/OneRouter.sol\":19459:19481  Router(router).factory */\n      and\n      0xc45a0155\n        /* \"MSWAP/OneRouter.sol\":19459:19483  Router(router).factory() */\n      mload(0x40)\n      dup2\n      0xffffffff\n      and\n      0xe0\n      shl\n      dup2\n      mstore\n      0x04\n      add\n      0x20\n      mload(0x40)\n      dup1\n      dup4\n      sub\n      dup2\n      dup7\n      dup1\n      extcodesize\n      iszero\n      dup1\n      iszero\n      tag_396\n      jumpi\n      0x00\n      dup1\n      revert\n    tag_396:\n      pop\n      gas\n      staticcall\n      iszero\n      dup1\n      iszero\n      tag_398\n      jumpi\n      returndatasize\n      0x00\n      dup1\n      returndatacopy\n      revert(0x00, returndatasize)\n    tag_398:\n      pop\n      pop\n      pop\n      pop\n      mload(0x40)\n      returndatasize\n      not(0x1f)\n      0x1f\n      dup3\n      add\n      and\n      dup3\n      add\n      dup1\n      0x40\n      mstore\n      pop\n      dup2\n      add\n      swap1\n      tag_399\n      swap2\n      swap1\n      tag_131\n      jump\t// in\n    tag_399:\n        /* \"MSWAP/OneRouter.sol\":19441:19483  address factory = Router(router).factory() */\n      swap1\n      pop\n      sub(shl(0xa0, 0x01), 0x01)\n        /* \"MSWAP/OneRouter.sol\":19527:19531  WETH */\n      immutable(\"0x76ebcca5044475ac2057166e26af5d40b5e78c6fd63a76f9c505daaac868948c\")\n        /* \"MSWAP/OneRouter.sol\":19502:19531  path[path.length - 1] == WETH */\n      and\n        /* \"MSWAP/OneRouter.sol\":19502:19506  path */\n      dup8\n      dup8\n        /* \"MSWAP/OneRouter.sol\":19507:19522  path.length - 1 */\n      tag_400\n        /* \"MSWAP/OneRouter.sol\":19521:19522  1 */\n      0x01\n        /* \"MSWAP/OneRouter.sol\":19502:19506  path */\n      dup3\n        /* \"MSWAP/OneRouter.sol\":19507:19522  path.length - 1 */\n      tag_140\n      jump\t// in\n    tag_400:\n        /* \"MSWAP/OneRouter.sol\":19502:19523  path[path.length - 1] */\n      dup2\n      dup2\n      lt\n      tag_402\n      jumpi\n      tag_402\n      tag_143\n      jump\t// in\n    tag_402:\n      swap1\n      pop\n      0x20\n      mul\n      add\n      0x20\n      dup2\n      add\n      swap1\n      tag_403\n      swap2\n      swap1\n      tag_53\n      jump\t// in\n    tag_403:\n      sub(shl(0xa0, 0x01), 0x01)\n        /* \"MSWAP/OneRouter.sol\":19502:19531  path[path.length - 1] == WETH */\n      and\n      eq\n        /* \"MSWAP/OneRouter.sol\":19494:19563  require(path[path.length - 1] == WETH, 'MarSwapRouter: INVALID_PATH') */\n      tag_404\n      jumpi\n      mload(0x40)\n      shl(0xe5, 0x461bcd)\n      dup2\n      mstore\n      0x04\n      add\n      tag_122\n      swap1\n      tag_177\n      jump\t// in\n    tag_404:\n        /* \"MSWAP/OneRouter.sol\":19574:19596  _chargeRouterFee(path) */\n      tag_406\n        /* \"MSWAP/OneRouter.sol\":19591:19595  path */\n      dup8\n      dup8\n        /* \"MSWAP/OneRouter.sol\":19574:19596  _chargeRouterFee(path) */\n      dup1\n      dup1\n      0x20\n      mul\n      0x20\n      add\n      mload(0x40)\n      swap1\n      dup2\n      add\n      0x40\n      mstore\n      dup1\n      swap4\n      swap3\n      swap2\n      swap1\n      dup2\n      dup2\n      mstore\n      0x20\n      add\n      dup4\n      dup4\n      0x20\n      mul\n      dup1\n      dup3\n      dup5\n      calldatacopy\n      0x00\n      swap3\n      add\n      swap2\n      swap1\n      swap2\n      mstore\n      pop\n        /* \"MSWAP/OneRouter.sol\":19574:19590  _chargeRouterFee */\n      tag_126\n      swap3\n      pop\n      pop\n      pop\n        /* \"MSWAP/OneRouter.sol\":19574:19596  _chargeRouterFee(path) */\n      jump\t// in\n    tag_406:\n      pop\n        /* \"MSWAP/OneRouter.sol\":19607:19744  TransferHelper.safeTransferFrom(\r... */\n      tag_407\n        /* \"MSWAP/OneRouter.sol\":19653:19657  path */\n      dup8\n      dup8\n        /* \"MSWAP/OneRouter.sol\":19658:19659  0 */\n      0x00\n        /* \"MSWAP/OneRouter.sol\":19653:19660  path[0] */\n      dup2\n      dup2\n      lt\n      tag_409\n      jumpi\n      tag_409\n      tag_143\n      jump\t// in\n    tag_409:\n      swap1\n      pop\n      0x20\n      mul\n      add\n      0x20\n      dup2\n      add\n      swap1\n      tag_410\n      swap2\n      swap1\n      tag_53\n      jump\t// in\n    tag_410:\n        /* \"MSWAP/OneRouter.sol\":19662:19672  msg.sender */\n      caller\n        /* \"MSWAP/OneRouter.sol\":19674:19723  MarSwapLibrary.pairFor(factory, path[0], path[1]) */\n      tag_411\n        /* \"MSWAP/OneRouter.sol\":19697:19704  factory */\n      dup5\n        /* \"MSWAP/OneRouter.sol\":19706:19710  path */\n      dup12\n      dup12\n        /* \"MSWAP/OneRouter.sol\":19711:19712  0 */\n      0x00\n        /* \"MSWAP/OneRouter.sol\":19706:19713  path[0] */\n      dup2\n      dup2\n      lt\n      tag_189\n      jumpi\n      tag_189\n      tag_143\n      jump\t// in\n        /* \"MSWAP/OneRouter.sol\":19674:19723  MarSwapLibrary.pairFor(factory, path[0], path[1]) */\n    tag_411:\n        /* \"MSWAP/OneRouter.sol\":19725:19733  amountIn */\n      dup13\n        /* \"MSWAP/OneRouter.sol\":19607:19638  TransferHelper.safeTransferFrom */\n      tag_161\n        /* \"MSWAP/OneRouter.sol\":19607:19744  TransferHelper.safeTransferFrom(\r... */\n      jump\t// in\n    tag_407:\n        /* \"MSWAP/OneRouter.sol\":19755:19827  _swapSupportingFeeOnTransferTokens(path, address(this), factory, router) */\n      tag_418\n        /* \"MSWAP/OneRouter.sol\":19790:19794  path */\n      dup8\n      dup8\n        /* \"MSWAP/OneRouter.sol\":19755:19827  _swapSupportingFeeOnTransferTokens(path, address(this), factory, router) */\n      dup1\n      dup1\n      0x20\n      mul\n      0x20\n      add\n      mload(0x40)\n      swap1\n      dup2\n      add\n      0x40\n      mstore\n      dup1\n      swap4\n      swap3\n      swap2\n      swap1\n      dup2\n      dup2\n      mstore\n      0x20\n      add\n      dup4\n      dup4\n      0x20\n      mul\n      dup1\n      dup3\n      dup5\n      calldatacopy\n      0x00\n      swap3\n      add\n      swap2\n      swap1\n      swap2\n      mstore\n      pop\n        /* \"MSWAP/OneRouter.sol\":19804:19808  this */\n      address\n      swap3\n      pop\n        /* \"MSWAP/OneRouter.sol\":19811:19818  factory */\n      dup6\n      swap2\n      pop\n        /* \"MSWAP/OneRouter.sol\":19820:19826  router */\n      dup8\n      swap1\n      pop\n        /* \"MSWAP/OneRouter.sol\":19755:19789  _swapSupportingFeeOnTransferTokens */\n      tag_214\n        /* \"MSWAP/OneRouter.sol\":19755:19827  _swapSupportingFeeOnTransferTokens(path, address(this), factory, router) */\n      jump\t// in\n    tag_418:\n        /* \"MSWAP/OneRouter.sol\":19855:19892  IERC20(WETH).balanceOf(address(this)) */\n      mload(0x40)\n      shl(0xe0, 0x70a08231)\n      dup2\n      mstore\n        /* \"MSWAP/OneRouter.sol\":19886:19890  this */\n      address\n        /* \"MSWAP/OneRouter.sol\":19855:19892  IERC20(WETH).balanceOf(address(this)) */\n      0x04\n      dup3\n      add\n        /* \"#utility.yul\":5525:5576   */\n      mstore\n        /* \"MSWAP/OneRouter.sol\":19838:19852  uint amountOut */\n      0x00\n      swap1\n        /* \"MSWAP/OneRouter.sol\":19862:19866  WETH */\n      immutable(\"0x76ebcca5044475ac2057166e26af5d40b5e78c6fd63a76f9c505daaac868948c\")\n      sub(shl(0xa0, 0x01), 0x01)\n        /* \"MSWAP/OneRouter.sol\":19855:19877  IERC20(WETH).balanceOf */\n      and\n      swap1\n      0x70a08231\n      swap1\n        /* \"#utility.yul\":5498:5516   */\n      0x24\n      add\n        /* \"MSWAP/OneRouter.sol\":19855:19892  IERC20(WETH).balanceOf(address(this)) */\n      0x20\n      mload(0x40)\n      dup1\n      dup4\n      sub\n      dup2\n      dup7\n      dup1\n      extcodesize\n      iszero\n      dup1\n      iszero\n      tag_420\n      jumpi\n      0x00\n      dup1\n      revert\n    tag_420:\n      pop\n      gas\n      staticcall\n      iszero\n      dup1\n      iszero\n      tag_422\n      jumpi\n      returndatasize\n      0x00\n      dup1\n      returndatacopy\n      revert(0x00, returndatasize)\n    tag_422:\n      pop\n      pop\n      pop\n      pop\n      mload(0x40)\n      returndatasize\n      not(0x1f)\n      0x1f\n      dup3\n      add\n      and\n      dup3\n      add\n      dup1\n      0x40\n      mstore\n      pop\n      dup2\n      add\n      swap1\n      tag_423\n      swap2\n      swap1\n      tag_212\n      jump\t// in\n    tag_423:\n        /* \"MSWAP/OneRouter.sol\":19838:19892  uint amountOut = IERC20(WETH).balanceOf(address(this)) */\n      swap1\n      pop\n        /* \"MSWAP/OneRouter.sol\":19924:19936  amountOutMin */\n      dup9\n        /* \"MSWAP/OneRouter.sol\":19911:19920  amountOut */\n      dup2\n        /* \"MSWAP/OneRouter.sol\":19911:19936  amountOut >= amountOutMin */\n      lt\n      iszero\n        /* \"MSWAP/OneRouter.sol\":19903:19982  require(amountOut >= amountOutMin, 'MarSwapRouter: INSUFFICIENT_OUTPUT_AMOUNT') */\n      tag_424\n      jumpi\n      mload(0x40)\n      shl(0xe5, 0x461bcd)\n      dup2\n      mstore\n      0x04\n      add\n      tag_122\n      swap1\n      tag_146\n      jump\t// in\n    tag_424:\n        /* \"MSWAP/OneRouter.sol\":19993:20024  IWETH(WETH).withdraw(amountOut) */\n      mload(0x40)\n      shl(0xe0, 0x2e1a7d4d)\n      dup2\n      mstore\n      0x04\n      dup2\n      add\n        /* \"#utility.yul\":12145:12170   */\n      dup3\n      swap1\n      mstore\n        /* \"MSWAP/OneRouter.sol\":19999:20003  WETH */\n      immutable(\"0x76ebcca5044475ac2057166e26af5d40b5e78c6fd63a76f9c505daaac868948c\")\n      sub(shl(0xa0, 0x01), 0x01)\n        /* \"MSWAP/OneRouter.sol\":19993:20013  IWETH(WETH).withdraw */\n      and\n      swap1\n      0x2e1a7d4d\n      swap1\n        /* \"#utility.yul\":12118:12136   */\n      0x24\n      add\n        /* \"MSWAP/OneRouter.sol\":19993:20024  IWETH(WETH).withdraw(amountOut) */\n      0x00\n      mload(0x40)\n      dup1\n      dup4\n      sub\n      dup2\n      0x00\n      dup8\n      dup1\n      extcodesize\n      iszero\n      dup1\n      iszero\n      tag_427\n      jumpi\n      0x00\n      dup1\n      revert\n    tag_427:\n      pop\n      gas\n      call\n      iszero\n      dup1\n      iszero\n      tag_429\n      jumpi\n      returndatasize\n      0x00\n      dup1\n      returndatacopy\n      revert(0x00, returndatasize)\n    tag_429:\n      pop\n      pop\n      pop\n      pop\n        /* \"MSWAP/OneRouter.sol\":20037:20082  TransferHelper.safeTransferETH(to, amountOut) */\n      tag_226\n        /* \"MSWAP/OneRouter.sol\":20068:20070  to */\n      dup7\n        /* \"MSWAP/OneRouter.sol\":20072:20081  amountOut */\n      dup3\n        /* \"MSWAP/OneRouter.sol\":20037:20067  TransferHelper.safeTransferETH */\n      tag_278\n        /* \"MSWAP/OneRouter.sol\":20037:20082  TransferHelper.safeTransferETH(to, amountOut) */\n      jump\t// in\n        /* \"MSWAP/OneRouter.sol\":20719:20809  function changeFee( uint256 _newFee) external onlyOwner {\r... */\n    tag_73:\n        /* \"MSWAP/OneRouter.sol\":7510:7514  bool */\n      0x00\n        /* \"MSWAP/OneRouter.sol\":7545:7551  _owner */\n      sload\n      sub(shl(0xa0, 0x01), 0x01)\n      and\n        /* \"MSWAP/OneRouter.sol\":8119:8129  msg.sender */\n      caller\n        /* \"MSWAP/OneRouter.sol\":7534:7551  account == _owner */\n      eq\n        /* \"MSWAP/OneRouter.sol\":8103:8167  require(isOwner(msg.sender), \"Ownable: caller is not the owner\") */\n      tag_433\n      jumpi\n      mload(0x40)\n      shl(0xe5, 0x461bcd)\n      dup2\n      mstore\n      0x04\n      add\n      tag_122\n      swap1\n      tag_435\n      jump\t// in\n    tag_433:\n        /* \"MSWAP/OneRouter.sol\":20786:20791  txFee */\n      0x03\n        /* \"MSWAP/OneRouter.sol\":20786:20801  txFee = _newFee */\n      sstore\n        /* \"MSWAP/OneRouter.sol\":20719:20809  function changeFee( uint256 _newFee) external onlyOwner {\r... */\n      jump\t// out\n        /* \"MSWAP/OneRouter.sol\":7567:7707  function renounceOwnership() public onlyOwner {\r... */\n    tag_76:\n        /* \"MSWAP/OneRouter.sol\":7510:7514  bool */\n      0x00\n        /* \"MSWAP/OneRouter.sol\":7545:7551  _owner */\n      sload\n      sub(shl(0xa0, 0x01), 0x01)\n      and\n        /* \"MSWAP/OneRouter.sol\":8119:8129  msg.sender */\n      caller\n        /* \"MSWAP/OneRouter.sol\":7534:7551  account == _owner */\n      eq\n        /* \"MSWAP/OneRouter.sol\":8103:8167  require(isOwner(msg.sender), \"Ownable: caller is not the owner\") */\n      tag_439\n      jumpi\n      mload(0x40)\n      shl(0xe5, 0x461bcd)\n      dup2\n      mstore\n      0x04\n      add\n      tag_122\n      swap1\n      tag_435\n      jump\t// in\n    tag_439:\n        /* \"MSWAP/OneRouter.sol\":7666:7667  0 */\n      0x00\n        /* \"MSWAP/OneRouter.sol\":7650:7656  _owner */\n      dup1\n      sload\n        /* \"MSWAP/OneRouter.sol\":7629:7669  OwnershipTransferred(_owner, address(0)) */\n      mload(0x40)\n      sub(shl(0xa0, 0x01), 0x01)\n        /* \"MSWAP/OneRouter.sol\":7650:7656  _owner */\n      swap1\n      swap2\n      and\n      swap1\n        /* \"MSWAP/OneRouter.sol\":7629:7669  OwnershipTransferred(_owner, address(0)) */\n      0x8be0079c531659141344cd1fd0a4f28419497f9722a3daafe3b4186f6b6457e0\n      swap1\n        /* \"MSWAP/OneRouter.sol\":7666:7667  0 */\n      dup4\n      swap1\n        /* \"MSWAP/OneRouter.sol\":7629:7669  OwnershipTransferred(_owner, address(0)) */\n      log3\n        /* \"MSWAP/OneRouter.sol\":7697:7698  0 */\n      0x00\n        /* \"MSWAP/OneRouter.sol\":7680:7699  _owner = address(0) */\n      dup1\n      sload\n      not(sub(shl(0xa0, 0x01), 0x01))\n      and\n      swap1\n      sstore\n        /* \"MSWAP/OneRouter.sol\":7567:7707  function renounceOwnership() public onlyOwner {\r... */\n      jump\t// out\n        /* \"MSWAP/OneRouter.sol\":12933:13854  function swapTokensForExactETH(uint amountOut, uint amountInMax, address[] calldata path, address to, uint deadline, address router)\r... */\n    tag_83:\n        /* \"MSWAP/OneRouter.sol\":13162:13183  uint[] memory amounts */\n      0x60\n        /* \"MSWAP/OneRouter.sol\":13134:13142  deadline */\n      dup3\n        /* \"MSWAP/OneRouter.sol\":9410:9425  block.timestamp */\n      timestamp\n        /* \"MSWAP/OneRouter.sol\":9398:9406  deadline */\n      dup2\n        /* \"MSWAP/OneRouter.sol\":9398:9425  deadline >= block.timestamp */\n      lt\n      iszero\n        /* \"MSWAP/OneRouter.sol\":9390:9452  require(deadline >= block.timestamp, 'MarSwapRouter: EXPIRED') */\n      tag_444\n      jumpi\n      mload(0x40)\n      shl(0xe5, 0x461bcd)\n      dup2\n      mstore\n      0x04\n      add\n      tag_122\n      swap1\n      tag_123\n      jump\t// in\n    tag_444:\n        /* \"MSWAP/OneRouter.sol\":13201:13216  address factory */\n      0x00\n        /* \"MSWAP/OneRouter.sol\":13226:13232  router */\n      dup4\n      sub(shl(0xa0, 0x01), 0x01)\n        /* \"MSWAP/OneRouter.sol\":13219:13241  Router(router).factory */\n      and\n      0xc45a0155\n        /* \"MSWAP/OneRouter.sol\":13219:13243  Router(router).factory() */\n      mload(0x40)\n      dup2\n      0xffffffff\n      and\n      0xe0\n      shl\n      dup2\n      mstore\n      0x04\n      add\n      0x20\n      mload(0x40)\n      dup1\n      dup4\n      sub\n      dup2\n      dup7\n      dup1\n      extcodesize\n      iszero\n      dup1\n      iszero\n      tag_447\n      jumpi\n      0x00\n      dup1\n      revert\n    tag_447:\n      pop\n      gas\n      staticcall\n      iszero\n      dup1\n      iszero\n      tag_449\n      jumpi\n      returndatasize\n      0x00\n      dup1\n      returndatacopy\n      revert(0x00, returndatasize)\n    tag_449:\n      pop\n      pop\n      pop\n      pop\n      mload(0x40)\n      returndatasize\n      not(0x1f)\n      0x1f\n      dup3\n      add\n      and\n      dup3\n      add\n      dup1\n      0x40\n      mstore\n      pop\n      dup2\n      add\n      swap1\n      tag_450\n      swap2\n      swap1\n      tag_131\n      jump\t// in\n    tag_450:\n        /* \"MSWAP/OneRouter.sol\":13201:13243  address factory = Router(router).factory() */\n      swap1\n      pop\n      sub(shl(0xa0, 0x01), 0x01)\n        /* \"MSWAP/OneRouter.sol\":13287:13291  WETH */\n      immutable(\"0x76ebcca5044475ac2057166e26af5d40b5e78c6fd63a76f9c505daaac868948c\")\n        /* \"MSWAP/OneRouter.sol\":13262:13291  path[path.length - 1] == WETH */\n      and\n        /* \"MSWAP/OneRouter.sol\":13262:13266  path */\n      dup9\n      dup9\n        /* \"MSWAP/OneRouter.sol\":13267:13282  path.length - 1 */\n      tag_451\n        /* \"MSWAP/OneRouter.sol\":13281:13282  1 */\n      0x01\n        /* \"MSWAP/OneRouter.sol\":13262:13266  path */\n      dup3\n        /* \"MSWAP/OneRouter.sol\":13267:13282  path.length - 1 */\n      tag_140\n      jump\t// in\n    tag_451:\n        /* \"MSWAP/OneRouter.sol\":13262:13283  path[path.length - 1] */\n      dup2\n      dup2\n      lt\n      tag_453\n      jumpi\n      tag_453\n      tag_143\n      jump\t// in\n    tag_453:\n      swap1\n      pop\n      0x20\n      mul\n      add\n      0x20\n      dup2\n      add\n      swap1\n      tag_454\n      swap2\n      swap1\n      tag_53\n      jump\t// in\n    tag_454:\n      sub(shl(0xa0, 0x01), 0x01)\n        /* \"MSWAP/OneRouter.sol\":13262:13291  path[path.length - 1] == WETH */\n      and\n      eq\n        /* \"MSWAP/OneRouter.sol\":13254:13323  require(path[path.length - 1] == WETH, 'MarSwapRouter: INVALID_PATH') */\n      tag_455\n      jumpi\n      mload(0x40)\n      shl(0xe5, 0x461bcd)\n      dup2\n      mstore\n      0x04\n      add\n      tag_122\n      swap1\n      tag_177\n      jump\t// in\n    tag_455:\n        /* \"MSWAP/OneRouter.sol\":13344:13388  Router(router).getAmountsIn(amountOut, path) */\n      mload(0x40)\n      shl(0xe2, 0x07c0329d)\n      dup2\n      mstore\n      sub(shl(0xa0, 0x01), 0x01)\n        /* \"MSWAP/OneRouter.sol\":13344:13371  Router(router).getAmountsIn */\n      dup6\n      and\n      swap1\n      0x1f00ca74\n      swap1\n        /* \"MSWAP/OneRouter.sol\":13344:13388  Router(router).getAmountsIn(amountOut, path) */\n      tag_457\n      swap1\n        /* \"MSWAP/OneRouter.sol\":13372:13381  amountOut */\n      dup14\n      swap1\n        /* \"MSWAP/OneRouter.sol\":13383:13387  path */\n      dup13\n      swap1\n      dup13\n      swap1\n        /* \"MSWAP/OneRouter.sol\":13344:13388  Router(router).getAmountsIn(amountOut, path) */\n      0x04\n      add\n      tag_133\n      jump\t// in\n    tag_457:\n      0x00\n      mload(0x40)\n      dup1\n      dup4\n      sub\n      dup2\n      dup7\n      dup1\n      extcodesize\n      iszero\n      dup1\n      iszero\n      tag_458\n      jumpi\n      0x00\n      dup1\n      revert\n    tag_458:\n      pop\n      gas\n      staticcall\n      iszero\n      dup1\n      iszero\n      tag_460\n      jumpi\n      returndatasize\n      0x00\n      dup1\n      returndatacopy\n      revert(0x00, returndatasize)\n    tag_460:\n      pop\n      pop\n      pop\n      pop\n      mload(0x40)\n      returndatasize\n      0x00\n      dup3\n      returndatacopy\n      0x1f\n      returndatasize\n      swap1\n      dup2\n      add\n      not(0x1f)\n      and\n      dup3\n      add\n      0x40\n      mstore\n      tag_461\n      swap2\n      swap1\n      dup2\n      add\n      swap1\n      tag_138\n      jump\t// in\n    tag_461:\n        /* \"MSWAP/OneRouter.sol\":13334:13388  amounts = Router(router).getAmountsIn(amountOut, path) */\n      swap3\n      pop\n        /* \"MSWAP/OneRouter.sol\":13399:13421  _chargeRouterFee(path) */\n      tag_462\n        /* \"MSWAP/OneRouter.sol\":13416:13420  path */\n      dup9\n      dup9\n        /* \"MSWAP/OneRouter.sol\":13399:13421  _chargeRouterFee(path) */\n      dup1\n      dup1\n      0x20\n      mul\n      0x20\n      add\n      mload(0x40)\n      swap1\n      dup2\n      add\n      0x40\n      mstore\n      dup1\n      swap4\n      swap3\n      swap2\n      swap1\n      dup2\n      dup2\n      mstore\n      0x20\n      add\n      dup4\n      dup4\n      0x20\n      mul\n      dup1\n      dup3\n      dup5\n      calldatacopy\n      0x00\n      swap3\n      add\n      swap2\n      swap1\n      swap2\n      mstore\n      pop\n        /* \"MSWAP/OneRouter.sol\":13399:13415  _chargeRouterFee */\n      tag_126\n      swap3\n      pop\n      pop\n      pop\n        /* \"MSWAP/OneRouter.sol\":13399:13421  _chargeRouterFee(path) */\n      jump\t// in\n    tag_462:\n      pop\n        /* \"MSWAP/OneRouter.sol\":13454:13465  amountInMax */\n      dup9\n        /* \"MSWAP/OneRouter.sol\":13440:13447  amounts */\n      dup4\n        /* \"MSWAP/OneRouter.sol\":13448:13449  0 */\n      0x00\n        /* \"MSWAP/OneRouter.sol\":13440:13450  amounts[0] */\n      dup2\n      mload\n      dup2\n      lt\n      tag_464\n      jumpi\n      tag_464\n      tag_143\n      jump\t// in\n    tag_464:\n      0x20\n      mul\n      0x20\n      add\n      add\n      mload\n        /* \"MSWAP/OneRouter.sol\":13440:13465  amounts[0] <= amountInMax */\n      gt\n      iszero\n        /* \"MSWAP/OneRouter.sol\":13432:13505  require(amounts[0] <= amountInMax, 'MARS_Router: EXCESSIVE_INPUT_AMOUNT') */\n      tag_251\n      jumpi\n      mload(0x40)\n      shl(0xe5, 0x461bcd)\n      dup2\n      mstore\n      0x04\n      add\n      tag_122\n      swap1\n      tag_311\n      jump\t// in\n        /* \"MSWAP/OneRouter.sol\":11369:12080  function swapTokensForExactTokens(\r... */\n    tag_87:\n        /* \"MSWAP/OneRouter.sol\":11618:11639  uint[] memory amounts */\n      0x60\n        /* \"MSWAP/OneRouter.sol\":11599:11607  deadline */\n      dup3\n        /* \"MSWAP/OneRouter.sol\":9410:9425  block.timestamp */\n      timestamp\n        /* \"MSWAP/OneRouter.sol\":9398:9406  deadline */\n      dup2\n        /* \"MSWAP/OneRouter.sol\":9398:9425  deadline >= block.timestamp */\n      lt\n      iszero\n        /* \"MSWAP/OneRouter.sol\":9390:9452  require(deadline >= block.timestamp, 'MarSwapRouter: EXPIRED') */\n      tag_493\n      jumpi\n      mload(0x40)\n      shl(0xe5, 0x461bcd)\n      dup2\n      mstore\n      0x04\n      add\n      tag_122\n      swap1\n      tag_123\n      jump\t// in\n    tag_493:\n        /* \"MSWAP/OneRouter.sol\":11652:11674  _chargeRouterFee(path) */\n      tag_496\n        /* \"MSWAP/OneRouter.sol\":11669:11673  path */\n      dup8\n      dup8\n        /* \"MSWAP/OneRouter.sol\":11652:11674  _chargeRouterFee(path) */\n      dup1\n      dup1\n      0x20\n      mul\n      0x20\n      add\n      mload(0x40)\n      swap1\n      dup2\n      add\n      0x40\n      mstore\n      dup1\n      swap4\n      swap3\n      swap2\n      swap1\n      dup2\n      dup2\n      mstore\n      0x20\n      add\n      dup4\n      dup4\n      0x20\n      mul\n      dup1\n      dup3\n      dup5\n      calldatacopy\n      0x00\n      swap3\n      add\n      swap2\n      swap1\n      swap2\n      mstore\n      pop\n        /* \"MSWAP/OneRouter.sol\":11652:11668  _chargeRouterFee */\n      tag_126\n      swap3\n      pop\n      pop\n      pop\n        /* \"MSWAP/OneRouter.sol\":11652:11674  _chargeRouterFee(path) */\n      jump\t// in\n    tag_496:\n      pop\n        /* \"MSWAP/OneRouter.sol\":11685:11700  address factory */\n      0x00\n        /* \"MSWAP/OneRouter.sol\":11710:11716  router */\n      dup4\n      sub(shl(0xa0, 0x01), 0x01)\n        /* \"MSWAP/OneRouter.sol\":11703:11725  Router(router).factory */\n      and\n      0xc45a0155\n        /* \"MSWAP/OneRouter.sol\":11703:11727  Router(router).factory() */\n      mload(0x40)\n      dup2\n      0xffffffff\n      and\n      0xe0\n      shl\n      dup2\n      mstore\n      0x04\n      add\n      0x20\n      mload(0x40)\n      dup1\n      dup4\n      sub\n      dup2\n      dup7\n      dup1\n      extcodesize\n      iszero\n      dup1\n      iszero\n      tag_497\n      jumpi\n      0x00\n      dup1\n      revert\n    tag_497:\n      pop\n      gas\n      staticcall\n      iszero\n      dup1\n      iszero\n      tag_499\n      jumpi\n      returndatasize\n      0x00\n      dup1\n      returndatacopy\n      revert(0x00, returndatasize)\n    tag_499:\n      pop\n      pop\n      pop\n      pop\n      mload(0x40)\n      returndatasize\n      not(0x1f)\n      0x1f\n      dup3\n      add\n      and\n      dup3\n      add\n      dup1\n      0x40\n      mstore\n      pop\n      dup2\n      add\n      swap1\n      tag_500\n      swap2\n      swap1\n      tag_131\n      jump\t// in\n    tag_500:\n        /* \"MSWAP/OneRouter.sol\":11748:11792  Router(router).getAmountsIn(amountOut, path) */\n      mload(0x40)\n      shl(0xe2, 0x07c0329d)\n      dup2\n      mstore\n        /* \"MSWAP/OneRouter.sol\":11685:11727  address factory = Router(router).factory() */\n      swap1\n      swap2\n      pop\n      sub(shl(0xa0, 0x01), 0x01)\n        /* \"MSWAP/OneRouter.sol\":11748:11775  Router(router).getAmountsIn */\n      dup6\n      and\n      swap1\n      0x1f00ca74\n      swap1\n        /* \"MSWAP/OneRouter.sol\":11748:11792  Router(router).getAmountsIn(amountOut, path) */\n      tag_501\n      swap1\n        /* \"MSWAP/OneRouter.sol\":11776:11785  amountOut */\n      dup14\n      swap1\n        /* \"MSWAP/OneRouter.sol\":11787:11791  path */\n      dup13\n      swap1\n      dup13\n      swap1\n        /* \"MSWAP/OneRouter.sol\":11748:11792  Router(router).getAmountsIn(amountOut, path) */\n      0x04\n      add\n      tag_133\n      jump\t// in\n    tag_501:\n      0x00\n      mload(0x40)\n      dup1\n      dup4\n      sub\n      dup2\n      dup7\n      dup1\n      extcodesize\n      iszero\n      dup1\n      iszero\n      tag_502\n      jumpi\n      0x00\n      dup1\n      revert\n    tag_502:\n      pop\n      gas\n      staticcall\n      iszero\n      dup1\n      iszero\n      tag_504\n      jumpi\n      returndatasize\n      0x00\n      dup1\n      returndatacopy\n      revert(0x00, returndatasize)\n    tag_504:\n      pop\n      pop\n      pop\n      pop\n      mload(0x40)\n      returndatasize\n      0x00\n      dup3\n      returndatacopy\n      0x1f\n      returndatasize\n      swap1\n      dup2\n      add\n      not(0x1f)\n      and\n      dup3\n      add\n      0x40\n      mstore\n      tag_505\n      swap2\n      swap1\n      dup2\n      add\n      swap1\n      tag_138\n      jump\t// in\n    tag_505:\n        /* \"MSWAP/OneRouter.sol\":11738:11792  amounts = Router(router).getAmountsIn(amountOut, path) */\n      swap3\n      pop\n        /* \"MSWAP/OneRouter.sol\":11825:11836  amountInMax */\n      dup9\n        /* \"MSWAP/OneRouter.sol\":11811:11818  amounts */\n      dup4\n        /* \"MSWAP/OneRouter.sol\":11819:11820  0 */\n      0x00\n        /* \"MSWAP/OneRouter.sol\":11811:11821  amounts[0] */\n      dup2\n      mload\n      dup2\n      lt\n      tag_507\n      jumpi\n      tag_507\n      tag_143\n      jump\t// in\n    tag_507:\n      0x20\n      mul\n      0x20\n      add\n      add\n      mload\n        /* \"MSWAP/OneRouter.sol\":11811:11836  amounts[0] <= amountInMax */\n      gt\n      iszero\n        /* \"MSWAP/OneRouter.sol\":11803:11878  require(amounts[0] <= amountInMax, 'MarSwapRouter: EXCESSIVE_INPUT_AMOUNT') */\n      tag_144\n      jumpi\n      mload(0x40)\n      shl(0xe5, 0x461bcd)\n      dup2\n      mstore\n        /* \"#utility.yul\":9460:9462   */\n      0x20\n        /* \"MSWAP/OneRouter.sol\":11803:11878  require(amounts[0] <= amountInMax, 'MarSwapRouter: EXCESSIVE_INPUT_AMOUNT') */\n      0x04\n      dup3\n      add\n        /* \"#utility.yul\":9442:9463   */\n      mstore\n        /* \"#utility.yul\":9499:9501   */\n      0x25\n        /* \"#utility.yul\":9479:9497   */\n      0x24\n      dup3\n      add\n        /* \"#utility.yul\":9472:9502   */\n      mstore\n        /* \"#utility.yul\":9538:9572   */\n      0x4d617253776170526f757465723a204558434553534956455f494e5055545f41\n        /* \"#utility.yul\":9518:9536   */\n      0x44\n      dup3\n      add\n        /* \"#utility.yul\":9511:9573   */\n      mstore\n      shl(0xda, 0x1353d55395)\n        /* \"#utility.yul\":9589:9607   */\n      0x64\n      dup3\n      add\n        /* \"#utility.yul\":9582:9617   */\n      mstore\n        /* \"#utility.yul\":9634:9653   */\n      0x84\n      add\n        /* \"MSWAP/OneRouter.sol\":11803:11878  require(amounts[0] <= amountInMax, 'MarSwapRouter: EXCESSIVE_INPUT_AMOUNT') */\n      tag_122\n        /* \"#utility.yul\":9258:9659   */\n      jump\n        /* \"MSWAP/OneRouter.sol\":20445:20620  function withdrawlToken(address _tokenAddress) external onlyOwner {\r... */\n    tag_92:\n        /* \"MSWAP/OneRouter.sol\":7510:7514  bool */\n      0x00\n        /* \"MSWAP/OneRouter.sol\":7545:7551  _owner */\n      sload\n      sub(shl(0xa0, 0x01), 0x01)\n      and\n        /* \"MSWAP/OneRouter.sol\":8119:8129  msg.sender */\n      caller\n        /* \"MSWAP/OneRouter.sol\":7534:7551  account == _owner */\n      eq\n        /* \"MSWAP/OneRouter.sol\":8103:8167  require(isOwner(msg.sender), \"Ownable: caller is not the owner\") */\n      tag_527\n      jumpi\n      mload(0x40)\n      shl(0xe5, 0x461bcd)\n      dup2\n      mstore\n      0x04\n      add\n      tag_122\n      swap1\n      tag_435\n      jump\t// in\n    tag_527:\n        /* \"MSWAP/OneRouter.sol\":20565:20611  IERC20(_tokenAddress).balanceOf(address(this)) */\n      mload(0x40)\n      shl(0xe0, 0x70a08231)\n      dup2\n      mstore\n        /* \"MSWAP/OneRouter.sol\":20605:20609  this */\n      address\n        /* \"MSWAP/OneRouter.sol\":20565:20611  IERC20(_tokenAddress).balanceOf(address(this)) */\n      0x04\n      dup3\n      add\n        /* \"#utility.yul\":5525:5576   */\n      mstore\n      sub(shl(0xa0, 0x01), 0x01)\n        /* \"MSWAP/OneRouter.sol\":20522:20552  IERC20(_tokenAddress).transfer */\n      dup3\n      and\n      swap1\n      0xa9059cbb\n      swap1\n        /* \"MSWAP/OneRouter.sol\":20553:20563  msg.sender */\n      caller\n      swap1\n        /* \"MSWAP/OneRouter.sol\":20522:20552  IERC20(_tokenAddress).transfer */\n      dup4\n      swap1\n        /* \"MSWAP/OneRouter.sol\":20565:20596  IERC20(_tokenAddress).balanceOf */\n      0x70a08231\n      swap1\n        /* \"#utility.yul\":5498:5516   */\n      0x24\n      add\n        /* \"MSWAP/OneRouter.sol\":20565:20611  IERC20(_tokenAddress).balanceOf(address(this)) */\n      0x20\n      mload(0x40)\n      dup1\n      dup4\n      sub\n      dup2\n      dup7\n      dup1\n      extcodesize\n      iszero\n      dup1\n      iszero\n      tag_531\n      jumpi\n      0x00\n      dup1\n      revert\n    tag_531:\n      pop\n      gas\n      staticcall\n      iszero\n      dup1\n      iszero\n      tag_533\n      jumpi\n      returndatasize\n      0x00\n      dup1\n      returndatacopy\n      revert(0x00, returndatasize)\n    tag_533:\n      pop\n      pop\n      pop\n      pop\n      mload(0x40)\n      returndatasize\n      not(0x1f)\n      0x1f\n      dup3\n      add\n      and\n      dup3\n      add\n      dup1\n      0x40\n      mstore\n      pop\n      dup2\n      add\n      swap1\n      tag_534\n      swap2\n      swap1\n      tag_212\n      jump\t// in\n    tag_534:\n        /* \"MSWAP/OneRouter.sol\":20522:20612  IERC20(_tokenAddress).transfer(msg.sender, IERC20(_tokenAddress).balanceOf(address(this))) */\n      mload(0x40)\n      not(sub(shl(0xe0, 0x01), 0x01))\n      0xe0\n      dup6\n      swap1\n      shl\n      and\n      dup2\n      mstore\n      sub(shl(0xa0, 0x01), 0x01)\n        /* \"#utility.yul\":6468:6500   */\n      swap1\n      swap3\n      and\n        /* \"MSWAP/OneRouter.sol\":20522:20612  IERC20(_tokenAddress).transfer(msg.sender, IERC20(_tokenAddress).balanceOf(address(this))) */\n      0x04\n      dup4\n      add\n        /* \"#utility.yul\":6450:6501   */\n      mstore\n        /* \"#utility.yul\":6517:6535   */\n      0x24\n      dup3\n      add\n        /* \"#utility.yul\":6510:6544   */\n      mstore\n        /* \"#utility.yul\":6423:6441   */\n      0x44\n      add\n        /* \"MSWAP/OneRouter.sol\":20522:20612  IERC20(_tokenAddress).transfer(msg.sender, IERC20(_tokenAddress).balanceOf(address(this))) */\n      0x20\n      mload(0x40)\n      dup1\n      dup4\n      sub\n      dup2\n      0x00\n      dup8\n      dup1\n      extcodesize\n      iszero\n      dup1\n      iszero\n      tag_536\n      jumpi\n      0x00\n      dup1\n      revert\n    tag_536:\n      pop\n      gas\n      call\n      iszero\n      dup1\n      iszero\n      tag_538\n      jumpi\n      returndatasize\n      0x00\n      dup1\n      returndatacopy\n      revert(0x00, returndatasize)\n    tag_538:\n      pop\n      pop\n      pop\n      pop\n      mload(0x40)\n      returndatasize\n      not(0x1f)\n      0x1f\n      dup3\n      add\n      and\n      dup3\n      add\n      dup1\n      0x40\n      mstore\n      pop\n      dup2\n      add\n      swap1\n      tag_539\n      swap2\n      swap1\n      tag_200\n      jump\t// in\n    tag_539:\n      pop\n        /* \"MSWAP/OneRouter.sol\":20445:20620  function withdrawlToken(address _tokenAddress) external onlyOwner {\r... */\n      pop\n      jump\t// out\n        /* \"MSWAP/OneRouter.sol\":20815:20922  function changeTreasury(address _newTreasury) external onlyOwner {\r... */\n    tag_100:\n        /* \"MSWAP/OneRouter.sol\":7510:7514  bool */\n      0x00\n        /* \"MSWAP/OneRouter.sol\":7545:7551  _owner */\n      sload\n      sub(shl(0xa0, 0x01), 0x01)\n      and\n        /* \"MSWAP/OneRouter.sol\":8119:8129  msg.sender */\n      caller\n        /* \"MSWAP/OneRouter.sol\":7534:7551  account == _owner */\n      eq\n        /* \"MSWAP/OneRouter.sol\":8103:8167  require(isOwner(msg.sender), \"Ownable: caller is not the owner\") */\n      tag_542\n      jumpi\n      mload(0x40)\n      shl(0xe5, 0x461bcd)\n      dup2\n      mstore\n      0x04\n      add\n      tag_122\n      swap1\n      tag_435\n      jump\t// in\n    tag_542:\n        /* \"MSWAP/OneRouter.sol\":20891:20899  treasury */\n      0x02\n        /* \"MSWAP/OneRouter.sol\":20891:20914  treasury = _newTreasury */\n      dup1\n      sload\n      not(sub(shl(0xa0, 0x01), 0x01))\n      and\n      sub(shl(0xa0, 0x01), 0x01)\n      swap3\n      swap1\n      swap3\n      and\n      swap2\n      swap1\n      swap2\n      or\n      swap1\n      sstore\n        /* \"MSWAP/OneRouter.sol\":20815:20922  function changeTreasury(address _newTreasury) external onlyOwner {\r... */\n      jump\t// out\n        /* \"MSWAP/OneRouter.sol\":20325:20437  function withdawlBNB() external onlyOwner {\r... */\n    tag_112:\n        /* \"MSWAP/OneRouter.sol\":7510:7514  bool */\n      0x00\n        /* \"MSWAP/OneRouter.sol\":7545:7551  _owner */\n      sload\n      sub(shl(0xa0, 0x01), 0x01)\n      and\n        /* \"MSWAP/OneRouter.sol\":8119:8129  msg.sender */\n      caller\n        /* \"MSWAP/OneRouter.sol\":7534:7551  account == _owner */\n      eq\n        /* \"MSWAP/OneRouter.sol\":8103:8167  require(isOwner(msg.sender), \"Ownable: caller is not the owner\") */\n      tag_548\n      jumpi\n      mload(0x40)\n      shl(0xe5, 0x461bcd)\n      dup2\n      mstore\n      0x04\n      add\n      tag_122\n      swap1\n      tag_435\n      jump\t// in\n    tag_548:\n        /* \"MSWAP/OneRouter.sol\":20378:20429  payable(msg.sender).transfer(address(this).balance) */\n      mload(0x40)\n        /* \"MSWAP/OneRouter.sol\":20386:20396  msg.sender */\n      caller\n      swap1\n        /* \"MSWAP/OneRouter.sol\":20415:20419  this */\n      address\n        /* \"MSWAP/OneRouter.sol\":20407:20428  address(this).balance */\n      balance\n        /* \"MSWAP/OneRouter.sol\":20378:20429  payable(msg.sender).transfer(address(this).balance) */\n      dup1\n      iszero\n      0x08fc\n      mul\n      swap2\n      0x00\n      dup2\n      dup2\n      dup2\n        /* \"MSWAP/OneRouter.sol\":20407:20428  address(this).balance */\n      dup6\n        /* \"MSWAP/OneRouter.sol\":20386:20396  msg.sender */\n      dup9\n        /* \"MSWAP/OneRouter.sol\":20378:20429  payable(msg.sender).transfer(address(this).balance) */\n      dup9\n      call\n      swap4\n      pop\n      pop\n      pop\n      pop\n      iszero\n      dup1\n      iszero\n      tag_552\n      jumpi\n      returndatasize\n      0x00\n      dup1\n      returndatacopy\n      revert(0x00, returndatasize)\n    tag_552:\n      pop\n        /* \"MSWAP/OneRouter.sol\":20325:20437  function withdawlBNB() external onlyOwner {\r... */\n      jump\t// out\n        /* \"MSWAP/OneRouter.sol\":7952:8061  function transferOwnership(address newOwner) public onlyOwner {\r... */\n    tag_116:\n        /* \"MSWAP/OneRouter.sol\":7510:7514  bool */\n      0x00\n        /* \"MSWAP/OneRouter.sol\":7545:7551  _owner */\n      sload\n      sub(shl(0xa0, 0x01), 0x01)\n      and\n        /* \"MSWAP/OneRouter.sol\":8119:8129  msg.sender */\n      caller\n        /* \"MSWAP/OneRouter.sol\":7534:7551  account == _owner */\n      eq\n        /* \"MSWAP/OneRouter.sol\":8103:8167  require(isOwner(msg.sender), \"Ownable: caller is not the owner\") */\n      tag_555\n      jumpi\n      mload(0x40)\n      shl(0xe5, 0x461bcd)\n      dup2\n      mstore\n      0x04\n      add\n      tag_122\n      swap1\n      tag_435\n      jump\t// in\n    tag_555:\n        /* \"MSWAP/OneRouter.sol\":8025:8053  _transferOwnership(newOwner) */\n      tag_552\n        /* \"MSWAP/OneRouter.sol\":8044:8052  newOwner */\n      dup2\n        /* \"MSWAP/OneRouter.sol\":8025:8043  _transferOwnership */\n      tag_559\n        /* \"MSWAP/OneRouter.sol\":8025:8053  _transferOwnership(newOwner) */\n      jump\t// in\n        /* \"MSWAP/OneRouter.sol\":17286:18124  function swapExactTokensForTokensSupportingFeeOnTransferTokens(\r... */\n    tag_119:\n        /* \"MSWAP/OneRouter.sol\":17545:17553  deadline */\n      dup2\n        /* \"MSWAP/OneRouter.sol\":9410:9425  block.timestamp */\n      timestamp\n        /* \"MSWAP/OneRouter.sol\":9398:9406  deadline */\n      dup2\n        /* \"MSWAP/OneRouter.sol\":9398:9425  deadline >= block.timestamp */\n      lt\n      iszero\n        /* \"MSWAP/OneRouter.sol\":9390:9452  require(deadline >= block.timestamp, 'MarSwapRouter: EXPIRED') */\n      tag_561\n      jumpi\n      mload(0x40)\n      shl(0xe5, 0x461bcd)\n      dup2\n      mstore\n      0x04\n      add\n      tag_122\n      swap1\n      tag_123\n      jump\t// in\n    tag_561:\n        /* \"MSWAP/OneRouter.sol\":17566:17588  _chargeRouterFee(path) */\n      tag_564\n        /* \"MSWAP/OneRouter.sol\":17583:17587  path */\n      dup7\n      dup7\n        /* \"MSWAP/OneRouter.sol\":17566:17588  _chargeRouterFee(path) */\n      dup1\n      dup1\n      0x20\n      mul\n      0x20\n      add\n      mload(0x40)\n      swap1\n      dup2\n      add\n      0x40\n      mstore\n      dup1\n      swap4\n      swap3\n      swap2\n      swap1\n      dup2\n      dup2\n      mstore\n      0x20\n      add\n      dup4\n      dup4\n      0x20\n      mul\n      dup1\n      dup3\n      dup5\n      calldatacopy\n      0x00\n      swap3\n      add\n      swap2\n      swap1\n      swap2\n      mstore\n      pop\n        /* \"MSWAP/OneRouter.sol\":17566:17582  _chargeRouterFee */\n      tag_126\n      swap3\n      pop\n      pop\n      pop\n        /* \"MSWAP/OneRouter.sol\":17566:17588  _chargeRouterFee(path) */\n      jump\t// in\n    tag_564:\n      pop\n        /* \"MSWAP/OneRouter.sol\":17599:17614  address factory */\n      0x00\n        /* \"MSWAP/OneRouter.sol\":17624:17630  router */\n      dup3\n      sub(shl(0xa0, 0x01), 0x01)\n        /* \"MSWAP/OneRouter.sol\":17617:17639  Router(router).factory */\n      and\n      0xc45a0155\n        /* \"MSWAP/OneRouter.sol\":17617:17641  Router(router).factory() */\n      mload(0x40)\n      dup2\n      0xffffffff\n      and\n      0xe0\n      shl\n      dup2\n      mstore\n      0x04\n      add\n      0x20\n      mload(0x40)\n      dup1\n      dup4\n      sub\n      dup2\n      dup7\n      dup1\n      extcodesize\n      iszero\n      dup1\n      iszero\n      tag_565\n      jumpi\n      0x00\n      dup1\n      revert\n    tag_565:\n      pop\n      gas\n      staticcall\n      iszero\n      dup1\n      iszero\n      tag_567\n      jumpi\n      returndatasize\n      0x00\n      dup1\n      returndatacopy\n      revert(0x00, returndatasize)\n    tag_567:\n      pop\n      pop\n      pop\n      pop\n      mload(0x40)\n      returndatasize\n      not(0x1f)\n      0x1f\n      dup3\n      add\n      and\n      dup3\n      add\n      dup1\n      0x40\n      mstore\n      pop\n      dup2\n      add\n      swap1\n      tag_568\n      swap2\n      swap1\n      tag_131\n      jump\t// in\n    tag_568:\n        /* \"MSWAP/OneRouter.sol\":17599:17641  address factory = Router(router).factory() */\n      swap1\n      pop\n        /* \"MSWAP/OneRouter.sol\":17652:17789  TransferHelper.safeTransferFrom(\r... */\n      tag_569\n        /* \"MSWAP/OneRouter.sol\":17698:17702  path */\n      dup8\n      dup8\n        /* \"MSWAP/OneRouter.sol\":17703:17704  0 */\n      0x00\n        /* \"MSWAP/OneRouter.sol\":17698:17705  path[0] */\n      dup2\n      dup2\n      lt\n      tag_409\n      jumpi\n      tag_409\n      tag_143\n      jump\t// in\n        /* \"MSWAP/OneRouter.sol\":17652:17789  TransferHelper.safeTransferFrom(\r... */\n    tag_569:\n        /* \"MSWAP/OneRouter.sol\":17800:17818  uint balanceBefore */\n      0x00\n        /* \"MSWAP/OneRouter.sol\":17828:17832  path */\n      dup8\n      dup8\n        /* \"MSWAP/OneRouter.sol\":17833:17848  path.length - 1 */\n      tag_580\n        /* \"MSWAP/OneRouter.sol\":17847:17848  1 */\n      0x01\n        /* \"MSWAP/OneRouter.sol\":17828:17832  path */\n      dup3\n        /* \"MSWAP/OneRouter.sol\":17833:17848  path.length - 1 */\n      tag_140\n      jump\t// in\n    tag_580:\n        /* \"MSWAP/OneRouter.sol\":17828:17849  path[path.length - 1] */\n      dup2\n      dup2\n      lt\n      tag_582\n      jumpi\n      tag_582\n      tag_143\n      jump\t// in\n    tag_582:\n      swap1\n      pop\n      0x20\n      mul\n      add\n      0x20\n      dup2\n      add\n      swap1\n      tag_583\n      swap2\n      swap1\n      tag_53\n      jump\t// in\n    tag_583:\n        /* \"MSWAP/OneRouter.sol\":17821:17864  IERC20(path[path.length - 1]).balanceOf(to) */\n      mload(0x40)\n      shl(0xe0, 0x70a08231)\n      dup2\n      mstore\n      sub(shl(0xa0, 0x01), 0x01)\n        /* \"#utility.yul\":5543:5575   */\n      dup9\n      dup2\n      and\n        /* \"MSWAP/OneRouter.sol\":17821:17864  IERC20(path[path.length - 1]).balanceOf(to) */\n      0x04\n      dup4\n      add\n        /* \"#utility.yul\":5525:5576   */\n      mstore\n        /* \"MSWAP/OneRouter.sol\":17821:17860  IERC20(path[path.length - 1]).balanceOf */\n      swap2\n      swap1\n      swap2\n      and\n      swap1\n      0x70a08231\n      swap1\n        /* \"#utility.yul\":5498:5516   */\n      0x24\n      add\n        /* \"MSWAP/OneRouter.sol\":17821:17864  IERC20(path[path.length - 1]).balanceOf(to) */\n      0x20\n      mload(0x40)\n      dup1\n      dup4\n      sub\n      dup2\n      dup7\n      dup1\n      extcodesize\n      iszero\n      dup1\n      iszero\n      tag_585\n      jumpi\n      0x00\n      dup1\n      revert\n    tag_585:\n      pop\n      gas\n      staticcall\n      iszero\n      dup1\n      iszero\n      tag_587\n      jumpi\n      returndatasize\n      0x00\n      dup1\n      returndatacopy\n      revert(0x00, returndatasize)\n    tag_587:\n      pop\n      pop\n      pop\n      pop\n      mload(0x40)\n      returndatasize\n      not(0x1f)\n      0x1f\n      dup3\n      add\n      and\n      dup3\n      add\n      dup1\n      0x40\n      mstore\n      pop\n      dup2\n      add\n      swap1\n      tag_588\n      swap2\n      swap1\n      tag_212\n      jump\t// in\n    tag_588:\n        /* \"MSWAP/OneRouter.sol\":17800:17864  uint balanceBefore = IERC20(path[path.length - 1]).balanceOf(to) */\n      swap1\n      pop\n        /* \"MSWAP/OneRouter.sol\":17875:17936  _swapSupportingFeeOnTransferTokens(path, to, factory, router) */\n      tag_589\n        /* \"MSWAP/OneRouter.sol\":17910:17914  path */\n      dup9\n      dup9\n        /* \"MSWAP/OneRouter.sol\":17875:17936  _swapSupportingFeeOnTransferTokens(path, to, factory, router) */\n      dup1\n      dup1\n      0x20\n      mul\n      0x20\n      add\n      mload(0x40)\n      swap1\n      dup2\n      add\n      0x40\n      mstore\n      dup1\n      swap4\n      swap3\n      swap2\n      swap1\n      dup2\n      dup2\n      mstore\n      0x20\n      add\n      dup4\n      dup4\n      0x20\n      mul\n      dup1\n      dup3\n      dup5\n      calldatacopy\n      0x00\n      swap3\n      add\n      swap2\n      swap1\n      swap2\n      mstore\n      pop\n        /* \"MSWAP/OneRouter.sol\":17916:17918  to */\n      dup11\n      swap3\n      pop\n        /* \"MSWAP/OneRouter.sol\":17920:17927  factory */\n      dup7\n      swap2\n      pop\n        /* \"MSWAP/OneRouter.sol\":17929:17935  router */\n      dup9\n      swap1\n      pop\n        /* \"MSWAP/OneRouter.sol\":17875:17909  _swapSupportingFeeOnTransferTokens */\n      tag_214\n        /* \"MSWAP/OneRouter.sol\":17875:17936  _swapSupportingFeeOnTransferTokens(path, to, factory, router) */\n      jump\t// in\n    tag_589:\n        /* \"MSWAP/OneRouter.sol\":18035:18047  amountOutMin */\n      dup9\n        /* \"MSWAP/OneRouter.sol\":17969:18031  IERC20(path[path.length - 1]).balanceOf(to).sub(balanceBefore) */\n      tag_215\n        /* \"MSWAP/OneRouter.sol\":18017:18030  balanceBefore */\n      dup3\n        /* \"MSWAP/OneRouter.sol\":17976:17980  path */\n      dup11\n      dup11\n        /* \"MSWAP/OneRouter.sol\":17981:17996  path.length - 1 */\n      tag_591\n        /* \"MSWAP/OneRouter.sol\":17995:17996  1 */\n      0x01\n        /* \"MSWAP/OneRouter.sol\":17976:17980  path */\n      dup3\n        /* \"MSWAP/OneRouter.sol\":17981:17996  path.length - 1 */\n      tag_140\n      jump\t// in\n    tag_591:\n        /* \"MSWAP/OneRouter.sol\":17976:17997  path[path.length - 1] */\n      dup2\n      dup2\n      lt\n      tag_593\n      jumpi\n      tag_593\n      tag_143\n      jump\t// in\n    tag_593:\n      swap1\n      pop\n      0x20\n      mul\n      add\n      0x20\n      dup2\n      add\n      swap1\n      tag_594\n      swap2\n      swap1\n      tag_53\n      jump\t// in\n    tag_594:\n        /* \"MSWAP/OneRouter.sol\":17969:18012  IERC20(path[path.length - 1]).balanceOf(to) */\n      mload(0x40)\n      shl(0xe0, 0x70a08231)\n      dup2\n      mstore\n      sub(shl(0xa0, 0x01), 0x01)\n        /* \"#utility.yul\":5543:5575   */\n      dup12\n      dup2\n      and\n        /* \"MSWAP/OneRouter.sol\":17969:18012  IERC20(path[path.length - 1]).balanceOf(to) */\n      0x04\n      dup4\n      add\n        /* \"#utility.yul\":5525:5576   */\n      mstore\n        /* \"MSWAP/OneRouter.sol\":17969:18008  IERC20(path[path.length - 1]).balanceOf */\n      swap2\n      swap1\n      swap2\n      and\n      swap1\n      0x70a08231\n      swap1\n        /* \"#utility.yul\":5498:5516   */\n      0x24\n      add\n        /* \"MSWAP/OneRouter.sol\":17969:18012  IERC20(path[path.length - 1]).balanceOf(to) */\n      tag_220\n        /* \"#utility.yul\":5379:5582   */\n      jump\n        /* \"MSWAP/OneRouter.sol\":20127:20317  function _chargeRouterFee(address[] memory path) internal returns (uint TFee) {\r... */\n    tag_126:\n        /* \"MSWAP/OneRouter.sol\":20194:20203  uint TFee */\n      0x00\n        /* \"MSWAP/OneRouter.sol\":20245:20246  1 */\n      0x01\n        /* \"MSWAP/OneRouter.sol\":20233:20237  path */\n      dup3\n        /* \"MSWAP/OneRouter.sol\":20233:20244  path.length */\n      mload\n        /* \"MSWAP/OneRouter.sol\":20233:20246  path.length-1 */\n      tag_603\n      swap2\n      swap1\n      tag_140\n      jump\t// in\n    tag_603:\n        /* \"MSWAP/OneRouter.sol\":20223:20228  txFee */\n      sload(0x03)\n        /* \"MSWAP/OneRouter.sol\":20223:20248  txFee * ( path.length-1 ) */\n      tag_604\n      swap2\n      swap1\n      tag_179\n      jump\t// in\n    tag_604:\n        /* \"MSWAP/OneRouter.sol\":20290:20298  treasury */\n      sload(0x02)\n        /* \"MSWAP/OneRouter.sol\":20216:20248  TFee = txFee * ( path.length-1 ) */\n      swap1\n      swap2\n      pop\n        /* \"MSWAP/OneRouter.sol\":20259:20305  TransferHelper.safeTransferETH(treasury, TFee) */\n      tag_605\n      swap1\n      sub(shl(0xa0, 0x01), 0x01)\n        /* \"MSWAP/OneRouter.sol\":20290:20298  treasury */\n      and\n        /* \"MSWAP/OneRouter.sol\":20216:20248  TFee = txFee * ( path.length-1 ) */\n      dup3\n        /* \"MSWAP/OneRouter.sol\":20259:20289  TransferHelper.safeTransferETH */\n      tag_278\n        /* \"MSWAP/OneRouter.sol\":20259:20305  TransferHelper.safeTransferETH(treasury, TFee) */\n      jump\t// in\n    tag_605:\n        /* \"MSWAP/OneRouter.sol\":20127:20317  function _chargeRouterFee(address[] memory path) internal returns (uint TFee) {\r... */\n      swap2\n      swap1\n      pop\n      jump\t// out\n        /* \"MSWAP/OneRouter.sol\":6126:6302  function pairFor(address factory, address tokenA, address tokenB) internal view returns (address pair) {\r... */\n    tag_158:\n        /* \"MSWAP/OneRouter.sol\":6247:6294  IMarSwapFactory(factory).getPair(tokenA,tokenB) */\n      mload(0x40)\n      shl(0xe0, 0xe6a43905)\n      dup2\n      mstore\n      sub(shl(0xa0, 0x01), 0x01)\n        /* \"#utility.yul\":5817:5832   */\n      dup4\n      dup2\n      and\n        /* \"MSWAP/OneRouter.sol\":6247:6294  IMarSwapFactory(factory).getPair(tokenA,tokenB) */\n      0x04\n      dup4\n      add\n        /* \"#utility.yul\":5799:5833   */\n      mstore\n        /* \"#utility.yul\":5869:5884   */\n      dup3\n      dup2\n      and\n        /* \"#utility.yul\":5849:5867   */\n      0x24\n      dup4\n      add\n        /* \"#utility.yul\":5842:5885   */\n      mstore\n        /* \"MSWAP/OneRouter.sol\":6215:6227  address pair */\n      0x00\n      swap2\n        /* \"MSWAP/OneRouter.sol\":6247:6279  IMarSwapFactory(factory).getPair */\n      swap1\n      dup6\n      and\n      swap1\n      0xe6a43905\n      swap1\n        /* \"#utility.yul\":5734:5752   */\n      0x44\n      add\n        /* \"MSWAP/OneRouter.sol\":6247:6294  IMarSwapFactory(factory).getPair(tokenA,tokenB) */\n      0x20\n      mload(0x40)\n      dup1\n      dup4\n      sub\n      dup2\n      dup7\n      dup1\n      extcodesize\n      iszero\n      dup1\n      iszero\n      tag_609\n      jumpi\n      0x00\n      dup1\n      revert\n    tag_609:\n      pop\n      gas\n      staticcall\n      iszero\n      dup1\n      iszero\n      tag_611\n      jumpi\n      returndatasize\n      0x00\n      dup1\n      returndatacopy\n      revert(0x00, returndatasize)\n    tag_611:\n      pop\n      pop\n      pop\n      pop\n      mload(0x40)\n      returndatasize\n      not(0x1f)\n      0x1f\n      dup3\n      add\n      and\n      dup3\n      add\n      dup1\n      0x40\n      mstore\n      pop\n      dup2\n      add\n      swap1\n      tag_612\n      swap2\n      swap1\n      tag_131\n      jump\t// in\n    tag_612:\n        /* \"MSWAP/OneRouter.sol\":6240:6294  pair = IMarSwapFactory(factory).getPair(tokenA,tokenB) */\n      swap5\n        /* \"MSWAP/OneRouter.sol\":6126:6302  function pairFor(address factory, address tokenA, address tokenB) internal view returns (address pair) {\r... */\n      swap4\n      pop\n      pop\n      pop\n      pop\n      jump\t// out\n        /* \"MSWAP/OneRouter.sol\":1009:1411  function safeTransferFrom(address token, address from, address to, uint value) internal {\r... */\n    tag_161:\n        /* \"MSWAP/OneRouter.sol\":1234:1285  abi.encodeWithSelector(0x23b872dd, from, to, value) */\n      0x40\n      dup1\n      mload\n      sub(shl(0xa0, 0x01), 0x01)\n        /* \"#utility.yul\":6154:6169   */\n      dup6\n      dup2\n      and\n        /* \"MSWAP/OneRouter.sol\":1234:1285  abi.encodeWithSelector(0x23b872dd, from, to, value) */\n      0x24\n      dup4\n      add\n        /* \"#utility.yul\":6136:6170   */\n      mstore\n        /* \"#utility.yul\":6206:6221   */\n      dup5\n      dup2\n      and\n        /* \"#utility.yul\":6186:6204   */\n      0x44\n      dup4\n      add\n        /* \"#utility.yul\":6179:6222   */\n      mstore\n        /* \"#utility.yul\":6238:6256   */\n      0x64\n      dup1\n      dup4\n      add\n        /* \"#utility.yul\":6231:6265   */\n      dup6\n      swap1\n      mstore\n        /* \"MSWAP/OneRouter.sol\":1234:1285  abi.encodeWithSelector(0x23b872dd, from, to, value) */\n      dup4\n      mload\n      dup1\n      dup5\n      sub\n      swap1\n      swap2\n      add\n      dup2\n      mstore\n        /* \"#utility.yul\":6071:6089   */\n      0x84\n      swap1\n      swap3\n      add\n        /* \"MSWAP/OneRouter.sol\":1234:1285  abi.encodeWithSelector(0x23b872dd, from, to, value) */\n      dup4\n      mstore\n      0x20\n      dup3\n      add\n      dup1\n      mload\n      sub(shl(0xe0, 0x01), 0x01)\n      and\n      shl(0xe0, 0x23b872dd)\n      or\n      swap1\n      mstore\n        /* \"MSWAP/OneRouter.sol\":1223:1286  token.call(abi.encodeWithSelector(0x23b872dd, from, to, value)) */\n      swap2\n      mload\n      0x00\n      swap3\n      dup4\n      swap3\n        /* \"MSWAP/OneRouter.sol\":1223:1233  token.call */\n      swap1\n      dup9\n      and\n      swap2\n        /* \"MSWAP/OneRouter.sol\":1223:1286  token.call(abi.encodeWithSelector(0x23b872dd, from, to, value)) */\n      tag_616\n      swap2\n        /* \"MSWAP/OneRouter.sol\":1234:1285  abi.encodeWithSelector(0x23b872dd, from, to, value) */\n      swap1\n        /* \"MSWAP/OneRouter.sol\":1223:1286  token.call(abi.encodeWithSelector(0x23b872dd, from, to, value)) */\n      tag_617\n      jump\t// in\n    tag_616:\n      0x00\n      mload(0x40)\n      dup1\n      dup4\n      sub\n      dup2\n      0x00\n      dup7\n      gas\n      call\n      swap2\n      pop\n      pop\n      returndatasize\n      dup1\n      0x00\n      dup2\n      eq\n      tag_620\n      jumpi\n      mload(0x40)\n      swap2\n      pop\n      and(add(returndatasize, 0x3f), not(0x1f))\n      dup3\n      add\n      0x40\n      mstore\n      returndatasize\n      dup3\n      mstore\n      returndatasize\n      0x00\n      0x20\n      dup5\n      add\n      returndatacopy\n      jump(tag_619)\n    tag_620:\n      0x60\n      swap2\n      pop\n    tag_619:\n      pop\n        /* \"MSWAP/OneRouter.sol\":1187:1286  (bool success, bytes memory data) = token.call(abi.encodeWithSelector(0x23b872dd, from, to, value)) */\n      swap2\n      pop\n      swap2\n      pop\n        /* \"MSWAP/OneRouter.sol\":1305:1312  success */\n      dup2\n        /* \"MSWAP/OneRouter.sol\":1305:1362  success && (data.length == 0 || abi.decode(data, (bool))) */\n      dup1\n      iszero\n      tag_623\n      jumpi\n      pop\n        /* \"MSWAP/OneRouter.sol\":1317:1328  data.length */\n      dup1\n      mload\n        /* \"MSWAP/OneRouter.sol\":1317:1333  data.length == 0 */\n      iszero\n      dup1\n        /* \"MSWAP/OneRouter.sol\":1317:1361  data.length == 0 || abi.decode(data, (bool)) */\n      tag_623\n      jumpi\n      pop\n        /* \"MSWAP/OneRouter.sol\":1348:1352  data */\n      dup1\n        /* \"MSWAP/OneRouter.sol\":1337:1361  abi.decode(data, (bool)) */\n      dup1\n      0x20\n      add\n      swap1\n      mload\n      dup2\n      add\n      swap1\n      tag_623\n      swap2\n      swap1\n      tag_200\n      jump\t// in\n    tag_623:\n        /* \"MSWAP/OneRouter.sol\":1297:1403  require(success && (data.length == 0 || abi.decode(data, (bool))), 'TransferHelper: TRANSFER_FROM_FAILED') */\n      tag_624\n      jumpi\n      mload(0x40)\n      shl(0xe5, 0x461bcd)\n      dup2\n      mstore\n        /* \"#utility.yul\":11796:11798   */\n      0x20\n        /* \"MSWAP/OneRouter.sol\":1297:1403  require(success && (data.length == 0 || abi.decode(data, (bool))), 'TransferHelper: TRANSFER_FROM_FAILED') */\n      0x04\n      dup3\n      add\n        /* \"#utility.yul\":11778:11799   */\n      mstore\n        /* \"#utility.yul\":11835:11837   */\n      0x24\n        /* \"#utility.yul\":11815:11833   */\n      dup1\n      dup3\n      add\n        /* \"#utility.yul\":11808:11838   */\n      mstore\n        /* \"#utility.yul\":11874:11908   */\n      0x5472616e7366657248656c7065723a205452414e534645525f46524f4d5f4641\n        /* \"#utility.yul\":11854:11872   */\n      0x44\n      dup3\n      add\n        /* \"#utility.yul\":11847:11909   */\n      mstore\n      shl(0xe2, 0x12531151)\n        /* \"#utility.yul\":11925:11943   */\n      0x64\n      dup3\n      add\n        /* \"#utility.yul\":11918:11952   */\n      mstore\n        /* \"#utility.yul\":11969:11988   */\n      0x84\n      add\n        /* \"MSWAP/OneRouter.sol\":1297:1403  require(success && (data.length == 0 || abi.decode(data, (bool))), 'TransferHelper: TRANSFER_FROM_FAILED') */\n      tag_122\n        /* \"#utility.yul\":11594:11994   */\n      jump\n        /* \"MSWAP/OneRouter.sol\":1297:1403  require(success && (data.length == 0 || abi.decode(data, (bool))), 'TransferHelper: TRANSFER_FROM_FAILED') */\n    tag_624:\n        /* \"MSWAP/OneRouter.sol\":1097:1411  {\r... */\n      pop\n      pop\n        /* \"MSWAP/OneRouter.sol\":1009:1411  function safeTransferFrom(address token, address from, address to, uint value) internal {\r... */\n      pop\n      pop\n      pop\n      pop\n      jump\t// out\n        /* \"MSWAP/OneRouter.sol\":9877:10621  function _swap(uint[] memory amounts, address[] memory path, address _to, address factory) internal virtual {\r... */\n    tag_163:\n        /* \"MSWAP/OneRouter.sol\":10001:10007  uint i */\n      0x00\n        /* \"MSWAP/OneRouter.sol\":9996:10614  for (uint i; i < path.length - 1; i++) {\r... */\n    tag_628:\n        /* \"MSWAP/OneRouter.sol\":10027:10028  1 */\n      0x01\n        /* \"MSWAP/OneRouter.sol\":10013:10017  path */\n      dup5\n        /* \"MSWAP/OneRouter.sol\":10013:10024  path.length */\n      mload\n        /* \"MSWAP/OneRouter.sol\":10013:10028  path.length - 1 */\n      tag_631\n      swap2\n      swap1\n      tag_140\n      jump\t// in\n    tag_631:\n        /* \"MSWAP/OneRouter.sol\":10009:10010  i */\n      dup2\n        /* \"MSWAP/OneRouter.sol\":10009:10028  i < path.length - 1 */\n      lt\n        /* \"MSWAP/OneRouter.sol\":9996:10614  for (uint i; i < path.length - 1; i++) {\r... */\n      iszero\n      tag_629\n      jumpi\n        /* \"MSWAP/OneRouter.sol\":10051:10064  address input */\n      0x00\n        /* \"MSWAP/OneRouter.sol\":10066:10080  address output */\n      dup1\n        /* \"MSWAP/OneRouter.sol\":10085:10089  path */\n      dup6\n        /* \"MSWAP/OneRouter.sol\":10090:10091  i */\n      dup4\n        /* \"MSWAP/OneRouter.sol\":10085:10092  path[i] */\n      dup2\n      mload\n      dup2\n      lt\n      tag_633\n      jumpi\n      tag_633\n      tag_143\n      jump\t// in\n    tag_633:\n      0x20\n      mul\n      0x20\n      add\n      add\n      mload\n        /* \"MSWAP/OneRouter.sol\":10094:10098  path */\n      dup7\n        /* \"MSWAP/OneRouter.sol\":10099:10100  i */\n      dup5\n        /* \"MSWAP/OneRouter.sol\":10103:10104  1 */\n      0x01\n        /* \"MSWAP/OneRouter.sol\":10099:10104  i + 1 */\n      tag_634\n      swap2\n      swap1\n      tag_635\n      jump\t// in\n    tag_634:\n        /* \"MSWAP/OneRouter.sol\":10094:10105  path[i + 1] */\n      dup2\n      mload\n      dup2\n      lt\n      tag_637\n      jumpi\n      tag_637\n      tag_143\n      jump\t// in\n    tag_637:\n      0x20\n      mul\n      0x20\n      add\n      add\n      mload\n        /* \"MSWAP/OneRouter.sol\":10050:10106  (address input, address output) = (path[i], path[i + 1]) */\n      swap2\n      pop\n      swap2\n      pop\n        /* \"MSWAP/OneRouter.sol\":10122:10136  address token0 */\n      0x00\n        /* \"MSWAP/OneRouter.sol\":10141:10181  MarSwapLibrary.sortTokens(input, output) */\n      tag_638\n        /* \"MSWAP/OneRouter.sol\":10167:10172  input */\n      dup4\n        /* \"MSWAP/OneRouter.sol\":10174:10180  output */\n      dup4\n        /* \"MSWAP/OneRouter.sol\":10141:10166  MarSwapLibrary.sortTokens */\n      tag_639\n        /* \"MSWAP/OneRouter.sol\":10141:10181  MarSwapLibrary.sortTokens(input, output) */\n      jump\t// in\n    tag_638:\n      pop\n        /* \"MSWAP/OneRouter.sol\":10121:10181  (address token0,) = MarSwapLibrary.sortTokens(input, output) */\n      swap1\n      pop\n        /* \"MSWAP/OneRouter.sol\":10196:10210  uint amountOut */\n      0x00\n        /* \"MSWAP/OneRouter.sol\":10213:10220  amounts */\n      dup9\n        /* \"MSWAP/OneRouter.sol\":10221:10226  i + 1 */\n      tag_640\n        /* \"MSWAP/OneRouter.sol\":10221:10222  i */\n      dup7\n        /* \"MSWAP/OneRouter.sol\":10225:10226  1 */\n      0x01\n        /* \"MSWAP/OneRouter.sol\":10221:10226  i + 1 */\n      tag_635\n      jump\t// in\n    tag_640:\n        /* \"MSWAP/OneRouter.sol\":10213:10227  amounts[i + 1] */\n      dup2\n      mload\n      dup2\n      lt\n      tag_642\n      jumpi\n      tag_642\n      tag_143\n      jump\t// in\n    tag_642:\n      0x20\n      mul\n      0x20\n      add\n      add\n      mload\n        /* \"MSWAP/OneRouter.sol\":10196:10227  uint amountOut = amounts[i + 1] */\n      swap1\n      pop\n        /* \"MSWAP/OneRouter.sol\":10243:10258  uint amount0Out */\n      0x00\n        /* \"MSWAP/OneRouter.sol\":10260:10275  uint amount1Out */\n      dup1\n        /* \"MSWAP/OneRouter.sol\":10288:10294  token0 */\n      dup4\n      sub(shl(0xa0, 0x01), 0x01)\n        /* \"MSWAP/OneRouter.sol\":10279:10294  input == token0 */\n      and\n        /* \"MSWAP/OneRouter.sol\":10279:10284  input */\n      dup7\n      sub(shl(0xa0, 0x01), 0x01)\n        /* \"MSWAP/OneRouter.sol\":10279:10294  input == token0 */\n      and\n      eq\n        /* \"MSWAP/OneRouter.sol\":10279:10340  input == token0 ? (uint(0), amountOut) : (amountOut, uint(0)) */\n      tag_643\n      jumpi\n        /* \"MSWAP/OneRouter.sol\":10321:10330  amountOut */\n      dup3\n        /* \"MSWAP/OneRouter.sol\":10337:10338  0 */\n      0x00\n        /* \"MSWAP/OneRouter.sol\":10279:10340  input == token0 ? (uint(0), amountOut) : (amountOut, uint(0)) */\n      jump(tag_644)\n    tag_643:\n        /* \"MSWAP/OneRouter.sol\":10303:10304  0 */\n      0x00\n        /* \"MSWAP/OneRouter.sol\":10307:10316  amountOut */\n      dup4\n        /* \"MSWAP/OneRouter.sol\":10279:10340  input == token0 ? (uint(0), amountOut) : (amountOut, uint(0)) */\n    tag_644:\n        /* \"MSWAP/OneRouter.sol\":10242:10340  (uint amount0Out, uint amount1Out) = input == token0 ? (uint(0), amountOut) : (amountOut, uint(0)) */\n      swap2\n      pop\n      swap2\n      pop\n        /* \"MSWAP/OneRouter.sol\":10355:10365  address to */\n      0x00\n        /* \"MSWAP/OneRouter.sol\":10386:10387  2 */\n      0x02\n        /* \"MSWAP/OneRouter.sol\":10372:10376  path */\n      dup12\n        /* \"MSWAP/OneRouter.sol\":10372:10383  path.length */\n      mload\n        /* \"MSWAP/OneRouter.sol\":10372:10387  path.length - 2 */\n      tag_645\n      swap2\n      swap1\n      tag_140\n      jump\t// in\n    tag_645:\n        /* \"MSWAP/OneRouter.sol\":10368:10369  i */\n      dup9\n        /* \"MSWAP/OneRouter.sol\":10368:10387  i < path.length - 2 */\n      lt\n        /* \"MSWAP/OneRouter.sol\":10368:10448  i < path.length - 2 ? MarSwapLibrary.pairFor(factory, output, path[i + 2]) : _to */\n      tag_646\n      jumpi\n        /* \"MSWAP/OneRouter.sol\":10445:10448  _to */\n      dup10\n        /* \"MSWAP/OneRouter.sol\":10368:10448  i < path.length - 2 ? MarSwapLibrary.pairFor(factory, output, path[i + 2]) : _to */\n      jump(tag_648)\n    tag_646:\n        /* \"MSWAP/OneRouter.sol\":10390:10442  MarSwapLibrary.pairFor(factory, output, path[i + 2]) */\n      tag_648\n        /* \"MSWAP/OneRouter.sol\":10413:10420  factory */\n      dup10\n        /* \"MSWAP/OneRouter.sol\":10422:10428  output */\n      dup8\n        /* \"MSWAP/OneRouter.sol\":10430:10434  path */\n      dup14\n        /* \"MSWAP/OneRouter.sol\":10435:10440  i + 2 */\n      tag_649\n        /* \"MSWAP/OneRouter.sol\":10435:10436  i */\n      dup13\n        /* \"MSWAP/OneRouter.sol\":10439:10440  2 */\n      0x02\n        /* \"MSWAP/OneRouter.sol\":10435:10440  i + 2 */\n      tag_635\n      jump\t// in\n    tag_649:\n        /* \"MSWAP/OneRouter.sol\":10430:10441  path[i + 2] */\n      dup2\n      mload\n      dup2\n      lt\n      tag_651\n      jumpi\n      tag_651\n      tag_143\n      jump\t// in\n    tag_651:\n      0x20\n      mul\n      0x20\n      add\n      add\n      mload\n        /* \"MSWAP/OneRouter.sol\":10390:10412  MarSwapLibrary.pairFor */\n      tag_158\n        /* \"MSWAP/OneRouter.sol\":10390:10442  MarSwapLibrary.pairFor(factory, output, path[i + 2]) */\n      jump\t// in\n    tag_648:\n        /* \"MSWAP/OneRouter.sol\":10355:10448  address to = i < path.length - 2 ? MarSwapLibrary.pairFor(factory, output, path[i + 2]) : _to */\n      swap1\n      pop\n        /* \"MSWAP/OneRouter.sol\":10476:10522  MarSwapLibrary.pairFor(factory, input, output) */\n      tag_652\n        /* \"MSWAP/OneRouter.sol\":10499:10506  factory */\n      dup10\n        /* \"MSWAP/OneRouter.sol\":10508:10513  input */\n      dup9\n        /* \"MSWAP/OneRouter.sol\":10515:10521  output */\n      dup9\n        /* \"MSWAP/OneRouter.sol\":10476:10498  MarSwapLibrary.pairFor */\n      tag_158\n        /* \"MSWAP/OneRouter.sol\":10476:10522  MarSwapLibrary.pairFor(factory, input, output) */\n      jump\t// in\n    tag_652:\n      sub(shl(0xa0, 0x01), 0x01)\n        /* \"MSWAP/OneRouter.sol\":10463:10528  IMarSwapPair(MarSwapLibrary.pairFor(factory, input, output)).swap */\n      and\n      0x022c0d9f\n        /* \"MSWAP/OneRouter.sol\":10547:10557  amount0Out */\n      dup5\n        /* \"MSWAP/OneRouter.sol\":10559:10569  amount1Out */\n      dup5\n        /* \"MSWAP/OneRouter.sol\":10571:10573  to */\n      dup5\n        /* \"MSWAP/OneRouter.sol\":10585:10586  0 */\n      0x00\n        /* \"MSWAP/OneRouter.sol\":10575:10587  new bytes(0) */\n      mload(0x40)\n      swap1\n      dup1\n      dup3\n      mstore\n      dup1\n      0x1f\n      add\n      not(0x1f)\n      and\n      0x20\n      add\n      dup3\n      add\n      0x40\n      mstore\n      dup1\n      iszero\n      tag_656\n      jumpi\n      0x20\n      dup3\n      add\n      dup2\n      dup1\n      calldatasize\n      dup4\n      calldatacopy\n      add\n      swap1\n      pop\n    tag_656:\n      pop\n        /* \"MSWAP/OneRouter.sol\":10463:10602  IMarSwapPair(MarSwapLibrary.pairFor(factory, input, output)).swap(\r... */\n      mload(0x40)\n      dup6\n      0xffffffff\n      and\n      0xe0\n      shl\n      dup2\n      mstore\n      0x04\n      add\n      tag_657\n      swap5\n      swap4\n      swap3\n      swap2\n      swap1\n      tag_658\n      jump\t// in\n    tag_657:\n      0x00\n      mload(0x40)\n      dup1\n      dup4\n      sub\n      dup2\n      0x00\n      dup8\n      dup1\n      extcodesize\n      iszero\n      dup1\n      iszero\n      tag_659\n      jumpi\n      0x00\n      dup1\n      revert\n    tag_659:\n      pop\n      gas\n      call\n      iszero\n      dup1\n      iszero\n      tag_661\n      jumpi\n      returndatasize\n      0x00\n      dup1\n      returndatacopy\n      revert(0x00, returndatasize)\n    tag_661:\n      pop\n      pop\n      pop\n      pop\n        /* \"MSWAP/OneRouter.sol\":10035:10614  {\r... */\n      pop\n      pop\n      pop\n      pop\n      pop\n      pop\n      pop\n        /* \"MSWAP/OneRouter.sol\":10030:10033  i++ */\n      dup1\n      dup1\n      tag_662\n      swap1\n      tag_663\n      jump\t// in\n    tag_662:\n      swap2\n      pop\n      pop\n        /* \"MSWAP/OneRouter.sol\":9996:10614  for (uint i; i < path.length - 1; i++) {\r... */\n      jump(tag_628)\n    tag_629:\n      pop\n        /* \"MSWAP/OneRouter.sol\":9877:10621  function _swap(uint[] memory amounts, address[] memory path, address _to, address factory) internal virtual {\r... */\n      pop\n      pop\n      pop\n      pop\n      jump\t// out\n        /* \"MSWAP/OneRouter.sol\":15933:16635  function _swapSupportingFeeOnTransferTokens(address[] memory path, address _to, address factory, address router) internal virtual {\r... */\n    tag_214:\n        /* \"MSWAP/OneRouter.sol\":16079:16085  uint i */\n      0x00\n        /* \"MSWAP/OneRouter.sol\":16074:16628  for (uint i; i < path.length - 1; i++) {\r... */\n    tag_665:\n        /* \"MSWAP/OneRouter.sol\":16105:16106  1 */\n      0x01\n        /* \"MSWAP/OneRouter.sol\":16091:16095  path */\n      dup6\n        /* \"MSWAP/OneRouter.sol\":16091:16102  path.length */\n      mload\n        /* \"MSWAP/OneRouter.sol\":16091:16106  path.length - 1 */\n      tag_668\n      swap2\n      swap1\n      tag_140\n      jump\t// in\n    tag_668:\n        /* \"MSWAP/OneRouter.sol\":16087:16088  i */\n      dup2\n        /* \"MSWAP/OneRouter.sol\":16087:16106  i < path.length - 1 */\n      lt\n        /* \"MSWAP/OneRouter.sol\":16074:16628  for (uint i; i < path.length - 1; i++) {\r... */\n      iszero\n      tag_629\n      jumpi\n        /* \"MSWAP/OneRouter.sol\":16129:16142  address input */\n      0x00\n        /* \"MSWAP/OneRouter.sol\":16144:16158  address output */\n      dup1\n        /* \"MSWAP/OneRouter.sol\":16163:16167  path */\n      dup7\n        /* \"MSWAP/OneRouter.sol\":16168:16169  i */\n      dup4\n        /* \"MSWAP/OneRouter.sol\":16163:16170  path[i] */\n      dup2\n      mload\n      dup2\n      lt\n      tag_670\n      jumpi\n      tag_670\n      tag_143\n      jump\t// in\n    tag_670:\n      0x20\n      mul\n      0x20\n      add\n      add\n      mload\n        /* \"MSWAP/OneRouter.sol\":16172:16176  path */\n      dup8\n        /* \"MSWAP/OneRouter.sol\":16177:16178  i */\n      dup5\n        /* \"MSWAP/OneRouter.sol\":16181:16182  1 */\n      0x01\n        /* \"MSWAP/OneRouter.sol\":16177:16182  i + 1 */\n      tag_671\n      swap2\n      swap1\n      tag_635\n      jump\t// in\n    tag_671:\n        /* \"MSWAP/OneRouter.sol\":16172:16183  path[i + 1] */\n      dup2\n      mload\n      dup2\n      lt\n      tag_673\n      jumpi\n      tag_673\n      tag_143\n      jump\t// in\n    tag_673:\n      0x20\n      mul\n      0x20\n      add\n      add\n      mload\n        /* \"MSWAP/OneRouter.sol\":16128:16184  (address input, address output) = (path[i], path[i + 1]) */\n      swap2\n      pop\n      swap2\n      pop\n        /* \"MSWAP/OneRouter.sol\":16200:16214  address token0 */\n      0x00\n        /* \"MSWAP/OneRouter.sol\":16219:16259  MarSwapLibrary.sortTokens(input, output) */\n      tag_674\n        /* \"MSWAP/OneRouter.sol\":16245:16250  input */\n      dup4\n        /* \"MSWAP/OneRouter.sol\":16252:16258  output */\n      dup4\n        /* \"MSWAP/OneRouter.sol\":16219:16244  MarSwapLibrary.sortTokens */\n      tag_639\n        /* \"MSWAP/OneRouter.sol\":16219:16259  MarSwapLibrary.sortTokens(input, output) */\n      jump\t// in\n    tag_674:\n        /* \"MSWAP/OneRouter.sol\":16199:16259  (address token0,) = MarSwapLibrary.sortTokens(input, output) */\n      pop\n      swap1\n      pop\n        /* \"MSWAP/OneRouter.sol\":16274:16291  IMarSwapPair pair */\n      0x00\n        /* \"MSWAP/OneRouter.sol\":16307:16353  MarSwapLibrary.pairFor(factory, input, output) */\n      tag_675\n        /* \"MSWAP/OneRouter.sol\":16330:16337  factory */\n      dup8\n        /* \"MSWAP/OneRouter.sol\":16339:16344  input */\n      dup6\n        /* \"MSWAP/OneRouter.sol\":16346:16352  output */\n      dup6\n        /* \"MSWAP/OneRouter.sol\":16307:16329  MarSwapLibrary.pairFor */\n      tag_158\n        /* \"MSWAP/OneRouter.sol\":16307:16353  MarSwapLibrary.pairFor(factory, input, output) */\n      jump\t// in\n    tag_675:\n        /* \"MSWAP/OneRouter.sol\":16274:16354  IMarSwapPair pair = IMarSwapPair(MarSwapLibrary.pairFor(factory, input, output)) */\n      swap1\n      pop\n        /* \"MSWAP/OneRouter.sol\":16370:16385  uint amount0Out */\n      0x00\n        /* \"MSWAP/OneRouter.sol\":16387:16402  uint amount1Out */\n      dup1\n        /* \"MSWAP/OneRouter.sol\":16406:16442  getinfo(pair, input, token0, router) */\n      tag_676\n        /* \"MSWAP/OneRouter.sol\":16414:16418  pair */\n      dup4\n        /* \"MSWAP/OneRouter.sol\":16420:16425  input */\n      dup8\n        /* \"MSWAP/OneRouter.sol\":16427:16433  token0 */\n      dup7\n        /* \"MSWAP/OneRouter.sol\":16435:16441  router */\n      dup12\n        /* \"MSWAP/OneRouter.sol\":16406:16413  getinfo */\n      tag_677\n        /* \"MSWAP/OneRouter.sol\":16406:16442  getinfo(pair, input, token0, router) */\n      jump\t// in\n    tag_676:\n        /* \"MSWAP/OneRouter.sol\":16369:16442  (uint amount0Out, uint amount1Out) = getinfo(pair, input, token0, router) */\n      swap2\n      pop\n      swap2\n      pop\n        /* \"MSWAP/OneRouter.sol\":16457:16467  address to */\n      0x00\n        /* \"MSWAP/OneRouter.sol\":16488:16489  2 */\n      0x02\n        /* \"MSWAP/OneRouter.sol\":16474:16478  path */\n      dup13\n        /* \"MSWAP/OneRouter.sol\":16474:16485  path.length */\n      mload\n        /* \"MSWAP/OneRouter.sol\":16474:16489  path.length - 2 */\n      tag_678\n      swap2\n      swap1\n      tag_140\n      jump\t// in\n    tag_678:\n        /* \"MSWAP/OneRouter.sol\":16470:16471  i */\n      dup9\n        /* \"MSWAP/OneRouter.sol\":16470:16489  i < path.length - 2 */\n      lt\n        /* \"MSWAP/OneRouter.sol\":16470:16550  i < path.length - 2 ? MarSwapLibrary.pairFor(factory, output, path[i + 2]) : _to */\n      tag_679\n      jumpi\n        /* \"MSWAP/OneRouter.sol\":16547:16550  _to */\n      dup11\n        /* \"MSWAP/OneRouter.sol\":16470:16550  i < path.length - 2 ? MarSwapLibrary.pairFor(factory, output, path[i + 2]) : _to */\n      jump(tag_681)\n    tag_679:\n        /* \"MSWAP/OneRouter.sol\":16492:16544  MarSwapLibrary.pairFor(factory, output, path[i + 2]) */\n      tag_681\n        /* \"MSWAP/OneRouter.sol\":16515:16522  factory */\n      dup11\n        /* \"MSWAP/OneRouter.sol\":16524:16530  output */\n      dup8\n        /* \"MSWAP/OneRouter.sol\":16532:16536  path */\n      dup15\n        /* \"MSWAP/OneRouter.sol\":16537:16542  i + 2 */\n      tag_649\n        /* \"MSWAP/OneRouter.sol\":16537:16538  i */\n      dup13\n        /* \"MSWAP/OneRouter.sol\":16541:16542  2 */\n      0x02\n        /* \"MSWAP/OneRouter.sol\":16537:16542  i + 2 */\n      tag_635\n      jump\t// in\n        /* \"MSWAP/OneRouter.sol\":16492:16544  MarSwapLibrary.pairFor(factory, output, path[i + 2]) */\n    tag_681:\n        /* \"MSWAP/OneRouter.sol\":16603:16615  new bytes(0) */\n      0x40\n      dup1\n      mload\n        /* \"MSWAP/OneRouter.sol\":16613:16614  0 */\n      0x00\n        /* \"MSWAP/OneRouter.sol\":16603:16615  new bytes(0) */\n      dup2\n      mstore\n      0x20\n      dup2\n      add\n      swap2\n      dup3\n      swap1\n      mstore\n      shl(0xe0, 0x022c0d9f)\n        /* \"MSWAP/OneRouter.sol\":16565:16616  pair.swap(amount0Out, amount1Out, to, new bytes(0)) */\n      swap1\n      swap2\n      mstore\n        /* \"MSWAP/OneRouter.sol\":16457:16550  address to = i < path.length - 2 ? MarSwapLibrary.pairFor(factory, output, path[i + 2]) : _to */\n      swap1\n      swap2\n      pop\n      sub(shl(0xa0, 0x01), 0x01)\n        /* \"MSWAP/OneRouter.sol\":16565:16574  pair.swap */\n      dup6\n      and\n      swap1\n      0x022c0d9f\n      swap1\n        /* \"MSWAP/OneRouter.sol\":16565:16616  pair.swap(amount0Out, amount1Out, to, new bytes(0)) */\n      tag_688\n      swap1\n        /* \"MSWAP/OneRouter.sol\":16575:16585  amount0Out */\n      dup7\n      swap1\n        /* \"MSWAP/OneRouter.sol\":16587:16597  amount1Out */\n      dup7\n      swap1\n        /* \"MSWAP/OneRouter.sol\":16457:16550  address to = i < path.length - 2 ? MarSwapLibrary.pairFor(factory, output, path[i + 2]) : _to */\n      dup7\n      swap1\n        /* \"MSWAP/OneRouter.sol\":16565:16616  pair.swap(amount0Out, amount1Out, to, new bytes(0)) */\n      0x24\n      dup2\n      add\n      tag_658\n      jump\t// in\n    tag_688:\n      0x00\n      mload(0x40)\n      dup1\n      dup4\n      sub\n      dup2\n      0x00\n      dup8\n      dup1\n      extcodesize\n      iszero\n      dup1\n      iszero\n      tag_689\n      jumpi\n      0x00\n      dup1\n      revert\n    tag_689:\n      pop\n      gas\n      call\n      iszero\n      dup1\n      iszero\n      tag_691\n      jumpi\n      returndatasize\n      0x00\n      dup1\n      returndatacopy\n      revert(0x00, returndatasize)\n    tag_691:\n      pop\n      pop\n      pop\n      pop\n        /* \"MSWAP/OneRouter.sol\":16113:16628  {\r... */\n      pop\n      pop\n      pop\n      pop\n      pop\n      pop\n      pop\n        /* \"MSWAP/OneRouter.sol\":16108:16111  i++ */\n      dup1\n      dup1\n      tag_692\n      swap1\n      tag_663\n      jump\t// in\n    tag_692:\n      swap2\n      pop\n      pop\n        /* \"MSWAP/OneRouter.sol\":16074:16628  for (uint i; i < path.length - 1; i++) {\r... */\n      jump(tag_665)\n        /* \"MSWAP/OneRouter.sol\":2766:2895  function sub(uint x, uint y) internal pure returns (uint z) {\r... */\n    tag_225:\n        /* \"MSWAP/OneRouter.sol\":2818:2824  uint z */\n      0x00\n        /* \"MSWAP/OneRouter.sol\":2860:2861  x */\n      dup3\n        /* \"MSWAP/OneRouter.sol\":2850:2855  x - y */\n      tag_694\n        /* \"MSWAP/OneRouter.sol\":2854:2855  y */\n      dup4\n        /* \"MSWAP/OneRouter.sol\":2860:2861  x */\n      dup3\n        /* \"MSWAP/OneRouter.sol\":2850:2855  x - y */\n      tag_140\n      jump\t// in\n    tag_694:\n        /* \"MSWAP/OneRouter.sol\":2846:2855  z = x - y */\n      swap2\n      pop\n      dup2\n        /* \"MSWAP/OneRouter.sol\":2845:2861  (z = x - y) <= x */\n      gt\n      iszero\n        /* \"MSWAP/OneRouter.sol\":2837:2887  require((z = x - y) <= x, 'ds-math-sub-underflow') */\n      tag_695\n      jumpi\n      mload(0x40)\n      shl(0xe5, 0x461bcd)\n      dup2\n      mstore\n        /* \"#utility.yul\":7586:7588   */\n      0x20\n        /* \"MSWAP/OneRouter.sol\":2837:2887  require((z = x - y) <= x, 'ds-math-sub-underflow') */\n      0x04\n      dup3\n      add\n        /* \"#utility.yul\":7568:7589   */\n      mstore\n        /* \"#utility.yul\":7625:7627   */\n      0x15\n        /* \"#utility.yul\":7605:7623   */\n      0x24\n      dup3\n      add\n        /* \"#utility.yul\":7598:7628   */\n      mstore\n      shl(0x58, 0x64732d6d6174682d7375622d756e646572666c6f77)\n        /* \"#utility.yul\":7644:7662   */\n      0x44\n      dup3\n      add\n        /* \"#utility.yul\":7637:7688   */\n      mstore\n        /* \"#utility.yul\":7705:7723   */\n      0x64\n      add\n        /* \"MSWAP/OneRouter.sol\":2837:2887  require((z = x - y) <= x, 'ds-math-sub-underflow') */\n      tag_122\n        /* \"#utility.yul\":7384:7729   */\n      jump\n        /* \"MSWAP/OneRouter.sol\":2837:2887  require((z = x - y) <= x, 'ds-math-sub-underflow') */\n    tag_695:\n        /* \"MSWAP/OneRouter.sol\":2766:2895  function sub(uint x, uint y) internal pure returns (uint z) {\r... */\n      swap3\n      swap2\n      pop\n      pop\n      jump\t// out\n        /* \"MSWAP/OneRouter.sol\":1419:1614  function safeTransferETH(address to, uint value) internal {\r... */\n    tag_278:\n        /* \"MSWAP/OneRouter.sol\":1527:1539  new bytes(0) */\n      0x40\n      dup1\n      mload\n        /* \"MSWAP/OneRouter.sol\":1489:1501  bool success */\n      0x00\n        /* \"MSWAP/OneRouter.sol\":1527:1539  new bytes(0) */\n      dup1\n      dup3\n      mstore\n      0x20\n      dup3\n      add\n      swap1\n      swap3\n      mstore\n      sub(shl(0xa0, 0x01), 0x01)\n        /* \"MSWAP/OneRouter.sol\":1506:1513  to.call */\n      dup5\n      and\n      swap1\n        /* \"MSWAP/OneRouter.sol\":1520:1525  value */\n      dup4\n      swap1\n        /* \"MSWAP/OneRouter.sol\":1506:1540  to.call{value:value}(new bytes(0)) */\n      mload(0x40)\n      tag_702\n      swap2\n      swap1\n      tag_617\n      jump\t// in\n    tag_702:\n      0x00\n      mload(0x40)\n      dup1\n      dup4\n      sub\n      dup2\n      dup6\n      dup8\n      gas\n      call\n      swap3\n      pop\n      pop\n      pop\n      returndatasize\n      dup1\n      0x00\n      dup2\n      eq\n      tag_705\n      jumpi\n      mload(0x40)\n      swap2\n      pop\n      and(add(returndatasize, 0x3f), not(0x1f))\n      dup3\n      add\n      0x40\n      mstore\n      returndatasize\n      dup3\n      mstore\n      returndatasize\n      0x00\n      0x20\n      dup5\n      add\n      returndatacopy\n      jump(tag_704)\n    tag_705:\n      0x60\n      swap2\n      pop\n    tag_704:\n      pop\n        /* \"MSWAP/OneRouter.sol\":1488:1540  (bool success,) = to.call{value:value}(new bytes(0)) */\n      pop\n      swap1\n      pop\n        /* \"MSWAP/OneRouter.sol\":1559:1566  success */\n      dup1\n        /* \"MSWAP/OneRouter.sol\":1551:1606  require(success, 'TransferHelper: ETH_TRANSFER_FAILED') */\n      tag_706\n      jumpi\n      mload(0x40)\n      shl(0xe5, 0x461bcd)\n      dup2\n      mstore\n        /* \"#utility.yul\":10988:10990   */\n      0x20\n        /* \"MSWAP/OneRouter.sol\":1551:1606  require(success, 'TransferHelper: ETH_TRANSFER_FAILED') */\n      0x04\n      dup3\n      add\n        /* \"#utility.yul\":10970:10991   */\n      mstore\n        /* \"#utility.yul\":11027:11029   */\n      0x23\n        /* \"#utility.yul\":11007:11025   */\n      0x24\n      dup3\n      add\n        /* \"#utility.yul\":11000:11030   */\n      mstore\n        /* \"#utility.yul\":11066:11100   */\n      0x5472616e7366657248656c7065723a204554485f5452414e534645525f464149\n        /* \"#utility.yul\":11046:11064   */\n      0x44\n      dup3\n      add\n        /* \"#utility.yul\":11039:11101   */\n      mstore\n      shl(0xea, 0x131151)\n        /* \"#utility.yul\":11117:11135   */\n      0x64\n      dup3\n      add\n        /* \"#utility.yul\":11110:11143   */\n      mstore\n        /* \"#utility.yul\":11160:11179   */\n      0x84\n      add\n        /* \"MSWAP/OneRouter.sol\":1551:1606  require(success, 'TransferHelper: ETH_TRANSFER_FAILED') */\n      tag_122\n        /* \"#utility.yul\":10786:11185   */\n      jump\n        /* \"MSWAP/OneRouter.sol\":1551:1606  require(success, 'TransferHelper: ETH_TRANSFER_FAILED') */\n    tag_706:\n        /* \"MSWAP/OneRouter.sol\":1477:1614  {\r... */\n      pop\n        /* \"MSWAP/OneRouter.sol\":1419:1614  function safeTransferETH(address to, uint value) internal {\r... */\n      pop\n      pop\n      jump\t// out\n        /* \"MSWAP/OneRouter.sol\":7715:7944  function _transferOwnership(address newOwner) internal {\r... */\n    tag_559:\n      sub(shl(0xa0, 0x01), 0x01)\n        /* \"MSWAP/OneRouter.sol\":7789:7811  newOwner != address(0) */\n      dup2\n      and\n        /* \"MSWAP/OneRouter.sol\":7781:7854  require(newOwner != address(0), \"Ownable: new owner is the zero address\") */\n      tag_710\n      jumpi\n      mload(0x40)\n      shl(0xe5, 0x461bcd)\n      dup2\n      mstore\n        /* \"#utility.yul\":8696:8698   */\n      0x20\n        /* \"MSWAP/OneRouter.sol\":7781:7854  require(newOwner != address(0), \"Ownable: new owner is the zero address\") */\n      0x04\n      dup3\n      add\n        /* \"#utility.yul\":8678:8699   */\n      mstore\n        /* \"#utility.yul\":8735:8737   */\n      0x26\n        /* \"#utility.yul\":8715:8733   */\n      0x24\n      dup3\n      add\n        /* \"#utility.yul\":8708:8738   */\n      mstore\n        /* \"#utility.yul\":8774:8808   */\n      0x4f776e61626c653a206e6577206f776e657220697320746865207a65726f2061\n        /* \"#utility.yul\":8754:8772   */\n      0x44\n      dup3\n      add\n        /* \"#utility.yul\":8747:8809   */\n      mstore\n      shl(0xd0, 0x646472657373)\n        /* \"#utility.yul\":8825:8843   */\n      0x64\n      dup3\n      add\n        /* \"#utility.yul\":8818:8854   */\n      mstore\n        /* \"#utility.yul\":8871:8890   */\n      0x84\n      add\n        /* \"MSWAP/OneRouter.sol\":7781:7854  require(newOwner != address(0), \"Ownable: new owner is the zero address\") */\n      tag_122\n        /* \"#utility.yul\":8494:8896   */\n      jump\n        /* \"MSWAP/OneRouter.sol\":7781:7854  require(newOwner != address(0), \"Ownable: new owner is the zero address\") */\n    tag_710:\n        /* \"MSWAP/OneRouter.sol\":7891:7897  _owner */\n      0x00\n      dup1\n      sload\n        /* \"MSWAP/OneRouter.sol\":7870:7908  OwnershipTransferred(_owner, newOwner) */\n      mload(0x40)\n      sub(shl(0xa0, 0x01), 0x01)\n      dup1\n      dup6\n      and\n      swap4\n        /* \"MSWAP/OneRouter.sol\":7891:7897  _owner */\n      swap3\n      and\n      swap2\n        /* \"MSWAP/OneRouter.sol\":7870:7908  OwnershipTransferred(_owner, newOwner) */\n      0x8be0079c531659141344cd1fd0a4f28419497f9722a3daafe3b4186f6b6457e0\n      swap2\n      log3\n        /* \"MSWAP/OneRouter.sol\":7919:7925  _owner */\n      0x00\n        /* \"MSWAP/OneRouter.sol\":7919:7936  _owner = newOwner */\n      dup1\n      sload\n      not(sub(shl(0xa0, 0x01), 0x01))\n      and\n      sub(shl(0xa0, 0x01), 0x01)\n      swap3\n      swap1\n      swap3\n      and\n      swap2\n      swap1\n      swap2\n      or\n      swap1\n      sstore\n        /* \"MSWAP/OneRouter.sol\":7715:7944  function _transferOwnership(address newOwner) internal {\r... */\n      jump\t// out\n        /* \"MSWAP/OneRouter.sol\":5773:6118  function sortTokens(address tokenA, address tokenB) internal pure returns (address token0, address token1) {\r... */\n    tag_639:\n        /* \"MSWAP/OneRouter.sol\":5848:5862  address token0 */\n      0x00\n        /* \"MSWAP/OneRouter.sol\":5864:5878  address token1 */\n      dup1\n        /* \"MSWAP/OneRouter.sol\":5909:5915  tokenB */\n      dup3\n      sub(shl(0xa0, 0x01), 0x01)\n        /* \"MSWAP/OneRouter.sol\":5899:5915  tokenA != tokenB */\n      and\n        /* \"MSWAP/OneRouter.sol\":5899:5905  tokenA */\n      dup5\n      sub(shl(0xa0, 0x01), 0x01)\n        /* \"MSWAP/OneRouter.sol\":5899:5915  tokenA != tokenB */\n      and\n      eq\n      iszero\n        /* \"MSWAP/OneRouter.sol\":5891:5955  require(tokenA != tokenB, 'MarSwapLibrary: IDENTICAL_ADDRESSES') */\n      tag_714\n      jumpi\n      mload(0x40)\n      shl(0xe5, 0x461bcd)\n      dup2\n      mstore\n        /* \"#utility.yul\":11392:11394   */\n      0x20\n        /* \"MSWAP/OneRouter.sol\":5891:5955  require(tokenA != tokenB, 'MarSwapLibrary: IDENTICAL_ADDRESSES') */\n      0x04\n      dup3\n      add\n        /* \"#utility.yul\":11374:11395   */\n      mstore\n        /* \"#utility.yul\":11431:11433   */\n      0x23\n        /* \"#utility.yul\":11411:11429   */\n      0x24\n      dup3\n      add\n        /* \"#utility.yul\":11404:11434   */\n      mstore\n        /* \"#utility.yul\":11470:11504   */\n      0x4d6172537761704c6962726172793a204944454e544943414c5f414444524553\n        /* \"#utility.yul\":11450:11468   */\n      0x44\n      dup3\n      add\n        /* \"#utility.yul\":11443:11505   */\n      mstore\n      shl(0xe8, 0x534553)\n        /* \"#utility.yul\":11521:11539   */\n      0x64\n      dup3\n      add\n        /* \"#utility.yul\":11514:11547   */\n      mstore\n        /* \"#utility.yul\":11564:11583   */\n      0x84\n      add\n        /* \"MSWAP/OneRouter.sol\":5891:5955  require(tokenA != tokenB, 'MarSwapLibrary: IDENTICAL_ADDRESSES') */\n      tag_122\n        /* \"#utility.yul\":11190:11589   */\n      jump\n        /* \"MSWAP/OneRouter.sol\":5891:5955  require(tokenA != tokenB, 'MarSwapLibrary: IDENTICAL_ADDRESSES') */\n    tag_714:\n        /* \"MSWAP/OneRouter.sol\":5994:6000  tokenB */\n      dup3\n      sub(shl(0xa0, 0x01), 0x01)\n        /* \"MSWAP/OneRouter.sol\":5985:6000  tokenA < tokenB */\n      and\n        /* \"MSWAP/OneRouter.sol\":5985:5991  tokenA */\n      dup5\n      sub(shl(0xa0, 0x01), 0x01)\n        /* \"MSWAP/OneRouter.sol\":5985:6000  tokenA < tokenB */\n      and\n      lt\n        /* \"MSWAP/OneRouter.sol\":5985:6038  tokenA < tokenB ? (tokenA, tokenB) : (tokenB, tokenA) */\n      tag_717\n      jumpi\n        /* \"MSWAP/OneRouter.sol\":6023:6029  tokenB */\n      dup3\n        /* \"MSWAP/OneRouter.sol\":6031:6037  tokenA */\n      dup5\n        /* \"MSWAP/OneRouter.sol\":5985:6038  tokenA < tokenB ? (tokenA, tokenB) : (tokenB, tokenA) */\n      jump(tag_718)\n    tag_717:\n        /* \"MSWAP/OneRouter.sol\":6004:6010  tokenA */\n      dup4\n        /* \"MSWAP/OneRouter.sol\":6012:6018  tokenB */\n      dup4\n        /* \"MSWAP/OneRouter.sol\":5985:6038  tokenA < tokenB ? (tokenA, tokenB) : (tokenB, tokenA) */\n    tag_718:\n        /* \"MSWAP/OneRouter.sol\":5966:6038  (token0, token1) = tokenA < tokenB ? (tokenA, tokenB) : (tokenB, tokenA) */\n      swap1\n      swap3\n      pop\n      swap1\n      pop\n      sub(shl(0xa0, 0x01), 0x01)\n        /* \"MSWAP/OneRouter.sol\":6057:6077  token0 != address(0) */\n      dup3\n      and\n        /* \"MSWAP/OneRouter.sol\":6049:6110  require(token0 != address(0), 'MarSwapLibrary: ZERO_ADDRESS') */\n      tag_719\n      jumpi\n      mload(0x40)\n      shl(0xe5, 0x461bcd)\n      dup2\n      mstore\n        /* \"#utility.yul\":9103:9105   */\n      0x20\n        /* \"MSWAP/OneRouter.sol\":6049:6110  require(token0 != address(0), 'MarSwapLibrary: ZERO_ADDRESS') */\n      0x04\n      dup3\n      add\n        /* \"#utility.yul\":9085:9106   */\n      mstore\n        /* \"#utility.yul\":9142:9144   */\n      0x1c\n        /* \"#utility.yul\":9122:9140   */\n      0x24\n      dup3\n      add\n        /* \"#utility.yul\":9115:9145   */\n      mstore\n        /* \"#utility.yul\":9181:9211   */\n      0x4d6172537761704c6962726172793a205a45524f5f4144445245535300000000\n        /* \"#utility.yul\":9161:9179   */\n      0x44\n      dup3\n      add\n        /* \"#utility.yul\":9154:9212   */\n      mstore\n        /* \"#utility.yul\":9229:9247   */\n      0x64\n      add\n        /* \"MSWAP/OneRouter.sol\":6049:6110  require(token0 != address(0), 'MarSwapLibrary: ZERO_ADDRESS') */\n      tag_122\n        /* \"#utility.yul\":8901:9253   */\n      jump\n        /* \"MSWAP/OneRouter.sol\":6049:6110  require(token0 != address(0), 'MarSwapLibrary: ZERO_ADDRESS') */\n    tag_719:\n        /* \"MSWAP/OneRouter.sol\":5773:6118  function sortTokens(address tokenA, address tokenB) internal pure returns (address token0, address token1) {\r... */\n      swap3\n      pop\n      swap3\n      swap1\n      pop\n      jump\t// out\n        /* \"MSWAP/OneRouter.sol\":16643:17278  function getinfo(IMarSwapPair pair, address input, address token0, address router) internal view returns (uint amount0Out, uint amount1Out){\r... */\n    tag_677:\n        /* \"MSWAP/OneRouter.sol\":16749:16764  uint amount0Out */\n      0x00\n        /* \"MSWAP/OneRouter.sol\":16766:16781  uint amount1Out */\n      dup1\n        /* \"MSWAP/OneRouter.sol\":16798:16811  uint reserve0 */\n      0x00\n        /* \"MSWAP/OneRouter.sol\":16813:16826  uint reserve1 */\n      dup1\n        /* \"MSWAP/OneRouter.sol\":16831:16835  pair */\n      dup8\n      sub(shl(0xa0, 0x01), 0x01)\n        /* \"MSWAP/OneRouter.sol\":16831:16847  pair.getReserves */\n      and\n      0x0902f1ac\n        /* \"MSWAP/OneRouter.sol\":16831:16849  pair.getReserves() */\n      mload(0x40)\n      dup2\n      0xffffffff\n      and\n      0xe0\n      shl\n      dup2\n      mstore\n      0x04\n      add\n      0x60\n      mload(0x40)\n      dup1\n      dup4\n      sub\n      dup2\n      dup7\n      dup1\n      extcodesize\n      iszero\n      dup1\n      iszero\n      tag_723\n      jumpi\n      0x00\n      dup1\n      revert\n    tag_723:\n      pop\n      gas\n      staticcall\n      iszero\n      dup1\n      iszero\n      tag_725\n      jumpi\n      returndatasize\n      0x00\n      dup1\n      returndatacopy\n      revert(0x00, returndatasize)\n    tag_725:\n      pop\n      pop\n      pop\n      pop\n      mload(0x40)\n      returndatasize\n      not(0x1f)\n      0x1f\n      dup3\n      add\n      and\n      dup3\n      add\n      dup1\n      0x40\n      mstore\n      pop\n      dup2\n      add\n      swap1\n      tag_726\n      swap2\n      swap1\n      tag_727\n      jump\t// in\n    tag_726:\n        /* \"MSWAP/OneRouter.sol\":16797:16849  (uint reserve0, uint reserve1,) = pair.getReserves() */\n      pop\n      sub(shl(0x70, 0x01), 0x01)\n      and\n      swap2\n      pop\n      sub(shl(0x70, 0x01), 0x01)\n      and\n      swap2\n      pop\n        /* \"MSWAP/OneRouter.sol\":16865:16882  uint reserveInput */\n      0x00\n        /* \"MSWAP/OneRouter.sol\":16884:16902  uint reserveOutput */\n      dup1\n        /* \"MSWAP/OneRouter.sol\":16915:16921  token0 */\n      dup8\n      sub(shl(0xa0, 0x01), 0x01)\n        /* \"MSWAP/OneRouter.sol\":16906:16921  input == token0 */\n      and\n        /* \"MSWAP/OneRouter.sol\":16906:16911  input */\n      dup10\n      sub(shl(0xa0, 0x01), 0x01)\n        /* \"MSWAP/OneRouter.sol\":16906:16921  input == token0 */\n      and\n      eq\n        /* \"MSWAP/OneRouter.sol\":16906:16967  input == token0 ? (reserve0, reserve1) : (reserve1, reserve0) */\n      tag_728\n      jumpi\n        /* \"MSWAP/OneRouter.sol\":16948:16956  reserve1 */\n      dup3\n        /* \"MSWAP/OneRouter.sol\":16958:16966  reserve0 */\n      dup5\n        /* \"MSWAP/OneRouter.sol\":16906:16967  input == token0 ? (reserve0, reserve1) : (reserve1, reserve0) */\n      jump(tag_729)\n    tag_728:\n        /* \"MSWAP/OneRouter.sol\":16925:16933  reserve0 */\n      dup4\n        /* \"MSWAP/OneRouter.sol\":16935:16943  reserve1 */\n      dup4\n        /* \"MSWAP/OneRouter.sol\":16906:16967  input == token0 ? (reserve0, reserve1) : (reserve1, reserve0) */\n    tag_729:\n        /* \"MSWAP/OneRouter.sol\":17001:17039  IERC20(input).balanceOf(address(pair)) */\n      mload(0x40)\n      shl(0xe0, 0x70a08231)\n      dup2\n      mstore\n      sub(shl(0xa0, 0x01), 0x01)\n        /* \"#utility.yul\":5543:5575   */\n      dup14\n      dup2\n      and\n        /* \"MSWAP/OneRouter.sol\":17001:17039  IERC20(input).balanceOf(address(pair)) */\n      0x04\n      dup4\n      add\n        /* \"#utility.yul\":5525:5576   */\n      mstore\n        /* \"MSWAP/OneRouter.sol\":16864:16967  (uint reserveInput, uint reserveOutput) = input == token0 ? (reserve0, reserve1) : (reserve1, reserve0) */\n      swap3\n      swap5\n      pop\n      swap1\n      swap3\n      pop\n        /* \"MSWAP/OneRouter.sol\":16982:16998  uint amountInput */\n      0x00\n      swap2\n        /* \"MSWAP/OneRouter.sol\":17001:17057  IERC20(input).balanceOf(address(pair)).sub(reserveInput) */\n      tag_730\n      swap2\n        /* \"MSWAP/OneRouter.sol\":16864:16967  (uint reserveInput, uint reserveOutput) = input == token0 ? (reserve0, reserve1) : (reserve1, reserve0) */\n      dup6\n      swap2\n        /* \"MSWAP/OneRouter.sol\":17001:17024  IERC20(input).balanceOf */\n      dup14\n      and\n      swap1\n      0x70a08231\n      swap1\n        /* \"#utility.yul\":5498:5516   */\n      0x24\n      add\n        /* \"MSWAP/OneRouter.sol\":17001:17039  IERC20(input).balanceOf(address(pair)) */\n      tag_220\n        /* \"#utility.yul\":5379:5582   */\n      jump\n        /* \"MSWAP/OneRouter.sol\":17001:17057  IERC20(input).balanceOf(address(pair)).sub(reserveInput) */\n    tag_730:\n        /* \"MSWAP/OneRouter.sol\":17092:17161  Router(router).getAmountOut(amountInput, reserveInput, reserveOutput) */\n      mload(0x40)\n      shl(0xe2, 0x01535435)\n      dup2\n      mstore\n      0x04\n      dup2\n      add\n        /* \"#utility.yul\":13793:13818   */\n      dup3\n      swap1\n      mstore\n        /* \"#utility.yul\":13834:13852   */\n      0x24\n      dup2\n      add\n        /* \"#utility.yul\":13827:13861   */\n      dup6\n      swap1\n      mstore\n        /* \"#utility.yul\":13877:13895   */\n      0x44\n      dup2\n      add\n        /* \"#utility.yul\":13870:13904   */\n      dup5\n      swap1\n      mstore\n        /* \"MSWAP/OneRouter.sol\":16982:17057  uint amountInput = IERC20(input).balanceOf(address(pair)).sub(reserveInput) */\n      swap1\n      swap2\n      pop\n        /* \"MSWAP/OneRouter.sol\":17072:17089  uint amountOutput */\n      0x00\n      swap1\n      sub(shl(0xa0, 0x01), 0x01)\n        /* \"MSWAP/OneRouter.sol\":17092:17119  Router(router).getAmountOut */\n      dup11\n      and\n      swap1\n      0x054d50d4\n      swap1\n        /* \"#utility.yul\":13766:13784   */\n      0x64\n      add\n        /* \"MSWAP/OneRouter.sol\":17092:17161  Router(router).getAmountOut(amountInput, reserveInput, reserveOutput) */\n      0x20\n      mload(0x40)\n      dup1\n      dup4\n      sub\n      dup2\n      dup7\n      dup1\n      extcodesize\n      iszero\n      dup1\n      iszero\n      tag_738\n      jumpi\n      0x00\n      dup1\n      revert\n    tag_738:\n      pop\n      gas\n      staticcall\n      iszero\n      dup1\n      iszero\n      tag_740\n      jumpi\n      returndatasize\n      0x00\n      dup1\n      returndatacopy\n      revert(0x00, returndatasize)\n    tag_740:\n      pop\n      pop\n      pop\n      pop\n      mload(0x40)\n      returndatasize\n      not(0x1f)\n      0x1f\n      dup3\n      add\n      and\n      dup3\n      add\n      dup1\n      0x40\n      mstore\n      pop\n      dup2\n      add\n      swap1\n      tag_741\n      swap2\n      swap1\n      tag_212\n      jump\t// in\n    tag_741:\n        /* \"MSWAP/OneRouter.sol\":17072:17161  uint amountOutput = Router(router).getAmountOut(amountInput, reserveInput, reserveOutput) */\n      swap1\n      pop\n        /* \"MSWAP/OneRouter.sol\":17212:17218  token0 */\n      dup10\n      sub(shl(0xa0, 0x01), 0x01)\n        /* \"MSWAP/OneRouter.sol\":17203:17218  input == token0 */\n      and\n        /* \"MSWAP/OneRouter.sol\":17203:17208  input */\n      dup12\n      sub(shl(0xa0, 0x01), 0x01)\n        /* \"MSWAP/OneRouter.sol\":17203:17218  input == token0 */\n      and\n      eq\n        /* \"MSWAP/OneRouter.sol\":17203:17270  input == token0 ? (uint(0), amountOutput) : (amountOutput, uint(0)) */\n      tag_742\n      jumpi\n        /* \"MSWAP/OneRouter.sol\":17248:17260  amountOutput */\n      dup1\n        /* \"MSWAP/OneRouter.sol\":17267:17268  0 */\n      0x00\n        /* \"MSWAP/OneRouter.sol\":17203:17270  input == token0 ? (uint(0), amountOutput) : (amountOutput, uint(0)) */\n      jump(tag_743)\n    tag_742:\n        /* \"MSWAP/OneRouter.sol\":17227:17228  0 */\n      0x00\n        /* \"MSWAP/OneRouter.sol\":17231:17243  amountOutput */\n      dup2\n        /* \"MSWAP/OneRouter.sol\":17203:17270  input == token0 ? (uint(0), amountOutput) : (amountOutput, uint(0)) */\n    tag_743:\n        /* \"MSWAP/OneRouter.sol\":17176:17270  (amount0Out, amount1Out) = input == token0 ? (uint(0), amountOutput) : (amountOutput, uint(0)) */\n      swap1\n      swap14\n      swap1\n      swap13\n      pop\n        /* \"MSWAP/OneRouter.sol\":16643:17278  function getinfo(IMarSwapPair pair, address input, address token0, address router) internal view returns (uint amount0Out, uint amount1Out){\r... */\n      swap11\n      pop\n      pop\n      pop\n      pop\n      pop\n      pop\n      pop\n      pop\n      pop\n      pop\n      pop\n      jump\t// out\n        /* \"#utility.yul\":14:381   */\n    tag_745:\n        /* \"#utility.yul\":77:85   */\n      0x00\n        /* \"#utility.yul\":87:93   */\n      dup1\n        /* \"#utility.yul\":141:144   */\n      dup4\n        /* \"#utility.yul\":134:138   */\n      0x1f\n        /* \"#utility.yul\":126:132   */\n      dup5\n        /* \"#utility.yul\":122:139   */\n      add\n        /* \"#utility.yul\":118:145   */\n      slt\n        /* \"#utility.yul\":108:163   */\n      tag_747\n      jumpi\n        /* \"#utility.yul\":159:160   */\n      0x00\n        /* \"#utility.yul\":156:157   */\n      dup1\n        /* \"#utility.yul\":149:161   */\n      revert\n        /* \"#utility.yul\":108:163   */\n    tag_747:\n      pop\n        /* \"#utility.yul\":182:202   */\n      dup2\n      calldataload\n        /* \"#utility.yul\":225:243   */\n      0xffffffffffffffff\n        /* \"#utility.yul\":214:244   */\n      dup2\n      gt\n        /* \"#utility.yul\":211:261   */\n      iszero\n      tag_748\n      jumpi\n        /* \"#utility.yul\":257:258   */\n      0x00\n        /* \"#utility.yul\":254:255   */\n      dup1\n        /* \"#utility.yul\":247:259   */\n      revert\n        /* \"#utility.yul\":211:261   */\n    tag_748:\n        /* \"#utility.yul\":294:298   */\n      0x20\n        /* \"#utility.yul\":286:292   */\n      dup4\n        /* \"#utility.yul\":282:299   */\n      add\n        /* \"#utility.yul\":270:299   */\n      swap2\n      pop\n        /* \"#utility.yul\":354:357   */\n      dup4\n        /* \"#utility.yul\":347:351   */\n      0x20\n        /* \"#utility.yul\":337:343   */\n      dup3\n        /* \"#utility.yul\":334:335   */\n      0x05\n        /* \"#utility.yul\":330:344   */\n      shl\n        /* \"#utility.yul\":322:328   */\n      dup6\n        /* \"#utility.yul\":318:345   */\n      add\n        /* \"#utility.yul\":314:352   */\n      add\n        /* \"#utility.yul\":311:358   */\n      gt\n        /* \"#utility.yul\":308:375   */\n      iszero\n      tag_719\n      jumpi\n        /* \"#utility.yul\":371:372   */\n      0x00\n        /* \"#utility.yul\":368:369   */\n      dup1\n        /* \"#utility.yul\":361:373   */\n      revert\n        /* \"#utility.yul\":386:574   */\n    tag_750:\n        /* \"#utility.yul\":465:478   */\n      dup1\n      mload\n      sub(shl(0x70, 0x01), 0x01)\n        /* \"#utility.yul\":507:549   */\n      dup2\n      and\n        /* \"#utility.yul\":497:550   */\n      dup2\n      eq\n        /* \"#utility.yul\":487:568   */\n      tag_605\n      jumpi\n        /* \"#utility.yul\":564:565   */\n      0x00\n        /* \"#utility.yul\":561:562   */\n      dup1\n        /* \"#utility.yul\":554:566   */\n      revert\n        /* \"#utility.yul\":579:826   */\n    tag_53:\n        /* \"#utility.yul\":638:644   */\n      0x00\n        /* \"#utility.yul\":691:693   */\n      0x20\n        /* \"#utility.yul\":679:688   */\n      dup3\n        /* \"#utility.yul\":670:677   */\n      dup5\n        /* \"#utility.yul\":666:689   */\n      sub\n        /* \"#utility.yul\":662:694   */\n      slt\n        /* \"#utility.yul\":659:711   */\n      iszero\n      tag_754\n      jumpi\n        /* \"#utility.yul\":707:708   */\n      0x00\n        /* \"#utility.yul\":704:705   */\n      dup1\n        /* \"#utility.yul\":697:709   */\n      revert\n        /* \"#utility.yul\":659:711   */\n    tag_754:\n        /* \"#utility.yul\":746:755   */\n      dup2\n        /* \"#utility.yul\":733:756   */\n      calldataload\n        /* \"#utility.yul\":765:796   */\n      tag_755\n        /* \"#utility.yul\":790:795   */\n      dup2\n        /* \"#utility.yul\":765:796   */\n      tag_756\n      jump\t// in\n    tag_755:\n        /* \"#utility.yul\":815:820   */\n      swap4\n        /* \"#utility.yul\":579:826   */\n      swap3\n      pop\n      pop\n      pop\n      jump\t// out\n        /* \"#utility.yul\":831:1082   */\n    tag_131:\n        /* \"#utility.yul\":901:907   */\n      0x00\n        /* \"#utility.yul\":954:956   */\n      0x20\n        /* \"#utility.yul\":942:951   */\n      dup3\n        /* \"#utility.yul\":933:940   */\n      dup5\n        /* \"#utility.yul\":929:952   */\n      sub\n        /* \"#utility.yul\":925:957   */\n      slt\n        /* \"#utility.yul\":922:974   */\n      iszero\n      tag_758\n      jumpi\n        /* \"#utility.yul\":970:971   */\n      0x00\n        /* \"#utility.yul\":967:968   */\n      dup1\n        /* \"#utility.yul\":960:972   */\n      revert\n        /* \"#utility.yul\":922:974   */\n    tag_758:\n        /* \"#utility.yul\":1002:1011   */\n      dup2\n        /* \"#utility.yul\":996:1012   */\n      mload\n        /* \"#utility.yul\":1021:1052   */\n      tag_755\n        /* \"#utility.yul\":1046:1051   */\n      dup2\n        /* \"#utility.yul\":1021:1052   */\n      tag_756\n      jump\t// in\n        /* \"#utility.yul\":1087:2203   */\n    tag_138:\n        /* \"#utility.yul\":1182:1188   */\n      0x00\n        /* \"#utility.yul\":1213:1215   */\n      0x20\n        /* \"#utility.yul\":1256:1258   */\n      dup1\n        /* \"#utility.yul\":1244:1253   */\n      dup4\n        /* \"#utility.yul\":1235:1242   */\n      dup6\n        /* \"#utility.yul\":1231:1254   */\n      sub\n        /* \"#utility.yul\":1227:1259   */\n      slt\n        /* \"#utility.yul\":1224:1276   */\n      iszero\n      tag_761\n      jumpi\n        /* \"#utility.yul\":1272:1273   */\n      0x00\n        /* \"#utility.yul\":1269:1270   */\n      dup1\n        /* \"#utility.yul\":1262:1274   */\n      revert\n        /* \"#utility.yul\":1224:1276   */\n    tag_761:\n        /* \"#utility.yul\":1305:1314   */\n      dup3\n        /* \"#utility.yul\":1299:1315   */\n      mload\n        /* \"#utility.yul\":1334:1352   */\n      0xffffffffffffffff\n        /* \"#utility.yul\":1375:1377   */\n      dup1\n        /* \"#utility.yul\":1367:1373   */\n      dup3\n        /* \"#utility.yul\":1364:1378   */\n      gt\n        /* \"#utility.yul\":1361:1395   */\n      iszero\n      tag_762\n      jumpi\n        /* \"#utility.yul\":1391:1392   */\n      0x00\n        /* \"#utility.yul\":1388:1389   */\n      dup1\n        /* \"#utility.yul\":1381:1393   */\n      revert\n        /* \"#utility.yul\":1361:1395   */\n    tag_762:\n        /* \"#utility.yul\":1429:1435   */\n      dup2\n        /* \"#utility.yul\":1418:1427   */\n      dup6\n        /* \"#utility.yul\":1414:1436   */\n      add\n        /* \"#utility.yul\":1404:1436   */\n      swap2\n      pop\n        /* \"#utility.yul\":1474:1481   */\n      dup6\n        /* \"#utility.yul\":1467:1471   */\n      0x1f\n        /* \"#utility.yul\":1463:1465   */\n      dup4\n        /* \"#utility.yul\":1459:1472   */\n      add\n        /* \"#utility.yul\":1455:1482   */\n      slt\n        /* \"#utility.yul\":1445:1500   */\n      tag_763\n      jumpi\n        /* \"#utility.yul\":1496:1497   */\n      0x00\n        /* \"#utility.yul\":1493:1494   */\n      dup1\n        /* \"#utility.yul\":1486:1498   */\n      revert\n        /* \"#utility.yul\":1445:1500   */\n    tag_763:\n        /* \"#utility.yul\":1525:1527   */\n      dup2\n        /* \"#utility.yul\":1519:1528   */\n      mload\n        /* \"#utility.yul\":1547:1549   */\n      dup2\n        /* \"#utility.yul\":1543:1545   */\n      dup2\n        /* \"#utility.yul\":1540:1550   */\n      gt\n        /* \"#utility.yul\":1537:1573   */\n      iszero\n      tag_765\n      jumpi\n        /* \"#utility.yul\":1553:1571   */\n      tag_765\n      tag_655\n      jump\t// in\n    tag_765:\n        /* \"#utility.yul\":1599:1601   */\n      dup1\n        /* \"#utility.yul\":1596:1597   */\n      0x05\n        /* \"#utility.yul\":1592:1602   */\n      shl\n        /* \"#utility.yul\":1631:1633   */\n      0x40\n        /* \"#utility.yul\":1625:1634   */\n      mload\n        /* \"#utility.yul\":1694:1696   */\n      0x1f\n        /* \"#utility.yul\":1690:1697   */\n      not\n        /* \"#utility.yul\":1685:1687   */\n      0x3f\n        /* \"#utility.yul\":1681:1683   */\n      dup4\n        /* \"#utility.yul\":1677:1688   */\n      add\n        /* \"#utility.yul\":1673:1698   */\n      and\n        /* \"#utility.yul\":1665:1671   */\n      dup2\n        /* \"#utility.yul\":1661:1699   */\n      add\n        /* \"#utility.yul\":1749:1755   */\n      dup2\n        /* \"#utility.yul\":1737:1747   */\n      dup2\n        /* \"#utility.yul\":1734:1756   */\n      lt\n        /* \"#utility.yul\":1729:1731   */\n      dup6\n        /* \"#utility.yul\":1717:1727   */\n      dup3\n        /* \"#utility.yul\":1714:1732   */\n      gt\n        /* \"#utility.yul\":1711:1757   */\n      or\n        /* \"#utility.yul\":1708:1780   */\n      iszero\n      tag_767\n      jumpi\n        /* \"#utility.yul\":1760:1778   */\n      tag_767\n      tag_655\n      jump\t// in\n    tag_767:\n        /* \"#utility.yul\":1796:1798   */\n      0x40\n        /* \"#utility.yul\":1789:1811   */\n      mstore\n        /* \"#utility.yul\":1846:1864   */\n      dup3\n      dup2\n      mstore\n        /* \"#utility.yul\":1880:1895   */\n      dup6\n      dup2\n      add\n      swap4\n      pop\n        /* \"#utility.yul\":1915:1926   */\n      dup5\n      dup7\n      add\n        /* \"#utility.yul\":1945:1956   */\n      dup3\n      dup7\n      add\n        /* \"#utility.yul\":1941:1961   */\n      dup8\n      add\n        /* \"#utility.yul\":1938:1971   */\n      dup11\n      lt\n        /* \"#utility.yul\":1935:1988   */\n      iszero\n      tag_768\n      jumpi\n        /* \"#utility.yul\":1984:1985   */\n      0x00\n        /* \"#utility.yul\":1981:1982   */\n      dup1\n        /* \"#utility.yul\":1974:1986   */\n      revert\n        /* \"#utility.yul\":1935:1988   */\n    tag_768:\n        /* \"#utility.yul\":2006:2007   */\n      0x00\n        /* \"#utility.yul\":1997:2007   */\n      swap6\n      pop\n        /* \"#utility.yul\":2016:2172   */\n    tag_769:\n        /* \"#utility.yul\":2030:2032   */\n      dup4\n        /* \"#utility.yul\":2027:2028   */\n      dup7\n        /* \"#utility.yul\":2024:2033   */\n      lt\n        /* \"#utility.yul\":2016:2172   */\n      iszero\n      tag_771\n      jumpi\n        /* \"#utility.yul\":2087:2097   */\n      dup1\n      mload\n        /* \"#utility.yul\":2075:2098   */\n      dup6\n      mstore\n        /* \"#utility.yul\":2048:2049   */\n      0x01\n        /* \"#utility.yul\":2041:2050   */\n      swap6\n      swap1\n      swap6\n      add\n      swap5\n        /* \"#utility.yul\":2118:2130   */\n      swap4\n      dup7\n      add\n      swap4\n        /* \"#utility.yul\":2150:2162   */\n      dup7\n      add\n        /* \"#utility.yul\":2016:2172   */\n      jump(tag_769)\n    tag_771:\n      pop\n        /* \"#utility.yul\":2191:2197   */\n      swap9\n        /* \"#utility.yul\":1087:2203   */\n      swap8\n      pop\n      pop\n      pop\n      pop\n      pop\n      pop\n      pop\n      pop\n      jump\t// out\n        /* \"#utility.yul\":2208:2485   */\n    tag_200:\n        /* \"#utility.yul\":2275:2281   */\n      0x00\n        /* \"#utility.yul\":2328:2330   */\n      0x20\n        /* \"#utility.yul\":2316:2325   */\n      dup3\n        /* \"#utility.yul\":2307:2314   */\n      dup5\n        /* \"#utility.yul\":2303:2326   */\n      sub\n        /* \"#utility.yul\":2299:2331   */\n      slt\n        /* \"#utility.yul\":2296:2348   */\n      iszero\n      tag_773\n      jumpi\n        /* \"#utility.yul\":2344:2345   */\n      0x00\n        /* \"#utility.yul\":2341:2342   */\n      dup1\n        /* \"#utility.yul\":2334:2346   */\n      revert\n        /* \"#utility.yul\":2296:2348   */\n    tag_773:\n        /* \"#utility.yul\":2376:2385   */\n      dup2\n        /* \"#utility.yul\":2370:2386   */\n      mload\n        /* \"#utility.yul\":2429:2434   */\n      dup1\n        /* \"#utility.yul\":2422:2435   */\n      iszero\n        /* \"#utility.yul\":2415:2436   */\n      iszero\n        /* \"#utility.yul\":2408:2413   */\n      dup2\n        /* \"#utility.yul\":2405:2437   */\n      eq\n        /* \"#utility.yul\":2395:2455   */\n      tag_755\n      jumpi\n        /* \"#utility.yul\":2451:2452   */\n      0x00\n        /* \"#utility.yul\":2448:2449   */\n      dup1\n        /* \"#utility.yul\":2441:2453   */\n      revert\n        /* \"#utility.yul\":2490:2940   */\n    tag_727:\n        /* \"#utility.yul\":2577:2583   */\n      0x00\n        /* \"#utility.yul\":2585:2591   */\n      dup1\n        /* \"#utility.yul\":2593:2599   */\n      0x00\n        /* \"#utility.yul\":2646:2648   */\n      0x60\n        /* \"#utility.yul\":2634:2643   */\n      dup5\n        /* \"#utility.yul\":2625:2632   */\n      dup7\n        /* \"#utility.yul\":2621:2644   */\n      sub\n        /* \"#utility.yul\":2617:2649   */\n      slt\n        /* \"#utility.yul\":2614:2666   */\n      iszero\n      tag_776\n      jumpi\n        /* \"#utility.yul\":2662:2663   */\n      0x00\n        /* \"#utility.yul\":2659:2660   */\n      dup1\n        /* \"#utility.yul\":2652:2664   */\n      revert\n        /* \"#utility.yul\":2614:2666   */\n    tag_776:\n        /* \"#utility.yul\":2685:2725   */\n      tag_777\n        /* \"#utility.yul\":2715:2724   */\n      dup5\n        /* \"#utility.yul\":2685:2725   */\n      tag_750\n      jump\t// in\n    tag_777:\n        /* \"#utility.yul\":2675:2725   */\n      swap3\n      pop\n        /* \"#utility.yul\":2744:2793   */\n      tag_778\n        /* \"#utility.yul\":2789:2791   */\n      0x20\n        /* \"#utility.yul\":2778:2787   */\n      dup6\n        /* \"#utility.yul\":2774:2792   */\n      add\n        /* \"#utility.yul\":2744:2793   */\n      tag_750\n      jump\t// in\n    tag_778:\n        /* \"#utility.yul\":2734:2793   */\n      swap2\n      pop\n        /* \"#utility.yul\":2836:2838   */\n      0x40\n        /* \"#utility.yul\":2825:2834   */\n      dup5\n        /* \"#utility.yul\":2821:2839   */\n      add\n        /* \"#utility.yul\":2815:2840   */\n      mload\n        /* \"#utility.yul\":2880:2890   */\n      0xffffffff\n        /* \"#utility.yul\":2873:2878   */\n      dup2\n        /* \"#utility.yul\":2869:2891   */\n      and\n        /* \"#utility.yul\":2862:2867   */\n      dup2\n        /* \"#utility.yul\":2859:2892   */\n      eq\n        /* \"#utility.yul\":2849:2910   */\n      tag_779\n      jumpi\n        /* \"#utility.yul\":2906:2907   */\n      0x00\n        /* \"#utility.yul\":2903:2904   */\n      dup1\n        /* \"#utility.yul\":2896:2908   */\n      revert\n        /* \"#utility.yul\":2849:2910   */\n    tag_779:\n        /* \"#utility.yul\":2929:2934   */\n      dup1\n        /* \"#utility.yul\":2919:2934   */\n      swap2\n      pop\n      pop\n        /* \"#utility.yul\":2490:2940   */\n      swap3\n      pop\n      swap3\n      pop\n      swap3\n      jump\t// out\n        /* \"#utility.yul\":2945:3125   */\n    tag_72:\n        /* \"#utility.yul\":3004:3010   */\n      0x00\n        /* \"#utility.yul\":3057:3059   */\n      0x20\n        /* \"#utility.yul\":3045:3054   */\n      dup3\n        /* \"#utility.yul\":3036:3043   */\n      dup5\n        /* \"#utility.yul\":3032:3055   */\n      sub\n        /* \"#utility.yul\":3028:3060   */\n      slt\n        /* \"#utility.yul\":3025:3077   */\n      iszero\n      tag_781\n      jumpi\n        /* \"#utility.yul\":3073:3074   */\n      0x00\n        /* \"#utility.yul\":3070:3071   */\n      dup1\n        /* \"#utility.yul\":3063:3075   */\n      revert\n        /* \"#utility.yul\":3025:3077   */\n    tag_781:\n      pop\n        /* \"#utility.yul\":3096:3119   */\n      calldataload\n      swap2\n        /* \"#utility.yul\":2945:3125   */\n      swap1\n      pop\n      jump\t// out\n        /* \"#utility.yul\":3130:3314   */\n    tag_212:\n        /* \"#utility.yul\":3200:3206   */\n      0x00\n        /* \"#utility.yul\":3253:3255   */\n      0x20\n        /* \"#utility.yul\":3241:3250   */\n      dup3\n        /* \"#utility.yul\":3232:3239   */\n      dup5\n        /* \"#utility.yul\":3228:3251   */\n      sub\n        /* \"#utility.yul\":3224:3256   */\n      slt\n        /* \"#utility.yul\":3221:3273   */\n      iszero\n      tag_783\n      jumpi\n        /* \"#utility.yul\":3269:3270   */\n      0x00\n        /* \"#utility.yul\":3266:3267   */\n      dup1\n        /* \"#utility.yul\":3259:3271   */\n      revert\n        /* \"#utility.yul\":3221:3273   */\n    tag_783:\n      pop\n        /* \"#utility.yul\":3292:3308   */\n      mload\n      swap2\n        /* \"#utility.yul\":3130:3314   */\n      swap1\n      pop\n      jump\t// out\n        /* \"#utility.yul\":3319:4170   */\n    tag_40:\n        /* \"#utility.yul\":3441:3447   */\n      0x00\n        /* \"#utility.yul\":3449:3455   */\n      dup1\n        /* \"#utility.yul\":3457:3463   */\n      0x00\n        /* \"#utility.yul\":3465:3471   */\n      dup1\n        /* \"#utility.yul\":3473:3479   */\n      0x00\n        /* \"#utility.yul\":3481:3487   */\n      dup1\n        /* \"#utility.yul\":3534:3537   */\n      0xa0\n        /* \"#utility.yul\":3522:3531   */\n      dup8\n        /* \"#utility.yul\":3513:3520   */\n      dup10\n        /* \"#utility.yul\":3509:3532   */\n      sub\n        /* \"#utility.yul\":3505:3538   */\n      slt\n        /* \"#utility.yul\":3502:3555   */\n      iszero\n      tag_785\n      jumpi\n        /* \"#utility.yul\":3551:3552   */\n      0x00\n        /* \"#utility.yul\":3548:3549   */\n      dup1\n        /* \"#utility.yul\":3541:3553   */\n      revert\n        /* \"#utility.yul\":3502:3555   */\n    tag_785:\n        /* \"#utility.yul\":3587:3596   */\n      dup7\n        /* \"#utility.yul\":3574:3597   */\n      calldataload\n        /* \"#utility.yul\":3564:3597   */\n      swap6\n      pop\n        /* \"#utility.yul\":3648:3650   */\n      0x20\n        /* \"#utility.yul\":3637:3646   */\n      dup8\n        /* \"#utility.yul\":3633:3651   */\n      add\n        /* \"#utility.yul\":3620:3652   */\n      calldataload\n        /* \"#utility.yul\":3675:3693   */\n      0xffffffffffffffff\n        /* \"#utility.yul\":3667:3673   */\n      dup2\n        /* \"#utility.yul\":3664:3694   */\n      gt\n        /* \"#utility.yul\":3661:3711   */\n      iszero\n      tag_786\n      jumpi\n        /* \"#utility.yul\":3707:3708   */\n      0x00\n        /* \"#utility.yul\":3704:3705   */\n      dup1\n        /* \"#utility.yul\":3697:3709   */\n      revert\n        /* \"#utility.yul\":3661:3711   */\n    tag_786:\n        /* \"#utility.yul\":3746:3816   */\n      tag_787\n        /* \"#utility.yul\":3808:3815   */\n      dup10\n        /* \"#utility.yul\":3799:3805   */\n      dup3\n        /* \"#utility.yul\":3788:3797   */\n      dup11\n        /* \"#utility.yul\":3784:3806   */\n      add\n        /* \"#utility.yul\":3746:3816   */\n      tag_745\n      jump\t// in\n    tag_787:\n        /* \"#utility.yul\":3835:3843   */\n      swap1\n      swap7\n      pop\n        /* \"#utility.yul\":3720:3816   */\n      swap5\n      pop\n      pop\n        /* \"#utility.yul\":3920:3922   */\n      0x40\n        /* \"#utility.yul\":3905:3923   */\n      dup8\n      add\n        /* \"#utility.yul\":3892:3924   */\n      calldataload\n        /* \"#utility.yul\":3933:3964   */\n      tag_788\n        /* \"#utility.yul\":3892:3924   */\n      dup2\n        /* \"#utility.yul\":3933:3964   */\n      tag_756\n      jump\t// in\n    tag_788:\n        /* \"#utility.yul\":3983:3988   */\n      swap3\n      pop\n        /* \"#utility.yul\":4035:4037   */\n      0x60\n        /* \"#utility.yul\":4020:4038   */\n      dup8\n      add\n        /* \"#utility.yul\":4007:4039   */\n      calldataload\n      swap2\n      pop\n        /* \"#utility.yul\":4091:4094   */\n      0x80\n        /* \"#utility.yul\":4076:4095   */\n      dup8\n      add\n        /* \"#utility.yul\":4063:4096   */\n      calldataload\n        /* \"#utility.yul\":4105:4138   */\n      tag_789\n        /* \"#utility.yul\":4063:4096   */\n      dup2\n        /* \"#utility.yul\":4105:4138   */\n      tag_756\n      jump\t// in\n    tag_789:\n        /* \"#utility.yul\":4157:4164   */\n      dup1\n        /* \"#utility.yul\":4147:4164   */\n      swap2\n      pop\n      pop\n        /* \"#utility.yul\":3319:4170   */\n      swap3\n      swap6\n      pop\n      swap3\n      swap6\n      pop\n      swap3\n      swap6\n      jump\t// out\n        /* \"#utility.yul\":4175:5095   */\n    tag_34:\n        /* \"#utility.yul\":4306:4312   */\n      0x00\n        /* \"#utility.yul\":4314:4320   */\n      dup1\n        /* \"#utility.yul\":4322:4328   */\n      0x00\n        /* \"#utility.yul\":4330:4336   */\n      dup1\n        /* \"#utility.yul\":4338:4344   */\n      0x00\n        /* \"#utility.yul\":4346:4352   */\n      dup1\n        /* \"#utility.yul\":4354:4360   */\n      0x00\n        /* \"#utility.yul\":4407:4410   */\n      0xc0\n        /* \"#utility.yul\":4395:4404   */\n      dup9\n        /* \"#utility.yul\":4386:4393   */\n      dup11\n        /* \"#utility.yul\":4382:4405   */\n      sub\n        /* \"#utility.yul\":4378:4411   */\n      slt\n        /* \"#utility.yul\":4375:4428   */\n      iszero\n      tag_791\n      jumpi\n        /* \"#utility.yul\":4424:4425   */\n      0x00\n        /* \"#utility.yul\":4421:4422   */\n      dup1\n        /* \"#utility.yul\":4414:4426   */\n      revert\n        /* \"#utility.yul\":4375:4428   */\n    tag_791:\n        /* \"#utility.yul\":4460:4469   */\n      dup8\n        /* \"#utility.yul\":4447:4470   */\n      calldataload\n        /* \"#utility.yul\":4437:4470   */\n      swap7\n      pop\n        /* \"#utility.yul\":4517:4519   */\n      0x20\n        /* \"#utility.yul\":4506:4515   */\n      dup9\n        /* \"#utility.yul\":4502:4520   */\n      add\n        /* \"#utility.yul\":4489:4521   */\n      calldataload\n        /* \"#utility.yul\":4479:4521   */\n      swap6\n      pop\n        /* \"#utility.yul\":4572:4574   */\n      0x40\n        /* \"#utility.yul\":4561:4570   */\n      dup9\n        /* \"#utility.yul\":4557:4575   */\n      add\n        /* \"#utility.yul\":4544:4576   */\n      calldataload\n        /* \"#utility.yul\":4599:4617   */\n      0xffffffffffffffff\n        /* \"#utility.yul\":4591:4597   */\n      dup2\n        /* \"#utility.yul\":4588:4618   */\n      gt\n        /* \"#utility.yul\":4585:4635   */\n      iszero\n      tag_792\n      jumpi\n        /* \"#utility.yul\":4631:4632   */\n      0x00\n        /* \"#utility.yul\":4628:4629   */\n      dup1\n        /* \"#utility.yul\":4621:4633   */\n      revert\n        /* \"#utility.yul\":4585:4635   */\n    tag_792:\n        /* \"#utility.yul\":4670:4740   */\n      tag_793\n        /* \"#utility.yul\":4732:4739   */\n      dup11\n        /* \"#utility.yul\":4723:4729   */\n      dup3\n        /* \"#utility.yul\":4712:4721   */\n      dup12\n        /* \"#utility.yul\":4708:4730   */\n      add\n        /* \"#utility.yul\":4670:4740   */\n      tag_745\n      jump\t// in\n    tag_793:\n        /* \"#utility.yul\":4759:4767   */\n      swap1\n      swap7\n      pop\n        /* \"#utility.yul\":4644:4740   */\n      swap5\n      pop\n      pop\n        /* \"#utility.yul\":4844:4846   */\n      0x60\n        /* \"#utility.yul\":4829:4847   */\n      dup9\n      add\n        /* \"#utility.yul\":4816:4848   */\n      calldataload\n        /* \"#utility.yul\":4857:4888   */\n      tag_794\n        /* \"#utility.yul\":4816:4848   */\n      dup2\n        /* \"#utility.yul\":4857:4888   */\n      tag_756\n      jump\t// in\n    tag_794:\n        /* \"#utility.yul\":4907:4912   */\n      swap3\n      pop\n        /* \"#utility.yul\":4959:4962   */\n      0x80\n        /* \"#utility.yul\":4944:4963   */\n      dup9\n      add\n        /* \"#utility.yul\":4931:4964   */\n      calldataload\n      swap2\n      pop\n        /* \"#utility.yul\":5016:5019   */\n      0xa0\n        /* \"#utility.yul\":5001:5020   */\n      dup9\n      add\n        /* \"#utility.yul\":4988:5021   */\n      calldataload\n        /* \"#utility.yul\":5030:5063   */\n      tag_795\n        /* \"#utility.yul\":4988:5021   */\n      dup2\n        /* \"#utility.yul\":5030:5063   */\n      tag_756\n      jump\t// in\n    tag_795:\n        /* \"#utility.yul\":5082:5089   */\n      dup1\n        /* \"#utility.yul\":5072:5089   */\n      swap2\n      pop\n      pop\n        /* \"#utility.yul\":4175:5095   */\n      swap3\n      swap6\n      swap9\n      swap2\n      swap5\n      swap8\n      pop\n      swap3\n      swap6\n      pop\n      jump\t// out\n        /* \"#utility.yul\":5100:5374   */\n    tag_617:\n        /* \"#utility.yul\":5229:5232   */\n      0x00\n        /* \"#utility.yul\":5267:5273   */\n      dup3\n        /* \"#utility.yul\":5261:5274   */\n      mload\n        /* \"#utility.yul\":5283:5336   */\n      tag_797\n        /* \"#utility.yul\":5329:5335   */\n      dup2\n        /* \"#utility.yul\":5324:5327   */\n      dup5\n        /* \"#utility.yul\":5317:5321   */\n      0x20\n        /* \"#utility.yul\":5309:5315   */\n      dup8\n        /* \"#utility.yul\":5305:5322   */\n      add\n        /* \"#utility.yul\":5283:5336   */\n      tag_798\n      jump\t// in\n    tag_797:\n        /* \"#utility.yul\":5352:5368   */\n      swap2\n      swap1\n      swap2\n      add\n      swap3\n        /* \"#utility.yul\":5100:5374   */\n      swap2\n      pop\n      pop\n      jump\t// out\n        /* \"#utility.yul\":6555:7187   */\n    tag_37:\n        /* \"#utility.yul\":6726:6728   */\n      0x20\n        /* \"#utility.yul\":6778:6799   */\n      dup1\n      dup3\n      mstore\n        /* \"#utility.yul\":6848:6861   */\n      dup3\n      mload\n        /* \"#utility.yul\":6751:6769   */\n      dup3\n      dup3\n      add\n        /* \"#utility.yul\":6870:6892   */\n      dup2\n      swap1\n      mstore\n        /* \"#utility.yul\":6697:6701   */\n      0x00\n      swap2\n        /* \"#utility.yul\":6726:6728   */\n      swap1\n        /* \"#utility.yul\":6949:6964   */\n      dup5\n      dup3\n      add\n      swap1\n        /* \"#utility.yul\":6923:6925   */\n      0x40\n        /* \"#utility.yul\":6908:6926   */\n      dup6\n      add\n      swap1\n        /* \"#utility.yul\":6697:6701   */\n      dup5\n        /* \"#utility.yul\":6992:7161   */\n    tag_804:\n        /* \"#utility.yul\":7006:7012   */\n      dup2\n        /* \"#utility.yul\":7003:7004   */\n      dup2\n        /* \"#utility.yul\":7000:7013   */\n      lt\n        /* \"#utility.yul\":6992:7161   */\n      iszero\n      tag_806\n      jumpi\n        /* \"#utility.yul\":7067:7080   */\n      dup4\n      mload\n        /* \"#utility.yul\":7055:7081   */\n      dup4\n      mstore\n        /* \"#utility.yul\":7136:7151   */\n      swap3\n      dup5\n      add\n      swap3\n        /* \"#utility.yul\":7101:7113   */\n      swap2\n      dup5\n      add\n      swap2\n        /* \"#utility.yul\":7028:7029   */\n      0x01\n        /* \"#utility.yul\":7021:7030   */\n      add\n        /* \"#utility.yul\":6992:7161   */\n      jump(tag_804)\n    tag_806:\n      pop\n        /* \"#utility.yul\":7178:7181   */\n      swap1\n      swap7\n        /* \"#utility.yul\":6555:7187   */\n      swap6\n      pop\n      pop\n      pop\n      pop\n      pop\n      pop\n      jump\t// out\n        /* \"#utility.yul\":7734:8133   */\n    tag_311:\n        /* \"#utility.yul\":7936:7938   */\n      0x20\n        /* \"#utility.yul\":7918:7939   */\n      dup1\n      dup3\n      mstore\n        /* \"#utility.yul\":7975:7977   */\n      0x23\n        /* \"#utility.yul\":7955:7973   */\n      swap1\n      dup3\n      add\n        /* \"#utility.yul\":7948:7978   */\n      mstore\n        /* \"#utility.yul\":8014:8048   */\n      0x4d4152535f526f757465723a204558434553534956455f494e5055545f414d4f\n        /* \"#utility.yul\":8009:8011   */\n      0x40\n        /* \"#utility.yul\":7994:8012   */\n      dup3\n      add\n        /* \"#utility.yul\":7987:8049   */\n      mstore\n      shl(0xea, 0x155395)\n        /* \"#utility.yul\":8080:8082   */\n      0x60\n        /* \"#utility.yul\":8065:8083   */\n      dup3\n      add\n        /* \"#utility.yul\":8058:8091   */\n      mstore\n        /* \"#utility.yul\":8123:8126   */\n      0x80\n        /* \"#utility.yul\":8108:8127   */\n      add\n      swap1\n        /* \"#utility.yul\":7734:8133   */\n      jump\t// out\n        /* \"#utility.yul\":8138:8489   */\n    tag_177:\n        /* \"#utility.yul\":8340:8342   */\n      0x20\n        /* \"#utility.yul\":8322:8343   */\n      dup1\n      dup3\n      mstore\n        /* \"#utility.yul\":8379:8381   */\n      0x1b\n        /* \"#utility.yul\":8359:8377   */\n      swap1\n      dup3\n      add\n        /* \"#utility.yul\":8352:8382   */\n      mstore\n        /* \"#utility.yul\":8418:8447   */\n      0x4d617253776170526f757465723a20494e56414c49445f504154480000000000\n        /* \"#utility.yul\":8413:8415   */\n      0x40\n        /* \"#utility.yul\":8398:8416   */\n      dup3\n      add\n        /* \"#utility.yul\":8391:8448   */\n      mstore\n        /* \"#utility.yul\":8480:8482   */\n      0x60\n        /* \"#utility.yul\":8465:8483   */\n      add\n      swap1\n        /* \"#utility.yul\":8138:8489   */\n      jump\t// out\n        /* \"#utility.yul\":9664:10069   */\n    tag_146:\n        /* \"#utility.yul\":9866:9868   */\n      0x20\n        /* \"#utility.yul\":9848:9869   */\n      dup1\n      dup3\n      mstore\n        /* \"#utility.yul\":9905:9907   */\n      0x29\n        /* \"#utility.yul\":9885:9903   */\n      swap1\n      dup3\n      add\n        /* \"#utility.yul\":9878:9908   */\n      mstore\n        /* \"#utility.yul\":9944:9978   */\n      0x4d617253776170526f757465723a20494e53554646494349454e545f4f555450\n        /* \"#utility.yul\":9939:9941   */\n      0x40\n        /* \"#utility.yul\":9924:9942   */\n      dup3\n      add\n        /* \"#utility.yul\":9917:9979   */\n      mstore\n      shl(0xba, 0x155517d05353d55395)\n        /* \"#utility.yul\":10010:10012   */\n      0x60\n        /* \"#utility.yul\":9995:10013   */\n      dup3\n      add\n        /* \"#utility.yul\":9988:10027   */\n      mstore\n        /* \"#utility.yul\":10059:10062   */\n      0x80\n        /* \"#utility.yul\":10044:10063   */\n      add\n      swap1\n        /* \"#utility.yul\":9664:10069   */\n      jump\t// out\n        /* \"#utility.yul\":10074:10420   */\n    tag_123:\n        /* \"#utility.yul\":10276:10278   */\n      0x20\n        /* \"#utility.yul\":10258:10279   */\n      dup1\n      dup3\n      mstore\n        /* \"#utility.yul\":10315:10317   */\n      0x16\n        /* \"#utility.yul\":10295:10313   */\n      swap1\n      dup3\n      add\n        /* \"#utility.yul\":10288:10318   */\n      mstore\n      shl(0x52, 0x13585c94ddd85c149bdd5d195c8e8811561412549151)\n        /* \"#utility.yul\":10349:10351   */\n      0x40\n        /* \"#utility.yul\":10334:10352   */\n      dup3\n      add\n        /* \"#utility.yul\":10327:10379   */\n      mstore\n        /* \"#utility.yul\":10411:10413   */\n      0x60\n        /* \"#utility.yul\":10396:10414   */\n      add\n      swap1\n        /* \"#utility.yul\":10074:10420   */\n      jump\t// out\n        /* \"#utility.yul\":10425:10781   */\n    tag_435:\n        /* \"#utility.yul\":10627:10629   */\n      0x20\n        /* \"#utility.yul\":10609:10630   */\n      dup1\n      dup3\n      mstore\n        /* \"#utility.yul\":10646:10664   */\n      dup2\n      dup2\n      add\n        /* \"#utility.yul\":10639:10669   */\n      mstore\n        /* \"#utility.yul\":10705:10739   */\n      0x4f776e61626c653a2063616c6c6572206973206e6f7420746865206f776e6572\n        /* \"#utility.yul\":10700:10702   */\n      0x40\n        /* \"#utility.yul\":10685:10703   */\n      dup3\n      add\n        /* \"#utility.yul\":10678:10740   */\n      mstore\n        /* \"#utility.yul\":10772:10774   */\n      0x60\n        /* \"#utility.yul\":10757:10775   */\n      add\n      swap1\n        /* \"#utility.yul\":10425:10781   */\n      jump\t// out\n        /* \"#utility.yul\":12181:12957   */\n    tag_133:\n        /* \"#utility.yul\":12421:12446   */\n      dup4\n      dup2\n      mstore\n        /* \"#utility.yul\":12409:12411   */\n      0x40\n        /* \"#utility.yul\":12465:12467   */\n      0x20\n        /* \"#utility.yul\":12483:12501   */\n      dup1\n      dup4\n      add\n        /* \"#utility.yul\":12476:12506   */\n      dup3\n      swap1\n      mstore\n        /* \"#utility.yul\":12394:12412   */\n      swap1\n      dup3\n      add\n        /* \"#utility.yul\":12541:12563   */\n      dup4\n      swap1\n      mstore\n        /* \"#utility.yul\":12361:12365   */\n      0x00\n      swap1\n        /* \"#utility.yul\":12620:12626   */\n      dup5\n      swap1\n        /* \"#utility.yul\":12594:12596   */\n      0x60\n        /* \"#utility.yul\":12579:12597   */\n      dup5\n      add\n        /* \"#utility.yul\":12361:12365   */\n      dup4\n        /* \"#utility.yul\":12654:12931   */\n    tag_822:\n        /* \"#utility.yul\":12668:12674   */\n      dup7\n        /* \"#utility.yul\":12665:12666   */\n      dup2\n        /* \"#utility.yul\":12662:12675   */\n      lt\n        /* \"#utility.yul\":12654:12931   */\n      iszero\n      tag_824\n      jumpi\n        /* \"#utility.yul\":12743:12749   */\n      dup4\n        /* \"#utility.yul\":12730:12750   */\n      calldataload\n        /* \"#utility.yul\":12763:12794   */\n      tag_825\n        /* \"#utility.yul\":12788:12793   */\n      dup2\n        /* \"#utility.yul\":12763:12794   */\n      tag_756\n      jump\t// in\n    tag_825:\n      sub(shl(0xa0, 0x01), 0x01)\n        /* \"#utility.yul\":12819:12850   */\n      and\n        /* \"#utility.yul\":12807:12851   */\n      dup3\n      mstore\n        /* \"#utility.yul\":12906:12921   */\n      swap3\n      dup3\n      add\n      swap3\n        /* \"#utility.yul\":12871:12883   */\n      swap1\n      dup3\n      add\n      swap1\n        /* \"#utility.yul\":12847:12848   */\n      0x01\n        /* \"#utility.yul\":12683:12692   */\n      add\n        /* \"#utility.yul\":12654:12931   */\n      jump(tag_822)\n    tag_824:\n      pop\n        /* \"#utility.yul\":12948:12951   */\n      swap8\n        /* \"#utility.yul\":12181:12957   */\n      swap7\n      pop\n      pop\n      pop\n      pop\n      pop\n      pop\n      pop\n      jump\t// out\n        /* \"#utility.yul\":12962:13586   */\n    tag_658:\n        /* \"#utility.yul\":13193:13199   */\n      dup5\n        /* \"#utility.yul\":13182:13191   */\n      dup2\n        /* \"#utility.yul\":13175:13200   */\n      mstore\n        /* \"#utility.yul\":13236:13242   */\n      dup4\n        /* \"#utility.yul\":13231:13233   */\n      0x20\n        /* \"#utility.yul\":13220:13229   */\n      dup3\n        /* \"#utility.yul\":13216:13234   */\n      add\n        /* \"#utility.yul\":13209:13243   */\n      mstore\n        /* \"#utility.yul\":13308:13309   */\n      0x01\n        /* \"#utility.yul\":13304:13305   */\n      dup1\n        /* \"#utility.yul\":13299:13302   */\n      0xa0\n        /* \"#utility.yul\":13295:13306   */\n      shl\n        /* \"#utility.yul\":13291:13310   */\n      sub\n        /* \"#utility.yul\":13283:13289   */\n      dup4\n        /* \"#utility.yul\":13279:13311   */\n      and\n        /* \"#utility.yul\":13274:13276   */\n      0x40\n        /* \"#utility.yul\":13263:13272   */\n      dup3\n        /* \"#utility.yul\":13259:13277   */\n      add\n        /* \"#utility.yul\":13252:13312   */\n      mstore\n        /* \"#utility.yul\":13348:13351   */\n      0x80\n        /* \"#utility.yul\":13343:13345   */\n      0x60\n        /* \"#utility.yul\":13332:13341   */\n      dup3\n        /* \"#utility.yul\":13328:13346   */\n      add\n        /* \"#utility.yul\":13321:13352   */\n      mstore\n        /* \"#utility.yul\":13156:13160   */\n      0x00\n        /* \"#utility.yul\":13381:13387   */\n      dup3\n        /* \"#utility.yul\":13375:13388   */\n      mload\n        /* \"#utility.yul\":13425:13431   */\n      dup1\n        /* \"#utility.yul\":13419:13422   */\n      0x80\n        /* \"#utility.yul\":13408:13417   */\n      dup5\n        /* \"#utility.yul\":13404:13423   */\n      add\n        /* \"#utility.yul\":13397:13432   */\n      mstore\n        /* \"#utility.yul\":13441:13508   */\n      tag_827\n        /* \"#utility.yul\":13501:13507   */\n      dup2\n        /* \"#utility.yul\":13495:13498   */\n      0xa0\n        /* \"#utility.yul\":13484:13493   */\n      dup6\n        /* \"#utility.yul\":13480:13499   */\n      add\n        /* \"#utility.yul\":13475:13477   */\n      0x20\n        /* \"#utility.yul\":13467:13473   */\n      dup8\n        /* \"#utility.yul\":13463:13478   */\n      add\n        /* \"#utility.yul\":13441:13508   */\n      tag_798\n      jump\t// in\n    tag_827:\n        /* \"#utility.yul\":13569:13571   */\n      0x1f\n        /* \"#utility.yul\":13548:13563   */\n      add\n      not(0x1f)\n        /* \"#utility.yul\":13544:13573   */\n      and\n        /* \"#utility.yul\":13529:13574   */\n      swap2\n      swap1\n      swap2\n      add\n        /* \"#utility.yul\":13576:13579   */\n      0xa0\n        /* \"#utility.yul\":13525:13580   */\n      add\n      swap6\n        /* \"#utility.yul\":12962:13586   */\n      swap5\n      pop\n      pop\n      pop\n      pop\n      pop\n      jump\t// out\n        /* \"#utility.yul\":13915:14043   */\n    tag_635:\n        /* \"#utility.yul\":13955:13958   */\n      0x00\n        /* \"#utility.yul\":13986:13987   */\n      dup3\n        /* \"#utility.yul\":13982:13988   */\n      not\n        /* \"#utility.yul\":13979:13980   */\n      dup3\n        /* \"#utility.yul\":13976:13989   */\n      gt\n        /* \"#utility.yul\":13973:14012   */\n      iszero\n      tag_831\n      jumpi\n        /* \"#utility.yul\":13992:14010   */\n      tag_831\n      tag_832\n      jump\t// in\n    tag_831:\n      pop\n        /* \"#utility.yul\":14028:14037   */\n      add\n      swap1\n        /* \"#utility.yul\":13915:14043   */\n      jump\t// out\n        /* \"#utility.yul\":14048:14216   */\n    tag_179:\n        /* \"#utility.yul\":14088:14095   */\n      0x00\n        /* \"#utility.yul\":14154:14155   */\n      dup2\n        /* \"#utility.yul\":14150:14151   */\n      0x00\n        /* \"#utility.yul\":14146:14152   */\n      not\n        /* \"#utility.yul\":14142:14156   */\n      div\n        /* \"#utility.yul\":14139:14140   */\n      dup4\n        /* \"#utility.yul\":14136:14157   */\n      gt\n        /* \"#utility.yul\":14131:14132   */\n      dup3\n        /* \"#utility.yul\":14124:14133   */\n      iszero\n        /* \"#utility.yul\":14117:14134   */\n      iszero\n        /* \"#utility.yul\":14113:14158   */\n      and\n        /* \"#utility.yul\":14110:14181   */\n      iszero\n      tag_835\n      jumpi\n        /* \"#utility.yul\":14161:14179   */\n      tag_835\n      tag_832\n      jump\t// in\n    tag_835:\n      pop\n        /* \"#utility.yul\":14201:14210   */\n      mul\n      swap1\n        /* \"#utility.yul\":14048:14216   */\n      jump\t// out\n        /* \"#utility.yul\":14221:14346   */\n    tag_140:\n        /* \"#utility.yul\":14261:14265   */\n      0x00\n        /* \"#utility.yul\":14289:14290   */\n      dup3\n        /* \"#utility.yul\":14286:14287   */\n      dup3\n        /* \"#utility.yul\":14283:14291   */\n      lt\n        /* \"#utility.yul\":14280:14314   */\n      iszero\n      tag_838\n      jumpi\n        /* \"#utility.yul\":14294:14312   */\n      tag_838\n      tag_832\n      jump\t// in\n    tag_838:\n      pop\n        /* \"#utility.yul\":14331:14340   */\n      sub\n      swap1\n        /* \"#utility.yul\":14221:14346   */\n      jump\t// out\n        /* \"#utility.yul\":14351:14609   */\n    tag_798:\n        /* \"#utility.yul\":14423:14424   */\n      0x00\n        /* \"#utility.yul\":14433:14546   */\n    tag_840:\n        /* \"#utility.yul\":14447:14453   */\n      dup4\n        /* \"#utility.yul\":14444:14445   */\n      dup2\n        /* \"#utility.yul\":14441:14454   */\n      lt\n        /* \"#utility.yul\":14433:14546   */\n      iszero\n      tag_842\n      jumpi\n        /* \"#utility.yul\":14523:14534   */\n      dup2\n      dup2\n      add\n        /* \"#utility.yul\":14517:14535   */\n      mload\n        /* \"#utility.yul\":14504:14515   */\n      dup4\n      dup3\n      add\n        /* \"#utility.yul\":14497:14536   */\n      mstore\n        /* \"#utility.yul\":14469:14471   */\n      0x20\n        /* \"#utility.yul\":14462:14472   */\n      add\n        /* \"#utility.yul\":14433:14546   */\n      jump(tag_840)\n    tag_842:\n        /* \"#utility.yul\":14564:14570   */\n      dup4\n        /* \"#utility.yul\":14561:14562   */\n      dup2\n        /* \"#utility.yul\":14558:14571   */\n      gt\n        /* \"#utility.yul\":14555:14603   */\n      iszero\n      tag_843\n      jumpi\n        /* \"#utility.yul\":14599:14600   */\n      0x00\n        /* \"#utility.yul\":14590:14596   */\n      dup5\n        /* \"#utility.yul\":14585:14588   */\n      dup5\n        /* \"#utility.yul\":14581:14597   */\n      add\n        /* \"#utility.yul\":14574:14601   */\n      mstore\n        /* \"#utility.yul\":14555:14603   */\n    tag_843:\n      pop\n        /* \"#utility.yul\":14351:14609   */\n      pop\n      pop\n      pop\n      jump\t// out\n        /* \"#utility.yul\":14614:14749   */\n    tag_663:\n        /* \"#utility.yul\":14653:14656   */\n      0x00\n      not(0x00)\n        /* \"#utility.yul\":14674:14691   */\n      dup3\n      eq\n        /* \"#utility.yul\":14671:14714   */\n      iszero\n      tag_846\n      jumpi\n        /* \"#utility.yul\":14694:14712   */\n      tag_846\n      tag_832\n      jump\t// in\n    tag_846:\n      pop\n        /* \"#utility.yul\":14741:14742   */\n      0x01\n        /* \"#utility.yul\":14730:14743   */\n      add\n      swap1\n        /* \"#utility.yul\":14614:14749   */\n      jump\t// out\n        /* \"#utility.yul\":14754:14881   */\n    tag_31:\n        /* \"#utility.yul\":14815:14825   */\n      0x4e487b71\n        /* \"#utility.yul\":14810:14813   */\n      0xe0\n        /* \"#utility.yul\":14806:14826   */\n      shl\n        /* \"#utility.yul\":14803:14804   */\n      0x00\n        /* \"#utility.yul\":14796:14827   */\n      mstore\n        /* \"#utility.yul\":14846:14850   */\n      0x01\n        /* \"#utility.yul\":14843:14844   */\n      0x04\n        /* \"#utility.yul\":14836:14851   */\n      mstore\n        /* \"#utility.yul\":14870:14874   */\n      0x24\n        /* \"#utility.yul\":14867:14868   */\n      0x00\n        /* \"#utility.yul\":14860:14875   */\n      revert\n        /* \"#utility.yul\":14886:15013   */\n    tag_832:\n        /* \"#utility.yul\":14947:14957   */\n      0x4e487b71\n        /* \"#utility.yul\":14942:14945   */\n      0xe0\n        /* \"#utility.yul\":14938:14958   */\n      shl\n        /* \"#utility.yul\":14935:14936   */\n      0x00\n        /* \"#utility.yul\":14928:14959   */\n      mstore\n        /* \"#utility.yul\":14978:14982   */\n      0x11\n        /* \"#utility.yul\":14975:14976   */\n      0x04\n        /* \"#utility.yul\":14968:14983   */\n      mstore\n        /* \"#utility.yul\":15002:15006   */\n      0x24\n        /* \"#utility.yul\":14999:15000   */\n      0x00\n        /* \"#utility.yul\":14992:15007   */\n      revert\n        /* \"#utility.yul\":15018:15145   */\n    tag_143:\n        /* \"#utility.yul\":15079:15089   */\n      0x4e487b71\n        /* \"#utility.yul\":15074:15077   */\n      0xe0\n        /* \"#utility.yul\":15070:15090   */\n      shl\n        /* \"#utility.yul\":15067:15068   */\n      0x00\n        /* \"#utility.yul\":15060:15091   */\n      mstore\n        /* \"#utility.yul\":15110:15114   */\n      0x32\n        /* \"#utility.yul\":15107:15108   */\n      0x04\n        /* \"#utility.yul\":15100:15115   */\n      mstore\n        /* \"#utility.yul\":15134:15138   */\n      0x24\n        /* \"#utility.yul\":15131:15132   */\n      0x00\n        /* \"#utility.yul\":15124:15139   */\n      revert\n        /* \"#utility.yul\":15150:15277   */\n    tag_655:\n        /* \"#utility.yul\":15211:15221   */\n      0x4e487b71\n        /* \"#utility.yul\":15206:15209   */\n      0xe0\n        /* \"#utility.yul\":15202:15222   */\n      shl\n        /* \"#utility.yul\":15199:15200   */\n      0x00\n        /* \"#utility.yul\":15192:15223   */\n      mstore\n        /* \"#utility.yul\":15242:15246   */\n      0x41\n        /* \"#utility.yul\":15239:15240   */\n      0x04\n        /* \"#utility.yul\":15232:15247   */\n      mstore\n        /* \"#utility.yul\":15266:15270   */\n      0x24\n        /* \"#utility.yul\":15263:15264   */\n      0x00\n        /* \"#utility.yul\":15256:15271   */\n      revert\n        /* \"#utility.yul\":15282:15413   */\n    tag_756:\n      sub(shl(0xa0, 0x01), 0x01)\n        /* \"#utility.yul\":15357:15388   */\n      dup2\n      and\n        /* \"#utility.yul\":15347:15389   */\n      dup2\n      eq\n        /* \"#utility.yul\":15337:15407   */\n      tag_552\n      jumpi\n        /* \"#utility.yul\":15403:15404   */\n      0x00\n        /* \"#utility.yul\":15400:15401   */\n      dup1\n        /* \"#utility.yul\":15393:15405   */\n      revert\n\n    auxdata: 0xa2646970667358221220142bc11ef1175c3469b3375ce6a6963533a46e705bada8690b0875036179b89e64736f6c63430008070033\n}\n",
				"bytecode": {
					"linkReferences": {},
					"object": "60a06040526000196001553480156200001757600080fd5b50604051620034c2380380620034c28339810160408190526200003a91620000d2565b600080546001600160a01b0319163390811782556040519091907f8be0079c531659141344cd1fd0a4f28419497f9722a3daafe3b4186f6b6457e0908290a360609290921b6001600160601b031916608052600280546001600160a01b0319166001600160a01b039290921691909117905560035562000113565b80516001600160a01b0381168114620000cd57600080fd5b919050565b600080600060608486031215620000e857600080fd5b620000f384620000b5565b92506200010360208501620000b5565b9150604084015190509250925092565b60805160601c613320620001a26000396000818161013e0152818161031c01528181610715015281816107f20152818161086601528181610bd301528181610dac01528181610f1a015281816110fb01528181611189015281816113b00152818161155a015281816115e8015281816117b70152818161190d015281816119c70152611b7a01526133206000f3fe60806040526004361061012e5760003560e01c80638da5cb5b116100ab578063b14f2a391161006f578063b14f2a391461033e578063cf8204611461035e578063d9eb594714610382578063e799ffb114610397578063f2fde38b146103ac578063f824f62e146103cc57600080fd5b80638da5cb5b146102a6578063962efddb146102c4578063a32166ee146102d7578063ac5cad56146102ea578063ad5c46481461030a57600080fd5b8063344933be116100f2578063344933be146102135780633d0e3ec51461022657806361d027b3146102395780636a1db1bf14610271578063715018a61461029157600080fd5b806305a1450d14610172578063088890dc1461019b5780632232ea43146101ae5780632f100e4a146101c15780632f54bf6e146101d457600080fd5b3661016d57336001600160a01b037f0000000000000000000000000000000000000000000000000000000000000000161461016b5761016b61327d565b005b600080fd5b610185610180366004612f2d565b6103df565b6040516101929190612fd0565b60405180910390f35b61016b6101a9366004612eb1565b61067d565b6101856101bc366004612f2d565b610b31565b6101856101cf366004612eb1565b610e80565b3480156101e057600080fd5b506102036101ef366004612d07565b6000546001600160a01b0391821691161490565b6040519015158152602001610192565b610185610221366004612eb1565b611316565b61016b610234366004612f2d565b611717565b34801561024557600080fd5b50600254610259906001600160a01b031681565b6040516001600160a01b039091168152602001610192565b34801561027d57600080fd5b5061016b61028c366004612e7f565b611a35565b34801561029d57600080fd5b5061016b611a64565b3480156102b257600080fd5b506000546001600160a01b0316610259565b6101856102d2366004612f2d565b611ad8565b6101856102e5366004612f2d565b611cee565b3480156102f657600080fd5b5061016b610305366004612d07565b611ec2565b34801561031657600080fd5b506102597f000000000000000000000000000000000000000000000000000000000000000081565b34801561034a57600080fd5b5061016b610359366004612d07565b611fef565b34801561036a57600080fd5b5061037460035481565b604051908152602001610192565b34801561038e57600080fd5b50600354610374565b3480156103a357600080fd5b5061016b61203b565b3480156103b857600080fd5b5061016b6103c7366004612d07565b612095565b61016b6103da366004612f2d565b6120c8565b6060824281101561040b5760405162461bcd60e51b8152600401610402906130d7565b60405180910390fd5b61044787878080602002602001604051908101604052809392919081815260200183836020028082843760009201919091525061230892505050565b506000836001600160a01b031663c45a01556040518163ffffffff1660e01b815260040160206040518083038186803b15801561048357600080fd5b505afa158015610497573d6000803e3d6000fd5b505050506040513d601f19601f820116820180604052508101906104bb9190612d2b565b60405163d06ca61f60e01b81529091506001600160a01b0385169063d06ca61f906104ee908d908c908c9060040161313c565b60006040518083038186803b15801561050657600080fd5b505afa15801561051a573d6000803e3d6000fd5b505050506040513d6000823e601f3d908101601f191682016040526105429190810190612d48565b9250888360018551610554919061321b565b81518110610564576105646132a9565b6020026020010151101561058a5760405162461bcd60e51b81526004016104029061308e565b61062f888860008181106105a0576105a06132a9565b90506020020160208101906105b59190612d07565b3361060f848c8c60008181106105cd576105cd6132a9565b90506020020160208101906105e29190612d07565b8d8d60018181106105f5576105f56132a9565b905060200201602081019061060a9190612d07565b612343565b86600081518110610622576106226132a9565b60200260200101516123d0565b610670838989808060200260200160405190810160405280939291908181526020018383602002808284376000920191909152508b92508691506125009050565b5050979650505050505050565b814281101561069e5760405162461bcd60e51b8152600401610402906130d7565b6000826001600160a01b031663c45a01556040518163ffffffff1660e01b815260040160206040518083038186803b1580156106d957600080fd5b505afa1580156106ed573d6000803e3d6000fd5b505050506040513d601f19601f820116820180604052508101906107119190612d2b565b90507f00000000000000000000000000000000000000000000000000000000000000006001600160a01b031687876000818110610750576107506132a9565b90506020020160208101906107659190612d07565b6001600160a01b03161461078b5760405162461bcd60e51b815260040161040290613057565b6000600354606461079c91906131fc565b34116107a857346107ee565b6107e488888080602002602001604051908101604052809392919081815260200183836020028082843760009201919091525061230892505050565b6107ee903461321b565b90507f00000000000000000000000000000000000000000000000000000000000000006001600160a01b031663d0e30db0826040518263ffffffff1660e01b81526004016000604051808303818588803b15801561084b57600080fd5b505af115801561085f573d6000803e3d6000fd5b50505050507f00000000000000000000000000000000000000000000000000000000000000006001600160a01b031663a9059cbb6108d2848b8b60008181106108aa576108aa6132a9565b90506020020160208101906108bf9190612d07565b8c8c60018181106105f5576105f56132a9565b6040516001600160e01b031960e084901b1681526001600160a01b03909116600482015260248101849052604401602060405180830381600087803b15801561091a57600080fd5b505af115801561092e573d6000803e3d6000fd5b505050506040513d601f19601f820116820180604052508101906109529190612e0d565b61095e5761095e61327d565b6000888861096d60018261321b565b81811061097c5761097c6132a9565b90506020020160208101906109919190612d07565b6040516370a0823160e01b81526001600160a01b03898116600483015291909116906370a082319060240160206040518083038186803b1580156109d457600080fd5b505afa1580156109e8573d6000803e3d6000fd5b505050506040513d601f19601f82011682018060405250810190610a0c9190612e98565b9050610a4f8989808060200260200160405190810160405280939291908181526020018383602002808284376000920191909152508b92508791508990506126c9565b89610b07828b8b610a6160018261321b565b818110610a7057610a706132a9565b9050602002016020810190610a859190612d07565b6040516370a0823160e01b81526001600160a01b038c8116600483015291909116906370a08231906024015b60206040518083038186803b158015610ac957600080fd5b505afa158015610add573d6000803e3d6000fd5b505050506040513d601f19601f82011682018060405250810190610b019190612e98565b90612814565b1015610b255760405162461bcd60e51b81526004016104029061308e565b50505050505050505050565b60608242811015610b545760405162461bcd60e51b8152600401610402906130d7565b6000836001600160a01b031663c45a01556040518163ffffffff1660e01b815260040160206040518083038186803b158015610b8f57600080fd5b505afa158015610ba3573d6000803e3d6000fd5b505050506040513d601f19601f82011682018060405250810190610bc79190612d2b565b90506001600160a01b037f0000000000000000000000000000000000000000000000000000000000000000168888610c0060018261321b565b818110610c0f57610c0f6132a9565b9050602002016020810190610c249190612d07565b6001600160a01b031614610c4a5760405162461bcd60e51b815260040161040290613057565b610c8688888080602002602001604051908101604052809392919081815260200183836020028082843760009201919091525061230892505050565b5060405163d06ca61f60e01b81526001600160a01b0385169063d06ca61f90610cb7908d908c908c9060040161313c565b60006040518083038186803b158015610ccf57600080fd5b505afa158015610ce3573d6000803e3d6000fd5b505050506040513d6000823e601f3d908101601f19168201604052610d0b9190810190612d48565b9250888360018551610d1d919061321b565b81518110610d2d57610d2d6132a9565b60200260200101511015610d535760405162461bcd60e51b81526004016104029061308e565b610d69888860008181106105a0576105a06132a9565b610daa838989808060200260200160405190810160405280939291908181526020018383602002808284376000920191909152503092508691506125009050565b7f00000000000000000000000000000000000000000000000000000000000000006001600160a01b0316632e1a7d4d8460018651610de8919061321b565b81518110610df857610df86132a9565b60200260200101516040518263ffffffff1660e01b8152600401610e1e91815260200190565b600060405180830381600087803b158015610e3857600080fd5b505af1158015610e4c573d6000803e3d6000fd5b50505050610670868460018651610e63919061321b565b81518110610e7357610e736132a9565b6020026020010151612870565b60608242811015610ea35760405162461bcd60e51b8152600401610402906130d7565b6000836001600160a01b031663c45a01556040518163ffffffff1660e01b815260040160206040518083038186803b158015610ede57600080fd5b505afa158015610ef2573d6000803e3d6000fd5b505050506040513d601f19601f82011682018060405250810190610f169190612d2b565b90507f00000000000000000000000000000000000000000000000000000000000000006001600160a01b031688886000818110610f5557610f556132a9565b9050602002016020810190610f6a9190612d07565b6001600160a01b031614610f905760405162461bcd60e51b815260040161040290613057565b6040516307c0329d60e21b81526001600160a01b03851690631f00ca7490610fc0908c908c908c9060040161313c565b60006040518083038186803b158015610fd857600080fd5b505afa158015610fec573d6000803e3d6000fd5b505050506040513d6000823e601f3d908101601f191682016040526110149190810190612d48565b92506000600354606461102791906131fc565b3411611034576000611070565b61107089898080602002602001604051908101604052809392919081815260200183836020028082843760009201919091525061230892505050565b90508084600081518110611086576110866132a9565b6020026020010151611098919061321b565b846000815181106110ab576110ab6132a9565b60209081029190910101526110c0813461321b565b846000815181106110d3576110d36132a9565b602002602001015111156110f95760405162461bcd60e51b815260040161040290613014565b7f00000000000000000000000000000000000000000000000000000000000000006001600160a01b031663d0e30db08560008151811061113b5761113b6132a9565b60200260200101516040518263ffffffff1660e01b81526004016000604051808303818588803b15801561116e57600080fd5b505af1158015611182573d6000803e3d6000fd5b50505050507f00000000000000000000000000000000000000000000000000000000000000006001600160a01b031663a9059cbb6111cd848c8c60008181106105cd576105cd6132a9565b866000815181106111e0576111e06132a9565b60200260200101516040518363ffffffff1660e01b81526004016112199291906001600160a01b03929092168252602082015260400190565b602060405180830381600087803b15801561123357600080fd5b505af1158015611247573d6000803e3d6000fd5b505050506040513d601f19601f8201168201806040525081019061126b9190612e0d565b6112775761127761327d565b6112b8848a8a808060200260200160405190810160405280939291908181526020018383602002808284376000920191909152508c92508791506125009050565b836000815181106112cb576112cb6132a9565b60200260200101513411156113095761130933856000815181106112f1576112f16132a9565b602002602001015134611304919061321b565b612870565b5050509695505050505050565b606082428110156113395760405162461bcd60e51b8152600401610402906130d7565b6000836001600160a01b031663c45a01556040518163ffffffff1660e01b815260040160206040518083038186803b15801561137457600080fd5b505afa158015611388573d6000803e3d6000fd5b505050506040513d601f19601f820116820180604052508101906113ac9190612d2b565b90507f00000000000000000000000000000000000000000000000000000000000000006001600160a01b0316888860008181106113eb576113eb6132a9565b90506020020160208101906114009190612d07565b6001600160a01b0316146114265760405162461bcd60e51b815260040161040290613057565b6000600354606461143791906131fc565b34116114435734611489565b61147f89898080602002602001604051908101604052809392919081815260200183836020028082843760009201919091525061230892505050565b611489903461321b565b60405163d06ca61f60e01b81529091506001600160a01b0386169063d06ca61f906114bc9084908d908d9060040161313c565b60006040518083038186803b1580156114d457600080fd5b505afa1580156114e8573d6000803e3d6000fd5b505050506040513d6000823e601f3d908101601f191682016040526115109190810190612d48565b9350898460018651611522919061321b565b81518110611532576115326132a9565b602002602001015110156115585760405162461bcd60e51b81526004016104029061308e565b7f00000000000000000000000000000000000000000000000000000000000000006001600160a01b031663d0e30db08560008151811061159a5761159a6132a9565b60200260200101516040518263ffffffff1660e01b81526004016000604051808303818588803b1580156115cd57600080fd5b505af11580156115e1573d6000803e3d6000fd5b50505050507f00000000000000000000000000000000000000000000000000000000000000006001600160a01b031663a9059cbb61162c848c8c60008181106105cd576105cd6132a9565b8660008151811061163f5761163f6132a9565b60200260200101516040518363ffffffff1660e01b81526004016116789291906001600160a01b03929092168252602082015260400190565b602060405180830381600087803b15801561169257600080fd5b505af11580156116a6573d6000803e3d6000fd5b505050506040513d601f19601f820116820180604052508101906116ca9190612e0d565b6116d6576116d661327d565b611309848a8a808060200260200160405190810160405280939291908181526020018383602002808284376000920191909152508c92508791506125009050565b81428110156117385760405162461bcd60e51b8152600401610402906130d7565b6000826001600160a01b031663c45a01556040518163ffffffff1660e01b815260040160206040518083038186803b15801561177357600080fd5b505afa158015611787573d6000803e3d6000fd5b505050506040513d601f19601f820116820180604052508101906117ab9190612d2b565b90506001600160a01b037f00000000000000000000000000000000000000000000000000000000000000001687876117e460018261321b565b8181106117f3576117f36132a9565b90506020020160208101906118089190612d07565b6001600160a01b03161461182e5760405162461bcd60e51b815260040161040290613057565b61186a87878080602002602001604051908101604052809392919081815260200183836020028082843760009201919091525061230892505050565b506118b487876000818110611881576118816132a9565b90506020020160208101906118969190612d07565b336118ae848b8b60008181106108aa576108aa6132a9565b8c6123d0565b6118f58787808060200260200160405190810160405280939291908181526020018383602002808284376000920191909152503092508591508790506126c9565b6040516370a0823160e01b81523060048201526000907f00000000000000000000000000000000000000000000000000000000000000006001600160a01b0316906370a082319060240160206040518083038186803b15801561195757600080fd5b505afa15801561196b573d6000803e3d6000fd5b505050506040513d601f19601f8201168201806040525081019061198f9190612e98565b9050888110156119b15760405162461bcd60e51b81526004016104029061308e565b604051632e1a7d4d60e01b8152600481018290527f00000000000000000000000000000000000000000000000000000000000000006001600160a01b031690632e1a7d4d90602401600060405180830381600087803b158015611a1357600080fd5b505af1158015611a27573d6000803e3d6000fd5b50505050610b258682612870565b6000546001600160a01b03163314611a5f5760405162461bcd60e51b815260040161040290613107565b600355565b6000546001600160a01b03163314611a8e5760405162461bcd60e51b815260040161040290613107565b600080546040516001600160a01b03909116907f8be0079c531659141344cd1fd0a4f28419497f9722a3daafe3b4186f6b6457e0908390a3600080546001600160a01b0319169055565b60608242811015611afb5760405162461bcd60e51b8152600401610402906130d7565b6000836001600160a01b031663c45a01556040518163ffffffff1660e01b815260040160206040518083038186803b158015611b3657600080fd5b505afa158015611b4a573d6000803e3d6000fd5b505050506040513d601f19601f82011682018060405250810190611b6e9190612d2b565b90506001600160a01b037f0000000000000000000000000000000000000000000000000000000000000000168888611ba760018261321b565b818110611bb657611bb66132a9565b9050602002016020810190611bcb9190612d07565b6001600160a01b031614611bf15760405162461bcd60e51b815260040161040290613057565b6040516307c0329d60e21b81526001600160a01b03851690631f00ca7490611c21908d908c908c9060040161313c565b60006040518083038186803b158015611c3957600080fd5b505afa158015611c4d573d6000803e3d6000fd5b505050506040513d6000823e601f3d908101601f19168201604052611c759190810190612d48565b9250611cb388888080602002602001604051908101604052809392919081815260200183836020028082843760009201919091525061230892505050565b508883600081518110611cc857611cc86132a9565b60200260200101511115610d535760405162461bcd60e51b815260040161040290613014565b60608242811015611d115760405162461bcd60e51b8152600401610402906130d7565b611d4d87878080602002602001604051908101604052809392919081815260200183836020028082843760009201919091525061230892505050565b506000836001600160a01b031663c45a01556040518163ffffffff1660e01b815260040160206040518083038186803b158015611d8957600080fd5b505afa158015611d9d573d6000803e3d6000fd5b505050506040513d601f19601f82011682018060405250810190611dc19190612d2b565b6040516307c0329d60e21b81529091506001600160a01b03851690631f00ca7490611df4908d908c908c9060040161313c565b60006040518083038186803b158015611e0c57600080fd5b505afa158015611e20573d6000803e3d6000fd5b505050506040513d6000823e601f3d908101601f19168201604052611e489190810190612d48565b92508883600081518110611e5e57611e5e6132a9565b6020026020010151111561058a5760405162461bcd60e51b815260206004820152602560248201527f4d617253776170526f757465723a204558434553534956455f494e5055545f416044820152641353d5539560da1b6064820152608401610402565b6000546001600160a01b03163314611eec5760405162461bcd60e51b815260040161040290613107565b6040516370a0823160e01b81523060048201526001600160a01b0382169063a9059cbb90339083906370a082319060240160206040518083038186803b158015611f3557600080fd5b505afa158015611f49573d6000803e3d6000fd5b505050506040513d601f19601f82011682018060405250810190611f6d9190612e98565b6040516001600160e01b031960e085901b1681526001600160a01b0390921660048301526024820152604401602060405180830381600087803b158015611fb357600080fd5b505af1158015611fc7573d6000803e3d6000fd5b505050506040513d601f19601f82011682018060405250810190611feb9190612e0d565b5050565b6000546001600160a01b031633146120195760405162461bcd60e51b815260040161040290613107565b600280546001600160a01b0319166001600160a01b0392909216919091179055565b6000546001600160a01b031633146120655760405162461bcd60e51b815260040161040290613107565b6040513390303180156108fc02916000818181858888f19350505050158015612092573d6000803e3d6000fd5b50565b6000546001600160a01b031633146120bf5760405162461bcd60e51b815260040161040290613107565b6120928161293e565b81428110156120e95760405162461bcd60e51b8152600401610402906130d7565b61212586868080602002602001604051908101604052809392919081815260200183836020028082843760009201919091525061230892505050565b506000826001600160a01b031663c45a01556040518163ffffffff1660e01b815260040160206040518083038186803b15801561216157600080fd5b505afa158015612175573d6000803e3d6000fd5b505050506040513d601f19601f820116820180604052508101906121999190612d2b565b90506121b187876000818110611881576118816132a9565b600087876121c060018261321b565b8181106121cf576121cf6132a9565b90506020020160208101906121e49190612d07565b6040516370a0823160e01b81526001600160a01b03888116600483015291909116906370a082319060240160206040518083038186803b15801561222757600080fd5b505afa15801561223b573d6000803e3d6000fd5b505050506040513d601f19601f8201168201806040525081019061225f9190612e98565b90506122a28888808060200260200160405190810160405280939291908181526020018383602002808284376000920191909152508a92508691508890506126c9565b88610b07828a8a6122b460018261321b565b8181106122c3576122c36132a9565b90506020020160208101906122d89190612d07565b6040516370a0823160e01b81526001600160a01b038b8116600483015291909116906370a0823190602401610ab1565b600060018251612318919061321b565b60035461232591906131fc565b60025490915061233e906001600160a01b031682612870565b919050565b60405163e6a4390560e01b81526001600160a01b03838116600483015282811660248301526000919085169063e6a439059060440160206040518083038186803b15801561239057600080fd5b505afa1580156123a4573d6000803e3d6000fd5b505050506040513d601f19601f820116820180604052508101906123c89190612d2b565b949350505050565b604080516001600160a01b0385811660248301528481166044830152606480830185905283518084039091018152608490920183526020820180516001600160e01b03166323b872dd60e01b17905291516000928392908816916124349190612fb4565b6000604051808303816000865af19150503d8060008114612471576040519150601f19603f3d011682016040523d82523d6000602084013e612476565b606091505b50915091508180156124a05750805115806124a05750808060200190518101906124a09190612e0d565b6124f85760405162461bcd60e51b8152602060048201526024808201527f5472616e7366657248656c7065723a205452414e534645525f46524f4d5f46416044820152631253115160e21b6064820152608401610402565b505050505050565b60005b60018451612511919061321b565b8110156126c25760008085838151811061252d5761252d6132a9565b60200260200101518684600161254391906131e4565b81518110612553576125536132a9565b602002602001015191509150600061256b83836129fe565b50905060008861257c8660016131e4565b8151811061258c5761258c6132a9565b60200260200101519050600080836001600160a01b0316866001600160a01b0316146125ba578260006125be565b6000835b91509150600060028b516125d2919061321b565b88106125de578961260c565b61260c89878d6125ef8c60026131e4565b815181106125ff576125ff6132a9565b6020026020010151612343565b9050612619898888612343565b6001600160a01b031663022c0d9f84848460006040519080825280601f01601f191660200182016040528015612656576020820181803683370190505b506040518563ffffffff1660e01b81526004016126769493929190613194565b600060405180830381600087803b15801561269057600080fd5b505af11580156126a4573d6000803e3d6000fd5b505050505050505050505080806126ba90613262565b915050612503565b5050505050565b60005b600185516126da919061321b565b8110156126c2576000808683815181106126f6576126f66132a9565b60200260200101518784600161270c91906131e4565b8151811061271c5761271c6132a9565b602002602001015191509150600061273483836129fe565b5090506000612744878585612343565b90506000806127558387868b612af4565b91509150600060028c51612769919061321b565b8810612775578a612786565b6127868a878e6125ef8c60026131e4565b6040805160008152602081019182905263022c0d9f60e01b9091529091506001600160a01b0385169063022c0d9f906127c89086908690869060248101613194565b600060405180830381600087803b1580156127e257600080fd5b505af11580156127f6573d6000803e3d6000fd5b5050505050505050505050808061280c90613262565b9150506126cc565b600082612821838261321b565b915081111561286a5760405162461bcd60e51b815260206004820152601560248201527464732d6d6174682d7375622d756e646572666c6f7760581b6044820152606401610402565b92915050565b604080516000808252602082019092526001600160a01b03841690839060405161289a9190612fb4565b60006040518083038185875af1925050503d80600081146128d7576040519150601f19603f3d011682016040523d82523d6000602084013e6128dc565b606091505b50509050806129395760405162461bcd60e51b815260206004820152602360248201527f5472616e7366657248656c7065723a204554485f5452414e534645525f46414960448201526213115160ea1b6064820152608401610402565b505050565b6001600160a01b0381166129a35760405162461bcd60e51b815260206004820152602660248201527f4f776e61626c653a206e6577206f776e657220697320746865207a65726f206160448201526564647265737360d01b6064820152608401610402565b600080546040516001600160a01b03808516939216917f8be0079c531659141344cd1fd0a4f28419497f9722a3daafe3b4186f6b6457e091a3600080546001600160a01b0319166001600160a01b0392909216919091179055565b600080826001600160a01b0316846001600160a01b03161415612a6f5760405162461bcd60e51b815260206004820152602360248201527f4d6172537761704c6962726172793a204944454e544943414c5f41444452455360448201526253455360e81b6064820152608401610402565b826001600160a01b0316846001600160a01b031610612a8f578284612a92565b83835b90925090506001600160a01b038216612aed5760405162461bcd60e51b815260206004820152601c60248201527f4d6172537761704c6962726172793a205a45524f5f41444452455353000000006044820152606401610402565b9250929050565b600080600080876001600160a01b0316630902f1ac6040518163ffffffff1660e01b815260040160606040518083038186803b158015612b3357600080fd5b505afa158015612b47573d6000803e3d6000fd5b505050506040513d601f19601f82011682018060405250810190612b6b9190612e2f565b506001600160701b031691506001600160701b03169150600080876001600160a01b0316896001600160a01b031614612ba5578284612ba8565b83835b6040516370a0823160e01b81526001600160a01b038d81166004830152929450909250600091612be59185918d16906370a0823190602401610ab1565b604051630153543560e21b81526004810182905260248101859052604481018490529091506000906001600160a01b038a169063054d50d49060640160206040518083038186803b158015612c3957600080fd5b505afa158015612c4d573d6000803e3d6000fd5b505050506040513d601f19601f82011682018060405250810190612c719190612e98565b9050896001600160a01b03168b6001600160a01b031614612c9457806000612c98565b6000815b909d909c509a5050505050505050505050565b60008083601f840112612cbd57600080fd5b50813567ffffffffffffffff811115612cd557600080fd5b6020830191508360208260051b8501011115612aed57600080fd5b80516001600160701b038116811461233e57600080fd5b600060208284031215612d1957600080fd5b8135612d24816132d5565b9392505050565b600060208284031215612d3d57600080fd5b8151612d24816132d5565b60006020808385031215612d5b57600080fd5b825167ffffffffffffffff80821115612d7357600080fd5b818501915085601f830112612d8757600080fd5b815181811115612d9957612d996132bf565b8060051b604051601f19603f83011681018181108582111715612dbe57612dbe6132bf565b604052828152858101935084860182860187018a1015612ddd57600080fd5b600095505b83861015612e00578051855260019590950194938601938601612de2565b5098975050505050505050565b600060208284031215612e1f57600080fd5b81518015158114612d2457600080fd5b600080600060608486031215612e4457600080fd5b612e4d84612cf0565b9250612e5b60208501612cf0565b9150604084015163ffffffff81168114612e7457600080fd5b809150509250925092565b600060208284031215612e9157600080fd5b5035919050565b600060208284031215612eaa57600080fd5b5051919050565b60008060008060008060a08789031215612eca57600080fd5b86359550602087013567ffffffffffffffff811115612ee857600080fd5b612ef489828a01612cab565b9096509450506040870135612f08816132d5565b9250606087013591506080870135612f1f816132d5565b809150509295509295509295565b600080600080600080600060c0888a031215612f4857600080fd5b8735965060208801359550604088013567ffffffffffffffff811115612f6d57600080fd5b612f798a828b01612cab565b9096509450506060880135612f8d816132d5565b92506080880135915060a0880135612fa4816132d5565b8091505092959891949750929550565b60008251612fc6818460208701613232565b9190910192915050565b6020808252825182820181905260009190848201906040850190845b8181101561300857835183529284019291840191600101612fec565b50909695505050505050565b60208082526023908201527f4d4152535f526f757465723a204558434553534956455f494e5055545f414d4f60408201526215539560ea1b606082015260800190565b6020808252601b908201527f4d617253776170526f757465723a20494e56414c49445f504154480000000000604082015260600190565b60208082526029908201527f4d617253776170526f757465723a20494e53554646494349454e545f4f555450604082015268155517d05353d5539560ba1b606082015260800190565b60208082526016908201527513585c94ddd85c149bdd5d195c8e881156141254915160521b604082015260600190565b6020808252818101527f4f776e61626c653a2063616c6c6572206973206e6f7420746865206f776e6572604082015260600190565b83815260406020808301829052908201839052600090849060608401835b8681101561318857833561316d816132d5565b6001600160a01b03168252928201929082019060010161315a565b50979650505050505050565b84815283602082015260018060a01b038316604082015260806060820152600082518060808401526131cd8160a0850160208701613232565b601f01601f19169190910160a00195945050505050565b600082198211156131f7576131f7613293565b500190565b600081600019048311821515161561321657613216613293565b500290565b60008282101561322d5761322d613293565b500390565b60005b8381101561324d578181015183820152602001613235565b8381111561325c576000848401525b50505050565b600060001982141561327657613276613293565b5060010190565b634e487b7160e01b600052600160045260246000fd5b634e487b7160e01b600052601160045260246000fd5b634e487b7160e01b600052603260045260246000fd5b634e487b7160e01b600052604160045260246000fd5b6001600160a01b038116811461209257600080fdfea2646970667358221220142bc11ef1175c3469b3375ce6a6963533a46e705bada8690b0875036179b89e64736f6c63430008070033",
					"opcodes": "PUSH1 0xA0 PUSH1 0x40 MSTORE PUSH1 0x0 NOT PUSH1 0x1 SSTORE CALLVALUE DUP1 ISZERO PUSH3 0x17 JUMPI PUSH1 0x0 DUP1 REVERT JUMPDEST POP PUSH1 0x40 MLOAD PUSH3 0x34C2 CODESIZE SUB DUP1 PUSH3 0x34C2 DUP4 CODECOPY DUP2 ADD PUSH1 0x40 DUP2 SWAP1 MSTORE PUSH3 0x3A SWAP2 PUSH3 0xD2 JUMP JUMPDEST PUSH1 0x0 DUP1 SLOAD PUSH1 0x1 PUSH1 0x1 PUSH1 0xA0 SHL SUB NOT AND CALLER SWAP1 DUP2 OR DUP3 SSTORE PUSH1 0x40 MLOAD SWAP1 SWAP2 SWAP1 PUSH32 0x8BE0079C531659141344CD1FD0A4F28419497F9722A3DAAFE3B4186F6B6457E0 SWAP1 DUP3 SWAP1 LOG3 PUSH1 0x60 SWAP3 SWAP1 SWAP3 SHL PUSH1 0x1 PUSH1 0x1 PUSH1 0x60 SHL SUB NOT AND PUSH1 0x80 MSTORE PUSH1 0x2 DUP1 SLOAD PUSH1 0x1 PUSH1 0x1 PUSH1 0xA0 SHL SUB NOT AND PUSH1 0x1 PUSH1 0x1 PUSH1 0xA0 SHL SUB SWAP3 SWAP1 SWAP3 AND SWAP2 SWAP1 SWAP2 OR SWAP1 SSTORE PUSH1 0x3 SSTORE PUSH3 0x113 JUMP JUMPDEST DUP1 MLOAD PUSH1 0x1 PUSH1 0x1 PUSH1 0xA0 SHL SUB DUP2 AND DUP2 EQ PUSH3 0xCD JUMPI PUSH1 0x0 DUP1 REVERT JUMPDEST SWAP2 SWAP1 POP JUMP JUMPDEST PUSH1 0x0 DUP1 PUSH1 0x0 PUSH1 0x60 DUP5 DUP7 SUB SLT ISZERO PUSH3 0xE8 JUMPI PUSH1 0x0 DUP1 REVERT JUMPDEST PUSH3 0xF3 DUP5 PUSH3 0xB5 JUMP JUMPDEST SWAP3 POP PUSH3 0x103 PUSH1 0x20 DUP6 ADD PUSH3 0xB5 JUMP JUMPDEST SWAP2 POP PUSH1 0x40 DUP5 ADD MLOAD SWAP1 POP SWAP3 POP SWAP3 POP SWAP3 JUMP JUMPDEST PUSH1 0x80 MLOAD PUSH1 0x60 SHR PUSH2 0x3320 PUSH3 0x1A2 PUSH1 0x0 CODECOPY PUSH1 0x0 DUP2 DUP2 PUSH2 0x13E ADD MSTORE DUP2 DUP2 PUSH2 0x31C ADD MSTORE DUP2 DUP2 PUSH2 0x715 ADD MSTORE DUP2 DUP2 PUSH2 0x7F2 ADD MSTORE DUP2 DUP2 PUSH2 0x866 ADD MSTORE DUP2 DUP2 PUSH2 0xBD3 ADD MSTORE DUP2 DUP2 PUSH2 0xDAC ADD MSTORE DUP2 DUP2 PUSH2 0xF1A ADD MSTORE DUP2 DUP2 PUSH2 0x10FB ADD MSTORE DUP2 DUP2 PUSH2 0x1189 ADD MSTORE DUP2 DUP2 PUSH2 0x13B0 ADD MSTORE DUP2 DUP2 PUSH2 0x155A ADD MSTORE DUP2 DUP2 PUSH2 0x15E8 ADD MSTORE DUP2 DUP2 PUSH2 0x17B7 ADD MSTORE DUP2 DUP2 PUSH2 0x190D ADD MSTORE DUP2 DUP2 PUSH2 0x19C7 ADD MSTORE PUSH2 0x1B7A ADD MSTORE PUSH2 0x3320 PUSH1 0x0 RETURN INVALID PUSH1 0x80 PUSH1 0x40 MSTORE PUSH1 0x4 CALLDATASIZE LT PUSH2 0x12E JUMPI PUSH1 0x0 CALLDATALOAD PUSH1 0xE0 SHR DUP1 PUSH4 0x8DA5CB5B GT PUSH2 0xAB JUMPI DUP1 PUSH4 0xB14F2A39 GT PUSH2 0x6F JUMPI DUP1 PUSH4 0xB14F2A39 EQ PUSH2 0x33E JUMPI DUP1 PUSH4 0xCF820461 EQ PUSH2 0x35E JUMPI DUP1 PUSH4 0xD9EB5947 EQ PUSH2 0x382 JUMPI DUP1 PUSH4 0xE799FFB1 EQ PUSH2 0x397 JUMPI DUP1 PUSH4 0xF2FDE38B EQ PUSH2 0x3AC JUMPI DUP1 PUSH4 0xF824F62E EQ PUSH2 0x3CC JUMPI PUSH1 0x0 DUP1 REVERT JUMPDEST DUP1 PUSH4 0x8DA5CB5B EQ PUSH2 0x2A6 JUMPI DUP1 PUSH4 0x962EFDDB EQ PUSH2 0x2C4 JUMPI DUP1 PUSH4 0xA32166EE EQ PUSH2 0x2D7 JUMPI DUP1 PUSH4 0xAC5CAD56 EQ PUSH2 0x2EA JUMPI DUP1 PUSH4 0xAD5C4648 EQ PUSH2 0x30A JUMPI PUSH1 0x0 DUP1 REVERT JUMPDEST DUP1 PUSH4 0x344933BE GT PUSH2 0xF2 JUMPI DUP1 PUSH4 0x344933BE EQ PUSH2 0x213 JUMPI DUP1 PUSH4 0x3D0E3EC5 EQ PUSH2 0x226 JUMPI DUP1 PUSH4 0x61D027B3 EQ PUSH2 0x239 JUMPI DUP1 PUSH4 0x6A1DB1BF EQ PUSH2 0x271 JUMPI DUP1 PUSH4 0x715018A6 EQ PUSH2 0x291 JUMPI PUSH1 0x0 DUP1 REVERT JUMPDEST DUP1 PUSH4 0x5A1450D EQ PUSH2 0x172 JUMPI DUP1 PUSH4 0x88890DC EQ PUSH2 0x19B JUMPI DUP1 PUSH4 0x2232EA43 EQ PUSH2 0x1AE JUMPI DUP1 PUSH4 0x2F100E4A EQ PUSH2 0x1C1 JUMPI DUP1 PUSH4 0x2F54BF6E EQ PUSH2 0x1D4 JUMPI PUSH1 0x0 DUP1 REVERT JUMPDEST CALLDATASIZE PUSH2 0x16D JUMPI CALLER PUSH1 0x1 PUSH1 0x1 PUSH1 0xA0 SHL SUB PUSH32 0x0 AND EQ PUSH2 0x16B JUMPI PUSH2 0x16B PUSH2 0x327D JUMP JUMPDEST STOP JUMPDEST PUSH1 0x0 DUP1 REVERT JUMPDEST PUSH2 0x185 PUSH2 0x180 CALLDATASIZE PUSH1 0x4 PUSH2 0x2F2D JUMP JUMPDEST PUSH2 0x3DF JUMP JUMPDEST PUSH1 0x40 MLOAD PUSH2 0x192 SWAP2 SWAP1 PUSH2 0x2FD0 JUMP JUMPDEST PUSH1 0x40 MLOAD DUP1 SWAP2 SUB SWAP1 RETURN JUMPDEST PUSH2 0x16B PUSH2 0x1A9 CALLDATASIZE PUSH1 0x4 PUSH2 0x2EB1 JUMP JUMPDEST PUSH2 0x67D JUMP JUMPDEST PUSH2 0x185 PUSH2 0x1BC CALLDATASIZE PUSH1 0x4 PUSH2 0x2F2D JUMP JUMPDEST PUSH2 0xB31 JUMP JUMPDEST PUSH2 0x185 PUSH2 0x1CF CALLDATASIZE PUSH1 0x4 PUSH2 0x2EB1 JUMP JUMPDEST PUSH2 0xE80 JUMP JUMPDEST CALLVALUE DUP1 ISZERO PUSH2 0x1E0 JUMPI PUSH1 0x0 DUP1 REVERT JUMPDEST POP PUSH2 0x203 PUSH2 0x1EF CALLDATASIZE PUSH1 0x4 PUSH2 0x2D07 JUMP JUMPDEST PUSH1 0x0 SLOAD PUSH1 0x1 PUSH1 0x1 PUSH1 0xA0 SHL SUB SWAP2 DUP3 AND SWAP2 AND EQ SWAP1 JUMP JUMPDEST PUSH1 0x40 MLOAD SWAP1 ISZERO ISZERO DUP2 MSTORE PUSH1 0x20 ADD PUSH2 0x192 JUMP JUMPDEST PUSH2 0x185 PUSH2 0x221 CALLDATASIZE PUSH1 0x4 PUSH2 0x2EB1 JUMP JUMPDEST PUSH2 0x1316 JUMP JUMPDEST PUSH2 0x16B PUSH2 0x234 CALLDATASIZE PUSH1 0x4 PUSH2 0x2F2D JUMP JUMPDEST PUSH2 0x1717 JUMP JUMPDEST CALLVALUE DUP1 ISZERO PUSH2 0x245 JUMPI PUSH1 0x0 DUP1 REVERT JUMPDEST POP PUSH1 0x2 SLOAD PUSH2 0x259 SWAP1 PUSH1 0x1 PUSH1 0x1 PUSH1 0xA0 SHL SUB AND DUP2 JUMP JUMPDEST PUSH1 0x40 MLOAD PUSH1 0x1 PUSH1 0x1 PUSH1 0xA0 SHL SUB SWAP1 SWAP2 AND DUP2 MSTORE PUSH1 0x20 ADD PUSH2 0x192 JUMP JUMPDEST CALLVALUE DUP1 ISZERO PUSH2 0x27D JUMPI PUSH1 0x0 DUP1 REVERT JUMPDEST POP PUSH2 0x16B PUSH2 0x28C CALLDATASIZE PUSH1 0x4 PUSH2 0x2E7F JUMP JUMPDEST PUSH2 0x1A35 JUMP JUMPDEST CALLVALUE DUP1 ISZERO PUSH2 0x29D JUMPI PUSH1 0x0 DUP1 REVERT JUMPDEST POP PUSH2 0x16B PUSH2 0x1A64 JUMP JUMPDEST CALLVALUE DUP1 ISZERO PUSH2 0x2B2 JUMPI PUSH1 0x0 DUP1 REVERT JUMPDEST POP PUSH1 0x0 SLOAD PUSH1 0x1 PUSH1 0x1 PUSH1 0xA0 SHL SUB AND PUSH2 0x259 JUMP JUMPDEST PUSH2 0x185 PUSH2 0x2D2 CALLDATASIZE PUSH1 0x4 PUSH2 0x2F2D JUMP JUMPDEST PUSH2 0x1AD8 JUMP JUMPDEST PUSH2 0x185 PUSH2 0x2E5 CALLDATASIZE PUSH1 0x4 PUSH2 0x2F2D JUMP JUMPDEST PUSH2 0x1CEE JUMP JUMPDEST CALLVALUE DUP1 ISZERO PUSH2 0x2F6 JUMPI PUSH1 0x0 DUP1 REVERT JUMPDEST POP PUSH2 0x16B PUSH2 0x305 CALLDATASIZE PUSH1 0x4 PUSH2 0x2D07 JUMP JUMPDEST PUSH2 0x1EC2 JUMP JUMPDEST CALLVALUE DUP1 ISZERO PUSH2 0x316 JUMPI PUSH1 0x0 DUP1 REVERT JUMPDEST POP PUSH2 0x259 PUSH32 0x0 DUP2 JUMP JUMPDEST CALLVALUE DUP1 ISZERO PUSH2 0x34A JUMPI PUSH1 0x0 DUP1 REVERT JUMPDEST POP PUSH2 0x16B PUSH2 0x359 CALLDATASIZE PUSH1 0x4 PUSH2 0x2D07 JUMP JUMPDEST PUSH2 0x1FEF JUMP JUMPDEST CALLVALUE DUP1 ISZERO PUSH2 0x36A JUMPI PUSH1 0x0 DUP1 REVERT JUMPDEST POP PUSH2 0x374 PUSH1 0x3 SLOAD DUP2 JUMP JUMPDEST PUSH1 0x40 MLOAD SWAP1 DUP2 MSTORE PUSH1 0x20 ADD PUSH2 0x192 JUMP JUMPDEST CALLVALUE DUP1 ISZERO PUSH2 0x38E JUMPI PUSH1 0x0 DUP1 REVERT JUMPDEST POP PUSH1 0x3 SLOAD PUSH2 0x374 JUMP JUMPDEST CALLVALUE DUP1 ISZERO PUSH2 0x3A3 JUMPI PUSH1 0x0 DUP1 REVERT JUMPDEST POP PUSH2 0x16B PUSH2 0x203B JUMP JUMPDEST CALLVALUE DUP1 ISZERO PUSH2 0x3B8 JUMPI PUSH1 0x0 DUP1 REVERT JUMPDEST POP PUSH2 0x16B PUSH2 0x3C7 CALLDATASIZE PUSH1 0x4 PUSH2 0x2D07 JUMP JUMPDEST PUSH2 0x2095 JUMP JUMPDEST PUSH2 0x16B PUSH2 0x3DA CALLDATASIZE PUSH1 0x4 PUSH2 0x2F2D JUMP JUMPDEST PUSH2 0x20C8 JUMP JUMPDEST PUSH1 0x60 DUP3 TIMESTAMP DUP2 LT ISZERO PUSH2 0x40B JUMPI PUSH1 0x40 MLOAD PUSH3 0x461BCD PUSH1 0xE5 SHL DUP2 MSTORE PUSH1 0x4 ADD PUSH2 0x402 SWAP1 PUSH2 0x30D7 JUMP JUMPDEST PUSH1 0x40 MLOAD DUP1 SWAP2 SUB SWAP1 REVERT JUMPDEST PUSH2 0x447 DUP8 DUP8 DUP1 DUP1 PUSH1 0x20 MUL PUSH1 0x20 ADD PUSH1 0x40 MLOAD SWAP1 DUP2 ADD PUSH1 0x40 MSTORE DUP1 SWAP4 SWAP3 SWAP2 SWAP1 DUP2 DUP2 MSTORE PUSH1 0x20 ADD DUP4 DUP4 PUSH1 0x20 MUL DUP1 DUP3 DUP5 CALLDATACOPY PUSH1 0x0 SWAP3 ADD SWAP2 SWAP1 SWAP2 MSTORE POP PUSH2 0x2308 SWAP3 POP POP POP JUMP JUMPDEST POP PUSH1 0x0 DUP4 PUSH1 0x1 PUSH1 0x1 PUSH1 0xA0 SHL SUB AND PUSH4 0xC45A0155 PUSH1 0x40 MLOAD DUP2 PUSH4 0xFFFFFFFF AND PUSH1 0xE0 SHL DUP2 MSTORE PUSH1 0x4 ADD PUSH1 0x20 PUSH1 0x40 MLOAD DUP1 DUP4 SUB DUP2 DUP7 DUP1 EXTCODESIZE ISZERO DUP1 ISZERO PUSH2 0x483 JUMPI PUSH1 0x0 DUP1 REVERT JUMPDEST POP GAS STATICCALL ISZERO DUP1 ISZERO PUSH2 0x497 JUMPI RETURNDATASIZE PUSH1 0x0 DUP1 RETURNDATACOPY RETURNDATASIZE PUSH1 0x0 REVERT JUMPDEST POP POP POP POP PUSH1 0x40 MLOAD RETURNDATASIZE PUSH1 0x1F NOT PUSH1 0x1F DUP3 ADD AND DUP3 ADD DUP1 PUSH1 0x40 MSTORE POP DUP2 ADD SWAP1 PUSH2 0x4BB SWAP2 SWAP1 PUSH2 0x2D2B JUMP JUMPDEST PUSH1 0x40 MLOAD PUSH4 0xD06CA61F PUSH1 0xE0 SHL DUP2 MSTORE SWAP1 SWAP2 POP PUSH1 0x1 PUSH1 0x1 PUSH1 0xA0 SHL SUB DUP6 AND SWAP1 PUSH4 0xD06CA61F SWAP1 PUSH2 0x4EE SWAP1 DUP14 SWAP1 DUP13 SWAP1 DUP13 SWAP1 PUSH1 0x4 ADD PUSH2 0x313C JUMP JUMPDEST PUSH1 0x0 PUSH1 0x40 MLOAD DUP1 DUP4 SUB DUP2 DUP7 DUP1 EXTCODESIZE ISZERO DUP1 ISZERO PUSH2 0x506 JUMPI PUSH1 0x0 DUP1 REVERT JUMPDEST POP GAS STATICCALL ISZERO DUP1 ISZERO PUSH2 0x51A JUMPI RETURNDATASIZE PUSH1 0x0 DUP1 RETURNDATACOPY RETURNDATASIZE PUSH1 0x0 REVERT JUMPDEST POP POP POP POP PUSH1 0x40 MLOAD RETURNDATASIZE PUSH1 0x0 DUP3 RETURNDATACOPY PUSH1 0x1F RETURNDATASIZE SWAP1 DUP2 ADD PUSH1 0x1F NOT AND DUP3 ADD PUSH1 0x40 MSTORE PUSH2 0x542 SWAP2 SWAP1 DUP2 ADD SWAP1 PUSH2 0x2D48 JUMP JUMPDEST SWAP3 POP DUP9 DUP4 PUSH1 0x1 DUP6 MLOAD PUSH2 0x554 SWAP2 SWAP1 PUSH2 0x321B JUMP JUMPDEST DUP2 MLOAD DUP2 LT PUSH2 0x564 JUMPI PUSH2 0x564 PUSH2 0x32A9 JUMP JUMPDEST PUSH1 0x20 MUL PUSH1 0x20 ADD ADD MLOAD LT ISZERO PUSH2 0x58A JUMPI PUSH1 0x40 MLOAD PUSH3 0x461BCD PUSH1 0xE5 SHL DUP2 MSTORE PUSH1 0x4 ADD PUSH2 0x402 SWAP1 PUSH2 0x308E JUMP JUMPDEST PUSH2 0x62F DUP9 DUP9 PUSH1 0x0 DUP2 DUP2 LT PUSH2 0x5A0 JUMPI PUSH2 0x5A0 PUSH2 0x32A9 JUMP JUMPDEST SWAP1 POP PUSH1 0x20 MUL ADD PUSH1 0x20 DUP2 ADD SWAP1 PUSH2 0x5B5 SWAP2 SWAP1 PUSH2 0x2D07 JUMP JUMPDEST CALLER PUSH2 0x60F DUP5 DUP13 DUP13 PUSH1 0x0 DUP2 DUP2 LT PUSH2 0x5CD JUMPI PUSH2 0x5CD PUSH2 0x32A9 JUMP JUMPDEST SWAP1 POP PUSH1 0x20 MUL ADD PUSH1 0x20 DUP2 ADD SWAP1 PUSH2 0x5E2 SWAP2 SWAP1 PUSH2 0x2D07 JUMP JUMPDEST DUP14 DUP14 PUSH1 0x1 DUP2 DUP2 LT PUSH2 0x5F5 JUMPI PUSH2 0x5F5 PUSH2 0x32A9 JUMP JUMPDEST SWAP1 POP PUSH1 0x20 MUL ADD PUSH1 0x20 DUP2 ADD SWAP1 PUSH2 0x60A SWAP2 SWAP1 PUSH2 0x2D07 JUMP JUMPDEST PUSH2 0x2343 JUMP JUMPDEST DUP7 PUSH1 0x0 DUP2 MLOAD DUP2 LT PUSH2 0x622 JUMPI PUSH2 0x622 PUSH2 0x32A9 JUMP JUMPDEST PUSH1 0x20 MUL PUSH1 0x20 ADD ADD MLOAD PUSH2 0x23D0 JUMP JUMPDEST PUSH2 0x670 DUP4 DUP10 DUP10 DUP1 DUP1 PUSH1 0x20 MUL PUSH1 0x20 ADD PUSH1 0x40 MLOAD SWAP1 DUP2 ADD PUSH1 0x40 MSTORE DUP1 SWAP4 SWAP3 SWAP2 SWAP1 DUP2 DUP2 MSTORE PUSH1 0x20 ADD DUP4 DUP4 PUSH1 0x20 MUL DUP1 DUP3 DUP5 CALLDATACOPY PUSH1 0x0 SWAP3 ADD SWAP2 SWAP1 SWAP2 MSTORE POP DUP12 SWAP3 POP DUP7 SWAP2 POP PUSH2 0x2500 SWAP1 POP JUMP JUMPDEST POP POP SWAP8 SWAP7 POP POP POP POP POP POP POP JUMP JUMPDEST DUP2 TIMESTAMP DUP2 LT ISZERO PUSH2 0x69E JUMPI PUSH1 0x40 MLOAD PUSH3 0x461BCD PUSH1 0xE5 SHL DUP2 MSTORE PUSH1 0x4 ADD PUSH2 0x402 SWAP1 PUSH2 0x30D7 JUMP JUMPDEST PUSH1 0x0 DUP3 PUSH1 0x1 PUSH1 0x1 PUSH1 0xA0 SHL SUB AND PUSH4 0xC45A0155 PUSH1 0x40 MLOAD DUP2 PUSH4 0xFFFFFFFF AND PUSH1 0xE0 SHL DUP2 MSTORE PUSH1 0x4 ADD PUSH1 0x20 PUSH1 0x40 MLOAD DUP1 DUP4 SUB DUP2 DUP7 DUP1 EXTCODESIZE ISZERO DUP1 ISZERO PUSH2 0x6D9 JUMPI PUSH1 0x0 DUP1 REVERT JUMPDEST POP GAS STATICCALL ISZERO DUP1 ISZERO PUSH2 0x6ED JUMPI RETURNDATASIZE PUSH1 0x0 DUP1 RETURNDATACOPY RETURNDATASIZE PUSH1 0x0 REVERT JUMPDEST POP POP POP POP PUSH1 0x40 MLOAD RETURNDATASIZE PUSH1 0x1F NOT PUSH1 0x1F DUP3 ADD AND DUP3 ADD DUP1 PUSH1 0x40 MSTORE POP DUP2 ADD SWAP1 PUSH2 0x711 SWAP2 SWAP1 PUSH2 0x2D2B JUMP JUMPDEST SWAP1 POP PUSH32 0x0 PUSH1 0x1 PUSH1 0x1 PUSH1 0xA0 SHL SUB AND DUP8 DUP8 PUSH1 0x0 DUP2 DUP2 LT PUSH2 0x750 JUMPI PUSH2 0x750 PUSH2 0x32A9 JUMP JUMPDEST SWAP1 POP PUSH1 0x20 MUL ADD PUSH1 0x20 DUP2 ADD SWAP1 PUSH2 0x765 SWAP2 SWAP1 PUSH2 0x2D07 JUMP JUMPDEST PUSH1 0x1 PUSH1 0x1 PUSH1 0xA0 SHL SUB AND EQ PUSH2 0x78B JUMPI PUSH1 0x40 MLOAD PUSH3 0x461BCD PUSH1 0xE5 SHL DUP2 MSTORE PUSH1 0x4 ADD PUSH2 0x402 SWAP1 PUSH2 0x3057 JUMP JUMPDEST PUSH1 0x0 PUSH1 0x3 SLOAD PUSH1 0x64 PUSH2 0x79C SWAP2 SWAP1 PUSH2 0x31FC JUMP JUMPDEST CALLVALUE GT PUSH2 0x7A8 JUMPI CALLVALUE PUSH2 0x7EE JUMP JUMPDEST PUSH2 0x7E4 DUP9 DUP9 DUP1 DUP1 PUSH1 0x20 MUL PUSH1 0x20 ADD PUSH1 0x40 MLOAD SWAP1 DUP2 ADD PUSH1 0x40 MSTORE DUP1 SWAP4 SWAP3 SWAP2 SWAP1 DUP2 DUP2 MSTORE PUSH1 0x20 ADD DUP4 DUP4 PUSH1 0x20 MUL DUP1 DUP3 DUP5 CALLDATACOPY PUSH1 0x0 SWAP3 ADD SWAP2 SWAP1 SWAP2 MSTORE POP PUSH2 0x2308 SWAP3 POP POP POP JUMP JUMPDEST PUSH2 0x7EE SWAP1 CALLVALUE PUSH2 0x321B JUMP JUMPDEST SWAP1 POP PUSH32 0x0 PUSH1 0x1 PUSH1 0x1 PUSH1 0xA0 SHL SUB AND PUSH4 0xD0E30DB0 DUP3 PUSH1 0x40 MLOAD DUP3 PUSH4 0xFFFFFFFF AND PUSH1 0xE0 SHL DUP2 MSTORE PUSH1 0x4 ADD PUSH1 0x0 PUSH1 0x40 MLOAD DUP1 DUP4 SUB DUP2 DUP6 DUP9 DUP1 EXTCODESIZE ISZERO DUP1 ISZERO PUSH2 0x84B JUMPI PUSH1 0x0 DUP1 REVERT JUMPDEST POP GAS CALL ISZERO DUP1 ISZERO PUSH2 0x85F JUMPI RETURNDATASIZE PUSH1 0x0 DUP1 RETURNDATACOPY RETURNDATASIZE PUSH1 0x0 REVERT JUMPDEST POP POP POP POP POP PUSH32 0x0 PUSH1 0x1 PUSH1 0x1 PUSH1 0xA0 SHL SUB AND PUSH4 0xA9059CBB PUSH2 0x8D2 DUP5 DUP12 DUP12 PUSH1 0x0 DUP2 DUP2 LT PUSH2 0x8AA JUMPI PUSH2 0x8AA PUSH2 0x32A9 JUMP JUMPDEST SWAP1 POP PUSH1 0x20 MUL ADD PUSH1 0x20 DUP2 ADD SWAP1 PUSH2 0x8BF SWAP2 SWAP1 PUSH2 0x2D07 JUMP JUMPDEST DUP13 DUP13 PUSH1 0x1 DUP2 DUP2 LT PUSH2 0x5F5 JUMPI PUSH2 0x5F5 PUSH2 0x32A9 JUMP JUMPDEST PUSH1 0x40 MLOAD PUSH1 0x1 PUSH1 0x1 PUSH1 0xE0 SHL SUB NOT PUSH1 0xE0 DUP5 SWAP1 SHL AND DUP2 MSTORE PUSH1 0x1 PUSH1 0x1 PUSH1 0xA0 SHL SUB SWAP1 SWAP2 AND PUSH1 0x4 DUP3 ADD MSTORE PUSH1 0x24 DUP2 ADD DUP5 SWAP1 MSTORE PUSH1 0x44 ADD PUSH1 0x20 PUSH1 0x40 MLOAD DUP1 DUP4 SUB DUP2 PUSH1 0x0 DUP8 DUP1 EXTCODESIZE ISZERO DUP1 ISZERO PUSH2 0x91A JUMPI PUSH1 0x0 DUP1 REVERT JUMPDEST POP GAS CALL ISZERO DUP1 ISZERO PUSH2 0x92E JUMPI RETURNDATASIZE PUSH1 0x0 DUP1 RETURNDATACOPY RETURNDATASIZE PUSH1 0x0 REVERT JUMPDEST POP POP POP POP PUSH1 0x40 MLOAD RETURNDATASIZE PUSH1 0x1F NOT PUSH1 0x1F DUP3 ADD AND DUP3 ADD DUP1 PUSH1 0x40 MSTORE POP DUP2 ADD SWAP1 PUSH2 0x952 SWAP2 SWAP1 PUSH2 0x2E0D JUMP JUMPDEST PUSH2 0x95E JUMPI PUSH2 0x95E PUSH2 0x327D JUMP JUMPDEST PUSH1 0x0 DUP9 DUP9 PUSH2 0x96D PUSH1 0x1 DUP3 PUSH2 0x321B JUMP JUMPDEST DUP2 DUP2 LT PUSH2 0x97C JUMPI PUSH2 0x97C PUSH2 0x32A9 JUMP JUMPDEST SWAP1 POP PUSH1 0x20 MUL ADD PUSH1 0x20 DUP2 ADD SWAP1 PUSH2 0x991 SWAP2 SWAP1 PUSH2 0x2D07 JUMP JUMPDEST PUSH1 0x40 MLOAD PUSH4 0x70A08231 PUSH1 0xE0 SHL DUP2 MSTORE PUSH1 0x1 PUSH1 0x1 PUSH1 0xA0 SHL SUB DUP10 DUP2 AND PUSH1 0x4 DUP4 ADD MSTORE SWAP2 SWAP1 SWAP2 AND SWAP1 PUSH4 0x70A08231 SWAP1 PUSH1 0x24 ADD PUSH1 0x20 PUSH1 0x40 MLOAD DUP1 DUP4 SUB DUP2 DUP7 DUP1 EXTCODESIZE ISZERO DUP1 ISZERO PUSH2 0x9D4 JUMPI PUSH1 0x0 DUP1 REVERT JUMPDEST POP GAS STATICCALL ISZERO DUP1 ISZERO PUSH2 0x9E8 JUMPI RETURNDATASIZE PUSH1 0x0 DUP1 RETURNDATACOPY RETURNDATASIZE PUSH1 0x0 REVERT JUMPDEST POP POP POP POP PUSH1 0x40 MLOAD RETURNDATASIZE PUSH1 0x1F NOT PUSH1 0x1F DUP3 ADD AND DUP3 ADD DUP1 PUSH1 0x40 MSTORE POP DUP2 ADD SWAP1 PUSH2 0xA0C SWAP2 SWAP1 PUSH2 0x2E98 JUMP JUMPDEST SWAP1 POP PUSH2 0xA4F DUP10 DUP10 DUP1 DUP1 PUSH1 0x20 MUL PUSH1 0x20 ADD PUSH1 0x40 MLOAD SWAP1 DUP2 ADD PUSH1 0x40 MSTORE DUP1 SWAP4 SWAP3 SWAP2 SWAP1 DUP2 DUP2 MSTORE PUSH1 0x20 ADD DUP4 DUP4 PUSH1 0x20 MUL DUP1 DUP3 DUP5 CALLDATACOPY PUSH1 0x0 SWAP3 ADD SWAP2 SWAP1 SWAP2 MSTORE POP DUP12 SWAP3 POP DUP8 SWAP2 POP DUP10 SWAP1 POP PUSH2 0x26C9 JUMP JUMPDEST DUP10 PUSH2 0xB07 DUP3 DUP12 DUP12 PUSH2 0xA61 PUSH1 0x1 DUP3 PUSH2 0x321B JUMP JUMPDEST DUP2 DUP2 LT PUSH2 0xA70 JUMPI PUSH2 0xA70 PUSH2 0x32A9 JUMP JUMPDEST SWAP1 POP PUSH1 0x20 MUL ADD PUSH1 0x20 DUP2 ADD SWAP1 PUSH2 0xA85 SWAP2 SWAP1 PUSH2 0x2D07 JUMP JUMPDEST PUSH1 0x40 MLOAD PUSH4 0x70A08231 PUSH1 0xE0 SHL DUP2 MSTORE PUSH1 0x1 PUSH1 0x1 PUSH1 0xA0 SHL SUB DUP13 DUP2 AND PUSH1 0x4 DUP4 ADD MSTORE SWAP2 SWAP1 SWAP2 AND SWAP1 PUSH4 0x70A08231 SWAP1 PUSH1 0x24 ADD JUMPDEST PUSH1 0x20 PUSH1 0x40 MLOAD DUP1 DUP4 SUB DUP2 DUP7 DUP1 EXTCODESIZE ISZERO DUP1 ISZERO PUSH2 0xAC9 JUMPI PUSH1 0x0 DUP1 REVERT JUMPDEST POP GAS STATICCALL ISZERO DUP1 ISZERO PUSH2 0xADD JUMPI RETURNDATASIZE PUSH1 0x0 DUP1 RETURNDATACOPY RETURNDATASIZE PUSH1 0x0 REVERT JUMPDEST POP POP POP POP PUSH1 0x40 MLOAD RETURNDATASIZE PUSH1 0x1F NOT PUSH1 0x1F DUP3 ADD AND DUP3 ADD DUP1 PUSH1 0x40 MSTORE POP DUP2 ADD SWAP1 PUSH2 0xB01 SWAP2 SWAP1 PUSH2 0x2E98 JUMP JUMPDEST SWAP1 PUSH2 0x2814 JUMP JUMPDEST LT ISZERO PUSH2 0xB25 JUMPI PUSH1 0x40 MLOAD PUSH3 0x461BCD PUSH1 0xE5 SHL DUP2 MSTORE PUSH1 0x4 ADD PUSH2 0x402 SWAP1 PUSH2 0x308E JUMP JUMPDEST POP POP POP POP POP POP POP POP POP POP JUMP JUMPDEST PUSH1 0x60 DUP3 TIMESTAMP DUP2 LT ISZERO PUSH2 0xB54 JUMPI PUSH1 0x40 MLOAD PUSH3 0x461BCD PUSH1 0xE5 SHL DUP2 MSTORE PUSH1 0x4 ADD PUSH2 0x402 SWAP1 PUSH2 0x30D7 JUMP JUMPDEST PUSH1 0x0 DUP4 PUSH1 0x1 PUSH1 0x1 PUSH1 0xA0 SHL SUB AND PUSH4 0xC45A0155 PUSH1 0x40 MLOAD DUP2 PUSH4 0xFFFFFFFF AND PUSH1 0xE0 SHL DUP2 MSTORE PUSH1 0x4 ADD PUSH1 0x20 PUSH1 0x40 MLOAD DUP1 DUP4 SUB DUP2 DUP7 DUP1 EXTCODESIZE ISZERO DUP1 ISZERO PUSH2 0xB8F JUMPI PUSH1 0x0 DUP1 REVERT JUMPDEST POP GAS STATICCALL ISZERO DUP1 ISZERO PUSH2 0xBA3 JUMPI RETURNDATASIZE PUSH1 0x0 DUP1 RETURNDATACOPY RETURNDATASIZE PUSH1 0x0 REVERT JUMPDEST POP POP POP POP PUSH1 0x40 MLOAD RETURNDATASIZE PUSH1 0x1F NOT PUSH1 0x1F DUP3 ADD AND DUP3 ADD DUP1 PUSH1 0x40 MSTORE POP DUP2 ADD SWAP1 PUSH2 0xBC7 SWAP2 SWAP1 PUSH2 0x2D2B JUMP JUMPDEST SWAP1 POP PUSH1 0x1 PUSH1 0x1 PUSH1 0xA0 SHL SUB PUSH32 0x0 AND DUP9 DUP9 PUSH2 0xC00 PUSH1 0x1 DUP3 PUSH2 0x321B JUMP JUMPDEST DUP2 DUP2 LT PUSH2 0xC0F JUMPI PUSH2 0xC0F PUSH2 0x32A9 JUMP JUMPDEST SWAP1 POP PUSH1 0x20 MUL ADD PUSH1 0x20 DUP2 ADD SWAP1 PUSH2 0xC24 SWAP2 SWAP1 PUSH2 0x2D07 JUMP JUMPDEST PUSH1 0x1 PUSH1 0x1 PUSH1 0xA0 SHL SUB AND EQ PUSH2 0xC4A JUMPI PUSH1 0x40 MLOAD PUSH3 0x461BCD PUSH1 0xE5 SHL DUP2 MSTORE PUSH1 0x4 ADD PUSH2 0x402 SWAP1 PUSH2 0x3057 JUMP JUMPDEST PUSH2 0xC86 DUP9 DUP9 DUP1 DUP1 PUSH1 0x20 MUL PUSH1 0x20 ADD PUSH1 0x40 MLOAD SWAP1 DUP2 ADD PUSH1 0x40 MSTORE DUP1 SWAP4 SWAP3 SWAP2 SWAP1 DUP2 DUP2 MSTORE PUSH1 0x20 ADD DUP4 DUP4 PUSH1 0x20 MUL DUP1 DUP3 DUP5 CALLDATACOPY PUSH1 0x0 SWAP3 ADD SWAP2 SWAP1 SWAP2 MSTORE POP PUSH2 0x2308 SWAP3 POP POP POP JUMP JUMPDEST POP PUSH1 0x40 MLOAD PUSH4 0xD06CA61F PUSH1 0xE0 SHL DUP2 MSTORE PUSH1 0x1 PUSH1 0x1 PUSH1 0xA0 SHL SUB DUP6 AND SWAP1 PUSH4 0xD06CA61F SWAP1 PUSH2 0xCB7 SWAP1 DUP14 SWAP1 DUP13 SWAP1 DUP13 SWAP1 PUSH1 0x4 ADD PUSH2 0x313C JUMP JUMPDEST PUSH1 0x0 PUSH1 0x40 MLOAD DUP1 DUP4 SUB DUP2 DUP7 DUP1 EXTCODESIZE ISZERO DUP1 ISZERO PUSH2 0xCCF JUMPI PUSH1 0x0 DUP1 REVERT JUMPDEST POP GAS STATICCALL ISZERO DUP1 ISZERO PUSH2 0xCE3 JUMPI RETURNDATASIZE PUSH1 0x0 DUP1 RETURNDATACOPY RETURNDATASIZE PUSH1 0x0 REVERT JUMPDEST POP POP POP POP PUSH1 0x40 MLOAD RETURNDATASIZE PUSH1 0x0 DUP3 RETURNDATACOPY PUSH1 0x1F RETURNDATASIZE SWAP1 DUP2 ADD PUSH1 0x1F NOT AND DUP3 ADD PUSH1 0x40 MSTORE PUSH2 0xD0B SWAP2 SWAP1 DUP2 ADD SWAP1 PUSH2 0x2D48 JUMP JUMPDEST SWAP3 POP DUP9 DUP4 PUSH1 0x1 DUP6 MLOAD PUSH2 0xD1D SWAP2 SWAP1 PUSH2 0x321B JUMP JUMPDEST DUP2 MLOAD DUP2 LT PUSH2 0xD2D JUMPI PUSH2 0xD2D PUSH2 0x32A9 JUMP JUMPDEST PUSH1 0x20 MUL PUSH1 0x20 ADD ADD MLOAD LT ISZERO PUSH2 0xD53 JUMPI PUSH1 0x40 MLOAD PUSH3 0x461BCD PUSH1 0xE5 SHL DUP2 MSTORE PUSH1 0x4 ADD PUSH2 0x402 SWAP1 PUSH2 0x308E JUMP JUMPDEST PUSH2 0xD69 DUP9 DUP9 PUSH1 0x0 DUP2 DUP2 LT PUSH2 0x5A0 JUMPI PUSH2 0x5A0 PUSH2 0x32A9 JUMP JUMPDEST PUSH2 0xDAA DUP4 DUP10 DUP10 DUP1 DUP1 PUSH1 0x20 MUL PUSH1 0x20 ADD PUSH1 0x40 MLOAD SWAP1 DUP2 ADD PUSH1 0x40 MSTORE DUP1 SWAP4 SWAP3 SWAP2 SWAP1 DUP2 DUP2 MSTORE PUSH1 0x20 ADD DUP4 DUP4 PUSH1 0x20 MUL DUP1 DUP3 DUP5 CALLDATACOPY PUSH1 0x0 SWAP3 ADD SWAP2 SWAP1 SWAP2 MSTORE POP ADDRESS SWAP3 POP DUP7 SWAP2 POP PUSH2 0x2500 SWAP1 POP JUMP JUMPDEST PUSH32 0x0 PUSH1 0x1 PUSH1 0x1 PUSH1 0xA0 SHL SUB AND PUSH4 0x2E1A7D4D DUP5 PUSH1 0x1 DUP7 MLOAD PUSH2 0xDE8 SWAP2 SWAP1 PUSH2 0x321B JUMP JUMPDEST DUP2 MLOAD DUP2 LT PUSH2 0xDF8 JUMPI PUSH2 0xDF8 PUSH2 0x32A9 JUMP JUMPDEST PUSH1 0x20 MUL PUSH1 0x20 ADD ADD MLOAD PUSH1 0x40 MLOAD DUP3 PUSH4 0xFFFFFFFF AND PUSH1 0xE0 SHL DUP2 MSTORE PUSH1 0x4 ADD PUSH2 0xE1E SWAP2 DUP2 MSTORE PUSH1 0x20 ADD SWAP1 JUMP JUMPDEST PUSH1 0x0 PUSH1 0x40 MLOAD DUP1 DUP4 SUB DUP2 PUSH1 0x0 DUP8 DUP1 EXTCODESIZE ISZERO DUP1 ISZERO PUSH2 0xE38 JUMPI PUSH1 0x0 DUP1 REVERT JUMPDEST POP GAS CALL ISZERO DUP1 ISZERO PUSH2 0xE4C JUMPI RETURNDATASIZE PUSH1 0x0 DUP1 RETURNDATACOPY RETURNDATASIZE PUSH1 0x0 REVERT JUMPDEST POP POP POP POP PUSH2 0x670 DUP7 DUP5 PUSH1 0x1 DUP7 MLOAD PUSH2 0xE63 SWAP2 SWAP1 PUSH2 0x321B JUMP JUMPDEST DUP2 MLOAD DUP2 LT PUSH2 0xE73 JUMPI PUSH2 0xE73 PUSH2 0x32A9 JUMP JUMPDEST PUSH1 0x20 MUL PUSH1 0x20 ADD ADD MLOAD PUSH2 0x2870 JUMP JUMPDEST PUSH1 0x60 DUP3 TIMESTAMP DUP2 LT ISZERO PUSH2 0xEA3 JUMPI PUSH1 0x40 MLOAD PUSH3 0x461BCD PUSH1 0xE5 SHL DUP2 MSTORE PUSH1 0x4 ADD PUSH2 0x402 SWAP1 PUSH2 0x30D7 JUMP JUMPDEST PUSH1 0x0 DUP4 PUSH1 0x1 PUSH1 0x1 PUSH1 0xA0 SHL SUB AND PUSH4 0xC45A0155 PUSH1 0x40 MLOAD DUP2 PUSH4 0xFFFFFFFF AND PUSH1 0xE0 SHL DUP2 MSTORE PUSH1 0x4 ADD PUSH1 0x20 PUSH1 0x40 MLOAD DUP1 DUP4 SUB DUP2 DUP7 DUP1 EXTCODESIZE ISZERO DUP1 ISZERO PUSH2 0xEDE JUMPI PUSH1 0x0 DUP1 REVERT JUMPDEST POP GAS STATICCALL ISZERO DUP1 ISZERO PUSH2 0xEF2 JUMPI RETURNDATASIZE PUSH1 0x0 DUP1 RETURNDATACOPY RETURNDATASIZE PUSH1 0x0 REVERT JUMPDEST POP POP POP POP PUSH1 0x40 MLOAD RETURNDATASIZE PUSH1 0x1F NOT PUSH1 0x1F DUP3 ADD AND DUP3 ADD DUP1 PUSH1 0x40 MSTORE POP DUP2 ADD SWAP1 PUSH2 0xF16 SWAP2 SWAP1 PUSH2 0x2D2B JUMP JUMPDEST SWAP1 POP PUSH32 0x0 PUSH1 0x1 PUSH1 0x1 PUSH1 0xA0 SHL SUB AND DUP9 DUP9 PUSH1 0x0 DUP2 DUP2 LT PUSH2 0xF55 JUMPI PUSH2 0xF55 PUSH2 0x32A9 JUMP JUMPDEST SWAP1 POP PUSH1 0x20 MUL ADD PUSH1 0x20 DUP2 ADD SWAP1 PUSH2 0xF6A SWAP2 SWAP1 PUSH2 0x2D07 JUMP JUMPDEST PUSH1 0x1 PUSH1 0x1 PUSH1 0xA0 SHL SUB AND EQ PUSH2 0xF90 JUMPI PUSH1 0x40 MLOAD PUSH3 0x461BCD PUSH1 0xE5 SHL DUP2 MSTORE PUSH1 0x4 ADD PUSH2 0x402 SWAP1 PUSH2 0x3057 JUMP JUMPDEST PUSH1 0x40 MLOAD PUSH4 0x7C0329D PUSH1 0xE2 SHL DUP2 MSTORE PUSH1 0x1 PUSH1 0x1 PUSH1 0xA0 SHL SUB DUP6 AND SWAP1 PUSH4 0x1F00CA74 SWAP1 PUSH2 0xFC0 SWAP1 DUP13 SWAP1 DUP13 SWAP1 DUP13 SWAP1 PUSH1 0x4 ADD PUSH2 0x313C JUMP JUMPDEST PUSH1 0x0 PUSH1 0x40 MLOAD DUP1 DUP4 SUB DUP2 DUP7 DUP1 EXTCODESIZE ISZERO DUP1 ISZERO PUSH2 0xFD8 JUMPI PUSH1 0x0 DUP1 REVERT JUMPDEST POP GAS STATICCALL ISZERO DUP1 ISZERO PUSH2 0xFEC JUMPI RETURNDATASIZE PUSH1 0x0 DUP1 RETURNDATACOPY RETURNDATASIZE PUSH1 0x0 REVERT JUMPDEST POP POP POP POP PUSH1 0x40 MLOAD RETURNDATASIZE PUSH1 0x0 DUP3 RETURNDATACOPY PUSH1 0x1F RETURNDATASIZE SWAP1 DUP2 ADD PUSH1 0x1F NOT AND DUP3 ADD PUSH1 0x40 MSTORE PUSH2 0x1014 SWAP2 SWAP1 DUP2 ADD SWAP1 PUSH2 0x2D48 JUMP JUMPDEST SWAP3 POP PUSH1 0x0 PUSH1 0x3 SLOAD PUSH1 0x64 PUSH2 0x1027 SWAP2 SWAP1 PUSH2 0x31FC JUMP JUMPDEST CALLVALUE GT PUSH2 0x1034 JUMPI PUSH1 0x0 PUSH2 0x1070 JUMP JUMPDEST PUSH2 0x1070 DUP10 DUP10 DUP1 DUP1 PUSH1 0x20 MUL PUSH1 0x20 ADD PUSH1 0x40 MLOAD SWAP1 DUP2 ADD PUSH1 0x40 MSTORE DUP1 SWAP4 SWAP3 SWAP2 SWAP1 DUP2 DUP2 MSTORE PUSH1 0x20 ADD DUP4 DUP4 PUSH1 0x20 MUL DUP1 DUP3 DUP5 CALLDATACOPY PUSH1 0x0 SWAP3 ADD SWAP2 SWAP1 SWAP2 MSTORE POP PUSH2 0x2308 SWAP3 POP POP POP JUMP JUMPDEST SWAP1 POP DUP1 DUP5 PUSH1 0x0 DUP2 MLOAD DUP2 LT PUSH2 0x1086 JUMPI PUSH2 0x1086 PUSH2 0x32A9 JUMP JUMPDEST PUSH1 0x20 MUL PUSH1 0x20 ADD ADD MLOAD PUSH2 0x1098 SWAP2 SWAP1 PUSH2 0x321B JUMP JUMPDEST DUP5 PUSH1 0x0 DUP2 MLOAD DUP2 LT PUSH2 0x10AB JUMPI PUSH2 0x10AB PUSH2 0x32A9 JUMP JUMPDEST PUSH1 0x20 SWAP1 DUP2 MUL SWAP2 SWAP1 SWAP2 ADD ADD MSTORE PUSH2 0x10C0 DUP2 CALLVALUE PUSH2 0x321B JUMP JUMPDEST DUP5 PUSH1 0x0 DUP2 MLOAD DUP2 LT PUSH2 0x10D3 JUMPI PUSH2 0x10D3 PUSH2 0x32A9 JUMP JUMPDEST PUSH1 0x20 MUL PUSH1 0x20 ADD ADD MLOAD GT ISZERO PUSH2 0x10F9 JUMPI PUSH1 0x40 MLOAD PUSH3 0x461BCD PUSH1 0xE5 SHL DUP2 MSTORE PUSH1 0x4 ADD PUSH2 0x402 SWAP1 PUSH2 0x3014 JUMP JUMPDEST PUSH32 0x0 PUSH1 0x1 PUSH1 0x1 PUSH1 0xA0 SHL SUB AND PUSH4 0xD0E30DB0 DUP6 PUSH1 0x0 DUP2 MLOAD DUP2 LT PUSH2 0x113B JUMPI PUSH2 0x113B PUSH2 0x32A9 JUMP JUMPDEST PUSH1 0x20 MUL PUSH1 0x20 ADD ADD MLOAD PUSH1 0x40 MLOAD DUP3 PUSH4 0xFFFFFFFF AND PUSH1 0xE0 SHL DUP2 MSTORE PUSH1 0x4 ADD PUSH1 0x0 PUSH1 0x40 MLOAD DUP1 DUP4 SUB DUP2 DUP6 DUP9 DUP1 EXTCODESIZE ISZERO DUP1 ISZERO PUSH2 0x116E JUMPI PUSH1 0x0 DUP1 REVERT JUMPDEST POP GAS CALL ISZERO DUP1 ISZERO PUSH2 0x1182 JUMPI RETURNDATASIZE PUSH1 0x0 DUP1 RETURNDATACOPY RETURNDATASIZE PUSH1 0x0 REVERT JUMPDEST POP POP POP POP POP PUSH32 0x0 PUSH1 0x1 PUSH1 0x1 PUSH1 0xA0 SHL SUB AND PUSH4 0xA9059CBB PUSH2 0x11CD DUP5 DUP13 DUP13 PUSH1 0x0 DUP2 DUP2 LT PUSH2 0x5CD JUMPI PUSH2 0x5CD PUSH2 0x32A9 JUMP JUMPDEST DUP7 PUSH1 0x0 DUP2 MLOAD DUP2 LT PUSH2 0x11E0 JUMPI PUSH2 0x11E0 PUSH2 0x32A9 JUMP JUMPDEST PUSH1 0x20 MUL PUSH1 0x20 ADD ADD MLOAD PUSH1 0x40 MLOAD DUP4 PUSH4 0xFFFFFFFF AND PUSH1 0xE0 SHL DUP2 MSTORE PUSH1 0x4 ADD PUSH2 0x1219 SWAP3 SWAP2 SWAP1 PUSH1 0x1 PUSH1 0x1 PUSH1 0xA0 SHL SUB SWAP3 SWAP1 SWAP3 AND DUP3 MSTORE PUSH1 0x20 DUP3 ADD MSTORE PUSH1 0x40 ADD SWAP1 JUMP JUMPDEST PUSH1 0x20 PUSH1 0x40 MLOAD DUP1 DUP4 SUB DUP2 PUSH1 0x0 DUP8 DUP1 EXTCODESIZE ISZERO DUP1 ISZERO PUSH2 0x1233 JUMPI PUSH1 0x0 DUP1 REVERT JUMPDEST POP GAS CALL ISZERO DUP1 ISZERO PUSH2 0x1247 JUMPI RETURNDATASIZE PUSH1 0x0 DUP1 RETURNDATACOPY RETURNDATASIZE PUSH1 0x0 REVERT JUMPDEST POP POP POP POP PUSH1 0x40 MLOAD RETURNDATASIZE PUSH1 0x1F NOT PUSH1 0x1F DUP3 ADD AND DUP3 ADD DUP1 PUSH1 0x40 MSTORE POP DUP2 ADD SWAP1 PUSH2 0x126B SWAP2 SWAP1 PUSH2 0x2E0D JUMP JUMPDEST PUSH2 0x1277 JUMPI PUSH2 0x1277 PUSH2 0x327D JUMP JUMPDEST PUSH2 0x12B8 DUP5 DUP11 DUP11 DUP1 DUP1 PUSH1 0x20 MUL PUSH1 0x20 ADD PUSH1 0x40 MLOAD SWAP1 DUP2 ADD PUSH1 0x40 MSTORE DUP1 SWAP4 SWAP3 SWAP2 SWAP1 DUP2 DUP2 MSTORE PUSH1 0x20 ADD DUP4 DUP4 PUSH1 0x20 MUL DUP1 DUP3 DUP5 CALLDATACOPY PUSH1 0x0 SWAP3 ADD SWAP2 SWAP1 SWAP2 MSTORE POP DUP13 SWAP3 POP DUP8 SWAP2 POP PUSH2 0x2500 SWAP1 POP JUMP JUMPDEST DUP4 PUSH1 0x0 DUP2 MLOAD DUP2 LT PUSH2 0x12CB JUMPI PUSH2 0x12CB PUSH2 0x32A9 JUMP JUMPDEST PUSH1 0x20 MUL PUSH1 0x20 ADD ADD MLOAD CALLVALUE GT ISZERO PUSH2 0x1309 JUMPI PUSH2 0x1309 CALLER DUP6 PUSH1 0x0 DUP2 MLOAD DUP2 LT PUSH2 0x12F1 JUMPI PUSH2 0x12F1 PUSH2 0x32A9 JUMP JUMPDEST PUSH1 0x20 MUL PUSH1 0x20 ADD ADD MLOAD CALLVALUE PUSH2 0x1304 SWAP2 SWAP1 PUSH2 0x321B JUMP JUMPDEST PUSH2 0x2870 JUMP JUMPDEST POP POP POP SWAP7 SWAP6 POP POP POP POP POP POP JUMP JUMPDEST PUSH1 0x60 DUP3 TIMESTAMP DUP2 LT ISZERO PUSH2 0x1339 JUMPI PUSH1 0x40 MLOAD PUSH3 0x461BCD PUSH1 0xE5 SHL DUP2 MSTORE PUSH1 0x4 ADD PUSH2 0x402 SWAP1 PUSH2 0x30D7 JUMP JUMPDEST PUSH1 0x0 DUP4 PUSH1 0x1 PUSH1 0x1 PUSH1 0xA0 SHL SUB AND PUSH4 0xC45A0155 PUSH1 0x40 MLOAD DUP2 PUSH4 0xFFFFFFFF AND PUSH1 0xE0 SHL DUP2 MSTORE PUSH1 0x4 ADD PUSH1 0x20 PUSH1 0x40 MLOAD DUP1 DUP4 SUB DUP2 DUP7 DUP1 EXTCODESIZE ISZERO DUP1 ISZERO PUSH2 0x1374 JUMPI PUSH1 0x0 DUP1 REVERT JUMPDEST POP GAS STATICCALL ISZERO DUP1 ISZERO PUSH2 0x1388 JUMPI RETURNDATASIZE PUSH1 0x0 DUP1 RETURNDATACOPY RETURNDATASIZE PUSH1 0x0 REVERT JUMPDEST POP POP POP POP PUSH1 0x40 MLOAD RETURNDATASIZE PUSH1 0x1F NOT PUSH1 0x1F DUP3 ADD AND DUP3 ADD DUP1 PUSH1 0x40 MSTORE POP DUP2 ADD SWAP1 PUSH2 0x13AC SWAP2 SWAP1 PUSH2 0x2D2B JUMP JUMPDEST SWAP1 POP PUSH32 0x0 PUSH1 0x1 PUSH1 0x1 PUSH1 0xA0 SHL SUB AND DUP9 DUP9 PUSH1 0x0 DUP2 DUP2 LT PUSH2 0x13EB JUMPI PUSH2 0x13EB PUSH2 0x32A9 JUMP JUMPDEST SWAP1 POP PUSH1 0x20 MUL ADD PUSH1 0x20 DUP2 ADD SWAP1 PUSH2 0x1400 SWAP2 SWAP1 PUSH2 0x2D07 JUMP JUMPDEST PUSH1 0x1 PUSH1 0x1 PUSH1 0xA0 SHL SUB AND EQ PUSH2 0x1426 JUMPI PUSH1 0x40 MLOAD PUSH3 0x461BCD PUSH1 0xE5 SHL DUP2 MSTORE PUSH1 0x4 ADD PUSH2 0x402 SWAP1 PUSH2 0x3057 JUMP JUMPDEST PUSH1 0x0 PUSH1 0x3 SLOAD PUSH1 0x64 PUSH2 0x1437 SWAP2 SWAP1 PUSH2 0x31FC JUMP JUMPDEST CALLVALUE GT PUSH2 0x1443 JUMPI CALLVALUE PUSH2 0x1489 JUMP JUMPDEST PUSH2 0x147F DUP10 DUP10 DUP1 DUP1 PUSH1 0x20 MUL PUSH1 0x20 ADD PUSH1 0x40 MLOAD SWAP1 DUP2 ADD PUSH1 0x40 MSTORE DUP1 SWAP4 SWAP3 SWAP2 SWAP1 DUP2 DUP2 MSTORE PUSH1 0x20 ADD DUP4 DUP4 PUSH1 0x20 MUL DUP1 DUP3 DUP5 CALLDATACOPY PUSH1 0x0 SWAP3 ADD SWAP2 SWAP1 SWAP2 MSTORE POP PUSH2 0x2308 SWAP3 POP POP POP JUMP JUMPDEST PUSH2 0x1489 SWAP1 CALLVALUE PUSH2 0x321B JUMP JUMPDEST PUSH1 0x40 MLOAD PUSH4 0xD06CA61F PUSH1 0xE0 SHL DUP2 MSTORE SWAP1 SWAP2 POP PUSH1 0x1 PUSH1 0x1 PUSH1 0xA0 SHL SUB DUP7 AND SWAP1 PUSH4 0xD06CA61F SWAP1 PUSH2 0x14BC SWAP1 DUP5 SWAP1 DUP14 SWAP1 DUP14 SWAP1 PUSH1 0x4 ADD PUSH2 0x313C JUMP JUMPDEST PUSH1 0x0 PUSH1 0x40 MLOAD DUP1 DUP4 SUB DUP2 DUP7 DUP1 EXTCODESIZE ISZERO DUP1 ISZERO PUSH2 0x14D4 JUMPI PUSH1 0x0 DUP1 REVERT JUMPDEST POP GAS STATICCALL ISZERO DUP1 ISZERO PUSH2 0x14E8 JUMPI RETURNDATASIZE PUSH1 0x0 DUP1 RETURNDATACOPY RETURNDATASIZE PUSH1 0x0 REVERT JUMPDEST POP POP POP POP PUSH1 0x40 MLOAD RETURNDATASIZE PUSH1 0x0 DUP3 RETURNDATACOPY PUSH1 0x1F RETURNDATASIZE SWAP1 DUP2 ADD PUSH1 0x1F NOT AND DUP3 ADD PUSH1 0x40 MSTORE PUSH2 0x1510 SWAP2 SWAP1 DUP2 ADD SWAP1 PUSH2 0x2D48 JUMP JUMPDEST SWAP4 POP DUP10 DUP5 PUSH1 0x1 DUP7 MLOAD PUSH2 0x1522 SWAP2 SWAP1 PUSH2 0x321B JUMP JUMPDEST DUP2 MLOAD DUP2 LT PUSH2 0x1532 JUMPI PUSH2 0x1532 PUSH2 0x32A9 JUMP JUMPDEST PUSH1 0x20 MUL PUSH1 0x20 ADD ADD MLOAD LT ISZERO PUSH2 0x1558 JUMPI PUSH1 0x40 MLOAD PUSH3 0x461BCD PUSH1 0xE5 SHL DUP2 MSTORE PUSH1 0x4 ADD PUSH2 0x402 SWAP1 PUSH2 0x308E JUMP JUMPDEST PUSH32 0x0 PUSH1 0x1 PUSH1 0x1 PUSH1 0xA0 SHL SUB AND PUSH4 0xD0E30DB0 DUP6 PUSH1 0x0 DUP2 MLOAD DUP2 LT PUSH2 0x159A JUMPI PUSH2 0x159A PUSH2 0x32A9 JUMP JUMPDEST PUSH1 0x20 MUL PUSH1 0x20 ADD ADD MLOAD PUSH1 0x40 MLOAD DUP3 PUSH4 0xFFFFFFFF AND PUSH1 0xE0 SHL DUP2 MSTORE PUSH1 0x4 ADD PUSH1 0x0 PUSH1 0x40 MLOAD DUP1 DUP4 SUB DUP2 DUP6 DUP9 DUP1 EXTCODESIZE ISZERO DUP1 ISZERO PUSH2 0x15CD JUMPI PUSH1 0x0 DUP1 REVERT JUMPDEST POP GAS CALL ISZERO DUP1 ISZERO PUSH2 0x15E1 JUMPI RETURNDATASIZE PUSH1 0x0 DUP1 RETURNDATACOPY RETURNDATASIZE PUSH1 0x0 REVERT JUMPDEST POP POP POP POP POP PUSH32 0x0 PUSH1 0x1 PUSH1 0x1 PUSH1 0xA0 SHL SUB AND PUSH4 0xA9059CBB PUSH2 0x162C DUP5 DUP13 DUP13 PUSH1 0x0 DUP2 DUP2 LT PUSH2 0x5CD JUMPI PUSH2 0x5CD PUSH2 0x32A9 JUMP JUMPDEST DUP7 PUSH1 0x0 DUP2 MLOAD DUP2 LT PUSH2 0x163F JUMPI PUSH2 0x163F PUSH2 0x32A9 JUMP JUMPDEST PUSH1 0x20 MUL PUSH1 0x20 ADD ADD MLOAD PUSH1 0x40 MLOAD DUP4 PUSH4 0xFFFFFFFF AND PUSH1 0xE0 SHL DUP2 MSTORE PUSH1 0x4 ADD PUSH2 0x1678 SWAP3 SWAP2 SWAP1 PUSH1 0x1 PUSH1 0x1 PUSH1 0xA0 SHL SUB SWAP3 SWAP1 SWAP3 AND DUP3 MSTORE PUSH1 0x20 DUP3 ADD MSTORE PUSH1 0x40 ADD SWAP1 JUMP JUMPDEST PUSH1 0x20 PUSH1 0x40 MLOAD DUP1 DUP4 SUB DUP2 PUSH1 0x0 DUP8 DUP1 EXTCODESIZE ISZERO DUP1 ISZERO PUSH2 0x1692 JUMPI PUSH1 0x0 DUP1 REVERT JUMPDEST POP GAS CALL ISZERO DUP1 ISZERO PUSH2 0x16A6 JUMPI RETURNDATASIZE PUSH1 0x0 DUP1 RETURNDATACOPY RETURNDATASIZE PUSH1 0x0 REVERT JUMPDEST POP POP POP POP PUSH1 0x40 MLOAD RETURNDATASIZE PUSH1 0x1F NOT PUSH1 0x1F DUP3 ADD AND DUP3 ADD DUP1 PUSH1 0x40 MSTORE POP DUP2 ADD SWAP1 PUSH2 0x16CA SWAP2 SWAP1 PUSH2 0x2E0D JUMP JUMPDEST PUSH2 0x16D6 JUMPI PUSH2 0x16D6 PUSH2 0x327D JUMP JUMPDEST PUSH2 0x1309 DUP5 DUP11 DUP11 DUP1 DUP1 PUSH1 0x20 MUL PUSH1 0x20 ADD PUSH1 0x40 MLOAD SWAP1 DUP2 ADD PUSH1 0x40 MSTORE DUP1 SWAP4 SWAP3 SWAP2 SWAP1 DUP2 DUP2 MSTORE PUSH1 0x20 ADD DUP4 DUP4 PUSH1 0x20 MUL DUP1 DUP3 DUP5 CALLDATACOPY PUSH1 0x0 SWAP3 ADD SWAP2 SWAP1 SWAP2 MSTORE POP DUP13 SWAP3 POP DUP8 SWAP2 POP PUSH2 0x2500 SWAP1 POP JUMP JUMPDEST DUP2 TIMESTAMP DUP2 LT ISZERO PUSH2 0x1738 JUMPI PUSH1 0x40 MLOAD PUSH3 0x461BCD PUSH1 0xE5 SHL DUP2 MSTORE PUSH1 0x4 ADD PUSH2 0x402 SWAP1 PUSH2 0x30D7 JUMP JUMPDEST PUSH1 0x0 DUP3 PUSH1 0x1 PUSH1 0x1 PUSH1 0xA0 SHL SUB AND PUSH4 0xC45A0155 PUSH1 0x40 MLOAD DUP2 PUSH4 0xFFFFFFFF AND PUSH1 0xE0 SHL DUP2 MSTORE PUSH1 0x4 ADD PUSH1 0x20 PUSH1 0x40 MLOAD DUP1 DUP4 SUB DUP2 DUP7 DUP1 EXTCODESIZE ISZERO DUP1 ISZERO PUSH2 0x1773 JUMPI PUSH1 0x0 DUP1 REVERT JUMPDEST POP GAS STATICCALL ISZERO DUP1 ISZERO PUSH2 0x1787 JUMPI RETURNDATASIZE PUSH1 0x0 DUP1 RETURNDATACOPY RETURNDATASIZE PUSH1 0x0 REVERT JUMPDEST POP POP POP POP PUSH1 0x40 MLOAD RETURNDATASIZE PUSH1 0x1F NOT PUSH1 0x1F DUP3 ADD AND DUP3 ADD DUP1 PUSH1 0x40 MSTORE POP DUP2 ADD SWAP1 PUSH2 0x17AB SWAP2 SWAP1 PUSH2 0x2D2B JUMP JUMPDEST SWAP1 POP PUSH1 0x1 PUSH1 0x1 PUSH1 0xA0 SHL SUB PUSH32 0x0 AND DUP8 DUP8 PUSH2 0x17E4 PUSH1 0x1 DUP3 PUSH2 0x321B JUMP JUMPDEST DUP2 DUP2 LT PUSH2 0x17F3 JUMPI PUSH2 0x17F3 PUSH2 0x32A9 JUMP JUMPDEST SWAP1 POP PUSH1 0x20 MUL ADD PUSH1 0x20 DUP2 ADD SWAP1 PUSH2 0x1808 SWAP2 SWAP1 PUSH2 0x2D07 JUMP JUMPDEST PUSH1 0x1 PUSH1 0x1 PUSH1 0xA0 SHL SUB AND EQ PUSH2 0x182E JUMPI PUSH1 0x40 MLOAD PUSH3 0x461BCD PUSH1 0xE5 SHL DUP2 MSTORE PUSH1 0x4 ADD PUSH2 0x402 SWAP1 PUSH2 0x3057 JUMP JUMPDEST PUSH2 0x186A DUP8 DUP8 DUP1 DUP1 PUSH1 0x20 MUL PUSH1 0x20 ADD PUSH1 0x40 MLOAD SWAP1 DUP2 ADD PUSH1 0x40 MSTORE DUP1 SWAP4 SWAP3 SWAP2 SWAP1 DUP2 DUP2 MSTORE PUSH1 0x20 ADD DUP4 DUP4 PUSH1 0x20 MUL DUP1 DUP3 DUP5 CALLDATACOPY PUSH1 0x0 SWAP3 ADD SWAP2 SWAP1 SWAP2 MSTORE POP PUSH2 0x2308 SWAP3 POP POP POP JUMP JUMPDEST POP PUSH2 0x18B4 DUP8 DUP8 PUSH1 0x0 DUP2 DUP2 LT PUSH2 0x1881 JUMPI PUSH2 0x1881 PUSH2 0x32A9 JUMP JUMPDEST SWAP1 POP PUSH1 0x20 MUL ADD PUSH1 0x20 DUP2 ADD SWAP1 PUSH2 0x1896 SWAP2 SWAP1 PUSH2 0x2D07 JUMP JUMPDEST CALLER PUSH2 0x18AE DUP5 DUP12 DUP12 PUSH1 0x0 DUP2 DUP2 LT PUSH2 0x8AA JUMPI PUSH2 0x8AA PUSH2 0x32A9 JUMP JUMPDEST DUP13 PUSH2 0x23D0 JUMP JUMPDEST PUSH2 0x18F5 DUP8 DUP8 DUP1 DUP1 PUSH1 0x20 MUL PUSH1 0x20 ADD PUSH1 0x40 MLOAD SWAP1 DUP2 ADD PUSH1 0x40 MSTORE DUP1 SWAP4 SWAP3 SWAP2 SWAP1 DUP2 DUP2 MSTORE PUSH1 0x20 ADD DUP4 DUP4 PUSH1 0x20 MUL DUP1 DUP3 DUP5 CALLDATACOPY PUSH1 0x0 SWAP3 ADD SWAP2 SWAP1 SWAP2 MSTORE POP ADDRESS SWAP3 POP DUP6 SWAP2 POP DUP8 SWAP1 POP PUSH2 0x26C9 JUMP JUMPDEST PUSH1 0x40 MLOAD PUSH4 0x70A08231 PUSH1 0xE0 SHL DUP2 MSTORE ADDRESS PUSH1 0x4 DUP3 ADD MSTORE PUSH1 0x0 SWAP1 PUSH32 0x0 PUSH1 0x1 PUSH1 0x1 PUSH1 0xA0 SHL SUB AND SWAP1 PUSH4 0x70A08231 SWAP1 PUSH1 0x24 ADD PUSH1 0x20 PUSH1 0x40 MLOAD DUP1 DUP4 SUB DUP2 DUP7 DUP1 EXTCODESIZE ISZERO DUP1 ISZERO PUSH2 0x1957 JUMPI PUSH1 0x0 DUP1 REVERT JUMPDEST POP GAS STATICCALL ISZERO DUP1 ISZERO PUSH2 0x196B JUMPI RETURNDATASIZE PUSH1 0x0 DUP1 RETURNDATACOPY RETURNDATASIZE PUSH1 0x0 REVERT JUMPDEST POP POP POP POP PUSH1 0x40 MLOAD RETURNDATASIZE PUSH1 0x1F NOT PUSH1 0x1F DUP3 ADD AND DUP3 ADD DUP1 PUSH1 0x40 MSTORE POP DUP2 ADD SWAP1 PUSH2 0x198F SWAP2 SWAP1 PUSH2 0x2E98 JUMP JUMPDEST SWAP1 POP DUP9 DUP2 LT ISZERO PUSH2 0x19B1 JUMPI PUSH1 0x40 MLOAD PUSH3 0x461BCD PUSH1 0xE5 SHL DUP2 MSTORE PUSH1 0x4 ADD PUSH2 0x402 SWAP1 PUSH2 0x308E JUMP JUMPDEST PUSH1 0x40 MLOAD PUSH4 0x2E1A7D4D PUSH1 0xE0 SHL DUP2 MSTORE PUSH1 0x4 DUP2 ADD DUP3 SWAP1 MSTORE PUSH32 0x0 PUSH1 0x1 PUSH1 0x1 PUSH1 0xA0 SHL SUB AND SWAP1 PUSH4 0x2E1A7D4D SWAP1 PUSH1 0x24 ADD PUSH1 0x0 PUSH1 0x40 MLOAD DUP1 DUP4 SUB DUP2 PUSH1 0x0 DUP8 DUP1 EXTCODESIZE ISZERO DUP1 ISZERO PUSH2 0x1A13 JUMPI PUSH1 0x0 DUP1 REVERT JUMPDEST POP GAS CALL ISZERO DUP1 ISZERO PUSH2 0x1A27 JUMPI RETURNDATASIZE PUSH1 0x0 DUP1 RETURNDATACOPY RETURNDATASIZE PUSH1 0x0 REVERT JUMPDEST POP POP POP POP PUSH2 0xB25 DUP7 DUP3 PUSH2 0x2870 JUMP JUMPDEST PUSH1 0x0 SLOAD PUSH1 0x1 PUSH1 0x1 PUSH1 0xA0 SHL SUB AND CALLER EQ PUSH2 0x1A5F JUMPI PUSH1 0x40 MLOAD PUSH3 0x461BCD PUSH1 0xE5 SHL DUP2 MSTORE PUSH1 0x4 ADD PUSH2 0x402 SWAP1 PUSH2 0x3107 JUMP JUMPDEST PUSH1 0x3 SSTORE JUMP JUMPDEST PUSH1 0x0 SLOAD PUSH1 0x1 PUSH1 0x1 PUSH1 0xA0 SHL SUB AND CALLER EQ PUSH2 0x1A8E JUMPI PUSH1 0x40 MLOAD PUSH3 0x461BCD PUSH1 0xE5 SHL DUP2 MSTORE PUSH1 0x4 ADD PUSH2 0x402 SWAP1 PUSH2 0x3107 JUMP JUMPDEST PUSH1 0x0 DUP1 SLOAD PUSH1 0x40 MLOAD PUSH1 0x1 PUSH1 0x1 PUSH1 0xA0 SHL SUB SWAP1 SWAP2 AND SWAP1 PUSH32 0x8BE0079C531659141344CD1FD0A4F28419497F9722A3DAAFE3B4186F6B6457E0 SWAP1 DUP4 SWAP1 LOG3 PUSH1 0x0 DUP1 SLOAD PUSH1 0x1 PUSH1 0x1 PUSH1 0xA0 SHL SUB NOT AND SWAP1 SSTORE JUMP JUMPDEST PUSH1 0x60 DUP3 TIMESTAMP DUP2 LT ISZERO PUSH2 0x1AFB JUMPI PUSH1 0x40 MLOAD PUSH3 0x461BCD PUSH1 0xE5 SHL DUP2 MSTORE PUSH1 0x4 ADD PUSH2 0x402 SWAP1 PUSH2 0x30D7 JUMP JUMPDEST PUSH1 0x0 DUP4 PUSH1 0x1 PUSH1 0x1 PUSH1 0xA0 SHL SUB AND PUSH4 0xC45A0155 PUSH1 0x40 MLOAD DUP2 PUSH4 0xFFFFFFFF AND PUSH1 0xE0 SHL DUP2 MSTORE PUSH1 0x4 ADD PUSH1 0x20 PUSH1 0x40 MLOAD DUP1 DUP4 SUB DUP2 DUP7 DUP1 EXTCODESIZE ISZERO DUP1 ISZERO PUSH2 0x1B36 JUMPI PUSH1 0x0 DUP1 REVERT JUMPDEST POP GAS STATICCALL ISZERO DUP1 ISZERO PUSH2 0x1B4A JUMPI RETURNDATASIZE PUSH1 0x0 DUP1 RETURNDATACOPY RETURNDATASIZE PUSH1 0x0 REVERT JUMPDEST POP POP POP POP PUSH1 0x40 MLOAD RETURNDATASIZE PUSH1 0x1F NOT PUSH1 0x1F DUP3 ADD AND DUP3 ADD DUP1 PUSH1 0x40 MSTORE POP DUP2 ADD SWAP1 PUSH2 0x1B6E SWAP2 SWAP1 PUSH2 0x2D2B JUMP JUMPDEST SWAP1 POP PUSH1 0x1 PUSH1 0x1 PUSH1 0xA0 SHL SUB PUSH32 0x0 AND DUP9 DUP9 PUSH2 0x1BA7 PUSH1 0x1 DUP3 PUSH2 0x321B JUMP JUMPDEST DUP2 DUP2 LT PUSH2 0x1BB6 JUMPI PUSH2 0x1BB6 PUSH2 0x32A9 JUMP JUMPDEST SWAP1 POP PUSH1 0x20 MUL ADD PUSH1 0x20 DUP2 ADD SWAP1 PUSH2 0x1BCB SWAP2 SWAP1 PUSH2 0x2D07 JUMP JUMPDEST PUSH1 0x1 PUSH1 0x1 PUSH1 0xA0 SHL SUB AND EQ PUSH2 0x1BF1 JUMPI PUSH1 0x40 MLOAD PUSH3 0x461BCD PUSH1 0xE5 SHL DUP2 MSTORE PUSH1 0x4 ADD PUSH2 0x402 SWAP1 PUSH2 0x3057 JUMP JUMPDEST PUSH1 0x40 MLOAD PUSH4 0x7C0329D PUSH1 0xE2 SHL DUP2 MSTORE PUSH1 0x1 PUSH1 0x1 PUSH1 0xA0 SHL SUB DUP6 AND SWAP1 PUSH4 0x1F00CA74 SWAP1 PUSH2 0x1C21 SWAP1 DUP14 SWAP1 DUP13 SWAP1 DUP13 SWAP1 PUSH1 0x4 ADD PUSH2 0x313C JUMP JUMPDEST PUSH1 0x0 PUSH1 0x40 MLOAD DUP1 DUP4 SUB DUP2 DUP7 DUP1 EXTCODESIZE ISZERO DUP1 ISZERO PUSH2 0x1C39 JUMPI PUSH1 0x0 DUP1 REVERT JUMPDEST POP GAS STATICCALL ISZERO DUP1 ISZERO PUSH2 0x1C4D JUMPI RETURNDATASIZE PUSH1 0x0 DUP1 RETURNDATACOPY RETURNDATASIZE PUSH1 0x0 REVERT JUMPDEST POP POP POP POP PUSH1 0x40 MLOAD RETURNDATASIZE PUSH1 0x0 DUP3 RETURNDATACOPY PUSH1 0x1F RETURNDATASIZE SWAP1 DUP2 ADD PUSH1 0x1F NOT AND DUP3 ADD PUSH1 0x40 MSTORE PUSH2 0x1C75 SWAP2 SWAP1 DUP2 ADD SWAP1 PUSH2 0x2D48 JUMP JUMPDEST SWAP3 POP PUSH2 0x1CB3 DUP9 DUP9 DUP1 DUP1 PUSH1 0x20 MUL PUSH1 0x20 ADD PUSH1 0x40 MLOAD SWAP1 DUP2 ADD PUSH1 0x40 MSTORE DUP1 SWAP4 SWAP3 SWAP2 SWAP1 DUP2 DUP2 MSTORE PUSH1 0x20 ADD DUP4 DUP4 PUSH1 0x20 MUL DUP1 DUP3 DUP5 CALLDATACOPY PUSH1 0x0 SWAP3 ADD SWAP2 SWAP1 SWAP2 MSTORE POP PUSH2 0x2308 SWAP3 POP POP POP JUMP JUMPDEST POP DUP9 DUP4 PUSH1 0x0 DUP2 MLOAD DUP2 LT PUSH2 0x1CC8 JUMPI PUSH2 0x1CC8 PUSH2 0x32A9 JUMP JUMPDEST PUSH1 0x20 MUL PUSH1 0x20 ADD ADD MLOAD GT ISZERO PUSH2 0xD53 JUMPI PUSH1 0x40 MLOAD PUSH3 0x461BCD PUSH1 0xE5 SHL DUP2 MSTORE PUSH1 0x4 ADD PUSH2 0x402 SWAP1 PUSH2 0x3014 JUMP JUMPDEST PUSH1 0x60 DUP3 TIMESTAMP DUP2 LT ISZERO PUSH2 0x1D11 JUMPI PUSH1 0x40 MLOAD PUSH3 0x461BCD PUSH1 0xE5 SHL DUP2 MSTORE PUSH1 0x4 ADD PUSH2 0x402 SWAP1 PUSH2 0x30D7 JUMP JUMPDEST PUSH2 0x1D4D DUP8 DUP8 DUP1 DUP1 PUSH1 0x20 MUL PUSH1 0x20 ADD PUSH1 0x40 MLOAD SWAP1 DUP2 ADD PUSH1 0x40 MSTORE DUP1 SWAP4 SWAP3 SWAP2 SWAP1 DUP2 DUP2 MSTORE PUSH1 0x20 ADD DUP4 DUP4 PUSH1 0x20 MUL DUP1 DUP3 DUP5 CALLDATACOPY PUSH1 0x0 SWAP3 ADD SWAP2 SWAP1 SWAP2 MSTORE POP PUSH2 0x2308 SWAP3 POP POP POP JUMP JUMPDEST POP PUSH1 0x0 DUP4 PUSH1 0x1 PUSH1 0x1 PUSH1 0xA0 SHL SUB AND PUSH4 0xC45A0155 PUSH1 0x40 MLOAD DUP2 PUSH4 0xFFFFFFFF AND PUSH1 0xE0 SHL DUP2 MSTORE PUSH1 0x4 ADD PUSH1 0x20 PUSH1 0x40 MLOAD DUP1 DUP4 SUB DUP2 DUP7 DUP1 EXTCODESIZE ISZERO DUP1 ISZERO PUSH2 0x1D89 JUMPI PUSH1 0x0 DUP1 REVERT JUMPDEST POP GAS STATICCALL ISZERO DUP1 ISZERO PUSH2 0x1D9D JUMPI RETURNDATASIZE PUSH1 0x0 DUP1 RETURNDATACOPY RETURNDATASIZE PUSH1 0x0 REVERT JUMPDEST POP POP POP POP PUSH1 0x40 MLOAD RETURNDATASIZE PUSH1 0x1F NOT PUSH1 0x1F DUP3 ADD AND DUP3 ADD DUP1 PUSH1 0x40 MSTORE POP DUP2 ADD SWAP1 PUSH2 0x1DC1 SWAP2 SWAP1 PUSH2 0x2D2B JUMP JUMPDEST PUSH1 0x40 MLOAD PUSH4 0x7C0329D PUSH1 0xE2 SHL DUP2 MSTORE SWAP1 SWAP2 POP PUSH1 0x1 PUSH1 0x1 PUSH1 0xA0 SHL SUB DUP6 AND SWAP1 PUSH4 0x1F00CA74 SWAP1 PUSH2 0x1DF4 SWAP1 DUP14 SWAP1 DUP13 SWAP1 DUP13 SWAP1 PUSH1 0x4 ADD PUSH2 0x313C JUMP JUMPDEST PUSH1 0x0 PUSH1 0x40 MLOAD DUP1 DUP4 SUB DUP2 DUP7 DUP1 EXTCODESIZE ISZERO DUP1 ISZERO PUSH2 0x1E0C JUMPI PUSH1 0x0 DUP1 REVERT JUMPDEST POP GAS STATICCALL ISZERO DUP1 ISZERO PUSH2 0x1E20 JUMPI RETURNDATASIZE PUSH1 0x0 DUP1 RETURNDATACOPY RETURNDATASIZE PUSH1 0x0 REVERT JUMPDEST POP POP POP POP PUSH1 0x40 MLOAD RETURNDATASIZE PUSH1 0x0 DUP3 RETURNDATACOPY PUSH1 0x1F RETURNDATASIZE SWAP1 DUP2 ADD PUSH1 0x1F NOT AND DUP3 ADD PUSH1 0x40 MSTORE PUSH2 0x1E48 SWAP2 SWAP1 DUP2 ADD SWAP1 PUSH2 0x2D48 JUMP JUMPDEST SWAP3 POP DUP9 DUP4 PUSH1 0x0 DUP2 MLOAD DUP2 LT PUSH2 0x1E5E JUMPI PUSH2 0x1E5E PUSH2 0x32A9 JUMP JUMPDEST PUSH1 0x20 MUL PUSH1 0x20 ADD ADD MLOAD GT ISZERO PUSH2 0x58A JUMPI PUSH1 0x40 MLOAD PUSH3 0x461BCD PUSH1 0xE5 SHL DUP2 MSTORE PUSH1 0x20 PUSH1 0x4 DUP3 ADD MSTORE PUSH1 0x25 PUSH1 0x24 DUP3 ADD MSTORE PUSH32 0x4D617253776170526F757465723A204558434553534956455F494E5055545F41 PUSH1 0x44 DUP3 ADD MSTORE PUSH5 0x1353D55395 PUSH1 0xDA SHL PUSH1 0x64 DUP3 ADD MSTORE PUSH1 0x84 ADD PUSH2 0x402 JUMP JUMPDEST PUSH1 0x0 SLOAD PUSH1 0x1 PUSH1 0x1 PUSH1 0xA0 SHL SUB AND CALLER EQ PUSH2 0x1EEC JUMPI PUSH1 0x40 MLOAD PUSH3 0x461BCD PUSH1 0xE5 SHL DUP2 MSTORE PUSH1 0x4 ADD PUSH2 0x402 SWAP1 PUSH2 0x3107 JUMP JUMPDEST PUSH1 0x40 MLOAD PUSH4 0x70A08231 PUSH1 0xE0 SHL DUP2 MSTORE ADDRESS PUSH1 0x4 DUP3 ADD MSTORE PUSH1 0x1 PUSH1 0x1 PUSH1 0xA0 SHL SUB DUP3 AND SWAP1 PUSH4 0xA9059CBB SWAP1 CALLER SWAP1 DUP4 SWAP1 PUSH4 0x70A08231 SWAP1 PUSH1 0x24 ADD PUSH1 0x20 PUSH1 0x40 MLOAD DUP1 DUP4 SUB DUP2 DUP7 DUP1 EXTCODESIZE ISZERO DUP1 ISZERO PUSH2 0x1F35 JUMPI PUSH1 0x0 DUP1 REVERT JUMPDEST POP GAS STATICCALL ISZERO DUP1 ISZERO PUSH2 0x1F49 JUMPI RETURNDATASIZE PUSH1 0x0 DUP1 RETURNDATACOPY RETURNDATASIZE PUSH1 0x0 REVERT JUMPDEST POP POP POP POP PUSH1 0x40 MLOAD RETURNDATASIZE PUSH1 0x1F NOT PUSH1 0x1F DUP3 ADD AND DUP3 ADD DUP1 PUSH1 0x40 MSTORE POP DUP2 ADD SWAP1 PUSH2 0x1F6D SWAP2 SWAP1 PUSH2 0x2E98 JUMP JUMPDEST PUSH1 0x40 MLOAD PUSH1 0x1 PUSH1 0x1 PUSH1 0xE0 SHL SUB NOT PUSH1 0xE0 DUP6 SWAP1 SHL AND DUP2 MSTORE PUSH1 0x1 PUSH1 0x1 PUSH1 0xA0 SHL SUB SWAP1 SWAP3 AND PUSH1 0x4 DUP4 ADD MSTORE PUSH1 0x24 DUP3 ADD MSTORE PUSH1 0x44 ADD PUSH1 0x20 PUSH1 0x40 MLOAD DUP1 DUP4 SUB DUP2 PUSH1 0x0 DUP8 DUP1 EXTCODESIZE ISZERO DUP1 ISZERO PUSH2 0x1FB3 JUMPI PUSH1 0x0 DUP1 REVERT JUMPDEST POP GAS CALL ISZERO DUP1 ISZERO PUSH2 0x1FC7 JUMPI RETURNDATASIZE PUSH1 0x0 DUP1 RETURNDATACOPY RETURNDATASIZE PUSH1 0x0 REVERT JUMPDEST POP POP POP POP PUSH1 0x40 MLOAD RETURNDATASIZE PUSH1 0x1F NOT PUSH1 0x1F DUP3 ADD AND DUP3 ADD DUP1 PUSH1 0x40 MSTORE POP DUP2 ADD SWAP1 PUSH2 0x1FEB SWAP2 SWAP1 PUSH2 0x2E0D JUMP JUMPDEST POP POP JUMP JUMPDEST PUSH1 0x0 SLOAD PUSH1 0x1 PUSH1 0x1 PUSH1 0xA0 SHL SUB AND CALLER EQ PUSH2 0x2019 JUMPI PUSH1 0x40 MLOAD PUSH3 0x461BCD PUSH1 0xE5 SHL DUP2 MSTORE PUSH1 0x4 ADD PUSH2 0x402 SWAP1 PUSH2 0x3107 JUMP JUMPDEST PUSH1 0x2 DUP1 SLOAD PUSH1 0x1 PUSH1 0x1 PUSH1 0xA0 SHL SUB NOT AND PUSH1 0x1 PUSH1 0x1 PUSH1 0xA0 SHL SUB SWAP3 SWAP1 SWAP3 AND SWAP2 SWAP1 SWAP2 OR SWAP1 SSTORE JUMP JUMPDEST PUSH1 0x0 SLOAD PUSH1 0x1 PUSH1 0x1 PUSH1 0xA0 SHL SUB AND CALLER EQ PUSH2 0x2065 JUMPI PUSH1 0x40 MLOAD PUSH3 0x461BCD PUSH1 0xE5 SHL DUP2 MSTORE PUSH1 0x4 ADD PUSH2 0x402 SWAP1 PUSH2 0x3107 JUMP JUMPDEST PUSH1 0x40 MLOAD CALLER SWAP1 ADDRESS BALANCE DUP1 ISZERO PUSH2 0x8FC MUL SWAP2 PUSH1 0x0 DUP2 DUP2 DUP2 DUP6 DUP9 DUP9 CALL SWAP4 POP POP POP POP ISZERO DUP1 ISZERO PUSH2 0x2092 JUMPI RETURNDATASIZE PUSH1 0x0 DUP1 RETURNDATACOPY RETURNDATASIZE PUSH1 0x0 REVERT JUMPDEST POP JUMP JUMPDEST PUSH1 0x0 SLOAD PUSH1 0x1 PUSH1 0x1 PUSH1 0xA0 SHL SUB AND CALLER EQ PUSH2 0x20BF JUMPI PUSH1 0x40 MLOAD PUSH3 0x461BCD PUSH1 0xE5 SHL DUP2 MSTORE PUSH1 0x4 ADD PUSH2 0x402 SWAP1 PUSH2 0x3107 JUMP JUMPDEST PUSH2 0x2092 DUP2 PUSH2 0x293E JUMP JUMPDEST DUP2 TIMESTAMP DUP2 LT ISZERO PUSH2 0x20E9 JUMPI PUSH1 0x40 MLOAD PUSH3 0x461BCD PUSH1 0xE5 SHL DUP2 MSTORE PUSH1 0x4 ADD PUSH2 0x402 SWAP1 PUSH2 0x30D7 JUMP JUMPDEST PUSH2 0x2125 DUP7 DUP7 DUP1 DUP1 PUSH1 0x20 MUL PUSH1 0x20 ADD PUSH1 0x40 MLOAD SWAP1 DUP2 ADD PUSH1 0x40 MSTORE DUP1 SWAP4 SWAP3 SWAP2 SWAP1 DUP2 DUP2 MSTORE PUSH1 0x20 ADD DUP4 DUP4 PUSH1 0x20 MUL DUP1 DUP3 DUP5 CALLDATACOPY PUSH1 0x0 SWAP3 ADD SWAP2 SWAP1 SWAP2 MSTORE POP PUSH2 0x2308 SWAP3 POP POP POP JUMP JUMPDEST POP PUSH1 0x0 DUP3 PUSH1 0x1 PUSH1 0x1 PUSH1 0xA0 SHL SUB AND PUSH4 0xC45A0155 PUSH1 0x40 MLOAD DUP2 PUSH4 0xFFFFFFFF AND PUSH1 0xE0 SHL DUP2 MSTORE PUSH1 0x4 ADD PUSH1 0x20 PUSH1 0x40 MLOAD DUP1 DUP4 SUB DUP2 DUP7 DUP1 EXTCODESIZE ISZERO DUP1 ISZERO PUSH2 0x2161 JUMPI PUSH1 0x0 DUP1 REVERT JUMPDEST POP GAS STATICCALL ISZERO DUP1 ISZERO PUSH2 0x2175 JUMPI RETURNDATASIZE PUSH1 0x0 DUP1 RETURNDATACOPY RETURNDATASIZE PUSH1 0x0 REVERT JUMPDEST POP POP POP POP PUSH1 0x40 MLOAD RETURNDATASIZE PUSH1 0x1F NOT PUSH1 0x1F DUP3 ADD AND DUP3 ADD DUP1 PUSH1 0x40 MSTORE POP DUP2 ADD SWAP1 PUSH2 0x2199 SWAP2 SWAP1 PUSH2 0x2D2B JUMP JUMPDEST SWAP1 POP PUSH2 0x21B1 DUP8 DUP8 PUSH1 0x0 DUP2 DUP2 LT PUSH2 0x1881 JUMPI PUSH2 0x1881 PUSH2 0x32A9 JUMP JUMPDEST PUSH1 0x0 DUP8 DUP8 PUSH2 0x21C0 PUSH1 0x1 DUP3 PUSH2 0x321B JUMP JUMPDEST DUP2 DUP2 LT PUSH2 0x21CF JUMPI PUSH2 0x21CF PUSH2 0x32A9 JUMP JUMPDEST SWAP1 POP PUSH1 0x20 MUL ADD PUSH1 0x20 DUP2 ADD SWAP1 PUSH2 0x21E4 SWAP2 SWAP1 PUSH2 0x2D07 JUMP JUMPDEST PUSH1 0x40 MLOAD PUSH4 0x70A08231 PUSH1 0xE0 SHL DUP2 MSTORE PUSH1 0x1 PUSH1 0x1 PUSH1 0xA0 SHL SUB DUP9 DUP2 AND PUSH1 0x4 DUP4 ADD MSTORE SWAP2 SWAP1 SWAP2 AND SWAP1 PUSH4 0x70A08231 SWAP1 PUSH1 0x24 ADD PUSH1 0x20 PUSH1 0x40 MLOAD DUP1 DUP4 SUB DUP2 DUP7 DUP1 EXTCODESIZE ISZERO DUP1 ISZERO PUSH2 0x2227 JUMPI PUSH1 0x0 DUP1 REVERT JUMPDEST POP GAS STATICCALL ISZERO DUP1 ISZERO PUSH2 0x223B JUMPI RETURNDATASIZE PUSH1 0x0 DUP1 RETURNDATACOPY RETURNDATASIZE PUSH1 0x0 REVERT JUMPDEST POP POP POP POP PUSH1 0x40 MLOAD RETURNDATASIZE PUSH1 0x1F NOT PUSH1 0x1F DUP3 ADD AND DUP3 ADD DUP1 PUSH1 0x40 MSTORE POP DUP2 ADD SWAP1 PUSH2 0x225F SWAP2 SWAP1 PUSH2 0x2E98 JUMP JUMPDEST SWAP1 POP PUSH2 0x22A2 DUP9 DUP9 DUP1 DUP1 PUSH1 0x20 MUL PUSH1 0x20 ADD PUSH1 0x40 MLOAD SWAP1 DUP2 ADD PUSH1 0x40 MSTORE DUP1 SWAP4 SWAP3 SWAP2 SWAP1 DUP2 DUP2 MSTORE PUSH1 0x20 ADD DUP4 DUP4 PUSH1 0x20 MUL DUP1 DUP3 DUP5 CALLDATACOPY PUSH1 0x0 SWAP3 ADD SWAP2 SWAP1 SWAP2 MSTORE POP DUP11 SWAP3 POP DUP7 SWAP2 POP DUP9 SWAP1 POP PUSH2 0x26C9 JUMP JUMPDEST DUP9 PUSH2 0xB07 DUP3 DUP11 DUP11 PUSH2 0x22B4 PUSH1 0x1 DUP3 PUSH2 0x321B JUMP JUMPDEST DUP2 DUP2 LT PUSH2 0x22C3 JUMPI PUSH2 0x22C3 PUSH2 0x32A9 JUMP JUMPDEST SWAP1 POP PUSH1 0x20 MUL ADD PUSH1 0x20 DUP2 ADD SWAP1 PUSH2 0x22D8 SWAP2 SWAP1 PUSH2 0x2D07 JUMP JUMPDEST PUSH1 0x40 MLOAD PUSH4 0x70A08231 PUSH1 0xE0 SHL DUP2 MSTORE PUSH1 0x1 PUSH1 0x1 PUSH1 0xA0 SHL SUB DUP12 DUP2 AND PUSH1 0x4 DUP4 ADD MSTORE SWAP2 SWAP1 SWAP2 AND SWAP1 PUSH4 0x70A08231 SWAP1 PUSH1 0x24 ADD PUSH2 0xAB1 JUMP JUMPDEST PUSH1 0x0 PUSH1 0x1 DUP3 MLOAD PUSH2 0x2318 SWAP2 SWAP1 PUSH2 0x321B JUMP JUMPDEST PUSH1 0x3 SLOAD PUSH2 0x2325 SWAP2 SWAP1 PUSH2 0x31FC JUMP JUMPDEST PUSH1 0x2 SLOAD SWAP1 SWAP2 POP PUSH2 0x233E SWAP1 PUSH1 0x1 PUSH1 0x1 PUSH1 0xA0 SHL SUB AND DUP3 PUSH2 0x2870 JUMP JUMPDEST SWAP2 SWAP1 POP JUMP JUMPDEST PUSH1 0x40 MLOAD PUSH4 0xE6A43905 PUSH1 0xE0 SHL DUP2 MSTORE PUSH1 0x1 PUSH1 0x1 PUSH1 0xA0 SHL SUB DUP4 DUP2 AND PUSH1 0x4 DUP4 ADD MSTORE DUP3 DUP2 AND PUSH1 0x24 DUP4 ADD MSTORE PUSH1 0x0 SWAP2 SWAP1 DUP6 AND SWAP1 PUSH4 0xE6A43905 SWAP1 PUSH1 0x44 ADD PUSH1 0x20 PUSH1 0x40 MLOAD DUP1 DUP4 SUB DUP2 DUP7 DUP1 EXTCODESIZE ISZERO DUP1 ISZERO PUSH2 0x2390 JUMPI PUSH1 0x0 DUP1 REVERT JUMPDEST POP GAS STATICCALL ISZERO DUP1 ISZERO PUSH2 0x23A4 JUMPI RETURNDATASIZE PUSH1 0x0 DUP1 RETURNDATACOPY RETURNDATASIZE PUSH1 0x0 REVERT JUMPDEST POP POP POP POP PUSH1 0x40 MLOAD RETURNDATASIZE PUSH1 0x1F NOT PUSH1 0x1F DUP3 ADD AND DUP3 ADD DUP1 PUSH1 0x40 MSTORE POP DUP2 ADD SWAP1 PUSH2 0x23C8 SWAP2 SWAP1 PUSH2 0x2D2B JUMP JUMPDEST SWAP5 SWAP4 POP POP POP POP JUMP JUMPDEST PUSH1 0x40 DUP1 MLOAD PUSH1 0x1 PUSH1 0x1 PUSH1 0xA0 SHL SUB DUP6 DUP2 AND PUSH1 0x24 DUP4 ADD MSTORE DUP5 DUP2 AND PUSH1 0x44 DUP4 ADD MSTORE PUSH1 0x64 DUP1 DUP4 ADD DUP6 SWAP1 MSTORE DUP4 MLOAD DUP1 DUP5 SUB SWAP1 SWAP2 ADD DUP2 MSTORE PUSH1 0x84 SWAP1 SWAP3 ADD DUP4 MSTORE PUSH1 0x20 DUP3 ADD DUP1 MLOAD PUSH1 0x1 PUSH1 0x1 PUSH1 0xE0 SHL SUB AND PUSH4 0x23B872DD PUSH1 0xE0 SHL OR SWAP1 MSTORE SWAP2 MLOAD PUSH1 0x0 SWAP3 DUP4 SWAP3 SWAP1 DUP9 AND SWAP2 PUSH2 0x2434 SWAP2 SWAP1 PUSH2 0x2FB4 JUMP JUMPDEST PUSH1 0x0 PUSH1 0x40 MLOAD DUP1 DUP4 SUB DUP2 PUSH1 0x0 DUP7 GAS CALL SWAP2 POP POP RETURNDATASIZE DUP1 PUSH1 0x0 DUP2 EQ PUSH2 0x2471 JUMPI PUSH1 0x40 MLOAD SWAP2 POP PUSH1 0x1F NOT PUSH1 0x3F RETURNDATASIZE ADD AND DUP3 ADD PUSH1 0x40 MSTORE RETURNDATASIZE DUP3 MSTORE RETURNDATASIZE PUSH1 0x0 PUSH1 0x20 DUP5 ADD RETURNDATACOPY PUSH2 0x2476 JUMP JUMPDEST PUSH1 0x60 SWAP2 POP JUMPDEST POP SWAP2 POP SWAP2 POP DUP2 DUP1 ISZERO PUSH2 0x24A0 JUMPI POP DUP1 MLOAD ISZERO DUP1 PUSH2 0x24A0 JUMPI POP DUP1 DUP1 PUSH1 0x20 ADD SWAP1 MLOAD DUP2 ADD SWAP1 PUSH2 0x24A0 SWAP2 SWAP1 PUSH2 0x2E0D JUMP JUMPDEST PUSH2 0x24F8 JUMPI PUSH1 0x40 MLOAD PUSH3 0x461BCD PUSH1 0xE5 SHL DUP2 MSTORE PUSH1 0x20 PUSH1 0x4 DUP3 ADD MSTORE PUSH1 0x24 DUP1 DUP3 ADD MSTORE PUSH32 0x5472616E7366657248656C7065723A205452414E534645525F46524F4D5F4641 PUSH1 0x44 DUP3 ADD MSTORE PUSH4 0x12531151 PUSH1 0xE2 SHL PUSH1 0x64 DUP3 ADD MSTORE PUSH1 0x84 ADD PUSH2 0x402 JUMP JUMPDEST POP POP POP POP POP POP JUMP JUMPDEST PUSH1 0x0 JUMPDEST PUSH1 0x1 DUP5 MLOAD PUSH2 0x2511 SWAP2 SWAP1 PUSH2 0x321B JUMP JUMPDEST DUP2 LT ISZERO PUSH2 0x26C2 JUMPI PUSH1 0x0 DUP1 DUP6 DUP4 DUP2 MLOAD DUP2 LT PUSH2 0x252D JUMPI PUSH2 0x252D PUSH2 0x32A9 JUMP JUMPDEST PUSH1 0x20 MUL PUSH1 0x20 ADD ADD MLOAD DUP7 DUP5 PUSH1 0x1 PUSH2 0x2543 SWAP2 SWAP1 PUSH2 0x31E4 JUMP JUMPDEST DUP2 MLOAD DUP2 LT PUSH2 0x2553 JUMPI PUSH2 0x2553 PUSH2 0x32A9 JUMP JUMPDEST PUSH1 0x20 MUL PUSH1 0x20 ADD ADD MLOAD SWAP2 POP SWAP2 POP PUSH1 0x0 PUSH2 0x256B DUP4 DUP4 PUSH2 0x29FE JUMP JUMPDEST POP SWAP1 POP PUSH1 0x0 DUP9 PUSH2 0x257C DUP7 PUSH1 0x1 PUSH2 0x31E4 JUMP JUMPDEST DUP2 MLOAD DUP2 LT PUSH2 0x258C JUMPI PUSH2 0x258C PUSH2 0x32A9 JUMP JUMPDEST PUSH1 0x20 MUL PUSH1 0x20 ADD ADD MLOAD SWAP1 POP PUSH1 0x0 DUP1 DUP4 PUSH1 0x1 PUSH1 0x1 PUSH1 0xA0 SHL SUB AND DUP7 PUSH1 0x1 PUSH1 0x1 PUSH1 0xA0 SHL SUB AND EQ PUSH2 0x25BA JUMPI DUP3 PUSH1 0x0 PUSH2 0x25BE JUMP JUMPDEST PUSH1 0x0 DUP4 JUMPDEST SWAP2 POP SWAP2 POP PUSH1 0x0 PUSH1 0x2 DUP12 MLOAD PUSH2 0x25D2 SWAP2 SWAP1 PUSH2 0x321B JUMP JUMPDEST DUP9 LT PUSH2 0x25DE JUMPI DUP10 PUSH2 0x260C JUMP JUMPDEST PUSH2 0x260C DUP10 DUP8 DUP14 PUSH2 0x25EF DUP13 PUSH1 0x2 PUSH2 0x31E4 JUMP JUMPDEST DUP2 MLOAD DUP2 LT PUSH2 0x25FF JUMPI PUSH2 0x25FF PUSH2 0x32A9 JUMP JUMPDEST PUSH1 0x20 MUL PUSH1 0x20 ADD ADD MLOAD PUSH2 0x2343 JUMP JUMPDEST SWAP1 POP PUSH2 0x2619 DUP10 DUP9 DUP9 PUSH2 0x2343 JUMP JUMPDEST PUSH1 0x1 PUSH1 0x1 PUSH1 0xA0 SHL SUB AND PUSH4 0x22C0D9F DUP5 DUP5 DUP5 PUSH1 0x0 PUSH1 0x40 MLOAD SWAP1 DUP1 DUP3 MSTORE DUP1 PUSH1 0x1F ADD PUSH1 0x1F NOT AND PUSH1 0x20 ADD DUP3 ADD PUSH1 0x40 MSTORE DUP1 ISZERO PUSH2 0x2656 JUMPI PUSH1 0x20 DUP3 ADD DUP2 DUP1 CALLDATASIZE DUP4 CALLDATACOPY ADD SWAP1 POP JUMPDEST POP PUSH1 0x40 MLOAD DUP6 PUSH4 0xFFFFFFFF AND PUSH1 0xE0 SHL DUP2 MSTORE PUSH1 0x4 ADD PUSH2 0x2676 SWAP5 SWAP4 SWAP3 SWAP2 SWAP1 PUSH2 0x3194 JUMP JUMPDEST PUSH1 0x0 PUSH1 0x40 MLOAD DUP1 DUP4 SUB DUP2 PUSH1 0x0 DUP8 DUP1 EXTCODESIZE ISZERO DUP1 ISZERO PUSH2 0x2690 JUMPI PUSH1 0x0 DUP1 REVERT JUMPDEST POP GAS CALL ISZERO DUP1 ISZERO PUSH2 0x26A4 JUMPI RETURNDATASIZE PUSH1 0x0 DUP1 RETURNDATACOPY RETURNDATASIZE PUSH1 0x0 REVERT JUMPDEST POP POP POP POP POP POP POP POP POP POP POP DUP1 DUP1 PUSH2 0x26BA SWAP1 PUSH2 0x3262 JUMP JUMPDEST SWAP2 POP POP PUSH2 0x2503 JUMP JUMPDEST POP POP POP POP POP JUMP JUMPDEST PUSH1 0x0 JUMPDEST PUSH1 0x1 DUP6 MLOAD PUSH2 0x26DA SWAP2 SWAP1 PUSH2 0x321B JUMP JUMPDEST DUP2 LT ISZERO PUSH2 0x26C2 JUMPI PUSH1 0x0 DUP1 DUP7 DUP4 DUP2 MLOAD DUP2 LT PUSH2 0x26F6 JUMPI PUSH2 0x26F6 PUSH2 0x32A9 JUMP JUMPDEST PUSH1 0x20 MUL PUSH1 0x20 ADD ADD MLOAD DUP8 DUP5 PUSH1 0x1 PUSH2 0x270C SWAP2 SWAP1 PUSH2 0x31E4 JUMP JUMPDEST DUP2 MLOAD DUP2 LT PUSH2 0x271C JUMPI PUSH2 0x271C PUSH2 0x32A9 JUMP JUMPDEST PUSH1 0x20 MUL PUSH1 0x20 ADD ADD MLOAD SWAP2 POP SWAP2 POP PUSH1 0x0 PUSH2 0x2734 DUP4 DUP4 PUSH2 0x29FE JUMP JUMPDEST POP SWAP1 POP PUSH1 0x0 PUSH2 0x2744 DUP8 DUP6 DUP6 PUSH2 0x2343 JUMP JUMPDEST SWAP1 POP PUSH1 0x0 DUP1 PUSH2 0x2755 DUP4 DUP8 DUP7 DUP12 PUSH2 0x2AF4 JUMP JUMPDEST SWAP2 POP SWAP2 POP PUSH1 0x0 PUSH1 0x2 DUP13 MLOAD PUSH2 0x2769 SWAP2 SWAP1 PUSH2 0x321B JUMP JUMPDEST DUP9 LT PUSH2 0x2775 JUMPI DUP11 PUSH2 0x2786 JUMP JUMPDEST PUSH2 0x2786 DUP11 DUP8 DUP15 PUSH2 0x25EF DUP13 PUSH1 0x2 PUSH2 0x31E4 JUMP JUMPDEST PUSH1 0x40 DUP1 MLOAD PUSH1 0x0 DUP2 MSTORE PUSH1 0x20 DUP2 ADD SWAP2 DUP3 SWAP1 MSTORE PUSH4 0x22C0D9F PUSH1 0xE0 SHL SWAP1 SWAP2 MSTORE SWAP1 SWAP2 POP PUSH1 0x1 PUSH1 0x1 PUSH1 0xA0 SHL SUB DUP6 AND SWAP1 PUSH4 0x22C0D9F SWAP1 PUSH2 0x27C8 SWAP1 DUP7 SWAP1 DUP7 SWAP1 DUP7 SWAP1 PUSH1 0x24 DUP2 ADD PUSH2 0x3194 JUMP JUMPDEST PUSH1 0x0 PUSH1 0x40 MLOAD DUP1 DUP4 SUB DUP2 PUSH1 0x0 DUP8 DUP1 EXTCODESIZE ISZERO DUP1 ISZERO PUSH2 0x27E2 JUMPI PUSH1 0x0 DUP1 REVERT JUMPDEST POP GAS CALL ISZERO DUP1 ISZERO PUSH2 0x27F6 JUMPI RETURNDATASIZE PUSH1 0x0 DUP1 RETURNDATACOPY RETURNDATASIZE PUSH1 0x0 REVERT JUMPDEST POP POP POP POP POP POP POP POP POP POP POP DUP1 DUP1 PUSH2 0x280C SWAP1 PUSH2 0x3262 JUMP JUMPDEST SWAP2 POP POP PUSH2 0x26CC JUMP JUMPDEST PUSH1 0x0 DUP3 PUSH2 0x2821 DUP4 DUP3 PUSH2 0x321B JUMP JUMPDEST SWAP2 POP DUP2 GT ISZERO PUSH2 0x286A JUMPI PUSH1 0x40 MLOAD PUSH3 0x461BCD PUSH1 0xE5 SHL DUP2 MSTORE PUSH1 0x20 PUSH1 0x4 DUP3 ADD MSTORE PUSH1 0x15 PUSH1 0x24 DUP3 ADD MSTORE PUSH21 0x64732D6D6174682D7375622D756E646572666C6F77 PUSH1 0x58 SHL PUSH1 0x44 DUP3 ADD MSTORE PUSH1 0x64 ADD PUSH2 0x402 JUMP JUMPDEST SWAP3 SWAP2 POP POP JUMP JUMPDEST PUSH1 0x40 DUP1 MLOAD PUSH1 0x0 DUP1 DUP3 MSTORE PUSH1 0x20 DUP3 ADD SWAP1 SWAP3 MSTORE PUSH1 0x1 PUSH1 0x1 PUSH1 0xA0 SHL SUB DUP5 AND SWAP1 DUP4 SWAP1 PUSH1 0x40 MLOAD PUSH2 0x289A SWAP2 SWAP1 PUSH2 0x2FB4 JUMP JUMPDEST PUSH1 0x0 PUSH1 0x40 MLOAD DUP1 DUP4 SUB DUP2 DUP6 DUP8 GAS CALL SWAP3 POP POP POP RETURNDATASIZE DUP1 PUSH1 0x0 DUP2 EQ PUSH2 0x28D7 JUMPI PUSH1 0x40 MLOAD SWAP2 POP PUSH1 0x1F NOT PUSH1 0x3F RETURNDATASIZE ADD AND DUP3 ADD PUSH1 0x40 MSTORE RETURNDATASIZE DUP3 MSTORE RETURNDATASIZE PUSH1 0x0 PUSH1 0x20 DUP5 ADD RETURNDATACOPY PUSH2 0x28DC JUMP JUMPDEST PUSH1 0x60 SWAP2 POP JUMPDEST POP POP SWAP1 POP DUP1 PUSH2 0x2939 JUMPI PUSH1 0x40 MLOAD PUSH3 0x461BCD PUSH1 0xE5 SHL DUP2 MSTORE PUSH1 0x20 PUSH1 0x4 DUP3 ADD MSTORE PUSH1 0x23 PUSH1 0x24 DUP3 ADD MSTORE PUSH32 0x5472616E7366657248656C7065723A204554485F5452414E534645525F464149 PUSH1 0x44 DUP3 ADD MSTORE PUSH3 0x131151 PUSH1 0xEA SHL PUSH1 0x64 DUP3 ADD MSTORE PUSH1 0x84 ADD PUSH2 0x402 JUMP JUMPDEST POP POP POP JUMP JUMPDEST PUSH1 0x1 PUSH1 0x1 PUSH1 0xA0 SHL SUB DUP2 AND PUSH2 0x29A3 JUMPI PUSH1 0x40 MLOAD PUSH3 0x461BCD PUSH1 0xE5 SHL DUP2 MSTORE PUSH1 0x20 PUSH1 0x4 DUP3 ADD MSTORE PUSH1 0x26 PUSH1 0x24 DUP3 ADD MSTORE PUSH32 0x4F776E61626C653A206E6577206F776E657220697320746865207A65726F2061 PUSH1 0x44 DUP3 ADD MSTORE PUSH6 0x646472657373 PUSH1 0xD0 SHL PUSH1 0x64 DUP3 ADD MSTORE PUSH1 0x84 ADD PUSH2 0x402 JUMP JUMPDEST PUSH1 0x0 DUP1 SLOAD PUSH1 0x40 MLOAD PUSH1 0x1 PUSH1 0x1 PUSH1 0xA0 SHL SUB DUP1 DUP6 AND SWAP4 SWAP3 AND SWAP2 PUSH32 0x8BE0079C531659141344CD1FD0A4F28419497F9722A3DAAFE3B4186F6B6457E0 SWAP2 LOG3 PUSH1 0x0 DUP1 SLOAD PUSH1 0x1 PUSH1 0x1 PUSH1 0xA0 SHL SUB NOT AND PUSH1 0x1 PUSH1 0x1 PUSH1 0xA0 SHL SUB SWAP3 SWAP1 SWAP3 AND SWAP2 SWAP1 SWAP2 OR SWAP1 SSTORE JUMP JUMPDEST PUSH1 0x0 DUP1 DUP3 PUSH1 0x1 PUSH1 0x1 PUSH1 0xA0 SHL SUB AND DUP5 PUSH1 0x1 PUSH1 0x1 PUSH1 0xA0 SHL SUB AND EQ ISZERO PUSH2 0x2A6F JUMPI PUSH1 0x40 MLOAD PUSH3 0x461BCD PUSH1 0xE5 SHL DUP2 MSTORE PUSH1 0x20 PUSH1 0x4 DUP3 ADD MSTORE PUSH1 0x23 PUSH1 0x24 DUP3 ADD MSTORE PUSH32 0x4D6172537761704C6962726172793A204944454E544943414C5F414444524553 PUSH1 0x44 DUP3 ADD MSTORE PUSH3 0x534553 PUSH1 0xE8 SHL PUSH1 0x64 DUP3 ADD MSTORE PUSH1 0x84 ADD PUSH2 0x402 JUMP JUMPDEST DUP3 PUSH1 0x1 PUSH1 0x1 PUSH1 0xA0 SHL SUB AND DUP5 PUSH1 0x1 PUSH1 0x1 PUSH1 0xA0 SHL SUB AND LT PUSH2 0x2A8F JUMPI DUP3 DUP5 PUSH2 0x2A92 JUMP JUMPDEST DUP4 DUP4 JUMPDEST SWAP1 SWAP3 POP SWAP1 POP PUSH1 0x1 PUSH1 0x1 PUSH1 0xA0 SHL SUB DUP3 AND PUSH2 0x2AED JUMPI PUSH1 0x40 MLOAD PUSH3 0x461BCD PUSH1 0xE5 SHL DUP2 MSTORE PUSH1 0x20 PUSH1 0x4 DUP3 ADD MSTORE PUSH1 0x1C PUSH1 0x24 DUP3 ADD MSTORE PUSH32 0x4D6172537761704C6962726172793A205A45524F5F4144445245535300000000 PUSH1 0x44 DUP3 ADD MSTORE PUSH1 0x64 ADD PUSH2 0x402 JUMP JUMPDEST SWAP3 POP SWAP3 SWAP1 POP JUMP JUMPDEST PUSH1 0x0 DUP1 PUSH1 0x0 DUP1 DUP8 PUSH1 0x1 PUSH1 0x1 PUSH1 0xA0 SHL SUB AND PUSH4 0x902F1AC PUSH1 0x40 MLOAD DUP2 PUSH4 0xFFFFFFFF AND PUSH1 0xE0 SHL DUP2 MSTORE PUSH1 0x4 ADD PUSH1 0x60 PUSH1 0x40 MLOAD DUP1 DUP4 SUB DUP2 DUP7 DUP1 EXTCODESIZE ISZERO DUP1 ISZERO PUSH2 0x2B33 JUMPI PUSH1 0x0 DUP1 REVERT JUMPDEST POP GAS STATICCALL ISZERO DUP1 ISZERO PUSH2 0x2B47 JUMPI RETURNDATASIZE PUSH1 0x0 DUP1 RETURNDATACOPY RETURNDATASIZE PUSH1 0x0 REVERT JUMPDEST POP POP POP POP PUSH1 0x40 MLOAD RETURNDATASIZE PUSH1 0x1F NOT PUSH1 0x1F DUP3 ADD AND DUP3 ADD DUP1 PUSH1 0x40 MSTORE POP DUP2 ADD SWAP1 PUSH2 0x2B6B SWAP2 SWAP1 PUSH2 0x2E2F JUMP JUMPDEST POP PUSH1 0x1 PUSH1 0x1 PUSH1 0x70 SHL SUB AND SWAP2 POP PUSH1 0x1 PUSH1 0x1 PUSH1 0x70 SHL SUB AND SWAP2 POP PUSH1 0x0 DUP1 DUP8 PUSH1 0x1 PUSH1 0x1 PUSH1 0xA0 SHL SUB AND DUP10 PUSH1 0x1 PUSH1 0x1 PUSH1 0xA0 SHL SUB AND EQ PUSH2 0x2BA5 JUMPI DUP3 DUP5 PUSH2 0x2BA8 JUMP JUMPDEST DUP4 DUP4 JUMPDEST PUSH1 0x40 MLOAD PUSH4 0x70A08231 PUSH1 0xE0 SHL DUP2 MSTORE PUSH1 0x1 PUSH1 0x1 PUSH1 0xA0 SHL SUB DUP14 DUP2 AND PUSH1 0x4 DUP4 ADD MSTORE SWAP3 SWAP5 POP SWAP1 SWAP3 POP PUSH1 0x0 SWAP2 PUSH2 0x2BE5 SWAP2 DUP6 SWAP2 DUP14 AND SWAP1 PUSH4 0x70A08231 SWAP1 PUSH1 0x24 ADD PUSH2 0xAB1 JUMP JUMPDEST PUSH1 0x40 MLOAD PUSH4 0x1535435 PUSH1 0xE2 SHL DUP2 MSTORE PUSH1 0x4 DUP2 ADD DUP3 SWAP1 MSTORE PUSH1 0x24 DUP2 ADD DUP6 SWAP1 MSTORE PUSH1 0x44 DUP2 ADD DUP5 SWAP1 MSTORE SWAP1 SWAP2 POP PUSH1 0x0 SWAP1 PUSH1 0x1 PUSH1 0x1 PUSH1 0xA0 SHL SUB DUP11 AND SWAP1 PUSH4 0x54D50D4 SWAP1 PUSH1 0x64 ADD PUSH1 0x20 PUSH1 0x40 MLOAD DUP1 DUP4 SUB DUP2 DUP7 DUP1 EXTCODESIZE ISZERO DUP1 ISZERO PUSH2 0x2C39 JUMPI PUSH1 0x0 DUP1 REVERT JUMPDEST POP GAS STATICCALL ISZERO DUP1 ISZERO PUSH2 0x2C4D JUMPI RETURNDATASIZE PUSH1 0x0 DUP1 RETURNDATACOPY RETURNDATASIZE PUSH1 0x0 REVERT JUMPDEST POP POP POP POP PUSH1 0x40 MLOAD RETURNDATASIZE PUSH1 0x1F NOT PUSH1 0x1F DUP3 ADD AND DUP3 ADD DUP1 PUSH1 0x40 MSTORE POP DUP2 ADD SWAP1 PUSH2 0x2C71 SWAP2 SWAP1 PUSH2 0x2E98 JUMP JUMPDEST SWAP1 POP DUP10 PUSH1 0x1 PUSH1 0x1 PUSH1 0xA0 SHL SUB AND DUP12 PUSH1 0x1 PUSH1 0x1 PUSH1 0xA0 SHL SUB AND EQ PUSH2 0x2C94 JUMPI DUP1 PUSH1 0x0 PUSH2 0x2C98 JUMP JUMPDEST PUSH1 0x0 DUP2 JUMPDEST SWAP1 SWAP14 SWAP1 SWAP13 POP SWAP11 POP POP POP POP POP POP POP POP POP POP POP JUMP JUMPDEST PUSH1 0x0 DUP1 DUP4 PUSH1 0x1F DUP5 ADD SLT PUSH2 0x2CBD JUMPI PUSH1 0x0 DUP1 REVERT JUMPDEST POP DUP2 CALLDATALOAD PUSH8 0xFFFFFFFFFFFFFFFF DUP2 GT ISZERO PUSH2 0x2CD5 JUMPI PUSH1 0x0 DUP1 REVERT JUMPDEST PUSH1 0x20 DUP4 ADD SWAP2 POP DUP4 PUSH1 0x20 DUP3 PUSH1 0x5 SHL DUP6 ADD ADD GT ISZERO PUSH2 0x2AED JUMPI PUSH1 0x0 DUP1 REVERT JUMPDEST DUP1 MLOAD PUSH1 0x1 PUSH1 0x1 PUSH1 0x70 SHL SUB DUP2 AND DUP2 EQ PUSH2 0x233E JUMPI PUSH1 0x0 DUP1 REVERT JUMPDEST PUSH1 0x0 PUSH1 0x20 DUP3 DUP5 SUB SLT ISZERO PUSH2 0x2D19 JUMPI PUSH1 0x0 DUP1 REVERT JUMPDEST DUP2 CALLDATALOAD PUSH2 0x2D24 DUP2 PUSH2 0x32D5 JUMP JUMPDEST SWAP4 SWAP3 POP POP POP JUMP JUMPDEST PUSH1 0x0 PUSH1 0x20 DUP3 DUP5 SUB SLT ISZERO PUSH2 0x2D3D JUMPI PUSH1 0x0 DUP1 REVERT JUMPDEST DUP2 MLOAD PUSH2 0x2D24 DUP2 PUSH2 0x32D5 JUMP JUMPDEST PUSH1 0x0 PUSH1 0x20 DUP1 DUP4 DUP6 SUB SLT ISZERO PUSH2 0x2D5B JUMPI PUSH1 0x0 DUP1 REVERT JUMPDEST DUP3 MLOAD PUSH8 0xFFFFFFFFFFFFFFFF DUP1 DUP3 GT ISZERO PUSH2 0x2D73 JUMPI PUSH1 0x0 DUP1 REVERT JUMPDEST DUP2 DUP6 ADD SWAP2 POP DUP6 PUSH1 0x1F DUP4 ADD SLT PUSH2 0x2D87 JUMPI PUSH1 0x0 DUP1 REVERT JUMPDEST DUP2 MLOAD DUP2 DUP2 GT ISZERO PUSH2 0x2D99 JUMPI PUSH2 0x2D99 PUSH2 0x32BF JUMP JUMPDEST DUP1 PUSH1 0x5 SHL PUSH1 0x40 MLOAD PUSH1 0x1F NOT PUSH1 0x3F DUP4 ADD AND DUP2 ADD DUP2 DUP2 LT DUP6 DUP3 GT OR ISZERO PUSH2 0x2DBE JUMPI PUSH2 0x2DBE PUSH2 0x32BF JUMP JUMPDEST PUSH1 0x40 MSTORE DUP3 DUP2 MSTORE DUP6 DUP2 ADD SWAP4 POP DUP5 DUP7 ADD DUP3 DUP7 ADD DUP8 ADD DUP11 LT ISZERO PUSH2 0x2DDD JUMPI PUSH1 0x0 DUP1 REVERT JUMPDEST PUSH1 0x0 SWAP6 POP JUMPDEST DUP4 DUP7 LT ISZERO PUSH2 0x2E00 JUMPI DUP1 MLOAD DUP6 MSTORE PUSH1 0x1 SWAP6 SWAP1 SWAP6 ADD SWAP5 SWAP4 DUP7 ADD SWAP4 DUP7 ADD PUSH2 0x2DE2 JUMP JUMPDEST POP SWAP9 SWAP8 POP POP POP POP POP POP POP POP JUMP JUMPDEST PUSH1 0x0 PUSH1 0x20 DUP3 DUP5 SUB SLT ISZERO PUSH2 0x2E1F JUMPI PUSH1 0x0 DUP1 REVERT JUMPDEST DUP2 MLOAD DUP1 ISZERO ISZERO DUP2 EQ PUSH2 0x2D24 JUMPI PUSH1 0x0 DUP1 REVERT JUMPDEST PUSH1 0x0 DUP1 PUSH1 0x0 PUSH1 0x60 DUP5 DUP7 SUB SLT ISZERO PUSH2 0x2E44 JUMPI PUSH1 0x0 DUP1 REVERT JUMPDEST PUSH2 0x2E4D DUP5 PUSH2 0x2CF0 JUMP JUMPDEST SWAP3 POP PUSH2 0x2E5B PUSH1 0x20 DUP6 ADD PUSH2 0x2CF0 JUMP JUMPDEST SWAP2 POP PUSH1 0x40 DUP5 ADD MLOAD PUSH4 0xFFFFFFFF DUP2 AND DUP2 EQ PUSH2 0x2E74 JUMPI PUSH1 0x0 DUP1 REVERT JUMPDEST DUP1 SWAP2 POP POP SWAP3 POP SWAP3 POP SWAP3 JUMP JUMPDEST PUSH1 0x0 PUSH1 0x20 DUP3 DUP5 SUB SLT ISZERO PUSH2 0x2E91 JUMPI PUSH1 0x0 DUP1 REVERT JUMPDEST POP CALLDATALOAD SWAP2 SWAP1 POP JUMP JUMPDEST PUSH1 0x0 PUSH1 0x20 DUP3 DUP5 SUB SLT ISZERO PUSH2 0x2EAA JUMPI PUSH1 0x0 DUP1 REVERT JUMPDEST POP MLOAD SWAP2 SWAP1 POP JUMP JUMPDEST PUSH1 0x0 DUP1 PUSH1 0x0 DUP1 PUSH1 0x0 DUP1 PUSH1 0xA0 DUP8 DUP10 SUB SLT ISZERO PUSH2 0x2ECA JUMPI PUSH1 0x0 DUP1 REVERT JUMPDEST DUP7 CALLDATALOAD SWAP6 POP PUSH1 0x20 DUP8 ADD CALLDATALOAD PUSH8 0xFFFFFFFFFFFFFFFF DUP2 GT ISZERO PUSH2 0x2EE8 JUMPI PUSH1 0x0 DUP1 REVERT JUMPDEST PUSH2 0x2EF4 DUP10 DUP3 DUP11 ADD PUSH2 0x2CAB JUMP JUMPDEST SWAP1 SWAP7 POP SWAP5 POP POP PUSH1 0x40 DUP8 ADD CALLDATALOAD PUSH2 0x2F08 DUP2 PUSH2 0x32D5 JUMP JUMPDEST SWAP3 POP PUSH1 0x60 DUP8 ADD CALLDATALOAD SWAP2 POP PUSH1 0x80 DUP8 ADD CALLDATALOAD PUSH2 0x2F1F DUP2 PUSH2 0x32D5 JUMP JUMPDEST DUP1 SWAP2 POP POP SWAP3 SWAP6 POP SWAP3 SWAP6 POP SWAP3 SWAP6 JUMP JUMPDEST PUSH1 0x0 DUP1 PUSH1 0x0 DUP1 PUSH1 0x0 DUP1 PUSH1 0x0 PUSH1 0xC0 DUP9 DUP11 SUB SLT ISZERO PUSH2 0x2F48 JUMPI PUSH1 0x0 DUP1 REVERT JUMPDEST DUP8 CALLDATALOAD SWAP7 POP PUSH1 0x20 DUP9 ADD CALLDATALOAD SWAP6 POP PUSH1 0x40 DUP9 ADD CALLDATALOAD PUSH8 0xFFFFFFFFFFFFFFFF DUP2 GT ISZERO PUSH2 0x2F6D JUMPI PUSH1 0x0 DUP1 REVERT JUMPDEST PUSH2 0x2F79 DUP11 DUP3 DUP12 ADD PUSH2 0x2CAB JUMP JUMPDEST SWAP1 SWAP7 POP SWAP5 POP POP PUSH1 0x60 DUP9 ADD CALLDATALOAD PUSH2 0x2F8D DUP2 PUSH2 0x32D5 JUMP JUMPDEST SWAP3 POP PUSH1 0x80 DUP9 ADD CALLDATALOAD SWAP2 POP PUSH1 0xA0 DUP9 ADD CALLDATALOAD PUSH2 0x2FA4 DUP2 PUSH2 0x32D5 JUMP JUMPDEST DUP1 SWAP2 POP POP SWAP3 SWAP6 SWAP9 SWAP2 SWAP5 SWAP8 POP SWAP3 SWAP6 POP JUMP JUMPDEST PUSH1 0x0 DUP3 MLOAD PUSH2 0x2FC6 DUP2 DUP5 PUSH1 0x20 DUP8 ADD PUSH2 0x3232 JUMP JUMPDEST SWAP2 SWAP1 SWAP2 ADD SWAP3 SWAP2 POP POP JUMP JUMPDEST PUSH1 0x20 DUP1 DUP3 MSTORE DUP3 MLOAD DUP3 DUP3 ADD DUP2 SWAP1 MSTORE PUSH1 0x0 SWAP2 SWAP1 DUP5 DUP3 ADD SWAP1 PUSH1 0x40 DUP6 ADD SWAP1 DUP5 JUMPDEST DUP2 DUP2 LT ISZERO PUSH2 0x3008 JUMPI DUP4 MLOAD DUP4 MSTORE SWAP3 DUP5 ADD SWAP3 SWAP2 DUP5 ADD SWAP2 PUSH1 0x1 ADD PUSH2 0x2FEC JUMP JUMPDEST POP SWAP1 SWAP7 SWAP6 POP POP POP POP POP POP JUMP JUMPDEST PUSH1 0x20 DUP1 DUP3 MSTORE PUSH1 0x23 SWAP1 DUP3 ADD MSTORE PUSH32 0x4D4152535F526F757465723A204558434553534956455F494E5055545F414D4F PUSH1 0x40 DUP3 ADD MSTORE PUSH3 0x155395 PUSH1 0xEA SHL PUSH1 0x60 DUP3 ADD MSTORE PUSH1 0x80 ADD SWAP1 JUMP JUMPDEST PUSH1 0x20 DUP1 DUP3 MSTORE PUSH1 0x1B SWAP1 DUP3 ADD MSTORE PUSH32 0x4D617253776170526F757465723A20494E56414C49445F504154480000000000 PUSH1 0x40 DUP3 ADD MSTORE PUSH1 0x60 ADD SWAP1 JUMP JUMPDEST PUSH1 0x20 DUP1 DUP3 MSTORE PUSH1 0x29 SWAP1 DUP3 ADD MSTORE PUSH32 0x4D617253776170526F757465723A20494E53554646494349454E545F4F555450 PUSH1 0x40 DUP3 ADD MSTORE PUSH9 0x155517D05353D55395 PUSH1 0xBA SHL PUSH1 0x60 DUP3 ADD MSTORE PUSH1 0x80 ADD SWAP1 JUMP JUMPDEST PUSH1 0x20 DUP1 DUP3 MSTORE PUSH1 0x16 SWAP1 DUP3 ADD MSTORE PUSH22 0x13585C94DDD85C149BDD5D195C8E8811561412549151 PUSH1 0x52 SHL PUSH1 0x40 DUP3 ADD MSTORE PUSH1 0x60 ADD SWAP1 JUMP JUMPDEST PUSH1 0x20 DUP1 DUP3 MSTORE DUP2 DUP2 ADD MSTORE PUSH32 0x4F776E61626C653A2063616C6C6572206973206E6F7420746865206F776E6572 PUSH1 0x40 DUP3 ADD MSTORE PUSH1 0x60 ADD SWAP1 JUMP JUMPDEST DUP4 DUP2 MSTORE PUSH1 0x40 PUSH1 0x20 DUP1 DUP4 ADD DUP3 SWAP1 MSTORE SWAP1 DUP3 ADD DUP4 SWAP1 MSTORE PUSH1 0x0 SWAP1 DUP5 SWAP1 PUSH1 0x60 DUP5 ADD DUP4 JUMPDEST DUP7 DUP2 LT ISZERO PUSH2 0x3188 JUMPI DUP4 CALLDATALOAD PUSH2 0x316D DUP2 PUSH2 0x32D5 JUMP JUMPDEST PUSH1 0x1 PUSH1 0x1 PUSH1 0xA0 SHL SUB AND DUP3 MSTORE SWAP3 DUP3 ADD SWAP3 SWAP1 DUP3 ADD SWAP1 PUSH1 0x1 ADD PUSH2 0x315A JUMP JUMPDEST POP SWAP8 SWAP7 POP POP POP POP POP POP POP JUMP JUMPDEST DUP5 DUP2 MSTORE DUP4 PUSH1 0x20 DUP3 ADD MSTORE PUSH1 0x1 DUP1 PUSH1 0xA0 SHL SUB DUP4 AND PUSH1 0x40 DUP3 ADD MSTORE PUSH1 0x80 PUSH1 0x60 DUP3 ADD MSTORE PUSH1 0x0 DUP3 MLOAD DUP1 PUSH1 0x80 DUP5 ADD MSTORE PUSH2 0x31CD DUP2 PUSH1 0xA0 DUP6 ADD PUSH1 0x20 DUP8 ADD PUSH2 0x3232 JUMP JUMPDEST PUSH1 0x1F ADD PUSH1 0x1F NOT AND SWAP2 SWAP1 SWAP2 ADD PUSH1 0xA0 ADD SWAP6 SWAP5 POP POP POP POP POP JUMP JUMPDEST PUSH1 0x0 DUP3 NOT DUP3 GT ISZERO PUSH2 0x31F7 JUMPI PUSH2 0x31F7 PUSH2 0x3293 JUMP JUMPDEST POP ADD SWAP1 JUMP JUMPDEST PUSH1 0x0 DUP2 PUSH1 0x0 NOT DIV DUP4 GT DUP3 ISZERO ISZERO AND ISZERO PUSH2 0x3216 JUMPI PUSH2 0x3216 PUSH2 0x3293 JUMP JUMPDEST POP MUL SWAP1 JUMP JUMPDEST PUSH1 0x0 DUP3 DUP3 LT ISZERO PUSH2 0x322D JUMPI PUSH2 0x322D PUSH2 0x3293 JUMP JUMPDEST POP SUB SWAP1 JUMP JUMPDEST PUSH1 0x0 JUMPDEST DUP4 DUP2 LT ISZERO PUSH2 0x324D JUMPI DUP2 DUP2 ADD MLOAD DUP4 DUP3 ADD MSTORE PUSH1 0x20 ADD PUSH2 0x3235 JUMP JUMPDEST DUP4 DUP2 GT ISZERO PUSH2 0x325C JUMPI PUSH1 0x0 DUP5 DUP5 ADD MSTORE JUMPDEST POP POP POP POP JUMP JUMPDEST PUSH1 0x0 PUSH1 0x0 NOT DUP3 EQ ISZERO PUSH2 0x3276 JUMPI PUSH2 0x3276 PUSH2 0x3293 JUMP JUMPDEST POP PUSH1 0x1 ADD SWAP1 JUMP JUMPDEST PUSH4 0x4E487B71 PUSH1 0xE0 SHL PUSH1 0x0 MSTORE PUSH1 0x1 PUSH1 0x4 MSTORE PUSH1 0x24 PUSH1 0x0 REVERT JUMPDEST PUSH4 0x4E487B71 PUSH1 0xE0 SHL PUSH1 0x0 MSTORE PUSH1 0x11 PUSH1 0x4 MSTORE PUSH1 0x24 PUSH1 0x0 REVERT JUMPDEST PUSH4 0x4E487B71 PUSH1 0xE0 SHL PUSH1 0x0 MSTORE PUSH1 0x32 PUSH1 0x4 MSTORE PUSH1 0x24 PUSH1 0x0 REVERT JUMPDEST PUSH4 0x4E487B71 PUSH1 0xE0 SHL PUSH1 0x0 MSTORE PUSH1 0x41 PUSH1 0x4 MSTORE PUSH1 0x24 PUSH1 0x0 REVERT JUMPDEST PUSH1 0x1 PUSH1 0x1 PUSH1 0xA0 SHL SUB DUP2 AND DUP2 EQ PUSH2 0x2092 JUMPI PUSH1 0x0 DUP1 REVERT INVALID LOG2 PUSH5 0x6970667358 0x22 SLT KECCAK256 EQ 0x2B 0xC1 0x1E CALL OR 0x5C CALLVALUE PUSH10 0xB3375CE6A6963533A46E PUSH17 0x5BADA8690B0875036179B89E64736F6C63 NUMBER STOP ADDMOD SMOD STOP CALLER "
				},
				"gasEstimates": {
					"creation": {
						"codeDepositCost": "2617600",
						"executionCost": "infinite",
						"totalCost": "infinite"
					},
					"external": {
						"WETH()": "infinite",
						"changeFee(uint256)": "20553",
						"changeTreasury(address)": "20827",
						"flatFee()": "458",
						"isOwner(address)": "698",
						"owner()": "454",
						"renounceOwnership()": "22476",
						"swapETHForExactTokens(uint256,address[],address,uint256,address)": "infinite",
						"swapExactETHForTokens(uint256,address[],address,uint256,address)": "infinite",
						"swapExactETHForTokensSupportingFeeOnTransferTokens(uint256,address[],address,uint256,address)": "infinite",
						"swapExactTokensForETH(uint256,uint256,address[],address,uint256,address)": "infinite",
						"swapExactTokensForETHSupportingFeeOnTransferTokens(uint256,uint256,address[],address,uint256,address)": "infinite",
						"swapExactTokensForTokens(uint256,uint256,address[],address,uint256,address)": "infinite",
						"swapExactTokensForTokensSupportingFeeOnTransferTokens(uint256,uint256,address[],address,uint256,address)": "infinite",
						"swapTokensForExactETH(uint256,uint256,address[],address,uint256,address)": "infinite",
						"swapTokensForExactTokens(uint256,uint256,address[],address,uint256,address)": "infinite",
						"transferOwnership(address)": "infinite",
						"treasury()": "504",
						"txFee()": "439",
						"withdawlBNB()": "infinite",
						"withdrawlToken(address)": "infinite"
					},
					"internal": {
						"_chargeRouterFee(address[] memory)": "infinite",
						"_swap(uint256[] memory,address[] memory,address,address)": "infinite",
						"_swapSupportingFeeOnTransferTokens(address[] memory,address,address,address)": "infinite",
						"getinfo(contract IMarSwapPair,address,address,address)": "infinite"
					}
				},
				"methodIdentifiers": {
					"WETH()": "ad5c4648",
					"changeFee(uint256)": "6a1db1bf",
					"changeTreasury(address)": "b14f2a39",
					"flatFee()": "d9eb5947",
					"isOwner(address)": "2f54bf6e",
					"owner()": "8da5cb5b",
					"renounceOwnership()": "715018a6",
					"swapETHForExactTokens(uint256,address[],address,uint256,address)": "2f100e4a",
					"swapExactETHForTokens(uint256,address[],address,uint256,address)": "344933be",
					"swapExactETHForTokensSupportingFeeOnTransferTokens(uint256,address[],address,uint256,address)": "088890dc",
					"swapExactTokensForETH(uint256,uint256,address[],address,uint256,address)": "2232ea43",
					"swapExactTokensForETHSupportingFeeOnTransferTokens(uint256,uint256,address[],address,uint256,address)": "3d0e3ec5",
					"swapExactTokensForTokens(uint256,uint256,address[],address,uint256,address)": "05a1450d",
					"swapExactTokensForTokensSupportingFeeOnTransferTokens(uint256,uint256,address[],address,uint256,address)": "f824f62e",
					"swapTokensForExactETH(uint256,uint256,address[],address,uint256,address)": "962efddb",
					"swapTokensForExactTokens(uint256,uint256,address[],address,uint256,address)": "a32166ee",
					"transferOwnership(address)": "f2fde38b",
					"treasury()": "61d027b3",
					"txFee()": "cf820461",
					"withdawlBNB()": "e799ffb1",
					"withdrawlToken(address)": "ac5cad56"
				}
			},
			"storageLayout": {
				"storage": [
					{
						"astId": 697,
						"contract": "MSWAP/OneRouter.sol:MarsRouter",
						"label": "_owner",
						"offset": 0,
						"slot": "0",
						"type": "t_address"
					},
					{
						"astId": 893,
						"contract": "MSWAP/OneRouter.sol:MarsRouter",
						"label": "MAX_INT",
						"offset": 0,
						"slot": "1",
						"type": "t_uint256"
					},
					{
						"astId": 897,
						"contract": "MSWAP/OneRouter.sol:MarsRouter",
						"label": "treasury",
						"offset": 0,
						"slot": "2",
						"type": "t_address"
					},
					{
						"astId": 899,
						"contract": "MSWAP/OneRouter.sol:MarsRouter",
						"label": "txFee",
						"offset": 0,
						"slot": "3",
						"type": "t_uint256"
					}
				],
				"types": {
					"t_address": {
						"encoding": "inplace",
						"label": "address",
						"numberOfBytes": "20"
					},
					"t_uint256": {
						"encoding": "inplace",
						"label": "uint256",
						"numberOfBytes": "32"
					}
				}
			},
			"userdoc": {
				"kind": "user",
				"methods": {},
				"version": 1
			}
		}
	}
}