{
	"MSWAP/Games/Scratchers.sol": {
		"Scratchers": {
			"abi": [
				{
					"inputs": [
						{
							"internalType": "address",
							"name": "_router",
							"type": "address"
						},
						{
							"internalType": "address",
							"name": "_rng",
							"type": "address"
						},
						{
							"internalType": "address",
							"name": "_marsFactory",
							"type": "address"
						}
					],
					"stateMutability": "nonpayable",
					"type": "constructor"
				},
				{
					"anonymous": false,
					"inputs": [
						{
							"indexed": false,
							"internalType": "uint256",
							"name": "ticketNumber",
							"type": "uint256"
						},
						{
							"indexed": false,
							"internalType": "address",
							"name": "player",
							"type": "address"
						},
						{
							"indexed": false,
							"internalType": "uint256",
							"name": "addToPot",
							"type": "uint256"
						},
						{
							"indexed": false,
							"internalType": "bool",
							"name": "isWinner",
							"type": "bool"
						},
						{
							"indexed": false,
							"internalType": "uint256",
							"name": "_amount",
							"type": "uint256"
						}
					],
					"name": "JackPotPurchase",
					"type": "event"
				},
				{
					"anonymous": false,
					"inputs": [
						{
							"indexed": true,
							"internalType": "address",
							"name": "previousOwner",
							"type": "address"
						},
						{
							"indexed": true,
							"internalType": "address",
							"name": "newOwner",
							"type": "address"
						}
					],
					"name": "OwnershipTransferred",
					"type": "event"
				},
				{
					"anonymous": false,
					"inputs": [
						{
							"indexed": false,
							"internalType": "uint256",
							"name": "ticketNumber",
							"type": "uint256"
						},
						{
							"indexed": false,
							"internalType": "address",
							"name": "player",
							"type": "address"
						},
						{
							"indexed": false,
							"internalType": "uint256",
							"name": "addToPot",
							"type": "uint256"
						},
						{
							"indexed": false,
							"internalType": "address",
							"name": "token",
							"type": "address"
						},
						{
							"indexed": false,
							"internalType": "uint256",
							"name": "amount",
							"type": "uint256"
						},
						{
							"indexed": false,
							"internalType": "uint256",
							"name": "_multiplier",
							"type": "uint256"
						}
					],
					"name": "ticketPurchase",
					"type": "event"
				},
				{
					"inputs": [],
					"name": "JackPot",
					"outputs": [
						{
							"internalType": "uint256",
							"name": "ticket",
							"type": "uint256"
						},
						{
							"internalType": "address",
							"name": "player",
							"type": "address"
						},
						{
							"internalType": "uint256",
							"name": "addToJackPot",
							"type": "uint256"
						},
						{
							"internalType": "bool",
							"name": "isWinner",
							"type": "bool"
						},
						{
							"internalType": "uint256",
							"name": "_amount",
							"type": "uint256"
						}
					],
					"stateMutability": "payable",
					"type": "function"
				},
				{
					"inputs": [
						{
							"internalType": "address",
							"name": "_user",
							"type": "address"
						},
						{
							"internalType": "uint256",
							"name": "bet",
							"type": "uint256"
						}
					],
					"name": "addFreePlay",
					"outputs": [],
					"stateMutability": "nonpayable",
					"type": "function"
				},
				{
					"inputs": [
						{
							"internalType": "address",
							"name": "_payToken",
							"type": "address"
						}
					],
					"name": "addPayToken",
					"outputs": [],
					"stateMutability": "nonpayable",
					"type": "function"
				},
				{
					"inputs": [
						{
							"internalType": "uint256",
							"name": "",
							"type": "uint256"
						}
					],
					"name": "blackList",
					"outputs": [
						{
							"internalType": "address",
							"name": "",
							"type": "address"
						}
					],
					"stateMutability": "view",
					"type": "function"
				},
				{
					"inputs": [
						{
							"internalType": "address",
							"name": "_payToken",
							"type": "address"
						}
					],
					"name": "buyScratcher",
					"outputs": [
						{
							"internalType": "uint256",
							"name": "ticket",
							"type": "uint256"
						},
						{
							"internalType": "address",
							"name": "player",
							"type": "address"
						},
						{
							"internalType": "uint256",
							"name": "addToPot",
							"type": "uint256"
						},
						{
							"internalType": "address",
							"name": "token",
							"type": "address"
						},
						{
							"internalType": "uint256",
							"name": "amount",
							"type": "uint256"
						},
						{
							"internalType": "uint256",
							"name": "_multiplier",
							"type": "uint256"
						}
					],
					"stateMutability": "payable",
					"type": "function"
				},
				{
					"inputs": [],
					"name": "chancePer",
					"outputs": [
						{
							"internalType": "uint256",
							"name": "",
							"type": "uint256"
						}
					],
					"stateMutability": "view",
					"type": "function"
				},
				{
					"inputs": [
						{
							"internalType": "address",
							"name": "RNG",
							"type": "address"
						}
					],
					"name": "changeRNG",
					"outputs": [],
					"stateMutability": "nonpayable",
					"type": "function"
				},
				{
					"inputs": [
						{
							"internalType": "address",
							"name": "_router",
							"type": "address"
						}
					],
					"name": "changeRouter",
					"outputs": [],
					"stateMutability": "nonpayable",
					"type": "function"
				},
				{
					"inputs": [],
					"name": "currentNFT",
					"outputs": [
						{
							"internalType": "address",
							"name": "",
							"type": "address"
						}
					],
					"stateMutability": "view",
					"type": "function"
				},
				{
					"inputs": [],
					"name": "devFee",
					"outputs": [
						{
							"internalType": "uint256",
							"name": "",
							"type": "uint256"
						}
					],
					"stateMutability": "view",
					"type": "function"
				},
				{
					"inputs": [
						{
							"internalType": "address",
							"name": "",
							"type": "address"
						},
						{
							"internalType": "uint256",
							"name": "",
							"type": "uint256"
						}
					],
					"name": "freePlay",
					"outputs": [
						{
							"internalType": "uint256",
							"name": "",
							"type": "uint256"
						}
					],
					"stateMutability": "view",
					"type": "function"
				},
				{
					"inputs": [
						{
							"internalType": "uint256",
							"name": "bet",
							"type": "uint256"
						}
					],
					"name": "getMaxWinSize",
					"outputs": [
						{
							"internalType": "uint256",
							"name": "av_Winners",
							"type": "uint256"
						},
						{
							"internalType": "uint256",
							"name": "newChancePer",
							"type": "uint256"
						}
					],
					"stateMutability": "view",
					"type": "function"
				},
				{
					"inputs": [
						{
							"internalType": "address",
							"name": "",
							"type": "address"
						}
					],
					"name": "howManyFP",
					"outputs": [
						{
							"internalType": "uint256",
							"name": "",
							"type": "uint256"
						}
					],
					"stateMutability": "view",
					"type": "function"
				},
				{
					"inputs": [],
					"name": "info",
					"outputs": [
						{
							"internalType": "uint256",
							"name": "_minBet",
							"type": "uint256"
						},
						{
							"internalType": "uint256",
							"name": "_maxBet",
							"type": "uint256"
						},
						{
							"internalType": "uint256",
							"name": "_avlFunds",
							"type": "uint256"
						},
						{
							"internalType": "uint256",
							"name": "_sm",
							"type": "uint256"
						},
						{
							"internalType": "uint256",
							"name": "_jackPotCostBNB",
							"type": "uint256"
						},
						{
							"internalType": "uint256[]",
							"name": "_chances",
							"type": "uint256[]"
						},
						{
							"internalType": "uint256",
							"name": "_totalChance",
							"type": "uint256"
						},
						{
							"internalType": "uint256[]",
							"name": "_multipliers",
							"type": "uint256[]"
						},
						{
							"internalType": "uint256",
							"name": "_jackPot",
							"type": "uint256"
						},
						{
							"internalType": "uint256",
							"name": "_jackPotChance",
							"type": "uint256"
						}
					],
					"stateMutability": "view",
					"type": "function"
				},
				{
					"inputs": [],
					"name": "injectJackPot",
					"outputs": [],
					"stateMutability": "payable",
					"type": "function"
				},
				{
					"inputs": [],
					"name": "isPaused",
					"outputs": [
						{
							"internalType": "bool",
							"name": "",
							"type": "bool"
						}
					],
					"stateMutability": "view",
					"type": "function"
				},
				{
					"inputs": [],
					"name": "jackPot",
					"outputs": [
						{
							"internalType": "uint256",
							"name": "",
							"type": "uint256"
						}
					],
					"stateMutability": "view",
					"type": "function"
				},
				{
					"inputs": [],
					"name": "jackPotChance",
					"outputs": [
						{
							"internalType": "uint256",
							"name": "",
							"type": "uint256"
						}
					],
					"stateMutability": "view",
					"type": "function"
				},
				{
					"inputs": [],
					"name": "jackPotCostBNB",
					"outputs": [
						{
							"internalType": "uint256",
							"name": "",
							"type": "uint256"
						}
					],
					"stateMutability": "view",
					"type": "function"
				},
				{
					"inputs": [],
					"name": "jackPotFee",
					"outputs": [
						{
							"internalType": "uint256",
							"name": "",
							"type": "uint256"
						}
					],
					"stateMutability": "view",
					"type": "function"
				},
				{
					"inputs": [
						{
							"internalType": "uint256",
							"name": "",
							"type": "uint256"
						}
					],
					"name": "jackPotHistory",
					"outputs": [
						{
							"internalType": "uint256",
							"name": "time",
							"type": "uint256"
						},
						{
							"internalType": "uint256",
							"name": "ticket",
							"type": "uint256"
						},
						{
							"internalType": "address",
							"name": "player",
							"type": "address"
						},
						{
							"internalType": "uint256",
							"name": "addToPot",
							"type": "uint256"
						},
						{
							"internalType": "bool",
							"name": "isWinner",
							"type": "bool"
						},
						{
							"internalType": "uint256",
							"name": "_amount",
							"type": "uint256"
						}
					],
					"stateMutability": "view",
					"type": "function"
				},
				{
					"inputs": [],
					"name": "jackPotTicketNumber",
					"outputs": [
						{
							"internalType": "uint256",
							"name": "",
							"type": "uint256"
						}
					],
					"stateMutability": "view",
					"type": "function"
				},
				{
					"inputs": [
						{
							"internalType": "uint256",
							"name": "",
							"type": "uint256"
						}
					],
					"name": "multiplier",
					"outputs": [
						{
							"internalType": "uint256",
							"name": "",
							"type": "uint256"
						}
					],
					"stateMutability": "view",
					"type": "function"
				},
				{
					"inputs": [
						{
							"internalType": "uint256",
							"name": "",
							"type": "uint256"
						}
					],
					"name": "odds",
					"outputs": [
						{
							"internalType": "uint256",
							"name": "",
							"type": "uint256"
						}
					],
					"stateMutability": "view",
					"type": "function"
				},
				{
					"inputs": [],
					"name": "owner",
					"outputs": [
						{
							"internalType": "address",
							"name": "",
							"type": "address"
						}
					],
					"stateMutability": "view",
					"type": "function"
				},
				{
					"inputs": [
						{
							"internalType": "bool",
							"name": "_isPaused",
							"type": "bool"
						}
					],
					"name": "pauseGames",
					"outputs": [],
					"stateMutability": "nonpayable",
					"type": "function"
				},
				{
					"inputs": [
						{
							"internalType": "uint256",
							"name": "",
							"type": "uint256"
						}
					],
					"name": "payTokens",
					"outputs": [
						{
							"internalType": "address",
							"name": "",
							"type": "address"
						}
					],
					"stateMutability": "view",
					"type": "function"
				},
				{
					"inputs": [
						{
							"internalType": "uint256",
							"name": "_bet",
							"type": "uint256"
						}
					],
					"name": "pickTicket",
					"outputs": [
						{
							"internalType": "uint256",
							"name": "ticketPicked",
							"type": "uint256"
						},
						{
							"internalType": "bool",
							"name": "isToken",
							"type": "bool"
						}
					],
					"stateMutability": "nonpayable",
					"type": "function"
				},
				{
					"inputs": [
						{
							"internalType": "uint256",
							"name": "_amount",
							"type": "uint256"
						}
					],
					"name": "reducejackPot",
					"outputs": [],
					"stateMutability": "nonpayable",
					"type": "function"
				},
				{
					"inputs": [
						{
							"internalType": "address",
							"name": "_payToken",
							"type": "address"
						}
					],
					"name": "removePayToken",
					"outputs": [],
					"stateMutability": "nonpayable",
					"type": "function"
				},
				{
					"inputs": [],
					"name": "renounceOwnership",
					"outputs": [],
					"stateMutability": "nonpayable",
					"type": "function"
				},
				{
					"inputs": [
						{
							"internalType": "uint256",
							"name": "mod",
							"type": "uint256"
						}
					],
					"name": "rng",
					"outputs": [
						{
							"internalType": "uint256",
							"name": "value",
							"type": "uint256"
						}
					],
					"stateMutability": "nonpayable",
					"type": "function"
				},
				{
					"inputs": [],
					"name": "safetyMultiplier",
					"outputs": [
						{
							"internalType": "uint256",
							"name": "",
							"type": "uint256"
						}
					],
					"stateMutability": "view",
					"type": "function"
				},
				{
					"inputs": [
						{
							"internalType": "uint256",
							"name": "",
							"type": "uint256"
						}
					],
					"name": "scratchHistory",
					"outputs": [
						{
							"internalType": "uint256",
							"name": "time",
							"type": "uint256"
						},
						{
							"internalType": "uint256",
							"name": "ticket",
							"type": "uint256"
						},
						{
							"internalType": "address",
							"name": "player",
							"type": "address"
						},
						{
							"internalType": "uint256",
							"name": "addToPot",
							"type": "uint256"
						},
						{
							"internalType": "address",
							"name": "token",
							"type": "address"
						},
						{
							"internalType": "uint256",
							"name": "amount",
							"type": "uint256"
						},
						{
							"internalType": "uint256",
							"name": "ticketValue",
							"type": "uint256"
						}
					],
					"stateMutability": "view",
					"type": "function"
				},
				{
					"inputs": [
						{
							"internalType": "uint256",
							"name": "_newMin",
							"type": "uint256"
						},
						{
							"internalType": "uint256",
							"name": "_newMax",
							"type": "uint256"
						}
					],
					"name": "setBets",
					"outputs": [],
					"stateMutability": "nonpayable",
					"type": "function"
				},
				{
					"inputs": [
						{
							"internalType": "uint256",
							"name": "newDevFee",
							"type": "uint256"
						}
					],
					"name": "setDevFee",
					"outputs": [],
					"stateMutability": "nonpayable",
					"type": "function"
				},
				{
					"inputs": [
						{
							"internalType": "uint256",
							"name": "newJackPotChance",
							"type": "uint256"
						}
					],
					"name": "setJackPotChance",
					"outputs": [],
					"stateMutability": "nonpayable",
					"type": "function"
				},
				{
					"inputs": [
						{
							"internalType": "uint256",
							"name": "newjackPotFee",
							"type": "uint256"
						}
					],
					"name": "setJackPotFee",
					"outputs": [],
					"stateMutability": "nonpayable",
					"type": "function"
				},
				{
					"inputs": [
						{
							"internalType": "address",
							"name": "newNFTContract",
							"type": "address"
						}
					],
					"name": "setNFT",
					"outputs": [],
					"stateMutability": "nonpayable",
					"type": "function"
				},
				{
					"inputs": [
						{
							"internalType": "address",
							"name": "newRNG",
							"type": "address"
						}
					],
					"name": "setRNG",
					"outputs": [],
					"stateMutability": "nonpayable",
					"type": "function"
				},
				{
					"inputs": [
						{
							"internalType": "uint256",
							"name": "newSafety",
							"type": "uint256"
						}
					],
					"name": "setSafetyMultiplier",
					"outputs": [],
					"stateMutability": "nonpayable",
					"type": "function"
				},
				{
					"inputs": [
						{
							"internalType": "uint256",
							"name": "newJackPotCost",
							"type": "uint256"
						}
					],
					"name": "setjackpotCost",
					"outputs": [],
					"stateMutability": "nonpayable",
					"type": "function"
				},
				{
					"inputs": [
						{
							"internalType": "uint256[]",
							"name": "_multiplier",
							"type": "uint256[]"
						},
						{
							"internalType": "uint256[]",
							"name": "_odds",
							"type": "uint256[]"
						}
					],
					"name": "setupPerThousand",
					"outputs": [],
					"stateMutability": "nonpayable",
					"type": "function"
				},
				{
					"inputs": [],
					"name": "ticketNumber",
					"outputs": [
						{
							"internalType": "uint256",
							"name": "",
							"type": "uint256"
						}
					],
					"stateMutability": "view",
					"type": "function"
				},
				{
					"inputs": [
						{
							"internalType": "address",
							"name": "newOwner",
							"type": "address"
						}
					],
					"name": "transferOwnership",
					"outputs": [],
					"stateMutability": "nonpayable",
					"type": "function"
				},
				{
					"inputs": [
						{
							"internalType": "uint256",
							"name": "timeToCheckTo",
							"type": "uint256"
						}
					],
					"name": "viewJackPotHistory",
					"outputs": [
						{
							"components": [
								{
									"internalType": "uint256",
									"name": "time",
									"type": "uint256"
								},
								{
									"internalType": "uint256",
									"name": "ticket",
									"type": "uint256"
								},
								{
									"internalType": "address",
									"name": "player",
									"type": "address"
								},
								{
									"internalType": "uint256",
									"name": "addToPot",
									"type": "uint256"
								},
								{
									"internalType": "bool",
									"name": "isWinner",
									"type": "bool"
								},
								{
									"internalType": "uint256",
									"name": "_amount",
									"type": "uint256"
								}
							],
							"internalType": "struct Scratchers.HistoryJ[]",
							"name": "jHistory",
							"type": "tuple[]"
						}
					],
					"stateMutability": "view",
					"type": "function"
				},
				{
					"inputs": [
						{
							"internalType": "uint256",
							"name": "timeToCheckTo",
							"type": "uint256"
						}
					],
					"name": "viewScratcherHistory",
					"outputs": [
						{
							"components": [
								{
									"internalType": "uint256",
									"name": "time",
									"type": "uint256"
								},
								{
									"internalType": "uint256",
									"name": "ticket",
									"type": "uint256"
								},
								{
									"internalType": "address",
									"name": "player",
									"type": "address"
								},
								{
									"internalType": "uint256",
									"name": "addToPot",
									"type": "uint256"
								},
								{
									"internalType": "address",
									"name": "token",
									"type": "address"
								},
								{
									"internalType": "uint256",
									"name": "amount",
									"type": "uint256"
								},
								{
									"internalType": "uint256",
									"name": "ticketValue",
									"type": "uint256"
								}
							],
							"internalType": "struct Scratchers.History[]",
							"name": "sHistory",
							"type": "tuple[]"
						}
					],
					"stateMutability": "view",
					"type": "function"
				},
				{
					"inputs": [],
					"name": "withdrawALL_BNB",
					"outputs": [],
					"stateMutability": "nonpayable",
					"type": "function"
				},
				{
					"inputs": [
						{
							"internalType": "uint256",
							"name": "_amount",
							"type": "uint256"
						}
					],
					"name": "withdrawBNB",
					"outputs": [],
					"stateMutability": "nonpayable",
					"type": "function"
				},
				{
					"inputs": [
						{
							"internalType": "address",
							"name": "_tokenAddress",
							"type": "address"
						},
						{
							"internalType": "uint256",
							"name": "_amount",
							"type": "uint256"
						}
					],
					"name": "withdrawlToken",
					"outputs": [],
					"stateMutability": "nonpayable",
					"type": "function"
				},
				{
					"stateMutability": "payable",
					"type": "receive"
				}
			],
			"devdoc": {
				"kind": "dev",
				"methods": {
					"owner()": {
						"details": "Returns the address of the current owner."
					},
					"renounceOwnership()": {
						"details": "Leaves the contract without owner. It will not be possible to call `onlyOwner` functions anymore. Can only be called by the current owner. NOTE: Renouncing ownership will leave the contract without an owner, thereby removing any functionality that is only available to the owner."
					},
					"transferOwnership(address)": {
						"details": "Transfers ownership of the contract to a new account (`newOwner`). Can only be called by the current owner."
					}
				},
				"version": 1
			},
			"evm": {
				"assembly": "    /* \"MSWAP/Games/Scratchers.sol\":7531:7549  500000000000000000 */\n  0x06f05b59d3b20000\n    /* \"MSWAP/Games/Scratchers.sol\":7514:7549  uint256 minBet = 500000000000000000 */\n  0x04\n  swap1\n  dup2\n  sstore\n    /* \"MSWAP/Games/Scratchers.sol\":7598:7619  250000000000000000000 */\n  0x0d8d726b7177a80000\n    /* \"MSWAP/Games/Scratchers.sol\":7581:7619  uint256 maxBet = 250000000000000000000 */\n  0x05\n  swap1\n  dup2\n  sstore\n    /* \"MSWAP/Games/Scratchers.sol\":7709:7728  5000000000000000000 */\n  0x4563918244f40000\n    /* \"MSWAP/Games/Scratchers.sol\":7677:7728  uint256 public jackPotCostBNB = 5000000000000000000 */\n  0x06\n  swap1\n  dup2\n  sstore\n    /* \"MSWAP/Games/Scratchers.sol\":7838:7841  500 */\n  0x01f4\n    /* \"MSWAP/Games/Scratchers.sol\":7814:7841  uint256 public devFee = 500 */\n  0x07\n  dup2\n  swap1\n  sstore\n    /* \"MSWAP/Games/Scratchers.sol\":7928:7959  uint256 public jackPotFee = 500 */\n  0x08\n  sstore\n    /* \"MSWAP/Games/Scratchers.sol\":8028:8031  200 */\n  0xc8\n    /* \"MSWAP/Games/Scratchers.sol\":7997:8031  uint256 public jackPotChance = 200 */\n  0x09\n  sstore\n    /* \"MSWAP/Games/Scratchers.sol\":8116:8184  uint256[] public multiplier = [0, 1, 2, 3, 4, 5, 6, 10, 20, 50, 100] */\n  0x01e0\n    /* \"MSWAP/Games/Scratchers.sol\":7355:22582  contract Scratchers is Ownable {\r... */\n  0x40\n    /* \"MSWAP/Games/Scratchers.sol\":8116:8184  uint256[] public multiplier = [0, 1, 2, 3, 4, 5, 6, 10, 20, 50, 100] */\n  mstore\n  0x00\n    /* \"MSWAP/Games/Scratchers.sol\":7355:22582  contract Scratchers is Ownable {\r... */\n  0x80\n    /* \"MSWAP/Games/Scratchers.sol\":8116:8184  uint256[] public multiplier = [0, 1, 2, 3, 4, 5, 6, 10, 20, 50, 100] */\n  swap1\n  dup2\n  mstore\n    /* \"MSWAP/Games/Scratchers.sol\":8150:8151  1 */\n  0x01\n    /* \"MSWAP/Games/Scratchers.sol\":8116:8184  uint256[] public multiplier = [0, 1, 2, 3, 4, 5, 6, 10, 20, 50, 100] */\n  0xa0\n  mstore\n    /* \"MSWAP/Games/Scratchers.sol\":8153:8154  2 */\n  0x02\n    /* \"MSWAP/Games/Scratchers.sol\":8116:8184  uint256[] public multiplier = [0, 1, 2, 3, 4, 5, 6, 10, 20, 50, 100] */\n  0xc0\n  mstore\n    /* \"MSWAP/Games/Scratchers.sol\":8156:8157  3 */\n  0x03\n    /* \"MSWAP/Games/Scratchers.sol\":8116:8184  uint256[] public multiplier = [0, 1, 2, 3, 4, 5, 6, 10, 20, 50, 100] */\n  0xe0\n  mstore\n  0x0100\n  swap4\n  swap1\n  swap4\n  mstore\n  0x0120\n  swap2\n  swap1\n  swap2\n  mstore\n  0x0140\n  mstore\n    /* \"MSWAP/Games/Scratchers.sol\":8168:8170  10 */\n  0x0a\n    /* \"MSWAP/Games/Scratchers.sol\":8116:8184  uint256[] public multiplier = [0, 1, 2, 3, 4, 5, 6, 10, 20, 50, 100] */\n  0x0160\n  dup2\n  swap1\n  mstore\n    /* \"MSWAP/Games/Scratchers.sol\":8172:8174  20 */\n  0x14\n    /* \"MSWAP/Games/Scratchers.sol\":8116:8184  uint256[] public multiplier = [0, 1, 2, 3, 4, 5, 6, 10, 20, 50, 100] */\n  0x0180\n  mstore\n    /* \"MSWAP/Games/Scratchers.sol\":8176:8178  50 */\n  0x32\n    /* \"MSWAP/Games/Scratchers.sol\":8116:8184  uint256[] public multiplier = [0, 1, 2, 3, 4, 5, 6, 10, 20, 50, 100] */\n  0x01a0\n  mstore\n    /* \"MSWAP/Games/Scratchers.sol\":8180:8183  100 */\n  0x64\n    /* \"MSWAP/Games/Scratchers.sol\":8116:8184  uint256[] public multiplier = [0, 1, 2, 3, 4, 5, 6, 10, 20, 50, 100] */\n  0x01c0\n  mstore\n  tag_1\n  swap2\n  0x0b\n  tag_2\n  jump\t// in\ntag_1:\n  pop\n    /* \"MSWAP/Games/Scratchers.sol\":8231:8298  uint256[] public odds = [700, 100, 30, 100, 15, 30, 10, 7, 4, 3, 1] */\n  0x40\n  dup1\n  mload\n  0x0160\n  dup2\n  add\n  dup3\n  mstore\n    /* \"MSWAP/Games/Scratchers.sol\":8256:8259  700 */\n  0x02bc\n    /* \"MSWAP/Games/Scratchers.sol\":8231:8298  uint256[] public odds = [700, 100, 30, 100, 15, 30, 10, 7, 4, 3, 1] */\n  dup2\n  mstore\n    /* \"MSWAP/Games/Scratchers.sol\":8261:8264  100 */\n  0x64\n    /* \"MSWAP/Games/Scratchers.sol\":8231:8298  uint256[] public odds = [700, 100, 30, 100, 15, 30, 10, 7, 4, 3, 1] */\n  0x20\n  dup3\n  add\n  dup2\n  swap1\n  mstore\n    /* \"MSWAP/Games/Scratchers.sol\":8266:8268  30 */\n  0x1e\n    /* \"MSWAP/Games/Scratchers.sol\":8231:8298  uint256[] public odds = [700, 100, 30, 100, 15, 30, 10, 7, 4, 3, 1] */\n  swap3\n  dup3\n  add\n  dup4\n  swap1\n  mstore\n  0x60\n  dup3\n  add\n  mstore\n    /* \"MSWAP/Games/Scratchers.sol\":8275:8277  15 */\n  0x0f\n    /* \"MSWAP/Games/Scratchers.sol\":8231:8298  uint256[] public odds = [700, 100, 30, 100, 15, 30, 10, 7, 4, 3, 1] */\n  0x80\n  dup3\n  add\n  mstore\n  0xa0\n  dup2\n  add\n  swap2\n  swap1\n  swap2\n  mstore\n    /* \"MSWAP/Games/Scratchers.sol\":8283:8285  10 */\n  0x0a\n    /* \"MSWAP/Games/Scratchers.sol\":8231:8298  uint256[] public odds = [700, 100, 30, 100, 15, 30, 10, 7, 4, 3, 1] */\n  0xc0\n  dup3\n  add\n  mstore\n    /* \"MSWAP/Games/Scratchers.sol\":8287:8288  7 */\n  0x07\n    /* \"MSWAP/Games/Scratchers.sol\":8231:8298  uint256[] public odds = [700, 100, 30, 100, 15, 30, 10, 7, 4, 3, 1] */\n  0xe0\n  dup3\n  add\n  mstore\n    /* \"MSWAP/Games/Scratchers.sol\":8290:8291  4 */\n  0x04\n    /* \"MSWAP/Games/Scratchers.sol\":8231:8298  uint256[] public odds = [700, 100, 30, 100, 15, 30, 10, 7, 4, 3, 1] */\n  0x0100\n  dup3\n  add\n  mstore\n    /* \"MSWAP/Games/Scratchers.sol\":8293:8294  3 */\n  0x03\n    /* \"MSWAP/Games/Scratchers.sol\":8231:8298  uint256[] public odds = [700, 100, 30, 100, 15, 30, 10, 7, 4, 3, 1] */\n  0x0120\n  dup3\n  add\n  mstore\n    /* \"MSWAP/Games/Scratchers.sol\":8296:8297  1 */\n  0x01\n    /* \"MSWAP/Games/Scratchers.sol\":8231:8298  uint256[] public odds = [700, 100, 30, 100, 15, 30, 10, 7, 4, 3, 1] */\n  0x0140\n  dup3\n  add\n  mstore\n  tag_3\n  swap1\n  0x0b\n  swap1\n  dup2\n  tag_4\n  jump\t// in\ntag_3:\n  pop\n    /* \"MSWAP/Games/Scratchers.sol\":8354:8358  1000 */\n  0x03e8\n    /* \"MSWAP/Games/Scratchers.sol\":8327:8358  uint256 public chancePer = 1000 */\n  0x0c\n  sstore\n    /* \"MSWAP/Games/Scratchers.sol\":8403:8404  6 */\n  0x06\n    /* \"MSWAP/Games/Scratchers.sol\":8369:8404  uint256 public safetyMultiplier = 6 */\n  0x0d\n  sstore\n  0x00\n    /* \"MSWAP/Games/Scratchers.sol\":8440:8466  uint256 public jackPot = 0 */\n  0x0e\n  dup2\n  swap1\n  sstore\n    /* \"MSWAP/Games/Scratchers.sol\":8477:8508  uint256 public ticketNumber = 0 */\n  0x0f\n  dup2\n  swap1\n  sstore\n    /* \"MSWAP/Games/Scratchers.sol\":8519:8557  uint256 public jackPotTicketNumber = 0 */\n  0x10\n  sstore\n    /* \"MSWAP/Games/Scratchers.sol\":13209:13237  bool public isPaused = false */\n  0x15\n  dup1\n  sload\n  not(0xff)\n  and\n  swap1\n  sstore\n    /* \"MSWAP/Games/Scratchers.sol\":8897:9292  constructor(address _router, address _rng, address _marsFactory) {\r... */\n  callvalue\n  dup1\n  iszero\n  tag_5\n  jumpi\n  0x00\n  dup1\n  revert\ntag_5:\n  pop\n  mload(0x40)\n  sub(codesize, bytecodeSize)\n  dup1\n  bytecodeSize\n  dup4\n  codecopy\n  dup2\n  add\n  0x40\n  dup2\n  swap1\n  mstore\n  tag_6\n  swap2\n  tag_7\n  jump\t// in\ntag_6:\n    /* \"MSWAP/Games/Scratchers.sol\":4712:4744  _transferOwnership(_msgSender()) */\n  tag_11\n    /* \"MSWAP/Games/Scratchers.sol\":3622:3632  msg.sender */\n  caller\n    /* \"MSWAP/Games/Scratchers.sol\":4712:4730  _transferOwnership */\n  tag_14\n    /* \"MSWAP/Games/Scratchers.sol\":4712:4744  _transferOwnership(_msgSender()) */\n  jump\t// in\ntag_11:\n    /* \"MSWAP/Games/Scratchers.sol\":8993:9057  History(block.timestamp, 1, address(0x0), 0, address(0x0), 0, 0) */\n  0x40\n  dup1\n  mload\n  0xe0\n  dup2\n  add\n  dup3\n  mstore\n    /* \"MSWAP/Games/Scratchers.sol\":9001:9016  block.timestamp */\n  timestamp\n    /* \"MSWAP/Games/Scratchers.sol\":8993:9057  History(block.timestamp, 1, address(0x0), 0, address(0x0), 0, 0) */\n  dup1\n  dup3\n  mstore\n    /* \"MSWAP/Games/Scratchers.sol\":9018:9019  1 */\n  0x01\n    /* \"MSWAP/Games/Scratchers.sol\":8993:9057  History(block.timestamp, 1, address(0x0), 0, address(0x0), 0, 0) */\n  0x20\n  dup1\n  dup5\n  add\n  dup3\n  dup2\n  mstore\n  0x00\n  dup6\n  dup8\n  add\n  dup2\n  dup2\n  mstore\n  0x60\n  dup1\n  dup9\n  add\n  dup4\n  dup2\n  mstore\n  0x80\n  dup1\n  dup11\n  add\n  dup6\n  dup2\n  mstore\n  0xa0\n  dup1\n  dup13\n  add\n  dup8\n  dup2\n  mstore\n  0xc0\n  dup1\n  dup15\n  add\n  dup10\n  dup2\n  mstore\n    /* \"MSWAP/Games/Scratchers.sol\":8973:8990  scratchHistory[0] */\n  dup10\n  dup1\n  mstore\n    /* \"MSWAP/Games/Scratchers.sol\":8973:8987  scratchHistory */\n  0x16\n    /* \"MSWAP/Games/Scratchers.sol\":8973:8990  scratchHistory[0] */\n  dup13\n  mstore\n    /* \"MSWAP/Games/Scratchers.sol\":8973:9057  scratchHistory[0] = History(block.timestamp, 1, address(0x0), 0, address(0x0), 0, 0) */\n  swap14\n  mload\n    /* \"MSWAP/Games/Scratchers.sol\":8973:8990  scratchHistory[0] */\n  0x0263c2b778d062355049effc2dece97bc6547ff8a88a3258daa512061c2153dd\n    /* \"MSWAP/Games/Scratchers.sol\":8973:9057  scratchHistory[0] = History(block.timestamp, 1, address(0x0), 0, address(0x0), 0, 0) */\n  sstore\n  swap9\n  mload\n  0x0263c2b778d062355049effc2dece97bc6547ff8a88a3258daa512061c2153de\n  sstore\n  swap6\n  mload\n  0x0263c2b778d062355049effc2dece97bc6547ff8a88a3258daa512061c2153df\n  dup1\n  sload\n  not(sub(shl(0xa0, 0x01), 0x01))\n  swap1\n  dup2\n  and\n  sub(shl(0xa0, 0x01), 0x01)\n  swap4\n  dup5\n  and\n  or\n  swap1\n  swap2\n  sstore\n  swap5\n  mload\n  0x0263c2b778d062355049effc2dece97bc6547ff8a88a3258daa512061c2153e0\n  sstore\n  swap2\n  mload\n  0x0263c2b778d062355049effc2dece97bc6547ff8a88a3258daa512061c2153e1\n  dup1\n  sload\n  dup7\n  and\n  swap2\n  dup5\n  and\n  swap2\n  swap1\n  swap2\n  or\n  swap1\n  sstore\n  swap5\n  mload\n  0x0263c2b778d062355049effc2dece97bc6547ff8a88a3258daa512061c2153e2\n  sstore\n  swap10\n  mload\n  0x0263c2b778d062355049effc2dece97bc6547ff8a88a3258daa512061c2153e3\n  sstore\n    /* \"MSWAP/Games/Scratchers.sol\":9088:9143  HistoryJ(block.timestamp, 1, address(0x0), 0, false, 0) */\n  dup11\n  mload\n  swap6\n  dup7\n  add\n  dup12\n  mstore\n  swap8\n  dup6\n  mstore\n  dup5\n  dup7\n  add\n  swap7\n  dup8\n  mstore\n  dup5\n  dup11\n  add\n  dup5\n  dup2\n  mstore\n  swap2\n  dup6\n  add\n  dup5\n  dup2\n  mstore\n  swap8\n  dup6\n  add\n  dup5\n  dup2\n  mstore\n  swap3\n  dup6\n  add\n  dup5\n  dup2\n  mstore\n    /* \"MSWAP/Games/Scratchers.sol\":9068:9085  jackPotHistory[0] */\n  swap4\n  dup1\n  mstore\n    /* \"MSWAP/Games/Scratchers.sol\":9068:9082  jackPotHistory */\n  0x17\n    /* \"MSWAP/Games/Scratchers.sol\":9068:9085  jackPotHistory[0] */\n  dup7\n  mstore\n    /* \"MSWAP/Games/Scratchers.sol\":9068:9143  jackPotHistory[0] = HistoryJ(block.timestamp, 1, address(0x0), 0, false, 0) */\n  swap4\n  mload\n    /* \"MSWAP/Games/Scratchers.sol\":9068:9085  jackPotHistory[0] */\n  0xd840e16649f6b9a295d95876f4633d3a6b10b55e8162971cf78afd886d5ec89b\n    /* \"MSWAP/Games/Scratchers.sol\":9068:9143  jackPotHistory[0] = HistoryJ(block.timestamp, 1, address(0x0), 0, false, 0) */\n  sstore\n  swap5\n  mload\n  0xd840e16649f6b9a295d95876f4633d3a6b10b55e8162971cf78afd886d5ec89c\n  sstore\n  swap4\n  mload\n  0xd840e16649f6b9a295d95876f4633d3a6b10b55e8162971cf78afd886d5ec89d\n  dup1\n  sload\n  dup5\n  and\n  swap2\n  dup9\n  and\n  swap2\n  swap1\n  swap2\n  or\n  swap1\n  sstore\n  swap4\n  mload\n  0xd840e16649f6b9a295d95876f4633d3a6b10b55e8162971cf78afd886d5ec89e\n  sstore\n  swap2\n  mload\n  0xd840e16649f6b9a295d95876f4633d3a6b10b55e8162971cf78afd886d5ec89f\n  dup1\n  sload\n  not(0xff)\n  and\n  swap2\n  iszero\n  iszero\n  swap2\n  swap1\n  swap2\n  or\n  swap1\n  sstore\n  swap2\n  mload\n  0xd840e16649f6b9a295d95876f4633d3a6b10b55e8162971cf78afd886d5ec8a0\n  sstore\n    /* \"MSWAP/Games/Scratchers.sol\":8973:9057  scratchHistory[0] = History(block.timestamp, 1, address(0x0), 0, address(0x0), 0, 0) */\n  0x02\n    /* \"MSWAP/Games/Scratchers.sol\":9154:9178  router = Router(_router) */\n  dup1\n  sload\n  dup3\n  and\n  dup9\n  dup6\n  and\n  swap1\n  dup2\n  or\n  swap1\n  swap2\n  sstore\n    /* \"MSWAP/Games/Scratchers.sol\":8973:9057  scratchHistory[0] = History(block.timestamp, 1, address(0x0), 0, address(0x0), 0, 0) */\n  0x03\n    /* \"MSWAP/Games/Scratchers.sol\":9189:9210  random = Random(_rng) */\n  dup1\n  sload\n  swap1\n  swap3\n  and\n  swap4\n  dup8\n  and\n  swap4\n  swap1\n  swap4\n  or\n  swap1\n  sstore\n    /* \"MSWAP/Games/Scratchers.sol\":9233:9246  router.WETH() */\n  dup3\n  mload\n  shl(0xe3, 0x15ab88c9)\n  dup2\n  mstore\n  swap3\n  mload\n    /* \"MSWAP/Games/Scratchers.sol\":9221:9247  addPayToken(router.WETH()) */\n  tag_16\n  swap4\n    /* \"MSWAP/Games/Scratchers.sol\":9233:9244  router.WETH */\n  0xad5c4648\n  swap3\n    /* \"MSWAP/Games/Scratchers.sol\":8973:9057  scratchHistory[0] = History(block.timestamp, 1, address(0x0), 0, address(0x0), 0, 0) */\n  0x04\n    /* \"MSWAP/Games/Scratchers.sol\":9233:9246  router.WETH() */\n  dup1\n  dup4\n  add\n  swap4\n    /* \"MSWAP/Games/Scratchers.sol\":8993:9057  History(block.timestamp, 1, address(0x0), 0, address(0x0), 0, 0) */\n  swap2\n  swap3\n    /* \"MSWAP/Games/Scratchers.sol\":9233:9246  router.WETH() */\n  dup3\n  swap1\n  sub\n  add\n  dup2\n    /* \"MSWAP/Games/Scratchers.sol\":9154:9178  router = Router(_router) */\n  dup7\n    /* \"MSWAP/Games/Scratchers.sol\":9233:9246  router.WETH() */\n  dup1\n  extcodesize\n  iszero\n  dup1\n  iszero\n  tag_17\n  jumpi\n  0x00\n  dup1\n  revert\ntag_17:\n  pop\n  gas\n  staticcall\n  iszero\n  dup1\n  iszero\n  tag_19\n  jumpi\n  returndatasize\n  0x00\n  dup1\n  returndatacopy\n  revert(0x00, returndatasize)\ntag_19:\n  pop\n  pop\n  pop\n  pop\n  mload(0x40)\n  returndatasize\n  not(0x1f)\n  0x1f\n  dup3\n  add\n  and\n  dup3\n  add\n  dup1\n  0x40\n  mstore\n  pop\n  dup2\n  add\n  swap1\n  tag_20\n  swap2\n  swap1\n  tag_21\n  jump\t// in\ntag_20:\n    /* \"MSWAP/Games/Scratchers.sol\":9221:9232  addPayToken */\n  tag_22\n    /* \"MSWAP/Games/Scratchers.sol\":9221:9247  addPayToken(router.WETH()) */\n  jump\t// in\ntag_16:\n    /* \"MSWAP/Games/Scratchers.sol\":9258:9269  marsFactory */\n  0x01\n    /* \"MSWAP/Games/Scratchers.sol\":9258:9284  marsFactory = _marsFactory */\n  dup1\n  sload\n  not(sub(shl(0xa0, 0x01), 0x01))\n  and\n  sub(shl(0xa0, 0x01), 0x01)\n  swap3\n  swap1\n  swap3\n  and\n  swap2\n  swap1\n  swap2\n  or\n  swap1\n  sstore\n  pop\n    /* \"MSWAP/Games/Scratchers.sol\":7355:22582  contract Scratchers is Ownable {\r... */\n  tag_53\n  swap1\n  pop\n  jump\n    /* \"MSWAP/Games/Scratchers.sol\":6258:6449  function _transferOwnership(address newOwner) internal virtual {\r... */\ntag_14:\n    /* \"MSWAP/Games/Scratchers.sol\":6332:6348  address oldOwner */\n  0x00\n    /* \"MSWAP/Games/Scratchers.sol\":6351:6357  _owner */\n  dup1\n  sload\n  sub(shl(0xa0, 0x01), 0x01)\n    /* \"MSWAP/Games/Scratchers.sol\":6368:6385  _owner = newOwner */\n  dup4\n  dup2\n  and\n  not(sub(shl(0xa0, 0x01), 0x01))\n  dup4\n  and\n  dup2\n  or\n  dup5\n  sstore\n    /* \"MSWAP/Games/Scratchers.sol\":6401:6441  OwnershipTransferred(oldOwner, newOwner) */\n  mload(0x40)\n    /* \"MSWAP/Games/Scratchers.sol\":6351:6357  _owner */\n  swap2\n  swap1\n  swap3\n  and\n  swap3\n  dup4\n  swap2\n    /* \"MSWAP/Games/Scratchers.sol\":6401:6441  OwnershipTransferred(oldOwner, newOwner) */\n  0x8be0079c531659141344cd1fd0a4f28419497f9722a3daafe3b4186f6b6457e0\n  swap2\n    /* \"MSWAP/Games/Scratchers.sol\":6332:6348  address oldOwner */\n  swap1\n    /* \"MSWAP/Games/Scratchers.sol\":6401:6441  OwnershipTransferred(oldOwner, newOwner) */\n  log3\n    /* \"MSWAP/Games/Scratchers.sol\":6321:6449  {\r... */\n  pop\n    /* \"MSWAP/Games/Scratchers.sol\":6258:6449  function _transferOwnership(address newOwner) internal virtual {\r... */\n  pop\n  jump\t// out\n    /* \"MSWAP/Games/Scratchers.sol\":12260:12467  function addPayToken(address _payToken) public onlyOwner {\r... */\ntag_22:\n    /* \"MSWAP/Games/Scratchers.sol\":4877:4890  _checkOwner() */\n  tag_27\n    /* \"MSWAP/Games/Scratchers.sol\":4877:4888  _checkOwner */\n  tag_28\n    /* \"MSWAP/Games/Scratchers.sol\":4877:4890  _checkOwner() */\n  jump\t// in\ntag_27:\n  sub(shl(0xa0, 0x01), 0x01)\n    /* \"MSWAP/Games/Scratchers.sol\":12338:12359  isPayToken[_payToken] */\n  dup2\n  and\n  0x00\n  swap1\n  dup2\n  mstore\n    /* \"MSWAP/Games/Scratchers.sol\":12338:12348  isPayToken */\n  0x14\n    /* \"MSWAP/Games/Scratchers.sol\":12338:12359  isPayToken[_payToken] */\n  0x20\n  mstore\n  0x40\n  swap1\n  keccak256\n  sload\n  0xff\n  and\n    /* \"MSWAP/Games/Scratchers.sol\":12337:12359  !isPayToken[_payToken] */\n  iszero\n    /* \"MSWAP/Games/Scratchers.sol\":12329:12381  require(!isPayToken[_payToken],\"Already a PayToken\") */\n  tag_30\n  jumpi\n  mload(0x40)\n  shl(0xe5, 0x461bcd)\n  dup2\n  mstore\n    /* \"#utility.yul\":994:996   */\n  0x20\n    /* \"MSWAP/Games/Scratchers.sol\":12329:12381  require(!isPayToken[_payToken],\"Already a PayToken\") */\n  0x04\n  dup3\n  add\n    /* \"#utility.yul\":976:997   */\n  mstore\n    /* \"#utility.yul\":1033:1035   */\n  0x12\n    /* \"#utility.yul\":1013:1031   */\n  0x24\n  dup3\n  add\n    /* \"#utility.yul\":1006:1036   */\n  mstore\n  shl(0x71, 0x20b63932b0b23c9030902830bcaa37b5b2b7)\n    /* \"#utility.yul\":1052:1070   */\n  0x44\n  dup3\n  add\n    /* \"#utility.yul\":1045:1093   */\n  mstore\n    /* \"#utility.yul\":1110:1128   */\n  0x64\n  add\n    /* \"MSWAP/Games/Scratchers.sol\":12329:12381  require(!isPayToken[_payToken],\"Already a PayToken\") */\ntag_31:\n  mload(0x40)\n  dup1\n  swap2\n  sub\n  swap1\n  revert\ntag_30:\n    /* \"MSWAP/Games/Scratchers.sol\":12393:12402  payTokens */\n  0x13\n    /* \"MSWAP/Games/Scratchers.sol\":12393:12418  payTokens.push(_payToken) */\n  dup1\n  sload\n  0x01\n  dup2\n  dup2\n  add\n  swap1\n  swap3\n  sstore\n  0x66de8ffda797e3de9c05e8fc57b3bf0ec28a930d40b0d285d93c06501cf6a090\n  add\n  dup1\n  sload\n  sub(shl(0xa0, 0x01), 0x01)\n  swap1\n  swap4\n  and\n  not(sub(shl(0xa0, 0x01), 0x01))\n  swap1\n  swap4\n  and\n  dup4\n  or\n  swap1\n  sstore\n  0x00\n    /* \"MSWAP/Games/Scratchers.sol\":12430:12451  isPayToken[_payToken] */\n  swap2\n  dup3\n  mstore\n    /* \"MSWAP/Games/Scratchers.sol\":12430:12440  isPayToken */\n  0x14\n    /* \"MSWAP/Games/Scratchers.sol\":12393:12418  payTokens.push(_payToken) */\n  0x20\n    /* \"MSWAP/Games/Scratchers.sol\":12430:12451  isPayToken[_payToken] */\n  mstore\n  0x40\n  swap1\n  swap2\n  keccak256\n    /* \"MSWAP/Games/Scratchers.sol\":12430:12458  isPayToken[_payToken] = true */\n  dup1\n  sload\n  not(0xff)\n  and\n  swap1\n  swap2\n  or\n  swap1\n  sstore\n    /* \"MSWAP/Games/Scratchers.sol\":12260:12467  function addPayToken(address _payToken) public onlyOwner {\r... */\n  jump\t// out\n    /* \"MSWAP/Games/Scratchers.sol\":5156:5288  function _checkOwner() internal view virtual {\r... */\ntag_28:\n    /* \"MSWAP/Games/Scratchers.sol\":5037:5044  address */\n  0x00\n    /* \"MSWAP/Games/Scratchers.sol\":5064:5070  _owner */\n  sload\n  sub(shl(0xa0, 0x01), 0x01)\n  and\n    /* \"MSWAP/Games/Scratchers.sol\":3622:3632  msg.sender */\n  caller\n    /* \"MSWAP/Games/Scratchers.sol\":5220:5243  owner() == _msgSender() */\n  eq\n    /* \"MSWAP/Games/Scratchers.sol\":5212:5280  require(owner() == _msgSender(), \"Ownable: caller is not the owner\") */\n  tag_38\n  jumpi\n  mload(0x40)\n  shl(0xe5, 0x461bcd)\n  dup2\n  mstore\n    /* \"#utility.yul\":1341:1343   */\n  0x20\n    /* \"MSWAP/Games/Scratchers.sol\":5212:5280  require(owner() == _msgSender(), \"Ownable: caller is not the owner\") */\n  0x04\n  dup3\n  add\n    /* \"#utility.yul\":1323:1344   */\n  dup2\n  swap1\n  mstore\n    /* \"#utility.yul\":1360:1378   */\n  0x24\n  dup3\n  add\n    /* \"#utility.yul\":1353:1383   */\n  mstore\n    /* \"#utility.yul\":1419:1453   */\n  0x4f776e61626c653a2063616c6c6572206973206e6f7420746865206f776e6572\n    /* \"#utility.yul\":1399:1417   */\n  0x44\n  dup3\n  add\n    /* \"#utility.yul\":1392:1454   */\n  mstore\n    /* \"#utility.yul\":1471:1489   */\n  0x64\n  add\n    /* \"MSWAP/Games/Scratchers.sol\":5212:5280  require(owner() == _msgSender(), \"Ownable: caller is not the owner\") */\n  tag_31\n    /* \"#utility.yul\":1139:1495   */\n  jump\n    /* \"MSWAP/Games/Scratchers.sol\":5212:5280  require(owner() == _msgSender(), \"Ownable: caller is not the owner\") */\ntag_38:\n    /* \"MSWAP/Games/Scratchers.sol\":5156:5288  function _checkOwner() internal view virtual {\r... */\n  jump\t// out\n    /* \"MSWAP/Games/Scratchers.sol\":7355:22582  contract Scratchers is Ownable {\r... */\ntag_2:\n  dup3\n  dup1\n  sload\n  dup3\n  dup3\n  sstore\n  swap1\n  0x00\n  mstore\n  keccak256(0x00, 0x20)\n  swap1\n  dup2\n  add\n  swap3\n  dup3\n  iszero\n  tag_44\n  jumpi\n  swap2\n  0x20\n  mul\n  dup3\n  add\ntag_43:\n  dup3\n  dup2\n  gt\n  iszero\n  tag_44\n  jumpi\n  dup3\n  mload\n  dup3\n  swap1\n  0xff\n  and\n  swap1\n  sstore\n  swap2\n  0x20\n  add\n  swap2\n  swap1\n  0x01\n  add\n  swap1\n  jump(tag_43)\ntag_44:\n  pop\n  tag_45\n  swap3\n  swap2\n  pop\n  tag_46\n  jump\t// in\ntag_45:\n  pop\n  swap1\n  jump\t// out\ntag_4:\n  dup3\n  dup1\n  sload\n  dup3\n  dup3\n  sstore\n  swap1\n  0x00\n  mstore\n  keccak256(0x00, 0x20)\n  swap1\n  dup2\n  add\n  swap3\n  dup3\n  iszero\n  tag_44\n  jumpi\n  swap2\n  0x20\n  mul\n  dup3\n  add\ntag_48:\n  dup3\n  dup2\n  gt\n  iszero\n  tag_44\n  jumpi\n  dup3\n  mload\n  dup3\n  swap1\n  0xffff\n  and\n  swap1\n  sstore\n  swap2\n  0x20\n  add\n  swap2\n  swap1\n  0x01\n  add\n  swap1\n  jump(tag_48)\ntag_46:\ntag_51:\n  dup1\n  dup3\n  gt\n  iszero\n  tag_45\n  jumpi\n  0x00\n  dup2\n  sstore\n  0x01\n  add\n  jump(tag_51)\n    /* \"#utility.yul\":14:191   */\ntag_54:\n    /* \"#utility.yul\":93:106   */\n  dup1\n  mload\n  sub(shl(0xa0, 0x01), 0x01)\n    /* \"#utility.yul\":135:166   */\n  dup2\n  and\n    /* \"#utility.yul\":125:167   */\n  dup2\n  eq\n    /* \"#utility.yul\":115:185   */\n  tag_56\n  jumpi\n    /* \"#utility.yul\":181:182   */\n  0x00\n    /* \"#utility.yul\":178:179   */\n  dup1\n    /* \"#utility.yul\":171:183   */\n  revert\n    /* \"#utility.yul\":115:185   */\ntag_56:\n    /* \"#utility.yul\":14:191   */\n  swap2\n  swap1\n  pop\n  jump\t// out\n    /* \"#utility.yul\":196:404   */\ntag_21:\n    /* \"#utility.yul\":266:272   */\n  0x00\n    /* \"#utility.yul\":319:321   */\n  0x20\n    /* \"#utility.yul\":307:316   */\n  dup3\n    /* \"#utility.yul\":298:305   */\n  dup5\n    /* \"#utility.yul\":294:317   */\n  sub\n    /* \"#utility.yul\":290:322   */\n  slt\n    /* \"#utility.yul\":287:339   */\n  iszero\n  tag_58\n  jumpi\n    /* \"#utility.yul\":335:336   */\n  0x00\n    /* \"#utility.yul\":332:333   */\n  dup1\n    /* \"#utility.yul\":325:337   */\n  revert\n    /* \"#utility.yul\":287:339   */\ntag_58:\n    /* \"#utility.yul\":358:398   */\n  tag_59\n    /* \"#utility.yul\":388:397   */\n  dup3\n    /* \"#utility.yul\":358:398   */\n  tag_54\n  jump\t// in\ntag_59:\n    /* \"#utility.yul\":348:398   */\n  swap4\n    /* \"#utility.yul\":196:404   */\n  swap3\n  pop\n  pop\n  pop\n  jump\t// out\n    /* \"#utility.yul\":409:787   */\ntag_7:\n    /* \"#utility.yul\":497:503   */\n  0x00\n    /* \"#utility.yul\":505:511   */\n  dup1\n    /* \"#utility.yul\":513:519   */\n  0x00\n    /* \"#utility.yul\":566:568   */\n  0x60\n    /* \"#utility.yul\":554:563   */\n  dup5\n    /* \"#utility.yul\":545:552   */\n  dup7\n    /* \"#utility.yul\":541:564   */\n  sub\n    /* \"#utility.yul\":537:569   */\n  slt\n    /* \"#utility.yul\":534:586   */\n  iszero\n  tag_61\n  jumpi\n    /* \"#utility.yul\":582:583   */\n  0x00\n    /* \"#utility.yul\":579:580   */\n  dup1\n    /* \"#utility.yul\":572:584   */\n  revert\n    /* \"#utility.yul\":534:586   */\ntag_61:\n    /* \"#utility.yul\":605:645   */\n  tag_62\n    /* \"#utility.yul\":635:644   */\n  dup5\n    /* \"#utility.yul\":605:645   */\n  tag_54\n  jump\t// in\ntag_62:\n    /* \"#utility.yul\":595:645   */\n  swap3\n  pop\n    /* \"#utility.yul\":664:713   */\n  tag_63\n    /* \"#utility.yul\":709:711   */\n  0x20\n    /* \"#utility.yul\":698:707   */\n  dup6\n    /* \"#utility.yul\":694:712   */\n  add\n    /* \"#utility.yul\":664:713   */\n  tag_54\n  jump\t// in\ntag_63:\n    /* \"#utility.yul\":654:713   */\n  swap2\n  pop\n    /* \"#utility.yul\":732:781   */\n  tag_64\n    /* \"#utility.yul\":777:779   */\n  0x40\n    /* \"#utility.yul\":766:775   */\n  dup6\n    /* \"#utility.yul\":762:780   */\n  add\n    /* \"#utility.yul\":732:781   */\n  tag_54\n  jump\t// in\ntag_64:\n    /* \"#utility.yul\":722:781   */\n  swap1\n  pop\n    /* \"#utility.yul\":409:787   */\n  swap3\n  pop\n  swap3\n  pop\n  swap3\n  jump\t// out\n    /* \"#utility.yul\":1139:1495   */\ntag_53:\n    /* \"MSWAP/Games/Scratchers.sol\":7355:22582  contract Scratchers is Ownable {\r... */\n  dataSize(sub_0)\n  dup1\n  dataOffset(sub_0)\n  0x00\n  codecopy\n  0x00\n  return\nstop\n\nsub_0: assembly {\n        /* \"MSWAP/Games/Scratchers.sol\":7355:22582  contract Scratchers is Ownable {\r... */\n      mstore(0x40, 0x80)\n      jumpi(tag_1, lt(calldatasize, 0x04))\n      shr(0xe0, calldataload(0x00))\n      dup1\n      0x715018a6\n      gt\n      tag_53\n      jumpi\n      dup1\n      0xb3a42e03\n      gt\n      tag_54\n      jumpi\n      dup1\n      0xdbf14fbe\n      gt\n      tag_55\n      jumpi\n      dup1\n      0xf2fde38b\n      gt\n      tag_56\n      jumpi\n      dup1\n      0xf2fde38b\n      eq\n      tag_49\n      jumpi\n      dup1\n      0xf56e9c66\n      eq\n      tag_50\n      jumpi\n      dup1\n      0xfc96b65e\n      eq\n      tag_51\n      jumpi\n      dup1\n      0xfde3549d\n      eq\n      tag_52\n      jumpi\n      0x00\n      dup1\n      revert\n    tag_56:\n      dup1\n      0xdbf14fbe\n      eq\n      tag_46\n      jumpi\n      dup1\n      0xe1b8cf82\n      eq\n      tag_47\n      jumpi\n      dup1\n      0xe45feaa4\n      eq\n      tag_48\n      jumpi\n      0x00\n      dup1\n      revert\n    tag_55:\n      dup1\n      0xb3a42e03\n      eq\n      tag_40\n      jumpi\n      dup1\n      0xc54c7da6\n      eq\n      tag_41\n      jumpi\n      dup1\n      0xc562a684\n      eq\n      tag_17\n      jumpi\n      dup1\n      0xd57f1d9b\n      eq\n      tag_43\n      jumpi\n      dup1\n      0xd8f56bb6\n      eq\n      tag_44\n      jumpi\n      dup1\n      0xdb6e2644\n      eq\n      tag_45\n      jumpi\n      0x00\n      dup1\n      revert\n    tag_54:\n      dup1\n      0x9a22e550\n      gt\n      tag_57\n      jumpi\n      dup1\n      0x9a22e550\n      eq\n      tag_34\n      jumpi\n      dup1\n      0x9a2967f7\n      eq\n      tag_35\n      jumpi\n      dup1\n      0xa9cf2ed3\n      eq\n      tag_36\n      jumpi\n      dup1\n      0xae0ae8af\n      eq\n      tag_37\n      jumpi\n      dup1\n      0xb187bd26\n      eq\n      tag_38\n      jumpi\n      dup1\n      0xb2a82044\n      eq\n      tag_39\n      jumpi\n      0x00\n      dup1\n      revert\n    tag_57:\n      dup1\n      0x715018a6\n      eq\n      tag_28\n      jumpi\n      dup1\n      0x74ca5477\n      eq\n      tag_29\n      jumpi\n      dup1\n      0x80d97810\n      eq\n      tag_30\n      jumpi\n      dup1\n      0x8da5cb5b\n      eq\n      tag_31\n      jumpi\n      dup1\n      0x980c1dbb\n      eq\n      tag_32\n      jumpi\n      dup1\n      0x9980f725\n      eq\n      tag_33\n      jumpi\n      0x00\n      dup1\n      revert\n    tag_53:\n      dup1\n      0x35593286\n      gt\n      tag_58\n      jumpi\n      dup1\n      0x4a9fdb0f\n      gt\n      tag_59\n      jumpi\n      dup1\n      0x53f836db\n      gt\n      tag_60\n      jumpi\n      dup1\n      0x53f836db\n      eq\n      tag_24\n      jumpi\n      dup1\n      0x62102a5f\n      eq\n      tag_25\n      jumpi\n      dup1\n      0x6827e764\n      eq\n      tag_26\n      jumpi\n      dup1\n      0x709ec8b4\n      eq\n      tag_27\n      jumpi\n      0x00\n      dup1\n      revert\n    tag_60:\n      dup1\n      0x4a9fdb0f\n      eq\n      tag_21\n      jumpi\n      dup1\n      0x4c3abcfc\n      eq\n      tag_22\n      jumpi\n      dup1\n      0x4da92800\n      eq\n      tag_23\n      jumpi\n      0x00\n      dup1\n      revert\n    tag_59:\n      dup1\n      0x35593286\n      eq\n      tag_15\n      jumpi\n      dup1\n      0x370158ea\n      eq\n      tag_16\n      jumpi\n      dup1\n      0x3b84edbd\n      eq\n      tag_17\n      jumpi\n      dup1\n      0x4595eb6e\n      eq\n      tag_18\n      jumpi\n      dup1\n      0x46156ea0\n      eq\n      tag_19\n      jumpi\n      dup1\n      0x4a78cdba\n      eq\n      tag_20\n      jumpi\n      0x00\n      dup1\n      revert\n    tag_58:\n      dup1\n      0x127f4b2e\n      gt\n      tag_61\n      jumpi\n      dup1\n      0x127f4b2e\n      eq\n      tag_9\n      jumpi\n      dup1\n      0x1c75b6b2\n      eq\n      tag_10\n      jumpi\n      dup1\n      0x1cc05606\n      eq\n      tag_11\n      jumpi\n      dup1\n      0x1eaa6a00\n      eq\n      tag_12\n      jumpi\n      dup1\n      0x2c1ef96a\n      eq\n      tag_13\n      jumpi\n      dup1\n      0x340ac20f\n      eq\n      tag_14\n      jumpi\n      0x00\n      dup1\n      revert\n    tag_61:\n      dup1\n      0x026108da\n      eq\n      tag_3\n      jumpi\n      dup1\n      0x0535020d\n      eq\n      tag_4\n      jumpi\n      dup1\n      0x05e30f51\n      eq\n      tag_5\n      jumpi\n      dup1\n      0x0836ec1d\n      eq\n      tag_6\n      jumpi\n      dup1\n      0x0a2282ae\n      eq\n      tag_7\n      jumpi\n      dup1\n      0x0b336a71\n      eq\n      tag_8\n      jumpi\n      0x00\n      dup1\n      revert\n    tag_1:\n      jumpi(tag_2, calldatasize)\n      stop\n    tag_2:\n      0x00\n      dup1\n      revert\n        /* \"MSWAP/Games/Scratchers.sol\":11233:11510  function reducejackPot(uint256 _amount) external onlyOwner {\r... */\n    tag_3:\n      callvalue\n      dup1\n      iszero\n      tag_64\n      jumpi\n      0x00\n      dup1\n      revert\n    tag_64:\n      pop\n      tag_65\n      tag_66\n      calldatasize\n      0x04\n      tag_67\n      jump\t// in\n    tag_66:\n      tag_68\n      jump\t// in\n    tag_65:\n      stop\n        /* \"MSWAP/Games/Scratchers.sol\":12182:12208  address[] public payTokens */\n    tag_4:\n      callvalue\n      dup1\n      iszero\n      tag_69\n      jumpi\n      0x00\n      dup1\n      revert\n    tag_69:\n      pop\n      tag_70\n      tag_71\n      calldatasize\n      0x04\n      tag_67\n      jump\t// in\n    tag_71:\n      tag_72\n      jump\t// in\n    tag_70:\n      mload(0x40)\n      sub(shl(0xa0, 0x01), 0x01)\n        /* \"#utility.yul\":4274:4306   */\n      swap1\n      swap2\n      and\n        /* \"#utility.yul\":4256:4307   */\n      dup2\n      mstore\n        /* \"#utility.yul\":4244:4246   */\n      0x20\n        /* \"#utility.yul\":4229:4247   */\n      add\n        /* \"MSWAP/Games/Scratchers.sol\":12182:12208  address[] public payTokens */\n    tag_73:\n      mload(0x40)\n      dup1\n      swap2\n      sub\n      swap1\n      return\n        /* \"MSWAP/Games/Scratchers.sol\":8116:8184  uint256[] public multiplier = [0, 1, 2, 3, 4, 5, 6, 10, 20, 50, 100] */\n    tag_5:\n      callvalue\n      dup1\n      iszero\n      tag_75\n      jumpi\n      0x00\n      dup1\n      revert\n    tag_75:\n      pop\n      tag_76\n      tag_77\n      calldatasize\n      0x04\n      tag_67\n      jump\t// in\n    tag_77:\n      tag_78\n      jump\t// in\n    tag_76:\n      mload(0x40)\n        /* \"#utility.yul\":14236:14261   */\n      swap1\n      dup2\n      mstore\n        /* \"#utility.yul\":14224:14226   */\n      0x20\n        /* \"#utility.yul\":14209:14227   */\n      add\n        /* \"MSWAP/Games/Scratchers.sol\":8116:8184  uint256[] public multiplier = [0, 1, 2, 3, 4, 5, 6, 10, 20, 50, 100] */\n      tag_73\n        /* \"#utility.yul\":14090:14267   */\n      jump\n        /* \"MSWAP/Games/Scratchers.sol\":13572:13702  function setBets(uint256 _newMin, uint256 _newMax) public onlyOwner {\r... */\n    tag_6:\n      callvalue\n      dup1\n      iszero\n      tag_81\n      jumpi\n      0x00\n      dup1\n      revert\n    tag_81:\n      pop\n      tag_65\n      tag_83\n      calldatasize\n      0x04\n      tag_84\n      jump\t// in\n    tag_83:\n      tag_85\n      jump\t// in\n        /* \"MSWAP/Games/Scratchers.sol\":21398:22579  function JackPot() public payable pausable returns (uint256 ticket, address player, uint256 addToJackPot, bool isWinner, uint256 _amount) {\r... */\n    tag_7:\n      tag_86\n      tag_87\n      jump\t// in\n    tag_86:\n      0x40\n      dup1\n      mload\n        /* \"#utility.yul\":15725:15750   */\n      swap6\n      dup7\n      mstore\n      sub(shl(0xa0, 0x01), 0x01)\n        /* \"#utility.yul\":15786:15818   */\n      swap1\n      swap5\n      and\n        /* \"#utility.yul\":15781:15783   */\n      0x20\n        /* \"#utility.yul\":15766:15784   */\n      dup7\n      add\n        /* \"#utility.yul\":15759:15819   */\n      mstore\n        /* \"#utility.yul\":15835:15853   */\n      swap3\n      dup5\n      add\n        /* \"#utility.yul\":15828:15862   */\n      swap2\n      swap1\n      swap2\n      mstore\n        /* \"#utility.yul\":15905:15919   */\n      iszero\n        /* \"#utility.yul\":15898:15920   */\n      iszero\n        /* \"#utility.yul\":15893:15895   */\n      0x60\n        /* \"#utility.yul\":15878:15896   */\n      dup4\n      add\n        /* \"#utility.yul\":15871:15921   */\n      mstore\n        /* \"#utility.yul\":15952:15955   */\n      0x80\n        /* \"#utility.yul\":15937:15956   */\n      dup3\n      add\n        /* \"#utility.yul\":15930:15965   */\n      mstore\n        /* \"#utility.yul\":15712:15715   */\n      0xa0\n        /* \"#utility.yul\":15697:15716   */\n      add\n        /* \"MSWAP/Games/Scratchers.sol\":21398:22579  function JackPot() public payable pausable returns (uint256 ticket, address player, uint256 addToJackPot, bool isWinner, uint256 _amount) {\r... */\n      tag_73\n        /* \"#utility.yul\":15472:15971   */\n      jump\n        /* \"MSWAP/Games/Scratchers.sol\":14822:15460  function pickTicket(uint256 _bet) public returns (uint256 ticketPicked, bool isToken) {    \r... */\n    tag_8:\n      callvalue\n      dup1\n      iszero\n      tag_90\n      jumpi\n      0x00\n      dup1\n      revert\n    tag_90:\n      pop\n      tag_91\n      tag_92\n      calldatasize\n      0x04\n      tag_67\n      jump\t// in\n    tag_92:\n      tag_93\n      jump\t// in\n    tag_91:\n      0x40\n      dup1\n      mload\n        /* \"#utility.yul\":16144:16169   */\n      swap3\n      dup4\n      mstore\n        /* \"#utility.yul\":16212:16226   */\n      swap1\n      iszero\n        /* \"#utility.yul\":16205:16227   */\n      iszero\n        /* \"#utility.yul\":16200:16202   */\n      0x20\n        /* \"#utility.yul\":16185:16203   */\n      dup4\n      add\n        /* \"#utility.yul\":16178:16228   */\n      mstore\n        /* \"#utility.yul\":16117:16135   */\n      add\n        /* \"MSWAP/Games/Scratchers.sol\":14822:15460  function pickTicket(uint256 _bet) public returns (uint256 ticketPicked, bool isToken) {    \r... */\n      tag_73\n        /* \"#utility.yul\":15976:16234   */\n      jump\n        /* \"MSWAP/Games/Scratchers.sol\":13961:14178  function withdrawBNB(uint256 _amount) external onlyOwner {\r... */\n    tag_9:\n      callvalue\n      dup1\n      iszero\n      tag_96\n      jumpi\n      0x00\n      dup1\n      revert\n    tag_96:\n      pop\n      tag_65\n      tag_98\n      calldatasize\n      0x04\n      tag_67\n      jump\t// in\n    tag_98:\n      tag_99\n      jump\t// in\n        /* \"MSWAP/Games/Scratchers.sol\":10829:10989  function setDevFee(uint256 newDevFee) external onlyOwner {\r... */\n    tag_10:\n      callvalue\n      dup1\n      iszero\n      tag_100\n      jumpi\n      0x00\n      dup1\n      revert\n    tag_100:\n      pop\n      tag_65\n      tag_102\n      calldatasize\n      0x04\n      tag_67\n      jump\t// in\n    tag_102:\n      tag_103\n      jump\t// in\n        /* \"MSWAP/Games/Scratchers.sol\":15957:16002  mapping(address => uint256[]) public freePlay */\n    tag_11:\n      callvalue\n      dup1\n      iszero\n      tag_104\n      jumpi\n      0x00\n      dup1\n      revert\n    tag_104:\n      pop\n      tag_76\n      tag_106\n      calldatasize\n      0x04\n      tag_107\n      jump\t// in\n    tag_106:\n      tag_108\n      jump\t// in\n        /* \"MSWAP/Games/Scratchers.sol\":10999:11124  function setjackpotCost(uint256 newJackPotCost) external onlyOwner {\r... */\n    tag_12:\n      callvalue\n      dup1\n      iszero\n      tag_110\n      jumpi\n      0x00\n      dup1\n      revert\n    tag_110:\n      pop\n      tag_65\n      tag_112\n      calldatasize\n      0x04\n      tag_67\n      jump\t// in\n    tag_112:\n      tag_113\n      jump\t// in\n        /* \"MSWAP/Games/Scratchers.sol\":14184:14340  function withdrawlToken(address _tokenAddress, uint256 _amount) external onlyOwner {\r... */\n    tag_13:\n      callvalue\n      dup1\n      iszero\n      tag_114\n      jumpi\n      0x00\n      dup1\n      revert\n    tag_114:\n      pop\n      tag_65\n      tag_116\n      calldatasize\n      0x04\n      tag_107\n      jump\t// in\n    tag_116:\n      tag_117\n      jump\t// in\n        /* \"MSWAP/Games/Scratchers.sol\":12042:12151  function changeRouter(address _router) external onlyOwner {\r... */\n    tag_14:\n      callvalue\n      dup1\n      iszero\n      tag_118\n      jumpi\n      0x00\n      dup1\n      revert\n    tag_118:\n      pop\n      tag_65\n      tag_120\n      calldatasize\n      0x04\n      tag_121\n      jump\t// in\n    tag_120:\n      tag_122\n      jump\t// in\n        /* \"MSWAP/Games/Scratchers.sol\":8570:8595  address public currentNFT */\n    tag_15:\n      callvalue\n      dup1\n      iszero\n      tag_123\n      jumpi\n      0x00\n      dup1\n      revert\n    tag_123:\n      pop\n      sload(0x11)\n      tag_70\n      swap1\n      sub(shl(0xa0, 0x01), 0x01)\n      and\n      dup2\n      jump\n        /* \"MSWAP/Games/Scratchers.sol\":9322:9993  function info() external view returns (uint256 _minBet, uint256 _maxBet, uint256 _avlFunds,uint256 _sm, uint256 _jackPotCostBNB, uint256[] memory _chances, uint256 _totalChance, uint256[] memory _multipliers, uint256 _jackPot, uint256 _jackPotChance) {\r... */\n    tag_16:\n      callvalue\n      dup1\n      iszero\n      tag_127\n      jumpi\n      0x00\n      dup1\n      revert\n    tag_127:\n      pop\n      tag_128\n      tag_129\n      jump\t// in\n    tag_128:\n      mload(0x40)\n      tag_73\n      swap11\n      swap10\n      swap9\n      swap8\n      swap7\n      swap6\n      swap5\n      swap4\n      swap3\n      swap2\n      swap1\n      tag_131\n      jump\t// in\n        /* \"MSWAP/Games/Scratchers.sol\":13471:13564  function setRNG(address newRNG) external onlyOwner {\r... */\n    tag_17:\n      callvalue\n      dup1\n      iszero\n      tag_132\n      jumpi\n      0x00\n      dup1\n      revert\n    tag_132:\n      pop\n      tag_65\n      tag_134\n      calldatasize\n      0x04\n      tag_121\n      jump\t// in\n    tag_134:\n      tag_135\n      jump\t// in\n        /* \"MSWAP/Games/Scratchers.sol\":15670:15719  mapping(uint256 => History) public scratchHistory */\n    tag_18:\n      callvalue\n      dup1\n      iszero\n      tag_136\n      jumpi\n      0x00\n      dup1\n      revert\n    tag_136:\n      pop\n      tag_137\n      tag_138\n      calldatasize\n      0x04\n      tag_67\n      jump\t// in\n    tag_138:\n      mstore(0x20, 0x16)\n      0x00\n      swap1\n      dup2\n      mstore\n      0x40\n      swap1\n      keccak256\n      dup1\n      sload\n      0x01\n      dup3\n      add\n      sload\n      0x02\n      dup4\n      add\n      sload\n      0x03\n      dup5\n      add\n      sload\n      0x04\n      dup6\n      add\n      sload\n      0x05\n      dup7\n      add\n      sload\n      0x06\n      swap1\n      swap7\n      add\n      sload\n      swap5\n      swap6\n      swap4\n      swap5\n      sub(shl(0xa0, 0x01), 0x01)\n      swap4\n      dup5\n      and\n      swap5\n      swap3\n      swap4\n      swap1\n      swap2\n      and\n      swap2\n      swap1\n      dup8\n      jump\n    tag_137:\n      0x40\n      dup1\n      mload\n        /* \"#utility.yul\":16807:16832   */\n      swap8\n      dup9\n      mstore\n        /* \"#utility.yul\":16863:16865   */\n      0x20\n        /* \"#utility.yul\":16848:16866   */\n      dup9\n      add\n        /* \"#utility.yul\":16841:16875   */\n      swap7\n      swap1\n      swap7\n      mstore\n      sub(shl(0xa0, 0x01), 0x01)\n        /* \"#utility.yul\":16949:16964   */\n      swap5\n      dup6\n      and\n        /* \"#utility.yul\":16929:16947   */\n      swap6\n      dup8\n      add\n        /* \"#utility.yul\":16922:16965   */\n      swap6\n      swap1\n      swap6\n      mstore\n        /* \"#utility.yul\":16996:16998   */\n      0x60\n        /* \"#utility.yul\":16981:16999   */\n      dup7\n      add\n        /* \"#utility.yul\":16974:17008   */\n      swap3\n      swap1\n      swap3\n      mstore\n        /* \"#utility.yul\":17045:17060   */\n      swap1\n      swap2\n      and\n        /* \"#utility.yul\":17039:17042   */\n      0x80\n        /* \"#utility.yul\":17024:17043   */\n      dup5\n      add\n        /* \"#utility.yul\":17017:17061   */\n      mstore\n        /* \"#utility.yul\":16902:16905   */\n      0xa0\n        /* \"#utility.yul\":17077:17096   */\n      dup4\n      add\n        /* \"#utility.yul\":17070:17105   */\n      mstore\n        /* \"#utility.yul\":17136:17139   */\n      0xc0\n        /* \"#utility.yul\":17121:17140   */\n      dup3\n      add\n        /* \"#utility.yul\":17114:17149   */\n      mstore\n        /* \"#utility.yul\":16794:16797   */\n      0xe0\n        /* \"#utility.yul\":16779:16798   */\n      add\n        /* \"MSWAP/Games/Scratchers.sol\":15670:15719  mapping(uint256 => History) public scratchHistory */\n      tag_73\n        /* \"#utility.yul\":16492:17155   */\n      jump\n        /* \"MSWAP/Games/Scratchers.sol\":8231:8298  uint256[] public odds = [700, 100, 30, 100, 15, 30, 10, 7, 4, 3, 1] */\n    tag_19:\n      callvalue\n      dup1\n      iszero\n      tag_142\n      jumpi\n      0x00\n      dup1\n      revert\n    tag_142:\n      pop\n      tag_76\n      tag_144\n      calldatasize\n      0x04\n      tag_67\n      jump\t// in\n    tag_144:\n      tag_145\n      jump\t// in\n        /* \"MSWAP/Games/Scratchers.sol\":8440:8466  uint256 public jackPot = 0 */\n    tag_20:\n      callvalue\n      dup1\n      iszero\n      tag_147\n      jumpi\n      0x00\n      dup1\n      revert\n    tag_147:\n      pop\n      tag_76\n      sload(0x0e)\n      dup2\n      jump\n        /* \"MSWAP/Games/Scratchers.sol\":10639:10819  function setJackPotFee(uint256 newjackPotFee) external onlyOwner {\r... */\n    tag_21:\n      callvalue\n      dup1\n      iszero\n      tag_151\n      jumpi\n      0x00\n      dup1\n      revert\n    tag_151:\n      pop\n      tag_65\n      tag_153\n      calldatasize\n      0x04\n      tag_67\n      jump\t// in\n    tag_153:\n      tag_154\n      jump\t// in\n        /* \"MSWAP/Games/Scratchers.sol\":16008:16052  mapping(address => uint256) public howManyFP */\n    tag_22:\n      callvalue\n      dup1\n      iszero\n      tag_155\n      jumpi\n      0x00\n      dup1\n      revert\n    tag_155:\n      pop\n      tag_76\n      tag_157\n      calldatasize\n      0x04\n      tag_121\n      jump\t// in\n    tag_157:\n      mstore(0x20, 0x19)\n      0x00\n      swap1\n      dup2\n      mstore\n      0x40\n      swap1\n      keccak256\n      sload\n      dup2\n      jump\n        /* \"MSWAP/Games/Scratchers.sol\":13345:13439  function pauseGames(bool _isPaused) external onlyOwner {\r... */\n    tag_23:\n      callvalue\n      dup1\n      iszero\n      tag_160\n      jumpi\n      0x00\n      dup1\n      revert\n    tag_160:\n      pop\n      tag_65\n      tag_162\n      calldatasize\n      0x04\n      tag_163\n      jump\t// in\n    tag_162:\n      tag_164\n      jump\t// in\n        /* \"MSWAP/Games/Scratchers.sol\":12907:13088  function rng(uint256 mod) public returns(uint256 value) {\r... */\n    tag_24:\n      callvalue\n      dup1\n      iszero\n      tag_165\n      jumpi\n      0x00\n      dup1\n      revert\n    tag_165:\n      pop\n      tag_76\n      tag_167\n      calldatasize\n      0x04\n      tag_67\n      jump\t// in\n    tag_167:\n      tag_168\n      jump\t// in\n        /* \"MSWAP/Games/Scratchers.sol\":11522:12030  function setupPerThousand(uint256[] memory _multiplier, uint256[] memory _odds ) external onlyOwner {\r... */\n    tag_25:\n      callvalue\n      dup1\n      iszero\n      tag_170\n      jumpi\n      0x00\n      dup1\n      revert\n    tag_170:\n      pop\n      tag_65\n      tag_172\n      calldatasize\n      0x04\n      tag_173\n      jump\t// in\n    tag_172:\n      tag_174\n      jump\t// in\n        /* \"MSWAP/Games/Scratchers.sol\":7814:7841  uint256 public devFee = 500 */\n    tag_26:\n      callvalue\n      dup1\n      iszero\n      tag_175\n      jumpi\n      0x00\n      dup1\n      revert\n    tag_175:\n      pop\n      tag_76\n      sload(0x07)\n      dup2\n      jump\n        /* \"MSWAP/Games/Scratchers.sol\":8608:8635  address [] public blackList */\n    tag_27:\n      callvalue\n      dup1\n      iszero\n      tag_179\n      jumpi\n      0x00\n      dup1\n      revert\n    tag_179:\n      pop\n      tag_70\n      tag_181\n      calldatasize\n      0x04\n      tag_67\n      jump\t// in\n    tag_181:\n      tag_182\n      jump\t// in\n        /* \"MSWAP/Games/Scratchers.sol\":5639:5742  function renounceOwnership() public virtual onlyOwner {\r... */\n    tag_28:\n      callvalue\n      dup1\n      iszero\n      tag_184\n      jumpi\n      0x00\n      dup1\n      revert\n    tag_184:\n      pop\n      tag_65\n      tag_186\n      jump\t// in\n        /* \"MSWAP/Games/Scratchers.sol\":13824:13957  function withdrawALL_BNB() external onlyOwner {\r... */\n    tag_29:\n      callvalue\n      dup1\n      iszero\n      tag_187\n      jumpi\n      0x00\n      dup1\n      revert\n    tag_187:\n      pop\n      tag_65\n      tag_189\n      jump\t// in\n        /* \"MSWAP/Games/Scratchers.sol\":7677:7728  uint256 public jackPotCostBNB = 5000000000000000000 */\n    tag_30:\n      callvalue\n      dup1\n      iszero\n      tag_190\n      jumpi\n      0x00\n      dup1\n      revert\n    tag_190:\n      pop\n      tag_76\n      sload(0x06)\n      dup2\n      jump\n        /* \"MSWAP/Games/Scratchers.sol\":4991:5078  function owner() public view virtual returns (address) {\r... */\n    tag_31:\n      callvalue\n      dup1\n      iszero\n      tag_194\n      jumpi\n      0x00\n      dup1\n      revert\n    tag_194:\n      pop\n        /* \"MSWAP/Games/Scratchers.sol\":5037:5044  address */\n      0x00\n        /* \"MSWAP/Games/Scratchers.sol\":5064:5070  _owner */\n      sload\n      sub(shl(0xa0, 0x01), 0x01)\n      and\n        /* \"MSWAP/Games/Scratchers.sol\":4991:5078  function owner() public view virtual returns (address) {\r... */\n      jump(tag_70)\n        /* \"MSWAP/Games/Scratchers.sol\":16873:17518  function viewJackPotHistory(uint256 timeToCheckTo) external view returns (HistoryJ[] memory jHistory) {\r... */\n    tag_32:\n      callvalue\n      dup1\n      iszero\n      tag_198\n      jumpi\n      0x00\n      dup1\n      revert\n    tag_198:\n      pop\n      tag_199\n      tag_200\n      calldatasize\n      0x04\n      tag_67\n      jump\t// in\n    tag_200:\n      tag_201\n      jump\t// in\n    tag_199:\n      mload(0x40)\n      tag_73\n      swap2\n      swap1\n      tag_203\n      jump\t// in\n        /* \"MSWAP/Games/Scratchers.sol\":7997:8031  uint256 public jackPotChance = 200 */\n    tag_33:\n      callvalue\n      dup1\n      iszero\n      tag_204\n      jumpi\n      0x00\n      dup1\n      revert\n    tag_204:\n      pop\n      tag_76\n      sload(0x09)\n      dup2\n      jump\n        /* \"MSWAP/Games/Scratchers.sol\":15901:15951  mapping(uint256 => HistoryJ) public jackPotHistory */\n    tag_34:\n      callvalue\n      dup1\n      iszero\n      tag_208\n      jumpi\n      0x00\n      dup1\n      revert\n    tag_208:\n      pop\n      tag_209\n      tag_210\n      calldatasize\n      0x04\n      tag_67\n      jump\t// in\n    tag_210:\n      mstore(0x20, 0x17)\n      0x00\n      swap1\n      dup2\n      mstore\n      0x40\n      swap1\n      keccak256\n      dup1\n      sload\n      0x01\n      dup3\n      add\n      sload\n      0x02\n      dup4\n      add\n      sload\n      0x03\n      dup5\n      add\n      sload\n      0x04\n      dup6\n      add\n      sload\n      0x05\n      swap1\n      swap6\n      add\n      sload\n      swap4\n      swap5\n      swap3\n      swap4\n      sub(shl(0xa0, 0x01), 0x01)\n      swap1\n      swap3\n      and\n      swap3\n      swap1\n      swap2\n      0xff\n      swap1\n      swap2\n      and\n      swap1\n      dup7\n      jump\n    tag_209:\n      0x40\n      dup1\n      mload\n        /* \"#utility.yul\":17441:17466   */\n      swap7\n      dup8\n      mstore\n        /* \"#utility.yul\":17497:17499   */\n      0x20\n        /* \"#utility.yul\":17482:17500   */\n      dup8\n      add\n        /* \"#utility.yul\":17475:17509   */\n      swap6\n      swap1\n      swap6\n      mstore\n      sub(shl(0xa0, 0x01), 0x01)\n        /* \"#utility.yul\":17545:17577   */\n      swap1\n      swap4\n      and\n        /* \"#utility.yul\":17525:17543   */\n      swap4\n      dup6\n      add\n        /* \"#utility.yul\":17518:17578   */\n      swap4\n      swap1\n      swap4\n      mstore\n        /* \"#utility.yul\":17609:17611   */\n      0x60\n        /* \"#utility.yul\":17594:17612   */\n      dup5\n      add\n        /* \"#utility.yul\":17587:17621   */\n      mstore\n        /* \"#utility.yul\":17665:17679   */\n      swap1\n      iszero\n        /* \"#utility.yul\":17658:17680   */\n      iszero\n        /* \"#utility.yul\":17652:17655   */\n      0x80\n        /* \"#utility.yul\":17637:17656   */\n      dup4\n      add\n        /* \"#utility.yul\":17630:17681   */\n      mstore\n        /* \"#utility.yul\":17565:17568   */\n      0xa0\n        /* \"#utility.yul\":17697:17716   */\n      dup3\n      add\n        /* \"#utility.yul\":17690:17725   */\n      mstore\n        /* \"#utility.yul\":17428:17431   */\n      0xc0\n        /* \"#utility.yul\":17413:17432   */\n      add\n        /* \"MSWAP/Games/Scratchers.sol\":15901:15951  mapping(uint256 => HistoryJ) public jackPotHistory */\n      tag_73\n        /* \"#utility.yul\":17160:17731   */\n      jump\n        /* \"MSWAP/Games/Scratchers.sol\":10499:10629  function setJackPotChance(uint256 newJackPotChance) external onlyOwner {\r... */\n    tag_35:\n      callvalue\n      dup1\n      iszero\n      tag_214\n      jumpi\n      0x00\n      dup1\n      revert\n    tag_214:\n      pop\n      tag_65\n      tag_216\n      calldatasize\n      0x04\n      tag_67\n      jump\t// in\n    tag_216:\n      tag_217\n      jump\t// in\n        /* \"MSWAP/Games/Scratchers.sol\":12260:12467  function addPayToken(address _payToken) public onlyOwner {\r... */\n    tag_36:\n      callvalue\n      dup1\n      iszero\n      tag_218\n      jumpi\n      0x00\n      dup1\n      revert\n    tag_218:\n      pop\n      tag_65\n      tag_220\n      calldatasize\n      0x04\n      tag_121\n      jump\t// in\n    tag_220:\n      tag_221\n      jump\t// in\n        /* \"MSWAP/Games/Scratchers.sol\":16060:16203  function addFreePlay(address _user, uint256 bet) external onlyOwner {\r... */\n    tag_37:\n      callvalue\n      dup1\n      iszero\n      tag_222\n      jumpi\n      0x00\n      dup1\n      revert\n    tag_222:\n      pop\n      tag_65\n      tag_224\n      calldatasize\n      0x04\n      tag_107\n      jump\t// in\n    tag_224:\n      tag_225\n      jump\t// in\n        /* \"MSWAP/Games/Scratchers.sol\":13209:13237  bool public isPaused = false */\n    tag_38:\n      callvalue\n      dup1\n      iszero\n      tag_226\n      jumpi\n      0x00\n      dup1\n      revert\n    tag_226:\n      pop\n      sload(0x15)\n      tag_227\n      swap1\n      0xff\n      and\n      dup2\n      jump\n    tag_227:\n      mload(0x40)\n        /* \"#utility.yul\":7454:7468   */\n      swap1\n      iszero\n        /* \"#utility.yul\":7447:7469   */\n      iszero\n        /* \"#utility.yul\":7429:7470   */\n      dup2\n      mstore\n        /* \"#utility.yul\":7417:7419   */\n      0x20\n        /* \"#utility.yul\":7402:7420   */\n      add\n        /* \"MSWAP/Games/Scratchers.sol\":13209:13237  bool public isPaused = false */\n      tag_73\n        /* \"#utility.yul\":7289:7476   */\n      jump\n        /* \"MSWAP/Games/Scratchers.sol\":8519:8557  uint256 public jackPotTicketNumber = 0 */\n    tag_39:\n      callvalue\n      dup1\n      iszero\n      tag_231\n      jumpi\n      0x00\n      dup1\n      revert\n    tag_231:\n      pop\n      tag_76\n      sload(0x10)\n      dup2\n      jump\n        /* \"MSWAP/Games/Scratchers.sol\":7928:7959  uint256 public jackPotFee = 500 */\n    tag_40:\n      callvalue\n      dup1\n      iszero\n      tag_235\n      jumpi\n      0x00\n      dup1\n      revert\n    tag_235:\n      pop\n      tag_76\n      sload(0x08)\n      dup2\n      jump\n        /* \"MSWAP/Games/Scratchers.sol\":8477:8508  uint256 public ticketNumber = 0 */\n    tag_41:\n      callvalue\n      dup1\n      iszero\n      tag_239\n      jumpi\n      0x00\n      dup1\n      revert\n    tag_239:\n      pop\n      tag_76\n      sload(0x0f)\n      dup2\n      jump\n        /* \"MSWAP/Games/Scratchers.sol\":8369:8404  uint256 public safetyMultiplier = 6 */\n    tag_43:\n      callvalue\n      dup1\n      iszero\n      tag_247\n      jumpi\n      0x00\n      dup1\n      revert\n    tag_247:\n      pop\n      tag_76\n      sload(0x0d)\n      dup2\n      jump\n        /* \"MSWAP/Games/Scratchers.sol\":8327:8358  uint256 public chancePer = 1000 */\n    tag_44:\n      callvalue\n      dup1\n      iszero\n      tag_251\n      jumpi\n      0x00\n      dup1\n      revert\n    tag_251:\n      pop\n      tag_76\n      sload(0x0c)\n      dup2\n      jump\n        /* \"MSWAP/Games/Scratchers.sol\":16212:16866  function viewScratcherHistory(uint256 timeToCheckTo) external view returns (History[] memory sHistory) {\r... */\n    tag_45:\n      callvalue\n      dup1\n      iszero\n      tag_255\n      jumpi\n      0x00\n      dup1\n      revert\n    tag_255:\n      pop\n      tag_256\n      tag_257\n      calldatasize\n      0x04\n      tag_67\n      jump\t// in\n    tag_257:\n      tag_258\n      jump\t// in\n    tag_256:\n      mload(0x40)\n      tag_73\n      swap2\n      swap1\n      tag_260\n      jump\t// in\n        /* \"MSWAP/Games/Scratchers.sol\":12476:12874  function removePayToken(address _payToken) external onlyOwner {\r... */\n    tag_46:\n      callvalue\n      dup1\n      iszero\n      tag_261\n      jumpi\n      0x00\n      dup1\n      revert\n    tag_261:\n      pop\n      tag_65\n      tag_263\n      calldatasize\n      0x04\n      tag_121\n      jump\t// in\n    tag_263:\n      tag_264\n      jump\t// in\n        /* \"MSWAP/Games/Scratchers.sol\":10005:10204  function setSafetyMultiplier(uint256 newSafety) external onlyOwner {\r... */\n    tag_47:\n      callvalue\n      dup1\n      iszero\n      tag_265\n      jumpi\n      0x00\n      dup1\n      revert\n    tag_265:\n      pop\n      tag_65\n      tag_267\n      calldatasize\n      0x04\n      tag_67\n      jump\t// in\n    tag_267:\n      tag_268\n      jump\t// in\n        /* \"MSWAP/Games/Scratchers.sol\":17554:21386  function buyScratcher(address _payToken) public payable pausable returns (uint256 ticket, address player, uint256 addToPot, address token, uint256 amount, uint256 _multiplier) {\r... */\n    tag_48:\n      tag_269\n      tag_270\n      calldatasize\n      0x04\n      tag_121\n      jump\t// in\n    tag_270:\n      tag_271\n      jump\t// in\n    tag_269:\n      mload(0x40)\n      tag_73\n      swap7\n      swap6\n      swap5\n      swap4\n      swap3\n      swap2\n      swap1\n      tag_618\n      jump\t// in\n        /* \"MSWAP/Games/Scratchers.sol\":5897:6098  function transferOwnership(address newOwner) public virtual onlyOwner {\r... */\n    tag_49:\n      callvalue\n      dup1\n      iszero\n      tag_274\n      jumpi\n      0x00\n      dup1\n      revert\n    tag_274:\n      pop\n      tag_65\n      tag_276\n      calldatasize\n      0x04\n      tag_121\n      jump\t// in\n    tag_276:\n      tag_277\n      jump\t// in\n        /* \"MSWAP/Games/Scratchers.sol\":10224:10489  function setNFT(address newNFTContract) external onlyOwner {\r... */\n    tag_50:\n      callvalue\n      dup1\n      iszero\n      tag_278\n      jumpi\n      0x00\n      dup1\n      revert\n    tag_278:\n      pop\n      tag_65\n      tag_280\n      calldatasize\n      0x04\n      tag_121\n      jump\t// in\n    tag_280:\n      tag_281\n      jump\t// in\n        /* \"MSWAP/Games/Scratchers.sol\":14348:14788  function getMaxWinSize(uint256 bet) public view returns(uint256 av_Winners, uint256 newChancePer) {\r... */\n    tag_51:\n      callvalue\n      dup1\n      iszero\n      tag_282\n      jumpi\n      0x00\n      dup1\n      revert\n    tag_282:\n      pop\n      tag_283\n      tag_284\n      calldatasize\n      0x04\n      tag_67\n      jump\t// in\n    tag_284:\n      tag_285\n      jump\t// in\n    tag_283:\n      0x40\n      dup1\n      mload\n        /* \"#utility.yul\":16413:16438   */\n      swap3\n      dup4\n      mstore\n        /* \"#utility.yul\":16469:16471   */\n      0x20\n        /* \"#utility.yul\":16454:16472   */\n      dup4\n      add\n        /* \"#utility.yul\":16447:16481   */\n      swap2\n      swap1\n      swap2\n      mstore\n        /* \"#utility.yul\":16386:16404   */\n      add\n        /* \"MSWAP/Games/Scratchers.sol\":14348:14788  function getMaxWinSize(uint256 bet) public view returns(uint256 av_Winners, uint256 newChancePer) {\r... */\n      tag_73\n        /* \"#utility.yul\":16239:16487   */\n      jump\n        /* \"MSWAP/Games/Scratchers.sol\":11136:11223  function injectJackPot() public payable {\r... */\n    tag_52:\n      tag_65\n      tag_289\n      jump\t// in\n        /* \"MSWAP/Games/Scratchers.sol\":11233:11510  function reducejackPot(uint256 _amount) external onlyOwner {\r... */\n    tag_68:\n        /* \"MSWAP/Games/Scratchers.sol\":4877:4890  _checkOwner() */\n      tag_291\n        /* \"MSWAP/Games/Scratchers.sol\":4877:4888  _checkOwner */\n      tag_292\n        /* \"MSWAP/Games/Scratchers.sol\":4877:4890  _checkOwner() */\n      jump\t// in\n    tag_291:\n        /* \"MSWAP/Games/Scratchers.sol\":11335:11346  marsFactory */\n      sload(0x01)\n        /* \"MSWAP/Games/Scratchers.sol\":11326:11358  IFactory(marsFactory).treasury() */\n      0x40\n      dup1\n      mload\n      shl(0xe0, 0x61d027b3)\n      dup2\n      mstore\n      swap1\n      mload\n        /* \"MSWAP/Games/Scratchers.sol\":11307:11323  address treasury */\n      0x00\n      swap3\n      sub(shl(0xa0, 0x01), 0x01)\n        /* \"MSWAP/Games/Scratchers.sol\":11335:11346  marsFactory */\n      and\n      swap2\n        /* \"MSWAP/Games/Scratchers.sol\":11326:11356  IFactory(marsFactory).treasury */\n      0x61d027b3\n      swap2\n        /* \"MSWAP/Games/Scratchers.sol\":11326:11358  IFactory(marsFactory).treasury() */\n      0x04\n      dup1\n      dup4\n      add\n      swap3\n      0x20\n      swap3\n      swap2\n      swap1\n      dup3\n      swap1\n      sub\n      add\n      dup2\n        /* \"MSWAP/Games/Scratchers.sol\":11335:11346  marsFactory */\n      dup7\n        /* \"MSWAP/Games/Scratchers.sol\":11326:11358  IFactory(marsFactory).treasury() */\n      dup1\n      extcodesize\n      iszero\n      dup1\n      iszero\n      tag_294\n      jumpi\n      0x00\n      dup1\n      revert\n    tag_294:\n      pop\n      gas\n      staticcall\n      iszero\n      dup1\n      iszero\n      tag_296\n      jumpi\n      returndatasize\n      0x00\n      dup1\n      returndatacopy\n      revert(0x00, returndatasize)\n    tag_296:\n      pop\n      pop\n      pop\n      pop\n      mload(0x40)\n      returndatasize\n      not(0x1f)\n      0x1f\n      dup3\n      add\n      and\n      dup3\n      add\n      dup1\n      0x40\n      mstore\n      pop\n      dup2\n      add\n      swap1\n      tag_297\n      swap2\n      swap1\n      tag_298\n      jump\t// in\n    tag_297:\n        /* \"MSWAP/Games/Scratchers.sol\":11307:11358  address treasury = IFactory(marsFactory).treasury() */\n      swap1\n      pop\n        /* \"MSWAP/Games/Scratchers.sol\":11392:11399  jackPot */\n      sload(0x0e)\n        /* \"MSWAP/Games/Scratchers.sol\":11381:11388  _amount */\n      dup3\n        /* \"MSWAP/Games/Scratchers.sol\":11381:11399  _amount <= jackPot */\n      gt\n      iszero\n        /* \"MSWAP/Games/Scratchers.sol\":11373:11410  require(_amount <= jackPot,\"TooMuch\") */\n      tag_299\n      jumpi\n      mload(0x40)\n      shl(0xe5, 0x461bcd)\n      dup2\n      mstore\n        /* \"#utility.yul\":8943:8945   */\n      0x20\n        /* \"MSWAP/Games/Scratchers.sol\":11373:11410  require(_amount <= jackPot,\"TooMuch\") */\n      0x04\n      dup3\n      add\n        /* \"#utility.yul\":8925:8946   */\n      mstore\n        /* \"#utility.yul\":8982:8983   */\n      0x07\n        /* \"#utility.yul\":8962:8980   */\n      0x24\n      dup3\n      add\n        /* \"#utility.yul\":8955:8984   */\n      mstore\n      shl(0xcb, 0x0a8dede9aeac6d)\n        /* \"#utility.yul\":9000:9018   */\n      0x44\n      dup3\n      add\n        /* \"#utility.yul\":8993:9030   */\n      mstore\n        /* \"#utility.yul\":9047:9065   */\n      0x64\n      add\n        /* \"MSWAP/Games/Scratchers.sol\":11373:11410  require(_amount <= jackPot,\"TooMuch\") */\n    tag_300:\n      mload(0x40)\n      dup1\n      swap2\n      sub\n      swap1\n      revert\n    tag_299:\n        /* \"MSWAP/Games/Scratchers.sol\":11433:11464  payable(treasury).send(_amount) */\n      mload(0x40)\n      sub(shl(0xa0, 0x01), 0x01)\n        /* \"MSWAP/Games/Scratchers.sol\":11433:11455  payable(treasury).send */\n      dup3\n      and\n      swap1\n        /* \"MSWAP/Games/Scratchers.sol\":11433:11464  payable(treasury).send(_amount) */\n      dup4\n      iszero\n      0x08fc\n      mul\n      swap1\n        /* \"MSWAP/Games/Scratchers.sol\":11456:11463  _amount */\n      dup5\n      swap1\n        /* \"MSWAP/Games/Scratchers.sol\":11433:11464  payable(treasury).send(_amount) */\n      0x00\n      dup2\n      dup2\n      dup2\n        /* \"MSWAP/Games/Scratchers.sol\":11456:11463  _amount */\n      dup6\n        /* \"MSWAP/Games/Scratchers.sol\":11433:11455  payable(treasury).send */\n      dup9\n        /* \"MSWAP/Games/Scratchers.sol\":11433:11464  payable(treasury).send(_amount) */\n      dup9\n      call\n      swap4\n      pop\n      pop\n      pop\n      pop\n        /* \"MSWAP/Games/Scratchers.sol\":11425:11465  require(payable(treasury).send(_amount)) */\n      tag_303\n      jumpi\n      0x00\n      dup1\n      revert\n    tag_303:\n        /* \"MSWAP/Games/Scratchers.sol\":11491:11498  _amount */\n      dup2\n        /* \"MSWAP/Games/Scratchers.sol\":11480:11487  jackPot */\n      0x0e\n      0x00\n        /* \"MSWAP/Games/Scratchers.sol\":11480:11498  jackPot -= _amount */\n      dup3\n      dup3\n      sload\n      tag_304\n      swap2\n      swap1\n      tag_305\n      jump\t// in\n    tag_304:\n      swap1\n      swap2\n      sstore\n      pop\n      pop\n      pop\n      pop\n        /* \"MSWAP/Games/Scratchers.sol\":11233:11510  function reducejackPot(uint256 _amount) external onlyOwner {\r... */\n      jump\t// out\n        /* \"MSWAP/Games/Scratchers.sol\":12182:12208  address[] public payTokens */\n    tag_72:\n      0x13\n      dup2\n      dup2\n      sload\n      dup2\n      lt\n      tag_306\n      jumpi\n      0x00\n      dup1\n      revert\n    tag_306:\n      0x00\n      swap2\n      dup3\n      mstore\n      0x20\n      swap1\n      swap2\n      keccak256\n      add\n      sload\n      sub(shl(0xa0, 0x01), 0x01)\n      and\n      swap1\n      pop\n      dup2\n      jump\t// out\n        /* \"MSWAP/Games/Scratchers.sol\":8116:8184  uint256[] public multiplier = [0, 1, 2, 3, 4, 5, 6, 10, 20, 50, 100] */\n    tag_78:\n      0x0a\n      dup2\n      dup2\n      sload\n      dup2\n      lt\n      tag_308\n      jumpi\n      0x00\n      dup1\n      revert\n    tag_308:\n      0x00\n      swap2\n      dup3\n      mstore\n      0x20\n      swap1\n      swap2\n      keccak256\n      add\n      sload\n      swap1\n      pop\n      dup2\n      jump\t// out\n        /* \"MSWAP/Games/Scratchers.sol\":13572:13702  function setBets(uint256 _newMin, uint256 _newMax) public onlyOwner {\r... */\n    tag_85:\n        /* \"MSWAP/Games/Scratchers.sol\":4877:4890  _checkOwner() */\n      tag_311\n        /* \"MSWAP/Games/Scratchers.sol\":4877:4888  _checkOwner */\n      tag_292\n        /* \"MSWAP/Games/Scratchers.sol\":4877:4890  _checkOwner() */\n      jump\t// in\n    tag_311:\n        /* \"MSWAP/Games/Scratchers.sol\":13651:13657  minBet */\n      0x04\n        /* \"MSWAP/Games/Scratchers.sol\":13651:13667  minBet = _newMin */\n      swap2\n      swap1\n      swap2\n      sstore\n        /* \"MSWAP/Games/Scratchers.sol\":13678:13684  maxBet */\n      0x05\n        /* \"MSWAP/Games/Scratchers.sol\":13678:13694  maxBet = _newMax */\n      sstore\n        /* \"MSWAP/Games/Scratchers.sol\":13572:13702  function setBets(uint256 _newMin, uint256 _newMax) public onlyOwner {\r... */\n      jump\t// out\n        /* \"MSWAP/Games/Scratchers.sol\":21398:22579  function JackPot() public payable pausable returns (uint256 ticket, address player, uint256 addToJackPot, bool isWinner, uint256 _amount) {\r... */\n    tag_87:\n        /* \"MSWAP/Games/Scratchers.sol\":13290:13298  isPaused */\n      sload(0x15)\n        /* \"MSWAP/Games/Scratchers.sol\":21450:21464  uint256 ticket */\n      0x00\n      swap1\n      dup2\n      swap1\n      dup2\n      swap1\n      dup2\n      swap1\n      dup2\n      swap1\n        /* \"MSWAP/Games/Scratchers.sol\":13290:13298  isPaused */\n      0xff\n      and\n        /* \"MSWAP/Games/Scratchers.sol\":13289:13298  !isPaused */\n      iszero\n        /* \"MSWAP/Games/Scratchers.sol\":13281:13319  require(!isPaused, \"games are paused\") */\n      tag_314\n      jumpi\n      mload(0x40)\n      shl(0xe5, 0x461bcd)\n      dup2\n      mstore\n        /* \"#utility.yul\":11058:11060   */\n      0x20\n        /* \"MSWAP/Games/Scratchers.sol\":13281:13319  require(!isPaused, \"games are paused\") */\n      0x04\n      dup3\n      add\n        /* \"#utility.yul\":11040:11061   */\n      mstore\n        /* \"#utility.yul\":11097:11099   */\n      0x10\n        /* \"#utility.yul\":11077:11095   */\n      0x24\n      dup3\n      add\n        /* \"#utility.yul\":11070:11100   */\n      mstore\n      shl(0x82, 0x19d85b595cc8185c99481c185d5cd959)\n        /* \"#utility.yul\":11116:11134   */\n      0x44\n      dup3\n      add\n        /* \"#utility.yul\":11109:11155   */\n      mstore\n        /* \"#utility.yul\":11172:11190   */\n      0x64\n      add\n        /* \"MSWAP/Games/Scratchers.sol\":13281:13319  require(!isPaused, \"games are paused\") */\n      tag_300\n        /* \"#utility.yul\":10856:11196   */\n      jump\n        /* \"MSWAP/Games/Scratchers.sol\":13281:13319  require(!isPaused, \"games are paused\") */\n    tag_314:\n        /* \"MSWAP/Games/Scratchers.sol\":21572:21586  jackPotCostBNB */\n      sload(0x06)\n        /* \"MSWAP/Games/Scratchers.sol\":21559:21568  msg.value */\n      callvalue\n        /* \"MSWAP/Games/Scratchers.sol\":21559:21586  msg.value >= jackPotCostBNB */\n      lt\n      iszero\n        /* \"MSWAP/Games/Scratchers.sol\":21551:21604  require(msg.value >= jackPotCostBNB,\"not enough BNB\") */\n      tag_318\n      jumpi\n      mload(0x40)\n      shl(0xe5, 0x461bcd)\n      dup2\n      mstore\n        /* \"#utility.yul\":12920:12922   */\n      0x20\n        /* \"MSWAP/Games/Scratchers.sol\":21551:21604  require(msg.value >= jackPotCostBNB,\"not enough BNB\") */\n      0x04\n      dup3\n      add\n        /* \"#utility.yul\":12902:12923   */\n      mstore\n        /* \"#utility.yul\":12959:12961   */\n      0x0e\n        /* \"#utility.yul\":12939:12957   */\n      0x24\n      dup3\n      add\n        /* \"#utility.yul\":12932:12962   */\n      mstore\n      shl(0x91, 0x3737ba1032b737bab3b410212721)\n        /* \"#utility.yul\":12978:12996   */\n      0x44\n      dup3\n      add\n        /* \"#utility.yul\":12971:13015   */\n      mstore\n        /* \"#utility.yul\":13032:13050   */\n      0x64\n      add\n        /* \"MSWAP/Games/Scratchers.sol\":21551:21604  require(msg.value >= jackPotCostBNB,\"not enough BNB\") */\n      tag_300\n        /* \"#utility.yul\":12718:13056   */\n      jump\n        /* \"MSWAP/Games/Scratchers.sol\":21551:21604  require(msg.value >= jackPotCostBNB,\"not enough BNB\") */\n    tag_318:\n        /* \"MSWAP/Games/Scratchers.sol\":21619:21630  uint256 fee */\n      0x00\n        /* \"MSWAP/Games/Scratchers.sol\":21654:21659  10000 */\n      0x2710\n        /* \"MSWAP/Games/Scratchers.sol\":21645:21651  devFee */\n      sload(0x07)\n        /* \"MSWAP/Games/Scratchers.sol\":21633:21642  msg.value */\n      callvalue\n        /* \"MSWAP/Games/Scratchers.sol\":21633:21651  msg.value * devFee */\n      tag_321\n      swap2\n      swap1\n      tag_322\n      jump\t// in\n    tag_321:\n        /* \"MSWAP/Games/Scratchers.sol\":21633:21659  msg.value * devFee / 10000 */\n      tag_323\n      swap2\n      swap1\n      tag_324\n      jump\t// in\n    tag_323:\n        /* \"MSWAP/Games/Scratchers.sol\":21619:21659  uint256 fee = msg.value * devFee / 10000 */\n      swap1\n      pop\n        /* \"MSWAP/Games/Scratchers.sol\":21674:21690  address treasury */\n      0x00\n        /* \"MSWAP/Games/Scratchers.sol\":21702:21713  marsFactory */\n      0x01\n      0x00\n      swap1\n      sload\n      swap1\n      0x0100\n      exp\n      swap1\n      div\n      sub(shl(0xa0, 0x01), 0x01)\n      and\n      sub(shl(0xa0, 0x01), 0x01)\n        /* \"MSWAP/Games/Scratchers.sol\":21693:21723  IFactory(marsFactory).treasury */\n      and\n      0x61d027b3\n        /* \"MSWAP/Games/Scratchers.sol\":21693:21725  IFactory(marsFactory).treasury() */\n      mload(0x40)\n      dup2\n      0xffffffff\n      and\n      0xe0\n      shl\n      dup2\n      mstore\n      0x04\n      add\n      0x20\n      mload(0x40)\n      dup1\n      dup4\n      sub\n      dup2\n      dup7\n      dup1\n      extcodesize\n      iszero\n      dup1\n      iszero\n      tag_325\n      jumpi\n      0x00\n      dup1\n      revert\n    tag_325:\n      pop\n      gas\n      staticcall\n      iszero\n      dup1\n      iszero\n      tag_327\n      jumpi\n      returndatasize\n      0x00\n      dup1\n      returndatacopy\n      revert(0x00, returndatasize)\n    tag_327:\n      pop\n      pop\n      pop\n      pop\n      mload(0x40)\n      returndatasize\n      not(0x1f)\n      0x1f\n      dup3\n      add\n      and\n      dup3\n      add\n      dup1\n      0x40\n      mstore\n      pop\n      dup2\n      add\n      swap1\n      tag_328\n      swap2\n      swap1\n      tag_298\n      jump\t// in\n    tag_328:\n        /* \"MSWAP/Games/Scratchers.sol\":21748:21775  payable(treasury).send(fee) */\n      mload(0x40)\n        /* \"MSWAP/Games/Scratchers.sol\":21674:21725  address treasury = IFactory(marsFactory).treasury() */\n      swap1\n      swap2\n      pop\n      sub(shl(0xa0, 0x01), 0x01)\n        /* \"MSWAP/Games/Scratchers.sol\":21748:21770  payable(treasury).send */\n      dup3\n      and\n      swap1\n        /* \"MSWAP/Games/Scratchers.sol\":21748:21775  payable(treasury).send(fee) */\n      dup4\n      iszero\n      0x08fc\n      mul\n      swap1\n        /* \"MSWAP/Games/Scratchers.sol\":21771:21774  fee */\n      dup5\n      swap1\n        /* \"MSWAP/Games/Scratchers.sol\":21748:21775  payable(treasury).send(fee) */\n      0x00\n      dup2\n      dup2\n      dup2\n        /* \"MSWAP/Games/Scratchers.sol\":21771:21774  fee */\n      dup6\n        /* \"MSWAP/Games/Scratchers.sol\":21748:21770  payable(treasury).send */\n      dup9\n        /* \"MSWAP/Games/Scratchers.sol\":21748:21775  payable(treasury).send(fee) */\n      dup9\n      call\n      swap4\n      pop\n      pop\n      pop\n      pop\n        /* \"MSWAP/Games/Scratchers.sol\":21740:21776  require(payable(treasury).send(fee)) */\n      tag_330\n      jumpi\n      0x00\n      dup1\n      revert\n    tag_330:\n        /* \"MSWAP/Games/Scratchers.sol\":21821:21828  fee * 2 */\n      tag_331\n        /* \"MSWAP/Games/Scratchers.sol\":21821:21824  fee */\n      dup3\n        /* \"MSWAP/Games/Scratchers.sol\":21827:21828  2 */\n      0x02\n        /* \"MSWAP/Games/Scratchers.sol\":21821:21828  fee * 2 */\n      tag_322\n      jump\t// in\n    tag_331:\n        /* \"MSWAP/Games/Scratchers.sol\":21808:21829  msg.value - (fee * 2) */\n      tag_332\n      swap1\n        /* \"MSWAP/Games/Scratchers.sol\":21808:21817  msg.value */\n      callvalue\n        /* \"MSWAP/Games/Scratchers.sol\":21808:21829  msg.value - (fee * 2) */\n      tag_305\n      jump\t// in\n    tag_332:\n        /* \"MSWAP/Games/Scratchers.sol\":21793:21829  addToJackPot = msg.value - (fee * 2) */\n      swap5\n      pop\n        /* \"MSWAP/Games/Scratchers.sol\":21855:21867  addToJackPot */\n      dup5\n        /* \"MSWAP/Games/Scratchers.sol\":21844:21851  jackPot */\n      0x0e\n      0x00\n        /* \"MSWAP/Games/Scratchers.sol\":21844:21867  jackPot += addToJackPot */\n      dup3\n      dup3\n      sload\n      tag_333\n      swap2\n      swap1\n      tag_334\n      jump\t// in\n    tag_333:\n      swap3\n      pop\n      pop\n      dup2\n      swap1\n      sstore\n      pop\n        /* \"MSWAP/Games/Scratchers.sol\":21905:21906  1 */\n      0x01\n        /* \"MSWAP/Games/Scratchers.sol\":21882:21901  jackPotTicketNumber */\n      0x10\n      0x00\n        /* \"MSWAP/Games/Scratchers.sol\":21882:21906  jackPotTicketNumber += 1 */\n      dup3\n      dup3\n      sload\n      tag_335\n      swap2\n      swap1\n      tag_334\n      jump\t// in\n    tag_335:\n      swap3\n      pop\n      pop\n      dup2\n      swap1\n      sstore\n      pop\n        /* \"MSWAP/Games/Scratchers.sol\":21923:21936  uint256 value */\n      0x00\n        /* \"MSWAP/Games/Scratchers.sol\":21939:21957  rng(jackPotChance) */\n      tag_336\n        /* \"MSWAP/Games/Scratchers.sol\":21943:21956  jackPotChance */\n      sload(0x09)\n        /* \"MSWAP/Games/Scratchers.sol\":21939:21942  rng */\n      tag_168\n        /* \"MSWAP/Games/Scratchers.sol\":21939:21957  rng(jackPotChance) */\n      jump\t// in\n    tag_336:\n        /* \"MSWAP/Games/Scratchers.sol\":21923:21957  uint256 value = rng(jackPotChance) */\n      swap1\n      pop\n        /* \"MSWAP/Games/Scratchers.sol\":21997:21998  5 */\n      0x05\n        /* \"MSWAP/Games/Scratchers.sol\":21981:21994  jackPotChance */\n      sload(0x09)\n        /* \"MSWAP/Games/Scratchers.sol\":21981:21998  jackPotChance - 5 */\n      tag_337\n      swap2\n      swap1\n      tag_305\n      jump\t// in\n    tag_337:\n        /* \"MSWAP/Games/Scratchers.sol\":21972:21977  value */\n      dup2\n        /* \"MSWAP/Games/Scratchers.sol\":21972:21998  value == jackPotChance - 5 */\n      eq\n        /* \"MSWAP/Games/Scratchers.sol\":21972:22035  value == jackPotChance - 5 ? isWinner = true : isWinner = false */\n      tag_338\n      jumpi\n        /* \"MSWAP/Games/Scratchers.sol\":22030:22035  false */\n      0x00\n        /* \"MSWAP/Games/Scratchers.sol\":22019:22035  isWinner = false */\n      swap5\n      pop\n      dup5\n        /* \"MSWAP/Games/Scratchers.sol\":21972:22035  value == jackPotChance - 5 ? isWinner = true : isWinner = false */\n      jump(tag_339)\n    tag_338:\n        /* \"MSWAP/Games/Scratchers.sol\":22012:22016  true */\n      0x01\n        /* \"MSWAP/Games/Scratchers.sol\":22001:22016  isWinner = true */\n      swap5\n      pop\n      dup5\n        /* \"MSWAP/Games/Scratchers.sol\":21972:22035  value == jackPotChance - 5 ? isWinner = true : isWinner = false */\n    tag_339:\n      pop\n        /* \"MSWAP/Games/Scratchers.sol\":22050:22058  isWinner */\n      dup5\n        /* \"MSWAP/Games/Scratchers.sol\":22050:22092  isWinner ? _amount = jackPot : _amount = 0 */\n      tag_340\n      jumpi\n        /* \"MSWAP/Games/Scratchers.sol\":22091:22092  0 */\n      0x00\n        /* \"MSWAP/Games/Scratchers.sol\":22081:22092  _amount = 0 */\n      swap4\n      pop\n      dup4\n        /* \"MSWAP/Games/Scratchers.sol\":22050:22092  isWinner ? _amount = jackPot : _amount = 0 */\n      jump(tag_341)\n    tag_340:\n        /* \"MSWAP/Games/Scratchers.sol\":22071:22078  jackPot */\n      sload(0x0e)\n        /* \"MSWAP/Games/Scratchers.sol\":22061:22078  _amount = jackPot */\n      swap4\n      pop\n      dup4\n        /* \"MSWAP/Games/Scratchers.sol\":22050:22092  isWinner ? _amount = jackPot : _amount = 0 */\n    tag_341:\n      pop\n        /* \"MSWAP/Games/Scratchers.sol\":22112:22120  isWinner */\n      dup5\n        /* \"MSWAP/Games/Scratchers.sol\":22109:22229  if(isWinner) {\r... */\n      iszero\n      tag_342\n      jumpi\n        /* \"MSWAP/Games/Scratchers.sol\":22149:22182  payable(msg.sender).send(_amount) */\n      mload(0x40)\n        /* \"MSWAP/Games/Scratchers.sol\":22157:22167  msg.sender */\n      caller\n      swap1\n        /* \"MSWAP/Games/Scratchers.sol\":22149:22182  payable(msg.sender).send(_amount) */\n      dup6\n      iszero\n      0x08fc\n      mul\n      swap1\n        /* \"MSWAP/Games/Scratchers.sol\":22174:22181  _amount */\n      dup7\n      swap1\n        /* \"MSWAP/Games/Scratchers.sol\":22149:22182  payable(msg.sender).send(_amount) */\n      0x00\n      dup2\n      dup2\n      dup2\n        /* \"MSWAP/Games/Scratchers.sol\":22174:22181  _amount */\n      dup6\n        /* \"MSWAP/Games/Scratchers.sol\":22157:22167  msg.sender */\n      dup9\n        /* \"MSWAP/Games/Scratchers.sol\":22149:22182  payable(msg.sender).send(_amount) */\n      dup9\n      call\n      swap4\n      pop\n      pop\n      pop\n      pop\n        /* \"MSWAP/Games/Scratchers.sol\":22141:22183  require(payable(msg.sender).send(_amount)) */\n      tag_344\n      jumpi\n      0x00\n      dup1\n      revert\n    tag_344:\n        /* \"MSWAP/Games/Scratchers.sol\":22212:22213  0 */\n      0x00\n        /* \"MSWAP/Games/Scratchers.sol\":22202:22209  jackPot */\n      0x0e\n        /* \"MSWAP/Games/Scratchers.sol\":22202:22213  jackPot = 0 */\n      sstore\n        /* \"MSWAP/Games/Scratchers.sol\":22109:22229  if(isWinner) {\r... */\n    tag_342:\n        /* \"MSWAP/Games/Scratchers.sol\":22284:22375  HistoryJ(block.timestamp, jackPotTicketNumber, msg.sender, addToJackPot, isWinner, _amount) */\n      0x40\n      dup1\n      mload\n      0xc0\n      dup2\n      add\n      dup3\n      mstore\n        /* \"MSWAP/Games/Scratchers.sol\":22293:22308  block.timestamp */\n      timestamp\n        /* \"MSWAP/Games/Scratchers.sol\":22284:22375  HistoryJ(block.timestamp, jackPotTicketNumber, msg.sender, addToJackPot, isWinner, _amount) */\n      dup2\n      mstore\n        /* \"MSWAP/Games/Scratchers.sol\":22310:22329  jackPotTicketNumber */\n      0x10\n      dup1\n      sload\n        /* \"MSWAP/Games/Scratchers.sol\":22284:22375  HistoryJ(block.timestamp, jackPotTicketNumber, msg.sender, addToJackPot, isWinner, _amount) */\n      0x20\n      dup1\n      dup5\n      add\n      dup3\n      dup2\n      mstore\n        /* \"MSWAP/Games/Scratchers.sol\":22331:22341  msg.sender */\n      caller\n        /* \"MSWAP/Games/Scratchers.sol\":22284:22375  HistoryJ(block.timestamp, jackPotTicketNumber, msg.sender, addToJackPot, isWinner, _amount) */\n      dup6\n      dup8\n      add\n      dup2\n      dup2\n      mstore\n      0x60\n      dup8\n      add\n      dup15\n      dup2\n      mstore\n      dup14\n      iszero\n      iszero\n      0x80\n      dup10\n      add\n      swap1\n      dup2\n      mstore\n      0xa0\n      dup10\n      add\n      dup15\n      dup2\n      mstore\n      0x00\n        /* \"MSWAP/Games/Scratchers.sol\":22246:22281  jackPotHistory[jackPotTicketNumber] */\n      swap8\n      dup9\n      mstore\n        /* \"MSWAP/Games/Scratchers.sol\":22246:22260  jackPotHistory */\n      0x17\n        /* \"MSWAP/Games/Scratchers.sol\":22246:22281  jackPotHistory[jackPotTicketNumber] */\n      swap1\n      swap7\n      mstore\n      swap6\n      dup10\n      swap1\n      keccak256\n        /* \"MSWAP/Games/Scratchers.sol\":22246:22375  jackPotHistory[jackPotTicketNumber] = HistoryJ(block.timestamp, jackPotTicketNumber, msg.sender, addToJackPot, isWinner, _amount) */\n      swap8\n      mload\n      dup9\n      sstore\n      swap3\n      mload\n      0x01\n      dup9\n      add\n      sstore\n      mload\n      0x02\n      dup8\n      add\n      dup1\n      sload\n      sub(shl(0xa0, 0x01), 0x01)\n      swap3\n      swap1\n      swap3\n      and\n      not(sub(shl(0xa0, 0x01), 0x01))\n      swap1\n      swap3\n      and\n      swap2\n      swap1\n      swap2\n      or\n      swap1\n      sstore\n      swap1\n      mload\n      0x03\n      dup7\n      add\n      sstore\n      swap2\n      mload\n      0x04\n      dup6\n      add\n      dup1\n      sload\n      swap2\n      iszero\n      iszero\n      not(0xff)\n      swap1\n      swap3\n      and\n      swap2\n      swap1\n      swap2\n      or\n      swap1\n      sstore\n      mload\n      0x05\n      swap1\n      swap4\n      add\n      swap3\n      swap1\n      swap3\n      sstore\n        /* \"MSWAP/Games/Scratchers.sol\":22413:22432  jackPotTicketNumber */\n      sload\n        /* \"MSWAP/Games/Scratchers.sol\":22397:22478  JackPotPurchase(jackPotTicketNumber, msg.sender, addToJackPot, isWinner, _amount) */\n      swap2\n      mload\n      0x0b99472f4356feb056b789b1b95177a76dda68c70e20005c2959cc3267185e10\n      swap3\n      tag_345\n      swap3\n        /* \"MSWAP/Games/Scratchers.sol\":22413:22432  jackPotTicketNumber */\n      swap1\n      swap2\n        /* \"MSWAP/Games/Scratchers.sol\":22343:22355  addToJackPot */\n      dup11\n      swap1\n        /* \"MSWAP/Games/Scratchers.sol\":22357:22365  isWinner */\n      dup11\n      swap1\n        /* \"MSWAP/Games/Scratchers.sol\":22367:22374  _amount */\n      dup11\n      swap1\n        /* \"#utility.yul\":15725:15750   */\n      swap5\n      dup6\n      mstore\n      sub(shl(0xa0, 0x01), 0x01)\n        /* \"#utility.yul\":15786:15818   */\n      swap4\n      swap1\n      swap4\n      and\n        /* \"#utility.yul\":15781:15783   */\n      0x20\n        /* \"#utility.yul\":15766:15784   */\n      dup6\n      add\n        /* \"#utility.yul\":15759:15819   */\n      mstore\n        /* \"#utility.yul\":15850:15852   */\n      0x40\n        /* \"#utility.yul\":15835:15853   */\n      dup5\n      add\n        /* \"#utility.yul\":15828:15862   */\n      swap2\n      swap1\n      swap2\n      mstore\n        /* \"#utility.yul\":15905:15919   */\n      iszero\n        /* \"#utility.yul\":15898:15920   */\n      iszero\n        /* \"#utility.yul\":15893:15895   */\n      0x60\n        /* \"#utility.yul\":15878:15896   */\n      dup4\n      add\n        /* \"#utility.yul\":15871:15921   */\n      mstore\n        /* \"#utility.yul\":15952:15955   */\n      0x80\n        /* \"#utility.yul\":15937:15956   */\n      dup3\n      add\n        /* \"#utility.yul\":15930:15965   */\n      mstore\n        /* \"#utility.yul\":15712:15715   */\n      0xa0\n        /* \"#utility.yul\":15697:15716   */\n      add\n      swap1\n        /* \"#utility.yul\":15472:15971   */\n      jump\n        /* \"MSWAP/Games/Scratchers.sol\":22397:22478  JackPotPurchase(jackPotTicketNumber, msg.sender, addToJackPot, isWinner, _amount) */\n    tag_345:\n      mload(0x40)\n      dup1\n      swap2\n      sub\n      swap1\n      log1\n        /* \"MSWAP/Games/Scratchers.sol\":22502:22521  jackPotTicketNumber */\n      sload(0x10)\n        /* \"MSWAP/Games/Scratchers.sol\":22523:22533  msg.sender */\n      caller\n        /* \"MSWAP/Games/Scratchers.sol\":22493:22567  return ( jackPotTicketNumber, msg.sender, addToJackPot, isWinner, _amount) */\n      swap8\n      pop\n      swap8\n      pop\n      pop\n      pop\n      pop\n        /* \"MSWAP/Games/Scratchers.sol\":21398:22579  function JackPot() public payable pausable returns (uint256 ticket, address player, uint256 addToJackPot, bool isWinner, uint256 _amount) {\r... */\n      swap1\n      swap2\n      swap3\n      swap4\n      swap5\n      jump\t// out\n        /* \"MSWAP/Games/Scratchers.sol\":14822:15460  function pickTicket(uint256 _bet) public returns (uint256 ticketPicked, bool isToken) {    \r... */\n    tag_93:\n        /* \"MSWAP/Games/Scratchers.sol\":14872:14892  uint256 ticketPicked */\n      0x00\n        /* \"MSWAP/Games/Scratchers.sol\":14894:14906  bool isToken */\n      dup1\n        /* \"MSWAP/Games/Scratchers.sol\":14924:14941  uint256 avWinners */\n      0x00\n        /* \"MSWAP/Games/Scratchers.sol\":14943:14963  uint256 newChancePer */\n      dup1\n        /* \"MSWAP/Games/Scratchers.sol\":14967:14986  getMaxWinSize(_bet) */\n      tag_347\n        /* \"MSWAP/Games/Scratchers.sol\":14981:14985  _bet */\n      dup6\n        /* \"MSWAP/Games/Scratchers.sol\":14967:14980  getMaxWinSize */\n      tag_285\n        /* \"MSWAP/Games/Scratchers.sol\":14967:14986  getMaxWinSize(_bet) */\n      jump\t// in\n    tag_347:\n        /* \"MSWAP/Games/Scratchers.sol\":14923:14986  (uint256 avWinners, uint256 newChancePer) = getMaxWinSize(_bet) */\n      swap1\n      swap3\n      pop\n      swap1\n      pop\n        /* \"MSWAP/Games/Scratchers.sol\":14997:15010  uint256 value */\n      0x00\n        /* \"MSWAP/Games/Scratchers.sol\":15013:15035  rng(newChancePer * 10) */\n      tag_348\n        /* \"MSWAP/Games/Scratchers.sol\":15017:15034  newChancePer * 10 */\n      tag_167\n        /* \"MSWAP/Games/Scratchers.sol\":14923:14986  (uint256 avWinners, uint256 newChancePer) = getMaxWinSize(_bet) */\n      dup4\n        /* \"MSWAP/Games/Scratchers.sol\":15032:15034  10 */\n      0x0a\n        /* \"MSWAP/Games/Scratchers.sol\":15017:15034  newChancePer * 10 */\n      tag_322\n      jump\t// in\n        /* \"MSWAP/Games/Scratchers.sol\":15013:15035  rng(newChancePer * 10) */\n    tag_348:\n        /* \"MSWAP/Games/Scratchers.sol\":14997:15035  uint256 value = rng(newChancePer * 10) */\n      swap1\n      pop\n        /* \"MSWAP/Games/Scratchers.sol\":15046:15061  uint256 setting */\n      0x00\n        /* \"MSWAP/Games/Scratchers.sol\":15064:15081  newChancePer * 10 */\n      tag_350\n        /* \"MSWAP/Games/Scratchers.sol\":15064:15076  newChancePer */\n      dup4\n        /* \"MSWAP/Games/Scratchers.sol\":15079:15081  10 */\n      0x0a\n        /* \"MSWAP/Games/Scratchers.sol\":15064:15081  newChancePer * 10 */\n      tag_322\n      jump\t// in\n    tag_350:\n        /* \"MSWAP/Games/Scratchers.sol\":15046:15081  uint256 setting = newChancePer * 10 */\n      swap1\n      pop\n        /* \"MSWAP/Games/Scratchers.sol\":15112:15113  0 */\n      0x00\n        /* \"MSWAP/Games/Scratchers.sol\":15100:15109  avWinners */\n      dup5\n        /* \"MSWAP/Games/Scratchers.sol\":15100:15113  avWinners > 0 */\n      gt\n        /* \"MSWAP/Games/Scratchers.sol\":15092:15126  require(avWinners > 0,\"Pot Empty\") */\n      tag_351\n      jumpi\n      mload(0x40)\n      shl(0xe5, 0x461bcd)\n      dup2\n      mstore\n        /* \"#utility.yul\":10378:10380   */\n      0x20\n        /* \"MSWAP/Games/Scratchers.sol\":15092:15126  require(avWinners > 0,\"Pot Empty\") */\n      0x04\n      dup3\n      add\n        /* \"#utility.yul\":10360:10381   */\n      mstore\n        /* \"#utility.yul\":10417:10418   */\n      0x09\n        /* \"#utility.yul\":10397:10415   */\n      0x24\n      dup3\n      add\n        /* \"#utility.yul\":10390:10419   */\n      mstore\n      shl(0xb8, 0x506f7420456d707479)\n        /* \"#utility.yul\":10435:10453   */\n      0x44\n      dup3\n      add\n        /* \"#utility.yul\":10428:10467   */\n      mstore\n        /* \"#utility.yul\":10484:10502   */\n      0x64\n      add\n        /* \"MSWAP/Games/Scratchers.sol\":15092:15126  require(avWinners > 0,\"Pot Empty\") */\n      tag_300\n        /* \"#utility.yul\":10176:10508   */\n      jump\n        /* \"MSWAP/Games/Scratchers.sol\":15092:15126  require(avWinners > 0,\"Pot Empty\") */\n    tag_351:\n        /* \"MSWAP/Games/Scratchers.sol\":15147:15152  false */\n      0x00\n      swap5\n      pop\n      dup5\n        /* \"MSWAP/Games/Scratchers.sol\":15195:15204  value % 3 */\n      tag_354\n        /* \"MSWAP/Games/Scratchers.sol\":15203:15204  3 */\n      0x03\n        /* \"MSWAP/Games/Scratchers.sol\":15195:15200  value */\n      dup5\n        /* \"MSWAP/Games/Scratchers.sol\":15195:15204  value % 3 */\n      tag_355\n      jump\t// in\n    tag_354:\n        /* \"MSWAP/Games/Scratchers.sol\":15165:15205  uint256 tokenChoice = uint256(value % 3) */\n      swap1\n      pop\n        /* \"MSWAP/Games/Scratchers.sol\":15219:15235  tokenChoice != 0 */\n      dup1\n      iszero\n        /* \"MSWAP/Games/Scratchers.sol\":15216:15251  if(tokenChoice != 0) isToken = true */\n      tag_356\n      jumpi\n        /* \"MSWAP/Games/Scratchers.sol\":15247:15251  true */\n      0x01\n        /* \"MSWAP/Games/Scratchers.sol\":15237:15251  isToken = true */\n      swap6\n      pop\n        /* \"MSWAP/Games/Scratchers.sol\":15216:15251  if(tokenChoice != 0) isToken = true */\n    tag_356:\n        /* \"MSWAP/Games/Scratchers.sol\":15268:15274  uint i */\n      0x00\n        /* \"MSWAP/Games/Scratchers.sol\":15277:15289  avWinners -1 */\n      tag_360\n        /* \"MSWAP/Games/Scratchers.sol\":15288:15289  1 */\n      0x01\n        /* \"MSWAP/Games/Scratchers.sol\":15277:15286  avWinners */\n      dup8\n        /* \"MSWAP/Games/Scratchers.sol\":15277:15289  avWinners -1 */\n      tag_305\n      jump\t// in\n    tag_360:\n        /* \"MSWAP/Games/Scratchers.sol\":15268:15289  uint i = avWinners -1 */\n      swap1\n      pop\n        /* \"MSWAP/Games/Scratchers.sol\":15264:15444  for(uint i = avWinners -1; i >= 0; i--){\r... */\n    tag_357:\n        /* \"MSWAP/Games/Scratchers.sol\":15331:15335  odds */\n      0x0b\n        /* \"MSWAP/Games/Scratchers.sol\":15336:15337  i */\n      dup2\n        /* \"MSWAP/Games/Scratchers.sol\":15331:15338  odds[i] */\n      dup2\n      sload\n      dup2\n      lt\n      tag_362\n      jumpi\n      tag_362\n      tag_363\n      jump\t// in\n    tag_362:\n      swap1\n      0x00\n      mstore\n      keccak256(0x00, 0x20)\n      add\n      sload\n        /* \"MSWAP/Games/Scratchers.sol\":15341:15343  10 */\n      0x0a\n        /* \"MSWAP/Games/Scratchers.sol\":15331:15343  odds[i] * 10 */\n      tag_365\n      swap2\n      swap1\n      tag_322\n      jump\t// in\n    tag_365:\n        /* \"MSWAP/Games/Scratchers.sol\":15320:15343  setting -= odds[i] * 10 */\n      tag_366\n      swap1\n      dup5\n      tag_305\n      jump\t// in\n    tag_366:\n      swap3\n      pop\n        /* \"MSWAP/Games/Scratchers.sol\":15370:15377  setting */\n      dup3\n        /* \"MSWAP/Games/Scratchers.sol\":15361:15366  value */\n      dup5\n        /* \"MSWAP/Games/Scratchers.sol\":15361:15377  value >= setting */\n      lt\n        /* \"MSWAP/Games/Scratchers.sol\":15358:15433  if(value >= setting) {\r... */\n      tag_367\n      jumpi\n        /* \"MSWAP/Games/Scratchers.sol\":15406:15407  i */\n      dup1\n        /* \"MSWAP/Games/Scratchers.sol\":15398:15417  return (i, isToken) */\n      swap8\n      pop\n      pop\n      pop\n      pop\n      pop\n      pop\n      pop\n        /* \"MSWAP/Games/Scratchers.sol\":14822:15460  function pickTicket(uint256 _bet) public returns (uint256 ticketPicked, bool isToken) {    \r... */\n      swap2\n      pop\n      swap2\n      jump\t// out\n        /* \"MSWAP/Games/Scratchers.sol\":15358:15433  if(value >= setting) {\r... */\n    tag_367:\n        /* \"MSWAP/Games/Scratchers.sol\":15299:15302  i-- */\n      dup1\n      tag_368\n      dup2\n      tag_369\n      jump\t// in\n    tag_368:\n      swap2\n      pop\n      pop\n        /* \"MSWAP/Games/Scratchers.sol\":15264:15444  for(uint i = avWinners -1; i >= 0; i--){\r... */\n      jump(tag_357)\n        /* \"MSWAP/Games/Scratchers.sol\":13961:14178  function withdrawBNB(uint256 _amount) external onlyOwner {\r... */\n    tag_99:\n        /* \"MSWAP/Games/Scratchers.sol\":4877:4890  _checkOwner() */\n      tag_371\n        /* \"MSWAP/Games/Scratchers.sol\":4877:4888  _checkOwner */\n      tag_292\n        /* \"MSWAP/Games/Scratchers.sol\":4877:4890  _checkOwner() */\n      jump\t// in\n    tag_371:\n        /* \"MSWAP/Games/Scratchers.sol\":14070:14077  jackPot */\n      sload(0x0e)\n        /* \"MSWAP/Games/Scratchers.sol\":14046:14077  address(this).balance - jackPot */\n      tag_373\n      swap1\n        /* \"MSWAP/Games/Scratchers.sol\":14046:14067  address(this).balance */\n      selfbalance\n        /* \"MSWAP/Games/Scratchers.sol\":14046:14077  address(this).balance - jackPot */\n      tag_305\n      jump\t// in\n    tag_373:\n        /* \"MSWAP/Games/Scratchers.sol\":14035:14042  _amount */\n      dup2\n        /* \"MSWAP/Games/Scratchers.sol\":14035:14077  _amount <= address(this).balance - jackPot */\n      gt\n      iszero\n        /* \"MSWAP/Games/Scratchers.sol\":14027:14121  require(_amount <= address(this).balance - jackPot, \"Remove jackpot funds with other methods\") */\n      tag_374\n      jumpi\n      mload(0x40)\n      shl(0xe5, 0x461bcd)\n      dup2\n      mstore\n        /* \"#utility.yul\":12512:12514   */\n      0x20\n        /* \"MSWAP/Games/Scratchers.sol\":14027:14121  require(_amount <= address(this).balance - jackPot, \"Remove jackpot funds with other methods\") */\n      0x04\n      dup3\n      add\n        /* \"#utility.yul\":12494:12515   */\n      mstore\n        /* \"#utility.yul\":12551:12553   */\n      0x27\n        /* \"#utility.yul\":12531:12549   */\n      0x24\n      dup3\n      add\n        /* \"#utility.yul\":12524:12554   */\n      mstore\n        /* \"#utility.yul\":12590:12624   */\n      0x52656d6f7665206a61636b706f742066756e64732077697468206f7468657220\n        /* \"#utility.yul\":12570:12588   */\n      0x44\n      dup3\n      add\n        /* \"#utility.yul\":12563:12625   */\n      mstore\n      shl(0xc8, 0x6d6574686f6473)\n        /* \"#utility.yul\":12641:12659   */\n      0x64\n      dup3\n      add\n        /* \"#utility.yul\":12634:12671   */\n      mstore\n        /* \"#utility.yul\":12688:12707   */\n      0x84\n      add\n        /* \"MSWAP/Games/Scratchers.sol\":14027:14121  require(_amount <= address(this).balance - jackPot, \"Remove jackpot funds with other methods\") */\n      tag_300\n        /* \"#utility.yul\":12310:12713   */\n      jump\n        /* \"MSWAP/Games/Scratchers.sol\":14027:14121  require(_amount <= address(this).balance - jackPot, \"Remove jackpot funds with other methods\") */\n    tag_374:\n        /* \"MSWAP/Games/Scratchers.sol\":14136:14169  payable(msg.sender).send(_amount) */\n      mload(0x40)\n        /* \"MSWAP/Games/Scratchers.sol\":14144:14154  msg.sender */\n      caller\n      swap1\n        /* \"MSWAP/Games/Scratchers.sol\":14136:14169  payable(msg.sender).send(_amount) */\n      dup3\n      iszero\n      0x08fc\n      mul\n      swap1\n        /* \"MSWAP/Games/Scratchers.sol\":14161:14168  _amount */\n      dup4\n      swap1\n        /* \"MSWAP/Games/Scratchers.sol\":14136:14169  payable(msg.sender).send(_amount) */\n      0x00\n      dup2\n      dup2\n      dup2\n        /* \"MSWAP/Games/Scratchers.sol\":14161:14168  _amount */\n      dup6\n        /* \"MSWAP/Games/Scratchers.sol\":14144:14154  msg.sender */\n      dup9\n        /* \"MSWAP/Games/Scratchers.sol\":14136:14169  payable(msg.sender).send(_amount) */\n      dup9\n      call\n      swap4\n      pop\n      pop\n      pop\n      pop\n        /* \"MSWAP/Games/Scratchers.sol\":14128:14170  require(payable(msg.sender).send(_amount)) */\n      tag_378\n      jumpi\n      0x00\n      dup1\n      revert\n    tag_378:\n        /* \"MSWAP/Games/Scratchers.sol\":13961:14178  function withdrawBNB(uint256 _amount) external onlyOwner {\r... */\n      pop\n      jump\t// out\n        /* \"MSWAP/Games/Scratchers.sol\":10829:10989  function setDevFee(uint256 newDevFee) external onlyOwner {\r... */\n    tag_103:\n        /* \"MSWAP/Games/Scratchers.sol\":4877:4890  _checkOwner() */\n      tag_380\n        /* \"MSWAP/Games/Scratchers.sol\":4877:4888  _checkOwner */\n      tag_292\n        /* \"MSWAP/Games/Scratchers.sol\":4877:4890  _checkOwner() */\n      jump\t// in\n    tag_380:\n        /* \"MSWAP/Games/Scratchers.sol\":10921:10925  2000 */\n      0x07d0\n        /* \"MSWAP/Games/Scratchers.sol\":10909:10918  newDevFee */\n      dup2\n        /* \"MSWAP/Games/Scratchers.sol\":10909:10925  newDevFee < 2000 */\n      lt\n        /* \"MSWAP/Games/Scratchers.sol\":10901:10944  require(newDevFee < 2000, \"Less than 2000\") */\n      tag_382\n      jumpi\n      mload(0x40)\n      shl(0xe5, 0x461bcd)\n      dup2\n      mstore\n        /* \"#utility.yul\":10715:10717   */\n      0x20\n        /* \"MSWAP/Games/Scratchers.sol\":10901:10944  require(newDevFee < 2000, \"Less than 2000\") */\n      0x04\n      dup3\n      add\n        /* \"#utility.yul\":10697:10718   */\n      mstore\n        /* \"#utility.yul\":10754:10756   */\n      0x0e\n        /* \"#utility.yul\":10734:10752   */\n      0x24\n      dup3\n      add\n        /* \"#utility.yul\":10727:10757   */\n      mstore\n      shl(0x94, 0x04c657373207468616e203230303)\n        /* \"#utility.yul\":10773:10791   */\n      0x44\n      dup3\n      add\n        /* \"#utility.yul\":10766:10810   */\n      mstore\n        /* \"#utility.yul\":10827:10845   */\n      0x64\n      add\n        /* \"MSWAP/Games/Scratchers.sol\":10901:10944  require(newDevFee < 2000, \"Less than 2000\") */\n      tag_300\n        /* \"#utility.yul\":10513:10851   */\n      jump\n        /* \"MSWAP/Games/Scratchers.sol\":10901:10944  require(newDevFee < 2000, \"Less than 2000\") */\n    tag_382:\n        /* \"MSWAP/Games/Scratchers.sol\":10959:10965  devFee */\n      0x07\n        /* \"MSWAP/Games/Scratchers.sol\":10959:10977  devFee = newDevFee */\n      sstore\n        /* \"MSWAP/Games/Scratchers.sol\":10829:10989  function setDevFee(uint256 newDevFee) external onlyOwner {\r... */\n      jump\t// out\n        /* \"MSWAP/Games/Scratchers.sol\":15957:16002  mapping(address => uint256[]) public freePlay */\n    tag_108:\n      mstore(0x20, 0x18)\n      dup2\n      0x00\n      mstore\n      keccak256(0x00, 0x40)\n      dup2\n      dup2\n      sload\n      dup2\n      lt\n      tag_385\n      jumpi\n      0x00\n      dup1\n      revert\n    tag_385:\n      swap1\n      0x00\n      mstore\n      keccak256(0x00, 0x20)\n      add\n      0x00\n      swap2\n      pop\n      swap2\n      pop\n      pop\n      sload\n      dup2\n      jump\t// out\n        /* \"MSWAP/Games/Scratchers.sol\":10999:11124  function setjackpotCost(uint256 newJackPotCost) external onlyOwner {\r... */\n    tag_113:\n        /* \"MSWAP/Games/Scratchers.sol\":4877:4890  _checkOwner() */\n      tag_388\n        /* \"MSWAP/Games/Scratchers.sol\":4877:4888  _checkOwner */\n      tag_292\n        /* \"MSWAP/Games/Scratchers.sol\":4877:4890  _checkOwner() */\n      jump\t// in\n    tag_388:\n        /* \"MSWAP/Games/Scratchers.sol\":11081:11095  jackPotCostBNB */\n      0x06\n        /* \"MSWAP/Games/Scratchers.sol\":11081:11112  jackPotCostBNB = newJackPotCost */\n      sstore\n        /* \"MSWAP/Games/Scratchers.sol\":10999:11124  function setjackpotCost(uint256 newJackPotCost) external onlyOwner {\r... */\n      jump\t// out\n        /* \"MSWAP/Games/Scratchers.sol\":14184:14340  function withdrawlToken(address _tokenAddress, uint256 _amount) external onlyOwner {\r... */\n    tag_117:\n        /* \"MSWAP/Games/Scratchers.sol\":4877:4890  _checkOwner() */\n      tag_391\n        /* \"MSWAP/Games/Scratchers.sol\":4877:4888  _checkOwner */\n      tag_292\n        /* \"MSWAP/Games/Scratchers.sol\":4877:4890  _checkOwner() */\n      jump\t// in\n    tag_391:\n        /* \"MSWAP/Games/Scratchers.sol\":14274:14334  IERC20(_tokenAddress).transfer(address(msg.sender), _amount) */\n      mload(0x40)\n      shl(0xe0, 0xa9059cbb)\n      dup2\n      mstore\n        /* \"MSWAP/Games/Scratchers.sol\":14313:14323  msg.sender */\n      caller\n        /* \"MSWAP/Games/Scratchers.sol\":14274:14334  IERC20(_tokenAddress).transfer(address(msg.sender), _amount) */\n      0x04\n      dup3\n      add\n        /* \"#utility.yul\":4500:4551   */\n      mstore\n        /* \"#utility.yul\":4567:4585   */\n      0x24\n      dup2\n      add\n        /* \"#utility.yul\":4560:4594   */\n      dup3\n      swap1\n      mstore\n      sub(shl(0xa0, 0x01), 0x01)\n        /* \"MSWAP/Games/Scratchers.sol\":14274:14304  IERC20(_tokenAddress).transfer */\n      dup4\n      and\n      swap1\n      0xa9059cbb\n      swap1\n        /* \"#utility.yul\":4473:4491   */\n      0x44\n      add\n        /* \"MSWAP/Games/Scratchers.sol\":14274:14334  IERC20(_tokenAddress).transfer(address(msg.sender), _amount) */\n      0x20\n      mload(0x40)\n      dup1\n      dup4\n      sub\n      dup2\n      0x00\n      dup8\n      dup1\n      extcodesize\n      iszero\n      dup1\n      iszero\n      tag_395\n      jumpi\n      0x00\n      dup1\n      revert\n    tag_395:\n      pop\n      gas\n      call\n      iszero\n      dup1\n      iszero\n      tag_397\n      jumpi\n      returndatasize\n      0x00\n      dup1\n      returndatacopy\n      revert(0x00, returndatasize)\n    tag_397:\n      pop\n      pop\n      pop\n      pop\n      mload(0x40)\n      returndatasize\n      not(0x1f)\n      0x1f\n      dup3\n      add\n      and\n      dup3\n      add\n      dup1\n      0x40\n      mstore\n      pop\n      dup2\n      add\n      swap1\n      tag_398\n      swap2\n      swap1\n      tag_399\n      jump\t// in\n    tag_398:\n      pop\n        /* \"MSWAP/Games/Scratchers.sol\":14184:14340  function withdrawlToken(address _tokenAddress, uint256 _amount) external onlyOwner {\r... */\n      pop\n      pop\n      jump\t// out\n        /* \"MSWAP/Games/Scratchers.sol\":12042:12151  function changeRouter(address _router) external onlyOwner {\r... */\n    tag_122:\n        /* \"MSWAP/Games/Scratchers.sol\":4877:4890  _checkOwner() */\n      tag_401\n        /* \"MSWAP/Games/Scratchers.sol\":4877:4888  _checkOwner */\n      tag_292\n        /* \"MSWAP/Games/Scratchers.sol\":4877:4890  _checkOwner() */\n      jump\t// in\n    tag_401:\n        /* \"MSWAP/Games/Scratchers.sol\":12115:12121  router */\n      0x02\n        /* \"MSWAP/Games/Scratchers.sol\":12115:12139  router = Router(_router) */\n      dup1\n      sload\n      not(sub(shl(0xa0, 0x01), 0x01))\n      and\n      sub(shl(0xa0, 0x01), 0x01)\n      swap3\n      swap1\n      swap3\n      and\n      swap2\n      swap1\n      swap2\n      or\n      swap1\n      sstore\n        /* \"MSWAP/Games/Scratchers.sol\":12042:12151  function changeRouter(address _router) external onlyOwner {\r... */\n      jump\t// out\n        /* \"MSWAP/Games/Scratchers.sol\":9322:9993  function info() external view returns (uint256 _minBet, uint256 _maxBet, uint256 _avlFunds,uint256 _sm, uint256 _jackPotCostBNB, uint256[] memory _chances, uint256 _totalChance, uint256[] memory _multipliers, uint256 _jackPot, uint256 _jackPotChance) {\r... */\n    tag_129:\n        /* \"MSWAP/Games/Scratchers.sol\":9361:9376  uint256 _minBet */\n      0x00\n        /* \"MSWAP/Games/Scratchers.sol\":9378:9393  uint256 _maxBet */\n      dup1\n        /* \"MSWAP/Games/Scratchers.sol\":9395:9412  uint256 _avlFunds */\n      0x00\n        /* \"MSWAP/Games/Scratchers.sol\":9413:9424  uint256 _sm */\n      dup1\n        /* \"MSWAP/Games/Scratchers.sol\":9426:9449  uint256 _jackPotCostBNB */\n      0x00\n        /* \"MSWAP/Games/Scratchers.sol\":9451:9476  uint256[] memory _chances */\n      0x60\n        /* \"MSWAP/Games/Scratchers.sol\":9478:9498  uint256 _totalChance */\n      0x00\n        /* \"MSWAP/Games/Scratchers.sol\":9500:9529  uint256[] memory _multipliers */\n      0x60\n        /* \"MSWAP/Games/Scratchers.sol\":9531:9547  uint256 _jackPot */\n      0x00\n        /* \"MSWAP/Games/Scratchers.sol\":9549:9571  uint256 _jackPotChance */\n      dup1\n        /* \"MSWAP/Games/Scratchers.sol\":9613:9617  odds */\n      0x0b\n        /* \"MSWAP/Games/Scratchers.sol\":9613:9624  odds.length */\n      dup1\n      sload\n      swap1\n      pop\n        /* \"MSWAP/Games/Scratchers.sol\":9599:9625  new uint256[](odds.length) */\n      0xffffffffffffffff\n      dup2\n      gt\n      iszero\n      tag_405\n      jumpi\n      tag_405\n      tag_406\n      jump\t// in\n    tag_405:\n      mload(0x40)\n      swap1\n      dup1\n      dup3\n      mstore\n      dup1\n      0x20\n      mul\n      0x20\n      add\n      dup3\n      add\n      0x40\n      mstore\n      dup1\n      iszero\n      tag_407\n      jumpi\n      dup2\n      0x20\n      add\n      0x20\n      dup3\n      mul\n      dup1\n      calldatasize\n      dup4\n      calldatacopy\n      add\n      swap1\n      pop\n    tag_407:\n      pop\n        /* \"MSWAP/Games/Scratchers.sol\":9651:9655  odds */\n      0x0b\n        /* \"MSWAP/Games/Scratchers.sol\":9640:9655  _chances = odds */\n      dup1\n      sload\n      0x40\n      dup1\n      mload\n      0x20\n      dup1\n      dup5\n      mul\n      dup3\n      add\n      dup2\n      add\n      swap1\n      swap3\n      mstore\n      dup3\n      dup2\n      mstore\n        /* \"MSWAP/Games/Scratchers.sol\":9588:9625  _chances = new uint256[](odds.length) */\n      swap4\n      swap9\n      pop\n        /* \"MSWAP/Games/Scratchers.sol\":9640:9655  _chances = odds */\n      dup4\n      add\n        /* \"MSWAP/Games/Scratchers.sol\":9651:9655  odds */\n      dup3\n        /* \"MSWAP/Games/Scratchers.sol\":9640:9655  _chances = odds */\n      dup3\n      dup1\n      iszero\n      tag_408\n      jumpi\n      0x20\n      mul\n      dup3\n      add\n      swap2\n      swap1\n      0x00\n      mstore\n      keccak256(0x00, 0x20)\n      swap1\n    tag_409:\n      dup2\n      sload\n      dup2\n      mstore\n      0x20\n      add\n      swap1\n      0x01\n      add\n      swap1\n      dup1\n      dup4\n      gt\n      tag_409\n      jumpi\n    tag_408:\n      pop\n      pop\n        /* \"MSWAP/Games/Scratchers.sol\":9699:9709  multiplier */\n      0x0a\n        /* \"MSWAP/Games/Scratchers.sol\":9699:9716  multiplier.length */\n      sload\n        /* \"MSWAP/Games/Scratchers.sol\":9640:9655  _chances = odds */\n      swap4\n      swap9\n      pop\n      pop\n      pop\n        /* \"MSWAP/Games/Scratchers.sol\":9685:9717  new uint256[](multiplier.length) */\n      0xffffffffffffffff\n      dup3\n      gt\n      iszero\n      swap1\n      pop\n      tag_411\n      jumpi\n      tag_411\n      tag_406\n      jump\t// in\n    tag_411:\n      mload(0x40)\n      swap1\n      dup1\n      dup3\n      mstore\n      dup1\n      0x20\n      mul\n      0x20\n      add\n      dup3\n      add\n      0x40\n      mstore\n      dup1\n      iszero\n      tag_412\n      jumpi\n      dup2\n      0x20\n      add\n      0x20\n      dup3\n      mul\n      dup1\n      calldatasize\n      dup4\n      calldatacopy\n      add\n      swap1\n      pop\n    tag_412:\n      pop\n        /* \"MSWAP/Games/Scratchers.sol\":9747:9757  multiplier */\n      0x0a\n        /* \"MSWAP/Games/Scratchers.sol\":9732:9757  _multipliers = multiplier */\n      dup1\n      sload\n      0x40\n      dup1\n      mload\n      0x20\n      dup1\n      dup5\n      mul\n      dup3\n      add\n      dup2\n      add\n      swap1\n      swap3\n      mstore\n      dup3\n      dup2\n      mstore\n        /* \"MSWAP/Games/Scratchers.sol\":9670:9717  _multipliers = new uint256[](multiplier.length) */\n      swap4\n      swap7\n      pop\n        /* \"MSWAP/Games/Scratchers.sol\":9732:9757  _multipliers = multiplier */\n      dup4\n      add\n        /* \"MSWAP/Games/Scratchers.sol\":9747:9757  multiplier */\n      dup3\n        /* \"MSWAP/Games/Scratchers.sol\":9732:9757  _multipliers = multiplier */\n      dup3\n      dup1\n      iszero\n      tag_413\n      jumpi\n      0x20\n      mul\n      dup3\n      add\n      swap2\n      swap1\n      0x00\n      mstore\n      keccak256(0x00, 0x20)\n      swap1\n    tag_414:\n      dup2\n      sload\n      dup2\n      mstore\n      0x20\n      add\n      swap1\n      0x01\n      add\n      swap1\n      dup1\n      dup4\n      gt\n      tag_414\n      jumpi\n    tag_413:\n      pop\n      pop\n      pop\n      pop\n      pop\n      swap3\n      pop\n        /* \"MSWAP/Games/Scratchers.sol\":9808:9815  jackPot */\n      sload(0x0e)\n        /* \"MSWAP/Games/Scratchers.sol\":9784:9805  address(this).balance */\n      selfbalance\n        /* \"MSWAP/Games/Scratchers.sol\":9784:9815  address(this).balance - jackPot */\n      tag_415\n      swap2\n      swap1\n      tag_305\n      jump\t// in\n    tag_415:\n        /* \"MSWAP/Games/Scratchers.sol\":9772:9815  _avlFunds = address(this).balance - jackPot */\n      swap8\n      pop\n        /* \"MSWAP/Games/Scratchers.sol\":9836:9852  safetyMultiplier */\n      sload(0x0d)\n        /* \"MSWAP/Games/Scratchers.sol\":9830:9852  _sm = safetyMultiplier */\n      swap7\n      pop\n        /* \"MSWAP/Games/Scratchers.sol\":9875:9881  minBet */\n      sload(0x04)\n        /* \"MSWAP/Games/Scratchers.sol\":9883:9889  maxBet */\n      sload(0x05)\n        /* \"MSWAP/Games/Scratchers.sol\":9891:9900  _avlFunds */\n      dup10\n        /* \"MSWAP/Games/Scratchers.sol\":9902:9905  _sm */\n      dup10\n        /* \"MSWAP/Games/Scratchers.sol\":9907:9921  jackPotCostBNB */\n      sload(0x06)\n        /* \"MSWAP/Games/Scratchers.sol\":9923:9931  _chances */\n      dup10\n        /* \"MSWAP/Games/Scratchers.sol\":9933:9942  chancePer */\n      sload(0x0c)\n        /* \"MSWAP/Games/Scratchers.sol\":9944:9956  _multipliers */\n      dup10\n        /* \"MSWAP/Games/Scratchers.sol\":9958:9965  jackPot */\n      sload(0x0e)\n        /* \"MSWAP/Games/Scratchers.sol\":9967:9980  jackPotChance */\n      sload(0x09)\n        /* \"MSWAP/Games/Scratchers.sol\":9867:9981  return (minBet, maxBet, _avlFunds, _sm, jackPotCostBNB, _chances, chancePer, _multipliers, jackPot, jackPotChance) */\n      swap10\n      pop\n      swap10\n      pop\n      swap10\n      pop\n      swap10\n      pop\n      swap10\n      pop\n      swap10\n      pop\n      swap10\n      pop\n      swap10\n      pop\n      swap10\n      pop\n      swap10\n      pop\n        /* \"MSWAP/Games/Scratchers.sol\":9322:9993  function info() external view returns (uint256 _minBet, uint256 _maxBet, uint256 _avlFunds,uint256 _sm, uint256 _jackPotCostBNB, uint256[] memory _chances, uint256 _totalChance, uint256[] memory _multipliers, uint256 _jackPot, uint256 _jackPotChance) {\r... */\n      swap1\n      swap2\n      swap3\n      swap4\n      swap5\n      swap6\n      swap7\n      swap8\n      swap9\n      swap10\n      jump\t// out\n        /* \"MSWAP/Games/Scratchers.sol\":13471:13564  function setRNG(address newRNG) external onlyOwner {\r... */\n    tag_135:\n        /* \"MSWAP/Games/Scratchers.sol\":4877:4890  _checkOwner() */\n      tag_417\n        /* \"MSWAP/Games/Scratchers.sol\":4877:4888  _checkOwner */\n      tag_292\n        /* \"MSWAP/Games/Scratchers.sol\":4877:4890  _checkOwner() */\n      jump\t// in\n    tag_417:\n        /* \"MSWAP/Games/Scratchers.sol\":13533:13539  random */\n      0x03\n        /* \"MSWAP/Games/Scratchers.sol\":13533:13556  random = Random(newRNG) */\n      dup1\n      sload\n      not(sub(shl(0xa0, 0x01), 0x01))\n      and\n      sub(shl(0xa0, 0x01), 0x01)\n      swap3\n      swap1\n      swap3\n      and\n      swap2\n      swap1\n      swap2\n      or\n      swap1\n      sstore\n        /* \"MSWAP/Games/Scratchers.sol\":13471:13564  function setRNG(address newRNG) external onlyOwner {\r... */\n      jump\t// out\n        /* \"MSWAP/Games/Scratchers.sol\":8231:8298  uint256[] public odds = [700, 100, 30, 100, 15, 30, 10, 7, 4, 3, 1] */\n    tag_145:\n      0x0b\n      dup2\n      dup2\n      sload\n      dup2\n      lt\n      tag_308\n      jumpi\n      0x00\n      dup1\n      revert\n        /* \"MSWAP/Games/Scratchers.sol\":10639:10819  function setJackPotFee(uint256 newjackPotFee) external onlyOwner {\r... */\n    tag_154:\n        /* \"MSWAP/Games/Scratchers.sol\":4877:4890  _checkOwner() */\n      tag_422\n        /* \"MSWAP/Games/Scratchers.sol\":4877:4888  _checkOwner */\n      tag_292\n        /* \"MSWAP/Games/Scratchers.sol\":4877:4890  _checkOwner() */\n      jump\t// in\n    tag_422:\n        /* \"MSWAP/Games/Scratchers.sol\":10743:10747  2000 */\n      0x07d0\n        /* \"MSWAP/Games/Scratchers.sol\":10727:10740  newjackPotFee */\n      dup2\n        /* \"MSWAP/Games/Scratchers.sol\":10727:10747  newjackPotFee < 2000 */\n      lt\n        /* \"MSWAP/Games/Scratchers.sol\":10719:10766  require(newjackPotFee < 2000, \"Less than 2000\") */\n      tag_424\n      jumpi\n      mload(0x40)\n      shl(0xe5, 0x461bcd)\n      dup2\n      mstore\n        /* \"#utility.yul\":10715:10717   */\n      0x20\n        /* \"MSWAP/Games/Scratchers.sol\":10719:10766  require(newjackPotFee < 2000, \"Less than 2000\") */\n      0x04\n      dup3\n      add\n        /* \"#utility.yul\":10697:10718   */\n      mstore\n        /* \"#utility.yul\":10754:10756   */\n      0x0e\n        /* \"#utility.yul\":10734:10752   */\n      0x24\n      dup3\n      add\n        /* \"#utility.yul\":10727:10757   */\n      mstore\n      shl(0x94, 0x04c657373207468616e203230303)\n        /* \"#utility.yul\":10773:10791   */\n      0x44\n      dup3\n      add\n        /* \"#utility.yul\":10766:10810   */\n      mstore\n        /* \"#utility.yul\":10827:10845   */\n      0x64\n      add\n        /* \"MSWAP/Games/Scratchers.sol\":10719:10766  require(newjackPotFee < 2000, \"Less than 2000\") */\n      tag_300\n        /* \"#utility.yul\":10513:10851   */\n      jump\n        /* \"MSWAP/Games/Scratchers.sol\":10719:10766  require(newjackPotFee < 2000, \"Less than 2000\") */\n    tag_424:\n        /* \"MSWAP/Games/Scratchers.sol\":10781:10791  jackPotFee */\n      0x08\n        /* \"MSWAP/Games/Scratchers.sol\":10781:10807  jackPotFee = newjackPotFee */\n      sstore\n        /* \"MSWAP/Games/Scratchers.sol\":10639:10819  function setJackPotFee(uint256 newjackPotFee) external onlyOwner {\r... */\n      jump\t// out\n        /* \"MSWAP/Games/Scratchers.sol\":13345:13439  function pauseGames(bool _isPaused) external onlyOwner {\r... */\n    tag_164:\n        /* \"MSWAP/Games/Scratchers.sol\":4877:4890  _checkOwner() */\n      tag_427\n        /* \"MSWAP/Games/Scratchers.sol\":4877:4888  _checkOwner */\n      tag_292\n        /* \"MSWAP/Games/Scratchers.sol\":4877:4890  _checkOwner() */\n      jump\t// in\n    tag_427:\n        /* \"MSWAP/Games/Scratchers.sol\":13411:13419  isPaused */\n      0x15\n        /* \"MSWAP/Games/Scratchers.sol\":13411:13431  isPaused = _isPaused */\n      dup1\n      sload\n      not(0xff)\n      and\n      swap2\n      iszero\n      iszero\n      swap2\n      swap1\n      swap2\n      or\n      swap1\n      sstore\n        /* \"MSWAP/Games/Scratchers.sol\":13345:13439  function pauseGames(bool _isPaused) external onlyOwner {\r... */\n      jump\t// out\n        /* \"MSWAP/Games/Scratchers.sol\":12907:13088  function rng(uint256 mod) public returns(uint256 value) {\r... */\n    tag_168:\n        /* \"MSWAP/Games/Scratchers.sol\":12948:12961  uint256 value */\n      0x00\n        /* \"MSWAP/Games/Scratchers.sol\":12974:12986  uint256 seed */\n      dup1\n        /* \"MSWAP/Games/Scratchers.sol\":12989:12995  random */\n      0x03\n      0x00\n      swap1\n      sload\n      swap1\n      0x0100\n      exp\n      swap1\n      div\n      sub(shl(0xa0, 0x01), 0x01)\n      and\n      sub(shl(0xa0, 0x01), 0x01)\n        /* \"MSWAP/Games/Scratchers.sol\":12989:13011  random.getRandomNumber */\n      and\n      0xdbdff2c1\n        /* \"MSWAP/Games/Scratchers.sol\":12989:13013  random.getRandomNumber() */\n      mload(0x40)\n      dup2\n      0xffffffff\n      and\n      0xe0\n      shl\n      dup2\n      mstore\n      0x04\n      add\n      0x20\n      mload(0x40)\n      dup1\n      dup4\n      sub\n      dup2\n      0x00\n      dup8\n      dup1\n      extcodesize\n      iszero\n      dup1\n      iszero\n      tag_430\n      jumpi\n      0x00\n      dup1\n      revert\n    tag_430:\n      pop\n      gas\n      call\n      iszero\n      dup1\n      iszero\n      tag_432\n      jumpi\n      returndatasize\n      0x00\n      dup1\n      returndatacopy\n      revert(0x00, returndatasize)\n    tag_432:\n      pop\n      pop\n      pop\n      pop\n      mload(0x40)\n      returndatasize\n      not(0x1f)\n      0x1f\n      dup3\n      add\n      and\n      dup3\n      add\n      dup1\n      0x40\n      mstore\n      pop\n      dup2\n      add\n      swap1\n      tag_433\n      swap2\n      swap1\n      tag_434\n      jump\t// in\n    tag_433:\n        /* \"MSWAP/Games/Scratchers.sol\":12974:13013  uint256 seed = random.getRandomNumber() */\n      swap1\n      pop\n        /* \"MSWAP/Games/Scratchers.sol\":13077:13080  mod */\n      dup3\n        /* \"MSWAP/Games/Scratchers.sol\":13067:13071  seed */\n      dup2\n        /* \"MSWAP/Games/Scratchers.sol\":13050:13072  abi.encodePacked(seed) */\n      add(0x20, mload(0x40))\n      tag_435\n      swap2\n        /* \"#utility.yul\":4052:4071   */\n      dup2\n      mstore\n        /* \"#utility.yul\":4096:4098   */\n      0x20\n        /* \"#utility.yul\":4087:4099   */\n      add\n      swap1\n        /* \"#utility.yul\":3923:4105   */\n      jump\n        /* \"MSWAP/Games/Scratchers.sol\":13050:13072  abi.encodePacked(seed) */\n    tag_435:\n      mload(0x40)\n      0x20\n      dup2\n      dup4\n      sub\n      sub\n      dup2\n      mstore\n      swap1\n      0x40\n      mstore\n        /* \"MSWAP/Games/Scratchers.sol\":13040:13073  keccak256(abi.encodePacked(seed)) */\n      dup1\n      mload\n      swap1\n      0x20\n      add\n      keccak256\n        /* \"MSWAP/Games/Scratchers.sol\":13032:13074  uint256(keccak256(abi.encodePacked(seed))) */\n      0x00\n      shr\n        /* \"MSWAP/Games/Scratchers.sol\":13032:13080  uint256(keccak256(abi.encodePacked(seed))) % mod */\n      tag_437\n      swap2\n      swap1\n      tag_355\n      jump\t// in\n    tag_437:\n        /* \"MSWAP/Games/Scratchers.sol\":13024:13080  value = uint256(keccak256(abi.encodePacked(seed))) % mod */\n      swap4\n        /* \"MSWAP/Games/Scratchers.sol\":12907:13088  function rng(uint256 mod) public returns(uint256 value) {\r... */\n      swap3\n      pop\n      pop\n      pop\n      jump\t// out\n        /* \"MSWAP/Games/Scratchers.sol\":11522:12030  function setupPerThousand(uint256[] memory _multiplier, uint256[] memory _odds ) external onlyOwner {\r... */\n    tag_174:\n        /* \"MSWAP/Games/Scratchers.sol\":4877:4890  _checkOwner() */\n      tag_439\n        /* \"MSWAP/Games/Scratchers.sol\":4877:4888  _checkOwner */\n      tag_292\n        /* \"MSWAP/Games/Scratchers.sol\":4877:4890  _checkOwner() */\n      jump\t// in\n    tag_439:\n        /* \"MSWAP/Games/Scratchers.sol\":11637:11650  uint256 total */\n      0x00\n        /* \"MSWAP/Games/Scratchers.sol\":11680:11681  1 */\n      0x01\n        /* \"MSWAP/Games/Scratchers.sol\":11669:11814  for(uint j=1; j < _multiplier.length; j++) {\r... */\n    tag_441:\n        /* \"MSWAP/Games/Scratchers.sol\":11687:11698  _multiplier */\n      dup4\n        /* \"MSWAP/Games/Scratchers.sol\":11687:11705  _multiplier.length */\n      mload\n        /* \"MSWAP/Games/Scratchers.sol\":11683:11684  j */\n      dup2\n        /* \"MSWAP/Games/Scratchers.sol\":11683:11705  j < _multiplier.length */\n      lt\n        /* \"MSWAP/Games/Scratchers.sol\":11669:11814  for(uint j=1; j < _multiplier.length; j++) {\r... */\n      iszero\n      tag_442\n      jumpi\n        /* \"MSWAP/Games/Scratchers.sol\":11756:11767  _multiplier */\n      dup4\n        /* \"MSWAP/Games/Scratchers.sol\":11768:11771  j-1 */\n      tag_444\n        /* \"MSWAP/Games/Scratchers.sol\":11770:11771  1 */\n      0x01\n        /* \"MSWAP/Games/Scratchers.sol\":11768:11769  j */\n      dup4\n        /* \"MSWAP/Games/Scratchers.sol\":11768:11771  j-1 */\n      tag_305\n      jump\t// in\n    tag_444:\n        /* \"MSWAP/Games/Scratchers.sol\":11756:11772  _multiplier[j-1] */\n      dup2\n      mload\n      dup2\n      lt\n      tag_446\n      jumpi\n      tag_446\n      tag_363\n      jump\t// in\n    tag_446:\n      0x20\n      mul\n      0x20\n      add\n      add\n      mload\n        /* \"MSWAP/Games/Scratchers.sol\":11739:11750  _multiplier */\n      dup5\n        /* \"MSWAP/Games/Scratchers.sol\":11751:11752  j */\n      dup3\n        /* \"MSWAP/Games/Scratchers.sol\":11739:11753  _multiplier[j] */\n      dup2\n      mload\n      dup2\n      lt\n      tag_448\n      jumpi\n      tag_448\n      tag_363\n      jump\t// in\n    tag_448:\n      0x20\n      mul\n      0x20\n      add\n      add\n      mload\n        /* \"MSWAP/Games/Scratchers.sol\":11739:11772  _multiplier[j] > _multiplier[j-1] */\n      gt\n        /* \"MSWAP/Games/Scratchers.sol\":11731:11798  require(_multiplier[j] > _multiplier[j-1], \"add lowest to highest\") */\n      tag_449\n      jumpi\n      mload(0x40)\n      shl(0xe5, 0x461bcd)\n      dup2\n      mstore\n        /* \"#utility.yul\":9685:9687   */\n      0x20\n        /* \"MSWAP/Games/Scratchers.sol\":11731:11798  require(_multiplier[j] > _multiplier[j-1], \"add lowest to highest\") */\n      0x04\n      dup3\n      add\n        /* \"#utility.yul\":9667:9688   */\n      mstore\n        /* \"#utility.yul\":9724:9726   */\n      0x15\n        /* \"#utility.yul\":9704:9722   */\n      0x24\n      dup3\n      add\n        /* \"#utility.yul\":9697:9727   */\n      mstore\n      shl(0x5a, 0x185919081b1bddd95cdd081d1bc81a1a59da195cdd)\n        /* \"#utility.yul\":9743:9761   */\n      0x44\n      dup3\n      add\n        /* \"#utility.yul\":9736:9787   */\n      mstore\n        /* \"#utility.yul\":9804:9822   */\n      0x64\n      add\n        /* \"MSWAP/Games/Scratchers.sol\":11731:11798  require(_multiplier[j] > _multiplier[j-1], \"add lowest to highest\") */\n      tag_300\n        /* \"#utility.yul\":9483:9828   */\n      jump\n        /* \"MSWAP/Games/Scratchers.sol\":11731:11798  require(_multiplier[j] > _multiplier[j-1], \"add lowest to highest\") */\n    tag_449:\n        /* \"MSWAP/Games/Scratchers.sol\":11707:11710  j++ */\n      dup1\n      tag_452\n      dup2\n      tag_453\n      jump\t// in\n    tag_452:\n      swap2\n      pop\n      pop\n        /* \"MSWAP/Games/Scratchers.sol\":11669:11814  for(uint j=1; j < _multiplier.length; j++) {\r... */\n      jump(tag_441)\n    tag_442:\n      pop\n        /* \"MSWAP/Games/Scratchers.sol\":11832:11838  uint i */\n      0x00\n        /* \"MSWAP/Games/Scratchers.sol\":11828:11917  for(uint i=0; i < _odds.length; i++) {\r... */\n    tag_454:\n        /* \"MSWAP/Games/Scratchers.sol\":11846:11851  _odds */\n      dup3\n        /* \"MSWAP/Games/Scratchers.sol\":11846:11858  _odds.length */\n      mload\n        /* \"MSWAP/Games/Scratchers.sol\":11842:11843  i */\n      dup2\n        /* \"MSWAP/Games/Scratchers.sol\":11842:11858  i < _odds.length */\n      lt\n        /* \"MSWAP/Games/Scratchers.sol\":11828:11917  for(uint i=0; i < _odds.length; i++) {\r... */\n      iszero\n      tag_455\n      jumpi\n        /* \"MSWAP/Games/Scratchers.sol\":11893:11898  _odds */\n      dup3\n        /* \"MSWAP/Games/Scratchers.sol\":11899:11900  i */\n      dup2\n        /* \"MSWAP/Games/Scratchers.sol\":11893:11901  _odds[i] */\n      dup2\n      mload\n      dup2\n      lt\n      tag_458\n      jumpi\n      tag_458\n      tag_363\n      jump\t// in\n    tag_458:\n      0x20\n      mul\n      0x20\n      add\n      add\n      mload\n        /* \"MSWAP/Games/Scratchers.sol\":11884:11901  total += _odds[i] */\n      dup3\n      tag_459\n      swap2\n      swap1\n      tag_334\n      jump\t// in\n    tag_459:\n      swap2\n      pop\n        /* \"MSWAP/Games/Scratchers.sol\":11860:11863  i++ */\n      dup1\n      tag_460\n      dup2\n      tag_453\n      jump\t// in\n    tag_460:\n      swap2\n      pop\n      pop\n        /* \"MSWAP/Games/Scratchers.sol\":11828:11917  for(uint i=0; i < _odds.length; i++) {\r... */\n      jump(tag_454)\n    tag_455:\n      pop\n        /* \"MSWAP/Games/Scratchers.sol\":11933:11957  multiplier = _multiplier */\n      dup3\n      mload\n      tag_461\n      swap1\n        /* \"MSWAP/Games/Scratchers.sol\":11933:11943  multiplier */\n      0x0a\n      swap1\n        /* \"MSWAP/Games/Scratchers.sol\":11933:11957  multiplier = _multiplier */\n      0x20\n      dup7\n      add\n      swap1\n      tag_462\n      jump\t// in\n    tag_461:\n      pop\n        /* \"MSWAP/Games/Scratchers.sol\":11972:11981  chancePer */\n      0x0c\n        /* \"MSWAP/Games/Scratchers.sol\":11972:11989  chancePer = total */\n      dup2\n      swap1\n      sstore\n        /* \"MSWAP/Games/Scratchers.sol\":12004:12016  odds = _odds */\n      dup2\n      mload\n      tag_463\n      swap1\n        /* \"MSWAP/Games/Scratchers.sol\":12004:12008  odds */\n      0x0b\n      swap1\n        /* \"MSWAP/Games/Scratchers.sol\":12004:12016  odds = _odds */\n      0x20\n      dup6\n      add\n      swap1\n      tag_462\n      jump\t// in\n    tag_463:\n      pop\n        /* \"MSWAP/Games/Scratchers.sol\":11622:12030  {\r... */\n      pop\n        /* \"MSWAP/Games/Scratchers.sol\":11522:12030  function setupPerThousand(uint256[] memory _multiplier, uint256[] memory _odds ) external onlyOwner {\r... */\n      pop\n      pop\n      jump\t// out\n        /* \"MSWAP/Games/Scratchers.sol\":8608:8635  address [] public blackList */\n    tag_182:\n      0x12\n      dup2\n      dup2\n      sload\n      dup2\n      lt\n      tag_306\n      jumpi\n      0x00\n      dup1\n      revert\n        /* \"MSWAP/Games/Scratchers.sol\":5639:5742  function renounceOwnership() public virtual onlyOwner {\r... */\n    tag_186:\n        /* \"MSWAP/Games/Scratchers.sol\":4877:4890  _checkOwner() */\n      tag_467\n        /* \"MSWAP/Games/Scratchers.sol\":4877:4888  _checkOwner */\n      tag_292\n        /* \"MSWAP/Games/Scratchers.sol\":4877:4890  _checkOwner() */\n      jump\t// in\n    tag_467:\n        /* \"MSWAP/Games/Scratchers.sol\":5704:5734  _transferOwnership(address(0)) */\n      tag_469\n        /* \"MSWAP/Games/Scratchers.sol\":5731:5732  0 */\n      0x00\n        /* \"MSWAP/Games/Scratchers.sol\":5704:5722  _transferOwnership */\n      tag_470\n        /* \"MSWAP/Games/Scratchers.sol\":5704:5734  _transferOwnership(address(0)) */\n      jump\t// in\n    tag_469:\n        /* \"MSWAP/Games/Scratchers.sol\":5639:5742  function renounceOwnership() public virtual onlyOwner {\r... */\n      jump\t// out\n        /* \"MSWAP/Games/Scratchers.sol\":13824:13957  function withdrawALL_BNB() external onlyOwner {\r... */\n    tag_189:\n        /* \"MSWAP/Games/Scratchers.sol\":4877:4890  _checkOwner() */\n      tag_472\n        /* \"MSWAP/Games/Scratchers.sol\":4877:4888  _checkOwner */\n      tag_292\n        /* \"MSWAP/Games/Scratchers.sol\":4877:4890  _checkOwner() */\n      jump\t// in\n    tag_472:\n        /* \"MSWAP/Games/Scratchers.sol\":13885:13932  payable(msg.sender).send(address(this).balance) */\n      mload(0x40)\n        /* \"MSWAP/Games/Scratchers.sol\":13893:13903  msg.sender */\n      caller\n      swap1\n        /* \"MSWAP/Games/Scratchers.sol\":13910:13931  address(this).balance */\n      selfbalance\n        /* \"MSWAP/Games/Scratchers.sol\":13885:13932  payable(msg.sender).send(address(this).balance) */\n      dup1\n      iszero\n      0x08fc\n      mul\n      swap2\n      0x00\n      dup2\n      dup2\n      dup2\n        /* \"MSWAP/Games/Scratchers.sol\":13910:13931  address(this).balance */\n      dup6\n        /* \"MSWAP/Games/Scratchers.sol\":13893:13903  msg.sender */\n      dup9\n        /* \"MSWAP/Games/Scratchers.sol\":13885:13932  payable(msg.sender).send(address(this).balance) */\n      dup9\n      call\n      swap4\n      pop\n      pop\n      pop\n      pop\n        /* \"MSWAP/Games/Scratchers.sol\":13877:13933  require(payable(msg.sender).send(address(this).balance)) */\n      tag_475\n      jumpi\n      0x00\n      dup1\n      revert\n    tag_475:\n        /* \"MSWAP/Games/Scratchers.sol\":13950:13951  0 */\n      0x00\n        /* \"MSWAP/Games/Scratchers.sol\":13940:13947  jackPot */\n      0x0e\n        /* \"MSWAP/Games/Scratchers.sol\":13940:13951  jackPot = 0 */\n      sstore\n        /* \"MSWAP/Games/Scratchers.sol\":13824:13957  function withdrawALL_BNB() external onlyOwner {\r... */\n      jump\t// out\n        /* \"MSWAP/Games/Scratchers.sol\":16873:17518  function viewJackPotHistory(uint256 timeToCheckTo) external view returns (HistoryJ[] memory jHistory) {\r... */\n    tag_201:\n        /* \"MSWAP/Games/Scratchers.sol\":16947:16973  HistoryJ[] memory jHistory */\n      0x60\n        /* \"MSWAP/Games/Scratchers.sol\":17026:17041  uint256 howMany */\n      0x00\n        /* \"MSWAP/Games/Scratchers.sol\":17060:17066  uint i */\n      dup1\n        /* \"MSWAP/Games/Scratchers.sol\":17056:17172  for(uint i=0; i <= ticketNumber; i++) {\r... */\n    tag_478:\n        /* \"MSWAP/Games/Scratchers.sol\":17075:17087  ticketNumber */\n      sload(0x0f)\n        /* \"MSWAP/Games/Scratchers.sol\":17070:17071  i */\n      dup2\n        /* \"MSWAP/Games/Scratchers.sol\":17070:17087  i <= ticketNumber */\n      gt\n        /* \"MSWAP/Games/Scratchers.sol\":17056:17172  for(uint i=0; i <= ticketNumber; i++) {\r... */\n      tag_479\n      jumpi\n        /* \"MSWAP/Games/Scratchers.sol\":17111:17128  scratchHistory[i] */\n      0x00\n      dup2\n      dup2\n      mstore\n        /* \"MSWAP/Games/Scratchers.sol\":17111:17125  scratchHistory */\n      0x16\n        /* \"MSWAP/Games/Scratchers.sol\":17111:17128  scratchHistory[i] */\n      0x20\n      mstore\n      0x40\n      swap1\n      keccak256\n        /* \"MSWAP/Games/Scratchers.sol\":17111:17133  scratchHistory[i].time */\n      sload\n        /* \"MSWAP/Games/Scratchers.sol\":17111:17149  scratchHistory[i].time > timeToCheckTo */\n      dup5\n      lt\n        /* \"MSWAP/Games/Scratchers.sol\":17108:17160  if(scratchHistory[i].time > timeToCheckTo) howMany++ */\n      iszero\n      tag_481\n      jumpi\n        /* \"MSWAP/Games/Scratchers.sol\":17151:17160  howMany++ */\n      dup2\n      tag_482\n      dup2\n      tag_453\n      jump\t// in\n    tag_482:\n      swap3\n      pop\n      pop\n        /* \"MSWAP/Games/Scratchers.sol\":17108:17160  if(scratchHistory[i].time > timeToCheckTo) howMany++ */\n    tag_481:\n        /* \"MSWAP/Games/Scratchers.sol\":17089:17092  i++ */\n      dup1\n      tag_483\n      dup2\n      tag_453\n      jump\t// in\n    tag_483:\n      swap2\n      pop\n      pop\n        /* \"MSWAP/Games/Scratchers.sol\":17056:17172  for(uint i=0; i <= ticketNumber; i++) {\r... */\n      jump(tag_478)\n    tag_479:\n      pop\n        /* \"MSWAP/Games/Scratchers.sol\":17182:17208  uint256 ticketNumberToGoto */\n      0x00\n        /* \"MSWAP/Games/Scratchers.sol\":17232:17239  howMany */\n      dup2\n        /* \"MSWAP/Games/Scratchers.sol\":17212:17224  ticketNumber */\n      sload(0x0f)\n        /* \"MSWAP/Games/Scratchers.sol\":17227:17228  1 */\n      0x01\n        /* \"MSWAP/Games/Scratchers.sol\":17212:17228  ticketNumber + 1 */\n      tag_484\n      swap2\n      swap1\n      tag_334\n      jump\t// in\n    tag_484:\n        /* \"MSWAP/Games/Scratchers.sol\":17211:17239  (ticketNumber + 1) - howMany */\n      tag_485\n      swap2\n      swap1\n      tag_305\n      jump\t// in\n    tag_485:\n        /* \"MSWAP/Games/Scratchers.sol\":17182:17239  uint256 ticketNumberToGoto = (ticketNumber + 1) - howMany */\n      swap1\n      pop\n        /* \"MSWAP/Games/Scratchers.sol\":17250:17263  uint256 index */\n      0x00\n        /* \"MSWAP/Games/Scratchers.sol\":17278:17306  HistoryJ[] memory tmpHistory */\n      dup1\n        /* \"MSWAP/Games/Scratchers.sol\":17324:17331  howMany */\n      dup4\n        /* \"MSWAP/Games/Scratchers.sol\":17309:17332  new HistoryJ[](howMany) */\n      0xffffffffffffffff\n      dup2\n      gt\n      iszero\n      tag_487\n      jumpi\n      tag_487\n      tag_406\n      jump\t// in\n    tag_487:\n      mload(0x40)\n      swap1\n      dup1\n      dup3\n      mstore\n      dup1\n      0x20\n      mul\n      0x20\n      add\n      dup3\n      add\n      0x40\n      mstore\n      dup1\n      iszero\n      tag_488\n      jumpi\n      dup2\n      0x20\n      add\n    tag_489:\n      tag_490\n      mload(0x40)\n      dup1\n      0xc0\n      add\n      0x40\n      mstore\n      dup1\n      0x00\n      dup2\n      mstore\n      0x20\n      add\n      0x00\n      dup2\n      mstore\n      0x20\n      add\n      and(sub(shl(0xa0, 0x01), 0x01), 0x00)\n      dup2\n      mstore\n      0x20\n      add\n      0x00\n      dup2\n      mstore\n      0x20\n      add\n      iszero(iszero(0x00))\n      dup2\n      mstore\n      0x20\n      add\n      0x00\n      dup2\n      mstore\n      pop\n      swap1\n      jump\n    tag_490:\n      dup2\n      mstore\n      0x20\n      add\n      swap1\n      0x01\n      swap1\n      sub\n      swap1\n      dup2\n      tag_489\n      jumpi\n      swap1\n      pop\n    tag_488:\n      pop\n        /* \"MSWAP/Games/Scratchers.sol\":17278:17332  HistoryJ[] memory tmpHistory = new HistoryJ[](howMany) */\n      swap1\n      pop\n        /* \"MSWAP/Games/Scratchers.sol\":17354:17372  ticketNumberToGoto */\n      dup3\n        /* \"MSWAP/Games/Scratchers.sol\":17343:17484  for(uint j=ticketNumberToGoto; j <= ticketNumber; j++) {\r... */\n    tag_492:\n        /* \"MSWAP/Games/Scratchers.sol\":17379:17391  ticketNumber */\n      sload(0x0f)\n        /* \"MSWAP/Games/Scratchers.sol\":17374:17375  j */\n      dup2\n        /* \"MSWAP/Games/Scratchers.sol\":17374:17391  j <= ticketNumber */\n      gt\n        /* \"MSWAP/Games/Scratchers.sol\":17343:17484  for(uint j=ticketNumberToGoto; j <= ticketNumber; j++) {\r... */\n      tag_493\n      jumpi\n        /* \"MSWAP/Games/Scratchers.sol\":17433:17450  jackPotHistory[j] */\n      0x00\n      dup2\n      dup2\n      mstore\n        /* \"MSWAP/Games/Scratchers.sol\":17433:17447  jackPotHistory */\n      0x17\n        /* \"MSWAP/Games/Scratchers.sol\":17433:17450  jackPotHistory[j] */\n      0x20\n      swap1\n      dup2\n      mstore\n      0x40\n      swap2\n      dup3\n      swap1\n      keccak256\n        /* \"MSWAP/Games/Scratchers.sol\":17413:17450  tmpHistory[index] = jackPotHistory[j] */\n      dup3\n      mload\n      0xc0\n      dup2\n      add\n      dup5\n      mstore\n      dup2\n      sload\n      dup2\n      mstore\n      0x01\n      dup3\n      add\n      sload\n      swap3\n      dup2\n      add\n      swap3\n      swap1\n      swap3\n      mstore\n      0x02\n      dup2\n      add\n      sload\n      sub(shl(0xa0, 0x01), 0x01)\n      and\n      swap3\n      dup3\n      add\n      swap3\n      swap1\n      swap3\n      mstore\n      0x03\n      dup3\n      add\n      sload\n      0x60\n      dup3\n      add\n      mstore\n      0x04\n      dup3\n      add\n      sload\n      0xff\n      and\n      iszero\n      iszero\n      0x80\n      dup3\n      add\n      mstore\n      0x05\n      swap1\n      swap2\n      add\n      sload\n      0xa0\n      dup3\n      add\n      mstore\n        /* \"MSWAP/Games/Scratchers.sol\":17413:17430  tmpHistory[index] */\n      dup3\n      mload\n        /* \"MSWAP/Games/Scratchers.sol\":17413:17423  tmpHistory */\n      dup4\n      swap1\n        /* \"MSWAP/Games/Scratchers.sol\":17424:17429  index */\n      dup6\n      swap1\n        /* \"MSWAP/Games/Scratchers.sol\":17413:17430  tmpHistory[index] */\n      dup2\n      lt\n      tag_496\n      jumpi\n      tag_496\n      tag_363\n      jump\t// in\n    tag_496:\n      0x20\n      mul\n      0x20\n      add\n      add\n        /* \"MSWAP/Games/Scratchers.sol\":17413:17450  tmpHistory[index] = jackPotHistory[j] */\n      dup2\n      swap1\n      mstore\n      pop\n        /* \"MSWAP/Games/Scratchers.sol\":17465:17472  index++ */\n      dup3\n      dup1\n      tag_497\n      swap1\n      tag_453\n      jump\t// in\n    tag_497:\n      swap4\n      pop\n      pop\n        /* \"MSWAP/Games/Scratchers.sol\":17393:17396  j++ */\n      dup1\n      dup1\n      tag_498\n      swap1\n      tag_453\n      jump\t// in\n    tag_498:\n      swap2\n      pop\n      pop\n        /* \"MSWAP/Games/Scratchers.sol\":17343:17484  for(uint j=ticketNumberToGoto; j <= ticketNumber; j++) {\r... */\n      jump(tag_492)\n    tag_493:\n      pop\n        /* \"MSWAP/Games/Scratchers.sol\":17501:17511  tmpHistory */\n      swap6\n        /* \"MSWAP/Games/Scratchers.sol\":16873:17518  function viewJackPotHistory(uint256 timeToCheckTo) external view returns (HistoryJ[] memory jHistory) {\r... */\n      swap5\n      pop\n      pop\n      pop\n      pop\n      pop\n      jump\t// out\n        /* \"MSWAP/Games/Scratchers.sol\":10499:10629  function setJackPotChance(uint256 newJackPotChance) external onlyOwner {\r... */\n    tag_217:\n        /* \"MSWAP/Games/Scratchers.sol\":4877:4890  _checkOwner() */\n      tag_500\n        /* \"MSWAP/Games/Scratchers.sol\":4877:4888  _checkOwner */\n      tag_292\n        /* \"MSWAP/Games/Scratchers.sol\":4877:4890  _checkOwner() */\n      jump\t// in\n    tag_500:\n        /* \"MSWAP/Games/Scratchers.sol\":10585:10598  jackPotChance */\n      0x09\n        /* \"MSWAP/Games/Scratchers.sol\":10585:10617  jackPotChance = newJackPotChance */\n      sstore\n        /* \"MSWAP/Games/Scratchers.sol\":10499:10629  function setJackPotChance(uint256 newJackPotChance) external onlyOwner {\r... */\n      jump\t// out\n        /* \"MSWAP/Games/Scratchers.sol\":12260:12467  function addPayToken(address _payToken) public onlyOwner {\r... */\n    tag_221:\n        /* \"MSWAP/Games/Scratchers.sol\":4877:4890  _checkOwner() */\n      tag_503\n        /* \"MSWAP/Games/Scratchers.sol\":4877:4888  _checkOwner */\n      tag_292\n        /* \"MSWAP/Games/Scratchers.sol\":4877:4890  _checkOwner() */\n      jump\t// in\n    tag_503:\n      sub(shl(0xa0, 0x01), 0x01)\n        /* \"MSWAP/Games/Scratchers.sol\":12338:12359  isPayToken[_payToken] */\n      dup2\n      and\n      0x00\n      swap1\n      dup2\n      mstore\n        /* \"MSWAP/Games/Scratchers.sol\":12338:12348  isPayToken */\n      0x14\n        /* \"MSWAP/Games/Scratchers.sol\":12338:12359  isPayToken[_payToken] */\n      0x20\n      mstore\n      0x40\n      swap1\n      keccak256\n      sload\n      0xff\n      and\n        /* \"MSWAP/Games/Scratchers.sol\":12337:12359  !isPayToken[_payToken] */\n      iszero\n        /* \"MSWAP/Games/Scratchers.sol\":12329:12381  require(!isPayToken[_payToken],\"Already a PayToken\") */\n      tag_505\n      jumpi\n      mload(0x40)\n      shl(0xe5, 0x461bcd)\n      dup2\n      mstore\n        /* \"#utility.yul\":8596:8598   */\n      0x20\n        /* \"MSWAP/Games/Scratchers.sol\":12329:12381  require(!isPayToken[_payToken],\"Already a PayToken\") */\n      0x04\n      dup3\n      add\n        /* \"#utility.yul\":8578:8599   */\n      mstore\n        /* \"#utility.yul\":8635:8637   */\n      0x12\n        /* \"#utility.yul\":8615:8633   */\n      0x24\n      dup3\n      add\n        /* \"#utility.yul\":8608:8638   */\n      mstore\n      shl(0x71, 0x20b63932b0b23c9030902830bcaa37b5b2b7)\n        /* \"#utility.yul\":8654:8672   */\n      0x44\n      dup3\n      add\n        /* \"#utility.yul\":8647:8695   */\n      mstore\n        /* \"#utility.yul\":8712:8730   */\n      0x64\n      add\n        /* \"MSWAP/Games/Scratchers.sol\":12329:12381  require(!isPayToken[_payToken],\"Already a PayToken\") */\n      tag_300\n        /* \"#utility.yul\":8394:8736   */\n      jump\n        /* \"MSWAP/Games/Scratchers.sol\":12329:12381  require(!isPayToken[_payToken],\"Already a PayToken\") */\n    tag_505:\n        /* \"MSWAP/Games/Scratchers.sol\":12393:12402  payTokens */\n      0x13\n        /* \"MSWAP/Games/Scratchers.sol\":12393:12418  payTokens.push(_payToken) */\n      dup1\n      sload\n      0x01\n      dup2\n      dup2\n      add\n      swap1\n      swap3\n      sstore\n      0x66de8ffda797e3de9c05e8fc57b3bf0ec28a930d40b0d285d93c06501cf6a090\n      add\n      dup1\n      sload\n      sub(shl(0xa0, 0x01), 0x01)\n      swap1\n      swap4\n      and\n      not(sub(shl(0xa0, 0x01), 0x01))\n      swap1\n      swap4\n      and\n      dup4\n      or\n      swap1\n      sstore\n      0x00\n        /* \"MSWAP/Games/Scratchers.sol\":12430:12451  isPayToken[_payToken] */\n      swap2\n      dup3\n      mstore\n        /* \"MSWAP/Games/Scratchers.sol\":12430:12440  isPayToken */\n      0x14\n        /* \"MSWAP/Games/Scratchers.sol\":12393:12418  payTokens.push(_payToken) */\n      0x20\n        /* \"MSWAP/Games/Scratchers.sol\":12430:12451  isPayToken[_payToken] */\n      mstore\n      0x40\n      swap1\n      swap2\n      keccak256\n        /* \"MSWAP/Games/Scratchers.sol\":12430:12458  isPayToken[_payToken] = true */\n      dup1\n      sload\n      not(0xff)\n      and\n      swap1\n      swap2\n      or\n      swap1\n      sstore\n        /* \"MSWAP/Games/Scratchers.sol\":12260:12467  function addPayToken(address _payToken) public onlyOwner {\r... */\n      jump\t// out\n        /* \"MSWAP/Games/Scratchers.sol\":16060:16203  function addFreePlay(address _user, uint256 bet) external onlyOwner {\r... */\n    tag_225:\n        /* \"MSWAP/Games/Scratchers.sol\":4877:4890  _checkOwner() */\n      tag_510\n        /* \"MSWAP/Games/Scratchers.sol\":4877:4888  _checkOwner */\n      tag_292\n        /* \"MSWAP/Games/Scratchers.sol\":4877:4890  _checkOwner() */\n      jump\t// in\n    tag_510:\n      sub(shl(0xa0, 0x01), 0x01)\n        /* \"MSWAP/Games/Scratchers.sol\":16139:16154  freePlay[_user] */\n      dup3\n      and\n      0x00\n      dup2\n      dup2\n      mstore\n        /* \"MSWAP/Games/Scratchers.sol\":16139:16147  freePlay */\n      0x18\n        /* \"MSWAP/Games/Scratchers.sol\":16139:16154  freePlay[_user] */\n      0x20\n      swap1\n      dup2\n      mstore\n      0x40\n      dup1\n      dup4\n      keccak256\n        /* \"MSWAP/Games/Scratchers.sol\":16139:16164  freePlay[_user].push(bet) */\n      dup1\n      sload\n      0x01\n      dup2\n      dup2\n      add\n      dup4\n      sstore\n      swap2\n      dup6\n      mstore\n      dup4\n      dup6\n      keccak256\n      add\n      dup7\n      swap1\n      sstore\n        /* \"MSWAP/Games/Scratchers.sol\":16175:16191  howManyFP[_user] */\n      swap4\n      dup4\n      mstore\n        /* \"MSWAP/Games/Scratchers.sol\":16175:16184  howManyFP */\n      0x19\n        /* \"MSWAP/Games/Scratchers.sol\":16175:16191  howManyFP[_user] */\n      swap1\n      swap2\n      mstore\n      dup2\n      keccak256\n        /* \"MSWAP/Games/Scratchers.sol\":16175:16196  howManyFP[_user] += 1 */\n      dup1\n      sload\n        /* \"MSWAP/Games/Scratchers.sol\":16175:16191  howManyFP[_user] */\n      swap1\n      swap2\n        /* \"MSWAP/Games/Scratchers.sol\":16139:16154  freePlay[_user] */\n      swap1\n        /* \"MSWAP/Games/Scratchers.sol\":16175:16196  howManyFP[_user] += 1 */\n      tag_304\n      swap1\n        /* \"MSWAP/Games/Scratchers.sol\":16139:16164  freePlay[_user].push(bet) */\n      dup5\n      swap1\n        /* \"MSWAP/Games/Scratchers.sol\":16175:16196  howManyFP[_user] += 1 */\n      tag_334\n      jump\t// in\n        /* \"MSWAP/Games/Scratchers.sol\":16212:16866  function viewScratcherHistory(uint256 timeToCheckTo) external view returns (History[] memory sHistory) {\r... */\n    tag_258:\n        /* \"MSWAP/Games/Scratchers.sol\":16288:16313  History[] memory sHistory */\n      0x60\n        /* \"MSWAP/Games/Scratchers.sol\":16374:16389  uint256 howMany */\n      0x00\n        /* \"MSWAP/Games/Scratchers.sol\":16408:16414  uint i */\n      dup1\n        /* \"MSWAP/Games/Scratchers.sol\":16404:16520  for(uint i=0; i <= ticketNumber; i++) {\r... */\n    tag_518:\n        /* \"MSWAP/Games/Scratchers.sol\":16423:16435  ticketNumber */\n      sload(0x0f)\n        /* \"MSWAP/Games/Scratchers.sol\":16418:16419  i */\n      dup2\n        /* \"MSWAP/Games/Scratchers.sol\":16418:16435  i <= ticketNumber */\n      gt\n        /* \"MSWAP/Games/Scratchers.sol\":16404:16520  for(uint i=0; i <= ticketNumber; i++) {\r... */\n      tag_519\n      jumpi\n        /* \"MSWAP/Games/Scratchers.sol\":16459:16476  scratchHistory[i] */\n      0x00\n      dup2\n      dup2\n      mstore\n        /* \"MSWAP/Games/Scratchers.sol\":16459:16473  scratchHistory */\n      0x16\n        /* \"MSWAP/Games/Scratchers.sol\":16459:16476  scratchHistory[i] */\n      0x20\n      mstore\n      0x40\n      swap1\n      keccak256\n        /* \"MSWAP/Games/Scratchers.sol\":16459:16481  scratchHistory[i].time */\n      sload\n        /* \"MSWAP/Games/Scratchers.sol\":16459:16497  scratchHistory[i].time > timeToCheckTo */\n      dup5\n      lt\n        /* \"MSWAP/Games/Scratchers.sol\":16456:16508  if(scratchHistory[i].time > timeToCheckTo) howMany++ */\n      iszero\n      tag_521\n      jumpi\n        /* \"MSWAP/Games/Scratchers.sol\":16499:16508  howMany++ */\n      dup2\n      tag_522\n      dup2\n      tag_453\n      jump\t// in\n    tag_522:\n      swap3\n      pop\n      pop\n        /* \"MSWAP/Games/Scratchers.sol\":16456:16508  if(scratchHistory[i].time > timeToCheckTo) howMany++ */\n    tag_521:\n        /* \"MSWAP/Games/Scratchers.sol\":16437:16440  i++ */\n      dup1\n      tag_523\n      dup2\n      tag_453\n      jump\t// in\n    tag_523:\n      swap2\n      pop\n      pop\n        /* \"MSWAP/Games/Scratchers.sol\":16404:16520  for(uint i=0; i <= ticketNumber; i++) {\r... */\n      jump(tag_518)\n    tag_519:\n      pop\n        /* \"MSWAP/Games/Scratchers.sol\":16532:16558  uint256 ticketNumberToGoto */\n      0x00\n        /* \"MSWAP/Games/Scratchers.sol\":16582:16589  howMany */\n      dup2\n        /* \"MSWAP/Games/Scratchers.sol\":16562:16574  ticketNumber */\n      sload(0x0f)\n        /* \"MSWAP/Games/Scratchers.sol\":16577:16578  1 */\n      0x01\n        /* \"MSWAP/Games/Scratchers.sol\":16562:16578  ticketNumber + 1 */\n      tag_524\n      swap2\n      swap1\n      tag_334\n      jump\t// in\n    tag_524:\n        /* \"MSWAP/Games/Scratchers.sol\":16561:16589  (ticketNumber + 1) - howMany */\n      tag_525\n      swap2\n      swap1\n      tag_305\n      jump\t// in\n    tag_525:\n        /* \"MSWAP/Games/Scratchers.sol\":16532:16589  uint256 ticketNumberToGoto = (ticketNumber + 1) - howMany */\n      swap1\n      pop\n        /* \"MSWAP/Games/Scratchers.sol\":16600:16613  uint256 index */\n      0x00\n        /* \"MSWAP/Games/Scratchers.sol\":16628:16655  History[] memory tmpHistory */\n      dup1\n        /* \"MSWAP/Games/Scratchers.sol\":16672:16679  howMany */\n      dup4\n        /* \"MSWAP/Games/Scratchers.sol\":16658:16680  new History[](howMany) */\n      0xffffffffffffffff\n      dup2\n      gt\n      iszero\n      tag_527\n      jumpi\n      tag_527\n      tag_406\n      jump\t// in\n    tag_527:\n      mload(0x40)\n      swap1\n      dup1\n      dup3\n      mstore\n      dup1\n      0x20\n      mul\n      0x20\n      add\n      dup3\n      add\n      0x40\n      mstore\n      dup1\n      iszero\n      tag_528\n      jumpi\n      dup2\n      0x20\n      add\n    tag_529:\n      tag_530\n      mload(0x40)\n      dup1\n      0xe0\n      add\n      0x40\n      mstore\n      dup1\n      0x00\n      dup2\n      mstore\n      0x20\n      add\n      0x00\n      dup2\n      mstore\n      0x20\n      add\n      and(sub(shl(0xa0, 0x01), 0x01), 0x00)\n      dup2\n      mstore\n      0x20\n      add\n      0x00\n      dup2\n      mstore\n      0x20\n      add\n      and(sub(shl(0xa0, 0x01), 0x01), 0x00)\n      dup2\n      mstore\n      0x20\n      add\n      0x00\n      dup2\n      mstore\n      0x20\n      add\n      0x00\n      dup2\n      mstore\n      pop\n      swap1\n      jump\n    tag_530:\n      dup2\n      mstore\n      0x20\n      add\n      swap1\n      0x01\n      swap1\n      sub\n      swap1\n      dup2\n      tag_529\n      jumpi\n      swap1\n      pop\n    tag_528:\n      pop\n        /* \"MSWAP/Games/Scratchers.sol\":16628:16680  History[] memory tmpHistory = new History[](howMany) */\n      swap1\n      pop\n        /* \"MSWAP/Games/Scratchers.sol\":16702:16720  ticketNumberToGoto */\n      dup3\n        /* \"MSWAP/Games/Scratchers.sol\":16691:16832  for(uint j=ticketNumberToGoto; j <= ticketNumber; j++) {\r... */\n    tag_532:\n        /* \"MSWAP/Games/Scratchers.sol\":16727:16739  ticketNumber */\n      sload(0x0f)\n        /* \"MSWAP/Games/Scratchers.sol\":16722:16723  j */\n      dup2\n        /* \"MSWAP/Games/Scratchers.sol\":16722:16739  j <= ticketNumber */\n      gt\n        /* \"MSWAP/Games/Scratchers.sol\":16691:16832  for(uint j=ticketNumberToGoto; j <= ticketNumber; j++) {\r... */\n      tag_493\n      jumpi\n        /* \"MSWAP/Games/Scratchers.sol\":16781:16798  scratchHistory[j] */\n      0x00\n      dup2\n      dup2\n      mstore\n        /* \"MSWAP/Games/Scratchers.sol\":16781:16795  scratchHistory */\n      0x16\n        /* \"MSWAP/Games/Scratchers.sol\":16781:16798  scratchHistory[j] */\n      0x20\n      swap1\n      dup2\n      mstore\n      0x40\n      swap2\n      dup3\n      swap1\n      keccak256\n        /* \"MSWAP/Games/Scratchers.sol\":16761:16798  tmpHistory[index] = scratchHistory[j] */\n      dup3\n      mload\n      0xe0\n      dup2\n      add\n      dup5\n      mstore\n      dup2\n      sload\n      dup2\n      mstore\n      0x01\n      dup3\n      add\n      sload\n      swap3\n      dup2\n      add\n      swap3\n      swap1\n      swap3\n      mstore\n      0x02\n      dup2\n      add\n      sload\n      sub(shl(0xa0, 0x01), 0x01)\n      swap1\n      dup2\n      and\n      swap4\n      dup4\n      add\n      swap4\n      swap1\n      swap4\n      mstore\n      0x03\n      dup2\n      add\n      sload\n      0x60\n      dup4\n      add\n      mstore\n      0x04\n      dup2\n      add\n      sload\n      swap1\n      swap3\n      and\n      0x80\n      dup3\n      add\n      mstore\n      0x05\n      dup3\n      add\n      sload\n      0xa0\n      dup3\n      add\n      mstore\n      0x06\n      swap1\n      swap2\n      add\n      sload\n      0xc0\n      dup3\n      add\n      mstore\n        /* \"MSWAP/Games/Scratchers.sol\":16761:16778  tmpHistory[index] */\n      dup3\n      mload\n        /* \"MSWAP/Games/Scratchers.sol\":16761:16771  tmpHistory */\n      dup4\n      swap1\n        /* \"MSWAP/Games/Scratchers.sol\":16772:16777  index */\n      dup6\n      swap1\n        /* \"MSWAP/Games/Scratchers.sol\":16761:16778  tmpHistory[index] */\n      dup2\n      lt\n      tag_536\n      jumpi\n      tag_536\n      tag_363\n      jump\t// in\n    tag_536:\n      0x20\n      mul\n      0x20\n      add\n      add\n        /* \"MSWAP/Games/Scratchers.sol\":16761:16798  tmpHistory[index] = scratchHistory[j] */\n      dup2\n      swap1\n      mstore\n      pop\n        /* \"MSWAP/Games/Scratchers.sol\":16813:16820  index++ */\n      dup3\n      dup1\n      tag_537\n      swap1\n      tag_453\n      jump\t// in\n    tag_537:\n      swap4\n      pop\n      pop\n        /* \"MSWAP/Games/Scratchers.sol\":16741:16744  j++ */\n      dup1\n      dup1\n      tag_538\n      swap1\n      tag_453\n      jump\t// in\n    tag_538:\n      swap2\n      pop\n      pop\n        /* \"MSWAP/Games/Scratchers.sol\":16691:16832  for(uint j=ticketNumberToGoto; j <= ticketNumber; j++) {\r... */\n      jump(tag_532)\n        /* \"MSWAP/Games/Scratchers.sol\":12476:12874  function removePayToken(address _payToken) external onlyOwner {\r... */\n    tag_264:\n        /* \"MSWAP/Games/Scratchers.sol\":4877:4890  _checkOwner() */\n      tag_540\n        /* \"MSWAP/Games/Scratchers.sol\":4877:4888  _checkOwner */\n      tag_292\n        /* \"MSWAP/Games/Scratchers.sol\":4877:4890  _checkOwner() */\n      jump\t// in\n    tag_540:\n      sub(shl(0xa0, 0x01), 0x01)\n        /* \"MSWAP/Games/Scratchers.sol\":12557:12578  isPayToken[_payToken] */\n      dup2\n      and\n      0x00\n      swap1\n      dup2\n      mstore\n        /* \"MSWAP/Games/Scratchers.sol\":12557:12567  isPayToken */\n      0x14\n        /* \"MSWAP/Games/Scratchers.sol\":12557:12578  isPayToken[_payToken] */\n      0x20\n      mstore\n      0x40\n      swap1\n      keccak256\n      sload\n      0xff\n      and\n        /* \"MSWAP/Games/Scratchers.sol\":12549:12597  require(isPayToken[_payToken], \"Not A PayToken\") */\n      tag_542\n      jumpi\n      mload(0x40)\n      shl(0xe5, 0x461bcd)\n      dup2\n      mstore\n        /* \"#utility.yul\":13949:13951   */\n      0x20\n        /* \"MSWAP/Games/Scratchers.sol\":12549:12597  require(isPayToken[_payToken], \"Not A PayToken\") */\n      0x04\n      dup3\n      add\n        /* \"#utility.yul\":13931:13952   */\n      mstore\n        /* \"#utility.yul\":13988:13990   */\n      0x0e\n        /* \"#utility.yul\":13968:13986   */\n      0x24\n      dup3\n      add\n        /* \"#utility.yul\":13961:13991   */\n      mstore\n      shl(0x91, 0x2737ba1020902830bcaa37b5b2b7)\n        /* \"#utility.yul\":14007:14025   */\n      0x44\n      dup3\n      add\n        /* \"#utility.yul\":14000:14044   */\n      mstore\n        /* \"#utility.yul\":14061:14079   */\n      0x64\n      add\n        /* \"MSWAP/Games/Scratchers.sol\":12549:12597  require(isPayToken[_payToken], \"Not A PayToken\") */\n      tag_300\n        /* \"#utility.yul\":13747:14085   */\n      jump\n        /* \"MSWAP/Games/Scratchers.sol\":12549:12597  require(isPayToken[_payToken], \"Not A PayToken\") */\n    tag_542:\n        /* \"MSWAP/Games/Scratchers.sol\":12612:12618  uint i */\n      0x00\n        /* \"MSWAP/Games/Scratchers.sol\":12608:12867  for(uint i=0; i < payTokens.length; i++) {\r... */\n    tag_545:\n        /* \"MSWAP/Games/Scratchers.sol\":12626:12635  payTokens */\n      0x13\n        /* \"MSWAP/Games/Scratchers.sol\":12626:12642  payTokens.length */\n      sload\n        /* \"MSWAP/Games/Scratchers.sol\":12622:12642  i < payTokens.length */\n      dup2\n      lt\n        /* \"MSWAP/Games/Scratchers.sol\":12608:12867  for(uint i=0; i < payTokens.length; i++) {\r... */\n      iszero\n      tag_546\n      jumpi\n        /* \"MSWAP/Games/Scratchers.sol\":12683:12692  _payToken */\n      dup2\n      sub(shl(0xa0, 0x01), 0x01)\n        /* \"MSWAP/Games/Scratchers.sol\":12667:12692  payTokens[i] == _payToken */\n      and\n        /* \"MSWAP/Games/Scratchers.sol\":12667:12676  payTokens */\n      0x13\n        /* \"MSWAP/Games/Scratchers.sol\":12677:12678  i */\n      dup3\n        /* \"MSWAP/Games/Scratchers.sol\":12667:12679  payTokens[i] */\n      dup2\n      sload\n      dup2\n      lt\n      tag_549\n      jumpi\n      tag_549\n      tag_363\n      jump\t// in\n    tag_549:\n      0x00\n      swap2\n      dup3\n      mstore\n      0x20\n      swap1\n      swap2\n      keccak256\n      add\n      sload\n      sub(shl(0xa0, 0x01), 0x01)\n      and\n        /* \"MSWAP/Games/Scratchers.sol\":12667:12692  payTokens[i] == _payToken */\n      eq\n        /* \"MSWAP/Games/Scratchers.sol\":12664:12856  if(payTokens[i] == _payToken) {\r... */\n      iszero\n      tag_551\n      jumpi\n        /* \"MSWAP/Games/Scratchers.sol\":12728:12737  payTokens */\n      0x13\n        /* \"MSWAP/Games/Scratchers.sol\":12738:12754  payTokens.length */\n      dup1\n      sload\n        /* \"MSWAP/Games/Scratchers.sol\":12738:12757  payTokens.length -1 */\n      tag_552\n      swap1\n        /* \"MSWAP/Games/Scratchers.sol\":12756:12757  1 */\n      0x01\n      swap1\n        /* \"MSWAP/Games/Scratchers.sol\":12738:12757  payTokens.length -1 */\n      tag_305\n      jump\t// in\n    tag_552:\n        /* \"MSWAP/Games/Scratchers.sol\":12728:12758  payTokens[payTokens.length -1] */\n      dup2\n      sload\n      dup2\n      lt\n      tag_554\n      jumpi\n      tag_554\n      tag_363\n      jump\t// in\n    tag_554:\n      0x00\n      swap2\n      dup3\n      mstore\n      0x20\n      swap1\n      swap2\n      keccak256\n      add\n      sload\n        /* \"MSWAP/Games/Scratchers.sol\":12713:12722  payTokens */\n      0x13\n        /* \"MSWAP/Games/Scratchers.sol\":12713:12725  payTokens[i] */\n      dup1\n      sload\n      sub(shl(0xa0, 0x01), 0x01)\n        /* \"MSWAP/Games/Scratchers.sol\":12728:12758  payTokens[payTokens.length -1] */\n      swap1\n      swap3\n      and\n      swap2\n        /* \"MSWAP/Games/Scratchers.sol\":12723:12724  i */\n      dup4\n      swap1\n        /* \"MSWAP/Games/Scratchers.sol\":12713:12725  payTokens[i] */\n      dup2\n      lt\n      tag_557\n      jumpi\n      tag_557\n      tag_363\n      jump\t// in\n    tag_557:\n      swap1\n      0x00\n      mstore\n      keccak256(0x00, 0x20)\n      add\n      0x00\n        /* \"MSWAP/Games/Scratchers.sol\":12713:12758  payTokens[i] = payTokens[payTokens.length -1] */\n      0x0100\n      exp\n      dup2\n      sload\n      dup2\n      sub(shl(0xa0, 0x01), 0x01)\n      mul\n      not\n      and\n      swap1\n      dup4\n      sub(shl(0xa0, 0x01), 0x01)\n      and\n      mul\n      or\n      swap1\n      sstore\n      pop\n        /* \"MSWAP/Games/Scratchers.sol\":12777:12786  payTokens */\n      0x13\n        /* \"MSWAP/Games/Scratchers.sol\":12777:12792  payTokens.pop() */\n      dup1\n      sload\n      dup1\n      tag_560\n      jumpi\n      tag_560\n      tag_561\n      jump\t// in\n    tag_560:\n      0x00\n      dup3\n      dup2\n      mstore\n      0x20\n      dup1\n      dup3\n      keccak256\n      dup4\n      add\n      not(0x00)\n      swap1\n      dup2\n      add\n      dup1\n      sload\n      not(sub(shl(0xa0, 0x01), 0x01))\n      and\n      swap1\n      sstore\n      swap1\n      swap3\n      add\n      swap1\n      swap3\n      sstore\n      sub(shl(0xa0, 0x01), 0x01)\n        /* \"MSWAP/Games/Scratchers.sol\":12811:12832  isPayToken[_payToken] */\n      dup5\n      and\n      dup3\n      mstore\n        /* \"MSWAP/Games/Scratchers.sol\":12811:12821  isPayToken */\n      0x14\n        /* \"MSWAP/Games/Scratchers.sol\":12811:12832  isPayToken[_payToken] */\n      swap1\n      mstore\n      0x40\n      swap1\n      keccak256\n        /* \"MSWAP/Games/Scratchers.sol\":12811:12840  isPayToken[_payToken] = false */\n      dup1\n      sload\n      not(0xff)\n      and\n      swap1\n      sstore\n        /* \"MSWAP/Games/Scratchers.sol\":12664:12856  if(payTokens[i] == _payToken) {\r... */\n    tag_551:\n        /* \"MSWAP/Games/Scratchers.sol\":12644:12647  i++ */\n      dup1\n      tag_563\n      dup2\n      tag_453\n      jump\t// in\n    tag_563:\n      swap2\n      pop\n      pop\n        /* \"MSWAP/Games/Scratchers.sol\":12608:12867  for(uint i=0; i < payTokens.length; i++) {\r... */\n      jump(tag_545)\n    tag_546:\n      pop\n        /* \"MSWAP/Games/Scratchers.sol\":12476:12874  function removePayToken(address _payToken) external onlyOwner {\r... */\n      pop\n      jump\t// out\n        /* \"MSWAP/Games/Scratchers.sol\":10005:10204  function setSafetyMultiplier(uint256 newSafety) external onlyOwner {\r... */\n    tag_268:\n        /* \"MSWAP/Games/Scratchers.sol\":4877:4890  _checkOwner() */\n      tag_565\n        /* \"MSWAP/Games/Scratchers.sol\":4877:4888  _checkOwner */\n      tag_292\n        /* \"MSWAP/Games/Scratchers.sol\":4877:4890  _checkOwner() */\n      jump\t// in\n    tag_565:\n        /* \"MSWAP/Games/Scratchers.sol\":10108:10109  2 */\n      0x02\n        /* \"MSWAP/Games/Scratchers.sol\":10095:10104  newSafety */\n      dup2\n        /* \"MSWAP/Games/Scratchers.sol\":10095:10109  newSafety >= 2 */\n      lt\n      iszero\n        /* \"MSWAP/Games/Scratchers.sol\":10095:10128  newSafety >= 2 && newSafety <= 10 */\n      dup1\n      iszero\n      tag_567\n      jumpi\n      pop\n        /* \"MSWAP/Games/Scratchers.sol\":10126:10128  10 */\n      0x0a\n        /* \"MSWAP/Games/Scratchers.sol\":10113:10122  newSafety */\n      dup2\n        /* \"MSWAP/Games/Scratchers.sol\":10113:10128  newSafety <= 10 */\n      gt\n      iszero\n        /* \"MSWAP/Games/Scratchers.sol\":10095:10128  newSafety >= 2 && newSafety <= 10 */\n    tag_567:\n        /* \"MSWAP/Games/Scratchers.sol\":10087:10149  require(newSafety >= 2 && newSafety <= 10, \"between 2 and 10\") */\n      tag_568\n      jumpi\n      mload(0x40)\n      shl(0xe5, 0x461bcd)\n      dup2\n      mstore\n        /* \"#utility.yul\":13263:13265   */\n      0x20\n        /* \"MSWAP/Games/Scratchers.sol\":10087:10149  require(newSafety >= 2 && newSafety <= 10, \"between 2 and 10\") */\n      0x04\n      dup3\n      add\n        /* \"#utility.yul\":13245:13266   */\n      mstore\n        /* \"#utility.yul\":13302:13304   */\n      0x10\n        /* \"#utility.yul\":13282:13300   */\n      0x24\n      dup3\n      add\n        /* \"#utility.yul\":13275:13305   */\n      mstore\n      shl(0x84, 0x06265747765656e203220616e6420313)\n        /* \"#utility.yul\":13321:13339   */\n      0x44\n      dup3\n      add\n        /* \"#utility.yul\":13314:13360   */\n      mstore\n        /* \"#utility.yul\":13377:13395   */\n      0x64\n      add\n        /* \"MSWAP/Games/Scratchers.sol\":10087:10149  require(newSafety >= 2 && newSafety <= 10, \"between 2 and 10\") */\n      tag_300\n        /* \"#utility.yul\":13061:13401   */\n      jump\n        /* \"MSWAP/Games/Scratchers.sol\":10087:10149  require(newSafety >= 2 && newSafety <= 10, \"between 2 and 10\") */\n    tag_568:\n        /* \"MSWAP/Games/Scratchers.sol\":10164:10180  safetyMultiplier */\n      0x0d\n        /* \"MSWAP/Games/Scratchers.sol\":10164:10192  safetyMultiplier = newSafety */\n      sstore\n        /* \"MSWAP/Games/Scratchers.sol\":10005:10204  function setSafetyMultiplier(uint256 newSafety) external onlyOwner {\r... */\n      jump\t// out\n        /* \"MSWAP/Games/Scratchers.sol\":17554:21386  function buyScratcher(address _payToken) public payable pausable returns (uint256 ticket, address player, uint256 addToPot, address token, uint256 amount, uint256 _multiplier) {\r... */\n    tag_271:\n        /* \"MSWAP/Games/Scratchers.sol\":13290:13298  isPaused */\n      sload(0x15)\n        /* \"MSWAP/Games/Scratchers.sol\":17628:17642  uint256 ticket */\n      0x00\n      swap1\n      dup2\n      swap1\n      dup2\n      swap1\n      dup2\n      swap1\n      dup2\n      swap1\n      dup2\n      swap1\n        /* \"MSWAP/Games/Scratchers.sol\":13290:13298  isPaused */\n      0xff\n      and\n        /* \"MSWAP/Games/Scratchers.sol\":13289:13298  !isPaused */\n      iszero\n        /* \"MSWAP/Games/Scratchers.sol\":13281:13319  require(!isPaused, \"games are paused\") */\n      tag_572\n      jumpi\n      mload(0x40)\n      shl(0xe5, 0x461bcd)\n      dup2\n      mstore\n        /* \"#utility.yul\":11058:11060   */\n      0x20\n        /* \"MSWAP/Games/Scratchers.sol\":13281:13319  require(!isPaused, \"games are paused\") */\n      0x04\n      dup3\n      add\n        /* \"#utility.yul\":11040:11061   */\n      mstore\n        /* \"#utility.yul\":11097:11099   */\n      0x10\n        /* \"#utility.yul\":11077:11095   */\n      0x24\n      dup3\n      add\n        /* \"#utility.yul\":11070:11100   */\n      mstore\n      shl(0x82, 0x19d85b595cc8185c99481c185d5cd959)\n        /* \"#utility.yul\":11116:11134   */\n      0x44\n      dup3\n      add\n        /* \"#utility.yul\":11109:11155   */\n      mstore\n        /* \"#utility.yul\":11172:11190   */\n      0x64\n      add\n        /* \"MSWAP/Games/Scratchers.sol\":13281:13319  require(!isPaused, \"games are paused\") */\n      tag_300\n        /* \"#utility.yul\":10856:11196   */\n      jump\n        /* \"MSWAP/Games/Scratchers.sol\":13281:13319  require(!isPaused, \"games are paused\") */\n    tag_572:\n        /* \"MSWAP/Games/Scratchers.sol\":17755:17764  msg.value */\n      callvalue\n        /* \"MSWAP/Games/Scratchers.sol\":17778:17791  msg.value > 0 */\n      dup1\n      iszero\n        /* \"MSWAP/Games/Scratchers.sol\":17775:18469  if(msg.value > 0){\r... */\n      tag_575\n      jumpi\n        /* \"MSWAP/Games/Scratchers.sol\":17835:17846  marsFactory */\n      sload(0x01)\n        /* \"MSWAP/Games/Scratchers.sol\":17826:17858  IFactory(marsFactory).treasury() */\n      0x40\n      dup1\n      mload\n      shl(0xe0, 0x61d027b3)\n      dup2\n      mstore\n      swap1\n      mload\n        /* \"MSWAP/Games/Scratchers.sol\":17807:17823  address treasury */\n      0x00\n      swap3\n      sub(shl(0xa0, 0x01), 0x01)\n        /* \"MSWAP/Games/Scratchers.sol\":17835:17846  marsFactory */\n      and\n      swap2\n        /* \"MSWAP/Games/Scratchers.sol\":17826:17856  IFactory(marsFactory).treasury */\n      0x61d027b3\n      swap2\n        /* \"MSWAP/Games/Scratchers.sol\":17826:17858  IFactory(marsFactory).treasury() */\n      0x04\n      dup1\n      dup4\n      add\n      swap3\n      0x20\n      swap3\n      swap2\n      swap1\n      dup3\n      swap1\n      sub\n      add\n      dup2\n        /* \"MSWAP/Games/Scratchers.sol\":17835:17846  marsFactory */\n      dup7\n        /* \"MSWAP/Games/Scratchers.sol\":17826:17858  IFactory(marsFactory).treasury() */\n      dup1\n      extcodesize\n      iszero\n      dup1\n      iszero\n      tag_576\n      jumpi\n      0x00\n      dup1\n      revert\n    tag_576:\n      pop\n      gas\n      staticcall\n      iszero\n      dup1\n      iszero\n      tag_578\n      jumpi\n      returndatasize\n      0x00\n      dup1\n      returndatacopy\n      revert(0x00, returndatasize)\n    tag_578:\n      pop\n      pop\n      pop\n      pop\n      mload(0x40)\n      returndatasize\n      not(0x1f)\n      0x1f\n      dup3\n      add\n      and\n      dup3\n      add\n      dup1\n      0x40\n      mstore\n      pop\n      dup2\n      add\n      swap1\n      tag_579\n      swap2\n      swap1\n      tag_298\n      jump\t// in\n    tag_579:\n        /* \"MSWAP/Games/Scratchers.sol\":17807:17858  address treasury = IFactory(marsFactory).treasury() */\n      swap1\n      pop\n        /* \"MSWAP/Games/Scratchers.sol\":17894:17900  minBet */\n      sload(0x04)\n        /* \"MSWAP/Games/Scratchers.sol\":17881:17890  msg.value */\n      callvalue\n        /* \"MSWAP/Games/Scratchers.sol\":17881:17900  msg.value >= minBet */\n      lt\n      iszero\n        /* \"MSWAP/Games/Scratchers.sol\":17881:17923  msg.value >= minBet && msg.value <= maxBet */\n      dup1\n      iszero\n      tag_580\n      jumpi\n      pop\n        /* \"MSWAP/Games/Scratchers.sol\":17917:17923  maxBet */\n      sload(0x05)\n        /* \"MSWAP/Games/Scratchers.sol\":17904:17913  msg.value */\n      callvalue\n        /* \"MSWAP/Games/Scratchers.sol\":17904:17923  msg.value <= maxBet */\n      gt\n      iszero\n        /* \"MSWAP/Games/Scratchers.sol\":17881:17923  msg.value >= minBet && msg.value <= maxBet */\n    tag_580:\n        /* \"MSWAP/Games/Scratchers.sol\":17873:17943  require(msg.value >= minBet && msg.value <= maxBet,\"Bet out of Range\") */\n      tag_581\n      jumpi\n      mload(0x40)\n      shl(0xe5, 0x461bcd)\n      dup2\n      mstore\n        /* \"#utility.yul\":11806:11808   */\n      0x20\n        /* \"MSWAP/Games/Scratchers.sol\":17873:17943  require(msg.value >= minBet && msg.value <= maxBet,\"Bet out of Range\") */\n      0x04\n      dup3\n      add\n        /* \"#utility.yul\":11788:11809   */\n      mstore\n        /* \"#utility.yul\":11845:11847   */\n      0x10\n        /* \"#utility.yul\":11825:11843   */\n      0x24\n      dup3\n      add\n        /* \"#utility.yul\":11818:11848   */\n      mstore\n      shl(0x80, 0x426574206f7574206f662052616e6765)\n        /* \"#utility.yul\":11864:11882   */\n      0x44\n      dup3\n      add\n        /* \"#utility.yul\":11857:11903   */\n      mstore\n        /* \"#utility.yul\":11920:11938   */\n      0x64\n      add\n        /* \"MSWAP/Games/Scratchers.sol\":17873:17943  require(msg.value >= minBet && msg.value <= maxBet,\"Bet out of Range\") */\n      tag_300\n        /* \"#utility.yul\":11604:11944   */\n      jump\n        /* \"MSWAP/Games/Scratchers.sol\":17873:17943  require(msg.value >= minBet && msg.value <= maxBet,\"Bet out of Range\") */\n    tag_581:\n        /* \"MSWAP/Games/Scratchers.sol\":17958:17969  uint256 fee */\n      0x00\n        /* \"MSWAP/Games/Scratchers.sol\":17993:17998  10000 */\n      0x2710\n        /* \"MSWAP/Games/Scratchers.sol\":17984:17990  devFee */\n      sload(0x07)\n        /* \"MSWAP/Games/Scratchers.sol\":17972:17981  msg.value */\n      callvalue\n        /* \"MSWAP/Games/Scratchers.sol\":17972:17990  msg.value * devFee */\n      tag_584\n      swap2\n      swap1\n      tag_322\n      jump\t// in\n    tag_584:\n        /* \"MSWAP/Games/Scratchers.sol\":17972:17998  msg.value * devFee / 10000 */\n      tag_585\n      swap2\n      swap1\n      tag_324\n      jump\t// in\n    tag_585:\n        /* \"MSWAP/Games/Scratchers.sol\":18021:18048  payable(treasury).send(fee) */\n      mload(0x40)\n        /* \"MSWAP/Games/Scratchers.sol\":17958:17998  uint256 fee = msg.value * devFee / 10000 */\n      swap1\n      swap2\n      pop\n      sub(shl(0xa0, 0x01), 0x01)\n        /* \"MSWAP/Games/Scratchers.sol\":18021:18043  payable(treasury).send */\n      dup4\n      and\n      swap1\n        /* \"MSWAP/Games/Scratchers.sol\":18021:18048  payable(treasury).send(fee) */\n      dup3\n      iszero\n      0x08fc\n      mul\n      swap1\n        /* \"MSWAP/Games/Scratchers.sol\":17958:17998  uint256 fee = msg.value * devFee / 10000 */\n      dup4\n      swap1\n        /* \"MSWAP/Games/Scratchers.sol\":18021:18048  payable(treasury).send(fee) */\n      0x00\n      dup2\n      dup2\n      dup2\n        /* \"MSWAP/Games/Scratchers.sol\":17958:17998  uint256 fee = msg.value * devFee / 10000 */\n      dup6\n        /* \"MSWAP/Games/Scratchers.sol\":18021:18043  payable(treasury).send */\n      dup9\n        /* \"MSWAP/Games/Scratchers.sol\":18021:18048  payable(treasury).send(fee) */\n      dup9\n      call\n      swap4\n      pop\n      pop\n      pop\n      pop\n        /* \"MSWAP/Games/Scratchers.sol\":18013:18049  require(payable(treasury).send(fee)) */\n      tag_587\n      jumpi\n      0x00\n      dup1\n      revert\n    tag_587:\n        /* \"MSWAP/Games/Scratchers.sol\":18066:18086  uint256 addToJackPot */\n      0x00\n        /* \"MSWAP/Games/Scratchers.sol\":18114:18119  10000 */\n      0x2710\n        /* \"MSWAP/Games/Scratchers.sol\":18101:18111  jackPotFee */\n      sload(0x08)\n        /* \"MSWAP/Games/Scratchers.sol\":18089:18098  msg.value */\n      callvalue\n        /* \"MSWAP/Games/Scratchers.sol\":18089:18111  msg.value * jackPotFee */\n      tag_588\n      swap2\n      swap1\n      tag_322\n      jump\t// in\n    tag_588:\n        /* \"MSWAP/Games/Scratchers.sol\":18089:18119  msg.value * jackPotFee / 10000 */\n      tag_589\n      swap2\n      swap1\n      tag_324\n      jump\t// in\n    tag_589:\n        /* \"MSWAP/Games/Scratchers.sol\":18066:18119  uint256 addToJackPot = msg.value * jackPotFee / 10000 */\n      swap1\n      pop\n        /* \"MSWAP/Games/Scratchers.sol\":18145:18157  addToJackPot */\n      dup1\n        /* \"MSWAP/Games/Scratchers.sol\":18134:18141  jackPot */\n      0x0e\n      0x00\n        /* \"MSWAP/Games/Scratchers.sol\":18134:18157  jackPot += addToJackPot */\n      dup3\n      dup3\n      sload\n      tag_590\n      swap2\n      swap1\n      tag_334\n      jump\t// in\n    tag_590:\n      swap1\n      swap2\n      sstore\n      pop\n        /* \"MSWAP/Games/Scratchers.sol\":18203:18215  addToJackPot */\n      dup2\n      swap1\n      pop\n        /* \"MSWAP/Games/Scratchers.sol\":18185:18200  msg.value - fee */\n      tag_591\n        /* \"MSWAP/Games/Scratchers.sol\":18197:18200  fee */\n      dup4\n        /* \"MSWAP/Games/Scratchers.sol\":18185:18194  msg.value */\n      callvalue\n        /* \"MSWAP/Games/Scratchers.sol\":18185:18200  msg.value - fee */\n      tag_305\n      jump\t// in\n    tag_591:\n        /* \"MSWAP/Games/Scratchers.sol\":18185:18215  msg.value - fee - addToJackPot */\n      tag_592\n      swap2\n      swap1\n      tag_305\n      jump\t// in\n    tag_592:\n        /* \"MSWAP/Games/Scratchers.sol\":18174:18215  addToPot = msg.value - fee - addToJackPot */\n      swap8\n      pop\n        /* \"MSWAP/Games/Scratchers.sol\":17792:18227  {\r... */\n      pop\n      pop\n      pop\n        /* \"MSWAP/Games/Scratchers.sol\":17775:18469  if(msg.value > 0){\r... */\n      jump(tag_593)\n    tag_575:\n        /* \"MSWAP/Games/Scratchers.sol\":18271:18281  msg.sender */\n      caller\n        /* \"MSWAP/Games/Scratchers.sol\":18248:18258  uint256 fp */\n      0x00\n        /* \"MSWAP/Games/Scratchers.sol\":18261:18282  howManyFP[msg.sender] */\n      swap1\n      dup2\n      mstore\n        /* \"MSWAP/Games/Scratchers.sol\":18261:18270  howManyFP */\n      0x19\n        /* \"MSWAP/Games/Scratchers.sol\":18261:18282  howManyFP[msg.sender] */\n      0x20\n      mstore\n      0x40\n      swap1\n      keccak256\n      sload\n        /* \"MSWAP/Games/Scratchers.sol\":18305:18311  fp > 0 */\n      dup1\n        /* \"MSWAP/Games/Scratchers.sol\":18297:18328  require(fp > 0, \"No FreePlays\") */\n      tag_594\n      jumpi\n      mload(0x40)\n      shl(0xe5, 0x461bcd)\n      dup2\n      mstore\n        /* \"#utility.yul\":13608:13610   */\n      0x20\n        /* \"MSWAP/Games/Scratchers.sol\":18297:18328  require(fp > 0, \"No FreePlays\") */\n      0x04\n      dup3\n      add\n        /* \"#utility.yul\":13590:13611   */\n      mstore\n        /* \"#utility.yul\":13647:13649   */\n      0x0c\n        /* \"#utility.yul\":13627:13645   */\n      0x24\n      dup3\n      add\n        /* \"#utility.yul\":13620:13650   */\n      mstore\n      shl(0xa0, 0x4e6f2046726565506c617973)\n        /* \"#utility.yul\":13666:13684   */\n      0x44\n      dup3\n      add\n        /* \"#utility.yul\":13659:13701   */\n      mstore\n        /* \"#utility.yul\":13718:13736   */\n      0x64\n      add\n        /* \"MSWAP/Games/Scratchers.sol\":18297:18328  require(fp > 0, \"No FreePlays\") */\n      tag_300\n        /* \"#utility.yul\":13406:13742   */\n      jump\n        /* \"MSWAP/Games/Scratchers.sol\":18297:18328  require(fp > 0, \"No FreePlays\") */\n    tag_594:\n        /* \"MSWAP/Games/Scratchers.sol\":18358:18368  msg.sender */\n      caller\n        /* \"MSWAP/Games/Scratchers.sol\":18349:18369  freePlay[msg.sender] */\n      0x00\n      swap1\n      dup2\n      mstore\n        /* \"MSWAP/Games/Scratchers.sol\":18349:18357  freePlay */\n      0x18\n        /* \"MSWAP/Games/Scratchers.sol\":18349:18369  freePlay[msg.sender] */\n      0x20\n      mstore\n      0x40\n      swap1\n      keccak256\n        /* \"MSWAP/Games/Scratchers.sol\":18370:18374  fp-1 */\n      tag_597\n        /* \"MSWAP/Games/Scratchers.sol\":18373:18374  1 */\n      0x01\n        /* \"MSWAP/Games/Scratchers.sol\":18370:18372  fp */\n      dup4\n        /* \"MSWAP/Games/Scratchers.sol\":18370:18374  fp-1 */\n      tag_305\n      jump\t// in\n    tag_597:\n        /* \"MSWAP/Games/Scratchers.sol\":18349:18375  freePlay[msg.sender][fp-1] */\n      dup2\n      sload\n      dup2\n      lt\n      tag_599\n      jumpi\n      tag_599\n      tag_363\n      jump\t// in\n    tag_599:\n      0x00\n      swap2\n      dup3\n      mstore\n      0x20\n      dup1\n      dup4\n      keccak256\n      swap1\n      swap2\n      add\n      sload\n        /* \"MSWAP/Games/Scratchers.sol\":18399:18409  msg.sender */\n      caller\n        /* \"MSWAP/Games/Scratchers.sol\":18390:18410  freePlay[msg.sender] */\n      dup4\n      mstore\n        /* \"MSWAP/Games/Scratchers.sol\":18390:18398  freePlay */\n      0x18\n        /* \"MSWAP/Games/Scratchers.sol\":18390:18410  freePlay[msg.sender] */\n      swap1\n      swap2\n      mstore\n      0x40\n      swap1\n      swap2\n      keccak256\n        /* \"MSWAP/Games/Scratchers.sol\":18390:18416  freePlay[msg.sender].pop() */\n      dup1\n      sload\n        /* \"MSWAP/Games/Scratchers.sol\":18349:18375  freePlay[msg.sender][fp-1] */\n      swap2\n      swap4\n      pop\n        /* \"MSWAP/Games/Scratchers.sol\":18390:18410  freePlay[msg.sender] */\n      swap1\n        /* \"MSWAP/Games/Scratchers.sol\":18390:18416  freePlay[msg.sender].pop() */\n      dup1\n      tag_602\n      jumpi\n      tag_602\n      tag_561\n      jump\t// in\n    tag_602:\n      0x00\n      dup3\n      dup2\n      mstore\n      0x20\n      dup1\n      dup3\n      keccak256\n      dup4\n      add\n      not(0x00)\n      swap1\n      dup2\n      add\n      dup4\n      swap1\n      sstore\n      swap1\n      swap3\n      add\n      swap1\n      swap3\n      sstore\n        /* \"MSWAP/Games/Scratchers.sol\":18441:18451  msg.sender */\n      caller\n        /* \"MSWAP/Games/Scratchers.sol\":18431:18452  howManyFP[msg.sender] */\n      dup3\n      mstore\n        /* \"MSWAP/Games/Scratchers.sol\":18431:18440  howManyFP */\n      0x19\n        /* \"MSWAP/Games/Scratchers.sol\":18431:18452  howManyFP[msg.sender] */\n      swap1\n      mstore\n      0x40\n      dup2\n      keccak256\n        /* \"MSWAP/Games/Scratchers.sol\":18431:18457  howManyFP[msg.sender] -= 1 */\n      dup1\n      sload\n        /* \"MSWAP/Games/Scratchers.sol\":18390:18416  freePlay[msg.sender].pop() */\n      0x01\n      swap3\n      swap1\n        /* \"MSWAP/Games/Scratchers.sol\":18431:18457  howManyFP[msg.sender] -= 1 */\n      tag_604\n      swap1\n        /* \"MSWAP/Games/Scratchers.sol\":18390:18416  freePlay[msg.sender].pop() */\n      dup5\n      swap1\n        /* \"MSWAP/Games/Scratchers.sol\":18431:18457  howManyFP[msg.sender] -= 1 */\n      tag_305\n      jump\t// in\n    tag_604:\n      swap1\n      swap2\n      sstore\n      pop\n      pop\n      pop\n        /* \"MSWAP/Games/Scratchers.sol\":17775:18469  if(msg.value > 0){\r... */\n    tag_593:\n        /* \"MSWAP/Games/Scratchers.sol\":18499:18500  1 */\n      0x01\n        /* \"MSWAP/Games/Scratchers.sol\":18483:18495  ticketNumber */\n      0x0f\n      0x00\n        /* \"MSWAP/Games/Scratchers.sol\":18483:18500  ticketNumber += 1 */\n      dup3\n      dup3\n      sload\n      tag_605\n      swap2\n      swap1\n      tag_334\n      jump\t// in\n    tag_605:\n      swap1\n      swap2\n      sstore\n      pop\n      pop\n      sub(shl(0xa0, 0x01), 0x01)\n        /* \"MSWAP/Games/Scratchers.sol\":18521:18542  isPayToken[_payToken] */\n      dup9\n      and\n      0x00\n      swap1\n      dup2\n      mstore\n        /* \"MSWAP/Games/Scratchers.sol\":18521:18531  isPayToken */\n      0x14\n        /* \"MSWAP/Games/Scratchers.sol\":18521:18542  isPayToken[_payToken] */\n      0x20\n      mstore\n      0x40\n      swap1\n      keccak256\n      sload\n      0xff\n      and\n        /* \"MSWAP/Games/Scratchers.sol\":18513:18561  require(isPayToken[_payToken], \"Not a Paytoken\") */\n      tag_606\n      jumpi\n      mload(0x40)\n      shl(0xe5, 0x461bcd)\n      dup2\n      mstore\n        /* \"#utility.yul\":10035:10037   */\n      0x20\n        /* \"MSWAP/Games/Scratchers.sol\":18513:18561  require(isPayToken[_payToken], \"Not a Paytoken\") */\n      0x04\n      dup3\n      add\n        /* \"#utility.yul\":10017:10038   */\n      mstore\n        /* \"#utility.yul\":10074:10076   */\n      0x0e\n        /* \"#utility.yul\":10054:10072   */\n      0x24\n      dup3\n      add\n        /* \"#utility.yul\":10047:10077   */\n      mstore\n      shl(0x91, 0x2737ba1030902830bcba37b5b2b7)\n        /* \"#utility.yul\":10093:10111   */\n      0x44\n      dup3\n      add\n        /* \"#utility.yul\":10086:10130   */\n      mstore\n        /* \"#utility.yul\":10147:10165   */\n      0x64\n      add\n        /* \"MSWAP/Games/Scratchers.sol\":18513:18561  require(isPayToken[_payToken], \"Not a Paytoken\") */\n      tag_300\n        /* \"#utility.yul\":9833:10171   */\n      jump\n        /* \"MSWAP/Games/Scratchers.sol\":18513:18561  require(isPayToken[_payToken], \"Not a Paytoken\") */\n    tag_606:\n        /* \"MSWAP/Games/Scratchers.sol\":18575:18595  uint256 ticketPicked */\n      0x00\n        /* \"MSWAP/Games/Scratchers.sol\":18597:18609  bool isToken */\n      dup1\n        /* \"MSWAP/Games/Scratchers.sol\":18614:18629  pickTicket(bet) */\n      tag_609\n        /* \"MSWAP/Games/Scratchers.sol\":18625:18628  bet */\n      dup4\n        /* \"MSWAP/Games/Scratchers.sol\":18614:18624  pickTicket */\n      tag_93\n        /* \"MSWAP/Games/Scratchers.sol\":18614:18629  pickTicket(bet) */\n      jump\t// in\n    tag_609:\n        /* \"MSWAP/Games/Scratchers.sol\":18574:18629  (uint256 ticketPicked, bool isToken ) = pickTicket(bet) */\n      swap2\n      pop\n      swap2\n      pop\n        /* \"MSWAP/Games/Scratchers.sol\":18663:18673  multiplier */\n      0x0a\n        /* \"MSWAP/Games/Scratchers.sol\":18674:18686  ticketPicked */\n      dup3\n        /* \"MSWAP/Games/Scratchers.sol\":18663:18687  multiplier[ticketPicked] */\n      dup2\n      sload\n      dup2\n      lt\n      tag_611\n      jumpi\n      tag_611\n      tag_363\n      jump\t// in\n    tag_611:\n      swap1\n      0x00\n      mstore\n      keccak256(0x00, 0x20)\n      add\n      sload\n        /* \"MSWAP/Games/Scratchers.sol\":18691:18692  0 */\n      0x00\n        /* \"MSWAP/Games/Scratchers.sol\":18663:18692  multiplier[ticketPicked] == 0 */\n      eq\n        /* \"MSWAP/Games/Scratchers.sol\":18660:19048  if(multiplier[ticketPicked] == 0) {\r... */\n      iszero\n      tag_613\n      jumpi\n      0x00\n      dup1\n      mload\n      0x20\n      data_ddc6cb00969b718fd3f777dbdb4a70f4eeccab52c15e5252acac51881b2a4bfd\n      dup4\n      codecopy\n      dup2\n      mload\n      swap2\n      mstore\n        /* \"MSWAP/Games/Scratchers.sol\":18729:18741  ticketNumber */\n      sload(0x0f)\n        /* \"MSWAP/Games/Scratchers.sol\":18743:18753  msg.sender */\n      caller\n        /* \"MSWAP/Games/Scratchers.sol\":18755:18763  addToPot */\n      dup10\n        /* \"MSWAP/Games/Scratchers.sol\":18765:18770  token */\n      dup10\n        /* \"MSWAP/Games/Scratchers.sol\":18772:18773  0 */\n      0x00\n        /* \"MSWAP/Games/Scratchers.sol\":18775:18785  multiplier */\n      0x0a\n        /* \"MSWAP/Games/Scratchers.sol\":18786:18798  ticketPicked */\n      dup9\n        /* \"MSWAP/Games/Scratchers.sol\":18775:18799  multiplier[ticketPicked] */\n      dup2\n      sload\n      dup2\n      lt\n      tag_615\n      jumpi\n      tag_615\n      tag_363\n      jump\t// in\n    tag_615:\n      swap1\n      0x00\n      mstore\n      keccak256(0x00, 0x20)\n      add\n      sload\n        /* \"MSWAP/Games/Scratchers.sol\":18714:18800  ticketPurchase(ticketNumber, msg.sender, addToPot, token, 0, multiplier[ticketPicked]) */\n      mload(0x40)\n      tag_617\n      swap7\n      swap6\n      swap5\n      swap4\n      swap3\n      swap2\n      swap1\n      tag_618\n      jump\t// in\n    tag_617:\n      mload(0x40)\n      dup1\n      swap2\n      sub\n      swap1\n      log1\n        /* \"MSWAP/Games/Scratchers.sol\":18846:18942  History(block.timestamp, ticketNumber, msg.sender, addToPot, token, 0, multiplier[ticketPicked]) */\n      mload(0x40)\n      dup1\n      0xe0\n      add\n      0x40\n      mstore\n      dup1\n        /* \"MSWAP/Games/Scratchers.sol\":18854:18869  block.timestamp */\n      timestamp\n        /* \"MSWAP/Games/Scratchers.sol\":18846:18942  History(block.timestamp, ticketNumber, msg.sender, addToPot, token, 0, multiplier[ticketPicked]) */\n      dup2\n      mstore\n      0x20\n      add\n        /* \"MSWAP/Games/Scratchers.sol\":18871:18883  ticketNumber */\n      sload(0x0f)\n        /* \"MSWAP/Games/Scratchers.sol\":18846:18942  History(block.timestamp, ticketNumber, msg.sender, addToPot, token, 0, multiplier[ticketPicked]) */\n      dup2\n      mstore\n      0x20\n      add\n        /* \"MSWAP/Games/Scratchers.sol\":18885:18895  msg.sender */\n      caller\n      sub(shl(0xa0, 0x01), 0x01)\n        /* \"MSWAP/Games/Scratchers.sol\":18846:18942  History(block.timestamp, ticketNumber, msg.sender, addToPot, token, 0, multiplier[ticketPicked]) */\n      and\n      dup2\n      mstore\n      0x20\n      add\n        /* \"MSWAP/Games/Scratchers.sol\":18897:18905  addToPot */\n      dup9\n        /* \"MSWAP/Games/Scratchers.sol\":18846:18942  History(block.timestamp, ticketNumber, msg.sender, addToPot, token, 0, multiplier[ticketPicked]) */\n      dup2\n      mstore\n      0x20\n      add\n        /* \"MSWAP/Games/Scratchers.sol\":18907:18912  token */\n      dup8\n      sub(shl(0xa0, 0x01), 0x01)\n        /* \"MSWAP/Games/Scratchers.sol\":18846:18942  History(block.timestamp, ticketNumber, msg.sender, addToPot, token, 0, multiplier[ticketPicked]) */\n      and\n      dup2\n      mstore\n      0x20\n      add\n        /* \"MSWAP/Games/Scratchers.sol\":18914:18915  0 */\n      0x00\n        /* \"MSWAP/Games/Scratchers.sol\":18846:18942  History(block.timestamp, ticketNumber, msg.sender, addToPot, token, 0, multiplier[ticketPicked]) */\n      dup2\n      mstore\n      0x20\n      add\n        /* \"MSWAP/Games/Scratchers.sol\":18917:18927  multiplier */\n      0x0a\n        /* \"MSWAP/Games/Scratchers.sol\":18928:18940  ticketPicked */\n      dup5\n        /* \"MSWAP/Games/Scratchers.sol\":18917:18941  multiplier[ticketPicked] */\n      dup2\n      sload\n      dup2\n      lt\n      tag_620\n      jumpi\n      tag_620\n      tag_363\n      jump\t// in\n    tag_620:\n      0x00\n      swap2\n      dup3\n      mstore\n      0x20\n      dup1\n      dup4\n      keccak256\n      swap1\n      swap2\n      add\n      sload\n        /* \"MSWAP/Games/Scratchers.sol\":18846:18942  History(block.timestamp, ticketNumber, msg.sender, addToPot, token, 0, multiplier[ticketPicked]) */\n      swap1\n      swap3\n      mstore\n        /* \"MSWAP/Games/Scratchers.sol\":18830:18842  ticketNumber */\n      0x0f\n      dup1\n      sload\n        /* \"MSWAP/Games/Scratchers.sol\":18815:18843  scratchHistory[ticketNumber] */\n      dup3\n      mstore\n        /* \"MSWAP/Games/Scratchers.sol\":18815:18829  scratchHistory */\n      0x16\n        /* \"MSWAP/Games/Scratchers.sol\":18815:18843  scratchHistory[ticketNumber] */\n      dup4\n      mstore\n      0x40\n      dup1\n      dup4\n      keccak256\n        /* \"MSWAP/Games/Scratchers.sol\":18815:18942  scratchHistory[ticketNumber] = History(block.timestamp, ticketNumber, msg.sender, addToPot, token, 0, multiplier[ticketPicked]) */\n      dup6\n      mload\n      dup2\n      sstore\n      swap4\n      dup6\n      add\n      mload\n      0x01\n      dup6\n      add\n      sstore\n      dup5\n      add\n      mload\n      0x02\n      dup5\n      add\n      dup1\n      sload\n      sub(shl(0xa0, 0x01), 0x01)\n      swap3\n      dup4\n      and\n      not(sub(shl(0xa0, 0x01), 0x01))\n      swap2\n      dup3\n      and\n      or\n      swap1\n      swap2\n      sstore\n      0x60\n      dup7\n      add\n      mload\n      0x03\n      dup7\n      add\n      sstore\n      0x80\n      dup7\n      add\n      mload\n      0x04\n      dup7\n      add\n      dup1\n      sload\n      swap2\n      swap1\n      swap4\n      and\n      swap2\n      and\n      or\n      swap1\n      sstore\n      0xa0\n      dup5\n      add\n      mload\n      0x05\n      dup5\n      add\n      sstore\n      0xc0\n      swap1\n      swap4\n      add\n      mload\n      0x06\n      swap1\n      swap3\n      add\n      swap2\n      swap1\n      swap2\n      sstore\n        /* \"MSWAP/Games/Scratchers.sol\":18965:18977  ticketNumber */\n      swap1\n      sload\n        /* \"MSWAP/Games/Scratchers.sol\":19011:19021  multiplier */\n      0x0a\n        /* \"MSWAP/Games/Scratchers.sol\":19011:19035  multiplier[ticketPicked] */\n      dup1\n      sload\n        /* \"MSWAP/Games/Scratchers.sol\":18965:18977  ticketNumber */\n      swap2\n      swap3\n        /* \"MSWAP/Games/Scratchers.sol\":18979:18989  msg.sender */\n      caller\n      swap3\n        /* \"MSWAP/Games/Scratchers.sol\":18991:18999  addToPot */\n      dup12\n      swap3\n        /* \"MSWAP/Games/Scratchers.sol\":19001:19006  token */\n      dup12\n      swap3\n        /* \"MSWAP/Games/Scratchers.sol\":18917:18941  multiplier[ticketPicked] */\n      swap2\n        /* \"MSWAP/Games/Scratchers.sol\":19022:19034  ticketPicked */\n      dup9\n      swap1\n        /* \"MSWAP/Games/Scratchers.sol\":19011:19035  multiplier[ticketPicked] */\n      dup2\n      lt\n      tag_623\n      jumpi\n      tag_623\n      tag_363\n      jump\t// in\n    tag_623:\n      swap1\n      0x00\n      mstore\n      keccak256(0x00, 0x20)\n      add\n      sload\n        /* \"MSWAP/Games/Scratchers.sol\":18957:19036  return (ticketNumber, msg.sender, addToPot, token, 0, multiplier[ticketPicked]) */\n      swap9\n      pop\n      swap9\n      pop\n      swap9\n      pop\n      swap9\n      pop\n      swap9\n      pop\n      swap9\n      pop\n      pop\n      pop\n      pop\n      jump(tag_574)\n        /* \"MSWAP/Games/Scratchers.sol\":18660:19048  if(multiplier[ticketPicked] == 0) {\r... */\n    tag_613:\n        /* \"MSWAP/Games/Scratchers.sol\":19085:19095  multiplier */\n      0x0a\n        /* \"MSWAP/Games/Scratchers.sol\":19096:19108  ticketPicked */\n      dup3\n        /* \"MSWAP/Games/Scratchers.sol\":19085:19109  multiplier[ticketPicked] */\n      dup2\n      sload\n      dup2\n      lt\n      tag_626\n      jumpi\n      tag_626\n      tag_363\n      jump\t// in\n    tag_626:\n      swap1\n      0x00\n      mstore\n      keccak256(0x00, 0x20)\n      add\n      sload\n        /* \"MSWAP/Games/Scratchers.sol\":19113:19114  3 */\n      0x03\n        /* \"MSWAP/Games/Scratchers.sol\":19085:19114  multiplier[ticketPicked] == 3 */\n      eq\n        /* \"MSWAP/Games/Scratchers.sol\":19085:19179  multiplier[ticketPicked] == 3 || ( multiplier[ticketPicked] == 5 && currentNFT == address(0) ) */\n      dup1\n      tag_632\n      jumpi\n      pop\n        /* \"MSWAP/Games/Scratchers.sol\":19120:19130  multiplier */\n      0x0a\n        /* \"MSWAP/Games/Scratchers.sol\":19131:19143  ticketPicked */\n      dup3\n        /* \"MSWAP/Games/Scratchers.sol\":19120:19144  multiplier[ticketPicked] */\n      dup2\n      sload\n      dup2\n      lt\n      tag_630\n      jumpi\n      tag_630\n      tag_363\n      jump\t// in\n    tag_630:\n      swap1\n      0x00\n      mstore\n      keccak256(0x00, 0x20)\n      add\n      sload\n        /* \"MSWAP/Games/Scratchers.sol\":19148:19149  5 */\n      0x05\n        /* \"MSWAP/Games/Scratchers.sol\":19120:19149  multiplier[ticketPicked] == 5 */\n      eq\n        /* \"MSWAP/Games/Scratchers.sol\":19120:19177  multiplier[ticketPicked] == 5 && currentNFT == address(0) */\n      dup1\n      iszero\n      tag_632\n      jumpi\n      pop\n        /* \"MSWAP/Games/Scratchers.sol\":19153:19163  currentNFT */\n      and(sub(shl(0xa0, 0x01), 0x01), sload(0x11))\n        /* \"MSWAP/Games/Scratchers.sol\":19153:19177  currentNFT == address(0) */\n      iszero\n        /* \"MSWAP/Games/Scratchers.sol\":19120:19177  multiplier[ticketPicked] == 5 && currentNFT == address(0) */\n    tag_632:\n        /* \"MSWAP/Games/Scratchers.sol\":19082:19622  if(multiplier[ticketPicked] == 3 || ( multiplier[ticketPicked] == 5 && currentNFT == address(0) ) ) {\r... */\n      iszero\n      tag_633\n      jumpi\n        /* \"MSWAP/Games/Scratchers.sol\":19206:19216  msg.sender */\n      caller\n        /* \"MSWAP/Games/Scratchers.sol\":19197:19217  freePlay[msg.sender] */\n      0x00\n      dup2\n      dup2\n      mstore\n        /* \"MSWAP/Games/Scratchers.sol\":19197:19205  freePlay */\n      0x18\n        /* \"MSWAP/Games/Scratchers.sol\":19197:19217  freePlay[msg.sender] */\n      0x20\n      swap1\n      dup2\n      mstore\n      0x40\n      dup1\n      dup4\n      keccak256\n        /* \"MSWAP/Games/Scratchers.sol\":19197:19227  freePlay[msg.sender].push(bet) */\n      dup1\n      sload\n      0x01\n      dup2\n      dup2\n      add\n      dup4\n      sstore\n      swap2\n      dup6\n      mstore\n      dup4\n      dup6\n      keccak256\n      add\n      dup9\n      swap1\n      sstore\n        /* \"MSWAP/Games/Scratchers.sol\":19242:19263  howManyFP[msg.sender] */\n      swap4\n      dup4\n      mstore\n        /* \"MSWAP/Games/Scratchers.sol\":19242:19251  howManyFP */\n      0x19\n        /* \"MSWAP/Games/Scratchers.sol\":19242:19263  howManyFP[msg.sender] */\n      swap1\n      swap2\n      mstore\n      dup2\n      keccak256\n        /* \"MSWAP/Games/Scratchers.sol\":19242:19268  howManyFP[msg.sender] += 1 */\n      dup1\n      sload\n        /* \"MSWAP/Games/Scratchers.sol\":19242:19263  howManyFP[msg.sender] */\n      swap1\n      swap2\n        /* \"MSWAP/Games/Scratchers.sol\":19197:19217  freePlay[msg.sender] */\n      swap1\n        /* \"MSWAP/Games/Scratchers.sol\":19242:19268  howManyFP[msg.sender] += 1 */\n      tag_635\n      swap1\n        /* \"MSWAP/Games/Scratchers.sol\":19197:19227  freePlay[msg.sender].push(bet) */\n      dup5\n      swap1\n        /* \"MSWAP/Games/Scratchers.sol\":19242:19268  howManyFP[msg.sender] += 1 */\n      tag_334\n      jump\t// in\n    tag_635:\n      swap3\n      pop\n      pop\n      dup2\n      swap1\n      sstore\n      pop\n      0x00\n      dup1\n      mload\n      0x20\n      data_ddc6cb00969b718fd3f777dbdb4a70f4eeccab52c15e5252acac51881b2a4bfd\n      dup4\n      codecopy\n      dup2\n      mload\n      swap2\n      mstore\n        /* \"MSWAP/Games/Scratchers.sol\":19303:19315  ticketNumber */\n      sload(0x0f)\n        /* \"MSWAP/Games/Scratchers.sol\":19317:19327  msg.sender */\n      caller\n        /* \"MSWAP/Games/Scratchers.sol\":19329:19337  addToPot */\n      dup10\n        /* \"MSWAP/Games/Scratchers.sol\":19339:19344  token */\n      dup10\n        /* \"MSWAP/Games/Scratchers.sol\":19346:19347  0 */\n      0x00\n        /* \"MSWAP/Games/Scratchers.sol\":19349:19359  multiplier */\n      0x0a\n        /* \"MSWAP/Games/Scratchers.sol\":19360:19372  ticketPicked */\n      dup9\n        /* \"MSWAP/Games/Scratchers.sol\":19349:19373  multiplier[ticketPicked] */\n      dup2\n      sload\n      dup2\n      lt\n      tag_615\n      jumpi\n      tag_615\n      tag_363\n      jump\t// in\n        /* \"MSWAP/Games/Scratchers.sol\":19082:19622  if(multiplier[ticketPicked] == 3 || ( multiplier[ticketPicked] == 5 && currentNFT == address(0) ) ) {\r... */\n    tag_633:\n        /* \"MSWAP/Games/Scratchers.sol\":19665:19675  multiplier */\n      0x0a\n        /* \"MSWAP/Games/Scratchers.sol\":19676:19688  ticketPicked */\n      dup3\n        /* \"MSWAP/Games/Scratchers.sol\":19665:19689  multiplier[ticketPicked] */\n      dup2\n      sload\n      dup2\n      lt\n      tag_647\n      jumpi\n      tag_647\n      tag_363\n      jump\t// in\n    tag_647:\n      swap1\n      0x00\n      mstore\n      keccak256(0x00, 0x20)\n      add\n      sload\n        /* \"MSWAP/Games/Scratchers.sol\":19693:19694  5 */\n      0x05\n        /* \"MSWAP/Games/Scratchers.sol\":19665:19694  multiplier[ticketPicked] == 5 */\n      eq\n        /* \"MSWAP/Games/Scratchers.sol\":19662:20174  if(multiplier[ticketPicked] == 5) {\r... */\n      iszero\n      tag_649\n      jumpi\n        /* \"MSWAP/Games/Scratchers.sol\":19733:19743  currentNFT */\n      sload(0x11)\n        /* \"MSWAP/Games/Scratchers.sol\":19759:19820  nftContract.addFreeWhitelistUserOrAddMoreSpots(msg.sender, 1) */\n      mload(0x40)\n      shl(0xe1, 0x1cdfd52f)\n      dup2\n      mstore\n        /* \"MSWAP/Games/Scratchers.sol\":19806:19816  msg.sender */\n      caller\n        /* \"MSWAP/Games/Scratchers.sol\":19759:19820  nftContract.addFreeWhitelistUserOrAddMoreSpots(msg.sender, 1) */\n      0x04\n      dup3\n      add\n        /* \"#utility.yul\":4500:4551   */\n      mstore\n        /* \"MSWAP/Games/Scratchers.sol\":19733:19743  currentNFT */\n      0x01\n        /* \"#utility.yul\":4567:4585   */\n      0x24\n      dup3\n      add\n        /* \"#utility.yul\":4560:4594   */\n      mstore\n      sub(shl(0xa0, 0x01), 0x01)\n        /* \"MSWAP/Games/Scratchers.sol\":19733:19743  currentNFT */\n      swap1\n      swap2\n      and\n      swap1\n      dup2\n      swap1\n        /* \"MSWAP/Games/Scratchers.sol\":19759:19805  nftContract.addFreeWhitelistUserOrAddMoreSpots */\n      0x39bfaa5e\n      swap1\n        /* \"#utility.yul\":4473:4491   */\n      0x44\n      add\n        /* \"MSWAP/Games/Scratchers.sol\":19759:19820  nftContract.addFreeWhitelistUserOrAddMoreSpots(msg.sender, 1) */\n      0x00\n      mload(0x40)\n      dup1\n      dup4\n      sub\n      dup2\n      0x00\n      dup8\n      dup1\n      extcodesize\n      iszero\n      dup1\n      iszero\n      tag_652\n      jumpi\n      0x00\n      dup1\n      revert\n    tag_652:\n      pop\n      gas\n      call\n      iszero\n      dup1\n      iszero\n      tag_654\n      jumpi\n      returndatasize\n      0x00\n      dup1\n      returndatacopy\n      revert(0x00, returndatasize)\n    tag_654:\n      pop\n      pop\n      pop\n      pop\n      0x00\n      dup1\n      mload\n      0x20\n      data_ddc6cb00969b718fd3f777dbdb4a70f4eeccab52c15e5252acac51881b2a4bfd\n      dup4\n      codecopy\n      dup2\n      mload\n      swap2\n      mstore\n        /* \"MSWAP/Games/Scratchers.sol\":19855:19867  ticketNumber */\n      sload(0x0f)\n        /* \"MSWAP/Games/Scratchers.sol\":19869:19879  msg.sender */\n      caller\n        /* \"MSWAP/Games/Scratchers.sol\":19881:19889  addToPot */\n      dup11\n        /* \"MSWAP/Games/Scratchers.sol\":19891:19896  token */\n      dup11\n        /* \"MSWAP/Games/Scratchers.sol\":19898:19899  0 */\n      0x00\n        /* \"MSWAP/Games/Scratchers.sol\":19901:19911  multiplier */\n      0x0a\n        /* \"MSWAP/Games/Scratchers.sol\":19912:19924  ticketPicked */\n      dup10\n        /* \"MSWAP/Games/Scratchers.sol\":19901:19925  multiplier[ticketPicked] */\n      dup2\n      sload\n      dup2\n      lt\n      tag_656\n      jumpi\n      tag_656\n      tag_363\n      jump\t// in\n    tag_656:\n      swap1\n      0x00\n      mstore\n      keccak256(0x00, 0x20)\n      add\n      sload\n        /* \"MSWAP/Games/Scratchers.sol\":19840:19926  ticketPurchase(ticketNumber, msg.sender, addToPot, token, 0, multiplier[ticketPicked]) */\n      mload(0x40)\n      tag_658\n      swap7\n      swap6\n      swap5\n      swap4\n      swap3\n      swap2\n      swap1\n      tag_618\n      jump\t// in\n    tag_658:\n      mload(0x40)\n      dup1\n      swap2\n      sub\n      swap1\n      log1\n        /* \"MSWAP/Games/Scratchers.sol\":19972:20068  History(block.timestamp, ticketNumber, msg.sender, addToPot, token, 0, multiplier[ticketPicked]) */\n      mload(0x40)\n      dup1\n      0xe0\n      add\n      0x40\n      mstore\n      dup1\n        /* \"MSWAP/Games/Scratchers.sol\":19980:19995  block.timestamp */\n      timestamp\n        /* \"MSWAP/Games/Scratchers.sol\":19972:20068  History(block.timestamp, ticketNumber, msg.sender, addToPot, token, 0, multiplier[ticketPicked]) */\n      dup2\n      mstore\n      0x20\n      add\n        /* \"MSWAP/Games/Scratchers.sol\":19997:20009  ticketNumber */\n      sload(0x0f)\n        /* \"MSWAP/Games/Scratchers.sol\":19972:20068  History(block.timestamp, ticketNumber, msg.sender, addToPot, token, 0, multiplier[ticketPicked]) */\n      dup2\n      mstore\n      0x20\n      add\n        /* \"MSWAP/Games/Scratchers.sol\":20011:20021  msg.sender */\n      caller\n      sub(shl(0xa0, 0x01), 0x01)\n        /* \"MSWAP/Games/Scratchers.sol\":19972:20068  History(block.timestamp, ticketNumber, msg.sender, addToPot, token, 0, multiplier[ticketPicked]) */\n      and\n      dup2\n      mstore\n      0x20\n      add\n        /* \"MSWAP/Games/Scratchers.sol\":20023:20031  addToPot */\n      dup10\n        /* \"MSWAP/Games/Scratchers.sol\":19972:20068  History(block.timestamp, ticketNumber, msg.sender, addToPot, token, 0, multiplier[ticketPicked]) */\n      dup2\n      mstore\n      0x20\n      add\n        /* \"MSWAP/Games/Scratchers.sol\":20033:20038  token */\n      dup9\n      sub(shl(0xa0, 0x01), 0x01)\n        /* \"MSWAP/Games/Scratchers.sol\":19972:20068  History(block.timestamp, ticketNumber, msg.sender, addToPot, token, 0, multiplier[ticketPicked]) */\n      and\n      dup2\n      mstore\n      0x20\n      add\n        /* \"MSWAP/Games/Scratchers.sol\":20040:20041  0 */\n      0x00\n        /* \"MSWAP/Games/Scratchers.sol\":19972:20068  History(block.timestamp, ticketNumber, msg.sender, addToPot, token, 0, multiplier[ticketPicked]) */\n      dup2\n      mstore\n      0x20\n      add\n        /* \"MSWAP/Games/Scratchers.sol\":20043:20053  multiplier */\n      0x0a\n        /* \"MSWAP/Games/Scratchers.sol\":20054:20066  ticketPicked */\n      dup6\n        /* \"MSWAP/Games/Scratchers.sol\":20043:20067  multiplier[ticketPicked] */\n      dup2\n      sload\n      dup2\n      lt\n      tag_660\n      jumpi\n      tag_660\n      tag_363\n      jump\t// in\n    tag_660:\n      0x00\n      swap2\n      dup3\n      mstore\n      0x20\n      dup1\n      dup4\n      keccak256\n      swap1\n      swap2\n      add\n      sload\n        /* \"MSWAP/Games/Scratchers.sol\":19972:20068  History(block.timestamp, ticketNumber, msg.sender, addToPot, token, 0, multiplier[ticketPicked]) */\n      swap1\n      swap3\n      mstore\n        /* \"MSWAP/Games/Scratchers.sol\":19956:19968  ticketNumber */\n      0x0f\n      dup1\n      sload\n        /* \"MSWAP/Games/Scratchers.sol\":19941:19969  scratchHistory[ticketNumber] */\n      dup3\n      mstore\n        /* \"MSWAP/Games/Scratchers.sol\":19941:19955  scratchHistory */\n      0x16\n        /* \"MSWAP/Games/Scratchers.sol\":19941:19969  scratchHistory[ticketNumber] */\n      dup4\n      mstore\n      0x40\n      dup1\n      dup4\n      keccak256\n        /* \"MSWAP/Games/Scratchers.sol\":19941:20068  scratchHistory[ticketNumber] = History(block.timestamp, ticketNumber, msg.sender, addToPot, token, 0, multiplier[ticketPicked]) */\n      dup6\n      mload\n      dup2\n      sstore\n      swap4\n      dup6\n      add\n      mload\n      0x01\n      dup6\n      add\n      sstore\n      dup5\n      add\n      mload\n      0x02\n      dup5\n      add\n      dup1\n      sload\n      sub(shl(0xa0, 0x01), 0x01)\n      swap3\n      dup4\n      and\n      not(sub(shl(0xa0, 0x01), 0x01))\n      swap2\n      dup3\n      and\n      or\n      swap1\n      swap2\n      sstore\n      0x60\n      dup7\n      add\n      mload\n      0x03\n      dup7\n      add\n      sstore\n      0x80\n      dup7\n      add\n      mload\n      0x04\n      dup7\n      add\n      dup1\n      sload\n      swap2\n      swap1\n      swap4\n      and\n      swap2\n      and\n      or\n      swap1\n      sstore\n      0xa0\n      dup5\n      add\n      mload\n      0x05\n      dup5\n      add\n      sstore\n      0xc0\n      swap1\n      swap4\n      add\n      mload\n      0x06\n      swap1\n      swap3\n      add\n      swap2\n      swap1\n      swap2\n      sstore\n        /* \"MSWAP/Games/Scratchers.sol\":20091:20103  ticketNumber */\n      swap1\n      sload\n        /* \"MSWAP/Games/Scratchers.sol\":20137:20147  multiplier */\n      0x0a\n        /* \"MSWAP/Games/Scratchers.sol\":20137:20161  multiplier[ticketPicked] */\n      dup1\n      sload\n        /* \"MSWAP/Games/Scratchers.sol\":20091:20103  ticketNumber */\n      swap2\n      swap3\n        /* \"MSWAP/Games/Scratchers.sol\":20105:20115  msg.sender */\n      caller\n      swap3\n        /* \"MSWAP/Games/Scratchers.sol\":20117:20125  addToPot */\n      dup13\n      swap3\n        /* \"MSWAP/Games/Scratchers.sol\":20127:20132  token */\n      dup13\n      swap3\n        /* \"MSWAP/Games/Scratchers.sol\":20043:20067  multiplier[ticketPicked] */\n      swap2\n        /* \"MSWAP/Games/Scratchers.sol\":20148:20160  ticketPicked */\n      dup10\n      swap1\n        /* \"MSWAP/Games/Scratchers.sol\":20137:20161  multiplier[ticketPicked] */\n      dup2\n      lt\n      tag_663\n      jumpi\n      tag_663\n      tag_363\n      jump\t// in\n    tag_663:\n      swap1\n      0x00\n      mstore\n      keccak256(0x00, 0x20)\n      add\n      sload\n        /* \"MSWAP/Games/Scratchers.sol\":20083:20162  return (ticketNumber, msg.sender, addToPot, token, 0, multiplier[ticketPicked]) */\n      swap10\n      pop\n      swap10\n      pop\n      swap10\n      pop\n      swap10\n      pop\n      swap10\n      pop\n      swap10\n      pop\n      pop\n      pop\n      pop\n      pop\n      jump(tag_574)\n        /* \"MSWAP/Games/Scratchers.sol\":19662:20174  if(multiplier[ticketPicked] == 5) {\r... */\n    tag_649:\n        /* \"MSWAP/Games/Scratchers.sol\":20188:20195  isToken */\n      dup1\n        /* \"MSWAP/Games/Scratchers.sol\":20188:20238  isToken ? token = _payToken : token = address(0x0) */\n      tag_665\n      jumpi\n        /* \"MSWAP/Games/Scratchers.sol\":20234:20237  0x0 */\n      0x00\n        /* \"MSWAP/Games/Scratchers.sol\":20218:20238  token = address(0x0) */\n      swap6\n      pop\n      dup6\n        /* \"MSWAP/Games/Scratchers.sol\":20188:20238  isToken ? token = _payToken : token = address(0x0) */\n      jump(tag_666)\n    tag_665:\n        /* \"MSWAP/Games/Scratchers.sol\":20206:20215  _payToken */\n      dup10\n        /* \"MSWAP/Games/Scratchers.sol\":20198:20215  token = _payToken */\n      swap6\n      pop\n      dup6\n        /* \"MSWAP/Games/Scratchers.sol\":20188:20238  isToken ? token = _payToken : token = address(0x0) */\n    tag_666:\n      pop\n        /* \"MSWAP/Games/Scratchers.sol\":20285:20288  bet */\n      dup3\n        /* \"MSWAP/Games/Scratchers.sol\":20258:20268  multiplier */\n      0x0a\n        /* \"MSWAP/Games/Scratchers.sol\":20269:20281  ticketPicked */\n      dup4\n        /* \"MSWAP/Games/Scratchers.sol\":20258:20282  multiplier[ticketPicked] */\n      dup2\n      sload\n      dup2\n      lt\n      tag_668\n      jumpi\n      tag_668\n      tag_363\n      jump\t// in\n    tag_668:\n      swap1\n      0x00\n      mstore\n      keccak256(0x00, 0x20)\n      add\n      sload\n        /* \"MSWAP/Games/Scratchers.sol\":20258:20288  multiplier[ticketPicked] * bet */\n      tag_670\n      swap2\n      swap1\n      tag_322\n      jump\t// in\n    tag_670:\n        /* \"MSWAP/Games/Scratchers.sol\":20249:20288  amount = multiplier[ticketPicked] * bet */\n      swap5\n      pop\n        /* \"MSWAP/Games/Scratchers.sol\":20328:20335  isToken */\n      dup1\n        /* \"MSWAP/Games/Scratchers.sol\":20327:20335  !isToken */\n      iszero\n        /* \"MSWAP/Games/Scratchers.sol\":20327:20365  !isToken || _payToken == router.WETH() */\n      dup1\n      tag_671\n      jumpi\n      pop\n        /* \"MSWAP/Games/Scratchers.sol\":20352:20358  router */\n      0x02\n      0x00\n      swap1\n      sload\n      swap1\n      0x0100\n      exp\n      swap1\n      div\n      sub(shl(0xa0, 0x01), 0x01)\n      and\n      sub(shl(0xa0, 0x01), 0x01)\n        /* \"MSWAP/Games/Scratchers.sol\":20352:20363  router.WETH */\n      and\n      0xad5c4648\n        /* \"MSWAP/Games/Scratchers.sol\":20352:20365  router.WETH() */\n      mload(0x40)\n      dup2\n      0xffffffff\n      and\n      0xe0\n      shl\n      dup2\n      mstore\n      0x04\n      add\n      0x20\n      mload(0x40)\n      dup1\n      dup4\n      sub\n      dup2\n      dup7\n      dup1\n      extcodesize\n      iszero\n      dup1\n      iszero\n      tag_672\n      jumpi\n      0x00\n      dup1\n      revert\n    tag_672:\n      pop\n      gas\n      staticcall\n      iszero\n      dup1\n      iszero\n      tag_674\n      jumpi\n      returndatasize\n      0x00\n      dup1\n      returndatacopy\n      revert(0x00, returndatasize)\n    tag_674:\n      pop\n      pop\n      pop\n      pop\n      mload(0x40)\n      returndatasize\n      not(0x1f)\n      0x1f\n      dup3\n      add\n      and\n      dup3\n      add\n      dup1\n      0x40\n      mstore\n      pop\n      dup2\n      add\n      swap1\n      tag_675\n      swap2\n      swap1\n      tag_298\n      jump\t// in\n    tag_675:\n      sub(shl(0xa0, 0x01), 0x01)\n        /* \"MSWAP/Games/Scratchers.sol\":20339:20365  _payToken == router.WETH() */\n      and\n        /* \"MSWAP/Games/Scratchers.sol\":20339:20348  _payToken */\n      dup11\n      sub(shl(0xa0, 0x01), 0x01)\n        /* \"MSWAP/Games/Scratchers.sol\":20339:20365  _payToken == router.WETH() */\n      and\n      eq\n        /* \"MSWAP/Games/Scratchers.sol\":20327:20365  !isToken || _payToken == router.WETH() */\n    tag_671:\n        /* \"MSWAP/Games/Scratchers.sol\":20324:20996  if(!isToken || _payToken == router.WETH()) {\r... */\n      iszero\n      tag_676\n      jumpi\n        /* \"MSWAP/Games/Scratchers.sol\":20390:20422  payable(msg.sender).send(amount) */\n      mload(0x40)\n        /* \"MSWAP/Games/Scratchers.sol\":20398:20408  msg.sender */\n      caller\n      swap1\n        /* \"MSWAP/Games/Scratchers.sol\":20390:20422  payable(msg.sender).send(amount) */\n      dup7\n      iszero\n      0x08fc\n      mul\n      swap1\n        /* \"MSWAP/Games/Scratchers.sol\":20415:20421  amount */\n      dup8\n      swap1\n        /* \"MSWAP/Games/Scratchers.sol\":20390:20422  payable(msg.sender).send(amount) */\n      0x00\n      dup2\n      dup2\n      dup2\n        /* \"MSWAP/Games/Scratchers.sol\":20415:20421  amount */\n      dup6\n        /* \"MSWAP/Games/Scratchers.sol\":20398:20408  msg.sender */\n      dup9\n        /* \"MSWAP/Games/Scratchers.sol\":20390:20422  payable(msg.sender).send(amount) */\n      dup9\n      call\n      swap4\n      pop\n      pop\n      pop\n      pop\n        /* \"MSWAP/Games/Scratchers.sol\":20382:20423  require(payable(msg.sender).send(amount)) */\n      tag_678\n      jumpi\n      0x00\n      dup1\n      revert\n    tag_678:\n        /* \"MSWAP/Games/Scratchers.sol\":20324:20996  if(!isToken || _payToken == router.WETH()) {\r... */\n      jump(tag_679)\n    tag_676:\n        /* \"MSWAP/Games/Scratchers.sol\":20474:20513  IERC20(_payToken).balanceOf(msg.sender) */\n      mload(0x40)\n      shl(0xe0, 0x70a08231)\n      dup2\n      mstore\n        /* \"MSWAP/Games/Scratchers.sol\":20502:20512  msg.sender */\n      caller\n        /* \"MSWAP/Games/Scratchers.sol\":20474:20513  IERC20(_payToken).balanceOf(msg.sender) */\n      0x04\n      dup3\n      add\n        /* \"#utility.yul\":4256:4307   */\n      mstore\n        /* \"MSWAP/Games/Scratchers.sol\":20456:20471  uint256 preSwap */\n      0x00\n      swap1\n      sub(shl(0xa0, 0x01), 0x01)\n        /* \"MSWAP/Games/Scratchers.sol\":20474:20501  IERC20(_payToken).balanceOf */\n      dup13\n      and\n      swap1\n      0x70a08231\n      swap1\n        /* \"#utility.yul\":4229:4247   */\n      0x24\n      add\n        /* \"MSWAP/Games/Scratchers.sol\":20474:20513  IERC20(_payToken).balanceOf(msg.sender) */\n      0x20\n      mload(0x40)\n      dup1\n      dup4\n      sub\n      dup2\n      dup7\n      dup1\n      extcodesize\n      iszero\n      dup1\n      iszero\n      tag_681\n      jumpi\n      0x00\n      dup1\n      revert\n    tag_681:\n      pop\n      gas\n      staticcall\n      iszero\n      dup1\n      iszero\n      tag_683\n      jumpi\n      returndatasize\n      0x00\n      dup1\n      returndatacopy\n      revert(0x00, returndatasize)\n    tag_683:\n      pop\n      pop\n      pop\n      pop\n      mload(0x40)\n      returndatasize\n      not(0x1f)\n      0x1f\n      dup3\n      add\n      and\n      dup3\n      add\n      dup1\n      0x40\n      mstore\n      pop\n      dup2\n      add\n      swap1\n      tag_684\n      swap2\n      swap1\n      tag_434\n      jump\t// in\n    tag_684:\n        /* \"MSWAP/Games/Scratchers.sol\":20552:20568  new address[](2) */\n      0x40\n      dup1\n      mload\n        /* \"MSWAP/Games/Scratchers.sol\":20566:20567  2 */\n      0x02\n        /* \"MSWAP/Games/Scratchers.sol\":20552:20568  new address[](2) */\n      dup1\n      dup3\n      mstore\n      0x60\n      dup3\n      add\n      dup4\n      mstore\n        /* \"MSWAP/Games/Scratchers.sol\":20456:20513  uint256 preSwap = IERC20(_payToken).balanceOf(msg.sender) */\n      swap3\n      swap4\n      pop\n        /* \"MSWAP/Games/Scratchers.sol\":20528:20549  address[] memory path */\n      0x00\n      swap3\n        /* \"MSWAP/Games/Scratchers.sol\":20552:20568  new address[](2) */\n      swap1\n      swap2\n      0x20\n      dup4\n      add\n      swap1\n      dup1\n      calldatasize\n      dup4\n      calldatacopy\n      pop\n      pop\n        /* \"MSWAP/Games/Scratchers.sol\":20601:20607  router */\n      sload(0x02)\n        /* \"MSWAP/Games/Scratchers.sol\":20601:20614  router.WETH() */\n      0x40\n      dup1\n      mload\n      shl(0xe3, 0x15ab88c9)\n      dup2\n      mstore\n      swap1\n      mload\n        /* \"MSWAP/Games/Scratchers.sol\":20528:20568  address[] memory path = new address[](2) */\n      swap4\n      swap5\n      pop\n      sub(shl(0xa0, 0x01), 0x01)\n        /* \"MSWAP/Games/Scratchers.sol\":20601:20607  router */\n      swap1\n      swap2\n      and\n      swap3\n        /* \"MSWAP/Games/Scratchers.sol\":20601:20612  router.WETH */\n      0xad5c4648\n      swap3\n      pop\n        /* \"MSWAP/Games/Scratchers.sol\":20601:20614  router.WETH() */\n      0x04\n      dup1\n      dup4\n      add\n      swap3\n      0x20\n      swap3\n      swap2\n      swap1\n      dup3\n      swap1\n      sub\n      add\n      dup2\n        /* \"MSWAP/Games/Scratchers.sol\":20601:20607  router */\n      dup7\n        /* \"MSWAP/Games/Scratchers.sol\":20601:20614  router.WETH() */\n      dup1\n      extcodesize\n      iszero\n      dup1\n      iszero\n      tag_688\n      jumpi\n      0x00\n      dup1\n      revert\n    tag_688:\n      pop\n      gas\n      staticcall\n      iszero\n      dup1\n      iszero\n      tag_690\n      jumpi\n      returndatasize\n      0x00\n      dup1\n      returndatacopy\n      revert(0x00, returndatasize)\n    tag_690:\n      pop\n      pop\n      pop\n      pop\n      mload(0x40)\n      returndatasize\n      not(0x1f)\n      0x1f\n      dup3\n      add\n      and\n      dup3\n      add\n      dup1\n      0x40\n      mstore\n      pop\n      dup2\n      add\n      swap1\n      tag_691\n      swap2\n      swap1\n      tag_298\n      jump\t// in\n    tag_691:\n        /* \"MSWAP/Games/Scratchers.sol\":20591:20595  path */\n      dup2\n        /* \"MSWAP/Games/Scratchers.sol\":20596:20597  0 */\n      0x00\n        /* \"MSWAP/Games/Scratchers.sol\":20591:20598  path[0] */\n      dup2\n      mload\n      dup2\n      lt\n      tag_693\n      jumpi\n      tag_693\n      tag_363\n      jump\t// in\n    tag_693:\n      0x20\n      mul\n      0x20\n      add\n      add\n        /* \"MSWAP/Games/Scratchers.sol\":20591:20614  path[0] = router.WETH() */\n      swap1\n      sub(shl(0xa0, 0x01), 0x01)\n      and\n      swap1\n      dup2\n      sub(shl(0xa0, 0x01), 0x01)\n      and\n      dup2\n      mstore\n      pop\n      pop\n        /* \"MSWAP/Games/Scratchers.sol\":20647:20656  _payToken */\n      dup12\n        /* \"MSWAP/Games/Scratchers.sol\":20637:20641  path */\n      dup2\n        /* \"MSWAP/Games/Scratchers.sol\":20642:20643  1 */\n      0x01\n        /* \"MSWAP/Games/Scratchers.sol\":20637:20644  path[1] */\n      dup2\n      mload\n      dup2\n      lt\n      tag_695\n      jumpi\n      tag_695\n      tag_363\n      jump\t// in\n    tag_695:\n      sub(shl(0xa0, 0x01), 0x01)\n        /* \"MSWAP/Games/Scratchers.sol\":20637:20656  path[1] = _payToken */\n      swap3\n      dup4\n      and\n        /* \"MSWAP/Games/Scratchers.sol\":20637:20644  path[1] */\n      0x20\n      swap2\n      dup3\n      mul\n      swap3\n      swap1\n      swap3\n      add\n      add\n        /* \"MSWAP/Games/Scratchers.sol\":20637:20656  path[1] = _payToken */\n      mstore\n        /* \"MSWAP/Games/Scratchers.sol\":20671:20677  router */\n      sload(0x02)\n        /* \"MSWAP/Games/Scratchers.sol\":20671:20864  router.swapExactETHForTokensSupportingFeeOnTransferTokens{value: amount}(\r... */\n      mload(0x40)\n      shl(0xe0, 0xb6f9de95)\n      dup2\n      mstore\n        /* \"MSWAP/Games/Scratchers.sol\":20671:20677  router */\n      swap2\n      and\n      swap1\n        /* \"MSWAP/Games/Scratchers.sol\":20671:20728  router.swapExactETHForTokensSupportingFeeOnTransferTokens */\n      0xb6f9de95\n      swap1\n        /* \"MSWAP/Games/Scratchers.sol\":20736:20742  amount */\n      dup10\n      swap1\n        /* \"MSWAP/Games/Scratchers.sol\":20671:20864  router.swapExactETHForTokensSupportingFeeOnTransferTokens{value: amount}(\r... */\n      tag_696\n      swap1\n        /* \"MSWAP/Games/Scratchers.sol\":20671:20677  router */\n      0x00\n      swap1\n        /* \"MSWAP/Games/Scratchers.sol\":20782:20786  path */\n      dup7\n      swap1\n        /* \"MSWAP/Games/Scratchers.sol\":20805:20815  msg.sender */\n      caller\n      swap1\n        /* \"MSWAP/Games/Scratchers.sol\":20834:20849  block.timestamp */\n      timestamp\n      swap1\n        /* \"MSWAP/Games/Scratchers.sol\":20671:20864  router.swapExactETHForTokensSupportingFeeOnTransferTokens{value: amount}(\r... */\n      0x04\n      add\n      tag_697\n      jump\t// in\n    tag_696:\n      0x00\n      mload(0x40)\n      dup1\n      dup4\n      sub\n      dup2\n      dup6\n      dup9\n      dup1\n      extcodesize\n      iszero\n      dup1\n      iszero\n      tag_698\n      jumpi\n      0x00\n      dup1\n      revert\n    tag_698:\n      pop\n      gas\n      call\n      iszero\n      dup1\n      iszero\n      tag_700\n      jumpi\n      returndatasize\n      0x00\n      dup1\n      returndatacopy\n      revert(0x00, returndatasize)\n    tag_700:\n      pop\n      pop\n      pop\n      pop\n      pop\n        /* \"MSWAP/Games/Scratchers.sol\":20881:20897  uint256 postSwap */\n      0x00\n        /* \"MSWAP/Games/Scratchers.sol\":20907:20916  _payToken */\n      dup13\n      sub(shl(0xa0, 0x01), 0x01)\n        /* \"MSWAP/Games/Scratchers.sol\":20900:20927  IERC20(_payToken).balanceOf */\n      and\n      0x70a08231\n        /* \"MSWAP/Games/Scratchers.sol\":20928:20938  msg.sender */\n      caller\n        /* \"MSWAP/Games/Scratchers.sol\":20900:20939  IERC20(_payToken).balanceOf(msg.sender) */\n      mload(0x40)\n      dup3\n      0xffffffff\n      and\n      0xe0\n      shl\n      dup2\n      mstore\n      0x04\n      add\n      tag_701\n      swap2\n      swap1\n      sub(shl(0xa0, 0x01), 0x01)\n        /* \"#utility.yul\":4274:4306   */\n      swap2\n      swap1\n      swap2\n      and\n        /* \"#utility.yul\":4256:4307   */\n      dup2\n      mstore\n        /* \"#utility.yul\":4244:4246   */\n      0x20\n        /* \"#utility.yul\":4229:4247   */\n      add\n      swap1\n        /* \"#utility.yul\":4110:4313   */\n      jump\n        /* \"MSWAP/Games/Scratchers.sol\":20900:20939  IERC20(_payToken).balanceOf(msg.sender) */\n    tag_701:\n      0x20\n      mload(0x40)\n      dup1\n      dup4\n      sub\n      dup2\n      dup7\n      dup1\n      extcodesize\n      iszero\n      dup1\n      iszero\n      tag_702\n      jumpi\n      0x00\n      dup1\n      revert\n    tag_702:\n      pop\n      gas\n      staticcall\n      iszero\n      dup1\n      iszero\n      tag_704\n      jumpi\n      returndatasize\n      0x00\n      dup1\n      returndatacopy\n      revert(0x00, returndatasize)\n    tag_704:\n      pop\n      pop\n      pop\n      pop\n      mload(0x40)\n      returndatasize\n      not(0x1f)\n      0x1f\n      dup3\n      add\n      and\n      dup3\n      add\n      dup1\n      0x40\n      mstore\n      pop\n      dup2\n      add\n      swap1\n      tag_705\n      swap2\n      swap1\n      tag_434\n      jump\t// in\n    tag_705:\n        /* \"MSWAP/Games/Scratchers.sol\":20881:20939  uint256 postSwap = IERC20(_payToken).balanceOf(msg.sender) */\n      swap1\n      pop\n        /* \"MSWAP/Games/Scratchers.sol\":20963:20981  postSwap - preSwap */\n      tag_706\n        /* \"MSWAP/Games/Scratchers.sol\":20974:20981  preSwap */\n      dup4\n        /* \"MSWAP/Games/Scratchers.sol\":20881:20939  uint256 postSwap = IERC20(_payToken).balanceOf(msg.sender) */\n      dup3\n        /* \"MSWAP/Games/Scratchers.sol\":20963:20981  postSwap - preSwap */\n      tag_305\n      jump\t// in\n    tag_706:\n        /* \"MSWAP/Games/Scratchers.sol\":20954:20981  amount = postSwap - preSwap */\n      swap8\n      pop\n        /* \"MSWAP/Games/Scratchers.sol\":20441:20996  {\r... */\n      pop\n      pop\n      pop\n        /* \"MSWAP/Games/Scratchers.sol\":20324:20996  if(!isToken || _payToken == router.WETH()) {\r... */\n    tag_679:\n        /* \"MSWAP/Games/Scratchers.sol\":21063:21164  History(block.timestamp, ticketNumber, msg.sender, addToPot, token, amount, multiplier[ticketPicked]) */\n      mload(0x40)\n      dup1\n      0xe0\n      add\n      0x40\n      mstore\n      dup1\n        /* \"MSWAP/Games/Scratchers.sol\":21071:21086  block.timestamp */\n      timestamp\n        /* \"MSWAP/Games/Scratchers.sol\":21063:21164  History(block.timestamp, ticketNumber, msg.sender, addToPot, token, amount, multiplier[ticketPicked]) */\n      dup2\n      mstore\n      0x20\n      add\n        /* \"MSWAP/Games/Scratchers.sol\":21088:21100  ticketNumber */\n      sload(0x0f)\n        /* \"MSWAP/Games/Scratchers.sol\":21063:21164  History(block.timestamp, ticketNumber, msg.sender, addToPot, token, amount, multiplier[ticketPicked]) */\n      dup2\n      mstore\n      0x20\n      add\n        /* \"MSWAP/Games/Scratchers.sol\":21102:21112  msg.sender */\n      caller\n      sub(shl(0xa0, 0x01), 0x01)\n        /* \"MSWAP/Games/Scratchers.sol\":21063:21164  History(block.timestamp, ticketNumber, msg.sender, addToPot, token, amount, multiplier[ticketPicked]) */\n      and\n      dup2\n      mstore\n      0x20\n      add\n        /* \"MSWAP/Games/Scratchers.sol\":21114:21122  addToPot */\n      dup9\n        /* \"MSWAP/Games/Scratchers.sol\":21063:21164  History(block.timestamp, ticketNumber, msg.sender, addToPot, token, amount, multiplier[ticketPicked]) */\n      dup2\n      mstore\n      0x20\n      add\n        /* \"MSWAP/Games/Scratchers.sol\":21124:21129  token */\n      dup8\n      sub(shl(0xa0, 0x01), 0x01)\n        /* \"MSWAP/Games/Scratchers.sol\":21063:21164  History(block.timestamp, ticketNumber, msg.sender, addToPot, token, amount, multiplier[ticketPicked]) */\n      and\n      dup2\n      mstore\n      0x20\n      add\n        /* \"MSWAP/Games/Scratchers.sol\":21131:21137  amount */\n      dup7\n        /* \"MSWAP/Games/Scratchers.sol\":21063:21164  History(block.timestamp, ticketNumber, msg.sender, addToPot, token, amount, multiplier[ticketPicked]) */\n      dup2\n      mstore\n      0x20\n      add\n        /* \"MSWAP/Games/Scratchers.sol\":21139:21149  multiplier */\n      0x0a\n        /* \"MSWAP/Games/Scratchers.sol\":21150:21162  ticketPicked */\n      dup5\n        /* \"MSWAP/Games/Scratchers.sol\":21139:21163  multiplier[ticketPicked] */\n      dup2\n      sload\n      dup2\n      lt\n      tag_708\n      jumpi\n      tag_708\n      tag_363\n      jump\t// in\n    tag_708:\n      0x00\n      swap2\n      dup3\n      mstore\n      0x20\n      dup1\n      dup4\n      keccak256\n      swap1\n      swap2\n      add\n      sload\n        /* \"MSWAP/Games/Scratchers.sol\":21063:21164  History(block.timestamp, ticketNumber, msg.sender, addToPot, token, amount, multiplier[ticketPicked]) */\n      swap1\n      swap3\n      mstore\n        /* \"MSWAP/Games/Scratchers.sol\":21047:21059  ticketNumber */\n      0x0f\n      dup1\n      sload\n        /* \"MSWAP/Games/Scratchers.sol\":21032:21060  scratchHistory[ticketNumber] */\n      dup3\n      mstore\n        /* \"MSWAP/Games/Scratchers.sol\":21032:21046  scratchHistory */\n      0x16\n        /* \"MSWAP/Games/Scratchers.sol\":21032:21060  scratchHistory[ticketNumber] */\n      dup4\n      mstore\n      0x40\n      swap2\n      dup3\n      swap1\n      keccak256\n        /* \"MSWAP/Games/Scratchers.sol\":21032:21164  scratchHistory[ticketNumber] = History(block.timestamp, ticketNumber, msg.sender, addToPot, token, amount, multiplier[ticketPicked]) */\n      dup5\n      mload\n      dup2\n      sstore\n      swap3\n      dup5\n      add\n      mload\n      0x01\n      dup5\n      add\n      sstore\n      swap1\n      dup4\n      add\n      mload\n      0x02\n      dup4\n      add\n      dup1\n      sload\n      sub(shl(0xa0, 0x01), 0x01)\n      swap3\n      dup4\n      and\n      not(sub(shl(0xa0, 0x01), 0x01))\n      swap2\n      dup3\n      and\n      or\n      swap1\n      swap2\n      sstore\n      0x60\n      dup6\n      add\n      mload\n      0x03\n      dup6\n      add\n      sstore\n      0x80\n      dup6\n      add\n      mload\n      0x04\n      dup6\n      add\n      dup1\n      sload\n      swap2\n      swap1\n      swap4\n      and\n      swap2\n      and\n      or\n      swap1\n      sstore\n      0xa0\n      dup4\n      add\n      mload\n      0x05\n      dup4\n      add\n      sstore\n      0xc0\n      swap1\n      swap3\n      add\n      mload\n      0x06\n      swap1\n      swap2\n      add\n      sstore\n        /* \"MSWAP/Games/Scratchers.sol\":21197:21209  ticketNumber */\n      sload\n        /* \"MSWAP/Games/Scratchers.sol\":21248:21258  multiplier */\n      0x0a\n        /* \"MSWAP/Games/Scratchers.sol\":21248:21272  multiplier[ticketPicked] */\n      dup1\n      sload\n      0x00\n      dup1\n      mload\n      0x20\n      data_ddc6cb00969b718fd3f777dbdb4a70f4eeccab52c15e5252acac51881b2a4bfd\n      dup4\n      codecopy\n      dup2\n      mload\n      swap2\n      mstore\n        /* \"MSWAP/Games/Scratchers.sol\":21182:21273  ticketPurchase(ticketNumber, msg.sender, addToPot, token, amount, multiplier[ticketPicked]) */\n      swap3\n        /* \"MSWAP/Games/Scratchers.sol\":21197:21209  ticketNumber */\n      swap2\n        /* \"MSWAP/Games/Scratchers.sol\":21211:21221  msg.sender */\n      caller\n      swap2\n        /* \"MSWAP/Games/Scratchers.sol\":21223:21231  addToPot */\n      dup12\n      swap2\n        /* \"MSWAP/Games/Scratchers.sol\":21233:21238  token */\n      dup12\n      swap2\n        /* \"MSWAP/Games/Scratchers.sol\":21240:21246  amount */\n      dup12\n      swap2\n        /* \"MSWAP/Games/Scratchers.sol\":21248:21258  multiplier */\n      swap1\n        /* \"MSWAP/Games/Scratchers.sol\":21259:21271  ticketPicked */\n      dup10\n      swap1\n        /* \"MSWAP/Games/Scratchers.sol\":21248:21272  multiplier[ticketPicked] */\n      dup2\n      lt\n      tag_711\n      jumpi\n      tag_711\n      tag_363\n      jump\t// in\n    tag_711:\n      swap1\n      0x00\n      mstore\n      keccak256(0x00, 0x20)\n      add\n      sload\n        /* \"MSWAP/Games/Scratchers.sol\":21182:21273  ticketPurchase(ticketNumber, msg.sender, addToPot, token, amount, multiplier[ticketPicked]) */\n      mload(0x40)\n      tag_713\n      swap7\n      swap6\n      swap5\n      swap4\n      swap3\n      swap2\n      swap1\n      tag_618\n      jump\t// in\n    tag_713:\n      mload(0x40)\n      dup1\n      swap2\n      sub\n      swap1\n      log1\n        /* \"MSWAP/Games/Scratchers.sol\":21292:21304  ticketNumber */\n      sload(0x0f)\n        /* \"MSWAP/Games/Scratchers.sol\":21306:21316  msg.sender */\n      caller\n        /* \"MSWAP/Games/Scratchers.sol\":21318:21326  addToPot */\n      dup9\n        /* \"MSWAP/Games/Scratchers.sol\":21328:21333  token */\n      dup9\n        /* \"MSWAP/Games/Scratchers.sol\":21335:21341  amount */\n      dup9\n        /* \"MSWAP/Games/Scratchers.sol\":21343:21353  multiplier */\n      0x0a\n        /* \"MSWAP/Games/Scratchers.sol\":21354:21366  ticketPicked */\n      dup8\n        /* \"MSWAP/Games/Scratchers.sol\":21343:21367  multiplier[ticketPicked] */\n      dup2\n      sload\n      dup2\n      lt\n      tag_715\n      jumpi\n      tag_715\n      tag_363\n      jump\t// in\n    tag_715:\n      swap1\n      0x00\n      mstore\n      keccak256(0x00, 0x20)\n      add\n      sload\n        /* \"MSWAP/Games/Scratchers.sol\":21284:21368  return (ticketNumber, msg.sender, addToPot, token, amount, multiplier[ticketPicked]) */\n      swap9\n      pop\n      swap9\n      pop\n      swap9\n      pop\n      swap9\n      pop\n      swap9\n      pop\n      swap9\n      pop\n      pop\n      pop\n      pop\n        /* \"MSWAP/Games/Scratchers.sol\":13330:13331  _ */\n    tag_574:\n        /* \"MSWAP/Games/Scratchers.sol\":17554:21386  function buyScratcher(address _payToken) public payable pausable returns (uint256 ticket, address player, uint256 addToPot, address token, uint256 amount, uint256 _multiplier) {\r... */\n      swap2\n      swap4\n      swap6\n      pop\n      swap2\n      swap4\n      swap6\n      jump\t// out\n        /* \"MSWAP/Games/Scratchers.sol\":5897:6098  function transferOwnership(address newOwner) public virtual onlyOwner {\r... */\n    tag_277:\n        /* \"MSWAP/Games/Scratchers.sol\":4877:4890  _checkOwner() */\n      tag_718\n        /* \"MSWAP/Games/Scratchers.sol\":4877:4888  _checkOwner */\n      tag_292\n        /* \"MSWAP/Games/Scratchers.sol\":4877:4890  _checkOwner() */\n      jump\t// in\n    tag_718:\n      sub(shl(0xa0, 0x01), 0x01)\n        /* \"MSWAP/Games/Scratchers.sol\":5986:6008  newOwner != address(0) */\n      dup2\n      and\n        /* \"MSWAP/Games/Scratchers.sol\":5978:6051  require(newOwner != address(0), \"Ownable: new owner is the zero address\") */\n      tag_720\n      jumpi\n      mload(0x40)\n      shl(0xe5, 0x461bcd)\n      dup2\n      mstore\n        /* \"#utility.yul\":9278:9280   */\n      0x20\n        /* \"MSWAP/Games/Scratchers.sol\":5978:6051  require(newOwner != address(0), \"Ownable: new owner is the zero address\") */\n      0x04\n      dup3\n      add\n        /* \"#utility.yul\":9260:9281   */\n      mstore\n        /* \"#utility.yul\":9317:9319   */\n      0x26\n        /* \"#utility.yul\":9297:9315   */\n      0x24\n      dup3\n      add\n        /* \"#utility.yul\":9290:9320   */\n      mstore\n        /* \"#utility.yul\":9356:9390   */\n      0x4f776e61626c653a206e6577206f776e657220697320746865207a65726f2061\n        /* \"#utility.yul\":9336:9354   */\n      0x44\n      dup3\n      add\n        /* \"#utility.yul\":9329:9391   */\n      mstore\n      shl(0xd0, 0x646472657373)\n        /* \"#utility.yul\":9407:9425   */\n      0x64\n      dup3\n      add\n        /* \"#utility.yul\":9400:9436   */\n      mstore\n        /* \"#utility.yul\":9453:9472   */\n      0x84\n      add\n        /* \"MSWAP/Games/Scratchers.sol\":5978:6051  require(newOwner != address(0), \"Ownable: new owner is the zero address\") */\n      tag_300\n        /* \"#utility.yul\":9076:9478   */\n      jump\n        /* \"MSWAP/Games/Scratchers.sol\":5978:6051  require(newOwner != address(0), \"Ownable: new owner is the zero address\") */\n    tag_720:\n        /* \"MSWAP/Games/Scratchers.sol\":6062:6090  _transferOwnership(newOwner) */\n      tag_378\n        /* \"MSWAP/Games/Scratchers.sol\":6081:6089  newOwner */\n      dup2\n        /* \"MSWAP/Games/Scratchers.sol\":6062:6080  _transferOwnership */\n      tag_470\n        /* \"MSWAP/Games/Scratchers.sol\":6062:6090  _transferOwnership(newOwner) */\n      jump\t// in\n        /* \"MSWAP/Games/Scratchers.sol\":10224:10489  function setNFT(address newNFTContract) external onlyOwner {\r... */\n    tag_281:\n        /* \"MSWAP/Games/Scratchers.sol\":4877:4890  _checkOwner() */\n      tag_725\n        /* \"MSWAP/Games/Scratchers.sol\":4877:4888  _checkOwner */\n      tag_292\n        /* \"MSWAP/Games/Scratchers.sol\":4877:4890  _checkOwner() */\n      jump\t// in\n    tag_725:\n        /* \"MSWAP/Games/Scratchers.sol\":10298:10308  currentNFT */\n      0x11\n        /* \"MSWAP/Games/Scratchers.sol\":10298:10325  currentNFT = newNFTContract */\n      dup1\n      sload\n      not(sub(shl(0xa0, 0x01), 0x01))\n      and\n      sub(shl(0xa0, 0x01), 0x01)\n      dup4\n      and\n      swap1\n      dup2\n      or\n      swap1\n      swap2\n      sstore\n        /* \"MSWAP/Games/Scratchers.sol\":10396:10421  nftContract.subOperator() */\n      0x40\n      dup1\n      mload\n      shl(0xe0, 0xf6a15d71)\n      dup2\n      mstore\n      swap1\n      mload\n        /* \"MSWAP/Games/Scratchers.sol\":10433:10437  this */\n      address\n      swap2\n        /* \"MSWAP/Games/Scratchers.sol\":10298:10325  currentNFT = newNFTContract */\n      dup4\n      swap2\n        /* \"MSWAP/Games/Scratchers.sol\":10396:10419  nftContract.subOperator */\n      0xf6a15d71\n      swap2\n        /* \"MSWAP/Games/Scratchers.sol\":10396:10421  nftContract.subOperator() */\n      0x04\n      dup1\n      dup3\n      add\n      swap3\n      0x20\n      swap3\n      swap1\n      swap2\n      swap1\n      dup3\n      swap1\n      sub\n      add\n      dup2\n        /* \"MSWAP/Games/Scratchers.sol\":10298:10325  currentNFT = newNFTContract */\n      dup7\n        /* \"MSWAP/Games/Scratchers.sol\":10396:10421  nftContract.subOperator() */\n      dup1\n      extcodesize\n      iszero\n      dup1\n      iszero\n      tag_727\n      jumpi\n      0x00\n      dup1\n      revert\n    tag_727:\n      pop\n      gas\n      staticcall\n      iszero\n      dup1\n      iszero\n      tag_729\n      jumpi\n      returndatasize\n      0x00\n      dup1\n      returndatacopy\n      revert(0x00, returndatasize)\n    tag_729:\n      pop\n      pop\n      pop\n      pop\n      mload(0x40)\n      returndatasize\n      not(0x1f)\n      0x1f\n      dup3\n      add\n      and\n      dup3\n      add\n      dup1\n      0x40\n      mstore\n      pop\n      dup2\n      add\n      swap1\n      tag_730\n      swap2\n      swap1\n      tag_298\n      jump\t// in\n    tag_730:\n      sub(shl(0xa0, 0x01), 0x01)\n        /* \"MSWAP/Games/Scratchers.sol\":10396:10438  nftContract.subOperator() == address(this) */\n      and\n      eq\n        /* \"MSWAP/Games/Scratchers.sol\":10388:10477  require(nftContract.subOperator() == address(this), \"Must be subOp for the NFT contract\") */\n      tag_546\n      jumpi\n      mload(0x40)\n      shl(0xe5, 0x461bcd)\n      dup2\n      mstore\n        /* \"#utility.yul\":11403:11405   */\n      0x20\n        /* \"MSWAP/Games/Scratchers.sol\":10388:10477  require(nftContract.subOperator() == address(this), \"Must be subOp for the NFT contract\") */\n      0x04\n      dup3\n      add\n        /* \"#utility.yul\":11385:11406   */\n      mstore\n        /* \"#utility.yul\":11442:11444   */\n      0x22\n        /* \"#utility.yul\":11422:11440   */\n      0x24\n      dup3\n      add\n        /* \"#utility.yul\":11415:11445   */\n      mstore\n        /* \"#utility.yul\":11481:11515   */\n      0x4d757374206265207375624f7020666f7220746865204e465420636f6e747261\n        /* \"#utility.yul\":11461:11479   */\n      0x44\n      dup3\n      add\n        /* \"#utility.yul\":11454:11516   */\n      mstore\n      shl(0xf2, 0x18dd)\n        /* \"#utility.yul\":11532:11550   */\n      0x64\n      dup3\n      add\n        /* \"#utility.yul\":11525:11557   */\n      mstore\n        /* \"#utility.yul\":11574:11593   */\n      0x84\n      add\n        /* \"MSWAP/Games/Scratchers.sol\":10388:10477  require(nftContract.subOperator() == address(this), \"Must be subOp for the NFT contract\") */\n      tag_300\n        /* \"#utility.yul\":11201:11599   */\n      jump\n        /* \"MSWAP/Games/Scratchers.sol\":14348:14788  function getMaxWinSize(uint256 bet) public view returns(uint256 av_Winners, uint256 newChancePer) {\r... */\n    tag_285:\n        /* \"MSWAP/Games/Scratchers.sol\":14404:14422  uint256 av_Winners */\n      0x00\n        /* \"MSWAP/Games/Scratchers.sol\":14424:14444  uint256 newChancePer */\n      dup1\n        /* \"MSWAP/Games/Scratchers.sol\":14457:14472  uint256 balance */\n      0x00\n        /* \"MSWAP/Games/Scratchers.sol\":14499:14506  jackPot */\n      sload(0x0e)\n        /* \"MSWAP/Games/Scratchers.sol\":14475:14496  address(this).balance */\n      selfbalance\n        /* \"MSWAP/Games/Scratchers.sol\":14475:14506  address(this).balance - jackPot */\n      tag_735\n      swap2\n      swap1\n      tag_305\n      jump\t// in\n    tag_735:\n        /* \"MSWAP/Games/Scratchers.sol\":14457:14506  uint256 balance = address(this).balance - jackPot */\n      swap1\n      pop\n        /* \"MSWAP/Games/Scratchers.sol\":14528:14529  0 */\n      0x00\n        /* \"MSWAP/Games/Scratchers.sol\":14517:14529  av_Winners=0 */\n      swap3\n      pop\n        /* \"MSWAP/Games/Scratchers.sol\":14555:14556  0 */\n      0x00\n        /* \"MSWAP/Games/Scratchers.sol\":14540:14556  newChancePer = 0 */\n      swap2\n      pop\n        /* \"MSWAP/Games/Scratchers.sol\":14571:14577  uint i */\n      0x00\n        /* \"MSWAP/Games/Scratchers.sol\":14567:14781  for(uint i=0; i < multiplier.length; i++) {\r... */\n    tag_736:\n        /* \"MSWAP/Games/Scratchers.sol\":14585:14595  multiplier */\n      0x0a\n        /* \"MSWAP/Games/Scratchers.sol\":14585:14602  multiplier.length */\n      sload\n        /* \"MSWAP/Games/Scratchers.sol\":14581:14602  i < multiplier.length */\n      dup2\n      lt\n        /* \"MSWAP/Games/Scratchers.sol\":14567:14781  for(uint i=0; i < multiplier.length; i++) {\r... */\n      iszero\n      tag_737\n      jumpi\n        /* \"MSWAP/Games/Scratchers.sol\":14660:14676  safetyMultiplier */\n      sload(0x0d)\n        /* \"MSWAP/Games/Scratchers.sol\":14644:14654  multiplier */\n      0x0a\n        /* \"MSWAP/Games/Scratchers.sol\":14655:14656  i */\n      dup3\n        /* \"MSWAP/Games/Scratchers.sol\":14644:14657  multiplier[i] */\n      dup2\n      sload\n      dup2\n      lt\n      tag_740\n      jumpi\n      tag_740\n      tag_363\n      jump\t// in\n    tag_740:\n      swap1\n      0x00\n      mstore\n      keccak256(0x00, 0x20)\n      add\n      sload\n        /* \"MSWAP/Games/Scratchers.sol\":14638:14641  bet */\n      dup7\n        /* \"MSWAP/Games/Scratchers.sol\":14638:14657  bet * multiplier[i] */\n      tag_742\n      swap2\n      swap1\n      tag_322\n      jump\t// in\n    tag_742:\n        /* \"MSWAP/Games/Scratchers.sol\":14638:14676  bet * multiplier[i] * safetyMultiplier */\n      tag_743\n      swap2\n      swap1\n      tag_322\n      jump\t// in\n    tag_743:\n        /* \"MSWAP/Games/Scratchers.sol\":14627:14634  balance */\n      dup3\n        /* \"MSWAP/Games/Scratchers.sol\":14627:14676  balance >= bet * multiplier[i] * safetyMultiplier */\n      lt\n        /* \"MSWAP/Games/Scratchers.sol\":14624:14770  if(balance >= bet * multiplier[i] * safetyMultiplier) {\r... */\n      tag_744\n      jumpi\n        /* \"MSWAP/Games/Scratchers.sol\":14697:14712  av_Winners += 1 */\n      tag_745\n        /* \"MSWAP/Games/Scratchers.sol\":14711:14712  1 */\n      0x01\n        /* \"MSWAP/Games/Scratchers.sol\":14697:14712  av_Winners += 1 */\n      dup6\n      tag_334\n      jump\t// in\n    tag_745:\n      swap4\n      pop\n        /* \"MSWAP/Games/Scratchers.sol\":14747:14751  odds */\n      0x0b\n        /* \"MSWAP/Games/Scratchers.sol\":14752:14753  i */\n      dup2\n        /* \"MSWAP/Games/Scratchers.sol\":14747:14754  odds[i] */\n      dup2\n      sload\n      dup2\n      lt\n      tag_747\n      jumpi\n      tag_747\n      tag_363\n      jump\t// in\n    tag_747:\n      swap1\n      0x00\n      mstore\n      keccak256(0x00, 0x20)\n      add\n      sload\n        /* \"MSWAP/Games/Scratchers.sol\":14731:14754  newChancePer += odds[i] */\n      dup4\n      tag_749\n      swap2\n      swap1\n      tag_334\n      jump\t// in\n    tag_749:\n      swap3\n      pop\n        /* \"MSWAP/Games/Scratchers.sol\":14624:14770  if(balance >= bet * multiplier[i] * safetyMultiplier) {\r... */\n    tag_744:\n        /* \"MSWAP/Games/Scratchers.sol\":14604:14607  i++ */\n      dup1\n      tag_750\n      dup2\n      tag_453\n      jump\t// in\n    tag_750:\n      swap2\n      pop\n      pop\n        /* \"MSWAP/Games/Scratchers.sol\":14567:14781  for(uint i=0; i < multiplier.length; i++) {\r... */\n      jump(tag_736)\n    tag_737:\n      pop\n        /* \"MSWAP/Games/Scratchers.sol\":14446:14788  {\r... */\n      pop\n        /* \"MSWAP/Games/Scratchers.sol\":14348:14788  function getMaxWinSize(uint256 bet) public view returns(uint256 av_Winners, uint256 newChancePer) {\r... */\n      swap2\n      pop\n      swap2\n      jump\t// out\n        /* \"MSWAP/Games/Scratchers.sol\":11136:11223  function injectJackPot() public payable {\r... */\n    tag_289:\n        /* \"MSWAP/Games/Scratchers.sol\":11202:11211  msg.value */\n      callvalue\n        /* \"MSWAP/Games/Scratchers.sol\":11191:11198  jackPot */\n      0x0e\n      0x00\n        /* \"MSWAP/Games/Scratchers.sol\":11191:11211  jackPot += msg.value */\n      dup3\n      dup3\n      sload\n      tag_752\n      swap2\n      swap1\n      tag_334\n      jump\t// in\n    tag_752:\n      swap1\n      swap2\n      sstore\n      pop\n      pop\n        /* \"MSWAP/Games/Scratchers.sol\":11136:11223  function injectJackPot() public payable {\r... */\n      jump\t// out\n        /* \"MSWAP/Games/Scratchers.sol\":5156:5288  function _checkOwner() internal view virtual {\r... */\n    tag_292:\n        /* \"MSWAP/Games/Scratchers.sol\":5037:5044  address */\n      0x00\n        /* \"MSWAP/Games/Scratchers.sol\":5064:5070  _owner */\n      sload\n      sub(shl(0xa0, 0x01), 0x01)\n      and\n        /* \"MSWAP/Games/Scratchers.sol\":3622:3632  msg.sender */\n      caller\n        /* \"MSWAP/Games/Scratchers.sol\":5220:5243  owner() == _msgSender() */\n      eq\n        /* \"MSWAP/Games/Scratchers.sol\":5212:5280  require(owner() == _msgSender(), \"Ownable: caller is not the owner\") */\n      tag_469\n      jumpi\n      mload(0x40)\n      shl(0xe5, 0x461bcd)\n      dup2\n      mstore\n        /* \"#utility.yul\":12151:12153   */\n      0x20\n        /* \"MSWAP/Games/Scratchers.sol\":5212:5280  require(owner() == _msgSender(), \"Ownable: caller is not the owner\") */\n      0x04\n      dup3\n      add\n        /* \"#utility.yul\":12133:12154   */\n      dup2\n      swap1\n      mstore\n        /* \"#utility.yul\":12170:12188   */\n      0x24\n      dup3\n      add\n        /* \"#utility.yul\":12163:12193   */\n      mstore\n        /* \"#utility.yul\":12229:12263   */\n      0x4f776e61626c653a2063616c6c6572206973206e6f7420746865206f776e6572\n        /* \"#utility.yul\":12209:12227   */\n      0x44\n      dup3\n      add\n        /* \"#utility.yul\":12202:12264   */\n      mstore\n        /* \"#utility.yul\":12281:12299   */\n      0x64\n      add\n        /* \"MSWAP/Games/Scratchers.sol\":5212:5280  require(owner() == _msgSender(), \"Ownable: caller is not the owner\") */\n      tag_300\n        /* \"#utility.yul\":11949:12305   */\n      jump\n        /* \"MSWAP/Games/Scratchers.sol\":6258:6449  function _transferOwnership(address newOwner) internal virtual {\r... */\n    tag_470:\n        /* \"MSWAP/Games/Scratchers.sol\":6332:6348  address oldOwner */\n      0x00\n        /* \"MSWAP/Games/Scratchers.sol\":6351:6357  _owner */\n      dup1\n      sload\n      sub(shl(0xa0, 0x01), 0x01)\n        /* \"MSWAP/Games/Scratchers.sol\":6368:6385  _owner = newOwner */\n      dup4\n      dup2\n      and\n      not(sub(shl(0xa0, 0x01), 0x01))\n      dup4\n      and\n      dup2\n      or\n      dup5\n      sstore\n        /* \"MSWAP/Games/Scratchers.sol\":6401:6441  OwnershipTransferred(oldOwner, newOwner) */\n      mload(0x40)\n        /* \"MSWAP/Games/Scratchers.sol\":6351:6357  _owner */\n      swap2\n      swap1\n      swap3\n      and\n      swap3\n      dup4\n      swap2\n        /* \"MSWAP/Games/Scratchers.sol\":6401:6441  OwnershipTransferred(oldOwner, newOwner) */\n      0x8be0079c531659141344cd1fd0a4f28419497f9722a3daafe3b4186f6b6457e0\n      swap2\n        /* \"MSWAP/Games/Scratchers.sol\":6332:6348  address oldOwner */\n      swap1\n        /* \"MSWAP/Games/Scratchers.sol\":6401:6441  OwnershipTransferred(oldOwner, newOwner) */\n      log3\n        /* \"MSWAP/Games/Scratchers.sol\":6321:6449  {\r... */\n      pop\n        /* \"MSWAP/Games/Scratchers.sol\":6258:6449  function _transferOwnership(address newOwner) internal virtual {\r... */\n      pop\n      jump\t// out\n    tag_462:\n      dup3\n      dup1\n      sload\n      dup3\n      dup3\n      sstore\n      swap1\n      0x00\n      mstore\n      keccak256(0x00, 0x20)\n      swap1\n      dup2\n      add\n      swap3\n      dup3\n      iszero\n      tag_764\n      jumpi\n      swap2\n      0x20\n      mul\n      dup3\n      add\n    tag_763:\n      dup3\n      dup2\n      gt\n      iszero\n      tag_764\n      jumpi\n      dup3\n      mload\n      dup3\n      sstore\n      swap2\n      0x20\n      add\n      swap2\n      swap1\n      0x01\n      add\n      swap1\n      jump(tag_763)\n    tag_764:\n      pop\n      tag_765\n      swap3\n      swap2\n      pop\n      tag_766\n      jump\t// in\n    tag_765:\n      pop\n      swap1\n      jump\t// out\n    tag_766:\n    tag_767:\n      dup1\n      dup3\n      gt\n      iszero\n      tag_765\n      jumpi\n      0x00\n      dup2\n      sstore\n      0x01\n      add\n      jump(tag_767)\n        /* \"#utility.yul\":14:927   */\n    tag_770:\n        /* \"#utility.yul\":68:73   */\n      0x00\n        /* \"#utility.yul\":121:124   */\n      dup3\n        /* \"#utility.yul\":114:118   */\n      0x1f\n        /* \"#utility.yul\":106:112   */\n      dup4\n        /* \"#utility.yul\":102:119   */\n      add\n        /* \"#utility.yul\":98:125   */\n      slt\n        /* \"#utility.yul\":88:143   */\n      tag_772\n      jumpi\n        /* \"#utility.yul\":139:140   */\n      0x00\n        /* \"#utility.yul\":136:137   */\n      dup1\n        /* \"#utility.yul\":129:141   */\n      revert\n        /* \"#utility.yul\":88:143   */\n    tag_772:\n        /* \"#utility.yul\":175:181   */\n      dup2\n        /* \"#utility.yul\":162:182   */\n      calldataload\n        /* \"#utility.yul\":201:205   */\n      0x20\n        /* \"#utility.yul\":224:242   */\n      0xffffffffffffffff\n        /* \"#utility.yul\":261:263   */\n      dup1\n        /* \"#utility.yul\":257:259   */\n      dup4\n        /* \"#utility.yul\":254:264   */\n      gt\n        /* \"#utility.yul\":251:287   */\n      iszero\n      tag_774\n      jumpi\n        /* \"#utility.yul\":267:285   */\n      tag_774\n      tag_406\n      jump\t// in\n    tag_774:\n        /* \"#utility.yul\":313:315   */\n      dup3\n        /* \"#utility.yul\":310:311   */\n      0x05\n        /* \"#utility.yul\":306:316   */\n      shl\n        /* \"#utility.yul\":345:347   */\n      0x40\n        /* \"#utility.yul\":339:348   */\n      mload\n        /* \"#utility.yul\":408:410   */\n      0x1f\n        /* \"#utility.yul\":404:411   */\n      not\n        /* \"#utility.yul\":399:401   */\n      0x3f\n        /* \"#utility.yul\":395:397   */\n      dup4\n        /* \"#utility.yul\":391:402   */\n      add\n        /* \"#utility.yul\":387:412   */\n      and\n        /* \"#utility.yul\":379:385   */\n      dup2\n        /* \"#utility.yul\":375:413   */\n      add\n        /* \"#utility.yul\":463:469   */\n      dup2\n        /* \"#utility.yul\":451:461   */\n      dup2\n        /* \"#utility.yul\":448:470   */\n      lt\n        /* \"#utility.yul\":443:445   */\n      dup5\n        /* \"#utility.yul\":431:441   */\n      dup3\n        /* \"#utility.yul\":428:446   */\n      gt\n        /* \"#utility.yul\":425:471   */\n      or\n        /* \"#utility.yul\":422:494   */\n      iszero\n      tag_776\n      jumpi\n        /* \"#utility.yul\":474:492   */\n      tag_776\n      tag_406\n      jump\t// in\n    tag_776:\n        /* \"#utility.yul\":510:512   */\n      0x40\n        /* \"#utility.yul\":503:525   */\n      mstore\n        /* \"#utility.yul\":560:578   */\n      dup5\n      dup2\n      mstore\n        /* \"#utility.yul\":594:609   */\n      dup4\n      dup2\n      add\n      swap3\n      pop\n        /* \"#utility.yul\":629:644   */\n      dup7\n      dup5\n      add\n        /* \"#utility.yul\":663:678   */\n      dup3\n      dup9\n      add\n        /* \"#utility.yul\":659:683   */\n      dup6\n      add\n        /* \"#utility.yul\":656:689   */\n      dup10\n      lt\n        /* \"#utility.yul\":653:706   */\n      iszero\n      tag_777\n      jumpi\n        /* \"#utility.yul\":702:703   */\n      0x00\n        /* \"#utility.yul\":699:700   */\n      dup1\n        /* \"#utility.yul\":692:704   */\n      revert\n        /* \"#utility.yul\":653:706   */\n    tag_777:\n        /* \"#utility.yul\":724:725   */\n      0x00\n        /* \"#utility.yul\":715:725   */\n      swap3\n      pop\n        /* \"#utility.yul\":734:897   */\n    tag_778:\n        /* \"#utility.yul\":748:750   */\n      dup6\n        /* \"#utility.yul\":745:746   */\n      dup4\n        /* \"#utility.yul\":742:751   */\n      lt\n        /* \"#utility.yul\":734:897   */\n      iszero\n      tag_780\n      jumpi\n        /* \"#utility.yul\":805:822   */\n      dup1\n      calldataload\n        /* \"#utility.yul\":793:823   */\n      dup5\n      mstore\n        /* \"#utility.yul\":843:855   */\n      swap3\n      dup5\n      add\n      swap3\n        /* \"#utility.yul\":766:767   */\n      0x01\n        /* \"#utility.yul\":759:768   */\n      swap3\n      swap1\n      swap3\n      add\n      swap2\n        /* \"#utility.yul\":875:887   */\n      dup5\n      add\n        /* \"#utility.yul\":734:897   */\n      jump(tag_778)\n    tag_780:\n      pop\n        /* \"#utility.yul\":915:921   */\n      swap8\n        /* \"#utility.yul\":14:927   */\n      swap7\n      pop\n      pop\n      pop\n      pop\n      pop\n      pop\n      pop\n      jump\t// out\n        /* \"#utility.yul\":932:1179   */\n    tag_121:\n        /* \"#utility.yul\":991:997   */\n      0x00\n        /* \"#utility.yul\":1044:1046   */\n      0x20\n        /* \"#utility.yul\":1032:1041   */\n      dup3\n        /* \"#utility.yul\":1023:1030   */\n      dup5\n        /* \"#utility.yul\":1019:1042   */\n      sub\n        /* \"#utility.yul\":1015:1047   */\n      slt\n        /* \"#utility.yul\":1012:1064   */\n      iszero\n      tag_782\n      jumpi\n        /* \"#utility.yul\":1060:1061   */\n      0x00\n        /* \"#utility.yul\":1057:1058   */\n      dup1\n        /* \"#utility.yul\":1050:1062   */\n      revert\n        /* \"#utility.yul\":1012:1064   */\n    tag_782:\n        /* \"#utility.yul\":1099:1108   */\n      dup2\n        /* \"#utility.yul\":1086:1109   */\n      calldataload\n        /* \"#utility.yul\":1118:1149   */\n      tag_437\n        /* \"#utility.yul\":1143:1148   */\n      dup2\n        /* \"#utility.yul\":1118:1149   */\n      tag_784\n      jump\t// in\n        /* \"#utility.yul\":1184:1435   */\n    tag_298:\n        /* \"#utility.yul\":1254:1260   */\n      0x00\n        /* \"#utility.yul\":1307:1309   */\n      0x20\n        /* \"#utility.yul\":1295:1304   */\n      dup3\n        /* \"#utility.yul\":1286:1293   */\n      dup5\n        /* \"#utility.yul\":1282:1305   */\n      sub\n        /* \"#utility.yul\":1278:1310   */\n      slt\n        /* \"#utility.yul\":1275:1327   */\n      iszero\n      tag_786\n      jumpi\n        /* \"#utility.yul\":1323:1324   */\n      0x00\n        /* \"#utility.yul\":1320:1321   */\n      dup1\n        /* \"#utility.yul\":1313:1325   */\n      revert\n        /* \"#utility.yul\":1275:1327   */\n    tag_786:\n        /* \"#utility.yul\":1355:1364   */\n      dup2\n        /* \"#utility.yul\":1349:1365   */\n      mload\n        /* \"#utility.yul\":1374:1405   */\n      tag_437\n        /* \"#utility.yul\":1399:1404   */\n      dup2\n        /* \"#utility.yul\":1374:1405   */\n      tag_784\n      jump\t// in\n        /* \"#utility.yul\":1440:1755   */\n    tag_107:\n        /* \"#utility.yul\":1508:1514   */\n      0x00\n        /* \"#utility.yul\":1516:1522   */\n      dup1\n        /* \"#utility.yul\":1569:1571   */\n      0x40\n        /* \"#utility.yul\":1557:1566   */\n      dup4\n        /* \"#utility.yul\":1548:1555   */\n      dup6\n        /* \"#utility.yul\":1544:1567   */\n      sub\n        /* \"#utility.yul\":1540:1572   */\n      slt\n        /* \"#utility.yul\":1537:1589   */\n      iszero\n      tag_789\n      jumpi\n        /* \"#utility.yul\":1585:1586   */\n      0x00\n        /* \"#utility.yul\":1582:1583   */\n      dup1\n        /* \"#utility.yul\":1575:1587   */\n      revert\n        /* \"#utility.yul\":1537:1589   */\n    tag_789:\n        /* \"#utility.yul\":1624:1633   */\n      dup3\n        /* \"#utility.yul\":1611:1634   */\n      calldataload\n        /* \"#utility.yul\":1643:1674   */\n      tag_790\n        /* \"#utility.yul\":1668:1673   */\n      dup2\n        /* \"#utility.yul\":1643:1674   */\n      tag_784\n      jump\t// in\n    tag_790:\n        /* \"#utility.yul\":1693:1698   */\n      swap5\n        /* \"#utility.yul\":1745:1747   */\n      0x20\n        /* \"#utility.yul\":1730:1748   */\n      swap4\n      swap1\n      swap4\n      add\n        /* \"#utility.yul\":1717:1749   */\n      calldataload\n      swap4\n      pop\n      pop\n      pop\n        /* \"#utility.yul\":1440:1755   */\n      jump\t// out\n        /* \"#utility.yul\":1760:2355   */\n    tag_173:\n        /* \"#utility.yul\":1878:1884   */\n      0x00\n        /* \"#utility.yul\":1886:1892   */\n      dup1\n        /* \"#utility.yul\":1939:1941   */\n      0x40\n        /* \"#utility.yul\":1927:1936   */\n      dup4\n        /* \"#utility.yul\":1918:1925   */\n      dup6\n        /* \"#utility.yul\":1914:1937   */\n      sub\n        /* \"#utility.yul\":1910:1942   */\n      slt\n        /* \"#utility.yul\":1907:1959   */\n      iszero\n      tag_792\n      jumpi\n        /* \"#utility.yul\":1955:1956   */\n      0x00\n        /* \"#utility.yul\":1952:1953   */\n      dup1\n        /* \"#utility.yul\":1945:1957   */\n      revert\n        /* \"#utility.yul\":1907:1959   */\n    tag_792:\n        /* \"#utility.yul\":1995:2004   */\n      dup3\n        /* \"#utility.yul\":1982:2005   */\n      calldataload\n        /* \"#utility.yul\":2024:2042   */\n      0xffffffffffffffff\n        /* \"#utility.yul\":2065:2067   */\n      dup1\n        /* \"#utility.yul\":2057:2063   */\n      dup3\n        /* \"#utility.yul\":2054:2068   */\n      gt\n        /* \"#utility.yul\":2051:2085   */\n      iszero\n      tag_793\n      jumpi\n        /* \"#utility.yul\":2081:2082   */\n      0x00\n        /* \"#utility.yul\":2078:2079   */\n      dup1\n        /* \"#utility.yul\":2071:2083   */\n      revert\n        /* \"#utility.yul\":2051:2085   */\n    tag_793:\n        /* \"#utility.yul\":2104:2165   */\n      tag_794\n        /* \"#utility.yul\":2157:2164   */\n      dup7\n        /* \"#utility.yul\":2148:2154   */\n      dup4\n        /* \"#utility.yul\":2137:2146   */\n      dup8\n        /* \"#utility.yul\":2133:2155   */\n      add\n        /* \"#utility.yul\":2104:2165   */\n      tag_770\n      jump\t// in\n    tag_794:\n        /* \"#utility.yul\":2094:2165   */\n      swap4\n      pop\n        /* \"#utility.yul\":2218:2220   */\n      0x20\n        /* \"#utility.yul\":2207:2216   */\n      dup6\n        /* \"#utility.yul\":2203:2221   */\n      add\n        /* \"#utility.yul\":2190:2222   */\n      calldataload\n        /* \"#utility.yul\":2174:2222   */\n      swap2\n      pop\n        /* \"#utility.yul\":2247:2249   */\n      dup1\n        /* \"#utility.yul\":2237:2245   */\n      dup3\n        /* \"#utility.yul\":2234:2250   */\n      gt\n        /* \"#utility.yul\":2231:2267   */\n      iszero\n      tag_795\n      jumpi\n        /* \"#utility.yul\":2263:2264   */\n      0x00\n        /* \"#utility.yul\":2260:2261   */\n      dup1\n        /* \"#utility.yul\":2253:2265   */\n      revert\n        /* \"#utility.yul\":2231:2267   */\n    tag_795:\n      pop\n        /* \"#utility.yul\":2286:2349   */\n      tag_796\n        /* \"#utility.yul\":2341:2348   */\n      dup6\n        /* \"#utility.yul\":2330:2338   */\n      dup3\n        /* \"#utility.yul\":2319:2328   */\n      dup7\n        /* \"#utility.yul\":2315:2339   */\n      add\n        /* \"#utility.yul\":2286:2349   */\n      tag_770\n      jump\t// in\n    tag_796:\n        /* \"#utility.yul\":2276:2349   */\n      swap2\n      pop\n      pop\n        /* \"#utility.yul\":1760:2355   */\n      swap3\n      pop\n      swap3\n      swap1\n      pop\n      jump\t// out\n        /* \"#utility.yul\":2360:2601   */\n    tag_163:\n        /* \"#utility.yul\":2416:2422   */\n      0x00\n        /* \"#utility.yul\":2469:2471   */\n      0x20\n        /* \"#utility.yul\":2457:2466   */\n      dup3\n        /* \"#utility.yul\":2448:2455   */\n      dup5\n        /* \"#utility.yul\":2444:2467   */\n      sub\n        /* \"#utility.yul\":2440:2472   */\n      slt\n        /* \"#utility.yul\":2437:2489   */\n      iszero\n      tag_798\n      jumpi\n        /* \"#utility.yul\":2485:2486   */\n      0x00\n        /* \"#utility.yul\":2482:2483   */\n      dup1\n        /* \"#utility.yul\":2475:2487   */\n      revert\n        /* \"#utility.yul\":2437:2489   */\n    tag_798:\n        /* \"#utility.yul\":2524:2533   */\n      dup2\n        /* \"#utility.yul\":2511:2534   */\n      calldataload\n        /* \"#utility.yul\":2543:2571   */\n      tag_437\n        /* \"#utility.yul\":2565:2570   */\n      dup2\n        /* \"#utility.yul\":2543:2571   */\n      tag_800\n      jump\t// in\n        /* \"#utility.yul\":2606:2851   */\n    tag_399:\n        /* \"#utility.yul\":2673:2679   */\n      0x00\n        /* \"#utility.yul\":2726:2728   */\n      0x20\n        /* \"#utility.yul\":2714:2723   */\n      dup3\n        /* \"#utility.yul\":2705:2712   */\n      dup5\n        /* \"#utility.yul\":2701:2724   */\n      sub\n        /* \"#utility.yul\":2697:2729   */\n      slt\n        /* \"#utility.yul\":2694:2746   */\n      iszero\n      tag_802\n      jumpi\n        /* \"#utility.yul\":2742:2743   */\n      0x00\n        /* \"#utility.yul\":2739:2740   */\n      dup1\n        /* \"#utility.yul\":2732:2744   */\n      revert\n        /* \"#utility.yul\":2694:2746   */\n    tag_802:\n        /* \"#utility.yul\":2774:2783   */\n      dup2\n        /* \"#utility.yul\":2768:2784   */\n      mload\n        /* \"#utility.yul\":2793:2821   */\n      tag_437\n        /* \"#utility.yul\":2815:2820   */\n      dup2\n        /* \"#utility.yul\":2793:2821   */\n      tag_800\n      jump\t// in\n        /* \"#utility.yul\":2856:3036   */\n    tag_67:\n        /* \"#utility.yul\":2915:2921   */\n      0x00\n        /* \"#utility.yul\":2968:2970   */\n      0x20\n        /* \"#utility.yul\":2956:2965   */\n      dup3\n        /* \"#utility.yul\":2947:2954   */\n      dup5\n        /* \"#utility.yul\":2943:2966   */\n      sub\n        /* \"#utility.yul\":2939:2971   */\n      slt\n        /* \"#utility.yul\":2936:2988   */\n      iszero\n      tag_805\n      jumpi\n        /* \"#utility.yul\":2984:2985   */\n      0x00\n        /* \"#utility.yul\":2981:2982   */\n      dup1\n        /* \"#utility.yul\":2974:2986   */\n      revert\n        /* \"#utility.yul\":2936:2988   */\n    tag_805:\n      pop\n        /* \"#utility.yul\":3007:3030   */\n      calldataload\n      swap2\n        /* \"#utility.yul\":2856:3036   */\n      swap1\n      pop\n      jump\t// out\n        /* \"#utility.yul\":3041:3225   */\n    tag_434:\n        /* \"#utility.yul\":3111:3117   */\n      0x00\n        /* \"#utility.yul\":3164:3166   */\n      0x20\n        /* \"#utility.yul\":3152:3161   */\n      dup3\n        /* \"#utility.yul\":3143:3150   */\n      dup5\n        /* \"#utility.yul\":3139:3162   */\n      sub\n        /* \"#utility.yul\":3135:3167   */\n      slt\n        /* \"#utility.yul\":3132:3184   */\n      iszero\n      tag_807\n      jumpi\n        /* \"#utility.yul\":3180:3181   */\n      0x00\n        /* \"#utility.yul\":3177:3178   */\n      dup1\n        /* \"#utility.yul\":3170:3182   */\n      revert\n        /* \"#utility.yul\":3132:3184   */\n    tag_807:\n      pop\n        /* \"#utility.yul\":3203:3219   */\n      mload\n      swap2\n        /* \"#utility.yul\":3041:3225   */\n      swap1\n      pop\n      jump\t// out\n        /* \"#utility.yul\":3230:3478   */\n    tag_84:\n        /* \"#utility.yul\":3298:3304   */\n      0x00\n        /* \"#utility.yul\":3306:3312   */\n      dup1\n        /* \"#utility.yul\":3359:3361   */\n      0x40\n        /* \"#utility.yul\":3347:3356   */\n      dup4\n        /* \"#utility.yul\":3338:3345   */\n      dup6\n        /* \"#utility.yul\":3334:3357   */\n      sub\n        /* \"#utility.yul\":3330:3362   */\n      slt\n        /* \"#utility.yul\":3327:3379   */\n      iszero\n      tag_809\n      jumpi\n        /* \"#utility.yul\":3375:3376   */\n      0x00\n        /* \"#utility.yul\":3372:3373   */\n      dup1\n        /* \"#utility.yul\":3365:3377   */\n      revert\n        /* \"#utility.yul\":3327:3379   */\n    tag_809:\n      pop\n      pop\n        /* \"#utility.yul\":3398:3421   */\n      dup1\n      calldataload\n      swap3\n        /* \"#utility.yul\":3468:3470   */\n      0x20\n        /* \"#utility.yul\":3453:3471   */\n      swap1\n      swap2\n      add\n        /* \"#utility.yul\":3440:3472   */\n      calldataload\n      swap2\n      pop\n        /* \"#utility.yul\":3230:3478   */\n      jump\t// out\n        /* \"#utility.yul\":3483:3918   */\n    tag_810:\n        /* \"#utility.yul\":3536:3539   */\n      0x00\n        /* \"#utility.yul\":3574:3579   */\n      dup2\n        /* \"#utility.yul\":3568:3580   */\n      mload\n        /* \"#utility.yul\":3601:3607   */\n      dup1\n        /* \"#utility.yul\":3596:3599   */\n      dup5\n        /* \"#utility.yul\":3589:3608   */\n      mstore\n        /* \"#utility.yul\":3627:3631   */\n      0x20\n        /* \"#utility.yul\":3656:3658   */\n      dup1\n        /* \"#utility.yul\":3651:3654   */\n      dup6\n        /* \"#utility.yul\":3647:3659   */\n      add\n        /* \"#utility.yul\":3640:3659   */\n      swap5\n      pop\n        /* \"#utility.yul\":3693:3695   */\n      dup1\n        /* \"#utility.yul\":3686:3691   */\n      dup5\n        /* \"#utility.yul\":3682:3696   */\n      add\n        /* \"#utility.yul\":3714:3715   */\n      0x00\n        /* \"#utility.yul\":3724:3893   */\n    tag_812:\n        /* \"#utility.yul\":3738:3744   */\n      dup4\n        /* \"#utility.yul\":3735:3736   */\n      dup2\n        /* \"#utility.yul\":3732:3745   */\n      lt\n        /* \"#utility.yul\":3724:3893   */\n      iszero\n      tag_814\n      jumpi\n        /* \"#utility.yul\":3799:3812   */\n      dup2\n      mload\n        /* \"#utility.yul\":3787:3813   */\n      dup8\n      mstore\n        /* \"#utility.yul\":3833:3845   */\n      swap6\n      dup3\n      add\n      swap6\n        /* \"#utility.yul\":3868:3883   */\n      swap1\n      dup3\n      add\n      swap1\n        /* \"#utility.yul\":3760:3761   */\n      0x01\n        /* \"#utility.yul\":3753:3762   */\n      add\n        /* \"#utility.yul\":3724:3893   */\n      jump(tag_812)\n    tag_814:\n      pop\n        /* \"#utility.yul\":3909:3912   */\n      swap5\n      swap6\n        /* \"#utility.yul\":3483:3918   */\n      swap5\n      pop\n      pop\n      pop\n      pop\n      pop\n      jump\t// out\n        /* \"#utility.yul\":4884:6011   */\n    tag_203:\n        /* \"#utility.yul\":5107:5109   */\n      0x20\n        /* \"#utility.yul\":5159:5180   */\n      dup1\n      dup3\n      mstore\n        /* \"#utility.yul\":5229:5242   */\n      dup3\n      mload\n        /* \"#utility.yul\":5132:5150   */\n      dup3\n      dup3\n      add\n        /* \"#utility.yul\":5251:5273   */\n      dup2\n      swap1\n      mstore\n        /* \"#utility.yul\":5078:5082   */\n      0x00\n      swap2\n        /* \"#utility.yul\":5107:5109   */\n      swap1\n        /* \"#utility.yul\":5292:5294   */\n      0x40\n      swap1\n        /* \"#utility.yul\":5310:5328   */\n      dup2\n      dup6\n      add\n      swap1\n        /* \"#utility.yul\":5351:5366   */\n      dup7\n      dup5\n      add\n        /* \"#utility.yul\":5078:5082   */\n      dup6\n        /* \"#utility.yul\":5394:5985   */\n    tag_820:\n        /* \"#utility.yul\":5408:5414   */\n      dup3\n        /* \"#utility.yul\":5405:5406   */\n      dup2\n        /* \"#utility.yul\":5402:5415   */\n      lt\n        /* \"#utility.yul\":5394:5985   */\n      iszero\n      tag_822\n      jumpi\n        /* \"#utility.yul\":5467:5480   */\n      dup2\n      mload\n        /* \"#utility.yul\":5505:5514   */\n      dup1\n      mload\n        /* \"#utility.yul\":5493:5515   */\n      dup6\n      mstore\n        /* \"#utility.yul\":5555:5566   */\n      dup7\n      dup2\n      add\n        /* \"#utility.yul\":5549:5567   */\n      mload\n        /* \"#utility.yul\":5535:5547   */\n      dup8\n      dup7\n      add\n        /* \"#utility.yul\":5528:5568   */\n      mstore\n        /* \"#utility.yul\":5612:5623   */\n      dup6\n      dup2\n      add\n        /* \"#utility.yul\":5606:5624   */\n      mload\n      sub(shl(0xa0, 0x01), 0x01)\n        /* \"#utility.yul\":5602:5646   */\n      and\n        /* \"#utility.yul\":5588:5600   */\n      dup7\n      dup7\n      add\n        /* \"#utility.yul\":5581:5647   */\n      mstore\n        /* \"#utility.yul\":5670:5674   */\n      0x60\n        /* \"#utility.yul\":5714:5725   */\n      dup1\n      dup3\n      add\n        /* \"#utility.yul\":5708:5726   */\n      mload\n        /* \"#utility.yul\":5694:5706   */\n      swap1\n      dup7\n      add\n        /* \"#utility.yul\":5687:5727   */\n      mstore\n        /* \"#utility.yul\":5750:5754   */\n      0x80\n        /* \"#utility.yul\":5808:5819   */\n      dup1\n      dup3\n      add\n        /* \"#utility.yul\":5802:5820   */\n      mload\n        /* \"#utility.yul\":5795:5821   */\n      iszero\n        /* \"#utility.yul\":5788:5822   */\n      iszero\n        /* \"#utility.yul\":5774:5786   */\n      swap1\n      dup7\n      add\n        /* \"#utility.yul\":5767:5823   */\n      mstore\n        /* \"#utility.yul\":5634:5637   */\n      0xa0\n        /* \"#utility.yul\":5890:5901   */\n      swap1\n      dup2\n      add\n        /* \"#utility.yul\":5884:5902   */\n      mload\n        /* \"#utility.yul\":5870:5882   */\n      swap1\n      dup6\n      add\n        /* \"#utility.yul\":5863:5903   */\n      mstore\n        /* \"#utility.yul\":5932:5936   */\n      0xc0\n        /* \"#utility.yul\":5923:5937   */\n      swap1\n      swap4\n      add\n      swap3\n        /* \"#utility.yul\":5960:5975   */\n      swap1\n      dup6\n      add\n      swap1\n        /* \"#utility.yul\":5643:5644   */\n      0x01\n        /* \"#utility.yul\":5423:5432   */\n      add\n        /* \"#utility.yul\":5394:5985   */\n      jump(tag_820)\n    tag_822:\n      pop\n        /* \"#utility.yul\":6002:6005   */\n      swap2\n      swap8\n        /* \"#utility.yul\":4884:6011   */\n      swap7\n      pop\n      pop\n      pop\n      pop\n      pop\n      pop\n      pop\n      jump\t// out\n        /* \"#utility.yul\":6016:7284   */\n    tag_260:\n        /* \"#utility.yul\":6237:6239   */\n      0x20\n        /* \"#utility.yul\":6289:6310   */\n      dup1\n      dup3\n      mstore\n        /* \"#utility.yul\":6359:6372   */\n      dup3\n      mload\n        /* \"#utility.yul\":6262:6280   */\n      dup3\n      dup3\n      add\n        /* \"#utility.yul\":6381:6403   */\n      dup2\n      swap1\n      mstore\n        /* \"#utility.yul\":6208:6212   */\n      0x00\n      swap2\n        /* \"#utility.yul\":6237:6239   */\n      swap1\n        /* \"#utility.yul\":6422:6424   */\n      0x40\n      swap1\n        /* \"#utility.yul\":6440:6458   */\n      dup2\n      dup6\n      add\n      swap1\n        /* \"#utility.yul\":6481:6496   */\n      dup7\n      dup5\n      add\n        /* \"#utility.yul\":6208:6212   */\n      dup6\n        /* \"#utility.yul\":6524:7258   */\n    tag_824:\n        /* \"#utility.yul\":6538:6544   */\n      dup3\n        /* \"#utility.yul\":6535:6536   */\n      dup2\n        /* \"#utility.yul\":6532:6545   */\n      lt\n        /* \"#utility.yul\":6524:7258   */\n      iszero\n      tag_822\n      jumpi\n        /* \"#utility.yul\":6597:6610   */\n      dup2\n      mload\n        /* \"#utility.yul\":6635:6644   */\n      dup1\n      mload\n        /* \"#utility.yul\":6623:6645   */\n      dup6\n      mstore\n        /* \"#utility.yul\":6685:6696   */\n      dup7\n      dup2\n      add\n        /* \"#utility.yul\":6679:6697   */\n      mload\n        /* \"#utility.yul\":6665:6677   */\n      dup8\n      dup7\n      add\n        /* \"#utility.yul\":6658:6698   */\n      mstore\n        /* \"#utility.yul\":6737:6748   */\n      dup6\n      dup2\n      add\n        /* \"#utility.yul\":6731:6749   */\n      mload\n      sub(shl(0xa0, 0x01), 0x01)\n        /* \"#utility.yul\":6825:6846   */\n      swap1\n      dup2\n      and\n        /* \"#utility.yul\":6811:6823   */\n      dup8\n      dup8\n      add\n        /* \"#utility.yul\":6804:6847   */\n      mstore\n        /* \"#utility.yul\":6870:6874   */\n      0x60\n        /* \"#utility.yul\":6914:6925   */\n      dup1\n      dup4\n      add\n        /* \"#utility.yul\":6908:6926   */\n      mload\n        /* \"#utility.yul\":6894:6906   */\n      swap1\n      dup8\n      add\n        /* \"#utility.yul\":6887:6927   */\n      mstore\n        /* \"#utility.yul\":6950:6954   */\n      0x80\n        /* \"#utility.yul\":6998:7009   */\n      dup1\n      dup4\n      add\n        /* \"#utility.yul\":6992:7010   */\n      mload\n        /* \"#utility.yul\":6988:7015   */\n      swap1\n      swap2\n      and\n        /* \"#utility.yul\":6974:6986   */\n      swap1\n      dup7\n      add\n        /* \"#utility.yul\":6967:7016   */\n      mstore\n        /* \"#utility.yul\":6780:6783   */\n      0xa0\n        /* \"#utility.yul\":7083:7094   */\n      dup1\n      dup3\n      add\n        /* \"#utility.yul\":7077:7095   */\n      mload\n        /* \"#utility.yul\":7063:7075   */\n      swap1\n      dup7\n      add\n        /* \"#utility.yul\":7056:7096   */\n      mstore\n        /* \"#utility.yul\":7119:7123   */\n      0xc0\n        /* \"#utility.yul\":7163:7174   */\n      swap1\n      dup2\n      add\n        /* \"#utility.yul\":7157:7175   */\n      mload\n        /* \"#utility.yul\":7143:7155   */\n      swap1\n      dup6\n      add\n        /* \"#utility.yul\":7136:7176   */\n      mstore\n        /* \"#utility.yul\":7205:7209   */\n      0xe0\n        /* \"#utility.yul\":7196:7210   */\n      swap1\n      swap4\n      add\n      swap3\n        /* \"#utility.yul\":7233:7248   */\n      swap1\n      dup6\n      add\n      swap1\n        /* \"#utility.yul\":6789:6790   */\n      0x01\n        /* \"#utility.yul\":6553:6562   */\n      add\n        /* \"#utility.yul\":6524:7258   */\n      jump(tag_824)\n        /* \"#utility.yul\":7481:8389   */\n    tag_697:\n        /* \"#utility.yul\":7715:7719   */\n      0x00\n        /* \"#utility.yul\":7763:7766   */\n      0x80\n        /* \"#utility.yul\":7752:7761   */\n      dup3\n        /* \"#utility.yul\":7748:7767   */\n      add\n        /* \"#utility.yul\":7794:7800   */\n      dup7\n        /* \"#utility.yul\":7783:7792   */\n      dup4\n        /* \"#utility.yul\":7776:7801   */\n      mstore\n        /* \"#utility.yul\":7820:7822   */\n      0x20\n        /* \"#utility.yul\":7858:7861   */\n      0x80\n        /* \"#utility.yul\":7853:7855   */\n      dup2\n        /* \"#utility.yul\":7842:7851   */\n      dup6\n        /* \"#utility.yul\":7838:7856   */\n      add\n        /* \"#utility.yul\":7831:7862   */\n      mstore\n        /* \"#utility.yul\":7882:7888   */\n      dup2\n        /* \"#utility.yul\":7917:7923   */\n      dup8\n        /* \"#utility.yul\":7911:7924   */\n      mload\n        /* \"#utility.yul\":7948:7954   */\n      dup1\n        /* \"#utility.yul\":7940:7946   */\n      dup5\n        /* \"#utility.yul\":7933:7955   */\n      mstore\n        /* \"#utility.yul\":7986:7989   */\n      0xa0\n        /* \"#utility.yul\":7975:7984   */\n      dup7\n        /* \"#utility.yul\":7971:7990   */\n      add\n        /* \"#utility.yul\":7964:7990   */\n      swap2\n      pop\n        /* \"#utility.yul\":8025:8027   */\n      dup3\n        /* \"#utility.yul\":8017:8023   */\n      dup10\n        /* \"#utility.yul\":8013:8028   */\n      add\n        /* \"#utility.yul\":7999:8028   */\n      swap4\n      pop\n        /* \"#utility.yul\":8046:8047   */\n      0x00\n        /* \"#utility.yul\":8056:8251   */\n    tag_829:\n        /* \"#utility.yul\":8070:8076   */\n      dup2\n        /* \"#utility.yul\":8067:8068   */\n      dup2\n        /* \"#utility.yul\":8064:8077   */\n      lt\n        /* \"#utility.yul\":8056:8251   */\n      iszero\n      tag_831\n      jumpi\n        /* \"#utility.yul\":8135:8148   */\n      dup5\n      mload\n      sub(shl(0xa0, 0x01), 0x01)\n        /* \"#utility.yul\":8131:8170   */\n      and\n        /* \"#utility.yul\":8119:8171   */\n      dup4\n      mstore\n        /* \"#utility.yul\":8226:8241   */\n      swap4\n      dup4\n      add\n      swap4\n        /* \"#utility.yul\":8191:8203   */\n      swap2\n      dup4\n      add\n      swap2\n        /* \"#utility.yul\":8167:8168   */\n      0x01\n        /* \"#utility.yul\":8085:8094   */\n      add\n        /* \"#utility.yul\":8056:8251   */\n      jump(tag_829)\n    tag_831:\n      pop\n      pop\n      sub(shl(0xa0, 0x01), 0x01)\n        /* \"#utility.yul\":8307:8339   */\n      swap7\n      swap1\n      swap7\n      and\n        /* \"#utility.yul\":8302:8304   */\n      0x40\n        /* \"#utility.yul\":8287:8305   */\n      dup6\n      add\n        /* \"#utility.yul\":8280:8340   */\n      mstore\n      pop\n      pop\n      pop\n        /* \"#utility.yul\":8371:8373   */\n      0x60\n        /* \"#utility.yul\":8356:8374   */\n      add\n        /* \"#utility.yul\":8349:8383   */\n      mstore\n        /* \"#utility.yul\":8268:8271   */\n      swap3\n        /* \"#utility.yul\":7481:8389   */\n      swap2\n      pop\n      pop\n      jump\t// out\n        /* \"#utility.yul\":14272:14871   */\n    tag_618:\n        /* \"#utility.yul\":14567:14592   */\n      swap6\n      dup7\n      mstore\n      sub(shl(0xa0, 0x01), 0x01)\n        /* \"#utility.yul\":14666:14681   */\n      swap5\n      dup6\n      and\n        /* \"#utility.yul\":14661:14663   */\n      0x20\n        /* \"#utility.yul\":14646:14664   */\n      dup8\n      add\n        /* \"#utility.yul\":14639:14682   */\n      mstore\n        /* \"#utility.yul\":14713:14715   */\n      0x40\n        /* \"#utility.yul\":14698:14716   */\n      dup7\n      add\n        /* \"#utility.yul\":14691:14725   */\n      swap4\n      swap1\n      swap4\n      mstore\n        /* \"#utility.yul\":14761:14776   */\n      swap3\n      and\n        /* \"#utility.yul\":14756:14758   */\n      0x60\n        /* \"#utility.yul\":14741:14759   */\n      dup5\n      add\n        /* \"#utility.yul\":14734:14777   */\n      mstore\n        /* \"#utility.yul\":14808:14811   */\n      0x80\n        /* \"#utility.yul\":14793:14812   */\n      dup4\n      add\n        /* \"#utility.yul\":14786:14821   */\n      swap2\n      swap1\n      swap2\n      mstore\n        /* \"#utility.yul\":14619:14622   */\n      0xa0\n        /* \"#utility.yul\":14837:14856   */\n      dup3\n      add\n        /* \"#utility.yul\":14830:14865   */\n      mstore\n        /* \"#utility.yul\":14554:14557   */\n      0xc0\n        /* \"#utility.yul\":14539:14558   */\n      add\n      swap1\n        /* \"#utility.yul\":14272:14871   */\n      jump\t// out\n        /* \"#utility.yul\":17736:18797   */\n    tag_131:\n        /* \"#utility.yul\":18180:18184   */\n      0x00\n        /* \"#utility.yul\":18209:18212   */\n      0x0140\n        /* \"#utility.yul\":18239:18245   */\n      dup13\n        /* \"#utility.yul\":18228:18237   */\n      dup4\n        /* \"#utility.yul\":18221:18246   */\n      mstore\n        /* \"#utility.yul\":18282:18288   */\n      dup12\n        /* \"#utility.yul\":18277:18279   */\n      0x20\n        /* \"#utility.yul\":18266:18275   */\n      dup5\n        /* \"#utility.yul\":18262:18280   */\n      add\n        /* \"#utility.yul\":18255:18289   */\n      mstore\n        /* \"#utility.yul\":18325:18331   */\n      dup11\n        /* \"#utility.yul\":18320:18322   */\n      0x40\n        /* \"#utility.yul\":18309:18318   */\n      dup5\n        /* \"#utility.yul\":18305:18323   */\n      add\n        /* \"#utility.yul\":18298:18332   */\n      mstore\n        /* \"#utility.yul\":18368:18374   */\n      dup10\n        /* \"#utility.yul\":18363:18365   */\n      0x60\n        /* \"#utility.yul\":18352:18361   */\n      dup5\n        /* \"#utility.yul\":18348:18366   */\n      add\n        /* \"#utility.yul\":18341:18375   */\n      mstore\n        /* \"#utility.yul\":18412:18418   */\n      dup9\n        /* \"#utility.yul\":18406:18409   */\n      0x80\n        /* \"#utility.yul\":18395:18404   */\n      dup5\n        /* \"#utility.yul\":18391:18410   */\n      add\n        /* \"#utility.yul\":18384:18419   */\n      mstore\n        /* \"#utility.yul\":18456:18458   */\n      dup1\n        /* \"#utility.yul\":18450:18453   */\n      0xa0\n        /* \"#utility.yul\":18439:18448   */\n      dup5\n        /* \"#utility.yul\":18435:18454   */\n      add\n        /* \"#utility.yul\":18428:18459   */\n      mstore\n        /* \"#utility.yul\":18482:18538   */\n      tag_857\n        /* \"#utility.yul\":18534:18536   */\n      dup2\n        /* \"#utility.yul\":18523:18532   */\n      dup5\n        /* \"#utility.yul\":18519:18537   */\n      add\n        /* \"#utility.yul\":18511:18517   */\n      dup10\n        /* \"#utility.yul\":18482:18538   */\n      tag_810\n      jump\t// in\n    tag_857:\n        /* \"#utility.yul\":18468:18538   */\n      swap1\n      pop\n        /* \"#utility.yul\":18575:18581   */\n      dup7\n        /* \"#utility.yul\":18569:18572   */\n      0xc0\n        /* \"#utility.yul\":18558:18567   */\n      dup5\n        /* \"#utility.yul\":18554:18573   */\n      add\n        /* \"#utility.yul\":18547:18582   */\n      mstore\n        /* \"#utility.yul\":18631:18640   */\n      dup3\n        /* \"#utility.yul\":18623:18629   */\n      dup2\n        /* \"#utility.yul\":18619:18641   */\n      sub\n        /* \"#utility.yul\":18613:18616   */\n      0xe0\n        /* \"#utility.yul\":18602:18611   */\n      dup5\n        /* \"#utility.yul\":18598:18617   */\n      add\n        /* \"#utility.yul\":18591:18642   */\n      mstore\n        /* \"#utility.yul\":18659:18703   */\n      tag_858\n        /* \"#utility.yul\":18696:18702   */\n      dup2\n        /* \"#utility.yul\":18688:18694   */\n      dup8\n        /* \"#utility.yul\":18659:18703   */\n      tag_810\n      jump\t// in\n    tag_858:\n        /* \"#utility.yul\":18734:18737   */\n      0x0100\n        /* \"#utility.yul\":18719:18738   */\n      dup5\n      add\n        /* \"#utility.yul\":18712:18747   */\n      swap6\n      swap1\n      swap6\n      mstore\n      pop\n      pop\n        /* \"#utility.yul\":18778:18781   */\n      0x0120\n        /* \"#utility.yul\":18763:18782   */\n      add\n        /* \"#utility.yul\":18756:18791   */\n      mstore\n        /* \"#utility.yul\":18651:18703   */\n      swap9\n        /* \"#utility.yul\":17736:18797   */\n      swap8\n      pop\n      pop\n      pop\n      pop\n      pop\n      pop\n      pop\n      pop\n      jump\t// out\n        /* \"#utility.yul\":18802:18930   */\n    tag_334:\n        /* \"#utility.yul\":18842:18845   */\n      0x00\n        /* \"#utility.yul\":18873:18874   */\n      dup3\n        /* \"#utility.yul\":18869:18875   */\n      not\n        /* \"#utility.yul\":18866:18867   */\n      dup3\n        /* \"#utility.yul\":18863:18876   */\n      gt\n        /* \"#utility.yul\":18860:18899   */\n      iszero\n      tag_861\n      jumpi\n        /* \"#utility.yul\":18879:18897   */\n      tag_861\n      tag_862\n      jump\t// in\n    tag_861:\n      pop\n        /* \"#utility.yul\":18915:18924   */\n      add\n      swap1\n        /* \"#utility.yul\":18802:18930   */\n      jump\t// out\n        /* \"#utility.yul\":18935:19055   */\n    tag_324:\n        /* \"#utility.yul\":18975:18976   */\n      0x00\n        /* \"#utility.yul\":19001:19002   */\n      dup3\n        /* \"#utility.yul\":18991:19026   */\n      tag_865\n      jumpi\n        /* \"#utility.yul\":19006:19024   */\n      tag_865\n      tag_866\n      jump\t// in\n    tag_865:\n      pop\n        /* \"#utility.yul\":19040:19049   */\n      div\n      swap1\n        /* \"#utility.yul\":18935:19055   */\n      jump\t// out\n        /* \"#utility.yul\":19060:19228   */\n    tag_322:\n        /* \"#utility.yul\":19100:19107   */\n      0x00\n        /* \"#utility.yul\":19166:19167   */\n      dup2\n        /* \"#utility.yul\":19162:19163   */\n      0x00\n        /* \"#utility.yul\":19158:19164   */\n      not\n        /* \"#utility.yul\":19154:19168   */\n      div\n        /* \"#utility.yul\":19151:19152   */\n      dup4\n        /* \"#utility.yul\":19148:19169   */\n      gt\n        /* \"#utility.yul\":19143:19144   */\n      dup3\n        /* \"#utility.yul\":19136:19145   */\n      iszero\n        /* \"#utility.yul\":19129:19146   */\n      iszero\n        /* \"#utility.yul\":19125:19170   */\n      and\n        /* \"#utility.yul\":19122:19193   */\n      iszero\n      tag_869\n      jumpi\n        /* \"#utility.yul\":19173:19191   */\n      tag_869\n      tag_862\n      jump\t// in\n    tag_869:\n      pop\n        /* \"#utility.yul\":19213:19222   */\n      mul\n      swap1\n        /* \"#utility.yul\":19060:19228   */\n      jump\t// out\n        /* \"#utility.yul\":19233:19358   */\n    tag_305:\n        /* \"#utility.yul\":19273:19277   */\n      0x00\n        /* \"#utility.yul\":19301:19302   */\n      dup3\n        /* \"#utility.yul\":19298:19299   */\n      dup3\n        /* \"#utility.yul\":19295:19303   */\n      lt\n        /* \"#utility.yul\":19292:19326   */\n      iszero\n      tag_872\n      jumpi\n        /* \"#utility.yul\":19306:19324   */\n      tag_872\n      tag_862\n      jump\t// in\n    tag_872:\n      pop\n        /* \"#utility.yul\":19343:19352   */\n      sub\n      swap1\n        /* \"#utility.yul\":19233:19358   */\n      jump\t// out\n        /* \"#utility.yul\":19363:19499   */\n    tag_369:\n        /* \"#utility.yul\":19402:19405   */\n      0x00\n        /* \"#utility.yul\":19430:19435   */\n      dup2\n        /* \"#utility.yul\":19420:19459   */\n      tag_875\n      jumpi\n        /* \"#utility.yul\":19439:19457   */\n      tag_875\n      tag_862\n      jump\t// in\n    tag_875:\n      pop\n      not(0x00)\n        /* \"#utility.yul\":19475:19493   */\n      add\n      swap1\n        /* \"#utility.yul\":19363:19499   */\n      jump\t// out\n        /* \"#utility.yul\":19504:19639   */\n    tag_453:\n        /* \"#utility.yul\":19543:19546   */\n      0x00\n      not(0x00)\n        /* \"#utility.yul\":19564:19581   */\n      dup3\n      eq\n        /* \"#utility.yul\":19561:19604   */\n      iszero\n      tag_878\n      jumpi\n        /* \"#utility.yul\":19584:19602   */\n      tag_878\n      tag_862\n      jump\t// in\n    tag_878:\n      pop\n        /* \"#utility.yul\":19631:19632   */\n      0x01\n        /* \"#utility.yul\":19620:19633   */\n      add\n      swap1\n        /* \"#utility.yul\":19504:19639   */\n      jump\t// out\n        /* \"#utility.yul\":19644:19756   */\n    tag_355:\n        /* \"#utility.yul\":19676:19677   */\n      0x00\n        /* \"#utility.yul\":19702:19703   */\n      dup3\n        /* \"#utility.yul\":19692:19727   */\n      tag_881\n      jumpi\n        /* \"#utility.yul\":19707:19725   */\n      tag_881\n      tag_866\n      jump\t// in\n    tag_881:\n      pop\n        /* \"#utility.yul\":19741:19750   */\n      mod\n      swap1\n        /* \"#utility.yul\":19644:19756   */\n      jump\t// out\n        /* \"#utility.yul\":19761:19888   */\n    tag_862:\n        /* \"#utility.yul\":19822:19832   */\n      0x4e487b71\n        /* \"#utility.yul\":19817:19820   */\n      0xe0\n        /* \"#utility.yul\":19813:19833   */\n      shl\n        /* \"#utility.yul\":19810:19811   */\n      0x00\n        /* \"#utility.yul\":19803:19834   */\n      mstore\n        /* \"#utility.yul\":19853:19857   */\n      0x11\n        /* \"#utility.yul\":19850:19851   */\n      0x04\n        /* \"#utility.yul\":19843:19858   */\n      mstore\n        /* \"#utility.yul\":19877:19881   */\n      0x24\n        /* \"#utility.yul\":19874:19875   */\n      0x00\n        /* \"#utility.yul\":19867:19882   */\n      revert\n        /* \"#utility.yul\":19893:20020   */\n    tag_866:\n        /* \"#utility.yul\":19954:19964   */\n      0x4e487b71\n        /* \"#utility.yul\":19949:19952   */\n      0xe0\n        /* \"#utility.yul\":19945:19965   */\n      shl\n        /* \"#utility.yul\":19942:19943   */\n      0x00\n        /* \"#utility.yul\":19935:19966   */\n      mstore\n        /* \"#utility.yul\":19985:19989   */\n      0x12\n        /* \"#utility.yul\":19982:19983   */\n      0x04\n        /* \"#utility.yul\":19975:19990   */\n      mstore\n        /* \"#utility.yul\":20009:20013   */\n      0x24\n        /* \"#utility.yul\":20006:20007   */\n      0x00\n        /* \"#utility.yul\":19999:20014   */\n      revert\n        /* \"#utility.yul\":20025:20152   */\n    tag_561:\n        /* \"#utility.yul\":20086:20096   */\n      0x4e487b71\n        /* \"#utility.yul\":20081:20084   */\n      0xe0\n        /* \"#utility.yul\":20077:20097   */\n      shl\n        /* \"#utility.yul\":20074:20075   */\n      0x00\n        /* \"#utility.yul\":20067:20098   */\n      mstore\n        /* \"#utility.yul\":20117:20121   */\n      0x31\n        /* \"#utility.yul\":20114:20115   */\n      0x04\n        /* \"#utility.yul\":20107:20122   */\n      mstore\n        /* \"#utility.yul\":20141:20145   */\n      0x24\n        /* \"#utility.yul\":20138:20139   */\n      0x00\n        /* \"#utility.yul\":20131:20146   */\n      revert\n        /* \"#utility.yul\":20157:20284   */\n    tag_363:\n        /* \"#utility.yul\":20218:20228   */\n      0x4e487b71\n        /* \"#utility.yul\":20213:20216   */\n      0xe0\n        /* \"#utility.yul\":20209:20229   */\n      shl\n        /* \"#utility.yul\":20206:20207   */\n      0x00\n        /* \"#utility.yul\":20199:20230   */\n      mstore\n        /* \"#utility.yul\":20249:20253   */\n      0x32\n        /* \"#utility.yul\":20246:20247   */\n      0x04\n        /* \"#utility.yul\":20239:20254   */\n      mstore\n        /* \"#utility.yul\":20273:20277   */\n      0x24\n        /* \"#utility.yul\":20270:20271   */\n      0x00\n        /* \"#utility.yul\":20263:20278   */\n      revert\n        /* \"#utility.yul\":20289:20416   */\n    tag_406:\n        /* \"#utility.yul\":20350:20360   */\n      0x4e487b71\n        /* \"#utility.yul\":20345:20348   */\n      0xe0\n        /* \"#utility.yul\":20341:20361   */\n      shl\n        /* \"#utility.yul\":20338:20339   */\n      0x00\n        /* \"#utility.yul\":20331:20362   */\n      mstore\n        /* \"#utility.yul\":20381:20385   */\n      0x41\n        /* \"#utility.yul\":20378:20379   */\n      0x04\n        /* \"#utility.yul\":20371:20386   */\n      mstore\n        /* \"#utility.yul\":20405:20409   */\n      0x24\n        /* \"#utility.yul\":20402:20403   */\n      0x00\n        /* \"#utility.yul\":20395:20410   */\n      revert\n        /* \"#utility.yul\":20421:20552   */\n    tag_784:\n      sub(shl(0xa0, 0x01), 0x01)\n        /* \"#utility.yul\":20496:20527   */\n      dup2\n      and\n        /* \"#utility.yul\":20486:20528   */\n      dup2\n      eq\n        /* \"#utility.yul\":20476:20546   */\n      tag_378\n      jumpi\n        /* \"#utility.yul\":20542:20543   */\n      0x00\n        /* \"#utility.yul\":20539:20540   */\n      dup1\n        /* \"#utility.yul\":20532:20544   */\n      revert\n        /* \"#utility.yul\":20557:20675   */\n    tag_800:\n        /* \"#utility.yul\":20643:20648   */\n      dup1\n        /* \"#utility.yul\":20636:20649   */\n      iszero\n        /* \"#utility.yul\":20629:20650   */\n      iszero\n        /* \"#utility.yul\":20622:20627   */\n      dup2\n        /* \"#utility.yul\":20619:20651   */\n      eq\n        /* \"#utility.yul\":20609:20669   */\n      tag_378\n      jumpi\n        /* \"#utility.yul\":20665:20666   */\n      0x00\n        /* \"#utility.yul\":20662:20663   */\n      dup1\n        /* \"#utility.yul\":20655:20667   */\n      revert\n    stop\n    data_ddc6cb00969b718fd3f777dbdb4a70f4eeccab52c15e5252acac51881b2a4bfd 281f35b208c702e315f5e081c071ba0ebb3f2d13b733a13592e3f20ce9d924ba\n\n    auxdata: 0xa2646970667358221220e2993293dd1a4ac821d5d94fa6e2f57ba0ffb686a88dd7d9ea619eddf975b52964736f6c63430008070033\n}\n",
				"bytecode": {
					"linkReferences": {},
					"object": "6706f05b59d3b200006004908155680d8d726b7177a800006005908155674563918244f4000060069081556101f4600781905560085560c86009556101e060405260006080908152600160a052600260c052600360e052610100939093526101209190915261014052600a61016081905260146101805260326101a05260646101c0526200008f91600b62000628565b5060408051610160810182526102bc8152606460208201819052601e9282018390526060820152600f608082015260a0810191909152600a60c0820152600760e0820152600461010082015260036101208201526001610140820152620000fa90600b90816200067d565b506103e8600c556006600d556000600e819055600f8190556010556015805460ff191690553480156200012c57600080fd5b50604051620039c5380380620039c58339810160408190526200014f916200071a565b6200015a33620004a5565b6040805160e0810182524280825260016020808401828152600085870181815260608088018381526080808a0185815260a0808c0187815260c0808e0189815289805260168c529d517f0263c2b778d062355049effc2dece97bc6547ff8a88a3258daa512061c2153dd5598517f0263c2b778d062355049effc2dece97bc6547ff8a88a3258daa512061c2153de5595517f0263c2b778d062355049effc2dece97bc6547ff8a88a3258daa512061c2153df80546001600160a01b03199081166001600160a01b039384161790915594517f0263c2b778d062355049effc2dece97bc6547ff8a88a3258daa512061c2153e05591517f0263c2b778d062355049effc2dece97bc6547ff8a88a3258daa512061c2153e18054861691841691909117905594517f0263c2b778d062355049effc2dece97bc6547ff8a88a3258daa512061c2153e25599517f0263c2b778d062355049effc2dece97bc6547ff8a88a3258daa512061c2153e3558a519586018b52978552848601968752848a018481529185018481529785018481529285018481529380526017865293517fd840e16649f6b9a295d95876f4633d3a6b10b55e8162971cf78afd886d5ec89b5594517fd840e16649f6b9a295d95876f4633d3a6b10b55e8162971cf78afd886d5ec89c5593517fd840e16649f6b9a295d95876f4633d3a6b10b55e8162971cf78afd886d5ec89d8054841691881691909117905593517fd840e16649f6b9a295d95876f4633d3a6b10b55e8162971cf78afd886d5ec89e5591517fd840e16649f6b9a295d95876f4633d3a6b10b55e8162971cf78afd886d5ec89f805460ff191691151591909117905591517fd840e16649f6b9a295d95876f4633d3a6b10b55e8162971cf78afd886d5ec8a0556002805482168885169081179091556003805490921693871693909317905582516315ab88c960e31b815292516200047c9363ad5c4648926004808301939192829003018186803b1580156200043b57600080fd5b505afa15801562000450573d6000803e3d6000fd5b505050506040513d601f19601f82011682018060405250810190620004769190620006f5565b620004f5565b600180546001600160a01b0319166001600160a01b039290921691909117905550620007649050565b600080546001600160a01b038381166001600160a01b0319831681178455604051919092169283917f8be0079c531659141344cd1fd0a4f28419497f9722a3daafe3b4186f6b6457e09190a35050565b620004ff620005ca565b6001600160a01b03811660009081526014602052604090205460ff1615620005635760405162461bcd60e51b815260206004820152601260248201527120b63932b0b23c9030902830bcaa37b5b2b760711b60448201526064015b60405180910390fd5b6013805460018181019092557f66de8ffda797e3de9c05e8fc57b3bf0ec28a930d40b0d285d93c06501cf6a0900180546001600160a01b039093166001600160a01b031990931683179055600091825260146020526040909120805460ff19169091179055565b6000546001600160a01b03163314620006265760405162461bcd60e51b815260206004820181905260248201527f4f776e61626c653a2063616c6c6572206973206e6f7420746865206f776e657260448201526064016200055a565b565b8280548282559060005260206000209081019282156200066b579160200282015b828111156200066b578251829060ff1690559160200191906001019062000649565b5062000679929150620006c1565b5090565b8280548282559060005260206000209081019282156200066b579160200282015b828111156200066b578251829061ffff169055916020019190600101906200069e565b5b80821115620006795760008155600101620006c2565b80516001600160a01b0381168114620006f057600080fd5b919050565b6000602082840312156200070857600080fd5b6200071382620006d8565b9392505050565b6000806000606084860312156200073057600080fd5b6200073b84620006d8565b92506200074b60208501620006d8565b91506200075b60408501620006d8565b90509250925092565b61325180620007746000396000f3fe6080604052600436106102cd5760003560e01c8063715018a611610175578063b3a42e03116100dc578063dbf14fbe11610095578063f2fde38b1161006f578063f2fde38b146109a6578063f56e9c66146109c6578063fc96b65e146109e6578063fde3549d14610a1b57600080fd5b8063dbf14fbe14610941578063e1b8cf8214610961578063e45feaa41461098157600080fd5b8063b3a42e03146108bc578063c54c7da6146108d2578063c562a68414610500578063d57f1d9b146108e8578063d8f56bb6146108fe578063db6e26441461091457600080fd5b80639a22e5501161012e5780639a22e550146107815780639a2967f71461081c578063a9cf2ed31461083c578063ae0ae8af1461085c578063b187bd261461087c578063b2a82044146108a657600080fd5b8063715018a6146106e057806374ca5477146106f557806380d978101461070a5780638da5cb5b14610720578063980c1dbb1461073e5780639980f7251461076b57600080fd5b806335593286116102345780634a9fdb0f116101ed57806353f836db116101c757806353f836db1461066a57806362102a5f1461068a5780636827e764146106aa578063709ec8b4146106c057600080fd5b80634a9fdb0f146105fd5780634c3abcfc1461061d5780634da928001461064a57600080fd5b806335593286146104b5578063370158ea146104d55780633b84edbd146105005780634595eb6e1461052057806346156ea0146105c75780634a78cdba146105e757600080fd5b8063127f4b2e11610286578063127f4b2e146103f55780631c75b6b2146104155780631cc05606146104355780631eaa6a00146104555780632c1ef96a14610475578063340ac20f1461049557600080fd5b8063026108da146102d95780630535020d146102fb57806305e30f51146103385780630836ec1d146103665780630a2282ae146103865780630b336a71146103c057600080fd5b366102d457005b600080fd5b3480156102e557600080fd5b506102f96102f4366004612e26565b610a23565b005b34801561030757600080fd5b5061031b610316366004612e26565b610b34565b6040516001600160a01b0390911681526020015b60405180910390f35b34801561034457600080fd5b50610358610353366004612e26565b610b5e565b60405190815260200161032f565b34801561037257600080fd5b506102f9610381366004612e58565b610b7f565b61038e610b92565b604080519586526001600160a01b0390941660208601529284019190915215156060830152608082015260a00161032f565b3480156103cc57600080fd5b506103e06103db366004612e26565b610edc565b6040805192835290151560208301520161032f565b34801561040157600080fd5b506102f9610410366004612e26565b610fd7565b34801561042157600080fd5b506102f9610430366004612e26565b611073565b34801561044157600080fd5b50610358610450366004612d5c565b6110c2565b34801561046157600080fd5b506102f9610470366004612e26565b6110f3565b34801561048157600080fd5b506102f9610490366004612d5c565b611100565b3480156104a157600080fd5b506102f96104b0366004612d22565b61118d565b3480156104c157600080fd5b5060115461031b906001600160a01b031681565b3480156104e157600080fd5b506104ea6111b7565b60405161032f9a9998979695949392919061305a565b34801561050c57600080fd5b506102f961051b366004612d22565b611342565b34801561052c57600080fd5b5061058461053b366004612e26565b6016602052600090815260409020805460018201546002830154600384015460048501546005860154600690960154949593946001600160a01b03938416949293909116919087565b6040805197885260208801969096526001600160a01b03948516958701959095526060860192909252909116608084015260a083015260c082015260e00161032f565b3480156105d357600080fd5b506103586105e2366004612e26565b61136c565b3480156105f357600080fd5b50610358600e5481565b34801561060957600080fd5b506102f9610618366004612e26565b61137c565b34801561062957600080fd5b50610358610638366004612d22565b60196020526000908152604090205481565b34801561065657600080fd5b506102f9610665366004612dec565b6113cb565b34801561067657600080fd5b50610358610685366004612e26565b6113e6565b34801561069657600080fd5b506102f96106a5366004612d88565b6114b1565b3480156106b657600080fd5b5061035860075481565b3480156106cc57600080fd5b5061031b6106db366004612e26565b6115d5565b3480156106ec57600080fd5b506102f96115e5565b34801561070157600080fd5b506102f96115f9565b34801561071657600080fd5b5061035860065481565b34801561072c57600080fd5b506000546001600160a01b031661031b565b34801561074a57600080fd5b5061075e610759366004612e26565b61162c565b60405161032f9190612eb5565b34801561077757600080fd5b5061035860095481565b34801561078d57600080fd5b506107e161079c366004612e26565b601760205260009081526040902080546001820154600283015460038401546004850154600590950154939492936001600160a01b0390921692909160ff9091169086565b6040805196875260208701959095526001600160a01b03909316938501939093526060840152901515608083015260a082015260c00161032f565b34801561082857600080fd5b506102f9610837366004612e26565b6117dc565b34801561084857600080fd5b506102f9610857366004612d22565b6117e9565b34801561086857600080fd5b506102f9610877366004612d5c565b6118b6565b34801561088857600080fd5b506015546108969060ff1681565b604051901515815260200161032f565b3480156108b257600080fd5b5061035860105481565b3480156108c857600080fd5b5061035860085481565b3480156108de57600080fd5b50610358600f5481565b3480156108f457600080fd5b50610358600d5481565b34801561090a57600080fd5b50610358600c5481565b34801561092057600080fd5b5061093461092f366004612e26565b611906565b60405161032f9190612f38565b34801561094d57600080fd5b506102f961095c366004612d22565b611ac4565b34801561096d57600080fd5b506102f961097c366004612e26565b611c4e565b61099461098f366004612d22565b611cac565b60405161032f96959493929190613025565b3480156109b257600080fd5b506102f96109c1366004612d22565b612937565b3480156109d257600080fd5b506102f96109e1366004612d22565b6129ad565b3480156109f257600080fd5b50610a06610a01366004612e26565b612aa6565b6040805192835260208301919091520161032f565b6102f9612b5e565b610a2b612b77565b600154604080516361d027b360e01b815290516000926001600160a01b0316916361d027b3916004808301926020929190829003018186803b158015610a7057600080fd5b505afa158015610a84573d6000803e3d6000fd5b505050506040513d601f19601f82011682018060405250810190610aa89190612d3f565b9050600e54821115610aeb5760405162461bcd60e51b81526020600482015260076024820152660a8dede9aeac6d60cb1b60448201526064015b60405180910390fd5b6040516001600160a01b0382169083156108fc029084906000818181858888f19350505050610b1957600080fd5b81600e6000828254610b2b919061310d565b90915550505050565b60138181548110610b4457600080fd5b6000918252602090912001546001600160a01b0316905081565b600a8181548110610b6e57600080fd5b600091825260209091200154905081565b610b87612b77565b600491909155600555565b601554600090819081908190819060ff1615610be35760405162461bcd60e51b815260206004820152601060248201526f19d85b595cc8185c99481c185d5cd95960821b6044820152606401610ae2565b600654341015610c265760405162461bcd60e51b815260206004820152600e60248201526d3737ba1032b737bab3b41021272160911b6044820152606401610ae2565b600061271060075434610c3991906130ee565b610c4391906130da565b90506000600160009054906101000a90046001600160a01b03166001600160a01b03166361d027b36040518163ffffffff1660e01b815260040160206040518083038186803b158015610c9557600080fd5b505afa158015610ca9573d6000803e3d6000fd5b505050506040513d601f19601f82011682018060405250810190610ccd9190612d3f565b6040519091506001600160a01b0382169083156108fc029084906000818181858888f19350505050610cfe57600080fd5b610d098260026130ee565b610d13903461310d565b945084600e6000828254610d2791906130c2565b92505081905550600160106000828254610d4191906130c2565b925050819055506000610d556009546113e6565b90506005600954610d66919061310d565b8114610d76576000945084610d7c565b60019450845b5084610d8c576000935083610d93565b600e549350835b508415610dc557604051339085156108fc029086906000818181858888f19350505050610dbf57600080fd5b6000600e555b6040805160c08101825242815260108054602080840182815233858701818152606087018e81528d15156080890190815260a089018e815260009788526017909652958990209751885592516001880155516002870180546001600160a01b03929092166001600160a01b031990921691909117905590516003860155915160048501805491151560ff19909216919091179055516005909301929092555491517f0b99472f4356feb056b789b1b95177a76dda68c70e20005c2959cc3267185e1092610ec29290918a908a908a909485526001600160a01b03939093166020850152604084019190915215156060830152608082015260a00190565b60405180910390a160105433975097505050509091929394565b600080600080610eeb85612aa6565b90925090506000610f0061068583600a6130ee565b90506000610f0f83600a6130ee565b905060008411610f4d5760405162461bcd60e51b8152602060048201526009602482015268506f7420456d70747960b81b6044820152606401610ae2565b6000945084610f5d600384613156565b90508015610f6a57600195505b6000610f7760018761310d565b90505b600b8181548110610f8d57610f8d6131ac565b9060005260206000200154600a610fa491906130ee565b610fae908461310d565b9250828410610fc557809750505050505050915091565b80610fcf81613124565b915050610f7a565b610fdf612b77565b600e54610fec904761310d565b81111561104b5760405162461bcd60e51b815260206004820152602760248201527f52656d6f7665206a61636b706f742066756e64732077697468206f74686572206044820152666d6574686f647360c81b6064820152608401610ae2565b604051339082156108fc029083906000818181858888f1935050505061107057600080fd5b50565b61107b612b77565b6107d081106110bd5760405162461bcd60e51b815260206004820152600e60248201526d04c657373207468616e20323030360941b6044820152606401610ae2565b600755565b601860205281600052604060002081815481106110de57600080fd5b90600052602060002001600091509150505481565b6110fb612b77565b600655565b611108612b77565b60405163a9059cbb60e01b8152336004820152602481018290526001600160a01b0383169063a9059cbb90604401602060405180830381600087803b15801561115057600080fd5b505af1158015611164573d6000803e3d6000fd5b505050506040513d601f19601f820116820180604052508101906111889190612e09565b505050565b611195612b77565b600280546001600160a01b0319166001600160a01b0392909216919091179055565b6000806000806000606060006060600080600b8054905067ffffffffffffffff8111156111e6576111e66131c2565b60405190808252806020026020018201604052801561120f578160200160208202803683370190505b50600b80546040805160208084028201810190925282815293985083018282801561125957602002820191906000526020600020905b815481526020019060010190808311611245575b5050600a54939850505067ffffffffffffffff821115905061127d5761127d6131c2565b6040519080825280602002602001820160405280156112a6578160200160208202803683370190505b50600a8054604080516020808402820181019092528281529396508301828280156112f057602002820191906000526020600020905b8154815260200190600101908083116112dc575b50505050509250600e5447611305919061310d565b9750600d549650600454600554898960065489600c5489600e54600954995099509950995099509950995099509950995090919293949596979899565b61134a612b77565b600380546001600160a01b0319166001600160a01b0392909216919091179055565b600b8181548110610b6e57600080fd5b611384612b77565b6107d081106113c65760405162461bcd60e51b815260206004820152600e60248201526d04c657373207468616e20323030360941b6044820152606401610ae2565b600855565b6113d3612b77565b6015805460ff1916911515919091179055565b600080600360009054906101000a90046001600160a01b03166001600160a01b031663dbdff2c16040518163ffffffff1660e01b8152600401602060405180830381600087803b15801561143957600080fd5b505af115801561144d573d6000803e3d6000fd5b505050506040513d601f19601f820116820180604052508101906114719190612e3f565b9050828160405160200161148791815260200190565b6040516020818303038152906040528051906020012060001c6114aa9190613156565b9392505050565b6114b9612b77565b600060015b835181101561155c57836114d360018361310d565b815181106114e3576114e36131ac565b60200260200101518482815181106114fd576114fd6131ac565b60200260200101511161154a5760405162461bcd60e51b8152602060048201526015602482015274185919081b1bddd95cdd081d1bc81a1a59da195cdd605a1b6044820152606401610ae2565b806115548161313b565b9150506114be565b5060005b82518110156115a25782818151811061157b5761157b6131ac565b60200260200101518261158e91906130c2565b91508061159a8161313b565b915050611560565b5082516115b690600a906020860190612c21565b50600c81905581516115cf90600b906020850190612c21565b50505050565b60128181548110610b4457600080fd5b6115ed612b77565b6115f76000612bd1565b565b611601612b77565b60405133904780156108fc02916000818181858888f1935050505061162557600080fd5b6000600e55565b60606000805b600f5481116116715760008181526016602052604090205484101561165f578161165b8161313b565b9250505b806116698161313b565b915050611632565b50600081600f54600161168491906130c2565b61168e919061310d565b90506000808367ffffffffffffffff8111156116ac576116ac6131c2565b60405190808252806020026020018201604052801561172157816020015b61170e6040518060c00160405280600081526020016000815260200160006001600160a01b0316815260200160008152602001600015158152602001600081525090565b8152602001906001900390816116ca5790505b509050825b600f5481116117d257600081815260176020908152604091829020825160c0810184528154815260018201549281019290925260028101546001600160a01b03169282019290925260038201546060820152600482015460ff161515608082015260059091015460a082015282518390859081106117a6576117a66131ac565b602002602001018190525082806117bc9061313b565b93505080806117ca9061313b565b915050611726565b5095945050505050565b6117e4612b77565b600955565b6117f1612b77565b6001600160a01b03811660009081526014602052604090205460ff161561184f5760405162461bcd60e51b815260206004820152601260248201527120b63932b0b23c9030902830bcaa37b5b2b760711b6044820152606401610ae2565b6013805460018181019092557f66de8ffda797e3de9c05e8fc57b3bf0ec28a930d40b0d285d93c06501cf6a0900180546001600160a01b039093166001600160a01b031990931683179055600091825260146020526040909120805460ff19169091179055565b6118be612b77565b6001600160a01b038216600081815260186020908152604080832080546001818101835591855283852001869055938352601990915281208054909190610b2b9084906130c2565b60606000805b600f54811161194b5760008181526016602052604090205484101561193957816119358161313b565b9250505b806119438161313b565b91505061190c565b50600081600f54600161195e91906130c2565b611968919061310d565b90506000808367ffffffffffffffff811115611986576119866131c2565b604051908082528060200260200182016040528015611a0957816020015b6119f66040518060e00160405280600081526020016000815260200160006001600160a01b031681526020016000815260200160006001600160a01b0316815260200160008152602001600081525090565b8152602001906001900390816119a45790505b509050825b600f5481116117d257600081815260166020908152604091829020825160e0810184528154815260018201549281019290925260028101546001600160a01b03908116938301939093526003810154606083015260048101549092166080820152600582015460a082015260069091015460c08201528251839085908110611a9857611a986131ac565b60200260200101819052508280611aae9061313b565b9350508080611abc9061313b565b915050611a0e565b611acc612b77565b6001600160a01b03811660009081526014602052604090205460ff16611b255760405162461bcd60e51b815260206004820152600e60248201526d2737ba1020902830bcaa37b5b2b760911b6044820152606401610ae2565b60005b601354811015611c4a57816001600160a01b031660138281548110611b4f57611b4f6131ac565b6000918252602090912001546001600160a01b03161415611c385760138054611b7a9060019061310d565b81548110611b8a57611b8a6131ac565b600091825260209091200154601380546001600160a01b039092169183908110611bb657611bb66131ac565b9060005260206000200160006101000a8154816001600160a01b0302191690836001600160a01b031602179055506013805480611bf557611bf5613196565b60008281526020808220830160001990810180546001600160a01b03191690559092019092556001600160a01b03841682526014905260409020805460ff191690555b80611c428161313b565b915050611b28565b5050565b611c56612b77565b60028110158015611c685750600a8111155b611ca75760405162461bcd60e51b815260206004820152601060248201526f06265747765656e203220616e642031360841b6044820152606401610ae2565b600d55565b6015546000908190819081908190819060ff1615611cff5760405162461bcd60e51b815260206004820152601060248201526f19d85b595cc8185c99481c185d5cd95960821b6044820152606401610ae2565b348015611e7c57600154604080516361d027b360e01b815290516000926001600160a01b0316916361d027b3916004808301926020929190829003018186803b158015611d4b57600080fd5b505afa158015611d5f573d6000803e3d6000fd5b505050506040513d601f19601f82011682018060405250810190611d839190612d3f565b90506004543410158015611d9957506005543411155b611dd85760405162461bcd60e51b815260206004820152601060248201526f426574206f7574206f662052616e676560801b6044820152606401610ae2565b600061271060075434611deb91906130ee565b611df591906130da565b6040519091506001600160a01b0383169082156108fc029083906000818181858888f19350505050611e2657600080fd5b600061271060085434611e3991906130ee565b611e4391906130da565b905080600e6000828254611e5791906130c2565b90915550819050611e68833461310d565b611e72919061310d565b9750505050611f5e565b3360009081526019602052604090205480611ec85760405162461bcd60e51b815260206004820152600c60248201526b4e6f2046726565506c61797360a01b6044820152606401610ae2565b336000908152601860205260409020611ee260018361310d565b81548110611ef257611ef26131ac565b60009182526020808320909101543383526018909152604090912080549193509080611f2057611f20613196565b6000828152602080822083016000199081018390559092019092553382526019905260408120805460019290611f5790849061310d565b9091555050505b6001600f6000828254611f7191906130c2565b90915550506001600160a01b03881660009081526014602052604090205460ff16611fcf5760405162461bcd60e51b815260206004820152600e60248201526d2737ba1030902830bcba37b5b2b760911b6044820152606401610ae2565b600080611fdb83610edc565b91509150600a8281548110611ff257611ff26131ac565b906000526020600020015460001415612171576000805160206131fc833981519152600f543389896000600a888154811061202f5761202f6131ac565b906000526020600020015460405161204c96959493929190613025565b60405180910390a16040518060e00160405280428152602001600f548152602001336001600160a01b03168152602001888152602001876001600160a01b0316815260200160008152602001600a84815481106120ab576120ab6131ac565b6000918252602080832090910154909252600f80548252601683526040808320855181559385015160018501558401516002840180546001600160a01b039283166001600160a01b03199182161790915560608601516003860155608086015160048601805491909316911617905560a0840151600584015560c0909301516006909201919091559054600a8054919233928b928b929188908110612152576121526131ac565b906000526020600020015498509850985098509850985050505061292e565b600a8281548110612184576121846131ac565b9060005260206000200154600314806121ce5750600a82815481106121ab576121ab6131ac565b906000526020600020015460051480156121ce57506011546001600160a01b0316155b1561224357336000818152601860209081526040808320805460018181018355918552838520018890559383526019909152812080549091906122129084906130c2565b925050819055506000805160206131fc833981519152600f543389896000600a888154811061202f5761202f6131ac565b600a8281548110612256576122566131ac565b90600052602060002001546005141561243c57601154604051631cdfd52f60e11b8152336004820152600160248201526001600160a01b039091169081906339bfaa5e90604401600060405180830381600087803b1580156122b757600080fd5b505af11580156122cb573d6000803e3d6000fd5b505050506000805160206131fc833981519152600f54338a8a6000600a89815481106122f9576122f96131ac565b906000526020600020015460405161231696959493929190613025565b60405180910390a16040518060e00160405280428152602001600f548152602001336001600160a01b03168152602001898152602001886001600160a01b0316815260200160008152602001600a8581548110612375576123756131ac565b6000918252602080832090910154909252600f80548252601683526040808320855181559385015160018501558401516002840180546001600160a01b039283166001600160a01b03199182161790915560608601516003860155608086015160048601805491909316911617905560a0840151600584015560c0909301516006909201919091559054600a8054919233928c928c92918990811061241c5761241c6131ac565b90600052602060002001549950995099509950995099505050505061292e565b8061244b576000955085612450565b899550855b5082600a8381548110612465576124656131ac565b906000526020600020015461247a91906130ee565b945080158061251f5750600260009054906101000a90046001600160a01b03166001600160a01b031663ad5c46486040518163ffffffff1660e01b815260040160206040518083038186803b1580156124d257600080fd5b505afa1580156124e6573d6000803e3d6000fd5b505050506040513d601f19601f8201168201806040525081019061250a9190612d3f565b6001600160a01b03168a6001600160a01b0316145b1561254e57604051339086156108fc029087906000818181858888f1935050505061254957600080fd5b6127c8565b6040516370a0823160e01b81523360048201526000906001600160a01b038c16906370a082319060240160206040518083038186803b15801561259057600080fd5b505afa1580156125a4573d6000803e3d6000fd5b505050506040513d601f19601f820116820180604052508101906125c89190612e3f565b60408051600280825260608201835292935060009290916020830190803683375050600254604080516315ab88c960e31b815290519394506001600160a01b039091169263ad5c464892506004808301926020929190829003018186803b15801561263257600080fd5b505afa158015612646573d6000803e3d6000fd5b505050506040513d601f19601f8201168201806040525081019061266a9190612d3f565b8160008151811061267d5761267d6131ac565b60200260200101906001600160a01b031690816001600160a01b0316815250508b816001815181106126b1576126b16131ac565b6001600160a01b03928316602091820292909201015260025460405163b6f9de9560e01b815291169063b6f9de959089906126f790600090869033904290600401612fbb565b6000604051808303818588803b15801561271057600080fd5b505af1158015612724573d6000803e3d6000fd5b505050505060008c6001600160a01b03166370a08231336040518263ffffffff1660e01b815260040161276691906001600160a01b0391909116815260200190565b60206040518083038186803b15801561277e57600080fd5b505afa158015612792573d6000803e3d6000fd5b505050506040513d601f19601f820116820180604052508101906127b69190612e3f565b90506127c2838261310d565b97505050505b6040518060e00160405280428152602001600f548152602001336001600160a01b03168152602001888152602001876001600160a01b03168152602001868152602001600a848154811061281e5761281e6131ac565b6000918252602080832090910154909252600f805482526016835260409182902084518155928401516001840155908301516002830180546001600160a01b039283166001600160a01b03199182161790915560608501516003850155608085015160048501805491909316911617905560a0830151600583015560c09092015160069091015554600a80546000805160206131fc833981519152929133918b918b918b9190899081106128d4576128d46131ac565b90600052602060002001546040516128f196959493929190613025565b60405180910390a1600f5433888888600a8781548110612913576129136131ac565b90600052602060002001549850985098509850985098505050505b91939550919395565b61293f612b77565b6001600160a01b0381166129a45760405162461bcd60e51b815260206004820152602660248201527f4f776e61626c653a206e6577206f776e657220697320746865207a65726f206160448201526564647265737360d01b6064820152608401610ae2565b61107081612bd1565b6129b5612b77565b601180546001600160a01b0319166001600160a01b0383169081179091556040805163f6a15d7160e01b815290513091839163f6a15d7191600480820192602092909190829003018186803b158015612a0d57600080fd5b505afa158015612a21573d6000803e3d6000fd5b505050506040513d601f19601f82011682018060405250810190612a459190612d3f565b6001600160a01b031614611c4a5760405162461bcd60e51b815260206004820152602260248201527f4d757374206265207375624f7020666f7220746865204e465420636f6e74726160448201526118dd60f21b6064820152608401610ae2565b6000806000600e5447612ab9919061310d565b9050600092506000915060005b600a54811015612b5757600d54600a8281548110612ae657612ae66131ac565b906000526020600020015486612afc91906130ee565b612b0691906130ee565b8210612b4557612b176001856130c2565b9350600b8181548110612b2c57612b2c6131ac565b906000526020600020015483612b4291906130c2565b92505b80612b4f8161313b565b915050612ac6565b5050915091565b34600e6000828254612b7091906130c2565b9091555050565b6000546001600160a01b031633146115f75760405162461bcd60e51b815260206004820181905260248201527f4f776e61626c653a2063616c6c6572206973206e6f7420746865206f776e65726044820152606401610ae2565b600080546001600160a01b038381166001600160a01b0319831681178455604051919092169283917f8be0079c531659141344cd1fd0a4f28419497f9722a3daafe3b4186f6b6457e09190a35050565b828054828255906000526020600020908101928215612c5c579160200282015b82811115612c5c578251825591602001919060010190612c41565b50612c68929150612c6c565b5090565b5b80821115612c685760008155600101612c6d565b600082601f830112612c9257600080fd5b8135602067ffffffffffffffff80831115612caf57612caf6131c2565b8260051b604051601f19603f83011681018181108482111715612cd457612cd46131c2565b60405284815283810192508684018288018501891015612cf357600080fd5b600092505b85831015612d16578035845292840192600192909201918401612cf8565b50979650505050505050565b600060208284031215612d3457600080fd5b81356114aa816131d8565b600060208284031215612d5157600080fd5b81516114aa816131d8565b60008060408385031215612d6f57600080fd5b8235612d7a816131d8565b946020939093013593505050565b60008060408385031215612d9b57600080fd5b823567ffffffffffffffff80821115612db357600080fd5b612dbf86838701612c81565b93506020850135915080821115612dd557600080fd5b50612de285828601612c81565b9150509250929050565b600060208284031215612dfe57600080fd5b81356114aa816131ed565b600060208284031215612e1b57600080fd5b81516114aa816131ed565b600060208284031215612e3857600080fd5b5035919050565b600060208284031215612e5157600080fd5b5051919050565b60008060408385031215612e6b57600080fd5b50508035926020909101359150565b600081518084526020808501945080840160005b83811015612eaa57815187529582019590820190600101612e8e565b509495945050505050565b602080825282518282018190526000919060409081850190868401855b82811015612f2b578151805185528681015187860152858101516001600160a01b0316868601526060808201519086015260808082015115159086015260a0908101519085015260c09093019290850190600101612ed2565b5091979650505050505050565b602080825282518282018190526000919060409081850190868401855b82811015612f2b578151805185528681015187860152858101516001600160a01b0390811687870152606080830151908701526080808301519091169086015260a0808201519086015260c0908101519085015260e09093019290850190600101612f55565b600060808201868352602060808185015281875180845260a086019150828901935060005b818110156130055784516001600160a01b031683529383019391830191600101612fe0565b50506001600160a01b039690961660408501525050506060015292915050565b9586526001600160a01b039485166020870152604086019390935292166060840152608083019190915260a082015260c00190565b60006101408c83528b60208401528a60408401528960608401528860808401528060a084015261308c81840189612e7a565b90508660c084015282810360e08401526130a68187612e7a565b6101008401959095525050610120015298975050505050505050565b600082198211156130d5576130d561316a565b500190565b6000826130e9576130e9613180565b500490565b60008160001904831182151516156131085761310861316a565b500290565b60008282101561311f5761311f61316a565b500390565b6000816131335761313361316a565b506000190190565b600060001982141561314f5761314f61316a565b5060010190565b60008261316557613165613180565b500690565b634e487b7160e01b600052601160045260246000fd5b634e487b7160e01b600052601260045260246000fd5b634e487b7160e01b600052603160045260246000fd5b634e487b7160e01b600052603260045260246000fd5b634e487b7160e01b600052604160045260246000fd5b6001600160a01b038116811461107057600080fd5b801515811461107057600080fdfe281f35b208c702e315f5e081c071ba0ebb3f2d13b733a13592e3f20ce9d924baa2646970667358221220e2993293dd1a4ac821d5d94fa6e2f57ba0ffb686a88dd7d9ea619eddf975b52964736f6c63430008070033",
					"opcodes": "PUSH8 0x6F05B59D3B20000 PUSH1 0x4 SWAP1 DUP2 SSTORE PUSH9 0xD8D726B7177A80000 PUSH1 0x5 SWAP1 DUP2 SSTORE PUSH8 0x4563918244F40000 PUSH1 0x6 SWAP1 DUP2 SSTORE PUSH2 0x1F4 PUSH1 0x7 DUP2 SWAP1 SSTORE PUSH1 0x8 SSTORE PUSH1 0xC8 PUSH1 0x9 SSTORE PUSH2 0x1E0 PUSH1 0x40 MSTORE PUSH1 0x0 PUSH1 0x80 SWAP1 DUP2 MSTORE PUSH1 0x1 PUSH1 0xA0 MSTORE PUSH1 0x2 PUSH1 0xC0 MSTORE PUSH1 0x3 PUSH1 0xE0 MSTORE PUSH2 0x100 SWAP4 SWAP1 SWAP4 MSTORE PUSH2 0x120 SWAP2 SWAP1 SWAP2 MSTORE PUSH2 0x140 MSTORE PUSH1 0xA PUSH2 0x160 DUP2 SWAP1 MSTORE PUSH1 0x14 PUSH2 0x180 MSTORE PUSH1 0x32 PUSH2 0x1A0 MSTORE PUSH1 0x64 PUSH2 0x1C0 MSTORE PUSH3 0x8F SWAP2 PUSH1 0xB PUSH3 0x628 JUMP JUMPDEST POP PUSH1 0x40 DUP1 MLOAD PUSH2 0x160 DUP2 ADD DUP3 MSTORE PUSH2 0x2BC DUP2 MSTORE PUSH1 0x64 PUSH1 0x20 DUP3 ADD DUP2 SWAP1 MSTORE PUSH1 0x1E SWAP3 DUP3 ADD DUP4 SWAP1 MSTORE PUSH1 0x60 DUP3 ADD MSTORE PUSH1 0xF PUSH1 0x80 DUP3 ADD MSTORE PUSH1 0xA0 DUP2 ADD SWAP2 SWAP1 SWAP2 MSTORE PUSH1 0xA PUSH1 0xC0 DUP3 ADD MSTORE PUSH1 0x7 PUSH1 0xE0 DUP3 ADD MSTORE PUSH1 0x4 PUSH2 0x100 DUP3 ADD MSTORE PUSH1 0x3 PUSH2 0x120 DUP3 ADD MSTORE PUSH1 0x1 PUSH2 0x140 DUP3 ADD MSTORE PUSH3 0xFA SWAP1 PUSH1 0xB SWAP1 DUP2 PUSH3 0x67D JUMP JUMPDEST POP PUSH2 0x3E8 PUSH1 0xC SSTORE PUSH1 0x6 PUSH1 0xD SSTORE PUSH1 0x0 PUSH1 0xE DUP2 SWAP1 SSTORE PUSH1 0xF DUP2 SWAP1 SSTORE PUSH1 0x10 SSTORE PUSH1 0x15 DUP1 SLOAD PUSH1 0xFF NOT AND SWAP1 SSTORE CALLVALUE DUP1 ISZERO PUSH3 0x12C JUMPI PUSH1 0x0 DUP1 REVERT JUMPDEST POP PUSH1 0x40 MLOAD PUSH3 0x39C5 CODESIZE SUB DUP1 PUSH3 0x39C5 DUP4 CODECOPY DUP2 ADD PUSH1 0x40 DUP2 SWAP1 MSTORE PUSH3 0x14F SWAP2 PUSH3 0x71A JUMP JUMPDEST PUSH3 0x15A CALLER PUSH3 0x4A5 JUMP JUMPDEST PUSH1 0x40 DUP1 MLOAD PUSH1 0xE0 DUP2 ADD DUP3 MSTORE TIMESTAMP DUP1 DUP3 MSTORE PUSH1 0x1 PUSH1 0x20 DUP1 DUP5 ADD DUP3 DUP2 MSTORE PUSH1 0x0 DUP6 DUP8 ADD DUP2 DUP2 MSTORE PUSH1 0x60 DUP1 DUP9 ADD DUP4 DUP2 MSTORE PUSH1 0x80 DUP1 DUP11 ADD DUP6 DUP2 MSTORE PUSH1 0xA0 DUP1 DUP13 ADD DUP8 DUP2 MSTORE PUSH1 0xC0 DUP1 DUP15 ADD DUP10 DUP2 MSTORE DUP10 DUP1 MSTORE PUSH1 0x16 DUP13 MSTORE SWAP14 MLOAD PUSH32 0x263C2B778D062355049EFFC2DECE97BC6547FF8A88A3258DAA512061C2153DD SSTORE SWAP9 MLOAD PUSH32 0x263C2B778D062355049EFFC2DECE97BC6547FF8A88A3258DAA512061C2153DE SSTORE SWAP6 MLOAD PUSH32 0x263C2B778D062355049EFFC2DECE97BC6547FF8A88A3258DAA512061C2153DF DUP1 SLOAD PUSH1 0x1 PUSH1 0x1 PUSH1 0xA0 SHL SUB NOT SWAP1 DUP2 AND PUSH1 0x1 PUSH1 0x1 PUSH1 0xA0 SHL SUB SWAP4 DUP5 AND OR SWAP1 SWAP2 SSTORE SWAP5 MLOAD PUSH32 0x263C2B778D062355049EFFC2DECE97BC6547FF8A88A3258DAA512061C2153E0 SSTORE SWAP2 MLOAD PUSH32 0x263C2B778D062355049EFFC2DECE97BC6547FF8A88A3258DAA512061C2153E1 DUP1 SLOAD DUP7 AND SWAP2 DUP5 AND SWAP2 SWAP1 SWAP2 OR SWAP1 SSTORE SWAP5 MLOAD PUSH32 0x263C2B778D062355049EFFC2DECE97BC6547FF8A88A3258DAA512061C2153E2 SSTORE SWAP10 MLOAD PUSH32 0x263C2B778D062355049EFFC2DECE97BC6547FF8A88A3258DAA512061C2153E3 SSTORE DUP11 MLOAD SWAP6 DUP7 ADD DUP12 MSTORE SWAP8 DUP6 MSTORE DUP5 DUP7 ADD SWAP7 DUP8 MSTORE DUP5 DUP11 ADD DUP5 DUP2 MSTORE SWAP2 DUP6 ADD DUP5 DUP2 MSTORE SWAP8 DUP6 ADD DUP5 DUP2 MSTORE SWAP3 DUP6 ADD DUP5 DUP2 MSTORE SWAP4 DUP1 MSTORE PUSH1 0x17 DUP7 MSTORE SWAP4 MLOAD PUSH32 0xD840E16649F6B9A295D95876F4633D3A6B10B55E8162971CF78AFD886D5EC89B SSTORE SWAP5 MLOAD PUSH32 0xD840E16649F6B9A295D95876F4633D3A6B10B55E8162971CF78AFD886D5EC89C SSTORE SWAP4 MLOAD PUSH32 0xD840E16649F6B9A295D95876F4633D3A6B10B55E8162971CF78AFD886D5EC89D DUP1 SLOAD DUP5 AND SWAP2 DUP9 AND SWAP2 SWAP1 SWAP2 OR SWAP1 SSTORE SWAP4 MLOAD PUSH32 0xD840E16649F6B9A295D95876F4633D3A6B10B55E8162971CF78AFD886D5EC89E SSTORE SWAP2 MLOAD PUSH32 0xD840E16649F6B9A295D95876F4633D3A6B10B55E8162971CF78AFD886D5EC89F DUP1 SLOAD PUSH1 0xFF NOT AND SWAP2 ISZERO ISZERO SWAP2 SWAP1 SWAP2 OR SWAP1 SSTORE SWAP2 MLOAD PUSH32 0xD840E16649F6B9A295D95876F4633D3A6B10B55E8162971CF78AFD886D5EC8A0 SSTORE PUSH1 0x2 DUP1 SLOAD DUP3 AND DUP9 DUP6 AND SWAP1 DUP2 OR SWAP1 SWAP2 SSTORE PUSH1 0x3 DUP1 SLOAD SWAP1 SWAP3 AND SWAP4 DUP8 AND SWAP4 SWAP1 SWAP4 OR SWAP1 SSTORE DUP3 MLOAD PUSH4 0x15AB88C9 PUSH1 0xE3 SHL DUP2 MSTORE SWAP3 MLOAD PUSH3 0x47C SWAP4 PUSH4 0xAD5C4648 SWAP3 PUSH1 0x4 DUP1 DUP4 ADD SWAP4 SWAP2 SWAP3 DUP3 SWAP1 SUB ADD DUP2 DUP7 DUP1 EXTCODESIZE ISZERO DUP1 ISZERO PUSH3 0x43B JUMPI PUSH1 0x0 DUP1 REVERT JUMPDEST POP GAS STATICCALL ISZERO DUP1 ISZERO PUSH3 0x450 JUMPI RETURNDATASIZE PUSH1 0x0 DUP1 RETURNDATACOPY RETURNDATASIZE PUSH1 0x0 REVERT JUMPDEST POP POP POP POP PUSH1 0x40 MLOAD RETURNDATASIZE PUSH1 0x1F NOT PUSH1 0x1F DUP3 ADD AND DUP3 ADD DUP1 PUSH1 0x40 MSTORE POP DUP2 ADD SWAP1 PUSH3 0x476 SWAP2 SWAP1 PUSH3 0x6F5 JUMP JUMPDEST PUSH3 0x4F5 JUMP JUMPDEST PUSH1 0x1 DUP1 SLOAD PUSH1 0x1 PUSH1 0x1 PUSH1 0xA0 SHL SUB NOT AND PUSH1 0x1 PUSH1 0x1 PUSH1 0xA0 SHL SUB SWAP3 SWAP1 SWAP3 AND SWAP2 SWAP1 SWAP2 OR SWAP1 SSTORE POP PUSH3 0x764 SWAP1 POP JUMP JUMPDEST PUSH1 0x0 DUP1 SLOAD PUSH1 0x1 PUSH1 0x1 PUSH1 0xA0 SHL SUB DUP4 DUP2 AND PUSH1 0x1 PUSH1 0x1 PUSH1 0xA0 SHL SUB NOT DUP4 AND DUP2 OR DUP5 SSTORE PUSH1 0x40 MLOAD SWAP2 SWAP1 SWAP3 AND SWAP3 DUP4 SWAP2 PUSH32 0x8BE0079C531659141344CD1FD0A4F28419497F9722A3DAAFE3B4186F6B6457E0 SWAP2 SWAP1 LOG3 POP POP JUMP JUMPDEST PUSH3 0x4FF PUSH3 0x5CA JUMP JUMPDEST PUSH1 0x1 PUSH1 0x1 PUSH1 0xA0 SHL SUB DUP2 AND PUSH1 0x0 SWAP1 DUP2 MSTORE PUSH1 0x14 PUSH1 0x20 MSTORE PUSH1 0x40 SWAP1 KECCAK256 SLOAD PUSH1 0xFF AND ISZERO PUSH3 0x563 JUMPI PUSH1 0x40 MLOAD PUSH3 0x461BCD PUSH1 0xE5 SHL DUP2 MSTORE PUSH1 0x20 PUSH1 0x4 DUP3 ADD MSTORE PUSH1 0x12 PUSH1 0x24 DUP3 ADD MSTORE PUSH18 0x20B63932B0B23C9030902830BCAA37B5B2B7 PUSH1 0x71 SHL PUSH1 0x44 DUP3 ADD MSTORE PUSH1 0x64 ADD JUMPDEST PUSH1 0x40 MLOAD DUP1 SWAP2 SUB SWAP1 REVERT JUMPDEST PUSH1 0x13 DUP1 SLOAD PUSH1 0x1 DUP2 DUP2 ADD SWAP1 SWAP3 SSTORE PUSH32 0x66DE8FFDA797E3DE9C05E8FC57B3BF0EC28A930D40B0D285D93C06501CF6A090 ADD DUP1 SLOAD PUSH1 0x1 PUSH1 0x1 PUSH1 0xA0 SHL SUB SWAP1 SWAP4 AND PUSH1 0x1 PUSH1 0x1 PUSH1 0xA0 SHL SUB NOT SWAP1 SWAP4 AND DUP4 OR SWAP1 SSTORE PUSH1 0x0 SWAP2 DUP3 MSTORE PUSH1 0x14 PUSH1 0x20 MSTORE PUSH1 0x40 SWAP1 SWAP2 KECCAK256 DUP1 SLOAD PUSH1 0xFF NOT AND SWAP1 SWAP2 OR SWAP1 SSTORE JUMP JUMPDEST PUSH1 0x0 SLOAD PUSH1 0x1 PUSH1 0x1 PUSH1 0xA0 SHL SUB AND CALLER EQ PUSH3 0x626 JUMPI PUSH1 0x40 MLOAD PUSH3 0x461BCD PUSH1 0xE5 SHL DUP2 MSTORE PUSH1 0x20 PUSH1 0x4 DUP3 ADD DUP2 SWAP1 MSTORE PUSH1 0x24 DUP3 ADD MSTORE PUSH32 0x4F776E61626C653A2063616C6C6572206973206E6F7420746865206F776E6572 PUSH1 0x44 DUP3 ADD MSTORE PUSH1 0x64 ADD PUSH3 0x55A JUMP JUMPDEST JUMP JUMPDEST DUP3 DUP1 SLOAD DUP3 DUP3 SSTORE SWAP1 PUSH1 0x0 MSTORE PUSH1 0x20 PUSH1 0x0 KECCAK256 SWAP1 DUP2 ADD SWAP3 DUP3 ISZERO PUSH3 0x66B JUMPI SWAP2 PUSH1 0x20 MUL DUP3 ADD JUMPDEST DUP3 DUP2 GT ISZERO PUSH3 0x66B JUMPI DUP3 MLOAD DUP3 SWAP1 PUSH1 0xFF AND SWAP1 SSTORE SWAP2 PUSH1 0x20 ADD SWAP2 SWAP1 PUSH1 0x1 ADD SWAP1 PUSH3 0x649 JUMP JUMPDEST POP PUSH3 0x679 SWAP3 SWAP2 POP PUSH3 0x6C1 JUMP JUMPDEST POP SWAP1 JUMP JUMPDEST DUP3 DUP1 SLOAD DUP3 DUP3 SSTORE SWAP1 PUSH1 0x0 MSTORE PUSH1 0x20 PUSH1 0x0 KECCAK256 SWAP1 DUP2 ADD SWAP3 DUP3 ISZERO PUSH3 0x66B JUMPI SWAP2 PUSH1 0x20 MUL DUP3 ADD JUMPDEST DUP3 DUP2 GT ISZERO PUSH3 0x66B JUMPI DUP3 MLOAD DUP3 SWAP1 PUSH2 0xFFFF AND SWAP1 SSTORE SWAP2 PUSH1 0x20 ADD SWAP2 SWAP1 PUSH1 0x1 ADD SWAP1 PUSH3 0x69E JUMP JUMPDEST JUMPDEST DUP1 DUP3 GT ISZERO PUSH3 0x679 JUMPI PUSH1 0x0 DUP2 SSTORE PUSH1 0x1 ADD PUSH3 0x6C2 JUMP JUMPDEST DUP1 MLOAD PUSH1 0x1 PUSH1 0x1 PUSH1 0xA0 SHL SUB DUP2 AND DUP2 EQ PUSH3 0x6F0 JUMPI PUSH1 0x0 DUP1 REVERT JUMPDEST SWAP2 SWAP1 POP JUMP JUMPDEST PUSH1 0x0 PUSH1 0x20 DUP3 DUP5 SUB SLT ISZERO PUSH3 0x708 JUMPI PUSH1 0x0 DUP1 REVERT JUMPDEST PUSH3 0x713 DUP3 PUSH3 0x6D8 JUMP JUMPDEST SWAP4 SWAP3 POP POP POP JUMP JUMPDEST PUSH1 0x0 DUP1 PUSH1 0x0 PUSH1 0x60 DUP5 DUP7 SUB SLT ISZERO PUSH3 0x730 JUMPI PUSH1 0x0 DUP1 REVERT JUMPDEST PUSH3 0x73B DUP5 PUSH3 0x6D8 JUMP JUMPDEST SWAP3 POP PUSH3 0x74B PUSH1 0x20 DUP6 ADD PUSH3 0x6D8 JUMP JUMPDEST SWAP2 POP PUSH3 0x75B PUSH1 0x40 DUP6 ADD PUSH3 0x6D8 JUMP JUMPDEST SWAP1 POP SWAP3 POP SWAP3 POP SWAP3 JUMP JUMPDEST PUSH2 0x3251 DUP1 PUSH3 0x774 PUSH1 0x0 CODECOPY PUSH1 0x0 RETURN INVALID PUSH1 0x80 PUSH1 0x40 MSTORE PUSH1 0x4 CALLDATASIZE LT PUSH2 0x2CD JUMPI PUSH1 0x0 CALLDATALOAD PUSH1 0xE0 SHR DUP1 PUSH4 0x715018A6 GT PUSH2 0x175 JUMPI DUP1 PUSH4 0xB3A42E03 GT PUSH2 0xDC JUMPI DUP1 PUSH4 0xDBF14FBE GT PUSH2 0x95 JUMPI DUP1 PUSH4 0xF2FDE38B GT PUSH2 0x6F JUMPI DUP1 PUSH4 0xF2FDE38B EQ PUSH2 0x9A6 JUMPI DUP1 PUSH4 0xF56E9C66 EQ PUSH2 0x9C6 JUMPI DUP1 PUSH4 0xFC96B65E EQ PUSH2 0x9E6 JUMPI DUP1 PUSH4 0xFDE3549D EQ PUSH2 0xA1B JUMPI PUSH1 0x0 DUP1 REVERT JUMPDEST DUP1 PUSH4 0xDBF14FBE EQ PUSH2 0x941 JUMPI DUP1 PUSH4 0xE1B8CF82 EQ PUSH2 0x961 JUMPI DUP1 PUSH4 0xE45FEAA4 EQ PUSH2 0x981 JUMPI PUSH1 0x0 DUP1 REVERT JUMPDEST DUP1 PUSH4 0xB3A42E03 EQ PUSH2 0x8BC JUMPI DUP1 PUSH4 0xC54C7DA6 EQ PUSH2 0x8D2 JUMPI DUP1 PUSH4 0xC562A684 EQ PUSH2 0x500 JUMPI DUP1 PUSH4 0xD57F1D9B EQ PUSH2 0x8E8 JUMPI DUP1 PUSH4 0xD8F56BB6 EQ PUSH2 0x8FE JUMPI DUP1 PUSH4 0xDB6E2644 EQ PUSH2 0x914 JUMPI PUSH1 0x0 DUP1 REVERT JUMPDEST DUP1 PUSH4 0x9A22E550 GT PUSH2 0x12E JUMPI DUP1 PUSH4 0x9A22E550 EQ PUSH2 0x781 JUMPI DUP1 PUSH4 0x9A2967F7 EQ PUSH2 0x81C JUMPI DUP1 PUSH4 0xA9CF2ED3 EQ PUSH2 0x83C JUMPI DUP1 PUSH4 0xAE0AE8AF EQ PUSH2 0x85C JUMPI DUP1 PUSH4 0xB187BD26 EQ PUSH2 0x87C JUMPI DUP1 PUSH4 0xB2A82044 EQ PUSH2 0x8A6 JUMPI PUSH1 0x0 DUP1 REVERT JUMPDEST DUP1 PUSH4 0x715018A6 EQ PUSH2 0x6E0 JUMPI DUP1 PUSH4 0x74CA5477 EQ PUSH2 0x6F5 JUMPI DUP1 PUSH4 0x80D97810 EQ PUSH2 0x70A JUMPI DUP1 PUSH4 0x8DA5CB5B EQ PUSH2 0x720 JUMPI DUP1 PUSH4 0x980C1DBB EQ PUSH2 0x73E JUMPI DUP1 PUSH4 0x9980F725 EQ PUSH2 0x76B JUMPI PUSH1 0x0 DUP1 REVERT JUMPDEST DUP1 PUSH4 0x35593286 GT PUSH2 0x234 JUMPI DUP1 PUSH4 0x4A9FDB0F GT PUSH2 0x1ED JUMPI DUP1 PUSH4 0x53F836DB GT PUSH2 0x1C7 JUMPI DUP1 PUSH4 0x53F836DB EQ PUSH2 0x66A JUMPI DUP1 PUSH4 0x62102A5F EQ PUSH2 0x68A JUMPI DUP1 PUSH4 0x6827E764 EQ PUSH2 0x6AA JUMPI DUP1 PUSH4 0x709EC8B4 EQ PUSH2 0x6C0 JUMPI PUSH1 0x0 DUP1 REVERT JUMPDEST DUP1 PUSH4 0x4A9FDB0F EQ PUSH2 0x5FD JUMPI DUP1 PUSH4 0x4C3ABCFC EQ PUSH2 0x61D JUMPI DUP1 PUSH4 0x4DA92800 EQ PUSH2 0x64A JUMPI PUSH1 0x0 DUP1 REVERT JUMPDEST DUP1 PUSH4 0x35593286 EQ PUSH2 0x4B5 JUMPI DUP1 PUSH4 0x370158EA EQ PUSH2 0x4D5 JUMPI DUP1 PUSH4 0x3B84EDBD EQ PUSH2 0x500 JUMPI DUP1 PUSH4 0x4595EB6E EQ PUSH2 0x520 JUMPI DUP1 PUSH4 0x46156EA0 EQ PUSH2 0x5C7 JUMPI DUP1 PUSH4 0x4A78CDBA EQ PUSH2 0x5E7 JUMPI PUSH1 0x0 DUP1 REVERT JUMPDEST DUP1 PUSH4 0x127F4B2E GT PUSH2 0x286 JUMPI DUP1 PUSH4 0x127F4B2E EQ PUSH2 0x3F5 JUMPI DUP1 PUSH4 0x1C75B6B2 EQ PUSH2 0x415 JUMPI DUP1 PUSH4 0x1CC05606 EQ PUSH2 0x435 JUMPI DUP1 PUSH4 0x1EAA6A00 EQ PUSH2 0x455 JUMPI DUP1 PUSH4 0x2C1EF96A EQ PUSH2 0x475 JUMPI DUP1 PUSH4 0x340AC20F EQ PUSH2 0x495 JUMPI PUSH1 0x0 DUP1 REVERT JUMPDEST DUP1 PUSH4 0x26108DA EQ PUSH2 0x2D9 JUMPI DUP1 PUSH4 0x535020D EQ PUSH2 0x2FB JUMPI DUP1 PUSH4 0x5E30F51 EQ PUSH2 0x338 JUMPI DUP1 PUSH4 0x836EC1D EQ PUSH2 0x366 JUMPI DUP1 PUSH4 0xA2282AE EQ PUSH2 0x386 JUMPI DUP1 PUSH4 0xB336A71 EQ PUSH2 0x3C0 JUMPI PUSH1 0x0 DUP1 REVERT JUMPDEST CALLDATASIZE PUSH2 0x2D4 JUMPI STOP JUMPDEST PUSH1 0x0 DUP1 REVERT JUMPDEST CALLVALUE DUP1 ISZERO PUSH2 0x2E5 JUMPI PUSH1 0x0 DUP1 REVERT JUMPDEST POP PUSH2 0x2F9 PUSH2 0x2F4 CALLDATASIZE PUSH1 0x4 PUSH2 0x2E26 JUMP JUMPDEST PUSH2 0xA23 JUMP JUMPDEST STOP JUMPDEST CALLVALUE DUP1 ISZERO PUSH2 0x307 JUMPI PUSH1 0x0 DUP1 REVERT JUMPDEST POP PUSH2 0x31B PUSH2 0x316 CALLDATASIZE PUSH1 0x4 PUSH2 0x2E26 JUMP JUMPDEST PUSH2 0xB34 JUMP JUMPDEST PUSH1 0x40 MLOAD PUSH1 0x1 PUSH1 0x1 PUSH1 0xA0 SHL SUB SWAP1 SWAP2 AND DUP2 MSTORE PUSH1 0x20 ADD JUMPDEST PUSH1 0x40 MLOAD DUP1 SWAP2 SUB SWAP1 RETURN JUMPDEST CALLVALUE DUP1 ISZERO PUSH2 0x344 JUMPI PUSH1 0x0 DUP1 REVERT JUMPDEST POP PUSH2 0x358 PUSH2 0x353 CALLDATASIZE PUSH1 0x4 PUSH2 0x2E26 JUMP JUMPDEST PUSH2 0xB5E JUMP JUMPDEST PUSH1 0x40 MLOAD SWAP1 DUP2 MSTORE PUSH1 0x20 ADD PUSH2 0x32F JUMP JUMPDEST CALLVALUE DUP1 ISZERO PUSH2 0x372 JUMPI PUSH1 0x0 DUP1 REVERT JUMPDEST POP PUSH2 0x2F9 PUSH2 0x381 CALLDATASIZE PUSH1 0x4 PUSH2 0x2E58 JUMP JUMPDEST PUSH2 0xB7F JUMP JUMPDEST PUSH2 0x38E PUSH2 0xB92 JUMP JUMPDEST PUSH1 0x40 DUP1 MLOAD SWAP6 DUP7 MSTORE PUSH1 0x1 PUSH1 0x1 PUSH1 0xA0 SHL SUB SWAP1 SWAP5 AND PUSH1 0x20 DUP7 ADD MSTORE SWAP3 DUP5 ADD SWAP2 SWAP1 SWAP2 MSTORE ISZERO ISZERO PUSH1 0x60 DUP4 ADD MSTORE PUSH1 0x80 DUP3 ADD MSTORE PUSH1 0xA0 ADD PUSH2 0x32F JUMP JUMPDEST CALLVALUE DUP1 ISZERO PUSH2 0x3CC JUMPI PUSH1 0x0 DUP1 REVERT JUMPDEST POP PUSH2 0x3E0 PUSH2 0x3DB CALLDATASIZE PUSH1 0x4 PUSH2 0x2E26 JUMP JUMPDEST PUSH2 0xEDC JUMP JUMPDEST PUSH1 0x40 DUP1 MLOAD SWAP3 DUP4 MSTORE SWAP1 ISZERO ISZERO PUSH1 0x20 DUP4 ADD MSTORE ADD PUSH2 0x32F JUMP JUMPDEST CALLVALUE DUP1 ISZERO PUSH2 0x401 JUMPI PUSH1 0x0 DUP1 REVERT JUMPDEST POP PUSH2 0x2F9 PUSH2 0x410 CALLDATASIZE PUSH1 0x4 PUSH2 0x2E26 JUMP JUMPDEST PUSH2 0xFD7 JUMP JUMPDEST CALLVALUE DUP1 ISZERO PUSH2 0x421 JUMPI PUSH1 0x0 DUP1 REVERT JUMPDEST POP PUSH2 0x2F9 PUSH2 0x430 CALLDATASIZE PUSH1 0x4 PUSH2 0x2E26 JUMP JUMPDEST PUSH2 0x1073 JUMP JUMPDEST CALLVALUE DUP1 ISZERO PUSH2 0x441 JUMPI PUSH1 0x0 DUP1 REVERT JUMPDEST POP PUSH2 0x358 PUSH2 0x450 CALLDATASIZE PUSH1 0x4 PUSH2 0x2D5C JUMP JUMPDEST PUSH2 0x10C2 JUMP JUMPDEST CALLVALUE DUP1 ISZERO PUSH2 0x461 JUMPI PUSH1 0x0 DUP1 REVERT JUMPDEST POP PUSH2 0x2F9 PUSH2 0x470 CALLDATASIZE PUSH1 0x4 PUSH2 0x2E26 JUMP JUMPDEST PUSH2 0x10F3 JUMP JUMPDEST CALLVALUE DUP1 ISZERO PUSH2 0x481 JUMPI PUSH1 0x0 DUP1 REVERT JUMPDEST POP PUSH2 0x2F9 PUSH2 0x490 CALLDATASIZE PUSH1 0x4 PUSH2 0x2D5C JUMP JUMPDEST PUSH2 0x1100 JUMP JUMPDEST CALLVALUE DUP1 ISZERO PUSH2 0x4A1 JUMPI PUSH1 0x0 DUP1 REVERT JUMPDEST POP PUSH2 0x2F9 PUSH2 0x4B0 CALLDATASIZE PUSH1 0x4 PUSH2 0x2D22 JUMP JUMPDEST PUSH2 0x118D JUMP JUMPDEST CALLVALUE DUP1 ISZERO PUSH2 0x4C1 JUMPI PUSH1 0x0 DUP1 REVERT JUMPDEST POP PUSH1 0x11 SLOAD PUSH2 0x31B SWAP1 PUSH1 0x1 PUSH1 0x1 PUSH1 0xA0 SHL SUB AND DUP2 JUMP JUMPDEST CALLVALUE DUP1 ISZERO PUSH2 0x4E1 JUMPI PUSH1 0x0 DUP1 REVERT JUMPDEST POP PUSH2 0x4EA PUSH2 0x11B7 JUMP JUMPDEST PUSH1 0x40 MLOAD PUSH2 0x32F SWAP11 SWAP10 SWAP9 SWAP8 SWAP7 SWAP6 SWAP5 SWAP4 SWAP3 SWAP2 SWAP1 PUSH2 0x305A JUMP JUMPDEST CALLVALUE DUP1 ISZERO PUSH2 0x50C JUMPI PUSH1 0x0 DUP1 REVERT JUMPDEST POP PUSH2 0x2F9 PUSH2 0x51B CALLDATASIZE PUSH1 0x4 PUSH2 0x2D22 JUMP JUMPDEST PUSH2 0x1342 JUMP JUMPDEST CALLVALUE DUP1 ISZERO PUSH2 0x52C JUMPI PUSH1 0x0 DUP1 REVERT JUMPDEST POP PUSH2 0x584 PUSH2 0x53B CALLDATASIZE PUSH1 0x4 PUSH2 0x2E26 JUMP JUMPDEST PUSH1 0x16 PUSH1 0x20 MSTORE PUSH1 0x0 SWAP1 DUP2 MSTORE PUSH1 0x40 SWAP1 KECCAK256 DUP1 SLOAD PUSH1 0x1 DUP3 ADD SLOAD PUSH1 0x2 DUP4 ADD SLOAD PUSH1 0x3 DUP5 ADD SLOAD PUSH1 0x4 DUP6 ADD SLOAD PUSH1 0x5 DUP7 ADD SLOAD PUSH1 0x6 SWAP1 SWAP7 ADD SLOAD SWAP5 SWAP6 SWAP4 SWAP5 PUSH1 0x1 PUSH1 0x1 PUSH1 0xA0 SHL SUB SWAP4 DUP5 AND SWAP5 SWAP3 SWAP4 SWAP1 SWAP2 AND SWAP2 SWAP1 DUP8 JUMP JUMPDEST PUSH1 0x40 DUP1 MLOAD SWAP8 DUP9 MSTORE PUSH1 0x20 DUP9 ADD SWAP7 SWAP1 SWAP7 MSTORE PUSH1 0x1 PUSH1 0x1 PUSH1 0xA0 SHL SUB SWAP5 DUP6 AND SWAP6 DUP8 ADD SWAP6 SWAP1 SWAP6 MSTORE PUSH1 0x60 DUP7 ADD SWAP3 SWAP1 SWAP3 MSTORE SWAP1 SWAP2 AND PUSH1 0x80 DUP5 ADD MSTORE PUSH1 0xA0 DUP4 ADD MSTORE PUSH1 0xC0 DUP3 ADD MSTORE PUSH1 0xE0 ADD PUSH2 0x32F JUMP JUMPDEST CALLVALUE DUP1 ISZERO PUSH2 0x5D3 JUMPI PUSH1 0x0 DUP1 REVERT JUMPDEST POP PUSH2 0x358 PUSH2 0x5E2 CALLDATASIZE PUSH1 0x4 PUSH2 0x2E26 JUMP JUMPDEST PUSH2 0x136C JUMP JUMPDEST CALLVALUE DUP1 ISZERO PUSH2 0x5F3 JUMPI PUSH1 0x0 DUP1 REVERT JUMPDEST POP PUSH2 0x358 PUSH1 0xE SLOAD DUP2 JUMP JUMPDEST CALLVALUE DUP1 ISZERO PUSH2 0x609 JUMPI PUSH1 0x0 DUP1 REVERT JUMPDEST POP PUSH2 0x2F9 PUSH2 0x618 CALLDATASIZE PUSH1 0x4 PUSH2 0x2E26 JUMP JUMPDEST PUSH2 0x137C JUMP JUMPDEST CALLVALUE DUP1 ISZERO PUSH2 0x629 JUMPI PUSH1 0x0 DUP1 REVERT JUMPDEST POP PUSH2 0x358 PUSH2 0x638 CALLDATASIZE PUSH1 0x4 PUSH2 0x2D22 JUMP JUMPDEST PUSH1 0x19 PUSH1 0x20 MSTORE PUSH1 0x0 SWAP1 DUP2 MSTORE PUSH1 0x40 SWAP1 KECCAK256 SLOAD DUP2 JUMP JUMPDEST CALLVALUE DUP1 ISZERO PUSH2 0x656 JUMPI PUSH1 0x0 DUP1 REVERT JUMPDEST POP PUSH2 0x2F9 PUSH2 0x665 CALLDATASIZE PUSH1 0x4 PUSH2 0x2DEC JUMP JUMPDEST PUSH2 0x13CB JUMP JUMPDEST CALLVALUE DUP1 ISZERO PUSH2 0x676 JUMPI PUSH1 0x0 DUP1 REVERT JUMPDEST POP PUSH2 0x358 PUSH2 0x685 CALLDATASIZE PUSH1 0x4 PUSH2 0x2E26 JUMP JUMPDEST PUSH2 0x13E6 JUMP JUMPDEST CALLVALUE DUP1 ISZERO PUSH2 0x696 JUMPI PUSH1 0x0 DUP1 REVERT JUMPDEST POP PUSH2 0x2F9 PUSH2 0x6A5 CALLDATASIZE PUSH1 0x4 PUSH2 0x2D88 JUMP JUMPDEST PUSH2 0x14B1 JUMP JUMPDEST CALLVALUE DUP1 ISZERO PUSH2 0x6B6 JUMPI PUSH1 0x0 DUP1 REVERT JUMPDEST POP PUSH2 0x358 PUSH1 0x7 SLOAD DUP2 JUMP JUMPDEST CALLVALUE DUP1 ISZERO PUSH2 0x6CC JUMPI PUSH1 0x0 DUP1 REVERT JUMPDEST POP PUSH2 0x31B PUSH2 0x6DB CALLDATASIZE PUSH1 0x4 PUSH2 0x2E26 JUMP JUMPDEST PUSH2 0x15D5 JUMP JUMPDEST CALLVALUE DUP1 ISZERO PUSH2 0x6EC JUMPI PUSH1 0x0 DUP1 REVERT JUMPDEST POP PUSH2 0x2F9 PUSH2 0x15E5 JUMP JUMPDEST CALLVALUE DUP1 ISZERO PUSH2 0x701 JUMPI PUSH1 0x0 DUP1 REVERT JUMPDEST POP PUSH2 0x2F9 PUSH2 0x15F9 JUMP JUMPDEST CALLVALUE DUP1 ISZERO PUSH2 0x716 JUMPI PUSH1 0x0 DUP1 REVERT JUMPDEST POP PUSH2 0x358 PUSH1 0x6 SLOAD DUP2 JUMP JUMPDEST CALLVALUE DUP1 ISZERO PUSH2 0x72C JUMPI PUSH1 0x0 DUP1 REVERT JUMPDEST POP PUSH1 0x0 SLOAD PUSH1 0x1 PUSH1 0x1 PUSH1 0xA0 SHL SUB AND PUSH2 0x31B JUMP JUMPDEST CALLVALUE DUP1 ISZERO PUSH2 0x74A JUMPI PUSH1 0x0 DUP1 REVERT JUMPDEST POP PUSH2 0x75E PUSH2 0x759 CALLDATASIZE PUSH1 0x4 PUSH2 0x2E26 JUMP JUMPDEST PUSH2 0x162C JUMP JUMPDEST PUSH1 0x40 MLOAD PUSH2 0x32F SWAP2 SWAP1 PUSH2 0x2EB5 JUMP JUMPDEST CALLVALUE DUP1 ISZERO PUSH2 0x777 JUMPI PUSH1 0x0 DUP1 REVERT JUMPDEST POP PUSH2 0x358 PUSH1 0x9 SLOAD DUP2 JUMP JUMPDEST CALLVALUE DUP1 ISZERO PUSH2 0x78D JUMPI PUSH1 0x0 DUP1 REVERT JUMPDEST POP PUSH2 0x7E1 PUSH2 0x79C CALLDATASIZE PUSH1 0x4 PUSH2 0x2E26 JUMP JUMPDEST PUSH1 0x17 PUSH1 0x20 MSTORE PUSH1 0x0 SWAP1 DUP2 MSTORE PUSH1 0x40 SWAP1 KECCAK256 DUP1 SLOAD PUSH1 0x1 DUP3 ADD SLOAD PUSH1 0x2 DUP4 ADD SLOAD PUSH1 0x3 DUP5 ADD SLOAD PUSH1 0x4 DUP6 ADD SLOAD PUSH1 0x5 SWAP1 SWAP6 ADD SLOAD SWAP4 SWAP5 SWAP3 SWAP4 PUSH1 0x1 PUSH1 0x1 PUSH1 0xA0 SHL SUB SWAP1 SWAP3 AND SWAP3 SWAP1 SWAP2 PUSH1 0xFF SWAP1 SWAP2 AND SWAP1 DUP7 JUMP JUMPDEST PUSH1 0x40 DUP1 MLOAD SWAP7 DUP8 MSTORE PUSH1 0x20 DUP8 ADD SWAP6 SWAP1 SWAP6 MSTORE PUSH1 0x1 PUSH1 0x1 PUSH1 0xA0 SHL SUB SWAP1 SWAP4 AND SWAP4 DUP6 ADD SWAP4 SWAP1 SWAP4 MSTORE PUSH1 0x60 DUP5 ADD MSTORE SWAP1 ISZERO ISZERO PUSH1 0x80 DUP4 ADD MSTORE PUSH1 0xA0 DUP3 ADD MSTORE PUSH1 0xC0 ADD PUSH2 0x32F JUMP JUMPDEST CALLVALUE DUP1 ISZERO PUSH2 0x828 JUMPI PUSH1 0x0 DUP1 REVERT JUMPDEST POP PUSH2 0x2F9 PUSH2 0x837 CALLDATASIZE PUSH1 0x4 PUSH2 0x2E26 JUMP JUMPDEST PUSH2 0x17DC JUMP JUMPDEST CALLVALUE DUP1 ISZERO PUSH2 0x848 JUMPI PUSH1 0x0 DUP1 REVERT JUMPDEST POP PUSH2 0x2F9 PUSH2 0x857 CALLDATASIZE PUSH1 0x4 PUSH2 0x2D22 JUMP JUMPDEST PUSH2 0x17E9 JUMP JUMPDEST CALLVALUE DUP1 ISZERO PUSH2 0x868 JUMPI PUSH1 0x0 DUP1 REVERT JUMPDEST POP PUSH2 0x2F9 PUSH2 0x877 CALLDATASIZE PUSH1 0x4 PUSH2 0x2D5C JUMP JUMPDEST PUSH2 0x18B6 JUMP JUMPDEST CALLVALUE DUP1 ISZERO PUSH2 0x888 JUMPI PUSH1 0x0 DUP1 REVERT JUMPDEST POP PUSH1 0x15 SLOAD PUSH2 0x896 SWAP1 PUSH1 0xFF AND DUP2 JUMP JUMPDEST PUSH1 0x40 MLOAD SWAP1 ISZERO ISZERO DUP2 MSTORE PUSH1 0x20 ADD PUSH2 0x32F JUMP JUMPDEST CALLVALUE DUP1 ISZERO PUSH2 0x8B2 JUMPI PUSH1 0x0 DUP1 REVERT JUMPDEST POP PUSH2 0x358 PUSH1 0x10 SLOAD DUP2 JUMP JUMPDEST CALLVALUE DUP1 ISZERO PUSH2 0x8C8 JUMPI PUSH1 0x0 DUP1 REVERT JUMPDEST POP PUSH2 0x358 PUSH1 0x8 SLOAD DUP2 JUMP JUMPDEST CALLVALUE DUP1 ISZERO PUSH2 0x8DE JUMPI PUSH1 0x0 DUP1 REVERT JUMPDEST POP PUSH2 0x358 PUSH1 0xF SLOAD DUP2 JUMP JUMPDEST CALLVALUE DUP1 ISZERO PUSH2 0x8F4 JUMPI PUSH1 0x0 DUP1 REVERT JUMPDEST POP PUSH2 0x358 PUSH1 0xD SLOAD DUP2 JUMP JUMPDEST CALLVALUE DUP1 ISZERO PUSH2 0x90A JUMPI PUSH1 0x0 DUP1 REVERT JUMPDEST POP PUSH2 0x358 PUSH1 0xC SLOAD DUP2 JUMP JUMPDEST CALLVALUE DUP1 ISZERO PUSH2 0x920 JUMPI PUSH1 0x0 DUP1 REVERT JUMPDEST POP PUSH2 0x934 PUSH2 0x92F CALLDATASIZE PUSH1 0x4 PUSH2 0x2E26 JUMP JUMPDEST PUSH2 0x1906 JUMP JUMPDEST PUSH1 0x40 MLOAD PUSH2 0x32F SWAP2 SWAP1 PUSH2 0x2F38 JUMP JUMPDEST CALLVALUE DUP1 ISZERO PUSH2 0x94D JUMPI PUSH1 0x0 DUP1 REVERT JUMPDEST POP PUSH2 0x2F9 PUSH2 0x95C CALLDATASIZE PUSH1 0x4 PUSH2 0x2D22 JUMP JUMPDEST PUSH2 0x1AC4 JUMP JUMPDEST CALLVALUE DUP1 ISZERO PUSH2 0x96D JUMPI PUSH1 0x0 DUP1 REVERT JUMPDEST POP PUSH2 0x2F9 PUSH2 0x97C CALLDATASIZE PUSH1 0x4 PUSH2 0x2E26 JUMP JUMPDEST PUSH2 0x1C4E JUMP JUMPDEST PUSH2 0x994 PUSH2 0x98F CALLDATASIZE PUSH1 0x4 PUSH2 0x2D22 JUMP JUMPDEST PUSH2 0x1CAC JUMP JUMPDEST PUSH1 0x40 MLOAD PUSH2 0x32F SWAP7 SWAP6 SWAP5 SWAP4 SWAP3 SWAP2 SWAP1 PUSH2 0x3025 JUMP JUMPDEST CALLVALUE DUP1 ISZERO PUSH2 0x9B2 JUMPI PUSH1 0x0 DUP1 REVERT JUMPDEST POP PUSH2 0x2F9 PUSH2 0x9C1 CALLDATASIZE PUSH1 0x4 PUSH2 0x2D22 JUMP JUMPDEST PUSH2 0x2937 JUMP JUMPDEST CALLVALUE DUP1 ISZERO PUSH2 0x9D2 JUMPI PUSH1 0x0 DUP1 REVERT JUMPDEST POP PUSH2 0x2F9 PUSH2 0x9E1 CALLDATASIZE PUSH1 0x4 PUSH2 0x2D22 JUMP JUMPDEST PUSH2 0x29AD JUMP JUMPDEST CALLVALUE DUP1 ISZERO PUSH2 0x9F2 JUMPI PUSH1 0x0 DUP1 REVERT JUMPDEST POP PUSH2 0xA06 PUSH2 0xA01 CALLDATASIZE PUSH1 0x4 PUSH2 0x2E26 JUMP JUMPDEST PUSH2 0x2AA6 JUMP JUMPDEST PUSH1 0x40 DUP1 MLOAD SWAP3 DUP4 MSTORE PUSH1 0x20 DUP4 ADD SWAP2 SWAP1 SWAP2 MSTORE ADD PUSH2 0x32F JUMP JUMPDEST PUSH2 0x2F9 PUSH2 0x2B5E JUMP JUMPDEST PUSH2 0xA2B PUSH2 0x2B77 JUMP JUMPDEST PUSH1 0x1 SLOAD PUSH1 0x40 DUP1 MLOAD PUSH4 0x61D027B3 PUSH1 0xE0 SHL DUP2 MSTORE SWAP1 MLOAD PUSH1 0x0 SWAP3 PUSH1 0x1 PUSH1 0x1 PUSH1 0xA0 SHL SUB AND SWAP2 PUSH4 0x61D027B3 SWAP2 PUSH1 0x4 DUP1 DUP4 ADD SWAP3 PUSH1 0x20 SWAP3 SWAP2 SWAP1 DUP3 SWAP1 SUB ADD DUP2 DUP7 DUP1 EXTCODESIZE ISZERO DUP1 ISZERO PUSH2 0xA70 JUMPI PUSH1 0x0 DUP1 REVERT JUMPDEST POP GAS STATICCALL ISZERO DUP1 ISZERO PUSH2 0xA84 JUMPI RETURNDATASIZE PUSH1 0x0 DUP1 RETURNDATACOPY RETURNDATASIZE PUSH1 0x0 REVERT JUMPDEST POP POP POP POP PUSH1 0x40 MLOAD RETURNDATASIZE PUSH1 0x1F NOT PUSH1 0x1F DUP3 ADD AND DUP3 ADD DUP1 PUSH1 0x40 MSTORE POP DUP2 ADD SWAP1 PUSH2 0xAA8 SWAP2 SWAP1 PUSH2 0x2D3F JUMP JUMPDEST SWAP1 POP PUSH1 0xE SLOAD DUP3 GT ISZERO PUSH2 0xAEB JUMPI PUSH1 0x40 MLOAD PUSH3 0x461BCD PUSH1 0xE5 SHL DUP2 MSTORE PUSH1 0x20 PUSH1 0x4 DUP3 ADD MSTORE PUSH1 0x7 PUSH1 0x24 DUP3 ADD MSTORE PUSH7 0xA8DEDE9AEAC6D PUSH1 0xCB SHL PUSH1 0x44 DUP3 ADD MSTORE PUSH1 0x64 ADD JUMPDEST PUSH1 0x40 MLOAD DUP1 SWAP2 SUB SWAP1 REVERT JUMPDEST PUSH1 0x40 MLOAD PUSH1 0x1 PUSH1 0x1 PUSH1 0xA0 SHL SUB DUP3 AND SWAP1 DUP4 ISZERO PUSH2 0x8FC MUL SWAP1 DUP5 SWAP1 PUSH1 0x0 DUP2 DUP2 DUP2 DUP6 DUP9 DUP9 CALL SWAP4 POP POP POP POP PUSH2 0xB19 JUMPI PUSH1 0x0 DUP1 REVERT JUMPDEST DUP2 PUSH1 0xE PUSH1 0x0 DUP3 DUP3 SLOAD PUSH2 0xB2B SWAP2 SWAP1 PUSH2 0x310D JUMP JUMPDEST SWAP1 SWAP2 SSTORE POP POP POP POP JUMP JUMPDEST PUSH1 0x13 DUP2 DUP2 SLOAD DUP2 LT PUSH2 0xB44 JUMPI PUSH1 0x0 DUP1 REVERT JUMPDEST PUSH1 0x0 SWAP2 DUP3 MSTORE PUSH1 0x20 SWAP1 SWAP2 KECCAK256 ADD SLOAD PUSH1 0x1 PUSH1 0x1 PUSH1 0xA0 SHL SUB AND SWAP1 POP DUP2 JUMP JUMPDEST PUSH1 0xA DUP2 DUP2 SLOAD DUP2 LT PUSH2 0xB6E JUMPI PUSH1 0x0 DUP1 REVERT JUMPDEST PUSH1 0x0 SWAP2 DUP3 MSTORE PUSH1 0x20 SWAP1 SWAP2 KECCAK256 ADD SLOAD SWAP1 POP DUP2 JUMP JUMPDEST PUSH2 0xB87 PUSH2 0x2B77 JUMP JUMPDEST PUSH1 0x4 SWAP2 SWAP1 SWAP2 SSTORE PUSH1 0x5 SSTORE JUMP JUMPDEST PUSH1 0x15 SLOAD PUSH1 0x0 SWAP1 DUP2 SWAP1 DUP2 SWAP1 DUP2 SWAP1 DUP2 SWAP1 PUSH1 0xFF AND ISZERO PUSH2 0xBE3 JUMPI PUSH1 0x40 MLOAD PUSH3 0x461BCD PUSH1 0xE5 SHL DUP2 MSTORE PUSH1 0x20 PUSH1 0x4 DUP3 ADD MSTORE PUSH1 0x10 PUSH1 0x24 DUP3 ADD MSTORE PUSH16 0x19D85B595CC8185C99481C185D5CD959 PUSH1 0x82 SHL PUSH1 0x44 DUP3 ADD MSTORE PUSH1 0x64 ADD PUSH2 0xAE2 JUMP JUMPDEST PUSH1 0x6 SLOAD CALLVALUE LT ISZERO PUSH2 0xC26 JUMPI PUSH1 0x40 MLOAD PUSH3 0x461BCD PUSH1 0xE5 SHL DUP2 MSTORE PUSH1 0x20 PUSH1 0x4 DUP3 ADD MSTORE PUSH1 0xE PUSH1 0x24 DUP3 ADD MSTORE PUSH14 0x3737BA1032B737BAB3B410212721 PUSH1 0x91 SHL PUSH1 0x44 DUP3 ADD MSTORE PUSH1 0x64 ADD PUSH2 0xAE2 JUMP JUMPDEST PUSH1 0x0 PUSH2 0x2710 PUSH1 0x7 SLOAD CALLVALUE PUSH2 0xC39 SWAP2 SWAP1 PUSH2 0x30EE JUMP JUMPDEST PUSH2 0xC43 SWAP2 SWAP1 PUSH2 0x30DA JUMP JUMPDEST SWAP1 POP PUSH1 0x0 PUSH1 0x1 PUSH1 0x0 SWAP1 SLOAD SWAP1 PUSH2 0x100 EXP SWAP1 DIV PUSH1 0x1 PUSH1 0x1 PUSH1 0xA0 SHL SUB AND PUSH1 0x1 PUSH1 0x1 PUSH1 0xA0 SHL SUB AND PUSH4 0x61D027B3 PUSH1 0x40 MLOAD DUP2 PUSH4 0xFFFFFFFF AND PUSH1 0xE0 SHL DUP2 MSTORE PUSH1 0x4 ADD PUSH1 0x20 PUSH1 0x40 MLOAD DUP1 DUP4 SUB DUP2 DUP7 DUP1 EXTCODESIZE ISZERO DUP1 ISZERO PUSH2 0xC95 JUMPI PUSH1 0x0 DUP1 REVERT JUMPDEST POP GAS STATICCALL ISZERO DUP1 ISZERO PUSH2 0xCA9 JUMPI RETURNDATASIZE PUSH1 0x0 DUP1 RETURNDATACOPY RETURNDATASIZE PUSH1 0x0 REVERT JUMPDEST POP POP POP POP PUSH1 0x40 MLOAD RETURNDATASIZE PUSH1 0x1F NOT PUSH1 0x1F DUP3 ADD AND DUP3 ADD DUP1 PUSH1 0x40 MSTORE POP DUP2 ADD SWAP1 PUSH2 0xCCD SWAP2 SWAP1 PUSH2 0x2D3F JUMP JUMPDEST PUSH1 0x40 MLOAD SWAP1 SWAP2 POP PUSH1 0x1 PUSH1 0x1 PUSH1 0xA0 SHL SUB DUP3 AND SWAP1 DUP4 ISZERO PUSH2 0x8FC MUL SWAP1 DUP5 SWAP1 PUSH1 0x0 DUP2 DUP2 DUP2 DUP6 DUP9 DUP9 CALL SWAP4 POP POP POP POP PUSH2 0xCFE JUMPI PUSH1 0x0 DUP1 REVERT JUMPDEST PUSH2 0xD09 DUP3 PUSH1 0x2 PUSH2 0x30EE JUMP JUMPDEST PUSH2 0xD13 SWAP1 CALLVALUE PUSH2 0x310D JUMP JUMPDEST SWAP5 POP DUP5 PUSH1 0xE PUSH1 0x0 DUP3 DUP3 SLOAD PUSH2 0xD27 SWAP2 SWAP1 PUSH2 0x30C2 JUMP JUMPDEST SWAP3 POP POP DUP2 SWAP1 SSTORE POP PUSH1 0x1 PUSH1 0x10 PUSH1 0x0 DUP3 DUP3 SLOAD PUSH2 0xD41 SWAP2 SWAP1 PUSH2 0x30C2 JUMP JUMPDEST SWAP3 POP POP DUP2 SWAP1 SSTORE POP PUSH1 0x0 PUSH2 0xD55 PUSH1 0x9 SLOAD PUSH2 0x13E6 JUMP JUMPDEST SWAP1 POP PUSH1 0x5 PUSH1 0x9 SLOAD PUSH2 0xD66 SWAP2 SWAP1 PUSH2 0x310D JUMP JUMPDEST DUP2 EQ PUSH2 0xD76 JUMPI PUSH1 0x0 SWAP5 POP DUP5 PUSH2 0xD7C JUMP JUMPDEST PUSH1 0x1 SWAP5 POP DUP5 JUMPDEST POP DUP5 PUSH2 0xD8C JUMPI PUSH1 0x0 SWAP4 POP DUP4 PUSH2 0xD93 JUMP JUMPDEST PUSH1 0xE SLOAD SWAP4 POP DUP4 JUMPDEST POP DUP5 ISZERO PUSH2 0xDC5 JUMPI PUSH1 0x40 MLOAD CALLER SWAP1 DUP6 ISZERO PUSH2 0x8FC MUL SWAP1 DUP7 SWAP1 PUSH1 0x0 DUP2 DUP2 DUP2 DUP6 DUP9 DUP9 CALL SWAP4 POP POP POP POP PUSH2 0xDBF JUMPI PUSH1 0x0 DUP1 REVERT JUMPDEST PUSH1 0x0 PUSH1 0xE SSTORE JUMPDEST PUSH1 0x40 DUP1 MLOAD PUSH1 0xC0 DUP2 ADD DUP3 MSTORE TIMESTAMP DUP2 MSTORE PUSH1 0x10 DUP1 SLOAD PUSH1 0x20 DUP1 DUP5 ADD DUP3 DUP2 MSTORE CALLER DUP6 DUP8 ADD DUP2 DUP2 MSTORE PUSH1 0x60 DUP8 ADD DUP15 DUP2 MSTORE DUP14 ISZERO ISZERO PUSH1 0x80 DUP10 ADD SWAP1 DUP2 MSTORE PUSH1 0xA0 DUP10 ADD DUP15 DUP2 MSTORE PUSH1 0x0 SWAP8 DUP9 MSTORE PUSH1 0x17 SWAP1 SWAP7 MSTORE SWAP6 DUP10 SWAP1 KECCAK256 SWAP8 MLOAD DUP9 SSTORE SWAP3 MLOAD PUSH1 0x1 DUP9 ADD SSTORE MLOAD PUSH1 0x2 DUP8 ADD DUP1 SLOAD PUSH1 0x1 PUSH1 0x1 PUSH1 0xA0 SHL SUB SWAP3 SWAP1 SWAP3 AND PUSH1 0x1 PUSH1 0x1 PUSH1 0xA0 SHL SUB NOT SWAP1 SWAP3 AND SWAP2 SWAP1 SWAP2 OR SWAP1 SSTORE SWAP1 MLOAD PUSH1 0x3 DUP7 ADD SSTORE SWAP2 MLOAD PUSH1 0x4 DUP6 ADD DUP1 SLOAD SWAP2 ISZERO ISZERO PUSH1 0xFF NOT SWAP1 SWAP3 AND SWAP2 SWAP1 SWAP2 OR SWAP1 SSTORE MLOAD PUSH1 0x5 SWAP1 SWAP4 ADD SWAP3 SWAP1 SWAP3 SSTORE SLOAD SWAP2 MLOAD PUSH32 0xB99472F4356FEB056B789B1B95177A76DDA68C70E20005C2959CC3267185E10 SWAP3 PUSH2 0xEC2 SWAP3 SWAP1 SWAP2 DUP11 SWAP1 DUP11 SWAP1 DUP11 SWAP1 SWAP5 DUP6 MSTORE PUSH1 0x1 PUSH1 0x1 PUSH1 0xA0 SHL SUB SWAP4 SWAP1 SWAP4 AND PUSH1 0x20 DUP6 ADD MSTORE PUSH1 0x40 DUP5 ADD SWAP2 SWAP1 SWAP2 MSTORE ISZERO ISZERO PUSH1 0x60 DUP4 ADD MSTORE PUSH1 0x80 DUP3 ADD MSTORE PUSH1 0xA0 ADD SWAP1 JUMP JUMPDEST PUSH1 0x40 MLOAD DUP1 SWAP2 SUB SWAP1 LOG1 PUSH1 0x10 SLOAD CALLER SWAP8 POP SWAP8 POP POP POP POP SWAP1 SWAP2 SWAP3 SWAP4 SWAP5 JUMP JUMPDEST PUSH1 0x0 DUP1 PUSH1 0x0 DUP1 PUSH2 0xEEB DUP6 PUSH2 0x2AA6 JUMP JUMPDEST SWAP1 SWAP3 POP SWAP1 POP PUSH1 0x0 PUSH2 0xF00 PUSH2 0x685 DUP4 PUSH1 0xA PUSH2 0x30EE JUMP JUMPDEST SWAP1 POP PUSH1 0x0 PUSH2 0xF0F DUP4 PUSH1 0xA PUSH2 0x30EE JUMP JUMPDEST SWAP1 POP PUSH1 0x0 DUP5 GT PUSH2 0xF4D JUMPI PUSH1 0x40 MLOAD PUSH3 0x461BCD PUSH1 0xE5 SHL DUP2 MSTORE PUSH1 0x20 PUSH1 0x4 DUP3 ADD MSTORE PUSH1 0x9 PUSH1 0x24 DUP3 ADD MSTORE PUSH9 0x506F7420456D707479 PUSH1 0xB8 SHL PUSH1 0x44 DUP3 ADD MSTORE PUSH1 0x64 ADD PUSH2 0xAE2 JUMP JUMPDEST PUSH1 0x0 SWAP5 POP DUP5 PUSH2 0xF5D PUSH1 0x3 DUP5 PUSH2 0x3156 JUMP JUMPDEST SWAP1 POP DUP1 ISZERO PUSH2 0xF6A JUMPI PUSH1 0x1 SWAP6 POP JUMPDEST PUSH1 0x0 PUSH2 0xF77 PUSH1 0x1 DUP8 PUSH2 0x310D JUMP JUMPDEST SWAP1 POP JUMPDEST PUSH1 0xB DUP2 DUP2 SLOAD DUP2 LT PUSH2 0xF8D JUMPI PUSH2 0xF8D PUSH2 0x31AC JUMP JUMPDEST SWAP1 PUSH1 0x0 MSTORE PUSH1 0x20 PUSH1 0x0 KECCAK256 ADD SLOAD PUSH1 0xA PUSH2 0xFA4 SWAP2 SWAP1 PUSH2 0x30EE JUMP JUMPDEST PUSH2 0xFAE SWAP1 DUP5 PUSH2 0x310D JUMP JUMPDEST SWAP3 POP DUP3 DUP5 LT PUSH2 0xFC5 JUMPI DUP1 SWAP8 POP POP POP POP POP POP POP SWAP2 POP SWAP2 JUMP JUMPDEST DUP1 PUSH2 0xFCF DUP2 PUSH2 0x3124 JUMP JUMPDEST SWAP2 POP POP PUSH2 0xF7A JUMP JUMPDEST PUSH2 0xFDF PUSH2 0x2B77 JUMP JUMPDEST PUSH1 0xE SLOAD PUSH2 0xFEC SWAP1 SELFBALANCE PUSH2 0x310D JUMP JUMPDEST DUP2 GT ISZERO PUSH2 0x104B JUMPI PUSH1 0x40 MLOAD PUSH3 0x461BCD PUSH1 0xE5 SHL DUP2 MSTORE PUSH1 0x20 PUSH1 0x4 DUP3 ADD MSTORE PUSH1 0x27 PUSH1 0x24 DUP3 ADD MSTORE PUSH32 0x52656D6F7665206A61636B706F742066756E64732077697468206F7468657220 PUSH1 0x44 DUP3 ADD MSTORE PUSH7 0x6D6574686F6473 PUSH1 0xC8 SHL PUSH1 0x64 DUP3 ADD MSTORE PUSH1 0x84 ADD PUSH2 0xAE2 JUMP JUMPDEST PUSH1 0x40 MLOAD CALLER SWAP1 DUP3 ISZERO PUSH2 0x8FC MUL SWAP1 DUP4 SWAP1 PUSH1 0x0 DUP2 DUP2 DUP2 DUP6 DUP9 DUP9 CALL SWAP4 POP POP POP POP PUSH2 0x1070 JUMPI PUSH1 0x0 DUP1 REVERT JUMPDEST POP JUMP JUMPDEST PUSH2 0x107B PUSH2 0x2B77 JUMP JUMPDEST PUSH2 0x7D0 DUP2 LT PUSH2 0x10BD JUMPI PUSH1 0x40 MLOAD PUSH3 0x461BCD PUSH1 0xE5 SHL DUP2 MSTORE PUSH1 0x20 PUSH1 0x4 DUP3 ADD MSTORE PUSH1 0xE PUSH1 0x24 DUP3 ADD MSTORE PUSH14 0x4C657373207468616E203230303 PUSH1 0x94 SHL PUSH1 0x44 DUP3 ADD MSTORE PUSH1 0x64 ADD PUSH2 0xAE2 JUMP JUMPDEST PUSH1 0x7 SSTORE JUMP JUMPDEST PUSH1 0x18 PUSH1 0x20 MSTORE DUP2 PUSH1 0x0 MSTORE PUSH1 0x40 PUSH1 0x0 KECCAK256 DUP2 DUP2 SLOAD DUP2 LT PUSH2 0x10DE JUMPI PUSH1 0x0 DUP1 REVERT JUMPDEST SWAP1 PUSH1 0x0 MSTORE PUSH1 0x20 PUSH1 0x0 KECCAK256 ADD PUSH1 0x0 SWAP2 POP SWAP2 POP POP SLOAD DUP2 JUMP JUMPDEST PUSH2 0x10FB PUSH2 0x2B77 JUMP JUMPDEST PUSH1 0x6 SSTORE JUMP JUMPDEST PUSH2 0x1108 PUSH2 0x2B77 JUMP JUMPDEST PUSH1 0x40 MLOAD PUSH4 0xA9059CBB PUSH1 0xE0 SHL DUP2 MSTORE CALLER PUSH1 0x4 DUP3 ADD MSTORE PUSH1 0x24 DUP2 ADD DUP3 SWAP1 MSTORE PUSH1 0x1 PUSH1 0x1 PUSH1 0xA0 SHL SUB DUP4 AND SWAP1 PUSH4 0xA9059CBB SWAP1 PUSH1 0x44 ADD PUSH1 0x20 PUSH1 0x40 MLOAD DUP1 DUP4 SUB DUP2 PUSH1 0x0 DUP8 DUP1 EXTCODESIZE ISZERO DUP1 ISZERO PUSH2 0x1150 JUMPI PUSH1 0x0 DUP1 REVERT JUMPDEST POP GAS CALL ISZERO DUP1 ISZERO PUSH2 0x1164 JUMPI RETURNDATASIZE PUSH1 0x0 DUP1 RETURNDATACOPY RETURNDATASIZE PUSH1 0x0 REVERT JUMPDEST POP POP POP POP PUSH1 0x40 MLOAD RETURNDATASIZE PUSH1 0x1F NOT PUSH1 0x1F DUP3 ADD AND DUP3 ADD DUP1 PUSH1 0x40 MSTORE POP DUP2 ADD SWAP1 PUSH2 0x1188 SWAP2 SWAP1 PUSH2 0x2E09 JUMP JUMPDEST POP POP POP JUMP JUMPDEST PUSH2 0x1195 PUSH2 0x2B77 JUMP JUMPDEST PUSH1 0x2 DUP1 SLOAD PUSH1 0x1 PUSH1 0x1 PUSH1 0xA0 SHL SUB NOT AND PUSH1 0x1 PUSH1 0x1 PUSH1 0xA0 SHL SUB SWAP3 SWAP1 SWAP3 AND SWAP2 SWAP1 SWAP2 OR SWAP1 SSTORE JUMP JUMPDEST PUSH1 0x0 DUP1 PUSH1 0x0 DUP1 PUSH1 0x0 PUSH1 0x60 PUSH1 0x0 PUSH1 0x60 PUSH1 0x0 DUP1 PUSH1 0xB DUP1 SLOAD SWAP1 POP PUSH8 0xFFFFFFFFFFFFFFFF DUP2 GT ISZERO PUSH2 0x11E6 JUMPI PUSH2 0x11E6 PUSH2 0x31C2 JUMP JUMPDEST PUSH1 0x40 MLOAD SWAP1 DUP1 DUP3 MSTORE DUP1 PUSH1 0x20 MUL PUSH1 0x20 ADD DUP3 ADD PUSH1 0x40 MSTORE DUP1 ISZERO PUSH2 0x120F JUMPI DUP2 PUSH1 0x20 ADD PUSH1 0x20 DUP3 MUL DUP1 CALLDATASIZE DUP4 CALLDATACOPY ADD SWAP1 POP JUMPDEST POP PUSH1 0xB DUP1 SLOAD PUSH1 0x40 DUP1 MLOAD PUSH1 0x20 DUP1 DUP5 MUL DUP3 ADD DUP2 ADD SWAP1 SWAP3 MSTORE DUP3 DUP2 MSTORE SWAP4 SWAP9 POP DUP4 ADD DUP3 DUP3 DUP1 ISZERO PUSH2 0x1259 JUMPI PUSH1 0x20 MUL DUP3 ADD SWAP2 SWAP1 PUSH1 0x0 MSTORE PUSH1 0x20 PUSH1 0x0 KECCAK256 SWAP1 JUMPDEST DUP2 SLOAD DUP2 MSTORE PUSH1 0x20 ADD SWAP1 PUSH1 0x1 ADD SWAP1 DUP1 DUP4 GT PUSH2 0x1245 JUMPI JUMPDEST POP POP PUSH1 0xA SLOAD SWAP4 SWAP9 POP POP POP PUSH8 0xFFFFFFFFFFFFFFFF DUP3 GT ISZERO SWAP1 POP PUSH2 0x127D JUMPI PUSH2 0x127D PUSH2 0x31C2 JUMP JUMPDEST PUSH1 0x40 MLOAD SWAP1 DUP1 DUP3 MSTORE DUP1 PUSH1 0x20 MUL PUSH1 0x20 ADD DUP3 ADD PUSH1 0x40 MSTORE DUP1 ISZERO PUSH2 0x12A6 JUMPI DUP2 PUSH1 0x20 ADD PUSH1 0x20 DUP3 MUL DUP1 CALLDATASIZE DUP4 CALLDATACOPY ADD SWAP1 POP JUMPDEST POP PUSH1 0xA DUP1 SLOAD PUSH1 0x40 DUP1 MLOAD PUSH1 0x20 DUP1 DUP5 MUL DUP3 ADD DUP2 ADD SWAP1 SWAP3 MSTORE DUP3 DUP2 MSTORE SWAP4 SWAP7 POP DUP4 ADD DUP3 DUP3 DUP1 ISZERO PUSH2 0x12F0 JUMPI PUSH1 0x20 MUL DUP3 ADD SWAP2 SWAP1 PUSH1 0x0 MSTORE PUSH1 0x20 PUSH1 0x0 KECCAK256 SWAP1 JUMPDEST DUP2 SLOAD DUP2 MSTORE PUSH1 0x20 ADD SWAP1 PUSH1 0x1 ADD SWAP1 DUP1 DUP4 GT PUSH2 0x12DC JUMPI JUMPDEST POP POP POP POP POP SWAP3 POP PUSH1 0xE SLOAD SELFBALANCE PUSH2 0x1305 SWAP2 SWAP1 PUSH2 0x310D JUMP JUMPDEST SWAP8 POP PUSH1 0xD SLOAD SWAP7 POP PUSH1 0x4 SLOAD PUSH1 0x5 SLOAD DUP10 DUP10 PUSH1 0x6 SLOAD DUP10 PUSH1 0xC SLOAD DUP10 PUSH1 0xE SLOAD PUSH1 0x9 SLOAD SWAP10 POP SWAP10 POP SWAP10 POP SWAP10 POP SWAP10 POP SWAP10 POP SWAP10 POP SWAP10 POP SWAP10 POP SWAP10 POP SWAP1 SWAP2 SWAP3 SWAP4 SWAP5 SWAP6 SWAP7 SWAP8 SWAP9 SWAP10 JUMP JUMPDEST PUSH2 0x134A PUSH2 0x2B77 JUMP JUMPDEST PUSH1 0x3 DUP1 SLOAD PUSH1 0x1 PUSH1 0x1 PUSH1 0xA0 SHL SUB NOT AND PUSH1 0x1 PUSH1 0x1 PUSH1 0xA0 SHL SUB SWAP3 SWAP1 SWAP3 AND SWAP2 SWAP1 SWAP2 OR SWAP1 SSTORE JUMP JUMPDEST PUSH1 0xB DUP2 DUP2 SLOAD DUP2 LT PUSH2 0xB6E JUMPI PUSH1 0x0 DUP1 REVERT JUMPDEST PUSH2 0x1384 PUSH2 0x2B77 JUMP JUMPDEST PUSH2 0x7D0 DUP2 LT PUSH2 0x13C6 JUMPI PUSH1 0x40 MLOAD PUSH3 0x461BCD PUSH1 0xE5 SHL DUP2 MSTORE PUSH1 0x20 PUSH1 0x4 DUP3 ADD MSTORE PUSH1 0xE PUSH1 0x24 DUP3 ADD MSTORE PUSH14 0x4C657373207468616E203230303 PUSH1 0x94 SHL PUSH1 0x44 DUP3 ADD MSTORE PUSH1 0x64 ADD PUSH2 0xAE2 JUMP JUMPDEST PUSH1 0x8 SSTORE JUMP JUMPDEST PUSH2 0x13D3 PUSH2 0x2B77 JUMP JUMPDEST PUSH1 0x15 DUP1 SLOAD PUSH1 0xFF NOT AND SWAP2 ISZERO ISZERO SWAP2 SWAP1 SWAP2 OR SWAP1 SSTORE JUMP JUMPDEST PUSH1 0x0 DUP1 PUSH1 0x3 PUSH1 0x0 SWAP1 SLOAD SWAP1 PUSH2 0x100 EXP SWAP1 DIV PUSH1 0x1 PUSH1 0x1 PUSH1 0xA0 SHL SUB AND PUSH1 0x1 PUSH1 0x1 PUSH1 0xA0 SHL SUB AND PUSH4 0xDBDFF2C1 PUSH1 0x40 MLOAD DUP2 PUSH4 0xFFFFFFFF AND PUSH1 0xE0 SHL DUP2 MSTORE PUSH1 0x4 ADD PUSH1 0x20 PUSH1 0x40 MLOAD DUP1 DUP4 SUB DUP2 PUSH1 0x0 DUP8 DUP1 EXTCODESIZE ISZERO DUP1 ISZERO PUSH2 0x1439 JUMPI PUSH1 0x0 DUP1 REVERT JUMPDEST POP GAS CALL ISZERO DUP1 ISZERO PUSH2 0x144D JUMPI RETURNDATASIZE PUSH1 0x0 DUP1 RETURNDATACOPY RETURNDATASIZE PUSH1 0x0 REVERT JUMPDEST POP POP POP POP PUSH1 0x40 MLOAD RETURNDATASIZE PUSH1 0x1F NOT PUSH1 0x1F DUP3 ADD AND DUP3 ADD DUP1 PUSH1 0x40 MSTORE POP DUP2 ADD SWAP1 PUSH2 0x1471 SWAP2 SWAP1 PUSH2 0x2E3F JUMP JUMPDEST SWAP1 POP DUP3 DUP2 PUSH1 0x40 MLOAD PUSH1 0x20 ADD PUSH2 0x1487 SWAP2 DUP2 MSTORE PUSH1 0x20 ADD SWAP1 JUMP JUMPDEST PUSH1 0x40 MLOAD PUSH1 0x20 DUP2 DUP4 SUB SUB DUP2 MSTORE SWAP1 PUSH1 0x40 MSTORE DUP1 MLOAD SWAP1 PUSH1 0x20 ADD KECCAK256 PUSH1 0x0 SHR PUSH2 0x14AA SWAP2 SWAP1 PUSH2 0x3156 JUMP JUMPDEST SWAP4 SWAP3 POP POP POP JUMP JUMPDEST PUSH2 0x14B9 PUSH2 0x2B77 JUMP JUMPDEST PUSH1 0x0 PUSH1 0x1 JUMPDEST DUP4 MLOAD DUP2 LT ISZERO PUSH2 0x155C JUMPI DUP4 PUSH2 0x14D3 PUSH1 0x1 DUP4 PUSH2 0x310D JUMP JUMPDEST DUP2 MLOAD DUP2 LT PUSH2 0x14E3 JUMPI PUSH2 0x14E3 PUSH2 0x31AC JUMP JUMPDEST PUSH1 0x20 MUL PUSH1 0x20 ADD ADD MLOAD DUP5 DUP3 DUP2 MLOAD DUP2 LT PUSH2 0x14FD JUMPI PUSH2 0x14FD PUSH2 0x31AC JUMP JUMPDEST PUSH1 0x20 MUL PUSH1 0x20 ADD ADD MLOAD GT PUSH2 0x154A JUMPI PUSH1 0x40 MLOAD PUSH3 0x461BCD PUSH1 0xE5 SHL DUP2 MSTORE PUSH1 0x20 PUSH1 0x4 DUP3 ADD MSTORE PUSH1 0x15 PUSH1 0x24 DUP3 ADD MSTORE PUSH21 0x185919081B1BDDD95CDD081D1BC81A1A59DA195CDD PUSH1 0x5A SHL PUSH1 0x44 DUP3 ADD MSTORE PUSH1 0x64 ADD PUSH2 0xAE2 JUMP JUMPDEST DUP1 PUSH2 0x1554 DUP2 PUSH2 0x313B JUMP JUMPDEST SWAP2 POP POP PUSH2 0x14BE JUMP JUMPDEST POP PUSH1 0x0 JUMPDEST DUP3 MLOAD DUP2 LT ISZERO PUSH2 0x15A2 JUMPI DUP3 DUP2 DUP2 MLOAD DUP2 LT PUSH2 0x157B JUMPI PUSH2 0x157B PUSH2 0x31AC JUMP JUMPDEST PUSH1 0x20 MUL PUSH1 0x20 ADD ADD MLOAD DUP3 PUSH2 0x158E SWAP2 SWAP1 PUSH2 0x30C2 JUMP JUMPDEST SWAP2 POP DUP1 PUSH2 0x159A DUP2 PUSH2 0x313B JUMP JUMPDEST SWAP2 POP POP PUSH2 0x1560 JUMP JUMPDEST POP DUP3 MLOAD PUSH2 0x15B6 SWAP1 PUSH1 0xA SWAP1 PUSH1 0x20 DUP7 ADD SWAP1 PUSH2 0x2C21 JUMP JUMPDEST POP PUSH1 0xC DUP2 SWAP1 SSTORE DUP2 MLOAD PUSH2 0x15CF SWAP1 PUSH1 0xB SWAP1 PUSH1 0x20 DUP6 ADD SWAP1 PUSH2 0x2C21 JUMP JUMPDEST POP POP POP POP JUMP JUMPDEST PUSH1 0x12 DUP2 DUP2 SLOAD DUP2 LT PUSH2 0xB44 JUMPI PUSH1 0x0 DUP1 REVERT JUMPDEST PUSH2 0x15ED PUSH2 0x2B77 JUMP JUMPDEST PUSH2 0x15F7 PUSH1 0x0 PUSH2 0x2BD1 JUMP JUMPDEST JUMP JUMPDEST PUSH2 0x1601 PUSH2 0x2B77 JUMP JUMPDEST PUSH1 0x40 MLOAD CALLER SWAP1 SELFBALANCE DUP1 ISZERO PUSH2 0x8FC MUL SWAP2 PUSH1 0x0 DUP2 DUP2 DUP2 DUP6 DUP9 DUP9 CALL SWAP4 POP POP POP POP PUSH2 0x1625 JUMPI PUSH1 0x0 DUP1 REVERT JUMPDEST PUSH1 0x0 PUSH1 0xE SSTORE JUMP JUMPDEST PUSH1 0x60 PUSH1 0x0 DUP1 JUMPDEST PUSH1 0xF SLOAD DUP2 GT PUSH2 0x1671 JUMPI PUSH1 0x0 DUP2 DUP2 MSTORE PUSH1 0x16 PUSH1 0x20 MSTORE PUSH1 0x40 SWAP1 KECCAK256 SLOAD DUP5 LT ISZERO PUSH2 0x165F JUMPI DUP2 PUSH2 0x165B DUP2 PUSH2 0x313B JUMP JUMPDEST SWAP3 POP POP JUMPDEST DUP1 PUSH2 0x1669 DUP2 PUSH2 0x313B JUMP JUMPDEST SWAP2 POP POP PUSH2 0x1632 JUMP JUMPDEST POP PUSH1 0x0 DUP2 PUSH1 0xF SLOAD PUSH1 0x1 PUSH2 0x1684 SWAP2 SWAP1 PUSH2 0x30C2 JUMP JUMPDEST PUSH2 0x168E SWAP2 SWAP1 PUSH2 0x310D JUMP JUMPDEST SWAP1 POP PUSH1 0x0 DUP1 DUP4 PUSH8 0xFFFFFFFFFFFFFFFF DUP2 GT ISZERO PUSH2 0x16AC JUMPI PUSH2 0x16AC PUSH2 0x31C2 JUMP JUMPDEST PUSH1 0x40 MLOAD SWAP1 DUP1 DUP3 MSTORE DUP1 PUSH1 0x20 MUL PUSH1 0x20 ADD DUP3 ADD PUSH1 0x40 MSTORE DUP1 ISZERO PUSH2 0x1721 JUMPI DUP2 PUSH1 0x20 ADD JUMPDEST PUSH2 0x170E PUSH1 0x40 MLOAD DUP1 PUSH1 0xC0 ADD PUSH1 0x40 MSTORE DUP1 PUSH1 0x0 DUP2 MSTORE PUSH1 0x20 ADD PUSH1 0x0 DUP2 MSTORE PUSH1 0x20 ADD PUSH1 0x0 PUSH1 0x1 PUSH1 0x1 PUSH1 0xA0 SHL SUB AND DUP2 MSTORE PUSH1 0x20 ADD PUSH1 0x0 DUP2 MSTORE PUSH1 0x20 ADD PUSH1 0x0 ISZERO ISZERO DUP2 MSTORE PUSH1 0x20 ADD PUSH1 0x0 DUP2 MSTORE POP SWAP1 JUMP JUMPDEST DUP2 MSTORE PUSH1 0x20 ADD SWAP1 PUSH1 0x1 SWAP1 SUB SWAP1 DUP2 PUSH2 0x16CA JUMPI SWAP1 POP JUMPDEST POP SWAP1 POP DUP3 JUMPDEST PUSH1 0xF SLOAD DUP2 GT PUSH2 0x17D2 JUMPI PUSH1 0x0 DUP2 DUP2 MSTORE PUSH1 0x17 PUSH1 0x20 SWAP1 DUP2 MSTORE PUSH1 0x40 SWAP2 DUP3 SWAP1 KECCAK256 DUP3 MLOAD PUSH1 0xC0 DUP2 ADD DUP5 MSTORE DUP2 SLOAD DUP2 MSTORE PUSH1 0x1 DUP3 ADD SLOAD SWAP3 DUP2 ADD SWAP3 SWAP1 SWAP3 MSTORE PUSH1 0x2 DUP2 ADD SLOAD PUSH1 0x1 PUSH1 0x1 PUSH1 0xA0 SHL SUB AND SWAP3 DUP3 ADD SWAP3 SWAP1 SWAP3 MSTORE PUSH1 0x3 DUP3 ADD SLOAD PUSH1 0x60 DUP3 ADD MSTORE PUSH1 0x4 DUP3 ADD SLOAD PUSH1 0xFF AND ISZERO ISZERO PUSH1 0x80 DUP3 ADD MSTORE PUSH1 0x5 SWAP1 SWAP2 ADD SLOAD PUSH1 0xA0 DUP3 ADD MSTORE DUP3 MLOAD DUP4 SWAP1 DUP6 SWAP1 DUP2 LT PUSH2 0x17A6 JUMPI PUSH2 0x17A6 PUSH2 0x31AC JUMP JUMPDEST PUSH1 0x20 MUL PUSH1 0x20 ADD ADD DUP2 SWAP1 MSTORE POP DUP3 DUP1 PUSH2 0x17BC SWAP1 PUSH2 0x313B JUMP JUMPDEST SWAP4 POP POP DUP1 DUP1 PUSH2 0x17CA SWAP1 PUSH2 0x313B JUMP JUMPDEST SWAP2 POP POP PUSH2 0x1726 JUMP JUMPDEST POP SWAP6 SWAP5 POP POP POP POP POP JUMP JUMPDEST PUSH2 0x17E4 PUSH2 0x2B77 JUMP JUMPDEST PUSH1 0x9 SSTORE JUMP JUMPDEST PUSH2 0x17F1 PUSH2 0x2B77 JUMP JUMPDEST PUSH1 0x1 PUSH1 0x1 PUSH1 0xA0 SHL SUB DUP2 AND PUSH1 0x0 SWAP1 DUP2 MSTORE PUSH1 0x14 PUSH1 0x20 MSTORE PUSH1 0x40 SWAP1 KECCAK256 SLOAD PUSH1 0xFF AND ISZERO PUSH2 0x184F JUMPI PUSH1 0x40 MLOAD PUSH3 0x461BCD PUSH1 0xE5 SHL DUP2 MSTORE PUSH1 0x20 PUSH1 0x4 DUP3 ADD MSTORE PUSH1 0x12 PUSH1 0x24 DUP3 ADD MSTORE PUSH18 0x20B63932B0B23C9030902830BCAA37B5B2B7 PUSH1 0x71 SHL PUSH1 0x44 DUP3 ADD MSTORE PUSH1 0x64 ADD PUSH2 0xAE2 JUMP JUMPDEST PUSH1 0x13 DUP1 SLOAD PUSH1 0x1 DUP2 DUP2 ADD SWAP1 SWAP3 SSTORE PUSH32 0x66DE8FFDA797E3DE9C05E8FC57B3BF0EC28A930D40B0D285D93C06501CF6A090 ADD DUP1 SLOAD PUSH1 0x1 PUSH1 0x1 PUSH1 0xA0 SHL SUB SWAP1 SWAP4 AND PUSH1 0x1 PUSH1 0x1 PUSH1 0xA0 SHL SUB NOT SWAP1 SWAP4 AND DUP4 OR SWAP1 SSTORE PUSH1 0x0 SWAP2 DUP3 MSTORE PUSH1 0x14 PUSH1 0x20 MSTORE PUSH1 0x40 SWAP1 SWAP2 KECCAK256 DUP1 SLOAD PUSH1 0xFF NOT AND SWAP1 SWAP2 OR SWAP1 SSTORE JUMP JUMPDEST PUSH2 0x18BE PUSH2 0x2B77 JUMP JUMPDEST PUSH1 0x1 PUSH1 0x1 PUSH1 0xA0 SHL SUB DUP3 AND PUSH1 0x0 DUP2 DUP2 MSTORE PUSH1 0x18 PUSH1 0x20 SWAP1 DUP2 MSTORE PUSH1 0x40 DUP1 DUP4 KECCAK256 DUP1 SLOAD PUSH1 0x1 DUP2 DUP2 ADD DUP4 SSTORE SWAP2 DUP6 MSTORE DUP4 DUP6 KECCAK256 ADD DUP7 SWAP1 SSTORE SWAP4 DUP4 MSTORE PUSH1 0x19 SWAP1 SWAP2 MSTORE DUP2 KECCAK256 DUP1 SLOAD SWAP1 SWAP2 SWAP1 PUSH2 0xB2B SWAP1 DUP5 SWAP1 PUSH2 0x30C2 JUMP JUMPDEST PUSH1 0x60 PUSH1 0x0 DUP1 JUMPDEST PUSH1 0xF SLOAD DUP2 GT PUSH2 0x194B JUMPI PUSH1 0x0 DUP2 DUP2 MSTORE PUSH1 0x16 PUSH1 0x20 MSTORE PUSH1 0x40 SWAP1 KECCAK256 SLOAD DUP5 LT ISZERO PUSH2 0x1939 JUMPI DUP2 PUSH2 0x1935 DUP2 PUSH2 0x313B JUMP JUMPDEST SWAP3 POP POP JUMPDEST DUP1 PUSH2 0x1943 DUP2 PUSH2 0x313B JUMP JUMPDEST SWAP2 POP POP PUSH2 0x190C JUMP JUMPDEST POP PUSH1 0x0 DUP2 PUSH1 0xF SLOAD PUSH1 0x1 PUSH2 0x195E SWAP2 SWAP1 PUSH2 0x30C2 JUMP JUMPDEST PUSH2 0x1968 SWAP2 SWAP1 PUSH2 0x310D JUMP JUMPDEST SWAP1 POP PUSH1 0x0 DUP1 DUP4 PUSH8 0xFFFFFFFFFFFFFFFF DUP2 GT ISZERO PUSH2 0x1986 JUMPI PUSH2 0x1986 PUSH2 0x31C2 JUMP JUMPDEST PUSH1 0x40 MLOAD SWAP1 DUP1 DUP3 MSTORE DUP1 PUSH1 0x20 MUL PUSH1 0x20 ADD DUP3 ADD PUSH1 0x40 MSTORE DUP1 ISZERO PUSH2 0x1A09 JUMPI DUP2 PUSH1 0x20 ADD JUMPDEST PUSH2 0x19F6 PUSH1 0x40 MLOAD DUP1 PUSH1 0xE0 ADD PUSH1 0x40 MSTORE DUP1 PUSH1 0x0 DUP2 MSTORE PUSH1 0x20 ADD PUSH1 0x0 DUP2 MSTORE PUSH1 0x20 ADD PUSH1 0x0 PUSH1 0x1 PUSH1 0x1 PUSH1 0xA0 SHL SUB AND DUP2 MSTORE PUSH1 0x20 ADD PUSH1 0x0 DUP2 MSTORE PUSH1 0x20 ADD PUSH1 0x0 PUSH1 0x1 PUSH1 0x1 PUSH1 0xA0 SHL SUB AND DUP2 MSTORE PUSH1 0x20 ADD PUSH1 0x0 DUP2 MSTORE PUSH1 0x20 ADD PUSH1 0x0 DUP2 MSTORE POP SWAP1 JUMP JUMPDEST DUP2 MSTORE PUSH1 0x20 ADD SWAP1 PUSH1 0x1 SWAP1 SUB SWAP1 DUP2 PUSH2 0x19A4 JUMPI SWAP1 POP JUMPDEST POP SWAP1 POP DUP3 JUMPDEST PUSH1 0xF SLOAD DUP2 GT PUSH2 0x17D2 JUMPI PUSH1 0x0 DUP2 DUP2 MSTORE PUSH1 0x16 PUSH1 0x20 SWAP1 DUP2 MSTORE PUSH1 0x40 SWAP2 DUP3 SWAP1 KECCAK256 DUP3 MLOAD PUSH1 0xE0 DUP2 ADD DUP5 MSTORE DUP2 SLOAD DUP2 MSTORE PUSH1 0x1 DUP3 ADD SLOAD SWAP3 DUP2 ADD SWAP3 SWAP1 SWAP3 MSTORE PUSH1 0x2 DUP2 ADD SLOAD PUSH1 0x1 PUSH1 0x1 PUSH1 0xA0 SHL SUB SWAP1 DUP2 AND SWAP4 DUP4 ADD SWAP4 SWAP1 SWAP4 MSTORE PUSH1 0x3 DUP2 ADD SLOAD PUSH1 0x60 DUP4 ADD MSTORE PUSH1 0x4 DUP2 ADD SLOAD SWAP1 SWAP3 AND PUSH1 0x80 DUP3 ADD MSTORE PUSH1 0x5 DUP3 ADD SLOAD PUSH1 0xA0 DUP3 ADD MSTORE PUSH1 0x6 SWAP1 SWAP2 ADD SLOAD PUSH1 0xC0 DUP3 ADD MSTORE DUP3 MLOAD DUP4 SWAP1 DUP6 SWAP1 DUP2 LT PUSH2 0x1A98 JUMPI PUSH2 0x1A98 PUSH2 0x31AC JUMP JUMPDEST PUSH1 0x20 MUL PUSH1 0x20 ADD ADD DUP2 SWAP1 MSTORE POP DUP3 DUP1 PUSH2 0x1AAE SWAP1 PUSH2 0x313B JUMP JUMPDEST SWAP4 POP POP DUP1 DUP1 PUSH2 0x1ABC SWAP1 PUSH2 0x313B JUMP JUMPDEST SWAP2 POP POP PUSH2 0x1A0E JUMP JUMPDEST PUSH2 0x1ACC PUSH2 0x2B77 JUMP JUMPDEST PUSH1 0x1 PUSH1 0x1 PUSH1 0xA0 SHL SUB DUP2 AND PUSH1 0x0 SWAP1 DUP2 MSTORE PUSH1 0x14 PUSH1 0x20 MSTORE PUSH1 0x40 SWAP1 KECCAK256 SLOAD PUSH1 0xFF AND PUSH2 0x1B25 JUMPI PUSH1 0x40 MLOAD PUSH3 0x461BCD PUSH1 0xE5 SHL DUP2 MSTORE PUSH1 0x20 PUSH1 0x4 DUP3 ADD MSTORE PUSH1 0xE PUSH1 0x24 DUP3 ADD MSTORE PUSH14 0x2737BA1020902830BCAA37B5B2B7 PUSH1 0x91 SHL PUSH1 0x44 DUP3 ADD MSTORE PUSH1 0x64 ADD PUSH2 0xAE2 JUMP JUMPDEST PUSH1 0x0 JUMPDEST PUSH1 0x13 SLOAD DUP2 LT ISZERO PUSH2 0x1C4A JUMPI DUP2 PUSH1 0x1 PUSH1 0x1 PUSH1 0xA0 SHL SUB AND PUSH1 0x13 DUP3 DUP2 SLOAD DUP2 LT PUSH2 0x1B4F JUMPI PUSH2 0x1B4F PUSH2 0x31AC JUMP JUMPDEST PUSH1 0x0 SWAP2 DUP3 MSTORE PUSH1 0x20 SWAP1 SWAP2 KECCAK256 ADD SLOAD PUSH1 0x1 PUSH1 0x1 PUSH1 0xA0 SHL SUB AND EQ ISZERO PUSH2 0x1C38 JUMPI PUSH1 0x13 DUP1 SLOAD PUSH2 0x1B7A SWAP1 PUSH1 0x1 SWAP1 PUSH2 0x310D JUMP JUMPDEST DUP2 SLOAD DUP2 LT PUSH2 0x1B8A JUMPI PUSH2 0x1B8A PUSH2 0x31AC JUMP JUMPDEST PUSH1 0x0 SWAP2 DUP3 MSTORE PUSH1 0x20 SWAP1 SWAP2 KECCAK256 ADD SLOAD PUSH1 0x13 DUP1 SLOAD PUSH1 0x1 PUSH1 0x1 PUSH1 0xA0 SHL SUB SWAP1 SWAP3 AND SWAP2 DUP4 SWAP1 DUP2 LT PUSH2 0x1BB6 JUMPI PUSH2 0x1BB6 PUSH2 0x31AC JUMP JUMPDEST SWAP1 PUSH1 0x0 MSTORE PUSH1 0x20 PUSH1 0x0 KECCAK256 ADD PUSH1 0x0 PUSH2 0x100 EXP DUP2 SLOAD DUP2 PUSH1 0x1 PUSH1 0x1 PUSH1 0xA0 SHL SUB MUL NOT AND SWAP1 DUP4 PUSH1 0x1 PUSH1 0x1 PUSH1 0xA0 SHL SUB AND MUL OR SWAP1 SSTORE POP PUSH1 0x13 DUP1 SLOAD DUP1 PUSH2 0x1BF5 JUMPI PUSH2 0x1BF5 PUSH2 0x3196 JUMP JUMPDEST PUSH1 0x0 DUP3 DUP2 MSTORE PUSH1 0x20 DUP1 DUP3 KECCAK256 DUP4 ADD PUSH1 0x0 NOT SWAP1 DUP2 ADD DUP1 SLOAD PUSH1 0x1 PUSH1 0x1 PUSH1 0xA0 SHL SUB NOT AND SWAP1 SSTORE SWAP1 SWAP3 ADD SWAP1 SWAP3 SSTORE PUSH1 0x1 PUSH1 0x1 PUSH1 0xA0 SHL SUB DUP5 AND DUP3 MSTORE PUSH1 0x14 SWAP1 MSTORE PUSH1 0x40 SWAP1 KECCAK256 DUP1 SLOAD PUSH1 0xFF NOT AND SWAP1 SSTORE JUMPDEST DUP1 PUSH2 0x1C42 DUP2 PUSH2 0x313B JUMP JUMPDEST SWAP2 POP POP PUSH2 0x1B28 JUMP JUMPDEST POP POP JUMP JUMPDEST PUSH2 0x1C56 PUSH2 0x2B77 JUMP JUMPDEST PUSH1 0x2 DUP2 LT ISZERO DUP1 ISZERO PUSH2 0x1C68 JUMPI POP PUSH1 0xA DUP2 GT ISZERO JUMPDEST PUSH2 0x1CA7 JUMPI PUSH1 0x40 MLOAD PUSH3 0x461BCD PUSH1 0xE5 SHL DUP2 MSTORE PUSH1 0x20 PUSH1 0x4 DUP3 ADD MSTORE PUSH1 0x10 PUSH1 0x24 DUP3 ADD MSTORE PUSH16 0x6265747765656E203220616E6420313 PUSH1 0x84 SHL PUSH1 0x44 DUP3 ADD MSTORE PUSH1 0x64 ADD PUSH2 0xAE2 JUMP JUMPDEST PUSH1 0xD SSTORE JUMP JUMPDEST PUSH1 0x15 SLOAD PUSH1 0x0 SWAP1 DUP2 SWAP1 DUP2 SWAP1 DUP2 SWAP1 DUP2 SWAP1 DUP2 SWAP1 PUSH1 0xFF AND ISZERO PUSH2 0x1CFF JUMPI PUSH1 0x40 MLOAD PUSH3 0x461BCD PUSH1 0xE5 SHL DUP2 MSTORE PUSH1 0x20 PUSH1 0x4 DUP3 ADD MSTORE PUSH1 0x10 PUSH1 0x24 DUP3 ADD MSTORE PUSH16 0x19D85B595CC8185C99481C185D5CD959 PUSH1 0x82 SHL PUSH1 0x44 DUP3 ADD MSTORE PUSH1 0x64 ADD PUSH2 0xAE2 JUMP JUMPDEST CALLVALUE DUP1 ISZERO PUSH2 0x1E7C JUMPI PUSH1 0x1 SLOAD PUSH1 0x40 DUP1 MLOAD PUSH4 0x61D027B3 PUSH1 0xE0 SHL DUP2 MSTORE SWAP1 MLOAD PUSH1 0x0 SWAP3 PUSH1 0x1 PUSH1 0x1 PUSH1 0xA0 SHL SUB AND SWAP2 PUSH4 0x61D027B3 SWAP2 PUSH1 0x4 DUP1 DUP4 ADD SWAP3 PUSH1 0x20 SWAP3 SWAP2 SWAP1 DUP3 SWAP1 SUB ADD DUP2 DUP7 DUP1 EXTCODESIZE ISZERO DUP1 ISZERO PUSH2 0x1D4B JUMPI PUSH1 0x0 DUP1 REVERT JUMPDEST POP GAS STATICCALL ISZERO DUP1 ISZERO PUSH2 0x1D5F JUMPI RETURNDATASIZE PUSH1 0x0 DUP1 RETURNDATACOPY RETURNDATASIZE PUSH1 0x0 REVERT JUMPDEST POP POP POP POP PUSH1 0x40 MLOAD RETURNDATASIZE PUSH1 0x1F NOT PUSH1 0x1F DUP3 ADD AND DUP3 ADD DUP1 PUSH1 0x40 MSTORE POP DUP2 ADD SWAP1 PUSH2 0x1D83 SWAP2 SWAP1 PUSH2 0x2D3F JUMP JUMPDEST SWAP1 POP PUSH1 0x4 SLOAD CALLVALUE LT ISZERO DUP1 ISZERO PUSH2 0x1D99 JUMPI POP PUSH1 0x5 SLOAD CALLVALUE GT ISZERO JUMPDEST PUSH2 0x1DD8 JUMPI PUSH1 0x40 MLOAD PUSH3 0x461BCD PUSH1 0xE5 SHL DUP2 MSTORE PUSH1 0x20 PUSH1 0x4 DUP3 ADD MSTORE PUSH1 0x10 PUSH1 0x24 DUP3 ADD MSTORE PUSH16 0x426574206F7574206F662052616E6765 PUSH1 0x80 SHL PUSH1 0x44 DUP3 ADD MSTORE PUSH1 0x64 ADD PUSH2 0xAE2 JUMP JUMPDEST PUSH1 0x0 PUSH2 0x2710 PUSH1 0x7 SLOAD CALLVALUE PUSH2 0x1DEB SWAP2 SWAP1 PUSH2 0x30EE JUMP JUMPDEST PUSH2 0x1DF5 SWAP2 SWAP1 PUSH2 0x30DA JUMP JUMPDEST PUSH1 0x40 MLOAD SWAP1 SWAP2 POP PUSH1 0x1 PUSH1 0x1 PUSH1 0xA0 SHL SUB DUP4 AND SWAP1 DUP3 ISZERO PUSH2 0x8FC MUL SWAP1 DUP4 SWAP1 PUSH1 0x0 DUP2 DUP2 DUP2 DUP6 DUP9 DUP9 CALL SWAP4 POP POP POP POP PUSH2 0x1E26 JUMPI PUSH1 0x0 DUP1 REVERT JUMPDEST PUSH1 0x0 PUSH2 0x2710 PUSH1 0x8 SLOAD CALLVALUE PUSH2 0x1E39 SWAP2 SWAP1 PUSH2 0x30EE JUMP JUMPDEST PUSH2 0x1E43 SWAP2 SWAP1 PUSH2 0x30DA JUMP JUMPDEST SWAP1 POP DUP1 PUSH1 0xE PUSH1 0x0 DUP3 DUP3 SLOAD PUSH2 0x1E57 SWAP2 SWAP1 PUSH2 0x30C2 JUMP JUMPDEST SWAP1 SWAP2 SSTORE POP DUP2 SWAP1 POP PUSH2 0x1E68 DUP4 CALLVALUE PUSH2 0x310D JUMP JUMPDEST PUSH2 0x1E72 SWAP2 SWAP1 PUSH2 0x310D JUMP JUMPDEST SWAP8 POP POP POP POP PUSH2 0x1F5E JUMP JUMPDEST CALLER PUSH1 0x0 SWAP1 DUP2 MSTORE PUSH1 0x19 PUSH1 0x20 MSTORE PUSH1 0x40 SWAP1 KECCAK256 SLOAD DUP1 PUSH2 0x1EC8 JUMPI PUSH1 0x40 MLOAD PUSH3 0x461BCD PUSH1 0xE5 SHL DUP2 MSTORE PUSH1 0x20 PUSH1 0x4 DUP3 ADD MSTORE PUSH1 0xC PUSH1 0x24 DUP3 ADD MSTORE PUSH12 0x4E6F2046726565506C617973 PUSH1 0xA0 SHL PUSH1 0x44 DUP3 ADD MSTORE PUSH1 0x64 ADD PUSH2 0xAE2 JUMP JUMPDEST CALLER PUSH1 0x0 SWAP1 DUP2 MSTORE PUSH1 0x18 PUSH1 0x20 MSTORE PUSH1 0x40 SWAP1 KECCAK256 PUSH2 0x1EE2 PUSH1 0x1 DUP4 PUSH2 0x310D JUMP JUMPDEST DUP2 SLOAD DUP2 LT PUSH2 0x1EF2 JUMPI PUSH2 0x1EF2 PUSH2 0x31AC JUMP JUMPDEST PUSH1 0x0 SWAP2 DUP3 MSTORE PUSH1 0x20 DUP1 DUP4 KECCAK256 SWAP1 SWAP2 ADD SLOAD CALLER DUP4 MSTORE PUSH1 0x18 SWAP1 SWAP2 MSTORE PUSH1 0x40 SWAP1 SWAP2 KECCAK256 DUP1 SLOAD SWAP2 SWAP4 POP SWAP1 DUP1 PUSH2 0x1F20 JUMPI PUSH2 0x1F20 PUSH2 0x3196 JUMP JUMPDEST PUSH1 0x0 DUP3 DUP2 MSTORE PUSH1 0x20 DUP1 DUP3 KECCAK256 DUP4 ADD PUSH1 0x0 NOT SWAP1 DUP2 ADD DUP4 SWAP1 SSTORE SWAP1 SWAP3 ADD SWAP1 SWAP3 SSTORE CALLER DUP3 MSTORE PUSH1 0x19 SWAP1 MSTORE PUSH1 0x40 DUP2 KECCAK256 DUP1 SLOAD PUSH1 0x1 SWAP3 SWAP1 PUSH2 0x1F57 SWAP1 DUP5 SWAP1 PUSH2 0x310D JUMP JUMPDEST SWAP1 SWAP2 SSTORE POP POP POP JUMPDEST PUSH1 0x1 PUSH1 0xF PUSH1 0x0 DUP3 DUP3 SLOAD PUSH2 0x1F71 SWAP2 SWAP1 PUSH2 0x30C2 JUMP JUMPDEST SWAP1 SWAP2 SSTORE POP POP PUSH1 0x1 PUSH1 0x1 PUSH1 0xA0 SHL SUB DUP9 AND PUSH1 0x0 SWAP1 DUP2 MSTORE PUSH1 0x14 PUSH1 0x20 MSTORE PUSH1 0x40 SWAP1 KECCAK256 SLOAD PUSH1 0xFF AND PUSH2 0x1FCF JUMPI PUSH1 0x40 MLOAD PUSH3 0x461BCD PUSH1 0xE5 SHL DUP2 MSTORE PUSH1 0x20 PUSH1 0x4 DUP3 ADD MSTORE PUSH1 0xE PUSH1 0x24 DUP3 ADD MSTORE PUSH14 0x2737BA1030902830BCBA37B5B2B7 PUSH1 0x91 SHL PUSH1 0x44 DUP3 ADD MSTORE PUSH1 0x64 ADD PUSH2 0xAE2 JUMP JUMPDEST PUSH1 0x0 DUP1 PUSH2 0x1FDB DUP4 PUSH2 0xEDC JUMP JUMPDEST SWAP2 POP SWAP2 POP PUSH1 0xA DUP3 DUP2 SLOAD DUP2 LT PUSH2 0x1FF2 JUMPI PUSH2 0x1FF2 PUSH2 0x31AC JUMP JUMPDEST SWAP1 PUSH1 0x0 MSTORE PUSH1 0x20 PUSH1 0x0 KECCAK256 ADD SLOAD PUSH1 0x0 EQ ISZERO PUSH2 0x2171 JUMPI PUSH1 0x0 DUP1 MLOAD PUSH1 0x20 PUSH2 0x31FC DUP4 CODECOPY DUP2 MLOAD SWAP2 MSTORE PUSH1 0xF SLOAD CALLER DUP10 DUP10 PUSH1 0x0 PUSH1 0xA DUP9 DUP2 SLOAD DUP2 LT PUSH2 0x202F JUMPI PUSH2 0x202F PUSH2 0x31AC JUMP JUMPDEST SWAP1 PUSH1 0x0 MSTORE PUSH1 0x20 PUSH1 0x0 KECCAK256 ADD SLOAD PUSH1 0x40 MLOAD PUSH2 0x204C SWAP7 SWAP6 SWAP5 SWAP4 SWAP3 SWAP2 SWAP1 PUSH2 0x3025 JUMP JUMPDEST PUSH1 0x40 MLOAD DUP1 SWAP2 SUB SWAP1 LOG1 PUSH1 0x40 MLOAD DUP1 PUSH1 0xE0 ADD PUSH1 0x40 MSTORE DUP1 TIMESTAMP DUP2 MSTORE PUSH1 0x20 ADD PUSH1 0xF SLOAD DUP2 MSTORE PUSH1 0x20 ADD CALLER PUSH1 0x1 PUSH1 0x1 PUSH1 0xA0 SHL SUB AND DUP2 MSTORE PUSH1 0x20 ADD DUP9 DUP2 MSTORE PUSH1 0x20 ADD DUP8 PUSH1 0x1 PUSH1 0x1 PUSH1 0xA0 SHL SUB AND DUP2 MSTORE PUSH1 0x20 ADD PUSH1 0x0 DUP2 MSTORE PUSH1 0x20 ADD PUSH1 0xA DUP5 DUP2 SLOAD DUP2 LT PUSH2 0x20AB JUMPI PUSH2 0x20AB PUSH2 0x31AC JUMP JUMPDEST PUSH1 0x0 SWAP2 DUP3 MSTORE PUSH1 0x20 DUP1 DUP4 KECCAK256 SWAP1 SWAP2 ADD SLOAD SWAP1 SWAP3 MSTORE PUSH1 0xF DUP1 SLOAD DUP3 MSTORE PUSH1 0x16 DUP4 MSTORE PUSH1 0x40 DUP1 DUP4 KECCAK256 DUP6 MLOAD DUP2 SSTORE SWAP4 DUP6 ADD MLOAD PUSH1 0x1 DUP6 ADD SSTORE DUP5 ADD MLOAD PUSH1 0x2 DUP5 ADD DUP1 SLOAD PUSH1 0x1 PUSH1 0x1 PUSH1 0xA0 SHL SUB SWAP3 DUP4 AND PUSH1 0x1 PUSH1 0x1 PUSH1 0xA0 SHL SUB NOT SWAP2 DUP3 AND OR SWAP1 SWAP2 SSTORE PUSH1 0x60 DUP7 ADD MLOAD PUSH1 0x3 DUP7 ADD SSTORE PUSH1 0x80 DUP7 ADD MLOAD PUSH1 0x4 DUP7 ADD DUP1 SLOAD SWAP2 SWAP1 SWAP4 AND SWAP2 AND OR SWAP1 SSTORE PUSH1 0xA0 DUP5 ADD MLOAD PUSH1 0x5 DUP5 ADD SSTORE PUSH1 0xC0 SWAP1 SWAP4 ADD MLOAD PUSH1 0x6 SWAP1 SWAP3 ADD SWAP2 SWAP1 SWAP2 SSTORE SWAP1 SLOAD PUSH1 0xA DUP1 SLOAD SWAP2 SWAP3 CALLER SWAP3 DUP12 SWAP3 DUP12 SWAP3 SWAP2 DUP9 SWAP1 DUP2 LT PUSH2 0x2152 JUMPI PUSH2 0x2152 PUSH2 0x31AC JUMP JUMPDEST SWAP1 PUSH1 0x0 MSTORE PUSH1 0x20 PUSH1 0x0 KECCAK256 ADD SLOAD SWAP9 POP SWAP9 POP SWAP9 POP SWAP9 POP SWAP9 POP SWAP9 POP POP POP POP PUSH2 0x292E JUMP JUMPDEST PUSH1 0xA DUP3 DUP2 SLOAD DUP2 LT PUSH2 0x2184 JUMPI PUSH2 0x2184 PUSH2 0x31AC JUMP JUMPDEST SWAP1 PUSH1 0x0 MSTORE PUSH1 0x20 PUSH1 0x0 KECCAK256 ADD SLOAD PUSH1 0x3 EQ DUP1 PUSH2 0x21CE JUMPI POP PUSH1 0xA DUP3 DUP2 SLOAD DUP2 LT PUSH2 0x21AB JUMPI PUSH2 0x21AB PUSH2 0x31AC JUMP JUMPDEST SWAP1 PUSH1 0x0 MSTORE PUSH1 0x20 PUSH1 0x0 KECCAK256 ADD SLOAD PUSH1 0x5 EQ DUP1 ISZERO PUSH2 0x21CE JUMPI POP PUSH1 0x11 SLOAD PUSH1 0x1 PUSH1 0x1 PUSH1 0xA0 SHL SUB AND ISZERO JUMPDEST ISZERO PUSH2 0x2243 JUMPI CALLER PUSH1 0x0 DUP2 DUP2 MSTORE PUSH1 0x18 PUSH1 0x20 SWAP1 DUP2 MSTORE PUSH1 0x40 DUP1 DUP4 KECCAK256 DUP1 SLOAD PUSH1 0x1 DUP2 DUP2 ADD DUP4 SSTORE SWAP2 DUP6 MSTORE DUP4 DUP6 KECCAK256 ADD DUP9 SWAP1 SSTORE SWAP4 DUP4 MSTORE PUSH1 0x19 SWAP1 SWAP2 MSTORE DUP2 KECCAK256 DUP1 SLOAD SWAP1 SWAP2 SWAP1 PUSH2 0x2212 SWAP1 DUP5 SWAP1 PUSH2 0x30C2 JUMP JUMPDEST SWAP3 POP POP DUP2 SWAP1 SSTORE POP PUSH1 0x0 DUP1 MLOAD PUSH1 0x20 PUSH2 0x31FC DUP4 CODECOPY DUP2 MLOAD SWAP2 MSTORE PUSH1 0xF SLOAD CALLER DUP10 DUP10 PUSH1 0x0 PUSH1 0xA DUP9 DUP2 SLOAD DUP2 LT PUSH2 0x202F JUMPI PUSH2 0x202F PUSH2 0x31AC JUMP JUMPDEST PUSH1 0xA DUP3 DUP2 SLOAD DUP2 LT PUSH2 0x2256 JUMPI PUSH2 0x2256 PUSH2 0x31AC JUMP JUMPDEST SWAP1 PUSH1 0x0 MSTORE PUSH1 0x20 PUSH1 0x0 KECCAK256 ADD SLOAD PUSH1 0x5 EQ ISZERO PUSH2 0x243C JUMPI PUSH1 0x11 SLOAD PUSH1 0x40 MLOAD PUSH4 0x1CDFD52F PUSH1 0xE1 SHL DUP2 MSTORE CALLER PUSH1 0x4 DUP3 ADD MSTORE PUSH1 0x1 PUSH1 0x24 DUP3 ADD MSTORE PUSH1 0x1 PUSH1 0x1 PUSH1 0xA0 SHL SUB SWAP1 SWAP2 AND SWAP1 DUP2 SWAP1 PUSH4 0x39BFAA5E SWAP1 PUSH1 0x44 ADD PUSH1 0x0 PUSH1 0x40 MLOAD DUP1 DUP4 SUB DUP2 PUSH1 0x0 DUP8 DUP1 EXTCODESIZE ISZERO DUP1 ISZERO PUSH2 0x22B7 JUMPI PUSH1 0x0 DUP1 REVERT JUMPDEST POP GAS CALL ISZERO DUP1 ISZERO PUSH2 0x22CB JUMPI RETURNDATASIZE PUSH1 0x0 DUP1 RETURNDATACOPY RETURNDATASIZE PUSH1 0x0 REVERT JUMPDEST POP POP POP POP PUSH1 0x0 DUP1 MLOAD PUSH1 0x20 PUSH2 0x31FC DUP4 CODECOPY DUP2 MLOAD SWAP2 MSTORE PUSH1 0xF SLOAD CALLER DUP11 DUP11 PUSH1 0x0 PUSH1 0xA DUP10 DUP2 SLOAD DUP2 LT PUSH2 0x22F9 JUMPI PUSH2 0x22F9 PUSH2 0x31AC JUMP JUMPDEST SWAP1 PUSH1 0x0 MSTORE PUSH1 0x20 PUSH1 0x0 KECCAK256 ADD SLOAD PUSH1 0x40 MLOAD PUSH2 0x2316 SWAP7 SWAP6 SWAP5 SWAP4 SWAP3 SWAP2 SWAP1 PUSH2 0x3025 JUMP JUMPDEST PUSH1 0x40 MLOAD DUP1 SWAP2 SUB SWAP1 LOG1 PUSH1 0x40 MLOAD DUP1 PUSH1 0xE0 ADD PUSH1 0x40 MSTORE DUP1 TIMESTAMP DUP2 MSTORE PUSH1 0x20 ADD PUSH1 0xF SLOAD DUP2 MSTORE PUSH1 0x20 ADD CALLER PUSH1 0x1 PUSH1 0x1 PUSH1 0xA0 SHL SUB AND DUP2 MSTORE PUSH1 0x20 ADD DUP10 DUP2 MSTORE PUSH1 0x20 ADD DUP9 PUSH1 0x1 PUSH1 0x1 PUSH1 0xA0 SHL SUB AND DUP2 MSTORE PUSH1 0x20 ADD PUSH1 0x0 DUP2 MSTORE PUSH1 0x20 ADD PUSH1 0xA DUP6 DUP2 SLOAD DUP2 LT PUSH2 0x2375 JUMPI PUSH2 0x2375 PUSH2 0x31AC JUMP JUMPDEST PUSH1 0x0 SWAP2 DUP3 MSTORE PUSH1 0x20 DUP1 DUP4 KECCAK256 SWAP1 SWAP2 ADD SLOAD SWAP1 SWAP3 MSTORE PUSH1 0xF DUP1 SLOAD DUP3 MSTORE PUSH1 0x16 DUP4 MSTORE PUSH1 0x40 DUP1 DUP4 KECCAK256 DUP6 MLOAD DUP2 SSTORE SWAP4 DUP6 ADD MLOAD PUSH1 0x1 DUP6 ADD SSTORE DUP5 ADD MLOAD PUSH1 0x2 DUP5 ADD DUP1 SLOAD PUSH1 0x1 PUSH1 0x1 PUSH1 0xA0 SHL SUB SWAP3 DUP4 AND PUSH1 0x1 PUSH1 0x1 PUSH1 0xA0 SHL SUB NOT SWAP2 DUP3 AND OR SWAP1 SWAP2 SSTORE PUSH1 0x60 DUP7 ADD MLOAD PUSH1 0x3 DUP7 ADD SSTORE PUSH1 0x80 DUP7 ADD MLOAD PUSH1 0x4 DUP7 ADD DUP1 SLOAD SWAP2 SWAP1 SWAP4 AND SWAP2 AND OR SWAP1 SSTORE PUSH1 0xA0 DUP5 ADD MLOAD PUSH1 0x5 DUP5 ADD SSTORE PUSH1 0xC0 SWAP1 SWAP4 ADD MLOAD PUSH1 0x6 SWAP1 SWAP3 ADD SWAP2 SWAP1 SWAP2 SSTORE SWAP1 SLOAD PUSH1 0xA DUP1 SLOAD SWAP2 SWAP3 CALLER SWAP3 DUP13 SWAP3 DUP13 SWAP3 SWAP2 DUP10 SWAP1 DUP2 LT PUSH2 0x241C JUMPI PUSH2 0x241C PUSH2 0x31AC JUMP JUMPDEST SWAP1 PUSH1 0x0 MSTORE PUSH1 0x20 PUSH1 0x0 KECCAK256 ADD SLOAD SWAP10 POP SWAP10 POP SWAP10 POP SWAP10 POP SWAP10 POP SWAP10 POP POP POP POP POP PUSH2 0x292E JUMP JUMPDEST DUP1 PUSH2 0x244B JUMPI PUSH1 0x0 SWAP6 POP DUP6 PUSH2 0x2450 JUMP JUMPDEST DUP10 SWAP6 POP DUP6 JUMPDEST POP DUP3 PUSH1 0xA DUP4 DUP2 SLOAD DUP2 LT PUSH2 0x2465 JUMPI PUSH2 0x2465 PUSH2 0x31AC JUMP JUMPDEST SWAP1 PUSH1 0x0 MSTORE PUSH1 0x20 PUSH1 0x0 KECCAK256 ADD SLOAD PUSH2 0x247A SWAP2 SWAP1 PUSH2 0x30EE JUMP JUMPDEST SWAP5 POP DUP1 ISZERO DUP1 PUSH2 0x251F JUMPI POP PUSH1 0x2 PUSH1 0x0 SWAP1 SLOAD SWAP1 PUSH2 0x100 EXP SWAP1 DIV PUSH1 0x1 PUSH1 0x1 PUSH1 0xA0 SHL SUB AND PUSH1 0x1 PUSH1 0x1 PUSH1 0xA0 SHL SUB AND PUSH4 0xAD5C4648 PUSH1 0x40 MLOAD DUP2 PUSH4 0xFFFFFFFF AND PUSH1 0xE0 SHL DUP2 MSTORE PUSH1 0x4 ADD PUSH1 0x20 PUSH1 0x40 MLOAD DUP1 DUP4 SUB DUP2 DUP7 DUP1 EXTCODESIZE ISZERO DUP1 ISZERO PUSH2 0x24D2 JUMPI PUSH1 0x0 DUP1 REVERT JUMPDEST POP GAS STATICCALL ISZERO DUP1 ISZERO PUSH2 0x24E6 JUMPI RETURNDATASIZE PUSH1 0x0 DUP1 RETURNDATACOPY RETURNDATASIZE PUSH1 0x0 REVERT JUMPDEST POP POP POP POP PUSH1 0x40 MLOAD RETURNDATASIZE PUSH1 0x1F NOT PUSH1 0x1F DUP3 ADD AND DUP3 ADD DUP1 PUSH1 0x40 MSTORE POP DUP2 ADD SWAP1 PUSH2 0x250A SWAP2 SWAP1 PUSH2 0x2D3F JUMP JUMPDEST PUSH1 0x1 PUSH1 0x1 PUSH1 0xA0 SHL SUB AND DUP11 PUSH1 0x1 PUSH1 0x1 PUSH1 0xA0 SHL SUB AND EQ JUMPDEST ISZERO PUSH2 0x254E JUMPI PUSH1 0x40 MLOAD CALLER SWAP1 DUP7 ISZERO PUSH2 0x8FC MUL SWAP1 DUP8 SWAP1 PUSH1 0x0 DUP2 DUP2 DUP2 DUP6 DUP9 DUP9 CALL SWAP4 POP POP POP POP PUSH2 0x2549 JUMPI PUSH1 0x0 DUP1 REVERT JUMPDEST PUSH2 0x27C8 JUMP JUMPDEST PUSH1 0x40 MLOAD PUSH4 0x70A08231 PUSH1 0xE0 SHL DUP2 MSTORE CALLER PUSH1 0x4 DUP3 ADD MSTORE PUSH1 0x0 SWAP1 PUSH1 0x1 PUSH1 0x1 PUSH1 0xA0 SHL SUB DUP13 AND SWAP1 PUSH4 0x70A08231 SWAP1 PUSH1 0x24 ADD PUSH1 0x20 PUSH1 0x40 MLOAD DUP1 DUP4 SUB DUP2 DUP7 DUP1 EXTCODESIZE ISZERO DUP1 ISZERO PUSH2 0x2590 JUMPI PUSH1 0x0 DUP1 REVERT JUMPDEST POP GAS STATICCALL ISZERO DUP1 ISZERO PUSH2 0x25A4 JUMPI RETURNDATASIZE PUSH1 0x0 DUP1 RETURNDATACOPY RETURNDATASIZE PUSH1 0x0 REVERT JUMPDEST POP POP POP POP PUSH1 0x40 MLOAD RETURNDATASIZE PUSH1 0x1F NOT PUSH1 0x1F DUP3 ADD AND DUP3 ADD DUP1 PUSH1 0x40 MSTORE POP DUP2 ADD SWAP1 PUSH2 0x25C8 SWAP2 SWAP1 PUSH2 0x2E3F JUMP JUMPDEST PUSH1 0x40 DUP1 MLOAD PUSH1 0x2 DUP1 DUP3 MSTORE PUSH1 0x60 DUP3 ADD DUP4 MSTORE SWAP3 SWAP4 POP PUSH1 0x0 SWAP3 SWAP1 SWAP2 PUSH1 0x20 DUP4 ADD SWAP1 DUP1 CALLDATASIZE DUP4 CALLDATACOPY POP POP PUSH1 0x2 SLOAD PUSH1 0x40 DUP1 MLOAD PUSH4 0x15AB88C9 PUSH1 0xE3 SHL DUP2 MSTORE SWAP1 MLOAD SWAP4 SWAP5 POP PUSH1 0x1 PUSH1 0x1 PUSH1 0xA0 SHL SUB SWAP1 SWAP2 AND SWAP3 PUSH4 0xAD5C4648 SWAP3 POP PUSH1 0x4 DUP1 DUP4 ADD SWAP3 PUSH1 0x20 SWAP3 SWAP2 SWAP1 DUP3 SWAP1 SUB ADD DUP2 DUP7 DUP1 EXTCODESIZE ISZERO DUP1 ISZERO PUSH2 0x2632 JUMPI PUSH1 0x0 DUP1 REVERT JUMPDEST POP GAS STATICCALL ISZERO DUP1 ISZERO PUSH2 0x2646 JUMPI RETURNDATASIZE PUSH1 0x0 DUP1 RETURNDATACOPY RETURNDATASIZE PUSH1 0x0 REVERT JUMPDEST POP POP POP POP PUSH1 0x40 MLOAD RETURNDATASIZE PUSH1 0x1F NOT PUSH1 0x1F DUP3 ADD AND DUP3 ADD DUP1 PUSH1 0x40 MSTORE POP DUP2 ADD SWAP1 PUSH2 0x266A SWAP2 SWAP1 PUSH2 0x2D3F JUMP JUMPDEST DUP2 PUSH1 0x0 DUP2 MLOAD DUP2 LT PUSH2 0x267D JUMPI PUSH2 0x267D PUSH2 0x31AC JUMP JUMPDEST PUSH1 0x20 MUL PUSH1 0x20 ADD ADD SWAP1 PUSH1 0x1 PUSH1 0x1 PUSH1 0xA0 SHL SUB AND SWAP1 DUP2 PUSH1 0x1 PUSH1 0x1 PUSH1 0xA0 SHL SUB AND DUP2 MSTORE POP POP DUP12 DUP2 PUSH1 0x1 DUP2 MLOAD DUP2 LT PUSH2 0x26B1 JUMPI PUSH2 0x26B1 PUSH2 0x31AC JUMP JUMPDEST PUSH1 0x1 PUSH1 0x1 PUSH1 0xA0 SHL SUB SWAP3 DUP4 AND PUSH1 0x20 SWAP2 DUP3 MUL SWAP3 SWAP1 SWAP3 ADD ADD MSTORE PUSH1 0x2 SLOAD PUSH1 0x40 MLOAD PUSH4 0xB6F9DE95 PUSH1 0xE0 SHL DUP2 MSTORE SWAP2 AND SWAP1 PUSH4 0xB6F9DE95 SWAP1 DUP10 SWAP1 PUSH2 0x26F7 SWAP1 PUSH1 0x0 SWAP1 DUP7 SWAP1 CALLER SWAP1 TIMESTAMP SWAP1 PUSH1 0x4 ADD PUSH2 0x2FBB JUMP JUMPDEST PUSH1 0x0 PUSH1 0x40 MLOAD DUP1 DUP4 SUB DUP2 DUP6 DUP9 DUP1 EXTCODESIZE ISZERO DUP1 ISZERO PUSH2 0x2710 JUMPI PUSH1 0x0 DUP1 REVERT JUMPDEST POP GAS CALL ISZERO DUP1 ISZERO PUSH2 0x2724 JUMPI RETURNDATASIZE PUSH1 0x0 DUP1 RETURNDATACOPY RETURNDATASIZE PUSH1 0x0 REVERT JUMPDEST POP POP POP POP POP PUSH1 0x0 DUP13 PUSH1 0x1 PUSH1 0x1 PUSH1 0xA0 SHL SUB AND PUSH4 0x70A08231 CALLER PUSH1 0x40 MLOAD DUP3 PUSH4 0xFFFFFFFF AND PUSH1 0xE0 SHL DUP2 MSTORE PUSH1 0x4 ADD PUSH2 0x2766 SWAP2 SWAP1 PUSH1 0x1 PUSH1 0x1 PUSH1 0xA0 SHL SUB SWAP2 SWAP1 SWAP2 AND DUP2 MSTORE PUSH1 0x20 ADD SWAP1 JUMP JUMPDEST PUSH1 0x20 PUSH1 0x40 MLOAD DUP1 DUP4 SUB DUP2 DUP7 DUP1 EXTCODESIZE ISZERO DUP1 ISZERO PUSH2 0x277E JUMPI PUSH1 0x0 DUP1 REVERT JUMPDEST POP GAS STATICCALL ISZERO DUP1 ISZERO PUSH2 0x2792 JUMPI RETURNDATASIZE PUSH1 0x0 DUP1 RETURNDATACOPY RETURNDATASIZE PUSH1 0x0 REVERT JUMPDEST POP POP POP POP PUSH1 0x40 MLOAD RETURNDATASIZE PUSH1 0x1F NOT PUSH1 0x1F DUP3 ADD AND DUP3 ADD DUP1 PUSH1 0x40 MSTORE POP DUP2 ADD SWAP1 PUSH2 0x27B6 SWAP2 SWAP1 PUSH2 0x2E3F JUMP JUMPDEST SWAP1 POP PUSH2 0x27C2 DUP4 DUP3 PUSH2 0x310D JUMP JUMPDEST SWAP8 POP POP POP POP JUMPDEST PUSH1 0x40 MLOAD DUP1 PUSH1 0xE0 ADD PUSH1 0x40 MSTORE DUP1 TIMESTAMP DUP2 MSTORE PUSH1 0x20 ADD PUSH1 0xF SLOAD DUP2 MSTORE PUSH1 0x20 ADD CALLER PUSH1 0x1 PUSH1 0x1 PUSH1 0xA0 SHL SUB AND DUP2 MSTORE PUSH1 0x20 ADD DUP9 DUP2 MSTORE PUSH1 0x20 ADD DUP8 PUSH1 0x1 PUSH1 0x1 PUSH1 0xA0 SHL SUB AND DUP2 MSTORE PUSH1 0x20 ADD DUP7 DUP2 MSTORE PUSH1 0x20 ADD PUSH1 0xA DUP5 DUP2 SLOAD DUP2 LT PUSH2 0x281E JUMPI PUSH2 0x281E PUSH2 0x31AC JUMP JUMPDEST PUSH1 0x0 SWAP2 DUP3 MSTORE PUSH1 0x20 DUP1 DUP4 KECCAK256 SWAP1 SWAP2 ADD SLOAD SWAP1 SWAP3 MSTORE PUSH1 0xF DUP1 SLOAD DUP3 MSTORE PUSH1 0x16 DUP4 MSTORE PUSH1 0x40 SWAP2 DUP3 SWAP1 KECCAK256 DUP5 MLOAD DUP2 SSTORE SWAP3 DUP5 ADD MLOAD PUSH1 0x1 DUP5 ADD SSTORE SWAP1 DUP4 ADD MLOAD PUSH1 0x2 DUP4 ADD DUP1 SLOAD PUSH1 0x1 PUSH1 0x1 PUSH1 0xA0 SHL SUB SWAP3 DUP4 AND PUSH1 0x1 PUSH1 0x1 PUSH1 0xA0 SHL SUB NOT SWAP2 DUP3 AND OR SWAP1 SWAP2 SSTORE PUSH1 0x60 DUP6 ADD MLOAD PUSH1 0x3 DUP6 ADD SSTORE PUSH1 0x80 DUP6 ADD MLOAD PUSH1 0x4 DUP6 ADD DUP1 SLOAD SWAP2 SWAP1 SWAP4 AND SWAP2 AND OR SWAP1 SSTORE PUSH1 0xA0 DUP4 ADD MLOAD PUSH1 0x5 DUP4 ADD SSTORE PUSH1 0xC0 SWAP1 SWAP3 ADD MLOAD PUSH1 0x6 SWAP1 SWAP2 ADD SSTORE SLOAD PUSH1 0xA DUP1 SLOAD PUSH1 0x0 DUP1 MLOAD PUSH1 0x20 PUSH2 0x31FC DUP4 CODECOPY DUP2 MLOAD SWAP2 MSTORE SWAP3 SWAP2 CALLER SWAP2 DUP12 SWAP2 DUP12 SWAP2 DUP12 SWAP2 SWAP1 DUP10 SWAP1 DUP2 LT PUSH2 0x28D4 JUMPI PUSH2 0x28D4 PUSH2 0x31AC JUMP JUMPDEST SWAP1 PUSH1 0x0 MSTORE PUSH1 0x20 PUSH1 0x0 KECCAK256 ADD SLOAD PUSH1 0x40 MLOAD PUSH2 0x28F1 SWAP7 SWAP6 SWAP5 SWAP4 SWAP3 SWAP2 SWAP1 PUSH2 0x3025 JUMP JUMPDEST PUSH1 0x40 MLOAD DUP1 SWAP2 SUB SWAP1 LOG1 PUSH1 0xF SLOAD CALLER DUP9 DUP9 DUP9 PUSH1 0xA DUP8 DUP2 SLOAD DUP2 LT PUSH2 0x2913 JUMPI PUSH2 0x2913 PUSH2 0x31AC JUMP JUMPDEST SWAP1 PUSH1 0x0 MSTORE PUSH1 0x20 PUSH1 0x0 KECCAK256 ADD SLOAD SWAP9 POP SWAP9 POP SWAP9 POP SWAP9 POP SWAP9 POP SWAP9 POP POP POP POP JUMPDEST SWAP2 SWAP4 SWAP6 POP SWAP2 SWAP4 SWAP6 JUMP JUMPDEST PUSH2 0x293F PUSH2 0x2B77 JUMP JUMPDEST PUSH1 0x1 PUSH1 0x1 PUSH1 0xA0 SHL SUB DUP2 AND PUSH2 0x29A4 JUMPI PUSH1 0x40 MLOAD PUSH3 0x461BCD PUSH1 0xE5 SHL DUP2 MSTORE PUSH1 0x20 PUSH1 0x4 DUP3 ADD MSTORE PUSH1 0x26 PUSH1 0x24 DUP3 ADD MSTORE PUSH32 0x4F776E61626C653A206E6577206F776E657220697320746865207A65726F2061 PUSH1 0x44 DUP3 ADD MSTORE PUSH6 0x646472657373 PUSH1 0xD0 SHL PUSH1 0x64 DUP3 ADD MSTORE PUSH1 0x84 ADD PUSH2 0xAE2 JUMP JUMPDEST PUSH2 0x1070 DUP2 PUSH2 0x2BD1 JUMP JUMPDEST PUSH2 0x29B5 PUSH2 0x2B77 JUMP JUMPDEST PUSH1 0x11 DUP1 SLOAD PUSH1 0x1 PUSH1 0x1 PUSH1 0xA0 SHL SUB NOT AND PUSH1 0x1 PUSH1 0x1 PUSH1 0xA0 SHL SUB DUP4 AND SWAP1 DUP2 OR SWAP1 SWAP2 SSTORE PUSH1 0x40 DUP1 MLOAD PUSH4 0xF6A15D71 PUSH1 0xE0 SHL DUP2 MSTORE SWAP1 MLOAD ADDRESS SWAP2 DUP4 SWAP2 PUSH4 0xF6A15D71 SWAP2 PUSH1 0x4 DUP1 DUP3 ADD SWAP3 PUSH1 0x20 SWAP3 SWAP1 SWAP2 SWAP1 DUP3 SWAP1 SUB ADD DUP2 DUP7 DUP1 EXTCODESIZE ISZERO DUP1 ISZERO PUSH2 0x2A0D JUMPI PUSH1 0x0 DUP1 REVERT JUMPDEST POP GAS STATICCALL ISZERO DUP1 ISZERO PUSH2 0x2A21 JUMPI RETURNDATASIZE PUSH1 0x0 DUP1 RETURNDATACOPY RETURNDATASIZE PUSH1 0x0 REVERT JUMPDEST POP POP POP POP PUSH1 0x40 MLOAD RETURNDATASIZE PUSH1 0x1F NOT PUSH1 0x1F DUP3 ADD AND DUP3 ADD DUP1 PUSH1 0x40 MSTORE POP DUP2 ADD SWAP1 PUSH2 0x2A45 SWAP2 SWAP1 PUSH2 0x2D3F JUMP JUMPDEST PUSH1 0x1 PUSH1 0x1 PUSH1 0xA0 SHL SUB AND EQ PUSH2 0x1C4A JUMPI PUSH1 0x40 MLOAD PUSH3 0x461BCD PUSH1 0xE5 SHL DUP2 MSTORE PUSH1 0x20 PUSH1 0x4 DUP3 ADD MSTORE PUSH1 0x22 PUSH1 0x24 DUP3 ADD MSTORE PUSH32 0x4D757374206265207375624F7020666F7220746865204E465420636F6E747261 PUSH1 0x44 DUP3 ADD MSTORE PUSH2 0x18DD PUSH1 0xF2 SHL PUSH1 0x64 DUP3 ADD MSTORE PUSH1 0x84 ADD PUSH2 0xAE2 JUMP JUMPDEST PUSH1 0x0 DUP1 PUSH1 0x0 PUSH1 0xE SLOAD SELFBALANCE PUSH2 0x2AB9 SWAP2 SWAP1 PUSH2 0x310D JUMP JUMPDEST SWAP1 POP PUSH1 0x0 SWAP3 POP PUSH1 0x0 SWAP2 POP PUSH1 0x0 JUMPDEST PUSH1 0xA SLOAD DUP2 LT ISZERO PUSH2 0x2B57 JUMPI PUSH1 0xD SLOAD PUSH1 0xA DUP3 DUP2 SLOAD DUP2 LT PUSH2 0x2AE6 JUMPI PUSH2 0x2AE6 PUSH2 0x31AC JUMP JUMPDEST SWAP1 PUSH1 0x0 MSTORE PUSH1 0x20 PUSH1 0x0 KECCAK256 ADD SLOAD DUP7 PUSH2 0x2AFC SWAP2 SWAP1 PUSH2 0x30EE JUMP JUMPDEST PUSH2 0x2B06 SWAP2 SWAP1 PUSH2 0x30EE JUMP JUMPDEST DUP3 LT PUSH2 0x2B45 JUMPI PUSH2 0x2B17 PUSH1 0x1 DUP6 PUSH2 0x30C2 JUMP JUMPDEST SWAP4 POP PUSH1 0xB DUP2 DUP2 SLOAD DUP2 LT PUSH2 0x2B2C JUMPI PUSH2 0x2B2C PUSH2 0x31AC JUMP JUMPDEST SWAP1 PUSH1 0x0 MSTORE PUSH1 0x20 PUSH1 0x0 KECCAK256 ADD SLOAD DUP4 PUSH2 0x2B42 SWAP2 SWAP1 PUSH2 0x30C2 JUMP JUMPDEST SWAP3 POP JUMPDEST DUP1 PUSH2 0x2B4F DUP2 PUSH2 0x313B JUMP JUMPDEST SWAP2 POP POP PUSH2 0x2AC6 JUMP JUMPDEST POP POP SWAP2 POP SWAP2 JUMP JUMPDEST CALLVALUE PUSH1 0xE PUSH1 0x0 DUP3 DUP3 SLOAD PUSH2 0x2B70 SWAP2 SWAP1 PUSH2 0x30C2 JUMP JUMPDEST SWAP1 SWAP2 SSTORE POP POP JUMP JUMPDEST PUSH1 0x0 SLOAD PUSH1 0x1 PUSH1 0x1 PUSH1 0xA0 SHL SUB AND CALLER EQ PUSH2 0x15F7 JUMPI PUSH1 0x40 MLOAD PUSH3 0x461BCD PUSH1 0xE5 SHL DUP2 MSTORE PUSH1 0x20 PUSH1 0x4 DUP3 ADD DUP2 SWAP1 MSTORE PUSH1 0x24 DUP3 ADD MSTORE PUSH32 0x4F776E61626C653A2063616C6C6572206973206E6F7420746865206F776E6572 PUSH1 0x44 DUP3 ADD MSTORE PUSH1 0x64 ADD PUSH2 0xAE2 JUMP JUMPDEST PUSH1 0x0 DUP1 SLOAD PUSH1 0x1 PUSH1 0x1 PUSH1 0xA0 SHL SUB DUP4 DUP2 AND PUSH1 0x1 PUSH1 0x1 PUSH1 0xA0 SHL SUB NOT DUP4 AND DUP2 OR DUP5 SSTORE PUSH1 0x40 MLOAD SWAP2 SWAP1 SWAP3 AND SWAP3 DUP4 SWAP2 PUSH32 0x8BE0079C531659141344CD1FD0A4F28419497F9722A3DAAFE3B4186F6B6457E0 SWAP2 SWAP1 LOG3 POP POP JUMP JUMPDEST DUP3 DUP1 SLOAD DUP3 DUP3 SSTORE SWAP1 PUSH1 0x0 MSTORE PUSH1 0x20 PUSH1 0x0 KECCAK256 SWAP1 DUP2 ADD SWAP3 DUP3 ISZERO PUSH2 0x2C5C JUMPI SWAP2 PUSH1 0x20 MUL DUP3 ADD JUMPDEST DUP3 DUP2 GT ISZERO PUSH2 0x2C5C JUMPI DUP3 MLOAD DUP3 SSTORE SWAP2 PUSH1 0x20 ADD SWAP2 SWAP1 PUSH1 0x1 ADD SWAP1 PUSH2 0x2C41 JUMP JUMPDEST POP PUSH2 0x2C68 SWAP3 SWAP2 POP PUSH2 0x2C6C JUMP JUMPDEST POP SWAP1 JUMP JUMPDEST JUMPDEST DUP1 DUP3 GT ISZERO PUSH2 0x2C68 JUMPI PUSH1 0x0 DUP2 SSTORE PUSH1 0x1 ADD PUSH2 0x2C6D JUMP JUMPDEST PUSH1 0x0 DUP3 PUSH1 0x1F DUP4 ADD SLT PUSH2 0x2C92 JUMPI PUSH1 0x0 DUP1 REVERT JUMPDEST DUP2 CALLDATALOAD PUSH1 0x20 PUSH8 0xFFFFFFFFFFFFFFFF DUP1 DUP4 GT ISZERO PUSH2 0x2CAF JUMPI PUSH2 0x2CAF PUSH2 0x31C2 JUMP JUMPDEST DUP3 PUSH1 0x5 SHL PUSH1 0x40 MLOAD PUSH1 0x1F NOT PUSH1 0x3F DUP4 ADD AND DUP2 ADD DUP2 DUP2 LT DUP5 DUP3 GT OR ISZERO PUSH2 0x2CD4 JUMPI PUSH2 0x2CD4 PUSH2 0x31C2 JUMP JUMPDEST PUSH1 0x40 MSTORE DUP5 DUP2 MSTORE DUP4 DUP2 ADD SWAP3 POP DUP7 DUP5 ADD DUP3 DUP9 ADD DUP6 ADD DUP10 LT ISZERO PUSH2 0x2CF3 JUMPI PUSH1 0x0 DUP1 REVERT JUMPDEST PUSH1 0x0 SWAP3 POP JUMPDEST DUP6 DUP4 LT ISZERO PUSH2 0x2D16 JUMPI DUP1 CALLDATALOAD DUP5 MSTORE SWAP3 DUP5 ADD SWAP3 PUSH1 0x1 SWAP3 SWAP1 SWAP3 ADD SWAP2 DUP5 ADD PUSH2 0x2CF8 JUMP JUMPDEST POP SWAP8 SWAP7 POP POP POP POP POP POP POP JUMP JUMPDEST PUSH1 0x0 PUSH1 0x20 DUP3 DUP5 SUB SLT ISZERO PUSH2 0x2D34 JUMPI PUSH1 0x0 DUP1 REVERT JUMPDEST DUP2 CALLDATALOAD PUSH2 0x14AA DUP2 PUSH2 0x31D8 JUMP JUMPDEST PUSH1 0x0 PUSH1 0x20 DUP3 DUP5 SUB SLT ISZERO PUSH2 0x2D51 JUMPI PUSH1 0x0 DUP1 REVERT JUMPDEST DUP2 MLOAD PUSH2 0x14AA DUP2 PUSH2 0x31D8 JUMP JUMPDEST PUSH1 0x0 DUP1 PUSH1 0x40 DUP4 DUP6 SUB SLT ISZERO PUSH2 0x2D6F JUMPI PUSH1 0x0 DUP1 REVERT JUMPDEST DUP3 CALLDATALOAD PUSH2 0x2D7A DUP2 PUSH2 0x31D8 JUMP JUMPDEST SWAP5 PUSH1 0x20 SWAP4 SWAP1 SWAP4 ADD CALLDATALOAD SWAP4 POP POP POP JUMP JUMPDEST PUSH1 0x0 DUP1 PUSH1 0x40 DUP4 DUP6 SUB SLT ISZERO PUSH2 0x2D9B JUMPI PUSH1 0x0 DUP1 REVERT JUMPDEST DUP3 CALLDATALOAD PUSH8 0xFFFFFFFFFFFFFFFF DUP1 DUP3 GT ISZERO PUSH2 0x2DB3 JUMPI PUSH1 0x0 DUP1 REVERT JUMPDEST PUSH2 0x2DBF DUP7 DUP4 DUP8 ADD PUSH2 0x2C81 JUMP JUMPDEST SWAP4 POP PUSH1 0x20 DUP6 ADD CALLDATALOAD SWAP2 POP DUP1 DUP3 GT ISZERO PUSH2 0x2DD5 JUMPI PUSH1 0x0 DUP1 REVERT JUMPDEST POP PUSH2 0x2DE2 DUP6 DUP3 DUP7 ADD PUSH2 0x2C81 JUMP JUMPDEST SWAP2 POP POP SWAP3 POP SWAP3 SWAP1 POP JUMP JUMPDEST PUSH1 0x0 PUSH1 0x20 DUP3 DUP5 SUB SLT ISZERO PUSH2 0x2DFE JUMPI PUSH1 0x0 DUP1 REVERT JUMPDEST DUP2 CALLDATALOAD PUSH2 0x14AA DUP2 PUSH2 0x31ED JUMP JUMPDEST PUSH1 0x0 PUSH1 0x20 DUP3 DUP5 SUB SLT ISZERO PUSH2 0x2E1B JUMPI PUSH1 0x0 DUP1 REVERT JUMPDEST DUP2 MLOAD PUSH2 0x14AA DUP2 PUSH2 0x31ED JUMP JUMPDEST PUSH1 0x0 PUSH1 0x20 DUP3 DUP5 SUB SLT ISZERO PUSH2 0x2E38 JUMPI PUSH1 0x0 DUP1 REVERT JUMPDEST POP CALLDATALOAD SWAP2 SWAP1 POP JUMP JUMPDEST PUSH1 0x0 PUSH1 0x20 DUP3 DUP5 SUB SLT ISZERO PUSH2 0x2E51 JUMPI PUSH1 0x0 DUP1 REVERT JUMPDEST POP MLOAD SWAP2 SWAP1 POP JUMP JUMPDEST PUSH1 0x0 DUP1 PUSH1 0x40 DUP4 DUP6 SUB SLT ISZERO PUSH2 0x2E6B JUMPI PUSH1 0x0 DUP1 REVERT JUMPDEST POP POP DUP1 CALLDATALOAD SWAP3 PUSH1 0x20 SWAP1 SWAP2 ADD CALLDATALOAD SWAP2 POP JUMP JUMPDEST PUSH1 0x0 DUP2 MLOAD DUP1 DUP5 MSTORE PUSH1 0x20 DUP1 DUP6 ADD SWAP5 POP DUP1 DUP5 ADD PUSH1 0x0 JUMPDEST DUP4 DUP2 LT ISZERO PUSH2 0x2EAA JUMPI DUP2 MLOAD DUP8 MSTORE SWAP6 DUP3 ADD SWAP6 SWAP1 DUP3 ADD SWAP1 PUSH1 0x1 ADD PUSH2 0x2E8E JUMP JUMPDEST POP SWAP5 SWAP6 SWAP5 POP POP POP POP POP JUMP JUMPDEST PUSH1 0x20 DUP1 DUP3 MSTORE DUP3 MLOAD DUP3 DUP3 ADD DUP2 SWAP1 MSTORE PUSH1 0x0 SWAP2 SWAP1 PUSH1 0x40 SWAP1 DUP2 DUP6 ADD SWAP1 DUP7 DUP5 ADD DUP6 JUMPDEST DUP3 DUP2 LT ISZERO PUSH2 0x2F2B JUMPI DUP2 MLOAD DUP1 MLOAD DUP6 MSTORE DUP7 DUP2 ADD MLOAD DUP8 DUP7 ADD MSTORE DUP6 DUP2 ADD MLOAD PUSH1 0x1 PUSH1 0x1 PUSH1 0xA0 SHL SUB AND DUP7 DUP7 ADD MSTORE PUSH1 0x60 DUP1 DUP3 ADD MLOAD SWAP1 DUP7 ADD MSTORE PUSH1 0x80 DUP1 DUP3 ADD MLOAD ISZERO ISZERO SWAP1 DUP7 ADD MSTORE PUSH1 0xA0 SWAP1 DUP2 ADD MLOAD SWAP1 DUP6 ADD MSTORE PUSH1 0xC0 SWAP1 SWAP4 ADD SWAP3 SWAP1 DUP6 ADD SWAP1 PUSH1 0x1 ADD PUSH2 0x2ED2 JUMP JUMPDEST POP SWAP2 SWAP8 SWAP7 POP POP POP POP POP POP POP JUMP JUMPDEST PUSH1 0x20 DUP1 DUP3 MSTORE DUP3 MLOAD DUP3 DUP3 ADD DUP2 SWAP1 MSTORE PUSH1 0x0 SWAP2 SWAP1 PUSH1 0x40 SWAP1 DUP2 DUP6 ADD SWAP1 DUP7 DUP5 ADD DUP6 JUMPDEST DUP3 DUP2 LT ISZERO PUSH2 0x2F2B JUMPI DUP2 MLOAD DUP1 MLOAD DUP6 MSTORE DUP7 DUP2 ADD MLOAD DUP8 DUP7 ADD MSTORE DUP6 DUP2 ADD MLOAD PUSH1 0x1 PUSH1 0x1 PUSH1 0xA0 SHL SUB SWAP1 DUP2 AND DUP8 DUP8 ADD MSTORE PUSH1 0x60 DUP1 DUP4 ADD MLOAD SWAP1 DUP8 ADD MSTORE PUSH1 0x80 DUP1 DUP4 ADD MLOAD SWAP1 SWAP2 AND SWAP1 DUP7 ADD MSTORE PUSH1 0xA0 DUP1 DUP3 ADD MLOAD SWAP1 DUP7 ADD MSTORE PUSH1 0xC0 SWAP1 DUP2 ADD MLOAD SWAP1 DUP6 ADD MSTORE PUSH1 0xE0 SWAP1 SWAP4 ADD SWAP3 SWAP1 DUP6 ADD SWAP1 PUSH1 0x1 ADD PUSH2 0x2F55 JUMP JUMPDEST PUSH1 0x0 PUSH1 0x80 DUP3 ADD DUP7 DUP4 MSTORE PUSH1 0x20 PUSH1 0x80 DUP2 DUP6 ADD MSTORE DUP2 DUP8 MLOAD DUP1 DUP5 MSTORE PUSH1 0xA0 DUP7 ADD SWAP2 POP DUP3 DUP10 ADD SWAP4 POP PUSH1 0x0 JUMPDEST DUP2 DUP2 LT ISZERO PUSH2 0x3005 JUMPI DUP5 MLOAD PUSH1 0x1 PUSH1 0x1 PUSH1 0xA0 SHL SUB AND DUP4 MSTORE SWAP4 DUP4 ADD SWAP4 SWAP2 DUP4 ADD SWAP2 PUSH1 0x1 ADD PUSH2 0x2FE0 JUMP JUMPDEST POP POP PUSH1 0x1 PUSH1 0x1 PUSH1 0xA0 SHL SUB SWAP7 SWAP1 SWAP7 AND PUSH1 0x40 DUP6 ADD MSTORE POP POP POP PUSH1 0x60 ADD MSTORE SWAP3 SWAP2 POP POP JUMP JUMPDEST SWAP6 DUP7 MSTORE PUSH1 0x1 PUSH1 0x1 PUSH1 0xA0 SHL SUB SWAP5 DUP6 AND PUSH1 0x20 DUP8 ADD MSTORE PUSH1 0x40 DUP7 ADD SWAP4 SWAP1 SWAP4 MSTORE SWAP3 AND PUSH1 0x60 DUP5 ADD MSTORE PUSH1 0x80 DUP4 ADD SWAP2 SWAP1 SWAP2 MSTORE PUSH1 0xA0 DUP3 ADD MSTORE PUSH1 0xC0 ADD SWAP1 JUMP JUMPDEST PUSH1 0x0 PUSH2 0x140 DUP13 DUP4 MSTORE DUP12 PUSH1 0x20 DUP5 ADD MSTORE DUP11 PUSH1 0x40 DUP5 ADD MSTORE DUP10 PUSH1 0x60 DUP5 ADD MSTORE DUP9 PUSH1 0x80 DUP5 ADD MSTORE DUP1 PUSH1 0xA0 DUP5 ADD MSTORE PUSH2 0x308C DUP2 DUP5 ADD DUP10 PUSH2 0x2E7A JUMP JUMPDEST SWAP1 POP DUP7 PUSH1 0xC0 DUP5 ADD MSTORE DUP3 DUP2 SUB PUSH1 0xE0 DUP5 ADD MSTORE PUSH2 0x30A6 DUP2 DUP8 PUSH2 0x2E7A JUMP JUMPDEST PUSH2 0x100 DUP5 ADD SWAP6 SWAP1 SWAP6 MSTORE POP POP PUSH2 0x120 ADD MSTORE SWAP9 SWAP8 POP POP POP POP POP POP POP POP JUMP JUMPDEST PUSH1 0x0 DUP3 NOT DUP3 GT ISZERO PUSH2 0x30D5 JUMPI PUSH2 0x30D5 PUSH2 0x316A JUMP JUMPDEST POP ADD SWAP1 JUMP JUMPDEST PUSH1 0x0 DUP3 PUSH2 0x30E9 JUMPI PUSH2 0x30E9 PUSH2 0x3180 JUMP JUMPDEST POP DIV SWAP1 JUMP JUMPDEST PUSH1 0x0 DUP2 PUSH1 0x0 NOT DIV DUP4 GT DUP3 ISZERO ISZERO AND ISZERO PUSH2 0x3108 JUMPI PUSH2 0x3108 PUSH2 0x316A JUMP JUMPDEST POP MUL SWAP1 JUMP JUMPDEST PUSH1 0x0 DUP3 DUP3 LT ISZERO PUSH2 0x311F JUMPI PUSH2 0x311F PUSH2 0x316A JUMP JUMPDEST POP SUB SWAP1 JUMP JUMPDEST PUSH1 0x0 DUP2 PUSH2 0x3133 JUMPI PUSH2 0x3133 PUSH2 0x316A JUMP JUMPDEST POP PUSH1 0x0 NOT ADD SWAP1 JUMP JUMPDEST PUSH1 0x0 PUSH1 0x0 NOT DUP3 EQ ISZERO PUSH2 0x314F JUMPI PUSH2 0x314F PUSH2 0x316A JUMP JUMPDEST POP PUSH1 0x1 ADD SWAP1 JUMP JUMPDEST PUSH1 0x0 DUP3 PUSH2 0x3165 JUMPI PUSH2 0x3165 PUSH2 0x3180 JUMP JUMPDEST POP MOD SWAP1 JUMP JUMPDEST PUSH4 0x4E487B71 PUSH1 0xE0 SHL PUSH1 0x0 MSTORE PUSH1 0x11 PUSH1 0x4 MSTORE PUSH1 0x24 PUSH1 0x0 REVERT JUMPDEST PUSH4 0x4E487B71 PUSH1 0xE0 SHL PUSH1 0x0 MSTORE PUSH1 0x12 PUSH1 0x4 MSTORE PUSH1 0x24 PUSH1 0x0 REVERT JUMPDEST PUSH4 0x4E487B71 PUSH1 0xE0 SHL PUSH1 0x0 MSTORE PUSH1 0x31 PUSH1 0x4 MSTORE PUSH1 0x24 PUSH1 0x0 REVERT JUMPDEST PUSH4 0x4E487B71 PUSH1 0xE0 SHL PUSH1 0x0 MSTORE PUSH1 0x32 PUSH1 0x4 MSTORE PUSH1 0x24 PUSH1 0x0 REVERT JUMPDEST PUSH4 0x4E487B71 PUSH1 0xE0 SHL PUSH1 0x0 MSTORE PUSH1 0x41 PUSH1 0x4 MSTORE PUSH1 0x24 PUSH1 0x0 REVERT JUMPDEST PUSH1 0x1 PUSH1 0x1 PUSH1 0xA0 SHL SUB DUP2 AND DUP2 EQ PUSH2 0x1070 JUMPI PUSH1 0x0 DUP1 REVERT JUMPDEST DUP1 ISZERO ISZERO DUP2 EQ PUSH2 0x1070 JUMPI PUSH1 0x0 DUP1 REVERT INVALID 0x28 0x1F CALLDATALOAD 0xB2 ADDMOD 0xC7 MUL 0xE3 ISZERO CREATE2 0xE0 DUP2 0xC0 PUSH18 0xBA0EBB3F2D13B733A13592E3F20CE9D924BA LOG2 PUSH5 0x6970667358 0x22 SLT KECCAK256 0xE2 SWAP10 ORIGIN SWAP4 0xDD BYTE 0x4A 0xC8 0x21 0xD5 0xD9 0x4F 0xA6 0xE2 CREATE2 PUSH28 0xA0FFB686A88DD7D9EA619EDDF975B52964736F6C6343000807003300 "
				},
				"gasEstimates": {
					"creation": {
						"codeDepositCost": "2576200",
						"executionCost": "infinite",
						"totalCost": "infinite"
					},
					"external": {
						"JackPot()": "infinite",
						"addFreePlay(address,uint256)": "73434",
						"addPayToken(address)": "77551",
						"blackList(uint256)": "4736",
						"buyScratcher(address)": "infinite",
						"chancePer()": "2428",
						"changeRNG(address)": "26818",
						"changeRouter(address)": "26885",
						"currentNFT()": "2372",
						"devFee()": "2406",
						"freePlay(address,uint256)": "4828",
						"getMaxWinSize(uint256)": "infinite",
						"howManyFP(address)": "2603",
						"info()": "infinite",
						"injectJackPot()": "24546",
						"isPaused()": "2443",
						"jackPot()": "2451",
						"jackPotChance()": "2451",
						"jackPotCostBNB()": "2385",
						"jackPotFee()": "2340",
						"jackPotHistory(uint256)": "13223",
						"jackPotTicketNumber()": "2450",
						"multiplier(uint256)": "4666",
						"odds(uint256)": "4709",
						"owner()": "2432",
						"pauseGames(bool)": "26799",
						"payTokens(uint256)": "4672",
						"pickTicket(uint256)": "infinite",
						"reducejackPot(uint256)": "infinite",
						"removePayToken(address)": "infinite",
						"renounceOwnership()": "infinite",
						"rng(uint256)": "infinite",
						"safetyMultiplier()": "2406",
						"scratchHistory(uint256)": "15423",
						"setBets(uint256,uint256)": "46736",
						"setDevFee(uint256)": "24579",
						"setJackPotChance(uint256)": "24555",
						"setJackPotFee(uint256)": "24579",
						"setNFT(address)": "infinite",
						"setRNG(address)": "26819",
						"setSafetyMultiplier(uint256)": "24637",
						"setjackpotCost(uint256)": "24600",
						"setupPerThousand(uint256[],uint256[])": "infinite",
						"ticketNumber()": "2362",
						"transferOwnership(address)": "infinite",
						"viewJackPotHistory(uint256)": "infinite",
						"viewScratcherHistory(uint256)": "infinite",
						"withdrawALL_BNB()": "infinite",
						"withdrawBNB(uint256)": "infinite",
						"withdrawlToken(address,uint256)": "infinite"
					}
				},
				"methodIdentifiers": {
					"JackPot()": "0a2282ae",
					"addFreePlay(address,uint256)": "ae0ae8af",
					"addPayToken(address)": "a9cf2ed3",
					"blackList(uint256)": "709ec8b4",
					"buyScratcher(address)": "e45feaa4",
					"chancePer()": "d8f56bb6",
					"changeRNG(address)": "c562a684",
					"changeRouter(address)": "340ac20f",
					"currentNFT()": "35593286",
					"devFee()": "6827e764",
					"freePlay(address,uint256)": "1cc05606",
					"getMaxWinSize(uint256)": "fc96b65e",
					"howManyFP(address)": "4c3abcfc",
					"info()": "370158ea",
					"injectJackPot()": "fde3549d",
					"isPaused()": "b187bd26",
					"jackPot()": "4a78cdba",
					"jackPotChance()": "9980f725",
					"jackPotCostBNB()": "80d97810",
					"jackPotFee()": "b3a42e03",
					"jackPotHistory(uint256)": "9a22e550",
					"jackPotTicketNumber()": "b2a82044",
					"multiplier(uint256)": "05e30f51",
					"odds(uint256)": "46156ea0",
					"owner()": "8da5cb5b",
					"pauseGames(bool)": "4da92800",
					"payTokens(uint256)": "0535020d",
					"pickTicket(uint256)": "0b336a71",
					"reducejackPot(uint256)": "026108da",
					"removePayToken(address)": "dbf14fbe",
					"renounceOwnership()": "715018a6",
					"rng(uint256)": "53f836db",
					"safetyMultiplier()": "d57f1d9b",
					"scratchHistory(uint256)": "4595eb6e",
					"setBets(uint256,uint256)": "0836ec1d",
					"setDevFee(uint256)": "1c75b6b2",
					"setJackPotChance(uint256)": "9a2967f7",
					"setJackPotFee(uint256)": "4a9fdb0f",
					"setNFT(address)": "f56e9c66",
					"setRNG(address)": "3b84edbd",
					"setSafetyMultiplier(uint256)": "e1b8cf82",
					"setjackpotCost(uint256)": "1eaa6a00",
					"setupPerThousand(uint256[],uint256[])": "62102a5f",
					"ticketNumber()": "c54c7da6",
					"transferOwnership(address)": "f2fde38b",
					"viewJackPotHistory(uint256)": "980c1dbb",
					"viewScratcherHistory(uint256)": "db6e2644",
					"withdrawALL_BNB()": "74ca5477",
					"withdrawBNB(uint256)": "127f4b2e",
					"withdrawlToken(address,uint256)": "2c1ef96a"
				}
			},
			"storageLayout": {
				"storage": [
					{
						"astId": 104,
						"contract": "MSWAP/Games/Scratchers.sol:Scratchers",
						"label": "_owner",
						"offset": 0,
						"slot": "0",
						"type": "t_address"
					},
					{
						"astId": 273,
						"contract": "MSWAP/Games/Scratchers.sol:Scratchers",
						"label": "marsFactory",
						"offset": 0,
						"slot": "1",
						"type": "t_address"
					},
					{
						"astId": 276,
						"contract": "MSWAP/Games/Scratchers.sol:Scratchers",
						"label": "router",
						"offset": 0,
						"slot": "2",
						"type": "t_contract(Router)252"
					},
					{
						"astId": 279,
						"contract": "MSWAP/Games/Scratchers.sol:Scratchers",
						"label": "random",
						"offset": 0,
						"slot": "3",
						"type": "t_contract(Random)228"
					},
					{
						"astId": 282,
						"contract": "MSWAP/Games/Scratchers.sol:Scratchers",
						"label": "minBet",
						"offset": 0,
						"slot": "4",
						"type": "t_uint256"
					},
					{
						"astId": 285,
						"contract": "MSWAP/Games/Scratchers.sol:Scratchers",
						"label": "maxBet",
						"offset": 0,
						"slot": "5",
						"type": "t_uint256"
					},
					{
						"astId": 288,
						"contract": "MSWAP/Games/Scratchers.sol:Scratchers",
						"label": "jackPotCostBNB",
						"offset": 0,
						"slot": "6",
						"type": "t_uint256"
					},
					{
						"astId": 291,
						"contract": "MSWAP/Games/Scratchers.sol:Scratchers",
						"label": "devFee",
						"offset": 0,
						"slot": "7",
						"type": "t_uint256"
					},
					{
						"astId": 294,
						"contract": "MSWAP/Games/Scratchers.sol:Scratchers",
						"label": "jackPotFee",
						"offset": 0,
						"slot": "8",
						"type": "t_uint256"
					},
					{
						"astId": 297,
						"contract": "MSWAP/Games/Scratchers.sol:Scratchers",
						"label": "jackPotChance",
						"offset": 0,
						"slot": "9",
						"type": "t_uint256"
					},
					{
						"astId": 312,
						"contract": "MSWAP/Games/Scratchers.sol:Scratchers",
						"label": "multiplier",
						"offset": 0,
						"slot": "10",
						"type": "t_array(t_uint256)dyn_storage"
					},
					{
						"astId": 327,
						"contract": "MSWAP/Games/Scratchers.sol:Scratchers",
						"label": "odds",
						"offset": 0,
						"slot": "11",
						"type": "t_array(t_uint256)dyn_storage"
					},
					{
						"astId": 330,
						"contract": "MSWAP/Games/Scratchers.sol:Scratchers",
						"label": "chancePer",
						"offset": 0,
						"slot": "12",
						"type": "t_uint256"
					},
					{
						"astId": 333,
						"contract": "MSWAP/Games/Scratchers.sol:Scratchers",
						"label": "safetyMultiplier",
						"offset": 0,
						"slot": "13",
						"type": "t_uint256"
					},
					{
						"astId": 336,
						"contract": "MSWAP/Games/Scratchers.sol:Scratchers",
						"label": "jackPot",
						"offset": 0,
						"slot": "14",
						"type": "t_uint256"
					},
					{
						"astId": 339,
						"contract": "MSWAP/Games/Scratchers.sol:Scratchers",
						"label": "ticketNumber",
						"offset": 0,
						"slot": "15",
						"type": "t_uint256"
					},
					{
						"astId": 342,
						"contract": "MSWAP/Games/Scratchers.sol:Scratchers",
						"label": "jackPotTicketNumber",
						"offset": 0,
						"slot": "16",
						"type": "t_uint256"
					},
					{
						"astId": 344,
						"contract": "MSWAP/Games/Scratchers.sol:Scratchers",
						"label": "currentNFT",
						"offset": 0,
						"slot": "17",
						"type": "t_address"
					},
					{
						"astId": 347,
						"contract": "MSWAP/Games/Scratchers.sol:Scratchers",
						"label": "blackList",
						"offset": 0,
						"slot": "18",
						"type": "t_array(t_address)dyn_storage"
					},
					{
						"astId": 773,
						"contract": "MSWAP/Games/Scratchers.sol:Scratchers",
						"label": "payTokens",
						"offset": 0,
						"slot": "19",
						"type": "t_array(t_address)dyn_storage"
					},
					{
						"astId": 777,
						"contract": "MSWAP/Games/Scratchers.sol:Scratchers",
						"label": "isPayToken",
						"offset": 0,
						"slot": "20",
						"type": "t_mapping(t_address,t_bool)"
					},
					{
						"astId": 907,
						"contract": "MSWAP/Games/Scratchers.sol:Scratchers",
						"label": "isPaused",
						"offset": 0,
						"slot": "21",
						"type": "t_bool"
					},
					{
						"astId": 1217,
						"contract": "MSWAP/Games/Scratchers.sol:Scratchers",
						"label": "scratchHistory",
						"offset": 0,
						"slot": "22",
						"type": "t_mapping(t_uint256,t_struct(History)1212_storage)"
					},
					{
						"astId": 1235,
						"contract": "MSWAP/Games/Scratchers.sol:Scratchers",
						"label": "jackPotHistory",
						"offset": 0,
						"slot": "23",
						"type": "t_mapping(t_uint256,t_struct(HistoryJ)1230_storage)"
					},
					{
						"astId": 1240,
						"contract": "MSWAP/Games/Scratchers.sol:Scratchers",
						"label": "freePlay",
						"offset": 0,
						"slot": "24",
						"type": "t_mapping(t_address,t_array(t_uint256)dyn_storage)"
					},
					{
						"astId": 1244,
						"contract": "MSWAP/Games/Scratchers.sol:Scratchers",
						"label": "howManyFP",
						"offset": 0,
						"slot": "25",
						"type": "t_mapping(t_address,t_uint256)"
					}
				],
				"types": {
					"t_address": {
						"encoding": "inplace",
						"label": "address",
						"numberOfBytes": "20"
					},
					"t_array(t_address)dyn_storage": {
						"base": "t_address",
						"encoding": "dynamic_array",
						"label": "address[]",
						"numberOfBytes": "32"
					},
					"t_array(t_uint256)dyn_storage": {
						"base": "t_uint256",
						"encoding": "dynamic_array",
						"label": "uint256[]",
						"numberOfBytes": "32"
					},
					"t_bool": {
						"encoding": "inplace",
						"label": "bool",
						"numberOfBytes": "1"
					},
					"t_contract(Random)228": {
						"encoding": "inplace",
						"label": "contract Random",
						"numberOfBytes": "20"
					},
					"t_contract(Router)252": {
						"encoding": "inplace",
						"label": "contract Router",
						"numberOfBytes": "20"
					},
					"t_mapping(t_address,t_array(t_uint256)dyn_storage)": {
						"encoding": "mapping",
						"key": "t_address",
						"label": "mapping(address => uint256[])",
						"numberOfBytes": "32",
						"value": "t_array(t_uint256)dyn_storage"
					},
					"t_mapping(t_address,t_bool)": {
						"encoding": "mapping",
						"key": "t_address",
						"label": "mapping(address => bool)",
						"numberOfBytes": "32",
						"value": "t_bool"
					},
					"t_mapping(t_address,t_uint256)": {
						"encoding": "mapping",
						"key": "t_address",
						"label": "mapping(address => uint256)",
						"numberOfBytes": "32",
						"value": "t_uint256"
					},
					"t_mapping(t_uint256,t_struct(History)1212_storage)": {
						"encoding": "mapping",
						"key": "t_uint256",
						"label": "mapping(uint256 => struct Scratchers.History)",
						"numberOfBytes": "32",
						"value": "t_struct(History)1212_storage"
					},
					"t_mapping(t_uint256,t_struct(HistoryJ)1230_storage)": {
						"encoding": "mapping",
						"key": "t_uint256",
						"label": "mapping(uint256 => struct Scratchers.HistoryJ)",
						"numberOfBytes": "32",
						"value": "t_struct(HistoryJ)1230_storage"
					},
					"t_struct(History)1212_storage": {
						"encoding": "inplace",
						"label": "struct Scratchers.History",
						"members": [
							{
								"astId": 1199,
								"contract": "MSWAP/Games/Scratchers.sol:Scratchers",
								"label": "time",
								"offset": 0,
								"slot": "0",
								"type": "t_uint256"
							},
							{
								"astId": 1201,
								"contract": "MSWAP/Games/Scratchers.sol:Scratchers",
								"label": "ticket",
								"offset": 0,
								"slot": "1",
								"type": "t_uint256"
							},
							{
								"astId": 1203,
								"contract": "MSWAP/Games/Scratchers.sol:Scratchers",
								"label": "player",
								"offset": 0,
								"slot": "2",
								"type": "t_address"
							},
							{
								"astId": 1205,
								"contract": "MSWAP/Games/Scratchers.sol:Scratchers",
								"label": "addToPot",
								"offset": 0,
								"slot": "3",
								"type": "t_uint256"
							},
							{
								"astId": 1207,
								"contract": "MSWAP/Games/Scratchers.sol:Scratchers",
								"label": "token",
								"offset": 0,
								"slot": "4",
								"type": "t_address"
							},
							{
								"astId": 1209,
								"contract": "MSWAP/Games/Scratchers.sol:Scratchers",
								"label": "amount",
								"offset": 0,
								"slot": "5",
								"type": "t_uint256"
							},
							{
								"astId": 1211,
								"contract": "MSWAP/Games/Scratchers.sol:Scratchers",
								"label": "ticketValue",
								"offset": 0,
								"slot": "6",
								"type": "t_uint256"
							}
						],
						"numberOfBytes": "224"
					},
					"t_struct(HistoryJ)1230_storage": {
						"encoding": "inplace",
						"label": "struct Scratchers.HistoryJ",
						"members": [
							{
								"astId": 1219,
								"contract": "MSWAP/Games/Scratchers.sol:Scratchers",
								"label": "time",
								"offset": 0,
								"slot": "0",
								"type": "t_uint256"
							},
							{
								"astId": 1221,
								"contract": "MSWAP/Games/Scratchers.sol:Scratchers",
								"label": "ticket",
								"offset": 0,
								"slot": "1",
								"type": "t_uint256"
							},
							{
								"astId": 1223,
								"contract": "MSWAP/Games/Scratchers.sol:Scratchers",
								"label": "player",
								"offset": 0,
								"slot": "2",
								"type": "t_address"
							},
							{
								"astId": 1225,
								"contract": "MSWAP/Games/Scratchers.sol:Scratchers",
								"label": "addToPot",
								"offset": 0,
								"slot": "3",
								"type": "t_uint256"
							},
							{
								"astId": 1227,
								"contract": "MSWAP/Games/Scratchers.sol:Scratchers",
								"label": "isWinner",
								"offset": 0,
								"slot": "4",
								"type": "t_bool"
							},
							{
								"astId": 1229,
								"contract": "MSWAP/Games/Scratchers.sol:Scratchers",
								"label": "_amount",
								"offset": 0,
								"slot": "5",
								"type": "t_uint256"
							}
						],
						"numberOfBytes": "192"
					},
					"t_uint256": {
						"encoding": "inplace",
						"label": "uint256",
						"numberOfBytes": "32"
					}
				}
			},
			"userdoc": {
				"kind": "user",
				"methods": {},
				"version": 1
			}
		}
	}
}