{
	"MSWAP/Games/Games1.sol": {
		"FGCasino": {
			"abi": [
				{
					"inputs": [
						{
							"internalType": "address",
							"name": "_gameToken",
							"type": "address"
						},
						{
							"internalType": "address",
							"name": "_tokenTreasury",
							"type": "address"
						},
						{
							"internalType": "address",
							"name": "_marsFactory",
							"type": "address"
						},
						{
							"internalType": "address",
							"name": "_rng",
							"type": "address"
						}
					],
					"stateMutability": "nonpayable",
					"type": "constructor"
				},
				{
					"anonymous": false,
					"inputs": [
						{
							"indexed": false,
							"internalType": "address",
							"name": "player",
							"type": "address"
						},
						{
							"indexed": false,
							"internalType": "uint256[]",
							"name": "playersSuits",
							"type": "uint256[]"
						},
						{
							"indexed": false,
							"internalType": "uint256[]",
							"name": "playersNumbers",
							"type": "uint256[]"
						},
						{
							"indexed": false,
							"internalType": "uint256[]",
							"name": "Dsuit",
							"type": "uint256[]"
						},
						{
							"indexed": false,
							"internalType": "uint256[]",
							"name": "Dnumber",
							"type": "uint256[]"
						},
						{
							"indexed": false,
							"internalType": "uint256",
							"name": "betAmount",
							"type": "uint256"
						},
						{
							"indexed": false,
							"internalType": "uint256",
							"name": "total",
							"type": "uint256"
						},
						{
							"indexed": false,
							"internalType": "uint256",
							"name": "Dtotal",
							"type": "uint256"
						},
						{
							"indexed": false,
							"internalType": "bool",
							"name": "bust",
							"type": "bool"
						},
						{
							"indexed": false,
							"internalType": "bool",
							"name": "isWinner",
							"type": "bool"
						}
					],
					"name": "BlackJackGame",
					"type": "event"
				},
				{
					"anonymous": false,
					"inputs": [
						{
							"indexed": false,
							"internalType": "address",
							"name": "player",
							"type": "address"
						},
						{
							"indexed": false,
							"internalType": "uint256",
							"name": "suit",
							"type": "uint256"
						},
						{
							"indexed": false,
							"internalType": "uint256",
							"name": "number",
							"type": "uint256"
						},
						{
							"indexed": false,
							"internalType": "uint256",
							"name": "bet",
							"type": "uint256"
						}
					],
					"name": "HighCardFirst",
					"type": "event"
				},
				{
					"anonymous": false,
					"inputs": [
						{
							"indexed": false,
							"internalType": "address",
							"name": "player",
							"type": "address"
						},
						{
							"indexed": false,
							"internalType": "uint256",
							"name": "LastCardSuit",
							"type": "uint256"
						},
						{
							"indexed": false,
							"internalType": "uint256",
							"name": "LastCardNumber",
							"type": "uint256"
						},
						{
							"indexed": false,
							"internalType": "uint256",
							"name": "newCardSuit",
							"type": "uint256"
						},
						{
							"indexed": false,
							"internalType": "uint256",
							"name": "newCardNumber",
							"type": "uint256"
						},
						{
							"indexed": false,
							"internalType": "bool",
							"name": "isWinner",
							"type": "bool"
						},
						{
							"indexed": false,
							"internalType": "uint256",
							"name": "winnings",
							"type": "uint256"
						},
						{
							"indexed": false,
							"internalType": "bool",
							"name": "isJackpot",
							"type": "bool"
						},
						{
							"indexed": false,
							"internalType": "uint256",
							"name": "currentBet",
							"type": "uint256"
						}
					],
					"name": "HighCardGuess",
					"type": "event"
				},
				{
					"anonymous": false,
					"inputs": [
						{
							"indexed": false,
							"internalType": "address",
							"name": "player",
							"type": "address"
						},
						{
							"indexed": false,
							"internalType": "uint256",
							"name": "amount",
							"type": "uint256"
						}
					],
					"name": "HighCardTakeMoney",
					"type": "event"
				},
				{
					"anonymous": false,
					"inputs": [
						{
							"indexed": true,
							"internalType": "address",
							"name": "previousOwner",
							"type": "address"
						},
						{
							"indexed": true,
							"internalType": "address",
							"name": "newOwner",
							"type": "address"
						}
					],
					"name": "OwnershipTransferred",
					"type": "event"
				},
				{
					"anonymous": false,
					"inputs": [
						{
							"indexed": false,
							"internalType": "address",
							"name": "player",
							"type": "address"
						},
						{
							"indexed": false,
							"internalType": "uint256",
							"name": "houseCard",
							"type": "uint256"
						},
						{
							"indexed": false,
							"internalType": "uint256",
							"name": "houseSuit",
							"type": "uint256"
						},
						{
							"indexed": false,
							"internalType": "uint256",
							"name": "playerCard",
							"type": "uint256"
						},
						{
							"indexed": false,
							"internalType": "uint256",
							"name": "playerSuit",
							"type": "uint256"
						},
						{
							"indexed": false,
							"internalType": "uint256",
							"name": "result",
							"type": "uint256"
						},
						{
							"indexed": false,
							"internalType": "uint256",
							"name": "amount",
							"type": "uint256"
						}
					],
					"name": "cutTheDeckResults",
					"type": "event"
				},
				{
					"anonymous": false,
					"inputs": [
						{
							"indexed": false,
							"internalType": "address",
							"name": "player",
							"type": "address"
						},
						{
							"indexed": false,
							"internalType": "uint256",
							"name": "houseRoll",
							"type": "uint256"
						},
						{
							"indexed": false,
							"internalType": "uint256",
							"name": "playerChoice",
							"type": "uint256"
						},
						{
							"indexed": false,
							"internalType": "uint256",
							"name": "diceSize",
							"type": "uint256"
						},
						{
							"indexed": false,
							"internalType": "bool",
							"name": "isWinner",
							"type": "bool"
						},
						{
							"indexed": false,
							"internalType": "uint256",
							"name": "amount",
							"type": "uint256"
						}
					],
					"name": "diceCallResults",
					"type": "event"
				},
				{
					"anonymous": false,
					"inputs": [
						{
							"indexed": false,
							"internalType": "address",
							"name": "player",
							"type": "address"
						},
						{
							"indexed": false,
							"internalType": "bool",
							"name": "win",
							"type": "bool"
						},
						{
							"indexed": false,
							"internalType": "uint256",
							"name": "amount",
							"type": "uint256"
						},
						{
							"indexed": false,
							"internalType": "bool",
							"name": "isHeads",
							"type": "bool"
						}
					],
					"name": "results",
					"type": "event"
				},
				{
					"inputs": [],
					"name": "BNBTreasury",
					"outputs": [
						{
							"internalType": "address",
							"name": "",
							"type": "address"
						}
					],
					"stateMutability": "view",
					"type": "function"
				},
				{
					"inputs": [],
					"name": "BNBfee",
					"outputs": [
						{
							"internalType": "uint256",
							"name": "",
							"type": "uint256"
						}
					],
					"stateMutability": "view",
					"type": "function"
				},
				{
					"inputs": [
						{
							"internalType": "uint256",
							"name": "amount",
							"type": "uint256"
						}
					],
					"name": "BetHeads",
					"outputs": [
						{
							"internalType": "bool",
							"name": "isHeads",
							"type": "bool"
						},
						{
							"internalType": "bool",
							"name": "isWinner",
							"type": "bool"
						}
					],
					"stateMutability": "payable",
					"type": "function"
				},
				{
					"inputs": [
						{
							"internalType": "uint256",
							"name": "amount",
							"type": "uint256"
						}
					],
					"name": "BetTails",
					"outputs": [
						{
							"internalType": "bool",
							"name": "isHeads",
							"type": "bool"
						},
						{
							"internalType": "bool",
							"name": "isWinner",
							"type": "bool"
						}
					],
					"stateMutability": "payable",
					"type": "function"
				},
				{
					"inputs": [],
					"name": "FeeDivisor",
					"outputs": [
						{
							"internalType": "uint256",
							"name": "",
							"type": "uint256"
						}
					],
					"stateMutability": "view",
					"type": "function"
				},
				{
					"inputs": [],
					"name": "amountToSendAt",
					"outputs": [
						{
							"internalType": "uint256",
							"name": "",
							"type": "uint256"
						}
					],
					"stateMutability": "view",
					"type": "function"
				},
				{
					"inputs": [],
					"name": "blackJackHitMe",
					"outputs": [],
					"stateMutability": "nonpayable",
					"type": "function"
				},
				{
					"inputs": [],
					"name": "blackJackHold",
					"outputs": [],
					"stateMutability": "nonpayable",
					"type": "function"
				},
				{
					"inputs": [
						{
							"internalType": "address",
							"name": "_user",
							"type": "address"
						}
					],
					"name": "blackJackUser",
					"outputs": [
						{
							"internalType": "uint256[]",
							"name": "_playerSuits",
							"type": "uint256[]"
						},
						{
							"internalType": "uint256[]",
							"name": "_playerNumbers",
							"type": "uint256[]"
						},
						{
							"internalType": "uint256[]",
							"name": "_houseSuits",
							"type": "uint256[]"
						},
						{
							"internalType": "uint256[]",
							"name": "_houseNumbers",
							"type": "uint256[]"
						},
						{
							"internalType": "uint256",
							"name": "_currentBet",
							"type": "uint256"
						},
						{
							"internalType": "uint256",
							"name": "_total",
							"type": "uint256"
						},
						{
							"internalType": "uint256",
							"name": "_Dtotal",
							"type": "uint256"
						},
						{
							"internalType": "bool",
							"name": "_gameStarted",
							"type": "bool"
						}
					],
					"stateMutability": "view",
					"type": "function"
				},
				{
					"inputs": [
						{
							"internalType": "uint256[]",
							"name": "numbers",
							"type": "uint256[]"
						}
					],
					"name": "checkIfBust",
					"outputs": [
						{
							"internalType": "bool",
							"name": "bust",
							"type": "bool"
						},
						{
							"internalType": "uint256",
							"name": "total",
							"type": "uint256"
						}
					],
					"stateMutability": "pure",
					"type": "function"
				},
				{
					"inputs": [
						{
							"internalType": "uint256",
							"name": "_betAmount",
							"type": "uint256"
						}
					],
					"name": "cutTheDeck",
					"outputs": [
						{
							"internalType": "uint256",
							"name": "houseCard",
							"type": "uint256"
						},
						{
							"internalType": "uint256",
							"name": "houseSuit",
							"type": "uint256"
						},
						{
							"internalType": "uint256",
							"name": "playerCard",
							"type": "uint256"
						},
						{
							"internalType": "uint256",
							"name": "playerSuit",
							"type": "uint256"
						},
						{
							"internalType": "uint256",
							"name": "result",
							"type": "uint256"
						}
					],
					"stateMutability": "payable",
					"type": "function"
				},
				{
					"inputs": [],
					"name": "cutTheDeckQuick",
					"outputs": [
						{
							"internalType": "uint256",
							"name": "houseCard",
							"type": "uint256"
						},
						{
							"internalType": "uint256",
							"name": "houseSuit",
							"type": "uint256"
						},
						{
							"internalType": "uint256",
							"name": "playerCard",
							"type": "uint256"
						},
						{
							"internalType": "uint256",
							"name": "playerSuit",
							"type": "uint256"
						},
						{
							"internalType": "uint256",
							"name": "result",
							"type": "uint256"
						}
					],
					"stateMutability": "payable",
					"type": "function"
				},
				{
					"inputs": [
						{
							"internalType": "uint256",
							"name": "_betAmount",
							"type": "uint256"
						},
						{
							"internalType": "uint256",
							"name": "choice",
							"type": "uint256"
						},
						{
							"internalType": "uint256",
							"name": "diceChoice",
							"type": "uint256"
						}
					],
					"name": "diceCall",
					"outputs": [
						{
							"internalType": "uint256",
							"name": "houseRoll",
							"type": "uint256"
						},
						{
							"internalType": "uint256",
							"name": "playerChoice",
							"type": "uint256"
						},
						{
							"internalType": "uint256",
							"name": "diceSize",
							"type": "uint256"
						},
						{
							"internalType": "bool",
							"name": "isWinner",
							"type": "bool"
						}
					],
					"stateMutability": "payable",
					"type": "function"
				},
				{
					"inputs": [],
					"name": "feesCollected",
					"outputs": [
						{
							"internalType": "uint256",
							"name": "",
							"type": "uint256"
						}
					],
					"stateMutability": "view",
					"type": "function"
				},
				{
					"inputs": [],
					"name": "gameToken",
					"outputs": [
						{
							"internalType": "address",
							"name": "",
							"type": "address"
						}
					],
					"stateMutability": "view",
					"type": "function"
				},
				{
					"inputs": [
						{
							"internalType": "address",
							"name": "_user",
							"type": "address"
						}
					],
					"name": "highCard",
					"outputs": [
						{
							"internalType": "uint256",
							"name": "currentCardSuit",
							"type": "uint256"
						},
						{
							"internalType": "uint256",
							"name": "currentCardNumber",
							"type": "uint256"
						},
						{
							"internalType": "uint256",
							"name": "currentBet",
							"type": "uint256"
						},
						{
							"internalType": "uint256",
							"name": "multiplier",
							"type": "uint256"
						},
						{
							"internalType": "uint256",
							"name": "winnings",
							"type": "uint256"
						},
						{
							"internalType": "bool",
							"name": "gameStarted",
							"type": "bool"
						}
					],
					"stateMutability": "view",
					"type": "function"
				},
				{
					"inputs": [
						{
							"internalType": "bool",
							"name": "guessHigh",
							"type": "bool"
						}
					],
					"name": "highCardGuess",
					"outputs": [
						{
							"internalType": "bool",
							"name": "resultHigh",
							"type": "bool"
						},
						{
							"internalType": "uint256",
							"name": "LastCardSuit",
							"type": "uint256"
						},
						{
							"internalType": "uint256",
							"name": "LastCardNumber",
							"type": "uint256"
						},
						{
							"internalType": "uint256",
							"name": "newCardSuit",
							"type": "uint256"
						},
						{
							"internalType": "uint256",
							"name": "newCardNumber",
							"type": "uint256"
						},
						{
							"internalType": "bool",
							"name": "isWinner",
							"type": "bool"
						},
						{
							"internalType": "bool",
							"name": "isJackpot",
							"type": "bool"
						},
						{
							"internalType": "uint256",
							"name": "winnings",
							"type": "uint256"
						}
					],
					"stateMutability": "nonpayable",
					"type": "function"
				},
				{
					"inputs": [],
					"name": "highCardTakeMoney",
					"outputs": [
						{
							"internalType": "uint256",
							"name": "amount",
							"type": "uint256"
						}
					],
					"stateMutability": "nonpayable",
					"type": "function"
				},
				{
					"inputs": [
						{
							"internalType": "address",
							"name": "",
							"type": "address"
						}
					],
					"name": "isGame",
					"outputs": [
						{
							"internalType": "bool",
							"name": "",
							"type": "bool"
						}
					],
					"stateMutability": "view",
					"type": "function"
				},
				{
					"inputs": [],
					"name": "isPaused",
					"outputs": [
						{
							"internalType": "bool",
							"name": "",
							"type": "bool"
						}
					],
					"stateMutability": "view",
					"type": "function"
				},
				{
					"inputs": [],
					"name": "marsFactory",
					"outputs": [
						{
							"internalType": "address",
							"name": "",
							"type": "address"
						}
					],
					"stateMutability": "view",
					"type": "function"
				},
				{
					"inputs": [],
					"name": "maxBetAllowed",
					"outputs": [
						{
							"internalType": "uint256",
							"name": "",
							"type": "uint256"
						}
					],
					"stateMutability": "view",
					"type": "function"
				},
				{
					"inputs": [],
					"name": "maxBetDivisor",
					"outputs": [
						{
							"internalType": "uint256",
							"name": "",
							"type": "uint256"
						}
					],
					"stateMutability": "view",
					"type": "function"
				},
				{
					"inputs": [],
					"name": "multipliers",
					"outputs": [
						{
							"internalType": "uint256",
							"name": "_coinFlipM",
							"type": "uint256"
						},
						{
							"internalType": "uint256",
							"name": "_deckCutM",
							"type": "uint256"
						},
						{
							"internalType": "uint256",
							"name": "_diceCall6M",
							"type": "uint256"
						},
						{
							"internalType": "uint256",
							"name": "_diceCall12M",
							"type": "uint256"
						},
						{
							"internalType": "uint256",
							"name": "_diceCall20M",
							"type": "uint256"
						},
						{
							"internalType": "uint256",
							"name": "_highCardStart",
							"type": "uint256"
						},
						{
							"internalType": "uint256",
							"name": "_blackJackM",
							"type": "uint256"
						}
					],
					"stateMutability": "view",
					"type": "function"
				},
				{
					"inputs": [],
					"name": "owner",
					"outputs": [
						{
							"internalType": "address",
							"name": "",
							"type": "address"
						}
					],
					"stateMutability": "view",
					"type": "function"
				},
				{
					"inputs": [
						{
							"internalType": "bool",
							"name": "_isPaused",
							"type": "bool"
						}
					],
					"name": "pauseGames",
					"outputs": [],
					"stateMutability": "nonpayable",
					"type": "function"
				},
				{
					"inputs": [],
					"name": "payOutDivisor",
					"outputs": [
						{
							"internalType": "uint256",
							"name": "",
							"type": "uint256"
						}
					],
					"stateMutability": "view",
					"type": "function"
				},
				{
					"inputs": [],
					"name": "potAmount",
					"outputs": [
						{
							"internalType": "uint256",
							"name": "",
							"type": "uint256"
						}
					],
					"stateMutability": "view",
					"type": "function"
				},
				{
					"inputs": [],
					"name": "quickBetAmount",
					"outputs": [
						{
							"internalType": "uint256",
							"name": "",
							"type": "uint256"
						}
					],
					"stateMutability": "view",
					"type": "function"
				},
				{
					"inputs": [],
					"name": "quickBetHeads",
					"outputs": [
						{
							"internalType": "bool",
							"name": "isHeads",
							"type": "bool"
						},
						{
							"internalType": "bool",
							"name": "isWinner",
							"type": "bool"
						}
					],
					"stateMutability": "payable",
					"type": "function"
				},
				{
					"inputs": [],
					"name": "quickBetTails",
					"outputs": [
						{
							"internalType": "bool",
							"name": "isHeads",
							"type": "bool"
						},
						{
							"internalType": "bool",
							"name": "isWinner",
							"type": "bool"
						}
					],
					"stateMutability": "payable",
					"type": "function"
				},
				{
					"inputs": [],
					"name": "renounceOwnership",
					"outputs": [],
					"stateMutability": "nonpayable",
					"type": "function"
				},
				{
					"inputs": [
						{
							"internalType": "uint256",
							"name": "mod",
							"type": "uint256"
						}
					],
					"name": "rng",
					"outputs": [
						{
							"internalType": "uint256",
							"name": "value",
							"type": "uint256"
						}
					],
					"stateMutability": "nonpayable",
					"type": "function"
				},
				{
					"inputs": [
						{
							"internalType": "uint256",
							"name": "amount",
							"type": "uint256"
						}
					],
					"name": "sendFeesGame",
					"outputs": [],
					"stateMutability": "nonpayable",
					"type": "function"
				},
				{
					"inputs": [
						{
							"internalType": "uint256",
							"name": "amount",
							"type": "uint256"
						},
						{
							"internalType": "uint256",
							"name": "multiplier",
							"type": "uint256"
						},
						{
							"internalType": "address",
							"name": "_user",
							"type": "address"
						}
					],
					"name": "sendIsWinnerGame",
					"outputs": [
						{
							"internalType": "uint256",
							"name": "payOut",
							"type": "uint256"
						}
					],
					"stateMutability": "nonpayable",
					"type": "function"
				},
				{
					"inputs": [
						{
							"internalType": "uint256",
							"name": "amount",
							"type": "uint256"
						},
						{
							"internalType": "uint256",
							"name": "multiplier",
							"type": "uint256"
						},
						{
							"internalType": "address",
							"name": "_user",
							"type": "address"
						}
					],
					"name": "sendIsWinnerPrePaidGame",
					"outputs": [
						{
							"internalType": "uint256",
							"name": "winnings",
							"type": "uint256"
						}
					],
					"stateMutability": "nonpayable",
					"type": "function"
				},
				{
					"inputs": [
						{
							"internalType": "uint256",
							"name": "amount",
							"type": "uint256"
						}
					],
					"name": "setAmountToSendAt",
					"outputs": [],
					"stateMutability": "nonpayable",
					"type": "function"
				},
				{
					"inputs": [
						{
							"internalType": "uint256",
							"name": "_newCost",
							"type": "uint256"
						}
					],
					"name": "setCostBNB",
					"outputs": [],
					"stateMutability": "nonpayable",
					"type": "function"
				},
				{
					"inputs": [
						{
							"internalType": "uint256",
							"name": "newDivisor",
							"type": "uint256"
						}
					],
					"name": "setFeeDivisor",
					"outputs": [],
					"stateMutability": "nonpayable",
					"type": "function"
				},
				{
					"inputs": [
						{
							"internalType": "uint256",
							"name": "_coinFlipM",
							"type": "uint256"
						},
						{
							"internalType": "uint256",
							"name": "_deckCutM",
							"type": "uint256"
						},
						{
							"internalType": "uint256",
							"name": "_diceCall6M",
							"type": "uint256"
						},
						{
							"internalType": "uint256",
							"name": "_diceCall12M",
							"type": "uint256"
						},
						{
							"internalType": "uint256",
							"name": "_diceCall20M",
							"type": "uint256"
						},
						{
							"internalType": "uint256",
							"name": "_highCardStart",
							"type": "uint256"
						},
						{
							"internalType": "uint256",
							"name": "_blackJackM",
							"type": "uint256"
						}
					],
					"name": "setGameMultipliers",
					"outputs": [],
					"stateMutability": "nonpayable",
					"type": "function"
				},
				{
					"inputs": [
						{
							"internalType": "address",
							"name": "_token",
							"type": "address"
						}
					],
					"name": "setGameToken",
					"outputs": [],
					"stateMutability": "nonpayable",
					"type": "function"
				},
				{
					"inputs": [
						{
							"internalType": "uint256",
							"name": "amount",
							"type": "uint256"
						}
					],
					"name": "setMaxBetDivisor",
					"outputs": [],
					"stateMutability": "nonpayable",
					"type": "function"
				},
				{
					"inputs": [
						{
							"internalType": "address",
							"name": "newGame",
							"type": "address"
						},
						{
							"internalType": "bool",
							"name": "isActive",
							"type": "bool"
						}
					],
					"name": "setNewGame",
					"outputs": [],
					"stateMutability": "nonpayable",
					"type": "function"
				},
				{
					"inputs": [
						{
							"internalType": "uint256",
							"name": "newPayOutDivisor",
							"type": "uint256"
						}
					],
					"name": "setPayOutDivisor",
					"outputs": [],
					"stateMutability": "nonpayable",
					"type": "function"
				},
				{
					"inputs": [
						{
							"internalType": "uint256",
							"name": "amount",
							"type": "uint256"
						}
					],
					"name": "setQuickBetAmount",
					"outputs": [],
					"stateMutability": "nonpayable",
					"type": "function"
				},
				{
					"inputs": [
						{
							"internalType": "address",
							"name": "newRNG",
							"type": "address"
						}
					],
					"name": "setRNG",
					"outputs": [],
					"stateMutability": "nonpayable",
					"type": "function"
				},
				{
					"inputs": [
						{
							"internalType": "address",
							"name": "newTokenTreasury",
							"type": "address"
						}
					],
					"name": "setTokenTreasury",
					"outputs": [],
					"stateMutability": "nonpayable",
					"type": "function"
				},
				{
					"inputs": [
						{
							"internalType": "uint256",
							"name": "_betAmount",
							"type": "uint256"
						}
					],
					"name": "startBlackJack",
					"outputs": [],
					"stateMutability": "payable",
					"type": "function"
				},
				{
					"inputs": [
						{
							"internalType": "uint256",
							"name": "_betAmount",
							"type": "uint256"
						}
					],
					"name": "startHighCard",
					"outputs": [
						{
							"internalType": "uint256",
							"name": "currentCardSuit",
							"type": "uint256"
						},
						{
							"internalType": "uint256",
							"name": "currentCardNumber",
							"type": "uint256"
						}
					],
					"stateMutability": "payable",
					"type": "function"
				},
				{
					"inputs": [],
					"name": "stateCallMain",
					"outputs": [
						{
							"internalType": "uint256",
							"name": "_maxBetAllowed",
							"type": "uint256"
						},
						{
							"internalType": "uint256",
							"name": "_quickBetAmount",
							"type": "uint256"
						},
						{
							"internalType": "uint256",
							"name": "_payOutDivisor",
							"type": "uint256"
						},
						{
							"internalType": "uint256",
							"name": "_potAmount",
							"type": "uint256"
						},
						{
							"internalType": "uint256",
							"name": "_bnbFee",
							"type": "uint256"
						}
					],
					"stateMutability": "view",
					"type": "function"
				},
				{
					"inputs": [],
					"name": "tokenTreasury",
					"outputs": [
						{
							"internalType": "address",
							"name": "",
							"type": "address"
						}
					],
					"stateMutability": "view",
					"type": "function"
				},
				{
					"inputs": [
						{
							"internalType": "address",
							"name": "newOwner",
							"type": "address"
						}
					],
					"name": "transferOwnership",
					"outputs": [],
					"stateMutability": "nonpayable",
					"type": "function"
				},
				{
					"inputs": [],
					"name": "withdrawBNB",
					"outputs": [],
					"stateMutability": "nonpayable",
					"type": "function"
				},
				{
					"inputs": [],
					"name": "withdrawlAllGameToken",
					"outputs": [],
					"stateMutability": "nonpayable",
					"type": "function"
				},
				{
					"inputs": [
						{
							"internalType": "address",
							"name": "_tokenAddress",
							"type": "address"
						},
						{
							"internalType": "uint256",
							"name": "_amount",
							"type": "uint256"
						}
					],
					"name": "withdrawlToken",
					"outputs": [],
					"stateMutability": "nonpayable",
					"type": "function"
				},
				{
					"stateMutability": "payable",
					"type": "receive"
				}
			],
			"devdoc": {
				"kind": "dev",
				"methods": {
					"owner()": {
						"details": "Returns the address of the current owner."
					},
					"renounceOwnership()": {
						"details": "Leaves the contract without owner. It will not be possible to call `onlyOwner` functions anymore. Can only be called by the current owner. NOTE: Renouncing ownership will leave the contract without an owner, thereby removing any functionality that is only available to the owner."
					},
					"transferOwnership(address)": {
						"details": "Transfers ownership of the contract to a new account (`newOwner`). Can only be called by the current owner."
					}
				},
				"version": 1
			},
			"evm": {
				"assembly": "    /* \"MSWAP/Games/Games1.sol\":6700:29832  contract FGCasino is Ownable {\r... */\n  mstore(0x40, 0x80)\n    /* \"MSWAP/Games/Games1.sol\":6828:6846  100000000000000000 */\n  0x016345785d8a0000\n    /* \"MSWAP/Games/Games1.sol\":6804:6846  uint256 public BNBfee = 100000000000000000 */\n  0x03\n  sstore\n    /* \"MSWAP/Games/Games1.sol\":6976:6977  0 */\n  0x00\n    /* \"MSWAP/Games/Games1.sol\":6945:6977  uint256 public feesCollected = 0 */\n  0x06\n  sstore\n    /* \"MSWAP/Games/Games1.sol\":7016:7035  1000000000000000000 */\n  0x0de0b6b3a7640000\n    /* \"MSWAP/Games/Games1.sol\":6984:7035  uint256 public quickBetAmount = 1000000000000000000 */\n  0x07\n  sstore\n    /* \"MSWAP/Games/Games1.sol\":7076:7078  10 */\n  0x0a\n    /* \"MSWAP/Games/Games1.sol\":7048:7078  uint256 public FeeDivisor = 10 */\n  0x08\n  dup2\n  swap1\n  sstore\n    /* \"MSWAP/Games/Games1.sol\":7116:7119  110 */\n  0x6e\n    /* \"MSWAP/Games/Games1.sol\":7085:7119  uint256 public payOutDivisor = 110 */\n  0x09\n  sstore\n    /* \"MSWAP/Games/Games1.sol\":7157:7159  20 */\n  0x14\n    /* \"MSWAP/Games/Games1.sol\":7126:7159  uint256 public maxBetDivisor = 20 */\n  swap1\n  dup2\n  swap1\n  sstore\n    /* \"MSWAP/Games/Games1.sol\":8226:8229  100 */\n  0x64\n    /* \"MSWAP/Games/Games1.sol\":8206:8229  uint256 coinFlipM = 100 */\n  0x0c\n  dup2\n  swap1\n  sstore\n    /* \"MSWAP/Games/Games1.sol\":8236:8258  uint256 deckCutM = 100 */\n  0x0d\n  dup2\n  swap1\n  sstore\n    /* \"MSWAP/Games/Games1.sol\":8265:8289  uint256 diceCall6M = 100 */\n  0x0e\n  dup2\n  swap1\n  sstore\n    /* \"MSWAP/Games/Games1.sol\":8318:8321  150 */\n  0x96\n    /* \"MSWAP/Games/Games1.sol\":8296:8321  uint256 diceCall12M = 150 */\n  0x0f\n  sstore\n    /* \"MSWAP/Games/Games1.sol\":8350:8353  200 */\n  0xc8\n    /* \"MSWAP/Games/Games1.sol\":8328:8353  uint256 diceCall20M = 200 */\n  0x10\n  sstore\n    /* \"MSWAP/Games/Games1.sol\":8384:8386  50 */\n  0x32\n    /* \"MSWAP/Games/Games1.sol\":8360:8386  uint256 highCardStart = 50 */\n  0x11\n  sstore\n    /* \"MSWAP/Games/Games1.sol\":8393:8417  uint256 blackJackM = 100 */\n  0x12\n  sstore\n    /* \"MSWAP/Games/Games1.sol\":10006:10034  bool public isPaused = false */\n  dup1\n  sload\n  not(0xff)\n  and\n  swap1\n  sstore\n    /* \"MSWAP/Games/Games1.sol\":7190:7482  constructor (address _gameToken, address _tokenTreasury, address _marsFactory, address _rng) {\r... */\n  callvalue\n  dup1\n  iszero\n  tag_1\n  jumpi\n  0x00\n  dup1\n  revert\ntag_1:\n  pop\n  mload(0x40)\n  sub(codesize, bytecodeSize)\n  dup1\n  bytecodeSize\n  dup4\n  codecopy\n  dup2\n  add\n  0x40\n  dup2\n  swap1\n  mstore\n  tag_2\n  swap2\n  tag_3\n  jump\t// in\ntag_2:\n    /* \"MSWAP/Games/Games1.sol\":4712:4744  _transferOwnership(_msgSender()) */\n  tag_7\n    /* \"MSWAP/Games/Games1.sol\":3622:3632  msg.sender */\n  caller\n    /* \"MSWAP/Games/Games1.sol\":4712:4730  _transferOwnership */\n  tag_10\n    /* \"MSWAP/Games/Games1.sol\":4712:4744  _transferOwnership(_msgSender()) */\n  jump\t// in\ntag_7:\n    /* \"MSWAP/Games/Games1.sol\":7294:7303  gameToken */\n  0x01\n    /* \"MSWAP/Games/Games1.sol\":7294:7316  gameToken = _gameToken */\n  dup1\n  sload\n  sub(shl(0xa0, 0x01), 0x01)\n  dup1\n  dup8\n  and\n  not(sub(shl(0xa0, 0x01), 0x01))\n  swap3\n  dup4\n  and\n  or\n  swap1\n  swap3\n  sstore\n    /* \"MSWAP/Games/Games1.sol\":7327:7340  tokenTreasury */\n  0x02\n    /* \"MSWAP/Games/Games1.sol\":7327:7357  tokenTreasury = _tokenTreasury */\n  dup1\n  sload\n  swap3\n  dup7\n  and\n  swap3\n  swap1\n  swap2\n  and\n  swap2\n  swap1\n  swap2\n  or\n  swap1\n  sstore\n    /* \"MSWAP/Games/Games1.sol\":7385:7399  quickBetAmount */\n  sload(0x07)\n    /* \"MSWAP/Games/Games1.sol\":7385:7404  quickBetAmount * 25 */\n  tag_12\n  swap1\n    /* \"MSWAP/Games/Games1.sol\":7402:7404  25 */\n  0x19\n    /* \"MSWAP/Games/Games1.sol\":7385:7404  quickBetAmount * 25 */\n  tag_13\n  jump\t// in\ntag_12:\n    /* \"MSWAP/Games/Games1.sol\":7368:7382  amountToSendAt */\n  0x05\n    /* \"MSWAP/Games/Games1.sol\":7368:7404  amountToSendAt = quickBetAmount * 25 */\n  sstore\n    /* \"MSWAP/Games/Games1.sol\":7415:7426  marsFactory */\n  0x04\n    /* \"MSWAP/Games/Games1.sol\":7415:7441  marsFactory = _marsFactory */\n  dup1\n  sload\n  sub(shl(0xa0, 0x01), 0x01)\n  swap4\n  dup5\n  and\n  not(sub(shl(0xa0, 0x01), 0x01))\n  swap2\n  dup3\n  and\n  or\n  swap1\n  swap2\n  sstore\n    /* \"MSWAP/Games/Games1.sol\":7453:7459  random */\n  0x0b\n    /* \"MSWAP/Games/Games1.sol\":7453:7474  random = Random(_rng) */\n  dup1\n  sload\n  swap3\n  swap1\n  swap4\n  and\n  swap2\n  and\n  or\n  swap1\n  sstore\n  pop\n    /* \"MSWAP/Games/Games1.sol\":6700:29832  contract FGCasino is Ownable {\r... */\n  tag_17\n  swap1\n  pop\n  jump\n    /* \"MSWAP/Games/Games1.sol\":6258:6449  function _transferOwnership(address newOwner) internal virtual {\r... */\ntag_10:\n    /* \"MSWAP/Games/Games1.sol\":6332:6348  address oldOwner */\n  0x00\n    /* \"MSWAP/Games/Games1.sol\":6351:6357  _owner */\n  dup1\n  sload\n  sub(shl(0xa0, 0x01), 0x01)\n    /* \"MSWAP/Games/Games1.sol\":6368:6385  _owner = newOwner */\n  dup4\n  dup2\n  and\n  not(sub(shl(0xa0, 0x01), 0x01))\n  dup4\n  and\n  dup2\n  or\n  dup5\n  sstore\n    /* \"MSWAP/Games/Games1.sol\":6401:6441  OwnershipTransferred(oldOwner, newOwner) */\n  mload(0x40)\n    /* \"MSWAP/Games/Games1.sol\":6351:6357  _owner */\n  swap2\n  swap1\n  swap3\n  and\n  swap3\n  dup4\n  swap2\n    /* \"MSWAP/Games/Games1.sol\":6401:6441  OwnershipTransferred(oldOwner, newOwner) */\n  0x8be0079c531659141344cd1fd0a4f28419497f9722a3daafe3b4186f6b6457e0\n  swap2\n    /* \"MSWAP/Games/Games1.sol\":6332:6348  address oldOwner */\n  swap1\n    /* \"MSWAP/Games/Games1.sol\":6401:6441  OwnershipTransferred(oldOwner, newOwner) */\n  log3\n    /* \"MSWAP/Games/Games1.sol\":6321:6449  {\r... */\n  pop\n    /* \"MSWAP/Games/Games1.sol\":6258:6449  function _transferOwnership(address newOwner) internal virtual {\r... */\n  pop\n  jump\t// out\n    /* \"#utility.yul\":14:191   */\ntag_18:\n    /* \"#utility.yul\":93:106   */\n  dup1\n  mload\n  sub(shl(0xa0, 0x01), 0x01)\n    /* \"#utility.yul\":135:166   */\n  dup2\n  and\n    /* \"#utility.yul\":125:167   */\n  dup2\n  eq\n    /* \"#utility.yul\":115:185   */\n  tag_20\n  jumpi\n    /* \"#utility.yul\":181:182   */\n  0x00\n    /* \"#utility.yul\":178:179   */\n  dup1\n    /* \"#utility.yul\":171:183   */\n  revert\n    /* \"#utility.yul\":115:185   */\ntag_20:\n    /* \"#utility.yul\":14:191   */\n  swap2\n  swap1\n  pop\n  jump\t// out\n    /* \"#utility.yul\":196:660   */\ntag_3:\n    /* \"#utility.yul\":293:299   */\n  0x00\n    /* \"#utility.yul\":301:307   */\n  dup1\n    /* \"#utility.yul\":309:315   */\n  0x00\n    /* \"#utility.yul\":317:323   */\n  dup1\n    /* \"#utility.yul\":370:373   */\n  0x80\n    /* \"#utility.yul\":358:367   */\n  dup6\n    /* \"#utility.yul\":349:356   */\n  dup8\n    /* \"#utility.yul\":345:368   */\n  sub\n    /* \"#utility.yul\":341:374   */\n  slt\n    /* \"#utility.yul\":338:391   */\n  iszero\n  tag_22\n  jumpi\n    /* \"#utility.yul\":387:388   */\n  0x00\n    /* \"#utility.yul\":384:385   */\n  dup1\n    /* \"#utility.yul\":377:389   */\n  revert\n    /* \"#utility.yul\":338:391   */\ntag_22:\n    /* \"#utility.yul\":410:450   */\n  tag_23\n    /* \"#utility.yul\":440:449   */\n  dup6\n    /* \"#utility.yul\":410:450   */\n  tag_18\n  jump\t// in\ntag_23:\n    /* \"#utility.yul\":400:450   */\n  swap4\n  pop\n    /* \"#utility.yul\":469:518   */\n  tag_24\n    /* \"#utility.yul\":514:516   */\n  0x20\n    /* \"#utility.yul\":503:512   */\n  dup7\n    /* \"#utility.yul\":499:517   */\n  add\n    /* \"#utility.yul\":469:518   */\n  tag_18\n  jump\t// in\ntag_24:\n    /* \"#utility.yul\":459:518   */\n  swap3\n  pop\n    /* \"#utility.yul\":537:586   */\n  tag_25\n    /* \"#utility.yul\":582:584   */\n  0x40\n    /* \"#utility.yul\":571:580   */\n  dup7\n    /* \"#utility.yul\":567:585   */\n  add\n    /* \"#utility.yul\":537:586   */\n  tag_18\n  jump\t// in\ntag_25:\n    /* \"#utility.yul\":527:586   */\n  swap2\n  pop\n    /* \"#utility.yul\":605:654   */\n  tag_26\n    /* \"#utility.yul\":650:652   */\n  0x60\n    /* \"#utility.yul\":639:648   */\n  dup7\n    /* \"#utility.yul\":635:653   */\n  add\n    /* \"#utility.yul\":605:654   */\n  tag_18\n  jump\t// in\ntag_26:\n    /* \"#utility.yul\":595:654   */\n  swap1\n  pop\n    /* \"#utility.yul\":196:660   */\n  swap3\n  swap6\n  swap2\n  swap5\n  pop\n  swap3\n  pop\n  jump\t// out\n    /* \"#utility.yul\":665:930   */\ntag_13:\n    /* \"#utility.yul\":705:712   */\n  0x00\n    /* \"#utility.yul\":771:772   */\n  dup2\n    /* \"#utility.yul\":767:768   */\n  0x00\n    /* \"#utility.yul\":763:769   */\n  not\n    /* \"#utility.yul\":759:773   */\n  div\n    /* \"#utility.yul\":756:757   */\n  dup4\n    /* \"#utility.yul\":753:774   */\n  gt\n    /* \"#utility.yul\":748:749   */\n  dup3\n    /* \"#utility.yul\":741:750   */\n  iszero\n    /* \"#utility.yul\":734:751   */\n  iszero\n    /* \"#utility.yul\":730:775   */\n  and\n    /* \"#utility.yul\":727:895   */\n  iszero\n  tag_28\n  jumpi\n    /* \"#utility.yul\":817:827   */\n  0x4e487b71\n    /* \"#utility.yul\":812:815   */\n  0xe0\n    /* \"#utility.yul\":808:828   */\n  shl\n    /* \"#utility.yul\":805:806   */\n  0x00\n    /* \"#utility.yul\":798:829   */\n  mstore\n    /* \"#utility.yul\":852:856   */\n  0x11\n    /* \"#utility.yul\":849:850   */\n  0x04\n    /* \"#utility.yul\":842:857   */\n  mstore\n    /* \"#utility.yul\":880:884   */\n  0x24\n    /* \"#utility.yul\":877:878   */\n  0x00\n    /* \"#utility.yul\":870:885   */\n  revert\n    /* \"#utility.yul\":727:895   */\ntag_28:\n  pop\n    /* \"#utility.yul\":915:924   */\n  mul\n  swap1\n    /* \"#utility.yul\":665:930   */\n  jump\t// out\ntag_17:\n    /* \"MSWAP/Games/Games1.sol\":6700:29832  contract FGCasino is Ownable {\r... */\n  dataSize(sub_0)\n  dup1\n  dataOffset(sub_0)\n  0x00\n  codecopy\n  0x00\n  return\nstop\n\nsub_0: assembly {\n        /* \"MSWAP/Games/Games1.sol\":6700:29832  contract FGCasino is Ownable {\r... */\n      mstore(0x40, 0x80)\n      jumpi(tag_1, lt(calldatasize, 0x04))\n      shr(0xe0, calldataload(0x00))\n      dup1\n      0x832ef347\n      gt\n      tag_58\n      jumpi\n      dup1\n      0xce9fa82d\n      gt\n      tag_59\n      jumpi\n      dup1\n      0xf2fde38b\n      gt\n      tag_60\n      jumpi\n      dup1\n      0xf6e674ef\n      gt\n      tag_61\n      jumpi\n      dup1\n      0xf6e674ef\n      eq\n      tag_54\n      jumpi\n      dup1\n      0xf9e154ee\n      eq\n      tag_55\n      jumpi\n      dup1\n      0xfa68708a\n      eq\n      tag_56\n      jumpi\n      dup1\n      0xfc95e4ab\n      eq\n      tag_57\n      jumpi\n      0x00\n      dup1\n      revert\n    tag_61:\n      dup1\n      0xf2fde38b\n      eq\n      tag_51\n      jumpi\n      dup1\n      0xf4a63bd8\n      eq\n      tag_52\n      jumpi\n      dup1\n      0xf5d7bd7f\n      eq\n      tag_53\n      jumpi\n      0x00\n      dup1\n      revert\n    tag_60:\n      dup1\n      0xe62fefc4\n      gt\n      tag_62\n      jumpi\n      dup1\n      0xe62fefc4\n      eq\n      tag_47\n      jumpi\n      dup1\n      0xe8f7d35d\n      eq\n      tag_48\n      jumpi\n      dup1\n      0xf071db5a\n      eq\n      tag_49\n      jumpi\n      dup1\n      0xf0900ca4\n      eq\n      tag_50\n      jumpi\n      0x00\n      dup1\n      revert\n    tag_62:\n      dup1\n      0xce9fa82d\n      eq\n      tag_44\n      jumpi\n      dup1\n      0xd24b22e1\n      eq\n      tag_45\n      jumpi\n      dup1\n      0xd8f23f2e\n      eq\n      tag_46\n      jumpi\n      0x00\n      dup1\n      revert\n    tag_59:\n      dup1\n      0xb69473b3\n      gt\n      tag_63\n      jumpi\n      dup1\n      0xc626c52e\n      gt\n      tag_64\n      jumpi\n      dup1\n      0xc626c52e\n      eq\n      tag_40\n      jumpi\n      dup1\n      0xc8b54a4e\n      eq\n      tag_41\n      jumpi\n      dup1\n      0xc9b1c1fa\n      eq\n      tag_42\n      jumpi\n      dup1\n      0xce5d4c5e\n      eq\n      tag_43\n      jumpi\n      0x00\n      dup1\n      revert\n    tag_64:\n      dup1\n      0xb69473b3\n      eq\n      tag_37\n      jumpi\n      dup1\n      0xb7189dda\n      eq\n      tag_38\n      jumpi\n      dup1\n      0xc3dfdae6\n      eq\n      tag_39\n      jumpi\n      0x00\n      dup1\n      revert\n    tag_63:\n      dup1\n      0x97e4b05e\n      gt\n      tag_65\n      jumpi\n      dup1\n      0x97e4b05e\n      eq\n      tag_33\n      jumpi\n      dup1\n      0x9d7d6667\n      eq\n      tag_34\n      jumpi\n      dup1\n      0x9fb4620d\n      eq\n      tag_35\n      jumpi\n      dup1\n      0xb187bd26\n      eq\n      tag_36\n      jumpi\n      0x00\n      dup1\n      revert\n    tag_65:\n      dup1\n      0x832ef347\n      eq\n      tag_30\n      jumpi\n      dup1\n      0x8c5afb5a\n      eq\n      tag_31\n      jumpi\n      dup1\n      0x8da5cb5b\n      eq\n      tag_32\n      jumpi\n      0x00\n      dup1\n      revert\n    tag_58:\n      dup1\n      0x41b0c25b\n      gt\n      tag_66\n      jumpi\n      dup1\n      0x715018a6\n      gt\n      tag_67\n      jumpi\n      dup1\n      0x7c54d20c\n      gt\n      tag_68\n      jumpi\n      dup1\n      0x7c54d20c\n      eq\n      tag_26\n      jumpi\n      dup1\n      0x7df48f2c\n      eq\n      tag_27\n      jumpi\n      dup1\n      0x80d29e66\n      eq\n      tag_28\n      jumpi\n      dup1\n      0x820b581a\n      eq\n      tag_29\n      jumpi\n      0x00\n      dup1\n      revert\n    tag_68:\n      dup1\n      0x715018a6\n      eq\n      tag_23\n      jumpi\n      dup1\n      0x768367c4\n      eq\n      tag_24\n      jumpi\n      dup1\n      0x7a1d2db5\n      eq\n      tag_25\n      jumpi\n      0x00\n      dup1\n      revert\n    tag_67:\n      dup1\n      0x4da92800\n      gt\n      tag_69\n      jumpi\n      dup1\n      0x4da92800\n      eq\n      tag_19\n      jumpi\n      dup1\n      0x53f836db\n      eq\n      tag_20\n      jumpi\n      dup1\n      0x5a77800c\n      eq\n      tag_21\n      jumpi\n      dup1\n      0x5eaaa90c\n      eq\n      tag_22\n      jumpi\n      0x00\n      dup1\n      revert\n    tag_69:\n      dup1\n      0x41b0c25b\n      eq\n      tag_16\n      jumpi\n      dup1\n      0x42ff8e44\n      eq\n      tag_17\n      jumpi\n      dup1\n      0x4628df65\n      eq\n      tag_18\n      jumpi\n      0x00\n      dup1\n      revert\n    tag_66:\n      dup1\n      0x2c1ef96a\n      gt\n      tag_70\n      jumpi\n      dup1\n      0x39849771\n      gt\n      tag_71\n      jumpi\n      dup1\n      0x39849771\n      eq\n      tag_12\n      jumpi\n      dup1\n      0x3b84edbd\n      eq\n      tag_13\n      jumpi\n      dup1\n      0x3b8d3c56\n      eq\n      tag_14\n      jumpi\n      dup1\n      0x3e625844\n      eq\n      tag_15\n      jumpi\n      0x00\n      dup1\n      revert\n    tag_71:\n      dup1\n      0x2c1ef96a\n      eq\n      tag_9\n      jumpi\n      dup1\n      0x31094301\n      eq\n      tag_10\n      jumpi\n      dup1\n      0x342eb7cc\n      eq\n      tag_11\n      jumpi\n      0x00\n      dup1\n      revert\n    tag_70:\n      dup1\n      0x043531b1\n      eq\n      tag_3\n      jumpi\n      dup1\n      0x187e6f89\n      eq\n      tag_4\n      jumpi\n      dup1\n      0x1d111d13\n      eq\n      tag_5\n      jumpi\n      dup1\n      0x21154ec5\n      eq\n      tag_6\n      jumpi\n      dup1\n      0x283dd0cb\n      eq\n      tag_7\n      jumpi\n      dup1\n      0x29ceb418\n      eq\n      tag_8\n      jumpi\n      0x00\n      dup1\n      revert\n    tag_1:\n      jumpi(tag_2, calldatasize)\n      stop\n    tag_2:\n      0x00\n      dup1\n      revert\n        /* \"MSWAP/Games/Games1.sol\":10699:10870  function setFeeDivisor(uint256 newDivisor) external onlyOwner {\r... */\n    tag_3:\n      callvalue\n      dup1\n      iszero\n      tag_74\n      jumpi\n      0x00\n      dup1\n      revert\n    tag_74:\n      pop\n      tag_75\n      tag_76\n      calldatasize\n      0x04\n      tag_77\n      jump\t// in\n    tag_76:\n      tag_78\n      jump\t// in\n    tag_75:\n      stop\n        /* \"MSWAP/Games/Games1.sol\":6909:6938  uint256 public amountToSendAt */\n    tag_4:\n      callvalue\n      dup1\n      iszero\n      tag_79\n      jumpi\n      0x00\n      dup1\n      revert\n    tag_79:\n      pop\n      tag_80\n      sload(0x05)\n      dup2\n      jump\n    tag_80:\n      mload(0x40)\n        /* \"#utility.yul\":19310:19335   */\n      swap1\n      dup2\n      mstore\n        /* \"#utility.yul\":19298:19300   */\n      0x20\n        /* \"#utility.yul\":19283:19301   */\n      add\n        /* \"MSWAP/Games/Games1.sol\":6909:6938  uint256 public amountToSendAt */\n    tag_82:\n      mload(0x40)\n      dup1\n      swap2\n      sub\n      swap1\n      return\n        /* \"MSWAP/Games/Games1.sol\":14286:14397  function withdrawBNB() external onlyOwner {\r... */\n    tag_5:\n      callvalue\n      dup1\n      iszero\n      tag_84\n      jumpi\n      0x00\n      dup1\n      revert\n    tag_84:\n      pop\n      tag_75\n      tag_86\n      jump\t// in\n        /* \"MSWAP/Games/Games1.sol\":10354:10456  function setMaxBetDivisor(uint256 amount) external onlyOwner {\r... */\n    tag_6:\n      callvalue\n      dup1\n      iszero\n      tag_87\n      jumpi\n      0x00\n      dup1\n      revert\n    tag_87:\n      pop\n      tag_75\n      tag_89\n      calldatasize\n      0x04\n      tag_77\n      jump\t// in\n    tag_89:\n      tag_90\n      jump\t// in\n        /* \"MSWAP/Games/Games1.sol\":20505:21341  function startHighCard(uint256 _betAmount) public payable pausable  returns (uint256 currentCardSuit, uint256 currentCardNumber) {\r... */\n    tag_7:\n      tag_91\n      tag_92\n      calldatasize\n      0x04\n      tag_77\n      jump\t// in\n    tag_92:\n      tag_93\n      jump\t// in\n    tag_91:\n      0x40\n      dup1\n      mload\n        /* \"#utility.yul\":19520:19545   */\n      swap3\n      dup4\n      mstore\n        /* \"#utility.yul\":19576:19578   */\n      0x20\n        /* \"#utility.yul\":19561:19579   */\n      dup4\n      add\n        /* \"#utility.yul\":19554:19588   */\n      swap2\n      swap1\n      swap2\n      mstore\n        /* \"#utility.yul\":19493:19511   */\n      add\n        /* \"MSWAP/Games/Games1.sol\":20505:21341  function startHighCard(uint256 _betAmount) public payable pausable  returns (uint256 currentCardSuit, uint256 currentCardNumber) {\r... */\n      tag_82\n        /* \"#utility.yul\":19346:19594   */\n      jump\n        /* \"MSWAP/Games/Games1.sol\":10242:10346  function setAmountToSendAt(uint256 amount) external onlyOwner {\r... */\n    tag_8:\n      callvalue\n      dup1\n      iszero\n      tag_96\n      jumpi\n      0x00\n      dup1\n      revert\n    tag_96:\n      pop\n      tag_75\n      tag_98\n      calldatasize\n      0x04\n      tag_77\n      jump\t// in\n    tag_98:\n      tag_99\n      jump\t// in\n        /* \"MSWAP/Games/Games1.sol\":14631:14811  function withdrawlToken(address _tokenAddress, uint256 _amount) external onlyOwner {\r... */\n    tag_9:\n      callvalue\n      dup1\n      iszero\n      tag_100\n      jumpi\n      0x00\n      dup1\n      revert\n    tag_100:\n      pop\n      tag_75\n      tag_102\n      calldatasize\n      0x04\n      tag_103\n      jump\t// in\n    tag_102:\n      tag_104\n      jump\t// in\n        /* \"MSWAP/Games/Games1.sol\":6853:6879  address public marsFactory */\n    tag_10:\n      callvalue\n      dup1\n      iszero\n      tag_105\n      jumpi\n      0x00\n      dup1\n      revert\n    tag_105:\n      pop\n      sload(0x04)\n      tag_106\n      swap1\n      sub(shl(0xa0, 0x01), 0x01)\n      and\n      dup2\n      jump\n    tag_106:\n      mload(0x40)\n      sub(shl(0xa0, 0x01), 0x01)\n        /* \"#utility.yul\":5801:5833   */\n      swap1\n      swap2\n      and\n        /* \"#utility.yul\":5783:5834   */\n      dup2\n      mstore\n        /* \"#utility.yul\":5771:5773   */\n      0x20\n        /* \"#utility.yul\":5756:5774   */\n      add\n        /* \"MSWAP/Games/Games1.sol\":6853:6879  address public marsFactory */\n      tag_82\n        /* \"#utility.yul\":5637:5840   */\n      jump\n        /* \"MSWAP/Games/Games1.sol\":6769:6797  address public tokenTreasury */\n    tag_11:\n      callvalue\n      dup1\n      iszero\n      tag_110\n      jumpi\n      0x00\n      dup1\n      revert\n    tag_110:\n      pop\n      sload(0x02)\n      tag_106\n      swap1\n      sub(shl(0xa0, 0x01), 0x01)\n      and\n      dup2\n      jump\n        /* \"MSWAP/Games/Games1.sol\":7126:7159  uint256 public maxBetDivisor = 20 */\n    tag_12:\n      callvalue\n      dup1\n      iszero\n      tag_114\n      jumpi\n      0x00\n      dup1\n      revert\n    tag_114:\n      pop\n      tag_80\n      sload(0x0a)\n      dup2\n      jump\n        /* \"MSWAP/Games/Games1.sol\":7490:7583  function setRNG(address newRNG) external onlyOwner {\r... */\n    tag_13:\n      callvalue\n      dup1\n      iszero\n      tag_118\n      jumpi\n      0x00\n      dup1\n      revert\n    tag_118:\n      pop\n      tag_75\n      tag_120\n      calldatasize\n      0x04\n      tag_121\n      jump\t// in\n    tag_120:\n      tag_122\n      jump\t// in\n        /* \"MSWAP/Games/Games1.sol\":7591:7682  function setCostBNB(uint256 _newCost) public onlyOwner {\r... */\n    tag_14:\n      callvalue\n      dup1\n      iszero\n      tag_123\n      jumpi\n      0x00\n      dup1\n      revert\n    tag_123:\n      pop\n      tag_75\n      tag_125\n      calldatasize\n      0x04\n      tag_77\n      jump\t// in\n    tag_125:\n      tag_126\n      jump\t// in\n        /* \"MSWAP/Games/Games1.sol\":23851:24924  function blackJackUser(address _user) external view returns (\r... */\n    tag_15:\n      callvalue\n      dup1\n      iszero\n      tag_127\n      jumpi\n      0x00\n      dup1\n      revert\n    tag_127:\n      pop\n      tag_128\n      tag_129\n      calldatasize\n      0x04\n      tag_121\n      jump\t// in\n    tag_129:\n      tag_130\n      jump\t// in\n    tag_128:\n      mload(0x40)\n      tag_82\n      swap9\n      swap8\n      swap7\n      swap6\n      swap5\n      swap4\n      swap3\n      swap2\n      swap1\n      tag_132\n      jump\t// in\n        /* \"MSWAP/Games/Games1.sol\":7690:7803  function BNBTreasury() external view returns (address) {\r... */\n    tag_16:\n      callvalue\n      dup1\n      iszero\n      tag_133\n      jumpi\n      0x00\n      dup1\n      revert\n    tag_133:\n      pop\n      tag_106\n      tag_135\n      jump\t// in\n        /* \"MSWAP/Games/Games1.sol\":15027:15191  function BetHeads(uint256 amount) external payable pausable  returns (bool isHeads, bool isWinner){\r... */\n    tag_17:\n      tag_137\n      tag_138\n      calldatasize\n      0x04\n      tag_77\n      jump\t// in\n    tag_138:\n      tag_139\n      jump\t// in\n    tag_137:\n      0x40\n      dup1\n      mload\n        /* \"#utility.yul\":12668:12682   */\n      swap3\n      iszero\n        /* \"#utility.yul\":12661:12683   */\n      iszero\n        /* \"#utility.yul\":12643:12684   */\n      dup4\n      mstore\n        /* \"#utility.yul\":12727:12741   */\n      swap1\n      iszero\n        /* \"#utility.yul\":12720:12742   */\n      iszero\n        /* \"#utility.yul\":12715:12717   */\n      0x20\n        /* \"#utility.yul\":12700:12718   */\n      dup4\n      add\n        /* \"#utility.yul\":12693:12743   */\n      mstore\n        /* \"#utility.yul\":12616:12634   */\n      add\n        /* \"MSWAP/Games/Games1.sol\":15027:15191  function BetHeads(uint256 amount) external payable pausable  returns (bool isHeads, bool isWinner){\r... */\n      tag_82\n        /* \"#utility.yul\":12481:12749   */\n      jump\n        /* \"MSWAP/Games/Games1.sol\":11147:11282  function potAmount() public view returns (uint256) {\r... */\n    tag_18:\n      callvalue\n      dup1\n      iszero\n      tag_142\n      jumpi\n      0x00\n      dup1\n      revert\n    tag_142:\n      pop\n      tag_80\n      tag_144\n      jump\t// in\n        /* \"MSWAP/Games/Games1.sol\":10136:10230  function pauseGames(bool _isPaused) external onlyOwner {\r... */\n    tag_19:\n      callvalue\n      dup1\n      iszero\n      tag_146\n      jumpi\n      0x00\n      dup1\n      revert\n    tag_146:\n      pop\n      tag_75\n      tag_148\n      calldatasize\n      0x04\n      tag_149\n      jump\t// in\n    tag_148:\n      tag_150\n      jump\t// in\n        /* \"MSWAP/Games/Games1.sol\":11425:11606  function rng(uint256 mod) public returns(uint256 value) {\r... */\n    tag_20:\n      callvalue\n      dup1\n      iszero\n      tag_151\n      jumpi\n      0x00\n      dup1\n      revert\n    tag_151:\n      pop\n      tag_80\n      tag_153\n      calldatasize\n      0x04\n      tag_77\n      jump\t// in\n    tag_153:\n      tag_154\n      jump\t// in\n        /* \"MSWAP/Games/Games1.sol\":19652:20145  function highCard(address _user) external view returns(\r... */\n    tag_21:\n      callvalue\n      dup1\n      iszero\n      tag_156\n      jumpi\n      0x00\n      dup1\n      revert\n    tag_156:\n      pop\n      tag_157\n      tag_158\n      calldatasize\n      0x04\n      tag_121\n      jump\t// in\n    tag_158:\n      sub(shl(0xa0, 0x01), 0x01)\n        /* \"MSWAP/Games/Games1.sol\":19923:19942  usersRoundHC[_user] */\n      and\n        /* \"MSWAP/Games/Games1.sol\":19717:19740  uint256 currentCardSuit */\n      0x00\n        /* \"MSWAP/Games/Games1.sol\":19923:19942  usersRoundHC[_user] */\n      swap1\n      dup2\n      mstore\n        /* \"MSWAP/Games/Games1.sol\":19923:19935  usersRoundHC */\n      0x17\n        /* \"MSWAP/Games/Games1.sol\":19923:19942  usersRoundHC[_user] */\n      0x20\n      swap1\n      dup2\n      mstore\n      0x40\n      dup1\n      dup4\n      keccak256\n      sload\n        /* \"MSWAP/Games/Games1.sol\":19977:19992  highCardByRound */\n      0x18\n        /* \"MSWAP/Games/Games1.sol\":19977:19999  highCardByRound[_user] */\n      dup4\n      mstore\n      dup2\n      dup5\n      keccak256\n        /* \"MSWAP/Games/Games1.sol\":19977:20006  highCardByRound[_user][round] */\n      swap1\n      dup5\n      mstore\n      swap1\n      swap2\n      mstore\n      swap1\n      keccak256\n        /* \"MSWAP/Games/Games1.sol\":20025:20045  user.currentCardSuit */\n      dup1\n      sload\n        /* \"MSWAP/Games/Games1.sol\":20047:20069  user.currentCardNumber */\n      0x01\n      dup3\n      add\n      sload\n        /* \"MSWAP/Games/Games1.sol\":20071:20086  user.currentBet */\n      0x02\n      dup4\n      add\n      sload\n        /* \"MSWAP/Games/Games1.sol\":20088:20103  user.multiplier */\n      0x03\n      dup5\n      add\n      sload\n        /* \"MSWAP/Games/Games1.sol\":20105:20118  user.winnings */\n      0x04\n      dup6\n      add\n      sload\n        /* \"MSWAP/Games/Games1.sol\":20120:20136  user.gameStarted */\n      0x05\n      swap1\n      swap6\n      add\n      sload\n        /* \"MSWAP/Games/Games1.sol\":20025:20045  user.currentCardSuit */\n      swap4\n      swap6\n        /* \"MSWAP/Games/Games1.sol\":20047:20069  user.currentCardNumber */\n      swap3\n      swap5\n        /* \"MSWAP/Games/Games1.sol\":20071:20086  user.currentBet */\n      swap2\n      swap4\n        /* \"MSWAP/Games/Games1.sol\":20088:20103  user.multiplier */\n      swap1\n      swap3\n        /* \"MSWAP/Games/Games1.sol\":20120:20136  user.gameStarted */\n      0xff\n      swap1\n      swap2\n      and\n      swap1\n        /* \"MSWAP/Games/Games1.sol\":19652:20145  function highCard(address _user) external view returns(\r... */\n      jump\n    tag_157:\n      0x40\n      dup1\n      mload\n        /* \"#utility.yul\":20754:20779   */\n      swap7\n      dup8\n      mstore\n        /* \"#utility.yul\":20810:20812   */\n      0x20\n        /* \"#utility.yul\":20795:20813   */\n      dup8\n      add\n        /* \"#utility.yul\":20788:20822   */\n      swap6\n      swap1\n      swap6\n      mstore\n        /* \"#utility.yul\":20838:20856   */\n      swap4\n      dup6\n      add\n        /* \"#utility.yul\":20831:20865   */\n      swap3\n      swap1\n      swap3\n      mstore\n        /* \"#utility.yul\":20896:20898   */\n      0x60\n        /* \"#utility.yul\":20881:20899   */\n      dup5\n      add\n        /* \"#utility.yul\":20874:20908   */\n      mstore\n        /* \"#utility.yul\":20939:20942   */\n      0x80\n        /* \"#utility.yul\":20924:20943   */\n      dup4\n      add\n        /* \"#utility.yul\":20917:20952   */\n      mstore\n        /* \"#utility.yul\":20996:21010   */\n      iszero\n        /* \"#utility.yul\":20989:21011   */\n      iszero\n        /* \"#utility.yul\":20983:20986   */\n      0xa0\n        /* \"#utility.yul\":20968:20987   */\n      dup3\n      add\n        /* \"#utility.yul\":20961:21012   */\n      mstore\n        /* \"#utility.yul\":20741:20744   */\n      0xc0\n        /* \"#utility.yul\":20726:20745   */\n      add\n        /* \"MSWAP/Games/Games1.sol\":19652:20145  function highCard(address _user) external view returns(\r... */\n      tag_82\n        /* \"#utility.yul\":20473:21018   */\n      jump\n        /* \"MSWAP/Games/Games1.sol\":28710:29829  function blackJackHold() external pausable  {\r... */\n    tag_22:\n      callvalue\n      dup1\n      iszero\n      tag_162\n      jumpi\n      0x00\n      dup1\n      revert\n    tag_162:\n      pop\n      tag_75\n      tag_164\n      jump\t// in\n        /* \"MSWAP/Games/Games1.sol\":5639:5742  function renounceOwnership() public virtual onlyOwner {\r... */\n    tag_23:\n      callvalue\n      dup1\n      iszero\n      tag_165\n      jumpi\n      0x00\n      dup1\n      revert\n    tag_165:\n      pop\n      tag_75\n      tag_167\n      jump\t// in\n        /* \"MSWAP/Games/Games1.sol\":8428:8717  function stateCallMain() external view returns (\r... */\n    tag_24:\n      callvalue\n      dup1\n      iszero\n      tag_168\n      jumpi\n      0x00\n      dup1\n      revert\n    tag_168:\n      pop\n      tag_169\n      tag_170\n      jump\t// in\n    tag_169:\n      0x40\n      dup1\n      mload\n        /* \"#utility.yul\":20264:20289   */\n      swap6\n      dup7\n      mstore\n        /* \"#utility.yul\":20320:20322   */\n      0x20\n        /* \"#utility.yul\":20305:20323   */\n      dup7\n      add\n        /* \"#utility.yul\":20298:20332   */\n      swap5\n      swap1\n      swap5\n      mstore\n        /* \"#utility.yul\":20348:20366   */\n      swap3\n      dup5\n      add\n        /* \"#utility.yul\":20341:20375   */\n      swap2\n      swap1\n      swap2\n      mstore\n        /* \"#utility.yul\":20406:20408   */\n      0x60\n        /* \"#utility.yul\":20391:20409   */\n      dup4\n      add\n        /* \"#utility.yul\":20384:20418   */\n      mstore\n        /* \"#utility.yul\":20449:20452   */\n      0x80\n        /* \"#utility.yul\":20434:20453   */\n      dup3\n      add\n        /* \"#utility.yul\":20427:20462   */\n      mstore\n        /* \"#utility.yul\":20251:20254   */\n      0xa0\n        /* \"#utility.yul\":20236:20255   */\n      add\n        /* \"MSWAP/Games/Games1.sol\":8428:8717  function stateCallMain() external view returns (\r... */\n      tag_82\n        /* \"#utility.yul\":20005:20468   */\n      jump\n        /* \"MSWAP/Games/Games1.sol\":11853:12101  function sendIsWinnerGame(uint256 amount, uint256 multiplier, address _user) public onlyGames returns (uint256 payOut) {\r... */\n    tag_25:\n      callvalue\n      dup1\n      iszero\n      tag_173\n      jumpi\n      0x00\n      dup1\n      revert\n    tag_173:\n      pop\n      tag_80\n      tag_175\n      calldatasize\n      0x04\n      tag_176\n      jump\t// in\n    tag_175:\n      tag_177\n      jump\t// in\n        /* \"MSWAP/Games/Games1.sol\":6984:7035  uint256 public quickBetAmount = 1000000000000000000 */\n    tag_26:\n      callvalue\n      dup1\n      iszero\n      tag_179\n      jumpi\n      0x00\n      dup1\n      revert\n    tag_179:\n      pop\n      tag_80\n      sload(0x07)\n      dup2\n      jump\n        /* \"MSWAP/Games/Games1.sol\":16718:16973  function cutTheDeckQuick() external payable pausable returns (uint256 houseCard, uint256 houseSuit, uint256 playerCard, uint256 playerSuit, uint256 result) {\r... */\n    tag_27:\n      tag_169\n      tag_184\n      jump\t// in\n        /* \"MSWAP/Games/Games1.sol\":9111:9205  function setGameToken(address _token) external onlyOwner {\r... */\n    tag_28:\n      callvalue\n      dup1\n      iszero\n      tag_186\n      jumpi\n      0x00\n      dup1\n      revert\n    tag_186:\n      pop\n      tag_75\n      tag_188\n      calldatasize\n      0x04\n      tag_121\n      jump\t// in\n    tag_188:\n      tag_189\n      jump\t// in\n        /* \"MSWAP/Games/Games1.sol\":7048:7078  uint256 public FeeDivisor = 10 */\n    tag_29:\n      callvalue\n      dup1\n      iszero\n      tag_190\n      jumpi\n      0x00\n      dup1\n      revert\n    tag_190:\n      pop\n      tag_80\n      sload(0x08)\n      dup2\n      jump\n        /* \"MSWAP/Games/Games1.sol\":7085:7119  uint256 public payOutDivisor = 110 */\n    tag_30:\n      callvalue\n      dup1\n      iszero\n      tag_194\n      jumpi\n      0x00\n      dup1\n      revert\n    tag_194:\n      pop\n      tag_80\n      sload(0x09)\n      dup2\n      jump\n        /* \"MSWAP/Games/Games1.sol\":25543:26603  function checkIfBust(uint256[] memory numbers) public pure returns (bool bust, uint256 total) {\r... */\n    tag_31:\n      callvalue\n      dup1\n      iszero\n      tag_198\n      jumpi\n      0x00\n      dup1\n      revert\n    tag_198:\n      pop\n      tag_199\n      tag_200\n      calldatasize\n      0x04\n      tag_201\n      jump\t// in\n    tag_200:\n      tag_202\n      jump\t// in\n    tag_199:\n      0x40\n      dup1\n      mload\n        /* \"#utility.yul\":12947:12961   */\n      swap3\n      iszero\n        /* \"#utility.yul\":12940:12962   */\n      iszero\n        /* \"#utility.yul\":12922:12963   */\n      dup4\n      mstore\n        /* \"#utility.yul\":12994:12996   */\n      0x20\n        /* \"#utility.yul\":12979:12997   */\n      dup4\n      add\n        /* \"#utility.yul\":12972:13006   */\n      swap2\n      swap1\n      swap2\n      mstore\n        /* \"#utility.yul\":12895:12913   */\n      add\n        /* \"MSWAP/Games/Games1.sol\":25543:26603  function checkIfBust(uint256[] memory numbers) public pure returns (bool bust, uint256 total) {\r... */\n      tag_82\n        /* \"#utility.yul\":12754:13012   */\n      jump\n        /* \"MSWAP/Games/Games1.sol\":4991:5078  function owner() public view virtual returns (address) {\r... */\n    tag_32:\n      callvalue\n      dup1\n      iszero\n      tag_205\n      jumpi\n      0x00\n      dup1\n      revert\n    tag_205:\n      pop\n        /* \"MSWAP/Games/Games1.sol\":5037:5044  address */\n      0x00\n        /* \"MSWAP/Games/Games1.sol\":5064:5070  _owner */\n      sload\n      sub(shl(0xa0, 0x01), 0x01)\n      and\n        /* \"MSWAP/Games/Games1.sol\":4991:5078  function owner() public view virtual returns (address) {\r... */\n      jump(tag_106)\n        /* \"MSWAP/Games/Games1.sol\":9213:9686  function setGameMultipliers(\r... */\n    tag_33:\n      callvalue\n      dup1\n      iszero\n      tag_209\n      jumpi\n      0x00\n      dup1\n      revert\n    tag_209:\n      pop\n      tag_75\n      tag_211\n      calldatasize\n      0x04\n      tag_212\n      jump\t// in\n    tag_211:\n      tag_213\n      jump\t// in\n        /* \"MSWAP/Games/Games1.sol\":8725:9103  function multipliers() external view returns (\r... */\n    tag_34:\n      callvalue\n      dup1\n      iszero\n      tag_214\n      jumpi\n      0x00\n      dup1\n      revert\n    tag_214:\n      pop\n        /* \"MSWAP/Games/Games1.sol\":9009:9018  coinFlipM */\n      sload(0x0c)\n        /* \"MSWAP/Games/Games1.sol\":9020:9028  deckCutM */\n      sload(0x0d)\n        /* \"MSWAP/Games/Games1.sol\":9030:9040  diceCall6M */\n      sload(0x0e)\n        /* \"MSWAP/Games/Games1.sol\":9042:9053  diceCall12M */\n      sload(0x0f)\n        /* \"MSWAP/Games/Games1.sol\":9055:9066  diceCall20M */\n      sload(0x10)\n        /* \"MSWAP/Games/Games1.sol\":9068:9081  highCardStart */\n      sload(0x11)\n        /* \"MSWAP/Games/Games1.sol\":9083:9093  blackJackM */\n      sload(0x12)\n        /* \"MSWAP/Games/Games1.sol\":8725:9103  function multipliers() external view returns (\r... */\n      0x40\n      dup1\n      mload\n        /* \"#utility.yul\":21338:21363   */\n      swap8\n      dup9\n      mstore\n        /* \"#utility.yul\":21394:21396   */\n      0x20\n        /* \"#utility.yul\":21379:21397   */\n      dup9\n      add\n        /* \"#utility.yul\":21372:21406   */\n      swap7\n      swap1\n      swap7\n      mstore\n        /* \"#utility.yul\":21422:21440   */\n      swap5\n      dup7\n      add\n        /* \"#utility.yul\":21415:21449   */\n      swap4\n      swap1\n      swap4\n      mstore\n        /* \"#utility.yul\":21480:21482   */\n      0x60\n        /* \"#utility.yul\":21465:21483   */\n      dup6\n      add\n        /* \"#utility.yul\":21458:21492   */\n      swap2\n      swap1\n      swap2\n      mstore\n        /* \"#utility.yul\":21523:21526   */\n      0x80\n        /* \"#utility.yul\":21508:21527   */\n      dup5\n      add\n        /* \"#utility.yul\":21501:21536   */\n      mstore\n        /* \"#utility.yul\":21567:21570   */\n      0xa0\n        /* \"#utility.yul\":21552:21571   */\n      dup4\n      add\n        /* \"#utility.yul\":21545:21580   */\n      mstore\n        /* \"#utility.yul\":21611:21614   */\n      0xc0\n        /* \"#utility.yul\":21596:21615   */\n      dup3\n      add\n        /* \"#utility.yul\":21589:21624   */\n      mstore\n        /* \"#utility.yul\":21325:21328   */\n      0xe0\n        /* \"#utility.yul\":21310:21329   */\n      add\n        /* \"MSWAP/Games/Games1.sol\":8725:9103  function multipliers() external view returns (\r... */\n      tag_82\n        /* \"#utility.yul\":21023:21630   */\n      jump\n        /* \"MSWAP/Games/Games1.sol\":13241:13579  function sendFeesGame(uint256 amount) public onlyGames {\r... */\n    tag_35:\n      callvalue\n      dup1\n      iszero\n      tag_219\n      jumpi\n      0x00\n      dup1\n      revert\n    tag_219:\n      pop\n      tag_75\n      tag_221\n      calldatasize\n      0x04\n      tag_77\n      jump\t// in\n    tag_221:\n      tag_222\n      jump\t// in\n        /* \"MSWAP/Games/Games1.sol\":10006:10034  bool public isPaused = false */\n    tag_36:\n      callvalue\n      dup1\n      iszero\n      tag_223\n      jumpi\n      0x00\n      dup1\n      revert\n    tag_223:\n      pop\n      sload(0x14)\n      tag_224\n      swap1\n      0xff\n      and\n      dup2\n      jump\n    tag_224:\n      mload(0x40)\n        /* \"#utility.yul\":12454:12468   */\n      swap1\n      iszero\n        /* \"#utility.yul\":12447:12469   */\n      iszero\n        /* \"#utility.yul\":12429:12470   */\n      dup2\n      mstore\n        /* \"#utility.yul\":12417:12419   */\n      0x20\n        /* \"#utility.yul\":12402:12420   */\n      add\n        /* \"MSWAP/Games/Games1.sol\":10006:10034  bool public isPaused = false */\n      tag_82\n        /* \"#utility.yul\":12289:12476   */\n      jump\n        /* \"MSWAP/Games/Games1.sol\":15199:15362  function quickBetTails() external payable pausable returns (bool isHeads, bool isWinner){\r... */\n    tag_37:\n      tag_137\n      tag_229\n      jump\t// in\n        /* \"MSWAP/Games/Games1.sol\":10990:11111  function setTokenTreasury(address newTokenTreasury) external onlyOwner{\r... */\n    tag_38:\n      callvalue\n      dup1\n      iszero\n      tag_231\n      jumpi\n      0x00\n      dup1\n      revert\n    tag_231:\n      pop\n      tag_75\n      tag_233\n      calldatasize\n      0x04\n      tag_121\n      jump\t// in\n    tag_233:\n      tag_234\n      jump\t// in\n        /* \"MSWAP/Games/Games1.sol\":6738:6762  address public gameToken */\n    tag_39:\n      callvalue\n      dup1\n      iszero\n      tag_235\n      jumpi\n      0x00\n      dup1\n      revert\n    tag_235:\n      pop\n      sload(0x01)\n      tag_106\n      swap1\n      sub(shl(0xa0, 0x01), 0x01)\n      and\n      dup2\n      jump\n        /* \"MSWAP/Games/Games1.sol\":9837:9875  mapping(address => bool) public isGame */\n    tag_40:\n      callvalue\n      dup1\n      iszero\n      tag_239\n      jumpi\n      0x00\n      dup1\n      revert\n    tag_239:\n      pop\n      tag_224\n      tag_241\n      calldatasize\n      0x04\n      tag_121\n      jump\t// in\n    tag_241:\n      mstore(0x20, 0x13)\n      0x00\n      swap1\n      dup2\n      mstore\n      0x40\n      swap1\n      keccak256\n      sload\n      0xff\n      and\n      dup2\n      jump\n        /* \"MSWAP/Games/Games1.sol\":17815:18826  function diceCall( uint256 _betAmount, uint256 choice, uint256 diceChoice) public payable pausable  returns (uint256 houseRoll, uint256 playerChoice, uint256 diceSize, bool isWinner) {\r... */\n    tag_41:\n      tag_244\n      tag_245\n      calldatasize\n      0x04\n      tag_246\n      jump\t// in\n    tag_245:\n      tag_247\n      jump\t// in\n    tag_244:\n      0x40\n      dup1\n      mload\n        /* \"#utility.yul\":19824:19849   */\n      swap5\n      dup6\n      mstore\n        /* \"#utility.yul\":19880:19882   */\n      0x20\n        /* \"#utility.yul\":19865:19883   */\n      dup6\n      add\n        /* \"#utility.yul\":19858:19892   */\n      swap4\n      swap1\n      swap4\n      mstore\n        /* \"#utility.yul\":19908:19926   */\n      swap2\n      dup4\n      add\n        /* \"#utility.yul\":19901:19935   */\n      mstore\n        /* \"#utility.yul\":19978:19992   */\n      iszero\n        /* \"#utility.yul\":19971:19993   */\n      iszero\n        /* \"#utility.yul\":19966:19968   */\n      0x60\n        /* \"#utility.yul\":19951:19969   */\n      dup3\n      add\n        /* \"#utility.yul\":19944:19994   */\n      mstore\n        /* \"#utility.yul\":19811:19814   */\n      0x80\n        /* \"#utility.yul\":19796:19815   */\n      add\n        /* \"MSWAP/Games/Games1.sol\":17815:18826  function diceCall( uint256 _betAmount, uint256 choice, uint256 diceChoice) public payable pausable  returns (uint256 houseRoll, uint256 playerChoice, uint256 diceSize, bool isWinner) {\r... */\n      tag_82\n        /* \"#utility.yul\":19599:20000   */\n      jump\n        /* \"MSWAP/Games/Games1.sol\":14403:14625  function withdrawlAllGameToken() external onlyOwner {\r... */\n    tag_42:\n      callvalue\n      dup1\n      iszero\n      tag_250\n      jumpi\n      0x00\n      dup1\n      revert\n    tag_250:\n      pop\n      tag_75\n      tag_252\n      jump\t// in\n        /* \"MSWAP/Games/Games1.sol\":16981:17791  function cutTheDeck(uint256 _betAmount) public payable pausable returns (uint256 houseCard, uint256 houseSuit, uint256 playerCard, uint256 playerSuit, uint256 result) {\r... */\n    tag_43:\n      tag_169\n      tag_254\n      calldatasize\n      0x04\n      tag_77\n      jump\t// in\n    tag_254:\n      tag_255\n      jump\t// in\n        /* \"MSWAP/Games/Games1.sol\":10464:10687  function setPayOutDivisor(uint256 newPayOutDivisor) external onlyOwner {\r... */\n    tag_44:\n      callvalue\n      dup1\n      iszero\n      tag_257\n      jumpi\n      0x00\n      dup1\n      revert\n    tag_257:\n      pop\n      tag_75\n      tag_259\n      calldatasize\n      0x04\n      tag_77\n      jump\t// in\n    tag_259:\n      tag_260\n      jump\t// in\n        /* \"MSWAP/Games/Games1.sol\":26619:27852  function startBlackJack(uint256 _betAmount) external payable pausable {\r... */\n    tag_45:\n      tag_75\n      tag_262\n      calldatasize\n      0x04\n      tag_77\n      jump\t// in\n    tag_262:\n      tag_263\n      jump\t// in\n        /* \"MSWAP/Games/Games1.sol\":15370:15534  function BetTails(uint256 amount) external payable pausable returns (bool isHeads, bool isWinner){\r... */\n    tag_46:\n      tag_137\n      tag_265\n      calldatasize\n      0x04\n      tag_77\n      jump\t// in\n    tag_265:\n      tag_266\n      jump\t// in\n        /* \"MSWAP/Games/Games1.sol\":6804:6846  uint256 public BNBfee = 100000000000000000 */\n    tag_47:\n      callvalue\n      dup1\n      iszero\n      tag_268\n      jumpi\n      0x00\n      dup1\n      revert\n    tag_268:\n      pop\n      tag_80\n      sload(0x03)\n      dup2\n      jump\n        /* \"MSWAP/Games/Games1.sol\":11290:11417  function maxBetAllowed() public view returns (uint256){\r... */\n    tag_48:\n      callvalue\n      dup1\n      iszero\n      tag_272\n      jumpi\n      0x00\n      dup1\n      revert\n    tag_272:\n      pop\n      tag_80\n      tag_274\n      jump\t// in\n        /* \"MSWAP/Games/Games1.sol\":6945:6977  uint256 public feesCollected = 0 */\n    tag_49:\n      callvalue\n      dup1\n      iszero\n      tag_276\n      jumpi\n      0x00\n      dup1\n      revert\n    tag_276:\n      pop\n      tag_80\n      sload(0x06)\n      dup2\n      jump\n        /* \"MSWAP/Games/Games1.sol\":22907:23352  function highCardTakeMoney() public pausable returns( uint256 amount) {\r... */\n    tag_50:\n      callvalue\n      dup1\n      iszero\n      tag_280\n      jumpi\n      0x00\n      dup1\n      revert\n    tag_280:\n      pop\n      tag_80\n      tag_282\n      jump\t// in\n        /* \"MSWAP/Games/Games1.sol\":5897:6098  function transferOwnership(address newOwner) public virtual onlyOwner {\r... */\n    tag_51:\n      callvalue\n      dup1\n      iszero\n      tag_284\n      jumpi\n      0x00\n      dup1\n      revert\n    tag_284:\n      pop\n      tag_75\n      tag_286\n      calldatasize\n      0x04\n      tag_121\n      jump\t// in\n    tag_286:\n      tag_287\n      jump\t// in\n        /* \"MSWAP/Games/Games1.sol\":10878:10982  function setQuickBetAmount(uint256 amount) external onlyOwner {\r... */\n    tag_52:\n      callvalue\n      dup1\n      iszero\n      tag_288\n      jumpi\n      0x00\n      dup1\n      revert\n    tag_288:\n      pop\n      tag_75\n      tag_290\n      calldatasize\n      0x04\n      tag_77\n      jump\t// in\n    tag_290:\n      tag_291\n      jump\t// in\n        /* \"MSWAP/Games/Games1.sol\":9884:9998  function setNewGame(address newGame, bool isActive) external onlyOwner {\r... */\n    tag_53:\n      callvalue\n      dup1\n      iszero\n      tag_292\n      jumpi\n      0x00\n      dup1\n      revert\n    tag_292:\n      pop\n      tag_75\n      tag_294\n      calldatasize\n      0x04\n      tag_295\n      jump\t// in\n    tag_294:\n      tag_296\n      jump\t// in\n        /* \"MSWAP/Games/Games1.sol\":14847:15019  function quickBetHeads() external payable pausable returns (bool isHeads, bool isWinner){\r... */\n    tag_54:\n      tag_137\n      tag_298\n      jump\t// in\n        /* \"MSWAP/Games/Games1.sol\":27860:28702  function blackJackHitMe() external pausable  {\r... */\n    tag_55:\n      callvalue\n      dup1\n      iszero\n      tag_300\n      jumpi\n      0x00\n      dup1\n      revert\n    tag_300:\n      pop\n      tag_75\n      tag_302\n      jump\t// in\n        /* \"MSWAP/Games/Games1.sol\":21363:22899  function highCardGuess(bool guessHigh) external pausable  returns (bool resultHigh, uint256 LastCardSuit, uint256 LastCardNumber, uint256 newCardSuit, uint256 newCardNumber, bool isWinner, bool isJackpot, uint256 winnings ) {\r... */\n    tag_56:\n      callvalue\n      dup1\n      iszero\n      tag_303\n      jumpi\n      0x00\n      dup1\n      revert\n    tag_303:\n      pop\n      tag_304\n      tag_305\n      calldatasize\n      0x04\n      tag_149\n      jump\t// in\n    tag_305:\n      tag_306\n      jump\t// in\n    tag_304:\n      0x40\n      dup1\n      mload\n        /* \"#utility.yul\":13367:13381   */\n      swap9\n      iszero\n        /* \"#utility.yul\":13360:13382   */\n      iszero\n        /* \"#utility.yul\":13342:13383   */\n      dup10\n      mstore\n        /* \"#utility.yul\":13414:13416   */\n      0x20\n        /* \"#utility.yul\":13399:13417   */\n      dup10\n      add\n        /* \"#utility.yul\":13392:13426   */\n      swap8\n      swap1\n      swap8\n      mstore\n        /* \"#utility.yul\":13442:13460   */\n      swap6\n      dup8\n      add\n        /* \"#utility.yul\":13435:13469   */\n      swap5\n      swap1\n      swap5\n      mstore\n        /* \"#utility.yul\":13500:13502   */\n      0x60\n        /* \"#utility.yul\":13485:13503   */\n      dup7\n      add\n        /* \"#utility.yul\":13478:13512   */\n      swap3\n      swap1\n      swap3\n      mstore\n        /* \"#utility.yul\":13543:13546   */\n      0x80\n        /* \"#utility.yul\":13528:13547   */\n      dup6\n      add\n        /* \"#utility.yul\":13521:13556   */\n      mstore\n        /* \"#utility.yul\":13600:13614   */\n      iszero\n        /* \"#utility.yul\":13593:13615   */\n      iszero\n        /* \"#utility.yul\":13587:13590   */\n      0xa0\n        /* \"#utility.yul\":13572:13591   */\n      dup5\n      add\n        /* \"#utility.yul\":13565:13616   */\n      mstore\n        /* \"#utility.yul\":13660:13674   */\n      iszero\n        /* \"#utility.yul\":13653:13675   */\n      iszero\n        /* \"#utility.yul\":13647:13650   */\n      0xc0\n        /* \"#utility.yul\":13632:13651   */\n      dup4\n      add\n        /* \"#utility.yul\":13625:13676   */\n      mstore\n        /* \"#utility.yul\":13707:13710   */\n      0xe0\n        /* \"#utility.yul\":13692:13711   */\n      dup3\n      add\n        /* \"#utility.yul\":13685:13720   */\n      mstore\n        /* \"#utility.yul\":13329:13332   */\n      0x0100\n        /* \"#utility.yul\":13314:13333   */\n      add\n        /* \"MSWAP/Games/Games1.sol\":21363:22899  function highCardGuess(bool guessHigh) external pausable  returns (bool resultHigh, uint256 LastCardSuit, uint256 LastCardNumber, uint256 newCardSuit, uint256 newCardNumber, bool isWinner, bool isJackpot, uint256 winnings ) {\r... */\n      tag_82\n        /* \"#utility.yul\":13017:13726   */\n      jump\n        /* \"MSWAP/Games/Games1.sol\":12375:12647  function sendIsWinnerPrePaidGame(uint256 amount, uint256 multiplier, address _user) public onlyGames returns (uint256 winnings) {\r... */\n    tag_57:\n      callvalue\n      dup1\n      iszero\n      tag_309\n      jumpi\n      0x00\n      dup1\n      revert\n    tag_309:\n      pop\n      tag_80\n      tag_311\n      calldatasize\n      0x04\n      tag_176\n      jump\t// in\n    tag_311:\n      tag_312\n      jump\t// in\n        /* \"MSWAP/Games/Games1.sol\":10699:10870  function setFeeDivisor(uint256 newDivisor) external onlyOwner {\r... */\n    tag_78:\n        /* \"MSWAP/Games/Games1.sol\":4877:4890  _checkOwner() */\n      tag_315\n        /* \"MSWAP/Games/Games1.sol\":4877:4888  _checkOwner */\n      tag_316\n        /* \"MSWAP/Games/Games1.sol\":4877:4890  _checkOwner() */\n      jump\t// in\n    tag_315:\n        /* \"MSWAP/Games/Games1.sol\":10794:10797  100 */\n      0x64\n        /* \"MSWAP/Games/Games1.sol\":10780:10790  newDivisor */\n      dup2\n        /* \"MSWAP/Games/Games1.sol\":10780:10797  newDivisor <= 100 */\n      gt\n      iszero\n        /* \"MSWAP/Games/Games1.sol\":10772:10828  require(newDivisor <= 100,\"must be between 0 and 100 %\") */\n      tag_318\n      jumpi\n      mload(0x40)\n      shl(0xe5, 0x461bcd)\n      dup2\n      mstore\n        /* \"#utility.yul\":16504:16506   */\n      0x20\n        /* \"MSWAP/Games/Games1.sol\":10772:10828  require(newDivisor <= 100,\"must be between 0 and 100 %\") */\n      0x04\n      dup3\n      add\n        /* \"#utility.yul\":16486:16507   */\n      mstore\n        /* \"#utility.yul\":16543:16545   */\n      0x1b\n        /* \"#utility.yul\":16523:16541   */\n      0x24\n      dup3\n      add\n        /* \"#utility.yul\":16516:16546   */\n      mstore\n        /* \"#utility.yul\":16582:16611   */\n      0x6d757374206265206265747765656e203020616e642031303020250000000000\n        /* \"#utility.yul\":16562:16580   */\n      0x44\n      dup3\n      add\n        /* \"#utility.yul\":16555:16612   */\n      mstore\n        /* \"#utility.yul\":16629:16647   */\n      0x64\n      add\n        /* \"MSWAP/Games/Games1.sol\":10772:10828  require(newDivisor <= 100,\"must be between 0 and 100 %\") */\n    tag_319:\n      mload(0x40)\n      dup1\n      swap2\n      sub\n      swap1\n      revert\n    tag_318:\n        /* \"MSWAP/Games/Games1.sol\":10839:10849  FeeDivisor */\n      0x08\n        /* \"MSWAP/Games/Games1.sol\":10839:10862  FeeDivisor = newDivisor */\n      sstore\n        /* \"MSWAP/Games/Games1.sol\":10699:10870  function setFeeDivisor(uint256 newDivisor) external onlyOwner {\r... */\n      jump\t// out\n        /* \"MSWAP/Games/Games1.sol\":14286:14397  function withdrawBNB() external onlyOwner {\r... */\n    tag_86:\n        /* \"MSWAP/Games/Games1.sol\":4877:4890  _checkOwner() */\n      tag_322\n        /* \"MSWAP/Games/Games1.sol\":4877:4888  _checkOwner */\n      tag_316\n        /* \"MSWAP/Games/Games1.sol\":4877:4890  _checkOwner() */\n      jump\t// in\n    tag_322:\n        /* \"MSWAP/Games/Games1.sol\":14343:14390  payable(msg.sender).send(address(this).balance) */\n      mload(0x40)\n        /* \"MSWAP/Games/Games1.sol\":14351:14361  msg.sender */\n      caller\n      swap1\n        /* \"MSWAP/Games/Games1.sol\":14368:14389  address(this).balance */\n      selfbalance\n        /* \"MSWAP/Games/Games1.sol\":14343:14390  payable(msg.sender).send(address(this).balance) */\n      dup1\n      iszero\n      0x08fc\n      mul\n      swap2\n      0x00\n      dup2\n      dup2\n      dup2\n        /* \"MSWAP/Games/Games1.sol\":14368:14389  address(this).balance */\n      dup6\n        /* \"MSWAP/Games/Games1.sol\":14351:14361  msg.sender */\n      dup9\n        /* \"MSWAP/Games/Games1.sol\":14343:14390  payable(msg.sender).send(address(this).balance) */\n      dup9\n      call\n      swap4\n      pop\n      pop\n      pop\n      pop\n        /* \"MSWAP/Games/Games1.sol\":14335:14391  require(payable(msg.sender).send(address(this).balance)) */\n      tag_325\n      jumpi\n      0x00\n      dup1\n      revert\n    tag_325:\n        /* \"MSWAP/Games/Games1.sol\":14286:14397  function withdrawBNB() external onlyOwner {\r... */\n      jump\t// out\n        /* \"MSWAP/Games/Games1.sol\":10354:10456  function setMaxBetDivisor(uint256 amount) external onlyOwner {\r... */\n    tag_90:\n        /* \"MSWAP/Games/Games1.sol\":4877:4890  _checkOwner() */\n      tag_327\n        /* \"MSWAP/Games/Games1.sol\":4877:4888  _checkOwner */\n      tag_316\n        /* \"MSWAP/Games/Games1.sol\":4877:4890  _checkOwner() */\n      jump\t// in\n    tag_327:\n        /* \"MSWAP/Games/Games1.sol\":10426:10439  maxBetDivisor */\n      0x0a\n        /* \"MSWAP/Games/Games1.sol\":10426:10448  maxBetDivisor = amount */\n      sstore\n        /* \"MSWAP/Games/Games1.sol\":10354:10456  function setMaxBetDivisor(uint256 amount) external onlyOwner {\r... */\n      jump\t// out\n        /* \"MSWAP/Games/Games1.sol\":20505:21341  function startHighCard(uint256 _betAmount) public payable pausable  returns (uint256 currentCardSuit, uint256 currentCardNumber) {\r... */\n    tag_93:\n        /* \"MSWAP/Games/Games1.sol\":10081:10089  isPaused */\n      sload(0x14)\n        /* \"MSWAP/Games/Games1.sol\":20582:20605  uint256 currentCardSuit */\n      0x00\n      swap1\n      dup2\n      swap1\n        /* \"MSWAP/Games/Games1.sol\":10081:10089  isPaused */\n      0xff\n      and\n        /* \"MSWAP/Games/Games1.sol\":10080:10089  !isPaused */\n      iszero\n        /* \"MSWAP/Games/Games1.sol\":10072:10110  require(!isPaused, \"games are paused\") */\n      tag_330\n      jumpi\n      mload(0x40)\n      shl(0xe5, 0x461bcd)\n      dup2\n      mstore\n      0x04\n      add\n      tag_319\n      swap1\n      tag_332\n      jump\t// in\n    tag_330:\n        /* \"MSWAP/Games/Games1.sol\":20674:20684  msg.sender */\n      caller\n        /* \"MSWAP/Games/Games1.sol\":20645:20658  uint256 round */\n      0x00\n        /* \"MSWAP/Games/Games1.sol\":20661:20685  usersRoundHC[msg.sender] */\n      swap1\n      dup2\n      mstore\n        /* \"MSWAP/Games/Games1.sol\":20661:20673  usersRoundHC */\n      0x17\n        /* \"MSWAP/Games/Games1.sol\":20661:20685  usersRoundHC[msg.sender] */\n      0x20\n      swap1\n      dup2\n      mstore\n      0x40\n      dup1\n      dup4\n      keccak256\n      sload\n        /* \"MSWAP/Games/Games1.sol\":20720:20735  highCardByRound */\n      0x18\n        /* \"MSWAP/Games/Games1.sol\":20720:20747  highCardByRound[msg.sender] */\n      dup4\n      mstore\n      dup2\n      dup5\n      keccak256\n        /* \"MSWAP/Games/Games1.sol\":20720:20754  highCardByRound[msg.sender][round] */\n      dup2\n      dup6\n      mstore\n      swap1\n      swap3\n      mstore\n      swap1\n      swap2\n      keccak256\n        /* \"MSWAP/Games/Games1.sol\":20774:20790  user.gameStarted */\n      0x05\n      dup2\n      add\n      sload\n      0xff\n      and\n        /* \"MSWAP/Games/Games1.sol\":20773:20790  !user.gameStarted */\n      iszero\n        /* \"MSWAP/Games/Games1.sol\":20765:20816  require(!user.gameStarted, \"Must finish last Game\") */\n      tag_334\n      jumpi\n      mload(0x40)\n      shl(0xe5, 0x461bcd)\n      dup2\n      mstore\n        /* \"#utility.yul\":19016:19018   */\n      0x20\n        /* \"MSWAP/Games/Games1.sol\":20765:20816  require(!user.gameStarted, \"Must finish last Game\") */\n      0x04\n      dup3\n      add\n        /* \"#utility.yul\":18998:19019   */\n      mstore\n        /* \"#utility.yul\":19055:19057   */\n      0x15\n        /* \"#utility.yul\":19035:19053   */\n      0x24\n      dup3\n      add\n        /* \"#utility.yul\":19028:19058   */\n      mstore\n      shl(0x58, 0x4d7573742066696e697368206c6173742047616d65)\n        /* \"#utility.yul\":19074:19092   */\n      0x44\n      dup3\n      add\n        /* \"#utility.yul\":19067:19118   */\n      mstore\n        /* \"#utility.yul\":19135:19153   */\n      0x64\n      add\n        /* \"MSWAP/Games/Games1.sol\":20765:20816  require(!user.gameStarted, \"Must finish last Game\") */\n      tag_319\n        /* \"#utility.yul\":18814:19159   */\n      jump\n        /* \"MSWAP/Games/Games1.sol\":20765:20816  require(!user.gameStarted, \"Must finish last Game\") */\n    tag_334:\n        /* \"MSWAP/Games/Games1.sol\":20837:20863  checkReqs(user.currentBet) */\n      tag_337\n        /* \"MSWAP/Games/Games1.sol\":20847:20851  user */\n      dup2\n        /* \"MSWAP/Games/Games1.sol\":20847:20862  user.currentBet */\n      0x02\n      add\n      sload\n        /* \"MSWAP/Games/Games1.sol\":20837:20846  checkReqs */\n      tag_338\n        /* \"MSWAP/Games/Games1.sol\":20837:20863  checkReqs(user.currentBet) */\n      jump\t// in\n    tag_337:\n        /* \"MSWAP/Games/Games1.sol\":20878:20893  user.currentBet */\n      0x02\n      dup2\n      add\n        /* \"MSWAP/Games/Games1.sol\":20878:20906  user.currentBet = _betAmount */\n      dup6\n      swap1\n      sstore\n        /* \"MSWAP/Games/Games1.sol\":20935:20948  highCardStart */\n      sload(0x11)\n        /* \"MSWAP/Games/Games1.sol\":20917:20932  user.multiplier */\n      0x03\n      dup3\n      add\n        /* \"MSWAP/Games/Games1.sol\":20917:20948  user.multiplier = highCardStart */\n      sstore\n        /* \"MSWAP/Games/Games1.sol\":20959:20975  user.gameStarted */\n      0x05\n      dup2\n      add\n        /* \"MSWAP/Games/Games1.sol\":20959:20982  user.gameStarted = true */\n      dup1\n      sload\n      not(0xff)\n      and\n        /* \"MSWAP/Games/Games1.sol\":20978:20982  true */\n      0x01\n        /* \"MSWAP/Games/Games1.sol\":20959:20982  user.gameStarted = true */\n      swap1\n      dup2\n      or\n      swap1\n      swap2\n      sstore\n        /* \"MSWAP/Games/Games1.sol\":21000:21009  gameToken */\n      sload\n        /* \"MSWAP/Games/Games1.sol\":20993:21062  IERC20(gameToken).transferFrom(msg.sender, address(this), _betAmount) */\n      mload(0x40)\n      shl(0xe0, 0x23b872dd)\n      dup2\n      mstore\n        /* \"MSWAP/Games/Games1.sol\":21024:21034  msg.sender */\n      caller\n        /* \"MSWAP/Games/Games1.sol\":20993:21062  IERC20(gameToken).transferFrom(msg.sender, address(this), _betAmount) */\n      0x04\n      dup3\n      add\n        /* \"#utility.yul\":6394:6428   */\n      mstore\n        /* \"MSWAP/Games/Games1.sol\":21044:21048  this */\n      address\n        /* \"#utility.yul\":6444:6462   */\n      0x24\n      dup3\n      add\n        /* \"#utility.yul\":6437:6480   */\n      mstore\n        /* \"#utility.yul\":6496:6514   */\n      0x44\n      dup2\n      add\n        /* \"#utility.yul\":6489:6523   */\n      dup8\n      swap1\n      mstore\n      sub(shl(0xa0, 0x01), 0x01)\n        /* \"MSWAP/Games/Games1.sol\":21000:21009  gameToken */\n      swap1\n      swap2\n      and\n      swap1\n        /* \"MSWAP/Games/Games1.sol\":20993:21023  IERC20(gameToken).transferFrom */\n      0x23b872dd\n      swap1\n        /* \"#utility.yul\":6329:6347   */\n      0x64\n      add\n        /* \"MSWAP/Games/Games1.sol\":20993:21062  IERC20(gameToken).transferFrom(msg.sender, address(this), _betAmount) */\n      0x20\n      mload(0x40)\n      dup1\n      dup4\n      sub\n      dup2\n      0x00\n      dup8\n      dup1\n      extcodesize\n      iszero\n      dup1\n      iszero\n      tag_341\n      jumpi\n      0x00\n      dup1\n      revert\n    tag_341:\n      pop\n      gas\n      call\n      iszero\n      dup1\n      iszero\n      tag_343\n      jumpi\n      returndatasize\n      0x00\n      dup1\n      returndatacopy\n      revert(0x00, returndatasize)\n    tag_343:\n      pop\n      pop\n      pop\n      pop\n      mload(0x40)\n      returndatasize\n      not(0x1f)\n      0x1f\n      dup3\n      add\n      and\n      dup3\n      add\n      dup1\n      0x40\n      mstore\n      pop\n      dup2\n      add\n      swap1\n      tag_344\n      swap2\n      swap1\n      tag_345\n      jump\t// in\n    tag_344:\n      pop\n        /* \"MSWAP/Games/Games1.sol\":21150:21163  drawACardHC() */\n      tag_346\n        /* \"MSWAP/Games/Games1.sol\":21150:21161  drawACardHC */\n      tag_347\n        /* \"MSWAP/Games/Games1.sol\":21150:21163  drawACardHC() */\n      jump\t// in\n    tag_346:\n        /* \"MSWAP/Games/Games1.sol\":21101:21163  (user.currentCardNumber, user.currentCardSuit) = drawACardHC() */\n      dup1\n      dup4\n      sstore\n        /* \"MSWAP/Games/Games1.sol\":21102:21124  user.currentCardNumber */\n      0x01\n      dup4\n      add\n        /* \"MSWAP/Games/Games1.sol\":21101:21163  (user.currentCardNumber, user.currentCardSuit) = drawACardHC() */\n      dup3\n      swap1\n      sstore\n        /* \"MSWAP/Games/Games1.sol\":21188:21270  HighCardFirst(msg.sender, user.currentCardSuit,user.currentCardNumber, _betAmount) */\n      0x40\n      dup1\n      mload\n        /* \"MSWAP/Games/Games1.sol\":21202:21212  msg.sender */\n      caller\n        /* \"#utility.yul\":8884:8935   */\n      dup2\n      mstore\n        /* \"#utility.yul\":8966:8968   */\n      0x20\n        /* \"#utility.yul\":8951:8969   */\n      dup2\n      add\n        /* \"#utility.yul\":8944:8978   */\n      swap3\n      swap1\n      swap3\n      mstore\n        /* \"#utility.yul\":8994:9012   */\n      dup2\n      add\n        /* \"#utility.yul\":8987:9021   */\n      swap2\n      swap1\n      swap2\n      mstore\n        /* \"#utility.yul\":9052:9054   */\n      0x60\n        /* \"#utility.yul\":9037:9055   */\n      dup2\n      add\n        /* \"#utility.yul\":9030:9064   */\n      dup7\n      swap1\n      mstore\n        /* \"MSWAP/Games/Games1.sol\":21188:21270  HighCardFirst(msg.sender, user.currentCardSuit,user.currentCardNumber, _betAmount) */\n      0xe3fa5bde10d75bbf2fd822cbd4924ea5eec3bce141d9161a8130aeb9f1e5358f\n      swap1\n        /* \"#utility.yul\":8871:8874   */\n      0x80\n        /* \"#utility.yul\":8856:8875   */\n      add\n        /* \"MSWAP/Games/Games1.sol\":21188:21270  HighCardFirst(msg.sender, user.currentCardSuit,user.currentCardNumber, _betAmount) */\n      mload(0x40)\n      dup1\n      swap2\n      sub\n      swap1\n      log1\n        /* \"MSWAP/Games/Games1.sol\":21289:21309  user.currentCardSuit */\n      dup1\n      sload\n        /* \"MSWAP/Games/Games1.sol\":21310:21332  user.currentCardNumber */\n      0x01\n      swap1\n      swap2\n      add\n      sload\n        /* \"MSWAP/Games/Games1.sol\":21289:21309  user.currentCardSuit */\n      swap1\n      swap4\n      pop\n        /* \"MSWAP/Games/Games1.sol\":21310:21332  user.currentCardNumber */\n      swap2\n      pop\n      pop\n        /* \"MSWAP/Games/Games1.sol\":20505:21341  function startHighCard(uint256 _betAmount) public payable pausable  returns (uint256 currentCardSuit, uint256 currentCardNumber) {\r... */\n      swap2\n      pop\n      swap2\n      jump\t// out\n        /* \"MSWAP/Games/Games1.sol\":10242:10346  function setAmountToSendAt(uint256 amount) external onlyOwner {\r... */\n    tag_99:\n        /* \"MSWAP/Games/Games1.sol\":4877:4890  _checkOwner() */\n      tag_351\n        /* \"MSWAP/Games/Games1.sol\":4877:4888  _checkOwner */\n      tag_316\n        /* \"MSWAP/Games/Games1.sol\":4877:4890  _checkOwner() */\n      jump\t// in\n    tag_351:\n        /* \"MSWAP/Games/Games1.sol\":10315:10329  amountToSendAt */\n      0x05\n        /* \"MSWAP/Games/Games1.sol\":10315:10338  amountToSendAt = amount */\n      sstore\n        /* \"MSWAP/Games/Games1.sol\":10242:10346  function setAmountToSendAt(uint256 amount) external onlyOwner {\r... */\n      jump\t// out\n        /* \"MSWAP/Games/Games1.sol\":14631:14811  function withdrawlToken(address _tokenAddress, uint256 _amount) external onlyOwner {\r... */\n    tag_104:\n        /* \"MSWAP/Games/Games1.sol\":4877:4890  _checkOwner() */\n      tag_354\n        /* \"MSWAP/Games/Games1.sol\":4877:4888  _checkOwner */\n      tag_316\n        /* \"MSWAP/Games/Games1.sol\":4877:4890  _checkOwner() */\n      jump\t// in\n    tag_354:\n        /* \"MSWAP/Games/Games1.sol\":14721:14781  IERC20(_tokenAddress).transfer(address(msg.sender), _amount) */\n      mload(0x40)\n      shl(0xe0, 0xa9059cbb)\n      dup2\n      mstore\n        /* \"MSWAP/Games/Games1.sol\":14760:14770  msg.sender */\n      caller\n        /* \"MSWAP/Games/Games1.sol\":14721:14781  IERC20(_tokenAddress).transfer(address(msg.sender), _amount) */\n      0x04\n      dup3\n      add\n        /* \"#utility.yul\":8548:8599   */\n      mstore\n        /* \"#utility.yul\":8615:8633   */\n      0x24\n      dup2\n      add\n        /* \"#utility.yul\":8608:8642   */\n      dup3\n      swap1\n      mstore\n      sub(shl(0xa0, 0x01), 0x01)\n        /* \"MSWAP/Games/Games1.sol\":14721:14751  IERC20(_tokenAddress).transfer */\n      dup4\n      and\n      swap1\n      0xa9059cbb\n      swap1\n        /* \"#utility.yul\":8521:8539   */\n      0x44\n      add\n        /* \"MSWAP/Games/Games1.sol\":14721:14781  IERC20(_tokenAddress).transfer(address(msg.sender), _amount) */\n    tag_356:\n      0x20\n      mload(0x40)\n      dup1\n      dup4\n      sub\n      dup2\n      0x00\n      dup8\n      dup1\n      extcodesize\n      iszero\n      dup1\n      iszero\n      tag_358\n      jumpi\n      0x00\n      dup1\n      revert\n    tag_358:\n      pop\n      gas\n      call\n      iszero\n      dup1\n      iszero\n      tag_360\n      jumpi\n      returndatasize\n      0x00\n      dup1\n      returndatacopy\n      revert(0x00, returndatasize)\n    tag_360:\n      pop\n      pop\n      pop\n      pop\n      mload(0x40)\n      returndatasize\n      not(0x1f)\n      0x1f\n      dup3\n      add\n      and\n      dup3\n      add\n      dup1\n      0x40\n      mstore\n      pop\n      dup2\n      add\n      swap1\n      tag_361\n      swap2\n      swap1\n      tag_345\n      jump\t// in\n    tag_361:\n      pop\n      pop\n        /* \"MSWAP/Games/Games1.sol\":14804:14805  0 */\n      0x00\n        /* \"MSWAP/Games/Games1.sol\":14788:14801  feesCollected */\n      0x06\n        /* \"MSWAP/Games/Games1.sol\":14788:14805  feesCollected = 0 */\n      sstore\n      pop\n        /* \"MSWAP/Games/Games1.sol\":14631:14811  function withdrawlToken(address _tokenAddress, uint256 _amount) external onlyOwner {\r... */\n      jump\t// out\n        /* \"MSWAP/Games/Games1.sol\":7490:7583  function setRNG(address newRNG) external onlyOwner {\r... */\n    tag_122:\n        /* \"MSWAP/Games/Games1.sol\":4877:4890  _checkOwner() */\n      tag_363\n        /* \"MSWAP/Games/Games1.sol\":4877:4888  _checkOwner */\n      tag_316\n        /* \"MSWAP/Games/Games1.sol\":4877:4890  _checkOwner() */\n      jump\t// in\n    tag_363:\n        /* \"MSWAP/Games/Games1.sol\":7552:7558  random */\n      0x0b\n        /* \"MSWAP/Games/Games1.sol\":7552:7575  random = Random(newRNG) */\n      dup1\n      sload\n      not(sub(shl(0xa0, 0x01), 0x01))\n      and\n      sub(shl(0xa0, 0x01), 0x01)\n      swap3\n      swap1\n      swap3\n      and\n      swap2\n      swap1\n      swap2\n      or\n      swap1\n      sstore\n        /* \"MSWAP/Games/Games1.sol\":7490:7583  function setRNG(address newRNG) external onlyOwner {\r... */\n      jump\t// out\n        /* \"MSWAP/Games/Games1.sol\":7591:7682  function setCostBNB(uint256 _newCost) public onlyOwner {\r... */\n    tag_126:\n        /* \"MSWAP/Games/Games1.sol\":4877:4890  _checkOwner() */\n      tag_366\n        /* \"MSWAP/Games/Games1.sol\":4877:4888  _checkOwner */\n      tag_316\n        /* \"MSWAP/Games/Games1.sol\":4877:4890  _checkOwner() */\n      jump\t// in\n    tag_366:\n        /* \"MSWAP/Games/Games1.sol\":7657:7663  BNBfee */\n      0x03\n        /* \"MSWAP/Games/Games1.sol\":7657:7674  BNBfee = _newCost */\n      sstore\n        /* \"MSWAP/Games/Games1.sol\":7591:7682  function setCostBNB(uint256 _newCost) public onlyOwner {\r... */\n      jump\t// out\n        /* \"MSWAP/Games/Games1.sol\":23851:24924  function blackJackUser(address _user) external view returns (\r... */\n    tag_130:\n      sub(shl(0xa0, 0x01), 0x01)\n        /* \"MSWAP/Games/Games1.sol\":24217:24236  usersRoundBJ[_user] */\n      dup2\n      and\n        /* \"MSWAP/Games/Games1.sol\":24084:24103  uint256 _currentBet */\n      0x00\n        /* \"MSWAP/Games/Games1.sol\":24217:24236  usersRoundBJ[_user] */\n      swap1\n      dup2\n      mstore\n        /* \"MSWAP/Games/Games1.sol\":24217:24229  usersRoundBJ */\n      0x19\n        /* \"MSWAP/Games/Games1.sol\":24217:24236  usersRoundBJ[_user] */\n      0x20\n      swap1\n      dup2\n      mstore\n      0x40\n      dup1\n      dup4\n      keccak256\n      sload\n        /* \"MSWAP/Games/Games1.sol\":24272:24288  blackJackByRound */\n      0x1a\n        /* \"MSWAP/Games/Games1.sol\":24272:24295  blackJackByRound[_user] */\n      dup4\n      mstore\n      dup2\n      dup5\n      keccak256\n        /* \"MSWAP/Games/Games1.sol\":24272:24302  blackJackByRound[_user][round] */\n      dup2\n      dup6\n      mstore\n      swap1\n      swap3\n      mstore\n      dup3\n      keccak256\n        /* \"MSWAP/Games/Games1.sol\":24343:24370  user.playerCardsSuit.length */\n      dup1\n      sload\n        /* \"MSWAP/Games/Games1.sol\":23922:23951  uint256[] memory _playerSuits */\n      0x60\n      swap4\n      dup5\n      swap4\n      dup5\n      swap4\n      dup5\n      swap4\n        /* \"MSWAP/Games/Games1.sol\":24084:24103  uint256 _currentBet */\n      dup4\n      swap3\n      dup4\n      swap3\n      dup4\n      swap3\n        /* \"MSWAP/Games/Games1.sol\":24329:24371  new uint256[](user.playerCardsSuit.length) */\n      0xffffffffffffffff\n      dup2\n      gt\n      iszero\n      tag_370\n      jumpi\n      tag_370\n      tag_371\n      jump\t// in\n    tag_370:\n      mload(0x40)\n      swap1\n      dup1\n      dup3\n      mstore\n      dup1\n      0x20\n      mul\n      0x20\n      add\n      dup3\n      add\n      0x40\n      mstore\n      dup1\n      iszero\n      tag_372\n      jumpi\n      dup2\n      0x20\n      add\n      0x20\n      dup3\n      mul\n      dup1\n      calldatasize\n      dup4\n      calldatacopy\n      add\n      swap1\n      pop\n    tag_372:\n      pop\n        /* \"MSWAP/Games/Games1.sol\":24382:24417  _playerSuits = user.playerCardsSuit */\n      dup2\n      sload\n      0x40\n      dup1\n      mload\n      0x20\n      dup1\n      dup5\n      mul\n      dup3\n      add\n      dup2\n      add\n      swap1\n      swap3\n      mstore\n      dup3\n      dup2\n      mstore\n        /* \"MSWAP/Games/Games1.sol\":24314:24371  _playerSuits = new uint256[](user.playerCardsSuit.length) */\n      swap3\n      swap13\n      pop\n        /* \"MSWAP/Games/Games1.sol\":24397:24401  user */\n      dup4\n      swap2\n        /* \"MSWAP/Games/Games1.sol\":24382:24417  _playerSuits = user.playerCardsSuit */\n      swap1\n      dup4\n      add\n        /* \"MSWAP/Games/Games1.sol\":24397:24401  user */\n      dup3\n        /* \"MSWAP/Games/Games1.sol\":24382:24417  _playerSuits = user.playerCardsSuit */\n      dup3\n      dup1\n      iszero\n      tag_373\n      jumpi\n      0x20\n      mul\n      dup3\n      add\n      swap2\n      swap1\n      0x00\n      mstore\n      keccak256(0x00, 0x20)\n      swap1\n    tag_374:\n      dup2\n      sload\n      dup2\n      mstore\n      0x20\n      add\n      swap1\n      0x01\n      add\n      swap1\n      dup1\n      dup4\n      gt\n      tag_374\n      jumpi\n    tag_373:\n      pop\n      pop\n        /* \"MSWAP/Games/Games1.sol\":24460:24487  user.playerCardsSuit.length */\n      dup5\n      sload\n        /* \"MSWAP/Games/Games1.sol\":24382:24417  _playerSuits = user.playerCardsSuit */\n      swap4\n      swap14\n      pop\n      pop\n      pop\n        /* \"MSWAP/Games/Games1.sol\":24446:24488  new uint256[](user.playerCardsSuit.length) */\n      0xffffffffffffffff\n      dup3\n      gt\n      iszero\n      swap1\n      pop\n      tag_376\n      jumpi\n      tag_376\n      tag_371\n      jump\t// in\n    tag_376:\n      mload(0x40)\n      swap1\n      dup1\n      dup3\n      mstore\n      dup1\n      0x20\n      mul\n      0x20\n      add\n      dup3\n      add\n      0x40\n      mstore\n      dup1\n      iszero\n      tag_377\n      jumpi\n      dup2\n      0x20\n      add\n      0x20\n      dup3\n      mul\n      dup1\n      calldatasize\n      dup4\n      calldatacopy\n      add\n      swap1\n      pop\n    tag_377:\n      pop\n        /* \"MSWAP/Games/Games1.sol\":24516:24538  user.playerCardsNumber */\n      0x01\n      dup3\n      add\n        /* \"MSWAP/Games/Games1.sol\":24499:24538  _playerNumbers = user.playerCardsNumber */\n      dup1\n      sload\n      0x40\n      dup1\n      mload\n      0x20\n      dup1\n      dup5\n      mul\n      dup3\n      add\n      dup2\n      add\n      swap1\n      swap3\n      mstore\n      dup3\n      dup2\n      mstore\n        /* \"MSWAP/Games/Games1.sol\":24429:24488  _playerNumbers = new uint256[](user.playerCardsSuit.length) */\n      swap4\n      swap13\n      pop\n        /* \"MSWAP/Games/Games1.sol\":24499:24538  _playerNumbers = user.playerCardsNumber */\n      dup4\n      add\n        /* \"MSWAP/Games/Games1.sol\":24516:24538  user.playerCardsNumber */\n      dup3\n        /* \"MSWAP/Games/Games1.sol\":24499:24538  _playerNumbers = user.playerCardsNumber */\n      dup3\n      dup1\n      iszero\n      tag_378\n      jumpi\n      0x20\n      mul\n      dup3\n      add\n      swap2\n      swap1\n      0x00\n      mstore\n      keccak256(0x00, 0x20)\n      swap1\n    tag_379:\n      dup2\n      sload\n      dup2\n      mstore\n      0x20\n      add\n      swap1\n      0x01\n      add\n      swap1\n      dup1\n      dup4\n      gt\n      tag_379\n      jumpi\n    tag_378:\n      pop\n      pop\n      pop\n        /* \"MSWAP/Games/Games1.sol\":24578:24597  user.houseCardsSuit */\n      0x02\n      dup5\n      add\n        /* \"MSWAP/Games/Games1.sol\":24578:24604  user.houseCardsSuit.length */\n      sload\n        /* \"MSWAP/Games/Games1.sol\":24499:24538  _playerNumbers = user.playerCardsNumber */\n      swap3\n      swap12\n      pop\n      pop\n      pop\n        /* \"MSWAP/Games/Games1.sol\":24564:24605  new uint256[](user.houseCardsSuit.length) */\n      0xffffffffffffffff\n      dup2\n      gt\n      iszero\n      tag_381\n      jumpi\n      tag_381\n      tag_371\n      jump\t// in\n    tag_381:\n      mload(0x40)\n      swap1\n      dup1\n      dup3\n      mstore\n      dup1\n      0x20\n      mul\n      0x20\n      add\n      dup3\n      add\n      0x40\n      mstore\n      dup1\n      iszero\n      tag_382\n      jumpi\n      dup2\n      0x20\n      add\n      0x20\n      dup3\n      mul\n      dup1\n      calldatasize\n      dup4\n      calldatacopy\n      add\n      swap1\n      pop\n    tag_382:\n      pop\n        /* \"MSWAP/Games/Games1.sol\":24630:24649  user.houseCardsSuit */\n      0x02\n      dup3\n      add\n        /* \"MSWAP/Games/Games1.sol\":24616:24649  _houseSuits = user.houseCardsSuit */\n      dup1\n      sload\n      0x40\n      dup1\n      mload\n      0x20\n      dup1\n      dup5\n      mul\n      dup3\n      add\n      dup2\n      add\n      swap1\n      swap3\n      mstore\n      dup3\n      dup2\n      mstore\n        /* \"MSWAP/Games/Games1.sol\":24550:24605  _houseSuits = new uint256[](user.houseCardsSuit.length) */\n      swap4\n      swap12\n      pop\n        /* \"MSWAP/Games/Games1.sol\":24616:24649  _houseSuits = user.houseCardsSuit */\n      dup4\n      add\n        /* \"MSWAP/Games/Games1.sol\":24630:24649  user.houseCardsSuit */\n      dup3\n        /* \"MSWAP/Games/Games1.sol\":24616:24649  _houseSuits = user.houseCardsSuit */\n      dup3\n      dup1\n      iszero\n      tag_383\n      jumpi\n      0x20\n      mul\n      dup3\n      add\n      swap2\n      swap1\n      0x00\n      mstore\n      keccak256(0x00, 0x20)\n      swap1\n    tag_384:\n      dup2\n      sload\n      dup2\n      mstore\n      0x20\n      add\n      swap1\n      0x01\n      add\n      swap1\n      dup1\n      dup4\n      gt\n      tag_384\n      jumpi\n    tag_383:\n      pop\n      pop\n        /* \"MSWAP/Games/Games1.sol\":24691:24718  user.playerCardsSuit.length */\n      dup5\n      sload\n        /* \"MSWAP/Games/Games1.sol\":24616:24649  _houseSuits = user.houseCardsSuit */\n      swap4\n      swap12\n      pop\n      pop\n      pop\n        /* \"MSWAP/Games/Games1.sol\":24677:24719  new uint256[](user.playerCardsSuit.length) */\n      0xffffffffffffffff\n      dup3\n      gt\n      iszero\n      swap1\n      pop\n      tag_386\n      jumpi\n      tag_386\n      tag_371\n      jump\t// in\n    tag_386:\n      mload(0x40)\n      swap1\n      dup1\n      dup3\n      mstore\n      dup1\n      0x20\n      mul\n      0x20\n      add\n      dup3\n      add\n      0x40\n      mstore\n      dup1\n      iszero\n      tag_387\n      jumpi\n      dup2\n      0x20\n      add\n      0x20\n      dup3\n      mul\n      dup1\n      calldatasize\n      dup4\n      calldatacopy\n      add\n      swap1\n      pop\n    tag_387:\n      pop\n        /* \"MSWAP/Games/Games1.sol\":24747:24768  user.houseCardsNumber */\n      0x03\n      dup3\n      add\n        /* \"MSWAP/Games/Games1.sol\":24731:24768  _houseNumbers = user.houseCardsNumber */\n      dup1\n      sload\n      0x40\n      dup1\n      mload\n      0x20\n      dup1\n      dup5\n      mul\n      dup3\n      add\n      dup2\n      add\n      swap1\n      swap3\n      mstore\n      dup3\n      dup2\n      mstore\n        /* \"MSWAP/Games/Games1.sol\":24661:24719  _houseNumbers = new uint256[](user.playerCardsSuit.length) */\n      swap4\n      swap11\n      pop\n        /* \"MSWAP/Games/Games1.sol\":24731:24768  _houseNumbers = user.houseCardsNumber */\n      dup4\n      add\n        /* \"MSWAP/Games/Games1.sol\":24747:24768  user.houseCardsNumber */\n      dup3\n        /* \"MSWAP/Games/Games1.sol\":24731:24768  _houseNumbers = user.houseCardsNumber */\n      dup3\n      dup1\n      iszero\n      tag_388\n      jumpi\n      0x20\n      mul\n      dup3\n      add\n      swap2\n      swap1\n      0x00\n      mstore\n      keccak256(0x00, 0x20)\n      swap1\n    tag_389:\n      dup2\n      sload\n      dup2\n      mstore\n      0x20\n      add\n      swap1\n      0x01\n      add\n      swap1\n      dup1\n      dup4\n      gt\n      tag_389\n      jumpi\n    tag_388:\n      pop\n      pop\n      pop\n      pop\n      pop\n      swap7\n      pop\n        /* \"MSWAP/Games/Games1.sol\":24794:24798  user */\n      dup1\n        /* \"MSWAP/Games/Games1.sol\":24794:24809  user.currentBet */\n      0x04\n      add\n      sload\n        /* \"MSWAP/Games/Games1.sol\":24780:24809  _currentBet = user.currentBet */\n      swap6\n      pop\n        /* \"MSWAP/Games/Games1.sol\":24830:24834  user */\n      dup1\n        /* \"MSWAP/Games/Games1.sol\":24830:24840  user.total */\n      0x05\n      add\n      sload\n        /* \"MSWAP/Games/Games1.sol\":24821:24840  _total = user.total */\n      swap5\n      pop\n        /* \"MSWAP/Games/Games1.sol\":24862:24866  user */\n      dup1\n        /* \"MSWAP/Games/Games1.sol\":24862:24873  user.Dtotal */\n      0x06\n      add\n      sload\n        /* \"MSWAP/Games/Games1.sol\":24852:24873  _Dtotal = user.Dtotal */\n      swap4\n      pop\n        /* \"MSWAP/Games/Games1.sol\":24900:24904  user */\n      dup1\n        /* \"MSWAP/Games/Games1.sol\":24900:24916  user.gameStarted */\n      0x07\n      add\n      0x00\n      swap1\n      sload\n      swap1\n      0x0100\n      exp\n      swap1\n      div\n      0xff\n      and\n        /* \"MSWAP/Games/Games1.sol\":24885:24916  _gameStarted = user.gameStarted */\n      swap3\n      pop\n        /* \"MSWAP/Games/Games1.sol\":24190:24924  {\r... */\n      pop\n      pop\n        /* \"MSWAP/Games/Games1.sol\":23851:24924  function blackJackUser(address _user) external view returns (\r... */\n      swap2\n      swap4\n      swap6\n      swap8\n      pop\n      swap2\n      swap4\n      swap6\n      swap8\n      jump\t// out\n        /* \"MSWAP/Games/Games1.sol\":7690:7803  function BNBTreasury() external view returns (address) {\r... */\n    tag_135:\n        /* \"MSWAP/Games/Games1.sol\":7736:7743  address */\n      0x00\n        /* \"MSWAP/Games/Games1.sol\":7772:7783  marsFactory */\n      0x04\n      0x00\n      swap1\n      sload\n      swap1\n      0x0100\n      exp\n      swap1\n      div\n      sub(shl(0xa0, 0x01), 0x01)\n      and\n      sub(shl(0xa0, 0x01), 0x01)\n        /* \"MSWAP/Games/Games1.sol\":7763:7793  IFactory(marsFactory).treasury */\n      and\n      0x61d027b3\n        /* \"MSWAP/Games/Games1.sol\":7763:7795  IFactory(marsFactory).treasury() */\n      mload(0x40)\n      dup2\n      0xffffffff\n      and\n      0xe0\n      shl\n      dup2\n      mstore\n      0x04\n      add\n      0x20\n      mload(0x40)\n      dup1\n      dup4\n      sub\n      dup2\n      dup7\n      dup1\n      extcodesize\n      iszero\n      dup1\n      iszero\n      tag_391\n      jumpi\n      0x00\n      dup1\n      revert\n    tag_391:\n      pop\n      gas\n      staticcall\n      iszero\n      dup1\n      iszero\n      tag_393\n      jumpi\n      returndatasize\n      0x00\n      dup1\n      returndatacopy\n      revert(0x00, returndatasize)\n    tag_393:\n      pop\n      pop\n      pop\n      pop\n      mload(0x40)\n      returndatasize\n      not(0x1f)\n      0x1f\n      dup3\n      add\n      and\n      dup3\n      add\n      dup1\n      0x40\n      mstore\n      pop\n      dup2\n      add\n      swap1\n      tag_394\n      swap2\n      swap1\n      tag_395\n      jump\t// in\n    tag_394:\n        /* \"MSWAP/Games/Games1.sol\":7756:7795  return IFactory(marsFactory).treasury() */\n      swap1\n      pop\n        /* \"MSWAP/Games/Games1.sol\":7690:7803  function BNBTreasury() external view returns (address) {\r... */\n      swap1\n      jump\t// out\n        /* \"MSWAP/Games/Games1.sol\":15027:15191  function BetHeads(uint256 amount) external payable pausable  returns (bool isHeads, bool isWinner){\r... */\n    tag_139:\n        /* \"MSWAP/Games/Games1.sol\":10081:10089  isPaused */\n      sload(0x14)\n        /* \"MSWAP/Games/Games1.sol\":15097:15109  bool isHeads */\n      0x00\n      swap1\n      dup2\n      swap1\n        /* \"MSWAP/Games/Games1.sol\":10081:10089  isPaused */\n      0xff\n      and\n        /* \"MSWAP/Games/Games1.sol\":10080:10089  !isPaused */\n      iszero\n        /* \"MSWAP/Games/Games1.sol\":10072:10110  require(!isPaused, \"games are paused\") */\n      tag_397\n      jumpi\n      mload(0x40)\n      shl(0xe5, 0x461bcd)\n      dup2\n      mstore\n      0x04\n      add\n      tag_319\n      swap1\n      tag_332\n      jump\t// in\n    tag_397:\n        /* \"MSWAP/Games/Games1.sol\":15158:15183  flipTheCoin(amount, true) */\n      tag_400\n        /* \"MSWAP/Games/Games1.sol\":15170:15176  amount */\n      dup4\n        /* \"MSWAP/Games/Games1.sol\":15178:15182  true */\n      0x01\n        /* \"MSWAP/Games/Games1.sol\":15158:15169  flipTheCoin */\n      tag_401\n        /* \"MSWAP/Games/Games1.sol\":15158:15183  flipTheCoin(amount, true) */\n      jump\t// in\n    tag_400:\n        /* \"MSWAP/Games/Games1.sol\":15136:15183  (isHeads, isWinner) = flipTheCoin(amount, true) */\n      swap1\n      swap5\n      swap1\n      swap4\n      pop\n        /* \"MSWAP/Games/Games1.sol\":15027:15191  function BetHeads(uint256 amount) external payable pausable  returns (bool isHeads, bool isWinner){\r... */\n      swap2\n      pop\n      pop\n      jump\t// out\n        /* \"MSWAP/Games/Games1.sol\":11147:11282  function potAmount() public view returns (uint256) {\r... */\n    tag_144:\n        /* \"MSWAP/Games/Games1.sol\":11261:11274  feesCollected */\n      sload(0x06)\n        /* \"MSWAP/Games/Games1.sol\":11223:11232  gameToken */\n      sload(0x01)\n        /* \"MSWAP/Games/Games1.sol\":11216:11258  IERC20(gameToken).balanceOf(address(this)) */\n      mload(0x40)\n      shl(0xe0, 0x70a08231)\n      dup2\n      mstore\n        /* \"MSWAP/Games/Games1.sol\":11252:11256  this */\n      address\n        /* \"MSWAP/Games/Games1.sol\":11216:11258  IERC20(gameToken).balanceOf(address(this)) */\n      0x04\n      dup3\n      add\n        /* \"#utility.yul\":5783:5834   */\n      mstore\n        /* \"MSWAP/Games/Games1.sol\":11189:11196  uint256 */\n      0x00\n      swap3\n        /* \"MSWAP/Games/Games1.sol\":11261:11274  feesCollected */\n      swap2\n      sub(shl(0xa0, 0x01), 0x01)\n        /* \"MSWAP/Games/Games1.sol\":11223:11232  gameToken */\n      and\n      swap1\n        /* \"MSWAP/Games/Games1.sol\":11216:11243  IERC20(gameToken).balanceOf */\n      0x70a08231\n      swap1\n        /* \"#utility.yul\":5756:5774   */\n      0x24\n      add\n        /* \"MSWAP/Games/Games1.sol\":11216:11258  IERC20(gameToken).balanceOf(address(this)) */\n      0x20\n      mload(0x40)\n      dup1\n      dup4\n      sub\n      dup2\n      dup7\n      dup1\n      extcodesize\n      iszero\n      dup1\n      iszero\n      tag_404\n      jumpi\n      0x00\n      dup1\n      revert\n    tag_404:\n      pop\n      gas\n      staticcall\n      iszero\n      dup1\n      iszero\n      tag_406\n      jumpi\n      returndatasize\n      0x00\n      dup1\n      returndatacopy\n      revert(0x00, returndatasize)\n    tag_406:\n      pop\n      pop\n      pop\n      pop\n      mload(0x40)\n      returndatasize\n      not(0x1f)\n      0x1f\n      dup3\n      add\n      and\n      dup3\n      add\n      dup1\n      0x40\n      mstore\n      pop\n      dup2\n      add\n      swap1\n      tag_407\n      swap2\n      swap1\n      tag_408\n      jump\t// in\n    tag_407:\n        /* \"MSWAP/Games/Games1.sol\":11216:11274  IERC20(gameToken).balanceOf(address(this)) - feesCollected */\n      tag_394\n      swap2\n      swap1\n      tag_410\n      jump\t// in\n        /* \"MSWAP/Games/Games1.sol\":10136:10230  function pauseGames(bool _isPaused) external onlyOwner {\r... */\n    tag_150:\n        /* \"MSWAP/Games/Games1.sol\":4877:4890  _checkOwner() */\n      tag_412\n        /* \"MSWAP/Games/Games1.sol\":4877:4888  _checkOwner */\n      tag_316\n        /* \"MSWAP/Games/Games1.sol\":4877:4890  _checkOwner() */\n      jump\t// in\n    tag_412:\n        /* \"MSWAP/Games/Games1.sol\":10202:10210  isPaused */\n      0x14\n        /* \"MSWAP/Games/Games1.sol\":10202:10222  isPaused = _isPaused */\n      dup1\n      sload\n      not(0xff)\n      and\n      swap2\n      iszero\n      iszero\n      swap2\n      swap1\n      swap2\n      or\n      swap1\n      sstore\n        /* \"MSWAP/Games/Games1.sol\":10136:10230  function pauseGames(bool _isPaused) external onlyOwner {\r... */\n      jump\t// out\n        /* \"MSWAP/Games/Games1.sol\":11425:11606  function rng(uint256 mod) public returns(uint256 value) {\r... */\n    tag_154:\n        /* \"MSWAP/Games/Games1.sol\":11466:11479  uint256 value */\n      0x00\n        /* \"MSWAP/Games/Games1.sol\":11492:11504  uint256 seed */\n      dup1\n        /* \"MSWAP/Games/Games1.sol\":11507:11513  random */\n      0x0b\n      0x00\n      swap1\n      sload\n      swap1\n      0x0100\n      exp\n      swap1\n      div\n      sub(shl(0xa0, 0x01), 0x01)\n      and\n      sub(shl(0xa0, 0x01), 0x01)\n        /* \"MSWAP/Games/Games1.sol\":11507:11529  random.getRandomNumber */\n      and\n      0xdbdff2c1\n        /* \"MSWAP/Games/Games1.sol\":11507:11531  random.getRandomNumber() */\n      mload(0x40)\n      dup2\n      0xffffffff\n      and\n      0xe0\n      shl\n      dup2\n      mstore\n      0x04\n      add\n      0x20\n      mload(0x40)\n      dup1\n      dup4\n      sub\n      dup2\n      0x00\n      dup8\n      dup1\n      extcodesize\n      iszero\n      dup1\n      iszero\n      tag_415\n      jumpi\n      0x00\n      dup1\n      revert\n    tag_415:\n      pop\n      gas\n      call\n      iszero\n      dup1\n      iszero\n      tag_417\n      jumpi\n      returndatasize\n      0x00\n      dup1\n      returndatacopy\n      revert(0x00, returndatasize)\n    tag_417:\n      pop\n      pop\n      pop\n      pop\n      mload(0x40)\n      returndatasize\n      not(0x1f)\n      0x1f\n      dup3\n      add\n      and\n      dup3\n      add\n      dup1\n      0x40\n      mstore\n      pop\n      dup2\n      add\n      swap1\n      tag_418\n      swap2\n      swap1\n      tag_408\n      jump\t// in\n    tag_418:\n        /* \"MSWAP/Games/Games1.sol\":11492:11531  uint256 seed = random.getRandomNumber() */\n      swap1\n      pop\n        /* \"MSWAP/Games/Games1.sol\":11595:11598  mod */\n      dup3\n        /* \"MSWAP/Games/Games1.sol\":11585:11589  seed */\n      dup2\n        /* \"MSWAP/Games/Games1.sol\":11568:11590  abi.encodePacked(seed) */\n      add(0x20, mload(0x40))\n      tag_419\n      swap2\n        /* \"#utility.yul\":5579:5598   */\n      dup2\n      mstore\n        /* \"#utility.yul\":5623:5625   */\n      0x20\n        /* \"#utility.yul\":5614:5626   */\n      add\n      swap1\n        /* \"#utility.yul\":5450:5632   */\n      jump\n        /* \"MSWAP/Games/Games1.sol\":11568:11590  abi.encodePacked(seed) */\n    tag_419:\n      mload(0x40)\n      0x20\n      dup2\n      dup4\n      sub\n      sub\n      dup2\n      mstore\n      swap1\n      0x40\n      mstore\n        /* \"MSWAP/Games/Games1.sol\":11558:11591  keccak256(abi.encodePacked(seed)) */\n      dup1\n      mload\n      swap1\n      0x20\n      add\n      keccak256\n        /* \"MSWAP/Games/Games1.sol\":11550:11592  uint256(keccak256(abi.encodePacked(seed))) */\n      0x00\n      shr\n        /* \"MSWAP/Games/Games1.sol\":11550:11598  uint256(keccak256(abi.encodePacked(seed))) % mod */\n      tag_421\n      swap2\n      swap1\n      tag_422\n      jump\t// in\n    tag_421:\n        /* \"MSWAP/Games/Games1.sol\":11542:11598  value = uint256(keccak256(abi.encodePacked(seed))) % mod */\n      swap4\n        /* \"MSWAP/Games/Games1.sol\":11425:11606  function rng(uint256 mod) public returns(uint256 value) {\r... */\n      swap3\n      pop\n      pop\n      pop\n      jump\t// out\n        /* \"MSWAP/Games/Games1.sol\":28710:29829  function blackJackHold() external pausable  {\r... */\n    tag_164:\n        /* \"MSWAP/Games/Games1.sol\":10081:10089  isPaused */\n      and(0xff, sload(0x14))\n        /* \"MSWAP/Games/Games1.sol\":10080:10089  !isPaused */\n      iszero\n        /* \"MSWAP/Games/Games1.sol\":10072:10110  require(!isPaused, \"games are paused\") */\n      tag_425\n      jumpi\n      mload(0x40)\n      shl(0xe5, 0x461bcd)\n      dup2\n      mstore\n      0x04\n      add\n      tag_319\n      swap1\n      tag_332\n      jump\t// in\n    tag_425:\n        /* \"MSWAP/Games/Games1.sol\":28794:28804  msg.sender */\n      caller\n        /* \"MSWAP/Games/Games1.sol\":28765:28778  uint256 round */\n      0x00\n        /* \"MSWAP/Games/Games1.sol\":28781:28805  usersRoundBJ[msg.sender] */\n      swap1\n      dup2\n      mstore\n        /* \"MSWAP/Games/Games1.sol\":28781:28793  usersRoundBJ */\n      0x19\n        /* \"MSWAP/Games/Games1.sol\":28781:28805  usersRoundBJ[msg.sender] */\n      0x20\n      swap1\n      dup2\n      mstore\n      0x40\n      dup1\n      dup4\n      keccak256\n      sload\n        /* \"MSWAP/Games/Games1.sol\":28841:28857  blackJackByRound */\n      0x1a\n        /* \"MSWAP/Games/Games1.sol\":28841:28869  blackJackByRound[msg.sender] */\n      dup4\n      mstore\n      dup2\n      dup5\n      keccak256\n        /* \"MSWAP/Games/Games1.sol\":28841:28876  blackJackByRound[msg.sender][round] */\n      dup2\n      dup6\n      mstore\n      swap1\n      swap3\n      mstore\n      swap1\n      swap2\n      keccak256\n        /* \"MSWAP/Games/Games1.sol\":28895:28911  user.gameStarted */\n      0x07\n      dup2\n      add\n      sload\n      0xff\n      and\n        /* \"MSWAP/Games/Games1.sol\":28887:28942  require(user.gameStarted, \"StartNewGame to play again\") */\n      tag_428\n      jumpi\n      mload(0x40)\n      shl(0xe5, 0x461bcd)\n      dup2\n      mstore\n      0x04\n      add\n      tag_319\n      swap1\n      tag_430\n      jump\t// in\n    tag_428:\n        /* \"MSWAP/Games/Games1.sol\":29032:29047  user.currentBet */\n      0x04\n      dup2\n      add\n      sload\n        /* \"MSWAP/Games/Games1.sol\":28955:28968  uint256 total */\n      0x00\n      swap1\n      dup2\n      swap1\n      dup2\n      dup1\n        /* \"MSWAP/Games/Games1.sol\":29110:29367  do {\r... */\n    tag_431:\n        /* \"MSWAP/Games/Games1.sol\":29145:29158  drawACardBJ() */\n      tag_434\n        /* \"MSWAP/Games/Games1.sol\":29145:29156  drawACardBJ */\n      tag_435\n        /* \"MSWAP/Games/Games1.sol\":29145:29158  drawACardBJ() */\n      jump\t// in\n    tag_434:\n        /* \"MSWAP/Games/Games1.sol\":29173:29192  user.houseCardsSuit */\n      0x02\n      dup9\n      add\n        /* \"MSWAP/Games/Games1.sol\":29173:29203  user.houseCardsSuit.push(suit) */\n      dup1\n      sload\n      0x01\n      dup2\n      dup2\n      add\n      dup4\n      sstore\n      0x00\n      swap3\n      dup4\n      mstore\n      0x20\n      dup1\n      dup5\n      keccak256\n      swap1\n      swap3\n      add\n      dup5\n      swap1\n      sstore\n        /* \"MSWAP/Games/Games1.sol\":29218:29239  user.houseCardsNumber */\n      0x03\n      dup12\n      add\n        /* \"MSWAP/Games/Games1.sol\":29218:29252  user.houseCardsNumber.push(number) */\n      dup1\n      sload\n      swap2\n      dup3\n      add\n      dup2\n      sstore\n      dup1\n      dup5\n      mstore\n      swap3\n      dup3\n      swap1\n      keccak256\n      add\n      dup5\n      swap1\n      sstore\n        /* \"MSWAP/Games/Games1.sol\":29279:29313  checkIfBust(user.houseCardsNumber) */\n      dup2\n      sload\n      0x40\n      dup1\n      mload\n      dup3\n      dup5\n      mul\n      dup2\n      add\n      dup5\n      add\n      swap1\n      swap2\n      mstore\n      dup2\n      dup2\n      mstore\n        /* \"MSWAP/Games/Games1.sol\":29128:29158  (number, suit) = drawACardBJ() */\n      swap4\n      swap7\n      pop\n      swap4\n      swap5\n      pop\n        /* \"MSWAP/Games/Games1.sol\":29279:29313  checkIfBust(user.houseCardsNumber) */\n      tag_438\n      swap4\n      swap1\n      dup4\n      add\n        /* \"MSWAP/Games/Games1.sol\":29218:29239  user.houseCardsNumber */\n      dup3\n        /* \"MSWAP/Games/Games1.sol\":29279:29313  checkIfBust(user.houseCardsNumber) */\n      dup3\n      dup1\n      iszero\n      tag_439\n      jumpi\n      0x20\n      mul\n      dup3\n      add\n      swap2\n      swap1\n      0x00\n      mstore\n      keccak256(0x00, 0x20)\n      swap1\n    tag_440:\n      dup2\n      sload\n      dup2\n      mstore\n      0x20\n      add\n      swap1\n      0x01\n      add\n      swap1\n      dup1\n      dup4\n      gt\n      tag_440\n      jumpi\n    tag_439:\n      pop\n      pop\n      pop\n      pop\n      pop\n        /* \"MSWAP/Games/Games1.sol\":29279:29290  checkIfBust */\n      tag_202\n        /* \"MSWAP/Games/Games1.sol\":29279:29313  checkIfBust(user.houseCardsNumber) */\n      jump\t// in\n    tag_438:\n        /* \"MSWAP/Games/Games1.sol\":29267:29313  (, total) = checkIfBust(user.houseCardsNumber) */\n      swap6\n      pop\n      pop\n        /* \"MSWAP/Games/Games1.sol\":29341:29343  17 */\n      0x11\n        /* \"MSWAP/Games/Games1.sol\":29333:29343  total < 17 */\n      dup6\n      lt\n        /* \"MSWAP/Games/Games1.sol\":29333:29365  total < 17 && total < user.total */\n      dup1\n      iszero\n      tag_441\n      jumpi\n      pop\n        /* \"MSWAP/Games/Games1.sol\":29355:29359  user */\n      dup6\n        /* \"MSWAP/Games/Games1.sol\":29355:29365  user.total */\n      0x05\n      add\n      sload\n        /* \"MSWAP/Games/Games1.sol\":29347:29352  total */\n      dup6\n        /* \"MSWAP/Games/Games1.sol\":29347:29365  total < user.total */\n      lt\n        /* \"MSWAP/Games/Games1.sol\":29333:29365  total < 17 && total < user.total */\n    tag_441:\n        /* \"MSWAP/Games/Games1.sol\":29110:29367  do {\r... */\n      tag_431\n      jumpi\n        /* \"MSWAP/Games/Games1.sol\":29390:29392  21 */\n      0x15\n        /* \"MSWAP/Games/Games1.sol\":29382:29387  total */\n      dup6\n        /* \"MSWAP/Games/Games1.sol\":29382:29392  total > 21 */\n      gt\n        /* \"MSWAP/Games/Games1.sol\":29382:29414  total > 21 || user.total > total */\n      dup1\n      tag_442\n      jumpi\n      pop\n        /* \"MSWAP/Games/Games1.sol\":29409:29414  total */\n      dup5\n        /* \"MSWAP/Games/Games1.sol\":29396:29400  user */\n      dup7\n        /* \"MSWAP/Games/Games1.sol\":29396:29406  user.total */\n      0x05\n      add\n      sload\n        /* \"MSWAP/Games/Games1.sol\":29396:29414  user.total > total */\n      gt\n        /* \"MSWAP/Games/Games1.sol\":29382:29414  total > 21 || user.total > total */\n    tag_442:\n        /* \"MSWAP/Games/Games1.sol\":29379:29529  if(total > 21 || user.total > total){\r... */\n      iszero\n      tag_443\n      jumpi\n        /* \"MSWAP/Games/Games1.sol\":29441:29445  true */\n      0x01\n        /* \"MSWAP/Games/Games1.sol\":29430:29445  isWinner = true */\n      swap4\n      pop\n        /* \"MSWAP/Games/Games1.sol\":29469:29517  sendIsWinnerPrePaid(user.currentBet, blackJackM) */\n      tag_444\n        /* \"MSWAP/Games/Games1.sol\":29489:29493  user */\n      dup7\n        /* \"MSWAP/Games/Games1.sol\":29489:29504  user.currentBet */\n      0x04\n      add\n      sload\n        /* \"MSWAP/Games/Games1.sol\":29506:29516  blackJackM */\n      sload(0x12)\n        /* \"MSWAP/Games/Games1.sol\":29469:29488  sendIsWinnerPrePaid */\n      tag_445\n        /* \"MSWAP/Games/Games1.sol\":29469:29517  sendIsWinnerPrePaid(user.currentBet, blackJackM) */\n      jump\t// in\n    tag_444:\n        /* \"MSWAP/Games/Games1.sol\":29460:29517  amount = sendIsWinnerPrePaid(user.currentBet, blackJackM) */\n      swap3\n      pop\n        /* \"MSWAP/Games/Games1.sol\":29379:29529  if(total > 21 || user.total > total){\r... */\n    tag_443:\n        /* \"MSWAP/Games/Games1.sol\":29696:29706  user.total */\n      0x05\n      dup7\n      add\n      sload\n        /* \"MSWAP/Games/Games1.sol\":29572:29731  BlackJackGame(msg.sender, user.playerCardsSuit ,user.playerCardsNumber, user.houseCardsSuit, user.houseCardsNumber, amount, user.total, total, false, isWinner) */\n      mload(0x40)\n      0x04bcbdfa7453595c0b74372e71e39f68ec571585d404fc01d65bf50c191f6a8c\n      swap2\n      tag_446\n      swap2\n        /* \"MSWAP/Games/Games1.sol\":29586:29596  msg.sender */\n      caller\n      swap2\n        /* \"MSWAP/Games/Games1.sol\":29598:29602  user */\n      dup11\n      swap2\n        /* \"MSWAP/Games/Games1.sol\":29620:29642  user.playerCardsNumber */\n      0x01\n      dup4\n      add\n      swap2\n        /* \"MSWAP/Games/Games1.sol\":29644:29663  user.houseCardsSuit */\n      0x02\n      dup5\n      add\n      swap2\n        /* \"MSWAP/Games/Games1.sol\":29665:29686  user.houseCardsNumber */\n      0x03\n      dup6\n      add\n      swap2\n        /* \"MSWAP/Games/Games1.sol\":29688:29694  amount */\n      dup12\n      swap2\n        /* \"MSWAP/Games/Games1.sol\":29708:29713  total */\n      dup15\n      swap1\n        /* \"MSWAP/Games/Games1.sol\":29598:29618  user.playerCardsSuit */\n      0x00\n      swap1\n        /* \"MSWAP/Games/Games1.sol\":29722:29730  isWinner */\n      dup16\n      swap1\n        /* \"MSWAP/Games/Games1.sol\":29572:29731  BlackJackGame(msg.sender, user.playerCardsSuit ,user.playerCardsNumber, user.houseCardsSuit, user.houseCardsNumber, amount, user.total, total, false, isWinner) */\n      tag_447\n      jump\t// in\n    tag_446:\n      mload(0x40)\n      dup1\n      swap2\n      sub\n      swap1\n      log1\n        /* \"MSWAP/Games/Games1.sol\":29755:29765  msg.sender */\n      caller\n        /* \"MSWAP/Games/Games1.sol\":29742:29766  usersRoundBJ[msg.sender] */\n      0x00\n      swap1\n      dup2\n      mstore\n        /* \"MSWAP/Games/Games1.sol\":29742:29754  usersRoundBJ */\n      0x19\n        /* \"MSWAP/Games/Games1.sol\":29742:29766  usersRoundBJ[msg.sender] */\n      0x20\n      mstore\n      0x40\n      dup2\n      keccak256\n        /* \"MSWAP/Games/Games1.sol\":29742:29771  usersRoundBJ[msg.sender] += 1 */\n      dup1\n      sload\n        /* \"MSWAP/Games/Games1.sol\":29770:29771  1 */\n      0x01\n      swap3\n        /* \"MSWAP/Games/Games1.sol\":29742:29766  usersRoundBJ[msg.sender] */\n      swap1\n        /* \"MSWAP/Games/Games1.sol\":29742:29771  usersRoundBJ[msg.sender] += 1 */\n      tag_448\n      swap1\n        /* \"MSWAP/Games/Games1.sol\":29770:29771  1 */\n      dup5\n      swap1\n        /* \"MSWAP/Games/Games1.sol\":29742:29771  usersRoundBJ[msg.sender] += 1 */\n      tag_449\n      jump\t// in\n    tag_448:\n      swap1\n      swap2\n      sstore\n      pop\n        /* \"MSWAP/Games/Games1.sol\":29786:29794  isWinner */\n      dup5\n      swap1\n      pop\n        /* \"MSWAP/Games/Games1.sol\":29782:29821  if(!isWinner) sendFees(user.currentBet) */\n      tag_451\n      jumpi\n        /* \"MSWAP/Games/Games1.sol\":29796:29821  sendFees(user.currentBet) */\n      tag_451\n        /* \"MSWAP/Games/Games1.sol\":29805:29809  user */\n      dup7\n        /* \"MSWAP/Games/Games1.sol\":29805:29820  user.currentBet */\n      0x04\n      add\n      sload\n        /* \"MSWAP/Games/Games1.sol\":29796:29804  sendFees */\n      tag_528\n        /* \"MSWAP/Games/Games1.sol\":29796:29821  sendFees(user.currentBet) */\n      jump\t// in\n    tag_451:\n        /* \"MSWAP/Games/Games1.sol\":28754:29829  {\r... */\n      pop\n      pop\n      pop\n      pop\n      pop\n      pop\n      pop\n        /* \"MSWAP/Games/Games1.sol\":28710:29829  function blackJackHold() external pausable  {\r... */\n      jump\t// out\n        /* \"MSWAP/Games/Games1.sol\":5639:5742  function renounceOwnership() public virtual onlyOwner {\r... */\n    tag_167:\n        /* \"MSWAP/Games/Games1.sol\":4877:4890  _checkOwner() */\n      tag_454\n        /* \"MSWAP/Games/Games1.sol\":4877:4888  _checkOwner */\n      tag_316\n        /* \"MSWAP/Games/Games1.sol\":4877:4890  _checkOwner() */\n      jump\t// in\n    tag_454:\n        /* \"MSWAP/Games/Games1.sol\":5704:5734  _transferOwnership(address(0)) */\n      tag_325\n        /* \"MSWAP/Games/Games1.sol\":5731:5732  0 */\n      0x00\n        /* \"MSWAP/Games/Games1.sol\":5704:5722  _transferOwnership */\n      tag_457\n        /* \"MSWAP/Games/Games1.sol\":5704:5734  _transferOwnership(address(0)) */\n      jump\t// in\n        /* \"MSWAP/Games/Games1.sol\":8428:8717  function stateCallMain() external view returns (\r... */\n    tag_170:\n        /* \"MSWAP/Games/Games1.sol\":8486:8508  uint256 _maxBetAllowed */\n      0x00\n        /* \"MSWAP/Games/Games1.sol\":8519:8542  uint256 _quickBetAmount */\n      dup1\n        /* \"MSWAP/Games/Games1.sol\":8553:8575  uint256 _payOutDivisor */\n      0x00\n        /* \"MSWAP/Games/Games1.sol\":8586:8604  uint256 _potAmount */\n      dup1\n        /* \"MSWAP/Games/Games1.sol\":8615:8630  uint256 _bnbFee */\n      0x00\n        /* \"MSWAP/Games/Games1.sol\":8647:8662  maxBetAllowed() */\n      tag_459\n        /* \"MSWAP/Games/Games1.sol\":8647:8660  maxBetAllowed */\n      tag_274\n        /* \"MSWAP/Games/Games1.sol\":8647:8662  maxBetAllowed() */\n      jump\t// in\n    tag_459:\n        /* \"MSWAP/Games/Games1.sol\":8664:8678  quickBetAmount */\n      sload(0x07)\n        /* \"MSWAP/Games/Games1.sol\":8680:8693  payOutDivisor */\n      sload(0x09)\n        /* \"MSWAP/Games/Games1.sol\":8695:8706  potAmount() */\n      tag_460\n        /* \"MSWAP/Games/Games1.sol\":8695:8704  potAmount */\n      tag_144\n        /* \"MSWAP/Games/Games1.sol\":8695:8706  potAmount() */\n      jump\t// in\n    tag_460:\n        /* \"MSWAP/Games/Games1.sol\":8708:8714  BNBfee */\n      sload(0x03)\n        /* \"MSWAP/Games/Games1.sol\":8639:8715  return (maxBetAllowed(), quickBetAmount, payOutDivisor, potAmount(), BNBfee) */\n      swap5\n      pop\n      swap5\n      pop\n      swap5\n      pop\n      swap5\n      pop\n      swap5\n      pop\n        /* \"MSWAP/Games/Games1.sol\":8428:8717  function stateCallMain() external view returns (\r... */\n      swap1\n      swap2\n      swap3\n      swap4\n      swap5\n      jump\t// out\n        /* \"MSWAP/Games/Games1.sol\":11853:12101  function sendIsWinnerGame(uint256 amount, uint256 multiplier, address _user) public onlyGames returns (uint256 payOut) {\r... */\n    tag_177:\n        /* \"MSWAP/Games/Games1.sol\":9761:9771  msg.sender */\n      caller\n        /* \"MSWAP/Games/Games1.sol\":11956:11970  uint256 payOut */\n      0x00\n        /* \"MSWAP/Games/Games1.sol\":9754:9772  isGame[msg.sender] */\n      swap1\n      dup2\n      mstore\n        /* \"MSWAP/Games/Games1.sol\":9754:9760  isGame */\n      0x13\n        /* \"MSWAP/Games/Games1.sol\":9754:9772  isGame[msg.sender] */\n      0x20\n      mstore\n      0x40\n      dup2\n      keccak256\n      sload\n      0xff\n      and\n        /* \"MSWAP/Games/Games1.sol\":9746:9811  require(isGame[msg.sender], \"you are not a game contract for FG\") */\n      tag_462\n      jumpi\n      mload(0x40)\n      shl(0xe5, 0x461bcd)\n      dup2\n      mstore\n      0x04\n      add\n      tag_319\n      swap1\n      tag_464\n      jump\t// in\n    tag_462:\n        /* \"MSWAP/Games/Games1.sol\":12038:12041  100 */\n      0x64\n        /* \"MSWAP/Games/Games1.sol\":12025:12035  multiplier */\n      dup4\n        /* \"MSWAP/Games/Games1.sol\":12018:12021  100 */\n      0x64\n        /* \"MSWAP/Games/Games1.sol\":12002:12015  payOutDivisor */\n      sload(0x09)\n        /* \"MSWAP/Games/Games1.sol\":11993:11999  amount */\n      dup8\n        /* \"MSWAP/Games/Games1.sol\":11993:12015  amount * payOutDivisor */\n      tag_466\n      swap2\n      swap1\n      tag_467\n      jump\t// in\n    tag_466:\n        /* \"MSWAP/Games/Games1.sol\":11993:12021  amount * payOutDivisor / 100 */\n      tag_468\n      swap2\n      swap1\n      tag_469\n      jump\t// in\n    tag_468:\n        /* \"MSWAP/Games/Games1.sol\":11992:12035  (amount * payOutDivisor / 100) * multiplier */\n      tag_470\n      swap2\n      swap1\n      tag_467\n      jump\t// in\n    tag_470:\n        /* \"MSWAP/Games/Games1.sol\":11992:12041  (amount * payOutDivisor / 100) * multiplier / 100 */\n      tag_471\n      swap2\n      swap1\n      tag_469\n      jump\t// in\n    tag_471:\n        /* \"MSWAP/Games/Games1.sol\":12059:12068  gameToken */\n      sload(0x01)\n        /* \"MSWAP/Games/Games1.sol\":12052:12093  IERC20(gameToken).transfer(_user, payOut) */\n      mload(0x40)\n      shl(0xe0, 0xa9059cbb)\n      dup2\n      mstore\n      sub(shl(0xa0, 0x01), 0x01)\n        /* \"#utility.yul\":8566:8598   */\n      dup6\n      dup2\n      and\n        /* \"MSWAP/Games/Games1.sol\":12052:12093  IERC20(gameToken).transfer(_user, payOut) */\n      0x04\n      dup4\n      add\n        /* \"#utility.yul\":8548:8599   */\n      mstore\n        /* \"#utility.yul\":8615:8633   */\n      0x24\n      dup3\n      add\n        /* \"#utility.yul\":8608:8642   */\n      dup5\n      swap1\n      mstore\n        /* \"MSWAP/Games/Games1.sol\":11983:12041  payOut = (amount * payOutDivisor / 100) * multiplier / 100 */\n      swap3\n      swap4\n      pop\n        /* \"MSWAP/Games/Games1.sol\":12059:12068  gameToken */\n      swap2\n      and\n      swap1\n        /* \"MSWAP/Games/Games1.sol\":12052:12078  IERC20(gameToken).transfer */\n      0xa9059cbb\n      swap1\n        /* \"#utility.yul\":8521:8539   */\n      0x44\n      add\n        /* \"MSWAP/Games/Games1.sol\":12052:12093  IERC20(gameToken).transfer(_user, payOut) */\n      0x20\n      mload(0x40)\n      dup1\n      dup4\n      sub\n      dup2\n      0x00\n      dup8\n      dup1\n      extcodesize\n      iszero\n      dup1\n      iszero\n      tag_473\n      jumpi\n      0x00\n      dup1\n      revert\n    tag_473:\n      pop\n      gas\n      call\n      iszero\n      dup1\n      iszero\n      tag_475\n      jumpi\n      returndatasize\n      0x00\n      dup1\n      returndatacopy\n      revert(0x00, returndatasize)\n    tag_475:\n      pop\n      pop\n      pop\n      pop\n      mload(0x40)\n      returndatasize\n      not(0x1f)\n      0x1f\n      dup3\n      add\n      and\n      dup3\n      add\n      dup1\n      0x40\n      mstore\n      pop\n      dup2\n      add\n      swap1\n      tag_476\n      swap2\n      swap1\n      tag_345\n      jump\t// in\n    tag_476:\n      pop\n        /* \"MSWAP/Games/Games1.sol\":11853:12101  function sendIsWinnerGame(uint256 amount, uint256 multiplier, address _user) public onlyGames returns (uint256 payOut) {\r... */\n      swap4\n      swap3\n      pop\n      pop\n      pop\n      jump\t// out\n        /* \"MSWAP/Games/Games1.sol\":16718:16973  function cutTheDeckQuick() external payable pausable returns (uint256 houseCard, uint256 houseSuit, uint256 playerCard, uint256 playerSuit, uint256 result) {\r... */\n    tag_184:\n        /* \"MSWAP/Games/Games1.sol\":10081:10089  isPaused */\n      sload(0x14)\n        /* \"MSWAP/Games/Games1.sol\":16780:16797  uint256 houseCard */\n      0x00\n      swap1\n      dup2\n      swap1\n      dup2\n      swap1\n      dup2\n      swap1\n      dup2\n      swap1\n        /* \"MSWAP/Games/Games1.sol\":10081:10089  isPaused */\n      0xff\n      and\n        /* \"MSWAP/Games/Games1.sol\":10080:10089  !isPaused */\n      iszero\n        /* \"MSWAP/Games/Games1.sol\":10072:10110  require(!isPaused, \"games are paused\") */\n      tag_478\n      jumpi\n      mload(0x40)\n      shl(0xe5, 0x461bcd)\n      dup2\n      mstore\n      0x04\n      add\n      tag_319\n      swap1\n      tag_332\n      jump\t// in\n    tag_478:\n        /* \"MSWAP/Games/Games1.sol\":16939:16965  cutTheDeck(quickBetAmount) */\n      tag_481\n        /* \"MSWAP/Games/Games1.sol\":16950:16964  quickBetAmount */\n      sload(0x07)\n        /* \"MSWAP/Games/Games1.sol\":16939:16949  cutTheDeck */\n      tag_255\n        /* \"MSWAP/Games/Games1.sol\":16939:16965  cutTheDeck(quickBetAmount) */\n      jump\t// in\n    tag_481:\n        /* \"MSWAP/Games/Games1.sol\":16882:16965  (houseCard, houseSuit, playerCard, playerSuit, result) = cutTheDeck(quickBetAmount) */\n      swap4\n      swap10\n      swap3\n      swap9\n      pop\n      swap1\n      swap7\n      pop\n      swap5\n      pop\n      swap1\n      swap3\n      pop\n        /* \"MSWAP/Games/Games1.sol\":16718:16973  function cutTheDeckQuick() external payable pausable returns (uint256 houseCard, uint256 houseSuit, uint256 playerCard, uint256 playerSuit, uint256 result) {\r... */\n      swap1\n      pop\n      jump\t// out\n        /* \"MSWAP/Games/Games1.sol\":9111:9205  function setGameToken(address _token) external onlyOwner {\r... */\n    tag_189:\n        /* \"MSWAP/Games/Games1.sol\":4877:4890  _checkOwner() */\n      tag_483\n        /* \"MSWAP/Games/Games1.sol\":4877:4888  _checkOwner */\n      tag_316\n        /* \"MSWAP/Games/Games1.sol\":4877:4890  _checkOwner() */\n      jump\t// in\n    tag_483:\n        /* \"MSWAP/Games/Games1.sol\":9179:9188  gameToken */\n      0x01\n        /* \"MSWAP/Games/Games1.sol\":9179:9197  gameToken = _token */\n      dup1\n      sload\n      not(sub(shl(0xa0, 0x01), 0x01))\n      and\n      sub(shl(0xa0, 0x01), 0x01)\n      swap3\n      swap1\n      swap3\n      and\n      swap2\n      swap1\n      swap2\n      or\n      swap1\n      sstore\n        /* \"MSWAP/Games/Games1.sol\":9111:9205  function setGameToken(address _token) external onlyOwner {\r... */\n      jump\t// out\n        /* \"MSWAP/Games/Games1.sol\":25543:26603  function checkIfBust(uint256[] memory numbers) public pure returns (bool bust, uint256 total) {\r... */\n    tag_202:\n        /* \"MSWAP/Games/Games1.sol\":25611:25620  bool bust */\n      0x00\n      dup1\n      dup1\n      dup1\n        /* \"MSWAP/Games/Games1.sol\":25747:26142  for(uint i=0; i<numbers.length; i++) {\r... */\n    tag_486:\n        /* \"MSWAP/Games/Games1.sol\":25763:25770  numbers */\n      dup5\n        /* \"MSWAP/Games/Games1.sol\":25763:25777  numbers.length */\n      mload\n        /* \"MSWAP/Games/Games1.sol\":25761:25762  i */\n      dup2\n        /* \"MSWAP/Games/Games1.sol\":25761:25777  i<numbers.length */\n      lt\n        /* \"MSWAP/Games/Games1.sol\":25747:26142  for(uint i=0; i<numbers.length; i++) {\r... */\n      iszero\n      tag_487\n      jumpi\n        /* \"MSWAP/Games/Games1.sol\":25799:25812  uint256 value */\n      0x00\n        /* \"MSWAP/Games/Games1.sol\":25843:25844  0 */\n      dup1\n        /* \"MSWAP/Games/Games1.sol\":25830:25837  numbers */\n      dup7\n        /* \"MSWAP/Games/Games1.sol\":25838:25839  i */\n      dup4\n        /* \"MSWAP/Games/Games1.sol\":25830:25840  numbers[i] */\n      dup2\n      mload\n      dup2\n      lt\n      tag_490\n      jumpi\n      tag_490\n      tag_491\n      jump\t// in\n    tag_490:\n      0x20\n      mul\n      0x20\n      add\n      add\n      mload\n        /* \"MSWAP/Games/Games1.sol\":25830:25844  numbers[i] > 0 */\n      gt\n        /* \"MSWAP/Games/Games1.sol\":25830:25862  numbers[i] > 0 && numbers[i] < 9 */\n      dup1\n      iszero\n      tag_492\n      jumpi\n      pop\n        /* \"MSWAP/Games/Games1.sol\":25861:25862  9 */\n      0x09\n        /* \"MSWAP/Games/Games1.sol\":25848:25855  numbers */\n      dup7\n        /* \"MSWAP/Games/Games1.sol\":25856:25857  i */\n      dup4\n        /* \"MSWAP/Games/Games1.sol\":25848:25858  numbers[i] */\n      dup2\n      mload\n      dup2\n      lt\n      tag_494\n      jumpi\n      tag_494\n      tag_491\n      jump\t// in\n    tag_494:\n      0x20\n      mul\n      0x20\n      add\n      add\n      mload\n        /* \"MSWAP/Games/Games1.sol\":25848:25862  numbers[i] < 9 */\n      lt\n        /* \"MSWAP/Games/Games1.sol\":25830:25862  numbers[i] > 0 && numbers[i] < 9 */\n    tag_492:\n        /* \"MSWAP/Games/Games1.sol\":25827:25886  if(numbers[i] > 0 && numbers[i] < 9) value = numbers[i] + 1 */\n      iszero\n      tag_495\n      jumpi\n        /* \"MSWAP/Games/Games1.sol\":25872:25879  numbers */\n      dup6\n        /* \"MSWAP/Games/Games1.sol\":25880:25881  i */\n      dup3\n        /* \"MSWAP/Games/Games1.sol\":25872:25882  numbers[i] */\n      dup2\n      mload\n      dup2\n      lt\n      tag_497\n      jumpi\n      tag_497\n      tag_491\n      jump\t// in\n    tag_497:\n      0x20\n      mul\n      0x20\n      add\n      add\n      mload\n        /* \"MSWAP/Games/Games1.sol\":25885:25886  1 */\n      0x01\n        /* \"MSWAP/Games/Games1.sol\":25872:25886  numbers[i] + 1 */\n      tag_498\n      swap2\n      swap1\n      tag_449\n      jump\t// in\n    tag_498:\n        /* \"MSWAP/Games/Games1.sol\":25864:25886  value = numbers[i] + 1 */\n      swap1\n      pop\n        /* \"MSWAP/Games/Games1.sol\":25827:25886  if(numbers[i] > 0 && numbers[i] < 9) value = numbers[i] + 1 */\n    tag_495:\n        /* \"MSWAP/Games/Games1.sol\":25952:25953  9 */\n      0x09\n        /* \"MSWAP/Games/Games1.sol\":25938:25945  numbers */\n      dup7\n        /* \"MSWAP/Games/Games1.sol\":25946:25947  i */\n      dup4\n        /* \"MSWAP/Games/Games1.sol\":25938:25948  numbers[i] */\n      dup2\n      mload\n      dup2\n      lt\n      tag_500\n      jumpi\n      tag_500\n      tag_491\n      jump\t// in\n    tag_500:\n      0x20\n      mul\n      0x20\n      add\n      add\n      mload\n        /* \"MSWAP/Games/Games1.sol\":25938:25953  numbers[i] >= 9 */\n      lt\n        /* \"MSWAP/Games/Games1.sol\":25935:25965  if(numbers[i] >= 9) value = 10 */\n      tag_501\n      jumpi\n      pop\n        /* \"MSWAP/Games/Games1.sol\":25963:25965  10 */\n      0x0a\n        /* \"MSWAP/Games/Games1.sol\":25935:25965  if(numbers[i] >= 9) value = 10 */\n    tag_501:\n        /* \"MSWAP/Games/Games1.sol\":26014:26021  numbers */\n      dup6\n        /* \"MSWAP/Games/Games1.sol\":26022:26023  i */\n      dup3\n        /* \"MSWAP/Games/Games1.sol\":26014:26024  numbers[i] */\n      dup2\n      mload\n      dup2\n      lt\n      tag_503\n      jumpi\n      tag_503\n      tag_491\n      jump\t// in\n    tag_503:\n      0x20\n      mul\n      0x20\n      add\n      add\n      mload\n        /* \"MSWAP/Games/Games1.sol\":26028:26029  0 */\n      0x00\n        /* \"MSWAP/Games/Games1.sol\":26014:26029  numbers[i] == 0 */\n      eq\n        /* \"MSWAP/Games/Games1.sol\":26011:26102  if(numbers[i] == 0){\r... */\n      iszero\n      tag_504\n      jumpi\n        /* \"MSWAP/Games/Games1.sol\":26049:26058  aces += 1 */\n      tag_505\n        /* \"MSWAP/Games/Games1.sol\":26057:26058  1 */\n      0x01\n        /* \"MSWAP/Games/Games1.sol\":26049:26058  aces += 1 */\n      dup5\n      tag_449\n      jump\t// in\n    tag_505:\n      swap3\n      pop\n        /* \"MSWAP/Games/Games1.sol\":26085:26086  0 */\n      0x00\n        /* \"MSWAP/Games/Games1.sol\":26077:26086  value = 0 */\n      swap1\n      pop\n        /* \"MSWAP/Games/Games1.sol\":26011:26102  if(numbers[i] == 0){\r... */\n    tag_504:\n        /* \"MSWAP/Games/Games1.sol\":26116:26130  total += value */\n      tag_506\n        /* \"MSWAP/Games/Games1.sol\":26125:26130  value */\n      dup2\n        /* \"MSWAP/Games/Games1.sol\":26116:26130  total += value */\n      dup6\n      tag_449\n      jump\t// in\n    tag_506:\n      swap4\n      pop\n        /* \"MSWAP/Games/Games1.sol\":25784:26142  {\r... */\n      pop\n        /* \"MSWAP/Games/Games1.sol\":25779:25782  i++ */\n      dup1\n      dup1\n      tag_507\n      swap1\n      tag_508\n      jump\t// in\n    tag_507:\n      swap2\n      pop\n      pop\n        /* \"MSWAP/Games/Games1.sol\":25747:26142  for(uint i=0; i<numbers.length; i++) {\r... */\n      jump(tag_486)\n    tag_487:\n      pop\n        /* \"MSWAP/Games/Games1.sol\":26186:26194  aces > 0 */\n      dup1\n      iszero\n        /* \"MSWAP/Games/Games1.sol\":26183:26526  if(aces > 0) {\r... */\n      tag_509\n      jumpi\n        /* \"MSWAP/Games/Games1.sol\":26227:26232  total */\n      dup2\n        /* \"MSWAP/Games/Games1.sol\":26211:26224  uint256 check */\n      0x00\n        /* \"MSWAP/Games/Games1.sol\":26247:26438  for(uint j=0; j<aces; j++) {\r... */\n    tag_510:\n        /* \"MSWAP/Games/Games1.sol\":26263:26267  aces */\n      dup3\n        /* \"MSWAP/Games/Games1.sol\":26261:26262  j */\n      dup2\n        /* \"MSWAP/Games/Games1.sol\":26261:26267  j<aces */\n      lt\n        /* \"MSWAP/Games/Games1.sol\":26247:26438  for(uint j=0; j<aces; j++) {\r... */\n      iszero\n      tag_511\n      jumpi\n        /* \"MSWAP/Games/Games1.sol\":26293:26306  uint256 value */\n      0x00\n        /* \"MSWAP/Games/Games1.sol\":26342:26344  21 */\n      0x15\n        /* \"MSWAP/Games/Games1.sol\":26328:26338  check + 11 */\n      tag_513\n        /* \"MSWAP/Games/Games1.sol\":26328:26333  check */\n      dup5\n        /* \"MSWAP/Games/Games1.sol\":26336:26338  11 */\n      0x0b\n        /* \"MSWAP/Games/Games1.sol\":26328:26338  check + 11 */\n      tag_449\n      jump\t// in\n    tag_513:\n        /* \"MSWAP/Games/Games1.sol\":26328:26344  check + 11 <= 21 */\n      gt\n        /* \"MSWAP/Games/Games1.sol\":26325:26389  if(check + 11 <= 21) value = 11;\r... */\n      tag_514\n      jumpi\n      pop\n        /* \"MSWAP/Games/Games1.sol\":26354:26356  11 */\n      0x0b\n        /* \"MSWAP/Games/Games1.sol\":26325:26389  if(check + 11 <= 21) value = 11;\r... */\n      jump(tag_515)\n    tag_514:\n      pop\n        /* \"MSWAP/Games/Games1.sol\":26388:26389  1 */\n      0x01\n        /* \"MSWAP/Games/Games1.sol\":26325:26389  if(check + 11 <= 21) value = 11;\r... */\n    tag_515:\n        /* \"MSWAP/Games/Games1.sol\":26408:26422  check += value */\n      tag_516\n        /* \"MSWAP/Games/Games1.sol\":26417:26422  value */\n      dup2\n        /* \"MSWAP/Games/Games1.sol\":26408:26422  check += value */\n      dup5\n      tag_449\n      jump\t// in\n    tag_516:\n      swap3\n      pop\n        /* \"MSWAP/Games/Games1.sol\":26274:26438  {\r... */\n      pop\n        /* \"MSWAP/Games/Games1.sol\":26269:26272  j++ */\n      dup1\n      dup1\n      tag_517\n      swap1\n      tag_508\n      jump\t// in\n    tag_517:\n      swap2\n      pop\n      pop\n        /* \"MSWAP/Games/Games1.sol\":26247:26438  for(uint j=0; j<aces; j++) {\r... */\n      jump(tag_510)\n    tag_511:\n      pop\n        /* \"MSWAP/Games/Games1.sol\":26464:26466  21 */\n      0x15\n        /* \"MSWAP/Games/Games1.sol\":26455:26460  check */\n      dup2\n        /* \"MSWAP/Games/Games1.sol\":26455:26466  check <= 21 */\n      gt\n        /* \"MSWAP/Games/Games1.sol\":26452:26514  if(check <= 21) total = check;\r... */\n      tag_518\n      jumpi\n        /* \"MSWAP/Games/Games1.sol\":26476:26481  check */\n      dup1\n        /* \"MSWAP/Games/Games1.sol\":26468:26481  total = check */\n      swap3\n      pop\n        /* \"MSWAP/Games/Games1.sol\":26452:26514  if(check <= 21) total = check;\r... */\n      jump(tag_519)\n    tag_518:\n        /* \"MSWAP/Games/Games1.sol\":26501:26514  total += aces */\n      tag_520\n        /* \"MSWAP/Games/Games1.sol\":26510:26514  aces */\n      dup3\n        /* \"MSWAP/Games/Games1.sol\":26501:26514  total += aces */\n      dup5\n      tag_449\n      jump\t// in\n    tag_520:\n      swap3\n      pop\n        /* \"MSWAP/Games/Games1.sol\":26452:26514  if(check <= 21) total = check;\r... */\n    tag_519:\n        /* \"MSWAP/Games/Games1.sol\":26196:26526  {\r... */\n      pop\n        /* \"MSWAP/Games/Games1.sol\":26183:26526  if(aces > 0) {\r... */\n    tag_509:\n        /* \"MSWAP/Games/Games1.sol\":26549:26551  21 */\n      0x15\n        /* \"MSWAP/Games/Games1.sol\":26541:26546  total */\n      dup3\n        /* \"MSWAP/Games/Games1.sol\":26541:26551  total > 21 */\n      gt\n        /* \"MSWAP/Games/Games1.sol\":26538:26564  if(total > 21) bust = true */\n      iszero\n      tag_521\n      jumpi\n        /* \"MSWAP/Games/Games1.sol\":26560:26564  true */\n      0x01\n        /* \"MSWAP/Games/Games1.sol\":26553:26564  bust = true */\n      swap3\n      pop\n        /* \"MSWAP/Games/Games1.sol\":26538:26564  if(total > 21) bust = true */\n    tag_521:\n        /* \"MSWAP/Games/Games1.sol\":26575:26595  return (bust, total) */\n      pop\n        /* \"MSWAP/Games/Games1.sol\":25543:26603  function checkIfBust(uint256[] memory numbers) public pure returns (bool bust, uint256 total) {\r... */\n      swap2\n      pop\n      swap2\n      jump\t// out\n        /* \"MSWAP/Games/Games1.sol\":9213:9686  function setGameMultipliers(\r... */\n    tag_213:\n        /* \"MSWAP/Games/Games1.sol\":4877:4890  _checkOwner() */\n      tag_524\n        /* \"MSWAP/Games/Games1.sol\":4877:4888  _checkOwner */\n      tag_316\n        /* \"MSWAP/Games/Games1.sol\":4877:4890  _checkOwner() */\n      jump\t// in\n    tag_524:\n        /* \"MSWAP/Games/Games1.sol\":9458:9467  coinFlipM */\n      0x0c\n        /* \"MSWAP/Games/Games1.sol\":9458:9480  coinFlipM = _coinFlipM */\n      swap7\n      swap1\n      swap7\n      sstore\n        /* \"MSWAP/Games/Games1.sol\":9488:9496  deckCutM */\n      0x0d\n        /* \"MSWAP/Games/Games1.sol\":9488:9508  deckCutM = _deckCutM */\n      swap5\n      swap1\n      swap5\n      sstore\n        /* \"MSWAP/Games/Games1.sol\":9516:9526  diceCall6M */\n      0x0e\n        /* \"MSWAP/Games/Games1.sol\":9516:9540  diceCall6M = _diceCall6M */\n      swap3\n      swap1\n      swap3\n      sstore\n        /* \"MSWAP/Games/Games1.sol\":9548:9559  diceCall12M */\n      0x0f\n        /* \"MSWAP/Games/Games1.sol\":9548:9574  diceCall12M = _diceCall12M */\n      sstore\n        /* \"MSWAP/Games/Games1.sol\":9582:9593  diceCall20M */\n      0x10\n        /* \"MSWAP/Games/Games1.sol\":9582:9608  diceCall20M = _diceCall20M */\n      sstore\n        /* \"MSWAP/Games/Games1.sol\":9616:9629  highCardStart */\n      0x11\n        /* \"MSWAP/Games/Games1.sol\":9616:9646  highCardStart = _highCardStart */\n      sstore\n        /* \"MSWAP/Games/Games1.sol\":9654:9664  blackJackM */\n      0x12\n        /* \"MSWAP/Games/Games1.sol\":9654:9678  blackJackM = _blackJackM */\n      sstore\n        /* \"MSWAP/Games/Games1.sol\":9213:9686  function setGameMultipliers(\r... */\n      jump\t// out\n        /* \"MSWAP/Games/Games1.sol\":13241:13579  function sendFeesGame(uint256 amount) public onlyGames {\r... */\n    tag_222:\n        /* \"MSWAP/Games/Games1.sol\":9761:9771  msg.sender */\n      caller\n        /* \"MSWAP/Games/Games1.sol\":9754:9772  isGame[msg.sender] */\n      0x00\n      swap1\n      dup2\n      mstore\n        /* \"MSWAP/Games/Games1.sol\":9754:9760  isGame */\n      0x13\n        /* \"MSWAP/Games/Games1.sol\":9754:9772  isGame[msg.sender] */\n      0x20\n      mstore\n      0x40\n      swap1\n      keccak256\n      sload\n      0xff\n      and\n        /* \"MSWAP/Games/Games1.sol\":9746:9811  require(isGame[msg.sender], \"you are not a game contract for FG\") */\n      tag_528\n      jumpi\n      mload(0x40)\n      shl(0xe5, 0x461bcd)\n      dup2\n      mstore\n      0x04\n      add\n      tag_319\n      swap1\n      tag_464\n      jump\t// in\n    tag_528:\n        /* \"MSWAP/Games/Games1.sol\":13307:13330  uint256 amountToLottery */\n      0x00\n        /* \"MSWAP/Games/Games1.sol\":13355:13358  100 */\n      0x64\n        /* \"MSWAP/Games/Games1.sol\":13342:13352  FeeDivisor */\n      sload(0x08)\n        /* \"MSWAP/Games/Games1.sol\":13333:13339  amount */\n      dup4\n        /* \"MSWAP/Games/Games1.sol\":13333:13352  amount * FeeDivisor */\n      tag_531\n      swap2\n      swap1\n      tag_467\n      jump\t// in\n    tag_531:\n        /* \"MSWAP/Games/Games1.sol\":13333:13358  amount * FeeDivisor / 100 */\n      tag_532\n      swap2\n      swap1\n      tag_469\n      jump\t// in\n    tag_532:\n        /* \"MSWAP/Games/Games1.sol\":13307:13358  uint256 amountToLottery = amount * FeeDivisor / 100 */\n      swap1\n      pop\n        /* \"MSWAP/Games/Games1.sol\":13386:13401  amountToLottery */\n      dup1\n        /* \"MSWAP/Games/Games1.sol\":13369:13382  feesCollected */\n      0x06\n      0x00\n        /* \"MSWAP/Games/Games1.sol\":13369:13401  feesCollected += amountToLottery */\n      dup3\n      dup3\n      sload\n      tag_533\n      swap2\n      swap1\n      tag_449\n      jump\t// in\n    tag_533:\n      swap1\n      swap2\n      sstore\n      pop\n      pop\n        /* \"MSWAP/Games/Games1.sol\":13440:13454  amountToSendAt */\n      sload(0x05)\n        /* \"MSWAP/Games/Games1.sol\":13423:13436  feesCollected */\n      sload(0x06)\n        /* \"MSWAP/Games/Games1.sol\":13423:13454  feesCollected >= amountToSendAt */\n      lt\n        /* \"MSWAP/Games/Games1.sol\":13420:13571  if(feesCollected >= amountToSendAt) {\r... */\n      tag_534\n      jumpi\n        /* \"MSWAP/Games/Games1.sol\":13478:13487  gameToken */\n      sload(0x01)\n        /* \"MSWAP/Games/Games1.sol\":13498:13511  tokenTreasury */\n      sload(0x02)\n        /* \"MSWAP/Games/Games1.sol\":13513:13526  feesCollected */\n      sload(0x06)\n        /* \"MSWAP/Games/Games1.sol\":13471:13527  IERC20(gameToken).transfer(tokenTreasury, feesCollected) */\n      mload(0x40)\n      shl(0xe0, 0xa9059cbb)\n      dup2\n      mstore\n      sub(shl(0xa0, 0x01), 0x01)\n        /* \"MSWAP/Games/Games1.sol\":13498:13511  tokenTreasury */\n      swap3\n      dup4\n      and\n        /* \"MSWAP/Games/Games1.sol\":13471:13527  IERC20(gameToken).transfer(tokenTreasury, feesCollected) */\n      0x04\n      dup3\n      add\n        /* \"#utility.yul\":8548:8599   */\n      mstore\n        /* \"#utility.yul\":8615:8633   */\n      0x24\n      dup2\n      add\n        /* \"#utility.yul\":8608:8642   */\n      swap2\n      swap1\n      swap2\n      mstore\n        /* \"MSWAP/Games/Games1.sol\":13478:13487  gameToken */\n      swap2\n      and\n      swap1\n        /* \"MSWAP/Games/Games1.sol\":13471:13497  IERC20(gameToken).transfer */\n      0xa9059cbb\n      swap1\n        /* \"#utility.yul\":8521:8539   */\n      0x44\n      add\n        /* \"MSWAP/Games/Games1.sol\":13471:13527  IERC20(gameToken).transfer(tokenTreasury, feesCollected) */\n      tag_356\n        /* \"#utility.yul\":8374:8648   */\n      jump\n        /* \"MSWAP/Games/Games1.sol\":13420:13571  if(feesCollected >= amountToSendAt) {\r... */\n    tag_534:\n        /* \"MSWAP/Games/Games1.sol\":13296:13579  {\r... */\n      pop\n        /* \"MSWAP/Games/Games1.sol\":13241:13579  function sendFeesGame(uint256 amount) public onlyGames {\r... */\n      pop\n      jump\t// out\n        /* \"MSWAP/Games/Games1.sol\":15199:15362  function quickBetTails() external payable pausable returns (bool isHeads, bool isWinner){\r... */\n    tag_229:\n        /* \"MSWAP/Games/Games1.sol\":10081:10089  isPaused */\n      sload(0x14)\n        /* \"MSWAP/Games/Games1.sol\":15259:15271  bool isHeads */\n      0x00\n      swap1\n      dup2\n      swap1\n        /* \"MSWAP/Games/Games1.sol\":10081:10089  isPaused */\n      0xff\n      and\n        /* \"MSWAP/Games/Games1.sol\":10080:10089  !isPaused */\n      iszero\n        /* \"MSWAP/Games/Games1.sol\":10072:10110  require(!isPaused, \"games are paused\") */\n      tag_541\n      jumpi\n      mload(0x40)\n      shl(0xe5, 0x461bcd)\n      dup2\n      mstore\n      0x04\n      add\n      tag_319\n      swap1\n      tag_332\n      jump\t// in\n    tag_541:\n        /* \"MSWAP/Games/Games1.sol\":15320:15354  flipTheCoin(quickBetAmount, false) */\n      tag_544\n        /* \"MSWAP/Games/Games1.sol\":15332:15346  quickBetAmount */\n      sload(0x07)\n        /* \"MSWAP/Games/Games1.sol\":15348:15353  false */\n      0x00\n        /* \"MSWAP/Games/Games1.sol\":15320:15331  flipTheCoin */\n      tag_401\n        /* \"MSWAP/Games/Games1.sol\":15320:15354  flipTheCoin(quickBetAmount, false) */\n      jump\t// in\n    tag_544:\n        /* \"MSWAP/Games/Games1.sol\":15298:15354  (isHeads, isWinner) = flipTheCoin(quickBetAmount, false) */\n      swap1\n      swap4\n      swap1\n      swap3\n      pop\n        /* \"MSWAP/Games/Games1.sol\":15199:15362  function quickBetTails() external payable pausable returns (bool isHeads, bool isWinner){\r... */\n      swap1\n      pop\n      jump\t// out\n        /* \"MSWAP/Games/Games1.sol\":10990:11111  function setTokenTreasury(address newTokenTreasury) external onlyOwner{\r... */\n    tag_234:\n        /* \"MSWAP/Games/Games1.sol\":4877:4890  _checkOwner() */\n      tag_546\n        /* \"MSWAP/Games/Games1.sol\":4877:4888  _checkOwner */\n      tag_316\n        /* \"MSWAP/Games/Games1.sol\":4877:4890  _checkOwner() */\n      jump\t// in\n    tag_546:\n        /* \"MSWAP/Games/Games1.sol\":11071:11084  tokenTreasury */\n      0x02\n        /* \"MSWAP/Games/Games1.sol\":11071:11103  tokenTreasury = newTokenTreasury */\n      dup1\n      sload\n      not(sub(shl(0xa0, 0x01), 0x01))\n      and\n      sub(shl(0xa0, 0x01), 0x01)\n      swap3\n      swap1\n      swap3\n      and\n      swap2\n      swap1\n      swap2\n      or\n      swap1\n      sstore\n        /* \"MSWAP/Games/Games1.sol\":10990:11111  function setTokenTreasury(address newTokenTreasury) external onlyOwner{\r... */\n      jump\t// out\n        /* \"MSWAP/Games/Games1.sol\":17815:18826  function diceCall( uint256 _betAmount, uint256 choice, uint256 diceChoice) public payable pausable  returns (uint256 houseRoll, uint256 playerChoice, uint256 diceSize, bool isWinner) {\r... */\n    tag_247:\n        /* \"MSWAP/Games/Games1.sol\":10081:10089  isPaused */\n      sload(0x14)\n        /* \"MSWAP/Games/Games1.sol\":17924:17941  uint256 houseRoll */\n      0x00\n      swap1\n      dup2\n      swap1\n      dup2\n      swap1\n      dup2\n      swap1\n        /* \"MSWAP/Games/Games1.sol\":10081:10089  isPaused */\n      0xff\n      and\n        /* \"MSWAP/Games/Games1.sol\":10080:10089  !isPaused */\n      iszero\n        /* \"MSWAP/Games/Games1.sol\":10072:10110  require(!isPaused, \"games are paused\") */\n      tag_549\n      jumpi\n      mload(0x40)\n      shl(0xe5, 0x461bcd)\n      dup2\n      mstore\n      0x04\n      add\n      tag_319\n      swap1\n      tag_332\n      jump\t// in\n    tag_549:\n        /* \"MSWAP/Games/Games1.sol\":18017:18027  diceChoice */\n      dup5\n        /* \"MSWAP/Games/Games1.sol\":18031:18032  6 */\n      0x06\n        /* \"MSWAP/Games/Games1.sol\":18017:18032  diceChoice == 6 */\n      eq\n        /* \"MSWAP/Games/Games1.sol\":18017:18052  diceChoice == 6 || diceChoice == 12 */\n      dup1\n      tag_552\n      jumpi\n      pop\n        /* \"MSWAP/Games/Games1.sol\":18036:18046  diceChoice */\n      dup5\n        /* \"MSWAP/Games/Games1.sol\":18050:18052  12 */\n      0x0c\n        /* \"MSWAP/Games/Games1.sol\":18036:18052  diceChoice == 12 */\n      eq\n        /* \"MSWAP/Games/Games1.sol\":18017:18052  diceChoice == 6 || diceChoice == 12 */\n    tag_552:\n        /* \"MSWAP/Games/Games1.sol\":18017:18072  diceChoice == 6 || diceChoice == 12 || diceChoice == 20 */\n      dup1\n      tag_553\n      jumpi\n      pop\n        /* \"MSWAP/Games/Games1.sol\":18056:18066  diceChoice */\n      dup5\n        /* \"MSWAP/Games/Games1.sol\":18070:18072  20 */\n      0x14\n        /* \"MSWAP/Games/Games1.sol\":18056:18072  diceChoice == 20 */\n      eq\n        /* \"MSWAP/Games/Games1.sol\":18017:18072  diceChoice == 6 || diceChoice == 12 || diceChoice == 20 */\n    tag_553:\n        /* \"MSWAP/Games/Games1.sol\":18009:18102  require(diceChoice == 6 || diceChoice == 12 || diceChoice == 20, \"not a dice size available\") */\n      tag_554\n      jumpi\n      mload(0x40)\n      shl(0xe5, 0x461bcd)\n      dup2\n      mstore\n        /* \"#utility.yul\":16860:16862   */\n      0x20\n        /* \"MSWAP/Games/Games1.sol\":18009:18102  require(diceChoice == 6 || diceChoice == 12 || diceChoice == 20, \"not a dice size available\") */\n      0x04\n      dup3\n      add\n        /* \"#utility.yul\":16842:16863   */\n      mstore\n        /* \"#utility.yul\":16899:16901   */\n      0x19\n        /* \"#utility.yul\":16879:16897   */\n      0x24\n      dup3\n      add\n        /* \"#utility.yul\":16872:16902   */\n      mstore\n        /* \"#utility.yul\":16938:16965   */\n      0x6e6f74206120646963652073697a6520617661696c61626c6500000000000000\n        /* \"#utility.yul\":16918:16936   */\n      0x44\n      dup3\n      add\n        /* \"#utility.yul\":16911:16966   */\n      mstore\n        /* \"#utility.yul\":16983:17001   */\n      0x64\n      add\n        /* \"MSWAP/Games/Games1.sol\":18009:18102  require(diceChoice == 6 || diceChoice == 12 || diceChoice == 20, \"not a dice size available\") */\n      tag_319\n        /* \"#utility.yul\":16658:17007   */\n      jump\n        /* \"MSWAP/Games/Games1.sol\":18009:18102  require(diceChoice == 6 || diceChoice == 12 || diceChoice == 20, \"not a dice size available\") */\n    tag_554:\n        /* \"MSWAP/Games/Games1.sol\":18130:18131  0 */\n      0x00\n        /* \"MSWAP/Games/Games1.sol\":18121:18127  choice */\n      dup7\n        /* \"MSWAP/Games/Games1.sol\":18121:18131  choice > 0 */\n      gt\n        /* \"MSWAP/Games/Games1.sol\":18121:18155  choice > 0 && choice <= diceChoice */\n      dup1\n      iszero\n      tag_557\n      jumpi\n      pop\n        /* \"MSWAP/Games/Games1.sol\":18145:18155  diceChoice */\n      dup5\n        /* \"MSWAP/Games/Games1.sol\":18135:18141  choice */\n      dup7\n        /* \"MSWAP/Games/Games1.sol\":18135:18155  choice <= diceChoice */\n      gt\n      iszero\n        /* \"MSWAP/Games/Games1.sol\":18121:18155  choice > 0 && choice <= diceChoice */\n    tag_557:\n        /* \"MSWAP/Games/Games1.sol\":18113:18181  require(choice > 0 && choice <= diceChoice, \" must be within specs\") */\n      tag_558\n      jumpi\n      mload(0x40)\n      shl(0xe5, 0x461bcd)\n      dup2\n      mstore\n        /* \"#utility.yul\":17962:17964   */\n      0x20\n        /* \"MSWAP/Games/Games1.sol\":18113:18181  require(choice > 0 && choice <= diceChoice, \" must be within specs\") */\n      0x04\n      dup3\n      add\n        /* \"#utility.yul\":17944:17965   */\n      mstore\n        /* \"#utility.yul\":18001:18003   */\n      0x15\n        /* \"#utility.yul\":17981:17999   */\n      0x24\n      dup3\n      add\n        /* \"#utility.yul\":17974:18004   */\n      mstore\n      shl(0x58, 0x206d7573742062652077697468696e207370656373)\n        /* \"#utility.yul\":18020:18038   */\n      0x44\n      dup3\n      add\n        /* \"#utility.yul\":18013:18064   */\n      mstore\n        /* \"#utility.yul\":18081:18099   */\n      0x64\n      add\n        /* \"MSWAP/Games/Games1.sol\":18113:18181  require(choice > 0 && choice <= diceChoice, \" must be within specs\") */\n      tag_319\n        /* \"#utility.yul\":17760:18105   */\n      jump\n        /* \"MSWAP/Games/Games1.sol\":18113:18181  require(choice > 0 && choice <= diceChoice, \" must be within specs\") */\n    tag_558:\n        /* \"MSWAP/Games/Games1.sol\":18192:18213  checkReqs(_betAmount) */\n      tag_561\n        /* \"MSWAP/Games/Games1.sol\":18202:18212  _betAmount */\n      dup8\n        /* \"MSWAP/Games/Games1.sol\":18192:18201  checkReqs */\n      tag_338\n        /* \"MSWAP/Games/Games1.sol\":18192:18213  checkReqs(_betAmount) */\n      jump\t// in\n    tag_561:\n        /* \"MSWAP/Games/Games1.sol\":18255:18265  diceCall6M */\n      sload(0x0e)\n        /* \"MSWAP/Games/Games1.sol\":18293:18295  12 */\n      0x0c\n        /* \"MSWAP/Games/Games1.sol\":18279:18295  diceChoice == 12 */\n      dup7\n      eq\n        /* \"MSWAP/Games/Games1.sol\":18276:18321  if(diceChoice == 12) multiplier = diceCall12M */\n      iszero\n      tag_562\n      jumpi\n      pop\n        /* \"MSWAP/Games/Games1.sol\":18310:18321  diceCall12M */\n      sload(0x0f)\n        /* \"MSWAP/Games/Games1.sol\":18276:18321  if(diceChoice == 12) multiplier = diceCall12M */\n    tag_562:\n        /* \"MSWAP/Games/Games1.sol\":18335:18345  diceChoice */\n      dup6\n        /* \"MSWAP/Games/Games1.sol\":18349:18351  20 */\n      0x14\n        /* \"MSWAP/Games/Games1.sol\":18335:18351  diceChoice == 20 */\n      eq\n        /* \"MSWAP/Games/Games1.sol\":18332:18377  if(diceChoice == 20) multiplier = diceCall20M */\n      iszero\n      tag_563\n      jumpi\n      pop\n        /* \"MSWAP/Games/Games1.sol\":18366:18377  diceCall20M */\n      sload(0x10)\n        /* \"MSWAP/Games/Games1.sol\":18332:18377  if(diceChoice == 20) multiplier = diceCall20M */\n    tag_563:\n        /* \"MSWAP/Games/Games1.sol\":18405:18411  choice */\n      dup7\n        /* \"MSWAP/Games/Games1.sol\":18390:18411  playerChoice = choice */\n      swap4\n      pop\n        /* \"MSWAP/Games/Games1.sol\":18433:18443  diceChoice */\n      dup6\n        /* \"MSWAP/Games/Games1.sol\":18422:18443  diceSize = diceChoice */\n      swap3\n      pop\n        /* \"MSWAP/Games/Games1.sol\":18467:18472  false */\n      0x00\n        /* \"MSWAP/Games/Games1.sol\":18456:18472  isWinner = false */\n      swap2\n      pop\n        /* \"MSWAP/Games/Games1.sol\":18497:18512  rng(diceChoice) */\n      tag_564\n        /* \"MSWAP/Games/Games1.sol\":18501:18511  diceChoice */\n      dup7\n        /* \"MSWAP/Games/Games1.sol\":18497:18500  rng */\n      tag_154\n        /* \"MSWAP/Games/Games1.sol\":18497:18512  rng(diceChoice) */\n      jump\t// in\n    tag_564:\n        /* \"MSWAP/Games/Games1.sol\":18497:18515  rng(diceChoice) +1 */\n      tag_565\n      swap1\n        /* \"MSWAP/Games/Games1.sol\":18514:18515  1 */\n      0x01\n        /* \"MSWAP/Games/Games1.sol\":18497:18515  rng(diceChoice) +1 */\n      tag_449\n      jump\t// in\n    tag_565:\n        /* \"MSWAP/Games/Games1.sol\":18485:18515  houseRoll = rng(diceChoice) +1 */\n      swap5\n      pop\n        /* \"MSWAP/Games/Games1.sol\":18544:18550  choice */\n      dup7\n        /* \"MSWAP/Games/Games1.sol\":18531:18540  houseRoll */\n      dup6\n        /* \"MSWAP/Games/Games1.sol\":18531:18550  houseRoll == choice */\n      eq\n        /* \"MSWAP/Games/Games1.sol\":18528:18567  if(houseRoll == choice) isWinner = true */\n      iszero\n      tag_566\n      jumpi\n        /* \"MSWAP/Games/Games1.sol\":18563:18567  true */\n      0x01\n        /* \"MSWAP/Games/Games1.sol\":18552:18567  isWinner = true */\n      swap2\n      pop\n        /* \"MSWAP/Games/Games1.sol\":18528:18567  if(houseRoll == choice) isWinner = true */\n    tag_566:\n        /* \"MSWAP/Games/Games1.sol\":18580:18594  uint256 amount */\n      0x00\n        /* \"MSWAP/Games/Games1.sol\":18609:18617  isWinner */\n      dup3\n        /* \"MSWAP/Games/Games1.sol\":18606:18664  if(isWinner) amount = sendIsWinner(_betAmount, multiplier) */\n      iszero\n      tag_567\n      jumpi\n        /* \"MSWAP/Games/Games1.sol\":18628:18664  sendIsWinner(_betAmount, multiplier) */\n      tag_568\n        /* \"MSWAP/Games/Games1.sol\":18641:18651  _betAmount */\n      dup10\n        /* \"MSWAP/Games/Games1.sol\":18653:18663  multiplier */\n      dup4\n        /* \"MSWAP/Games/Games1.sol\":18628:18640  sendIsWinner */\n      tag_569\n        /* \"MSWAP/Games/Games1.sol\":18628:18664  sendIsWinner(_betAmount, multiplier) */\n      jump\t// in\n    tag_568:\n        /* \"MSWAP/Games/Games1.sol\":18619:18664  amount = sendIsWinner(_betAmount, multiplier) */\n      swap1\n      pop\n        /* \"MSWAP/Games/Games1.sol\":18606:18664  if(isWinner) amount = sendIsWinner(_betAmount, multiplier) */\n    tag_567:\n        /* \"MSWAP/Games/Games1.sol\":18678:18686  isWinner */\n      dup3\n        /* \"MSWAP/Games/Games1.sol\":18674:18720  if(!isWinner) amount = sendIsLoser(_betAmount) */\n      tag_570\n      jumpi\n        /* \"MSWAP/Games/Games1.sol\":18697:18720  sendIsLoser(_betAmount) */\n      tag_571\n        /* \"MSWAP/Games/Games1.sol\":18709:18719  _betAmount */\n      dup10\n        /* \"MSWAP/Games/Games1.sol\":18697:18708  sendIsLoser */\n      tag_572\n        /* \"MSWAP/Games/Games1.sol\":18697:18720  sendIsLoser(_betAmount) */\n      jump\t// in\n    tag_571:\n        /* \"MSWAP/Games/Games1.sol\":18688:18720  amount = sendIsLoser(_betAmount) */\n      swap1\n      pop\n        /* \"MSWAP/Games/Games1.sol\":18674:18720  if(!isWinner) amount = sendIsLoser(_betAmount) */\n    tag_570:\n        /* \"MSWAP/Games/Games1.sol\":18738:18818  diceCallResults(msg.sender, houseRoll, playerChoice, diceSize ,isWinner, amount) */\n      0x40\n      dup1\n      mload\n        /* \"MSWAP/Games/Games1.sol\":18754:18764  msg.sender */\n      caller\n        /* \"#utility.yul\":9356:9407   */\n      dup2\n      mstore\n        /* \"#utility.yul\":9438:9440   */\n      0x20\n        /* \"#utility.yul\":9423:9441   */\n      dup2\n      add\n        /* \"#utility.yul\":9416:9450   */\n      dup9\n      swap1\n      mstore\n        /* \"#utility.yul\":9466:9484   */\n      swap1\n      dup2\n      add\n        /* \"#utility.yul\":9459:9493   */\n      dup7\n      swap1\n      mstore\n        /* \"#utility.yul\":9524:9526   */\n      0x60\n        /* \"#utility.yul\":9509:9527   */\n      dup2\n      add\n        /* \"#utility.yul\":9502:9536   */\n      dup6\n      swap1\n      mstore\n        /* \"#utility.yul\":9580:9594   */\n      dup4\n      iszero\n        /* \"#utility.yul\":9573:9595   */\n      iszero\n        /* \"#utility.yul\":9567:9570   */\n      0x80\n        /* \"#utility.yul\":9552:9571   */\n      dup3\n      add\n        /* \"#utility.yul\":9545:9596   */\n      mstore\n        /* \"#utility.yul\":9394:9397   */\n      0xa0\n        /* \"#utility.yul\":9612:9631   */\n      dup2\n      add\n        /* \"#utility.yul\":9605:9640   */\n      dup3\n      swap1\n      mstore\n        /* \"MSWAP/Games/Games1.sol\":18738:18818  diceCallResults(msg.sender, houseRoll, playerChoice, diceSize ,isWinner, amount) */\n      0x08a2b5309b1d1ccd8ebe92ab072b951111018932c2bc5c535808182ba7255a8a\n      swap1\n        /* \"#utility.yul\":9343:9346   */\n      0xc0\n        /* \"#utility.yul\":9328:9347   */\n      add\n        /* \"MSWAP/Games/Games1.sol\":18738:18818  diceCallResults(msg.sender, houseRoll, playerChoice, diceSize ,isWinner, amount) */\n      mload(0x40)\n      dup1\n      swap2\n      sub\n      swap1\n      log1\n        /* \"MSWAP/Games/Games1.sol\":17998:18826  {\r... */\n      pop\n      pop\n        /* \"MSWAP/Games/Games1.sol\":17815:18826  function diceCall( uint256 _betAmount, uint256 choice, uint256 diceChoice) public payable pausable  returns (uint256 houseRoll, uint256 playerChoice, uint256 diceSize, bool isWinner) {\r... */\n      swap4\n      pop\n      swap4\n      pop\n      swap4\n      pop\n      swap4\n      jump\t// out\n        /* \"MSWAP/Games/Games1.sol\":14403:14625  function withdrawlAllGameToken() external onlyOwner {\r... */\n    tag_252:\n        /* \"MSWAP/Games/Games1.sol\":4877:4890  _checkOwner() */\n      tag_576\n        /* \"MSWAP/Games/Games1.sol\":4877:4888  _checkOwner */\n      tag_316\n        /* \"MSWAP/Games/Games1.sol\":4877:4890  _checkOwner() */\n      jump\t// in\n    tag_576:\n        /* \"MSWAP/Games/Games1.sol\":14492:14501  gameToken */\n      sload(0x01)\n        /* \"MSWAP/Games/Games1.sol\":14485:14527  IERC20(gameToken).balanceOf(address(this)) */\n      mload(0x40)\n      shl(0xe0, 0x70a08231)\n      dup2\n      mstore\n        /* \"MSWAP/Games/Games1.sol\":14521:14525  this */\n      address\n        /* \"MSWAP/Games/Games1.sol\":14485:14527  IERC20(gameToken).balanceOf(address(this)) */\n      0x04\n      dup3\n      add\n        /* \"#utility.yul\":5783:5834   */\n      mstore\n        /* \"MSWAP/Games/Games1.sol\":14462:14482  uint256 _tokenAmount */\n      0x00\n      swap2\n      sub(shl(0xa0, 0x01), 0x01)\n        /* \"MSWAP/Games/Games1.sol\":14492:14501  gameToken */\n      and\n      swap1\n        /* \"MSWAP/Games/Games1.sol\":14485:14512  IERC20(gameToken).balanceOf */\n      0x70a08231\n      swap1\n        /* \"#utility.yul\":5756:5774   */\n      0x24\n      add\n        /* \"MSWAP/Games/Games1.sol\":14485:14527  IERC20(gameToken).balanceOf(address(this)) */\n      0x20\n      mload(0x40)\n      dup1\n      dup4\n      sub\n      dup2\n      dup7\n      dup1\n      extcodesize\n      iszero\n      dup1\n      iszero\n      tag_579\n      jumpi\n      0x00\n      dup1\n      revert\n    tag_579:\n      pop\n      gas\n      staticcall\n      iszero\n      dup1\n      iszero\n      tag_581\n      jumpi\n      returndatasize\n      0x00\n      dup1\n      returndatacopy\n      revert(0x00, returndatasize)\n    tag_581:\n      pop\n      pop\n      pop\n      pop\n      mload(0x40)\n      returndatasize\n      not(0x1f)\n      0x1f\n      dup3\n      add\n      and\n      dup3\n      add\n      dup1\n      0x40\n      mstore\n      pop\n      dup2\n      add\n      swap1\n      tag_582\n      swap2\n      swap1\n      tag_408\n      jump\t// in\n    tag_582:\n        /* \"MSWAP/Games/Games1.sol\":14541:14550  gameToken */\n      sload(0x01)\n        /* \"MSWAP/Games/Games1.sol\":14534:14595  IERC20(gameToken).transfer(address(msg.sender), _tokenAmount) */\n      mload(0x40)\n      shl(0xe0, 0xa9059cbb)\n      dup2\n      mstore\n        /* \"MSWAP/Games/Games1.sol\":14569:14579  msg.sender */\n      caller\n        /* \"MSWAP/Games/Games1.sol\":14534:14595  IERC20(gameToken).transfer(address(msg.sender), _tokenAmount) */\n      0x04\n      dup3\n      add\n        /* \"#utility.yul\":8548:8599   */\n      mstore\n        /* \"#utility.yul\":8615:8633   */\n      0x24\n      dup2\n      add\n        /* \"#utility.yul\":8608:8642   */\n      dup4\n      swap1\n      mstore\n        /* \"MSWAP/Games/Games1.sol\":14462:14527  uint256 _tokenAmount = IERC20(gameToken).balanceOf(address(this)) */\n      swap2\n      swap3\n      pop\n      sub(shl(0xa0, 0x01), 0x01)\n        /* \"MSWAP/Games/Games1.sol\":14541:14550  gameToken */\n      and\n      swap1\n        /* \"MSWAP/Games/Games1.sol\":14534:14560  IERC20(gameToken).transfer */\n      0xa9059cbb\n      swap1\n        /* \"#utility.yul\":8521:8539   */\n      0x44\n      add\n        /* \"MSWAP/Games/Games1.sol\":14534:14595  IERC20(gameToken).transfer(address(msg.sender), _tokenAmount) */\n      0x20\n      mload(0x40)\n      dup1\n      dup4\n      sub\n      dup2\n      0x00\n      dup8\n      dup1\n      extcodesize\n      iszero\n      dup1\n      iszero\n      tag_584\n      jumpi\n      0x00\n      dup1\n      revert\n    tag_584:\n      pop\n      gas\n      call\n      iszero\n      dup1\n      iszero\n      tag_586\n      jumpi\n      returndatasize\n      0x00\n      dup1\n      returndatacopy\n      revert(0x00, returndatasize)\n    tag_586:\n      pop\n      pop\n      pop\n      pop\n      mload(0x40)\n      returndatasize\n      not(0x1f)\n      0x1f\n      dup3\n      add\n      and\n      dup3\n      add\n      dup1\n      0x40\n      mstore\n      pop\n      dup2\n      add\n      swap1\n      tag_587\n      swap2\n      swap1\n      tag_345\n      jump\t// in\n    tag_587:\n      pop\n      pop\n        /* \"MSWAP/Games/Games1.sol\":14618:14619  0 */\n      0x00\n        /* \"MSWAP/Games/Games1.sol\":14602:14615  feesCollected */\n      0x06\n        /* \"MSWAP/Games/Games1.sol\":14602:14619  feesCollected = 0 */\n      sstore\n        /* \"MSWAP/Games/Games1.sol\":14403:14625  function withdrawlAllGameToken() external onlyOwner {\r... */\n      jump\t// out\n        /* \"MSWAP/Games/Games1.sol\":16981:17791  function cutTheDeck(uint256 _betAmount) public payable pausable returns (uint256 houseCard, uint256 houseSuit, uint256 playerCard, uint256 playerSuit, uint256 result) {\r... */\n    tag_255:\n        /* \"MSWAP/Games/Games1.sol\":10081:10089  isPaused */\n      sload(0x14)\n        /* \"MSWAP/Games/Games1.sol\":17054:17071  uint256 houseCard */\n      0x00\n      swap1\n      dup2\n      swap1\n      dup2\n      swap1\n      dup2\n      swap1\n      dup2\n      swap1\n        /* \"MSWAP/Games/Games1.sol\":10081:10089  isPaused */\n      0xff\n      and\n        /* \"MSWAP/Games/Games1.sol\":10080:10089  !isPaused */\n      iszero\n        /* \"MSWAP/Games/Games1.sol\":10072:10110  require(!isPaused, \"games are paused\") */\n      tag_589\n      jumpi\n      mload(0x40)\n      shl(0xe5, 0x461bcd)\n      dup2\n      mstore\n      0x04\n      add\n      tag_319\n      swap1\n      tag_332\n      jump\t// in\n    tag_589:\n        /* \"MSWAP/Games/Games1.sol\":17159:17180  checkReqs(_betAmount) */\n      tag_592\n        /* \"MSWAP/Games/Games1.sol\":17169:17179  _betAmount */\n      dup7\n        /* \"MSWAP/Games/Games1.sol\":17159:17168  checkReqs */\n      tag_338\n        /* \"MSWAP/Games/Games1.sol\":17159:17180  checkReqs(_betAmount) */\n      jump\t// in\n    tag_592:\n        /* \"MSWAP/Games/Games1.sol\":17228:17242  drawACardCTD() */\n      tag_593\n        /* \"MSWAP/Games/Games1.sol\":17228:17240  drawACardCTD */\n      tag_594\n        /* \"MSWAP/Games/Games1.sol\":17228:17242  drawACardCTD() */\n      jump\t// in\n    tag_593:\n        /* \"MSWAP/Games/Games1.sol\":17201:17242  (playerCard, playerSuit) = drawACardCTD() */\n      swap1\n      swap4\n      pop\n      swap2\n      pop\n        /* \"MSWAP/Games/Games1.sol\":17278:17292  drawACardCTD() */\n      tag_595\n        /* \"MSWAP/Games/Games1.sol\":17278:17290  drawACardCTD */\n      tag_594\n        /* \"MSWAP/Games/Games1.sol\":17278:17292  drawACardCTD() */\n      jump\t// in\n    tag_595:\n        /* \"MSWAP/Games/Games1.sol\":17253:17292  (houseCard, houseSuit) = drawACardCTD() */\n      swap1\n      swap6\n      pop\n      swap4\n      pop\n        /* \"MSWAP/Games/Games1.sol\":17308:17330  playerCard > houseCard */\n      dup5\n      dup4\n      gt\n        /* \"MSWAP/Games/Games1.sol\":17305:17342  if(playerCard > houseCard) result = 0 */\n      iszero\n      tag_596\n      jumpi\n      pop\n        /* \"MSWAP/Games/Games1.sol\":17341:17342  0 */\n      0x00\n        /* \"MSWAP/Games/Games1.sol\":17305:17342  if(playerCard > houseCard) result = 0 */\n    tag_596:\n        /* \"MSWAP/Games/Games1.sol\":17377:17386  houseCard */\n      dup5\n        /* \"MSWAP/Games/Games1.sol\":17364:17374  playerCard */\n      dup4\n        /* \"MSWAP/Games/Games1.sol\":17364:17386  playerCard < houseCard */\n      lt\n        /* \"MSWAP/Games/Games1.sol\":17361:17398  if(playerCard < houseCard) result = 1 */\n      iszero\n      tag_597\n      jumpi\n      pop\n        /* \"MSWAP/Games/Games1.sol\":17397:17398  1 */\n      0x01\n        /* \"MSWAP/Games/Games1.sol\":17361:17398  if(playerCard < houseCard) result = 1 */\n    tag_597:\n        /* \"MSWAP/Games/Games1.sol\":17435:17444  houseCard */\n      dup5\n        /* \"MSWAP/Games/Games1.sol\":17421:17431  playerCard */\n      dup4\n        /* \"MSWAP/Games/Games1.sol\":17421:17444  playerCard == houseCard */\n      eq\n        /* \"MSWAP/Games/Games1.sol\":17418:17456  if(playerCard == houseCard) result = 2 */\n      iszero\n      tag_598\n      jumpi\n      pop\n        /* \"MSWAP/Games/Games1.sol\":17455:17456  2 */\n      0x02\n        /* \"MSWAP/Games/Games1.sol\":17418:17456  if(playerCard == houseCard) result = 2 */\n    tag_598:\n        /* \"MSWAP/Games/Games1.sol\":17476:17490  uint256 amount */\n      0x00\n        /* \"MSWAP/Games/Games1.sol\":17508:17519  result == 0 */\n      dup2\n        /* \"MSWAP/Games/Games1.sol\":17505:17564  if(result == 0) amount = sendIsWinner(_betAmount, deckCutM) */\n      tag_599\n      jumpi\n        /* \"MSWAP/Games/Games1.sol\":17530:17564  sendIsWinner(_betAmount, deckCutM) */\n      tag_600\n        /* \"MSWAP/Games/Games1.sol\":17543:17553  _betAmount */\n      dup8\n        /* \"MSWAP/Games/Games1.sol\":17555:17563  deckCutM */\n      sload(0x0d)\n        /* \"MSWAP/Games/Games1.sol\":17530:17542  sendIsWinner */\n      tag_569\n        /* \"MSWAP/Games/Games1.sol\":17530:17564  sendIsWinner(_betAmount, deckCutM) */\n      jump\t// in\n    tag_600:\n        /* \"MSWAP/Games/Games1.sol\":17521:17564  amount = sendIsWinner(_betAmount, deckCutM) */\n      swap1\n      pop\n        /* \"MSWAP/Games/Games1.sol\":17505:17564  if(result == 0) amount = sendIsWinner(_betAmount, deckCutM) */\n    tag_599:\n        /* \"MSWAP/Games/Games1.sol\":17578:17584  result */\n      dup2\n        /* \"MSWAP/Games/Games1.sol\":17588:17589  1 */\n      0x01\n        /* \"MSWAP/Games/Games1.sol\":17578:17589  result == 1 */\n      eq\n        /* \"MSWAP/Games/Games1.sol\":17575:17623  if(result == 1) amount = sendIsLoser(_betAmount) */\n      iszero\n      tag_601\n      jumpi\n        /* \"MSWAP/Games/Games1.sol\":17600:17623  sendIsLoser(_betAmount) */\n      tag_602\n        /* \"MSWAP/Games/Games1.sol\":17612:17622  _betAmount */\n      dup8\n        /* \"MSWAP/Games/Games1.sol\":17600:17611  sendIsLoser */\n      tag_572\n        /* \"MSWAP/Games/Games1.sol\":17600:17623  sendIsLoser(_betAmount) */\n      jump\t// in\n    tag_602:\n        /* \"MSWAP/Games/Games1.sol\":17591:17623  amount = sendIsLoser(_betAmount) */\n      swap1\n      pop\n        /* \"MSWAP/Games/Games1.sol\":17575:17623  if(result == 1) amount = sendIsLoser(_betAmount) */\n    tag_601:\n        /* \"MSWAP/Games/Games1.sol\":17651:17742  cutTheDeckResults(msg.sender, houseCard, houseSuit, playerCard, playerSuit, result, amount) */\n      0x40\n      dup1\n      mload\n        /* \"MSWAP/Games/Games1.sol\":17669:17679  msg.sender */\n      caller\n        /* \"#utility.yul\":10768:10819   */\n      dup2\n      mstore\n        /* \"#utility.yul\":10850:10852   */\n      0x20\n        /* \"#utility.yul\":10835:10853   */\n      dup2\n      add\n        /* \"#utility.yul\":10828:10862   */\n      dup9\n      swap1\n      mstore\n        /* \"#utility.yul\":10878:10896   */\n      swap1\n      dup2\n      add\n        /* \"#utility.yul\":10871:10905   */\n      dup7\n      swap1\n      mstore\n        /* \"#utility.yul\":10936:10938   */\n      0x60\n        /* \"#utility.yul\":10921:10939   */\n      dup2\n      add\n        /* \"#utility.yul\":10914:10948   */\n      dup6\n      swap1\n      mstore\n        /* \"#utility.yul\":10979:10982   */\n      0x80\n        /* \"#utility.yul\":10964:10983   */\n      dup2\n      add\n        /* \"#utility.yul\":10957:10992   */\n      dup5\n      swap1\n      mstore\n        /* \"#utility.yul\":10806:10809   */\n      0xa0\n        /* \"#utility.yul\":11008:11027   */\n      dup2\n      add\n        /* \"#utility.yul\":11001:11036   */\n      dup4\n      swap1\n      mstore\n        /* \"#utility.yul\":11067:11070   */\n      0xc0\n        /* \"#utility.yul\":11052:11071   */\n      dup2\n      add\n        /* \"#utility.yul\":11045:11080   */\n      dup3\n      swap1\n      mstore\n        /* \"MSWAP/Games/Games1.sol\":17651:17742  cutTheDeckResults(msg.sender, houseCard, houseSuit, playerCard, playerSuit, result, amount) */\n      0xd11a8c761be4ee6ea7436f4334f6edc0102e2655078c150d7b799db9efde994b\n      swap1\n        /* \"#utility.yul\":10755:10758   */\n      0xe0\n        /* \"#utility.yul\":10740:10759   */\n      add\n        /* \"MSWAP/Games/Games1.sol\":17651:17742  cutTheDeckResults(msg.sender, houseCard, houseSuit, playerCard, playerSuit, result, amount) */\n      mload(0x40)\n      dup1\n      swap2\n      sub\n      swap1\n      log1\n        /* \"MSWAP/Games/Games1.sol\":17767:17777  msg.sender */\n      caller\n        /* \"MSWAP/Games/Games1.sol\":17753:17778  usersRoundCTD[msg.sender] */\n      0x00\n      swap1\n      dup2\n      mstore\n        /* \"MSWAP/Games/Games1.sol\":17753:17766  usersRoundCTD */\n      0x15\n        /* \"MSWAP/Games/Games1.sol\":17753:17778  usersRoundCTD[msg.sender] */\n      0x20\n      mstore\n      0x40\n      dup2\n      keccak256\n        /* \"MSWAP/Games/Games1.sol\":17753:17783  usersRoundCTD[msg.sender] += 1 */\n      dup1\n      sload\n        /* \"MSWAP/Games/Games1.sol\":17782:17783  1 */\n      0x01\n      swap3\n        /* \"MSWAP/Games/Games1.sol\":17753:17778  usersRoundCTD[msg.sender] */\n      swap1\n        /* \"MSWAP/Games/Games1.sol\":17753:17783  usersRoundCTD[msg.sender] += 1 */\n      tag_605\n      swap1\n        /* \"MSWAP/Games/Games1.sol\":17782:17783  1 */\n      dup5\n      swap1\n        /* \"MSWAP/Games/Games1.sol\":17753:17783  usersRoundCTD[msg.sender] += 1 */\n      tag_449\n      jump\t// in\n    tag_605:\n      swap3\n      pop\n      pop\n      dup2\n      swap1\n      sstore\n      pop\n        /* \"MSWAP/Games/Games1.sol\":17148:17791  {\r... */\n      pop\n        /* \"MSWAP/Games/Games1.sol\":16981:17791  function cutTheDeck(uint256 _betAmount) public payable pausable returns (uint256 houseCard, uint256 houseSuit, uint256 playerCard, uint256 playerSuit, uint256 result) {\r... */\n      swap2\n      swap4\n      swap6\n      swap1\n      swap3\n      swap5\n      pop\n      jump\t// out\n        /* \"MSWAP/Games/Games1.sol\":10464:10687  function setPayOutDivisor(uint256 newPayOutDivisor) external onlyOwner {\r... */\n    tag_260:\n        /* \"MSWAP/Games/Games1.sol\":4877:4890  _checkOwner() */\n      tag_607\n        /* \"MSWAP/Games/Games1.sol\":4877:4888  _checkOwner */\n      tag_316\n        /* \"MSWAP/Games/Games1.sol\":4877:4890  _checkOwner() */\n      jump\t// in\n    tag_607:\n        /* \"MSWAP/Games/Games1.sol\":10574:10576  50 */\n      0x32\n        /* \"MSWAP/Games/Games1.sol\":10554:10570  newPayOutDivisor */\n      dup2\n        /* \"MSWAP/Games/Games1.sol\":10554:10576  newPayOutDivisor >= 50 */\n      lt\n      iszero\n        /* \"MSWAP/Games/Games1.sol\":10554:10603  newPayOutDivisor >= 50 && newPayOutDivisor <= 200 */\n      dup1\n      iszero\n      tag_609\n      jumpi\n      pop\n        /* \"MSWAP/Games/Games1.sol\":10600:10603  200 */\n      0xc8\n        /* \"MSWAP/Games/Games1.sol\":10580:10596  newPayOutDivisor */\n      dup2\n        /* \"MSWAP/Games/Games1.sol\":10580:10603  newPayOutDivisor <= 200 */\n      gt\n      iszero\n        /* \"MSWAP/Games/Games1.sol\":10554:10603  newPayOutDivisor >= 50 && newPayOutDivisor <= 200 */\n    tag_609:\n        /* \"MSWAP/Games/Games1.sol\":10546:10636  require(newPayOutDivisor >= 50 && newPayOutDivisor <= 200, \"must be between 50 and 200 %\") */\n      tag_610\n      jumpi\n      mload(0x40)\n      shl(0xe5, 0x461bcd)\n      dup2\n      mstore\n        /* \"#utility.yul\":15798:15800   */\n      0x20\n        /* \"MSWAP/Games/Games1.sol\":10546:10636  require(newPayOutDivisor >= 50 && newPayOutDivisor <= 200, \"must be between 50 and 200 %\") */\n      0x04\n      dup3\n      add\n        /* \"#utility.yul\":15780:15801   */\n      mstore\n        /* \"#utility.yul\":15837:15839   */\n      0x1c\n        /* \"#utility.yul\":15817:15835   */\n      0x24\n      dup3\n      add\n        /* \"#utility.yul\":15810:15840   */\n      mstore\n        /* \"#utility.yul\":15876:15906   */\n      0x6d757374206265206265747765656e20353020616e6420323030202500000000\n        /* \"#utility.yul\":15856:15874   */\n      0x44\n      dup3\n      add\n        /* \"#utility.yul\":15849:15907   */\n      mstore\n        /* \"#utility.yul\":15924:15942   */\n      0x64\n      add\n        /* \"MSWAP/Games/Games1.sol\":10546:10636  require(newPayOutDivisor >= 50 && newPayOutDivisor <= 200, \"must be between 50 and 200 %\") */\n      tag_319\n        /* \"#utility.yul\":15596:15948   */\n      jump\n        /* \"MSWAP/Games/Games1.sol\":10546:10636  require(newPayOutDivisor >= 50 && newPayOutDivisor <= 200, \"must be between 50 and 200 %\") */\n    tag_610:\n        /* \"MSWAP/Games/Games1.sol\":10647:10660  payOutDivisor */\n      0x09\n        /* \"MSWAP/Games/Games1.sol\":10647:10679  payOutDivisor = newPayOutDivisor */\n      sstore\n        /* \"MSWAP/Games/Games1.sol\":10464:10687  function setPayOutDivisor(uint256 newPayOutDivisor) external onlyOwner {\r... */\n      jump\t// out\n        /* \"MSWAP/Games/Games1.sol\":26619:27852  function startBlackJack(uint256 _betAmount) external payable pausable {\r... */\n    tag_263:\n        /* \"MSWAP/Games/Games1.sol\":10081:10089  isPaused */\n      and(0xff, sload(0x14))\n        /* \"MSWAP/Games/Games1.sol\":10080:10089  !isPaused */\n      iszero\n        /* \"MSWAP/Games/Games1.sol\":10072:10110  require(!isPaused, \"games are paused\") */\n      tag_614\n      jumpi\n      mload(0x40)\n      shl(0xe5, 0x461bcd)\n      dup2\n      mstore\n      0x04\n      add\n      tag_319\n      swap1\n      tag_332\n      jump\t// in\n    tag_614:\n        /* \"MSWAP/Games/Games1.sol\":26729:26739  msg.sender */\n      caller\n        /* \"MSWAP/Games/Games1.sol\":26700:26713  uint256 round */\n      0x00\n        /* \"MSWAP/Games/Games1.sol\":26716:26740  usersRoundBJ[msg.sender] */\n      swap1\n      dup2\n      mstore\n        /* \"MSWAP/Games/Games1.sol\":26716:26728  usersRoundBJ */\n      0x19\n        /* \"MSWAP/Games/Games1.sol\":26716:26740  usersRoundBJ[msg.sender] */\n      0x20\n      swap1\n      dup2\n      mstore\n      0x40\n      dup1\n      dup4\n      keccak256\n      sload\n        /* \"MSWAP/Games/Games1.sol\":26776:26792  blackJackByRound */\n      0x1a\n        /* \"MSWAP/Games/Games1.sol\":26776:26804  blackJackByRound[msg.sender] */\n      dup4\n      mstore\n      dup2\n      dup5\n      keccak256\n        /* \"MSWAP/Games/Games1.sol\":26776:26811  blackJackByRound[msg.sender][round] */\n      dup2\n      dup6\n      mstore\n      swap1\n      swap3\n      mstore\n      swap1\n      swap2\n      keccak256\n        /* \"MSWAP/Games/Games1.sol\":26831:26847  user.gameStarted */\n      0x07\n      dup2\n      add\n      sload\n      0xff\n      and\n        /* \"MSWAP/Games/Games1.sol\":26830:26847  !user.gameStarted */\n      iszero\n        /* \"MSWAP/Games/Games1.sol\":26822:26873  require(!user.gameStarted, \"Must finish last Game\") */\n      tag_617\n      jumpi\n      mload(0x40)\n      shl(0xe5, 0x461bcd)\n      dup2\n      mstore\n        /* \"#utility.yul\":19016:19018   */\n      0x20\n        /* \"MSWAP/Games/Games1.sol\":26822:26873  require(!user.gameStarted, \"Must finish last Game\") */\n      0x04\n      dup3\n      add\n        /* \"#utility.yul\":18998:19019   */\n      mstore\n        /* \"#utility.yul\":19055:19057   */\n      0x15\n        /* \"#utility.yul\":19035:19053   */\n      0x24\n      dup3\n      add\n        /* \"#utility.yul\":19028:19058   */\n      mstore\n      shl(0x58, 0x4d7573742066696e697368206c6173742047616d65)\n        /* \"#utility.yul\":19074:19092   */\n      0x44\n      dup3\n      add\n        /* \"#utility.yul\":19067:19118   */\n      mstore\n        /* \"#utility.yul\":19135:19153   */\n      0x64\n      add\n        /* \"MSWAP/Games/Games1.sol\":26822:26873  require(!user.gameStarted, \"Must finish last Game\") */\n      tag_319\n        /* \"#utility.yul\":18814:19159   */\n      jump\n        /* \"MSWAP/Games/Games1.sol\":26822:26873  require(!user.gameStarted, \"Must finish last Game\") */\n    tag_617:\n        /* \"MSWAP/Games/Games1.sol\":26894:26920  checkReqs(user.currentBet) */\n      tag_619\n        /* \"MSWAP/Games/Games1.sol\":26904:26908  user */\n      dup2\n        /* \"MSWAP/Games/Games1.sol\":26904:26919  user.currentBet */\n      0x04\n      add\n      sload\n        /* \"MSWAP/Games/Games1.sol\":26894:26903  checkReqs */\n      tag_338\n        /* \"MSWAP/Games/Games1.sol\":26894:26920  checkReqs(user.currentBet) */\n      jump\t// in\n    tag_619:\n        /* \"MSWAP/Games/Games1.sol\":26935:26950  user.currentBet */\n      0x04\n      dup2\n      dup2\n      add\n        /* \"MSWAP/Games/Games1.sol\":26935:26963  user.currentBet = _betAmount */\n      dup5\n      swap1\n      sstore\n        /* \"MSWAP/Games/Games1.sol\":26974:26990  user.gameStarted */\n      0x07\n      dup3\n      add\n        /* \"MSWAP/Games/Games1.sol\":26974:26997  user.gameStarted = true */\n      dup1\n      sload\n      not(0xff)\n      and\n        /* \"MSWAP/Games/Games1.sol\":26993:26997  true */\n      0x01\n        /* \"MSWAP/Games/Games1.sol\":26974:26997  user.gameStarted = true */\n      swap1\n      dup2\n      or\n      swap1\n      swap2\n      sstore\n        /* \"MSWAP/Games/Games1.sol\":27015:27024  gameToken */\n      sload\n        /* \"MSWAP/Games/Games1.sol\":27008:27077  IERC20(gameToken).transferFrom(msg.sender, address(this), _betAmount) */\n      mload(0x40)\n      shl(0xe0, 0x23b872dd)\n      dup2\n      mstore\n        /* \"MSWAP/Games/Games1.sol\":27039:27049  msg.sender */\n      caller\n        /* \"MSWAP/Games/Games1.sol\":27008:27077  IERC20(gameToken).transferFrom(msg.sender, address(this), _betAmount) */\n      swap3\n      dup2\n      add\n        /* \"#utility.yul\":6394:6428   */\n      swap3\n      swap1\n      swap3\n      mstore\n        /* \"MSWAP/Games/Games1.sol\":27059:27063  this */\n      address\n        /* \"#utility.yul\":6444:6462   */\n      0x24\n      dup4\n      add\n        /* \"#utility.yul\":6437:6480   */\n      mstore\n        /* \"#utility.yul\":6496:6514   */\n      0x44\n      dup3\n      add\n        /* \"#utility.yul\":6489:6523   */\n      dup6\n      swap1\n      mstore\n      sub(shl(0xa0, 0x01), 0x01)\n        /* \"MSWAP/Games/Games1.sol\":27015:27024  gameToken */\n      and\n      swap1\n        /* \"MSWAP/Games/Games1.sol\":27008:27038  IERC20(gameToken).transferFrom */\n      0x23b872dd\n      swap1\n        /* \"#utility.yul\":6329:6347   */\n      0x64\n      add\n        /* \"MSWAP/Games/Games1.sol\":27008:27077  IERC20(gameToken).transferFrom(msg.sender, address(this), _betAmount) */\n      0x20\n      mload(0x40)\n      dup1\n      dup4\n      sub\n      dup2\n      0x00\n      dup8\n      dup1\n      extcodesize\n      iszero\n      dup1\n      iszero\n      tag_621\n      jumpi\n      0x00\n      dup1\n      revert\n    tag_621:\n      pop\n      gas\n      call\n      iszero\n      dup1\n      iszero\n      tag_623\n      jumpi\n      returndatasize\n      0x00\n      dup1\n      returndatacopy\n      revert(0x00, returndatasize)\n    tag_623:\n      pop\n      pop\n      pop\n      pop\n      mload(0x40)\n      returndatasize\n      not(0x1f)\n      0x1f\n      dup3\n      add\n      and\n      dup3\n      add\n      dup1\n      0x40\n      mstore\n      pop\n      dup2\n      add\n      swap1\n      tag_624\n      swap2\n      swap1\n      tag_345\n      jump\t// in\n    tag_624:\n      pop\n        /* \"MSWAP/Games/Games1.sol\":27088:27100  uint256 suit */\n      0x00\n        /* \"MSWAP/Games/Games1.sol\":27111:27125  uint256 number */\n      dup1\n        /* \"MSWAP/Games/Games1.sol\":27142:27148  uint i */\n      0x00\n        /* \"MSWAP/Games/Games1.sol\":27138:27315  for(uint i=0; i<2; i++) {\r... */\n    tag_625:\n        /* \"MSWAP/Games/Games1.sol\":27154:27155  2 */\n      0x02\n        /* \"MSWAP/Games/Games1.sol\":27152:27153  i */\n      dup2\n        /* \"MSWAP/Games/Games1.sol\":27152:27155  i<2 */\n      lt\n        /* \"MSWAP/Games/Games1.sol\":27138:27315  for(uint i=0; i<2; i++) {\r... */\n      iszero\n      tag_626\n      jumpi\n        /* \"MSWAP/Games/Games1.sol\":27194:27207  drawACardBJ() */\n      tag_628\n        /* \"MSWAP/Games/Games1.sol\":27194:27205  drawACardBJ */\n      tag_435\n        /* \"MSWAP/Games/Games1.sol\":27194:27207  drawACardBJ() */\n      jump\t// in\n    tag_628:\n        /* \"MSWAP/Games/Games1.sol\":27222:27253  user.playerCardsSuit.push(suit) */\n      dup6\n      sload\n      0x01\n      dup2\n      dup2\n      add\n      dup9\n      sstore\n        /* \"MSWAP/Games/Games1.sol\":27222:27242  user.playerCardsSuit */\n      0x00\n        /* \"MSWAP/Games/Games1.sol\":27222:27253  user.playerCardsSuit.push(suit) */\n      dup9\n      dup2\n      mstore\n      0x20\n      dup1\n      dup3\n      keccak256\n      swap1\n      swap4\n      add\n      dup5\n      swap1\n      sstore\n        /* \"MSWAP/Games/Games1.sol\":27268:27290  user.playerCardsNumber */\n      dup2\n      dup10\n      add\n        /* \"MSWAP/Games/Games1.sol\":27268:27303  user.playerCardsNumber.push(number) */\n      dup1\n      sload\n      swap3\n      dup4\n      add\n      dup2\n      sstore\n      dup2\n      mstore\n      swap2\n      swap1\n      swap2\n      keccak256\n      add\n      dup3\n      swap1\n      sstore\n        /* \"MSWAP/Games/Games1.sol\":27177:27207  (number, suit) = drawACardBJ() */\n      swap4\n      pop\n      swap2\n      pop\n        /* \"MSWAP/Games/Games1.sol\":27157:27160  i++ */\n      dup1\n      tag_631\n      dup2\n      tag_508\n      jump\t// in\n    tag_631:\n      swap2\n      pop\n      pop\n        /* \"MSWAP/Games/Games1.sol\":27138:27315  for(uint i=0; i<2; i++) {\r... */\n      jump(tag_625)\n    tag_626:\n      pop\n        /* \"MSWAP/Games/Games1.sol\":27326:27335  bool bust */\n      0x00\n        /* \"MSWAP/Games/Games1.sol\":27337:27350  uint256 total */\n      dup1\n        /* \"MSWAP/Games/Games1.sol\":27354:27389  checkIfBust(user.playerCardsNumber) */\n      tag_632\n        /* \"MSWAP/Games/Games1.sol\":27366:27370  user */\n      dup6\n        /* \"MSWAP/Games/Games1.sol\":27366:27388  user.playerCardsNumber */\n      0x01\n      add\n        /* \"MSWAP/Games/Games1.sol\":27354:27389  checkIfBust(user.playerCardsNumber) */\n      dup1\n      sload\n      dup1\n      0x20\n      mul\n      0x20\n      add\n      mload(0x40)\n      swap1\n      dup2\n      add\n      0x40\n      mstore\n      dup1\n      swap3\n      swap2\n      swap1\n      dup2\n      dup2\n      mstore\n      0x20\n      add\n      dup3\n      dup1\n      sload\n      dup1\n      iszero\n      tag_439\n      jumpi\n      0x20\n      mul\n      dup3\n      add\n      swap2\n      swap1\n      0x00\n      mstore\n      keccak256(0x00, 0x20)\n      swap1\n      dup2\n      sload\n      dup2\n      mstore\n      0x20\n      add\n      swap1\n      0x01\n      add\n      swap1\n      dup1\n      dup4\n      gt\n      tag_440\n      jumpi\n      pop\n      pop\n      pop\n      pop\n      pop\n        /* \"MSWAP/Games/Games1.sol\":27354:27365  checkIfBust */\n      tag_202\n        /* \"MSWAP/Games/Games1.sol\":27354:27389  checkIfBust(user.playerCardsNumber) */\n      jump\t// in\n    tag_632:\n        /* \"MSWAP/Games/Games1.sol\":27400:27410  user.total */\n      0x05\n      dup8\n      add\n        /* \"MSWAP/Games/Games1.sol\":27400:27418  user.total = total */\n      dup2\n      swap1\n      sstore\n        /* \"MSWAP/Games/Games1.sol\":27325:27389  (bool bust, uint256 total) = checkIfBust(user.playerCardsNumber) */\n      swap1\n      swap3\n      pop\n      swap1\n      pop\n        /* \"MSWAP/Games/Games1.sol\":27448:27461  drawACardBJ() */\n      tag_635\n        /* \"MSWAP/Games/Games1.sol\":27448:27459  drawACardBJ */\n      tag_435\n        /* \"MSWAP/Games/Games1.sol\":27448:27461  drawACardBJ() */\n      jump\t// in\n    tag_635:\n        /* \"MSWAP/Games/Games1.sol\":27472:27491  user.houseCardsSuit */\n      0x02\n      dup8\n      add\n        /* \"MSWAP/Games/Games1.sol\":27472:27502  user.houseCardsSuit.push(suit) */\n      dup1\n      sload\n      0x01\n      dup2\n      dup2\n      add\n      dup4\n      sstore\n      0x00\n      swap3\n      dup4\n      mstore\n      0x20\n      dup1\n      dup5\n      keccak256\n      swap1\n      swap3\n      add\n      dup5\n      swap1\n      sstore\n        /* \"MSWAP/Games/Games1.sol\":27513:27534  user.houseCardsNumber */\n      0x03\n      dup11\n      add\n        /* \"MSWAP/Games/Games1.sol\":27513:27547  user.houseCardsNumber.push(number) */\n      dup1\n      sload\n      swap2\n      dup3\n      add\n      dup2\n      sstore\n      dup1\n      dup5\n      mstore\n      dup3\n      dup5\n      keccak256\n      swap1\n      swap2\n      add\n      dup6\n      swap1\n      sstore\n        /* \"MSWAP/Games/Games1.sol\":27589:27623  checkIfBust(user.houseCardsNumber) */\n      dup1\n      sload\n      0x40\n      dup1\n      mload\n      dup3\n      dup6\n      mul\n      dup2\n      add\n      dup6\n      add\n      swap1\n      swap2\n      mstore\n      dup2\n      dup2\n      mstore\n        /* \"MSWAP/Games/Games1.sol\":27431:27461  (number, suit) = drawACardBJ() */\n      swap5\n      swap10\n      pop\n      swap5\n      swap8\n      pop\n      swap2\n      swap4\n        /* \"MSWAP/Games/Games1.sol\":27589:27623  checkIfBust(user.houseCardsNumber) */\n      tag_638\n      swap4\n      swap3\n        /* \"MSWAP/Games/Games1.sol\":27513:27534  user.houseCardsNumber */\n      swap2\n        /* \"MSWAP/Games/Games1.sol\":27589:27623  checkIfBust(user.houseCardsNumber) */\n      dup4\n      add\n        /* \"MSWAP/Games/Games1.sol\":27513:27534  user.houseCardsNumber */\n      dup3\n        /* \"MSWAP/Games/Games1.sol\":27589:27623  checkIfBust(user.houseCardsNumber) */\n      dup3\n      dup1\n      iszero\n      tag_439\n      jumpi\n      0x20\n      mul\n      dup3\n      add\n      swap2\n      swap1\n      0x00\n      mstore\n      keccak256(0x00, 0x20)\n      swap1\n      dup2\n      sload\n      dup2\n      mstore\n      0x20\n      add\n      swap1\n      0x01\n      add\n      swap1\n      dup1\n      dup4\n      gt\n      tag_440\n      jumpi\n      pop\n      pop\n      pop\n      pop\n      pop\n        /* \"MSWAP/Games/Games1.sol\":27589:27600  checkIfBust */\n      tag_202\n        /* \"MSWAP/Games/Games1.sol\":27589:27623  checkIfBust(user.houseCardsNumber) */\n      jump\t// in\n    tag_638:\n        /* \"MSWAP/Games/Games1.sol\":27568:27623  (, uint256 dtotal) = checkIfBust(user.houseCardsNumber) */\n      swap2\n      pop\n      pop\n        /* \"MSWAP/Games/Games1.sol\":27647:27653  dtotal */\n      dup1\n        /* \"MSWAP/Games/Games1.sol\":27633:27637  user */\n      dup7\n        /* \"MSWAP/Games/Games1.sol\":27633:27644  user.Dtotal */\n      0x06\n      add\n        /* \"MSWAP/Games/Games1.sol\":27633:27653  user.Dtotal = dtotal */\n      dup2\n      swap1\n      sstore\n      pop\n        /* \"MSWAP/Games/Games1.sol\":27679:27844  BlackJackGame(msg.sender, user.playerCardsSuit ,user.playerCardsNumber, user.houseCardsSuit, user.houseCardsNumber, _betAmount, user.total, user.Dtotal, bust, false) */\n      0x04bcbdfa7453595c0b74372e71e39f68ec571585d404fc01d65bf50c191f6a8c\n        /* \"MSWAP/Games/Games1.sol\":27693:27703  msg.sender */\n      caller\n        /* \"MSWAP/Games/Games1.sol\":27705:27709  user */\n      dup8\n        /* \"MSWAP/Games/Games1.sol\":27705:27725  user.playerCardsSuit */\n      0x00\n      add\n        /* \"MSWAP/Games/Games1.sol\":27727:27731  user */\n      dup9\n        /* \"MSWAP/Games/Games1.sol\":27727:27749  user.playerCardsNumber */\n      0x01\n      add\n        /* \"MSWAP/Games/Games1.sol\":27751:27755  user */\n      dup10\n        /* \"MSWAP/Games/Games1.sol\":27751:27770  user.houseCardsSuit */\n      0x02\n      add\n        /* \"MSWAP/Games/Games1.sol\":27772:27776  user */\n      dup11\n        /* \"MSWAP/Games/Games1.sol\":27772:27793  user.houseCardsNumber */\n      0x03\n      add\n        /* \"MSWAP/Games/Games1.sol\":27795:27805  _betAmount */\n      dup14\n        /* \"MSWAP/Games/Games1.sol\":27807:27811  user */\n      dup13\n        /* \"MSWAP/Games/Games1.sol\":27807:27817  user.total */\n      0x05\n      add\n      sload\n        /* \"MSWAP/Games/Games1.sol\":27819:27823  user */\n      dup14\n        /* \"MSWAP/Games/Games1.sol\":27819:27830  user.Dtotal */\n      0x06\n      add\n      sload\n        /* \"MSWAP/Games/Games1.sol\":27832:27836  bust */\n      dup12\n        /* \"MSWAP/Games/Games1.sol\":27838:27843  false */\n      0x00\n        /* \"MSWAP/Games/Games1.sol\":27679:27844  BlackJackGame(msg.sender, user.playerCardsSuit ,user.playerCardsNumber, user.houseCardsSuit, user.houseCardsNumber, _betAmount, user.total, user.Dtotal, bust, false) */\n      mload(0x40)\n      tag_641\n      swap11\n      swap10\n      swap9\n      swap8\n      swap7\n      swap6\n      swap5\n      swap4\n      swap3\n      swap2\n      swap1\n      tag_447\n      jump\t// in\n    tag_641:\n      mload(0x40)\n      dup1\n      swap2\n      sub\n      swap1\n      log1\n        /* \"MSWAP/Games/Games1.sol\":26689:27852  {\r... */\n      pop\n      pop\n      pop\n      pop\n      pop\n      pop\n      pop\n        /* \"MSWAP/Games/Games1.sol\":26619:27852  function startBlackJack(uint256 _betAmount) external payable pausable {\r... */\n      pop\n      jump\t// out\n        /* \"MSWAP/Games/Games1.sol\":15370:15534  function BetTails(uint256 amount) external payable pausable returns (bool isHeads, bool isWinner){\r... */\n    tag_266:\n        /* \"MSWAP/Games/Games1.sol\":10081:10089  isPaused */\n      sload(0x14)\n        /* \"MSWAP/Games/Games1.sol\":15439:15451  bool isHeads */\n      0x00\n      swap1\n      dup2\n      swap1\n        /* \"MSWAP/Games/Games1.sol\":10081:10089  isPaused */\n      0xff\n      and\n        /* \"MSWAP/Games/Games1.sol\":10080:10089  !isPaused */\n      iszero\n        /* \"MSWAP/Games/Games1.sol\":10072:10110  require(!isPaused, \"games are paused\") */\n      tag_643\n      jumpi\n      mload(0x40)\n      shl(0xe5, 0x461bcd)\n      dup2\n      mstore\n      0x04\n      add\n      tag_319\n      swap1\n      tag_332\n      jump\t// in\n    tag_643:\n        /* \"MSWAP/Games/Games1.sol\":15500:15526  flipTheCoin(amount, false) */\n      tag_400\n        /* \"MSWAP/Games/Games1.sol\":15512:15518  amount */\n      dup4\n        /* \"MSWAP/Games/Games1.sol\":15520:15525  false */\n      0x00\n        /* \"MSWAP/Games/Games1.sol\":15500:15511  flipTheCoin */\n      tag_401\n        /* \"MSWAP/Games/Games1.sol\":15500:15526  flipTheCoin(amount, false) */\n      jump\t// in\n        /* \"MSWAP/Games/Games1.sol\":11290:11417  function maxBetAllowed() public view returns (uint256){\r... */\n    tag_274:\n        /* \"MSWAP/Games/Games1.sol\":11336:11343  uint256 */\n      0x00\n        /* \"MSWAP/Games/Games1.sol\":11396:11409  maxBetDivisor */\n      sload(0x0a)\n        /* \"MSWAP/Games/Games1.sol\":11378:11391  feesCollected */\n      sload(0x06)\n        /* \"MSWAP/Games/Games1.sol\":11364:11375  potAmount() */\n      tag_648\n        /* \"MSWAP/Games/Games1.sol\":11364:11373  potAmount */\n      tag_144\n        /* \"MSWAP/Games/Games1.sol\":11364:11375  potAmount() */\n      jump\t// in\n    tag_648:\n        /* \"MSWAP/Games/Games1.sol\":11364:11391  potAmount() - feesCollected */\n      tag_649\n      swap2\n      swap1\n      tag_410\n      jump\t// in\n    tag_649:\n        /* \"MSWAP/Games/Games1.sol\":11362:11409  ( potAmount() - feesCollected ) / maxBetDivisor */\n      tag_394\n      swap2\n      swap1\n      tag_469\n      jump\t// in\n        /* \"MSWAP/Games/Games1.sol\":22907:23352  function highCardTakeMoney() public pausable returns( uint256 amount) {\r... */\n    tag_282:\n        /* \"MSWAP/Games/Games1.sol\":10081:10089  isPaused */\n      sload(0x14)\n        /* \"MSWAP/Games/Games1.sol\":22961:22975  uint256 amount */\n      0x00\n      swap1\n        /* \"MSWAP/Games/Games1.sol\":10081:10089  isPaused */\n      0xff\n      and\n        /* \"MSWAP/Games/Games1.sol\":10080:10089  !isPaused */\n      iszero\n        /* \"MSWAP/Games/Games1.sol\":10072:10110  require(!isPaused, \"games are paused\") */\n      tag_652\n      jumpi\n      mload(0x40)\n      shl(0xe5, 0x461bcd)\n      dup2\n      mstore\n      0x04\n      add\n      tag_319\n      swap1\n      tag_332\n      jump\t// in\n    tag_652:\n        /* \"MSWAP/Games/Games1.sol\":23017:23027  msg.sender */\n      caller\n        /* \"MSWAP/Games/Games1.sol\":22988:23001  uint256 round */\n      0x00\n        /* \"MSWAP/Games/Games1.sol\":23004:23028  usersRoundHC[msg.sender] */\n      swap1\n      dup2\n      mstore\n        /* \"MSWAP/Games/Games1.sol\":23004:23016  usersRoundHC */\n      0x17\n        /* \"MSWAP/Games/Games1.sol\":23004:23028  usersRoundHC[msg.sender] */\n      0x20\n      swap1\n      dup2\n      mstore\n      0x40\n      dup1\n      dup4\n      keccak256\n      sload\n        /* \"MSWAP/Games/Games1.sol\":23063:23078  highCardByRound */\n      0x18\n        /* \"MSWAP/Games/Games1.sol\":23063:23090  highCardByRound[msg.sender] */\n      dup4\n      mstore\n      dup2\n      dup5\n      keccak256\n        /* \"MSWAP/Games/Games1.sol\":23063:23097  highCardByRound[msg.sender][round] */\n      dup2\n      dup6\n      mstore\n      swap1\n      swap3\n      mstore\n      swap1\n      swap2\n      keccak256\n        /* \"MSWAP/Games/Games1.sol\":23116:23132  user.gameStarted */\n      0x05\n      dup2\n      add\n      sload\n      0xff\n      and\n        /* \"MSWAP/Games/Games1.sol\":23108:23150  require(user.gameStarted, \"not in a game\") */\n      tag_655\n      jumpi\n      mload(0x40)\n      shl(0xe5, 0x461bcd)\n      dup2\n      mstore\n        /* \"#utility.yul\":14289:14291   */\n      0x20\n        /* \"MSWAP/Games/Games1.sol\":23108:23150  require(user.gameStarted, \"not in a game\") */\n      0x04\n      dup3\n      add\n        /* \"#utility.yul\":14271:14292   */\n      mstore\n        /* \"#utility.yul\":14328:14330   */\n      0x0d\n        /* \"#utility.yul\":14308:14326   */\n      0x24\n      dup3\n      add\n        /* \"#utility.yul\":14301:14331   */\n      mstore\n      shl(0x98, 0x6e6f7420696e20612067616d65)\n        /* \"#utility.yul\":14347:14365   */\n      0x44\n      dup3\n      add\n        /* \"#utility.yul\":14340:14383   */\n      mstore\n        /* \"#utility.yul\":14400:14418   */\n      0x64\n      add\n        /* \"MSWAP/Games/Games1.sol\":23108:23150  require(user.gameStarted, \"not in a game\") */\n      tag_319\n        /* \"#utility.yul\":14087:14424   */\n      jump\n        /* \"MSWAP/Games/Games1.sol\":23108:23150  require(user.gameStarted, \"not in a game\") */\n    tag_655:\n        /* \"MSWAP/Games/Games1.sol\":23188:23241  sendIsWinnerPrePaid(user.currentBet, user.multiplier) */\n      tag_658\n        /* \"MSWAP/Games/Games1.sol\":23208:23212  user */\n      dup2\n        /* \"MSWAP/Games/Games1.sol\":23208:23223  user.currentBet */\n      0x02\n      add\n      sload\n        /* \"MSWAP/Games/Games1.sol\":23225:23229  user */\n      dup3\n        /* \"MSWAP/Games/Games1.sol\":23225:23240  user.multiplier */\n      0x03\n      add\n      sload\n        /* \"MSWAP/Games/Games1.sol\":23188:23207  sendIsWinnerPrePaid */\n      tag_445\n        /* \"MSWAP/Games/Games1.sol\":23188:23241  sendIsWinnerPrePaid(user.currentBet, user.multiplier) */\n      jump\t// in\n    tag_658:\n        /* \"MSWAP/Games/Games1.sol\":23267:23304  HighCardTakeMoney(msg.sender, amount) */\n      0x40\n      dup1\n      mload\n        /* \"MSWAP/Games/Games1.sol\":23285:23295  msg.sender */\n      caller\n        /* \"#utility.yul\":8548:8599   */\n      dup2\n      mstore\n        /* \"#utility.yul\":8630:8632   */\n      0x20\n        /* \"#utility.yul\":8615:8633   */\n      dup2\n      add\n        /* \"#utility.yul\":8608:8642   */\n      dup4\n      swap1\n      mstore\n        /* \"MSWAP/Games/Games1.sol\":23179:23241  amount = sendIsWinnerPrePaid(user.currentBet, user.multiplier) */\n      swap2\n      swap5\n      pop\n        /* \"MSWAP/Games/Games1.sol\":23267:23304  HighCardTakeMoney(msg.sender, amount) */\n      0x293b0ebfc4f0e3517e5481605c5b7bd3194453b3f323bc1322b6d4e9ba326ec3\n      swap2\n        /* \"#utility.yul\":8521:8539   */\n      add\n        /* \"MSWAP/Games/Games1.sol\":23267:23304  HighCardTakeMoney(msg.sender, amount) */\n      mload(0x40)\n      dup1\n      swap2\n      sub\n      swap1\n      log1\n        /* \"MSWAP/Games/Games1.sol\":23328:23338  msg.sender */\n      caller\n        /* \"MSWAP/Games/Games1.sol\":23315:23339  usersRoundHC[msg.sender] */\n      0x00\n      swap1\n      dup2\n      mstore\n        /* \"MSWAP/Games/Games1.sol\":23315:23327  usersRoundHC */\n      0x17\n        /* \"MSWAP/Games/Games1.sol\":23315:23339  usersRoundHC[msg.sender] */\n      0x20\n      mstore\n      0x40\n      dup2\n      keccak256\n        /* \"MSWAP/Games/Games1.sol\":23315:23344  usersRoundHC[msg.sender] += 1 */\n      dup1\n      sload\n        /* \"MSWAP/Games/Games1.sol\":23343:23344  1 */\n      0x01\n      swap3\n        /* \"MSWAP/Games/Games1.sol\":23315:23339  usersRoundHC[msg.sender] */\n      swap1\n        /* \"MSWAP/Games/Games1.sol\":23315:23344  usersRoundHC[msg.sender] += 1 */\n      tag_660\n      swap1\n        /* \"MSWAP/Games/Games1.sol\":23343:23344  1 */\n      dup5\n      swap1\n        /* \"MSWAP/Games/Games1.sol\":23315:23344  usersRoundHC[msg.sender] += 1 */\n      tag_449\n      jump\t// in\n    tag_660:\n      swap3\n      pop\n      pop\n      dup2\n      swap1\n      sstore\n      pop\n        /* \"MSWAP/Games/Games1.sol\":22977:23352  {\r... */\n      pop\n      pop\n        /* \"MSWAP/Games/Games1.sol\":22907:23352  function highCardTakeMoney() public pausable returns( uint256 amount) {\r... */\n      swap1\n      jump\t// out\n        /* \"MSWAP/Games/Games1.sol\":5897:6098  function transferOwnership(address newOwner) public virtual onlyOwner {\r... */\n    tag_287:\n        /* \"MSWAP/Games/Games1.sol\":4877:4890  _checkOwner() */\n      tag_662\n        /* \"MSWAP/Games/Games1.sol\":4877:4888  _checkOwner */\n      tag_316\n        /* \"MSWAP/Games/Games1.sol\":4877:4890  _checkOwner() */\n      jump\t// in\n    tag_662:\n      sub(shl(0xa0, 0x01), 0x01)\n        /* \"MSWAP/Games/Games1.sol\":5986:6008  newOwner != address(0) */\n      dup2\n      and\n        /* \"MSWAP/Games/Games1.sol\":5978:6051  require(newOwner != address(0), \"Ownable: new owner is the zero address\") */\n      tag_664\n      jumpi\n      mload(0x40)\n      shl(0xe5, 0x461bcd)\n      dup2\n      mstore\n        /* \"#utility.yul\":14986:14988   */\n      0x20\n        /* \"MSWAP/Games/Games1.sol\":5978:6051  require(newOwner != address(0), \"Ownable: new owner is the zero address\") */\n      0x04\n      dup3\n      add\n        /* \"#utility.yul\":14968:14989   */\n      mstore\n        /* \"#utility.yul\":15025:15027   */\n      0x26\n        /* \"#utility.yul\":15005:15023   */\n      0x24\n      dup3\n      add\n        /* \"#utility.yul\":14998:15028   */\n      mstore\n        /* \"#utility.yul\":15064:15098   */\n      0x4f776e61626c653a206e6577206f776e657220697320746865207a65726f2061\n        /* \"#utility.yul\":15044:15062   */\n      0x44\n      dup3\n      add\n        /* \"#utility.yul\":15037:15099   */\n      mstore\n      shl(0xd0, 0x646472657373)\n        /* \"#utility.yul\":15115:15133   */\n      0x64\n      dup3\n      add\n        /* \"#utility.yul\":15108:15144   */\n      mstore\n        /* \"#utility.yul\":15161:15180   */\n      0x84\n      add\n        /* \"MSWAP/Games/Games1.sol\":5978:6051  require(newOwner != address(0), \"Ownable: new owner is the zero address\") */\n      tag_319\n        /* \"#utility.yul\":14784:15186   */\n      jump\n        /* \"MSWAP/Games/Games1.sol\":5978:6051  require(newOwner != address(0), \"Ownable: new owner is the zero address\") */\n    tag_664:\n        /* \"MSWAP/Games/Games1.sol\":6062:6090  _transferOwnership(newOwner) */\n      tag_667\n        /* \"MSWAP/Games/Games1.sol\":6081:6089  newOwner */\n      dup2\n        /* \"MSWAP/Games/Games1.sol\":6062:6080  _transferOwnership */\n      tag_457\n        /* \"MSWAP/Games/Games1.sol\":6062:6090  _transferOwnership(newOwner) */\n      jump\t// in\n    tag_667:\n        /* \"MSWAP/Games/Games1.sol\":5897:6098  function transferOwnership(address newOwner) public virtual onlyOwner {\r... */\n      pop\n      jump\t// out\n        /* \"MSWAP/Games/Games1.sol\":10878:10982  function setQuickBetAmount(uint256 amount) external onlyOwner {\r... */\n    tag_291:\n        /* \"MSWAP/Games/Games1.sol\":4877:4890  _checkOwner() */\n      tag_669\n        /* \"MSWAP/Games/Games1.sol\":4877:4888  _checkOwner */\n      tag_316\n        /* \"MSWAP/Games/Games1.sol\":4877:4890  _checkOwner() */\n      jump\t// in\n    tag_669:\n        /* \"MSWAP/Games/Games1.sol\":10951:10965  quickBetAmount */\n      0x07\n        /* \"MSWAP/Games/Games1.sol\":10951:10974  quickBetAmount = amount */\n      sstore\n        /* \"MSWAP/Games/Games1.sol\":10878:10982  function setQuickBetAmount(uint256 amount) external onlyOwner {\r... */\n      jump\t// out\n        /* \"MSWAP/Games/Games1.sol\":9884:9998  function setNewGame(address newGame, bool isActive) external onlyOwner {\r... */\n    tag_296:\n        /* \"MSWAP/Games/Games1.sol\":4877:4890  _checkOwner() */\n      tag_672\n        /* \"MSWAP/Games/Games1.sol\":4877:4888  _checkOwner */\n      tag_316\n        /* \"MSWAP/Games/Games1.sol\":4877:4890  _checkOwner() */\n      jump\t// in\n    tag_672:\n      sub(shl(0xa0, 0x01), 0x01)\n        /* \"MSWAP/Games/Games1.sol\":9964:9979  isGame[newGame] */\n      swap2\n      swap1\n      swap2\n      and\n      0x00\n      swap1\n      dup2\n      mstore\n        /* \"MSWAP/Games/Games1.sol\":9964:9970  isGame */\n      0x13\n        /* \"MSWAP/Games/Games1.sol\":9964:9979  isGame[newGame] */\n      0x20\n      mstore\n      0x40\n      swap1\n      keccak256\n        /* \"MSWAP/Games/Games1.sol\":9964:9990  isGame[newGame] = isActive */\n      dup1\n      sload\n      not(0xff)\n      and\n      swap2\n      iszero\n      iszero\n      swap2\n      swap1\n      swap2\n      or\n      swap1\n      sstore\n        /* \"MSWAP/Games/Games1.sol\":9884:9998  function setNewGame(address newGame, bool isActive) external onlyOwner {\r... */\n      jump\t// out\n        /* \"MSWAP/Games/Games1.sol\":14847:15019  function quickBetHeads() external payable pausable returns (bool isHeads, bool isWinner){\r... */\n    tag_298:\n        /* \"MSWAP/Games/Games1.sol\":10081:10089  isPaused */\n      sload(0x14)\n        /* \"MSWAP/Games/Games1.sol\":14907:14919  bool isHeads */\n      0x00\n      swap1\n      dup2\n      swap1\n        /* \"MSWAP/Games/Games1.sol\":10081:10089  isPaused */\n      0xff\n      and\n        /* \"MSWAP/Games/Games1.sol\":10080:10089  !isPaused */\n      iszero\n        /* \"MSWAP/Games/Games1.sol\":10072:10110  require(!isPaused, \"games are paused\") */\n      tag_675\n      jumpi\n      mload(0x40)\n      shl(0xe5, 0x461bcd)\n      dup2\n      mstore\n      0x04\n      add\n      tag_319\n      swap1\n      tag_332\n      jump\t// in\n    tag_675:\n        /* \"MSWAP/Games/Games1.sol\":14968:15001  flipTheCoin(quickBetAmount, true) */\n      tag_544\n        /* \"MSWAP/Games/Games1.sol\":14980:14994  quickBetAmount */\n      sload(0x07)\n        /* \"MSWAP/Games/Games1.sol\":14996:15000  true */\n      0x01\n        /* \"MSWAP/Games/Games1.sol\":14968:14979  flipTheCoin */\n      tag_401\n        /* \"MSWAP/Games/Games1.sol\":14968:15001  flipTheCoin(quickBetAmount, true) */\n      jump\t// in\n        /* \"MSWAP/Games/Games1.sol\":27860:28702  function blackJackHitMe() external pausable  {\r... */\n    tag_302:\n        /* \"MSWAP/Games/Games1.sol\":10081:10089  isPaused */\n      and(0xff, sload(0x14))\n        /* \"MSWAP/Games/Games1.sol\":10080:10089  !isPaused */\n      iszero\n        /* \"MSWAP/Games/Games1.sol\":10072:10110  require(!isPaused, \"games are paused\") */\n      tag_680\n      jumpi\n      mload(0x40)\n      shl(0xe5, 0x461bcd)\n      dup2\n      mstore\n      0x04\n      add\n      tag_319\n      swap1\n      tag_332\n      jump\t// in\n    tag_680:\n        /* \"MSWAP/Games/Games1.sol\":27945:27955  msg.sender */\n      caller\n        /* \"MSWAP/Games/Games1.sol\":27916:27929  uint256 round */\n      0x00\n        /* \"MSWAP/Games/Games1.sol\":27932:27956  usersRoundBJ[msg.sender] */\n      swap1\n      dup2\n      mstore\n        /* \"MSWAP/Games/Games1.sol\":27932:27944  usersRoundBJ */\n      0x19\n        /* \"MSWAP/Games/Games1.sol\":27932:27956  usersRoundBJ[msg.sender] */\n      0x20\n      swap1\n      dup2\n      mstore\n      0x40\n      dup1\n      dup4\n      keccak256\n      sload\n        /* \"MSWAP/Games/Games1.sol\":27992:28008  blackJackByRound */\n      0x1a\n        /* \"MSWAP/Games/Games1.sol\":27992:28020  blackJackByRound[msg.sender] */\n      dup4\n      mstore\n      dup2\n      dup5\n      keccak256\n        /* \"MSWAP/Games/Games1.sol\":27992:28027  blackJackByRound[msg.sender][round] */\n      dup2\n      dup6\n      mstore\n      swap1\n      swap3\n      mstore\n      swap1\n      swap2\n      keccak256\n        /* \"MSWAP/Games/Games1.sol\":28046:28062  user.gameStarted */\n      0x07\n      dup2\n      add\n      sload\n      0xff\n      and\n        /* \"MSWAP/Games/Games1.sol\":28038:28093  require(user.gameStarted, \"StartNewGame to play again\") */\n      tag_683\n      jumpi\n      mload(0x40)\n      shl(0xe5, 0x461bcd)\n      dup2\n      mstore\n      0x04\n      add\n      tag_319\n      swap1\n      tag_430\n      jump\t// in\n    tag_683:\n        /* \"MSWAP/Games/Games1.sol\":28106:28118  uint256 suit */\n      0x00\n        /* \"MSWAP/Games/Games1.sol\":28129:28143  uint256 number */\n      dup1\n        /* \"MSWAP/Games/Games1.sol\":28171:28184  drawACardBJ() */\n      tag_685\n        /* \"MSWAP/Games/Games1.sol\":28171:28182  drawACardBJ */\n      tag_435\n        /* \"MSWAP/Games/Games1.sol\":28171:28184  drawACardBJ() */\n      jump\t// in\n    tag_685:\n        /* \"MSWAP/Games/Games1.sol\":28195:28226  user.playerCardsSuit.push(suit) */\n      dup5\n      sload\n      0x01\n      dup2\n      dup2\n      add\n      dup8\n      sstore\n        /* \"MSWAP/Games/Games1.sol\":28195:28215  user.playerCardsSuit */\n      0x00\n        /* \"MSWAP/Games/Games1.sol\":28195:28226  user.playerCardsSuit.push(suit) */\n      dup8\n      dup2\n      mstore\n      0x20\n      dup1\n      dup3\n      keccak256\n      swap1\n      swap4\n      add\n      dup5\n      swap1\n      sstore\n        /* \"MSWAP/Games/Games1.sol\":28237:28259  user.playerCardsNumber */\n      dup2\n      dup9\n      add\n        /* \"MSWAP/Games/Games1.sol\":28237:28272  user.playerCardsNumber.push(number) */\n      dup1\n      sload\n      swap3\n      dup4\n      add\n      dup2\n      sstore\n      dup1\n      dup3\n      mstore\n      dup4\n      dup3\n      keccak256\n      swap1\n      swap3\n      add\n      dup6\n      swap1\n      sstore\n        /* \"MSWAP/Games/Games1.sol\":28315:28350  checkIfBust(user.playerCardsNumber) */\n      dup2\n      sload\n      0x40\n      dup1\n      mload\n      dup3\n      dup7\n      mul\n      dup2\n      add\n      dup7\n      add\n      swap1\n      swap2\n      mstore\n      dup2\n      dup2\n      mstore\n        /* \"MSWAP/Games/Games1.sol\":28154:28184  (number, suit) = drawACardBJ() */\n      swap5\n      swap8\n      pop\n      swap5\n      swap6\n      pop\n        /* \"MSWAP/Games/Games1.sol\":28195:28215  user.playerCardsSuit */\n      swap4\n      dup5\n      swap4\n        /* \"MSWAP/Games/Games1.sol\":28315:28350  checkIfBust(user.playerCardsNumber) */\n      tag_688\n      swap4\n      swap1\n      swap3\n        /* \"MSWAP/Games/Games1.sol\":28237:28259  user.playerCardsNumber */\n      swap2\n        /* \"MSWAP/Games/Games1.sol\":28315:28350  checkIfBust(user.playerCardsNumber) */\n      swap1\n      dup4\n      add\n        /* \"MSWAP/Games/Games1.sol\":28237:28259  user.playerCardsNumber */\n      dup3\n        /* \"MSWAP/Games/Games1.sol\":28315:28350  checkIfBust(user.playerCardsNumber) */\n      dup3\n      dup1\n      iszero\n      tag_439\n      jumpi\n      0x20\n      mul\n      dup3\n      add\n      swap2\n      swap1\n      0x00\n      mstore\n      keccak256(0x00, 0x20)\n      swap1\n      dup2\n      sload\n      dup2\n      mstore\n      0x20\n      add\n      swap1\n      0x01\n      add\n      swap1\n      dup1\n      dup4\n      gt\n      tag_440\n      jumpi\n      pop\n      pop\n      pop\n      pop\n      pop\n        /* \"MSWAP/Games/Games1.sol\":28315:28326  checkIfBust */\n      tag_202\n        /* \"MSWAP/Games/Games1.sol\":28315:28350  checkIfBust(user.playerCardsNumber) */\n      jump\t// in\n    tag_688:\n        /* \"MSWAP/Games/Games1.sol\":28362:28372  user.total */\n      0x05\n      dup8\n      add\n        /* \"MSWAP/Games/Games1.sol\":28362:28380  user.total = total */\n      dup2\n      swap1\n      sstore\n        /* \"MSWAP/Games/Games1.sol\":28521:28536  user.currentBet */\n      0x04\n      dup8\n      add\n      sload\n        /* \"MSWAP/Games/Games1.sol\":28550:28561  user.Dtotal */\n      0x06\n      dup9\n      add\n      sload\n        /* \"MSWAP/Games/Games1.sol\":28405:28575  BlackJackGame(msg.sender, user.playerCardsSuit ,user.playerCardsNumber, user.houseCardsSuit, user.houseCardsNumber, user.currentBet, user.total, user.Dtotal, bust, false) */\n      mload(0x40)\n        /* \"MSWAP/Games/Games1.sol\":28286:28350  (bool bust, uint256 total) = checkIfBust(user.playerCardsNumber) */\n      swap4\n      swap6\n      pop\n      swap2\n      swap4\n      pop\n        /* \"MSWAP/Games/Games1.sol\":28405:28575  BlackJackGame(msg.sender, user.playerCardsSuit ,user.playerCardsNumber, user.houseCardsSuit, user.houseCardsNumber, user.currentBet, user.total, user.Dtotal, bust, false) */\n      0x04bcbdfa7453595c0b74372e71e39f68ec571585d404fc01d65bf50c191f6a8c\n      swap3\n      tag_691\n      swap3\n        /* \"MSWAP/Games/Games1.sol\":28419:28429  msg.sender */\n      caller\n      swap3\n        /* \"MSWAP/Games/Games1.sol\":28362:28366  user */\n      dup11\n      swap3\n        /* \"MSWAP/Games/Games1.sol\":28453:28475  user.playerCardsNumber */\n      0x01\n      dup5\n      add\n      swap3\n        /* \"MSWAP/Games/Games1.sol\":28477:28496  user.houseCardsSuit */\n      0x02\n      dup6\n      add\n      swap3\n        /* \"MSWAP/Games/Games1.sol\":28498:28519  user.houseCardsNumber */\n      0x03\n      dup7\n      add\n      swap3\n        /* \"MSWAP/Games/Games1.sol\":28521:28536  user.currentBet */\n      swap1\n      swap2\n        /* \"MSWAP/Games/Games1.sol\":28286:28350  (bool bust, uint256 total) = checkIfBust(user.playerCardsNumber) */\n      dup11\n      swap2\n      dup13\n      swap1\n        /* \"MSWAP/Games/Games1.sol\":28431:28451  user.playerCardsSuit */\n      0x00\n      swap1\n        /* \"MSWAP/Games/Games1.sol\":28405:28575  BlackJackGame(msg.sender, user.playerCardsSuit ,user.playerCardsNumber, user.houseCardsSuit, user.houseCardsNumber, user.currentBet, user.total, user.Dtotal, bust, false) */\n      tag_447\n      jump\t// in\n    tag_691:\n      mload(0x40)\n      dup1\n      swap2\n      sub\n      swap1\n      log1\n        /* \"MSWAP/Games/Games1.sol\":28590:28594  bust */\n      dup2\n        /* \"MSWAP/Games/Games1.sol\":28587:28695  if(bust) {\r... */\n      iszero\n      tag_694\n      jumpi\n        /* \"MSWAP/Games/Games1.sol\":28625:28635  msg.sender */\n      caller\n        /* \"MSWAP/Games/Games1.sol\":28612:28636  usersRoundBJ[msg.sender] */\n      0x00\n      swap1\n      dup2\n      mstore\n        /* \"MSWAP/Games/Games1.sol\":28612:28624  usersRoundBJ */\n      0x19\n        /* \"MSWAP/Games/Games1.sol\":28612:28636  usersRoundBJ[msg.sender] */\n      0x20\n      mstore\n      0x40\n      dup2\n      keccak256\n        /* \"MSWAP/Games/Games1.sol\":28612:28641  usersRoundBJ[msg.sender] += 1 */\n      dup1\n      sload\n        /* \"MSWAP/Games/Games1.sol\":28640:28641  1 */\n      0x01\n      swap3\n        /* \"MSWAP/Games/Games1.sol\":28612:28636  usersRoundBJ[msg.sender] */\n      swap1\n        /* \"MSWAP/Games/Games1.sol\":28612:28641  usersRoundBJ[msg.sender] += 1 */\n      tag_693\n      swap1\n        /* \"MSWAP/Games/Games1.sol\":28640:28641  1 */\n      dup5\n      swap1\n        /* \"MSWAP/Games/Games1.sol\":28612:28641  usersRoundBJ[msg.sender] += 1 */\n      tag_449\n      jump\t// in\n    tag_693:\n      swap1\n      swap2\n      sstore\n      pop\n      pop\n        /* \"MSWAP/Games/Games1.sol\":28666:28681  user.currentBet */\n      0x04\n      dup6\n      add\n      sload\n        /* \"MSWAP/Games/Games1.sol\":28657:28682  sendFees(user.currentBet) */\n      tag_694\n      swap1\n        /* \"MSWAP/Games/Games1.sol\":28657:28665  sendFees */\n      tag_528\n        /* \"MSWAP/Games/Games1.sol\":28657:28682  sendFees(user.currentBet) */\n      jump\t// in\n    tag_694:\n        /* \"MSWAP/Games/Games1.sol\":27905:28702  {\r... */\n      pop\n      pop\n      pop\n      pop\n      pop\n      pop\n        /* \"MSWAP/Games/Games1.sol\":27860:28702  function blackJackHitMe() external pausable  {\r... */\n      jump\t// out\n        /* \"MSWAP/Games/Games1.sol\":21363:22899  function highCardGuess(bool guessHigh) external pausable  returns (bool resultHigh, uint256 LastCardSuit, uint256 LastCardNumber, uint256 newCardSuit, uint256 newCardNumber, bool isWinner, bool isJackpot, uint256 winnings ) {\r... */\n    tag_306:\n        /* \"MSWAP/Games/Games1.sol\":21430:21445  bool resultHigh */\n      0x00\n        /* \"MSWAP/Games/Games1.sol\":21447:21467  uint256 LastCardSuit */\n      dup1\n        /* \"MSWAP/Games/Games1.sol\":21469:21491  uint256 LastCardNumber */\n      0x00\n        /* \"MSWAP/Games/Games1.sol\":21493:21512  uint256 newCardSuit */\n      dup1\n        /* \"MSWAP/Games/Games1.sol\":21514:21535  uint256 newCardNumber */\n      0x00\n        /* \"MSWAP/Games/Games1.sol\":21537:21550  bool isWinner */\n      dup1\n        /* \"MSWAP/Games/Games1.sol\":21552:21566  bool isJackpot */\n      0x00\n        /* \"MSWAP/Games/Games1.sol\":21568:21584  uint256 winnings */\n      dup1\n        /* \"MSWAP/Games/Games1.sol\":10081:10089  isPaused */\n      0x14\n      0x00\n      swap1\n      sload\n      swap1\n      0x0100\n      exp\n      swap1\n      div\n      0xff\n      and\n        /* \"MSWAP/Games/Games1.sol\":10080:10089  !isPaused */\n      iszero\n        /* \"MSWAP/Games/Games1.sol\":10072:10110  require(!isPaused, \"games are paused\") */\n      tag_696\n      jumpi\n      mload(0x40)\n      shl(0xe5, 0x461bcd)\n      dup2\n      mstore\n      0x04\n      add\n      tag_319\n      swap1\n      tag_332\n      jump\t// in\n    tag_696:\n        /* \"MSWAP/Games/Games1.sol\":21627:21637  msg.sender */\n      caller\n        /* \"MSWAP/Games/Games1.sol\":21598:21611  uint256 round */\n      0x00\n        /* \"MSWAP/Games/Games1.sol\":21614:21638  usersRoundHC[msg.sender] */\n      swap1\n      dup2\n      mstore\n        /* \"MSWAP/Games/Games1.sol\":21614:21626  usersRoundHC */\n      0x17\n        /* \"MSWAP/Games/Games1.sol\":21614:21638  usersRoundHC[msg.sender] */\n      0x20\n      swap1\n      dup2\n      mstore\n      0x40\n      dup1\n      dup4\n      keccak256\n      sload\n        /* \"MSWAP/Games/Games1.sol\":21673:21688  highCardByRound */\n      0x18\n        /* \"MSWAP/Games/Games1.sol\":21673:21700  highCardByRound[msg.sender] */\n      dup4\n      mstore\n      dup2\n      dup5\n      keccak256\n        /* \"MSWAP/Games/Games1.sol\":21673:21707  highCardByRound[msg.sender][round] */\n      dup2\n      dup6\n      mstore\n      swap1\n      swap3\n      mstore\n      swap1\n      swap2\n      keccak256\n        /* \"MSWAP/Games/Games1.sol\":21726:21742  user.gameStarted */\n      0x05\n      dup2\n      add\n      sload\n      0xff\n      and\n        /* \"MSWAP/Games/Games1.sol\":21718:21773  require(user.gameStarted, \"StartNewGame to play again\") */\n      tag_699\n      jumpi\n      mload(0x40)\n      shl(0xe5, 0x461bcd)\n      dup2\n      mstore\n      0x04\n      add\n      tag_319\n      swap1\n      tag_430\n      jump\t// in\n    tag_699:\n        /* \"MSWAP/Games/Games1.sol\":21817:21837  user.currentCardSuit */\n      dup1\n      sload\n        /* \"MSWAP/Games/Games1.sol\":21865:21887  user.currentCardNumber */\n      0x01\n      dup3\n      add\n      sload\n        /* \"MSWAP/Games/Games1.sol\":21817:21837  user.currentCardSuit */\n      swap1\n      swap10\n      pop\n        /* \"MSWAP/Games/Games1.sol\":21865:21887  user.currentCardNumber */\n      swap8\n      pop\n        /* \"MSWAP/Games/Games1.sol\":21949:21962  drawACardHC() */\n      tag_701\n        /* \"MSWAP/Games/Games1.sol\":21949:21960  drawACardHC */\n      tag_347\n        /* \"MSWAP/Games/Games1.sol\":21949:21962  drawACardHC() */\n      jump\t// in\n    tag_701:\n        /* \"MSWAP/Games/Games1.sol\":21900:21962  (user.currentCardNumber, user.currentCardSuit) = drawACardHC() */\n      dup3\n      sstore\n        /* \"MSWAP/Games/Games1.sol\":21901:21923  user.currentCardNumber */\n      0x01\n      dup3\n      add\n        /* \"MSWAP/Games/Games1.sol\":21900:21962  (user.currentCardNumber, user.currentCardSuit) = drawACardHC() */\n      dup2\n      swap1\n      sstore\n        /* \"MSWAP/Games/Games1.sol\":21978:22017  user.currentCardNumber > LastCardNumber */\n      dup9\n      lt\n        /* \"MSWAP/Games/Games1.sol\":21975:22036  if(user.currentCardNumber > LastCardNumber) resultHigh = true */\n      iszero\n      tag_702\n      jumpi\n        /* \"MSWAP/Games/Games1.sol\":22032:22036  true */\n      0x01\n        /* \"MSWAP/Games/Games1.sol\":22019:22036  resultHigh = true */\n      swap10\n      pop\n        /* \"MSWAP/Games/Games1.sol\":21975:22036  if(user.currentCardNumber > LastCardNumber) resultHigh = true */\n    tag_702:\n        /* \"MSWAP/Games/Games1.sol\":22065:22075  resultHigh */\n      dup10\n        /* \"MSWAP/Games/Games1.sol\":22052:22075  guessHigh == resultHigh */\n      iszero\n      iszero\n        /* \"MSWAP/Games/Games1.sol\":22052:22061  guessHigh */\n      dup12\n        /* \"MSWAP/Games/Games1.sol\":22052:22075  guessHigh == resultHigh */\n      iszero\n      iszero\n      eq\n        /* \"MSWAP/Games/Games1.sol\":22049:22446  if(guessHigh == resultHigh) {\r... */\n      iszero\n      tag_708\n      jumpi\n        /* \"MSWAP/Games/Games1.sol\":22128:22141  highCardStart */\n      sload(0x11)\n        /* \"MSWAP/Games/Games1.sol\":22110:22114  user */\n      dup2\n        /* \"MSWAP/Games/Games1.sol\":22110:22125  user.multiplier */\n      0x03\n      add\n      sload\n        /* \"MSWAP/Games/Games1.sol\":22110:22141  user.multiplier + highCardStart */\n      tag_704\n      swap2\n      swap1\n      tag_449\n      jump\t// in\n    tag_704:\n        /* \"MSWAP/Games/Games1.sol\":22092:22107  user.multiplier */\n      0x03\n      dup3\n      add\n        /* \"MSWAP/Games/Games1.sol\":22092:22141  user.multiplier = user.multiplier + highCardStart */\n      dup2\n      swap1\n      sstore\n        /* \"MSWAP/Games/Games1.sol\":22220:22235  user.currentBet */\n      0x02\n      dup3\n      add\n      sload\n      swap1\n        /* \"MSWAP/Games/Games1.sol\":22212:22215  100 */\n      0x64\n      swap1\n        /* \"MSWAP/Games/Games1.sol\":22175:22208  user.currentBet * user.multiplier */\n      tag_705\n      swap1\n        /* \"MSWAP/Games/Games1.sol\":22220:22235  user.currentBet */\n      dup4\n        /* \"MSWAP/Games/Games1.sol\":22175:22208  user.currentBet * user.multiplier */\n      tag_467\n      jump\t// in\n    tag_705:\n        /* \"MSWAP/Games/Games1.sol\":22174:22215  (user.currentBet * user.multiplier) / 100 */\n      tag_706\n      swap2\n      swap1\n      tag_469\n      jump\t// in\n    tag_706:\n        /* \"MSWAP/Games/Games1.sol\":22172:22235  ( (user.currentBet * user.multiplier) / 100 ) + user.currentBet */\n      tag_707\n      swap2\n      swap1\n      tag_449\n      jump\t// in\n    tag_707:\n        /* \"MSWAP/Games/Games1.sol\":22156:22169  user.winnings */\n      0x04\n      dup3\n      add\n        /* \"MSWAP/Games/Games1.sol\":22156:22235  user.winnings = ( (user.currentBet * user.multiplier) / 100 ) + user.currentBet */\n      dup2\n      swap1\n      sstore\n        /* \"MSWAP/Games/Games1.sol\":22322:22337  user.multiplier */\n      0x03\n      dup3\n      add\n      sload\n        /* \"MSWAP/Games/Games1.sol\":22300:22304  true */\n      0x01\n      swap7\n      pop\n        /* \"MSWAP/Games/Games1.sol\":22156:22235  user.winnings = ( (user.currentBet * user.multiplier) / 100 ) + user.currentBet */\n      swap1\n      swap4\n      pop\n        /* \"MSWAP/Games/Games1.sol\":22341:22344  300 */\n      0x012c\n      gt\n        /* \"MSWAP/Games/Games1.sol\":22319:22435  if(user.multiplier >= 300) {\r... */\n      tag_708\n      jumpi\n        /* \"MSWAP/Games/Games1.sol\":22377:22381  true */\n      0x01\n        /* \"MSWAP/Games/Games1.sol\":22365:22381  isJackpot = true */\n      swap4\n      pop\n        /* \"MSWAP/Games/Games1.sol\":22400:22419  highCardTakeMoney() */\n      tag_709\n        /* \"MSWAP/Games/Games1.sol\":22400:22417  highCardTakeMoney */\n      tag_282\n        /* \"MSWAP/Games/Games1.sol\":22400:22419  highCardTakeMoney() */\n      jump\t// in\n    tag_709:\n      pop\n        /* \"MSWAP/Games/Games1.sol\":22319:22435  if(user.multiplier >= 300) {\r... */\n    tag_708:\n        /* \"MSWAP/Games/Games1.sol\":22532:22552  user.currentCardSuit */\n      dup1\n      sload\n        /* \"MSWAP/Games/Games1.sol\":22555:22577  user.currentCardNumber */\n      0x01\n      dup3\n      add\n      sload\n        /* \"MSWAP/Games/Games1.sol\":22611:22626  user.currentBet */\n      0x02\n      dup4\n      add\n      sload\n        /* \"MSWAP/Games/Games1.sol\":22473:22627  HighCardGuess( msg.sender, LastCardSuit,  LastCardNumber,  user.currentCardSuit,  user.currentCardNumber,  isWinner, winnings, isJackpot, user.currentBet) */\n      0x40\n      dup1\n      mload\n        /* \"MSWAP/Games/Games1.sol\":22488:22498  msg.sender */\n      caller\n        /* \"#utility.yul\":10010:10061   */\n      dup2\n      mstore\n        /* \"#utility.yul\":10092:10094   */\n      0x20\n        /* \"#utility.yul\":10077:10095   */\n      dup2\n      add\n        /* \"#utility.yul\":10070:10104   */\n      dup15\n      swap1\n      mstore\n        /* \"#utility.yul\":10120:10138   */\n      dup1\n      dup3\n      add\n        /* \"#utility.yul\":10113:10147   */\n      dup14\n      swap1\n      mstore\n        /* \"#utility.yul\":10178:10180   */\n      0x60\n        /* \"#utility.yul\":10163:10181   */\n      dup2\n      add\n        /* \"#utility.yul\":10156:10190   */\n      swap5\n      swap1\n      swap5\n      mstore\n        /* \"#utility.yul\":10221:10224   */\n      0x80\n        /* \"#utility.yul\":10206:10225   */\n      dup5\n      add\n        /* \"#utility.yul\":10199:10234   */\n      swap3\n      swap1\n      swap3\n      mstore\n        /* \"#utility.yul\":10278:10292   */\n      dup8\n      iszero\n        /* \"#utility.yul\":10271:10293   */\n      iszero\n        /* \"#utility.yul\":10048:10051   */\n      0xa0\n        /* \"#utility.yul\":10250:10269   */\n      dup5\n      add\n        /* \"#utility.yul\":10243:10294   */\n      mstore\n        /* \"#utility.yul\":10325:10328   */\n      0xc0\n        /* \"#utility.yul\":10310:10329   */\n      dup4\n      add\n        /* \"#utility.yul\":10303:10338   */\n      dup7\n      swap1\n      mstore\n        /* \"#utility.yul\":10382:10396   */\n      dup7\n      iszero\n        /* \"#utility.yul\":10375:10397   */\n      iszero\n        /* \"#utility.yul\":10369:10372   */\n      0xe0\n        /* \"#utility.yul\":10354:10373   */\n      dup5\n      add\n        /* \"#utility.yul\":10347:10398   */\n      mstore\n        /* \"#utility.yul\":10429:10432   */\n      0x0100\n        /* \"#utility.yul\":10414:10433   */\n      dup4\n      add\n        /* \"#utility.yul\":10407:10442   */\n      mstore\n        /* \"MSWAP/Games/Games1.sol\":22473:22627  HighCardGuess( msg.sender, LastCardSuit,  LastCardNumber,  user.currentCardSuit,  user.currentCardNumber,  isWinner, winnings, isJackpot, user.currentBet) */\n      mload\n      0x30d0b6d78e1e426a1acfeb2484586c636eb5c8af529f4733d844d5e7a86a065b\n      swap2\n      dup2\n      swap1\n      sub\n        /* \"#utility.yul\":9997:10000   */\n      0x0120\n        /* \"MSWAP/Games/Games1.sol\":22473:22627  HighCardGuess( msg.sender, LastCardSuit,  LastCardNumber,  user.currentCardSuit,  user.currentCardNumber,  isWinner, winnings, isJackpot, user.currentBet) */\n      add\n      swap1\n      log1\n        /* \"MSWAP/Games/Games1.sol\":22644:22652  isWinner */\n      dup5\n        /* \"MSWAP/Games/Games1.sol\":22640:22750  if(!isWinner) {\r... */\n      tag_714\n      jumpi\n        /* \"MSWAP/Games/Games1.sol\":22682:22692  msg.sender */\n      caller\n        /* \"MSWAP/Games/Games1.sol\":22669:22693  usersRoundHC[msg.sender] */\n      0x00\n      swap1\n      dup2\n      mstore\n        /* \"MSWAP/Games/Games1.sol\":22669:22681  usersRoundHC */\n      0x17\n        /* \"MSWAP/Games/Games1.sol\":22669:22693  usersRoundHC[msg.sender] */\n      0x20\n      mstore\n      0x40\n      dup2\n      keccak256\n        /* \"MSWAP/Games/Games1.sol\":22669:22698  usersRoundHC[msg.sender] += 1 */\n      dup1\n      sload\n        /* \"MSWAP/Games/Games1.sol\":22697:22698  1 */\n      0x01\n      swap3\n        /* \"MSWAP/Games/Games1.sol\":22669:22693  usersRoundHC[msg.sender] */\n      swap1\n        /* \"MSWAP/Games/Games1.sol\":22669:22698  usersRoundHC[msg.sender] += 1 */\n      tag_713\n      swap1\n        /* \"MSWAP/Games/Games1.sol\":22697:22698  1 */\n      dup5\n      swap1\n        /* \"MSWAP/Games/Games1.sol\":22669:22698  usersRoundHC[msg.sender] += 1 */\n      tag_449\n      jump\t// in\n    tag_713:\n      swap1\n      swap2\n      sstore\n      pop\n      pop\n        /* \"MSWAP/Games/Games1.sol\":22722:22737  user.currentBet */\n      0x02\n      dup2\n      add\n      sload\n        /* \"MSWAP/Games/Games1.sol\":22713:22738  sendFees(user.currentBet) */\n      tag_714\n      swap1\n        /* \"MSWAP/Games/Games1.sol\":22713:22721  sendFees */\n      tag_528\n        /* \"MSWAP/Games/Games1.sol\":22713:22738  sendFees(user.currentBet) */\n      jump\t// in\n    tag_714:\n        /* \"MSWAP/Games/Games1.sol\":22815:22835  user.currentCardSuit */\n      dup1\n      sload\n        /* \"MSWAP/Games/Games1.sol\":22837:22859  user.currentCardNumber */\n      0x01\n      swap1\n      swap2\n      add\n      sload\n        /* \"MSWAP/Games/Games1.sol\":22815:22835  user.currentCardSuit */\n      swap1\n      swap7\n      pop\n        /* \"MSWAP/Games/Games1.sol\":22837:22859  user.currentCardNumber */\n      swap5\n      pop\n      pop\n        /* \"MSWAP/Games/Games1.sol\":21363:22899  function highCardGuess(bool guessHigh) external pausable  returns (bool resultHigh, uint256 LastCardSuit, uint256 LastCardNumber, uint256 newCardSuit, uint256 newCardNumber, bool isWinner, bool isJackpot, uint256 winnings ) {\r... */\n      swap2\n      swap4\n      swap6\n      swap8\n      pop\n      swap2\n      swap4\n      swap6\n      swap8\n      jump\t// out\n        /* \"MSWAP/Games/Games1.sol\":12375:12647  function sendIsWinnerPrePaidGame(uint256 amount, uint256 multiplier, address _user) public onlyGames returns (uint256 winnings) {\r... */\n    tag_312:\n        /* \"MSWAP/Games/Games1.sol\":9761:9771  msg.sender */\n      caller\n        /* \"MSWAP/Games/Games1.sol\":12485:12501  uint256 winnings */\n      0x00\n        /* \"MSWAP/Games/Games1.sol\":9754:9772  isGame[msg.sender] */\n      swap1\n      dup2\n      mstore\n        /* \"MSWAP/Games/Games1.sol\":9754:9760  isGame */\n      0x13\n        /* \"MSWAP/Games/Games1.sol\":9754:9772  isGame[msg.sender] */\n      0x20\n      mstore\n      0x40\n      dup2\n      keccak256\n      sload\n      0xff\n      and\n        /* \"MSWAP/Games/Games1.sol\":9746:9811  require(isGame[msg.sender], \"you are not a game contract for FG\") */\n      tag_716\n      jumpi\n      mload(0x40)\n      shl(0xe5, 0x461bcd)\n      dup2\n      mstore\n      0x04\n      add\n      tag_319\n      swap1\n      tag_464\n      jump\t// in\n    tag_716:\n        /* \"MSWAP/Games/Games1.sol\":12579:12585  amount */\n      dup4\n        /* \"MSWAP/Games/Games1.sol\":12572:12575  100 */\n      0x64\n        /* \"MSWAP/Games/Games1.sol\":12559:12569  multiplier */\n      dup5\n        /* \"MSWAP/Games/Games1.sol\":12552:12555  100 */\n      0x64\n        /* \"MSWAP/Games/Games1.sol\":12536:12549  payOutDivisor */\n      sload(0x09)\n        /* \"MSWAP/Games/Games1.sol\":12527:12533  amount */\n      dup9\n        /* \"MSWAP/Games/Games1.sol\":12527:12549  amount * payOutDivisor */\n      tag_719\n      swap2\n      swap1\n      tag_467\n      jump\t// in\n    tag_719:\n        /* \"MSWAP/Games/Games1.sol\":12527:12555  amount * payOutDivisor / 100 */\n      tag_720\n      swap2\n      swap1\n      tag_469\n      jump\t// in\n    tag_720:\n        /* \"MSWAP/Games/Games1.sol\":12526:12569  (amount * payOutDivisor / 100) * multiplier */\n      tag_721\n      swap2\n      swap1\n      tag_467\n      jump\t// in\n    tag_721:\n        /* \"MSWAP/Games/Games1.sol\":12526:12575  (amount * payOutDivisor / 100) * multiplier / 100 */\n      tag_722\n      swap2\n      swap1\n      tag_469\n      jump\t// in\n    tag_722:\n        /* \"MSWAP/Games/Games1.sol\":12525:12585  ((amount * payOutDivisor / 100) * multiplier / 100) + amount */\n      tag_471\n      swap2\n      swap1\n      tag_449\n      jump\t// in\n        /* \"MSWAP/Games/Games1.sol\":5156:5288  function _checkOwner() internal view virtual {\r... */\n    tag_316:\n        /* \"MSWAP/Games/Games1.sol\":5037:5044  address */\n      0x00\n        /* \"MSWAP/Games/Games1.sol\":5064:5070  _owner */\n      sload\n      sub(shl(0xa0, 0x01), 0x01)\n      and\n        /* \"MSWAP/Games/Games1.sol\":3622:3632  msg.sender */\n      caller\n        /* \"MSWAP/Games/Games1.sol\":5220:5243  owner() == _msgSender() */\n      eq\n        /* \"MSWAP/Games/Games1.sol\":5212:5280  require(owner() == _msgSender(), \"Ownable: caller is not the owner\") */\n      tag_325\n      jumpi\n      mload(0x40)\n      shl(0xe5, 0x461bcd)\n      dup2\n      mstore\n        /* \"#utility.yul\":18655:18657   */\n      0x20\n        /* \"MSWAP/Games/Games1.sol\":5212:5280  require(owner() == _msgSender(), \"Ownable: caller is not the owner\") */\n      0x04\n      dup3\n      add\n        /* \"#utility.yul\":18637:18658   */\n      dup2\n      swap1\n      mstore\n        /* \"#utility.yul\":18674:18692   */\n      0x24\n      dup3\n      add\n        /* \"#utility.yul\":18667:18697   */\n      mstore\n        /* \"#utility.yul\":18733:18767   */\n      0x4f776e61626c653a2063616c6c6572206973206e6f7420746865206f776e6572\n        /* \"#utility.yul\":18713:18731   */\n      0x44\n      dup3\n      add\n        /* \"#utility.yul\":18706:18768   */\n      mstore\n        /* \"#utility.yul\":18785:18803   */\n      0x64\n      add\n        /* \"MSWAP/Games/Games1.sol\":5212:5280  require(owner() == _msgSender(), \"Ownable: caller is not the owner\") */\n      tag_319\n        /* \"#utility.yul\":18453:18809   */\n      jump\n        /* \"MSWAP/Games/Games1.sol\":13587:14196  function checkReqs(uint256 _betAmount) internal  {\r... */\n    tag_338:\n        /* \"MSWAP/Games/Games1.sol\":13647:13666  address BNBtreasury */\n      0x00\n        /* \"MSWAP/Games/Games1.sol\":13678:13689  marsFactory */\n      0x04\n      0x00\n      swap1\n      sload\n      swap1\n      0x0100\n      exp\n      swap1\n      div\n      sub(shl(0xa0, 0x01), 0x01)\n      and\n      sub(shl(0xa0, 0x01), 0x01)\n        /* \"MSWAP/Games/Games1.sol\":13669:13699  IFactory(marsFactory).treasury */\n      and\n      0x61d027b3\n        /* \"MSWAP/Games/Games1.sol\":13669:13701  IFactory(marsFactory).treasury() */\n      mload(0x40)\n      dup2\n      0xffffffff\n      and\n      0xe0\n      shl\n      dup2\n      mstore\n      0x04\n      add\n      0x20\n      mload(0x40)\n      dup1\n      dup4\n      sub\n      dup2\n      dup7\n      dup1\n      extcodesize\n      iszero\n      dup1\n      iszero\n      tag_737\n      jumpi\n      0x00\n      dup1\n      revert\n    tag_737:\n      pop\n      gas\n      staticcall\n      iszero\n      dup1\n      iszero\n      tag_739\n      jumpi\n      returndatasize\n      0x00\n      dup1\n      returndatacopy\n      revert(0x00, returndatasize)\n    tag_739:\n      pop\n      pop\n      pop\n      pop\n      mload(0x40)\n      returndatasize\n      not(0x1f)\n      0x1f\n      dup3\n      add\n      and\n      dup3\n      add\n      dup1\n      0x40\n      mstore\n      pop\n      dup2\n      add\n      swap1\n      tag_740\n      swap2\n      swap1\n      tag_395\n      jump\t// in\n    tag_740:\n        /* \"MSWAP/Games/Games1.sol\":13647:13701  address BNBtreasury = IFactory(marsFactory).treasury() */\n      swap1\n      pop\n        /* \"MSWAP/Games/Games1.sol\":13734:13749  maxBetAllowed() */\n      tag_741\n        /* \"MSWAP/Games/Games1.sol\":13734:13747  maxBetAllowed */\n      tag_274\n        /* \"MSWAP/Games/Games1.sol\":13734:13749  maxBetAllowed() */\n      jump\t// in\n    tag_741:\n        /* \"MSWAP/Games/Games1.sol\":13720:13730  _betAmount */\n      dup3\n        /* \"MSWAP/Games/Games1.sol\":13720:13749  _betAmount <= maxBetAllowed() */\n      gt\n      iszero\n        /* \"MSWAP/Games/Games1.sol\":13712:13781  require(_betAmount <= maxBetAllowed(), \"your bet is above the limit\") */\n      tag_742\n      jumpi\n      mload(0x40)\n      shl(0xe5, 0x461bcd)\n      dup2\n      mstore\n        /* \"#utility.yul\":13933:13935   */\n      0x20\n        /* \"MSWAP/Games/Games1.sol\":13712:13781  require(_betAmount <= maxBetAllowed(), \"your bet is above the limit\") */\n      0x04\n      dup3\n      add\n        /* \"#utility.yul\":13915:13936   */\n      mstore\n        /* \"#utility.yul\":13972:13974   */\n      0x1b\n        /* \"#utility.yul\":13952:13970   */\n      0x24\n      dup3\n      add\n        /* \"#utility.yul\":13945:13975   */\n      mstore\n        /* \"#utility.yul\":14011:14040   */\n      0x796f7572206265742069732061626f766520746865206c696d69740000000000\n        /* \"#utility.yul\":13991:14009   */\n      0x44\n      dup3\n      add\n        /* \"#utility.yul\":13984:14041   */\n      mstore\n        /* \"#utility.yul\":14058:14076   */\n      0x64\n      add\n        /* \"MSWAP/Games/Games1.sol\":13712:13781  require(_betAmount <= maxBetAllowed(), \"your bet is above the limit\") */\n      tag_319\n        /* \"#utility.yul\":13731:14082   */\n      jump\n        /* \"MSWAP/Games/Games1.sol\":13712:13781  require(_betAmount <= maxBetAllowed(), \"your bet is above the limit\") */\n    tag_742:\n        /* \"MSWAP/Games/Games1.sol\":13807:13816  gameToken */\n      sload(0x01)\n        /* \"MSWAP/Games/Games1.sol\":13800:13839  IERC20(gameToken).balanceOf(msg.sender) */\n      mload(0x40)\n      shl(0xe0, 0x70a08231)\n      dup2\n      mstore\n        /* \"MSWAP/Games/Games1.sol\":13828:13838  msg.sender */\n      caller\n        /* \"MSWAP/Games/Games1.sol\":13800:13839  IERC20(gameToken).balanceOf(msg.sender) */\n      0x04\n      dup3\n      add\n        /* \"#utility.yul\":5783:5834   */\n      mstore\n        /* \"MSWAP/Games/Games1.sol\":13843:13853  _betAmount */\n      dup4\n      swap2\n      sub(shl(0xa0, 0x01), 0x01)\n        /* \"MSWAP/Games/Games1.sol\":13807:13816  gameToken */\n      and\n      swap1\n        /* \"MSWAP/Games/Games1.sol\":13800:13827  IERC20(gameToken).balanceOf */\n      0x70a08231\n      swap1\n        /* \"#utility.yul\":5756:5774   */\n      0x24\n      add\n        /* \"MSWAP/Games/Games1.sol\":13800:13839  IERC20(gameToken).balanceOf(msg.sender) */\n      0x20\n      mload(0x40)\n      dup1\n      dup4\n      sub\n      dup2\n      dup7\n      dup1\n      extcodesize\n      iszero\n      dup1\n      iszero\n      tag_746\n      jumpi\n      0x00\n      dup1\n      revert\n    tag_746:\n      pop\n      gas\n      staticcall\n      iszero\n      dup1\n      iszero\n      tag_748\n      jumpi\n      returndatasize\n      0x00\n      dup1\n      returndatacopy\n      revert(0x00, returndatasize)\n    tag_748:\n      pop\n      pop\n      pop\n      pop\n      mload(0x40)\n      returndatasize\n      not(0x1f)\n      0x1f\n      dup3\n      add\n      and\n      dup3\n      add\n      dup1\n      0x40\n      mstore\n      pop\n      dup2\n      add\n      swap1\n      tag_749\n      swap2\n      swap1\n      tag_408\n      jump\t// in\n    tag_749:\n        /* \"MSWAP/Games/Games1.sol\":13800:13853  IERC20(gameToken).balanceOf(msg.sender) >= _betAmount */\n      lt\n      iszero\n        /* \"MSWAP/Games/Games1.sol\":13792:13878  require(IERC20(gameToken).balanceOf(msg.sender) >= _betAmount, \"Insufficient balance\") */\n      tag_750\n      jumpi\n      mload(0x40)\n      shl(0xe5, 0x461bcd)\n      dup2\n      mstore\n        /* \"#utility.yul\":16155:16157   */\n      0x20\n        /* \"MSWAP/Games/Games1.sol\":13792:13878  require(IERC20(gameToken).balanceOf(msg.sender) >= _betAmount, \"Insufficient balance\") */\n      0x04\n      dup3\n      add\n        /* \"#utility.yul\":16137:16158   */\n      mstore\n        /* \"#utility.yul\":16194:16196   */\n      0x14\n        /* \"#utility.yul\":16174:16192   */\n      0x24\n      dup3\n      add\n        /* \"#utility.yul\":16167:16197   */\n      mstore\n      shl(0x60, 0x496e73756666696369656e742062616c616e6365)\n        /* \"#utility.yul\":16213:16231   */\n      0x44\n      dup3\n      add\n        /* \"#utility.yul\":16206:16256   */\n      mstore\n        /* \"#utility.yul\":16273:16291   */\n      0x64\n      add\n        /* \"MSWAP/Games/Games1.sol\":13792:13878  require(IERC20(gameToken).balanceOf(msg.sender) >= _betAmount, \"Insufficient balance\") */\n      tag_319\n        /* \"#utility.yul\":15953:16297   */\n      jump\n        /* \"MSWAP/Games/Games1.sol\":13792:13878  require(IERC20(gameToken).balanceOf(msg.sender) >= _betAmount, \"Insufficient balance\") */\n    tag_750:\n        /* \"MSWAP/Games/Games1.sol\":13904:13913  gameToken */\n      sload(0x01)\n        /* \"MSWAP/Games/Games1.sol\":13897:13951  IERC20(gameToken).allowance(msg.sender, address(this)) */\n      mload(0x40)\n      shl(0xe1, 0x6eb1769f)\n      dup2\n      mstore\n        /* \"MSWAP/Games/Games1.sol\":13925:13935  msg.sender */\n      caller\n        /* \"MSWAP/Games/Games1.sol\":13897:13951  IERC20(gameToken).allowance(msg.sender, address(this)) */\n      0x04\n      dup3\n      add\n        /* \"#utility.yul\":6057:6091   */\n      mstore\n        /* \"MSWAP/Games/Games1.sol\":13945:13949  this */\n      address\n        /* \"#utility.yul\":6107:6125   */\n      0x24\n      dup3\n      add\n        /* \"#utility.yul\":6100:6143   */\n      mstore\n        /* \"MSWAP/Games/Games1.sol\":13955:13965  _betAmount */\n      dup4\n      swap2\n      sub(shl(0xa0, 0x01), 0x01)\n        /* \"MSWAP/Games/Games1.sol\":13904:13913  gameToken */\n      and\n      swap1\n        /* \"MSWAP/Games/Games1.sol\":13897:13924  IERC20(gameToken).allowance */\n      0xdd62ed3e\n      swap1\n        /* \"#utility.yul\":5992:6010   */\n      0x44\n      add\n        /* \"MSWAP/Games/Games1.sol\":13897:13951  IERC20(gameToken).allowance(msg.sender, address(this)) */\n      0x20\n      mload(0x40)\n      dup1\n      dup4\n      sub\n      dup2\n      dup7\n      dup1\n      extcodesize\n      iszero\n      dup1\n      iszero\n      tag_755\n      jumpi\n      0x00\n      dup1\n      revert\n    tag_755:\n      pop\n      gas\n      staticcall\n      iszero\n      dup1\n      iszero\n      tag_757\n      jumpi\n      returndatasize\n      0x00\n      dup1\n      returndatacopy\n      revert(0x00, returndatasize)\n    tag_757:\n      pop\n      pop\n      pop\n      pop\n      mload(0x40)\n      returndatasize\n      not(0x1f)\n      0x1f\n      dup3\n      add\n      and\n      dup3\n      add\n      dup1\n      0x40\n      mstore\n      pop\n      dup2\n      add\n      swap1\n      tag_758\n      swap2\n      swap1\n      tag_408\n      jump\t// in\n    tag_758:\n        /* \"MSWAP/Games/Games1.sol\":13897:13965  IERC20(gameToken).allowance(msg.sender, address(this)) >= _betAmount */\n      lt\n      iszero\n        /* \"MSWAP/Games/Games1.sol\":13889:14005  require(IERC20(gameToken).allowance(msg.sender, address(this)) >= _betAmount,\"please approve contract on GameToken\") */\n      tag_759\n      jumpi\n      mload(0x40)\n      shl(0xe5, 0x461bcd)\n      dup2\n      mstore\n        /* \"#utility.yul\":15393:15395   */\n      0x20\n        /* \"MSWAP/Games/Games1.sol\":13889:14005  require(IERC20(gameToken).allowance(msg.sender, address(this)) >= _betAmount,\"please approve contract on GameToken\") */\n      0x04\n      dup3\n      add\n        /* \"#utility.yul\":15375:15396   */\n      mstore\n        /* \"#utility.yul\":15432:15434   */\n      0x24\n        /* \"#utility.yul\":15412:15430   */\n      dup1\n      dup3\n      add\n        /* \"#utility.yul\":15405:15435   */\n      mstore\n        /* \"#utility.yul\":15471:15505   */\n      0x706c6561736520617070726f766520636f6e7472616374206f6e2047616d6554\n        /* \"#utility.yul\":15451:15469   */\n      0x44\n      dup3\n      add\n        /* \"#utility.yul\":15444:15506   */\n      mstore\n      shl(0xe1, 0x37b5b2b7)\n        /* \"#utility.yul\":15522:15540   */\n      0x64\n      dup3\n      add\n        /* \"#utility.yul\":15515:15549   */\n      mstore\n        /* \"#utility.yul\":15566:15585   */\n      0x84\n      add\n        /* \"MSWAP/Games/Games1.sol\":13889:14005  require(IERC20(gameToken).allowance(msg.sender, address(this)) >= _betAmount,\"please approve contract on GameToken\") */\n      tag_319\n        /* \"#utility.yul\":15191:15591   */\n      jump\n        /* \"MSWAP/Games/Games1.sol\":13889:14005  require(IERC20(gameToken).allowance(msg.sender, address(this)) >= _betAmount,\"please approve contract on GameToken\") */\n    tag_759:\n        /* \"MSWAP/Games/Games1.sol\":14020:14026  BNBfee */\n      sload(0x03)\n        /* \"MSWAP/Games/Games1.sol\":14020:14030  BNBfee > 0 */\n      iszero\n        /* \"MSWAP/Games/Games1.sol\":14016:14189  if (BNBfee > 0) {\r... */\n      tag_534\n      jumpi\n        /* \"MSWAP/Games/Games1.sol\":14080:14086  BNBfee */\n      sload(0x03)\n        /* \"MSWAP/Games/Games1.sol\":14055:14076  address(this).balance */\n      selfbalance\n        /* \"MSWAP/Games/Games1.sol\":14055:14086  address(this).balance >= BNBfee */\n      lt\n      iszero\n        /* \"MSWAP/Games/Games1.sol\":14047:14105  require(address(this).balance >= BNBfee, \"Not enough BNB\") */\n      tag_763\n      jumpi\n      mload(0x40)\n      shl(0xe5, 0x461bcd)\n      dup2\n      mstore\n        /* \"#utility.yul\":18312:18314   */\n      0x20\n        /* \"MSWAP/Games/Games1.sol\":14047:14105  require(address(this).balance >= BNBfee, \"Not enough BNB\") */\n      0x04\n      dup3\n      add\n        /* \"#utility.yul\":18294:18315   */\n      mstore\n        /* \"#utility.yul\":18351:18353   */\n      0x0e\n        /* \"#utility.yul\":18331:18349   */\n      0x24\n      dup3\n      add\n        /* \"#utility.yul\":18324:18354   */\n      mstore\n      shl(0x91, 0x2737ba1032b737bab3b410212721)\n        /* \"#utility.yul\":18370:18388   */\n      0x44\n      dup3\n      add\n        /* \"#utility.yul\":18363:18407   */\n      mstore\n        /* \"#utility.yul\":18424:18442   */\n      0x64\n      add\n        /* \"MSWAP/Games/Games1.sol\":14047:14105  require(address(this).balance >= BNBfee, \"Not enough BNB\") */\n      tag_319\n        /* \"#utility.yul\":18110:18448   */\n      jump\n        /* \"MSWAP/Games/Games1.sol\":14047:14105  require(address(this).balance >= BNBfee, \"Not enough BNB\") */\n    tag_763:\n        /* \"MSWAP/Games/Games1.sol\":14128:14176  payable(BNBtreasury).send(address(this).balance) */\n      mload(0x40)\n      sub(shl(0xa0, 0x01), 0x01)\n        /* \"MSWAP/Games/Games1.sol\":14128:14153  payable(BNBtreasury).send */\n      dup3\n      and\n      swap1\n        /* \"MSWAP/Games/Games1.sol\":14154:14175  address(this).balance */\n      selfbalance\n        /* \"MSWAP/Games/Games1.sol\":14128:14176  payable(BNBtreasury).send(address(this).balance) */\n      dup1\n      iszero\n      0x08fc\n      mul\n      swap2\n      0x00\n      dup2\n      dup2\n      dup2\n        /* \"MSWAP/Games/Games1.sol\":14154:14175  address(this).balance */\n      dup6\n        /* \"MSWAP/Games/Games1.sol\":14128:14153  payable(BNBtreasury).send */\n      dup9\n        /* \"MSWAP/Games/Games1.sol\":14128:14176  payable(BNBtreasury).send(address(this).balance) */\n      dup9\n      call\n      swap4\n      pop\n      pop\n      pop\n      pop\n        /* \"MSWAP/Games/Games1.sol\":14120:14177  require(payable(BNBtreasury).send(address(this).balance)) */\n      tag_534\n      jumpi\n      0x00\n      dup1\n      revert\n        /* \"MSWAP/Games/Games1.sol\":18836:19259  function drawACardHC() internal returns ( uint256 number, uint256 suit) {\r... */\n    tag_347:\n        /* \"MSWAP/Games/Games1.sol\":18971:18981  msg.sender */\n      caller\n        /* \"MSWAP/Games/Games1.sol\":18878:18892  uint256 number */\n      0x00\n        /* \"MSWAP/Games/Games1.sol\":18958:18982  usersRoundHC[msg.sender] */\n      swap1\n      dup2\n      mstore\n        /* \"MSWAP/Games/Games1.sol\":18958:18970  usersRoundHC */\n      0x17\n        /* \"MSWAP/Games/Games1.sol\":18958:18982  usersRoundHC[msg.sender] */\n      0x20\n      swap1\n      dup2\n      mstore\n      0x40\n      dup1\n      dup4\n      keccak256\n      sload\n        /* \"MSWAP/Games/Games1.sol\":19017:19032  highCardByRound */\n      0x18\n        /* \"MSWAP/Games/Games1.sol\":19017:19044  highCardByRound[msg.sender] */\n      dup4\n      mstore\n      dup2\n      dup5\n      keccak256\n        /* \"MSWAP/Games/Games1.sol\":19017:19051  highCardByRound[msg.sender][round] */\n      dup2\n      dup6\n      mstore\n      swap1\n      swap3\n      mstore\n      dup3\n      keccak256\n        /* \"MSWAP/Games/Games1.sol\":18878:18892  uint256 number */\n      dup3\n      swap2\n      dup3\n      swap2\n        /* \"MSWAP/Games/Games1.sol\":19062:19211  do {\r... */\n    tag_769:\n        /* \"MSWAP/Games/Games1.sol\":19087:19093  rng(4) */\n      tag_772\n        /* \"MSWAP/Games/Games1.sol\":19091:19092  4 */\n      0x04\n        /* \"MSWAP/Games/Games1.sol\":19087:19090  rng */\n      tag_154\n        /* \"MSWAP/Games/Games1.sol\":19087:19093  rng(4) */\n      jump\t// in\n    tag_772:\n        /* \"MSWAP/Games/Games1.sol\":19080:19093  suit = rng(4) */\n      swap4\n      pop\n        /* \"MSWAP/Games/Games1.sol\":19117:19124  rng(13) */\n      tag_773\n        /* \"MSWAP/Games/Games1.sol\":19121:19123  13 */\n      0x0d\n        /* \"MSWAP/Games/Games1.sol\":19117:19120  rng */\n      tag_154\n        /* \"MSWAP/Games/Games1.sol\":19117:19124  rng(13) */\n      jump\t// in\n    tag_773:\n        /* \"MSWAP/Games/Games1.sol\":19108:19124  number = rng(13) */\n      swap5\n      pop\n      dup5\n        /* \"MSWAP/Games/Games1.sol\":19147:19156  suit * 13 */\n      tag_774\n        /* \"MSWAP/Games/Games1.sol\":19147:19151  suit */\n      dup6\n        /* \"MSWAP/Games/Games1.sol\":19154:19156  13 */\n      0x0d\n        /* \"MSWAP/Games/Games1.sol\":19147:19156  suit * 13 */\n      tag_467\n      jump\t// in\n    tag_774:\n        /* \"MSWAP/Games/Games1.sol\":19146:19166  (suit * 13) + number */\n      tag_775\n      swap2\n      swap1\n      tag_449\n      jump\t// in\n    tag_775:\n        /* \"MSWAP/Games/Games1.sol\":19186:19209  user.isCardPlayed[card] */\n      0x00\n      dup2\n      dup2\n      mstore\n        /* \"MSWAP/Games/Games1.sol\":19186:19203  user.isCardPlayed */\n      0x06\n      dup4\n      add\n        /* \"MSWAP/Games/Games1.sol\":19186:19209  user.isCardPlayed[card] */\n      0x20\n      mstore\n      0x40\n      swap1\n      keccak256\n      sload\n        /* \"MSWAP/Games/Games1.sol\":19139:19166  card = (suit * 13) + number */\n      swap1\n      swap4\n      pop\n        /* \"MSWAP/Games/Games1.sol\":19186:19209  user.isCardPlayed[card] */\n      0xff\n      and\n        /* \"MSWAP/Games/Games1.sol\":19062:19211  do {\r... */\n      tag_769\n      jumpi\n        /* \"MSWAP/Games/Games1.sol\":19221:19244  user.isCardPlayed[card] */\n      0x00\n      swap3\n      dup4\n      mstore\n        /* \"MSWAP/Games/Games1.sol\":19221:19238  user.isCardPlayed */\n      0x06\n      add\n        /* \"MSWAP/Games/Games1.sol\":19221:19244  user.isCardPlayed[card] */\n      0x20\n      mstore\n      pop\n      0x40\n      swap1\n      keccak256\n        /* \"MSWAP/Games/Games1.sol\":19221:19251  user.isCardPlayed[card] = true */\n      dup1\n      sload\n      not(0xff)\n      and\n        /* \"MSWAP/Games/Games1.sol\":19247:19251  true */\n      0x01\n        /* \"MSWAP/Games/Games1.sol\":19221:19251  user.isCardPlayed[card] = true */\n      or\n      swap1\n      sstore\n        /* \"MSWAP/Games/Games1.sol\":18836:19259  function drawACardHC() internal returns ( uint256 number, uint256 suit) {\r... */\n      swap1\n      swap2\n      jump\t// out\n        /* \"MSWAP/Games/Games1.sol\":15550:16134  function flipTheCoin(uint256 _betAmount, bool chooseHeads) internal pausable returns (bool resultIsHeads, bool isWinner) {\r... */\n    tag_401:\n        /* \"MSWAP/Games/Games1.sol\":10081:10089  isPaused */\n      sload(0x14)\n        /* \"MSWAP/Games/Games1.sol\":15636:15654  bool resultIsHeads */\n      0x00\n      swap1\n      dup2\n      swap1\n        /* \"MSWAP/Games/Games1.sol\":10081:10089  isPaused */\n      0xff\n      and\n        /* \"MSWAP/Games/Games1.sol\":10080:10089  !isPaused */\n      iszero\n        /* \"MSWAP/Games/Games1.sol\":10072:10110  require(!isPaused, \"games are paused\") */\n      tag_777\n      jumpi\n      mload(0x40)\n      shl(0xe5, 0x461bcd)\n      dup2\n      mstore\n      0x04\n      add\n      tag_319\n      swap1\n      tag_332\n      jump\t// in\n    tag_777:\n        /* \"MSWAP/Games/Games1.sol\":15682:15703  checkReqs(_betAmount) */\n      tag_780\n        /* \"MSWAP/Games/Games1.sol\":15692:15702  _betAmount */\n      dup5\n        /* \"MSWAP/Games/Games1.sol\":15682:15691  checkReqs */\n      tag_338\n        /* \"MSWAP/Games/Games1.sol\":15682:15703  checkReqs(_betAmount) */\n      jump\t// in\n    tag_780:\n        /* \"MSWAP/Games/Games1.sol\":15714:15728  uint256 result */\n      0x00\n        /* \"MSWAP/Games/Games1.sol\":15731:15741  rng(10000) */\n      tag_781\n        /* \"MSWAP/Games/Games1.sol\":15735:15740  10000 */\n      0x2710\n        /* \"MSWAP/Games/Games1.sol\":15731:15734  rng */\n      tag_154\n        /* \"MSWAP/Games/Games1.sol\":15731:15741  rng(10000) */\n      jump\t// in\n    tag_781:\n        /* \"MSWAP/Games/Games1.sol\":15714:15741  uint256 result = rng(10000) */\n      swap1\n      pop\n        /* \"MSWAP/Games/Games1.sol\":15761:15765  4200 */\n      0x1068\n        /* \"MSWAP/Games/Games1.sol\":15752:15758  result */\n      dup2\n        /* \"MSWAP/Games/Games1.sol\":15752:15765  result < 4200 */\n      lt\n        /* \"MSWAP/Games/Games1.sol\":15752:15826  result < 4200 ? resultIsHeads = chooseHeads : resultIsHeads = !chooseHeads */\n      tag_782\n      jumpi\n        /* \"MSWAP/Games/Games1.sol\":15815:15826  chooseHeads */\n      dup4\n        /* \"MSWAP/Games/Games1.sol\":15814:15826  !chooseHeads */\n      iszero\n        /* \"MSWAP/Games/Games1.sol\":15798:15826  resultIsHeads = !chooseHeads */\n      swap3\n      pop\n      dup3\n        /* \"MSWAP/Games/Games1.sol\":15752:15826  result < 4200 ? resultIsHeads = chooseHeads : resultIsHeads = !chooseHeads */\n      jump(tag_783)\n    tag_782:\n        /* \"MSWAP/Games/Games1.sol\":15784:15795  chooseHeads */\n      dup4\n        /* \"MSWAP/Games/Games1.sol\":15768:15795  resultIsHeads = chooseHeads */\n      swap3\n      pop\n      dup3\n        /* \"MSWAP/Games/Games1.sol\":15752:15826  result < 4200 ? resultIsHeads = chooseHeads : resultIsHeads = !chooseHeads */\n    tag_783:\n      pop\n        /* \"MSWAP/Games/Games1.sol\":15852:15865  resultIsHeads */\n      dup3\n        /* \"MSWAP/Games/Games1.sol\":15837:15865  chooseHeads == resultIsHeads */\n      iszero\n      iszero\n        /* \"MSWAP/Games/Games1.sol\":15837:15848  chooseHeads */\n      dup5\n        /* \"MSWAP/Games/Games1.sol\":15837:15865  chooseHeads == resultIsHeads */\n      iszero\n      iszero\n      eq\n        /* \"MSWAP/Games/Games1.sol\":15837:15902  chooseHeads == resultIsHeads ? isWinner = true : isWinner = false */\n      tag_784\n      jumpi\n        /* \"MSWAP/Games/Games1.sol\":15897:15902  false */\n      0x00\n        /* \"MSWAP/Games/Games1.sol\":15886:15902  isWinner = false */\n      swap2\n      pop\n      dup2\n        /* \"MSWAP/Games/Games1.sol\":15837:15902  chooseHeads == resultIsHeads ? isWinner = true : isWinner = false */\n      jump(tag_785)\n    tag_784:\n        /* \"MSWAP/Games/Games1.sol\":15879:15883  true */\n      0x01\n        /* \"MSWAP/Games/Games1.sol\":15868:15883  isWinner = true */\n      swap2\n      pop\n      dup2\n        /* \"MSWAP/Games/Games1.sol\":15837:15902  chooseHeads == resultIsHeads ? isWinner = true : isWinner = false */\n    tag_785:\n      pop\n        /* \"MSWAP/Games/Games1.sol\":15915:15929  uint256 amount */\n      0x00\n        /* \"MSWAP/Games/Games1.sol\":15945:15953  isWinner */\n      dup3\n        /* \"MSWAP/Games/Games1.sol\":15942:15999  if(isWinner) amount = sendIsWinner(_betAmount, coinFlipM) */\n      iszero\n      tag_786\n      jumpi\n        /* \"MSWAP/Games/Games1.sol\":15964:15999  sendIsWinner(_betAmount, coinFlipM) */\n      tag_787\n        /* \"MSWAP/Games/Games1.sol\":15977:15987  _betAmount */\n      dup7\n        /* \"MSWAP/Games/Games1.sol\":15989:15998  coinFlipM */\n      sload(0x0c)\n        /* \"MSWAP/Games/Games1.sol\":15964:15976  sendIsWinner */\n      tag_569\n        /* \"MSWAP/Games/Games1.sol\":15964:15999  sendIsWinner(_betAmount, coinFlipM) */\n      jump\t// in\n    tag_787:\n        /* \"MSWAP/Games/Games1.sol\":15955:15999  amount = sendIsWinner(_betAmount, coinFlipM) */\n      swap1\n      pop\n        /* \"MSWAP/Games/Games1.sol\":15942:15999  if(isWinner) amount = sendIsWinner(_betAmount, coinFlipM) */\n    tag_786:\n        /* \"MSWAP/Games/Games1.sol\":16014:16022  isWinner */\n      dup3\n        /* \"MSWAP/Games/Games1.sol\":16010:16056  if(!isWinner) amount = sendIsLoser(_betAmount) */\n      tag_788\n      jumpi\n        /* \"MSWAP/Games/Games1.sol\":16033:16056  sendIsLoser(_betAmount) */\n      tag_789\n        /* \"MSWAP/Games/Games1.sol\":16045:16055  _betAmount */\n      dup7\n        /* \"MSWAP/Games/Games1.sol\":16033:16044  sendIsLoser */\n      tag_572\n        /* \"MSWAP/Games/Games1.sol\":16033:16056  sendIsLoser(_betAmount) */\n      jump\t// in\n    tag_789:\n        /* \"MSWAP/Games/Games1.sol\":16024:16056  amount = sendIsLoser(_betAmount) */\n      swap1\n      pop\n        /* \"MSWAP/Games/Games1.sol\":16010:16056  if(!isWinner) amount = sendIsLoser(_betAmount) */\n    tag_788:\n        /* \"MSWAP/Games/Games1.sol\":16074:16126  results(msg.sender, isWinner, amount, resultIsHeads) */\n      0x40\n      dup1\n      mload\n        /* \"MSWAP/Games/Games1.sol\":16082:16092  msg.sender */\n      caller\n        /* \"#utility.yul\":8151:8202   */\n      dup2\n      mstore\n        /* \"#utility.yul\":8245:8259   */\n      dup5\n      iszero\n        /* \"#utility.yul\":8238:8260   */\n      iszero\n        /* \"#utility.yul\":8233:8235   */\n      0x20\n        /* \"#utility.yul\":8218:8236   */\n      dup3\n      add\n        /* \"#utility.yul\":8211:8261   */\n      mstore\n        /* \"#utility.yul\":8277:8295   */\n      swap1\n      dup2\n      add\n        /* \"#utility.yul\":8270:8304   */\n      dup3\n      swap1\n      mstore\n        /* \"#utility.yul\":8347:8361   */\n      dup5\n      iszero\n        /* \"#utility.yul\":8340:8362   */\n      iszero\n        /* \"#utility.yul\":8335:8337   */\n      0x60\n        /* \"#utility.yul\":8320:8338   */\n      dup3\n      add\n        /* \"#utility.yul\":8313:8363   */\n      mstore\n        /* \"MSWAP/Games/Games1.sol\":16074:16126  results(msg.sender, isWinner, amount, resultIsHeads) */\n      0x4f91bbc3534b7027dcd697dd5aa5b2dfaeb6895a895837adcaa84815ca3c4522\n      swap1\n        /* \"#utility.yul\":8138:8141   */\n      0x80\n        /* \"#utility.yul\":8123:8142   */\n      add\n        /* \"MSWAP/Games/Games1.sol\":16074:16126  results(msg.sender, isWinner, amount, resultIsHeads) */\n      mload(0x40)\n      dup1\n      swap2\n      sub\n      swap1\n      log1\n        /* \"MSWAP/Games/Games1.sol\":15671:16134  {\r... */\n      pop\n      pop\n        /* \"MSWAP/Games/Games1.sol\":15550:16134  function flipTheCoin(uint256 _betAmount, bool chooseHeads) internal pausable returns (bool resultIsHeads, bool isWinner) {\r... */\n      swap3\n      pop\n      swap3\n      swap1\n      pop\n      jump\t// out\n        /* \"MSWAP/Games/Games1.sol\":25141:25535  function drawACardBJ() internal returns ( uint256 number, uint256 suit) {\r... */\n    tag_435:\n        /* \"MSWAP/Games/Games1.sol\":25276:25286  msg.sender */\n      caller\n        /* \"MSWAP/Games/Games1.sol\":25183:25197  uint256 number */\n      0x00\n        /* \"MSWAP/Games/Games1.sol\":25263:25287  usersRoundBJ[msg.sender] */\n      swap1\n      dup2\n      mstore\n        /* \"MSWAP/Games/Games1.sol\":25263:25275  usersRoundBJ */\n      0x19\n        /* \"MSWAP/Games/Games1.sol\":25263:25287  usersRoundBJ[msg.sender] */\n      0x20\n      swap1\n      dup2\n      mstore\n      0x40\n      dup1\n      dup4\n      keccak256\n      sload\n        /* \"MSWAP/Games/Games1.sol\":25323:25339  blackJackByRound */\n      0x1a\n        /* \"MSWAP/Games/Games1.sol\":25323:25351  blackJackByRound[msg.sender] */\n      dup4\n      mstore\n      dup2\n      dup5\n      keccak256\n        /* \"MSWAP/Games/Games1.sol\":25323:25358  blackJackByRound[msg.sender][round] */\n      dup2\n      dup6\n      mstore\n      swap1\n      swap3\n      mstore\n      dup3\n      keccak256\n        /* \"MSWAP/Games/Games1.sol\":25183:25197  uint256 number */\n      dup3\n      swap2\n      dup3\n      swap2\n        /* \"MSWAP/Games/Games1.sol\":25369:25518  do {\r... */\n    tag_793:\n        /* \"MSWAP/Games/Games1.sol\":25394:25400  rng(4) */\n      tag_796\n        /* \"MSWAP/Games/Games1.sol\":25398:25399  4 */\n      0x04\n        /* \"MSWAP/Games/Games1.sol\":25394:25397  rng */\n      tag_154\n        /* \"MSWAP/Games/Games1.sol\":25394:25400  rng(4) */\n      jump\t// in\n    tag_796:\n        /* \"MSWAP/Games/Games1.sol\":25387:25400  suit = rng(4) */\n      swap4\n      pop\n        /* \"MSWAP/Games/Games1.sol\":25424:25431  rng(13) */\n      tag_797\n        /* \"MSWAP/Games/Games1.sol\":25428:25430  13 */\n      0x0d\n        /* \"MSWAP/Games/Games1.sol\":25424:25427  rng */\n      tag_154\n        /* \"MSWAP/Games/Games1.sol\":25424:25431  rng(13) */\n      jump\t// in\n    tag_797:\n        /* \"MSWAP/Games/Games1.sol\":25415:25431  number = rng(13) */\n      swap5\n      pop\n      dup5\n        /* \"MSWAP/Games/Games1.sol\":25454:25463  suit * 13 */\n      tag_798\n        /* \"MSWAP/Games/Games1.sol\":25454:25458  suit */\n      dup6\n        /* \"MSWAP/Games/Games1.sol\":25461:25463  13 */\n      0x0d\n        /* \"MSWAP/Games/Games1.sol\":25454:25463  suit * 13 */\n      tag_467\n      jump\t// in\n    tag_798:\n        /* \"MSWAP/Games/Games1.sol\":25453:25473  (suit * 13) + number */\n      tag_799\n      swap2\n      swap1\n      tag_449\n      jump\t// in\n    tag_799:\n        /* \"MSWAP/Games/Games1.sol\":25493:25516  user.isCardPlayed[card] */\n      0x00\n      dup2\n      dup2\n      mstore\n        /* \"MSWAP/Games/Games1.sol\":25493:25510  user.isCardPlayed */\n      0x08\n      dup4\n      add\n        /* \"MSWAP/Games/Games1.sol\":25493:25516  user.isCardPlayed[card] */\n      0x20\n      mstore\n      0x40\n      swap1\n      keccak256\n      sload\n        /* \"MSWAP/Games/Games1.sol\":25446:25473  card = (suit * 13) + number */\n      swap1\n      swap4\n      pop\n        /* \"MSWAP/Games/Games1.sol\":25493:25516  user.isCardPlayed[card] */\n      0xff\n      and\n        /* \"MSWAP/Games/Games1.sol\":25369:25518  do {\r... */\n      tag_793\n      jumpi\n        /* \"MSWAP/Games/Games1.sol\":25213:25535  {\r... */\n      pop\n      pop\n      pop\n        /* \"MSWAP/Games/Games1.sol\":25141:25535  function drawACardBJ() internal returns ( uint256 number, uint256 suit) {\r... */\n      swap1\n      swap2\n      jump\t// out\n        /* \"MSWAP/Games/Games1.sol\":12113:12363  function sendIsWinnerPrePaid(uint256 amount, uint256 multiplier) internal returns (uint256 winnings) {\r... */\n    tag_445:\n        /* \"MSWAP/Games/Games1.sol\":12196:12212  uint256 winnings */\n      0x00\n        /* \"MSWAP/Games/Games1.sol\":12290:12296  amount */\n      dup3\n        /* \"MSWAP/Games/Games1.sol\":12283:12286  100 */\n      0x64\n        /* \"MSWAP/Games/Games1.sol\":12270:12280  multiplier */\n      dup4\n        /* \"MSWAP/Games/Games1.sol\":12263:12266  100 */\n      0x64\n        /* \"MSWAP/Games/Games1.sol\":12247:12260  payOutDivisor */\n      sload(0x09)\n        /* \"MSWAP/Games/Games1.sol\":12238:12244  amount */\n      dup8\n        /* \"MSWAP/Games/Games1.sol\":12238:12260  amount * payOutDivisor */\n      tag_801\n      swap2\n      swap1\n      tag_467\n      jump\t// in\n    tag_801:\n        /* \"MSWAP/Games/Games1.sol\":12238:12266  amount * payOutDivisor / 100 */\n      tag_802\n      swap2\n      swap1\n      tag_469\n      jump\t// in\n    tag_802:\n        /* \"MSWAP/Games/Games1.sol\":12237:12280  (amount * payOutDivisor / 100) * multiplier */\n      tag_803\n      swap2\n      swap1\n      tag_467\n      jump\t// in\n    tag_803:\n        /* \"MSWAP/Games/Games1.sol\":12237:12286  (amount * payOutDivisor / 100) * multiplier / 100 */\n      tag_804\n      swap2\n      swap1\n      tag_469\n      jump\t// in\n    tag_804:\n        /* \"MSWAP/Games/Games1.sol\":12236:12296  ((amount * payOutDivisor / 100) * multiplier / 100) + amount */\n      tag_805\n      swap2\n      swap1\n      tag_449\n      jump\t// in\n    tag_805:\n        /* \"MSWAP/Games/Games1.sol\":12314:12323  gameToken */\n      sload(0x01)\n        /* \"MSWAP/Games/Games1.sol\":12307:12355  IERC20(gameToken).transfer(msg.sender, winnings) */\n      mload(0x40)\n      shl(0xe0, 0xa9059cbb)\n      dup2\n      mstore\n        /* \"MSWAP/Games/Games1.sol\":12334:12344  msg.sender */\n      caller\n        /* \"MSWAP/Games/Games1.sol\":12307:12355  IERC20(gameToken).transfer(msg.sender, winnings) */\n      0x04\n      dup3\n      add\n        /* \"#utility.yul\":8548:8599   */\n      mstore\n        /* \"#utility.yul\":8615:8633   */\n      0x24\n      dup2\n      add\n        /* \"#utility.yul\":8608:8642   */\n      dup4\n      swap1\n      mstore\n        /* \"MSWAP/Games/Games1.sol\":12225:12296  winnings = ((amount * payOutDivisor / 100) * multiplier / 100) + amount */\n      swap2\n      swap3\n      pop\n      sub(shl(0xa0, 0x01), 0x01)\n        /* \"MSWAP/Games/Games1.sol\":12314:12323  gameToken */\n      and\n      swap1\n        /* \"MSWAP/Games/Games1.sol\":12307:12333  IERC20(gameToken).transfer */\n      0xa9059cbb\n      swap1\n        /* \"#utility.yul\":8521:8539   */\n      0x44\n      add\n        /* \"MSWAP/Games/Games1.sol\":12307:12355  IERC20(gameToken).transfer(msg.sender, winnings) */\n      0x20\n      mload(0x40)\n      dup1\n      dup4\n      sub\n      dup2\n      0x00\n      dup8\n      dup1\n      extcodesize\n      iszero\n      dup1\n      iszero\n      tag_807\n      jumpi\n      0x00\n      dup1\n      revert\n    tag_807:\n      pop\n      gas\n      call\n      iszero\n      dup1\n      iszero\n      tag_809\n      jumpi\n      returndatasize\n      0x00\n      dup1\n      returndatacopy\n      revert(0x00, returndatasize)\n    tag_809:\n      pop\n      pop\n      pop\n      pop\n      mload(0x40)\n      returndatasize\n      not(0x1f)\n      0x1f\n      dup3\n      add\n      and\n      dup3\n      add\n      dup1\n      0x40\n      mstore\n      pop\n      dup2\n      add\n      swap1\n      tag_810\n      swap2\n      swap1\n      tag_345\n      jump\t// in\n    tag_810:\n      pop\n        /* \"MSWAP/Games/Games1.sol\":12113:12363  function sendIsWinnerPrePaid(uint256 amount, uint256 multiplier) internal returns (uint256 winnings) {\r... */\n      swap3\n      swap2\n      pop\n      pop\n      jump\t// out\n        /* \"MSWAP/Games/Games1.sol\":6258:6449  function _transferOwnership(address newOwner) internal virtual {\r... */\n    tag_457:\n        /* \"MSWAP/Games/Games1.sol\":6332:6348  address oldOwner */\n      0x00\n        /* \"MSWAP/Games/Games1.sol\":6351:6357  _owner */\n      dup1\n      sload\n      sub(shl(0xa0, 0x01), 0x01)\n        /* \"MSWAP/Games/Games1.sol\":6368:6385  _owner = newOwner */\n      dup4\n      dup2\n      and\n      not(sub(shl(0xa0, 0x01), 0x01))\n      dup4\n      and\n      dup2\n      or\n      dup5\n      sstore\n        /* \"MSWAP/Games/Games1.sol\":6401:6441  OwnershipTransferred(oldOwner, newOwner) */\n      mload(0x40)\n        /* \"MSWAP/Games/Games1.sol\":6351:6357  _owner */\n      swap2\n      swap1\n      swap3\n      and\n      swap3\n      dup4\n      swap2\n        /* \"MSWAP/Games/Games1.sol\":6401:6441  OwnershipTransferred(oldOwner, newOwner) */\n      0x8be0079c531659141344cd1fd0a4f28419497f9722a3daafe3b4186f6b6457e0\n      swap2\n        /* \"MSWAP/Games/Games1.sol\":6332:6348  address oldOwner */\n      swap1\n        /* \"MSWAP/Games/Games1.sol\":6401:6441  OwnershipTransferred(oldOwner, newOwner) */\n      log3\n        /* \"MSWAP/Games/Games1.sol\":6321:6449  {\r... */\n      pop\n        /* \"MSWAP/Games/Games1.sol\":6258:6449  function _transferOwnership(address newOwner) internal virtual {\r... */\n      pop\n      jump\t// out\n        /* \"MSWAP/Games/Games1.sol\":11615:11841  function sendIsWinner(uint256 amount, uint256 multiplier) internal returns (uint256 payOut) {\r... */\n    tag_569:\n        /* \"MSWAP/Games/Games1.sol\":11691:11705  uint256 payOut */\n      0x00\n        /* \"MSWAP/Games/Games1.sol\":11773:11776  100 */\n      0x64\n        /* \"MSWAP/Games/Games1.sol\":11760:11770  multiplier */\n      dup3\n        /* \"MSWAP/Games/Games1.sol\":11753:11756  100 */\n      0x64\n        /* \"MSWAP/Games/Games1.sol\":11737:11750  payOutDivisor */\n      sload(0x09)\n        /* \"MSWAP/Games/Games1.sol\":11728:11734  amount */\n      dup7\n        /* \"MSWAP/Games/Games1.sol\":11728:11750  amount * payOutDivisor */\n      tag_823\n      swap2\n      swap1\n      tag_467\n      jump\t// in\n    tag_823:\n        /* \"MSWAP/Games/Games1.sol\":11728:11756  amount * payOutDivisor / 100 */\n      tag_824\n      swap2\n      swap1\n      tag_469\n      jump\t// in\n    tag_824:\n        /* \"MSWAP/Games/Games1.sol\":11727:11770  (amount * payOutDivisor / 100) * multiplier */\n      tag_825\n      swap2\n      swap1\n      tag_467\n      jump\t// in\n    tag_825:\n        /* \"MSWAP/Games/Games1.sol\":11727:11776  (amount * payOutDivisor / 100) * multiplier / 100 */\n      tag_805\n      swap2\n      swap1\n      tag_469\n      jump\t// in\n        /* \"MSWAP/Games/Games1.sol\":12655:12895  function sendIsLoser(uint256 _betAmount) internal returns(uint256 value) {\r... */\n    tag_572:\n        /* \"MSWAP/Games/Games1.sol\":12775:12784  gameToken */\n      sload(0x01)\n        /* \"MSWAP/Games/Games1.sol\":12768:12837  IERC20(gameToken).transferFrom(msg.sender, address(this), _betAmount) */\n      mload(0x40)\n      shl(0xe0, 0x23b872dd)\n      dup2\n      mstore\n        /* \"MSWAP/Games/Games1.sol\":12799:12809  msg.sender */\n      caller\n        /* \"MSWAP/Games/Games1.sol\":12768:12837  IERC20(gameToken).transferFrom(msg.sender, address(this), _betAmount) */\n      0x04\n      dup3\n      add\n        /* \"#utility.yul\":6394:6428   */\n      mstore\n        /* \"MSWAP/Games/Games1.sol\":12819:12823  this */\n      address\n        /* \"#utility.yul\":6444:6462   */\n      0x24\n      dup3\n      add\n        /* \"#utility.yul\":6437:6480   */\n      mstore\n        /* \"#utility.yul\":6496:6514   */\n      0x44\n      dup2\n      add\n        /* \"#utility.yul\":6489:6523   */\n      dup4\n      swap1\n      mstore\n        /* \"MSWAP/Games/Games1.sol\":12747:12757  _betAmount */\n      dup3\n      swap2\n      sub(shl(0xa0, 0x01), 0x01)\n        /* \"MSWAP/Games/Games1.sol\":12775:12784  gameToken */\n      and\n      swap1\n        /* \"MSWAP/Games/Games1.sol\":12768:12798  IERC20(gameToken).transferFrom */\n      0x23b872dd\n      swap1\n        /* \"#utility.yul\":6329:6347   */\n      0x64\n      add\n        /* \"MSWAP/Games/Games1.sol\":12768:12837  IERC20(gameToken).transferFrom(msg.sender, address(this), _betAmount) */\n      0x20\n      mload(0x40)\n      dup1\n      dup4\n      sub\n      dup2\n      0x00\n      dup8\n      dup1\n      extcodesize\n      iszero\n      dup1\n      iszero\n      tag_834\n      jumpi\n      0x00\n      dup1\n      revert\n    tag_834:\n      pop\n      gas\n      call\n      iszero\n      dup1\n      iszero\n      tag_836\n      jumpi\n      returndatasize\n      0x00\n      dup1\n      returndatacopy\n      revert(0x00, returndatasize)\n    tag_836:\n      pop\n      pop\n      pop\n      pop\n      mload(0x40)\n      returndatasize\n      not(0x1f)\n      0x1f\n      dup3\n      add\n      and\n      dup3\n      add\n      dup1\n      0x40\n      mstore\n      pop\n      dup2\n      add\n      swap1\n      tag_837\n      swap2\n      swap1\n      tag_345\n      jump\t// in\n    tag_837:\n      pop\n        /* \"MSWAP/Games/Games1.sol\":12851:12861  FeeDivisor */\n      sload(0x08)\n        /* \"MSWAP/Games/Games1.sol\":12851:12865  FeeDivisor > 0 */\n      iszero\n        /* \"MSWAP/Games/Games1.sol\":12848:12887  if(FeeDivisor > 0) sendFees(_betAmount) */\n      tag_839\n      jumpi\n        /* \"MSWAP/Games/Games1.sol\":12867:12887  sendFees(_betAmount) */\n      tag_839\n        /* \"MSWAP/Games/Games1.sol\":12876:12886  _betAmount */\n      dup3\n        /* \"MSWAP/Games/Games1.sol\":12867:12875  sendFees */\n      tag_528\n        /* \"MSWAP/Games/Games1.sol\":12867:12887  sendFees(_betAmount) */\n      jump\t// in\n    tag_839:\n        /* \"MSWAP/Games/Games1.sol\":12655:12895  function sendIsLoser(uint256 _betAmount) internal returns(uint256 value) {\r... */\n      swap2\n      swap1\n      pop\n      jump\t// out\n        /* \"MSWAP/Games/Games1.sol\":16182:16572  function drawACardCTD() internal returns ( uint256 number, uint256 suit) {\r... */\n    tag_594:\n        /* \"MSWAP/Games/Games1.sol\":16319:16329  msg.sender */\n      caller\n        /* \"MSWAP/Games/Games1.sol\":16225:16239  uint256 number */\n      0x00\n        /* \"MSWAP/Games/Games1.sol\":16305:16330  usersRoundCTD[msg.sender] */\n      swap1\n      dup2\n      mstore\n        /* \"MSWAP/Games/Games1.sol\":16305:16318  usersRoundCTD */\n      0x15\n        /* \"MSWAP/Games/Games1.sol\":16305:16330  usersRoundCTD[msg.sender] */\n      0x20\n      mstore\n      0x40\n      dup2\n      keccak256\n      sload\n        /* \"MSWAP/Games/Games1.sol\":16225:16239  uint256 number */\n      dup2\n      swap1\n      dup2\n      swap1\n        /* \"MSWAP/Games/Games1.sol\":16341:16507  do {\r... */\n    tag_841:\n        /* \"MSWAP/Games/Games1.sol\":16366:16372  rng(4) */\n      tag_844\n        /* \"MSWAP/Games/Games1.sol\":16370:16371  4 */\n      0x04\n        /* \"MSWAP/Games/Games1.sol\":16366:16369  rng */\n      tag_154\n        /* \"MSWAP/Games/Games1.sol\":16366:16372  rng(4) */\n      jump\t// in\n    tag_844:\n        /* \"MSWAP/Games/Games1.sol\":16359:16372  suit = rng(4) */\n      swap3\n      pop\n        /* \"MSWAP/Games/Games1.sol\":16396:16403  rng(13) */\n      tag_845\n        /* \"MSWAP/Games/Games1.sol\":16400:16402  13 */\n      0x0d\n        /* \"MSWAP/Games/Games1.sol\":16396:16399  rng */\n      tag_154\n        /* \"MSWAP/Games/Games1.sol\":16396:16403  rng(13) */\n      jump\t// in\n    tag_845:\n        /* \"MSWAP/Games/Games1.sol\":16387:16403  number = rng(13) */\n      swap4\n      pop\n      dup4\n        /* \"MSWAP/Games/Games1.sol\":16426:16435  suit * 13 */\n      tag_846\n        /* \"MSWAP/Games/Games1.sol\":16426:16430  suit */\n      dup5\n        /* \"MSWAP/Games/Games1.sol\":16433:16435  13 */\n      0x0d\n        /* \"MSWAP/Games/Games1.sol\":16426:16435  suit * 13 */\n      tag_467\n      jump\t// in\n    tag_846:\n        /* \"MSWAP/Games/Games1.sol\":16425:16445  (suit * 13) + number */\n      tag_847\n      swap2\n      swap1\n      tag_449\n      jump\t// in\n    tag_847:\n        /* \"MSWAP/Games/Games1.sol\":16481:16491  msg.sender */\n      caller\n        /* \"MSWAP/Games/Games1.sol\":16465:16492  isCardPlayedCTD[msg.sender] */\n      0x00\n      swap1\n      dup2\n      mstore\n        /* \"MSWAP/Games/Games1.sol\":16465:16480  isCardPlayedCTD */\n      0x16\n        /* \"MSWAP/Games/Games1.sol\":16465:16492  isCardPlayedCTD[msg.sender] */\n      0x20\n      swap1\n      dup2\n      mstore\n      0x40\n      dup1\n      dup4\n      keccak256\n        /* \"MSWAP/Games/Games1.sol\":16465:16499  isCardPlayedCTD[msg.sender][round] */\n      dup6\n      dup5\n      mstore\n      dup3\n      mstore\n      dup1\n      dup4\n      keccak256\n        /* \"MSWAP/Games/Games1.sol\":16465:16505  isCardPlayedCTD[msg.sender][round][card] */\n      dup5\n      dup5\n      mstore\n      swap1\n      swap2\n      mstore\n      swap1\n      keccak256\n      sload\n        /* \"MSWAP/Games/Games1.sol\":16418:16445  card = (suit * 13) + number */\n      swap1\n      swap3\n      pop\n        /* \"MSWAP/Games/Games1.sol\":16465:16505  isCardPlayedCTD[msg.sender][round][card] */\n      0xff\n      and\n        /* \"MSWAP/Games/Games1.sol\":16341:16507  do {\r... */\n      tag_841\n      jumpi\n        /* \"MSWAP/Games/Games1.sol\":16533:16543  msg.sender */\n      caller\n        /* \"MSWAP/Games/Games1.sol\":16517:16544  isCardPlayedCTD[msg.sender] */\n      0x00\n      swap1\n      dup2\n      mstore\n        /* \"MSWAP/Games/Games1.sol\":16517:16532  isCardPlayedCTD */\n      0x16\n        /* \"MSWAP/Games/Games1.sol\":16517:16544  isCardPlayedCTD[msg.sender] */\n      0x20\n      swap1\n      dup2\n      mstore\n      0x40\n      dup1\n      dup4\n      keccak256\n        /* \"MSWAP/Games/Games1.sol\":16517:16551  isCardPlayedCTD[msg.sender][round] */\n      swap4\n      dup4\n      mstore\n      swap3\n      dup2\n      mstore\n      dup3\n      dup3\n      keccak256\n        /* \"MSWAP/Games/Games1.sol\":16517:16557  isCardPlayedCTD[msg.sender][round][card] */\n      swap4\n      dup3\n      mstore\n      swap3\n      swap1\n      swap3\n      mstore\n      swap1\n      keccak256\n        /* \"MSWAP/Games/Games1.sol\":16517:16564  isCardPlayedCTD[msg.sender][round][card] = true */\n      dup1\n      sload\n      not(0xff)\n      and\n        /* \"MSWAP/Games/Games1.sol\":16560:16564  true */\n      0x01\n        /* \"MSWAP/Games/Games1.sol\":16517:16564  isCardPlayedCTD[msg.sender][round][card] = true */\n      or\n      swap1\n      sstore\n        /* \"MSWAP/Games/Games1.sol\":16182:16572  function drawACardCTD() internal returns ( uint256 number, uint256 suit) {\r... */\n      swap1\n      swap2\n      jump\t// out\n        /* \"#utility.yul\":14:261   */\n    tag_121:\n        /* \"#utility.yul\":73:79   */\n      0x00\n        /* \"#utility.yul\":126:128   */\n      0x20\n        /* \"#utility.yul\":114:123   */\n      dup3\n        /* \"#utility.yul\":105:112   */\n      dup5\n        /* \"#utility.yul\":101:124   */\n      sub\n        /* \"#utility.yul\":97:129   */\n      slt\n        /* \"#utility.yul\":94:146   */\n      iszero\n      tag_851\n      jumpi\n        /* \"#utility.yul\":142:143   */\n      0x00\n        /* \"#utility.yul\":139:140   */\n      dup1\n        /* \"#utility.yul\":132:144   */\n      revert\n        /* \"#utility.yul\":94:146   */\n    tag_851:\n        /* \"#utility.yul\":181:190   */\n      dup2\n        /* \"#utility.yul\":168:191   */\n      calldataload\n        /* \"#utility.yul\":200:231   */\n      tag_421\n        /* \"#utility.yul\":225:230   */\n      dup2\n        /* \"#utility.yul\":200:231   */\n      tag_853\n      jump\t// in\n        /* \"#utility.yul\":266:517   */\n    tag_395:\n        /* \"#utility.yul\":336:342   */\n      0x00\n        /* \"#utility.yul\":389:391   */\n      0x20\n        /* \"#utility.yul\":377:386   */\n      dup3\n        /* \"#utility.yul\":368:375   */\n      dup5\n        /* \"#utility.yul\":364:387   */\n      sub\n        /* \"#utility.yul\":360:392   */\n      slt\n        /* \"#utility.yul\":357:409   */\n      iszero\n      tag_855\n      jumpi\n        /* \"#utility.yul\":405:406   */\n      0x00\n        /* \"#utility.yul\":402:403   */\n      dup1\n        /* \"#utility.yul\":395:407   */\n      revert\n        /* \"#utility.yul\":357:409   */\n    tag_855:\n        /* \"#utility.yul\":437:446   */\n      dup2\n        /* \"#utility.yul\":431:447   */\n      mload\n        /* \"#utility.yul\":456:487   */\n      tag_421\n        /* \"#utility.yul\":481:486   */\n      dup2\n        /* \"#utility.yul\":456:487   */\n      tag_853\n      jump\t// in\n        /* \"#utility.yul\":522:904   */\n    tag_295:\n        /* \"#utility.yul\":587:593   */\n      0x00\n        /* \"#utility.yul\":595:601   */\n      dup1\n        /* \"#utility.yul\":648:650   */\n      0x40\n        /* \"#utility.yul\":636:645   */\n      dup4\n        /* \"#utility.yul\":627:634   */\n      dup6\n        /* \"#utility.yul\":623:646   */\n      sub\n        /* \"#utility.yul\":619:651   */\n      slt\n        /* \"#utility.yul\":616:668   */\n      iszero\n      tag_858\n      jumpi\n        /* \"#utility.yul\":664:665   */\n      0x00\n        /* \"#utility.yul\":661:662   */\n      dup1\n        /* \"#utility.yul\":654:666   */\n      revert\n        /* \"#utility.yul\":616:668   */\n    tag_858:\n        /* \"#utility.yul\":703:712   */\n      dup3\n        /* \"#utility.yul\":690:713   */\n      calldataload\n        /* \"#utility.yul\":722:753   */\n      tag_859\n        /* \"#utility.yul\":747:752   */\n      dup2\n        /* \"#utility.yul\":722:753   */\n      tag_853\n      jump\t// in\n    tag_859:\n        /* \"#utility.yul\":772:777   */\n      swap2\n      pop\n        /* \"#utility.yul\":829:831   */\n      0x20\n        /* \"#utility.yul\":814:832   */\n      dup4\n      add\n        /* \"#utility.yul\":801:833   */\n      calldataload\n        /* \"#utility.yul\":842:872   */\n      tag_860\n        /* \"#utility.yul\":801:833   */\n      dup2\n        /* \"#utility.yul\":842:872   */\n      tag_861\n      jump\t// in\n    tag_860:\n        /* \"#utility.yul\":891:898   */\n      dup1\n        /* \"#utility.yul\":881:898   */\n      swap2\n      pop\n      pop\n        /* \"#utility.yul\":522:904   */\n      swap3\n      pop\n      swap3\n      swap1\n      pop\n      jump\t// out\n        /* \"#utility.yul\":909:1224   */\n    tag_103:\n        /* \"#utility.yul\":977:983   */\n      0x00\n        /* \"#utility.yul\":985:991   */\n      dup1\n        /* \"#utility.yul\":1038:1040   */\n      0x40\n        /* \"#utility.yul\":1026:1035   */\n      dup4\n        /* \"#utility.yul\":1017:1024   */\n      dup6\n        /* \"#utility.yul\":1013:1036   */\n      sub\n        /* \"#utility.yul\":1009:1041   */\n      slt\n        /* \"#utility.yul\":1006:1058   */\n      iszero\n      tag_863\n      jumpi\n        /* \"#utility.yul\":1054:1055   */\n      0x00\n        /* \"#utility.yul\":1051:1052   */\n      dup1\n        /* \"#utility.yul\":1044:1056   */\n      revert\n        /* \"#utility.yul\":1006:1058   */\n    tag_863:\n        /* \"#utility.yul\":1093:1102   */\n      dup3\n        /* \"#utility.yul\":1080:1103   */\n      calldataload\n        /* \"#utility.yul\":1112:1143   */\n      tag_864\n        /* \"#utility.yul\":1137:1142   */\n      dup2\n        /* \"#utility.yul\":1112:1143   */\n      tag_853\n      jump\t// in\n    tag_864:\n        /* \"#utility.yul\":1162:1167   */\n      swap5\n        /* \"#utility.yul\":1214:1216   */\n      0x20\n        /* \"#utility.yul\":1199:1217   */\n      swap4\n      swap1\n      swap4\n      add\n        /* \"#utility.yul\":1186:1218   */\n      calldataload\n      swap4\n      pop\n      pop\n      pop\n        /* \"#utility.yul\":909:1224   */\n      jump\t// out\n        /* \"#utility.yul\":1229:2355   */\n    tag_201:\n        /* \"#utility.yul\":1313:1319   */\n      0x00\n        /* \"#utility.yul\":1344:1346   */\n      0x20\n        /* \"#utility.yul\":1387:1389   */\n      dup1\n        /* \"#utility.yul\":1375:1384   */\n      dup4\n        /* \"#utility.yul\":1366:1373   */\n      dup6\n        /* \"#utility.yul\":1362:1385   */\n      sub\n        /* \"#utility.yul\":1358:1390   */\n      slt\n        /* \"#utility.yul\":1355:1407   */\n      iszero\n      tag_866\n      jumpi\n        /* \"#utility.yul\":1403:1404   */\n      0x00\n        /* \"#utility.yul\":1400:1401   */\n      dup1\n        /* \"#utility.yul\":1393:1405   */\n      revert\n        /* \"#utility.yul\":1355:1407   */\n    tag_866:\n        /* \"#utility.yul\":1443:1452   */\n      dup3\n        /* \"#utility.yul\":1430:1453   */\n      calldataload\n        /* \"#utility.yul\":1472:1490   */\n      0xffffffffffffffff\n        /* \"#utility.yul\":1513:1515   */\n      dup1\n        /* \"#utility.yul\":1505:1511   */\n      dup3\n        /* \"#utility.yul\":1502:1516   */\n      gt\n        /* \"#utility.yul\":1499:1533   */\n      iszero\n      tag_867\n      jumpi\n        /* \"#utility.yul\":1529:1530   */\n      0x00\n        /* \"#utility.yul\":1526:1527   */\n      dup1\n        /* \"#utility.yul\":1519:1531   */\n      revert\n        /* \"#utility.yul\":1499:1533   */\n    tag_867:\n        /* \"#utility.yul\":1567:1573   */\n      dup2\n        /* \"#utility.yul\":1556:1565   */\n      dup6\n        /* \"#utility.yul\":1552:1574   */\n      add\n        /* \"#utility.yul\":1542:1574   */\n      swap2\n      pop\n        /* \"#utility.yul\":1612:1619   */\n      dup6\n        /* \"#utility.yul\":1605:1609   */\n      0x1f\n        /* \"#utility.yul\":1601:1603   */\n      dup4\n        /* \"#utility.yul\":1597:1610   */\n      add\n        /* \"#utility.yul\":1593:1620   */\n      slt\n        /* \"#utility.yul\":1583:1638   */\n      tag_868\n      jumpi\n        /* \"#utility.yul\":1634:1635   */\n      0x00\n        /* \"#utility.yul\":1631:1632   */\n      dup1\n        /* \"#utility.yul\":1624:1636   */\n      revert\n        /* \"#utility.yul\":1583:1638   */\n    tag_868:\n        /* \"#utility.yul\":1670:1672   */\n      dup2\n        /* \"#utility.yul\":1657:1673   */\n      calldataload\n        /* \"#utility.yul\":1692:1694   */\n      dup2\n        /* \"#utility.yul\":1688:1690   */\n      dup2\n        /* \"#utility.yul\":1685:1695   */\n      gt\n        /* \"#utility.yul\":1682:1718   */\n      iszero\n      tag_870\n      jumpi\n        /* \"#utility.yul\":1698:1716   */\n      tag_870\n      tag_371\n      jump\t// in\n    tag_870:\n        /* \"#utility.yul\":1744:1746   */\n      dup1\n        /* \"#utility.yul\":1741:1742   */\n      0x05\n        /* \"#utility.yul\":1737:1747   */\n      shl\n        /* \"#utility.yul\":1776:1778   */\n      0x40\n        /* \"#utility.yul\":1770:1779   */\n      mload\n        /* \"#utility.yul\":1839:1841   */\n      0x1f\n        /* \"#utility.yul\":1835:1842   */\n      not\n        /* \"#utility.yul\":1830:1832   */\n      0x3f\n        /* \"#utility.yul\":1826:1828   */\n      dup4\n        /* \"#utility.yul\":1822:1833   */\n      add\n        /* \"#utility.yul\":1818:1843   */\n      and\n        /* \"#utility.yul\":1810:1816   */\n      dup2\n        /* \"#utility.yul\":1806:1844   */\n      add\n        /* \"#utility.yul\":1894:1900   */\n      dup2\n        /* \"#utility.yul\":1882:1892   */\n      dup2\n        /* \"#utility.yul\":1879:1901   */\n      lt\n        /* \"#utility.yul\":1874:1876   */\n      dup6\n        /* \"#utility.yul\":1862:1872   */\n      dup3\n        /* \"#utility.yul\":1859:1877   */\n      gt\n        /* \"#utility.yul\":1856:1902   */\n      or\n        /* \"#utility.yul\":1853:1925   */\n      iszero\n      tag_872\n      jumpi\n        /* \"#utility.yul\":1905:1923   */\n      tag_872\n      tag_371\n      jump\t// in\n    tag_872:\n        /* \"#utility.yul\":1941:1943   */\n      0x40\n        /* \"#utility.yul\":1934:1956   */\n      mstore\n        /* \"#utility.yul\":1991:2009   */\n      dup3\n      dup2\n      mstore\n        /* \"#utility.yul\":2025:2040   */\n      dup6\n      dup2\n      add\n      swap4\n      pop\n        /* \"#utility.yul\":2060:2071   */\n      dup5\n      dup7\n      add\n        /* \"#utility.yul\":2090:2101   */\n      dup3\n      dup7\n      add\n        /* \"#utility.yul\":2086:2106   */\n      dup8\n      add\n        /* \"#utility.yul\":2083:2116   */\n      dup11\n      lt\n        /* \"#utility.yul\":2080:2133   */\n      iszero\n      tag_873\n      jumpi\n        /* \"#utility.yul\":2129:2130   */\n      0x00\n        /* \"#utility.yul\":2126:2127   */\n      dup1\n        /* \"#utility.yul\":2119:2131   */\n      revert\n        /* \"#utility.yul\":2080:2133   */\n    tag_873:\n        /* \"#utility.yul\":2151:2152   */\n      0x00\n        /* \"#utility.yul\":2142:2152   */\n      swap6\n      pop\n        /* \"#utility.yul\":2161:2324   */\n    tag_874:\n        /* \"#utility.yul\":2175:2177   */\n      dup4\n        /* \"#utility.yul\":2172:2173   */\n      dup7\n        /* \"#utility.yul\":2169:2178   */\n      lt\n        /* \"#utility.yul\":2161:2324   */\n      iszero\n      tag_876\n      jumpi\n        /* \"#utility.yul\":2232:2249   */\n      dup1\n      calldataload\n        /* \"#utility.yul\":2220:2250   */\n      dup6\n      mstore\n        /* \"#utility.yul\":2193:2194   */\n      0x01\n        /* \"#utility.yul\":2186:2195   */\n      swap6\n      swap1\n      swap6\n      add\n      swap5\n        /* \"#utility.yul\":2270:2282   */\n      swap4\n      dup7\n      add\n      swap4\n        /* \"#utility.yul\":2302:2314   */\n      dup7\n      add\n        /* \"#utility.yul\":2161:2324   */\n      jump(tag_874)\n    tag_876:\n      pop\n        /* \"#utility.yul\":2343:2349   */\n      swap9\n        /* \"#utility.yul\":1229:2355   */\n      swap8\n      pop\n      pop\n      pop\n      pop\n      pop\n      pop\n      pop\n      pop\n      jump\t// out\n        /* \"#utility.yul\":2360:2601   */\n    tag_149:\n        /* \"#utility.yul\":2416:2422   */\n      0x00\n        /* \"#utility.yul\":2469:2471   */\n      0x20\n        /* \"#utility.yul\":2457:2466   */\n      dup3\n        /* \"#utility.yul\":2448:2455   */\n      dup5\n        /* \"#utility.yul\":2444:2467   */\n      sub\n        /* \"#utility.yul\":2440:2472   */\n      slt\n        /* \"#utility.yul\":2437:2489   */\n      iszero\n      tag_878\n      jumpi\n        /* \"#utility.yul\":2485:2486   */\n      0x00\n        /* \"#utility.yul\":2482:2483   */\n      dup1\n        /* \"#utility.yul\":2475:2487   */\n      revert\n        /* \"#utility.yul\":2437:2489   */\n    tag_878:\n        /* \"#utility.yul\":2524:2533   */\n      dup2\n        /* \"#utility.yul\":2511:2534   */\n      calldataload\n        /* \"#utility.yul\":2543:2571   */\n      tag_421\n        /* \"#utility.yul\":2565:2570   */\n      dup2\n        /* \"#utility.yul\":2543:2571   */\n      tag_861\n      jump\t// in\n        /* \"#utility.yul\":2606:2851   */\n    tag_345:\n        /* \"#utility.yul\":2673:2679   */\n      0x00\n        /* \"#utility.yul\":2726:2728   */\n      0x20\n        /* \"#utility.yul\":2714:2723   */\n      dup3\n        /* \"#utility.yul\":2705:2712   */\n      dup5\n        /* \"#utility.yul\":2701:2724   */\n      sub\n        /* \"#utility.yul\":2697:2729   */\n      slt\n        /* \"#utility.yul\":2694:2746   */\n      iszero\n      tag_881\n      jumpi\n        /* \"#utility.yul\":2742:2743   */\n      0x00\n        /* \"#utility.yul\":2739:2740   */\n      dup1\n        /* \"#utility.yul\":2732:2744   */\n      revert\n        /* \"#utility.yul\":2694:2746   */\n    tag_881:\n        /* \"#utility.yul\":2774:2783   */\n      dup2\n        /* \"#utility.yul\":2768:2784   */\n      mload\n        /* \"#utility.yul\":2793:2821   */\n      tag_421\n        /* \"#utility.yul\":2815:2820   */\n      dup2\n        /* \"#utility.yul\":2793:2821   */\n      tag_861\n      jump\t// in\n        /* \"#utility.yul\":2856:3036   */\n    tag_77:\n        /* \"#utility.yul\":2915:2921   */\n      0x00\n        /* \"#utility.yul\":2968:2970   */\n      0x20\n        /* \"#utility.yul\":2956:2965   */\n      dup3\n        /* \"#utility.yul\":2947:2954   */\n      dup5\n        /* \"#utility.yul\":2943:2966   */\n      sub\n        /* \"#utility.yul\":2939:2971   */\n      slt\n        /* \"#utility.yul\":2936:2988   */\n      iszero\n      tag_884\n      jumpi\n        /* \"#utility.yul\":2984:2985   */\n      0x00\n        /* \"#utility.yul\":2981:2982   */\n      dup1\n        /* \"#utility.yul\":2974:2986   */\n      revert\n        /* \"#utility.yul\":2936:2988   */\n    tag_884:\n      pop\n        /* \"#utility.yul\":3007:3030   */\n      calldataload\n      swap2\n        /* \"#utility.yul\":2856:3036   */\n      swap1\n      pop\n      jump\t// out\n        /* \"#utility.yul\":3041:3225   */\n    tag_408:\n        /* \"#utility.yul\":3111:3117   */\n      0x00\n        /* \"#utility.yul\":3164:3166   */\n      0x20\n        /* \"#utility.yul\":3152:3161   */\n      dup3\n        /* \"#utility.yul\":3143:3150   */\n      dup5\n        /* \"#utility.yul\":3139:3162   */\n      sub\n        /* \"#utility.yul\":3135:3167   */\n      slt\n        /* \"#utility.yul\":3132:3184   */\n      iszero\n      tag_886\n      jumpi\n        /* \"#utility.yul\":3180:3181   */\n      0x00\n        /* \"#utility.yul\":3177:3178   */\n      dup1\n        /* \"#utility.yul\":3170:3182   */\n      revert\n        /* \"#utility.yul\":3132:3184   */\n    tag_886:\n      pop\n        /* \"#utility.yul\":3203:3219   */\n      mload\n      swap2\n        /* \"#utility.yul\":3041:3225   */\n      swap1\n      pop\n      jump\t// out\n        /* \"#utility.yul\":3230:3613   */\n    tag_176:\n        /* \"#utility.yul\":3307:3313   */\n      0x00\n        /* \"#utility.yul\":3315:3321   */\n      dup1\n        /* \"#utility.yul\":3323:3329   */\n      0x00\n        /* \"#utility.yul\":3376:3378   */\n      0x60\n        /* \"#utility.yul\":3364:3373   */\n      dup5\n        /* \"#utility.yul\":3355:3362   */\n      dup7\n        /* \"#utility.yul\":3351:3374   */\n      sub\n        /* \"#utility.yul\":3347:3379   */\n      slt\n        /* \"#utility.yul\":3344:3396   */\n      iszero\n      tag_888\n      jumpi\n        /* \"#utility.yul\":3392:3393   */\n      0x00\n        /* \"#utility.yul\":3389:3390   */\n      dup1\n        /* \"#utility.yul\":3382:3394   */\n      revert\n        /* \"#utility.yul\":3344:3396   */\n    tag_888:\n        /* \"#utility.yul\":3428:3437   */\n      dup4\n        /* \"#utility.yul\":3415:3438   */\n      calldataload\n        /* \"#utility.yul\":3405:3438   */\n      swap3\n      pop\n        /* \"#utility.yul\":3485:3487   */\n      0x20\n        /* \"#utility.yul\":3474:3483   */\n      dup5\n        /* \"#utility.yul\":3470:3488   */\n      add\n        /* \"#utility.yul\":3457:3489   */\n      calldataload\n        /* \"#utility.yul\":3447:3489   */\n      swap2\n      pop\n        /* \"#utility.yul\":3539:3541   */\n      0x40\n        /* \"#utility.yul\":3528:3537   */\n      dup5\n        /* \"#utility.yul\":3524:3542   */\n      add\n        /* \"#utility.yul\":3511:3543   */\n      calldataload\n        /* \"#utility.yul\":3552:3583   */\n      tag_889\n        /* \"#utility.yul\":3577:3582   */\n      dup2\n        /* \"#utility.yul\":3552:3583   */\n      tag_853\n      jump\t// in\n    tag_889:\n        /* \"#utility.yul\":3602:3607   */\n      dup1\n        /* \"#utility.yul\":3592:3607   */\n      swap2\n      pop\n      pop\n        /* \"#utility.yul\":3230:3613   */\n      swap3\n      pop\n      swap3\n      pop\n      swap3\n      jump\t// out\n        /* \"#utility.yul\":3618:3934   */\n    tag_246:\n        /* \"#utility.yul\":3695:3701   */\n      0x00\n        /* \"#utility.yul\":3703:3709   */\n      dup1\n        /* \"#utility.yul\":3711:3717   */\n      0x00\n        /* \"#utility.yul\":3764:3766   */\n      0x60\n        /* \"#utility.yul\":3752:3761   */\n      dup5\n        /* \"#utility.yul\":3743:3750   */\n      dup7\n        /* \"#utility.yul\":3739:3762   */\n      sub\n        /* \"#utility.yul\":3735:3767   */\n      slt\n        /* \"#utility.yul\":3732:3784   */\n      iszero\n      tag_891\n      jumpi\n        /* \"#utility.yul\":3780:3781   */\n      0x00\n        /* \"#utility.yul\":3777:3778   */\n      dup1\n        /* \"#utility.yul\":3770:3782   */\n      revert\n        /* \"#utility.yul\":3732:3784   */\n    tag_891:\n      pop\n      pop\n        /* \"#utility.yul\":3803:3826   */\n      dup2\n      calldataload\n      swap4\n        /* \"#utility.yul\":3873:3875   */\n      0x20\n        /* \"#utility.yul\":3858:3876   */\n      dup4\n      add\n        /* \"#utility.yul\":3845:3877   */\n      calldataload\n      swap4\n      pop\n        /* \"#utility.yul\":3924:3926   */\n      0x40\n        /* \"#utility.yul\":3909:3927   */\n      swap1\n      swap3\n      add\n        /* \"#utility.yul\":3896:3928   */\n      calldataload\n      swap2\n        /* \"#utility.yul\":3618:3934   */\n      swap1\n      pop\n      jump\t// out\n        /* \"#utility.yul\":3939:4531   */\n    tag_212:\n        /* \"#utility.yul\":4052:4058   */\n      0x00\n        /* \"#utility.yul\":4060:4066   */\n      dup1\n        /* \"#utility.yul\":4068:4074   */\n      0x00\n        /* \"#utility.yul\":4076:4082   */\n      dup1\n        /* \"#utility.yul\":4084:4090   */\n      0x00\n        /* \"#utility.yul\":4092:4098   */\n      dup1\n        /* \"#utility.yul\":4100:4106   */\n      0x00\n        /* \"#utility.yul\":4153:4156   */\n      0xe0\n        /* \"#utility.yul\":4141:4150   */\n      dup9\n        /* \"#utility.yul\":4132:4139   */\n      dup11\n        /* \"#utility.yul\":4128:4151   */\n      sub\n        /* \"#utility.yul\":4124:4157   */\n      slt\n        /* \"#utility.yul\":4121:4174   */\n      iszero\n      tag_893\n      jumpi\n        /* \"#utility.yul\":4170:4171   */\n      0x00\n        /* \"#utility.yul\":4167:4168   */\n      dup1\n        /* \"#utility.yul\":4160:4172   */\n      revert\n        /* \"#utility.yul\":4121:4174   */\n    tag_893:\n      pop\n      pop\n        /* \"#utility.yul\":4193:4216   */\n      dup6\n      calldataload\n      swap8\n        /* \"#utility.yul\":4263:4265   */\n      0x20\n        /* \"#utility.yul\":4248:4266   */\n      dup8\n      add\n        /* \"#utility.yul\":4235:4267   */\n      calldataload\n      swap8\n      pop\n        /* \"#utility.yul\":4314:4316   */\n      0x40\n        /* \"#utility.yul\":4299:4317   */\n      dup8\n      add\n        /* \"#utility.yul\":4286:4318   */\n      calldataload\n      swap7\n        /* \"#utility.yul\":4365:4367   */\n      0x60\n        /* \"#utility.yul\":4350:4368   */\n      dup2\n      add\n        /* \"#utility.yul\":4337:4369   */\n      calldataload\n      swap7\n      pop\n        /* \"#utility.yul\":4416:4419   */\n      0x80\n        /* \"#utility.yul\":4401:4420   */\n      dup2\n      add\n        /* \"#utility.yul\":4388:4421   */\n      calldataload\n      swap6\n      pop\n        /* \"#utility.yul\":4468:4471   */\n      0xa0\n        /* \"#utility.yul\":4453:4472   */\n      dup2\n      add\n        /* \"#utility.yul\":4440:4473   */\n      calldataload\n      swap5\n      pop\n        /* \"#utility.yul\":4520:4523   */\n      0xc0\n        /* \"#utility.yul\":4505:4524   */\n      add\n        /* \"#utility.yul\":4492:4525   */\n      calldataload\n      swap3\n      pop\n        /* \"#utility.yul\":3939:4531   */\n      swap1\n      pop\n      jump\t// out\n        /* \"#utility.yul\":4536:4971   */\n    tag_894:\n        /* \"#utility.yul\":4589:4592   */\n      0x00\n        /* \"#utility.yul\":4627:4632   */\n      dup2\n        /* \"#utility.yul\":4621:4633   */\n      mload\n        /* \"#utility.yul\":4654:4660   */\n      dup1\n        /* \"#utility.yul\":4649:4652   */\n      dup5\n        /* \"#utility.yul\":4642:4661   */\n      mstore\n        /* \"#utility.yul\":4680:4684   */\n      0x20\n        /* \"#utility.yul\":4709:4711   */\n      dup1\n        /* \"#utility.yul\":4704:4707   */\n      dup6\n        /* \"#utility.yul\":4700:4712   */\n      add\n        /* \"#utility.yul\":4693:4712   */\n      swap5\n      pop\n        /* \"#utility.yul\":4746:4748   */\n      dup1\n        /* \"#utility.yul\":4739:4744   */\n      dup5\n        /* \"#utility.yul\":4735:4749   */\n      add\n        /* \"#utility.yul\":4767:4768   */\n      0x00\n        /* \"#utility.yul\":4777:4946   */\n    tag_896:\n        /* \"#utility.yul\":4791:4797   */\n      dup4\n        /* \"#utility.yul\":4788:4789   */\n      dup2\n        /* \"#utility.yul\":4785:4798   */\n      lt\n        /* \"#utility.yul\":4777:4946   */\n      iszero\n      tag_898\n      jumpi\n        /* \"#utility.yul\":4852:4865   */\n      dup2\n      mload\n        /* \"#utility.yul\":4840:4866   */\n      dup8\n      mstore\n        /* \"#utility.yul\":4886:4898   */\n      swap6\n      dup3\n      add\n      swap6\n        /* \"#utility.yul\":4921:4936   */\n      swap1\n      dup3\n      add\n      swap1\n        /* \"#utility.yul\":4813:4814   */\n      0x01\n        /* \"#utility.yul\":4806:4815   */\n      add\n        /* \"#utility.yul\":4777:4946   */\n      jump(tag_896)\n    tag_898:\n      pop\n        /* \"#utility.yul\":4962:4965   */\n      swap5\n      swap6\n        /* \"#utility.yul\":4536:4971   */\n      swap5\n      pop\n      pop\n      pop\n      pop\n      pop\n      jump\t// out\n        /* \"#utility.yul\":4976:5445   */\n    tag_899:\n        /* \"#utility.yul\":5037:5040   */\n      0x00\n        /* \"#utility.yul\":5075:5080   */\n      dup2\n        /* \"#utility.yul\":5069:5081   */\n      sload\n        /* \"#utility.yul\":5102:5108   */\n      dup1\n        /* \"#utility.yul\":5097:5100   */\n      dup5\n        /* \"#utility.yul\":5090:5109   */\n      mstore\n        /* \"#utility.yul\":5128:5132   */\n      0x20\n        /* \"#utility.yul\":5157:5159   */\n      dup1\n        /* \"#utility.yul\":5152:5155   */\n      dup6\n        /* \"#utility.yul\":5148:5160   */\n      add\n        /* \"#utility.yul\":5141:5160   */\n      swap5\n      pop\n        /* \"#utility.yul\":5179:5184   */\n      dup4\n        /* \"#utility.yul\":5176:5177   */\n      0x00\n        /* \"#utility.yul\":5169:5185   */\n      mstore\n        /* \"#utility.yul\":5221:5223   */\n      dup1\n        /* \"#utility.yul\":5218:5219   */\n      0x00\n        /* \"#utility.yul\":5208:5224   */\n      keccak256\n        /* \"#utility.yul\":5242:5243   */\n      0x00\n        /* \"#utility.yul\":5252:5420   */\n    tag_901:\n        /* \"#utility.yul\":5266:5272   */\n      dup4\n        /* \"#utility.yul\":5263:5264   */\n      dup2\n        /* \"#utility.yul\":5260:5273   */\n      lt\n        /* \"#utility.yul\":5252:5420   */\n      iszero\n      tag_898\n      jumpi\n        /* \"#utility.yul\":5327:5340   */\n      dup2\n      sload\n        /* \"#utility.yul\":5315:5341   */\n      dup8\n      mstore\n        /* \"#utility.yul\":5361:5373   */\n      swap6\n      dup3\n      add\n      swap6\n        /* \"#utility.yul\":5408:5409   */\n      0x01\n        /* \"#utility.yul\":5396:5410   */\n      swap2\n      dup3\n      add\n      swap2\n        /* \"#utility.yul\":5281:5290   */\n      add\n        /* \"#utility.yul\":5252:5420   */\n      jump(tag_901)\n        /* \"#utility.yul\":6534:7927   */\n    tag_447:\n      sub(shl(0xa0, 0x01), 0x01)\n        /* \"#utility.yul\":7113:7145   */\n      dup12\n      and\n        /* \"#utility.yul\":7095:7146   */\n      dup2\n      mstore\n        /* \"#utility.yul\":7083:7086   */\n      0x0140\n        /* \"#utility.yul\":7177:7179   */\n      0x20\n        /* \"#utility.yul\":7162:7180   */\n      dup3\n      add\n        /* \"#utility.yul\":7155:7185   */\n      dup2\n      swap1\n      mstore\n        /* \"#utility.yul\":7054:7058   */\n      0x00\n      swap1\n        /* \"#utility.yul\":7208:7272   */\n      tag_909\n        /* \"#utility.yul\":7253:7271   */\n      dup4\n      dup3\n      add\n        /* \"#utility.yul\":7245:7251   */\n      dup14\n        /* \"#utility.yul\":7208:7272   */\n      tag_899\n      jump\t// in\n    tag_909:\n        /* \"#utility.yul\":7194:7272   */\n      swap1\n      pop\n        /* \"#utility.yul\":7320:7329   */\n      dup3\n        /* \"#utility.yul\":7312:7318   */\n      dup2\n        /* \"#utility.yul\":7308:7330   */\n      sub\n        /* \"#utility.yul\":7303:7305   */\n      0x40\n        /* \"#utility.yul\":7292:7301   */\n      dup5\n        /* \"#utility.yul\":7288:7306   */\n      add\n        /* \"#utility.yul\":7281:7331   */\n      mstore\n        /* \"#utility.yul\":7354:7406   */\n      tag_910\n        /* \"#utility.yul\":7399:7405   */\n      dup2\n        /* \"#utility.yul\":7391:7397   */\n      dup13\n        /* \"#utility.yul\":7354:7406   */\n      tag_899\n      jump\t// in\n    tag_910:\n        /* \"#utility.yul\":7340:7406   */\n      swap1\n      pop\n        /* \"#utility.yul\":7454:7463   */\n      dup3\n        /* \"#utility.yul\":7446:7452   */\n      dup2\n        /* \"#utility.yul\":7442:7464   */\n      sub\n        /* \"#utility.yul\":7437:7439   */\n      0x60\n        /* \"#utility.yul\":7426:7435   */\n      dup5\n        /* \"#utility.yul\":7422:7440   */\n      add\n        /* \"#utility.yul\":7415:7465   */\n      mstore\n        /* \"#utility.yul\":7488:7540   */\n      tag_911\n        /* \"#utility.yul\":7533:7539   */\n      dup2\n        /* \"#utility.yul\":7525:7531   */\n      dup12\n        /* \"#utility.yul\":7488:7540   */\n      tag_899\n      jump\t// in\n    tag_911:\n        /* \"#utility.yul\":7474:7540   */\n      swap1\n      pop\n        /* \"#utility.yul\":7589:7598   */\n      dup3\n        /* \"#utility.yul\":7581:7587   */\n      dup2\n        /* \"#utility.yul\":7577:7599   */\n      sub\n        /* \"#utility.yul\":7571:7574   */\n      0x80\n        /* \"#utility.yul\":7560:7569   */\n      dup5\n        /* \"#utility.yul\":7556:7575   */\n      add\n        /* \"#utility.yul\":7549:7600   */\n      mstore\n        /* \"#utility.yul\":7617:7669   */\n      tag_912\n        /* \"#utility.yul\":7662:7668   */\n      dup2\n        /* \"#utility.yul\":7654:7660   */\n      dup11\n        /* \"#utility.yul\":7617:7669   */\n      tag_899\n      jump\t// in\n    tag_912:\n        /* \"#utility.yul\":7700:7703   */\n      0xa0\n        /* \"#utility.yul\":7685:7704   */\n      dup5\n      add\n        /* \"#utility.yul\":7678:7713   */\n      swap9\n      swap1\n      swap9\n      mstore\n      pop\n      pop\n        /* \"#utility.yul\":7744:7747   */\n      0xc0\n        /* \"#utility.yul\":7729:7748   */\n      dup2\n      add\n        /* \"#utility.yul\":7722:7757   */\n      swap5\n      swap1\n      swap5\n      mstore\n        /* \"#utility.yul\":7788:7791   */\n      0xe0\n        /* \"#utility.yul\":7773:7792   */\n      dup5\n      add\n        /* \"#utility.yul\":7766:7801   */\n      swap3\n      swap1\n      swap3\n      mstore\n        /* \"#utility.yul\":7845:7859   */\n      iszero\n        /* \"#utility.yul\":7838:7860   */\n      iszero\n        /* \"#utility.yul\":7832:7835   */\n      0x0100\n        /* \"#utility.yul\":7817:7836   */\n      dup4\n      add\n        /* \"#utility.yul\":7810:7861   */\n      mstore\n        /* \"#utility.yul\":7905:7919   */\n      iszero\n        /* \"#utility.yul\":7898:7920   */\n      iszero\n        /* \"#utility.yul\":7892:7895   */\n      0x0120\n        /* \"#utility.yul\":7877:7896   */\n      swap1\n      swap2\n      add\n        /* \"#utility.yul\":7870:7921   */\n      mstore\n        /* \"#utility.yul\":7609:7669   */\n      swap6\n        /* \"#utility.yul\":6534:7927   */\n      swap5\n      pop\n      pop\n      pop\n      pop\n      pop\n      jump\t// out\n        /* \"#utility.yul\":11091:12284   */\n    tag_132:\n        /* \"#utility.yul\":11573:11577   */\n      0x00\n        /* \"#utility.yul\":11602:11605   */\n      0x0100\n        /* \"#utility.yul\":11632:11634   */\n      dup1\n        /* \"#utility.yul\":11621:11630   */\n      dup4\n        /* \"#utility.yul\":11614:11635   */\n      mstore\n        /* \"#utility.yul\":11658:11714   */\n      tag_920\n        /* \"#utility.yul\":11710:11712   */\n      dup2\n        /* \"#utility.yul\":11699:11708   */\n      dup5\n        /* \"#utility.yul\":11695:11713   */\n      add\n        /* \"#utility.yul\":11687:11693   */\n      dup13\n        /* \"#utility.yul\":11658:11714   */\n      tag_894\n      jump\t// in\n    tag_920:\n        /* \"#utility.yul\":11644:11714   */\n      swap1\n      pop\n        /* \"#utility.yul\":11762:11771   */\n      dup3\n        /* \"#utility.yul\":11754:11760   */\n      dup2\n        /* \"#utility.yul\":11750:11772   */\n      sub\n        /* \"#utility.yul\":11745:11747   */\n      0x20\n        /* \"#utility.yul\":11734:11743   */\n      dup5\n        /* \"#utility.yul\":11730:11748   */\n      add\n        /* \"#utility.yul\":11723:11773   */\n      mstore\n        /* \"#utility.yul\":11796:11840   */\n      tag_921\n        /* \"#utility.yul\":11833:11839   */\n      dup2\n        /* \"#utility.yul\":11825:11831   */\n      dup12\n        /* \"#utility.yul\":11796:11840   */\n      tag_894\n      jump\t// in\n    tag_921:\n        /* \"#utility.yul\":11782:11840   */\n      swap1\n      pop\n        /* \"#utility.yul\":11888:11897   */\n      dup3\n        /* \"#utility.yul\":11880:11886   */\n      dup2\n        /* \"#utility.yul\":11876:11898   */\n      sub\n        /* \"#utility.yul\":11871:11873   */\n      0x40\n        /* \"#utility.yul\":11860:11869   */\n      dup5\n        /* \"#utility.yul\":11856:11874   */\n      add\n        /* \"#utility.yul\":11849:11899   */\n      mstore\n        /* \"#utility.yul\":11922:11966   */\n      tag_922\n        /* \"#utility.yul\":11959:11965   */\n      dup2\n        /* \"#utility.yul\":11951:11957   */\n      dup11\n        /* \"#utility.yul\":11922:11966   */\n      tag_894\n      jump\t// in\n    tag_922:\n        /* \"#utility.yul\":11908:11966   */\n      swap1\n      pop\n        /* \"#utility.yul\":12014:12023   */\n      dup3\n        /* \"#utility.yul\":12006:12012   */\n      dup2\n        /* \"#utility.yul\":12002:12024   */\n      sub\n        /* \"#utility.yul\":11997:11999   */\n      0x60\n        /* \"#utility.yul\":11986:11995   */\n      dup5\n        /* \"#utility.yul\":11982:12000   */\n      add\n        /* \"#utility.yul\":11975:12025   */\n      mstore\n        /* \"#utility.yul\":12042:12086   */\n      tag_923\n        /* \"#utility.yul\":12079:12085   */\n      dup2\n        /* \"#utility.yul\":12071:12077   */\n      dup10\n        /* \"#utility.yul\":12042:12086   */\n      tag_894\n      jump\t// in\n    tag_923:\n        /* \"#utility.yul\":12034:12086   */\n      swap2\n      pop\n      pop\n        /* \"#utility.yul\":12123:12129   */\n      dup6\n        /* \"#utility.yul\":12117:12120   */\n      0x80\n        /* \"#utility.yul\":12106:12115   */\n      dup4\n        /* \"#utility.yul\":12102:12121   */\n      add\n        /* \"#utility.yul\":12095:12130   */\n      mstore\n        /* \"#utility.yul\":12167:12173   */\n      dup5\n        /* \"#utility.yul\":12161:12164   */\n      0xa0\n        /* \"#utility.yul\":12150:12159   */\n      dup4\n        /* \"#utility.yul\":12146:12165   */\n      add\n        /* \"#utility.yul\":12139:12174   */\n      mstore\n        /* \"#utility.yul\":12211:12217   */\n      dup4\n        /* \"#utility.yul\":12205:12208   */\n      0xc0\n        /* \"#utility.yul\":12194:12203   */\n      dup4\n        /* \"#utility.yul\":12190:12209   */\n      add\n        /* \"#utility.yul\":12183:12218   */\n      mstore\n        /* \"#utility.yul\":12269:12275   */\n      dup3\n        /* \"#utility.yul\":12262:12276   */\n      iszero\n        /* \"#utility.yul\":12255:12277   */\n      iszero\n        /* \"#utility.yul\":12249:12252   */\n      0xe0\n        /* \"#utility.yul\":12238:12247   */\n      dup4\n        /* \"#utility.yul\":12234:12253   */\n      add\n        /* \"#utility.yul\":12227:12278   */\n      mstore\n        /* \"#utility.yul\":11091:12284   */\n      swap10\n      swap9\n      pop\n      pop\n      pop\n      pop\n      pop\n      pop\n      pop\n      pop\n      pop\n      jump\t// out\n        /* \"#utility.yul\":14429:14779   */\n    tag_430:\n        /* \"#utility.yul\":14631:14633   */\n      0x20\n        /* \"#utility.yul\":14613:14634   */\n      dup1\n      dup3\n      mstore\n        /* \"#utility.yul\":14670:14672   */\n      0x1a\n        /* \"#utility.yul\":14650:14668   */\n      swap1\n      dup3\n      add\n        /* \"#utility.yul\":14643:14673   */\n      mstore\n        /* \"#utility.yul\":14709:14737   */\n      0x53746172744e657747616d6520746f20706c617920616761696e000000000000\n        /* \"#utility.yul\":14704:14706   */\n      0x40\n        /* \"#utility.yul\":14689:14707   */\n      dup3\n      add\n        /* \"#utility.yul\":14682:14738   */\n      mstore\n        /* \"#utility.yul\":14770:14772   */\n      0x60\n        /* \"#utility.yul\":14755:14773   */\n      add\n      swap1\n        /* \"#utility.yul\":14429:14779   */\n      jump\t// out\n        /* \"#utility.yul\":17012:17352   */\n    tag_332:\n        /* \"#utility.yul\":17214:17216   */\n      0x20\n        /* \"#utility.yul\":17196:17217   */\n      dup1\n      dup3\n      mstore\n        /* \"#utility.yul\":17253:17255   */\n      0x10\n        /* \"#utility.yul\":17233:17251   */\n      swap1\n      dup3\n      add\n        /* \"#utility.yul\":17226:17256   */\n      mstore\n      shl(0x82, 0x19d85b595cc8185c99481c185d5cd959)\n        /* \"#utility.yul\":17287:17289   */\n      0x40\n        /* \"#utility.yul\":17272:17290   */\n      dup3\n      add\n        /* \"#utility.yul\":17265:17311   */\n      mstore\n        /* \"#utility.yul\":17343:17345   */\n      0x60\n        /* \"#utility.yul\":17328:17346   */\n      add\n      swap1\n        /* \"#utility.yul\":17012:17352   */\n      jump\t// out\n        /* \"#utility.yul\":17357:17755   */\n    tag_464:\n        /* \"#utility.yul\":17559:17561   */\n      0x20\n        /* \"#utility.yul\":17541:17562   */\n      dup1\n      dup3\n      mstore\n        /* \"#utility.yul\":17598:17600   */\n      0x22\n        /* \"#utility.yul\":17578:17596   */\n      swap1\n      dup3\n      add\n        /* \"#utility.yul\":17571:17601   */\n      mstore\n        /* \"#utility.yul\":17637:17671   */\n      0x796f7520617265206e6f7420612067616d6520636f6e747261637420666f7220\n        /* \"#utility.yul\":17632:17634   */\n      0x40\n        /* \"#utility.yul\":17617:17635   */\n      dup3\n      add\n        /* \"#utility.yul\":17610:17672   */\n      mstore\n      shl(0xf0, 0x4647)\n        /* \"#utility.yul\":17703:17705   */\n      0x60\n        /* \"#utility.yul\":17688:17706   */\n      dup3\n      add\n        /* \"#utility.yul\":17681:17713   */\n      mstore\n        /* \"#utility.yul\":17745:17748   */\n      0x80\n        /* \"#utility.yul\":17730:17749   */\n      add\n      swap1\n        /* \"#utility.yul\":17357:17755   */\n      jump\t// out\n        /* \"#utility.yul\":21635:21763   */\n    tag_449:\n        /* \"#utility.yul\":21675:21678   */\n      0x00\n        /* \"#utility.yul\":21706:21707   */\n      dup3\n        /* \"#utility.yul\":21702:21708   */\n      not\n        /* \"#utility.yul\":21699:21700   */\n      dup3\n        /* \"#utility.yul\":21696:21709   */\n      gt\n        /* \"#utility.yul\":21693:21732   */\n      iszero\n      tag_951\n      jumpi\n        /* \"#utility.yul\":21712:21730   */\n      tag_951\n      tag_952\n      jump\t// in\n    tag_951:\n      pop\n        /* \"#utility.yul\":21748:21757   */\n      add\n      swap1\n        /* \"#utility.yul\":21635:21763   */\n      jump\t// out\n        /* \"#utility.yul\":21768:21888   */\n    tag_469:\n        /* \"#utility.yul\":21808:21809   */\n      0x00\n        /* \"#utility.yul\":21834:21835   */\n      dup3\n        /* \"#utility.yul\":21824:21859   */\n      tag_955\n      jumpi\n        /* \"#utility.yul\":21839:21857   */\n      tag_955\n      tag_956\n      jump\t// in\n    tag_955:\n      pop\n        /* \"#utility.yul\":21873:21882   */\n      div\n      swap1\n        /* \"#utility.yul\":21768:21888   */\n      jump\t// out\n        /* \"#utility.yul\":21893:22061   */\n    tag_467:\n        /* \"#utility.yul\":21933:21940   */\n      0x00\n        /* \"#utility.yul\":21999:22000   */\n      dup2\n        /* \"#utility.yul\":21995:21996   */\n      0x00\n        /* \"#utility.yul\":21991:21997   */\n      not\n        /* \"#utility.yul\":21987:22001   */\n      div\n        /* \"#utility.yul\":21984:21985   */\n      dup4\n        /* \"#utility.yul\":21981:22002   */\n      gt\n        /* \"#utility.yul\":21976:21977   */\n      dup3\n        /* \"#utility.yul\":21969:21978   */\n      iszero\n        /* \"#utility.yul\":21962:21979   */\n      iszero\n        /* \"#utility.yul\":21958:22003   */\n      and\n        /* \"#utility.yul\":21955:22026   */\n      iszero\n      tag_959\n      jumpi\n        /* \"#utility.yul\":22006:22024   */\n      tag_959\n      tag_952\n      jump\t// in\n    tag_959:\n      pop\n        /* \"#utility.yul\":22046:22055   */\n      mul\n      swap1\n        /* \"#utility.yul\":21893:22061   */\n      jump\t// out\n        /* \"#utility.yul\":22066:22191   */\n    tag_410:\n        /* \"#utility.yul\":22106:22110   */\n      0x00\n        /* \"#utility.yul\":22134:22135   */\n      dup3\n        /* \"#utility.yul\":22131:22132   */\n      dup3\n        /* \"#utility.yul\":22128:22136   */\n      lt\n        /* \"#utility.yul\":22125:22159   */\n      iszero\n      tag_962\n      jumpi\n        /* \"#utility.yul\":22139:22157   */\n      tag_962\n      tag_952\n      jump\t// in\n    tag_962:\n      pop\n        /* \"#utility.yul\":22176:22185   */\n      sub\n      swap1\n        /* \"#utility.yul\":22066:22191   */\n      jump\t// out\n        /* \"#utility.yul\":22196:22331   */\n    tag_508:\n        /* \"#utility.yul\":22235:22238   */\n      0x00\n      not(0x00)\n        /* \"#utility.yul\":22256:22273   */\n      dup3\n      eq\n        /* \"#utility.yul\":22253:22296   */\n      iszero\n      tag_965\n      jumpi\n        /* \"#utility.yul\":22276:22294   */\n      tag_965\n      tag_952\n      jump\t// in\n    tag_965:\n      pop\n        /* \"#utility.yul\":22323:22324   */\n      0x01\n        /* \"#utility.yul\":22312:22325   */\n      add\n      swap1\n        /* \"#utility.yul\":22196:22331   */\n      jump\t// out\n        /* \"#utility.yul\":22336:22448   */\n    tag_422:\n        /* \"#utility.yul\":22368:22369   */\n      0x00\n        /* \"#utility.yul\":22394:22395   */\n      dup3\n        /* \"#utility.yul\":22384:22419   */\n      tag_968\n      jumpi\n        /* \"#utility.yul\":22399:22417   */\n      tag_968\n      tag_956\n      jump\t// in\n    tag_968:\n      pop\n        /* \"#utility.yul\":22433:22442   */\n      mod\n      swap1\n        /* \"#utility.yul\":22336:22448   */\n      jump\t// out\n        /* \"#utility.yul\":22453:22580   */\n    tag_952:\n        /* \"#utility.yul\":22514:22524   */\n      0x4e487b71\n        /* \"#utility.yul\":22509:22512   */\n      0xe0\n        /* \"#utility.yul\":22505:22525   */\n      shl\n        /* \"#utility.yul\":22502:22503   */\n      0x00\n        /* \"#utility.yul\":22495:22526   */\n      mstore\n        /* \"#utility.yul\":22545:22549   */\n      0x11\n        /* \"#utility.yul\":22542:22543   */\n      0x04\n        /* \"#utility.yul\":22535:22550   */\n      mstore\n        /* \"#utility.yul\":22569:22573   */\n      0x24\n        /* \"#utility.yul\":22566:22567   */\n      0x00\n        /* \"#utility.yul\":22559:22574   */\n      revert\n        /* \"#utility.yul\":22585:22712   */\n    tag_956:\n        /* \"#utility.yul\":22646:22656   */\n      0x4e487b71\n        /* \"#utility.yul\":22641:22644   */\n      0xe0\n        /* \"#utility.yul\":22637:22657   */\n      shl\n        /* \"#utility.yul\":22634:22635   */\n      0x00\n        /* \"#utility.yul\":22627:22658   */\n      mstore\n        /* \"#utility.yul\":22677:22681   */\n      0x12\n        /* \"#utility.yul\":22674:22675   */\n      0x04\n        /* \"#utility.yul\":22667:22682   */\n      mstore\n        /* \"#utility.yul\":22701:22705   */\n      0x24\n        /* \"#utility.yul\":22698:22699   */\n      0x00\n        /* \"#utility.yul\":22691:22706   */\n      revert\n        /* \"#utility.yul\":22717:22844   */\n    tag_491:\n        /* \"#utility.yul\":22778:22788   */\n      0x4e487b71\n        /* \"#utility.yul\":22773:22776   */\n      0xe0\n        /* \"#utility.yul\":22769:22789   */\n      shl\n        /* \"#utility.yul\":22766:22767   */\n      0x00\n        /* \"#utility.yul\":22759:22790   */\n      mstore\n        /* \"#utility.yul\":22809:22813   */\n      0x32\n        /* \"#utility.yul\":22806:22807   */\n      0x04\n        /* \"#utility.yul\":22799:22814   */\n      mstore\n        /* \"#utility.yul\":22833:22837   */\n      0x24\n        /* \"#utility.yul\":22830:22831   */\n      0x00\n        /* \"#utility.yul\":22823:22838   */\n      revert\n        /* \"#utility.yul\":22849:22976   */\n    tag_371:\n        /* \"#utility.yul\":22910:22920   */\n      0x4e487b71\n        /* \"#utility.yul\":22905:22908   */\n      0xe0\n        /* \"#utility.yul\":22901:22921   */\n      shl\n        /* \"#utility.yul\":22898:22899   */\n      0x00\n        /* \"#utility.yul\":22891:22922   */\n      mstore\n        /* \"#utility.yul\":22941:22945   */\n      0x41\n        /* \"#utility.yul\":22938:22939   */\n      0x04\n        /* \"#utility.yul\":22931:22946   */\n      mstore\n        /* \"#utility.yul\":22965:22969   */\n      0x24\n        /* \"#utility.yul\":22962:22963   */\n      0x00\n        /* \"#utility.yul\":22955:22970   */\n      revert\n        /* \"#utility.yul\":22981:23112   */\n    tag_853:\n      sub(shl(0xa0, 0x01), 0x01)\n        /* \"#utility.yul\":23056:23087   */\n      dup2\n      and\n        /* \"#utility.yul\":23046:23088   */\n      dup2\n      eq\n        /* \"#utility.yul\":23036:23106   */\n      tag_667\n      jumpi\n        /* \"#utility.yul\":23102:23103   */\n      0x00\n        /* \"#utility.yul\":23099:23100   */\n      dup1\n        /* \"#utility.yul\":23092:23104   */\n      revert\n        /* \"#utility.yul\":23117:23235   */\n    tag_861:\n        /* \"#utility.yul\":23203:23208   */\n      dup1\n        /* \"#utility.yul\":23196:23209   */\n      iszero\n        /* \"#utility.yul\":23189:23210   */\n      iszero\n        /* \"#utility.yul\":23182:23187   */\n      dup2\n        /* \"#utility.yul\":23179:23211   */\n      eq\n        /* \"#utility.yul\":23169:23229   */\n      tag_667\n      jumpi\n        /* \"#utility.yul\":23225:23226   */\n      0x00\n        /* \"#utility.yul\":23222:23223   */\n      dup1\n        /* \"#utility.yul\":23215:23227   */\n      revert\n\n    auxdata: 0xa2646970667358221220e8f04ffb8299a3525fc32b1d4e1ad74c40a137ce193c4174429147e393c9184264736f6c63430008070033\n}\n",
				"bytecode": {
					"linkReferences": {},
					"object": "608060405267016345785d8a00006003556000600655670de0b6b3a7640000600755600a6008819055606e6009556014908190556064600c819055600d819055600e8190556096600f5560c86010556032601155601255805460ff191690553480156200006b57600080fd5b50604051620036f9380380620036f98339810160408190526200008e916200017e565b620000993362000111565b600180546001600160a01b038087166001600160a01b0319928316179092556002805492861692909116919091179055600754620000d9906019620001db565b600555600480546001600160a01b039384166001600160a01b031991821617909155600b805492909316911617905550620002099050565b600080546001600160a01b038381166001600160a01b0319831681178455604051919092169283917f8be0079c531659141344cd1fd0a4f28419497f9722a3daafe3b4186f6b6457e09190a35050565b80516001600160a01b03811681146200017957600080fd5b919050565b600080600080608085870312156200019557600080fd5b620001a08562000161565b9350620001b06020860162000161565b9250620001c06040860162000161565b9150620001d06060860162000161565b905092959194509250565b60008160001904831182151516156200020457634e487b7160e01b600052601160045260246000fd5b500290565b6134e080620002196000396000f3fe6080604052600436106103545760003560e01c8063832ef347116101c6578063ce9fa82d116100f7578063f2fde38b11610095578063f6e674ef1161006f578063f6e674ef14610a36578063f9e154ee14610a3e578063fa68708a14610a53578063fc95e4ab14610ab457600080fd5b8063f2fde38b146109d6578063f4a63bd8146109f6578063f5d7bd7f14610a1657600080fd5b8063e62fefc4116100d1578063e62fefc414610980578063e8f7d35d14610996578063f071db5a146109ab578063f0900ca4146109c157600080fd5b8063ce9fa82d1461093a578063d24b22e11461095a578063d8f23f2e1461096d57600080fd5b8063b69473b311610164578063c626c52e1161013e578063c626c52e146108ad578063c8b54a4e146108dd578063c9b1c1fa14610912578063ce5d4c5e1461092757600080fd5b8063b69473b314610865578063b7189dda1461086d578063c3dfdae61461088d57600080fd5b806397e4b05e116101a057806397e4b05e146107a45780639d7d6667146107c45780639fb4620d1461081b578063b187bd261461083b57600080fd5b8063832ef347146107395780638c5afb5a1461074f5780638da5cb5b1461078657600080fd5b806341b0c25b116102a0578063715018a61161023e5780637c54d20c116102185780637c54d20c146106e55780637df48f2c146106fb57806380d29e6614610703578063820b581a1461072357600080fd5b8063715018a614610673578063768367c4146106885780637a1d2db5146106c557600080fd5b80634da928001161027a5780634da928001461057e57806353f836db1461059e5780635a77800c146105be5780635eaaa90c1461065e57600080fd5b806341b0c25b1461052a57806342ff8e441461053f5780634628df651461056957600080fd5b80632c1ef96a1161030d57806339849771116102e757806339849771146104a05780633b84edbd146104b65780633b8d3c56146104d65780633e625844146104f657600080fd5b80632c1ef96a146104285780633109430114610448578063342eb7cc1461048057600080fd5b8063043531b114610360578063187e6f89146103825780631d111d13146103ab57806321154ec5146103c0578063283dd0cb146103e057806329ceb4181461040857600080fd5b3661035b57005b600080fd5b34801561036c57600080fd5b5061038061037b366004613099565b610ad4565b005b34801561038e57600080fd5b5061039860055481565b6040519081526020015b60405180910390f35b3480156103b757600080fd5b50610380610b37565b3480156103cc57600080fd5b506103806103db366004613099565b610b65565b6103f36103ee366004613099565b610b72565b604080519283526020830191909152016103a2565b34801561041457600080fd5b50610380610423366004613099565b610d2f565b34801561043457600080fd5b50610380610443366004612f6e565b610d3c565b34801561045457600080fd5b50600454610468906001600160a01b031681565b6040516001600160a01b0390911681526020016103a2565b34801561048c57600080fd5b50600254610468906001600160a01b031681565b3480156104ac57600080fd5b50610398600a5481565b3480156104c257600080fd5b506103806104d1366004612efb565b610dcf565b3480156104e257600080fd5b506103806104f1366004613099565b610df9565b34801561050257600080fd5b50610516610511366004612efb565b610e06565b6040516103a2989796959493929190613281565b34801561053657600080fd5b506104686110d5565b61055261054d366004613099565b611162565b6040805192151583529015156020830152016103a2565b34801561057557600080fd5b5061039861119f565b34801561058a57600080fd5b5061038061059936600461305f565b611229565b3480156105aa57600080fd5b506103986105b9366004613099565b611244565b3480156105ca57600080fd5b5061062f6105d9366004612efb565b6001600160a01b031660009081526017602090815260408083205460188352818420908452909152902080546001820154600283015460038401546004850154600590950154939592949193909260ff90911690565b6040805196875260208701959095529385019290925260608401526080830152151560a082015260c0016103a2565b34801561066a57600080fd5b5061038061130f565b34801561067f57600080fd5b506103806114f8565b34801561069457600080fd5b5061069d61150a565b604080519586526020860194909452928401919091526060830152608082015260a0016103a2565b3480156106d157600080fd5b506103986106e03660046130cb565b61153c565b3480156106f157600080fd5b5061039860075481565b61069d61162c565b34801561070f57600080fd5b5061038061071e366004612efb565b611676565b34801561072f57600080fd5b5061039860085481565b34801561074557600080fd5b5061039860095481565b34801561075b57600080fd5b5061076f61076a366004612f9a565b6116a0565b6040805192151583526020830191909152016103a2565b34801561079257600080fd5b506000546001600160a01b0316610468565b3480156107b057600080fd5b506103806107bf366004613130565b611820565b3480156107d057600080fd5b50600c54600d54600e54600f54601054601154601254604080519788526020880196909652948601939093526060850191909152608084015260a083015260c082015260e0016103a2565b34801561082757600080fd5b50610380610836366004613099565b611848565b34801561084757600080fd5b506014546108559060ff1681565b60405190151581526020016103a2565b6105526118fa565b34801561087957600080fd5b50610380610888366004612efb565b611938565b34801561089957600080fd5b50600154610468906001600160a01b031681565b3480156108b957600080fd5b506108556108c8366004612efb565b60136020526000908152604090205460ff1681565b6108f06108eb366004613104565b611962565b60408051948552602085019390935291830152151560608201526080016103a2565b34801561091e57600080fd5b50610380611b25565b61069d610935366004613099565b611c37565b34801561094657600080fd5b50610380610955366004613099565b611d65565b610380610968366004613099565b611dd0565b61055261097b366004613099565b6120de565b34801561098c57600080fd5b5061039860035481565b3480156109a257600080fd5b50610398612111565b3480156109b757600080fd5b5061039860065481565b3480156109cd57600080fd5b50610398612135565b3480156109e257600080fd5b506103806109f1366004612efb565b61223c565b348015610a0257600080fd5b50610380610a11366004613099565b6122b5565b348015610a2257600080fd5b50610380610a31366004612f35565b6122c2565b6105526122f5565b348015610a4a57600080fd5b5061038061232a565b348015610a5f57600080fd5b50610a73610a6e36600461305f565b6124d3565b60408051981515895260208901979097529587019490945260608601929092526080850152151560a0840152151560c083015260e0820152610100016103a2565b348015610ac057600080fd5b50610398610acf3660046130cb565b6126bb565b610adc612726565b6064811115610b325760405162461bcd60e51b815260206004820152601b60248201527f6d757374206265206265747765656e203020616e64203130302025000000000060448201526064015b60405180910390fd5b600855565b610b3f612726565b60405133904780156108fc02916000818181858888f19350505050610b6357600080fd5b565b610b6d612726565b600a55565b601454600090819060ff1615610b9a5760405162461bcd60e51b8152600401610b2990613332565b3360009081526017602090815260408083205460188352818420818552909252909120600581015460ff1615610c0a5760405162461bcd60e51b81526020600482015260156024820152744d7573742066696e697368206c6173742047616d6560581b6044820152606401610b29565b610c178160020154612780565b60028101859055601154600382015560058101805460ff19166001908117909155546040516323b872dd60e01b8152336004820152306024820152604481018790526001600160a01b03909116906323b872dd90606401602060405180830381600087803b158015610c8857600080fd5b505af1158015610c9c573d6000803e3d6000fd5b505050506040513d601f19601f82011682018060405250810190610cc0919061307c565b50610cc9612a74565b80835560018301829055604080513381526020810192909252810191909152606081018690527fe3fa5bde10d75bbf2fd822cbd4924ea5eec3bce141d9161a8130aeb9f1e5358f9060800160405180910390a18054600190910154909350915050915091565b610d37612726565b600555565b610d44612726565b60405163a9059cbb60e01b8152336004820152602481018290526001600160a01b0383169063a9059cbb906044015b602060405180830381600087803b158015610d8d57600080fd5b505af1158015610da1573d6000803e3d6000fd5b505050506040513d601f19601f82011682018060405250810190610dc5919061307c565b5050600060065550565b610dd7612726565b600b80546001600160a01b0319166001600160a01b0392909216919091179055565b610e01612726565b600355565b6001600160a01b038116600090815260196020908152604080832054601a83528184208185529092528220805460609384938493849383928392839267ffffffffffffffff811115610e5a57610e5a613471565b604051908082528060200260200182016040528015610e83578160200160208202803683370190505b50815460408051602080840282018101909252828152929c50839190830182828015610ece57602002820191906000526020600020905b815481526020019060010190808311610eba575b50508454939d50505067ffffffffffffffff8211159050610ef157610ef1613471565b604051908082528060200260200182016040528015610f1a578160200160208202803683370190505b5060018201805460408051602080840282018101909252828152939c50830182828015610f6657602002820191906000526020600020905b815481526020019060010190808311610f52575b5050506002840154929b50505067ffffffffffffffff811115610f8b57610f8b613471565b604051908082528060200260200182016040528015610fb4578160200160208202803683370190505b5060028201805460408051602080840282018101909252828152939b5083018282801561100057602002820191906000526020600020905b815481526020019060010190808311610fec575b50508454939b50505067ffffffffffffffff821115905061102357611023613471565b60405190808252806020026020018201604052801561104c578160200160208202803683370190505b5060038201805460408051602080840282018101909252828152939a5083018282801561109857602002820191906000526020600020905b815481526020019060010190808311611084575b505050505096508060040154955080600501549450806006015493508060070160009054906101000a900460ff1692505050919395975091939597565b6000600460009054906101000a90046001600160a01b03166001600160a01b03166361d027b36040518163ffffffff1660e01b815260040160206040518083038186803b15801561112557600080fd5b505afa158015611139573d6000803e3d6000fd5b505050506040513d601f19601f8201168201806040525081019061115d9190612f18565b905090565b601454600090819060ff161561118a5760405162461bcd60e51b8152600401610b2990613332565b611195836001612b03565b9094909350915050565b6006546001546040516370a0823160e01b8152306004820152600092916001600160a01b0316906370a082319060240160206040518083038186803b1580156111e757600080fd5b505afa1580156111fb573d6000803e3d6000fd5b505050506040513d601f19601f8201168201806040525081019061121f91906130b2565b61115d91906133e9565b611231612726565b6014805460ff1916911515919091179055565b600080600b60009054906101000a90046001600160a01b03166001600160a01b031663dbdff2c16040518163ffffffff1660e01b8152600401602060405180830381600087803b15801561129757600080fd5b505af11580156112ab573d6000803e3d6000fd5b505050506040513d601f19601f820116820180604052508101906112cf91906130b2565b905082816040516020016112e591815260200190565b6040516020818303038152906040528051906020012060001c611308919061341b565b9392505050565b60145460ff16156113325760405162461bcd60e51b8152600401610b2990613332565b33600090815260196020908152604080832054601a8352818420818552909252909120600781015460ff166113795760405162461bcd60e51b8152600401610b29906132fb565b6004810154600090819081805b61138e612bf3565b600288018054600181810183556000928352602080842090920184905560038b0180549182018155808452928290200184905581546040805182840281018401909152818152939650939450611418939083018282801561140e57602002820191906000526020600020905b8154815260200190600101908083116113fa575b50505050506116a0565b95505060118510801561142e5750856005015485105b6113865760158511806114445750848660050154115b15611460576001935061145d8660040154601254612c6a565b92505b60058601546040517f04bcbdfa7453595c0b74372e71e39f68ec571585d404fc01d65bf50c191f6a8c916114af9133918a916001830191600284019160038501918b918e906000908f906131ec565b60405180910390a13360009081526019602052604081208054600192906114d790849061339e565b909155508490506114ef576114ef8660040154611877565b50505050505050565b611500612726565b610b636000612d34565b600080600080600061151a612111565b60075460095461152861119f565b600354945094509450945094509091929394565b3360009081526013602052604081205460ff1661156b5760405162461bcd60e51b8152600401610b299061335c565b60648360646009548761157e91906133ca565b61158891906133b6565b61159291906133ca565b61159c91906133b6565b60015460405163a9059cbb60e01b81526001600160a01b0385811660048301526024820184905292935091169063a9059cbb90604401602060405180830381600087803b1580156115ec57600080fd5b505af1158015611600573d6000803e3d6000fd5b505050506040513d601f19601f82011682018060405250810190611624919061307c565b509392505050565b601454600090819081908190819060ff161561165a5760405162461bcd60e51b8152600401610b2990613332565b611665600754611c37565b939992985090965094509092509050565b61167e612726565b600180546001600160a01b0319166001600160a01b0392909216919091179055565b60008080805b8451811015611799576000808683815181106116c4576116c461345b565b60200260200101511180156116f2575060098683815181106116e8576116e861345b565b6020026020010151105b15611720578582815181106117095761170961345b565b6020026020010151600161171d919061339e565b90505b60098683815181106117345761173461345b565b6020026020010151106117455750600a5b8582815181106117575761175761345b565b6020026020010151600014156117795761177260018461339e565b9250600090505b611783818561339e565b935050808061179190613400565b9150506116a6565b50801561180c578160005b828110156117ec57600060156117bb84600b61339e565b116117c85750600b6117cc565b5060015b6117d6818461339e565b92505080806117e490613400565b9150506117a4565b50601581116117fd5780925061180a565b611807828461339e565b92505b505b601582111561181a57600192505b50915091565b611828612726565b600c96909655600d94909455600e92909255600f55601055601155601255565b3360009081526013602052604090205460ff166118775760405162461bcd60e51b8152600401610b299061335c565b600060646008548361188991906133ca565b61189391906133b6565b905080600660008282546118a7919061339e565b9091555050600554600654106118f65760015460025460065460405163a9059cbb60e01b81526001600160a01b039283166004820152602481019190915291169063a9059cbb90604401610d73565b5050565b601454600090819060ff16156119225760405162461bcd60e51b8152600401610b2990613332565b61192f6007546000612b03565b90939092509050565b611940612726565b600280546001600160a01b0319166001600160a01b0392909216919091179055565b60145460009081908190819060ff161561198e5760405162461bcd60e51b8152600401610b2990613332565b846006148061199d575084600c145b806119a85750846014145b6119f45760405162461bcd60e51b815260206004820152601960248201527f6e6f74206120646963652073697a6520617661696c61626c65000000000000006044820152606401610b29565b600086118015611a045750848611155b611a485760405162461bcd60e51b8152602060048201526015602482015274206d7573742062652077697468696e20737065637360581b6044820152606401610b29565b611a5187612780565b600e54600c861415611a625750600f545b8560141415611a7057506010545b86935085925060009150611a8386611244565b611a8e90600161339e565b945086851415611a9d57600191505b60008215611ab257611aaf8983612d84565b90505b82611ac357611ac089612db7565b90505b604080513381526020810188905290810186905260608101859052831515608082015260a081018290527f08a2b5309b1d1ccd8ebe92ab072b951111018932c2bc5c535808182ba7255a8a9060c00160405180910390a1505093509350935093565b611b2d612726565b6001546040516370a0823160e01b81523060048201526000916001600160a01b0316906370a082319060240160206040518083038186803b158015611b7157600080fd5b505afa158015611b85573d6000803e3d6000fd5b505050506040513d601f19601f82011682018060405250810190611ba991906130b2565b60015460405163a9059cbb60e01b8152336004820152602481018390529192506001600160a01b03169063a9059cbb90604401602060405180830381600087803b158015611bf657600080fd5b505af1158015611c0a573d6000803e3d6000fd5b505050506040513d601f19601f82011682018060405250810190611c2e919061307c565b50506000600655565b601454600090819081908190819060ff1615611c655760405162461bcd60e51b8152600401610b2990613332565b611c6e86612780565b611c76612e58565b9093509150611c83612e58565b909550935084831115611c94575060005b84831015611ca0575060015b84831415611cac575060025b600081611cc257611cbf87600d54612d84565b90505b8160011415611cd757611cd487612db7565b90505b6040805133815260208101889052908101869052606081018590526080810184905260a0810183905260c081018290527fd11a8c761be4ee6ea7436f4334f6edc0102e2655078c150d7b799db9efde994b9060e00160405180910390a1336000908152601560205260408120805460019290611d5490849061339e565b925050819055505091939590929450565b611d6d612726565b60328110158015611d7f575060c88111155b611dcb5760405162461bcd60e51b815260206004820152601c60248201527f6d757374206265206265747765656e20353020616e64203230302025000000006044820152606401610b29565b600955565b60145460ff1615611df35760405162461bcd60e51b8152600401610b2990613332565b33600090815260196020908152604080832054601a8352818420818552909252909120600781015460ff1615611e635760405162461bcd60e51b81526020600482015260156024820152744d7573742066696e697368206c6173742047616d6560581b6044820152606401610b29565b611e708160040154612780565b600481810184905560078201805460ff19166001908117909155546040516323b872dd60e01b81523392810192909252306024830152604482018590526001600160a01b0316906323b872dd90606401602060405180830381600087803b158015611eda57600080fd5b505af1158015611eee573d6000803e3d6000fd5b505050506040513d601f19601f82011682018060405250810190611f12919061307c565b5060008060005b6002811015611f6d57611f2a612bf3565b8554600181810188556000888152602080822090930184905581890180549283018155815291909120018290559350915080611f6581613400565b915050611f19565b50600080611fca8560010180548060200260200160405190810160405280929190818152602001828054801561140e57602002820191906000526020600020908154815260200190600101908083116113fa5750505050506116a0565b600587018190559092509050611fde612bf3565b600287018054600181810183556000928352602080842090920184905560038a018054918201815580845282842090910185905580546040805182850281018501909152818152949950949750919361206a93929183018282801561140e57602002820191906000526020600020908154815260200190600101908083116113fa5750505050506116a0565b9150508086600601819055507f04bcbdfa7453595c0b74372e71e39f68ec571585d404fc01d65bf50c191f6a8c338760000188600101896002018a6003018d8c600501548d600601548b60006040516120cc9a999897969594939291906131ec565b60405180910390a15050505050505050565b601454600090819060ff16156121065760405162461bcd60e51b8152600401610b2990613332565b611195836000612b03565b6000600a5460065461212161119f565b61212b91906133e9565b61115d91906133b6565b60145460009060ff161561215b5760405162461bcd60e51b8152600401610b2990613332565b3360009081526017602090815260408083205460188352818420818552909252909120600581015460ff166121c25760405162461bcd60e51b815260206004820152600d60248201526c6e6f7420696e20612067616d6560981b6044820152606401610b29565b6121d481600201548260030154612c6a565b60408051338152602081018390529194507f293b0ebfc4f0e3517e5481605c5b7bd3194453b3f323bc1322b6d4e9ba326ec3910160405180910390a133600090815260176020526040812080546001929061223090849061339e565b92505081905550505090565b612244612726565b6001600160a01b0381166122a95760405162461bcd60e51b815260206004820152602660248201527f4f776e61626c653a206e6577206f776e657220697320746865207a65726f206160448201526564647265737360d01b6064820152608401610b29565b6122b281612d34565b50565b6122bd612726565b600755565b6122ca612726565b6001600160a01b03919091166000908152601360205260409020805460ff1916911515919091179055565b601454600090819060ff161561231d5760405162461bcd60e51b8152600401610b2990613332565b61192f6007546001612b03565b60145460ff161561234d5760405162461bcd60e51b8152600401610b2990613332565b33600090815260196020908152604080832054601a8352818420818552909252909120600781015460ff166123945760405162461bcd60e51b8152600401610b29906132fb565b60008061239f612bf3565b845460018181018755600087815260208082209093018490558188018054928301815580825283822090920185905581546040805182860281018601909152818152949750949550938493612429939092919083018282801561140e57602002820191906000526020600020908154815260200190600101908083116113fa5750505050506116a0565b60058701819055600487015460068801546040519395509193507f04bcbdfa7453595c0b74372e71e39f68ec571585d404fc01d65bf50c191f6a8c9261248a9233928a9260018401926002850192600386019290918a918c906000906131ec565b60405180910390a181156124cb573360009081526019602052604081208054600192906124b890849061339e565b909155505060048501546124cb90611877565b505050505050565b600080600080600080600080601460009054906101000a900460ff161561250c5760405162461bcd60e51b8152600401610b2990613332565b3360009081526017602090815260408083205460188352818420818552909252909120600581015460ff166125535760405162461bcd60e51b8152600401610b29906132fb565b805460018201549099509750612567612a74565b82556001820181905588101561257c57600199505b8915158b151514156125f157601154816003015461259a919061339e565b600382018190556002820154906064906125b490836133ca565b6125be91906133b6565b6125c8919061339e565b6004820181905560038201546001965090935061012c116125f157600193506125ef612135565b505b80546001820154600283015460408051338152602081018e90528082018d90526060810194909452608084019290925287151560a084015260c0830186905286151560e0840152610100830152517f30d0b6d78e1e426a1acfeb2484586c636eb5c8af529f4733d844d5e7a86a065b918190036101200190a1846126a25733600090815260176020526040812080546001929061268f90849061339e565b909155505060028101546126a290611877565b8054600190910154909650945050919395975091939597565b3360009081526013602052604081205460ff166126ea5760405162461bcd60e51b8152600401610b299061335c565b836064846064600954886126fe91906133ca565b61270891906133b6565b61271291906133ca565b61271c91906133b6565b61159c919061339e565b6000546001600160a01b03163314610b635760405162461bcd60e51b815260206004820181905260248201527f4f776e61626c653a2063616c6c6572206973206e6f7420746865206f776e65726044820152606401610b29565b6000600460009054906101000a90046001600160a01b03166001600160a01b03166361d027b36040518163ffffffff1660e01b815260040160206040518083038186803b1580156127d057600080fd5b505afa1580156127e4573d6000803e3d6000fd5b505050506040513d601f19601f820116820180604052508101906128089190612f18565b9050612812612111565b8211156128615760405162461bcd60e51b815260206004820152601b60248201527f796f7572206265742069732061626f766520746865206c696d697400000000006044820152606401610b29565b6001546040516370a0823160e01b815233600482015283916001600160a01b0316906370a082319060240160206040518083038186803b1580156128a457600080fd5b505afa1580156128b8573d6000803e3d6000fd5b505050506040513d601f19601f820116820180604052508101906128dc91906130b2565b10156129215760405162461bcd60e51b8152602060048201526014602482015273496e73756666696369656e742062616c616e636560601b6044820152606401610b29565b600154604051636eb1769f60e11b815233600482015230602482015283916001600160a01b03169063dd62ed3e9060440160206040518083038186803b15801561296a57600080fd5b505afa15801561297e573d6000803e3d6000fd5b505050506040513d601f19601f820116820180604052508101906129a291906130b2565b10156129fc5760405162461bcd60e51b8152602060048201526024808201527f706c6561736520617070726f766520636f6e7472616374206f6e2047616d655460448201526337b5b2b760e11b6064820152608401610b29565b600354156118f657600354471015612a475760405162461bcd60e51b815260206004820152600e60248201526d2737ba1032b737bab3b41021272160911b6044820152606401610b29565b6040516001600160a01b038216904780156108fc02916000818181858888f193505050506118f657600080fd5b33600090815260176020908152604080832054601883528184208185529092528220829182915b612aa56004611244565b9350612ab1600d611244565b945084612abf85600d6133ca565b612ac9919061339e565b600081815260068301602052604090205490935060ff16612a9b5760009283526006016020525060409020805460ff191660011790559091565b601454600090819060ff1615612b2b5760405162461bcd60e51b8152600401610b2990613332565b612b3484612780565b6000612b41612710611244565b90506110688110612b56578315925082612b5b565b839250825b5082151584151514612b71576000915081612b77565b60019150815b5060008215612b8f57612b8c86600c54612d84565b90505b82612ba057612b9d86612db7565b90505b60408051338152841515602082015290810182905284151560608201527f4f91bbc3534b7027dcd697dd5aa5b2dfaeb6895a895837adcaa84815ca3c45229060800160405180910390a150509250929050565b33600090815260196020908152604080832054601a83528184208185529092528220829182915b612c246004611244565b9350612c30600d611244565b945084612c3e85600d6133ca565b612c48919061339e565b600081815260088301602052604090205490935060ff16612c1a575050509091565b600082606483606460095487612c8091906133ca565b612c8a91906133b6565b612c9491906133ca565b612c9e91906133b6565b612ca8919061339e565b60015460405163a9059cbb60e01b8152336004820152602481018390529192506001600160a01b03169063a9059cbb90604401602060405180830381600087803b158015612cf557600080fd5b505af1158015612d09573d6000803e3d6000fd5b505050506040513d601f19601f82011682018060405250810190612d2d919061307c565b5092915050565b600080546001600160a01b038381166001600160a01b0319831681178455604051919092169283917f8be0079c531659141344cd1fd0a4f28419497f9722a3daafe3b4186f6b6457e09190a35050565b6000606482606460095486612d9991906133ca565b612da391906133b6565b612dad91906133ca565b612ca891906133b6565b6001546040516323b872dd60e01b81523360048201523060248201526044810183905282916001600160a01b0316906323b872dd90606401602060405180830381600087803b158015612e0957600080fd5b505af1158015612e1d573d6000803e3d6000fd5b505050506040513d601f19601f82011682018060405250810190612e41919061307c565b5060085415612e5357612e5382611877565b919050565b33600090815260156020526040812054819081905b612e776004611244565b9250612e83600d611244565b935083612e9184600d6133ca565b612e9b919061339e565b336000908152601660209081526040808320858452825280832084845290915290205490925060ff16612e6d57336000908152601660209081526040808320938352928152828220938252929092529020805460ff191660011790559091565b600060208284031215612f0d57600080fd5b813561130881613487565b600060208284031215612f2a57600080fd5b815161130881613487565b60008060408385031215612f4857600080fd5b8235612f5381613487565b91506020830135612f638161349c565b809150509250929050565b60008060408385031215612f8157600080fd5b8235612f8c81613487565b946020939093013593505050565b60006020808385031215612fad57600080fd5b823567ffffffffffffffff80821115612fc557600080fd5b818501915085601f830112612fd957600080fd5b813581811115612feb57612feb613471565b8060051b604051601f19603f8301168101818110858211171561301057613010613471565b604052828152858101935084860182860187018a101561302f57600080fd5b600095505b83861015613052578035855260019590950194938601938601613034565b5098975050505050505050565b60006020828403121561307157600080fd5b81356113088161349c565b60006020828403121561308e57600080fd5b81516113088161349c565b6000602082840312156130ab57600080fd5b5035919050565b6000602082840312156130c457600080fd5b5051919050565b6000806000606084860312156130e057600080fd5b833592506020840135915060408401356130f981613487565b809150509250925092565b60008060006060848603121561311957600080fd5b505081359360208301359350604090920135919050565b600080600080600080600060e0888a03121561314b57600080fd5b505085359760208701359750604087013596606081013596506080810135955060a0810135945060c0013592509050565b600081518084526020808501945080840160005b838110156131ac57815187529582019590820190600101613190565b509495945050505050565b6000815480845260208085019450836000528060002060005b838110156131ac578154875295820195600191820191016131d0565b6001600160a01b038b168152610140602082018190526000906132118382018d6131b7565b90508281036040840152613225818c6131b7565b90508281036060840152613239818b6131b7565b9050828103608084015261324d818a6131b7565b60a0840198909852505060c081019490945260e0840192909252151561010083015215156101209091015295945050505050565b60006101008083526132958184018c61317c565b905082810360208401526132a9818b61317c565b905082810360408401526132bd818a61317c565b905082810360608401526132d1818961317c565b9150508560808301528460a08301528360c083015282151560e08301529998505050505050505050565b6020808252601a908201527f53746172744e657747616d6520746f20706c617920616761696e000000000000604082015260600190565b60208082526010908201526f19d85b595cc8185c99481c185d5cd95960821b604082015260600190565b60208082526022908201527f796f7520617265206e6f7420612067616d6520636f6e747261637420666f7220604082015261464760f01b606082015260800190565b600082198211156133b1576133b161342f565b500190565b6000826133c5576133c5613445565b500490565b60008160001904831182151516156133e4576133e461342f565b500290565b6000828210156133fb576133fb61342f565b500390565b60006000198214156134145761341461342f565b5060010190565b60008261342a5761342a613445565b500690565b634e487b7160e01b600052601160045260246000fd5b634e487b7160e01b600052601260045260246000fd5b634e487b7160e01b600052603260045260246000fd5b634e487b7160e01b600052604160045260246000fd5b6001600160a01b03811681146122b257600080fd5b80151581146122b257600080fdfea2646970667358221220e8f04ffb8299a3525fc32b1d4e1ad74c40a137ce193c4174429147e393c9184264736f6c63430008070033",
					"opcodes": "PUSH1 0x80 PUSH1 0x40 MSTORE PUSH8 0x16345785D8A0000 PUSH1 0x3 SSTORE PUSH1 0x0 PUSH1 0x6 SSTORE PUSH8 0xDE0B6B3A7640000 PUSH1 0x7 SSTORE PUSH1 0xA PUSH1 0x8 DUP2 SWAP1 SSTORE PUSH1 0x6E PUSH1 0x9 SSTORE PUSH1 0x14 SWAP1 DUP2 SWAP1 SSTORE PUSH1 0x64 PUSH1 0xC DUP2 SWAP1 SSTORE PUSH1 0xD DUP2 SWAP1 SSTORE PUSH1 0xE DUP2 SWAP1 SSTORE PUSH1 0x96 PUSH1 0xF SSTORE PUSH1 0xC8 PUSH1 0x10 SSTORE PUSH1 0x32 PUSH1 0x11 SSTORE PUSH1 0x12 SSTORE DUP1 SLOAD PUSH1 0xFF NOT AND SWAP1 SSTORE CALLVALUE DUP1 ISZERO PUSH3 0x6B JUMPI PUSH1 0x0 DUP1 REVERT JUMPDEST POP PUSH1 0x40 MLOAD PUSH3 0x36F9 CODESIZE SUB DUP1 PUSH3 0x36F9 DUP4 CODECOPY DUP2 ADD PUSH1 0x40 DUP2 SWAP1 MSTORE PUSH3 0x8E SWAP2 PUSH3 0x17E JUMP JUMPDEST PUSH3 0x99 CALLER PUSH3 0x111 JUMP JUMPDEST PUSH1 0x1 DUP1 SLOAD PUSH1 0x1 PUSH1 0x1 PUSH1 0xA0 SHL SUB DUP1 DUP8 AND PUSH1 0x1 PUSH1 0x1 PUSH1 0xA0 SHL SUB NOT SWAP3 DUP4 AND OR SWAP1 SWAP3 SSTORE PUSH1 0x2 DUP1 SLOAD SWAP3 DUP7 AND SWAP3 SWAP1 SWAP2 AND SWAP2 SWAP1 SWAP2 OR SWAP1 SSTORE PUSH1 0x7 SLOAD PUSH3 0xD9 SWAP1 PUSH1 0x19 PUSH3 0x1DB JUMP JUMPDEST PUSH1 0x5 SSTORE PUSH1 0x4 DUP1 SLOAD PUSH1 0x1 PUSH1 0x1 PUSH1 0xA0 SHL SUB SWAP4 DUP5 AND PUSH1 0x1 PUSH1 0x1 PUSH1 0xA0 SHL SUB NOT SWAP2 DUP3 AND OR SWAP1 SWAP2 SSTORE PUSH1 0xB DUP1 SLOAD SWAP3 SWAP1 SWAP4 AND SWAP2 AND OR SWAP1 SSTORE POP PUSH3 0x209 SWAP1 POP JUMP JUMPDEST PUSH1 0x0 DUP1 SLOAD PUSH1 0x1 PUSH1 0x1 PUSH1 0xA0 SHL SUB DUP4 DUP2 AND PUSH1 0x1 PUSH1 0x1 PUSH1 0xA0 SHL SUB NOT DUP4 AND DUP2 OR DUP5 SSTORE PUSH1 0x40 MLOAD SWAP2 SWAP1 SWAP3 AND SWAP3 DUP4 SWAP2 PUSH32 0x8BE0079C531659141344CD1FD0A4F28419497F9722A3DAAFE3B4186F6B6457E0 SWAP2 SWAP1 LOG3 POP POP JUMP JUMPDEST DUP1 MLOAD PUSH1 0x1 PUSH1 0x1 PUSH1 0xA0 SHL SUB DUP2 AND DUP2 EQ PUSH3 0x179 JUMPI PUSH1 0x0 DUP1 REVERT JUMPDEST SWAP2 SWAP1 POP JUMP JUMPDEST PUSH1 0x0 DUP1 PUSH1 0x0 DUP1 PUSH1 0x80 DUP6 DUP8 SUB SLT ISZERO PUSH3 0x195 JUMPI PUSH1 0x0 DUP1 REVERT JUMPDEST PUSH3 0x1A0 DUP6 PUSH3 0x161 JUMP JUMPDEST SWAP4 POP PUSH3 0x1B0 PUSH1 0x20 DUP7 ADD PUSH3 0x161 JUMP JUMPDEST SWAP3 POP PUSH3 0x1C0 PUSH1 0x40 DUP7 ADD PUSH3 0x161 JUMP JUMPDEST SWAP2 POP PUSH3 0x1D0 PUSH1 0x60 DUP7 ADD PUSH3 0x161 JUMP JUMPDEST SWAP1 POP SWAP3 SWAP6 SWAP2 SWAP5 POP SWAP3 POP JUMP JUMPDEST PUSH1 0x0 DUP2 PUSH1 0x0 NOT DIV DUP4 GT DUP3 ISZERO ISZERO AND ISZERO PUSH3 0x204 JUMPI PUSH4 0x4E487B71 PUSH1 0xE0 SHL PUSH1 0x0 MSTORE PUSH1 0x11 PUSH1 0x4 MSTORE PUSH1 0x24 PUSH1 0x0 REVERT JUMPDEST POP MUL SWAP1 JUMP JUMPDEST PUSH2 0x34E0 DUP1 PUSH3 0x219 PUSH1 0x0 CODECOPY PUSH1 0x0 RETURN INVALID PUSH1 0x80 PUSH1 0x40 MSTORE PUSH1 0x4 CALLDATASIZE LT PUSH2 0x354 JUMPI PUSH1 0x0 CALLDATALOAD PUSH1 0xE0 SHR DUP1 PUSH4 0x832EF347 GT PUSH2 0x1C6 JUMPI DUP1 PUSH4 0xCE9FA82D GT PUSH2 0xF7 JUMPI DUP1 PUSH4 0xF2FDE38B GT PUSH2 0x95 JUMPI DUP1 PUSH4 0xF6E674EF GT PUSH2 0x6F JUMPI DUP1 PUSH4 0xF6E674EF EQ PUSH2 0xA36 JUMPI DUP1 PUSH4 0xF9E154EE EQ PUSH2 0xA3E JUMPI DUP1 PUSH4 0xFA68708A EQ PUSH2 0xA53 JUMPI DUP1 PUSH4 0xFC95E4AB EQ PUSH2 0xAB4 JUMPI PUSH1 0x0 DUP1 REVERT JUMPDEST DUP1 PUSH4 0xF2FDE38B EQ PUSH2 0x9D6 JUMPI DUP1 PUSH4 0xF4A63BD8 EQ PUSH2 0x9F6 JUMPI DUP1 PUSH4 0xF5D7BD7F EQ PUSH2 0xA16 JUMPI PUSH1 0x0 DUP1 REVERT JUMPDEST DUP1 PUSH4 0xE62FEFC4 GT PUSH2 0xD1 JUMPI DUP1 PUSH4 0xE62FEFC4 EQ PUSH2 0x980 JUMPI DUP1 PUSH4 0xE8F7D35D EQ PUSH2 0x996 JUMPI DUP1 PUSH4 0xF071DB5A EQ PUSH2 0x9AB JUMPI DUP1 PUSH4 0xF0900CA4 EQ PUSH2 0x9C1 JUMPI PUSH1 0x0 DUP1 REVERT JUMPDEST DUP1 PUSH4 0xCE9FA82D EQ PUSH2 0x93A JUMPI DUP1 PUSH4 0xD24B22E1 EQ PUSH2 0x95A JUMPI DUP1 PUSH4 0xD8F23F2E EQ PUSH2 0x96D JUMPI PUSH1 0x0 DUP1 REVERT JUMPDEST DUP1 PUSH4 0xB69473B3 GT PUSH2 0x164 JUMPI DUP1 PUSH4 0xC626C52E GT PUSH2 0x13E JUMPI DUP1 PUSH4 0xC626C52E EQ PUSH2 0x8AD JUMPI DUP1 PUSH4 0xC8B54A4E EQ PUSH2 0x8DD JUMPI DUP1 PUSH4 0xC9B1C1FA EQ PUSH2 0x912 JUMPI DUP1 PUSH4 0xCE5D4C5E EQ PUSH2 0x927 JUMPI PUSH1 0x0 DUP1 REVERT JUMPDEST DUP1 PUSH4 0xB69473B3 EQ PUSH2 0x865 JUMPI DUP1 PUSH4 0xB7189DDA EQ PUSH2 0x86D JUMPI DUP1 PUSH4 0xC3DFDAE6 EQ PUSH2 0x88D JUMPI PUSH1 0x0 DUP1 REVERT JUMPDEST DUP1 PUSH4 0x97E4B05E GT PUSH2 0x1A0 JUMPI DUP1 PUSH4 0x97E4B05E EQ PUSH2 0x7A4 JUMPI DUP1 PUSH4 0x9D7D6667 EQ PUSH2 0x7C4 JUMPI DUP1 PUSH4 0x9FB4620D EQ PUSH2 0x81B JUMPI DUP1 PUSH4 0xB187BD26 EQ PUSH2 0x83B JUMPI PUSH1 0x0 DUP1 REVERT JUMPDEST DUP1 PUSH4 0x832EF347 EQ PUSH2 0x739 JUMPI DUP1 PUSH4 0x8C5AFB5A EQ PUSH2 0x74F JUMPI DUP1 PUSH4 0x8DA5CB5B EQ PUSH2 0x786 JUMPI PUSH1 0x0 DUP1 REVERT JUMPDEST DUP1 PUSH4 0x41B0C25B GT PUSH2 0x2A0 JUMPI DUP1 PUSH4 0x715018A6 GT PUSH2 0x23E JUMPI DUP1 PUSH4 0x7C54D20C GT PUSH2 0x218 JUMPI DUP1 PUSH4 0x7C54D20C EQ PUSH2 0x6E5 JUMPI DUP1 PUSH4 0x7DF48F2C EQ PUSH2 0x6FB JUMPI DUP1 PUSH4 0x80D29E66 EQ PUSH2 0x703 JUMPI DUP1 PUSH4 0x820B581A EQ PUSH2 0x723 JUMPI PUSH1 0x0 DUP1 REVERT JUMPDEST DUP1 PUSH4 0x715018A6 EQ PUSH2 0x673 JUMPI DUP1 PUSH4 0x768367C4 EQ PUSH2 0x688 JUMPI DUP1 PUSH4 0x7A1D2DB5 EQ PUSH2 0x6C5 JUMPI PUSH1 0x0 DUP1 REVERT JUMPDEST DUP1 PUSH4 0x4DA92800 GT PUSH2 0x27A JUMPI DUP1 PUSH4 0x4DA92800 EQ PUSH2 0x57E JUMPI DUP1 PUSH4 0x53F836DB EQ PUSH2 0x59E JUMPI DUP1 PUSH4 0x5A77800C EQ PUSH2 0x5BE JUMPI DUP1 PUSH4 0x5EAAA90C EQ PUSH2 0x65E JUMPI PUSH1 0x0 DUP1 REVERT JUMPDEST DUP1 PUSH4 0x41B0C25B EQ PUSH2 0x52A JUMPI DUP1 PUSH4 0x42FF8E44 EQ PUSH2 0x53F JUMPI DUP1 PUSH4 0x4628DF65 EQ PUSH2 0x569 JUMPI PUSH1 0x0 DUP1 REVERT JUMPDEST DUP1 PUSH4 0x2C1EF96A GT PUSH2 0x30D JUMPI DUP1 PUSH4 0x39849771 GT PUSH2 0x2E7 JUMPI DUP1 PUSH4 0x39849771 EQ PUSH2 0x4A0 JUMPI DUP1 PUSH4 0x3B84EDBD EQ PUSH2 0x4B6 JUMPI DUP1 PUSH4 0x3B8D3C56 EQ PUSH2 0x4D6 JUMPI DUP1 PUSH4 0x3E625844 EQ PUSH2 0x4F6 JUMPI PUSH1 0x0 DUP1 REVERT JUMPDEST DUP1 PUSH4 0x2C1EF96A EQ PUSH2 0x428 JUMPI DUP1 PUSH4 0x31094301 EQ PUSH2 0x448 JUMPI DUP1 PUSH4 0x342EB7CC EQ PUSH2 0x480 JUMPI PUSH1 0x0 DUP1 REVERT JUMPDEST DUP1 PUSH4 0x43531B1 EQ PUSH2 0x360 JUMPI DUP1 PUSH4 0x187E6F89 EQ PUSH2 0x382 JUMPI DUP1 PUSH4 0x1D111D13 EQ PUSH2 0x3AB JUMPI DUP1 PUSH4 0x21154EC5 EQ PUSH2 0x3C0 JUMPI DUP1 PUSH4 0x283DD0CB EQ PUSH2 0x3E0 JUMPI DUP1 PUSH4 0x29CEB418 EQ PUSH2 0x408 JUMPI PUSH1 0x0 DUP1 REVERT JUMPDEST CALLDATASIZE PUSH2 0x35B JUMPI STOP JUMPDEST PUSH1 0x0 DUP1 REVERT JUMPDEST CALLVALUE DUP1 ISZERO PUSH2 0x36C JUMPI PUSH1 0x0 DUP1 REVERT JUMPDEST POP PUSH2 0x380 PUSH2 0x37B CALLDATASIZE PUSH1 0x4 PUSH2 0x3099 JUMP JUMPDEST PUSH2 0xAD4 JUMP JUMPDEST STOP JUMPDEST CALLVALUE DUP1 ISZERO PUSH2 0x38E JUMPI PUSH1 0x0 DUP1 REVERT JUMPDEST POP PUSH2 0x398 PUSH1 0x5 SLOAD DUP2 JUMP JUMPDEST PUSH1 0x40 MLOAD SWAP1 DUP2 MSTORE PUSH1 0x20 ADD JUMPDEST PUSH1 0x40 MLOAD DUP1 SWAP2 SUB SWAP1 RETURN JUMPDEST CALLVALUE DUP1 ISZERO PUSH2 0x3B7 JUMPI PUSH1 0x0 DUP1 REVERT JUMPDEST POP PUSH2 0x380 PUSH2 0xB37 JUMP JUMPDEST CALLVALUE DUP1 ISZERO PUSH2 0x3CC JUMPI PUSH1 0x0 DUP1 REVERT JUMPDEST POP PUSH2 0x380 PUSH2 0x3DB CALLDATASIZE PUSH1 0x4 PUSH2 0x3099 JUMP JUMPDEST PUSH2 0xB65 JUMP JUMPDEST PUSH2 0x3F3 PUSH2 0x3EE CALLDATASIZE PUSH1 0x4 PUSH2 0x3099 JUMP JUMPDEST PUSH2 0xB72 JUMP JUMPDEST PUSH1 0x40 DUP1 MLOAD SWAP3 DUP4 MSTORE PUSH1 0x20 DUP4 ADD SWAP2 SWAP1 SWAP2 MSTORE ADD PUSH2 0x3A2 JUMP JUMPDEST CALLVALUE DUP1 ISZERO PUSH2 0x414 JUMPI PUSH1 0x0 DUP1 REVERT JUMPDEST POP PUSH2 0x380 PUSH2 0x423 CALLDATASIZE PUSH1 0x4 PUSH2 0x3099 JUMP JUMPDEST PUSH2 0xD2F JUMP JUMPDEST CALLVALUE DUP1 ISZERO PUSH2 0x434 JUMPI PUSH1 0x0 DUP1 REVERT JUMPDEST POP PUSH2 0x380 PUSH2 0x443 CALLDATASIZE PUSH1 0x4 PUSH2 0x2F6E JUMP JUMPDEST PUSH2 0xD3C JUMP JUMPDEST CALLVALUE DUP1 ISZERO PUSH2 0x454 JUMPI PUSH1 0x0 DUP1 REVERT JUMPDEST POP PUSH1 0x4 SLOAD PUSH2 0x468 SWAP1 PUSH1 0x1 PUSH1 0x1 PUSH1 0xA0 SHL SUB AND DUP2 JUMP JUMPDEST PUSH1 0x40 MLOAD PUSH1 0x1 PUSH1 0x1 PUSH1 0xA0 SHL SUB SWAP1 SWAP2 AND DUP2 MSTORE PUSH1 0x20 ADD PUSH2 0x3A2 JUMP JUMPDEST CALLVALUE DUP1 ISZERO PUSH2 0x48C JUMPI PUSH1 0x0 DUP1 REVERT JUMPDEST POP PUSH1 0x2 SLOAD PUSH2 0x468 SWAP1 PUSH1 0x1 PUSH1 0x1 PUSH1 0xA0 SHL SUB AND DUP2 JUMP JUMPDEST CALLVALUE DUP1 ISZERO PUSH2 0x4AC JUMPI PUSH1 0x0 DUP1 REVERT JUMPDEST POP PUSH2 0x398 PUSH1 0xA SLOAD DUP2 JUMP JUMPDEST CALLVALUE DUP1 ISZERO PUSH2 0x4C2 JUMPI PUSH1 0x0 DUP1 REVERT JUMPDEST POP PUSH2 0x380 PUSH2 0x4D1 CALLDATASIZE PUSH1 0x4 PUSH2 0x2EFB JUMP JUMPDEST PUSH2 0xDCF JUMP JUMPDEST CALLVALUE DUP1 ISZERO PUSH2 0x4E2 JUMPI PUSH1 0x0 DUP1 REVERT JUMPDEST POP PUSH2 0x380 PUSH2 0x4F1 CALLDATASIZE PUSH1 0x4 PUSH2 0x3099 JUMP JUMPDEST PUSH2 0xDF9 JUMP JUMPDEST CALLVALUE DUP1 ISZERO PUSH2 0x502 JUMPI PUSH1 0x0 DUP1 REVERT JUMPDEST POP PUSH2 0x516 PUSH2 0x511 CALLDATASIZE PUSH1 0x4 PUSH2 0x2EFB JUMP JUMPDEST PUSH2 0xE06 JUMP JUMPDEST PUSH1 0x40 MLOAD PUSH2 0x3A2 SWAP9 SWAP8 SWAP7 SWAP6 SWAP5 SWAP4 SWAP3 SWAP2 SWAP1 PUSH2 0x3281 JUMP JUMPDEST CALLVALUE DUP1 ISZERO PUSH2 0x536 JUMPI PUSH1 0x0 DUP1 REVERT JUMPDEST POP PUSH2 0x468 PUSH2 0x10D5 JUMP JUMPDEST PUSH2 0x552 PUSH2 0x54D CALLDATASIZE PUSH1 0x4 PUSH2 0x3099 JUMP JUMPDEST PUSH2 0x1162 JUMP JUMPDEST PUSH1 0x40 DUP1 MLOAD SWAP3 ISZERO ISZERO DUP4 MSTORE SWAP1 ISZERO ISZERO PUSH1 0x20 DUP4 ADD MSTORE ADD PUSH2 0x3A2 JUMP JUMPDEST CALLVALUE DUP1 ISZERO PUSH2 0x575 JUMPI PUSH1 0x0 DUP1 REVERT JUMPDEST POP PUSH2 0x398 PUSH2 0x119F JUMP JUMPDEST CALLVALUE DUP1 ISZERO PUSH2 0x58A JUMPI PUSH1 0x0 DUP1 REVERT JUMPDEST POP PUSH2 0x380 PUSH2 0x599 CALLDATASIZE PUSH1 0x4 PUSH2 0x305F JUMP JUMPDEST PUSH2 0x1229 JUMP JUMPDEST CALLVALUE DUP1 ISZERO PUSH2 0x5AA JUMPI PUSH1 0x0 DUP1 REVERT JUMPDEST POP PUSH2 0x398 PUSH2 0x5B9 CALLDATASIZE PUSH1 0x4 PUSH2 0x3099 JUMP JUMPDEST PUSH2 0x1244 JUMP JUMPDEST CALLVALUE DUP1 ISZERO PUSH2 0x5CA JUMPI PUSH1 0x0 DUP1 REVERT JUMPDEST POP PUSH2 0x62F PUSH2 0x5D9 CALLDATASIZE PUSH1 0x4 PUSH2 0x2EFB JUMP JUMPDEST PUSH1 0x1 PUSH1 0x1 PUSH1 0xA0 SHL SUB AND PUSH1 0x0 SWAP1 DUP2 MSTORE PUSH1 0x17 PUSH1 0x20 SWAP1 DUP2 MSTORE PUSH1 0x40 DUP1 DUP4 KECCAK256 SLOAD PUSH1 0x18 DUP4 MSTORE DUP2 DUP5 KECCAK256 SWAP1 DUP5 MSTORE SWAP1 SWAP2 MSTORE SWAP1 KECCAK256 DUP1 SLOAD PUSH1 0x1 DUP3 ADD SLOAD PUSH1 0x2 DUP4 ADD SLOAD PUSH1 0x3 DUP5 ADD SLOAD PUSH1 0x4 DUP6 ADD SLOAD PUSH1 0x5 SWAP1 SWAP6 ADD SLOAD SWAP4 SWAP6 SWAP3 SWAP5 SWAP2 SWAP4 SWAP1 SWAP3 PUSH1 0xFF SWAP1 SWAP2 AND SWAP1 JUMP JUMPDEST PUSH1 0x40 DUP1 MLOAD SWAP7 DUP8 MSTORE PUSH1 0x20 DUP8 ADD SWAP6 SWAP1 SWAP6 MSTORE SWAP4 DUP6 ADD SWAP3 SWAP1 SWAP3 MSTORE PUSH1 0x60 DUP5 ADD MSTORE PUSH1 0x80 DUP4 ADD MSTORE ISZERO ISZERO PUSH1 0xA0 DUP3 ADD MSTORE PUSH1 0xC0 ADD PUSH2 0x3A2 JUMP JUMPDEST CALLVALUE DUP1 ISZERO PUSH2 0x66A JUMPI PUSH1 0x0 DUP1 REVERT JUMPDEST POP PUSH2 0x380 PUSH2 0x130F JUMP JUMPDEST CALLVALUE DUP1 ISZERO PUSH2 0x67F JUMPI PUSH1 0x0 DUP1 REVERT JUMPDEST POP PUSH2 0x380 PUSH2 0x14F8 JUMP JUMPDEST CALLVALUE DUP1 ISZERO PUSH2 0x694 JUMPI PUSH1 0x0 DUP1 REVERT JUMPDEST POP PUSH2 0x69D PUSH2 0x150A JUMP JUMPDEST PUSH1 0x40 DUP1 MLOAD SWAP6 DUP7 MSTORE PUSH1 0x20 DUP7 ADD SWAP5 SWAP1 SWAP5 MSTORE SWAP3 DUP5 ADD SWAP2 SWAP1 SWAP2 MSTORE PUSH1 0x60 DUP4 ADD MSTORE PUSH1 0x80 DUP3 ADD MSTORE PUSH1 0xA0 ADD PUSH2 0x3A2 JUMP JUMPDEST CALLVALUE DUP1 ISZERO PUSH2 0x6D1 JUMPI PUSH1 0x0 DUP1 REVERT JUMPDEST POP PUSH2 0x398 PUSH2 0x6E0 CALLDATASIZE PUSH1 0x4 PUSH2 0x30CB JUMP JUMPDEST PUSH2 0x153C JUMP JUMPDEST CALLVALUE DUP1 ISZERO PUSH2 0x6F1 JUMPI PUSH1 0x0 DUP1 REVERT JUMPDEST POP PUSH2 0x398 PUSH1 0x7 SLOAD DUP2 JUMP JUMPDEST PUSH2 0x69D PUSH2 0x162C JUMP JUMPDEST CALLVALUE DUP1 ISZERO PUSH2 0x70F JUMPI PUSH1 0x0 DUP1 REVERT JUMPDEST POP PUSH2 0x380 PUSH2 0x71E CALLDATASIZE PUSH1 0x4 PUSH2 0x2EFB JUMP JUMPDEST PUSH2 0x1676 JUMP JUMPDEST CALLVALUE DUP1 ISZERO PUSH2 0x72F JUMPI PUSH1 0x0 DUP1 REVERT JUMPDEST POP PUSH2 0x398 PUSH1 0x8 SLOAD DUP2 JUMP JUMPDEST CALLVALUE DUP1 ISZERO PUSH2 0x745 JUMPI PUSH1 0x0 DUP1 REVERT JUMPDEST POP PUSH2 0x398 PUSH1 0x9 SLOAD DUP2 JUMP JUMPDEST CALLVALUE DUP1 ISZERO PUSH2 0x75B JUMPI PUSH1 0x0 DUP1 REVERT JUMPDEST POP PUSH2 0x76F PUSH2 0x76A CALLDATASIZE PUSH1 0x4 PUSH2 0x2F9A JUMP JUMPDEST PUSH2 0x16A0 JUMP JUMPDEST PUSH1 0x40 DUP1 MLOAD SWAP3 ISZERO ISZERO DUP4 MSTORE PUSH1 0x20 DUP4 ADD SWAP2 SWAP1 SWAP2 MSTORE ADD PUSH2 0x3A2 JUMP JUMPDEST CALLVALUE DUP1 ISZERO PUSH2 0x792 JUMPI PUSH1 0x0 DUP1 REVERT JUMPDEST POP PUSH1 0x0 SLOAD PUSH1 0x1 PUSH1 0x1 PUSH1 0xA0 SHL SUB AND PUSH2 0x468 JUMP JUMPDEST CALLVALUE DUP1 ISZERO PUSH2 0x7B0 JUMPI PUSH1 0x0 DUP1 REVERT JUMPDEST POP PUSH2 0x380 PUSH2 0x7BF CALLDATASIZE PUSH1 0x4 PUSH2 0x3130 JUMP JUMPDEST PUSH2 0x1820 JUMP JUMPDEST CALLVALUE DUP1 ISZERO PUSH2 0x7D0 JUMPI PUSH1 0x0 DUP1 REVERT JUMPDEST POP PUSH1 0xC SLOAD PUSH1 0xD SLOAD PUSH1 0xE SLOAD PUSH1 0xF SLOAD PUSH1 0x10 SLOAD PUSH1 0x11 SLOAD PUSH1 0x12 SLOAD PUSH1 0x40 DUP1 MLOAD SWAP8 DUP9 MSTORE PUSH1 0x20 DUP9 ADD SWAP7 SWAP1 SWAP7 MSTORE SWAP5 DUP7 ADD SWAP4 SWAP1 SWAP4 MSTORE PUSH1 0x60 DUP6 ADD SWAP2 SWAP1 SWAP2 MSTORE PUSH1 0x80 DUP5 ADD MSTORE PUSH1 0xA0 DUP4 ADD MSTORE PUSH1 0xC0 DUP3 ADD MSTORE PUSH1 0xE0 ADD PUSH2 0x3A2 JUMP JUMPDEST CALLVALUE DUP1 ISZERO PUSH2 0x827 JUMPI PUSH1 0x0 DUP1 REVERT JUMPDEST POP PUSH2 0x380 PUSH2 0x836 CALLDATASIZE PUSH1 0x4 PUSH2 0x3099 JUMP JUMPDEST PUSH2 0x1848 JUMP JUMPDEST CALLVALUE DUP1 ISZERO PUSH2 0x847 JUMPI PUSH1 0x0 DUP1 REVERT JUMPDEST POP PUSH1 0x14 SLOAD PUSH2 0x855 SWAP1 PUSH1 0xFF AND DUP2 JUMP JUMPDEST PUSH1 0x40 MLOAD SWAP1 ISZERO ISZERO DUP2 MSTORE PUSH1 0x20 ADD PUSH2 0x3A2 JUMP JUMPDEST PUSH2 0x552 PUSH2 0x18FA JUMP JUMPDEST CALLVALUE DUP1 ISZERO PUSH2 0x879 JUMPI PUSH1 0x0 DUP1 REVERT JUMPDEST POP PUSH2 0x380 PUSH2 0x888 CALLDATASIZE PUSH1 0x4 PUSH2 0x2EFB JUMP JUMPDEST PUSH2 0x1938 JUMP JUMPDEST CALLVALUE DUP1 ISZERO PUSH2 0x899 JUMPI PUSH1 0x0 DUP1 REVERT JUMPDEST POP PUSH1 0x1 SLOAD PUSH2 0x468 SWAP1 PUSH1 0x1 PUSH1 0x1 PUSH1 0xA0 SHL SUB AND DUP2 JUMP JUMPDEST CALLVALUE DUP1 ISZERO PUSH2 0x8B9 JUMPI PUSH1 0x0 DUP1 REVERT JUMPDEST POP PUSH2 0x855 PUSH2 0x8C8 CALLDATASIZE PUSH1 0x4 PUSH2 0x2EFB JUMP JUMPDEST PUSH1 0x13 PUSH1 0x20 MSTORE PUSH1 0x0 SWAP1 DUP2 MSTORE PUSH1 0x40 SWAP1 KECCAK256 SLOAD PUSH1 0xFF AND DUP2 JUMP JUMPDEST PUSH2 0x8F0 PUSH2 0x8EB CALLDATASIZE PUSH1 0x4 PUSH2 0x3104 JUMP JUMPDEST PUSH2 0x1962 JUMP JUMPDEST PUSH1 0x40 DUP1 MLOAD SWAP5 DUP6 MSTORE PUSH1 0x20 DUP6 ADD SWAP4 SWAP1 SWAP4 MSTORE SWAP2 DUP4 ADD MSTORE ISZERO ISZERO PUSH1 0x60 DUP3 ADD MSTORE PUSH1 0x80 ADD PUSH2 0x3A2 JUMP JUMPDEST CALLVALUE DUP1 ISZERO PUSH2 0x91E JUMPI PUSH1 0x0 DUP1 REVERT JUMPDEST POP PUSH2 0x380 PUSH2 0x1B25 JUMP JUMPDEST PUSH2 0x69D PUSH2 0x935 CALLDATASIZE PUSH1 0x4 PUSH2 0x3099 JUMP JUMPDEST PUSH2 0x1C37 JUMP JUMPDEST CALLVALUE DUP1 ISZERO PUSH2 0x946 JUMPI PUSH1 0x0 DUP1 REVERT JUMPDEST POP PUSH2 0x380 PUSH2 0x955 CALLDATASIZE PUSH1 0x4 PUSH2 0x3099 JUMP JUMPDEST PUSH2 0x1D65 JUMP JUMPDEST PUSH2 0x380 PUSH2 0x968 CALLDATASIZE PUSH1 0x4 PUSH2 0x3099 JUMP JUMPDEST PUSH2 0x1DD0 JUMP JUMPDEST PUSH2 0x552 PUSH2 0x97B CALLDATASIZE PUSH1 0x4 PUSH2 0x3099 JUMP JUMPDEST PUSH2 0x20DE JUMP JUMPDEST CALLVALUE DUP1 ISZERO PUSH2 0x98C JUMPI PUSH1 0x0 DUP1 REVERT JUMPDEST POP PUSH2 0x398 PUSH1 0x3 SLOAD DUP2 JUMP JUMPDEST CALLVALUE DUP1 ISZERO PUSH2 0x9A2 JUMPI PUSH1 0x0 DUP1 REVERT JUMPDEST POP PUSH2 0x398 PUSH2 0x2111 JUMP JUMPDEST CALLVALUE DUP1 ISZERO PUSH2 0x9B7 JUMPI PUSH1 0x0 DUP1 REVERT JUMPDEST POP PUSH2 0x398 PUSH1 0x6 SLOAD DUP2 JUMP JUMPDEST CALLVALUE DUP1 ISZERO PUSH2 0x9CD JUMPI PUSH1 0x0 DUP1 REVERT JUMPDEST POP PUSH2 0x398 PUSH2 0x2135 JUMP JUMPDEST CALLVALUE DUP1 ISZERO PUSH2 0x9E2 JUMPI PUSH1 0x0 DUP1 REVERT JUMPDEST POP PUSH2 0x380 PUSH2 0x9F1 CALLDATASIZE PUSH1 0x4 PUSH2 0x2EFB JUMP JUMPDEST PUSH2 0x223C JUMP JUMPDEST CALLVALUE DUP1 ISZERO PUSH2 0xA02 JUMPI PUSH1 0x0 DUP1 REVERT JUMPDEST POP PUSH2 0x380 PUSH2 0xA11 CALLDATASIZE PUSH1 0x4 PUSH2 0x3099 JUMP JUMPDEST PUSH2 0x22B5 JUMP JUMPDEST CALLVALUE DUP1 ISZERO PUSH2 0xA22 JUMPI PUSH1 0x0 DUP1 REVERT JUMPDEST POP PUSH2 0x380 PUSH2 0xA31 CALLDATASIZE PUSH1 0x4 PUSH2 0x2F35 JUMP JUMPDEST PUSH2 0x22C2 JUMP JUMPDEST PUSH2 0x552 PUSH2 0x22F5 JUMP JUMPDEST CALLVALUE DUP1 ISZERO PUSH2 0xA4A JUMPI PUSH1 0x0 DUP1 REVERT JUMPDEST POP PUSH2 0x380 PUSH2 0x232A JUMP JUMPDEST CALLVALUE DUP1 ISZERO PUSH2 0xA5F JUMPI PUSH1 0x0 DUP1 REVERT JUMPDEST POP PUSH2 0xA73 PUSH2 0xA6E CALLDATASIZE PUSH1 0x4 PUSH2 0x305F JUMP JUMPDEST PUSH2 0x24D3 JUMP JUMPDEST PUSH1 0x40 DUP1 MLOAD SWAP9 ISZERO ISZERO DUP10 MSTORE PUSH1 0x20 DUP10 ADD SWAP8 SWAP1 SWAP8 MSTORE SWAP6 DUP8 ADD SWAP5 SWAP1 SWAP5 MSTORE PUSH1 0x60 DUP7 ADD SWAP3 SWAP1 SWAP3 MSTORE PUSH1 0x80 DUP6 ADD MSTORE ISZERO ISZERO PUSH1 0xA0 DUP5 ADD MSTORE ISZERO ISZERO PUSH1 0xC0 DUP4 ADD MSTORE PUSH1 0xE0 DUP3 ADD MSTORE PUSH2 0x100 ADD PUSH2 0x3A2 JUMP JUMPDEST CALLVALUE DUP1 ISZERO PUSH2 0xAC0 JUMPI PUSH1 0x0 DUP1 REVERT JUMPDEST POP PUSH2 0x398 PUSH2 0xACF CALLDATASIZE PUSH1 0x4 PUSH2 0x30CB JUMP JUMPDEST PUSH2 0x26BB JUMP JUMPDEST PUSH2 0xADC PUSH2 0x2726 JUMP JUMPDEST PUSH1 0x64 DUP2 GT ISZERO PUSH2 0xB32 JUMPI PUSH1 0x40 MLOAD PUSH3 0x461BCD PUSH1 0xE5 SHL DUP2 MSTORE PUSH1 0x20 PUSH1 0x4 DUP3 ADD MSTORE PUSH1 0x1B PUSH1 0x24 DUP3 ADD MSTORE PUSH32 0x6D757374206265206265747765656E203020616E642031303020250000000000 PUSH1 0x44 DUP3 ADD MSTORE PUSH1 0x64 ADD JUMPDEST PUSH1 0x40 MLOAD DUP1 SWAP2 SUB SWAP1 REVERT JUMPDEST PUSH1 0x8 SSTORE JUMP JUMPDEST PUSH2 0xB3F PUSH2 0x2726 JUMP JUMPDEST PUSH1 0x40 MLOAD CALLER SWAP1 SELFBALANCE DUP1 ISZERO PUSH2 0x8FC MUL SWAP2 PUSH1 0x0 DUP2 DUP2 DUP2 DUP6 DUP9 DUP9 CALL SWAP4 POP POP POP POP PUSH2 0xB63 JUMPI PUSH1 0x0 DUP1 REVERT JUMPDEST JUMP JUMPDEST PUSH2 0xB6D PUSH2 0x2726 JUMP JUMPDEST PUSH1 0xA SSTORE JUMP JUMPDEST PUSH1 0x14 SLOAD PUSH1 0x0 SWAP1 DUP2 SWAP1 PUSH1 0xFF AND ISZERO PUSH2 0xB9A JUMPI PUSH1 0x40 MLOAD PUSH3 0x461BCD PUSH1 0xE5 SHL DUP2 MSTORE PUSH1 0x4 ADD PUSH2 0xB29 SWAP1 PUSH2 0x3332 JUMP JUMPDEST CALLER PUSH1 0x0 SWAP1 DUP2 MSTORE PUSH1 0x17 PUSH1 0x20 SWAP1 DUP2 MSTORE PUSH1 0x40 DUP1 DUP4 KECCAK256 SLOAD PUSH1 0x18 DUP4 MSTORE DUP2 DUP5 KECCAK256 DUP2 DUP6 MSTORE SWAP1 SWAP3 MSTORE SWAP1 SWAP2 KECCAK256 PUSH1 0x5 DUP2 ADD SLOAD PUSH1 0xFF AND ISZERO PUSH2 0xC0A JUMPI PUSH1 0x40 MLOAD PUSH3 0x461BCD PUSH1 0xE5 SHL DUP2 MSTORE PUSH1 0x20 PUSH1 0x4 DUP3 ADD MSTORE PUSH1 0x15 PUSH1 0x24 DUP3 ADD MSTORE PUSH21 0x4D7573742066696E697368206C6173742047616D65 PUSH1 0x58 SHL PUSH1 0x44 DUP3 ADD MSTORE PUSH1 0x64 ADD PUSH2 0xB29 JUMP JUMPDEST PUSH2 0xC17 DUP2 PUSH1 0x2 ADD SLOAD PUSH2 0x2780 JUMP JUMPDEST PUSH1 0x2 DUP2 ADD DUP6 SWAP1 SSTORE PUSH1 0x11 SLOAD PUSH1 0x3 DUP3 ADD SSTORE PUSH1 0x5 DUP2 ADD DUP1 SLOAD PUSH1 0xFF NOT AND PUSH1 0x1 SWAP1 DUP2 OR SWAP1 SWAP2 SSTORE SLOAD PUSH1 0x40 MLOAD PUSH4 0x23B872DD PUSH1 0xE0 SHL DUP2 MSTORE CALLER PUSH1 0x4 DUP3 ADD MSTORE ADDRESS PUSH1 0x24 DUP3 ADD MSTORE PUSH1 0x44 DUP2 ADD DUP8 SWAP1 MSTORE PUSH1 0x1 PUSH1 0x1 PUSH1 0xA0 SHL SUB SWAP1 SWAP2 AND SWAP1 PUSH4 0x23B872DD SWAP1 PUSH1 0x64 ADD PUSH1 0x20 PUSH1 0x40 MLOAD DUP1 DUP4 SUB DUP2 PUSH1 0x0 DUP8 DUP1 EXTCODESIZE ISZERO DUP1 ISZERO PUSH2 0xC88 JUMPI PUSH1 0x0 DUP1 REVERT JUMPDEST POP GAS CALL ISZERO DUP1 ISZERO PUSH2 0xC9C JUMPI RETURNDATASIZE PUSH1 0x0 DUP1 RETURNDATACOPY RETURNDATASIZE PUSH1 0x0 REVERT JUMPDEST POP POP POP POP PUSH1 0x40 MLOAD RETURNDATASIZE PUSH1 0x1F NOT PUSH1 0x1F DUP3 ADD AND DUP3 ADD DUP1 PUSH1 0x40 MSTORE POP DUP2 ADD SWAP1 PUSH2 0xCC0 SWAP2 SWAP1 PUSH2 0x307C JUMP JUMPDEST POP PUSH2 0xCC9 PUSH2 0x2A74 JUMP JUMPDEST DUP1 DUP4 SSTORE PUSH1 0x1 DUP4 ADD DUP3 SWAP1 SSTORE PUSH1 0x40 DUP1 MLOAD CALLER DUP2 MSTORE PUSH1 0x20 DUP2 ADD SWAP3 SWAP1 SWAP3 MSTORE DUP2 ADD SWAP2 SWAP1 SWAP2 MSTORE PUSH1 0x60 DUP2 ADD DUP7 SWAP1 MSTORE PUSH32 0xE3FA5BDE10D75BBF2FD822CBD4924EA5EEC3BCE141D9161A8130AEB9F1E5358F SWAP1 PUSH1 0x80 ADD PUSH1 0x40 MLOAD DUP1 SWAP2 SUB SWAP1 LOG1 DUP1 SLOAD PUSH1 0x1 SWAP1 SWAP2 ADD SLOAD SWAP1 SWAP4 POP SWAP2 POP POP SWAP2 POP SWAP2 JUMP JUMPDEST PUSH2 0xD37 PUSH2 0x2726 JUMP JUMPDEST PUSH1 0x5 SSTORE JUMP JUMPDEST PUSH2 0xD44 PUSH2 0x2726 JUMP JUMPDEST PUSH1 0x40 MLOAD PUSH4 0xA9059CBB PUSH1 0xE0 SHL DUP2 MSTORE CALLER PUSH1 0x4 DUP3 ADD MSTORE PUSH1 0x24 DUP2 ADD DUP3 SWAP1 MSTORE PUSH1 0x1 PUSH1 0x1 PUSH1 0xA0 SHL SUB DUP4 AND SWAP1 PUSH4 0xA9059CBB SWAP1 PUSH1 0x44 ADD JUMPDEST PUSH1 0x20 PUSH1 0x40 MLOAD DUP1 DUP4 SUB DUP2 PUSH1 0x0 DUP8 DUP1 EXTCODESIZE ISZERO DUP1 ISZERO PUSH2 0xD8D JUMPI PUSH1 0x0 DUP1 REVERT JUMPDEST POP GAS CALL ISZERO DUP1 ISZERO PUSH2 0xDA1 JUMPI RETURNDATASIZE PUSH1 0x0 DUP1 RETURNDATACOPY RETURNDATASIZE PUSH1 0x0 REVERT JUMPDEST POP POP POP POP PUSH1 0x40 MLOAD RETURNDATASIZE PUSH1 0x1F NOT PUSH1 0x1F DUP3 ADD AND DUP3 ADD DUP1 PUSH1 0x40 MSTORE POP DUP2 ADD SWAP1 PUSH2 0xDC5 SWAP2 SWAP1 PUSH2 0x307C JUMP JUMPDEST POP POP PUSH1 0x0 PUSH1 0x6 SSTORE POP JUMP JUMPDEST PUSH2 0xDD7 PUSH2 0x2726 JUMP JUMPDEST PUSH1 0xB DUP1 SLOAD PUSH1 0x1 PUSH1 0x1 PUSH1 0xA0 SHL SUB NOT AND PUSH1 0x1 PUSH1 0x1 PUSH1 0xA0 SHL SUB SWAP3 SWAP1 SWAP3 AND SWAP2 SWAP1 SWAP2 OR SWAP1 SSTORE JUMP JUMPDEST PUSH2 0xE01 PUSH2 0x2726 JUMP JUMPDEST PUSH1 0x3 SSTORE JUMP JUMPDEST PUSH1 0x1 PUSH1 0x1 PUSH1 0xA0 SHL SUB DUP2 AND PUSH1 0x0 SWAP1 DUP2 MSTORE PUSH1 0x19 PUSH1 0x20 SWAP1 DUP2 MSTORE PUSH1 0x40 DUP1 DUP4 KECCAK256 SLOAD PUSH1 0x1A DUP4 MSTORE DUP2 DUP5 KECCAK256 DUP2 DUP6 MSTORE SWAP1 SWAP3 MSTORE DUP3 KECCAK256 DUP1 SLOAD PUSH1 0x60 SWAP4 DUP5 SWAP4 DUP5 SWAP4 DUP5 SWAP4 DUP4 SWAP3 DUP4 SWAP3 DUP4 SWAP3 PUSH8 0xFFFFFFFFFFFFFFFF DUP2 GT ISZERO PUSH2 0xE5A JUMPI PUSH2 0xE5A PUSH2 0x3471 JUMP JUMPDEST PUSH1 0x40 MLOAD SWAP1 DUP1 DUP3 MSTORE DUP1 PUSH1 0x20 MUL PUSH1 0x20 ADD DUP3 ADD PUSH1 0x40 MSTORE DUP1 ISZERO PUSH2 0xE83 JUMPI DUP2 PUSH1 0x20 ADD PUSH1 0x20 DUP3 MUL DUP1 CALLDATASIZE DUP4 CALLDATACOPY ADD SWAP1 POP JUMPDEST POP DUP2 SLOAD PUSH1 0x40 DUP1 MLOAD PUSH1 0x20 DUP1 DUP5 MUL DUP3 ADD DUP2 ADD SWAP1 SWAP3 MSTORE DUP3 DUP2 MSTORE SWAP3 SWAP13 POP DUP4 SWAP2 SWAP1 DUP4 ADD DUP3 DUP3 DUP1 ISZERO PUSH2 0xECE JUMPI PUSH1 0x20 MUL DUP3 ADD SWAP2 SWAP1 PUSH1 0x0 MSTORE PUSH1 0x20 PUSH1 0x0 KECCAK256 SWAP1 JUMPDEST DUP2 SLOAD DUP2 MSTORE PUSH1 0x20 ADD SWAP1 PUSH1 0x1 ADD SWAP1 DUP1 DUP4 GT PUSH2 0xEBA JUMPI JUMPDEST POP POP DUP5 SLOAD SWAP4 SWAP14 POP POP POP PUSH8 0xFFFFFFFFFFFFFFFF DUP3 GT ISZERO SWAP1 POP PUSH2 0xEF1 JUMPI PUSH2 0xEF1 PUSH2 0x3471 JUMP JUMPDEST PUSH1 0x40 MLOAD SWAP1 DUP1 DUP3 MSTORE DUP1 PUSH1 0x20 MUL PUSH1 0x20 ADD DUP3 ADD PUSH1 0x40 MSTORE DUP1 ISZERO PUSH2 0xF1A JUMPI DUP2 PUSH1 0x20 ADD PUSH1 0x20 DUP3 MUL DUP1 CALLDATASIZE DUP4 CALLDATACOPY ADD SWAP1 POP JUMPDEST POP PUSH1 0x1 DUP3 ADD DUP1 SLOAD PUSH1 0x40 DUP1 MLOAD PUSH1 0x20 DUP1 DUP5 MUL DUP3 ADD DUP2 ADD SWAP1 SWAP3 MSTORE DUP3 DUP2 MSTORE SWAP4 SWAP13 POP DUP4 ADD DUP3 DUP3 DUP1 ISZERO PUSH2 0xF66 JUMPI PUSH1 0x20 MUL DUP3 ADD SWAP2 SWAP1 PUSH1 0x0 MSTORE PUSH1 0x20 PUSH1 0x0 KECCAK256 SWAP1 JUMPDEST DUP2 SLOAD DUP2 MSTORE PUSH1 0x20 ADD SWAP1 PUSH1 0x1 ADD SWAP1 DUP1 DUP4 GT PUSH2 0xF52 JUMPI JUMPDEST POP POP POP PUSH1 0x2 DUP5 ADD SLOAD SWAP3 SWAP12 POP POP POP PUSH8 0xFFFFFFFFFFFFFFFF DUP2 GT ISZERO PUSH2 0xF8B JUMPI PUSH2 0xF8B PUSH2 0x3471 JUMP JUMPDEST PUSH1 0x40 MLOAD SWAP1 DUP1 DUP3 MSTORE DUP1 PUSH1 0x20 MUL PUSH1 0x20 ADD DUP3 ADD PUSH1 0x40 MSTORE DUP1 ISZERO PUSH2 0xFB4 JUMPI DUP2 PUSH1 0x20 ADD PUSH1 0x20 DUP3 MUL DUP1 CALLDATASIZE DUP4 CALLDATACOPY ADD SWAP1 POP JUMPDEST POP PUSH1 0x2 DUP3 ADD DUP1 SLOAD PUSH1 0x40 DUP1 MLOAD PUSH1 0x20 DUP1 DUP5 MUL DUP3 ADD DUP2 ADD SWAP1 SWAP3 MSTORE DUP3 DUP2 MSTORE SWAP4 SWAP12 POP DUP4 ADD DUP3 DUP3 DUP1 ISZERO PUSH2 0x1000 JUMPI PUSH1 0x20 MUL DUP3 ADD SWAP2 SWAP1 PUSH1 0x0 MSTORE PUSH1 0x20 PUSH1 0x0 KECCAK256 SWAP1 JUMPDEST DUP2 SLOAD DUP2 MSTORE PUSH1 0x20 ADD SWAP1 PUSH1 0x1 ADD SWAP1 DUP1 DUP4 GT PUSH2 0xFEC JUMPI JUMPDEST POP POP DUP5 SLOAD SWAP4 SWAP12 POP POP POP PUSH8 0xFFFFFFFFFFFFFFFF DUP3 GT ISZERO SWAP1 POP PUSH2 0x1023 JUMPI PUSH2 0x1023 PUSH2 0x3471 JUMP JUMPDEST PUSH1 0x40 MLOAD SWAP1 DUP1 DUP3 MSTORE DUP1 PUSH1 0x20 MUL PUSH1 0x20 ADD DUP3 ADD PUSH1 0x40 MSTORE DUP1 ISZERO PUSH2 0x104C JUMPI DUP2 PUSH1 0x20 ADD PUSH1 0x20 DUP3 MUL DUP1 CALLDATASIZE DUP4 CALLDATACOPY ADD SWAP1 POP JUMPDEST POP PUSH1 0x3 DUP3 ADD DUP1 SLOAD PUSH1 0x40 DUP1 MLOAD PUSH1 0x20 DUP1 DUP5 MUL DUP3 ADD DUP2 ADD SWAP1 SWAP3 MSTORE DUP3 DUP2 MSTORE SWAP4 SWAP11 POP DUP4 ADD DUP3 DUP3 DUP1 ISZERO PUSH2 0x1098 JUMPI PUSH1 0x20 MUL DUP3 ADD SWAP2 SWAP1 PUSH1 0x0 MSTORE PUSH1 0x20 PUSH1 0x0 KECCAK256 SWAP1 JUMPDEST DUP2 SLOAD DUP2 MSTORE PUSH1 0x20 ADD SWAP1 PUSH1 0x1 ADD SWAP1 DUP1 DUP4 GT PUSH2 0x1084 JUMPI JUMPDEST POP POP POP POP POP SWAP7 POP DUP1 PUSH1 0x4 ADD SLOAD SWAP6 POP DUP1 PUSH1 0x5 ADD SLOAD SWAP5 POP DUP1 PUSH1 0x6 ADD SLOAD SWAP4 POP DUP1 PUSH1 0x7 ADD PUSH1 0x0 SWAP1 SLOAD SWAP1 PUSH2 0x100 EXP SWAP1 DIV PUSH1 0xFF AND SWAP3 POP POP POP SWAP2 SWAP4 SWAP6 SWAP8 POP SWAP2 SWAP4 SWAP6 SWAP8 JUMP JUMPDEST PUSH1 0x0 PUSH1 0x4 PUSH1 0x0 SWAP1 SLOAD SWAP1 PUSH2 0x100 EXP SWAP1 DIV PUSH1 0x1 PUSH1 0x1 PUSH1 0xA0 SHL SUB AND PUSH1 0x1 PUSH1 0x1 PUSH1 0xA0 SHL SUB AND PUSH4 0x61D027B3 PUSH1 0x40 MLOAD DUP2 PUSH4 0xFFFFFFFF AND PUSH1 0xE0 SHL DUP2 MSTORE PUSH1 0x4 ADD PUSH1 0x20 PUSH1 0x40 MLOAD DUP1 DUP4 SUB DUP2 DUP7 DUP1 EXTCODESIZE ISZERO DUP1 ISZERO PUSH2 0x1125 JUMPI PUSH1 0x0 DUP1 REVERT JUMPDEST POP GAS STATICCALL ISZERO DUP1 ISZERO PUSH2 0x1139 JUMPI RETURNDATASIZE PUSH1 0x0 DUP1 RETURNDATACOPY RETURNDATASIZE PUSH1 0x0 REVERT JUMPDEST POP POP POP POP PUSH1 0x40 MLOAD RETURNDATASIZE PUSH1 0x1F NOT PUSH1 0x1F DUP3 ADD AND DUP3 ADD DUP1 PUSH1 0x40 MSTORE POP DUP2 ADD SWAP1 PUSH2 0x115D SWAP2 SWAP1 PUSH2 0x2F18 JUMP JUMPDEST SWAP1 POP SWAP1 JUMP JUMPDEST PUSH1 0x14 SLOAD PUSH1 0x0 SWAP1 DUP2 SWAP1 PUSH1 0xFF AND ISZERO PUSH2 0x118A JUMPI PUSH1 0x40 MLOAD PUSH3 0x461BCD PUSH1 0xE5 SHL DUP2 MSTORE PUSH1 0x4 ADD PUSH2 0xB29 SWAP1 PUSH2 0x3332 JUMP JUMPDEST PUSH2 0x1195 DUP4 PUSH1 0x1 PUSH2 0x2B03 JUMP JUMPDEST SWAP1 SWAP5 SWAP1 SWAP4 POP SWAP2 POP POP JUMP JUMPDEST PUSH1 0x6 SLOAD PUSH1 0x1 SLOAD PUSH1 0x40 MLOAD PUSH4 0x70A08231 PUSH1 0xE0 SHL DUP2 MSTORE ADDRESS PUSH1 0x4 DUP3 ADD MSTORE PUSH1 0x0 SWAP3 SWAP2 PUSH1 0x1 PUSH1 0x1 PUSH1 0xA0 SHL SUB AND SWAP1 PUSH4 0x70A08231 SWAP1 PUSH1 0x24 ADD PUSH1 0x20 PUSH1 0x40 MLOAD DUP1 DUP4 SUB DUP2 DUP7 DUP1 EXTCODESIZE ISZERO DUP1 ISZERO PUSH2 0x11E7 JUMPI PUSH1 0x0 DUP1 REVERT JUMPDEST POP GAS STATICCALL ISZERO DUP1 ISZERO PUSH2 0x11FB JUMPI RETURNDATASIZE PUSH1 0x0 DUP1 RETURNDATACOPY RETURNDATASIZE PUSH1 0x0 REVERT JUMPDEST POP POP POP POP PUSH1 0x40 MLOAD RETURNDATASIZE PUSH1 0x1F NOT PUSH1 0x1F DUP3 ADD AND DUP3 ADD DUP1 PUSH1 0x40 MSTORE POP DUP2 ADD SWAP1 PUSH2 0x121F SWAP2 SWAP1 PUSH2 0x30B2 JUMP JUMPDEST PUSH2 0x115D SWAP2 SWAP1 PUSH2 0x33E9 JUMP JUMPDEST PUSH2 0x1231 PUSH2 0x2726 JUMP JUMPDEST PUSH1 0x14 DUP1 SLOAD PUSH1 0xFF NOT AND SWAP2 ISZERO ISZERO SWAP2 SWAP1 SWAP2 OR SWAP1 SSTORE JUMP JUMPDEST PUSH1 0x0 DUP1 PUSH1 0xB PUSH1 0x0 SWAP1 SLOAD SWAP1 PUSH2 0x100 EXP SWAP1 DIV PUSH1 0x1 PUSH1 0x1 PUSH1 0xA0 SHL SUB AND PUSH1 0x1 PUSH1 0x1 PUSH1 0xA0 SHL SUB AND PUSH4 0xDBDFF2C1 PUSH1 0x40 MLOAD DUP2 PUSH4 0xFFFFFFFF AND PUSH1 0xE0 SHL DUP2 MSTORE PUSH1 0x4 ADD PUSH1 0x20 PUSH1 0x40 MLOAD DUP1 DUP4 SUB DUP2 PUSH1 0x0 DUP8 DUP1 EXTCODESIZE ISZERO DUP1 ISZERO PUSH2 0x1297 JUMPI PUSH1 0x0 DUP1 REVERT JUMPDEST POP GAS CALL ISZERO DUP1 ISZERO PUSH2 0x12AB JUMPI RETURNDATASIZE PUSH1 0x0 DUP1 RETURNDATACOPY RETURNDATASIZE PUSH1 0x0 REVERT JUMPDEST POP POP POP POP PUSH1 0x40 MLOAD RETURNDATASIZE PUSH1 0x1F NOT PUSH1 0x1F DUP3 ADD AND DUP3 ADD DUP1 PUSH1 0x40 MSTORE POP DUP2 ADD SWAP1 PUSH2 0x12CF SWAP2 SWAP1 PUSH2 0x30B2 JUMP JUMPDEST SWAP1 POP DUP3 DUP2 PUSH1 0x40 MLOAD PUSH1 0x20 ADD PUSH2 0x12E5 SWAP2 DUP2 MSTORE PUSH1 0x20 ADD SWAP1 JUMP JUMPDEST PUSH1 0x40 MLOAD PUSH1 0x20 DUP2 DUP4 SUB SUB DUP2 MSTORE SWAP1 PUSH1 0x40 MSTORE DUP1 MLOAD SWAP1 PUSH1 0x20 ADD KECCAK256 PUSH1 0x0 SHR PUSH2 0x1308 SWAP2 SWAP1 PUSH2 0x341B JUMP JUMPDEST SWAP4 SWAP3 POP POP POP JUMP JUMPDEST PUSH1 0x14 SLOAD PUSH1 0xFF AND ISZERO PUSH2 0x1332 JUMPI PUSH1 0x40 MLOAD PUSH3 0x461BCD PUSH1 0xE5 SHL DUP2 MSTORE PUSH1 0x4 ADD PUSH2 0xB29 SWAP1 PUSH2 0x3332 JUMP JUMPDEST CALLER PUSH1 0x0 SWAP1 DUP2 MSTORE PUSH1 0x19 PUSH1 0x20 SWAP1 DUP2 MSTORE PUSH1 0x40 DUP1 DUP4 KECCAK256 SLOAD PUSH1 0x1A DUP4 MSTORE DUP2 DUP5 KECCAK256 DUP2 DUP6 MSTORE SWAP1 SWAP3 MSTORE SWAP1 SWAP2 KECCAK256 PUSH1 0x7 DUP2 ADD SLOAD PUSH1 0xFF AND PUSH2 0x1379 JUMPI PUSH1 0x40 MLOAD PUSH3 0x461BCD PUSH1 0xE5 SHL DUP2 MSTORE PUSH1 0x4 ADD PUSH2 0xB29 SWAP1 PUSH2 0x32FB JUMP JUMPDEST PUSH1 0x4 DUP2 ADD SLOAD PUSH1 0x0 SWAP1 DUP2 SWAP1 DUP2 DUP1 JUMPDEST PUSH2 0x138E PUSH2 0x2BF3 JUMP JUMPDEST PUSH1 0x2 DUP9 ADD DUP1 SLOAD PUSH1 0x1 DUP2 DUP2 ADD DUP4 SSTORE PUSH1 0x0 SWAP3 DUP4 MSTORE PUSH1 0x20 DUP1 DUP5 KECCAK256 SWAP1 SWAP3 ADD DUP5 SWAP1 SSTORE PUSH1 0x3 DUP12 ADD DUP1 SLOAD SWAP2 DUP3 ADD DUP2 SSTORE DUP1 DUP5 MSTORE SWAP3 DUP3 SWAP1 KECCAK256 ADD DUP5 SWAP1 SSTORE DUP2 SLOAD PUSH1 0x40 DUP1 MLOAD DUP3 DUP5 MUL DUP2 ADD DUP5 ADD SWAP1 SWAP2 MSTORE DUP2 DUP2 MSTORE SWAP4 SWAP7 POP SWAP4 SWAP5 POP PUSH2 0x1418 SWAP4 SWAP1 DUP4 ADD DUP3 DUP3 DUP1 ISZERO PUSH2 0x140E JUMPI PUSH1 0x20 MUL DUP3 ADD SWAP2 SWAP1 PUSH1 0x0 MSTORE PUSH1 0x20 PUSH1 0x0 KECCAK256 SWAP1 JUMPDEST DUP2 SLOAD DUP2 MSTORE PUSH1 0x20 ADD SWAP1 PUSH1 0x1 ADD SWAP1 DUP1 DUP4 GT PUSH2 0x13FA JUMPI JUMPDEST POP POP POP POP POP PUSH2 0x16A0 JUMP JUMPDEST SWAP6 POP POP PUSH1 0x11 DUP6 LT DUP1 ISZERO PUSH2 0x142E JUMPI POP DUP6 PUSH1 0x5 ADD SLOAD DUP6 LT JUMPDEST PUSH2 0x1386 JUMPI PUSH1 0x15 DUP6 GT DUP1 PUSH2 0x1444 JUMPI POP DUP5 DUP7 PUSH1 0x5 ADD SLOAD GT JUMPDEST ISZERO PUSH2 0x1460 JUMPI PUSH1 0x1 SWAP4 POP PUSH2 0x145D DUP7 PUSH1 0x4 ADD SLOAD PUSH1 0x12 SLOAD PUSH2 0x2C6A JUMP JUMPDEST SWAP3 POP JUMPDEST PUSH1 0x5 DUP7 ADD SLOAD PUSH1 0x40 MLOAD PUSH32 0x4BCBDFA7453595C0B74372E71E39F68EC571585D404FC01D65BF50C191F6A8C SWAP2 PUSH2 0x14AF SWAP2 CALLER SWAP2 DUP11 SWAP2 PUSH1 0x1 DUP4 ADD SWAP2 PUSH1 0x2 DUP5 ADD SWAP2 PUSH1 0x3 DUP6 ADD SWAP2 DUP12 SWAP2 DUP15 SWAP1 PUSH1 0x0 SWAP1 DUP16 SWAP1 PUSH2 0x31EC JUMP JUMPDEST PUSH1 0x40 MLOAD DUP1 SWAP2 SUB SWAP1 LOG1 CALLER PUSH1 0x0 SWAP1 DUP2 MSTORE PUSH1 0x19 PUSH1 0x20 MSTORE PUSH1 0x40 DUP2 KECCAK256 DUP1 SLOAD PUSH1 0x1 SWAP3 SWAP1 PUSH2 0x14D7 SWAP1 DUP5 SWAP1 PUSH2 0x339E JUMP JUMPDEST SWAP1 SWAP2 SSTORE POP DUP5 SWAP1 POP PUSH2 0x14EF JUMPI PUSH2 0x14EF DUP7 PUSH1 0x4 ADD SLOAD PUSH2 0x1877 JUMP JUMPDEST POP POP POP POP POP POP POP JUMP JUMPDEST PUSH2 0x1500 PUSH2 0x2726 JUMP JUMPDEST PUSH2 0xB63 PUSH1 0x0 PUSH2 0x2D34 JUMP JUMPDEST PUSH1 0x0 DUP1 PUSH1 0x0 DUP1 PUSH1 0x0 PUSH2 0x151A PUSH2 0x2111 JUMP JUMPDEST PUSH1 0x7 SLOAD PUSH1 0x9 SLOAD PUSH2 0x1528 PUSH2 0x119F JUMP JUMPDEST PUSH1 0x3 SLOAD SWAP5 POP SWAP5 POP SWAP5 POP SWAP5 POP SWAP5 POP SWAP1 SWAP2 SWAP3 SWAP4 SWAP5 JUMP JUMPDEST CALLER PUSH1 0x0 SWAP1 DUP2 MSTORE PUSH1 0x13 PUSH1 0x20 MSTORE PUSH1 0x40 DUP2 KECCAK256 SLOAD PUSH1 0xFF AND PUSH2 0x156B JUMPI PUSH1 0x40 MLOAD PUSH3 0x461BCD PUSH1 0xE5 SHL DUP2 MSTORE PUSH1 0x4 ADD PUSH2 0xB29 SWAP1 PUSH2 0x335C JUMP JUMPDEST PUSH1 0x64 DUP4 PUSH1 0x64 PUSH1 0x9 SLOAD DUP8 PUSH2 0x157E SWAP2 SWAP1 PUSH2 0x33CA JUMP JUMPDEST PUSH2 0x1588 SWAP2 SWAP1 PUSH2 0x33B6 JUMP JUMPDEST PUSH2 0x1592 SWAP2 SWAP1 PUSH2 0x33CA JUMP JUMPDEST PUSH2 0x159C SWAP2 SWAP1 PUSH2 0x33B6 JUMP JUMPDEST PUSH1 0x1 SLOAD PUSH1 0x40 MLOAD PUSH4 0xA9059CBB PUSH1 0xE0 SHL DUP2 MSTORE PUSH1 0x1 PUSH1 0x1 PUSH1 0xA0 SHL SUB DUP6 DUP2 AND PUSH1 0x4 DUP4 ADD MSTORE PUSH1 0x24 DUP3 ADD DUP5 SWAP1 MSTORE SWAP3 SWAP4 POP SWAP2 AND SWAP1 PUSH4 0xA9059CBB SWAP1 PUSH1 0x44 ADD PUSH1 0x20 PUSH1 0x40 MLOAD DUP1 DUP4 SUB DUP2 PUSH1 0x0 DUP8 DUP1 EXTCODESIZE ISZERO DUP1 ISZERO PUSH2 0x15EC JUMPI PUSH1 0x0 DUP1 REVERT JUMPDEST POP GAS CALL ISZERO DUP1 ISZERO PUSH2 0x1600 JUMPI RETURNDATASIZE PUSH1 0x0 DUP1 RETURNDATACOPY RETURNDATASIZE PUSH1 0x0 REVERT JUMPDEST POP POP POP POP PUSH1 0x40 MLOAD RETURNDATASIZE PUSH1 0x1F NOT PUSH1 0x1F DUP3 ADD AND DUP3 ADD DUP1 PUSH1 0x40 MSTORE POP DUP2 ADD SWAP1 PUSH2 0x1624 SWAP2 SWAP1 PUSH2 0x307C JUMP JUMPDEST POP SWAP4 SWAP3 POP POP POP JUMP JUMPDEST PUSH1 0x14 SLOAD PUSH1 0x0 SWAP1 DUP2 SWAP1 DUP2 SWAP1 DUP2 SWAP1 DUP2 SWAP1 PUSH1 0xFF AND ISZERO PUSH2 0x165A JUMPI PUSH1 0x40 MLOAD PUSH3 0x461BCD PUSH1 0xE5 SHL DUP2 MSTORE PUSH1 0x4 ADD PUSH2 0xB29 SWAP1 PUSH2 0x3332 JUMP JUMPDEST PUSH2 0x1665 PUSH1 0x7 SLOAD PUSH2 0x1C37 JUMP JUMPDEST SWAP4 SWAP10 SWAP3 SWAP9 POP SWAP1 SWAP7 POP SWAP5 POP SWAP1 SWAP3 POP SWAP1 POP JUMP JUMPDEST PUSH2 0x167E PUSH2 0x2726 JUMP JUMPDEST PUSH1 0x1 DUP1 SLOAD PUSH1 0x1 PUSH1 0x1 PUSH1 0xA0 SHL SUB NOT AND PUSH1 0x1 PUSH1 0x1 PUSH1 0xA0 SHL SUB SWAP3 SWAP1 SWAP3 AND SWAP2 SWAP1 SWAP2 OR SWAP1 SSTORE JUMP JUMPDEST PUSH1 0x0 DUP1 DUP1 DUP1 JUMPDEST DUP5 MLOAD DUP2 LT ISZERO PUSH2 0x1799 JUMPI PUSH1 0x0 DUP1 DUP7 DUP4 DUP2 MLOAD DUP2 LT PUSH2 0x16C4 JUMPI PUSH2 0x16C4 PUSH2 0x345B JUMP JUMPDEST PUSH1 0x20 MUL PUSH1 0x20 ADD ADD MLOAD GT DUP1 ISZERO PUSH2 0x16F2 JUMPI POP PUSH1 0x9 DUP7 DUP4 DUP2 MLOAD DUP2 LT PUSH2 0x16E8 JUMPI PUSH2 0x16E8 PUSH2 0x345B JUMP JUMPDEST PUSH1 0x20 MUL PUSH1 0x20 ADD ADD MLOAD LT JUMPDEST ISZERO PUSH2 0x1720 JUMPI DUP6 DUP3 DUP2 MLOAD DUP2 LT PUSH2 0x1709 JUMPI PUSH2 0x1709 PUSH2 0x345B JUMP JUMPDEST PUSH1 0x20 MUL PUSH1 0x20 ADD ADD MLOAD PUSH1 0x1 PUSH2 0x171D SWAP2 SWAP1 PUSH2 0x339E JUMP JUMPDEST SWAP1 POP JUMPDEST PUSH1 0x9 DUP7 DUP4 DUP2 MLOAD DUP2 LT PUSH2 0x1734 JUMPI PUSH2 0x1734 PUSH2 0x345B JUMP JUMPDEST PUSH1 0x20 MUL PUSH1 0x20 ADD ADD MLOAD LT PUSH2 0x1745 JUMPI POP PUSH1 0xA JUMPDEST DUP6 DUP3 DUP2 MLOAD DUP2 LT PUSH2 0x1757 JUMPI PUSH2 0x1757 PUSH2 0x345B JUMP JUMPDEST PUSH1 0x20 MUL PUSH1 0x20 ADD ADD MLOAD PUSH1 0x0 EQ ISZERO PUSH2 0x1779 JUMPI PUSH2 0x1772 PUSH1 0x1 DUP5 PUSH2 0x339E JUMP JUMPDEST SWAP3 POP PUSH1 0x0 SWAP1 POP JUMPDEST PUSH2 0x1783 DUP2 DUP6 PUSH2 0x339E JUMP JUMPDEST SWAP4 POP POP DUP1 DUP1 PUSH2 0x1791 SWAP1 PUSH2 0x3400 JUMP JUMPDEST SWAP2 POP POP PUSH2 0x16A6 JUMP JUMPDEST POP DUP1 ISZERO PUSH2 0x180C JUMPI DUP2 PUSH1 0x0 JUMPDEST DUP3 DUP2 LT ISZERO PUSH2 0x17EC JUMPI PUSH1 0x0 PUSH1 0x15 PUSH2 0x17BB DUP5 PUSH1 0xB PUSH2 0x339E JUMP JUMPDEST GT PUSH2 0x17C8 JUMPI POP PUSH1 0xB PUSH2 0x17CC JUMP JUMPDEST POP PUSH1 0x1 JUMPDEST PUSH2 0x17D6 DUP2 DUP5 PUSH2 0x339E JUMP JUMPDEST SWAP3 POP POP DUP1 DUP1 PUSH2 0x17E4 SWAP1 PUSH2 0x3400 JUMP JUMPDEST SWAP2 POP POP PUSH2 0x17A4 JUMP JUMPDEST POP PUSH1 0x15 DUP2 GT PUSH2 0x17FD JUMPI DUP1 SWAP3 POP PUSH2 0x180A JUMP JUMPDEST PUSH2 0x1807 DUP3 DUP5 PUSH2 0x339E JUMP JUMPDEST SWAP3 POP JUMPDEST POP JUMPDEST PUSH1 0x15 DUP3 GT ISZERO PUSH2 0x181A JUMPI PUSH1 0x1 SWAP3 POP JUMPDEST POP SWAP2 POP SWAP2 JUMP JUMPDEST PUSH2 0x1828 PUSH2 0x2726 JUMP JUMPDEST PUSH1 0xC SWAP7 SWAP1 SWAP7 SSTORE PUSH1 0xD SWAP5 SWAP1 SWAP5 SSTORE PUSH1 0xE SWAP3 SWAP1 SWAP3 SSTORE PUSH1 0xF SSTORE PUSH1 0x10 SSTORE PUSH1 0x11 SSTORE PUSH1 0x12 SSTORE JUMP JUMPDEST CALLER PUSH1 0x0 SWAP1 DUP2 MSTORE PUSH1 0x13 PUSH1 0x20 MSTORE PUSH1 0x40 SWAP1 KECCAK256 SLOAD PUSH1 0xFF AND PUSH2 0x1877 JUMPI PUSH1 0x40 MLOAD PUSH3 0x461BCD PUSH1 0xE5 SHL DUP2 MSTORE PUSH1 0x4 ADD PUSH2 0xB29 SWAP1 PUSH2 0x335C JUMP JUMPDEST PUSH1 0x0 PUSH1 0x64 PUSH1 0x8 SLOAD DUP4 PUSH2 0x1889 SWAP2 SWAP1 PUSH2 0x33CA JUMP JUMPDEST PUSH2 0x1893 SWAP2 SWAP1 PUSH2 0x33B6 JUMP JUMPDEST SWAP1 POP DUP1 PUSH1 0x6 PUSH1 0x0 DUP3 DUP3 SLOAD PUSH2 0x18A7 SWAP2 SWAP1 PUSH2 0x339E JUMP JUMPDEST SWAP1 SWAP2 SSTORE POP POP PUSH1 0x5 SLOAD PUSH1 0x6 SLOAD LT PUSH2 0x18F6 JUMPI PUSH1 0x1 SLOAD PUSH1 0x2 SLOAD PUSH1 0x6 SLOAD PUSH1 0x40 MLOAD PUSH4 0xA9059CBB PUSH1 0xE0 SHL DUP2 MSTORE PUSH1 0x1 PUSH1 0x1 PUSH1 0xA0 SHL SUB SWAP3 DUP4 AND PUSH1 0x4 DUP3 ADD MSTORE PUSH1 0x24 DUP2 ADD SWAP2 SWAP1 SWAP2 MSTORE SWAP2 AND SWAP1 PUSH4 0xA9059CBB SWAP1 PUSH1 0x44 ADD PUSH2 0xD73 JUMP JUMPDEST POP POP JUMP JUMPDEST PUSH1 0x14 SLOAD PUSH1 0x0 SWAP1 DUP2 SWAP1 PUSH1 0xFF AND ISZERO PUSH2 0x1922 JUMPI PUSH1 0x40 MLOAD PUSH3 0x461BCD PUSH1 0xE5 SHL DUP2 MSTORE PUSH1 0x4 ADD PUSH2 0xB29 SWAP1 PUSH2 0x3332 JUMP JUMPDEST PUSH2 0x192F PUSH1 0x7 SLOAD PUSH1 0x0 PUSH2 0x2B03 JUMP JUMPDEST SWAP1 SWAP4 SWAP1 SWAP3 POP SWAP1 POP JUMP JUMPDEST PUSH2 0x1940 PUSH2 0x2726 JUMP JUMPDEST PUSH1 0x2 DUP1 SLOAD PUSH1 0x1 PUSH1 0x1 PUSH1 0xA0 SHL SUB NOT AND PUSH1 0x1 PUSH1 0x1 PUSH1 0xA0 SHL SUB SWAP3 SWAP1 SWAP3 AND SWAP2 SWAP1 SWAP2 OR SWAP1 SSTORE JUMP JUMPDEST PUSH1 0x14 SLOAD PUSH1 0x0 SWAP1 DUP2 SWAP1 DUP2 SWAP1 DUP2 SWAP1 PUSH1 0xFF AND ISZERO PUSH2 0x198E JUMPI PUSH1 0x40 MLOAD PUSH3 0x461BCD PUSH1 0xE5 SHL DUP2 MSTORE PUSH1 0x4 ADD PUSH2 0xB29 SWAP1 PUSH2 0x3332 JUMP JUMPDEST DUP5 PUSH1 0x6 EQ DUP1 PUSH2 0x199D JUMPI POP DUP5 PUSH1 0xC EQ JUMPDEST DUP1 PUSH2 0x19A8 JUMPI POP DUP5 PUSH1 0x14 EQ JUMPDEST PUSH2 0x19F4 JUMPI PUSH1 0x40 MLOAD PUSH3 0x461BCD PUSH1 0xE5 SHL DUP2 MSTORE PUSH1 0x20 PUSH1 0x4 DUP3 ADD MSTORE PUSH1 0x19 PUSH1 0x24 DUP3 ADD MSTORE PUSH32 0x6E6F74206120646963652073697A6520617661696C61626C6500000000000000 PUSH1 0x44 DUP3 ADD MSTORE PUSH1 0x64 ADD PUSH2 0xB29 JUMP JUMPDEST PUSH1 0x0 DUP7 GT DUP1 ISZERO PUSH2 0x1A04 JUMPI POP DUP5 DUP7 GT ISZERO JUMPDEST PUSH2 0x1A48 JUMPI PUSH1 0x40 MLOAD PUSH3 0x461BCD PUSH1 0xE5 SHL DUP2 MSTORE PUSH1 0x20 PUSH1 0x4 DUP3 ADD MSTORE PUSH1 0x15 PUSH1 0x24 DUP3 ADD MSTORE PUSH21 0x206D7573742062652077697468696E207370656373 PUSH1 0x58 SHL PUSH1 0x44 DUP3 ADD MSTORE PUSH1 0x64 ADD PUSH2 0xB29 JUMP JUMPDEST PUSH2 0x1A51 DUP8 PUSH2 0x2780 JUMP JUMPDEST PUSH1 0xE SLOAD PUSH1 0xC DUP7 EQ ISZERO PUSH2 0x1A62 JUMPI POP PUSH1 0xF SLOAD JUMPDEST DUP6 PUSH1 0x14 EQ ISZERO PUSH2 0x1A70 JUMPI POP PUSH1 0x10 SLOAD JUMPDEST DUP7 SWAP4 POP DUP6 SWAP3 POP PUSH1 0x0 SWAP2 POP PUSH2 0x1A83 DUP7 PUSH2 0x1244 JUMP JUMPDEST PUSH2 0x1A8E SWAP1 PUSH1 0x1 PUSH2 0x339E JUMP JUMPDEST SWAP5 POP DUP7 DUP6 EQ ISZERO PUSH2 0x1A9D JUMPI PUSH1 0x1 SWAP2 POP JUMPDEST PUSH1 0x0 DUP3 ISZERO PUSH2 0x1AB2 JUMPI PUSH2 0x1AAF DUP10 DUP4 PUSH2 0x2D84 JUMP JUMPDEST SWAP1 POP JUMPDEST DUP3 PUSH2 0x1AC3 JUMPI PUSH2 0x1AC0 DUP10 PUSH2 0x2DB7 JUMP JUMPDEST SWAP1 POP JUMPDEST PUSH1 0x40 DUP1 MLOAD CALLER DUP2 MSTORE PUSH1 0x20 DUP2 ADD DUP9 SWAP1 MSTORE SWAP1 DUP2 ADD DUP7 SWAP1 MSTORE PUSH1 0x60 DUP2 ADD DUP6 SWAP1 MSTORE DUP4 ISZERO ISZERO PUSH1 0x80 DUP3 ADD MSTORE PUSH1 0xA0 DUP2 ADD DUP3 SWAP1 MSTORE PUSH32 0x8A2B5309B1D1CCD8EBE92AB072B951111018932C2BC5C535808182BA7255A8A SWAP1 PUSH1 0xC0 ADD PUSH1 0x40 MLOAD DUP1 SWAP2 SUB SWAP1 LOG1 POP POP SWAP4 POP SWAP4 POP SWAP4 POP SWAP4 JUMP JUMPDEST PUSH2 0x1B2D PUSH2 0x2726 JUMP JUMPDEST PUSH1 0x1 SLOAD PUSH1 0x40 MLOAD PUSH4 0x70A08231 PUSH1 0xE0 SHL DUP2 MSTORE ADDRESS PUSH1 0x4 DUP3 ADD MSTORE PUSH1 0x0 SWAP2 PUSH1 0x1 PUSH1 0x1 PUSH1 0xA0 SHL SUB AND SWAP1 PUSH4 0x70A08231 SWAP1 PUSH1 0x24 ADD PUSH1 0x20 PUSH1 0x40 MLOAD DUP1 DUP4 SUB DUP2 DUP7 DUP1 EXTCODESIZE ISZERO DUP1 ISZERO PUSH2 0x1B71 JUMPI PUSH1 0x0 DUP1 REVERT JUMPDEST POP GAS STATICCALL ISZERO DUP1 ISZERO PUSH2 0x1B85 JUMPI RETURNDATASIZE PUSH1 0x0 DUP1 RETURNDATACOPY RETURNDATASIZE PUSH1 0x0 REVERT JUMPDEST POP POP POP POP PUSH1 0x40 MLOAD RETURNDATASIZE PUSH1 0x1F NOT PUSH1 0x1F DUP3 ADD AND DUP3 ADD DUP1 PUSH1 0x40 MSTORE POP DUP2 ADD SWAP1 PUSH2 0x1BA9 SWAP2 SWAP1 PUSH2 0x30B2 JUMP JUMPDEST PUSH1 0x1 SLOAD PUSH1 0x40 MLOAD PUSH4 0xA9059CBB PUSH1 0xE0 SHL DUP2 MSTORE CALLER PUSH1 0x4 DUP3 ADD MSTORE PUSH1 0x24 DUP2 ADD DUP4 SWAP1 MSTORE SWAP2 SWAP3 POP PUSH1 0x1 PUSH1 0x1 PUSH1 0xA0 SHL SUB AND SWAP1 PUSH4 0xA9059CBB SWAP1 PUSH1 0x44 ADD PUSH1 0x20 PUSH1 0x40 MLOAD DUP1 DUP4 SUB DUP2 PUSH1 0x0 DUP8 DUP1 EXTCODESIZE ISZERO DUP1 ISZERO PUSH2 0x1BF6 JUMPI PUSH1 0x0 DUP1 REVERT JUMPDEST POP GAS CALL ISZERO DUP1 ISZERO PUSH2 0x1C0A JUMPI RETURNDATASIZE PUSH1 0x0 DUP1 RETURNDATACOPY RETURNDATASIZE PUSH1 0x0 REVERT JUMPDEST POP POP POP POP PUSH1 0x40 MLOAD RETURNDATASIZE PUSH1 0x1F NOT PUSH1 0x1F DUP3 ADD AND DUP3 ADD DUP1 PUSH1 0x40 MSTORE POP DUP2 ADD SWAP1 PUSH2 0x1C2E SWAP2 SWAP1 PUSH2 0x307C JUMP JUMPDEST POP POP PUSH1 0x0 PUSH1 0x6 SSTORE JUMP JUMPDEST PUSH1 0x14 SLOAD PUSH1 0x0 SWAP1 DUP2 SWAP1 DUP2 SWAP1 DUP2 SWAP1 DUP2 SWAP1 PUSH1 0xFF AND ISZERO PUSH2 0x1C65 JUMPI PUSH1 0x40 MLOAD PUSH3 0x461BCD PUSH1 0xE5 SHL DUP2 MSTORE PUSH1 0x4 ADD PUSH2 0xB29 SWAP1 PUSH2 0x3332 JUMP JUMPDEST PUSH2 0x1C6E DUP7 PUSH2 0x2780 JUMP JUMPDEST PUSH2 0x1C76 PUSH2 0x2E58 JUMP JUMPDEST SWAP1 SWAP4 POP SWAP2 POP PUSH2 0x1C83 PUSH2 0x2E58 JUMP JUMPDEST SWAP1 SWAP6 POP SWAP4 POP DUP5 DUP4 GT ISZERO PUSH2 0x1C94 JUMPI POP PUSH1 0x0 JUMPDEST DUP5 DUP4 LT ISZERO PUSH2 0x1CA0 JUMPI POP PUSH1 0x1 JUMPDEST DUP5 DUP4 EQ ISZERO PUSH2 0x1CAC JUMPI POP PUSH1 0x2 JUMPDEST PUSH1 0x0 DUP2 PUSH2 0x1CC2 JUMPI PUSH2 0x1CBF DUP8 PUSH1 0xD SLOAD PUSH2 0x2D84 JUMP JUMPDEST SWAP1 POP JUMPDEST DUP2 PUSH1 0x1 EQ ISZERO PUSH2 0x1CD7 JUMPI PUSH2 0x1CD4 DUP8 PUSH2 0x2DB7 JUMP JUMPDEST SWAP1 POP JUMPDEST PUSH1 0x40 DUP1 MLOAD CALLER DUP2 MSTORE PUSH1 0x20 DUP2 ADD DUP9 SWAP1 MSTORE SWAP1 DUP2 ADD DUP7 SWAP1 MSTORE PUSH1 0x60 DUP2 ADD DUP6 SWAP1 MSTORE PUSH1 0x80 DUP2 ADD DUP5 SWAP1 MSTORE PUSH1 0xA0 DUP2 ADD DUP4 SWAP1 MSTORE PUSH1 0xC0 DUP2 ADD DUP3 SWAP1 MSTORE PUSH32 0xD11A8C761BE4EE6EA7436F4334F6EDC0102E2655078C150D7B799DB9EFDE994B SWAP1 PUSH1 0xE0 ADD PUSH1 0x40 MLOAD DUP1 SWAP2 SUB SWAP1 LOG1 CALLER PUSH1 0x0 SWAP1 DUP2 MSTORE PUSH1 0x15 PUSH1 0x20 MSTORE PUSH1 0x40 DUP2 KECCAK256 DUP1 SLOAD PUSH1 0x1 SWAP3 SWAP1 PUSH2 0x1D54 SWAP1 DUP5 SWAP1 PUSH2 0x339E JUMP JUMPDEST SWAP3 POP POP DUP2 SWAP1 SSTORE POP POP SWAP2 SWAP4 SWAP6 SWAP1 SWAP3 SWAP5 POP JUMP JUMPDEST PUSH2 0x1D6D PUSH2 0x2726 JUMP JUMPDEST PUSH1 0x32 DUP2 LT ISZERO DUP1 ISZERO PUSH2 0x1D7F JUMPI POP PUSH1 0xC8 DUP2 GT ISZERO JUMPDEST PUSH2 0x1DCB JUMPI PUSH1 0x40 MLOAD PUSH3 0x461BCD PUSH1 0xE5 SHL DUP2 MSTORE PUSH1 0x20 PUSH1 0x4 DUP3 ADD MSTORE PUSH1 0x1C PUSH1 0x24 DUP3 ADD MSTORE PUSH32 0x6D757374206265206265747765656E20353020616E6420323030202500000000 PUSH1 0x44 DUP3 ADD MSTORE PUSH1 0x64 ADD PUSH2 0xB29 JUMP JUMPDEST PUSH1 0x9 SSTORE JUMP JUMPDEST PUSH1 0x14 SLOAD PUSH1 0xFF AND ISZERO PUSH2 0x1DF3 JUMPI PUSH1 0x40 MLOAD PUSH3 0x461BCD PUSH1 0xE5 SHL DUP2 MSTORE PUSH1 0x4 ADD PUSH2 0xB29 SWAP1 PUSH2 0x3332 JUMP JUMPDEST CALLER PUSH1 0x0 SWAP1 DUP2 MSTORE PUSH1 0x19 PUSH1 0x20 SWAP1 DUP2 MSTORE PUSH1 0x40 DUP1 DUP4 KECCAK256 SLOAD PUSH1 0x1A DUP4 MSTORE DUP2 DUP5 KECCAK256 DUP2 DUP6 MSTORE SWAP1 SWAP3 MSTORE SWAP1 SWAP2 KECCAK256 PUSH1 0x7 DUP2 ADD SLOAD PUSH1 0xFF AND ISZERO PUSH2 0x1E63 JUMPI PUSH1 0x40 MLOAD PUSH3 0x461BCD PUSH1 0xE5 SHL DUP2 MSTORE PUSH1 0x20 PUSH1 0x4 DUP3 ADD MSTORE PUSH1 0x15 PUSH1 0x24 DUP3 ADD MSTORE PUSH21 0x4D7573742066696E697368206C6173742047616D65 PUSH1 0x58 SHL PUSH1 0x44 DUP3 ADD MSTORE PUSH1 0x64 ADD PUSH2 0xB29 JUMP JUMPDEST PUSH2 0x1E70 DUP2 PUSH1 0x4 ADD SLOAD PUSH2 0x2780 JUMP JUMPDEST PUSH1 0x4 DUP2 DUP2 ADD DUP5 SWAP1 SSTORE PUSH1 0x7 DUP3 ADD DUP1 SLOAD PUSH1 0xFF NOT AND PUSH1 0x1 SWAP1 DUP2 OR SWAP1 SWAP2 SSTORE SLOAD PUSH1 0x40 MLOAD PUSH4 0x23B872DD PUSH1 0xE0 SHL DUP2 MSTORE CALLER SWAP3 DUP2 ADD SWAP3 SWAP1 SWAP3 MSTORE ADDRESS PUSH1 0x24 DUP4 ADD MSTORE PUSH1 0x44 DUP3 ADD DUP6 SWAP1 MSTORE PUSH1 0x1 PUSH1 0x1 PUSH1 0xA0 SHL SUB AND SWAP1 PUSH4 0x23B872DD SWAP1 PUSH1 0x64 ADD PUSH1 0x20 PUSH1 0x40 MLOAD DUP1 DUP4 SUB DUP2 PUSH1 0x0 DUP8 DUP1 EXTCODESIZE ISZERO DUP1 ISZERO PUSH2 0x1EDA JUMPI PUSH1 0x0 DUP1 REVERT JUMPDEST POP GAS CALL ISZERO DUP1 ISZERO PUSH2 0x1EEE JUMPI RETURNDATASIZE PUSH1 0x0 DUP1 RETURNDATACOPY RETURNDATASIZE PUSH1 0x0 REVERT JUMPDEST POP POP POP POP PUSH1 0x40 MLOAD RETURNDATASIZE PUSH1 0x1F NOT PUSH1 0x1F DUP3 ADD AND DUP3 ADD DUP1 PUSH1 0x40 MSTORE POP DUP2 ADD SWAP1 PUSH2 0x1F12 SWAP2 SWAP1 PUSH2 0x307C JUMP JUMPDEST POP PUSH1 0x0 DUP1 PUSH1 0x0 JUMPDEST PUSH1 0x2 DUP2 LT ISZERO PUSH2 0x1F6D JUMPI PUSH2 0x1F2A PUSH2 0x2BF3 JUMP JUMPDEST DUP6 SLOAD PUSH1 0x1 DUP2 DUP2 ADD DUP9 SSTORE PUSH1 0x0 DUP9 DUP2 MSTORE PUSH1 0x20 DUP1 DUP3 KECCAK256 SWAP1 SWAP4 ADD DUP5 SWAP1 SSTORE DUP2 DUP10 ADD DUP1 SLOAD SWAP3 DUP4 ADD DUP2 SSTORE DUP2 MSTORE SWAP2 SWAP1 SWAP2 KECCAK256 ADD DUP3 SWAP1 SSTORE SWAP4 POP SWAP2 POP DUP1 PUSH2 0x1F65 DUP2 PUSH2 0x3400 JUMP JUMPDEST SWAP2 POP POP PUSH2 0x1F19 JUMP JUMPDEST POP PUSH1 0x0 DUP1 PUSH2 0x1FCA DUP6 PUSH1 0x1 ADD DUP1 SLOAD DUP1 PUSH1 0x20 MUL PUSH1 0x20 ADD PUSH1 0x40 MLOAD SWAP1 DUP2 ADD PUSH1 0x40 MSTORE DUP1 SWAP3 SWAP2 SWAP1 DUP2 DUP2 MSTORE PUSH1 0x20 ADD DUP3 DUP1 SLOAD DUP1 ISZERO PUSH2 0x140E JUMPI PUSH1 0x20 MUL DUP3 ADD SWAP2 SWAP1 PUSH1 0x0 MSTORE PUSH1 0x20 PUSH1 0x0 KECCAK256 SWAP1 DUP2 SLOAD DUP2 MSTORE PUSH1 0x20 ADD SWAP1 PUSH1 0x1 ADD SWAP1 DUP1 DUP4 GT PUSH2 0x13FA JUMPI POP POP POP POP POP PUSH2 0x16A0 JUMP JUMPDEST PUSH1 0x5 DUP8 ADD DUP2 SWAP1 SSTORE SWAP1 SWAP3 POP SWAP1 POP PUSH2 0x1FDE PUSH2 0x2BF3 JUMP JUMPDEST PUSH1 0x2 DUP8 ADD DUP1 SLOAD PUSH1 0x1 DUP2 DUP2 ADD DUP4 SSTORE PUSH1 0x0 SWAP3 DUP4 MSTORE PUSH1 0x20 DUP1 DUP5 KECCAK256 SWAP1 SWAP3 ADD DUP5 SWAP1 SSTORE PUSH1 0x3 DUP11 ADD DUP1 SLOAD SWAP2 DUP3 ADD DUP2 SSTORE DUP1 DUP5 MSTORE DUP3 DUP5 KECCAK256 SWAP1 SWAP2 ADD DUP6 SWAP1 SSTORE DUP1 SLOAD PUSH1 0x40 DUP1 MLOAD DUP3 DUP6 MUL DUP2 ADD DUP6 ADD SWAP1 SWAP2 MSTORE DUP2 DUP2 MSTORE SWAP5 SWAP10 POP SWAP5 SWAP8 POP SWAP2 SWAP4 PUSH2 0x206A SWAP4 SWAP3 SWAP2 DUP4 ADD DUP3 DUP3 DUP1 ISZERO PUSH2 0x140E JUMPI PUSH1 0x20 MUL DUP3 ADD SWAP2 SWAP1 PUSH1 0x0 MSTORE PUSH1 0x20 PUSH1 0x0 KECCAK256 SWAP1 DUP2 SLOAD DUP2 MSTORE PUSH1 0x20 ADD SWAP1 PUSH1 0x1 ADD SWAP1 DUP1 DUP4 GT PUSH2 0x13FA JUMPI POP POP POP POP POP PUSH2 0x16A0 JUMP JUMPDEST SWAP2 POP POP DUP1 DUP7 PUSH1 0x6 ADD DUP2 SWAP1 SSTORE POP PUSH32 0x4BCBDFA7453595C0B74372E71E39F68EC571585D404FC01D65BF50C191F6A8C CALLER DUP8 PUSH1 0x0 ADD DUP9 PUSH1 0x1 ADD DUP10 PUSH1 0x2 ADD DUP11 PUSH1 0x3 ADD DUP14 DUP13 PUSH1 0x5 ADD SLOAD DUP14 PUSH1 0x6 ADD SLOAD DUP12 PUSH1 0x0 PUSH1 0x40 MLOAD PUSH2 0x20CC SWAP11 SWAP10 SWAP9 SWAP8 SWAP7 SWAP6 SWAP5 SWAP4 SWAP3 SWAP2 SWAP1 PUSH2 0x31EC JUMP JUMPDEST PUSH1 0x40 MLOAD DUP1 SWAP2 SUB SWAP1 LOG1 POP POP POP POP POP POP POP POP JUMP JUMPDEST PUSH1 0x14 SLOAD PUSH1 0x0 SWAP1 DUP2 SWAP1 PUSH1 0xFF AND ISZERO PUSH2 0x2106 JUMPI PUSH1 0x40 MLOAD PUSH3 0x461BCD PUSH1 0xE5 SHL DUP2 MSTORE PUSH1 0x4 ADD PUSH2 0xB29 SWAP1 PUSH2 0x3332 JUMP JUMPDEST PUSH2 0x1195 DUP4 PUSH1 0x0 PUSH2 0x2B03 JUMP JUMPDEST PUSH1 0x0 PUSH1 0xA SLOAD PUSH1 0x6 SLOAD PUSH2 0x2121 PUSH2 0x119F JUMP JUMPDEST PUSH2 0x212B SWAP2 SWAP1 PUSH2 0x33E9 JUMP JUMPDEST PUSH2 0x115D SWAP2 SWAP1 PUSH2 0x33B6 JUMP JUMPDEST PUSH1 0x14 SLOAD PUSH1 0x0 SWAP1 PUSH1 0xFF AND ISZERO PUSH2 0x215B JUMPI PUSH1 0x40 MLOAD PUSH3 0x461BCD PUSH1 0xE5 SHL DUP2 MSTORE PUSH1 0x4 ADD PUSH2 0xB29 SWAP1 PUSH2 0x3332 JUMP JUMPDEST CALLER PUSH1 0x0 SWAP1 DUP2 MSTORE PUSH1 0x17 PUSH1 0x20 SWAP1 DUP2 MSTORE PUSH1 0x40 DUP1 DUP4 KECCAK256 SLOAD PUSH1 0x18 DUP4 MSTORE DUP2 DUP5 KECCAK256 DUP2 DUP6 MSTORE SWAP1 SWAP3 MSTORE SWAP1 SWAP2 KECCAK256 PUSH1 0x5 DUP2 ADD SLOAD PUSH1 0xFF AND PUSH2 0x21C2 JUMPI PUSH1 0x40 MLOAD PUSH3 0x461BCD PUSH1 0xE5 SHL DUP2 MSTORE PUSH1 0x20 PUSH1 0x4 DUP3 ADD MSTORE PUSH1 0xD PUSH1 0x24 DUP3 ADD MSTORE PUSH13 0x6E6F7420696E20612067616D65 PUSH1 0x98 SHL PUSH1 0x44 DUP3 ADD MSTORE PUSH1 0x64 ADD PUSH2 0xB29 JUMP JUMPDEST PUSH2 0x21D4 DUP2 PUSH1 0x2 ADD SLOAD DUP3 PUSH1 0x3 ADD SLOAD PUSH2 0x2C6A JUMP JUMPDEST PUSH1 0x40 DUP1 MLOAD CALLER DUP2 MSTORE PUSH1 0x20 DUP2 ADD DUP4 SWAP1 MSTORE SWAP2 SWAP5 POP PUSH32 0x293B0EBFC4F0E3517E5481605C5B7BD3194453B3F323BC1322B6D4E9BA326EC3 SWAP2 ADD PUSH1 0x40 MLOAD DUP1 SWAP2 SUB SWAP1 LOG1 CALLER PUSH1 0x0 SWAP1 DUP2 MSTORE PUSH1 0x17 PUSH1 0x20 MSTORE PUSH1 0x40 DUP2 KECCAK256 DUP1 SLOAD PUSH1 0x1 SWAP3 SWAP1 PUSH2 0x2230 SWAP1 DUP5 SWAP1 PUSH2 0x339E JUMP JUMPDEST SWAP3 POP POP DUP2 SWAP1 SSTORE POP POP POP SWAP1 JUMP JUMPDEST PUSH2 0x2244 PUSH2 0x2726 JUMP JUMPDEST PUSH1 0x1 PUSH1 0x1 PUSH1 0xA0 SHL SUB DUP2 AND PUSH2 0x22A9 JUMPI PUSH1 0x40 MLOAD PUSH3 0x461BCD PUSH1 0xE5 SHL DUP2 MSTORE PUSH1 0x20 PUSH1 0x4 DUP3 ADD MSTORE PUSH1 0x26 PUSH1 0x24 DUP3 ADD MSTORE PUSH32 0x4F776E61626C653A206E6577206F776E657220697320746865207A65726F2061 PUSH1 0x44 DUP3 ADD MSTORE PUSH6 0x646472657373 PUSH1 0xD0 SHL PUSH1 0x64 DUP3 ADD MSTORE PUSH1 0x84 ADD PUSH2 0xB29 JUMP JUMPDEST PUSH2 0x22B2 DUP2 PUSH2 0x2D34 JUMP JUMPDEST POP JUMP JUMPDEST PUSH2 0x22BD PUSH2 0x2726 JUMP JUMPDEST PUSH1 0x7 SSTORE JUMP JUMPDEST PUSH2 0x22CA PUSH2 0x2726 JUMP JUMPDEST PUSH1 0x1 PUSH1 0x1 PUSH1 0xA0 SHL SUB SWAP2 SWAP1 SWAP2 AND PUSH1 0x0 SWAP1 DUP2 MSTORE PUSH1 0x13 PUSH1 0x20 MSTORE PUSH1 0x40 SWAP1 KECCAK256 DUP1 SLOAD PUSH1 0xFF NOT AND SWAP2 ISZERO ISZERO SWAP2 SWAP1 SWAP2 OR SWAP1 SSTORE JUMP JUMPDEST PUSH1 0x14 SLOAD PUSH1 0x0 SWAP1 DUP2 SWAP1 PUSH1 0xFF AND ISZERO PUSH2 0x231D JUMPI PUSH1 0x40 MLOAD PUSH3 0x461BCD PUSH1 0xE5 SHL DUP2 MSTORE PUSH1 0x4 ADD PUSH2 0xB29 SWAP1 PUSH2 0x3332 JUMP JUMPDEST PUSH2 0x192F PUSH1 0x7 SLOAD PUSH1 0x1 PUSH2 0x2B03 JUMP JUMPDEST PUSH1 0x14 SLOAD PUSH1 0xFF AND ISZERO PUSH2 0x234D JUMPI PUSH1 0x40 MLOAD PUSH3 0x461BCD PUSH1 0xE5 SHL DUP2 MSTORE PUSH1 0x4 ADD PUSH2 0xB29 SWAP1 PUSH2 0x3332 JUMP JUMPDEST CALLER PUSH1 0x0 SWAP1 DUP2 MSTORE PUSH1 0x19 PUSH1 0x20 SWAP1 DUP2 MSTORE PUSH1 0x40 DUP1 DUP4 KECCAK256 SLOAD PUSH1 0x1A DUP4 MSTORE DUP2 DUP5 KECCAK256 DUP2 DUP6 MSTORE SWAP1 SWAP3 MSTORE SWAP1 SWAP2 KECCAK256 PUSH1 0x7 DUP2 ADD SLOAD PUSH1 0xFF AND PUSH2 0x2394 JUMPI PUSH1 0x40 MLOAD PUSH3 0x461BCD PUSH1 0xE5 SHL DUP2 MSTORE PUSH1 0x4 ADD PUSH2 0xB29 SWAP1 PUSH2 0x32FB JUMP JUMPDEST PUSH1 0x0 DUP1 PUSH2 0x239F PUSH2 0x2BF3 JUMP JUMPDEST DUP5 SLOAD PUSH1 0x1 DUP2 DUP2 ADD DUP8 SSTORE PUSH1 0x0 DUP8 DUP2 MSTORE PUSH1 0x20 DUP1 DUP3 KECCAK256 SWAP1 SWAP4 ADD DUP5 SWAP1 SSTORE DUP2 DUP9 ADD DUP1 SLOAD SWAP3 DUP4 ADD DUP2 SSTORE DUP1 DUP3 MSTORE DUP4 DUP3 KECCAK256 SWAP1 SWAP3 ADD DUP6 SWAP1 SSTORE DUP2 SLOAD PUSH1 0x40 DUP1 MLOAD DUP3 DUP7 MUL DUP2 ADD DUP7 ADD SWAP1 SWAP2 MSTORE DUP2 DUP2 MSTORE SWAP5 SWAP8 POP SWAP5 SWAP6 POP SWAP4 DUP5 SWAP4 PUSH2 0x2429 SWAP4 SWAP1 SWAP3 SWAP2 SWAP1 DUP4 ADD DUP3 DUP3 DUP1 ISZERO PUSH2 0x140E JUMPI PUSH1 0x20 MUL DUP3 ADD SWAP2 SWAP1 PUSH1 0x0 MSTORE PUSH1 0x20 PUSH1 0x0 KECCAK256 SWAP1 DUP2 SLOAD DUP2 MSTORE PUSH1 0x20 ADD SWAP1 PUSH1 0x1 ADD SWAP1 DUP1 DUP4 GT PUSH2 0x13FA JUMPI POP POP POP POP POP PUSH2 0x16A0 JUMP JUMPDEST PUSH1 0x5 DUP8 ADD DUP2 SWAP1 SSTORE PUSH1 0x4 DUP8 ADD SLOAD PUSH1 0x6 DUP9 ADD SLOAD PUSH1 0x40 MLOAD SWAP4 SWAP6 POP SWAP2 SWAP4 POP PUSH32 0x4BCBDFA7453595C0B74372E71E39F68EC571585D404FC01D65BF50C191F6A8C SWAP3 PUSH2 0x248A SWAP3 CALLER SWAP3 DUP11 SWAP3 PUSH1 0x1 DUP5 ADD SWAP3 PUSH1 0x2 DUP6 ADD SWAP3 PUSH1 0x3 DUP7 ADD SWAP3 SWAP1 SWAP2 DUP11 SWAP2 DUP13 SWAP1 PUSH1 0x0 SWAP1 PUSH2 0x31EC JUMP JUMPDEST PUSH1 0x40 MLOAD DUP1 SWAP2 SUB SWAP1 LOG1 DUP2 ISZERO PUSH2 0x24CB JUMPI CALLER PUSH1 0x0 SWAP1 DUP2 MSTORE PUSH1 0x19 PUSH1 0x20 MSTORE PUSH1 0x40 DUP2 KECCAK256 DUP1 SLOAD PUSH1 0x1 SWAP3 SWAP1 PUSH2 0x24B8 SWAP1 DUP5 SWAP1 PUSH2 0x339E JUMP JUMPDEST SWAP1 SWAP2 SSTORE POP POP PUSH1 0x4 DUP6 ADD SLOAD PUSH2 0x24CB SWAP1 PUSH2 0x1877 JUMP JUMPDEST POP POP POP POP POP POP JUMP JUMPDEST PUSH1 0x0 DUP1 PUSH1 0x0 DUP1 PUSH1 0x0 DUP1 PUSH1 0x0 DUP1 PUSH1 0x14 PUSH1 0x0 SWAP1 SLOAD SWAP1 PUSH2 0x100 EXP SWAP1 DIV PUSH1 0xFF AND ISZERO PUSH2 0x250C JUMPI PUSH1 0x40 MLOAD PUSH3 0x461BCD PUSH1 0xE5 SHL DUP2 MSTORE PUSH1 0x4 ADD PUSH2 0xB29 SWAP1 PUSH2 0x3332 JUMP JUMPDEST CALLER PUSH1 0x0 SWAP1 DUP2 MSTORE PUSH1 0x17 PUSH1 0x20 SWAP1 DUP2 MSTORE PUSH1 0x40 DUP1 DUP4 KECCAK256 SLOAD PUSH1 0x18 DUP4 MSTORE DUP2 DUP5 KECCAK256 DUP2 DUP6 MSTORE SWAP1 SWAP3 MSTORE SWAP1 SWAP2 KECCAK256 PUSH1 0x5 DUP2 ADD SLOAD PUSH1 0xFF AND PUSH2 0x2553 JUMPI PUSH1 0x40 MLOAD PUSH3 0x461BCD PUSH1 0xE5 SHL DUP2 MSTORE PUSH1 0x4 ADD PUSH2 0xB29 SWAP1 PUSH2 0x32FB JUMP JUMPDEST DUP1 SLOAD PUSH1 0x1 DUP3 ADD SLOAD SWAP1 SWAP10 POP SWAP8 POP PUSH2 0x2567 PUSH2 0x2A74 JUMP JUMPDEST DUP3 SSTORE PUSH1 0x1 DUP3 ADD DUP2 SWAP1 SSTORE DUP9 LT ISZERO PUSH2 0x257C JUMPI PUSH1 0x1 SWAP10 POP JUMPDEST DUP10 ISZERO ISZERO DUP12 ISZERO ISZERO EQ ISZERO PUSH2 0x25F1 JUMPI PUSH1 0x11 SLOAD DUP2 PUSH1 0x3 ADD SLOAD PUSH2 0x259A SWAP2 SWAP1 PUSH2 0x339E JUMP JUMPDEST PUSH1 0x3 DUP3 ADD DUP2 SWAP1 SSTORE PUSH1 0x2 DUP3 ADD SLOAD SWAP1 PUSH1 0x64 SWAP1 PUSH2 0x25B4 SWAP1 DUP4 PUSH2 0x33CA JUMP JUMPDEST PUSH2 0x25BE SWAP2 SWAP1 PUSH2 0x33B6 JUMP JUMPDEST PUSH2 0x25C8 SWAP2 SWAP1 PUSH2 0x339E JUMP JUMPDEST PUSH1 0x4 DUP3 ADD DUP2 SWAP1 SSTORE PUSH1 0x3 DUP3 ADD SLOAD PUSH1 0x1 SWAP7 POP SWAP1 SWAP4 POP PUSH2 0x12C GT PUSH2 0x25F1 JUMPI PUSH1 0x1 SWAP4 POP PUSH2 0x25EF PUSH2 0x2135 JUMP JUMPDEST POP JUMPDEST DUP1 SLOAD PUSH1 0x1 DUP3 ADD SLOAD PUSH1 0x2 DUP4 ADD SLOAD PUSH1 0x40 DUP1 MLOAD CALLER DUP2 MSTORE PUSH1 0x20 DUP2 ADD DUP15 SWAP1 MSTORE DUP1 DUP3 ADD DUP14 SWAP1 MSTORE PUSH1 0x60 DUP2 ADD SWAP5 SWAP1 SWAP5 MSTORE PUSH1 0x80 DUP5 ADD SWAP3 SWAP1 SWAP3 MSTORE DUP8 ISZERO ISZERO PUSH1 0xA0 DUP5 ADD MSTORE PUSH1 0xC0 DUP4 ADD DUP7 SWAP1 MSTORE DUP7 ISZERO ISZERO PUSH1 0xE0 DUP5 ADD MSTORE PUSH2 0x100 DUP4 ADD MSTORE MLOAD PUSH32 0x30D0B6D78E1E426A1ACFEB2484586C636EB5C8AF529F4733D844D5E7A86A065B SWAP2 DUP2 SWAP1 SUB PUSH2 0x120 ADD SWAP1 LOG1 DUP5 PUSH2 0x26A2 JUMPI CALLER PUSH1 0x0 SWAP1 DUP2 MSTORE PUSH1 0x17 PUSH1 0x20 MSTORE PUSH1 0x40 DUP2 KECCAK256 DUP1 SLOAD PUSH1 0x1 SWAP3 SWAP1 PUSH2 0x268F SWAP1 DUP5 SWAP1 PUSH2 0x339E JUMP JUMPDEST SWAP1 SWAP2 SSTORE POP POP PUSH1 0x2 DUP2 ADD SLOAD PUSH2 0x26A2 SWAP1 PUSH2 0x1877 JUMP JUMPDEST DUP1 SLOAD PUSH1 0x1 SWAP1 SWAP2 ADD SLOAD SWAP1 SWAP7 POP SWAP5 POP POP SWAP2 SWAP4 SWAP6 SWAP8 POP SWAP2 SWAP4 SWAP6 SWAP8 JUMP JUMPDEST CALLER PUSH1 0x0 SWAP1 DUP2 MSTORE PUSH1 0x13 PUSH1 0x20 MSTORE PUSH1 0x40 DUP2 KECCAK256 SLOAD PUSH1 0xFF AND PUSH2 0x26EA JUMPI PUSH1 0x40 MLOAD PUSH3 0x461BCD PUSH1 0xE5 SHL DUP2 MSTORE PUSH1 0x4 ADD PUSH2 0xB29 SWAP1 PUSH2 0x335C JUMP JUMPDEST DUP4 PUSH1 0x64 DUP5 PUSH1 0x64 PUSH1 0x9 SLOAD DUP9 PUSH2 0x26FE SWAP2 SWAP1 PUSH2 0x33CA JUMP JUMPDEST PUSH2 0x2708 SWAP2 SWAP1 PUSH2 0x33B6 JUMP JUMPDEST PUSH2 0x2712 SWAP2 SWAP1 PUSH2 0x33CA JUMP JUMPDEST PUSH2 0x271C SWAP2 SWAP1 PUSH2 0x33B6 JUMP JUMPDEST PUSH2 0x159C SWAP2 SWAP1 PUSH2 0x339E JUMP JUMPDEST PUSH1 0x0 SLOAD PUSH1 0x1 PUSH1 0x1 PUSH1 0xA0 SHL SUB AND CALLER EQ PUSH2 0xB63 JUMPI PUSH1 0x40 MLOAD PUSH3 0x461BCD PUSH1 0xE5 SHL DUP2 MSTORE PUSH1 0x20 PUSH1 0x4 DUP3 ADD DUP2 SWAP1 MSTORE PUSH1 0x24 DUP3 ADD MSTORE PUSH32 0x4F776E61626C653A2063616C6C6572206973206E6F7420746865206F776E6572 PUSH1 0x44 DUP3 ADD MSTORE PUSH1 0x64 ADD PUSH2 0xB29 JUMP JUMPDEST PUSH1 0x0 PUSH1 0x4 PUSH1 0x0 SWAP1 SLOAD SWAP1 PUSH2 0x100 EXP SWAP1 DIV PUSH1 0x1 PUSH1 0x1 PUSH1 0xA0 SHL SUB AND PUSH1 0x1 PUSH1 0x1 PUSH1 0xA0 SHL SUB AND PUSH4 0x61D027B3 PUSH1 0x40 MLOAD DUP2 PUSH4 0xFFFFFFFF AND PUSH1 0xE0 SHL DUP2 MSTORE PUSH1 0x4 ADD PUSH1 0x20 PUSH1 0x40 MLOAD DUP1 DUP4 SUB DUP2 DUP7 DUP1 EXTCODESIZE ISZERO DUP1 ISZERO PUSH2 0x27D0 JUMPI PUSH1 0x0 DUP1 REVERT JUMPDEST POP GAS STATICCALL ISZERO DUP1 ISZERO PUSH2 0x27E4 JUMPI RETURNDATASIZE PUSH1 0x0 DUP1 RETURNDATACOPY RETURNDATASIZE PUSH1 0x0 REVERT JUMPDEST POP POP POP POP PUSH1 0x40 MLOAD RETURNDATASIZE PUSH1 0x1F NOT PUSH1 0x1F DUP3 ADD AND DUP3 ADD DUP1 PUSH1 0x40 MSTORE POP DUP2 ADD SWAP1 PUSH2 0x2808 SWAP2 SWAP1 PUSH2 0x2F18 JUMP JUMPDEST SWAP1 POP PUSH2 0x2812 PUSH2 0x2111 JUMP JUMPDEST DUP3 GT ISZERO PUSH2 0x2861 JUMPI PUSH1 0x40 MLOAD PUSH3 0x461BCD PUSH1 0xE5 SHL DUP2 MSTORE PUSH1 0x20 PUSH1 0x4 DUP3 ADD MSTORE PUSH1 0x1B PUSH1 0x24 DUP3 ADD MSTORE PUSH32 0x796F7572206265742069732061626F766520746865206C696D69740000000000 PUSH1 0x44 DUP3 ADD MSTORE PUSH1 0x64 ADD PUSH2 0xB29 JUMP JUMPDEST PUSH1 0x1 SLOAD PUSH1 0x40 MLOAD PUSH4 0x70A08231 PUSH1 0xE0 SHL DUP2 MSTORE CALLER PUSH1 0x4 DUP3 ADD MSTORE DUP4 SWAP2 PUSH1 0x1 PUSH1 0x1 PUSH1 0xA0 SHL SUB AND SWAP1 PUSH4 0x70A08231 SWAP1 PUSH1 0x24 ADD PUSH1 0x20 PUSH1 0x40 MLOAD DUP1 DUP4 SUB DUP2 DUP7 DUP1 EXTCODESIZE ISZERO DUP1 ISZERO PUSH2 0x28A4 JUMPI PUSH1 0x0 DUP1 REVERT JUMPDEST POP GAS STATICCALL ISZERO DUP1 ISZERO PUSH2 0x28B8 JUMPI RETURNDATASIZE PUSH1 0x0 DUP1 RETURNDATACOPY RETURNDATASIZE PUSH1 0x0 REVERT JUMPDEST POP POP POP POP PUSH1 0x40 MLOAD RETURNDATASIZE PUSH1 0x1F NOT PUSH1 0x1F DUP3 ADD AND DUP3 ADD DUP1 PUSH1 0x40 MSTORE POP DUP2 ADD SWAP1 PUSH2 0x28DC SWAP2 SWAP1 PUSH2 0x30B2 JUMP JUMPDEST LT ISZERO PUSH2 0x2921 JUMPI PUSH1 0x40 MLOAD PUSH3 0x461BCD PUSH1 0xE5 SHL DUP2 MSTORE PUSH1 0x20 PUSH1 0x4 DUP3 ADD MSTORE PUSH1 0x14 PUSH1 0x24 DUP3 ADD MSTORE PUSH20 0x496E73756666696369656E742062616C616E6365 PUSH1 0x60 SHL PUSH1 0x44 DUP3 ADD MSTORE PUSH1 0x64 ADD PUSH2 0xB29 JUMP JUMPDEST PUSH1 0x1 SLOAD PUSH1 0x40 MLOAD PUSH4 0x6EB1769F PUSH1 0xE1 SHL DUP2 MSTORE CALLER PUSH1 0x4 DUP3 ADD MSTORE ADDRESS PUSH1 0x24 DUP3 ADD MSTORE DUP4 SWAP2 PUSH1 0x1 PUSH1 0x1 PUSH1 0xA0 SHL SUB AND SWAP1 PUSH4 0xDD62ED3E SWAP1 PUSH1 0x44 ADD PUSH1 0x20 PUSH1 0x40 MLOAD DUP1 DUP4 SUB DUP2 DUP7 DUP1 EXTCODESIZE ISZERO DUP1 ISZERO PUSH2 0x296A JUMPI PUSH1 0x0 DUP1 REVERT JUMPDEST POP GAS STATICCALL ISZERO DUP1 ISZERO PUSH2 0x297E JUMPI RETURNDATASIZE PUSH1 0x0 DUP1 RETURNDATACOPY RETURNDATASIZE PUSH1 0x0 REVERT JUMPDEST POP POP POP POP PUSH1 0x40 MLOAD RETURNDATASIZE PUSH1 0x1F NOT PUSH1 0x1F DUP3 ADD AND DUP3 ADD DUP1 PUSH1 0x40 MSTORE POP DUP2 ADD SWAP1 PUSH2 0x29A2 SWAP2 SWAP1 PUSH2 0x30B2 JUMP JUMPDEST LT ISZERO PUSH2 0x29FC JUMPI PUSH1 0x40 MLOAD PUSH3 0x461BCD PUSH1 0xE5 SHL DUP2 MSTORE PUSH1 0x20 PUSH1 0x4 DUP3 ADD MSTORE PUSH1 0x24 DUP1 DUP3 ADD MSTORE PUSH32 0x706C6561736520617070726F766520636F6E7472616374206F6E2047616D6554 PUSH1 0x44 DUP3 ADD MSTORE PUSH4 0x37B5B2B7 PUSH1 0xE1 SHL PUSH1 0x64 DUP3 ADD MSTORE PUSH1 0x84 ADD PUSH2 0xB29 JUMP JUMPDEST PUSH1 0x3 SLOAD ISZERO PUSH2 0x18F6 JUMPI PUSH1 0x3 SLOAD SELFBALANCE LT ISZERO PUSH2 0x2A47 JUMPI PUSH1 0x40 MLOAD PUSH3 0x461BCD PUSH1 0xE5 SHL DUP2 MSTORE PUSH1 0x20 PUSH1 0x4 DUP3 ADD MSTORE PUSH1 0xE PUSH1 0x24 DUP3 ADD MSTORE PUSH14 0x2737BA1032B737BAB3B410212721 PUSH1 0x91 SHL PUSH1 0x44 DUP3 ADD MSTORE PUSH1 0x64 ADD PUSH2 0xB29 JUMP JUMPDEST PUSH1 0x40 MLOAD PUSH1 0x1 PUSH1 0x1 PUSH1 0xA0 SHL SUB DUP3 AND SWAP1 SELFBALANCE DUP1 ISZERO PUSH2 0x8FC MUL SWAP2 PUSH1 0x0 DUP2 DUP2 DUP2 DUP6 DUP9 DUP9 CALL SWAP4 POP POP POP POP PUSH2 0x18F6 JUMPI PUSH1 0x0 DUP1 REVERT JUMPDEST CALLER PUSH1 0x0 SWAP1 DUP2 MSTORE PUSH1 0x17 PUSH1 0x20 SWAP1 DUP2 MSTORE PUSH1 0x40 DUP1 DUP4 KECCAK256 SLOAD PUSH1 0x18 DUP4 MSTORE DUP2 DUP5 KECCAK256 DUP2 DUP6 MSTORE SWAP1 SWAP3 MSTORE DUP3 KECCAK256 DUP3 SWAP2 DUP3 SWAP2 JUMPDEST PUSH2 0x2AA5 PUSH1 0x4 PUSH2 0x1244 JUMP JUMPDEST SWAP4 POP PUSH2 0x2AB1 PUSH1 0xD PUSH2 0x1244 JUMP JUMPDEST SWAP5 POP DUP5 PUSH2 0x2ABF DUP6 PUSH1 0xD PUSH2 0x33CA JUMP JUMPDEST PUSH2 0x2AC9 SWAP2 SWAP1 PUSH2 0x339E JUMP JUMPDEST PUSH1 0x0 DUP2 DUP2 MSTORE PUSH1 0x6 DUP4 ADD PUSH1 0x20 MSTORE PUSH1 0x40 SWAP1 KECCAK256 SLOAD SWAP1 SWAP4 POP PUSH1 0xFF AND PUSH2 0x2A9B JUMPI PUSH1 0x0 SWAP3 DUP4 MSTORE PUSH1 0x6 ADD PUSH1 0x20 MSTORE POP PUSH1 0x40 SWAP1 KECCAK256 DUP1 SLOAD PUSH1 0xFF NOT AND PUSH1 0x1 OR SWAP1 SSTORE SWAP1 SWAP2 JUMP JUMPDEST PUSH1 0x14 SLOAD PUSH1 0x0 SWAP1 DUP2 SWAP1 PUSH1 0xFF AND ISZERO PUSH2 0x2B2B JUMPI PUSH1 0x40 MLOAD PUSH3 0x461BCD PUSH1 0xE5 SHL DUP2 MSTORE PUSH1 0x4 ADD PUSH2 0xB29 SWAP1 PUSH2 0x3332 JUMP JUMPDEST PUSH2 0x2B34 DUP5 PUSH2 0x2780 JUMP JUMPDEST PUSH1 0x0 PUSH2 0x2B41 PUSH2 0x2710 PUSH2 0x1244 JUMP JUMPDEST SWAP1 POP PUSH2 0x1068 DUP2 LT PUSH2 0x2B56 JUMPI DUP4 ISZERO SWAP3 POP DUP3 PUSH2 0x2B5B JUMP JUMPDEST DUP4 SWAP3 POP DUP3 JUMPDEST POP DUP3 ISZERO ISZERO DUP5 ISZERO ISZERO EQ PUSH2 0x2B71 JUMPI PUSH1 0x0 SWAP2 POP DUP2 PUSH2 0x2B77 JUMP JUMPDEST PUSH1 0x1 SWAP2 POP DUP2 JUMPDEST POP PUSH1 0x0 DUP3 ISZERO PUSH2 0x2B8F JUMPI PUSH2 0x2B8C DUP7 PUSH1 0xC SLOAD PUSH2 0x2D84 JUMP JUMPDEST SWAP1 POP JUMPDEST DUP3 PUSH2 0x2BA0 JUMPI PUSH2 0x2B9D DUP7 PUSH2 0x2DB7 JUMP JUMPDEST SWAP1 POP JUMPDEST PUSH1 0x40 DUP1 MLOAD CALLER DUP2 MSTORE DUP5 ISZERO ISZERO PUSH1 0x20 DUP3 ADD MSTORE SWAP1 DUP2 ADD DUP3 SWAP1 MSTORE DUP5 ISZERO ISZERO PUSH1 0x60 DUP3 ADD MSTORE PUSH32 0x4F91BBC3534B7027DCD697DD5AA5B2DFAEB6895A895837ADCAA84815CA3C4522 SWAP1 PUSH1 0x80 ADD PUSH1 0x40 MLOAD DUP1 SWAP2 SUB SWAP1 LOG1 POP POP SWAP3 POP SWAP3 SWAP1 POP JUMP JUMPDEST CALLER PUSH1 0x0 SWAP1 DUP2 MSTORE PUSH1 0x19 PUSH1 0x20 SWAP1 DUP2 MSTORE PUSH1 0x40 DUP1 DUP4 KECCAK256 SLOAD PUSH1 0x1A DUP4 MSTORE DUP2 DUP5 KECCAK256 DUP2 DUP6 MSTORE SWAP1 SWAP3 MSTORE DUP3 KECCAK256 DUP3 SWAP2 DUP3 SWAP2 JUMPDEST PUSH2 0x2C24 PUSH1 0x4 PUSH2 0x1244 JUMP JUMPDEST SWAP4 POP PUSH2 0x2C30 PUSH1 0xD PUSH2 0x1244 JUMP JUMPDEST SWAP5 POP DUP5 PUSH2 0x2C3E DUP6 PUSH1 0xD PUSH2 0x33CA JUMP JUMPDEST PUSH2 0x2C48 SWAP2 SWAP1 PUSH2 0x339E JUMP JUMPDEST PUSH1 0x0 DUP2 DUP2 MSTORE PUSH1 0x8 DUP4 ADD PUSH1 0x20 MSTORE PUSH1 0x40 SWAP1 KECCAK256 SLOAD SWAP1 SWAP4 POP PUSH1 0xFF AND PUSH2 0x2C1A JUMPI POP POP POP SWAP1 SWAP2 JUMP JUMPDEST PUSH1 0x0 DUP3 PUSH1 0x64 DUP4 PUSH1 0x64 PUSH1 0x9 SLOAD DUP8 PUSH2 0x2C80 SWAP2 SWAP1 PUSH2 0x33CA JUMP JUMPDEST PUSH2 0x2C8A SWAP2 SWAP1 PUSH2 0x33B6 JUMP JUMPDEST PUSH2 0x2C94 SWAP2 SWAP1 PUSH2 0x33CA JUMP JUMPDEST PUSH2 0x2C9E SWAP2 SWAP1 PUSH2 0x33B6 JUMP JUMPDEST PUSH2 0x2CA8 SWAP2 SWAP1 PUSH2 0x339E JUMP JUMPDEST PUSH1 0x1 SLOAD PUSH1 0x40 MLOAD PUSH4 0xA9059CBB PUSH1 0xE0 SHL DUP2 MSTORE CALLER PUSH1 0x4 DUP3 ADD MSTORE PUSH1 0x24 DUP2 ADD DUP4 SWAP1 MSTORE SWAP2 SWAP3 POP PUSH1 0x1 PUSH1 0x1 PUSH1 0xA0 SHL SUB AND SWAP1 PUSH4 0xA9059CBB SWAP1 PUSH1 0x44 ADD PUSH1 0x20 PUSH1 0x40 MLOAD DUP1 DUP4 SUB DUP2 PUSH1 0x0 DUP8 DUP1 EXTCODESIZE ISZERO DUP1 ISZERO PUSH2 0x2CF5 JUMPI PUSH1 0x0 DUP1 REVERT JUMPDEST POP GAS CALL ISZERO DUP1 ISZERO PUSH2 0x2D09 JUMPI RETURNDATASIZE PUSH1 0x0 DUP1 RETURNDATACOPY RETURNDATASIZE PUSH1 0x0 REVERT JUMPDEST POP POP POP POP PUSH1 0x40 MLOAD RETURNDATASIZE PUSH1 0x1F NOT PUSH1 0x1F DUP3 ADD AND DUP3 ADD DUP1 PUSH1 0x40 MSTORE POP DUP2 ADD SWAP1 PUSH2 0x2D2D SWAP2 SWAP1 PUSH2 0x307C JUMP JUMPDEST POP SWAP3 SWAP2 POP POP JUMP JUMPDEST PUSH1 0x0 DUP1 SLOAD PUSH1 0x1 PUSH1 0x1 PUSH1 0xA0 SHL SUB DUP4 DUP2 AND PUSH1 0x1 PUSH1 0x1 PUSH1 0xA0 SHL SUB NOT DUP4 AND DUP2 OR DUP5 SSTORE PUSH1 0x40 MLOAD SWAP2 SWAP1 SWAP3 AND SWAP3 DUP4 SWAP2 PUSH32 0x8BE0079C531659141344CD1FD0A4F28419497F9722A3DAAFE3B4186F6B6457E0 SWAP2 SWAP1 LOG3 POP POP JUMP JUMPDEST PUSH1 0x0 PUSH1 0x64 DUP3 PUSH1 0x64 PUSH1 0x9 SLOAD DUP7 PUSH2 0x2D99 SWAP2 SWAP1 PUSH2 0x33CA JUMP JUMPDEST PUSH2 0x2DA3 SWAP2 SWAP1 PUSH2 0x33B6 JUMP JUMPDEST PUSH2 0x2DAD SWAP2 SWAP1 PUSH2 0x33CA JUMP JUMPDEST PUSH2 0x2CA8 SWAP2 SWAP1 PUSH2 0x33B6 JUMP JUMPDEST PUSH1 0x1 SLOAD PUSH1 0x40 MLOAD PUSH4 0x23B872DD PUSH1 0xE0 SHL DUP2 MSTORE CALLER PUSH1 0x4 DUP3 ADD MSTORE ADDRESS PUSH1 0x24 DUP3 ADD MSTORE PUSH1 0x44 DUP2 ADD DUP4 SWAP1 MSTORE DUP3 SWAP2 PUSH1 0x1 PUSH1 0x1 PUSH1 0xA0 SHL SUB AND SWAP1 PUSH4 0x23B872DD SWAP1 PUSH1 0x64 ADD PUSH1 0x20 PUSH1 0x40 MLOAD DUP1 DUP4 SUB DUP2 PUSH1 0x0 DUP8 DUP1 EXTCODESIZE ISZERO DUP1 ISZERO PUSH2 0x2E09 JUMPI PUSH1 0x0 DUP1 REVERT JUMPDEST POP GAS CALL ISZERO DUP1 ISZERO PUSH2 0x2E1D JUMPI RETURNDATASIZE PUSH1 0x0 DUP1 RETURNDATACOPY RETURNDATASIZE PUSH1 0x0 REVERT JUMPDEST POP POP POP POP PUSH1 0x40 MLOAD RETURNDATASIZE PUSH1 0x1F NOT PUSH1 0x1F DUP3 ADD AND DUP3 ADD DUP1 PUSH1 0x40 MSTORE POP DUP2 ADD SWAP1 PUSH2 0x2E41 SWAP2 SWAP1 PUSH2 0x307C JUMP JUMPDEST POP PUSH1 0x8 SLOAD ISZERO PUSH2 0x2E53 JUMPI PUSH2 0x2E53 DUP3 PUSH2 0x1877 JUMP JUMPDEST SWAP2 SWAP1 POP JUMP JUMPDEST CALLER PUSH1 0x0 SWAP1 DUP2 MSTORE PUSH1 0x15 PUSH1 0x20 MSTORE PUSH1 0x40 DUP2 KECCAK256 SLOAD DUP2 SWAP1 DUP2 SWAP1 JUMPDEST PUSH2 0x2E77 PUSH1 0x4 PUSH2 0x1244 JUMP JUMPDEST SWAP3 POP PUSH2 0x2E83 PUSH1 0xD PUSH2 0x1244 JUMP JUMPDEST SWAP4 POP DUP4 PUSH2 0x2E91 DUP5 PUSH1 0xD PUSH2 0x33CA JUMP JUMPDEST PUSH2 0x2E9B SWAP2 SWAP1 PUSH2 0x339E JUMP JUMPDEST CALLER PUSH1 0x0 SWAP1 DUP2 MSTORE PUSH1 0x16 PUSH1 0x20 SWAP1 DUP2 MSTORE PUSH1 0x40 DUP1 DUP4 KECCAK256 DUP6 DUP5 MSTORE DUP3 MSTORE DUP1 DUP4 KECCAK256 DUP5 DUP5 MSTORE SWAP1 SWAP2 MSTORE SWAP1 KECCAK256 SLOAD SWAP1 SWAP3 POP PUSH1 0xFF AND PUSH2 0x2E6D JUMPI CALLER PUSH1 0x0 SWAP1 DUP2 MSTORE PUSH1 0x16 PUSH1 0x20 SWAP1 DUP2 MSTORE PUSH1 0x40 DUP1 DUP4 KECCAK256 SWAP4 DUP4 MSTORE SWAP3 DUP2 MSTORE DUP3 DUP3 KECCAK256 SWAP4 DUP3 MSTORE SWAP3 SWAP1 SWAP3 MSTORE SWAP1 KECCAK256 DUP1 SLOAD PUSH1 0xFF NOT AND PUSH1 0x1 OR SWAP1 SSTORE SWAP1 SWAP2 JUMP JUMPDEST PUSH1 0x0 PUSH1 0x20 DUP3 DUP5 SUB SLT ISZERO PUSH2 0x2F0D JUMPI PUSH1 0x0 DUP1 REVERT JUMPDEST DUP2 CALLDATALOAD PUSH2 0x1308 DUP2 PUSH2 0x3487 JUMP JUMPDEST PUSH1 0x0 PUSH1 0x20 DUP3 DUP5 SUB SLT ISZERO PUSH2 0x2F2A JUMPI PUSH1 0x0 DUP1 REVERT JUMPDEST DUP2 MLOAD PUSH2 0x1308 DUP2 PUSH2 0x3487 JUMP JUMPDEST PUSH1 0x0 DUP1 PUSH1 0x40 DUP4 DUP6 SUB SLT ISZERO PUSH2 0x2F48 JUMPI PUSH1 0x0 DUP1 REVERT JUMPDEST DUP3 CALLDATALOAD PUSH2 0x2F53 DUP2 PUSH2 0x3487 JUMP JUMPDEST SWAP2 POP PUSH1 0x20 DUP4 ADD CALLDATALOAD PUSH2 0x2F63 DUP2 PUSH2 0x349C JUMP JUMPDEST DUP1 SWAP2 POP POP SWAP3 POP SWAP3 SWAP1 POP JUMP JUMPDEST PUSH1 0x0 DUP1 PUSH1 0x40 DUP4 DUP6 SUB SLT ISZERO PUSH2 0x2F81 JUMPI PUSH1 0x0 DUP1 REVERT JUMPDEST DUP3 CALLDATALOAD PUSH2 0x2F8C DUP2 PUSH2 0x3487 JUMP JUMPDEST SWAP5 PUSH1 0x20 SWAP4 SWAP1 SWAP4 ADD CALLDATALOAD SWAP4 POP POP POP JUMP JUMPDEST PUSH1 0x0 PUSH1 0x20 DUP1 DUP4 DUP6 SUB SLT ISZERO PUSH2 0x2FAD JUMPI PUSH1 0x0 DUP1 REVERT JUMPDEST DUP3 CALLDATALOAD PUSH8 0xFFFFFFFFFFFFFFFF DUP1 DUP3 GT ISZERO PUSH2 0x2FC5 JUMPI PUSH1 0x0 DUP1 REVERT JUMPDEST DUP2 DUP6 ADD SWAP2 POP DUP6 PUSH1 0x1F DUP4 ADD SLT PUSH2 0x2FD9 JUMPI PUSH1 0x0 DUP1 REVERT JUMPDEST DUP2 CALLDATALOAD DUP2 DUP2 GT ISZERO PUSH2 0x2FEB JUMPI PUSH2 0x2FEB PUSH2 0x3471 JUMP JUMPDEST DUP1 PUSH1 0x5 SHL PUSH1 0x40 MLOAD PUSH1 0x1F NOT PUSH1 0x3F DUP4 ADD AND DUP2 ADD DUP2 DUP2 LT DUP6 DUP3 GT OR ISZERO PUSH2 0x3010 JUMPI PUSH2 0x3010 PUSH2 0x3471 JUMP JUMPDEST PUSH1 0x40 MSTORE DUP3 DUP2 MSTORE DUP6 DUP2 ADD SWAP4 POP DUP5 DUP7 ADD DUP3 DUP7 ADD DUP8 ADD DUP11 LT ISZERO PUSH2 0x302F JUMPI PUSH1 0x0 DUP1 REVERT JUMPDEST PUSH1 0x0 SWAP6 POP JUMPDEST DUP4 DUP7 LT ISZERO PUSH2 0x3052 JUMPI DUP1 CALLDATALOAD DUP6 MSTORE PUSH1 0x1 SWAP6 SWAP1 SWAP6 ADD SWAP5 SWAP4 DUP7 ADD SWAP4 DUP7 ADD PUSH2 0x3034 JUMP JUMPDEST POP SWAP9 SWAP8 POP POP POP POP POP POP POP POP JUMP JUMPDEST PUSH1 0x0 PUSH1 0x20 DUP3 DUP5 SUB SLT ISZERO PUSH2 0x3071 JUMPI PUSH1 0x0 DUP1 REVERT JUMPDEST DUP2 CALLDATALOAD PUSH2 0x1308 DUP2 PUSH2 0x349C JUMP JUMPDEST PUSH1 0x0 PUSH1 0x20 DUP3 DUP5 SUB SLT ISZERO PUSH2 0x308E JUMPI PUSH1 0x0 DUP1 REVERT JUMPDEST DUP2 MLOAD PUSH2 0x1308 DUP2 PUSH2 0x349C JUMP JUMPDEST PUSH1 0x0 PUSH1 0x20 DUP3 DUP5 SUB SLT ISZERO PUSH2 0x30AB JUMPI PUSH1 0x0 DUP1 REVERT JUMPDEST POP CALLDATALOAD SWAP2 SWAP1 POP JUMP JUMPDEST PUSH1 0x0 PUSH1 0x20 DUP3 DUP5 SUB SLT ISZERO PUSH2 0x30C4 JUMPI PUSH1 0x0 DUP1 REVERT JUMPDEST POP MLOAD SWAP2 SWAP1 POP JUMP JUMPDEST PUSH1 0x0 DUP1 PUSH1 0x0 PUSH1 0x60 DUP5 DUP7 SUB SLT ISZERO PUSH2 0x30E0 JUMPI PUSH1 0x0 DUP1 REVERT JUMPDEST DUP4 CALLDATALOAD SWAP3 POP PUSH1 0x20 DUP5 ADD CALLDATALOAD SWAP2 POP PUSH1 0x40 DUP5 ADD CALLDATALOAD PUSH2 0x30F9 DUP2 PUSH2 0x3487 JUMP JUMPDEST DUP1 SWAP2 POP POP SWAP3 POP SWAP3 POP SWAP3 JUMP JUMPDEST PUSH1 0x0 DUP1 PUSH1 0x0 PUSH1 0x60 DUP5 DUP7 SUB SLT ISZERO PUSH2 0x3119 JUMPI PUSH1 0x0 DUP1 REVERT JUMPDEST POP POP DUP2 CALLDATALOAD SWAP4 PUSH1 0x20 DUP4 ADD CALLDATALOAD SWAP4 POP PUSH1 0x40 SWAP1 SWAP3 ADD CALLDATALOAD SWAP2 SWAP1 POP JUMP JUMPDEST PUSH1 0x0 DUP1 PUSH1 0x0 DUP1 PUSH1 0x0 DUP1 PUSH1 0x0 PUSH1 0xE0 DUP9 DUP11 SUB SLT ISZERO PUSH2 0x314B JUMPI PUSH1 0x0 DUP1 REVERT JUMPDEST POP POP DUP6 CALLDATALOAD SWAP8 PUSH1 0x20 DUP8 ADD CALLDATALOAD SWAP8 POP PUSH1 0x40 DUP8 ADD CALLDATALOAD SWAP7 PUSH1 0x60 DUP2 ADD CALLDATALOAD SWAP7 POP PUSH1 0x80 DUP2 ADD CALLDATALOAD SWAP6 POP PUSH1 0xA0 DUP2 ADD CALLDATALOAD SWAP5 POP PUSH1 0xC0 ADD CALLDATALOAD SWAP3 POP SWAP1 POP JUMP JUMPDEST PUSH1 0x0 DUP2 MLOAD DUP1 DUP5 MSTORE PUSH1 0x20 DUP1 DUP6 ADD SWAP5 POP DUP1 DUP5 ADD PUSH1 0x0 JUMPDEST DUP4 DUP2 LT ISZERO PUSH2 0x31AC JUMPI DUP2 MLOAD DUP8 MSTORE SWAP6 DUP3 ADD SWAP6 SWAP1 DUP3 ADD SWAP1 PUSH1 0x1 ADD PUSH2 0x3190 JUMP JUMPDEST POP SWAP5 SWAP6 SWAP5 POP POP POP POP POP JUMP JUMPDEST PUSH1 0x0 DUP2 SLOAD DUP1 DUP5 MSTORE PUSH1 0x20 DUP1 DUP6 ADD SWAP5 POP DUP4 PUSH1 0x0 MSTORE DUP1 PUSH1 0x0 KECCAK256 PUSH1 0x0 JUMPDEST DUP4 DUP2 LT ISZERO PUSH2 0x31AC JUMPI DUP2 SLOAD DUP8 MSTORE SWAP6 DUP3 ADD SWAP6 PUSH1 0x1 SWAP2 DUP3 ADD SWAP2 ADD PUSH2 0x31D0 JUMP JUMPDEST PUSH1 0x1 PUSH1 0x1 PUSH1 0xA0 SHL SUB DUP12 AND DUP2 MSTORE PUSH2 0x140 PUSH1 0x20 DUP3 ADD DUP2 SWAP1 MSTORE PUSH1 0x0 SWAP1 PUSH2 0x3211 DUP4 DUP3 ADD DUP14 PUSH2 0x31B7 JUMP JUMPDEST SWAP1 POP DUP3 DUP2 SUB PUSH1 0x40 DUP5 ADD MSTORE PUSH2 0x3225 DUP2 DUP13 PUSH2 0x31B7 JUMP JUMPDEST SWAP1 POP DUP3 DUP2 SUB PUSH1 0x60 DUP5 ADD MSTORE PUSH2 0x3239 DUP2 DUP12 PUSH2 0x31B7 JUMP JUMPDEST SWAP1 POP DUP3 DUP2 SUB PUSH1 0x80 DUP5 ADD MSTORE PUSH2 0x324D DUP2 DUP11 PUSH2 0x31B7 JUMP JUMPDEST PUSH1 0xA0 DUP5 ADD SWAP9 SWAP1 SWAP9 MSTORE POP POP PUSH1 0xC0 DUP2 ADD SWAP5 SWAP1 SWAP5 MSTORE PUSH1 0xE0 DUP5 ADD SWAP3 SWAP1 SWAP3 MSTORE ISZERO ISZERO PUSH2 0x100 DUP4 ADD MSTORE ISZERO ISZERO PUSH2 0x120 SWAP1 SWAP2 ADD MSTORE SWAP6 SWAP5 POP POP POP POP POP JUMP JUMPDEST PUSH1 0x0 PUSH2 0x100 DUP1 DUP4 MSTORE PUSH2 0x3295 DUP2 DUP5 ADD DUP13 PUSH2 0x317C JUMP JUMPDEST SWAP1 POP DUP3 DUP2 SUB PUSH1 0x20 DUP5 ADD MSTORE PUSH2 0x32A9 DUP2 DUP12 PUSH2 0x317C JUMP JUMPDEST SWAP1 POP DUP3 DUP2 SUB PUSH1 0x40 DUP5 ADD MSTORE PUSH2 0x32BD DUP2 DUP11 PUSH2 0x317C JUMP JUMPDEST SWAP1 POP DUP3 DUP2 SUB PUSH1 0x60 DUP5 ADD MSTORE PUSH2 0x32D1 DUP2 DUP10 PUSH2 0x317C JUMP JUMPDEST SWAP2 POP POP DUP6 PUSH1 0x80 DUP4 ADD MSTORE DUP5 PUSH1 0xA0 DUP4 ADD MSTORE DUP4 PUSH1 0xC0 DUP4 ADD MSTORE DUP3 ISZERO ISZERO PUSH1 0xE0 DUP4 ADD MSTORE SWAP10 SWAP9 POP POP POP POP POP POP POP POP POP JUMP JUMPDEST PUSH1 0x20 DUP1 DUP3 MSTORE PUSH1 0x1A SWAP1 DUP3 ADD MSTORE PUSH32 0x53746172744E657747616D6520746F20706C617920616761696E000000000000 PUSH1 0x40 DUP3 ADD MSTORE PUSH1 0x60 ADD SWAP1 JUMP JUMPDEST PUSH1 0x20 DUP1 DUP3 MSTORE PUSH1 0x10 SWAP1 DUP3 ADD MSTORE PUSH16 0x19D85B595CC8185C99481C185D5CD959 PUSH1 0x82 SHL PUSH1 0x40 DUP3 ADD MSTORE PUSH1 0x60 ADD SWAP1 JUMP JUMPDEST PUSH1 0x20 DUP1 DUP3 MSTORE PUSH1 0x22 SWAP1 DUP3 ADD MSTORE PUSH32 0x796F7520617265206E6F7420612067616D6520636F6E747261637420666F7220 PUSH1 0x40 DUP3 ADD MSTORE PUSH2 0x4647 PUSH1 0xF0 SHL PUSH1 0x60 DUP3 ADD MSTORE PUSH1 0x80 ADD SWAP1 JUMP JUMPDEST PUSH1 0x0 DUP3 NOT DUP3 GT ISZERO PUSH2 0x33B1 JUMPI PUSH2 0x33B1 PUSH2 0x342F JUMP JUMPDEST POP ADD SWAP1 JUMP JUMPDEST PUSH1 0x0 DUP3 PUSH2 0x33C5 JUMPI PUSH2 0x33C5 PUSH2 0x3445 JUMP JUMPDEST POP DIV SWAP1 JUMP JUMPDEST PUSH1 0x0 DUP2 PUSH1 0x0 NOT DIV DUP4 GT DUP3 ISZERO ISZERO AND ISZERO PUSH2 0x33E4 JUMPI PUSH2 0x33E4 PUSH2 0x342F JUMP JUMPDEST POP MUL SWAP1 JUMP JUMPDEST PUSH1 0x0 DUP3 DUP3 LT ISZERO PUSH2 0x33FB JUMPI PUSH2 0x33FB PUSH2 0x342F JUMP JUMPDEST POP SUB SWAP1 JUMP JUMPDEST PUSH1 0x0 PUSH1 0x0 NOT DUP3 EQ ISZERO PUSH2 0x3414 JUMPI PUSH2 0x3414 PUSH2 0x342F JUMP JUMPDEST POP PUSH1 0x1 ADD SWAP1 JUMP JUMPDEST PUSH1 0x0 DUP3 PUSH2 0x342A JUMPI PUSH2 0x342A PUSH2 0x3445 JUMP JUMPDEST POP MOD SWAP1 JUMP JUMPDEST PUSH4 0x4E487B71 PUSH1 0xE0 SHL PUSH1 0x0 MSTORE PUSH1 0x11 PUSH1 0x4 MSTORE PUSH1 0x24 PUSH1 0x0 REVERT JUMPDEST PUSH4 0x4E487B71 PUSH1 0xE0 SHL PUSH1 0x0 MSTORE PUSH1 0x12 PUSH1 0x4 MSTORE PUSH1 0x24 PUSH1 0x0 REVERT JUMPDEST PUSH4 0x4E487B71 PUSH1 0xE0 SHL PUSH1 0x0 MSTORE PUSH1 0x32 PUSH1 0x4 MSTORE PUSH1 0x24 PUSH1 0x0 REVERT JUMPDEST PUSH4 0x4E487B71 PUSH1 0xE0 SHL PUSH1 0x0 MSTORE PUSH1 0x41 PUSH1 0x4 MSTORE PUSH1 0x24 PUSH1 0x0 REVERT JUMPDEST PUSH1 0x1 PUSH1 0x1 PUSH1 0xA0 SHL SUB DUP2 AND DUP2 EQ PUSH2 0x22B2 JUMPI PUSH1 0x0 DUP1 REVERT JUMPDEST DUP1 ISZERO ISZERO DUP2 EQ PUSH2 0x22B2 JUMPI PUSH1 0x0 DUP1 REVERT INVALID LOG2 PUSH5 0x6970667358 0x22 SLT KECCAK256 0xE8 CREATE 0x4F 0xFB DUP3 SWAP10 LOG3 MSTORE 0x5F 0xC3 0x2B SAR 0x4E BYTE 0xD7 0x4C BLOCKHASH LOG1 CALLDATACOPY 0xCE NOT EXTCODECOPY COINBASE PUSH21 0x429147E393C9184264736F6C634300080700330000 "
				},
				"gasEstimates": {
					"creation": {
						"codeDepositCost": "2707200",
						"executionCost": "infinite",
						"totalCost": "infinite"
					},
					"external": {
						"BNBTreasury()": "infinite",
						"BNBfee()": "2351",
						"BetHeads(uint256)": "infinite",
						"BetTails(uint256)": "infinite",
						"FeeDivisor()": "2417",
						"amountToSendAt()": "2353",
						"blackJackHitMe()": "infinite",
						"blackJackHold()": "infinite",
						"blackJackUser(address)": "infinite",
						"checkIfBust(uint256[])": "infinite",
						"cutTheDeck(uint256)": "infinite",
						"cutTheDeckQuick()": "infinite",
						"diceCall(uint256,uint256,uint256)": "infinite",
						"feesCollected()": "2395",
						"gameToken()": "2449",
						"highCard(address)": "15561",
						"highCardGuess(bool)": "infinite",
						"highCardTakeMoney()": "infinite",
						"isGame(address)": "2592",
						"isPaused()": "2444",
						"marsFactory()": "2428",
						"maxBetAllowed()": "infinite",
						"maxBetDivisor()": "2352",
						"multipliers()": "15108",
						"owner()": "2444",
						"pauseGames(bool)": "26755",
						"payOutDivisor()": "2353",
						"potAmount()": "infinite",
						"quickBetAmount()": "2351",
						"quickBetHeads()": "infinite",
						"quickBetTails()": "infinite",
						"renounceOwnership()": "infinite",
						"rng(uint256)": "infinite",
						"sendFeesGame(uint256)": "infinite",
						"sendIsWinnerGame(uint256,uint256,address)": "infinite",
						"sendIsWinnerPrePaidGame(uint256,uint256,address)": "infinite",
						"setAmountToSendAt(uint256)": "24645",
						"setCostBNB(uint256)": "24600",
						"setFeeDivisor(uint256)": "24561",
						"setGameMultipliers(uint256,uint256,uint256,uint256,uint256,uint256,uint256)": "157321",
						"setGameToken(address)": "26840",
						"setMaxBetDivisor(uint256)": "24601",
						"setNewGame(address,bool)": "infinite",
						"setPayOutDivisor(uint256)": "24616",
						"setQuickBetAmount(uint256)": "24577",
						"setRNG(address)": "26819",
						"setTokenTreasury(address)": "26819",
						"startBlackJack(uint256)": "infinite",
						"startHighCard(uint256)": "infinite",
						"stateCallMain()": "infinite",
						"tokenTreasury()": "2450",
						"transferOwnership(address)": "infinite",
						"withdrawBNB()": "infinite",
						"withdrawlAllGameToken()": "infinite",
						"withdrawlToken(address,uint256)": "infinite"
					},
					"internal": {
						"checkReqs(uint256)": "infinite",
						"drawACardBJ()": "infinite",
						"drawACardCTD()": "infinite",
						"drawACardHC()": "infinite",
						"flipTheCoin(uint256,bool)": "infinite",
						"sendFees(uint256)": "infinite",
						"sendIsLoser(uint256)": "infinite",
						"sendIsWinner(uint256,uint256)": "infinite",
						"sendIsWinnerPrePaid(uint256,uint256)": "infinite"
					}
				},
				"methodIdentifiers": {
					"BNBTreasury()": "41b0c25b",
					"BNBfee()": "e62fefc4",
					"BetHeads(uint256)": "42ff8e44",
					"BetTails(uint256)": "d8f23f2e",
					"FeeDivisor()": "820b581a",
					"amountToSendAt()": "187e6f89",
					"blackJackHitMe()": "f9e154ee",
					"blackJackHold()": "5eaaa90c",
					"blackJackUser(address)": "3e625844",
					"checkIfBust(uint256[])": "8c5afb5a",
					"cutTheDeck(uint256)": "ce5d4c5e",
					"cutTheDeckQuick()": "7df48f2c",
					"diceCall(uint256,uint256,uint256)": "c8b54a4e",
					"feesCollected()": "f071db5a",
					"gameToken()": "c3dfdae6",
					"highCard(address)": "5a77800c",
					"highCardGuess(bool)": "fa68708a",
					"highCardTakeMoney()": "f0900ca4",
					"isGame(address)": "c626c52e",
					"isPaused()": "b187bd26",
					"marsFactory()": "31094301",
					"maxBetAllowed()": "e8f7d35d",
					"maxBetDivisor()": "39849771",
					"multipliers()": "9d7d6667",
					"owner()": "8da5cb5b",
					"pauseGames(bool)": "4da92800",
					"payOutDivisor()": "832ef347",
					"potAmount()": "4628df65",
					"quickBetAmount()": "7c54d20c",
					"quickBetHeads()": "f6e674ef",
					"quickBetTails()": "b69473b3",
					"renounceOwnership()": "715018a6",
					"rng(uint256)": "53f836db",
					"sendFeesGame(uint256)": "9fb4620d",
					"sendIsWinnerGame(uint256,uint256,address)": "7a1d2db5",
					"sendIsWinnerPrePaidGame(uint256,uint256,address)": "fc95e4ab",
					"setAmountToSendAt(uint256)": "29ceb418",
					"setCostBNB(uint256)": "3b8d3c56",
					"setFeeDivisor(uint256)": "043531b1",
					"setGameMultipliers(uint256,uint256,uint256,uint256,uint256,uint256,uint256)": "97e4b05e",
					"setGameToken(address)": "80d29e66",
					"setMaxBetDivisor(uint256)": "21154ec5",
					"setNewGame(address,bool)": "f5d7bd7f",
					"setPayOutDivisor(uint256)": "ce9fa82d",
					"setQuickBetAmount(uint256)": "f4a63bd8",
					"setRNG(address)": "3b84edbd",
					"setTokenTreasury(address)": "b7189dda",
					"startBlackJack(uint256)": "d24b22e1",
					"startHighCard(uint256)": "283dd0cb",
					"stateCallMain()": "768367c4",
					"tokenTreasury()": "342eb7cc",
					"transferOwnership(address)": "f2fde38b",
					"withdrawBNB()": "1d111d13",
					"withdrawlAllGameToken()": "c9b1c1fa",
					"withdrawlToken(address,uint256)": "2c1ef96a"
				}
			},
			"storageLayout": {
				"storage": [
					{
						"astId": 104,
						"contract": "MSWAP/Games/Games1.sol:FGCasino",
						"label": "_owner",
						"offset": 0,
						"slot": "0",
						"type": "t_address"
					},
					{
						"astId": 226,
						"contract": "MSWAP/Games/Games1.sol:FGCasino",
						"label": "gameToken",
						"offset": 0,
						"slot": "1",
						"type": "t_address"
					},
					{
						"astId": 228,
						"contract": "MSWAP/Games/Games1.sol:FGCasino",
						"label": "tokenTreasury",
						"offset": 0,
						"slot": "2",
						"type": "t_address"
					},
					{
						"astId": 231,
						"contract": "MSWAP/Games/Games1.sol:FGCasino",
						"label": "BNBfee",
						"offset": 0,
						"slot": "3",
						"type": "t_uint256"
					},
					{
						"astId": 233,
						"contract": "MSWAP/Games/Games1.sol:FGCasino",
						"label": "marsFactory",
						"offset": 0,
						"slot": "4",
						"type": "t_address"
					},
					{
						"astId": 235,
						"contract": "MSWAP/Games/Games1.sol:FGCasino",
						"label": "amountToSendAt",
						"offset": 0,
						"slot": "5",
						"type": "t_uint256"
					},
					{
						"astId": 238,
						"contract": "MSWAP/Games/Games1.sol:FGCasino",
						"label": "feesCollected",
						"offset": 0,
						"slot": "6",
						"type": "t_uint256"
					},
					{
						"astId": 241,
						"contract": "MSWAP/Games/Games1.sol:FGCasino",
						"label": "quickBetAmount",
						"offset": 0,
						"slot": "7",
						"type": "t_uint256"
					},
					{
						"astId": 244,
						"contract": "MSWAP/Games/Games1.sol:FGCasino",
						"label": "FeeDivisor",
						"offset": 0,
						"slot": "8",
						"type": "t_uint256"
					},
					{
						"astId": 247,
						"contract": "MSWAP/Games/Games1.sol:FGCasino",
						"label": "payOutDivisor",
						"offset": 0,
						"slot": "9",
						"type": "t_uint256"
					},
					{
						"astId": 250,
						"contract": "MSWAP/Games/Games1.sol:FGCasino",
						"label": "maxBetDivisor",
						"offset": 0,
						"slot": "10",
						"type": "t_uint256"
					},
					{
						"astId": 253,
						"contract": "MSWAP/Games/Games1.sol:FGCasino",
						"label": "random",
						"offset": 0,
						"slot": "11",
						"type": "t_contract(Random)215"
					},
					{
						"astId": 370,
						"contract": "MSWAP/Games/Games1.sol:FGCasino",
						"label": "coinFlipM",
						"offset": 0,
						"slot": "12",
						"type": "t_uint256"
					},
					{
						"astId": 373,
						"contract": "MSWAP/Games/Games1.sol:FGCasino",
						"label": "deckCutM",
						"offset": 0,
						"slot": "13",
						"type": "t_uint256"
					},
					{
						"astId": 376,
						"contract": "MSWAP/Games/Games1.sol:FGCasino",
						"label": "diceCall6M",
						"offset": 0,
						"slot": "14",
						"type": "t_uint256"
					},
					{
						"astId": 379,
						"contract": "MSWAP/Games/Games1.sol:FGCasino",
						"label": "diceCall12M",
						"offset": 0,
						"slot": "15",
						"type": "t_uint256"
					},
					{
						"astId": 382,
						"contract": "MSWAP/Games/Games1.sol:FGCasino",
						"label": "diceCall20M",
						"offset": 0,
						"slot": "16",
						"type": "t_uint256"
					},
					{
						"astId": 385,
						"contract": "MSWAP/Games/Games1.sol:FGCasino",
						"label": "highCardStart",
						"offset": 0,
						"slot": "17",
						"type": "t_uint256"
					},
					{
						"astId": 388,
						"contract": "MSWAP/Games/Games1.sol:FGCasino",
						"label": "blackJackM",
						"offset": 0,
						"slot": "18",
						"type": "t_uint256"
					},
					{
						"astId": 514,
						"contract": "MSWAP/Games/Games1.sol:FGCasino",
						"label": "isGame",
						"offset": 0,
						"slot": "19",
						"type": "t_mapping(t_address,t_bool)"
					},
					{
						"astId": 533,
						"contract": "MSWAP/Games/Games1.sol:FGCasino",
						"label": "isPaused",
						"offset": 0,
						"slot": "20",
						"type": "t_bool"
					},
					{
						"astId": 1337,
						"contract": "MSWAP/Games/Games1.sol:FGCasino",
						"label": "usersRoundCTD",
						"offset": 0,
						"slot": "21",
						"type": "t_mapping(t_address,t_uint256)"
					},
					{
						"astId": 1345,
						"contract": "MSWAP/Games/Games1.sol:FGCasino",
						"label": "isCardPlayedCTD",
						"offset": 0,
						"slot": "22",
						"type": "t_mapping(t_address,t_mapping(t_uint256,t_mapping(t_uint256,t_bool)))"
					},
					{
						"astId": 1688,
						"contract": "MSWAP/Games/Games1.sol:FGCasino",
						"label": "usersRoundHC",
						"offset": 0,
						"slot": "23",
						"type": "t_mapping(t_address,t_uint256)"
					},
					{
						"astId": 1695,
						"contract": "MSWAP/Games/Games1.sol:FGCasino",
						"label": "highCardByRound",
						"offset": 0,
						"slot": "24",
						"type": "t_mapping(t_address,t_mapping(t_uint256,t_struct(HighCard)1684_storage))"
					},
					{
						"astId": 2131,
						"contract": "MSWAP/Games/Games1.sol:FGCasino",
						"label": "usersRoundBJ",
						"offset": 0,
						"slot": "25",
						"type": "t_mapping(t_address,t_uint256)"
					},
					{
						"astId": 2138,
						"contract": "MSWAP/Games/Games1.sol:FGCasino",
						"label": "blackJackByRound",
						"offset": 0,
						"slot": "26",
						"type": "t_mapping(t_address,t_mapping(t_uint256,t_struct(BlackJack)2127_storage))"
					}
				],
				"types": {
					"t_address": {
						"encoding": "inplace",
						"label": "address",
						"numberOfBytes": "20"
					},
					"t_array(t_uint256)dyn_storage": {
						"base": "t_uint256",
						"encoding": "dynamic_array",
						"label": "uint256[]",
						"numberOfBytes": "32"
					},
					"t_bool": {
						"encoding": "inplace",
						"label": "bool",
						"numberOfBytes": "1"
					},
					"t_contract(Random)215": {
						"encoding": "inplace",
						"label": "contract Random",
						"numberOfBytes": "20"
					},
					"t_mapping(t_address,t_bool)": {
						"encoding": "mapping",
						"key": "t_address",
						"label": "mapping(address => bool)",
						"numberOfBytes": "32",
						"value": "t_bool"
					},
					"t_mapping(t_address,t_mapping(t_uint256,t_mapping(t_uint256,t_bool)))": {
						"encoding": "mapping",
						"key": "t_address",
						"label": "mapping(address => mapping(uint256 => mapping(uint256 => bool)))",
						"numberOfBytes": "32",
						"value": "t_mapping(t_uint256,t_mapping(t_uint256,t_bool))"
					},
					"t_mapping(t_address,t_mapping(t_uint256,t_struct(BlackJack)2127_storage))": {
						"encoding": "mapping",
						"key": "t_address",
						"label": "mapping(address => mapping(uint256 => struct FGCasino.BlackJack))",
						"numberOfBytes": "32",
						"value": "t_mapping(t_uint256,t_struct(BlackJack)2127_storage)"
					},
					"t_mapping(t_address,t_mapping(t_uint256,t_struct(HighCard)1684_storage))": {
						"encoding": "mapping",
						"key": "t_address",
						"label": "mapping(address => mapping(uint256 => struct FGCasino.HighCard))",
						"numberOfBytes": "32",
						"value": "t_mapping(t_uint256,t_struct(HighCard)1684_storage)"
					},
					"t_mapping(t_address,t_uint256)": {
						"encoding": "mapping",
						"key": "t_address",
						"label": "mapping(address => uint256)",
						"numberOfBytes": "32",
						"value": "t_uint256"
					},
					"t_mapping(t_uint256,t_bool)": {
						"encoding": "mapping",
						"key": "t_uint256",
						"label": "mapping(uint256 => bool)",
						"numberOfBytes": "32",
						"value": "t_bool"
					},
					"t_mapping(t_uint256,t_mapping(t_uint256,t_bool))": {
						"encoding": "mapping",
						"key": "t_uint256",
						"label": "mapping(uint256 => mapping(uint256 => bool))",
						"numberOfBytes": "32",
						"value": "t_mapping(t_uint256,t_bool)"
					},
					"t_mapping(t_uint256,t_struct(BlackJack)2127_storage)": {
						"encoding": "mapping",
						"key": "t_uint256",
						"label": "mapping(uint256 => struct FGCasino.BlackJack)",
						"numberOfBytes": "32",
						"value": "t_struct(BlackJack)2127_storage"
					},
					"t_mapping(t_uint256,t_struct(HighCard)1684_storage)": {
						"encoding": "mapping",
						"key": "t_uint256",
						"label": "mapping(uint256 => struct FGCasino.HighCard)",
						"numberOfBytes": "32",
						"value": "t_struct(HighCard)1684_storage"
					},
					"t_struct(BlackJack)2127_storage": {
						"encoding": "inplace",
						"label": "struct FGCasino.BlackJack",
						"members": [
							{
								"astId": 2105,
								"contract": "MSWAP/Games/Games1.sol:FGCasino",
								"label": "playerCardsSuit",
								"offset": 0,
								"slot": "0",
								"type": "t_array(t_uint256)dyn_storage"
							},
							{
								"astId": 2108,
								"contract": "MSWAP/Games/Games1.sol:FGCasino",
								"label": "playerCardsNumber",
								"offset": 0,
								"slot": "1",
								"type": "t_array(t_uint256)dyn_storage"
							},
							{
								"astId": 2111,
								"contract": "MSWAP/Games/Games1.sol:FGCasino",
								"label": "houseCardsSuit",
								"offset": 0,
								"slot": "2",
								"type": "t_array(t_uint256)dyn_storage"
							},
							{
								"astId": 2114,
								"contract": "MSWAP/Games/Games1.sol:FGCasino",
								"label": "houseCardsNumber",
								"offset": 0,
								"slot": "3",
								"type": "t_array(t_uint256)dyn_storage"
							},
							{
								"astId": 2116,
								"contract": "MSWAP/Games/Games1.sol:FGCasino",
								"label": "currentBet",
								"offset": 0,
								"slot": "4",
								"type": "t_uint256"
							},
							{
								"astId": 2118,
								"contract": "MSWAP/Games/Games1.sol:FGCasino",
								"label": "total",
								"offset": 0,
								"slot": "5",
								"type": "t_uint256"
							},
							{
								"astId": 2120,
								"contract": "MSWAP/Games/Games1.sol:FGCasino",
								"label": "Dtotal",
								"offset": 0,
								"slot": "6",
								"type": "t_uint256"
							},
							{
								"astId": 2122,
								"contract": "MSWAP/Games/Games1.sol:FGCasino",
								"label": "gameStarted",
								"offset": 0,
								"slot": "7",
								"type": "t_bool"
							},
							{
								"astId": 2126,
								"contract": "MSWAP/Games/Games1.sol:FGCasino",
								"label": "isCardPlayed",
								"offset": 0,
								"slot": "8",
								"type": "t_mapping(t_uint256,t_bool)"
							}
						],
						"numberOfBytes": "288"
					},
					"t_struct(HighCard)1684_storage": {
						"encoding": "inplace",
						"label": "struct FGCasino.HighCard",
						"members": [
							{
								"astId": 1669,
								"contract": "MSWAP/Games/Games1.sol:FGCasino",
								"label": "currentCardSuit",
								"offset": 0,
								"slot": "0",
								"type": "t_uint256"
							},
							{
								"astId": 1671,
								"contract": "MSWAP/Games/Games1.sol:FGCasino",
								"label": "currentCardNumber",
								"offset": 0,
								"slot": "1",
								"type": "t_uint256"
							},
							{
								"astId": 1673,
								"contract": "MSWAP/Games/Games1.sol:FGCasino",
								"label": "currentBet",
								"offset": 0,
								"slot": "2",
								"type": "t_uint256"
							},
							{
								"astId": 1675,
								"contract": "MSWAP/Games/Games1.sol:FGCasino",
								"label": "multiplier",
								"offset": 0,
								"slot": "3",
								"type": "t_uint256"
							},
							{
								"astId": 1677,
								"contract": "MSWAP/Games/Games1.sol:FGCasino",
								"label": "winnings",
								"offset": 0,
								"slot": "4",
								"type": "t_uint256"
							},
							{
								"astId": 1679,
								"contract": "MSWAP/Games/Games1.sol:FGCasino",
								"label": "gameStarted",
								"offset": 0,
								"slot": "5",
								"type": "t_bool"
							},
							{
								"astId": 1683,
								"contract": "MSWAP/Games/Games1.sol:FGCasino",
								"label": "isCardPlayed",
								"offset": 0,
								"slot": "6",
								"type": "t_mapping(t_uint256,t_bool)"
							}
						],
						"numberOfBytes": "224"
					},
					"t_uint256": {
						"encoding": "inplace",
						"label": "uint256",
						"numberOfBytes": "32"
					}
				}
			},
			"userdoc": {
				"kind": "user",
				"methods": {},
				"version": 1
			}
		}
	}
}