{
	"data": {
		"bytecode": {
			"linkReferences": {},
			"object": "6080604052600080546001600160a01b03191690553480156200002157600080fd5b506040516200154a3803806200154a8339810160408190526200004491620001d7565b600180546001600160a01b038086166001600160a01b031992831617909255600280549285169290911691909117905580516200008990600590602084019062000123565b506000826001600160a01b031663313ce5676040518163ffffffff1660e01b8152600401602060405180830381865afa158015620000cb573d6000803e3d6000fd5b505050506040513d601f19601f82011682018060405250810190620000f19190620002d1565b60ff16905062000103816012620002fd565b6003555050600480546001600160a01b0319163317905550620003259050565b8280548282559060005260206000209081019282156200017b579160200282015b828111156200017b57825182546001600160a01b0319166001600160a01b0390911617825560209092019160019091019062000144565b50620001899291506200018d565b5090565b5b808211156200018957600081556001016200018e565b80516001600160a01b0381168114620001bc57600080fd5b919050565b634e487b7160e01b600052604160045260246000fd5b600080600060608486031215620001ed57600080fd5b620001f884620001a4565b9250602062000209818601620001a4565b60408601519093506001600160401b03808211156200022757600080fd5b818701915087601f8301126200023c57600080fd5b815181811115620002515762000251620001c1565b8060051b604051601f19603f83011681018181108582111715620002795762000279620001c1565b60405291825284820192508381018501918a8311156200029857600080fd5b938501935b82851015620002c157620002b185620001a4565b845293850193928501926200029d565b8096505050505050509250925092565b600060208284031215620002e457600080fd5b815160ff81168114620002f657600080fd5b9392505050565b818103818111156200031f57634e487b7160e01b600052601160045260246000fd5b92915050565b61121580620003356000396000f3fe608060405234801561001057600080fd5b50600436106100575760003560e01c806329ce1ec51461005c5780634782e40714610071578063672383c4146100845780636cff8234146100b4578063a6d6e2ca146100d5575b600080fd5b61006f61006a366004610f03565b610103565b005b61006f61007f366004610f03565b6101ee565b610097610092366004610f27565b6102cb565b6040516001600160a01b0390911681526020015b60405180910390f35b6100c76100c2366004610f03565b6102f5565b6040519081526020016100ab565b6100e86100e3366004610f40565b610899565b604080519384526020840192909252908201526060016100ab565b806001600160a01b031663574f2ba36040518163ffffffff1660e01b8152600401602060405180830381865afa92505050801561015d575060408051601f3d908101601f1916820190925261015a91810190610f79565b60015b61019e5760405162461bcd60e51b815260206004820152600d60248201526c4e6f74206120666163746f727960981b60448201526064015b60405180910390fd5b50600580546001810182556000919091527f036b6384b5eca791c62761152d0c79bb0604c104a5fb6f4eb0703f3154bb3db00180546001600160a01b0319166001600160a01b0383161790555b50565b6004546001600160a01b031633146102345760405162461bcd60e51b81526020600482015260096024820152682737ba1027bbb732b960b91b6044820152606401610195565b600280546001600160a01b0319166001600160a01b0383169081179091556040805163313ce56760e01b815290516000929163313ce5679160048083019260209291908290030181865afa158015610290573d6000803e3d6000fd5b505050506040513d601f19601f820116820180604052508101906102b49190610f92565b60ff1690506102c4816012610fcb565b6003555050565b600581815481106102db57600080fd5b6000918252602090912001546001600160a01b0316905081565b60015460025460405163e6a4390560e01b8152600092670de0b6b3a7640000926001600160a01b038087169363e6a439059361033993908316921690600401610fe4565b602060405180830381865afa925050508015610372575060408051601f3d908101601f1916820190925261036f91810190610ffe565b60015b1561057e575060015460025460405163e6a4390560e01b81526000926001600160a01b038781169363e6a43905936103b39383169290911690600401610fe4565b602060405180830381865afa1580156103d0573d6000803e3d6000fd5b505050506040513d601f19601f820116820180604052508101906103f49190610ffe565b9050600080826001600160a01b0316630902f1ac6040518163ffffffff1660e01b8152600401606060405180830381865afa158015610437573d6000803e3d6000fd5b505050506040513d601f19601f8201168201806040525081019061045b9190611037565b506001600160701b031691506001600160701b031691506000836001600160a01b0316630dfe16816040518163ffffffff1660e01b8152600401602060405180830381865afa1580156104b2573d6000803e3d6000fd5b505050506040513d601f19601f820116820180604052508101906104d69190610ffe565b905082158015906104e657508115155b15610579576001546001600160a01b0390811690821603610537578285600354600a610512919061116b565b61051c9085611177565b6105269190611177565b610530919061118e565b9550610569565b8185600354600a610548919061116b565b6105529086611177565b61055c9190611177565b610566919061118e565b95505b8515610579575050505050919050565b505050505b60005b60055481101561088f57836001600160a01b0316600582815481106105a8576105a86111b0565b6000918252602090912001546001600160a01b03161461087d57600581815481106105d5576105d56111b0565b60009182526020909120015460015460025460405163e6a4390560e01b81526001600160a01b039384169363e6a43905936106199390821692911690600401610fe4565b602060405180830381865afa925050508015610652575060408051601f3d908101601f1916820190925261064f91810190610ffe565b60015b1561087d575060006005828154811061066d5761066d6111b0565b60009182526020909120015460015460025460405163e6a4390560e01b81526001600160a01b039384169363e6a43905936106b19390821692911690600401610fe4565b602060405180830381865afa1580156106ce573d6000803e3d6000fd5b505050506040513d601f19601f820116820180604052508101906106f29190610ffe565b9050600080826001600160a01b0316630902f1ac6040518163ffffffff1660e01b8152600401606060405180830381865afa158015610735573d6000803e3d6000fd5b505050506040513d601f19601f820116820180604052508101906107599190611037565b506001600160701b031691506001600160701b031691506000836001600160a01b0316630dfe16816040518163ffffffff1660e01b8152600401602060405180830381865afa1580156107b0573d6000803e3d6000fd5b505050506040513d601f19601f820116820180604052508101906107d49190610ffe565b905082158015906107e457508115155b15610878576001546001600160a01b0390811690821603610835578286600354600a610810919061116b565b61081a9085611177565b6108249190611177565b61082e919061118e565b9650610867565b8186600354600a610846919061116b565b6108509086611177565b61085a9190611177565b610864919061118e565b96505b861561087857505050505050919050565b505050505b80610887816111c6565b915050610581565b5060009392505050565b60008054819081906001600160a01b0316816108b4866102f5565b60015460405163e6a4390560e01b81529192506001600160a01b038089169263e6a43905926108ea928c92911690600401610fe4565b602060405180830381865afa925050508015610923575060408051601f3d908101601f1916820190925261092091810190610ffe565b60015b15610a4b575060015460405163e6a4390560e01b81526001600160a01b038089169263e6a439059261095b928c921690600401610fe4565b602060405180830381865afa158015610978573d6000803e3d6000fd5b505050506040513d601f19601f8201168201806040525081019061099c9190610ffe565b6000549092506001600160a01b0390811690831603610a4b5760025460405163e6a4390560e01b81526001600160a01b038089169263e6a43905926109e7928c921690600401610fe4565b602060405180830381865afa158015610a04573d6000803e3d6000fd5b505050506040513d601f19601f82011682018060405250810190610a289190610ffe565b6000549092506001600160a01b03808416911614610a4b5750670de0b6b3a76400005b6000546001600160a01b0390811690831603610c905760005b600554811015610c8e5760058181548110610a8157610a816111b0565b60009182526020909120015460015460405163e6a4390560e01b81526001600160a01b039283169263e6a4390592610ac1928d9290911690600401610fe4565b602060405180830381865afa925050508015610afa575060408051601f3d908101601f19168201909252610af791810190610ffe565b60015b15610c7c575060058181548110610b1357610b136111b0565b60009182526020909120015460015460405163e6a4390560e01b81526001600160a01b039283169263e6a4390592610b53928d9290911690600401610fe4565b602060405180830381865afa158015610b70573d6000803e3d6000fd5b505050506040513d601f19601f82011682018060405250810190610b949190610ffe565b6000549093506001600160a01b0390811690841603610c655760058181548110610bc057610bc06111b0565b60009182526020909120015460025460405163e6a4390560e01b81526001600160a01b039283169263e6a4390592610c00928d9290911690600401610fe4565b602060405180830381865afa158015610c1d573d6000803e3d6000fd5b505050506040513d601f19601f82011682018060405250810190610c419190610ffe565b6000549093506001600160a01b03808516911614610c6557670de0b6b3a764000091505b6000546001600160a01b0390811690841603610c8e575b80610c86816111c6565b915050610a64565b505b816001600160a01b0316630902f1ac6040518163ffffffff1660e01b8152600401606060405180830381865afa925050508015610cea575060408051601f3d908101601f19168201909252610ce791810190611037565b60015b610d005760008060009450945094505050610ee7565b505050600080836001600160a01b0316630902f1ac6040518163ffffffff1660e01b8152600401606060405180830381865afa158015610d44573d6000803e3d6000fd5b505050506040513d601f19601f82011682018060405250810190610d689190611037565b506001600160701b031691506001600160701b031691506000846001600160a01b0316630dfe16816040518163ffffffff1660e01b8152600401602060405180830381865afa158015610dbf573d6000803e3d6000fd5b505050506040513d601f19601f82011682018060405250810190610de39190610ffe565b90506000856001600160a01b031663d21220a76040518163ffffffff1660e01b8152600401602060405180830381865afa158015610e25573d6000803e3d6000fd5b505050506040513d601f19601f82011682018060405250810190610e499190610ffe565b90508a6001600160a01b0316826001600160a01b031603610ea4576002546001600160a01b03828116911614610e7f5782610e97565b600354610e8d90600a61116b565b610e979084611177565b9850839750849650610ee0565b6002546001600160a01b03838116911614610ebf5783610ed7565b600354610ecd90600a61116b565b610ed79085611177565b98508297508496505b5050505050505b9250925092565b6001600160a01b03811681146101eb57600080fd5b600060208284031215610f1557600080fd5b8135610f2081610eee565b9392505050565b600060208284031215610f3957600080fd5b5035919050565b60008060408385031215610f5357600080fd5b8235610f5e81610eee565b91506020830135610f6e81610eee565b809150509250929050565b600060208284031215610f8b57600080fd5b5051919050565b600060208284031215610fa457600080fd5b815160ff81168114610f2057600080fd5b634e487b7160e01b600052601160045260246000fd5b81810381811115610fde57610fde610fb5565b92915050565b6001600160a01b0392831681529116602082015260400190565b60006020828403121561101057600080fd5b8151610f2081610eee565b80516001600160701b038116811461103257600080fd5b919050565b60008060006060848603121561104c57600080fd5b6110558461101b565b92506110636020850161101b565b9150604084015163ffffffff8116811461107c57600080fd5b809150509250925092565b600181815b808511156110c25781600019048211156110a8576110a8610fb5565b808516156110b557918102915b93841c939080029061108c565b509250929050565b6000826110d957506001610fde565b816110e657506000610fde565b81600181146110fc576002811461110657611122565b6001915050610fde565b60ff84111561111757611117610fb5565b50506001821b610fde565b5060208310610133831016604e8410600b8410161715611145575081810a610fde565b61114f8383611087565b806000190482111561116357611163610fb5565b029392505050565b6000610f2083836110ca565b8082028115828204841417610fde57610fde610fb5565b6000826111ab57634e487b7160e01b600052601260045260246000fd5b500490565b634e487b7160e01b600052603260045260246000fd5b6000600182016111d8576111d8610fb5565b506001019056fea2646970667358221220aa544224c4b677d740a0b01cbfc02f672a2e93cfdb54b4156c49d1ea8e22242d64736f6c63430008120033",
			"opcodes": "PUSH1 0x80 PUSH1 0x40 MSTORE PUSH1 0x0 DUP1 SLOAD PUSH1 0x1 PUSH1 0x1 PUSH1 0xA0 SHL SUB NOT AND SWAP1 SSTORE CALLVALUE DUP1 ISZERO PUSH3 0x21 JUMPI PUSH1 0x0 DUP1 REVERT JUMPDEST POP PUSH1 0x40 MLOAD PUSH3 0x154A CODESIZE SUB DUP1 PUSH3 0x154A DUP4 CODECOPY DUP2 ADD PUSH1 0x40 DUP2 SWAP1 MSTORE PUSH3 0x44 SWAP2 PUSH3 0x1D7 JUMP JUMPDEST PUSH1 0x1 DUP1 SLOAD PUSH1 0x1 PUSH1 0x1 PUSH1 0xA0 SHL SUB DUP1 DUP7 AND PUSH1 0x1 PUSH1 0x1 PUSH1 0xA0 SHL SUB NOT SWAP3 DUP4 AND OR SWAP1 SWAP3 SSTORE PUSH1 0x2 DUP1 SLOAD SWAP3 DUP6 AND SWAP3 SWAP1 SWAP2 AND SWAP2 SWAP1 SWAP2 OR SWAP1 SSTORE DUP1 MLOAD PUSH3 0x89 SWAP1 PUSH1 0x5 SWAP1 PUSH1 0x20 DUP5 ADD SWAP1 PUSH3 0x123 JUMP JUMPDEST POP PUSH1 0x0 DUP3 PUSH1 0x1 PUSH1 0x1 PUSH1 0xA0 SHL SUB AND PUSH4 0x313CE567 PUSH1 0x40 MLOAD DUP2 PUSH4 0xFFFFFFFF AND PUSH1 0xE0 SHL DUP2 MSTORE PUSH1 0x4 ADD PUSH1 0x20 PUSH1 0x40 MLOAD DUP1 DUP4 SUB DUP2 DUP7 GAS STATICCALL ISZERO DUP1 ISZERO PUSH3 0xCB JUMPI RETURNDATASIZE PUSH1 0x0 DUP1 RETURNDATACOPY RETURNDATASIZE PUSH1 0x0 REVERT JUMPDEST POP POP POP POP PUSH1 0x40 MLOAD RETURNDATASIZE PUSH1 0x1F NOT PUSH1 0x1F DUP3 ADD AND DUP3 ADD DUP1 PUSH1 0x40 MSTORE POP DUP2 ADD SWAP1 PUSH3 0xF1 SWAP2 SWAP1 PUSH3 0x2D1 JUMP JUMPDEST PUSH1 0xFF AND SWAP1 POP PUSH3 0x103 DUP2 PUSH1 0x12 PUSH3 0x2FD JUMP JUMPDEST PUSH1 0x3 SSTORE POP POP PUSH1 0x4 DUP1 SLOAD PUSH1 0x1 PUSH1 0x1 PUSH1 0xA0 SHL SUB NOT AND CALLER OR SWAP1 SSTORE POP PUSH3 0x325 SWAP1 POP JUMP JUMPDEST DUP3 DUP1 SLOAD DUP3 DUP3 SSTORE SWAP1 PUSH1 0x0 MSTORE PUSH1 0x20 PUSH1 0x0 KECCAK256 SWAP1 DUP2 ADD SWAP3 DUP3 ISZERO PUSH3 0x17B JUMPI SWAP2 PUSH1 0x20 MUL DUP3 ADD JUMPDEST DUP3 DUP2 GT ISZERO PUSH3 0x17B JUMPI DUP3 MLOAD DUP3 SLOAD PUSH1 0x1 PUSH1 0x1 PUSH1 0xA0 SHL SUB NOT AND PUSH1 0x1 PUSH1 0x1 PUSH1 0xA0 SHL SUB SWAP1 SWAP2 AND OR DUP3 SSTORE PUSH1 0x20 SWAP1 SWAP3 ADD SWAP2 PUSH1 0x1 SWAP1 SWAP2 ADD SWAP1 PUSH3 0x144 JUMP JUMPDEST POP PUSH3 0x189 SWAP3 SWAP2 POP PUSH3 0x18D JUMP JUMPDEST POP SWAP1 JUMP JUMPDEST JUMPDEST DUP1 DUP3 GT ISZERO PUSH3 0x189 JUMPI PUSH1 0x0 DUP2 SSTORE PUSH1 0x1 ADD PUSH3 0x18E JUMP JUMPDEST DUP1 MLOAD PUSH1 0x1 PUSH1 0x1 PUSH1 0xA0 SHL SUB DUP2 AND DUP2 EQ PUSH3 0x1BC JUMPI PUSH1 0x0 DUP1 REVERT JUMPDEST SWAP2 SWAP1 POP JUMP JUMPDEST PUSH4 0x4E487B71 PUSH1 0xE0 SHL PUSH1 0x0 MSTORE PUSH1 0x41 PUSH1 0x4 MSTORE PUSH1 0x24 PUSH1 0x0 REVERT JUMPDEST PUSH1 0x0 DUP1 PUSH1 0x0 PUSH1 0x60 DUP5 DUP7 SUB SLT ISZERO PUSH3 0x1ED JUMPI PUSH1 0x0 DUP1 REVERT JUMPDEST PUSH3 0x1F8 DUP5 PUSH3 0x1A4 JUMP JUMPDEST SWAP3 POP PUSH1 0x20 PUSH3 0x209 DUP2 DUP7 ADD PUSH3 0x1A4 JUMP JUMPDEST PUSH1 0x40 DUP7 ADD MLOAD SWAP1 SWAP4 POP PUSH1 0x1 PUSH1 0x1 PUSH1 0x40 SHL SUB DUP1 DUP3 GT ISZERO PUSH3 0x227 JUMPI PUSH1 0x0 DUP1 REVERT JUMPDEST DUP2 DUP8 ADD SWAP2 POP DUP8 PUSH1 0x1F DUP4 ADD SLT PUSH3 0x23C JUMPI PUSH1 0x0 DUP1 REVERT JUMPDEST DUP2 MLOAD DUP2 DUP2 GT ISZERO PUSH3 0x251 JUMPI PUSH3 0x251 PUSH3 0x1C1 JUMP JUMPDEST DUP1 PUSH1 0x5 SHL PUSH1 0x40 MLOAD PUSH1 0x1F NOT PUSH1 0x3F DUP4 ADD AND DUP2 ADD DUP2 DUP2 LT DUP6 DUP3 GT OR ISZERO PUSH3 0x279 JUMPI PUSH3 0x279 PUSH3 0x1C1 JUMP JUMPDEST PUSH1 0x40 MSTORE SWAP2 DUP3 MSTORE DUP5 DUP3 ADD SWAP3 POP DUP4 DUP2 ADD DUP6 ADD SWAP2 DUP11 DUP4 GT ISZERO PUSH3 0x298 JUMPI PUSH1 0x0 DUP1 REVERT JUMPDEST SWAP4 DUP6 ADD SWAP4 JUMPDEST DUP3 DUP6 LT ISZERO PUSH3 0x2C1 JUMPI PUSH3 0x2B1 DUP6 PUSH3 0x1A4 JUMP JUMPDEST DUP5 MSTORE SWAP4 DUP6 ADD SWAP4 SWAP3 DUP6 ADD SWAP3 PUSH3 0x29D JUMP JUMPDEST DUP1 SWAP7 POP POP POP POP POP POP POP SWAP3 POP SWAP3 POP SWAP3 JUMP JUMPDEST PUSH1 0x0 PUSH1 0x20 DUP3 DUP5 SUB SLT ISZERO PUSH3 0x2E4 JUMPI PUSH1 0x0 DUP1 REVERT JUMPDEST DUP2 MLOAD PUSH1 0xFF DUP2 AND DUP2 EQ PUSH3 0x2F6 JUMPI PUSH1 0x0 DUP1 REVERT JUMPDEST SWAP4 SWAP3 POP POP POP JUMP JUMPDEST DUP2 DUP2 SUB DUP2 DUP2 GT ISZERO PUSH3 0x31F JUMPI PUSH4 0x4E487B71 PUSH1 0xE0 SHL PUSH1 0x0 MSTORE PUSH1 0x11 PUSH1 0x4 MSTORE PUSH1 0x24 PUSH1 0x0 REVERT JUMPDEST SWAP3 SWAP2 POP POP JUMP JUMPDEST PUSH2 0x1215 DUP1 PUSH3 0x335 PUSH1 0x0 CODECOPY PUSH1 0x0 RETURN INVALID PUSH1 0x80 PUSH1 0x40 MSTORE CALLVALUE DUP1 ISZERO PUSH2 0x10 JUMPI PUSH1 0x0 DUP1 REVERT JUMPDEST POP PUSH1 0x4 CALLDATASIZE LT PUSH2 0x57 JUMPI PUSH1 0x0 CALLDATALOAD PUSH1 0xE0 SHR DUP1 PUSH4 0x29CE1EC5 EQ PUSH2 0x5C JUMPI DUP1 PUSH4 0x4782E407 EQ PUSH2 0x71 JUMPI DUP1 PUSH4 0x672383C4 EQ PUSH2 0x84 JUMPI DUP1 PUSH4 0x6CFF8234 EQ PUSH2 0xB4 JUMPI DUP1 PUSH4 0xA6D6E2CA EQ PUSH2 0xD5 JUMPI JUMPDEST PUSH1 0x0 DUP1 REVERT JUMPDEST PUSH2 0x6F PUSH2 0x6A CALLDATASIZE PUSH1 0x4 PUSH2 0xF03 JUMP JUMPDEST PUSH2 0x103 JUMP JUMPDEST STOP JUMPDEST PUSH2 0x6F PUSH2 0x7F CALLDATASIZE PUSH1 0x4 PUSH2 0xF03 JUMP JUMPDEST PUSH2 0x1EE JUMP JUMPDEST PUSH2 0x97 PUSH2 0x92 CALLDATASIZE PUSH1 0x4 PUSH2 0xF27 JUMP JUMPDEST PUSH2 0x2CB JUMP JUMPDEST PUSH1 0x40 MLOAD PUSH1 0x1 PUSH1 0x1 PUSH1 0xA0 SHL SUB SWAP1 SWAP2 AND DUP2 MSTORE PUSH1 0x20 ADD JUMPDEST PUSH1 0x40 MLOAD DUP1 SWAP2 SUB SWAP1 RETURN JUMPDEST PUSH2 0xC7 PUSH2 0xC2 CALLDATASIZE PUSH1 0x4 PUSH2 0xF03 JUMP JUMPDEST PUSH2 0x2F5 JUMP JUMPDEST PUSH1 0x40 MLOAD SWAP1 DUP2 MSTORE PUSH1 0x20 ADD PUSH2 0xAB JUMP JUMPDEST PUSH2 0xE8 PUSH2 0xE3 CALLDATASIZE PUSH1 0x4 PUSH2 0xF40 JUMP JUMPDEST PUSH2 0x899 JUMP JUMPDEST PUSH1 0x40 DUP1 MLOAD SWAP4 DUP5 MSTORE PUSH1 0x20 DUP5 ADD SWAP3 SWAP1 SWAP3 MSTORE SWAP1 DUP3 ADD MSTORE PUSH1 0x60 ADD PUSH2 0xAB JUMP JUMPDEST DUP1 PUSH1 0x1 PUSH1 0x1 PUSH1 0xA0 SHL SUB AND PUSH4 0x574F2BA3 PUSH1 0x40 MLOAD DUP2 PUSH4 0xFFFFFFFF AND PUSH1 0xE0 SHL DUP2 MSTORE PUSH1 0x4 ADD PUSH1 0x20 PUSH1 0x40 MLOAD DUP1 DUP4 SUB DUP2 DUP7 GAS STATICCALL SWAP3 POP POP POP DUP1 ISZERO PUSH2 0x15D JUMPI POP PUSH1 0x40 DUP1 MLOAD PUSH1 0x1F RETURNDATASIZE SWAP1 DUP2 ADD PUSH1 0x1F NOT AND DUP3 ADD SWAP1 SWAP3 MSTORE PUSH2 0x15A SWAP2 DUP2 ADD SWAP1 PUSH2 0xF79 JUMP JUMPDEST PUSH1 0x1 JUMPDEST PUSH2 0x19E JUMPI PUSH1 0x40 MLOAD PUSH3 0x461BCD PUSH1 0xE5 SHL DUP2 MSTORE PUSH1 0x20 PUSH1 0x4 DUP3 ADD MSTORE PUSH1 0xD PUSH1 0x24 DUP3 ADD MSTORE PUSH13 0x4E6F74206120666163746F7279 PUSH1 0x98 SHL PUSH1 0x44 DUP3 ADD MSTORE PUSH1 0x64 ADD JUMPDEST PUSH1 0x40 MLOAD DUP1 SWAP2 SUB SWAP1 REVERT JUMPDEST POP PUSH1 0x5 DUP1 SLOAD PUSH1 0x1 DUP2 ADD DUP3 SSTORE PUSH1 0x0 SWAP2 SWAP1 SWAP2 MSTORE PUSH32 0x36B6384B5ECA791C62761152D0C79BB0604C104A5FB6F4EB0703F3154BB3DB0 ADD DUP1 SLOAD PUSH1 0x1 PUSH1 0x1 PUSH1 0xA0 SHL SUB NOT AND PUSH1 0x1 PUSH1 0x1 PUSH1 0xA0 SHL SUB DUP4 AND OR SWAP1 SSTORE JUMPDEST POP JUMP JUMPDEST PUSH1 0x4 SLOAD PUSH1 0x1 PUSH1 0x1 PUSH1 0xA0 SHL SUB AND CALLER EQ PUSH2 0x234 JUMPI PUSH1 0x40 MLOAD PUSH3 0x461BCD PUSH1 0xE5 SHL DUP2 MSTORE PUSH1 0x20 PUSH1 0x4 DUP3 ADD MSTORE PUSH1 0x9 PUSH1 0x24 DUP3 ADD MSTORE PUSH9 0x2737BA1027BBB732B9 PUSH1 0xB9 SHL PUSH1 0x44 DUP3 ADD MSTORE PUSH1 0x64 ADD PUSH2 0x195 JUMP JUMPDEST PUSH1 0x2 DUP1 SLOAD PUSH1 0x1 PUSH1 0x1 PUSH1 0xA0 SHL SUB NOT AND PUSH1 0x1 PUSH1 0x1 PUSH1 0xA0 SHL SUB DUP4 AND SWAP1 DUP2 OR SWAP1 SWAP2 SSTORE PUSH1 0x40 DUP1 MLOAD PUSH4 0x313CE567 PUSH1 0xE0 SHL DUP2 MSTORE SWAP1 MLOAD PUSH1 0x0 SWAP3 SWAP2 PUSH4 0x313CE567 SWAP2 PUSH1 0x4 DUP1 DUP4 ADD SWAP3 PUSH1 0x20 SWAP3 SWAP2 SWAP1 DUP3 SWAP1 SUB ADD DUP2 DUP7 GAS STATICCALL ISZERO DUP1 ISZERO PUSH2 0x290 JUMPI RETURNDATASIZE PUSH1 0x0 DUP1 RETURNDATACOPY RETURNDATASIZE PUSH1 0x0 REVERT JUMPDEST POP POP POP POP PUSH1 0x40 MLOAD RETURNDATASIZE PUSH1 0x1F NOT PUSH1 0x1F DUP3 ADD AND DUP3 ADD DUP1 PUSH1 0x40 MSTORE POP DUP2 ADD SWAP1 PUSH2 0x2B4 SWAP2 SWAP1 PUSH2 0xF92 JUMP JUMPDEST PUSH1 0xFF AND SWAP1 POP PUSH2 0x2C4 DUP2 PUSH1 0x12 PUSH2 0xFCB JUMP JUMPDEST PUSH1 0x3 SSTORE POP POP JUMP JUMPDEST PUSH1 0x5 DUP2 DUP2 SLOAD DUP2 LT PUSH2 0x2DB JUMPI PUSH1 0x0 DUP1 REVERT JUMPDEST PUSH1 0x0 SWAP2 DUP3 MSTORE PUSH1 0x20 SWAP1 SWAP2 KECCAK256 ADD SLOAD PUSH1 0x1 PUSH1 0x1 PUSH1 0xA0 SHL SUB AND SWAP1 POP DUP2 JUMP JUMPDEST PUSH1 0x1 SLOAD PUSH1 0x2 SLOAD PUSH1 0x40 MLOAD PUSH4 0xE6A43905 PUSH1 0xE0 SHL DUP2 MSTORE PUSH1 0x0 SWAP3 PUSH8 0xDE0B6B3A7640000 SWAP3 PUSH1 0x1 PUSH1 0x1 PUSH1 0xA0 SHL SUB DUP1 DUP8 AND SWAP4 PUSH4 0xE6A43905 SWAP4 PUSH2 0x339 SWAP4 SWAP1 DUP4 AND SWAP3 AND SWAP1 PUSH1 0x4 ADD PUSH2 0xFE4 JUMP JUMPDEST PUSH1 0x20 PUSH1 0x40 MLOAD DUP1 DUP4 SUB DUP2 DUP7 GAS STATICCALL SWAP3 POP POP POP DUP1 ISZERO PUSH2 0x372 JUMPI POP PUSH1 0x40 DUP1 MLOAD PUSH1 0x1F RETURNDATASIZE SWAP1 DUP2 ADD PUSH1 0x1F NOT AND DUP3 ADD SWAP1 SWAP3 MSTORE PUSH2 0x36F SWAP2 DUP2 ADD SWAP1 PUSH2 0xFFE JUMP JUMPDEST PUSH1 0x1 JUMPDEST ISZERO PUSH2 0x57E JUMPI POP PUSH1 0x1 SLOAD PUSH1 0x2 SLOAD PUSH1 0x40 MLOAD PUSH4 0xE6A43905 PUSH1 0xE0 SHL DUP2 MSTORE PUSH1 0x0 SWAP3 PUSH1 0x1 PUSH1 0x1 PUSH1 0xA0 SHL SUB DUP8 DUP2 AND SWAP4 PUSH4 0xE6A43905 SWAP4 PUSH2 0x3B3 SWAP4 DUP4 AND SWAP3 SWAP1 SWAP2 AND SWAP1 PUSH1 0x4 ADD PUSH2 0xFE4 JUMP JUMPDEST PUSH1 0x20 PUSH1 0x40 MLOAD DUP1 DUP4 SUB DUP2 DUP7 GAS STATICCALL ISZERO DUP1 ISZERO PUSH2 0x3D0 JUMPI RETURNDATASIZE PUSH1 0x0 DUP1 RETURNDATACOPY RETURNDATASIZE PUSH1 0x0 REVERT JUMPDEST POP POP POP POP PUSH1 0x40 MLOAD RETURNDATASIZE PUSH1 0x1F NOT PUSH1 0x1F DUP3 ADD AND DUP3 ADD DUP1 PUSH1 0x40 MSTORE POP DUP2 ADD SWAP1 PUSH2 0x3F4 SWAP2 SWAP1 PUSH2 0xFFE JUMP JUMPDEST SWAP1 POP PUSH1 0x0 DUP1 DUP3 PUSH1 0x1 PUSH1 0x1 PUSH1 0xA0 SHL SUB AND PUSH4 0x902F1AC PUSH1 0x40 MLOAD DUP2 PUSH4 0xFFFFFFFF AND PUSH1 0xE0 SHL DUP2 MSTORE PUSH1 0x4 ADD PUSH1 0x60 PUSH1 0x40 MLOAD DUP1 DUP4 SUB DUP2 DUP7 GAS STATICCALL ISZERO DUP1 ISZERO PUSH2 0x437 JUMPI RETURNDATASIZE PUSH1 0x0 DUP1 RETURNDATACOPY RETURNDATASIZE PUSH1 0x0 REVERT JUMPDEST POP POP POP POP PUSH1 0x40 MLOAD RETURNDATASIZE PUSH1 0x1F NOT PUSH1 0x1F DUP3 ADD AND DUP3 ADD DUP1 PUSH1 0x40 MSTORE POP DUP2 ADD SWAP1 PUSH2 0x45B SWAP2 SWAP1 PUSH2 0x1037 JUMP JUMPDEST POP PUSH1 0x1 PUSH1 0x1 PUSH1 0x70 SHL SUB AND SWAP2 POP PUSH1 0x1 PUSH1 0x1 PUSH1 0x70 SHL SUB AND SWAP2 POP PUSH1 0x0 DUP4 PUSH1 0x1 PUSH1 0x1 PUSH1 0xA0 SHL SUB AND PUSH4 0xDFE1681 PUSH1 0x40 MLOAD DUP2 PUSH4 0xFFFFFFFF AND PUSH1 0xE0 SHL DUP2 MSTORE PUSH1 0x4 ADD PUSH1 0x20 PUSH1 0x40 MLOAD DUP1 DUP4 SUB DUP2 DUP7 GAS STATICCALL ISZERO DUP1 ISZERO PUSH2 0x4B2 JUMPI RETURNDATASIZE PUSH1 0x0 DUP1 RETURNDATACOPY RETURNDATASIZE PUSH1 0x0 REVERT JUMPDEST POP POP POP POP PUSH1 0x40 MLOAD RETURNDATASIZE PUSH1 0x1F NOT PUSH1 0x1F DUP3 ADD AND DUP3 ADD DUP1 PUSH1 0x40 MSTORE POP DUP2 ADD SWAP1 PUSH2 0x4D6 SWAP2 SWAP1 PUSH2 0xFFE JUMP JUMPDEST SWAP1 POP DUP3 ISZERO DUP1 ISZERO SWAP1 PUSH2 0x4E6 JUMPI POP DUP2 ISZERO ISZERO JUMPDEST ISZERO PUSH2 0x579 JUMPI PUSH1 0x1 SLOAD PUSH1 0x1 PUSH1 0x1 PUSH1 0xA0 SHL SUB SWAP1 DUP2 AND SWAP1 DUP3 AND SUB PUSH2 0x537 JUMPI DUP3 DUP6 PUSH1 0x3 SLOAD PUSH1 0xA PUSH2 0x512 SWAP2 SWAP1 PUSH2 0x116B JUMP JUMPDEST PUSH2 0x51C SWAP1 DUP6 PUSH2 0x1177 JUMP JUMPDEST PUSH2 0x526 SWAP2 SWAP1 PUSH2 0x1177 JUMP JUMPDEST PUSH2 0x530 SWAP2 SWAP1 PUSH2 0x118E JUMP JUMPDEST SWAP6 POP PUSH2 0x569 JUMP JUMPDEST DUP2 DUP6 PUSH1 0x3 SLOAD PUSH1 0xA PUSH2 0x548 SWAP2 SWAP1 PUSH2 0x116B JUMP JUMPDEST PUSH2 0x552 SWAP1 DUP7 PUSH2 0x1177 JUMP JUMPDEST PUSH2 0x55C SWAP2 SWAP1 PUSH2 0x1177 JUMP JUMPDEST PUSH2 0x566 SWAP2 SWAP1 PUSH2 0x118E JUMP JUMPDEST SWAP6 POP JUMPDEST DUP6 ISZERO PUSH2 0x579 JUMPI POP POP POP POP POP SWAP2 SWAP1 POP JUMP JUMPDEST POP POP POP POP JUMPDEST PUSH1 0x0 JUMPDEST PUSH1 0x5 SLOAD DUP2 LT ISZERO PUSH2 0x88F JUMPI DUP4 PUSH1 0x1 PUSH1 0x1 PUSH1 0xA0 SHL SUB AND PUSH1 0x5 DUP3 DUP2 SLOAD DUP2 LT PUSH2 0x5A8 JUMPI PUSH2 0x5A8 PUSH2 0x11B0 JUMP JUMPDEST PUSH1 0x0 SWAP2 DUP3 MSTORE PUSH1 0x20 SWAP1 SWAP2 KECCAK256 ADD SLOAD PUSH1 0x1 PUSH1 0x1 PUSH1 0xA0 SHL SUB AND EQ PUSH2 0x87D JUMPI PUSH1 0x5 DUP2 DUP2 SLOAD DUP2 LT PUSH2 0x5D5 JUMPI PUSH2 0x5D5 PUSH2 0x11B0 JUMP JUMPDEST PUSH1 0x0 SWAP2 DUP3 MSTORE PUSH1 0x20 SWAP1 SWAP2 KECCAK256 ADD SLOAD PUSH1 0x1 SLOAD PUSH1 0x2 SLOAD PUSH1 0x40 MLOAD PUSH4 0xE6A43905 PUSH1 0xE0 SHL DUP2 MSTORE PUSH1 0x1 PUSH1 0x1 PUSH1 0xA0 SHL SUB SWAP4 DUP5 AND SWAP4 PUSH4 0xE6A43905 SWAP4 PUSH2 0x619 SWAP4 SWAP1 DUP3 AND SWAP3 SWAP2 AND SWAP1 PUSH1 0x4 ADD PUSH2 0xFE4 JUMP JUMPDEST PUSH1 0x20 PUSH1 0x40 MLOAD DUP1 DUP4 SUB DUP2 DUP7 GAS STATICCALL SWAP3 POP POP POP DUP1 ISZERO PUSH2 0x652 JUMPI POP PUSH1 0x40 DUP1 MLOAD PUSH1 0x1F RETURNDATASIZE SWAP1 DUP2 ADD PUSH1 0x1F NOT AND DUP3 ADD SWAP1 SWAP3 MSTORE PUSH2 0x64F SWAP2 DUP2 ADD SWAP1 PUSH2 0xFFE JUMP JUMPDEST PUSH1 0x1 JUMPDEST ISZERO PUSH2 0x87D JUMPI POP PUSH1 0x0 PUSH1 0x5 DUP3 DUP2 SLOAD DUP2 LT PUSH2 0x66D JUMPI PUSH2 0x66D PUSH2 0x11B0 JUMP JUMPDEST PUSH1 0x0 SWAP2 DUP3 MSTORE PUSH1 0x20 SWAP1 SWAP2 KECCAK256 ADD SLOAD PUSH1 0x1 SLOAD PUSH1 0x2 SLOAD PUSH1 0x40 MLOAD PUSH4 0xE6A43905 PUSH1 0xE0 SHL DUP2 MSTORE PUSH1 0x1 PUSH1 0x1 PUSH1 0xA0 SHL SUB SWAP4 DUP5 AND SWAP4 PUSH4 0xE6A43905 SWAP4 PUSH2 0x6B1 SWAP4 SWAP1 DUP3 AND SWAP3 SWAP2 AND SWAP1 PUSH1 0x4 ADD PUSH2 0xFE4 JUMP JUMPDEST PUSH1 0x20 PUSH1 0x40 MLOAD DUP1 DUP4 SUB DUP2 DUP7 GAS STATICCALL ISZERO DUP1 ISZERO PUSH2 0x6CE JUMPI RETURNDATASIZE PUSH1 0x0 DUP1 RETURNDATACOPY RETURNDATASIZE PUSH1 0x0 REVERT JUMPDEST POP POP POP POP PUSH1 0x40 MLOAD RETURNDATASIZE PUSH1 0x1F NOT PUSH1 0x1F DUP3 ADD AND DUP3 ADD DUP1 PUSH1 0x40 MSTORE POP DUP2 ADD SWAP1 PUSH2 0x6F2 SWAP2 SWAP1 PUSH2 0xFFE JUMP JUMPDEST SWAP1 POP PUSH1 0x0 DUP1 DUP3 PUSH1 0x1 PUSH1 0x1 PUSH1 0xA0 SHL SUB AND PUSH4 0x902F1AC PUSH1 0x40 MLOAD DUP2 PUSH4 0xFFFFFFFF AND PUSH1 0xE0 SHL DUP2 MSTORE PUSH1 0x4 ADD PUSH1 0x60 PUSH1 0x40 MLOAD DUP1 DUP4 SUB DUP2 DUP7 GAS STATICCALL ISZERO DUP1 ISZERO PUSH2 0x735 JUMPI RETURNDATASIZE PUSH1 0x0 DUP1 RETURNDATACOPY RETURNDATASIZE PUSH1 0x0 REVERT JUMPDEST POP POP POP POP PUSH1 0x40 MLOAD RETURNDATASIZE PUSH1 0x1F NOT PUSH1 0x1F DUP3 ADD AND DUP3 ADD DUP1 PUSH1 0x40 MSTORE POP DUP2 ADD SWAP1 PUSH2 0x759 SWAP2 SWAP1 PUSH2 0x1037 JUMP JUMPDEST POP PUSH1 0x1 PUSH1 0x1 PUSH1 0x70 SHL SUB AND SWAP2 POP PUSH1 0x1 PUSH1 0x1 PUSH1 0x70 SHL SUB AND SWAP2 POP PUSH1 0x0 DUP4 PUSH1 0x1 PUSH1 0x1 PUSH1 0xA0 SHL SUB AND PUSH4 0xDFE1681 PUSH1 0x40 MLOAD DUP2 PUSH4 0xFFFFFFFF AND PUSH1 0xE0 SHL DUP2 MSTORE PUSH1 0x4 ADD PUSH1 0x20 PUSH1 0x40 MLOAD DUP1 DUP4 SUB DUP2 DUP7 GAS STATICCALL ISZERO DUP1 ISZERO PUSH2 0x7B0 JUMPI RETURNDATASIZE PUSH1 0x0 DUP1 RETURNDATACOPY RETURNDATASIZE PUSH1 0x0 REVERT JUMPDEST POP POP POP POP PUSH1 0x40 MLOAD RETURNDATASIZE PUSH1 0x1F NOT PUSH1 0x1F DUP3 ADD AND DUP3 ADD DUP1 PUSH1 0x40 MSTORE POP DUP2 ADD SWAP1 PUSH2 0x7D4 SWAP2 SWAP1 PUSH2 0xFFE JUMP JUMPDEST SWAP1 POP DUP3 ISZERO DUP1 ISZERO SWAP1 PUSH2 0x7E4 JUMPI POP DUP2 ISZERO ISZERO JUMPDEST ISZERO PUSH2 0x878 JUMPI PUSH1 0x1 SLOAD PUSH1 0x1 PUSH1 0x1 PUSH1 0xA0 SHL SUB SWAP1 DUP2 AND SWAP1 DUP3 AND SUB PUSH2 0x835 JUMPI DUP3 DUP7 PUSH1 0x3 SLOAD PUSH1 0xA PUSH2 0x810 SWAP2 SWAP1 PUSH2 0x116B JUMP JUMPDEST PUSH2 0x81A SWAP1 DUP6 PUSH2 0x1177 JUMP JUMPDEST PUSH2 0x824 SWAP2 SWAP1 PUSH2 0x1177 JUMP JUMPDEST PUSH2 0x82E SWAP2 SWAP1 PUSH2 0x118E JUMP JUMPDEST SWAP7 POP PUSH2 0x867 JUMP JUMPDEST DUP2 DUP7 PUSH1 0x3 SLOAD PUSH1 0xA PUSH2 0x846 SWAP2 SWAP1 PUSH2 0x116B JUMP JUMPDEST PUSH2 0x850 SWAP1 DUP7 PUSH2 0x1177 JUMP JUMPDEST PUSH2 0x85A SWAP2 SWAP1 PUSH2 0x1177 JUMP JUMPDEST PUSH2 0x864 SWAP2 SWAP1 PUSH2 0x118E JUMP JUMPDEST SWAP7 POP JUMPDEST DUP7 ISZERO PUSH2 0x878 JUMPI POP POP POP POP POP POP SWAP2 SWAP1 POP JUMP JUMPDEST POP POP POP POP JUMPDEST DUP1 PUSH2 0x887 DUP2 PUSH2 0x11C6 JUMP JUMPDEST SWAP2 POP POP PUSH2 0x581 JUMP JUMPDEST POP PUSH1 0x0 SWAP4 SWAP3 POP POP POP JUMP JUMPDEST PUSH1 0x0 DUP1 SLOAD DUP2 SWAP1 DUP2 SWAP1 PUSH1 0x1 PUSH1 0x1 PUSH1 0xA0 SHL SUB AND DUP2 PUSH2 0x8B4 DUP7 PUSH2 0x2F5 JUMP JUMPDEST PUSH1 0x1 SLOAD PUSH1 0x40 MLOAD PUSH4 0xE6A43905 PUSH1 0xE0 SHL DUP2 MSTORE SWAP2 SWAP3 POP PUSH1 0x1 PUSH1 0x1 PUSH1 0xA0 SHL SUB DUP1 DUP10 AND SWAP3 PUSH4 0xE6A43905 SWAP3 PUSH2 0x8EA SWAP3 DUP13 SWAP3 SWAP2 AND SWAP1 PUSH1 0x4 ADD PUSH2 0xFE4 JUMP JUMPDEST PUSH1 0x20 PUSH1 0x40 MLOAD DUP1 DUP4 SUB DUP2 DUP7 GAS STATICCALL SWAP3 POP POP POP DUP1 ISZERO PUSH2 0x923 JUMPI POP PUSH1 0x40 DUP1 MLOAD PUSH1 0x1F RETURNDATASIZE SWAP1 DUP2 ADD PUSH1 0x1F NOT AND DUP3 ADD SWAP1 SWAP3 MSTORE PUSH2 0x920 SWAP2 DUP2 ADD SWAP1 PUSH2 0xFFE JUMP JUMPDEST PUSH1 0x1 JUMPDEST ISZERO PUSH2 0xA4B JUMPI POP PUSH1 0x1 SLOAD PUSH1 0x40 MLOAD PUSH4 0xE6A43905 PUSH1 0xE0 SHL DUP2 MSTORE PUSH1 0x1 PUSH1 0x1 PUSH1 0xA0 SHL SUB DUP1 DUP10 AND SWAP3 PUSH4 0xE6A43905 SWAP3 PUSH2 0x95B SWAP3 DUP13 SWAP3 AND SWAP1 PUSH1 0x4 ADD PUSH2 0xFE4 JUMP JUMPDEST PUSH1 0x20 PUSH1 0x40 MLOAD DUP1 DUP4 SUB DUP2 DUP7 GAS STATICCALL ISZERO DUP1 ISZERO PUSH2 0x978 JUMPI RETURNDATASIZE PUSH1 0x0 DUP1 RETURNDATACOPY RETURNDATASIZE PUSH1 0x0 REVERT JUMPDEST POP POP POP POP PUSH1 0x40 MLOAD RETURNDATASIZE PUSH1 0x1F NOT PUSH1 0x1F DUP3 ADD AND DUP3 ADD DUP1 PUSH1 0x40 MSTORE POP DUP2 ADD SWAP1 PUSH2 0x99C SWAP2 SWAP1 PUSH2 0xFFE JUMP JUMPDEST PUSH1 0x0 SLOAD SWAP1 SWAP3 POP PUSH1 0x1 PUSH1 0x1 PUSH1 0xA0 SHL SUB SWAP1 DUP2 AND SWAP1 DUP4 AND SUB PUSH2 0xA4B JUMPI PUSH1 0x2 SLOAD PUSH1 0x40 MLOAD PUSH4 0xE6A43905 PUSH1 0xE0 SHL DUP2 MSTORE PUSH1 0x1 PUSH1 0x1 PUSH1 0xA0 SHL SUB DUP1 DUP10 AND SWAP3 PUSH4 0xE6A43905 SWAP3 PUSH2 0x9E7 SWAP3 DUP13 SWAP3 AND SWAP1 PUSH1 0x4 ADD PUSH2 0xFE4 JUMP JUMPDEST PUSH1 0x20 PUSH1 0x40 MLOAD DUP1 DUP4 SUB DUP2 DUP7 GAS STATICCALL ISZERO DUP1 ISZERO PUSH2 0xA04 JUMPI RETURNDATASIZE PUSH1 0x0 DUP1 RETURNDATACOPY RETURNDATASIZE PUSH1 0x0 REVERT JUMPDEST POP POP POP POP PUSH1 0x40 MLOAD RETURNDATASIZE PUSH1 0x1F NOT PUSH1 0x1F DUP3 ADD AND DUP3 ADD DUP1 PUSH1 0x40 MSTORE POP DUP2 ADD SWAP1 PUSH2 0xA28 SWAP2 SWAP1 PUSH2 0xFFE JUMP JUMPDEST PUSH1 0x0 SLOAD SWAP1 SWAP3 POP PUSH1 0x1 PUSH1 0x1 PUSH1 0xA0 SHL SUB DUP1 DUP5 AND SWAP2 AND EQ PUSH2 0xA4B JUMPI POP PUSH8 0xDE0B6B3A7640000 JUMPDEST PUSH1 0x0 SLOAD PUSH1 0x1 PUSH1 0x1 PUSH1 0xA0 SHL SUB SWAP1 DUP2 AND SWAP1 DUP4 AND SUB PUSH2 0xC90 JUMPI PUSH1 0x0 JUMPDEST PUSH1 0x5 SLOAD DUP2 LT ISZERO PUSH2 0xC8E JUMPI PUSH1 0x5 DUP2 DUP2 SLOAD DUP2 LT PUSH2 0xA81 JUMPI PUSH2 0xA81 PUSH2 0x11B0 JUMP JUMPDEST PUSH1 0x0 SWAP2 DUP3 MSTORE PUSH1 0x20 SWAP1 SWAP2 KECCAK256 ADD SLOAD PUSH1 0x1 SLOAD PUSH1 0x40 MLOAD PUSH4 0xE6A43905 PUSH1 0xE0 SHL DUP2 MSTORE PUSH1 0x1 PUSH1 0x1 PUSH1 0xA0 SHL SUB SWAP3 DUP4 AND SWAP3 PUSH4 0xE6A43905 SWAP3 PUSH2 0xAC1 SWAP3 DUP14 SWAP3 SWAP1 SWAP2 AND SWAP1 PUSH1 0x4 ADD PUSH2 0xFE4 JUMP JUMPDEST PUSH1 0x20 PUSH1 0x40 MLOAD DUP1 DUP4 SUB DUP2 DUP7 GAS STATICCALL SWAP3 POP POP POP DUP1 ISZERO PUSH2 0xAFA JUMPI POP PUSH1 0x40 DUP1 MLOAD PUSH1 0x1F RETURNDATASIZE SWAP1 DUP2 ADD PUSH1 0x1F NOT AND DUP3 ADD SWAP1 SWAP3 MSTORE PUSH2 0xAF7 SWAP2 DUP2 ADD SWAP1 PUSH2 0xFFE JUMP JUMPDEST PUSH1 0x1 JUMPDEST ISZERO PUSH2 0xC7C JUMPI POP PUSH1 0x5 DUP2 DUP2 SLOAD DUP2 LT PUSH2 0xB13 JUMPI PUSH2 0xB13 PUSH2 0x11B0 JUMP JUMPDEST PUSH1 0x0 SWAP2 DUP3 MSTORE PUSH1 0x20 SWAP1 SWAP2 KECCAK256 ADD SLOAD PUSH1 0x1 SLOAD PUSH1 0x40 MLOAD PUSH4 0xE6A43905 PUSH1 0xE0 SHL DUP2 MSTORE PUSH1 0x1 PUSH1 0x1 PUSH1 0xA0 SHL SUB SWAP3 DUP4 AND SWAP3 PUSH4 0xE6A43905 SWAP3 PUSH2 0xB53 SWAP3 DUP14 SWAP3 SWAP1 SWAP2 AND SWAP1 PUSH1 0x4 ADD PUSH2 0xFE4 JUMP JUMPDEST PUSH1 0x20 PUSH1 0x40 MLOAD DUP1 DUP4 SUB DUP2 DUP7 GAS STATICCALL ISZERO DUP1 ISZERO PUSH2 0xB70 JUMPI RETURNDATASIZE PUSH1 0x0 DUP1 RETURNDATACOPY RETURNDATASIZE PUSH1 0x0 REVERT JUMPDEST POP POP POP POP PUSH1 0x40 MLOAD RETURNDATASIZE PUSH1 0x1F NOT PUSH1 0x1F DUP3 ADD AND DUP3 ADD DUP1 PUSH1 0x40 MSTORE POP DUP2 ADD SWAP1 PUSH2 0xB94 SWAP2 SWAP1 PUSH2 0xFFE JUMP JUMPDEST PUSH1 0x0 SLOAD SWAP1 SWAP4 POP PUSH1 0x1 PUSH1 0x1 PUSH1 0xA0 SHL SUB SWAP1 DUP2 AND SWAP1 DUP5 AND SUB PUSH2 0xC65 JUMPI PUSH1 0x5 DUP2 DUP2 SLOAD DUP2 LT PUSH2 0xBC0 JUMPI PUSH2 0xBC0 PUSH2 0x11B0 JUMP JUMPDEST PUSH1 0x0 SWAP2 DUP3 MSTORE PUSH1 0x20 SWAP1 SWAP2 KECCAK256 ADD SLOAD PUSH1 0x2 SLOAD PUSH1 0x40 MLOAD PUSH4 0xE6A43905 PUSH1 0xE0 SHL DUP2 MSTORE PUSH1 0x1 PUSH1 0x1 PUSH1 0xA0 SHL SUB SWAP3 DUP4 AND SWAP3 PUSH4 0xE6A43905 SWAP3 PUSH2 0xC00 SWAP3 DUP14 SWAP3 SWAP1 SWAP2 AND SWAP1 PUSH1 0x4 ADD PUSH2 0xFE4 JUMP JUMPDEST PUSH1 0x20 PUSH1 0x40 MLOAD DUP1 DUP4 SUB DUP2 DUP7 GAS STATICCALL ISZERO DUP1 ISZERO PUSH2 0xC1D JUMPI RETURNDATASIZE PUSH1 0x0 DUP1 RETURNDATACOPY RETURNDATASIZE PUSH1 0x0 REVERT JUMPDEST POP POP POP POP PUSH1 0x40 MLOAD RETURNDATASIZE PUSH1 0x1F NOT PUSH1 0x1F DUP3 ADD AND DUP3 ADD DUP1 PUSH1 0x40 MSTORE POP DUP2 ADD SWAP1 PUSH2 0xC41 SWAP2 SWAP1 PUSH2 0xFFE JUMP JUMPDEST PUSH1 0x0 SLOAD SWAP1 SWAP4 POP PUSH1 0x1 PUSH1 0x1 PUSH1 0xA0 SHL SUB DUP1 DUP6 AND SWAP2 AND EQ PUSH2 0xC65 JUMPI PUSH8 0xDE0B6B3A7640000 SWAP2 POP JUMPDEST PUSH1 0x0 SLOAD PUSH1 0x1 PUSH1 0x1 PUSH1 0xA0 SHL SUB SWAP1 DUP2 AND SWAP1 DUP5 AND SUB PUSH2 0xC8E JUMPI JUMPDEST DUP1 PUSH2 0xC86 DUP2 PUSH2 0x11C6 JUMP JUMPDEST SWAP2 POP POP PUSH2 0xA64 JUMP JUMPDEST POP JUMPDEST DUP2 PUSH1 0x1 PUSH1 0x1 PUSH1 0xA0 SHL SUB AND PUSH4 0x902F1AC PUSH1 0x40 MLOAD DUP2 PUSH4 0xFFFFFFFF AND PUSH1 0xE0 SHL DUP2 MSTORE PUSH1 0x4 ADD PUSH1 0x60 PUSH1 0x40 MLOAD DUP1 DUP4 SUB DUP2 DUP7 GAS STATICCALL SWAP3 POP POP POP DUP1 ISZERO PUSH2 0xCEA JUMPI POP PUSH1 0x40 DUP1 MLOAD PUSH1 0x1F RETURNDATASIZE SWAP1 DUP2 ADD PUSH1 0x1F NOT AND DUP3 ADD SWAP1 SWAP3 MSTORE PUSH2 0xCE7 SWAP2 DUP2 ADD SWAP1 PUSH2 0x1037 JUMP JUMPDEST PUSH1 0x1 JUMPDEST PUSH2 0xD00 JUMPI PUSH1 0x0 DUP1 PUSH1 0x0 SWAP5 POP SWAP5 POP SWAP5 POP POP POP PUSH2 0xEE7 JUMP JUMPDEST POP POP POP PUSH1 0x0 DUP1 DUP4 PUSH1 0x1 PUSH1 0x1 PUSH1 0xA0 SHL SUB AND PUSH4 0x902F1AC PUSH1 0x40 MLOAD DUP2 PUSH4 0xFFFFFFFF AND PUSH1 0xE0 SHL DUP2 MSTORE PUSH1 0x4 ADD PUSH1 0x60 PUSH1 0x40 MLOAD DUP1 DUP4 SUB DUP2 DUP7 GAS STATICCALL ISZERO DUP1 ISZERO PUSH2 0xD44 JUMPI RETURNDATASIZE PUSH1 0x0 DUP1 RETURNDATACOPY RETURNDATASIZE PUSH1 0x0 REVERT JUMPDEST POP POP POP POP PUSH1 0x40 MLOAD RETURNDATASIZE PUSH1 0x1F NOT PUSH1 0x1F DUP3 ADD AND DUP3 ADD DUP1 PUSH1 0x40 MSTORE POP DUP2 ADD SWAP1 PUSH2 0xD68 SWAP2 SWAP1 PUSH2 0x1037 JUMP JUMPDEST POP PUSH1 0x1 PUSH1 0x1 PUSH1 0x70 SHL SUB AND SWAP2 POP PUSH1 0x1 PUSH1 0x1 PUSH1 0x70 SHL SUB AND SWAP2 POP PUSH1 0x0 DUP5 PUSH1 0x1 PUSH1 0x1 PUSH1 0xA0 SHL SUB AND PUSH4 0xDFE1681 PUSH1 0x40 MLOAD DUP2 PUSH4 0xFFFFFFFF AND PUSH1 0xE0 SHL DUP2 MSTORE PUSH1 0x4 ADD PUSH1 0x20 PUSH1 0x40 MLOAD DUP1 DUP4 SUB DUP2 DUP7 GAS STATICCALL ISZERO DUP1 ISZERO PUSH2 0xDBF JUMPI RETURNDATASIZE PUSH1 0x0 DUP1 RETURNDATACOPY RETURNDATASIZE PUSH1 0x0 REVERT JUMPDEST POP POP POP POP PUSH1 0x40 MLOAD RETURNDATASIZE PUSH1 0x1F NOT PUSH1 0x1F DUP3 ADD AND DUP3 ADD DUP1 PUSH1 0x40 MSTORE POP DUP2 ADD SWAP1 PUSH2 0xDE3 SWAP2 SWAP1 PUSH2 0xFFE JUMP JUMPDEST SWAP1 POP PUSH1 0x0 DUP6 PUSH1 0x1 PUSH1 0x1 PUSH1 0xA0 SHL SUB AND PUSH4 0xD21220A7 PUSH1 0x40 MLOAD DUP2 PUSH4 0xFFFFFFFF AND PUSH1 0xE0 SHL DUP2 MSTORE PUSH1 0x4 ADD PUSH1 0x20 PUSH1 0x40 MLOAD DUP1 DUP4 SUB DUP2 DUP7 GAS STATICCALL ISZERO DUP1 ISZERO PUSH2 0xE25 JUMPI RETURNDATASIZE PUSH1 0x0 DUP1 RETURNDATACOPY RETURNDATASIZE PUSH1 0x0 REVERT JUMPDEST POP POP POP POP PUSH1 0x40 MLOAD RETURNDATASIZE PUSH1 0x1F NOT PUSH1 0x1F DUP3 ADD AND DUP3 ADD DUP1 PUSH1 0x40 MSTORE POP DUP2 ADD SWAP1 PUSH2 0xE49 SWAP2 SWAP1 PUSH2 0xFFE JUMP JUMPDEST SWAP1 POP DUP11 PUSH1 0x1 PUSH1 0x1 PUSH1 0xA0 SHL SUB AND DUP3 PUSH1 0x1 PUSH1 0x1 PUSH1 0xA0 SHL SUB AND SUB PUSH2 0xEA4 JUMPI PUSH1 0x2 SLOAD PUSH1 0x1 PUSH1 0x1 PUSH1 0xA0 SHL SUB DUP3 DUP2 AND SWAP2 AND EQ PUSH2 0xE7F JUMPI DUP3 PUSH2 0xE97 JUMP JUMPDEST PUSH1 0x3 SLOAD PUSH2 0xE8D SWAP1 PUSH1 0xA PUSH2 0x116B JUMP JUMPDEST PUSH2 0xE97 SWAP1 DUP5 PUSH2 0x1177 JUMP JUMPDEST SWAP9 POP DUP4 SWAP8 POP DUP5 SWAP7 POP PUSH2 0xEE0 JUMP JUMPDEST PUSH1 0x2 SLOAD PUSH1 0x1 PUSH1 0x1 PUSH1 0xA0 SHL SUB DUP4 DUP2 AND SWAP2 AND EQ PUSH2 0xEBF JUMPI DUP4 PUSH2 0xED7 JUMP JUMPDEST PUSH1 0x3 SLOAD PUSH2 0xECD SWAP1 PUSH1 0xA PUSH2 0x116B JUMP JUMPDEST PUSH2 0xED7 SWAP1 DUP6 PUSH2 0x1177 JUMP JUMPDEST SWAP9 POP DUP3 SWAP8 POP DUP5 SWAP7 POP JUMPDEST POP POP POP POP POP POP JUMPDEST SWAP3 POP SWAP3 POP SWAP3 JUMP JUMPDEST PUSH1 0x1 PUSH1 0x1 PUSH1 0xA0 SHL SUB DUP2 AND DUP2 EQ PUSH2 0x1EB JUMPI PUSH1 0x0 DUP1 REVERT JUMPDEST PUSH1 0x0 PUSH1 0x20 DUP3 DUP5 SUB SLT ISZERO PUSH2 0xF15 JUMPI PUSH1 0x0 DUP1 REVERT JUMPDEST DUP2 CALLDATALOAD PUSH2 0xF20 DUP2 PUSH2 0xEEE JUMP JUMPDEST SWAP4 SWAP3 POP POP POP JUMP JUMPDEST PUSH1 0x0 PUSH1 0x20 DUP3 DUP5 SUB SLT ISZERO PUSH2 0xF39 JUMPI PUSH1 0x0 DUP1 REVERT JUMPDEST POP CALLDATALOAD SWAP2 SWAP1 POP JUMP JUMPDEST PUSH1 0x0 DUP1 PUSH1 0x40 DUP4 DUP6 SUB SLT ISZERO PUSH2 0xF53 JUMPI PUSH1 0x0 DUP1 REVERT JUMPDEST DUP3 CALLDATALOAD PUSH2 0xF5E DUP2 PUSH2 0xEEE JUMP JUMPDEST SWAP2 POP PUSH1 0x20 DUP4 ADD CALLDATALOAD PUSH2 0xF6E DUP2 PUSH2 0xEEE JUMP JUMPDEST DUP1 SWAP2 POP POP SWAP3 POP SWAP3 SWAP1 POP JUMP JUMPDEST PUSH1 0x0 PUSH1 0x20 DUP3 DUP5 SUB SLT ISZERO PUSH2 0xF8B JUMPI PUSH1 0x0 DUP1 REVERT JUMPDEST POP MLOAD SWAP2 SWAP1 POP JUMP JUMPDEST PUSH1 0x0 PUSH1 0x20 DUP3 DUP5 SUB SLT ISZERO PUSH2 0xFA4 JUMPI PUSH1 0x0 DUP1 REVERT JUMPDEST DUP2 MLOAD PUSH1 0xFF DUP2 AND DUP2 EQ PUSH2 0xF20 JUMPI PUSH1 0x0 DUP1 REVERT JUMPDEST PUSH4 0x4E487B71 PUSH1 0xE0 SHL PUSH1 0x0 MSTORE PUSH1 0x11 PUSH1 0x4 MSTORE PUSH1 0x24 PUSH1 0x0 REVERT JUMPDEST DUP2 DUP2 SUB DUP2 DUP2 GT ISZERO PUSH2 0xFDE JUMPI PUSH2 0xFDE PUSH2 0xFB5 JUMP JUMPDEST SWAP3 SWAP2 POP POP JUMP JUMPDEST PUSH1 0x1 PUSH1 0x1 PUSH1 0xA0 SHL SUB SWAP3 DUP4 AND DUP2 MSTORE SWAP2 AND PUSH1 0x20 DUP3 ADD MSTORE PUSH1 0x40 ADD SWAP1 JUMP JUMPDEST PUSH1 0x0 PUSH1 0x20 DUP3 DUP5 SUB SLT ISZERO PUSH2 0x1010 JUMPI PUSH1 0x0 DUP1 REVERT JUMPDEST DUP2 MLOAD PUSH2 0xF20 DUP2 PUSH2 0xEEE JUMP JUMPDEST DUP1 MLOAD PUSH1 0x1 PUSH1 0x1 PUSH1 0x70 SHL SUB DUP2 AND DUP2 EQ PUSH2 0x1032 JUMPI PUSH1 0x0 DUP1 REVERT JUMPDEST SWAP2 SWAP1 POP JUMP JUMPDEST PUSH1 0x0 DUP1 PUSH1 0x0 PUSH1 0x60 DUP5 DUP7 SUB SLT ISZERO PUSH2 0x104C JUMPI PUSH1 0x0 DUP1 REVERT JUMPDEST PUSH2 0x1055 DUP5 PUSH2 0x101B JUMP JUMPDEST SWAP3 POP PUSH2 0x1063 PUSH1 0x20 DUP6 ADD PUSH2 0x101B JUMP JUMPDEST SWAP2 POP PUSH1 0x40 DUP5 ADD MLOAD PUSH4 0xFFFFFFFF DUP2 AND DUP2 EQ PUSH2 0x107C JUMPI PUSH1 0x0 DUP1 REVERT JUMPDEST DUP1 SWAP2 POP POP SWAP3 POP SWAP3 POP SWAP3 JUMP JUMPDEST PUSH1 0x1 DUP2 DUP2 JUMPDEST DUP1 DUP6 GT ISZERO PUSH2 0x10C2 JUMPI DUP2 PUSH1 0x0 NOT DIV DUP3 GT ISZERO PUSH2 0x10A8 JUMPI PUSH2 0x10A8 PUSH2 0xFB5 JUMP JUMPDEST DUP1 DUP6 AND ISZERO PUSH2 0x10B5 JUMPI SWAP2 DUP2 MUL SWAP2 JUMPDEST SWAP4 DUP5 SHR SWAP4 SWAP1 DUP1 MUL SWAP1 PUSH2 0x108C JUMP JUMPDEST POP SWAP3 POP SWAP3 SWAP1 POP JUMP JUMPDEST PUSH1 0x0 DUP3 PUSH2 0x10D9 JUMPI POP PUSH1 0x1 PUSH2 0xFDE JUMP JUMPDEST DUP2 PUSH2 0x10E6 JUMPI POP PUSH1 0x0 PUSH2 0xFDE JUMP JUMPDEST DUP2 PUSH1 0x1 DUP2 EQ PUSH2 0x10FC JUMPI PUSH1 0x2 DUP2 EQ PUSH2 0x1106 JUMPI PUSH2 0x1122 JUMP JUMPDEST PUSH1 0x1 SWAP2 POP POP PUSH2 0xFDE JUMP JUMPDEST PUSH1 0xFF DUP5 GT ISZERO PUSH2 0x1117 JUMPI PUSH2 0x1117 PUSH2 0xFB5 JUMP JUMPDEST POP POP PUSH1 0x1 DUP3 SHL PUSH2 0xFDE JUMP JUMPDEST POP PUSH1 0x20 DUP4 LT PUSH2 0x133 DUP4 LT AND PUSH1 0x4E DUP5 LT PUSH1 0xB DUP5 LT AND OR ISZERO PUSH2 0x1145 JUMPI POP DUP2 DUP2 EXP PUSH2 0xFDE JUMP JUMPDEST PUSH2 0x114F DUP4 DUP4 PUSH2 0x1087 JUMP JUMPDEST DUP1 PUSH1 0x0 NOT DIV DUP3 GT ISZERO PUSH2 0x1163 JUMPI PUSH2 0x1163 PUSH2 0xFB5 JUMP JUMPDEST MUL SWAP4 SWAP3 POP POP POP JUMP JUMPDEST PUSH1 0x0 PUSH2 0xF20 DUP4 DUP4 PUSH2 0x10CA JUMP JUMPDEST DUP1 DUP3 MUL DUP2 ISZERO DUP3 DUP3 DIV DUP5 EQ OR PUSH2 0xFDE JUMPI PUSH2 0xFDE PUSH2 0xFB5 JUMP JUMPDEST PUSH1 0x0 DUP3 PUSH2 0x11AB JUMPI PUSH4 0x4E487B71 PUSH1 0xE0 SHL PUSH1 0x0 MSTORE PUSH1 0x12 PUSH1 0x4 MSTORE PUSH1 0x24 PUSH1 0x0 REVERT JUMPDEST POP DIV SWAP1 JUMP JUMPDEST PUSH4 0x4E487B71 PUSH1 0xE0 SHL PUSH1 0x0 MSTORE PUSH1 0x32 PUSH1 0x4 MSTORE PUSH1 0x24 PUSH1 0x0 REVERT JUMPDEST PUSH1 0x0 PUSH1 0x1 DUP3 ADD PUSH2 0x11D8 JUMPI PUSH2 0x11D8 PUSH2 0xFB5 JUMP JUMPDEST POP PUSH1 0x1 ADD SWAP1 JUMP INVALID LOG2 PUSH5 0x6970667358 0x22 SLT KECCAK256 0xAA SLOAD TIMESTAMP 0x24 0xC4 0xB6 PUSH24 0xD740A0B01CBFC02F672A2E93CFDB54B4156C49D1EA8E2224 0x2D PUSH5 0x736F6C6343 STOP ADDMOD SLT STOP CALLER "
		},
		"gasEstimates": {
			"creation": {
				"codeDepositCost": "925800",
				"executionCost": "infinite",
				"totalCost": "infinite"
			},
			"external": {
				"TokenPrice(address,address)": "infinite",
				"addFactory(address)": "infinite",
				"changeUSDT(address)": "infinite",
				"factories(uint256)": "4625",
				"getBNBPrice(address)": "infinite"
			}
		},
		"methodIdentifiers": {
			"TokenPrice(address,address)": "a6d6e2ca",
			"addFactory(address)": "29ce1ec5",
			"changeUSDT(address)": "4782e407",
			"factories(uint256)": "672383c4",
			"getBNBPrice(address)": "6cff8234"
		}
	},
	"abi": [
		{
			"inputs": [
				{
					"internalType": "address",
					"name": "_eth",
					"type": "address"
				},
				{
					"internalType": "address",
					"name": "_usdt",
					"type": "address"
				},
				{
					"internalType": "address[]",
					"name": "_factories",
					"type": "address[]"
				}
			],
			"stateMutability": "nonpayable",
			"type": "constructor"
		},
		{
			"inputs": [
				{
					"internalType": "address",
					"name": "token",
					"type": "address"
				},
				{
					"internalType": "address",
					"name": "factory",
					"type": "address"
				}
			],
			"name": "TokenPrice",
			"outputs": [
				{
					"internalType": "uint256",
					"name": "num",
					"type": "uint256"
				},
				{
					"internalType": "uint256",
					"name": "den",
					"type": "uint256"
				},
				{
					"internalType": "uint256",
					"name": "usd",
					"type": "uint256"
				}
			],
			"stateMutability": "view",
			"type": "function"
		},
		{
			"inputs": [
				{
					"internalType": "address",
					"name": "newFactory",
					"type": "address"
				}
			],
			"name": "addFactory",
			"outputs": [],
			"stateMutability": "nonpayable",
			"type": "function"
		},
		{
			"inputs": [
				{
					"internalType": "address",
					"name": "newUSD",
					"type": "address"
				}
			],
			"name": "changeUSDT",
			"outputs": [],
			"stateMutability": "nonpayable",
			"type": "function"
		},
		{
			"inputs": [
				{
					"internalType": "uint256",
					"name": "",
					"type": "uint256"
				}
			],
			"name": "factories",
			"outputs": [
				{
					"internalType": "address",
					"name": "",
					"type": "address"
				}
			],
			"stateMutability": "view",
			"type": "function"
		},
		{
			"inputs": [
				{
					"internalType": "address",
					"name": "startFactory",
					"type": "address"
				}
			],
			"name": "getBNBPrice",
			"outputs": [
				{
					"internalType": "uint256",
					"name": "price",
					"type": "uint256"
				}
			],
			"stateMutability": "view",
			"type": "function"
		}
	]
}