{
  "_format": "hh-sol-artifact-1",
  "contractName": "PreLaunchManagerV2",
  "sourceName": "contracts/launchManagerV2Neon.sol",
  "abi": [
    {
      "inputs": [
        {
          "internalType": "uint256",
          "name": "_creationFee",
          "type": "uint256"
        },
        {
          "internalType": "uint256",
          "name": "_platformFeePercentage",
          "type": "uint256"
        },
        {
          "internalType": "uint256",
          "name": "_prizeFeePercentage",
          "type": "uint256"
        },
        {
          "internalType": "uint256",
          "name": "_burnFeePercentage",
          "type": "uint256"
        },
        {
          "internalType": "address",
          "name": "_burnToken",
          "type": "address"
        },
        {
          "internalType": "contract IUniswapV2Router02",
          "name": "_burnRouter",
          "type": "address"
        },
        {
          "internalType": "address",
          "name": "_treasury",
          "type": "address"
        },
        {
          "internalType": "address",
          "name": "_prizeTreasury",
          "type": "address"
        },
        {
          "internalType": "address",
          "name": "_WETH",
          "type": "address"
        },
        {
          "internalType": "uint256",
          "name": "_sponsorshipFee",
          "type": "uint256"
        },
        {
          "internalType": "uint256",
          "name": "_croHomeFee",
          "type": "uint256"
        }
      ],
      "stateMutability": "nonpayable",
      "type": "constructor"
    },
    {
      "inputs": [
        {
          "internalType": "address",
          "name": "owner",
          "type": "address"
        }
      ],
      "name": "OwnableInvalidOwner",
      "type": "error"
    },
    {
      "inputs": [
        {
          "internalType": "address",
          "name": "account",
          "type": "address"
        }
      ],
      "name": "OwnableUnauthorizedAccount",
      "type": "error"
    },
    {
      "inputs": [],
      "name": "ReentrancyGuardReentrantCall",
      "type": "error"
    },
    {
      "anonymous": false,
      "inputs": [
        {
          "indexed": false,
          "internalType": "uint256",
          "name": "roundId",
          "type": "uint256"
        },
        {
          "indexed": true,
          "internalType": "address",
          "name": "user",
          "type": "address"
        },
        {
          "indexed": false,
          "internalType": "uint256",
          "name": "amount",
          "type": "uint256"
        }
      ],
      "name": "Contributed",
      "type": "event"
    },
    {
      "anonymous": false,
      "inputs": [
        {
          "indexed": false,
          "internalType": "uint256",
          "name": "roundId",
          "type": "uint256"
        },
        {
          "indexed": false,
          "internalType": "uint256",
          "name": "tokenAmount",
          "type": "uint256"
        },
        {
          "indexed": false,
          "internalType": "uint256",
          "name": "nativeCoinAmount",
          "type": "uint256"
        }
      ],
      "name": "LiquidityAdded",
      "type": "event"
    },
    {
      "anonymous": false,
      "inputs": [
        {
          "indexed": true,
          "internalType": "address",
          "name": "previousOwner",
          "type": "address"
        },
        {
          "indexed": true,
          "internalType": "address",
          "name": "newOwner",
          "type": "address"
        }
      ],
      "name": "OwnershipTransferred",
      "type": "event"
    },
    {
      "anonymous": false,
      "inputs": [
        {
          "indexed": false,
          "internalType": "address",
          "name": "tokenContract",
          "type": "address"
        },
        {
          "indexed": false,
          "internalType": "string",
          "name": "name",
          "type": "string"
        },
        {
          "indexed": false,
          "internalType": "string",
          "name": "symbol",
          "type": "string"
        },
        {
          "indexed": false,
          "internalType": "uint256",
          "name": "endEpoch",
          "type": "uint256"
        }
      ],
      "name": "RoundStarted",
      "type": "event"
    },
    {
      "anonymous": false,
      "inputs": [
        {
          "indexed": false,
          "internalType": "uint256",
          "name": "roundId",
          "type": "uint256"
        },
        {
          "indexed": true,
          "internalType": "address",
          "name": "user",
          "type": "address"
        },
        {
          "indexed": false,
          "internalType": "uint256",
          "name": "amount",
          "type": "uint256"
        }
      ],
      "name": "TokensCollected",
      "type": "event"
    },
    {
      "anonymous": false,
      "inputs": [
        {
          "indexed": false,
          "internalType": "uint256",
          "name": "roundId",
          "type": "uint256"
        },
        {
          "indexed": false,
          "internalType": "uint256",
          "name": "totalDistributed",
          "type": "uint256"
        }
      ],
      "name": "TokensDistributed",
      "type": "event"
    },
    {
      "inputs": [],
      "name": "WETH",
      "outputs": [
        {
          "internalType": "address",
          "name": "",
          "type": "address"
        }
      ],
      "stateMutability": "view",
      "type": "function"
    },
    {
      "inputs": [],
      "name": "burnFeePercentage",
      "outputs": [
        {
          "internalType": "uint256",
          "name": "",
          "type": "uint256"
        }
      ],
      "stateMutability": "view",
      "type": "function"
    },
    {
      "inputs": [],
      "name": "burnRouter",
      "outputs": [
        {
          "internalType": "contract IUniswapV2Router02",
          "name": "",
          "type": "address"
        }
      ],
      "stateMutability": "view",
      "type": "function"
    },
    {
      "inputs": [],
      "name": "burnToken",
      "outputs": [
        {
          "internalType": "address",
          "name": "",
          "type": "address"
        }
      ],
      "stateMutability": "view",
      "type": "function"
    },
    {
      "inputs": [
        {
          "internalType": "uint256",
          "name": "roundId",
          "type": "uint256"
        }
      ],
      "name": "collect",
      "outputs": [],
      "stateMutability": "nonpayable",
      "type": "function"
    },
    {
      "inputs": [
        {
          "internalType": "uint256",
          "name": "roundId",
          "type": "uint256"
        }
      ],
      "name": "contribute",
      "outputs": [],
      "stateMutability": "payable",
      "type": "function"
    },
    {
      "inputs": [],
      "name": "creationFee",
      "outputs": [
        {
          "internalType": "uint256",
          "name": "",
          "type": "uint256"
        }
      ],
      "stateMutability": "view",
      "type": "function"
    },
    {
      "inputs": [],
      "name": "croHomeFee",
      "outputs": [
        {
          "internalType": "uint256",
          "name": "",
          "type": "uint256"
        }
      ],
      "stateMutability": "view",
      "type": "function"
    },
    {
      "inputs": [],
      "name": "deadAddress",
      "outputs": [
        {
          "internalType": "address",
          "name": "",
          "type": "address"
        }
      ],
      "stateMutability": "view",
      "type": "function"
    },
    {
      "inputs": [
        {
          "internalType": "uint256",
          "name": "roundId",
          "type": "uint256"
        },
        {
          "internalType": "string",
          "name": "_website",
          "type": "string"
        },
        {
          "internalType": "string",
          "name": "_telegram",
          "type": "string"
        },
        {
          "internalType": "string",
          "name": "_logo",
          "type": "string"
        }
      ],
      "name": "editProjectInfo",
      "outputs": [],
      "stateMutability": "nonpayable",
      "type": "function"
    },
    {
      "inputs": [
        {
          "internalType": "uint256",
          "name": "roundId",
          "type": "uint256"
        }
      ],
      "name": "finalizeRound",
      "outputs": [],
      "stateMutability": "nonpayable",
      "type": "function"
    },
    {
      "inputs": [
        {
          "internalType": "uint256",
          "name": "pageNumber",
          "type": "uint256"
        },
        {
          "internalType": "uint256",
          "name": "pageSize",
          "type": "uint256"
        }
      ],
      "name": "getFinishedRounds",
      "outputs": [
        {
          "components": [
            {
              "internalType": "uint256",
              "name": "roundId",
              "type": "uint256"
            },
            {
              "internalType": "address",
              "name": "tokenContract",
              "type": "address"
            },
            {
              "internalType": "string",
              "name": "name",
              "type": "string"
            },
            {
              "internalType": "string",
              "name": "symbol",
              "type": "string"
            },
            {
              "internalType": "uint256",
              "name": "totalSupply",
              "type": "uint256"
            },
            {
              "internalType": "uint256",
              "name": "totalRaised",
              "type": "uint256"
            },
            {
              "internalType": "uint256",
              "name": "endEpoch",
              "type": "uint256"
            },
            {
              "internalType": "bool",
              "name": "isFinished",
              "type": "bool"
            },
            {
              "internalType": "string[4]",
              "name": "projectInfo",
              "type": "string[4]"
            },
            {
              "internalType": "bool",
              "name": "sponsored",
              "type": "bool"
            },
            {
              "internalType": "bool",
              "name": "croHome",
              "type": "bool"
            },
            {
              "internalType": "address",
              "name": "creator",
              "type": "address"
            },
            {
              "internalType": "contract IUniswapV2Router02",
              "name": "router",
              "type": "address"
            }
          ],
          "internalType": "struct PreLaunchManagerV2.Round[]",
          "name": "",
          "type": "tuple[]"
        },
        {
          "internalType": "uint256",
          "name": "total",
          "type": "uint256"
        }
      ],
      "stateMutability": "view",
      "type": "function"
    },
    {
      "inputs": [
        {
          "internalType": "uint256",
          "name": "pageNumber",
          "type": "uint256"
        },
        {
          "internalType": "uint256",
          "name": "pageSize",
          "type": "uint256"
        }
      ],
      "name": "getLiveRounds",
      "outputs": [
        {
          "components": [
            {
              "internalType": "uint256",
              "name": "roundId",
              "type": "uint256"
            },
            {
              "internalType": "address",
              "name": "tokenContract",
              "type": "address"
            },
            {
              "internalType": "string",
              "name": "name",
              "type": "string"
            },
            {
              "internalType": "string",
              "name": "symbol",
              "type": "string"
            },
            {
              "internalType": "uint256",
              "name": "totalSupply",
              "type": "uint256"
            },
            {
              "internalType": "uint256",
              "name": "totalRaised",
              "type": "uint256"
            },
            {
              "internalType": "uint256",
              "name": "endEpoch",
              "type": "uint256"
            },
            {
              "internalType": "bool",
              "name": "isFinished",
              "type": "bool"
            },
            {
              "internalType": "string[4]",
              "name": "projectInfo",
              "type": "string[4]"
            },
            {
              "internalType": "bool",
              "name": "sponsored",
              "type": "bool"
            },
            {
              "internalType": "bool",
              "name": "croHome",
              "type": "bool"
            },
            {
              "internalType": "address",
              "name": "creator",
              "type": "address"
            },
            {
              "internalType": "contract IUniswapV2Router02",
              "name": "router",
              "type": "address"
            }
          ],
          "internalType": "struct PreLaunchManagerV2.Round[]",
          "name": "",
          "type": "tuple[]"
        },
        {
          "internalType": "uint256",
          "name": "total",
          "type": "uint256"
        }
      ],
      "stateMutability": "view",
      "type": "function"
    },
    {
      "inputs": [
        {
          "internalType": "uint256",
          "name": "roundId",
          "type": "uint256"
        }
      ],
      "name": "getRoundContributions",
      "outputs": [
        {
          "components": [
            {
              "internalType": "address",
              "name": "user",
              "type": "address"
            },
            {
              "internalType": "uint256",
              "name": "amount",
              "type": "uint256"
            },
            {
              "internalType": "bool",
              "name": "collected",
              "type": "bool"
            }
          ],
          "internalType": "struct PreLaunchManagerV2.RoundUserContribution[]",
          "name": "",
          "type": "tuple[]"
        }
      ],
      "stateMutability": "view",
      "type": "function"
    },
    {
      "inputs": [
        {
          "internalType": "uint256",
          "name": "roundId",
          "type": "uint256"
        }
      ],
      "name": "getRoundDetails",
      "outputs": [
        {
          "components": [
            {
              "internalType": "uint256",
              "name": "roundId",
              "type": "uint256"
            },
            {
              "internalType": "address",
              "name": "tokenContract",
              "type": "address"
            },
            {
              "internalType": "string",
              "name": "name",
              "type": "string"
            },
            {
              "internalType": "string",
              "name": "symbol",
              "type": "string"
            },
            {
              "internalType": "uint256",
              "name": "totalSupply",
              "type": "uint256"
            },
            {
              "internalType": "uint256",
              "name": "totalRaised",
              "type": "uint256"
            },
            {
              "internalType": "uint256",
              "name": "endEpoch",
              "type": "uint256"
            },
            {
              "internalType": "bool",
              "name": "isFinished",
              "type": "bool"
            },
            {
              "internalType": "string[4]",
              "name": "projectInfo",
              "type": "string[4]"
            },
            {
              "internalType": "bool",
              "name": "sponsored",
              "type": "bool"
            },
            {
              "internalType": "bool",
              "name": "croHome",
              "type": "bool"
            },
            {
              "internalType": "address",
              "name": "creator",
              "type": "address"
            },
            {
              "internalType": "contract IUniswapV2Router02",
              "name": "router",
              "type": "address"
            }
          ],
          "internalType": "struct PreLaunchManagerV2.Round",
          "name": "",
          "type": "tuple"
        }
      ],
      "stateMutability": "view",
      "type": "function"
    },
    {
      "inputs": [
        {
          "internalType": "uint256",
          "name": "howMany",
          "type": "uint256"
        }
      ],
      "name": "getTop",
      "outputs": [
        {
          "components": [
            {
              "internalType": "uint256",
              "name": "roundId",
              "type": "uint256"
            },
            {
              "internalType": "address",
              "name": "tokenContract",
              "type": "address"
            },
            {
              "internalType": "string",
              "name": "name",
              "type": "string"
            },
            {
              "internalType": "string",
              "name": "symbol",
              "type": "string"
            },
            {
              "internalType": "uint256",
              "name": "totalSupply",
              "type": "uint256"
            },
            {
              "internalType": "uint256",
              "name": "totalRaised",
              "type": "uint256"
            },
            {
              "internalType": "uint256",
              "name": "endEpoch",
              "type": "uint256"
            },
            {
              "internalType": "bool",
              "name": "isFinished",
              "type": "bool"
            },
            {
              "internalType": "string[4]",
              "name": "projectInfo",
              "type": "string[4]"
            },
            {
              "internalType": "bool",
              "name": "sponsored",
              "type": "bool"
            },
            {
              "internalType": "bool",
              "name": "croHome",
              "type": "bool"
            },
            {
              "internalType": "address",
              "name": "creator",
              "type": "address"
            },
            {
              "internalType": "contract IUniswapV2Router02",
              "name": "router",
              "type": "address"
            }
          ],
          "internalType": "struct PreLaunchManagerV2.Round[]",
          "name": "",
          "type": "tuple[]"
        },
        {
          "internalType": "uint256",
          "name": "total",
          "type": "uint256"
        }
      ],
      "stateMutability": "view",
      "type": "function"
    },
    {
      "inputs": [
        {
          "internalType": "uint256",
          "name": "howMany",
          "type": "uint256"
        }
      ],
      "name": "getTopLiveWithSponsorship",
      "outputs": [
        {
          "components": [
            {
              "internalType": "uint256",
              "name": "roundId",
              "type": "uint256"
            },
            {
              "internalType": "address",
              "name": "tokenContract",
              "type": "address"
            },
            {
              "internalType": "string",
              "name": "name",
              "type": "string"
            },
            {
              "internalType": "string",
              "name": "symbol",
              "type": "string"
            },
            {
              "internalType": "uint256",
              "name": "totalSupply",
              "type": "uint256"
            },
            {
              "internalType": "uint256",
              "name": "totalRaised",
              "type": "uint256"
            },
            {
              "internalType": "uint256",
              "name": "endEpoch",
              "type": "uint256"
            },
            {
              "internalType": "bool",
              "name": "isFinished",
              "type": "bool"
            },
            {
              "internalType": "string[4]",
              "name": "projectInfo",
              "type": "string[4]"
            },
            {
              "internalType": "bool",
              "name": "sponsored",
              "type": "bool"
            },
            {
              "internalType": "bool",
              "name": "croHome",
              "type": "bool"
            },
            {
              "internalType": "address",
              "name": "creator",
              "type": "address"
            },
            {
              "internalType": "contract IUniswapV2Router02",
              "name": "router",
              "type": "address"
            }
          ],
          "internalType": "struct PreLaunchManagerV2.Round[]",
          "name": "",
          "type": "tuple[]"
        },
        {
          "internalType": "uint256",
          "name": "total",
          "type": "uint256"
        }
      ],
      "stateMutability": "view",
      "type": "function"
    },
    {
      "inputs": [
        {
          "internalType": "uint256",
          "name": "roundId",
          "type": "uint256"
        },
        {
          "internalType": "address",
          "name": "user",
          "type": "address"
        }
      ],
      "name": "getUserContributionAndAllocation",
      "outputs": [
        {
          "internalType": "uint256",
          "name": "contribution",
          "type": "uint256"
        },
        {
          "internalType": "uint256",
          "name": "tokenAllocation",
          "type": "uint256"
        },
        {
          "internalType": "bool",
          "name": "collected",
          "type": "bool"
        }
      ],
      "stateMutability": "view",
      "type": "function"
    },
    {
      "inputs": [],
      "name": "owner",
      "outputs": [
        {
          "internalType": "address",
          "name": "",
          "type": "address"
        }
      ],
      "stateMutability": "view",
      "type": "function"
    },
    {
      "inputs": [],
      "name": "platformFeePercentage",
      "outputs": [
        {
          "internalType": "uint256",
          "name": "",
          "type": "uint256"
        }
      ],
      "stateMutability": "view",
      "type": "function"
    },
    {
      "inputs": [],
      "name": "prizeFeePercentage",
      "outputs": [
        {
          "internalType": "uint256",
          "name": "",
          "type": "uint256"
        }
      ],
      "stateMutability": "view",
      "type": "function"
    },
    {
      "inputs": [],
      "name": "prizeTreasury",
      "outputs": [
        {
          "internalType": "address",
          "name": "",
          "type": "address"
        }
      ],
      "stateMutability": "view",
      "type": "function"
    },
    {
      "inputs": [],
      "name": "renounceOwnership",
      "outputs": [],
      "stateMutability": "nonpayable",
      "type": "function"
    },
    {
      "inputs": [
        {
          "internalType": "uint256",
          "name": "",
          "type": "uint256"
        },
        {
          "internalType": "uint256",
          "name": "",
          "type": "uint256"
        }
      ],
      "name": "roundContributions",
      "outputs": [
        {
          "internalType": "address",
          "name": "user",
          "type": "address"
        },
        {
          "internalType": "uint256",
          "name": "amount",
          "type": "uint256"
        },
        {
          "internalType": "bool",
          "name": "collected",
          "type": "bool"
        }
      ],
      "stateMutability": "view",
      "type": "function"
    },
    {
      "inputs": [
        {
          "internalType": "uint256",
          "name": "",
          "type": "uint256"
        }
      ],
      "name": "rounds",
      "outputs": [
        {
          "internalType": "uint256",
          "name": "roundId",
          "type": "uint256"
        },
        {
          "internalType": "address",
          "name": "tokenContract",
          "type": "address"
        },
        {
          "internalType": "string",
          "name": "name",
          "type": "string"
        },
        {
          "internalType": "string",
          "name": "symbol",
          "type": "string"
        },
        {
          "internalType": "uint256",
          "name": "totalSupply",
          "type": "uint256"
        },
        {
          "internalType": "uint256",
          "name": "totalRaised",
          "type": "uint256"
        },
        {
          "internalType": "uint256",
          "name": "endEpoch",
          "type": "uint256"
        },
        {
          "internalType": "bool",
          "name": "isFinished",
          "type": "bool"
        },
        {
          "internalType": "bool",
          "name": "sponsored",
          "type": "bool"
        },
        {
          "internalType": "bool",
          "name": "croHome",
          "type": "bool"
        },
        {
          "internalType": "address",
          "name": "creator",
          "type": "address"
        },
        {
          "internalType": "contract IUniswapV2Router02",
          "name": "router",
          "type": "address"
        }
      ],
      "stateMutability": "view",
      "type": "function"
    },
    {
      "inputs": [
        {
          "internalType": "contract IUniswapV2Router02",
          "name": "newBurnRouter",
          "type": "address"
        }
      ],
      "name": "setBurnRouter",
      "outputs": [],
      "stateMutability": "nonpayable",
      "type": "function"
    },
    {
      "inputs": [
        {
          "internalType": "address",
          "name": "newBurnToken",
          "type": "address"
        }
      ],
      "name": "setBurnToken",
      "outputs": [],
      "stateMutability": "nonpayable",
      "type": "function"
    },
    {
      "inputs": [
        {
          "internalType": "uint256",
          "name": "newCreationFee",
          "type": "uint256"
        }
      ],
      "name": "setCreationFee",
      "outputs": [],
      "stateMutability": "nonpayable",
      "type": "function"
    },
    {
      "inputs": [
        {
          "internalType": "uint256",
          "name": "newCroHomeFee",
          "type": "uint256"
        }
      ],
      "name": "setCroHomeFee",
      "outputs": [],
      "stateMutability": "nonpayable",
      "type": "function"
    },
    {
      "inputs": [
        {
          "internalType": "uint256",
          "name": "newPlatformPercentage",
          "type": "uint256"
        },
        {
          "internalType": "uint256",
          "name": "newBurnPercentage",
          "type": "uint256"
        },
        {
          "internalType": "uint256",
          "name": "newPrizePercentage",
          "type": "uint256"
        }
      ],
      "name": "setFeePercentages",
      "outputs": [],
      "stateMutability": "nonpayable",
      "type": "function"
    },
    {
      "inputs": [
        {
          "internalType": "uint256",
          "name": "newSponsorshipFee",
          "type": "uint256"
        }
      ],
      "name": "setSponsorshipFee",
      "outputs": [],
      "stateMutability": "nonpayable",
      "type": "function"
    },
    {
      "inputs": [
        {
          "internalType": "address",
          "name": "newTreasury",
          "type": "address"
        }
      ],
      "name": "setTreasury",
      "outputs": [],
      "stateMutability": "nonpayable",
      "type": "function"
    },
    {
      "inputs": [],
      "name": "sponsorshipFee",
      "outputs": [
        {
          "internalType": "uint256",
          "name": "",
          "type": "uint256"
        }
      ],
      "stateMutability": "view",
      "type": "function"
    },
    {
      "inputs": [
        {
          "internalType": "string",
          "name": "_name",
          "type": "string"
        },
        {
          "internalType": "string",
          "name": "_symbol",
          "type": "string"
        },
        {
          "internalType": "uint256",
          "name": "initialSupply",
          "type": "uint256"
        },
        {
          "internalType": "uint256",
          "name": "_endEpoch",
          "type": "uint256"
        },
        {
          "internalType": "string[4]",
          "name": "_projectInfo",
          "type": "string[4]"
        },
        {
          "internalType": "bool",
          "name": "_sponsored",
          "type": "bool"
        },
        {
          "internalType": "bool",
          "name": "_croHome",
          "type": "bool"
        },
        {
          "internalType": "contract IUniswapV2Router02",
          "name": "_router",
          "type": "address"
        }
      ],
      "name": "startRound",
      "outputs": [],
      "stateMutability": "payable",
      "type": "function"
    },
    {
      "inputs": [
        {
          "internalType": "address",
          "name": "newOwner",
          "type": "address"
        }
      ],
      "name": "transferOwnership",
      "outputs": [],
      "stateMutability": "nonpayable",
      "type": "function"
    },
    {
      "inputs": [],
      "name": "treasury",
      "outputs": [
        {
          "internalType": "address",
          "name": "",
          "type": "address"
        }
      ],
      "stateMutability": "view",
      "type": "function"
    },
    {
      "inputs": [],
      "name": "withdrawPlatformFee",
      "outputs": [],
      "stateMutability": "nonpayable",
      "type": "function"
    }
  ],
  "bytecode": "0x6080604052600280546001600160a01b03191661dead1790553480156200002557600080fd5b5060405162005af438038062005af48339810160408190526200004891620001e1565b33806200007057604051631e4fbdf760e01b8152600060048201526024015b60405180910390fd5b6200007b8162000178565b50600180558715620000f5576008546001600160a01b0316620000f55760405162461bcd60e51b815260206004820152602b60248201527f6966204275726e206665652070657263656e74203e20302c206d75737420686160448201526a3b329030903a37b5b2b71760a91b606482015260840162000067565b60049a909a55600598909855600795909555600695909555600c80546001600160a01b03199081166001600160a01b039788161790915560088054821694871694909417909355600b80548416918616919091179055600994909455600a94909455600380548516918316919091179055600d805490931691161790556200029e565b600080546001600160a01b038381166001600160a01b0319831681178455604051919092169283917f8be0079c531659141344cd1fd0a4f28419497f9722a3daafe3b4186f6b6457e09190a35050565b6001600160a01b0381168114620001de57600080fd5b50565b60008060008060008060008060008060006101608c8e0312156200020457600080fd5b8b519a5060208c0151995060408c0151985060608c0151975060808c01516200022d81620001c8565b60a08d01519097506200024081620001c8565b60c08d01519096506200025381620001c8565b60e08d01519095506200026681620001c8565b6101008d01519094506200027a81620001c8565b809350506101208c015191506101408c015190509295989b509295989b9093969950565b61584680620002ae6000396000f3fe608060405260043610620002475760003560e01c80638c65c81f116200013b578063c4ceb33911620000b9578063e4e988761162000078578063e4e9887614620006fa578063f0f442601462000712578063f2fde38b1462000737578063f4fbb612146200075c578063faa0a26414620007a957600080fd5b8063c4ceb339146200064a578063cdd78cfc1462000662578063ce3f865f146200067a578063dce0b4e4146200069f578063e08f136914620006b757600080fd5b8063b4b081df1162000106578063b4b081df1462000590578063b6b12e6114620005b5578063b7d8622514620005e9578063c1cbbca7146200060e578063c3587980146200062557600080fd5b80638c65c81f14620004ea5780638da5cb5b1462000529578063a121bd781462000549578063ad5c4648146200056e57600080fd5b8063486f280b11620001c9578063715018a61162000194578063715018a6146200044c578063755bba5114620004645780637c4b74ee146200048957806380cf82f714620004ab5780638214fab714620004d257600080fd5b8063486f280b14620003be57806361380f4314620003e357806361d027b314620004085780636c32b2ec146200042a57600080fd5b806322b5adbb116200021657806322b5adbb14620002ed57806327c8f83514620003225780633469f6e2146200035d57806337caa8b6146200038257806341d6102c14620003a757600080fd5b80630c45114d146200024c57806314ad21a414620002895780631dc4b09c14620002b0578063202cefd514620002d5575b600080fd5b3480156200025957600080fd5b50620002716200026b36600462003e5a565b620007cb565b60405162000280919062003e74565b60405180910390f35b3480156200029657600080fd5b50620002ae620002a836600462003e5a565b62000867565b005b348015620002bd57600080fd5b50620002ae620002cf36600462003f02565b62000876565b348015620002e257600080fd5b50620002ae620008a2565b348015620002fa57600080fd5b50620003126200030c36600462003f29565b62000961565b60405162000280929190620040e8565b3480156200032f57600080fd5b5060025462000344906001600160a01b031681565b6040516001600160a01b03909116815260200162000280565b3480156200036a57600080fd5b50620002ae6200037c36600462003e5a565b62000ea7565b3480156200038f57600080fd5b5062000312620003a136600462003e5a565b62000fd3565b620002ae620003b8366004620042d7565b62001640565b348015620003cb57600080fd5b5062000312620003dd36600462003f29565b62001a62565b348015620003f057600080fd5b50620002ae62000402366004620043b4565b62001f98565b3480156200041557600080fd5b50600b5462000344906001600160a01b031681565b3480156200043757600080fd5b50600d5462000344906001600160a01b031681565b3480156200045957600080fd5b50620002ae620020a3565b3480156200047157600080fd5b50620002ae6200048336600462003e5a565b620020b9565b3480156200049657600080fd5b50600c5462000344906001600160a01b031681565b348015620004b857600080fd5b50620004c3600a5481565b60405190815260200162000280565b348015620004df57600080fd5b50620004c360095481565b348015620004f757600080fd5b506200050f6200050936600462003e5a565b620020c8565b604051620002809c9b9a999897969594939291906200444f565b3480156200053657600080fd5b506000546001600160a01b031662000344565b3480156200055657600080fd5b50620003126200056836600462003e5a565b62002279565b3480156200057b57600080fd5b5060035462000344906001600160a01b031681565b3480156200059d57600080fd5b50620002ae620005af366004620044f9565b62002945565b348015620005c257600080fd5b50620005da620005d436600462003e5a565b62002a22565b60405162000280919062004526565b348015620005f657600080fd5b50620002ae6200060836600462003e5a565b62002d37565b620002ae6200061f36600462003e5a565b62002d46565b3480156200063257600080fd5b50620002ae6200064436600462003f02565b62003081565b3480156200065757600080fd5b50620004c360075481565b3480156200066f57600080fd5b50620004c360055481565b3480156200068757600080fd5b50620002ae6200069936600462003e5a565b6200315c565b348015620006ac57600080fd5b50620004c360045481565b348015620006c457600080fd5b50620006dc620006d63660046200453b565b62003448565b60408051938452602084019290925215159082015260600162000280565b3480156200070757600080fd5b50620004c360065481565b3480156200071f57600080fd5b50620002ae6200073136600462003f02565b62003601565b3480156200074457600080fd5b50620002ae6200075636600462003f02565b62003695565b3480156200076957600080fd5b50620007816200077b36600462003f29565b620036d6565b604080516001600160a01b039094168452602084019290925215159082015260600162000280565b348015620007b657600080fd5b5060085462000344906001600160a01b031681565b6060600f6000838152602001908152602001600020805480602002602001604051908101604052809291908181526020016000905b828210156200085c576000848152602090819020604080516060810182526003860290920180546001600160a01b031683526001808201548486015260029091015460ff16151591830191909152908352909201910162000800565b505050509050919050565b6200087162003726565b600a55565b6200088062003726565b600d80546001600160a01b0319166001600160a01b0392909216919091179055565b620008ac62003726565b620008b662003755565b600080546040805183815260208101918290526001600160a01b03909216914791620008e391906200456e565b60006040518083038185875af1925050503d806000811462000922576040519150601f19603f3d011682016040523d82523d6000602084013e62000927565b606091505b5050905080620009545760405162461bcd60e51b81526004016200094b906200458c565b60405180910390fd5b506200095f60018055565b565b60606000808311620009875760405162461bcd60e51b81526004016200094b90620045cf565b6000805b600e54811015620009eb57600e8181548110620009ac57620009ac62004612565b90600052602060002090600e020160060154421015620009d65781620009d2816200463e565b9250505b80620009e2816200463e565b9150506200098b565b50600084620009fc6001886200465a565b62000a08919062004676565b90506000600162000a1a878462004690565b62000a2691906200465a565b905082821062000a755760405162461bcd60e51b8152602060048201526019602482015278537461727420696e646578206f7574206f6620626f756e647360381b60448201526064016200094b565b82811062000a8d5762000a8a6001846200465a565b90505b600062000a9b83836200465a565b62000aa890600162004690565b6001600160401b0381111562000ac25762000ac262004155565b60405190808252806020026020018201604052801562000aff57816020015b62000aeb62003ce8565b81526020019060019003908162000ae15790505b5090506000805b600e548110801562000b185750838211155b1562000e9757600e818154811062000b345762000b3462004612565b90600052602060002090600e02016006015442101562000e825781851115801562000b5f5750838211155b1562000e7257600e818154811062000b7b5762000b7b62004612565b90600052602060002090600e0201604051806101a0016040529081600082015481526020016001820160009054906101000a90046001600160a01b03166001600160a01b03166001600160a01b0316815260200160028201805462000be090620046a6565b80601f016020809104026020016040519081016040528092919081815260200182805462000c0e90620046a6565b801562000c5f5780601f1062000c335761010080835404028352916020019162000c5f565b820191906000526020600020905b81548152906001019060200180831162000c4157829003601f168201915b5050505050815260200160038201805462000c7a90620046a6565b80601f016020809104026020016040519081016040528092919081815260200182805462000ca890620046a6565b801562000cf95780601f1062000ccd5761010080835404028352916020019162000cf9565b820191906000526020600020905b81548152906001019060200180831162000cdb57829003601f168201915b50505091835250506004828101546020830152600583015460408084019190915260068401546060840152600784015460ff161515608080850191909152815190810190915260a0909201919060088401906000835b8282101562000dfc57838201805462000d6890620046a6565b80601f016020809104026020016040519081016040528092919081815260200182805462000d9690620046a6565b801562000de75780601f1062000dbb5761010080835404028352916020019162000de7565b820191906000526020600020905b81548152906001019060200180831162000dc957829003601f168201915b50505050508152602001906001019062000d4f565b50505090825250600c82015460ff80821615156020840152610100820416151560408301526001600160a01b036201000090910481166060830152600d909201549091166080909101528362000e5387856200465a565b8151811062000e665762000e6662004612565b60200260200101819052505b8162000e7e816200463e565b9250505b8062000e8e816200463e565b91505062000b06565b5090989397509295505050505050565b62000eb162003755565b600e54811062000ed55760405162461bcd60e51b81526004016200094b90620046e2565b6000600e828154811062000eed5762000eed62004612565b90600052602060002090600e02019050806006015442101562000f4b5760405162461bcd60e51b8152602060048201526015602482015274526f756e64206973207374696c6c2061637469766560581b60448201526064016200094b565b600781015460ff161562000fa25760405162461bcd60e51b815260206004820152601960248201527f526f756e6420697320616c72656164792066696e69736865640000000000000060448201526064016200094b565b60058101541562000fb85762000fb88262003780565b600701805460ff1916600117905562000fd060018055565b50565b6060600080805b600e548110156200103a57600e818154811062000ffb5762000ffb62004612565b90600052602060002090600e02016006015442101562001025578162001021816200463e565b9250505b8062001031816200463e565b91505062000fda565b506000816001600160401b0381111562001058576200105862004155565b6040519080825280602002602001820160405280156200109557816020015b6200108162003ce8565b815260200190600190039081620010775790505b5090506000805b600e548110156200140057600e8181548110620010bd57620010bd62004612565b90600052602060002090600e020160060154421015620013eb57600e8181548110620010ed57620010ed62004612565b90600052602060002090600e0201604051806101a0016040529081600082015481526020016001820160009054906101000a90046001600160a01b03166001600160a01b03166001600160a01b031681526020016002820180546200115290620046a6565b80601f01602080910402602001604051908101604052809291908181526020018280546200118090620046a6565b8015620011d15780601f10620011a557610100808354040283529160200191620011d1565b820191906000526020600020905b815481529060010190602001808311620011b357829003601f168201915b50505050508152602001600382018054620011ec90620046a6565b80601f01602080910402602001604051908101604052809291908181526020018280546200121a90620046a6565b80156200126b5780601f106200123f576101008083540402835291602001916200126b565b820191906000526020600020905b8154815290600101906020018083116200124d57829003601f168201915b50505091835250506004828101546020830152600583015460408084019190915260068401546060840152600784015460ff161515608080850191909152815190810190915260a0909201919060088401906000835b828210156200136e578382018054620012da90620046a6565b80601f01602080910402602001604051908101604052809291908181526020018280546200130890620046a6565b8015620013595780601f106200132d5761010080835404028352916020019162001359565b820191906000526020600020905b8154815290600101906020018083116200133b57829003601f168201915b505050505081526020019060010190620012c1565b50505090825250600c82015460ff80821615156020840152610100820416151560408301526001600160a01b036201000090910481166060830152600d909201549091166080909101528351849084908110620013cf57620013cf62004612565b60200260200101819052508180620013e7906200463e565b9250505b80620013f7816200463e565b9150506200109c565b5060005b600183516200141491906200465a565b8110156200155f5760005b60018285516200143091906200465a565b6200143c91906200465a565b8110156200154957836200145282600162004690565b8151811062001465576200146562004612565b602002602001015160a0015184828151811062001486576200148662004612565b602002602001015160a00151101562001534576000848281518110620014b057620014b062004612565b6020026020010151905084826001620014ca919062004690565b81518110620014dd57620014dd62004612565b6020026020010151858381518110620014fa57620014fa62004612565b602090810291909101015280856200151484600162004690565b8151811062001527576200152762004612565b6020026020010181905250505b8062001540816200463e565b9150506200141f565b508062001556816200463e565b91505062001404565b506000868351116200157357825162001575565b865b90506000816001600160401b0381111562001594576200159462004155565b604051908082528060200260200182016040528015620015d157816020015b620015bd62003ce8565b815260200190600190039081620015b35790505b50905060005b828110156200163357848181518110620015f557620015f562004612565b602002602001015182828151811062001612576200161262004612565b602002602001018190525080806200162a906200463e565b915050620015d7565b5097909650945050505050565b60005b600e54811015620016dc57600e818154811062001664576200166462004612565b90600052602060002090600e0201600601544210158015620016b05750600e818154811062001697576200169762004612565b600091825260209091206007600e90920201015460ff16155b15620016c757620016c18162000ea7565b620016dc565b80620016d3816200463e565b91505062001643565b506004548315620016f957600954620016f6908262004690565b90505b82156200171257600a546200170f908262004690565b90505b80341015620017645760405162461bcd60e51b815260206004820152601960248201527f496e73756666696369656e74206372656174696f6e206665650000000000000060448201526064016200094b565b600b546040805160008082526020820192839052926001600160a01b031691849162001790916200456e565b60006040518083038185875af1925050503d8060008114620017cf576040519150601f19603f3d011682016040523d82523d6000602084013e620017d4565b606091505b5050905080620017f85760405162461bcd60e51b81526004016200094b906200458c565b60008a8a8a306040516200180c9062003d63565b6200181b94939291906200470c565b604051809103906000f08015801562001838573d6000803e3d6000fd5b509050600e604051806101a00160405280600e805490508152602001836001600160a01b031681526020018d81526020018c81526020018b8152602001600081526020018a815260200160001515815260200189815260200188151581526020018715158152602001336001600160a01b03168152602001866001600160a01b031681525090806001815401808255809150506001900390600052602060002090600e02016000909190919091506000820151816000015560208201518160010160006101000a8154816001600160a01b0302191690836001600160a01b031602179055506040820151816002019081620019349190620047a6565b50606082015160038201906200194b9082620047a6565b50608082015160048281019190915560a0830151600583015560c0830151600683015560e083015160078301805460ff19169115159190911790556101008301516200199d9160088401919062003d71565b50610120820151600c8201805461014085015161016086015161ffff1990921693151561ff00191693909317610100931515939093029290921762010000600160b01b031916620100006001600160a01b039384160217905561018090920151600d90910180546001600160a01b031916919092161790556040517f0db71560d708c0f0e5115745a4a943f9e1033901fe0413f049d39687fd767da89062001a4d9083908e908e908d9062004872565b60405180910390a15050505050505050505050565b6060600080831162001a885760405162461bcd60e51b81526004016200094b90620045cf565b6000805b600e5481101562001aec57600e818154811062001aad5762001aad62004612565b90600052602060002090600e02016006015442111562001ad7578162001ad3816200463e565b9250505b8062001ae3816200463e565b91505062001a8c565b5060008462001afd6001886200465a565b62001b09919062004676565b90506000600162001b1b878462004690565b62001b2791906200465a565b905082821062001b765760405162461bcd60e51b8152602060048201526019602482015278537461727420696e646578206f7574206f6620626f756e647360381b60448201526064016200094b565b82811062001b8e5762001b8b6001846200465a565b90505b600062001b9c83836200465a565b62001ba990600162004690565b6001600160401b0381111562001bc35762001bc362004155565b60405190808252806020026020018201604052801562001c0057816020015b62001bec62003ce8565b81526020019060019003908162001be25790505b5090506000805b600e548110801562001c195750838211155b1562000e9757600e818154811062001c355762001c3562004612565b90600052602060002090600e02016006015442111562001f835781851115801562001c605750838211155b1562001f7357600e818154811062001c7c5762001c7c62004612565b90600052602060002090600e0201604051806101a0016040529081600082015481526020016001820160009054906101000a90046001600160a01b03166001600160a01b03166001600160a01b0316815260200160028201805462001ce190620046a6565b80601f016020809104026020016040519081016040528092919081815260200182805462001d0f90620046a6565b801562001d605780601f1062001d345761010080835404028352916020019162001d60565b820191906000526020600020905b81548152906001019060200180831162001d4257829003601f168201915b5050505050815260200160038201805462001d7b90620046a6565b80601f016020809104026020016040519081016040528092919081815260200182805462001da990620046a6565b801562001dfa5780601f1062001dce5761010080835404028352916020019162001dfa565b820191906000526020600020905b81548152906001019060200180831162001ddc57829003601f168201915b50505091835250506004828101546020830152600583015460408084019190915260068401546060840152600784015460ff161515608080850191909152815190810190915260a0909201919060088401906000835b8282101562001efd57838201805462001e6990620046a6565b80601f016020809104026020016040519081016040528092919081815260200182805462001e9790620046a6565b801562001ee85780601f1062001ebc5761010080835404028352916020019162001ee8565b820191906000526020600020905b81548152906001019060200180831162001eca57829003601f168201915b50505050508152602001906001019062001e50565b50505090825250600c82015460ff80821615156020840152610100820416151560408301526001600160a01b036201000090910481166060830152600d909201549091166080909101528362001f5487856200465a565b8151811062001f675762001f6762004612565b60200260200101819052505b8162001f7f816200463e565b9250505b8062001f8f816200463e565b91505062001c07565b600e54841062001fbc5760405162461bcd60e51b81526004016200094b90620046e2565b6000600e858154811062001fd45762001fd462004612565b90600052602060002090600e0201905080600c0160029054906101000a90046001600160a01b03166001600160a01b0316336001600160a01b031614620020695760405162461bcd60e51b815260206004820152602260248201527f4f6e6c792063726561746f722063616e20656469742074686520736f6369616c604482015261399760f11b60648201526084016200094b565b60088101620020798582620047a6565b50600981016200208a8482620047a6565b50600a81016200209b8382620047a6565b505050505050565b620020ad62003726565b6200095f60006200398e565b620020c362003726565b600955565b600e8181548110620020d957600080fd5b60009182526020909120600e90910201805460018201546002830180549294506001600160a01b0390911692916200211190620046a6565b80601f01602080910402602001604051908101604052809291908181526020018280546200213f90620046a6565b8015620021905780601f10620021645761010080835404028352916020019162002190565b820191906000526020600020905b8154815290600101906020018083116200217257829003601f168201915b505050505090806003018054620021a790620046a6565b80601f0160208091040260200160405190810160405280929190818152602001828054620021d590620046a6565b8015620022265780601f10620021fa5761010080835404028352916020019162002226565b820191906000526020600020905b8154815290600101906020018083116200220857829003601f168201915b505050506004830154600584015460068501546007860154600c870154600d9097015495969395929450909260ff9182169282821692610100830416916201000090046001600160a01b0390811691168c565b6060600080805b600e548110156200231657600e8181548110620022a157620022a162004612565b90600052602060002090600e02016006015442108015620022eb5750600e8181548110620022d357620022d362004612565b60009182526020909120600c600e90920201015460ff165b15620023015781620022fd816200463e565b9250505b806200230d816200463e565b91505062002280565b506000816001600160401b0381111562002334576200233462004155565b6040519080825280602002602001820160405280156200237157816020015b6200235d62003ce8565b815260200190600190039081620023535790505b5090506000805b600e548110156200271257600e818154811062002399576200239962004612565b90600052602060002090600e02016006015442108015620023e35750600e8181548110620023cb57620023cb62004612565b60009182526020909120600c600e90920201015460ff165b15620026fd57600e8181548110620023ff57620023ff62004612565b90600052602060002090600e0201604051806101a0016040529081600082015481526020016001820160009054906101000a90046001600160a01b03166001600160a01b03166001600160a01b031681526020016002820180546200246490620046a6565b80601f01602080910402602001604051908101604052809291908181526020018280546200249290620046a6565b8015620024e35780601f10620024b757610100808354040283529160200191620024e3565b820191906000526020600020905b815481529060010190602001808311620024c557829003601f168201915b50505050508152602001600382018054620024fe90620046a6565b80601f01602080910402602001604051908101604052809291908181526020018280546200252c90620046a6565b80156200257d5780601f1062002551576101008083540402835291602001916200257d565b820191906000526020600020905b8154815290600101906020018083116200255f57829003601f168201915b50505091835250506004828101546020830152600583015460408084019190915260068401546060840152600784015460ff161515608080850191909152815190810190915260a0909201919060088401906000835b8282101562002680578382018054620025ec90620046a6565b80601f01602080910402602001604051908101604052809291908181526020018280546200261a90620046a6565b80156200266b5780601f106200263f576101008083540402835291602001916200266b565b820191906000526020600020905b8154815290600101906020018083116200264d57829003601f168201915b505050505081526020019060010190620025d3565b50505090825250600c82015460ff80821615156020840152610100820416151560408301526001600160a01b036201000090910481166060830152600d909201549091166080909101528351849084908110620026e157620026e162004612565b60200260200101819052508180620026f9906200463e565b9250505b8062002709816200463e565b91505062002378565b5060005b600183516200272691906200465a565b811015620028715760005b60018285516200274291906200465a565b6200274e91906200465a565b8110156200285b57836200276482600162004690565b8151811062002777576200277762004612565b602002602001015160a0015184828151811062002798576200279862004612565b602002602001015160a00151101562002846576000848281518110620027c257620027c262004612565b6020026020010151905084826001620027dc919062004690565b81518110620027ef57620027ef62004612565b60200260200101518583815181106200280c576200280c62004612565b602090810291909101015280856200282684600162004690565b8151811062002839576200283962004612565b6020026020010181905250505b8062002852816200463e565b91505062002731565b508062002868816200463e565b91505062002716565b506000868351116200288557825162002887565b865b90506000816001600160401b03811115620028a657620028a662004155565b604051908082528060200260200182016040528015620028e357816020015b620028cf62003ce8565b815260200190600190039081620028c55790505b50905060005b82811015620016335784818151811062002907576200290762004612565b602002602001015182828151811062002924576200292462004612565b602002602001018190525080806200293c906200463e565b915050620028e9565b6200294f62003726565b6006816200295e848662004690565b6200296a919062004690565b1115620029ba5760405162461bcd60e51b815260206004820152601c60248201527f4d617820362520746f74616c2050657263656e7461676520466565730000000060448201526064016200094b565b811562002a14576008546001600160a01b031662002a145760405162461bcd60e51b8152602060048201526016602482015275109d5c9b88151bdad95b881b5d5cdd081899481cd95d60521b60448201526064016200094b565b600592909255600755600655565b62002a2c62003ce8565b600e54821062002a505760405162461bcd60e51b81526004016200094b90620046e2565b600e828154811062002a665762002a6662004612565b90600052602060002090600e0201604051806101a0016040529081600082015481526020016001820160009054906101000a90046001600160a01b03166001600160a01b03166001600160a01b0316815260200160028201805462002acb90620046a6565b80601f016020809104026020016040519081016040528092919081815260200182805462002af990620046a6565b801562002b4a5780601f1062002b1e5761010080835404028352916020019162002b4a565b820191906000526020600020905b81548152906001019060200180831162002b2c57829003601f168201915b5050505050815260200160038201805462002b6590620046a6565b80601f016020809104026020016040519081016040528092919081815260200182805462002b9390620046a6565b801562002be45780601f1062002bb85761010080835404028352916020019162002be4565b820191906000526020600020905b81548152906001019060200180831162002bc657829003601f168201915b50505091835250506004828101546020830152600583015460408084019190915260068401546060840152600784015460ff161515608080850191909152815190810190915260a0909201919060088401906000835b8282101562002ce757838201805462002c5390620046a6565b80601f016020809104026020016040519081016040528092919081815260200182805462002c8190620046a6565b801562002cd25780601f1062002ca65761010080835404028352916020019162002cd2565b820191906000526020600020905b81548152906001019060200180831162002cb457829003601f168201915b50505050508152602001906001019062002c3a565b50505090825250600c82015460ff80821615156020840152610100820416151560408301526001600160a01b036201000090910481166060830152600d9092015490911660809091015292915050565b62002d4162003726565b600455565b60005b600e5481101562002de257600e818154811062002d6a5762002d6a62004612565b90600052602060002090600e020160060154421015801562002db65750600e818154811062002d9d5762002d9d62004612565b600091825260209091206007600e90920201015460ff16155b1562002dcd5762002dc78162000ea7565b62002de2565b8062002dd9816200463e565b91505062002d49565b50600e54811062002e075760405162461bcd60e51b81526004016200094b90620046e2565b6000600e828154811062002e1f5762002e1f62004612565b90600052602060002090600e020190508060060154421062002e765760405162461bcd60e51b815260206004820152600f60248201526e149bdd5b99081a185cc8195b991959608a1b60448201526064016200094b565b6000341162002ed75760405162461bcd60e51b815260206004820152602660248201527f436f6e747269627574696f6e206d7573742062652067726561746572207468616044820152656e207a65726f60d01b60648201526084016200094b565b6000805b6000848152600f602052604090205481101562002fa5576000848152600f6020526040902080543391908390811062002f185762002f1862004612565b60009182526020909120600390910201546001600160a01b03160362002f90576000848152600f6020526040902080543491908390811062002f5e5762002f5e62004612565b9060005260206000209060030201600101600082825462002f80919062004690565b909155506001925062002fa59050565b8062002f9c816200463e565b91505062002edb565b508062003027576000838152600f6020908152604080832081516060810183523381523481850190815292810185815282546001808201855593875294909520905160039094020180546001600160a01b0319166001600160a01b0390941693909317835590519082015590516002909101805460ff19169115159190911790555b348260050160008282546200303d919062004690565b90915550506040805184815234602082015233917fb2ed2e021651f85a4754a44651fc09ac5141bc0329ce4dfe8dd712a5d04a8b39910160405180910390a2505050565b6200308b62003726565b806001600160a01b03166395d89b416040518163ffffffff1660e01b8152600401600060405180830381865afa925050508015620030ed57506040513d6000823e601f3d908101601f19168201604052620030ea9190810190620048be565b60015b6200313b5760405162461bcd60e51b815260206004820152601760248201527f4e6f7420612076616c696420455243323020746f6b656e00000000000000000060448201526064016200094b565b50600880546001600160a01b0383166001600160a01b031990911617905550565b6200316662003755565b600e5481106200318a5760405162461bcd60e51b81526004016200094b90620046e2565b6000600e8281548110620031a257620031a262004612565b60009182526020909120600e90910201600781015490915060ff16620032035760405162461bcd60e51b8152602060048201526015602482015274149bdd5b99081a5cc81b9bdd08199a5b9a5cda1959605a1b60448201526064016200094b565b600080600062003214853362003448565b925092509250600083116200326c5760405162461bcd60e51b815260206004820152601f60248201527f4e6f20636f6e747269627574696f6e7320666f756e6420666f7220757365720060448201526064016200094b565b8015620032bc5760405162461bcd60e51b815260206004820152601860248201527f546f6b656e7320616c726561647920636f6c6c6563746564000000000000000060448201526064016200094b565b60005b6000868152600f602052604090205481101562003380576000868152600f60205260409020805433919083908110620032fc57620032fc62004612565b60009182526020909120600390910201546001600160a01b0316036200336b576000868152600f602052604090208054600191908390811062003343576200334362004612565b60009182526020909120600390910201600201805460ff191691151591909117905562003380565b8062003377816200463e565b915050620032bf565b50600184015460405163a9059cbb60e01b8152336004820152602481018490526001600160a01b0390911690819063a9059cbb906044016020604051808303816000875af1158015620033d7573d6000803e3d6000fd5b505050506040513d601f19601f82011682018060405250810190620033fd91906200493d565b50604080518781526020810185905233917f143b54f5da49c10a9c2e07250ea943b899bf055afa4e72ed0d4a6c3195eb4ccc910160405180910390a2505050505062000fd060018055565b6000806000600e805490508510620034745760405162461bcd60e51b81526004016200094b90620046e2565b6000600e86815481106200348c576200348c62004612565b6000918252602082206004600e9092020190810154909250906064620034b483603262004676565b620034c091906200495d565b905060009550600094506000935060005b6000898152600f6020526040902054811015620035f6576000898152600f6020526040902080546001600160a01b038a1691908390811062003517576200351762004612565b60009182526020909120600390910201546001600160a01b031603620035e1576000898152600f602052604090208054829081106200355a576200355a62004612565b9060005260206000209060030201600101549650600f60008a8152602001908152602001600020818154811062003595576200359562004612565b6000918252602090912060026003909202010154600585015460ff909116955015620035db576005840154620035cc888462004676565b620035d891906200495d565b95505b620035f6565b80620035ed816200463e565b915050620034d1565b505050509250925092565b6200360b62003726565b6001600160a01b038116620036735760405162461bcd60e51b815260206004820152602760248201527f547265617375727920616464726573732063616e6e6f74206265207a65726f206044820152666164647265737360c81b60648201526084016200094b565b600b80546001600160a01b0319166001600160a01b0392909216919091179055565b6200369f62003726565b6001600160a01b038116620036cb57604051631e4fbdf760e01b8152600060048201526024016200094b565b62000fd0816200398e565b600f6020528160005260406000208181548110620036f357600080fd5b60009182526020909120600390910201805460018201546002909201546001600160a01b03909116935090915060ff1683565b6000546001600160a01b031633146200095f5760405163118cdaa760e01b81523360048201526024016200094b565b6002600154036200377957604051633ee5aeb560e01b815260040160405180910390fd5b6002600155565b6000600e828154811062003798576200379862004612565b6000918252602082206001600e909202019081015460048201549193506001600160a01b0316916064620037ce83603262004676565b620037da91906200495d565b90506000620037e986620039de565b8560050154620037fa91906200465a565b600d86015460405163095ea7b360e01b81526001600160a01b0391821660048201526024810185905291925085169063095ea7b3906044016020604051808303816000875af115801562003852573d6000803e3d6000fd5b505050506040513d601f19601f820116820180604052508101906200387891906200493d565b50600d8501546002546001600160a01b039182169163f305d71991849188918791600091829116620038ad42610e1062004690565b60405160e089901b6001600160e01b03191681526001600160a01b039687166004820152602481019590955260448501939093526064840191909152909216608482015260a481019190915260c40160606040518083038185885af11580156200391b573d6000803e3d6000fd5b50505050506040513d601f19601f8201168201806040525081019062003942919062004980565b505060408051888152602081018590529081018390527fd7f28048575eead8851d024ead087913957dfb4fd1a02b4d1573f5352a5a2be3915060600160405180910390a1505050505050565b600080546001600160a01b038381166001600160a01b0319831681178455604051919092169283917f8be0079c531659141344cd1fd0a4f28419497f9722a3daafe3b4186f6b6457e09190a35050565b600080600e8381548110620039f757620039f762004612565b90600052602060002090600e0201905060006064600654836005015462003a1f919062004676565b62003a2b91906200495d565b9050801562003aca57600c546040805160008082526020820192839052926001600160a01b031691849162003a60916200456e565b60006040518083038185875af1925050503d806000811462003a9f576040519150601f19603f3d011682016040523d82523d6000602084013e62003aa4565b606091505b505090508062003ac85760405162461bcd60e51b81526004016200094b906200458c565b505b60006064600554846005015462003ae2919062004676565b62003aee91906200495d565b9050801562003b8d57600b546040805160008082526020820192839052926001600160a01b031691849162003b23916200456e565b60006040518083038185875af1925050503d806000811462003b62576040519150601f19603f3d011682016040523d82523d6000602084013e62003b67565b606091505b505090508062003b8b5760405162461bcd60e51b81526004016200094b906200458c565b505b60006064600754856005015462003ba5919062004676565b62003bb191906200495d565b9050801562003cc557604080516002808252606082018352600092602083019080368337505060035482519293506001600160a01b03169183915060009062003bfe5762003bfe62004612565b6001600160a01b03928316602091820292909201015260085482519116908290600190811062003c325762003c3262004612565b6001600160a01b039283166020918202929092010152600d546002549082169163b6f9de9591859160009186911662003c6e42610e1062004690565b6040518663ffffffff1660e01b815260040162003c8f9493929190620049af565b6000604051808303818588803b15801562003ca957600080fd5b505af115801562003cbe573d6000803e3d6000fd5b5050505050505b8262003cd2828462004690565b62003cde919062004690565b9695505050505050565b604051806101a001604052806000815260200160006001600160a01b03168152602001606081526020016060815260200160008152602001600081526020016000815260200160001515815260200162003d4162003dc1565b8152600060208201819052604082018190526060820181905260809091015290565b610df58062004a1c83390190565b826004810192821562003daf579160200282015b8281111562003daf578251829062003d9e9082620047a6565b509160200191906001019062003d85565b5062003dbd92915062003de9565b5090565b60405180608001604052806004905b606081526020019060019003908162003dd05790505090565b8082111562003dbd57600062003e00828262003e0a565b5060010162003de9565b50805462003e1890620046a6565b6000825580601f1062003e29575050565b601f01602090049060005260206000209081019062000fd091905b8082111562003dbd576000815560010162003e44565b60006020828403121562003e6d57600080fd5b5035919050565b602080825282518282018190526000919060409081850190868401855b8281101562003ecd57815180516001600160a01b0316855286810151878601528501511515858501526060909301929085019060010162003e91565b5091979650505050505050565b6001600160a01b038116811462000fd057600080fd5b803562003efd8162003eda565b919050565b60006020828403121562003f1557600080fd5b813562003f228162003eda565b9392505050565b6000806040838503121562003f3d57600080fd5b50508035926020909101359150565b60005b8381101562003f6957818101518382015260200162003f4f565b50506000910152565b6000815180845262003f8c81602086016020860162003f4c565b601f01601f19169290920160200192915050565b600082608081018360005b600481101562003fde57838303875262003fc783835162003f72565b602097880197909350919091019060010162003fab565b509095945050505050565b60006101a08251845260208301516200400d60208601826001600160a01b03169052565b506040830151816040860152620040278286018262003f72565b9150506060830151848203606086015262004043828262003f72565b9150506080830151608085015260a083015160a085015260c083015160c085015260e08301516200407860e086018215159052565b50610100808401518583038287015262004093838262003fa0565b9250505061012080840151620040ac8287018215159052565b505061014083810151151590850152610160808401516001600160a01b0390811691860191909152610180938401511692909301919091525090565b6000604082016040835280855180835260608501915060608160051b8601019250602080880160005b838110156200414357605f198887030185526200413086835162003fe9565b9550938201939082019060010162004111565b50509490940194909452949350505050565b634e487b7160e01b600052604160045260246000fd5b604051601f8201601f191681016001600160401b038111828210171562004196576200419662004155565b604052919050565b60006001600160401b03821115620041ba57620041ba62004155565b50601f01601f191660200190565b600082601f830112620041da57600080fd5b8135620041f1620041eb826200419e565b6200416b565b8181528460208386010111156200420757600080fd5b816020850160208301376000918101602001919091529392505050565b600082601f8301126200423657600080fd5b604051608081016001600160401b0382821081831117156200425c576200425c62004155565b8160405282915060808501868111156200427557600080fd5b855b81811015620042af57803583811115620042915760008081fd5b6200429f89828a01620041c8565b8552506020938401930162004277565b50929695505050505050565b801515811462000fd057600080fd5b803562003efd81620042bb565b600080600080600080600080610100898b031215620042f557600080fd5b88356001600160401b03808211156200430d57600080fd5b6200431b8c838d01620041c8565b995060208b01359150808211156200433257600080fd5b620043408c838d01620041c8565b985060408b0135975060608b0135965060808b01359150808211156200436557600080fd5b50620043748b828c0162004224565b9450506200438560a08a01620042ca565b92506200439560c08a01620042ca565b9150620043a560e08a0162003ef0565b90509295985092959890939650565b60008060008060808587031215620043cb57600080fd5b8435935060208501356001600160401b0380821115620043ea57600080fd5b620043f888838901620041c8565b945060408701359150808211156200440f57600080fd5b6200441d88838901620041c8565b935060608701359150808211156200443457600080fd5b506200444387828801620041c8565b91505092959194509250565b8c81526001600160a01b038c166020820152610180604082018190526000906200447c8382018e62003f72565b9050828103606084015262004492818d62003f72565b9150508960808301528860a08301528760c083015286151560e0830152851515610100830152841515610120830152620044d86101408301856001600160a01b03169052565b6001600160a01b0383166101608301529d9c50505050505050505050505050565b6000806000606084860312156200450f57600080fd5b505081359360208301359350604090920135919050565b60208152600062003f22602083018462003fe9565b600080604083850312156200454f57600080fd5b823591506020830135620045638162003eda565b809150509250929050565b600082516200458281846020870162003f4c565b9190910192915050565b60208082526023908201527f5472616e7366657248656c7065723a204554485f5452414e534645525f46414960408201526213115160ea1b606082015260800190565b60208082526023908201527f506167652073697a65206d7573742062652067726561746572207468616e207a60408201526265726f60e81b606082015260800190565b634e487b7160e01b600052603260045260246000fd5b634e487b7160e01b600052601160045260246000fd5b60006001820162004653576200465362004628565b5060010190565b8181038181111562004670576200467062004628565b92915050565b808202811582820484141762004670576200467062004628565b8082018082111562004670576200467062004628565b600181811c90821680620046bb57607f821691505b602082108103620046dc57634e487b7160e01b600052602260045260246000fd5b50919050565b60208082526010908201526f125b9d985b1a59081c9bdd5b9908125160821b604082015260600190565b60808152600062004721608083018762003f72565b828103602084015262004735818762003f72565b604084019590955250506001600160a01b039190911660609091015292915050565b601f821115620047a157600081815260208120601f850160051c81016020861015620047805750805b601f850160051c820191505b818110156200209b578281556001016200478c565b505050565b81516001600160401b03811115620047c257620047c262004155565b620047da81620047d38454620046a6565b8462004757565b602080601f831160018114620048125760008415620047f95750858301515b600019600386901b1c1916600185901b1785556200209b565b600085815260208120601f198616915b82811015620048435788860151825594840194600190910190840162004822565b5085821015620048625787850151600019600388901b60f8161c191681555b5050505050600190811b01905550565b6001600160a01b0385168152608060208201819052600090620048989083018662003f72565b8281036040840152620048ac818662003f72565b91505082606083015295945050505050565b600060208284031215620048d157600080fd5b81516001600160401b03811115620048e857600080fd5b8201601f81018413620048fa57600080fd5b80516200490b620041eb826200419e565b8181528560208385010111156200492157600080fd5b6200493482602083016020860162003f4c565b95945050505050565b6000602082840312156200495057600080fd5b815162003f2281620042bb565b6000826200497b57634e487b7160e01b600052601260045260246000fd5b500490565b6000806000606084860312156200499657600080fd5b8351925060208401519150604084015190509250925092565b600060808201868352602060808185015281875180845260a086019150828901935060005b81811015620049fb5784516001600160a01b031683529383019391830191600101620049d4565b50506001600160a01b03969096166040850152505050606001529291505056fe60806040523480156200001157600080fd5b5060405162000df538038062000df5833981016040819052620000349162000382565b3384846003620000458382620004a6565b506004620000548282620004a6565b5050506001600160a01b0381166200008757604051631e4fbdf760e01b8152600060048201526024015b60405180910390fd5b6200009281620000b3565b506200009f818362000105565b620000a962000143565b505050506200059a565b600580546001600160a01b038381166001600160a01b0319831681179093556040519116919082907f8be0079c531659141344cd1fd0a4f28419497f9722a3daafe3b4186f6b6457e090600090a35050565b6001600160a01b038216620001315760405163ec442f0560e01b8152600060048201526024016200007e565b6200013f600083836200015b565b5050565b6200014d6200028e565b620001596000620000b3565b565b6001600160a01b0383166200018a5780600260008282546200017e919062000572565b90915550620001fe9050565b6001600160a01b03831660009081526020819052604090205481811015620001df5760405163391434e360e21b81526001600160a01b038516600482015260248101829052604481018390526064016200007e565b6001600160a01b03841660009081526020819052604090209082900390555b6001600160a01b0382166200021c576002805482900390556200023b565b6001600160a01b03821660009081526020819052604090208054820190555b816001600160a01b0316836001600160a01b03167fddf252ad1be2c89b69c2b068fc378daa952ba7f163c4a11628f55a4df523b3ef836040516200028191815260200190565b60405180910390a3505050565b6005546001600160a01b03163314620001595760405163118cdaa760e01b81523360048201526024016200007e565b634e487b7160e01b600052604160045260246000fd5b600082601f830112620002e557600080fd5b81516001600160401b0380821115620003025762000302620002bd565b604051601f8301601f19908116603f011681019082821181831017156200032d576200032d620002bd565b816040528381526020925086838588010111156200034a57600080fd5b600091505b838210156200036e57858201830151818301840152908201906200034f565b600093810190920192909252949350505050565b600080600080608085870312156200039957600080fd5b84516001600160401b0380821115620003b157600080fd5b620003bf88838901620002d3565b95506020870151915080821115620003d657600080fd5b50620003e587828801620002d3565b60408701516060880151919550935090506001600160a01b03811681146200040c57600080fd5b939692955090935050565b600181811c908216806200042c57607f821691505b6020821081036200044d57634e487b7160e01b600052602260045260246000fd5b50919050565b601f821115620004a157600081815260208120601f850160051c810160208610156200047c5750805b601f850160051c820191505b818110156200049d5782815560010162000488565b5050505b505050565b81516001600160401b03811115620004c257620004c2620002bd565b620004da81620004d3845462000417565b8462000453565b602080601f831160018114620005125760008415620004f95750858301515b600019600386901b1c1916600185901b1785556200049d565b600085815260208120601f198616915b82811015620005435788860151825594840194600190910190840162000522565b5085821015620005625787850151600019600388901b60f8161c191681555b5050505050600190811b01905550565b808201808211156200059457634e487b7160e01b600052601160045260246000fd5b92915050565b61084b80620005aa6000396000f3fe608060405234801561001057600080fd5b50600436106100b45760003560e01c8063715018a611610071578063715018a6146101575780638da5cb5b1461016157806395d89b411461017c578063a9059cbb14610184578063dd62ed3e14610197578063f2fde38b146101d057600080fd5b806306fdde03146100b9578063095ea7b3146100d757806318160ddd146100fa57806323b872dd1461010c578063313ce5671461011f57806370a082311461012e575b600080fd5b6100c16101e3565b6040516100ce9190610695565b60405180910390f35b6100ea6100e53660046106ff565b610275565b60405190151581526020016100ce565b6002545b6040519081526020016100ce565b6100ea61011a366004610729565b61028f565b604051601281526020016100ce565b6100fe61013c366004610765565b6001600160a01b031660009081526020819052604090205490565b61015f6102b3565b005b6005546040516001600160a01b0390911681526020016100ce565b6100c16102c7565b6100ea6101923660046106ff565b6102d6565b6100fe6101a5366004610787565b6001600160a01b03918216600090815260016020908152604080832093909416825291909152205490565b61015f6101de366004610765565b6102e4565b6060600380546101f2906107ba565b80601f016020809104026020016040519081016040528092919081815260200182805461021e906107ba565b801561026b5780601f106102405761010080835404028352916020019161026b565b820191906000526020600020905b81548152906001019060200180831161024e57829003601f168201915b5050505050905090565b600033610283818585610327565b60019150505b92915050565b60003361029d858285610339565b6102a88585856103b8565b506001949350505050565b6102bb610417565b6102c56000610444565b565b6060600480546101f2906107ba565b6000336102838185856103b8565b6102ec610417565b6001600160a01b03811661031b57604051631e4fbdf760e01b8152600060048201526024015b60405180910390fd5b61032481610444565b50565b6103348383836001610496565b505050565b6001600160a01b038381166000908152600160209081526040808320938616835292905220546000198110156103b257818110156103a357604051637dc7a0d960e11b81526001600160a01b03841660048201526024810182905260448101839052606401610312565b6103b284848484036000610496565b50505050565b6001600160a01b0383166103e257604051634b637e8f60e11b815260006004820152602401610312565b6001600160a01b03821661040c5760405163ec442f0560e01b815260006004820152602401610312565b61033483838361056b565b6005546001600160a01b031633146102c55760405163118cdaa760e01b8152336004820152602401610312565b600580546001600160a01b038381166001600160a01b0319831681179093556040519116919082907f8be0079c531659141344cd1fd0a4f28419497f9722a3daafe3b4186f6b6457e090600090a35050565b6001600160a01b0384166104c05760405163e602df0560e01b815260006004820152602401610312565b6001600160a01b0383166104ea57604051634a1406b160e11b815260006004820152602401610312565b6001600160a01b03808516600090815260016020908152604080832093871683529290522082905580156103b257826001600160a01b0316846001600160a01b03167f8c5be1e5ebec7d5bd14f71427d1e84f3dd0314c0f7b2291e5b200ac8c7c3b9258460405161055d91815260200190565b60405180910390a350505050565b6001600160a01b03831661059657806002600082825461058b91906107f4565b909155506106089050565b6001600160a01b038316600090815260208190526040902054818110156105e95760405163391434e360e21b81526001600160a01b03851660048201526024810182905260448101839052606401610312565b6001600160a01b03841660009081526020819052604090209082900390555b6001600160a01b03821661062457600280548290039055610643565b6001600160a01b03821660009081526020819052604090208054820190555b816001600160a01b0316836001600160a01b03167fddf252ad1be2c89b69c2b068fc378daa952ba7f163c4a11628f55a4df523b3ef8360405161068891815260200190565b60405180910390a3505050565b600060208083528351808285015260005b818110156106c2578581018301518582016040015282016106a6565b506000604082860101526040601f19601f8301168501019250505092915050565b80356001600160a01b03811681146106fa57600080fd5b919050565b6000806040838503121561071257600080fd5b61071b836106e3565b946020939093013593505050565b60008060006060848603121561073e57600080fd5b610747846106e3565b9250610755602085016106e3565b9150604084013590509250925092565b60006020828403121561077757600080fd5b610780826106e3565b9392505050565b6000806040838503121561079a57600080fd5b6107a3836106e3565b91506107b1602084016106e3565b90509250929050565b600181811c908216806107ce57607f821691505b6020821081036107ee57634e487b7160e01b600052602260045260246000fd5b50919050565b8082018082111561028957634e487b7160e01b600052601160045260246000fdfea2646970667358221220b26c4ccad4e37bcbe3b892369cf4baa5880bef52f00b5b65d03bdcbd7331b4ef64736f6c63430008140033a26469706673582212201587d02854756f4a563b1408c5b56168c09f80e9a53f71861f676955f02305fa64736f6c63430008140033",
  "linkReferences": {},
  "deployedLinkReferences": {}
}