{
  "_format": "hh-sol-artifact-1",
  "contractName": "PreLaunchManager3",
  "sourceName": "contracts/launchManagerV3Neon.sol",
  "abi": [
    {
      "inputs": [
        {
          "internalType": "uint256",
          "name": "_creationFee",
          "type": "uint256"
        },
        {
          "internalType": "uint256",
          "name": "_platformFeePercentage",
          "type": "uint256"
        },
        {
          "internalType": "uint256",
          "name": "_prizeFeePercentage",
          "type": "uint256"
        },
        {
          "internalType": "uint256",
          "name": "_burnFeePercentage",
          "type": "uint256"
        },
        {
          "internalType": "address",
          "name": "_burnToken",
          "type": "address"
        },
        {
          "internalType": "address",
          "name": "_treasury",
          "type": "address"
        },
        {
          "internalType": "address",
          "name": "_prizeTreasury",
          "type": "address"
        },
        {
          "internalType": "address",
          "name": "_router",
          "type": "address"
        },
        {
          "internalType": "uint256",
          "name": "_sponsorshipFee",
          "type": "uint256"
        }
      ],
      "stateMutability": "nonpayable",
      "type": "constructor"
    },
    {
      "inputs": [
        {
          "internalType": "address",
          "name": "owner",
          "type": "address"
        }
      ],
      "name": "OwnableInvalidOwner",
      "type": "error"
    },
    {
      "inputs": [
        {
          "internalType": "address",
          "name": "account",
          "type": "address"
        }
      ],
      "name": "OwnableUnauthorizedAccount",
      "type": "error"
    },
    {
      "inputs": [],
      "name": "ReentrancyGuardReentrantCall",
      "type": "error"
    },
    {
      "anonymous": false,
      "inputs": [
        {
          "indexed": false,
          "internalType": "uint256",
          "name": "roundId",
          "type": "uint256"
        },
        {
          "indexed": true,
          "internalType": "address",
          "name": "user",
          "type": "address"
        },
        {
          "indexed": false,
          "internalType": "uint256",
          "name": "amount",
          "type": "uint256"
        }
      ],
      "name": "Contributed",
      "type": "event"
    },
    {
      "anonymous": false,
      "inputs": [
        {
          "indexed": false,
          "internalType": "uint256",
          "name": "roundId",
          "type": "uint256"
        },
        {
          "indexed": false,
          "internalType": "uint256",
          "name": "tokenAmount",
          "type": "uint256"
        },
        {
          "indexed": false,
          "internalType": "uint256",
          "name": "nativeCoinAmount",
          "type": "uint256"
        }
      ],
      "name": "LiquidityAdded",
      "type": "event"
    },
    {
      "anonymous": false,
      "inputs": [
        {
          "indexed": true,
          "internalType": "address",
          "name": "previousOwner",
          "type": "address"
        },
        {
          "indexed": true,
          "internalType": "address",
          "name": "newOwner",
          "type": "address"
        }
      ],
      "name": "OwnershipTransferred",
      "type": "event"
    },
    {
      "anonymous": false,
      "inputs": [
        {
          "indexed": false,
          "internalType": "address",
          "name": "tokenContract",
          "type": "address"
        },
        {
          "indexed": false,
          "internalType": "string",
          "name": "name",
          "type": "string"
        },
        {
          "indexed": false,
          "internalType": "string",
          "name": "symbol",
          "type": "string"
        },
        {
          "indexed": false,
          "internalType": "uint256",
          "name": "endEpoch",
          "type": "uint256"
        },
        {
          "indexed": false,
          "internalType": "address",
          "name": "creator",
          "type": "address"
        }
      ],
      "name": "RoundStarted",
      "type": "event"
    },
    {
      "anonymous": false,
      "inputs": [
        {
          "indexed": false,
          "internalType": "uint256",
          "name": "roundId",
          "type": "uint256"
        },
        {
          "indexed": true,
          "internalType": "address",
          "name": "user",
          "type": "address"
        },
        {
          "indexed": false,
          "internalType": "uint256",
          "name": "amount",
          "type": "uint256"
        }
      ],
      "name": "TokensCollected",
      "type": "event"
    },
    {
      "anonymous": false,
      "inputs": [
        {
          "indexed": false,
          "internalType": "uint256",
          "name": "roundId",
          "type": "uint256"
        },
        {
          "indexed": false,
          "internalType": "uint256",
          "name": "totalDistributed",
          "type": "uint256"
        }
      ],
      "name": "TokensDistributed",
      "type": "event"
    },
    {
      "inputs": [],
      "name": "burnFeePercentage",
      "outputs": [
        {
          "internalType": "uint256",
          "name": "",
          "type": "uint256"
        }
      ],
      "stateMutability": "view",
      "type": "function"
    },
    {
      "inputs": [],
      "name": "burnToken",
      "outputs": [
        {
          "internalType": "address",
          "name": "",
          "type": "address"
        }
      ],
      "stateMutability": "view",
      "type": "function"
    },
    {
      "inputs": [
        {
          "internalType": "uint256",
          "name": "roundId",
          "type": "uint256"
        }
      ],
      "name": "collect",
      "outputs": [],
      "stateMutability": "nonpayable",
      "type": "function"
    },
    {
      "inputs": [
        {
          "internalType": "uint256",
          "name": "roundId",
          "type": "uint256"
        }
      ],
      "name": "contribute",
      "outputs": [],
      "stateMutability": "payable",
      "type": "function"
    },
    {
      "inputs": [],
      "name": "creationFee",
      "outputs": [
        {
          "internalType": "uint256",
          "name": "",
          "type": "uint256"
        }
      ],
      "stateMutability": "view",
      "type": "function"
    },
    {
      "inputs": [],
      "name": "deadAddress",
      "outputs": [
        {
          "internalType": "address",
          "name": "",
          "type": "address"
        }
      ],
      "stateMutability": "view",
      "type": "function"
    },
    {
      "inputs": [
        {
          "internalType": "uint256",
          "name": "roundId",
          "type": "uint256"
        },
        {
          "internalType": "string",
          "name": "_website",
          "type": "string"
        },
        {
          "internalType": "string",
          "name": "_telegram",
          "type": "string"
        },
        {
          "internalType": "string",
          "name": "_logo",
          "type": "string"
        }
      ],
      "name": "editProjectInfo",
      "outputs": [],
      "stateMutability": "nonpayable",
      "type": "function"
    },
    {
      "inputs": [],
      "name": "finalizeHowMany",
      "outputs": [
        {
          "internalType": "uint256",
          "name": "",
          "type": "uint256"
        }
      ],
      "stateMutability": "view",
      "type": "function"
    },
    {
      "inputs": [
        {
          "internalType": "uint256",
          "name": "roundId",
          "type": "uint256"
        }
      ],
      "name": "finalizeRound",
      "outputs": [],
      "stateMutability": "nonpayable",
      "type": "function"
    },
    {
      "inputs": [
        {
          "internalType": "uint256",
          "name": "pageNumber",
          "type": "uint256"
        },
        {
          "internalType": "uint256",
          "name": "pageSize",
          "type": "uint256"
        }
      ],
      "name": "getFinishedRounds",
      "outputs": [
        {
          "components": [
            {
              "internalType": "uint256",
              "name": "roundId",
              "type": "uint256"
            },
            {
              "internalType": "string",
              "name": "name",
              "type": "string"
            },
            {
              "internalType": "string",
              "name": "symbol",
              "type": "string"
            },
            {
              "internalType": "uint256",
              "name": "totalSupply",
              "type": "uint256"
            },
            {
              "internalType": "uint256",
              "name": "totalRaised",
              "type": "uint256"
            },
            {
              "internalType": "uint256",
              "name": "endEpoch",
              "type": "uint256"
            },
            {
              "internalType": "uint256",
              "name": "softCap",
              "type": "uint256"
            },
            {
              "internalType": "bool",
              "name": "isFinished",
              "type": "bool"
            },
            {
              "internalType": "bool",
              "name": "isGraduated",
              "type": "bool"
            },
            {
              "internalType": "string[4]",
              "name": "projectInfo",
              "type": "string[4]"
            },
            {
              "internalType": "bool",
              "name": "sponsored",
              "type": "bool"
            },
            {
              "internalType": "address",
              "name": "creator",
              "type": "address"
            },
            {
              "internalType": "address",
              "name": "tokenContract",
              "type": "address"
            }
          ],
          "internalType": "struct PreLaunchManager3.Round[]",
          "name": "",
          "type": "tuple[]"
        },
        {
          "internalType": "uint256",
          "name": "total",
          "type": "uint256"
        }
      ],
      "stateMutability": "view",
      "type": "function"
    },
    {
      "inputs": [
        {
          "internalType": "uint256",
          "name": "pageNumber",
          "type": "uint256"
        },
        {
          "internalType": "uint256",
          "name": "pageSize",
          "type": "uint256"
        }
      ],
      "name": "getLiveRounds",
      "outputs": [
        {
          "components": [
            {
              "internalType": "uint256",
              "name": "roundId",
              "type": "uint256"
            },
            {
              "internalType": "string",
              "name": "name",
              "type": "string"
            },
            {
              "internalType": "string",
              "name": "symbol",
              "type": "string"
            },
            {
              "internalType": "uint256",
              "name": "totalSupply",
              "type": "uint256"
            },
            {
              "internalType": "uint256",
              "name": "totalRaised",
              "type": "uint256"
            },
            {
              "internalType": "uint256",
              "name": "endEpoch",
              "type": "uint256"
            },
            {
              "internalType": "uint256",
              "name": "softCap",
              "type": "uint256"
            },
            {
              "internalType": "bool",
              "name": "isFinished",
              "type": "bool"
            },
            {
              "internalType": "bool",
              "name": "isGraduated",
              "type": "bool"
            },
            {
              "internalType": "string[4]",
              "name": "projectInfo",
              "type": "string[4]"
            },
            {
              "internalType": "bool",
              "name": "sponsored",
              "type": "bool"
            },
            {
              "internalType": "address",
              "name": "creator",
              "type": "address"
            },
            {
              "internalType": "address",
              "name": "tokenContract",
              "type": "address"
            }
          ],
          "internalType": "struct PreLaunchManager3.Round[]",
          "name": "",
          "type": "tuple[]"
        },
        {
          "internalType": "uint256",
          "name": "total",
          "type": "uint256"
        }
      ],
      "stateMutability": "view",
      "type": "function"
    },
    {
      "inputs": [
        {
          "internalType": "uint256",
          "name": "roundId",
          "type": "uint256"
        }
      ],
      "name": "getRoundContributions",
      "outputs": [
        {
          "components": [
            {
              "internalType": "address",
              "name": "user",
              "type": "address"
            },
            {
              "internalType": "uint256",
              "name": "amount",
              "type": "uint256"
            },
            {
              "internalType": "bool",
              "name": "collected",
              "type": "bool"
            }
          ],
          "internalType": "struct PreLaunchManager3.RoundUserContribution[]",
          "name": "",
          "type": "tuple[]"
        }
      ],
      "stateMutability": "view",
      "type": "function"
    },
    {
      "inputs": [
        {
          "internalType": "uint256",
          "name": "roundId",
          "type": "uint256"
        }
      ],
      "name": "getRoundDetails",
      "outputs": [
        {
          "components": [
            {
              "internalType": "uint256",
              "name": "roundId",
              "type": "uint256"
            },
            {
              "internalType": "string",
              "name": "name",
              "type": "string"
            },
            {
              "internalType": "string",
              "name": "symbol",
              "type": "string"
            },
            {
              "internalType": "uint256",
              "name": "totalSupply",
              "type": "uint256"
            },
            {
              "internalType": "uint256",
              "name": "totalRaised",
              "type": "uint256"
            },
            {
              "internalType": "uint256",
              "name": "endEpoch",
              "type": "uint256"
            },
            {
              "internalType": "uint256",
              "name": "softCap",
              "type": "uint256"
            },
            {
              "internalType": "bool",
              "name": "isFinished",
              "type": "bool"
            },
            {
              "internalType": "bool",
              "name": "isGraduated",
              "type": "bool"
            },
            {
              "internalType": "string[4]",
              "name": "projectInfo",
              "type": "string[4]"
            },
            {
              "internalType": "bool",
              "name": "sponsored",
              "type": "bool"
            },
            {
              "internalType": "address",
              "name": "creator",
              "type": "address"
            },
            {
              "internalType": "address",
              "name": "tokenContract",
              "type": "address"
            }
          ],
          "internalType": "struct PreLaunchManager3.Round",
          "name": "",
          "type": "tuple"
        }
      ],
      "stateMutability": "view",
      "type": "function"
    },
    {
      "inputs": [
        {
          "internalType": "uint256",
          "name": "howMany",
          "type": "uint256"
        }
      ],
      "name": "getTop",
      "outputs": [
        {
          "components": [
            {
              "internalType": "uint256",
              "name": "roundId",
              "type": "uint256"
            },
            {
              "internalType": "string",
              "name": "name",
              "type": "string"
            },
            {
              "internalType": "string",
              "name": "symbol",
              "type": "string"
            },
            {
              "internalType": "uint256",
              "name": "totalSupply",
              "type": "uint256"
            },
            {
              "internalType": "uint256",
              "name": "totalRaised",
              "type": "uint256"
            },
            {
              "internalType": "uint256",
              "name": "endEpoch",
              "type": "uint256"
            },
            {
              "internalType": "uint256",
              "name": "softCap",
              "type": "uint256"
            },
            {
              "internalType": "bool",
              "name": "isFinished",
              "type": "bool"
            },
            {
              "internalType": "bool",
              "name": "isGraduated",
              "type": "bool"
            },
            {
              "internalType": "string[4]",
              "name": "projectInfo",
              "type": "string[4]"
            },
            {
              "internalType": "bool",
              "name": "sponsored",
              "type": "bool"
            },
            {
              "internalType": "address",
              "name": "creator",
              "type": "address"
            },
            {
              "internalType": "address",
              "name": "tokenContract",
              "type": "address"
            }
          ],
          "internalType": "struct PreLaunchManager3.Round[]",
          "name": "",
          "type": "tuple[]"
        },
        {
          "internalType": "uint256",
          "name": "total",
          "type": "uint256"
        }
      ],
      "stateMutability": "view",
      "type": "function"
    },
    {
      "inputs": [
        {
          "internalType": "uint256",
          "name": "howMany",
          "type": "uint256"
        }
      ],
      "name": "getTopLiveWithSponsorship",
      "outputs": [
        {
          "components": [
            {
              "internalType": "uint256",
              "name": "roundId",
              "type": "uint256"
            },
            {
              "internalType": "string",
              "name": "name",
              "type": "string"
            },
            {
              "internalType": "string",
              "name": "symbol",
              "type": "string"
            },
            {
              "internalType": "uint256",
              "name": "totalSupply",
              "type": "uint256"
            },
            {
              "internalType": "uint256",
              "name": "totalRaised",
              "type": "uint256"
            },
            {
              "internalType": "uint256",
              "name": "endEpoch",
              "type": "uint256"
            },
            {
              "internalType": "uint256",
              "name": "softCap",
              "type": "uint256"
            },
            {
              "internalType": "bool",
              "name": "isFinished",
              "type": "bool"
            },
            {
              "internalType": "bool",
              "name": "isGraduated",
              "type": "bool"
            },
            {
              "internalType": "string[4]",
              "name": "projectInfo",
              "type": "string[4]"
            },
            {
              "internalType": "bool",
              "name": "sponsored",
              "type": "bool"
            },
            {
              "internalType": "address",
              "name": "creator",
              "type": "address"
            },
            {
              "internalType": "address",
              "name": "tokenContract",
              "type": "address"
            }
          ],
          "internalType": "struct PreLaunchManager3.Round[]",
          "name": "",
          "type": "tuple[]"
        },
        {
          "internalType": "uint256",
          "name": "total",
          "type": "uint256"
        }
      ],
      "stateMutability": "view",
      "type": "function"
    },
    {
      "inputs": [
        {
          "internalType": "uint256",
          "name": "roundId",
          "type": "uint256"
        },
        {
          "internalType": "address",
          "name": "user",
          "type": "address"
        }
      ],
      "name": "getUserContributionAndAllocation",
      "outputs": [
        {
          "internalType": "uint256",
          "name": "contribution",
          "type": "uint256"
        },
        {
          "internalType": "uint256",
          "name": "tokenAllocation",
          "type": "uint256"
        },
        {
          "internalType": "bool",
          "name": "collected",
          "type": "bool"
        }
      ],
      "stateMutability": "view",
      "type": "function"
    },
    {
      "inputs": [],
      "name": "owner",
      "outputs": [
        {
          "internalType": "address",
          "name": "",
          "type": "address"
        }
      ],
      "stateMutability": "view",
      "type": "function"
    },
    {
      "inputs": [],
      "name": "platformFeePercentage",
      "outputs": [
        {
          "internalType": "uint256",
          "name": "",
          "type": "uint256"
        }
      ],
      "stateMutability": "view",
      "type": "function"
    },
    {
      "inputs": [],
      "name": "prizeFeePercentage",
      "outputs": [
        {
          "internalType": "uint256",
          "name": "",
          "type": "uint256"
        }
      ],
      "stateMutability": "view",
      "type": "function"
    },
    {
      "inputs": [],
      "name": "prizeTreasury",
      "outputs": [
        {
          "internalType": "address",
          "name": "",
          "type": "address"
        }
      ],
      "stateMutability": "view",
      "type": "function"
    },
    {
      "inputs": [],
      "name": "renounceOwnership",
      "outputs": [],
      "stateMutability": "nonpayable",
      "type": "function"
    },
    {
      "inputs": [
        {
          "internalType": "uint256",
          "name": "",
          "type": "uint256"
        },
        {
          "internalType": "uint256",
          "name": "",
          "type": "uint256"
        }
      ],
      "name": "roundContributions",
      "outputs": [
        {
          "internalType": "address",
          "name": "user",
          "type": "address"
        },
        {
          "internalType": "uint256",
          "name": "amount",
          "type": "uint256"
        },
        {
          "internalType": "bool",
          "name": "collected",
          "type": "bool"
        }
      ],
      "stateMutability": "view",
      "type": "function"
    },
    {
      "inputs": [
        {
          "internalType": "uint256",
          "name": "",
          "type": "uint256"
        }
      ],
      "name": "rounds",
      "outputs": [
        {
          "internalType": "uint256",
          "name": "roundId",
          "type": "uint256"
        },
        {
          "internalType": "string",
          "name": "name",
          "type": "string"
        },
        {
          "internalType": "string",
          "name": "symbol",
          "type": "string"
        },
        {
          "internalType": "uint256",
          "name": "totalSupply",
          "type": "uint256"
        },
        {
          "internalType": "uint256",
          "name": "totalRaised",
          "type": "uint256"
        },
        {
          "internalType": "uint256",
          "name": "endEpoch",
          "type": "uint256"
        },
        {
          "internalType": "uint256",
          "name": "softCap",
          "type": "uint256"
        },
        {
          "internalType": "bool",
          "name": "isFinished",
          "type": "bool"
        },
        {
          "internalType": "bool",
          "name": "isGraduated",
          "type": "bool"
        },
        {
          "internalType": "bool",
          "name": "sponsored",
          "type": "bool"
        },
        {
          "internalType": "address",
          "name": "creator",
          "type": "address"
        },
        {
          "internalType": "address",
          "name": "tokenContract",
          "type": "address"
        }
      ],
      "stateMutability": "view",
      "type": "function"
    },
    {
      "inputs": [],
      "name": "router",
      "outputs": [
        {
          "internalType": "contract IUniswapV2Router02",
          "name": "",
          "type": "address"
        }
      ],
      "stateMutability": "view",
      "type": "function"
    },
    {
      "inputs": [
        {
          "internalType": "address",
          "name": "newBurnToken",
          "type": "address"
        }
      ],
      "name": "setBurnToken",
      "outputs": [],
      "stateMutability": "nonpayable",
      "type": "function"
    },
    {
      "inputs": [
        {
          "internalType": "uint256",
          "name": "newCreationFee",
          "type": "uint256"
        }
      ],
      "name": "setCreationFee",
      "outputs": [],
      "stateMutability": "nonpayable",
      "type": "function"
    },
    {
      "inputs": [
        {
          "internalType": "uint256",
          "name": "newPlatformPercentage",
          "type": "uint256"
        },
        {
          "internalType": "uint256",
          "name": "newBurnPercentage",
          "type": "uint256"
        },
        {
          "internalType": "uint256",
          "name": "newPrizePercentage",
          "type": "uint256"
        }
      ],
      "name": "setFeePercentages",
      "outputs": [],
      "stateMutability": "nonpayable",
      "type": "function"
    },
    {
      "inputs": [
        {
          "internalType": "address",
          "name": "newRouter",
          "type": "address"
        }
      ],
      "name": "setRouter",
      "outputs": [],
      "stateMutability": "nonpayable",
      "type": "function"
    },
    {
      "inputs": [
        {
          "internalType": "uint256",
          "name": "newSponsorshipFee",
          "type": "uint256"
        }
      ],
      "name": "setSponsorshipFee",
      "outputs": [],
      "stateMutability": "nonpayable",
      "type": "function"
    },
    {
      "inputs": [
        {
          "internalType": "address",
          "name": "newTreasury",
          "type": "address"
        }
      ],
      "name": "setTreasury",
      "outputs": [],
      "stateMutability": "nonpayable",
      "type": "function"
    },
    {
      "inputs": [],
      "name": "sponsorshipFee",
      "outputs": [
        {
          "internalType": "uint256",
          "name": "",
          "type": "uint256"
        }
      ],
      "stateMutability": "view",
      "type": "function"
    },
    {
      "inputs": [
        {
          "internalType": "string",
          "name": "_name",
          "type": "string"
        },
        {
          "internalType": "string",
          "name": "_symbol",
          "type": "string"
        },
        {
          "internalType": "uint256",
          "name": "initialSupply",
          "type": "uint256"
        },
        {
          "internalType": "uint256",
          "name": "_endEpoch",
          "type": "uint256"
        },
        {
          "internalType": "uint256",
          "name": "_softCap",
          "type": "uint256"
        },
        {
          "internalType": "string[4]",
          "name": "_projectInfo",
          "type": "string[4]"
        },
        {
          "internalType": "bool",
          "name": "_sponsored",
          "type": "bool"
        }
      ],
      "name": "startRound",
      "outputs": [],
      "stateMutability": "payable",
      "type": "function"
    },
    {
      "inputs": [
        {
          "internalType": "address",
          "name": "newOwner",
          "type": "address"
        }
      ],
      "name": "transferOwnership",
      "outputs": [],
      "stateMutability": "nonpayable",
      "type": "function"
    },
    {
      "inputs": [],
      "name": "treasury",
      "outputs": [
        {
          "internalType": "address",
          "name": "",
          "type": "address"
        }
      ],
      "stateMutability": "view",
      "type": "function"
    },
    {
      "inputs": [],
      "name": "withdrawPlatformFee",
      "outputs": [],
      "stateMutability": "nonpayable",
      "type": "function"
    }
  ],
  "bytecode": "0x6080604052600280546001600160a01b03191661dead178155600c553480156200002857600080fd5b5060405162005a8338038062005a838339810160408190526200004b916200015e565b33806200007257604051631e4fbdf760e01b81526000600482015260240160405180910390fd5b6200007d81620000f1565b5060018055600398909855600496909655600693909355600593909355600a80546001600160a01b03199081166001600160a01b03948516179091556007805482169284169290921790915560098054821693831693909317909255600b80549092169216919091179055600855620001ec565b600080546001600160a01b038381166001600160a01b0319831681178455604051919092169283917f8be0079c531659141344cd1fd0a4f28419497f9722a3daafe3b4186f6b6457e09190a35050565b80516001600160a01b03811681146200015957600080fd5b919050565b60008060008060008060008060006101208a8c0312156200017e57600080fd5b8951985060208a0151975060408a0151965060608a01519550620001a560808b0162000141565b9450620001b560a08b0162000141565b9350620001c560c08b0162000141565b9250620001d560e08b0162000141565b91506101008a015190509295985092959850929598565b61588780620001fc6000396000f3fe6080604052600436106200022f5760003560e01c8063b4b081df116200012f578063dce0b4e411620000ad578063f2fde38b1162000078578063f2fde38b146200069f578063f4fbb61214620006c4578063f887ea401462000711578063f907842c1462000733578063faa0a264146200074a57600080fd5b8063dce0b4e41462000607578063e08f1369146200061f578063e4e988761462000662578063f0f44260146200067a57600080fd5b8063c1cbbca711620000fa578063c1cbbca71462000576578063c3587980146200058d578063c4ceb33914620005b2578063cdd78cfc14620005ca578063ce3f865f14620005e257600080fd5b8063b4b081df14620004d3578063b6b12e6114620004f8578063b7d86225146200052c578063c0d78655146200055157600080fd5b806361d027b311620001bd5780637c4b74ee11620001885780637c4b74ee14620004155780638214fab714620004375780638c65c81f146200044f5780638da5cb5b146200048e578063a121bd7814620004ae57600080fd5b806361d027b3146200038f5780636c58899014620003b1578063715018a614620003d8578063755bba5114620003f057600080fd5b80633469f6e211620001fe5780633469f6e214620002fb57806337caa8b61462000320578063486f280b146200034557806361380f43146200036a57600080fd5b80630c45114d1462000234578063202cefd5146200027157806322b5adbb146200028b57806327c8f83514620002c0575b600080fd5b3480156200024157600080fd5b50620002596200025336600462003ecc565b6200076c565b60405162000268919062003ee6565b60405180910390f35b3480156200027e57600080fd5b506200028962000808565b005b3480156200029857600080fd5b50620002b0620002aa36600462003f4c565b620008c7565b60405162000268929190620040f9565b348015620002cd57600080fd5b50600254620002e2906001600160a01b031681565b6040516001600160a01b03909116815260200162000268565b3480156200030857600080fd5b50620002896200031a36600462003ecc565b62000de9565b3480156200032d57600080fd5b50620002b06200033f36600462003ecc565b62000f2b565b3480156200035257600080fd5b50620002b06200036436600462003f4c565b62001574565b3480156200037757600080fd5b50620002896200038936600462004260565b62001a86565b3480156200039c57600080fd5b50600954620002e2906001600160a01b031681565b348015620003be57600080fd5b50620003c9600c5481565b60405190815260200162000268565b348015620003e557600080fd5b506200028962001b91565b348015620003fd57600080fd5b50620002896200040f36600462003ecc565b62001ba7565b3480156200042257600080fd5b50600a54620002e2906001600160a01b031681565b3480156200044457600080fd5b50620003c960085481565b3480156200045c57600080fd5b50620004746200046e36600462003ecc565b62001bb6565b604051620002689c9b9a99989796959493929190620042fb565b3480156200049b57600080fd5b506000546001600160a01b0316620002e2565b348015620004bb57600080fd5b50620002b0620004cd36600462003ecc565b62001d5b565b348015620004e057600080fd5b5062000289620004f236600462004399565b62002403565b3480156200050557600080fd5b506200051d6200051736600462003ecc565b620024e0565b604051620002689190620043c6565b3480156200053957600080fd5b50620002896200054b36600462003ecc565b620027d1565b3480156200055e57600080fd5b506200028962000570366004620043f8565b620027e0565b620002896200058736600462003ecc565b62002872565b3480156200059a57600080fd5b5062000289620005ac366004620043f8565b62002bc4565b348015620005bf57600080fd5b50620003c960065481565b348015620005d757600080fd5b50620003c960045481565b348015620005ef57600080fd5b50620002896200060136600462003ecc565b62002c9f565b3480156200061457600080fd5b50620003c960035481565b3480156200062c57600080fd5b50620006446200063e36600462004418565b6200306c565b60408051938452602084019290925215159082015260600162000268565b3480156200066f57600080fd5b50620003c960055481565b3480156200068757600080fd5b506200028962000699366004620043f8565b62003225565b348015620006ac57600080fd5b5062000289620006be366004620043f8565b620032b9565b348015620006d157600080fd5b50620006e9620006e336600462003f4c565b620032fa565b604080516001600160a01b039094168452602084019290925215159082015260600162000268565b3480156200071e57600080fd5b50600b54620002e2906001600160a01b031681565b62000289620007443660046200446c565b6200334a565b3480156200075757600080fd5b50600754620002e2906001600160a01b031681565b6060600e6000838152602001908152602001600020805480602002602001604051908101604052809291908181526020016000905b82821015620007fd576000848152602090819020604080516060810182526003860290920180546001600160a01b031683526001808201548486015260029091015460ff161515918301919091529083529092019101620007a1565b505050509050919050565b6200081262003740565b6200081c6200376f565b600080546040805183815260208101918290526001600160a01b0390921691479162000849919062004588565b60006040518083038185875af1925050503d806000811462000888576040519150601f19603f3d011682016040523d82523d6000602084013e6200088d565b606091505b5050905080620008ba5760405162461bcd60e51b8152600401620008b190620045a6565b60405180910390fd5b50620008c560018055565b565b60606000808311620008ed5760405162461bcd60e51b8152600401620008b190620045e9565b6000805b600d548110156200095157600d81815481106200091257620009126200462c565b90600052602060002090600e0201600501544210156200093c5781620009388162004658565b9250505b80620009488162004658565b915050620008f1565b506000846200096260018862004674565b6200096e919062004690565b905060006001620009808784620046aa565b6200098c919062004674565b9050828210620009db5760405162461bcd60e51b8152602060048201526019602482015278537461727420696e646578206f7574206f6620626f756e647360381b6044820152606401620008b1565b828110620009f357620009f060018462004674565b90505b600062000a01838362004674565b62000a0e906001620046aa565b6001600160401b0381111562000a285762000a2862004166565b60405190808252806020026020018201604052801562000a6557816020015b62000a5162003d61565b81526020019060019003908162000a475790505b5090506000805b600d548110801562000a7e5750838211155b1562000dd957600d818154811062000a9a5762000a9a6200462c565b90600052602060002090600e02016005015442101562000dc45781851115801562000ac55750838211155b1562000db457600d818154811062000ae15762000ae16200462c565b90600052602060002090600e0201604051806101a00160405290816000820154815260200160018201805462000b1790620046c0565b80601f016020809104026020016040519081016040528092919081815260200182805462000b4590620046c0565b801562000b965780601f1062000b6a5761010080835404028352916020019162000b96565b820191906000526020600020905b81548152906001019060200180831162000b7857829003601f168201915b5050505050815260200160028201805462000bb190620046c0565b80601f016020809104026020016040519081016040528092919081815260200182805462000bdf90620046c0565b801562000c305780601f1062000c045761010080835404028352916020019162000c30565b820191906000526020600020905b81548152906001019060200180831162000c1257829003601f168201915b505050918352505060038201546020820152600480830154604080840191909152600584015460608401526006840154608080850191909152600785015460ff808216151560a087015261010090910416151560c0850152815190810190915260e0909201919060088401906000835b8282101562000d4d57838201805462000cb990620046c0565b80601f016020809104026020016040519081016040528092919081815260200182805462000ce790620046c0565b801562000d385780601f1062000d0c5761010080835404028352916020019162000d38565b820191906000526020600020905b81548152906001019060200180831162000d1a57829003601f168201915b50505050508152602001906001019062000ca0565b50505090825250600c82015460ff8116151560208301526001600160a01b0361010090910481166040830152600d909201549091166060909101528362000d95878562004674565b8151811062000da85762000da86200462c565b60200260200101819052505b8162000dc08162004658565b9250505b8062000dd08162004658565b91505062000a6c565b5090989397509295505050505050565b62000df36200376f565b600d54811062000e175760405162461bcd60e51b8152600401620008b190620046fc565b6000600d828154811062000e2f5762000e2f6200462c565b90600052602060002090600e02019050806005015442101562000e8d5760405162461bcd60e51b8152602060048201526015602482015274526f756e64206973207374696c6c2061637469766560581b6044820152606401620008b1565b600781015460ff161562000ee45760405162461bcd60e51b815260206004820152601960248201527f526f756e6420697320616c72656164792066696e6973686564000000000000006044820152606401620008b1565b806006015481600401541062000f105760078101805461ff00191661010017905562000f10826200379a565b600701805460ff1916600117905562000f2860018055565b50565b6060600080805b600d5481101562000f9257600d818154811062000f535762000f536200462c565b90600052602060002090600e02016005015442101562000f7d578162000f798162004658565b9250505b8062000f898162004658565b91505062000f32565b506000816001600160401b0381111562000fb05762000fb062004166565b60405190808252806020026020018201604052801562000fed57816020015b62000fd962003d61565b81526020019060019003908162000fcf5790505b5090506000805b600d548110156200133457600d81815481106200101557620010156200462c565b90600052602060002090600e0201600501544210156200131f57600d81815481106200104557620010456200462c565b90600052602060002090600e0201604051806101a0016040529081600082015481526020016001820180546200107b90620046c0565b80601f0160208091040260200160405190810160405280929190818152602001828054620010a990620046c0565b8015620010fa5780601f10620010ce57610100808354040283529160200191620010fa565b820191906000526020600020905b815481529060010190602001808311620010dc57829003601f168201915b505050505081526020016002820180546200111590620046c0565b80601f01602080910402602001604051908101604052809291908181526020018280546200114390620046c0565b8015620011945780601f10620011685761010080835404028352916020019162001194565b820191906000526020600020905b8154815290600101906020018083116200117657829003601f168201915b505050918352505060038201546020820152600480830154604080840191909152600584015460608401526006840154608080850191909152600785015460ff808216151560a087015261010090910416151560c0850152815190810190915260e0909201919060088401906000835b82821015620012b15783820180546200121d90620046c0565b80601f01602080910402602001604051908101604052809291908181526020018280546200124b90620046c0565b80156200129c5780601f1062001270576101008083540402835291602001916200129c565b820191906000526020600020905b8154815290600101906020018083116200127e57829003601f168201915b50505050508152602001906001019062001204565b50505090825250600c82015460ff8116151560208301526001600160a01b0361010090910481166040830152600d9092015490911660609091015283518490849081106200130357620013036200462c565b602002602001018190525081806200131b9062004658565b9250505b806200132b8162004658565b91505062000ff4565b5060005b6001835162001348919062004674565b811015620014935760005b600182855162001364919062004674565b62001370919062004674565b8110156200147d578362001386826001620046aa565b815181106200139957620013996200462c565b602002602001015160800151848281518110620013ba57620013ba6200462c565b602002602001015160800151101562001468576000848281518110620013e457620013e46200462c565b6020026020010151905084826001620013fe9190620046aa565b815181106200141157620014116200462c565b60200260200101518583815181106200142e576200142e6200462c565b6020908102919091010152808562001448846001620046aa565b815181106200145b576200145b6200462c565b6020026020010181905250505b80620014748162004658565b91505062001353565b50806200148a8162004658565b91505062001338565b50600086835111620014a7578251620014a9565b865b90506000816001600160401b03811115620014c857620014c862004166565b6040519080825280602002602001820160405280156200150557816020015b620014f162003d61565b815260200190600190039081620014e75790505b50905060005b8281101562001567578481815181106200152957620015296200462c565b60200260200101518282815181106200154657620015466200462c565b602002602001018190525080806200155e9062004658565b9150506200150b565b5097909650945050505050565b606060008083116200159a5760405162461bcd60e51b8152600401620008b190620045e9565b6000805b600d54811015620015fe57600d8181548110620015bf57620015bf6200462c565b90600052602060002090600e020160050154421115620015e95781620015e58162004658565b9250505b80620015f58162004658565b9150506200159e565b506000846200160f60018862004674565b6200161b919062004690565b9050600060016200162d8784620046aa565b62001639919062004674565b9050828210620016885760405162461bcd60e51b8152602060048201526019602482015278537461727420696e646578206f7574206f6620626f756e647360381b6044820152606401620008b1565b828110620016a0576200169d60018462004674565b90505b6000620016ae838362004674565b620016bb906001620046aa565b6001600160401b03811115620016d557620016d562004166565b6040519080825280602002602001820160405280156200171257816020015b620016fe62003d61565b815260200190600190039081620016f45790505b5090506000805b600d54811080156200172b5750838211155b1562000dd957600d81815481106200174757620017476200462c565b90600052602060002090600e02016005015442111562001a7157818511158015620017725750838211155b1562001a6157600d81815481106200178e576200178e6200462c565b90600052602060002090600e0201604051806101a001604052908160008201548152602001600182018054620017c490620046c0565b80601f0160208091040260200160405190810160405280929190818152602001828054620017f290620046c0565b8015620018435780601f10620018175761010080835404028352916020019162001843565b820191906000526020600020905b8154815290600101906020018083116200182557829003601f168201915b505050505081526020016002820180546200185e90620046c0565b80601f01602080910402602001604051908101604052809291908181526020018280546200188c90620046c0565b8015620018dd5780601f10620018b157610100808354040283529160200191620018dd565b820191906000526020600020905b815481529060010190602001808311620018bf57829003601f168201915b505050918352505060038201546020820152600480830154604080840191909152600584015460608401526006840154608080850191909152600785015460ff808216151560a087015261010090910416151560c0850152815190810190915260e0909201919060088401906000835b82821015620019fa5783820180546200196690620046c0565b80601f01602080910402602001604051908101604052809291908181526020018280546200199490620046c0565b8015620019e55780601f10620019b957610100808354040283529160200191620019e5565b820191906000526020600020905b815481529060010190602001808311620019c757829003601f168201915b5050505050815260200190600101906200194d565b50505090825250600c82015460ff8116151560208301526001600160a01b0361010090910481166040830152600d909201549091166060909101528362001a42878562004674565b8151811062001a555762001a556200462c565b60200260200101819052505b8162001a6d8162004658565b9250505b8062001a7d8162004658565b91505062001719565b600d54841062001aaa5760405162461bcd60e51b8152600401620008b190620046fc565b6000600d858154811062001ac25762001ac26200462c565b90600052602060002090600e0201905080600c0160019054906101000a90046001600160a01b03166001600160a01b0316336001600160a01b03161462001b575760405162461bcd60e51b815260206004820152602260248201527f4f6e6c792063726561746f722063616e20656469742074686520736f6369616c604482015261399760f11b6064820152608401620008b1565b6008810162001b67858262004775565b506009810162001b78848262004775565b50600a810162001b89838262004775565b505050505050565b62001b9b62003740565b620008c56000620039a4565b62001bb162003740565b600855565b600d818154811062001bc757600080fd5b60009182526020909120600e9091020180546001820180549193509062001bee90620046c0565b80601f016020809104026020016040519081016040528092919081815260200182805462001c1c90620046c0565b801562001c6d5780601f1062001c415761010080835404028352916020019162001c6d565b820191906000526020600020905b81548152906001019060200180831162001c4f57829003601f168201915b50505050509080600201805462001c8490620046c0565b80601f016020809104026020016040519081016040528092919081815260200182805462001cb290620046c0565b801562001d035780601f1062001cd75761010080835404028352916020019162001d03565b820191906000526020600020905b81548152906001019060200180831162001ce557829003601f168201915b50505060038401546004850154600586015460068701546007880154600c890154600d90990154979894979396509194509260ff8083169361010093849004821693918316926001600160a01b03929004821691168c565b6060600080805b600d5481101562001df857600d818154811062001d835762001d836200462c565b90600052602060002090600e0201600501544210801562001dcd5750600d818154811062001db55762001db56200462c565b60009182526020909120600c600e90920201015460ff165b1562001de3578162001ddf8162004658565b9250505b8062001def8162004658565b91505062001d62565b506000816001600160401b0381111562001e165762001e1662004166565b60405190808252806020026020018201604052801562001e5357816020015b62001e3f62003d61565b81526020019060019003908162001e355790505b5090506000805b600d54811015620021d057600d818154811062001e7b5762001e7b6200462c565b90600052602060002090600e0201600501544210801562001ec55750600d818154811062001ead5762001ead6200462c565b60009182526020909120600c600e90920201015460ff165b15620021bb57600d818154811062001ee15762001ee16200462c565b90600052602060002090600e0201604051806101a00160405290816000820154815260200160018201805462001f1790620046c0565b80601f016020809104026020016040519081016040528092919081815260200182805462001f4590620046c0565b801562001f965780601f1062001f6a5761010080835404028352916020019162001f96565b820191906000526020600020905b81548152906001019060200180831162001f7857829003601f168201915b5050505050815260200160028201805462001fb190620046c0565b80601f016020809104026020016040519081016040528092919081815260200182805462001fdf90620046c0565b8015620020305780601f10620020045761010080835404028352916020019162002030565b820191906000526020600020905b8154815290600101906020018083116200201257829003601f168201915b505050918352505060038201546020820152600480830154604080840191909152600584015460608401526006840154608080850191909152600785015460ff808216151560a087015261010090910416151560c0850152815190810190915260e0909201919060088401906000835b828210156200214d578382018054620020b990620046c0565b80601f0160208091040260200160405190810160405280929190818152602001828054620020e790620046c0565b8015620021385780601f106200210c5761010080835404028352916020019162002138565b820191906000526020600020905b8154815290600101906020018083116200211a57829003601f168201915b505050505081526020019060010190620020a0565b50505090825250600c82015460ff8116151560208301526001600160a01b0361010090910481166040830152600d9092015490911660609091015283518490849081106200219f576200219f6200462c565b60200260200101819052508180620021b79062004658565b9250505b80620021c78162004658565b91505062001e5a565b5060005b60018351620021e4919062004674565b8110156200232f5760005b600182855162002200919062004674565b6200220c919062004674565b81101562002319578362002222826001620046aa565b815181106200223557620022356200462c565b6020026020010151608001518482815181106200225657620022566200462c565b6020026020010151608001511015620023045760008482815181106200228057620022806200462c565b60200260200101519050848260016200229a9190620046aa565b81518110620022ad57620022ad6200462c565b6020026020010151858381518110620022ca57620022ca6200462c565b60209081029190910101528085620022e4846001620046aa565b81518110620022f757620022f76200462c565b6020026020010181905250505b80620023108162004658565b915050620021ef565b5080620023268162004658565b915050620021d4565b506000868351116200234357825162002345565b865b90506000816001600160401b0381111562002364576200236462004166565b604051908082528060200260200182016040528015620023a157816020015b6200238d62003d61565b815260200190600190039081620023835790505b50905060005b828110156200156757848181518110620023c557620023c56200462c565b6020026020010151828281518110620023e257620023e26200462c565b60200260200101819052508080620023fa9062004658565b915050620023a7565b6200240d62003740565b6006816200241c8486620046aa565b620024289190620046aa565b1115620024785760405162461bcd60e51b815260206004820152601c60248201527f4d617820362520746f74616c2050657263656e746167652046656573000000006044820152606401620008b1565b8115620024d2576007546001600160a01b0316620024d25760405162461bcd60e51b8152602060048201526016602482015275109d5c9b88151bdad95b881b5d5cdd081899481cd95d60521b6044820152606401620008b1565b600492909255600655600555565b620024ea62003d61565b600d5482106200250e5760405162461bcd60e51b8152600401620008b190620046fc565b600d82815481106200252457620025246200462c565b90600052602060002090600e0201604051806101a0016040529081600082015481526020016001820180546200255a90620046c0565b80601f01602080910402602001604051908101604052809291908181526020018280546200258890620046c0565b8015620025d95780601f10620025ad57610100808354040283529160200191620025d9565b820191906000526020600020905b815481529060010190602001808311620025bb57829003601f168201915b50505050508152602001600282018054620025f490620046c0565b80601f01602080910402602001604051908101604052809291908181526020018280546200262290620046c0565b8015620026735780601f10620026475761010080835404028352916020019162002673565b820191906000526020600020905b8154815290600101906020018083116200265557829003601f168201915b505050918352505060038201546020820152600480830154604080840191909152600584015460608401526006840154608080850191909152600785015460ff808216151560a087015261010090910416151560c0850152815190810190915260e0909201919060088401906000835b8282101562002790578382018054620026fc90620046c0565b80601f01602080910402602001604051908101604052809291908181526020018280546200272a90620046c0565b80156200277b5780601f106200274f576101008083540402835291602001916200277b565b820191906000526020600020905b8154815290600101906020018083116200275d57829003601f168201915b505050505081526020019060010190620026e3565b50505090825250600c82015460ff8116151560208301526001600160a01b0361010090910481166040830152600d9092015490911660609091015292915050565b620027db62003740565b600355565b620027ea62003740565b6001600160a01b038116620028505760405162461bcd60e51b815260206004820152602560248201527f526f7574657220616464726573732063616e6e6f74206265207a65726f206164604482015264647265737360d81b6064820152608401620008b1565b600b80546001600160a01b0319166001600160a01b0392909216919091179055565b6000805b600d548110156200292457600d81815481106200289757620028976200462c565b90600052602060002090600e0201600501544210158015620028e35750600d8181548110620028ca57620028ca6200462c565b600091825260209091206007600e90920201015460ff16155b156200290f57620028f48162000de9565b81620029008162004658565b925050600c5482101562002924575b806200291b8162004658565b91505062002876565b50600d548210620029495760405162461bcd60e51b8152600401620008b190620046fc565b6000600d83815481106200296157620029616200462c565b90600052602060002090600e0201905080600501544210620029b85760405162461bcd60e51b815260206004820152600f60248201526e149bdd5b99081a185cc8195b991959608a1b6044820152606401620008b1565b6000341162002a195760405162461bcd60e51b815260206004820152602660248201527f436f6e747269627574696f6e206d7573742062652067726561746572207468616044820152656e207a65726f60d01b6064820152608401620008b1565b6000805b6000858152600e602052604090205481101562002ae7576000858152600e6020526040902080543391908390811062002a5a5762002a5a6200462c565b60009182526020909120600390910201546001600160a01b03160362002ad2576000858152600e6020526040902080543491908390811062002aa05762002aa06200462c565b9060005260206000209060030201600101600082825462002ac29190620046aa565b909155506001925062002ae79050565b8062002ade8162004658565b91505062002a1d565b508062002b69576000848152600e6020908152604080832081516060810183523381523481850190815292810185815282546001808201855593875294909520905160039094020180546001600160a01b0319166001600160a01b0390941693909317835590519082015590516002909101805460ff19169115159190911790555b3482600401600082825462002b7f9190620046aa565b90915550506040805185815234602082015233917fb2ed2e021651f85a4754a44651fc09ac5141bc0329ce4dfe8dd712a5d04a8b39910160405180910390a250505050565b62002bce62003740565b806001600160a01b03166395d89b416040518163ffffffff1660e01b8152600401600060405180830381865afa92505050801562002c3057506040513d6000823e601f3d908101601f1916820160405262002c2d919081019062004841565b60015b62002c7e5760405162461bcd60e51b815260206004820152601760248201527f4e6f7420612076616c696420455243323020746f6b656e0000000000000000006044820152606401620008b1565b50600780546001600160a01b0383166001600160a01b031990911617905550565b62002ca96200376f565b600d54811062002ccd5760405162461bcd60e51b8152600401620008b190620046fc565b6000600d828154811062002ce55762002ce56200462c565b60009182526020909120600e90910201600781015490915060ff1662002d465760405162461bcd60e51b8152602060048201526015602482015274149bdd5b99081a5cc81b9bdd08199a5b9a5cda1959605a1b6044820152606401620008b1565b600080600062002d5785336200306c565b9250925092506000831162002daf5760405162461bcd60e51b815260206004820152601f60248201527f4e6f20636f6e747269627574696f6e7320666f756e6420666f722075736572006044820152606401620008b1565b801562002dff5760405162461bcd60e51b815260206004820152601860248201527f546f6b656e7320616c726561647920636f6c6c656374656400000000000000006044820152606401620008b1565b60005b6000868152600e602052604090205481101562002ec3576000868152600e6020526040902080543391908390811062002e3f5762002e3f6200462c565b60009182526020909120600390910201546001600160a01b03160362002eae576000868152600e602052604090208054600191908390811062002e865762002e866200462c565b60009182526020909120600390910201600201805460ff191691151591909117905562002ec3565b8062002eba8162004658565b91505062002e02565b506007840154610100900460ff161562002f9657600d84015460405163a9059cbb60e01b8152336004820152602481018490526001600160a01b0390911690819063a9059cbb906044016020604051808303816000875af115801562002f2d573d6000803e3d6000fd5b505050506040513d601f19601f8201168201806040525081019062002f539190620048c0565b50604080518781526020810185905233917f143b54f5da49c10a9c2e07250ea943b899bf055afa4e72ed0d4a6c3195eb4ccc910160405180910390a2506200305e565b604080516000808252602082019092523390859060405162002fb9919062004588565b60006040518083038185875af1925050503d806000811462002ff8576040519150601f19603f3d011682016040523d82523d6000602084013e62002ffd565b606091505b5050905080620030215760405162461bcd60e51b8152600401620008b190620045a6565b604080518781526020810185905233917f143b54f5da49c10a9c2e07250ea943b899bf055afa4e72ed0d4a6c3195eb4ccc910160405180910390a2505b5050505062000f2860018055565b6000806000600d805490508510620030985760405162461bcd60e51b8152600401620008b190620046fc565b6000600d8681548110620030b057620030b06200462c565b6000918252602082206003600e9092020190810154909250906064620030d883603262004690565b620030e49190620048e0565b905060009550600094506000935060005b6000898152600e60205260409020548110156200321a576000898152600e6020526040902080546001600160a01b038a169190839081106200313b576200313b6200462c565b60009182526020909120600390910201546001600160a01b03160362003205576000898152600e602052604090208054829081106200317e576200317e6200462c565b9060005260206000209060030201600101549650600e60008a81526020019081526020016000208181548110620031b957620031b96200462c565b6000918252602090912060026003909202010154600485015460ff909116955015620031ff576004840154620031f0888462004690565b620031fc9190620048e0565b95505b6200321a565b80620032118162004658565b915050620030f5565b505050509250925092565b6200322f62003740565b6001600160a01b038116620032975760405162461bcd60e51b815260206004820152602760248201527f547265617375727920616464726573732063616e6e6f74206265207a65726f206044820152666164647265737360c81b6064820152608401620008b1565b600980546001600160a01b0319166001600160a01b0392909216919091179055565b620032c362003740565b6001600160a01b038116620032ef57604051631e4fbdf760e01b815260006004820152602401620008b1565b62000f2881620039a4565b600e60205281600052604060002081815481106200331757600080fd5b60009182526020909120600390910201805460018201546002909201546001600160a01b03909116935090915060ff1683565b6000805b600d54811015620033fc57600d81815481106200336f576200336f6200462c565b90600052602060002090600e0201600501544210158015620033bb5750600d8181548110620033a257620033a26200462c565b600091825260209091206007600e90920201015460ff16155b15620033e757620033cc8162000de9565b81620033d88162004658565b925050600c54821015620033fc575b80620033f38162004658565b9150506200334e565b5060035482156200341957600854620034169082620046aa565b90505b803410156200346b5760405162461bcd60e51b815260206004820152601960248201527f496e73756666696369656e74206372656174696f6e20666565000000000000006044820152606401620008b1565b6009546040805160008082526020820192839052926001600160a01b0316918491620034979162004588565b60006040518083038185875af1925050503d8060008114620034d6576040519150601f19603f3d011682016040523d82523d6000602084013e620034db565b606091505b5050905080620034ff5760405162461bcd60e51b8152600401620008b190620045a6565b60008a8a8a30604051620035139062003dd5565b62003522949392919062004903565b604051809103906000f0801580156200353f573d6000803e3d6000fd5b509050600d604051806101a00160405280600d8054905081526020018d81526020018c81526020018b8152602001600081526020018a81526020018981526020016000151581526020016000151581526020018881526020018715158152602001336001600160a01b03168152602001836001600160a01b031681525090806001815401808255809150506001900390600052602060002090600e020160009091909190915060008201518160000155602082015181600101908162003606919062004775565b50604082015160028201906200361d908262004775565b5060608201516003820155608082015160048083019190915560a0830151600583015560c0830151600683015560e08301516007830180546101008087015115150261ff00199315159390931661ffff19909116179190911790556101208301516200368f9160088401919062003de3565b50610140820151600c820180546101608501516001600160a81b0319909116921515610100600160a81b031916929092176101006001600160a01b039384160217905561018090920151600d90910180546001600160a01b031916919092161790556040517fb0520f4c27a1775305e68e2b4e20cad78bff1cb9b124bc0e06b59e8b88e99ff0906200372b9083908e908e908d9033906200494e565b60405180910390a15050505050505050505050565b6000546001600160a01b03163314620008c55760405163118cdaa760e01b8152336004820152602401620008b1565b6002600154036200379357604051633ee5aeb560e01b815260040160405180910390fd5b6002600155565b6000600d8281548110620037b257620037b26200462c565b600091825260208220600d600e909202019081015460038201549193506001600160a01b0316916064620037e883603262004690565b620037f49190620048e0565b905060006200380386620039f4565b856004015462003814919062004674565b600b5460405163095ea7b360e01b81526001600160a01b0391821660048201526024810185905291925085169063095ea7b3906044016020604051808303816000875af11580156200386a573d6000803e3d6000fd5b505050506040513d601f19601f82011682018060405250810190620038909190620048c0565b50600b546002546001600160a01b039182169163f305d71991849188918791600091829116620038c342610e10620046aa565b60405160e089901b6001600160e01b03191681526001600160a01b039687166004820152602481019590955260448501939093526064840191909152909216608482015260a481019190915260c40160606040518083038185885af115801562003931573d6000803e3d6000fd5b50505050506040513d601f19601f82011682018060405250810190620039589190620049a1565b505060408051888152602081018590529081018390527fd7f28048575eead8851d024ead087913957dfb4fd1a02b4d1573f5352a5a2be3915060600160405180910390a1505050505050565b600080546001600160a01b038381166001600160a01b0319831681178455604051919092169283917f8be0079c531659141344cd1fd0a4f28419497f9722a3daafe3b4186f6b6457e09190a35050565b600080600d838154811062003a0d5762003a0d6200462c565b90600052602060002090600e0201905060006064600554836004015462003a35919062004690565b62003a419190620048e0565b9050801562003ae057600a546040805160008082526020820192839052926001600160a01b031691849162003a769162004588565b60006040518083038185875af1925050503d806000811462003ab5576040519150601f19603f3d011682016040523d82523d6000602084013e62003aba565b606091505b505090508062003ade5760405162461bcd60e51b8152600401620008b190620045a6565b505b60006064600454846004015462003af8919062004690565b62003b049190620048e0565b9050801562003ba3576009546040805160008082526020820192839052926001600160a01b031691849162003b399162004588565b60006040518083038185875af1925050503d806000811462003b78576040519150601f19603f3d011682016040523d82523d6000602084013e62003b7d565b606091505b505090508062003ba15760405162461bcd60e51b8152600401620008b190620045a6565b505b60006064600654856004015462003bbb919062004690565b62003bc79190620048e0565b9050801562003d3e576040805160028082526060820183526000926020830190803683375050600b54604080516315ab88c960e31b815290519394506001600160a01b039091169263ad5c4648925060048083019260209291908290030181865afa15801562003c3b573d6000803e3d6000fd5b505050506040513d601f19601f8201168201806040525081019062003c619190620049d0565b8160008151811062003c775762003c776200462c565b6001600160a01b03928316602091820292909201015260075482519116908290600190811062003cab5762003cab6200462c565b6001600160a01b039283166020918202929092010152600b546002549082169163b6f9de9591859160009186911662003ce742610e10620046aa565b6040518663ffffffff1660e01b815260040162003d089493929190620049f0565b6000604051808303818588803b15801562003d2257600080fd5b505af115801562003d37573d6000803e3d6000fd5b5050505050505b8262003d4b8284620046aa565b62003d579190620046aa565b9695505050505050565b604051806101a001604052806000815260200160608152602001606081526020016000815260200160008152602001600081526020016000815260200160001515815260200160001515815260200162003dba62003e33565b81526000602082018190526040820181905260609091015290565b610df58062004a5d83390190565b826004810192821562003e21579160200282015b8281111562003e21578251829062003e10908262004775565b509160200191906001019062003df7565b5062003e2f92915062003e5b565b5090565b60405180608001604052806004905b606081526020019060019003908162003e425790505090565b8082111562003e2f57600062003e72828262003e7c565b5060010162003e5b565b50805462003e8a90620046c0565b6000825580601f1062003e9b575050565b601f01602090049060005260206000209081019062000f2891905b8082111562003e2f576000815560010162003eb6565b60006020828403121562003edf57600080fd5b5035919050565b602080825282518282018190526000919060409081850190868401855b8281101562003f3f57815180516001600160a01b0316855286810151878601528501511515858501526060909301929085019060010162003f03565b5091979650505050505050565b6000806040838503121562003f6057600080fd5b50508035926020909101359150565b60005b8381101562003f8c57818101518382015260200162003f72565b50506000910152565b6000815180845262003faf81602086016020860162003f6f565b601f01601f19169290920160200192915050565b600082608081018360005b60048110156200400157838303875262003fea83835162003f95565b602097880197909350919091019060010162003fce565b509095945050505050565b60006101a08251845260208301518160208601526200402e8286018262003f95565b915050604083015184820360408601526200404a828262003f95565b915050606083015160608501526080830151608085015260a083015160a085015260c083015160c085015260e08301516200408960e086018215159052565b50610100838101511515908501526101208084015185830382870152620040b1838262003fc3565b9250505061014080840151620040ca8287018215159052565b5050610160838101516001600160a01b0390811691860191909152610180938401511692909301919091525090565b6000604082016040835280855180835260608501915060608160051b8601019250602080880160005b838110156200415457605f19888703018552620041418683516200400c565b9550938201939082019060010162004122565b50509490940194909452949350505050565b634e487b7160e01b600052604160045260246000fd5b604051608081016001600160401b0381118282101715620041a157620041a162004166565b60405290565b604051601f8201601f191681016001600160401b0381118282101715620041d257620041d262004166565b604052919050565b60006001600160401b03821115620041f657620041f662004166565b50601f01601f191660200190565b600082601f8301126200421657600080fd5b81356200422d6200422782620041da565b620041a7565b8181528460208386010111156200424357600080fd5b816020850160208301376000918101602001919091529392505050565b600080600080608085870312156200427757600080fd5b8435935060208501356001600160401b03808211156200429657600080fd5b620042a48883890162004204565b94506040870135915080821115620042bb57600080fd5b620042c98883890162004204565b93506060870135915080821115620042e057600080fd5b50620042ef8782880162004204565b91505092959194509250565b60006101808e8352806020840152620043178184018f62003f95565b905082810360408401526200432d818e62003f95565b9150508a60608301528960808301528860a08301528760c083015286151560e083015285151561010083015284151561012083015260018060a01b038416610140830152620043886101608301846001600160a01b03169052565b9d9c50505050505050505050505050565b600080600060608486031215620043af57600080fd5b505081359360208301359350604090920135919050565b602081526000620043db60208301846200400c565b9392505050565b6001600160a01b038116811462000f2857600080fd5b6000602082840312156200440b57600080fd5b8135620043db81620043e2565b600080604083850312156200442c57600080fd5b8235915060208301356200444081620043e2565b809150509250929050565b801515811462000f2857600080fd5b803562004467816200444b565b919050565b600080600080600080600060e0888a0312156200448857600080fd5b6001600160401b0380893511156200449f57600080fd5b620044ae8a8a358b0162004204565b9750602089013581811115620044c357600080fd5b620044d18b828c0162004204565b97505060408901359550606089013594506080890135935060a089013581811115620044fc57600080fd5b8901601f81018b136200450e57600080fd5b620045186200417c565b80608083018d8111156200452b57600080fd5b835b81811015620045635785813511156200454557600080fd5b620045548f8235870162004204565b8452602093840193016200452d565b5050809550505050506200457a60c089016200445a565b905092959891949750929550565b600082516200459c81846020870162003f6f565b9190910192915050565b60208082526023908201527f5472616e7366657248656c7065723a204554485f5452414e534645525f46414960408201526213115160ea1b606082015260800190565b60208082526023908201527f506167652073697a65206d7573742062652067726561746572207468616e207a60408201526265726f60e81b606082015260800190565b634e487b7160e01b600052603260045260246000fd5b634e487b7160e01b600052601160045260246000fd5b6000600182016200466d576200466d62004642565b5060010190565b818103818111156200468a576200468a62004642565b92915050565b80820281158282048414176200468a576200468a62004642565b808201808211156200468a576200468a62004642565b600181811c90821680620046d557607f821691505b602082108103620046f657634e487b7160e01b600052602260045260246000fd5b50919050565b60208082526010908201526f125b9d985b1a59081c9bdd5b9908125160821b604082015260600190565b601f8211156200477057600081815260208120601f850160051c810160208610156200474f5750805b601f850160051c820191505b8181101562001b89578281556001016200475b565b505050565b81516001600160401b0381111562004791576200479162004166565b620047a981620047a28454620046c0565b8462004726565b602080601f831160018114620047e15760008415620047c85750858301515b600019600386901b1c1916600185901b17855562001b89565b600085815260208120601f198616915b828110156200481257888601518255948401946001909101908401620047f1565b5085821015620048315787850151600019600388901b60f8161c191681555b5050505050600190811b01905550565b6000602082840312156200485457600080fd5b81516001600160401b038111156200486b57600080fd5b8201601f810184136200487d57600080fd5b80516200488e6200422782620041da565b818152856020838501011115620048a457600080fd5b620048b782602083016020860162003f6f565b95945050505050565b600060208284031215620048d357600080fd5b8151620043db816200444b565b600082620048fe57634e487b7160e01b600052601260045260246000fd5b500490565b60808152600062004918608083018762003f95565b82810360208401526200492c818762003f95565b604084019590955250506001600160a01b039190911660609091015292915050565b600060018060a01b03808816835260a060208401526200497260a084018862003f95565b838103604085015262004986818862003f95565b60608501969096525092909216608090910152509392505050565b600080600060608486031215620049b757600080fd5b8351925060208401519150604084015190509250925092565b600060208284031215620049e357600080fd5b8151620043db81620043e2565b600060808201868352602060808185015281875180845260a086019150828901935060005b8181101562004a3c5784516001600160a01b03168352938301939183019160010162004a15565b50506001600160a01b03969096166040850152505050606001529291505056fe60806040523480156200001157600080fd5b5060405162000df538038062000df5833981016040819052620000349162000382565b3384846003620000458382620004a6565b506004620000548282620004a6565b5050506001600160a01b0381166200008757604051631e4fbdf760e01b8152600060048201526024015b60405180910390fd5b6200009281620000b3565b506200009f818362000105565b620000a962000143565b505050506200059a565b600580546001600160a01b038381166001600160a01b0319831681179093556040519116919082907f8be0079c531659141344cd1fd0a4f28419497f9722a3daafe3b4186f6b6457e090600090a35050565b6001600160a01b038216620001315760405163ec442f0560e01b8152600060048201526024016200007e565b6200013f600083836200015b565b5050565b6200014d6200028e565b620001596000620000b3565b565b6001600160a01b0383166200018a5780600260008282546200017e919062000572565b90915550620001fe9050565b6001600160a01b03831660009081526020819052604090205481811015620001df5760405163391434e360e21b81526001600160a01b038516600482015260248101829052604481018390526064016200007e565b6001600160a01b03841660009081526020819052604090209082900390555b6001600160a01b0382166200021c576002805482900390556200023b565b6001600160a01b03821660009081526020819052604090208054820190555b816001600160a01b0316836001600160a01b03167fddf252ad1be2c89b69c2b068fc378daa952ba7f163c4a11628f55a4df523b3ef836040516200028191815260200190565b60405180910390a3505050565b6005546001600160a01b03163314620001595760405163118cdaa760e01b81523360048201526024016200007e565b634e487b7160e01b600052604160045260246000fd5b600082601f830112620002e557600080fd5b81516001600160401b0380821115620003025762000302620002bd565b604051601f8301601f19908116603f011681019082821181831017156200032d576200032d620002bd565b816040528381526020925086838588010111156200034a57600080fd5b600091505b838210156200036e57858201830151818301840152908201906200034f565b600093810190920192909252949350505050565b600080600080608085870312156200039957600080fd5b84516001600160401b0380821115620003b157600080fd5b620003bf88838901620002d3565b95506020870151915080821115620003d657600080fd5b50620003e587828801620002d3565b60408701516060880151919550935090506001600160a01b03811681146200040c57600080fd5b939692955090935050565b600181811c908216806200042c57607f821691505b6020821081036200044d57634e487b7160e01b600052602260045260246000fd5b50919050565b601f821115620004a157600081815260208120601f850160051c810160208610156200047c5750805b601f850160051c820191505b818110156200049d5782815560010162000488565b5050505b505050565b81516001600160401b03811115620004c257620004c2620002bd565b620004da81620004d3845462000417565b8462000453565b602080601f831160018114620005125760008415620004f95750858301515b600019600386901b1c1916600185901b1785556200049d565b600085815260208120601f198616915b82811015620005435788860151825594840194600190910190840162000522565b5085821015620005625787850151600019600388901b60f8161c191681555b5050505050600190811b01905550565b808201808211156200059457634e487b7160e01b600052601160045260246000fd5b92915050565b61084b80620005aa6000396000f3fe608060405234801561001057600080fd5b50600436106100b45760003560e01c8063715018a611610071578063715018a6146101575780638da5cb5b1461016157806395d89b411461017c578063a9059cbb14610184578063dd62ed3e14610197578063f2fde38b146101d057600080fd5b806306fdde03146100b9578063095ea7b3146100d757806318160ddd146100fa57806323b872dd1461010c578063313ce5671461011f57806370a082311461012e575b600080fd5b6100c16101e3565b6040516100ce9190610695565b60405180910390f35b6100ea6100e53660046106ff565b610275565b60405190151581526020016100ce565b6002545b6040519081526020016100ce565b6100ea61011a366004610729565b61028f565b604051601281526020016100ce565b6100fe61013c366004610765565b6001600160a01b031660009081526020819052604090205490565b61015f6102b3565b005b6005546040516001600160a01b0390911681526020016100ce565b6100c16102c7565b6100ea6101923660046106ff565b6102d6565b6100fe6101a5366004610787565b6001600160a01b03918216600090815260016020908152604080832093909416825291909152205490565b61015f6101de366004610765565b6102e4565b6060600380546101f2906107ba565b80601f016020809104026020016040519081016040528092919081815260200182805461021e906107ba565b801561026b5780601f106102405761010080835404028352916020019161026b565b820191906000526020600020905b81548152906001019060200180831161024e57829003601f168201915b5050505050905090565b600033610283818585610327565b60019150505b92915050565b60003361029d858285610339565b6102a88585856103b8565b506001949350505050565b6102bb610417565b6102c56000610444565b565b6060600480546101f2906107ba565b6000336102838185856103b8565b6102ec610417565b6001600160a01b03811661031b57604051631e4fbdf760e01b8152600060048201526024015b60405180910390fd5b61032481610444565b50565b6103348383836001610496565b505050565b6001600160a01b038381166000908152600160209081526040808320938616835292905220546000198110156103b257818110156103a357604051637dc7a0d960e11b81526001600160a01b03841660048201526024810182905260448101839052606401610312565b6103b284848484036000610496565b50505050565b6001600160a01b0383166103e257604051634b637e8f60e11b815260006004820152602401610312565b6001600160a01b03821661040c5760405163ec442f0560e01b815260006004820152602401610312565b61033483838361056b565b6005546001600160a01b031633146102c55760405163118cdaa760e01b8152336004820152602401610312565b600580546001600160a01b038381166001600160a01b0319831681179093556040519116919082907f8be0079c531659141344cd1fd0a4f28419497f9722a3daafe3b4186f6b6457e090600090a35050565b6001600160a01b0384166104c05760405163e602df0560e01b815260006004820152602401610312565b6001600160a01b0383166104ea57604051634a1406b160e11b815260006004820152602401610312565b6001600160a01b03808516600090815260016020908152604080832093871683529290522082905580156103b257826001600160a01b0316846001600160a01b03167f8c5be1e5ebec7d5bd14f71427d1e84f3dd0314c0f7b2291e5b200ac8c7c3b9258460405161055d91815260200190565b60405180910390a350505050565b6001600160a01b03831661059657806002600082825461058b91906107f4565b909155506106089050565b6001600160a01b038316600090815260208190526040902054818110156105e95760405163391434e360e21b81526001600160a01b03851660048201526024810182905260448101839052606401610312565b6001600160a01b03841660009081526020819052604090209082900390555b6001600160a01b03821661062457600280548290039055610643565b6001600160a01b03821660009081526020819052604090208054820190555b816001600160a01b0316836001600160a01b03167fddf252ad1be2c89b69c2b068fc378daa952ba7f163c4a11628f55a4df523b3ef8360405161068891815260200190565b60405180910390a3505050565b600060208083528351808285015260005b818110156106c2578581018301518582016040015282016106a6565b506000604082860101526040601f19601f8301168501019250505092915050565b80356001600160a01b03811681146106fa57600080fd5b919050565b6000806040838503121561071257600080fd5b61071b836106e3565b946020939093013593505050565b60008060006060848603121561073e57600080fd5b610747846106e3565b9250610755602085016106e3565b9150604084013590509250925092565b60006020828403121561077757600080fd5b610780826106e3565b9392505050565b6000806040838503121561079a57600080fd5b6107a3836106e3565b91506107b1602084016106e3565b90509250929050565b600181811c908216806107ce57607f821691505b6020821081036107ee57634e487b7160e01b600052602260045260246000fd5b50919050565b8082018082111561028957634e487b7160e01b600052601160045260246000fdfea2646970667358221220b26c4ccad4e37bcbe3b892369cf4baa5880bef52f00b5b65d03bdcbd7331b4ef64736f6c63430008140033a26469706673582212202e8e2277595df49e093053f0add5f4e8ad70367ba0011fc69620a7a7c0e3fce164736f6c63430008140033",
  "linkReferences": {},
  "deployedLinkReferences": {}
}