{
  "_format": "hh-sol-artifact-1",
  "contractName": "ShadowVaultMargin",
  "sourceName": "contracts/ShadowVaultMargin.sol",
  "abi": [
    {
      "inputs": [],
      "stateMutability": "nonpayable",
      "type": "constructor"
    },
    {
      "anonymous": false,
      "inputs": [
        {
          "indexed": true,
          "internalType": "uint256",
          "name": "positionId",
          "type": "uint256"
        },
        {
          "indexed": true,
          "internalType": "address",
          "name": "user",
          "type": "address"
        },
        {
          "indexed": false,
          "internalType": "uint256",
          "name": "collateralReturned",
          "type": "uint256"
        }
      ],
      "name": "PositionClosed",
      "type": "event"
    },
    {
      "anonymous": false,
      "inputs": [
        {
          "indexed": true,
          "internalType": "uint256",
          "name": "positionId",
          "type": "uint256"
        },
        {
          "indexed": true,
          "internalType": "address",
          "name": "user",
          "type": "address"
        },
        {
          "indexed": false,
          "internalType": "uint256",
          "name": "collateral",
          "type": "uint256"
        },
        {
          "indexed": false,
          "internalType": "uint256",
          "name": "leverage",
          "type": "uint256"
        },
        {
          "indexed": false,
          "internalType": "bool",
          "name": "isLong",
          "type": "bool"
        }
      ],
      "name": "PositionOpened",
      "type": "event"
    },
    {
      "inputs": [
        {
          "internalType": "uint256",
          "name": "positionId",
          "type": "uint256"
        }
      ],
      "name": "closePosition",
      "outputs": [],
      "stateMutability": "nonpayable",
      "type": "function"
    },
    {
      "inputs": [
        {
          "internalType": "uint256",
          "name": "positionId",
          "type": "uint256"
        }
      ],
      "name": "getPosition",
      "outputs": [
        {
          "internalType": "address",
          "name": "user",
          "type": "address"
        },
        {
          "internalType": "uint256",
          "name": "collateral",
          "type": "uint256"
        },
        {
          "internalType": "uint256",
          "name": "leverage",
          "type": "uint256"
        },
        {
          "internalType": "bool",
          "name": "isLong",
          "type": "bool"
        },
        {
          "internalType": "uint256",
          "name": "openBlock",
          "type": "uint256"
        },
        {
          "internalType": "bool",
          "name": "closed",
          "type": "bool"
        }
      ],
      "stateMutability": "view",
      "type": "function"
    },
    {
      "inputs": [],
      "name": "getPositionCount",
      "outputs": [
        {
          "internalType": "uint256",
          "name": "",
          "type": "uint256"
        }
      ],
      "stateMutability": "view",
      "type": "function"
    },
    {
      "inputs": [
        {
          "internalType": "address",
          "name": "user",
          "type": "address"
        }
      ],
      "name": "getPositionIdsByUser",
      "outputs": [
        {
          "internalType": "uint256[]",
          "name": "",
          "type": "uint256[]"
        }
      ],
      "stateMutability": "view",
      "type": "function"
    },
    {
      "inputs": [
        {
          "internalType": "uint256",
          "name": "leverage",
          "type": "uint256"
        }
      ],
      "name": "openLong",
      "outputs": [],
      "stateMutability": "payable",
      "type": "function"
    },
    {
      "inputs": [
        {
          "internalType": "uint256",
          "name": "leverage",
          "type": "uint256"
        }
      ],
      "name": "openShort",
      "outputs": [],
      "stateMutability": "payable",
      "type": "function"
    },
    {
      "inputs": [],
      "name": "owner",
      "outputs": [
        {
          "internalType": "address",
          "name": "",
          "type": "address"
        }
      ],
      "stateMutability": "view",
      "type": "function"
    },
    {
      "inputs": [
        {
          "internalType": "address",
          "name": "",
          "type": "address"
        },
        {
          "internalType": "uint256",
          "name": "",
          "type": "uint256"
        }
      ],
      "name": "positionIdsByUser",
      "outputs": [
        {
          "internalType": "uint256",
          "name": "",
          "type": "uint256"
        }
      ],
      "stateMutability": "view",
      "type": "function"
    },
    {
      "inputs": [
        {
          "internalType": "uint256",
          "name": "",
          "type": "uint256"
        }
      ],
      "name": "positions",
      "outputs": [
        {
          "internalType": "address",
          "name": "user",
          "type": "address"
        },
        {
          "internalType": "uint256",
          "name": "collateral",
          "type": "uint256"
        },
        {
          "internalType": "uint256",
          "name": "leverage",
          "type": "uint256"
        },
        {
          "internalType": "bool",
          "name": "isLong",
          "type": "bool"
        },
        {
          "internalType": "uint256",
          "name": "openBlock",
          "type": "uint256"
        },
        {
          "internalType": "bool",
          "name": "closed",
          "type": "bool"
        }
      ],
      "stateMutability": "view",
      "type": "function"
    },
    {
      "inputs": [],
      "name": "withdrawFees",
      "outputs": [],
      "stateMutability": "nonpayable",
      "type": "function"
    },
    {
      "stateMutability": "payable",
      "type": "receive"
    }
  ],
  "bytecode": "0x608060405234801561001057600080fd5b50600080546001600160a01b03191633179055610c46806100326000396000f3fe6080604052600436106100955760003560e01c80639f039090116100595780639f039090146101a0578063a126d601146101b3578063b74cc3c5146101d3578063eb02c301146101f3578063ed072e221461021357600080fd5b806315632672146100a1578063476343ee146100d757806381683476146100ee5780638da5cb5b1461010d57806399fbab881461014557600080fd5b3661009c57005b600080fd5b3480156100ad57600080fd5b506100c16100bc366004610b51565b610226565b6040516100ce9190610b73565b60405180910390f35b3480156100e357600080fd5b506100ec610292565b005b3480156100fa57600080fd5b506001545b6040519081526020016100ce565b34801561011957600080fd5b5060005461012d906001600160a01b031681565b6040516001600160a01b0390911681526020016100ce565b34801561015157600080fd5b50610165610160366004610bb7565b610375565b604080516001600160a01b039097168752602087019590955293850192909252151560608401526080830152151560a082015260c0016100ce565b6100ec6101ae366004610bb7565b6103cc565b3480156101bf57600080fd5b506100ec6101ce366004610bb7565b610625565b3480156101df57600080fd5b506100ff6101ee366004610bd0565b610800565b3480156101ff57600080fd5b5061016561020e366004610bb7565b610831565b6100ec610221366004610bb7565b6108e8565b6001600160a01b03811660009081526002602090815260409182902080548351818402810184019094528084526060939283018282801561028657602002820191906000526020600020905b815481526020019060010190808311610272575b50505050509050919050565b6000546001600160a01b031633146102dd5760405162461bcd60e51b81526020600482015260096024820152682737ba1037bbb732b960b91b60448201526064015b60405180910390fd5b600080546040516001600160a01b039091169047908381818185875af1925050503d806000811461032a576040519150601f19603f3d011682016040523d82523d6000602084013e61032f565b606091505b50509050806103725760405162461bcd60e51b815260206004820152600f60248201526e15da5d1a191c985dc819985a5b1959608a1b60448201526064016102d4565b50565b6001818154811061038557600080fd5b60009182526020909120600690910201805460018201546002830154600384015460048501546005909501546001600160a01b0390941695509193909260ff928316921686565b6000341161040e5760405162461bcd60e51b815260206004820152600f60248201526e16995c9bc818dbdb1b185d195c985b608a1b60448201526064016102d4565b60018110158015610420575060648111155b61045b5760405162461bcd60e51b815260206004820152600c60248201526b426164206c6576657261676560a01b60448201526064016102d4565b600180546040805160c0810182523380825234602080840182815284860189815260608087018a81524360808901908152600060a08a018181528c8e018e558d8252995160068d027fb10e2d527612073b26eecdfd717e6a320cf44b4afac2b0732d9fcbe2b7fa0cf6810180546001600160a01b039093166001600160a01b03199093169290921790915595517fb10e2d527612073b26eecdfd717e6a320cf44b4afac2b0732d9fcbe2b7fa0cf787015593517fb10e2d527612073b26eecdfd717e6a320cf44b4afac2b0732d9fcbe2b7fa0cf886015590517fb10e2d527612073b26eecdfd717e6a320cf44b4afac2b0732d9fcbe2b7fa0cf98501805491151560ff1992831617905590517fb10e2d527612073b26eecdfd717e6a320cf44b4afac2b0732d9fcbe2b7fa0cfa85015596517fb10e2d527612073b26eecdfd717e6a320cf44b4afac2b0732d9fcbe2b7fa0cfb90930180549315159390971692909217909555838552600282528585208054808a01825590865294829020909401869055845191825281018790529283019490945291929183917fb3e08d3f55a20a7e3500eeb95fc23bf5555eb003f235ef2479df5747bcf69b1391015b60405180910390a35050565b60015481106106695760405162461bcd60e51b815260206004820152601060248201526f24b73b30b634b2103837b9b4ba34b7b760811b60448201526064016102d4565b60006001828154811061067e5761067e610bfa565b6000918252602090912060069091020180549091506001600160a01b031633146106de5760405162461bcd60e51b81526020600482015260116024820152702737ba103cb7bab9103837b9b4ba34b7b760791b60448201526064016102d4565b600581015460ff16156107245760405162461bcd60e51b815260206004820152600e60248201526d105b1c9958591e4818db1bdcd95960921b60448201526064016102d4565b60058101805460ff19166001908117909155810154604051600090339083908381818185875af1925050503d806000811461077b576040519150601f19603f3d011682016040523d82523d6000602084013e610780565b606091505b50509050806107c35760405162461bcd60e51b815260206004820152600f60248201526e151c985b9cd9995c8819985a5b1959608a1b60448201526064016102d4565b604051828152339085907f467bc11eddf702a2091fefc23d3064f17939ba1005bd43304f15604c9b6f2a9b9060200160405180910390a350505050565b6002602052816000526040600020818154811061081c57600080fd5b90600052602060002001600091509150505481565b60008060008060008060018054905087106108815760405162461bcd60e51b815260206004820152601060248201526f24b73b30b634b2103837b9b4ba34b7b760811b60448201526064016102d4565b60006001888154811061089657610896610bfa565b60009182526020909120600690910201805460018201546002830154600384015460048501546005909501546001600160a01b039094169d929c50909a5060ff90811699509297509116945092505050565b6000341161092a5760405162461bcd60e51b815260206004820152600f60248201526e16995c9bc818dbdb1b185d195c985b608a1b60448201526064016102d4565b6001811015801561093c575060648111155b6109775760405162461bcd60e51b815260206004820152600c60248201526b426164206c6576657261676560a01b60448201526064016102d4565b600180546040805160c08101825233808252346020808401828152848601898152600060608088018281524360808a0190815260a08a018481528c8e018e558d8552995160068d027fb10e2d527612073b26eecdfd717e6a320cf44b4afac2b0732d9fcbe2b7fa0cf6810180546001600160a01b039093166001600160a01b03199093169290921790915595517fb10e2d527612073b26eecdfd717e6a320cf44b4afac2b0732d9fcbe2b7fa0cf787015593517fb10e2d527612073b26eecdfd717e6a320cf44b4afac2b0732d9fcbe2b7fa0cf8860155517fb10e2d527612073b26eecdfd717e6a320cf44b4afac2b0732d9fcbe2b7fa0cf98501805491151560ff1992831617905592517fb10e2d527612073b26eecdfd717e6a320cf44b4afac2b0732d9fcbe2b7fa0cfa85015596517fb10e2d527612073b26eecdfd717e6a320cf44b4afac2b0732d9fcbe2b7fa0cfb90930180549315159390921692909217905583815260028252858120805498890181558152818120909701869055845191825281018790529283019490945291929183917fb3e08d3f55a20a7e3500eeb95fc23bf5555eb003f235ef2479df5747bcf69b139101610619565b80356001600160a01b0381168114610b4c57600080fd5b919050565b600060208284031215610b6357600080fd5b610b6c82610b35565b9392505050565b6020808252825182820181905260009190848201906040850190845b81811015610bab57835183529284019291840191600101610b8f565b50909695505050505050565b600060208284031215610bc957600080fd5b5035919050565b60008060408385031215610be357600080fd5b610bec83610b35565b946020939093013593505050565b634e487b7160e01b600052603260045260246000fdfea2646970667358221220b3b29a1df35ccfa124d99225897330d4ac8c9152c06208b31520224dc37539ff64736f6c63430008140033",
  "linkReferences": {},
  "deployedLinkReferences": {}
}