{
	"ZKSYNC/priceChecker.sol": {
		"TokenPriceCheck": {
			"abi": [
				{
					"inputs": [
						{
							"internalType": "address",
							"name": "_eth",
							"type": "address"
						},
						{
							"internalType": "address",
							"name": "_usdt",
							"type": "address"
						},
						{
							"internalType": "address[]",
							"name": "_factories",
							"type": "address[]"
						}
					],
					"stateMutability": "nonpayable",
					"type": "constructor"
				},
				{
					"inputs": [
						{
							"internalType": "address",
							"name": "token",
							"type": "address"
						},
						{
							"internalType": "address",
							"name": "factory",
							"type": "address"
						}
					],
					"name": "TokenPrice",
					"outputs": [
						{
							"internalType": "uint256",
							"name": "num",
							"type": "uint256"
						},
						{
							"internalType": "uint256",
							"name": "den",
							"type": "uint256"
						},
						{
							"internalType": "uint256",
							"name": "usd",
							"type": "uint256"
						}
					],
					"stateMutability": "view",
					"type": "function"
				},
				{
					"inputs": [
						{
							"internalType": "address",
							"name": "newFactory",
							"type": "address"
						}
					],
					"name": "addFactory",
					"outputs": [],
					"stateMutability": "nonpayable",
					"type": "function"
				},
				{
					"inputs": [
						{
							"internalType": "address",
							"name": "newUSD",
							"type": "address"
						}
					],
					"name": "changeUSDT",
					"outputs": [],
					"stateMutability": "nonpayable",
					"type": "function"
				},
				{
					"inputs": [
						{
							"internalType": "uint256",
							"name": "",
							"type": "uint256"
						}
					],
					"name": "factories",
					"outputs": [
						{
							"internalType": "address",
							"name": "",
							"type": "address"
						}
					],
					"stateMutability": "view",
					"type": "function"
				},
				{
					"inputs": [
						{
							"internalType": "address",
							"name": "startFactory",
							"type": "address"
						}
					],
					"name": "getBNBPrice",
					"outputs": [
						{
							"internalType": "uint256",
							"name": "price",
							"type": "uint256"
						}
					],
					"stateMutability": "view",
					"type": "function"
				}
			],
			"devdoc": {
				"kind": "dev",
				"methods": {},
				"version": 1
			},
			"evm": {
				"assembly": "    /* \"ZKSYNC/priceChecker.sol\":1073:5655  contract TokenPriceCheck  {  ... */\n  mstore(0x40, 0x80)\n    /* \"ZKSYNC/priceChecker.sol\":1124:1166  0x0000000000000000000000000000000000000000 */\n  0x00\n    /* \"ZKSYNC/priceChecker.sol\":1108:1166  address zeroA = 0x0000000000000000000000000000000000000000 */\n  dup1\n  sload\n  not(sub(shl(0xa0, 0x01), 0x01))\n  and\n  swap1\n  sstore\n    /* \"ZKSYNC/priceChecker.sol\":1506:1777  constructor(address _eth, address _usdt, address[] memory _factories) {... */\n  callvalue\n  dup1\n  iszero\n  tag_1\n  jumpi\n  0x00\n  dup1\n  revert\ntag_1:\n  pop\n  mload(0x40)\n  sub(codesize, bytecodeSize)\n  dup1\n  bytecodeSize\n  dup4\n  codecopy\n  dup2\n  add\n  0x40\n  dup2\n  swap1\n  mstore\n  tag_2\n  swap2\n  tag_3\n  jump\t// in\ntag_2:\n    /* \"ZKSYNC/priceChecker.sol\":1587:1590  bnb */\n  0x01\n    /* \"ZKSYNC/priceChecker.sol\":1587:1597  bnb = _eth */\n  dup1\n  sload\n  sub(shl(0xa0, 0x01), 0x01)\n  dup1\n  dup7\n  and\n  not(sub(shl(0xa0, 0x01), 0x01))\n  swap3\n  dup4\n  and\n  or\n  swap1\n  swap3\n  sstore\n    /* \"ZKSYNC/priceChecker.sol\":1608:1612  usdt */\n  0x02\n    /* \"ZKSYNC/priceChecker.sol\":1608:1620  usdt = _usdt */\n  dup1\n  sload\n  swap3\n  dup6\n  and\n  swap3\n  swap1\n  swap2\n  and\n  swap2\n  swap1\n  swap2\n  or\n  swap1\n  sstore\n    /* \"ZKSYNC/priceChecker.sol\":1631:1653  factories = _factories */\n  dup1\n  mload\n  tag_6\n  swap1\n    /* \"ZKSYNC/priceChecker.sol\":1631:1640  factories */\n  0x05\n  swap1\n    /* \"ZKSYNC/priceChecker.sol\":1631:1653  factories = _factories */\n  0x20\n  dup5\n  add\n  swap1\n  tag_7\n  jump\t// in\ntag_6:\n  pop\n    /* \"ZKSYNC/priceChecker.sol\":1664:1673  uint256 d */\n  0x00\n    /* \"ZKSYNC/priceChecker.sol\":1682:1687  _usdt */\n  dup3\n  sub(shl(0xa0, 0x01), 0x01)\n    /* \"ZKSYNC/priceChecker.sol\":1676:1697  Token(_usdt).decimals */\n  and\n  0x313ce567\n    /* \"ZKSYNC/priceChecker.sol\":1676:1699  Token(_usdt).decimals() */\n  mload(0x40)\n  dup2\n  0xffffffff\n  and\n  0xe0\n  shl\n  dup2\n  mstore\n  0x04\n  add\n  0x20\n  mload(0x40)\n  dup1\n  dup4\n  sub\n  dup2\n  dup7\n  gas\n  staticcall\n  iszero\n  dup1\n  iszero\n  tag_9\n  jumpi\n  returndatasize\n  0x00\n  dup1\n  returndatacopy\n  revert(0x00, returndatasize)\ntag_9:\n  pop\n  pop\n  pop\n  pop\n  mload(0x40)\n  returndatasize\n  not(0x1f)\n  0x1f\n  dup3\n  add\n  and\n  dup3\n  add\n  dup1\n  0x40\n  mstore\n  pop\n  dup2\n  add\n  swap1\n  tag_10\n  swap2\n  swap1\n  tag_11\n  jump\t// in\ntag_10:\n    /* \"ZKSYNC/priceChecker.sol\":1664:1699  uint256 d = Token(_usdt).decimals() */\n  0xff\n  and\n  swap1\n  pop\n    /* \"ZKSYNC/priceChecker.sol\":1734:1740  18 - d */\n  tag_12\n    /* \"ZKSYNC/priceChecker.sol\":1664:1699  uint256 d = Token(_usdt).decimals() */\n  dup2\n    /* \"ZKSYNC/priceChecker.sol\":1734:1736  18 */\n  0x12\n    /* \"ZKSYNC/priceChecker.sol\":1734:1740  18 - d */\n  tag_13\n  jump\t// in\ntag_12:\n    /* \"ZKSYNC/priceChecker.sol\":1710:1731  usdtDecimalConversion */\n  0x03\n    /* \"ZKSYNC/priceChecker.sol\":1710:1740  usdtDecimalConversion = 18 - d */\n  sstore\n  pop\n  pop\n    /* \"ZKSYNC/priceChecker.sol\":1751:1756  owner */\n  0x04\n    /* \"ZKSYNC/priceChecker.sol\":1751:1769  owner = msg.sender */\n  dup1\n  sload\n  not(sub(shl(0xa0, 0x01), 0x01))\n  and\n    /* \"ZKSYNC/priceChecker.sol\":1759:1769  msg.sender */\n  caller\n    /* \"ZKSYNC/priceChecker.sol\":1751:1769  owner = msg.sender */\n  or\n  swap1\n  sstore\n  pop\n    /* \"ZKSYNC/priceChecker.sol\":1073:5655  contract TokenPriceCheck  {  ... */\n  tag_24\n  swap1\n  pop\n  jump\ntag_7:\n  dup3\n  dup1\n  sload\n  dup3\n  dup3\n  sstore\n  swap1\n  0x00\n  mstore\n  keccak256(0x00, 0x20)\n  swap1\n  dup2\n  add\n  swap3\n  dup3\n  iszero\n  tag_17\n  jumpi\n  swap2\n  0x20\n  mul\n  dup3\n  add\ntag_16:\n  dup3\n  dup2\n  gt\n  iszero\n  tag_17\n  jumpi\n  dup3\n  mload\n  dup3\n  sload\n  not(sub(shl(0xa0, 0x01), 0x01))\n  and\n  sub(shl(0xa0, 0x01), 0x01)\n  swap1\n  swap2\n  and\n  or\n  dup3\n  sstore\n  0x20\n  swap1\n  swap3\n  add\n  swap2\n  0x01\n  swap1\n  swap2\n  add\n  swap1\n  jump(tag_16)\ntag_17:\n  pop\n  tag_18\n  swap3\n  swap2\n  pop\n  tag_19\n  jump\t// in\ntag_18:\n  pop\n  swap1\n  jump\t// out\ntag_19:\ntag_20:\n  dup1\n  dup3\n  gt\n  iszero\n  tag_18\n  jumpi\n  0x00\n  dup2\n  sstore\n  0x01\n  add\n  jump(tag_20)\n    /* \"#utility.yul\":14:191   */\ntag_22:\n    /* \"#utility.yul\":93:106   */\n  dup1\n  mload\n  sub(shl(0xa0, 0x01), 0x01)\n    /* \"#utility.yul\":135:166   */\n  dup2\n  and\n    /* \"#utility.yul\":125:167   */\n  dup2\n  eq\n    /* \"#utility.yul\":115:185   */\n  tag_26\n  jumpi\n    /* \"#utility.yul\":181:182   */\n  0x00\n    /* \"#utility.yul\":178:179   */\n  dup1\n    /* \"#utility.yul\":171:183   */\n  revert\n    /* \"#utility.yul\":115:185   */\ntag_26:\n    /* \"#utility.yul\":14:191   */\n  swap2\n  swap1\n  pop\n  jump\t// out\n    /* \"#utility.yul\":196:323   */\ntag_23:\n    /* \"#utility.yul\":257:267   */\n  0x4e487b71\n    /* \"#utility.yul\":252:255   */\n  0xe0\n    /* \"#utility.yul\":248:268   */\n  shl\n    /* \"#utility.yul\":245:246   */\n  0x00\n    /* \"#utility.yul\":238:269   */\n  mstore\n    /* \"#utility.yul\":288:292   */\n  0x41\n    /* \"#utility.yul\":285:286   */\n  0x04\n    /* \"#utility.yul\":278:293   */\n  mstore\n    /* \"#utility.yul\":312:316   */\n  0x24\n    /* \"#utility.yul\":309:310   */\n  0x00\n    /* \"#utility.yul\":302:317   */\n  revert\n    /* \"#utility.yul\":328:1627   */\ntag_3:\n    /* \"#utility.yul\":441:447   */\n  0x00\n    /* \"#utility.yul\":449:455   */\n  dup1\n    /* \"#utility.yul\":457:463   */\n  0x00\n    /* \"#utility.yul\":510:512   */\n  0x60\n    /* \"#utility.yul\":498:507   */\n  dup5\n    /* \"#utility.yul\":489:496   */\n  dup7\n    /* \"#utility.yul\":485:508   */\n  sub\n    /* \"#utility.yul\":481:513   */\n  slt\n    /* \"#utility.yul\":478:530   */\n  iszero\n  tag_29\n  jumpi\n    /* \"#utility.yul\":526:527   */\n  0x00\n    /* \"#utility.yul\":523:524   */\n  dup1\n    /* \"#utility.yul\":516:528   */\n  revert\n    /* \"#utility.yul\":478:530   */\ntag_29:\n    /* \"#utility.yul\":549:589   */\n  tag_30\n    /* \"#utility.yul\":579:588   */\n  dup5\n    /* \"#utility.yul\":549:589   */\n  tag_22\n  jump\t// in\ntag_30:\n    /* \"#utility.yul\":539:589   */\n  swap3\n  pop\n    /* \"#utility.yul\":608:610   */\n  0x20\n    /* \"#utility.yul\":629:678   */\n  tag_31\n    /* \"#utility.yul\":674:676   */\n  dup2\n    /* \"#utility.yul\":663:672   */\n  dup7\n    /* \"#utility.yul\":659:677   */\n  add\n    /* \"#utility.yul\":629:678   */\n  tag_22\n  jump\t// in\ntag_31:\n    /* \"#utility.yul\":722:724   */\n  0x40\n    /* \"#utility.yul\":707:725   */\n  dup7\n  add\n    /* \"#utility.yul\":701:726   */\n  mload\n    /* \"#utility.yul\":619:678   */\n  swap1\n  swap4\n  pop\n  sub(shl(0x40, 0x01), 0x01)\n    /* \"#utility.yul\":775:789   */\n  dup1\n  dup3\n  gt\n    /* \"#utility.yul\":772:806   */\n  iszero\n  tag_32\n  jumpi\n    /* \"#utility.yul\":802:803   */\n  0x00\n    /* \"#utility.yul\":799:800   */\n  dup1\n    /* \"#utility.yul\":792:804   */\n  revert\n    /* \"#utility.yul\":772:806   */\ntag_32:\n    /* \"#utility.yul\":840:846   */\n  dup2\n    /* \"#utility.yul\":829:838   */\n  dup8\n    /* \"#utility.yul\":825:847   */\n  add\n    /* \"#utility.yul\":815:847   */\n  swap2\n  pop\n    /* \"#utility.yul\":885:892   */\n  dup8\n    /* \"#utility.yul\":878:882   */\n  0x1f\n    /* \"#utility.yul\":874:876   */\n  dup4\n    /* \"#utility.yul\":870:883   */\n  add\n    /* \"#utility.yul\":866:893   */\n  slt\n    /* \"#utility.yul\":856:911   */\n  tag_33\n  jumpi\n    /* \"#utility.yul\":907:908   */\n  0x00\n    /* \"#utility.yul\":904:905   */\n  dup1\n    /* \"#utility.yul\":897:909   */\n  revert\n    /* \"#utility.yul\":856:911   */\ntag_33:\n    /* \"#utility.yul\":936:938   */\n  dup2\n    /* \"#utility.yul\":930:939   */\n  mload\n    /* \"#utility.yul\":958:960   */\n  dup2\n    /* \"#utility.yul\":954:956   */\n  dup2\n    /* \"#utility.yul\":951:961   */\n  gt\n    /* \"#utility.yul\":948:984   */\n  iszero\n  tag_35\n  jumpi\n    /* \"#utility.yul\":964:982   */\n  tag_35\n  tag_23\n  jump\t// in\ntag_35:\n    /* \"#utility.yul\":1010:1012   */\n  dup1\n    /* \"#utility.yul\":1007:1008   */\n  0x05\n    /* \"#utility.yul\":1003:1013   */\n  shl\n    /* \"#utility.yul\":1042:1044   */\n  0x40\n    /* \"#utility.yul\":1036:1045   */\n  mload\n    /* \"#utility.yul\":1105:1107   */\n  0x1f\n    /* \"#utility.yul\":1101:1108   */\n  not\n    /* \"#utility.yul\":1096:1098   */\n  0x3f\n    /* \"#utility.yul\":1092:1094   */\n  dup4\n    /* \"#utility.yul\":1088:1099   */\n  add\n    /* \"#utility.yul\":1084:1109   */\n  and\n    /* \"#utility.yul\":1076:1082   */\n  dup2\n    /* \"#utility.yul\":1072:1110   */\n  add\n    /* \"#utility.yul\":1160:1166   */\n  dup2\n    /* \"#utility.yul\":1148:1158   */\n  dup2\n    /* \"#utility.yul\":1145:1167   */\n  lt\n    /* \"#utility.yul\":1140:1142   */\n  dup6\n    /* \"#utility.yul\":1128:1138   */\n  dup3\n    /* \"#utility.yul\":1125:1143   */\n  gt\n    /* \"#utility.yul\":1122:1168   */\n  or\n    /* \"#utility.yul\":1119:1191   */\n  iszero\n  tag_37\n  jumpi\n    /* \"#utility.yul\":1171:1189   */\n  tag_37\n  tag_23\n  jump\t// in\ntag_37:\n    /* \"#utility.yul\":1207:1209   */\n  0x40\n    /* \"#utility.yul\":1200:1222   */\n  mstore\n    /* \"#utility.yul\":1257:1275   */\n  swap2\n  dup3\n  mstore\n    /* \"#utility.yul\":1291:1306   */\n  dup5\n  dup3\n  add\n  swap3\n  pop\n    /* \"#utility.yul\":1333:1344   */\n  dup4\n  dup2\n  add\n    /* \"#utility.yul\":1329:1349   */\n  dup6\n  add\n  swap2\n    /* \"#utility.yul\":1361:1380   */\n  dup11\n  dup4\n  gt\n    /* \"#utility.yul\":1358:1397   */\n  iszero\n  tag_38\n  jumpi\n    /* \"#utility.yul\":1393:1394   */\n  0x00\n    /* \"#utility.yul\":1390:1391   */\n  dup1\n    /* \"#utility.yul\":1383:1395   */\n  revert\n    /* \"#utility.yul\":1358:1397   */\ntag_38:\n    /* \"#utility.yul\":1417:1428   */\n  swap4\n  dup6\n  add\n  swap4\n    /* \"#utility.yul\":1437:1596   */\ntag_39:\n    /* \"#utility.yul\":1453:1459   */\n  dup3\n    /* \"#utility.yul\":1448:1451   */\n  dup6\n    /* \"#utility.yul\":1445:1460   */\n  lt\n    /* \"#utility.yul\":1437:1596   */\n  iszero\n  tag_41\n  jumpi\n    /* \"#utility.yul\":1519:1553   */\n  tag_42\n    /* \"#utility.yul\":1549:1552   */\n  dup6\n    /* \"#utility.yul\":1519:1553   */\n  tag_22\n  jump\t// in\ntag_42:\n    /* \"#utility.yul\":1507:1554   */\n  dup5\n  mstore\n    /* \"#utility.yul\":1470:1482   */\n  swap4\n  dup6\n  add\n  swap4\n    /* \"#utility.yul\":1574:1586   */\n  swap3\n  dup6\n  add\n  swap3\n    /* \"#utility.yul\":1437:1596   */\n  jump(tag_39)\ntag_41:\n    /* \"#utility.yul\":1615:1621   */\n  dup1\n    /* \"#utility.yul\":1605:1621   */\n  swap7\n  pop\n  pop\n  pop\n  pop\n  pop\n  pop\n  pop\n    /* \"#utility.yul\":328:1627   */\n  swap3\n  pop\n  swap3\n  pop\n  swap3\n  jump\t// out\n    /* \"#utility.yul\":1632:1905   */\ntag_11:\n    /* \"#utility.yul\":1700:1706   */\n  0x00\n    /* \"#utility.yul\":1753:1755   */\n  0x20\n    /* \"#utility.yul\":1741:1750   */\n  dup3\n    /* \"#utility.yul\":1732:1739   */\n  dup5\n    /* \"#utility.yul\":1728:1751   */\n  sub\n    /* \"#utility.yul\":1724:1756   */\n  slt\n    /* \"#utility.yul\":1721:1773   */\n  iszero\n  tag_44\n  jumpi\n    /* \"#utility.yul\":1769:1770   */\n  0x00\n    /* \"#utility.yul\":1766:1767   */\n  dup1\n    /* \"#utility.yul\":1759:1771   */\n  revert\n    /* \"#utility.yul\":1721:1773   */\ntag_44:\n    /* \"#utility.yul\":1801:1810   */\n  dup2\n    /* \"#utility.yul\":1795:1811   */\n  mload\n    /* \"#utility.yul\":1851:1855   */\n  0xff\n    /* \"#utility.yul\":1844:1849   */\n  dup2\n    /* \"#utility.yul\":1840:1856   */\n  and\n    /* \"#utility.yul\":1833:1838   */\n  dup2\n    /* \"#utility.yul\":1830:1857   */\n  eq\n    /* \"#utility.yul\":1820:1875   */\n  tag_45\n  jumpi\n    /* \"#utility.yul\":1871:1872   */\n  0x00\n    /* \"#utility.yul\":1868:1869   */\n  dup1\n    /* \"#utility.yul\":1861:1873   */\n  revert\n    /* \"#utility.yul\":1820:1875   */\ntag_45:\n    /* \"#utility.yul\":1894:1899   */\n  swap4\n    /* \"#utility.yul\":1632:1905   */\n  swap3\n  pop\n  pop\n  pop\n  jump\t// out\n    /* \"#utility.yul\":1910:2135   */\ntag_13:\n    /* \"#utility.yul\":1977:1986   */\n  dup2\n  dup2\n  sub\n    /* \"#utility.yul\":1998:2009   */\n  dup2\n  dup2\n  gt\n    /* \"#utility.yul\":1995:2129   */\n  iszero\n  tag_47\n  jumpi\n    /* \"#utility.yul\":2051:2061   */\n  0x4e487b71\n    /* \"#utility.yul\":2046:2049   */\n  0xe0\n    /* \"#utility.yul\":2042:2062   */\n  shl\n    /* \"#utility.yul\":2039:2040   */\n  0x00\n    /* \"#utility.yul\":2032:2063   */\n  mstore\n    /* \"#utility.yul\":2086:2090   */\n  0x11\n    /* \"#utility.yul\":2083:2084   */\n  0x04\n    /* \"#utility.yul\":2076:2091   */\n  mstore\n    /* \"#utility.yul\":2114:2118   */\n  0x24\n    /* \"#utility.yul\":2111:2112   */\n  0x00\n    /* \"#utility.yul\":2104:2119   */\n  revert\n    /* \"#utility.yul\":1995:2129   */\ntag_47:\n    /* \"#utility.yul\":1910:2135   */\n  swap3\n  swap2\n  pop\n  pop\n  jump\t// out\ntag_24:\n    /* \"ZKSYNC/priceChecker.sol\":1073:5655  contract TokenPriceCheck  {  ... */\n  dataSize(sub_0)\n  dup1\n  dataOffset(sub_0)\n  0x00\n  codecopy\n  0x00\n  return\nstop\n\nsub_0: assembly {\n        /* \"ZKSYNC/priceChecker.sol\":1073:5655  contract TokenPriceCheck  {  ... */\n      mstore(0x40, 0x80)\n      callvalue\n      dup1\n      iszero\n      tag_1\n      jumpi\n      0x00\n      dup1\n      revert\n    tag_1:\n      pop\n      jumpi(tag_2, lt(calldatasize, 0x04))\n      shr(0xe0, calldataload(0x00))\n      dup1\n      0x29ce1ec5\n      eq\n      tag_3\n      jumpi\n      dup1\n      0x4782e407\n      eq\n      tag_4\n      jumpi\n      dup1\n      0x672383c4\n      eq\n      tag_5\n      jumpi\n      dup1\n      0x6cff8234\n      eq\n      tag_6\n      jumpi\n      dup1\n      0xa6d6e2ca\n      eq\n      tag_7\n      jumpi\n    tag_2:\n      0x00\n      dup1\n      revert\n        /* \"ZKSYNC/priceChecker.sol\":1304:1498  function addFactory(address newFactory) external {... */\n    tag_3:\n      tag_8\n      tag_9\n      calldatasize\n      0x04\n      tag_10\n      jump\t// in\n    tag_9:\n      tag_11\n      jump\t// in\n    tag_8:\n      stop\n        /* \"ZKSYNC/priceChecker.sol\":1785:2002  function changeUSDT(address newUSD) external {... */\n    tag_4:\n      tag_8\n      tag_13\n      calldatasize\n      0x04\n      tag_10\n      jump\t// in\n    tag_13:\n      tag_14\n      jump\t// in\n        /* \"ZKSYNC/priceChecker.sol\":1269:1295  address[] public factories */\n    tag_5:\n      tag_15\n      tag_16\n      calldatasize\n      0x04\n      tag_17\n      jump\t// in\n    tag_16:\n      tag_18\n      jump\t// in\n    tag_15:\n      mload(0x40)\n      sub(shl(0xa0, 0x01), 0x01)\n        /* \"#utility.yul\":751:783   */\n      swap1\n      swap2\n      and\n        /* \"#utility.yul\":733:784   */\n      dup2\n      mstore\n        /* \"#utility.yul\":721:723   */\n      0x20\n        /* \"#utility.yul\":706:724   */\n      add\n        /* \"ZKSYNC/priceChecker.sol\":1269:1295  address[] public factories */\n    tag_19:\n      mload(0x40)\n      dup1\n      swap2\n      sub\n      swap1\n      return\n        /* \"ZKSYNC/priceChecker.sol\":2009:4063  function getBNBPrice(address startFactory) public view returns (uint256 price) {... */\n    tag_6:\n      tag_21\n      tag_22\n      calldatasize\n      0x04\n      tag_10\n      jump\t// in\n    tag_22:\n      tag_23\n      jump\t// in\n    tag_21:\n      mload(0x40)\n        /* \"#utility.yul\":941:966   */\n      swap1\n      dup2\n      mstore\n        /* \"#utility.yul\":929:931   */\n      0x20\n        /* \"#utility.yul\":914:932   */\n      add\n        /* \"ZKSYNC/priceChecker.sol\":2009:4063  function getBNBPrice(address startFactory) public view returns (uint256 price) {... */\n      tag_19\n        /* \"#utility.yul\":795:972   */\n      jump\n        /* \"ZKSYNC/priceChecker.sol\":4104:5645  function TokenPrice( address token, address factory) public view returns (uint256 num, uint256 den, uint256 usd) {... */\n    tag_7:\n      tag_26\n      tag_27\n      calldatasize\n      0x04\n      tag_28\n      jump\t// in\n    tag_27:\n      tag_29\n      jump\t// in\n    tag_26:\n      0x40\n      dup1\n      mload\n        /* \"#utility.yul\":1572:1597   */\n      swap4\n      dup5\n      mstore\n        /* \"#utility.yul\":1628:1630   */\n      0x20\n        /* \"#utility.yul\":1613:1631   */\n      dup5\n      add\n        /* \"#utility.yul\":1606:1640   */\n      swap3\n      swap1\n      swap3\n      mstore\n        /* \"#utility.yul\":1656:1674   */\n      swap1\n      dup3\n      add\n        /* \"#utility.yul\":1649:1683   */\n      mstore\n        /* \"#utility.yul\":1560:1562   */\n      0x60\n        /* \"#utility.yul\":1545:1563   */\n      add\n        /* \"ZKSYNC/priceChecker.sol\":4104:5645  function TokenPrice( address token, address factory) public view returns (uint256 num, uint256 den, uint256 usd) {... */\n      tag_19\n        /* \"#utility.yul\":1370:1689   */\n      jump\n        /* \"ZKSYNC/priceChecker.sol\":1304:1498  function addFactory(address newFactory) external {... */\n    tag_11:\n        /* \"ZKSYNC/priceChecker.sol\":1376:1386  newFactory */\n      dup1\n      sub(shl(0xa0, 0x01), 0x01)\n        /* \"ZKSYNC/priceChecker.sol\":1368:1402  Factory(newFactory).allPairsLength */\n      and\n      0x574f2ba3\n        /* \"ZKSYNC/priceChecker.sol\":1368:1404  Factory(newFactory).allPairsLength() */\n      mload(0x40)\n      dup2\n      0xffffffff\n      and\n      0xe0\n      shl\n      dup2\n      mstore\n      0x04\n      add\n      0x20\n      mload(0x40)\n      dup1\n      dup4\n      sub\n      dup2\n      dup7\n      gas\n      staticcall\n      swap3\n      pop\n      pop\n      pop\n      dup1\n      iszero\n      tag_33\n      jumpi\n      pop\n      0x40\n      dup1\n      mload\n      0x1f\n      returndatasize\n      swap1\n      dup2\n      add\n      not(0x1f)\n      and\n      dup3\n      add\n      swap1\n      swap3\n      mstore\n      tag_34\n      swap2\n      dup2\n      add\n      swap1\n      tag_35\n      jump\t// in\n    tag_34:\n      0x01\n    tag_33:\n        /* \"ZKSYNC/priceChecker.sol\":1364:1491  try Factory(newFactory).allPairsLength() {... */\n      tag_36\n      jumpi\n        /* \"ZKSYNC/priceChecker.sol\":1466:1489  revert(\"Not a factory\") */\n      mload(0x40)\n      shl(0xe5, 0x461bcd)\n      dup2\n      mstore\n        /* \"#utility.yul\":2085:2087   */\n      0x20\n        /* \"ZKSYNC/priceChecker.sol\":1466:1489  revert(\"Not a factory\") */\n      0x04\n      dup3\n      add\n        /* \"#utility.yul\":2067:2088   */\n      mstore\n        /* \"#utility.yul\":2124:2126   */\n      0x0d\n        /* \"#utility.yul\":2104:2122   */\n      0x24\n      dup3\n      add\n        /* \"#utility.yul\":2097:2127   */\n      mstore\n      shl(0x98, 0x4e6f74206120666163746f7279)\n        /* \"#utility.yul\":2143:2161   */\n      0x44\n      dup3\n      add\n        /* \"#utility.yul\":2136:2179   */\n      mstore\n        /* \"#utility.yul\":2196:2214   */\n      0x64\n      add\n        /* \"ZKSYNC/priceChecker.sol\":1466:1489  revert(\"Not a factory\") */\n    tag_40:\n      mload(0x40)\n      dup1\n      swap2\n      sub\n      swap1\n      revert\n        /* \"ZKSYNC/priceChecker.sol\":1364:1491  try Factory(newFactory).allPairsLength() {... */\n    tag_36:\n      pop\n        /* \"ZKSYNC/priceChecker.sol\":1420:1429  factories */\n      0x05\n        /* \"ZKSYNC/priceChecker.sol\":1420:1446  factories.push(newFactory) */\n      dup1\n      sload\n      0x01\n      dup2\n      add\n      dup3\n      sstore\n      0x00\n      swap2\n      swap1\n      swap2\n      mstore\n      0x036b6384b5eca791c62761152d0c79bb0604c104a5fb6f4eb0703f3154bb3db0\n      add\n      dup1\n      sload\n      not(sub(shl(0xa0, 0x01), 0x01))\n      and\n      sub(shl(0xa0, 0x01), 0x01)\n      dup4\n      and\n      or\n      swap1\n      sstore\n        /* \"ZKSYNC/priceChecker.sol\":1364:1491  try Factory(newFactory).allPairsLength() {... */\n    tag_42:\n        /* \"ZKSYNC/priceChecker.sol\":1304:1498  function addFactory(address newFactory) external {... */\n      pop\n      jump\t// out\n        /* \"ZKSYNC/priceChecker.sol\":1785:2002  function changeUSDT(address newUSD) external {... */\n    tag_14:\n        /* \"ZKSYNC/priceChecker.sol\":1863:1868  owner */\n      and(sub(shl(0xa0, 0x01), 0x01), sload(0x04))\n        /* \"ZKSYNC/priceChecker.sol\":1849:1859  msg.sender */\n      caller\n        /* \"ZKSYNC/priceChecker.sol\":1849:1868  msg.sender == owner */\n      eq\n        /* \"ZKSYNC/priceChecker.sol\":1841:1882  require(msg.sender == owner, \"Not Owner\") */\n      tag_45\n      jumpi\n      mload(0x40)\n      shl(0xe5, 0x461bcd)\n      dup2\n      mstore\n        /* \"#utility.yul\":2427:2429   */\n      0x20\n        /* \"ZKSYNC/priceChecker.sol\":1841:1882  require(msg.sender == owner, \"Not Owner\") */\n      0x04\n      dup3\n      add\n        /* \"#utility.yul\":2409:2430   */\n      mstore\n        /* \"#utility.yul\":2466:2467   */\n      0x09\n        /* \"#utility.yul\":2446:2464   */\n      0x24\n      dup3\n      add\n        /* \"#utility.yul\":2439:2468   */\n      mstore\n      shl(0xb9, 0x2737ba1027bbb732b9)\n        /* \"#utility.yul\":2484:2502   */\n      0x44\n      dup3\n      add\n        /* \"#utility.yul\":2477:2516   */\n      mstore\n        /* \"#utility.yul\":2533:2551   */\n      0x64\n      add\n        /* \"ZKSYNC/priceChecker.sol\":1841:1882  require(msg.sender == owner, \"Not Owner\") */\n      tag_40\n        /* \"#utility.yul\":2225:2557   */\n      jump\n        /* \"ZKSYNC/priceChecker.sol\":1841:1882  require(msg.sender == owner, \"Not Owner\") */\n    tag_45:\n        /* \"ZKSYNC/priceChecker.sol\":1893:1897  usdt */\n      0x02\n        /* \"ZKSYNC/priceChecker.sol\":1893:1906  usdt = newUSD */\n      dup1\n      sload\n      not(sub(shl(0xa0, 0x01), 0x01))\n      and\n      sub(shl(0xa0, 0x01), 0x01)\n      dup4\n      and\n      swap1\n      dup2\n      or\n      swap1\n      swap2\n      sstore\n        /* \"ZKSYNC/priceChecker.sol\":1929:1953  Token(newUSD).decimals() */\n      0x40\n      dup1\n      mload\n      shl(0xe0, 0x313ce567)\n      dup2\n      mstore\n      swap1\n      mload\n      0x00\n      swap3\n        /* \"ZKSYNC/priceChecker.sol\":1893:1906  usdt = newUSD */\n      swap2\n        /* \"ZKSYNC/priceChecker.sol\":1929:1951  Token(newUSD).decimals */\n      0x313ce567\n      swap2\n        /* \"ZKSYNC/priceChecker.sol\":1929:1953  Token(newUSD).decimals() */\n      0x04\n      dup1\n      dup4\n      add\n      swap3\n      0x20\n      swap3\n      swap2\n      swap1\n      dup3\n      swap1\n      sub\n      add\n      dup2\n        /* \"ZKSYNC/priceChecker.sol\":1893:1906  usdt = newUSD */\n      dup7\n        /* \"ZKSYNC/priceChecker.sol\":1929:1953  Token(newUSD).decimals() */\n      gas\n      staticcall\n      iszero\n      dup1\n      iszero\n      tag_49\n      jumpi\n      returndatasize\n      0x00\n      dup1\n      returndatacopy\n      revert(0x00, returndatasize)\n    tag_49:\n      pop\n      pop\n      pop\n      pop\n      mload(0x40)\n      returndatasize\n      not(0x1f)\n      0x1f\n      dup3\n      add\n      and\n      dup3\n      add\n      dup1\n      0x40\n      mstore\n      pop\n      dup2\n      add\n      swap1\n      tag_50\n      swap2\n      swap1\n      tag_51\n      jump\t// in\n    tag_50:\n        /* \"ZKSYNC/priceChecker.sol\":1917:1953  uint256 d = Token(newUSD).decimals() */\n      0xff\n      and\n      swap1\n      pop\n        /* \"ZKSYNC/priceChecker.sol\":1988:1994  18 - d */\n      tag_52\n        /* \"ZKSYNC/priceChecker.sol\":1917:1953  uint256 d = Token(newUSD).decimals() */\n      dup2\n        /* \"ZKSYNC/priceChecker.sol\":1988:1990  18 */\n      0x12\n        /* \"ZKSYNC/priceChecker.sol\":1988:1994  18 - d */\n      tag_53\n      jump\t// in\n    tag_52:\n        /* \"ZKSYNC/priceChecker.sol\":1964:1985  usdtDecimalConversion */\n      0x03\n        /* \"ZKSYNC/priceChecker.sol\":1964:1994  usdtDecimalConversion = 18 - d */\n      sstore\n      pop\n      pop\n        /* \"ZKSYNC/priceChecker.sol\":1785:2002  function changeUSDT(address newUSD) external {... */\n      jump\t// out\n        /* \"ZKSYNC/priceChecker.sol\":1269:1295  address[] public factories */\n    tag_18:\n      0x05\n      dup2\n      dup2\n      sload\n      dup2\n      lt\n      tag_54\n      jumpi\n      0x00\n      dup1\n      revert\n    tag_54:\n      0x00\n      swap2\n      dup3\n      mstore\n      0x20\n      swap1\n      swap2\n      keccak256\n      add\n      sload\n      sub(shl(0xa0, 0x01), 0x01)\n      and\n      swap1\n      pop\n      dup2\n      jump\t// out\n        /* \"ZKSYNC/priceChecker.sol\":2009:4063  function getBNBPrice(address startFactory) public view returns (uint256 price) {... */\n    tag_23:\n        /* \"ZKSYNC/priceChecker.sol\":2234:2237  bnb */\n      sload(0x01)\n        /* \"ZKSYNC/priceChecker.sol\":2239:2243  usdt */\n      sload(0x02)\n        /* \"ZKSYNC/priceChecker.sol\":2204:2244  Factory(startFactory).getPair(bnb, usdt) */\n      mload(0x40)\n      shl(0xe0, 0xe6a43905)\n      dup2\n      mstore\n        /* \"ZKSYNC/priceChecker.sol\":2073:2086  uint256 price */\n      0x00\n      swap3\n        /* \"ZKSYNC/priceChecker.sol\":2113:2132  1000000000000000000 */\n      0x0de0b6b3a7640000\n      swap3\n      sub(shl(0xa0, 0x01), 0x01)\n        /* \"ZKSYNC/priceChecker.sol\":2204:2233  Factory(startFactory).getPair */\n      dup1\n      dup8\n      and\n      swap4\n      0xe6a43905\n      swap4\n        /* \"ZKSYNC/priceChecker.sol\":2204:2244  Factory(startFactory).getPair(bnb, usdt) */\n      tag_57\n      swap4\n        /* \"ZKSYNC/priceChecker.sol\":2234:2237  bnb */\n      swap1\n      dup4\n      and\n      swap3\n        /* \"ZKSYNC/priceChecker.sol\":2239:2243  usdt */\n      and\n      swap1\n        /* \"ZKSYNC/priceChecker.sol\":2204:2244  Factory(startFactory).getPair(bnb, usdt) */\n      0x04\n      add\n      tag_58\n      jump\t// in\n    tag_57:\n      0x20\n      mload(0x40)\n      dup1\n      dup4\n      sub\n      dup2\n      dup7\n      gas\n      staticcall\n      swap3\n      pop\n      pop\n      pop\n      dup1\n      iszero\n      tag_59\n      jumpi\n      pop\n      0x40\n      dup1\n      mload\n      0x1f\n      returndatasize\n      swap1\n      dup2\n      add\n      not(0x1f)\n      and\n      dup3\n      add\n      swap1\n      swap3\n      mstore\n      tag_60\n      swap2\n      dup2\n      add\n      swap1\n      tag_61\n      jump\t// in\n    tag_60:\n      0x01\n    tag_59:\n        /* \"ZKSYNC/priceChecker.sol\":2200:2970  try Factory(startFactory).getPair(bnb, usdt) {... */\n      iszero\n      tag_66\n      jumpi\n      pop\n        /* \"ZKSYNC/priceChecker.sol\":2301:2304  bnb */\n      sload(0x01)\n        /* \"ZKSYNC/priceChecker.sol\":2306:2310  usdt */\n      sload(0x02)\n        /* \"ZKSYNC/priceChecker.sol\":2271:2311  Factory(startFactory).getPair(bnb, usdt) */\n      mload(0x40)\n      shl(0xe0, 0xe6a43905)\n      dup2\n      mstore\n        /* \"ZKSYNC/priceChecker.sol\":2256:2268  address pair */\n      0x00\n      swap3\n      sub(shl(0xa0, 0x01), 0x01)\n        /* \"ZKSYNC/priceChecker.sol\":2271:2300  Factory(startFactory).getPair */\n      dup8\n      dup2\n      and\n      swap4\n      0xe6a43905\n      swap4\n        /* \"ZKSYNC/priceChecker.sol\":2271:2311  Factory(startFactory).getPair(bnb, usdt) */\n      tag_67\n      swap4\n        /* \"ZKSYNC/priceChecker.sol\":2301:2304  bnb */\n      dup4\n      and\n      swap3\n        /* \"ZKSYNC/priceChecker.sol\":2306:2310  usdt */\n      swap1\n      swap2\n      and\n      swap1\n        /* \"ZKSYNC/priceChecker.sol\":2271:2311  Factory(startFactory).getPair(bnb, usdt) */\n      0x04\n      add\n      tag_58\n      jump\t// in\n    tag_67:\n      0x20\n      mload(0x40)\n      dup1\n      dup4\n      sub\n      dup2\n      dup7\n      gas\n      staticcall\n      iszero\n      dup1\n      iszero\n      tag_69\n      jumpi\n      returndatasize\n      0x00\n      dup1\n      returndatacopy\n      revert(0x00, returndatasize)\n    tag_69:\n      pop\n      pop\n      pop\n      pop\n      mload(0x40)\n      returndatasize\n      not(0x1f)\n      0x1f\n      dup3\n      add\n      and\n      dup3\n      add\n      dup1\n      0x40\n      mstore\n      pop\n      dup2\n      add\n      swap1\n      tag_70\n      swap2\n      swap1\n      tag_61\n      jump\t// in\n    tag_70:\n        /* \"ZKSYNC/priceChecker.sol\":2256:2311  address pair = Factory(startFactory).getPair(bnb, usdt) */\n      swap1\n      pop\n        /* \"ZKSYNC/priceChecker.sol\":2323:2333  uint256 r0 */\n      0x00\n        /* \"ZKSYNC/priceChecker.sol\":2335:2345  uint256 r1 */\n      dup1\n        /* \"ZKSYNC/priceChecker.sol\":2358:2362  pair */\n      dup3\n      sub(shl(0xa0, 0x01), 0x01)\n        /* \"ZKSYNC/priceChecker.sol\":2350:2375  LPToken(pair).getReserves */\n      and\n      0x0902f1ac\n        /* \"ZKSYNC/priceChecker.sol\":2350:2377  LPToken(pair).getReserves() */\n      mload(0x40)\n      dup2\n      0xffffffff\n      and\n      0xe0\n      shl\n      dup2\n      mstore\n      0x04\n      add\n      0x60\n      mload(0x40)\n      dup1\n      dup4\n      sub\n      dup2\n      dup7\n      gas\n      staticcall\n      iszero\n      dup1\n      iszero\n      tag_72\n      jumpi\n      returndatasize\n      0x00\n      dup1\n      returndatacopy\n      revert(0x00, returndatasize)\n    tag_72:\n      pop\n      pop\n      pop\n      pop\n      mload(0x40)\n      returndatasize\n      not(0x1f)\n      0x1f\n      dup3\n      add\n      and\n      dup3\n      add\n      dup1\n      0x40\n      mstore\n      pop\n      dup2\n      add\n      swap1\n      tag_73\n      swap2\n      swap1\n      tag_74\n      jump\t// in\n    tag_73:\n        /* \"ZKSYNC/priceChecker.sol\":2322:2377  (uint256 r0, uint256 r1,) = LPToken(pair).getReserves() */\n      pop\n      sub(shl(0x70, 0x01), 0x01)\n      and\n      swap2\n      pop\n      sub(shl(0x70, 0x01), 0x01)\n      and\n      swap2\n      pop\n        /* \"ZKSYNC/priceChecker.sol\":2388:2402  address token0 */\n      0x00\n        /* \"ZKSYNC/priceChecker.sol\":2413:2417  pair */\n      dup4\n      sub(shl(0xa0, 0x01), 0x01)\n        /* \"ZKSYNC/priceChecker.sol\":2405:2425  LPToken(pair).token0 */\n      and\n      0x0dfe1681\n        /* \"ZKSYNC/priceChecker.sol\":2405:2427  LPToken(pair).token0() */\n      mload(0x40)\n      dup2\n      0xffffffff\n      and\n      0xe0\n      shl\n      dup2\n      mstore\n      0x04\n      add\n      0x20\n      mload(0x40)\n      dup1\n      dup4\n      sub\n      dup2\n      dup7\n      gas\n      staticcall\n      iszero\n      dup1\n      iszero\n      tag_76\n      jumpi\n      returndatasize\n      0x00\n      dup1\n      returndatacopy\n      revert(0x00, returndatasize)\n    tag_76:\n      pop\n      pop\n      pop\n      pop\n      mload(0x40)\n      returndatasize\n      not(0x1f)\n      0x1f\n      dup3\n      add\n      and\n      dup3\n      add\n      dup1\n      0x40\n      mstore\n      pop\n      dup2\n      add\n      swap1\n      tag_77\n      swap2\n      swap1\n      tag_61\n      jump\t// in\n    tag_77:\n        /* \"ZKSYNC/priceChecker.sol\":2388:2427  address token0 = LPToken(pair).token0() */\n      swap1\n      pop\n        /* \"ZKSYNC/priceChecker.sol\":2510:2517  r0 != 0 */\n      dup3\n      iszero\n      dup1\n      iszero\n      swap1\n        /* \"ZKSYNC/priceChecker.sol\":2510:2528  r0 != 0 && r1 != 0 */\n      tag_78\n      jumpi\n      pop\n        /* \"ZKSYNC/priceChecker.sol\":2521:2528  r1 != 0 */\n      dup2\n      iszero\n      iszero\n        /* \"ZKSYNC/priceChecker.sol\":2510:2528  r0 != 0 && r1 != 0 */\n    tag_78:\n        /* \"ZKSYNC/priceChecker.sol\":2506:2898  if (r0 != 0 && r1 != 0) {... */\n      iszero\n      tag_93\n      jumpi\n        /* \"ZKSYNC/priceChecker.sol\":2559:2562  bnb */\n      sload(0x01)\n      sub(shl(0xa0, 0x01), 0x01)\n      swap1\n      dup2\n      and\n        /* \"ZKSYNC/priceChecker.sol\":2549:2562  token0 == bnb */\n      swap1\n      dup3\n      and\n      sub\n        /* \"ZKSYNC/priceChecker.sol\":2545:2754  if (token0 == bnb) {... */\n      tag_80\n      jumpi\n        /* \"ZKSYNC/priceChecker.sol\":2638:2640  r0 */\n      dup3\n        /* \"ZKSYNC/priceChecker.sol\":2627:2634  usPrice */\n      dup6\n        /* \"ZKSYNC/priceChecker.sol\":2602:2623  usdtDecimalConversion */\n      sload(0x03)\n        /* \"ZKSYNC/priceChecker.sol\":2598:2600  10 */\n      0x0a\n        /* \"ZKSYNC/priceChecker.sol\":2598:2623  10**usdtDecimalConversion */\n      tag_81\n      swap2\n      swap1\n      tag_82\n      jump\t// in\n    tag_81:\n        /* \"ZKSYNC/priceChecker.sol\":2593:2623  r1 * 10**usdtDecimalConversion */\n      tag_83\n      swap1\n        /* \"ZKSYNC/priceChecker.sol\":2593:2595  r1 */\n      dup6\n        /* \"ZKSYNC/priceChecker.sol\":2593:2623  r1 * 10**usdtDecimalConversion */\n      tag_84\n      jump\t// in\n    tag_83:\n        /* \"ZKSYNC/priceChecker.sol\":2592:2634  (r1 * 10**usdtDecimalConversion) * usPrice */\n      tag_85\n      swap2\n      swap1\n      tag_84\n      jump\t// in\n    tag_85:\n        /* \"ZKSYNC/priceChecker.sol\":2591:2640  ((r1 * 10**usdtDecimalConversion) * usPrice) / r0 */\n      tag_86\n      swap2\n      swap1\n      tag_87\n      jump\t// in\n    tag_86:\n        /* \"ZKSYNC/priceChecker.sol\":2583:2640  price = ((r1 * 10**usdtDecimalConversion) * usPrice) / r0 */\n      swap6\n      pop\n        /* \"ZKSYNC/priceChecker.sol\":2545:2754  if (token0 == bnb) {... */\n      jump(tag_88)\n    tag_80:\n        /* \"ZKSYNC/priceChecker.sol\":2736:2738  r1 */\n      dup2\n        /* \"ZKSYNC/priceChecker.sol\":2725:2732  usPrice */\n      dup6\n        /* \"ZKSYNC/priceChecker.sol\":2700:2721  usdtDecimalConversion */\n      sload(0x03)\n        /* \"ZKSYNC/priceChecker.sol\":2696:2698  10 */\n      0x0a\n        /* \"ZKSYNC/priceChecker.sol\":2696:2721  10**usdtDecimalConversion */\n      tag_89\n      swap2\n      swap1\n      tag_82\n      jump\t// in\n    tag_89:\n        /* \"ZKSYNC/priceChecker.sol\":2691:2721  r0 * 10**usdtDecimalConversion */\n      tag_90\n      swap1\n        /* \"ZKSYNC/priceChecker.sol\":2691:2693  r0 */\n      dup7\n        /* \"ZKSYNC/priceChecker.sol\":2691:2721  r0 * 10**usdtDecimalConversion */\n      tag_84\n      jump\t// in\n    tag_90:\n        /* \"ZKSYNC/priceChecker.sol\":2690:2732  (r0 * 10**usdtDecimalConversion) * usPrice */\n      tag_91\n      swap2\n      swap1\n      tag_84\n      jump\t// in\n    tag_91:\n        /* \"ZKSYNC/priceChecker.sol\":2689:2738  ((r0 * 10**usdtDecimalConversion) * usPrice) / r1 */\n      tag_92\n      swap2\n      swap1\n      tag_87\n      jump\t// in\n    tag_92:\n        /* \"ZKSYNC/priceChecker.sol\":2681:2738  price = ((r0 * 10**usdtDecimalConversion) * usPrice) / r1 */\n      swap6\n      pop\n        /* \"ZKSYNC/priceChecker.sol\":2545:2754  if (token0 == bnb) {... */\n    tag_88:\n        /* \"ZKSYNC/priceChecker.sol\":2829:2838  price > 0 */\n      dup6\n      iszero\n        /* \"ZKSYNC/priceChecker.sol\":2825:2887  if (price > 0) {... */\n      tag_93\n      jumpi\n        /* \"ZKSYNC/priceChecker.sol\":2859:2871  return price */\n      pop\n      pop\n      pop\n      pop\n      pop\n        /* \"ZKSYNC/priceChecker.sol\":2009:4063  function getBNBPrice(address startFactory) public view returns (uint256 price) {... */\n      swap2\n      swap1\n      pop\n      jump\t// out\n        /* \"ZKSYNC/priceChecker.sol\":2825:2887  if (price > 0) {... */\n    tag_93:\n        /* \"ZKSYNC/priceChecker.sol\":2245:2905  {... */\n      pop\n      pop\n      pop\n      pop\n        /* \"ZKSYNC/priceChecker.sol\":2200:2970  try Factory(startFactory).getPair(bnb, usdt) {... */\n    tag_66:\n        /* \"ZKSYNC/priceChecker.sol\":3075:3084  uint256 i */\n      0x00\n        /* \"ZKSYNC/priceChecker.sol\":3070:3998  for (uint256 i = 0; i < factories.length; i++) {... */\n    tag_94:\n        /* \"ZKSYNC/priceChecker.sol\":3094:3103  factories */\n      0x05\n        /* \"ZKSYNC/priceChecker.sol\":3094:3110  factories.length */\n      sload\n        /* \"ZKSYNC/priceChecker.sol\":3090:3110  i < factories.length */\n      dup2\n      lt\n        /* \"ZKSYNC/priceChecker.sol\":3070:3998  for (uint256 i = 0; i < factories.length; i++) {... */\n      iszero\n      tag_95\n      jumpi\n        /* \"ZKSYNC/priceChecker.sol\":3148:3160  startFactory */\n      dup4\n      sub(shl(0xa0, 0x01), 0x01)\n        /* \"ZKSYNC/priceChecker.sol\":3132:3160  factories[i] == startFactory */\n      and\n        /* \"ZKSYNC/priceChecker.sol\":3132:3141  factories */\n      0x05\n        /* \"ZKSYNC/priceChecker.sol\":3142:3143  i */\n      dup3\n        /* \"ZKSYNC/priceChecker.sol\":3132:3144  factories[i] */\n      dup2\n      sload\n      dup2\n      lt\n      tag_98\n      jumpi\n      tag_98\n      tag_99\n      jump\t// in\n    tag_98:\n      0x00\n      swap2\n      dup3\n      mstore\n      0x20\n      swap1\n      swap2\n      keccak256\n      add\n      sload\n      sub(shl(0xa0, 0x01), 0x01)\n      and\n        /* \"ZKSYNC/priceChecker.sol\":3128:3170  if (factories[i] == startFactory) continue */\n      eq\n        /* \"ZKSYNC/priceChecker.sol\":3162:3170  continue */\n      tag_112\n        /* \"ZKSYNC/priceChecker.sol\":3128:3170  if (factories[i] == startFactory) continue */\n      jumpi\n        /* \"ZKSYNC/priceChecker.sol\":3223:3232  factories */\n      0x05\n        /* \"ZKSYNC/priceChecker.sol\":3233:3234  i */\n      dup2\n        /* \"ZKSYNC/priceChecker.sol\":3223:3235  factories[i] */\n      dup2\n      sload\n      dup2\n      lt\n      tag_103\n      jumpi\n      tag_103\n      tag_99\n      jump\t// in\n    tag_103:\n      0x00\n      swap2\n      dup3\n      mstore\n      0x20\n      swap1\n      swap2\n      keccak256\n      add\n      sload\n      0x01\n        /* \"ZKSYNC/priceChecker.sol\":3245:3248  bnb */\n      sload\n        /* \"ZKSYNC/priceChecker.sol\":3250:3254  usdt */\n      sload(0x02)\n        /* \"ZKSYNC/priceChecker.sol\":3215:3255  Factory(factories[i]).getPair(bnb, usdt) */\n      mload(0x40)\n      shl(0xe0, 0xe6a43905)\n      dup2\n      mstore\n      sub(shl(0xa0, 0x01), 0x01)\n        /* \"ZKSYNC/priceChecker.sol\":3223:3235  factories[i] */\n      swap4\n      dup5\n      and\n      swap4\n        /* \"ZKSYNC/priceChecker.sol\":3215:3244  Factory(factories[i]).getPair */\n      0xe6a43905\n      swap4\n        /* \"ZKSYNC/priceChecker.sol\":3215:3255  Factory(factories[i]).getPair(bnb, usdt) */\n      tag_105\n      swap4\n        /* \"ZKSYNC/priceChecker.sol\":3245:3248  bnb */\n      swap1\n      dup3\n      and\n      swap3\n        /* \"ZKSYNC/priceChecker.sol\":3250:3254  usdt */\n      swap2\n      and\n      swap1\n        /* \"ZKSYNC/priceChecker.sol\":3215:3255  Factory(factories[i]).getPair(bnb, usdt) */\n      0x04\n      add\n      tag_58\n      jump\t// in\n    tag_105:\n      0x20\n      mload(0x40)\n      dup1\n      dup4\n      sub\n      dup2\n      dup7\n      gas\n      staticcall\n      swap3\n      pop\n      pop\n      pop\n      dup1\n      iszero\n      tag_106\n      jumpi\n      pop\n      0x40\n      dup1\n      mload\n      0x1f\n      returndatasize\n      swap1\n      dup2\n      add\n      not(0x1f)\n      and\n      dup3\n      add\n      swap1\n      swap3\n      mstore\n      tag_107\n      swap2\n      dup2\n      add\n      swap1\n      tag_61\n      jump\t// in\n    tag_107:\n      0x01\n    tag_106:\n        /* \"ZKSYNC/priceChecker.sol\":3211:3991  try Factory(factories[i]).getPair(bnb, usdt) {... */\n      iszero\n      tag_112\n      jumpi\n      pop\n        /* \"ZKSYNC/priceChecker.sol\":3271:3283  address pair */\n      0x00\n        /* \"ZKSYNC/priceChecker.sol\":3294:3303  factories */\n      0x05\n        /* \"ZKSYNC/priceChecker.sol\":3304:3305  i */\n      dup3\n        /* \"ZKSYNC/priceChecker.sol\":3294:3306  factories[i] */\n      dup2\n      sload\n      dup2\n      lt\n      tag_114\n      jumpi\n      tag_114\n      tag_99\n      jump\t// in\n    tag_114:\n      0x00\n      swap2\n      dup3\n      mstore\n      0x20\n      swap1\n      swap2\n      keccak256\n      add\n      sload\n      0x01\n        /* \"ZKSYNC/priceChecker.sol\":3316:3319  bnb */\n      sload\n        /* \"ZKSYNC/priceChecker.sol\":3321:3325  usdt */\n      sload(0x02)\n        /* \"ZKSYNC/priceChecker.sol\":3286:3326  Factory(factories[i]).getPair(bnb, usdt) */\n      mload(0x40)\n      shl(0xe0, 0xe6a43905)\n      dup2\n      mstore\n      sub(shl(0xa0, 0x01), 0x01)\n        /* \"ZKSYNC/priceChecker.sol\":3294:3306  factories[i] */\n      swap4\n      dup5\n      and\n      swap4\n        /* \"ZKSYNC/priceChecker.sol\":3286:3315  Factory(factories[i]).getPair */\n      0xe6a43905\n      swap4\n        /* \"ZKSYNC/priceChecker.sol\":3286:3326  Factory(factories[i]).getPair(bnb, usdt) */\n      tag_116\n      swap4\n        /* \"ZKSYNC/priceChecker.sol\":3316:3319  bnb */\n      swap1\n      dup3\n      and\n      swap3\n        /* \"ZKSYNC/priceChecker.sol\":3321:3325  usdt */\n      swap2\n      and\n      swap1\n        /* \"ZKSYNC/priceChecker.sol\":3286:3326  Factory(factories[i]).getPair(bnb, usdt) */\n      0x04\n      add\n      tag_58\n      jump\t// in\n    tag_116:\n      0x20\n      mload(0x40)\n      dup1\n      dup4\n      sub\n      dup2\n      dup7\n      gas\n      staticcall\n      iszero\n      dup1\n      iszero\n      tag_118\n      jumpi\n      returndatasize\n      0x00\n      dup1\n      returndatacopy\n      revert(0x00, returndatasize)\n    tag_118:\n      pop\n      pop\n      pop\n      pop\n      mload(0x40)\n      returndatasize\n      not(0x1f)\n      0x1f\n      dup3\n      add\n      and\n      dup3\n      add\n      dup1\n      0x40\n      mstore\n      pop\n      dup2\n      add\n      swap1\n      tag_119\n      swap2\n      swap1\n      tag_61\n      jump\t// in\n    tag_119:\n        /* \"ZKSYNC/priceChecker.sol\":3271:3326  address pair = Factory(factories[i]).getPair(bnb, usdt) */\n      swap1\n      pop\n        /* \"ZKSYNC/priceChecker.sol\":3342:3352  uint256 r0 */\n      0x00\n        /* \"ZKSYNC/priceChecker.sol\":3354:3364  uint256 r1 */\n      dup1\n        /* \"ZKSYNC/priceChecker.sol\":3377:3381  pair */\n      dup3\n      sub(shl(0xa0, 0x01), 0x01)\n        /* \"ZKSYNC/priceChecker.sol\":3369:3394  LPToken(pair).getReserves */\n      and\n      0x0902f1ac\n        /* \"ZKSYNC/priceChecker.sol\":3369:3396  LPToken(pair).getReserves() */\n      mload(0x40)\n      dup2\n      0xffffffff\n      and\n      0xe0\n      shl\n      dup2\n      mstore\n      0x04\n      add\n      0x60\n      mload(0x40)\n      dup1\n      dup4\n      sub\n      dup2\n      dup7\n      gas\n      staticcall\n      iszero\n      dup1\n      iszero\n      tag_121\n      jumpi\n      returndatasize\n      0x00\n      dup1\n      returndatacopy\n      revert(0x00, returndatasize)\n    tag_121:\n      pop\n      pop\n      pop\n      pop\n      mload(0x40)\n      returndatasize\n      not(0x1f)\n      0x1f\n      dup3\n      add\n      and\n      dup3\n      add\n      dup1\n      0x40\n      mstore\n      pop\n      dup2\n      add\n      swap1\n      tag_122\n      swap2\n      swap1\n      tag_74\n      jump\t// in\n    tag_122:\n        /* \"ZKSYNC/priceChecker.sol\":3341:3396  (uint256 r0, uint256 r1,) = LPToken(pair).getReserves() */\n      pop\n      sub(shl(0x70, 0x01), 0x01)\n      and\n      swap2\n      pop\n      sub(shl(0x70, 0x01), 0x01)\n      and\n      swap2\n      pop\n        /* \"ZKSYNC/priceChecker.sol\":3411:3425  address token0 */\n      0x00\n        /* \"ZKSYNC/priceChecker.sol\":3436:3440  pair */\n      dup4\n      sub(shl(0xa0, 0x01), 0x01)\n        /* \"ZKSYNC/priceChecker.sol\":3428:3448  LPToken(pair).token0 */\n      and\n      0x0dfe1681\n        /* \"ZKSYNC/priceChecker.sol\":3428:3450  LPToken(pair).token0() */\n      mload(0x40)\n      dup2\n      0xffffffff\n      and\n      0xe0\n      shl\n      dup2\n      mstore\n      0x04\n      add\n      0x20\n      mload(0x40)\n      dup1\n      dup4\n      sub\n      dup2\n      dup7\n      gas\n      staticcall\n      iszero\n      dup1\n      iszero\n      tag_124\n      jumpi\n      returndatasize\n      0x00\n      dup1\n      returndatacopy\n      revert(0x00, returndatasize)\n    tag_124:\n      pop\n      pop\n      pop\n      pop\n      mload(0x40)\n      returndatasize\n      not(0x1f)\n      0x1f\n      dup3\n      add\n      and\n      dup3\n      add\n      dup1\n      0x40\n      mstore\n      pop\n      dup2\n      add\n      swap1\n      tag_125\n      swap2\n      swap1\n      tag_61\n      jump\t// in\n    tag_125:\n        /* \"ZKSYNC/priceChecker.sol\":3411:3450  address token0 = LPToken(pair).token0() */\n      swap1\n      pop\n        /* \"ZKSYNC/priceChecker.sol\":3483:3490  r0 != 0 */\n      dup3\n      iszero\n      dup1\n      iszero\n      swap1\n        /* \"ZKSYNC/priceChecker.sol\":3483:3501  r0 != 0 && r1 != 0 */\n      tag_126\n      jumpi\n      pop\n        /* \"ZKSYNC/priceChecker.sol\":3494:3501  r1 != 0 */\n      dup2\n      iszero\n      iszero\n        /* \"ZKSYNC/priceChecker.sol\":3483:3501  r0 != 0 && r1 != 0 */\n    tag_126:\n        /* \"ZKSYNC/priceChecker.sol\":3479:3911  if (r0 != 0 && r1 != 0) {... */\n      iszero\n      tag_138\n      jumpi\n        /* \"ZKSYNC/priceChecker.sol\":3536:3539  bnb */\n      sload(0x01)\n      sub(shl(0xa0, 0x01), 0x01)\n      swap1\n      dup2\n      and\n        /* \"ZKSYNC/priceChecker.sol\":3526:3539  token0 == bnb */\n      swap1\n      dup3\n      and\n      sub\n        /* \"ZKSYNC/priceChecker.sol\":3522:3747  if (token0 == bnb) {... */\n      tag_128\n      jumpi\n        /* \"ZKSYNC/priceChecker.sol\":3619:3621  r0 */\n      dup3\n        /* \"ZKSYNC/priceChecker.sol\":3608:3615  usPrice */\n      dup7\n        /* \"ZKSYNC/priceChecker.sol\":3583:3604  usdtDecimalConversion */\n      sload(0x03)\n        /* \"ZKSYNC/priceChecker.sol\":3579:3581  10 */\n      0x0a\n        /* \"ZKSYNC/priceChecker.sol\":3579:3604  10**usdtDecimalConversion */\n      tag_129\n      swap2\n      swap1\n      tag_82\n      jump\t// in\n    tag_129:\n        /* \"ZKSYNC/priceChecker.sol\":3574:3604  r1 * 10**usdtDecimalConversion */\n      tag_130\n      swap1\n        /* \"ZKSYNC/priceChecker.sol\":3574:3576  r1 */\n      dup6\n        /* \"ZKSYNC/priceChecker.sol\":3574:3604  r1 * 10**usdtDecimalConversion */\n      tag_84\n      jump\t// in\n    tag_130:\n        /* \"ZKSYNC/priceChecker.sol\":3573:3615  (r1 * 10**usdtDecimalConversion) * usPrice */\n      tag_131\n      swap2\n      swap1\n      tag_84\n      jump\t// in\n    tag_131:\n        /* \"ZKSYNC/priceChecker.sol\":3572:3621  ((r1 * 10**usdtDecimalConversion) * usPrice) / r0 */\n      tag_132\n      swap2\n      swap1\n      tag_87\n      jump\t// in\n    tag_132:\n        /* \"ZKSYNC/priceChecker.sol\":3564:3621  price = ((r1 * 10**usdtDecimalConversion) * usPrice) / r0 */\n      swap7\n      pop\n        /* \"ZKSYNC/priceChecker.sol\":3522:3747  if (token0 == bnb) {... */\n      jump(tag_133)\n    tag_128:\n        /* \"ZKSYNC/priceChecker.sol\":3725:3727  r1 */\n      dup2\n        /* \"ZKSYNC/priceChecker.sol\":3714:3721  usPrice */\n      dup7\n        /* \"ZKSYNC/priceChecker.sol\":3689:3710  usdtDecimalConversion */\n      sload(0x03)\n        /* \"ZKSYNC/priceChecker.sol\":3685:3687  10 */\n      0x0a\n        /* \"ZKSYNC/priceChecker.sol\":3685:3710  10**usdtDecimalConversion */\n      tag_134\n      swap2\n      swap1\n      tag_82\n      jump\t// in\n    tag_134:\n        /* \"ZKSYNC/priceChecker.sol\":3680:3710  r0 * 10**usdtDecimalConversion */\n      tag_135\n      swap1\n        /* \"ZKSYNC/priceChecker.sol\":3680:3682  r0 */\n      dup7\n        /* \"ZKSYNC/priceChecker.sol\":3680:3710  r0 * 10**usdtDecimalConversion */\n      tag_84\n      jump\t// in\n    tag_135:\n        /* \"ZKSYNC/priceChecker.sol\":3679:3721  (r0 * 10**usdtDecimalConversion) * usPrice */\n      tag_136\n      swap2\n      swap1\n      tag_84\n      jump\t// in\n    tag_136:\n        /* \"ZKSYNC/priceChecker.sol\":3678:3727  ((r0 * 10**usdtDecimalConversion) * usPrice) / r1 */\n      tag_137\n      swap2\n      swap1\n      tag_87\n      jump\t// in\n    tag_137:\n        /* \"ZKSYNC/priceChecker.sol\":3670:3727  price = ((r0 * 10**usdtDecimalConversion) * usPrice) / r1 */\n      swap7\n      pop\n        /* \"ZKSYNC/priceChecker.sol\":3522:3747  if (token0 == bnb) {... */\n    tag_133:\n        /* \"ZKSYNC/priceChecker.sol\":3830:3839  price > 0 */\n      dup7\n      iszero\n        /* \"ZKSYNC/priceChecker.sol\":3826:3896  if (price > 0) {... */\n      tag_138\n      jumpi\n        /* \"ZKSYNC/priceChecker.sol\":3864:3876  return price */\n      pop\n      pop\n      pop\n      pop\n      pop\n      pop\n        /* \"ZKSYNC/priceChecker.sol\":2009:4063  function getBNBPrice(address startFactory) public view returns (uint256 price) {... */\n      swap2\n      swap1\n      pop\n      jump\t// out\n        /* \"ZKSYNC/priceChecker.sol\":3826:3896  if (price > 0) {... */\n    tag_138:\n        /* \"ZKSYNC/priceChecker.sol\":3256:3922  {... */\n      pop\n      pop\n      pop\n      pop\n        /* \"ZKSYNC/priceChecker.sol\":3211:3991  try Factory(factories[i]).getPair(bnb, usdt) {... */\n    tag_112:\n        /* \"ZKSYNC/priceChecker.sol\":3112:3115  i++ */\n      dup1\n      tag_139\n      dup2\n      tag_140\n      jump\t// in\n    tag_139:\n      swap2\n      pop\n      pop\n        /* \"ZKSYNC/priceChecker.sol\":3070:3998  for (uint256 i = 0; i < factories.length; i++) {... */\n      jump(tag_94)\n    tag_95:\n      pop\n        /* \"ZKSYNC/priceChecker.sol\":4058:4059  0 */\n      0x00\n      swap4\n        /* \"ZKSYNC/priceChecker.sol\":2009:4063  function getBNBPrice(address startFactory) public view returns (uint256 price) {... */\n      swap3\n      pop\n      pop\n      pop\n      jump\t// out\n        /* \"ZKSYNC/priceChecker.sol\":4104:5645  function TokenPrice( address token, address factory) public view returns (uint256 num, uint256 den, uint256 usd) {... */\n    tag_29:\n        /* \"ZKSYNC/priceChecker.sol\":4178:4189  uint256 num */\n      0x00\n        /* \"ZKSYNC/priceChecker.sol\":4253:4258  zeroA */\n      dup1\n      sload\n        /* \"ZKSYNC/priceChecker.sol\":4178:4189  uint256 num */\n      dup2\n      swap1\n      dup2\n      swap1\n      sub(shl(0xa0, 0x01), 0x01)\n        /* \"ZKSYNC/priceChecker.sol\":4253:4258  zeroA */\n      and\n        /* \"ZKSYNC/priceChecker.sol\":4178:4189  uint256 num */\n      dup2\n        /* \"ZKSYNC/priceChecker.sol\":4287:4307  getBNBPrice(factory) */\n      tag_142\n        /* \"ZKSYNC/priceChecker.sol\":4299:4306  factory */\n      dup7\n        /* \"ZKSYNC/priceChecker.sol\":4287:4298  getBNBPrice */\n      tag_23\n        /* \"ZKSYNC/priceChecker.sol\":4287:4307  getBNBPrice(factory) */\n      jump\t// in\n    tag_142:\n        /* \"ZKSYNC/priceChecker.sol\":4354:4357  bnb */\n      sload(0x01)\n        /* \"ZKSYNC/priceChecker.sol\":4322:4358  Factory(factory).getPair(token, bnb) */\n      mload(0x40)\n      shl(0xe0, 0xe6a43905)\n      dup2\n      mstore\n        /* \"ZKSYNC/priceChecker.sol\":4269:4307  uint256 usPrice = getBNBPrice(factory) */\n      swap2\n      swap3\n      pop\n      sub(shl(0xa0, 0x01), 0x01)\n        /* \"ZKSYNC/priceChecker.sol\":4322:4346  Factory(factory).getPair */\n      dup1\n      dup10\n      and\n      swap3\n      0xe6a43905\n      swap3\n        /* \"ZKSYNC/priceChecker.sol\":4322:4358  Factory(factory).getPair(token, bnb) */\n      tag_143\n      swap3\n        /* \"ZKSYNC/priceChecker.sol\":4347:4352  token */\n      dup13\n      swap3\n        /* \"ZKSYNC/priceChecker.sol\":4354:4357  bnb */\n      swap2\n      and\n      swap1\n        /* \"ZKSYNC/priceChecker.sol\":4322:4358  Factory(factory).getPair(token, bnb) */\n      0x04\n      add\n      tag_58\n      jump\t// in\n    tag_143:\n      0x20\n      mload(0x40)\n      dup1\n      dup4\n      sub\n      dup2\n      dup7\n      gas\n      staticcall\n      swap3\n      pop\n      pop\n      pop\n      dup1\n      iszero\n      tag_144\n      jumpi\n      pop\n      0x40\n      dup1\n      mload\n      0x1f\n      returndatasize\n      swap1\n      dup2\n      add\n      not(0x1f)\n      and\n      dup3\n      add\n      swap1\n      swap3\n      mstore\n      tag_145\n      swap2\n      dup2\n      add\n      swap1\n      tag_61\n      jump\t// in\n    tag_145:\n      0x01\n    tag_144:\n        /* \"ZKSYNC/priceChecker.sol\":4318:4604  try Factory(factory).getPair(token, bnb){... */\n      iszero\n      tag_160\n      jumpi\n      pop\n        /* \"ZKSYNC/priceChecker.sol\":4412:4415  bnb */\n      sload(0x01)\n        /* \"ZKSYNC/priceChecker.sol\":4380:4416  Factory(factory).getPair(token, bnb) */\n      mload(0x40)\n      shl(0xe0, 0xe6a43905)\n      dup2\n      mstore\n      sub(shl(0xa0, 0x01), 0x01)\n        /* \"ZKSYNC/priceChecker.sol\":4380:4404  Factory(factory).getPair */\n      dup1\n      dup10\n      and\n      swap3\n      0xe6a43905\n      swap3\n        /* \"ZKSYNC/priceChecker.sol\":4380:4416  Factory(factory).getPair(token, bnb) */\n      tag_151\n      swap3\n        /* \"ZKSYNC/priceChecker.sol\":4405:4410  token */\n      dup13\n      swap3\n        /* \"ZKSYNC/priceChecker.sol\":4412:4415  bnb */\n      and\n      swap1\n        /* \"ZKSYNC/priceChecker.sol\":4380:4416  Factory(factory).getPair(token, bnb) */\n      0x04\n      add\n      tag_58\n      jump\t// in\n    tag_151:\n      0x20\n      mload(0x40)\n      dup1\n      dup4\n      sub\n      dup2\n      dup7\n      gas\n      staticcall\n      iszero\n      dup1\n      iszero\n      tag_153\n      jumpi\n      returndatasize\n      0x00\n      dup1\n      returndatacopy\n      revert(0x00, returndatasize)\n    tag_153:\n      pop\n      pop\n      pop\n      pop\n      mload(0x40)\n      returndatasize\n      not(0x1f)\n      0x1f\n      dup3\n      add\n      and\n      dup3\n      add\n      dup1\n      0x40\n      mstore\n      pop\n      dup2\n      add\n      swap1\n      tag_154\n      swap2\n      swap1\n      tag_61\n      jump\t// in\n    tag_154:\n        /* \"ZKSYNC/priceChecker.sol\":4446:4451  zeroA */\n      sload(0x00)\n        /* \"ZKSYNC/priceChecker.sol\":4373:4416  pair = Factory(factory).getPair(token, bnb) */\n      swap1\n      swap3\n      pop\n      sub(shl(0xa0, 0x01), 0x01)\n        /* \"ZKSYNC/priceChecker.sol\":4446:4451  zeroA */\n      swap1\n      dup2\n      and\n        /* \"ZKSYNC/priceChecker.sol\":4438:4451  pair == zeroA */\n      swap1\n      dup4\n      and\n      sub\n        /* \"ZKSYNC/priceChecker.sol\":4435:4585  if(pair == zeroA) {... */\n      tag_160\n      jumpi\n        /* \"ZKSYNC/priceChecker.sol\":4507:4511  usdt */\n      sload(0x02)\n        /* \"ZKSYNC/priceChecker.sol\":4475:4512  Factory(factory).getPair(token, usdt) */\n      mload(0x40)\n      shl(0xe0, 0xe6a43905)\n      dup2\n      mstore\n      sub(shl(0xa0, 0x01), 0x01)\n        /* \"ZKSYNC/priceChecker.sol\":4475:4499  Factory(factory).getPair */\n      dup1\n      dup10\n      and\n      swap3\n      0xe6a43905\n      swap3\n        /* \"ZKSYNC/priceChecker.sol\":4475:4512  Factory(factory).getPair(token, usdt) */\n      tag_156\n      swap3\n        /* \"ZKSYNC/priceChecker.sol\":4500:4505  token */\n      dup13\n      swap3\n        /* \"ZKSYNC/priceChecker.sol\":4507:4511  usdt */\n      and\n      swap1\n        /* \"ZKSYNC/priceChecker.sol\":4475:4512  Factory(factory).getPair(token, usdt) */\n      0x04\n      add\n      tag_58\n      jump\t// in\n    tag_156:\n      0x20\n      mload(0x40)\n      dup1\n      dup4\n      sub\n      dup2\n      dup7\n      gas\n      staticcall\n      iszero\n      dup1\n      iszero\n      tag_158\n      jumpi\n      returndatasize\n      0x00\n      dup1\n      returndatacopy\n      revert(0x00, returndatasize)\n    tag_158:\n      pop\n      pop\n      pop\n      pop\n      mload(0x40)\n      returndatasize\n      not(0x1f)\n      0x1f\n      dup3\n      add\n      and\n      dup3\n      add\n      dup1\n      0x40\n      mstore\n      pop\n      dup2\n      add\n      swap1\n      tag_159\n      swap2\n      swap1\n      tag_61\n      jump\t// in\n    tag_159:\n        /* \"ZKSYNC/priceChecker.sol\":4538:4543  zeroA */\n      sload(0x00)\n        /* \"ZKSYNC/priceChecker.sol\":4468:4512  pair = Factory(factory).getPair(token, usdt) */\n      swap1\n      swap3\n      pop\n      sub(shl(0xa0, 0x01), 0x01)\n        /* \"ZKSYNC/priceChecker.sol\":4530:4543  pair != zeroA */\n      dup1\n      dup5\n      and\n        /* \"ZKSYNC/priceChecker.sol\":4538:4543  zeroA */\n      swap2\n      and\n        /* \"ZKSYNC/priceChecker.sol\":4530:4543  pair != zeroA */\n      eq\n        /* \"ZKSYNC/priceChecker.sol\":4527:4574  if(pair != zeroA) usPrice = 1000000000000000000 */\n      tag_160\n      jumpi\n      pop\n        /* \"ZKSYNC/priceChecker.sol\":4555:4574  1000000000000000000 */\n      0x0de0b6b3a7640000\n        /* \"ZKSYNC/priceChecker.sol\":4527:4574  if(pair != zeroA) usPrice = 1000000000000000000 */\n    tag_160:\n        /* \"ZKSYNC/priceChecker.sol\":4619:4624  zeroA */\n      sload(0x00)\n      sub(shl(0xa0, 0x01), 0x01)\n      swap1\n      dup2\n      and\n        /* \"ZKSYNC/priceChecker.sol\":4611:4624  pair == zeroA */\n      swap1\n      dup4\n      and\n      sub\n        /* \"ZKSYNC/priceChecker.sol\":4608:5023  if(pair == zeroA) {... */\n      tag_161\n      jumpi\n        /* \"ZKSYNC/priceChecker.sol\":4637:4643  uint i */\n      0x00\n        /* \"ZKSYNC/priceChecker.sol\":4633:5020  for(uint i=0; i<factories.length; i++){... */\n    tag_162:\n        /* \"ZKSYNC/priceChecker.sol\":4649:4658  factories */\n      0x05\n        /* \"ZKSYNC/priceChecker.sol\":4649:4665  factories.length */\n      sload\n        /* \"ZKSYNC/priceChecker.sol\":4647:4665  i<factories.length */\n      dup2\n      lt\n        /* \"ZKSYNC/priceChecker.sol\":4633:5020  for(uint i=0; i<factories.length; i++){... */\n      iszero\n      tag_163\n      jumpi\n        /* \"ZKSYNC/priceChecker.sol\":4694:4703  factories */\n      0x05\n        /* \"ZKSYNC/priceChecker.sol\":4704:4705  i */\n      dup2\n        /* \"ZKSYNC/priceChecker.sol\":4694:4706  factories[i] */\n      dup2\n      sload\n      dup2\n      lt\n      tag_166\n      jumpi\n      tag_166\n      tag_99\n      jump\t// in\n    tag_166:\n      0x00\n      swap2\n      dup3\n      mstore\n      0x20\n      swap1\n      swap2\n      keccak256\n      add\n      sload\n      0x01\n        /* \"ZKSYNC/priceChecker.sol\":4723:4726  bnb */\n      sload\n        /* \"ZKSYNC/priceChecker.sol\":4686:4727  Factory(factories[i]).getPair(token, bnb) */\n      mload(0x40)\n      shl(0xe0, 0xe6a43905)\n      dup2\n      mstore\n      sub(shl(0xa0, 0x01), 0x01)\n        /* \"ZKSYNC/priceChecker.sol\":4694:4706  factories[i] */\n      swap3\n      dup4\n      and\n      swap3\n        /* \"ZKSYNC/priceChecker.sol\":4686:4715  Factory(factories[i]).getPair */\n      0xe6a43905\n      swap3\n        /* \"ZKSYNC/priceChecker.sol\":4686:4727  Factory(factories[i]).getPair(token, bnb) */\n      tag_168\n      swap3\n        /* \"ZKSYNC/priceChecker.sol\":4716:4721  token */\n      dup14\n      swap3\n        /* \"ZKSYNC/priceChecker.sol\":4723:4726  bnb */\n      swap1\n      swap2\n      and\n      swap1\n        /* \"ZKSYNC/priceChecker.sol\":4686:4727  Factory(factories[i]).getPair(token, bnb) */\n      0x04\n      add\n      tag_58\n      jump\t// in\n    tag_168:\n      0x20\n      mload(0x40)\n      dup1\n      dup4\n      sub\n      dup2\n      dup7\n      gas\n      staticcall\n      swap3\n      pop\n      pop\n      pop\n      dup1\n      iszero\n      tag_169\n      jumpi\n      pop\n      0x40\n      dup1\n      mload\n      0x1f\n      returndatasize\n      swap1\n      dup2\n      add\n      not(0x1f)\n      and\n      dup3\n      add\n      swap1\n      swap3\n      mstore\n      tag_170\n      swap2\n      dup2\n      add\n      swap1\n      tag_61\n      jump\t// in\n    tag_170:\n      0x01\n    tag_169:\n        /* \"ZKSYNC/priceChecker.sol\":4682:5013  try Factory(factories[i]).getPair(token, bnb) {... */\n      iszero\n      tag_192\n      jumpi\n      pop\n        /* \"ZKSYNC/priceChecker.sol\":4754:4763  factories */\n      0x05\n        /* \"ZKSYNC/priceChecker.sol\":4764:4765  i */\n      dup2\n        /* \"ZKSYNC/priceChecker.sol\":4754:4766  factories[i] */\n      dup2\n      sload\n      dup2\n      lt\n      tag_177\n      jumpi\n      tag_177\n      tag_99\n      jump\t// in\n    tag_177:\n      0x00\n      swap2\n      dup3\n      mstore\n      0x20\n      swap1\n      swap2\n      keccak256\n      add\n      sload\n      0x01\n        /* \"ZKSYNC/priceChecker.sol\":4783:4786  bnb */\n      sload\n        /* \"ZKSYNC/priceChecker.sol\":4746:4787  Factory(factories[i]).getPair(token, bnb) */\n      mload(0x40)\n      shl(0xe0, 0xe6a43905)\n      dup2\n      mstore\n      sub(shl(0xa0, 0x01), 0x01)\n        /* \"ZKSYNC/priceChecker.sol\":4754:4766  factories[i] */\n      swap3\n      dup4\n      and\n      swap3\n        /* \"ZKSYNC/priceChecker.sol\":4746:4775  Factory(factories[i]).getPair */\n      0xe6a43905\n      swap3\n        /* \"ZKSYNC/priceChecker.sol\":4746:4787  Factory(factories[i]).getPair(token, bnb) */\n      tag_179\n      swap3\n        /* \"ZKSYNC/priceChecker.sol\":4776:4781  token */\n      dup14\n      swap3\n        /* \"ZKSYNC/priceChecker.sol\":4783:4786  bnb */\n      swap1\n      swap2\n      and\n      swap1\n        /* \"ZKSYNC/priceChecker.sol\":4746:4787  Factory(factories[i]).getPair(token, bnb) */\n      0x04\n      add\n      tag_58\n      jump\t// in\n    tag_179:\n      0x20\n      mload(0x40)\n      dup1\n      dup4\n      sub\n      dup2\n      dup7\n      gas\n      staticcall\n      iszero\n      dup1\n      iszero\n      tag_181\n      jumpi\n      returndatasize\n      0x00\n      dup1\n      returndatacopy\n      revert(0x00, returndatasize)\n    tag_181:\n      pop\n      pop\n      pop\n      pop\n      mload(0x40)\n      returndatasize\n      not(0x1f)\n      0x1f\n      dup3\n      add\n      and\n      dup3\n      add\n      dup1\n      0x40\n      mstore\n      pop\n      dup2\n      add\n      swap1\n      tag_182\n      swap2\n      swap1\n      tag_61\n      jump\t// in\n    tag_182:\n        /* \"ZKSYNC/priceChecker.sol\":4818:4823  zeroA */\n      sload(0x00)\n        /* \"ZKSYNC/priceChecker.sol\":4739:4787  pair = Factory(factories[i]).getPair(token, bnb) */\n      swap1\n      swap4\n      pop\n      sub(shl(0xa0, 0x01), 0x01)\n        /* \"ZKSYNC/priceChecker.sol\":4818:4823  zeroA */\n      swap1\n      dup2\n      and\n        /* \"ZKSYNC/priceChecker.sol\":4810:4823  pair == zeroA */\n      swap1\n      dup5\n      and\n      sub\n        /* \"ZKSYNC/priceChecker.sol\":4807:4962  if(pair == zeroA) {... */\n      tag_191\n      jumpi\n        /* \"ZKSYNC/priceChecker.sol\":4855:4864  factories */\n      0x05\n        /* \"ZKSYNC/priceChecker.sol\":4865:4866  i */\n      dup2\n        /* \"ZKSYNC/priceChecker.sol\":4855:4867  factories[i] */\n      dup2\n      sload\n      dup2\n      lt\n      tag_185\n      jumpi\n      tag_185\n      tag_99\n      jump\t// in\n    tag_185:\n      0x00\n      swap2\n      dup3\n      mstore\n      0x20\n      swap1\n      swap2\n      keccak256\n      add\n      sload\n        /* \"ZKSYNC/priceChecker.sol\":4884:4888  usdt */\n      sload(0x02)\n        /* \"ZKSYNC/priceChecker.sol\":4847:4889  Factory(factories[i]).getPair(token, usdt) */\n      mload(0x40)\n      shl(0xe0, 0xe6a43905)\n      dup2\n      mstore\n      sub(shl(0xa0, 0x01), 0x01)\n        /* \"ZKSYNC/priceChecker.sol\":4855:4867  factories[i] */\n      swap3\n      dup4\n      and\n      swap3\n        /* \"ZKSYNC/priceChecker.sol\":4847:4876  Factory(factories[i]).getPair */\n      0xe6a43905\n      swap3\n        /* \"ZKSYNC/priceChecker.sol\":4847:4889  Factory(factories[i]).getPair(token, usdt) */\n      tag_187\n      swap3\n        /* \"ZKSYNC/priceChecker.sol\":4877:4882  token */\n      dup14\n      swap3\n        /* \"ZKSYNC/priceChecker.sol\":4884:4888  usdt */\n      swap1\n      swap2\n      and\n      swap1\n        /* \"ZKSYNC/priceChecker.sol\":4847:4889  Factory(factories[i]).getPair(token, usdt) */\n      0x04\n      add\n      tag_58\n      jump\t// in\n    tag_187:\n      0x20\n      mload(0x40)\n      dup1\n      dup4\n      sub\n      dup2\n      dup7\n      gas\n      staticcall\n      iszero\n      dup1\n      iszero\n      tag_189\n      jumpi\n      returndatasize\n      0x00\n      dup1\n      returndatacopy\n      revert(0x00, returndatasize)\n    tag_189:\n      pop\n      pop\n      pop\n      pop\n      mload(0x40)\n      returndatasize\n      not(0x1f)\n      0x1f\n      dup3\n      add\n      and\n      dup3\n      add\n      dup1\n      0x40\n      mstore\n      pop\n      dup2\n      add\n      swap1\n      tag_190\n      swap2\n      swap1\n      tag_61\n      jump\t// in\n    tag_190:\n        /* \"ZKSYNC/priceChecker.sol\":4915:4920  zeroA */\n      sload(0x00)\n        /* \"ZKSYNC/priceChecker.sol\":4840:4889  pair = Factory(factories[i]).getPair(token, usdt) */\n      swap1\n      swap4\n      pop\n      sub(shl(0xa0, 0x01), 0x01)\n        /* \"ZKSYNC/priceChecker.sol\":4907:4920  pair != zeroA */\n      dup1\n      dup6\n      and\n        /* \"ZKSYNC/priceChecker.sol\":4915:4920  zeroA */\n      swap2\n      and\n        /* \"ZKSYNC/priceChecker.sol\":4907:4920  pair != zeroA */\n      eq\n        /* \"ZKSYNC/priceChecker.sol\":4904:4951  if(pair != zeroA) usPrice = 1000000000000000000 */\n      tag_191\n      jumpi\n        /* \"ZKSYNC/priceChecker.sol\":4932:4951  1000000000000000000 */\n      0x0de0b6b3a7640000\n        /* \"ZKSYNC/priceChecker.sol\":4922:4951  usPrice = 1000000000000000000 */\n      swap2\n      pop\n        /* \"ZKSYNC/priceChecker.sol\":4904:4951  if(pair != zeroA) usPrice = 1000000000000000000 */\n    tag_191:\n        /* \"ZKSYNC/priceChecker.sol\":4982:4987  zeroA */\n      sload(0x00)\n      sub(shl(0xa0, 0x01), 0x01)\n      swap1\n      dup2\n      and\n        /* \"ZKSYNC/priceChecker.sol\":4974:4987  pair != zeroA */\n      swap1\n      dup5\n      and\n      sub\n        /* \"ZKSYNC/priceChecker.sol\":4989:4994  break */\n      tag_163\n        /* \"ZKSYNC/priceChecker.sol\":4971:4994  if(pair != zeroA) break */\n      jumpi\n    tag_192:\n        /* \"ZKSYNC/priceChecker.sol\":4667:4670  i++ */\n      dup1\n      tag_193\n      dup2\n      tag_140\n      jump\t// in\n    tag_193:\n      swap2\n      pop\n      pop\n        /* \"ZKSYNC/priceChecker.sol\":4633:5020  for(uint i=0; i<factories.length; i++){... */\n      jump(tag_162)\n    tag_163:\n      pop\n        /* \"ZKSYNC/priceChecker.sol\":4608:5023  if(pair == zeroA) {... */\n    tag_161:\n        /* \"ZKSYNC/priceChecker.sol\":5043:5047  pair */\n      dup2\n      sub(shl(0xa0, 0x01), 0x01)\n        /* \"ZKSYNC/priceChecker.sol\":5035:5060  LPToken(pair).getReserves */\n      and\n      0x0902f1ac\n        /* \"ZKSYNC/priceChecker.sol\":5035:5062  LPToken(pair).getReserves() */\n      mload(0x40)\n      dup2\n      0xffffffff\n      and\n      0xe0\n      shl\n      dup2\n      mstore\n      0x04\n      add\n      0x60\n      mload(0x40)\n      dup1\n      dup4\n      sub\n      dup2\n      dup7\n      gas\n      staticcall\n      swap3\n      pop\n      pop\n      pop\n      dup1\n      iszero\n      tag_194\n      jumpi\n      pop\n      0x40\n      dup1\n      mload\n      0x1f\n      returndatasize\n      swap1\n      dup2\n      add\n      not(0x1f)\n      and\n      dup3\n      add\n      swap1\n      swap3\n      mstore\n      tag_195\n      swap2\n      dup2\n      add\n      swap1\n      tag_74\n      jump\t// in\n    tag_195:\n      0x01\n    tag_194:\n        /* \"ZKSYNC/priceChecker.sol\":5031:5636  try LPToken(pair).getReserves() {... */\n      tag_196\n      jumpi\n        /* \"ZKSYNC/priceChecker.sol\":5622:5623  0 */\n      0x00\n        /* \"ZKSYNC/priceChecker.sol\":5624:5625  0 */\n      dup1\n        /* \"ZKSYNC/priceChecker.sol\":5626:5627  0 */\n      0x00\n        /* \"ZKSYNC/priceChecker.sol\":5614:5628  return (0,0,0) */\n      swap5\n      pop\n      swap5\n      pop\n      swap5\n      pop\n      pop\n      pop\n      jump(tag_141)\n        /* \"ZKSYNC/priceChecker.sol\":5031:5636  try LPToken(pair).getReserves() {... */\n    tag_196:\n      pop\n      pop\n      pop\n        /* \"ZKSYNC/priceChecker.sol\":5075:5085  uint256 r0 */\n      0x00\n        /* \"ZKSYNC/priceChecker.sol\":5087:5097  uint256 r1 */\n      dup1\n        /* \"ZKSYNC/priceChecker.sol\":5110:5114  pair */\n      dup4\n      sub(shl(0xa0, 0x01), 0x01)\n        /* \"ZKSYNC/priceChecker.sol\":5102:5127  LPToken(pair).getReserves */\n      and\n      0x0902f1ac\n        /* \"ZKSYNC/priceChecker.sol\":5102:5129  LPToken(pair).getReserves() */\n      mload(0x40)\n      dup2\n      0xffffffff\n      and\n      0xe0\n      shl\n      dup2\n      mstore\n      0x04\n      add\n      0x60\n      mload(0x40)\n      dup1\n      dup4\n      sub\n      dup2\n      dup7\n      gas\n      staticcall\n      iszero\n      dup1\n      iszero\n      tag_202\n      jumpi\n      returndatasize\n      0x00\n      dup1\n      returndatacopy\n      revert(0x00, returndatasize)\n    tag_202:\n      pop\n      pop\n      pop\n      pop\n      mload(0x40)\n      returndatasize\n      not(0x1f)\n      0x1f\n      dup3\n      add\n      and\n      dup3\n      add\n      dup1\n      0x40\n      mstore\n      pop\n      dup2\n      add\n      swap1\n      tag_203\n      swap2\n      swap1\n      tag_74\n      jump\t// in\n    tag_203:\n        /* \"ZKSYNC/priceChecker.sol\":5074:5129  (uint256 r0, uint256 r1,) = LPToken(pair).getReserves() */\n      pop\n      sub(shl(0x70, 0x01), 0x01)\n      and\n      swap2\n      pop\n      sub(shl(0x70, 0x01), 0x01)\n      and\n      swap2\n      pop\n        /* \"ZKSYNC/priceChecker.sol\":5140:5154  address token0 */\n      0x00\n        /* \"ZKSYNC/priceChecker.sol\":5165:5169  pair */\n      dup5\n      sub(shl(0xa0, 0x01), 0x01)\n        /* \"ZKSYNC/priceChecker.sol\":5157:5177  LPToken(pair).token0 */\n      and\n      0x0dfe1681\n        /* \"ZKSYNC/priceChecker.sol\":5157:5179  LPToken(pair).token0() */\n      mload(0x40)\n      dup2\n      0xffffffff\n      and\n      0xe0\n      shl\n      dup2\n      mstore\n      0x04\n      add\n      0x20\n      mload(0x40)\n      dup1\n      dup4\n      sub\n      dup2\n      dup7\n      gas\n      staticcall\n      iszero\n      dup1\n      iszero\n      tag_205\n      jumpi\n      returndatasize\n      0x00\n      dup1\n      returndatacopy\n      revert(0x00, returndatasize)\n    tag_205:\n      pop\n      pop\n      pop\n      pop\n      mload(0x40)\n      returndatasize\n      not(0x1f)\n      0x1f\n      dup3\n      add\n      and\n      dup3\n      add\n      dup1\n      0x40\n      mstore\n      pop\n      dup2\n      add\n      swap1\n      tag_206\n      swap2\n      swap1\n      tag_61\n      jump\t// in\n    tag_206:\n        /* \"ZKSYNC/priceChecker.sol\":5140:5179  address token0 = LPToken(pair).token0() */\n      swap1\n      pop\n        /* \"ZKSYNC/priceChecker.sol\":5190:5204  address token1 */\n      0x00\n        /* \"ZKSYNC/priceChecker.sol\":5215:5219  pair */\n      dup6\n      sub(shl(0xa0, 0x01), 0x01)\n        /* \"ZKSYNC/priceChecker.sol\":5207:5227  LPToken(pair).token1 */\n      and\n      0xd21220a7\n        /* \"ZKSYNC/priceChecker.sol\":5207:5229  LPToken(pair).token1() */\n      mload(0x40)\n      dup2\n      0xffffffff\n      and\n      0xe0\n      shl\n      dup2\n      mstore\n      0x04\n      add\n      0x20\n      mload(0x40)\n      dup1\n      dup4\n      sub\n      dup2\n      dup7\n      gas\n      staticcall\n      iszero\n      dup1\n      iszero\n      tag_208\n      jumpi\n      returndatasize\n      0x00\n      dup1\n      returndatacopy\n      revert(0x00, returndatasize)\n    tag_208:\n      pop\n      pop\n      pop\n      pop\n      mload(0x40)\n      returndatasize\n      not(0x1f)\n      0x1f\n      dup3\n      add\n      and\n      dup3\n      add\n      dup1\n      0x40\n      mstore\n      pop\n      dup2\n      add\n      swap1\n      tag_209\n      swap2\n      swap1\n      tag_61\n      jump\t// in\n    tag_209:\n        /* \"ZKSYNC/priceChecker.sol\":5190:5229  address token1 = LPToken(pair).token1() */\n      swap1\n      pop\n        /* \"ZKSYNC/priceChecker.sol\":5263:5268  token */\n      dup11\n      sub(shl(0xa0, 0x01), 0x01)\n        /* \"ZKSYNC/priceChecker.sol\":5253:5268  token0 == token */\n      and\n        /* \"ZKSYNC/priceChecker.sol\":5253:5259  token0 */\n      dup3\n      sub(shl(0xa0, 0x01), 0x01)\n        /* \"ZKSYNC/priceChecker.sol\":5253:5268  token0 == token */\n      and\n      sub\n        /* \"ZKSYNC/priceChecker.sol\":5250:5557  if(token0 == token) {... */\n      tag_210\n      jumpi\n        /* \"ZKSYNC/priceChecker.sol\":5301:5305  usdt */\n      sload(0x02)\n      sub(shl(0xa0, 0x01), 0x01)\n        /* \"ZKSYNC/priceChecker.sol\":5291:5305  token1 == usdt */\n      dup3\n      dup2\n      and\n        /* \"ZKSYNC/priceChecker.sol\":5301:5305  usdt */\n      swap2\n      and\n        /* \"ZKSYNC/priceChecker.sol\":5291:5305  token1 == usdt */\n      eq\n        /* \"ZKSYNC/priceChecker.sol\":5291:5341  token1 == usdt ? r1*10**usdtDecimalConversion : r1 */\n      tag_211\n      jumpi\n        /* \"ZKSYNC/priceChecker.sol\":5339:5341  r1 */\n      dup3\n        /* \"ZKSYNC/priceChecker.sol\":5291:5341  token1 == usdt ? r1*10**usdtDecimalConversion : r1 */\n      jump(tag_214)\n    tag_211:\n        /* \"ZKSYNC/priceChecker.sol\":5315:5336  usdtDecimalConversion */\n      sload(0x03)\n        /* \"ZKSYNC/priceChecker.sol\":5311:5336  10**usdtDecimalConversion */\n      tag_213\n      swap1\n        /* \"ZKSYNC/priceChecker.sol\":5311:5313  10 */\n      0x0a\n        /* \"ZKSYNC/priceChecker.sol\":5311:5336  10**usdtDecimalConversion */\n      tag_82\n      jump\t// in\n    tag_213:\n        /* \"ZKSYNC/priceChecker.sol\":5308:5336  r1*10**usdtDecimalConversion */\n      tag_214\n      swap1\n        /* \"ZKSYNC/priceChecker.sol\":5308:5310  r1 */\n      dup5\n        /* \"ZKSYNC/priceChecker.sol\":5308:5336  r1*10**usdtDecimalConversion */\n      tag_84\n      jump\t// in\n    tag_214:\n        /* \"ZKSYNC/priceChecker.sol\":5285:5341  num = token1 == usdt ? r1*10**usdtDecimalConversion : r1 */\n      swap9\n      pop\n        /* \"ZKSYNC/priceChecker.sol\":5362:5364  r0 */\n      dup4\n        /* \"ZKSYNC/priceChecker.sol\":5356:5364  den = r0 */\n      swap8\n      pop\n        /* \"ZKSYNC/priceChecker.sol\":5385:5392  usPrice */\n      dup5\n        /* \"ZKSYNC/priceChecker.sol\":5379:5392  usd = usPrice */\n      swap7\n      pop\n        /* \"ZKSYNC/priceChecker.sol\":5250:5557  if(token0 == token) {... */\n      jump(tag_215)\n    tag_210:\n        /* \"ZKSYNC/priceChecker.sol\":5441:5445  usdt */\n      sload(0x02)\n      sub(shl(0xa0, 0x01), 0x01)\n        /* \"ZKSYNC/priceChecker.sol\":5431:5445  token0 == usdt */\n      dup4\n      dup2\n      and\n        /* \"ZKSYNC/priceChecker.sol\":5441:5445  usdt */\n      swap2\n      and\n        /* \"ZKSYNC/priceChecker.sol\":5431:5445  token0 == usdt */\n      eq\n        /* \"ZKSYNC/priceChecker.sol\":5431:5481  token0 == usdt ? r0*10**usdtDecimalConversion : r0 */\n      tag_216\n      jumpi\n        /* \"ZKSYNC/priceChecker.sol\":5479:5481  r0 */\n      dup4\n        /* \"ZKSYNC/priceChecker.sol\":5431:5481  token0 == usdt ? r0*10**usdtDecimalConversion : r0 */\n      jump(tag_219)\n    tag_216:\n        /* \"ZKSYNC/priceChecker.sol\":5455:5476  usdtDecimalConversion */\n      sload(0x03)\n        /* \"ZKSYNC/priceChecker.sol\":5451:5476  10**usdtDecimalConversion */\n      tag_218\n      swap1\n        /* \"ZKSYNC/priceChecker.sol\":5451:5453  10 */\n      0x0a\n        /* \"ZKSYNC/priceChecker.sol\":5451:5476  10**usdtDecimalConversion */\n      tag_82\n      jump\t// in\n    tag_218:\n        /* \"ZKSYNC/priceChecker.sol\":5448:5476  r0*10**usdtDecimalConversion */\n      tag_219\n      swap1\n        /* \"ZKSYNC/priceChecker.sol\":5448:5450  r0 */\n      dup6\n        /* \"ZKSYNC/priceChecker.sol\":5448:5476  r0*10**usdtDecimalConversion */\n      tag_84\n      jump\t// in\n    tag_219:\n        /* \"ZKSYNC/priceChecker.sol\":5425:5481  num = token0 == usdt ? r0*10**usdtDecimalConversion : r0 */\n      swap9\n      pop\n        /* \"ZKSYNC/priceChecker.sol\":5502:5504  r1 */\n      dup3\n        /* \"ZKSYNC/priceChecker.sol\":5496:5504  den = r1 */\n      swap8\n      pop\n        /* \"ZKSYNC/priceChecker.sol\":5525:5532  usPrice */\n      dup5\n        /* \"ZKSYNC/priceChecker.sol\":5519:5532  usd = usPrice */\n      swap7\n      pop\n        /* \"ZKSYNC/priceChecker.sol\":5250:5557  if(token0 == token) {... */\n    tag_215:\n        /* \"ZKSYNC/priceChecker.sol\":5567:5590  return ( num, den, usd) */\n      pop\n      pop\n      pop\n      pop\n      pop\n      pop\n        /* \"ZKSYNC/priceChecker.sol\":4104:5645  function TokenPrice( address token, address factory) public view returns (uint256 num, uint256 den, uint256 usd) {... */\n    tag_141:\n      swap3\n      pop\n      swap3\n      pop\n      swap3\n      jump\t// out\n        /* \"#utility.yul\":14:145   */\n    tag_220:\n      sub(shl(0xa0, 0x01), 0x01)\n        /* \"#utility.yul\":89:120   */\n      dup2\n      and\n        /* \"#utility.yul\":79:121   */\n      dup2\n      eq\n        /* \"#utility.yul\":69:139   */\n      tag_42\n      jumpi\n        /* \"#utility.yul\":135:136   */\n      0x00\n        /* \"#utility.yul\":132:133   */\n      dup1\n        /* \"#utility.yul\":125:137   */\n      revert\n        /* \"#utility.yul\":150:397   */\n    tag_10:\n        /* \"#utility.yul\":209:215   */\n      0x00\n        /* \"#utility.yul\":262:264   */\n      0x20\n        /* \"#utility.yul\":250:259   */\n      dup3\n        /* \"#utility.yul\":241:248   */\n      dup5\n        /* \"#utility.yul\":237:260   */\n      sub\n        /* \"#utility.yul\":233:265   */\n      slt\n        /* \"#utility.yul\":230:282   */\n      iszero\n      tag_229\n      jumpi\n        /* \"#utility.yul\":278:279   */\n      0x00\n        /* \"#utility.yul\":275:276   */\n      dup1\n        /* \"#utility.yul\":268:280   */\n      revert\n        /* \"#utility.yul\":230:282   */\n    tag_229:\n        /* \"#utility.yul\":317:326   */\n      dup2\n        /* \"#utility.yul\":304:327   */\n      calldataload\n        /* \"#utility.yul\":336:367   */\n      tag_230\n        /* \"#utility.yul\":361:366   */\n      dup2\n        /* \"#utility.yul\":336:367   */\n      tag_220\n      jump\t// in\n    tag_230:\n        /* \"#utility.yul\":386:391   */\n      swap4\n        /* \"#utility.yul\":150:397   */\n      swap3\n      pop\n      pop\n      pop\n      jump\t// out\n        /* \"#utility.yul\":402:582   */\n    tag_17:\n        /* \"#utility.yul\":461:467   */\n      0x00\n        /* \"#utility.yul\":514:516   */\n      0x20\n        /* \"#utility.yul\":502:511   */\n      dup3\n        /* \"#utility.yul\":493:500   */\n      dup5\n        /* \"#utility.yul\":489:512   */\n      sub\n        /* \"#utility.yul\":485:517   */\n      slt\n        /* \"#utility.yul\":482:534   */\n      iszero\n      tag_232\n      jumpi\n        /* \"#utility.yul\":530:531   */\n      0x00\n        /* \"#utility.yul\":527:528   */\n      dup1\n        /* \"#utility.yul\":520:532   */\n      revert\n        /* \"#utility.yul\":482:534   */\n    tag_232:\n      pop\n        /* \"#utility.yul\":553:576   */\n      calldataload\n      swap2\n        /* \"#utility.yul\":402:582   */\n      swap1\n      pop\n      jump\t// out\n        /* \"#utility.yul\":977:1365   */\n    tag_28:\n        /* \"#utility.yul\":1045:1051   */\n      0x00\n        /* \"#utility.yul\":1053:1059   */\n      dup1\n        /* \"#utility.yul\":1106:1108   */\n      0x40\n        /* \"#utility.yul\":1094:1103   */\n      dup4\n        /* \"#utility.yul\":1085:1092   */\n      dup6\n        /* \"#utility.yul\":1081:1104   */\n      sub\n        /* \"#utility.yul\":1077:1109   */\n      slt\n        /* \"#utility.yul\":1074:1126   */\n      iszero\n      tag_236\n      jumpi\n        /* \"#utility.yul\":1122:1123   */\n      0x00\n        /* \"#utility.yul\":1119:1120   */\n      dup1\n        /* \"#utility.yul\":1112:1124   */\n      revert\n        /* \"#utility.yul\":1074:1126   */\n    tag_236:\n        /* \"#utility.yul\":1161:1170   */\n      dup3\n        /* \"#utility.yul\":1148:1171   */\n      calldataload\n        /* \"#utility.yul\":1180:1211   */\n      tag_237\n        /* \"#utility.yul\":1205:1210   */\n      dup2\n        /* \"#utility.yul\":1180:1211   */\n      tag_220\n      jump\t// in\n    tag_237:\n        /* \"#utility.yul\":1230:1235   */\n      swap2\n      pop\n        /* \"#utility.yul\":1287:1289   */\n      0x20\n        /* \"#utility.yul\":1272:1290   */\n      dup4\n      add\n        /* \"#utility.yul\":1259:1291   */\n      calldataload\n        /* \"#utility.yul\":1300:1333   */\n      tag_238\n        /* \"#utility.yul\":1259:1291   */\n      dup2\n        /* \"#utility.yul\":1300:1333   */\n      tag_220\n      jump\t// in\n    tag_238:\n        /* \"#utility.yul\":1352:1359   */\n      dup1\n        /* \"#utility.yul\":1342:1359   */\n      swap2\n      pop\n      pop\n        /* \"#utility.yul\":977:1365   */\n      swap3\n      pop\n      swap3\n      swap1\n      pop\n      jump\t// out\n        /* \"#utility.yul\":1694:1878   */\n    tag_35:\n        /* \"#utility.yul\":1764:1770   */\n      0x00\n        /* \"#utility.yul\":1817:1819   */\n      0x20\n        /* \"#utility.yul\":1805:1814   */\n      dup3\n        /* \"#utility.yul\":1796:1803   */\n      dup5\n        /* \"#utility.yul\":1792:1815   */\n      sub\n        /* \"#utility.yul\":1788:1820   */\n      slt\n        /* \"#utility.yul\":1785:1837   */\n      iszero\n      tag_241\n      jumpi\n        /* \"#utility.yul\":1833:1834   */\n      0x00\n        /* \"#utility.yul\":1830:1831   */\n      dup1\n        /* \"#utility.yul\":1823:1835   */\n      revert\n        /* \"#utility.yul\":1785:1837   */\n    tag_241:\n      pop\n        /* \"#utility.yul\":1856:1872   */\n      mload\n      swap2\n        /* \"#utility.yul\":1694:1878   */\n      swap1\n      pop\n      jump\t// out\n        /* \"#utility.yul\":2562:2835   */\n    tag_51:\n        /* \"#utility.yul\":2630:2636   */\n      0x00\n        /* \"#utility.yul\":2683:2685   */\n      0x20\n        /* \"#utility.yul\":2671:2680   */\n      dup3\n        /* \"#utility.yul\":2662:2669   */\n      dup5\n        /* \"#utility.yul\":2658:2681   */\n      sub\n        /* \"#utility.yul\":2654:2686   */\n      slt\n        /* \"#utility.yul\":2651:2703   */\n      iszero\n      tag_245\n      jumpi\n        /* \"#utility.yul\":2699:2700   */\n      0x00\n        /* \"#utility.yul\":2696:2697   */\n      dup1\n        /* \"#utility.yul\":2689:2701   */\n      revert\n        /* \"#utility.yul\":2651:2703   */\n    tag_245:\n        /* \"#utility.yul\":2731:2740   */\n      dup2\n        /* \"#utility.yul\":2725:2741   */\n      mload\n        /* \"#utility.yul\":2781:2785   */\n      0xff\n        /* \"#utility.yul\":2774:2779   */\n      dup2\n        /* \"#utility.yul\":2770:2786   */\n      and\n        /* \"#utility.yul\":2763:2768   */\n      dup2\n        /* \"#utility.yul\":2760:2787   */\n      eq\n        /* \"#utility.yul\":2750:2805   */\n      tag_230\n      jumpi\n        /* \"#utility.yul\":2801:2802   */\n      0x00\n        /* \"#utility.yul\":2798:2799   */\n      dup1\n        /* \"#utility.yul\":2791:2803   */\n      revert\n        /* \"#utility.yul\":2840:2967   */\n    tag_221:\n        /* \"#utility.yul\":2901:2911   */\n      0x4e487b71\n        /* \"#utility.yul\":2896:2899   */\n      0xe0\n        /* \"#utility.yul\":2892:2912   */\n      shl\n        /* \"#utility.yul\":2889:2890   */\n      0x00\n        /* \"#utility.yul\":2882:2913   */\n      mstore\n        /* \"#utility.yul\":2932:2936   */\n      0x11\n        /* \"#utility.yul\":2929:2930   */\n      0x04\n        /* \"#utility.yul\":2922:2937   */\n      mstore\n        /* \"#utility.yul\":2956:2960   */\n      0x24\n        /* \"#utility.yul\":2953:2954   */\n      0x00\n        /* \"#utility.yul\":2946:2961   */\n      revert\n        /* \"#utility.yul\":2972:3100   */\n    tag_53:\n        /* \"#utility.yul\":3039:3048   */\n      dup2\n      dup2\n      sub\n        /* \"#utility.yul\":3060:3071   */\n      dup2\n      dup2\n      gt\n        /* \"#utility.yul\":3057:3094   */\n      iszero\n      tag_250\n      jumpi\n        /* \"#utility.yul\":3074:3092   */\n      tag_250\n      tag_221\n      jump\t// in\n    tag_250:\n        /* \"#utility.yul\":2972:3100   */\n      swap3\n      swap2\n      pop\n      pop\n      jump\t// out\n        /* \"#utility.yul\":3105:3409   */\n    tag_58:\n      sub(shl(0xa0, 0x01), 0x01)\n        /* \"#utility.yul\":3335:3350   */\n      swap3\n      dup4\n      and\n        /* \"#utility.yul\":3317:3351   */\n      dup2\n      mstore\n        /* \"#utility.yul\":3387:3402   */\n      swap2\n      and\n        /* \"#utility.yul\":3382:3384   */\n      0x20\n        /* \"#utility.yul\":3367:3385   */\n      dup3\n      add\n        /* \"#utility.yul\":3360:3403   */\n      mstore\n        /* \"#utility.yul\":3267:3269   */\n      0x40\n        /* \"#utility.yul\":3252:3270   */\n      add\n      swap1\n        /* \"#utility.yul\":3105:3409   */\n      jump\t// out\n        /* \"#utility.yul\":3414:3665   */\n    tag_61:\n        /* \"#utility.yul\":3484:3490   */\n      0x00\n        /* \"#utility.yul\":3537:3539   */\n      0x20\n        /* \"#utility.yul\":3525:3534   */\n      dup3\n        /* \"#utility.yul\":3516:3523   */\n      dup5\n        /* \"#utility.yul\":3512:3535   */\n      sub\n        /* \"#utility.yul\":3508:3540   */\n      slt\n        /* \"#utility.yul\":3505:3557   */\n      iszero\n      tag_253\n      jumpi\n        /* \"#utility.yul\":3553:3554   */\n      0x00\n        /* \"#utility.yul\":3550:3551   */\n      dup1\n        /* \"#utility.yul\":3543:3555   */\n      revert\n        /* \"#utility.yul\":3505:3557   */\n    tag_253:\n        /* \"#utility.yul\":3585:3594   */\n      dup2\n        /* \"#utility.yul\":3579:3595   */\n      mload\n        /* \"#utility.yul\":3604:3635   */\n      tag_230\n        /* \"#utility.yul\":3629:3634   */\n      dup2\n        /* \"#utility.yul\":3604:3635   */\n      tag_220\n      jump\t// in\n        /* \"#utility.yul\":3670:3858   */\n    tag_222:\n        /* \"#utility.yul\":3749:3762   */\n      dup1\n      mload\n      sub(shl(0x70, 0x01), 0x01)\n        /* \"#utility.yul\":3791:3833   */\n      dup2\n      and\n        /* \"#utility.yul\":3781:3834   */\n      dup2\n      eq\n        /* \"#utility.yul\":3771:3852   */\n      tag_256\n      jumpi\n        /* \"#utility.yul\":3848:3849   */\n      0x00\n        /* \"#utility.yul\":3845:3846   */\n      dup1\n        /* \"#utility.yul\":3838:3850   */\n      revert\n        /* \"#utility.yul\":3771:3852   */\n    tag_256:\n        /* \"#utility.yul\":3670:3858   */\n      swap2\n      swap1\n      pop\n      jump\t// out\n        /* \"#utility.yul\":3863:4313   */\n    tag_74:\n        /* \"#utility.yul\":3950:3956   */\n      0x00\n        /* \"#utility.yul\":3958:3964   */\n      dup1\n        /* \"#utility.yul\":3966:3972   */\n      0x00\n        /* \"#utility.yul\":4019:4021   */\n      0x60\n        /* \"#utility.yul\":4007:4016   */\n      dup5\n        /* \"#utility.yul\":3998:4005   */\n      dup7\n        /* \"#utility.yul\":3994:4017   */\n      sub\n        /* \"#utility.yul\":3990:4022   */\n      slt\n        /* \"#utility.yul\":3987:4039   */\n      iszero\n      tag_258\n      jumpi\n        /* \"#utility.yul\":4035:4036   */\n      0x00\n        /* \"#utility.yul\":4032:4033   */\n      dup1\n        /* \"#utility.yul\":4025:4037   */\n      revert\n        /* \"#utility.yul\":3987:4039   */\n    tag_258:\n        /* \"#utility.yul\":4058:4098   */\n      tag_259\n        /* \"#utility.yul\":4088:4097   */\n      dup5\n        /* \"#utility.yul\":4058:4098   */\n      tag_222\n      jump\t// in\n    tag_259:\n        /* \"#utility.yul\":4048:4098   */\n      swap3\n      pop\n        /* \"#utility.yul\":4117:4166   */\n      tag_260\n        /* \"#utility.yul\":4162:4164   */\n      0x20\n        /* \"#utility.yul\":4151:4160   */\n      dup6\n        /* \"#utility.yul\":4147:4165   */\n      add\n        /* \"#utility.yul\":4117:4166   */\n      tag_222\n      jump\t// in\n    tag_260:\n        /* \"#utility.yul\":4107:4166   */\n      swap2\n      pop\n        /* \"#utility.yul\":4209:4211   */\n      0x40\n        /* \"#utility.yul\":4198:4207   */\n      dup5\n        /* \"#utility.yul\":4194:4212   */\n      add\n        /* \"#utility.yul\":4188:4213   */\n      mload\n        /* \"#utility.yul\":4253:4263   */\n      0xffffffff\n        /* \"#utility.yul\":4246:4251   */\n      dup2\n        /* \"#utility.yul\":4242:4264   */\n      and\n        /* \"#utility.yul\":4235:4240   */\n      dup2\n        /* \"#utility.yul\":4232:4265   */\n      eq\n        /* \"#utility.yul\":4222:4283   */\n      tag_261\n      jumpi\n        /* \"#utility.yul\":4279:4280   */\n      0x00\n        /* \"#utility.yul\":4276:4277   */\n      dup1\n        /* \"#utility.yul\":4269:4281   */\n      revert\n        /* \"#utility.yul\":4222:4283   */\n    tag_261:\n        /* \"#utility.yul\":4302:4307   */\n      dup1\n        /* \"#utility.yul\":4292:4307   */\n      swap2\n      pop\n      pop\n        /* \"#utility.yul\":3863:4313   */\n      swap3\n      pop\n      swap3\n      pop\n      swap3\n      jump\t// out\n        /* \"#utility.yul\":4318:4740   */\n    tag_223:\n        /* \"#utility.yul\":4407:4408   */\n      0x01\n        /* \"#utility.yul\":4450:4455   */\n      dup2\n        /* \"#utility.yul\":4407:4408   */\n      dup2\n        /* \"#utility.yul\":4464:4734   */\n    tag_263:\n        /* \"#utility.yul\":4485:4492   */\n      dup1\n        /* \"#utility.yul\":4475:4483   */\n      dup6\n        /* \"#utility.yul\":4472:4493   */\n      gt\n        /* \"#utility.yul\":4464:4734   */\n      iszero\n      tag_265\n      jumpi\n        /* \"#utility.yul\":4544:4548   */\n      dup2\n        /* \"#utility.yul\":4540:4541   */\n      0x00\n        /* \"#utility.yul\":4536:4542   */\n      not\n        /* \"#utility.yul\":4532:4549   */\n      div\n        /* \"#utility.yul\":4526:4530   */\n      dup3\n        /* \"#utility.yul\":4523:4550   */\n      gt\n        /* \"#utility.yul\":4520:4573   */\n      iszero\n      tag_267\n      jumpi\n        /* \"#utility.yul\":4553:4571   */\n      tag_267\n      tag_221\n      jump\t// in\n    tag_267:\n        /* \"#utility.yul\":4603:4610   */\n      dup1\n        /* \"#utility.yul\":4593:4601   */\n      dup6\n        /* \"#utility.yul\":4589:4611   */\n      and\n        /* \"#utility.yul\":4586:4641   */\n      iszero\n      tag_268\n      jumpi\n        /* \"#utility.yul\":4623:4639   */\n      swap2\n      dup2\n      mul\n      swap2\n        /* \"#utility.yul\":4586:4641   */\n    tag_268:\n        /* \"#utility.yul\":4702:4724   */\n      swap4\n      dup5\n      shr\n      swap4\n        /* \"#utility.yul\":4662:4677   */\n      swap1\n      dup1\n      mul\n      swap1\n        /* \"#utility.yul\":4464:4734   */\n      jump(tag_263)\n    tag_265:\n        /* \"#utility.yul\":4468:4471   */\n      pop\n        /* \"#utility.yul\":4318:4740   */\n      swap3\n      pop\n      swap3\n      swap1\n      pop\n      jump\t// out\n        /* \"#utility.yul\":4745:5551   */\n    tag_224:\n        /* \"#utility.yul\":4794:4799   */\n      0x00\n        /* \"#utility.yul\":4824:4832   */\n      dup3\n        /* \"#utility.yul\":4814:4894   */\n      tag_270\n      jumpi\n      pop\n        /* \"#utility.yul\":4865:4866   */\n      0x01\n        /* \"#utility.yul\":4879:4884   */\n      jump(tag_250)\n        /* \"#utility.yul\":4814:4894   */\n    tag_270:\n        /* \"#utility.yul\":4913:4917   */\n      dup2\n        /* \"#utility.yul\":4903:4979   */\n      tag_271\n      jumpi\n      pop\n        /* \"#utility.yul\":4950:4951   */\n      0x00\n        /* \"#utility.yul\":4964:4969   */\n      jump(tag_250)\n        /* \"#utility.yul\":4903:4979   */\n    tag_271:\n        /* \"#utility.yul\":4995:4999   */\n      dup2\n        /* \"#utility.yul\":5013:5014   */\n      0x01\n        /* \"#utility.yul\":5008:5067   */\n      dup2\n      eq\n      tag_273\n      jumpi\n        /* \"#utility.yul\":5081:5082   */\n      0x02\n        /* \"#utility.yul\":5076:5206   */\n      dup2\n      eq\n      tag_274\n      jumpi\n        /* \"#utility.yul\":4988:5206   */\n      jump(tag_272)\n        /* \"#utility.yul\":5008:5067   */\n    tag_273:\n        /* \"#utility.yul\":5038:5039   */\n      0x01\n        /* \"#utility.yul\":5029:5039   */\n      swap2\n      pop\n        /* \"#utility.yul\":5052:5057   */\n      pop\n      jump(tag_250)\n        /* \"#utility.yul\":5076:5206   */\n    tag_274:\n        /* \"#utility.yul\":5113:5116   */\n      0xff\n        /* \"#utility.yul\":5103:5111   */\n      dup5\n        /* \"#utility.yul\":5100:5117   */\n      gt\n        /* \"#utility.yul\":5097:5140   */\n      iszero\n      tag_276\n      jumpi\n        /* \"#utility.yul\":5120:5138   */\n      tag_276\n      tag_221\n      jump\t// in\n    tag_276:\n      pop\n      pop\n        /* \"#utility.yul\":5176:5177   */\n      0x01\n        /* \"#utility.yul\":5162:5178   */\n      dup3\n      shl\n        /* \"#utility.yul\":5191:5196   */\n      jump(tag_250)\n        /* \"#utility.yul\":4988:5206   */\n    tag_272:\n      pop\n        /* \"#utility.yul\":5290:5292   */\n      0x20\n        /* \"#utility.yul\":5280:5288   */\n      dup4\n        /* \"#utility.yul\":5277:5293   */\n      lt\n        /* \"#utility.yul\":5271:5274   */\n      0x0133\n        /* \"#utility.yul\":5265:5269   */\n      dup4\n        /* \"#utility.yul\":5262:5275   */\n      lt\n        /* \"#utility.yul\":5258:5294   */\n      and\n        /* \"#utility.yul\":5252:5254   */\n      0x4e\n        /* \"#utility.yul\":5242:5250   */\n      dup5\n        /* \"#utility.yul\":5239:5255   */\n      lt\n        /* \"#utility.yul\":5234:5236   */\n      0x0b\n        /* \"#utility.yul\":5228:5232   */\n      dup5\n        /* \"#utility.yul\":5225:5237   */\n      lt\n        /* \"#utility.yul\":5221:5256   */\n      and\n        /* \"#utility.yul\":5218:5295   */\n      or\n        /* \"#utility.yul\":5215:5374   */\n      iszero\n      tag_277\n      jumpi\n      pop\n        /* \"#utility.yul\":5327:5346   */\n      dup2\n      dup2\n      exp\n        /* \"#utility.yul\":5359:5364   */\n      jump(tag_250)\n        /* \"#utility.yul\":5215:5374   */\n    tag_277:\n        /* \"#utility.yul\":5406:5440   */\n      tag_278\n        /* \"#utility.yul\":5431:5439   */\n      dup4\n        /* \"#utility.yul\":5425:5429   */\n      dup4\n        /* \"#utility.yul\":5406:5440   */\n      tag_223\n      jump\t// in\n    tag_278:\n        /* \"#utility.yul\":5476:5482   */\n      dup1\n        /* \"#utility.yul\":5472:5473   */\n      0x00\n        /* \"#utility.yul\":5468:5474   */\n      not\n        /* \"#utility.yul\":5464:5483   */\n      div\n        /* \"#utility.yul\":5455:5462   */\n      dup3\n        /* \"#utility.yul\":5452:5484   */\n      gt\n        /* \"#utility.yul\":5449:5507   */\n      iszero\n      tag_280\n      jumpi\n        /* \"#utility.yul\":5487:5505   */\n      tag_280\n      tag_221\n      jump\t// in\n    tag_280:\n        /* \"#utility.yul\":5525:5545   */\n      mul\n      swap4\n        /* \"#utility.yul\":4745:5551   */\n      swap3\n      pop\n      pop\n      pop\n      jump\t// out\n        /* \"#utility.yul\":5556:5687   */\n    tag_82:\n        /* \"#utility.yul\":5616:5621   */\n      0x00\n        /* \"#utility.yul\":5645:5681   */\n      tag_230\n        /* \"#utility.yul\":5672:5680   */\n      dup4\n        /* \"#utility.yul\":5666:5670   */\n      dup4\n        /* \"#utility.yul\":5645:5681   */\n      tag_224\n      jump\t// in\n        /* \"#utility.yul\":5692:5860   */\n    tag_84:\n        /* \"#utility.yul\":5765:5774   */\n      dup1\n      dup3\n      mul\n        /* \"#utility.yul\":5796:5805   */\n      dup2\n      iszero\n        /* \"#utility.yul\":5813:5828   */\n      dup3\n      dup3\n      div\n        /* \"#utility.yul\":5807:5829   */\n      dup5\n      eq\n        /* \"#utility.yul\":5793:5830   */\n      or\n        /* \"#utility.yul\":5783:5854   */\n      tag_250\n      jumpi\n        /* \"#utility.yul\":5834:5852   */\n      tag_250\n      tag_221\n      jump\t// in\n        /* \"#utility.yul\":5865:6082   */\n    tag_87:\n        /* \"#utility.yul\":5905:5906   */\n      0x00\n        /* \"#utility.yul\":5931:5932   */\n      dup3\n        /* \"#utility.yul\":5921:6053   */\n      tag_287\n      jumpi\n        /* \"#utility.yul\":5975:5985   */\n      0x4e487b71\n        /* \"#utility.yul\":5970:5973   */\n      0xe0\n        /* \"#utility.yul\":5966:5986   */\n      shl\n        /* \"#utility.yul\":5963:5964   */\n      0x00\n        /* \"#utility.yul\":5956:5987   */\n      mstore\n        /* \"#utility.yul\":6010:6014   */\n      0x12\n        /* \"#utility.yul\":6007:6008   */\n      0x04\n        /* \"#utility.yul\":6000:6015   */\n      mstore\n        /* \"#utility.yul\":6038:6042   */\n      0x24\n        /* \"#utility.yul\":6035:6036   */\n      0x00\n        /* \"#utility.yul\":6028:6043   */\n      revert\n        /* \"#utility.yul\":5921:6053   */\n    tag_287:\n      pop\n        /* \"#utility.yul\":6067:6076   */\n      div\n      swap1\n        /* \"#utility.yul\":5865:6082   */\n      jump\t// out\n        /* \"#utility.yul\":6087:6214   */\n    tag_99:\n        /* \"#utility.yul\":6148:6158   */\n      0x4e487b71\n        /* \"#utility.yul\":6143:6146   */\n      0xe0\n        /* \"#utility.yul\":6139:6159   */\n      shl\n        /* \"#utility.yul\":6136:6137   */\n      0x00\n        /* \"#utility.yul\":6129:6160   */\n      mstore\n        /* \"#utility.yul\":6179:6183   */\n      0x32\n        /* \"#utility.yul\":6176:6177   */\n      0x04\n        /* \"#utility.yul\":6169:6184   */\n      mstore\n        /* \"#utility.yul\":6203:6207   */\n      0x24\n        /* \"#utility.yul\":6200:6201   */\n      0x00\n        /* \"#utility.yul\":6193:6208   */\n      revert\n        /* \"#utility.yul\":6219:6354   */\n    tag_140:\n        /* \"#utility.yul\":6258:6261   */\n      0x00\n        /* \"#utility.yul\":6279:6296   */\n      0x01\n      dup3\n      add\n        /* \"#utility.yul\":6276:6319   */\n      tag_291\n      jumpi\n        /* \"#utility.yul\":6299:6317   */\n      tag_291\n      tag_221\n      jump\t// in\n    tag_291:\n      pop\n        /* \"#utility.yul\":6346:6347   */\n      0x01\n        /* \"#utility.yul\":6335:6348   */\n      add\n      swap1\n        /* \"#utility.yul\":6219:6354   */\n      jump\t// out\n\n    auxdata: 0xa2646970667358221220aa544224c4b677d740a0b01cbfc02f672a2e93cfdb54b4156c49d1ea8e22242d64736f6c63430008120033\n}\n",
				"bytecode": {
					"linkReferences": {},
					"object": "6080604052600080546001600160a01b03191690553480156200002157600080fd5b506040516200154a3803806200154a8339810160408190526200004491620001d7565b600180546001600160a01b038086166001600160a01b031992831617909255600280549285169290911691909117905580516200008990600590602084019062000123565b506000826001600160a01b031663313ce5676040518163ffffffff1660e01b8152600401602060405180830381865afa158015620000cb573d6000803e3d6000fd5b505050506040513d601f19601f82011682018060405250810190620000f19190620002d1565b60ff16905062000103816012620002fd565b6003555050600480546001600160a01b0319163317905550620003259050565b8280548282559060005260206000209081019282156200017b579160200282015b828111156200017b57825182546001600160a01b0319166001600160a01b0390911617825560209092019160019091019062000144565b50620001899291506200018d565b5090565b5b808211156200018957600081556001016200018e565b80516001600160a01b0381168114620001bc57600080fd5b919050565b634e487b7160e01b600052604160045260246000fd5b600080600060608486031215620001ed57600080fd5b620001f884620001a4565b9250602062000209818601620001a4565b60408601519093506001600160401b03808211156200022757600080fd5b818701915087601f8301126200023c57600080fd5b815181811115620002515762000251620001c1565b8060051b604051601f19603f83011681018181108582111715620002795762000279620001c1565b60405291825284820192508381018501918a8311156200029857600080fd5b938501935b82851015620002c157620002b185620001a4565b845293850193928501926200029d565b8096505050505050509250925092565b600060208284031215620002e457600080fd5b815160ff81168114620002f657600080fd5b9392505050565b818103818111156200031f57634e487b7160e01b600052601160045260246000fd5b92915050565b61121580620003356000396000f3fe608060405234801561001057600080fd5b50600436106100575760003560e01c806329ce1ec51461005c5780634782e40714610071578063672383c4146100845780636cff8234146100b4578063a6d6e2ca146100d5575b600080fd5b61006f61006a366004610f03565b610103565b005b61006f61007f366004610f03565b6101ee565b610097610092366004610f27565b6102cb565b6040516001600160a01b0390911681526020015b60405180910390f35b6100c76100c2366004610f03565b6102f5565b6040519081526020016100ab565b6100e86100e3366004610f40565b610899565b604080519384526020840192909252908201526060016100ab565b806001600160a01b031663574f2ba36040518163ffffffff1660e01b8152600401602060405180830381865afa92505050801561015d575060408051601f3d908101601f1916820190925261015a91810190610f79565b60015b61019e5760405162461bcd60e51b815260206004820152600d60248201526c4e6f74206120666163746f727960981b60448201526064015b60405180910390fd5b50600580546001810182556000919091527f036b6384b5eca791c62761152d0c79bb0604c104a5fb6f4eb0703f3154bb3db00180546001600160a01b0319166001600160a01b0383161790555b50565b6004546001600160a01b031633146102345760405162461bcd60e51b81526020600482015260096024820152682737ba1027bbb732b960b91b6044820152606401610195565b600280546001600160a01b0319166001600160a01b0383169081179091556040805163313ce56760e01b815290516000929163313ce5679160048083019260209291908290030181865afa158015610290573d6000803e3d6000fd5b505050506040513d601f19601f820116820180604052508101906102b49190610f92565b60ff1690506102c4816012610fcb565b6003555050565b600581815481106102db57600080fd5b6000918252602090912001546001600160a01b0316905081565b60015460025460405163e6a4390560e01b8152600092670de0b6b3a7640000926001600160a01b038087169363e6a439059361033993908316921690600401610fe4565b602060405180830381865afa925050508015610372575060408051601f3d908101601f1916820190925261036f91810190610ffe565b60015b1561057e575060015460025460405163e6a4390560e01b81526000926001600160a01b038781169363e6a43905936103b39383169290911690600401610fe4565b602060405180830381865afa1580156103d0573d6000803e3d6000fd5b505050506040513d601f19601f820116820180604052508101906103f49190610ffe565b9050600080826001600160a01b0316630902f1ac6040518163ffffffff1660e01b8152600401606060405180830381865afa158015610437573d6000803e3d6000fd5b505050506040513d601f19601f8201168201806040525081019061045b9190611037565b506001600160701b031691506001600160701b031691506000836001600160a01b0316630dfe16816040518163ffffffff1660e01b8152600401602060405180830381865afa1580156104b2573d6000803e3d6000fd5b505050506040513d601f19601f820116820180604052508101906104d69190610ffe565b905082158015906104e657508115155b15610579576001546001600160a01b0390811690821603610537578285600354600a610512919061116b565b61051c9085611177565b6105269190611177565b610530919061118e565b9550610569565b8185600354600a610548919061116b565b6105529086611177565b61055c9190611177565b610566919061118e565b95505b8515610579575050505050919050565b505050505b60005b60055481101561088f57836001600160a01b0316600582815481106105a8576105a86111b0565b6000918252602090912001546001600160a01b03161461087d57600581815481106105d5576105d56111b0565b60009182526020909120015460015460025460405163e6a4390560e01b81526001600160a01b039384169363e6a43905936106199390821692911690600401610fe4565b602060405180830381865afa925050508015610652575060408051601f3d908101601f1916820190925261064f91810190610ffe565b60015b1561087d575060006005828154811061066d5761066d6111b0565b60009182526020909120015460015460025460405163e6a4390560e01b81526001600160a01b039384169363e6a43905936106b19390821692911690600401610fe4565b602060405180830381865afa1580156106ce573d6000803e3d6000fd5b505050506040513d601f19601f820116820180604052508101906106f29190610ffe565b9050600080826001600160a01b0316630902f1ac6040518163ffffffff1660e01b8152600401606060405180830381865afa158015610735573d6000803e3d6000fd5b505050506040513d601f19601f820116820180604052508101906107599190611037565b506001600160701b031691506001600160701b031691506000836001600160a01b0316630dfe16816040518163ffffffff1660e01b8152600401602060405180830381865afa1580156107b0573d6000803e3d6000fd5b505050506040513d601f19601f820116820180604052508101906107d49190610ffe565b905082158015906107e457508115155b15610878576001546001600160a01b0390811690821603610835578286600354600a610810919061116b565b61081a9085611177565b6108249190611177565b61082e919061118e565b9650610867565b8186600354600a610846919061116b565b6108509086611177565b61085a9190611177565b610864919061118e565b96505b861561087857505050505050919050565b505050505b80610887816111c6565b915050610581565b5060009392505050565b60008054819081906001600160a01b0316816108b4866102f5565b60015460405163e6a4390560e01b81529192506001600160a01b038089169263e6a43905926108ea928c92911690600401610fe4565b602060405180830381865afa925050508015610923575060408051601f3d908101601f1916820190925261092091810190610ffe565b60015b15610a4b575060015460405163e6a4390560e01b81526001600160a01b038089169263e6a439059261095b928c921690600401610fe4565b602060405180830381865afa158015610978573d6000803e3d6000fd5b505050506040513d601f19601f8201168201806040525081019061099c9190610ffe565b6000549092506001600160a01b0390811690831603610a4b5760025460405163e6a4390560e01b81526001600160a01b038089169263e6a43905926109e7928c921690600401610fe4565b602060405180830381865afa158015610a04573d6000803e3d6000fd5b505050506040513d601f19601f82011682018060405250810190610a289190610ffe565b6000549092506001600160a01b03808416911614610a4b5750670de0b6b3a76400005b6000546001600160a01b0390811690831603610c905760005b600554811015610c8e5760058181548110610a8157610a816111b0565b60009182526020909120015460015460405163e6a4390560e01b81526001600160a01b039283169263e6a4390592610ac1928d9290911690600401610fe4565b602060405180830381865afa925050508015610afa575060408051601f3d908101601f19168201909252610af791810190610ffe565b60015b15610c7c575060058181548110610b1357610b136111b0565b60009182526020909120015460015460405163e6a4390560e01b81526001600160a01b039283169263e6a4390592610b53928d9290911690600401610fe4565b602060405180830381865afa158015610b70573d6000803e3d6000fd5b505050506040513d601f19601f82011682018060405250810190610b949190610ffe565b6000549093506001600160a01b0390811690841603610c655760058181548110610bc057610bc06111b0565b60009182526020909120015460025460405163e6a4390560e01b81526001600160a01b039283169263e6a4390592610c00928d9290911690600401610fe4565b602060405180830381865afa158015610c1d573d6000803e3d6000fd5b505050506040513d601f19601f82011682018060405250810190610c419190610ffe565b6000549093506001600160a01b03808516911614610c6557670de0b6b3a764000091505b6000546001600160a01b0390811690841603610c8e575b80610c86816111c6565b915050610a64565b505b816001600160a01b0316630902f1ac6040518163ffffffff1660e01b8152600401606060405180830381865afa925050508015610cea575060408051601f3d908101601f19168201909252610ce791810190611037565b60015b610d005760008060009450945094505050610ee7565b505050600080836001600160a01b0316630902f1ac6040518163ffffffff1660e01b8152600401606060405180830381865afa158015610d44573d6000803e3d6000fd5b505050506040513d601f19601f82011682018060405250810190610d689190611037565b506001600160701b031691506001600160701b031691506000846001600160a01b0316630dfe16816040518163ffffffff1660e01b8152600401602060405180830381865afa158015610dbf573d6000803e3d6000fd5b505050506040513d601f19601f82011682018060405250810190610de39190610ffe565b90506000856001600160a01b031663d21220a76040518163ffffffff1660e01b8152600401602060405180830381865afa158015610e25573d6000803e3d6000fd5b505050506040513d601f19601f82011682018060405250810190610e499190610ffe565b90508a6001600160a01b0316826001600160a01b031603610ea4576002546001600160a01b03828116911614610e7f5782610e97565b600354610e8d90600a61116b565b610e979084611177565b9850839750849650610ee0565b6002546001600160a01b03838116911614610ebf5783610ed7565b600354610ecd90600a61116b565b610ed79085611177565b98508297508496505b5050505050505b9250925092565b6001600160a01b03811681146101eb57600080fd5b600060208284031215610f1557600080fd5b8135610f2081610eee565b9392505050565b600060208284031215610f3957600080fd5b5035919050565b60008060408385031215610f5357600080fd5b8235610f5e81610eee565b91506020830135610f6e81610eee565b809150509250929050565b600060208284031215610f8b57600080fd5b5051919050565b600060208284031215610fa457600080fd5b815160ff81168114610f2057600080fd5b634e487b7160e01b600052601160045260246000fd5b81810381811115610fde57610fde610fb5565b92915050565b6001600160a01b0392831681529116602082015260400190565b60006020828403121561101057600080fd5b8151610f2081610eee565b80516001600160701b038116811461103257600080fd5b919050565b60008060006060848603121561104c57600080fd5b6110558461101b565b92506110636020850161101b565b9150604084015163ffffffff8116811461107c57600080fd5b809150509250925092565b600181815b808511156110c25781600019048211156110a8576110a8610fb5565b808516156110b557918102915b93841c939080029061108c565b509250929050565b6000826110d957506001610fde565b816110e657506000610fde565b81600181146110fc576002811461110657611122565b6001915050610fde565b60ff84111561111757611117610fb5565b50506001821b610fde565b5060208310610133831016604e8410600b8410161715611145575081810a610fde565b61114f8383611087565b806000190482111561116357611163610fb5565b029392505050565b6000610f2083836110ca565b8082028115828204841417610fde57610fde610fb5565b6000826111ab57634e487b7160e01b600052601260045260246000fd5b500490565b634e487b7160e01b600052603260045260246000fd5b6000600182016111d8576111d8610fb5565b506001019056fea2646970667358221220aa544224c4b677d740a0b01cbfc02f672a2e93cfdb54b4156c49d1ea8e22242d64736f6c63430008120033",
					"opcodes": "PUSH1 0x80 PUSH1 0x40 MSTORE PUSH1 0x0 DUP1 SLOAD PUSH1 0x1 PUSH1 0x1 PUSH1 0xA0 SHL SUB NOT AND SWAP1 SSTORE CALLVALUE DUP1 ISZERO PUSH3 0x21 JUMPI PUSH1 0x0 DUP1 REVERT JUMPDEST POP PUSH1 0x40 MLOAD PUSH3 0x154A CODESIZE SUB DUP1 PUSH3 0x154A DUP4 CODECOPY DUP2 ADD PUSH1 0x40 DUP2 SWAP1 MSTORE PUSH3 0x44 SWAP2 PUSH3 0x1D7 JUMP JUMPDEST PUSH1 0x1 DUP1 SLOAD PUSH1 0x1 PUSH1 0x1 PUSH1 0xA0 SHL SUB DUP1 DUP7 AND PUSH1 0x1 PUSH1 0x1 PUSH1 0xA0 SHL SUB NOT SWAP3 DUP4 AND OR SWAP1 SWAP3 SSTORE PUSH1 0x2 DUP1 SLOAD SWAP3 DUP6 AND SWAP3 SWAP1 SWAP2 AND SWAP2 SWAP1 SWAP2 OR SWAP1 SSTORE DUP1 MLOAD PUSH3 0x89 SWAP1 PUSH1 0x5 SWAP1 PUSH1 0x20 DUP5 ADD SWAP1 PUSH3 0x123 JUMP JUMPDEST POP PUSH1 0x0 DUP3 PUSH1 0x1 PUSH1 0x1 PUSH1 0xA0 SHL SUB AND PUSH4 0x313CE567 PUSH1 0x40 MLOAD DUP2 PUSH4 0xFFFFFFFF AND PUSH1 0xE0 SHL DUP2 MSTORE PUSH1 0x4 ADD PUSH1 0x20 PUSH1 0x40 MLOAD DUP1 DUP4 SUB DUP2 DUP7 GAS STATICCALL ISZERO DUP1 ISZERO PUSH3 0xCB JUMPI RETURNDATASIZE PUSH1 0x0 DUP1 RETURNDATACOPY RETURNDATASIZE PUSH1 0x0 REVERT JUMPDEST POP POP POP POP PUSH1 0x40 MLOAD RETURNDATASIZE PUSH1 0x1F NOT PUSH1 0x1F DUP3 ADD AND DUP3 ADD DUP1 PUSH1 0x40 MSTORE POP DUP2 ADD SWAP1 PUSH3 0xF1 SWAP2 SWAP1 PUSH3 0x2D1 JUMP JUMPDEST PUSH1 0xFF AND SWAP1 POP PUSH3 0x103 DUP2 PUSH1 0x12 PUSH3 0x2FD JUMP JUMPDEST PUSH1 0x3 SSTORE POP POP PUSH1 0x4 DUP1 SLOAD PUSH1 0x1 PUSH1 0x1 PUSH1 0xA0 SHL SUB NOT AND CALLER OR SWAP1 SSTORE POP PUSH3 0x325 SWAP1 POP JUMP JUMPDEST DUP3 DUP1 SLOAD DUP3 DUP3 SSTORE SWAP1 PUSH1 0x0 MSTORE PUSH1 0x20 PUSH1 0x0 KECCAK256 SWAP1 DUP2 ADD SWAP3 DUP3 ISZERO PUSH3 0x17B JUMPI SWAP2 PUSH1 0x20 MUL DUP3 ADD JUMPDEST DUP3 DUP2 GT ISZERO PUSH3 0x17B JUMPI DUP3 MLOAD DUP3 SLOAD PUSH1 0x1 PUSH1 0x1 PUSH1 0xA0 SHL SUB NOT AND PUSH1 0x1 PUSH1 0x1 PUSH1 0xA0 SHL SUB SWAP1 SWAP2 AND OR DUP3 SSTORE PUSH1 0x20 SWAP1 SWAP3 ADD SWAP2 PUSH1 0x1 SWAP1 SWAP2 ADD SWAP1 PUSH3 0x144 JUMP JUMPDEST POP PUSH3 0x189 SWAP3 SWAP2 POP PUSH3 0x18D JUMP JUMPDEST POP SWAP1 JUMP JUMPDEST JUMPDEST DUP1 DUP3 GT ISZERO PUSH3 0x189 JUMPI PUSH1 0x0 DUP2 SSTORE PUSH1 0x1 ADD PUSH3 0x18E JUMP JUMPDEST DUP1 MLOAD PUSH1 0x1 PUSH1 0x1 PUSH1 0xA0 SHL SUB DUP2 AND DUP2 EQ PUSH3 0x1BC JUMPI PUSH1 0x0 DUP1 REVERT JUMPDEST SWAP2 SWAP1 POP JUMP JUMPDEST PUSH4 0x4E487B71 PUSH1 0xE0 SHL PUSH1 0x0 MSTORE PUSH1 0x41 PUSH1 0x4 MSTORE PUSH1 0x24 PUSH1 0x0 REVERT JUMPDEST PUSH1 0x0 DUP1 PUSH1 0x0 PUSH1 0x60 DUP5 DUP7 SUB SLT ISZERO PUSH3 0x1ED JUMPI PUSH1 0x0 DUP1 REVERT JUMPDEST PUSH3 0x1F8 DUP5 PUSH3 0x1A4 JUMP JUMPDEST SWAP3 POP PUSH1 0x20 PUSH3 0x209 DUP2 DUP7 ADD PUSH3 0x1A4 JUMP JUMPDEST PUSH1 0x40 DUP7 ADD MLOAD SWAP1 SWAP4 POP PUSH1 0x1 PUSH1 0x1 PUSH1 0x40 SHL SUB DUP1 DUP3 GT ISZERO PUSH3 0x227 JUMPI PUSH1 0x0 DUP1 REVERT JUMPDEST DUP2 DUP8 ADD SWAP2 POP DUP8 PUSH1 0x1F DUP4 ADD SLT PUSH3 0x23C JUMPI PUSH1 0x0 DUP1 REVERT JUMPDEST DUP2 MLOAD DUP2 DUP2 GT ISZERO PUSH3 0x251 JUMPI PUSH3 0x251 PUSH3 0x1C1 JUMP JUMPDEST DUP1 PUSH1 0x5 SHL PUSH1 0x40 MLOAD PUSH1 0x1F NOT PUSH1 0x3F DUP4 ADD AND DUP2 ADD DUP2 DUP2 LT DUP6 DUP3 GT OR ISZERO PUSH3 0x279 JUMPI PUSH3 0x279 PUSH3 0x1C1 JUMP JUMPDEST PUSH1 0x40 MSTORE SWAP2 DUP3 MSTORE DUP5 DUP3 ADD SWAP3 POP DUP4 DUP2 ADD DUP6 ADD SWAP2 DUP11 DUP4 GT ISZERO PUSH3 0x298 JUMPI PUSH1 0x0 DUP1 REVERT JUMPDEST SWAP4 DUP6 ADD SWAP4 JUMPDEST DUP3 DUP6 LT ISZERO PUSH3 0x2C1 JUMPI PUSH3 0x2B1 DUP6 PUSH3 0x1A4 JUMP JUMPDEST DUP5 MSTORE SWAP4 DUP6 ADD SWAP4 SWAP3 DUP6 ADD SWAP3 PUSH3 0x29D JUMP JUMPDEST DUP1 SWAP7 POP POP POP POP POP POP POP SWAP3 POP SWAP3 POP SWAP3 JUMP JUMPDEST PUSH1 0x0 PUSH1 0x20 DUP3 DUP5 SUB SLT ISZERO PUSH3 0x2E4 JUMPI PUSH1 0x0 DUP1 REVERT JUMPDEST DUP2 MLOAD PUSH1 0xFF DUP2 AND DUP2 EQ PUSH3 0x2F6 JUMPI PUSH1 0x0 DUP1 REVERT JUMPDEST SWAP4 SWAP3 POP POP POP JUMP JUMPDEST DUP2 DUP2 SUB DUP2 DUP2 GT ISZERO PUSH3 0x31F JUMPI PUSH4 0x4E487B71 PUSH1 0xE0 SHL PUSH1 0x0 MSTORE PUSH1 0x11 PUSH1 0x4 MSTORE PUSH1 0x24 PUSH1 0x0 REVERT JUMPDEST SWAP3 SWAP2 POP POP JUMP JUMPDEST PUSH2 0x1215 DUP1 PUSH3 0x335 PUSH1 0x0 CODECOPY PUSH1 0x0 RETURN INVALID PUSH1 0x80 PUSH1 0x40 MSTORE CALLVALUE DUP1 ISZERO PUSH2 0x10 JUMPI PUSH1 0x0 DUP1 REVERT JUMPDEST POP PUSH1 0x4 CALLDATASIZE LT PUSH2 0x57 JUMPI PUSH1 0x0 CALLDATALOAD PUSH1 0xE0 SHR DUP1 PUSH4 0x29CE1EC5 EQ PUSH2 0x5C JUMPI DUP1 PUSH4 0x4782E407 EQ PUSH2 0x71 JUMPI DUP1 PUSH4 0x672383C4 EQ PUSH2 0x84 JUMPI DUP1 PUSH4 0x6CFF8234 EQ PUSH2 0xB4 JUMPI DUP1 PUSH4 0xA6D6E2CA EQ PUSH2 0xD5 JUMPI JUMPDEST PUSH1 0x0 DUP1 REVERT JUMPDEST PUSH2 0x6F PUSH2 0x6A CALLDATASIZE PUSH1 0x4 PUSH2 0xF03 JUMP JUMPDEST PUSH2 0x103 JUMP JUMPDEST STOP JUMPDEST PUSH2 0x6F PUSH2 0x7F CALLDATASIZE PUSH1 0x4 PUSH2 0xF03 JUMP JUMPDEST PUSH2 0x1EE JUMP JUMPDEST PUSH2 0x97 PUSH2 0x92 CALLDATASIZE PUSH1 0x4 PUSH2 0xF27 JUMP JUMPDEST PUSH2 0x2CB JUMP JUMPDEST PUSH1 0x40 MLOAD PUSH1 0x1 PUSH1 0x1 PUSH1 0xA0 SHL SUB SWAP1 SWAP2 AND DUP2 MSTORE PUSH1 0x20 ADD JUMPDEST PUSH1 0x40 MLOAD DUP1 SWAP2 SUB SWAP1 RETURN JUMPDEST PUSH2 0xC7 PUSH2 0xC2 CALLDATASIZE PUSH1 0x4 PUSH2 0xF03 JUMP JUMPDEST PUSH2 0x2F5 JUMP JUMPDEST PUSH1 0x40 MLOAD SWAP1 DUP2 MSTORE PUSH1 0x20 ADD PUSH2 0xAB JUMP JUMPDEST PUSH2 0xE8 PUSH2 0xE3 CALLDATASIZE PUSH1 0x4 PUSH2 0xF40 JUMP JUMPDEST PUSH2 0x899 JUMP JUMPDEST PUSH1 0x40 DUP1 MLOAD SWAP4 DUP5 MSTORE PUSH1 0x20 DUP5 ADD SWAP3 SWAP1 SWAP3 MSTORE SWAP1 DUP3 ADD MSTORE PUSH1 0x60 ADD PUSH2 0xAB JUMP JUMPDEST DUP1 PUSH1 0x1 PUSH1 0x1 PUSH1 0xA0 SHL SUB AND PUSH4 0x574F2BA3 PUSH1 0x40 MLOAD DUP2 PUSH4 0xFFFFFFFF AND PUSH1 0xE0 SHL DUP2 MSTORE PUSH1 0x4 ADD PUSH1 0x20 PUSH1 0x40 MLOAD DUP1 DUP4 SUB DUP2 DUP7 GAS STATICCALL SWAP3 POP POP POP DUP1 ISZERO PUSH2 0x15D JUMPI POP PUSH1 0x40 DUP1 MLOAD PUSH1 0x1F RETURNDATASIZE SWAP1 DUP2 ADD PUSH1 0x1F NOT AND DUP3 ADD SWAP1 SWAP3 MSTORE PUSH2 0x15A SWAP2 DUP2 ADD SWAP1 PUSH2 0xF79 JUMP JUMPDEST PUSH1 0x1 JUMPDEST PUSH2 0x19E JUMPI PUSH1 0x40 MLOAD PUSH3 0x461BCD PUSH1 0xE5 SHL DUP2 MSTORE PUSH1 0x20 PUSH1 0x4 DUP3 ADD MSTORE PUSH1 0xD PUSH1 0x24 DUP3 ADD MSTORE PUSH13 0x4E6F74206120666163746F7279 PUSH1 0x98 SHL PUSH1 0x44 DUP3 ADD MSTORE PUSH1 0x64 ADD JUMPDEST PUSH1 0x40 MLOAD DUP1 SWAP2 SUB SWAP1 REVERT JUMPDEST POP PUSH1 0x5 DUP1 SLOAD PUSH1 0x1 DUP2 ADD DUP3 SSTORE PUSH1 0x0 SWAP2 SWAP1 SWAP2 MSTORE PUSH32 0x36B6384B5ECA791C62761152D0C79BB0604C104A5FB6F4EB0703F3154BB3DB0 ADD DUP1 SLOAD PUSH1 0x1 PUSH1 0x1 PUSH1 0xA0 SHL SUB NOT AND PUSH1 0x1 PUSH1 0x1 PUSH1 0xA0 SHL SUB DUP4 AND OR SWAP1 SSTORE JUMPDEST POP JUMP JUMPDEST PUSH1 0x4 SLOAD PUSH1 0x1 PUSH1 0x1 PUSH1 0xA0 SHL SUB AND CALLER EQ PUSH2 0x234 JUMPI PUSH1 0x40 MLOAD PUSH3 0x461BCD PUSH1 0xE5 SHL DUP2 MSTORE PUSH1 0x20 PUSH1 0x4 DUP3 ADD MSTORE PUSH1 0x9 PUSH1 0x24 DUP3 ADD MSTORE PUSH9 0x2737BA1027BBB732B9 PUSH1 0xB9 SHL PUSH1 0x44 DUP3 ADD MSTORE PUSH1 0x64 ADD PUSH2 0x195 JUMP JUMPDEST PUSH1 0x2 DUP1 SLOAD PUSH1 0x1 PUSH1 0x1 PUSH1 0xA0 SHL SUB NOT AND PUSH1 0x1 PUSH1 0x1 PUSH1 0xA0 SHL SUB DUP4 AND SWAP1 DUP2 OR SWAP1 SWAP2 SSTORE PUSH1 0x40 DUP1 MLOAD PUSH4 0x313CE567 PUSH1 0xE0 SHL DUP2 MSTORE SWAP1 MLOAD PUSH1 0x0 SWAP3 SWAP2 PUSH4 0x313CE567 SWAP2 PUSH1 0x4 DUP1 DUP4 ADD SWAP3 PUSH1 0x20 SWAP3 SWAP2 SWAP1 DUP3 SWAP1 SUB ADD DUP2 DUP7 GAS STATICCALL ISZERO DUP1 ISZERO PUSH2 0x290 JUMPI RETURNDATASIZE PUSH1 0x0 DUP1 RETURNDATACOPY RETURNDATASIZE PUSH1 0x0 REVERT JUMPDEST POP POP POP POP PUSH1 0x40 MLOAD RETURNDATASIZE PUSH1 0x1F NOT PUSH1 0x1F DUP3 ADD AND DUP3 ADD DUP1 PUSH1 0x40 MSTORE POP DUP2 ADD SWAP1 PUSH2 0x2B4 SWAP2 SWAP1 PUSH2 0xF92 JUMP JUMPDEST PUSH1 0xFF AND SWAP1 POP PUSH2 0x2C4 DUP2 PUSH1 0x12 PUSH2 0xFCB JUMP JUMPDEST PUSH1 0x3 SSTORE POP POP JUMP JUMPDEST PUSH1 0x5 DUP2 DUP2 SLOAD DUP2 LT PUSH2 0x2DB JUMPI PUSH1 0x0 DUP1 REVERT JUMPDEST PUSH1 0x0 SWAP2 DUP3 MSTORE PUSH1 0x20 SWAP1 SWAP2 KECCAK256 ADD SLOAD PUSH1 0x1 PUSH1 0x1 PUSH1 0xA0 SHL SUB AND SWAP1 POP DUP2 JUMP JUMPDEST PUSH1 0x1 SLOAD PUSH1 0x2 SLOAD PUSH1 0x40 MLOAD PUSH4 0xE6A43905 PUSH1 0xE0 SHL DUP2 MSTORE PUSH1 0x0 SWAP3 PUSH8 0xDE0B6B3A7640000 SWAP3 PUSH1 0x1 PUSH1 0x1 PUSH1 0xA0 SHL SUB DUP1 DUP8 AND SWAP4 PUSH4 0xE6A43905 SWAP4 PUSH2 0x339 SWAP4 SWAP1 DUP4 AND SWAP3 AND SWAP1 PUSH1 0x4 ADD PUSH2 0xFE4 JUMP JUMPDEST PUSH1 0x20 PUSH1 0x40 MLOAD DUP1 DUP4 SUB DUP2 DUP7 GAS STATICCALL SWAP3 POP POP POP DUP1 ISZERO PUSH2 0x372 JUMPI POP PUSH1 0x40 DUP1 MLOAD PUSH1 0x1F RETURNDATASIZE SWAP1 DUP2 ADD PUSH1 0x1F NOT AND DUP3 ADD SWAP1 SWAP3 MSTORE PUSH2 0x36F SWAP2 DUP2 ADD SWAP1 PUSH2 0xFFE JUMP JUMPDEST PUSH1 0x1 JUMPDEST ISZERO PUSH2 0x57E JUMPI POP PUSH1 0x1 SLOAD PUSH1 0x2 SLOAD PUSH1 0x40 MLOAD PUSH4 0xE6A43905 PUSH1 0xE0 SHL DUP2 MSTORE PUSH1 0x0 SWAP3 PUSH1 0x1 PUSH1 0x1 PUSH1 0xA0 SHL SUB DUP8 DUP2 AND SWAP4 PUSH4 0xE6A43905 SWAP4 PUSH2 0x3B3 SWAP4 DUP4 AND SWAP3 SWAP1 SWAP2 AND SWAP1 PUSH1 0x4 ADD PUSH2 0xFE4 JUMP JUMPDEST PUSH1 0x20 PUSH1 0x40 MLOAD DUP1 DUP4 SUB DUP2 DUP7 GAS STATICCALL ISZERO DUP1 ISZERO PUSH2 0x3D0 JUMPI RETURNDATASIZE PUSH1 0x0 DUP1 RETURNDATACOPY RETURNDATASIZE PUSH1 0x0 REVERT JUMPDEST POP POP POP POP PUSH1 0x40 MLOAD RETURNDATASIZE PUSH1 0x1F NOT PUSH1 0x1F DUP3 ADD AND DUP3 ADD DUP1 PUSH1 0x40 MSTORE POP DUP2 ADD SWAP1 PUSH2 0x3F4 SWAP2 SWAP1 PUSH2 0xFFE JUMP JUMPDEST SWAP1 POP PUSH1 0x0 DUP1 DUP3 PUSH1 0x1 PUSH1 0x1 PUSH1 0xA0 SHL SUB AND PUSH4 0x902F1AC PUSH1 0x40 MLOAD DUP2 PUSH4 0xFFFFFFFF AND PUSH1 0xE0 SHL DUP2 MSTORE PUSH1 0x4 ADD PUSH1 0x60 PUSH1 0x40 MLOAD DUP1 DUP4 SUB DUP2 DUP7 GAS STATICCALL ISZERO DUP1 ISZERO PUSH2 0x437 JUMPI RETURNDATASIZE PUSH1 0x0 DUP1 RETURNDATACOPY RETURNDATASIZE PUSH1 0x0 REVERT JUMPDEST POP POP POP POP PUSH1 0x40 MLOAD RETURNDATASIZE PUSH1 0x1F NOT PUSH1 0x1F DUP3 ADD AND DUP3 ADD DUP1 PUSH1 0x40 MSTORE POP DUP2 ADD SWAP1 PUSH2 0x45B SWAP2 SWAP1 PUSH2 0x1037 JUMP JUMPDEST POP PUSH1 0x1 PUSH1 0x1 PUSH1 0x70 SHL SUB AND SWAP2 POP PUSH1 0x1 PUSH1 0x1 PUSH1 0x70 SHL SUB AND SWAP2 POP PUSH1 0x0 DUP4 PUSH1 0x1 PUSH1 0x1 PUSH1 0xA0 SHL SUB AND PUSH4 0xDFE1681 PUSH1 0x40 MLOAD DUP2 PUSH4 0xFFFFFFFF AND PUSH1 0xE0 SHL DUP2 MSTORE PUSH1 0x4 ADD PUSH1 0x20 PUSH1 0x40 MLOAD DUP1 DUP4 SUB DUP2 DUP7 GAS STATICCALL ISZERO DUP1 ISZERO PUSH2 0x4B2 JUMPI RETURNDATASIZE PUSH1 0x0 DUP1 RETURNDATACOPY RETURNDATASIZE PUSH1 0x0 REVERT JUMPDEST POP POP POP POP PUSH1 0x40 MLOAD RETURNDATASIZE PUSH1 0x1F NOT PUSH1 0x1F DUP3 ADD AND DUP3 ADD DUP1 PUSH1 0x40 MSTORE POP DUP2 ADD SWAP1 PUSH2 0x4D6 SWAP2 SWAP1 PUSH2 0xFFE JUMP JUMPDEST SWAP1 POP DUP3 ISZERO DUP1 ISZERO SWAP1 PUSH2 0x4E6 JUMPI POP DUP2 ISZERO ISZERO JUMPDEST ISZERO PUSH2 0x579 JUMPI PUSH1 0x1 SLOAD PUSH1 0x1 PUSH1 0x1 PUSH1 0xA0 SHL SUB SWAP1 DUP2 AND SWAP1 DUP3 AND SUB PUSH2 0x537 JUMPI DUP3 DUP6 PUSH1 0x3 SLOAD PUSH1 0xA PUSH2 0x512 SWAP2 SWAP1 PUSH2 0x116B JUMP JUMPDEST PUSH2 0x51C SWAP1 DUP6 PUSH2 0x1177 JUMP JUMPDEST PUSH2 0x526 SWAP2 SWAP1 PUSH2 0x1177 JUMP JUMPDEST PUSH2 0x530 SWAP2 SWAP1 PUSH2 0x118E JUMP JUMPDEST SWAP6 POP PUSH2 0x569 JUMP JUMPDEST DUP2 DUP6 PUSH1 0x3 SLOAD PUSH1 0xA PUSH2 0x548 SWAP2 SWAP1 PUSH2 0x116B JUMP JUMPDEST PUSH2 0x552 SWAP1 DUP7 PUSH2 0x1177 JUMP JUMPDEST PUSH2 0x55C SWAP2 SWAP1 PUSH2 0x1177 JUMP JUMPDEST PUSH2 0x566 SWAP2 SWAP1 PUSH2 0x118E JUMP JUMPDEST SWAP6 POP JUMPDEST DUP6 ISZERO PUSH2 0x579 JUMPI POP POP POP POP POP SWAP2 SWAP1 POP JUMP JUMPDEST POP POP POP POP JUMPDEST PUSH1 0x0 JUMPDEST PUSH1 0x5 SLOAD DUP2 LT ISZERO PUSH2 0x88F JUMPI DUP4 PUSH1 0x1 PUSH1 0x1 PUSH1 0xA0 SHL SUB AND PUSH1 0x5 DUP3 DUP2 SLOAD DUP2 LT PUSH2 0x5A8 JUMPI PUSH2 0x5A8 PUSH2 0x11B0 JUMP JUMPDEST PUSH1 0x0 SWAP2 DUP3 MSTORE PUSH1 0x20 SWAP1 SWAP2 KECCAK256 ADD SLOAD PUSH1 0x1 PUSH1 0x1 PUSH1 0xA0 SHL SUB AND EQ PUSH2 0x87D JUMPI PUSH1 0x5 DUP2 DUP2 SLOAD DUP2 LT PUSH2 0x5D5 JUMPI PUSH2 0x5D5 PUSH2 0x11B0 JUMP JUMPDEST PUSH1 0x0 SWAP2 DUP3 MSTORE PUSH1 0x20 SWAP1 SWAP2 KECCAK256 ADD SLOAD PUSH1 0x1 SLOAD PUSH1 0x2 SLOAD PUSH1 0x40 MLOAD PUSH4 0xE6A43905 PUSH1 0xE0 SHL DUP2 MSTORE PUSH1 0x1 PUSH1 0x1 PUSH1 0xA0 SHL SUB SWAP4 DUP5 AND SWAP4 PUSH4 0xE6A43905 SWAP4 PUSH2 0x619 SWAP4 SWAP1 DUP3 AND SWAP3 SWAP2 AND SWAP1 PUSH1 0x4 ADD PUSH2 0xFE4 JUMP JUMPDEST PUSH1 0x20 PUSH1 0x40 MLOAD DUP1 DUP4 SUB DUP2 DUP7 GAS STATICCALL SWAP3 POP POP POP DUP1 ISZERO PUSH2 0x652 JUMPI POP PUSH1 0x40 DUP1 MLOAD PUSH1 0x1F RETURNDATASIZE SWAP1 DUP2 ADD PUSH1 0x1F NOT AND DUP3 ADD SWAP1 SWAP3 MSTORE PUSH2 0x64F SWAP2 DUP2 ADD SWAP1 PUSH2 0xFFE JUMP JUMPDEST PUSH1 0x1 JUMPDEST ISZERO PUSH2 0x87D JUMPI POP PUSH1 0x0 PUSH1 0x5 DUP3 DUP2 SLOAD DUP2 LT PUSH2 0x66D JUMPI PUSH2 0x66D PUSH2 0x11B0 JUMP JUMPDEST PUSH1 0x0 SWAP2 DUP3 MSTORE PUSH1 0x20 SWAP1 SWAP2 KECCAK256 ADD SLOAD PUSH1 0x1 SLOAD PUSH1 0x2 SLOAD PUSH1 0x40 MLOAD PUSH4 0xE6A43905 PUSH1 0xE0 SHL DUP2 MSTORE PUSH1 0x1 PUSH1 0x1 PUSH1 0xA0 SHL SUB SWAP4 DUP5 AND SWAP4 PUSH4 0xE6A43905 SWAP4 PUSH2 0x6B1 SWAP4 SWAP1 DUP3 AND SWAP3 SWAP2 AND SWAP1 PUSH1 0x4 ADD PUSH2 0xFE4 JUMP JUMPDEST PUSH1 0x20 PUSH1 0x40 MLOAD DUP1 DUP4 SUB DUP2 DUP7 GAS STATICCALL ISZERO DUP1 ISZERO PUSH2 0x6CE JUMPI RETURNDATASIZE PUSH1 0x0 DUP1 RETURNDATACOPY RETURNDATASIZE PUSH1 0x0 REVERT JUMPDEST POP POP POP POP PUSH1 0x40 MLOAD RETURNDATASIZE PUSH1 0x1F NOT PUSH1 0x1F DUP3 ADD AND DUP3 ADD DUP1 PUSH1 0x40 MSTORE POP DUP2 ADD SWAP1 PUSH2 0x6F2 SWAP2 SWAP1 PUSH2 0xFFE JUMP JUMPDEST SWAP1 POP PUSH1 0x0 DUP1 DUP3 PUSH1 0x1 PUSH1 0x1 PUSH1 0xA0 SHL SUB AND PUSH4 0x902F1AC PUSH1 0x40 MLOAD DUP2 PUSH4 0xFFFFFFFF AND PUSH1 0xE0 SHL DUP2 MSTORE PUSH1 0x4 ADD PUSH1 0x60 PUSH1 0x40 MLOAD DUP1 DUP4 SUB DUP2 DUP7 GAS STATICCALL ISZERO DUP1 ISZERO PUSH2 0x735 JUMPI RETURNDATASIZE PUSH1 0x0 DUP1 RETURNDATACOPY RETURNDATASIZE PUSH1 0x0 REVERT JUMPDEST POP POP POP POP PUSH1 0x40 MLOAD RETURNDATASIZE PUSH1 0x1F NOT PUSH1 0x1F DUP3 ADD AND DUP3 ADD DUP1 PUSH1 0x40 MSTORE POP DUP2 ADD SWAP1 PUSH2 0x759 SWAP2 SWAP1 PUSH2 0x1037 JUMP JUMPDEST POP PUSH1 0x1 PUSH1 0x1 PUSH1 0x70 SHL SUB AND SWAP2 POP PUSH1 0x1 PUSH1 0x1 PUSH1 0x70 SHL SUB AND SWAP2 POP PUSH1 0x0 DUP4 PUSH1 0x1 PUSH1 0x1 PUSH1 0xA0 SHL SUB AND PUSH4 0xDFE1681 PUSH1 0x40 MLOAD DUP2 PUSH4 0xFFFFFFFF AND PUSH1 0xE0 SHL DUP2 MSTORE PUSH1 0x4 ADD PUSH1 0x20 PUSH1 0x40 MLOAD DUP1 DUP4 SUB DUP2 DUP7 GAS STATICCALL ISZERO DUP1 ISZERO PUSH2 0x7B0 JUMPI RETURNDATASIZE PUSH1 0x0 DUP1 RETURNDATACOPY RETURNDATASIZE PUSH1 0x0 REVERT JUMPDEST POP POP POP POP PUSH1 0x40 MLOAD RETURNDATASIZE PUSH1 0x1F NOT PUSH1 0x1F DUP3 ADD AND DUP3 ADD DUP1 PUSH1 0x40 MSTORE POP DUP2 ADD SWAP1 PUSH2 0x7D4 SWAP2 SWAP1 PUSH2 0xFFE JUMP JUMPDEST SWAP1 POP DUP3 ISZERO DUP1 ISZERO SWAP1 PUSH2 0x7E4 JUMPI POP DUP2 ISZERO ISZERO JUMPDEST ISZERO PUSH2 0x878 JUMPI PUSH1 0x1 SLOAD PUSH1 0x1 PUSH1 0x1 PUSH1 0xA0 SHL SUB SWAP1 DUP2 AND SWAP1 DUP3 AND SUB PUSH2 0x835 JUMPI DUP3 DUP7 PUSH1 0x3 SLOAD PUSH1 0xA PUSH2 0x810 SWAP2 SWAP1 PUSH2 0x116B JUMP JUMPDEST PUSH2 0x81A SWAP1 DUP6 PUSH2 0x1177 JUMP JUMPDEST PUSH2 0x824 SWAP2 SWAP1 PUSH2 0x1177 JUMP JUMPDEST PUSH2 0x82E SWAP2 SWAP1 PUSH2 0x118E JUMP JUMPDEST SWAP7 POP PUSH2 0x867 JUMP JUMPDEST DUP2 DUP7 PUSH1 0x3 SLOAD PUSH1 0xA PUSH2 0x846 SWAP2 SWAP1 PUSH2 0x116B JUMP JUMPDEST PUSH2 0x850 SWAP1 DUP7 PUSH2 0x1177 JUMP JUMPDEST PUSH2 0x85A SWAP2 SWAP1 PUSH2 0x1177 JUMP JUMPDEST PUSH2 0x864 SWAP2 SWAP1 PUSH2 0x118E JUMP JUMPDEST SWAP7 POP JUMPDEST DUP7 ISZERO PUSH2 0x878 JUMPI POP POP POP POP POP POP SWAP2 SWAP1 POP JUMP JUMPDEST POP POP POP POP JUMPDEST DUP1 PUSH2 0x887 DUP2 PUSH2 0x11C6 JUMP JUMPDEST SWAP2 POP POP PUSH2 0x581 JUMP JUMPDEST POP PUSH1 0x0 SWAP4 SWAP3 POP POP POP JUMP JUMPDEST PUSH1 0x0 DUP1 SLOAD DUP2 SWAP1 DUP2 SWAP1 PUSH1 0x1 PUSH1 0x1 PUSH1 0xA0 SHL SUB AND DUP2 PUSH2 0x8B4 DUP7 PUSH2 0x2F5 JUMP JUMPDEST PUSH1 0x1 SLOAD PUSH1 0x40 MLOAD PUSH4 0xE6A43905 PUSH1 0xE0 SHL DUP2 MSTORE SWAP2 SWAP3 POP PUSH1 0x1 PUSH1 0x1 PUSH1 0xA0 SHL SUB DUP1 DUP10 AND SWAP3 PUSH4 0xE6A43905 SWAP3 PUSH2 0x8EA SWAP3 DUP13 SWAP3 SWAP2 AND SWAP1 PUSH1 0x4 ADD PUSH2 0xFE4 JUMP JUMPDEST PUSH1 0x20 PUSH1 0x40 MLOAD DUP1 DUP4 SUB DUP2 DUP7 GAS STATICCALL SWAP3 POP POP POP DUP1 ISZERO PUSH2 0x923 JUMPI POP PUSH1 0x40 DUP1 MLOAD PUSH1 0x1F RETURNDATASIZE SWAP1 DUP2 ADD PUSH1 0x1F NOT AND DUP3 ADD SWAP1 SWAP3 MSTORE PUSH2 0x920 SWAP2 DUP2 ADD SWAP1 PUSH2 0xFFE JUMP JUMPDEST PUSH1 0x1 JUMPDEST ISZERO PUSH2 0xA4B JUMPI POP PUSH1 0x1 SLOAD PUSH1 0x40 MLOAD PUSH4 0xE6A43905 PUSH1 0xE0 SHL DUP2 MSTORE PUSH1 0x1 PUSH1 0x1 PUSH1 0xA0 SHL SUB DUP1 DUP10 AND SWAP3 PUSH4 0xE6A43905 SWAP3 PUSH2 0x95B SWAP3 DUP13 SWAP3 AND SWAP1 PUSH1 0x4 ADD PUSH2 0xFE4 JUMP JUMPDEST PUSH1 0x20 PUSH1 0x40 MLOAD DUP1 DUP4 SUB DUP2 DUP7 GAS STATICCALL ISZERO DUP1 ISZERO PUSH2 0x978 JUMPI RETURNDATASIZE PUSH1 0x0 DUP1 RETURNDATACOPY RETURNDATASIZE PUSH1 0x0 REVERT JUMPDEST POP POP POP POP PUSH1 0x40 MLOAD RETURNDATASIZE PUSH1 0x1F NOT PUSH1 0x1F DUP3 ADD AND DUP3 ADD DUP1 PUSH1 0x40 MSTORE POP DUP2 ADD SWAP1 PUSH2 0x99C SWAP2 SWAP1 PUSH2 0xFFE JUMP JUMPDEST PUSH1 0x0 SLOAD SWAP1 SWAP3 POP PUSH1 0x1 PUSH1 0x1 PUSH1 0xA0 SHL SUB SWAP1 DUP2 AND SWAP1 DUP4 AND SUB PUSH2 0xA4B JUMPI PUSH1 0x2 SLOAD PUSH1 0x40 MLOAD PUSH4 0xE6A43905 PUSH1 0xE0 SHL DUP2 MSTORE PUSH1 0x1 PUSH1 0x1 PUSH1 0xA0 SHL SUB DUP1 DUP10 AND SWAP3 PUSH4 0xE6A43905 SWAP3 PUSH2 0x9E7 SWAP3 DUP13 SWAP3 AND SWAP1 PUSH1 0x4 ADD PUSH2 0xFE4 JUMP JUMPDEST PUSH1 0x20 PUSH1 0x40 MLOAD DUP1 DUP4 SUB DUP2 DUP7 GAS STATICCALL ISZERO DUP1 ISZERO PUSH2 0xA04 JUMPI RETURNDATASIZE PUSH1 0x0 DUP1 RETURNDATACOPY RETURNDATASIZE PUSH1 0x0 REVERT JUMPDEST POP POP POP POP PUSH1 0x40 MLOAD RETURNDATASIZE PUSH1 0x1F NOT PUSH1 0x1F DUP3 ADD AND DUP3 ADD DUP1 PUSH1 0x40 MSTORE POP DUP2 ADD SWAP1 PUSH2 0xA28 SWAP2 SWAP1 PUSH2 0xFFE JUMP JUMPDEST PUSH1 0x0 SLOAD SWAP1 SWAP3 POP PUSH1 0x1 PUSH1 0x1 PUSH1 0xA0 SHL SUB DUP1 DUP5 AND SWAP2 AND EQ PUSH2 0xA4B JUMPI POP PUSH8 0xDE0B6B3A7640000 JUMPDEST PUSH1 0x0 SLOAD PUSH1 0x1 PUSH1 0x1 PUSH1 0xA0 SHL SUB SWAP1 DUP2 AND SWAP1 DUP4 AND SUB PUSH2 0xC90 JUMPI PUSH1 0x0 JUMPDEST PUSH1 0x5 SLOAD DUP2 LT ISZERO PUSH2 0xC8E JUMPI PUSH1 0x5 DUP2 DUP2 SLOAD DUP2 LT PUSH2 0xA81 JUMPI PUSH2 0xA81 PUSH2 0x11B0 JUMP JUMPDEST PUSH1 0x0 SWAP2 DUP3 MSTORE PUSH1 0x20 SWAP1 SWAP2 KECCAK256 ADD SLOAD PUSH1 0x1 SLOAD PUSH1 0x40 MLOAD PUSH4 0xE6A43905 PUSH1 0xE0 SHL DUP2 MSTORE PUSH1 0x1 PUSH1 0x1 PUSH1 0xA0 SHL SUB SWAP3 DUP4 AND SWAP3 PUSH4 0xE6A43905 SWAP3 PUSH2 0xAC1 SWAP3 DUP14 SWAP3 SWAP1 SWAP2 AND SWAP1 PUSH1 0x4 ADD PUSH2 0xFE4 JUMP JUMPDEST PUSH1 0x20 PUSH1 0x40 MLOAD DUP1 DUP4 SUB DUP2 DUP7 GAS STATICCALL SWAP3 POP POP POP DUP1 ISZERO PUSH2 0xAFA JUMPI POP PUSH1 0x40 DUP1 MLOAD PUSH1 0x1F RETURNDATASIZE SWAP1 DUP2 ADD PUSH1 0x1F NOT AND DUP3 ADD SWAP1 SWAP3 MSTORE PUSH2 0xAF7 SWAP2 DUP2 ADD SWAP1 PUSH2 0xFFE JUMP JUMPDEST PUSH1 0x1 JUMPDEST ISZERO PUSH2 0xC7C JUMPI POP PUSH1 0x5 DUP2 DUP2 SLOAD DUP2 LT PUSH2 0xB13 JUMPI PUSH2 0xB13 PUSH2 0x11B0 JUMP JUMPDEST PUSH1 0x0 SWAP2 DUP3 MSTORE PUSH1 0x20 SWAP1 SWAP2 KECCAK256 ADD SLOAD PUSH1 0x1 SLOAD PUSH1 0x40 MLOAD PUSH4 0xE6A43905 PUSH1 0xE0 SHL DUP2 MSTORE PUSH1 0x1 PUSH1 0x1 PUSH1 0xA0 SHL SUB SWAP3 DUP4 AND SWAP3 PUSH4 0xE6A43905 SWAP3 PUSH2 0xB53 SWAP3 DUP14 SWAP3 SWAP1 SWAP2 AND SWAP1 PUSH1 0x4 ADD PUSH2 0xFE4 JUMP JUMPDEST PUSH1 0x20 PUSH1 0x40 MLOAD DUP1 DUP4 SUB DUP2 DUP7 GAS STATICCALL ISZERO DUP1 ISZERO PUSH2 0xB70 JUMPI RETURNDATASIZE PUSH1 0x0 DUP1 RETURNDATACOPY RETURNDATASIZE PUSH1 0x0 REVERT JUMPDEST POP POP POP POP PUSH1 0x40 MLOAD RETURNDATASIZE PUSH1 0x1F NOT PUSH1 0x1F DUP3 ADD AND DUP3 ADD DUP1 PUSH1 0x40 MSTORE POP DUP2 ADD SWAP1 PUSH2 0xB94 SWAP2 SWAP1 PUSH2 0xFFE JUMP JUMPDEST PUSH1 0x0 SLOAD SWAP1 SWAP4 POP PUSH1 0x1 PUSH1 0x1 PUSH1 0xA0 SHL SUB SWAP1 DUP2 AND SWAP1 DUP5 AND SUB PUSH2 0xC65 JUMPI PUSH1 0x5 DUP2 DUP2 SLOAD DUP2 LT PUSH2 0xBC0 JUMPI PUSH2 0xBC0 PUSH2 0x11B0 JUMP JUMPDEST PUSH1 0x0 SWAP2 DUP3 MSTORE PUSH1 0x20 SWAP1 SWAP2 KECCAK256 ADD SLOAD PUSH1 0x2 SLOAD PUSH1 0x40 MLOAD PUSH4 0xE6A43905 PUSH1 0xE0 SHL DUP2 MSTORE PUSH1 0x1 PUSH1 0x1 PUSH1 0xA0 SHL SUB SWAP3 DUP4 AND SWAP3 PUSH4 0xE6A43905 SWAP3 PUSH2 0xC00 SWAP3 DUP14 SWAP3 SWAP1 SWAP2 AND SWAP1 PUSH1 0x4 ADD PUSH2 0xFE4 JUMP JUMPDEST PUSH1 0x20 PUSH1 0x40 MLOAD DUP1 DUP4 SUB DUP2 DUP7 GAS STATICCALL ISZERO DUP1 ISZERO PUSH2 0xC1D JUMPI RETURNDATASIZE PUSH1 0x0 DUP1 RETURNDATACOPY RETURNDATASIZE PUSH1 0x0 REVERT JUMPDEST POP POP POP POP PUSH1 0x40 MLOAD RETURNDATASIZE PUSH1 0x1F NOT PUSH1 0x1F DUP3 ADD AND DUP3 ADD DUP1 PUSH1 0x40 MSTORE POP DUP2 ADD SWAP1 PUSH2 0xC41 SWAP2 SWAP1 PUSH2 0xFFE JUMP JUMPDEST PUSH1 0x0 SLOAD SWAP1 SWAP4 POP PUSH1 0x1 PUSH1 0x1 PUSH1 0xA0 SHL SUB DUP1 DUP6 AND SWAP2 AND EQ PUSH2 0xC65 JUMPI PUSH8 0xDE0B6B3A7640000 SWAP2 POP JUMPDEST PUSH1 0x0 SLOAD PUSH1 0x1 PUSH1 0x1 PUSH1 0xA0 SHL SUB SWAP1 DUP2 AND SWAP1 DUP5 AND SUB PUSH2 0xC8E JUMPI JUMPDEST DUP1 PUSH2 0xC86 DUP2 PUSH2 0x11C6 JUMP JUMPDEST SWAP2 POP POP PUSH2 0xA64 JUMP JUMPDEST POP JUMPDEST DUP2 PUSH1 0x1 PUSH1 0x1 PUSH1 0xA0 SHL SUB AND PUSH4 0x902F1AC PUSH1 0x40 MLOAD DUP2 PUSH4 0xFFFFFFFF AND PUSH1 0xE0 SHL DUP2 MSTORE PUSH1 0x4 ADD PUSH1 0x60 PUSH1 0x40 MLOAD DUP1 DUP4 SUB DUP2 DUP7 GAS STATICCALL SWAP3 POP POP POP DUP1 ISZERO PUSH2 0xCEA JUMPI POP PUSH1 0x40 DUP1 MLOAD PUSH1 0x1F RETURNDATASIZE SWAP1 DUP2 ADD PUSH1 0x1F NOT AND DUP3 ADD SWAP1 SWAP3 MSTORE PUSH2 0xCE7 SWAP2 DUP2 ADD SWAP1 PUSH2 0x1037 JUMP JUMPDEST PUSH1 0x1 JUMPDEST PUSH2 0xD00 JUMPI PUSH1 0x0 DUP1 PUSH1 0x0 SWAP5 POP SWAP5 POP SWAP5 POP POP POP PUSH2 0xEE7 JUMP JUMPDEST POP POP POP PUSH1 0x0 DUP1 DUP4 PUSH1 0x1 PUSH1 0x1 PUSH1 0xA0 SHL SUB AND PUSH4 0x902F1AC PUSH1 0x40 MLOAD DUP2 PUSH4 0xFFFFFFFF AND PUSH1 0xE0 SHL DUP2 MSTORE PUSH1 0x4 ADD PUSH1 0x60 PUSH1 0x40 MLOAD DUP1 DUP4 SUB DUP2 DUP7 GAS STATICCALL ISZERO DUP1 ISZERO PUSH2 0xD44 JUMPI RETURNDATASIZE PUSH1 0x0 DUP1 RETURNDATACOPY RETURNDATASIZE PUSH1 0x0 REVERT JUMPDEST POP POP POP POP PUSH1 0x40 MLOAD RETURNDATASIZE PUSH1 0x1F NOT PUSH1 0x1F DUP3 ADD AND DUP3 ADD DUP1 PUSH1 0x40 MSTORE POP DUP2 ADD SWAP1 PUSH2 0xD68 SWAP2 SWAP1 PUSH2 0x1037 JUMP JUMPDEST POP PUSH1 0x1 PUSH1 0x1 PUSH1 0x70 SHL SUB AND SWAP2 POP PUSH1 0x1 PUSH1 0x1 PUSH1 0x70 SHL SUB AND SWAP2 POP PUSH1 0x0 DUP5 PUSH1 0x1 PUSH1 0x1 PUSH1 0xA0 SHL SUB AND PUSH4 0xDFE1681 PUSH1 0x40 MLOAD DUP2 PUSH4 0xFFFFFFFF AND PUSH1 0xE0 SHL DUP2 MSTORE PUSH1 0x4 ADD PUSH1 0x20 PUSH1 0x40 MLOAD DUP1 DUP4 SUB DUP2 DUP7 GAS STATICCALL ISZERO DUP1 ISZERO PUSH2 0xDBF JUMPI RETURNDATASIZE PUSH1 0x0 DUP1 RETURNDATACOPY RETURNDATASIZE PUSH1 0x0 REVERT JUMPDEST POP POP POP POP PUSH1 0x40 MLOAD RETURNDATASIZE PUSH1 0x1F NOT PUSH1 0x1F DUP3 ADD AND DUP3 ADD DUP1 PUSH1 0x40 MSTORE POP DUP2 ADD SWAP1 PUSH2 0xDE3 SWAP2 SWAP1 PUSH2 0xFFE JUMP JUMPDEST SWAP1 POP PUSH1 0x0 DUP6 PUSH1 0x1 PUSH1 0x1 PUSH1 0xA0 SHL SUB AND PUSH4 0xD21220A7 PUSH1 0x40 MLOAD DUP2 PUSH4 0xFFFFFFFF AND PUSH1 0xE0 SHL DUP2 MSTORE PUSH1 0x4 ADD PUSH1 0x20 PUSH1 0x40 MLOAD DUP1 DUP4 SUB DUP2 DUP7 GAS STATICCALL ISZERO DUP1 ISZERO PUSH2 0xE25 JUMPI RETURNDATASIZE PUSH1 0x0 DUP1 RETURNDATACOPY RETURNDATASIZE PUSH1 0x0 REVERT JUMPDEST POP POP POP POP PUSH1 0x40 MLOAD RETURNDATASIZE PUSH1 0x1F NOT PUSH1 0x1F DUP3 ADD AND DUP3 ADD DUP1 PUSH1 0x40 MSTORE POP DUP2 ADD SWAP1 PUSH2 0xE49 SWAP2 SWAP1 PUSH2 0xFFE JUMP JUMPDEST SWAP1 POP DUP11 PUSH1 0x1 PUSH1 0x1 PUSH1 0xA0 SHL SUB AND DUP3 PUSH1 0x1 PUSH1 0x1 PUSH1 0xA0 SHL SUB AND SUB PUSH2 0xEA4 JUMPI PUSH1 0x2 SLOAD PUSH1 0x1 PUSH1 0x1 PUSH1 0xA0 SHL SUB DUP3 DUP2 AND SWAP2 AND EQ PUSH2 0xE7F JUMPI DUP3 PUSH2 0xE97 JUMP JUMPDEST PUSH1 0x3 SLOAD PUSH2 0xE8D SWAP1 PUSH1 0xA PUSH2 0x116B JUMP JUMPDEST PUSH2 0xE97 SWAP1 DUP5 PUSH2 0x1177 JUMP JUMPDEST SWAP9 POP DUP4 SWAP8 POP DUP5 SWAP7 POP PUSH2 0xEE0 JUMP JUMPDEST PUSH1 0x2 SLOAD PUSH1 0x1 PUSH1 0x1 PUSH1 0xA0 SHL SUB DUP4 DUP2 AND SWAP2 AND EQ PUSH2 0xEBF JUMPI DUP4 PUSH2 0xED7 JUMP JUMPDEST PUSH1 0x3 SLOAD PUSH2 0xECD SWAP1 PUSH1 0xA PUSH2 0x116B JUMP JUMPDEST PUSH2 0xED7 SWAP1 DUP6 PUSH2 0x1177 JUMP JUMPDEST SWAP9 POP DUP3 SWAP8 POP DUP5 SWAP7 POP JUMPDEST POP POP POP POP POP POP JUMPDEST SWAP3 POP SWAP3 POP SWAP3 JUMP JUMPDEST PUSH1 0x1 PUSH1 0x1 PUSH1 0xA0 SHL SUB DUP2 AND DUP2 EQ PUSH2 0x1EB JUMPI PUSH1 0x0 DUP1 REVERT JUMPDEST PUSH1 0x0 PUSH1 0x20 DUP3 DUP5 SUB SLT ISZERO PUSH2 0xF15 JUMPI PUSH1 0x0 DUP1 REVERT JUMPDEST DUP2 CALLDATALOAD PUSH2 0xF20 DUP2 PUSH2 0xEEE JUMP JUMPDEST SWAP4 SWAP3 POP POP POP JUMP JUMPDEST PUSH1 0x0 PUSH1 0x20 DUP3 DUP5 SUB SLT ISZERO PUSH2 0xF39 JUMPI PUSH1 0x0 DUP1 REVERT JUMPDEST POP CALLDATALOAD SWAP2 SWAP1 POP JUMP JUMPDEST PUSH1 0x0 DUP1 PUSH1 0x40 DUP4 DUP6 SUB SLT ISZERO PUSH2 0xF53 JUMPI PUSH1 0x0 DUP1 REVERT JUMPDEST DUP3 CALLDATALOAD PUSH2 0xF5E DUP2 PUSH2 0xEEE JUMP JUMPDEST SWAP2 POP PUSH1 0x20 DUP4 ADD CALLDATALOAD PUSH2 0xF6E DUP2 PUSH2 0xEEE JUMP JUMPDEST DUP1 SWAP2 POP POP SWAP3 POP SWAP3 SWAP1 POP JUMP JUMPDEST PUSH1 0x0 PUSH1 0x20 DUP3 DUP5 SUB SLT ISZERO PUSH2 0xF8B JUMPI PUSH1 0x0 DUP1 REVERT JUMPDEST POP MLOAD SWAP2 SWAP1 POP JUMP JUMPDEST PUSH1 0x0 PUSH1 0x20 DUP3 DUP5 SUB SLT ISZERO PUSH2 0xFA4 JUMPI PUSH1 0x0 DUP1 REVERT JUMPDEST DUP2 MLOAD PUSH1 0xFF DUP2 AND DUP2 EQ PUSH2 0xF20 JUMPI PUSH1 0x0 DUP1 REVERT JUMPDEST PUSH4 0x4E487B71 PUSH1 0xE0 SHL PUSH1 0x0 MSTORE PUSH1 0x11 PUSH1 0x4 MSTORE PUSH1 0x24 PUSH1 0x0 REVERT JUMPDEST DUP2 DUP2 SUB DUP2 DUP2 GT ISZERO PUSH2 0xFDE JUMPI PUSH2 0xFDE PUSH2 0xFB5 JUMP JUMPDEST SWAP3 SWAP2 POP POP JUMP JUMPDEST PUSH1 0x1 PUSH1 0x1 PUSH1 0xA0 SHL SUB SWAP3 DUP4 AND DUP2 MSTORE SWAP2 AND PUSH1 0x20 DUP3 ADD MSTORE PUSH1 0x40 ADD SWAP1 JUMP JUMPDEST PUSH1 0x0 PUSH1 0x20 DUP3 DUP5 SUB SLT ISZERO PUSH2 0x1010 JUMPI PUSH1 0x0 DUP1 REVERT JUMPDEST DUP2 MLOAD PUSH2 0xF20 DUP2 PUSH2 0xEEE JUMP JUMPDEST DUP1 MLOAD PUSH1 0x1 PUSH1 0x1 PUSH1 0x70 SHL SUB DUP2 AND DUP2 EQ PUSH2 0x1032 JUMPI PUSH1 0x0 DUP1 REVERT JUMPDEST SWAP2 SWAP1 POP JUMP JUMPDEST PUSH1 0x0 DUP1 PUSH1 0x0 PUSH1 0x60 DUP5 DUP7 SUB SLT ISZERO PUSH2 0x104C JUMPI PUSH1 0x0 DUP1 REVERT JUMPDEST PUSH2 0x1055 DUP5 PUSH2 0x101B JUMP JUMPDEST SWAP3 POP PUSH2 0x1063 PUSH1 0x20 DUP6 ADD PUSH2 0x101B JUMP JUMPDEST SWAP2 POP PUSH1 0x40 DUP5 ADD MLOAD PUSH4 0xFFFFFFFF DUP2 AND DUP2 EQ PUSH2 0x107C JUMPI PUSH1 0x0 DUP1 REVERT JUMPDEST DUP1 SWAP2 POP POP SWAP3 POP SWAP3 POP SWAP3 JUMP JUMPDEST PUSH1 0x1 DUP2 DUP2 JUMPDEST DUP1 DUP6 GT ISZERO PUSH2 0x10C2 JUMPI DUP2 PUSH1 0x0 NOT DIV DUP3 GT ISZERO PUSH2 0x10A8 JUMPI PUSH2 0x10A8 PUSH2 0xFB5 JUMP JUMPDEST DUP1 DUP6 AND ISZERO PUSH2 0x10B5 JUMPI SWAP2 DUP2 MUL SWAP2 JUMPDEST SWAP4 DUP5 SHR SWAP4 SWAP1 DUP1 MUL SWAP1 PUSH2 0x108C JUMP JUMPDEST POP SWAP3 POP SWAP3 SWAP1 POP JUMP JUMPDEST PUSH1 0x0 DUP3 PUSH2 0x10D9 JUMPI POP PUSH1 0x1 PUSH2 0xFDE JUMP JUMPDEST DUP2 PUSH2 0x10E6 JUMPI POP PUSH1 0x0 PUSH2 0xFDE JUMP JUMPDEST DUP2 PUSH1 0x1 DUP2 EQ PUSH2 0x10FC JUMPI PUSH1 0x2 DUP2 EQ PUSH2 0x1106 JUMPI PUSH2 0x1122 JUMP JUMPDEST PUSH1 0x1 SWAP2 POP POP PUSH2 0xFDE JUMP JUMPDEST PUSH1 0xFF DUP5 GT ISZERO PUSH2 0x1117 JUMPI PUSH2 0x1117 PUSH2 0xFB5 JUMP JUMPDEST POP POP PUSH1 0x1 DUP3 SHL PUSH2 0xFDE JUMP JUMPDEST POP PUSH1 0x20 DUP4 LT PUSH2 0x133 DUP4 LT AND PUSH1 0x4E DUP5 LT PUSH1 0xB DUP5 LT AND OR ISZERO PUSH2 0x1145 JUMPI POP DUP2 DUP2 EXP PUSH2 0xFDE JUMP JUMPDEST PUSH2 0x114F DUP4 DUP4 PUSH2 0x1087 JUMP JUMPDEST DUP1 PUSH1 0x0 NOT DIV DUP3 GT ISZERO PUSH2 0x1163 JUMPI PUSH2 0x1163 PUSH2 0xFB5 JUMP JUMPDEST MUL SWAP4 SWAP3 POP POP POP JUMP JUMPDEST PUSH1 0x0 PUSH2 0xF20 DUP4 DUP4 PUSH2 0x10CA JUMP JUMPDEST DUP1 DUP3 MUL DUP2 ISZERO DUP3 DUP3 DIV DUP5 EQ OR PUSH2 0xFDE JUMPI PUSH2 0xFDE PUSH2 0xFB5 JUMP JUMPDEST PUSH1 0x0 DUP3 PUSH2 0x11AB JUMPI PUSH4 0x4E487B71 PUSH1 0xE0 SHL PUSH1 0x0 MSTORE PUSH1 0x12 PUSH1 0x4 MSTORE PUSH1 0x24 PUSH1 0x0 REVERT JUMPDEST POP DIV SWAP1 JUMP JUMPDEST PUSH4 0x4E487B71 PUSH1 0xE0 SHL PUSH1 0x0 MSTORE PUSH1 0x32 PUSH1 0x4 MSTORE PUSH1 0x24 PUSH1 0x0 REVERT JUMPDEST PUSH1 0x0 PUSH1 0x1 DUP3 ADD PUSH2 0x11D8 JUMPI PUSH2 0x11D8 PUSH2 0xFB5 JUMP JUMPDEST POP PUSH1 0x1 ADD SWAP1 JUMP INVALID LOG2 PUSH5 0x6970667358 0x22 SLT KECCAK256 0xAA SLOAD TIMESTAMP 0x24 0xC4 0xB6 PUSH24 0xD740A0B01CBFC02F672A2E93CFDB54B4156C49D1EA8E2224 0x2D PUSH5 0x736F6C6343 STOP ADDMOD SLT STOP CALLER "
				},
				"gasEstimates": {
					"creation": {
						"codeDepositCost": "925800",
						"executionCost": "infinite",
						"totalCost": "infinite"
					},
					"external": {
						"TokenPrice(address,address)": "infinite",
						"addFactory(address)": "infinite",
						"changeUSDT(address)": "infinite",
						"factories(uint256)": "4625",
						"getBNBPrice(address)": "infinite"
					}
				},
				"methodIdentifiers": {
					"TokenPrice(address,address)": "a6d6e2ca",
					"addFactory(address)": "29ce1ec5",
					"changeUSDT(address)": "4782e407",
					"factories(uint256)": "672383c4",
					"getBNBPrice(address)": "6cff8234"
				}
			},
			"storageLayout": {
				"storage": [
					{
						"astId": 79,
						"contract": "ZKSYNC/priceChecker.sol:TokenPriceCheck",
						"label": "zeroA",
						"offset": 0,
						"slot": "0",
						"type": "t_address"
					},
					{
						"astId": 81,
						"contract": "ZKSYNC/priceChecker.sol:TokenPriceCheck",
						"label": "bnb",
						"offset": 0,
						"slot": "1",
						"type": "t_address"
					},
					{
						"astId": 83,
						"contract": "ZKSYNC/priceChecker.sol:TokenPriceCheck",
						"label": "usdt",
						"offset": 0,
						"slot": "2",
						"type": "t_address"
					},
					{
						"astId": 85,
						"contract": "ZKSYNC/priceChecker.sol:TokenPriceCheck",
						"label": "usdtDecimalConversion",
						"offset": 0,
						"slot": "3",
						"type": "t_uint256"
					},
					{
						"astId": 87,
						"contract": "ZKSYNC/priceChecker.sol:TokenPriceCheck",
						"label": "owner",
						"offset": 0,
						"slot": "4",
						"type": "t_address"
					},
					{
						"astId": 90,
						"contract": "ZKSYNC/priceChecker.sol:TokenPriceCheck",
						"label": "factories",
						"offset": 0,
						"slot": "5",
						"type": "t_array(t_address)dyn_storage"
					}
				],
				"types": {
					"t_address": {
						"encoding": "inplace",
						"label": "address",
						"numberOfBytes": "20"
					},
					"t_array(t_address)dyn_storage": {
						"base": "t_address",
						"encoding": "dynamic_array",
						"label": "address[]",
						"numberOfBytes": "32"
					},
					"t_uint256": {
						"encoding": "inplace",
						"label": "uint256",
						"numberOfBytes": "32"
					}
				}
			},
			"userdoc": {
				"kind": "user",
				"methods": {},
				"version": 1
			}
		}
	}
}