{
	"ZKSYNC/infoChef.sol": {
		"FarmCollection": {
			"abi": [
				{
					"inputs": [
						{
							"internalType": "uint256",
							"name": "pid",
							"type": "uint256"
						},
						{
							"internalType": "address",
							"name": "_MC",
							"type": "address"
						},
						{
							"internalType": "address",
							"name": "lpToken",
							"type": "address"
						},
						{
							"internalType": "address",
							"name": "qToken",
							"type": "address"
						},
						{
							"internalType": "address",
							"name": "token",
							"type": "address"
						}
					],
					"name": "farmInfo",
					"outputs": [
						{
							"internalType": "uint256",
							"name": "APOINT",
							"type": "uint256"
						},
						{
							"internalType": "uint256",
							"name": "TAPOINT",
							"type": "uint256"
						},
						{
							"internalType": "uint256",
							"name": "tBalLP",
							"type": "uint256"
						},
						{
							"internalType": "uint256",
							"name": "qtBalLP",
							"type": "uint256"
						},
						{
							"internalType": "uint256",
							"name": "lpBalMC",
							"type": "uint256"
						},
						{
							"internalType": "uint256",
							"name": "lpTotalSupply",
							"type": "uint256"
						}
					],
					"stateMutability": "view",
					"type": "function"
				},
				{
					"inputs": [
						{
							"internalType": "address",
							"name": "factory",
							"type": "address"
						},
						{
							"internalType": "uint256",
							"name": "start",
							"type": "uint256"
						},
						{
							"internalType": "uint256",
							"name": "end",
							"type": "uint256"
						}
					],
					"name": "getApiInfo",
					"outputs": [
						{
							"internalType": "address[]",
							"name": "pair",
							"type": "address[]"
						},
						{
							"internalType": "address[]",
							"name": "tokenA",
							"type": "address[]"
						},
						{
							"internalType": "string[]",
							"name": "aName",
							"type": "string[]"
						},
						{
							"internalType": "string[]",
							"name": "aSym",
							"type": "string[]"
						},
						{
							"internalType": "uint256[]",
							"name": "aDec",
							"type": "uint256[]"
						},
						{
							"internalType": "address[]",
							"name": "tokenB",
							"type": "address[]"
						},
						{
							"internalType": "string[]",
							"name": "bName",
							"type": "string[]"
						},
						{
							"internalType": "string[]",
							"name": "bSym",
							"type": "string[]"
						},
						{
							"internalType": "uint256[]",
							"name": "bDec",
							"type": "uint256[]"
						}
					],
					"stateMutability": "view",
					"type": "function"
				},
				{
					"inputs": [
						{
							"internalType": "address",
							"name": "MC",
							"type": "address"
						}
					],
					"name": "getFarmInfo",
					"outputs": [
						{
							"internalType": "address[]",
							"name": "pair",
							"type": "address[]"
						},
						{
							"internalType": "address[]",
							"name": "tokenA",
							"type": "address[]"
						},
						{
							"internalType": "string[]",
							"name": "aName",
							"type": "string[]"
						},
						{
							"internalType": "string[]",
							"name": "aSym",
							"type": "string[]"
						},
						{
							"internalType": "uint256[]",
							"name": "aDec",
							"type": "uint256[]"
						},
						{
							"internalType": "address[]",
							"name": "tokenB",
							"type": "address[]"
						},
						{
							"internalType": "string[]",
							"name": "bName",
							"type": "string[]"
						},
						{
							"internalType": "string[]",
							"name": "bSym",
							"type": "string[]"
						},
						{
							"internalType": "uint256[]",
							"name": "bDec",
							"type": "uint256[]"
						}
					],
					"stateMutability": "view",
					"type": "function"
				},
				{
					"inputs": [
						{
							"internalType": "address",
							"name": "poolFactory",
							"type": "address"
						}
					],
					"name": "getNftPoolInfo",
					"outputs": [
						{
							"internalType": "address[]",
							"name": "contractAddress",
							"type": "address[]"
						},
						{
							"internalType": "address[]",
							"name": "stakeAddress",
							"type": "address[]"
						},
						{
							"internalType": "string[]",
							"name": "stakeName",
							"type": "string[]"
						},
						{
							"internalType": "string[]",
							"name": "stakeSym",
							"type": "string[]"
						},
						{
							"components": [
								{
									"internalType": "address[]",
									"name": "earnAddress",
									"type": "address[]"
								}
							],
							"internalType": "struct FarmCollection.EarningTokens[]",
							"name": "earnAddresses",
							"type": "tuple[]"
						}
					],
					"stateMutability": "view",
					"type": "function"
				},
				{
					"inputs": [
						{
							"internalType": "address",
							"name": "poolFactory",
							"type": "address"
						}
					],
					"name": "getPoolInfo",
					"outputs": [
						{
							"internalType": "address[]",
							"name": "contractAddress",
							"type": "address[]"
						},
						{
							"internalType": "address[]",
							"name": "stakeAddress",
							"type": "address[]"
						},
						{
							"internalType": "string[]",
							"name": "stakeName",
							"type": "string[]"
						},
						{
							"internalType": "string[]",
							"name": "stakeSym",
							"type": "string[]"
						},
						{
							"internalType": "uint256[]",
							"name": "stakeDec",
							"type": "uint256[]"
						},
						{
							"internalType": "address[]",
							"name": "earnAddress",
							"type": "address[]"
						},
						{
							"internalType": "string[]",
							"name": "earnName",
							"type": "string[]"
						},
						{
							"internalType": "string[]",
							"name": "earnSym",
							"type": "string[]"
						},
						{
							"internalType": "uint256[]",
							"name": "earnDec",
							"type": "uint256[]"
						}
					],
					"stateMutability": "view",
					"type": "function"
				},
				{
					"inputs": [
						{
							"internalType": "address",
							"name": "factory",
							"type": "address"
						}
					],
					"name": "getSaleInfos",
					"outputs": [
						{
							"internalType": "address[]",
							"name": "sale",
							"type": "address[]"
						},
						{
							"internalType": "address[]",
							"name": "token",
							"type": "address[]"
						},
						{
							"internalType": "string[]",
							"name": "tName",
							"type": "string[]"
						},
						{
							"internalType": "string[]",
							"name": "tSym",
							"type": "string[]"
						},
						{
							"internalType": "uint256[]",
							"name": "tDec",
							"type": "uint256[]"
						},
						{
							"internalType": "bool[]",
							"name": "finalized",
							"type": "bool[]"
						}
					],
					"stateMutability": "view",
					"type": "function"
				},
				{
					"inputs": [
						{
							"internalType": "address",
							"name": "factory",
							"type": "address"
						}
					],
					"name": "getSaleInfos2",
					"outputs": [
						{
							"internalType": "address[]",
							"name": "sale",
							"type": "address[]"
						},
						{
							"internalType": "address[]",
							"name": "token",
							"type": "address[]"
						},
						{
							"internalType": "string[]",
							"name": "tName",
							"type": "string[]"
						},
						{
							"internalType": "string[]",
							"name": "tSym",
							"type": "string[]"
						},
						{
							"internalType": "uint256[]",
							"name": "tDec",
							"type": "uint256[]"
						},
						{
							"internalType": "bool[]",
							"name": "finalized",
							"type": "bool[]"
						},
						{
							"internalType": "string[]",
							"name": "logoURI",
							"type": "string[]"
						},
						{
							"internalType": "string[]",
							"name": "websiteURI",
							"type": "string[]"
						},
						{
							"internalType": "string[]",
							"name": "bannerURI",
							"type": "string[]"
						},
						{
							"internalType": "uint256[]",
							"name": "userCount",
							"type": "uint256[]"
						},
						{
							"internalType": "uint256[]",
							"name": "claimCount",
							"type": "uint256[]"
						}
					],
					"stateMutability": "view",
					"type": "function"
				}
			],
			"devdoc": {
				"kind": "dev",
				"methods": {},
				"version": 1
			},
			"evm": {
				"assembly": "    /* \"ZKSYNC/infoChef.sol\":2908:12168  contract FarmCollection  {       ... */\n  mstore(0x40, 0x80)\n  callvalue\n  dup1\n  iszero\n  tag_1\n  jumpi\n  0x00\n  dup1\n  revert\ntag_1:\n  pop\n  dataSize(sub_0)\n  dup1\n  dataOffset(sub_0)\n  0x00\n  codecopy\n  0x00\n  return\nstop\n\nsub_0: assembly {\n        /* \"ZKSYNC/infoChef.sol\":2908:12168  contract FarmCollection  {       ... */\n      mstore(0x40, 0x80)\n      callvalue\n      dup1\n      iszero\n      tag_1\n      jumpi\n      0x00\n      dup1\n      revert\n    tag_1:\n      pop\n      jumpi(tag_2, lt(calldatasize, 0x04))\n      shr(0xe0, calldataload(0x00))\n      dup1\n      0x74c1017b\n      gt\n      tag_10\n      jumpi\n      dup1\n      0x74c1017b\n      eq\n      tag_6\n      jumpi\n      dup1\n      0xbb4b8ce2\n      eq\n      tag_7\n      jumpi\n      dup1\n      0xc7c7f923\n      eq\n      tag_8\n      jumpi\n      dup1\n      0xe767f7ee\n      eq\n      tag_9\n      jumpi\n      0x00\n      dup1\n      revert\n    tag_10:\n      dup1\n      0x06bfa938\n      eq\n      tag_3\n      jumpi\n      dup1\n      0x15d7518e\n      eq\n      tag_4\n      jumpi\n      dup1\n      0x1c9a4fd1\n      eq\n      tag_5\n      jumpi\n    tag_2:\n      0x00\n      dup1\n      revert\n        /* \"ZKSYNC/infoChef.sol\":8967:10546  function getPoolInfo(address poolFactory) external view returns (... */\n    tag_3:\n      tag_11\n      tag_12\n      calldatasize\n      0x04\n      tag_13\n      jump\t// in\n    tag_12:\n      tag_14\n      jump\t// in\n    tag_11:\n      mload(0x40)\n      tag_15\n      swap10\n      swap9\n      swap8\n      swap7\n      swap6\n      swap5\n      swap4\n      swap3\n      swap2\n      swap1\n      tag_16\n      jump\t// in\n    tag_15:\n      mload(0x40)\n      dup1\n      swap2\n      sub\n      swap1\n      return\n        /* \"ZKSYNC/infoChef.sol\":7377:8950  function getSaleInfos2(address factory) public view returns (... */\n    tag_4:\n      tag_17\n      tag_18\n      calldatasize\n      0x04\n      tag_13\n      jump\t// in\n    tag_18:\n      tag_19\n      jump\t// in\n    tag_17:\n      mload(0x40)\n      tag_15\n      swap12\n      swap11\n      swap10\n      swap9\n      swap8\n      swap7\n      swap6\n      swap5\n      swap4\n      swap3\n      swap2\n      swap1\n      tag_21\n      jump\t// in\n        /* \"ZKSYNC/infoChef.sol\":4952:6425  function getFarmInfo(address MC) external view returns(... */\n    tag_5:\n      tag_11\n      tag_23\n      calldatasize\n      0x04\n      tag_13\n      jump\t// in\n    tag_23:\n      tag_24\n      jump\t// in\n        /* \"ZKSYNC/infoChef.sol\":10633:12158  function getNftPoolInfo(address poolFactory) external view returns (... */\n    tag_6:\n      tag_26\n      tag_27\n      calldatasize\n      0x04\n      tag_13\n      jump\t// in\n    tag_27:\n      tag_28\n      jump\t// in\n    tag_26:\n      mload(0x40)\n      tag_15\n      swap6\n      swap5\n      swap4\n      swap3\n      swap2\n      swap1\n      tag_30\n      jump\t// in\n        /* \"ZKSYNC/infoChef.sol\":2949:4306  function getApiInfo(address factory, uint256 start, uint256 end) external view returns(... */\n    tag_7:\n      tag_11\n      tag_32\n      calldatasize\n      0x04\n      tag_33\n      jump\t// in\n    tag_32:\n      tag_34\n      jump\t// in\n        /* \"ZKSYNC/infoChef.sol\":4358:4943  function farmInfo(uint256 pid, address _MC, address lpToken, address qToken, address token) public view returns ( uint256 APOINT, uint256 TAPOINT, uint256 tBalLP, uint256 qtBalLP, uint256 lpBalMC, uint256 lpTotalSupply ) {... */\n    tag_8:\n      tag_36\n      tag_37\n      calldatasize\n      0x04\n      tag_38\n      jump\t// in\n    tag_37:\n      tag_39\n      jump\t// in\n    tag_36:\n      0x40\n      dup1\n      mload\n        /* \"#utility.yul\":10997:11022   */\n      swap7\n      dup8\n      mstore\n        /* \"#utility.yul\":11053:11055   */\n      0x20\n        /* \"#utility.yul\":11038:11056   */\n      dup8\n      add\n        /* \"#utility.yul\":11031:11065   */\n      swap6\n      swap1\n      swap6\n      mstore\n        /* \"#utility.yul\":11081:11099   */\n      swap4\n      dup6\n      add\n        /* \"#utility.yul\":11074:11108   */\n      swap3\n      swap1\n      swap3\n      mstore\n        /* \"#utility.yul\":11139:11141   */\n      0x60\n        /* \"#utility.yul\":11124:11142   */\n      dup5\n      add\n        /* \"#utility.yul\":11117:11151   */\n      mstore\n        /* \"#utility.yul\":11182:11185   */\n      0x80\n        /* \"#utility.yul\":11167:11186   */\n      dup4\n      add\n        /* \"#utility.yul\":11160:11195   */\n      mstore\n        /* \"#utility.yul\":11226:11229   */\n      0xa0\n        /* \"#utility.yul\":11211:11230   */\n      dup3\n      add\n        /* \"#utility.yul\":11204:11239   */\n      mstore\n        /* \"#utility.yul\":10984:10987   */\n      0xc0\n        /* \"#utility.yul\":10969:10988   */\n      add\n        /* \"ZKSYNC/infoChef.sol\":4358:4943  function farmInfo(uint256 pid, address _MC, address lpToken, address qToken, address token) public view returns ( uint256 APOINT, uint256 TAPOINT, uint256 tBalLP, uint256 qtBalLP, uint256 lpBalMC, uint256 lpTotalSupply ) {... */\n      tag_15\n        /* \"#utility.yul\":10710:11245   */\n      jump\n        /* \"ZKSYNC/infoChef.sol\":6434:7369  function getSaleInfos(address factory) public view returns (... */\n    tag_9:\n      tag_42\n      tag_43\n      calldatasize\n      0x04\n      tag_13\n      jump\t// in\n    tag_43:\n      tag_44\n      jump\t// in\n    tag_42:\n      mload(0x40)\n      tag_15\n      swap7\n      swap6\n      swap5\n      swap4\n      swap3\n      swap2\n      swap1\n      tag_46\n      jump\t// in\n        /* \"ZKSYNC/infoChef.sol\":8967:10546  function getPoolInfo(address poolFactory) external view returns (... */\n    tag_14:\n        /* \"ZKSYNC/infoChef.sol\":9042:9074  address[] memory contractAddress */\n      0x60\n        /* \"ZKSYNC/infoChef.sol\":9085:9114  address[] memory stakeAddress */\n      dup1\n        /* \"ZKSYNC/infoChef.sol\":9125:9150  string[] memory stakeName */\n      0x60\n        /* \"ZKSYNC/infoChef.sol\":9161:9185  string[] memory stakeSym */\n      dup1\n        /* \"ZKSYNC/infoChef.sol\":9196:9221  uint256[] memory stakeDec */\n      0x60\n        /* \"ZKSYNC/infoChef.sol\":9232:9260  address[] memory earnAddress */\n      dup1\n        /* \"ZKSYNC/infoChef.sol\":9271:9295  string[] memory earnName */\n      0x60\n        /* \"ZKSYNC/infoChef.sol\":9306:9329  string[] memory earnSym */\n      dup1\n        /* \"ZKSYNC/infoChef.sol\":9340:9364  uint256[] memory earnDec */\n      0x60\n        /* \"ZKSYNC/infoChef.sol\":9383:9401  IPFactory pfactory */\n      0x00\n        /* \"ZKSYNC/infoChef.sol\":9414:9425  poolFactory */\n      dup11\n        /* \"ZKSYNC/infoChef.sol\":9383:9426  IPFactory pfactory = IPFactory(poolFactory) */\n      swap1\n      pop\n        /* \"ZKSYNC/infoChef.sol\":9437:9452  uint256 howMany */\n      0x00\n        /* \"ZKSYNC/infoChef.sol\":9455:9463  pfactory */\n      dup2\n      sub(shl(0xa0, 0x01), 0x01)\n        /* \"ZKSYNC/infoChef.sol\":9455:9476  pfactory.howManyPools */\n      and\n      0xb9fb0fb7\n        /* \"ZKSYNC/infoChef.sol\":9455:9478  pfactory.howManyPools() */\n      mload(0x40)\n      dup2\n      0xffffffff\n      and\n      0xe0\n      shl\n      dup2\n      mstore\n      0x04\n      add\n      0x20\n      mload(0x40)\n      dup1\n      dup4\n      sub\n      dup2\n      dup7\n      gas\n      staticcall\n      iszero\n      dup1\n      iszero\n      tag_49\n      jumpi\n      returndatasize\n      0x00\n      dup1\n      returndatacopy\n      revert(0x00, returndatasize)\n    tag_49:\n      pop\n      pop\n      pop\n      pop\n      mload(0x40)\n      returndatasize\n      not(0x1f)\n      0x1f\n      dup3\n      add\n      and\n      dup3\n      add\n      dup1\n      0x40\n      mstore\n      pop\n      dup2\n      add\n      swap1\n      tag_50\n      swap2\n      swap1\n      tag_51\n      jump\t// in\n    tag_50:\n        /* \"ZKSYNC/infoChef.sol\":9437:9478  uint256 howMany = pfactory.howManyPools() */\n      swap1\n      pop\n        /* \"ZKSYNC/infoChef.sol\":9523:9530  howMany */\n      dup1\n      sub(shl(0x40, 0x01), 0x01)\n        /* \"ZKSYNC/infoChef.sol\":9509:9531  new address[](howMany) */\n      dup2\n      gt\n      iszero\n      tag_53\n      jumpi\n      tag_53\n      tag_54\n      jump\t// in\n    tag_53:\n      mload(0x40)\n      swap1\n      dup1\n      dup3\n      mstore\n      dup1\n      0x20\n      mul\n      0x20\n      add\n      dup3\n      add\n      0x40\n      mstore\n      dup1\n      iszero\n      tag_55\n      jumpi\n      dup2\n      0x20\n      add\n      0x20\n      dup3\n      mul\n      dup1\n      calldatasize\n      dup4\n      calldatacopy\n      add\n      swap1\n      pop\n    tag_55:\n      pop\n        /* \"ZKSYNC/infoChef.sol\":9491:9531  contractAddress = new address[](howMany) */\n      swap11\n      pop\n        /* \"ZKSYNC/infoChef.sol\":9571:9578  howMany */\n      dup1\n      sub(shl(0x40, 0x01), 0x01)\n        /* \"ZKSYNC/infoChef.sol\":9557:9579  new address[](howMany) */\n      dup2\n      gt\n      iszero\n      tag_57\n      jumpi\n      tag_57\n      tag_54\n      jump\t// in\n    tag_57:\n      mload(0x40)\n      swap1\n      dup1\n      dup3\n      mstore\n      dup1\n      0x20\n      mul\n      0x20\n      add\n      dup3\n      add\n      0x40\n      mstore\n      dup1\n      iszero\n      tag_58\n      jumpi\n      dup2\n      0x20\n      add\n      0x20\n      dup3\n      mul\n      dup1\n      calldatasize\n      dup4\n      calldatacopy\n      add\n      swap1\n      pop\n    tag_58:\n      pop\n        /* \"ZKSYNC/infoChef.sol\":9542:9579  stakeAddress = new address[](howMany) */\n      swap10\n      pop\n        /* \"ZKSYNC/infoChef.sol\":9615:9622  howMany */\n      dup1\n      sub(shl(0x40, 0x01), 0x01)\n        /* \"ZKSYNC/infoChef.sol\":9602:9623  new string[](howMany) */\n      dup2\n      gt\n      iszero\n      tag_60\n      jumpi\n      tag_60\n      tag_54\n      jump\t// in\n    tag_60:\n      mload(0x40)\n      swap1\n      dup1\n      dup3\n      mstore\n      dup1\n      0x20\n      mul\n      0x20\n      add\n      dup3\n      add\n      0x40\n      mstore\n      dup1\n      iszero\n      tag_61\n      jumpi\n      dup2\n      0x20\n      add\n    tag_62:\n      0x60\n      dup2\n      mstore\n      0x20\n      add\n      swap1\n      0x01\n      swap1\n      sub\n      swap1\n      dup2\n      tag_62\n      jumpi\n      swap1\n      pop\n    tag_61:\n      pop\n        /* \"ZKSYNC/infoChef.sol\":9590:9623  stakeName = new string[](howMany) */\n      swap9\n      pop\n        /* \"ZKSYNC/infoChef.sol\":9658:9665  howMany */\n      dup1\n      sub(shl(0x40, 0x01), 0x01)\n        /* \"ZKSYNC/infoChef.sol\":9645:9666  new string[](howMany) */\n      dup2\n      gt\n      iszero\n      tag_64\n      jumpi\n      tag_64\n      tag_54\n      jump\t// in\n    tag_64:\n      mload(0x40)\n      swap1\n      dup1\n      dup3\n      mstore\n      dup1\n      0x20\n      mul\n      0x20\n      add\n      dup3\n      add\n      0x40\n      mstore\n      dup1\n      iszero\n      tag_65\n      jumpi\n      dup2\n      0x20\n      add\n    tag_66:\n      0x60\n      dup2\n      mstore\n      0x20\n      add\n      swap1\n      0x01\n      swap1\n      sub\n      swap1\n      dup2\n      tag_66\n      jumpi\n      swap1\n      pop\n    tag_65:\n      pop\n        /* \"ZKSYNC/infoChef.sol\":9634:9666  stakeSym = new string[](howMany) */\n      swap8\n      pop\n        /* \"ZKSYNC/infoChef.sol\":9702:9709  howMany */\n      dup1\n      sub(shl(0x40, 0x01), 0x01)\n        /* \"ZKSYNC/infoChef.sol\":9688:9710  new uint256[](howMany) */\n      dup2\n      gt\n      iszero\n      tag_68\n      jumpi\n      tag_68\n      tag_54\n      jump\t// in\n    tag_68:\n      mload(0x40)\n      swap1\n      dup1\n      dup3\n      mstore\n      dup1\n      0x20\n      mul\n      0x20\n      add\n      dup3\n      add\n      0x40\n      mstore\n      dup1\n      iszero\n      tag_69\n      jumpi\n      dup2\n      0x20\n      add\n      0x20\n      dup3\n      mul\n      dup1\n      calldatasize\n      dup4\n      calldatacopy\n      add\n      swap1\n      pop\n    tag_69:\n      pop\n        /* \"ZKSYNC/infoChef.sol\":9677:9710  stakeDec = new uint256[](howMany) */\n      swap7\n      pop\n        /* \"ZKSYNC/infoChef.sol\":9749:9756  howMany */\n      dup1\n      sub(shl(0x40, 0x01), 0x01)\n        /* \"ZKSYNC/infoChef.sol\":9735:9757  new address[](howMany) */\n      dup2\n      gt\n      iszero\n      tag_71\n      jumpi\n      tag_71\n      tag_54\n      jump\t// in\n    tag_71:\n      mload(0x40)\n      swap1\n      dup1\n      dup3\n      mstore\n      dup1\n      0x20\n      mul\n      0x20\n      add\n      dup3\n      add\n      0x40\n      mstore\n      dup1\n      iszero\n      tag_72\n      jumpi\n      dup2\n      0x20\n      add\n      0x20\n      dup3\n      mul\n      dup1\n      calldatasize\n      dup4\n      calldatacopy\n      add\n      swap1\n      pop\n    tag_72:\n      pop\n        /* \"ZKSYNC/infoChef.sol\":9721:9757  earnAddress = new address[](howMany) */\n      swap6\n      pop\n        /* \"ZKSYNC/infoChef.sol\":9792:9799  howMany */\n      dup1\n      sub(shl(0x40, 0x01), 0x01)\n        /* \"ZKSYNC/infoChef.sol\":9779:9800  new string[](howMany) */\n      dup2\n      gt\n      iszero\n      tag_74\n      jumpi\n      tag_74\n      tag_54\n      jump\t// in\n    tag_74:\n      mload(0x40)\n      swap1\n      dup1\n      dup3\n      mstore\n      dup1\n      0x20\n      mul\n      0x20\n      add\n      dup3\n      add\n      0x40\n      mstore\n      dup1\n      iszero\n      tag_75\n      jumpi\n      dup2\n      0x20\n      add\n    tag_76:\n      0x60\n      dup2\n      mstore\n      0x20\n      add\n      swap1\n      0x01\n      swap1\n      sub\n      swap1\n      dup2\n      tag_76\n      jumpi\n      swap1\n      pop\n    tag_75:\n      pop\n        /* \"ZKSYNC/infoChef.sol\":9768:9800  earnName = new string[](howMany) */\n      swap5\n      pop\n        /* \"ZKSYNC/infoChef.sol\":9834:9841  howMany */\n      dup1\n      sub(shl(0x40, 0x01), 0x01)\n        /* \"ZKSYNC/infoChef.sol\":9821:9842  new string[](howMany) */\n      dup2\n      gt\n      iszero\n      tag_78\n      jumpi\n      tag_78\n      tag_54\n      jump\t// in\n    tag_78:\n      mload(0x40)\n      swap1\n      dup1\n      dup3\n      mstore\n      dup1\n      0x20\n      mul\n      0x20\n      add\n      dup3\n      add\n      0x40\n      mstore\n      dup1\n      iszero\n      tag_79\n      jumpi\n      dup2\n      0x20\n      add\n    tag_80:\n      0x60\n      dup2\n      mstore\n      0x20\n      add\n      swap1\n      0x01\n      swap1\n      sub\n      swap1\n      dup2\n      tag_80\n      jumpi\n      swap1\n      pop\n    tag_79:\n      pop\n        /* \"ZKSYNC/infoChef.sol\":9811:9842  earnSym = new string[](howMany) */\n      swap4\n      pop\n        /* \"ZKSYNC/infoChef.sol\":9877:9884  howMany */\n      dup1\n      sub(shl(0x40, 0x01), 0x01)\n        /* \"ZKSYNC/infoChef.sol\":9863:9885  new uint256[](howMany) */\n      dup2\n      gt\n      iszero\n      tag_82\n      jumpi\n      tag_82\n      tag_54\n      jump\t// in\n    tag_82:\n      mload(0x40)\n      swap1\n      dup1\n      dup3\n      mstore\n      dup1\n      0x20\n      mul\n      0x20\n      add\n      dup3\n      add\n      0x40\n      mstore\n      dup1\n      iszero\n      tag_83\n      jumpi\n      dup2\n      0x20\n      add\n      0x20\n      dup3\n      mul\n      dup1\n      calldatasize\n      dup4\n      calldatacopy\n      add\n      swap1\n      pop\n    tag_83:\n      pop\n        /* \"ZKSYNC/infoChef.sol\":9853:9885  earnDec = new uint256[](howMany) */\n      swap3\n      pop\n        /* \"ZKSYNC/infoChef.sol\":9902:9908  uint i */\n      0x00\n        /* \"ZKSYNC/infoChef.sol\":9898:10539  for(uint i=0; i<howMany; i++) {... */\n    tag_84:\n        /* \"ZKSYNC/infoChef.sol\":9914:9921  howMany */\n      dup2\n        /* \"ZKSYNC/infoChef.sol\":9912:9913  i */\n      dup2\n        /* \"ZKSYNC/infoChef.sol\":9912:9921  i<howMany */\n      lt\n        /* \"ZKSYNC/infoChef.sol\":9898:10539  for(uint i=0; i<howMany; i++) {... */\n      iszero\n      tag_85\n      jumpi\n        /* \"ZKSYNC/infoChef.sol\":9964:9983  pfactory.getPool(i) */\n      mload(0x40)\n      shl(0xe0, 0x068bcd8d)\n      dup2\n      mstore\n      0x04\n      dup2\n      add\n        /* \"#utility.yul\":13036:13061   */\n      dup3\n      swap1\n      mstore\n      sub(shl(0xa0, 0x01), 0x01)\n        /* \"ZKSYNC/infoChef.sol\":9964:9980  pfactory.getPool */\n      dup5\n      and\n      swap1\n      0x068bcd8d\n      swap1\n        /* \"#utility.yul\":13009:13027   */\n      0x24\n      add\n        /* \"ZKSYNC/infoChef.sol\":9964:9983  pfactory.getPool(i) */\n      0x20\n      mload(0x40)\n      dup1\n      dup4\n      sub\n      dup2\n      dup7\n      gas\n      staticcall\n      iszero\n      dup1\n      iszero\n      tag_90\n      jumpi\n      returndatasize\n      0x00\n      dup1\n      returndatacopy\n      revert(0x00, returndatasize)\n    tag_90:\n      pop\n      pop\n      pop\n      pop\n      mload(0x40)\n      returndatasize\n      not(0x1f)\n      0x1f\n      dup3\n      add\n      and\n      dup3\n      add\n      dup1\n      0x40\n      mstore\n      pop\n      dup2\n      add\n      swap1\n      tag_91\n      swap2\n      swap1\n      tag_92\n      jump\t// in\n    tag_91:\n        /* \"ZKSYNC/infoChef.sol\":9943:9958  contractAddress */\n      dup13\n        /* \"ZKSYNC/infoChef.sol\":9959:9960  i */\n      dup3\n        /* \"ZKSYNC/infoChef.sol\":9943:9961  contractAddress[i] */\n      dup2\n      mload\n      dup2\n      lt\n      tag_94\n      jumpi\n      tag_94\n      tag_95\n      jump\t// in\n    tag_94:\n      0x20\n      mul\n      0x20\n      add\n      add\n        /* \"ZKSYNC/infoChef.sol\":9943:9983  contractAddress[i] = pfactory.getPool(i) */\n      swap1\n      sub(shl(0xa0, 0x01), 0x01)\n      and\n      swap1\n      dup2\n      sub(shl(0xa0, 0x01), 0x01)\n      and\n      dup2\n      mstore\n      pop\n      pop\n        /* \"ZKSYNC/infoChef.sol\":10022:10037  contractAddress */\n      dup12\n        /* \"ZKSYNC/infoChef.sol\":10038:10039  i */\n      dup2\n        /* \"ZKSYNC/infoChef.sol\":10022:10040  contractAddress[i] */\n      dup2\n      mload\n      dup2\n      lt\n      tag_97\n      jumpi\n      tag_97\n      tag_95\n      jump\t// in\n    tag_97:\n      0x20\n      mul\n      0x20\n      add\n      add\n      mload\n      sub(shl(0xa0, 0x01), 0x01)\n        /* \"ZKSYNC/infoChef.sol\":10016:10053  IPool(contractAddress[i]).stakedToken */\n      and\n      0xcc7a262e\n        /* \"ZKSYNC/infoChef.sol\":10016:10055  IPool(contractAddress[i]).stakedToken() */\n      mload(0x40)\n      dup2\n      0xffffffff\n      and\n      0xe0\n      shl\n      dup2\n      mstore\n      0x04\n      add\n      0x20\n      mload(0x40)\n      dup1\n      dup4\n      sub\n      dup2\n      dup7\n      gas\n      staticcall\n      iszero\n      dup1\n      iszero\n      tag_99\n      jumpi\n      returndatasize\n      0x00\n      dup1\n      returndatacopy\n      revert(0x00, returndatasize)\n    tag_99:\n      pop\n      pop\n      pop\n      pop\n      mload(0x40)\n      returndatasize\n      not(0x1f)\n      0x1f\n      dup3\n      add\n      and\n      dup3\n      add\n      dup1\n      0x40\n      mstore\n      pop\n      dup2\n      add\n      swap1\n      tag_100\n      swap2\n      swap1\n      tag_92\n      jump\t// in\n    tag_100:\n        /* \"ZKSYNC/infoChef.sol\":9998:10010  stakeAddress */\n      dup12\n        /* \"ZKSYNC/infoChef.sol\":10011:10012  i */\n      dup3\n        /* \"ZKSYNC/infoChef.sol\":9998:10013  stakeAddress[i] */\n      dup2\n      mload\n      dup2\n      lt\n      tag_102\n      jumpi\n      tag_102\n      tag_95\n      jump\t// in\n    tag_102:\n      0x20\n      mul\n      0x20\n      add\n      add\n        /* \"ZKSYNC/infoChef.sol\":9998:10055  stakeAddress[i] = IPool(contractAddress[i]).stakedToken() */\n      swap1\n      sub(shl(0xa0, 0x01), 0x01)\n      and\n      swap1\n      dup2\n      sub(shl(0xa0, 0x01), 0x01)\n      and\n      dup2\n      mstore\n      pop\n      pop\n        /* \"ZKSYNC/infoChef.sol\":10074:10086  Token sToken */\n      0x00\n        /* \"ZKSYNC/infoChef.sol\":10095:10107  stakeAddress */\n      dup12\n        /* \"ZKSYNC/infoChef.sol\":10108:10109  i */\n      dup3\n        /* \"ZKSYNC/infoChef.sol\":10095:10110  stakeAddress[i] */\n      dup2\n      mload\n      dup2\n      lt\n      tag_104\n      jumpi\n      tag_104\n      tag_95\n      jump\t// in\n    tag_104:\n      0x20\n      mul\n      0x20\n      add\n      add\n      mload\n        /* \"ZKSYNC/infoChef.sol\":10074:10111  Token sToken = Token(stakeAddress[i]) */\n      swap1\n      pop\n        /* \"ZKSYNC/infoChef.sol\":10145:10151  sToken */\n      dup1\n      sub(shl(0xa0, 0x01), 0x01)\n        /* \"ZKSYNC/infoChef.sol\":10145:10156  sToken.name */\n      and\n      0x06fdde03\n        /* \"ZKSYNC/infoChef.sol\":10145:10158  sToken.name() */\n      mload(0x40)\n      dup2\n      0xffffffff\n      and\n      0xe0\n      shl\n      dup2\n      mstore\n      0x04\n      add\n      0x00\n      mload(0x40)\n      dup1\n      dup4\n      sub\n      dup2\n      dup7\n      gas\n      staticcall\n      iszero\n      dup1\n      iszero\n      tag_106\n      jumpi\n      returndatasize\n      0x00\n      dup1\n      returndatacopy\n      revert(0x00, returndatasize)\n    tag_106:\n      pop\n      pop\n      pop\n      pop\n      mload(0x40)\n      returndatasize\n      0x00\n      dup3\n      returndatacopy\n      0x1f\n      returndatasize\n      swap1\n      dup2\n      add\n      not(0x1f)\n      and\n      dup3\n      add\n      0x40\n      mstore\n      tag_107\n      swap2\n      swap1\n      dup2\n      add\n      swap1\n      tag_108\n      jump\t// in\n    tag_107:\n        /* \"ZKSYNC/infoChef.sol\":10130:10139  stakeName */\n      dup12\n        /* \"ZKSYNC/infoChef.sol\":10140:10141  i */\n      dup4\n        /* \"ZKSYNC/infoChef.sol\":10130:10142  stakeName[i] */\n      dup2\n      mload\n      dup2\n      lt\n      tag_110\n      jumpi\n      tag_110\n      tag_95\n      jump\t// in\n    tag_110:\n      0x20\n      mul\n      0x20\n      add\n      add\n        /* \"ZKSYNC/infoChef.sol\":10130:10158  stakeName[i] = sToken.name() */\n      dup2\n      swap1\n      mstore\n      pop\n        /* \"ZKSYNC/infoChef.sol\":10191:10197  sToken */\n      dup1\n      sub(shl(0xa0, 0x01), 0x01)\n        /* \"ZKSYNC/infoChef.sol\":10191:10204  sToken.symbol */\n      and\n      0x95d89b41\n        /* \"ZKSYNC/infoChef.sol\":10191:10206  sToken.symbol() */\n      mload(0x40)\n      dup2\n      0xffffffff\n      and\n      0xe0\n      shl\n      dup2\n      mstore\n      0x04\n      add\n      0x00\n      mload(0x40)\n      dup1\n      dup4\n      sub\n      dup2\n      dup7\n      gas\n      staticcall\n      iszero\n      dup1\n      iszero\n      tag_112\n      jumpi\n      returndatasize\n      0x00\n      dup1\n      returndatacopy\n      revert(0x00, returndatasize)\n    tag_112:\n      pop\n      pop\n      pop\n      pop\n      mload(0x40)\n      returndatasize\n      0x00\n      dup3\n      returndatacopy\n      0x1f\n      returndatasize\n      swap1\n      dup2\n      add\n      not(0x1f)\n      and\n      dup3\n      add\n      0x40\n      mstore\n      tag_113\n      swap2\n      swap1\n      dup2\n      add\n      swap1\n      tag_108\n      jump\t// in\n    tag_113:\n        /* \"ZKSYNC/infoChef.sol\":10177:10185  stakeSym */\n      dup11\n        /* \"ZKSYNC/infoChef.sol\":10186:10187  i */\n      dup4\n        /* \"ZKSYNC/infoChef.sol\":10177:10188  stakeSym[i] */\n      dup2\n      mload\n      dup2\n      lt\n      tag_115\n      jumpi\n      tag_115\n      tag_95\n      jump\t// in\n    tag_115:\n      0x20\n      mul\n      0x20\n      add\n      add\n        /* \"ZKSYNC/infoChef.sol\":10177:10206  stakeSym[i] = sToken.symbol() */\n      dup2\n      swap1\n      mstore\n      pop\n        /* \"ZKSYNC/infoChef.sol\":10239:10245  sToken */\n      dup1\n      sub(shl(0xa0, 0x01), 0x01)\n        /* \"ZKSYNC/infoChef.sol\":10239:10254  sToken.decimals */\n      and\n      0x313ce567\n        /* \"ZKSYNC/infoChef.sol\":10239:10256  sToken.decimals() */\n      mload(0x40)\n      dup2\n      0xffffffff\n      and\n      0xe0\n      shl\n      dup2\n      mstore\n      0x04\n      add\n      0x20\n      mload(0x40)\n      dup1\n      dup4\n      sub\n      dup2\n      dup7\n      gas\n      staticcall\n      iszero\n      dup1\n      iszero\n      tag_117\n      jumpi\n      returndatasize\n      0x00\n      dup1\n      returndatacopy\n      revert(0x00, returndatasize)\n    tag_117:\n      pop\n      pop\n      pop\n      pop\n      mload(0x40)\n      returndatasize\n      not(0x1f)\n      0x1f\n      dup3\n      add\n      and\n      dup3\n      add\n      dup1\n      0x40\n      mstore\n      pop\n      dup2\n      add\n      swap1\n      tag_118\n      swap2\n      swap1\n      tag_119\n      jump\t// in\n    tag_118:\n        /* \"ZKSYNC/infoChef.sol\":10225:10256  stakeDec[i] = sToken.decimals() */\n      0xff\n      and\n        /* \"ZKSYNC/infoChef.sol\":10225:10233  stakeDec */\n      dup10\n        /* \"ZKSYNC/infoChef.sol\":10234:10235  i */\n      dup4\n        /* \"ZKSYNC/infoChef.sol\":10225:10236  stakeDec[i] */\n      dup2\n      mload\n      dup2\n      lt\n      tag_121\n      jumpi\n      tag_121\n      tag_95\n      jump\t// in\n    tag_121:\n      0x20\n      mul\n      0x20\n      add\n      add\n        /* \"ZKSYNC/infoChef.sol\":10225:10256  stakeDec[i] = sToken.decimals() */\n      dup2\n      dup2\n      mstore\n      pop\n      pop\n        /* \"ZKSYNC/infoChef.sol\":10295:10310  contractAddress */\n      dup13\n        /* \"ZKSYNC/infoChef.sol\":10311:10312  i */\n      dup3\n        /* \"ZKSYNC/infoChef.sol\":10295:10313  contractAddress[i] */\n      dup2\n      mload\n      dup2\n      lt\n      tag_123\n      jumpi\n      tag_123\n      tag_95\n      jump\t// in\n    tag_123:\n      0x20\n      mul\n      0x20\n      add\n      add\n      mload\n      sub(shl(0xa0, 0x01), 0x01)\n        /* \"ZKSYNC/infoChef.sol\":10289:10326  IPool(contractAddress[i]).rewardToken */\n      and\n      0xf7c618c1\n        /* \"ZKSYNC/infoChef.sol\":10289:10328  IPool(contractAddress[i]).rewardToken() */\n      mload(0x40)\n      dup2\n      0xffffffff\n      and\n      0xe0\n      shl\n      dup2\n      mstore\n      0x04\n      add\n      0x20\n      mload(0x40)\n      dup1\n      dup4\n      sub\n      dup2\n      dup7\n      gas\n      staticcall\n      iszero\n      dup1\n      iszero\n      tag_125\n      jumpi\n      returndatasize\n      0x00\n      dup1\n      returndatacopy\n      revert(0x00, returndatasize)\n    tag_125:\n      pop\n      pop\n      pop\n      pop\n      mload(0x40)\n      returndatasize\n      not(0x1f)\n      0x1f\n      dup3\n      add\n      and\n      dup3\n      add\n      dup1\n      0x40\n      mstore\n      pop\n      dup2\n      add\n      swap1\n      tag_126\n      swap2\n      swap1\n      tag_92\n      jump\t// in\n    tag_126:\n        /* \"ZKSYNC/infoChef.sol\":10272:10283  earnAddress */\n      dup9\n        /* \"ZKSYNC/infoChef.sol\":10284:10285  i */\n      dup4\n        /* \"ZKSYNC/infoChef.sol\":10272:10286  earnAddress[i] */\n      dup2\n      mload\n      dup2\n      lt\n      tag_128\n      jumpi\n      tag_128\n      tag_95\n      jump\t// in\n    tag_128:\n      0x20\n      mul\n      0x20\n      add\n      add\n        /* \"ZKSYNC/infoChef.sol\":10272:10328  earnAddress[i] = IPool(contractAddress[i]).rewardToken() */\n      swap1\n      sub(shl(0xa0, 0x01), 0x01)\n      and\n      swap1\n      dup2\n      sub(shl(0xa0, 0x01), 0x01)\n      and\n      dup2\n      mstore\n      pop\n      pop\n        /* \"ZKSYNC/infoChef.sol\":10347:10359  Token eToken */\n      0x00\n        /* \"ZKSYNC/infoChef.sol\":10368:10379  earnAddress */\n      dup9\n        /* \"ZKSYNC/infoChef.sol\":10380:10381  i */\n      dup4\n        /* \"ZKSYNC/infoChef.sol\":10368:10382  earnAddress[i] */\n      dup2\n      mload\n      dup2\n      lt\n      tag_130\n      jumpi\n      tag_130\n      tag_95\n      jump\t// in\n    tag_130:\n      0x20\n      mul\n      0x20\n      add\n      add\n      mload\n        /* \"ZKSYNC/infoChef.sol\":10347:10383  Token eToken = Token(earnAddress[i]) */\n      swap1\n      pop\n        /* \"ZKSYNC/infoChef.sol\":10416:10422  eToken */\n      dup1\n      sub(shl(0xa0, 0x01), 0x01)\n        /* \"ZKSYNC/infoChef.sol\":10416:10427  eToken.name */\n      and\n      0x06fdde03\n        /* \"ZKSYNC/infoChef.sol\":10416:10429  eToken.name() */\n      mload(0x40)\n      dup2\n      0xffffffff\n      and\n      0xe0\n      shl\n      dup2\n      mstore\n      0x04\n      add\n      0x00\n      mload(0x40)\n      dup1\n      dup4\n      sub\n      dup2\n      dup7\n      gas\n      staticcall\n      iszero\n      dup1\n      iszero\n      tag_132\n      jumpi\n      returndatasize\n      0x00\n      dup1\n      returndatacopy\n      revert(0x00, returndatasize)\n    tag_132:\n      pop\n      pop\n      pop\n      pop\n      mload(0x40)\n      returndatasize\n      0x00\n      dup3\n      returndatacopy\n      0x1f\n      returndatasize\n      swap1\n      dup2\n      add\n      not(0x1f)\n      and\n      dup3\n      add\n      0x40\n      mstore\n      tag_133\n      swap2\n      swap1\n      dup2\n      add\n      swap1\n      tag_108\n      jump\t// in\n    tag_133:\n        /* \"ZKSYNC/infoChef.sol\":10402:10410  earnName */\n      dup9\n        /* \"ZKSYNC/infoChef.sol\":10411:10412  i */\n      dup5\n        /* \"ZKSYNC/infoChef.sol\":10402:10413  earnName[i] */\n      dup2\n      mload\n      dup2\n      lt\n      tag_135\n      jumpi\n      tag_135\n      tag_95\n      jump\t// in\n    tag_135:\n      0x20\n      mul\n      0x20\n      add\n      add\n        /* \"ZKSYNC/infoChef.sol\":10402:10429  earnName[i] = eToken.name() */\n      dup2\n      swap1\n      mstore\n      pop\n        /* \"ZKSYNC/infoChef.sol\":10461:10467  eToken */\n      dup1\n      sub(shl(0xa0, 0x01), 0x01)\n        /* \"ZKSYNC/infoChef.sol\":10461:10474  eToken.symbol */\n      and\n      0x95d89b41\n        /* \"ZKSYNC/infoChef.sol\":10461:10476  eToken.symbol() */\n      mload(0x40)\n      dup2\n      0xffffffff\n      and\n      0xe0\n      shl\n      dup2\n      mstore\n      0x04\n      add\n      0x00\n      mload(0x40)\n      dup1\n      dup4\n      sub\n      dup2\n      dup7\n      gas\n      staticcall\n      iszero\n      dup1\n      iszero\n      tag_137\n      jumpi\n      returndatasize\n      0x00\n      dup1\n      returndatacopy\n      revert(0x00, returndatasize)\n    tag_137:\n      pop\n      pop\n      pop\n      pop\n      mload(0x40)\n      returndatasize\n      0x00\n      dup3\n      returndatacopy\n      0x1f\n      returndatasize\n      swap1\n      dup2\n      add\n      not(0x1f)\n      and\n      dup3\n      add\n      0x40\n      mstore\n      tag_138\n      swap2\n      swap1\n      dup2\n      add\n      swap1\n      tag_108\n      jump\t// in\n    tag_138:\n        /* \"ZKSYNC/infoChef.sol\":10448:10455  earnSym */\n      dup8\n        /* \"ZKSYNC/infoChef.sol\":10456:10457  i */\n      dup5\n        /* \"ZKSYNC/infoChef.sol\":10448:10458  earnSym[i] */\n      dup2\n      mload\n      dup2\n      lt\n      tag_140\n      jumpi\n      tag_140\n      tag_95\n      jump\t// in\n    tag_140:\n      0x20\n      mul\n      0x20\n      add\n      add\n        /* \"ZKSYNC/infoChef.sol\":10448:10476  earnSym[i] = eToken.symbol() */\n      dup2\n      swap1\n      mstore\n      pop\n        /* \"ZKSYNC/infoChef.sol\":10508:10514  eToken */\n      dup1\n      sub(shl(0xa0, 0x01), 0x01)\n        /* \"ZKSYNC/infoChef.sol\":10508:10523  eToken.decimals */\n      and\n      0x313ce567\n        /* \"ZKSYNC/infoChef.sol\":10508:10525  eToken.decimals() */\n      mload(0x40)\n      dup2\n      0xffffffff\n      and\n      0xe0\n      shl\n      dup2\n      mstore\n      0x04\n      add\n      0x20\n      mload(0x40)\n      dup1\n      dup4\n      sub\n      dup2\n      dup7\n      gas\n      staticcall\n      iszero\n      dup1\n      iszero\n      tag_142\n      jumpi\n      returndatasize\n      0x00\n      dup1\n      returndatacopy\n      revert(0x00, returndatasize)\n    tag_142:\n      pop\n      pop\n      pop\n      pop\n      mload(0x40)\n      returndatasize\n      not(0x1f)\n      0x1f\n      dup3\n      add\n      and\n      dup3\n      add\n      dup1\n      0x40\n      mstore\n      pop\n      dup2\n      add\n      swap1\n      tag_143\n      swap2\n      swap1\n      tag_119\n      jump\t// in\n    tag_143:\n        /* \"ZKSYNC/infoChef.sol\":10495:10525  earnDec[i] = eToken.decimals() */\n      0xff\n      and\n        /* \"ZKSYNC/infoChef.sol\":10495:10502  earnDec */\n      dup7\n        /* \"ZKSYNC/infoChef.sol\":10503:10504  i */\n      dup5\n        /* \"ZKSYNC/infoChef.sol\":10495:10505  earnDec[i] */\n      dup2\n      mload\n      dup2\n      lt\n      tag_145\n      jumpi\n      tag_145\n      tag_95\n      jump\t// in\n    tag_145:\n      0x20\n      mul\n      0x20\n      add\n      add\n        /* \"ZKSYNC/infoChef.sol\":10495:10525  earnDec[i] = eToken.decimals() */\n      dup2\n      dup2\n      mstore\n      pop\n      pop\n        /* \"ZKSYNC/infoChef.sol\":9928:10539  {... */\n      pop\n      pop\n        /* \"ZKSYNC/infoChef.sol\":9923:9926  i++ */\n      dup1\n      dup1\n      tag_146\n      swap1\n      tag_147\n      jump\t// in\n    tag_146:\n      swap2\n      pop\n      pop\n        /* \"ZKSYNC/infoChef.sol\":9898:10539  for(uint i=0; i<howMany; i++) {... */\n      jump(tag_84)\n    tag_85:\n      pop\n        /* \"ZKSYNC/infoChef.sol\":9372:10546  {... */\n      pop\n      pop\n        /* \"ZKSYNC/infoChef.sol\":8967:10546  function getPoolInfo(address poolFactory) external view returns (... */\n      swap2\n      swap4\n      swap6\n      swap8\n      swap10\n      swap1\n      swap3\n      swap5\n      swap7\n      swap9\n      pop\n      jump\t// out\n        /* \"ZKSYNC/infoChef.sol\":7377:8950  function getSaleInfos2(address factory) public view returns (... */\n    tag_19:\n        /* \"ZKSYNC/infoChef.sol\":7448:7469  address[] memory sale */\n      0x60\n        /* \"ZKSYNC/infoChef.sol\":7481:7503  address[] memory token */\n      dup1\n        /* \"ZKSYNC/infoChef.sol\":7515:7536  string[] memory tName */\n      0x60\n        /* \"ZKSYNC/infoChef.sol\":7548:7568  string[] memory tSym */\n      dup1\n        /* \"ZKSYNC/infoChef.sol\":7580:7601  uint256[] memory tDec */\n      0x60\n        /* \"ZKSYNC/infoChef.sol\":7612:7635  bool[] memory finalized */\n      dup1\n        /* \"ZKSYNC/infoChef.sol\":7646:7669  string[] memory logoURI */\n      0x60\n        /* \"ZKSYNC/infoChef.sol\":7680:7706  string[] memory websiteURI */\n      dup1\n        /* \"ZKSYNC/infoChef.sol\":7717:7742  string[] memory bannerURI */\n      0x60\n        /* \"ZKSYNC/infoChef.sol\":7753:7779  uint256[] memory userCount */\n      dup1\n        /* \"ZKSYNC/infoChef.sol\":7790:7817  uint256[] memory claimCount */\n      0x60\n        /* \"ZKSYNC/infoChef.sol\":7840:7849  uint256 l */\n      0x00\n        /* \"ZKSYNC/infoChef.sol\":7863:7870  factory */\n      dup13\n      sub(shl(0xa0, 0x01), 0x01)\n        /* \"ZKSYNC/infoChef.sol\":7852:7884  IFOFactory(factory).howManySales */\n      and\n      0xe8096d45\n        /* \"ZKSYNC/infoChef.sol\":7852:7886  IFOFactory(factory).howManySales() */\n      mload(0x40)\n      dup2\n      0xffffffff\n      and\n      0xe0\n      shl\n      dup2\n      mstore\n      0x04\n      add\n      0x20\n      mload(0x40)\n      dup1\n      dup4\n      sub\n      dup2\n      dup7\n      gas\n      staticcall\n      iszero\n      dup1\n      iszero\n      tag_150\n      jumpi\n      returndatasize\n      0x00\n      dup1\n      returndatacopy\n      revert(0x00, returndatasize)\n    tag_150:\n      pop\n      pop\n      pop\n      pop\n      mload(0x40)\n      returndatasize\n      not(0x1f)\n      0x1f\n      dup3\n      add\n      and\n      dup3\n      add\n      dup1\n      0x40\n      mstore\n      pop\n      dup2\n      add\n      swap1\n      tag_151\n      swap2\n      swap1\n      tag_51\n      jump\t// in\n    tag_151:\n        /* \"ZKSYNC/infoChef.sol\":7840:7886  uint256 l = IFOFactory(factory).howManySales() */\n      swap1\n      pop\n        /* \"ZKSYNC/infoChef.sol\":7921:7922  l */\n      dup1\n      sub(shl(0x40, 0x01), 0x01)\n        /* \"ZKSYNC/infoChef.sol\":7907:7923  new address[](l) */\n      dup2\n      gt\n      iszero\n      tag_153\n      jumpi\n      tag_153\n      tag_54\n      jump\t// in\n    tag_153:\n      mload(0x40)\n      swap1\n      dup1\n      dup3\n      mstore\n      dup1\n      0x20\n      mul\n      0x20\n      add\n      dup3\n      add\n      0x40\n      mstore\n      dup1\n      iszero\n      tag_154\n      jumpi\n      dup2\n      0x20\n      add\n      0x20\n      dup3\n      mul\n      dup1\n      calldatasize\n      dup4\n      calldatacopy\n      add\n      swap1\n      pop\n    tag_154:\n      pop\n        /* \"ZKSYNC/infoChef.sol\":7900:7923  sale = new address[](l) */\n      swap12\n      pop\n        /* \"ZKSYNC/infoChef.sol\":7957:7958  l */\n      dup1\n      sub(shl(0x40, 0x01), 0x01)\n        /* \"ZKSYNC/infoChef.sol\":7943:7959  new address[](l) */\n      dup2\n      gt\n      iszero\n      tag_156\n      jumpi\n      tag_156\n      tag_54\n      jump\t// in\n    tag_156:\n      mload(0x40)\n      swap1\n      dup1\n      dup3\n      mstore\n      dup1\n      0x20\n      mul\n      0x20\n      add\n      dup3\n      add\n      0x40\n      mstore\n      dup1\n      iszero\n      tag_157\n      jumpi\n      dup2\n      0x20\n      add\n      0x20\n      dup3\n      mul\n      dup1\n      calldatasize\n      dup4\n      calldatacopy\n      add\n      swap1\n      pop\n    tag_157:\n      pop\n        /* \"ZKSYNC/infoChef.sol\":7935:7959  token = new address[](l) */\n      swap11\n      pop\n        /* \"ZKSYNC/infoChef.sol\":7992:7993  l */\n      dup1\n      sub(shl(0x40, 0x01), 0x01)\n        /* \"ZKSYNC/infoChef.sol\":7979:7994  new string[](l) */\n      dup2\n      gt\n      iszero\n      tag_159\n      jumpi\n      tag_159\n      tag_54\n      jump\t// in\n    tag_159:\n      mload(0x40)\n      swap1\n      dup1\n      dup3\n      mstore\n      dup1\n      0x20\n      mul\n      0x20\n      add\n      dup3\n      add\n      0x40\n      mstore\n      dup1\n      iszero\n      tag_160\n      jumpi\n      dup2\n      0x20\n      add\n    tag_161:\n      0x60\n      dup2\n      mstore\n      0x20\n      add\n      swap1\n      0x01\n      swap1\n      sub\n      swap1\n      dup2\n      tag_161\n      jumpi\n      swap1\n      pop\n    tag_160:\n      pop\n        /* \"ZKSYNC/infoChef.sol\":7971:7994  tName = new string[](l) */\n      swap10\n      pop\n        /* \"ZKSYNC/infoChef.sol\":8026:8027  l */\n      dup1\n      sub(shl(0x40, 0x01), 0x01)\n        /* \"ZKSYNC/infoChef.sol\":8013:8028  new string[](l) */\n      dup2\n      gt\n      iszero\n      tag_163\n      jumpi\n      tag_163\n      tag_54\n      jump\t// in\n    tag_163:\n      mload(0x40)\n      swap1\n      dup1\n      dup3\n      mstore\n      dup1\n      0x20\n      mul\n      0x20\n      add\n      dup3\n      add\n      0x40\n      mstore\n      dup1\n      iszero\n      tag_164\n      jumpi\n      dup2\n      0x20\n      add\n    tag_165:\n      0x60\n      dup2\n      mstore\n      0x20\n      add\n      swap1\n      0x01\n      swap1\n      sub\n      swap1\n      dup2\n      tag_165\n      jumpi\n      swap1\n      pop\n    tag_164:\n      pop\n        /* \"ZKSYNC/infoChef.sol\":8006:8028  tSym = new string[](l) */\n      swap9\n      pop\n        /* \"ZKSYNC/infoChef.sol\":8061:8062  l */\n      dup1\n      sub(shl(0x40, 0x01), 0x01)\n        /* \"ZKSYNC/infoChef.sol\":8047:8063  new uint256[](l) */\n      dup2\n      gt\n      iszero\n      tag_167\n      jumpi\n      tag_167\n      tag_54\n      jump\t// in\n    tag_167:\n      mload(0x40)\n      swap1\n      dup1\n      dup3\n      mstore\n      dup1\n      0x20\n      mul\n      0x20\n      add\n      dup3\n      add\n      0x40\n      mstore\n      dup1\n      iszero\n      tag_168\n      jumpi\n      dup2\n      0x20\n      add\n      0x20\n      dup3\n      mul\n      dup1\n      calldatasize\n      dup4\n      calldatacopy\n      add\n      swap1\n      pop\n    tag_168:\n      pop\n        /* \"ZKSYNC/infoChef.sol\":8040:8063  tDec = new uint256[](l) */\n      swap8\n      pop\n        /* \"ZKSYNC/infoChef.sol\":8097:8098  l */\n      dup1\n      sub(shl(0x40, 0x01), 0x01)\n        /* \"ZKSYNC/infoChef.sol\":8086:8099  new bool[](l) */\n      dup2\n      gt\n      iszero\n      tag_170\n      jumpi\n      tag_170\n      tag_54\n      jump\t// in\n    tag_170:\n      mload(0x40)\n      swap1\n      dup1\n      dup3\n      mstore\n      dup1\n      0x20\n      mul\n      0x20\n      add\n      dup3\n      add\n      0x40\n      mstore\n      dup1\n      iszero\n      tag_171\n      jumpi\n      dup2\n      0x20\n      add\n      0x20\n      dup3\n      mul\n      dup1\n      calldatasize\n      dup4\n      calldatacopy\n      add\n      swap1\n      pop\n    tag_171:\n      pop\n        /* \"ZKSYNC/infoChef.sol\":8075:8099  finalized =new bool[](l) */\n      swap7\n      pop\n        /* \"ZKSYNC/infoChef.sol\":8134:8135  l */\n      dup1\n      sub(shl(0x40, 0x01), 0x01)\n        /* \"ZKSYNC/infoChef.sol\":8121:8136  new string[](l) */\n      dup2\n      gt\n      iszero\n      tag_173\n      jumpi\n      tag_173\n      tag_54\n      jump\t// in\n    tag_173:\n      mload(0x40)\n      swap1\n      dup1\n      dup3\n      mstore\n      dup1\n      0x20\n      mul\n      0x20\n      add\n      dup3\n      add\n      0x40\n      mstore\n      dup1\n      iszero\n      tag_174\n      jumpi\n      dup2\n      0x20\n      add\n    tag_175:\n      0x60\n      dup2\n      mstore\n      0x20\n      add\n      swap1\n      0x01\n      swap1\n      sub\n      swap1\n      dup2\n      tag_175\n      jumpi\n      swap1\n      pop\n    tag_174:\n      pop\n        /* \"ZKSYNC/infoChef.sol\":8111:8136  logoURI = new string[](l) */\n      swap6\n      pop\n        /* \"ZKSYNC/infoChef.sol\":8174:8175  l */\n      dup1\n      sub(shl(0x40, 0x01), 0x01)\n        /* \"ZKSYNC/infoChef.sol\":8161:8176  new string[](l) */\n      dup2\n      gt\n      iszero\n      tag_177\n      jumpi\n      tag_177\n      tag_54\n      jump\t// in\n    tag_177:\n      mload(0x40)\n      swap1\n      dup1\n      dup3\n      mstore\n      dup1\n      0x20\n      mul\n      0x20\n      add\n      dup3\n      add\n      0x40\n      mstore\n      dup1\n      iszero\n      tag_178\n      jumpi\n      dup2\n      0x20\n      add\n    tag_179:\n      0x60\n      dup2\n      mstore\n      0x20\n      add\n      swap1\n      0x01\n      swap1\n      sub\n      swap1\n      dup2\n      tag_179\n      jumpi\n      swap1\n      pop\n    tag_178:\n      pop\n        /* \"ZKSYNC/infoChef.sol\":8148:8176  websiteURI = new string[](l) */\n      swap5\n      pop\n        /* \"ZKSYNC/infoChef.sol\":8213:8214  l */\n      dup1\n      sub(shl(0x40, 0x01), 0x01)\n        /* \"ZKSYNC/infoChef.sol\":8200:8215  new string[](l) */\n      dup2\n      gt\n      iszero\n      tag_181\n      jumpi\n      tag_181\n      tag_54\n      jump\t// in\n    tag_181:\n      mload(0x40)\n      swap1\n      dup1\n      dup3\n      mstore\n      dup1\n      0x20\n      mul\n      0x20\n      add\n      dup3\n      add\n      0x40\n      mstore\n      dup1\n      iszero\n      tag_182\n      jumpi\n      dup2\n      0x20\n      add\n    tag_183:\n      0x60\n      dup2\n      mstore\n      0x20\n      add\n      swap1\n      0x01\n      swap1\n      sub\n      swap1\n      dup2\n      tag_183\n      jumpi\n      swap1\n      pop\n    tag_182:\n      pop\n        /* \"ZKSYNC/infoChef.sol\":8188:8215  bannerURI = new string[](l) */\n      swap4\n      pop\n        /* \"ZKSYNC/infoChef.sol\":8253:8254  l */\n      dup1\n      sub(shl(0x40, 0x01), 0x01)\n        /* \"ZKSYNC/infoChef.sol\":8239:8255  new uint256[](l) */\n      dup2\n      gt\n      iszero\n      tag_185\n      jumpi\n      tag_185\n      tag_54\n      jump\t// in\n    tag_185:\n      mload(0x40)\n      swap1\n      dup1\n      dup3\n      mstore\n      dup1\n      0x20\n      mul\n      0x20\n      add\n      dup3\n      add\n      0x40\n      mstore\n      dup1\n      iszero\n      tag_186\n      jumpi\n      dup2\n      0x20\n      add\n      0x20\n      dup3\n      mul\n      dup1\n      calldatasize\n      dup4\n      calldatacopy\n      add\n      swap1\n      pop\n    tag_186:\n      pop\n        /* \"ZKSYNC/infoChef.sol\":8227:8255  userCount = new uint256[](l) */\n      swap3\n      pop\n        /* \"ZKSYNC/infoChef.sol\":8294:8295  l */\n      dup1\n      sub(shl(0x40, 0x01), 0x01)\n        /* \"ZKSYNC/infoChef.sol\":8280:8296  new uint256[](l) */\n      dup2\n      gt\n      iszero\n      tag_188\n      jumpi\n      tag_188\n      tag_54\n      jump\t// in\n    tag_188:\n      mload(0x40)\n      swap1\n      dup1\n      dup3\n      mstore\n      dup1\n      0x20\n      mul\n      0x20\n      add\n      dup3\n      add\n      0x40\n      mstore\n      dup1\n      iszero\n      tag_189\n      jumpi\n      dup2\n      0x20\n      add\n      0x20\n      dup3\n      mul\n      dup1\n      calldatasize\n      dup4\n      calldatacopy\n      add\n      swap1\n      pop\n    tag_189:\n      pop\n        /* \"ZKSYNC/infoChef.sol\":8267:8296  claimCount = new uint256[](l) */\n      swap2\n      pop\n        /* \"ZKSYNC/infoChef.sol\":8313:8319  uint i */\n      0x00\n        /* \"ZKSYNC/infoChef.sol\":8309:8943  for(uint i=0; i<l; i++){... */\n    tag_190:\n        /* \"ZKSYNC/infoChef.sol\":8325:8326  l */\n      dup2\n        /* \"ZKSYNC/infoChef.sol\":8323:8324  i */\n      dup2\n        /* \"ZKSYNC/infoChef.sol\":8323:8326  i<l */\n      lt\n        /* \"ZKSYNC/infoChef.sol\":8309:8943  for(uint i=0; i<l; i++){... */\n      iszero\n      tag_191\n      jumpi\n        /* \"ZKSYNC/infoChef.sol\":8357:8387  IFOFactory(factory).getSale(i) */\n      mload(0x40)\n      shl(0xe1, 0x6c7b6acb)\n      dup2\n      mstore\n      0x04\n      dup2\n      add\n        /* \"#utility.yul\":13036:13061   */\n      dup3\n      swap1\n      mstore\n      sub(shl(0xa0, 0x01), 0x01)\n        /* \"ZKSYNC/infoChef.sol\":8357:8384  IFOFactory(factory).getSale */\n      dup16\n      and\n      swap1\n      0xd8f6d596\n      swap1\n        /* \"#utility.yul\":13009:13027   */\n      0x24\n      add\n        /* \"ZKSYNC/infoChef.sol\":8357:8387  IFOFactory(factory).getSale(i) */\n      0x20\n      mload(0x40)\n      dup1\n      dup4\n      sub\n      dup2\n      dup7\n      gas\n      staticcall\n      iszero\n      dup1\n      iszero\n      tag_195\n      jumpi\n      returndatasize\n      0x00\n      dup1\n      returndatacopy\n      revert(0x00, returndatasize)\n    tag_195:\n      pop\n      pop\n      pop\n      pop\n      mload(0x40)\n      returndatasize\n      not(0x1f)\n      0x1f\n      dup3\n      add\n      and\n      dup3\n      add\n      dup1\n      0x40\n      mstore\n      pop\n      dup2\n      add\n      swap1\n      tag_196\n      swap2\n      swap1\n      tag_92\n      jump\t// in\n    tag_196:\n        /* \"ZKSYNC/infoChef.sol\":8347:8351  sale */\n      dup14\n        /* \"ZKSYNC/infoChef.sol\":8352:8353  i */\n      dup3\n        /* \"ZKSYNC/infoChef.sol\":8347:8354  sale[i] */\n      dup2\n      mload\n      dup2\n      lt\n      tag_198\n      jumpi\n      tag_198\n      tag_95\n      jump\t// in\n    tag_198:\n      0x20\n      mul\n      0x20\n      add\n      add\n        /* \"ZKSYNC/infoChef.sol\":8347:8387  sale[i] = IFOFactory(factory).getSale(i) */\n      swap1\n      sub(shl(0xa0, 0x01), 0x01)\n      and\n      swap1\n      dup2\n      sub(shl(0xa0, 0x01), 0x01)\n      and\n      dup2\n      mstore\n      pop\n      pop\n        /* \"ZKSYNC/infoChef.sol\":8417:8421  sale */\n      dup13\n        /* \"ZKSYNC/infoChef.sol\":8422:8423  i */\n      dup2\n        /* \"ZKSYNC/infoChef.sol\":8417:8424  sale[i] */\n      dup2\n      mload\n      dup2\n      lt\n      tag_200\n      jumpi\n      tag_200\n      tag_95\n      jump\t// in\n    tag_200:\n      0x20\n      mul\n      0x20\n      add\n      add\n      mload\n      sub(shl(0xa0, 0x01), 0x01)\n        /* \"ZKSYNC/infoChef.sol\":8413:8439  Ifo(sale[i]).offeringToken */\n      and\n      0xb7813607\n        /* \"ZKSYNC/infoChef.sol\":8413:8441  Ifo(sale[i]).offeringToken() */\n      mload(0x40)\n      dup2\n      0xffffffff\n      and\n      0xe0\n      shl\n      dup2\n      mstore\n      0x04\n      add\n      0x20\n      mload(0x40)\n      dup1\n      dup4\n      sub\n      dup2\n      dup7\n      gas\n      staticcall\n      iszero\n      dup1\n      iszero\n      tag_202\n      jumpi\n      returndatasize\n      0x00\n      dup1\n      returndatacopy\n      revert(0x00, returndatasize)\n    tag_202:\n      pop\n      pop\n      pop\n      pop\n      mload(0x40)\n      returndatasize\n      not(0x1f)\n      0x1f\n      dup3\n      add\n      and\n      dup3\n      add\n      dup1\n      0x40\n      mstore\n      pop\n      dup2\n      add\n      swap1\n      tag_203\n      swap2\n      swap1\n      tag_92\n      jump\t// in\n    tag_203:\n        /* \"ZKSYNC/infoChef.sol\":8402:8407  token */\n      dup13\n        /* \"ZKSYNC/infoChef.sol\":8408:8409  i */\n      dup3\n        /* \"ZKSYNC/infoChef.sol\":8402:8410  token[i] */\n      dup2\n      mload\n      dup2\n      lt\n      tag_205\n      jumpi\n      tag_205\n      tag_95\n      jump\t// in\n    tag_205:\n      0x20\n      mul\n      0x20\n      add\n      add\n        /* \"ZKSYNC/infoChef.sol\":8402:8441  token[i] = Ifo(sale[i]).offeringToken() */\n      swap1\n      sub(shl(0xa0, 0x01), 0x01)\n      and\n      swap1\n      dup2\n      sub(shl(0xa0, 0x01), 0x01)\n      and\n      dup2\n      mstore\n      pop\n      pop\n        /* \"ZKSYNC/infoChef.sol\":8456:8468  Token tokenC */\n      0x00\n        /* \"ZKSYNC/infoChef.sol\":8477:8482  token */\n      dup13\n        /* \"ZKSYNC/infoChef.sol\":8483:8484  i */\n      dup3\n        /* \"ZKSYNC/infoChef.sol\":8477:8485  token[i] */\n      dup2\n      mload\n      dup2\n      lt\n      tag_207\n      jumpi\n      tag_207\n      tag_95\n      jump\t// in\n    tag_207:\n      0x20\n      mul\n      0x20\n      add\n      add\n      mload\n        /* \"ZKSYNC/infoChef.sol\":8456:8486  Token tokenC = Token(token[i]) */\n      swap1\n      pop\n        /* \"ZKSYNC/infoChef.sol\":8512:8518  tokenC */\n      dup1\n      sub(shl(0xa0, 0x01), 0x01)\n        /* \"ZKSYNC/infoChef.sol\":8512:8523  tokenC.name */\n      and\n      0x06fdde03\n        /* \"ZKSYNC/infoChef.sol\":8512:8525  tokenC.name() */\n      mload(0x40)\n      dup2\n      0xffffffff\n      and\n      0xe0\n      shl\n      dup2\n      mstore\n      0x04\n      add\n      0x00\n      mload(0x40)\n      dup1\n      dup4\n      sub\n      dup2\n      dup7\n      gas\n      staticcall\n      iszero\n      dup1\n      iszero\n      tag_209\n      jumpi\n      returndatasize\n      0x00\n      dup1\n      returndatacopy\n      revert(0x00, returndatasize)\n    tag_209:\n      pop\n      pop\n      pop\n      pop\n      mload(0x40)\n      returndatasize\n      0x00\n      dup3\n      returndatacopy\n      0x1f\n      returndatasize\n      swap1\n      dup2\n      add\n      not(0x1f)\n      and\n      dup3\n      add\n      0x40\n      mstore\n      tag_210\n      swap2\n      swap1\n      dup2\n      add\n      swap1\n      tag_108\n      jump\t// in\n    tag_210:\n        /* \"ZKSYNC/infoChef.sol\":8501:8506  tName */\n      dup13\n        /* \"ZKSYNC/infoChef.sol\":8507:8508  i */\n      dup4\n        /* \"ZKSYNC/infoChef.sol\":8501:8509  tName[i] */\n      dup2\n      mload\n      dup2\n      lt\n      tag_212\n      jumpi\n      tag_212\n      tag_95\n      jump\t// in\n    tag_212:\n      0x20\n      mul\n      0x20\n      add\n      add\n        /* \"ZKSYNC/infoChef.sol\":8501:8525  tName[i] = tokenC.name() */\n      dup2\n      swap1\n      mstore\n      pop\n        /* \"ZKSYNC/infoChef.sol\":8550:8556  tokenC */\n      dup1\n      sub(shl(0xa0, 0x01), 0x01)\n        /* \"ZKSYNC/infoChef.sol\":8550:8563  tokenC.symbol */\n      and\n      0x95d89b41\n        /* \"ZKSYNC/infoChef.sol\":8550:8565  tokenC.symbol() */\n      mload(0x40)\n      dup2\n      0xffffffff\n      and\n      0xe0\n      shl\n      dup2\n      mstore\n      0x04\n      add\n      0x00\n      mload(0x40)\n      dup1\n      dup4\n      sub\n      dup2\n      dup7\n      gas\n      staticcall\n      iszero\n      dup1\n      iszero\n      tag_214\n      jumpi\n      returndatasize\n      0x00\n      dup1\n      returndatacopy\n      revert(0x00, returndatasize)\n    tag_214:\n      pop\n      pop\n      pop\n      pop\n      mload(0x40)\n      returndatasize\n      0x00\n      dup3\n      returndatacopy\n      0x1f\n      returndatasize\n      swap1\n      dup2\n      add\n      not(0x1f)\n      and\n      dup3\n      add\n      0x40\n      mstore\n      tag_215\n      swap2\n      swap1\n      dup2\n      add\n      swap1\n      tag_108\n      jump\t// in\n    tag_215:\n        /* \"ZKSYNC/infoChef.sol\":8540:8544  tSym */\n      dup12\n        /* \"ZKSYNC/infoChef.sol\":8545:8546  i */\n      dup4\n        /* \"ZKSYNC/infoChef.sol\":8540:8547  tSym[i] */\n      dup2\n      mload\n      dup2\n      lt\n      tag_217\n      jumpi\n      tag_217\n      tag_95\n      jump\t// in\n    tag_217:\n      0x20\n      mul\n      0x20\n      add\n      add\n        /* \"ZKSYNC/infoChef.sol\":8540:8565  tSym[i] = tokenC.symbol() */\n      dup2\n      swap1\n      mstore\n      pop\n        /* \"ZKSYNC/infoChef.sol\":8590:8596  tokenC */\n      dup1\n      sub(shl(0xa0, 0x01), 0x01)\n        /* \"ZKSYNC/infoChef.sol\":8590:8605  tokenC.decimals */\n      and\n      0x313ce567\n        /* \"ZKSYNC/infoChef.sol\":8590:8607  tokenC.decimals() */\n      mload(0x40)\n      dup2\n      0xffffffff\n      and\n      0xe0\n      shl\n      dup2\n      mstore\n      0x04\n      add\n      0x20\n      mload(0x40)\n      dup1\n      dup4\n      sub\n      dup2\n      dup7\n      gas\n      staticcall\n      iszero\n      dup1\n      iszero\n      tag_219\n      jumpi\n      returndatasize\n      0x00\n      dup1\n      returndatacopy\n      revert(0x00, returndatasize)\n    tag_219:\n      pop\n      pop\n      pop\n      pop\n      mload(0x40)\n      returndatasize\n      not(0x1f)\n      0x1f\n      dup3\n      add\n      and\n      dup3\n      add\n      dup1\n      0x40\n      mstore\n      pop\n      dup2\n      add\n      swap1\n      tag_220\n      swap2\n      swap1\n      tag_119\n      jump\t// in\n    tag_220:\n        /* \"ZKSYNC/infoChef.sol\":8580:8607  tDec[i] = tokenC.decimals() */\n      0xff\n      and\n        /* \"ZKSYNC/infoChef.sol\":8580:8584  tDec */\n      dup11\n        /* \"ZKSYNC/infoChef.sol\":8585:8586  i */\n      dup4\n        /* \"ZKSYNC/infoChef.sol\":8580:8587  tDec[i] */\n      dup2\n      mload\n      dup2\n      lt\n      tag_222\n      jumpi\n      tag_222\n      tag_95\n      jump\t// in\n    tag_222:\n      0x20\n      mul\n      0x20\n      add\n      add\n        /* \"ZKSYNC/infoChef.sol\":8580:8607  tDec[i] = tokenC.decimals() */\n      dup2\n      dup2\n      mstore\n      pop\n      pop\n        /* \"ZKSYNC/infoChef.sol\":8641:8645  sale */\n      dup14\n        /* \"ZKSYNC/infoChef.sol\":8646:8647  i */\n      dup3\n        /* \"ZKSYNC/infoChef.sol\":8641:8648  sale[i] */\n      dup2\n      mload\n      dup2\n      lt\n      tag_224\n      jumpi\n      tag_224\n      tag_95\n      jump\t// in\n    tag_224:\n      0x20\n      mul\n      0x20\n      add\n      add\n      mload\n      sub(shl(0xa0, 0x01), 0x01)\n        /* \"ZKSYNC/infoChef.sol\":8637:8659  Ifo(sale[i]).finalized */\n      and\n      0xb3f05b97\n        /* \"ZKSYNC/infoChef.sol\":8637:8661  Ifo(sale[i]).finalized() */\n      mload(0x40)\n      dup2\n      0xffffffff\n      and\n      0xe0\n      shl\n      dup2\n      mstore\n      0x04\n      add\n      0x20\n      mload(0x40)\n      dup1\n      dup4\n      sub\n      dup2\n      dup7\n      gas\n      staticcall\n      iszero\n      dup1\n      iszero\n      tag_226\n      jumpi\n      returndatasize\n      0x00\n      dup1\n      returndatacopy\n      revert(0x00, returndatasize)\n    tag_226:\n      pop\n      pop\n      pop\n      pop\n      mload(0x40)\n      returndatasize\n      not(0x1f)\n      0x1f\n      dup3\n      add\n      and\n      dup3\n      add\n      dup1\n      0x40\n      mstore\n      pop\n      dup2\n      add\n      swap1\n      tag_227\n      swap2\n      swap1\n      tag_228\n      jump\t// in\n    tag_227:\n        /* \"ZKSYNC/infoChef.sol\":8622:8631  finalized */\n      dup10\n        /* \"ZKSYNC/infoChef.sol\":8632:8633  i */\n      dup4\n        /* \"ZKSYNC/infoChef.sol\":8622:8634  finalized[i] */\n      dup2\n      mload\n      dup2\n      lt\n      tag_230\n      jumpi\n      tag_230\n      tag_95\n      jump\t// in\n    tag_230:\n      0x20\n      mul\n      0x20\n      add\n      add\n        /* \"ZKSYNC/infoChef.sol\":8622:8661  finalized[i] = Ifo(sale[i]).finalized() */\n      swap1\n      iszero\n      iszero\n      swap1\n      dup2\n      iszero\n      iszero\n      dup2\n      mstore\n      pop\n      pop\n        /* \"ZKSYNC/infoChef.sol\":8693:8697  sale */\n      dup14\n        /* \"ZKSYNC/infoChef.sol\":8698:8699  i */\n      dup3\n        /* \"ZKSYNC/infoChef.sol\":8693:8700  sale[i] */\n      dup2\n      mload\n      dup2\n      lt\n      tag_232\n      jumpi\n      tag_232\n      tag_95\n      jump\t// in\n    tag_232:\n      0x20\n      mul\n      0x20\n      add\n      add\n      mload\n      sub(shl(0xa0, 0x01), 0x01)\n        /* \"ZKSYNC/infoChef.sol\":8689:8709  Ifo(sale[i]).logoURI */\n      and\n      0x6bb38b28\n        /* \"ZKSYNC/infoChef.sol\":8689:8711  Ifo(sale[i]).logoURI() */\n      mload(0x40)\n      dup2\n      0xffffffff\n      and\n      0xe0\n      shl\n      dup2\n      mstore\n      0x04\n      add\n      0x00\n      mload(0x40)\n      dup1\n      dup4\n      sub\n      dup2\n      dup7\n      gas\n      staticcall\n      iszero\n      dup1\n      iszero\n      tag_234\n      jumpi\n      returndatasize\n      0x00\n      dup1\n      returndatacopy\n      revert(0x00, returndatasize)\n    tag_234:\n      pop\n      pop\n      pop\n      pop\n      mload(0x40)\n      returndatasize\n      0x00\n      dup3\n      returndatacopy\n      0x1f\n      returndatasize\n      swap1\n      dup2\n      add\n      not(0x1f)\n      and\n      dup3\n      add\n      0x40\n      mstore\n      tag_235\n      swap2\n      swap1\n      dup2\n      add\n      swap1\n      tag_108\n      jump\t// in\n    tag_235:\n        /* \"ZKSYNC/infoChef.sol\":8676:8683  logoURI */\n      dup9\n        /* \"ZKSYNC/infoChef.sol\":8684:8685  i */\n      dup4\n        /* \"ZKSYNC/infoChef.sol\":8676:8686  logoURI[i] */\n      dup2\n      mload\n      dup2\n      lt\n      tag_237\n      jumpi\n      tag_237\n      tag_95\n      jump\t// in\n    tag_237:\n      0x20\n      mul\n      0x20\n      add\n      add\n        /* \"ZKSYNC/infoChef.sol\":8676:8711  logoURI[i] = Ifo(sale[i]).logoURI() */\n      dup2\n      swap1\n      mstore\n      pop\n        /* \"ZKSYNC/infoChef.sol\":8746:8750  sale */\n      dup14\n        /* \"ZKSYNC/infoChef.sol\":8751:8752  i */\n      dup3\n        /* \"ZKSYNC/infoChef.sol\":8746:8753  sale[i] */\n      dup2\n      mload\n      dup2\n      lt\n      tag_239\n      jumpi\n      tag_239\n      tag_95\n      jump\t// in\n    tag_239:\n      0x20\n      mul\n      0x20\n      add\n      add\n      mload\n      sub(shl(0xa0, 0x01), 0x01)\n        /* \"ZKSYNC/infoChef.sol\":8742:8765  Ifo(sale[i]).websiteURI */\n      and\n      0x92604bc4\n        /* \"ZKSYNC/infoChef.sol\":8742:8767  Ifo(sale[i]).websiteURI() */\n      mload(0x40)\n      dup2\n      0xffffffff\n      and\n      0xe0\n      shl\n      dup2\n      mstore\n      0x04\n      add\n      0x00\n      mload(0x40)\n      dup1\n      dup4\n      sub\n      dup2\n      dup7\n      gas\n      staticcall\n      iszero\n      dup1\n      iszero\n      tag_241\n      jumpi\n      returndatasize\n      0x00\n      dup1\n      returndatacopy\n      revert(0x00, returndatasize)\n    tag_241:\n      pop\n      pop\n      pop\n      pop\n      mload(0x40)\n      returndatasize\n      0x00\n      dup3\n      returndatacopy\n      0x1f\n      returndatasize\n      swap1\n      dup2\n      add\n      not(0x1f)\n      and\n      dup3\n      add\n      0x40\n      mstore\n      tag_242\n      swap2\n      swap1\n      dup2\n      add\n      swap1\n      tag_108\n      jump\t// in\n    tag_242:\n        /* \"ZKSYNC/infoChef.sol\":8726:8736  websiteURI */\n      dup8\n        /* \"ZKSYNC/infoChef.sol\":8737:8738  i */\n      dup4\n        /* \"ZKSYNC/infoChef.sol\":8726:8739  websiteURI[i] */\n      dup2\n      mload\n      dup2\n      lt\n      tag_244\n      jumpi\n      tag_244\n      tag_95\n      jump\t// in\n    tag_244:\n      0x20\n      mul\n      0x20\n      add\n      add\n        /* \"ZKSYNC/infoChef.sol\":8726:8767  websiteURI[i] = Ifo(sale[i]).websiteURI() */\n      dup2\n      swap1\n      mstore\n      pop\n        /* \"ZKSYNC/infoChef.sol\":8801:8805  sale */\n      dup14\n        /* \"ZKSYNC/infoChef.sol\":8806:8807  i */\n      dup3\n        /* \"ZKSYNC/infoChef.sol\":8801:8808  sale[i] */\n      dup2\n      mload\n      dup2\n      lt\n      tag_246\n      jumpi\n      tag_246\n      tag_95\n      jump\t// in\n    tag_246:\n      0x20\n      mul\n      0x20\n      add\n      add\n      mload\n      sub(shl(0xa0, 0x01), 0x01)\n        /* \"ZKSYNC/infoChef.sol\":8797:8819  Ifo(sale[i]).bannerURI */\n      and\n      0x66087e23\n        /* \"ZKSYNC/infoChef.sol\":8797:8821  Ifo(sale[i]).bannerURI() */\n      mload(0x40)\n      dup2\n      0xffffffff\n      and\n      0xe0\n      shl\n      dup2\n      mstore\n      0x04\n      add\n      0x00\n      mload(0x40)\n      dup1\n      dup4\n      sub\n      dup2\n      dup7\n      gas\n      staticcall\n      iszero\n      dup1\n      iszero\n      tag_248\n      jumpi\n      returndatasize\n      0x00\n      dup1\n      returndatacopy\n      revert(0x00, returndatasize)\n    tag_248:\n      pop\n      pop\n      pop\n      pop\n      mload(0x40)\n      returndatasize\n      0x00\n      dup3\n      returndatacopy\n      0x1f\n      returndatasize\n      swap1\n      dup2\n      add\n      not(0x1f)\n      and\n      dup3\n      add\n      0x40\n      mstore\n      tag_249\n      swap2\n      swap1\n      dup2\n      add\n      swap1\n      tag_108\n      jump\t// in\n    tag_249:\n        /* \"ZKSYNC/infoChef.sol\":8782:8791  bannerURI */\n      dup7\n        /* \"ZKSYNC/infoChef.sol\":8792:8793  i */\n      dup4\n        /* \"ZKSYNC/infoChef.sol\":8782:8794  bannerURI[i] */\n      dup2\n      mload\n      dup2\n      lt\n      tag_251\n      jumpi\n      tag_251\n      tag_95\n      jump\t// in\n    tag_251:\n      0x20\n      mul\n      0x20\n      add\n      add\n        /* \"ZKSYNC/infoChef.sol\":8782:8821  bannerURI[i] = Ifo(sale[i]).bannerURI() */\n      dup2\n      swap1\n      mstore\n      pop\n        /* \"ZKSYNC/infoChef.sol\":8855:8859  sale */\n      dup14\n        /* \"ZKSYNC/infoChef.sol\":8860:8861  i */\n      dup3\n        /* \"ZKSYNC/infoChef.sol\":8855:8862  sale[i] */\n      dup2\n      mload\n      dup2\n      lt\n      tag_253\n      jumpi\n      tag_253\n      tag_95\n      jump\t// in\n    tag_253:\n      0x20\n      mul\n      0x20\n      add\n      add\n      mload\n      sub(shl(0xa0, 0x01), 0x01)\n        /* \"ZKSYNC/infoChef.sol\":8851:8873  Ifo(sale[i]).userCount */\n      and\n      0x07973ccf\n        /* \"ZKSYNC/infoChef.sol\":8851:8875  Ifo(sale[i]).userCount() */\n      mload(0x40)\n      dup2\n      0xffffffff\n      and\n      0xe0\n      shl\n      dup2\n      mstore\n      0x04\n      add\n      0x20\n      mload(0x40)\n      dup1\n      dup4\n      sub\n      dup2\n      dup7\n      gas\n      staticcall\n      iszero\n      dup1\n      iszero\n      tag_255\n      jumpi\n      returndatasize\n      0x00\n      dup1\n      returndatacopy\n      revert(0x00, returndatasize)\n    tag_255:\n      pop\n      pop\n      pop\n      pop\n      mload(0x40)\n      returndatasize\n      not(0x1f)\n      0x1f\n      dup3\n      add\n      and\n      dup3\n      add\n      dup1\n      0x40\n      mstore\n      pop\n      dup2\n      add\n      swap1\n      tag_256\n      swap2\n      swap1\n      tag_51\n      jump\t// in\n    tag_256:\n        /* \"ZKSYNC/infoChef.sol\":8836:8845  userCount */\n      dup6\n        /* \"ZKSYNC/infoChef.sol\":8846:8847  i */\n      dup4\n        /* \"ZKSYNC/infoChef.sol\":8836:8848  userCount[i] */\n      dup2\n      mload\n      dup2\n      lt\n      tag_258\n      jumpi\n      tag_258\n      tag_95\n      jump\t// in\n    tag_258:\n      0x20\n      mul\n      0x20\n      add\n      add\n        /* \"ZKSYNC/infoChef.sol\":8836:8875  userCount[i] = Ifo(sale[i]).userCount() */\n      dup2\n      dup2\n      mstore\n      pop\n      pop\n        /* \"ZKSYNC/infoChef.sol\":8910:8914  sale */\n      dup14\n        /* \"ZKSYNC/infoChef.sol\":8915:8916  i */\n      dup3\n        /* \"ZKSYNC/infoChef.sol\":8910:8917  sale[i] */\n      dup2\n      mload\n      dup2\n      lt\n      tag_260\n      jumpi\n      tag_260\n      tag_95\n      jump\t// in\n    tag_260:\n      0x20\n      mul\n      0x20\n      add\n      add\n      mload\n      sub(shl(0xa0, 0x01), 0x01)\n        /* \"ZKSYNC/infoChef.sol\":8906:8929  Ifo(sale[i]).claimCount */\n      and\n      0x8da4d3c9\n        /* \"ZKSYNC/infoChef.sol\":8906:8931  Ifo(sale[i]).claimCount() */\n      mload(0x40)\n      dup2\n      0xffffffff\n      and\n      0xe0\n      shl\n      dup2\n      mstore\n      0x04\n      add\n      0x20\n      mload(0x40)\n      dup1\n      dup4\n      sub\n      dup2\n      dup7\n      gas\n      staticcall\n      iszero\n      dup1\n      iszero\n      tag_262\n      jumpi\n      returndatasize\n      0x00\n      dup1\n      returndatacopy\n      revert(0x00, returndatasize)\n    tag_262:\n      pop\n      pop\n      pop\n      pop\n      mload(0x40)\n      returndatasize\n      not(0x1f)\n      0x1f\n      dup3\n      add\n      and\n      dup3\n      add\n      dup1\n      0x40\n      mstore\n      pop\n      dup2\n      add\n      swap1\n      tag_263\n      swap2\n      swap1\n      tag_51\n      jump\t// in\n    tag_263:\n        /* \"ZKSYNC/infoChef.sol\":8890:8900  claimCount */\n      dup5\n        /* \"ZKSYNC/infoChef.sol\":8901:8902  i */\n      dup4\n        /* \"ZKSYNC/infoChef.sol\":8890:8903  claimCount[i] */\n      dup2\n      mload\n      dup2\n      lt\n      tag_265\n      jumpi\n      tag_265\n      tag_95\n      jump\t// in\n    tag_265:\n      0x20\n      swap1\n      dup2\n      mul\n      swap2\n      swap1\n      swap2\n      add\n      add\n        /* \"ZKSYNC/infoChef.sol\":8890:8931  claimCount[i] = Ifo(sale[i]).claimCount() */\n      mstore\n      pop\n        /* \"ZKSYNC/infoChef.sol\":8328:8331  i++ */\n      dup1\n      tag_266\n      dup2\n      tag_147\n      jump\t// in\n    tag_266:\n      swap2\n      pop\n      pop\n        /* \"ZKSYNC/infoChef.sol\":8309:8943  for(uint i=0; i<l; i++){... */\n      jump(tag_190)\n    tag_191:\n      pop\n        /* \"ZKSYNC/infoChef.sol\":7829:8950  {... */\n      pop\n        /* \"ZKSYNC/infoChef.sol\":7377:8950  function getSaleInfos2(address factory) public view returns (... */\n      swap2\n      swap4\n      swap6\n      swap8\n      swap10\n      swap12\n      swap1\n      swap3\n      swap5\n      swap7\n      swap9\n      swap11\n      pop\n      jump\t// out\n        /* \"ZKSYNC/infoChef.sol\":4952:6425  function getFarmInfo(address MC) external view returns(... */\n    tag_24:\n        /* \"ZKSYNC/infoChef.sol\":5017:5038  address[] memory pair */\n      0x60\n        /* \"ZKSYNC/infoChef.sol\":5049:5072  address[] memory tokenA */\n      dup1\n        /* \"ZKSYNC/infoChef.sol\":5083:5104  string[] memory aName */\n      0x60\n        /* \"ZKSYNC/infoChef.sol\":5115:5135  string[] memory aSym */\n      dup1\n        /* \"ZKSYNC/infoChef.sol\":5146:5167  uint256[] memory aDec */\n      0x60\n        /* \"ZKSYNC/infoChef.sol\":5178:5201  address[] memory tokenB */\n      dup1\n        /* \"ZKSYNC/infoChef.sol\":5212:5233  string[] memory bName */\n      0x60\n        /* \"ZKSYNC/infoChef.sol\":5244:5264  string[] memory bSym */\n      dup1\n        /* \"ZKSYNC/infoChef.sol\":5275:5296  uint256[] memory bDec */\n      0x60\n        /* \"ZKSYNC/infoChef.sol\":5315:5333  uint256 pairLength */\n      0x00\n        /* \"ZKSYNC/infoChef.sol\":5347:5349  MC */\n      dup11\n      sub(shl(0xa0, 0x01), 0x01)\n        /* \"ZKSYNC/infoChef.sol\":5336:5361  MasterChef(MC).poolLength */\n      and\n      0x081e3eda\n        /* \"ZKSYNC/infoChef.sol\":5336:5363  MasterChef(MC).poolLength() */\n      mload(0x40)\n      dup2\n      0xffffffff\n      and\n      0xe0\n      shl\n      dup2\n      mstore\n      0x04\n      add\n      0x20\n      mload(0x40)\n      dup1\n      dup4\n      sub\n      dup2\n      dup7\n      gas\n      staticcall\n      iszero\n      dup1\n      iszero\n      tag_269\n      jumpi\n      returndatasize\n      0x00\n      dup1\n      returndatacopy\n      revert(0x00, returndatasize)\n    tag_269:\n      pop\n      pop\n      pop\n      pop\n      mload(0x40)\n      returndatasize\n      not(0x1f)\n      0x1f\n      dup3\n      add\n      and\n      dup3\n      add\n      dup1\n      0x40\n      mstore\n      pop\n      dup2\n      add\n      swap1\n      tag_270\n      swap2\n      swap1\n      tag_51\n      jump\t// in\n    tag_270:\n        /* \"ZKSYNC/infoChef.sol\":5315:5363  uint256 pairLength = MasterChef(MC).poolLength() */\n      swap1\n      pop\n        /* \"ZKSYNC/infoChef.sol\":5396:5406  pairLength */\n      dup1\n      sub(shl(0x40, 0x01), 0x01)\n        /* \"ZKSYNC/infoChef.sol\":5382:5407  new address[](pairLength) */\n      dup2\n      gt\n      iszero\n      tag_272\n      jumpi\n      tag_272\n      tag_54\n      jump\t// in\n    tag_272:\n      mload(0x40)\n      swap1\n      dup1\n      dup3\n      mstore\n      dup1\n      0x20\n      mul\n      0x20\n      add\n      dup3\n      add\n      0x40\n      mstore\n      dup1\n      iszero\n      tag_273\n      jumpi\n      dup2\n      0x20\n      add\n      0x20\n      dup3\n      mul\n      dup1\n      calldatasize\n      dup4\n      calldatacopy\n      add\n      swap1\n      pop\n    tag_273:\n      pop\n        /* \"ZKSYNC/infoChef.sol\":5375:5407  pair = new address[](pairLength) */\n      swap10\n      pop\n        /* \"ZKSYNC/infoChef.sol\":5442:5452  pairLength */\n      dup1\n      sub(shl(0x40, 0x01), 0x01)\n        /* \"ZKSYNC/infoChef.sol\":5428:5453  new address[](pairLength) */\n      dup2\n      gt\n      iszero\n      tag_275\n      jumpi\n      tag_275\n      tag_54\n      jump\t// in\n    tag_275:\n      mload(0x40)\n      swap1\n      dup1\n      dup3\n      mstore\n      dup1\n      0x20\n      mul\n      0x20\n      add\n      dup3\n      add\n      0x40\n      mstore\n      dup1\n      iszero\n      tag_276\n      jumpi\n      dup2\n      0x20\n      add\n      0x20\n      dup3\n      mul\n      dup1\n      calldatasize\n      dup4\n      calldatacopy\n      add\n      swap1\n      pop\n    tag_276:\n      pop\n        /* \"ZKSYNC/infoChef.sol\":5419:5453  tokenA = new address[](pairLength) */\n      swap9\n      pop\n        /* \"ZKSYNC/infoChef.sol\":5486:5496  pairLength */\n      dup1\n      sub(shl(0x40, 0x01), 0x01)\n        /* \"ZKSYNC/infoChef.sol\":5473:5497  new string[](pairLength) */\n      dup2\n      gt\n      iszero\n      tag_278\n      jumpi\n      tag_278\n      tag_54\n      jump\t// in\n    tag_278:\n      mload(0x40)\n      swap1\n      dup1\n      dup3\n      mstore\n      dup1\n      0x20\n      mul\n      0x20\n      add\n      dup3\n      add\n      0x40\n      mstore\n      dup1\n      iszero\n      tag_279\n      jumpi\n      dup2\n      0x20\n      add\n    tag_280:\n      0x60\n      dup2\n      mstore\n      0x20\n      add\n      swap1\n      0x01\n      swap1\n      sub\n      swap1\n      dup2\n      tag_280\n      jumpi\n      swap1\n      pop\n    tag_279:\n      pop\n        /* \"ZKSYNC/infoChef.sol\":5465:5497  aName = new string[](pairLength) */\n      swap8\n      pop\n        /* \"ZKSYNC/infoChef.sol\":5529:5539  pairLength */\n      dup1\n      sub(shl(0x40, 0x01), 0x01)\n        /* \"ZKSYNC/infoChef.sol\":5516:5540  new string[](pairLength) */\n      dup2\n      gt\n      iszero\n      tag_282\n      jumpi\n      tag_282\n      tag_54\n      jump\t// in\n    tag_282:\n      mload(0x40)\n      swap1\n      dup1\n      dup3\n      mstore\n      dup1\n      0x20\n      mul\n      0x20\n      add\n      dup3\n      add\n      0x40\n      mstore\n      dup1\n      iszero\n      tag_283\n      jumpi\n      dup2\n      0x20\n      add\n    tag_284:\n      0x60\n      dup2\n      mstore\n      0x20\n      add\n      swap1\n      0x01\n      swap1\n      sub\n      swap1\n      dup2\n      tag_284\n      jumpi\n      swap1\n      pop\n    tag_283:\n      pop\n        /* \"ZKSYNC/infoChef.sol\":5509:5540  aSym = new string[](pairLength) */\n      swap7\n      pop\n        /* \"ZKSYNC/infoChef.sol\":5573:5583  pairLength */\n      dup1\n      sub(shl(0x40, 0x01), 0x01)\n        /* \"ZKSYNC/infoChef.sol\":5559:5584  new uint256[](pairLength) */\n      dup2\n      gt\n      iszero\n      tag_286\n      jumpi\n      tag_286\n      tag_54\n      jump\t// in\n    tag_286:\n      mload(0x40)\n      swap1\n      dup1\n      dup3\n      mstore\n      dup1\n      0x20\n      mul\n      0x20\n      add\n      dup3\n      add\n      0x40\n      mstore\n      dup1\n      iszero\n      tag_287\n      jumpi\n      dup2\n      0x20\n      add\n      0x20\n      dup3\n      mul\n      dup1\n      calldatasize\n      dup4\n      calldatacopy\n      add\n      swap1\n      pop\n    tag_287:\n      pop\n        /* \"ZKSYNC/infoChef.sol\":5552:5584  aDec = new uint256[](pairLength) */\n      swap6\n      pop\n        /* \"ZKSYNC/infoChef.sol\":5619:5629  pairLength */\n      dup1\n      sub(shl(0x40, 0x01), 0x01)\n        /* \"ZKSYNC/infoChef.sol\":5605:5630  new address[](pairLength) */\n      dup2\n      gt\n      iszero\n      tag_289\n      jumpi\n      tag_289\n      tag_54\n      jump\t// in\n    tag_289:\n      mload(0x40)\n      swap1\n      dup1\n      dup3\n      mstore\n      dup1\n      0x20\n      mul\n      0x20\n      add\n      dup3\n      add\n      0x40\n      mstore\n      dup1\n      iszero\n      tag_290\n      jumpi\n      dup2\n      0x20\n      add\n      0x20\n      dup3\n      mul\n      dup1\n      calldatasize\n      dup4\n      calldatacopy\n      add\n      swap1\n      pop\n    tag_290:\n      pop\n        /* \"ZKSYNC/infoChef.sol\":5596:5630  tokenB = new address[](pairLength) */\n      swap5\n      pop\n        /* \"ZKSYNC/infoChef.sol\":5663:5673  pairLength */\n      dup1\n      sub(shl(0x40, 0x01), 0x01)\n        /* \"ZKSYNC/infoChef.sol\":5650:5674  new string[](pairLength) */\n      dup2\n      gt\n      iszero\n      tag_292\n      jumpi\n      tag_292\n      tag_54\n      jump\t// in\n    tag_292:\n      mload(0x40)\n      swap1\n      dup1\n      dup3\n      mstore\n      dup1\n      0x20\n      mul\n      0x20\n      add\n      dup3\n      add\n      0x40\n      mstore\n      dup1\n      iszero\n      tag_293\n      jumpi\n      dup2\n      0x20\n      add\n    tag_294:\n      0x60\n      dup2\n      mstore\n      0x20\n      add\n      swap1\n      0x01\n      swap1\n      sub\n      swap1\n      dup2\n      tag_294\n      jumpi\n      swap1\n      pop\n    tag_293:\n      pop\n        /* \"ZKSYNC/infoChef.sol\":5642:5674  bName = new string[](pairLength) */\n      swap4\n      pop\n        /* \"ZKSYNC/infoChef.sol\":5706:5716  pairLength */\n      dup1\n      sub(shl(0x40, 0x01), 0x01)\n        /* \"ZKSYNC/infoChef.sol\":5693:5717  new string[](pairLength) */\n      dup2\n      gt\n      iszero\n      tag_296\n      jumpi\n      tag_296\n      tag_54\n      jump\t// in\n    tag_296:\n      mload(0x40)\n      swap1\n      dup1\n      dup3\n      mstore\n      dup1\n      0x20\n      mul\n      0x20\n      add\n      dup3\n      add\n      0x40\n      mstore\n      dup1\n      iszero\n      tag_297\n      jumpi\n      dup2\n      0x20\n      add\n    tag_298:\n      0x60\n      dup2\n      mstore\n      0x20\n      add\n      swap1\n      0x01\n      swap1\n      sub\n      swap1\n      dup2\n      tag_298\n      jumpi\n      swap1\n      pop\n    tag_297:\n      pop\n        /* \"ZKSYNC/infoChef.sol\":5686:5717  bSym = new string[](pairLength) */\n      swap3\n      pop\n        /* \"ZKSYNC/infoChef.sol\":5750:5760  pairLength */\n      dup1\n      sub(shl(0x40, 0x01), 0x01)\n        /* \"ZKSYNC/infoChef.sol\":5736:5761  new uint256[](pairLength) */\n      dup2\n      gt\n      iszero\n      tag_300\n      jumpi\n      tag_300\n      tag_54\n      jump\t// in\n    tag_300:\n      mload(0x40)\n      swap1\n      dup1\n      dup3\n      mstore\n      dup1\n      0x20\n      mul\n      0x20\n      add\n      dup3\n      add\n      0x40\n      mstore\n      dup1\n      iszero\n      tag_301\n      jumpi\n      dup2\n      0x20\n      add\n      0x20\n      dup3\n      mul\n      dup1\n      calldatasize\n      dup4\n      calldatacopy\n      add\n      swap1\n      pop\n    tag_301:\n      pop\n        /* \"ZKSYNC/infoChef.sol\":5729:5761  bDec = new uint256[](pairLength) */\n      swap2\n      pop\n        /* \"ZKSYNC/infoChef.sol\":5778:5784  uint i */\n      0x00\n        /* \"ZKSYNC/infoChef.sol\":5774:6416  for(uint i=0; i<pairLength; i++){... */\n    tag_302:\n        /* \"ZKSYNC/infoChef.sol\":5790:5800  pairLength */\n      dup2\n        /* \"ZKSYNC/infoChef.sol\":5788:5789  i */\n      dup2\n        /* \"ZKSYNC/infoChef.sol\":5788:5800  i<pairLength */\n      lt\n        /* \"ZKSYNC/infoChef.sol\":5774:6416  for(uint i=0; i<pairLength; i++){... */\n      iszero\n      tag_303\n      jumpi\n        /* \"ZKSYNC/infoChef.sol\":5845:5871  MasterChef(MC).poolInfo(i) */\n      mload(0x40)\n      shl(0xe0, 0x1526fe27)\n      dup2\n      mstore\n      0x04\n      dup2\n      add\n        /* \"#utility.yul\":13036:13061   */\n      dup3\n      swap1\n      mstore\n        /* \"ZKSYNC/infoChef.sol\":5822:5838  address thisPair */\n      0x00\n      swap1\n      sub(shl(0xa0, 0x01), 0x01)\n        /* \"ZKSYNC/infoChef.sol\":5845:5868  MasterChef(MC).poolInfo */\n      dup15\n      and\n      swap1\n      0x1526fe27\n      swap1\n        /* \"#utility.yul\":13009:13027   */\n      0x24\n      add\n        /* \"ZKSYNC/infoChef.sol\":5845:5871  MasterChef(MC).poolInfo(i) */\n      0x80\n      mload(0x40)\n      dup1\n      dup4\n      sub\n      dup2\n      dup7\n      gas\n      staticcall\n      iszero\n      dup1\n      iszero\n      tag_307\n      jumpi\n      returndatasize\n      0x00\n      dup1\n      returndatacopy\n      revert(0x00, returndatasize)\n    tag_307:\n      pop\n      pop\n      pop\n      pop\n      mload(0x40)\n      returndatasize\n      not(0x1f)\n      0x1f\n      dup3\n      add\n      and\n      dup3\n      add\n      dup1\n      0x40\n      mstore\n      pop\n      dup2\n      add\n      swap1\n      tag_308\n      swap2\n      swap1\n      tag_309\n      jump\t// in\n    tag_308:\n        /* \"ZKSYNC/infoChef.sol\":5821:5871  (address thisPair,,,) = MasterChef(MC).poolInfo(i) */\n      pop\n      pop\n      pop\n      swap1\n      pop\n        /* \"ZKSYNC/infoChef.sol\":5896:5904  thisPair */\n      dup1\n        /* \"ZKSYNC/infoChef.sol\":5886:5890  pair */\n      dup13\n        /* \"ZKSYNC/infoChef.sol\":5891:5892  i */\n      dup4\n        /* \"ZKSYNC/infoChef.sol\":5886:5893  pair[i] */\n      dup2\n      mload\n      dup2\n      lt\n      tag_311\n      jumpi\n      tag_311\n      tag_95\n      jump\t// in\n    tag_311:\n      0x20\n      mul\n      0x20\n      add\n      add\n        /* \"ZKSYNC/infoChef.sol\":5886:5904  pair[i] = thisPair */\n      swap1\n      sub(shl(0xa0, 0x01), 0x01)\n      and\n      swap1\n      dup2\n      sub(shl(0xa0, 0x01), 0x01)\n      and\n      dup2\n      mstore\n      pop\n      pop\n        /* \"ZKSYNC/infoChef.sol\":5919:5934  LPToken lpToken */\n      0x00\n        /* \"ZKSYNC/infoChef.sol\":5945:5949  pair */\n      dup13\n        /* \"ZKSYNC/infoChef.sol\":5950:5951  i */\n      dup4\n        /* \"ZKSYNC/infoChef.sol\":5945:5952  pair[i] */\n      dup2\n      mload\n      dup2\n      lt\n      tag_313\n      jumpi\n      tag_313\n      tag_95\n      jump\t// in\n    tag_313:\n      0x20\n      mul\n      0x20\n      add\n      add\n      mload\n        /* \"ZKSYNC/infoChef.sol\":5919:5953  LPToken lpToken = LPToken(pair[i]) */\n      swap1\n      pop\n        /* \"ZKSYNC/infoChef.sol\":5968:5975  lpToken */\n      dup1\n      sub(shl(0xa0, 0x01), 0x01)\n        /* \"ZKSYNC/infoChef.sol\":5968:5982  lpToken.token0 */\n      and\n      0x0dfe1681\n        /* \"ZKSYNC/infoChef.sol\":5968:5984  lpToken.token0() */\n      mload(0x40)\n      dup2\n      0xffffffff\n      and\n      0xe0\n      shl\n      dup2\n      mstore\n      0x04\n      add\n      0x20\n      mload(0x40)\n      dup1\n      dup4\n      sub\n      dup2\n      dup7\n      gas\n      staticcall\n      swap3\n      pop\n      pop\n      pop\n      dup1\n      iszero\n      tag_314\n      jumpi\n      pop\n      0x40\n      dup1\n      mload\n      0x1f\n      returndatasize\n      swap1\n      dup2\n      add\n      not(0x1f)\n      and\n      dup3\n      add\n      swap1\n      swap3\n      mstore\n      tag_315\n      swap2\n      dup2\n      add\n      swap1\n      tag_92\n      jump\t// in\n    tag_315:\n      0x01\n    tag_314:\n        /* \"ZKSYNC/infoChef.sol\":5964:6405  try lpToken.token0()... */\n      iszero\n      tag_320\n      jumpi\n      pop\n        /* \"ZKSYNC/infoChef.sol\":6021:6028  lpToken */\n      dup1\n      sub(shl(0xa0, 0x01), 0x01)\n        /* \"ZKSYNC/infoChef.sol\":6021:6035  lpToken.token0 */\n      and\n      0x0dfe1681\n        /* \"ZKSYNC/infoChef.sol\":6021:6037  lpToken.token0() */\n      mload(0x40)\n      dup2\n      0xffffffff\n      and\n      0xe0\n      shl\n      dup2\n      mstore\n      0x04\n      add\n      0x20\n      mload(0x40)\n      dup1\n      dup4\n      sub\n      dup2\n      dup7\n      gas\n      staticcall\n      iszero\n      dup1\n      iszero\n      tag_322\n      jumpi\n      returndatasize\n      0x00\n      dup1\n      returndatacopy\n      revert(0x00, returndatasize)\n    tag_322:\n      pop\n      pop\n      pop\n      pop\n      mload(0x40)\n      returndatasize\n      not(0x1f)\n      0x1f\n      dup3\n      add\n      and\n      dup3\n      add\n      dup1\n      0x40\n      mstore\n      pop\n      dup2\n      add\n      swap1\n      tag_323\n      swap2\n      swap1\n      tag_92\n      jump\t// in\n    tag_323:\n        /* \"ZKSYNC/infoChef.sol\":6009:6015  tokenA */\n      dup13\n        /* \"ZKSYNC/infoChef.sol\":6016:6017  i */\n      dup5\n        /* \"ZKSYNC/infoChef.sol\":6009:6018  tokenA[i] */\n      dup2\n      mload\n      dup2\n      lt\n      tag_325\n      jumpi\n      tag_325\n      tag_95\n      jump\t// in\n    tag_325:\n      0x20\n      mul\n      0x20\n      add\n      add\n        /* \"ZKSYNC/infoChef.sol\":6009:6037  tokenA[i] = lpToken.token0() */\n      swap1\n      sub(shl(0xa0, 0x01), 0x01)\n      and\n      swap1\n      dup2\n      sub(shl(0xa0, 0x01), 0x01)\n      and\n      dup2\n      mstore\n      pop\n      pop\n        /* \"ZKSYNC/infoChef.sol\":6064:6071  lpToken */\n      dup1\n      sub(shl(0xa0, 0x01), 0x01)\n        /* \"ZKSYNC/infoChef.sol\":6064:6078  lpToken.token1 */\n      and\n      0xd21220a7\n        /* \"ZKSYNC/infoChef.sol\":6064:6080  lpToken.token1() */\n      mload(0x40)\n      dup2\n      0xffffffff\n      and\n      0xe0\n      shl\n      dup2\n      mstore\n      0x04\n      add\n      0x20\n      mload(0x40)\n      dup1\n      dup4\n      sub\n      dup2\n      dup7\n      gas\n      staticcall\n      iszero\n      dup1\n      iszero\n      tag_327\n      jumpi\n      returndatasize\n      0x00\n      dup1\n      returndatacopy\n      revert(0x00, returndatasize)\n    tag_327:\n      pop\n      pop\n      pop\n      pop\n      mload(0x40)\n      returndatasize\n      not(0x1f)\n      0x1f\n      dup3\n      add\n      and\n      dup3\n      add\n      dup1\n      0x40\n      mstore\n      pop\n      dup2\n      add\n      swap1\n      tag_328\n      swap2\n      swap1\n      tag_92\n      jump\t// in\n    tag_328:\n        /* \"ZKSYNC/infoChef.sol\":6052:6058  tokenB */\n      dup9\n        /* \"ZKSYNC/infoChef.sol\":6059:6060  i */\n      dup5\n        /* \"ZKSYNC/infoChef.sol\":6052:6061  tokenB[i] */\n      dup2\n      mload\n      dup2\n      lt\n      tag_330\n      jumpi\n      tag_330\n      tag_95\n      jump\t// in\n    tag_330:\n      0x20\n      mul\n      0x20\n      add\n      add\n        /* \"ZKSYNC/infoChef.sol\":6052:6080  tokenB[i] = lpToken.token1() */\n      swap1\n      sub(shl(0xa0, 0x01), 0x01)\n      and\n      swap1\n      dup2\n      sub(shl(0xa0, 0x01), 0x01)\n      and\n      dup2\n      mstore\n      pop\n      pop\n        /* \"ZKSYNC/infoChef.sol\":6095:6103  Token tA */\n      0x00\n        /* \"ZKSYNC/infoChef.sol\":6112:6118  tokenA */\n      dup13\n        /* \"ZKSYNC/infoChef.sol\":6119:6120  i */\n      dup5\n        /* \"ZKSYNC/infoChef.sol\":6112:6121  tokenA[i] */\n      dup2\n      mload\n      dup2\n      lt\n      tag_332\n      jumpi\n      tag_332\n      tag_95\n      jump\t// in\n    tag_332:\n      0x20\n      mul\n      0x20\n      add\n      add\n      mload\n        /* \"ZKSYNC/infoChef.sol\":6095:6122  Token tA = Token(tokenA[i]) */\n      swap1\n      pop\n        /* \"ZKSYNC/infoChef.sol\":6137:6145  Token tB */\n      0x00\n        /* \"ZKSYNC/infoChef.sol\":6154:6160  tokenB */\n      dup10\n        /* \"ZKSYNC/infoChef.sol\":6161:6162  i */\n      dup6\n        /* \"ZKSYNC/infoChef.sol\":6154:6163  tokenB[i] */\n      dup2\n      mload\n      dup2\n      lt\n      tag_334\n      jumpi\n      tag_334\n      tag_95\n      jump\t// in\n    tag_334:\n      0x20\n      mul\n      0x20\n      add\n      add\n      mload\n        /* \"ZKSYNC/infoChef.sol\":6137:6164  Token tB = Token(tokenB[i]) */\n      swap1\n      pop\n        /* \"ZKSYNC/infoChef.sol\":6190:6192  tA */\n      dup2\n      sub(shl(0xa0, 0x01), 0x01)\n        /* \"ZKSYNC/infoChef.sol\":6190:6197  tA.name */\n      and\n      0x06fdde03\n        /* \"ZKSYNC/infoChef.sol\":6190:6199  tA.name() */\n      mload(0x40)\n      dup2\n      0xffffffff\n      and\n      0xe0\n      shl\n      dup2\n      mstore\n      0x04\n      add\n      0x00\n      mload(0x40)\n      dup1\n      dup4\n      sub\n      dup2\n      dup7\n      gas\n      staticcall\n      iszero\n      dup1\n      iszero\n      tag_336\n      jumpi\n      returndatasize\n      0x00\n      dup1\n      returndatacopy\n      revert(0x00, returndatasize)\n    tag_336:\n      pop\n      pop\n      pop\n      pop\n      mload(0x40)\n      returndatasize\n      0x00\n      dup3\n      returndatacopy\n      0x1f\n      returndatasize\n      swap1\n      dup2\n      add\n      not(0x1f)\n      and\n      dup3\n      add\n      0x40\n      mstore\n      tag_337\n      swap2\n      swap1\n      dup2\n      add\n      swap1\n      tag_108\n      jump\t// in\n    tag_337:\n        /* \"ZKSYNC/infoChef.sol\":6179:6184  aName */\n      dup14\n        /* \"ZKSYNC/infoChef.sol\":6185:6186  i */\n      dup7\n        /* \"ZKSYNC/infoChef.sol\":6179:6187  aName[i] */\n      dup2\n      mload\n      dup2\n      lt\n      tag_339\n      jumpi\n      tag_339\n      tag_95\n      jump\t// in\n    tag_339:\n      0x20\n      mul\n      0x20\n      add\n      add\n        /* \"ZKSYNC/infoChef.sol\":6179:6199  aName[i] = tA.name() */\n      dup2\n      swap1\n      mstore\n      pop\n        /* \"ZKSYNC/infoChef.sol\":6224:6226  tA */\n      dup2\n      sub(shl(0xa0, 0x01), 0x01)\n        /* \"ZKSYNC/infoChef.sol\":6224:6233  tA.symbol */\n      and\n      0x95d89b41\n        /* \"ZKSYNC/infoChef.sol\":6224:6235  tA.symbol() */\n      mload(0x40)\n      dup2\n      0xffffffff\n      and\n      0xe0\n      shl\n      dup2\n      mstore\n      0x04\n      add\n      0x00\n      mload(0x40)\n      dup1\n      dup4\n      sub\n      dup2\n      dup7\n      gas\n      staticcall\n      iszero\n      dup1\n      iszero\n      tag_341\n      jumpi\n      returndatasize\n      0x00\n      dup1\n      returndatacopy\n      revert(0x00, returndatasize)\n    tag_341:\n      pop\n      pop\n      pop\n      pop\n      mload(0x40)\n      returndatasize\n      0x00\n      dup3\n      returndatacopy\n      0x1f\n      returndatasize\n      swap1\n      dup2\n      add\n      not(0x1f)\n      and\n      dup3\n      add\n      0x40\n      mstore\n      tag_342\n      swap2\n      swap1\n      dup2\n      add\n      swap1\n      tag_108\n      jump\t// in\n    tag_342:\n        /* \"ZKSYNC/infoChef.sol\":6214:6218  aSym */\n      dup13\n        /* \"ZKSYNC/infoChef.sol\":6219:6220  i */\n      dup7\n        /* \"ZKSYNC/infoChef.sol\":6214:6221  aSym[i] */\n      dup2\n      mload\n      dup2\n      lt\n      tag_344\n      jumpi\n      tag_344\n      tag_95\n      jump\t// in\n    tag_344:\n      0x20\n      mul\n      0x20\n      add\n      add\n        /* \"ZKSYNC/infoChef.sol\":6214:6235  aSym[i] = tA.symbol() */\n      dup2\n      swap1\n      mstore\n      pop\n        /* \"ZKSYNC/infoChef.sol\":6260:6262  tA */\n      dup2\n      sub(shl(0xa0, 0x01), 0x01)\n        /* \"ZKSYNC/infoChef.sol\":6260:6271  tA.decimals */\n      and\n      0x313ce567\n        /* \"ZKSYNC/infoChef.sol\":6260:6273  tA.decimals() */\n      mload(0x40)\n      dup2\n      0xffffffff\n      and\n      0xe0\n      shl\n      dup2\n      mstore\n      0x04\n      add\n      0x20\n      mload(0x40)\n      dup1\n      dup4\n      sub\n      dup2\n      dup7\n      gas\n      staticcall\n      iszero\n      dup1\n      iszero\n      tag_346\n      jumpi\n      returndatasize\n      0x00\n      dup1\n      returndatacopy\n      revert(0x00, returndatasize)\n    tag_346:\n      pop\n      pop\n      pop\n      pop\n      mload(0x40)\n      returndatasize\n      not(0x1f)\n      0x1f\n      dup3\n      add\n      and\n      dup3\n      add\n      dup1\n      0x40\n      mstore\n      pop\n      dup2\n      add\n      swap1\n      tag_347\n      swap2\n      swap1\n      tag_119\n      jump\t// in\n    tag_347:\n        /* \"ZKSYNC/infoChef.sol\":6250:6273  aDec[i] = tA.decimals() */\n      0xff\n      and\n        /* \"ZKSYNC/infoChef.sol\":6250:6254  aDec */\n      dup12\n        /* \"ZKSYNC/infoChef.sol\":6255:6256  i */\n      dup7\n        /* \"ZKSYNC/infoChef.sol\":6250:6257  aDec[i] */\n      dup2\n      mload\n      dup2\n      lt\n      tag_349\n      jumpi\n      tag_349\n      tag_95\n      jump\t// in\n    tag_349:\n      0x20\n      mul\n      0x20\n      add\n      add\n        /* \"ZKSYNC/infoChef.sol\":6250:6273  aDec[i] = tA.decimals() */\n      dup2\n      dup2\n      mstore\n      pop\n      pop\n        /* \"ZKSYNC/infoChef.sol\":6300:6302  tB */\n      dup1\n      sub(shl(0xa0, 0x01), 0x01)\n        /* \"ZKSYNC/infoChef.sol\":6300:6307  tB.name */\n      and\n      0x06fdde03\n        /* \"ZKSYNC/infoChef.sol\":6300:6309  tB.name() */\n      mload(0x40)\n      dup2\n      0xffffffff\n      and\n      0xe0\n      shl\n      dup2\n      mstore\n      0x04\n      add\n      0x00\n      mload(0x40)\n      dup1\n      dup4\n      sub\n      dup2\n      dup7\n      gas\n      staticcall\n      iszero\n      dup1\n      iszero\n      tag_351\n      jumpi\n      returndatasize\n      0x00\n      dup1\n      returndatacopy\n      revert(0x00, returndatasize)\n    tag_351:\n      pop\n      pop\n      pop\n      pop\n      mload(0x40)\n      returndatasize\n      0x00\n      dup3\n      returndatacopy\n      0x1f\n      returndatasize\n      swap1\n      dup2\n      add\n      not(0x1f)\n      and\n      dup3\n      add\n      0x40\n      mstore\n      tag_352\n      swap2\n      swap1\n      dup2\n      add\n      swap1\n      tag_108\n      jump\t// in\n    tag_352:\n        /* \"ZKSYNC/infoChef.sol\":6289:6294  bName */\n      dup10\n        /* \"ZKSYNC/infoChef.sol\":6295:6296  i */\n      dup7\n        /* \"ZKSYNC/infoChef.sol\":6289:6297  bName[i] */\n      dup2\n      mload\n      dup2\n      lt\n      tag_354\n      jumpi\n      tag_354\n      tag_95\n      jump\t// in\n    tag_354:\n      0x20\n      mul\n      0x20\n      add\n      add\n        /* \"ZKSYNC/infoChef.sol\":6289:6309  bName[i] = tB.name() */\n      dup2\n      swap1\n      mstore\n      pop\n        /* \"ZKSYNC/infoChef.sol\":6334:6336  tB */\n      dup1\n      sub(shl(0xa0, 0x01), 0x01)\n        /* \"ZKSYNC/infoChef.sol\":6334:6343  tB.symbol */\n      and\n      0x95d89b41\n        /* \"ZKSYNC/infoChef.sol\":6334:6345  tB.symbol() */\n      mload(0x40)\n      dup2\n      0xffffffff\n      and\n      0xe0\n      shl\n      dup2\n      mstore\n      0x04\n      add\n      0x00\n      mload(0x40)\n      dup1\n      dup4\n      sub\n      dup2\n      dup7\n      gas\n      staticcall\n      iszero\n      dup1\n      iszero\n      tag_356\n      jumpi\n      returndatasize\n      0x00\n      dup1\n      returndatacopy\n      revert(0x00, returndatasize)\n    tag_356:\n      pop\n      pop\n      pop\n      pop\n      mload(0x40)\n      returndatasize\n      0x00\n      dup3\n      returndatacopy\n      0x1f\n      returndatasize\n      swap1\n      dup2\n      add\n      not(0x1f)\n      and\n      dup3\n      add\n      0x40\n      mstore\n      tag_357\n      swap2\n      swap1\n      dup2\n      add\n      swap1\n      tag_108\n      jump\t// in\n    tag_357:\n        /* \"ZKSYNC/infoChef.sol\":6324:6328  bSym */\n      dup9\n        /* \"ZKSYNC/infoChef.sol\":6329:6330  i */\n      dup7\n        /* \"ZKSYNC/infoChef.sol\":6324:6331  bSym[i] */\n      dup2\n      mload\n      dup2\n      lt\n      tag_359\n      jumpi\n      tag_359\n      tag_95\n      jump\t// in\n    tag_359:\n      0x20\n      mul\n      0x20\n      add\n      add\n        /* \"ZKSYNC/infoChef.sol\":6324:6345  bSym[i] = tB.symbol() */\n      dup2\n      swap1\n      mstore\n      pop\n        /* \"ZKSYNC/infoChef.sol\":6370:6372  tB */\n      dup1\n      sub(shl(0xa0, 0x01), 0x01)\n        /* \"ZKSYNC/infoChef.sol\":6370:6381  tB.decimals */\n      and\n      0x313ce567\n        /* \"ZKSYNC/infoChef.sol\":6370:6383  tB.decimals() */\n      mload(0x40)\n      dup2\n      0xffffffff\n      and\n      0xe0\n      shl\n      dup2\n      mstore\n      0x04\n      add\n      0x20\n      mload(0x40)\n      dup1\n      dup4\n      sub\n      dup2\n      dup7\n      gas\n      staticcall\n      iszero\n      dup1\n      iszero\n      tag_361\n      jumpi\n      returndatasize\n      0x00\n      dup1\n      returndatacopy\n      revert(0x00, returndatasize)\n    tag_361:\n      pop\n      pop\n      pop\n      pop\n      mload(0x40)\n      returndatasize\n      not(0x1f)\n      0x1f\n      dup3\n      add\n      and\n      dup3\n      add\n      dup1\n      0x40\n      mstore\n      pop\n      dup2\n      add\n      swap1\n      tag_362\n      swap2\n      swap1\n      tag_119\n      jump\t// in\n    tag_362:\n        /* \"ZKSYNC/infoChef.sol\":6360:6383  bDec[i] = tB.decimals() */\n      0xff\n      and\n        /* \"ZKSYNC/infoChef.sol\":6360:6364  bDec */\n      dup8\n        /* \"ZKSYNC/infoChef.sol\":6365:6366  i */\n      dup7\n        /* \"ZKSYNC/infoChef.sol\":6360:6367  bDec[i] */\n      dup2\n      mload\n      dup2\n      lt\n      tag_364\n      jumpi\n      tag_364\n      tag_95\n      jump\t// in\n    tag_364:\n      0x20\n      mul\n      0x20\n      add\n      add\n        /* \"ZKSYNC/infoChef.sol\":6360:6383  bDec[i] = tB.decimals() */\n      dup2\n      dup2\n      mstore\n      pop\n      pop\n        /* \"ZKSYNC/infoChef.sol\":5994:6396  {... */\n      pop\n      pop\n        /* \"ZKSYNC/infoChef.sol\":5964:6405  try lpToken.token0()... */\n    tag_320:\n        /* \"ZKSYNC/infoChef.sol\":5806:6416  {... */\n      pop\n      pop\n        /* \"ZKSYNC/infoChef.sol\":5802:5805  i++ */\n      dup1\n      dup1\n      tag_365\n      swap1\n      tag_147\n      jump\t// in\n    tag_365:\n      swap2\n      pop\n      pop\n        /* \"ZKSYNC/infoChef.sol\":5774:6416  for(uint i=0; i<pairLength; i++){... */\n      jump(tag_302)\n    tag_303:\n      pop\n        /* \"ZKSYNC/infoChef.sol\":5304:6425  {... */\n      pop\n        /* \"ZKSYNC/infoChef.sol\":4952:6425  function getFarmInfo(address MC) external view returns(... */\n      swap2\n      swap4\n      swap6\n      swap8\n      swap10\n      swap1\n      swap3\n      swap5\n      swap7\n      swap9\n      pop\n      jump\t// out\n        /* \"ZKSYNC/infoChef.sol\":10633:12158  function getNftPoolInfo(address poolFactory) external view returns (... */\n    tag_28:\n        /* \"ZKSYNC/infoChef.sol\":10711:10743  address[] memory contractAddress */\n      0x60\n        /* \"ZKSYNC/infoChef.sol\":10754:10783  address[] memory stakeAddress */\n      dup1\n        /* \"ZKSYNC/infoChef.sol\":10794:10819  string[] memory stakeName */\n      0x60\n        /* \"ZKSYNC/infoChef.sol\":10830:10854  string[] memory stakeSym */\n      dup1\n        /* \"ZKSYNC/infoChef.sol\":10865:10901  EarningTokens[] memory earnAddresses */\n      0x60\n        /* \"ZKSYNC/infoChef.sol\":10924:10942  IPFactory pfactory */\n      0x00\n        /* \"ZKSYNC/infoChef.sol\":10955:10966  poolFactory */\n      dup7\n        /* \"ZKSYNC/infoChef.sol\":10924:10967  IPFactory pfactory = IPFactory(poolFactory) */\n      swap1\n      pop\n        /* \"ZKSYNC/infoChef.sol\":10978:10993  uint256 howMany */\n      0x00\n        /* \"ZKSYNC/infoChef.sol\":10996:11004  pfactory */\n      dup2\n      sub(shl(0xa0, 0x01), 0x01)\n        /* \"ZKSYNC/infoChef.sol\":10996:11017  pfactory.howManyPools */\n      and\n      0xb9fb0fb7\n        /* \"ZKSYNC/infoChef.sol\":10996:11019  pfactory.howManyPools() */\n      mload(0x40)\n      dup2\n      0xffffffff\n      and\n      0xe0\n      shl\n      dup2\n      mstore\n      0x04\n      add\n      0x20\n      mload(0x40)\n      dup1\n      dup4\n      sub\n      dup2\n      dup7\n      gas\n      staticcall\n      iszero\n      dup1\n      iszero\n      tag_368\n      jumpi\n      returndatasize\n      0x00\n      dup1\n      returndatacopy\n      revert(0x00, returndatasize)\n    tag_368:\n      pop\n      pop\n      pop\n      pop\n      mload(0x40)\n      returndatasize\n      not(0x1f)\n      0x1f\n      dup3\n      add\n      and\n      dup3\n      add\n      dup1\n      0x40\n      mstore\n      pop\n      dup2\n      add\n      swap1\n      tag_369\n      swap2\n      swap1\n      tag_51\n      jump\t// in\n    tag_369:\n        /* \"ZKSYNC/infoChef.sol\":10978:11019  uint256 howMany = pfactory.howManyPools() */\n      swap1\n      pop\n        /* \"ZKSYNC/infoChef.sol\":11064:11071  howMany */\n      dup1\n      sub(shl(0x40, 0x01), 0x01)\n        /* \"ZKSYNC/infoChef.sol\":11050:11072  new address[](howMany) */\n      dup2\n      gt\n      iszero\n      tag_371\n      jumpi\n      tag_371\n      tag_54\n      jump\t// in\n    tag_371:\n      mload(0x40)\n      swap1\n      dup1\n      dup3\n      mstore\n      dup1\n      0x20\n      mul\n      0x20\n      add\n      dup3\n      add\n      0x40\n      mstore\n      dup1\n      iszero\n      tag_372\n      jumpi\n      dup2\n      0x20\n      add\n      0x20\n      dup3\n      mul\n      dup1\n      calldatasize\n      dup4\n      calldatacopy\n      add\n      swap1\n      pop\n    tag_372:\n      pop\n        /* \"ZKSYNC/infoChef.sol\":11032:11072  contractAddress = new address[](howMany) */\n      swap7\n      pop\n        /* \"ZKSYNC/infoChef.sol\":11112:11119  howMany */\n      dup1\n      sub(shl(0x40, 0x01), 0x01)\n        /* \"ZKSYNC/infoChef.sol\":11098:11120  new address[](howMany) */\n      dup2\n      gt\n      iszero\n      tag_374\n      jumpi\n      tag_374\n      tag_54\n      jump\t// in\n    tag_374:\n      mload(0x40)\n      swap1\n      dup1\n      dup3\n      mstore\n      dup1\n      0x20\n      mul\n      0x20\n      add\n      dup3\n      add\n      0x40\n      mstore\n      dup1\n      iszero\n      tag_375\n      jumpi\n      dup2\n      0x20\n      add\n      0x20\n      dup3\n      mul\n      dup1\n      calldatasize\n      dup4\n      calldatacopy\n      add\n      swap1\n      pop\n    tag_375:\n      pop\n        /* \"ZKSYNC/infoChef.sol\":11083:11120  stakeAddress = new address[](howMany) */\n      swap6\n      pop\n        /* \"ZKSYNC/infoChef.sol\":11156:11163  howMany */\n      dup1\n      sub(shl(0x40, 0x01), 0x01)\n        /* \"ZKSYNC/infoChef.sol\":11143:11164  new string[](howMany) */\n      dup2\n      gt\n      iszero\n      tag_377\n      jumpi\n      tag_377\n      tag_54\n      jump\t// in\n    tag_377:\n      mload(0x40)\n      swap1\n      dup1\n      dup3\n      mstore\n      dup1\n      0x20\n      mul\n      0x20\n      add\n      dup3\n      add\n      0x40\n      mstore\n      dup1\n      iszero\n      tag_378\n      jumpi\n      dup2\n      0x20\n      add\n    tag_379:\n      0x60\n      dup2\n      mstore\n      0x20\n      add\n      swap1\n      0x01\n      swap1\n      sub\n      swap1\n      dup2\n      tag_379\n      jumpi\n      swap1\n      pop\n    tag_378:\n      pop\n        /* \"ZKSYNC/infoChef.sol\":11131:11164  stakeName = new string[](howMany) */\n      swap5\n      pop\n        /* \"ZKSYNC/infoChef.sol\":11199:11206  howMany */\n      dup1\n      sub(shl(0x40, 0x01), 0x01)\n        /* \"ZKSYNC/infoChef.sol\":11186:11207  new string[](howMany) */\n      dup2\n      gt\n      iszero\n      tag_381\n      jumpi\n      tag_381\n      tag_54\n      jump\t// in\n    tag_381:\n      mload(0x40)\n      swap1\n      dup1\n      dup3\n      mstore\n      dup1\n      0x20\n      mul\n      0x20\n      add\n      dup3\n      add\n      0x40\n      mstore\n      dup1\n      iszero\n      tag_382\n      jumpi\n      dup2\n      0x20\n      add\n    tag_383:\n      0x60\n      dup2\n      mstore\n      0x20\n      add\n      swap1\n      0x01\n      swap1\n      sub\n      swap1\n      dup2\n      tag_383\n      jumpi\n      swap1\n      pop\n    tag_382:\n      pop\n        /* \"ZKSYNC/infoChef.sol\":11175:11207  stakeSym = new string[](howMany) */\n      swap4\n      pop\n        /* \"ZKSYNC/infoChef.sol\":11254:11261  howMany */\n      dup1\n      sub(shl(0x40, 0x01), 0x01)\n        /* \"ZKSYNC/infoChef.sol\":11234:11262  new EarningTokens[](howMany) */\n      dup2\n      gt\n      iszero\n      tag_385\n      jumpi\n      tag_385\n      tag_54\n      jump\t// in\n    tag_385:\n      mload(0x40)\n      swap1\n      dup1\n      dup3\n      mstore\n      dup1\n      0x20\n      mul\n      0x20\n      add\n      dup3\n      add\n      0x40\n      mstore\n      dup1\n      iszero\n      tag_386\n      jumpi\n      dup2\n      0x20\n      add\n    tag_387:\n      0x40\n      dup1\n      mload\n      0x20\n      dup2\n      add\n      swap1\n      swap2\n      mstore\n      0x60\n      dup2\n      mstore\n      dup2\n      mstore\n      0x20\n      add\n      swap1\n      0x01\n      swap1\n      sub\n      swap1\n      dup2\n      tag_387\n      jumpi\n      swap1\n      pop\n    tag_386:\n      pop\n        /* \"ZKSYNC/infoChef.sol\":11218:11262  earnAddresses = new EarningTokens[](howMany) */\n      swap3\n      pop\n        /* \"ZKSYNC/infoChef.sol\":11288:11294  uint i */\n      0x00\n        /* \"ZKSYNC/infoChef.sol\":11284:12151  for(uint i=0; i<howMany; i++) {... */\n    tag_390:\n        /* \"ZKSYNC/infoChef.sol\":11300:11307  howMany */\n      dup2\n        /* \"ZKSYNC/infoChef.sol\":11298:11299  i */\n      dup2\n        /* \"ZKSYNC/infoChef.sol\":11298:11307  i<howMany */\n      lt\n        /* \"ZKSYNC/infoChef.sol\":11284:12151  for(uint i=0; i<howMany; i++) {... */\n      iszero\n      tag_391\n      jumpi\n        /* \"ZKSYNC/infoChef.sol\":11350:11369  pfactory.getPool(i) */\n      mload(0x40)\n      shl(0xe0, 0x068bcd8d)\n      dup2\n      mstore\n      0x04\n      dup2\n      add\n        /* \"#utility.yul\":13036:13061   */\n      dup3\n      swap1\n      mstore\n      sub(shl(0xa0, 0x01), 0x01)\n        /* \"ZKSYNC/infoChef.sol\":11350:11366  pfactory.getPool */\n      dup5\n      and\n      swap1\n      0x068bcd8d\n      swap1\n        /* \"#utility.yul\":13009:13027   */\n      0x24\n      add\n        /* \"ZKSYNC/infoChef.sol\":11350:11369  pfactory.getPool(i) */\n      0x20\n      mload(0x40)\n      dup1\n      dup4\n      sub\n      dup2\n      dup7\n      gas\n      staticcall\n      iszero\n      dup1\n      iszero\n      tag_395\n      jumpi\n      returndatasize\n      0x00\n      dup1\n      returndatacopy\n      revert(0x00, returndatasize)\n    tag_395:\n      pop\n      pop\n      pop\n      pop\n      mload(0x40)\n      returndatasize\n      not(0x1f)\n      0x1f\n      dup3\n      add\n      and\n      dup3\n      add\n      dup1\n      0x40\n      mstore\n      pop\n      dup2\n      add\n      swap1\n      tag_396\n      swap2\n      swap1\n      tag_92\n      jump\t// in\n    tag_396:\n        /* \"ZKSYNC/infoChef.sol\":11329:11344  contractAddress */\n      dup9\n        /* \"ZKSYNC/infoChef.sol\":11345:11346  i */\n      dup3\n        /* \"ZKSYNC/infoChef.sol\":11329:11347  contractAddress[i] */\n      dup2\n      mload\n      dup2\n      lt\n      tag_398\n      jumpi\n      tag_398\n      tag_95\n      jump\t// in\n    tag_398:\n      0x20\n      mul\n      0x20\n      add\n      add\n        /* \"ZKSYNC/infoChef.sol\":11329:11369  contractAddress[i] = pfactory.getPool(i) */\n      swap1\n      sub(shl(0xa0, 0x01), 0x01)\n      and\n      swap1\n      dup2\n      sub(shl(0xa0, 0x01), 0x01)\n      and\n      dup2\n      mstore\n      pop\n      pop\n        /* \"ZKSYNC/infoChef.sol\":11408:11423  contractAddress */\n      dup8\n        /* \"ZKSYNC/infoChef.sol\":11424:11425  i */\n      dup2\n        /* \"ZKSYNC/infoChef.sol\":11408:11426  contractAddress[i] */\n      dup2\n      mload\n      dup2\n      lt\n      tag_400\n      jumpi\n      tag_400\n      tag_95\n      jump\t// in\n    tag_400:\n      0x20\n      mul\n      0x20\n      add\n      add\n      mload\n      sub(shl(0xa0, 0x01), 0x01)\n        /* \"ZKSYNC/infoChef.sol\":11402:11439  IPool(contractAddress[i]).stakedToken */\n      and\n      0xcc7a262e\n        /* \"ZKSYNC/infoChef.sol\":11402:11441  IPool(contractAddress[i]).stakedToken() */\n      mload(0x40)\n      dup2\n      0xffffffff\n      and\n      0xe0\n      shl\n      dup2\n      mstore\n      0x04\n      add\n      0x20\n      mload(0x40)\n      dup1\n      dup4\n      sub\n      dup2\n      dup7\n      gas\n      staticcall\n      iszero\n      dup1\n      iszero\n      tag_402\n      jumpi\n      returndatasize\n      0x00\n      dup1\n      returndatacopy\n      revert(0x00, returndatasize)\n    tag_402:\n      pop\n      pop\n      pop\n      pop\n      mload(0x40)\n      returndatasize\n      not(0x1f)\n      0x1f\n      dup3\n      add\n      and\n      dup3\n      add\n      dup1\n      0x40\n      mstore\n      pop\n      dup2\n      add\n      swap1\n      tag_403\n      swap2\n      swap1\n      tag_92\n      jump\t// in\n    tag_403:\n        /* \"ZKSYNC/infoChef.sol\":11384:11396  stakeAddress */\n      dup8\n        /* \"ZKSYNC/infoChef.sol\":11397:11398  i */\n      dup3\n        /* \"ZKSYNC/infoChef.sol\":11384:11399  stakeAddress[i] */\n      dup2\n      mload\n      dup2\n      lt\n      tag_405\n      jumpi\n      tag_405\n      tag_95\n      jump\t// in\n    tag_405:\n      0x20\n      mul\n      0x20\n      add\n      add\n        /* \"ZKSYNC/infoChef.sol\":11384:11441  stakeAddress[i] = IPool(contractAddress[i]).stakedToken() */\n      swap1\n      sub(shl(0xa0, 0x01), 0x01)\n      and\n      swap1\n      dup2\n      sub(shl(0xa0, 0x01), 0x01)\n      and\n      dup2\n      mstore\n      pop\n      pop\n        /* \"ZKSYNC/infoChef.sol\":11460:11472  Token sToken */\n      0x00\n        /* \"ZKSYNC/infoChef.sol\":11481:11493  stakeAddress */\n      dup8\n        /* \"ZKSYNC/infoChef.sol\":11494:11495  i */\n      dup3\n        /* \"ZKSYNC/infoChef.sol\":11481:11496  stakeAddress[i] */\n      dup2\n      mload\n      dup2\n      lt\n      tag_407\n      jumpi\n      tag_407\n      tag_95\n      jump\t// in\n    tag_407:\n      0x20\n      mul\n      0x20\n      add\n      add\n      mload\n        /* \"ZKSYNC/infoChef.sol\":11460:11497  Token sToken = Token(stakeAddress[i]) */\n      swap1\n      pop\n        /* \"ZKSYNC/infoChef.sol\":11531:11537  sToken */\n      dup1\n      sub(shl(0xa0, 0x01), 0x01)\n        /* \"ZKSYNC/infoChef.sol\":11531:11542  sToken.name */\n      and\n      0x06fdde03\n        /* \"ZKSYNC/infoChef.sol\":11531:11544  sToken.name() */\n      mload(0x40)\n      dup2\n      0xffffffff\n      and\n      0xe0\n      shl\n      dup2\n      mstore\n      0x04\n      add\n      0x00\n      mload(0x40)\n      dup1\n      dup4\n      sub\n      dup2\n      dup7\n      gas\n      staticcall\n      iszero\n      dup1\n      iszero\n      tag_409\n      jumpi\n      returndatasize\n      0x00\n      dup1\n      returndatacopy\n      revert(0x00, returndatasize)\n    tag_409:\n      pop\n      pop\n      pop\n      pop\n      mload(0x40)\n      returndatasize\n      0x00\n      dup3\n      returndatacopy\n      0x1f\n      returndatasize\n      swap1\n      dup2\n      add\n      not(0x1f)\n      and\n      dup3\n      add\n      0x40\n      mstore\n      tag_410\n      swap2\n      swap1\n      dup2\n      add\n      swap1\n      tag_108\n      jump\t// in\n    tag_410:\n        /* \"ZKSYNC/infoChef.sol\":11516:11525  stakeName */\n      dup8\n        /* \"ZKSYNC/infoChef.sol\":11526:11527  i */\n      dup4\n        /* \"ZKSYNC/infoChef.sol\":11516:11528  stakeName[i] */\n      dup2\n      mload\n      dup2\n      lt\n      tag_412\n      jumpi\n      tag_412\n      tag_95\n      jump\t// in\n    tag_412:\n      0x20\n      mul\n      0x20\n      add\n      add\n        /* \"ZKSYNC/infoChef.sol\":11516:11544  stakeName[i] = sToken.name() */\n      dup2\n      swap1\n      mstore\n      pop\n        /* \"ZKSYNC/infoChef.sol\":11577:11583  sToken */\n      dup1\n      sub(shl(0xa0, 0x01), 0x01)\n        /* \"ZKSYNC/infoChef.sol\":11577:11590  sToken.symbol */\n      and\n      0x95d89b41\n        /* \"ZKSYNC/infoChef.sol\":11577:11592  sToken.symbol() */\n      mload(0x40)\n      dup2\n      0xffffffff\n      and\n      0xe0\n      shl\n      dup2\n      mstore\n      0x04\n      add\n      0x00\n      mload(0x40)\n      dup1\n      dup4\n      sub\n      dup2\n      dup7\n      gas\n      staticcall\n      iszero\n      dup1\n      iszero\n      tag_414\n      jumpi\n      returndatasize\n      0x00\n      dup1\n      returndatacopy\n      revert(0x00, returndatasize)\n    tag_414:\n      pop\n      pop\n      pop\n      pop\n      mload(0x40)\n      returndatasize\n      0x00\n      dup3\n      returndatacopy\n      0x1f\n      returndatasize\n      swap1\n      dup2\n      add\n      not(0x1f)\n      and\n      dup3\n      add\n      0x40\n      mstore\n      tag_415\n      swap2\n      swap1\n      dup2\n      add\n      swap1\n      tag_108\n      jump\t// in\n    tag_415:\n        /* \"ZKSYNC/infoChef.sol\":11563:11571  stakeSym */\n      dup7\n        /* \"ZKSYNC/infoChef.sol\":11572:11573  i */\n      dup4\n        /* \"ZKSYNC/infoChef.sol\":11563:11574  stakeSym[i] */\n      dup2\n      mload\n      dup2\n      lt\n      tag_417\n      jumpi\n      tag_417\n      tag_95\n      jump\t// in\n    tag_417:\n      0x20\n      mul\n      0x20\n      add\n      add\n        /* \"ZKSYNC/infoChef.sol\":11563:11592  stakeSym[i] = sToken.symbol() */\n      dup2\n      swap1\n      mstore\n      pop\n        /* \"ZKSYNC/infoChef.sol\":11611:11630  uint256 rTokenCount */\n      0x00\n        /* \"ZKSYNC/infoChef.sol\":11639:11654  contractAddress */\n      dup10\n        /* \"ZKSYNC/infoChef.sol\":11655:11656  i */\n      dup4\n        /* \"ZKSYNC/infoChef.sol\":11639:11657  contractAddress[i] */\n      dup2\n      mload\n      dup2\n      lt\n      tag_419\n      jumpi\n      tag_419\n      tag_95\n      jump\t// in\n    tag_419:\n      0x20\n      mul\n      0x20\n      add\n      add\n      mload\n      sub(shl(0xa0, 0x01), 0x01)\n        /* \"ZKSYNC/infoChef.sol\":11633:11675  IPool(contractAddress[i]).rewardTokenCount */\n      and\n      0xabb06b95\n        /* \"ZKSYNC/infoChef.sol\":11633:11677  IPool(contractAddress[i]).rewardTokenCount() */\n      mload(0x40)\n      dup2\n      0xffffffff\n      and\n      0xe0\n      shl\n      dup2\n      mstore\n      0x04\n      add\n      0x20\n      mload(0x40)\n      dup1\n      dup4\n      sub\n      dup2\n      dup7\n      gas\n      staticcall\n      iszero\n      dup1\n      iszero\n      tag_421\n      jumpi\n      returndatasize\n      0x00\n      dup1\n      returndatacopy\n      revert(0x00, returndatasize)\n    tag_421:\n      pop\n      pop\n      pop\n      pop\n      mload(0x40)\n      returndatasize\n      not(0x1f)\n      0x1f\n      dup3\n      add\n      and\n      dup3\n      add\n      dup1\n      0x40\n      mstore\n      pop\n      dup2\n      add\n      swap1\n      tag_422\n      swap2\n      swap1\n      tag_51\n      jump\t// in\n    tag_422:\n        /* \"ZKSYNC/infoChef.sol\":11611:11677  uint256 rTokenCount = IPool(contractAddress[i]).rewardTokenCount() */\n      swap1\n      pop\n        /* \"ZKSYNC/infoChef.sol\":11696:11724  address[] memory earnAddress */\n      0x00\n        /* \"ZKSYNC/infoChef.sol\":11741:11752  rTokenCount */\n      dup2\n      sub(shl(0x40, 0x01), 0x01)\n        /* \"ZKSYNC/infoChef.sol\":11727:11753  new address[](rTokenCount) */\n      dup2\n      gt\n      iszero\n      tag_424\n      jumpi\n      tag_424\n      tag_54\n      jump\t// in\n    tag_424:\n      mload(0x40)\n      swap1\n      dup1\n      dup3\n      mstore\n      dup1\n      0x20\n      mul\n      0x20\n      add\n      dup3\n      add\n      0x40\n      mstore\n      dup1\n      iszero\n      tag_425\n      jumpi\n      dup2\n      0x20\n      add\n      0x20\n      dup3\n      mul\n      dup1\n      calldatasize\n      dup4\n      calldatacopy\n      add\n      swap1\n      pop\n    tag_425:\n      pop\n        /* \"ZKSYNC/infoChef.sol\":11696:11753  address[] memory earnAddress = new address[](rTokenCount) */\n      swap1\n      pop\n        /* \"ZKSYNC/infoChef.sol\":11777:11783  uint l */\n      0x00\n        /* \"ZKSYNC/infoChef.sol\":11772:11950  for( uint l=0; l<rTokenCount; l++){... */\n    tag_426:\n        /* \"ZKSYNC/infoChef.sol\":11789:11800  rTokenCount */\n      dup3\n        /* \"ZKSYNC/infoChef.sol\":11787:11788  l */\n      dup2\n        /* \"ZKSYNC/infoChef.sol\":11787:11800  l<rTokenCount */\n      lt\n        /* \"ZKSYNC/infoChef.sol\":11772:11950  for( uint l=0; l<rTokenCount; l++){... */\n      iszero\n      tag_427\n      jumpi\n        /* \"ZKSYNC/infoChef.sol\":11831:11841  address ad */\n      0x00\n        /* \"ZKSYNC/infoChef.sol\":11855:11870  contractAddress */\n      dup13\n        /* \"ZKSYNC/infoChef.sol\":11871:11872  i */\n      dup7\n        /* \"ZKSYNC/infoChef.sol\":11855:11873  contractAddress[i] */\n      dup2\n      mload\n      dup2\n      lt\n      tag_430\n      jumpi\n      tag_430\n      tag_95\n      jump\t// in\n    tag_430:\n      0x20\n      mul\n      0x20\n      add\n      add\n      mload\n      sub(shl(0xa0, 0x01), 0x01)\n        /* \"ZKSYNC/infoChef.sol\":11849:11884  IPool(contractAddress[i]).roundInfo */\n      and\n      0x427f0b00\n        /* \"ZKSYNC/infoChef.sol\":11885:11886  l */\n      dup4\n        /* \"ZKSYNC/infoChef.sol\":11849:11887  IPool(contractAddress[i]).roundInfo(l) */\n      mload(0x40)\n      dup3\n      0xffffffff\n      and\n      0xe0\n      shl\n      dup2\n      mstore\n      0x04\n      add\n      tag_431\n      swap2\n        /* \"#utility.yul\":13036:13061   */\n      dup2\n      mstore\n        /* \"#utility.yul\":13024:13026   */\n      0x20\n        /* \"#utility.yul\":13009:13027   */\n      add\n      swap1\n        /* \"#utility.yul\":12890:13067   */\n      jump\n        /* \"ZKSYNC/infoChef.sol\":11849:11887  IPool(contractAddress[i]).roundInfo(l) */\n    tag_431:\n      0xa0\n      mload(0x40)\n      dup1\n      dup4\n      sub\n      dup2\n      dup7\n      gas\n      staticcall\n      iszero\n      dup1\n      iszero\n      tag_433\n      jumpi\n      returndatasize\n      0x00\n      dup1\n      returndatacopy\n      revert(0x00, returndatasize)\n    tag_433:\n      pop\n      pop\n      pop\n      pop\n      mload(0x40)\n      returndatasize\n      not(0x1f)\n      0x1f\n      dup3\n      add\n      and\n      dup3\n      add\n      dup1\n      0x40\n      mstore\n      pop\n      dup2\n      add\n      swap1\n      tag_434\n      swap2\n      swap1\n      tag_435\n      jump\t// in\n    tag_434:\n        /* \"ZKSYNC/infoChef.sol\":11830:11887  (address ad,,,,) = IPool(contractAddress[i]).roundInfo(l) */\n      pop\n      pop\n      pop\n      pop\n      swap1\n      pop\n        /* \"ZKSYNC/infoChef.sol\":11928:11930  ad */\n      dup1\n        /* \"ZKSYNC/infoChef.sol\":11911:11922  earnAddress */\n      dup4\n        /* \"ZKSYNC/infoChef.sol\":11923:11924  l */\n      dup4\n        /* \"ZKSYNC/infoChef.sol\":11911:11925  earnAddress[l] */\n      dup2\n      mload\n      dup2\n      lt\n      tag_437\n      jumpi\n      tag_437\n      tag_95\n      jump\t// in\n    tag_437:\n      sub(shl(0xa0, 0x01), 0x01)\n        /* \"ZKSYNC/infoChef.sol\":11911:11930  earnAddress[l] = ad */\n      swap1\n      swap3\n      and\n        /* \"ZKSYNC/infoChef.sol\":11911:11925  earnAddress[l] */\n      0x20\n      swap3\n      dup4\n      mul\n      swap2\n      swap1\n      swap2\n      add\n      swap1\n      swap2\n      add\n        /* \"ZKSYNC/infoChef.sol\":11911:11930  earnAddress[l] = ad */\n      mstore\n      pop\n        /* \"ZKSYNC/infoChef.sol\":11802:11805  l++ */\n      dup1\n      tag_438\n      dup2\n      tag_147\n      jump\t// in\n    tag_438:\n      swap2\n      pop\n      pop\n        /* \"ZKSYNC/infoChef.sol\":11772:11950  for( uint l=0; l<rTokenCount; l++){... */\n      jump(tag_426)\n    tag_427:\n      pop\n        /* \"ZKSYNC/infoChef.sol\":11968:12002  EarningTokens memory earningTokens */\n      0x00\n        /* \"ZKSYNC/infoChef.sol\":12005:12086  EarningTokens({... */\n      mload(0x40)\n      dup1\n      0x20\n      add\n      0x40\n      mstore\n      dup1\n        /* \"ZKSYNC/infoChef.sol\":12055:12066  earnAddress */\n      dup4\n        /* \"ZKSYNC/infoChef.sol\":12005:12086  EarningTokens({... */\n      dup2\n      mstore\n      pop\n        /* \"ZKSYNC/infoChef.sol\":11968:12086  EarningTokens memory earningTokens = EarningTokens({... */\n      swap1\n      pop\n        /* \"ZKSYNC/infoChef.sol\":12124:12137  earningTokens */\n      dup1\n        /* \"ZKSYNC/infoChef.sol\":12105:12118  earnAddresses */\n      dup9\n        /* \"ZKSYNC/infoChef.sol\":12119:12120  i */\n      dup7\n        /* \"ZKSYNC/infoChef.sol\":12105:12121  earnAddresses[i] */\n      dup2\n      mload\n      dup2\n      lt\n      tag_440\n      jumpi\n      tag_440\n      tag_95\n      jump\t// in\n    tag_440:\n      0x20\n      mul\n      0x20\n      add\n      add\n        /* \"ZKSYNC/infoChef.sol\":12105:12137  earnAddresses[i] = earningTokens */\n      dup2\n      swap1\n      mstore\n      pop\n        /* \"ZKSYNC/infoChef.sol\":11314:12151  {... */\n      pop\n      pop\n      pop\n      pop\n        /* \"ZKSYNC/infoChef.sol\":11309:11312  i++ */\n      dup1\n      dup1\n      tag_441\n      swap1\n      tag_147\n      jump\t// in\n    tag_441:\n      swap2\n      pop\n      pop\n        /* \"ZKSYNC/infoChef.sol\":11284:12151  for(uint i=0; i<howMany; i++) {... */\n      jump(tag_390)\n    tag_391:\n      pop\n        /* \"ZKSYNC/infoChef.sol\":10911:12158  {... */\n      pop\n      pop\n        /* \"ZKSYNC/infoChef.sol\":10633:12158  function getNftPoolInfo(address poolFactory) external view returns (... */\n      swap2\n      swap4\n      swap6\n      swap1\n      swap3\n      swap5\n      pop\n      jump\t// out\n        /* \"ZKSYNC/infoChef.sol\":2949:4306  function getApiInfo(address factory, uint256 start, uint256 end) external view returns(... */\n    tag_34:\n        /* \"ZKSYNC/infoChef.sol\":3046:3067  address[] memory pair */\n      0x60\n      dup1\n      dup1\n      dup1\n      dup1\n      dup1\n      dup1\n      dup1\n      dup1\n        /* \"ZKSYNC/infoChef.sol\":3344:3359  uint256 howMany */\n      0x00\n        /* \"ZKSYNC/infoChef.sol\":3362:3373  end - start */\n      tag_443\n        /* \"ZKSYNC/infoChef.sol\":3368:3373  start */\n      dup13\n        /* \"ZKSYNC/infoChef.sol\":3362:3365  end */\n      dup13\n        /* \"ZKSYNC/infoChef.sol\":3362:3373  end - start */\n      tag_444\n      jump\t// in\n    tag_443:\n        /* \"ZKSYNC/infoChef.sol\":3344:3373  uint256 howMany = end - start */\n      swap1\n      pop\n        /* \"ZKSYNC/infoChef.sol\":3406:3413  howMany */\n      dup1\n      sub(shl(0x40, 0x01), 0x01)\n        /* \"ZKSYNC/infoChef.sol\":3392:3414  new address[](howMany) */\n      dup2\n      gt\n      iszero\n      tag_446\n      jumpi\n      tag_446\n      tag_54\n      jump\t// in\n    tag_446:\n      mload(0x40)\n      swap1\n      dup1\n      dup3\n      mstore\n      dup1\n      0x20\n      mul\n      0x20\n      add\n      dup3\n      add\n      0x40\n      mstore\n      dup1\n      iszero\n      tag_447\n      jumpi\n      dup2\n      0x20\n      add\n      0x20\n      dup3\n      mul\n      dup1\n      calldatasize\n      dup4\n      calldatacopy\n      add\n      swap1\n      pop\n    tag_447:\n      pop\n        /* \"ZKSYNC/infoChef.sol\":3385:3414  pair = new address[](howMany) */\n      swap10\n      pop\n        /* \"ZKSYNC/infoChef.sol\":3449:3456  howMany */\n      dup1\n      sub(shl(0x40, 0x01), 0x01)\n        /* \"ZKSYNC/infoChef.sol\":3435:3457  new address[](howMany) */\n      dup2\n      gt\n      iszero\n      tag_449\n      jumpi\n      tag_449\n      tag_54\n      jump\t// in\n    tag_449:\n      mload(0x40)\n      swap1\n      dup1\n      dup3\n      mstore\n      dup1\n      0x20\n      mul\n      0x20\n      add\n      dup3\n      add\n      0x40\n      mstore\n      dup1\n      iszero\n      tag_450\n      jumpi\n      dup2\n      0x20\n      add\n      0x20\n      dup3\n      mul\n      dup1\n      calldatasize\n      dup4\n      calldatacopy\n      add\n      swap1\n      pop\n    tag_450:\n      pop\n        /* \"ZKSYNC/infoChef.sol\":3426:3457  tokenA = new address[](howMany) */\n      swap9\n      pop\n        /* \"ZKSYNC/infoChef.sol\":3490:3497  howMany */\n      dup1\n      sub(shl(0x40, 0x01), 0x01)\n        /* \"ZKSYNC/infoChef.sol\":3477:3498  new string[](howMany) */\n      dup2\n      gt\n      iszero\n      tag_452\n      jumpi\n      tag_452\n      tag_54\n      jump\t// in\n    tag_452:\n      mload(0x40)\n      swap1\n      dup1\n      dup3\n      mstore\n      dup1\n      0x20\n      mul\n      0x20\n      add\n      dup3\n      add\n      0x40\n      mstore\n      dup1\n      iszero\n      tag_453\n      jumpi\n      dup2\n      0x20\n      add\n    tag_454:\n      0x60\n      dup2\n      mstore\n      0x20\n      add\n      swap1\n      0x01\n      swap1\n      sub\n      swap1\n      dup2\n      tag_454\n      jumpi\n      swap1\n      pop\n    tag_453:\n      pop\n        /* \"ZKSYNC/infoChef.sol\":3469:3498  aName = new string[](howMany) */\n      swap8\n      pop\n        /* \"ZKSYNC/infoChef.sol\":3530:3537  howMany */\n      dup1\n      sub(shl(0x40, 0x01), 0x01)\n        /* \"ZKSYNC/infoChef.sol\":3517:3538  new string[](howMany) */\n      dup2\n      gt\n      iszero\n      tag_456\n      jumpi\n      tag_456\n      tag_54\n      jump\t// in\n    tag_456:\n      mload(0x40)\n      swap1\n      dup1\n      dup3\n      mstore\n      dup1\n      0x20\n      mul\n      0x20\n      add\n      dup3\n      add\n      0x40\n      mstore\n      dup1\n      iszero\n      tag_457\n      jumpi\n      dup2\n      0x20\n      add\n    tag_458:\n      0x60\n      dup2\n      mstore\n      0x20\n      add\n      swap1\n      0x01\n      swap1\n      sub\n      swap1\n      dup2\n      tag_458\n      jumpi\n      swap1\n      pop\n    tag_457:\n      pop\n        /* \"ZKSYNC/infoChef.sol\":3510:3538  aSym = new string[](howMany) */\n      swap7\n      pop\n        /* \"ZKSYNC/infoChef.sol\":3571:3578  howMany */\n      dup1\n      sub(shl(0x40, 0x01), 0x01)\n        /* \"ZKSYNC/infoChef.sol\":3557:3579  new uint256[](howMany) */\n      dup2\n      gt\n      iszero\n      tag_460\n      jumpi\n      tag_460\n      tag_54\n      jump\t// in\n    tag_460:\n      mload(0x40)\n      swap1\n      dup1\n      dup3\n      mstore\n      dup1\n      0x20\n      mul\n      0x20\n      add\n      dup3\n      add\n      0x40\n      mstore\n      dup1\n      iszero\n      tag_461\n      jumpi\n      dup2\n      0x20\n      add\n      0x20\n      dup3\n      mul\n      dup1\n      calldatasize\n      dup4\n      calldatacopy\n      add\n      swap1\n      pop\n    tag_461:\n      pop\n        /* \"ZKSYNC/infoChef.sol\":3550:3579  aDec = new uint256[](howMany) */\n      swap6\n      pop\n        /* \"ZKSYNC/infoChef.sol\":3614:3621  howMany */\n      dup1\n      sub(shl(0x40, 0x01), 0x01)\n        /* \"ZKSYNC/infoChef.sol\":3600:3622  new address[](howMany) */\n      dup2\n      gt\n      iszero\n      tag_463\n      jumpi\n      tag_463\n      tag_54\n      jump\t// in\n    tag_463:\n      mload(0x40)\n      swap1\n      dup1\n      dup3\n      mstore\n      dup1\n      0x20\n      mul\n      0x20\n      add\n      dup3\n      add\n      0x40\n      mstore\n      dup1\n      iszero\n      tag_464\n      jumpi\n      dup2\n      0x20\n      add\n      0x20\n      dup3\n      mul\n      dup1\n      calldatasize\n      dup4\n      calldatacopy\n      add\n      swap1\n      pop\n    tag_464:\n      pop\n        /* \"ZKSYNC/infoChef.sol\":3591:3622  tokenB = new address[](howMany) */\n      swap5\n      pop\n        /* \"ZKSYNC/infoChef.sol\":3655:3662  howMany */\n      dup1\n      sub(shl(0x40, 0x01), 0x01)\n        /* \"ZKSYNC/infoChef.sol\":3642:3663  new string[](howMany) */\n      dup2\n      gt\n      iszero\n      tag_466\n      jumpi\n      tag_466\n      tag_54\n      jump\t// in\n    tag_466:\n      mload(0x40)\n      swap1\n      dup1\n      dup3\n      mstore\n      dup1\n      0x20\n      mul\n      0x20\n      add\n      dup3\n      add\n      0x40\n      mstore\n      dup1\n      iszero\n      tag_467\n      jumpi\n      dup2\n      0x20\n      add\n    tag_468:\n      0x60\n      dup2\n      mstore\n      0x20\n      add\n      swap1\n      0x01\n      swap1\n      sub\n      swap1\n      dup2\n      tag_468\n      jumpi\n      swap1\n      pop\n    tag_467:\n      pop\n        /* \"ZKSYNC/infoChef.sol\":3634:3663  bName = new string[](howMany) */\n      swap4\n      pop\n        /* \"ZKSYNC/infoChef.sol\":3695:3702  howMany */\n      dup1\n      sub(shl(0x40, 0x01), 0x01)\n        /* \"ZKSYNC/infoChef.sol\":3682:3703  new string[](howMany) */\n      dup2\n      gt\n      iszero\n      tag_470\n      jumpi\n      tag_470\n      tag_54\n      jump\t// in\n    tag_470:\n      mload(0x40)\n      swap1\n      dup1\n      dup3\n      mstore\n      dup1\n      0x20\n      mul\n      0x20\n      add\n      dup3\n      add\n      0x40\n      mstore\n      dup1\n      iszero\n      tag_471\n      jumpi\n      dup2\n      0x20\n      add\n    tag_472:\n      0x60\n      dup2\n      mstore\n      0x20\n      add\n      swap1\n      0x01\n      swap1\n      sub\n      swap1\n      dup2\n      tag_472\n      jumpi\n      swap1\n      pop\n    tag_471:\n      pop\n        /* \"ZKSYNC/infoChef.sol\":3675:3703  bSym = new string[](howMany) */\n      swap3\n      pop\n        /* \"ZKSYNC/infoChef.sol\":3736:3743  howMany */\n      dup1\n      sub(shl(0x40, 0x01), 0x01)\n        /* \"ZKSYNC/infoChef.sol\":3722:3744  new uint256[](howMany) */\n      dup2\n      gt\n      iszero\n      tag_474\n      jumpi\n      tag_474\n      tag_54\n      jump\t// in\n    tag_474:\n      mload(0x40)\n      swap1\n      dup1\n      dup3\n      mstore\n      dup1\n      0x20\n      mul\n      0x20\n      add\n      dup3\n      add\n      0x40\n      mstore\n      dup1\n      iszero\n      tag_475\n      jumpi\n      dup2\n      0x20\n      add\n      0x20\n      dup3\n      mul\n      dup1\n      calldatasize\n      dup4\n      calldatacopy\n      add\n      swap1\n      pop\n    tag_475:\n      pop\n        /* \"ZKSYNC/infoChef.sol\":3715:3744  bDec = new uint256[](howMany) */\n      swap2\n      pop\n        /* \"ZKSYNC/infoChef.sol\":3761:3767  uint i */\n      0x00\n        /* \"ZKSYNC/infoChef.sol\":3757:4297  for(uint i=0; i<howMany; i++){... */\n    tag_476:\n        /* \"ZKSYNC/infoChef.sol\":3773:3780  howMany */\n      dup2\n        /* \"ZKSYNC/infoChef.sol\":3771:3772  i */\n      dup2\n        /* \"ZKSYNC/infoChef.sol\":3771:3780  i<howMany */\n      lt\n        /* \"ZKSYNC/infoChef.sol\":3757:4297  for(uint i=0; i<howMany; i++){... */\n      iszero\n      tag_477\n      jumpi\n        /* \"ZKSYNC/infoChef.sol\":3820:3827  factory */\n      dup14\n      sub(shl(0xa0, 0x01), 0x01)\n        /* \"ZKSYNC/infoChef.sol\":3811:3837  IFactory(factory).allPairs */\n      and\n      0x1e3dd18b\n        /* \"ZKSYNC/infoChef.sol\":3844:3845  i */\n      dup3\n        /* \"ZKSYNC/infoChef.sol\":3838:3843  start */\n      dup16\n        /* \"ZKSYNC/infoChef.sol\":3838:3845  start+i */\n      tag_479\n      swap2\n      swap1\n      tag_480\n      jump\t// in\n    tag_479:\n        /* \"ZKSYNC/infoChef.sol\":3811:3846  IFactory(factory).allPairs(start+i) */\n      mload(0x40)\n      dup3\n      0xffffffff\n      and\n      0xe0\n      shl\n      dup2\n      mstore\n      0x04\n      add\n      tag_481\n      swap2\n        /* \"#utility.yul\":13036:13061   */\n      dup2\n      mstore\n        /* \"#utility.yul\":13024:13026   */\n      0x20\n        /* \"#utility.yul\":13009:13027   */\n      add\n      swap1\n        /* \"#utility.yul\":12890:13067   */\n      jump\n        /* \"ZKSYNC/infoChef.sol\":3811:3846  IFactory(factory).allPairs(start+i) */\n    tag_481:\n      0x20\n      mload(0x40)\n      dup1\n      dup4\n      sub\n      dup2\n      dup7\n      gas\n      staticcall\n      iszero\n      dup1\n      iszero\n      tag_483\n      jumpi\n      returndatasize\n      0x00\n      dup1\n      returndatacopy\n      revert(0x00, returndatasize)\n    tag_483:\n      pop\n      pop\n      pop\n      pop\n      mload(0x40)\n      returndatasize\n      not(0x1f)\n      0x1f\n      dup3\n      add\n      and\n      dup3\n      add\n      dup1\n      0x40\n      mstore\n      pop\n      dup2\n      add\n      swap1\n      tag_484\n      swap2\n      swap1\n      tag_92\n      jump\t// in\n    tag_484:\n        /* \"ZKSYNC/infoChef.sol\":3801:3805  pair */\n      dup12\n        /* \"ZKSYNC/infoChef.sol\":3806:3807  i */\n      dup3\n        /* \"ZKSYNC/infoChef.sol\":3801:3808  pair[i] */\n      dup2\n      mload\n      dup2\n      lt\n      tag_486\n      jumpi\n      tag_486\n      tag_95\n      jump\t// in\n    tag_486:\n      0x20\n      mul\n      0x20\n      add\n      add\n        /* \"ZKSYNC/infoChef.sol\":3801:3846  pair[i] = IFactory(factory).allPairs(start+i) */\n      swap1\n      sub(shl(0xa0, 0x01), 0x01)\n      and\n      swap1\n      dup2\n      sub(shl(0xa0, 0x01), 0x01)\n      and\n      dup2\n      mstore\n      pop\n      pop\n        /* \"ZKSYNC/infoChef.sol\":3861:3876  LPToken lpToken */\n      0x00\n        /* \"ZKSYNC/infoChef.sol\":3887:3891  pair */\n      dup12\n        /* \"ZKSYNC/infoChef.sol\":3892:3893  i */\n      dup3\n        /* \"ZKSYNC/infoChef.sol\":3887:3894  pair[i] */\n      dup2\n      mload\n      dup2\n      lt\n      tag_488\n      jumpi\n      tag_488\n      tag_95\n      jump\t// in\n    tag_488:\n      0x20\n      mul\n      0x20\n      add\n      add\n      mload\n        /* \"ZKSYNC/infoChef.sol\":3861:3895  LPToken lpToken = LPToken(pair[i]) */\n      swap1\n      pop\n        /* \"ZKSYNC/infoChef.sol\":3922:3929  lpToken */\n      dup1\n      sub(shl(0xa0, 0x01), 0x01)\n        /* \"ZKSYNC/infoChef.sol\":3922:3936  lpToken.token0 */\n      and\n      0x0dfe1681\n        /* \"ZKSYNC/infoChef.sol\":3922:3938  lpToken.token0() */\n      mload(0x40)\n      dup2\n      0xffffffff\n      and\n      0xe0\n      shl\n      dup2\n      mstore\n      0x04\n      add\n      0x20\n      mload(0x40)\n      dup1\n      dup4\n      sub\n      dup2\n      dup7\n      gas\n      staticcall\n      iszero\n      dup1\n      iszero\n      tag_490\n      jumpi\n      returndatasize\n      0x00\n      dup1\n      returndatacopy\n      revert(0x00, returndatasize)\n    tag_490:\n      pop\n      pop\n      pop\n      pop\n      mload(0x40)\n      returndatasize\n      not(0x1f)\n      0x1f\n      dup3\n      add\n      and\n      dup3\n      add\n      dup1\n      0x40\n      mstore\n      pop\n      dup2\n      add\n      swap1\n      tag_491\n      swap2\n      swap1\n      tag_92\n      jump\t// in\n    tag_491:\n        /* \"ZKSYNC/infoChef.sol\":3910:3916  tokenA */\n      dup12\n        /* \"ZKSYNC/infoChef.sol\":3917:3918  i */\n      dup4\n        /* \"ZKSYNC/infoChef.sol\":3910:3919  tokenA[i] */\n      dup2\n      mload\n      dup2\n      lt\n      tag_493\n      jumpi\n      tag_493\n      tag_95\n      jump\t// in\n    tag_493:\n      0x20\n      mul\n      0x20\n      add\n      add\n        /* \"ZKSYNC/infoChef.sol\":3910:3938  tokenA[i] = lpToken.token0() */\n      swap1\n      sub(shl(0xa0, 0x01), 0x01)\n      and\n      swap1\n      dup2\n      sub(shl(0xa0, 0x01), 0x01)\n      and\n      dup2\n      mstore\n      pop\n      pop\n        /* \"ZKSYNC/infoChef.sol\":3965:3972  lpToken */\n      dup1\n      sub(shl(0xa0, 0x01), 0x01)\n        /* \"ZKSYNC/infoChef.sol\":3965:3979  lpToken.token1 */\n      and\n      0xd21220a7\n        /* \"ZKSYNC/infoChef.sol\":3965:3981  lpToken.token1() */\n      mload(0x40)\n      dup2\n      0xffffffff\n      and\n      0xe0\n      shl\n      dup2\n      mstore\n      0x04\n      add\n      0x20\n      mload(0x40)\n      dup1\n      dup4\n      sub\n      dup2\n      dup7\n      gas\n      staticcall\n      iszero\n      dup1\n      iszero\n      tag_495\n      jumpi\n      returndatasize\n      0x00\n      dup1\n      returndatacopy\n      revert(0x00, returndatasize)\n    tag_495:\n      pop\n      pop\n      pop\n      pop\n      mload(0x40)\n      returndatasize\n      not(0x1f)\n      0x1f\n      dup3\n      add\n      and\n      dup3\n      add\n      dup1\n      0x40\n      mstore\n      pop\n      dup2\n      add\n      swap1\n      tag_496\n      swap2\n      swap1\n      tag_92\n      jump\t// in\n    tag_496:\n        /* \"ZKSYNC/infoChef.sol\":3953:3959  tokenB */\n      dup8\n        /* \"ZKSYNC/infoChef.sol\":3960:3961  i */\n      dup4\n        /* \"ZKSYNC/infoChef.sol\":3953:3962  tokenB[i] */\n      dup2\n      mload\n      dup2\n      lt\n      tag_498\n      jumpi\n      tag_498\n      tag_95\n      jump\t// in\n    tag_498:\n      0x20\n      mul\n      0x20\n      add\n      add\n        /* \"ZKSYNC/infoChef.sol\":3953:3981  tokenB[i] = lpToken.token1() */\n      swap1\n      sub(shl(0xa0, 0x01), 0x01)\n      and\n      swap1\n      dup2\n      sub(shl(0xa0, 0x01), 0x01)\n      and\n      dup2\n      mstore\n      pop\n      pop\n        /* \"ZKSYNC/infoChef.sol\":3996:4004  Token tA */\n      0x00\n        /* \"ZKSYNC/infoChef.sol\":4013:4019  tokenA */\n      dup12\n        /* \"ZKSYNC/infoChef.sol\":4020:4021  i */\n      dup4\n        /* \"ZKSYNC/infoChef.sol\":4013:4022  tokenA[i] */\n      dup2\n      mload\n      dup2\n      lt\n      tag_500\n      jumpi\n      tag_500\n      tag_95\n      jump\t// in\n    tag_500:\n      0x20\n      mul\n      0x20\n      add\n      add\n      mload\n        /* \"ZKSYNC/infoChef.sol\":3996:4023  Token tA = Token(tokenA[i]) */\n      swap1\n      pop\n        /* \"ZKSYNC/infoChef.sol\":4038:4046  Token tB */\n      0x00\n        /* \"ZKSYNC/infoChef.sol\":4055:4061  tokenB */\n      dup9\n        /* \"ZKSYNC/infoChef.sol\":4062:4063  i */\n      dup5\n        /* \"ZKSYNC/infoChef.sol\":4055:4064  tokenB[i] */\n      dup2\n      mload\n      dup2\n      lt\n      tag_502\n      jumpi\n      tag_502\n      tag_95\n      jump\t// in\n    tag_502:\n      0x20\n      mul\n      0x20\n      add\n      add\n      mload\n        /* \"ZKSYNC/infoChef.sol\":4038:4065  Token tB = Token(tokenB[i]) */\n      swap1\n      pop\n        /* \"ZKSYNC/infoChef.sol\":4091:4093  tA */\n      dup2\n      sub(shl(0xa0, 0x01), 0x01)\n        /* \"ZKSYNC/infoChef.sol\":4091:4098  tA.name */\n      and\n      0x06fdde03\n        /* \"ZKSYNC/infoChef.sol\":4091:4100  tA.name() */\n      mload(0x40)\n      dup2\n      0xffffffff\n      and\n      0xe0\n      shl\n      dup2\n      mstore\n      0x04\n      add\n      0x00\n      mload(0x40)\n      dup1\n      dup4\n      sub\n      dup2\n      dup7\n      gas\n      staticcall\n      iszero\n      dup1\n      iszero\n      tag_504\n      jumpi\n      returndatasize\n      0x00\n      dup1\n      returndatacopy\n      revert(0x00, returndatasize)\n    tag_504:\n      pop\n      pop\n      pop\n      pop\n      mload(0x40)\n      returndatasize\n      0x00\n      dup3\n      returndatacopy\n      0x1f\n      returndatasize\n      swap1\n      dup2\n      add\n      not(0x1f)\n      and\n      dup3\n      add\n      0x40\n      mstore\n      tag_505\n      swap2\n      swap1\n      dup2\n      add\n      swap1\n      tag_108\n      jump\t// in\n    tag_505:\n        /* \"ZKSYNC/infoChef.sol\":4080:4085  aName */\n      dup13\n        /* \"ZKSYNC/infoChef.sol\":4086:4087  i */\n      dup6\n        /* \"ZKSYNC/infoChef.sol\":4080:4088  aName[i] */\n      dup2\n      mload\n      dup2\n      lt\n      tag_507\n      jumpi\n      tag_507\n      tag_95\n      jump\t// in\n    tag_507:\n      0x20\n      mul\n      0x20\n      add\n      add\n        /* \"ZKSYNC/infoChef.sol\":4080:4100  aName[i] = tA.name() */\n      dup2\n      swap1\n      mstore\n      pop\n        /* \"ZKSYNC/infoChef.sol\":4125:4127  tA */\n      dup2\n      sub(shl(0xa0, 0x01), 0x01)\n        /* \"ZKSYNC/infoChef.sol\":4125:4134  tA.symbol */\n      and\n      0x95d89b41\n        /* \"ZKSYNC/infoChef.sol\":4125:4136  tA.symbol() */\n      mload(0x40)\n      dup2\n      0xffffffff\n      and\n      0xe0\n      shl\n      dup2\n      mstore\n      0x04\n      add\n      0x00\n      mload(0x40)\n      dup1\n      dup4\n      sub\n      dup2\n      dup7\n      gas\n      staticcall\n      iszero\n      dup1\n      iszero\n      tag_509\n      jumpi\n      returndatasize\n      0x00\n      dup1\n      returndatacopy\n      revert(0x00, returndatasize)\n    tag_509:\n      pop\n      pop\n      pop\n      pop\n      mload(0x40)\n      returndatasize\n      0x00\n      dup3\n      returndatacopy\n      0x1f\n      returndatasize\n      swap1\n      dup2\n      add\n      not(0x1f)\n      and\n      dup3\n      add\n      0x40\n      mstore\n      tag_510\n      swap2\n      swap1\n      dup2\n      add\n      swap1\n      tag_108\n      jump\t// in\n    tag_510:\n        /* \"ZKSYNC/infoChef.sol\":4115:4119  aSym */\n      dup12\n        /* \"ZKSYNC/infoChef.sol\":4120:4121  i */\n      dup6\n        /* \"ZKSYNC/infoChef.sol\":4115:4122  aSym[i] */\n      dup2\n      mload\n      dup2\n      lt\n      tag_512\n      jumpi\n      tag_512\n      tag_95\n      jump\t// in\n    tag_512:\n      0x20\n      mul\n      0x20\n      add\n      add\n        /* \"ZKSYNC/infoChef.sol\":4115:4136  aSym[i] = tA.symbol() */\n      dup2\n      swap1\n      mstore\n      pop\n        /* \"ZKSYNC/infoChef.sol\":4161:4163  tA */\n      dup2\n      sub(shl(0xa0, 0x01), 0x01)\n        /* \"ZKSYNC/infoChef.sol\":4161:4172  tA.decimals */\n      and\n      0x313ce567\n        /* \"ZKSYNC/infoChef.sol\":4161:4174  tA.decimals() */\n      mload(0x40)\n      dup2\n      0xffffffff\n      and\n      0xe0\n      shl\n      dup2\n      mstore\n      0x04\n      add\n      0x20\n      mload(0x40)\n      dup1\n      dup4\n      sub\n      dup2\n      dup7\n      gas\n      staticcall\n      iszero\n      dup1\n      iszero\n      tag_514\n      jumpi\n      returndatasize\n      0x00\n      dup1\n      returndatacopy\n      revert(0x00, returndatasize)\n    tag_514:\n      pop\n      pop\n      pop\n      pop\n      mload(0x40)\n      returndatasize\n      not(0x1f)\n      0x1f\n      dup3\n      add\n      and\n      dup3\n      add\n      dup1\n      0x40\n      mstore\n      pop\n      dup2\n      add\n      swap1\n      tag_515\n      swap2\n      swap1\n      tag_119\n      jump\t// in\n    tag_515:\n        /* \"ZKSYNC/infoChef.sol\":4151:4174  aDec[i] = tA.decimals() */\n      0xff\n      and\n        /* \"ZKSYNC/infoChef.sol\":4151:4155  aDec */\n      dup11\n        /* \"ZKSYNC/infoChef.sol\":4156:4157  i */\n      dup6\n        /* \"ZKSYNC/infoChef.sol\":4151:4158  aDec[i] */\n      dup2\n      mload\n      dup2\n      lt\n      tag_517\n      jumpi\n      tag_517\n      tag_95\n      jump\t// in\n    tag_517:\n      0x20\n      mul\n      0x20\n      add\n      add\n        /* \"ZKSYNC/infoChef.sol\":4151:4174  aDec[i] = tA.decimals() */\n      dup2\n      dup2\n      mstore\n      pop\n      pop\n        /* \"ZKSYNC/infoChef.sol\":4201:4203  tB */\n      dup1\n      sub(shl(0xa0, 0x01), 0x01)\n        /* \"ZKSYNC/infoChef.sol\":4201:4208  tB.name */\n      and\n      0x06fdde03\n        /* \"ZKSYNC/infoChef.sol\":4201:4210  tB.name() */\n      mload(0x40)\n      dup2\n      0xffffffff\n      and\n      0xe0\n      shl\n      dup2\n      mstore\n      0x04\n      add\n      0x00\n      mload(0x40)\n      dup1\n      dup4\n      sub\n      dup2\n      dup7\n      gas\n      staticcall\n      iszero\n      dup1\n      iszero\n      tag_519\n      jumpi\n      returndatasize\n      0x00\n      dup1\n      returndatacopy\n      revert(0x00, returndatasize)\n    tag_519:\n      pop\n      pop\n      pop\n      pop\n      mload(0x40)\n      returndatasize\n      0x00\n      dup3\n      returndatacopy\n      0x1f\n      returndatasize\n      swap1\n      dup2\n      add\n      not(0x1f)\n      and\n      dup3\n      add\n      0x40\n      mstore\n      tag_520\n      swap2\n      swap1\n      dup2\n      add\n      swap1\n      tag_108\n      jump\t// in\n    tag_520:\n        /* \"ZKSYNC/infoChef.sol\":4190:4195  bName */\n      dup9\n        /* \"ZKSYNC/infoChef.sol\":4196:4197  i */\n      dup6\n        /* \"ZKSYNC/infoChef.sol\":4190:4198  bName[i] */\n      dup2\n      mload\n      dup2\n      lt\n      tag_522\n      jumpi\n      tag_522\n      tag_95\n      jump\t// in\n    tag_522:\n      0x20\n      mul\n      0x20\n      add\n      add\n        /* \"ZKSYNC/infoChef.sol\":4190:4210  bName[i] = tB.name() */\n      dup2\n      swap1\n      mstore\n      pop\n        /* \"ZKSYNC/infoChef.sol\":4235:4237  tB */\n      dup1\n      sub(shl(0xa0, 0x01), 0x01)\n        /* \"ZKSYNC/infoChef.sol\":4235:4244  tB.symbol */\n      and\n      0x95d89b41\n        /* \"ZKSYNC/infoChef.sol\":4235:4246  tB.symbol() */\n      mload(0x40)\n      dup2\n      0xffffffff\n      and\n      0xe0\n      shl\n      dup2\n      mstore\n      0x04\n      add\n      0x00\n      mload(0x40)\n      dup1\n      dup4\n      sub\n      dup2\n      dup7\n      gas\n      staticcall\n      iszero\n      dup1\n      iszero\n      tag_524\n      jumpi\n      returndatasize\n      0x00\n      dup1\n      returndatacopy\n      revert(0x00, returndatasize)\n    tag_524:\n      pop\n      pop\n      pop\n      pop\n      mload(0x40)\n      returndatasize\n      0x00\n      dup3\n      returndatacopy\n      0x1f\n      returndatasize\n      swap1\n      dup2\n      add\n      not(0x1f)\n      and\n      dup3\n      add\n      0x40\n      mstore\n      tag_525\n      swap2\n      swap1\n      dup2\n      add\n      swap1\n      tag_108\n      jump\t// in\n    tag_525:\n        /* \"ZKSYNC/infoChef.sol\":4225:4229  bSym */\n      dup8\n        /* \"ZKSYNC/infoChef.sol\":4230:4231  i */\n      dup6\n        /* \"ZKSYNC/infoChef.sol\":4225:4232  bSym[i] */\n      dup2\n      mload\n      dup2\n      lt\n      tag_527\n      jumpi\n      tag_527\n      tag_95\n      jump\t// in\n    tag_527:\n      0x20\n      mul\n      0x20\n      add\n      add\n        /* \"ZKSYNC/infoChef.sol\":4225:4246  bSym[i] = tB.symbol() */\n      dup2\n      swap1\n      mstore\n      pop\n        /* \"ZKSYNC/infoChef.sol\":4271:4273  tB */\n      dup1\n      sub(shl(0xa0, 0x01), 0x01)\n        /* \"ZKSYNC/infoChef.sol\":4271:4282  tB.decimals */\n      and\n      0x313ce567\n        /* \"ZKSYNC/infoChef.sol\":4271:4284  tB.decimals() */\n      mload(0x40)\n      dup2\n      0xffffffff\n      and\n      0xe0\n      shl\n      dup2\n      mstore\n      0x04\n      add\n      0x20\n      mload(0x40)\n      dup1\n      dup4\n      sub\n      dup2\n      dup7\n      gas\n      staticcall\n      iszero\n      dup1\n      iszero\n      tag_529\n      jumpi\n      returndatasize\n      0x00\n      dup1\n      returndatacopy\n      revert(0x00, returndatasize)\n    tag_529:\n      pop\n      pop\n      pop\n      pop\n      mload(0x40)\n      returndatasize\n      not(0x1f)\n      0x1f\n      dup3\n      add\n      and\n      dup3\n      add\n      dup1\n      0x40\n      mstore\n      pop\n      dup2\n      add\n      swap1\n      tag_530\n      swap2\n      swap1\n      tag_119\n      jump\t// in\n    tag_530:\n        /* \"ZKSYNC/infoChef.sol\":4261:4284  bDec[i] = tB.decimals() */\n      0xff\n      and\n        /* \"ZKSYNC/infoChef.sol\":4261:4265  bDec */\n      dup7\n        /* \"ZKSYNC/infoChef.sol\":4266:4267  i */\n      dup6\n        /* \"ZKSYNC/infoChef.sol\":4261:4268  bDec[i] */\n      dup2\n      mload\n      dup2\n      lt\n      tag_532\n      jumpi\n      tag_532\n      tag_95\n      jump\t// in\n    tag_532:\n      0x20\n      mul\n      0x20\n      add\n      add\n        /* \"ZKSYNC/infoChef.sol\":4261:4284  bDec[i] = tB.decimals() */\n      dup2\n      dup2\n      mstore\n      pop\n      pop\n        /* \"ZKSYNC/infoChef.sol\":3786:4297  {... */\n      pop\n      pop\n      pop\n        /* \"ZKSYNC/infoChef.sol\":3782:3785  i++ */\n      dup1\n      dup1\n      tag_533\n      swap1\n      tag_147\n      jump\t// in\n    tag_533:\n      swap2\n      pop\n      pop\n        /* \"ZKSYNC/infoChef.sol\":3757:4297  for(uint i=0; i<howMany; i++){... */\n      jump(tag_476)\n    tag_477:\n      pop\n        /* \"ZKSYNC/infoChef.sol\":3333:4306  {... */\n      pop\n        /* \"ZKSYNC/infoChef.sol\":2949:4306  function getApiInfo(address factory, uint256 start, uint256 end) external view returns(... */\n      swap4\n      swap8\n      swap12\n      swap3\n      swap7\n      swap11\n      pop\n      swap4\n      swap8\n      pop\n      swap4\n      swap8\n      pop\n      jump\t// out\n        /* \"ZKSYNC/infoChef.sol\":4358:4943  function farmInfo(uint256 pid, address _MC, address lpToken, address qToken, address token) public view returns ( uint256 APOINT, uint256 TAPOINT, uint256 tBalLP, uint256 qtBalLP, uint256 lpBalMC, uint256 lpTotalSupply ) {... */\n    tag_39:\n        /* \"ZKSYNC/infoChef.sol\":4472:4486  uint256 APOINT */\n      0x00\n        /* \"ZKSYNC/infoChef.sol\":4488:4503  uint256 TAPOINT */\n      dup1\n        /* \"ZKSYNC/infoChef.sol\":4505:4519  uint256 tBalLP */\n      0x00\n        /* \"ZKSYNC/infoChef.sol\":4521:4536  uint256 qtBalLP */\n      dup1\n        /* \"ZKSYNC/infoChef.sol\":4538:4553  uint256 lpBalMC */\n      0x00\n        /* \"ZKSYNC/infoChef.sol\":4555:4576  uint256 lpTotalSupply */\n      dup1\n        /* \"ZKSYNC/infoChef.sol\":4623:4626  _MC */\n      dup10\n      sub(shl(0xa0, 0x01), 0x01)\n        /* \"ZKSYNC/infoChef.sol\":4612:4636  MasterChef(_MC).poolInfo */\n      and\n      0x1526fe27\n        /* \"ZKSYNC/infoChef.sol\":4637:4640  pid */\n      dup13\n        /* \"ZKSYNC/infoChef.sol\":4612:4641  MasterChef(_MC).poolInfo(pid) */\n      mload(0x40)\n      dup3\n      0xffffffff\n      and\n      0xe0\n      shl\n      dup2\n      mstore\n      0x04\n      add\n      tag_535\n      swap2\n        /* \"#utility.yul\":13036:13061   */\n      dup2\n      mstore\n        /* \"#utility.yul\":13024:13026   */\n      0x20\n        /* \"#utility.yul\":13009:13027   */\n      add\n      swap1\n        /* \"#utility.yul\":12890:13067   */\n      jump\n        /* \"ZKSYNC/infoChef.sol\":4612:4641  MasterChef(_MC).poolInfo(pid) */\n    tag_535:\n      0x80\n      mload(0x40)\n      dup1\n      dup4\n      sub\n      dup2\n      dup7\n      gas\n      staticcall\n      iszero\n      dup1\n      iszero\n      tag_537\n      jumpi\n      returndatasize\n      0x00\n      dup1\n      returndatacopy\n      revert(0x00, returndatasize)\n    tag_537:\n      pop\n      pop\n      pop\n      pop\n      mload(0x40)\n      returndatasize\n      not(0x1f)\n      0x1f\n      dup3\n      add\n      and\n      dup3\n      add\n      dup1\n      0x40\n      mstore\n      pop\n      dup2\n      add\n      swap1\n      tag_538\n      swap2\n      swap1\n      tag_309\n      jump\t// in\n    tag_538:\n        /* \"ZKSYNC/infoChef.sol\":4598:4641  (,APOINT,,) = MasterChef(_MC).poolInfo(pid) */\n      swap1\n      swap2\n      swap3\n      pop\n      swap1\n      pop\n      pop\n      dup1\n      swap7\n      pop\n      pop\n        /* \"ZKSYNC/infoChef.sol\":4677:4680  _MC */\n      dup10\n      sub(shl(0xa0, 0x01), 0x01)\n        /* \"ZKSYNC/infoChef.sol\":4666:4697  MasterChef(_MC).totalAllocPoint */\n      and\n      0x17caf6f1\n        /* \"ZKSYNC/infoChef.sol\":4666:4699  MasterChef(_MC).totalAllocPoint() */\n      mload(0x40)\n      dup2\n      0xffffffff\n      and\n      0xe0\n      shl\n      dup2\n      mstore\n      0x04\n      add\n      0x20\n      mload(0x40)\n      dup1\n      dup4\n      sub\n      dup2\n      dup7\n      gas\n      staticcall\n      iszero\n      dup1\n      iszero\n      tag_540\n      jumpi\n      returndatasize\n      0x00\n      dup1\n      returndatacopy\n      revert(0x00, returndatasize)\n    tag_540:\n      pop\n      pop\n      pop\n      pop\n      mload(0x40)\n      returndatasize\n      not(0x1f)\n      0x1f\n      dup3\n      add\n      and\n      dup3\n      add\n      dup1\n      0x40\n      mstore\n      pop\n      dup2\n      add\n      swap1\n      tag_541\n      swap2\n      swap1\n      tag_51\n      jump\t// in\n    tag_541:\n        /* \"ZKSYNC/infoChef.sol\":4741:4772  Token(token).balanceOf(lpToken) */\n      mload(0x40)\n      shl(0xe0, 0x70a08231)\n      dup2\n      mstore\n      sub(shl(0xa0, 0x01), 0x01)\n        /* \"#utility.yul\":16563:16595   */\n      dup12\n      dup2\n      and\n        /* \"ZKSYNC/infoChef.sol\":4741:4772  Token(token).balanceOf(lpToken) */\n      0x04\n      dup4\n      add\n        /* \"#utility.yul\":16545:16596   */\n      mstore\n        /* \"ZKSYNC/infoChef.sol\":4656:4699  TAPOINT = MasterChef(_MC).totalAllocPoint() */\n      swap2\n      swap7\n      pop\n        /* \"ZKSYNC/infoChef.sol\":4741:4763  Token(token).balanceOf */\n      swap1\n      dup9\n      and\n      swap1\n      0x70a08231\n      swap1\n        /* \"#utility.yul\":16518:16536   */\n      0x24\n      add\n        /* \"ZKSYNC/infoChef.sol\":4741:4772  Token(token).balanceOf(lpToken) */\n      0x20\n      mload(0x40)\n      dup1\n      dup4\n      sub\n      dup2\n      dup7\n      gas\n      staticcall\n      iszero\n      dup1\n      iszero\n      tag_545\n      jumpi\n      returndatasize\n      0x00\n      dup1\n      returndatacopy\n      revert(0x00, returndatasize)\n    tag_545:\n      pop\n      pop\n      pop\n      pop\n      mload(0x40)\n      returndatasize\n      not(0x1f)\n      0x1f\n      dup3\n      add\n      and\n      dup3\n      add\n      dup1\n      0x40\n      mstore\n      pop\n      dup2\n      add\n      swap1\n      tag_546\n      swap2\n      swap1\n      tag_51\n      jump\t// in\n    tag_546:\n        /* \"ZKSYNC/infoChef.sol\":4793:4825  Token(qToken).balanceOf(lpToken) */\n      mload(0x40)\n      shl(0xe0, 0x70a08231)\n      dup2\n      mstore\n      sub(shl(0xa0, 0x01), 0x01)\n        /* \"#utility.yul\":16563:16595   */\n      dup12\n      dup2\n      and\n        /* \"ZKSYNC/infoChef.sol\":4793:4825  Token(qToken).balanceOf(lpToken) */\n      0x04\n      dup4\n      add\n        /* \"#utility.yul\":16545:16596   */\n      mstore\n        /* \"ZKSYNC/infoChef.sol\":4732:4772  tBalLP = Token(token).balanceOf(lpToken) */\n      swap2\n      swap6\n      pop\n        /* \"ZKSYNC/infoChef.sol\":4793:4816  Token(qToken).balanceOf */\n      swap1\n      dup10\n      and\n      swap1\n      0x70a08231\n      swap1\n        /* \"#utility.yul\":16518:16536   */\n      0x24\n      add\n        /* \"ZKSYNC/infoChef.sol\":4793:4825  Token(qToken).balanceOf(lpToken) */\n      0x20\n      mload(0x40)\n      dup1\n      dup4\n      sub\n      dup2\n      dup7\n      gas\n      staticcall\n      iszero\n      dup1\n      iszero\n      tag_549\n      jumpi\n      returndatasize\n      0x00\n      dup1\n      returndatacopy\n      revert(0x00, returndatasize)\n    tag_549:\n      pop\n      pop\n      pop\n      pop\n      mload(0x40)\n      returndatasize\n      not(0x1f)\n      0x1f\n      dup3\n      add\n      and\n      dup3\n      add\n      dup1\n      0x40\n      mstore\n      pop\n      dup2\n      add\n      swap1\n      tag_550\n      swap2\n      swap1\n      tag_51\n      jump\t// in\n    tag_550:\n        /* \"ZKSYNC/infoChef.sol\":4846:4877  LPToken(lpToken).balanceOf(_MC) */\n      mload(0x40)\n      shl(0xe0, 0x70a08231)\n      dup2\n      mstore\n      sub(shl(0xa0, 0x01), 0x01)\n        /* \"#utility.yul\":16563:16595   */\n      dup13\n      dup2\n      and\n        /* \"ZKSYNC/infoChef.sol\":4846:4877  LPToken(lpToken).balanceOf(_MC) */\n      0x04\n      dup4\n      add\n        /* \"#utility.yul\":16545:16596   */\n      mstore\n        /* \"ZKSYNC/infoChef.sol\":4783:4825  qtBalLP = Token(qToken).balanceOf(lpToken) */\n      swap2\n      swap5\n      pop\n        /* \"ZKSYNC/infoChef.sol\":4846:4872  LPToken(lpToken).balanceOf */\n      swap1\n      dup11\n      and\n      swap1\n      0x70a08231\n      swap1\n        /* \"#utility.yul\":16518:16536   */\n      0x24\n      add\n        /* \"ZKSYNC/infoChef.sol\":4846:4877  LPToken(lpToken).balanceOf(_MC) */\n      0x20\n      mload(0x40)\n      dup1\n      dup4\n      sub\n      dup2\n      dup7\n      gas\n      staticcall\n      iszero\n      dup1\n      iszero\n      tag_553\n      jumpi\n      returndatasize\n      0x00\n      dup1\n      returndatacopy\n      revert(0x00, returndatasize)\n    tag_553:\n      pop\n      pop\n      pop\n      pop\n      mload(0x40)\n      returndatasize\n      not(0x1f)\n      0x1f\n      dup3\n      add\n      and\n      dup3\n      add\n      dup1\n      0x40\n      mstore\n      pop\n      dup2\n      add\n      swap1\n      tag_554\n      swap2\n      swap1\n      tag_51\n      jump\t// in\n    tag_554:\n        /* \"ZKSYNC/infoChef.sol\":4836:4877  lpBalMC = LPToken(lpToken).balanceOf(_MC) */\n      swap2\n      pop\n        /* \"ZKSYNC/infoChef.sol\":4912:4919  lpToken */\n      dup9\n      sub(shl(0xa0, 0x01), 0x01)\n        /* \"ZKSYNC/infoChef.sol\":4904:4932  LPToken(lpToken).totalSupply */\n      and\n      0x18160ddd\n        /* \"ZKSYNC/infoChef.sol\":4904:4934  LPToken(lpToken).totalSupply() */\n      mload(0x40)\n      dup2\n      0xffffffff\n      and\n      0xe0\n      shl\n      dup2\n      mstore\n      0x04\n      add\n      0x20\n      mload(0x40)\n      dup1\n      dup4\n      sub\n      dup2\n      dup7\n      gas\n      staticcall\n      iszero\n      dup1\n      iszero\n      tag_556\n      jumpi\n      returndatasize\n      0x00\n      dup1\n      returndatacopy\n      revert(0x00, returndatasize)\n    tag_556:\n      pop\n      pop\n      pop\n      pop\n      mload(0x40)\n      returndatasize\n      not(0x1f)\n      0x1f\n      dup3\n      add\n      and\n      dup3\n      add\n      dup1\n      0x40\n      mstore\n      pop\n      dup2\n      add\n      swap1\n      tag_557\n      swap2\n      swap1\n      tag_51\n      jump\t// in\n    tag_557:\n        /* \"ZKSYNC/infoChef.sol\":4888:4934  lpTotalSupply = LPToken(lpToken).totalSupply() */\n      swap1\n      pop\n        /* \"ZKSYNC/infoChef.sol\":4358:4943  function farmInfo(uint256 pid, address _MC, address lpToken, address qToken, address token) public view returns ( uint256 APOINT, uint256 TAPOINT, uint256 tBalLP, uint256 qtBalLP, uint256 lpBalMC, uint256 lpTotalSupply ) {... */\n      swap6\n      pop\n      swap6\n      pop\n      swap6\n      pop\n      swap6\n      pop\n      swap6\n      pop\n      swap6\n      jump\t// out\n        /* \"ZKSYNC/infoChef.sol\":6434:7369  function getSaleInfos(address factory) public view returns (... */\n    tag_44:\n        /* \"ZKSYNC/infoChef.sol\":6504:6525  address[] memory sale */\n      0x60\n        /* \"ZKSYNC/infoChef.sol\":6537:6559  address[] memory token */\n      dup1\n        /* \"ZKSYNC/infoChef.sol\":6571:6592  string[] memory tName */\n      0x60\n        /* \"ZKSYNC/infoChef.sol\":6604:6624  string[] memory tSym */\n      dup1\n        /* \"ZKSYNC/infoChef.sol\":6636:6657  uint256[] memory tDec */\n      0x60\n        /* \"ZKSYNC/infoChef.sol\":6668:6691  bool[] memory finalized */\n      dup1\n        /* \"ZKSYNC/infoChef.sol\":6714:6723  uint256 l */\n      0x00\n        /* \"ZKSYNC/infoChef.sol\":6737:6744  factory */\n      dup8\n      sub(shl(0xa0, 0x01), 0x01)\n        /* \"ZKSYNC/infoChef.sol\":6726:6758  IFOFactory(factory).howManySales */\n      and\n      0xe8096d45\n        /* \"ZKSYNC/infoChef.sol\":6726:6760  IFOFactory(factory).howManySales() */\n      mload(0x40)\n      dup2\n      0xffffffff\n      and\n      0xe0\n      shl\n      dup2\n      mstore\n      0x04\n      add\n      0x20\n      mload(0x40)\n      dup1\n      dup4\n      sub\n      dup2\n      dup7\n      gas\n      staticcall\n      iszero\n      dup1\n      iszero\n      tag_560\n      jumpi\n      returndatasize\n      0x00\n      dup1\n      returndatacopy\n      revert(0x00, returndatasize)\n    tag_560:\n      pop\n      pop\n      pop\n      pop\n      mload(0x40)\n      returndatasize\n      not(0x1f)\n      0x1f\n      dup3\n      add\n      and\n      dup3\n      add\n      dup1\n      0x40\n      mstore\n      pop\n      dup2\n      add\n      swap1\n      tag_561\n      swap2\n      swap1\n      tag_51\n      jump\t// in\n    tag_561:\n        /* \"ZKSYNC/infoChef.sol\":6714:6760  uint256 l = IFOFactory(factory).howManySales() */\n      swap1\n      pop\n        /* \"ZKSYNC/infoChef.sol\":6795:6796  l */\n      dup1\n      sub(shl(0x40, 0x01), 0x01)\n        /* \"ZKSYNC/infoChef.sol\":6781:6797  new address[](l) */\n      dup2\n      gt\n      iszero\n      tag_563\n      jumpi\n      tag_563\n      tag_54\n      jump\t// in\n    tag_563:\n      mload(0x40)\n      swap1\n      dup1\n      dup3\n      mstore\n      dup1\n      0x20\n      mul\n      0x20\n      add\n      dup3\n      add\n      0x40\n      mstore\n      dup1\n      iszero\n      tag_564\n      jumpi\n      dup2\n      0x20\n      add\n      0x20\n      dup3\n      mul\n      dup1\n      calldatasize\n      dup4\n      calldatacopy\n      add\n      swap1\n      pop\n    tag_564:\n      pop\n        /* \"ZKSYNC/infoChef.sol\":6774:6797  sale = new address[](l) */\n      swap7\n      pop\n        /* \"ZKSYNC/infoChef.sol\":6831:6832  l */\n      dup1\n      sub(shl(0x40, 0x01), 0x01)\n        /* \"ZKSYNC/infoChef.sol\":6817:6833  new address[](l) */\n      dup2\n      gt\n      iszero\n      tag_566\n      jumpi\n      tag_566\n      tag_54\n      jump\t// in\n    tag_566:\n      mload(0x40)\n      swap1\n      dup1\n      dup3\n      mstore\n      dup1\n      0x20\n      mul\n      0x20\n      add\n      dup3\n      add\n      0x40\n      mstore\n      dup1\n      iszero\n      tag_567\n      jumpi\n      dup2\n      0x20\n      add\n      0x20\n      dup3\n      mul\n      dup1\n      calldatasize\n      dup4\n      calldatacopy\n      add\n      swap1\n      pop\n    tag_567:\n      pop\n        /* \"ZKSYNC/infoChef.sol\":6809:6833  token = new address[](l) */\n      swap6\n      pop\n        /* \"ZKSYNC/infoChef.sol\":6866:6867  l */\n      dup1\n      sub(shl(0x40, 0x01), 0x01)\n        /* \"ZKSYNC/infoChef.sol\":6853:6868  new string[](l) */\n      dup2\n      gt\n      iszero\n      tag_569\n      jumpi\n      tag_569\n      tag_54\n      jump\t// in\n    tag_569:\n      mload(0x40)\n      swap1\n      dup1\n      dup3\n      mstore\n      dup1\n      0x20\n      mul\n      0x20\n      add\n      dup3\n      add\n      0x40\n      mstore\n      dup1\n      iszero\n      tag_570\n      jumpi\n      dup2\n      0x20\n      add\n    tag_571:\n      0x60\n      dup2\n      mstore\n      0x20\n      add\n      swap1\n      0x01\n      swap1\n      sub\n      swap1\n      dup2\n      tag_571\n      jumpi\n      swap1\n      pop\n    tag_570:\n      pop\n        /* \"ZKSYNC/infoChef.sol\":6845:6868  tName = new string[](l) */\n      swap5\n      pop\n        /* \"ZKSYNC/infoChef.sol\":6900:6901  l */\n      dup1\n      sub(shl(0x40, 0x01), 0x01)\n        /* \"ZKSYNC/infoChef.sol\":6887:6902  new string[](l) */\n      dup2\n      gt\n      iszero\n      tag_573\n      jumpi\n      tag_573\n      tag_54\n      jump\t// in\n    tag_573:\n      mload(0x40)\n      swap1\n      dup1\n      dup3\n      mstore\n      dup1\n      0x20\n      mul\n      0x20\n      add\n      dup3\n      add\n      0x40\n      mstore\n      dup1\n      iszero\n      tag_574\n      jumpi\n      dup2\n      0x20\n      add\n    tag_575:\n      0x60\n      dup2\n      mstore\n      0x20\n      add\n      swap1\n      0x01\n      swap1\n      sub\n      swap1\n      dup2\n      tag_575\n      jumpi\n      swap1\n      pop\n    tag_574:\n      pop\n        /* \"ZKSYNC/infoChef.sol\":6880:6902  tSym = new string[](l) */\n      swap4\n      pop\n        /* \"ZKSYNC/infoChef.sol\":6935:6936  l */\n      dup1\n      sub(shl(0x40, 0x01), 0x01)\n        /* \"ZKSYNC/infoChef.sol\":6921:6937  new uint256[](l) */\n      dup2\n      gt\n      iszero\n      tag_577\n      jumpi\n      tag_577\n      tag_54\n      jump\t// in\n    tag_577:\n      mload(0x40)\n      swap1\n      dup1\n      dup3\n      mstore\n      dup1\n      0x20\n      mul\n      0x20\n      add\n      dup3\n      add\n      0x40\n      mstore\n      dup1\n      iszero\n      tag_578\n      jumpi\n      dup2\n      0x20\n      add\n      0x20\n      dup3\n      mul\n      dup1\n      calldatasize\n      dup4\n      calldatacopy\n      add\n      swap1\n      pop\n    tag_578:\n      pop\n        /* \"ZKSYNC/infoChef.sol\":6914:6937  tDec = new uint256[](l) */\n      swap3\n      pop\n        /* \"ZKSYNC/infoChef.sol\":6971:6972  l */\n      dup1\n      sub(shl(0x40, 0x01), 0x01)\n        /* \"ZKSYNC/infoChef.sol\":6960:6973  new bool[](l) */\n      dup2\n      gt\n      iszero\n      tag_580\n      jumpi\n      tag_580\n      tag_54\n      jump\t// in\n    tag_580:\n      mload(0x40)\n      swap1\n      dup1\n      dup3\n      mstore\n      dup1\n      0x20\n      mul\n      0x20\n      add\n      dup3\n      add\n      0x40\n      mstore\n      dup1\n      iszero\n      tag_581\n      jumpi\n      dup2\n      0x20\n      add\n      0x20\n      dup3\n      mul\n      dup1\n      calldatasize\n      dup4\n      calldatacopy\n      add\n      swap1\n      pop\n    tag_581:\n      pop\n        /* \"ZKSYNC/infoChef.sol\":6949:6973  finalized =new bool[](l) */\n      swap2\n      pop\n        /* \"ZKSYNC/infoChef.sol\":7002:7008  uint i */\n      0x00\n        /* \"ZKSYNC/infoChef.sol\":6998:7362  for(uint i=0; i<l; i++){... */\n    tag_582:\n        /* \"ZKSYNC/infoChef.sol\":7014:7015  l */\n      dup2\n        /* \"ZKSYNC/infoChef.sol\":7012:7013  i */\n      dup2\n        /* \"ZKSYNC/infoChef.sol\":7012:7015  i<l */\n      lt\n        /* \"ZKSYNC/infoChef.sol\":6998:7362  for(uint i=0; i<l; i++){... */\n      iszero\n      tag_583\n      jumpi\n        /* \"ZKSYNC/infoChef.sol\":7046:7076  IFOFactory(factory).getSale(i) */\n      mload(0x40)\n      shl(0xe1, 0x6c7b6acb)\n      dup2\n      mstore\n      0x04\n      dup2\n      add\n        /* \"#utility.yul\":13036:13061   */\n      dup3\n      swap1\n      mstore\n      sub(shl(0xa0, 0x01), 0x01)\n        /* \"ZKSYNC/infoChef.sol\":7046:7073  IFOFactory(factory).getSale */\n      dup11\n      and\n      swap1\n      0xd8f6d596\n      swap1\n        /* \"#utility.yul\":13009:13027   */\n      0x24\n      add\n        /* \"ZKSYNC/infoChef.sol\":7046:7076  IFOFactory(factory).getSale(i) */\n      0x20\n      mload(0x40)\n      dup1\n      dup4\n      sub\n      dup2\n      dup7\n      gas\n      staticcall\n      iszero\n      dup1\n      iszero\n      tag_587\n      jumpi\n      returndatasize\n      0x00\n      dup1\n      returndatacopy\n      revert(0x00, returndatasize)\n    tag_587:\n      pop\n      pop\n      pop\n      pop\n      mload(0x40)\n      returndatasize\n      not(0x1f)\n      0x1f\n      dup3\n      add\n      and\n      dup3\n      add\n      dup1\n      0x40\n      mstore\n      pop\n      dup2\n      add\n      swap1\n      tag_588\n      swap2\n      swap1\n      tag_92\n      jump\t// in\n    tag_588:\n        /* \"ZKSYNC/infoChef.sol\":7036:7040  sale */\n      dup9\n        /* \"ZKSYNC/infoChef.sol\":7041:7042  i */\n      dup3\n        /* \"ZKSYNC/infoChef.sol\":7036:7043  sale[i] */\n      dup2\n      mload\n      dup2\n      lt\n      tag_590\n      jumpi\n      tag_590\n      tag_95\n      jump\t// in\n    tag_590:\n      0x20\n      mul\n      0x20\n      add\n      add\n        /* \"ZKSYNC/infoChef.sol\":7036:7076  sale[i] = IFOFactory(factory).getSale(i) */\n      swap1\n      sub(shl(0xa0, 0x01), 0x01)\n      and\n      swap1\n      dup2\n      sub(shl(0xa0, 0x01), 0x01)\n      and\n      dup2\n      mstore\n      pop\n      pop\n        /* \"ZKSYNC/infoChef.sol\":7106:7110  sale */\n      dup8\n        /* \"ZKSYNC/infoChef.sol\":7111:7112  i */\n      dup2\n        /* \"ZKSYNC/infoChef.sol\":7106:7113  sale[i] */\n      dup2\n      mload\n      dup2\n      lt\n      tag_592\n      jumpi\n      tag_592\n      tag_95\n      jump\t// in\n    tag_592:\n      0x20\n      mul\n      0x20\n      add\n      add\n      mload\n      sub(shl(0xa0, 0x01), 0x01)\n        /* \"ZKSYNC/infoChef.sol\":7102:7128  Ifo(sale[i]).offeringToken */\n      and\n      0xb7813607\n        /* \"ZKSYNC/infoChef.sol\":7102:7130  Ifo(sale[i]).offeringToken() */\n      mload(0x40)\n      dup2\n      0xffffffff\n      and\n      0xe0\n      shl\n      dup2\n      mstore\n      0x04\n      add\n      0x20\n      mload(0x40)\n      dup1\n      dup4\n      sub\n      dup2\n      dup7\n      gas\n      staticcall\n      iszero\n      dup1\n      iszero\n      tag_594\n      jumpi\n      returndatasize\n      0x00\n      dup1\n      returndatacopy\n      revert(0x00, returndatasize)\n    tag_594:\n      pop\n      pop\n      pop\n      pop\n      mload(0x40)\n      returndatasize\n      not(0x1f)\n      0x1f\n      dup3\n      add\n      and\n      dup3\n      add\n      dup1\n      0x40\n      mstore\n      pop\n      dup2\n      add\n      swap1\n      tag_595\n      swap2\n      swap1\n      tag_92\n      jump\t// in\n    tag_595:\n        /* \"ZKSYNC/infoChef.sol\":7091:7096  token */\n      dup8\n        /* \"ZKSYNC/infoChef.sol\":7097:7098  i */\n      dup3\n        /* \"ZKSYNC/infoChef.sol\":7091:7099  token[i] */\n      dup2\n      mload\n      dup2\n      lt\n      tag_597\n      jumpi\n      tag_597\n      tag_95\n      jump\t// in\n    tag_597:\n      0x20\n      mul\n      0x20\n      add\n      add\n        /* \"ZKSYNC/infoChef.sol\":7091:7130  token[i] = Ifo(sale[i]).offeringToken() */\n      swap1\n      sub(shl(0xa0, 0x01), 0x01)\n      and\n      swap1\n      dup2\n      sub(shl(0xa0, 0x01), 0x01)\n      and\n      dup2\n      mstore\n      pop\n      pop\n        /* \"ZKSYNC/infoChef.sol\":7145:7157  Token tokenC */\n      0x00\n        /* \"ZKSYNC/infoChef.sol\":7166:7171  token */\n      dup8\n        /* \"ZKSYNC/infoChef.sol\":7172:7173  i */\n      dup3\n        /* \"ZKSYNC/infoChef.sol\":7166:7174  token[i] */\n      dup2\n      mload\n      dup2\n      lt\n      tag_599\n      jumpi\n      tag_599\n      tag_95\n      jump\t// in\n    tag_599:\n      0x20\n      mul\n      0x20\n      add\n      add\n      mload\n        /* \"ZKSYNC/infoChef.sol\":7145:7175  Token tokenC = Token(token[i]) */\n      swap1\n      pop\n        /* \"ZKSYNC/infoChef.sol\":7201:7207  tokenC */\n      dup1\n      sub(shl(0xa0, 0x01), 0x01)\n        /* \"ZKSYNC/infoChef.sol\":7201:7212  tokenC.name */\n      and\n      0x06fdde03\n        /* \"ZKSYNC/infoChef.sol\":7201:7214  tokenC.name() */\n      mload(0x40)\n      dup2\n      0xffffffff\n      and\n      0xe0\n      shl\n      dup2\n      mstore\n      0x04\n      add\n      0x00\n      mload(0x40)\n      dup1\n      dup4\n      sub\n      dup2\n      dup7\n      gas\n      staticcall\n      iszero\n      dup1\n      iszero\n      tag_601\n      jumpi\n      returndatasize\n      0x00\n      dup1\n      returndatacopy\n      revert(0x00, returndatasize)\n    tag_601:\n      pop\n      pop\n      pop\n      pop\n      mload(0x40)\n      returndatasize\n      0x00\n      dup3\n      returndatacopy\n      0x1f\n      returndatasize\n      swap1\n      dup2\n      add\n      not(0x1f)\n      and\n      dup3\n      add\n      0x40\n      mstore\n      tag_602\n      swap2\n      swap1\n      dup2\n      add\n      swap1\n      tag_108\n      jump\t// in\n    tag_602:\n        /* \"ZKSYNC/infoChef.sol\":7190:7195  tName */\n      dup8\n        /* \"ZKSYNC/infoChef.sol\":7196:7197  i */\n      dup4\n        /* \"ZKSYNC/infoChef.sol\":7190:7198  tName[i] */\n      dup2\n      mload\n      dup2\n      lt\n      tag_604\n      jumpi\n      tag_604\n      tag_95\n      jump\t// in\n    tag_604:\n      0x20\n      mul\n      0x20\n      add\n      add\n        /* \"ZKSYNC/infoChef.sol\":7190:7214  tName[i] = tokenC.name() */\n      dup2\n      swap1\n      mstore\n      pop\n        /* \"ZKSYNC/infoChef.sol\":7239:7245  tokenC */\n      dup1\n      sub(shl(0xa0, 0x01), 0x01)\n        /* \"ZKSYNC/infoChef.sol\":7239:7252  tokenC.symbol */\n      and\n      0x95d89b41\n        /* \"ZKSYNC/infoChef.sol\":7239:7254  tokenC.symbol() */\n      mload(0x40)\n      dup2\n      0xffffffff\n      and\n      0xe0\n      shl\n      dup2\n      mstore\n      0x04\n      add\n      0x00\n      mload(0x40)\n      dup1\n      dup4\n      sub\n      dup2\n      dup7\n      gas\n      staticcall\n      iszero\n      dup1\n      iszero\n      tag_606\n      jumpi\n      returndatasize\n      0x00\n      dup1\n      returndatacopy\n      revert(0x00, returndatasize)\n    tag_606:\n      pop\n      pop\n      pop\n      pop\n      mload(0x40)\n      returndatasize\n      0x00\n      dup3\n      returndatacopy\n      0x1f\n      returndatasize\n      swap1\n      dup2\n      add\n      not(0x1f)\n      and\n      dup3\n      add\n      0x40\n      mstore\n      tag_607\n      swap2\n      swap1\n      dup2\n      add\n      swap1\n      tag_108\n      jump\t// in\n    tag_607:\n        /* \"ZKSYNC/infoChef.sol\":7229:7233  tSym */\n      dup7\n        /* \"ZKSYNC/infoChef.sol\":7234:7235  i */\n      dup4\n        /* \"ZKSYNC/infoChef.sol\":7229:7236  tSym[i] */\n      dup2\n      mload\n      dup2\n      lt\n      tag_609\n      jumpi\n      tag_609\n      tag_95\n      jump\t// in\n    tag_609:\n      0x20\n      mul\n      0x20\n      add\n      add\n        /* \"ZKSYNC/infoChef.sol\":7229:7254  tSym[i] = tokenC.symbol() */\n      dup2\n      swap1\n      mstore\n      pop\n        /* \"ZKSYNC/infoChef.sol\":7279:7285  tokenC */\n      dup1\n      sub(shl(0xa0, 0x01), 0x01)\n        /* \"ZKSYNC/infoChef.sol\":7279:7294  tokenC.decimals */\n      and\n      0x313ce567\n        /* \"ZKSYNC/infoChef.sol\":7279:7296  tokenC.decimals() */\n      mload(0x40)\n      dup2\n      0xffffffff\n      and\n      0xe0\n      shl\n      dup2\n      mstore\n      0x04\n      add\n      0x20\n      mload(0x40)\n      dup1\n      dup4\n      sub\n      dup2\n      dup7\n      gas\n      staticcall\n      iszero\n      dup1\n      iszero\n      tag_611\n      jumpi\n      returndatasize\n      0x00\n      dup1\n      returndatacopy\n      revert(0x00, returndatasize)\n    tag_611:\n      pop\n      pop\n      pop\n      pop\n      mload(0x40)\n      returndatasize\n      not(0x1f)\n      0x1f\n      dup3\n      add\n      and\n      dup3\n      add\n      dup1\n      0x40\n      mstore\n      pop\n      dup2\n      add\n      swap1\n      tag_612\n      swap2\n      swap1\n      tag_119\n      jump\t// in\n    tag_612:\n        /* \"ZKSYNC/infoChef.sol\":7269:7296  tDec[i] = tokenC.decimals() */\n      0xff\n      and\n        /* \"ZKSYNC/infoChef.sol\":7269:7273  tDec */\n      dup6\n        /* \"ZKSYNC/infoChef.sol\":7274:7275  i */\n      dup4\n        /* \"ZKSYNC/infoChef.sol\":7269:7276  tDec[i] */\n      dup2\n      mload\n      dup2\n      lt\n      tag_614\n      jumpi\n      tag_614\n      tag_95\n      jump\t// in\n    tag_614:\n      0x20\n      mul\n      0x20\n      add\n      add\n        /* \"ZKSYNC/infoChef.sol\":7269:7296  tDec[i] = tokenC.decimals() */\n      dup2\n      dup2\n      mstore\n      pop\n      pop\n        /* \"ZKSYNC/infoChef.sol\":7330:7334  sale */\n      dup9\n        /* \"ZKSYNC/infoChef.sol\":7335:7336  i */\n      dup3\n        /* \"ZKSYNC/infoChef.sol\":7330:7337  sale[i] */\n      dup2\n      mload\n      dup2\n      lt\n      tag_616\n      jumpi\n      tag_616\n      tag_95\n      jump\t// in\n    tag_616:\n      0x20\n      mul\n      0x20\n      add\n      add\n      mload\n      sub(shl(0xa0, 0x01), 0x01)\n        /* \"ZKSYNC/infoChef.sol\":7326:7348  Ifo(sale[i]).finalized */\n      and\n      0xb3f05b97\n        /* \"ZKSYNC/infoChef.sol\":7326:7350  Ifo(sale[i]).finalized() */\n      mload(0x40)\n      dup2\n      0xffffffff\n      and\n      0xe0\n      shl\n      dup2\n      mstore\n      0x04\n      add\n      0x20\n      mload(0x40)\n      dup1\n      dup4\n      sub\n      dup2\n      dup7\n      gas\n      staticcall\n      iszero\n      dup1\n      iszero\n      tag_618\n      jumpi\n      returndatasize\n      0x00\n      dup1\n      returndatacopy\n      revert(0x00, returndatasize)\n    tag_618:\n      pop\n      pop\n      pop\n      pop\n      mload(0x40)\n      returndatasize\n      not(0x1f)\n      0x1f\n      dup3\n      add\n      and\n      dup3\n      add\n      dup1\n      0x40\n      mstore\n      pop\n      dup2\n      add\n      swap1\n      tag_619\n      swap2\n      swap1\n      tag_228\n      jump\t// in\n    tag_619:\n        /* \"ZKSYNC/infoChef.sol\":7311:7320  finalized */\n      dup5\n        /* \"ZKSYNC/infoChef.sol\":7321:7322  i */\n      dup4\n        /* \"ZKSYNC/infoChef.sol\":7311:7323  finalized[i] */\n      dup2\n      mload\n      dup2\n      lt\n      tag_621\n      jumpi\n      tag_621\n      tag_95\n      jump\t// in\n    tag_621:\n        /* \"ZKSYNC/infoChef.sol\":7311:7350  finalized[i] = Ifo(sale[i]).finalized() */\n      swap2\n      iszero\n      iszero\n        /* \"ZKSYNC/infoChef.sol\":7311:7323  finalized[i] */\n      0x20\n      swap3\n      dup4\n      mul\n      swap2\n      swap1\n      swap2\n      add\n      swap1\n      swap2\n      add\n        /* \"ZKSYNC/infoChef.sol\":7311:7350  finalized[i] = Ifo(sale[i]).finalized() */\n      mstore\n      pop\n        /* \"ZKSYNC/infoChef.sol\":7017:7020  i++ */\n      dup1\n      tag_622\n      dup2\n      tag_147\n      jump\t// in\n    tag_622:\n      swap2\n      pop\n      pop\n        /* \"ZKSYNC/infoChef.sol\":6998:7362  for(uint i=0; i<l; i++){... */\n      jump(tag_582)\n    tag_583:\n      pop\n        /* \"ZKSYNC/infoChef.sol\":6703:7369  {... */\n      pop\n        /* \"ZKSYNC/infoChef.sol\":6434:7369  function getSaleInfos(address factory) public view returns (... */\n      swap2\n      swap4\n      swap6\n      pop\n      swap2\n      swap4\n      swap6\n      jump\t// out\n        /* \"#utility.yul\":14:145   */\n    tag_623:\n      sub(shl(0xa0, 0x01), 0x01)\n        /* \"#utility.yul\":89:120   */\n      dup2\n      and\n        /* \"#utility.yul\":79:121   */\n      dup2\n      eq\n        /* \"#utility.yul\":69:139   */\n      tag_632\n      jumpi\n        /* \"#utility.yul\":135:136   */\n      0x00\n        /* \"#utility.yul\":132:133   */\n      dup1\n        /* \"#utility.yul\":125:137   */\n      revert\n        /* \"#utility.yul\":69:139   */\n    tag_632:\n        /* \"#utility.yul\":14:145   */\n      pop\n      jump\t// out\n        /* \"#utility.yul\":150:397   */\n    tag_13:\n        /* \"#utility.yul\":209:215   */\n      0x00\n        /* \"#utility.yul\":262:264   */\n      0x20\n        /* \"#utility.yul\":250:259   */\n      dup3\n        /* \"#utility.yul\":241:248   */\n      dup5\n        /* \"#utility.yul\":237:260   */\n      sub\n        /* \"#utility.yul\":233:265   */\n      slt\n        /* \"#utility.yul\":230:282   */\n      iszero\n      tag_634\n      jumpi\n        /* \"#utility.yul\":278:279   */\n      0x00\n        /* \"#utility.yul\":275:276   */\n      dup1\n        /* \"#utility.yul\":268:280   */\n      revert\n        /* \"#utility.yul\":230:282   */\n    tag_634:\n        /* \"#utility.yul\":317:326   */\n      dup2\n        /* \"#utility.yul\":304:327   */\n      calldataload\n        /* \"#utility.yul\":336:367   */\n      tag_635\n        /* \"#utility.yul\":361:366   */\n      dup2\n        /* \"#utility.yul\":336:367   */\n      tag_623\n      jump\t// in\n    tag_635:\n        /* \"#utility.yul\":386:391   */\n      swap4\n        /* \"#utility.yul\":150:397   */\n      swap3\n      pop\n      pop\n      pop\n      jump\t// out\n        /* \"#utility.yul\":402:863   */\n    tag_624:\n        /* \"#utility.yul\":455:458   */\n      0x00\n        /* \"#utility.yul\":493:498   */\n      dup2\n        /* \"#utility.yul\":487:499   */\n      mload\n        /* \"#utility.yul\":520:526   */\n      dup1\n        /* \"#utility.yul\":515:518   */\n      dup5\n        /* \"#utility.yul\":508:527   */\n      mstore\n        /* \"#utility.yul\":546:550   */\n      0x20\n        /* \"#utility.yul\":575:577   */\n      dup1\n        /* \"#utility.yul\":570:573   */\n      dup6\n        /* \"#utility.yul\":566:578   */\n      add\n        /* \"#utility.yul\":559:578   */\n      swap5\n      pop\n        /* \"#utility.yul\":612:614   */\n      dup1\n        /* \"#utility.yul\":605:610   */\n      dup5\n        /* \"#utility.yul\":601:615   */\n      add\n        /* \"#utility.yul\":633:634   */\n      0x00\n        /* \"#utility.yul\":643:838   */\n    tag_637:\n        /* \"#utility.yul\":657:663   */\n      dup4\n        /* \"#utility.yul\":654:655   */\n      dup2\n        /* \"#utility.yul\":651:664   */\n      lt\n        /* \"#utility.yul\":643:838   */\n      iszero\n      tag_639\n      jumpi\n        /* \"#utility.yul\":722:735   */\n      dup2\n      mload\n      sub(shl(0xa0, 0x01), 0x01)\n        /* \"#utility.yul\":718:757   */\n      and\n        /* \"#utility.yul\":706:758   */\n      dup8\n      mstore\n        /* \"#utility.yul\":778:790   */\n      swap6\n      dup3\n      add\n      swap6\n        /* \"#utility.yul\":813:828   */\n      swap1\n      dup3\n      add\n      swap1\n        /* \"#utility.yul\":754:755   */\n      0x01\n        /* \"#utility.yul\":672:681   */\n      add\n        /* \"#utility.yul\":643:838   */\n      jump(tag_637)\n    tag_639:\n      pop\n        /* \"#utility.yul\":854:857   */\n      swap5\n      swap6\n        /* \"#utility.yul\":402:863   */\n      swap5\n      pop\n      pop\n      pop\n      pop\n      pop\n      jump\t// out\n        /* \"#utility.yul\":868:1118   */\n    tag_625:\n        /* \"#utility.yul\":953:954   */\n      0x00\n        /* \"#utility.yul\":963:1076   */\n    tag_641:\n        /* \"#utility.yul\":977:983   */\n      dup4\n        /* \"#utility.yul\":974:975   */\n      dup2\n        /* \"#utility.yul\":971:984   */\n      lt\n        /* \"#utility.yul\":963:1076   */\n      iszero\n      tag_643\n      jumpi\n        /* \"#utility.yul\":1053:1064   */\n      dup2\n      dup2\n      add\n        /* \"#utility.yul\":1047:1065   */\n      mload\n        /* \"#utility.yul\":1034:1045   */\n      dup4\n      dup3\n      add\n        /* \"#utility.yul\":1027:1066   */\n      mstore\n        /* \"#utility.yul\":999:1001   */\n      0x20\n        /* \"#utility.yul\":992:1002   */\n      add\n        /* \"#utility.yul\":963:1076   */\n      jump(tag_641)\n    tag_643:\n      pop\n      pop\n        /* \"#utility.yul\":1110:1111   */\n      0x00\n        /* \"#utility.yul\":1092:1108   */\n      swap2\n      add\n        /* \"#utility.yul\":1085:1112   */\n      mstore\n        /* \"#utility.yul\":868:1118   */\n      jump\t// out\n        /* \"#utility.yul\":1123:1942   */\n    tag_626:\n        /* \"#utility.yul\":1175:1178   */\n      0x00\n        /* \"#utility.yul\":1206:1209   */\n      dup3\n        /* \"#utility.yul\":1238:1243   */\n      dup3\n        /* \"#utility.yul\":1232:1244   */\n      mload\n        /* \"#utility.yul\":1265:1271   */\n      dup1\n        /* \"#utility.yul\":1260:1263   */\n      dup6\n        /* \"#utility.yul\":1253:1272   */\n      mstore\n        /* \"#utility.yul\":1291:1295   */\n      0x20\n        /* \"#utility.yul\":1320:1322   */\n      dup1\n        /* \"#utility.yul\":1315:1318   */\n      dup7\n        /* \"#utility.yul\":1311:1323   */\n      add\n        /* \"#utility.yul\":1304:1323   */\n      swap6\n      pop\n        /* \"#utility.yul\":1376:1378   */\n      dup1\n        /* \"#utility.yul\":1366:1372   */\n      dup3\n        /* \"#utility.yul\":1363:1364   */\n      0x05\n        /* \"#utility.yul\":1359:1373   */\n      shl\n        /* \"#utility.yul\":1352:1357   */\n      dup5\n        /* \"#utility.yul\":1348:1374   */\n      add\n        /* \"#utility.yul\":1344:1379   */\n      add\n        /* \"#utility.yul\":1413:1415   */\n      dup2\n        /* \"#utility.yul\":1406:1411   */\n      dup7\n        /* \"#utility.yul\":1402:1416   */\n      add\n        /* \"#utility.yul\":1434:1435   */\n      0x00\n        /* \"#utility.yul\":1444:1916   */\n    tag_645:\n        /* \"#utility.yul\":1458:1464   */\n      dup5\n        /* \"#utility.yul\":1455:1456   */\n      dup2\n        /* \"#utility.yul\":1452:1465   */\n      lt\n        /* \"#utility.yul\":1444:1916   */\n      iszero\n      tag_647\n      jumpi\n        /* \"#utility.yul\":1521:1523   */\n      0x1f\n        /* \"#utility.yul\":1517:1524   */\n      not\n        /* \"#utility.yul\":1571:1573   */\n      dup1\n        /* \"#utility.yul\":1563:1568   */\n      dup8\n        /* \"#utility.yul\":1557:1561   */\n      dup6\n        /* \"#utility.yul\":1553:1569   */\n      sub\n        /* \"#utility.yul\":1549:1574   */\n      add\n        /* \"#utility.yul\":1544:1547   */\n      dup11\n        /* \"#utility.yul\":1537:1575   */\n      mstore\n        /* \"#utility.yul\":1604:1610   */\n      dup3\n        /* \"#utility.yul\":1598:1611   */\n      mload\n        /* \"#utility.yul\":1646:1648   */\n      dup1\n        /* \"#utility.yul\":1640:1649   */\n      mload\n        /* \"#utility.yul\":1675:1683   */\n      dup1\n        /* \"#utility.yul\":1669:1673   */\n      dup7\n        /* \"#utility.yul\":1662:1684   */\n      mstore\n        /* \"#utility.yul\":1697:1769   */\n      tag_648\n        /* \"#utility.yul\":1760:1768   */\n      dup2\n        /* \"#utility.yul\":1755:1757   */\n      dup9\n        /* \"#utility.yul\":1749:1753   */\n      dup9\n        /* \"#utility.yul\":1745:1758   */\n      add\n        /* \"#utility.yul\":1740:1742   */\n      dup10\n        /* \"#utility.yul\":1736:1738   */\n      dup6\n        /* \"#utility.yul\":1732:1743   */\n      add\n        /* \"#utility.yul\":1697:1769   */\n      tag_625\n      jump\t// in\n    tag_648:\n        /* \"#utility.yul\":1894:1906   */\n      swap11\n      dup7\n      add\n      swap11\n        /* \"#utility.yul\":1822:1824   */\n      0x1f\n        /* \"#utility.yul\":1808:1825   */\n      add\n        /* \"#utility.yul\":1804:1830   */\n      swap1\n      swap2\n      and\n        /* \"#utility.yul\":1794:1831   */\n      swap4\n      swap1\n      swap4\n      add\n        /* \"#utility.yul\":1790:1836   */\n      dup5\n      add\n      swap3\n      pop\n        /* \"#utility.yul\":1859:1874   */\n      swap1\n      dup4\n      add\n      swap1\n        /* \"#utility.yul\":1480:1481   */\n      0x01\n        /* \"#utility.yul\":1473:1482   */\n      add\n        /* \"#utility.yul\":1444:1916   */\n      jump(tag_645)\n    tag_647:\n      pop\n        /* \"#utility.yul\":1932:1936   */\n      swap1\n      swap8\n        /* \"#utility.yul\":1123:1942   */\n      swap7\n      pop\n      pop\n      pop\n      pop\n      pop\n      pop\n      pop\n      jump\t// out\n        /* \"#utility.yul\":1947:2382   */\n    tag_627:\n        /* \"#utility.yul\":2000:2003   */\n      0x00\n        /* \"#utility.yul\":2038:2043   */\n      dup2\n        /* \"#utility.yul\":2032:2044   */\n      mload\n        /* \"#utility.yul\":2065:2071   */\n      dup1\n        /* \"#utility.yul\":2060:2063   */\n      dup5\n        /* \"#utility.yul\":2053:2072   */\n      mstore\n        /* \"#utility.yul\":2091:2095   */\n      0x20\n        /* \"#utility.yul\":2120:2122   */\n      dup1\n        /* \"#utility.yul\":2115:2118   */\n      dup6\n        /* \"#utility.yul\":2111:2123   */\n      add\n        /* \"#utility.yul\":2104:2123   */\n      swap5\n      pop\n        /* \"#utility.yul\":2157:2159   */\n      dup1\n        /* \"#utility.yul\":2150:2155   */\n      dup5\n        /* \"#utility.yul\":2146:2160   */\n      add\n        /* \"#utility.yul\":2178:2179   */\n      0x00\n        /* \"#utility.yul\":2188:2357   */\n    tag_650:\n        /* \"#utility.yul\":2202:2208   */\n      dup4\n        /* \"#utility.yul\":2199:2200   */\n      dup2\n        /* \"#utility.yul\":2196:2209   */\n      lt\n        /* \"#utility.yul\":2188:2357   */\n      iszero\n      tag_639\n      jumpi\n        /* \"#utility.yul\":2263:2276   */\n      dup2\n      mload\n        /* \"#utility.yul\":2251:2277   */\n      dup8\n      mstore\n        /* \"#utility.yul\":2297:2309   */\n      swap6\n      dup3\n      add\n      swap6\n        /* \"#utility.yul\":2332:2347   */\n      swap1\n      dup3\n      add\n      swap1\n        /* \"#utility.yul\":2224:2225   */\n      0x01\n        /* \"#utility.yul\":2217:2226   */\n      add\n        /* \"#utility.yul\":2188:2357   */\n      jump(tag_650)\n        /* \"#utility.yul\":2387:4383   */\n    tag_16:\n        /* \"#utility.yul\":3233:3237   */\n      0x00\n        /* \"#utility.yul\":3262:3265   */\n      0x0120\n        /* \"#utility.yul\":3292:3294   */\n      dup1\n        /* \"#utility.yul\":3281:3290   */\n      dup4\n        /* \"#utility.yul\":3274:3295   */\n      mstore\n        /* \"#utility.yul\":3318:3374   */\n      tag_654\n        /* \"#utility.yul\":3370:3372   */\n      dup2\n        /* \"#utility.yul\":3359:3368   */\n      dup5\n        /* \"#utility.yul\":3355:3373   */\n      add\n        /* \"#utility.yul\":3347:3353   */\n      dup14\n        /* \"#utility.yul\":3318:3374   */\n      tag_624\n      jump\t// in\n    tag_654:\n        /* \"#utility.yul\":3304:3374   */\n      swap1\n      pop\n        /* \"#utility.yul\":3422:3431   */\n      dup3\n        /* \"#utility.yul\":3414:3420   */\n      dup2\n        /* \"#utility.yul\":3410:3432   */\n      sub\n        /* \"#utility.yul\":3405:3407   */\n      0x20\n        /* \"#utility.yul\":3394:3403   */\n      dup5\n        /* \"#utility.yul\":3390:3408   */\n      add\n        /* \"#utility.yul\":3383:3433   */\n      mstore\n        /* \"#utility.yul\":3456:3500   */\n      tag_655\n        /* \"#utility.yul\":3493:3499   */\n      dup2\n        /* \"#utility.yul\":3485:3491   */\n      dup13\n        /* \"#utility.yul\":3456:3500   */\n      tag_624\n      jump\t// in\n    tag_655:\n        /* \"#utility.yul\":3442:3500   */\n      swap1\n      pop\n        /* \"#utility.yul\":3548:3557   */\n      dup3\n        /* \"#utility.yul\":3540:3546   */\n      dup2\n        /* \"#utility.yul\":3536:3558   */\n      sub\n        /* \"#utility.yul\":3531:3533   */\n      0x40\n        /* \"#utility.yul\":3520:3529   */\n      dup5\n        /* \"#utility.yul\":3516:3534   */\n      add\n        /* \"#utility.yul\":3509:3559   */\n      mstore\n        /* \"#utility.yul\":3582:3625   */\n      tag_656\n        /* \"#utility.yul\":3618:3624   */\n      dup2\n        /* \"#utility.yul\":3610:3616   */\n      dup12\n        /* \"#utility.yul\":3582:3625   */\n      tag_626\n      jump\t// in\n    tag_656:\n        /* \"#utility.yul\":3568:3625   */\n      swap1\n      pop\n        /* \"#utility.yul\":3673:3682   */\n      dup3\n        /* \"#utility.yul\":3665:3671   */\n      dup2\n        /* \"#utility.yul\":3661:3683   */\n      sub\n        /* \"#utility.yul\":3656:3658   */\n      0x60\n        /* \"#utility.yul\":3645:3654   */\n      dup5\n        /* \"#utility.yul\":3641:3659   */\n      add\n        /* \"#utility.yul\":3634:3684   */\n      mstore\n        /* \"#utility.yul\":3707:3750   */\n      tag_657\n        /* \"#utility.yul\":3743:3749   */\n      dup2\n        /* \"#utility.yul\":3735:3741   */\n      dup11\n        /* \"#utility.yul\":3707:3750   */\n      tag_626\n      jump\t// in\n    tag_657:\n        /* \"#utility.yul\":3693:3750   */\n      swap1\n      pop\n        /* \"#utility.yul\":3799:3808   */\n      dup3\n        /* \"#utility.yul\":3791:3797   */\n      dup2\n        /* \"#utility.yul\":3787:3809   */\n      sub\n        /* \"#utility.yul\":3781:3784   */\n      0x80\n        /* \"#utility.yul\":3770:3779   */\n      dup5\n        /* \"#utility.yul\":3766:3785   */\n      add\n        /* \"#utility.yul\":3759:3810   */\n      mstore\n        /* \"#utility.yul\":3833:3877   */\n      tag_658\n        /* \"#utility.yul\":3870:3876   */\n      dup2\n        /* \"#utility.yul\":3862:3868   */\n      dup10\n        /* \"#utility.yul\":3833:3877   */\n      tag_627\n      jump\t// in\n    tag_658:\n        /* \"#utility.yul\":3819:3877   */\n      swap1\n      pop\n        /* \"#utility.yul\":3926:3935   */\n      dup3\n        /* \"#utility.yul\":3918:3924   */\n      dup2\n        /* \"#utility.yul\":3914:3936   */\n      sub\n        /* \"#utility.yul\":3908:3911   */\n      0xa0\n        /* \"#utility.yul\":3897:3906   */\n      dup5\n        /* \"#utility.yul\":3893:3912   */\n      add\n        /* \"#utility.yul\":3886:3937   */\n      mstore\n        /* \"#utility.yul\":3960:4004   */\n      tag_659\n        /* \"#utility.yul\":3997:4003   */\n      dup2\n        /* \"#utility.yul\":3989:3995   */\n      dup9\n        /* \"#utility.yul\":3960:4004   */\n      tag_624\n      jump\t// in\n    tag_659:\n        /* \"#utility.yul\":3946:4004   */\n      swap1\n      pop\n        /* \"#utility.yul\":4053:4062   */\n      dup3\n        /* \"#utility.yul\":4045:4051   */\n      dup2\n        /* \"#utility.yul\":4041:4063   */\n      sub\n        /* \"#utility.yul\":4035:4038   */\n      0xc0\n        /* \"#utility.yul\":4024:4033   */\n      dup5\n        /* \"#utility.yul\":4020:4039   */\n      add\n        /* \"#utility.yul\":4013:4064   */\n      mstore\n        /* \"#utility.yul\":4087:4130   */\n      tag_660\n        /* \"#utility.yul\":4123:4129   */\n      dup2\n        /* \"#utility.yul\":4115:4121   */\n      dup8\n        /* \"#utility.yul\":4087:4130   */\n      tag_626\n      jump\t// in\n    tag_660:\n        /* \"#utility.yul\":4073:4130   */\n      swap1\n      pop\n        /* \"#utility.yul\":4179:4188   */\n      dup3\n        /* \"#utility.yul\":4171:4177   */\n      dup2\n        /* \"#utility.yul\":4167:4189   */\n      sub\n        /* \"#utility.yul\":4161:4164   */\n      0xe0\n        /* \"#utility.yul\":4150:4159   */\n      dup5\n        /* \"#utility.yul\":4146:4165   */\n      add\n        /* \"#utility.yul\":4139:4190   */\n      mstore\n        /* \"#utility.yul\":4213:4256   */\n      tag_661\n        /* \"#utility.yul\":4249:4255   */\n      dup2\n        /* \"#utility.yul\":4241:4247   */\n      dup7\n        /* \"#utility.yul\":4213:4256   */\n      tag_626\n      jump\t// in\n    tag_661:\n        /* \"#utility.yul\":4199:4256   */\n      swap1\n      pop\n        /* \"#utility.yul\":4305:4314   */\n      dup3\n        /* \"#utility.yul\":4297:4303   */\n      dup2\n        /* \"#utility.yul\":4293:4315   */\n      sub\n        /* \"#utility.yul\":4287:4290   */\n      0x0100\n        /* \"#utility.yul\":4276:4285   */\n      dup5\n        /* \"#utility.yul\":4272:4291   */\n      add\n        /* \"#utility.yul\":4265:4316   */\n      mstore\n        /* \"#utility.yul\":4333:4377   */\n      tag_662\n        /* \"#utility.yul\":4370:4376   */\n      dup2\n        /* \"#utility.yul\":4362:4368   */\n      dup6\n        /* \"#utility.yul\":4333:4377   */\n      tag_627\n      jump\t// in\n    tag_662:\n        /* \"#utility.yul\":4325:4377   */\n      swap13\n        /* \"#utility.yul\":2387:4383   */\n      swap12\n      pop\n      pop\n      pop\n      pop\n      pop\n      pop\n      pop\n      pop\n      pop\n      pop\n      pop\n      pop\n      jump\t// out\n        /* \"#utility.yul\":4388:4836   */\n    tag_628:\n        /* \"#utility.yul\":4438:4441   */\n      0x00\n        /* \"#utility.yul\":4476:4481   */\n      dup2\n        /* \"#utility.yul\":4470:4482   */\n      mload\n        /* \"#utility.yul\":4503:4509   */\n      dup1\n        /* \"#utility.yul\":4498:4501   */\n      dup5\n        /* \"#utility.yul\":4491:4510   */\n      mstore\n        /* \"#utility.yul\":4529:4533   */\n      0x20\n        /* \"#utility.yul\":4558:4560   */\n      dup1\n        /* \"#utility.yul\":4553:4556   */\n      dup6\n        /* \"#utility.yul\":4549:4561   */\n      add\n        /* \"#utility.yul\":4542:4561   */\n      swap5\n      pop\n        /* \"#utility.yul\":4595:4597   */\n      dup1\n        /* \"#utility.yul\":4588:4593   */\n      dup5\n        /* \"#utility.yul\":4584:4598   */\n      add\n        /* \"#utility.yul\":4616:4617   */\n      0x00\n        /* \"#utility.yul\":4626:4811   */\n    tag_664:\n        /* \"#utility.yul\":4640:4646   */\n      dup4\n        /* \"#utility.yul\":4637:4638   */\n      dup2\n        /* \"#utility.yul\":4634:4647   */\n      lt\n        /* \"#utility.yul\":4626:4811   */\n      iszero\n      tag_639\n      jumpi\n        /* \"#utility.yul\":4715:4728   */\n      dup2\n      mload\n        /* \"#utility.yul\":4708:4729   */\n      iszero\n        /* \"#utility.yul\":4701:4730   */\n      iszero\n        /* \"#utility.yul\":4689:4731   */\n      dup8\n      mstore\n        /* \"#utility.yul\":4751:4763   */\n      swap6\n      dup3\n      add\n      swap6\n        /* \"#utility.yul\":4786:4801   */\n      swap1\n      dup3\n      add\n      swap1\n        /* \"#utility.yul\":4662:4663   */\n      0x01\n        /* \"#utility.yul\":4655:4664   */\n      add\n        /* \"#utility.yul\":4626:4811   */\n      jump(tag_664)\n        /* \"#utility.yul\":4841:7262   */\n    tag_21:\n        /* \"#utility.yul\":5858:5862   */\n      0x00\n        /* \"#utility.yul\":5887:5890   */\n      0x0160\n        /* \"#utility.yul\":5917:5919   */\n      dup1\n        /* \"#utility.yul\":5906:5915   */\n      dup4\n        /* \"#utility.yul\":5899:5920   */\n      mstore\n        /* \"#utility.yul\":5943:5999   */\n      tag_668\n        /* \"#utility.yul\":5995:5997   */\n      dup2\n        /* \"#utility.yul\":5984:5993   */\n      dup5\n        /* \"#utility.yul\":5980:5998   */\n      add\n        /* \"#utility.yul\":5972:5978   */\n      dup16\n        /* \"#utility.yul\":5943:5999   */\n      tag_624\n      jump\t// in\n    tag_668:\n        /* \"#utility.yul\":5929:5999   */\n      swap1\n      pop\n        /* \"#utility.yul\":6047:6056   */\n      dup3\n        /* \"#utility.yul\":6039:6045   */\n      dup2\n        /* \"#utility.yul\":6035:6057   */\n      sub\n        /* \"#utility.yul\":6030:6032   */\n      0x20\n        /* \"#utility.yul\":6019:6028   */\n      dup5\n        /* \"#utility.yul\":6015:6033   */\n      add\n        /* \"#utility.yul\":6008:6058   */\n      mstore\n        /* \"#utility.yul\":6081:6125   */\n      tag_669\n        /* \"#utility.yul\":6118:6124   */\n      dup2\n        /* \"#utility.yul\":6110:6116   */\n      dup15\n        /* \"#utility.yul\":6081:6125   */\n      tag_624\n      jump\t// in\n    tag_669:\n        /* \"#utility.yul\":6067:6125   */\n      swap1\n      pop\n        /* \"#utility.yul\":6173:6182   */\n      dup3\n        /* \"#utility.yul\":6165:6171   */\n      dup2\n        /* \"#utility.yul\":6161:6183   */\n      sub\n        /* \"#utility.yul\":6156:6158   */\n      0x40\n        /* \"#utility.yul\":6145:6154   */\n      dup5\n        /* \"#utility.yul\":6141:6159   */\n      add\n        /* \"#utility.yul\":6134:6184   */\n      mstore\n        /* \"#utility.yul\":6207:6250   */\n      tag_670\n        /* \"#utility.yul\":6243:6249   */\n      dup2\n        /* \"#utility.yul\":6235:6241   */\n      dup14\n        /* \"#utility.yul\":6207:6250   */\n      tag_626\n      jump\t// in\n    tag_670:\n        /* \"#utility.yul\":6193:6250   */\n      swap1\n      pop\n        /* \"#utility.yul\":6298:6307   */\n      dup3\n        /* \"#utility.yul\":6290:6296   */\n      dup2\n        /* \"#utility.yul\":6286:6308   */\n      sub\n        /* \"#utility.yul\":6281:6283   */\n      0x60\n        /* \"#utility.yul\":6270:6279   */\n      dup5\n        /* \"#utility.yul\":6266:6284   */\n      add\n        /* \"#utility.yul\":6259:6309   */\n      mstore\n        /* \"#utility.yul\":6332:6375   */\n      tag_671\n        /* \"#utility.yul\":6368:6374   */\n      dup2\n        /* \"#utility.yul\":6360:6366   */\n      dup13\n        /* \"#utility.yul\":6332:6375   */\n      tag_626\n      jump\t// in\n    tag_671:\n        /* \"#utility.yul\":6318:6375   */\n      swap1\n      pop\n        /* \"#utility.yul\":6424:6433   */\n      dup3\n        /* \"#utility.yul\":6416:6422   */\n      dup2\n        /* \"#utility.yul\":6412:6434   */\n      sub\n        /* \"#utility.yul\":6406:6409   */\n      0x80\n        /* \"#utility.yul\":6395:6404   */\n      dup5\n        /* \"#utility.yul\":6391:6410   */\n      add\n        /* \"#utility.yul\":6384:6435   */\n      mstore\n        /* \"#utility.yul\":6458:6502   */\n      tag_672\n        /* \"#utility.yul\":6495:6501   */\n      dup2\n        /* \"#utility.yul\":6487:6493   */\n      dup12\n        /* \"#utility.yul\":6458:6502   */\n      tag_627\n      jump\t// in\n    tag_672:\n        /* \"#utility.yul\":6444:6502   */\n      swap1\n      pop\n        /* \"#utility.yul\":6551:6560   */\n      dup3\n        /* \"#utility.yul\":6543:6549   */\n      dup2\n        /* \"#utility.yul\":6539:6561   */\n      sub\n        /* \"#utility.yul\":6533:6536   */\n      0xa0\n        /* \"#utility.yul\":6522:6531   */\n      dup5\n        /* \"#utility.yul\":6518:6537   */\n      add\n        /* \"#utility.yul\":6511:6562   */\n      mstore\n        /* \"#utility.yul\":6585:6626   */\n      tag_673\n        /* \"#utility.yul\":6619:6625   */\n      dup2\n        /* \"#utility.yul\":6611:6617   */\n      dup11\n        /* \"#utility.yul\":6585:6626   */\n      tag_628\n      jump\t// in\n    tag_673:\n        /* \"#utility.yul\":6571:6626   */\n      swap1\n      pop\n        /* \"#utility.yul\":6675:6684   */\n      dup3\n        /* \"#utility.yul\":6667:6673   */\n      dup2\n        /* \"#utility.yul\":6663:6685   */\n      sub\n        /* \"#utility.yul\":6657:6660   */\n      0xc0\n        /* \"#utility.yul\":6646:6655   */\n      dup5\n        /* \"#utility.yul\":6642:6661   */\n      add\n        /* \"#utility.yul\":6635:6686   */\n      mstore\n        /* \"#utility.yul\":6709:6752   */\n      tag_674\n        /* \"#utility.yul\":6745:6751   */\n      dup2\n        /* \"#utility.yul\":6737:6743   */\n      dup10\n        /* \"#utility.yul\":6709:6752   */\n      tag_626\n      jump\t// in\n    tag_674:\n        /* \"#utility.yul\":6695:6752   */\n      swap1\n      pop\n        /* \"#utility.yul\":6801:6810   */\n      dup3\n        /* \"#utility.yul\":6793:6799   */\n      dup2\n        /* \"#utility.yul\":6789:6811   */\n      sub\n        /* \"#utility.yul\":6783:6786   */\n      0xe0\n        /* \"#utility.yul\":6772:6781   */\n      dup5\n        /* \"#utility.yul\":6768:6787   */\n      add\n        /* \"#utility.yul\":6761:6812   */\n      mstore\n        /* \"#utility.yul\":6835:6878   */\n      tag_675\n        /* \"#utility.yul\":6871:6877   */\n      dup2\n        /* \"#utility.yul\":6863:6869   */\n      dup9\n        /* \"#utility.yul\":6835:6878   */\n      tag_626\n      jump\t// in\n    tag_675:\n        /* \"#utility.yul\":6821:6878   */\n      swap1\n      pop\n        /* \"#utility.yul\":6927:6936   */\n      dup3\n        /* \"#utility.yul\":6919:6925   */\n      dup2\n        /* \"#utility.yul\":6915:6937   */\n      sub\n        /* \"#utility.yul\":6909:6912   */\n      0x0100\n        /* \"#utility.yul\":6898:6907   */\n      dup5\n        /* \"#utility.yul\":6894:6913   */\n      add\n        /* \"#utility.yul\":6887:6938   */\n      mstore\n        /* \"#utility.yul\":6961:7004   */\n      tag_676\n        /* \"#utility.yul\":6997:7003   */\n      dup2\n        /* \"#utility.yul\":6989:6995   */\n      dup8\n        /* \"#utility.yul\":6961:7004   */\n      tag_626\n      jump\t// in\n    tag_676:\n        /* \"#utility.yul\":6947:7004   */\n      swap1\n      pop\n        /* \"#utility.yul\":7053:7062   */\n      dup3\n        /* \"#utility.yul\":7045:7051   */\n      dup2\n        /* \"#utility.yul\":7041:7063   */\n      sub\n        /* \"#utility.yul\":7035:7038   */\n      0x0120\n        /* \"#utility.yul\":7024:7033   */\n      dup5\n        /* \"#utility.yul\":7020:7039   */\n      add\n        /* \"#utility.yul\":7013:7064   */\n      mstore\n        /* \"#utility.yul\":7088:7132   */\n      tag_677\n        /* \"#utility.yul\":7125:7131   */\n      dup2\n        /* \"#utility.yul\":7117:7123   */\n      dup7\n        /* \"#utility.yul\":7088:7132   */\n      tag_627\n      jump\t// in\n    tag_677:\n        /* \"#utility.yul\":7073:7132   */\n      swap1\n      pop\n        /* \"#utility.yul\":7182:7191   */\n      dup3\n        /* \"#utility.yul\":7173:7180   */\n      dup2\n        /* \"#utility.yul\":7169:7192   */\n      sub\n        /* \"#utility.yul\":7163:7166   */\n      0x0140\n        /* \"#utility.yul\":7152:7161   */\n      dup5\n        /* \"#utility.yul\":7148:7167   */\n      add\n        /* \"#utility.yul\":7141:7193   */\n      mstore\n        /* \"#utility.yul\":7210:7256   */\n      tag_678\n        /* \"#utility.yul\":7248:7255   */\n      dup2\n        /* \"#utility.yul\":7239:7246   */\n      dup6\n        /* \"#utility.yul\":7210:7256   */\n      tag_627\n      jump\t// in\n    tag_678:\n        /* \"#utility.yul\":7202:7256   */\n      swap15\n        /* \"#utility.yul\":4841:7262   */\n      swap14\n      pop\n      pop\n      pop\n      pop\n      pop\n      pop\n      pop\n      pop\n      pop\n      pop\n      pop\n      pop\n      pop\n      pop\n      jump\t// out\n        /* \"#utility.yul\":7267:9572   */\n    tag_30:\n        /* \"#utility.yul\":7860:7863   */\n      0xa0\n        /* \"#utility.yul\":7849:7858   */\n      dup2\n        /* \"#utility.yul\":7842:7864   */\n      mstore\n        /* \"#utility.yul\":7823:7827   */\n      0x00\n        /* \"#utility.yul\":7887:7944   */\n      tag_680\n        /* \"#utility.yul\":7939:7942   */\n      0xa0\n        /* \"#utility.yul\":7928:7937   */\n      dup4\n        /* \"#utility.yul\":7924:7943   */\n      add\n        /* \"#utility.yul\":7916:7922   */\n      dup9\n        /* \"#utility.yul\":7887:7944   */\n      tag_624\n      jump\t// in\n    tag_680:\n        /* \"#utility.yul\":7963:7965   */\n      0x20\n        /* \"#utility.yul\":8013:8022   */\n      dup4\n        /* \"#utility.yul\":8005:8011   */\n      dup3\n        /* \"#utility.yul\":8001:8023   */\n      sub\n        /* \"#utility.yul\":7996:7998   */\n      dup2\n        /* \"#utility.yul\":7985:7994   */\n      dup6\n        /* \"#utility.yul\":7981:7999   */\n      add\n        /* \"#utility.yul\":7974:8024   */\n      mstore\n        /* \"#utility.yul\":8047:8091   */\n      tag_681\n        /* \"#utility.yul\":8084:8090   */\n      dup3\n        /* \"#utility.yul\":8076:8082   */\n      dup10\n        /* \"#utility.yul\":8047:8091   */\n      tag_624\n      jump\t// in\n    tag_681:\n        /* \"#utility.yul\":8033:8091   */\n      swap2\n      pop\n        /* \"#utility.yul\":8110:8112   */\n      0x40\n        /* \"#utility.yul\":8160:8169   */\n      dup5\n        /* \"#utility.yul\":8152:8158   */\n      dup4\n        /* \"#utility.yul\":8148:8170   */\n      sub\n        /* \"#utility.yul\":8143:8145   */\n      dup2\n        /* \"#utility.yul\":8132:8141   */\n      dup7\n        /* \"#utility.yul\":8128:8146   */\n      add\n        /* \"#utility.yul\":8121:8171   */\n      mstore\n        /* \"#utility.yul\":8194:8237   */\n      tag_682\n        /* \"#utility.yul\":8230:8236   */\n      dup4\n        /* \"#utility.yul\":8222:8228   */\n      dup10\n        /* \"#utility.yul\":8194:8237   */\n      tag_626\n      jump\t// in\n    tag_682:\n        /* \"#utility.yul\":8180:8237   */\n      swap3\n      pop\n        /* \"#utility.yul\":8285:8294   */\n      dup5\n        /* \"#utility.yul\":8277:8283   */\n      dup4\n        /* \"#utility.yul\":8273:8295   */\n      sub\n        /* \"#utility.yul\":8268:8270   */\n      0x60\n        /* \"#utility.yul\":8257:8266   */\n      dup7\n        /* \"#utility.yul\":8253:8271   */\n      add\n        /* \"#utility.yul\":8246:8296   */\n      mstore\n        /* \"#utility.yul\":8319:8362   */\n      tag_683\n        /* \"#utility.yul\":8355:8361   */\n      dup4\n        /* \"#utility.yul\":8347:8353   */\n      dup9\n        /* \"#utility.yul\":8319:8362   */\n      tag_626\n      jump\t// in\n    tag_683:\n        /* \"#utility.yul\":8305:8362   */\n      swap3\n      pop\n        /* \"#utility.yul\":8411:8420   */\n      dup5\n        /* \"#utility.yul\":8403:8409   */\n      dup4\n        /* \"#utility.yul\":8399:8421   */\n      sub\n        /* \"#utility.yul\":8393:8396   */\n      0x80\n        /* \"#utility.yul\":8382:8391   */\n      dup7\n        /* \"#utility.yul\":8378:8397   */\n      add\n        /* \"#utility.yul\":8371:8422   */\n      mstore\n        /* \"#utility.yul\":8442:8448   */\n      dup3\n        /* \"#utility.yul\":8477:8483   */\n      dup7\n        /* \"#utility.yul\":8471:8484   */\n      mload\n        /* \"#utility.yul\":8508:8514   */\n      dup1\n        /* \"#utility.yul\":8500:8506   */\n      dup6\n        /* \"#utility.yul\":8493:8515   */\n      mstore\n        /* \"#utility.yul\":8543:8545   */\n      dup4\n        /* \"#utility.yul\":8535:8541   */\n      dup6\n        /* \"#utility.yul\":8531:8546   */\n      add\n        /* \"#utility.yul\":8524:8546   */\n      swap2\n      pop\n        /* \"#utility.yul\":8602:8604   */\n      dup4\n        /* \"#utility.yul\":8592:8598   */\n      dup2\n        /* \"#utility.yul\":8589:8590   */\n      0x05\n        /* \"#utility.yul\":8585:8599   */\n      shl\n        /* \"#utility.yul\":8577:8583   */\n      dup7\n        /* \"#utility.yul\":8573:8600   */\n      add\n        /* \"#utility.yul\":8569:8605   */\n      add\n        /* \"#utility.yul\":8640:8642   */\n      dup5\n        /* \"#utility.yul\":8632:8638   */\n      dup10\n        /* \"#utility.yul\":8628:8643   */\n      add\n        /* \"#utility.yul\":8661:8662   */\n      0x00\n        /* \"#utility.yul\":8682:8683   */\n      dup1\n        /* \"#utility.yul\":8692:9543   */\n    tag_684:\n        /* \"#utility.yul\":8708:8714   */\n      dup5\n        /* \"#utility.yul\":8703:8706   */\n      dup2\n        /* \"#utility.yul\":8700:8715   */\n      lt\n        /* \"#utility.yul\":8692:9543   */\n      iszero\n      tag_686\n      jumpi\n        /* \"#utility.yul\":8777:8796   */\n      dup9\n      dup5\n      sub\n      not(0x1f)\n        /* \"#utility.yul\":8773:8806   */\n      add\n        /* \"#utility.yul\":8761:8807   */\n      dup7\n      mstore\n        /* \"#utility.yul\":8830:8843   */\n      dup3\n      mload\n        /* \"#utility.yul\":8918:8927   */\n      mload\n        /* \"#utility.yul\":8940:8958   */\n      dup9\n      dup6\n      mstore\n        /* \"#utility.yul\":9019:9038   */\n      dup1\n      mload\n        /* \"#utility.yul\":8870:8885   */\n      dup10\n      dup7\n      add\n        /* \"#utility.yul\":9051:9075   */\n      dup2\n      swap1\n      mstore\n        /* \"#utility.yul\":9141:9162   */\n      swap1\n      dup10\n      add\n      swap1\n        /* \"#utility.yul\":9186:9187   */\n      dup4\n      swap1\n        /* \"#utility.yul\":9097:9112   */\n      dup10\n      dup8\n      add\n      swap1\n        /* \"#utility.yul\":9200:9435   */\n    tag_687:\n        /* \"#utility.yul\":9216:9224   */\n      dup1\n        /* \"#utility.yul\":9211:9214   */\n      dup4\n        /* \"#utility.yul\":9208:9225   */\n      lt\n        /* \"#utility.yul\":9200:9435   */\n      iszero\n      tag_689\n      jumpi\n        /* \"#utility.yul\":9297:9312   */\n      dup4\n      mload\n      sub(shl(0xa0, 0x01), 0x01)\n        /* \"#utility.yul\":9293:9334   */\n      and\n        /* \"#utility.yul\":9279:9335   */\n      dup3\n      mstore\n        /* \"#utility.yul\":9404:9421   */\n      swap3\n      dup12\n      add\n      swap3\n        /* \"#utility.yul\":9331:9332   */\n      0x01\n        /* \"#utility.yul\":9235:9246   */\n      swap3\n      swap1\n      swap3\n      add\n      swap2\n        /* \"#utility.yul\":9361:9375   */\n      swap1\n      dup12\n      add\n      swap1\n        /* \"#utility.yul\":9200:9435   */\n      jump(tag_687)\n    tag_689:\n      pop\n        /* \"#utility.yul\":9521:9533   */\n      swap8\n      dup11\n      add\n      swap8\n        /* \"#utility.yul\":9458:9463   */\n      swap6\n      pop\n      pop\n      pop\n        /* \"#utility.yul\":9486:9501   */\n      swap2\n      dup8\n      add\n      swap2\n        /* \"#utility.yul\":8734:8735   */\n      0x01\n        /* \"#utility.yul\":8725:8736   */\n      add\n        /* \"#utility.yul\":8692:9543   */\n      jump(tag_684)\n    tag_686:\n      pop\n        /* \"#utility.yul\":9560:9566   */\n      swap2\n      swap15\n        /* \"#utility.yul\":7267:9572   */\n      swap14\n      pop\n      pop\n      pop\n      pop\n      pop\n      pop\n      pop\n      pop\n      pop\n      pop\n      pop\n      pop\n      pop\n      pop\n      jump\t// out\n        /* \"#utility.yul\":9577:9960   */\n    tag_33:\n        /* \"#utility.yul\":9654:9660   */\n      0x00\n        /* \"#utility.yul\":9662:9668   */\n      dup1\n        /* \"#utility.yul\":9670:9676   */\n      0x00\n        /* \"#utility.yul\":9723:9725   */\n      0x60\n        /* \"#utility.yul\":9711:9720   */\n      dup5\n        /* \"#utility.yul\":9702:9709   */\n      dup7\n        /* \"#utility.yul\":9698:9721   */\n      sub\n        /* \"#utility.yul\":9694:9726   */\n      slt\n        /* \"#utility.yul\":9691:9743   */\n      iszero\n      tag_691\n      jumpi\n        /* \"#utility.yul\":9739:9740   */\n      0x00\n        /* \"#utility.yul\":9736:9737   */\n      dup1\n        /* \"#utility.yul\":9729:9741   */\n      revert\n        /* \"#utility.yul\":9691:9743   */\n    tag_691:\n        /* \"#utility.yul\":9778:9787   */\n      dup4\n        /* \"#utility.yul\":9765:9788   */\n      calldataload\n        /* \"#utility.yul\":9797:9828   */\n      tag_692\n        /* \"#utility.yul\":9822:9827   */\n      dup2\n        /* \"#utility.yul\":9797:9828   */\n      tag_623\n      jump\t// in\n    tag_692:\n        /* \"#utility.yul\":9847:9852   */\n      swap6\n        /* \"#utility.yul\":9899:9901   */\n      0x20\n        /* \"#utility.yul\":9884:9902   */\n      dup6\n      add\n        /* \"#utility.yul\":9871:9903   */\n      calldataload\n      swap6\n      pop\n        /* \"#utility.yul\":9950:9952   */\n      0x40\n        /* \"#utility.yul\":9935:9953   */\n      swap1\n      swap5\n      add\n        /* \"#utility.yul\":9922:9954   */\n      calldataload\n      swap4\n        /* \"#utility.yul\":9577:9960   */\n      swap3\n      pop\n      pop\n      pop\n      jump\t// out\n        /* \"#utility.yul\":9965:10705   */\n    tag_38:\n        /* \"#utility.yul\":10060:10066   */\n      0x00\n        /* \"#utility.yul\":10068:10074   */\n      dup1\n        /* \"#utility.yul\":10076:10082   */\n      0x00\n        /* \"#utility.yul\":10084:10090   */\n      dup1\n        /* \"#utility.yul\":10092:10098   */\n      0x00\n        /* \"#utility.yul\":10145:10148   */\n      0xa0\n        /* \"#utility.yul\":10133:10142   */\n      dup7\n        /* \"#utility.yul\":10124:10131   */\n      dup9\n        /* \"#utility.yul\":10120:10143   */\n      sub\n        /* \"#utility.yul\":10116:10149   */\n      slt\n        /* \"#utility.yul\":10113:10166   */\n      iszero\n      tag_694\n      jumpi\n        /* \"#utility.yul\":10162:10163   */\n      0x00\n        /* \"#utility.yul\":10159:10160   */\n      dup1\n        /* \"#utility.yul\":10152:10164   */\n      revert\n        /* \"#utility.yul\":10113:10166   */\n    tag_694:\n        /* \"#utility.yul\":10198:10207   */\n      dup6\n        /* \"#utility.yul\":10185:10208   */\n      calldataload\n        /* \"#utility.yul\":10175:10208   */\n      swap5\n      pop\n        /* \"#utility.yul\":10258:10260   */\n      0x20\n        /* \"#utility.yul\":10247:10256   */\n      dup7\n        /* \"#utility.yul\":10243:10261   */\n      add\n        /* \"#utility.yul\":10230:10262   */\n      calldataload\n        /* \"#utility.yul\":10271:10302   */\n      tag_695\n        /* \"#utility.yul\":10296:10301   */\n      dup2\n        /* \"#utility.yul\":10271:10302   */\n      tag_623\n      jump\t// in\n    tag_695:\n        /* \"#utility.yul\":10321:10326   */\n      swap4\n      pop\n        /* \"#utility.yul\":10378:10380   */\n      0x40\n        /* \"#utility.yul\":10363:10381   */\n      dup7\n      add\n        /* \"#utility.yul\":10350:10382   */\n      calldataload\n        /* \"#utility.yul\":10391:10424   */\n      tag_696\n        /* \"#utility.yul\":10350:10382   */\n      dup2\n        /* \"#utility.yul\":10391:10424   */\n      tag_623\n      jump\t// in\n    tag_696:\n        /* \"#utility.yul\":10443:10450   */\n      swap3\n      pop\n        /* \"#utility.yul\":10502:10504   */\n      0x60\n        /* \"#utility.yul\":10487:10505   */\n      dup7\n      add\n        /* \"#utility.yul\":10474:10506   */\n      calldataload\n        /* \"#utility.yul\":10515:10548   */\n      tag_697\n        /* \"#utility.yul\":10474:10506   */\n      dup2\n        /* \"#utility.yul\":10515:10548   */\n      tag_623\n      jump\t// in\n    tag_697:\n        /* \"#utility.yul\":10567:10574   */\n      swap2\n      pop\n        /* \"#utility.yul\":10626:10629   */\n      0x80\n        /* \"#utility.yul\":10611:10630   */\n      dup7\n      add\n        /* \"#utility.yul\":10598:10631   */\n      calldataload\n        /* \"#utility.yul\":10640:10673   */\n      tag_698\n        /* \"#utility.yul\":10598:10631   */\n      dup2\n        /* \"#utility.yul\":10640:10673   */\n      tag_623\n      jump\t// in\n    tag_698:\n        /* \"#utility.yul\":10692:10699   */\n      dup1\n        /* \"#utility.yul\":10682:10699   */\n      swap2\n      pop\n      pop\n        /* \"#utility.yul\":9965:10705   */\n      swap3\n      swap6\n      pop\n      swap3\n      swap6\n      swap1\n      swap4\n      pop\n      jump\t// out\n        /* \"#utility.yul\":11250:12564   */\n    tag_46:\n        /* \"#utility.yul\":11853:11856   */\n      0xc0\n        /* \"#utility.yul\":11842:11851   */\n      dup2\n        /* \"#utility.yul\":11835:11857   */\n      mstore\n        /* \"#utility.yul\":11816:11820   */\n      0x00\n        /* \"#utility.yul\":11880:11937   */\n      tag_701\n        /* \"#utility.yul\":11932:11935   */\n      0xc0\n        /* \"#utility.yul\":11921:11930   */\n      dup4\n        /* \"#utility.yul\":11917:11936   */\n      add\n        /* \"#utility.yul\":11909:11915   */\n      dup10\n        /* \"#utility.yul\":11880:11937   */\n      tag_624\n      jump\t// in\n    tag_701:\n        /* \"#utility.yul\":11985:11994   */\n      dup3\n        /* \"#utility.yul\":11977:11983   */\n      dup2\n        /* \"#utility.yul\":11973:11995   */\n      sub\n        /* \"#utility.yul\":11968:11970   */\n      0x20\n        /* \"#utility.yul\":11957:11966   */\n      dup5\n        /* \"#utility.yul\":11953:11971   */\n      add\n        /* \"#utility.yul\":11946:11996   */\n      mstore\n        /* \"#utility.yul\":12019:12063   */\n      tag_702\n        /* \"#utility.yul\":12056:12062   */\n      dup2\n        /* \"#utility.yul\":12048:12054   */\n      dup10\n        /* \"#utility.yul\":12019:12063   */\n      tag_624\n      jump\t// in\n    tag_702:\n        /* \"#utility.yul\":12005:12063   */\n      swap1\n      pop\n        /* \"#utility.yul\":12111:12120   */\n      dup3\n        /* \"#utility.yul\":12103:12109   */\n      dup2\n        /* \"#utility.yul\":12099:12121   */\n      sub\n        /* \"#utility.yul\":12094:12096   */\n      0x40\n        /* \"#utility.yul\":12083:12092   */\n      dup5\n        /* \"#utility.yul\":12079:12097   */\n      add\n        /* \"#utility.yul\":12072:12122   */\n      mstore\n        /* \"#utility.yul\":12145:12188   */\n      tag_703\n        /* \"#utility.yul\":12181:12187   */\n      dup2\n        /* \"#utility.yul\":12173:12179   */\n      dup9\n        /* \"#utility.yul\":12145:12188   */\n      tag_626\n      jump\t// in\n    tag_703:\n        /* \"#utility.yul\":12131:12188   */\n      swap1\n      pop\n        /* \"#utility.yul\":12236:12245   */\n      dup3\n        /* \"#utility.yul\":12228:12234   */\n      dup2\n        /* \"#utility.yul\":12224:12246   */\n      sub\n        /* \"#utility.yul\":12219:12221   */\n      0x60\n        /* \"#utility.yul\":12208:12217   */\n      dup5\n        /* \"#utility.yul\":12204:12222   */\n      add\n        /* \"#utility.yul\":12197:12247   */\n      mstore\n        /* \"#utility.yul\":12270:12313   */\n      tag_704\n        /* \"#utility.yul\":12306:12312   */\n      dup2\n        /* \"#utility.yul\":12298:12304   */\n      dup8\n        /* \"#utility.yul\":12270:12313   */\n      tag_626\n      jump\t// in\n    tag_704:\n        /* \"#utility.yul\":12256:12313   */\n      swap1\n      pop\n        /* \"#utility.yul\":12362:12371   */\n      dup3\n        /* \"#utility.yul\":12354:12360   */\n      dup2\n        /* \"#utility.yul\":12350:12372   */\n      sub\n        /* \"#utility.yul\":12344:12347   */\n      0x80\n        /* \"#utility.yul\":12333:12342   */\n      dup5\n        /* \"#utility.yul\":12329:12348   */\n      add\n        /* \"#utility.yul\":12322:12373   */\n      mstore\n        /* \"#utility.yul\":12396:12440   */\n      tag_705\n        /* \"#utility.yul\":12433:12439   */\n      dup2\n        /* \"#utility.yul\":12425:12431   */\n      dup7\n        /* \"#utility.yul\":12396:12440   */\n      tag_627\n      jump\t// in\n    tag_705:\n        /* \"#utility.yul\":12382:12440   */\n      swap1\n      pop\n        /* \"#utility.yul\":12489:12498   */\n      dup3\n        /* \"#utility.yul\":12481:12487   */\n      dup2\n        /* \"#utility.yul\":12477:12499   */\n      sub\n        /* \"#utility.yul\":12471:12474   */\n      0xa0\n        /* \"#utility.yul\":12460:12469   */\n      dup5\n        /* \"#utility.yul\":12456:12475   */\n      add\n        /* \"#utility.yul\":12449:12500   */\n      mstore\n        /* \"#utility.yul\":12517:12558   */\n      tag_706\n        /* \"#utility.yul\":12551:12557   */\n      dup2\n        /* \"#utility.yul\":12543:12549   */\n      dup6\n        /* \"#utility.yul\":12517:12558   */\n      tag_628\n      jump\t// in\n    tag_706:\n        /* \"#utility.yul\":12509:12558   */\n      swap10\n        /* \"#utility.yul\":11250:12564   */\n      swap9\n      pop\n      pop\n      pop\n      pop\n      pop\n      pop\n      pop\n      pop\n      pop\n      jump\t// out\n        /* \"#utility.yul\":12569:12753   */\n    tag_51:\n        /* \"#utility.yul\":12639:12645   */\n      0x00\n        /* \"#utility.yul\":12692:12694   */\n      0x20\n        /* \"#utility.yul\":12680:12689   */\n      dup3\n        /* \"#utility.yul\":12671:12678   */\n      dup5\n        /* \"#utility.yul\":12667:12690   */\n      sub\n        /* \"#utility.yul\":12663:12695   */\n      slt\n        /* \"#utility.yul\":12660:12712   */\n      iszero\n      tag_708\n      jumpi\n        /* \"#utility.yul\":12708:12709   */\n      0x00\n        /* \"#utility.yul\":12705:12706   */\n      dup1\n        /* \"#utility.yul\":12698:12710   */\n      revert\n        /* \"#utility.yul\":12660:12712   */\n    tag_708:\n      pop\n        /* \"#utility.yul\":12731:12747   */\n      mload\n      swap2\n        /* \"#utility.yul\":12569:12753   */\n      swap1\n      pop\n      jump\t// out\n        /* \"#utility.yul\":12758:12885   */\n    tag_54:\n        /* \"#utility.yul\":12819:12829   */\n      0x4e487b71\n        /* \"#utility.yul\":12814:12817   */\n      0xe0\n        /* \"#utility.yul\":12810:12830   */\n      shl\n        /* \"#utility.yul\":12807:12808   */\n      0x00\n        /* \"#utility.yul\":12800:12831   */\n      mstore\n        /* \"#utility.yul\":12850:12854   */\n      0x41\n        /* \"#utility.yul\":12847:12848   */\n      0x04\n        /* \"#utility.yul\":12840:12855   */\n      mstore\n        /* \"#utility.yul\":12874:12878   */\n      0x24\n        /* \"#utility.yul\":12871:12872   */\n      0x00\n        /* \"#utility.yul\":12864:12879   */\n      revert\n        /* \"#utility.yul\":13072:13323   */\n    tag_92:\n        /* \"#utility.yul\":13142:13148   */\n      0x00\n        /* \"#utility.yul\":13195:13197   */\n      0x20\n        /* \"#utility.yul\":13183:13192   */\n      dup3\n        /* \"#utility.yul\":13174:13181   */\n      dup5\n        /* \"#utility.yul\":13170:13193   */\n      sub\n        /* \"#utility.yul\":13166:13198   */\n      slt\n        /* \"#utility.yul\":13163:13215   */\n      iszero\n      tag_712\n      jumpi\n        /* \"#utility.yul\":13211:13212   */\n      0x00\n        /* \"#utility.yul\":13208:13209   */\n      dup1\n        /* \"#utility.yul\":13201:13213   */\n      revert\n        /* \"#utility.yul\":13163:13215   */\n    tag_712:\n        /* \"#utility.yul\":13243:13252   */\n      dup2\n        /* \"#utility.yul\":13237:13253   */\n      mload\n        /* \"#utility.yul\":13262:13293   */\n      tag_635\n        /* \"#utility.yul\":13287:13292   */\n      dup2\n        /* \"#utility.yul\":13262:13293   */\n      tag_623\n      jump\t// in\n        /* \"#utility.yul\":13328:13455   */\n    tag_95:\n        /* \"#utility.yul\":13389:13399   */\n      0x4e487b71\n        /* \"#utility.yul\":13384:13387   */\n      0xe0\n        /* \"#utility.yul\":13380:13400   */\n      shl\n        /* \"#utility.yul\":13377:13378   */\n      0x00\n        /* \"#utility.yul\":13370:13401   */\n      mstore\n        /* \"#utility.yul\":13420:13424   */\n      0x32\n        /* \"#utility.yul\":13417:13418   */\n      0x04\n        /* \"#utility.yul\":13410:13425   */\n      mstore\n        /* \"#utility.yul\":13444:13448   */\n      0x24\n        /* \"#utility.yul\":13441:13442   */\n      0x00\n        /* \"#utility.yul\":13434:13449   */\n      revert\n        /* \"#utility.yul\":13460:14357   */\n    tag_108:\n        /* \"#utility.yul\":13540:13546   */\n      0x00\n        /* \"#utility.yul\":13593:13595   */\n      0x20\n        /* \"#utility.yul\":13581:13590   */\n      dup3\n        /* \"#utility.yul\":13572:13579   */\n      dup5\n        /* \"#utility.yul\":13568:13591   */\n      sub\n        /* \"#utility.yul\":13564:13596   */\n      slt\n        /* \"#utility.yul\":13561:13613   */\n      iszero\n      tag_716\n      jumpi\n        /* \"#utility.yul\":13609:13610   */\n      0x00\n        /* \"#utility.yul\":13606:13607   */\n      dup1\n        /* \"#utility.yul\":13599:13611   */\n      revert\n        /* \"#utility.yul\":13561:13613   */\n    tag_716:\n        /* \"#utility.yul\":13642:13651   */\n      dup2\n        /* \"#utility.yul\":13636:13652   */\n      mload\n      sub(shl(0x40, 0x01), 0x01)\n        /* \"#utility.yul\":13712:13714   */\n      dup1\n        /* \"#utility.yul\":13704:13710   */\n      dup3\n        /* \"#utility.yul\":13701:13715   */\n      gt\n        /* \"#utility.yul\":13698:13732   */\n      iszero\n      tag_717\n      jumpi\n        /* \"#utility.yul\":13728:13729   */\n      0x00\n        /* \"#utility.yul\":13725:13726   */\n      dup1\n        /* \"#utility.yul\":13718:13730   */\n      revert\n        /* \"#utility.yul\":13698:13732   */\n    tag_717:\n        /* \"#utility.yul\":13766:13772   */\n      dup2\n        /* \"#utility.yul\":13755:13764   */\n      dup5\n        /* \"#utility.yul\":13751:13773   */\n      add\n        /* \"#utility.yul\":13741:13773   */\n      swap2\n      pop\n        /* \"#utility.yul\":13811:13818   */\n      dup5\n        /* \"#utility.yul\":13804:13808   */\n      0x1f\n        /* \"#utility.yul\":13800:13802   */\n      dup4\n        /* \"#utility.yul\":13796:13809   */\n      add\n        /* \"#utility.yul\":13792:13819   */\n      slt\n        /* \"#utility.yul\":13782:13837   */\n      tag_718\n      jumpi\n        /* \"#utility.yul\":13833:13834   */\n      0x00\n        /* \"#utility.yul\":13830:13831   */\n      dup1\n        /* \"#utility.yul\":13823:13835   */\n      revert\n        /* \"#utility.yul\":13782:13837   */\n    tag_718:\n        /* \"#utility.yul\":13862:13864   */\n      dup2\n        /* \"#utility.yul\":13856:13865   */\n      mload\n        /* \"#utility.yul\":13884:13886   */\n      dup2\n        /* \"#utility.yul\":13880:13882   */\n      dup2\n        /* \"#utility.yul\":13877:13887   */\n      gt\n        /* \"#utility.yul\":13874:13910   */\n      iszero\n      tag_720\n      jumpi\n        /* \"#utility.yul\":13890:13908   */\n      tag_720\n      tag_54\n      jump\t// in\n    tag_720:\n        /* \"#utility.yul\":13965:13967   */\n      0x40\n        /* \"#utility.yul\":13959:13968   */\n      mload\n        /* \"#utility.yul\":13933:13935   */\n      0x1f\n        /* \"#utility.yul\":14019:14032   */\n      dup3\n      add\n      not(0x1f)\n        /* \"#utility.yul\":14015:14037   */\n      swap1\n      dup2\n      and\n        /* \"#utility.yul\":14039:14041   */\n      0x3f\n        /* \"#utility.yul\":14011:14042   */\n      add\n        /* \"#utility.yul\":14007:14047   */\n      and\n        /* \"#utility.yul\":13995:14048   */\n      dup2\n      add\n      swap1\n        /* \"#utility.yul\":14063:14081   */\n      dup4\n      dup3\n      gt\n        /* \"#utility.yul\":14083:14105   */\n      dup2\n      dup4\n      lt\n        /* \"#utility.yul\":14060:14106   */\n      or\n        /* \"#utility.yul\":14057:14129   */\n      iszero\n      tag_722\n      jumpi\n        /* \"#utility.yul\":14109:14127   */\n      tag_722\n      tag_54\n      jump\t// in\n    tag_722:\n        /* \"#utility.yul\":14149:14159   */\n      dup2\n        /* \"#utility.yul\":14145:14147   */\n      0x40\n        /* \"#utility.yul\":14138:14160   */\n      mstore\n        /* \"#utility.yul\":14184:14186   */\n      dup3\n        /* \"#utility.yul\":14176:14182   */\n      dup2\n        /* \"#utility.yul\":14169:14187   */\n      mstore\n        /* \"#utility.yul\":14224:14231   */\n      dup8\n        /* \"#utility.yul\":14219:14221   */\n      0x20\n        /* \"#utility.yul\":14214:14216   */\n      dup5\n        /* \"#utility.yul\":14210:14212   */\n      dup8\n        /* \"#utility.yul\":14206:14217   */\n      add\n        /* \"#utility.yul\":14202:14222   */\n      add\n        /* \"#utility.yul\":14199:14232   */\n      gt\n        /* \"#utility.yul\":14196:14249   */\n      iszero\n      tag_723\n      jumpi\n        /* \"#utility.yul\":14245:14246   */\n      0x00\n        /* \"#utility.yul\":14242:14243   */\n      dup1\n        /* \"#utility.yul\":14235:14247   */\n      revert\n        /* \"#utility.yul\":14196:14249   */\n    tag_723:\n        /* \"#utility.yul\":14258:14326   */\n      tag_724\n        /* \"#utility.yul\":14323:14325   */\n      dup4\n        /* \"#utility.yul\":14318:14320   */\n      0x20\n        /* \"#utility.yul\":14310:14316   */\n      dup4\n        /* \"#utility.yul\":14306:14321   */\n      add\n        /* \"#utility.yul\":14301:14303   */\n      0x20\n        /* \"#utility.yul\":14297:14299   */\n      dup9\n        /* \"#utility.yul\":14293:14304   */\n      add\n        /* \"#utility.yul\":14258:14326   */\n      tag_625\n      jump\t// in\n    tag_724:\n        /* \"#utility.yul\":14345:14351   */\n      swap8\n        /* \"#utility.yul\":13460:14357   */\n      swap7\n      pop\n      pop\n      pop\n      pop\n      pop\n      pop\n      pop\n      jump\t// out\n        /* \"#utility.yul\":14362:14635   */\n    tag_119:\n        /* \"#utility.yul\":14430:14436   */\n      0x00\n        /* \"#utility.yul\":14483:14485   */\n      0x20\n        /* \"#utility.yul\":14471:14480   */\n      dup3\n        /* \"#utility.yul\":14462:14469   */\n      dup5\n        /* \"#utility.yul\":14458:14481   */\n      sub\n        /* \"#utility.yul\":14454:14486   */\n      slt\n        /* \"#utility.yul\":14451:14503   */\n      iszero\n      tag_726\n      jumpi\n        /* \"#utility.yul\":14499:14500   */\n      0x00\n        /* \"#utility.yul\":14496:14497   */\n      dup1\n        /* \"#utility.yul\":14489:14501   */\n      revert\n        /* \"#utility.yul\":14451:14503   */\n    tag_726:\n        /* \"#utility.yul\":14531:14540   */\n      dup2\n        /* \"#utility.yul\":14525:14541   */\n      mload\n        /* \"#utility.yul\":14581:14585   */\n      0xff\n        /* \"#utility.yul\":14574:14579   */\n      dup2\n        /* \"#utility.yul\":14570:14586   */\n      and\n        /* \"#utility.yul\":14563:14568   */\n      dup2\n        /* \"#utility.yul\":14560:14587   */\n      eq\n        /* \"#utility.yul\":14550:14605   */\n      tag_635\n      jumpi\n        /* \"#utility.yul\":14601:14602   */\n      0x00\n        /* \"#utility.yul\":14598:14599   */\n      dup1\n        /* \"#utility.yul\":14591:14603   */\n      revert\n        /* \"#utility.yul\":14640:14767   */\n    tag_629:\n        /* \"#utility.yul\":14701:14711   */\n      0x4e487b71\n        /* \"#utility.yul\":14696:14699   */\n      0xe0\n        /* \"#utility.yul\":14692:14712   */\n      shl\n        /* \"#utility.yul\":14689:14690   */\n      0x00\n        /* \"#utility.yul\":14682:14713   */\n      mstore\n        /* \"#utility.yul\":14732:14736   */\n      0x11\n        /* \"#utility.yul\":14729:14730   */\n      0x04\n        /* \"#utility.yul\":14722:14737   */\n      mstore\n        /* \"#utility.yul\":14756:14760   */\n      0x24\n        /* \"#utility.yul\":14753:14754   */\n      0x00\n        /* \"#utility.yul\":14746:14761   */\n      revert\n        /* \"#utility.yul\":14772:14907   */\n    tag_147:\n        /* \"#utility.yul\":14811:14814   */\n      0x00\n        /* \"#utility.yul\":14832:14849   */\n      0x01\n      dup3\n      add\n        /* \"#utility.yul\":14829:14872   */\n      tag_731\n      jumpi\n        /* \"#utility.yul\":14852:14870   */\n      tag_731\n      tag_629\n      jump\t// in\n    tag_731:\n      pop\n        /* \"#utility.yul\":14899:14900   */\n      0x01\n        /* \"#utility.yul\":14888:14901   */\n      add\n      swap1\n        /* \"#utility.yul\":14772:14907   */\n      jump\t// out\n        /* \"#utility.yul\":14912:15189   */\n    tag_228:\n        /* \"#utility.yul\":14979:14985   */\n      0x00\n        /* \"#utility.yul\":15032:15034   */\n      0x20\n        /* \"#utility.yul\":15020:15029   */\n      dup3\n        /* \"#utility.yul\":15011:15018   */\n      dup5\n        /* \"#utility.yul\":15007:15030   */\n      sub\n        /* \"#utility.yul\":15003:15035   */\n      slt\n        /* \"#utility.yul\":15000:15052   */\n      iszero\n      tag_733\n      jumpi\n        /* \"#utility.yul\":15048:15049   */\n      0x00\n        /* \"#utility.yul\":15045:15046   */\n      dup1\n        /* \"#utility.yul\":15038:15050   */\n      revert\n        /* \"#utility.yul\":15000:15052   */\n    tag_733:\n        /* \"#utility.yul\":15080:15089   */\n      dup2\n        /* \"#utility.yul\":15074:15090   */\n      mload\n        /* \"#utility.yul\":15133:15138   */\n      dup1\n        /* \"#utility.yul\":15126:15139   */\n      iszero\n        /* \"#utility.yul\":15119:15140   */\n      iszero\n        /* \"#utility.yul\":15112:15117   */\n      dup2\n        /* \"#utility.yul\":15109:15141   */\n      eq\n        /* \"#utility.yul\":15099:15159   */\n      tag_635\n      jumpi\n        /* \"#utility.yul\":15155:15156   */\n      0x00\n        /* \"#utility.yul\":15152:15153   */\n      dup1\n        /* \"#utility.yul\":15145:15157   */\n      revert\n        /* \"#utility.yul\":15194:15629   */\n    tag_309:\n        /* \"#utility.yul\":15291:15297   */\n      0x00\n        /* \"#utility.yul\":15299:15305   */\n      dup1\n        /* \"#utility.yul\":15307:15313   */\n      0x00\n        /* \"#utility.yul\":15315:15321   */\n      dup1\n        /* \"#utility.yul\":15368:15371   */\n      0x80\n        /* \"#utility.yul\":15356:15365   */\n      dup6\n        /* \"#utility.yul\":15347:15354   */\n      dup8\n        /* \"#utility.yul\":15343:15366   */\n      sub\n        /* \"#utility.yul\":15339:15372   */\n      slt\n        /* \"#utility.yul\":15336:15389   */\n      iszero\n      tag_736\n      jumpi\n        /* \"#utility.yul\":15385:15386   */\n      0x00\n        /* \"#utility.yul\":15382:15383   */\n      dup1\n        /* \"#utility.yul\":15375:15387   */\n      revert\n        /* \"#utility.yul\":15336:15389   */\n    tag_736:\n        /* \"#utility.yul\":15417:15426   */\n      dup5\n        /* \"#utility.yul\":15411:15427   */\n      mload\n        /* \"#utility.yul\":15436:15467   */\n      tag_737\n        /* \"#utility.yul\":15461:15466   */\n      dup2\n        /* \"#utility.yul\":15436:15467   */\n      tag_623\n      jump\t// in\n    tag_737:\n        /* \"#utility.yul\":15531:15533   */\n      0x20\n        /* \"#utility.yul\":15516:15534   */\n      dup7\n      add\n        /* \"#utility.yul\":15510:15535   */\n      mload\n        /* \"#utility.yul\":15575:15577   */\n      0x40\n        /* \"#utility.yul\":15560:15578   */\n      dup8\n      add\n        /* \"#utility.yul\":15554:15579   */\n      mload\n        /* \"#utility.yul\":15619:15621   */\n      0x60\n        /* \"#utility.yul\":15604:15622   */\n      swap1\n      swap8\n      add\n        /* \"#utility.yul\":15598:15623   */\n      mload\n        /* \"#utility.yul\":15486:15491   */\n      swap2\n      swap9\n        /* \"#utility.yul\":15510:15535   */\n      swap1\n      swap8\n      pop\n        /* \"#utility.yul\":15598:15623   */\n      swap1\n      swap5\n      pop\n        /* \"#utility.yul\":15194:15629   */\n      swap3\n      pop\n      pop\n      pop\n      jump\t// out\n        /* \"#utility.yul\":15634:16131   */\n    tag_435:\n        /* \"#utility.yul\":15740:15746   */\n      0x00\n        /* \"#utility.yul\":15748:15754   */\n      dup1\n        /* \"#utility.yul\":15756:15762   */\n      0x00\n        /* \"#utility.yul\":15764:15770   */\n      dup1\n        /* \"#utility.yul\":15772:15778   */\n      0x00\n        /* \"#utility.yul\":15825:15828   */\n      0xa0\n        /* \"#utility.yul\":15813:15822   */\n      dup7\n        /* \"#utility.yul\":15804:15811   */\n      dup9\n        /* \"#utility.yul\":15800:15823   */\n      sub\n        /* \"#utility.yul\":15796:15829   */\n      slt\n        /* \"#utility.yul\":15793:15846   */\n      iszero\n      tag_739\n      jumpi\n        /* \"#utility.yul\":15842:15843   */\n      0x00\n        /* \"#utility.yul\":15839:15840   */\n      dup1\n        /* \"#utility.yul\":15832:15844   */\n      revert\n        /* \"#utility.yul\":15793:15846   */\n    tag_739:\n        /* \"#utility.yul\":15874:15883   */\n      dup6\n        /* \"#utility.yul\":15868:15884   */\n      mload\n        /* \"#utility.yul\":15893:15924   */\n      tag_740\n        /* \"#utility.yul\":15918:15923   */\n      dup2\n        /* \"#utility.yul\":15893:15924   */\n      tag_623\n      jump\t// in\n    tag_740:\n        /* \"#utility.yul\":15988:15990   */\n      0x20\n        /* \"#utility.yul\":15973:15991   */\n      dup8\n      add\n        /* \"#utility.yul\":15967:15992   */\n      mload\n        /* \"#utility.yul\":16032:16034   */\n      0x40\n        /* \"#utility.yul\":16017:16035   */\n      dup9\n      add\n        /* \"#utility.yul\":16011:16036   */\n      mload\n        /* \"#utility.yul\":16076:16078   */\n      0x60\n        /* \"#utility.yul\":16061:16079   */\n      dup10\n      add\n        /* \"#utility.yul\":16055:16080   */\n      mload\n        /* \"#utility.yul\":16120:16123   */\n      0x80\n        /* \"#utility.yul\":16105:16124   */\n      swap1\n      swap10\n      add\n        /* \"#utility.yul\":16099:16125   */\n      mload\n        /* \"#utility.yul\":15943:15948   */\n      swap3\n      swap11\n        /* \"#utility.yul\":15967:15992   */\n      swap2\n      swap10\n      pop\n        /* \"#utility.yul\":16011:16036   */\n      swap8\n        /* \"#utility.yul\":16055:16080   */\n      swap7\n      pop\n        /* \"#utility.yul\":16099:16125   */\n      swap1\n      swap5\n      pop\n        /* \"#utility.yul\":15634:16131   */\n      swap3\n      pop\n      pop\n      pop\n      jump\t// out\n        /* \"#utility.yul\":16136:16264   */\n    tag_444:\n        /* \"#utility.yul\":16203:16212   */\n      dup2\n      dup2\n      sub\n        /* \"#utility.yul\":16224:16235   */\n      dup2\n      dup2\n      gt\n        /* \"#utility.yul\":16221:16258   */\n      iszero\n      tag_743\n      jumpi\n        /* \"#utility.yul\":16238:16256   */\n      tag_743\n      tag_629\n      jump\t// in\n    tag_743:\n        /* \"#utility.yul\":16136:16264   */\n      swap3\n      swap2\n      pop\n      pop\n      jump\t// out\n        /* \"#utility.yul\":16269:16394   */\n    tag_480:\n        /* \"#utility.yul\":16334:16343   */\n      dup1\n      dup3\n      add\n        /* \"#utility.yul\":16355:16365   */\n      dup1\n      dup3\n      gt\n        /* \"#utility.yul\":16352:16388   */\n      iszero\n      tag_743\n      jumpi\n        /* \"#utility.yul\":16368:16386   */\n      tag_743\n      tag_629\n      jump\t// in\n\n    auxdata: 0xa26469706673582212202e7e2b94f79bdcc991f0a00cdb5b7233ffa01c391cbe8f542d470135794eda3d64736f6c63430008140033\n}\n",
				"bytecode": {
					"linkReferences": {},
					"object": "608060405234801561000f575f80fd5b50613aaf8061001d5f395ff3fe608060405234801561000f575f80fd5b506004361061007a575f3560e01c806374c1017b1161005857806374c1017b146100ec578063bb4b8ce214610110578063c7c7f92314610123578063e767f7ee14610163575f80fd5b806306bfa9381461007e57806315d7518e146100af5780631c9a4fd1146100d9575b5f80fd5b61009161008c366004613356565b610188565b6040516100a699989796959493929190613478565b60405180910390f35b6100c26100bd366004613356565b6109df565b6040516100a69b9a9998979695949392919061356c565b6100916100e7366004613356565b611411565b6100ff6100fa366004613356565b611cb9565b6040516100a695949392919061365c565b61009161011e366004613749565b6122fa565b61013661013136600461377b565b612af1565b604080519687526020870195909552938501929092526060840152608083015260a082015260c0016100a6565b610176610171366004613356565b612d84565b6040516100a6969594939291906137df565b60608060608060608060608060605f8a90505f816001600160a01b031663b9fb0fb76040518163ffffffff1660e01b8152600401602060405180830381865afa1580156101d7573d5f803e3d5ffd5b505050506040513d601f19601f820116820180604052508101906101fb9190613860565b9050806001600160401b0381111561021557610215613877565b60405190808252806020026020018201604052801561023e578160200160208202803683370190505b509a50806001600160401b0381111561025957610259613877565b604051908082528060200260200182016040528015610282578160200160208202803683370190505b509950806001600160401b0381111561029d5761029d613877565b6040519080825280602002602001820160405280156102d057816020015b60608152602001906001900390816102bb5790505b509850806001600160401b038111156102eb576102eb613877565b60405190808252806020026020018201604052801561031e57816020015b60608152602001906001900390816103095790505b509750806001600160401b0381111561033957610339613877565b604051908082528060200260200182016040528015610362578160200160208202803683370190505b509650806001600160401b0381111561037d5761037d613877565b6040519080825280602002602001820160405280156103a6578160200160208202803683370190505b509550806001600160401b038111156103c1576103c1613877565b6040519080825280602002602001820160405280156103f457816020015b60608152602001906001900390816103df5790505b509450806001600160401b0381111561040f5761040f613877565b60405190808252806020026020018201604052801561044257816020015b606081526020019060019003908161042d5790505b509350806001600160401b0381111561045d5761045d613877565b604051908082528060200260200182016040528015610486578160200160208202803683370190505b5092505f5b818110156109cf5760405163068bcd8d60e01b8152600481018290526001600160a01b0384169063068bcd8d90602401602060405180830381865afa1580156104d6573d5f803e3d5ffd5b505050506040513d601f19601f820116820180604052508101906104fa919061388b565b8c828151811061050c5761050c6138a6565b60200260200101906001600160a01b031690816001600160a01b0316815250508b818151811061053e5761053e6138a6565b60200260200101516001600160a01b031663cc7a262e6040518163ffffffff1660e01b8152600401602060405180830381865afa158015610581573d5f803e3d5ffd5b505050506040513d601f19601f820116820180604052508101906105a5919061388b565b8b82815181106105b7576105b76138a6565b60200260200101906001600160a01b031690816001600160a01b0316815250505f8b82815181106105ea576105ea6138a6565b60200260200101519050806001600160a01b03166306fdde036040518163ffffffff1660e01b81526004015f60405180830381865afa15801561062f573d5f803e3d5ffd5b505050506040513d5f823e601f3d908101601f1916820160405261065691908101906138ba565b8b8381518110610668576106686138a6565b6020026020010181905250806001600160a01b03166395d89b416040518163ffffffff1660e01b81526004015f60405180830381865afa1580156106ae573d5f803e3d5ffd5b505050506040513d5f823e601f3d908101601f191682016040526106d591908101906138ba565b8a83815181106106e7576106e76138a6565b6020026020010181905250806001600160a01b031663313ce5676040518163ffffffff1660e01b8152600401602060405180830381865afa15801561072e573d5f803e3d5ffd5b505050506040513d601f19601f820116820180604052508101906107529190613961565b60ff16898381518110610767576107676138a6565b6020026020010181815250508c8281518110610785576107856138a6565b60200260200101516001600160a01b031663f7c618c16040518163ffffffff1660e01b8152600401602060405180830381865afa1580156107c8573d5f803e3d5ffd5b505050506040513d601f19601f820116820180604052508101906107ec919061388b565b8883815181106107fe576107fe6138a6565b60200260200101906001600160a01b031690816001600160a01b0316815250505f888381518110610831576108316138a6565b60200260200101519050806001600160a01b03166306fdde036040518163ffffffff1660e01b81526004015f60405180830381865afa158015610876573d5f803e3d5ffd5b505050506040513d5f823e601f3d908101601f1916820160405261089d91908101906138ba565b8884815181106108af576108af6138a6565b6020026020010181905250806001600160a01b03166395d89b416040518163ffffffff1660e01b81526004015f60405180830381865afa1580156108f5573d5f803e3d5ffd5b505050506040513d5f823e601f3d908101601f1916820160405261091c91908101906138ba565b87848151811061092e5761092e6138a6565b6020026020010181905250806001600160a01b031663313ce5676040518163ffffffff1660e01b8152600401602060405180830381865afa158015610975573d5f803e3d5ffd5b505050506040513d601f19601f820116820180604052508101906109999190613961565b60ff168684815181106109ae576109ae6138a6565b602002602001018181525050505080806109c790613995565b91505061048b565b5050509193959799909294969850565b60608060608060608060608060608060605f8c6001600160a01b031663e8096d456040518163ffffffff1660e01b8152600401602060405180830381865afa158015610a2d573d5f803e3d5ffd5b505050506040513d601f19601f82011682018060405250810190610a519190613860565b9050806001600160401b03811115610a6b57610a6b613877565b604051908082528060200260200182016040528015610a94578160200160208202803683370190505b509b50806001600160401b03811115610aaf57610aaf613877565b604051908082528060200260200182016040528015610ad8578160200160208202803683370190505b509a50806001600160401b03811115610af357610af3613877565b604051908082528060200260200182016040528015610b2657816020015b6060815260200190600190039081610b115790505b509950806001600160401b03811115610b4157610b41613877565b604051908082528060200260200182016040528015610b7457816020015b6060815260200190600190039081610b5f5790505b509850806001600160401b03811115610b8f57610b8f613877565b604051908082528060200260200182016040528015610bb8578160200160208202803683370190505b509750806001600160401b03811115610bd357610bd3613877565b604051908082528060200260200182016040528015610bfc578160200160208202803683370190505b509650806001600160401b03811115610c1757610c17613877565b604051908082528060200260200182016040528015610c4a57816020015b6060815260200190600190039081610c355790505b509550806001600160401b03811115610c6557610c65613877565b604051908082528060200260200182016040528015610c9857816020015b6060815260200190600190039081610c835790505b509450806001600160401b03811115610cb357610cb3613877565b604051908082528060200260200182016040528015610ce657816020015b6060815260200190600190039081610cd15790505b509350806001600160401b03811115610d0157610d01613877565b604051908082528060200260200182016040528015610d2a578160200160208202803683370190505b509250806001600160401b03811115610d4557610d45613877565b604051908082528060200260200182016040528015610d6e578160200160208202803683370190505b5091505f5b8181101561140057604051636c7b6acb60e11b8152600481018290526001600160a01b038f169063d8f6d59690602401602060405180830381865afa158015610dbe573d5f803e3d5ffd5b505050506040513d601f19601f82011682018060405250810190610de2919061388b565b8d8281518110610df457610df46138a6565b60200260200101906001600160a01b031690816001600160a01b0316815250508c8181518110610e2657610e266138a6565b60200260200101516001600160a01b031663b78136076040518163ffffffff1660e01b8152600401602060405180830381865afa158015610e69573d5f803e3d5ffd5b505050506040513d601f19601f82011682018060405250810190610e8d919061388b565b8c8281518110610e9f57610e9f6138a6565b60200260200101906001600160a01b031690816001600160a01b0316815250505f8c8281518110610ed257610ed26138a6565b60200260200101519050806001600160a01b03166306fdde036040518163ffffffff1660e01b81526004015f60405180830381865afa158015610f17573d5f803e3d5ffd5b505050506040513d5f823e601f3d908101601f19168201604052610f3e91908101906138ba565b8c8381518110610f5057610f506138a6565b6020026020010181905250806001600160a01b03166395d89b416040518163ffffffff1660e01b81526004015f60405180830381865afa158015610f96573d5f803e3d5ffd5b505050506040513d5f823e601f3d908101601f19168201604052610fbd91908101906138ba565b8b8381518110610fcf57610fcf6138a6565b6020026020010181905250806001600160a01b031663313ce5676040518163ffffffff1660e01b8152600401602060405180830381865afa158015611016573d5f803e3d5ffd5b505050506040513d601f19601f8201168201806040525081019061103a9190613961565b60ff168a838151811061104f5761104f6138a6565b6020026020010181815250508d828151811061106d5761106d6138a6565b60200260200101516001600160a01b031663b3f05b976040518163ffffffff1660e01b8152600401602060405180830381865afa1580156110b0573d5f803e3d5ffd5b505050506040513d601f19601f820116820180604052508101906110d491906139ad565b8983815181106110e6576110e66138a6565b6020026020010190151590811515815250508d828151811061110a5761110a6138a6565b60200260200101516001600160a01b0316636bb38b286040518163ffffffff1660e01b81526004015f60405180830381865afa15801561114c573d5f803e3d5ffd5b505050506040513d5f823e601f3d908101601f1916820160405261117391908101906138ba565b888381518110611185576111856138a6565b60200260200101819052508d82815181106111a2576111a26138a6565b60200260200101516001600160a01b03166392604bc46040518163ffffffff1660e01b81526004015f60405180830381865afa1580156111e4573d5f803e3d5ffd5b505050506040513d5f823e601f3d908101601f1916820160405261120b91908101906138ba565b87838151811061121d5761121d6138a6565b60200260200101819052508d828151811061123a5761123a6138a6565b60200260200101516001600160a01b03166366087e236040518163ffffffff1660e01b81526004015f60405180830381865afa15801561127c573d5f803e3d5ffd5b505050506040513d5f823e601f3d908101601f191682016040526112a391908101906138ba565b8683815181106112b5576112b56138a6565b60200260200101819052508d82815181106112d2576112d26138a6565b60200260200101516001600160a01b03166307973ccf6040518163ffffffff1660e01b8152600401602060405180830381865afa158015611315573d5f803e3d5ffd5b505050506040513d601f19601f820116820180604052508101906113399190613860565b85838151811061134b5761134b6138a6565b6020026020010181815250508d8281518110611369576113696138a6565b60200260200101516001600160a01b0316638da4d3c96040518163ffffffff1660e01b8152600401602060405180830381865afa1580156113ac573d5f803e3d5ffd5b505050506040513d601f19601f820116820180604052508101906113d09190613860565b8483815181106113e2576113e26138a6565b602090810291909101015250806113f881613995565b915050610d73565b505091939597999b90929496989a50565b60608060608060608060608060605f8a6001600160a01b031663081e3eda6040518163ffffffff1660e01b8152600401602060405180830381865afa15801561145c573d5f803e3d5ffd5b505050506040513d601f19601f820116820180604052508101906114809190613860565b9050806001600160401b0381111561149a5761149a613877565b6040519080825280602002602001820160405280156114c3578160200160208202803683370190505b509950806001600160401b038111156114de576114de613877565b604051908082528060200260200182016040528015611507578160200160208202803683370190505b509850806001600160401b0381111561152257611522613877565b60405190808252806020026020018201604052801561155557816020015b60608152602001906001900390816115405790505b509750806001600160401b0381111561157057611570613877565b6040519080825280602002602001820160405280156115a357816020015b606081526020019060019003908161158e5790505b509650806001600160401b038111156115be576115be613877565b6040519080825280602002602001820160405280156115e7578160200160208202803683370190505b509550806001600160401b0381111561160257611602613877565b60405190808252806020026020018201604052801561162b578160200160208202803683370190505b509450806001600160401b0381111561164657611646613877565b60405190808252806020026020018201604052801561167957816020015b60608152602001906001900390816116645790505b509350806001600160401b0381111561169457611694613877565b6040519080825280602002602001820160405280156116c757816020015b60608152602001906001900390816116b25790505b509250806001600160401b038111156116e2576116e2613877565b60405190808252806020026020018201604052801561170b578160200160208202803683370190505b5091505f5b81811015611caa57604051631526fe2760e01b8152600481018290525f906001600160a01b038e1690631526fe2790602401608060405180830381865afa15801561175d573d5f803e3d5ffd5b505050506040513d601f19601f8201168201806040525081019061178191906139cc565b5050509050808c8381518110611799576117996138a6565b60200260200101906001600160a01b031690816001600160a01b0316815250505f8c83815181106117cc576117cc6138a6565b60200260200101519050806001600160a01b0316630dfe16816040518163ffffffff1660e01b8152600401602060405180830381865afa925050508015611830575060408051601f3d908101601f1916820190925261182d9181019061388b565b60015b15611c955750806001600160a01b0316630dfe16816040518163ffffffff1660e01b8152600401602060405180830381865afa158015611872573d5f803e3d5ffd5b505050506040513d601f19601f82011682018060405250810190611896919061388b565b8c84815181106118a8576118a86138a6565b60200260200101906001600160a01b031690816001600160a01b031681525050806001600160a01b031663d21220a76040518163ffffffff1660e01b8152600401602060405180830381865afa158015611904573d5f803e3d5ffd5b505050506040513d601f19601f82011682018060405250810190611928919061388b565b88848151811061193a5761193a6138a6565b60200260200101906001600160a01b031690816001600160a01b0316815250505f8c848151811061196d5761196d6138a6565b602002602001015190505f89858151811061198a5761198a6138a6565b60200260200101519050816001600160a01b03166306fdde036040518163ffffffff1660e01b81526004015f60405180830381865afa1580156119cf573d5f803e3d5ffd5b505050506040513d5f823e601f3d908101601f191682016040526119f691908101906138ba565b8d8681518110611a0857611a086138a6565b6020026020010181905250816001600160a01b03166395d89b416040518163ffffffff1660e01b81526004015f60405180830381865afa158015611a4e573d5f803e3d5ffd5b505050506040513d5f823e601f3d908101601f19168201604052611a7591908101906138ba565b8c8681518110611a8757611a876138a6565b6020026020010181905250816001600160a01b031663313ce5676040518163ffffffff1660e01b8152600401602060405180830381865afa158015611ace573d5f803e3d5ffd5b505050506040513d601f19601f82011682018060405250810190611af29190613961565b60ff168b8681518110611b0757611b076138a6565b602002602001018181525050806001600160a01b03166306fdde036040518163ffffffff1660e01b81526004015f60405180830381865afa158015611b4e573d5f803e3d5ffd5b505050506040513d5f823e601f3d908101601f19168201604052611b7591908101906138ba565b898681518110611b8757611b876138a6565b6020026020010181905250806001600160a01b03166395d89b416040518163ffffffff1660e01b81526004015f60405180830381865afa158015611bcd573d5f803e3d5ffd5b505050506040513d5f823e601f3d908101601f19168201604052611bf491908101906138ba565b888681518110611c0657611c066138a6565b6020026020010181905250806001600160a01b031663313ce5676040518163ffffffff1660e01b8152600401602060405180830381865afa158015611c4d573d5f803e3d5ffd5b505050506040513d601f19601f82011682018060405250810190611c719190613961565b60ff16878681518110611c8657611c866138a6565b60200260200101818152505050505b50508080611ca290613995565b915050611710565b50509193959799909294969850565b60608060608060605f8690505f816001600160a01b031663b9fb0fb76040518163ffffffff1660e01b8152600401602060405180830381865afa158015611d02573d5f803e3d5ffd5b505050506040513d601f19601f82011682018060405250810190611d269190613860565b9050806001600160401b03811115611d4057611d40613877565b604051908082528060200260200182016040528015611d69578160200160208202803683370190505b509650806001600160401b03811115611d8457611d84613877565b604051908082528060200260200182016040528015611dad578160200160208202803683370190505b509550806001600160401b03811115611dc857611dc8613877565b604051908082528060200260200182016040528015611dfb57816020015b6060815260200190600190039081611de65790505b509450806001600160401b03811115611e1657611e16613877565b604051908082528060200260200182016040528015611e4957816020015b6060815260200190600190039081611e345790505b509350806001600160401b03811115611e6457611e64613877565b604051908082528060200260200182016040528015611ea457816020015b604080516020810190915260608152815260200190600190039081611e825790505b5092505f5b818110156122ee5760405163068bcd8d60e01b8152600481018290526001600160a01b0384169063068bcd8d90602401602060405180830381865afa158015611ef4573d5f803e3d5ffd5b505050506040513d601f19601f82011682018060405250810190611f18919061388b565b888281518110611f2a57611f2a6138a6565b60200260200101906001600160a01b031690816001600160a01b031681525050878181518110611f5c57611f5c6138a6565b60200260200101516001600160a01b031663cc7a262e6040518163ffffffff1660e01b8152600401602060405180830381865afa158015611f9f573d5f803e3d5ffd5b505050506040513d601f19601f82011682018060405250810190611fc3919061388b565b878281518110611fd557611fd56138a6565b60200260200101906001600160a01b031690816001600160a01b0316815250505f878281518110612008576120086138a6565b60200260200101519050806001600160a01b03166306fdde036040518163ffffffff1660e01b81526004015f60405180830381865afa15801561204d573d5f803e3d5ffd5b505050506040513d5f823e601f3d908101601f1916820160405261207491908101906138ba565b878381518110612086576120866138a6565b6020026020010181905250806001600160a01b03166395d89b416040518163ffffffff1660e01b81526004015f60405180830381865afa1580156120cc573d5f803e3d5ffd5b505050506040513d5f823e601f3d908101601f191682016040526120f391908101906138ba565b868381518110612105576121056138a6565b60200260200101819052505f898381518110612123576121236138a6565b60200260200101516001600160a01b031663abb06b956040518163ffffffff1660e01b8152600401602060405180830381865afa158015612166573d5f803e3d5ffd5b505050506040513d601f19601f8201168201806040525081019061218a9190613860565b90505f816001600160401b038111156121a5576121a5613877565b6040519080825280602002602001820160405280156121ce578160200160208202803683370190505b5090505f5b828110156122a6575f8c86815181106121ee576121ee6138a6565b60200260200101516001600160a01b031663427f0b00836040518263ffffffff1660e01b815260040161222391815260200190565b60a060405180830381865afa15801561223e573d5f803e3d5ffd5b505050506040513d601f19601f820116820180604052508101906122629190613a08565b5050505090508083838151811061227b5761227b6138a6565b6001600160a01b0390921660209283029190910190910152508061229e81613995565b9150506121d3565b505f6040518060200160405280838152509050808886815181106122cc576122cc6138a6565b60200260200101819052505050505080806122e690613995565b915050611ea9565b50505091939590929450565b606080808080808080805f61230f8c8c613a4d565b9050806001600160401b0381111561232957612329613877565b604051908082528060200260200182016040528015612352578160200160208202803683370190505b509950806001600160401b0381111561236d5761236d613877565b604051908082528060200260200182016040528015612396578160200160208202803683370190505b509850806001600160401b038111156123b1576123b1613877565b6040519080825280602002602001820160405280156123e457816020015b60608152602001906001900390816123cf5790505b509750806001600160401b038111156123ff576123ff613877565b60405190808252806020026020018201604052801561243257816020015b606081526020019060019003908161241d5790505b509650806001600160401b0381111561244d5761244d613877565b604051908082528060200260200182016040528015612476578160200160208202803683370190505b509550806001600160401b0381111561249157612491613877565b6040519080825280602002602001820160405280156124ba578160200160208202803683370190505b509450806001600160401b038111156124d5576124d5613877565b60405190808252806020026020018201604052801561250857816020015b60608152602001906001900390816124f35790505b509350806001600160401b0381111561252357612523613877565b60405190808252806020026020018201604052801561255657816020015b60608152602001906001900390816125415790505b509250806001600160401b0381111561257157612571613877565b60405190808252806020026020018201604052801561259a578160200160208202803683370190505b5091505f5b81811015612ae0578d6001600160a01b0316631e3dd18b828f6125c29190613a66565b6040518263ffffffff1660e01b81526004016125e091815260200190565b602060405180830381865afa1580156125fb573d5f803e3d5ffd5b505050506040513d601f19601f8201168201806040525081019061261f919061388b565b8b8281518110612631576126316138a6565b60200260200101906001600160a01b031690816001600160a01b0316815250505f8b8281518110612664576126646138a6565b60200260200101519050806001600160a01b0316630dfe16816040518163ffffffff1660e01b8152600401602060405180830381865afa1580156126aa573d5f803e3d5ffd5b505050506040513d601f19601f820116820180604052508101906126ce919061388b565b8b83815181106126e0576126e06138a6565b60200260200101906001600160a01b031690816001600160a01b031681525050806001600160a01b031663d21220a76040518163ffffffff1660e01b8152600401602060405180830381865afa15801561273c573d5f803e3d5ffd5b505050506040513d601f19601f82011682018060405250810190612760919061388b565b878381518110612772576127726138a6565b60200260200101906001600160a01b031690816001600160a01b0316815250505f8b83815181106127a5576127a56138a6565b602002602001015190505f8884815181106127c2576127c26138a6565b60200260200101519050816001600160a01b03166306fdde036040518163ffffffff1660e01b81526004015f60405180830381865afa158015612807573d5f803e3d5ffd5b505050506040513d5f823e601f3d908101601f1916820160405261282e91908101906138ba565b8c8581518110612840576128406138a6565b6020026020010181905250816001600160a01b03166395d89b416040518163ffffffff1660e01b81526004015f60405180830381865afa158015612886573d5f803e3d5ffd5b505050506040513d5f823e601f3d908101601f191682016040526128ad91908101906138ba565b8b85815181106128bf576128bf6138a6565b6020026020010181905250816001600160a01b031663313ce5676040518163ffffffff1660e01b8152600401602060405180830381865afa158015612906573d5f803e3d5ffd5b505050506040513d601f19601f8201168201806040525081019061292a9190613961565b60ff168a858151811061293f5761293f6138a6565b602002602001018181525050806001600160a01b03166306fdde036040518163ffffffff1660e01b81526004015f60405180830381865afa158015612986573d5f803e3d5ffd5b505050506040513d5f823e601f3d908101601f191682016040526129ad91908101906138ba565b8885815181106129bf576129bf6138a6565b6020026020010181905250806001600160a01b03166395d89b416040518163ffffffff1660e01b81526004015f60405180830381865afa158015612a05573d5f803e3d5ffd5b505050506040513d5f823e601f3d908101601f19168201604052612a2c91908101906138ba565b878581518110612a3e57612a3e6138a6565b6020026020010181905250806001600160a01b031663313ce5676040518163ffffffff1660e01b8152600401602060405180830381865afa158015612a85573d5f803e3d5ffd5b505050506040513d601f19601f82011682018060405250810190612aa99190613961565b60ff16868581518110612abe57612abe6138a6565b6020026020010181815250505050508080612ad890613995565b91505061259f565b505093979b92969a50939750939750565b5f805f805f80896001600160a01b0316631526fe278c6040518263ffffffff1660e01b8152600401612b2591815260200190565b608060405180830381865afa158015612b40573d5f803e3d5ffd5b505050506040513d601f19601f82011682018060405250810190612b6491906139cc565b9091925090505080965050896001600160a01b03166317caf6f16040518163ffffffff1660e01b8152600401602060405180830381865afa158015612bab573d5f803e3d5ffd5b505050506040513d601f19601f82011682018060405250810190612bcf9190613860565b6040516370a0823160e01b81526001600160a01b038b81166004830152919650908816906370a0823190602401602060405180830381865afa158015612c17573d5f803e3d5ffd5b505050506040513d601f19601f82011682018060405250810190612c3b9190613860565b6040516370a0823160e01b81526001600160a01b038b81166004830152919550908916906370a0823190602401602060405180830381865afa158015612c83573d5f803e3d5ffd5b505050506040513d601f19601f82011682018060405250810190612ca79190613860565b6040516370a0823160e01b81526001600160a01b038c81166004830152919450908a16906370a0823190602401602060405180830381865afa158015612cef573d5f803e3d5ffd5b505050506040513d601f19601f82011682018060405250810190612d139190613860565b9150886001600160a01b03166318160ddd6040518163ffffffff1660e01b8152600401602060405180830381865afa158015612d51573d5f803e3d5ffd5b505050506040513d601f19601f82011682018060405250810190612d759190613860565b90509550955095509550955095565b6060806060806060805f876001600160a01b031663e8096d456040518163ffffffff1660e01b8152600401602060405180830381865afa158015612dca573d5f803e3d5ffd5b505050506040513d601f19601f82011682018060405250810190612dee9190613860565b9050806001600160401b03811115612e0857612e08613877565b604051908082528060200260200182016040528015612e31578160200160208202803683370190505b509650806001600160401b03811115612e4c57612e4c613877565b604051908082528060200260200182016040528015612e75578160200160208202803683370190505b509550806001600160401b03811115612e9057612e90613877565b604051908082528060200260200182016040528015612ec357816020015b6060815260200190600190039081612eae5790505b509450806001600160401b03811115612ede57612ede613877565b604051908082528060200260200182016040528015612f1157816020015b6060815260200190600190039081612efc5790505b509350806001600160401b03811115612f2c57612f2c613877565b604051908082528060200260200182016040528015612f55578160200160208202803683370190505b509250806001600160401b03811115612f7057612f70613877565b604051908082528060200260200182016040528015612f99578160200160208202803683370190505b5091505f5b8181101561333457604051636c7b6acb60e11b8152600481018290526001600160a01b038a169063d8f6d59690602401602060405180830381865afa158015612fe9573d5f803e3d5ffd5b505050506040513d601f19601f8201168201806040525081019061300d919061388b565b88828151811061301f5761301f6138a6565b60200260200101906001600160a01b031690816001600160a01b031681525050878181518110613051576130516138a6565b60200260200101516001600160a01b031663b78136076040518163ffffffff1660e01b8152600401602060405180830381865afa158015613094573d5f803e3d5ffd5b505050506040513d601f19601f820116820180604052508101906130b8919061388b565b8782815181106130ca576130ca6138a6565b60200260200101906001600160a01b031690816001600160a01b0316815250505f8782815181106130fd576130fd6138a6565b60200260200101519050806001600160a01b03166306fdde036040518163ffffffff1660e01b81526004015f60405180830381865afa158015613142573d5f803e3d5ffd5b505050506040513d5f823e601f3d908101601f1916820160405261316991908101906138ba565b87838151811061317b5761317b6138a6565b6020026020010181905250806001600160a01b03166395d89b416040518163ffffffff1660e01b81526004015f60405180830381865afa1580156131c1573d5f803e3d5ffd5b505050506040513d5f823e601f3d908101601f191682016040526131e891908101906138ba565b8683815181106131fa576131fa6138a6565b6020026020010181905250806001600160a01b031663313ce5676040518163ffffffff1660e01b8152600401602060405180830381865afa158015613241573d5f803e3d5ffd5b505050506040513d601f19601f820116820180604052508101906132659190613961565b60ff1685838151811061327a5761327a6138a6565b602002602001018181525050888281518110613298576132986138a6565b60200260200101516001600160a01b031663b3f05b976040518163ffffffff1660e01b8152600401602060405180830381865afa1580156132db573d5f803e3d5ffd5b505050506040513d601f19601f820116820180604052508101906132ff91906139ad565b848381518110613311576133116138a6565b91151560209283029190910190910152508061332c81613995565b915050612f9e565b505091939550919395565b6001600160a01b0381168114613353575f80fd5b50565b5f60208284031215613366575f80fd5b81356133718161333f565b9392505050565b5f8151808452602080850194508084015f5b838110156133af5781516001600160a01b03168752958201959082019060010161338a565b509495945050505050565b5f5b838110156133d45781810151838201526020016133bc565b50505f910152565b5f82825180855260208086019550808260051b8401018186015f5b8481101561343d57601f1980878503018a528251805180865261341f818888018985016133ba565b9a86019a601f019091169390930184019250908301906001016133f7565b5090979650505050505050565b5f8151808452602080850194508084015f5b838110156133af5781518752958201959082019060010161345c565b5f61012080835261348b8184018d613378565b9050828103602084015261349f818c613378565b905082810360408401526134b3818b6133dc565b905082810360608401526134c7818a6133dc565b905082810360808401526134db818961344a565b905082810360a08401526134ef8188613378565b905082810360c084015261350381876133dc565b905082810360e084015261351781866133dc565b905082810361010084015261352c818561344a565b9c9b505050505050505050505050565b5f8151808452602080850194508084015f5b838110156133af57815115158752958201959082019060010161354e565b5f61016080835261357f8184018f613378565b90508281036020840152613593818e613378565b905082810360408401526135a7818d6133dc565b905082810360608401526135bb818c6133dc565b905082810360808401526135cf818b61344a565b905082810360a08401526135e3818a61353c565b905082810360c08401526135f781896133dc565b905082810360e084015261360b81886133dc565b905082810361010084015261362081876133dc565b9050828103610120840152613635818661344a565b905082810361014084015261364a818561344a565b9e9d5050505050505050505050505050565b60a081525f61366e60a0830188613378565b6020838203818501526136818289613378565b915060408483038186015261369683896133dc565b925084830360608601526136aa83886133dc565b925084830360808601528286518085528385019150838160051b8601018489015f805b8481101561373557888403601f190186528251518885528051898601819052908901908390898701905b808310156137205783516001600160a01b03168252928b019260019290920191908b01906136f7565b50978a019795505050918701916001016136cd565b50919e9d5050505050505050505050505050565b5f805f6060848603121561375b575f80fd5b83356137668161333f565b95602085013595506040909401359392505050565b5f805f805f60a0868803121561378f575f80fd5b8535945060208601356137a18161333f565b935060408601356137b18161333f565b925060608601356137c18161333f565b915060808601356137d18161333f565b809150509295509295909350565b60c081525f6137f160c0830189613378565b82810360208401526138038189613378565b9050828103604084015261381781886133dc565b9050828103606084015261382b81876133dc565b9050828103608084015261383f818661344a565b905082810360a0840152613853818561353c565b9998505050505050505050565b5f60208284031215613870575f80fd5b5051919050565b634e487b7160e01b5f52604160045260245ffd5b5f6020828403121561389b575f80fd5b81516133718161333f565b634e487b7160e01b5f52603260045260245ffd5b5f602082840312156138ca575f80fd5b81516001600160401b03808211156138e0575f80fd5b818401915084601f8301126138f3575f80fd5b81518181111561390557613905613877565b604051601f8201601f19908116603f0116810190838211818310171561392d5761392d613877565b81604052828152876020848701011115613945575f80fd5b6139568360208301602088016133ba565b979650505050505050565b5f60208284031215613971575f80fd5b815160ff81168114613371575f80fd5b634e487b7160e01b5f52601160045260245ffd5b5f600182016139a6576139a6613981565b5060010190565b5f602082840312156139bd575f80fd5b81518015158114613371575f80fd5b5f805f80608085870312156139df575f80fd5b84516139ea8161333f565b60208601516040870151606090970151919890975090945092505050565b5f805f805f60a08688031215613a1c575f80fd5b8551613a278161333f565b602087015160408801516060890151608090990151929a91995097965090945092505050565b81810381811115613a6057613a60613981565b92915050565b80820180821115613a6057613a6061398156fea26469706673582212202e7e2b94f79bdcc991f0a00cdb5b7233ffa01c391cbe8f542d470135794eda3d64736f6c63430008140033",
					"opcodes": "PUSH1 0x80 PUSH1 0x40 MSTORE CALLVALUE DUP1 ISZERO PUSH2 0xF JUMPI PUSH0 DUP1 REVERT JUMPDEST POP PUSH2 0x3AAF DUP1 PUSH2 0x1D PUSH0 CODECOPY PUSH0 RETURN INVALID PUSH1 0x80 PUSH1 0x40 MSTORE CALLVALUE DUP1 ISZERO PUSH2 0xF JUMPI PUSH0 DUP1 REVERT JUMPDEST POP PUSH1 0x4 CALLDATASIZE LT PUSH2 0x7A JUMPI PUSH0 CALLDATALOAD PUSH1 0xE0 SHR DUP1 PUSH4 0x74C1017B GT PUSH2 0x58 JUMPI DUP1 PUSH4 0x74C1017B EQ PUSH2 0xEC JUMPI DUP1 PUSH4 0xBB4B8CE2 EQ PUSH2 0x110 JUMPI DUP1 PUSH4 0xC7C7F923 EQ PUSH2 0x123 JUMPI DUP1 PUSH4 0xE767F7EE EQ PUSH2 0x163 JUMPI PUSH0 DUP1 REVERT JUMPDEST DUP1 PUSH4 0x6BFA938 EQ PUSH2 0x7E JUMPI DUP1 PUSH4 0x15D7518E EQ PUSH2 0xAF JUMPI DUP1 PUSH4 0x1C9A4FD1 EQ PUSH2 0xD9 JUMPI JUMPDEST PUSH0 DUP1 REVERT JUMPDEST PUSH2 0x91 PUSH2 0x8C CALLDATASIZE PUSH1 0x4 PUSH2 0x3356 JUMP JUMPDEST PUSH2 0x188 JUMP JUMPDEST PUSH1 0x40 MLOAD PUSH2 0xA6 SWAP10 SWAP9 SWAP8 SWAP7 SWAP6 SWAP5 SWAP4 SWAP3 SWAP2 SWAP1 PUSH2 0x3478 JUMP JUMPDEST PUSH1 0x40 MLOAD DUP1 SWAP2 SUB SWAP1 RETURN JUMPDEST PUSH2 0xC2 PUSH2 0xBD CALLDATASIZE PUSH1 0x4 PUSH2 0x3356 JUMP JUMPDEST PUSH2 0x9DF JUMP JUMPDEST PUSH1 0x40 MLOAD PUSH2 0xA6 SWAP12 SWAP11 SWAP10 SWAP9 SWAP8 SWAP7 SWAP6 SWAP5 SWAP4 SWAP3 SWAP2 SWAP1 PUSH2 0x356C JUMP JUMPDEST PUSH2 0x91 PUSH2 0xE7 CALLDATASIZE PUSH1 0x4 PUSH2 0x3356 JUMP JUMPDEST PUSH2 0x1411 JUMP JUMPDEST PUSH2 0xFF PUSH2 0xFA CALLDATASIZE PUSH1 0x4 PUSH2 0x3356 JUMP JUMPDEST PUSH2 0x1CB9 JUMP JUMPDEST PUSH1 0x40 MLOAD PUSH2 0xA6 SWAP6 SWAP5 SWAP4 SWAP3 SWAP2 SWAP1 PUSH2 0x365C JUMP JUMPDEST PUSH2 0x91 PUSH2 0x11E CALLDATASIZE PUSH1 0x4 PUSH2 0x3749 JUMP JUMPDEST PUSH2 0x22FA JUMP JUMPDEST PUSH2 0x136 PUSH2 0x131 CALLDATASIZE PUSH1 0x4 PUSH2 0x377B JUMP JUMPDEST PUSH2 0x2AF1 JUMP JUMPDEST PUSH1 0x40 DUP1 MLOAD SWAP7 DUP8 MSTORE PUSH1 0x20 DUP8 ADD SWAP6 SWAP1 SWAP6 MSTORE SWAP4 DUP6 ADD SWAP3 SWAP1 SWAP3 MSTORE PUSH1 0x60 DUP5 ADD MSTORE PUSH1 0x80 DUP4 ADD MSTORE PUSH1 0xA0 DUP3 ADD MSTORE PUSH1 0xC0 ADD PUSH2 0xA6 JUMP JUMPDEST PUSH2 0x176 PUSH2 0x171 CALLDATASIZE PUSH1 0x4 PUSH2 0x3356 JUMP JUMPDEST PUSH2 0x2D84 JUMP JUMPDEST PUSH1 0x40 MLOAD PUSH2 0xA6 SWAP7 SWAP6 SWAP5 SWAP4 SWAP3 SWAP2 SWAP1 PUSH2 0x37DF JUMP JUMPDEST PUSH1 0x60 DUP1 PUSH1 0x60 DUP1 PUSH1 0x60 DUP1 PUSH1 0x60 DUP1 PUSH1 0x60 PUSH0 DUP11 SWAP1 POP PUSH0 DUP2 PUSH1 0x1 PUSH1 0x1 PUSH1 0xA0 SHL SUB AND PUSH4 0xB9FB0FB7 PUSH1 0x40 MLOAD DUP2 PUSH4 0xFFFFFFFF AND PUSH1 0xE0 SHL DUP2 MSTORE PUSH1 0x4 ADD PUSH1 0x20 PUSH1 0x40 MLOAD DUP1 DUP4 SUB DUP2 DUP7 GAS STATICCALL ISZERO DUP1 ISZERO PUSH2 0x1D7 JUMPI RETURNDATASIZE PUSH0 DUP1 RETURNDATACOPY RETURNDATASIZE PUSH0 REVERT JUMPDEST POP POP POP POP PUSH1 0x40 MLOAD RETURNDATASIZE PUSH1 0x1F NOT PUSH1 0x1F DUP3 ADD AND DUP3 ADD DUP1 PUSH1 0x40 MSTORE POP DUP2 ADD SWAP1 PUSH2 0x1FB SWAP2 SWAP1 PUSH2 0x3860 JUMP JUMPDEST SWAP1 POP DUP1 PUSH1 0x1 PUSH1 0x1 PUSH1 0x40 SHL SUB DUP2 GT ISZERO PUSH2 0x215 JUMPI PUSH2 0x215 PUSH2 0x3877 JUMP JUMPDEST PUSH1 0x40 MLOAD SWAP1 DUP1 DUP3 MSTORE DUP1 PUSH1 0x20 MUL PUSH1 0x20 ADD DUP3 ADD PUSH1 0x40 MSTORE DUP1 ISZERO PUSH2 0x23E JUMPI DUP2 PUSH1 0x20 ADD PUSH1 0x20 DUP3 MUL DUP1 CALLDATASIZE DUP4 CALLDATACOPY ADD SWAP1 POP JUMPDEST POP SWAP11 POP DUP1 PUSH1 0x1 PUSH1 0x1 PUSH1 0x40 SHL SUB DUP2 GT ISZERO PUSH2 0x259 JUMPI PUSH2 0x259 PUSH2 0x3877 JUMP JUMPDEST PUSH1 0x40 MLOAD SWAP1 DUP1 DUP3 MSTORE DUP1 PUSH1 0x20 MUL PUSH1 0x20 ADD DUP3 ADD PUSH1 0x40 MSTORE DUP1 ISZERO PUSH2 0x282 JUMPI DUP2 PUSH1 0x20 ADD PUSH1 0x20 DUP3 MUL DUP1 CALLDATASIZE DUP4 CALLDATACOPY ADD SWAP1 POP JUMPDEST POP SWAP10 POP DUP1 PUSH1 0x1 PUSH1 0x1 PUSH1 0x40 SHL SUB DUP2 GT ISZERO PUSH2 0x29D JUMPI PUSH2 0x29D PUSH2 0x3877 JUMP JUMPDEST PUSH1 0x40 MLOAD SWAP1 DUP1 DUP3 MSTORE DUP1 PUSH1 0x20 MUL PUSH1 0x20 ADD DUP3 ADD PUSH1 0x40 MSTORE DUP1 ISZERO PUSH2 0x2D0 JUMPI DUP2 PUSH1 0x20 ADD JUMPDEST PUSH1 0x60 DUP2 MSTORE PUSH1 0x20 ADD SWAP1 PUSH1 0x1 SWAP1 SUB SWAP1 DUP2 PUSH2 0x2BB JUMPI SWAP1 POP JUMPDEST POP SWAP9 POP DUP1 PUSH1 0x1 PUSH1 0x1 PUSH1 0x40 SHL SUB DUP2 GT ISZERO PUSH2 0x2EB JUMPI PUSH2 0x2EB PUSH2 0x3877 JUMP JUMPDEST PUSH1 0x40 MLOAD SWAP1 DUP1 DUP3 MSTORE DUP1 PUSH1 0x20 MUL PUSH1 0x20 ADD DUP3 ADD PUSH1 0x40 MSTORE DUP1 ISZERO PUSH2 0x31E JUMPI DUP2 PUSH1 0x20 ADD JUMPDEST PUSH1 0x60 DUP2 MSTORE PUSH1 0x20 ADD SWAP1 PUSH1 0x1 SWAP1 SUB SWAP1 DUP2 PUSH2 0x309 JUMPI SWAP1 POP JUMPDEST POP SWAP8 POP DUP1 PUSH1 0x1 PUSH1 0x1 PUSH1 0x40 SHL SUB DUP2 GT ISZERO PUSH2 0x339 JUMPI PUSH2 0x339 PUSH2 0x3877 JUMP JUMPDEST PUSH1 0x40 MLOAD SWAP1 DUP1 DUP3 MSTORE DUP1 PUSH1 0x20 MUL PUSH1 0x20 ADD DUP3 ADD PUSH1 0x40 MSTORE DUP1 ISZERO PUSH2 0x362 JUMPI DUP2 PUSH1 0x20 ADD PUSH1 0x20 DUP3 MUL DUP1 CALLDATASIZE DUP4 CALLDATACOPY ADD SWAP1 POP JUMPDEST POP SWAP7 POP DUP1 PUSH1 0x1 PUSH1 0x1 PUSH1 0x40 SHL SUB DUP2 GT ISZERO PUSH2 0x37D JUMPI PUSH2 0x37D PUSH2 0x3877 JUMP JUMPDEST PUSH1 0x40 MLOAD SWAP1 DUP1 DUP3 MSTORE DUP1 PUSH1 0x20 MUL PUSH1 0x20 ADD DUP3 ADD PUSH1 0x40 MSTORE DUP1 ISZERO PUSH2 0x3A6 JUMPI DUP2 PUSH1 0x20 ADD PUSH1 0x20 DUP3 MUL DUP1 CALLDATASIZE DUP4 CALLDATACOPY ADD SWAP1 POP JUMPDEST POP SWAP6 POP DUP1 PUSH1 0x1 PUSH1 0x1 PUSH1 0x40 SHL SUB DUP2 GT ISZERO PUSH2 0x3C1 JUMPI PUSH2 0x3C1 PUSH2 0x3877 JUMP JUMPDEST PUSH1 0x40 MLOAD SWAP1 DUP1 DUP3 MSTORE DUP1 PUSH1 0x20 MUL PUSH1 0x20 ADD DUP3 ADD PUSH1 0x40 MSTORE DUP1 ISZERO PUSH2 0x3F4 JUMPI DUP2 PUSH1 0x20 ADD JUMPDEST PUSH1 0x60 DUP2 MSTORE PUSH1 0x20 ADD SWAP1 PUSH1 0x1 SWAP1 SUB SWAP1 DUP2 PUSH2 0x3DF JUMPI SWAP1 POP JUMPDEST POP SWAP5 POP DUP1 PUSH1 0x1 PUSH1 0x1 PUSH1 0x40 SHL SUB DUP2 GT ISZERO PUSH2 0x40F JUMPI PUSH2 0x40F PUSH2 0x3877 JUMP JUMPDEST PUSH1 0x40 MLOAD SWAP1 DUP1 DUP3 MSTORE DUP1 PUSH1 0x20 MUL PUSH1 0x20 ADD DUP3 ADD PUSH1 0x40 MSTORE DUP1 ISZERO PUSH2 0x442 JUMPI DUP2 PUSH1 0x20 ADD JUMPDEST PUSH1 0x60 DUP2 MSTORE PUSH1 0x20 ADD SWAP1 PUSH1 0x1 SWAP1 SUB SWAP1 DUP2 PUSH2 0x42D JUMPI SWAP1 POP JUMPDEST POP SWAP4 POP DUP1 PUSH1 0x1 PUSH1 0x1 PUSH1 0x40 SHL SUB DUP2 GT ISZERO PUSH2 0x45D JUMPI PUSH2 0x45D PUSH2 0x3877 JUMP JUMPDEST PUSH1 0x40 MLOAD SWAP1 DUP1 DUP3 MSTORE DUP1 PUSH1 0x20 MUL PUSH1 0x20 ADD DUP3 ADD PUSH1 0x40 MSTORE DUP1 ISZERO PUSH2 0x486 JUMPI DUP2 PUSH1 0x20 ADD PUSH1 0x20 DUP3 MUL DUP1 CALLDATASIZE DUP4 CALLDATACOPY ADD SWAP1 POP JUMPDEST POP SWAP3 POP PUSH0 JUMPDEST DUP2 DUP2 LT ISZERO PUSH2 0x9CF JUMPI PUSH1 0x40 MLOAD PUSH4 0x68BCD8D PUSH1 0xE0 SHL DUP2 MSTORE PUSH1 0x4 DUP2 ADD DUP3 SWAP1 MSTORE PUSH1 0x1 PUSH1 0x1 PUSH1 0xA0 SHL SUB DUP5 AND SWAP1 PUSH4 0x68BCD8D SWAP1 PUSH1 0x24 ADD PUSH1 0x20 PUSH1 0x40 MLOAD DUP1 DUP4 SUB DUP2 DUP7 GAS STATICCALL ISZERO DUP1 ISZERO PUSH2 0x4D6 JUMPI RETURNDATASIZE PUSH0 DUP1 RETURNDATACOPY RETURNDATASIZE PUSH0 REVERT JUMPDEST POP POP POP POP PUSH1 0x40 MLOAD RETURNDATASIZE PUSH1 0x1F NOT PUSH1 0x1F DUP3 ADD AND DUP3 ADD DUP1 PUSH1 0x40 MSTORE POP DUP2 ADD SWAP1 PUSH2 0x4FA SWAP2 SWAP1 PUSH2 0x388B JUMP JUMPDEST DUP13 DUP3 DUP2 MLOAD DUP2 LT PUSH2 0x50C JUMPI PUSH2 0x50C PUSH2 0x38A6 JUMP JUMPDEST PUSH1 0x20 MUL PUSH1 0x20 ADD ADD SWAP1 PUSH1 0x1 PUSH1 0x1 PUSH1 0xA0 SHL SUB AND SWAP1 DUP2 PUSH1 0x1 PUSH1 0x1 PUSH1 0xA0 SHL SUB AND DUP2 MSTORE POP POP DUP12 DUP2 DUP2 MLOAD DUP2 LT PUSH2 0x53E JUMPI PUSH2 0x53E PUSH2 0x38A6 JUMP JUMPDEST PUSH1 0x20 MUL PUSH1 0x20 ADD ADD MLOAD PUSH1 0x1 PUSH1 0x1 PUSH1 0xA0 SHL SUB AND PUSH4 0xCC7A262E PUSH1 0x40 MLOAD DUP2 PUSH4 0xFFFFFFFF AND PUSH1 0xE0 SHL DUP2 MSTORE PUSH1 0x4 ADD PUSH1 0x20 PUSH1 0x40 MLOAD DUP1 DUP4 SUB DUP2 DUP7 GAS STATICCALL ISZERO DUP1 ISZERO PUSH2 0x581 JUMPI RETURNDATASIZE PUSH0 DUP1 RETURNDATACOPY RETURNDATASIZE PUSH0 REVERT JUMPDEST POP POP POP POP PUSH1 0x40 MLOAD RETURNDATASIZE PUSH1 0x1F NOT PUSH1 0x1F DUP3 ADD AND DUP3 ADD DUP1 PUSH1 0x40 MSTORE POP DUP2 ADD SWAP1 PUSH2 0x5A5 SWAP2 SWAP1 PUSH2 0x388B JUMP JUMPDEST DUP12 DUP3 DUP2 MLOAD DUP2 LT PUSH2 0x5B7 JUMPI PUSH2 0x5B7 PUSH2 0x38A6 JUMP JUMPDEST PUSH1 0x20 MUL PUSH1 0x20 ADD ADD SWAP1 PUSH1 0x1 PUSH1 0x1 PUSH1 0xA0 SHL SUB AND SWAP1 DUP2 PUSH1 0x1 PUSH1 0x1 PUSH1 0xA0 SHL SUB AND DUP2 MSTORE POP POP PUSH0 DUP12 DUP3 DUP2 MLOAD DUP2 LT PUSH2 0x5EA JUMPI PUSH2 0x5EA PUSH2 0x38A6 JUMP JUMPDEST PUSH1 0x20 MUL PUSH1 0x20 ADD ADD MLOAD SWAP1 POP DUP1 PUSH1 0x1 PUSH1 0x1 PUSH1 0xA0 SHL SUB AND PUSH4 0x6FDDE03 PUSH1 0x40 MLOAD DUP2 PUSH4 0xFFFFFFFF AND PUSH1 0xE0 SHL DUP2 MSTORE PUSH1 0x4 ADD PUSH0 PUSH1 0x40 MLOAD DUP1 DUP4 SUB DUP2 DUP7 GAS STATICCALL ISZERO DUP1 ISZERO PUSH2 0x62F JUMPI RETURNDATASIZE PUSH0 DUP1 RETURNDATACOPY RETURNDATASIZE PUSH0 REVERT JUMPDEST POP POP POP POP PUSH1 0x40 MLOAD RETURNDATASIZE PUSH0 DUP3 RETURNDATACOPY PUSH1 0x1F RETURNDATASIZE SWAP1 DUP2 ADD PUSH1 0x1F NOT AND DUP3 ADD PUSH1 0x40 MSTORE PUSH2 0x656 SWAP2 SWAP1 DUP2 ADD SWAP1 PUSH2 0x38BA JUMP JUMPDEST DUP12 DUP4 DUP2 MLOAD DUP2 LT PUSH2 0x668 JUMPI PUSH2 0x668 PUSH2 0x38A6 JUMP JUMPDEST PUSH1 0x20 MUL PUSH1 0x20 ADD ADD DUP2 SWAP1 MSTORE POP DUP1 PUSH1 0x1 PUSH1 0x1 PUSH1 0xA0 SHL SUB AND PUSH4 0x95D89B41 PUSH1 0x40 MLOAD DUP2 PUSH4 0xFFFFFFFF AND PUSH1 0xE0 SHL DUP2 MSTORE PUSH1 0x4 ADD PUSH0 PUSH1 0x40 MLOAD DUP1 DUP4 SUB DUP2 DUP7 GAS STATICCALL ISZERO DUP1 ISZERO PUSH2 0x6AE JUMPI RETURNDATASIZE PUSH0 DUP1 RETURNDATACOPY RETURNDATASIZE PUSH0 REVERT JUMPDEST POP POP POP POP PUSH1 0x40 MLOAD RETURNDATASIZE PUSH0 DUP3 RETURNDATACOPY PUSH1 0x1F RETURNDATASIZE SWAP1 DUP2 ADD PUSH1 0x1F NOT AND DUP3 ADD PUSH1 0x40 MSTORE PUSH2 0x6D5 SWAP2 SWAP1 DUP2 ADD SWAP1 PUSH2 0x38BA JUMP JUMPDEST DUP11 DUP4 DUP2 MLOAD DUP2 LT PUSH2 0x6E7 JUMPI PUSH2 0x6E7 PUSH2 0x38A6 JUMP JUMPDEST PUSH1 0x20 MUL PUSH1 0x20 ADD ADD DUP2 SWAP1 MSTORE POP DUP1 PUSH1 0x1 PUSH1 0x1 PUSH1 0xA0 SHL SUB AND PUSH4 0x313CE567 PUSH1 0x40 MLOAD DUP2 PUSH4 0xFFFFFFFF AND PUSH1 0xE0 SHL DUP2 MSTORE PUSH1 0x4 ADD PUSH1 0x20 PUSH1 0x40 MLOAD DUP1 DUP4 SUB DUP2 DUP7 GAS STATICCALL ISZERO DUP1 ISZERO PUSH2 0x72E JUMPI RETURNDATASIZE PUSH0 DUP1 RETURNDATACOPY RETURNDATASIZE PUSH0 REVERT JUMPDEST POP POP POP POP PUSH1 0x40 MLOAD RETURNDATASIZE PUSH1 0x1F NOT PUSH1 0x1F DUP3 ADD AND DUP3 ADD DUP1 PUSH1 0x40 MSTORE POP DUP2 ADD SWAP1 PUSH2 0x752 SWAP2 SWAP1 PUSH2 0x3961 JUMP JUMPDEST PUSH1 0xFF AND DUP10 DUP4 DUP2 MLOAD DUP2 LT PUSH2 0x767 JUMPI PUSH2 0x767 PUSH2 0x38A6 JUMP JUMPDEST PUSH1 0x20 MUL PUSH1 0x20 ADD ADD DUP2 DUP2 MSTORE POP POP DUP13 DUP3 DUP2 MLOAD DUP2 LT PUSH2 0x785 JUMPI PUSH2 0x785 PUSH2 0x38A6 JUMP JUMPDEST PUSH1 0x20 MUL PUSH1 0x20 ADD ADD MLOAD PUSH1 0x1 PUSH1 0x1 PUSH1 0xA0 SHL SUB AND PUSH4 0xF7C618C1 PUSH1 0x40 MLOAD DUP2 PUSH4 0xFFFFFFFF AND PUSH1 0xE0 SHL DUP2 MSTORE PUSH1 0x4 ADD PUSH1 0x20 PUSH1 0x40 MLOAD DUP1 DUP4 SUB DUP2 DUP7 GAS STATICCALL ISZERO DUP1 ISZERO PUSH2 0x7C8 JUMPI RETURNDATASIZE PUSH0 DUP1 RETURNDATACOPY RETURNDATASIZE PUSH0 REVERT JUMPDEST POP POP POP POP PUSH1 0x40 MLOAD RETURNDATASIZE PUSH1 0x1F NOT PUSH1 0x1F DUP3 ADD AND DUP3 ADD DUP1 PUSH1 0x40 MSTORE POP DUP2 ADD SWAP1 PUSH2 0x7EC SWAP2 SWAP1 PUSH2 0x388B JUMP JUMPDEST DUP9 DUP4 DUP2 MLOAD DUP2 LT PUSH2 0x7FE JUMPI PUSH2 0x7FE PUSH2 0x38A6 JUMP JUMPDEST PUSH1 0x20 MUL PUSH1 0x20 ADD ADD SWAP1 PUSH1 0x1 PUSH1 0x1 PUSH1 0xA0 SHL SUB AND SWAP1 DUP2 PUSH1 0x1 PUSH1 0x1 PUSH1 0xA0 SHL SUB AND DUP2 MSTORE POP POP PUSH0 DUP9 DUP4 DUP2 MLOAD DUP2 LT PUSH2 0x831 JUMPI PUSH2 0x831 PUSH2 0x38A6 JUMP JUMPDEST PUSH1 0x20 MUL PUSH1 0x20 ADD ADD MLOAD SWAP1 POP DUP1 PUSH1 0x1 PUSH1 0x1 PUSH1 0xA0 SHL SUB AND PUSH4 0x6FDDE03 PUSH1 0x40 MLOAD DUP2 PUSH4 0xFFFFFFFF AND PUSH1 0xE0 SHL DUP2 MSTORE PUSH1 0x4 ADD PUSH0 PUSH1 0x40 MLOAD DUP1 DUP4 SUB DUP2 DUP7 GAS STATICCALL ISZERO DUP1 ISZERO PUSH2 0x876 JUMPI RETURNDATASIZE PUSH0 DUP1 RETURNDATACOPY RETURNDATASIZE PUSH0 REVERT JUMPDEST POP POP POP POP PUSH1 0x40 MLOAD RETURNDATASIZE PUSH0 DUP3 RETURNDATACOPY PUSH1 0x1F RETURNDATASIZE SWAP1 DUP2 ADD PUSH1 0x1F NOT AND DUP3 ADD PUSH1 0x40 MSTORE PUSH2 0x89D SWAP2 SWAP1 DUP2 ADD SWAP1 PUSH2 0x38BA JUMP JUMPDEST DUP9 DUP5 DUP2 MLOAD DUP2 LT PUSH2 0x8AF JUMPI PUSH2 0x8AF PUSH2 0x38A6 JUMP JUMPDEST PUSH1 0x20 MUL PUSH1 0x20 ADD ADD DUP2 SWAP1 MSTORE POP DUP1 PUSH1 0x1 PUSH1 0x1 PUSH1 0xA0 SHL SUB AND PUSH4 0x95D89B41 PUSH1 0x40 MLOAD DUP2 PUSH4 0xFFFFFFFF AND PUSH1 0xE0 SHL DUP2 MSTORE PUSH1 0x4 ADD PUSH0 PUSH1 0x40 MLOAD DUP1 DUP4 SUB DUP2 DUP7 GAS STATICCALL ISZERO DUP1 ISZERO PUSH2 0x8F5 JUMPI RETURNDATASIZE PUSH0 DUP1 RETURNDATACOPY RETURNDATASIZE PUSH0 REVERT JUMPDEST POP POP POP POP PUSH1 0x40 MLOAD RETURNDATASIZE PUSH0 DUP3 RETURNDATACOPY PUSH1 0x1F RETURNDATASIZE SWAP1 DUP2 ADD PUSH1 0x1F NOT AND DUP3 ADD PUSH1 0x40 MSTORE PUSH2 0x91C SWAP2 SWAP1 DUP2 ADD SWAP1 PUSH2 0x38BA JUMP JUMPDEST DUP8 DUP5 DUP2 MLOAD DUP2 LT PUSH2 0x92E JUMPI PUSH2 0x92E PUSH2 0x38A6 JUMP JUMPDEST PUSH1 0x20 MUL PUSH1 0x20 ADD ADD DUP2 SWAP1 MSTORE POP DUP1 PUSH1 0x1 PUSH1 0x1 PUSH1 0xA0 SHL SUB AND PUSH4 0x313CE567 PUSH1 0x40 MLOAD DUP2 PUSH4 0xFFFFFFFF AND PUSH1 0xE0 SHL DUP2 MSTORE PUSH1 0x4 ADD PUSH1 0x20 PUSH1 0x40 MLOAD DUP1 DUP4 SUB DUP2 DUP7 GAS STATICCALL ISZERO DUP1 ISZERO PUSH2 0x975 JUMPI RETURNDATASIZE PUSH0 DUP1 RETURNDATACOPY RETURNDATASIZE PUSH0 REVERT JUMPDEST POP POP POP POP PUSH1 0x40 MLOAD RETURNDATASIZE PUSH1 0x1F NOT PUSH1 0x1F DUP3 ADD AND DUP3 ADD DUP1 PUSH1 0x40 MSTORE POP DUP2 ADD SWAP1 PUSH2 0x999 SWAP2 SWAP1 PUSH2 0x3961 JUMP JUMPDEST PUSH1 0xFF AND DUP7 DUP5 DUP2 MLOAD DUP2 LT PUSH2 0x9AE JUMPI PUSH2 0x9AE PUSH2 0x38A6 JUMP JUMPDEST PUSH1 0x20 MUL PUSH1 0x20 ADD ADD DUP2 DUP2 MSTORE POP POP POP POP DUP1 DUP1 PUSH2 0x9C7 SWAP1 PUSH2 0x3995 JUMP JUMPDEST SWAP2 POP POP PUSH2 0x48B JUMP JUMPDEST POP POP POP SWAP2 SWAP4 SWAP6 SWAP8 SWAP10 SWAP1 SWAP3 SWAP5 SWAP7 SWAP9 POP JUMP JUMPDEST PUSH1 0x60 DUP1 PUSH1 0x60 DUP1 PUSH1 0x60 DUP1 PUSH1 0x60 DUP1 PUSH1 0x60 DUP1 PUSH1 0x60 PUSH0 DUP13 PUSH1 0x1 PUSH1 0x1 PUSH1 0xA0 SHL SUB AND PUSH4 0xE8096D45 PUSH1 0x40 MLOAD DUP2 PUSH4 0xFFFFFFFF AND PUSH1 0xE0 SHL DUP2 MSTORE PUSH1 0x4 ADD PUSH1 0x20 PUSH1 0x40 MLOAD DUP1 DUP4 SUB DUP2 DUP7 GAS STATICCALL ISZERO DUP1 ISZERO PUSH2 0xA2D JUMPI RETURNDATASIZE PUSH0 DUP1 RETURNDATACOPY RETURNDATASIZE PUSH0 REVERT JUMPDEST POP POP POP POP PUSH1 0x40 MLOAD RETURNDATASIZE PUSH1 0x1F NOT PUSH1 0x1F DUP3 ADD AND DUP3 ADD DUP1 PUSH1 0x40 MSTORE POP DUP2 ADD SWAP1 PUSH2 0xA51 SWAP2 SWAP1 PUSH2 0x3860 JUMP JUMPDEST SWAP1 POP DUP1 PUSH1 0x1 PUSH1 0x1 PUSH1 0x40 SHL SUB DUP2 GT ISZERO PUSH2 0xA6B JUMPI PUSH2 0xA6B PUSH2 0x3877 JUMP JUMPDEST PUSH1 0x40 MLOAD SWAP1 DUP1 DUP3 MSTORE DUP1 PUSH1 0x20 MUL PUSH1 0x20 ADD DUP3 ADD PUSH1 0x40 MSTORE DUP1 ISZERO PUSH2 0xA94 JUMPI DUP2 PUSH1 0x20 ADD PUSH1 0x20 DUP3 MUL DUP1 CALLDATASIZE DUP4 CALLDATACOPY ADD SWAP1 POP JUMPDEST POP SWAP12 POP DUP1 PUSH1 0x1 PUSH1 0x1 PUSH1 0x40 SHL SUB DUP2 GT ISZERO PUSH2 0xAAF JUMPI PUSH2 0xAAF PUSH2 0x3877 JUMP JUMPDEST PUSH1 0x40 MLOAD SWAP1 DUP1 DUP3 MSTORE DUP1 PUSH1 0x20 MUL PUSH1 0x20 ADD DUP3 ADD PUSH1 0x40 MSTORE DUP1 ISZERO PUSH2 0xAD8 JUMPI DUP2 PUSH1 0x20 ADD PUSH1 0x20 DUP3 MUL DUP1 CALLDATASIZE DUP4 CALLDATACOPY ADD SWAP1 POP JUMPDEST POP SWAP11 POP DUP1 PUSH1 0x1 PUSH1 0x1 PUSH1 0x40 SHL SUB DUP2 GT ISZERO PUSH2 0xAF3 JUMPI PUSH2 0xAF3 PUSH2 0x3877 JUMP JUMPDEST PUSH1 0x40 MLOAD SWAP1 DUP1 DUP3 MSTORE DUP1 PUSH1 0x20 MUL PUSH1 0x20 ADD DUP3 ADD PUSH1 0x40 MSTORE DUP1 ISZERO PUSH2 0xB26 JUMPI DUP2 PUSH1 0x20 ADD JUMPDEST PUSH1 0x60 DUP2 MSTORE PUSH1 0x20 ADD SWAP1 PUSH1 0x1 SWAP1 SUB SWAP1 DUP2 PUSH2 0xB11 JUMPI SWAP1 POP JUMPDEST POP SWAP10 POP DUP1 PUSH1 0x1 PUSH1 0x1 PUSH1 0x40 SHL SUB DUP2 GT ISZERO PUSH2 0xB41 JUMPI PUSH2 0xB41 PUSH2 0x3877 JUMP JUMPDEST PUSH1 0x40 MLOAD SWAP1 DUP1 DUP3 MSTORE DUP1 PUSH1 0x20 MUL PUSH1 0x20 ADD DUP3 ADD PUSH1 0x40 MSTORE DUP1 ISZERO PUSH2 0xB74 JUMPI DUP2 PUSH1 0x20 ADD JUMPDEST PUSH1 0x60 DUP2 MSTORE PUSH1 0x20 ADD SWAP1 PUSH1 0x1 SWAP1 SUB SWAP1 DUP2 PUSH2 0xB5F JUMPI SWAP1 POP JUMPDEST POP SWAP9 POP DUP1 PUSH1 0x1 PUSH1 0x1 PUSH1 0x40 SHL SUB DUP2 GT ISZERO PUSH2 0xB8F JUMPI PUSH2 0xB8F PUSH2 0x3877 JUMP JUMPDEST PUSH1 0x40 MLOAD SWAP1 DUP1 DUP3 MSTORE DUP1 PUSH1 0x20 MUL PUSH1 0x20 ADD DUP3 ADD PUSH1 0x40 MSTORE DUP1 ISZERO PUSH2 0xBB8 JUMPI DUP2 PUSH1 0x20 ADD PUSH1 0x20 DUP3 MUL DUP1 CALLDATASIZE DUP4 CALLDATACOPY ADD SWAP1 POP JUMPDEST POP SWAP8 POP DUP1 PUSH1 0x1 PUSH1 0x1 PUSH1 0x40 SHL SUB DUP2 GT ISZERO PUSH2 0xBD3 JUMPI PUSH2 0xBD3 PUSH2 0x3877 JUMP JUMPDEST PUSH1 0x40 MLOAD SWAP1 DUP1 DUP3 MSTORE DUP1 PUSH1 0x20 MUL PUSH1 0x20 ADD DUP3 ADD PUSH1 0x40 MSTORE DUP1 ISZERO PUSH2 0xBFC JUMPI DUP2 PUSH1 0x20 ADD PUSH1 0x20 DUP3 MUL DUP1 CALLDATASIZE DUP4 CALLDATACOPY ADD SWAP1 POP JUMPDEST POP SWAP7 POP DUP1 PUSH1 0x1 PUSH1 0x1 PUSH1 0x40 SHL SUB DUP2 GT ISZERO PUSH2 0xC17 JUMPI PUSH2 0xC17 PUSH2 0x3877 JUMP JUMPDEST PUSH1 0x40 MLOAD SWAP1 DUP1 DUP3 MSTORE DUP1 PUSH1 0x20 MUL PUSH1 0x20 ADD DUP3 ADD PUSH1 0x40 MSTORE DUP1 ISZERO PUSH2 0xC4A JUMPI DUP2 PUSH1 0x20 ADD JUMPDEST PUSH1 0x60 DUP2 MSTORE PUSH1 0x20 ADD SWAP1 PUSH1 0x1 SWAP1 SUB SWAP1 DUP2 PUSH2 0xC35 JUMPI SWAP1 POP JUMPDEST POP SWAP6 POP DUP1 PUSH1 0x1 PUSH1 0x1 PUSH1 0x40 SHL SUB DUP2 GT ISZERO PUSH2 0xC65 JUMPI PUSH2 0xC65 PUSH2 0x3877 JUMP JUMPDEST PUSH1 0x40 MLOAD SWAP1 DUP1 DUP3 MSTORE DUP1 PUSH1 0x20 MUL PUSH1 0x20 ADD DUP3 ADD PUSH1 0x40 MSTORE DUP1 ISZERO PUSH2 0xC98 JUMPI DUP2 PUSH1 0x20 ADD JUMPDEST PUSH1 0x60 DUP2 MSTORE PUSH1 0x20 ADD SWAP1 PUSH1 0x1 SWAP1 SUB SWAP1 DUP2 PUSH2 0xC83 JUMPI SWAP1 POP JUMPDEST POP SWAP5 POP DUP1 PUSH1 0x1 PUSH1 0x1 PUSH1 0x40 SHL SUB DUP2 GT ISZERO PUSH2 0xCB3 JUMPI PUSH2 0xCB3 PUSH2 0x3877 JUMP JUMPDEST PUSH1 0x40 MLOAD SWAP1 DUP1 DUP3 MSTORE DUP1 PUSH1 0x20 MUL PUSH1 0x20 ADD DUP3 ADD PUSH1 0x40 MSTORE DUP1 ISZERO PUSH2 0xCE6 JUMPI DUP2 PUSH1 0x20 ADD JUMPDEST PUSH1 0x60 DUP2 MSTORE PUSH1 0x20 ADD SWAP1 PUSH1 0x1 SWAP1 SUB SWAP1 DUP2 PUSH2 0xCD1 JUMPI SWAP1 POP JUMPDEST POP SWAP4 POP DUP1 PUSH1 0x1 PUSH1 0x1 PUSH1 0x40 SHL SUB DUP2 GT ISZERO PUSH2 0xD01 JUMPI PUSH2 0xD01 PUSH2 0x3877 JUMP JUMPDEST PUSH1 0x40 MLOAD SWAP1 DUP1 DUP3 MSTORE DUP1 PUSH1 0x20 MUL PUSH1 0x20 ADD DUP3 ADD PUSH1 0x40 MSTORE DUP1 ISZERO PUSH2 0xD2A JUMPI DUP2 PUSH1 0x20 ADD PUSH1 0x20 DUP3 MUL DUP1 CALLDATASIZE DUP4 CALLDATACOPY ADD SWAP1 POP JUMPDEST POP SWAP3 POP DUP1 PUSH1 0x1 PUSH1 0x1 PUSH1 0x40 SHL SUB DUP2 GT ISZERO PUSH2 0xD45 JUMPI PUSH2 0xD45 PUSH2 0x3877 JUMP JUMPDEST PUSH1 0x40 MLOAD SWAP1 DUP1 DUP3 MSTORE DUP1 PUSH1 0x20 MUL PUSH1 0x20 ADD DUP3 ADD PUSH1 0x40 MSTORE DUP1 ISZERO PUSH2 0xD6E JUMPI DUP2 PUSH1 0x20 ADD PUSH1 0x20 DUP3 MUL DUP1 CALLDATASIZE DUP4 CALLDATACOPY ADD SWAP1 POP JUMPDEST POP SWAP2 POP PUSH0 JUMPDEST DUP2 DUP2 LT ISZERO PUSH2 0x1400 JUMPI PUSH1 0x40 MLOAD PUSH4 0x6C7B6ACB PUSH1 0xE1 SHL DUP2 MSTORE PUSH1 0x4 DUP2 ADD DUP3 SWAP1 MSTORE PUSH1 0x1 PUSH1 0x1 PUSH1 0xA0 SHL SUB DUP16 AND SWAP1 PUSH4 0xD8F6D596 SWAP1 PUSH1 0x24 ADD PUSH1 0x20 PUSH1 0x40 MLOAD DUP1 DUP4 SUB DUP2 DUP7 GAS STATICCALL ISZERO DUP1 ISZERO PUSH2 0xDBE JUMPI RETURNDATASIZE PUSH0 DUP1 RETURNDATACOPY RETURNDATASIZE PUSH0 REVERT JUMPDEST POP POP POP POP PUSH1 0x40 MLOAD RETURNDATASIZE PUSH1 0x1F NOT PUSH1 0x1F DUP3 ADD AND DUP3 ADD DUP1 PUSH1 0x40 MSTORE POP DUP2 ADD SWAP1 PUSH2 0xDE2 SWAP2 SWAP1 PUSH2 0x388B JUMP JUMPDEST DUP14 DUP3 DUP2 MLOAD DUP2 LT PUSH2 0xDF4 JUMPI PUSH2 0xDF4 PUSH2 0x38A6 JUMP JUMPDEST PUSH1 0x20 MUL PUSH1 0x20 ADD ADD SWAP1 PUSH1 0x1 PUSH1 0x1 PUSH1 0xA0 SHL SUB AND SWAP1 DUP2 PUSH1 0x1 PUSH1 0x1 PUSH1 0xA0 SHL SUB AND DUP2 MSTORE POP POP DUP13 DUP2 DUP2 MLOAD DUP2 LT PUSH2 0xE26 JUMPI PUSH2 0xE26 PUSH2 0x38A6 JUMP JUMPDEST PUSH1 0x20 MUL PUSH1 0x20 ADD ADD MLOAD PUSH1 0x1 PUSH1 0x1 PUSH1 0xA0 SHL SUB AND PUSH4 0xB7813607 PUSH1 0x40 MLOAD DUP2 PUSH4 0xFFFFFFFF AND PUSH1 0xE0 SHL DUP2 MSTORE PUSH1 0x4 ADD PUSH1 0x20 PUSH1 0x40 MLOAD DUP1 DUP4 SUB DUP2 DUP7 GAS STATICCALL ISZERO DUP1 ISZERO PUSH2 0xE69 JUMPI RETURNDATASIZE PUSH0 DUP1 RETURNDATACOPY RETURNDATASIZE PUSH0 REVERT JUMPDEST POP POP POP POP PUSH1 0x40 MLOAD RETURNDATASIZE PUSH1 0x1F NOT PUSH1 0x1F DUP3 ADD AND DUP3 ADD DUP1 PUSH1 0x40 MSTORE POP DUP2 ADD SWAP1 PUSH2 0xE8D SWAP2 SWAP1 PUSH2 0x388B JUMP JUMPDEST DUP13 DUP3 DUP2 MLOAD DUP2 LT PUSH2 0xE9F JUMPI PUSH2 0xE9F PUSH2 0x38A6 JUMP JUMPDEST PUSH1 0x20 MUL PUSH1 0x20 ADD ADD SWAP1 PUSH1 0x1 PUSH1 0x1 PUSH1 0xA0 SHL SUB AND SWAP1 DUP2 PUSH1 0x1 PUSH1 0x1 PUSH1 0xA0 SHL SUB AND DUP2 MSTORE POP POP PUSH0 DUP13 DUP3 DUP2 MLOAD DUP2 LT PUSH2 0xED2 JUMPI PUSH2 0xED2 PUSH2 0x38A6 JUMP JUMPDEST PUSH1 0x20 MUL PUSH1 0x20 ADD ADD MLOAD SWAP1 POP DUP1 PUSH1 0x1 PUSH1 0x1 PUSH1 0xA0 SHL SUB AND PUSH4 0x6FDDE03 PUSH1 0x40 MLOAD DUP2 PUSH4 0xFFFFFFFF AND PUSH1 0xE0 SHL DUP2 MSTORE PUSH1 0x4 ADD PUSH0 PUSH1 0x40 MLOAD DUP1 DUP4 SUB DUP2 DUP7 GAS STATICCALL ISZERO DUP1 ISZERO PUSH2 0xF17 JUMPI RETURNDATASIZE PUSH0 DUP1 RETURNDATACOPY RETURNDATASIZE PUSH0 REVERT JUMPDEST POP POP POP POP PUSH1 0x40 MLOAD RETURNDATASIZE PUSH0 DUP3 RETURNDATACOPY PUSH1 0x1F RETURNDATASIZE SWAP1 DUP2 ADD PUSH1 0x1F NOT AND DUP3 ADD PUSH1 0x40 MSTORE PUSH2 0xF3E SWAP2 SWAP1 DUP2 ADD SWAP1 PUSH2 0x38BA JUMP JUMPDEST DUP13 DUP4 DUP2 MLOAD DUP2 LT PUSH2 0xF50 JUMPI PUSH2 0xF50 PUSH2 0x38A6 JUMP JUMPDEST PUSH1 0x20 MUL PUSH1 0x20 ADD ADD DUP2 SWAP1 MSTORE POP DUP1 PUSH1 0x1 PUSH1 0x1 PUSH1 0xA0 SHL SUB AND PUSH4 0x95D89B41 PUSH1 0x40 MLOAD DUP2 PUSH4 0xFFFFFFFF AND PUSH1 0xE0 SHL DUP2 MSTORE PUSH1 0x4 ADD PUSH0 PUSH1 0x40 MLOAD DUP1 DUP4 SUB DUP2 DUP7 GAS STATICCALL ISZERO DUP1 ISZERO PUSH2 0xF96 JUMPI RETURNDATASIZE PUSH0 DUP1 RETURNDATACOPY RETURNDATASIZE PUSH0 REVERT JUMPDEST POP POP POP POP PUSH1 0x40 MLOAD RETURNDATASIZE PUSH0 DUP3 RETURNDATACOPY PUSH1 0x1F RETURNDATASIZE SWAP1 DUP2 ADD PUSH1 0x1F NOT AND DUP3 ADD PUSH1 0x40 MSTORE PUSH2 0xFBD SWAP2 SWAP1 DUP2 ADD SWAP1 PUSH2 0x38BA JUMP JUMPDEST DUP12 DUP4 DUP2 MLOAD DUP2 LT PUSH2 0xFCF JUMPI PUSH2 0xFCF PUSH2 0x38A6 JUMP JUMPDEST PUSH1 0x20 MUL PUSH1 0x20 ADD ADD DUP2 SWAP1 MSTORE POP DUP1 PUSH1 0x1 PUSH1 0x1 PUSH1 0xA0 SHL SUB AND PUSH4 0x313CE567 PUSH1 0x40 MLOAD DUP2 PUSH4 0xFFFFFFFF AND PUSH1 0xE0 SHL DUP2 MSTORE PUSH1 0x4 ADD PUSH1 0x20 PUSH1 0x40 MLOAD DUP1 DUP4 SUB DUP2 DUP7 GAS STATICCALL ISZERO DUP1 ISZERO PUSH2 0x1016 JUMPI RETURNDATASIZE PUSH0 DUP1 RETURNDATACOPY RETURNDATASIZE PUSH0 REVERT JUMPDEST POP POP POP POP PUSH1 0x40 MLOAD RETURNDATASIZE PUSH1 0x1F NOT PUSH1 0x1F DUP3 ADD AND DUP3 ADD DUP1 PUSH1 0x40 MSTORE POP DUP2 ADD SWAP1 PUSH2 0x103A SWAP2 SWAP1 PUSH2 0x3961 JUMP JUMPDEST PUSH1 0xFF AND DUP11 DUP4 DUP2 MLOAD DUP2 LT PUSH2 0x104F JUMPI PUSH2 0x104F PUSH2 0x38A6 JUMP JUMPDEST PUSH1 0x20 MUL PUSH1 0x20 ADD ADD DUP2 DUP2 MSTORE POP POP DUP14 DUP3 DUP2 MLOAD DUP2 LT PUSH2 0x106D JUMPI PUSH2 0x106D PUSH2 0x38A6 JUMP JUMPDEST PUSH1 0x20 MUL PUSH1 0x20 ADD ADD MLOAD PUSH1 0x1 PUSH1 0x1 PUSH1 0xA0 SHL SUB AND PUSH4 0xB3F05B97 PUSH1 0x40 MLOAD DUP2 PUSH4 0xFFFFFFFF AND PUSH1 0xE0 SHL DUP2 MSTORE PUSH1 0x4 ADD PUSH1 0x20 PUSH1 0x40 MLOAD DUP1 DUP4 SUB DUP2 DUP7 GAS STATICCALL ISZERO DUP1 ISZERO PUSH2 0x10B0 JUMPI RETURNDATASIZE PUSH0 DUP1 RETURNDATACOPY RETURNDATASIZE PUSH0 REVERT JUMPDEST POP POP POP POP PUSH1 0x40 MLOAD RETURNDATASIZE PUSH1 0x1F NOT PUSH1 0x1F DUP3 ADD AND DUP3 ADD DUP1 PUSH1 0x40 MSTORE POP DUP2 ADD SWAP1 PUSH2 0x10D4 SWAP2 SWAP1 PUSH2 0x39AD JUMP JUMPDEST DUP10 DUP4 DUP2 MLOAD DUP2 LT PUSH2 0x10E6 JUMPI PUSH2 0x10E6 PUSH2 0x38A6 JUMP JUMPDEST PUSH1 0x20 MUL PUSH1 0x20 ADD ADD SWAP1 ISZERO ISZERO SWAP1 DUP2 ISZERO ISZERO DUP2 MSTORE POP POP DUP14 DUP3 DUP2 MLOAD DUP2 LT PUSH2 0x110A JUMPI PUSH2 0x110A PUSH2 0x38A6 JUMP JUMPDEST PUSH1 0x20 MUL PUSH1 0x20 ADD ADD MLOAD PUSH1 0x1 PUSH1 0x1 PUSH1 0xA0 SHL SUB AND PUSH4 0x6BB38B28 PUSH1 0x40 MLOAD DUP2 PUSH4 0xFFFFFFFF AND PUSH1 0xE0 SHL DUP2 MSTORE PUSH1 0x4 ADD PUSH0 PUSH1 0x40 MLOAD DUP1 DUP4 SUB DUP2 DUP7 GAS STATICCALL ISZERO DUP1 ISZERO PUSH2 0x114C JUMPI RETURNDATASIZE PUSH0 DUP1 RETURNDATACOPY RETURNDATASIZE PUSH0 REVERT JUMPDEST POP POP POP POP PUSH1 0x40 MLOAD RETURNDATASIZE PUSH0 DUP3 RETURNDATACOPY PUSH1 0x1F RETURNDATASIZE SWAP1 DUP2 ADD PUSH1 0x1F NOT AND DUP3 ADD PUSH1 0x40 MSTORE PUSH2 0x1173 SWAP2 SWAP1 DUP2 ADD SWAP1 PUSH2 0x38BA JUMP JUMPDEST DUP9 DUP4 DUP2 MLOAD DUP2 LT PUSH2 0x1185 JUMPI PUSH2 0x1185 PUSH2 0x38A6 JUMP JUMPDEST PUSH1 0x20 MUL PUSH1 0x20 ADD ADD DUP2 SWAP1 MSTORE POP DUP14 DUP3 DUP2 MLOAD DUP2 LT PUSH2 0x11A2 JUMPI PUSH2 0x11A2 PUSH2 0x38A6 JUMP JUMPDEST PUSH1 0x20 MUL PUSH1 0x20 ADD ADD MLOAD PUSH1 0x1 PUSH1 0x1 PUSH1 0xA0 SHL SUB AND PUSH4 0x92604BC4 PUSH1 0x40 MLOAD DUP2 PUSH4 0xFFFFFFFF AND PUSH1 0xE0 SHL DUP2 MSTORE PUSH1 0x4 ADD PUSH0 PUSH1 0x40 MLOAD DUP1 DUP4 SUB DUP2 DUP7 GAS STATICCALL ISZERO DUP1 ISZERO PUSH2 0x11E4 JUMPI RETURNDATASIZE PUSH0 DUP1 RETURNDATACOPY RETURNDATASIZE PUSH0 REVERT JUMPDEST POP POP POP POP PUSH1 0x40 MLOAD RETURNDATASIZE PUSH0 DUP3 RETURNDATACOPY PUSH1 0x1F RETURNDATASIZE SWAP1 DUP2 ADD PUSH1 0x1F NOT AND DUP3 ADD PUSH1 0x40 MSTORE PUSH2 0x120B SWAP2 SWAP1 DUP2 ADD SWAP1 PUSH2 0x38BA JUMP JUMPDEST DUP8 DUP4 DUP2 MLOAD DUP2 LT PUSH2 0x121D JUMPI PUSH2 0x121D PUSH2 0x38A6 JUMP JUMPDEST PUSH1 0x20 MUL PUSH1 0x20 ADD ADD DUP2 SWAP1 MSTORE POP DUP14 DUP3 DUP2 MLOAD DUP2 LT PUSH2 0x123A JUMPI PUSH2 0x123A PUSH2 0x38A6 JUMP JUMPDEST PUSH1 0x20 MUL PUSH1 0x20 ADD ADD MLOAD PUSH1 0x1 PUSH1 0x1 PUSH1 0xA0 SHL SUB AND PUSH4 0x66087E23 PUSH1 0x40 MLOAD DUP2 PUSH4 0xFFFFFFFF AND PUSH1 0xE0 SHL DUP2 MSTORE PUSH1 0x4 ADD PUSH0 PUSH1 0x40 MLOAD DUP1 DUP4 SUB DUP2 DUP7 GAS STATICCALL ISZERO DUP1 ISZERO PUSH2 0x127C JUMPI RETURNDATASIZE PUSH0 DUP1 RETURNDATACOPY RETURNDATASIZE PUSH0 REVERT JUMPDEST POP POP POP POP PUSH1 0x40 MLOAD RETURNDATASIZE PUSH0 DUP3 RETURNDATACOPY PUSH1 0x1F RETURNDATASIZE SWAP1 DUP2 ADD PUSH1 0x1F NOT AND DUP3 ADD PUSH1 0x40 MSTORE PUSH2 0x12A3 SWAP2 SWAP1 DUP2 ADD SWAP1 PUSH2 0x38BA JUMP JUMPDEST DUP7 DUP4 DUP2 MLOAD DUP2 LT PUSH2 0x12B5 JUMPI PUSH2 0x12B5 PUSH2 0x38A6 JUMP JUMPDEST PUSH1 0x20 MUL PUSH1 0x20 ADD ADD DUP2 SWAP1 MSTORE POP DUP14 DUP3 DUP2 MLOAD DUP2 LT PUSH2 0x12D2 JUMPI PUSH2 0x12D2 PUSH2 0x38A6 JUMP JUMPDEST PUSH1 0x20 MUL PUSH1 0x20 ADD ADD MLOAD PUSH1 0x1 PUSH1 0x1 PUSH1 0xA0 SHL SUB AND PUSH4 0x7973CCF PUSH1 0x40 MLOAD DUP2 PUSH4 0xFFFFFFFF AND PUSH1 0xE0 SHL DUP2 MSTORE PUSH1 0x4 ADD PUSH1 0x20 PUSH1 0x40 MLOAD DUP1 DUP4 SUB DUP2 DUP7 GAS STATICCALL ISZERO DUP1 ISZERO PUSH2 0x1315 JUMPI RETURNDATASIZE PUSH0 DUP1 RETURNDATACOPY RETURNDATASIZE PUSH0 REVERT JUMPDEST POP POP POP POP PUSH1 0x40 MLOAD RETURNDATASIZE PUSH1 0x1F NOT PUSH1 0x1F DUP3 ADD AND DUP3 ADD DUP1 PUSH1 0x40 MSTORE POP DUP2 ADD SWAP1 PUSH2 0x1339 SWAP2 SWAP1 PUSH2 0x3860 JUMP JUMPDEST DUP6 DUP4 DUP2 MLOAD DUP2 LT PUSH2 0x134B JUMPI PUSH2 0x134B PUSH2 0x38A6 JUMP JUMPDEST PUSH1 0x20 MUL PUSH1 0x20 ADD ADD DUP2 DUP2 MSTORE POP POP DUP14 DUP3 DUP2 MLOAD DUP2 LT PUSH2 0x1369 JUMPI PUSH2 0x1369 PUSH2 0x38A6 JUMP JUMPDEST PUSH1 0x20 MUL PUSH1 0x20 ADD ADD MLOAD PUSH1 0x1 PUSH1 0x1 PUSH1 0xA0 SHL SUB AND PUSH4 0x8DA4D3C9 PUSH1 0x40 MLOAD DUP2 PUSH4 0xFFFFFFFF AND PUSH1 0xE0 SHL DUP2 MSTORE PUSH1 0x4 ADD PUSH1 0x20 PUSH1 0x40 MLOAD DUP1 DUP4 SUB DUP2 DUP7 GAS STATICCALL ISZERO DUP1 ISZERO PUSH2 0x13AC JUMPI RETURNDATASIZE PUSH0 DUP1 RETURNDATACOPY RETURNDATASIZE PUSH0 REVERT JUMPDEST POP POP POP POP PUSH1 0x40 MLOAD RETURNDATASIZE PUSH1 0x1F NOT PUSH1 0x1F DUP3 ADD AND DUP3 ADD DUP1 PUSH1 0x40 MSTORE POP DUP2 ADD SWAP1 PUSH2 0x13D0 SWAP2 SWAP1 PUSH2 0x3860 JUMP JUMPDEST DUP5 DUP4 DUP2 MLOAD DUP2 LT PUSH2 0x13E2 JUMPI PUSH2 0x13E2 PUSH2 0x38A6 JUMP JUMPDEST PUSH1 0x20 SWAP1 DUP2 MUL SWAP2 SWAP1 SWAP2 ADD ADD MSTORE POP DUP1 PUSH2 0x13F8 DUP2 PUSH2 0x3995 JUMP JUMPDEST SWAP2 POP POP PUSH2 0xD73 JUMP JUMPDEST POP POP SWAP2 SWAP4 SWAP6 SWAP8 SWAP10 SWAP12 SWAP1 SWAP3 SWAP5 SWAP7 SWAP9 SWAP11 POP JUMP JUMPDEST PUSH1 0x60 DUP1 PUSH1 0x60 DUP1 PUSH1 0x60 DUP1 PUSH1 0x60 DUP1 PUSH1 0x60 PUSH0 DUP11 PUSH1 0x1 PUSH1 0x1 PUSH1 0xA0 SHL SUB AND PUSH4 0x81E3EDA PUSH1 0x40 MLOAD DUP2 PUSH4 0xFFFFFFFF AND PUSH1 0xE0 SHL DUP2 MSTORE PUSH1 0x4 ADD PUSH1 0x20 PUSH1 0x40 MLOAD DUP1 DUP4 SUB DUP2 DUP7 GAS STATICCALL ISZERO DUP1 ISZERO PUSH2 0x145C JUMPI RETURNDATASIZE PUSH0 DUP1 RETURNDATACOPY RETURNDATASIZE PUSH0 REVERT JUMPDEST POP POP POP POP PUSH1 0x40 MLOAD RETURNDATASIZE PUSH1 0x1F NOT PUSH1 0x1F DUP3 ADD AND DUP3 ADD DUP1 PUSH1 0x40 MSTORE POP DUP2 ADD SWAP1 PUSH2 0x1480 SWAP2 SWAP1 PUSH2 0x3860 JUMP JUMPDEST SWAP1 POP DUP1 PUSH1 0x1 PUSH1 0x1 PUSH1 0x40 SHL SUB DUP2 GT ISZERO PUSH2 0x149A JUMPI PUSH2 0x149A PUSH2 0x3877 JUMP JUMPDEST PUSH1 0x40 MLOAD SWAP1 DUP1 DUP3 MSTORE DUP1 PUSH1 0x20 MUL PUSH1 0x20 ADD DUP3 ADD PUSH1 0x40 MSTORE DUP1 ISZERO PUSH2 0x14C3 JUMPI DUP2 PUSH1 0x20 ADD PUSH1 0x20 DUP3 MUL DUP1 CALLDATASIZE DUP4 CALLDATACOPY ADD SWAP1 POP JUMPDEST POP SWAP10 POP DUP1 PUSH1 0x1 PUSH1 0x1 PUSH1 0x40 SHL SUB DUP2 GT ISZERO PUSH2 0x14DE JUMPI PUSH2 0x14DE PUSH2 0x3877 JUMP JUMPDEST PUSH1 0x40 MLOAD SWAP1 DUP1 DUP3 MSTORE DUP1 PUSH1 0x20 MUL PUSH1 0x20 ADD DUP3 ADD PUSH1 0x40 MSTORE DUP1 ISZERO PUSH2 0x1507 JUMPI DUP2 PUSH1 0x20 ADD PUSH1 0x20 DUP3 MUL DUP1 CALLDATASIZE DUP4 CALLDATACOPY ADD SWAP1 POP JUMPDEST POP SWAP9 POP DUP1 PUSH1 0x1 PUSH1 0x1 PUSH1 0x40 SHL SUB DUP2 GT ISZERO PUSH2 0x1522 JUMPI PUSH2 0x1522 PUSH2 0x3877 JUMP JUMPDEST PUSH1 0x40 MLOAD SWAP1 DUP1 DUP3 MSTORE DUP1 PUSH1 0x20 MUL PUSH1 0x20 ADD DUP3 ADD PUSH1 0x40 MSTORE DUP1 ISZERO PUSH2 0x1555 JUMPI DUP2 PUSH1 0x20 ADD JUMPDEST PUSH1 0x60 DUP2 MSTORE PUSH1 0x20 ADD SWAP1 PUSH1 0x1 SWAP1 SUB SWAP1 DUP2 PUSH2 0x1540 JUMPI SWAP1 POP JUMPDEST POP SWAP8 POP DUP1 PUSH1 0x1 PUSH1 0x1 PUSH1 0x40 SHL SUB DUP2 GT ISZERO PUSH2 0x1570 JUMPI PUSH2 0x1570 PUSH2 0x3877 JUMP JUMPDEST PUSH1 0x40 MLOAD SWAP1 DUP1 DUP3 MSTORE DUP1 PUSH1 0x20 MUL PUSH1 0x20 ADD DUP3 ADD PUSH1 0x40 MSTORE DUP1 ISZERO PUSH2 0x15A3 JUMPI DUP2 PUSH1 0x20 ADD JUMPDEST PUSH1 0x60 DUP2 MSTORE PUSH1 0x20 ADD SWAP1 PUSH1 0x1 SWAP1 SUB SWAP1 DUP2 PUSH2 0x158E JUMPI SWAP1 POP JUMPDEST POP SWAP7 POP DUP1 PUSH1 0x1 PUSH1 0x1 PUSH1 0x40 SHL SUB DUP2 GT ISZERO PUSH2 0x15BE JUMPI PUSH2 0x15BE PUSH2 0x3877 JUMP JUMPDEST PUSH1 0x40 MLOAD SWAP1 DUP1 DUP3 MSTORE DUP1 PUSH1 0x20 MUL PUSH1 0x20 ADD DUP3 ADD PUSH1 0x40 MSTORE DUP1 ISZERO PUSH2 0x15E7 JUMPI DUP2 PUSH1 0x20 ADD PUSH1 0x20 DUP3 MUL DUP1 CALLDATASIZE DUP4 CALLDATACOPY ADD SWAP1 POP JUMPDEST POP SWAP6 POP DUP1 PUSH1 0x1 PUSH1 0x1 PUSH1 0x40 SHL SUB DUP2 GT ISZERO PUSH2 0x1602 JUMPI PUSH2 0x1602 PUSH2 0x3877 JUMP JUMPDEST PUSH1 0x40 MLOAD SWAP1 DUP1 DUP3 MSTORE DUP1 PUSH1 0x20 MUL PUSH1 0x20 ADD DUP3 ADD PUSH1 0x40 MSTORE DUP1 ISZERO PUSH2 0x162B JUMPI DUP2 PUSH1 0x20 ADD PUSH1 0x20 DUP3 MUL DUP1 CALLDATASIZE DUP4 CALLDATACOPY ADD SWAP1 POP JUMPDEST POP SWAP5 POP DUP1 PUSH1 0x1 PUSH1 0x1 PUSH1 0x40 SHL SUB DUP2 GT ISZERO PUSH2 0x1646 JUMPI PUSH2 0x1646 PUSH2 0x3877 JUMP JUMPDEST PUSH1 0x40 MLOAD SWAP1 DUP1 DUP3 MSTORE DUP1 PUSH1 0x20 MUL PUSH1 0x20 ADD DUP3 ADD PUSH1 0x40 MSTORE DUP1 ISZERO PUSH2 0x1679 JUMPI DUP2 PUSH1 0x20 ADD JUMPDEST PUSH1 0x60 DUP2 MSTORE PUSH1 0x20 ADD SWAP1 PUSH1 0x1 SWAP1 SUB SWAP1 DUP2 PUSH2 0x1664 JUMPI SWAP1 POP JUMPDEST POP SWAP4 POP DUP1 PUSH1 0x1 PUSH1 0x1 PUSH1 0x40 SHL SUB DUP2 GT ISZERO PUSH2 0x1694 JUMPI PUSH2 0x1694 PUSH2 0x3877 JUMP JUMPDEST PUSH1 0x40 MLOAD SWAP1 DUP1 DUP3 MSTORE DUP1 PUSH1 0x20 MUL PUSH1 0x20 ADD DUP3 ADD PUSH1 0x40 MSTORE DUP1 ISZERO PUSH2 0x16C7 JUMPI DUP2 PUSH1 0x20 ADD JUMPDEST PUSH1 0x60 DUP2 MSTORE PUSH1 0x20 ADD SWAP1 PUSH1 0x1 SWAP1 SUB SWAP1 DUP2 PUSH2 0x16B2 JUMPI SWAP1 POP JUMPDEST POP SWAP3 POP DUP1 PUSH1 0x1 PUSH1 0x1 PUSH1 0x40 SHL SUB DUP2 GT ISZERO PUSH2 0x16E2 JUMPI PUSH2 0x16E2 PUSH2 0x3877 JUMP JUMPDEST PUSH1 0x40 MLOAD SWAP1 DUP1 DUP3 MSTORE DUP1 PUSH1 0x20 MUL PUSH1 0x20 ADD DUP3 ADD PUSH1 0x40 MSTORE DUP1 ISZERO PUSH2 0x170B JUMPI DUP2 PUSH1 0x20 ADD PUSH1 0x20 DUP3 MUL DUP1 CALLDATASIZE DUP4 CALLDATACOPY ADD SWAP1 POP JUMPDEST POP SWAP2 POP PUSH0 JUMPDEST DUP2 DUP2 LT ISZERO PUSH2 0x1CAA JUMPI PUSH1 0x40 MLOAD PUSH4 0x1526FE27 PUSH1 0xE0 SHL DUP2 MSTORE PUSH1 0x4 DUP2 ADD DUP3 SWAP1 MSTORE PUSH0 SWAP1 PUSH1 0x1 PUSH1 0x1 PUSH1 0xA0 SHL SUB DUP15 AND SWAP1 PUSH4 0x1526FE27 SWAP1 PUSH1 0x24 ADD PUSH1 0x80 PUSH1 0x40 MLOAD DUP1 DUP4 SUB DUP2 DUP7 GAS STATICCALL ISZERO DUP1 ISZERO PUSH2 0x175D JUMPI RETURNDATASIZE PUSH0 DUP1 RETURNDATACOPY RETURNDATASIZE PUSH0 REVERT JUMPDEST POP POP POP POP PUSH1 0x40 MLOAD RETURNDATASIZE PUSH1 0x1F NOT PUSH1 0x1F DUP3 ADD AND DUP3 ADD DUP1 PUSH1 0x40 MSTORE POP DUP2 ADD SWAP1 PUSH2 0x1781 SWAP2 SWAP1 PUSH2 0x39CC JUMP JUMPDEST POP POP POP SWAP1 POP DUP1 DUP13 DUP4 DUP2 MLOAD DUP2 LT PUSH2 0x1799 JUMPI PUSH2 0x1799 PUSH2 0x38A6 JUMP JUMPDEST PUSH1 0x20 MUL PUSH1 0x20 ADD ADD SWAP1 PUSH1 0x1 PUSH1 0x1 PUSH1 0xA0 SHL SUB AND SWAP1 DUP2 PUSH1 0x1 PUSH1 0x1 PUSH1 0xA0 SHL SUB AND DUP2 MSTORE POP POP PUSH0 DUP13 DUP4 DUP2 MLOAD DUP2 LT PUSH2 0x17CC JUMPI PUSH2 0x17CC PUSH2 0x38A6 JUMP JUMPDEST PUSH1 0x20 MUL PUSH1 0x20 ADD ADD MLOAD SWAP1 POP DUP1 PUSH1 0x1 PUSH1 0x1 PUSH1 0xA0 SHL SUB AND PUSH4 0xDFE1681 PUSH1 0x40 MLOAD DUP2 PUSH4 0xFFFFFFFF AND PUSH1 0xE0 SHL DUP2 MSTORE PUSH1 0x4 ADD PUSH1 0x20 PUSH1 0x40 MLOAD DUP1 DUP4 SUB DUP2 DUP7 GAS STATICCALL SWAP3 POP POP POP DUP1 ISZERO PUSH2 0x1830 JUMPI POP PUSH1 0x40 DUP1 MLOAD PUSH1 0x1F RETURNDATASIZE SWAP1 DUP2 ADD PUSH1 0x1F NOT AND DUP3 ADD SWAP1 SWAP3 MSTORE PUSH2 0x182D SWAP2 DUP2 ADD SWAP1 PUSH2 0x388B JUMP JUMPDEST PUSH1 0x1 JUMPDEST ISZERO PUSH2 0x1C95 JUMPI POP DUP1 PUSH1 0x1 PUSH1 0x1 PUSH1 0xA0 SHL SUB AND PUSH4 0xDFE1681 PUSH1 0x40 MLOAD DUP2 PUSH4 0xFFFFFFFF AND PUSH1 0xE0 SHL DUP2 MSTORE PUSH1 0x4 ADD PUSH1 0x20 PUSH1 0x40 MLOAD DUP1 DUP4 SUB DUP2 DUP7 GAS STATICCALL ISZERO DUP1 ISZERO PUSH2 0x1872 JUMPI RETURNDATASIZE PUSH0 DUP1 RETURNDATACOPY RETURNDATASIZE PUSH0 REVERT JUMPDEST POP POP POP POP PUSH1 0x40 MLOAD RETURNDATASIZE PUSH1 0x1F NOT PUSH1 0x1F DUP3 ADD AND DUP3 ADD DUP1 PUSH1 0x40 MSTORE POP DUP2 ADD SWAP1 PUSH2 0x1896 SWAP2 SWAP1 PUSH2 0x388B JUMP JUMPDEST DUP13 DUP5 DUP2 MLOAD DUP2 LT PUSH2 0x18A8 JUMPI PUSH2 0x18A8 PUSH2 0x38A6 JUMP JUMPDEST PUSH1 0x20 MUL PUSH1 0x20 ADD ADD SWAP1 PUSH1 0x1 PUSH1 0x1 PUSH1 0xA0 SHL SUB AND SWAP1 DUP2 PUSH1 0x1 PUSH1 0x1 PUSH1 0xA0 SHL SUB AND DUP2 MSTORE POP POP DUP1 PUSH1 0x1 PUSH1 0x1 PUSH1 0xA0 SHL SUB AND PUSH4 0xD21220A7 PUSH1 0x40 MLOAD DUP2 PUSH4 0xFFFFFFFF AND PUSH1 0xE0 SHL DUP2 MSTORE PUSH1 0x4 ADD PUSH1 0x20 PUSH1 0x40 MLOAD DUP1 DUP4 SUB DUP2 DUP7 GAS STATICCALL ISZERO DUP1 ISZERO PUSH2 0x1904 JUMPI RETURNDATASIZE PUSH0 DUP1 RETURNDATACOPY RETURNDATASIZE PUSH0 REVERT JUMPDEST POP POP POP POP PUSH1 0x40 MLOAD RETURNDATASIZE PUSH1 0x1F NOT PUSH1 0x1F DUP3 ADD AND DUP3 ADD DUP1 PUSH1 0x40 MSTORE POP DUP2 ADD SWAP1 PUSH2 0x1928 SWAP2 SWAP1 PUSH2 0x388B JUMP JUMPDEST DUP9 DUP5 DUP2 MLOAD DUP2 LT PUSH2 0x193A JUMPI PUSH2 0x193A PUSH2 0x38A6 JUMP JUMPDEST PUSH1 0x20 MUL PUSH1 0x20 ADD ADD SWAP1 PUSH1 0x1 PUSH1 0x1 PUSH1 0xA0 SHL SUB AND SWAP1 DUP2 PUSH1 0x1 PUSH1 0x1 PUSH1 0xA0 SHL SUB AND DUP2 MSTORE POP POP PUSH0 DUP13 DUP5 DUP2 MLOAD DUP2 LT PUSH2 0x196D JUMPI PUSH2 0x196D PUSH2 0x38A6 JUMP JUMPDEST PUSH1 0x20 MUL PUSH1 0x20 ADD ADD MLOAD SWAP1 POP PUSH0 DUP10 DUP6 DUP2 MLOAD DUP2 LT PUSH2 0x198A JUMPI PUSH2 0x198A PUSH2 0x38A6 JUMP JUMPDEST PUSH1 0x20 MUL PUSH1 0x20 ADD ADD MLOAD SWAP1 POP DUP2 PUSH1 0x1 PUSH1 0x1 PUSH1 0xA0 SHL SUB AND PUSH4 0x6FDDE03 PUSH1 0x40 MLOAD DUP2 PUSH4 0xFFFFFFFF AND PUSH1 0xE0 SHL DUP2 MSTORE PUSH1 0x4 ADD PUSH0 PUSH1 0x40 MLOAD DUP1 DUP4 SUB DUP2 DUP7 GAS STATICCALL ISZERO DUP1 ISZERO PUSH2 0x19CF JUMPI RETURNDATASIZE PUSH0 DUP1 RETURNDATACOPY RETURNDATASIZE PUSH0 REVERT JUMPDEST POP POP POP POP PUSH1 0x40 MLOAD RETURNDATASIZE PUSH0 DUP3 RETURNDATACOPY PUSH1 0x1F RETURNDATASIZE SWAP1 DUP2 ADD PUSH1 0x1F NOT AND DUP3 ADD PUSH1 0x40 MSTORE PUSH2 0x19F6 SWAP2 SWAP1 DUP2 ADD SWAP1 PUSH2 0x38BA JUMP JUMPDEST DUP14 DUP7 DUP2 MLOAD DUP2 LT PUSH2 0x1A08 JUMPI PUSH2 0x1A08 PUSH2 0x38A6 JUMP JUMPDEST PUSH1 0x20 MUL PUSH1 0x20 ADD ADD DUP2 SWAP1 MSTORE POP DUP2 PUSH1 0x1 PUSH1 0x1 PUSH1 0xA0 SHL SUB AND PUSH4 0x95D89B41 PUSH1 0x40 MLOAD DUP2 PUSH4 0xFFFFFFFF AND PUSH1 0xE0 SHL DUP2 MSTORE PUSH1 0x4 ADD PUSH0 PUSH1 0x40 MLOAD DUP1 DUP4 SUB DUP2 DUP7 GAS STATICCALL ISZERO DUP1 ISZERO PUSH2 0x1A4E JUMPI RETURNDATASIZE PUSH0 DUP1 RETURNDATACOPY RETURNDATASIZE PUSH0 REVERT JUMPDEST POP POP POP POP PUSH1 0x40 MLOAD RETURNDATASIZE PUSH0 DUP3 RETURNDATACOPY PUSH1 0x1F RETURNDATASIZE SWAP1 DUP2 ADD PUSH1 0x1F NOT AND DUP3 ADD PUSH1 0x40 MSTORE PUSH2 0x1A75 SWAP2 SWAP1 DUP2 ADD SWAP1 PUSH2 0x38BA JUMP JUMPDEST DUP13 DUP7 DUP2 MLOAD DUP2 LT PUSH2 0x1A87 JUMPI PUSH2 0x1A87 PUSH2 0x38A6 JUMP JUMPDEST PUSH1 0x20 MUL PUSH1 0x20 ADD ADD DUP2 SWAP1 MSTORE POP DUP2 PUSH1 0x1 PUSH1 0x1 PUSH1 0xA0 SHL SUB AND PUSH4 0x313CE567 PUSH1 0x40 MLOAD DUP2 PUSH4 0xFFFFFFFF AND PUSH1 0xE0 SHL DUP2 MSTORE PUSH1 0x4 ADD PUSH1 0x20 PUSH1 0x40 MLOAD DUP1 DUP4 SUB DUP2 DUP7 GAS STATICCALL ISZERO DUP1 ISZERO PUSH2 0x1ACE JUMPI RETURNDATASIZE PUSH0 DUP1 RETURNDATACOPY RETURNDATASIZE PUSH0 REVERT JUMPDEST POP POP POP POP PUSH1 0x40 MLOAD RETURNDATASIZE PUSH1 0x1F NOT PUSH1 0x1F DUP3 ADD AND DUP3 ADD DUP1 PUSH1 0x40 MSTORE POP DUP2 ADD SWAP1 PUSH2 0x1AF2 SWAP2 SWAP1 PUSH2 0x3961 JUMP JUMPDEST PUSH1 0xFF AND DUP12 DUP7 DUP2 MLOAD DUP2 LT PUSH2 0x1B07 JUMPI PUSH2 0x1B07 PUSH2 0x38A6 JUMP JUMPDEST PUSH1 0x20 MUL PUSH1 0x20 ADD ADD DUP2 DUP2 MSTORE POP POP DUP1 PUSH1 0x1 PUSH1 0x1 PUSH1 0xA0 SHL SUB AND PUSH4 0x6FDDE03 PUSH1 0x40 MLOAD DUP2 PUSH4 0xFFFFFFFF AND PUSH1 0xE0 SHL DUP2 MSTORE PUSH1 0x4 ADD PUSH0 PUSH1 0x40 MLOAD DUP1 DUP4 SUB DUP2 DUP7 GAS STATICCALL ISZERO DUP1 ISZERO PUSH2 0x1B4E JUMPI RETURNDATASIZE PUSH0 DUP1 RETURNDATACOPY RETURNDATASIZE PUSH0 REVERT JUMPDEST POP POP POP POP PUSH1 0x40 MLOAD RETURNDATASIZE PUSH0 DUP3 RETURNDATACOPY PUSH1 0x1F RETURNDATASIZE SWAP1 DUP2 ADD PUSH1 0x1F NOT AND DUP3 ADD PUSH1 0x40 MSTORE PUSH2 0x1B75 SWAP2 SWAP1 DUP2 ADD SWAP1 PUSH2 0x38BA JUMP JUMPDEST DUP10 DUP7 DUP2 MLOAD DUP2 LT PUSH2 0x1B87 JUMPI PUSH2 0x1B87 PUSH2 0x38A6 JUMP JUMPDEST PUSH1 0x20 MUL PUSH1 0x20 ADD ADD DUP2 SWAP1 MSTORE POP DUP1 PUSH1 0x1 PUSH1 0x1 PUSH1 0xA0 SHL SUB AND PUSH4 0x95D89B41 PUSH1 0x40 MLOAD DUP2 PUSH4 0xFFFFFFFF AND PUSH1 0xE0 SHL DUP2 MSTORE PUSH1 0x4 ADD PUSH0 PUSH1 0x40 MLOAD DUP1 DUP4 SUB DUP2 DUP7 GAS STATICCALL ISZERO DUP1 ISZERO PUSH2 0x1BCD JUMPI RETURNDATASIZE PUSH0 DUP1 RETURNDATACOPY RETURNDATASIZE PUSH0 REVERT JUMPDEST POP POP POP POP PUSH1 0x40 MLOAD RETURNDATASIZE PUSH0 DUP3 RETURNDATACOPY PUSH1 0x1F RETURNDATASIZE SWAP1 DUP2 ADD PUSH1 0x1F NOT AND DUP3 ADD PUSH1 0x40 MSTORE PUSH2 0x1BF4 SWAP2 SWAP1 DUP2 ADD SWAP1 PUSH2 0x38BA JUMP JUMPDEST DUP9 DUP7 DUP2 MLOAD DUP2 LT PUSH2 0x1C06 JUMPI PUSH2 0x1C06 PUSH2 0x38A6 JUMP JUMPDEST PUSH1 0x20 MUL PUSH1 0x20 ADD ADD DUP2 SWAP1 MSTORE POP DUP1 PUSH1 0x1 PUSH1 0x1 PUSH1 0xA0 SHL SUB AND PUSH4 0x313CE567 PUSH1 0x40 MLOAD DUP2 PUSH4 0xFFFFFFFF AND PUSH1 0xE0 SHL DUP2 MSTORE PUSH1 0x4 ADD PUSH1 0x20 PUSH1 0x40 MLOAD DUP1 DUP4 SUB DUP2 DUP7 GAS STATICCALL ISZERO DUP1 ISZERO PUSH2 0x1C4D JUMPI RETURNDATASIZE PUSH0 DUP1 RETURNDATACOPY RETURNDATASIZE PUSH0 REVERT JUMPDEST POP POP POP POP PUSH1 0x40 MLOAD RETURNDATASIZE PUSH1 0x1F NOT PUSH1 0x1F DUP3 ADD AND DUP3 ADD DUP1 PUSH1 0x40 MSTORE POP DUP2 ADD SWAP1 PUSH2 0x1C71 SWAP2 SWAP1 PUSH2 0x3961 JUMP JUMPDEST PUSH1 0xFF AND DUP8 DUP7 DUP2 MLOAD DUP2 LT PUSH2 0x1C86 JUMPI PUSH2 0x1C86 PUSH2 0x38A6 JUMP JUMPDEST PUSH1 0x20 MUL PUSH1 0x20 ADD ADD DUP2 DUP2 MSTORE POP POP POP POP JUMPDEST POP POP DUP1 DUP1 PUSH2 0x1CA2 SWAP1 PUSH2 0x3995 JUMP JUMPDEST SWAP2 POP POP PUSH2 0x1710 JUMP JUMPDEST POP POP SWAP2 SWAP4 SWAP6 SWAP8 SWAP10 SWAP1 SWAP3 SWAP5 SWAP7 SWAP9 POP JUMP JUMPDEST PUSH1 0x60 DUP1 PUSH1 0x60 DUP1 PUSH1 0x60 PUSH0 DUP7 SWAP1 POP PUSH0 DUP2 PUSH1 0x1 PUSH1 0x1 PUSH1 0xA0 SHL SUB AND PUSH4 0xB9FB0FB7 PUSH1 0x40 MLOAD DUP2 PUSH4 0xFFFFFFFF AND PUSH1 0xE0 SHL DUP2 MSTORE PUSH1 0x4 ADD PUSH1 0x20 PUSH1 0x40 MLOAD DUP1 DUP4 SUB DUP2 DUP7 GAS STATICCALL ISZERO DUP1 ISZERO PUSH2 0x1D02 JUMPI RETURNDATASIZE PUSH0 DUP1 RETURNDATACOPY RETURNDATASIZE PUSH0 REVERT JUMPDEST POP POP POP POP PUSH1 0x40 MLOAD RETURNDATASIZE PUSH1 0x1F NOT PUSH1 0x1F DUP3 ADD AND DUP3 ADD DUP1 PUSH1 0x40 MSTORE POP DUP2 ADD SWAP1 PUSH2 0x1D26 SWAP2 SWAP1 PUSH2 0x3860 JUMP JUMPDEST SWAP1 POP DUP1 PUSH1 0x1 PUSH1 0x1 PUSH1 0x40 SHL SUB DUP2 GT ISZERO PUSH2 0x1D40 JUMPI PUSH2 0x1D40 PUSH2 0x3877 JUMP JUMPDEST PUSH1 0x40 MLOAD SWAP1 DUP1 DUP3 MSTORE DUP1 PUSH1 0x20 MUL PUSH1 0x20 ADD DUP3 ADD PUSH1 0x40 MSTORE DUP1 ISZERO PUSH2 0x1D69 JUMPI DUP2 PUSH1 0x20 ADD PUSH1 0x20 DUP3 MUL DUP1 CALLDATASIZE DUP4 CALLDATACOPY ADD SWAP1 POP JUMPDEST POP SWAP7 POP DUP1 PUSH1 0x1 PUSH1 0x1 PUSH1 0x40 SHL SUB DUP2 GT ISZERO PUSH2 0x1D84 JUMPI PUSH2 0x1D84 PUSH2 0x3877 JUMP JUMPDEST PUSH1 0x40 MLOAD SWAP1 DUP1 DUP3 MSTORE DUP1 PUSH1 0x20 MUL PUSH1 0x20 ADD DUP3 ADD PUSH1 0x40 MSTORE DUP1 ISZERO PUSH2 0x1DAD JUMPI DUP2 PUSH1 0x20 ADD PUSH1 0x20 DUP3 MUL DUP1 CALLDATASIZE DUP4 CALLDATACOPY ADD SWAP1 POP JUMPDEST POP SWAP6 POP DUP1 PUSH1 0x1 PUSH1 0x1 PUSH1 0x40 SHL SUB DUP2 GT ISZERO PUSH2 0x1DC8 JUMPI PUSH2 0x1DC8 PUSH2 0x3877 JUMP JUMPDEST PUSH1 0x40 MLOAD SWAP1 DUP1 DUP3 MSTORE DUP1 PUSH1 0x20 MUL PUSH1 0x20 ADD DUP3 ADD PUSH1 0x40 MSTORE DUP1 ISZERO PUSH2 0x1DFB JUMPI DUP2 PUSH1 0x20 ADD JUMPDEST PUSH1 0x60 DUP2 MSTORE PUSH1 0x20 ADD SWAP1 PUSH1 0x1 SWAP1 SUB SWAP1 DUP2 PUSH2 0x1DE6 JUMPI SWAP1 POP JUMPDEST POP SWAP5 POP DUP1 PUSH1 0x1 PUSH1 0x1 PUSH1 0x40 SHL SUB DUP2 GT ISZERO PUSH2 0x1E16 JUMPI PUSH2 0x1E16 PUSH2 0x3877 JUMP JUMPDEST PUSH1 0x40 MLOAD SWAP1 DUP1 DUP3 MSTORE DUP1 PUSH1 0x20 MUL PUSH1 0x20 ADD DUP3 ADD PUSH1 0x40 MSTORE DUP1 ISZERO PUSH2 0x1E49 JUMPI DUP2 PUSH1 0x20 ADD JUMPDEST PUSH1 0x60 DUP2 MSTORE PUSH1 0x20 ADD SWAP1 PUSH1 0x1 SWAP1 SUB SWAP1 DUP2 PUSH2 0x1E34 JUMPI SWAP1 POP JUMPDEST POP SWAP4 POP DUP1 PUSH1 0x1 PUSH1 0x1 PUSH1 0x40 SHL SUB DUP2 GT ISZERO PUSH2 0x1E64 JUMPI PUSH2 0x1E64 PUSH2 0x3877 JUMP JUMPDEST PUSH1 0x40 MLOAD SWAP1 DUP1 DUP3 MSTORE DUP1 PUSH1 0x20 MUL PUSH1 0x20 ADD DUP3 ADD PUSH1 0x40 MSTORE DUP1 ISZERO PUSH2 0x1EA4 JUMPI DUP2 PUSH1 0x20 ADD JUMPDEST PUSH1 0x40 DUP1 MLOAD PUSH1 0x20 DUP2 ADD SWAP1 SWAP2 MSTORE PUSH1 0x60 DUP2 MSTORE DUP2 MSTORE PUSH1 0x20 ADD SWAP1 PUSH1 0x1 SWAP1 SUB SWAP1 DUP2 PUSH2 0x1E82 JUMPI SWAP1 POP JUMPDEST POP SWAP3 POP PUSH0 JUMPDEST DUP2 DUP2 LT ISZERO PUSH2 0x22EE JUMPI PUSH1 0x40 MLOAD PUSH4 0x68BCD8D PUSH1 0xE0 SHL DUP2 MSTORE PUSH1 0x4 DUP2 ADD DUP3 SWAP1 MSTORE PUSH1 0x1 PUSH1 0x1 PUSH1 0xA0 SHL SUB DUP5 AND SWAP1 PUSH4 0x68BCD8D SWAP1 PUSH1 0x24 ADD PUSH1 0x20 PUSH1 0x40 MLOAD DUP1 DUP4 SUB DUP2 DUP7 GAS STATICCALL ISZERO DUP1 ISZERO PUSH2 0x1EF4 JUMPI RETURNDATASIZE PUSH0 DUP1 RETURNDATACOPY RETURNDATASIZE PUSH0 REVERT JUMPDEST POP POP POP POP PUSH1 0x40 MLOAD RETURNDATASIZE PUSH1 0x1F NOT PUSH1 0x1F DUP3 ADD AND DUP3 ADD DUP1 PUSH1 0x40 MSTORE POP DUP2 ADD SWAP1 PUSH2 0x1F18 SWAP2 SWAP1 PUSH2 0x388B JUMP JUMPDEST DUP9 DUP3 DUP2 MLOAD DUP2 LT PUSH2 0x1F2A JUMPI PUSH2 0x1F2A PUSH2 0x38A6 JUMP JUMPDEST PUSH1 0x20 MUL PUSH1 0x20 ADD ADD SWAP1 PUSH1 0x1 PUSH1 0x1 PUSH1 0xA0 SHL SUB AND SWAP1 DUP2 PUSH1 0x1 PUSH1 0x1 PUSH1 0xA0 SHL SUB AND DUP2 MSTORE POP POP DUP8 DUP2 DUP2 MLOAD DUP2 LT PUSH2 0x1F5C JUMPI PUSH2 0x1F5C PUSH2 0x38A6 JUMP JUMPDEST PUSH1 0x20 MUL PUSH1 0x20 ADD ADD MLOAD PUSH1 0x1 PUSH1 0x1 PUSH1 0xA0 SHL SUB AND PUSH4 0xCC7A262E PUSH1 0x40 MLOAD DUP2 PUSH4 0xFFFFFFFF AND PUSH1 0xE0 SHL DUP2 MSTORE PUSH1 0x4 ADD PUSH1 0x20 PUSH1 0x40 MLOAD DUP1 DUP4 SUB DUP2 DUP7 GAS STATICCALL ISZERO DUP1 ISZERO PUSH2 0x1F9F JUMPI RETURNDATASIZE PUSH0 DUP1 RETURNDATACOPY RETURNDATASIZE PUSH0 REVERT JUMPDEST POP POP POP POP PUSH1 0x40 MLOAD RETURNDATASIZE PUSH1 0x1F NOT PUSH1 0x1F DUP3 ADD AND DUP3 ADD DUP1 PUSH1 0x40 MSTORE POP DUP2 ADD SWAP1 PUSH2 0x1FC3 SWAP2 SWAP1 PUSH2 0x388B JUMP JUMPDEST DUP8 DUP3 DUP2 MLOAD DUP2 LT PUSH2 0x1FD5 JUMPI PUSH2 0x1FD5 PUSH2 0x38A6 JUMP JUMPDEST PUSH1 0x20 MUL PUSH1 0x20 ADD ADD SWAP1 PUSH1 0x1 PUSH1 0x1 PUSH1 0xA0 SHL SUB AND SWAP1 DUP2 PUSH1 0x1 PUSH1 0x1 PUSH1 0xA0 SHL SUB AND DUP2 MSTORE POP POP PUSH0 DUP8 DUP3 DUP2 MLOAD DUP2 LT PUSH2 0x2008 JUMPI PUSH2 0x2008 PUSH2 0x38A6 JUMP JUMPDEST PUSH1 0x20 MUL PUSH1 0x20 ADD ADD MLOAD SWAP1 POP DUP1 PUSH1 0x1 PUSH1 0x1 PUSH1 0xA0 SHL SUB AND PUSH4 0x6FDDE03 PUSH1 0x40 MLOAD DUP2 PUSH4 0xFFFFFFFF AND PUSH1 0xE0 SHL DUP2 MSTORE PUSH1 0x4 ADD PUSH0 PUSH1 0x40 MLOAD DUP1 DUP4 SUB DUP2 DUP7 GAS STATICCALL ISZERO DUP1 ISZERO PUSH2 0x204D JUMPI RETURNDATASIZE PUSH0 DUP1 RETURNDATACOPY RETURNDATASIZE PUSH0 REVERT JUMPDEST POP POP POP POP PUSH1 0x40 MLOAD RETURNDATASIZE PUSH0 DUP3 RETURNDATACOPY PUSH1 0x1F RETURNDATASIZE SWAP1 DUP2 ADD PUSH1 0x1F NOT AND DUP3 ADD PUSH1 0x40 MSTORE PUSH2 0x2074 SWAP2 SWAP1 DUP2 ADD SWAP1 PUSH2 0x38BA JUMP JUMPDEST DUP8 DUP4 DUP2 MLOAD DUP2 LT PUSH2 0x2086 JUMPI PUSH2 0x2086 PUSH2 0x38A6 JUMP JUMPDEST PUSH1 0x20 MUL PUSH1 0x20 ADD ADD DUP2 SWAP1 MSTORE POP DUP1 PUSH1 0x1 PUSH1 0x1 PUSH1 0xA0 SHL SUB AND PUSH4 0x95D89B41 PUSH1 0x40 MLOAD DUP2 PUSH4 0xFFFFFFFF AND PUSH1 0xE0 SHL DUP2 MSTORE PUSH1 0x4 ADD PUSH0 PUSH1 0x40 MLOAD DUP1 DUP4 SUB DUP2 DUP7 GAS STATICCALL ISZERO DUP1 ISZERO PUSH2 0x20CC JUMPI RETURNDATASIZE PUSH0 DUP1 RETURNDATACOPY RETURNDATASIZE PUSH0 REVERT JUMPDEST POP POP POP POP PUSH1 0x40 MLOAD RETURNDATASIZE PUSH0 DUP3 RETURNDATACOPY PUSH1 0x1F RETURNDATASIZE SWAP1 DUP2 ADD PUSH1 0x1F NOT AND DUP3 ADD PUSH1 0x40 MSTORE PUSH2 0x20F3 SWAP2 SWAP1 DUP2 ADD SWAP1 PUSH2 0x38BA JUMP JUMPDEST DUP7 DUP4 DUP2 MLOAD DUP2 LT PUSH2 0x2105 JUMPI PUSH2 0x2105 PUSH2 0x38A6 JUMP JUMPDEST PUSH1 0x20 MUL PUSH1 0x20 ADD ADD DUP2 SWAP1 MSTORE POP PUSH0 DUP10 DUP4 DUP2 MLOAD DUP2 LT PUSH2 0x2123 JUMPI PUSH2 0x2123 PUSH2 0x38A6 JUMP JUMPDEST PUSH1 0x20 MUL PUSH1 0x20 ADD ADD MLOAD PUSH1 0x1 PUSH1 0x1 PUSH1 0xA0 SHL SUB AND PUSH4 0xABB06B95 PUSH1 0x40 MLOAD DUP2 PUSH4 0xFFFFFFFF AND PUSH1 0xE0 SHL DUP2 MSTORE PUSH1 0x4 ADD PUSH1 0x20 PUSH1 0x40 MLOAD DUP1 DUP4 SUB DUP2 DUP7 GAS STATICCALL ISZERO DUP1 ISZERO PUSH2 0x2166 JUMPI RETURNDATASIZE PUSH0 DUP1 RETURNDATACOPY RETURNDATASIZE PUSH0 REVERT JUMPDEST POP POP POP POP PUSH1 0x40 MLOAD RETURNDATASIZE PUSH1 0x1F NOT PUSH1 0x1F DUP3 ADD AND DUP3 ADD DUP1 PUSH1 0x40 MSTORE POP DUP2 ADD SWAP1 PUSH2 0x218A SWAP2 SWAP1 PUSH2 0x3860 JUMP JUMPDEST SWAP1 POP PUSH0 DUP2 PUSH1 0x1 PUSH1 0x1 PUSH1 0x40 SHL SUB DUP2 GT ISZERO PUSH2 0x21A5 JUMPI PUSH2 0x21A5 PUSH2 0x3877 JUMP JUMPDEST PUSH1 0x40 MLOAD SWAP1 DUP1 DUP3 MSTORE DUP1 PUSH1 0x20 MUL PUSH1 0x20 ADD DUP3 ADD PUSH1 0x40 MSTORE DUP1 ISZERO PUSH2 0x21CE JUMPI DUP2 PUSH1 0x20 ADD PUSH1 0x20 DUP3 MUL DUP1 CALLDATASIZE DUP4 CALLDATACOPY ADD SWAP1 POP JUMPDEST POP SWAP1 POP PUSH0 JUMPDEST DUP3 DUP2 LT ISZERO PUSH2 0x22A6 JUMPI PUSH0 DUP13 DUP7 DUP2 MLOAD DUP2 LT PUSH2 0x21EE JUMPI PUSH2 0x21EE PUSH2 0x38A6 JUMP JUMPDEST PUSH1 0x20 MUL PUSH1 0x20 ADD ADD MLOAD PUSH1 0x1 PUSH1 0x1 PUSH1 0xA0 SHL SUB AND PUSH4 0x427F0B00 DUP4 PUSH1 0x40 MLOAD DUP3 PUSH4 0xFFFFFFFF AND PUSH1 0xE0 SHL DUP2 MSTORE PUSH1 0x4 ADD PUSH2 0x2223 SWAP2 DUP2 MSTORE PUSH1 0x20 ADD SWAP1 JUMP JUMPDEST PUSH1 0xA0 PUSH1 0x40 MLOAD DUP1 DUP4 SUB DUP2 DUP7 GAS STATICCALL ISZERO DUP1 ISZERO PUSH2 0x223E JUMPI RETURNDATASIZE PUSH0 DUP1 RETURNDATACOPY RETURNDATASIZE PUSH0 REVERT JUMPDEST POP POP POP POP PUSH1 0x40 MLOAD RETURNDATASIZE PUSH1 0x1F NOT PUSH1 0x1F DUP3 ADD AND DUP3 ADD DUP1 PUSH1 0x40 MSTORE POP DUP2 ADD SWAP1 PUSH2 0x2262 SWAP2 SWAP1 PUSH2 0x3A08 JUMP JUMPDEST POP POP POP POP SWAP1 POP DUP1 DUP4 DUP4 DUP2 MLOAD DUP2 LT PUSH2 0x227B JUMPI PUSH2 0x227B PUSH2 0x38A6 JUMP JUMPDEST PUSH1 0x1 PUSH1 0x1 PUSH1 0xA0 SHL SUB SWAP1 SWAP3 AND PUSH1 0x20 SWAP3 DUP4 MUL SWAP2 SWAP1 SWAP2 ADD SWAP1 SWAP2 ADD MSTORE POP DUP1 PUSH2 0x229E DUP2 PUSH2 0x3995 JUMP JUMPDEST SWAP2 POP POP PUSH2 0x21D3 JUMP JUMPDEST POP PUSH0 PUSH1 0x40 MLOAD DUP1 PUSH1 0x20 ADD PUSH1 0x40 MSTORE DUP1 DUP4 DUP2 MSTORE POP SWAP1 POP DUP1 DUP9 DUP7 DUP2 MLOAD DUP2 LT PUSH2 0x22CC JUMPI PUSH2 0x22CC PUSH2 0x38A6 JUMP JUMPDEST PUSH1 0x20 MUL PUSH1 0x20 ADD ADD DUP2 SWAP1 MSTORE POP POP POP POP POP DUP1 DUP1 PUSH2 0x22E6 SWAP1 PUSH2 0x3995 JUMP JUMPDEST SWAP2 POP POP PUSH2 0x1EA9 JUMP JUMPDEST POP POP POP SWAP2 SWAP4 SWAP6 SWAP1 SWAP3 SWAP5 POP JUMP JUMPDEST PUSH1 0x60 DUP1 DUP1 DUP1 DUP1 DUP1 DUP1 DUP1 DUP1 PUSH0 PUSH2 0x230F DUP13 DUP13 PUSH2 0x3A4D JUMP JUMPDEST SWAP1 POP DUP1 PUSH1 0x1 PUSH1 0x1 PUSH1 0x40 SHL SUB DUP2 GT ISZERO PUSH2 0x2329 JUMPI PUSH2 0x2329 PUSH2 0x3877 JUMP JUMPDEST PUSH1 0x40 MLOAD SWAP1 DUP1 DUP3 MSTORE DUP1 PUSH1 0x20 MUL PUSH1 0x20 ADD DUP3 ADD PUSH1 0x40 MSTORE DUP1 ISZERO PUSH2 0x2352 JUMPI DUP2 PUSH1 0x20 ADD PUSH1 0x20 DUP3 MUL DUP1 CALLDATASIZE DUP4 CALLDATACOPY ADD SWAP1 POP JUMPDEST POP SWAP10 POP DUP1 PUSH1 0x1 PUSH1 0x1 PUSH1 0x40 SHL SUB DUP2 GT ISZERO PUSH2 0x236D JUMPI PUSH2 0x236D PUSH2 0x3877 JUMP JUMPDEST PUSH1 0x40 MLOAD SWAP1 DUP1 DUP3 MSTORE DUP1 PUSH1 0x20 MUL PUSH1 0x20 ADD DUP3 ADD PUSH1 0x40 MSTORE DUP1 ISZERO PUSH2 0x2396 JUMPI DUP2 PUSH1 0x20 ADD PUSH1 0x20 DUP3 MUL DUP1 CALLDATASIZE DUP4 CALLDATACOPY ADD SWAP1 POP JUMPDEST POP SWAP9 POP DUP1 PUSH1 0x1 PUSH1 0x1 PUSH1 0x40 SHL SUB DUP2 GT ISZERO PUSH2 0x23B1 JUMPI PUSH2 0x23B1 PUSH2 0x3877 JUMP JUMPDEST PUSH1 0x40 MLOAD SWAP1 DUP1 DUP3 MSTORE DUP1 PUSH1 0x20 MUL PUSH1 0x20 ADD DUP3 ADD PUSH1 0x40 MSTORE DUP1 ISZERO PUSH2 0x23E4 JUMPI DUP2 PUSH1 0x20 ADD JUMPDEST PUSH1 0x60 DUP2 MSTORE PUSH1 0x20 ADD SWAP1 PUSH1 0x1 SWAP1 SUB SWAP1 DUP2 PUSH2 0x23CF JUMPI SWAP1 POP JUMPDEST POP SWAP8 POP DUP1 PUSH1 0x1 PUSH1 0x1 PUSH1 0x40 SHL SUB DUP2 GT ISZERO PUSH2 0x23FF JUMPI PUSH2 0x23FF PUSH2 0x3877 JUMP JUMPDEST PUSH1 0x40 MLOAD SWAP1 DUP1 DUP3 MSTORE DUP1 PUSH1 0x20 MUL PUSH1 0x20 ADD DUP3 ADD PUSH1 0x40 MSTORE DUP1 ISZERO PUSH2 0x2432 JUMPI DUP2 PUSH1 0x20 ADD JUMPDEST PUSH1 0x60 DUP2 MSTORE PUSH1 0x20 ADD SWAP1 PUSH1 0x1 SWAP1 SUB SWAP1 DUP2 PUSH2 0x241D JUMPI SWAP1 POP JUMPDEST POP SWAP7 POP DUP1 PUSH1 0x1 PUSH1 0x1 PUSH1 0x40 SHL SUB DUP2 GT ISZERO PUSH2 0x244D JUMPI PUSH2 0x244D PUSH2 0x3877 JUMP JUMPDEST PUSH1 0x40 MLOAD SWAP1 DUP1 DUP3 MSTORE DUP1 PUSH1 0x20 MUL PUSH1 0x20 ADD DUP3 ADD PUSH1 0x40 MSTORE DUP1 ISZERO PUSH2 0x2476 JUMPI DUP2 PUSH1 0x20 ADD PUSH1 0x20 DUP3 MUL DUP1 CALLDATASIZE DUP4 CALLDATACOPY ADD SWAP1 POP JUMPDEST POP SWAP6 POP DUP1 PUSH1 0x1 PUSH1 0x1 PUSH1 0x40 SHL SUB DUP2 GT ISZERO PUSH2 0x2491 JUMPI PUSH2 0x2491 PUSH2 0x3877 JUMP JUMPDEST PUSH1 0x40 MLOAD SWAP1 DUP1 DUP3 MSTORE DUP1 PUSH1 0x20 MUL PUSH1 0x20 ADD DUP3 ADD PUSH1 0x40 MSTORE DUP1 ISZERO PUSH2 0x24BA JUMPI DUP2 PUSH1 0x20 ADD PUSH1 0x20 DUP3 MUL DUP1 CALLDATASIZE DUP4 CALLDATACOPY ADD SWAP1 POP JUMPDEST POP SWAP5 POP DUP1 PUSH1 0x1 PUSH1 0x1 PUSH1 0x40 SHL SUB DUP2 GT ISZERO PUSH2 0x24D5 JUMPI PUSH2 0x24D5 PUSH2 0x3877 JUMP JUMPDEST PUSH1 0x40 MLOAD SWAP1 DUP1 DUP3 MSTORE DUP1 PUSH1 0x20 MUL PUSH1 0x20 ADD DUP3 ADD PUSH1 0x40 MSTORE DUP1 ISZERO PUSH2 0x2508 JUMPI DUP2 PUSH1 0x20 ADD JUMPDEST PUSH1 0x60 DUP2 MSTORE PUSH1 0x20 ADD SWAP1 PUSH1 0x1 SWAP1 SUB SWAP1 DUP2 PUSH2 0x24F3 JUMPI SWAP1 POP JUMPDEST POP SWAP4 POP DUP1 PUSH1 0x1 PUSH1 0x1 PUSH1 0x40 SHL SUB DUP2 GT ISZERO PUSH2 0x2523 JUMPI PUSH2 0x2523 PUSH2 0x3877 JUMP JUMPDEST PUSH1 0x40 MLOAD SWAP1 DUP1 DUP3 MSTORE DUP1 PUSH1 0x20 MUL PUSH1 0x20 ADD DUP3 ADD PUSH1 0x40 MSTORE DUP1 ISZERO PUSH2 0x2556 JUMPI DUP2 PUSH1 0x20 ADD JUMPDEST PUSH1 0x60 DUP2 MSTORE PUSH1 0x20 ADD SWAP1 PUSH1 0x1 SWAP1 SUB SWAP1 DUP2 PUSH2 0x2541 JUMPI SWAP1 POP JUMPDEST POP SWAP3 POP DUP1 PUSH1 0x1 PUSH1 0x1 PUSH1 0x40 SHL SUB DUP2 GT ISZERO PUSH2 0x2571 JUMPI PUSH2 0x2571 PUSH2 0x3877 JUMP JUMPDEST PUSH1 0x40 MLOAD SWAP1 DUP1 DUP3 MSTORE DUP1 PUSH1 0x20 MUL PUSH1 0x20 ADD DUP3 ADD PUSH1 0x40 MSTORE DUP1 ISZERO PUSH2 0x259A JUMPI DUP2 PUSH1 0x20 ADD PUSH1 0x20 DUP3 MUL DUP1 CALLDATASIZE DUP4 CALLDATACOPY ADD SWAP1 POP JUMPDEST POP SWAP2 POP PUSH0 JUMPDEST DUP2 DUP2 LT ISZERO PUSH2 0x2AE0 JUMPI DUP14 PUSH1 0x1 PUSH1 0x1 PUSH1 0xA0 SHL SUB AND PUSH4 0x1E3DD18B DUP3 DUP16 PUSH2 0x25C2 SWAP2 SWAP1 PUSH2 0x3A66 JUMP JUMPDEST PUSH1 0x40 MLOAD DUP3 PUSH4 0xFFFFFFFF AND PUSH1 0xE0 SHL DUP2 MSTORE PUSH1 0x4 ADD PUSH2 0x25E0 SWAP2 DUP2 MSTORE PUSH1 0x20 ADD SWAP1 JUMP JUMPDEST PUSH1 0x20 PUSH1 0x40 MLOAD DUP1 DUP4 SUB DUP2 DUP7 GAS STATICCALL ISZERO DUP1 ISZERO PUSH2 0x25FB JUMPI RETURNDATASIZE PUSH0 DUP1 RETURNDATACOPY RETURNDATASIZE PUSH0 REVERT JUMPDEST POP POP POP POP PUSH1 0x40 MLOAD RETURNDATASIZE PUSH1 0x1F NOT PUSH1 0x1F DUP3 ADD AND DUP3 ADD DUP1 PUSH1 0x40 MSTORE POP DUP2 ADD SWAP1 PUSH2 0x261F SWAP2 SWAP1 PUSH2 0x388B JUMP JUMPDEST DUP12 DUP3 DUP2 MLOAD DUP2 LT PUSH2 0x2631 JUMPI PUSH2 0x2631 PUSH2 0x38A6 JUMP JUMPDEST PUSH1 0x20 MUL PUSH1 0x20 ADD ADD SWAP1 PUSH1 0x1 PUSH1 0x1 PUSH1 0xA0 SHL SUB AND SWAP1 DUP2 PUSH1 0x1 PUSH1 0x1 PUSH1 0xA0 SHL SUB AND DUP2 MSTORE POP POP PUSH0 DUP12 DUP3 DUP2 MLOAD DUP2 LT PUSH2 0x2664 JUMPI PUSH2 0x2664 PUSH2 0x38A6 JUMP JUMPDEST PUSH1 0x20 MUL PUSH1 0x20 ADD ADD MLOAD SWAP1 POP DUP1 PUSH1 0x1 PUSH1 0x1 PUSH1 0xA0 SHL SUB AND PUSH4 0xDFE1681 PUSH1 0x40 MLOAD DUP2 PUSH4 0xFFFFFFFF AND PUSH1 0xE0 SHL DUP2 MSTORE PUSH1 0x4 ADD PUSH1 0x20 PUSH1 0x40 MLOAD DUP1 DUP4 SUB DUP2 DUP7 GAS STATICCALL ISZERO DUP1 ISZERO PUSH2 0x26AA JUMPI RETURNDATASIZE PUSH0 DUP1 RETURNDATACOPY RETURNDATASIZE PUSH0 REVERT JUMPDEST POP POP POP POP PUSH1 0x40 MLOAD RETURNDATASIZE PUSH1 0x1F NOT PUSH1 0x1F DUP3 ADD AND DUP3 ADD DUP1 PUSH1 0x40 MSTORE POP DUP2 ADD SWAP1 PUSH2 0x26CE SWAP2 SWAP1 PUSH2 0x388B JUMP JUMPDEST DUP12 DUP4 DUP2 MLOAD DUP2 LT PUSH2 0x26E0 JUMPI PUSH2 0x26E0 PUSH2 0x38A6 JUMP JUMPDEST PUSH1 0x20 MUL PUSH1 0x20 ADD ADD SWAP1 PUSH1 0x1 PUSH1 0x1 PUSH1 0xA0 SHL SUB AND SWAP1 DUP2 PUSH1 0x1 PUSH1 0x1 PUSH1 0xA0 SHL SUB AND DUP2 MSTORE POP POP DUP1 PUSH1 0x1 PUSH1 0x1 PUSH1 0xA0 SHL SUB AND PUSH4 0xD21220A7 PUSH1 0x40 MLOAD DUP2 PUSH4 0xFFFFFFFF AND PUSH1 0xE0 SHL DUP2 MSTORE PUSH1 0x4 ADD PUSH1 0x20 PUSH1 0x40 MLOAD DUP1 DUP4 SUB DUP2 DUP7 GAS STATICCALL ISZERO DUP1 ISZERO PUSH2 0x273C JUMPI RETURNDATASIZE PUSH0 DUP1 RETURNDATACOPY RETURNDATASIZE PUSH0 REVERT JUMPDEST POP POP POP POP PUSH1 0x40 MLOAD RETURNDATASIZE PUSH1 0x1F NOT PUSH1 0x1F DUP3 ADD AND DUP3 ADD DUP1 PUSH1 0x40 MSTORE POP DUP2 ADD SWAP1 PUSH2 0x2760 SWAP2 SWAP1 PUSH2 0x388B JUMP JUMPDEST DUP8 DUP4 DUP2 MLOAD DUP2 LT PUSH2 0x2772 JUMPI PUSH2 0x2772 PUSH2 0x38A6 JUMP JUMPDEST PUSH1 0x20 MUL PUSH1 0x20 ADD ADD SWAP1 PUSH1 0x1 PUSH1 0x1 PUSH1 0xA0 SHL SUB AND SWAP1 DUP2 PUSH1 0x1 PUSH1 0x1 PUSH1 0xA0 SHL SUB AND DUP2 MSTORE POP POP PUSH0 DUP12 DUP4 DUP2 MLOAD DUP2 LT PUSH2 0x27A5 JUMPI PUSH2 0x27A5 PUSH2 0x38A6 JUMP JUMPDEST PUSH1 0x20 MUL PUSH1 0x20 ADD ADD MLOAD SWAP1 POP PUSH0 DUP9 DUP5 DUP2 MLOAD DUP2 LT PUSH2 0x27C2 JUMPI PUSH2 0x27C2 PUSH2 0x38A6 JUMP JUMPDEST PUSH1 0x20 MUL PUSH1 0x20 ADD ADD MLOAD SWAP1 POP DUP2 PUSH1 0x1 PUSH1 0x1 PUSH1 0xA0 SHL SUB AND PUSH4 0x6FDDE03 PUSH1 0x40 MLOAD DUP2 PUSH4 0xFFFFFFFF AND PUSH1 0xE0 SHL DUP2 MSTORE PUSH1 0x4 ADD PUSH0 PUSH1 0x40 MLOAD DUP1 DUP4 SUB DUP2 DUP7 GAS STATICCALL ISZERO DUP1 ISZERO PUSH2 0x2807 JUMPI RETURNDATASIZE PUSH0 DUP1 RETURNDATACOPY RETURNDATASIZE PUSH0 REVERT JUMPDEST POP POP POP POP PUSH1 0x40 MLOAD RETURNDATASIZE PUSH0 DUP3 RETURNDATACOPY PUSH1 0x1F RETURNDATASIZE SWAP1 DUP2 ADD PUSH1 0x1F NOT AND DUP3 ADD PUSH1 0x40 MSTORE PUSH2 0x282E SWAP2 SWAP1 DUP2 ADD SWAP1 PUSH2 0x38BA JUMP JUMPDEST DUP13 DUP6 DUP2 MLOAD DUP2 LT PUSH2 0x2840 JUMPI PUSH2 0x2840 PUSH2 0x38A6 JUMP JUMPDEST PUSH1 0x20 MUL PUSH1 0x20 ADD ADD DUP2 SWAP1 MSTORE POP DUP2 PUSH1 0x1 PUSH1 0x1 PUSH1 0xA0 SHL SUB AND PUSH4 0x95D89B41 PUSH1 0x40 MLOAD DUP2 PUSH4 0xFFFFFFFF AND PUSH1 0xE0 SHL DUP2 MSTORE PUSH1 0x4 ADD PUSH0 PUSH1 0x40 MLOAD DUP1 DUP4 SUB DUP2 DUP7 GAS STATICCALL ISZERO DUP1 ISZERO PUSH2 0x2886 JUMPI RETURNDATASIZE PUSH0 DUP1 RETURNDATACOPY RETURNDATASIZE PUSH0 REVERT JUMPDEST POP POP POP POP PUSH1 0x40 MLOAD RETURNDATASIZE PUSH0 DUP3 RETURNDATACOPY PUSH1 0x1F RETURNDATASIZE SWAP1 DUP2 ADD PUSH1 0x1F NOT AND DUP3 ADD PUSH1 0x40 MSTORE PUSH2 0x28AD SWAP2 SWAP1 DUP2 ADD SWAP1 PUSH2 0x38BA JUMP JUMPDEST DUP12 DUP6 DUP2 MLOAD DUP2 LT PUSH2 0x28BF JUMPI PUSH2 0x28BF PUSH2 0x38A6 JUMP JUMPDEST PUSH1 0x20 MUL PUSH1 0x20 ADD ADD DUP2 SWAP1 MSTORE POP DUP2 PUSH1 0x1 PUSH1 0x1 PUSH1 0xA0 SHL SUB AND PUSH4 0x313CE567 PUSH1 0x40 MLOAD DUP2 PUSH4 0xFFFFFFFF AND PUSH1 0xE0 SHL DUP2 MSTORE PUSH1 0x4 ADD PUSH1 0x20 PUSH1 0x40 MLOAD DUP1 DUP4 SUB DUP2 DUP7 GAS STATICCALL ISZERO DUP1 ISZERO PUSH2 0x2906 JUMPI RETURNDATASIZE PUSH0 DUP1 RETURNDATACOPY RETURNDATASIZE PUSH0 REVERT JUMPDEST POP POP POP POP PUSH1 0x40 MLOAD RETURNDATASIZE PUSH1 0x1F NOT PUSH1 0x1F DUP3 ADD AND DUP3 ADD DUP1 PUSH1 0x40 MSTORE POP DUP2 ADD SWAP1 PUSH2 0x292A SWAP2 SWAP1 PUSH2 0x3961 JUMP JUMPDEST PUSH1 0xFF AND DUP11 DUP6 DUP2 MLOAD DUP2 LT PUSH2 0x293F JUMPI PUSH2 0x293F PUSH2 0x38A6 JUMP JUMPDEST PUSH1 0x20 MUL PUSH1 0x20 ADD ADD DUP2 DUP2 MSTORE POP POP DUP1 PUSH1 0x1 PUSH1 0x1 PUSH1 0xA0 SHL SUB AND PUSH4 0x6FDDE03 PUSH1 0x40 MLOAD DUP2 PUSH4 0xFFFFFFFF AND PUSH1 0xE0 SHL DUP2 MSTORE PUSH1 0x4 ADD PUSH0 PUSH1 0x40 MLOAD DUP1 DUP4 SUB DUP2 DUP7 GAS STATICCALL ISZERO DUP1 ISZERO PUSH2 0x2986 JUMPI RETURNDATASIZE PUSH0 DUP1 RETURNDATACOPY RETURNDATASIZE PUSH0 REVERT JUMPDEST POP POP POP POP PUSH1 0x40 MLOAD RETURNDATASIZE PUSH0 DUP3 RETURNDATACOPY PUSH1 0x1F RETURNDATASIZE SWAP1 DUP2 ADD PUSH1 0x1F NOT AND DUP3 ADD PUSH1 0x40 MSTORE PUSH2 0x29AD SWAP2 SWAP1 DUP2 ADD SWAP1 PUSH2 0x38BA JUMP JUMPDEST DUP9 DUP6 DUP2 MLOAD DUP2 LT PUSH2 0x29BF JUMPI PUSH2 0x29BF PUSH2 0x38A6 JUMP JUMPDEST PUSH1 0x20 MUL PUSH1 0x20 ADD ADD DUP2 SWAP1 MSTORE POP DUP1 PUSH1 0x1 PUSH1 0x1 PUSH1 0xA0 SHL SUB AND PUSH4 0x95D89B41 PUSH1 0x40 MLOAD DUP2 PUSH4 0xFFFFFFFF AND PUSH1 0xE0 SHL DUP2 MSTORE PUSH1 0x4 ADD PUSH0 PUSH1 0x40 MLOAD DUP1 DUP4 SUB DUP2 DUP7 GAS STATICCALL ISZERO DUP1 ISZERO PUSH2 0x2A05 JUMPI RETURNDATASIZE PUSH0 DUP1 RETURNDATACOPY RETURNDATASIZE PUSH0 REVERT JUMPDEST POP POP POP POP PUSH1 0x40 MLOAD RETURNDATASIZE PUSH0 DUP3 RETURNDATACOPY PUSH1 0x1F RETURNDATASIZE SWAP1 DUP2 ADD PUSH1 0x1F NOT AND DUP3 ADD PUSH1 0x40 MSTORE PUSH2 0x2A2C SWAP2 SWAP1 DUP2 ADD SWAP1 PUSH2 0x38BA JUMP JUMPDEST DUP8 DUP6 DUP2 MLOAD DUP2 LT PUSH2 0x2A3E JUMPI PUSH2 0x2A3E PUSH2 0x38A6 JUMP JUMPDEST PUSH1 0x20 MUL PUSH1 0x20 ADD ADD DUP2 SWAP1 MSTORE POP DUP1 PUSH1 0x1 PUSH1 0x1 PUSH1 0xA0 SHL SUB AND PUSH4 0x313CE567 PUSH1 0x40 MLOAD DUP2 PUSH4 0xFFFFFFFF AND PUSH1 0xE0 SHL DUP2 MSTORE PUSH1 0x4 ADD PUSH1 0x20 PUSH1 0x40 MLOAD DUP1 DUP4 SUB DUP2 DUP7 GAS STATICCALL ISZERO DUP1 ISZERO PUSH2 0x2A85 JUMPI RETURNDATASIZE PUSH0 DUP1 RETURNDATACOPY RETURNDATASIZE PUSH0 REVERT JUMPDEST POP POP POP POP PUSH1 0x40 MLOAD RETURNDATASIZE PUSH1 0x1F NOT PUSH1 0x1F DUP3 ADD AND DUP3 ADD DUP1 PUSH1 0x40 MSTORE POP DUP2 ADD SWAP1 PUSH2 0x2AA9 SWAP2 SWAP1 PUSH2 0x3961 JUMP JUMPDEST PUSH1 0xFF AND DUP7 DUP6 DUP2 MLOAD DUP2 LT PUSH2 0x2ABE JUMPI PUSH2 0x2ABE PUSH2 0x38A6 JUMP JUMPDEST PUSH1 0x20 MUL PUSH1 0x20 ADD ADD DUP2 DUP2 MSTORE POP POP POP POP POP DUP1 DUP1 PUSH2 0x2AD8 SWAP1 PUSH2 0x3995 JUMP JUMPDEST SWAP2 POP POP PUSH2 0x259F JUMP JUMPDEST POP POP SWAP4 SWAP8 SWAP12 SWAP3 SWAP7 SWAP11 POP SWAP4 SWAP8 POP SWAP4 SWAP8 POP JUMP JUMPDEST PUSH0 DUP1 PUSH0 DUP1 PUSH0 DUP1 DUP10 PUSH1 0x1 PUSH1 0x1 PUSH1 0xA0 SHL SUB AND PUSH4 0x1526FE27 DUP13 PUSH1 0x40 MLOAD DUP3 PUSH4 0xFFFFFFFF AND PUSH1 0xE0 SHL DUP2 MSTORE PUSH1 0x4 ADD PUSH2 0x2B25 SWAP2 DUP2 MSTORE PUSH1 0x20 ADD SWAP1 JUMP JUMPDEST PUSH1 0x80 PUSH1 0x40 MLOAD DUP1 DUP4 SUB DUP2 DUP7 GAS STATICCALL ISZERO DUP1 ISZERO PUSH2 0x2B40 JUMPI RETURNDATASIZE PUSH0 DUP1 RETURNDATACOPY RETURNDATASIZE PUSH0 REVERT JUMPDEST POP POP POP POP PUSH1 0x40 MLOAD RETURNDATASIZE PUSH1 0x1F NOT PUSH1 0x1F DUP3 ADD AND DUP3 ADD DUP1 PUSH1 0x40 MSTORE POP DUP2 ADD SWAP1 PUSH2 0x2B64 SWAP2 SWAP1 PUSH2 0x39CC JUMP JUMPDEST SWAP1 SWAP2 SWAP3 POP SWAP1 POP POP DUP1 SWAP7 POP POP DUP10 PUSH1 0x1 PUSH1 0x1 PUSH1 0xA0 SHL SUB AND PUSH4 0x17CAF6F1 PUSH1 0x40 MLOAD DUP2 PUSH4 0xFFFFFFFF AND PUSH1 0xE0 SHL DUP2 MSTORE PUSH1 0x4 ADD PUSH1 0x20 PUSH1 0x40 MLOAD DUP1 DUP4 SUB DUP2 DUP7 GAS STATICCALL ISZERO DUP1 ISZERO PUSH2 0x2BAB JUMPI RETURNDATASIZE PUSH0 DUP1 RETURNDATACOPY RETURNDATASIZE PUSH0 REVERT JUMPDEST POP POP POP POP PUSH1 0x40 MLOAD RETURNDATASIZE PUSH1 0x1F NOT PUSH1 0x1F DUP3 ADD AND DUP3 ADD DUP1 PUSH1 0x40 MSTORE POP DUP2 ADD SWAP1 PUSH2 0x2BCF SWAP2 SWAP1 PUSH2 0x3860 JUMP JUMPDEST PUSH1 0x40 MLOAD PUSH4 0x70A08231 PUSH1 0xE0 SHL DUP2 MSTORE PUSH1 0x1 PUSH1 0x1 PUSH1 0xA0 SHL SUB DUP12 DUP2 AND PUSH1 0x4 DUP4 ADD MSTORE SWAP2 SWAP7 POP SWAP1 DUP9 AND SWAP1 PUSH4 0x70A08231 SWAP1 PUSH1 0x24 ADD PUSH1 0x20 PUSH1 0x40 MLOAD DUP1 DUP4 SUB DUP2 DUP7 GAS STATICCALL ISZERO DUP1 ISZERO PUSH2 0x2C17 JUMPI RETURNDATASIZE PUSH0 DUP1 RETURNDATACOPY RETURNDATASIZE PUSH0 REVERT JUMPDEST POP POP POP POP PUSH1 0x40 MLOAD RETURNDATASIZE PUSH1 0x1F NOT PUSH1 0x1F DUP3 ADD AND DUP3 ADD DUP1 PUSH1 0x40 MSTORE POP DUP2 ADD SWAP1 PUSH2 0x2C3B SWAP2 SWAP1 PUSH2 0x3860 JUMP JUMPDEST PUSH1 0x40 MLOAD PUSH4 0x70A08231 PUSH1 0xE0 SHL DUP2 MSTORE PUSH1 0x1 PUSH1 0x1 PUSH1 0xA0 SHL SUB DUP12 DUP2 AND PUSH1 0x4 DUP4 ADD MSTORE SWAP2 SWAP6 POP SWAP1 DUP10 AND SWAP1 PUSH4 0x70A08231 SWAP1 PUSH1 0x24 ADD PUSH1 0x20 PUSH1 0x40 MLOAD DUP1 DUP4 SUB DUP2 DUP7 GAS STATICCALL ISZERO DUP1 ISZERO PUSH2 0x2C83 JUMPI RETURNDATASIZE PUSH0 DUP1 RETURNDATACOPY RETURNDATASIZE PUSH0 REVERT JUMPDEST POP POP POP POP PUSH1 0x40 MLOAD RETURNDATASIZE PUSH1 0x1F NOT PUSH1 0x1F DUP3 ADD AND DUP3 ADD DUP1 PUSH1 0x40 MSTORE POP DUP2 ADD SWAP1 PUSH2 0x2CA7 SWAP2 SWAP1 PUSH2 0x3860 JUMP JUMPDEST PUSH1 0x40 MLOAD PUSH4 0x70A08231 PUSH1 0xE0 SHL DUP2 MSTORE PUSH1 0x1 PUSH1 0x1 PUSH1 0xA0 SHL SUB DUP13 DUP2 AND PUSH1 0x4 DUP4 ADD MSTORE SWAP2 SWAP5 POP SWAP1 DUP11 AND SWAP1 PUSH4 0x70A08231 SWAP1 PUSH1 0x24 ADD PUSH1 0x20 PUSH1 0x40 MLOAD DUP1 DUP4 SUB DUP2 DUP7 GAS STATICCALL ISZERO DUP1 ISZERO PUSH2 0x2CEF JUMPI RETURNDATASIZE PUSH0 DUP1 RETURNDATACOPY RETURNDATASIZE PUSH0 REVERT JUMPDEST POP POP POP POP PUSH1 0x40 MLOAD RETURNDATASIZE PUSH1 0x1F NOT PUSH1 0x1F DUP3 ADD AND DUP3 ADD DUP1 PUSH1 0x40 MSTORE POP DUP2 ADD SWAP1 PUSH2 0x2D13 SWAP2 SWAP1 PUSH2 0x3860 JUMP JUMPDEST SWAP2 POP DUP9 PUSH1 0x1 PUSH1 0x1 PUSH1 0xA0 SHL SUB AND PUSH4 0x18160DDD PUSH1 0x40 MLOAD DUP2 PUSH4 0xFFFFFFFF AND PUSH1 0xE0 SHL DUP2 MSTORE PUSH1 0x4 ADD PUSH1 0x20 PUSH1 0x40 MLOAD DUP1 DUP4 SUB DUP2 DUP7 GAS STATICCALL ISZERO DUP1 ISZERO PUSH2 0x2D51 JUMPI RETURNDATASIZE PUSH0 DUP1 RETURNDATACOPY RETURNDATASIZE PUSH0 REVERT JUMPDEST POP POP POP POP PUSH1 0x40 MLOAD RETURNDATASIZE PUSH1 0x1F NOT PUSH1 0x1F DUP3 ADD AND DUP3 ADD DUP1 PUSH1 0x40 MSTORE POP DUP2 ADD SWAP1 PUSH2 0x2D75 SWAP2 SWAP1 PUSH2 0x3860 JUMP JUMPDEST SWAP1 POP SWAP6 POP SWAP6 POP SWAP6 POP SWAP6 POP SWAP6 POP SWAP6 JUMP JUMPDEST PUSH1 0x60 DUP1 PUSH1 0x60 DUP1 PUSH1 0x60 DUP1 PUSH0 DUP8 PUSH1 0x1 PUSH1 0x1 PUSH1 0xA0 SHL SUB AND PUSH4 0xE8096D45 PUSH1 0x40 MLOAD DUP2 PUSH4 0xFFFFFFFF AND PUSH1 0xE0 SHL DUP2 MSTORE PUSH1 0x4 ADD PUSH1 0x20 PUSH1 0x40 MLOAD DUP1 DUP4 SUB DUP2 DUP7 GAS STATICCALL ISZERO DUP1 ISZERO PUSH2 0x2DCA JUMPI RETURNDATASIZE PUSH0 DUP1 RETURNDATACOPY RETURNDATASIZE PUSH0 REVERT JUMPDEST POP POP POP POP PUSH1 0x40 MLOAD RETURNDATASIZE PUSH1 0x1F NOT PUSH1 0x1F DUP3 ADD AND DUP3 ADD DUP1 PUSH1 0x40 MSTORE POP DUP2 ADD SWAP1 PUSH2 0x2DEE SWAP2 SWAP1 PUSH2 0x3860 JUMP JUMPDEST SWAP1 POP DUP1 PUSH1 0x1 PUSH1 0x1 PUSH1 0x40 SHL SUB DUP2 GT ISZERO PUSH2 0x2E08 JUMPI PUSH2 0x2E08 PUSH2 0x3877 JUMP JUMPDEST PUSH1 0x40 MLOAD SWAP1 DUP1 DUP3 MSTORE DUP1 PUSH1 0x20 MUL PUSH1 0x20 ADD DUP3 ADD PUSH1 0x40 MSTORE DUP1 ISZERO PUSH2 0x2E31 JUMPI DUP2 PUSH1 0x20 ADD PUSH1 0x20 DUP3 MUL DUP1 CALLDATASIZE DUP4 CALLDATACOPY ADD SWAP1 POP JUMPDEST POP SWAP7 POP DUP1 PUSH1 0x1 PUSH1 0x1 PUSH1 0x40 SHL SUB DUP2 GT ISZERO PUSH2 0x2E4C JUMPI PUSH2 0x2E4C PUSH2 0x3877 JUMP JUMPDEST PUSH1 0x40 MLOAD SWAP1 DUP1 DUP3 MSTORE DUP1 PUSH1 0x20 MUL PUSH1 0x20 ADD DUP3 ADD PUSH1 0x40 MSTORE DUP1 ISZERO PUSH2 0x2E75 JUMPI DUP2 PUSH1 0x20 ADD PUSH1 0x20 DUP3 MUL DUP1 CALLDATASIZE DUP4 CALLDATACOPY ADD SWAP1 POP JUMPDEST POP SWAP6 POP DUP1 PUSH1 0x1 PUSH1 0x1 PUSH1 0x40 SHL SUB DUP2 GT ISZERO PUSH2 0x2E90 JUMPI PUSH2 0x2E90 PUSH2 0x3877 JUMP JUMPDEST PUSH1 0x40 MLOAD SWAP1 DUP1 DUP3 MSTORE DUP1 PUSH1 0x20 MUL PUSH1 0x20 ADD DUP3 ADD PUSH1 0x40 MSTORE DUP1 ISZERO PUSH2 0x2EC3 JUMPI DUP2 PUSH1 0x20 ADD JUMPDEST PUSH1 0x60 DUP2 MSTORE PUSH1 0x20 ADD SWAP1 PUSH1 0x1 SWAP1 SUB SWAP1 DUP2 PUSH2 0x2EAE JUMPI SWAP1 POP JUMPDEST POP SWAP5 POP DUP1 PUSH1 0x1 PUSH1 0x1 PUSH1 0x40 SHL SUB DUP2 GT ISZERO PUSH2 0x2EDE JUMPI PUSH2 0x2EDE PUSH2 0x3877 JUMP JUMPDEST PUSH1 0x40 MLOAD SWAP1 DUP1 DUP3 MSTORE DUP1 PUSH1 0x20 MUL PUSH1 0x20 ADD DUP3 ADD PUSH1 0x40 MSTORE DUP1 ISZERO PUSH2 0x2F11 JUMPI DUP2 PUSH1 0x20 ADD JUMPDEST PUSH1 0x60 DUP2 MSTORE PUSH1 0x20 ADD SWAP1 PUSH1 0x1 SWAP1 SUB SWAP1 DUP2 PUSH2 0x2EFC JUMPI SWAP1 POP JUMPDEST POP SWAP4 POP DUP1 PUSH1 0x1 PUSH1 0x1 PUSH1 0x40 SHL SUB DUP2 GT ISZERO PUSH2 0x2F2C JUMPI PUSH2 0x2F2C PUSH2 0x3877 JUMP JUMPDEST PUSH1 0x40 MLOAD SWAP1 DUP1 DUP3 MSTORE DUP1 PUSH1 0x20 MUL PUSH1 0x20 ADD DUP3 ADD PUSH1 0x40 MSTORE DUP1 ISZERO PUSH2 0x2F55 JUMPI DUP2 PUSH1 0x20 ADD PUSH1 0x20 DUP3 MUL DUP1 CALLDATASIZE DUP4 CALLDATACOPY ADD SWAP1 POP JUMPDEST POP SWAP3 POP DUP1 PUSH1 0x1 PUSH1 0x1 PUSH1 0x40 SHL SUB DUP2 GT ISZERO PUSH2 0x2F70 JUMPI PUSH2 0x2F70 PUSH2 0x3877 JUMP JUMPDEST PUSH1 0x40 MLOAD SWAP1 DUP1 DUP3 MSTORE DUP1 PUSH1 0x20 MUL PUSH1 0x20 ADD DUP3 ADD PUSH1 0x40 MSTORE DUP1 ISZERO PUSH2 0x2F99 JUMPI DUP2 PUSH1 0x20 ADD PUSH1 0x20 DUP3 MUL DUP1 CALLDATASIZE DUP4 CALLDATACOPY ADD SWAP1 POP JUMPDEST POP SWAP2 POP PUSH0 JUMPDEST DUP2 DUP2 LT ISZERO PUSH2 0x3334 JUMPI PUSH1 0x40 MLOAD PUSH4 0x6C7B6ACB PUSH1 0xE1 SHL DUP2 MSTORE PUSH1 0x4 DUP2 ADD DUP3 SWAP1 MSTORE PUSH1 0x1 PUSH1 0x1 PUSH1 0xA0 SHL SUB DUP11 AND SWAP1 PUSH4 0xD8F6D596 SWAP1 PUSH1 0x24 ADD PUSH1 0x20 PUSH1 0x40 MLOAD DUP1 DUP4 SUB DUP2 DUP7 GAS STATICCALL ISZERO DUP1 ISZERO PUSH2 0x2FE9 JUMPI RETURNDATASIZE PUSH0 DUP1 RETURNDATACOPY RETURNDATASIZE PUSH0 REVERT JUMPDEST POP POP POP POP PUSH1 0x40 MLOAD RETURNDATASIZE PUSH1 0x1F NOT PUSH1 0x1F DUP3 ADD AND DUP3 ADD DUP1 PUSH1 0x40 MSTORE POP DUP2 ADD SWAP1 PUSH2 0x300D SWAP2 SWAP1 PUSH2 0x388B JUMP JUMPDEST DUP9 DUP3 DUP2 MLOAD DUP2 LT PUSH2 0x301F JUMPI PUSH2 0x301F PUSH2 0x38A6 JUMP JUMPDEST PUSH1 0x20 MUL PUSH1 0x20 ADD ADD SWAP1 PUSH1 0x1 PUSH1 0x1 PUSH1 0xA0 SHL SUB AND SWAP1 DUP2 PUSH1 0x1 PUSH1 0x1 PUSH1 0xA0 SHL SUB AND DUP2 MSTORE POP POP DUP8 DUP2 DUP2 MLOAD DUP2 LT PUSH2 0x3051 JUMPI PUSH2 0x3051 PUSH2 0x38A6 JUMP JUMPDEST PUSH1 0x20 MUL PUSH1 0x20 ADD ADD MLOAD PUSH1 0x1 PUSH1 0x1 PUSH1 0xA0 SHL SUB AND PUSH4 0xB7813607 PUSH1 0x40 MLOAD DUP2 PUSH4 0xFFFFFFFF AND PUSH1 0xE0 SHL DUP2 MSTORE PUSH1 0x4 ADD PUSH1 0x20 PUSH1 0x40 MLOAD DUP1 DUP4 SUB DUP2 DUP7 GAS STATICCALL ISZERO DUP1 ISZERO PUSH2 0x3094 JUMPI RETURNDATASIZE PUSH0 DUP1 RETURNDATACOPY RETURNDATASIZE PUSH0 REVERT JUMPDEST POP POP POP POP PUSH1 0x40 MLOAD RETURNDATASIZE PUSH1 0x1F NOT PUSH1 0x1F DUP3 ADD AND DUP3 ADD DUP1 PUSH1 0x40 MSTORE POP DUP2 ADD SWAP1 PUSH2 0x30B8 SWAP2 SWAP1 PUSH2 0x388B JUMP JUMPDEST DUP8 DUP3 DUP2 MLOAD DUP2 LT PUSH2 0x30CA JUMPI PUSH2 0x30CA PUSH2 0x38A6 JUMP JUMPDEST PUSH1 0x20 MUL PUSH1 0x20 ADD ADD SWAP1 PUSH1 0x1 PUSH1 0x1 PUSH1 0xA0 SHL SUB AND SWAP1 DUP2 PUSH1 0x1 PUSH1 0x1 PUSH1 0xA0 SHL SUB AND DUP2 MSTORE POP POP PUSH0 DUP8 DUP3 DUP2 MLOAD DUP2 LT PUSH2 0x30FD JUMPI PUSH2 0x30FD PUSH2 0x38A6 JUMP JUMPDEST PUSH1 0x20 MUL PUSH1 0x20 ADD ADD MLOAD SWAP1 POP DUP1 PUSH1 0x1 PUSH1 0x1 PUSH1 0xA0 SHL SUB AND PUSH4 0x6FDDE03 PUSH1 0x40 MLOAD DUP2 PUSH4 0xFFFFFFFF AND PUSH1 0xE0 SHL DUP2 MSTORE PUSH1 0x4 ADD PUSH0 PUSH1 0x40 MLOAD DUP1 DUP4 SUB DUP2 DUP7 GAS STATICCALL ISZERO DUP1 ISZERO PUSH2 0x3142 JUMPI RETURNDATASIZE PUSH0 DUP1 RETURNDATACOPY RETURNDATASIZE PUSH0 REVERT JUMPDEST POP POP POP POP PUSH1 0x40 MLOAD RETURNDATASIZE PUSH0 DUP3 RETURNDATACOPY PUSH1 0x1F RETURNDATASIZE SWAP1 DUP2 ADD PUSH1 0x1F NOT AND DUP3 ADD PUSH1 0x40 MSTORE PUSH2 0x3169 SWAP2 SWAP1 DUP2 ADD SWAP1 PUSH2 0x38BA JUMP JUMPDEST DUP8 DUP4 DUP2 MLOAD DUP2 LT PUSH2 0x317B JUMPI PUSH2 0x317B PUSH2 0x38A6 JUMP JUMPDEST PUSH1 0x20 MUL PUSH1 0x20 ADD ADD DUP2 SWAP1 MSTORE POP DUP1 PUSH1 0x1 PUSH1 0x1 PUSH1 0xA0 SHL SUB AND PUSH4 0x95D89B41 PUSH1 0x40 MLOAD DUP2 PUSH4 0xFFFFFFFF AND PUSH1 0xE0 SHL DUP2 MSTORE PUSH1 0x4 ADD PUSH0 PUSH1 0x40 MLOAD DUP1 DUP4 SUB DUP2 DUP7 GAS STATICCALL ISZERO DUP1 ISZERO PUSH2 0x31C1 JUMPI RETURNDATASIZE PUSH0 DUP1 RETURNDATACOPY RETURNDATASIZE PUSH0 REVERT JUMPDEST POP POP POP POP PUSH1 0x40 MLOAD RETURNDATASIZE PUSH0 DUP3 RETURNDATACOPY PUSH1 0x1F RETURNDATASIZE SWAP1 DUP2 ADD PUSH1 0x1F NOT AND DUP3 ADD PUSH1 0x40 MSTORE PUSH2 0x31E8 SWAP2 SWAP1 DUP2 ADD SWAP1 PUSH2 0x38BA JUMP JUMPDEST DUP7 DUP4 DUP2 MLOAD DUP2 LT PUSH2 0x31FA JUMPI PUSH2 0x31FA PUSH2 0x38A6 JUMP JUMPDEST PUSH1 0x20 MUL PUSH1 0x20 ADD ADD DUP2 SWAP1 MSTORE POP DUP1 PUSH1 0x1 PUSH1 0x1 PUSH1 0xA0 SHL SUB AND PUSH4 0x313CE567 PUSH1 0x40 MLOAD DUP2 PUSH4 0xFFFFFFFF AND PUSH1 0xE0 SHL DUP2 MSTORE PUSH1 0x4 ADD PUSH1 0x20 PUSH1 0x40 MLOAD DUP1 DUP4 SUB DUP2 DUP7 GAS STATICCALL ISZERO DUP1 ISZERO PUSH2 0x3241 JUMPI RETURNDATASIZE PUSH0 DUP1 RETURNDATACOPY RETURNDATASIZE PUSH0 REVERT JUMPDEST POP POP POP POP PUSH1 0x40 MLOAD RETURNDATASIZE PUSH1 0x1F NOT PUSH1 0x1F DUP3 ADD AND DUP3 ADD DUP1 PUSH1 0x40 MSTORE POP DUP2 ADD SWAP1 PUSH2 0x3265 SWAP2 SWAP1 PUSH2 0x3961 JUMP JUMPDEST PUSH1 0xFF AND DUP6 DUP4 DUP2 MLOAD DUP2 LT PUSH2 0x327A JUMPI PUSH2 0x327A PUSH2 0x38A6 JUMP JUMPDEST PUSH1 0x20 MUL PUSH1 0x20 ADD ADD DUP2 DUP2 MSTORE POP POP DUP9 DUP3 DUP2 MLOAD DUP2 LT PUSH2 0x3298 JUMPI PUSH2 0x3298 PUSH2 0x38A6 JUMP JUMPDEST PUSH1 0x20 MUL PUSH1 0x20 ADD ADD MLOAD PUSH1 0x1 PUSH1 0x1 PUSH1 0xA0 SHL SUB AND PUSH4 0xB3F05B97 PUSH1 0x40 MLOAD DUP2 PUSH4 0xFFFFFFFF AND PUSH1 0xE0 SHL DUP2 MSTORE PUSH1 0x4 ADD PUSH1 0x20 PUSH1 0x40 MLOAD DUP1 DUP4 SUB DUP2 DUP7 GAS STATICCALL ISZERO DUP1 ISZERO PUSH2 0x32DB JUMPI RETURNDATASIZE PUSH0 DUP1 RETURNDATACOPY RETURNDATASIZE PUSH0 REVERT JUMPDEST POP POP POP POP PUSH1 0x40 MLOAD RETURNDATASIZE PUSH1 0x1F NOT PUSH1 0x1F DUP3 ADD AND DUP3 ADD DUP1 PUSH1 0x40 MSTORE POP DUP2 ADD SWAP1 PUSH2 0x32FF SWAP2 SWAP1 PUSH2 0x39AD JUMP JUMPDEST DUP5 DUP4 DUP2 MLOAD DUP2 LT PUSH2 0x3311 JUMPI PUSH2 0x3311 PUSH2 0x38A6 JUMP JUMPDEST SWAP2 ISZERO ISZERO PUSH1 0x20 SWAP3 DUP4 MUL SWAP2 SWAP1 SWAP2 ADD SWAP1 SWAP2 ADD MSTORE POP DUP1 PUSH2 0x332C DUP2 PUSH2 0x3995 JUMP JUMPDEST SWAP2 POP POP PUSH2 0x2F9E JUMP JUMPDEST POP POP SWAP2 SWAP4 SWAP6 POP SWAP2 SWAP4 SWAP6 JUMP JUMPDEST PUSH1 0x1 PUSH1 0x1 PUSH1 0xA0 SHL SUB DUP2 AND DUP2 EQ PUSH2 0x3353 JUMPI PUSH0 DUP1 REVERT JUMPDEST POP JUMP JUMPDEST PUSH0 PUSH1 0x20 DUP3 DUP5 SUB SLT ISZERO PUSH2 0x3366 JUMPI PUSH0 DUP1 REVERT JUMPDEST DUP2 CALLDATALOAD PUSH2 0x3371 DUP2 PUSH2 0x333F JUMP JUMPDEST SWAP4 SWAP3 POP POP POP JUMP JUMPDEST PUSH0 DUP2 MLOAD DUP1 DUP5 MSTORE PUSH1 0x20 DUP1 DUP6 ADD SWAP5 POP DUP1 DUP5 ADD PUSH0 JUMPDEST DUP4 DUP2 LT ISZERO PUSH2 0x33AF JUMPI DUP2 MLOAD PUSH1 0x1 PUSH1 0x1 PUSH1 0xA0 SHL SUB AND DUP8 MSTORE SWAP6 DUP3 ADD SWAP6 SWAP1 DUP3 ADD SWAP1 PUSH1 0x1 ADD PUSH2 0x338A JUMP JUMPDEST POP SWAP5 SWAP6 SWAP5 POP POP POP POP POP JUMP JUMPDEST PUSH0 JUMPDEST DUP4 DUP2 LT ISZERO PUSH2 0x33D4 JUMPI DUP2 DUP2 ADD MLOAD DUP4 DUP3 ADD MSTORE PUSH1 0x20 ADD PUSH2 0x33BC JUMP JUMPDEST POP POP PUSH0 SWAP2 ADD MSTORE JUMP JUMPDEST PUSH0 DUP3 DUP3 MLOAD DUP1 DUP6 MSTORE PUSH1 0x20 DUP1 DUP7 ADD SWAP6 POP DUP1 DUP3 PUSH1 0x5 SHL DUP5 ADD ADD DUP2 DUP7 ADD PUSH0 JUMPDEST DUP5 DUP2 LT ISZERO PUSH2 0x343D JUMPI PUSH1 0x1F NOT DUP1 DUP8 DUP6 SUB ADD DUP11 MSTORE DUP3 MLOAD DUP1 MLOAD DUP1 DUP7 MSTORE PUSH2 0x341F DUP2 DUP9 DUP9 ADD DUP10 DUP6 ADD PUSH2 0x33BA JUMP JUMPDEST SWAP11 DUP7 ADD SWAP11 PUSH1 0x1F ADD SWAP1 SWAP2 AND SWAP4 SWAP1 SWAP4 ADD DUP5 ADD SWAP3 POP SWAP1 DUP4 ADD SWAP1 PUSH1 0x1 ADD PUSH2 0x33F7 JUMP JUMPDEST POP SWAP1 SWAP8 SWAP7 POP POP POP POP POP POP POP JUMP JUMPDEST PUSH0 DUP2 MLOAD DUP1 DUP5 MSTORE PUSH1 0x20 DUP1 DUP6 ADD SWAP5 POP DUP1 DUP5 ADD PUSH0 JUMPDEST DUP4 DUP2 LT ISZERO PUSH2 0x33AF JUMPI DUP2 MLOAD DUP8 MSTORE SWAP6 DUP3 ADD SWAP6 SWAP1 DUP3 ADD SWAP1 PUSH1 0x1 ADD PUSH2 0x345C JUMP JUMPDEST PUSH0 PUSH2 0x120 DUP1 DUP4 MSTORE PUSH2 0x348B DUP2 DUP5 ADD DUP14 PUSH2 0x3378 JUMP JUMPDEST SWAP1 POP DUP3 DUP2 SUB PUSH1 0x20 DUP5 ADD MSTORE PUSH2 0x349F DUP2 DUP13 PUSH2 0x3378 JUMP JUMPDEST SWAP1 POP DUP3 DUP2 SUB PUSH1 0x40 DUP5 ADD MSTORE PUSH2 0x34B3 DUP2 DUP12 PUSH2 0x33DC JUMP JUMPDEST SWAP1 POP DUP3 DUP2 SUB PUSH1 0x60 DUP5 ADD MSTORE PUSH2 0x34C7 DUP2 DUP11 PUSH2 0x33DC JUMP JUMPDEST SWAP1 POP DUP3 DUP2 SUB PUSH1 0x80 DUP5 ADD MSTORE PUSH2 0x34DB DUP2 DUP10 PUSH2 0x344A JUMP JUMPDEST SWAP1 POP DUP3 DUP2 SUB PUSH1 0xA0 DUP5 ADD MSTORE PUSH2 0x34EF DUP2 DUP9 PUSH2 0x3378 JUMP JUMPDEST SWAP1 POP DUP3 DUP2 SUB PUSH1 0xC0 DUP5 ADD MSTORE PUSH2 0x3503 DUP2 DUP8 PUSH2 0x33DC JUMP JUMPDEST SWAP1 POP DUP3 DUP2 SUB PUSH1 0xE0 DUP5 ADD MSTORE PUSH2 0x3517 DUP2 DUP7 PUSH2 0x33DC JUMP JUMPDEST SWAP1 POP DUP3 DUP2 SUB PUSH2 0x100 DUP5 ADD MSTORE PUSH2 0x352C DUP2 DUP6 PUSH2 0x344A JUMP JUMPDEST SWAP13 SWAP12 POP POP POP POP POP POP POP POP POP POP POP POP JUMP JUMPDEST PUSH0 DUP2 MLOAD DUP1 DUP5 MSTORE PUSH1 0x20 DUP1 DUP6 ADD SWAP5 POP DUP1 DUP5 ADD PUSH0 JUMPDEST DUP4 DUP2 LT ISZERO PUSH2 0x33AF JUMPI DUP2 MLOAD ISZERO ISZERO DUP8 MSTORE SWAP6 DUP3 ADD SWAP6 SWAP1 DUP3 ADD SWAP1 PUSH1 0x1 ADD PUSH2 0x354E JUMP JUMPDEST PUSH0 PUSH2 0x160 DUP1 DUP4 MSTORE PUSH2 0x357F DUP2 DUP5 ADD DUP16 PUSH2 0x3378 JUMP JUMPDEST SWAP1 POP DUP3 DUP2 SUB PUSH1 0x20 DUP5 ADD MSTORE PUSH2 0x3593 DUP2 DUP15 PUSH2 0x3378 JUMP JUMPDEST SWAP1 POP DUP3 DUP2 SUB PUSH1 0x40 DUP5 ADD MSTORE PUSH2 0x35A7 DUP2 DUP14 PUSH2 0x33DC JUMP JUMPDEST SWAP1 POP DUP3 DUP2 SUB PUSH1 0x60 DUP5 ADD MSTORE PUSH2 0x35BB DUP2 DUP13 PUSH2 0x33DC JUMP JUMPDEST SWAP1 POP DUP3 DUP2 SUB PUSH1 0x80 DUP5 ADD MSTORE PUSH2 0x35CF DUP2 DUP12 PUSH2 0x344A JUMP JUMPDEST SWAP1 POP DUP3 DUP2 SUB PUSH1 0xA0 DUP5 ADD MSTORE PUSH2 0x35E3 DUP2 DUP11 PUSH2 0x353C JUMP JUMPDEST SWAP1 POP DUP3 DUP2 SUB PUSH1 0xC0 DUP5 ADD MSTORE PUSH2 0x35F7 DUP2 DUP10 PUSH2 0x33DC JUMP JUMPDEST SWAP1 POP DUP3 DUP2 SUB PUSH1 0xE0 DUP5 ADD MSTORE PUSH2 0x360B DUP2 DUP9 PUSH2 0x33DC JUMP JUMPDEST SWAP1 POP DUP3 DUP2 SUB PUSH2 0x100 DUP5 ADD MSTORE PUSH2 0x3620 DUP2 DUP8 PUSH2 0x33DC JUMP JUMPDEST SWAP1 POP DUP3 DUP2 SUB PUSH2 0x120 DUP5 ADD MSTORE PUSH2 0x3635 DUP2 DUP7 PUSH2 0x344A JUMP JUMPDEST SWAP1 POP DUP3 DUP2 SUB PUSH2 0x140 DUP5 ADD MSTORE PUSH2 0x364A DUP2 DUP6 PUSH2 0x344A JUMP JUMPDEST SWAP15 SWAP14 POP POP POP POP POP POP POP POP POP POP POP POP POP POP JUMP JUMPDEST PUSH1 0xA0 DUP2 MSTORE PUSH0 PUSH2 0x366E PUSH1 0xA0 DUP4 ADD DUP9 PUSH2 0x3378 JUMP JUMPDEST PUSH1 0x20 DUP4 DUP3 SUB DUP2 DUP6 ADD MSTORE PUSH2 0x3681 DUP3 DUP10 PUSH2 0x3378 JUMP JUMPDEST SWAP2 POP PUSH1 0x40 DUP5 DUP4 SUB DUP2 DUP7 ADD MSTORE PUSH2 0x3696 DUP4 DUP10 PUSH2 0x33DC JUMP JUMPDEST SWAP3 POP DUP5 DUP4 SUB PUSH1 0x60 DUP7 ADD MSTORE PUSH2 0x36AA DUP4 DUP9 PUSH2 0x33DC JUMP JUMPDEST SWAP3 POP DUP5 DUP4 SUB PUSH1 0x80 DUP7 ADD MSTORE DUP3 DUP7 MLOAD DUP1 DUP6 MSTORE DUP4 DUP6 ADD SWAP2 POP DUP4 DUP2 PUSH1 0x5 SHL DUP7 ADD ADD DUP5 DUP10 ADD PUSH0 DUP1 JUMPDEST DUP5 DUP2 LT ISZERO PUSH2 0x3735 JUMPI DUP9 DUP5 SUB PUSH1 0x1F NOT ADD DUP7 MSTORE DUP3 MLOAD MLOAD DUP9 DUP6 MSTORE DUP1 MLOAD DUP10 DUP7 ADD DUP2 SWAP1 MSTORE SWAP1 DUP10 ADD SWAP1 DUP4 SWAP1 DUP10 DUP8 ADD SWAP1 JUMPDEST DUP1 DUP4 LT ISZERO PUSH2 0x3720 JUMPI DUP4 MLOAD PUSH1 0x1 PUSH1 0x1 PUSH1 0xA0 SHL SUB AND DUP3 MSTORE SWAP3 DUP12 ADD SWAP3 PUSH1 0x1 SWAP3 SWAP1 SWAP3 ADD SWAP2 SWAP1 DUP12 ADD SWAP1 PUSH2 0x36F7 JUMP JUMPDEST POP SWAP8 DUP11 ADD SWAP8 SWAP6 POP POP POP SWAP2 DUP8 ADD SWAP2 PUSH1 0x1 ADD PUSH2 0x36CD JUMP JUMPDEST POP SWAP2 SWAP15 SWAP14 POP POP POP POP POP POP POP POP POP POP POP POP POP POP JUMP JUMPDEST PUSH0 DUP1 PUSH0 PUSH1 0x60 DUP5 DUP7 SUB SLT ISZERO PUSH2 0x375B JUMPI PUSH0 DUP1 REVERT JUMPDEST DUP4 CALLDATALOAD PUSH2 0x3766 DUP2 PUSH2 0x333F JUMP JUMPDEST SWAP6 PUSH1 0x20 DUP6 ADD CALLDATALOAD SWAP6 POP PUSH1 0x40 SWAP1 SWAP5 ADD CALLDATALOAD SWAP4 SWAP3 POP POP POP JUMP JUMPDEST PUSH0 DUP1 PUSH0 DUP1 PUSH0 PUSH1 0xA0 DUP7 DUP9 SUB SLT ISZERO PUSH2 0x378F JUMPI PUSH0 DUP1 REVERT JUMPDEST DUP6 CALLDATALOAD SWAP5 POP PUSH1 0x20 DUP7 ADD CALLDATALOAD PUSH2 0x37A1 DUP2 PUSH2 0x333F JUMP JUMPDEST SWAP4 POP PUSH1 0x40 DUP7 ADD CALLDATALOAD PUSH2 0x37B1 DUP2 PUSH2 0x333F JUMP JUMPDEST SWAP3 POP PUSH1 0x60 DUP7 ADD CALLDATALOAD PUSH2 0x37C1 DUP2 PUSH2 0x333F JUMP JUMPDEST SWAP2 POP PUSH1 0x80 DUP7 ADD CALLDATALOAD PUSH2 0x37D1 DUP2 PUSH2 0x333F JUMP JUMPDEST DUP1 SWAP2 POP POP SWAP3 SWAP6 POP SWAP3 SWAP6 SWAP1 SWAP4 POP JUMP JUMPDEST PUSH1 0xC0 DUP2 MSTORE PUSH0 PUSH2 0x37F1 PUSH1 0xC0 DUP4 ADD DUP10 PUSH2 0x3378 JUMP JUMPDEST DUP3 DUP2 SUB PUSH1 0x20 DUP5 ADD MSTORE PUSH2 0x3803 DUP2 DUP10 PUSH2 0x3378 JUMP JUMPDEST SWAP1 POP DUP3 DUP2 SUB PUSH1 0x40 DUP5 ADD MSTORE PUSH2 0x3817 DUP2 DUP9 PUSH2 0x33DC JUMP JUMPDEST SWAP1 POP DUP3 DUP2 SUB PUSH1 0x60 DUP5 ADD MSTORE PUSH2 0x382B DUP2 DUP8 PUSH2 0x33DC JUMP JUMPDEST SWAP1 POP DUP3 DUP2 SUB PUSH1 0x80 DUP5 ADD MSTORE PUSH2 0x383F DUP2 DUP7 PUSH2 0x344A JUMP JUMPDEST SWAP1 POP DUP3 DUP2 SUB PUSH1 0xA0 DUP5 ADD MSTORE PUSH2 0x3853 DUP2 DUP6 PUSH2 0x353C JUMP JUMPDEST SWAP10 SWAP9 POP POP POP POP POP POP POP POP POP JUMP JUMPDEST PUSH0 PUSH1 0x20 DUP3 DUP5 SUB SLT ISZERO PUSH2 0x3870 JUMPI PUSH0 DUP1 REVERT JUMPDEST POP MLOAD SWAP2 SWAP1 POP JUMP JUMPDEST PUSH4 0x4E487B71 PUSH1 0xE0 SHL PUSH0 MSTORE PUSH1 0x41 PUSH1 0x4 MSTORE PUSH1 0x24 PUSH0 REVERT JUMPDEST PUSH0 PUSH1 0x20 DUP3 DUP5 SUB SLT ISZERO PUSH2 0x389B JUMPI PUSH0 DUP1 REVERT JUMPDEST DUP2 MLOAD PUSH2 0x3371 DUP2 PUSH2 0x333F JUMP JUMPDEST PUSH4 0x4E487B71 PUSH1 0xE0 SHL PUSH0 MSTORE PUSH1 0x32 PUSH1 0x4 MSTORE PUSH1 0x24 PUSH0 REVERT JUMPDEST PUSH0 PUSH1 0x20 DUP3 DUP5 SUB SLT ISZERO PUSH2 0x38CA JUMPI PUSH0 DUP1 REVERT JUMPDEST DUP2 MLOAD PUSH1 0x1 PUSH1 0x1 PUSH1 0x40 SHL SUB DUP1 DUP3 GT ISZERO PUSH2 0x38E0 JUMPI PUSH0 DUP1 REVERT JUMPDEST DUP2 DUP5 ADD SWAP2 POP DUP5 PUSH1 0x1F DUP4 ADD SLT PUSH2 0x38F3 JUMPI PUSH0 DUP1 REVERT JUMPDEST DUP2 MLOAD DUP2 DUP2 GT ISZERO PUSH2 0x3905 JUMPI PUSH2 0x3905 PUSH2 0x3877 JUMP JUMPDEST PUSH1 0x40 MLOAD PUSH1 0x1F DUP3 ADD PUSH1 0x1F NOT SWAP1 DUP2 AND PUSH1 0x3F ADD AND DUP2 ADD SWAP1 DUP4 DUP3 GT DUP2 DUP4 LT OR ISZERO PUSH2 0x392D JUMPI PUSH2 0x392D PUSH2 0x3877 JUMP JUMPDEST DUP2 PUSH1 0x40 MSTORE DUP3 DUP2 MSTORE DUP8 PUSH1 0x20 DUP5 DUP8 ADD ADD GT ISZERO PUSH2 0x3945 JUMPI PUSH0 DUP1 REVERT JUMPDEST PUSH2 0x3956 DUP4 PUSH1 0x20 DUP4 ADD PUSH1 0x20 DUP9 ADD PUSH2 0x33BA JUMP JUMPDEST SWAP8 SWAP7 POP POP POP POP POP POP POP JUMP JUMPDEST PUSH0 PUSH1 0x20 DUP3 DUP5 SUB SLT ISZERO PUSH2 0x3971 JUMPI PUSH0 DUP1 REVERT JUMPDEST DUP2 MLOAD PUSH1 0xFF DUP2 AND DUP2 EQ PUSH2 0x3371 JUMPI PUSH0 DUP1 REVERT JUMPDEST PUSH4 0x4E487B71 PUSH1 0xE0 SHL PUSH0 MSTORE PUSH1 0x11 PUSH1 0x4 MSTORE PUSH1 0x24 PUSH0 REVERT JUMPDEST PUSH0 PUSH1 0x1 DUP3 ADD PUSH2 0x39A6 JUMPI PUSH2 0x39A6 PUSH2 0x3981 JUMP JUMPDEST POP PUSH1 0x1 ADD SWAP1 JUMP JUMPDEST PUSH0 PUSH1 0x20 DUP3 DUP5 SUB SLT ISZERO PUSH2 0x39BD JUMPI PUSH0 DUP1 REVERT JUMPDEST DUP2 MLOAD DUP1 ISZERO ISZERO DUP2 EQ PUSH2 0x3371 JUMPI PUSH0 DUP1 REVERT JUMPDEST PUSH0 DUP1 PUSH0 DUP1 PUSH1 0x80 DUP6 DUP8 SUB SLT ISZERO PUSH2 0x39DF JUMPI PUSH0 DUP1 REVERT JUMPDEST DUP5 MLOAD PUSH2 0x39EA DUP2 PUSH2 0x333F JUMP JUMPDEST PUSH1 0x20 DUP7 ADD MLOAD PUSH1 0x40 DUP8 ADD MLOAD PUSH1 0x60 SWAP1 SWAP8 ADD MLOAD SWAP2 SWAP9 SWAP1 SWAP8 POP SWAP1 SWAP5 POP SWAP3 POP POP POP JUMP JUMPDEST PUSH0 DUP1 PUSH0 DUP1 PUSH0 PUSH1 0xA0 DUP7 DUP9 SUB SLT ISZERO PUSH2 0x3A1C JUMPI PUSH0 DUP1 REVERT JUMPDEST DUP6 MLOAD PUSH2 0x3A27 DUP2 PUSH2 0x333F JUMP JUMPDEST PUSH1 0x20 DUP8 ADD MLOAD PUSH1 0x40 DUP9 ADD MLOAD PUSH1 0x60 DUP10 ADD MLOAD PUSH1 0x80 SWAP1 SWAP10 ADD MLOAD SWAP3 SWAP11 SWAP2 SWAP10 POP SWAP8 SWAP7 POP SWAP1 SWAP5 POP SWAP3 POP POP POP JUMP JUMPDEST DUP2 DUP2 SUB DUP2 DUP2 GT ISZERO PUSH2 0x3A60 JUMPI PUSH2 0x3A60 PUSH2 0x3981 JUMP JUMPDEST SWAP3 SWAP2 POP POP JUMP JUMPDEST DUP1 DUP3 ADD DUP1 DUP3 GT ISZERO PUSH2 0x3A60 JUMPI PUSH2 0x3A60 PUSH2 0x3981 JUMP INVALID LOG2 PUSH5 0x6970667358 0x22 SLT KECCAK256 0x2E PUSH31 0x2B94F79BDCC991F0A00CDB5B7233FFA01C391CBE8F542D470135794EDA3D64 PUSH20 0x6F6C634300081400330000000000000000000000 "
				},
				"gasEstimates": {
					"creation": {
						"codeDepositCost": "3004600",
						"executionCost": "3300",
						"totalCost": "3007900"
					},
					"external": {
						"farmInfo(uint256,address,address,address,address)": "infinite",
						"getApiInfo(address,uint256,uint256)": "infinite",
						"getFarmInfo(address)": "infinite",
						"getNftPoolInfo(address)": "infinite",
						"getPoolInfo(address)": "infinite",
						"getSaleInfos(address)": "infinite",
						"getSaleInfos2(address)": "infinite"
					}
				},
				"methodIdentifiers": {
					"farmInfo(uint256,address,address,address,address)": "c7c7f923",
					"getApiInfo(address,uint256,uint256)": "bb4b8ce2",
					"getFarmInfo(address)": "1c9a4fd1",
					"getNftPoolInfo(address)": "74c1017b",
					"getPoolInfo(address)": "06bfa938",
					"getSaleInfos(address)": "e767f7ee",
					"getSaleInfos2(address)": "15d7518e"
				}
			},
			"storageLayout": {
				"storage": [],
				"types": null
			},
			"userdoc": {
				"kind": "user",
				"methods": {},
				"version": 1
			}
		}
	}
}