{
	"ZKSYNC/quickcalls.sol": {
		"QuickCalls": {
			"abi": [
				{
					"inputs": [
						{
							"internalType": "address",
							"name": "_bnbAddress",
							"type": "address"
						},
						{
							"internalType": "address",
							"name": "_treasury",
							"type": "address"
						}
					],
					"stateMutability": "nonpayable",
					"type": "constructor"
				},
				{
					"anonymous": false,
					"inputs": [
						{
							"indexed": true,
							"internalType": "address",
							"name": "previousOwner",
							"type": "address"
						},
						{
							"indexed": true,
							"internalType": "address",
							"name": "newOwner",
							"type": "address"
						}
					],
					"name": "OwnershipTransferred",
					"type": "event"
				},
				{
					"inputs": [],
					"name": "BNBSTORED",
					"outputs": [
						{
							"internalType": "uint256",
							"name": "",
							"type": "uint256"
						}
					],
					"stateMutability": "view",
					"type": "function"
				},
				{
					"inputs": [],
					"name": "FeePercent",
					"outputs": [
						{
							"internalType": "uint256",
							"name": "",
							"type": "uint256"
						}
					],
					"stateMutability": "view",
					"type": "function"
				},
				{
					"inputs": [
						{
							"internalType": "uint256",
							"name": "_TokenInput",
							"type": "uint256"
						},
						{
							"internalType": "address",
							"name": "_TokenH",
							"type": "address"
						},
						{
							"internalType": "address",
							"name": "_TokenA",
							"type": "address"
						},
						{
							"internalType": "address",
							"name": "_TokenB",
							"type": "address"
						},
						{
							"internalType": "address",
							"name": "_routerAddress",
							"type": "address"
						},
						{
							"internalType": "address",
							"name": "_routerAddress2",
							"type": "address"
						}
					],
					"name": "_1StakeToken",
					"outputs": [],
					"stateMutability": "nonpayable",
					"type": "function"
				},
				{
					"inputs": [
						{
							"internalType": "address",
							"name": "_TokenA",
							"type": "address"
						},
						{
							"internalType": "address",
							"name": "_TokenB",
							"type": "address"
						},
						{
							"internalType": "address",
							"name": "_routerAddress",
							"type": "address"
						}
					],
					"name": "_1StakeUsingBNB",
					"outputs": [],
					"stateMutability": "payable",
					"type": "function"
				},
				{
					"inputs": [
						{
							"internalType": "address",
							"name": "_LPToken",
							"type": "address"
						},
						{
							"internalType": "uint256",
							"name": "_TokenInput",
							"type": "uint256"
						},
						{
							"internalType": "address",
							"name": "_TokenA",
							"type": "address"
						},
						{
							"internalType": "address",
							"name": "_TokenB",
							"type": "address"
						},
						{
							"internalType": "address",
							"name": "_router",
							"type": "address"
						},
						{
							"internalType": "address",
							"name": "_TokenH",
							"type": "address"
						},
						{
							"internalType": "address",
							"name": "_router2",
							"type": "address"
						}
					],
					"name": "_BreakLPReturnToken",
					"outputs": [],
					"stateMutability": "nonpayable",
					"type": "function"
				},
				{
					"inputs": [
						{
							"internalType": "uint256",
							"name": "_FeePercentInBip",
							"type": "uint256"
						}
					],
					"name": "_SetFeePercent",
					"outputs": [],
					"stateMutability": "nonpayable",
					"type": "function"
				},
				{
					"inputs": [
						{
							"internalType": "address",
							"name": "_TokenOut",
							"type": "address"
						},
						{
							"internalType": "address",
							"name": "_RouterOut",
							"type": "address"
						}
					],
					"name": "_bnbToToken",
					"outputs": [],
					"stateMutability": "payable",
					"type": "function"
				},
				{
					"inputs": [
						{
							"internalType": "address",
							"name": "_TokenIn",
							"type": "address"
						},
						{
							"internalType": "uint256",
							"name": "_AmountIn",
							"type": "uint256"
						},
						{
							"internalType": "address",
							"name": "_TokenOut",
							"type": "address"
						},
						{
							"internalType": "address",
							"name": "_RouterIn",
							"type": "address"
						},
						{
							"internalType": "address",
							"name": "_RouterOut",
							"type": "address"
						}
					],
					"name": "_tokenToToken",
					"outputs": [],
					"stateMutability": "nonpayable",
					"type": "function"
				},
				{
					"inputs": [],
					"name": "owner",
					"outputs": [
						{
							"internalType": "address",
							"name": "",
							"type": "address"
						}
					],
					"stateMutability": "view",
					"type": "function"
				},
				{
					"inputs": [],
					"name": "renounceOwnership",
					"outputs": [],
					"stateMutability": "nonpayable",
					"type": "function"
				},
				{
					"inputs": [
						{
							"internalType": "address",
							"name": "token",
							"type": "address"
						},
						{
							"internalType": "uint256",
							"name": "amount",
							"type": "uint256"
						}
					],
					"name": "setBNBBalance",
					"outputs": [],
					"stateMutability": "nonpayable",
					"type": "function"
				},
				{
					"inputs": [
						{
							"internalType": "address",
							"name": "newOwner",
							"type": "address"
						}
					],
					"name": "transferOwnership",
					"outputs": [],
					"stateMutability": "nonpayable",
					"type": "function"
				},
				{
					"inputs": [],
					"name": "treasury",
					"outputs": [
						{
							"internalType": "address",
							"name": "",
							"type": "address"
						}
					],
					"stateMutability": "view",
					"type": "function"
				},
				{
					"inputs": [],
					"name": "withdawlBNB",
					"outputs": [],
					"stateMutability": "nonpayable",
					"type": "function"
				},
				{
					"inputs": [
						{
							"internalType": "address",
							"name": "_tokenAddress",
							"type": "address"
						}
					],
					"name": "withdrawlToken",
					"outputs": [],
					"stateMutability": "nonpayable",
					"type": "function"
				},
				{
					"stateMutability": "payable",
					"type": "receive"
				}
			],
			"devdoc": {
				"kind": "dev",
				"methods": {
					"owner()": {
						"details": "Returns the address of the current owner."
					},
					"renounceOwnership()": {
						"details": "Leaves the contract without owner. It will not be possible to call `onlyOwner` functions anymore. Can only be called by the current owner. NOTE: Renouncing ownership will leave the contract without an owner, thereby removing any functionality that is only available to the owner."
					},
					"transferOwnership(address)": {
						"details": "Transfers ownership of the contract to a new account (`newOwner`). Can only be called by the current owner."
					}
				},
				"version": 1
			},
			"evm": {
				"assembly": "    /* \"ZKSYNC/quickcalls.sol\":22655:42660  contract QuickCalls is Ownable {\r... */\n  mstore(0x40, 0x80)\n  not(0x00)\n    /* \"ZKSYNC/quickcalls.sol\":22728:22756  uint256 MAX_INT = 2**256 - 1 */\n  0x01\n  sstore\n    /* \"ZKSYNC/quickcalls.sol\":22874:22875  0 */\n  0x00\n    /* \"ZKSYNC/quickcalls.sol\":22847:22875  uint256 public BNBSTORED = 0 */\n  0x05\n  sstore\n    /* \"ZKSYNC/quickcalls.sol\":22910:22912  10 */\n  0x0a\n    /* \"ZKSYNC/quickcalls.sol\":22882:22912  uint256 public FeePercent = 10 */\n  0x06\n  sstore\n    /* \"ZKSYNC/quickcalls.sol\":23124:23250  constructor(address _bnbAddress, address _treasury) {\r... */\n  callvalue\n  dup1\n  iszero\n  tag_1\n  jumpi\n  0x00\n  dup1\n  revert\ntag_1:\n  pop\n  mload(0x40)\n  sub(codesize, bytecodeSize)\n  dup1\n  bytecodeSize\n  dup4\n  codecopy\n  dup2\n  add\n  0x40\n  dup2\n  swap1\n  mstore\n  tag_2\n  swap2\n  tag_3\n  jump\t// in\ntag_2:\n    /* \"ZKSYNC/quickcalls.sol\":18880:18912  _transferOwnership(_msgSender()) */\n  tag_7\n    /* \"ZKSYNC/quickcalls.sol\":17805:17815  msg.sender */\n  caller\n    /* \"ZKSYNC/quickcalls.sol\":18880:18898  _transferOwnership */\n  tag_10\n    /* \"ZKSYNC/quickcalls.sol\":18880:18912  _transferOwnership(_msgSender()) */\n  jump\t// in\ntag_7:\n    /* \"ZKSYNC/quickcalls.sol\":23187:23197  bnbAddress */\n  0x04\n    /* \"ZKSYNC/quickcalls.sol\":23187:23211  bnbAddress = _bnbAddress */\n  dup1\n  sload\n  sub(shl(0xa0, 0x01), 0x01)\n  swap4\n  dup5\n  and\n  not(sub(shl(0xa0, 0x01), 0x01))\n  swap2\n  dup3\n  and\n  or\n  swap1\n  swap2\n  sstore\n    /* \"ZKSYNC/quickcalls.sol\":23222:23230  treasury */\n  0x07\n    /* \"ZKSYNC/quickcalls.sol\":23222:23242  treasury = _treasury */\n  dup1\n  sload\n  swap3\n  swap1\n  swap4\n  and\n  swap2\n  and\n  or\n  swap1\n  sstore\n    /* \"ZKSYNC/quickcalls.sol\":22655:42660  contract QuickCalls is Ownable {\r... */\n  jump(tag_15)\n    /* \"ZKSYNC/quickcalls.sol\":20271:20462  function _transferOwnership(address newOwner) internal virtual {\r... */\ntag_10:\n    /* \"ZKSYNC/quickcalls.sol\":20345:20361  address oldOwner */\n  0x00\n    /* \"ZKSYNC/quickcalls.sol\":20364:20370  _owner */\n  dup1\n  sload\n  sub(shl(0xa0, 0x01), 0x01)\n    /* \"ZKSYNC/quickcalls.sol\":20381:20398  _owner = newOwner */\n  dup4\n  dup2\n  and\n  not(sub(shl(0xa0, 0x01), 0x01))\n  dup4\n  and\n  dup2\n  or\n  dup5\n  sstore\n    /* \"ZKSYNC/quickcalls.sol\":20414:20454  OwnershipTransferred(oldOwner, newOwner) */\n  mload(0x40)\n    /* \"ZKSYNC/quickcalls.sol\":20364:20370  _owner */\n  swap2\n  swap1\n  swap3\n  and\n  swap3\n  dup4\n  swap2\n    /* \"ZKSYNC/quickcalls.sol\":20414:20454  OwnershipTransferred(oldOwner, newOwner) */\n  0x8be0079c531659141344cd1fd0a4f28419497f9722a3daafe3b4186f6b6457e0\n  swap2\n    /* \"ZKSYNC/quickcalls.sol\":20345:20361  address oldOwner */\n  swap1\n    /* \"ZKSYNC/quickcalls.sol\":20414:20454  OwnershipTransferred(oldOwner, newOwner) */\n  log3\n    /* \"ZKSYNC/quickcalls.sol\":20334:20462  {\r... */\n  pop\n    /* \"ZKSYNC/quickcalls.sol\":20271:20462  function _transferOwnership(address newOwner) internal virtual {\r... */\n  pop\n  jump\t// out\n    /* \"#utility.yul\":14:191   */\ntag_16:\n    /* \"#utility.yul\":93:106   */\n  dup1\n  mload\n  sub(shl(0xa0, 0x01), 0x01)\n    /* \"#utility.yul\":135:166   */\n  dup2\n  and\n    /* \"#utility.yul\":125:167   */\n  dup2\n  eq\n    /* \"#utility.yul\":115:185   */\n  tag_18\n  jumpi\n    /* \"#utility.yul\":181:182   */\n  0x00\n    /* \"#utility.yul\":178:179   */\n  dup1\n    /* \"#utility.yul\":171:183   */\n  revert\n    /* \"#utility.yul\":115:185   */\ntag_18:\n    /* \"#utility.yul\":14:191   */\n  swap2\n  swap1\n  pop\n  jump\t// out\n    /* \"#utility.yul\":196:489   */\ntag_3:\n    /* \"#utility.yul\":275:281   */\n  0x00\n    /* \"#utility.yul\":283:289   */\n  dup1\n    /* \"#utility.yul\":336:338   */\n  0x40\n    /* \"#utility.yul\":324:333   */\n  dup4\n    /* \"#utility.yul\":315:322   */\n  dup6\n    /* \"#utility.yul\":311:334   */\n  sub\n    /* \"#utility.yul\":307:339   */\n  slt\n    /* \"#utility.yul\":304:356   */\n  iszero\n  tag_20\n  jumpi\n    /* \"#utility.yul\":352:353   */\n  0x00\n    /* \"#utility.yul\":349:350   */\n  dup1\n    /* \"#utility.yul\":342:354   */\n  revert\n    /* \"#utility.yul\":304:356   */\ntag_20:\n    /* \"#utility.yul\":375:415   */\n  tag_21\n    /* \"#utility.yul\":405:414   */\n  dup4\n    /* \"#utility.yul\":375:415   */\n  tag_16\n  jump\t// in\ntag_21:\n    /* \"#utility.yul\":365:415   */\n  swap2\n  pop\n    /* \"#utility.yul\":434:483   */\n  tag_22\n    /* \"#utility.yul\":479:481   */\n  0x20\n    /* \"#utility.yul\":468:477   */\n  dup5\n    /* \"#utility.yul\":464:482   */\n  add\n    /* \"#utility.yul\":434:483   */\n  tag_16\n  jump\t// in\ntag_22:\n    /* \"#utility.yul\":424:483   */\n  swap1\n  pop\n    /* \"#utility.yul\":196:489   */\n  swap3\n  pop\n  swap3\n  swap1\n  pop\n  jump\t// out\ntag_15:\n    /* \"ZKSYNC/quickcalls.sol\":22655:42660  contract QuickCalls is Ownable {\r... */\n  dataSize(sub_0)\n  dup1\n  dataOffset(sub_0)\n  0x00\n  codecopy\n  0x00\n  return\nstop\n\nsub_0: assembly {\n        /* \"ZKSYNC/quickcalls.sol\":22655:42660  contract QuickCalls is Ownable {\r... */\n      mstore(0x40, 0x80)\n      jumpi(tag_1, lt(calldatasize, 0x04))\n      shr(0xe0, calldataload(0x00))\n      dup1\n      0x7d946217\n      gt\n      tag_18\n      jumpi\n      dup1\n      0xb5332d60\n      gt\n      tag_19\n      jumpi\n      dup1\n      0xb5332d60\n      eq\n      tag_14\n      jumpi\n      dup1\n      0xe1598e4c\n      eq\n      tag_15\n      jumpi\n      dup1\n      0xe799ffb1\n      eq\n      tag_16\n      jumpi\n      dup1\n      0xf2fde38b\n      eq\n      tag_17\n      jumpi\n      0x00\n      dup1\n      revert\n    tag_19:\n      dup1\n      0x7d946217\n      eq\n      tag_10\n      jumpi\n      dup1\n      0x8da5cb5b\n      eq\n      tag_11\n      jumpi\n      dup1\n      0x8f1b0772\n      eq\n      tag_12\n      jumpi\n      dup1\n      0xac5cad56\n      eq\n      tag_13\n      jumpi\n      0x00\n      dup1\n      revert\n    tag_18:\n      dup1\n      0x5bdcdd54\n      gt\n      tag_20\n      jumpi\n      dup1\n      0x5bdcdd54\n      eq\n      tag_6\n      jumpi\n      dup1\n      0x61d027b3\n      eq\n      tag_7\n      jumpi\n      dup1\n      0x715018a6\n      eq\n      tag_8\n      jumpi\n      dup1\n      0x7a69df21\n      eq\n      tag_9\n      jumpi\n      0x00\n      dup1\n      revert\n    tag_20:\n      dup1\n      0x1f927dcb\n      eq\n      tag_3\n      jumpi\n      dup1\n      0x423c79d8\n      eq\n      tag_4\n      jumpi\n      dup1\n      0x5b6caa4c\n      eq\n      tag_5\n      jumpi\n      0x00\n      dup1\n      revert\n    tag_1:\n      jumpi(tag_2, calldatasize)\n      stop\n    tag_2:\n      0x00\n      dup1\n      revert\n        /* \"ZKSYNC/quickcalls.sol\":22882:22912  uint256 public FeePercent = 10 */\n    tag_3:\n      callvalue\n      dup1\n      iszero\n      tag_23\n      jumpi\n      0x00\n      dup1\n      revert\n    tag_23:\n      pop\n      tag_24\n      sload(0x06)\n      dup2\n      jump\n    tag_24:\n      mload(0x40)\n        /* \"#utility.yul\":16675:16700   */\n      swap1\n      dup2\n      mstore\n        /* \"#utility.yul\":16663:16665   */\n      0x20\n        /* \"#utility.yul\":16648:16666   */\n      add\n        /* \"ZKSYNC/quickcalls.sol\":22882:22912  uint256 public FeePercent = 10 */\n    tag_26:\n      mload(0x40)\n      dup1\n      swap2\n      sub\n      swap1\n      return\n        /* \"ZKSYNC/quickcalls.sol\":23480:26271  function _1StakeUsingBNB (address _TokenA, address _TokenB, address _routerAddress) external payable {\r... */\n    tag_4:\n      tag_28\n      tag_29\n      calldatasize\n      0x04\n      tag_30\n      jump\t// in\n    tag_29:\n      tag_31\n      jump\t// in\n    tag_28:\n      stop\n        /* \"ZKSYNC/quickcalls.sol\":26279:26580  function _1StakeToken (uint256 _TokenInput, address _TokenH, address _TokenA, address _TokenB, address _routerAddress, address _routerAddress2) external {\r... */\n    tag_5:\n      callvalue\n      dup1\n      iszero\n      tag_32\n      jumpi\n      0x00\n      dup1\n      revert\n    tag_32:\n      pop\n      tag_28\n      tag_34\n      calldatasize\n      0x04\n      tag_35\n      jump\t// in\n    tag_34:\n      tag_36\n      jump\t// in\n        /* \"ZKSYNC/quickcalls.sol\":37139:37307  function _bnbToToken (address _TokenOut, address _RouterOut) external payable {\r... */\n    tag_6:\n      tag_28\n      tag_38\n      calldatasize\n      0x04\n      tag_39\n      jump\t// in\n    tag_38:\n      tag_40\n      jump\t// in\n        /* \"ZKSYNC/quickcalls.sol\":22930:22953  address public treasury */\n    tag_7:\n      callvalue\n      dup1\n      iszero\n      tag_41\n      jumpi\n      0x00\n      dup1\n      revert\n    tag_41:\n      pop\n      sload(0x07)\n      tag_42\n      swap1\n      sub(shl(0xa0, 0x01), 0x01)\n      and\n      dup2\n      jump\n    tag_42:\n      mload(0x40)\n      sub(shl(0xa0, 0x01), 0x01)\n        /* \"#utility.yul\":7466:7498   */\n      swap1\n      swap2\n      and\n        /* \"#utility.yul\":7448:7499   */\n      dup2\n      mstore\n        /* \"#utility.yul\":7436:7438   */\n      0x20\n        /* \"#utility.yul\":7421:7439   */\n      add\n        /* \"ZKSYNC/quickcalls.sol\":22930:22953  address public treasury */\n      tag_26\n        /* \"#utility.yul\":7302:7505   */\n      jump\n        /* \"ZKSYNC/quickcalls.sol\":19652:19755  function renounceOwnership() public virtual onlyOwner {\r... */\n    tag_8:\n      callvalue\n      dup1\n      iszero\n      tag_46\n      jumpi\n      0x00\n      dup1\n      revert\n    tag_46:\n      pop\n      tag_28\n      tag_48\n      jump\t// in\n        /* \"ZKSYNC/quickcalls.sol\":36936:37131  function setBNBBalance(address token, uint256 amount) public {\r... */\n    tag_9:\n      callvalue\n      dup1\n      iszero\n      tag_49\n      jumpi\n      0x00\n      dup1\n      revert\n    tag_49:\n      pop\n      tag_28\n      tag_51\n      calldatasize\n      0x04\n      tag_52\n      jump\t// in\n    tag_51:\n      tag_53\n      jump\t// in\n        /* \"ZKSYNC/quickcalls.sol\":23262:23468  function _SetFeePercent(uint256 _FeePercentInBip) external onlyOwner {\r... */\n    tag_10:\n      callvalue\n      dup1\n      iszero\n      tag_54\n      jumpi\n      0x00\n      dup1\n      revert\n    tag_54:\n      pop\n      tag_28\n      tag_56\n      calldatasize\n      0x04\n      tag_57\n      jump\t// in\n    tag_56:\n      tag_58\n      jump\t// in\n        /* \"ZKSYNC/quickcalls.sol\":19001:19088  function owner() public view virtual returns (address) {\r... */\n    tag_11:\n      callvalue\n      dup1\n      iszero\n      tag_59\n      jumpi\n      0x00\n      dup1\n      revert\n    tag_59:\n      pop\n        /* \"ZKSYNC/quickcalls.sol\":19047:19054  address */\n      0x00\n        /* \"ZKSYNC/quickcalls.sol\":19074:19080  _owner */\n      sload\n      sub(shl(0xa0, 0x01), 0x01)\n      and\n        /* \"ZKSYNC/quickcalls.sol\":19001:19088  function owner() public view virtual returns (address) {\r... */\n      jump(tag_42)\n        /* \"ZKSYNC/quickcalls.sol\":32988:36928  function _BreakLPReturnToken (address _LPToken, uint256 _TokenInput, address _TokenA, address _TokenB, address _router, address _TokenH, address _router2) external {\r... */\n    tag_12:\n      callvalue\n      dup1\n      iszero\n      tag_63\n      jumpi\n      0x00\n      dup1\n      revert\n    tag_63:\n      pop\n      tag_28\n      tag_65\n      calldatasize\n      0x04\n      tag_66\n      jump\t// in\n    tag_65:\n      tag_67\n      jump\t// in\n        /* \"ZKSYNC/quickcalls.sol\":42269:42563  function withdrawlToken(address _tokenAddress) external onlyOwner {\r... */\n    tag_13:\n      callvalue\n      dup1\n      iszero\n      tag_68\n      jumpi\n      0x00\n      dup1\n      revert\n    tag_68:\n      pop\n      tag_28\n      tag_70\n      calldatasize\n      0x04\n      tag_71\n      jump\t// in\n    tag_70:\n      tag_72\n      jump\t// in\n        /* \"ZKSYNC/quickcalls.sol\":37351:39126  function _tokenToToken(address _TokenIn, uint256 _AmountIn, address _TokenOut, address _RouterIn, address _RouterOut) public {\r... */\n    tag_14:\n      callvalue\n      dup1\n      iszero\n      tag_73\n      jumpi\n      0x00\n      dup1\n      revert\n    tag_73:\n      pop\n      tag_28\n      tag_75\n      calldatasize\n      0x04\n      tag_76\n      jump\t// in\n    tag_75:\n      tag_77\n      jump\t// in\n        /* \"ZKSYNC/quickcalls.sol\":22847:22875  uint256 public BNBSTORED = 0 */\n    tag_15:\n      callvalue\n      dup1\n      iszero\n      tag_78\n      jumpi\n      0x00\n      dup1\n      revert\n    tag_78:\n      pop\n      tag_24\n      sload(0x05)\n      dup2\n      jump\n        /* \"ZKSYNC/quickcalls.sol\":42101:42257  function withdawlBNB() external onlyOwner {\r... */\n    tag_16:\n      callvalue\n      dup1\n      iszero\n      tag_82\n      jumpi\n      0x00\n      dup1\n      revert\n    tag_82:\n      pop\n      tag_28\n      tag_84\n      jump\t// in\n        /* \"ZKSYNC/quickcalls.sol\":19910:20111  function transferOwnership(address newOwner) public virtual onlyOwner {\r... */\n    tag_17:\n      callvalue\n      dup1\n      iszero\n      tag_85\n      jumpi\n      0x00\n      dup1\n      revert\n    tag_85:\n      pop\n      tag_28\n      tag_87\n      calldatasize\n      0x04\n      tag_71\n      jump\t// in\n    tag_87:\n      tag_88\n      jump\t// in\n        /* \"ZKSYNC/quickcalls.sol\":23480:26271  function _1StakeUsingBNB (address _TokenA, address _TokenB, address _routerAddress) external payable {\r... */\n    tag_31:\n        /* \"ZKSYNC/quickcalls.sol\":23592:23598  router */\n      0x02\n        /* \"ZKSYNC/quickcalls.sol\":23592:23615  router = _routerAddress */\n      dup1\n      sload\n      not(sub(shl(0xa0, 0x01), 0x01))\n      swap1\n      dup2\n      and\n      sub(shl(0xa0, 0x01), 0x01)\n      dup5\n      dup2\n      and\n      swap2\n      dup3\n      or\n      swap1\n      swap4\n      sstore\n        /* \"ZKSYNC/quickcalls.sol\":23626:23628  RA */\n      0x08\n        /* \"ZKSYNC/quickcalls.sol\":23626:23652  RA = routerAddress(router) */\n      dup1\n      sload\n      swap1\n      swap3\n      and\n      or\n      swap1\n      sstore\n        /* \"ZKSYNC/quickcalls.sol\":23677:23687  bnbAddress */\n      sload(0x04)\n        /* \"ZKSYNC/quickcalls.sol\":23663:23699  setBNBBalance(bnbAddress, msg.value) */\n      tag_90\n      swap2\n        /* \"ZKSYNC/quickcalls.sol\":23677:23687  bnbAddress */\n      and\n        /* \"ZKSYNC/quickcalls.sol\":23689:23698  msg.value */\n      callvalue\n        /* \"ZKSYNC/quickcalls.sol\":23663:23676  setBNBBalance */\n      tag_53\n        /* \"ZKSYNC/quickcalls.sol\":23663:23699  setBNBBalance(bnbAddress, msg.value) */\n      jump\t// in\n    tag_90:\n        /* \"ZKSYNC/quickcalls.sol\":23710:23726  uint256 InitialB */\n      0x00\n        /* \"ZKSYNC/quickcalls.sol\":23741:23757  uint256 InitialA */\n      dup1\n        /* \"ZKSYNC/quickcalls.sol\":23772:23790  uint256 swapAmount */\n      0x00\n        /* \"ZKSYNC/quickcalls.sol\":23805:23823  uint256 Transfered */\n      dup1\n        /* \"ZKSYNC/quickcalls.sol\":23861:23866  10000 */\n      0x2710\n        /* \"ZKSYNC/quickcalls.sol\":23847:23857  FeePercent */\n      sload(0x06)\n        /* \"ZKSYNC/quickcalls.sol\":23839:23844  10000 */\n      0x2710\n        /* \"ZKSYNC/quickcalls.sol\":23839:23857  10000 - FeePercent */\n      tag_91\n      swap2\n      swap1\n      tag_92\n      jump\t// in\n    tag_91:\n        /* \"ZKSYNC/quickcalls.sol\":23826:23858  msg.value * (10000 - FeePercent) */\n      tag_93\n      swap1\n        /* \"ZKSYNC/quickcalls.sol\":23826:23835  msg.value */\n      callvalue\n        /* \"ZKSYNC/quickcalls.sol\":23826:23858  msg.value * (10000 - FeePercent) */\n      tag_94\n      jump\t// in\n    tag_93:\n        /* \"ZKSYNC/quickcalls.sol\":23826:23866  msg.value * (10000 - FeePercent) / 10000 */\n      tag_95\n      swap2\n      swap1\n      tag_96\n      jump\t// in\n    tag_95:\n        /* \"ZKSYNC/quickcalls.sol\":23965:23975  bnbAddress */\n      sload(0x04)\n        /* \"ZKSYNC/quickcalls.sol\":23805:23866  uint256 Transfered = msg.value * (10000 - FeePercent) / 10000 */\n      swap1\n      swap2\n      pop\n        /* \"ZKSYNC/quickcalls.sol\":23877:23898  uint256 QTTokenAmount */\n      0x00\n      swap1\n      dup2\n      swap1\n      sub(shl(0xa0, 0x01), 0x01)\n        /* \"ZKSYNC/quickcalls.sol\":23954:23975  _TokenA == bnbAddress */\n      dup11\n      dup2\n      and\n        /* \"ZKSYNC/quickcalls.sol\":23965:23975  bnbAddress */\n      swap2\n      and\n        /* \"ZKSYNC/quickcalls.sol\":23954:23975  _TokenA == bnbAddress */\n      eq\n        /* \"ZKSYNC/quickcalls.sol\":23950:24043  if (_TokenA == bnbAddress) {\r... */\n      iszero\n      tag_97\n      jumpi\n        /* \"ZKSYNC/quickcalls.sol\":24014:24021  _TokenB */\n      swap7\n      swap8\n        /* \"ZKSYNC/quickcalls.sol\":24023:24030  _TokenA */\n      swap7\n        /* \"ZKSYNC/quickcalls.sol\":23950:24043  if (_TokenA == bnbAddress) {\r... */\n    tag_97:\n        /* \"ZKSYNC/quickcalls.sol\":24075:24085  bnbAddress */\n      sload(0x04)\n      sub(shl(0xa0, 0x01), 0x01)\n        /* \"ZKSYNC/quickcalls.sol\":24064:24085  _TokenB == bnbAddress */\n      dup10\n      dup2\n      and\n        /* \"ZKSYNC/quickcalls.sol\":24075:24085  bnbAddress */\n      swap2\n      and\n        /* \"ZKSYNC/quickcalls.sol\":24064:24085  _TokenB == bnbAddress */\n      eq\n        /* \"ZKSYNC/quickcalls.sol\":24059:24213  if ( _TokenB == bnbAddress ) {\r... */\n      iszero\n      tag_98\n      jumpi\n        /* \"ZKSYNC/quickcalls.sol\":24134:24144  Transfered */\n      dup3\n        /* \"ZKSYNC/quickcalls.sol\":24110:24131  balanceCheck(_TokenB) */\n      tag_99\n        /* \"ZKSYNC/quickcalls.sol\":24123:24130  _TokenB */\n      dup10\n        /* \"ZKSYNC/quickcalls.sol\":24110:24122  balanceCheck */\n      tag_100\n        /* \"ZKSYNC/quickcalls.sol\":24110:24131  balanceCheck(_TokenB) */\n      jump\t// in\n    tag_99:\n        /* \"ZKSYNC/quickcalls.sol\":24110:24144  balanceCheck(_TokenB) - Transfered */\n      tag_101\n      swap2\n      swap1\n      tag_92\n      jump\t// in\n    tag_101:\n        /* \"ZKSYNC/quickcalls.sol\":24099:24144  InitialB = balanceCheck(_TokenB) - Transfered */\n      swap6\n      pop\n        /* \"ZKSYNC/quickcalls.sol\":24059:24213  if ( _TokenB == bnbAddress ) {\r... */\n      jump(tag_102)\n    tag_98:\n        /* \"ZKSYNC/quickcalls.sol\":24182:24203  balanceCheck(_TokenB) */\n      tag_103\n        /* \"ZKSYNC/quickcalls.sol\":24195:24202  _TokenB */\n      dup9\n        /* \"ZKSYNC/quickcalls.sol\":24182:24194  balanceCheck */\n      tag_100\n        /* \"ZKSYNC/quickcalls.sol\":24182:24203  balanceCheck(_TokenB) */\n      jump\t// in\n    tag_103:\n        /* \"ZKSYNC/quickcalls.sol\":24171:24203  InitialB = balanceCheck(_TokenB) */\n      swap6\n      pop\n        /* \"ZKSYNC/quickcalls.sol\":24059:24213  if ( _TokenB == bnbAddress ) {\r... */\n    tag_102:\n        /* \"ZKSYNC/quickcalls.sol\":24230:24251  balanceCheck(_TokenA) */\n      tag_104\n        /* \"ZKSYNC/quickcalls.sol\":24243:24250  _TokenA */\n      dup10\n        /* \"ZKSYNC/quickcalls.sol\":24230:24242  balanceCheck */\n      tag_100\n        /* \"ZKSYNC/quickcalls.sol\":24230:24251  balanceCheck(_TokenA) */\n      jump\t// in\n    tag_104:\n        /* \"ZKSYNC/quickcalls.sol\":24219:24251  InitialA = balanceCheck(_TokenA) */\n      swap5\n      pop\n        /* \"ZKSYNC/quickcalls.sol\":24307:24317  FeePercent */\n      sload(0x06)\n        /* \"ZKSYNC/quickcalls.sol\":24300:24304  5000 */\n      0x1388\n        /* \"ZKSYNC/quickcalls.sol\":24300:24317  5000 - FeePercent */\n      tag_105\n      swap2\n      swap1\n      tag_92\n      jump\t// in\n    tag_105:\n        /* \"ZKSYNC/quickcalls.sol\":24278:24296  Transfered / 10000 */\n      tag_106\n        /* \"ZKSYNC/quickcalls.sol\":24291:24296  10000 */\n      0x2710\n        /* \"ZKSYNC/quickcalls.sol\":24278:24288  Transfered */\n      dup6\n        /* \"ZKSYNC/quickcalls.sol\":24278:24296  Transfered / 10000 */\n      tag_96\n      jump\t// in\n    tag_106:\n        /* \"ZKSYNC/quickcalls.sol\":24278:24318  Transfered / 10000 * (5000 - FeePercent) */\n      tag_107\n      swap2\n      swap1\n      tag_94\n      jump\t// in\n    tag_107:\n        /* \"ZKSYNC/quickcalls.sol\":24355:24371  new address[](2) */\n      0x40\n      dup1\n      mload\n        /* \"ZKSYNC/quickcalls.sol\":24369:24370  2 */\n      0x02\n        /* \"ZKSYNC/quickcalls.sol\":24355:24371  new address[](2) */\n      dup1\n      dup3\n      mstore\n      0x60\n      dup3\n      add\n      dup4\n      mstore\n        /* \"ZKSYNC/quickcalls.sol\":24264:24319  swapAmount = (Transfered / 10000 * (5000 - FeePercent)) */\n      swap3\n      swap7\n      pop\n        /* \"ZKSYNC/quickcalls.sol\":24330:24352  address[] memory path2 */\n      0x00\n      swap3\n        /* \"ZKSYNC/quickcalls.sol\":24355:24371  new address[](2) */\n      swap1\n      swap2\n      0x20\n      dup4\n      add\n      swap1\n      dup1\n      calldatasize\n      dup4\n      calldatacopy\n      pop\n      pop\n        /* \"ZKSYNC/quickcalls.sol\":24405:24407  RA */\n      sload(0x08)\n        /* \"ZKSYNC/quickcalls.sol\":24405:24414  RA.WETH() */\n      0x40\n      dup1\n      mload\n      shl(0xe3, 0x15ab88c9)\n      dup2\n      mstore\n      swap1\n      mload\n        /* \"ZKSYNC/quickcalls.sol\":24330:24371  address[] memory path2 = new address[](2) */\n      swap4\n      swap5\n      pop\n      sub(shl(0xa0, 0x01), 0x01)\n        /* \"ZKSYNC/quickcalls.sol\":24405:24407  RA */\n      swap1\n      swap2\n      and\n      swap3\n        /* \"ZKSYNC/quickcalls.sol\":24405:24412  RA.WETH */\n      0xad5c4648\n      swap3\n      pop\n        /* \"ZKSYNC/quickcalls.sol\":24405:24414  RA.WETH() */\n      0x04\n      dup1\n      dup4\n      add\n      swap3\n      0x20\n      swap3\n      swap2\n      swap1\n      dup3\n      swap1\n      sub\n      add\n      dup2\n        /* \"ZKSYNC/quickcalls.sol\":24405:24407  RA */\n      dup7\n        /* \"ZKSYNC/quickcalls.sol\":24405:24414  RA.WETH() */\n      dup1\n      extcodesize\n      iszero\n      dup1\n      iszero\n      tag_112\n      jumpi\n      0x00\n      dup1\n      revert\n    tag_112:\n      pop\n      gas\n      staticcall\n      iszero\n      dup1\n      iszero\n      tag_114\n      jumpi\n      returndatasize\n      0x00\n      dup1\n      returndatacopy\n      revert(0x00, returndatasize)\n    tag_114:\n      pop\n      pop\n      pop\n      pop\n      mload(0x40)\n      returndatasize\n      not(0x1f)\n      0x1f\n      dup3\n      add\n      and\n      dup3\n      add\n      dup1\n      0x40\n      mstore\n      pop\n      dup2\n      add\n      swap1\n      tag_115\n      swap2\n      swap1\n      tag_116\n      jump\t// in\n    tag_115:\n        /* \"ZKSYNC/quickcalls.sol\":24394:24399  path2 */\n      dup2\n        /* \"ZKSYNC/quickcalls.sol\":24400:24401  0 */\n      0x00\n        /* \"ZKSYNC/quickcalls.sol\":24394:24402  path2[0] */\n      dup2\n      mload\n      dup2\n      lt\n      tag_118\n      jumpi\n      tag_118\n      tag_119\n      jump\t// in\n    tag_118:\n      0x20\n      mul\n      0x20\n      add\n      add\n        /* \"ZKSYNC/quickcalls.sol\":24394:24414  path2[0] = RA.WETH() */\n      swap1\n      sub(shl(0xa0, 0x01), 0x01)\n      and\n      swap1\n      dup2\n      sub(shl(0xa0, 0x01), 0x01)\n      and\n      dup2\n      mstore\n      pop\n      pop\n        /* \"ZKSYNC/quickcalls.sol\":24448:24455  _TokenA */\n      dup10\n        /* \"ZKSYNC/quickcalls.sol\":24437:24442  path2 */\n      dup2\n        /* \"ZKSYNC/quickcalls.sol\":24443:24444  1 */\n      0x01\n        /* \"ZKSYNC/quickcalls.sol\":24437:24445  path2[1] */\n      dup2\n      mload\n      dup2\n      lt\n      tag_121\n      jumpi\n      tag_121\n      tag_119\n      jump\t// in\n    tag_121:\n      sub(shl(0xa0, 0x01), 0x01)\n        /* \"ZKSYNC/quickcalls.sol\":24437:24455  path2[1] = _TokenA */\n      swap3\n      dup4\n      and\n        /* \"ZKSYNC/quickcalls.sol\":24437:24445  path2[1] */\n      0x20\n      swap2\n      dup3\n      mul\n      swap3\n      swap1\n      swap3\n      add\n      add\n        /* \"ZKSYNC/quickcalls.sol\":24437:24455  path2[1] = _TokenA */\n      mstore\n        /* \"ZKSYNC/quickcalls.sol\":24478:24480  RA */\n      sload(0x08)\n        /* \"ZKSYNC/quickcalls.sol\":24478:24700  RA.swapExactETHForTokensSupportingFeeOnTransferTokens{value: swapAmount} (\r... */\n      mload(0x40)\n      shl(0xe0, 0xb6f9de95)\n      dup2\n      mstore\n        /* \"ZKSYNC/quickcalls.sol\":24478:24480  RA */\n      swap2\n      and\n      swap1\n        /* \"ZKSYNC/quickcalls.sol\":24478:24531  RA.swapExactETHForTokensSupportingFeeOnTransferTokens */\n      0xb6f9de95\n      swap1\n        /* \"ZKSYNC/quickcalls.sol\":24539:24549  swapAmount */\n      dup8\n      swap1\n        /* \"ZKSYNC/quickcalls.sol\":24478:24700  RA.swapExactETHForTokensSupportingFeeOnTransferTokens{value: swapAmount} (\r... */\n      tag_122\n      swap1\n        /* \"ZKSYNC/quickcalls.sol\":24478:24480  RA */\n      0x00\n      swap1\n        /* \"ZKSYNC/quickcalls.sol\":24598:24603  path2 */\n      dup7\n      swap1\n        /* \"ZKSYNC/quickcalls.sol\":24634:24638  this */\n      address\n      swap1\n        /* \"ZKSYNC/quickcalls.sol\":24662:24677  block.timestamp */\n      timestamp\n      swap1\n        /* \"ZKSYNC/quickcalls.sol\":24478:24700  RA.swapExactETHForTokensSupportingFeeOnTransferTokens{value: swapAmount} (\r... */\n      0x04\n      add\n      tag_123\n      jump\t// in\n    tag_122:\n      0x00\n      mload(0x40)\n      dup1\n      dup4\n      sub\n      dup2\n      dup6\n      dup9\n      dup1\n      extcodesize\n      iszero\n      dup1\n      iszero\n      tag_124\n      jumpi\n      0x00\n      dup1\n      revert\n    tag_124:\n      pop\n      gas\n      call\n      iszero\n      dup1\n      iszero\n      tag_126\n      jumpi\n      returndatasize\n      0x00\n      dup1\n      returndatacopy\n      revert(0x00, returndatasize)\n    tag_126:\n      pop\n      pop\n        /* \"ZKSYNC/quickcalls.sol\":24724:24734  bnbAddress */\n      sload(0x04)\n      sub(shl(0xa0, 0x01), 0x01)\n        /* \"ZKSYNC/quickcalls.sol\":24713:24734  _TokenB != bnbAddress */\n      dup14\n      dup2\n      and\n        /* \"ZKSYNC/quickcalls.sol\":24724:24734  bnbAddress */\n      swap2\n      and\n        /* \"ZKSYNC/quickcalls.sol\":24713:24734  _TokenB != bnbAddress */\n      eq\n      swap3\n      pop\n        /* \"ZKSYNC/quickcalls.sol\":24709:25180  if (_TokenB != bnbAddress ) {\r... */\n      tag_127\n      swap2\n      pop\n      pop\n      jumpi\n        /* \"ZKSYNC/quickcalls.sol\":24760:24783  Transfered - swapAmount */\n      tag_128\n        /* \"ZKSYNC/quickcalls.sol\":24773:24783  swapAmount */\n      dup6\n        /* \"ZKSYNC/quickcalls.sol\":24760:24770  Transfered */\n      dup6\n        /* \"ZKSYNC/quickcalls.sol\":24760:24783  Transfered - swapAmount */\n      tag_92\n      jump\t// in\n    tag_128:\n        /* \"ZKSYNC/quickcalls.sol\":24819:24835  new address[](2) */\n      0x40\n      dup1\n      mload\n        /* \"ZKSYNC/quickcalls.sol\":24833:24834  2 */\n      0x02\n        /* \"ZKSYNC/quickcalls.sol\":24819:24835  new address[](2) */\n      dup1\n      dup3\n      mstore\n      0x60\n      dup3\n      add\n      dup4\n      mstore\n        /* \"ZKSYNC/quickcalls.sol\":24747:24783  swapAmount = Transfered - swapAmount */\n      swap3\n      swap8\n      pop\n        /* \"ZKSYNC/quickcalls.sol\":24793:24816  address[] memory path21 */\n      0x00\n      swap3\n        /* \"ZKSYNC/quickcalls.sol\":24819:24835  new address[](2) */\n      swap1\n      swap2\n      0x20\n      dup4\n      add\n      swap1\n      dup1\n      calldatasize\n      dup4\n      calldatacopy\n      pop\n      pop\n        /* \"ZKSYNC/quickcalls.sol\":24870:24872  RA */\n      sload(0x08)\n        /* \"ZKSYNC/quickcalls.sol\":24870:24879  RA.WETH() */\n      0x40\n      dup1\n      mload\n      shl(0xe3, 0x15ab88c9)\n      dup2\n      mstore\n      swap1\n      mload\n        /* \"ZKSYNC/quickcalls.sol\":24793:24835  address[] memory path21 = new address[](2) */\n      swap4\n      swap5\n      pop\n      sub(shl(0xa0, 0x01), 0x01)\n        /* \"ZKSYNC/quickcalls.sol\":24870:24872  RA */\n      swap1\n      swap2\n      and\n      swap3\n        /* \"ZKSYNC/quickcalls.sol\":24870:24877  RA.WETH */\n      0xad5c4648\n      swap3\n      pop\n        /* \"ZKSYNC/quickcalls.sol\":24870:24879  RA.WETH() */\n      0x04\n      dup1\n      dup4\n      add\n      swap3\n      0x20\n      swap3\n      swap2\n      swap1\n      dup3\n      swap1\n      sub\n      add\n      dup2\n        /* \"ZKSYNC/quickcalls.sol\":24870:24872  RA */\n      dup7\n        /* \"ZKSYNC/quickcalls.sol\":24870:24879  RA.WETH() */\n      dup1\n      extcodesize\n      iszero\n      dup1\n      iszero\n      tag_132\n      jumpi\n      0x00\n      dup1\n      revert\n    tag_132:\n      pop\n      gas\n      staticcall\n      iszero\n      dup1\n      iszero\n      tag_134\n      jumpi\n      returndatasize\n      0x00\n      dup1\n      returndatacopy\n      revert(0x00, returndatasize)\n    tag_134:\n      pop\n      pop\n      pop\n      pop\n      mload(0x40)\n      returndatasize\n      not(0x1f)\n      0x1f\n      dup3\n      add\n      and\n      dup3\n      add\n      dup1\n      0x40\n      mstore\n      pop\n      dup2\n      add\n      swap1\n      tag_135\n      swap2\n      swap1\n      tag_116\n      jump\t// in\n    tag_135:\n        /* \"ZKSYNC/quickcalls.sol\":24858:24864  path21 */\n      dup2\n        /* \"ZKSYNC/quickcalls.sol\":24865:24866  0 */\n      0x00\n        /* \"ZKSYNC/quickcalls.sol\":24858:24867  path21[0] */\n      dup2\n      mload\n      dup2\n      lt\n      tag_137\n      jumpi\n      tag_137\n      tag_119\n      jump\t// in\n    tag_137:\n      0x20\n      mul\n      0x20\n      add\n      add\n        /* \"ZKSYNC/quickcalls.sol\":24858:24879  path21[0] = RA.WETH() */\n      swap1\n      sub(shl(0xa0, 0x01), 0x01)\n      and\n      swap1\n      dup2\n      sub(shl(0xa0, 0x01), 0x01)\n      and\n      dup2\n      mstore\n      pop\n      pop\n        /* \"ZKSYNC/quickcalls.sol\":24914:24921  _TokenB */\n      dup10\n        /* \"ZKSYNC/quickcalls.sol\":24902:24908  path21 */\n      dup2\n        /* \"ZKSYNC/quickcalls.sol\":24909:24910  1 */\n      0x01\n        /* \"ZKSYNC/quickcalls.sol\":24902:24911  path21[1] */\n      dup2\n      mload\n      dup2\n      lt\n      tag_139\n      jumpi\n      tag_139\n      tag_119\n      jump\t// in\n    tag_139:\n      sub(shl(0xa0, 0x01), 0x01)\n        /* \"ZKSYNC/quickcalls.sol\":24902:24921  path21[1] = _TokenB */\n      swap3\n      dup4\n      and\n        /* \"ZKSYNC/quickcalls.sol\":24902:24911  path21[1] */\n      0x20\n      swap2\n      dup3\n      mul\n      swap3\n      swap1\n      swap3\n      add\n      add\n        /* \"ZKSYNC/quickcalls.sol\":24902:24921  path21[1] = _TokenB */\n      mstore\n        /* \"ZKSYNC/quickcalls.sol\":24944:24946  RA */\n      sload(0x08)\n        /* \"ZKSYNC/quickcalls.sol\":24944:25167  RA.swapExactETHForTokensSupportingFeeOnTransferTokens{value: swapAmount} (\r... */\n      mload(0x40)\n      shl(0xe0, 0xb6f9de95)\n      dup2\n      mstore\n        /* \"ZKSYNC/quickcalls.sol\":24944:24946  RA */\n      swap2\n      and\n      swap1\n        /* \"ZKSYNC/quickcalls.sol\":24944:24997  RA.swapExactETHForTokensSupportingFeeOnTransferTokens */\n      0xb6f9de95\n      swap1\n        /* \"ZKSYNC/quickcalls.sol\":25005:25015  swapAmount */\n      dup9\n      swap1\n        /* \"ZKSYNC/quickcalls.sol\":24944:25167  RA.swapExactETHForTokensSupportingFeeOnTransferTokens{value: swapAmount} (\r... */\n      tag_140\n      swap1\n        /* \"ZKSYNC/quickcalls.sol\":24944:24946  RA */\n      0x00\n      swap1\n        /* \"ZKSYNC/quickcalls.sol\":25064:25070  path21 */\n      dup7\n      swap1\n        /* \"ZKSYNC/quickcalls.sol\":25101:25105  this */\n      address\n      swap1\n        /* \"ZKSYNC/quickcalls.sol\":25129:25144  block.timestamp */\n      timestamp\n      swap1\n        /* \"ZKSYNC/quickcalls.sol\":24944:25167  RA.swapExactETHForTokensSupportingFeeOnTransferTokens{value: swapAmount} (\r... */\n      0x04\n      add\n      tag_123\n      jump\t// in\n    tag_140:\n      0x00\n      mload(0x40)\n      dup1\n      dup4\n      sub\n      dup2\n      dup6\n      dup9\n      dup1\n      extcodesize\n      iszero\n      dup1\n      iszero\n      tag_141\n      jumpi\n      0x00\n      dup1\n      revert\n    tag_141:\n      pop\n      gas\n      call\n      iszero\n      dup1\n      iszero\n      tag_143\n      jumpi\n      returndatasize\n      0x00\n      dup1\n      returndatacopy\n      revert(0x00, returndatasize)\n    tag_143:\n      pop\n      pop\n      pop\n      pop\n      pop\n        /* \"ZKSYNC/quickcalls.sol\":24737:25180  {\r... */\n      pop\n        /* \"ZKSYNC/quickcalls.sol\":24709:25180  if (_TokenB != bnbAddress ) {\r... */\n    tag_127:\n        /* \"ZKSYNC/quickcalls.sol\":25235:25243  InitialA */\n      dup6\n        /* \"ZKSYNC/quickcalls.sol\":25211:25232  balanceCheck(_TokenA) */\n      tag_144\n        /* \"ZKSYNC/quickcalls.sol\":25224:25231  _TokenA */\n      dup12\n        /* \"ZKSYNC/quickcalls.sol\":25211:25223  balanceCheck */\n      tag_100\n        /* \"ZKSYNC/quickcalls.sol\":25211:25232  balanceCheck(_TokenA) */\n      jump\t// in\n    tag_144:\n        /* \"ZKSYNC/quickcalls.sol\":25211:25243  balanceCheck(_TokenA) - InitialA */\n      tag_145\n      swap2\n      swap1\n      tag_92\n      jump\t// in\n    tag_145:\n        /* \"ZKSYNC/quickcalls.sol\":25194:25243  LPTokenAAmount = balanceCheck(_TokenA) - InitialA */\n      swap2\n      pop\n        /* \"ZKSYNC/quickcalls.sol\":25298:25306  InitialB */\n      dup7\n        /* \"ZKSYNC/quickcalls.sol\":25274:25295  balanceCheck(_TokenB) */\n      tag_146\n        /* \"ZKSYNC/quickcalls.sol\":25287:25294  _TokenB */\n      dup11\n        /* \"ZKSYNC/quickcalls.sol\":25274:25286  balanceCheck */\n      tag_100\n        /* \"ZKSYNC/quickcalls.sol\":25274:25295  balanceCheck(_TokenB) */\n      jump\t// in\n    tag_146:\n        /* \"ZKSYNC/quickcalls.sol\":25274:25306  balanceCheck(_TokenB) - InitialB */\n      tag_147\n      swap2\n      swap1\n      tag_92\n      jump\t// in\n    tag_147:\n        /* \"ZKSYNC/quickcalls.sol\":25378:25384  router */\n      sload(0x02)\n        /* \"ZKSYNC/quickcalls.sol\":25258:25306  QTTokenAmount = balanceCheck(_TokenB) - InitialB */\n      swap1\n      swap4\n      pop\n        /* \"ZKSYNC/quickcalls.sol\":25337:25385  checkAllowance1(_TokenA, LPTokenAAmount, router) */\n      tag_148\n      swap1\n        /* \"ZKSYNC/quickcalls.sol\":25353:25360  _TokenA */\n      dup12\n      swap1\n        /* \"ZKSYNC/quickcalls.sol\":25362:25376  LPTokenAAmount */\n      dup5\n      swap1\n      sub(shl(0xa0, 0x01), 0x01)\n        /* \"ZKSYNC/quickcalls.sol\":25378:25384  router */\n      and\n        /* \"ZKSYNC/quickcalls.sol\":25337:25352  checkAllowance1 */\n      tag_149\n        /* \"ZKSYNC/quickcalls.sol\":25337:25385  checkAllowance1(_TokenA, LPTokenAAmount, router) */\n      jump\t// in\n    tag_148:\n        /* \"ZKSYNC/quickcalls.sol\":25440:25446  router */\n      sload(0x02)\n        /* \"ZKSYNC/quickcalls.sol\":25400:25447  checkAllowance1(_TokenB, QTTokenAmount, router) */\n      tag_150\n      swap1\n        /* \"ZKSYNC/quickcalls.sol\":25416:25423  _TokenB */\n      dup11\n      swap1\n        /* \"ZKSYNC/quickcalls.sol\":25425:25438  QTTokenAmount */\n      dup6\n      swap1\n      sub(shl(0xa0, 0x01), 0x01)\n        /* \"ZKSYNC/quickcalls.sol\":25440:25446  router */\n      and\n        /* \"ZKSYNC/quickcalls.sol\":25400:25415  checkAllowance1 */\n      tag_149\n        /* \"ZKSYNC/quickcalls.sol\":25400:25447  checkAllowance1(_TokenB, QTTokenAmount, router) */\n      jump\t// in\n    tag_150:\n        /* \"ZKSYNC/quickcalls.sol\":25497:25507  bnbAddress */\n      sload(0x04)\n      sub(shl(0xa0, 0x01), 0x01)\n        /* \"ZKSYNC/quickcalls.sol\":25486:25507  _TokenB == bnbAddress */\n      dup11\n      dup2\n      and\n        /* \"ZKSYNC/quickcalls.sol\":25497:25507  bnbAddress */\n      swap2\n      and\n        /* \"ZKSYNC/quickcalls.sol\":25486:25507  _TokenB == bnbAddress */\n      eq\n        /* \"ZKSYNC/quickcalls.sol\":25482:26061  if (_TokenB == bnbAddress) {\r... */\n      iszero\n      tag_151\n      jumpi\n        /* \"ZKSYNC/quickcalls.sol\":25528:25530  RA */\n      sload(0x08)\n        /* \"ZKSYNC/quickcalls.sol\":25528:25750  RA.addLiquidityETH{value: QTTokenAmount} (\r... */\n      mload(0x40)\n      shl(0xe0, 0xf305d719)\n      dup2\n      mstore\n      sub(shl(0xa0, 0x01), 0x01)\n        /* \"ZKSYNC/quickcalls.sol\":25528:25530  RA */\n      swap1\n      swap2\n      and\n      swap1\n        /* \"ZKSYNC/quickcalls.sol\":25528:25546  RA.addLiquidityETH */\n      0xf305d719\n      swap1\n        /* \"ZKSYNC/quickcalls.sol\":25554:25567  QTTokenAmount */\n      dup6\n      swap1\n        /* \"ZKSYNC/quickcalls.sol\":25528:25750  RA.addLiquidityETH{value: QTTokenAmount} (\r... */\n      tag_152\n      swap1\n        /* \"ZKSYNC/quickcalls.sol\":25588:25595  _TokenA */\n      dup15\n      swap1\n        /* \"ZKSYNC/quickcalls.sol\":25614:25628  LPTokenAAmount */\n      dup8\n      swap1\n        /* \"ZKSYNC/quickcalls.sol\":25528:25530  RA */\n      0x00\n      swap1\n      dup2\n      swap1\n        /* \"ZKSYNC/quickcalls.sol\":25687:25697  msg.sender */\n      caller\n      swap1\n        /* \"ZKSYNC/quickcalls.sol\":25716:25731  block.timestamp */\n      timestamp\n      swap1\n        /* \"ZKSYNC/quickcalls.sol\":25528:25750  RA.addLiquidityETH{value: QTTokenAmount} (\r... */\n      0x04\n      add\n      tag_153\n      jump\t// in\n    tag_152:\n      0x60\n      mload(0x40)\n      dup1\n      dup4\n      sub\n      dup2\n      dup6\n      dup9\n      dup1\n      extcodesize\n      iszero\n      dup1\n      iszero\n      tag_154\n      jumpi\n      0x00\n      dup1\n      revert\n    tag_154:\n      pop\n      gas\n      call\n      iszero\n      dup1\n      iszero\n      tag_156\n      jumpi\n      returndatasize\n      0x00\n      dup1\n      returndatacopy\n      revert(0x00, returndatasize)\n    tag_156:\n      pop\n      pop\n      pop\n      pop\n      pop\n      mload(0x40)\n      returndatasize\n      not(0x1f)\n      0x1f\n      dup3\n      add\n      and\n      dup3\n      add\n      dup1\n      0x40\n      mstore\n      pop\n      dup2\n      add\n      swap1\n      tag_157\n      swap2\n      swap1\n      tag_158\n      jump\t// in\n    tag_157:\n      pop\n      pop\n      pop\n        /* \"ZKSYNC/quickcalls.sol\":25482:26061  if (_TokenB == bnbAddress) {\r... */\n      jump(tag_159)\n    tag_151:\n        /* \"ZKSYNC/quickcalls.sol\":25791:25793  RA */\n      sload(0x08)\n        /* \"ZKSYNC/quickcalls.sol\":25791:26045  RA.addLiquidity(\r... */\n      mload(0x40)\n      shl(0xe8, 0xe8e337)\n      dup2\n      mstore\n      sub(shl(0xa0, 0x01), 0x01)\n        /* \"ZKSYNC/quickcalls.sol\":25791:25793  RA */\n      swap1\n      swap2\n      and\n      swap1\n        /* \"ZKSYNC/quickcalls.sol\":25791:25806  RA.addLiquidity */\n      0xe8e33700\n      swap1\n        /* \"ZKSYNC/quickcalls.sol\":25791:26045  RA.addLiquidity(\r... */\n      tag_160\n      swap1\n        /* \"ZKSYNC/quickcalls.sol\":25825:25832  _TokenA */\n      dup14\n      swap1\n        /* \"ZKSYNC/quickcalls.sol\":25851:25858  _TokenB */\n      dup14\n      swap1\n        /* \"ZKSYNC/quickcalls.sol\":25877:25891  LPTokenAAmount */\n      dup8\n      swap1\n        /* \"ZKSYNC/quickcalls.sol\":25910:25923  QTTokenAmount */\n      dup10\n      swap1\n        /* \"ZKSYNC/quickcalls.sol\":25791:25793  RA */\n      0x00\n      swap1\n      dup2\n      swap1\n        /* \"ZKSYNC/quickcalls.sol\":25982:25992  msg.sender */\n      caller\n      swap1\n        /* \"ZKSYNC/quickcalls.sol\":26011:26026  block.timestamp */\n      timestamp\n      swap1\n        /* \"ZKSYNC/quickcalls.sol\":25791:26045  RA.addLiquidity(\r... */\n      0x04\n      add\n      tag_161\n      jump\t// in\n    tag_160:\n      0x60\n      mload(0x40)\n      dup1\n      dup4\n      sub\n      dup2\n      0x00\n      dup8\n      dup1\n      extcodesize\n      iszero\n      dup1\n      iszero\n      tag_162\n      jumpi\n      0x00\n      dup1\n      revert\n    tag_162:\n      pop\n      gas\n      call\n      iszero\n      dup1\n      iszero\n      tag_164\n      jumpi\n      returndatasize\n      0x00\n      dup1\n      returndatacopy\n      revert(0x00, returndatasize)\n    tag_164:\n      pop\n      pop\n      pop\n      pop\n      mload(0x40)\n      returndatasize\n      not(0x1f)\n      0x1f\n      dup3\n      add\n      and\n      dup3\n      add\n      dup1\n      0x40\n      mstore\n      pop\n      dup2\n      add\n      swap1\n      tag_165\n      swap2\n      swap1\n      tag_158\n      jump\t// in\n    tag_165:\n      pop\n      pop\n      pop\n        /* \"ZKSYNC/quickcalls.sol\":25482:26061  if (_TokenB == bnbAddress) {\r... */\n    tag_159:\n        /* \"ZKSYNC/quickcalls.sol\":26095:26103  treasury */\n      sload(0x07)\n        /* \"ZKSYNC/quickcalls.sol\":26138:26150  new bytes(0) */\n      0x40\n      dup1\n      mload\n        /* \"ZKSYNC/quickcalls.sol\":26078:26090  bool success */\n      0x00\n        /* \"ZKSYNC/quickcalls.sol\":26138:26150  new bytes(0) */\n      dup1\n      dup3\n      mstore\n      0x20\n      dup3\n      add\n      swap3\n      dup4\n      swap1\n      mstore\n        /* \"ZKSYNC/quickcalls.sol\":26078:26090  bool success */\n      swap3\n      sub(shl(0xa0, 0x01), 0x01)\n        /* \"ZKSYNC/quickcalls.sol\":26095:26103  treasury */\n      and\n      swap2\n        /* \"ZKSYNC/quickcalls.sol\":26115:26136  address(this).balance */\n      selfbalance\n      swap2\n        /* \"ZKSYNC/quickcalls.sol\":26095:26151  treasury.call{value:address(this).balance}(new bytes(0)) */\n      tag_169\n      swap2\n      tag_170\n      jump\t// in\n    tag_169:\n      0x00\n      mload(0x40)\n      dup1\n      dup4\n      sub\n      dup2\n      dup6\n      dup8\n      gas\n      call\n      swap3\n      pop\n      pop\n      pop\n      returndatasize\n      dup1\n      0x00\n      dup2\n      eq\n      tag_173\n      jumpi\n      mload(0x40)\n      swap2\n      pop\n      and(add(returndatasize, 0x3f), not(0x1f))\n      dup3\n      add\n      0x40\n      mstore\n      returndatasize\n      dup3\n      mstore\n      returndatasize\n      0x00\n      0x20\n      dup5\n      add\n      returndatacopy\n      jump(tag_172)\n    tag_173:\n      0x60\n      swap2\n      pop\n    tag_172:\n      pop\n        /* \"ZKSYNC/quickcalls.sol\":26077:26151  (bool success,) = treasury.call{value:address(this).balance}(new bytes(0)) */\n      pop\n      swap1\n      pop\n        /* \"ZKSYNC/quickcalls.sol\":26170:26177  success */\n      dup1\n        /* \"ZKSYNC/quickcalls.sol\":26162:26217  require(success, 'TransferHelper: ETH_TRANSFER_FAILED') */\n      tag_174\n      jumpi\n      mload(0x40)\n      shl(0xe5, 0x461bcd)\n      dup2\n      mstore\n      0x04\n      add\n      tag_175\n      swap1\n      tag_176\n      jump\t// in\n    tag_175:\n      mload(0x40)\n      dup1\n      swap2\n      sub\n      swap1\n      revert\n    tag_174:\n      pop\n      pop\n        /* \"ZKSYNC/quickcalls.sol\":26240:26261  address(this).balance */\n      selfbalance\n        /* \"ZKSYNC/quickcalls.sol\":26228:26237  BNBSTORED */\n      0x05\n        /* \"ZKSYNC/quickcalls.sol\":26228:26261  BNBSTORED = address(this).balance */\n      sstore\n      pop\n      pop\n      pop\n      pop\n      pop\n      pop\n      pop\n      pop\n      pop\n        /* \"ZKSYNC/quickcalls.sol\":23480:26271  function _1StakeUsingBNB (address _TokenA, address _TokenB, address _routerAddress) external payable {\r... */\n      jump\t// out\n        /* \"ZKSYNC/quickcalls.sol\":26279:26580  function _1StakeToken (uint256 _TokenInput, address _TokenH, address _TokenA, address _TokenB, address _routerAddress, address _routerAddress2) external {\r... */\n    tag_36:\n        /* \"ZKSYNC/quickcalls.sol\":26443:26449  router */\n      0x02\n        /* \"ZKSYNC/quickcalls.sol\":26443:26466  router = _routerAddress */\n      dup1\n      sload\n      sub(shl(0xa0, 0x01), 0x01)\n      dup1\n      dup6\n      and\n      not(sub(shl(0xa0, 0x01), 0x01))\n      swap3\n      dup4\n      and\n      or\n      swap1\n      swap3\n      sstore\n        /* \"ZKSYNC/quickcalls.sol\":26477:26484  router2 */\n      0x03\n        /* \"ZKSYNC/quickcalls.sol\":26477:26502  router2 = _routerAddress2 */\n      dup1\n      sload\n      swap3\n      dup5\n      and\n      swap3\n      swap1\n      swap2\n      and\n      swap2\n      swap1\n      swap2\n      or\n      swap1\n      sstore\n        /* \"ZKSYNC/quickcalls.sol\":26513:26572  _1TokenInLPTokenOut(_TokenInput, _TokenH, _TokenA, _TokenB) */\n      tag_178\n        /* \"ZKSYNC/quickcalls.sol\":26533:26544  _TokenInput */\n      dup7\n        /* \"ZKSYNC/quickcalls.sol\":26546:26553  _TokenH */\n      dup7\n        /* \"ZKSYNC/quickcalls.sol\":26555:26562  _TokenA */\n      dup7\n        /* \"ZKSYNC/quickcalls.sol\":26564:26571  _TokenB */\n      dup7\n        /* \"ZKSYNC/quickcalls.sol\":26513:26532  _1TokenInLPTokenOut */\n      tag_179\n        /* \"ZKSYNC/quickcalls.sol\":26513:26572  _1TokenInLPTokenOut(_TokenInput, _TokenH, _TokenA, _TokenB) */\n      jump\t// in\n    tag_178:\n        /* \"ZKSYNC/quickcalls.sol\":26279:26580  function _1StakeToken (uint256 _TokenInput, address _TokenH, address _TokenA, address _TokenB, address _routerAddress, address _routerAddress2) external {\r... */\n      pop\n      pop\n      pop\n      pop\n      pop\n      pop\n      jump\t// out\n        /* \"ZKSYNC/quickcalls.sol\":37139:37307  function _bnbToToken (address _TokenOut, address _RouterOut) external payable {\r... */\n    tag_40:\n        /* \"ZKSYNC/quickcalls.sol\":37242:37252  bnbAddress */\n      sload(0x04)\n        /* \"ZKSYNC/quickcalls.sol\":37228:37299  _tokenToToken(bnbAddress, msg.value, _TokenOut, _RouterOut, _RouterOut) */\n      tag_181\n      swap1\n      sub(shl(0xa0, 0x01), 0x01)\n        /* \"ZKSYNC/quickcalls.sol\":37242:37252  bnbAddress */\n      and\n        /* \"ZKSYNC/quickcalls.sol\":37254:37263  msg.value */\n      callvalue\n        /* \"ZKSYNC/quickcalls.sol\":37265:37274  _TokenOut */\n      dup5\n        /* \"ZKSYNC/quickcalls.sol\":37276:37286  _RouterOut */\n      dup5\n      dup1\n        /* \"ZKSYNC/quickcalls.sol\":37228:37241  _tokenToToken */\n      tag_77\n        /* \"ZKSYNC/quickcalls.sol\":37228:37299  _tokenToToken(bnbAddress, msg.value, _TokenOut, _RouterOut, _RouterOut) */\n      jump\t// in\n    tag_181:\n        /* \"ZKSYNC/quickcalls.sol\":37139:37307  function _bnbToToken (address _TokenOut, address _RouterOut) external payable {\r... */\n      pop\n      pop\n      jump\t// out\n        /* \"ZKSYNC/quickcalls.sol\":19652:19755  function renounceOwnership() public virtual onlyOwner {\r... */\n    tag_48:\n        /* \"ZKSYNC/quickcalls.sol\":19047:19054  address */\n      0x00\n        /* \"ZKSYNC/quickcalls.sol\":19074:19080  _owner */\n      sload\n      sub(shl(0xa0, 0x01), 0x01)\n      and\n        /* \"ZKSYNC/quickcalls.sol\":17805:17815  msg.sender */\n      caller\n        /* \"ZKSYNC/quickcalls.sol\":19221:19244  owner() == _msgSender() */\n      eq\n        /* \"ZKSYNC/quickcalls.sol\":19213:19281  require(owner() == _msgSender(), \"Ownable: caller is not the owner\") */\n      tag_186\n      jumpi\n      mload(0x40)\n      shl(0xe5, 0x461bcd)\n      dup2\n      mstore\n      0x04\n      add\n      tag_175\n      swap1\n      tag_188\n      jump\t// in\n    tag_186:\n        /* \"ZKSYNC/quickcalls.sol\":19717:19747  _transferOwnership(address(0)) */\n      tag_190\n        /* \"ZKSYNC/quickcalls.sol\":19744:19745  0 */\n      0x00\n        /* \"ZKSYNC/quickcalls.sol\":19717:19735  _transferOwnership */\n      tag_191\n        /* \"ZKSYNC/quickcalls.sol\":19717:19747  _transferOwnership(address(0)) */\n      jump\t// in\n    tag_190:\n        /* \"ZKSYNC/quickcalls.sol\":19652:19755  function renounceOwnership() public virtual onlyOwner {\r... */\n      jump\t// out\n        /* \"ZKSYNC/quickcalls.sol\":36936:37131  function setBNBBalance(address token, uint256 amount) public {\r... */\n    tag_53:\n        /* \"ZKSYNC/quickcalls.sol\":37020:37030  bnbAddress */\n      sload(0x04)\n      sub(shl(0xa0, 0x01), 0x01)\n        /* \"ZKSYNC/quickcalls.sol\":37011:37030  token == bnbAddress */\n      dup4\n      dup2\n      and\n        /* \"ZKSYNC/quickcalls.sol\":37020:37030  bnbAddress */\n      swap2\n      and\n        /* \"ZKSYNC/quickcalls.sol\":37011:37030  token == bnbAddress */\n      eq\n        /* \"ZKSYNC/quickcalls.sol\":37008:37123  if(token == bnbAddress) BNBSTORED = address(this).balance - amount;\r... */\n      iszero\n      tag_193\n      jumpi\n        /* \"ZKSYNC/quickcalls.sol\":37044:37074  address(this).balance - amount */\n      tag_194\n        /* \"ZKSYNC/quickcalls.sol\":37068:37074  amount */\n      dup2\n        /* \"ZKSYNC/quickcalls.sol\":37044:37065  address(this).balance */\n      selfbalance\n        /* \"ZKSYNC/quickcalls.sol\":37044:37074  address(this).balance - amount */\n      tag_92\n      jump\t// in\n    tag_194:\n        /* \"ZKSYNC/quickcalls.sol\":37032:37041  BNBSTORED */\n      0x05\n        /* \"ZKSYNC/quickcalls.sol\":37032:37074  BNBSTORED = address(this).balance - amount */\n      sstore\n        /* \"ZKSYNC/quickcalls.sol\":37139:37307  function _bnbToToken (address _TokenOut, address _RouterOut) external payable {\r... */\n      pop\n      pop\n      jump\t// out\n        /* \"ZKSYNC/quickcalls.sol\":37008:37123  if(token == bnbAddress) BNBSTORED = address(this).balance - amount;\r... */\n    tag_193:\n        /* \"ZKSYNC/quickcalls.sol\":37102:37123  address(this).balance */\n      selfbalance\n        /* \"ZKSYNC/quickcalls.sol\":37090:37099  BNBSTORED */\n      0x05\n        /* \"ZKSYNC/quickcalls.sol\":37090:37123  BNBSTORED = address(this).balance */\n      sstore\n        /* \"ZKSYNC/quickcalls.sol\":36936:37131  function setBNBBalance(address token, uint256 amount) public {\r... */\n      pop\n      pop\n      jump\t// out\n        /* \"ZKSYNC/quickcalls.sol\":23262:23468  function _SetFeePercent(uint256 _FeePercentInBip) external onlyOwner {\r... */\n    tag_58:\n        /* \"ZKSYNC/quickcalls.sol\":19047:19054  address */\n      0x00\n        /* \"ZKSYNC/quickcalls.sol\":19074:19080  _owner */\n      sload\n      sub(shl(0xa0, 0x01), 0x01)\n      and\n        /* \"ZKSYNC/quickcalls.sol\":17805:17815  msg.sender */\n      caller\n        /* \"ZKSYNC/quickcalls.sol\":19221:19244  owner() == _msgSender() */\n      eq\n        /* \"ZKSYNC/quickcalls.sol\":19213:19281  require(owner() == _msgSender(), \"Ownable: caller is not the owner\") */\n      tag_199\n      jumpi\n      mload(0x40)\n      shl(0xe5, 0x461bcd)\n      dup2\n      mstore\n      0x04\n      add\n      tag_175\n      swap1\n      tag_188\n      jump\t// in\n    tag_199:\n        /* \"ZKSYNC/quickcalls.sol\":23370:23371  1 */\n      0x01\n        /* \"ZKSYNC/quickcalls.sol\":23350:23366  _FeePercentInBip */\n      dup2\n        /* \"ZKSYNC/quickcalls.sol\":23350:23371  _FeePercentInBip >= 1 */\n      lt\n      iszero\n        /* \"ZKSYNC/quickcalls.sol\":23350:23399  _FeePercentInBip >= 1 && _FeePercentInBip <= 1000 */\n      dup1\n      iszero\n      tag_202\n      jumpi\n      pop\n        /* \"ZKSYNC/quickcalls.sol\":23395:23399  1000 */\n      0x03e8\n        /* \"ZKSYNC/quickcalls.sol\":23375:23391  _FeePercentInBip */\n      dup2\n        /* \"ZKSYNC/quickcalls.sol\":23375:23399  _FeePercentInBip <= 1000 */\n      gt\n      iszero\n        /* \"ZKSYNC/quickcalls.sol\":23350:23399  _FeePercentInBip >= 1 && _FeePercentInBip <= 1000 */\n    tag_202:\n        /* \"ZKSYNC/quickcalls.sol\":23342:23420  require(_FeePercentInBip >= 1 && _FeePercentInBip <= 1000, \"Between 1 and 10\") */\n      tag_203\n      jumpi\n      mload(0x40)\n      shl(0xe5, 0x461bcd)\n      dup2\n      mstore\n        /* \"#utility.yul\":13634:13636   */\n      0x20\n        /* \"ZKSYNC/quickcalls.sol\":23342:23420  require(_FeePercentInBip >= 1 && _FeePercentInBip <= 1000, \"Between 1 and 10\") */\n      0x04\n      dup3\n      add\n        /* \"#utility.yul\":13616:13637   */\n      mstore\n        /* \"#utility.yul\":13673:13675   */\n      0x10\n        /* \"#utility.yul\":13653:13671   */\n      0x24\n      dup3\n      add\n        /* \"#utility.yul\":13646:13676   */\n      mstore\n      shl(0x84, 0x04265747765656e203120616e6420313)\n        /* \"#utility.yul\":13692:13710   */\n      0x44\n      dup3\n      add\n        /* \"#utility.yul\":13685:13731   */\n      mstore\n        /* \"#utility.yul\":13748:13766   */\n      0x64\n      add\n        /* \"ZKSYNC/quickcalls.sol\":23342:23420  require(_FeePercentInBip >= 1 && _FeePercentInBip <= 1000, \"Between 1 and 10\") */\n      tag_175\n        /* \"#utility.yul\":13432:13772   */\n      jump\n        /* \"ZKSYNC/quickcalls.sol\":23342:23420  require(_FeePercentInBip >= 1 && _FeePercentInBip <= 1000, \"Between 1 and 10\") */\n    tag_203:\n        /* \"ZKSYNC/quickcalls.sol\":23431:23441  FeePercent */\n      0x06\n        /* \"ZKSYNC/quickcalls.sol\":23431:23460  FeePercent = _FeePercentInBip */\n      sstore\n        /* \"ZKSYNC/quickcalls.sol\":23262:23468  function _SetFeePercent(uint256 _FeePercentInBip) external onlyOwner {\r... */\n      jump\t// out\n        /* \"ZKSYNC/quickcalls.sol\":32988:36928  function _BreakLPReturnToken (address _LPToken, uint256 _TokenInput, address _TokenA, address _TokenB, address _router, address _TokenH, address _router2) external {\r... */\n    tag_67:\n        /* \"ZKSYNC/quickcalls.sol\":33163:33199  setBNBBalance(_LPToken, _TokenInput) */\n      tag_208\n        /* \"ZKSYNC/quickcalls.sol\":33177:33185  _LPToken */\n      dup8\n        /* \"ZKSYNC/quickcalls.sol\":33187:33198  _TokenInput */\n      dup8\n        /* \"ZKSYNC/quickcalls.sol\":33163:33176  setBNBBalance */\n      tag_53\n        /* \"ZKSYNC/quickcalls.sol\":33163:33199  setBNBBalance(_LPToken, _TokenInput) */\n      jump\t// in\n    tag_208:\n        /* \"ZKSYNC/quickcalls.sol\":33235:33245  bnbAddress */\n      sload(0x04)\n      sub(shl(0xa0, 0x01), 0x01)\n        /* \"ZKSYNC/quickcalls.sol\":33224:33245  _TokenA == bnbAddress */\n      dup7\n      dup2\n      and\n        /* \"ZKSYNC/quickcalls.sol\":33235:33245  bnbAddress */\n      swap2\n      and\n        /* \"ZKSYNC/quickcalls.sol\":33224:33245  _TokenA == bnbAddress */\n      eq\n        /* \"ZKSYNC/quickcalls.sol\":33220:33313  if (_TokenA == bnbAddress) {\r... */\n      iszero\n      tag_209\n      jumpi\n        /* \"ZKSYNC/quickcalls.sol\":33284:33291  _TokenB */\n      swap3\n      swap4\n        /* \"ZKSYNC/quickcalls.sol\":33293:33300  _TokenA */\n      swap3\n        /* \"ZKSYNC/quickcalls.sol\":33220:33313  if (_TokenA == bnbAddress) {\r... */\n    tag_209:\n        /* \"ZKSYNC/quickcalls.sol\":33505:33507  RA */\n      0x08\n        /* \"ZKSYNC/quickcalls.sol\":33505:33532  RA = routerAddress(_router) */\n      dup1\n      sload\n      not(sub(shl(0xa0, 0x01), 0x01))\n      swap1\n      dup2\n      and\n      sub(shl(0xa0, 0x01), 0x01)\n      dup7\n      dup2\n      and\n      swap2\n      swap1\n      swap2\n      or\n      swap1\n      swap3\n      sstore\n        /* \"ZKSYNC/quickcalls.sol\":33543:33546  RA2 */\n      0x09\n        /* \"ZKSYNC/quickcalls.sol\":33543:33572  RA2 = routerAddress(_router2) */\n      dup1\n      sload\n      dup3\n      and\n      dup5\n      dup5\n      and\n      or\n      swap1\n      sstore\n        /* \"ZKSYNC/quickcalls.sol\":33583:33590  TokenLP */\n      0x0a\n        /* \"ZKSYNC/quickcalls.sol\":33583:33609  TokenLP = IERC20(_LPToken) */\n      dup1\n      sload\n      dup3\n      and\n      dup11\n      dup5\n      and\n      or\n      swap1\n      sstore\n        /* \"ZKSYNC/quickcalls.sol\":33620:33626  TokenH */\n      0x0d\n        /* \"ZKSYNC/quickcalls.sol\":33620:33644  TokenH = IERC20(_TokenH) */\n      dup1\n      sload\n      dup3\n      and\n      dup6\n      dup5\n      and\n      or\n      swap1\n      sstore\n        /* \"ZKSYNC/quickcalls.sol\":33655:33661  TokenA */\n      0x0b\n        /* \"ZKSYNC/quickcalls.sol\":33655:33679  TokenA = IERC20(_TokenA) */\n      dup1\n      sload\n      dup3\n      and\n      dup9\n      dup5\n      and\n      or\n      swap1\n      sstore\n        /* \"ZKSYNC/quickcalls.sol\":33690:33696  TokenB */\n      0x0c\n        /* \"ZKSYNC/quickcalls.sol\":33690:33714  TokenB = IERC20(_TokenB) */\n      dup1\n      sload\n      swap1\n      swap2\n      and\n      swap2\n      dup7\n      and\n      swap2\n      swap1\n      swap2\n      or\n      swap1\n      sstore\n      0x00\n      dup1\n      dup1\n      dup1\n      dup1\n      dup1\n        /* \"ZKSYNC/quickcalls.sol\":33746:33767  balanceCheck(_TokenA) */\n      tag_210\n        /* \"ZKSYNC/quickcalls.sol\":33655:33679  TokenA = IERC20(_TokenA) */\n      dup12\n        /* \"ZKSYNC/quickcalls.sol\":33746:33758  balanceCheck */\n      tag_100\n        /* \"ZKSYNC/quickcalls.sol\":33746:33767  balanceCheck(_TokenA) */\n      jump\t// in\n    tag_210:\n        /* \"ZKSYNC/quickcalls.sol\":33735:33767  initialA = balanceCheck(_TokenA) */\n      swap6\n      pop\n        /* \"ZKSYNC/quickcalls.sol\":33789:33810  balanceCheck(_TokenB) */\n      tag_211\n        /* \"ZKSYNC/quickcalls.sol\":33802:33809  _TokenB */\n      dup11\n        /* \"ZKSYNC/quickcalls.sol\":33789:33801  balanceCheck */\n      tag_100\n        /* \"ZKSYNC/quickcalls.sol\":33789:33810  balanceCheck(_TokenB) */\n      jump\t// in\n    tag_211:\n        /* \"ZKSYNC/quickcalls.sol\":33778:33810  initialB = balanceCheck(_TokenB) */\n      swap5\n      pop\n        /* \"ZKSYNC/quickcalls.sol\":33832:33853  balanceCheck(_TokenH) */\n      tag_212\n        /* \"ZKSYNC/quickcalls.sol\":33845:33852  _TokenH */\n      dup9\n        /* \"ZKSYNC/quickcalls.sol\":33832:33844  balanceCheck */\n      tag_100\n        /* \"ZKSYNC/quickcalls.sol\":33832:33853  balanceCheck(_TokenH) */\n      jump\t// in\n    tag_212:\n        /* \"ZKSYNC/quickcalls.sol\":33876:33897  address(this).balance */\n      selfbalance\n        /* \"ZKSYNC/quickcalls.sol\":33864:33873  BNBSTORED */\n      0x05\n        /* \"ZKSYNC/quickcalls.sol\":33864:33897  BNBSTORED = address(this).balance */\n      sstore\n        /* \"ZKSYNC/quickcalls.sol\":33918:33925  TokenLP */\n      sload(0x0a)\n        /* \"ZKSYNC/quickcalls.sol\":33821:33853  initialH = balanceCheck(_TokenH) */\n      swap1\n      swap5\n      pop\n        /* \"ZKSYNC/quickcalls.sol\":33918:33993  TokenLP.safeTransferFrom(address(msg.sender), (address(this)), _TokenInput) */\n      tag_213\n      swap1\n      sub(shl(0xa0, 0x01), 0x01)\n        /* \"ZKSYNC/quickcalls.sol\":33918:33925  TokenLP */\n      and\n        /* \"ZKSYNC/quickcalls.sol\":33951:33961  msg.sender */\n      caller\n        /* \"ZKSYNC/quickcalls.sol\":33973:33977  this */\n      address\n        /* \"ZKSYNC/quickcalls.sol\":33981:33992  _TokenInput */\n      dup16\n        /* \"ZKSYNC/quickcalls.sol\":33918:33942  TokenLP.safeTransferFrom */\n      tag_214\n        /* \"ZKSYNC/quickcalls.sol\":33918:33993  TokenLP.safeTransferFrom(address(msg.sender), (address(this)), _TokenInput) */\n      jump\t// in\n    tag_213:\n        /* \"ZKSYNC/quickcalls.sol\":34014:34061  checkAllowance1(_LPToken, _TokenInput, _router) */\n      tag_215\n        /* \"ZKSYNC/quickcalls.sol\":34030:34038  _LPToken */\n      dup14\n        /* \"ZKSYNC/quickcalls.sol\":34040:34051  _TokenInput */\n      dup14\n        /* \"ZKSYNC/quickcalls.sol\":34053:34060  _router */\n      dup12\n        /* \"ZKSYNC/quickcalls.sol\":34014:34029  checkAllowance1 */\n      tag_149\n        /* \"ZKSYNC/quickcalls.sol\":34014:34061  checkAllowance1(_LPToken, _TokenInput, _router) */\n      jump\t// in\n    tag_215:\n        /* \"ZKSYNC/quickcalls.sol\":34136:34146  bnbAddress */\n      sload(0x04)\n      sub(shl(0xa0, 0x01), 0x01)\n        /* \"ZKSYNC/quickcalls.sol\":34125:34146  _TokenB == bnbAddress */\n      dup12\n      dup2\n      and\n        /* \"ZKSYNC/quickcalls.sol\":34136:34146  bnbAddress */\n      swap2\n      and\n        /* \"ZKSYNC/quickcalls.sol\":34125:34146  _TokenB == bnbAddress */\n      eq\n        /* \"ZKSYNC/quickcalls.sol\":34121:34604  if (_TokenB == bnbAddress) {\r... */\n      iszero\n      tag_216\n      jumpi\n        /* \"ZKSYNC/quickcalls.sol\":34163:34165  RA */\n      0x08\n      0x00\n      swap1\n      sload\n      swap1\n      0x0100\n      exp\n      swap1\n      div\n      sub(shl(0xa0, 0x01), 0x01)\n      and\n      sub(shl(0xa0, 0x01), 0x01)\n        /* \"ZKSYNC/quickcalls.sol\":34163:34213  RA.removeLiquidityETHSupportingFeeOnTransferTokens */\n      and\n      0xaf2979eb\n        /* \"ZKSYNC/quickcalls.sol\":34228:34235  _TokenA */\n      dup13\n        /* \"ZKSYNC/quickcalls.sol\":34250:34261  _TokenInput */\n      dup15\n        /* \"ZKSYNC/quickcalls.sol\":34276:34277  1 */\n      0x01\n        /* \"ZKSYNC/quickcalls.sol\":34292:34293  1 */\n      dup1\n        /* \"ZKSYNC/quickcalls.sol\":34316:34320  this */\n      address\n        /* \"ZKSYNC/quickcalls.sol\":34336:34351  block.timestamp */\n      timestamp\n        /* \"ZKSYNC/quickcalls.sol\":34163:34366  RA.removeLiquidityETHSupportingFeeOnTransferTokens(\r... */\n      mload(0x40)\n      dup8\n      0xffffffff\n      and\n      0xe0\n      shl\n      dup2\n      mstore\n      0x04\n      add\n      tag_217\n      swap7\n      swap6\n      swap5\n      swap4\n      swap3\n      swap2\n      swap1\n      tag_153\n      jump\t// in\n    tag_217:\n      0x20\n      mload(0x40)\n      dup1\n      dup4\n      sub\n      dup2\n      0x00\n      dup8\n      dup1\n      extcodesize\n      iszero\n      dup1\n      iszero\n      tag_219\n      jumpi\n      0x00\n      dup1\n      revert\n    tag_219:\n      pop\n      gas\n      call\n      iszero\n      dup1\n      iszero\n      tag_221\n      jumpi\n      returndatasize\n      0x00\n      dup1\n      returndatacopy\n      revert(0x00, returndatasize)\n    tag_221:\n      pop\n      pop\n      pop\n      pop\n      mload(0x40)\n      returndatasize\n      not(0x1f)\n      0x1f\n      dup3\n      add\n      and\n      dup3\n      add\n      dup1\n      0x40\n      mstore\n      pop\n      dup2\n      add\n      swap1\n      tag_222\n      swap2\n      swap1\n      tag_223\n      jump\t// in\n    tag_222:\n      pop\n        /* \"ZKSYNC/quickcalls.sol\":34121:34604  if (_TokenB == bnbAddress) {\r... */\n      jump(tag_224)\n    tag_216:\n        /* \"ZKSYNC/quickcalls.sol\":34399:34401  RA */\n      sload(0x08)\n        /* \"ZKSYNC/quickcalls.sol\":34399:34592  RA.removeLiquidity(\r... */\n      mload(0x40)\n      shl(0xe1, 0x5d5155ef)\n      dup2\n      mstore\n      sub(shl(0xa0, 0x01), 0x01)\n        /* \"#utility.yul\":8586:8601   */\n      dup14\n      dup2\n      and\n        /* \"ZKSYNC/quickcalls.sol\":34399:34592  RA.removeLiquidity(\r... */\n      0x04\n      dup4\n      add\n        /* \"#utility.yul\":8568:8602   */\n      mstore\n        /* \"#utility.yul\":8638:8653   */\n      dup13\n      dup2\n      and\n        /* \"#utility.yul\":8618:8636   */\n      0x24\n      dup4\n      add\n        /* \"#utility.yul\":8611:8654   */\n      mstore\n        /* \"#utility.yul\":8670:8688   */\n      0x44\n      dup3\n      add\n        /* \"#utility.yul\":8663:8697   */\n      dup16\n      swap1\n      mstore\n        /* \"ZKSYNC/quickcalls.sol\":34399:34401  RA */\n      0x01\n        /* \"#utility.yul\":8713:8731   */\n      0x64\n      dup4\n      add\n        /* \"#utility.yul\":8706:8740   */\n      dup2\n      swap1\n      mstore\n        /* \"#utility.yul\":8756:8775   */\n      0x84\n      dup4\n      add\n        /* \"#utility.yul\":8749:8784   */\n      mstore\n        /* \"ZKSYNC/quickcalls.sol\":34542:34546  this */\n      address\n        /* \"#utility.yul\":8800:8819   */\n      0xa4\n      dup4\n      add\n        /* \"#utility.yul\":8793:8837   */\n      mstore\n        /* \"ZKSYNC/quickcalls.sol\":34562:34577  block.timestamp */\n      timestamp\n        /* \"#utility.yul\":8853:8872   */\n      0xc4\n      dup4\n      add\n        /* \"#utility.yul\":8846:8881   */\n      mstore\n        /* \"ZKSYNC/quickcalls.sol\":34399:34401  RA */\n      swap1\n      swap2\n      and\n      swap1\n        /* \"ZKSYNC/quickcalls.sol\":34399:34417  RA.removeLiquidity */\n      0xbaa2abde\n      swap1\n        /* \"#utility.yul\":8502:8521   */\n      0xe4\n      add\n        /* \"ZKSYNC/quickcalls.sol\":34399:34592  RA.removeLiquidity(\r... */\n      0x40\n      dup1\n      mload\n      dup1\n      dup4\n      sub\n      dup2\n      0x00\n      dup8\n      dup1\n      extcodesize\n      iszero\n      dup1\n      iszero\n      tag_227\n      jumpi\n      0x00\n      dup1\n      revert\n    tag_227:\n      pop\n      gas\n      call\n      iszero\n      dup1\n      iszero\n      tag_229\n      jumpi\n      returndatasize\n      0x00\n      dup1\n      returndatacopy\n      revert(0x00, returndatasize)\n    tag_229:\n      pop\n      pop\n      pop\n      pop\n      mload(0x40)\n      returndatasize\n      not(0x1f)\n      0x1f\n      dup3\n      add\n      and\n      dup3\n      add\n      dup1\n      0x40\n      mstore\n      pop\n      dup2\n      add\n      swap1\n      tag_230\n      swap2\n      swap1\n      tag_231\n      jump\t// in\n    tag_230:\n      pop\n      pop\n        /* \"ZKSYNC/quickcalls.sol\":34121:34604  if (_TokenB == bnbAddress) {\r... */\n    tag_224:\n        /* \"ZKSYNC/quickcalls.sol\":34667:34675  initialA */\n      dup6\n        /* \"ZKSYNC/quickcalls.sol\":34643:34664  balanceCheck(_TokenA) */\n      tag_232\n        /* \"ZKSYNC/quickcalls.sol\":34656:34663  _TokenA */\n      dup13\n        /* \"ZKSYNC/quickcalls.sol\":34643:34655  balanceCheck */\n      tag_100\n        /* \"ZKSYNC/quickcalls.sol\":34643:34664  balanceCheck(_TokenA) */\n      jump\t// in\n    tag_232:\n        /* \"ZKSYNC/quickcalls.sol\":34643:34675  balanceCheck(_TokenA) - initialA */\n      tag_233\n      swap2\n      swap1\n      tag_92\n      jump\t// in\n    tag_233:\n        /* \"ZKSYNC/quickcalls.sol\":34634:34675  post1A = balanceCheck(_TokenA) - initialA */\n      swap2\n      pop\n        /* \"ZKSYNC/quickcalls.sol\":34715:34723  initialB */\n      dup5\n        /* \"ZKSYNC/quickcalls.sol\":34691:34712  balanceCheck(_TokenB) */\n      tag_234\n        /* \"ZKSYNC/quickcalls.sol\":34704:34711  _TokenB */\n      dup12\n        /* \"ZKSYNC/quickcalls.sol\":34691:34703  balanceCheck */\n      tag_100\n        /* \"ZKSYNC/quickcalls.sol\":34691:34712  balanceCheck(_TokenB) */\n      jump\t// in\n    tag_234:\n        /* \"ZKSYNC/quickcalls.sol\":34691:34723  balanceCheck(_TokenB) - initialB */\n      tag_235\n      swap2\n      swap1\n      tag_92\n      jump\t// in\n    tag_235:\n        /* \"ZKSYNC/quickcalls.sol\":34682:34723  post1B = balanceCheck(_TokenB) - initialB */\n      swap1\n      pop\n        /* \"ZKSYNC/quickcalls.sol\":34802:34809  _TokenH */\n      dup8\n      sub(shl(0xa0, 0x01), 0x01)\n        /* \"ZKSYNC/quickcalls.sol\":34791:34809  _TokenA != _TokenH */\n      and\n        /* \"ZKSYNC/quickcalls.sol\":34791:34798  _TokenA */\n      dup12\n      sub(shl(0xa0, 0x01), 0x01)\n        /* \"ZKSYNC/quickcalls.sol\":34791:34809  _TokenA != _TokenH */\n      and\n      eq\n        /* \"ZKSYNC/quickcalls.sol\":34787:35251  if (_TokenA != _TokenH ) {\r... */\n      tag_236\n      jumpi\n        /* \"ZKSYNC/quickcalls.sol\":34831:34872  checkAllowance1(_TokenA, post1A, _router) */\n      tag_237\n        /* \"ZKSYNC/quickcalls.sol\":34847:34854  _TokenA */\n      dup12\n        /* \"ZKSYNC/quickcalls.sol\":34856:34862  post1A */\n      dup4\n        /* \"ZKSYNC/quickcalls.sol\":34864:34871  _router */\n      dup12\n        /* \"ZKSYNC/quickcalls.sol\":34831:34846  checkAllowance1 */\n      tag_149\n        /* \"ZKSYNC/quickcalls.sol\":34831:34872  checkAllowance1(_TokenA, post1A, _router) */\n      jump\t// in\n    tag_237:\n        /* \"ZKSYNC/quickcalls.sol\":34916:34932  new address[](2) */\n      0x40\n      dup1\n      mload\n        /* \"ZKSYNC/quickcalls.sol\":34930:34931  2 */\n      0x02\n        /* \"ZKSYNC/quickcalls.sol\":34916:34932  new address[](2) */\n      dup1\n      dup3\n      mstore\n      0x60\n      dup3\n      add\n      dup4\n      mstore\n        /* \"ZKSYNC/quickcalls.sol\":34891:34913  address[] memory path6 */\n      0x00\n      swap3\n        /* \"ZKSYNC/quickcalls.sol\":34916:34932  new address[](2) */\n      0x20\n      dup4\n      add\n      swap1\n      dup1\n      calldatasize\n      dup4\n      calldatacopy\n      add\n      swap1\n      pop\n      pop\n        /* \"ZKSYNC/quickcalls.sol\":34891:34932  address[] memory path6 = new address[](2) */\n      swap1\n      pop\n        /* \"ZKSYNC/quickcalls.sol\":34962:34969  _TokenA */\n      dup12\n        /* \"ZKSYNC/quickcalls.sol\":34951:34956  path6 */\n      dup2\n        /* \"ZKSYNC/quickcalls.sol\":34957:34958  0 */\n      0x00\n        /* \"ZKSYNC/quickcalls.sol\":34951:34959  path6[0] */\n      dup2\n      mload\n      dup2\n      lt\n      tag_242\n      jumpi\n      tag_242\n      tag_119\n      jump\t// in\n    tag_242:\n      sub(shl(0xa0, 0x01), 0x01)\n        /* \"ZKSYNC/quickcalls.sol\":34951:34969  path6[0] = _TokenA */\n      swap3\n      dup4\n      and\n        /* \"ZKSYNC/quickcalls.sol\":34951:34959  path6[0] */\n      0x20\n      swap2\n      dup3\n      mul\n      swap3\n      swap1\n      swap3\n      add\n      dup2\n      add\n        /* \"ZKSYNC/quickcalls.sol\":34951:34969  path6[0] = _TokenA */\n      swap2\n      swap1\n      swap2\n      mstore\n        /* \"ZKSYNC/quickcalls.sol\":34999:35001  RA */\n      sload(0x08)\n        /* \"ZKSYNC/quickcalls.sol\":34999:35008  RA.WETH() */\n      0x40\n      dup1\n      mload\n      shl(0xe3, 0x15ab88c9)\n      dup2\n      mstore\n      swap1\n      mload\n        /* \"ZKSYNC/quickcalls.sol\":34999:35001  RA */\n      swap2\n      swap1\n      swap4\n      and\n      swap3\n        /* \"ZKSYNC/quickcalls.sol\":34999:35006  RA.WETH */\n      0xad5c4648\n      swap3\n        /* \"ZKSYNC/quickcalls.sol\":34999:35008  RA.WETH() */\n      0x04\n      dup1\n      dup4\n      add\n      swap4\n        /* \"ZKSYNC/quickcalls.sol\":34951:34959  path6[0] */\n      swap2\n      swap3\n        /* \"ZKSYNC/quickcalls.sol\":34999:35008  RA.WETH() */\n      dup3\n      swap1\n      sub\n      add\n      dup2\n        /* \"ZKSYNC/quickcalls.sol\":34999:35001  RA */\n      dup7\n        /* \"ZKSYNC/quickcalls.sol\":34999:35008  RA.WETH() */\n      dup1\n      extcodesize\n      iszero\n      dup1\n      iszero\n      tag_243\n      jumpi\n      0x00\n      dup1\n      revert\n    tag_243:\n      pop\n      gas\n      staticcall\n      iszero\n      dup1\n      iszero\n      tag_245\n      jumpi\n      returndatasize\n      0x00\n      dup1\n      returndatacopy\n      revert(0x00, returndatasize)\n    tag_245:\n      pop\n      pop\n      pop\n      pop\n      mload(0x40)\n      returndatasize\n      not(0x1f)\n      0x1f\n      dup3\n      add\n      and\n      dup3\n      add\n      dup1\n      0x40\n      mstore\n      pop\n      dup2\n      add\n      swap1\n      tag_246\n      swap2\n      swap1\n      tag_116\n      jump\t// in\n    tag_246:\n        /* \"ZKSYNC/quickcalls.sol\":34988:34993  path6 */\n      dup2\n        /* \"ZKSYNC/quickcalls.sol\":34994:34995  1 */\n      0x01\n        /* \"ZKSYNC/quickcalls.sol\":34988:34996  path6[1] */\n      dup2\n      mload\n      dup2\n      lt\n      tag_248\n      jumpi\n      tag_248\n      tag_119\n      jump\t// in\n    tag_248:\n      sub(shl(0xa0, 0x01), 0x01)\n        /* \"ZKSYNC/quickcalls.sol\":34988:35008  path6[1] = RA.WETH() */\n      swap3\n      dup4\n      and\n        /* \"ZKSYNC/quickcalls.sol\":34988:34996  path6[1] */\n      0x20\n      swap2\n      dup3\n      mul\n      swap3\n      swap1\n      swap3\n      add\n      add\n        /* \"ZKSYNC/quickcalls.sol\":34988:35008  path6[1] = RA.WETH() */\n      mstore\n        /* \"ZKSYNC/quickcalls.sol\":35027:35029  RA */\n      sload(0x08)\n        /* \"ZKSYNC/quickcalls.sol\":35027:35234  RA.swapExactTokensForETHSupportingFeeOnTransferTokens(\r... */\n      mload(0x40)\n      shl(0xe0, 0x791ac947)\n      dup2\n      mstore\n        /* \"ZKSYNC/quickcalls.sol\":35027:35029  RA */\n      swap2\n      and\n      swap1\n        /* \"ZKSYNC/quickcalls.sol\":35027:35080  RA.swapExactTokensForETHSupportingFeeOnTransferTokens */\n      0x791ac947\n      swap1\n        /* \"ZKSYNC/quickcalls.sol\":35027:35234  RA.swapExactTokensForETHSupportingFeeOnTransferTokens(\r... */\n      tag_249\n      swap1\n        /* \"ZKSYNC/quickcalls.sol\":35099:35105  post1A */\n      dup7\n      swap1\n        /* \"ZKSYNC/quickcalls.sol\":35027:35029  RA */\n      0x00\n      swap1\n        /* \"ZKSYNC/quickcalls.sol\":35144:35149  path6 */\n      dup7\n      swap1\n        /* \"ZKSYNC/quickcalls.sol\":35176:35180  this */\n      address\n      swap1\n        /* \"ZKSYNC/quickcalls.sol\":35200:35215  block.timestamp */\n      timestamp\n      swap1\n        /* \"ZKSYNC/quickcalls.sol\":35027:35234  RA.swapExactTokensForETHSupportingFeeOnTransferTokens(\r... */\n      0x04\n      add\n      tag_250\n      jump\t// in\n    tag_249:\n      0x00\n      mload(0x40)\n      dup1\n      dup4\n      sub\n      dup2\n      0x00\n      dup8\n      dup1\n      extcodesize\n      iszero\n      dup1\n      iszero\n      tag_251\n      jumpi\n      0x00\n      dup1\n      revert\n    tag_251:\n      pop\n      gas\n      call\n      iszero\n      dup1\n      iszero\n      tag_253\n      jumpi\n      returndatasize\n      0x00\n      dup1\n      returndatacopy\n      revert(0x00, returndatasize)\n    tag_253:\n      pop\n      pop\n      pop\n      pop\n        /* \"ZKSYNC/quickcalls.sol\":34812:35251  {\r... */\n      pop\n        /* \"ZKSYNC/quickcalls.sol\":34787:35251  if (_TokenA != _TokenH ) {\r... */\n    tag_236:\n        /* \"ZKSYNC/quickcalls.sol\":35331:35338  _TokenH */\n      dup8\n      sub(shl(0xa0, 0x01), 0x01)\n        /* \"ZKSYNC/quickcalls.sol\":35320:35338  _TokenB != _TokenH */\n      and\n        /* \"ZKSYNC/quickcalls.sol\":35320:35327  _TokenB */\n      dup11\n      sub(shl(0xa0, 0x01), 0x01)\n        /* \"ZKSYNC/quickcalls.sol\":35320:35338  _TokenB != _TokenH */\n      and\n      eq\n        /* \"ZKSYNC/quickcalls.sol\":35316:35887  if (_TokenB != _TokenH) {\r... */\n      tag_255\n      jumpi\n        /* \"ZKSYNC/quickcalls.sol\":35374:35384  bnbAddress */\n      sload(0x04)\n      sub(shl(0xa0, 0x01), 0x01)\n        /* \"ZKSYNC/quickcalls.sol\":35363:35384  _TokenB != bnbAddress */\n      dup12\n      dup2\n      and\n        /* \"ZKSYNC/quickcalls.sol\":35374:35384  bnbAddress */\n      swap2\n      and\n        /* \"ZKSYNC/quickcalls.sol\":35363:35384  _TokenB != bnbAddress */\n      eq\n        /* \"ZKSYNC/quickcalls.sol\":35359:35872  if (_TokenB != bnbAddress) {\r... */\n      tag_255\n      jumpi\n        /* \"ZKSYNC/quickcalls.sol\":35409:35450  checkAllowance1(_TokenB, post1B, _router) */\n      tag_256\n        /* \"ZKSYNC/quickcalls.sol\":35425:35432  _TokenB */\n      dup11\n        /* \"ZKSYNC/quickcalls.sol\":35434:35440  post1B */\n      dup3\n        /* \"ZKSYNC/quickcalls.sol\":35442:35449  _router */\n      dup12\n        /* \"ZKSYNC/quickcalls.sol\":35409:35424  checkAllowance1 */\n      tag_149\n        /* \"ZKSYNC/quickcalls.sol\":35409:35450  checkAllowance1(_TokenB, post1B, _router) */\n      jump\t// in\n    tag_256:\n        /* \"ZKSYNC/quickcalls.sol\":35498:35514  new address[](2) */\n      0x40\n      dup1\n      mload\n        /* \"ZKSYNC/quickcalls.sol\":35512:35513  2 */\n      0x02\n        /* \"ZKSYNC/quickcalls.sol\":35498:35514  new address[](2) */\n      dup1\n      dup3\n      mstore\n      0x60\n      dup3\n      add\n      dup4\n      mstore\n        /* \"ZKSYNC/quickcalls.sol\":35473:35495  address[] memory path7 */\n      0x00\n      swap3\n        /* \"ZKSYNC/quickcalls.sol\":35498:35514  new address[](2) */\n      0x20\n      dup4\n      add\n      swap1\n      dup1\n      calldatasize\n      dup4\n      calldatacopy\n      add\n      swap1\n      pop\n      pop\n        /* \"ZKSYNC/quickcalls.sol\":35473:35514  address[] memory path7 = new address[](2) */\n      swap1\n      pop\n        /* \"ZKSYNC/quickcalls.sol\":35548:35555  _TokenB */\n      dup11\n        /* \"ZKSYNC/quickcalls.sol\":35537:35542  path7 */\n      dup2\n        /* \"ZKSYNC/quickcalls.sol\":35543:35544  0 */\n      0x00\n        /* \"ZKSYNC/quickcalls.sol\":35537:35545  path7[0] */\n      dup2\n      mload\n      dup2\n      lt\n      tag_261\n      jumpi\n      tag_261\n      tag_119\n      jump\t// in\n    tag_261:\n      sub(shl(0xa0, 0x01), 0x01)\n        /* \"ZKSYNC/quickcalls.sol\":35537:35555  path7[0] = _TokenB */\n      swap3\n      dup4\n      and\n        /* \"ZKSYNC/quickcalls.sol\":35537:35545  path7[0] */\n      0x20\n      swap2\n      dup3\n      mul\n      swap3\n      swap1\n      swap3\n      add\n      dup2\n      add\n        /* \"ZKSYNC/quickcalls.sol\":35537:35555  path7[0] = _TokenB */\n      swap2\n      swap1\n      swap2\n      mstore\n        /* \"ZKSYNC/quickcalls.sol\":35589:35591  RA */\n      sload(0x08)\n        /* \"ZKSYNC/quickcalls.sol\":35589:35598  RA.WETH() */\n      0x40\n      dup1\n      mload\n      shl(0xe3, 0x15ab88c9)\n      dup2\n      mstore\n      swap1\n      mload\n        /* \"ZKSYNC/quickcalls.sol\":35589:35591  RA */\n      swap2\n      swap1\n      swap4\n      and\n      swap3\n        /* \"ZKSYNC/quickcalls.sol\":35589:35596  RA.WETH */\n      0xad5c4648\n      swap3\n        /* \"ZKSYNC/quickcalls.sol\":35589:35598  RA.WETH() */\n      0x04\n      dup1\n      dup4\n      add\n      swap4\n        /* \"ZKSYNC/quickcalls.sol\":35537:35545  path7[0] */\n      swap2\n      swap3\n        /* \"ZKSYNC/quickcalls.sol\":35589:35598  RA.WETH() */\n      dup3\n      swap1\n      sub\n      add\n      dup2\n        /* \"ZKSYNC/quickcalls.sol\":35589:35591  RA */\n      dup7\n        /* \"ZKSYNC/quickcalls.sol\":35589:35598  RA.WETH() */\n      dup1\n      extcodesize\n      iszero\n      dup1\n      iszero\n      tag_262\n      jumpi\n      0x00\n      dup1\n      revert\n    tag_262:\n      pop\n      gas\n      staticcall\n      iszero\n      dup1\n      iszero\n      tag_264\n      jumpi\n      returndatasize\n      0x00\n      dup1\n      returndatacopy\n      revert(0x00, returndatasize)\n    tag_264:\n      pop\n      pop\n      pop\n      pop\n      mload(0x40)\n      returndatasize\n      not(0x1f)\n      0x1f\n      dup3\n      add\n      and\n      dup3\n      add\n      dup1\n      0x40\n      mstore\n      pop\n      dup2\n      add\n      swap1\n      tag_265\n      swap2\n      swap1\n      tag_116\n      jump\t// in\n    tag_265:\n        /* \"ZKSYNC/quickcalls.sol\":35578:35583  path7 */\n      dup2\n        /* \"ZKSYNC/quickcalls.sol\":35584:35585  1 */\n      0x01\n        /* \"ZKSYNC/quickcalls.sol\":35578:35586  path7[1] */\n      dup2\n      mload\n      dup2\n      lt\n      tag_267\n      jumpi\n      tag_267\n      tag_119\n      jump\t// in\n    tag_267:\n      sub(shl(0xa0, 0x01), 0x01)\n        /* \"ZKSYNC/quickcalls.sol\":35578:35598  path7[1] = RA.WETH() */\n      swap3\n      dup4\n      and\n        /* \"ZKSYNC/quickcalls.sol\":35578:35586  path7[1] */\n      0x20\n      swap2\n      dup3\n      mul\n      swap3\n      swap1\n      swap3\n      add\n      add\n        /* \"ZKSYNC/quickcalls.sol\":35578:35598  path7[1] = RA.WETH() */\n      mstore\n        /* \"ZKSYNC/quickcalls.sol\":35621:35623  RA */\n      sload(0x08)\n        /* \"ZKSYNC/quickcalls.sol\":35621:35852  RA.swapExactTokensForETHSupportingFeeOnTransferTokens(\r... */\n      mload(0x40)\n      shl(0xe0, 0x791ac947)\n      dup2\n      mstore\n        /* \"ZKSYNC/quickcalls.sol\":35621:35623  RA */\n      swap2\n      and\n      swap1\n        /* \"ZKSYNC/quickcalls.sol\":35621:35674  RA.swapExactTokensForETHSupportingFeeOnTransferTokens */\n      0x791ac947\n      swap1\n        /* \"ZKSYNC/quickcalls.sol\":35621:35852  RA.swapExactTokensForETHSupportingFeeOnTransferTokens(\r... */\n      tag_268\n      swap1\n        /* \"ZKSYNC/quickcalls.sol\":35697:35703  post1B */\n      dup6\n      swap1\n        /* \"ZKSYNC/quickcalls.sol\":35621:35623  RA */\n      0x00\n      swap1\n        /* \"ZKSYNC/quickcalls.sol\":35750:35755  path7 */\n      dup7\n      swap1\n        /* \"ZKSYNC/quickcalls.sol\":35786:35790  this */\n      address\n      swap1\n        /* \"ZKSYNC/quickcalls.sol\":35814:35829  block.timestamp */\n      timestamp\n      swap1\n        /* \"ZKSYNC/quickcalls.sol\":35621:35852  RA.swapExactTokensForETHSupportingFeeOnTransferTokens(\r... */\n      0x04\n      add\n      tag_250\n      jump\t// in\n    tag_268:\n      0x00\n      mload(0x40)\n      dup1\n      dup4\n      sub\n      dup2\n      0x00\n      dup8\n      dup1\n      extcodesize\n      iszero\n      dup1\n      iszero\n      tag_269\n      jumpi\n      0x00\n      dup1\n      revert\n    tag_269:\n      pop\n      gas\n      call\n      iszero\n      dup1\n      iszero\n      tag_271\n      jumpi\n      returndatasize\n      0x00\n      dup1\n      returndatacopy\n      revert(0x00, returndatasize)\n    tag_271:\n      pop\n      pop\n      pop\n      pop\n        /* \"ZKSYNC/quickcalls.sol\":35386:35872  {\r... */\n      pop\n        /* \"ZKSYNC/quickcalls.sol\":35359:35872  if (_TokenB != bnbAddress) {\r... */\n    tag_255:\n        /* \"ZKSYNC/quickcalls.sol\":35977:35982  10000 */\n      0x2710\n        /* \"ZKSYNC/quickcalls.sol\":35963:35973  FeePercent */\n      sload(0x06)\n        /* \"ZKSYNC/quickcalls.sol\":35955:35960  10000 */\n      0x2710\n        /* \"ZKSYNC/quickcalls.sol\":35955:35973  10000 - FeePercent */\n      tag_272\n      swap2\n      swap1\n      tag_92\n      jump\t// in\n    tag_272:\n        /* \"ZKSYNC/quickcalls.sol\":35941:35950  BNBSTORED */\n      sload(0x05)\n        /* \"ZKSYNC/quickcalls.sol\":35917:35950  address(this).balance - BNBSTORED */\n      tag_273\n      swap1\n        /* \"ZKSYNC/quickcalls.sol\":35917:35938  address(this).balance */\n      selfbalance\n        /* \"ZKSYNC/quickcalls.sol\":35917:35950  address(this).balance - BNBSTORED */\n      tag_92\n      jump\t// in\n    tag_273:\n        /* \"ZKSYNC/quickcalls.sol\":35916:35974  (address(this).balance - BNBSTORED) * (10000 - FeePercent) */\n      tag_274\n      swap2\n      swap1\n      tag_94\n      jump\t// in\n    tag_274:\n        /* \"ZKSYNC/quickcalls.sol\":35916:35982  (address(this).balance - BNBSTORED) * (10000 - FeePercent) / 10000 */\n      tag_275\n      swap2\n      swap1\n      tag_96\n      jump\t// in\n    tag_275:\n        /* \"ZKSYNC/quickcalls.sol\":36094:36104  bnbAddress */\n      sload(0x04)\n        /* \"ZKSYNC/quickcalls.sol\":35908:35984  bnb2 = ((address(this).balance - BNBSTORED) * (10000 - FeePercent) / 10000 ) */\n      swap1\n      swap4\n      pop\n      sub(shl(0xa0, 0x01), 0x01)\n        /* \"ZKSYNC/quickcalls.sol\":36083:36104  _TokenH == bnbAddress */\n      dup10\n      dup2\n      and\n        /* \"ZKSYNC/quickcalls.sol\":36094:36104  bnbAddress */\n      swap2\n      and\n        /* \"ZKSYNC/quickcalls.sol\":36083:36104  _TokenH == bnbAddress */\n      eq\n        /* \"ZKSYNC/quickcalls.sol\":36079:36706  if (_TokenH == bnbAddress) {\r... */\n      iszero\n      tag_276\n      jumpi\n        /* \"ZKSYNC/quickcalls.sol\":36125:36140  returnBNB(bnb2) */\n      tag_277\n        /* \"ZKSYNC/quickcalls.sol\":36135:36139  bnb2 */\n      dup4\n        /* \"ZKSYNC/quickcalls.sol\":36125:36134  returnBNB */\n      tag_278\n        /* \"ZKSYNC/quickcalls.sol\":36125:36140  returnBNB(bnb2) */\n      jump\t// in\n    tag_277:\n        /* \"ZKSYNC/quickcalls.sol\":36079:36706  if (_TokenH == bnbAddress) {\r... */\n      jump(tag_279)\n    tag_276:\n        /* \"ZKSYNC/quickcalls.sol\":36215:36231  new address[](2) */\n      0x40\n      dup1\n      mload\n        /* \"ZKSYNC/quickcalls.sol\":36229:36230  2 */\n      0x02\n        /* \"ZKSYNC/quickcalls.sol\":36215:36231  new address[](2) */\n      dup1\n      dup3\n      mstore\n      0x60\n      dup3\n      add\n      dup4\n      mstore\n        /* \"ZKSYNC/quickcalls.sol\":36190:36212  address[] memory path8 */\n      0x00\n      swap3\n        /* \"ZKSYNC/quickcalls.sol\":36215:36231  new address[](2) */\n      0x20\n      dup4\n      add\n      swap1\n      dup1\n      calldatasize\n      dup4\n      calldatacopy\n      pop\n      pop\n        /* \"ZKSYNC/quickcalls.sol\":36265:36267  RA */\n      sload(0x08)\n        /* \"ZKSYNC/quickcalls.sol\":36265:36274  RA.WETH() */\n      0x40\n      dup1\n      mload\n      shl(0xe3, 0x15ab88c9)\n      dup2\n      mstore\n      swap1\n      mload\n        /* \"ZKSYNC/quickcalls.sol\":36190:36231  address[] memory path8 = new address[](2) */\n      swap4\n      swap5\n      pop\n      sub(shl(0xa0, 0x01), 0x01)\n        /* \"ZKSYNC/quickcalls.sol\":36265:36267  RA */\n      swap1\n      swap2\n      and\n      swap3\n        /* \"ZKSYNC/quickcalls.sol\":36265:36272  RA.WETH */\n      0xad5c4648\n      swap3\n      pop\n        /* \"ZKSYNC/quickcalls.sol\":36265:36274  RA.WETH() */\n      0x04\n      dup1\n      dup4\n      add\n      swap3\n      0x20\n      swap3\n      swap2\n      swap1\n      dup3\n      swap1\n      sub\n      add\n      dup2\n        /* \"ZKSYNC/quickcalls.sol\":36265:36267  RA */\n      dup7\n        /* \"ZKSYNC/quickcalls.sol\":36265:36274  RA.WETH() */\n      dup1\n      extcodesize\n      iszero\n      dup1\n      iszero\n      tag_283\n      jumpi\n      0x00\n      dup1\n      revert\n    tag_283:\n      pop\n      gas\n      staticcall\n      iszero\n      dup1\n      iszero\n      tag_285\n      jumpi\n      returndatasize\n      0x00\n      dup1\n      returndatacopy\n      revert(0x00, returndatasize)\n    tag_285:\n      pop\n      pop\n      pop\n      pop\n      mload(0x40)\n      returndatasize\n      not(0x1f)\n      0x1f\n      dup3\n      add\n      and\n      dup3\n      add\n      dup1\n      0x40\n      mstore\n      pop\n      dup2\n      add\n      swap1\n      tag_286\n      swap2\n      swap1\n      tag_116\n      jump\t// in\n    tag_286:\n        /* \"ZKSYNC/quickcalls.sol\":36254:36259  path8 */\n      dup2\n        /* \"ZKSYNC/quickcalls.sol\":36260:36261  0 */\n      0x00\n        /* \"ZKSYNC/quickcalls.sol\":36254:36262  path8[0] */\n      dup2\n      mload\n      dup2\n      lt\n      tag_288\n      jumpi\n      tag_288\n      tag_119\n      jump\t// in\n    tag_288:\n      0x20\n      mul\n      0x20\n      add\n      add\n        /* \"ZKSYNC/quickcalls.sol\":36254:36274  path8[0] = RA.WETH() */\n      swap1\n      sub(shl(0xa0, 0x01), 0x01)\n      and\n      swap1\n      dup2\n      sub(shl(0xa0, 0x01), 0x01)\n      and\n      dup2\n      mstore\n      pop\n      pop\n        /* \"ZKSYNC/quickcalls.sol\":36308:36315  _TokenH */\n      dup9\n        /* \"ZKSYNC/quickcalls.sol\":36297:36302  path8 */\n      dup2\n        /* \"ZKSYNC/quickcalls.sol\":36303:36304  1 */\n      0x01\n        /* \"ZKSYNC/quickcalls.sol\":36297:36305  path8[1] */\n      dup2\n      mload\n      dup2\n      lt\n      tag_290\n      jumpi\n      tag_290\n      tag_119\n      jump\t// in\n    tag_290:\n      sub(shl(0xa0, 0x01), 0x01)\n        /* \"ZKSYNC/quickcalls.sol\":36297:36315  path8[1] = _TokenH */\n      swap3\n      dup4\n      and\n        /* \"ZKSYNC/quickcalls.sol\":36297:36305  path8[1] */\n      0x20\n      swap2\n      dup3\n      mul\n      swap3\n      swap1\n      swap3\n      add\n      add\n        /* \"ZKSYNC/quickcalls.sol\":36297:36315  path8[1] = _TokenH */\n      mstore\n        /* \"ZKSYNC/quickcalls.sol\":36338:36341  RA2 */\n      sload(0x09)\n        /* \"ZKSYNC/quickcalls.sol\":36338:36555  RA2.swapExactETHForTokensSupportingFeeOnTransferTokens{value: bnb2} (\r... */\n      mload(0x40)\n      shl(0xe0, 0xb6f9de95)\n      dup2\n      mstore\n        /* \"ZKSYNC/quickcalls.sol\":36338:36341  RA2 */\n      swap2\n      and\n      swap1\n        /* \"ZKSYNC/quickcalls.sol\":36338:36392  RA2.swapExactETHForTokensSupportingFeeOnTransferTokens */\n      0xb6f9de95\n      swap1\n        /* \"ZKSYNC/quickcalls.sol\":36400:36404  bnb2 */\n      dup7\n      swap1\n        /* \"ZKSYNC/quickcalls.sol\":36338:36555  RA2.swapExactETHForTokensSupportingFeeOnTransferTokens{value: bnb2} (\r... */\n      tag_291\n      swap1\n        /* \"ZKSYNC/quickcalls.sol\":36338:36341  RA2 */\n      0x00\n      swap1\n        /* \"ZKSYNC/quickcalls.sol\":36453:36458  path8 */\n      dup7\n      swap1\n        /* \"ZKSYNC/quickcalls.sol\":36489:36493  this */\n      address\n      swap1\n        /* \"ZKSYNC/quickcalls.sol\":36517:36532  block.timestamp */\n      timestamp\n      swap1\n        /* \"ZKSYNC/quickcalls.sol\":36338:36555  RA2.swapExactETHForTokensSupportingFeeOnTransferTokens{value: bnb2} (\r... */\n      0x04\n      add\n      tag_123\n      jump\t// in\n    tag_291:\n      0x00\n      mload(0x40)\n      dup1\n      dup4\n      sub\n      dup2\n      dup6\n      dup9\n      dup1\n      extcodesize\n      iszero\n      dup1\n      iszero\n      tag_292\n      jumpi\n      0x00\n      dup1\n      revert\n    tag_292:\n      pop\n      gas\n      call\n      iszero\n      dup1\n      iszero\n      tag_294\n      jumpi\n      returndatasize\n      0x00\n      dup1\n      returndatacopy\n      revert(0x00, returndatasize)\n    tag_294:\n      pop\n      pop\n      pop\n      pop\n      pop\n        /* \"ZKSYNC/quickcalls.sol\":36600:36676  TokenH.safeTransfer(address(msg.sender), (balanceCheck(_TokenH) - initialH)) */\n      tag_295\n        /* \"ZKSYNC/quickcalls.sol\":36628:36638  msg.sender */\n      caller\n        /* \"ZKSYNC/quickcalls.sol\":36666:36674  initialH */\n      dup7\n        /* \"ZKSYNC/quickcalls.sol\":36642:36663  balanceCheck(_TokenH) */\n      tag_296\n        /* \"ZKSYNC/quickcalls.sol\":36655:36662  _TokenH */\n      dup13\n        /* \"ZKSYNC/quickcalls.sol\":36642:36654  balanceCheck */\n      tag_100\n        /* \"ZKSYNC/quickcalls.sol\":36642:36663  balanceCheck(_TokenH) */\n      jump\t// in\n    tag_296:\n        /* \"ZKSYNC/quickcalls.sol\":36642:36674  balanceCheck(_TokenH) - initialH */\n      tag_297\n      swap2\n      swap1\n      tag_92\n      jump\t// in\n    tag_297:\n        /* \"ZKSYNC/quickcalls.sol\":36600:36606  TokenH */\n      and(sub(shl(0xa0, 0x01), 0x01), sload(0x0d))\n      swap2\n        /* \"ZKSYNC/quickcalls.sol\":36600:36676  TokenH.safeTransfer(address(msg.sender), (balanceCheck(_TokenH) - initialH)) */\n      swap1\n        /* \"ZKSYNC/quickcalls.sol\":36600:36619  TokenH.safeTransfer */\n      tag_298\n        /* \"ZKSYNC/quickcalls.sol\":36600:36676  TokenH.safeTransfer(address(msg.sender), (balanceCheck(_TokenH) - initialH)) */\n      jump\t// in\n    tag_295:\n        /* \"ZKSYNC/quickcalls.sol\":36161:36706  {    \r... */\n      pop\n        /* \"ZKSYNC/quickcalls.sol\":36079:36706  if (_TokenH == bnbAddress) {\r... */\n    tag_279:\n        /* \"ZKSYNC/quickcalls.sol\":36748:36756  treasury */\n      sload(0x07)\n        /* \"ZKSYNC/quickcalls.sol\":36731:36743  bool success */\n      0x00\n      swap1\n      sub(shl(0xa0, 0x01), 0x01)\n        /* \"ZKSYNC/quickcalls.sol\":36748:36756  treasury */\n      and\n        /* \"ZKSYNC/quickcalls.sol\":36768:36789  address(this).balance */\n      selfbalance\n        /* \"ZKSYNC/quickcalls.sol\":36731:36743  bool success */\n      dup3\n        /* \"ZKSYNC/quickcalls.sol\":36791:36803  new bytes(0) */\n    tag_300:\n      mload(0x40)\n      swap1\n      dup1\n      dup3\n      mstore\n      dup1\n      0x1f\n      add\n      not(0x1f)\n      and\n      0x20\n      add\n      dup3\n      add\n      0x40\n      mstore\n      dup1\n      iszero\n      tag_301\n      jumpi\n      0x20\n      dup3\n      add\n      dup2\n      dup1\n      calldatasize\n      dup4\n      calldatacopy\n      add\n      swap1\n      pop\n    tag_301:\n      pop\n        /* \"ZKSYNC/quickcalls.sol\":36748:36804  treasury.call{value:address(this).balance}(new bytes(0)) */\n      mload(0x40)\n      tag_302\n      swap2\n      swap1\n      tag_170\n      jump\t// in\n    tag_302:\n      0x00\n      mload(0x40)\n      dup1\n      dup4\n      sub\n      dup2\n      dup6\n      dup8\n      gas\n      call\n      swap3\n      pop\n      pop\n      pop\n      returndatasize\n      dup1\n      0x00\n      dup2\n      eq\n      tag_305\n      jumpi\n      mload(0x40)\n      swap2\n      pop\n      and(add(returndatasize, 0x3f), not(0x1f))\n      dup3\n      add\n      0x40\n      mstore\n      returndatasize\n      dup3\n      mstore\n      returndatasize\n      0x00\n      0x20\n      dup5\n      add\n      returndatacopy\n      jump(tag_304)\n    tag_305:\n      0x60\n      swap2\n      pop\n    tag_304:\n      pop\n        /* \"ZKSYNC/quickcalls.sol\":36730:36804  (bool success,) = treasury.call{value:address(this).balance}(new bytes(0)) */\n      pop\n      swap1\n      pop\n        /* \"ZKSYNC/quickcalls.sol\":36823:36830  success */\n      dup1\n        /* \"ZKSYNC/quickcalls.sol\":36815:36870  require(success, 'TransferHelper: ETH_TRANSFER_FAILED') */\n      tag_306\n      jumpi\n      mload(0x40)\n      shl(0xe5, 0x461bcd)\n      dup2\n      mstore\n      0x04\n      add\n      tag_175\n      swap1\n      tag_176\n      jump\t// in\n    tag_306:\n      pop\n      pop\n        /* \"ZKSYNC/quickcalls.sol\":36893:36914  address(this).balance */\n      selfbalance\n        /* \"ZKSYNC/quickcalls.sol\":36881:36890  BNBSTORED */\n      0x05\n        /* \"ZKSYNC/quickcalls.sol\":36881:36914  BNBSTORED = address(this).balance */\n      sstore\n      pop\n      pop\n      pop\n      pop\n      pop\n      pop\n      pop\n      pop\n      pop\n      pop\n      pop\n      pop\n        /* \"ZKSYNC/quickcalls.sol\":32988:36928  function _BreakLPReturnToken (address _LPToken, uint256 _TokenInput, address _TokenA, address _TokenB, address _router, address _TokenH, address _router2) external {\r... */\n      jump\t// out\n        /* \"ZKSYNC/quickcalls.sol\":42269:42563  function withdrawlToken(address _tokenAddress) external onlyOwner {\r... */\n    tag_72:\n        /* \"ZKSYNC/quickcalls.sol\":19047:19054  address */\n      0x00\n        /* \"ZKSYNC/quickcalls.sol\":19074:19080  _owner */\n      sload\n      sub(shl(0xa0, 0x01), 0x01)\n      and\n        /* \"ZKSYNC/quickcalls.sol\":17805:17815  msg.sender */\n      caller\n        /* \"ZKSYNC/quickcalls.sol\":19221:19244  owner() == _msgSender() */\n      eq\n        /* \"ZKSYNC/quickcalls.sol\":19213:19281  require(owner() == _msgSender(), \"Ownable: caller is not the owner\") */\n      tag_311\n      jumpi\n      mload(0x40)\n      shl(0xe5, 0x461bcd)\n      dup2\n      mstore\n      0x04\n      add\n      tag_175\n      swap1\n      tag_188\n      jump\t// in\n    tag_311:\n        /* \"ZKSYNC/quickcalls.sol\":42362:42383  address(this).balance */\n      selfbalance\n        /* \"ZKSYNC/quickcalls.sol\":42350:42359  BNBSTORED */\n      0x05\n        /* \"ZKSYNC/quickcalls.sol\":42350:42383  BNBSTORED = address(this).balance */\n      sstore\n        /* \"ZKSYNC/quickcalls.sol\":42421:42467  IERC20(_tokenAddress).balanceOf(address(this)) */\n      mload(0x40)\n      shl(0xe0, 0x70a08231)\n      dup2\n      mstore\n        /* \"ZKSYNC/quickcalls.sol\":42461:42465  this */\n      address\n        /* \"ZKSYNC/quickcalls.sol\":42421:42467  IERC20(_tokenAddress).balanceOf(address(this)) */\n      0x04\n      dup3\n      add\n        /* \"#utility.yul\":7448:7499   */\n      mstore\n        /* \"ZKSYNC/quickcalls.sol\":42398:42418  uint256 _tokenAmount */\n      0x00\n      swap1\n      sub(shl(0xa0, 0x01), 0x01)\n        /* \"ZKSYNC/quickcalls.sol\":42421:42452  IERC20(_tokenAddress).balanceOf */\n      dup4\n      and\n      swap1\n      0x70a08231\n      swap1\n        /* \"#utility.yul\":7421:7439   */\n      0x24\n      add\n        /* \"ZKSYNC/quickcalls.sol\":42421:42467  IERC20(_tokenAddress).balanceOf(address(this)) */\n      0x20\n      mload(0x40)\n      dup1\n      dup4\n      sub\n      dup2\n      dup7\n      dup1\n      extcodesize\n      iszero\n      dup1\n      iszero\n      tag_315\n      jumpi\n      0x00\n      dup1\n      revert\n    tag_315:\n      pop\n      gas\n      staticcall\n      iszero\n      dup1\n      iszero\n      tag_317\n      jumpi\n      returndatasize\n      0x00\n      dup1\n      returndatacopy\n      revert(0x00, returndatasize)\n    tag_317:\n      pop\n      pop\n      pop\n      pop\n      mload(0x40)\n      returndatasize\n      not(0x1f)\n      0x1f\n      dup3\n      add\n      and\n      dup3\n      add\n      dup1\n      0x40\n      mstore\n      pop\n      dup2\n      add\n      swap1\n      tag_318\n      swap2\n      swap1\n      tag_223\n      jump\t// in\n    tag_318:\n        /* \"ZKSYNC/quickcalls.sol\":42398:42467  uint256 _tokenAmount = IERC20(_tokenAddress).balanceOf(address(this)) */\n      swap1\n      pop\n        /* \"ZKSYNC/quickcalls.sol\":42482:42551  IERC20(_tokenAddress).safeTransfer(address(msg.sender), _tokenAmount) */\n      tag_181\n      sub(shl(0xa0, 0x01), 0x01)\n        /* \"ZKSYNC/quickcalls.sol\":42482:42516  IERC20(_tokenAddress).safeTransfer */\n      dup4\n      and\n        /* \"ZKSYNC/quickcalls.sol\":42525:42535  msg.sender */\n      caller\n        /* \"ZKSYNC/quickcalls.sol\":42398:42467  uint256 _tokenAmount = IERC20(_tokenAddress).balanceOf(address(this)) */\n      dup4\n        /* \"ZKSYNC/quickcalls.sol\":42482:42516  IERC20(_tokenAddress).safeTransfer */\n      tag_298\n        /* \"ZKSYNC/quickcalls.sol\":42482:42551  IERC20(_tokenAddress).safeTransfer(address(msg.sender), _tokenAmount) */\n      jump\t// in\n        /* \"ZKSYNC/quickcalls.sol\":37351:39126  function _tokenToToken(address _TokenIn, uint256 _AmountIn, address _TokenOut, address _RouterIn, address _RouterOut) public {\r... */\n    tag_77:\n        /* \"ZKSYNC/quickcalls.sol\":37510:37519  _TokenOut */\n      dup3\n      sub(shl(0xa0, 0x01), 0x01)\n        /* \"ZKSYNC/quickcalls.sol\":37498:37519  _TokenIn != _TokenOut */\n      and\n        /* \"ZKSYNC/quickcalls.sol\":37498:37506  _TokenIn */\n      dup6\n      sub(shl(0xa0, 0x01), 0x01)\n        /* \"ZKSYNC/quickcalls.sol\":37498:37519  _TokenIn != _TokenOut */\n      and\n      eq\n      iszero\n        /* \"ZKSYNC/quickcalls.sol\":37490:37563  require(_TokenIn != _TokenOut,\"Token In cannot be the same as Token out\") */\n      tag_321\n      jumpi\n      mload(0x40)\n      shl(0xe5, 0x461bcd)\n      dup2\n      mstore\n        /* \"#utility.yul\":15102:15104   */\n      0x20\n        /* \"ZKSYNC/quickcalls.sol\":37490:37563  require(_TokenIn != _TokenOut,\"Token In cannot be the same as Token out\") */\n      0x04\n      dup3\n      add\n        /* \"#utility.yul\":15084:15105   */\n      mstore\n        /* \"#utility.yul\":15141:15143   */\n      0x28\n        /* \"#utility.yul\":15121:15139   */\n      0x24\n      dup3\n      add\n        /* \"#utility.yul\":15114:15144   */\n      mstore\n        /* \"#utility.yul\":15180:15214   */\n      0x546f6b656e20496e2063616e6e6f74206265207468652073616d652061732054\n        /* \"#utility.yul\":15160:15178   */\n      0x44\n      dup3\n      add\n        /* \"#utility.yul\":15153:15215   */\n      mstore\n      shl(0xc2, 0x1bdad95b881bdd5d)\n        /* \"#utility.yul\":15231:15249   */\n      0x64\n      dup3\n      add\n        /* \"#utility.yul\":15224:15262   */\n      mstore\n        /* \"#utility.yul\":15279:15298   */\n      0x84\n      add\n        /* \"ZKSYNC/quickcalls.sol\":37490:37563  require(_TokenIn != _TokenOut,\"Token In cannot be the same as Token out\") */\n      tag_175\n        /* \"#utility.yul\":14900:15304   */\n      jump\n        /* \"ZKSYNC/quickcalls.sol\":37490:37563  require(_TokenIn != _TokenOut,\"Token In cannot be the same as Token out\") */\n    tag_321:\n        /* \"ZKSYNC/quickcalls.sol\":37578:37612  setBNBBalance(_TokenIn, _AmountIn) */\n      tag_324\n        /* \"ZKSYNC/quickcalls.sol\":37592:37600  _TokenIn */\n      dup6\n        /* \"ZKSYNC/quickcalls.sol\":37602:37611  _AmountIn */\n      dup6\n        /* \"ZKSYNC/quickcalls.sol\":37578:37591  setBNBBalance */\n      tag_53\n        /* \"ZKSYNC/quickcalls.sol\":37578:37612  setBNBBalance(_TokenIn, _AmountIn) */\n      jump\t// in\n    tag_324:\n        /* \"ZKSYNC/quickcalls.sol\":37656:37658  RA */\n      0x08\n        /* \"ZKSYNC/quickcalls.sol\":37656:37685  RA = routerAddress(_RouterIn) */\n      dup1\n      sload\n      sub(shl(0xa0, 0x01), 0x01)\n      dup1\n      dup6\n      and\n      not(sub(shl(0xa0, 0x01), 0x01))\n      swap3\n      dup4\n      and\n      or\n      swap1\n      swap3\n      sstore\n        /* \"ZKSYNC/quickcalls.sol\":37696:37699  RA2 */\n      0x09\n        /* \"ZKSYNC/quickcalls.sol\":37696:37727  RA2 = routerAddress(_RouterOut) */\n      dup1\n      sload\n      dup5\n      dup5\n      and\n      swap1\n      dup4\n      and\n      or\n      swap1\n      sstore\n        /* \"ZKSYNC/quickcalls.sol\":37738:37744  TokenA */\n      0x0b\n        /* \"ZKSYNC/quickcalls.sol\":37738:37763  TokenA = IERC20(_TokenIn) */\n      dup1\n      sload\n      dup9\n      dup5\n      and\n      swap3\n      and\n      dup3\n      or\n      swap1\n      sstore\n        /* \"ZKSYNC/quickcalls.sol\":37804:37814  bnbAddress */\n      sload(0x04)\n        /* \"ZKSYNC/quickcalls.sol\":37627:37639  uint256 bnb2 */\n      0x00\n      swap3\n        /* \"ZKSYNC/quickcalls.sol\":37804:37814  bnbAddress */\n      and\n        /* \"ZKSYNC/quickcalls.sol\":37792:37814  _TokenIn != bnbAddress */\n      eq\n        /* \"ZKSYNC/quickcalls.sol\":37788:38319  if (_TokenIn != bnbAddress) {\r... */\n      tag_325\n      jumpi\n        /* \"ZKSYNC/quickcalls.sol\":37889:37905  new address[](2) */\n      0x40\n      dup1\n      mload\n        /* \"ZKSYNC/quickcalls.sol\":37903:37904  2 */\n      0x02\n        /* \"ZKSYNC/quickcalls.sol\":37889:37905  new address[](2) */\n      dup1\n      dup3\n      mstore\n      0x60\n      dup3\n      add\n      dup4\n      mstore\n        /* \"ZKSYNC/quickcalls.sol\":37864:37886  address[] memory path7 */\n      0x00\n      swap3\n        /* \"ZKSYNC/quickcalls.sol\":37889:37905  new address[](2) */\n      0x20\n      dup4\n      add\n      swap1\n      dup1\n      calldatasize\n      dup4\n      calldatacopy\n      add\n      swap1\n      pop\n      pop\n        /* \"ZKSYNC/quickcalls.sol\":37864:37905  address[] memory path7 = new address[](2) */\n      swap1\n      pop\n        /* \"ZKSYNC/quickcalls.sol\":37939:37947  _TokenIn */\n      dup7\n        /* \"ZKSYNC/quickcalls.sol\":37928:37933  path7 */\n      dup2\n        /* \"ZKSYNC/quickcalls.sol\":37934:37935  0 */\n      0x00\n        /* \"ZKSYNC/quickcalls.sol\":37928:37936  path7[0] */\n      dup2\n      mload\n      dup2\n      lt\n      tag_330\n      jumpi\n      tag_330\n      tag_119\n      jump\t// in\n    tag_330:\n      sub(shl(0xa0, 0x01), 0x01)\n        /* \"ZKSYNC/quickcalls.sol\":37928:37947  path7[0] = _TokenIn */\n      swap3\n      dup4\n      and\n        /* \"ZKSYNC/quickcalls.sol\":37928:37936  path7[0] */\n      0x20\n      swap2\n      dup3\n      mul\n      swap3\n      swap1\n      swap3\n      add\n      dup2\n      add\n        /* \"ZKSYNC/quickcalls.sol\":37928:37947  path7[0] = _TokenIn */\n      swap2\n      swap1\n      swap2\n      mstore\n        /* \"ZKSYNC/quickcalls.sol\":37981:37983  RA */\n      sload(0x08)\n        /* \"ZKSYNC/quickcalls.sol\":37981:37990  RA.WETH() */\n      0x40\n      dup1\n      mload\n      shl(0xe3, 0x15ab88c9)\n      dup2\n      mstore\n      swap1\n      mload\n        /* \"ZKSYNC/quickcalls.sol\":37981:37983  RA */\n      swap2\n      swap1\n      swap4\n      and\n      swap3\n        /* \"ZKSYNC/quickcalls.sol\":37981:37988  RA.WETH */\n      0xad5c4648\n      swap3\n        /* \"ZKSYNC/quickcalls.sol\":37981:37990  RA.WETH() */\n      0x04\n      dup1\n      dup4\n      add\n      swap4\n        /* \"ZKSYNC/quickcalls.sol\":37928:37936  path7[0] */\n      swap2\n      swap3\n        /* \"ZKSYNC/quickcalls.sol\":37981:37990  RA.WETH() */\n      dup3\n      swap1\n      sub\n      add\n      dup2\n        /* \"ZKSYNC/quickcalls.sol\":37981:37983  RA */\n      dup7\n        /* \"ZKSYNC/quickcalls.sol\":37981:37990  RA.WETH() */\n      dup1\n      extcodesize\n      iszero\n      dup1\n      iszero\n      tag_331\n      jumpi\n      0x00\n      dup1\n      revert\n    tag_331:\n      pop\n      gas\n      staticcall\n      iszero\n      dup1\n      iszero\n      tag_333\n      jumpi\n      returndatasize\n      0x00\n      dup1\n      returndatacopy\n      revert(0x00, returndatasize)\n    tag_333:\n      pop\n      pop\n      pop\n      pop\n      mload(0x40)\n      returndatasize\n      not(0x1f)\n      0x1f\n      dup3\n      add\n      and\n      dup3\n      add\n      dup1\n      0x40\n      mstore\n      pop\n      dup2\n      add\n      swap1\n      tag_334\n      swap2\n      swap1\n      tag_116\n      jump\t// in\n    tag_334:\n        /* \"ZKSYNC/quickcalls.sol\":37970:37975  path7 */\n      dup2\n        /* \"ZKSYNC/quickcalls.sol\":37976:37977  1 */\n      0x01\n        /* \"ZKSYNC/quickcalls.sol\":37970:37978  path7[1] */\n      dup2\n      mload\n      dup2\n      lt\n      tag_336\n      jumpi\n      tag_336\n      tag_119\n      jump\t// in\n    tag_336:\n      sub(shl(0xa0, 0x01), 0x01)\n        /* \"ZKSYNC/quickcalls.sol\":37970:37990  path7[1] = RA.WETH() */\n      swap3\n      dup4\n      and\n        /* \"ZKSYNC/quickcalls.sol\":37970:37978  path7[1] */\n      0x20\n      swap2\n      dup3\n      mul\n      swap3\n      swap1\n      swap3\n      add\n      dup2\n      add\n        /* \"ZKSYNC/quickcalls.sol\":37970:37990  path7[1] = RA.WETH() */\n      swap2\n      swap1\n      swap2\n      mstore\n        /* \"ZKSYNC/quickcalls.sol\":38035:38037  RA */\n      sload(0x08)\n        /* \"ZKSYNC/quickcalls.sol\":38035:38047  RA.factory() */\n      0x40\n      dup1\n      mload\n      shl(0xe0, 0xc45a0155)\n      dup2\n      mstore\n      swap1\n      mload\n        /* \"ZKSYNC/quickcalls.sol\":38013:38032  address swapFactory */\n      0x00\n      swap5\n        /* \"ZKSYNC/quickcalls.sol\":38035:38037  RA */\n      swap3\n      swap1\n      swap3\n      and\n      swap3\n        /* \"ZKSYNC/quickcalls.sol\":38035:38045  RA.factory */\n      0xc45a0155\n      swap3\n        /* \"ZKSYNC/quickcalls.sol\":38035:38047  RA.factory() */\n      0x04\n      dup1\n      dup5\n      add\n      swap4\n      dup3\n      swap1\n      sub\n      add\n      dup2\n        /* \"ZKSYNC/quickcalls.sol\":38013:38032  address swapFactory */\n      dup8\n        /* \"ZKSYNC/quickcalls.sol\":38035:38037  RA */\n      dup8\n        /* \"ZKSYNC/quickcalls.sol\":38035:38047  RA.factory() */\n      dup1\n      extcodesize\n      iszero\n      dup1\n      iszero\n      tag_337\n      jumpi\n      0x00\n      dup1\n      revert\n    tag_337:\n      pop\n      gas\n      call\n      iszero\n      dup1\n      iszero\n      tag_339\n      jumpi\n      returndatasize\n      0x00\n      dup1\n      returndatacopy\n      revert(0x00, returndatasize)\n    tag_339:\n      pop\n      pop\n      pop\n      pop\n      mload(0x40)\n      returndatasize\n      not(0x1f)\n      0x1f\n      dup3\n      add\n      and\n      dup3\n      add\n      dup1\n      0x40\n      mstore\n      pop\n      dup2\n      add\n      swap1\n      tag_340\n      swap2\n      swap1\n      tag_116\n      jump\t// in\n    tag_340:\n        /* \"ZKSYNC/quickcalls.sol\":38013:38047  address swapFactory = RA.factory() */\n      swap1\n      pop\n        /* \"ZKSYNC/quickcalls.sol\":38072:38295  swapExactTokensForETHSupportingFeeOnTransferTokens(\r... */\n      tag_341\n        /* \"ZKSYNC/quickcalls.sol\":38145:38154  _AmountIn */\n      dup8\n        /* \"ZKSYNC/quickcalls.sol\":38177:38178  0 */\n      0x00\n        /* \"ZKSYNC/quickcalls.sol\":38201:38206  path7 */\n      dup5\n        /* \"ZKSYNC/quickcalls.sol\":38229:38240  swapFactory */\n      dup5\n        /* \"ZKSYNC/quickcalls.sol\":38263:38272  _RouterIn */\n      dup10\n        /* \"ZKSYNC/quickcalls.sol\":38072:38122  swapExactTokensForETHSupportingFeeOnTransferTokens */\n      tag_342\n        /* \"ZKSYNC/quickcalls.sol\":38072:38295  swapExactTokensForETHSupportingFeeOnTransferTokens(\r... */\n      jump\t// in\n    tag_341:\n        /* \"ZKSYNC/quickcalls.sol\":37816:38319  {\r... */\n      pop\n      pop\n        /* \"ZKSYNC/quickcalls.sol\":37788:38319  if (_TokenIn != bnbAddress) {\r... */\n    tag_325:\n        /* \"ZKSYNC/quickcalls.sol\":38400:38405  10000 */\n      0x2710\n        /* \"ZKSYNC/quickcalls.sol\":38386:38396  FeePercent */\n      sload(0x06)\n        /* \"ZKSYNC/quickcalls.sol\":38378:38383  10000 */\n      0x2710\n        /* \"ZKSYNC/quickcalls.sol\":38378:38396  10000 - FeePercent */\n      tag_343\n      swap2\n      swap1\n      tag_92\n      jump\t// in\n    tag_343:\n        /* \"ZKSYNC/quickcalls.sol\":38364:38373  BNBSTORED */\n      sload(0x05)\n        /* \"ZKSYNC/quickcalls.sol\":38340:38373  address(this).balance - BNBSTORED */\n      tag_344\n      swap1\n        /* \"ZKSYNC/quickcalls.sol\":38340:38361  address(this).balance */\n      selfbalance\n        /* \"ZKSYNC/quickcalls.sol\":38340:38373  address(this).balance - BNBSTORED */\n      tag_92\n      jump\t// in\n    tag_344:\n        /* \"ZKSYNC/quickcalls.sol\":38339:38397  (address(this).balance - BNBSTORED) * (10000 - FeePercent) */\n      tag_345\n      swap2\n      swap1\n      tag_94\n      jump\t// in\n    tag_345:\n        /* \"ZKSYNC/quickcalls.sol\":38339:38405  (address(this).balance - BNBSTORED) * (10000 - FeePercent) / 10000 */\n      tag_346\n      swap2\n      swap1\n      tag_96\n      jump\t// in\n    tag_346:\n        /* \"ZKSYNC/quickcalls.sol\":38441:38451  bnbAddress */\n      sload(0x04)\n        /* \"ZKSYNC/quickcalls.sol\":38331:38407  bnb2 = ((address(this).balance - BNBSTORED) * (10000 - FeePercent) / 10000 ) */\n      swap1\n      swap2\n      pop\n      sub(shl(0xa0, 0x01), 0x01)\n        /* \"ZKSYNC/quickcalls.sol\":38428:38451  _TokenOut == bnbAddress */\n      dup6\n      dup2\n      and\n        /* \"ZKSYNC/quickcalls.sol\":38441:38451  bnbAddress */\n      swap2\n      and\n        /* \"ZKSYNC/quickcalls.sol\":38428:38451  _TokenOut == bnbAddress */\n      eq\n        /* \"ZKSYNC/quickcalls.sol\":38424:38912  if (_TokenOut == bnbAddress) {\r... */\n      iszero\n      tag_347\n      jumpi\n        /* \"ZKSYNC/quickcalls.sol\":38472:38487  returnBNB(bnb2) */\n      tag_348\n        /* \"ZKSYNC/quickcalls.sol\":38482:38486  bnb2 */\n      dup2\n        /* \"ZKSYNC/quickcalls.sol\":38472:38481  returnBNB */\n      tag_278\n        /* \"ZKSYNC/quickcalls.sol\":38472:38487  returnBNB(bnb2) */\n      jump\t// in\n    tag_348:\n        /* \"ZKSYNC/quickcalls.sol\":38424:38912  if (_TokenOut == bnbAddress) {\r... */\n      jump(tag_349)\n    tag_347:\n        /* \"ZKSYNC/quickcalls.sol\":38557:38573  new address[](2) */\n      0x40\n      dup1\n      mload\n        /* \"ZKSYNC/quickcalls.sol\":38571:38572  2 */\n      0x02\n        /* \"ZKSYNC/quickcalls.sol\":38557:38573  new address[](2) */\n      dup1\n      dup3\n      mstore\n      0x60\n      dup3\n      add\n      dup4\n      mstore\n        /* \"ZKSYNC/quickcalls.sol\":38532:38554  address[] memory path8 */\n      0x00\n      swap3\n        /* \"ZKSYNC/quickcalls.sol\":38557:38573  new address[](2) */\n      0x20\n      dup4\n      add\n      swap1\n      dup1\n      calldatasize\n      dup4\n      calldatacopy\n      pop\n      pop\n        /* \"ZKSYNC/quickcalls.sol\":38607:38609  RA */\n      sload(0x08)\n        /* \"ZKSYNC/quickcalls.sol\":38607:38616  RA.WETH() */\n      0x40\n      dup1\n      mload\n      shl(0xe3, 0x15ab88c9)\n      dup2\n      mstore\n      swap1\n      mload\n        /* \"ZKSYNC/quickcalls.sol\":38532:38573  address[] memory path8 = new address[](2) */\n      swap4\n      swap5\n      pop\n      sub(shl(0xa0, 0x01), 0x01)\n        /* \"ZKSYNC/quickcalls.sol\":38607:38609  RA */\n      swap1\n      swap2\n      and\n      swap3\n        /* \"ZKSYNC/quickcalls.sol\":38607:38614  RA.WETH */\n      0xad5c4648\n      swap3\n      pop\n        /* \"ZKSYNC/quickcalls.sol\":38607:38616  RA.WETH() */\n      0x04\n      dup1\n      dup4\n      add\n      swap3\n      0x20\n      swap3\n      swap2\n      swap1\n      dup3\n      swap1\n      sub\n      add\n      dup2\n        /* \"ZKSYNC/quickcalls.sol\":38607:38609  RA */\n      dup7\n        /* \"ZKSYNC/quickcalls.sol\":38607:38616  RA.WETH() */\n      dup1\n      extcodesize\n      iszero\n      dup1\n      iszero\n      tag_353\n      jumpi\n      0x00\n      dup1\n      revert\n    tag_353:\n      pop\n      gas\n      staticcall\n      iszero\n      dup1\n      iszero\n      tag_355\n      jumpi\n      returndatasize\n      0x00\n      dup1\n      returndatacopy\n      revert(0x00, returndatasize)\n    tag_355:\n      pop\n      pop\n      pop\n      pop\n      mload(0x40)\n      returndatasize\n      not(0x1f)\n      0x1f\n      dup3\n      add\n      and\n      dup3\n      add\n      dup1\n      0x40\n      mstore\n      pop\n      dup2\n      add\n      swap1\n      tag_356\n      swap2\n      swap1\n      tag_116\n      jump\t// in\n    tag_356:\n        /* \"ZKSYNC/quickcalls.sol\":38596:38601  path8 */\n      dup2\n        /* \"ZKSYNC/quickcalls.sol\":38602:38603  0 */\n      0x00\n        /* \"ZKSYNC/quickcalls.sol\":38596:38604  path8[0] */\n      dup2\n      mload\n      dup2\n      lt\n      tag_358\n      jumpi\n      tag_358\n      tag_119\n      jump\t// in\n    tag_358:\n      0x20\n      mul\n      0x20\n      add\n      add\n        /* \"ZKSYNC/quickcalls.sol\":38596:38616  path8[0] = RA.WETH() */\n      swap1\n      sub(shl(0xa0, 0x01), 0x01)\n      and\n      swap1\n      dup2\n      sub(shl(0xa0, 0x01), 0x01)\n      and\n      dup2\n      mstore\n      pop\n      pop\n        /* \"ZKSYNC/quickcalls.sol\":38650:38659  _TokenOut */\n      dup5\n        /* \"ZKSYNC/quickcalls.sol\":38639:38644  path8 */\n      dup2\n        /* \"ZKSYNC/quickcalls.sol\":38645:38646  1 */\n      0x01\n        /* \"ZKSYNC/quickcalls.sol\":38639:38647  path8[1] */\n      dup2\n      mload\n      dup2\n      lt\n      tag_360\n      jumpi\n      tag_360\n      tag_119\n      jump\t// in\n    tag_360:\n      sub(shl(0xa0, 0x01), 0x01)\n        /* \"ZKSYNC/quickcalls.sol\":38639:38659  path8[1] = _TokenOut */\n      swap3\n      dup4\n      and\n        /* \"ZKSYNC/quickcalls.sol\":38639:38647  path8[1] */\n      0x20\n      swap2\n      dup3\n      mul\n      swap3\n      swap1\n      swap3\n      add\n      add\n        /* \"ZKSYNC/quickcalls.sol\":38639:38659  path8[1] = _TokenOut */\n      mstore\n        /* \"ZKSYNC/quickcalls.sol\":38682:38685  RA2 */\n      sload(0x09)\n        /* \"ZKSYNC/quickcalls.sol\":38682:38896  RA2.swapExactETHForTokensSupportingFeeOnTransferTokens{value: bnb2} (\r... */\n      mload(0x40)\n      shl(0xe0, 0xb6f9de95)\n      dup2\n      mstore\n        /* \"ZKSYNC/quickcalls.sol\":38682:38685  RA2 */\n      swap2\n      and\n      swap1\n        /* \"ZKSYNC/quickcalls.sol\":38682:38736  RA2.swapExactETHForTokensSupportingFeeOnTransferTokens */\n      0xb6f9de95\n      swap1\n        /* \"ZKSYNC/quickcalls.sol\":38744:38748  bnb2 */\n      dup5\n      swap1\n        /* \"ZKSYNC/quickcalls.sol\":38682:38896  RA2.swapExactETHForTokensSupportingFeeOnTransferTokens{value: bnb2} (\r... */\n      tag_361\n      swap1\n        /* \"ZKSYNC/quickcalls.sol\":38682:38685  RA2 */\n      0x00\n      swap1\n        /* \"ZKSYNC/quickcalls.sol\":38797:38802  path8 */\n      dup7\n      swap1\n        /* \"ZKSYNC/quickcalls.sol\":38825:38835  msg.sender */\n      caller\n      swap1\n        /* \"ZKSYNC/quickcalls.sol\":38858:38873  block.timestamp */\n      timestamp\n      swap1\n        /* \"ZKSYNC/quickcalls.sol\":38682:38896  RA2.swapExactETHForTokensSupportingFeeOnTransferTokens{value: bnb2} (\r... */\n      0x04\n      add\n      tag_123\n      jump\t// in\n    tag_361:\n      0x00\n      mload(0x40)\n      dup1\n      dup4\n      sub\n      dup2\n      dup6\n      dup9\n      dup1\n      extcodesize\n      iszero\n      dup1\n      iszero\n      tag_362\n      jumpi\n      0x00\n      dup1\n      revert\n    tag_362:\n      pop\n      gas\n      call\n      iszero\n      dup1\n      iszero\n      tag_364\n      jumpi\n      returndatasize\n      0x00\n      dup1\n      returndatacopy\n      revert(0x00, returndatasize)\n    tag_364:\n      pop\n      pop\n      pop\n      pop\n      pop\n        /* \"ZKSYNC/quickcalls.sol\":38509:38912  {\r... */\n      pop\n        /* \"ZKSYNC/quickcalls.sol\":38424:38912  if (_TokenOut == bnbAddress) {\r... */\n    tag_349:\n        /* \"ZKSYNC/quickcalls.sol\":38942:38950  treasury */\n      sload(0x07)\n        /* \"ZKSYNC/quickcalls.sol\":38985:38997  new bytes(0) */\n      0x40\n      dup1\n      mload\n        /* \"ZKSYNC/quickcalls.sol\":38925:38937  bool success */\n      0x00\n        /* \"ZKSYNC/quickcalls.sol\":38985:38997  new bytes(0) */\n      dup1\n      dup3\n      mstore\n      0x20\n      dup3\n      add\n      swap3\n      dup4\n      swap1\n      mstore\n        /* \"ZKSYNC/quickcalls.sol\":38925:38937  bool success */\n      swap3\n      sub(shl(0xa0, 0x01), 0x01)\n        /* \"ZKSYNC/quickcalls.sol\":38942:38950  treasury */\n      and\n      swap2\n        /* \"ZKSYNC/quickcalls.sol\":38962:38983  address(this).balance */\n      selfbalance\n      swap2\n        /* \"ZKSYNC/quickcalls.sol\":38942:38998  treasury.call{value:address(this).balance}(new bytes(0)) */\n      tag_368\n      swap2\n      tag_170\n      jump\t// in\n    tag_368:\n      0x00\n      mload(0x40)\n      dup1\n      dup4\n      sub\n      dup2\n      dup6\n      dup8\n      gas\n      call\n      swap3\n      pop\n      pop\n      pop\n      returndatasize\n      dup1\n      0x00\n      dup2\n      eq\n      tag_371\n      jumpi\n      mload(0x40)\n      swap2\n      pop\n      and(add(returndatasize, 0x3f), not(0x1f))\n      dup3\n      add\n      0x40\n      mstore\n      returndatasize\n      dup3\n      mstore\n      returndatasize\n      0x00\n      0x20\n      dup5\n      add\n      returndatacopy\n      jump(tag_370)\n    tag_371:\n      0x60\n      swap2\n      pop\n    tag_370:\n      pop\n        /* \"ZKSYNC/quickcalls.sol\":38924:38998  (bool success,) = treasury.call{value:address(this).balance}(new bytes(0)) */\n      pop\n      swap1\n      pop\n        /* \"ZKSYNC/quickcalls.sol\":39017:39024  success */\n      dup1\n        /* \"ZKSYNC/quickcalls.sol\":39009:39064  require(success, 'TransferHelper: ETH_TRANSFER_FAILED') */\n      tag_372\n      jumpi\n      mload(0x40)\n      shl(0xe5, 0x461bcd)\n      dup2\n      mstore\n      0x04\n      add\n      tag_175\n      swap1\n      tag_176\n      jump\t// in\n    tag_372:\n      pop\n      pop\n        /* \"ZKSYNC/quickcalls.sol\":39087:39108  address(this).balance */\n      selfbalance\n        /* \"ZKSYNC/quickcalls.sol\":39075:39084  BNBSTORED */\n      0x05\n        /* \"ZKSYNC/quickcalls.sol\":39075:39108  BNBSTORED = address(this).balance */\n      sstore\n      pop\n      pop\n      pop\n      pop\n      pop\n        /* \"ZKSYNC/quickcalls.sol\":37351:39126  function _tokenToToken(address _TokenIn, uint256 _AmountIn, address _TokenOut, address _RouterIn, address _RouterOut) public {\r... */\n      jump\t// out\n        /* \"ZKSYNC/quickcalls.sol\":42101:42257  function withdawlBNB() external onlyOwner {\r... */\n    tag_84:\n        /* \"ZKSYNC/quickcalls.sol\":19047:19054  address */\n      0x00\n        /* \"ZKSYNC/quickcalls.sol\":19074:19080  _owner */\n      sload\n      sub(shl(0xa0, 0x01), 0x01)\n      and\n        /* \"ZKSYNC/quickcalls.sol\":17805:17815  msg.sender */\n      caller\n        /* \"ZKSYNC/quickcalls.sol\":19221:19244  owner() == _msgSender() */\n      eq\n        /* \"ZKSYNC/quickcalls.sol\":19213:19281  require(owner() == _msgSender(), \"Ownable: caller is not the owner\") */\n      tag_377\n      jumpi\n      mload(0x40)\n      shl(0xe5, 0x461bcd)\n      dup2\n      mstore\n      0x04\n      add\n      tag_175\n      swap1\n      tag_188\n      jump\t// in\n    tag_377:\n        /* \"ZKSYNC/quickcalls.sol\":42187:42196  BNBSTORED */\n      sload(0x05)\n        /* \"ZKSYNC/quickcalls.sol\":42158:42197  payable(msg.sender).transfer(BNBSTORED) */\n      mload(0x40)\n        /* \"ZKSYNC/quickcalls.sol\":42166:42176  msg.sender */\n      caller\n      swap2\n        /* \"ZKSYNC/quickcalls.sol\":42158:42197  payable(msg.sender).transfer(BNBSTORED) */\n      dup1\n      iszero\n      0x08fc\n      mul\n      swap2\n      0x00\n      dup2\n      dup2\n      dup2\n        /* \"ZKSYNC/quickcalls.sol\":42187:42196  BNBSTORED */\n      dup6\n        /* \"ZKSYNC/quickcalls.sol\":42166:42176  msg.sender */\n      dup9\n        /* \"ZKSYNC/quickcalls.sol\":42158:42197  payable(msg.sender).transfer(BNBSTORED) */\n      dup9\n      call\n      swap4\n      pop\n      pop\n      pop\n      pop\n      iszero\n      dup1\n      iszero\n      tag_381\n      jumpi\n      returndatasize\n      0x00\n      dup1\n      returndatacopy\n      revert(0x00, returndatasize)\n    tag_381:\n      pop\n        /* \"ZKSYNC/quickcalls.sol\":42224:42245  address(this).balance */\n      selfbalance\n        /* \"ZKSYNC/quickcalls.sol\":42212:42221  BNBSTORED */\n      0x05\n        /* \"ZKSYNC/quickcalls.sol\":42212:42245  BNBSTORED = address(this).balance */\n      sstore\n        /* \"ZKSYNC/quickcalls.sol\":42101:42257  function withdawlBNB() external onlyOwner {\r... */\n      jump\t// out\n        /* \"ZKSYNC/quickcalls.sol\":19910:20111  function transferOwnership(address newOwner) public virtual onlyOwner {\r... */\n    tag_88:\n        /* \"ZKSYNC/quickcalls.sol\":19047:19054  address */\n      0x00\n        /* \"ZKSYNC/quickcalls.sol\":19074:19080  _owner */\n      sload\n      sub(shl(0xa0, 0x01), 0x01)\n      and\n        /* \"ZKSYNC/quickcalls.sol\":17805:17815  msg.sender */\n      caller\n        /* \"ZKSYNC/quickcalls.sol\":19221:19244  owner() == _msgSender() */\n      eq\n        /* \"ZKSYNC/quickcalls.sol\":19213:19281  require(owner() == _msgSender(), \"Ownable: caller is not the owner\") */\n      tag_385\n      jumpi\n      mload(0x40)\n      shl(0xe5, 0x461bcd)\n      dup2\n      mstore\n      0x04\n      add\n      tag_175\n      swap1\n      tag_188\n      jump\t// in\n    tag_385:\n      sub(shl(0xa0, 0x01), 0x01)\n        /* \"ZKSYNC/quickcalls.sol\":19999:20021  newOwner != address(0) */\n      dup2\n      and\n        /* \"ZKSYNC/quickcalls.sol\":19991:20064  require(newOwner != address(0), \"Ownable: new owner is the zero address\") */\n      tag_388\n      jumpi\n      mload(0x40)\n      shl(0xe5, 0x461bcd)\n      dup2\n      mstore\n        /* \"#utility.yul\":12101:12103   */\n      0x20\n        /* \"ZKSYNC/quickcalls.sol\":19991:20064  require(newOwner != address(0), \"Ownable: new owner is the zero address\") */\n      0x04\n      dup3\n      add\n        /* \"#utility.yul\":12083:12104   */\n      mstore\n        /* \"#utility.yul\":12140:12142   */\n      0x26\n        /* \"#utility.yul\":12120:12138   */\n      0x24\n      dup3\n      add\n        /* \"#utility.yul\":12113:12143   */\n      mstore\n        /* \"#utility.yul\":12179:12213   */\n      0x4f776e61626c653a206e6577206f776e657220697320746865207a65726f2061\n        /* \"#utility.yul\":12159:12177   */\n      0x44\n      dup3\n      add\n        /* \"#utility.yul\":12152:12214   */\n      mstore\n      shl(0xd0, 0x646472657373)\n        /* \"#utility.yul\":12230:12248   */\n      0x64\n      dup3\n      add\n        /* \"#utility.yul\":12223:12259   */\n      mstore\n        /* \"#utility.yul\":12276:12295   */\n      0x84\n      add\n        /* \"ZKSYNC/quickcalls.sol\":19991:20064  require(newOwner != address(0), \"Ownable: new owner is the zero address\") */\n      tag_175\n        /* \"#utility.yul\":11899:12301   */\n      jump\n        /* \"ZKSYNC/quickcalls.sol\":19991:20064  require(newOwner != address(0), \"Ownable: new owner is the zero address\") */\n    tag_388:\n        /* \"ZKSYNC/quickcalls.sol\":20075:20103  _transferOwnership(newOwner) */\n      tag_391\n        /* \"ZKSYNC/quickcalls.sol\":20094:20102  newOwner */\n      dup2\n        /* \"ZKSYNC/quickcalls.sol\":20075:20093  _transferOwnership */\n      tag_191\n        /* \"ZKSYNC/quickcalls.sol\":20075:20103  _transferOwnership(newOwner) */\n      jump\t// in\n    tag_391:\n        /* \"ZKSYNC/quickcalls.sol\":19910:20111  function transferOwnership(address newOwner) public virtual onlyOwner {\r... */\n      pop\n      jump\t// out\n        /* \"ZKSYNC/quickcalls.sol\":41671:42029  function balanceCheck(address _Token) private view returns (uint256) {\r... */\n    tag_100:\n        /* \"ZKSYNC/quickcalls.sol\":41769:41779  bnbAddress */\n      sload(0x04)\n        /* \"ZKSYNC/quickcalls.sol\":41731:41738  uint256 */\n      0x00\n      swap1\n      sub(shl(0xa0, 0x01), 0x01)\n        /* \"ZKSYNC/quickcalls.sol\":41759:41779  _Token == bnbAddress */\n      dup4\n      dup2\n      and\n        /* \"ZKSYNC/quickcalls.sol\":41769:41779  bnbAddress */\n      swap2\n      and\n        /* \"ZKSYNC/quickcalls.sol\":41759:41779  _Token == bnbAddress */\n      eq\n        /* \"ZKSYNC/quickcalls.sol\":41755:42018  if (_Token == bnbAddress){\r... */\n      iszero\n      tag_393\n      jumpi\n      pop\n        /* \"ZKSYNC/quickcalls.sol\":41817:41838  address(this).balance */\n      selfbalance\n      swap2\n        /* \"ZKSYNC/quickcalls.sol\":41671:42029  function balanceCheck(address _Token) private view returns (uint256) {\r... */\n      swap1\n      pop\n      jump\t// out\n        /* \"ZKSYNC/quickcalls.sol\":41755:42018  if (_Token == bnbAddress){\r... */\n    tag_393:\n        /* \"ZKSYNC/quickcalls.sol\":41930:41969  IERC20(_Token).balanceOf(address(this)) */\n      mload(0x40)\n      shl(0xe0, 0x70a08231)\n      dup2\n      mstore\n        /* \"ZKSYNC/quickcalls.sol\":41963:41967  this */\n      address\n        /* \"ZKSYNC/quickcalls.sol\":41930:41969  IERC20(_Token).balanceOf(address(this)) */\n      0x04\n      dup3\n      add\n        /* \"#utility.yul\":7448:7499   */\n      mstore\n        /* \"ZKSYNC/quickcalls.sol\":41912:41927  uint256 balance */\n      0x00\n      swap1\n      sub(shl(0xa0, 0x01), 0x01)\n        /* \"ZKSYNC/quickcalls.sol\":41930:41954  IERC20(_Token).balanceOf */\n      dup5\n      and\n      swap1\n      0x70a08231\n      swap1\n        /* \"#utility.yul\":7421:7439   */\n      0x24\n      add\n        /* \"ZKSYNC/quickcalls.sol\":41930:41969  IERC20(_Token).balanceOf(address(this)) */\n      0x20\n      mload(0x40)\n      dup1\n      dup4\n      sub\n      dup2\n      dup7\n      dup1\n      extcodesize\n      iszero\n      dup1\n      iszero\n      tag_396\n      jumpi\n      0x00\n      dup1\n      revert\n    tag_396:\n      pop\n      gas\n      staticcall\n      iszero\n      dup1\n      iszero\n      tag_398\n      jumpi\n      returndatasize\n      0x00\n      dup1\n      returndatacopy\n      revert(0x00, returndatasize)\n    tag_398:\n      pop\n      pop\n      pop\n      pop\n      mload(0x40)\n      returndatasize\n      not(0x1f)\n      0x1f\n      dup3\n      add\n      and\n      dup3\n      add\n      dup1\n      0x40\n      mstore\n      pop\n      dup2\n      add\n      swap1\n      tag_399\n      swap2\n      swap1\n      tag_223\n      jump\t// in\n    tag_399:\n        /* \"ZKSYNC/quickcalls.sol\":41912:41969  uint256 balance = IERC20(_Token).balanceOf(address(this)) */\n      swap4\n        /* \"ZKSYNC/quickcalls.sol\":41671:42029  function balanceCheck(address _Token) private view returns (uint256) {\r... */\n      swap3\n      pop\n      pop\n      pop\n      jump\t// out\n        /* \"ZKSYNC/quickcalls.sol\":41755:42018  if (_Token == bnbAddress){\r... */\n    tag_394:\n        /* \"ZKSYNC/quickcalls.sol\":41671:42029  function balanceCheck(address _Token) private view returns (uint256) {\r... */\n      swap2\n      swap1\n      pop\n      jump\t// out\n        /* \"ZKSYNC/quickcalls.sol\":41287:41541  function checkAllowance1(address _Token, uint256 _amount, address _router) private {\r... */\n    tag_149:\n        /* \"ZKSYNC/quickcalls.sol\":41389:41436  IERC20(_Token).allowance(address(this),_router) */\n      mload(0x40)\n      shl(0xe1, 0x6eb1769f)\n      dup2\n      mstore\n        /* \"ZKSYNC/quickcalls.sol\":41422:41426  this */\n      address\n        /* \"ZKSYNC/quickcalls.sol\":41389:41436  IERC20(_Token).allowance(address(this),_router) */\n      0x04\n      dup3\n      add\n        /* \"#utility.yul\":7722:7756   */\n      mstore\n      sub(shl(0xa0, 0x01), 0x01)\n        /* \"#utility.yul\":7792:7807   */\n      dup3\n      dup2\n      and\n        /* \"#utility.yul\":7772:7790   */\n      0x24\n      dup4\n      add\n        /* \"#utility.yul\":7765:7808   */\n      mstore\n        /* \"ZKSYNC/quickcalls.sol\":41439:41446  _amount */\n      dup4\n      swap2\n        /* \"ZKSYNC/quickcalls.sol\":41389:41413  IERC20(_Token).allowance */\n      swap1\n      dup6\n      and\n      swap1\n      0xdd62ed3e\n      swap1\n        /* \"#utility.yul\":7657:7675   */\n      0x44\n      add\n        /* \"ZKSYNC/quickcalls.sol\":41389:41436  IERC20(_Token).allowance(address(this),_router) */\n      0x20\n      mload(0x40)\n      dup1\n      dup4\n      sub\n      dup2\n      dup7\n      dup1\n      extcodesize\n      iszero\n      dup1\n      iszero\n      tag_403\n      jumpi\n      0x00\n      dup1\n      revert\n    tag_403:\n      pop\n      gas\n      staticcall\n      iszero\n      dup1\n      iszero\n      tag_405\n      jumpi\n      returndatasize\n      0x00\n      dup1\n      returndatacopy\n      revert(0x00, returndatasize)\n    tag_405:\n      pop\n      pop\n      pop\n      pop\n      mload(0x40)\n      returndatasize\n      not(0x1f)\n      0x1f\n      dup3\n      add\n      and\n      dup3\n      add\n      dup1\n      0x40\n      mstore\n      pop\n      dup2\n      add\n      swap1\n      tag_406\n      swap2\n      swap1\n      tag_223\n      jump\t// in\n    tag_406:\n        /* \"ZKSYNC/quickcalls.sol\":41389:41446  IERC20(_Token).allowance(address(this),_router) < _amount */\n      lt\n        /* \"ZKSYNC/quickcalls.sol\":41385:41530  if (IERC20(_Token).allowance(address(this),_router) < _amount){\r... */\n      iszero\n      tag_407\n      jumpi\n        /* \"ZKSYNC/quickcalls.sol\":41502:41509  MAX_INT */\n      sload(0x01)\n        /* \"ZKSYNC/quickcalls.sol\":41470:41510  IERC20(_Token).approve(_router, MAX_INT) */\n      mload(0x40)\n      shl(0xe0, 0x095ea7b3)\n      dup2\n      mstore\n      sub(shl(0xa0, 0x01), 0x01)\n        /* \"#utility.yul\":9849:9881   */\n      dup4\n      dup2\n      and\n        /* \"ZKSYNC/quickcalls.sol\":41470:41510  IERC20(_Token).approve(_router, MAX_INT) */\n      0x04\n      dup4\n      add\n        /* \"#utility.yul\":9831:9882   */\n      mstore\n        /* \"#utility.yul\":9898:9916   */\n      0x24\n      dup3\n      add\n        /* \"#utility.yul\":9891:9925   */\n      swap3\n      swap1\n      swap3\n      mstore\n        /* \"ZKSYNC/quickcalls.sol\":41470:41492  IERC20(_Token).approve */\n      swap1\n      dup5\n      and\n      swap1\n      0x095ea7b3\n      swap1\n        /* \"#utility.yul\":9804:9822   */\n      0x44\n      add\n        /* \"ZKSYNC/quickcalls.sol\":41470:41510  IERC20(_Token).approve(_router, MAX_INT) */\n      0x20\n      mload(0x40)\n      dup1\n      dup4\n      sub\n      dup2\n      0x00\n      dup8\n      dup1\n      extcodesize\n      iszero\n      dup1\n      iszero\n      tag_410\n      jumpi\n      0x00\n      dup1\n      revert\n    tag_410:\n      pop\n      gas\n      call\n      iszero\n      dup1\n      iszero\n      tag_412\n      jumpi\n      returndatasize\n      0x00\n      dup1\n      returndatacopy\n      revert(0x00, returndatasize)\n    tag_412:\n      pop\n      pop\n      pop\n      pop\n      mload(0x40)\n      returndatasize\n      not(0x1f)\n      0x1f\n      dup3\n      add\n      and\n      dup3\n      add\n      dup1\n      0x40\n      mstore\n      pop\n      dup2\n      add\n      swap1\n      tag_413\n      swap2\n      swap1\n      tag_414\n      jump\t// in\n    tag_413:\n      pop\n        /* \"ZKSYNC/quickcalls.sol\":41385:41530  if (IERC20(_Token).allowance(address(this),_router) < _amount){\r... */\n    tag_407:\n        /* \"ZKSYNC/quickcalls.sol\":41287:41541  function checkAllowance1(address _Token, uint256 _amount, address _router) private {\r... */\n      pop\n      pop\n      pop\n      jump\t// out\n        /* \"ZKSYNC/quickcalls.sol\":26588:32927  function _1TokenInLPTokenOut(uint256 _TokenInput, address _TokenH, address _TokenA, address _TokenB ) private {\r... */\n    tag_179:\n        /* \"ZKSYNC/quickcalls.sol\":26720:26730  bnbAddress */\n      sload(0x04)\n      sub(shl(0xa0, 0x01), 0x01)\n        /* \"ZKSYNC/quickcalls.sol\":26709:26730  _TokenA == bnbAddress */\n      dup4\n      dup2\n      and\n        /* \"ZKSYNC/quickcalls.sol\":26720:26730  bnbAddress */\n      swap2\n      and\n        /* \"ZKSYNC/quickcalls.sol\":26709:26730  _TokenA == bnbAddress */\n      eq\n        /* \"ZKSYNC/quickcalls.sol\":26705:26790  if (_TokenA == bnbAddress) {\r... */\n      iszero\n      tag_416\n      jumpi\n        /* \"ZKSYNC/quickcalls.sol\":26765:26772  _TokenB */\n      swap1\n        /* \"ZKSYNC/quickcalls.sol\":26705:26790  if (_TokenA == bnbAddress) {\r... */\n    tag_416:\n        /* \"ZKSYNC/quickcalls.sol\":26796:26830  setBNBBalance(_TokenH,_TokenInput) */\n      tag_417\n        /* \"ZKSYNC/quickcalls.sol\":26810:26817  _TokenH */\n      dup4\n        /* \"ZKSYNC/quickcalls.sol\":26818:26829  _TokenInput */\n      dup6\n        /* \"ZKSYNC/quickcalls.sol\":26796:26809  setBNBBalance */\n      tag_53\n        /* \"ZKSYNC/quickcalls.sol\":26796:26830  setBNBBalance(_TokenH,_TokenInput) */\n      jump\t// in\n    tag_417:\n        /* \"ZKSYNC/quickcalls.sol\":26866:26882  uint256 InitialB */\n      0x00\n        /* \"ZKSYNC/quickcalls.sol\":26893:26912  uint256 preTransfer */\n      dup1\n        /* \"ZKSYNC/quickcalls.sol\":26923:26941  uint256 Transfered */\n      0x00\n        /* \"ZKSYNC/quickcalls.sol\":26952:26968  uint256 preSwap1 */\n      dup1\n        /* \"ZKSYNC/quickcalls.sol\":26979:26996  uint256 postSwap1 */\n      0x00\n        /* \"ZKSYNC/quickcalls.sol\":27007:27024  uint256 preSwap2a */\n      dup1\n        /* \"ZKSYNC/quickcalls.sol\":27035:27053  uint256 swapAmount */\n      0x00\n        /* \"ZKSYNC/quickcalls.sol\":27064:27086  uint256 LPTokenAAmount */\n      dup1\n        /* \"ZKSYNC/quickcalls.sol\":27097:27118  uint256 QTTokenAmount */\n      0x00\n        /* \"ZKSYNC/quickcalls.sol\":27151:27161  bnbAddress */\n      0x04\n      0x00\n      swap1\n      sload\n      swap1\n      0x0100\n      exp\n      swap1\n      div\n      sub(shl(0xa0, 0x01), 0x01)\n      and\n      sub(shl(0xa0, 0x01), 0x01)\n        /* \"ZKSYNC/quickcalls.sol\":27140:27161  _TokenB == bnbAddress */\n      and\n        /* \"ZKSYNC/quickcalls.sol\":27140:27147  _TokenB */\n      dup11\n      sub(shl(0xa0, 0x01), 0x01)\n        /* \"ZKSYNC/quickcalls.sol\":27140:27161  _TokenB == bnbAddress */\n      and\n      eq\n        /* \"ZKSYNC/quickcalls.sol\":27135:27264  if ( _TokenB == bnbAddress ) {\r... */\n      iszero\n      tag_418\n      jumpi\n        /* \"ZKSYNC/quickcalls.sol\":27186:27195  BNBSTORED */\n      sload(0x05)\n        /* \"ZKSYNC/quickcalls.sol\":27175:27195  InitialB = BNBSTORED */\n      swap9\n      pop\n        /* \"ZKSYNC/quickcalls.sol\":27135:27264  if ( _TokenB == bnbAddress ) {\r... */\n      jump(tag_419)\n    tag_418:\n        /* \"ZKSYNC/quickcalls.sol\":27233:27254  balanceCheck(_TokenB) */\n      tag_420\n        /* \"ZKSYNC/quickcalls.sol\":27246:27253  _TokenB */\n      dup11\n        /* \"ZKSYNC/quickcalls.sol\":27233:27245  balanceCheck */\n      tag_100\n        /* \"ZKSYNC/quickcalls.sol\":27233:27254  balanceCheck(_TokenB) */\n      jump\t// in\n    tag_420:\n        /* \"ZKSYNC/quickcalls.sol\":27222:27254  InitialB = balanceCheck(_TokenB) */\n      swap9\n      pop\n        /* \"ZKSYNC/quickcalls.sol\":27135:27264  if ( _TokenB == bnbAddress ) {\r... */\n    tag_419:\n        /* \"ZKSYNC/quickcalls.sol\":27328:27334  router */\n      sload(0x02)\n        /* \"ZKSYNC/quickcalls.sol\":27309:27311  RA */\n      0x08\n        /* \"ZKSYNC/quickcalls.sol\":27309:27335  RA = routerAddress(router) */\n      dup1\n      sload\n      sub(shl(0xa0, 0x01), 0x01)\n        /* \"ZKSYNC/quickcalls.sol\":27328:27334  router */\n      swap3\n      dup4\n      and\n      not(sub(shl(0xa0, 0x01), 0x01))\n        /* \"ZKSYNC/quickcalls.sol\":27309:27335  RA = routerAddress(router) */\n      swap2\n      dup3\n      and\n      or\n      swap1\n      swap2\n      sstore\n        /* \"ZKSYNC/quickcalls.sol\":27366:27373  router2 */\n      sload(0x03)\n        /* \"ZKSYNC/quickcalls.sol\":27346:27349  RA2 */\n      0x09\n        /* \"ZKSYNC/quickcalls.sol\":27346:27374  RA2 = routerAddress(router2) */\n      dup1\n      sload\n        /* \"ZKSYNC/quickcalls.sol\":27366:27373  router2 */\n      swap2\n      dup5\n      and\n        /* \"ZKSYNC/quickcalls.sol\":27346:27374  RA2 = routerAddress(router2) */\n      swap2\n      dup4\n      and\n      swap2\n      swap1\n      swap2\n      or\n      swap1\n      sstore\n        /* \"ZKSYNC/quickcalls.sol\":27386:27392  TokenH */\n      0x0d\n        /* \"ZKSYNC/quickcalls.sol\":27386:27410  TokenH = IERC20(_TokenH) */\n      dup1\n      sload\n      dup3\n      and\n      dup16\n      dup5\n      and\n      swap1\n      dup2\n      or\n      swap1\n      swap2\n      sstore\n        /* \"ZKSYNC/quickcalls.sol\":27421:27427  TokenA */\n      0x0b\n        /* \"ZKSYNC/quickcalls.sol\":27421:27445  TokenA = IERC20(_TokenA) */\n      dup1\n      sload\n      dup4\n      and\n      dup16\n      dup6\n      and\n      or\n      swap1\n      sstore\n        /* \"ZKSYNC/quickcalls.sol\":27456:27462  TokenB */\n      0x0c\n        /* \"ZKSYNC/quickcalls.sol\":27456:27480  TokenB = IERC20(_TokenB) */\n      dup1\n      sload\n      swap1\n      swap3\n      and\n      dup14\n      dup5\n      and\n      or\n      swap1\n      swap2\n      sstore\n        /* \"ZKSYNC/quickcalls.sol\":27569:27579  bnbAddress */\n      sload(0x04)\n      swap1\n      swap2\n      and\n        /* \"ZKSYNC/quickcalls.sol\":27558:27579  _TokenH != bnbAddress */\n      eq\n        /* \"ZKSYNC/quickcalls.sol\":27554:27723  if (_TokenH != bnbAddress){\r... */\n      tag_423\n      jumpi\n        /* \"ZKSYNC/quickcalls.sol\":27605:27626  balanceCheck(_TokenH) */\n      tag_422\n        /* \"ZKSYNC/quickcalls.sol\":27618:27625  _TokenH */\n      dup13\n        /* \"ZKSYNC/quickcalls.sol\":27605:27617  balanceCheck */\n      tag_100\n        /* \"ZKSYNC/quickcalls.sol\":27605:27626  balanceCheck(_TokenH) */\n      jump\t// in\n    tag_422:\n        /* \"ZKSYNC/quickcalls.sol\":27591:27626  preTransfer = balanceCheck(_TokenH) */\n      swap8\n      pop\n        /* \"ZKSYNC/quickcalls.sol\":27637:27711  TokenH.safeTransferFrom(address(msg.sender), (address(this)), _TokenInput) */\n      tag_423\n        /* \"ZKSYNC/quickcalls.sol\":27669:27679  msg.sender */\n      caller\n        /* \"ZKSYNC/quickcalls.sol\":27691:27695  this */\n      address\n        /* \"ZKSYNC/quickcalls.sol\":27699:27710  _TokenInput */\n      dup16\n        /* \"ZKSYNC/quickcalls.sol\":27637:27643  TokenH */\n      0x0d\n      0x00\n      swap1\n      sload\n      swap1\n      0x0100\n      exp\n      swap1\n      div\n      sub(shl(0xa0, 0x01), 0x01)\n      and\n      sub(shl(0xa0, 0x01), 0x01)\n        /* \"ZKSYNC/quickcalls.sol\":27637:27660  TokenH.safeTransferFrom */\n      and\n      tag_214\n      swap1\n        /* \"ZKSYNC/quickcalls.sol\":27637:27711  TokenH.safeTransferFrom(address(msg.sender), (address(this)), _TokenInput) */\n      swap4\n      swap3\n      swap2\n      swap1\n      0xffffffff\n      and\n      jump\t// in\n    tag_423:\n        /* \"ZKSYNC/quickcalls.sol\":27790:27800  bnbAddress */\n      sload(0x04)\n      sub(shl(0xa0, 0x01), 0x01)\n        /* \"ZKSYNC/quickcalls.sol\":27779:27800  _TokenH == bnbAddress */\n      dup14\n      dup2\n      and\n        /* \"ZKSYNC/quickcalls.sol\":27790:27800  bnbAddress */\n      swap2\n      and\n        /* \"ZKSYNC/quickcalls.sol\":27779:27800  _TokenH == bnbAddress */\n      eq\n        /* \"ZKSYNC/quickcalls.sol\":27775:27934  if (_TokenH == bnbAddress) {\r... */\n      iszero\n      tag_424\n      jumpi\n        /* \"ZKSYNC/quickcalls.sol\":27830:27841  _TokenInput */\n      dup13\n        /* \"ZKSYNC/quickcalls.sol\":27817:27841  Transfered = _TokenInput */\n      swap7\n      pop\n        /* \"ZKSYNC/quickcalls.sol\":27775:27934  if (_TokenH == bnbAddress) {\r... */\n      jump(tag_425)\n    tag_424:\n        /* \"ZKSYNC/quickcalls.sol\":27911:27922  preTransfer */\n      dup8\n        /* \"ZKSYNC/quickcalls.sol\":27887:27908  balanceCheck(_TokenH) */\n      tag_426\n        /* \"ZKSYNC/quickcalls.sol\":27900:27907  _TokenH */\n      dup14\n        /* \"ZKSYNC/quickcalls.sol\":27887:27899  balanceCheck */\n      tag_100\n        /* \"ZKSYNC/quickcalls.sol\":27887:27908  balanceCheck(_TokenH) */\n      jump\t// in\n    tag_426:\n        /* \"ZKSYNC/quickcalls.sol\":27887:27922  balanceCheck(_TokenH) - preTransfer */\n      tag_427\n      swap2\n      swap1\n      tag_92\n      jump\t// in\n    tag_427:\n        /* \"ZKSYNC/quickcalls.sol\":27874:27922  Transfered = balanceCheck(_TokenH) - preTransfer */\n      swap7\n      pop\n        /* \"ZKSYNC/quickcalls.sol\":27775:27934  if (_TokenH == bnbAddress) {\r... */\n    tag_425:\n        /* \"ZKSYNC/quickcalls.sol\":27997:28004  _TokenB */\n      dup10\n      sub(shl(0xa0, 0x01), 0x01)\n        /* \"ZKSYNC/quickcalls.sol\":27986:28004  _TokenH == _TokenB */\n      and\n        /* \"ZKSYNC/quickcalls.sol\":27986:27993  _TokenH */\n      dup13\n      sub(shl(0xa0, 0x01), 0x01)\n        /* \"ZKSYNC/quickcalls.sol\":27986:28004  _TokenH == _TokenB */\n      and\n      eq\n        /* \"ZKSYNC/quickcalls.sol\":27982:28216  if (_TokenH == _TokenB) {\r... */\n      iszero\n      tag_428\n      jumpi\n        /* \"ZKSYNC/quickcalls.sol\":28035:28036  0 */\n      0x00\n        /* \"ZKSYNC/quickcalls.sol\":28022:28036  swapAmount = 0 */\n      swap3\n      pop\n        /* \"ZKSYNC/quickcalls.sol\":27982:28216  if (_TokenH == _TokenB) {\r... */\n      jump(tag_435)\n    tag_428:\n        /* \"ZKSYNC/quickcalls.sol\":28069:28076  _TokenA */\n      dup11\n      sub(shl(0xa0, 0x01), 0x01)\n        /* \"ZKSYNC/quickcalls.sol\":28058:28076  _TokenH == _TokenA */\n      and\n        /* \"ZKSYNC/quickcalls.sol\":28058:28065  _TokenH */\n      dup13\n      sub(shl(0xa0, 0x01), 0x01)\n        /* \"ZKSYNC/quickcalls.sol\":28058:28076  _TokenH == _TokenA */\n      and\n      eq\n        /* \"ZKSYNC/quickcalls.sol\":28054:28216  if (_TokenH == _TokenA) {\r... */\n      iszero\n      tag_430\n      jumpi\n        /* \"ZKSYNC/quickcalls.sol\":28136:28146  FeePercent */\n      sload(0x06)\n        /* \"ZKSYNC/quickcalls.sol\":28129:28146  5000 + FeePercent */\n      tag_431\n      swap1\n        /* \"ZKSYNC/quickcalls.sol\":28129:28133  5000 */\n      0x1388\n        /* \"ZKSYNC/quickcalls.sol\":28129:28146  5000 + FeePercent */\n      tag_432\n      jump\t// in\n    tag_431:\n        /* \"ZKSYNC/quickcalls.sol\":28107:28125  Transfered / 10000 */\n      tag_433\n        /* \"ZKSYNC/quickcalls.sol\":28120:28125  10000 */\n      0x2710\n        /* \"ZKSYNC/quickcalls.sol\":28107:28117  Transfered */\n      dup10\n        /* \"ZKSYNC/quickcalls.sol\":28107:28125  Transfered / 10000 */\n      tag_96\n      jump\t// in\n    tag_433:\n        /* \"ZKSYNC/quickcalls.sol\":28107:28147  Transfered / 10000 * (5000 + FeePercent) */\n      tag_434\n      swap2\n      swap1\n      tag_94\n      jump\t// in\n    tag_434:\n        /* \"ZKSYNC/quickcalls.sol\":28093:28148  swapAmount = (Transfered / 10000 * (5000 + FeePercent)) */\n      swap3\n      pop\n        /* \"ZKSYNC/quickcalls.sol\":28054:28216  if (_TokenH == _TokenA) {\r... */\n      jump(tag_435)\n    tag_430:\n        /* \"ZKSYNC/quickcalls.sol\":28194:28204  Transfered */\n      dup7\n        /* \"ZKSYNC/quickcalls.sol\":28181:28204  swapAmount = Transfered */\n      swap3\n      pop\n        /* \"ZKSYNC/quickcalls.sol\":28054:28216  if (_TokenH == _TokenA) {\r... */\n    tag_435:\n        /* \"ZKSYNC/quickcalls.sol\":28261:28267  router */\n      sload(0x02)\n        /* \"ZKSYNC/quickcalls.sol\":28224:28268  checkAllowance1(_TokenH, swapAmount, router) */\n      tag_436\n      swap1\n        /* \"ZKSYNC/quickcalls.sol\":28240:28247  _TokenH */\n      dup14\n      swap1\n        /* \"ZKSYNC/quickcalls.sol\":28249:28259  swapAmount */\n      dup6\n      swap1\n      sub(shl(0xa0, 0x01), 0x01)\n        /* \"ZKSYNC/quickcalls.sol\":28261:28267  router */\n      and\n        /* \"ZKSYNC/quickcalls.sol\":28224:28239  checkAllowance1 */\n      tag_149\n        /* \"ZKSYNC/quickcalls.sol\":28224:28268  checkAllowance1(_TokenH, swapAmount, router) */\n      jump\t// in\n    tag_436:\n        /* \"ZKSYNC/quickcalls.sol\":28317:28338  balanceCheck(_TokenB) */\n      tag_437\n        /* \"ZKSYNC/quickcalls.sol\":28330:28337  _TokenB */\n      dup11\n        /* \"ZKSYNC/quickcalls.sol\":28317:28329  balanceCheck */\n      tag_100\n        /* \"ZKSYNC/quickcalls.sol\":28317:28338  balanceCheck(_TokenB) */\n      jump\t// in\n    tag_437:\n        /* \"ZKSYNC/quickcalls.sol\":28306:28338  preSwap1 = balanceCheck(_TokenB) */\n      swap6\n      pop\n        /* \"ZKSYNC/quickcalls.sol\":28456:28470  swapAmount > 0 */\n      dup3\n      iszero\n        /* \"ZKSYNC/quickcalls.sol\":28452:29533  if (swapAmount > 0) {\r... */\n      tag_438\n      jumpi\n        /* \"ZKSYNC/quickcalls.sol\":28536:28546  bnbAddress */\n      sload(0x04)\n        /* \"ZKSYNC/quickcalls.sol\":28505:28520  uint256 midswap */\n      0x00\n      swap1\n        /* \"ZKSYNC/quickcalls.sol\":28523:28547  balanceCheck(bnbAddress) */\n      tag_439\n      swap1\n      sub(shl(0xa0, 0x01), 0x01)\n        /* \"ZKSYNC/quickcalls.sol\":28536:28546  bnbAddress */\n      and\n        /* \"ZKSYNC/quickcalls.sol\":28523:28535  balanceCheck */\n      tag_100\n        /* \"ZKSYNC/quickcalls.sol\":28523:28547  balanceCheck(bnbAddress) */\n      jump\t// in\n    tag_439:\n        /* \"ZKSYNC/quickcalls.sol\":28590:28606  new address[](2) */\n      0x40\n      dup1\n      mload\n        /* \"ZKSYNC/quickcalls.sol\":28604:28605  2 */\n      0x02\n        /* \"ZKSYNC/quickcalls.sol\":28590:28606  new address[](2) */\n      dup1\n      dup3\n      mstore\n      0x60\n      dup3\n      add\n      dup4\n      mstore\n        /* \"ZKSYNC/quickcalls.sol\":28505:28547  uint256 midswap = balanceCheck(bnbAddress) */\n      swap3\n      swap4\n      pop\n        /* \"ZKSYNC/quickcalls.sol\":28566:28587  address[] memory path */\n      0x00\n      swap3\n        /* \"ZKSYNC/quickcalls.sol\":28590:28606  new address[](2) */\n      swap1\n      swap2\n      0x20\n      dup4\n      add\n      swap1\n      dup1\n      calldatasize\n      dup4\n      calldatacopy\n      add\n      swap1\n      pop\n      pop\n        /* \"ZKSYNC/quickcalls.sol\":28566:28606  address[] memory path = new address[](2) */\n      swap1\n      pop\n        /* \"ZKSYNC/quickcalls.sol\":28635:28642  _TokenH */\n      dup14\n        /* \"ZKSYNC/quickcalls.sol\":28625:28629  path */\n      dup2\n        /* \"ZKSYNC/quickcalls.sol\":28630:28631  0 */\n      0x00\n        /* \"ZKSYNC/quickcalls.sol\":28625:28632  path[0] */\n      dup2\n      mload\n      dup2\n      lt\n      tag_444\n      jumpi\n      tag_444\n      tag_119\n      jump\t// in\n    tag_444:\n      sub(shl(0xa0, 0x01), 0x01)\n        /* \"ZKSYNC/quickcalls.sol\":28625:28642  path[0] = _TokenH */\n      swap3\n      dup4\n      and\n        /* \"ZKSYNC/quickcalls.sol\":28625:28632  path[0] */\n      0x20\n      swap2\n      dup3\n      mul\n      swap3\n      swap1\n      swap3\n      add\n      dup2\n      add\n        /* \"ZKSYNC/quickcalls.sol\":28625:28642  path[0] = _TokenH */\n      swap2\n      swap1\n      swap2\n      mstore\n        /* \"ZKSYNC/quickcalls.sol\":28671:28673  RA */\n      sload(0x08)\n        /* \"ZKSYNC/quickcalls.sol\":28671:28680  RA.WETH() */\n      0x40\n      dup1\n      mload\n      shl(0xe3, 0x15ab88c9)\n      dup2\n      mstore\n      swap1\n      mload\n        /* \"ZKSYNC/quickcalls.sol\":28671:28673  RA */\n      swap2\n      swap1\n      swap4\n      and\n      swap3\n        /* \"ZKSYNC/quickcalls.sol\":28671:28678  RA.WETH */\n      0xad5c4648\n      swap3\n        /* \"ZKSYNC/quickcalls.sol\":28671:28680  RA.WETH() */\n      0x04\n      dup1\n      dup4\n      add\n      swap4\n        /* \"ZKSYNC/quickcalls.sol\":28625:28632  path[0] */\n      swap2\n      swap3\n        /* \"ZKSYNC/quickcalls.sol\":28671:28680  RA.WETH() */\n      dup3\n      swap1\n      sub\n      add\n      dup2\n        /* \"ZKSYNC/quickcalls.sol\":28671:28673  RA */\n      dup7\n        /* \"ZKSYNC/quickcalls.sol\":28671:28680  RA.WETH() */\n      dup1\n      extcodesize\n      iszero\n      dup1\n      iszero\n      tag_445\n      jumpi\n      0x00\n      dup1\n      revert\n    tag_445:\n      pop\n      gas\n      staticcall\n      iszero\n      dup1\n      iszero\n      tag_447\n      jumpi\n      returndatasize\n      0x00\n      dup1\n      returndatacopy\n      revert(0x00, returndatasize)\n    tag_447:\n      pop\n      pop\n      pop\n      pop\n      mload(0x40)\n      returndatasize\n      not(0x1f)\n      0x1f\n      dup3\n      add\n      and\n      dup3\n      add\n      dup1\n      0x40\n      mstore\n      pop\n      dup2\n      add\n      swap1\n      tag_448\n      swap2\n      swap1\n      tag_116\n      jump\t// in\n    tag_448:\n        /* \"ZKSYNC/quickcalls.sol\":28661:28665  path */\n      dup2\n        /* \"ZKSYNC/quickcalls.sol\":28666:28667  1 */\n      0x01\n        /* \"ZKSYNC/quickcalls.sol\":28661:28668  path[1] */\n      dup2\n      mload\n      dup2\n      lt\n      tag_450\n      jumpi\n      tag_450\n      tag_119\n      jump\t// in\n    tag_450:\n      sub(shl(0xa0, 0x01), 0x01)\n        /* \"ZKSYNC/quickcalls.sol\":28661:28680  path[1] = RA.WETH() */\n      swap3\n      dup4\n      and\n        /* \"ZKSYNC/quickcalls.sol\":28661:28668  path[1] */\n      0x20\n      swap2\n      dup3\n      mul\n      swap3\n      swap1\n      swap3\n      add\n      add\n        /* \"ZKSYNC/quickcalls.sol\":28661:28680  path[1] = RA.WETH() */\n      mstore\n        /* \"ZKSYNC/quickcalls.sol\":28699:28701  RA */\n      sload(0x08)\n        /* \"ZKSYNC/quickcalls.sol\":28699:28909  RA.swapExactTokensForETHSupportingFeeOnTransferTokens(\r... */\n      mload(0x40)\n      shl(0xe0, 0x791ac947)\n      dup2\n      mstore\n        /* \"ZKSYNC/quickcalls.sol\":28699:28701  RA */\n      swap2\n      and\n      swap1\n        /* \"ZKSYNC/quickcalls.sol\":28699:28752  RA.swapExactTokensForETHSupportingFeeOnTransferTokens */\n      0x791ac947\n      swap1\n        /* \"ZKSYNC/quickcalls.sol\":28699:28909  RA.swapExactTokensForETHSupportingFeeOnTransferTokens(\r... */\n      tag_451\n      swap1\n        /* \"ZKSYNC/quickcalls.sol\":28771:28781  swapAmount */\n      dup9\n      swap1\n        /* \"ZKSYNC/quickcalls.sol\":28699:28701  RA */\n      0x00\n      swap1\n        /* \"ZKSYNC/quickcalls.sol\":28820:28824  path */\n      dup7\n      swap1\n        /* \"ZKSYNC/quickcalls.sol\":28851:28855  this */\n      address\n      swap1\n        /* \"ZKSYNC/quickcalls.sol\":28875:28890  block.timestamp */\n      timestamp\n      swap1\n        /* \"ZKSYNC/quickcalls.sol\":28699:28909  RA.swapExactTokensForETHSupportingFeeOnTransferTokens(\r... */\n      0x04\n      add\n      tag_250\n      jump\t// in\n    tag_451:\n      0x00\n      mload(0x40)\n      dup1\n      dup4\n      sub\n      dup2\n      0x00\n      dup8\n      dup1\n      extcodesize\n      iszero\n      dup1\n      iszero\n      tag_452\n      jumpi\n      0x00\n      dup1\n      revert\n    tag_452:\n      pop\n      gas\n      call\n      iszero\n      dup1\n      iszero\n      tag_454\n      jumpi\n      returndatasize\n      0x00\n      dup1\n      returndatacopy\n      revert(0x00, returndatasize)\n    tag_454:\n      pop\n      pop\n        /* \"ZKSYNC/quickcalls.sol\":29006:29016  bnbAddress */\n      sload(0x04)\n      sub(shl(0xa0, 0x01), 0x01)\n        /* \"ZKSYNC/quickcalls.sol\":28995:29016  _TokenB != bnbAddress */\n      dup16\n      dup2\n      and\n        /* \"ZKSYNC/quickcalls.sol\":29006:29016  bnbAddress */\n      swap2\n      and\n        /* \"ZKSYNC/quickcalls.sol\":28995:29016  _TokenB != bnbAddress */\n      eq\n      swap2\n      pop\n        /* \"ZKSYNC/quickcalls.sol\":28991:29504  if (_TokenB != bnbAddress){\r... */\n      tag_455\n      swap1\n      pop\n      jumpi\n        /* \"ZKSYNC/quickcalls.sol\":29066:29076  bnbAddress */\n      sload(0x04)\n        /* \"ZKSYNC/quickcalls.sol\":29080:29087  midswap */\n      dup3\n      swap1\n        /* \"ZKSYNC/quickcalls.sol\":29053:29077  balanceCheck(bnbAddress) */\n      tag_456\n      swap1\n      sub(shl(0xa0, 0x01), 0x01)\n        /* \"ZKSYNC/quickcalls.sol\":29066:29076  bnbAddress */\n      and\n        /* \"ZKSYNC/quickcalls.sol\":29053:29065  balanceCheck */\n      tag_100\n        /* \"ZKSYNC/quickcalls.sol\":29053:29077  balanceCheck(bnbAddress) */\n      jump\t// in\n    tag_456:\n        /* \"ZKSYNC/quickcalls.sol\":29053:29087  balanceCheck(bnbAddress) - midswap */\n      tag_457\n      swap2\n      swap1\n      tag_92\n      jump\t// in\n    tag_457:\n        /* \"ZKSYNC/quickcalls.sol\":29135:29151  new address[](2) */\n      0x40\n      dup1\n      mload\n        /* \"ZKSYNC/quickcalls.sol\":29149:29150  2 */\n      0x02\n        /* \"ZKSYNC/quickcalls.sol\":29135:29151  new address[](2) */\n      dup1\n      dup3\n      mstore\n      0x60\n      dup3\n      add\n      dup4\n      mstore\n        /* \"ZKSYNC/quickcalls.sol\":29040:29087  swapAmount = balanceCheck(bnbAddress) - midswap */\n      swap3\n      swap8\n      pop\n        /* \"ZKSYNC/quickcalls.sol\":29110:29132  address[] memory path2 */\n      0x00\n      swap3\n        /* \"ZKSYNC/quickcalls.sol\":29135:29151  new address[](2) */\n      swap1\n      swap2\n      0x20\n      dup4\n      add\n      swap1\n      dup1\n      calldatasize\n      dup4\n      calldatacopy\n      pop\n      pop\n        /* \"ZKSYNC/quickcalls.sol\":29185:29188  RA2 */\n      sload(0x09)\n        /* \"ZKSYNC/quickcalls.sol\":29185:29195  RA2.WETH() */\n      0x40\n      dup1\n      mload\n      shl(0xe3, 0x15ab88c9)\n      dup2\n      mstore\n      swap1\n      mload\n        /* \"ZKSYNC/quickcalls.sol\":29110:29151  address[] memory path2 = new address[](2) */\n      swap4\n      swap5\n      pop\n      sub(shl(0xa0, 0x01), 0x01)\n        /* \"ZKSYNC/quickcalls.sol\":29185:29188  RA2 */\n      swap1\n      swap2\n      and\n      swap3\n        /* \"ZKSYNC/quickcalls.sol\":29185:29193  RA2.WETH */\n      0xad5c4648\n      swap3\n      pop\n        /* \"ZKSYNC/quickcalls.sol\":29185:29195  RA2.WETH() */\n      0x04\n      dup1\n      dup4\n      add\n      swap3\n      0x20\n      swap3\n      swap2\n      swap1\n      dup3\n      swap1\n      sub\n      add\n      dup2\n        /* \"ZKSYNC/quickcalls.sol\":29185:29188  RA2 */\n      dup7\n        /* \"ZKSYNC/quickcalls.sol\":29185:29195  RA2.WETH() */\n      dup1\n      extcodesize\n      iszero\n      dup1\n      iszero\n      tag_461\n      jumpi\n      0x00\n      dup1\n      revert\n    tag_461:\n      pop\n      gas\n      staticcall\n      iszero\n      dup1\n      iszero\n      tag_463\n      jumpi\n      returndatasize\n      0x00\n      dup1\n      returndatacopy\n      revert(0x00, returndatasize)\n    tag_463:\n      pop\n      pop\n      pop\n      pop\n      mload(0x40)\n      returndatasize\n      not(0x1f)\n      0x1f\n      dup3\n      add\n      and\n      dup3\n      add\n      dup1\n      0x40\n      mstore\n      pop\n      dup2\n      add\n      swap1\n      tag_464\n      swap2\n      swap1\n      tag_116\n      jump\t// in\n    tag_464:\n        /* \"ZKSYNC/quickcalls.sol\":29174:29179  path2 */\n      dup2\n        /* \"ZKSYNC/quickcalls.sol\":29180:29181  0 */\n      0x00\n        /* \"ZKSYNC/quickcalls.sol\":29174:29182  path2[0] */\n      dup2\n      mload\n      dup2\n      lt\n      tag_466\n      jumpi\n      tag_466\n      tag_119\n      jump\t// in\n    tag_466:\n      0x20\n      mul\n      0x20\n      add\n      add\n        /* \"ZKSYNC/quickcalls.sol\":29174:29195  path2[0] = RA2.WETH() */\n      swap1\n      sub(shl(0xa0, 0x01), 0x01)\n      and\n      swap1\n      dup2\n      sub(shl(0xa0, 0x01), 0x01)\n      and\n      dup2\n      mstore\n      pop\n      pop\n        /* \"ZKSYNC/quickcalls.sol\":29229:29236  _TokenB */\n      dup13\n        /* \"ZKSYNC/quickcalls.sol\":29218:29223  path2 */\n      dup2\n        /* \"ZKSYNC/quickcalls.sol\":29224:29225  1 */\n      0x01\n        /* \"ZKSYNC/quickcalls.sol\":29218:29226  path2[1] */\n      dup2\n      mload\n      dup2\n      lt\n      tag_468\n      jumpi\n      tag_468\n      tag_119\n      jump\t// in\n    tag_468:\n      sub(shl(0xa0, 0x01), 0x01)\n        /* \"ZKSYNC/quickcalls.sol\":29218:29236  path2[1] = _TokenB */\n      swap3\n      dup4\n      and\n        /* \"ZKSYNC/quickcalls.sol\":29218:29226  path2[1] */\n      0x20\n      swap2\n      dup3\n      mul\n      swap3\n      swap1\n      swap3\n      add\n      add\n        /* \"ZKSYNC/quickcalls.sol\":29218:29236  path2[1] = _TokenB */\n      mstore\n        /* \"ZKSYNC/quickcalls.sol\":29259:29262  RA2 */\n      sload(0x09)\n        /* \"ZKSYNC/quickcalls.sol\":29259:29482  RA2.swapExactETHForTokensSupportingFeeOnTransferTokens{value: swapAmount} (\r... */\n      mload(0x40)\n      shl(0xe0, 0xb6f9de95)\n      dup2\n      mstore\n        /* \"ZKSYNC/quickcalls.sol\":29259:29262  RA2 */\n      swap2\n      and\n      swap1\n        /* \"ZKSYNC/quickcalls.sol\":29259:29313  RA2.swapExactETHForTokensSupportingFeeOnTransferTokens */\n      0xb6f9de95\n      swap1\n        /* \"ZKSYNC/quickcalls.sol\":29321:29331  swapAmount */\n      dup9\n      swap1\n        /* \"ZKSYNC/quickcalls.sol\":29259:29482  RA2.swapExactETHForTokensSupportingFeeOnTransferTokens{value: swapAmount} (\r... */\n      tag_469\n      swap1\n        /* \"ZKSYNC/quickcalls.sol\":29259:29262  RA2 */\n      0x00\n      swap1\n        /* \"ZKSYNC/quickcalls.sol\":29380:29385  path2 */\n      dup7\n      swap1\n        /* \"ZKSYNC/quickcalls.sol\":29416:29420  this */\n      address\n      swap1\n        /* \"ZKSYNC/quickcalls.sol\":29444:29459  block.timestamp */\n      timestamp\n      swap1\n        /* \"ZKSYNC/quickcalls.sol\":29259:29482  RA2.swapExactETHForTokensSupportingFeeOnTransferTokens{value: swapAmount} (\r... */\n      0x04\n      add\n      tag_123\n      jump\t// in\n    tag_469:\n      0x00\n      mload(0x40)\n      dup1\n      dup4\n      sub\n      dup2\n      dup6\n      dup9\n      dup1\n      extcodesize\n      iszero\n      dup1\n      iszero\n      tag_470\n      jumpi\n      0x00\n      dup1\n      revert\n    tag_470:\n      pop\n      gas\n      call\n      iszero\n      dup1\n      iszero\n      tag_472\n      jumpi\n      returndatasize\n      0x00\n      dup1\n      returndatacopy\n      revert(0x00, returndatasize)\n    tag_472:\n      pop\n      pop\n      pop\n      pop\n      pop\n        /* \"ZKSYNC/quickcalls.sol\":29017:29504  {\r... */\n      pop\n        /* \"ZKSYNC/quickcalls.sol\":28991:29504  if (_TokenB != bnbAddress){\r... */\n    tag_455:\n        /* \"ZKSYNC/quickcalls.sol\":28472:29533  {\r... */\n      pop\n      pop\n        /* \"ZKSYNC/quickcalls.sol\":28452:29533  if (swapAmount > 0) {\r... */\n    tag_438:\n        /* \"ZKSYNC/quickcalls.sol\":29595:29602  _TokenB */\n      dup10\n      sub(shl(0xa0, 0x01), 0x01)\n        /* \"ZKSYNC/quickcalls.sol\":29584:29602  _TokenH == _TokenB */\n      and\n        /* \"ZKSYNC/quickcalls.sol\":29584:29591  _TokenH */\n      dup13\n      sub(shl(0xa0, 0x01), 0x01)\n        /* \"ZKSYNC/quickcalls.sol\":29584:29602  _TokenH == _TokenB */\n      and\n      eq\n        /* \"ZKSYNC/quickcalls.sol\":29580:29759  if (_TokenH == _TokenB) {\r... */\n      iszero\n      tag_473\n      jumpi\n        /* \"ZKSYNC/quickcalls.sol\":29635:29645  Transfered */\n      dup7\n        /* \"ZKSYNC/quickcalls.sol\":29623:29645  postSwap1 = Transfered */\n      swap5\n      pop\n        /* \"ZKSYNC/quickcalls.sol\":29580:29759  if (_TokenH == _TokenB) {\r... */\n      jump(tag_474)\n    tag_473:\n        /* \"ZKSYNC/quickcalls.sol\":29735:29743  preSwap1 */\n      dup6\n        /* \"ZKSYNC/quickcalls.sol\":29711:29732  balanceCheck(_TokenB) */\n      tag_475\n        /* \"ZKSYNC/quickcalls.sol\":29724:29731  _TokenB */\n      dup12\n        /* \"ZKSYNC/quickcalls.sol\":29711:29723  balanceCheck */\n      tag_100\n        /* \"ZKSYNC/quickcalls.sol\":29711:29732  balanceCheck(_TokenB) */\n      jump\t// in\n    tag_475:\n        /* \"ZKSYNC/quickcalls.sol\":29711:29743  balanceCheck(_TokenB) - preSwap1 */\n      tag_476\n      swap2\n      swap1\n      tag_92\n      jump\t// in\n    tag_476:\n        /* \"ZKSYNC/quickcalls.sol\":29699:29743  postSwap1 = balanceCheck(_TokenB) - preSwap1 */\n      swap5\n      pop\n        /* \"ZKSYNC/quickcalls.sol\":29580:29759  if (_TokenH == _TokenB) {\r... */\n    tag_474:\n        /* \"ZKSYNC/quickcalls.sol\":29820:29841  balanceCheck(_TokenA) */\n      tag_477\n        /* \"ZKSYNC/quickcalls.sol\":29833:29840  _TokenA */\n      dup12\n        /* \"ZKSYNC/quickcalls.sol\":29820:29832  balanceCheck */\n      tag_100\n        /* \"ZKSYNC/quickcalls.sol\":29820:29841  balanceCheck(_TokenA) */\n      jump\t// in\n    tag_477:\n        /* \"ZKSYNC/quickcalls.sol\":29808:29841  preSwap2a = balanceCheck(_TokenA) */\n      swap4\n      pop\n        /* \"ZKSYNC/quickcalls.sol\":29972:29979  _TokenA */\n      dup11\n      sub(shl(0xa0, 0x01), 0x01)\n        /* \"ZKSYNC/quickcalls.sol\":29961:29979  _TokenH != _TokenA */\n      and\n        /* \"ZKSYNC/quickcalls.sol\":29961:29968  _TokenH */\n      dup13\n      sub(shl(0xa0, 0x01), 0x01)\n        /* \"ZKSYNC/quickcalls.sol\":29961:29979  _TokenH != _TokenA */\n      and\n      eq\n        /* \"ZKSYNC/quickcalls.sol\":29957:31623  if (_TokenH != _TokenA) {\r... */\n      tag_499\n      jumpi\n        /* \"ZKSYNC/quickcalls.sol\":30062:30072  FeePercent */\n      sload(0x06)\n        /* \"ZKSYNC/quickcalls.sol\":30055:30072  5000 - FeePercent */\n      tag_479\n      swap1\n        /* \"ZKSYNC/quickcalls.sol\":30055:30059  5000 */\n      0x1388\n        /* \"ZKSYNC/quickcalls.sol\":30055:30072  5000 - FeePercent */\n      tag_92\n      jump\t// in\n    tag_479:\n        /* \"ZKSYNC/quickcalls.sol\":30034:30051  postSwap1 / 10000 */\n      tag_480\n        /* \"ZKSYNC/quickcalls.sol\":30046:30051  10000 */\n      0x2710\n        /* \"ZKSYNC/quickcalls.sol\":30034:30043  postSwap1 */\n      dup8\n        /* \"ZKSYNC/quickcalls.sol\":30034:30051  postSwap1 / 10000 */\n      tag_96\n      jump\t// in\n    tag_480:\n        /* \"ZKSYNC/quickcalls.sol\":30034:30073  postSwap1 / 10000 * (5000 - FeePercent) */\n      tag_481\n      swap2\n      swap1\n      tag_94\n      jump\t// in\n    tag_481:\n        /* \"ZKSYNC/quickcalls.sol\":30128:30135  router2 */\n      sload(0x03)\n        /* \"ZKSYNC/quickcalls.sol\":30020:30074  swapAmount = (postSwap1 / 10000 * (5000 - FeePercent)) */\n      swap1\n      swap4\n      pop\n        /* \"ZKSYNC/quickcalls.sol\":30091:30136  checkAllowance1(_TokenB, swapAmount, router2) */\n      tag_482\n      swap1\n        /* \"ZKSYNC/quickcalls.sol\":30107:30114  _TokenB */\n      dup12\n      swap1\n        /* \"ZKSYNC/quickcalls.sol\":30020:30074  swapAmount = (postSwap1 / 10000 * (5000 - FeePercent)) */\n      dup6\n      swap1\n      sub(shl(0xa0, 0x01), 0x01)\n        /* \"ZKSYNC/quickcalls.sol\":30128:30135  router2 */\n      and\n        /* \"ZKSYNC/quickcalls.sol\":30091:30106  checkAllowance1 */\n      tag_149\n        /* \"ZKSYNC/quickcalls.sol\":30091:30136  checkAllowance1(_TokenB, swapAmount, router2) */\n      jump\t// in\n    tag_482:\n        /* \"ZKSYNC/quickcalls.sol\":30187:30197  bnbAddress */\n      sload(0x04)\n      sub(shl(0xa0, 0x01), 0x01)\n        /* \"ZKSYNC/quickcalls.sol\":30176:30197  _TokenB == bnbAddress */\n      dup12\n      dup2\n      and\n        /* \"ZKSYNC/quickcalls.sol\":30187:30197  bnbAddress */\n      swap2\n      and\n        /* \"ZKSYNC/quickcalls.sol\":30176:30197  _TokenB == bnbAddress */\n      eq\n        /* \"ZKSYNC/quickcalls.sol\":30172:31608  if (_TokenB == bnbAddress) {\r... */\n      iszero\n      tag_483\n      jumpi\n        /* \"ZKSYNC/quickcalls.sol\":30247:30263  new address[](2) */\n      0x40\n      dup1\n      mload\n        /* \"ZKSYNC/quickcalls.sol\":30261:30262  2 */\n      0x02\n        /* \"ZKSYNC/quickcalls.sol\":30247:30263  new address[](2) */\n      dup1\n      dup3\n      mstore\n      0x60\n      dup3\n      add\n      dup4\n      mstore\n        /* \"ZKSYNC/quickcalls.sol\":30222:30244  address[] memory path3 */\n      0x00\n      swap3\n        /* \"ZKSYNC/quickcalls.sol\":30247:30263  new address[](2) */\n      0x20\n      dup4\n      add\n      swap1\n      dup1\n      calldatasize\n      dup4\n      calldatacopy\n      pop\n      pop\n        /* \"ZKSYNC/quickcalls.sol\":30297:30300  RA2 */\n      sload(0x09)\n        /* \"ZKSYNC/quickcalls.sol\":30297:30307  RA2.WETH() */\n      0x40\n      dup1\n      mload\n      shl(0xe3, 0x15ab88c9)\n      dup2\n      mstore\n      swap1\n      mload\n        /* \"ZKSYNC/quickcalls.sol\":30222:30263  address[] memory path3 = new address[](2) */\n      swap4\n      swap5\n      pop\n      sub(shl(0xa0, 0x01), 0x01)\n        /* \"ZKSYNC/quickcalls.sol\":30297:30300  RA2 */\n      swap1\n      swap2\n      and\n      swap3\n        /* \"ZKSYNC/quickcalls.sol\":30297:30305  RA2.WETH */\n      0xad5c4648\n      swap3\n      pop\n        /* \"ZKSYNC/quickcalls.sol\":30297:30307  RA2.WETH() */\n      0x04\n      dup1\n      dup4\n      add\n      swap3\n      0x20\n      swap3\n      swap2\n      swap1\n      dup3\n      swap1\n      sub\n      add\n      dup2\n        /* \"ZKSYNC/quickcalls.sol\":30297:30300  RA2 */\n      dup7\n        /* \"ZKSYNC/quickcalls.sol\":30297:30307  RA2.WETH() */\n      dup1\n      extcodesize\n      iszero\n      dup1\n      iszero\n      tag_487\n      jumpi\n      0x00\n      dup1\n      revert\n    tag_487:\n      pop\n      gas\n      staticcall\n      iszero\n      dup1\n      iszero\n      tag_489\n      jumpi\n      returndatasize\n      0x00\n      dup1\n      returndatacopy\n      revert(0x00, returndatasize)\n    tag_489:\n      pop\n      pop\n      pop\n      pop\n      mload(0x40)\n      returndatasize\n      not(0x1f)\n      0x1f\n      dup3\n      add\n      and\n      dup3\n      add\n      dup1\n      0x40\n      mstore\n      pop\n      dup2\n      add\n      swap1\n      tag_490\n      swap2\n      swap1\n      tag_116\n      jump\t// in\n    tag_490:\n        /* \"ZKSYNC/quickcalls.sol\":30286:30291  path3 */\n      dup2\n        /* \"ZKSYNC/quickcalls.sol\":30292:30293  0 */\n      0x00\n        /* \"ZKSYNC/quickcalls.sol\":30286:30294  path3[0] */\n      dup2\n      mload\n      dup2\n      lt\n      tag_492\n      jumpi\n      tag_492\n      tag_119\n      jump\t// in\n    tag_492:\n      0x20\n      mul\n      0x20\n      add\n      add\n        /* \"ZKSYNC/quickcalls.sol\":30286:30307  path3[0] = RA2.WETH() */\n      swap1\n      sub(shl(0xa0, 0x01), 0x01)\n      and\n      swap1\n      dup2\n      sub(shl(0xa0, 0x01), 0x01)\n      and\n      dup2\n      mstore\n      pop\n      pop\n        /* \"ZKSYNC/quickcalls.sol\":30341:30348  _TokenA */\n      dup12\n        /* \"ZKSYNC/quickcalls.sol\":30330:30335  path3 */\n      dup2\n        /* \"ZKSYNC/quickcalls.sol\":30336:30337  1 */\n      0x01\n        /* \"ZKSYNC/quickcalls.sol\":30330:30338  path3[1] */\n      dup2\n      mload\n      dup2\n      lt\n      tag_494\n      jumpi\n      tag_494\n      tag_119\n      jump\t// in\n    tag_494:\n      sub(shl(0xa0, 0x01), 0x01)\n        /* \"ZKSYNC/quickcalls.sol\":30330:30348  path3[1] = _TokenA */\n      swap3\n      dup4\n      and\n        /* \"ZKSYNC/quickcalls.sol\":30330:30338  path3[1] */\n      0x20\n      swap2\n      dup3\n      mul\n      swap3\n      swap1\n      swap3\n      add\n      add\n        /* \"ZKSYNC/quickcalls.sol\":30330:30348  path3[1] = _TokenA */\n      mstore\n        /* \"ZKSYNC/quickcalls.sol\":30371:30374  RA2 */\n      sload(0x09)\n        /* \"ZKSYNC/quickcalls.sol\":30371:30594  RA2.swapExactETHForTokensSupportingFeeOnTransferTokens{value: swapAmount} (\r... */\n      mload(0x40)\n      shl(0xe0, 0xb6f9de95)\n      dup2\n      mstore\n        /* \"ZKSYNC/quickcalls.sol\":30371:30374  RA2 */\n      swap2\n      and\n      swap1\n        /* \"ZKSYNC/quickcalls.sol\":30371:30425  RA2.swapExactETHForTokensSupportingFeeOnTransferTokens */\n      0xb6f9de95\n      swap1\n        /* \"ZKSYNC/quickcalls.sol\":30433:30443  swapAmount */\n      dup7\n      swap1\n        /* \"ZKSYNC/quickcalls.sol\":30371:30594  RA2.swapExactETHForTokensSupportingFeeOnTransferTokens{value: swapAmount} (\r... */\n      tag_495\n      swap1\n        /* \"ZKSYNC/quickcalls.sol\":30371:30374  RA2 */\n      0x00\n      swap1\n        /* \"ZKSYNC/quickcalls.sol\":30492:30497  path3 */\n      dup7\n      swap1\n        /* \"ZKSYNC/quickcalls.sol\":30528:30532  this */\n      address\n      swap1\n        /* \"ZKSYNC/quickcalls.sol\":30556:30571  block.timestamp */\n      timestamp\n      swap1\n        /* \"ZKSYNC/quickcalls.sol\":30371:30594  RA2.swapExactETHForTokensSupportingFeeOnTransferTokens{value: swapAmount} (\r... */\n      0x04\n      add\n      tag_123\n      jump\t// in\n    tag_495:\n      0x00\n      mload(0x40)\n      dup1\n      dup4\n      sub\n      dup2\n      dup6\n      dup9\n      dup1\n      extcodesize\n      iszero\n      dup1\n      iszero\n      tag_496\n      jumpi\n      0x00\n      dup1\n      revert\n    tag_496:\n      pop\n      gas\n      call\n      iszero\n      dup1\n      iszero\n      tag_498\n      jumpi\n      returndatasize\n      0x00\n      dup1\n      returndatacopy\n      revert(0x00, returndatasize)\n    tag_498:\n      pop\n      pop\n      pop\n      pop\n      pop\n        /* \"ZKSYNC/quickcalls.sol\":30199:30618  {\r... */\n      pop\n        /* \"ZKSYNC/quickcalls.sol\":30172:31608  if (_TokenB == bnbAddress) {\r... */\n      jump(tag_499)\n    tag_483:\n        /* \"ZKSYNC/quickcalls.sol\":30679:30689  bnbAddress */\n      sload(0x04)\n        /* \"ZKSYNC/quickcalls.sol\":30647:30663  uint256 midswap2 */\n      0x00\n      swap1\n        /* \"ZKSYNC/quickcalls.sol\":30666:30690  balanceCheck(bnbAddress) */\n      tag_500\n      swap1\n      sub(shl(0xa0, 0x01), 0x01)\n        /* \"ZKSYNC/quickcalls.sol\":30679:30689  bnbAddress */\n      and\n        /* \"ZKSYNC/quickcalls.sol\":30666:30678  balanceCheck */\n      tag_100\n        /* \"ZKSYNC/quickcalls.sol\":30666:30690  balanceCheck(bnbAddress) */\n      jump\t// in\n    tag_500:\n        /* \"ZKSYNC/quickcalls.sol\":30738:30754  new address[](2) */\n      0x40\n      dup1\n      mload\n        /* \"ZKSYNC/quickcalls.sol\":30752:30753  2 */\n      0x02\n        /* \"ZKSYNC/quickcalls.sol\":30738:30754  new address[](2) */\n      dup1\n      dup3\n      mstore\n      0x60\n      dup3\n      add\n      dup4\n      mstore\n        /* \"ZKSYNC/quickcalls.sol\":30647:30690  uint256 midswap2 = balanceCheck(bnbAddress) */\n      swap3\n      swap4\n      pop\n        /* \"ZKSYNC/quickcalls.sol\":30713:30735  address[] memory path4 */\n      0x00\n      swap3\n        /* \"ZKSYNC/quickcalls.sol\":30738:30754  new address[](2) */\n      swap1\n      swap2\n      0x20\n      dup4\n      add\n      swap1\n      dup1\n      calldatasize\n      dup4\n      calldatacopy\n      add\n      swap1\n      pop\n      pop\n        /* \"ZKSYNC/quickcalls.sol\":30713:30754  address[] memory path4 = new address[](2) */\n      swap1\n      pop\n        /* \"ZKSYNC/quickcalls.sol\":30788:30795  _TokenB */\n      dup12\n        /* \"ZKSYNC/quickcalls.sol\":30777:30782  path4 */\n      dup2\n        /* \"ZKSYNC/quickcalls.sol\":30783:30784  0 */\n      0x00\n        /* \"ZKSYNC/quickcalls.sol\":30777:30785  path4[0] */\n      dup2\n      mload\n      dup2\n      lt\n      tag_505\n      jumpi\n      tag_505\n      tag_119\n      jump\t// in\n    tag_505:\n      sub(shl(0xa0, 0x01), 0x01)\n        /* \"ZKSYNC/quickcalls.sol\":30777:30795  path4[0] = _TokenB */\n      swap3\n      dup4\n      and\n        /* \"ZKSYNC/quickcalls.sol\":30777:30785  path4[0] */\n      0x20\n      swap2\n      dup3\n      mul\n      swap3\n      swap1\n      swap3\n      add\n      dup2\n      add\n        /* \"ZKSYNC/quickcalls.sol\":30777:30795  path4[0] = _TokenB */\n      swap2\n      swap1\n      swap2\n      mstore\n        /* \"ZKSYNC/quickcalls.sol\":30829:30832  RA2 */\n      sload(0x09)\n        /* \"ZKSYNC/quickcalls.sol\":30829:30839  RA2.WETH() */\n      0x40\n      dup1\n      mload\n      shl(0xe3, 0x15ab88c9)\n      dup2\n      mstore\n      swap1\n      mload\n        /* \"ZKSYNC/quickcalls.sol\":30829:30832  RA2 */\n      swap2\n      swap1\n      swap4\n      and\n      swap3\n        /* \"ZKSYNC/quickcalls.sol\":30829:30837  RA2.WETH */\n      0xad5c4648\n      swap3\n        /* \"ZKSYNC/quickcalls.sol\":30829:30839  RA2.WETH() */\n      0x04\n      dup1\n      dup4\n      add\n      swap4\n        /* \"ZKSYNC/quickcalls.sol\":30777:30785  path4[0] */\n      swap2\n      swap3\n        /* \"ZKSYNC/quickcalls.sol\":30829:30839  RA2.WETH() */\n      dup3\n      swap1\n      sub\n      add\n      dup2\n        /* \"ZKSYNC/quickcalls.sol\":30829:30832  RA2 */\n      dup7\n        /* \"ZKSYNC/quickcalls.sol\":30829:30839  RA2.WETH() */\n      dup1\n      extcodesize\n      iszero\n      dup1\n      iszero\n      tag_506\n      jumpi\n      0x00\n      dup1\n      revert\n    tag_506:\n      pop\n      gas\n      staticcall\n      iszero\n      dup1\n      iszero\n      tag_508\n      jumpi\n      returndatasize\n      0x00\n      dup1\n      returndatacopy\n      revert(0x00, returndatasize)\n    tag_508:\n      pop\n      pop\n      pop\n      pop\n      mload(0x40)\n      returndatasize\n      not(0x1f)\n      0x1f\n      dup3\n      add\n      and\n      dup3\n      add\n      dup1\n      0x40\n      mstore\n      pop\n      dup2\n      add\n      swap1\n      tag_509\n      swap2\n      swap1\n      tag_116\n      jump\t// in\n    tag_509:\n        /* \"ZKSYNC/quickcalls.sol\":30818:30823  path4 */\n      dup2\n        /* \"ZKSYNC/quickcalls.sol\":30824:30825  1 */\n      0x01\n        /* \"ZKSYNC/quickcalls.sol\":30818:30826  path4[1] */\n      dup2\n      mload\n      dup2\n      lt\n      tag_511\n      jumpi\n      tag_511\n      tag_119\n      jump\t// in\n    tag_511:\n      sub(shl(0xa0, 0x01), 0x01)\n        /* \"ZKSYNC/quickcalls.sol\":30818:30839  path4[1] = RA2.WETH() */\n      swap3\n      dup4\n      and\n        /* \"ZKSYNC/quickcalls.sol\":30818:30826  path4[1] */\n      0x20\n      swap2\n      dup3\n      mul\n      swap3\n      swap1\n      swap3\n      add\n      add\n        /* \"ZKSYNC/quickcalls.sol\":30818:30839  path4[1] = RA2.WETH() */\n      mstore\n        /* \"ZKSYNC/quickcalls.sol\":30862:30865  RA2 */\n      sload(0x09)\n        /* \"ZKSYNC/quickcalls.sol\":30862:31098  RA2.swapExactTokensForETHSupportingFeeOnTransferTokens(\r... */\n      mload(0x40)\n      shl(0xe0, 0x791ac947)\n      dup2\n      mstore\n        /* \"ZKSYNC/quickcalls.sol\":30862:30865  RA2 */\n      swap2\n      and\n      swap1\n        /* \"ZKSYNC/quickcalls.sol\":30862:30916  RA2.swapExactTokensForETHSupportingFeeOnTransferTokens */\n      0x791ac947\n      swap1\n        /* \"ZKSYNC/quickcalls.sol\":30862:31098  RA2.swapExactTokensForETHSupportingFeeOnTransferTokens(\r... */\n      tag_512\n      swap1\n        /* \"ZKSYNC/quickcalls.sol\":30939:30949  swapAmount */\n      dup9\n      swap1\n        /* \"ZKSYNC/quickcalls.sol\":30862:30865  RA2 */\n      0x00\n      swap1\n        /* \"ZKSYNC/quickcalls.sol\":30996:31001  path4 */\n      dup7\n      swap1\n        /* \"ZKSYNC/quickcalls.sol\":31032:31036  this */\n      address\n      swap1\n        /* \"ZKSYNC/quickcalls.sol\":31060:31075  block.timestamp */\n      timestamp\n      swap1\n        /* \"ZKSYNC/quickcalls.sol\":30862:31098  RA2.swapExactTokensForETHSupportingFeeOnTransferTokens(\r... */\n      0x04\n      add\n      tag_250\n      jump\t// in\n    tag_512:\n      0x00\n      mload(0x40)\n      dup1\n      dup4\n      sub\n      dup2\n      0x00\n      dup8\n      dup1\n      extcodesize\n      iszero\n      dup1\n      iszero\n      tag_513\n      jumpi\n      0x00\n      dup1\n      revert\n    tag_513:\n      pop\n      gas\n      call\n      iszero\n      dup1\n      iszero\n      tag_515\n      jumpi\n      returndatasize\n      0x00\n      dup1\n      returndatacopy\n      revert(0x00, returndatasize)\n    tag_515:\n      pop\n      pop\n        /* \"ZKSYNC/quickcalls.sol\":31169:31179  bnbAddress */\n      sload(0x04)\n        /* \"ZKSYNC/quickcalls.sol\":31183:31191  midswap2 */\n      dup5\n      swap3\n      pop\n        /* \"ZKSYNC/quickcalls.sol\":31156:31180  balanceCheck(bnbAddress) */\n      tag_516\n      swap2\n      pop\n      sub(shl(0xa0, 0x01), 0x01)\n        /* \"ZKSYNC/quickcalls.sol\":31169:31179  bnbAddress */\n      and\n        /* \"ZKSYNC/quickcalls.sol\":31156:31168  balanceCheck */\n      tag_100\n        /* \"ZKSYNC/quickcalls.sol\":31156:31180  balanceCheck(bnbAddress) */\n      jump\t// in\n    tag_516:\n        /* \"ZKSYNC/quickcalls.sol\":31156:31191  balanceCheck(bnbAddress) - midswap2 */\n      tag_517\n      swap2\n      swap1\n      tag_92\n      jump\t// in\n    tag_517:\n        /* \"ZKSYNC/quickcalls.sol\":31239:31255  new address[](2) */\n      0x40\n      dup1\n      mload\n        /* \"ZKSYNC/quickcalls.sol\":31253:31254  2 */\n      0x02\n        /* \"ZKSYNC/quickcalls.sol\":31239:31255  new address[](2) */\n      dup1\n      dup3\n      mstore\n      0x60\n      dup3\n      add\n      dup4\n      mstore\n        /* \"ZKSYNC/quickcalls.sol\":31143:31191  swapAmount = balanceCheck(bnbAddress) - midswap2 */\n      swap3\n      swap8\n      pop\n        /* \"ZKSYNC/quickcalls.sol\":31214:31236  address[] memory path5 */\n      0x00\n      swap3\n        /* \"ZKSYNC/quickcalls.sol\":31239:31255  new address[](2) */\n      swap1\n      swap2\n      0x20\n      dup4\n      add\n      swap1\n      dup1\n      calldatasize\n      dup4\n      calldatacopy\n      pop\n      pop\n        /* \"ZKSYNC/quickcalls.sol\":31289:31292  RA2 */\n      sload(0x09)\n        /* \"ZKSYNC/quickcalls.sol\":31289:31299  RA2.WETH() */\n      0x40\n      dup1\n      mload\n      shl(0xe3, 0x15ab88c9)\n      dup2\n      mstore\n      swap1\n      mload\n        /* \"ZKSYNC/quickcalls.sol\":31214:31255  address[] memory path5 = new address[](2) */\n      swap4\n      swap5\n      pop\n      sub(shl(0xa0, 0x01), 0x01)\n        /* \"ZKSYNC/quickcalls.sol\":31289:31292  RA2 */\n      swap1\n      swap2\n      and\n      swap3\n        /* \"ZKSYNC/quickcalls.sol\":31289:31297  RA2.WETH */\n      0xad5c4648\n      swap3\n      pop\n        /* \"ZKSYNC/quickcalls.sol\":31289:31299  RA2.WETH() */\n      0x04\n      dup1\n      dup4\n      add\n      swap3\n      0x20\n      swap3\n      swap2\n      swap1\n      dup3\n      swap1\n      sub\n      add\n      dup2\n        /* \"ZKSYNC/quickcalls.sol\":31289:31292  RA2 */\n      dup7\n        /* \"ZKSYNC/quickcalls.sol\":31289:31299  RA2.WETH() */\n      dup1\n      extcodesize\n      iszero\n      dup1\n      iszero\n      tag_521\n      jumpi\n      0x00\n      dup1\n      revert\n    tag_521:\n      pop\n      gas\n      staticcall\n      iszero\n      dup1\n      iszero\n      tag_523\n      jumpi\n      returndatasize\n      0x00\n      dup1\n      returndatacopy\n      revert(0x00, returndatasize)\n    tag_523:\n      pop\n      pop\n      pop\n      pop\n      mload(0x40)\n      returndatasize\n      not(0x1f)\n      0x1f\n      dup3\n      add\n      and\n      dup3\n      add\n      dup1\n      0x40\n      mstore\n      pop\n      dup2\n      add\n      swap1\n      tag_524\n      swap2\n      swap1\n      tag_116\n      jump\t// in\n    tag_524:\n        /* \"ZKSYNC/quickcalls.sol\":31278:31283  path5 */\n      dup2\n        /* \"ZKSYNC/quickcalls.sol\":31284:31285  0 */\n      0x00\n        /* \"ZKSYNC/quickcalls.sol\":31278:31286  path5[0] */\n      dup2\n      mload\n      dup2\n      lt\n      tag_526\n      jumpi\n      tag_526\n      tag_119\n      jump\t// in\n    tag_526:\n      0x20\n      mul\n      0x20\n      add\n      add\n        /* \"ZKSYNC/quickcalls.sol\":31278:31299  path5[0] = RA2.WETH() */\n      swap1\n      sub(shl(0xa0, 0x01), 0x01)\n      and\n      swap1\n      dup2\n      sub(shl(0xa0, 0x01), 0x01)\n      and\n      dup2\n      mstore\n      pop\n      pop\n        /* \"ZKSYNC/quickcalls.sol\":31333:31340  _TokenA */\n      dup14\n        /* \"ZKSYNC/quickcalls.sol\":31322:31327  path5 */\n      dup2\n        /* \"ZKSYNC/quickcalls.sol\":31328:31329  1 */\n      0x01\n        /* \"ZKSYNC/quickcalls.sol\":31322:31330  path5[1] */\n      dup2\n      mload\n      dup2\n      lt\n      tag_528\n      jumpi\n      tag_528\n      tag_119\n      jump\t// in\n    tag_528:\n      sub(shl(0xa0, 0x01), 0x01)\n        /* \"ZKSYNC/quickcalls.sol\":31322:31340  path5[1] = _TokenA */\n      swap3\n      dup4\n      and\n        /* \"ZKSYNC/quickcalls.sol\":31322:31330  path5[1] */\n      0x20\n      swap2\n      dup3\n      mul\n      swap3\n      swap1\n      swap3\n      add\n      add\n        /* \"ZKSYNC/quickcalls.sol\":31322:31340  path5[1] = _TokenA */\n      mstore\n        /* \"ZKSYNC/quickcalls.sol\":31363:31366  RA2 */\n      sload(0x09)\n        /* \"ZKSYNC/quickcalls.sol\":31363:31586  RA2.swapExactETHForTokensSupportingFeeOnTransferTokens{value: swapAmount} (\r... */\n      mload(0x40)\n      shl(0xe0, 0xb6f9de95)\n      dup2\n      mstore\n        /* \"ZKSYNC/quickcalls.sol\":31363:31366  RA2 */\n      swap2\n      and\n      swap1\n        /* \"ZKSYNC/quickcalls.sol\":31363:31417  RA2.swapExactETHForTokensSupportingFeeOnTransferTokens */\n      0xb6f9de95\n      swap1\n        /* \"ZKSYNC/quickcalls.sol\":31425:31435  swapAmount */\n      dup9\n      swap1\n        /* \"ZKSYNC/quickcalls.sol\":31363:31586  RA2.swapExactETHForTokensSupportingFeeOnTransferTokens{value: swapAmount} (\r... */\n      tag_529\n      swap1\n        /* \"ZKSYNC/quickcalls.sol\":31363:31366  RA2 */\n      0x00\n      swap1\n        /* \"ZKSYNC/quickcalls.sol\":31484:31489  path4 */\n      dup8\n      swap1\n        /* \"ZKSYNC/quickcalls.sol\":31520:31524  this */\n      address\n      swap1\n        /* \"ZKSYNC/quickcalls.sol\":31548:31563  block.timestamp */\n      timestamp\n      swap1\n        /* \"ZKSYNC/quickcalls.sol\":31363:31586  RA2.swapExactETHForTokensSupportingFeeOnTransferTokens{value: swapAmount} (\r... */\n      0x04\n      add\n      tag_123\n      jump\t// in\n    tag_529:\n      0x00\n      mload(0x40)\n      dup1\n      dup4\n      sub\n      dup2\n      dup6\n      dup9\n      dup1\n      extcodesize\n      iszero\n      dup1\n      iszero\n      tag_530\n      jumpi\n      0x00\n      dup1\n      revert\n    tag_530:\n      pop\n      gas\n      call\n      iszero\n      dup1\n      iszero\n      tag_532\n      jumpi\n      returndatasize\n      0x00\n      dup1\n      returndatacopy\n      revert(0x00, returndatasize)\n    tag_532:\n      pop\n      pop\n      pop\n      pop\n      pop\n        /* \"ZKSYNC/quickcalls.sol\":30624:31608  {\r... */\n      pop\n      pop\n      pop\n        /* \"ZKSYNC/quickcalls.sol\":30172:31608  if (_TokenB == bnbAddress) {\r... */\n    tag_499:\n        /* \"ZKSYNC/quickcalls.sol\":31733:31740  _TokenH */\n      dup12\n      sub(shl(0xa0, 0x01), 0x01)\n        /* \"ZKSYNC/quickcalls.sol\":31722:31740  _TokenA == _TokenH */\n      and\n        /* \"ZKSYNC/quickcalls.sol\":31722:31729  _TokenA */\n      dup12\n      sub(shl(0xa0, 0x01), 0x01)\n        /* \"ZKSYNC/quickcalls.sol\":31722:31740  _TokenA == _TokenH */\n      and\n      eq\n        /* \"ZKSYNC/quickcalls.sol\":31717:31981  if ( _TokenA == _TokenH) {\r... */\n      iszero\n      tag_533\n      jumpi\n      pop\n        /* \"ZKSYNC/quickcalls.sol\":31774:31783  preSwap2a */\n      dup3\n      swap1\n      pop\n        /* \"ZKSYNC/quickcalls.sol\":31814:31823  postSwap1 */\n      dup4\n        /* \"ZKSYNC/quickcalls.sol\":31717:31981  if ( _TokenA == _TokenH) {\r... */\n      jump(tag_534)\n    tag_533:\n        /* \"ZKSYNC/quickcalls.sol\":31897:31906  preSwap2a */\n      dup4\n        /* \"ZKSYNC/quickcalls.sol\":31873:31894  balanceCheck(_TokenA) */\n      tag_535\n        /* \"ZKSYNC/quickcalls.sol\":31886:31893  _TokenA */\n      dup13\n        /* \"ZKSYNC/quickcalls.sol\":31873:31885  balanceCheck */\n      tag_100\n        /* \"ZKSYNC/quickcalls.sol\":31873:31894  balanceCheck(_TokenA) */\n      jump\t// in\n    tag_535:\n        /* \"ZKSYNC/quickcalls.sol\":31873:31906  balanceCheck(_TokenA) - preSwap2a */\n      tag_536\n      swap2\n      swap1\n      tag_92\n      jump\t// in\n    tag_536:\n        /* \"ZKSYNC/quickcalls.sol\":31856:31906  LPTokenAAmount = balanceCheck(_TokenA) - preSwap2a */\n      swap2\n      pop\n        /* \"ZKSYNC/quickcalls.sol\":31961:31969  InitialB */\n      dup9\n        /* \"ZKSYNC/quickcalls.sol\":31937:31958  balanceCheck(_TokenB) */\n      tag_537\n        /* \"ZKSYNC/quickcalls.sol\":31950:31957  _TokenB */\n      dup12\n        /* \"ZKSYNC/quickcalls.sol\":31937:31949  balanceCheck */\n      tag_100\n        /* \"ZKSYNC/quickcalls.sol\":31937:31958  balanceCheck(_TokenB) */\n      jump\t// in\n    tag_537:\n        /* \"ZKSYNC/quickcalls.sol\":31937:31969  balanceCheck(_TokenB) - InitialB */\n      tag_538\n      swap2\n      swap1\n      tag_92\n      jump\t// in\n    tag_538:\n        /* \"ZKSYNC/quickcalls.sol\":31921:31969  QTTokenAmount = balanceCheck(_TokenB) - InitialB */\n      swap1\n      pop\n        /* \"ZKSYNC/quickcalls.sol\":31717:31981  if ( _TokenA == _TokenH) {\r... */\n    tag_534:\n        /* \"ZKSYNC/quickcalls.sol\":32042:32049  router2 */\n      sload(0x03)\n        /* \"ZKSYNC/quickcalls.sol\":32001:32050  checkAllowance1(_TokenA, LPTokenAAmount, router2) */\n      tag_539\n      swap1\n        /* \"ZKSYNC/quickcalls.sol\":32017:32024  _TokenA */\n      dup13\n      swap1\n        /* \"ZKSYNC/quickcalls.sol\":32026:32040  LPTokenAAmount */\n      dup5\n      swap1\n      sub(shl(0xa0, 0x01), 0x01)\n        /* \"ZKSYNC/quickcalls.sol\":32042:32049  router2 */\n      and\n        /* \"ZKSYNC/quickcalls.sol\":32001:32016  checkAllowance1 */\n      tag_149\n        /* \"ZKSYNC/quickcalls.sol\":32001:32050  checkAllowance1(_TokenA, LPTokenAAmount, router2) */\n      jump\t// in\n    tag_539:\n        /* \"ZKSYNC/quickcalls.sol\":32105:32112  router2 */\n      sload(0x03)\n        /* \"ZKSYNC/quickcalls.sol\":32065:32113  checkAllowance1(_TokenB, QTTokenAmount, router2) */\n      tag_540\n      swap1\n        /* \"ZKSYNC/quickcalls.sol\":32081:32088  _TokenB */\n      dup12\n      swap1\n        /* \"ZKSYNC/quickcalls.sol\":32090:32103  QTTokenAmount */\n      dup4\n      swap1\n      sub(shl(0xa0, 0x01), 0x01)\n        /* \"ZKSYNC/quickcalls.sol\":32105:32112  router2 */\n      and\n        /* \"ZKSYNC/quickcalls.sol\":32065:32080  checkAllowance1 */\n      tag_149\n        /* \"ZKSYNC/quickcalls.sol\":32065:32113  checkAllowance1(_TokenB, QTTokenAmount, router2) */\n      jump\t// in\n    tag_540:\n        /* \"ZKSYNC/quickcalls.sol\":32163:32173  bnbAddress */\n      sload(0x04)\n      sub(shl(0xa0, 0x01), 0x01)\n        /* \"ZKSYNC/quickcalls.sol\":32152:32173  _TokenB == bnbAddress */\n      dup12\n      dup2\n      and\n        /* \"ZKSYNC/quickcalls.sol\":32163:32173  bnbAddress */\n      swap2\n      and\n        /* \"ZKSYNC/quickcalls.sol\":32152:32173  _TokenB == bnbAddress */\n      eq\n        /* \"ZKSYNC/quickcalls.sol\":32148:32729  if (_TokenB == bnbAddress) {\r... */\n      iszero\n      tag_541\n      jumpi\n        /* \"ZKSYNC/quickcalls.sol\":32194:32197  RA2 */\n      sload(0x09)\n        /* \"ZKSYNC/quickcalls.sol\":32194:32417  RA2.addLiquidityETH{value: QTTokenAmount} (\r... */\n      mload(0x40)\n      shl(0xe0, 0xf305d719)\n      dup2\n      mstore\n      sub(shl(0xa0, 0x01), 0x01)\n        /* \"ZKSYNC/quickcalls.sol\":32194:32197  RA2 */\n      swap1\n      swap2\n      and\n      swap1\n        /* \"ZKSYNC/quickcalls.sol\":32194:32213  RA2.addLiquidityETH */\n      0xf305d719\n      swap1\n        /* \"ZKSYNC/quickcalls.sol\":32221:32234  QTTokenAmount */\n      dup4\n      swap1\n        /* \"ZKSYNC/quickcalls.sol\":32194:32417  RA2.addLiquidityETH{value: QTTokenAmount} (\r... */\n      tag_542\n      swap1\n        /* \"ZKSYNC/quickcalls.sol\":32255:32262  _TokenA */\n      dup16\n      swap1\n        /* \"ZKSYNC/quickcalls.sol\":32281:32295  LPTokenAAmount */\n      dup8\n      swap1\n        /* \"ZKSYNC/quickcalls.sol\":32194:32197  RA2 */\n      0x00\n      swap1\n      dup2\n      swap1\n        /* \"ZKSYNC/quickcalls.sol\":32354:32364  msg.sender */\n      caller\n      swap1\n        /* \"ZKSYNC/quickcalls.sol\":32383:32398  block.timestamp */\n      timestamp\n      swap1\n        /* \"ZKSYNC/quickcalls.sol\":32194:32417  RA2.addLiquidityETH{value: QTTokenAmount} (\r... */\n      0x04\n      add\n      tag_153\n      jump\t// in\n    tag_542:\n      0x60\n      mload(0x40)\n      dup1\n      dup4\n      sub\n      dup2\n      dup6\n      dup9\n      dup1\n      extcodesize\n      iszero\n      dup1\n      iszero\n      tag_543\n      jumpi\n      0x00\n      dup1\n      revert\n    tag_543:\n      pop\n      gas\n      call\n      iszero\n      dup1\n      iszero\n      tag_545\n      jumpi\n      returndatasize\n      0x00\n      dup1\n      returndatacopy\n      revert(0x00, returndatasize)\n    tag_545:\n      pop\n      pop\n      pop\n      pop\n      pop\n      mload(0x40)\n      returndatasize\n      not(0x1f)\n      0x1f\n      dup3\n      add\n      and\n      dup3\n      add\n      dup1\n      0x40\n      mstore\n      pop\n      dup2\n      add\n      swap1\n      tag_546\n      swap2\n      swap1\n      tag_158\n      jump\t// in\n    tag_546:\n      pop\n      pop\n      pop\n        /* \"ZKSYNC/quickcalls.sol\":32148:32729  if (_TokenB == bnbAddress) {\r... */\n      jump(tag_279)\n    tag_541:\n        /* \"ZKSYNC/quickcalls.sol\":32458:32461  RA2 */\n      sload(0x09)\n        /* \"ZKSYNC/quickcalls.sol\":32458:32713  RA2.addLiquidity(\r... */\n      mload(0x40)\n      shl(0xe8, 0xe8e337)\n      dup2\n      mstore\n      sub(shl(0xa0, 0x01), 0x01)\n        /* \"ZKSYNC/quickcalls.sol\":32458:32461  RA2 */\n      swap1\n      swap2\n      and\n      swap1\n        /* \"ZKSYNC/quickcalls.sol\":32458:32474  RA2.addLiquidity */\n      0xe8e33700\n      swap1\n        /* \"ZKSYNC/quickcalls.sol\":32458:32713  RA2.addLiquidity(\r... */\n      tag_548\n      swap1\n        /* \"ZKSYNC/quickcalls.sol\":32493:32500  _TokenA */\n      dup15\n      swap1\n        /* \"ZKSYNC/quickcalls.sol\":32519:32526  _TokenB */\n      dup15\n      swap1\n        /* \"ZKSYNC/quickcalls.sol\":32545:32559  LPTokenAAmount */\n      dup8\n      swap1\n        /* \"ZKSYNC/quickcalls.sol\":32578:32591  QTTokenAmount */\n      dup8\n      swap1\n        /* \"ZKSYNC/quickcalls.sol\":32458:32461  RA2 */\n      0x00\n      swap1\n      dup2\n      swap1\n        /* \"ZKSYNC/quickcalls.sol\":32650:32660  msg.sender */\n      caller\n      swap1\n        /* \"ZKSYNC/quickcalls.sol\":32679:32694  block.timestamp */\n      timestamp\n      swap1\n        /* \"ZKSYNC/quickcalls.sol\":32458:32713  RA2.addLiquidity(\r... */\n      0x04\n      add\n      tag_161\n      jump\t// in\n    tag_548:\n      0x60\n      mload(0x40)\n      dup1\n      dup4\n      sub\n      dup2\n      0x00\n      dup8\n      dup1\n      extcodesize\n      iszero\n      dup1\n      iszero\n      tag_549\n      jumpi\n      0x00\n      dup1\n      revert\n    tag_549:\n      pop\n      gas\n      call\n      iszero\n      dup1\n      iszero\n      tag_551\n      jumpi\n      returndatasize\n      0x00\n      dup1\n      returndatacopy\n      revert(0x00, returndatasize)\n    tag_551:\n      pop\n      pop\n      pop\n      pop\n      mload(0x40)\n      returndatasize\n      not(0x1f)\n      0x1f\n      dup3\n      add\n      and\n      dup3\n      add\n      dup1\n      0x40\n      mstore\n      pop\n      dup2\n      add\n      swap1\n      tag_552\n      swap2\n      swap1\n      tag_158\n      jump\t// in\n    tag_552:\n      pop\n      pop\n      pop\n        /* \"ZKSYNC/quickcalls.sol\":32757:32765  treasury */\n      sload(0x07)\n        /* \"ZKSYNC/quickcalls.sol\":32740:32752  bool success */\n      0x00\n      swap1\n      sub(shl(0xa0, 0x01), 0x01)\n        /* \"ZKSYNC/quickcalls.sol\":32757:32765  treasury */\n      and\n        /* \"ZKSYNC/quickcalls.sol\":32777:32798  address(this).balance */\n      selfbalance\n        /* \"ZKSYNC/quickcalls.sol\":32740:32752  bool success */\n      dup3\n        /* \"ZKSYNC/quickcalls.sol\":32800:32812  new bytes(0) */\n      jump(tag_300)\n        /* \"ZKSYNC/quickcalls.sol\":20271:20462  function _transferOwnership(address newOwner) internal virtual {\r... */\n    tag_191:\n        /* \"ZKSYNC/quickcalls.sol\":20345:20361  address oldOwner */\n      0x00\n        /* \"ZKSYNC/quickcalls.sol\":20364:20370  _owner */\n      dup1\n      sload\n      sub(shl(0xa0, 0x01), 0x01)\n        /* \"ZKSYNC/quickcalls.sol\":20381:20398  _owner = newOwner */\n      dup4\n      dup2\n      and\n      not(sub(shl(0xa0, 0x01), 0x01))\n      dup4\n      and\n      dup2\n      or\n      dup5\n      sstore\n        /* \"ZKSYNC/quickcalls.sol\":20414:20454  OwnershipTransferred(oldOwner, newOwner) */\n      mload(0x40)\n        /* \"ZKSYNC/quickcalls.sol\":20364:20370  _owner */\n      swap2\n      swap1\n      swap3\n      and\n      swap3\n      dup4\n      swap2\n        /* \"ZKSYNC/quickcalls.sol\":20414:20454  OwnershipTransferred(oldOwner, newOwner) */\n      0x8be0079c531659141344cd1fd0a4f28419497f9722a3daafe3b4186f6b6457e0\n      swap2\n        /* \"ZKSYNC/quickcalls.sol\":20345:20361  address oldOwner */\n      swap1\n        /* \"ZKSYNC/quickcalls.sol\":20414:20454  OwnershipTransferred(oldOwner, newOwner) */\n      log3\n        /* \"ZKSYNC/quickcalls.sol\":20334:20462  {\r... */\n      pop\n        /* \"ZKSYNC/quickcalls.sol\":20271:20462  function _transferOwnership(address newOwner) internal virtual {\r... */\n      pop\n      jump\t// out\n        /* \"ZKSYNC/quickcalls.sol\":13969:14217  function safeTransferFrom(\r... */\n    tag_214:\n        /* \"ZKSYNC/quickcalls.sol\":14140:14208  abi.encodeWithSelector(token.transferFrom.selector, from, to, value) */\n      mload(0x40)\n      sub(shl(0xa0, 0x01), 0x01)\n        /* \"#utility.yul\":8077:8092   */\n      dup1\n      dup6\n      and\n        /* \"ZKSYNC/quickcalls.sol\":14140:14208  abi.encodeWithSelector(token.transferFrom.selector, from, to, value) */\n      0x24\n      dup4\n      add\n        /* \"#utility.yul\":8059:8093   */\n      mstore\n        /* \"#utility.yul\":8129:8144   */\n      dup4\n      and\n        /* \"#utility.yul\":8109:8127   */\n      0x44\n      dup3\n      add\n        /* \"#utility.yul\":8102:8145   */\n      mstore\n        /* \"#utility.yul\":8161:8179   */\n      0x64\n      dup2\n      add\n        /* \"#utility.yul\":8154:8188   */\n      dup3\n      swap1\n      mstore\n        /* \"ZKSYNC/quickcalls.sol\":14113:14209  _callOptionalReturn(token, abi.encodeWithSelector(token.transferFrom.selector, from, to, value)) */\n      tag_413\n      swap1\n        /* \"ZKSYNC/quickcalls.sol\":14133:14138  token */\n      dup6\n      swap1\n      shl(0xe0, 0x23b872dd)\n        /* \"ZKSYNC/quickcalls.sol\":14163:14190  token.transferFrom.selector */\n      swap1\n        /* \"#utility.yul\":7994:8012   */\n      0x84\n      add\n        /* \"ZKSYNC/quickcalls.sol\":14140:14208  abi.encodeWithSelector(token.transferFrom.selector, from, to, value) */\n    tag_566:\n      0x40\n      dup1\n      mload\n      not(0x1f)\n      dup2\n      dup5\n      sub\n      add\n      dup2\n      mstore\n      swap2\n      swap1\n      mstore\n      0x20\n      dup2\n      add\n      dup1\n      mload\n      sub(shl(0xe0, 0x01), 0x01)\n      and\n      not(sub(shl(0xe0, 0x01), 0x01))\n      swap1\n      swap4\n      and\n      swap3\n      swap1\n      swap3\n      or\n      swap1\n      swap2\n      mstore\n        /* \"ZKSYNC/quickcalls.sol\":14113:14132  _callOptionalReturn */\n      tag_568\n        /* \"ZKSYNC/quickcalls.sol\":14113:14209  _callOptionalReturn(token, abi.encodeWithSelector(token.transferFrom.selector, from, to, value)) */\n      jump\t// in\n        /* \"ZKSYNC/quickcalls.sol\":41553:41659  function returnBNB(uint256 amount) private {\r... */\n    tag_278:\n        /* \"ZKSYNC/quickcalls.sol\":41611:41647  payable(msg.sender).transfer(amount) */\n      mload(0x40)\n        /* \"ZKSYNC/quickcalls.sol\":41619:41629  msg.sender */\n      caller\n      swap1\n        /* \"ZKSYNC/quickcalls.sol\":41611:41647  payable(msg.sender).transfer(amount) */\n      dup3\n      iszero\n      0x08fc\n      mul\n      swap1\n        /* \"ZKSYNC/quickcalls.sol\":41640:41646  amount */\n      dup4\n      swap1\n        /* \"ZKSYNC/quickcalls.sol\":41611:41647  payable(msg.sender).transfer(amount) */\n      0x00\n      dup2\n      dup2\n      dup2\n        /* \"ZKSYNC/quickcalls.sol\":41640:41646  amount */\n      dup6\n        /* \"ZKSYNC/quickcalls.sol\":41619:41629  msg.sender */\n      dup9\n        /* \"ZKSYNC/quickcalls.sol\":41611:41647  payable(msg.sender).transfer(amount) */\n      dup9\n      call\n      swap4\n      pop\n      pop\n      pop\n      pop\n      iszero\n      dup1\n      iszero\n      tag_181\n      jumpi\n      returndatasize\n      0x00\n      dup1\n      returndatacopy\n      revert(0x00, returndatasize)\n        /* \"ZKSYNC/quickcalls.sol\":13750:13961  function safeTransfer(\r... */\n    tag_298:\n        /* \"ZKSYNC/quickcalls.sol\":13894:13952  abi.encodeWithSelector(token.transfer.selector, to, value) */\n      mload(0x40)\n      sub(shl(0xa0, 0x01), 0x01)\n        /* \"#utility.yul\":9849:9881   */\n      dup4\n      and\n        /* \"ZKSYNC/quickcalls.sol\":13894:13952  abi.encodeWithSelector(token.transfer.selector, to, value) */\n      0x24\n      dup3\n      add\n        /* \"#utility.yul\":9831:9882   */\n      mstore\n        /* \"#utility.yul\":9898:9916   */\n      0x44\n      dup2\n      add\n        /* \"#utility.yul\":9891:9925   */\n      dup3\n      swap1\n      mstore\n        /* \"ZKSYNC/quickcalls.sol\":13867:13953  _callOptionalReturn(token, abi.encodeWithSelector(token.transfer.selector, to, value)) */\n      tag_407\n      swap1\n        /* \"ZKSYNC/quickcalls.sol\":13887:13892  token */\n      dup5\n      swap1\n      shl(0xe0, 0xa9059cbb)\n        /* \"ZKSYNC/quickcalls.sol\":13917:13940  token.transfer.selector */\n      swap1\n        /* \"#utility.yul\":9804:9822   */\n      0x64\n      add\n        /* \"ZKSYNC/quickcalls.sol\":13894:13952  abi.encodeWithSelector(token.transfer.selector, to, value) */\n      tag_566\n        /* \"#utility.yul\":9657:9931   */\n      jump\n        /* \"ZKSYNC/quickcalls.sol\":39164:39921  function swapExactTokensForETHSupportingFeeOnTransferTokens(\r... */\n    tag_342:\n        /* \"ZKSYNC/quickcalls.sol\":39408:39410  RA */\n      0x08\n        /* \"ZKSYNC/quickcalls.sol\":39408:39438  RA = routerAddress(swapRouter) */\n      dup1\n      sload\n      not(sub(shl(0xa0, 0x01), 0x01))\n      and\n      sub(shl(0xa0, 0x01), 0x01)\n      dup4\n      and\n      swap1\n      dup2\n      or\n      swap1\n      swap2\n      sstore\n        /* \"ZKSYNC/quickcalls.sol\":39464:39473  RA.WETH() */\n      0x40\n      dup1\n      mload\n      shl(0xe3, 0x15ab88c9)\n      dup2\n      mstore\n      swap1\n      mload\n      0x00\n      swap3\n        /* \"ZKSYNC/quickcalls.sol\":39408:39438  RA = routerAddress(swapRouter) */\n      swap2\n        /* \"ZKSYNC/quickcalls.sol\":39464:39471  RA.WETH */\n      0xad5c4648\n      swap2\n        /* \"ZKSYNC/quickcalls.sol\":39464:39473  RA.WETH() */\n      0x04\n      dup1\n      dup4\n      add\n      swap3\n      0x20\n      swap3\n      swap2\n      swap1\n      dup3\n      swap1\n      sub\n      add\n      dup2\n        /* \"ZKSYNC/quickcalls.sol\":39408:39438  RA = routerAddress(swapRouter) */\n      dup7\n        /* \"ZKSYNC/quickcalls.sol\":39464:39473  RA.WETH() */\n      dup1\n      extcodesize\n      iszero\n      dup1\n      iszero\n      tag_576\n      jumpi\n      0x00\n      dup1\n      revert\n    tag_576:\n      pop\n      gas\n      staticcall\n      iszero\n      dup1\n      iszero\n      tag_578\n      jumpi\n      returndatasize\n      0x00\n      dup1\n      returndatacopy\n      revert(0x00, returndatasize)\n    tag_578:\n      pop\n      pop\n      pop\n      pop\n      mload(0x40)\n      returndatasize\n      not(0x1f)\n      0x1f\n      dup3\n      add\n      and\n      dup3\n      add\n      dup1\n      0x40\n      mstore\n      pop\n      dup2\n      add\n      swap1\n      tag_579\n      swap2\n      swap1\n      tag_116\n      jump\t// in\n    tag_579:\n        /* \"ZKSYNC/quickcalls.sol\":39449:39473  address WETH = RA.WETH() */\n      swap1\n      pop\n        /* \"ZKSYNC/quickcalls.sol\":39484:39619  TransferHelper.safeTransferFrom(\r... */\n      tag_580\n        /* \"ZKSYNC/quickcalls.sol\":39530:39534  path */\n      dup5\n        /* \"ZKSYNC/quickcalls.sol\":39535:39536  0 */\n      0x00\n        /* \"ZKSYNC/quickcalls.sol\":39530:39537  path[0] */\n      dup2\n      mload\n      dup2\n      lt\n      tag_582\n      jumpi\n      tag_582\n      tag_119\n      jump\t// in\n    tag_582:\n      0x20\n      mul\n      0x20\n      add\n      add\n      mload\n        /* \"ZKSYNC/quickcalls.sol\":39539:39549  msg.sender */\n      caller\n        /* \"ZKSYNC/quickcalls.sol\":39551:39598  ILibrary.pairFor(swapFactory, path[0], path[1]) */\n      tag_583\n        /* \"ZKSYNC/quickcalls.sol\":39568:39579  swapFactory */\n      dup7\n        /* \"ZKSYNC/quickcalls.sol\":39581:39585  path */\n      dup9\n        /* \"ZKSYNC/quickcalls.sol\":39586:39587  0 */\n      0x00\n        /* \"ZKSYNC/quickcalls.sol\":39581:39588  path[0] */\n      dup2\n      mload\n      dup2\n      lt\n      tag_585\n      jumpi\n      tag_585\n      tag_119\n      jump\t// in\n    tag_585:\n      0x20\n      mul\n      0x20\n      add\n      add\n      mload\n        /* \"ZKSYNC/quickcalls.sol\":39590:39594  path */\n      dup10\n        /* \"ZKSYNC/quickcalls.sol\":39595:39596  1 */\n      0x01\n        /* \"ZKSYNC/quickcalls.sol\":39590:39597  path[1] */\n      dup2\n      mload\n      dup2\n      lt\n      tag_587\n      jumpi\n      tag_587\n      tag_119\n      jump\t// in\n    tag_587:\n      0x20\n      mul\n      0x20\n      add\n      add\n      mload\n        /* \"ZKSYNC/quickcalls.sol\":39551:39567  ILibrary.pairFor */\n      tag_588\n        /* \"ZKSYNC/quickcalls.sol\":39551:39598  ILibrary.pairFor(swapFactory, path[0], path[1]) */\n      jump\t// in\n    tag_583:\n        /* \"ZKSYNC/quickcalls.sol\":39600:39608  amountIn */\n      dup10\n        /* \"ZKSYNC/quickcalls.sol\":39484:39515  TransferHelper.safeTransferFrom */\n      tag_589\n        /* \"ZKSYNC/quickcalls.sol\":39484:39619  TransferHelper.safeTransferFrom(\r... */\n      jump\t// in\n    tag_580:\n        /* \"ZKSYNC/quickcalls.sol\":39630:39710  _swapSupportingFeeOnTransferTokens(path, address(this), swapFactory, swapRouter) */\n      tag_590\n        /* \"ZKSYNC/quickcalls.sol\":39665:39669  path */\n      dup5\n        /* \"ZKSYNC/quickcalls.sol\":39679:39683  this */\n      address\n        /* \"ZKSYNC/quickcalls.sol\":39686:39697  swapFactory */\n      dup6\n        /* \"ZKSYNC/quickcalls.sol\":39699:39709  swapRouter */\n      dup6\n        /* \"ZKSYNC/quickcalls.sol\":39630:39664  _swapSupportingFeeOnTransferTokens */\n      tag_591\n        /* \"ZKSYNC/quickcalls.sol\":39630:39710  _swapSupportingFeeOnTransferTokens(path, address(this), swapFactory, swapRouter) */\n      jump\t// in\n    tag_590:\n        /* \"ZKSYNC/quickcalls.sol\":39738:39775  IERC20(WETH).balanceOf(address(this)) */\n      mload(0x40)\n      shl(0xe0, 0x70a08231)\n      dup2\n      mstore\n        /* \"ZKSYNC/quickcalls.sol\":39769:39773  this */\n      address\n        /* \"ZKSYNC/quickcalls.sol\":39738:39775  IERC20(WETH).balanceOf(address(this)) */\n      0x04\n      dup3\n      add\n        /* \"#utility.yul\":7448:7499   */\n      mstore\n        /* \"ZKSYNC/quickcalls.sol\":39721:39735  uint amountOut */\n      0x00\n      swap1\n      sub(shl(0xa0, 0x01), 0x01)\n        /* \"ZKSYNC/quickcalls.sol\":39738:39760  IERC20(WETH).balanceOf */\n      dup4\n      and\n      swap1\n      0x70a08231\n      swap1\n        /* \"#utility.yul\":7421:7439   */\n      0x24\n      add\n        /* \"ZKSYNC/quickcalls.sol\":39738:39775  IERC20(WETH).balanceOf(address(this)) */\n      0x20\n      mload(0x40)\n      dup1\n      dup4\n      sub\n      dup2\n      dup7\n      dup1\n      extcodesize\n      iszero\n      dup1\n      iszero\n      tag_593\n      jumpi\n      0x00\n      dup1\n      revert\n    tag_593:\n      pop\n      gas\n      staticcall\n      iszero\n      dup1\n      iszero\n      tag_595\n      jumpi\n      returndatasize\n      0x00\n      dup1\n      returndatacopy\n      revert(0x00, returndatasize)\n    tag_595:\n      pop\n      pop\n      pop\n      pop\n      mload(0x40)\n      returndatasize\n      not(0x1f)\n      0x1f\n      dup3\n      add\n      and\n      dup3\n      add\n      dup1\n      0x40\n      mstore\n      pop\n      dup2\n      add\n      swap1\n      tag_596\n      swap2\n      swap1\n      tag_223\n      jump\t// in\n    tag_596:\n        /* \"ZKSYNC/quickcalls.sol\":39721:39775  uint amountOut = IERC20(WETH).balanceOf(address(this)) */\n      swap1\n      pop\n        /* \"ZKSYNC/quickcalls.sol\":39807:39819  amountOutMin */\n      dup6\n        /* \"ZKSYNC/quickcalls.sol\":39794:39803  amountOut */\n      dup2\n        /* \"ZKSYNC/quickcalls.sol\":39794:39819  amountOut >= amountOutMin */\n      lt\n      iszero\n        /* \"ZKSYNC/quickcalls.sol\":39786:39869  require(amountOut >= amountOutMin, 'FarmageddonRouter: INSUFFICIENT_OUTPUT_AMOUNT') */\n      tag_597\n      jumpi\n      mload(0x40)\n      shl(0xe5, 0x461bcd)\n      dup2\n      mstore\n        /* \"#utility.yul\":13979:13981   */\n      0x20\n        /* \"ZKSYNC/quickcalls.sol\":39786:39869  require(amountOut >= amountOutMin, 'FarmageddonRouter: INSUFFICIENT_OUTPUT_AMOUNT') */\n      0x04\n      dup3\n      add\n        /* \"#utility.yul\":13961:13982   */\n      mstore\n        /* \"#utility.yul\":14018:14020   */\n      0x2d\n        /* \"#utility.yul\":13998:14016   */\n      0x24\n      dup3\n      add\n        /* \"#utility.yul\":13991:14021   */\n      mstore\n        /* \"#utility.yul\":14057:14091   */\n      0x4661726d61676564646f6e526f757465723a20494e53554646494349454e545f\n        /* \"#utility.yul\":14037:14055   */\n      0x44\n      dup3\n      add\n        /* \"#utility.yul\":14030:14092   */\n      mstore\n      shl(0x9a, 0x13d55514155517d05353d55395)\n        /* \"#utility.yul\":14108:14126   */\n      0x64\n      dup3\n      add\n        /* \"#utility.yul\":14101:14144   */\n      mstore\n        /* \"#utility.yul\":14161:14180   */\n      0x84\n      add\n        /* \"ZKSYNC/quickcalls.sol\":39786:39869  require(amountOut >= amountOutMin, 'FarmageddonRouter: INSUFFICIENT_OUTPUT_AMOUNT') */\n      tag_175\n        /* \"#utility.yul\":13777:14186   */\n      jump\n        /* \"ZKSYNC/quickcalls.sol\":39786:39869  require(amountOut >= amountOutMin, 'FarmageddonRouter: INSUFFICIENT_OUTPUT_AMOUNT') */\n    tag_597:\n        /* \"ZKSYNC/quickcalls.sol\":39880:39911  IWETH(WETH).withdraw(amountOut) */\n      mload(0x40)\n      shl(0xe0, 0x2e1a7d4d)\n      dup2\n      mstore\n      0x04\n      dup2\n      add\n        /* \"#utility.yul\":16675:16700   */\n      dup3\n      swap1\n      mstore\n      sub(shl(0xa0, 0x01), 0x01)\n        /* \"ZKSYNC/quickcalls.sol\":39880:39900  IWETH(WETH).withdraw */\n      dup4\n      and\n      swap1\n      0x2e1a7d4d\n      swap1\n        /* \"#utility.yul\":16648:16666   */\n      0x24\n      add\n        /* \"ZKSYNC/quickcalls.sol\":39880:39911  IWETH(WETH).withdraw(amountOut) */\n      0x00\n      mload(0x40)\n      dup1\n      dup4\n      sub\n      dup2\n      0x00\n      dup8\n      dup1\n      extcodesize\n      iszero\n      dup1\n      iszero\n      tag_601\n      jumpi\n      0x00\n      dup1\n      revert\n    tag_601:\n      pop\n      gas\n      call\n      iszero\n      dup1\n      iszero\n      tag_603\n      jumpi\n      returndatasize\n      0x00\n      dup1\n      returndatacopy\n      revert(0x00, returndatasize)\n    tag_603:\n      pop\n      pop\n      pop\n      pop\n        /* \"ZKSYNC/quickcalls.sol\":39397:39921  {\r... */\n      pop\n      pop\n        /* \"ZKSYNC/quickcalls.sol\":39164:39921  function swapExactTokensForETHSupportingFeeOnTransferTokens(\r... */\n      pop\n      pop\n      pop\n      pop\n      pop\n      jump\t// out\n        /* \"ZKSYNC/quickcalls.sol\":16323:17039  function _callOptionalReturn(IERC20 token, bytes memory data) private {\r... */\n    tag_568:\n        /* \"ZKSYNC/quickcalls.sol\":16747:16770  bytes memory returndata */\n      0x00\n        /* \"ZKSYNC/quickcalls.sol\":16773:16842  address(token).functionCall(data, \"SafeERC20: low-level call failed\") */\n      tag_605\n        /* \"ZKSYNC/quickcalls.sol\":16801:16805  data */\n      dup3\n        /* \"ZKSYNC/quickcalls.sol\":16773:16842  address(token).functionCall(data, \"SafeERC20: low-level call failed\") */\n      mload(0x40)\n      dup1\n      0x40\n      add\n      0x40\n      mstore\n      dup1\n      0x20\n      dup2\n      mstore\n      0x20\n      add\n      0x5361666545524332303a206c6f772d6c6576656c2063616c6c206661696c6564\n      dup2\n      mstore\n      pop\n        /* \"ZKSYNC/quickcalls.sol\":16781:16786  token */\n      dup6\n      sub(shl(0xa0, 0x01), 0x01)\n        /* \"ZKSYNC/quickcalls.sol\":16773:16800  address(token).functionCall */\n      and\n      tag_606\n      swap1\n        /* \"ZKSYNC/quickcalls.sol\":16773:16842  address(token).functionCall(data, \"SafeERC20: low-level call failed\") */\n      swap3\n      swap2\n      swap1\n      0xffffffff\n      and\n      jump\t// in\n    tag_605:\n        /* \"ZKSYNC/quickcalls.sol\":16857:16874  returndata.length */\n      dup1\n      mload\n        /* \"ZKSYNC/quickcalls.sol\":16747:16842  bytes memory returndata = address(token).functionCall(data, \"SafeERC20: low-level call failed\") */\n      swap1\n      swap2\n      pop\n        /* \"ZKSYNC/quickcalls.sol\":16857:16878  returndata.length > 0 */\n      iszero\n        /* \"ZKSYNC/quickcalls.sol\":16853:17032  if (returndata.length > 0) {\r... */\n      tag_407\n      jumpi\n        /* \"ZKSYNC/quickcalls.sol\":16954:16964  returndata */\n      dup1\n        /* \"ZKSYNC/quickcalls.sol\":16943:16973  abi.decode(returndata, (bool)) */\n      dup1\n      0x20\n      add\n      swap1\n      mload\n      dup2\n      add\n      swap1\n      tag_608\n      swap2\n      swap1\n      tag_414\n      jump\t// in\n    tag_608:\n        /* \"ZKSYNC/quickcalls.sol\":16935:17020  require(abi.decode(returndata, (bool)), \"SafeERC20: ERC20 operation did not succeed\") */\n      tag_407\n      jumpi\n      mload(0x40)\n      shl(0xe5, 0x461bcd)\n      dup2\n      mstore\n        /* \"#utility.yul\":15915:15917   */\n      0x20\n        /* \"ZKSYNC/quickcalls.sol\":16935:17020  require(abi.decode(returndata, (bool)), \"SafeERC20: ERC20 operation did not succeed\") */\n      0x04\n      dup3\n      add\n        /* \"#utility.yul\":15897:15918   */\n      mstore\n        /* \"#utility.yul\":15954:15956   */\n      0x2a\n        /* \"#utility.yul\":15934:15952   */\n      0x24\n      dup3\n      add\n        /* \"#utility.yul\":15927:15957   */\n      mstore\n        /* \"#utility.yul\":15993:16027   */\n      0x5361666545524332303a204552433230206f7065726174696f6e20646964206e\n        /* \"#utility.yul\":15973:15991   */\n      0x44\n      dup3\n      add\n        /* \"#utility.yul\":15966:16028   */\n      mstore\n      shl(0xb2, 0x1bdd081cdd58d8d95959)\n        /* \"#utility.yul\":16044:16062   */\n      0x64\n      dup3\n      add\n        /* \"#utility.yul\":16037:16077   */\n      mstore\n        /* \"#utility.yul\":16094:16113   */\n      0x84\n      add\n        /* \"ZKSYNC/quickcalls.sol\":16935:17020  require(abi.decode(returndata, (bool)), \"SafeERC20: ERC20 operation did not succeed\") */\n      tag_175\n        /* \"#utility.yul\":15713:16119   */\n      jump\n        /* \"ZKSYNC/quickcalls.sol\":1412:1581  function pairFor(address factory, address tokenA, address tokenB) internal view returns (address pair) {\r... */\n    tag_588:\n        /* \"ZKSYNC/quickcalls.sol\":1533:1573  IFactory(factory).getPair(tokenA,tokenB) */\n      mload(0x40)\n      shl(0xe0, 0xe6a43905)\n      dup2\n      mstore\n      sub(shl(0xa0, 0x01), 0x01)\n        /* \"#utility.yul\":7740:7755   */\n      dup4\n      dup2\n      and\n        /* \"ZKSYNC/quickcalls.sol\":1533:1573  IFactory(factory).getPair(tokenA,tokenB) */\n      0x04\n      dup4\n      add\n        /* \"#utility.yul\":7722:7756   */\n      mstore\n        /* \"#utility.yul\":7792:7807   */\n      dup3\n      dup2\n      and\n        /* \"#utility.yul\":7772:7790   */\n      0x24\n      dup4\n      add\n        /* \"#utility.yul\":7765:7808   */\n      mstore\n        /* \"ZKSYNC/quickcalls.sol\":1501:1513  address pair */\n      0x00\n      swap2\n        /* \"ZKSYNC/quickcalls.sol\":1533:1558  IFactory(factory).getPair */\n      swap1\n      dup6\n      and\n      swap1\n      0xe6a43905\n      swap1\n        /* \"#utility.yul\":7657:7675   */\n      0x44\n      add\n        /* \"ZKSYNC/quickcalls.sol\":1533:1573  IFactory(factory).getPair(tokenA,tokenB) */\n      0x20\n      mload(0x40)\n      dup1\n      dup4\n      sub\n      dup2\n      dup7\n      dup1\n      extcodesize\n      iszero\n      dup1\n      iszero\n      tag_614\n      jumpi\n      0x00\n      dup1\n      revert\n    tag_614:\n      pop\n      gas\n      staticcall\n      iszero\n      dup1\n      iszero\n      tag_616\n      jumpi\n      returndatasize\n      0x00\n      dup1\n      returndatacopy\n      revert(0x00, returndatasize)\n    tag_616:\n      pop\n      pop\n      pop\n      pop\n      mload(0x40)\n      returndatasize\n      not(0x1f)\n      0x1f\n      dup3\n      add\n      and\n      dup3\n      add\n      dup1\n      0x40\n      mstore\n      pop\n      dup2\n      add\n      swap1\n      tag_617\n      swap2\n      swap1\n      tag_116\n      jump\t// in\n    tag_617:\n        /* \"ZKSYNC/quickcalls.sol\":1526:1573  pair = IFactory(factory).getPair(tokenA,tokenB) */\n      swap5\n        /* \"ZKSYNC/quickcalls.sol\":1412:1581  function pairFor(address factory, address tokenA, address tokenB) internal view returns (address pair) {\r... */\n      swap4\n      pop\n      pop\n      pop\n      pop\n      jump\t// out\n        /* \"ZKSYNC/quickcalls.sol\":208:610  function safeTransferFrom(address token, address from, address to, uint value) internal {\r... */\n    tag_589:\n        /* \"ZKSYNC/quickcalls.sol\":433:484  abi.encodeWithSelector(0x23b872dd, from, to, value) */\n      0x40\n      dup1\n      mload\n      sub(shl(0xa0, 0x01), 0x01)\n        /* \"#utility.yul\":8077:8092   */\n      dup6\n      dup2\n      and\n        /* \"ZKSYNC/quickcalls.sol\":433:484  abi.encodeWithSelector(0x23b872dd, from, to, value) */\n      0x24\n      dup4\n      add\n        /* \"#utility.yul\":8059:8093   */\n      mstore\n        /* \"#utility.yul\":8129:8144   */\n      dup5\n      dup2\n      and\n        /* \"#utility.yul\":8109:8127   */\n      0x44\n      dup4\n      add\n        /* \"#utility.yul\":8102:8145   */\n      mstore\n        /* \"#utility.yul\":8161:8179   */\n      0x64\n      dup1\n      dup4\n      add\n        /* \"#utility.yul\":8154:8188   */\n      dup6\n      swap1\n      mstore\n        /* \"ZKSYNC/quickcalls.sol\":433:484  abi.encodeWithSelector(0x23b872dd, from, to, value) */\n      dup4\n      mload\n      dup1\n      dup5\n      sub\n      swap1\n      swap2\n      add\n      dup2\n      mstore\n        /* \"#utility.yul\":7994:8012   */\n      0x84\n      swap1\n      swap3\n      add\n        /* \"ZKSYNC/quickcalls.sol\":433:484  abi.encodeWithSelector(0x23b872dd, from, to, value) */\n      dup4\n      mstore\n      0x20\n      dup3\n      add\n      dup1\n      mload\n      sub(shl(0xe0, 0x01), 0x01)\n      and\n      shl(0xe0, 0x23b872dd)\n      or\n      swap1\n      mstore\n        /* \"ZKSYNC/quickcalls.sol\":422:485  token.call(abi.encodeWithSelector(0x23b872dd, from, to, value)) */\n      swap2\n      mload\n      0x00\n      swap3\n      dup4\n      swap3\n        /* \"ZKSYNC/quickcalls.sol\":422:432  token.call */\n      swap1\n      dup9\n      and\n      swap2\n        /* \"ZKSYNC/quickcalls.sol\":422:485  token.call(abi.encodeWithSelector(0x23b872dd, from, to, value)) */\n      tag_620\n      swap2\n        /* \"ZKSYNC/quickcalls.sol\":433:484  abi.encodeWithSelector(0x23b872dd, from, to, value) */\n      swap1\n        /* \"ZKSYNC/quickcalls.sol\":422:485  token.call(abi.encodeWithSelector(0x23b872dd, from, to, value)) */\n      tag_170\n      jump\t// in\n    tag_620:\n      0x00\n      mload(0x40)\n      dup1\n      dup4\n      sub\n      dup2\n      0x00\n      dup7\n      gas\n      call\n      swap2\n      pop\n      pop\n      returndatasize\n      dup1\n      0x00\n      dup2\n      eq\n      tag_623\n      jumpi\n      mload(0x40)\n      swap2\n      pop\n      and(add(returndatasize, 0x3f), not(0x1f))\n      dup3\n      add\n      0x40\n      mstore\n      returndatasize\n      dup3\n      mstore\n      returndatasize\n      0x00\n      0x20\n      dup5\n      add\n      returndatacopy\n      jump(tag_622)\n    tag_623:\n      0x60\n      swap2\n      pop\n    tag_622:\n      pop\n        /* \"ZKSYNC/quickcalls.sol\":386:485  (bool success, bytes memory data) = token.call(abi.encodeWithSelector(0x23b872dd, from, to, value)) */\n      swap2\n      pop\n      swap2\n      pop\n        /* \"ZKSYNC/quickcalls.sol\":504:511  success */\n      dup2\n        /* \"ZKSYNC/quickcalls.sol\":504:561  success && (data.length == 0 || abi.decode(data, (bool))) */\n      dup1\n      iszero\n      tag_626\n      jumpi\n      pop\n        /* \"ZKSYNC/quickcalls.sol\":516:527  data.length */\n      dup1\n      mload\n        /* \"ZKSYNC/quickcalls.sol\":516:532  data.length == 0 */\n      iszero\n      dup1\n        /* \"ZKSYNC/quickcalls.sol\":516:560  data.length == 0 || abi.decode(data, (bool)) */\n      tag_626\n      jumpi\n      pop\n        /* \"ZKSYNC/quickcalls.sol\":547:551  data */\n      dup1\n        /* \"ZKSYNC/quickcalls.sol\":536:560  abi.decode(data, (bool)) */\n      dup1\n      0x20\n      add\n      swap1\n      mload\n      dup2\n      add\n      swap1\n      tag_626\n      swap2\n      swap1\n      tag_414\n      jump\t// in\n    tag_626:\n        /* \"ZKSYNC/quickcalls.sol\":496:602  require(success && (data.length == 0 || abi.decode(data, (bool))), 'TransferHelper: TRANSFER_FROM_FAILED') */\n      tag_178\n      jumpi\n      mload(0x40)\n      shl(0xe5, 0x461bcd)\n      dup2\n      mstore\n        /* \"#utility.yul\":16326:16328   */\n      0x20\n        /* \"ZKSYNC/quickcalls.sol\":496:602  require(success && (data.length == 0 || abi.decode(data, (bool))), 'TransferHelper: TRANSFER_FROM_FAILED') */\n      0x04\n      dup3\n      add\n        /* \"#utility.yul\":16308:16329   */\n      mstore\n        /* \"#utility.yul\":16365:16367   */\n      0x24\n        /* \"#utility.yul\":16345:16363   */\n      dup1\n      dup3\n      add\n        /* \"#utility.yul\":16338:16368   */\n      mstore\n        /* \"#utility.yul\":16404:16438   */\n      0x5472616e7366657248656c7065723a205452414e534645525f46524f4d5f4641\n        /* \"#utility.yul\":16384:16402   */\n      0x44\n      dup3\n      add\n        /* \"#utility.yul\":16377:16439   */\n      mstore\n      shl(0xe2, 0x12531151)\n        /* \"#utility.yul\":16455:16473   */\n      0x64\n      dup3\n      add\n        /* \"#utility.yul\":16448:16482   */\n      mstore\n        /* \"#utility.yul\":16499:16518   */\n      0x84\n      add\n        /* \"ZKSYNC/quickcalls.sol\":496:602  require(success && (data.length == 0 || abi.decode(data, (bool))), 'TransferHelper: TRANSFER_FROM_FAILED') */\n      tag_175\n        /* \"#utility.yul\":16124:16524   */\n      jump\n        /* \"ZKSYNC/quickcalls.sol\":39929:40619  function _swapSupportingFeeOnTransferTokens(address[] memory path, address _to, address swapFactory, address swapRouter) internal virtual {\r... */\n    tag_591:\n        /* \"ZKSYNC/quickcalls.sol\":40083:40089  uint i */\n      0x00\n        /* \"ZKSYNC/quickcalls.sol\":40078:40612  for (uint i; i < path.length - 1; i++) {\r... */\n    tag_631:\n        /* \"ZKSYNC/quickcalls.sol\":40109:40110  1 */\n      0x01\n        /* \"ZKSYNC/quickcalls.sol\":40095:40099  path */\n      dup6\n        /* \"ZKSYNC/quickcalls.sol\":40095:40106  path.length */\n      mload\n        /* \"ZKSYNC/quickcalls.sol\":40095:40110  path.length - 1 */\n      tag_634\n      swap2\n      swap1\n      tag_92\n      jump\t// in\n    tag_634:\n        /* \"ZKSYNC/quickcalls.sol\":40091:40092  i */\n      dup2\n        /* \"ZKSYNC/quickcalls.sol\":40091:40110  i < path.length - 1 */\n      lt\n        /* \"ZKSYNC/quickcalls.sol\":40078:40612  for (uint i; i < path.length - 1; i++) {\r... */\n      iszero\n      tag_632\n      jumpi\n        /* \"ZKSYNC/quickcalls.sol\":40133:40146  address input */\n      0x00\n        /* \"ZKSYNC/quickcalls.sol\":40148:40162  address output */\n      dup1\n        /* \"ZKSYNC/quickcalls.sol\":40167:40171  path */\n      dup7\n        /* \"ZKSYNC/quickcalls.sol\":40172:40173  i */\n      dup4\n        /* \"ZKSYNC/quickcalls.sol\":40167:40174  path[i] */\n      dup2\n      mload\n      dup2\n      lt\n      tag_636\n      jumpi\n      tag_636\n      tag_119\n      jump\t// in\n    tag_636:\n      0x20\n      mul\n      0x20\n      add\n      add\n      mload\n        /* \"ZKSYNC/quickcalls.sol\":40176:40180  path */\n      dup8\n        /* \"ZKSYNC/quickcalls.sol\":40181:40182  i */\n      dup5\n        /* \"ZKSYNC/quickcalls.sol\":40185:40186  1 */\n      0x01\n        /* \"ZKSYNC/quickcalls.sol\":40181:40186  i + 1 */\n      tag_637\n      swap2\n      swap1\n      tag_432\n      jump\t// in\n    tag_637:\n        /* \"ZKSYNC/quickcalls.sol\":40176:40187  path[i + 1] */\n      dup2\n      mload\n      dup2\n      lt\n      tag_639\n      jumpi\n      tag_639\n      tag_119\n      jump\t// in\n    tag_639:\n      0x20\n      mul\n      0x20\n      add\n      add\n      mload\n        /* \"ZKSYNC/quickcalls.sol\":40132:40188  (address input, address output) = (path[i], path[i + 1]) */\n      swap2\n      pop\n      swap2\n      pop\n        /* \"ZKSYNC/quickcalls.sol\":40204:40218  address token0 */\n      0x00\n        /* \"ZKSYNC/quickcalls.sol\":40223:40257  ILibrary.sortTokens(input, output) */\n      tag_640\n        /* \"ZKSYNC/quickcalls.sol\":40243:40248  input */\n      dup4\n        /* \"ZKSYNC/quickcalls.sol\":40250:40256  output */\n      dup4\n        /* \"ZKSYNC/quickcalls.sol\":40223:40242  ILibrary.sortTokens */\n      tag_641\n        /* \"ZKSYNC/quickcalls.sol\":40223:40257  ILibrary.sortTokens(input, output) */\n      jump\t// in\n    tag_640:\n        /* \"ZKSYNC/quickcalls.sol\":40203:40257  (address token0,) = ILibrary.sortTokens(input, output) */\n      pop\n      swap1\n      pop\n        /* \"ZKSYNC/quickcalls.sol\":40272:40282  IPair pair */\n      0x00\n        /* \"ZKSYNC/quickcalls.sol\":40291:40335  ILibrary.pairFor(swapFactory, input, output) */\n      tag_642\n        /* \"ZKSYNC/quickcalls.sol\":40308:40319  swapFactory */\n      dup8\n        /* \"ZKSYNC/quickcalls.sol\":40321:40326  input */\n      dup6\n        /* \"ZKSYNC/quickcalls.sol\":40328:40334  output */\n      dup6\n        /* \"ZKSYNC/quickcalls.sol\":40291:40307  ILibrary.pairFor */\n      tag_588\n        /* \"ZKSYNC/quickcalls.sol\":40291:40335  ILibrary.pairFor(swapFactory, input, output) */\n      jump\t// in\n    tag_642:\n        /* \"ZKSYNC/quickcalls.sol\":40272:40336  IPair pair = IPair(ILibrary.pairFor(swapFactory, input, output)) */\n      swap1\n      pop\n        /* \"ZKSYNC/quickcalls.sol\":40352:40367  uint amount0Out */\n      0x00\n        /* \"ZKSYNC/quickcalls.sol\":40369:40384  uint amount1Out */\n      dup1\n        /* \"ZKSYNC/quickcalls.sol\":40388:40428  getinfo(pair, input, token0, swapRouter) */\n      tag_643\n        /* \"ZKSYNC/quickcalls.sol\":40396:40400  pair */\n      dup4\n        /* \"ZKSYNC/quickcalls.sol\":40402:40407  input */\n      dup8\n        /* \"ZKSYNC/quickcalls.sol\":40409:40415  token0 */\n      dup7\n        /* \"ZKSYNC/quickcalls.sol\":40417:40427  swapRouter */\n      dup12\n        /* \"ZKSYNC/quickcalls.sol\":40388:40395  getinfo */\n      tag_644\n        /* \"ZKSYNC/quickcalls.sol\":40388:40428  getinfo(pair, input, token0, swapRouter) */\n      jump\t// in\n    tag_643:\n        /* \"ZKSYNC/quickcalls.sol\":40351:40428  (uint amount0Out, uint amount1Out) = getinfo(pair, input, token0, swapRouter) */\n      swap2\n      pop\n      swap2\n      pop\n        /* \"ZKSYNC/quickcalls.sol\":40443:40453  address to */\n      0x00\n        /* \"ZKSYNC/quickcalls.sol\":40474:40475  2 */\n      0x02\n        /* \"ZKSYNC/quickcalls.sol\":40460:40464  path */\n      dup13\n        /* \"ZKSYNC/quickcalls.sol\":40460:40471  path.length */\n      mload\n        /* \"ZKSYNC/quickcalls.sol\":40460:40475  path.length - 2 */\n      tag_645\n      swap2\n      swap1\n      tag_92\n      jump\t// in\n    tag_645:\n        /* \"ZKSYNC/quickcalls.sol\":40456:40457  i */\n      dup9\n        /* \"ZKSYNC/quickcalls.sol\":40456:40475  i < path.length - 2 */\n      lt\n        /* \"ZKSYNC/quickcalls.sol\":40456:40534  i < path.length - 2 ? ILibrary.pairFor(swapFactory, output, path[i + 2]) : _to */\n      tag_646\n      jumpi\n        /* \"ZKSYNC/quickcalls.sol\":40531:40534  _to */\n      dup11\n        /* \"ZKSYNC/quickcalls.sol\":40456:40534  i < path.length - 2 ? ILibrary.pairFor(swapFactory, output, path[i + 2]) : _to */\n      jump(tag_648)\n    tag_646:\n        /* \"ZKSYNC/quickcalls.sol\":40478:40528  ILibrary.pairFor(swapFactory, output, path[i + 2]) */\n      tag_648\n        /* \"ZKSYNC/quickcalls.sol\":40495:40506  swapFactory */\n      dup11\n        /* \"ZKSYNC/quickcalls.sol\":40508:40514  output */\n      dup8\n        /* \"ZKSYNC/quickcalls.sol\":40516:40520  path */\n      dup15\n        /* \"ZKSYNC/quickcalls.sol\":40521:40526  i + 2 */\n      tag_649\n        /* \"ZKSYNC/quickcalls.sol\":40521:40522  i */\n      dup13\n        /* \"ZKSYNC/quickcalls.sol\":40525:40526  2 */\n      0x02\n        /* \"ZKSYNC/quickcalls.sol\":40521:40526  i + 2 */\n      tag_432\n      jump\t// in\n    tag_649:\n        /* \"ZKSYNC/quickcalls.sol\":40516:40527  path[i + 2] */\n      dup2\n      mload\n      dup2\n      lt\n      tag_587\n      jumpi\n      tag_587\n      tag_119\n      jump\t// in\n        /* \"ZKSYNC/quickcalls.sol\":40478:40528  ILibrary.pairFor(swapFactory, output, path[i + 2]) */\n    tag_648:\n        /* \"ZKSYNC/quickcalls.sol\":40587:40599  new bytes(0) */\n      0x40\n      dup1\n      mload\n        /* \"ZKSYNC/quickcalls.sol\":40597:40598  0 */\n      0x00\n        /* \"ZKSYNC/quickcalls.sol\":40587:40599  new bytes(0) */\n      dup2\n      mstore\n      0x20\n      dup2\n      add\n      swap2\n      dup3\n      swap1\n      mstore\n      shl(0xe0, 0x022c0d9f)\n        /* \"ZKSYNC/quickcalls.sol\":40549:40600  pair.swap(amount0Out, amount1Out, to, new bytes(0)) */\n      swap1\n      swap2\n      mstore\n        /* \"ZKSYNC/quickcalls.sol\":40443:40534  address to = i < path.length - 2 ? ILibrary.pairFor(swapFactory, output, path[i + 2]) : _to */\n      swap1\n      swap2\n      pop\n      sub(shl(0xa0, 0x01), 0x01)\n        /* \"ZKSYNC/quickcalls.sol\":40549:40558  pair.swap */\n      dup6\n      and\n      swap1\n      0x022c0d9f\n      swap1\n        /* \"ZKSYNC/quickcalls.sol\":40549:40600  pair.swap(amount0Out, amount1Out, to, new bytes(0)) */\n      tag_655\n      swap1\n        /* \"ZKSYNC/quickcalls.sol\":40559:40569  amount0Out */\n      dup7\n      swap1\n        /* \"ZKSYNC/quickcalls.sol\":40571:40581  amount1Out */\n      dup7\n      swap1\n        /* \"ZKSYNC/quickcalls.sol\":40443:40534  address to = i < path.length - 2 ? ILibrary.pairFor(swapFactory, output, path[i + 2]) : _to */\n      dup7\n      swap1\n        /* \"ZKSYNC/quickcalls.sol\":40549:40600  pair.swap(amount0Out, amount1Out, to, new bytes(0)) */\n      0x24\n      dup2\n      add\n      tag_656\n      jump\t// in\n    tag_655:\n      0x00\n      mload(0x40)\n      dup1\n      dup4\n      sub\n      dup2\n      0x00\n      dup8\n      dup1\n      extcodesize\n      iszero\n      dup1\n      iszero\n      tag_657\n      jumpi\n      0x00\n      dup1\n      revert\n    tag_657:\n      pop\n      gas\n      call\n      iszero\n      dup1\n      iszero\n      tag_659\n      jumpi\n      returndatasize\n      0x00\n      dup1\n      returndatacopy\n      revert(0x00, returndatasize)\n    tag_659:\n      pop\n      pop\n      pop\n      pop\n        /* \"ZKSYNC/quickcalls.sol\":40117:40612  {\r... */\n      pop\n      pop\n      pop\n      pop\n      pop\n      pop\n      pop\n        /* \"ZKSYNC/quickcalls.sol\":40112:40115  i++ */\n      dup1\n      dup1\n      tag_660\n      swap1\n      tag_661\n      jump\t// in\n    tag_660:\n      swap2\n      pop\n      pop\n        /* \"ZKSYNC/quickcalls.sol\":40078:40612  for (uint i; i < path.length - 1; i++) {\r... */\n      jump(tag_631)\n    tag_632:\n      pop\n        /* \"ZKSYNC/quickcalls.sol\":39929:40619  function _swapSupportingFeeOnTransferTokens(address[] memory path, address _to, address swapFactory, address swapRouter) internal virtual {\r... */\n      pop\n      pop\n      pop\n      pop\n      jump\t// out\n        /* \"ZKSYNC/quickcalls.sol\":8528:8757  function functionCall(\r... */\n    tag_606:\n        /* \"ZKSYNC/quickcalls.sol\":8665:8677  bytes memory */\n      0x60\n        /* \"ZKSYNC/quickcalls.sol\":8697:8749  functionCallWithValue(target, data, 0, errorMessage) */\n      tag_617\n        /* \"ZKSYNC/quickcalls.sol\":8719:8725  target */\n      dup5\n        /* \"ZKSYNC/quickcalls.sol\":8727:8731  data */\n      dup5\n        /* \"ZKSYNC/quickcalls.sol\":8733:8734  0 */\n      0x00\n        /* \"ZKSYNC/quickcalls.sol\":8736:8748  errorMessage */\n      dup6\n        /* \"ZKSYNC/quickcalls.sol\":8697:8718  functionCallWithValue */\n      tag_664\n        /* \"ZKSYNC/quickcalls.sol\":8697:8749  functionCallWithValue(target, data, 0, errorMessage) */\n      jump\t// in\n        /* \"ZKSYNC/quickcalls.sol\":1071:1404  function sortTokens(address tokenA, address tokenB) internal pure returns (address token0, address token1) {\r... */\n    tag_641:\n        /* \"ZKSYNC/quickcalls.sol\":1146:1160  address token0 */\n      0x00\n        /* \"ZKSYNC/quickcalls.sol\":1162:1176  address token1 */\n      dup1\n        /* \"ZKSYNC/quickcalls.sol\":1207:1213  tokenB */\n      dup3\n      sub(shl(0xa0, 0x01), 0x01)\n        /* \"ZKSYNC/quickcalls.sol\":1197:1213  tokenA != tokenB */\n      and\n        /* \"ZKSYNC/quickcalls.sol\":1197:1203  tokenA */\n      dup5\n      sub(shl(0xa0, 0x01), 0x01)\n        /* \"ZKSYNC/quickcalls.sol\":1197:1213  tokenA != tokenB */\n      and\n      eq\n      iszero\n        /* \"ZKSYNC/quickcalls.sol\":1189:1247  require(tokenA != tokenB, 'ILibrary: IDENTICAL_ADDRESSES') */\n      tag_666\n      jumpi\n      mload(0x40)\n      shl(0xe5, 0x461bcd)\n      dup2\n      mstore\n        /* \"#utility.yul\":13276:13278   */\n      0x20\n        /* \"ZKSYNC/quickcalls.sol\":1189:1247  require(tokenA != tokenB, 'ILibrary: IDENTICAL_ADDRESSES') */\n      0x04\n      dup3\n      add\n        /* \"#utility.yul\":13258:13279   */\n      mstore\n        /* \"#utility.yul\":13315:13317   */\n      0x1d\n        /* \"#utility.yul\":13295:13313   */\n      0x24\n      dup3\n      add\n        /* \"#utility.yul\":13288:13318   */\n      mstore\n        /* \"#utility.yul\":13354:13385   */\n      0x494c6962726172793a204944454e544943414c5f414444524553534553000000\n        /* \"#utility.yul\":13334:13352   */\n      0x44\n      dup3\n      add\n        /* \"#utility.yul\":13327:13386   */\n      mstore\n        /* \"#utility.yul\":13403:13421   */\n      0x64\n      add\n        /* \"ZKSYNC/quickcalls.sol\":1189:1247  require(tokenA != tokenB, 'ILibrary: IDENTICAL_ADDRESSES') */\n      tag_175\n        /* \"#utility.yul\":13074:13427   */\n      jump\n        /* \"ZKSYNC/quickcalls.sol\":1189:1247  require(tokenA != tokenB, 'ILibrary: IDENTICAL_ADDRESSES') */\n    tag_666:\n        /* \"ZKSYNC/quickcalls.sol\":1286:1292  tokenB */\n      dup3\n      sub(shl(0xa0, 0x01), 0x01)\n        /* \"ZKSYNC/quickcalls.sol\":1277:1292  tokenA < tokenB */\n      and\n        /* \"ZKSYNC/quickcalls.sol\":1277:1283  tokenA */\n      dup5\n      sub(shl(0xa0, 0x01), 0x01)\n        /* \"ZKSYNC/quickcalls.sol\":1277:1292  tokenA < tokenB */\n      and\n      lt\n        /* \"ZKSYNC/quickcalls.sol\":1277:1330  tokenA < tokenB ? (tokenA, tokenB) : (tokenB, tokenA) */\n      tag_669\n      jumpi\n        /* \"ZKSYNC/quickcalls.sol\":1315:1321  tokenB */\n      dup3\n        /* \"ZKSYNC/quickcalls.sol\":1323:1329  tokenA */\n      dup5\n        /* \"ZKSYNC/quickcalls.sol\":1277:1330  tokenA < tokenB ? (tokenA, tokenB) : (tokenB, tokenA) */\n      jump(tag_670)\n    tag_669:\n        /* \"ZKSYNC/quickcalls.sol\":1296:1302  tokenA */\n      dup4\n        /* \"ZKSYNC/quickcalls.sol\":1304:1310  tokenB */\n      dup4\n        /* \"ZKSYNC/quickcalls.sol\":1277:1330  tokenA < tokenB ? (tokenA, tokenB) : (tokenB, tokenA) */\n    tag_670:\n        /* \"ZKSYNC/quickcalls.sol\":1258:1330  (token0, token1) = tokenA < tokenB ? (tokenA, tokenB) : (tokenB, tokenA) */\n      swap1\n      swap3\n      pop\n      swap1\n      pop\n      sub(shl(0xa0, 0x01), 0x01)\n        /* \"ZKSYNC/quickcalls.sol\":1349:1369  token0 != address(0) */\n      dup3\n      and\n        /* \"ZKSYNC/quickcalls.sol\":1341:1396  require(token0 != address(0), 'ILibrary: ZERO_ADDRESS') */\n      tag_671\n      jumpi\n      mload(0x40)\n      shl(0xe5, 0x461bcd)\n      dup2\n      mstore\n        /* \"#utility.yul\":14393:14395   */\n      0x20\n        /* \"ZKSYNC/quickcalls.sol\":1341:1396  require(token0 != address(0), 'ILibrary: ZERO_ADDRESS') */\n      0x04\n      dup3\n      add\n        /* \"#utility.yul\":14375:14396   */\n      mstore\n        /* \"#utility.yul\":14432:14434   */\n      0x16\n        /* \"#utility.yul\":14412:14430   */\n      0x24\n      dup3\n      add\n        /* \"#utility.yul\":14405:14435   */\n      mstore\n      shl(0x50, 0x494c6962726172793a205a45524f5f41444452455353)\n        /* \"#utility.yul\":14451:14469   */\n      0x44\n      dup3\n      add\n        /* \"#utility.yul\":14444:14496   */\n      mstore\n        /* \"#utility.yul\":14513:14531   */\n      0x64\n      add\n        /* \"ZKSYNC/quickcalls.sol\":1341:1396  require(token0 != address(0), 'ILibrary: ZERO_ADDRESS') */\n      tag_175\n        /* \"#utility.yul\":14191:14537   */\n      jump\n        /* \"ZKSYNC/quickcalls.sol\":1341:1396  require(token0 != address(0), 'ILibrary: ZERO_ADDRESS') */\n    tag_671:\n        /* \"ZKSYNC/quickcalls.sol\":1071:1404  function sortTokens(address tokenA, address tokenB) internal pure returns (address token0, address token1) {\r... */\n      swap3\n      pop\n      swap3\n      swap1\n      pop\n      jump\t// out\n        /* \"ZKSYNC/quickcalls.sol\":40627:41269  function getinfo(IPair pair, address input, address token0, address swapRouter) internal view returns (uint amount0Out, uint amount1Out){\r... */\n    tag_644:\n        /* \"ZKSYNC/quickcalls.sol\":40730:40745  uint amount0Out */\n      0x00\n        /* \"ZKSYNC/quickcalls.sol\":40747:40762  uint amount1Out */\n      dup1\n        /* \"ZKSYNC/quickcalls.sol\":40779:40792  uint reserve0 */\n      0x00\n        /* \"ZKSYNC/quickcalls.sol\":40794:40807  uint reserve1 */\n      dup1\n        /* \"ZKSYNC/quickcalls.sol\":40812:40816  pair */\n      dup8\n      sub(shl(0xa0, 0x01), 0x01)\n        /* \"ZKSYNC/quickcalls.sol\":40812:40828  pair.getReserves */\n      and\n      0x0902f1ac\n        /* \"ZKSYNC/quickcalls.sol\":40812:40830  pair.getReserves() */\n      mload(0x40)\n      dup2\n      0xffffffff\n      and\n      0xe0\n      shl\n      dup2\n      mstore\n      0x04\n      add\n      0x60\n      mload(0x40)\n      dup1\n      dup4\n      sub\n      dup2\n      dup7\n      dup1\n      extcodesize\n      iszero\n      dup1\n      iszero\n      tag_675\n      jumpi\n      0x00\n      dup1\n      revert\n    tag_675:\n      pop\n      gas\n      staticcall\n      iszero\n      dup1\n      iszero\n      tag_677\n      jumpi\n      returndatasize\n      0x00\n      dup1\n      returndatacopy\n      revert(0x00, returndatasize)\n    tag_677:\n      pop\n      pop\n      pop\n      pop\n      mload(0x40)\n      returndatasize\n      not(0x1f)\n      0x1f\n      dup3\n      add\n      and\n      dup3\n      add\n      dup1\n      0x40\n      mstore\n      pop\n      dup2\n      add\n      swap1\n      tag_678\n      swap2\n      swap1\n      tag_679\n      jump\t// in\n    tag_678:\n        /* \"ZKSYNC/quickcalls.sol\":40778:40830  (uint reserve0, uint reserve1,) = pair.getReserves() */\n      pop\n      sub(shl(0x70, 0x01), 0x01)\n      and\n      swap2\n      pop\n      sub(shl(0x70, 0x01), 0x01)\n      and\n      swap2\n      pop\n        /* \"ZKSYNC/quickcalls.sol\":40846:40863  uint reserveInput */\n      0x00\n        /* \"ZKSYNC/quickcalls.sol\":40865:40883  uint reserveOutput */\n      dup1\n        /* \"ZKSYNC/quickcalls.sol\":40896:40902  token0 */\n      dup8\n      sub(shl(0xa0, 0x01), 0x01)\n        /* \"ZKSYNC/quickcalls.sol\":40887:40902  input == token0 */\n      and\n        /* \"ZKSYNC/quickcalls.sol\":40887:40892  input */\n      dup10\n      sub(shl(0xa0, 0x01), 0x01)\n        /* \"ZKSYNC/quickcalls.sol\":40887:40902  input == token0 */\n      and\n      eq\n        /* \"ZKSYNC/quickcalls.sol\":40887:40948  input == token0 ? (reserve0, reserve1) : (reserve1, reserve0) */\n      tag_680\n      jumpi\n        /* \"ZKSYNC/quickcalls.sol\":40929:40937  reserve1 */\n      dup3\n        /* \"ZKSYNC/quickcalls.sol\":40939:40947  reserve0 */\n      dup5\n        /* \"ZKSYNC/quickcalls.sol\":40887:40948  input == token0 ? (reserve0, reserve1) : (reserve1, reserve0) */\n      jump(tag_681)\n    tag_680:\n        /* \"ZKSYNC/quickcalls.sol\":40906:40914  reserve0 */\n      dup4\n        /* \"ZKSYNC/quickcalls.sol\":40916:40924  reserve1 */\n      dup4\n        /* \"ZKSYNC/quickcalls.sol\":40887:40948  input == token0 ? (reserve0, reserve1) : (reserve1, reserve0) */\n    tag_681:\n        /* \"ZKSYNC/quickcalls.sol\":40982:41020  IERC20(input).balanceOf(address(pair)) */\n      mload(0x40)\n      shl(0xe0, 0x70a08231)\n      dup2\n      mstore\n      sub(shl(0xa0, 0x01), 0x01)\n        /* \"#utility.yul\":7466:7498   */\n      dup14\n      dup2\n      and\n        /* \"ZKSYNC/quickcalls.sol\":40982:41020  IERC20(input).balanceOf(address(pair)) */\n      0x04\n      dup4\n      add\n        /* \"#utility.yul\":7448:7499   */\n      mstore\n        /* \"ZKSYNC/quickcalls.sol\":40845:40948  (uint reserveInput, uint reserveOutput) = input == token0 ? (reserve0, reserve1) : (reserve1, reserve0) */\n      swap3\n      swap5\n      pop\n      swap1\n      swap3\n      pop\n        /* \"ZKSYNC/quickcalls.sol\":40963:40979  uint amountInput */\n      0x00\n      swap2\n        /* \"ZKSYNC/quickcalls.sol\":40845:40948  (uint reserveInput, uint reserveOutput) = input == token0 ? (reserve0, reserve1) : (reserve1, reserve0) */\n      dup5\n      swap2\n        /* \"ZKSYNC/quickcalls.sol\":40982:41005  IERC20(input).balanceOf */\n      swap1\n      dup13\n      and\n      swap1\n      0x70a08231\n      swap1\n        /* \"#utility.yul\":7421:7439   */\n      0x24\n      add\n        /* \"ZKSYNC/quickcalls.sol\":40982:41020  IERC20(input).balanceOf(address(pair)) */\n      0x20\n      mload(0x40)\n      dup1\n      dup4\n      sub\n      dup2\n      dup7\n      dup1\n      extcodesize\n      iszero\n      dup1\n      iszero\n      tag_683\n      jumpi\n      0x00\n      dup1\n      revert\n    tag_683:\n      pop\n      gas\n      staticcall\n      iszero\n      dup1\n      iszero\n      tag_685\n      jumpi\n      returndatasize\n      0x00\n      dup1\n      returndatacopy\n      revert(0x00, returndatasize)\n    tag_685:\n      pop\n      pop\n      pop\n      pop\n      mload(0x40)\n      returndatasize\n      not(0x1f)\n      0x1f\n      dup3\n      add\n      and\n      dup3\n      add\n      dup1\n      0x40\n      mstore\n      pop\n      dup2\n      add\n      swap1\n      tag_686\n      swap2\n      swap1\n      tag_223\n      jump\t// in\n    tag_686:\n        /* \"ZKSYNC/quickcalls.sol\":40982:41037  IERC20(input).balanceOf(address(pair)) - (reserveInput) */\n      tag_687\n      swap2\n      swap1\n      tag_92\n      jump\t// in\n    tag_687:\n        /* \"ZKSYNC/quickcalls.sol\":41072:41152  routerAddress(swapRouter).getAmountOut(amountInput, reserveInput, reserveOutput) */\n      mload(0x40)\n      shl(0xe2, 0x01535435)\n      dup2\n      mstore\n      0x04\n      dup2\n      add\n        /* \"#utility.yul\":17963:17988   */\n      dup3\n      swap1\n      mstore\n        /* \"#utility.yul\":18004:18022   */\n      0x24\n      dup2\n      add\n        /* \"#utility.yul\":17997:18031   */\n      dup6\n      swap1\n      mstore\n        /* \"#utility.yul\":18047:18065   */\n      0x44\n      dup2\n      add\n        /* \"#utility.yul\":18040:18074   */\n      dup5\n      swap1\n      mstore\n        /* \"ZKSYNC/quickcalls.sol\":40963:41037  uint amountInput = IERC20(input).balanceOf(address(pair)) - (reserveInput) */\n      swap1\n      swap2\n      pop\n        /* \"ZKSYNC/quickcalls.sol\":41052:41069  uint amountOutput */\n      0x00\n      swap1\n      sub(shl(0xa0, 0x01), 0x01)\n        /* \"ZKSYNC/quickcalls.sol\":41072:41110  routerAddress(swapRouter).getAmountOut */\n      dup11\n      and\n      swap1\n      0x054d50d4\n      swap1\n        /* \"#utility.yul\":17936:17954   */\n      0x64\n      add\n        /* \"ZKSYNC/quickcalls.sol\":41072:41152  routerAddress(swapRouter).getAmountOut(amountInput, reserveInput, reserveOutput) */\n      0x20\n      mload(0x40)\n      dup1\n      dup4\n      sub\n      dup2\n      dup7\n      dup1\n      extcodesize\n      iszero\n      dup1\n      iszero\n      tag_690\n      jumpi\n      0x00\n      dup1\n      revert\n    tag_690:\n      pop\n      gas\n      staticcall\n      iszero\n      dup1\n      iszero\n      tag_692\n      jumpi\n      returndatasize\n      0x00\n      dup1\n      returndatacopy\n      revert(0x00, returndatasize)\n    tag_692:\n      pop\n      pop\n      pop\n      pop\n      mload(0x40)\n      returndatasize\n      not(0x1f)\n      0x1f\n      dup3\n      add\n      and\n      dup3\n      add\n      dup1\n      0x40\n      mstore\n      pop\n      dup2\n      add\n      swap1\n      tag_693\n      swap2\n      swap1\n      tag_223\n      jump\t// in\n    tag_693:\n        /* \"ZKSYNC/quickcalls.sol\":41052:41152  uint amountOutput = routerAddress(swapRouter).getAmountOut(amountInput, reserveInput, reserveOutput) */\n      swap1\n      pop\n        /* \"ZKSYNC/quickcalls.sol\":41203:41209  token0 */\n      dup10\n      sub(shl(0xa0, 0x01), 0x01)\n        /* \"ZKSYNC/quickcalls.sol\":41194:41209  input == token0 */\n      and\n        /* \"ZKSYNC/quickcalls.sol\":41194:41199  input */\n      dup12\n      sub(shl(0xa0, 0x01), 0x01)\n        /* \"ZKSYNC/quickcalls.sol\":41194:41209  input == token0 */\n      and\n      eq\n        /* \"ZKSYNC/quickcalls.sol\":41194:41261  input == token0 ? (uint(0), amountOutput) : (amountOutput, uint(0)) */\n      tag_694\n      jumpi\n        /* \"ZKSYNC/quickcalls.sol\":41239:41251  amountOutput */\n      dup1\n        /* \"ZKSYNC/quickcalls.sol\":41258:41259  0 */\n      0x00\n        /* \"ZKSYNC/quickcalls.sol\":41194:41261  input == token0 ? (uint(0), amountOutput) : (amountOutput, uint(0)) */\n      jump(tag_695)\n    tag_694:\n        /* \"ZKSYNC/quickcalls.sol\":41218:41219  0 */\n      0x00\n        /* \"ZKSYNC/quickcalls.sol\":41222:41234  amountOutput */\n      dup2\n        /* \"ZKSYNC/quickcalls.sol\":41194:41261  input == token0 ? (uint(0), amountOutput) : (amountOutput, uint(0)) */\n    tag_695:\n        /* \"ZKSYNC/quickcalls.sol\":41167:41261  (amount0Out, amount1Out) = input == token0 ? (uint(0), amountOutput) : (amountOutput, uint(0)) */\n      swap1\n      swap14\n      swap1\n      swap13\n      pop\n        /* \"ZKSYNC/quickcalls.sol\":40627:41269  function getinfo(IPair pair, address input, address token0, address swapRouter) internal view returns (uint amount0Out, uint amount1Out){\r... */\n      swap11\n      pop\n      pop\n      pop\n      pop\n      pop\n      pop\n      pop\n      pop\n      pop\n      pop\n      pop\n      jump\t// out\n        /* \"ZKSYNC/quickcalls.sol\":9648:10158  function functionCallWithValue(\r... */\n    tag_664:\n        /* \"ZKSYNC/quickcalls.sol\":9818:9830  bytes memory */\n      0x60\n        /* \"ZKSYNC/quickcalls.sol\":9876:9881  value */\n      dup3\n        /* \"ZKSYNC/quickcalls.sol\":9851:9872  address(this).balance */\n      selfbalance\n        /* \"ZKSYNC/quickcalls.sol\":9851:9881  address(this).balance >= value */\n      lt\n      iszero\n        /* \"ZKSYNC/quickcalls.sol\":9843:9924  require(address(this).balance >= value, \"Address: insufficient balance for call\") */\n      tag_697\n      jumpi\n      mload(0x40)\n      shl(0xe5, 0x461bcd)\n      dup2\n      mstore\n        /* \"#utility.yul\":12508:12510   */\n      0x20\n        /* \"ZKSYNC/quickcalls.sol\":9843:9924  require(address(this).balance >= value, \"Address: insufficient balance for call\") */\n      0x04\n      dup3\n      add\n        /* \"#utility.yul\":12490:12511   */\n      mstore\n        /* \"#utility.yul\":12547:12549   */\n      0x26\n        /* \"#utility.yul\":12527:12545   */\n      0x24\n      dup3\n      add\n        /* \"#utility.yul\":12520:12550   */\n      mstore\n        /* \"#utility.yul\":12586:12620   */\n      0x416464726573733a20696e73756666696369656e742062616c616e636520666f\n        /* \"#utility.yul\":12566:12584   */\n      0x44\n      dup3\n      add\n        /* \"#utility.yul\":12559:12621   */\n      mstore\n      shl(0xd2, 0x1c8818d85b1b)\n        /* \"#utility.yul\":12637:12655   */\n      0x64\n      dup3\n      add\n        /* \"#utility.yul\":12630:12666   */\n      mstore\n        /* \"#utility.yul\":12683:12702   */\n      0x84\n      add\n        /* \"ZKSYNC/quickcalls.sol\":9843:9924  require(address(this).balance >= value, \"Address: insufficient balance for call\") */\n      tag_175\n        /* \"#utility.yul\":12306:12708   */\n      jump\n        /* \"ZKSYNC/quickcalls.sol\":9843:9924  require(address(this).balance >= value, \"Address: insufficient balance for call\") */\n    tag_697:\n        /* \"ZKSYNC/quickcalls.sol\":6045:6065  extcodesize(account) */\n      dup5\n      extcodesize\n        /* \"ZKSYNC/quickcalls.sol\":9935:9995  require(isContract(target), \"Address: call to non-contract\") */\n      tag_702\n      jumpi\n      mload(0x40)\n      shl(0xe5, 0x461bcd)\n      dup2\n      mstore\n        /* \"#utility.yul\":14744:14746   */\n      0x20\n        /* \"ZKSYNC/quickcalls.sol\":9935:9995  require(isContract(target), \"Address: call to non-contract\") */\n      0x04\n      dup3\n      add\n        /* \"#utility.yul\":14726:14747   */\n      mstore\n        /* \"#utility.yul\":14783:14785   */\n      0x1d\n        /* \"#utility.yul\":14763:14781   */\n      0x24\n      dup3\n      add\n        /* \"#utility.yul\":14756:14786   */\n      mstore\n        /* \"#utility.yul\":14822:14853   */\n      0x416464726573733a2063616c6c20746f206e6f6e2d636f6e7472616374000000\n        /* \"#utility.yul\":14802:14820   */\n      0x44\n      dup3\n      add\n        /* \"#utility.yul\":14795:14854   */\n      mstore\n        /* \"#utility.yul\":14871:14889   */\n      0x64\n      add\n        /* \"ZKSYNC/quickcalls.sol\":9935:9995  require(isContract(target), \"Address: call to non-contract\") */\n      tag_175\n        /* \"#utility.yul\":14542:14895   */\n      jump\n        /* \"ZKSYNC/quickcalls.sol\":9935:9995  require(isContract(target), \"Address: call to non-contract\") */\n    tag_702:\n        /* \"ZKSYNC/quickcalls.sol\":10009:10021  bool success */\n      0x00\n        /* \"ZKSYNC/quickcalls.sol\":10023:10046  bytes memory returndata */\n      dup1\n        /* \"ZKSYNC/quickcalls.sol\":10050:10056  target */\n      dup7\n      sub(shl(0xa0, 0x01), 0x01)\n        /* \"ZKSYNC/quickcalls.sol\":10050:10061  target.call */\n      and\n        /* \"ZKSYNC/quickcalls.sol\":10069:10074  value */\n      dup6\n        /* \"ZKSYNC/quickcalls.sol\":10076:10080  data */\n      dup8\n        /* \"ZKSYNC/quickcalls.sol\":10050:10081  target.call{value: value}(data) */\n      mload(0x40)\n      tag_705\n      swap2\n      swap1\n      tag_170\n      jump\t// in\n    tag_705:\n      0x00\n      mload(0x40)\n      dup1\n      dup4\n      sub\n      dup2\n      dup6\n      dup8\n      gas\n      call\n      swap3\n      pop\n      pop\n      pop\n      returndatasize\n      dup1\n      0x00\n      dup2\n      eq\n      tag_708\n      jumpi\n      mload(0x40)\n      swap2\n      pop\n      and(add(returndatasize, 0x3f), not(0x1f))\n      dup3\n      add\n      0x40\n      mstore\n      returndatasize\n      dup3\n      mstore\n      returndatasize\n      0x00\n      0x20\n      dup5\n      add\n      returndatacopy\n      jump(tag_707)\n    tag_708:\n      0x60\n      swap2\n      pop\n    tag_707:\n      pop\n        /* \"ZKSYNC/quickcalls.sol\":10008:10081  (bool success, bytes memory returndata) = target.call{value: value}(data) */\n      swap2\n      pop\n      swap2\n      pop\n        /* \"ZKSYNC/quickcalls.sol\":10099:10150  verifyCallResult(success, returndata, errorMessage) */\n      tag_709\n        /* \"ZKSYNC/quickcalls.sol\":10116:10123  success */\n      dup3\n        /* \"ZKSYNC/quickcalls.sol\":10125:10135  returndata */\n      dup3\n        /* \"ZKSYNC/quickcalls.sol\":10137:10149  errorMessage */\n      dup7\n        /* \"ZKSYNC/quickcalls.sol\":10099:10115  verifyCallResult */\n      tag_710\n        /* \"ZKSYNC/quickcalls.sol\":10099:10150  verifyCallResult(success, returndata, errorMessage) */\n      jump\t// in\n    tag_709:\n        /* \"ZKSYNC/quickcalls.sol\":10092:10150  return verifyCallResult(success, returndata, errorMessage) */\n      swap8\n        /* \"ZKSYNC/quickcalls.sol\":9648:10158  function functionCallWithValue(\r... */\n      swap7\n      pop\n      pop\n      pop\n      pop\n      pop\n      pop\n      pop\n      jump\t// out\n        /* \"ZKSYNC/quickcalls.sol\":12334:13046  function verifyCallResult(\r... */\n    tag_710:\n        /* \"ZKSYNC/quickcalls.sol\":12484:12496  bytes memory */\n      0x60\n        /* \"ZKSYNC/quickcalls.sol\":12513:12520  success */\n      dup4\n        /* \"ZKSYNC/quickcalls.sol\":12509:13039  if (success) {\r... */\n      iszero\n      tag_713\n      jumpi\n      pop\n        /* \"ZKSYNC/quickcalls.sol\":12544:12554  returndata */\n      dup2\n        /* \"ZKSYNC/quickcalls.sol\":12537:12554  return returndata */\n      jump(tag_399)\n        /* \"ZKSYNC/quickcalls.sol\":12509:13039  if (success) {\r... */\n    tag_713:\n        /* \"ZKSYNC/quickcalls.sol\":12658:12675  returndata.length */\n      dup3\n      mload\n        /* \"ZKSYNC/quickcalls.sol\":12658:12679  returndata.length > 0 */\n      iszero\n        /* \"ZKSYNC/quickcalls.sol\":12654:13028  if (returndata.length > 0) {\r... */\n      tag_715\n      jumpi\n        /* \"ZKSYNC/quickcalls.sol\":12856:12866  returndata */\n      dup3\n        /* \"ZKSYNC/quickcalls.sol\":12850:12867  mload(returndata) */\n      mload\n        /* \"ZKSYNC/quickcalls.sol\":12917:12932  returndata_size */\n      dup1\n        /* \"ZKSYNC/quickcalls.sol\":12904:12914  returndata */\n      dup5\n        /* \"ZKSYNC/quickcalls.sol\":12900:12902  32 */\n      0x20\n        /* \"ZKSYNC/quickcalls.sol\":12896:12915  add(32, returndata) */\n      add\n        /* \"ZKSYNC/quickcalls.sol\":12889:12933  revert(add(32, returndata), returndata_size) */\n      revert\n        /* \"ZKSYNC/quickcalls.sol\":12654:13028  if (returndata.length > 0) {\r... */\n    tag_715:\n        /* \"ZKSYNC/quickcalls.sol\":12999:13011  errorMessage */\n      dup2\n        /* \"ZKSYNC/quickcalls.sol\":12992:13012  revert(errorMessage) */\n      mload(0x40)\n      shl(0xe5, 0x461bcd)\n      dup2\n      mstore\n      0x04\n      add\n      tag_175\n      swap2\n      swap1\n      tag_718\n      jump\t// in\n        /* \"#utility.yul\":14:202   */\n    tag_720:\n        /* \"#utility.yul\":93:106   */\n      dup1\n      mload\n      sub(shl(0x70, 0x01), 0x01)\n        /* \"#utility.yul\":135:177   */\n      dup2\n      and\n        /* \"#utility.yul\":125:178   */\n      dup2\n      eq\n        /* \"#utility.yul\":115:196   */\n      tag_394\n      jumpi\n        /* \"#utility.yul\":192:193   */\n      0x00\n        /* \"#utility.yul\":189:190   */\n      dup1\n        /* \"#utility.yul\":182:194   */\n      revert\n        /* \"#utility.yul\":207:454   */\n    tag_71:\n        /* \"#utility.yul\":266:272   */\n      0x00\n        /* \"#utility.yul\":319:321   */\n      0x20\n        /* \"#utility.yul\":307:316   */\n      dup3\n        /* \"#utility.yul\":298:305   */\n      dup5\n        /* \"#utility.yul\":294:317   */\n      sub\n        /* \"#utility.yul\":290:322   */\n      slt\n        /* \"#utility.yul\":287:339   */\n      iszero\n      tag_724\n      jumpi\n        /* \"#utility.yul\":335:336   */\n      0x00\n        /* \"#utility.yul\":332:333   */\n      dup1\n        /* \"#utility.yul\":325:337   */\n      revert\n        /* \"#utility.yul\":287:339   */\n    tag_724:\n        /* \"#utility.yul\":374:383   */\n      dup2\n        /* \"#utility.yul\":361:384   */\n      calldataload\n        /* \"#utility.yul\":393:424   */\n      tag_399\n        /* \"#utility.yul\":418:423   */\n      dup2\n        /* \"#utility.yul\":393:424   */\n      tag_726\n      jump\t// in\n        /* \"#utility.yul\":459:710   */\n    tag_116:\n        /* \"#utility.yul\":529:535   */\n      0x00\n        /* \"#utility.yul\":582:584   */\n      0x20\n        /* \"#utility.yul\":570:579   */\n      dup3\n        /* \"#utility.yul\":561:568   */\n      dup5\n        /* \"#utility.yul\":557:580   */\n      sub\n        /* \"#utility.yul\":553:585   */\n      slt\n        /* \"#utility.yul\":550:602   */\n      iszero\n      tag_728\n      jumpi\n        /* \"#utility.yul\":598:599   */\n      0x00\n        /* \"#utility.yul\":595:596   */\n      dup1\n        /* \"#utility.yul\":588:600   */\n      revert\n        /* \"#utility.yul\":550:602   */\n    tag_728:\n        /* \"#utility.yul\":630:639   */\n      dup2\n        /* \"#utility.yul\":624:640   */\n      mload\n        /* \"#utility.yul\":649:680   */\n      tag_399\n        /* \"#utility.yul\":674:679   */\n      dup2\n        /* \"#utility.yul\":649:680   */\n      tag_726\n      jump\t// in\n        /* \"#utility.yul\":715:1103   */\n    tag_39:\n        /* \"#utility.yul\":783:789   */\n      0x00\n        /* \"#utility.yul\":791:797   */\n      dup1\n        /* \"#utility.yul\":844:846   */\n      0x40\n        /* \"#utility.yul\":832:841   */\n      dup4\n        /* \"#utility.yul\":823:830   */\n      dup6\n        /* \"#utility.yul\":819:842   */\n      sub\n        /* \"#utility.yul\":815:847   */\n      slt\n        /* \"#utility.yul\":812:864   */\n      iszero\n      tag_731\n      jumpi\n        /* \"#utility.yul\":860:861   */\n      0x00\n        /* \"#utility.yul\":857:858   */\n      dup1\n        /* \"#utility.yul\":850:862   */\n      revert\n        /* \"#utility.yul\":812:864   */\n    tag_731:\n        /* \"#utility.yul\":899:908   */\n      dup3\n        /* \"#utility.yul\":886:909   */\n      calldataload\n        /* \"#utility.yul\":918:949   */\n      tag_732\n        /* \"#utility.yul\":943:948   */\n      dup2\n        /* \"#utility.yul\":918:949   */\n      tag_726\n      jump\t// in\n    tag_732:\n        /* \"#utility.yul\":968:973   */\n      swap2\n      pop\n        /* \"#utility.yul\":1025:1027   */\n      0x20\n        /* \"#utility.yul\":1010:1028   */\n      dup4\n      add\n        /* \"#utility.yul\":997:1029   */\n      calldataload\n        /* \"#utility.yul\":1038:1071   */\n      tag_733\n        /* \"#utility.yul\":997:1029   */\n      dup2\n        /* \"#utility.yul\":1038:1071   */\n      tag_726\n      jump\t// in\n    tag_733:\n        /* \"#utility.yul\":1090:1097   */\n      dup1\n        /* \"#utility.yul\":1080:1097   */\n      swap2\n      pop\n      pop\n        /* \"#utility.yul\":715:1103   */\n      swap3\n      pop\n      swap3\n      swap1\n      pop\n      jump\t// out\n        /* \"#utility.yul\":1108:1637   */\n    tag_30:\n        /* \"#utility.yul\":1185:1191   */\n      0x00\n        /* \"#utility.yul\":1193:1199   */\n      dup1\n        /* \"#utility.yul\":1201:1207   */\n      0x00\n        /* \"#utility.yul\":1254:1256   */\n      0x60\n        /* \"#utility.yul\":1242:1251   */\n      dup5\n        /* \"#utility.yul\":1233:1240   */\n      dup7\n        /* \"#utility.yul\":1229:1252   */\n      sub\n        /* \"#utility.yul\":1225:1257   */\n      slt\n        /* \"#utility.yul\":1222:1274   */\n      iszero\n      tag_735\n      jumpi\n        /* \"#utility.yul\":1270:1271   */\n      0x00\n        /* \"#utility.yul\":1267:1268   */\n      dup1\n        /* \"#utility.yul\":1260:1272   */\n      revert\n        /* \"#utility.yul\":1222:1274   */\n    tag_735:\n        /* \"#utility.yul\":1309:1318   */\n      dup4\n        /* \"#utility.yul\":1296:1319   */\n      calldataload\n        /* \"#utility.yul\":1328:1359   */\n      tag_736\n        /* \"#utility.yul\":1353:1358   */\n      dup2\n        /* \"#utility.yul\":1328:1359   */\n      tag_726\n      jump\t// in\n    tag_736:\n        /* \"#utility.yul\":1378:1383   */\n      swap3\n      pop\n        /* \"#utility.yul\":1435:1437   */\n      0x20\n        /* \"#utility.yul\":1420:1438   */\n      dup5\n      add\n        /* \"#utility.yul\":1407:1439   */\n      calldataload\n        /* \"#utility.yul\":1448:1481   */\n      tag_737\n        /* \"#utility.yul\":1407:1439   */\n      dup2\n        /* \"#utility.yul\":1448:1481   */\n      tag_726\n      jump\t// in\n    tag_737:\n        /* \"#utility.yul\":1500:1507   */\n      swap2\n      pop\n        /* \"#utility.yul\":1559:1561   */\n      0x40\n        /* \"#utility.yul\":1544:1562   */\n      dup5\n      add\n        /* \"#utility.yul\":1531:1563   */\n      calldataload\n        /* \"#utility.yul\":1572:1605   */\n      tag_738\n        /* \"#utility.yul\":1531:1563   */\n      dup2\n        /* \"#utility.yul\":1572:1605   */\n      tag_726\n      jump\t// in\n    tag_738:\n        /* \"#utility.yul\":1624:1631   */\n      dup1\n        /* \"#utility.yul\":1614:1631   */\n      swap2\n      pop\n      pop\n        /* \"#utility.yul\":1108:1637   */\n      swap3\n      pop\n      swap3\n      pop\n      swap3\n      jump\t// out\n        /* \"#utility.yul\":1642:1957   */\n    tag_52:\n        /* \"#utility.yul\":1710:1716   */\n      0x00\n        /* \"#utility.yul\":1718:1724   */\n      dup1\n        /* \"#utility.yul\":1771:1773   */\n      0x40\n        /* \"#utility.yul\":1759:1768   */\n      dup4\n        /* \"#utility.yul\":1750:1757   */\n      dup6\n        /* \"#utility.yul\":1746:1769   */\n      sub\n        /* \"#utility.yul\":1742:1774   */\n      slt\n        /* \"#utility.yul\":1739:1791   */\n      iszero\n      tag_740\n      jumpi\n        /* \"#utility.yul\":1787:1788   */\n      0x00\n        /* \"#utility.yul\":1784:1785   */\n      dup1\n        /* \"#utility.yul\":1777:1789   */\n      revert\n        /* \"#utility.yul\":1739:1791   */\n    tag_740:\n        /* \"#utility.yul\":1826:1835   */\n      dup3\n        /* \"#utility.yul\":1813:1836   */\n      calldataload\n        /* \"#utility.yul\":1845:1876   */\n      tag_741\n        /* \"#utility.yul\":1870:1875   */\n      dup2\n        /* \"#utility.yul\":1845:1876   */\n      tag_726\n      jump\t// in\n    tag_741:\n        /* \"#utility.yul\":1895:1900   */\n      swap5\n        /* \"#utility.yul\":1947:1949   */\n      0x20\n        /* \"#utility.yul\":1932:1950   */\n      swap4\n      swap1\n      swap4\n      add\n        /* \"#utility.yul\":1919:1951   */\n      calldataload\n      swap4\n      pop\n      pop\n      pop\n        /* \"#utility.yul\":1642:1957   */\n      jump\t// out\n        /* \"#utility.yul\":1962:2702   */\n    tag_76:\n        /* \"#utility.yul\":2057:2063   */\n      0x00\n        /* \"#utility.yul\":2065:2071   */\n      dup1\n        /* \"#utility.yul\":2073:2079   */\n      0x00\n        /* \"#utility.yul\":2081:2087   */\n      dup1\n        /* \"#utility.yul\":2089:2095   */\n      0x00\n        /* \"#utility.yul\":2142:2145   */\n      0xa0\n        /* \"#utility.yul\":2130:2139   */\n      dup7\n        /* \"#utility.yul\":2121:2128   */\n      dup9\n        /* \"#utility.yul\":2117:2140   */\n      sub\n        /* \"#utility.yul\":2113:2146   */\n      slt\n        /* \"#utility.yul\":2110:2163   */\n      iszero\n      tag_743\n      jumpi\n        /* \"#utility.yul\":2159:2160   */\n      0x00\n        /* \"#utility.yul\":2156:2157   */\n      dup1\n        /* \"#utility.yul\":2149:2161   */\n      revert\n        /* \"#utility.yul\":2110:2163   */\n    tag_743:\n        /* \"#utility.yul\":2198:2207   */\n      dup6\n        /* \"#utility.yul\":2185:2208   */\n      calldataload\n        /* \"#utility.yul\":2217:2248   */\n      tag_744\n        /* \"#utility.yul\":2242:2247   */\n      dup2\n        /* \"#utility.yul\":2217:2248   */\n      tag_726\n      jump\t// in\n    tag_744:\n        /* \"#utility.yul\":2267:2272   */\n      swap5\n      pop\n        /* \"#utility.yul\":2319:2321   */\n      0x20\n        /* \"#utility.yul\":2304:2322   */\n      dup7\n      add\n        /* \"#utility.yul\":2291:2323   */\n      calldataload\n      swap4\n      pop\n        /* \"#utility.yul\":2375:2377   */\n      0x40\n        /* \"#utility.yul\":2360:2378   */\n      dup7\n      add\n        /* \"#utility.yul\":2347:2379   */\n      calldataload\n        /* \"#utility.yul\":2388:2421   */\n      tag_745\n        /* \"#utility.yul\":2347:2379   */\n      dup2\n        /* \"#utility.yul\":2388:2421   */\n      tag_726\n      jump\t// in\n    tag_745:\n        /* \"#utility.yul\":2440:2447   */\n      swap3\n      pop\n        /* \"#utility.yul\":2499:2501   */\n      0x60\n        /* \"#utility.yul\":2484:2502   */\n      dup7\n      add\n        /* \"#utility.yul\":2471:2503   */\n      calldataload\n        /* \"#utility.yul\":2512:2545   */\n      tag_746\n        /* \"#utility.yul\":2471:2503   */\n      dup2\n        /* \"#utility.yul\":2512:2545   */\n      tag_726\n      jump\t// in\n    tag_746:\n        /* \"#utility.yul\":2564:2571   */\n      swap2\n      pop\n        /* \"#utility.yul\":2623:2626   */\n      0x80\n        /* \"#utility.yul\":2608:2627   */\n      dup7\n      add\n        /* \"#utility.yul\":2595:2628   */\n      calldataload\n        /* \"#utility.yul\":2637:2670   */\n      tag_747\n        /* \"#utility.yul\":2595:2628   */\n      dup2\n        /* \"#utility.yul\":2637:2670   */\n      tag_726\n      jump\t// in\n    tag_747:\n        /* \"#utility.yul\":2689:2696   */\n      dup1\n        /* \"#utility.yul\":2679:2696   */\n      swap2\n      pop\n      pop\n        /* \"#utility.yul\":1962:2702   */\n      swap3\n      swap6\n      pop\n      swap3\n      swap6\n      swap1\n      swap4\n      pop\n      jump\t// out\n        /* \"#utility.yul\":2707:3731   */\n    tag_66:\n        /* \"#utility.yul\":2820:2826   */\n      0x00\n        /* \"#utility.yul\":2828:2834   */\n      dup1\n        /* \"#utility.yul\":2836:2842   */\n      0x00\n        /* \"#utility.yul\":2844:2850   */\n      dup1\n        /* \"#utility.yul\":2852:2858   */\n      0x00\n        /* \"#utility.yul\":2860:2866   */\n      dup1\n        /* \"#utility.yul\":2868:2874   */\n      0x00\n        /* \"#utility.yul\":2921:2924   */\n      0xe0\n        /* \"#utility.yul\":2909:2918   */\n      dup9\n        /* \"#utility.yul\":2900:2907   */\n      dup11\n        /* \"#utility.yul\":2896:2919   */\n      sub\n        /* \"#utility.yul\":2892:2925   */\n      slt\n        /* \"#utility.yul\":2889:2942   */\n      iszero\n      tag_749\n      jumpi\n        /* \"#utility.yul\":2938:2939   */\n      0x00\n        /* \"#utility.yul\":2935:2936   */\n      dup1\n        /* \"#utility.yul\":2928:2940   */\n      revert\n        /* \"#utility.yul\":2889:2942   */\n    tag_749:\n        /* \"#utility.yul\":2977:2986   */\n      dup8\n        /* \"#utility.yul\":2964:2987   */\n      calldataload\n        /* \"#utility.yul\":2996:3027   */\n      tag_750\n        /* \"#utility.yul\":3021:3026   */\n      dup2\n        /* \"#utility.yul\":2996:3027   */\n      tag_726\n      jump\t// in\n    tag_750:\n        /* \"#utility.yul\":3046:3051   */\n      swap7\n      pop\n        /* \"#utility.yul\":3098:3100   */\n      0x20\n        /* \"#utility.yul\":3083:3101   */\n      dup9\n      add\n        /* \"#utility.yul\":3070:3102   */\n      calldataload\n      swap6\n      pop\n        /* \"#utility.yul\":3154:3156   */\n      0x40\n        /* \"#utility.yul\":3139:3157   */\n      dup9\n      add\n        /* \"#utility.yul\":3126:3158   */\n      calldataload\n        /* \"#utility.yul\":3167:3200   */\n      tag_751\n        /* \"#utility.yul\":3126:3158   */\n      dup2\n        /* \"#utility.yul\":3167:3200   */\n      tag_726\n      jump\t// in\n    tag_751:\n        /* \"#utility.yul\":3219:3226   */\n      swap5\n      pop\n        /* \"#utility.yul\":3278:3280   */\n      0x60\n        /* \"#utility.yul\":3263:3281   */\n      dup9\n      add\n        /* \"#utility.yul\":3250:3282   */\n      calldataload\n        /* \"#utility.yul\":3291:3324   */\n      tag_752\n        /* \"#utility.yul\":3250:3282   */\n      dup2\n        /* \"#utility.yul\":3291:3324   */\n      tag_726\n      jump\t// in\n    tag_752:\n        /* \"#utility.yul\":3343:3350   */\n      swap4\n      pop\n        /* \"#utility.yul\":3402:3405   */\n      0x80\n        /* \"#utility.yul\":3387:3406   */\n      dup9\n      add\n        /* \"#utility.yul\":3374:3407   */\n      calldataload\n        /* \"#utility.yul\":3416:3449   */\n      tag_753\n        /* \"#utility.yul\":3374:3407   */\n      dup2\n        /* \"#utility.yul\":3416:3449   */\n      tag_726\n      jump\t// in\n    tag_753:\n        /* \"#utility.yul\":3468:3475   */\n      swap3\n      pop\n        /* \"#utility.yul\":3527:3530   */\n      0xa0\n        /* \"#utility.yul\":3512:3531   */\n      dup9\n      add\n        /* \"#utility.yul\":3499:3532   */\n      calldataload\n        /* \"#utility.yul\":3541:3574   */\n      tag_754\n        /* \"#utility.yul\":3499:3532   */\n      dup2\n        /* \"#utility.yul\":3541:3574   */\n      tag_726\n      jump\t// in\n    tag_754:\n        /* \"#utility.yul\":3593:3600   */\n      swap2\n      pop\n        /* \"#utility.yul\":3652:3655   */\n      0xc0\n        /* \"#utility.yul\":3637:3656   */\n      dup9\n      add\n        /* \"#utility.yul\":3624:3657   */\n      calldataload\n        /* \"#utility.yul\":3666:3699   */\n      tag_755\n        /* \"#utility.yul\":3624:3657   */\n      dup2\n        /* \"#utility.yul\":3666:3699   */\n      tag_726\n      jump\t// in\n    tag_755:\n        /* \"#utility.yul\":3718:3725   */\n      dup1\n        /* \"#utility.yul\":3708:3725   */\n      swap2\n      pop\n      pop\n        /* \"#utility.yul\":2707:3731   */\n      swap3\n      swap6\n      swap9\n      swap2\n      swap5\n      swap8\n      pop\n      swap3\n      swap6\n      pop\n      jump\t// out\n        /* \"#utility.yul\":3736:4013   */\n    tag_414:\n        /* \"#utility.yul\":3803:3809   */\n      0x00\n        /* \"#utility.yul\":3856:3858   */\n      0x20\n        /* \"#utility.yul\":3844:3853   */\n      dup3\n        /* \"#utility.yul\":3835:3842   */\n      dup5\n        /* \"#utility.yul\":3831:3854   */\n      sub\n        /* \"#utility.yul\":3827:3859   */\n      slt\n        /* \"#utility.yul\":3824:3876   */\n      iszero\n      tag_757\n      jumpi\n        /* \"#utility.yul\":3872:3873   */\n      0x00\n        /* \"#utility.yul\":3869:3870   */\n      dup1\n        /* \"#utility.yul\":3862:3874   */\n      revert\n        /* \"#utility.yul\":3824:3876   */\n    tag_757:\n        /* \"#utility.yul\":3904:3913   */\n      dup2\n        /* \"#utility.yul\":3898:3914   */\n      mload\n        /* \"#utility.yul\":3957:3962   */\n      dup1\n        /* \"#utility.yul\":3950:3963   */\n      iszero\n        /* \"#utility.yul\":3943:3964   */\n      iszero\n        /* \"#utility.yul\":3936:3941   */\n      dup2\n        /* \"#utility.yul\":3933:3965   */\n      eq\n        /* \"#utility.yul\":3923:3983   */\n      tag_399\n      jumpi\n        /* \"#utility.yul\":3979:3980   */\n      0x00\n        /* \"#utility.yul\":3976:3977   */\n      dup1\n        /* \"#utility.yul\":3969:3981   */\n      revert\n        /* \"#utility.yul\":4018:4468   */\n    tag_679:\n        /* \"#utility.yul\":4105:4111   */\n      0x00\n        /* \"#utility.yul\":4113:4119   */\n      dup1\n        /* \"#utility.yul\":4121:4127   */\n      0x00\n        /* \"#utility.yul\":4174:4176   */\n      0x60\n        /* \"#utility.yul\":4162:4171   */\n      dup5\n        /* \"#utility.yul\":4153:4160   */\n      dup7\n        /* \"#utility.yul\":4149:4172   */\n      sub\n        /* \"#utility.yul\":4145:4177   */\n      slt\n        /* \"#utility.yul\":4142:4194   */\n      iszero\n      tag_760\n      jumpi\n        /* \"#utility.yul\":4190:4191   */\n      0x00\n        /* \"#utility.yul\":4187:4188   */\n      dup1\n        /* \"#utility.yul\":4180:4192   */\n      revert\n        /* \"#utility.yul\":4142:4194   */\n    tag_760:\n        /* \"#utility.yul\":4213:4253   */\n      tag_761\n        /* \"#utility.yul\":4243:4252   */\n      dup5\n        /* \"#utility.yul\":4213:4253   */\n      tag_720\n      jump\t// in\n    tag_761:\n        /* \"#utility.yul\":4203:4253   */\n      swap3\n      pop\n        /* \"#utility.yul\":4272:4321   */\n      tag_762\n        /* \"#utility.yul\":4317:4319   */\n      0x20\n        /* \"#utility.yul\":4306:4315   */\n      dup6\n        /* \"#utility.yul\":4302:4320   */\n      add\n        /* \"#utility.yul\":4272:4321   */\n      tag_720\n      jump\t// in\n    tag_762:\n        /* \"#utility.yul\":4262:4321   */\n      swap2\n      pop\n        /* \"#utility.yul\":4364:4366   */\n      0x40\n        /* \"#utility.yul\":4353:4362   */\n      dup5\n        /* \"#utility.yul\":4349:4367   */\n      add\n        /* \"#utility.yul\":4343:4368   */\n      mload\n        /* \"#utility.yul\":4408:4418   */\n      0xffffffff\n        /* \"#utility.yul\":4401:4406   */\n      dup2\n        /* \"#utility.yul\":4397:4419   */\n      and\n        /* \"#utility.yul\":4390:4395   */\n      dup2\n        /* \"#utility.yul\":4387:4420   */\n      eq\n        /* \"#utility.yul\":4377:4438   */\n      tag_738\n      jumpi\n        /* \"#utility.yul\":4434:4435   */\n      0x00\n        /* \"#utility.yul\":4431:4432   */\n      dup1\n        /* \"#utility.yul\":4424:4436   */\n      revert\n        /* \"#utility.yul\":4473:4653   */\n    tag_57:\n        /* \"#utility.yul\":4532:4538   */\n      0x00\n        /* \"#utility.yul\":4585:4587   */\n      0x20\n        /* \"#utility.yul\":4573:4582   */\n      dup3\n        /* \"#utility.yul\":4564:4571   */\n      dup5\n        /* \"#utility.yul\":4560:4583   */\n      sub\n        /* \"#utility.yul\":4556:4588   */\n      slt\n        /* \"#utility.yul\":4553:4605   */\n      iszero\n      tag_765\n      jumpi\n        /* \"#utility.yul\":4601:4602   */\n      0x00\n        /* \"#utility.yul\":4598:4599   */\n      dup1\n        /* \"#utility.yul\":4591:4603   */\n      revert\n        /* \"#utility.yul\":4553:4605   */\n    tag_765:\n      pop\n        /* \"#utility.yul\":4624:4647   */\n      calldataload\n      swap2\n        /* \"#utility.yul\":4473:4653   */\n      swap1\n      pop\n      jump\t// out\n        /* \"#utility.yul\":4658:4842   */\n    tag_223:\n        /* \"#utility.yul\":4728:4734   */\n      0x00\n        /* \"#utility.yul\":4781:4783   */\n      0x20\n        /* \"#utility.yul\":4769:4778   */\n      dup3\n        /* \"#utility.yul\":4760:4767   */\n      dup5\n        /* \"#utility.yul\":4756:4779   */\n      sub\n        /* \"#utility.yul\":4752:4784   */\n      slt\n        /* \"#utility.yul\":4749:4801   */\n      iszero\n      tag_767\n      jumpi\n        /* \"#utility.yul\":4797:4798   */\n      0x00\n        /* \"#utility.yul\":4794:4795   */\n      dup1\n        /* \"#utility.yul\":4787:4799   */\n      revert\n        /* \"#utility.yul\":4749:4801   */\n    tag_767:\n      pop\n        /* \"#utility.yul\":4820:4836   */\n      mload\n      swap2\n        /* \"#utility.yul\":4658:4842   */\n      swap1\n      pop\n      jump\t// out\n        /* \"#utility.yul\":4847:5729   */\n    tag_35:\n        /* \"#utility.yul\":4951:4957   */\n      0x00\n        /* \"#utility.yul\":4959:4965   */\n      dup1\n        /* \"#utility.yul\":4967:4973   */\n      0x00\n        /* \"#utility.yul\":4975:4981   */\n      dup1\n        /* \"#utility.yul\":4983:4989   */\n      0x00\n        /* \"#utility.yul\":4991:4997   */\n      dup1\n        /* \"#utility.yul\":5044:5047   */\n      0xc0\n        /* \"#utility.yul\":5032:5041   */\n      dup8\n        /* \"#utility.yul\":5023:5030   */\n      dup10\n        /* \"#utility.yul\":5019:5042   */\n      sub\n        /* \"#utility.yul\":5015:5048   */\n      slt\n        /* \"#utility.yul\":5012:5065   */\n      iszero\n      tag_769\n      jumpi\n        /* \"#utility.yul\":5061:5062   */\n      0x00\n        /* \"#utility.yul\":5058:5059   */\n      dup1\n        /* \"#utility.yul\":5051:5063   */\n      revert\n        /* \"#utility.yul\":5012:5065   */\n    tag_769:\n        /* \"#utility.yul\":5097:5106   */\n      dup7\n        /* \"#utility.yul\":5084:5107   */\n      calldataload\n        /* \"#utility.yul\":5074:5107   */\n      swap6\n      pop\n        /* \"#utility.yul\":5157:5159   */\n      0x20\n        /* \"#utility.yul\":5146:5155   */\n      dup8\n        /* \"#utility.yul\":5142:5160   */\n      add\n        /* \"#utility.yul\":5129:5161   */\n      calldataload\n        /* \"#utility.yul\":5170:5201   */\n      tag_770\n        /* \"#utility.yul\":5195:5200   */\n      dup2\n        /* \"#utility.yul\":5170:5201   */\n      tag_726\n      jump\t// in\n    tag_770:\n        /* \"#utility.yul\":5220:5225   */\n      swap5\n      pop\n        /* \"#utility.yul\":5277:5279   */\n      0x40\n        /* \"#utility.yul\":5262:5280   */\n      dup8\n      add\n        /* \"#utility.yul\":5249:5281   */\n      calldataload\n        /* \"#utility.yul\":5290:5323   */\n      tag_771\n        /* \"#utility.yul\":5249:5281   */\n      dup2\n        /* \"#utility.yul\":5290:5323   */\n      tag_726\n      jump\t// in\n    tag_771:\n        /* \"#utility.yul\":5342:5349   */\n      swap4\n      pop\n        /* \"#utility.yul\":5401:5403   */\n      0x60\n        /* \"#utility.yul\":5386:5404   */\n      dup8\n      add\n        /* \"#utility.yul\":5373:5405   */\n      calldataload\n        /* \"#utility.yul\":5414:5447   */\n      tag_772\n        /* \"#utility.yul\":5373:5405   */\n      dup2\n        /* \"#utility.yul\":5414:5447   */\n      tag_726\n      jump\t// in\n    tag_772:\n        /* \"#utility.yul\":5466:5473   */\n      swap3\n      pop\n        /* \"#utility.yul\":5525:5528   */\n      0x80\n        /* \"#utility.yul\":5510:5529   */\n      dup8\n      add\n        /* \"#utility.yul\":5497:5530   */\n      calldataload\n        /* \"#utility.yul\":5539:5572   */\n      tag_773\n        /* \"#utility.yul\":5497:5530   */\n      dup2\n        /* \"#utility.yul\":5539:5572   */\n      tag_726\n      jump\t// in\n    tag_773:\n        /* \"#utility.yul\":5591:5598   */\n      swap2\n      pop\n        /* \"#utility.yul\":5650:5653   */\n      0xa0\n        /* \"#utility.yul\":5635:5654   */\n      dup8\n      add\n        /* \"#utility.yul\":5622:5655   */\n      calldataload\n        /* \"#utility.yul\":5664:5697   */\n      tag_774\n        /* \"#utility.yul\":5622:5655   */\n      dup2\n        /* \"#utility.yul\":5664:5697   */\n      tag_726\n      jump\t// in\n    tag_774:\n        /* \"#utility.yul\":5716:5723   */\n      dup1\n        /* \"#utility.yul\":5706:5723   */\n      swap2\n      pop\n      pop\n        /* \"#utility.yul\":4847:5729   */\n      swap3\n      swap6\n      pop\n      swap3\n      swap6\n      pop\n      swap3\n      swap6\n      jump\t// out\n        /* \"#utility.yul\":5734:5979   */\n    tag_231:\n        /* \"#utility.yul\":5813:5819   */\n      0x00\n        /* \"#utility.yul\":5821:5827   */\n      dup1\n        /* \"#utility.yul\":5874:5876   */\n      0x40\n        /* \"#utility.yul\":5862:5871   */\n      dup4\n        /* \"#utility.yul\":5853:5860   */\n      dup6\n        /* \"#utility.yul\":5849:5872   */\n      sub\n        /* \"#utility.yul\":5845:5877   */\n      slt\n        /* \"#utility.yul\":5842:5894   */\n      iszero\n      tag_776\n      jumpi\n        /* \"#utility.yul\":5890:5891   */\n      0x00\n        /* \"#utility.yul\":5887:5888   */\n      dup1\n        /* \"#utility.yul\":5880:5892   */\n      revert\n        /* \"#utility.yul\":5842:5894   */\n    tag_776:\n      pop\n      pop\n        /* \"#utility.yul\":5913:5929   */\n      dup1\n      mload\n        /* \"#utility.yul\":5969:5971   */\n      0x20\n        /* \"#utility.yul\":5954:5972   */\n      swap1\n      swap2\n      add\n        /* \"#utility.yul\":5948:5973   */\n      mload\n        /* \"#utility.yul\":5913:5929   */\n      swap1\n      swap3\n        /* \"#utility.yul\":5948:5973   */\n      swap1\n      swap2\n      pop\n        /* \"#utility.yul\":5734:5979   */\n      jump\t// out\n        /* \"#utility.yul\":5984:6290   */\n    tag_158:\n        /* \"#utility.yul\":6072:6078   */\n      0x00\n        /* \"#utility.yul\":6080:6086   */\n      dup1\n        /* \"#utility.yul\":6088:6094   */\n      0x00\n        /* \"#utility.yul\":6141:6143   */\n      0x60\n        /* \"#utility.yul\":6129:6138   */\n      dup5\n        /* \"#utility.yul\":6120:6127   */\n      dup7\n        /* \"#utility.yul\":6116:6139   */\n      sub\n        /* \"#utility.yul\":6112:6144   */\n      slt\n        /* \"#utility.yul\":6109:6161   */\n      iszero\n      tag_778\n      jumpi\n        /* \"#utility.yul\":6157:6158   */\n      0x00\n        /* \"#utility.yul\":6154:6155   */\n      dup1\n        /* \"#utility.yul\":6147:6159   */\n      revert\n        /* \"#utility.yul\":6109:6161   */\n    tag_778:\n        /* \"#utility.yul\":6186:6195   */\n      dup4\n        /* \"#utility.yul\":6180:6196   */\n      mload\n        /* \"#utility.yul\":6170:6196   */\n      swap3\n      pop\n        /* \"#utility.yul\":6236:6238   */\n      0x20\n        /* \"#utility.yul\":6225:6234   */\n      dup5\n        /* \"#utility.yul\":6221:6239   */\n      add\n        /* \"#utility.yul\":6215:6240   */\n      mload\n        /* \"#utility.yul\":6205:6240   */\n      swap2\n      pop\n        /* \"#utility.yul\":6280:6282   */\n      0x40\n        /* \"#utility.yul\":6269:6278   */\n      dup5\n        /* \"#utility.yul\":6265:6283   */\n      add\n        /* \"#utility.yul\":6259:6284   */\n      mload\n        /* \"#utility.yul\":6249:6284   */\n      swap1\n      pop\n        /* \"#utility.yul\":5984:6290   */\n      swap3\n      pop\n      swap3\n      pop\n      swap3\n      jump\t// out\n        /* \"#utility.yul\":6295:6756   */\n    tag_779:\n        /* \"#utility.yul\":6348:6351   */\n      0x00\n        /* \"#utility.yul\":6386:6391   */\n      dup2\n        /* \"#utility.yul\":6380:6392   */\n      mload\n        /* \"#utility.yul\":6413:6419   */\n      dup1\n        /* \"#utility.yul\":6408:6411   */\n      dup5\n        /* \"#utility.yul\":6401:6420   */\n      mstore\n        /* \"#utility.yul\":6439:6443   */\n      0x20\n        /* \"#utility.yul\":6468:6470   */\n      dup1\n        /* \"#utility.yul\":6463:6466   */\n      dup6\n        /* \"#utility.yul\":6459:6471   */\n      add\n        /* \"#utility.yul\":6452:6471   */\n      swap5\n      pop\n        /* \"#utility.yul\":6505:6507   */\n      dup1\n        /* \"#utility.yul\":6498:6503   */\n      dup5\n        /* \"#utility.yul\":6494:6508   */\n      add\n        /* \"#utility.yul\":6526:6527   */\n      0x00\n        /* \"#utility.yul\":6536:6731   */\n    tag_781:\n        /* \"#utility.yul\":6550:6556   */\n      dup4\n        /* \"#utility.yul\":6547:6548   */\n      dup2\n        /* \"#utility.yul\":6544:6557   */\n      lt\n        /* \"#utility.yul\":6536:6731   */\n      iszero\n      tag_783\n      jumpi\n        /* \"#utility.yul\":6615:6628   */\n      dup2\n      mload\n      sub(shl(0xa0, 0x01), 0x01)\n        /* \"#utility.yul\":6611:6650   */\n      and\n        /* \"#utility.yul\":6599:6651   */\n      dup8\n      mstore\n        /* \"#utility.yul\":6671:6683   */\n      swap6\n      dup3\n      add\n      swap6\n        /* \"#utility.yul\":6706:6721   */\n      swap1\n      dup3\n      add\n      swap1\n        /* \"#utility.yul\":6647:6648   */\n      0x01\n        /* \"#utility.yul\":6565:6574   */\n      add\n        /* \"#utility.yul\":6536:6731   */\n      jump(tag_781)\n    tag_783:\n      pop\n        /* \"#utility.yul\":6747:6750   */\n      swap5\n      swap6\n        /* \"#utility.yul\":6295:6756   */\n      swap5\n      pop\n      pop\n      pop\n      pop\n      pop\n      jump\t// out\n        /* \"#utility.yul\":6761:7018   */\n    tag_784:\n        /* \"#utility.yul\":6802:6805   */\n      0x00\n        /* \"#utility.yul\":6840:6845   */\n      dup2\n        /* \"#utility.yul\":6834:6846   */\n      mload\n        /* \"#utility.yul\":6867:6873   */\n      dup1\n        /* \"#utility.yul\":6862:6865   */\n      dup5\n        /* \"#utility.yul\":6855:6874   */\n      mstore\n        /* \"#utility.yul\":6883:6946   */\n      tag_786\n        /* \"#utility.yul\":6939:6945   */\n      dup2\n        /* \"#utility.yul\":6932:6936   */\n      0x20\n        /* \"#utility.yul\":6927:6930   */\n      dup7\n        /* \"#utility.yul\":6923:6937   */\n      add\n        /* \"#utility.yul\":6916:6920   */\n      0x20\n        /* \"#utility.yul\":6909:6914   */\n      dup7\n        /* \"#utility.yul\":6905:6921   */\n      add\n        /* \"#utility.yul\":6883:6946   */\n      tag_787\n      jump\t// in\n    tag_786:\n        /* \"#utility.yul\":7000:7002   */\n      0x1f\n        /* \"#utility.yul\":6979:6994   */\n      add\n      not(0x1f)\n        /* \"#utility.yul\":6975:7004   */\n      and\n        /* \"#utility.yul\":6966:7005   */\n      swap3\n      swap1\n      swap3\n      add\n        /* \"#utility.yul\":7007:7011   */\n      0x20\n        /* \"#utility.yul\":6962:7012   */\n      add\n      swap3\n        /* \"#utility.yul\":6761:7018   */\n      swap2\n      pop\n      pop\n      jump\t// out\n        /* \"#utility.yul\":7023:7297   */\n    tag_170:\n        /* \"#utility.yul\":7152:7155   */\n      0x00\n        /* \"#utility.yul\":7190:7196   */\n      dup3\n        /* \"#utility.yul\":7184:7197   */\n      mload\n        /* \"#utility.yul\":7206:7259   */\n      tag_789\n        /* \"#utility.yul\":7252:7258   */\n      dup2\n        /* \"#utility.yul\":7247:7250   */\n      dup5\n        /* \"#utility.yul\":7240:7244   */\n      0x20\n        /* \"#utility.yul\":7232:7238   */\n      dup8\n        /* \"#utility.yul\":7228:7245   */\n      add\n        /* \"#utility.yul\":7206:7259   */\n      tag_787\n      jump\t// in\n    tag_789:\n        /* \"#utility.yul\":7275:7291   */\n      swap2\n      swap1\n      swap2\n      add\n      swap3\n        /* \"#utility.yul\":7023:7297   */\n      swap2\n      pop\n      pop\n      jump\t// out\n        /* \"#utility.yul\":8892:9652   */\n    tag_161:\n      sub(shl(0xa0, 0x01), 0x01)\n        /* \"#utility.yul\":9307:9322   */\n      swap9\n      dup10\n      and\n        /* \"#utility.yul\":9289:9323   */\n      dup2\n      mstore\n        /* \"#utility.yul\":9359:9374   */\n      swap7\n      dup9\n      and\n        /* \"#utility.yul\":9354:9356   */\n      0x20\n        /* \"#utility.yul\":9339:9357   */\n      dup9\n      add\n        /* \"#utility.yul\":9332:9375   */\n      mstore\n        /* \"#utility.yul\":9406:9408   */\n      0x40\n        /* \"#utility.yul\":9391:9409   */\n      dup8\n      add\n        /* \"#utility.yul\":9384:9418   */\n      swap6\n      swap1\n      swap6\n      mstore\n        /* \"#utility.yul\":9449:9451   */\n      0x60\n        /* \"#utility.yul\":9434:9452   */\n      dup7\n      add\n        /* \"#utility.yul\":9427:9461   */\n      swap4\n      swap1\n      swap4\n      mstore\n        /* \"#utility.yul\":9492:9495   */\n      0x80\n        /* \"#utility.yul\":9477:9496   */\n      dup6\n      add\n        /* \"#utility.yul\":9470:9505   */\n      swap2\n      swap1\n      swap2\n      mstore\n        /* \"#utility.yul\":9269:9272   */\n      0xa0\n        /* \"#utility.yul\":9521:9540   */\n      dup5\n      add\n        /* \"#utility.yul\":9514:9549   */\n      mstore\n        /* \"#utility.yul\":9586:9601   */\n      swap1\n      swap3\n      and\n        /* \"#utility.yul\":9580:9583   */\n      0xc0\n        /* \"#utility.yul\":9565:9584   */\n      dup3\n      add\n        /* \"#utility.yul\":9558:9602   */\n      mstore\n        /* \"#utility.yul\":9633:9636   */\n      0xe0\n        /* \"#utility.yul\":9618:9637   */\n      dup2\n      add\n        /* \"#utility.yul\":9611:9646   */\n      swap2\n      swap1\n      swap2\n      mstore\n        /* \"#utility.yul\":9238:9241   */\n      0x0100\n        /* \"#utility.yul\":9223:9242   */\n      add\n      swap1\n        /* \"#utility.yul\":8892:9652   */\n      jump\t// out\n        /* \"#utility.yul\":9936:10543   */\n    tag_153:\n      sub(shl(0xa0, 0x01), 0x01)\n        /* \"#utility.yul\":10295:10310   */\n      swap7\n      dup8\n      and\n        /* \"#utility.yul\":10277:10311   */\n      dup2\n      mstore\n        /* \"#utility.yul\":10342:10344   */\n      0x20\n        /* \"#utility.yul\":10327:10345   */\n      dup2\n      add\n        /* \"#utility.yul\":10320:10354   */\n      swap6\n      swap1\n      swap6\n      mstore\n        /* \"#utility.yul\":10385:10387   */\n      0x40\n        /* \"#utility.yul\":10370:10388   */\n      dup6\n      add\n        /* \"#utility.yul\":10363:10397   */\n      swap4\n      swap1\n      swap4\n      mstore\n        /* \"#utility.yul\":10428:10430   */\n      0x60\n        /* \"#utility.yul\":10413:10431   */\n      dup5\n      add\n        /* \"#utility.yul\":10406:10440   */\n      swap2\n      swap1\n      swap2\n      mstore\n        /* \"#utility.yul\":10477:10492   */\n      swap1\n      swap3\n      and\n        /* \"#utility.yul\":10471:10474   */\n      0x80\n        /* \"#utility.yul\":10456:10475   */\n      dup3\n      add\n        /* \"#utility.yul\":10449:10493   */\n      mstore\n        /* \"#utility.yul\":10257:10260   */\n      0xa0\n        /* \"#utility.yul\":10509:10528   */\n      dup2\n      add\n        /* \"#utility.yul\":10502:10537   */\n      swap2\n      swap1\n      swap2\n      mstore\n        /* \"#utility.yul\":10226:10229   */\n      0xc0\n        /* \"#utility.yul\":10211:10230   */\n      add\n      swap1\n        /* \"#utility.yul\":9936:10543   */\n      jump\t// out\n        /* \"#utility.yul\":11160:11670   */\n    tag_123:\n        /* \"#utility.yul\":11431:11437   */\n      dup5\n        /* \"#utility.yul\":11420:11429   */\n      dup2\n        /* \"#utility.yul\":11413:11438   */\n      mstore\n        /* \"#utility.yul\":11474:11477   */\n      0x80\n        /* \"#utility.yul\":11469:11471   */\n      0x20\n        /* \"#utility.yul\":11458:11467   */\n      dup3\n        /* \"#utility.yul\":11454:11472   */\n      add\n        /* \"#utility.yul\":11447:11478   */\n      mstore\n        /* \"#utility.yul\":11394:11398   */\n      0x00\n        /* \"#utility.yul\":11495:11552   */\n      tag_799\n        /* \"#utility.yul\":11547:11550   */\n      0x80\n        /* \"#utility.yul\":11536:11545   */\n      dup4\n        /* \"#utility.yul\":11532:11551   */\n      add\n        /* \"#utility.yul\":11524:11530   */\n      dup7\n        /* \"#utility.yul\":11495:11552   */\n      tag_779\n      jump\t// in\n    tag_799:\n      sub(shl(0xa0, 0x01), 0x01)\n        /* \"#utility.yul\":11588:11620   */\n      swap5\n      swap1\n      swap5\n      and\n        /* \"#utility.yul\":11583:11585   */\n      0x40\n        /* \"#utility.yul\":11568:11586   */\n      dup4\n      add\n        /* \"#utility.yul\":11561:11621   */\n      mstore\n      pop\n        /* \"#utility.yul\":11652:11654   */\n      0x60\n        /* \"#utility.yul\":11637:11655   */\n      add\n        /* \"#utility.yul\":11630:11664   */\n      mstore\n        /* \"#utility.yul\":11487:11552   */\n      swap3\n        /* \"#utility.yul\":11160:11670   */\n      swap2\n      pop\n      pop\n      jump\t// out\n        /* \"#utility.yul\":11675:11894   */\n    tag_718:\n        /* \"#utility.yul\":11824:11826   */\n      0x20\n        /* \"#utility.yul\":11813:11822   */\n      dup2\n        /* \"#utility.yul\":11806:11827   */\n      mstore\n        /* \"#utility.yul\":11787:11791   */\n      0x00\n        /* \"#utility.yul\":11844:11888   */\n      tag_399\n        /* \"#utility.yul\":11884:11886   */\n      0x20\n        /* \"#utility.yul\":11873:11882   */\n      dup4\n        /* \"#utility.yul\":11869:11887   */\n      add\n        /* \"#utility.yul\":11861:11867   */\n      dup5\n        /* \"#utility.yul\":11844:11888   */\n      tag_784\n      jump\t// in\n        /* \"#utility.yul\":12713:13069   */\n    tag_188:\n        /* \"#utility.yul\":12915:12917   */\n      0x20\n        /* \"#utility.yul\":12897:12918   */\n      dup1\n      dup3\n      mstore\n        /* \"#utility.yul\":12934:12952   */\n      dup2\n      dup2\n      add\n        /* \"#utility.yul\":12927:12957   */\n      mstore\n        /* \"#utility.yul\":12993:13027   */\n      0x4f776e61626c653a2063616c6c6572206973206e6f7420746865206f776e6572\n        /* \"#utility.yul\":12988:12990   */\n      0x40\n        /* \"#utility.yul\":12973:12991   */\n      dup3\n      add\n        /* \"#utility.yul\":12966:13028   */\n      mstore\n        /* \"#utility.yul\":13060:13062   */\n      0x60\n        /* \"#utility.yul\":13045:13063   */\n      add\n      swap1\n        /* \"#utility.yul\":12713:13069   */\n      jump\t// out\n        /* \"#utility.yul\":15309:15708   */\n    tag_176:\n        /* \"#utility.yul\":15511:15513   */\n      0x20\n        /* \"#utility.yul\":15493:15514   */\n      dup1\n      dup3\n      mstore\n        /* \"#utility.yul\":15550:15552   */\n      0x23\n        /* \"#utility.yul\":15530:15548   */\n      swap1\n      dup3\n      add\n        /* \"#utility.yul\":15523:15553   */\n      mstore\n        /* \"#utility.yul\":15589:15623   */\n      0x5472616e7366657248656c7065723a204554485f5452414e534645525f464149\n        /* \"#utility.yul\":15584:15586   */\n      0x40\n        /* \"#utility.yul\":15569:15587   */\n      dup3\n      add\n        /* \"#utility.yul\":15562:15624   */\n      mstore\n      shl(0xea, 0x131151)\n        /* \"#utility.yul\":15655:15657   */\n      0x60\n        /* \"#utility.yul\":15640:15658   */\n      dup3\n      add\n        /* \"#utility.yul\":15633:15666   */\n      mstore\n        /* \"#utility.yul\":15698:15701   */\n      0x80\n        /* \"#utility.yul\":15683:15702   */\n      add\n      swap1\n        /* \"#utility.yul\":15309:15708   */\n      jump\t// out\n        /* \"#utility.yul\":16711:17293   */\n    tag_250:\n        /* \"#utility.yul\":17010:17016   */\n      dup6\n        /* \"#utility.yul\":16999:17008   */\n      dup2\n        /* \"#utility.yul\":16992:17017   */\n      mstore\n        /* \"#utility.yul\":17053:17059   */\n      dup5\n        /* \"#utility.yul\":17048:17050   */\n      0x20\n        /* \"#utility.yul\":17037:17046   */\n      dup3\n        /* \"#utility.yul\":17033:17051   */\n      add\n        /* \"#utility.yul\":17026:17060   */\n      mstore\n        /* \"#utility.yul\":17096:17099   */\n      0xa0\n        /* \"#utility.yul\":17091:17093   */\n      0x40\n        /* \"#utility.yul\":17080:17089   */\n      dup3\n        /* \"#utility.yul\":17076:17094   */\n      add\n        /* \"#utility.yul\":17069:17100   */\n      mstore\n        /* \"#utility.yul\":16973:16977   */\n      0x00\n        /* \"#utility.yul\":17117:17174   */\n      tag_816\n        /* \"#utility.yul\":17169:17172   */\n      0xa0\n        /* \"#utility.yul\":17158:17167   */\n      dup4\n        /* \"#utility.yul\":17154:17173   */\n      add\n        /* \"#utility.yul\":17146:17152   */\n      dup7\n        /* \"#utility.yul\":17117:17174   */\n      tag_779\n      jump\t// in\n    tag_816:\n      sub(shl(0xa0, 0x01), 0x01)\n        /* \"#utility.yul\":17210:17242   */\n      swap5\n      swap1\n      swap5\n      and\n        /* \"#utility.yul\":17205:17207   */\n      0x60\n        /* \"#utility.yul\":17190:17208   */\n      dup4\n      add\n        /* \"#utility.yul\":17183:17243   */\n      mstore\n      pop\n        /* \"#utility.yul\":17274:17277   */\n      0x80\n        /* \"#utility.yul\":17259:17278   */\n      add\n        /* \"#utility.yul\":17252:17287   */\n      mstore\n        /* \"#utility.yul\":17109:17174   */\n      swap4\n        /* \"#utility.yul\":16711:17293   */\n      swap3\n      pop\n      pop\n      pop\n      jump\t// out\n        /* \"#utility.yul\":17298:17756   */\n    tag_656:\n        /* \"#utility.yul\":17529:17535   */\n      dup5\n        /* \"#utility.yul\":17518:17527   */\n      dup2\n        /* \"#utility.yul\":17511:17536   */\n      mstore\n        /* \"#utility.yul\":17572:17578   */\n      dup4\n        /* \"#utility.yul\":17567:17569   */\n      0x20\n        /* \"#utility.yul\":17556:17565   */\n      dup3\n        /* \"#utility.yul\":17552:17570   */\n      add\n        /* \"#utility.yul\":17545:17579   */\n      mstore\n        /* \"#utility.yul\":17644:17645   */\n      0x01\n        /* \"#utility.yul\":17640:17641   */\n      dup1\n        /* \"#utility.yul\":17635:17638   */\n      0xa0\n        /* \"#utility.yul\":17631:17642   */\n      shl\n        /* \"#utility.yul\":17627:17646   */\n      sub\n        /* \"#utility.yul\":17619:17625   */\n      dup4\n        /* \"#utility.yul\":17615:17647   */\n      and\n        /* \"#utility.yul\":17610:17612   */\n      0x40\n        /* \"#utility.yul\":17599:17608   */\n      dup3\n        /* \"#utility.yul\":17595:17613   */\n      add\n        /* \"#utility.yul\":17588:17648   */\n      mstore\n        /* \"#utility.yul\":17684:17687   */\n      0x80\n        /* \"#utility.yul\":17679:17681   */\n      0x60\n        /* \"#utility.yul\":17668:17677   */\n      dup3\n        /* \"#utility.yul\":17664:17682   */\n      add\n        /* \"#utility.yul\":17657:17688   */\n      mstore\n        /* \"#utility.yul\":17492:17496   */\n      0x00\n        /* \"#utility.yul\":17705:17750   */\n      tag_818\n        /* \"#utility.yul\":17745:17748   */\n      0x80\n        /* \"#utility.yul\":17734:17743   */\n      dup4\n        /* \"#utility.yul\":17730:17749   */\n      add\n        /* \"#utility.yul\":17722:17728   */\n      dup5\n        /* \"#utility.yul\":17705:17750   */\n      tag_784\n      jump\t// in\n    tag_818:\n        /* \"#utility.yul\":17697:17750   */\n      swap7\n        /* \"#utility.yul\":17298:17756   */\n      swap6\n      pop\n      pop\n      pop\n      pop\n      pop\n      pop\n      jump\t// out\n        /* \"#utility.yul\":18085:18213   */\n    tag_432:\n        /* \"#utility.yul\":18125:18128   */\n      0x00\n        /* \"#utility.yul\":18156:18157   */\n      dup3\n        /* \"#utility.yul\":18152:18158   */\n      not\n        /* \"#utility.yul\":18149:18150   */\n      dup3\n        /* \"#utility.yul\":18146:18159   */\n      gt\n        /* \"#utility.yul\":18143:18182   */\n      iszero\n      tag_822\n      jumpi\n        /* \"#utility.yul\":18162:18180   */\n      tag_822\n      tag_823\n      jump\t// in\n    tag_822:\n      pop\n        /* \"#utility.yul\":18198:18207   */\n      add\n      swap1\n        /* \"#utility.yul\":18085:18213   */\n      jump\t// out\n        /* \"#utility.yul\":18218:18435   */\n    tag_96:\n        /* \"#utility.yul\":18258:18259   */\n      0x00\n        /* \"#utility.yul\":18284:18285   */\n      dup3\n        /* \"#utility.yul\":18274:18406   */\n      tag_825\n      jumpi\n        /* \"#utility.yul\":18328:18338   */\n      0x4e487b71\n        /* \"#utility.yul\":18323:18326   */\n      0xe0\n        /* \"#utility.yul\":18319:18339   */\n      shl\n        /* \"#utility.yul\":18316:18317   */\n      0x00\n        /* \"#utility.yul\":18309:18340   */\n      mstore\n        /* \"#utility.yul\":18363:18367   */\n      0x12\n        /* \"#utility.yul\":18360:18361   */\n      0x04\n        /* \"#utility.yul\":18353:18368   */\n      mstore\n        /* \"#utility.yul\":18391:18395   */\n      0x24\n        /* \"#utility.yul\":18388:18389   */\n      0x00\n        /* \"#utility.yul\":18381:18396   */\n      revert\n        /* \"#utility.yul\":18274:18406   */\n    tag_825:\n      pop\n        /* \"#utility.yul\":18420:18429   */\n      div\n      swap1\n        /* \"#utility.yul\":18218:18435   */\n      jump\t// out\n        /* \"#utility.yul\":18440:18608   */\n    tag_94:\n        /* \"#utility.yul\":18480:18487   */\n      0x00\n        /* \"#utility.yul\":18546:18547   */\n      dup2\n        /* \"#utility.yul\":18542:18543   */\n      0x00\n        /* \"#utility.yul\":18538:18544   */\n      not\n        /* \"#utility.yul\":18534:18548   */\n      div\n        /* \"#utility.yul\":18531:18532   */\n      dup4\n        /* \"#utility.yul\":18528:18549   */\n      gt\n        /* \"#utility.yul\":18523:18524   */\n      dup3\n        /* \"#utility.yul\":18516:18525   */\n      iszero\n        /* \"#utility.yul\":18509:18526   */\n      iszero\n        /* \"#utility.yul\":18505:18550   */\n      and\n        /* \"#utility.yul\":18502:18573   */\n      iszero\n      tag_828\n      jumpi\n        /* \"#utility.yul\":18553:18571   */\n      tag_828\n      tag_823\n      jump\t// in\n    tag_828:\n      pop\n        /* \"#utility.yul\":18593:18602   */\n      mul\n      swap1\n        /* \"#utility.yul\":18440:18608   */\n      jump\t// out\n        /* \"#utility.yul\":18613:18738   */\n    tag_92:\n        /* \"#utility.yul\":18653:18657   */\n      0x00\n        /* \"#utility.yul\":18681:18682   */\n      dup3\n        /* \"#utility.yul\":18678:18679   */\n      dup3\n        /* \"#utility.yul\":18675:18683   */\n      lt\n        /* \"#utility.yul\":18672:18706   */\n      iszero\n      tag_831\n      jumpi\n        /* \"#utility.yul\":18686:18704   */\n      tag_831\n      tag_823\n      jump\t// in\n    tag_831:\n      pop\n        /* \"#utility.yul\":18723:18732   */\n      sub\n      swap1\n        /* \"#utility.yul\":18613:18738   */\n      jump\t// out\n        /* \"#utility.yul\":18743:19001   */\n    tag_787:\n        /* \"#utility.yul\":18815:18816   */\n      0x00\n        /* \"#utility.yul\":18825:18938   */\n    tag_833:\n        /* \"#utility.yul\":18839:18845   */\n      dup4\n        /* \"#utility.yul\":18836:18837   */\n      dup2\n        /* \"#utility.yul\":18833:18846   */\n      lt\n        /* \"#utility.yul\":18825:18938   */\n      iszero\n      tag_835\n      jumpi\n        /* \"#utility.yul\":18915:18926   */\n      dup2\n      dup2\n      add\n        /* \"#utility.yul\":18909:18927   */\n      mload\n        /* \"#utility.yul\":18896:18907   */\n      dup4\n      dup3\n      add\n        /* \"#utility.yul\":18889:18928   */\n      mstore\n        /* \"#utility.yul\":18861:18863   */\n      0x20\n        /* \"#utility.yul\":18854:18864   */\n      add\n        /* \"#utility.yul\":18825:18938   */\n      jump(tag_833)\n    tag_835:\n        /* \"#utility.yul\":18956:18962   */\n      dup4\n        /* \"#utility.yul\":18953:18954   */\n      dup2\n        /* \"#utility.yul\":18950:18963   */\n      gt\n        /* \"#utility.yul\":18947:18995   */\n      iszero\n      tag_413\n      jumpi\n      pop\n      pop\n        /* \"#utility.yul\":18991:18992   */\n      0x00\n        /* \"#utility.yul\":18973:18989   */\n      swap2\n      add\n        /* \"#utility.yul\":18966:18993   */\n      mstore\n        /* \"#utility.yul\":18743:19001   */\n      jump\t// out\n        /* \"#utility.yul\":19006:19141   */\n    tag_661:\n        /* \"#utility.yul\":19045:19048   */\n      0x00\n      not(0x00)\n        /* \"#utility.yul\":19066:19083   */\n      dup3\n      eq\n        /* \"#utility.yul\":19063:19106   */\n      iszero\n      tag_839\n      jumpi\n        /* \"#utility.yul\":19086:19104   */\n      tag_839\n      tag_823\n      jump\t// in\n    tag_839:\n      pop\n        /* \"#utility.yul\":19133:19134   */\n      0x01\n        /* \"#utility.yul\":19122:19135   */\n      add\n      swap1\n        /* \"#utility.yul\":19006:19141   */\n      jump\t// out\n        /* \"#utility.yul\":19146:19273   */\n    tag_823:\n        /* \"#utility.yul\":19207:19217   */\n      0x4e487b71\n        /* \"#utility.yul\":19202:19205   */\n      0xe0\n        /* \"#utility.yul\":19198:19218   */\n      shl\n        /* \"#utility.yul\":19195:19196   */\n      0x00\n        /* \"#utility.yul\":19188:19219   */\n      mstore\n        /* \"#utility.yul\":19238:19242   */\n      0x11\n        /* \"#utility.yul\":19235:19236   */\n      0x04\n        /* \"#utility.yul\":19228:19243   */\n      mstore\n        /* \"#utility.yul\":19262:19266   */\n      0x24\n        /* \"#utility.yul\":19259:19260   */\n      0x00\n        /* \"#utility.yul\":19252:19267   */\n      revert\n        /* \"#utility.yul\":19278:19405   */\n    tag_119:\n        /* \"#utility.yul\":19339:19349   */\n      0x4e487b71\n        /* \"#utility.yul\":19334:19337   */\n      0xe0\n        /* \"#utility.yul\":19330:19350   */\n      shl\n        /* \"#utility.yul\":19327:19328   */\n      0x00\n        /* \"#utility.yul\":19320:19351   */\n      mstore\n        /* \"#utility.yul\":19370:19374   */\n      0x32\n        /* \"#utility.yul\":19367:19368   */\n      0x04\n        /* \"#utility.yul\":19360:19375   */\n      mstore\n        /* \"#utility.yul\":19394:19398   */\n      0x24\n        /* \"#utility.yul\":19391:19392   */\n      0x00\n        /* \"#utility.yul\":19384:19399   */\n      revert\n        /* \"#utility.yul\":19542:19673   */\n    tag_726:\n      sub(shl(0xa0, 0x01), 0x01)\n        /* \"#utility.yul\":19617:19648   */\n      dup2\n      and\n        /* \"#utility.yul\":19607:19649   */\n      dup2\n      eq\n        /* \"#utility.yul\":19597:19667   */\n      tag_391\n      jumpi\n        /* \"#utility.yul\":19663:19664   */\n      0x00\n        /* \"#utility.yul\":19660:19661   */\n      dup1\n        /* \"#utility.yul\":19653:19665   */\n      revert\n\n    auxdata: 0xa2646970667358221220b16f6f9eefd9896bad3d37127febfc40bed7ade530d306ef9a5da01437acf6bf64736f6c63430008070033\n}\n",
				"bytecode": {
					"linkReferences": {},
					"object": "60806040526000196001556000600555600a6006553480156200002157600080fd5b506040516200399d3803806200399d8339810160408190526200004491620000ee565b6200004f3362000081565b600480546001600160a01b039384166001600160a01b0319918216179091556007805492909316911617905562000126565b600080546001600160a01b038381166001600160a01b0319831681178455604051919092169283917f8be0079c531659141344cd1fd0a4f28419497f9722a3daafe3b4186f6b6457e09190a35050565b80516001600160a01b0381168114620000e957600080fd5b919050565b600080604083850312156200010257600080fd5b6200010d83620000d1565b91506200011d60208401620000d1565b90509250929050565b61386780620001366000396000f3fe6080604052600436106100ec5760003560e01c80637d9462171161008a578063b5332d6011610059578063b5332d6014610254578063e1598e4c14610274578063e799ffb11461028a578063f2fde38b1461029f57600080fd5b80637d946217146101d65780638da5cb5b146101f65780638f1b077214610214578063ac5cad561461023457600080fd5b80635bdcdd54116100c65780635bdcdd541461015657806361d027b314610169578063715018a6146101a15780637a69df21146101b657600080fd5b80631f927dcb146100f8578063423c79d8146101215780635b6caa4c1461013657600080fd5b366100f357005b600080fd5b34801561010457600080fd5b5061010e60065481565b6040519081526020015b60405180910390f35b61013461012f366004613226565b6102bf565b005b34801561014257600080fd5b5061013461015136600461342b565b6108e1565b6101346101643660046131ed565b610925565b34801561017557600080fd5b50600754610189906001600160a01b031681565b6040516001600160a01b039091168152602001610118565b3480156101ad57600080fd5b50610134610942565b3480156101c257600080fd5b506101346101d1366004613271565b610978565b3480156101e257600080fd5b506101346101f13660046133f9565b6109a7565b34801561020257600080fd5b506000546001600160a01b0316610189565b34801561022057600080fd5b5061013461022f366004613305565b610a28565b34801561024057600080fd5b5061013461024f3660046131b3565b61122c565b34801561026057600080fd5b5061013461026f36600461329d565b6112ea565b34801561028057600080fd5b5061010e60055481565b34801561029657600080fd5b50610134611774565b3480156102ab57600080fd5b506101346102ba3660046131b3565b6117d3565b600280546001600160a01b03199081166001600160a01b03848116918217909355600880549092161790556004546102f8911634610978565b6000806000806127106006546127106103119190613792565b61031b9034613773565b6103259190613751565b60045490915060009081906001600160a01b038a811691161415610347579697965b6004546001600160a01b038981169116141561037857826103678961186e565b6103719190613792565b9550610384565b6103818861186e565b95505b61038d8961186e565b945060065461138861039f9190613792565b6103ab61271085613751565b6103b59190613773565b60408051600280825260608201835292965060009290916020830190803683375050600854604080516315ab88c960e31b815290519394506001600160a01b039091169263ad5c464892506004808301926020929190829003018186803b15801561041f57600080fd5b505afa158015610433573d6000803e3d6000fd5b505050506040513d601f19601f8201168201806040525081019061045791906131d0565b8160008151811061046a5761046a613806565b60200260200101906001600160a01b031690816001600160a01b031681525050898160018151811061049e5761049e613806565b6001600160a01b03928316602091820292909201015260085460405163b6f9de9560e01b815291169063b6f9de959087906104e490600090869030904290600401613606565b6000604051808303818588803b1580156104fd57600080fd5b505af1158015610511573d6000803e3d6000fd5b50506004546001600160a01b038d8116911614925061069a915050576105378585613792565b60408051600280825260608201835292975060009290916020830190803683375050600854604080516315ab88c960e31b815290519394506001600160a01b039091169263ad5c464892506004808301926020929190829003018186803b1580156105a157600080fd5b505afa1580156105b5573d6000803e3d6000fd5b505050506040513d601f19601f820116820180604052508101906105d991906131d0565b816000815181106105ec576105ec613806565b60200260200101906001600160a01b031690816001600160a01b031681525050898160018151811061062057610620613806565b6001600160a01b03928316602091820292909201015260085460405163b6f9de9560e01b815291169063b6f9de9590889061066690600090869030904290600401613606565b6000604051808303818588803b15801561067f57600080fd5b505af1158015610693573d6000803e3d6000fd5b5050505050505b856106a48b61186e565b6106ae9190613792565b9150866106ba8a61186e565b6106c49190613792565b6002549093506106e0908b9084906001600160a01b0316611914565b6002546106f9908a9085906001600160a01b0316611914565b6004546001600160a01b038a8116911614156107a65760085460405163f305d71960e01b81526001600160a01b039091169063f305d71990859061074c908e9087906000908190339042906004016135cb565b6060604051808303818588803b15801561076557600080fd5b505af1158015610779573d6000803e3d6000fd5b50505050506040513d601f19601f8201168201806040525081019061079e91906134c8565b50505061083a565b60085460405162e8e33760e81b81526001600160a01b039091169063e8e33700906107e4908d908d9087908990600090819033904290600401613582565b606060405180830381600087803b1580156107fe57600080fd5b505af1158015610812573d6000803e3d6000fd5b505050506040513d601f19601f8201168201806040525081019061083691906134c8565b5050505b6007546040805160008082526020820192839052926001600160a01b031691479161086491613566565b60006040518083038185875af1925050503d80600081146108a1576040519150601f19603f3d011682016040523d82523d6000602084013e6108a6565b606091505b50509050806108d05760405162461bcd60e51b81526004016108c790613683565b60405180910390fd5b505047600555505050505050505050565b600280546001600160a01b038085166001600160a01b031992831617909255600380549284169290911691909117905561091d86868686611a2a565b505050505050565b60045461093e906001600160a01b0316348484806112ea565b5050565b6000546001600160a01b0316331461096c5760405162461bcd60e51b81526004016108c79061364e565b61097660006125f9565b565b6004546001600160a01b038381169116141561099f576109988147613792565b6005555050565b476005555050565b6000546001600160a01b031633146109d15760405162461bcd60e51b81526004016108c79061364e565b600181101580156109e457506103e88111155b610a235760405162461bcd60e51b815260206004820152601060248201526f04265747765656e203120616e642031360841b60448201526064016108c7565b600655565b610a328787610978565b6004546001600160a01b0386811691161415610a4c579293925b600880546001600160a01b03199081166001600160a01b0386811691909117909255600980548216848416179055600a805482168a8416179055600d80548216858416179055600b80548216888416179055600c805490911691861691909117905560008080808080610abe8b61186e565b9550610ac98a61186e565b9450610ad48861186e565b47600555600a54909450610af3906001600160a01b031633308f612649565b610afe8d8d8b611914565b6004546001600160a01b038b811691161415610bb857600860009054906101000a90046001600160a01b03166001600160a01b031663af2979eb8c8e60018030426040518763ffffffff1660e01b8152600401610b60969594939291906135cb565b602060405180830381600087803b158015610b7a57600080fd5b505af1158015610b8e573d6000803e3d6000fd5b505050506040513d601f19601f82011682018060405250810190610bb29190613412565b50610c62565b600854604051635d5155ef60e11b81526001600160a01b038d811660048301528c81166024830152604482018f905260016064830181905260848301523060a48301524260c48301529091169063baa2abde9060e4016040805180830381600087803b158015610c2757600080fd5b505af1158015610c3b573d6000803e3d6000fd5b505050506040513d601f19601f82011682018060405250810190610c5f91906134a4565b50505b85610c6c8c61186e565b610c769190613792565b915084610c828b61186e565b610c8c9190613792565b9050876001600160a01b03168b6001600160a01b031614610e0057610cb28b838b611914565b6040805160028082526060820183526000926020830190803683370190505090508b81600081518110610ce757610ce7613806565b6001600160a01b03928316602091820292909201810191909152600854604080516315ab88c960e31b81529051919093169263ad5c4648926004808301939192829003018186803b158015610d3b57600080fd5b505afa158015610d4f573d6000803e3d6000fd5b505050506040513d601f19601f82011682018060405250810190610d7391906131d0565b81600181518110610d8657610d86613806565b6001600160a01b03928316602091820292909201015260085460405163791ac94760e01b815291169063791ac94790610dcc9086906000908690309042906004016136c6565b600060405180830381600087803b158015610de657600080fd5b505af1158015610dfa573d6000803e3d6000fd5b50505050505b876001600160a01b03168a6001600160a01b031614610f87576004546001600160a01b038b8116911614610f8757610e398a828b611914565b6040805160028082526060820183526000926020830190803683370190505090508a81600081518110610e6e57610e6e613806565b6001600160a01b03928316602091820292909201810191909152600854604080516315ab88c960e31b81529051919093169263ad5c4648926004808301939192829003018186803b158015610ec257600080fd5b505afa158015610ed6573d6000803e3d6000fd5b505050506040513d601f19601f82011682018060405250810190610efa91906131d0565b81600181518110610f0d57610f0d613806565b6001600160a01b03928316602091820292909201015260085460405163791ac94760e01b815291169063791ac94790610f539085906000908690309042906004016136c6565b600060405180830381600087803b158015610f6d57600080fd5b505af1158015610f81573d6000803e3d6000fd5b50505050505b612710600654612710610f9a9190613792565b600554610fa79047613792565b610fb19190613773565b610fbb9190613751565b6004549093506001600160a01b0389811691161415610fe257610fdd836126b4565b61116b565b6040805160028082526060820183526000926020830190803683375050600854604080516315ab88c960e31b815290519394506001600160a01b039091169263ad5c464892506004808301926020929190829003018186803b15801561104757600080fd5b505afa15801561105b573d6000803e3d6000fd5b505050506040513d601f19601f8201168201806040525081019061107f91906131d0565b8160008151811061109257611092613806565b60200260200101906001600160a01b031690816001600160a01b03168152505088816001815181106110c6576110c6613806565b6001600160a01b03928316602091820292909201015260095460405163b6f9de9560e01b815291169063b6f9de9590869061110c90600090869030904290600401613606565b6000604051808303818588803b15801561112557600080fd5b505af1158015611139573d6000803e3d6000fd5b5050505050611169338661114c8c61186e565b6111569190613792565b600d546001600160a01b031691906126e1565b505b6007546000906001600160a01b031647825b6040519080825280601f01601f1916602001820160405280156111a7576020820181803683370190505b506040516111b59190613566565b60006040518083038185875af1925050503d80600081146111f2576040519150601f19603f3d011682016040523d82523d6000602084013e6111f7565b606091505b50509050806112185760405162461bcd60e51b81526004016108c790613683565b505047600555505050505050505050505050565b6000546001600160a01b031633146112565760405162461bcd60e51b81526004016108c79061364e565b476005556040516370a0823160e01b81523060048201526000906001600160a01b038316906370a082319060240160206040518083038186803b15801561129c57600080fd5b505afa1580156112b0573d6000803e3d6000fd5b505050506040513d601f19601f820116820180604052508101906112d49190613412565b905061093e6001600160a01b03831633836126e1565b826001600160a01b0316856001600160a01b0316141561135d5760405162461bcd60e51b815260206004820152602860248201527f546f6b656e20496e2063616e6e6f74206265207468652073616d6520617320546044820152671bdad95b881bdd5d60c21b60648201526084016108c7565b6113678585610978565b600880546001600160a01b038085166001600160a01b03199283161790925560098054848416908316179055600b805488841692168217905560045460009216146115215760408051600280825260608201835260009260208301908036833701905050905086816000815181106113e1576113e1613806565b6001600160a01b03928316602091820292909201810191909152600854604080516315ab88c960e31b81529051919093169263ad5c4648926004808301939192829003018186803b15801561143557600080fd5b505afa158015611449573d6000803e3d6000fd5b505050506040513d601f19601f8201168201806040525081019061146d91906131d0565b8160018151811061148057611480613806565b6001600160a01b039283166020918202929092018101919091526008546040805163c45a015560e01b81529051600094929092169263c45a01559260048084019382900301818787803b1580156114d657600080fd5b505af11580156114ea573d6000803e3d6000fd5b505050506040513d601f19601f8201168201806040525081019061150e91906131d0565b905061151e876000848489612711565b50505b6127106006546127106115349190613792565b6005546115419047613792565b61154b9190613773565b6115559190613751565b6004549091506001600160a01b038581169116141561157c57611577816126b4565b6116da565b6040805160028082526060820183526000926020830190803683375050600854604080516315ab88c960e31b815290519394506001600160a01b039091169263ad5c464892506004808301926020929190829003018186803b1580156115e157600080fd5b505afa1580156115f5573d6000803e3d6000fd5b505050506040513d601f19601f8201168201806040525081019061161991906131d0565b8160008151811061162c5761162c613806565b60200260200101906001600160a01b031690816001600160a01b031681525050848160018151811061166057611660613806565b6001600160a01b03928316602091820292909201015260095460405163b6f9de9560e01b815291169063b6f9de959084906116a690600090869033904290600401613606565b6000604051808303818588803b1580156116bf57600080fd5b505af11580156116d3573d6000803e3d6000fd5b5050505050505b6007546040805160008082526020820192839052926001600160a01b031691479161170491613566565b60006040518083038185875af1925050503d8060008114611741576040519150601f19603f3d011682016040523d82523d6000602084013e611746565b606091505b50509050806117675760405162461bcd60e51b81526004016108c790613683565b5050476005555050505050565b6000546001600160a01b0316331461179e5760405162461bcd60e51b81526004016108c79061364e565b600554604051339180156108fc02916000818181858888f193505050501580156117cc573d6000803e3d6000fd5b5047600555565b6000546001600160a01b031633146117fd5760405162461bcd60e51b81526004016108c79061364e565b6001600160a01b0381166118625760405162461bcd60e51b815260206004820152602660248201527f4f776e61626c653a206e6577206f776e657220697320746865207a65726f206160448201526564647265737360d01b60648201526084016108c7565b61186b816125f9565b50565b6004546000906001600160a01b038381169116141561188e575047919050565b6040516370a0823160e01b81523060048201526000906001600160a01b038416906370a082319060240160206040518083038186803b1580156118d057600080fd5b505afa1580156118e4573d6000803e3d6000fd5b505050506040513d601f19601f820116820180604052508101906119089190613412565b9392505050565b919050565b604051636eb1769f60e11b81523060048201526001600160a01b03828116602483015283919085169063dd62ed3e9060440160206040518083038186803b15801561195e57600080fd5b505afa158015611972573d6000803e3d6000fd5b505050506040513d601f19601f820116820180604052508101906119969190613412565b1015611a255760015460405163095ea7b360e01b81526001600160a01b03838116600483015260248201929092529084169063095ea7b390604401602060405180830381600087803b1580156119eb57600080fd5b505af11580156119ff573d6000803e3d6000fd5b505050506040513d601f19601f82011682018060405250810190611a239190613392565b505b505050565b6004546001600160a01b0383811691161415611a4257905b611a4c8385610978565b6000806000806000806000806000600460009054906101000a90046001600160a01b03166001600160a01b03168a6001600160a01b03161415611a93576005549850611a9f565b611a9c8a61186e565b98505b600254600880546001600160a01b039283166001600160a01b03199182161790915560035460098054918416918316919091179055600d805482168f8416908117909155600b805483168f8516179055600c80549092168d84161790915560045490911614611b4857611b118c61186e565b9750611b4833308f600d60009054906101000a90046001600160a01b03166001600160a01b0316612649909392919063ffffffff16565b6004546001600160a01b038d811691161415611b66578c9650611b7d565b87611b708d61186e565b611b7a9190613792565b96505b896001600160a01b03168c6001600160a01b03161415611ba05760009250611bea565b8a6001600160a01b03168c6001600160a01b03161415611be657600654611bc990611388613739565b611bd561271089613751565b611bdf9190613773565b9250611bea565b8692505b600254611c03908d9085906001600160a01b0316611914565b611c0c8a61186e565b95508215611f1b57600454600090611c2c906001600160a01b031661186e565b60408051600280825260608201835292935060009290916020830190803683370190505090508d81600081518110611c6657611c66613806565b6001600160a01b03928316602091820292909201810191909152600854604080516315ab88c960e31b81529051919093169263ad5c4648926004808301939192829003018186803b158015611cba57600080fd5b505afa158015611cce573d6000803e3d6000fd5b505050506040513d601f19601f82011682018060405250810190611cf291906131d0565b81600181518110611d0557611d05613806565b6001600160a01b03928316602091820292909201015260085460405163791ac94760e01b815291169063791ac94790611d4b9088906000908690309042906004016136c6565b600060405180830381600087803b158015611d6557600080fd5b505af1158015611d79573d6000803e3d6000fd5b50506004546001600160a01b038f81169116149150611f189050576004548290611dab906001600160a01b031661186e565b611db59190613792565b60408051600280825260608201835292975060009290916020830190803683375050600954604080516315ab88c960e31b815290519394506001600160a01b039091169263ad5c464892506004808301926020929190829003018186803b158015611e1f57600080fd5b505afa158015611e33573d6000803e3d6000fd5b505050506040513d601f19601f82011682018060405250810190611e5791906131d0565b81600081518110611e6a57611e6a613806565b60200260200101906001600160a01b031690816001600160a01b0316815250508c81600181518110611e9e57611e9e613806565b6001600160a01b03928316602091820292909201015260095460405163b6f9de9560e01b815291169063b6f9de95908890611ee490600090869030904290600401613606565b6000604051808303818588803b158015611efd57600080fd5b505af1158015611f11573d6000803e3d6000fd5b5050505050505b50505b896001600160a01b03168c6001600160a01b03161415611f3d57869450611f54565b85611f478b61186e565b611f519190613792565b94505b611f5d8b61186e565b93508a6001600160a01b03168c6001600160a01b03161461242057600654611f8790611388613792565b611f9361271087613751565b611f9d9190613773565b600354909350611fb9908b9085906001600160a01b0316611914565b6004546001600160a01b038b811691161415612131576040805160028082526060820183526000926020830190803683375050600954604080516315ab88c960e31b815290519394506001600160a01b039091169263ad5c464892506004808301926020929190829003018186803b15801561203457600080fd5b505afa158015612048573d6000803e3d6000fd5b505050506040513d601f19601f8201168201806040525081019061206c91906131d0565b8160008151811061207f5761207f613806565b60200260200101906001600160a01b031690816001600160a01b0316815250508b816001815181106120b3576120b3613806565b6001600160a01b03928316602091820292909201015260095460405163b6f9de9560e01b815291169063b6f9de959086906120f990600090869030904290600401613606565b6000604051808303818588803b15801561211257600080fd5b505af1158015612126573d6000803e3d6000fd5b505050505050612420565b600454600090612149906001600160a01b031661186e565b60408051600280825260608201835292935060009290916020830190803683370190505090508b8160008151811061218357612183613806565b6001600160a01b03928316602091820292909201810191909152600954604080516315ab88c960e31b81529051919093169263ad5c4648926004808301939192829003018186803b1580156121d757600080fd5b505afa1580156121eb573d6000803e3d6000fd5b505050506040513d601f19601f8201168201806040525081019061220f91906131d0565b8160018151811061222257612222613806565b6001600160a01b03928316602091820292909201015260095460405163791ac94760e01b815291169063791ac947906122689088906000908690309042906004016136c6565b600060405180830381600087803b15801561228257600080fd5b505af1158015612296573d6000803e3d6000fd5b50506004548492506122b191506001600160a01b031661186e565b6122bb9190613792565b60408051600280825260608201835292975060009290916020830190803683375050600954604080516315ab88c960e31b815290519394506001600160a01b039091169263ad5c464892506004808301926020929190829003018186803b15801561232557600080fd5b505afa158015612339573d6000803e3d6000fd5b505050506040513d601f19601f8201168201806040525081019061235d91906131d0565b8160008151811061237057612370613806565b60200260200101906001600160a01b031690816001600160a01b0316815250508d816001815181106123a4576123a4613806565b6001600160a01b03928316602091820292909201015260095460405163b6f9de9560e01b815291169063b6f9de959088906123ea90600090879030904290600401613606565b6000604051808303818588803b15801561240357600080fd5b505af1158015612417573d6000803e3d6000fd5b50505050505050505b8b6001600160a01b03168b6001600160a01b03161415612444575082905083612471565b8361244e8c61186e565b6124589190613792565b9150886124648b61186e565b61246e9190613792565b90505b60035461248a908c9084906001600160a01b0316611914565b6003546124a3908b9083906001600160a01b0316611914565b6004546001600160a01b038b8116911614156125505760095460405163f305d71960e01b81526001600160a01b039091169063f305d7199083906124f6908f9087906000908190339042906004016135cb565b6060604051808303818588803b15801561250f57600080fd5b505af1158015612523573d6000803e3d6000fd5b50505050506040513d601f19601f8201168201806040525081019061254891906134c8565b50505061116b565b60095460405162e8e33760e81b81526001600160a01b039091169063e8e337009061258e908e908e9087908790600090819033904290600401613582565b606060405180830381600087803b1580156125a857600080fd5b505af11580156125bc573d6000803e3d6000fd5b505050506040513d601f19601f820116820180604052508101906125e091906134c8565b5050506007546000906001600160a01b0316478261117d565b600080546001600160a01b038381166001600160a01b0319831681178455604051919092169283917f8be0079c531659141344cd1fd0a4f28419497f9722a3daafe3b4186f6b6457e09190a35050565b6040516001600160a01b0380851660248301528316604482015260648101829052611a239085906323b872dd60e01b906084015b60408051601f198184030181529190526020810180516001600160e01b03166001600160e01b031990931692909217909152612957565b604051339082156108fc029083906000818181858888f1935050505015801561093e573d6000803e3d6000fd5b6040516001600160a01b038316602482015260448101829052611a2590849063a9059cbb60e01b9060640161267d565b600880546001600160a01b0319166001600160a01b038316908117909155604080516315ab88c960e31b815290516000929163ad5c4648916004808301926020929190829003018186803b15801561276857600080fd5b505afa15801561277c573d6000803e3d6000fd5b505050506040513d601f19601f820116820180604052508101906127a091906131d0565b9050612806846000815181106127b8576127b8613806565b60200260200101513361280086886000815181106127d8576127d8613806565b6020026020010151896001815181106127f3576127f3613806565b6020026020010151612a29565b89612ab6565b61281284308585612bde565b6040516370a0823160e01b81523060048201526000906001600160a01b038316906370a082319060240160206040518083038186803b15801561285457600080fd5b505afa158015612868573d6000803e3d6000fd5b505050506040513d601f19601f8201168201806040525081019061288c9190613412565b9050858110156128f45760405162461bcd60e51b815260206004820152602d60248201527f4661726d61676564646f6e526f757465723a20494e53554646494349454e545f60448201526c13d55514155517d05353d55395609a1b60648201526084016108c7565b604051632e1a7d4d60e01b8152600481018290526001600160a01b03831690632e1a7d4d90602401600060405180830381600087803b15801561293657600080fd5b505af115801561294a573d6000803e3d6000fd5b5050505050505050505050565b60006129ac826040518060400160405280602081526020017f5361666545524332303a206c6f772d6c6576656c2063616c6c206661696c6564815250856001600160a01b0316612d409092919063ffffffff16565b805190915015611a2557808060200190518101906129ca9190613392565b611a255760405162461bcd60e51b815260206004820152602a60248201527f5361666545524332303a204552433230206f7065726174696f6e20646964206e6044820152691bdd081cdd58d8d9595960b21b60648201526084016108c7565b60405163e6a4390560e01b81526001600160a01b03838116600483015282811660248301526000919085169063e6a439059060440160206040518083038186803b158015612a7657600080fd5b505afa158015612a8a573d6000803e3d6000fd5b505050506040513d601f19601f82011682018060405250810190612aae91906131d0565b949350505050565b604080516001600160a01b0385811660248301528481166044830152606480830185905283518084039091018152608490920183526020820180516001600160e01b03166323b872dd60e01b1790529151600092839290881691612b1a9190613566565b6000604051808303816000865af19150503d8060008114612b57576040519150601f19603f3d011682016040523d82523d6000602084013e612b5c565b606091505b5091509150818015612b86575080511580612b86575080806020019051810190612b869190613392565b61091d5760405162461bcd60e51b8152602060048201526024808201527f5472616e7366657248656c7065723a205452414e534645525f46524f4d5f46416044820152631253115160e21b60648201526084016108c7565b60005b60018551612bef9190613792565b811015612d3957600080868381518110612c0b57612c0b613806565b602002602001015187846001612c219190613739565b81518110612c3157612c31613806565b6020026020010151915091506000612c498383612d4f565b5090506000612c59878585612a29565b9050600080612c6a8387868b612e32565b91509150600060028c51612c7e9190613792565b8810612c8a578a612cab565b612cab8a878e612c9b8c6002613739565b815181106127f3576127f3613806565b6040805160008152602081019182905263022c0d9f60e01b9091529091506001600160a01b0385169063022c0d9f90612ced9086908690869060248101613702565b600060405180830381600087803b158015612d0757600080fd5b505af1158015612d1b573d6000803e3d6000fd5b50505050505050505050508080612d31906137d5565b915050612be1565b5050505050565b6060612aae848460008561303b565b600080826001600160a01b0316846001600160a01b03161415612db45760405162461bcd60e51b815260206004820152601d60248201527f494c6962726172793a204944454e544943414c5f41444452455353455300000060448201526064016108c7565b826001600160a01b0316846001600160a01b031610612dd4578284612dd7565b83835b90925090506001600160a01b038216612e2b5760405162461bcd60e51b8152602060048201526016602482015275494c6962726172793a205a45524f5f4144445245535360501b60448201526064016108c7565b9250929050565b600080600080876001600160a01b0316630902f1ac6040518163ffffffff1660e01b815260040160606040518083038186803b158015612e7157600080fd5b505afa158015612e85573d6000803e3d6000fd5b505050506040513d601f19601f82011682018060405250810190612ea991906133b4565b506001600160701b031691506001600160701b03169150600080876001600160a01b0316896001600160a01b031614612ee3578284612ee6565b83835b6040516370a0823160e01b81526001600160a01b038d811660048301529294509092506000918491908c16906370a082319060240160206040518083038186803b158015612f3357600080fd5b505afa158015612f47573d6000803e3d6000fd5b505050506040513d601f19601f82011682018060405250810190612f6b9190613412565b612f759190613792565b604051630153543560e21b81526004810182905260248101859052604481018490529091506000906001600160a01b038a169063054d50d49060640160206040518083038186803b158015612fc957600080fd5b505afa158015612fdd573d6000803e3d6000fd5b505050506040513d601f19601f820116820180604052508101906130019190613412565b9050896001600160a01b03168b6001600160a01b03161461302457806000613028565b6000815b909d909c509a5050505050505050505050565b60608247101561309c5760405162461bcd60e51b815260206004820152602660248201527f416464726573733a20696e73756666696369656e742062616c616e636520666f6044820152651c8818d85b1b60d21b60648201526084016108c7565b843b6130ea5760405162461bcd60e51b815260206004820152601d60248201527f416464726573733a2063616c6c20746f206e6f6e2d636f6e747261637400000060448201526064016108c7565b600080866001600160a01b031685876040516131069190613566565b60006040518083038185875af1925050503d8060008114613143576040519150601f19603f3d011682016040523d82523d6000602084013e613148565b606091505b5091509150613158828286613163565b979650505050505050565b60608315613172575081611908565b8251156131825782518084602001fd5b8160405162461bcd60e51b81526004016108c7919061363b565b80516001600160701b038116811461190f57600080fd5b6000602082840312156131c557600080fd5b81356119088161381c565b6000602082840312156131e257600080fd5b81516119088161381c565b6000806040838503121561320057600080fd5b823561320b8161381c565b9150602083013561321b8161381c565b809150509250929050565b60008060006060848603121561323b57600080fd5b83356132468161381c565b925060208401356132568161381c565b915060408401356132668161381c565b809150509250925092565b6000806040838503121561328457600080fd5b823561328f8161381c565b946020939093013593505050565b600080600080600060a086880312156132b557600080fd5b85356132c08161381c565b94506020860135935060408601356132d78161381c565b925060608601356132e78161381c565b915060808601356132f78161381c565b809150509295509295909350565b600080600080600080600060e0888a03121561332057600080fd5b873561332b8161381c565b96506020880135955060408801356133428161381c565b945060608801356133528161381c565b935060808801356133628161381c565b925060a08801356133728161381c565b915060c08801356133828161381c565b8091505092959891949750929550565b6000602082840312156133a457600080fd5b8151801515811461190857600080fd5b6000806000606084860312156133c957600080fd5b6133d28461319c565b92506133e06020850161319c565b9150604084015163ffffffff8116811461326657600080fd5b60006020828403121561340b57600080fd5b5035919050565b60006020828403121561342457600080fd5b5051919050565b60008060008060008060c0878903121561344457600080fd5b8635955060208701356134568161381c565b945060408701356134668161381c565b935060608701356134768161381c565b925060808701356134868161381c565b915060a08701356134968161381c565b809150509295509295509295565b600080604083850312156134b757600080fd5b505080516020909101519092909150565b6000806000606084860312156134dd57600080fd5b8351925060208401519150604084015190509250925092565b600081518084526020808501945080840160005b8381101561352f5781516001600160a01b03168752958201959082019060010161350a565b509495945050505050565b600081518084526135528160208601602086016137a9565b601f01601f19169290920160200192915050565b600082516135788184602087016137a9565b9190910192915050565b6001600160a01b039889168152968816602088015260408701959095526060860193909352608085019190915260a084015290921660c082015260e08101919091526101000190565b6001600160a01b039687168152602081019590955260408501939093526060840191909152909216608082015260a081019190915260c00190565b84815260806020820152600061361f60808301866134f6565b6001600160a01b03949094166040830152506060015292915050565b602081526000611908602083018461353a565b6020808252818101527f4f776e61626c653a2063616c6c6572206973206e6f7420746865206f776e6572604082015260600190565b60208082526023908201527f5472616e7366657248656c7065723a204554485f5452414e534645525f46414960408201526213115160ea1b606082015260800190565b85815284602082015260a0604082015260006136e560a08301866134f6565b6001600160a01b0394909416606083015250608001529392505050565b84815283602082015260018060a01b038316604082015260806060820152600061372f608083018461353a565b9695505050505050565b6000821982111561374c5761374c6137f0565b500190565b60008261376e57634e487b7160e01b600052601260045260246000fd5b500490565b600081600019048311821515161561378d5761378d6137f0565b500290565b6000828210156137a4576137a46137f0565b500390565b60005b838110156137c45781810151838201526020016137ac565b83811115611a235750506000910152565b60006000198214156137e9576137e96137f0565b5060010190565b634e487b7160e01b600052601160045260246000fd5b634e487b7160e01b600052603260045260246000fd5b6001600160a01b038116811461186b57600080fdfea2646970667358221220b16f6f9eefd9896bad3d37127febfc40bed7ade530d306ef9a5da01437acf6bf64736f6c63430008070033",
					"opcodes": "PUSH1 0x80 PUSH1 0x40 MSTORE PUSH1 0x0 NOT PUSH1 0x1 SSTORE PUSH1 0x0 PUSH1 0x5 SSTORE PUSH1 0xA PUSH1 0x6 SSTORE CALLVALUE DUP1 ISZERO PUSH3 0x21 JUMPI PUSH1 0x0 DUP1 REVERT JUMPDEST POP PUSH1 0x40 MLOAD PUSH3 0x399D CODESIZE SUB DUP1 PUSH3 0x399D DUP4 CODECOPY DUP2 ADD PUSH1 0x40 DUP2 SWAP1 MSTORE PUSH3 0x44 SWAP2 PUSH3 0xEE JUMP JUMPDEST PUSH3 0x4F CALLER PUSH3 0x81 JUMP JUMPDEST PUSH1 0x4 DUP1 SLOAD PUSH1 0x1 PUSH1 0x1 PUSH1 0xA0 SHL SUB SWAP4 DUP5 AND PUSH1 0x1 PUSH1 0x1 PUSH1 0xA0 SHL SUB NOT SWAP2 DUP3 AND OR SWAP1 SWAP2 SSTORE PUSH1 0x7 DUP1 SLOAD SWAP3 SWAP1 SWAP4 AND SWAP2 AND OR SWAP1 SSTORE PUSH3 0x126 JUMP JUMPDEST PUSH1 0x0 DUP1 SLOAD PUSH1 0x1 PUSH1 0x1 PUSH1 0xA0 SHL SUB DUP4 DUP2 AND PUSH1 0x1 PUSH1 0x1 PUSH1 0xA0 SHL SUB NOT DUP4 AND DUP2 OR DUP5 SSTORE PUSH1 0x40 MLOAD SWAP2 SWAP1 SWAP3 AND SWAP3 DUP4 SWAP2 PUSH32 0x8BE0079C531659141344CD1FD0A4F28419497F9722A3DAAFE3B4186F6B6457E0 SWAP2 SWAP1 LOG3 POP POP JUMP JUMPDEST DUP1 MLOAD PUSH1 0x1 PUSH1 0x1 PUSH1 0xA0 SHL SUB DUP2 AND DUP2 EQ PUSH3 0xE9 JUMPI PUSH1 0x0 DUP1 REVERT JUMPDEST SWAP2 SWAP1 POP JUMP JUMPDEST PUSH1 0x0 DUP1 PUSH1 0x40 DUP4 DUP6 SUB SLT ISZERO PUSH3 0x102 JUMPI PUSH1 0x0 DUP1 REVERT JUMPDEST PUSH3 0x10D DUP4 PUSH3 0xD1 JUMP JUMPDEST SWAP2 POP PUSH3 0x11D PUSH1 0x20 DUP5 ADD PUSH3 0xD1 JUMP JUMPDEST SWAP1 POP SWAP3 POP SWAP3 SWAP1 POP JUMP JUMPDEST PUSH2 0x3867 DUP1 PUSH3 0x136 PUSH1 0x0 CODECOPY PUSH1 0x0 RETURN INVALID PUSH1 0x80 PUSH1 0x40 MSTORE PUSH1 0x4 CALLDATASIZE LT PUSH2 0xEC JUMPI PUSH1 0x0 CALLDATALOAD PUSH1 0xE0 SHR DUP1 PUSH4 0x7D946217 GT PUSH2 0x8A JUMPI DUP1 PUSH4 0xB5332D60 GT PUSH2 0x59 JUMPI DUP1 PUSH4 0xB5332D60 EQ PUSH2 0x254 JUMPI DUP1 PUSH4 0xE1598E4C EQ PUSH2 0x274 JUMPI DUP1 PUSH4 0xE799FFB1 EQ PUSH2 0x28A JUMPI DUP1 PUSH4 0xF2FDE38B EQ PUSH2 0x29F JUMPI PUSH1 0x0 DUP1 REVERT JUMPDEST DUP1 PUSH4 0x7D946217 EQ PUSH2 0x1D6 JUMPI DUP1 PUSH4 0x8DA5CB5B EQ PUSH2 0x1F6 JUMPI DUP1 PUSH4 0x8F1B0772 EQ PUSH2 0x214 JUMPI DUP1 PUSH4 0xAC5CAD56 EQ PUSH2 0x234 JUMPI PUSH1 0x0 DUP1 REVERT JUMPDEST DUP1 PUSH4 0x5BDCDD54 GT PUSH2 0xC6 JUMPI DUP1 PUSH4 0x5BDCDD54 EQ PUSH2 0x156 JUMPI DUP1 PUSH4 0x61D027B3 EQ PUSH2 0x169 JUMPI DUP1 PUSH4 0x715018A6 EQ PUSH2 0x1A1 JUMPI DUP1 PUSH4 0x7A69DF21 EQ PUSH2 0x1B6 JUMPI PUSH1 0x0 DUP1 REVERT JUMPDEST DUP1 PUSH4 0x1F927DCB EQ PUSH2 0xF8 JUMPI DUP1 PUSH4 0x423C79D8 EQ PUSH2 0x121 JUMPI DUP1 PUSH4 0x5B6CAA4C EQ PUSH2 0x136 JUMPI PUSH1 0x0 DUP1 REVERT JUMPDEST CALLDATASIZE PUSH2 0xF3 JUMPI STOP JUMPDEST PUSH1 0x0 DUP1 REVERT JUMPDEST CALLVALUE DUP1 ISZERO PUSH2 0x104 JUMPI PUSH1 0x0 DUP1 REVERT JUMPDEST POP PUSH2 0x10E PUSH1 0x6 SLOAD DUP2 JUMP JUMPDEST PUSH1 0x40 MLOAD SWAP1 DUP2 MSTORE PUSH1 0x20 ADD JUMPDEST PUSH1 0x40 MLOAD DUP1 SWAP2 SUB SWAP1 RETURN JUMPDEST PUSH2 0x134 PUSH2 0x12F CALLDATASIZE PUSH1 0x4 PUSH2 0x3226 JUMP JUMPDEST PUSH2 0x2BF JUMP JUMPDEST STOP JUMPDEST CALLVALUE DUP1 ISZERO PUSH2 0x142 JUMPI PUSH1 0x0 DUP1 REVERT JUMPDEST POP PUSH2 0x134 PUSH2 0x151 CALLDATASIZE PUSH1 0x4 PUSH2 0x342B JUMP JUMPDEST PUSH2 0x8E1 JUMP JUMPDEST PUSH2 0x134 PUSH2 0x164 CALLDATASIZE PUSH1 0x4 PUSH2 0x31ED JUMP JUMPDEST PUSH2 0x925 JUMP JUMPDEST CALLVALUE DUP1 ISZERO PUSH2 0x175 JUMPI PUSH1 0x0 DUP1 REVERT JUMPDEST POP PUSH1 0x7 SLOAD PUSH2 0x189 SWAP1 PUSH1 0x1 PUSH1 0x1 PUSH1 0xA0 SHL SUB AND DUP2 JUMP JUMPDEST PUSH1 0x40 MLOAD PUSH1 0x1 PUSH1 0x1 PUSH1 0xA0 SHL SUB SWAP1 SWAP2 AND DUP2 MSTORE PUSH1 0x20 ADD PUSH2 0x118 JUMP JUMPDEST CALLVALUE DUP1 ISZERO PUSH2 0x1AD JUMPI PUSH1 0x0 DUP1 REVERT JUMPDEST POP PUSH2 0x134 PUSH2 0x942 JUMP JUMPDEST CALLVALUE DUP1 ISZERO PUSH2 0x1C2 JUMPI PUSH1 0x0 DUP1 REVERT JUMPDEST POP PUSH2 0x134 PUSH2 0x1D1 CALLDATASIZE PUSH1 0x4 PUSH2 0x3271 JUMP JUMPDEST PUSH2 0x978 JUMP JUMPDEST CALLVALUE DUP1 ISZERO PUSH2 0x1E2 JUMPI PUSH1 0x0 DUP1 REVERT JUMPDEST POP PUSH2 0x134 PUSH2 0x1F1 CALLDATASIZE PUSH1 0x4 PUSH2 0x33F9 JUMP JUMPDEST PUSH2 0x9A7 JUMP JUMPDEST CALLVALUE DUP1 ISZERO PUSH2 0x202 JUMPI PUSH1 0x0 DUP1 REVERT JUMPDEST POP PUSH1 0x0 SLOAD PUSH1 0x1 PUSH1 0x1 PUSH1 0xA0 SHL SUB AND PUSH2 0x189 JUMP JUMPDEST CALLVALUE DUP1 ISZERO PUSH2 0x220 JUMPI PUSH1 0x0 DUP1 REVERT JUMPDEST POP PUSH2 0x134 PUSH2 0x22F CALLDATASIZE PUSH1 0x4 PUSH2 0x3305 JUMP JUMPDEST PUSH2 0xA28 JUMP JUMPDEST CALLVALUE DUP1 ISZERO PUSH2 0x240 JUMPI PUSH1 0x0 DUP1 REVERT JUMPDEST POP PUSH2 0x134 PUSH2 0x24F CALLDATASIZE PUSH1 0x4 PUSH2 0x31B3 JUMP JUMPDEST PUSH2 0x122C JUMP JUMPDEST CALLVALUE DUP1 ISZERO PUSH2 0x260 JUMPI PUSH1 0x0 DUP1 REVERT JUMPDEST POP PUSH2 0x134 PUSH2 0x26F CALLDATASIZE PUSH1 0x4 PUSH2 0x329D JUMP JUMPDEST PUSH2 0x12EA JUMP JUMPDEST CALLVALUE DUP1 ISZERO PUSH2 0x280 JUMPI PUSH1 0x0 DUP1 REVERT JUMPDEST POP PUSH2 0x10E PUSH1 0x5 SLOAD DUP2 JUMP JUMPDEST CALLVALUE DUP1 ISZERO PUSH2 0x296 JUMPI PUSH1 0x0 DUP1 REVERT JUMPDEST POP PUSH2 0x134 PUSH2 0x1774 JUMP JUMPDEST CALLVALUE DUP1 ISZERO PUSH2 0x2AB JUMPI PUSH1 0x0 DUP1 REVERT JUMPDEST POP PUSH2 0x134 PUSH2 0x2BA CALLDATASIZE PUSH1 0x4 PUSH2 0x31B3 JUMP JUMPDEST PUSH2 0x17D3 JUMP JUMPDEST PUSH1 0x2 DUP1 SLOAD PUSH1 0x1 PUSH1 0x1 PUSH1 0xA0 SHL SUB NOT SWAP1 DUP2 AND PUSH1 0x1 PUSH1 0x1 PUSH1 0xA0 SHL SUB DUP5 DUP2 AND SWAP2 DUP3 OR SWAP1 SWAP4 SSTORE PUSH1 0x8 DUP1 SLOAD SWAP1 SWAP3 AND OR SWAP1 SSTORE PUSH1 0x4 SLOAD PUSH2 0x2F8 SWAP2 AND CALLVALUE PUSH2 0x978 JUMP JUMPDEST PUSH1 0x0 DUP1 PUSH1 0x0 DUP1 PUSH2 0x2710 PUSH1 0x6 SLOAD PUSH2 0x2710 PUSH2 0x311 SWAP2 SWAP1 PUSH2 0x3792 JUMP JUMPDEST PUSH2 0x31B SWAP1 CALLVALUE PUSH2 0x3773 JUMP JUMPDEST PUSH2 0x325 SWAP2 SWAP1 PUSH2 0x3751 JUMP JUMPDEST PUSH1 0x4 SLOAD SWAP1 SWAP2 POP PUSH1 0x0 SWAP1 DUP2 SWAP1 PUSH1 0x1 PUSH1 0x1 PUSH1 0xA0 SHL SUB DUP11 DUP2 AND SWAP2 AND EQ ISZERO PUSH2 0x347 JUMPI SWAP7 SWAP8 SWAP7 JUMPDEST PUSH1 0x4 SLOAD PUSH1 0x1 PUSH1 0x1 PUSH1 0xA0 SHL SUB DUP10 DUP2 AND SWAP2 AND EQ ISZERO PUSH2 0x378 JUMPI DUP3 PUSH2 0x367 DUP10 PUSH2 0x186E JUMP JUMPDEST PUSH2 0x371 SWAP2 SWAP1 PUSH2 0x3792 JUMP JUMPDEST SWAP6 POP PUSH2 0x384 JUMP JUMPDEST PUSH2 0x381 DUP9 PUSH2 0x186E JUMP JUMPDEST SWAP6 POP JUMPDEST PUSH2 0x38D DUP10 PUSH2 0x186E JUMP JUMPDEST SWAP5 POP PUSH1 0x6 SLOAD PUSH2 0x1388 PUSH2 0x39F SWAP2 SWAP1 PUSH2 0x3792 JUMP JUMPDEST PUSH2 0x3AB PUSH2 0x2710 DUP6 PUSH2 0x3751 JUMP JUMPDEST PUSH2 0x3B5 SWAP2 SWAP1 PUSH2 0x3773 JUMP JUMPDEST PUSH1 0x40 DUP1 MLOAD PUSH1 0x2 DUP1 DUP3 MSTORE PUSH1 0x60 DUP3 ADD DUP4 MSTORE SWAP3 SWAP7 POP PUSH1 0x0 SWAP3 SWAP1 SWAP2 PUSH1 0x20 DUP4 ADD SWAP1 DUP1 CALLDATASIZE DUP4 CALLDATACOPY POP POP PUSH1 0x8 SLOAD PUSH1 0x40 DUP1 MLOAD PUSH4 0x15AB88C9 PUSH1 0xE3 SHL DUP2 MSTORE SWAP1 MLOAD SWAP4 SWAP5 POP PUSH1 0x1 PUSH1 0x1 PUSH1 0xA0 SHL SUB SWAP1 SWAP2 AND SWAP3 PUSH4 0xAD5C4648 SWAP3 POP PUSH1 0x4 DUP1 DUP4 ADD SWAP3 PUSH1 0x20 SWAP3 SWAP2 SWAP1 DUP3 SWAP1 SUB ADD DUP2 DUP7 DUP1 EXTCODESIZE ISZERO DUP1 ISZERO PUSH2 0x41F JUMPI PUSH1 0x0 DUP1 REVERT JUMPDEST POP GAS STATICCALL ISZERO DUP1 ISZERO PUSH2 0x433 JUMPI RETURNDATASIZE PUSH1 0x0 DUP1 RETURNDATACOPY RETURNDATASIZE PUSH1 0x0 REVERT JUMPDEST POP POP POP POP PUSH1 0x40 MLOAD RETURNDATASIZE PUSH1 0x1F NOT PUSH1 0x1F DUP3 ADD AND DUP3 ADD DUP1 PUSH1 0x40 MSTORE POP DUP2 ADD SWAP1 PUSH2 0x457 SWAP2 SWAP1 PUSH2 0x31D0 JUMP JUMPDEST DUP2 PUSH1 0x0 DUP2 MLOAD DUP2 LT PUSH2 0x46A JUMPI PUSH2 0x46A PUSH2 0x3806 JUMP JUMPDEST PUSH1 0x20 MUL PUSH1 0x20 ADD ADD SWAP1 PUSH1 0x1 PUSH1 0x1 PUSH1 0xA0 SHL SUB AND SWAP1 DUP2 PUSH1 0x1 PUSH1 0x1 PUSH1 0xA0 SHL SUB AND DUP2 MSTORE POP POP DUP10 DUP2 PUSH1 0x1 DUP2 MLOAD DUP2 LT PUSH2 0x49E JUMPI PUSH2 0x49E PUSH2 0x3806 JUMP JUMPDEST PUSH1 0x1 PUSH1 0x1 PUSH1 0xA0 SHL SUB SWAP3 DUP4 AND PUSH1 0x20 SWAP2 DUP3 MUL SWAP3 SWAP1 SWAP3 ADD ADD MSTORE PUSH1 0x8 SLOAD PUSH1 0x40 MLOAD PUSH4 0xB6F9DE95 PUSH1 0xE0 SHL DUP2 MSTORE SWAP2 AND SWAP1 PUSH4 0xB6F9DE95 SWAP1 DUP8 SWAP1 PUSH2 0x4E4 SWAP1 PUSH1 0x0 SWAP1 DUP7 SWAP1 ADDRESS SWAP1 TIMESTAMP SWAP1 PUSH1 0x4 ADD PUSH2 0x3606 JUMP JUMPDEST PUSH1 0x0 PUSH1 0x40 MLOAD DUP1 DUP4 SUB DUP2 DUP6 DUP9 DUP1 EXTCODESIZE ISZERO DUP1 ISZERO PUSH2 0x4FD JUMPI PUSH1 0x0 DUP1 REVERT JUMPDEST POP GAS CALL ISZERO DUP1 ISZERO PUSH2 0x511 JUMPI RETURNDATASIZE PUSH1 0x0 DUP1 RETURNDATACOPY RETURNDATASIZE PUSH1 0x0 REVERT JUMPDEST POP POP PUSH1 0x4 SLOAD PUSH1 0x1 PUSH1 0x1 PUSH1 0xA0 SHL SUB DUP14 DUP2 AND SWAP2 AND EQ SWAP3 POP PUSH2 0x69A SWAP2 POP POP JUMPI PUSH2 0x537 DUP6 DUP6 PUSH2 0x3792 JUMP JUMPDEST PUSH1 0x40 DUP1 MLOAD PUSH1 0x2 DUP1 DUP3 MSTORE PUSH1 0x60 DUP3 ADD DUP4 MSTORE SWAP3 SWAP8 POP PUSH1 0x0 SWAP3 SWAP1 SWAP2 PUSH1 0x20 DUP4 ADD SWAP1 DUP1 CALLDATASIZE DUP4 CALLDATACOPY POP POP PUSH1 0x8 SLOAD PUSH1 0x40 DUP1 MLOAD PUSH4 0x15AB88C9 PUSH1 0xE3 SHL DUP2 MSTORE SWAP1 MLOAD SWAP4 SWAP5 POP PUSH1 0x1 PUSH1 0x1 PUSH1 0xA0 SHL SUB SWAP1 SWAP2 AND SWAP3 PUSH4 0xAD5C4648 SWAP3 POP PUSH1 0x4 DUP1 DUP4 ADD SWAP3 PUSH1 0x20 SWAP3 SWAP2 SWAP1 DUP3 SWAP1 SUB ADD DUP2 DUP7 DUP1 EXTCODESIZE ISZERO DUP1 ISZERO PUSH2 0x5A1 JUMPI PUSH1 0x0 DUP1 REVERT JUMPDEST POP GAS STATICCALL ISZERO DUP1 ISZERO PUSH2 0x5B5 JUMPI RETURNDATASIZE PUSH1 0x0 DUP1 RETURNDATACOPY RETURNDATASIZE PUSH1 0x0 REVERT JUMPDEST POP POP POP POP PUSH1 0x40 MLOAD RETURNDATASIZE PUSH1 0x1F NOT PUSH1 0x1F DUP3 ADD AND DUP3 ADD DUP1 PUSH1 0x40 MSTORE POP DUP2 ADD SWAP1 PUSH2 0x5D9 SWAP2 SWAP1 PUSH2 0x31D0 JUMP JUMPDEST DUP2 PUSH1 0x0 DUP2 MLOAD DUP2 LT PUSH2 0x5EC JUMPI PUSH2 0x5EC PUSH2 0x3806 JUMP JUMPDEST PUSH1 0x20 MUL PUSH1 0x20 ADD ADD SWAP1 PUSH1 0x1 PUSH1 0x1 PUSH1 0xA0 SHL SUB AND SWAP1 DUP2 PUSH1 0x1 PUSH1 0x1 PUSH1 0xA0 SHL SUB AND DUP2 MSTORE POP POP DUP10 DUP2 PUSH1 0x1 DUP2 MLOAD DUP2 LT PUSH2 0x620 JUMPI PUSH2 0x620 PUSH2 0x3806 JUMP JUMPDEST PUSH1 0x1 PUSH1 0x1 PUSH1 0xA0 SHL SUB SWAP3 DUP4 AND PUSH1 0x20 SWAP2 DUP3 MUL SWAP3 SWAP1 SWAP3 ADD ADD MSTORE PUSH1 0x8 SLOAD PUSH1 0x40 MLOAD PUSH4 0xB6F9DE95 PUSH1 0xE0 SHL DUP2 MSTORE SWAP2 AND SWAP1 PUSH4 0xB6F9DE95 SWAP1 DUP9 SWAP1 PUSH2 0x666 SWAP1 PUSH1 0x0 SWAP1 DUP7 SWAP1 ADDRESS SWAP1 TIMESTAMP SWAP1 PUSH1 0x4 ADD PUSH2 0x3606 JUMP JUMPDEST PUSH1 0x0 PUSH1 0x40 MLOAD DUP1 DUP4 SUB DUP2 DUP6 DUP9 DUP1 EXTCODESIZE ISZERO DUP1 ISZERO PUSH2 0x67F JUMPI PUSH1 0x0 DUP1 REVERT JUMPDEST POP GAS CALL ISZERO DUP1 ISZERO PUSH2 0x693 JUMPI RETURNDATASIZE PUSH1 0x0 DUP1 RETURNDATACOPY RETURNDATASIZE PUSH1 0x0 REVERT JUMPDEST POP POP POP POP POP POP JUMPDEST DUP6 PUSH2 0x6A4 DUP12 PUSH2 0x186E JUMP JUMPDEST PUSH2 0x6AE SWAP2 SWAP1 PUSH2 0x3792 JUMP JUMPDEST SWAP2 POP DUP7 PUSH2 0x6BA DUP11 PUSH2 0x186E JUMP JUMPDEST PUSH2 0x6C4 SWAP2 SWAP1 PUSH2 0x3792 JUMP JUMPDEST PUSH1 0x2 SLOAD SWAP1 SWAP4 POP PUSH2 0x6E0 SWAP1 DUP12 SWAP1 DUP5 SWAP1 PUSH1 0x1 PUSH1 0x1 PUSH1 0xA0 SHL SUB AND PUSH2 0x1914 JUMP JUMPDEST PUSH1 0x2 SLOAD PUSH2 0x6F9 SWAP1 DUP11 SWAP1 DUP6 SWAP1 PUSH1 0x1 PUSH1 0x1 PUSH1 0xA0 SHL SUB AND PUSH2 0x1914 JUMP JUMPDEST PUSH1 0x4 SLOAD PUSH1 0x1 PUSH1 0x1 PUSH1 0xA0 SHL SUB DUP11 DUP2 AND SWAP2 AND EQ ISZERO PUSH2 0x7A6 JUMPI PUSH1 0x8 SLOAD PUSH1 0x40 MLOAD PUSH4 0xF305D719 PUSH1 0xE0 SHL DUP2 MSTORE PUSH1 0x1 PUSH1 0x1 PUSH1 0xA0 SHL SUB SWAP1 SWAP2 AND SWAP1 PUSH4 0xF305D719 SWAP1 DUP6 SWAP1 PUSH2 0x74C SWAP1 DUP15 SWAP1 DUP8 SWAP1 PUSH1 0x0 SWAP1 DUP2 SWAP1 CALLER SWAP1 TIMESTAMP SWAP1 PUSH1 0x4 ADD PUSH2 0x35CB JUMP JUMPDEST PUSH1 0x60 PUSH1 0x40 MLOAD DUP1 DUP4 SUB DUP2 DUP6 DUP9 DUP1 EXTCODESIZE ISZERO DUP1 ISZERO PUSH2 0x765 JUMPI PUSH1 0x0 DUP1 REVERT JUMPDEST POP GAS CALL ISZERO DUP1 ISZERO PUSH2 0x779 JUMPI RETURNDATASIZE PUSH1 0x0 DUP1 RETURNDATACOPY RETURNDATASIZE PUSH1 0x0 REVERT JUMPDEST POP POP POP POP POP PUSH1 0x40 MLOAD RETURNDATASIZE PUSH1 0x1F NOT PUSH1 0x1F DUP3 ADD AND DUP3 ADD DUP1 PUSH1 0x40 MSTORE POP DUP2 ADD SWAP1 PUSH2 0x79E SWAP2 SWAP1 PUSH2 0x34C8 JUMP JUMPDEST POP POP POP PUSH2 0x83A JUMP JUMPDEST PUSH1 0x8 SLOAD PUSH1 0x40 MLOAD PUSH3 0xE8E337 PUSH1 0xE8 SHL DUP2 MSTORE PUSH1 0x1 PUSH1 0x1 PUSH1 0xA0 SHL SUB SWAP1 SWAP2 AND SWAP1 PUSH4 0xE8E33700 SWAP1 PUSH2 0x7E4 SWAP1 DUP14 SWAP1 DUP14 SWAP1 DUP8 SWAP1 DUP10 SWAP1 PUSH1 0x0 SWAP1 DUP2 SWAP1 CALLER SWAP1 TIMESTAMP SWAP1 PUSH1 0x4 ADD PUSH2 0x3582 JUMP JUMPDEST PUSH1 0x60 PUSH1 0x40 MLOAD DUP1 DUP4 SUB DUP2 PUSH1 0x0 DUP8 DUP1 EXTCODESIZE ISZERO DUP1 ISZERO PUSH2 0x7FE JUMPI PUSH1 0x0 DUP1 REVERT JUMPDEST POP GAS CALL ISZERO DUP1 ISZERO PUSH2 0x812 JUMPI RETURNDATASIZE PUSH1 0x0 DUP1 RETURNDATACOPY RETURNDATASIZE PUSH1 0x0 REVERT JUMPDEST POP POP POP POP PUSH1 0x40 MLOAD RETURNDATASIZE PUSH1 0x1F NOT PUSH1 0x1F DUP3 ADD AND DUP3 ADD DUP1 PUSH1 0x40 MSTORE POP DUP2 ADD SWAP1 PUSH2 0x836 SWAP2 SWAP1 PUSH2 0x34C8 JUMP JUMPDEST POP POP POP JUMPDEST PUSH1 0x7 SLOAD PUSH1 0x40 DUP1 MLOAD PUSH1 0x0 DUP1 DUP3 MSTORE PUSH1 0x20 DUP3 ADD SWAP3 DUP4 SWAP1 MSTORE SWAP3 PUSH1 0x1 PUSH1 0x1 PUSH1 0xA0 SHL SUB AND SWAP2 SELFBALANCE SWAP2 PUSH2 0x864 SWAP2 PUSH2 0x3566 JUMP JUMPDEST PUSH1 0x0 PUSH1 0x40 MLOAD DUP1 DUP4 SUB DUP2 DUP6 DUP8 GAS CALL SWAP3 POP POP POP RETURNDATASIZE DUP1 PUSH1 0x0 DUP2 EQ PUSH2 0x8A1 JUMPI PUSH1 0x40 MLOAD SWAP2 POP PUSH1 0x1F NOT PUSH1 0x3F RETURNDATASIZE ADD AND DUP3 ADD PUSH1 0x40 MSTORE RETURNDATASIZE DUP3 MSTORE RETURNDATASIZE PUSH1 0x0 PUSH1 0x20 DUP5 ADD RETURNDATACOPY PUSH2 0x8A6 JUMP JUMPDEST PUSH1 0x60 SWAP2 POP JUMPDEST POP POP SWAP1 POP DUP1 PUSH2 0x8D0 JUMPI PUSH1 0x40 MLOAD PUSH3 0x461BCD PUSH1 0xE5 SHL DUP2 MSTORE PUSH1 0x4 ADD PUSH2 0x8C7 SWAP1 PUSH2 0x3683 JUMP JUMPDEST PUSH1 0x40 MLOAD DUP1 SWAP2 SUB SWAP1 REVERT JUMPDEST POP POP SELFBALANCE PUSH1 0x5 SSTORE POP POP POP POP POP POP POP POP POP JUMP JUMPDEST PUSH1 0x2 DUP1 SLOAD PUSH1 0x1 PUSH1 0x1 PUSH1 0xA0 SHL SUB DUP1 DUP6 AND PUSH1 0x1 PUSH1 0x1 PUSH1 0xA0 SHL SUB NOT SWAP3 DUP4 AND OR SWAP1 SWAP3 SSTORE PUSH1 0x3 DUP1 SLOAD SWAP3 DUP5 AND SWAP3 SWAP1 SWAP2 AND SWAP2 SWAP1 SWAP2 OR SWAP1 SSTORE PUSH2 0x91D DUP7 DUP7 DUP7 DUP7 PUSH2 0x1A2A JUMP JUMPDEST POP POP POP POP POP POP JUMP JUMPDEST PUSH1 0x4 SLOAD PUSH2 0x93E SWAP1 PUSH1 0x1 PUSH1 0x1 PUSH1 0xA0 SHL SUB AND CALLVALUE DUP5 DUP5 DUP1 PUSH2 0x12EA JUMP JUMPDEST POP POP JUMP JUMPDEST PUSH1 0x0 SLOAD PUSH1 0x1 PUSH1 0x1 PUSH1 0xA0 SHL SUB AND CALLER EQ PUSH2 0x96C JUMPI PUSH1 0x40 MLOAD PUSH3 0x461BCD PUSH1 0xE5 SHL DUP2 MSTORE PUSH1 0x4 ADD PUSH2 0x8C7 SWAP1 PUSH2 0x364E JUMP JUMPDEST PUSH2 0x976 PUSH1 0x0 PUSH2 0x25F9 JUMP JUMPDEST JUMP JUMPDEST PUSH1 0x4 SLOAD PUSH1 0x1 PUSH1 0x1 PUSH1 0xA0 SHL SUB DUP4 DUP2 AND SWAP2 AND EQ ISZERO PUSH2 0x99F JUMPI PUSH2 0x998 DUP2 SELFBALANCE PUSH2 0x3792 JUMP JUMPDEST PUSH1 0x5 SSTORE POP POP JUMP JUMPDEST SELFBALANCE PUSH1 0x5 SSTORE POP POP JUMP JUMPDEST PUSH1 0x0 SLOAD PUSH1 0x1 PUSH1 0x1 PUSH1 0xA0 SHL SUB AND CALLER EQ PUSH2 0x9D1 JUMPI PUSH1 0x40 MLOAD PUSH3 0x461BCD PUSH1 0xE5 SHL DUP2 MSTORE PUSH1 0x4 ADD PUSH2 0x8C7 SWAP1 PUSH2 0x364E JUMP JUMPDEST PUSH1 0x1 DUP2 LT ISZERO DUP1 ISZERO PUSH2 0x9E4 JUMPI POP PUSH2 0x3E8 DUP2 GT ISZERO JUMPDEST PUSH2 0xA23 JUMPI PUSH1 0x40 MLOAD PUSH3 0x461BCD PUSH1 0xE5 SHL DUP2 MSTORE PUSH1 0x20 PUSH1 0x4 DUP3 ADD MSTORE PUSH1 0x10 PUSH1 0x24 DUP3 ADD MSTORE PUSH16 0x4265747765656E203120616E6420313 PUSH1 0x84 SHL PUSH1 0x44 DUP3 ADD MSTORE PUSH1 0x64 ADD PUSH2 0x8C7 JUMP JUMPDEST PUSH1 0x6 SSTORE JUMP JUMPDEST PUSH2 0xA32 DUP8 DUP8 PUSH2 0x978 JUMP JUMPDEST PUSH1 0x4 SLOAD PUSH1 0x1 PUSH1 0x1 PUSH1 0xA0 SHL SUB DUP7 DUP2 AND SWAP2 AND EQ ISZERO PUSH2 0xA4C JUMPI SWAP3 SWAP4 SWAP3 JUMPDEST PUSH1 0x8 DUP1 SLOAD PUSH1 0x1 PUSH1 0x1 PUSH1 0xA0 SHL SUB NOT SWAP1 DUP2 AND PUSH1 0x1 PUSH1 0x1 PUSH1 0xA0 SHL SUB DUP7 DUP2 AND SWAP2 SWAP1 SWAP2 OR SWAP1 SWAP3 SSTORE PUSH1 0x9 DUP1 SLOAD DUP3 AND DUP5 DUP5 AND OR SWAP1 SSTORE PUSH1 0xA DUP1 SLOAD DUP3 AND DUP11 DUP5 AND OR SWAP1 SSTORE PUSH1 0xD DUP1 SLOAD DUP3 AND DUP6 DUP5 AND OR SWAP1 SSTORE PUSH1 0xB DUP1 SLOAD DUP3 AND DUP9 DUP5 AND OR SWAP1 SSTORE PUSH1 0xC DUP1 SLOAD SWAP1 SWAP2 AND SWAP2 DUP7 AND SWAP2 SWAP1 SWAP2 OR SWAP1 SSTORE PUSH1 0x0 DUP1 DUP1 DUP1 DUP1 DUP1 PUSH2 0xABE DUP12 PUSH2 0x186E JUMP JUMPDEST SWAP6 POP PUSH2 0xAC9 DUP11 PUSH2 0x186E JUMP JUMPDEST SWAP5 POP PUSH2 0xAD4 DUP9 PUSH2 0x186E JUMP JUMPDEST SELFBALANCE PUSH1 0x5 SSTORE PUSH1 0xA SLOAD SWAP1 SWAP5 POP PUSH2 0xAF3 SWAP1 PUSH1 0x1 PUSH1 0x1 PUSH1 0xA0 SHL SUB AND CALLER ADDRESS DUP16 PUSH2 0x2649 JUMP JUMPDEST PUSH2 0xAFE DUP14 DUP14 DUP12 PUSH2 0x1914 JUMP JUMPDEST PUSH1 0x4 SLOAD PUSH1 0x1 PUSH1 0x1 PUSH1 0xA0 SHL SUB DUP12 DUP2 AND SWAP2 AND EQ ISZERO PUSH2 0xBB8 JUMPI PUSH1 0x8 PUSH1 0x0 SWAP1 SLOAD SWAP1 PUSH2 0x100 EXP SWAP1 DIV PUSH1 0x1 PUSH1 0x1 PUSH1 0xA0 SHL SUB AND PUSH1 0x1 PUSH1 0x1 PUSH1 0xA0 SHL SUB AND PUSH4 0xAF2979EB DUP13 DUP15 PUSH1 0x1 DUP1 ADDRESS TIMESTAMP PUSH1 0x40 MLOAD DUP8 PUSH4 0xFFFFFFFF AND PUSH1 0xE0 SHL DUP2 MSTORE PUSH1 0x4 ADD PUSH2 0xB60 SWAP7 SWAP6 SWAP5 SWAP4 SWAP3 SWAP2 SWAP1 PUSH2 0x35CB JUMP JUMPDEST PUSH1 0x20 PUSH1 0x40 MLOAD DUP1 DUP4 SUB DUP2 PUSH1 0x0 DUP8 DUP1 EXTCODESIZE ISZERO DUP1 ISZERO PUSH2 0xB7A JUMPI PUSH1 0x0 DUP1 REVERT JUMPDEST POP GAS CALL ISZERO DUP1 ISZERO PUSH2 0xB8E JUMPI RETURNDATASIZE PUSH1 0x0 DUP1 RETURNDATACOPY RETURNDATASIZE PUSH1 0x0 REVERT JUMPDEST POP POP POP POP PUSH1 0x40 MLOAD RETURNDATASIZE PUSH1 0x1F NOT PUSH1 0x1F DUP3 ADD AND DUP3 ADD DUP1 PUSH1 0x40 MSTORE POP DUP2 ADD SWAP1 PUSH2 0xBB2 SWAP2 SWAP1 PUSH2 0x3412 JUMP JUMPDEST POP PUSH2 0xC62 JUMP JUMPDEST PUSH1 0x8 SLOAD PUSH1 0x40 MLOAD PUSH4 0x5D5155EF PUSH1 0xE1 SHL DUP2 MSTORE PUSH1 0x1 PUSH1 0x1 PUSH1 0xA0 SHL SUB DUP14 DUP2 AND PUSH1 0x4 DUP4 ADD MSTORE DUP13 DUP2 AND PUSH1 0x24 DUP4 ADD MSTORE PUSH1 0x44 DUP3 ADD DUP16 SWAP1 MSTORE PUSH1 0x1 PUSH1 0x64 DUP4 ADD DUP2 SWAP1 MSTORE PUSH1 0x84 DUP4 ADD MSTORE ADDRESS PUSH1 0xA4 DUP4 ADD MSTORE TIMESTAMP PUSH1 0xC4 DUP4 ADD MSTORE SWAP1 SWAP2 AND SWAP1 PUSH4 0xBAA2ABDE SWAP1 PUSH1 0xE4 ADD PUSH1 0x40 DUP1 MLOAD DUP1 DUP4 SUB DUP2 PUSH1 0x0 DUP8 DUP1 EXTCODESIZE ISZERO DUP1 ISZERO PUSH2 0xC27 JUMPI PUSH1 0x0 DUP1 REVERT JUMPDEST POP GAS CALL ISZERO DUP1 ISZERO PUSH2 0xC3B JUMPI RETURNDATASIZE PUSH1 0x0 DUP1 RETURNDATACOPY RETURNDATASIZE PUSH1 0x0 REVERT JUMPDEST POP POP POP POP PUSH1 0x40 MLOAD RETURNDATASIZE PUSH1 0x1F NOT PUSH1 0x1F DUP3 ADD AND DUP3 ADD DUP1 PUSH1 0x40 MSTORE POP DUP2 ADD SWAP1 PUSH2 0xC5F SWAP2 SWAP1 PUSH2 0x34A4 JUMP JUMPDEST POP POP JUMPDEST DUP6 PUSH2 0xC6C DUP13 PUSH2 0x186E JUMP JUMPDEST PUSH2 0xC76 SWAP2 SWAP1 PUSH2 0x3792 JUMP JUMPDEST SWAP2 POP DUP5 PUSH2 0xC82 DUP12 PUSH2 0x186E JUMP JUMPDEST PUSH2 0xC8C SWAP2 SWAP1 PUSH2 0x3792 JUMP JUMPDEST SWAP1 POP DUP8 PUSH1 0x1 PUSH1 0x1 PUSH1 0xA0 SHL SUB AND DUP12 PUSH1 0x1 PUSH1 0x1 PUSH1 0xA0 SHL SUB AND EQ PUSH2 0xE00 JUMPI PUSH2 0xCB2 DUP12 DUP4 DUP12 PUSH2 0x1914 JUMP JUMPDEST PUSH1 0x40 DUP1 MLOAD PUSH1 0x2 DUP1 DUP3 MSTORE PUSH1 0x60 DUP3 ADD DUP4 MSTORE PUSH1 0x0 SWAP3 PUSH1 0x20 DUP4 ADD SWAP1 DUP1 CALLDATASIZE DUP4 CALLDATACOPY ADD SWAP1 POP POP SWAP1 POP DUP12 DUP2 PUSH1 0x0 DUP2 MLOAD DUP2 LT PUSH2 0xCE7 JUMPI PUSH2 0xCE7 PUSH2 0x3806 JUMP JUMPDEST PUSH1 0x1 PUSH1 0x1 PUSH1 0xA0 SHL SUB SWAP3 DUP4 AND PUSH1 0x20 SWAP2 DUP3 MUL SWAP3 SWAP1 SWAP3 ADD DUP2 ADD SWAP2 SWAP1 SWAP2 MSTORE PUSH1 0x8 SLOAD PUSH1 0x40 DUP1 MLOAD PUSH4 0x15AB88C9 PUSH1 0xE3 SHL DUP2 MSTORE SWAP1 MLOAD SWAP2 SWAP1 SWAP4 AND SWAP3 PUSH4 0xAD5C4648 SWAP3 PUSH1 0x4 DUP1 DUP4 ADD SWAP4 SWAP2 SWAP3 DUP3 SWAP1 SUB ADD DUP2 DUP7 DUP1 EXTCODESIZE ISZERO DUP1 ISZERO PUSH2 0xD3B JUMPI PUSH1 0x0 DUP1 REVERT JUMPDEST POP GAS STATICCALL ISZERO DUP1 ISZERO PUSH2 0xD4F JUMPI RETURNDATASIZE PUSH1 0x0 DUP1 RETURNDATACOPY RETURNDATASIZE PUSH1 0x0 REVERT JUMPDEST POP POP POP POP PUSH1 0x40 MLOAD RETURNDATASIZE PUSH1 0x1F NOT PUSH1 0x1F DUP3 ADD AND DUP3 ADD DUP1 PUSH1 0x40 MSTORE POP DUP2 ADD SWAP1 PUSH2 0xD73 SWAP2 SWAP1 PUSH2 0x31D0 JUMP JUMPDEST DUP2 PUSH1 0x1 DUP2 MLOAD DUP2 LT PUSH2 0xD86 JUMPI PUSH2 0xD86 PUSH2 0x3806 JUMP JUMPDEST PUSH1 0x1 PUSH1 0x1 PUSH1 0xA0 SHL SUB SWAP3 DUP4 AND PUSH1 0x20 SWAP2 DUP3 MUL SWAP3 SWAP1 SWAP3 ADD ADD MSTORE PUSH1 0x8 SLOAD PUSH1 0x40 MLOAD PUSH4 0x791AC947 PUSH1 0xE0 SHL DUP2 MSTORE SWAP2 AND SWAP1 PUSH4 0x791AC947 SWAP1 PUSH2 0xDCC SWAP1 DUP7 SWAP1 PUSH1 0x0 SWAP1 DUP7 SWAP1 ADDRESS SWAP1 TIMESTAMP SWAP1 PUSH1 0x4 ADD PUSH2 0x36C6 JUMP JUMPDEST PUSH1 0x0 PUSH1 0x40 MLOAD DUP1 DUP4 SUB DUP2 PUSH1 0x0 DUP8 DUP1 EXTCODESIZE ISZERO DUP1 ISZERO PUSH2 0xDE6 JUMPI PUSH1 0x0 DUP1 REVERT JUMPDEST POP GAS CALL ISZERO DUP1 ISZERO PUSH2 0xDFA JUMPI RETURNDATASIZE PUSH1 0x0 DUP1 RETURNDATACOPY RETURNDATASIZE PUSH1 0x0 REVERT JUMPDEST POP POP POP POP POP JUMPDEST DUP8 PUSH1 0x1 PUSH1 0x1 PUSH1 0xA0 SHL SUB AND DUP11 PUSH1 0x1 PUSH1 0x1 PUSH1 0xA0 SHL SUB AND EQ PUSH2 0xF87 JUMPI PUSH1 0x4 SLOAD PUSH1 0x1 PUSH1 0x1 PUSH1 0xA0 SHL SUB DUP12 DUP2 AND SWAP2 AND EQ PUSH2 0xF87 JUMPI PUSH2 0xE39 DUP11 DUP3 DUP12 PUSH2 0x1914 JUMP JUMPDEST PUSH1 0x40 DUP1 MLOAD PUSH1 0x2 DUP1 DUP3 MSTORE PUSH1 0x60 DUP3 ADD DUP4 MSTORE PUSH1 0x0 SWAP3 PUSH1 0x20 DUP4 ADD SWAP1 DUP1 CALLDATASIZE DUP4 CALLDATACOPY ADD SWAP1 POP POP SWAP1 POP DUP11 DUP2 PUSH1 0x0 DUP2 MLOAD DUP2 LT PUSH2 0xE6E JUMPI PUSH2 0xE6E PUSH2 0x3806 JUMP JUMPDEST PUSH1 0x1 PUSH1 0x1 PUSH1 0xA0 SHL SUB SWAP3 DUP4 AND PUSH1 0x20 SWAP2 DUP3 MUL SWAP3 SWAP1 SWAP3 ADD DUP2 ADD SWAP2 SWAP1 SWAP2 MSTORE PUSH1 0x8 SLOAD PUSH1 0x40 DUP1 MLOAD PUSH4 0x15AB88C9 PUSH1 0xE3 SHL DUP2 MSTORE SWAP1 MLOAD SWAP2 SWAP1 SWAP4 AND SWAP3 PUSH4 0xAD5C4648 SWAP3 PUSH1 0x4 DUP1 DUP4 ADD SWAP4 SWAP2 SWAP3 DUP3 SWAP1 SUB ADD DUP2 DUP7 DUP1 EXTCODESIZE ISZERO DUP1 ISZERO PUSH2 0xEC2 JUMPI PUSH1 0x0 DUP1 REVERT JUMPDEST POP GAS STATICCALL ISZERO DUP1 ISZERO PUSH2 0xED6 JUMPI RETURNDATASIZE PUSH1 0x0 DUP1 RETURNDATACOPY RETURNDATASIZE PUSH1 0x0 REVERT JUMPDEST POP POP POP POP PUSH1 0x40 MLOAD RETURNDATASIZE PUSH1 0x1F NOT PUSH1 0x1F DUP3 ADD AND DUP3 ADD DUP1 PUSH1 0x40 MSTORE POP DUP2 ADD SWAP1 PUSH2 0xEFA SWAP2 SWAP1 PUSH2 0x31D0 JUMP JUMPDEST DUP2 PUSH1 0x1 DUP2 MLOAD DUP2 LT PUSH2 0xF0D JUMPI PUSH2 0xF0D PUSH2 0x3806 JUMP JUMPDEST PUSH1 0x1 PUSH1 0x1 PUSH1 0xA0 SHL SUB SWAP3 DUP4 AND PUSH1 0x20 SWAP2 DUP3 MUL SWAP3 SWAP1 SWAP3 ADD ADD MSTORE PUSH1 0x8 SLOAD PUSH1 0x40 MLOAD PUSH4 0x791AC947 PUSH1 0xE0 SHL DUP2 MSTORE SWAP2 AND SWAP1 PUSH4 0x791AC947 SWAP1 PUSH2 0xF53 SWAP1 DUP6 SWAP1 PUSH1 0x0 SWAP1 DUP7 SWAP1 ADDRESS SWAP1 TIMESTAMP SWAP1 PUSH1 0x4 ADD PUSH2 0x36C6 JUMP JUMPDEST PUSH1 0x0 PUSH1 0x40 MLOAD DUP1 DUP4 SUB DUP2 PUSH1 0x0 DUP8 DUP1 EXTCODESIZE ISZERO DUP1 ISZERO PUSH2 0xF6D JUMPI PUSH1 0x0 DUP1 REVERT JUMPDEST POP GAS CALL ISZERO DUP1 ISZERO PUSH2 0xF81 JUMPI RETURNDATASIZE PUSH1 0x0 DUP1 RETURNDATACOPY RETURNDATASIZE PUSH1 0x0 REVERT JUMPDEST POP POP POP POP POP JUMPDEST PUSH2 0x2710 PUSH1 0x6 SLOAD PUSH2 0x2710 PUSH2 0xF9A SWAP2 SWAP1 PUSH2 0x3792 JUMP JUMPDEST PUSH1 0x5 SLOAD PUSH2 0xFA7 SWAP1 SELFBALANCE PUSH2 0x3792 JUMP JUMPDEST PUSH2 0xFB1 SWAP2 SWAP1 PUSH2 0x3773 JUMP JUMPDEST PUSH2 0xFBB SWAP2 SWAP1 PUSH2 0x3751 JUMP JUMPDEST PUSH1 0x4 SLOAD SWAP1 SWAP4 POP PUSH1 0x1 PUSH1 0x1 PUSH1 0xA0 SHL SUB DUP10 DUP2 AND SWAP2 AND EQ ISZERO PUSH2 0xFE2 JUMPI PUSH2 0xFDD DUP4 PUSH2 0x26B4 JUMP JUMPDEST PUSH2 0x116B JUMP JUMPDEST PUSH1 0x40 DUP1 MLOAD PUSH1 0x2 DUP1 DUP3 MSTORE PUSH1 0x60 DUP3 ADD DUP4 MSTORE PUSH1 0x0 SWAP3 PUSH1 0x20 DUP4 ADD SWAP1 DUP1 CALLDATASIZE DUP4 CALLDATACOPY POP POP PUSH1 0x8 SLOAD PUSH1 0x40 DUP1 MLOAD PUSH4 0x15AB88C9 PUSH1 0xE3 SHL DUP2 MSTORE SWAP1 MLOAD SWAP4 SWAP5 POP PUSH1 0x1 PUSH1 0x1 PUSH1 0xA0 SHL SUB SWAP1 SWAP2 AND SWAP3 PUSH4 0xAD5C4648 SWAP3 POP PUSH1 0x4 DUP1 DUP4 ADD SWAP3 PUSH1 0x20 SWAP3 SWAP2 SWAP1 DUP3 SWAP1 SUB ADD DUP2 DUP7 DUP1 EXTCODESIZE ISZERO DUP1 ISZERO PUSH2 0x1047 JUMPI PUSH1 0x0 DUP1 REVERT JUMPDEST POP GAS STATICCALL ISZERO DUP1 ISZERO PUSH2 0x105B JUMPI RETURNDATASIZE PUSH1 0x0 DUP1 RETURNDATACOPY RETURNDATASIZE PUSH1 0x0 REVERT JUMPDEST POP POP POP POP PUSH1 0x40 MLOAD RETURNDATASIZE PUSH1 0x1F NOT PUSH1 0x1F DUP3 ADD AND DUP3 ADD DUP1 PUSH1 0x40 MSTORE POP DUP2 ADD SWAP1 PUSH2 0x107F SWAP2 SWAP1 PUSH2 0x31D0 JUMP JUMPDEST DUP2 PUSH1 0x0 DUP2 MLOAD DUP2 LT PUSH2 0x1092 JUMPI PUSH2 0x1092 PUSH2 0x3806 JUMP JUMPDEST PUSH1 0x20 MUL PUSH1 0x20 ADD ADD SWAP1 PUSH1 0x1 PUSH1 0x1 PUSH1 0xA0 SHL SUB AND SWAP1 DUP2 PUSH1 0x1 PUSH1 0x1 PUSH1 0xA0 SHL SUB AND DUP2 MSTORE POP POP DUP9 DUP2 PUSH1 0x1 DUP2 MLOAD DUP2 LT PUSH2 0x10C6 JUMPI PUSH2 0x10C6 PUSH2 0x3806 JUMP JUMPDEST PUSH1 0x1 PUSH1 0x1 PUSH1 0xA0 SHL SUB SWAP3 DUP4 AND PUSH1 0x20 SWAP2 DUP3 MUL SWAP3 SWAP1 SWAP3 ADD ADD MSTORE PUSH1 0x9 SLOAD PUSH1 0x40 MLOAD PUSH4 0xB6F9DE95 PUSH1 0xE0 SHL DUP2 MSTORE SWAP2 AND SWAP1 PUSH4 0xB6F9DE95 SWAP1 DUP7 SWAP1 PUSH2 0x110C SWAP1 PUSH1 0x0 SWAP1 DUP7 SWAP1 ADDRESS SWAP1 TIMESTAMP SWAP1 PUSH1 0x4 ADD PUSH2 0x3606 JUMP JUMPDEST PUSH1 0x0 PUSH1 0x40 MLOAD DUP1 DUP4 SUB DUP2 DUP6 DUP9 DUP1 EXTCODESIZE ISZERO DUP1 ISZERO PUSH2 0x1125 JUMPI PUSH1 0x0 DUP1 REVERT JUMPDEST POP GAS CALL ISZERO DUP1 ISZERO PUSH2 0x1139 JUMPI RETURNDATASIZE PUSH1 0x0 DUP1 RETURNDATACOPY RETURNDATASIZE PUSH1 0x0 REVERT JUMPDEST POP POP POP POP POP PUSH2 0x1169 CALLER DUP7 PUSH2 0x114C DUP13 PUSH2 0x186E JUMP JUMPDEST PUSH2 0x1156 SWAP2 SWAP1 PUSH2 0x3792 JUMP JUMPDEST PUSH1 0xD SLOAD PUSH1 0x1 PUSH1 0x1 PUSH1 0xA0 SHL SUB AND SWAP2 SWAP1 PUSH2 0x26E1 JUMP JUMPDEST POP JUMPDEST PUSH1 0x7 SLOAD PUSH1 0x0 SWAP1 PUSH1 0x1 PUSH1 0x1 PUSH1 0xA0 SHL SUB AND SELFBALANCE DUP3 JUMPDEST PUSH1 0x40 MLOAD SWAP1 DUP1 DUP3 MSTORE DUP1 PUSH1 0x1F ADD PUSH1 0x1F NOT AND PUSH1 0x20 ADD DUP3 ADD PUSH1 0x40 MSTORE DUP1 ISZERO PUSH2 0x11A7 JUMPI PUSH1 0x20 DUP3 ADD DUP2 DUP1 CALLDATASIZE DUP4 CALLDATACOPY ADD SWAP1 POP JUMPDEST POP PUSH1 0x40 MLOAD PUSH2 0x11B5 SWAP2 SWAP1 PUSH2 0x3566 JUMP JUMPDEST PUSH1 0x0 PUSH1 0x40 MLOAD DUP1 DUP4 SUB DUP2 DUP6 DUP8 GAS CALL SWAP3 POP POP POP RETURNDATASIZE DUP1 PUSH1 0x0 DUP2 EQ PUSH2 0x11F2 JUMPI PUSH1 0x40 MLOAD SWAP2 POP PUSH1 0x1F NOT PUSH1 0x3F RETURNDATASIZE ADD AND DUP3 ADD PUSH1 0x40 MSTORE RETURNDATASIZE DUP3 MSTORE RETURNDATASIZE PUSH1 0x0 PUSH1 0x20 DUP5 ADD RETURNDATACOPY PUSH2 0x11F7 JUMP JUMPDEST PUSH1 0x60 SWAP2 POP JUMPDEST POP POP SWAP1 POP DUP1 PUSH2 0x1218 JUMPI PUSH1 0x40 MLOAD PUSH3 0x461BCD PUSH1 0xE5 SHL DUP2 MSTORE PUSH1 0x4 ADD PUSH2 0x8C7 SWAP1 PUSH2 0x3683 JUMP JUMPDEST POP POP SELFBALANCE PUSH1 0x5 SSTORE POP POP POP POP POP POP POP POP POP POP POP POP JUMP JUMPDEST PUSH1 0x0 SLOAD PUSH1 0x1 PUSH1 0x1 PUSH1 0xA0 SHL SUB AND CALLER EQ PUSH2 0x1256 JUMPI PUSH1 0x40 MLOAD PUSH3 0x461BCD PUSH1 0xE5 SHL DUP2 MSTORE PUSH1 0x4 ADD PUSH2 0x8C7 SWAP1 PUSH2 0x364E JUMP JUMPDEST SELFBALANCE PUSH1 0x5 SSTORE PUSH1 0x40 MLOAD PUSH4 0x70A08231 PUSH1 0xE0 SHL DUP2 MSTORE ADDRESS PUSH1 0x4 DUP3 ADD MSTORE PUSH1 0x0 SWAP1 PUSH1 0x1 PUSH1 0x1 PUSH1 0xA0 SHL SUB DUP4 AND SWAP1 PUSH4 0x70A08231 SWAP1 PUSH1 0x24 ADD PUSH1 0x20 PUSH1 0x40 MLOAD DUP1 DUP4 SUB DUP2 DUP7 DUP1 EXTCODESIZE ISZERO DUP1 ISZERO PUSH2 0x129C JUMPI PUSH1 0x0 DUP1 REVERT JUMPDEST POP GAS STATICCALL ISZERO DUP1 ISZERO PUSH2 0x12B0 JUMPI RETURNDATASIZE PUSH1 0x0 DUP1 RETURNDATACOPY RETURNDATASIZE PUSH1 0x0 REVERT JUMPDEST POP POP POP POP PUSH1 0x40 MLOAD RETURNDATASIZE PUSH1 0x1F NOT PUSH1 0x1F DUP3 ADD AND DUP3 ADD DUP1 PUSH1 0x40 MSTORE POP DUP2 ADD SWAP1 PUSH2 0x12D4 SWAP2 SWAP1 PUSH2 0x3412 JUMP JUMPDEST SWAP1 POP PUSH2 0x93E PUSH1 0x1 PUSH1 0x1 PUSH1 0xA0 SHL SUB DUP4 AND CALLER DUP4 PUSH2 0x26E1 JUMP JUMPDEST DUP3 PUSH1 0x1 PUSH1 0x1 PUSH1 0xA0 SHL SUB AND DUP6 PUSH1 0x1 PUSH1 0x1 PUSH1 0xA0 SHL SUB AND EQ ISZERO PUSH2 0x135D JUMPI PUSH1 0x40 MLOAD PUSH3 0x461BCD PUSH1 0xE5 SHL DUP2 MSTORE PUSH1 0x20 PUSH1 0x4 DUP3 ADD MSTORE PUSH1 0x28 PUSH1 0x24 DUP3 ADD MSTORE PUSH32 0x546F6B656E20496E2063616E6E6F74206265207468652073616D652061732054 PUSH1 0x44 DUP3 ADD MSTORE PUSH8 0x1BDAD95B881BDD5D PUSH1 0xC2 SHL PUSH1 0x64 DUP3 ADD MSTORE PUSH1 0x84 ADD PUSH2 0x8C7 JUMP JUMPDEST PUSH2 0x1367 DUP6 DUP6 PUSH2 0x978 JUMP JUMPDEST PUSH1 0x8 DUP1 SLOAD PUSH1 0x1 PUSH1 0x1 PUSH1 0xA0 SHL SUB DUP1 DUP6 AND PUSH1 0x1 PUSH1 0x1 PUSH1 0xA0 SHL SUB NOT SWAP3 DUP4 AND OR SWAP1 SWAP3 SSTORE PUSH1 0x9 DUP1 SLOAD DUP5 DUP5 AND SWAP1 DUP4 AND OR SWAP1 SSTORE PUSH1 0xB DUP1 SLOAD DUP9 DUP5 AND SWAP3 AND DUP3 OR SWAP1 SSTORE PUSH1 0x4 SLOAD PUSH1 0x0 SWAP3 AND EQ PUSH2 0x1521 JUMPI PUSH1 0x40 DUP1 MLOAD PUSH1 0x2 DUP1 DUP3 MSTORE PUSH1 0x60 DUP3 ADD DUP4 MSTORE PUSH1 0x0 SWAP3 PUSH1 0x20 DUP4 ADD SWAP1 DUP1 CALLDATASIZE DUP4 CALLDATACOPY ADD SWAP1 POP POP SWAP1 POP DUP7 DUP2 PUSH1 0x0 DUP2 MLOAD DUP2 LT PUSH2 0x13E1 JUMPI PUSH2 0x13E1 PUSH2 0x3806 JUMP JUMPDEST PUSH1 0x1 PUSH1 0x1 PUSH1 0xA0 SHL SUB SWAP3 DUP4 AND PUSH1 0x20 SWAP2 DUP3 MUL SWAP3 SWAP1 SWAP3 ADD DUP2 ADD SWAP2 SWAP1 SWAP2 MSTORE PUSH1 0x8 SLOAD PUSH1 0x40 DUP1 MLOAD PUSH4 0x15AB88C9 PUSH1 0xE3 SHL DUP2 MSTORE SWAP1 MLOAD SWAP2 SWAP1 SWAP4 AND SWAP3 PUSH4 0xAD5C4648 SWAP3 PUSH1 0x4 DUP1 DUP4 ADD SWAP4 SWAP2 SWAP3 DUP3 SWAP1 SUB ADD DUP2 DUP7 DUP1 EXTCODESIZE ISZERO DUP1 ISZERO PUSH2 0x1435 JUMPI PUSH1 0x0 DUP1 REVERT JUMPDEST POP GAS STATICCALL ISZERO DUP1 ISZERO PUSH2 0x1449 JUMPI RETURNDATASIZE PUSH1 0x0 DUP1 RETURNDATACOPY RETURNDATASIZE PUSH1 0x0 REVERT JUMPDEST POP POP POP POP PUSH1 0x40 MLOAD RETURNDATASIZE PUSH1 0x1F NOT PUSH1 0x1F DUP3 ADD AND DUP3 ADD DUP1 PUSH1 0x40 MSTORE POP DUP2 ADD SWAP1 PUSH2 0x146D SWAP2 SWAP1 PUSH2 0x31D0 JUMP JUMPDEST DUP2 PUSH1 0x1 DUP2 MLOAD DUP2 LT PUSH2 0x1480 JUMPI PUSH2 0x1480 PUSH2 0x3806 JUMP JUMPDEST PUSH1 0x1 PUSH1 0x1 PUSH1 0xA0 SHL SUB SWAP3 DUP4 AND PUSH1 0x20 SWAP2 DUP3 MUL SWAP3 SWAP1 SWAP3 ADD DUP2 ADD SWAP2 SWAP1 SWAP2 MSTORE PUSH1 0x8 SLOAD PUSH1 0x40 DUP1 MLOAD PUSH4 0xC45A0155 PUSH1 0xE0 SHL DUP2 MSTORE SWAP1 MLOAD PUSH1 0x0 SWAP5 SWAP3 SWAP1 SWAP3 AND SWAP3 PUSH4 0xC45A0155 SWAP3 PUSH1 0x4 DUP1 DUP5 ADD SWAP4 DUP3 SWAP1 SUB ADD DUP2 DUP8 DUP8 DUP1 EXTCODESIZE ISZERO DUP1 ISZERO PUSH2 0x14D6 JUMPI PUSH1 0x0 DUP1 REVERT JUMPDEST POP GAS CALL ISZERO DUP1 ISZERO PUSH2 0x14EA JUMPI RETURNDATASIZE PUSH1 0x0 DUP1 RETURNDATACOPY RETURNDATASIZE PUSH1 0x0 REVERT JUMPDEST POP POP POP POP PUSH1 0x40 MLOAD RETURNDATASIZE PUSH1 0x1F NOT PUSH1 0x1F DUP3 ADD AND DUP3 ADD DUP1 PUSH1 0x40 MSTORE POP DUP2 ADD SWAP1 PUSH2 0x150E SWAP2 SWAP1 PUSH2 0x31D0 JUMP JUMPDEST SWAP1 POP PUSH2 0x151E DUP8 PUSH1 0x0 DUP5 DUP5 DUP10 PUSH2 0x2711 JUMP JUMPDEST POP POP JUMPDEST PUSH2 0x2710 PUSH1 0x6 SLOAD PUSH2 0x2710 PUSH2 0x1534 SWAP2 SWAP1 PUSH2 0x3792 JUMP JUMPDEST PUSH1 0x5 SLOAD PUSH2 0x1541 SWAP1 SELFBALANCE PUSH2 0x3792 JUMP JUMPDEST PUSH2 0x154B SWAP2 SWAP1 PUSH2 0x3773 JUMP JUMPDEST PUSH2 0x1555 SWAP2 SWAP1 PUSH2 0x3751 JUMP JUMPDEST PUSH1 0x4 SLOAD SWAP1 SWAP2 POP PUSH1 0x1 PUSH1 0x1 PUSH1 0xA0 SHL SUB DUP6 DUP2 AND SWAP2 AND EQ ISZERO PUSH2 0x157C JUMPI PUSH2 0x1577 DUP2 PUSH2 0x26B4 JUMP JUMPDEST PUSH2 0x16DA JUMP JUMPDEST PUSH1 0x40 DUP1 MLOAD PUSH1 0x2 DUP1 DUP3 MSTORE PUSH1 0x60 DUP3 ADD DUP4 MSTORE PUSH1 0x0 SWAP3 PUSH1 0x20 DUP4 ADD SWAP1 DUP1 CALLDATASIZE DUP4 CALLDATACOPY POP POP PUSH1 0x8 SLOAD PUSH1 0x40 DUP1 MLOAD PUSH4 0x15AB88C9 PUSH1 0xE3 SHL DUP2 MSTORE SWAP1 MLOAD SWAP4 SWAP5 POP PUSH1 0x1 PUSH1 0x1 PUSH1 0xA0 SHL SUB SWAP1 SWAP2 AND SWAP3 PUSH4 0xAD5C4648 SWAP3 POP PUSH1 0x4 DUP1 DUP4 ADD SWAP3 PUSH1 0x20 SWAP3 SWAP2 SWAP1 DUP3 SWAP1 SUB ADD DUP2 DUP7 DUP1 EXTCODESIZE ISZERO DUP1 ISZERO PUSH2 0x15E1 JUMPI PUSH1 0x0 DUP1 REVERT JUMPDEST POP GAS STATICCALL ISZERO DUP1 ISZERO PUSH2 0x15F5 JUMPI RETURNDATASIZE PUSH1 0x0 DUP1 RETURNDATACOPY RETURNDATASIZE PUSH1 0x0 REVERT JUMPDEST POP POP POP POP PUSH1 0x40 MLOAD RETURNDATASIZE PUSH1 0x1F NOT PUSH1 0x1F DUP3 ADD AND DUP3 ADD DUP1 PUSH1 0x40 MSTORE POP DUP2 ADD SWAP1 PUSH2 0x1619 SWAP2 SWAP1 PUSH2 0x31D0 JUMP JUMPDEST DUP2 PUSH1 0x0 DUP2 MLOAD DUP2 LT PUSH2 0x162C JUMPI PUSH2 0x162C PUSH2 0x3806 JUMP JUMPDEST PUSH1 0x20 MUL PUSH1 0x20 ADD ADD SWAP1 PUSH1 0x1 PUSH1 0x1 PUSH1 0xA0 SHL SUB AND SWAP1 DUP2 PUSH1 0x1 PUSH1 0x1 PUSH1 0xA0 SHL SUB AND DUP2 MSTORE POP POP DUP5 DUP2 PUSH1 0x1 DUP2 MLOAD DUP2 LT PUSH2 0x1660 JUMPI PUSH2 0x1660 PUSH2 0x3806 JUMP JUMPDEST PUSH1 0x1 PUSH1 0x1 PUSH1 0xA0 SHL SUB SWAP3 DUP4 AND PUSH1 0x20 SWAP2 DUP3 MUL SWAP3 SWAP1 SWAP3 ADD ADD MSTORE PUSH1 0x9 SLOAD PUSH1 0x40 MLOAD PUSH4 0xB6F9DE95 PUSH1 0xE0 SHL DUP2 MSTORE SWAP2 AND SWAP1 PUSH4 0xB6F9DE95 SWAP1 DUP5 SWAP1 PUSH2 0x16A6 SWAP1 PUSH1 0x0 SWAP1 DUP7 SWAP1 CALLER SWAP1 TIMESTAMP SWAP1 PUSH1 0x4 ADD PUSH2 0x3606 JUMP JUMPDEST PUSH1 0x0 PUSH1 0x40 MLOAD DUP1 DUP4 SUB DUP2 DUP6 DUP9 DUP1 EXTCODESIZE ISZERO DUP1 ISZERO PUSH2 0x16BF JUMPI PUSH1 0x0 DUP1 REVERT JUMPDEST POP GAS CALL ISZERO DUP1 ISZERO PUSH2 0x16D3 JUMPI RETURNDATASIZE PUSH1 0x0 DUP1 RETURNDATACOPY RETURNDATASIZE PUSH1 0x0 REVERT JUMPDEST POP POP POP POP POP POP JUMPDEST PUSH1 0x7 SLOAD PUSH1 0x40 DUP1 MLOAD PUSH1 0x0 DUP1 DUP3 MSTORE PUSH1 0x20 DUP3 ADD SWAP3 DUP4 SWAP1 MSTORE SWAP3 PUSH1 0x1 PUSH1 0x1 PUSH1 0xA0 SHL SUB AND SWAP2 SELFBALANCE SWAP2 PUSH2 0x1704 SWAP2 PUSH2 0x3566 JUMP JUMPDEST PUSH1 0x0 PUSH1 0x40 MLOAD DUP1 DUP4 SUB DUP2 DUP6 DUP8 GAS CALL SWAP3 POP POP POP RETURNDATASIZE DUP1 PUSH1 0x0 DUP2 EQ PUSH2 0x1741 JUMPI PUSH1 0x40 MLOAD SWAP2 POP PUSH1 0x1F NOT PUSH1 0x3F RETURNDATASIZE ADD AND DUP3 ADD PUSH1 0x40 MSTORE RETURNDATASIZE DUP3 MSTORE RETURNDATASIZE PUSH1 0x0 PUSH1 0x20 DUP5 ADD RETURNDATACOPY PUSH2 0x1746 JUMP JUMPDEST PUSH1 0x60 SWAP2 POP JUMPDEST POP POP SWAP1 POP DUP1 PUSH2 0x1767 JUMPI PUSH1 0x40 MLOAD PUSH3 0x461BCD PUSH1 0xE5 SHL DUP2 MSTORE PUSH1 0x4 ADD PUSH2 0x8C7 SWAP1 PUSH2 0x3683 JUMP JUMPDEST POP POP SELFBALANCE PUSH1 0x5 SSTORE POP POP POP POP POP JUMP JUMPDEST PUSH1 0x0 SLOAD PUSH1 0x1 PUSH1 0x1 PUSH1 0xA0 SHL SUB AND CALLER EQ PUSH2 0x179E JUMPI PUSH1 0x40 MLOAD PUSH3 0x461BCD PUSH1 0xE5 SHL DUP2 MSTORE PUSH1 0x4 ADD PUSH2 0x8C7 SWAP1 PUSH2 0x364E JUMP JUMPDEST PUSH1 0x5 SLOAD PUSH1 0x40 MLOAD CALLER SWAP2 DUP1 ISZERO PUSH2 0x8FC MUL SWAP2 PUSH1 0x0 DUP2 DUP2 DUP2 DUP6 DUP9 DUP9 CALL SWAP4 POP POP POP POP ISZERO DUP1 ISZERO PUSH2 0x17CC JUMPI RETURNDATASIZE PUSH1 0x0 DUP1 RETURNDATACOPY RETURNDATASIZE PUSH1 0x0 REVERT JUMPDEST POP SELFBALANCE PUSH1 0x5 SSTORE JUMP JUMPDEST PUSH1 0x0 SLOAD PUSH1 0x1 PUSH1 0x1 PUSH1 0xA0 SHL SUB AND CALLER EQ PUSH2 0x17FD JUMPI PUSH1 0x40 MLOAD PUSH3 0x461BCD PUSH1 0xE5 SHL DUP2 MSTORE PUSH1 0x4 ADD PUSH2 0x8C7 SWAP1 PUSH2 0x364E JUMP JUMPDEST PUSH1 0x1 PUSH1 0x1 PUSH1 0xA0 SHL SUB DUP2 AND PUSH2 0x1862 JUMPI PUSH1 0x40 MLOAD PUSH3 0x461BCD PUSH1 0xE5 SHL DUP2 MSTORE PUSH1 0x20 PUSH1 0x4 DUP3 ADD MSTORE PUSH1 0x26 PUSH1 0x24 DUP3 ADD MSTORE PUSH32 0x4F776E61626C653A206E6577206F776E657220697320746865207A65726F2061 PUSH1 0x44 DUP3 ADD MSTORE PUSH6 0x646472657373 PUSH1 0xD0 SHL PUSH1 0x64 DUP3 ADD MSTORE PUSH1 0x84 ADD PUSH2 0x8C7 JUMP JUMPDEST PUSH2 0x186B DUP2 PUSH2 0x25F9 JUMP JUMPDEST POP JUMP JUMPDEST PUSH1 0x4 SLOAD PUSH1 0x0 SWAP1 PUSH1 0x1 PUSH1 0x1 PUSH1 0xA0 SHL SUB DUP4 DUP2 AND SWAP2 AND EQ ISZERO PUSH2 0x188E JUMPI POP SELFBALANCE SWAP2 SWAP1 POP JUMP JUMPDEST PUSH1 0x40 MLOAD PUSH4 0x70A08231 PUSH1 0xE0 SHL DUP2 MSTORE ADDRESS PUSH1 0x4 DUP3 ADD MSTORE PUSH1 0x0 SWAP1 PUSH1 0x1 PUSH1 0x1 PUSH1 0xA0 SHL SUB DUP5 AND SWAP1 PUSH4 0x70A08231 SWAP1 PUSH1 0x24 ADD PUSH1 0x20 PUSH1 0x40 MLOAD DUP1 DUP4 SUB DUP2 DUP7 DUP1 EXTCODESIZE ISZERO DUP1 ISZERO PUSH2 0x18D0 JUMPI PUSH1 0x0 DUP1 REVERT JUMPDEST POP GAS STATICCALL ISZERO DUP1 ISZERO PUSH2 0x18E4 JUMPI RETURNDATASIZE PUSH1 0x0 DUP1 RETURNDATACOPY RETURNDATASIZE PUSH1 0x0 REVERT JUMPDEST POP POP POP POP PUSH1 0x40 MLOAD RETURNDATASIZE PUSH1 0x1F NOT PUSH1 0x1F DUP3 ADD AND DUP3 ADD DUP1 PUSH1 0x40 MSTORE POP DUP2 ADD SWAP1 PUSH2 0x1908 SWAP2 SWAP1 PUSH2 0x3412 JUMP JUMPDEST SWAP4 SWAP3 POP POP POP JUMP JUMPDEST SWAP2 SWAP1 POP JUMP JUMPDEST PUSH1 0x40 MLOAD PUSH4 0x6EB1769F PUSH1 0xE1 SHL DUP2 MSTORE ADDRESS PUSH1 0x4 DUP3 ADD MSTORE PUSH1 0x1 PUSH1 0x1 PUSH1 0xA0 SHL SUB DUP3 DUP2 AND PUSH1 0x24 DUP4 ADD MSTORE DUP4 SWAP2 SWAP1 DUP6 AND SWAP1 PUSH4 0xDD62ED3E SWAP1 PUSH1 0x44 ADD PUSH1 0x20 PUSH1 0x40 MLOAD DUP1 DUP4 SUB DUP2 DUP7 DUP1 EXTCODESIZE ISZERO DUP1 ISZERO PUSH2 0x195E JUMPI PUSH1 0x0 DUP1 REVERT JUMPDEST POP GAS STATICCALL ISZERO DUP1 ISZERO PUSH2 0x1972 JUMPI RETURNDATASIZE PUSH1 0x0 DUP1 RETURNDATACOPY RETURNDATASIZE PUSH1 0x0 REVERT JUMPDEST POP POP POP POP PUSH1 0x40 MLOAD RETURNDATASIZE PUSH1 0x1F NOT PUSH1 0x1F DUP3 ADD AND DUP3 ADD DUP1 PUSH1 0x40 MSTORE POP DUP2 ADD SWAP1 PUSH2 0x1996 SWAP2 SWAP1 PUSH2 0x3412 JUMP JUMPDEST LT ISZERO PUSH2 0x1A25 JUMPI PUSH1 0x1 SLOAD PUSH1 0x40 MLOAD PUSH4 0x95EA7B3 PUSH1 0xE0 SHL DUP2 MSTORE PUSH1 0x1 PUSH1 0x1 PUSH1 0xA0 SHL SUB DUP4 DUP2 AND PUSH1 0x4 DUP4 ADD MSTORE PUSH1 0x24 DUP3 ADD SWAP3 SWAP1 SWAP3 MSTORE SWAP1 DUP5 AND SWAP1 PUSH4 0x95EA7B3 SWAP1 PUSH1 0x44 ADD PUSH1 0x20 PUSH1 0x40 MLOAD DUP1 DUP4 SUB DUP2 PUSH1 0x0 DUP8 DUP1 EXTCODESIZE ISZERO DUP1 ISZERO PUSH2 0x19EB JUMPI PUSH1 0x0 DUP1 REVERT JUMPDEST POP GAS CALL ISZERO DUP1 ISZERO PUSH2 0x19FF JUMPI RETURNDATASIZE PUSH1 0x0 DUP1 RETURNDATACOPY RETURNDATASIZE PUSH1 0x0 REVERT JUMPDEST POP POP POP POP PUSH1 0x40 MLOAD RETURNDATASIZE PUSH1 0x1F NOT PUSH1 0x1F DUP3 ADD AND DUP3 ADD DUP1 PUSH1 0x40 MSTORE POP DUP2 ADD SWAP1 PUSH2 0x1A23 SWAP2 SWAP1 PUSH2 0x3392 JUMP JUMPDEST POP JUMPDEST POP POP POP JUMP JUMPDEST PUSH1 0x4 SLOAD PUSH1 0x1 PUSH1 0x1 PUSH1 0xA0 SHL SUB DUP4 DUP2 AND SWAP2 AND EQ ISZERO PUSH2 0x1A42 JUMPI SWAP1 JUMPDEST PUSH2 0x1A4C DUP4 DUP6 PUSH2 0x978 JUMP JUMPDEST PUSH1 0x0 DUP1 PUSH1 0x0 DUP1 PUSH1 0x0 DUP1 PUSH1 0x0 DUP1 PUSH1 0x0 PUSH1 0x4 PUSH1 0x0 SWAP1 SLOAD SWAP1 PUSH2 0x100 EXP SWAP1 DIV PUSH1 0x1 PUSH1 0x1 PUSH1 0xA0 SHL SUB AND PUSH1 0x1 PUSH1 0x1 PUSH1 0xA0 SHL SUB AND DUP11 PUSH1 0x1 PUSH1 0x1 PUSH1 0xA0 SHL SUB AND EQ ISZERO PUSH2 0x1A93 JUMPI PUSH1 0x5 SLOAD SWAP9 POP PUSH2 0x1A9F JUMP JUMPDEST PUSH2 0x1A9C DUP11 PUSH2 0x186E JUMP JUMPDEST SWAP9 POP JUMPDEST PUSH1 0x2 SLOAD PUSH1 0x8 DUP1 SLOAD PUSH1 0x1 PUSH1 0x1 PUSH1 0xA0 SHL SUB SWAP3 DUP4 AND PUSH1 0x1 PUSH1 0x1 PUSH1 0xA0 SHL SUB NOT SWAP2 DUP3 AND OR SWAP1 SWAP2 SSTORE PUSH1 0x3 SLOAD PUSH1 0x9 DUP1 SLOAD SWAP2 DUP5 AND SWAP2 DUP4 AND SWAP2 SWAP1 SWAP2 OR SWAP1 SSTORE PUSH1 0xD DUP1 SLOAD DUP3 AND DUP16 DUP5 AND SWAP1 DUP2 OR SWAP1 SWAP2 SSTORE PUSH1 0xB DUP1 SLOAD DUP4 AND DUP16 DUP6 AND OR SWAP1 SSTORE PUSH1 0xC DUP1 SLOAD SWAP1 SWAP3 AND DUP14 DUP5 AND OR SWAP1 SWAP2 SSTORE PUSH1 0x4 SLOAD SWAP1 SWAP2 AND EQ PUSH2 0x1B48 JUMPI PUSH2 0x1B11 DUP13 PUSH2 0x186E JUMP JUMPDEST SWAP8 POP PUSH2 0x1B48 CALLER ADDRESS DUP16 PUSH1 0xD PUSH1 0x0 SWAP1 SLOAD SWAP1 PUSH2 0x100 EXP SWAP1 DIV PUSH1 0x1 PUSH1 0x1 PUSH1 0xA0 SHL SUB AND PUSH1 0x1 PUSH1 0x1 PUSH1 0xA0 SHL SUB AND PUSH2 0x2649 SWAP1 SWAP4 SWAP3 SWAP2 SWAP1 PUSH4 0xFFFFFFFF AND JUMP JUMPDEST PUSH1 0x4 SLOAD PUSH1 0x1 PUSH1 0x1 PUSH1 0xA0 SHL SUB DUP14 DUP2 AND SWAP2 AND EQ ISZERO PUSH2 0x1B66 JUMPI DUP13 SWAP7 POP PUSH2 0x1B7D JUMP JUMPDEST DUP8 PUSH2 0x1B70 DUP14 PUSH2 0x186E JUMP JUMPDEST PUSH2 0x1B7A SWAP2 SWAP1 PUSH2 0x3792 JUMP JUMPDEST SWAP7 POP JUMPDEST DUP10 PUSH1 0x1 PUSH1 0x1 PUSH1 0xA0 SHL SUB AND DUP13 PUSH1 0x1 PUSH1 0x1 PUSH1 0xA0 SHL SUB AND EQ ISZERO PUSH2 0x1BA0 JUMPI PUSH1 0x0 SWAP3 POP PUSH2 0x1BEA JUMP JUMPDEST DUP11 PUSH1 0x1 PUSH1 0x1 PUSH1 0xA0 SHL SUB AND DUP13 PUSH1 0x1 PUSH1 0x1 PUSH1 0xA0 SHL SUB AND EQ ISZERO PUSH2 0x1BE6 JUMPI PUSH1 0x6 SLOAD PUSH2 0x1BC9 SWAP1 PUSH2 0x1388 PUSH2 0x3739 JUMP JUMPDEST PUSH2 0x1BD5 PUSH2 0x2710 DUP10 PUSH2 0x3751 JUMP JUMPDEST PUSH2 0x1BDF SWAP2 SWAP1 PUSH2 0x3773 JUMP JUMPDEST SWAP3 POP PUSH2 0x1BEA JUMP JUMPDEST DUP7 SWAP3 POP JUMPDEST PUSH1 0x2 SLOAD PUSH2 0x1C03 SWAP1 DUP14 SWAP1 DUP6 SWAP1 PUSH1 0x1 PUSH1 0x1 PUSH1 0xA0 SHL SUB AND PUSH2 0x1914 JUMP JUMPDEST PUSH2 0x1C0C DUP11 PUSH2 0x186E JUMP JUMPDEST SWAP6 POP DUP3 ISZERO PUSH2 0x1F1B JUMPI PUSH1 0x4 SLOAD PUSH1 0x0 SWAP1 PUSH2 0x1C2C SWAP1 PUSH1 0x1 PUSH1 0x1 PUSH1 0xA0 SHL SUB AND PUSH2 0x186E JUMP JUMPDEST PUSH1 0x40 DUP1 MLOAD PUSH1 0x2 DUP1 DUP3 MSTORE PUSH1 0x60 DUP3 ADD DUP4 MSTORE SWAP3 SWAP4 POP PUSH1 0x0 SWAP3 SWAP1 SWAP2 PUSH1 0x20 DUP4 ADD SWAP1 DUP1 CALLDATASIZE DUP4 CALLDATACOPY ADD SWAP1 POP POP SWAP1 POP DUP14 DUP2 PUSH1 0x0 DUP2 MLOAD DUP2 LT PUSH2 0x1C66 JUMPI PUSH2 0x1C66 PUSH2 0x3806 JUMP JUMPDEST PUSH1 0x1 PUSH1 0x1 PUSH1 0xA0 SHL SUB SWAP3 DUP4 AND PUSH1 0x20 SWAP2 DUP3 MUL SWAP3 SWAP1 SWAP3 ADD DUP2 ADD SWAP2 SWAP1 SWAP2 MSTORE PUSH1 0x8 SLOAD PUSH1 0x40 DUP1 MLOAD PUSH4 0x15AB88C9 PUSH1 0xE3 SHL DUP2 MSTORE SWAP1 MLOAD SWAP2 SWAP1 SWAP4 AND SWAP3 PUSH4 0xAD5C4648 SWAP3 PUSH1 0x4 DUP1 DUP4 ADD SWAP4 SWAP2 SWAP3 DUP3 SWAP1 SUB ADD DUP2 DUP7 DUP1 EXTCODESIZE ISZERO DUP1 ISZERO PUSH2 0x1CBA JUMPI PUSH1 0x0 DUP1 REVERT JUMPDEST POP GAS STATICCALL ISZERO DUP1 ISZERO PUSH2 0x1CCE JUMPI RETURNDATASIZE PUSH1 0x0 DUP1 RETURNDATACOPY RETURNDATASIZE PUSH1 0x0 REVERT JUMPDEST POP POP POP POP PUSH1 0x40 MLOAD RETURNDATASIZE PUSH1 0x1F NOT PUSH1 0x1F DUP3 ADD AND DUP3 ADD DUP1 PUSH1 0x40 MSTORE POP DUP2 ADD SWAP1 PUSH2 0x1CF2 SWAP2 SWAP1 PUSH2 0x31D0 JUMP JUMPDEST DUP2 PUSH1 0x1 DUP2 MLOAD DUP2 LT PUSH2 0x1D05 JUMPI PUSH2 0x1D05 PUSH2 0x3806 JUMP JUMPDEST PUSH1 0x1 PUSH1 0x1 PUSH1 0xA0 SHL SUB SWAP3 DUP4 AND PUSH1 0x20 SWAP2 DUP3 MUL SWAP3 SWAP1 SWAP3 ADD ADD MSTORE PUSH1 0x8 SLOAD PUSH1 0x40 MLOAD PUSH4 0x791AC947 PUSH1 0xE0 SHL DUP2 MSTORE SWAP2 AND SWAP1 PUSH4 0x791AC947 SWAP1 PUSH2 0x1D4B SWAP1 DUP9 SWAP1 PUSH1 0x0 SWAP1 DUP7 SWAP1 ADDRESS SWAP1 TIMESTAMP SWAP1 PUSH1 0x4 ADD PUSH2 0x36C6 JUMP JUMPDEST PUSH1 0x0 PUSH1 0x40 MLOAD DUP1 DUP4 SUB DUP2 PUSH1 0x0 DUP8 DUP1 EXTCODESIZE ISZERO DUP1 ISZERO PUSH2 0x1D65 JUMPI PUSH1 0x0 DUP1 REVERT JUMPDEST POP GAS CALL ISZERO DUP1 ISZERO PUSH2 0x1D79 JUMPI RETURNDATASIZE PUSH1 0x0 DUP1 RETURNDATACOPY RETURNDATASIZE PUSH1 0x0 REVERT JUMPDEST POP POP PUSH1 0x4 SLOAD PUSH1 0x1 PUSH1 0x1 PUSH1 0xA0 SHL SUB DUP16 DUP2 AND SWAP2 AND EQ SWAP2 POP PUSH2 0x1F18 SWAP1 POP JUMPI PUSH1 0x4 SLOAD DUP3 SWAP1 PUSH2 0x1DAB SWAP1 PUSH1 0x1 PUSH1 0x1 PUSH1 0xA0 SHL SUB AND PUSH2 0x186E JUMP JUMPDEST PUSH2 0x1DB5 SWAP2 SWAP1 PUSH2 0x3792 JUMP JUMPDEST PUSH1 0x40 DUP1 MLOAD PUSH1 0x2 DUP1 DUP3 MSTORE PUSH1 0x60 DUP3 ADD DUP4 MSTORE SWAP3 SWAP8 POP PUSH1 0x0 SWAP3 SWAP1 SWAP2 PUSH1 0x20 DUP4 ADD SWAP1 DUP1 CALLDATASIZE DUP4 CALLDATACOPY POP POP PUSH1 0x9 SLOAD PUSH1 0x40 DUP1 MLOAD PUSH4 0x15AB88C9 PUSH1 0xE3 SHL DUP2 MSTORE SWAP1 MLOAD SWAP4 SWAP5 POP PUSH1 0x1 PUSH1 0x1 PUSH1 0xA0 SHL SUB SWAP1 SWAP2 AND SWAP3 PUSH4 0xAD5C4648 SWAP3 POP PUSH1 0x4 DUP1 DUP4 ADD SWAP3 PUSH1 0x20 SWAP3 SWAP2 SWAP1 DUP3 SWAP1 SUB ADD DUP2 DUP7 DUP1 EXTCODESIZE ISZERO DUP1 ISZERO PUSH2 0x1E1F JUMPI PUSH1 0x0 DUP1 REVERT JUMPDEST POP GAS STATICCALL ISZERO DUP1 ISZERO PUSH2 0x1E33 JUMPI RETURNDATASIZE PUSH1 0x0 DUP1 RETURNDATACOPY RETURNDATASIZE PUSH1 0x0 REVERT JUMPDEST POP POP POP POP PUSH1 0x40 MLOAD RETURNDATASIZE PUSH1 0x1F NOT PUSH1 0x1F DUP3 ADD AND DUP3 ADD DUP1 PUSH1 0x40 MSTORE POP DUP2 ADD SWAP1 PUSH2 0x1E57 SWAP2 SWAP1 PUSH2 0x31D0 JUMP JUMPDEST DUP2 PUSH1 0x0 DUP2 MLOAD DUP2 LT PUSH2 0x1E6A JUMPI PUSH2 0x1E6A PUSH2 0x3806 JUMP JUMPDEST PUSH1 0x20 MUL PUSH1 0x20 ADD ADD SWAP1 PUSH1 0x1 PUSH1 0x1 PUSH1 0xA0 SHL SUB AND SWAP1 DUP2 PUSH1 0x1 PUSH1 0x1 PUSH1 0xA0 SHL SUB AND DUP2 MSTORE POP POP DUP13 DUP2 PUSH1 0x1 DUP2 MLOAD DUP2 LT PUSH2 0x1E9E JUMPI PUSH2 0x1E9E PUSH2 0x3806 JUMP JUMPDEST PUSH1 0x1 PUSH1 0x1 PUSH1 0xA0 SHL SUB SWAP3 DUP4 AND PUSH1 0x20 SWAP2 DUP3 MUL SWAP3 SWAP1 SWAP3 ADD ADD MSTORE PUSH1 0x9 SLOAD PUSH1 0x40 MLOAD PUSH4 0xB6F9DE95 PUSH1 0xE0 SHL DUP2 MSTORE SWAP2 AND SWAP1 PUSH4 0xB6F9DE95 SWAP1 DUP9 SWAP1 PUSH2 0x1EE4 SWAP1 PUSH1 0x0 SWAP1 DUP7 SWAP1 ADDRESS SWAP1 TIMESTAMP SWAP1 PUSH1 0x4 ADD PUSH2 0x3606 JUMP JUMPDEST PUSH1 0x0 PUSH1 0x40 MLOAD DUP1 DUP4 SUB DUP2 DUP6 DUP9 DUP1 EXTCODESIZE ISZERO DUP1 ISZERO PUSH2 0x1EFD JUMPI PUSH1 0x0 DUP1 REVERT JUMPDEST POP GAS CALL ISZERO DUP1 ISZERO PUSH2 0x1F11 JUMPI RETURNDATASIZE PUSH1 0x0 DUP1 RETURNDATACOPY RETURNDATASIZE PUSH1 0x0 REVERT JUMPDEST POP POP POP POP POP POP JUMPDEST POP POP JUMPDEST DUP10 PUSH1 0x1 PUSH1 0x1 PUSH1 0xA0 SHL SUB AND DUP13 PUSH1 0x1 PUSH1 0x1 PUSH1 0xA0 SHL SUB AND EQ ISZERO PUSH2 0x1F3D JUMPI DUP7 SWAP5 POP PUSH2 0x1F54 JUMP JUMPDEST DUP6 PUSH2 0x1F47 DUP12 PUSH2 0x186E JUMP JUMPDEST PUSH2 0x1F51 SWAP2 SWAP1 PUSH2 0x3792 JUMP JUMPDEST SWAP5 POP JUMPDEST PUSH2 0x1F5D DUP12 PUSH2 0x186E JUMP JUMPDEST SWAP4 POP DUP11 PUSH1 0x1 PUSH1 0x1 PUSH1 0xA0 SHL SUB AND DUP13 PUSH1 0x1 PUSH1 0x1 PUSH1 0xA0 SHL SUB AND EQ PUSH2 0x2420 JUMPI PUSH1 0x6 SLOAD PUSH2 0x1F87 SWAP1 PUSH2 0x1388 PUSH2 0x3792 JUMP JUMPDEST PUSH2 0x1F93 PUSH2 0x2710 DUP8 PUSH2 0x3751 JUMP JUMPDEST PUSH2 0x1F9D SWAP2 SWAP1 PUSH2 0x3773 JUMP JUMPDEST PUSH1 0x3 SLOAD SWAP1 SWAP4 POP PUSH2 0x1FB9 SWAP1 DUP12 SWAP1 DUP6 SWAP1 PUSH1 0x1 PUSH1 0x1 PUSH1 0xA0 SHL SUB AND PUSH2 0x1914 JUMP JUMPDEST PUSH1 0x4 SLOAD PUSH1 0x1 PUSH1 0x1 PUSH1 0xA0 SHL SUB DUP12 DUP2 AND SWAP2 AND EQ ISZERO PUSH2 0x2131 JUMPI PUSH1 0x40 DUP1 MLOAD PUSH1 0x2 DUP1 DUP3 MSTORE PUSH1 0x60 DUP3 ADD DUP4 MSTORE PUSH1 0x0 SWAP3 PUSH1 0x20 DUP4 ADD SWAP1 DUP1 CALLDATASIZE DUP4 CALLDATACOPY POP POP PUSH1 0x9 SLOAD PUSH1 0x40 DUP1 MLOAD PUSH4 0x15AB88C9 PUSH1 0xE3 SHL DUP2 MSTORE SWAP1 MLOAD SWAP4 SWAP5 POP PUSH1 0x1 PUSH1 0x1 PUSH1 0xA0 SHL SUB SWAP1 SWAP2 AND SWAP3 PUSH4 0xAD5C4648 SWAP3 POP PUSH1 0x4 DUP1 DUP4 ADD SWAP3 PUSH1 0x20 SWAP3 SWAP2 SWAP1 DUP3 SWAP1 SUB ADD DUP2 DUP7 DUP1 EXTCODESIZE ISZERO DUP1 ISZERO PUSH2 0x2034 JUMPI PUSH1 0x0 DUP1 REVERT JUMPDEST POP GAS STATICCALL ISZERO DUP1 ISZERO PUSH2 0x2048 JUMPI RETURNDATASIZE PUSH1 0x0 DUP1 RETURNDATACOPY RETURNDATASIZE PUSH1 0x0 REVERT JUMPDEST POP POP POP POP PUSH1 0x40 MLOAD RETURNDATASIZE PUSH1 0x1F NOT PUSH1 0x1F DUP3 ADD AND DUP3 ADD DUP1 PUSH1 0x40 MSTORE POP DUP2 ADD SWAP1 PUSH2 0x206C SWAP2 SWAP1 PUSH2 0x31D0 JUMP JUMPDEST DUP2 PUSH1 0x0 DUP2 MLOAD DUP2 LT PUSH2 0x207F JUMPI PUSH2 0x207F PUSH2 0x3806 JUMP JUMPDEST PUSH1 0x20 MUL PUSH1 0x20 ADD ADD SWAP1 PUSH1 0x1 PUSH1 0x1 PUSH1 0xA0 SHL SUB AND SWAP1 DUP2 PUSH1 0x1 PUSH1 0x1 PUSH1 0xA0 SHL SUB AND DUP2 MSTORE POP POP DUP12 DUP2 PUSH1 0x1 DUP2 MLOAD DUP2 LT PUSH2 0x20B3 JUMPI PUSH2 0x20B3 PUSH2 0x3806 JUMP JUMPDEST PUSH1 0x1 PUSH1 0x1 PUSH1 0xA0 SHL SUB SWAP3 DUP4 AND PUSH1 0x20 SWAP2 DUP3 MUL SWAP3 SWAP1 SWAP3 ADD ADD MSTORE PUSH1 0x9 SLOAD PUSH1 0x40 MLOAD PUSH4 0xB6F9DE95 PUSH1 0xE0 SHL DUP2 MSTORE SWAP2 AND SWAP1 PUSH4 0xB6F9DE95 SWAP1 DUP7 SWAP1 PUSH2 0x20F9 SWAP1 PUSH1 0x0 SWAP1 DUP7 SWAP1 ADDRESS SWAP1 TIMESTAMP SWAP1 PUSH1 0x4 ADD PUSH2 0x3606 JUMP JUMPDEST PUSH1 0x0 PUSH1 0x40 MLOAD DUP1 DUP4 SUB DUP2 DUP6 DUP9 DUP1 EXTCODESIZE ISZERO DUP1 ISZERO PUSH2 0x2112 JUMPI PUSH1 0x0 DUP1 REVERT JUMPDEST POP GAS CALL ISZERO DUP1 ISZERO PUSH2 0x2126 JUMPI RETURNDATASIZE PUSH1 0x0 DUP1 RETURNDATACOPY RETURNDATASIZE PUSH1 0x0 REVERT JUMPDEST POP POP POP POP POP POP PUSH2 0x2420 JUMP JUMPDEST PUSH1 0x4 SLOAD PUSH1 0x0 SWAP1 PUSH2 0x2149 SWAP1 PUSH1 0x1 PUSH1 0x1 PUSH1 0xA0 SHL SUB AND PUSH2 0x186E JUMP JUMPDEST PUSH1 0x40 DUP1 MLOAD PUSH1 0x2 DUP1 DUP3 MSTORE PUSH1 0x60 DUP3 ADD DUP4 MSTORE SWAP3 SWAP4 POP PUSH1 0x0 SWAP3 SWAP1 SWAP2 PUSH1 0x20 DUP4 ADD SWAP1 DUP1 CALLDATASIZE DUP4 CALLDATACOPY ADD SWAP1 POP POP SWAP1 POP DUP12 DUP2 PUSH1 0x0 DUP2 MLOAD DUP2 LT PUSH2 0x2183 JUMPI PUSH2 0x2183 PUSH2 0x3806 JUMP JUMPDEST PUSH1 0x1 PUSH1 0x1 PUSH1 0xA0 SHL SUB SWAP3 DUP4 AND PUSH1 0x20 SWAP2 DUP3 MUL SWAP3 SWAP1 SWAP3 ADD DUP2 ADD SWAP2 SWAP1 SWAP2 MSTORE PUSH1 0x9 SLOAD PUSH1 0x40 DUP1 MLOAD PUSH4 0x15AB88C9 PUSH1 0xE3 SHL DUP2 MSTORE SWAP1 MLOAD SWAP2 SWAP1 SWAP4 AND SWAP3 PUSH4 0xAD5C4648 SWAP3 PUSH1 0x4 DUP1 DUP4 ADD SWAP4 SWAP2 SWAP3 DUP3 SWAP1 SUB ADD DUP2 DUP7 DUP1 EXTCODESIZE ISZERO DUP1 ISZERO PUSH2 0x21D7 JUMPI PUSH1 0x0 DUP1 REVERT JUMPDEST POP GAS STATICCALL ISZERO DUP1 ISZERO PUSH2 0x21EB JUMPI RETURNDATASIZE PUSH1 0x0 DUP1 RETURNDATACOPY RETURNDATASIZE PUSH1 0x0 REVERT JUMPDEST POP POP POP POP PUSH1 0x40 MLOAD RETURNDATASIZE PUSH1 0x1F NOT PUSH1 0x1F DUP3 ADD AND DUP3 ADD DUP1 PUSH1 0x40 MSTORE POP DUP2 ADD SWAP1 PUSH2 0x220F SWAP2 SWAP1 PUSH2 0x31D0 JUMP JUMPDEST DUP2 PUSH1 0x1 DUP2 MLOAD DUP2 LT PUSH2 0x2222 JUMPI PUSH2 0x2222 PUSH2 0x3806 JUMP JUMPDEST PUSH1 0x1 PUSH1 0x1 PUSH1 0xA0 SHL SUB SWAP3 DUP4 AND PUSH1 0x20 SWAP2 DUP3 MUL SWAP3 SWAP1 SWAP3 ADD ADD MSTORE PUSH1 0x9 SLOAD PUSH1 0x40 MLOAD PUSH4 0x791AC947 PUSH1 0xE0 SHL DUP2 MSTORE SWAP2 AND SWAP1 PUSH4 0x791AC947 SWAP1 PUSH2 0x2268 SWAP1 DUP9 SWAP1 PUSH1 0x0 SWAP1 DUP7 SWAP1 ADDRESS SWAP1 TIMESTAMP SWAP1 PUSH1 0x4 ADD PUSH2 0x36C6 JUMP JUMPDEST PUSH1 0x0 PUSH1 0x40 MLOAD DUP1 DUP4 SUB DUP2 PUSH1 0x0 DUP8 DUP1 EXTCODESIZE ISZERO DUP1 ISZERO PUSH2 0x2282 JUMPI PUSH1 0x0 DUP1 REVERT JUMPDEST POP GAS CALL ISZERO DUP1 ISZERO PUSH2 0x2296 JUMPI RETURNDATASIZE PUSH1 0x0 DUP1 RETURNDATACOPY RETURNDATASIZE PUSH1 0x0 REVERT JUMPDEST POP POP PUSH1 0x4 SLOAD DUP5 SWAP3 POP PUSH2 0x22B1 SWAP2 POP PUSH1 0x1 PUSH1 0x1 PUSH1 0xA0 SHL SUB AND PUSH2 0x186E JUMP JUMPDEST PUSH2 0x22BB SWAP2 SWAP1 PUSH2 0x3792 JUMP JUMPDEST PUSH1 0x40 DUP1 MLOAD PUSH1 0x2 DUP1 DUP3 MSTORE PUSH1 0x60 DUP3 ADD DUP4 MSTORE SWAP3 SWAP8 POP PUSH1 0x0 SWAP3 SWAP1 SWAP2 PUSH1 0x20 DUP4 ADD SWAP1 DUP1 CALLDATASIZE DUP4 CALLDATACOPY POP POP PUSH1 0x9 SLOAD PUSH1 0x40 DUP1 MLOAD PUSH4 0x15AB88C9 PUSH1 0xE3 SHL DUP2 MSTORE SWAP1 MLOAD SWAP4 SWAP5 POP PUSH1 0x1 PUSH1 0x1 PUSH1 0xA0 SHL SUB SWAP1 SWAP2 AND SWAP3 PUSH4 0xAD5C4648 SWAP3 POP PUSH1 0x4 DUP1 DUP4 ADD SWAP3 PUSH1 0x20 SWAP3 SWAP2 SWAP1 DUP3 SWAP1 SUB ADD DUP2 DUP7 DUP1 EXTCODESIZE ISZERO DUP1 ISZERO PUSH2 0x2325 JUMPI PUSH1 0x0 DUP1 REVERT JUMPDEST POP GAS STATICCALL ISZERO DUP1 ISZERO PUSH2 0x2339 JUMPI RETURNDATASIZE PUSH1 0x0 DUP1 RETURNDATACOPY RETURNDATASIZE PUSH1 0x0 REVERT JUMPDEST POP POP POP POP PUSH1 0x40 MLOAD RETURNDATASIZE PUSH1 0x1F NOT PUSH1 0x1F DUP3 ADD AND DUP3 ADD DUP1 PUSH1 0x40 MSTORE POP DUP2 ADD SWAP1 PUSH2 0x235D SWAP2 SWAP1 PUSH2 0x31D0 JUMP JUMPDEST DUP2 PUSH1 0x0 DUP2 MLOAD DUP2 LT PUSH2 0x2370 JUMPI PUSH2 0x2370 PUSH2 0x3806 JUMP JUMPDEST PUSH1 0x20 MUL PUSH1 0x20 ADD ADD SWAP1 PUSH1 0x1 PUSH1 0x1 PUSH1 0xA0 SHL SUB AND SWAP1 DUP2 PUSH1 0x1 PUSH1 0x1 PUSH1 0xA0 SHL SUB AND DUP2 MSTORE POP POP DUP14 DUP2 PUSH1 0x1 DUP2 MLOAD DUP2 LT PUSH2 0x23A4 JUMPI PUSH2 0x23A4 PUSH2 0x3806 JUMP JUMPDEST PUSH1 0x1 PUSH1 0x1 PUSH1 0xA0 SHL SUB SWAP3 DUP4 AND PUSH1 0x20 SWAP2 DUP3 MUL SWAP3 SWAP1 SWAP3 ADD ADD MSTORE PUSH1 0x9 SLOAD PUSH1 0x40 MLOAD PUSH4 0xB6F9DE95 PUSH1 0xE0 SHL DUP2 MSTORE SWAP2 AND SWAP1 PUSH4 0xB6F9DE95 SWAP1 DUP9 SWAP1 PUSH2 0x23EA SWAP1 PUSH1 0x0 SWAP1 DUP8 SWAP1 ADDRESS SWAP1 TIMESTAMP SWAP1 PUSH1 0x4 ADD PUSH2 0x3606 JUMP JUMPDEST PUSH1 0x0 PUSH1 0x40 MLOAD DUP1 DUP4 SUB DUP2 DUP6 DUP9 DUP1 EXTCODESIZE ISZERO DUP1 ISZERO PUSH2 0x2403 JUMPI PUSH1 0x0 DUP1 REVERT JUMPDEST POP GAS CALL ISZERO DUP1 ISZERO PUSH2 0x2417 JUMPI RETURNDATASIZE PUSH1 0x0 DUP1 RETURNDATACOPY RETURNDATASIZE PUSH1 0x0 REVERT JUMPDEST POP POP POP POP POP POP POP POP JUMPDEST DUP12 PUSH1 0x1 PUSH1 0x1 PUSH1 0xA0 SHL SUB AND DUP12 PUSH1 0x1 PUSH1 0x1 PUSH1 0xA0 SHL SUB AND EQ ISZERO PUSH2 0x2444 JUMPI POP DUP3 SWAP1 POP DUP4 PUSH2 0x2471 JUMP JUMPDEST DUP4 PUSH2 0x244E DUP13 PUSH2 0x186E JUMP JUMPDEST PUSH2 0x2458 SWAP2 SWAP1 PUSH2 0x3792 JUMP JUMPDEST SWAP2 POP DUP9 PUSH2 0x2464 DUP12 PUSH2 0x186E JUMP JUMPDEST PUSH2 0x246E SWAP2 SWAP1 PUSH2 0x3792 JUMP JUMPDEST SWAP1 POP JUMPDEST PUSH1 0x3 SLOAD PUSH2 0x248A SWAP1 DUP13 SWAP1 DUP5 SWAP1 PUSH1 0x1 PUSH1 0x1 PUSH1 0xA0 SHL SUB AND PUSH2 0x1914 JUMP JUMPDEST PUSH1 0x3 SLOAD PUSH2 0x24A3 SWAP1 DUP12 SWAP1 DUP4 SWAP1 PUSH1 0x1 PUSH1 0x1 PUSH1 0xA0 SHL SUB AND PUSH2 0x1914 JUMP JUMPDEST PUSH1 0x4 SLOAD PUSH1 0x1 PUSH1 0x1 PUSH1 0xA0 SHL SUB DUP12 DUP2 AND SWAP2 AND EQ ISZERO PUSH2 0x2550 JUMPI PUSH1 0x9 SLOAD PUSH1 0x40 MLOAD PUSH4 0xF305D719 PUSH1 0xE0 SHL DUP2 MSTORE PUSH1 0x1 PUSH1 0x1 PUSH1 0xA0 SHL SUB SWAP1 SWAP2 AND SWAP1 PUSH4 0xF305D719 SWAP1 DUP4 SWAP1 PUSH2 0x24F6 SWAP1 DUP16 SWAP1 DUP8 SWAP1 PUSH1 0x0 SWAP1 DUP2 SWAP1 CALLER SWAP1 TIMESTAMP SWAP1 PUSH1 0x4 ADD PUSH2 0x35CB JUMP JUMPDEST PUSH1 0x60 PUSH1 0x40 MLOAD DUP1 DUP4 SUB DUP2 DUP6 DUP9 DUP1 EXTCODESIZE ISZERO DUP1 ISZERO PUSH2 0x250F JUMPI PUSH1 0x0 DUP1 REVERT JUMPDEST POP GAS CALL ISZERO DUP1 ISZERO PUSH2 0x2523 JUMPI RETURNDATASIZE PUSH1 0x0 DUP1 RETURNDATACOPY RETURNDATASIZE PUSH1 0x0 REVERT JUMPDEST POP POP POP POP POP PUSH1 0x40 MLOAD RETURNDATASIZE PUSH1 0x1F NOT PUSH1 0x1F DUP3 ADD AND DUP3 ADD DUP1 PUSH1 0x40 MSTORE POP DUP2 ADD SWAP1 PUSH2 0x2548 SWAP2 SWAP1 PUSH2 0x34C8 JUMP JUMPDEST POP POP POP PUSH2 0x116B JUMP JUMPDEST PUSH1 0x9 SLOAD PUSH1 0x40 MLOAD PUSH3 0xE8E337 PUSH1 0xE8 SHL DUP2 MSTORE PUSH1 0x1 PUSH1 0x1 PUSH1 0xA0 SHL SUB SWAP1 SWAP2 AND SWAP1 PUSH4 0xE8E33700 SWAP1 PUSH2 0x258E SWAP1 DUP15 SWAP1 DUP15 SWAP1 DUP8 SWAP1 DUP8 SWAP1 PUSH1 0x0 SWAP1 DUP2 SWAP1 CALLER SWAP1 TIMESTAMP SWAP1 PUSH1 0x4 ADD PUSH2 0x3582 JUMP JUMPDEST PUSH1 0x60 PUSH1 0x40 MLOAD DUP1 DUP4 SUB DUP2 PUSH1 0x0 DUP8 DUP1 EXTCODESIZE ISZERO DUP1 ISZERO PUSH2 0x25A8 JUMPI PUSH1 0x0 DUP1 REVERT JUMPDEST POP GAS CALL ISZERO DUP1 ISZERO PUSH2 0x25BC JUMPI RETURNDATASIZE PUSH1 0x0 DUP1 RETURNDATACOPY RETURNDATASIZE PUSH1 0x0 REVERT JUMPDEST POP POP POP POP PUSH1 0x40 MLOAD RETURNDATASIZE PUSH1 0x1F NOT PUSH1 0x1F DUP3 ADD AND DUP3 ADD DUP1 PUSH1 0x40 MSTORE POP DUP2 ADD SWAP1 PUSH2 0x25E0 SWAP2 SWAP1 PUSH2 0x34C8 JUMP JUMPDEST POP POP POP PUSH1 0x7 SLOAD PUSH1 0x0 SWAP1 PUSH1 0x1 PUSH1 0x1 PUSH1 0xA0 SHL SUB AND SELFBALANCE DUP3 PUSH2 0x117D JUMP JUMPDEST PUSH1 0x0 DUP1 SLOAD PUSH1 0x1 PUSH1 0x1 PUSH1 0xA0 SHL SUB DUP4 DUP2 AND PUSH1 0x1 PUSH1 0x1 PUSH1 0xA0 SHL SUB NOT DUP4 AND DUP2 OR DUP5 SSTORE PUSH1 0x40 MLOAD SWAP2 SWAP1 SWAP3 AND SWAP3 DUP4 SWAP2 PUSH32 0x8BE0079C531659141344CD1FD0A4F28419497F9722A3DAAFE3B4186F6B6457E0 SWAP2 SWAP1 LOG3 POP POP JUMP JUMPDEST PUSH1 0x40 MLOAD PUSH1 0x1 PUSH1 0x1 PUSH1 0xA0 SHL SUB DUP1 DUP6 AND PUSH1 0x24 DUP4 ADD MSTORE DUP4 AND PUSH1 0x44 DUP3 ADD MSTORE PUSH1 0x64 DUP2 ADD DUP3 SWAP1 MSTORE PUSH2 0x1A23 SWAP1 DUP6 SWAP1 PUSH4 0x23B872DD PUSH1 0xE0 SHL SWAP1 PUSH1 0x84 ADD JUMPDEST PUSH1 0x40 DUP1 MLOAD PUSH1 0x1F NOT DUP2 DUP5 SUB ADD DUP2 MSTORE SWAP2 SWAP1 MSTORE PUSH1 0x20 DUP2 ADD DUP1 MLOAD PUSH1 0x1 PUSH1 0x1 PUSH1 0xE0 SHL SUB AND PUSH1 0x1 PUSH1 0x1 PUSH1 0xE0 SHL SUB NOT SWAP1 SWAP4 AND SWAP3 SWAP1 SWAP3 OR SWAP1 SWAP2 MSTORE PUSH2 0x2957 JUMP JUMPDEST PUSH1 0x40 MLOAD CALLER SWAP1 DUP3 ISZERO PUSH2 0x8FC MUL SWAP1 DUP4 SWAP1 PUSH1 0x0 DUP2 DUP2 DUP2 DUP6 DUP9 DUP9 CALL SWAP4 POP POP POP POP ISZERO DUP1 ISZERO PUSH2 0x93E JUMPI RETURNDATASIZE PUSH1 0x0 DUP1 RETURNDATACOPY RETURNDATASIZE PUSH1 0x0 REVERT JUMPDEST PUSH1 0x40 MLOAD PUSH1 0x1 PUSH1 0x1 PUSH1 0xA0 SHL SUB DUP4 AND PUSH1 0x24 DUP3 ADD MSTORE PUSH1 0x44 DUP2 ADD DUP3 SWAP1 MSTORE PUSH2 0x1A25 SWAP1 DUP5 SWAP1 PUSH4 0xA9059CBB PUSH1 0xE0 SHL SWAP1 PUSH1 0x64 ADD PUSH2 0x267D JUMP JUMPDEST PUSH1 0x8 DUP1 SLOAD PUSH1 0x1 PUSH1 0x1 PUSH1 0xA0 SHL SUB NOT AND PUSH1 0x1 PUSH1 0x1 PUSH1 0xA0 SHL SUB DUP4 AND SWAP1 DUP2 OR SWAP1 SWAP2 SSTORE PUSH1 0x40 DUP1 MLOAD PUSH4 0x15AB88C9 PUSH1 0xE3 SHL DUP2 MSTORE SWAP1 MLOAD PUSH1 0x0 SWAP3 SWAP2 PUSH4 0xAD5C4648 SWAP2 PUSH1 0x4 DUP1 DUP4 ADD SWAP3 PUSH1 0x20 SWAP3 SWAP2 SWAP1 DUP3 SWAP1 SUB ADD DUP2 DUP7 DUP1 EXTCODESIZE ISZERO DUP1 ISZERO PUSH2 0x2768 JUMPI PUSH1 0x0 DUP1 REVERT JUMPDEST POP GAS STATICCALL ISZERO DUP1 ISZERO PUSH2 0x277C JUMPI RETURNDATASIZE PUSH1 0x0 DUP1 RETURNDATACOPY RETURNDATASIZE PUSH1 0x0 REVERT JUMPDEST POP POP POP POP PUSH1 0x40 MLOAD RETURNDATASIZE PUSH1 0x1F NOT PUSH1 0x1F DUP3 ADD AND DUP3 ADD DUP1 PUSH1 0x40 MSTORE POP DUP2 ADD SWAP1 PUSH2 0x27A0 SWAP2 SWAP1 PUSH2 0x31D0 JUMP JUMPDEST SWAP1 POP PUSH2 0x2806 DUP5 PUSH1 0x0 DUP2 MLOAD DUP2 LT PUSH2 0x27B8 JUMPI PUSH2 0x27B8 PUSH2 0x3806 JUMP JUMPDEST PUSH1 0x20 MUL PUSH1 0x20 ADD ADD MLOAD CALLER PUSH2 0x2800 DUP7 DUP9 PUSH1 0x0 DUP2 MLOAD DUP2 LT PUSH2 0x27D8 JUMPI PUSH2 0x27D8 PUSH2 0x3806 JUMP JUMPDEST PUSH1 0x20 MUL PUSH1 0x20 ADD ADD MLOAD DUP10 PUSH1 0x1 DUP2 MLOAD DUP2 LT PUSH2 0x27F3 JUMPI PUSH2 0x27F3 PUSH2 0x3806 JUMP JUMPDEST PUSH1 0x20 MUL PUSH1 0x20 ADD ADD MLOAD PUSH2 0x2A29 JUMP JUMPDEST DUP10 PUSH2 0x2AB6 JUMP JUMPDEST PUSH2 0x2812 DUP5 ADDRESS DUP6 DUP6 PUSH2 0x2BDE JUMP JUMPDEST PUSH1 0x40 MLOAD PUSH4 0x70A08231 PUSH1 0xE0 SHL DUP2 MSTORE ADDRESS PUSH1 0x4 DUP3 ADD MSTORE PUSH1 0x0 SWAP1 PUSH1 0x1 PUSH1 0x1 PUSH1 0xA0 SHL SUB DUP4 AND SWAP1 PUSH4 0x70A08231 SWAP1 PUSH1 0x24 ADD PUSH1 0x20 PUSH1 0x40 MLOAD DUP1 DUP4 SUB DUP2 DUP7 DUP1 EXTCODESIZE ISZERO DUP1 ISZERO PUSH2 0x2854 JUMPI PUSH1 0x0 DUP1 REVERT JUMPDEST POP GAS STATICCALL ISZERO DUP1 ISZERO PUSH2 0x2868 JUMPI RETURNDATASIZE PUSH1 0x0 DUP1 RETURNDATACOPY RETURNDATASIZE PUSH1 0x0 REVERT JUMPDEST POP POP POP POP PUSH1 0x40 MLOAD RETURNDATASIZE PUSH1 0x1F NOT PUSH1 0x1F DUP3 ADD AND DUP3 ADD DUP1 PUSH1 0x40 MSTORE POP DUP2 ADD SWAP1 PUSH2 0x288C SWAP2 SWAP1 PUSH2 0x3412 JUMP JUMPDEST SWAP1 POP DUP6 DUP2 LT ISZERO PUSH2 0x28F4 JUMPI PUSH1 0x40 MLOAD PUSH3 0x461BCD PUSH1 0xE5 SHL DUP2 MSTORE PUSH1 0x20 PUSH1 0x4 DUP3 ADD MSTORE PUSH1 0x2D PUSH1 0x24 DUP3 ADD MSTORE PUSH32 0x4661726D61676564646F6E526F757465723A20494E53554646494349454E545F PUSH1 0x44 DUP3 ADD MSTORE PUSH13 0x13D55514155517D05353D55395 PUSH1 0x9A SHL PUSH1 0x64 DUP3 ADD MSTORE PUSH1 0x84 ADD PUSH2 0x8C7 JUMP JUMPDEST PUSH1 0x40 MLOAD PUSH4 0x2E1A7D4D PUSH1 0xE0 SHL DUP2 MSTORE PUSH1 0x4 DUP2 ADD DUP3 SWAP1 MSTORE PUSH1 0x1 PUSH1 0x1 PUSH1 0xA0 SHL SUB DUP4 AND SWAP1 PUSH4 0x2E1A7D4D SWAP1 PUSH1 0x24 ADD PUSH1 0x0 PUSH1 0x40 MLOAD DUP1 DUP4 SUB DUP2 PUSH1 0x0 DUP8 DUP1 EXTCODESIZE ISZERO DUP1 ISZERO PUSH2 0x2936 JUMPI PUSH1 0x0 DUP1 REVERT JUMPDEST POP GAS CALL ISZERO DUP1 ISZERO PUSH2 0x294A JUMPI RETURNDATASIZE PUSH1 0x0 DUP1 RETURNDATACOPY RETURNDATASIZE PUSH1 0x0 REVERT JUMPDEST POP POP POP POP POP POP POP POP POP POP POP JUMP JUMPDEST PUSH1 0x0 PUSH2 0x29AC DUP3 PUSH1 0x40 MLOAD DUP1 PUSH1 0x40 ADD PUSH1 0x40 MSTORE DUP1 PUSH1 0x20 DUP2 MSTORE PUSH1 0x20 ADD PUSH32 0x5361666545524332303A206C6F772D6C6576656C2063616C6C206661696C6564 DUP2 MSTORE POP DUP6 PUSH1 0x1 PUSH1 0x1 PUSH1 0xA0 SHL SUB AND PUSH2 0x2D40 SWAP1 SWAP3 SWAP2 SWAP1 PUSH4 0xFFFFFFFF AND JUMP JUMPDEST DUP1 MLOAD SWAP1 SWAP2 POP ISZERO PUSH2 0x1A25 JUMPI DUP1 DUP1 PUSH1 0x20 ADD SWAP1 MLOAD DUP2 ADD SWAP1 PUSH2 0x29CA SWAP2 SWAP1 PUSH2 0x3392 JUMP JUMPDEST PUSH2 0x1A25 JUMPI PUSH1 0x40 MLOAD PUSH3 0x461BCD PUSH1 0xE5 SHL DUP2 MSTORE PUSH1 0x20 PUSH1 0x4 DUP3 ADD MSTORE PUSH1 0x2A PUSH1 0x24 DUP3 ADD MSTORE PUSH32 0x5361666545524332303A204552433230206F7065726174696F6E20646964206E PUSH1 0x44 DUP3 ADD MSTORE PUSH10 0x1BDD081CDD58D8D95959 PUSH1 0xB2 SHL PUSH1 0x64 DUP3 ADD MSTORE PUSH1 0x84 ADD PUSH2 0x8C7 JUMP JUMPDEST PUSH1 0x40 MLOAD PUSH4 0xE6A43905 PUSH1 0xE0 SHL DUP2 MSTORE PUSH1 0x1 PUSH1 0x1 PUSH1 0xA0 SHL SUB DUP4 DUP2 AND PUSH1 0x4 DUP4 ADD MSTORE DUP3 DUP2 AND PUSH1 0x24 DUP4 ADD MSTORE PUSH1 0x0 SWAP2 SWAP1 DUP6 AND SWAP1 PUSH4 0xE6A43905 SWAP1 PUSH1 0x44 ADD PUSH1 0x20 PUSH1 0x40 MLOAD DUP1 DUP4 SUB DUP2 DUP7 DUP1 EXTCODESIZE ISZERO DUP1 ISZERO PUSH2 0x2A76 JUMPI PUSH1 0x0 DUP1 REVERT JUMPDEST POP GAS STATICCALL ISZERO DUP1 ISZERO PUSH2 0x2A8A JUMPI RETURNDATASIZE PUSH1 0x0 DUP1 RETURNDATACOPY RETURNDATASIZE PUSH1 0x0 REVERT JUMPDEST POP POP POP POP PUSH1 0x40 MLOAD RETURNDATASIZE PUSH1 0x1F NOT PUSH1 0x1F DUP3 ADD AND DUP3 ADD DUP1 PUSH1 0x40 MSTORE POP DUP2 ADD SWAP1 PUSH2 0x2AAE SWAP2 SWAP1 PUSH2 0x31D0 JUMP JUMPDEST SWAP5 SWAP4 POP POP POP POP JUMP JUMPDEST PUSH1 0x40 DUP1 MLOAD PUSH1 0x1 PUSH1 0x1 PUSH1 0xA0 SHL SUB DUP6 DUP2 AND PUSH1 0x24 DUP4 ADD MSTORE DUP5 DUP2 AND PUSH1 0x44 DUP4 ADD MSTORE PUSH1 0x64 DUP1 DUP4 ADD DUP6 SWAP1 MSTORE DUP4 MLOAD DUP1 DUP5 SUB SWAP1 SWAP2 ADD DUP2 MSTORE PUSH1 0x84 SWAP1 SWAP3 ADD DUP4 MSTORE PUSH1 0x20 DUP3 ADD DUP1 MLOAD PUSH1 0x1 PUSH1 0x1 PUSH1 0xE0 SHL SUB AND PUSH4 0x23B872DD PUSH1 0xE0 SHL OR SWAP1 MSTORE SWAP2 MLOAD PUSH1 0x0 SWAP3 DUP4 SWAP3 SWAP1 DUP9 AND SWAP2 PUSH2 0x2B1A SWAP2 SWAP1 PUSH2 0x3566 JUMP JUMPDEST PUSH1 0x0 PUSH1 0x40 MLOAD DUP1 DUP4 SUB DUP2 PUSH1 0x0 DUP7 GAS CALL SWAP2 POP POP RETURNDATASIZE DUP1 PUSH1 0x0 DUP2 EQ PUSH2 0x2B57 JUMPI PUSH1 0x40 MLOAD SWAP2 POP PUSH1 0x1F NOT PUSH1 0x3F RETURNDATASIZE ADD AND DUP3 ADD PUSH1 0x40 MSTORE RETURNDATASIZE DUP3 MSTORE RETURNDATASIZE PUSH1 0x0 PUSH1 0x20 DUP5 ADD RETURNDATACOPY PUSH2 0x2B5C JUMP JUMPDEST PUSH1 0x60 SWAP2 POP JUMPDEST POP SWAP2 POP SWAP2 POP DUP2 DUP1 ISZERO PUSH2 0x2B86 JUMPI POP DUP1 MLOAD ISZERO DUP1 PUSH2 0x2B86 JUMPI POP DUP1 DUP1 PUSH1 0x20 ADD SWAP1 MLOAD DUP2 ADD SWAP1 PUSH2 0x2B86 SWAP2 SWAP1 PUSH2 0x3392 JUMP JUMPDEST PUSH2 0x91D JUMPI PUSH1 0x40 MLOAD PUSH3 0x461BCD PUSH1 0xE5 SHL DUP2 MSTORE PUSH1 0x20 PUSH1 0x4 DUP3 ADD MSTORE PUSH1 0x24 DUP1 DUP3 ADD MSTORE PUSH32 0x5472616E7366657248656C7065723A205452414E534645525F46524F4D5F4641 PUSH1 0x44 DUP3 ADD MSTORE PUSH4 0x12531151 PUSH1 0xE2 SHL PUSH1 0x64 DUP3 ADD MSTORE PUSH1 0x84 ADD PUSH2 0x8C7 JUMP JUMPDEST PUSH1 0x0 JUMPDEST PUSH1 0x1 DUP6 MLOAD PUSH2 0x2BEF SWAP2 SWAP1 PUSH2 0x3792 JUMP JUMPDEST DUP2 LT ISZERO PUSH2 0x2D39 JUMPI PUSH1 0x0 DUP1 DUP7 DUP4 DUP2 MLOAD DUP2 LT PUSH2 0x2C0B JUMPI PUSH2 0x2C0B PUSH2 0x3806 JUMP JUMPDEST PUSH1 0x20 MUL PUSH1 0x20 ADD ADD MLOAD DUP8 DUP5 PUSH1 0x1 PUSH2 0x2C21 SWAP2 SWAP1 PUSH2 0x3739 JUMP JUMPDEST DUP2 MLOAD DUP2 LT PUSH2 0x2C31 JUMPI PUSH2 0x2C31 PUSH2 0x3806 JUMP JUMPDEST PUSH1 0x20 MUL PUSH1 0x20 ADD ADD MLOAD SWAP2 POP SWAP2 POP PUSH1 0x0 PUSH2 0x2C49 DUP4 DUP4 PUSH2 0x2D4F JUMP JUMPDEST POP SWAP1 POP PUSH1 0x0 PUSH2 0x2C59 DUP8 DUP6 DUP6 PUSH2 0x2A29 JUMP JUMPDEST SWAP1 POP PUSH1 0x0 DUP1 PUSH2 0x2C6A DUP4 DUP8 DUP7 DUP12 PUSH2 0x2E32 JUMP JUMPDEST SWAP2 POP SWAP2 POP PUSH1 0x0 PUSH1 0x2 DUP13 MLOAD PUSH2 0x2C7E SWAP2 SWAP1 PUSH2 0x3792 JUMP JUMPDEST DUP9 LT PUSH2 0x2C8A JUMPI DUP11 PUSH2 0x2CAB JUMP JUMPDEST PUSH2 0x2CAB DUP11 DUP8 DUP15 PUSH2 0x2C9B DUP13 PUSH1 0x2 PUSH2 0x3739 JUMP JUMPDEST DUP2 MLOAD DUP2 LT PUSH2 0x27F3 JUMPI PUSH2 0x27F3 PUSH2 0x3806 JUMP JUMPDEST PUSH1 0x40 DUP1 MLOAD PUSH1 0x0 DUP2 MSTORE PUSH1 0x20 DUP2 ADD SWAP2 DUP3 SWAP1 MSTORE PUSH4 0x22C0D9F PUSH1 0xE0 SHL SWAP1 SWAP2 MSTORE SWAP1 SWAP2 POP PUSH1 0x1 PUSH1 0x1 PUSH1 0xA0 SHL SUB DUP6 AND SWAP1 PUSH4 0x22C0D9F SWAP1 PUSH2 0x2CED SWAP1 DUP7 SWAP1 DUP7 SWAP1 DUP7 SWAP1 PUSH1 0x24 DUP2 ADD PUSH2 0x3702 JUMP JUMPDEST PUSH1 0x0 PUSH1 0x40 MLOAD DUP1 DUP4 SUB DUP2 PUSH1 0x0 DUP8 DUP1 EXTCODESIZE ISZERO DUP1 ISZERO PUSH2 0x2D07 JUMPI PUSH1 0x0 DUP1 REVERT JUMPDEST POP GAS CALL ISZERO DUP1 ISZERO PUSH2 0x2D1B JUMPI RETURNDATASIZE PUSH1 0x0 DUP1 RETURNDATACOPY RETURNDATASIZE PUSH1 0x0 REVERT JUMPDEST POP POP POP POP POP POP POP POP POP POP POP DUP1 DUP1 PUSH2 0x2D31 SWAP1 PUSH2 0x37D5 JUMP JUMPDEST SWAP2 POP POP PUSH2 0x2BE1 JUMP JUMPDEST POP POP POP POP POP JUMP JUMPDEST PUSH1 0x60 PUSH2 0x2AAE DUP5 DUP5 PUSH1 0x0 DUP6 PUSH2 0x303B JUMP JUMPDEST PUSH1 0x0 DUP1 DUP3 PUSH1 0x1 PUSH1 0x1 PUSH1 0xA0 SHL SUB AND DUP5 PUSH1 0x1 PUSH1 0x1 PUSH1 0xA0 SHL SUB AND EQ ISZERO PUSH2 0x2DB4 JUMPI PUSH1 0x40 MLOAD PUSH3 0x461BCD PUSH1 0xE5 SHL DUP2 MSTORE PUSH1 0x20 PUSH1 0x4 DUP3 ADD MSTORE PUSH1 0x1D PUSH1 0x24 DUP3 ADD MSTORE PUSH32 0x494C6962726172793A204944454E544943414C5F414444524553534553000000 PUSH1 0x44 DUP3 ADD MSTORE PUSH1 0x64 ADD PUSH2 0x8C7 JUMP JUMPDEST DUP3 PUSH1 0x1 PUSH1 0x1 PUSH1 0xA0 SHL SUB AND DUP5 PUSH1 0x1 PUSH1 0x1 PUSH1 0xA0 SHL SUB AND LT PUSH2 0x2DD4 JUMPI DUP3 DUP5 PUSH2 0x2DD7 JUMP JUMPDEST DUP4 DUP4 JUMPDEST SWAP1 SWAP3 POP SWAP1 POP PUSH1 0x1 PUSH1 0x1 PUSH1 0xA0 SHL SUB DUP3 AND PUSH2 0x2E2B JUMPI PUSH1 0x40 MLOAD PUSH3 0x461BCD PUSH1 0xE5 SHL DUP2 MSTORE PUSH1 0x20 PUSH1 0x4 DUP3 ADD MSTORE PUSH1 0x16 PUSH1 0x24 DUP3 ADD MSTORE PUSH22 0x494C6962726172793A205A45524F5F41444452455353 PUSH1 0x50 SHL PUSH1 0x44 DUP3 ADD MSTORE PUSH1 0x64 ADD PUSH2 0x8C7 JUMP JUMPDEST SWAP3 POP SWAP3 SWAP1 POP JUMP JUMPDEST PUSH1 0x0 DUP1 PUSH1 0x0 DUP1 DUP8 PUSH1 0x1 PUSH1 0x1 PUSH1 0xA0 SHL SUB AND PUSH4 0x902F1AC PUSH1 0x40 MLOAD DUP2 PUSH4 0xFFFFFFFF AND PUSH1 0xE0 SHL DUP2 MSTORE PUSH1 0x4 ADD PUSH1 0x60 PUSH1 0x40 MLOAD DUP1 DUP4 SUB DUP2 DUP7 DUP1 EXTCODESIZE ISZERO DUP1 ISZERO PUSH2 0x2E71 JUMPI PUSH1 0x0 DUP1 REVERT JUMPDEST POP GAS STATICCALL ISZERO DUP1 ISZERO PUSH2 0x2E85 JUMPI RETURNDATASIZE PUSH1 0x0 DUP1 RETURNDATACOPY RETURNDATASIZE PUSH1 0x0 REVERT JUMPDEST POP POP POP POP PUSH1 0x40 MLOAD RETURNDATASIZE PUSH1 0x1F NOT PUSH1 0x1F DUP3 ADD AND DUP3 ADD DUP1 PUSH1 0x40 MSTORE POP DUP2 ADD SWAP1 PUSH2 0x2EA9 SWAP2 SWAP1 PUSH2 0x33B4 JUMP JUMPDEST POP PUSH1 0x1 PUSH1 0x1 PUSH1 0x70 SHL SUB AND SWAP2 POP PUSH1 0x1 PUSH1 0x1 PUSH1 0x70 SHL SUB AND SWAP2 POP PUSH1 0x0 DUP1 DUP8 PUSH1 0x1 PUSH1 0x1 PUSH1 0xA0 SHL SUB AND DUP10 PUSH1 0x1 PUSH1 0x1 PUSH1 0xA0 SHL SUB AND EQ PUSH2 0x2EE3 JUMPI DUP3 DUP5 PUSH2 0x2EE6 JUMP JUMPDEST DUP4 DUP4 JUMPDEST PUSH1 0x40 MLOAD PUSH4 0x70A08231 PUSH1 0xE0 SHL DUP2 MSTORE PUSH1 0x1 PUSH1 0x1 PUSH1 0xA0 SHL SUB DUP14 DUP2 AND PUSH1 0x4 DUP4 ADD MSTORE SWAP3 SWAP5 POP SWAP1 SWAP3 POP PUSH1 0x0 SWAP2 DUP5 SWAP2 SWAP1 DUP13 AND SWAP1 PUSH4 0x70A08231 SWAP1 PUSH1 0x24 ADD PUSH1 0x20 PUSH1 0x40 MLOAD DUP1 DUP4 SUB DUP2 DUP7 DUP1 EXTCODESIZE ISZERO DUP1 ISZERO PUSH2 0x2F33 JUMPI PUSH1 0x0 DUP1 REVERT JUMPDEST POP GAS STATICCALL ISZERO DUP1 ISZERO PUSH2 0x2F47 JUMPI RETURNDATASIZE PUSH1 0x0 DUP1 RETURNDATACOPY RETURNDATASIZE PUSH1 0x0 REVERT JUMPDEST POP POP POP POP PUSH1 0x40 MLOAD RETURNDATASIZE PUSH1 0x1F NOT PUSH1 0x1F DUP3 ADD AND DUP3 ADD DUP1 PUSH1 0x40 MSTORE POP DUP2 ADD SWAP1 PUSH2 0x2F6B SWAP2 SWAP1 PUSH2 0x3412 JUMP JUMPDEST PUSH2 0x2F75 SWAP2 SWAP1 PUSH2 0x3792 JUMP JUMPDEST PUSH1 0x40 MLOAD PUSH4 0x1535435 PUSH1 0xE2 SHL DUP2 MSTORE PUSH1 0x4 DUP2 ADD DUP3 SWAP1 MSTORE PUSH1 0x24 DUP2 ADD DUP6 SWAP1 MSTORE PUSH1 0x44 DUP2 ADD DUP5 SWAP1 MSTORE SWAP1 SWAP2 POP PUSH1 0x0 SWAP1 PUSH1 0x1 PUSH1 0x1 PUSH1 0xA0 SHL SUB DUP11 AND SWAP1 PUSH4 0x54D50D4 SWAP1 PUSH1 0x64 ADD PUSH1 0x20 PUSH1 0x40 MLOAD DUP1 DUP4 SUB DUP2 DUP7 DUP1 EXTCODESIZE ISZERO DUP1 ISZERO PUSH2 0x2FC9 JUMPI PUSH1 0x0 DUP1 REVERT JUMPDEST POP GAS STATICCALL ISZERO DUP1 ISZERO PUSH2 0x2FDD JUMPI RETURNDATASIZE PUSH1 0x0 DUP1 RETURNDATACOPY RETURNDATASIZE PUSH1 0x0 REVERT JUMPDEST POP POP POP POP PUSH1 0x40 MLOAD RETURNDATASIZE PUSH1 0x1F NOT PUSH1 0x1F DUP3 ADD AND DUP3 ADD DUP1 PUSH1 0x40 MSTORE POP DUP2 ADD SWAP1 PUSH2 0x3001 SWAP2 SWAP1 PUSH2 0x3412 JUMP JUMPDEST SWAP1 POP DUP10 PUSH1 0x1 PUSH1 0x1 PUSH1 0xA0 SHL SUB AND DUP12 PUSH1 0x1 PUSH1 0x1 PUSH1 0xA0 SHL SUB AND EQ PUSH2 0x3024 JUMPI DUP1 PUSH1 0x0 PUSH2 0x3028 JUMP JUMPDEST PUSH1 0x0 DUP2 JUMPDEST SWAP1 SWAP14 SWAP1 SWAP13 POP SWAP11 POP POP POP POP POP POP POP POP POP POP POP JUMP JUMPDEST PUSH1 0x60 DUP3 SELFBALANCE LT ISZERO PUSH2 0x309C JUMPI PUSH1 0x40 MLOAD PUSH3 0x461BCD PUSH1 0xE5 SHL DUP2 MSTORE PUSH1 0x20 PUSH1 0x4 DUP3 ADD MSTORE PUSH1 0x26 PUSH1 0x24 DUP3 ADD MSTORE PUSH32 0x416464726573733A20696E73756666696369656E742062616C616E636520666F PUSH1 0x44 DUP3 ADD MSTORE PUSH6 0x1C8818D85B1B PUSH1 0xD2 SHL PUSH1 0x64 DUP3 ADD MSTORE PUSH1 0x84 ADD PUSH2 0x8C7 JUMP JUMPDEST DUP5 EXTCODESIZE PUSH2 0x30EA JUMPI PUSH1 0x40 MLOAD PUSH3 0x461BCD PUSH1 0xE5 SHL DUP2 MSTORE PUSH1 0x20 PUSH1 0x4 DUP3 ADD MSTORE PUSH1 0x1D PUSH1 0x24 DUP3 ADD MSTORE PUSH32 0x416464726573733A2063616C6C20746F206E6F6E2D636F6E7472616374000000 PUSH1 0x44 DUP3 ADD MSTORE PUSH1 0x64 ADD PUSH2 0x8C7 JUMP JUMPDEST PUSH1 0x0 DUP1 DUP7 PUSH1 0x1 PUSH1 0x1 PUSH1 0xA0 SHL SUB AND DUP6 DUP8 PUSH1 0x40 MLOAD PUSH2 0x3106 SWAP2 SWAP1 PUSH2 0x3566 JUMP JUMPDEST PUSH1 0x0 PUSH1 0x40 MLOAD DUP1 DUP4 SUB DUP2 DUP6 DUP8 GAS CALL SWAP3 POP POP POP RETURNDATASIZE DUP1 PUSH1 0x0 DUP2 EQ PUSH2 0x3143 JUMPI PUSH1 0x40 MLOAD SWAP2 POP PUSH1 0x1F NOT PUSH1 0x3F RETURNDATASIZE ADD AND DUP3 ADD PUSH1 0x40 MSTORE RETURNDATASIZE DUP3 MSTORE RETURNDATASIZE PUSH1 0x0 PUSH1 0x20 DUP5 ADD RETURNDATACOPY PUSH2 0x3148 JUMP JUMPDEST PUSH1 0x60 SWAP2 POP JUMPDEST POP SWAP2 POP SWAP2 POP PUSH2 0x3158 DUP3 DUP3 DUP7 PUSH2 0x3163 JUMP JUMPDEST SWAP8 SWAP7 POP POP POP POP POP POP POP JUMP JUMPDEST PUSH1 0x60 DUP4 ISZERO PUSH2 0x3172 JUMPI POP DUP2 PUSH2 0x1908 JUMP JUMPDEST DUP3 MLOAD ISZERO PUSH2 0x3182 JUMPI DUP3 MLOAD DUP1 DUP5 PUSH1 0x20 ADD REVERT JUMPDEST DUP2 PUSH1 0x40 MLOAD PUSH3 0x461BCD PUSH1 0xE5 SHL DUP2 MSTORE PUSH1 0x4 ADD PUSH2 0x8C7 SWAP2 SWAP1 PUSH2 0x363B JUMP JUMPDEST DUP1 MLOAD PUSH1 0x1 PUSH1 0x1 PUSH1 0x70 SHL SUB DUP2 AND DUP2 EQ PUSH2 0x190F JUMPI PUSH1 0x0 DUP1 REVERT JUMPDEST PUSH1 0x0 PUSH1 0x20 DUP3 DUP5 SUB SLT ISZERO PUSH2 0x31C5 JUMPI PUSH1 0x0 DUP1 REVERT JUMPDEST DUP2 CALLDATALOAD PUSH2 0x1908 DUP2 PUSH2 0x381C JUMP JUMPDEST PUSH1 0x0 PUSH1 0x20 DUP3 DUP5 SUB SLT ISZERO PUSH2 0x31E2 JUMPI PUSH1 0x0 DUP1 REVERT JUMPDEST DUP2 MLOAD PUSH2 0x1908 DUP2 PUSH2 0x381C JUMP JUMPDEST PUSH1 0x0 DUP1 PUSH1 0x40 DUP4 DUP6 SUB SLT ISZERO PUSH2 0x3200 JUMPI PUSH1 0x0 DUP1 REVERT JUMPDEST DUP3 CALLDATALOAD PUSH2 0x320B DUP2 PUSH2 0x381C JUMP JUMPDEST SWAP2 POP PUSH1 0x20 DUP4 ADD CALLDATALOAD PUSH2 0x321B DUP2 PUSH2 0x381C JUMP JUMPDEST DUP1 SWAP2 POP POP SWAP3 POP SWAP3 SWAP1 POP JUMP JUMPDEST PUSH1 0x0 DUP1 PUSH1 0x0 PUSH1 0x60 DUP5 DUP7 SUB SLT ISZERO PUSH2 0x323B JUMPI PUSH1 0x0 DUP1 REVERT JUMPDEST DUP4 CALLDATALOAD PUSH2 0x3246 DUP2 PUSH2 0x381C JUMP JUMPDEST SWAP3 POP PUSH1 0x20 DUP5 ADD CALLDATALOAD PUSH2 0x3256 DUP2 PUSH2 0x381C JUMP JUMPDEST SWAP2 POP PUSH1 0x40 DUP5 ADD CALLDATALOAD PUSH2 0x3266 DUP2 PUSH2 0x381C JUMP JUMPDEST DUP1 SWAP2 POP POP SWAP3 POP SWAP3 POP SWAP3 JUMP JUMPDEST PUSH1 0x0 DUP1 PUSH1 0x40 DUP4 DUP6 SUB SLT ISZERO PUSH2 0x3284 JUMPI PUSH1 0x0 DUP1 REVERT JUMPDEST DUP3 CALLDATALOAD PUSH2 0x328F DUP2 PUSH2 0x381C JUMP JUMPDEST SWAP5 PUSH1 0x20 SWAP4 SWAP1 SWAP4 ADD CALLDATALOAD SWAP4 POP POP POP JUMP JUMPDEST PUSH1 0x0 DUP1 PUSH1 0x0 DUP1 PUSH1 0x0 PUSH1 0xA0 DUP7 DUP9 SUB SLT ISZERO PUSH2 0x32B5 JUMPI PUSH1 0x0 DUP1 REVERT JUMPDEST DUP6 CALLDATALOAD PUSH2 0x32C0 DUP2 PUSH2 0x381C JUMP JUMPDEST SWAP5 POP PUSH1 0x20 DUP7 ADD CALLDATALOAD SWAP4 POP PUSH1 0x40 DUP7 ADD CALLDATALOAD PUSH2 0x32D7 DUP2 PUSH2 0x381C JUMP JUMPDEST SWAP3 POP PUSH1 0x60 DUP7 ADD CALLDATALOAD PUSH2 0x32E7 DUP2 PUSH2 0x381C JUMP JUMPDEST SWAP2 POP PUSH1 0x80 DUP7 ADD CALLDATALOAD PUSH2 0x32F7 DUP2 PUSH2 0x381C JUMP JUMPDEST DUP1 SWAP2 POP POP SWAP3 SWAP6 POP SWAP3 SWAP6 SWAP1 SWAP4 POP JUMP JUMPDEST PUSH1 0x0 DUP1 PUSH1 0x0 DUP1 PUSH1 0x0 DUP1 PUSH1 0x0 PUSH1 0xE0 DUP9 DUP11 SUB SLT ISZERO PUSH2 0x3320 JUMPI PUSH1 0x0 DUP1 REVERT JUMPDEST DUP8 CALLDATALOAD PUSH2 0x332B DUP2 PUSH2 0x381C JUMP JUMPDEST SWAP7 POP PUSH1 0x20 DUP9 ADD CALLDATALOAD SWAP6 POP PUSH1 0x40 DUP9 ADD CALLDATALOAD PUSH2 0x3342 DUP2 PUSH2 0x381C JUMP JUMPDEST SWAP5 POP PUSH1 0x60 DUP9 ADD CALLDATALOAD PUSH2 0x3352 DUP2 PUSH2 0x381C JUMP JUMPDEST SWAP4 POP PUSH1 0x80 DUP9 ADD CALLDATALOAD PUSH2 0x3362 DUP2 PUSH2 0x381C JUMP JUMPDEST SWAP3 POP PUSH1 0xA0 DUP9 ADD CALLDATALOAD PUSH2 0x3372 DUP2 PUSH2 0x381C JUMP JUMPDEST SWAP2 POP PUSH1 0xC0 DUP9 ADD CALLDATALOAD PUSH2 0x3382 DUP2 PUSH2 0x381C JUMP JUMPDEST DUP1 SWAP2 POP POP SWAP3 SWAP6 SWAP9 SWAP2 SWAP5 SWAP8 POP SWAP3 SWAP6 POP JUMP JUMPDEST PUSH1 0x0 PUSH1 0x20 DUP3 DUP5 SUB SLT ISZERO PUSH2 0x33A4 JUMPI PUSH1 0x0 DUP1 REVERT JUMPDEST DUP2 MLOAD DUP1 ISZERO ISZERO DUP2 EQ PUSH2 0x1908 JUMPI PUSH1 0x0 DUP1 REVERT JUMPDEST PUSH1 0x0 DUP1 PUSH1 0x0 PUSH1 0x60 DUP5 DUP7 SUB SLT ISZERO PUSH2 0x33C9 JUMPI PUSH1 0x0 DUP1 REVERT JUMPDEST PUSH2 0x33D2 DUP5 PUSH2 0x319C JUMP JUMPDEST SWAP3 POP PUSH2 0x33E0 PUSH1 0x20 DUP6 ADD PUSH2 0x319C JUMP JUMPDEST SWAP2 POP PUSH1 0x40 DUP5 ADD MLOAD PUSH4 0xFFFFFFFF DUP2 AND DUP2 EQ PUSH2 0x3266 JUMPI PUSH1 0x0 DUP1 REVERT JUMPDEST PUSH1 0x0 PUSH1 0x20 DUP3 DUP5 SUB SLT ISZERO PUSH2 0x340B JUMPI PUSH1 0x0 DUP1 REVERT JUMPDEST POP CALLDATALOAD SWAP2 SWAP1 POP JUMP JUMPDEST PUSH1 0x0 PUSH1 0x20 DUP3 DUP5 SUB SLT ISZERO PUSH2 0x3424 JUMPI PUSH1 0x0 DUP1 REVERT JUMPDEST POP MLOAD SWAP2 SWAP1 POP JUMP JUMPDEST PUSH1 0x0 DUP1 PUSH1 0x0 DUP1 PUSH1 0x0 DUP1 PUSH1 0xC0 DUP8 DUP10 SUB SLT ISZERO PUSH2 0x3444 JUMPI PUSH1 0x0 DUP1 REVERT JUMPDEST DUP7 CALLDATALOAD SWAP6 POP PUSH1 0x20 DUP8 ADD CALLDATALOAD PUSH2 0x3456 DUP2 PUSH2 0x381C JUMP JUMPDEST SWAP5 POP PUSH1 0x40 DUP8 ADD CALLDATALOAD PUSH2 0x3466 DUP2 PUSH2 0x381C JUMP JUMPDEST SWAP4 POP PUSH1 0x60 DUP8 ADD CALLDATALOAD PUSH2 0x3476 DUP2 PUSH2 0x381C JUMP JUMPDEST SWAP3 POP PUSH1 0x80 DUP8 ADD CALLDATALOAD PUSH2 0x3486 DUP2 PUSH2 0x381C JUMP JUMPDEST SWAP2 POP PUSH1 0xA0 DUP8 ADD CALLDATALOAD PUSH2 0x3496 DUP2 PUSH2 0x381C JUMP JUMPDEST DUP1 SWAP2 POP POP SWAP3 SWAP6 POP SWAP3 SWAP6 POP SWAP3 SWAP6 JUMP JUMPDEST PUSH1 0x0 DUP1 PUSH1 0x40 DUP4 DUP6 SUB SLT ISZERO PUSH2 0x34B7 JUMPI PUSH1 0x0 DUP1 REVERT JUMPDEST POP POP DUP1 MLOAD PUSH1 0x20 SWAP1 SWAP2 ADD MLOAD SWAP1 SWAP3 SWAP1 SWAP2 POP JUMP JUMPDEST PUSH1 0x0 DUP1 PUSH1 0x0 PUSH1 0x60 DUP5 DUP7 SUB SLT ISZERO PUSH2 0x34DD JUMPI PUSH1 0x0 DUP1 REVERT JUMPDEST DUP4 MLOAD SWAP3 POP PUSH1 0x20 DUP5 ADD MLOAD SWAP2 POP PUSH1 0x40 DUP5 ADD MLOAD SWAP1 POP SWAP3 POP SWAP3 POP SWAP3 JUMP JUMPDEST PUSH1 0x0 DUP2 MLOAD DUP1 DUP5 MSTORE PUSH1 0x20 DUP1 DUP6 ADD SWAP5 POP DUP1 DUP5 ADD PUSH1 0x0 JUMPDEST DUP4 DUP2 LT ISZERO PUSH2 0x352F JUMPI DUP2 MLOAD PUSH1 0x1 PUSH1 0x1 PUSH1 0xA0 SHL SUB AND DUP8 MSTORE SWAP6 DUP3 ADD SWAP6 SWAP1 DUP3 ADD SWAP1 PUSH1 0x1 ADD PUSH2 0x350A JUMP JUMPDEST POP SWAP5 SWAP6 SWAP5 POP POP POP POP POP JUMP JUMPDEST PUSH1 0x0 DUP2 MLOAD DUP1 DUP5 MSTORE PUSH2 0x3552 DUP2 PUSH1 0x20 DUP7 ADD PUSH1 0x20 DUP7 ADD PUSH2 0x37A9 JUMP JUMPDEST PUSH1 0x1F ADD PUSH1 0x1F NOT AND SWAP3 SWAP1 SWAP3 ADD PUSH1 0x20 ADD SWAP3 SWAP2 POP POP JUMP JUMPDEST PUSH1 0x0 DUP3 MLOAD PUSH2 0x3578 DUP2 DUP5 PUSH1 0x20 DUP8 ADD PUSH2 0x37A9 JUMP JUMPDEST SWAP2 SWAP1 SWAP2 ADD SWAP3 SWAP2 POP POP JUMP JUMPDEST PUSH1 0x1 PUSH1 0x1 PUSH1 0xA0 SHL SUB SWAP9 DUP10 AND DUP2 MSTORE SWAP7 DUP9 AND PUSH1 0x20 DUP9 ADD MSTORE PUSH1 0x40 DUP8 ADD SWAP6 SWAP1 SWAP6 MSTORE PUSH1 0x60 DUP7 ADD SWAP4 SWAP1 SWAP4 MSTORE PUSH1 0x80 DUP6 ADD SWAP2 SWAP1 SWAP2 MSTORE PUSH1 0xA0 DUP5 ADD MSTORE SWAP1 SWAP3 AND PUSH1 0xC0 DUP3 ADD MSTORE PUSH1 0xE0 DUP2 ADD SWAP2 SWAP1 SWAP2 MSTORE PUSH2 0x100 ADD SWAP1 JUMP JUMPDEST PUSH1 0x1 PUSH1 0x1 PUSH1 0xA0 SHL SUB SWAP7 DUP8 AND DUP2 MSTORE PUSH1 0x20 DUP2 ADD SWAP6 SWAP1 SWAP6 MSTORE PUSH1 0x40 DUP6 ADD SWAP4 SWAP1 SWAP4 MSTORE PUSH1 0x60 DUP5 ADD SWAP2 SWAP1 SWAP2 MSTORE SWAP1 SWAP3 AND PUSH1 0x80 DUP3 ADD MSTORE PUSH1 0xA0 DUP2 ADD SWAP2 SWAP1 SWAP2 MSTORE PUSH1 0xC0 ADD SWAP1 JUMP JUMPDEST DUP5 DUP2 MSTORE PUSH1 0x80 PUSH1 0x20 DUP3 ADD MSTORE PUSH1 0x0 PUSH2 0x361F PUSH1 0x80 DUP4 ADD DUP7 PUSH2 0x34F6 JUMP JUMPDEST PUSH1 0x1 PUSH1 0x1 PUSH1 0xA0 SHL SUB SWAP5 SWAP1 SWAP5 AND PUSH1 0x40 DUP4 ADD MSTORE POP PUSH1 0x60 ADD MSTORE SWAP3 SWAP2 POP POP JUMP JUMPDEST PUSH1 0x20 DUP2 MSTORE PUSH1 0x0 PUSH2 0x1908 PUSH1 0x20 DUP4 ADD DUP5 PUSH2 0x353A JUMP JUMPDEST PUSH1 0x20 DUP1 DUP3 MSTORE DUP2 DUP2 ADD MSTORE PUSH32 0x4F776E61626C653A2063616C6C6572206973206E6F7420746865206F776E6572 PUSH1 0x40 DUP3 ADD MSTORE PUSH1 0x60 ADD SWAP1 JUMP JUMPDEST PUSH1 0x20 DUP1 DUP3 MSTORE PUSH1 0x23 SWAP1 DUP3 ADD MSTORE PUSH32 0x5472616E7366657248656C7065723A204554485F5452414E534645525F464149 PUSH1 0x40 DUP3 ADD MSTORE PUSH3 0x131151 PUSH1 0xEA SHL PUSH1 0x60 DUP3 ADD MSTORE PUSH1 0x80 ADD SWAP1 JUMP JUMPDEST DUP6 DUP2 MSTORE DUP5 PUSH1 0x20 DUP3 ADD MSTORE PUSH1 0xA0 PUSH1 0x40 DUP3 ADD MSTORE PUSH1 0x0 PUSH2 0x36E5 PUSH1 0xA0 DUP4 ADD DUP7 PUSH2 0x34F6 JUMP JUMPDEST PUSH1 0x1 PUSH1 0x1 PUSH1 0xA0 SHL SUB SWAP5 SWAP1 SWAP5 AND PUSH1 0x60 DUP4 ADD MSTORE POP PUSH1 0x80 ADD MSTORE SWAP4 SWAP3 POP POP POP JUMP JUMPDEST DUP5 DUP2 MSTORE DUP4 PUSH1 0x20 DUP3 ADD MSTORE PUSH1 0x1 DUP1 PUSH1 0xA0 SHL SUB DUP4 AND PUSH1 0x40 DUP3 ADD MSTORE PUSH1 0x80 PUSH1 0x60 DUP3 ADD MSTORE PUSH1 0x0 PUSH2 0x372F PUSH1 0x80 DUP4 ADD DUP5 PUSH2 0x353A JUMP JUMPDEST SWAP7 SWAP6 POP POP POP POP POP POP JUMP JUMPDEST PUSH1 0x0 DUP3 NOT DUP3 GT ISZERO PUSH2 0x374C JUMPI PUSH2 0x374C PUSH2 0x37F0 JUMP JUMPDEST POP ADD SWAP1 JUMP JUMPDEST PUSH1 0x0 DUP3 PUSH2 0x376E JUMPI PUSH4 0x4E487B71 PUSH1 0xE0 SHL PUSH1 0x0 MSTORE PUSH1 0x12 PUSH1 0x4 MSTORE PUSH1 0x24 PUSH1 0x0 REVERT JUMPDEST POP DIV SWAP1 JUMP JUMPDEST PUSH1 0x0 DUP2 PUSH1 0x0 NOT DIV DUP4 GT DUP3 ISZERO ISZERO AND ISZERO PUSH2 0x378D JUMPI PUSH2 0x378D PUSH2 0x37F0 JUMP JUMPDEST POP MUL SWAP1 JUMP JUMPDEST PUSH1 0x0 DUP3 DUP3 LT ISZERO PUSH2 0x37A4 JUMPI PUSH2 0x37A4 PUSH2 0x37F0 JUMP JUMPDEST POP SUB SWAP1 JUMP JUMPDEST PUSH1 0x0 JUMPDEST DUP4 DUP2 LT ISZERO PUSH2 0x37C4 JUMPI DUP2 DUP2 ADD MLOAD DUP4 DUP3 ADD MSTORE PUSH1 0x20 ADD PUSH2 0x37AC JUMP JUMPDEST DUP4 DUP2 GT ISZERO PUSH2 0x1A23 JUMPI POP POP PUSH1 0x0 SWAP2 ADD MSTORE JUMP JUMPDEST PUSH1 0x0 PUSH1 0x0 NOT DUP3 EQ ISZERO PUSH2 0x37E9 JUMPI PUSH2 0x37E9 PUSH2 0x37F0 JUMP JUMPDEST POP PUSH1 0x1 ADD SWAP1 JUMP JUMPDEST PUSH4 0x4E487B71 PUSH1 0xE0 SHL PUSH1 0x0 MSTORE PUSH1 0x11 PUSH1 0x4 MSTORE PUSH1 0x24 PUSH1 0x0 REVERT JUMPDEST PUSH4 0x4E487B71 PUSH1 0xE0 SHL PUSH1 0x0 MSTORE PUSH1 0x32 PUSH1 0x4 MSTORE PUSH1 0x24 PUSH1 0x0 REVERT JUMPDEST PUSH1 0x1 PUSH1 0x1 PUSH1 0xA0 SHL SUB DUP2 AND DUP2 EQ PUSH2 0x186B JUMPI PUSH1 0x0 DUP1 REVERT INVALID LOG2 PUSH5 0x6970667358 0x22 SLT KECCAK256 0xB1 PUSH16 0x6F9EEFD9896BAD3D37127FEBFC40BED7 0xAD 0xE5 ADDRESS 0xD3 MOD 0xEF SWAP11 0x5D LOG0 EQ CALLDATACOPY 0xAC 0xF6 0xBF PUSH5 0x736F6C6343 STOP ADDMOD SMOD STOP CALLER "
				},
				"gasEstimates": {
					"creation": {
						"codeDepositCost": "2887800",
						"executionCost": "infinite",
						"totalCost": "infinite"
					},
					"external": {
						"BNBSTORED()": "2328",
						"FeePercent()": "2308",
						"_1StakeToken(uint256,address,address,address,address,address)": "infinite",
						"_1StakeUsingBNB(address,address,address)": "infinite",
						"_BreakLPReturnToken(address,uint256,address,address,address,address,address)": "infinite",
						"_SetFeePercent(uint256)": "24547",
						"_bnbToToken(address,address)": "infinite",
						"_tokenToToken(address,uint256,address,address,address)": "infinite",
						"owner()": "2376",
						"renounceOwnership()": "28181",
						"setBNBBalance(address,uint256)": "24734",
						"transferOwnership(address)": "infinite",
						"treasury()": "2382",
						"withdawlBNB()": "infinite",
						"withdrawlToken(address)": "infinite"
					},
					"internal": {
						"_1TokenInLPTokenOut(uint256,address,address,address)": "infinite",
						"_swapSupportingFeeOnTransferTokens(address[] memory,address,address,address)": "infinite",
						"balanceCheck(address)": "infinite",
						"checkAllowance1(address,uint256,address)": "infinite",
						"getinfo(contract IPair,address,address,address)": "infinite",
						"returnBNB(uint256)": "infinite",
						"swapExactTokensForETHSupportingFeeOnTransferTokens(uint256,uint256,address[] memory,address,address)": "infinite"
					}
				},
				"methodIdentifiers": {
					"BNBSTORED()": "e1598e4c",
					"FeePercent()": "1f927dcb",
					"_1StakeToken(uint256,address,address,address,address,address)": "5b6caa4c",
					"_1StakeUsingBNB(address,address,address)": "423c79d8",
					"_BreakLPReturnToken(address,uint256,address,address,address,address,address)": "8f1b0772",
					"_SetFeePercent(uint256)": "7d946217",
					"_bnbToToken(address,address)": "5bdcdd54",
					"_tokenToToken(address,uint256,address,address,address)": "b5332d60",
					"owner()": "8da5cb5b",
					"renounceOwnership()": "715018a6",
					"setBNBBalance(address,uint256)": "7a69df21",
					"transferOwnership(address)": "f2fde38b",
					"treasury()": "61d027b3",
					"withdawlBNB()": "e799ffb1",
					"withdrawlToken(address)": "ac5cad56"
				}
			},
			"storageLayout": {
				"storage": [
					{
						"astId": 806,
						"contract": "ZKSYNC/quickcalls.sol:QuickCalls",
						"label": "_owner",
						"offset": 0,
						"slot": "0",
						"type": "t_address"
					},
					{
						"astId": 1063,
						"contract": "ZKSYNC/quickcalls.sol:QuickCalls",
						"label": "MAX_INT",
						"offset": 0,
						"slot": "1",
						"type": "t_uint256"
					},
					{
						"astId": 1065,
						"contract": "ZKSYNC/quickcalls.sol:QuickCalls",
						"label": "router",
						"offset": 0,
						"slot": "2",
						"type": "t_address"
					},
					{
						"astId": 1067,
						"contract": "ZKSYNC/quickcalls.sol:QuickCalls",
						"label": "router2",
						"offset": 0,
						"slot": "3",
						"type": "t_address"
					},
					{
						"astId": 1069,
						"contract": "ZKSYNC/quickcalls.sol:QuickCalls",
						"label": "bnbAddress",
						"offset": 0,
						"slot": "4",
						"type": "t_address"
					},
					{
						"astId": 1072,
						"contract": "ZKSYNC/quickcalls.sol:QuickCalls",
						"label": "BNBSTORED",
						"offset": 0,
						"slot": "5",
						"type": "t_uint256"
					},
					{
						"astId": 1075,
						"contract": "ZKSYNC/quickcalls.sol:QuickCalls",
						"label": "FeePercent",
						"offset": 0,
						"slot": "6",
						"type": "t_uint256"
					},
					{
						"astId": 1077,
						"contract": "ZKSYNC/quickcalls.sol:QuickCalls",
						"label": "treasury",
						"offset": 0,
						"slot": "7",
						"type": "t_address"
					},
					{
						"astId": 1080,
						"contract": "ZKSYNC/quickcalls.sol:QuickCalls",
						"label": "RA",
						"offset": 0,
						"slot": "8",
						"type": "t_contract(routerAddress)1050"
					},
					{
						"astId": 1083,
						"contract": "ZKSYNC/quickcalls.sol:QuickCalls",
						"label": "RA2",
						"offset": 0,
						"slot": "9",
						"type": "t_contract(routerAddress)1050"
					},
					{
						"astId": 1086,
						"contract": "ZKSYNC/quickcalls.sol:QuickCalls",
						"label": "TokenLP",
						"offset": 0,
						"slot": "10",
						"type": "t_contract(IERC20)262"
					},
					{
						"astId": 1089,
						"contract": "ZKSYNC/quickcalls.sol:QuickCalls",
						"label": "TokenA",
						"offset": 0,
						"slot": "11",
						"type": "t_contract(IERC20)262"
					},
					{
						"astId": 1092,
						"contract": "ZKSYNC/quickcalls.sol:QuickCalls",
						"label": "TokenB",
						"offset": 0,
						"slot": "12",
						"type": "t_contract(IERC20)262"
					},
					{
						"astId": 1095,
						"contract": "ZKSYNC/quickcalls.sol:QuickCalls",
						"label": "TokenH",
						"offset": 0,
						"slot": "13",
						"type": "t_contract(IERC20)262"
					}
				],
				"types": {
					"t_address": {
						"encoding": "inplace",
						"label": "address",
						"numberOfBytes": "20"
					},
					"t_contract(IERC20)262": {
						"encoding": "inplace",
						"label": "contract IERC20",
						"numberOfBytes": "20"
					},
					"t_contract(routerAddress)1050": {
						"encoding": "inplace",
						"label": "contract routerAddress",
						"numberOfBytes": "20"
					},
					"t_uint256": {
						"encoding": "inplace",
						"label": "uint256",
						"numberOfBytes": "32"
					}
				}
			},
			"userdoc": {
				"kind": "user",
				"methods": {},
				"version": 1
			}
		}
	}
}