{
  "_format": "hh-sol-artifact-1",
  "contractName": "SVPToken",
  "sourceName": "contracts/SVPToken.sol",
  "abi": [
    {
      "inputs": [
        {
          "internalType": "address",
          "name": "_owner",
          "type": "address"
        }
      ],
      "stateMutability": "nonpayable",
      "type": "constructor"
    },
    {
      "anonymous": false,
      "inputs": [
        {
          "indexed": true,
          "internalType": "address",
          "name": "owner",
          "type": "address"
        },
        {
          "indexed": true,
          "internalType": "address",
          "name": "spender",
          "type": "address"
        },
        {
          "indexed": false,
          "internalType": "uint256",
          "name": "value",
          "type": "uint256"
        }
      ],
      "name": "Approval",
      "type": "event"
    },
    {
      "anonymous": false,
      "inputs": [
        {
          "indexed": true,
          "internalType": "address",
          "name": "previousOwner",
          "type": "address"
        },
        {
          "indexed": true,
          "internalType": "address",
          "name": "newOwner",
          "type": "address"
        }
      ],
      "name": "OwnershipTransferred",
      "type": "event"
    },
    {
      "anonymous": false,
      "inputs": [
        {
          "indexed": true,
          "internalType": "address",
          "name": "from",
          "type": "address"
        },
        {
          "indexed": true,
          "internalType": "address",
          "name": "to",
          "type": "address"
        },
        {
          "indexed": false,
          "internalType": "uint256",
          "name": "value",
          "type": "uint256"
        }
      ],
      "name": "Transfer",
      "type": "event"
    },
    {
      "inputs": [],
      "name": "SUPPLY",
      "outputs": [
        {
          "internalType": "uint256",
          "name": "",
          "type": "uint256"
        }
      ],
      "stateMutability": "view",
      "type": "function"
    },
    {
      "inputs": [
        {
          "internalType": "address",
          "name": "",
          "type": "address"
        },
        {
          "internalType": "address",
          "name": "",
          "type": "address"
        }
      ],
      "name": "allowance",
      "outputs": [
        {
          "internalType": "uint256",
          "name": "",
          "type": "uint256"
        }
      ],
      "stateMutability": "view",
      "type": "function"
    },
    {
      "inputs": [
        {
          "internalType": "address",
          "name": "spender",
          "type": "address"
        },
        {
          "internalType": "uint256",
          "name": "amount",
          "type": "uint256"
        }
      ],
      "name": "approve",
      "outputs": [
        {
          "internalType": "bool",
          "name": "",
          "type": "bool"
        }
      ],
      "stateMutability": "nonpayable",
      "type": "function"
    },
    {
      "inputs": [
        {
          "internalType": "address",
          "name": "",
          "type": "address"
        }
      ],
      "name": "balanceOf",
      "outputs": [
        {
          "internalType": "uint256",
          "name": "",
          "type": "uint256"
        }
      ],
      "stateMutability": "view",
      "type": "function"
    },
    {
      "inputs": [],
      "name": "decimals",
      "outputs": [
        {
          "internalType": "uint8",
          "name": "",
          "type": "uint8"
        }
      ],
      "stateMutability": "view",
      "type": "function"
    },
    {
      "inputs": [],
      "name": "name",
      "outputs": [
        {
          "internalType": "string",
          "name": "",
          "type": "string"
        }
      ],
      "stateMutability": "view",
      "type": "function"
    },
    {
      "inputs": [],
      "name": "owner",
      "outputs": [
        {
          "internalType": "address",
          "name": "",
          "type": "address"
        }
      ],
      "stateMutability": "view",
      "type": "function"
    },
    {
      "inputs": [],
      "name": "symbol",
      "outputs": [
        {
          "internalType": "string",
          "name": "",
          "type": "string"
        }
      ],
      "stateMutability": "view",
      "type": "function"
    },
    {
      "inputs": [],
      "name": "totalSupply",
      "outputs": [
        {
          "internalType": "uint256",
          "name": "",
          "type": "uint256"
        }
      ],
      "stateMutability": "view",
      "type": "function"
    },
    {
      "inputs": [
        {
          "internalType": "address",
          "name": "to",
          "type": "address"
        },
        {
          "internalType": "uint256",
          "name": "amount",
          "type": "uint256"
        }
      ],
      "name": "transfer",
      "outputs": [
        {
          "internalType": "bool",
          "name": "",
          "type": "bool"
        }
      ],
      "stateMutability": "nonpayable",
      "type": "function"
    },
    {
      "inputs": [
        {
          "internalType": "address",
          "name": "from",
          "type": "address"
        },
        {
          "internalType": "address",
          "name": "to",
          "type": "address"
        },
        {
          "internalType": "uint256",
          "name": "amount",
          "type": "uint256"
        }
      ],
      "name": "transferFrom",
      "outputs": [
        {
          "internalType": "bool",
          "name": "",
          "type": "bool"
        }
      ],
      "stateMutability": "nonpayable",
      "type": "function"
    },
    {
      "inputs": [
        {
          "internalType": "address",
          "name": "newOwner",
          "type": "address"
        }
      ],
      "name": "transferOwnership",
      "outputs": [],
      "stateMutability": "nonpayable",
      "type": "function"
    }
  ],
  "bytecode": "0x608060405234801561001057600080fd5b506040516108bb3803806108bb83398101604081905261002f916100f4565b6001600160a01b03811661007b5760405162461bcd60e51b815260206004820152600f60248201526e29ab281d103d32b9379037bbb732b960891b604482015260640160405180910390fd5b600180546001600160a01b0319166001600160a01b0383169081179091556b033b2e3c9fd0803ce800000060008181558281526002602090815260408083208490555192835290917fddf252ad1be2c89b69c2b068fc378daa952ba7f163c4a11628f55a4df523b3ef910160405180910390a350610124565b60006020828403121561010657600080fd5b81516001600160a01b038116811461011d57600080fd5b9392505050565b610788806101336000396000f3fe608060405234801561001057600080fd5b50600436106100b45760003560e01c80638da5cb5b116100715780638da5cb5b1461018957806395d89b41146101b4578063a9059cbb146101d6578063c50497ae146101e9578063dd62ed3e146101fc578063f2fde38b1461022757600080fd5b806306fdde03146100b9578063095ea7b31461010257806318160ddd1461012557806323b872dd1461013c578063313ce5671461014f57806370a0823114610169575b600080fd5b6100ec6040518060400160405280601481526020017314da18591bddd5985d5b1d08141c9bdd1bd8dbdb60621b81525081565b6040516100f991906105f1565b60405180910390f35b61011561011036600461065b565b61023c565b60405190151581526020016100f9565b61012e60005481565b6040519081526020016100f9565b61011561014a366004610685565b6102a9565b610157601281565b60405160ff90911681526020016100f9565b61012e6101773660046106c1565b60026020526000908152604090205481565b60015461019c906001600160a01b031681565b6040516001600160a01b0390911681526020016100f9565b6100ec6040518060400160405280600381526020016205356560ec1b81525081565b6101156101e436600461065b565b610361565b61012e6b033b2e3c9fd0803ce800000081565b61012e61020a3660046106e3565b600360209081526000928352604080842090915290825290205481565b61023a6102353660046106c1565b610377565b005b3360008181526003602090815260408083206001600160a01b038716808552925280832085905551919290917f8c5be1e5ebec7d5bd14f71427d1e84f3dd0314c0f7b2291e5b200ac8c7c3b925906102979086815260200190565b60405180910390a35060015b92915050565b6001600160a01b0383166000908152600360209081526040808320338452909152812054828110156103135760405162461bcd60e51b815260206004820152600e60248201526d5356503a20616c6c6f77616e636560901b60448201526064015b60405180910390fd5b600019811461034b57610326838261072c565b6001600160a01b03861660009081526003602090815260408083203384529091529020555b610356858585610460565b506001949350505050565b600061036e338484610460565b50600192915050565b6001546001600160a01b031633146103c25760405162461bcd60e51b815260206004820152600e60248201526d29ab281d103737ba1037bbb732b960911b604482015260640161030a565b6001600160a01b03811661040e5760405162461bcd60e51b815260206004820152601360248201527229ab281d103d32b937903732bb9037bbb732b960691b604482015260640161030a565b600180546001600160a01b038381166001600160a01b0319831681179093556040519116919082907f8be0079c531659141344cd1fd0a4f28419497f9722a3daafe3b4186f6b6457e090600090a35050565b6001600160a01b0383166104a75760405162461bcd60e51b815260206004820152600e60248201526d5356503a2066726f6d207a65726f60901b604482015260640161030a565b6001600160a01b0382166104ec5760405162461bcd60e51b815260206004820152600c60248201526b5356503a20746f207a65726f60a01b604482015260640161030a565b6001600160a01b0383166000908152600260205260409020548111156105435760405162461bcd60e51b815260206004820152600c60248201526b5356503a2062616c616e636560a01b604482015260640161030a565b6001600160a01b0383166000908152600260205260408120805483929061056b90849061072c565b90915550506001600160a01b0382166000908152600260205260408120805483929061059890849061073f565b92505081905550816001600160a01b0316836001600160a01b03167fddf252ad1be2c89b69c2b068fc378daa952ba7f163c4a11628f55a4df523b3ef836040516105e491815260200190565b60405180910390a3505050565b600060208083528351808285015260005b8181101561061e57858101830151858201604001528201610602565b506000604082860101526040601f19601f8301168501019250505092915050565b80356001600160a01b038116811461065657600080fd5b919050565b6000806040838503121561066e57600080fd5b6106778361063f565b946020939093013593505050565b60008060006060848603121561069a57600080fd5b6106a38461063f565b92506106b16020850161063f565b9150604084013590509250925092565b6000602082840312156106d357600080fd5b6106dc8261063f565b9392505050565b600080604083850312156106f657600080fd5b6106ff8361063f565b915061070d6020840161063f565b90509250929050565b634e487b7160e01b600052601160045260246000fd5b818103818111156102a3576102a3610716565b808201808211156102a3576102a361071656fea2646970667358221220e2d8dd3ec9bfaf9ec4cc7b178be5bdbeb3e80083a44592f22a566d24e76356bb64736f6c63430008140033",
  "linkReferences": {},
  "deployedLinkReferences": {}
}