{
  "_format": "hh-sol-artifact-1",
  "contractName": "MainToken",
  "sourceName": "contracts/TokenFactoryNeon.sol",
  "abi": [
    {
      "inputs": [
        {
          "internalType": "string",
          "name": "_name",
          "type": "string"
        },
        {
          "internalType": "string",
          "name": "_symbol",
          "type": "string"
        },
        {
          "internalType": "uint256",
          "name": "_devFee",
          "type": "uint256"
        },
        {
          "internalType": "uint256",
          "name": "_burnFee",
          "type": "uint256"
        },
        {
          "internalType": "uint256",
          "name": "_liqFee",
          "type": "uint256"
        },
        {
          "internalType": "address",
          "name": "_router",
          "type": "address"
        },
        {
          "internalType": "address",
          "name": "_MarketingWallet",
          "type": "address"
        },
        {
          "internalType": "address",
          "name": "_burnToken",
          "type": "address"
        },
        {
          "internalType": "address",
          "name": "_burnRouter",
          "type": "address"
        },
        {
          "internalType": "uint256",
          "name": "initialSupply",
          "type": "uint256"
        },
        {
          "internalType": "address",
          "name": "realOwner",
          "type": "address"
        }
      ],
      "stateMutability": "nonpayable",
      "type": "constructor"
    },
    {
      "anonymous": false,
      "inputs": [
        {
          "indexed": true,
          "internalType": "address",
          "name": "owner",
          "type": "address"
        },
        {
          "indexed": true,
          "internalType": "address",
          "name": "spender",
          "type": "address"
        },
        {
          "indexed": false,
          "internalType": "uint256",
          "name": "value",
          "type": "uint256"
        }
      ],
      "name": "Approval",
      "type": "event"
    },
    {
      "anonymous": false,
      "inputs": [
        {
          "indexed": true,
          "internalType": "address",
          "name": "account",
          "type": "address"
        },
        {
          "indexed": false,
          "internalType": "bool",
          "name": "isExcluded",
          "type": "bool"
        }
      ],
      "name": "ExcludeFromFees",
      "type": "event"
    },
    {
      "anonymous": false,
      "inputs": [
        {
          "indexed": true,
          "internalType": "address",
          "name": "previousOwner",
          "type": "address"
        },
        {
          "indexed": true,
          "internalType": "address",
          "name": "newOwner",
          "type": "address"
        }
      ],
      "name": "OwnershipTransferred",
      "type": "event"
    },
    {
      "anonymous": false,
      "inputs": [
        {
          "indexed": true,
          "internalType": "address",
          "name": "pair",
          "type": "address"
        },
        {
          "indexed": true,
          "internalType": "bool",
          "name": "value",
          "type": "bool"
        }
      ],
      "name": "SetAutomatedMarketMakerPair",
      "type": "event"
    },
    {
      "anonymous": false,
      "inputs": [
        {
          "indexed": true,
          "internalType": "address",
          "name": "from",
          "type": "address"
        },
        {
          "indexed": true,
          "internalType": "address",
          "name": "to",
          "type": "address"
        },
        {
          "indexed": false,
          "internalType": "uint256",
          "name": "value",
          "type": "uint256"
        }
      ],
      "name": "Transfer",
      "type": "event"
    },
    {
      "inputs": [],
      "name": "BurnRouter",
      "outputs": [
        {
          "internalType": "contract IRouter",
          "name": "",
          "type": "address"
        }
      ],
      "stateMutability": "view",
      "type": "function"
    },
    {
      "inputs": [],
      "name": "Router",
      "outputs": [
        {
          "internalType": "contract IRouter",
          "name": "",
          "type": "address"
        }
      ],
      "stateMutability": "view",
      "type": "function"
    },
    {
      "inputs": [
        {
          "internalType": "address",
          "name": "pair",
          "type": "address"
        },
        {
          "internalType": "bool",
          "name": "value",
          "type": "bool"
        }
      ],
      "name": "_setAutomatedMarketMakerPair",
      "outputs": [],
      "stateMutability": "nonpayable",
      "type": "function"
    },
    {
      "inputs": [
        {
          "internalType": "address",
          "name": "owner",
          "type": "address"
        },
        {
          "internalType": "address",
          "name": "spender",
          "type": "address"
        }
      ],
      "name": "allowance",
      "outputs": [
        {
          "internalType": "uint256",
          "name": "",
          "type": "uint256"
        }
      ],
      "stateMutability": "view",
      "type": "function"
    },
    {
      "inputs": [
        {
          "internalType": "address",
          "name": "spender",
          "type": "address"
        },
        {
          "internalType": "uint256",
          "name": "amount",
          "type": "uint256"
        }
      ],
      "name": "approve",
      "outputs": [
        {
          "internalType": "bool",
          "name": "",
          "type": "bool"
        }
      ],
      "stateMutability": "nonpayable",
      "type": "function"
    },
    {
      "inputs": [
        {
          "internalType": "address",
          "name": "",
          "type": "address"
        }
      ],
      "name": "automatedMarketMakerPairs",
      "outputs": [
        {
          "internalType": "bool",
          "name": "",
          "type": "bool"
        }
      ],
      "stateMutability": "view",
      "type": "function"
    },
    {
      "inputs": [
        {
          "internalType": "address",
          "name": "account",
          "type": "address"
        }
      ],
      "name": "balanceOf",
      "outputs": [
        {
          "internalType": "uint256",
          "name": "",
          "type": "uint256"
        }
      ],
      "stateMutability": "view",
      "type": "function"
    },
    {
      "inputs": [],
      "name": "burnFee",
      "outputs": [
        {
          "internalType": "uint256",
          "name": "",
          "type": "uint256"
        }
      ],
      "stateMutability": "view",
      "type": "function"
    },
    {
      "inputs": [],
      "name": "burnToken",
      "outputs": [
        {
          "internalType": "address",
          "name": "",
          "type": "address"
        }
      ],
      "stateMutability": "view",
      "type": "function"
    },
    {
      "inputs": [],
      "name": "decimals",
      "outputs": [
        {
          "internalType": "uint8",
          "name": "",
          "type": "uint8"
        }
      ],
      "stateMutability": "view",
      "type": "function"
    },
    {
      "inputs": [
        {
          "internalType": "address",
          "name": "spender",
          "type": "address"
        },
        {
          "internalType": "uint256",
          "name": "subtractedValue",
          "type": "uint256"
        }
      ],
      "name": "decreaseAllowance",
      "outputs": [
        {
          "internalType": "bool",
          "name": "",
          "type": "bool"
        }
      ],
      "stateMutability": "nonpayable",
      "type": "function"
    },
    {
      "inputs": [],
      "name": "devFee",
      "outputs": [
        {
          "internalType": "uint256",
          "name": "",
          "type": "uint256"
        }
      ],
      "stateMutability": "view",
      "type": "function"
    },
    {
      "inputs": [
        {
          "internalType": "address",
          "name": "account",
          "type": "address"
        },
        {
          "internalType": "bool",
          "name": "excluded",
          "type": "bool"
        }
      ],
      "name": "excludeFromFees",
      "outputs": [],
      "stateMutability": "nonpayable",
      "type": "function"
    },
    {
      "inputs": [
        {
          "internalType": "address",
          "name": "spender",
          "type": "address"
        },
        {
          "internalType": "uint256",
          "name": "addedValue",
          "type": "uint256"
        }
      ],
      "name": "increaseAllowance",
      "outputs": [
        {
          "internalType": "bool",
          "name": "",
          "type": "bool"
        }
      ],
      "stateMutability": "nonpayable",
      "type": "function"
    },
    {
      "inputs": [
        {
          "internalType": "address",
          "name": "account",
          "type": "address"
        }
      ],
      "name": "isExcludedFromFees",
      "outputs": [
        {
          "internalType": "bool",
          "name": "",
          "type": "bool"
        }
      ],
      "stateMutability": "view",
      "type": "function"
    },
    {
      "inputs": [],
      "name": "liqFee",
      "outputs": [
        {
          "internalType": "uint256",
          "name": "",
          "type": "uint256"
        }
      ],
      "stateMutability": "view",
      "type": "function"
    },
    {
      "inputs": [],
      "name": "manualSwapAndBurn",
      "outputs": [],
      "stateMutability": "nonpayable",
      "type": "function"
    },
    {
      "inputs": [],
      "name": "marketingWallet",
      "outputs": [
        {
          "internalType": "address payable",
          "name": "",
          "type": "address"
        }
      ],
      "stateMutability": "view",
      "type": "function"
    },
    {
      "inputs": [],
      "name": "name",
      "outputs": [
        {
          "internalType": "string",
          "name": "",
          "type": "string"
        }
      ],
      "stateMutability": "view",
      "type": "function"
    },
    {
      "inputs": [],
      "name": "owner",
      "outputs": [
        {
          "internalType": "address",
          "name": "",
          "type": "address"
        }
      ],
      "stateMutability": "view",
      "type": "function"
    },
    {
      "inputs": [],
      "name": "renounceOwnership",
      "outputs": [],
      "stateMutability": "nonpayable",
      "type": "function"
    },
    {
      "inputs": [
        {
          "internalType": "uint256",
          "name": "_newBurnFee",
          "type": "uint256"
        }
      ],
      "name": "setBurnFee",
      "outputs": [],
      "stateMutability": "nonpayable",
      "type": "function"
    },
    {
      "inputs": [
        {
          "internalType": "address",
          "name": "_newBurnRouter",
          "type": "address"
        }
      ],
      "name": "setBurnRouter",
      "outputs": [],
      "stateMutability": "nonpayable",
      "type": "function"
    },
    {
      "inputs": [
        {
          "internalType": "address",
          "name": "_newBurnToken",
          "type": "address"
        }
      ],
      "name": "setBurnToken",
      "outputs": [],
      "stateMutability": "nonpayable",
      "type": "function"
    },
    {
      "inputs": [
        {
          "internalType": "uint256",
          "name": "_newDevFee",
          "type": "uint256"
        }
      ],
      "name": "setDevFee",
      "outputs": [],
      "stateMutability": "nonpayable",
      "type": "function"
    },
    {
      "inputs": [
        {
          "internalType": "uint256",
          "name": "_newLiqFee",
          "type": "uint256"
        }
      ],
      "name": "setLiquidityFee",
      "outputs": [],
      "stateMutability": "nonpayable",
      "type": "function"
    },
    {
      "inputs": [
        {
          "internalType": "address payable",
          "name": "newMarketingWallet",
          "type": "address"
        }
      ],
      "name": "setMarketingWallet",
      "outputs": [],
      "stateMutability": "nonpayable",
      "type": "function"
    },
    {
      "inputs": [
        {
          "internalType": "uint256",
          "name": "_newSwapAtAmount",
          "type": "uint256"
        }
      ],
      "name": "setSwapAtAmount",
      "outputs": [],
      "stateMutability": "nonpayable",
      "type": "function"
    },
    {
      "inputs": [],
      "name": "swapAtAmount",
      "outputs": [
        {
          "internalType": "uint256",
          "name": "",
          "type": "uint256"
        }
      ],
      "stateMutability": "view",
      "type": "function"
    },
    {
      "inputs": [],
      "name": "swapPair",
      "outputs": [
        {
          "internalType": "address",
          "name": "",
          "type": "address"
        }
      ],
      "stateMutability": "view",
      "type": "function"
    },
    {
      "inputs": [],
      "name": "symbol",
      "outputs": [
        {
          "internalType": "string",
          "name": "",
          "type": "string"
        }
      ],
      "stateMutability": "view",
      "type": "function"
    },
    {
      "inputs": [],
      "name": "totalFee",
      "outputs": [
        {
          "internalType": "uint256",
          "name": "",
          "type": "uint256"
        }
      ],
      "stateMutability": "view",
      "type": "function"
    },
    {
      "inputs": [],
      "name": "totalSupply",
      "outputs": [
        {
          "internalType": "uint256",
          "name": "",
          "type": "uint256"
        }
      ],
      "stateMutability": "view",
      "type": "function"
    },
    {
      "inputs": [
        {
          "internalType": "address",
          "name": "to",
          "type": "address"
        },
        {
          "internalType": "uint256",
          "name": "amount",
          "type": "uint256"
        }
      ],
      "name": "transfer",
      "outputs": [
        {
          "internalType": "bool",
          "name": "",
          "type": "bool"
        }
      ],
      "stateMutability": "nonpayable",
      "type": "function"
    },
    {
      "inputs": [
        {
          "internalType": "address",
          "name": "from",
          "type": "address"
        },
        {
          "internalType": "address",
          "name": "to",
          "type": "address"
        },
        {
          "internalType": "uint256",
          "name": "amount",
          "type": "uint256"
        }
      ],
      "name": "transferFrom",
      "outputs": [
        {
          "internalType": "bool",
          "name": "",
          "type": "bool"
        }
      ],
      "stateMutability": "nonpayable",
      "type": "function"
    },
    {
      "inputs": [
        {
          "internalType": "address",
          "name": "newOwner",
          "type": "address"
        }
      ],
      "name": "transferOwnership",
      "outputs": [],
      "stateMutability": "nonpayable",
      "type": "function"
    },
    {
      "inputs": [
        {
          "internalType": "address",
          "name": "newAddress",
          "type": "address"
        }
      ],
      "name": "updateSwapRouter",
      "outputs": [],
      "stateMutability": "nonpayable",
      "type": "function"
    },
    {
      "inputs": [],
      "name": "withdrawBNB",
      "outputs": [],
      "stateMutability": "nonpayable",
      "type": "function"
    },
    {
      "inputs": [
        {
          "internalType": "address",
          "name": "_tokenAddress",
          "type": "address"
        }
      ],
      "name": "withdrawToken",
      "outputs": [],
      "stateMutability": "nonpayable",
      "type": "function"
    },
    {
      "stateMutability": "payable",
      "type": "receive"
    }
  ],
  "bytecode": "0x6080604052601080546001600160a01b03191661dead1790553480156200002557600080fd5b50604051620036f7380380620036f7833981016040819052620000489162000de1565b8a8a62000055336200015d565b600462000063838262000f66565b50600562000072828262000f66565b5050600e80546001600160a01b038089166001600160a01b031992831617909255600d8054888416908316179055600780549287169290911691909117905550620000bd89620001ad565b620000c8886200028c565b620000d387620003b2565b620000e081600162000427565b620000ed30600162000427565b6200010c816200010684670de0b6b3a764000062001048565b62000515565b620f42406200011a60035490565b6200012790600a62001048565b62000133919062001068565b600c556200014186620005fa565b6200014c8162000a02565b5050505050505050505050620010c6565b600080546001600160a01b038381166001600160a01b0319831681178455604051919092169283917f8be0079c531659141344cd1fd0a4f28419497f9722a3daafe3b4186f6b6457e09190a35050565b620001b762000a7e565b6008819055600954600a54620001ce90836200108b565b620001da91906200108b565b600b55600854156200024457600e546001600160a01b0316620002445760405162461bcd60e51b815260206004820152601a60248201527f536574204d61726b6574696e672057616c6c657420466972737400000000000060448201526064015b60405180910390fd5b6107d0600b541115620002895760405162461bcd60e51b815260206004820152601b6024820152600080516020620036d783398151915260448201526064016200023b565b50565b6200029662000a7e565b600a819055600954600854620002ae9083906200108b565b620002ba91906200108b565b600b8190556107d01015620003015760405162461bcd60e51b815260206004820152601b6024820152600080516020620036d783398151915260448201526064016200023b565b600a54156200028957600d546001600160a01b0316620003585760405162461bcd60e51b8152602060048201526011602482015270109d5c9b951bdad95b881b9bdd0814d95d607a1b60448201526064016200023b565b6007546001600160a01b0316620002895760405162461bcd60e51b815260206004820152601360248201527f4275726e20526f75746572206e6f74205365740000000000000000000000000060448201526064016200023b565b620003bc62000a7e565b6009819055600a546008548291620003d4916200108b565b620003e091906200108b565b600b8190556107d01015620002895760405162461bcd60e51b815260206004820152601b6024820152600080516020620036d783398151915260448201526064016200023b565b6200043162000a7e565b6001600160a01b03821660009081526012602052604090205481151560ff909116151503620004b65760405162461bcd60e51b815260206004820152602a60248201527f4163636f756e7420697320616c7265616479207468652076616c7565206f6620604482015269276578636c756465642760b01b60648201526084016200023b565b6001600160a01b038216600081815260126020908152604091829020805460ff191685151590811790915591519182527f9d8f7706ea1113d1a167b526eca956215946dd36cc7df39eb16180222d8b5df7910160405180910390a25050565b6001600160a01b0382166200056d5760405162461bcd60e51b815260206004820152601f60248201527f45524332303a206d696e7420746f20746865207a65726f20616464726573730060448201526064016200023b565b80600360008282546200058191906200108b565b90915550506001600160a01b03821660009081526001602052604081208054839290620005b09084906200108b565b90915550506040518181526001600160a01b038316906000907fddf252ad1be2c89b69c2b068fc378daa952ba7f163c4a11628f55a4df523b3ef9060200160405180910390a35050565b6200060462000a7e565b6006546001600160a01b0390811690821603620006705760405162461bcd60e51b815260206004820152602360248201527f54686520726f7574657220616c7265616479206861732074686174206164647260448201526265737360e81b60648201526084016200023b565b600680546001600160a01b0319166001600160a01b0383169081179091556040805163c45a015560e01b815290516000929163c45a01559160048083019260209291908290030181865afa158015620006cd573d6000803e3d6000fd5b505050506040513d601f19601f82011682018060405250810190620006f39190620010a1565b6001600160a01b031663e6a4390530600660009054906101000a90046001600160a01b03166001600160a01b031663ad5c46486040518163ffffffff1660e01b8152600401602060405180830381865afa15801562000756573d6000803e3d6000fd5b505050506040513d601f19601f820116820180604052508101906200077c9190620010a1565b6040516001600160e01b031960e085901b1681526001600160a01b03928316600482015291166024820152604401602060405180830381865afa158015620007c8573d6000803e3d6000fd5b505050506040513d601f19601f82011682018060405250810190620007ee9190620010a1565b90506001600160a01b0381166200097957600660009054906101000a90046001600160a01b03166001600160a01b031663c45a01556040518163ffffffff1660e01b8152600401602060405180830381865afa15801562000853573d6000803e3d6000fd5b505050506040513d601f19601f82011682018060405250810190620008799190620010a1565b6001600160a01b031663c9c6539630600660009054906101000a90046001600160a01b03166001600160a01b031663ad5c46486040518163ffffffff1660e01b8152600401602060405180830381865afa158015620008dc573d6000803e3d6000fd5b505050506040513d601f19601f82011682018060405250810190620009029190620010a1565b6040516001600160e01b031960e085901b1681526001600160a01b039283166004820152911660248201526044016020604051808303816000875af115801562000950573d6000803e3d6000fd5b505050506040513d601f19601f82011682018060405250810190620009769190620010a1565b90505b6001600160a01b03811660009081526011602052604090205460ff161515600114801590620009b057506001600160a01b03811615155b15620009c357620009c381600162000ae1565b600654620009df9030906001600160a01b031660001962000bd7565b600f80546001600160a01b0319166001600160a01b039290921691909117905550565b62000a0c62000a7e565b6001600160a01b03811662000a735760405162461bcd60e51b815260206004820152602660248201527f4f776e61626c653a206e6577206f776e657220697320746865207a65726f206160448201526564647265737360d01b60648201526084016200023b565b62000289816200015d565b6000546001600160a01b0316331462000ada5760405162461bcd60e51b815260206004820181905260248201527f4f776e61626c653a2063616c6c6572206973206e6f7420746865206f776e657260448201526064016200023b565b565b505050565b62000aeb62000a7e565b6001600160a01b03821660009081526011602052604090205481151560ff90911615150362000b835760405162461bcd60e51b815260206004820152603860248201527f4175746f6d61746564206d61726b6574206d616b65722070616972206973206160448201527f6c72656164792073657420746f20746861742076616c7565000000000000000060648201526084016200023b565b6001600160a01b038216600081815260116020526040808220805460ff191685151590811790915590519092917fffa9187bf1f18bf477bd0ea1bcbb64e93b6a98132473929edfce215cd9b16fab91a35050565b6001600160a01b03831662000c3b5760405162461bcd60e51b8152602060048201526024808201527f45524332303a20617070726f76652066726f6d20746865207a65726f206164646044820152637265737360e01b60648201526084016200023b565b6001600160a01b03821662000c9e5760405162461bcd60e51b815260206004820152602260248201527f45524332303a20617070726f766520746f20746865207a65726f206164647265604482015261737360f01b60648201526084016200023b565b6001600160a01b0383811660008181526002602090815260408083209487168084529482529182902085905590518481527f8c5be1e5ebec7d5bd14f71427d1e84f3dd0314c0f7b2291e5b200ac8c7c3b925910160405180910390a3505050565b634e487b7160e01b600052604160045260246000fd5b600082601f83011262000d2757600080fd5b81516001600160401b038082111562000d445762000d4462000cff565b604051601f8301601f19908116603f0116810190828211818310171562000d6f5762000d6f62000cff565b8160405283815260209250868385880101111562000d8c57600080fd5b600091505b8382101562000db0578582018301518183018401529082019062000d91565b600093810190920192909252949350505050565b80516001600160a01b038116811462000ddc57600080fd5b919050565b60008060008060008060008060008060006101608c8e03121562000e0457600080fd5b8b516001600160401b0381111562000e1b57600080fd5b62000e298e828f0162000d15565b60208e0151909c5090506001600160401b0381111562000e4857600080fd5b62000e568e828f0162000d15565b9a505060408c0151985060608c0151975060808c0151965062000e7c60a08d0162000dc4565b955062000e8c60c08d0162000dc4565b945062000e9c60e08d0162000dc4565b935062000ead6101008d0162000dc4565b92506101208c0151915062000ec66101408d0162000dc4565b90509295989b509295989b9093969950565b600181811c9082168062000eed57607f821691505b60208210810362000f0e57634e487b7160e01b600052602260045260246000fd5b50919050565b601f82111562000adc57600081815260208120601f850160051c8101602086101562000f3d5750805b601f850160051c820191505b8181101562000f5e5782815560010162000f49565b505050505050565b81516001600160401b0381111562000f825762000f8262000cff565b62000f9a8162000f93845462000ed8565b8462000f14565b602080601f83116001811462000fd2576000841562000fb95750858301515b600019600386901b1c1916600185901b17855562000f5e565b600085815260208120601f198616915b82811015620010035788860151825594840194600190910190840162000fe2565b5085821015620010225787850151600019600388901b60f8161c191681555b5050505050600190811b01905550565b634e487b7160e01b600052601160045260246000fd5b808202811582820484141762001062576200106262001032565b92915050565b6000826200108657634e487b7160e01b600052601260045260246000fd5b500490565b8082018082111562001062576200106262001032565b600060208284031215620010b457600080fd5b620010bf8262000dc4565b9392505050565b61260180620010d66000396000f3fe6080604052600436106102345760003560e01c8063715018a61161012e578063b62496f5116100ab578063dd62ed3e1161006f578063dd62ed3e14610699578063f2fde38b146106b9578063f6d7eade146106d9578063faa0a264146106f9578063fce589d81461071957600080fd5b8063b62496f5146105f4578063b9413b5114610624578063b98b677f14610639578063c024666814610659578063c35879801461067957600080fd5b806395d89b41116100f257806395d89b411461055f57806398da3ef314610574578063a457c2d714610594578063a7f7b36f146105b4578063a9059cbb146105d457600080fd5b8063715018a6146104d657806375f0a874146104eb578063869175241461050b57806389476069146105215780638da5cb5b1461054157600080fd5b8063313ce567116101bc5780634fbee193116101805780634fbee193146104115780635d098b381461044a5780636402511e1461046a5780636827e7641461048a57806370a08231146104a057600080fd5b8063313ce5671461037f578063357bf15c1461039b57806339509351146103bb5780633fb0da64146103db5780634bf2c7c9146103f157600080fd5b80631d111d13116102035780631d111d13146102dc5780631dc4b09c146102f15780631df4ccfc1461031157806323b872dd1461032757806326991cc81461034757600080fd5b806306fdde0314610240578063095ea7b31461026b57806318160ddd1461029b5780631c75b6b2146102ba57600080fd5b3661023b57005b600080fd5b34801561024c57600080fd5b5061025561072f565b6040516102629190612217565b60405180910390f35b34801561027757600080fd5b5061028b61028636600461227a565b6107c1565b6040519015158152602001610262565b3480156102a757600080fd5b506003545b604051908152602001610262565b3480156102c657600080fd5b506102da6102d53660046122a6565b6107db565b005b3480156102e857600080fd5b506102da610891565b3480156102fd57600080fd5b506102da61030c3660046122bf565b6108c5565b34801561031d57600080fd5b506102ac600b5481565b34801561033357600080fd5b5061028b6103423660046122e3565b6108ef565b34801561035357600080fd5b50600f54610367906001600160a01b031681565b6040516001600160a01b039091168152602001610262565b34801561038b57600080fd5b5060405160128152602001610262565b3480156103a757600080fd5b506102da6103b63660046122a6565b610913565b3480156103c757600080fd5b5061028b6103d636600461227a565b610961565b3480156103e757600080fd5b506102ac60095481565b3480156103fd57600080fd5b506102da61040c3660046122a6565b610983565b34801561041d57600080fd5b5061028b61042c3660046122bf565b6001600160a01b031660009081526012602052604090205460ff1690565b34801561045657600080fd5b506102da6104653660046122bf565b610a73565b34801561047657600080fd5b506102da6104853660046122a6565b610aee565b34801561049657600080fd5b506102ac60085481565b3480156104ac57600080fd5b506102ac6104bb3660046122bf565b6001600160a01b031660009081526001602052604090205490565b3480156104e257600080fd5b506102da610afb565b3480156104f757600080fd5b50600e54610367906001600160a01b031681565b34801561051757600080fd5b506102ac600c5481565b34801561052d57600080fd5b506102da61053c3660046122bf565b610b0f565b34801561054d57600080fd5b506000546001600160a01b0316610367565b34801561056b57600080fd5b50610255610bfc565b34801561058057600080fd5b50600754610367906001600160a01b031681565b3480156105a057600080fd5b5061028b6105af36600461227a565b610c0b565b3480156105c057600080fd5b506102da6105cf366004612332565b610c86565b3480156105e057600080fd5b5061028b6105ef36600461227a565b610d78565b34801561060057600080fd5b5061028b61060f3660046122bf565b60116020526000908152604090205460ff1681565b34801561063057600080fd5b506102da610d86565b34801561064557600080fd5b506102da6106543660046122bf565b6111cb565b34801561066557600080fd5b506102da610674366004612332565b6115b6565b34801561068557600080fd5b506102da6106943660046122bf565b6116a0565b3480156106a557600080fd5b506102ac6106b436600461236b565b6116ca565b3480156106c557600080fd5b506102da6106d43660046122bf565b6116f5565b3480156106e557600080fd5b50600654610367906001600160a01b031681565b34801561070557600080fd5b50600d54610367906001600160a01b031681565b34801561072557600080fd5b506102ac600a5481565b60606004805461073e90612399565b80601f016020809104026020016040519081016040528092919081815260200182805461076a90612399565b80156107b75780601f1061078c576101008083540402835291602001916107b7565b820191906000526020600020905b81548152906001019060200180831161079a57829003601f168201915b5050505050905090565b6000336107cf81858561176b565b60019150505b92915050565b6107e361188f565b6008819055600954600a546107f890836123e9565b61080291906123e9565b600b556008541561086a57600e546001600160a01b031661086a5760405162461bcd60e51b815260206004820152601a60248201527f536574204d61726b6574696e672057616c6c657420466972737400000000000060448201526064015b60405180910390fd5b6107d0600b54111561088e5760405162461bcd60e51b8152600401610861906123fc565b50565b61089961188f565b60405133904780156108fc02916000818181858888f1935050505015801561088e573d6000803e3d6000fd5b6108cd61188f565b600780546001600160a01b0319166001600160a01b0392909216919091179055565b6000336108fd8582856118e9565b610908858585611963565b506001949350505050565b61091b61188f565b6009819055600a546008548291610931916123e9565b61093b91906123e9565b600b8190556107d0101561088e5760405162461bcd60e51b8152600401610861906123fc565b6000336107cf81858561097483836116ca565b61097e91906123e9565b61176b565b61098b61188f565b600a8190556009546008546109a19083906123e9565b6109ab91906123e9565b600b8190556107d010156109d15760405162461bcd60e51b8152600401610861906123fc565b600a541561088e57600d546001600160a01b0316610a255760405162461bcd60e51b8152602060048201526011602482015270109d5c9b951bdad95b881b9bdd0814d95d607a1b6044820152606401610861565b6007546001600160a01b031661088e5760405162461bcd60e51b8152602060048201526013602482015272109d5c9b88149bdd5d195c881b9bdd0814d95d606a1b6044820152606401610861565b610a7b61188f565b600e546001600160a01b03166000908152601260205260409020805460ff19166001179055600e54610ab7906001600160a01b031660006115b6565b600e80546001600160a01b0319166001600160a01b039290921691821790556000908152601260205260409020805460ff19169055565b610af661188f565b600c55565b610b0361188f565b610b0d6000611ab7565b565b610b1761188f565b6040516370a0823160e01b81523060048201526001600160a01b0382169063a9059cbb90339083906370a0823190602401602060405180830381865afa158015610b65573d6000803e3d6000fd5b505050506040513d601f19601f82011682018060405250810190610b899190612433565b6040516001600160e01b031960e085901b1681526001600160a01b03909216600483015260248201526044016020604051808303816000875af1158015610bd4573d6000803e3d6000fd5b505050506040513d601f19601f82011682018060405250810190610bf8919061244c565b5050565b60606005805461073e90612399565b60003381610c1982866116ca565b905083811015610c795760405162461bcd60e51b815260206004820152602560248201527f45524332303a2064656372656173656420616c6c6f77616e63652062656c6f77604482015264207a65726f60d81b6064820152608401610861565b610908828686840361176b565b610c8e61188f565b6001600160a01b03821660009081526011602052604090205481151560ff909116151503610d245760405162461bcd60e51b815260206004820152603860248201527f4175746f6d61746564206d61726b6574206d616b65722070616972206973206160448201527f6c72656164792073657420746f20746861742076616c756500000000000000006064820152608401610861565b6001600160a01b038216600081815260116020526040808220805460ff191685151590811790915590519092917fffa9187bf1f18bf477bd0ea1bcbb64e93b6a98132473929edfce215cd9b16fab91a35050565b6000336107cf818585611963565b610d8e61188f565b3060009081526001602052604081205460095415610dce57600954600b54610db7906002612469565b610dc19083612480565b610dcb9190612469565b91505b6000610dda83836124a2565b60408051600280825260608201835292935047926000926020830190803683370190505090503081600081518110610e1457610e146124b5565b6001600160a01b03928316602091820292909201810191909152600654604080516315ab88c960e31b81529051919093169263ad5c46489260048083019391928290030181865afa158015610e6d573d6000803e3d6000fd5b505050506040513d601f19601f82011682018060405250810190610e9191906124cb565b81600181518110610ea457610ea46124b5565b6001600160a01b03928316602091820292909201015260065460405163791ac94760e01b815291169063791ac94790610eea90869060009086903090429060040161252c565b600060405180830381600087803b158015610f0457600080fd5b505af1925050508015610f15575060015b610f595760405162461bcd60e51b815260206004820152601560248201527408cc2d2d8cac840e8de40e6eec2e040e8de40cae8d605b1b6044820152606401610861565b60095415610fb3576000610f6d83476124a2565b90506000600954600b546002610f839190612469565b610f8d91906124a2565b600954610f9a9084612469565b610fa49190612480565b9050610fb08782611b07565b50505b600a5415611181576000600854600a54610fcd91906123e9565b600a54610fda9047612469565b610fe49190612480565b60408051600280825260608201835292935060009290916020830190803683375050600754604080516315ab88c960e31b815290519394506001600160a01b039091169263ad5c4648925060048083019260209291908290030181865afa158015611053573d6000803e3d6000fd5b505050506040513d601f19601f8201168201806040525081019061107791906124cb565b8160008151811061108a5761108a6124b5565b6001600160a01b039283166020918202929092010152600d548251911690829060019081106110bb576110bb6124b5565b6001600160a01b03928316602091820292909201015260075460105460405163b6f9de9560e01b81529183169263b6f9de95928692611107926000928892909116904290600401612568565b6000604051808303818588803b15801561112057600080fd5b505af193505050508015611132575060015b61117e5760405162461bcd60e51b815260206004820152601c60248201527f4661696c656420746f207377617020666f72204275726e546f6b656e000000006044820152606401610861565b50505b600854156111c457600e546040516001600160a01b03909116904780156108fc02916000818181858888f193505050501580156111c2573d6000803e3d6000fd5b505b5050505050565b6111d361188f565b6006546001600160a01b039081169082160361123d5760405162461bcd60e51b815260206004820152602360248201527f54686520726f7574657220616c7265616479206861732074686174206164647260448201526265737360e81b6064820152608401610861565b600680546001600160a01b0319166001600160a01b0383169081179091556040805163c45a015560e01b815290516000929163c45a01559160048083019260209291908290030181865afa158015611299573d6000803e3d6000fd5b505050506040513d601f19601f820116820180604052508101906112bd91906124cb565b6001600160a01b031663e6a4390530600660009054906101000a90046001600160a01b03166001600160a01b031663ad5c46486040518163ffffffff1660e01b8152600401602060405180830381865afa15801561131f573d6000803e3d6000fd5b505050506040513d601f19601f8201168201806040525081019061134391906124cb565b6040516001600160e01b031960e085901b1681526001600160a01b03928316600482015291166024820152604401602060405180830381865afa15801561138e573d6000803e3d6000fd5b505050506040513d601f19601f820116820180604052508101906113b291906124cb565b90506001600160a01b03811661153357600660009054906101000a90046001600160a01b03166001600160a01b031663c45a01556040518163ffffffff1660e01b8152600401602060405180830381865afa158015611415573d6000803e3d6000fd5b505050506040513d601f19601f8201168201806040525081019061143991906124cb565b6001600160a01b031663c9c6539630600660009054906101000a90046001600160a01b03166001600160a01b031663ad5c46486040518163ffffffff1660e01b8152600401602060405180830381865afa15801561149b573d6000803e3d6000fd5b505050506040513d601f19601f820116820180604052508101906114bf91906124cb565b6040516001600160e01b031960e085901b1681526001600160a01b039283166004820152911660248201526044016020604051808303816000875af115801561150c573d6000803e3d6000fd5b505050506040513d601f19601f8201168201806040525081019061153091906124cb565b90505b6001600160a01b03811660009081526011602052604090205460ff16151560011480159061156957506001600160a01b03811615155b1561157957611579816001610c86565b6006546115939030906001600160a01b031660001961176b565b600f80546001600160a01b0319166001600160a01b039290921691909117905550565b6115be61188f565b6001600160a01b03821660009081526012602052604090205481151560ff9091161515036116415760405162461bcd60e51b815260206004820152602a60248201527f4163636f756e7420697320616c7265616479207468652076616c7565206f6620604482015269276578636c756465642760b01b6064820152608401610861565b6001600160a01b038216600081815260126020908152604091829020805460ff191685151590811790915591519182527f9d8f7706ea1113d1a167b526eca956215946dd36cc7df39eb16180222d8b5df7910160405180910390a25050565b6116a861188f565b600d80546001600160a01b0319166001600160a01b0392909216919091179055565b6001600160a01b03918216600090815260026020908152604080832093909416825291909152205490565b6116fd61188f565b6001600160a01b0381166117625760405162461bcd60e51b815260206004820152602660248201527f4f776e61626c653a206e6577206f776e657220697320746865207a65726f206160448201526564647265737360d01b6064820152608401610861565b61088e81611ab7565b6001600160a01b0383166117cd5760405162461bcd60e51b8152602060048201526024808201527f45524332303a20617070726f76652066726f6d20746865207a65726f206164646044820152637265737360e01b6064820152608401610861565b6001600160a01b03821661182e5760405162461bcd60e51b815260206004820152602260248201527f45524332303a20617070726f766520746f20746865207a65726f206164647265604482015261737360f01b6064820152608401610861565b6001600160a01b0383811660008181526002602090815260408083209487168084529482529182902085905590518481527f8c5be1e5ebec7d5bd14f71427d1e84f3dd0314c0f7b2291e5b200ac8c7c3b925910160405180910390a3505050565b6000546001600160a01b03163314610b0d5760405162461bcd60e51b815260206004820181905260248201527f4f776e61626c653a2063616c6c6572206973206e6f7420746865206f776e65726044820152606401610861565b60006118f584846116ca565b9050600019811461195d57818110156119505760405162461bcd60e51b815260206004820152601d60248201527f45524332303a20696e73756666696369656e7420616c6c6f77616e63650000006044820152606401610861565b61195d848484840361176b565b50505050565b6001600160a01b03831660009081526012602052604090205460ff161580156119a557506001600160a01b03821660009081526012602052604090205460ff16155b15611aa7576001600160a01b03821660009081526011602052604090205460ff16806119e957506001600160a01b03831660009081526011602052604090205460ff165b15611aa75760006008541180611a0157506000600a54115b80611a0e57506000600954115b15611aa7576000612710600b5483611a269190612469565b611a309190612480565b600c5430600090815260016020526040902054919250108015611a56575060135460ff16155b8015611a7a57506001600160a01b03831660009081526011602052604090205460ff165b15611a8757611a87611be0565b8015611aa557611a98843083612049565b611aa281836124a2565b91505b505b611ab2838383612049565b505050565b600080546001600160a01b038381166001600160a01b0319831681178455604051919092169283917f8be0079c531659141344cd1fd0a4f28419497f9722a3daafe3b4186f6b6457e09190a35050565b60065460105460405163f305d71960e01b81523060048201526024810185905260006044820181905260648201526001600160a01b0391821660848201524260a482015291169063f305d71990839060c40160606040518083038185885af193505050508015611b94575060408051601f3d908101601f19168201909252611b919181019061259d565b60015b6111c45760405162461bcd60e51b815260206004820152601760248201527f4661696c656420746f20616464206c69717569646974790000000000000000006044820152606401610861565b6013805460ff19166001179055600080611c0f306001600160a01b031660009081526001602052604090205490565b60095490915015611c4257600954600b54611c2b906002612469565b611c359083612480565b611c3f9190612469565b91505b6000611c4e83836124a2565b60408051600280825260608201835292935047926000926020830190803683370190505090503081600081518110611c8857611c886124b5565b6001600160a01b03928316602091820292909201810191909152600654604080516315ab88c960e31b81529051919093169263ad5c46489260048083019391928290030181865afa158015611ce1573d6000803e3d6000fd5b505050506040513d601f19601f82011682018060405250810190611d0591906124cb565b81600181518110611d1857611d186124b5565b6001600160a01b03928316602091820292909201015260065460405163791ac94760e01b815291169063791ac94790611d5e90869060009086903090429060040161252c565b600060405180830381600087803b158015611d7857600080fd5b505af1925050508015611d89575060015b611dcd5760405162461bcd60e51b815260206004820152601560248201527408cc2d2d8cac840e8de40e6eec2e040e8de40cae8d605b1b6044820152606401610861565b60095415611e27576000611de183476124a2565b90506000600954600b546002611df79190612469565b611e0191906124a2565b600954611e0e9084612469565b611e189190612480565b9050611e248782611b07565b50505b600a5415611ff5576000600854600a54611e4191906123e9565b600a54611e4e9047612469565b611e589190612480565b60408051600280825260608201835292935060009290916020830190803683375050600754604080516315ab88c960e31b815290519394506001600160a01b039091169263ad5c4648925060048083019260209291908290030181865afa158015611ec7573d6000803e3d6000fd5b505050506040513d601f19601f82011682018060405250810190611eeb91906124cb565b81600081518110611efe57611efe6124b5565b6001600160a01b039283166020918202929092010152600d54825191169082906001908110611f2f57611f2f6124b5565b6001600160a01b03928316602091820292909201015260075460105460405163b6f9de9560e01b81529183169263b6f9de95928692611f7b926000928892909116904290600401612568565b6000604051808303818588803b158015611f9457600080fd5b505af193505050508015611fa6575060015b611ff25760405162461bcd60e51b815260206004820152601c60248201527f4661696c656420746f207377617020666f72204275726e546f6b656e000000006044820152606401610861565b50505b6008541561203857600e546040516001600160a01b03909116904780156108fc02916000818181858888f19350505050158015612036573d6000803e3d6000fd5b505b50506013805460ff19169055505050565b6001600160a01b0383166120ad5760405162461bcd60e51b815260206004820152602560248201527f45524332303a207472616e736665722066726f6d20746865207a65726f206164604482015264647265737360d81b6064820152608401610861565b6001600160a01b03821661210f5760405162461bcd60e51b815260206004820152602360248201527f45524332303a207472616e7366657220746f20746865207a65726f206164647260448201526265737360e81b6064820152608401610861565b6001600160a01b038316600090815260016020526040902054818110156121875760405162461bcd60e51b815260206004820152602660248201527f45524332303a207472616e7366657220616d6f756e7420657863656564732062604482015265616c616e636560d01b6064820152608401610861565b6001600160a01b038085166000908152600160205260408082208585039055918516815290812080548492906121be9084906123e9565b92505081905550826001600160a01b0316846001600160a01b03167fddf252ad1be2c89b69c2b068fc378daa952ba7f163c4a11628f55a4df523b3ef8460405161220a91815260200190565b60405180910390a361195d565b600060208083528351808285015260005b8181101561224457858101830151858201604001528201612228565b506000604082860101526040601f19601f8301168501019250505092915050565b6001600160a01b038116811461088e57600080fd5b6000806040838503121561228d57600080fd5b823561229881612265565b946020939093013593505050565b6000602082840312156122b857600080fd5b5035919050565b6000602082840312156122d157600080fd5b81356122dc81612265565b9392505050565b6000806000606084860312156122f857600080fd5b833561230381612265565b9250602084013561231381612265565b929592945050506040919091013590565b801515811461088e57600080fd5b6000806040838503121561234557600080fd5b823561235081612265565b9150602083013561236081612324565b809150509250929050565b6000806040838503121561237e57600080fd5b823561238981612265565b9150602083013561236081612265565b600181811c908216806123ad57607f821691505b6020821081036123cd57634e487b7160e01b600052602260045260246000fd5b50919050565b634e487b7160e01b600052601160045260246000fd5b808201808211156107d5576107d56123d3565b6020808252601b908201527f546f74616c4665652063616e6e6f742065786365656420323030300000000000604082015260600190565b60006020828403121561244557600080fd5b5051919050565b60006020828403121561245e57600080fd5b81516122dc81612324565b80820281158282048414176107d5576107d56123d3565b60008261249d57634e487b7160e01b600052601260045260246000fd5b500490565b818103818111156107d5576107d56123d3565b634e487b7160e01b600052603260045260246000fd5b6000602082840312156124dd57600080fd5b81516122dc81612265565b600081518084526020808501945080840160005b838110156125215781516001600160a01b0316875295820195908201906001016124fc565b509495945050505050565b85815284602082015260a06040820152600061254b60a08301866124e8565b6001600160a01b0394909416606083015250608001529392505050565b84815260806020820152600061258160808301866124e8565b6001600160a01b03949094166040830152506060015292915050565b6000806000606084860312156125b257600080fd5b835192506020840151915060408401519050925092509256fea26469706673582212201ef0de4d0edb62a84980806d93ab8ce45af2bd53a51d3a76d79c55bab5b1301e64736f6c63430008140033546f74616c4665652063616e6e6f742065786365656420323030300000000000",
  "linkReferences": {},
  "deployedLinkReferences": {}
}