{
  "_format": "hh-sol-artifact-1",
  "contractName": "MarsRouter",
  "sourceName": "contracts/MswapRouterNeon.sol",
  "abi": [
    {
      "inputs": [
        {
          "internalType": "address",
          "name": "_factory",
          "type": "address"
        },
        {
          "internalType": "address",
          "name": "_WETH",
          "type": "address"
        }
      ],
      "stateMutability": "nonpayable",
      "type": "constructor"
    },
    {
      "anonymous": false,
      "inputs": [
        {
          "indexed": true,
          "internalType": "address",
          "name": "previousOwner",
          "type": "address"
        },
        {
          "indexed": true,
          "internalType": "address",
          "name": "newOwner",
          "type": "address"
        }
      ],
      "name": "OwnershipTransferred",
      "type": "event"
    },
    {
      "inputs": [],
      "name": "WETH",
      "outputs": [
        {
          "internalType": "address",
          "name": "",
          "type": "address"
        }
      ],
      "stateMutability": "view",
      "type": "function"
    },
    {
      "inputs": [
        {
          "internalType": "address",
          "name": "tokenA",
          "type": "address"
        },
        {
          "internalType": "address",
          "name": "tokenB",
          "type": "address"
        },
        {
          "internalType": "uint256",
          "name": "amountADesired",
          "type": "uint256"
        },
        {
          "internalType": "uint256",
          "name": "amountBDesired",
          "type": "uint256"
        },
        {
          "internalType": "uint256",
          "name": "amountAMin",
          "type": "uint256"
        },
        {
          "internalType": "uint256",
          "name": "amountBMin",
          "type": "uint256"
        },
        {
          "internalType": "address",
          "name": "to",
          "type": "address"
        },
        {
          "internalType": "uint256",
          "name": "deadline",
          "type": "uint256"
        }
      ],
      "name": "addLiquidity",
      "outputs": [
        {
          "internalType": "uint256",
          "name": "amountA",
          "type": "uint256"
        },
        {
          "internalType": "uint256",
          "name": "amountB",
          "type": "uint256"
        },
        {
          "internalType": "uint256",
          "name": "liquidity",
          "type": "uint256"
        }
      ],
      "stateMutability": "nonpayable",
      "type": "function"
    },
    {
      "inputs": [
        {
          "internalType": "address",
          "name": "token",
          "type": "address"
        },
        {
          "internalType": "uint256",
          "name": "amountTokenDesired",
          "type": "uint256"
        },
        {
          "internalType": "uint256",
          "name": "amountTokenMin",
          "type": "uint256"
        },
        {
          "internalType": "uint256",
          "name": "amountETHMin",
          "type": "uint256"
        },
        {
          "internalType": "address",
          "name": "to",
          "type": "address"
        },
        {
          "internalType": "uint256",
          "name": "deadline",
          "type": "uint256"
        }
      ],
      "name": "addLiquidityETH",
      "outputs": [
        {
          "internalType": "uint256",
          "name": "amountToken",
          "type": "uint256"
        },
        {
          "internalType": "uint256",
          "name": "amountETH",
          "type": "uint256"
        },
        {
          "internalType": "uint256",
          "name": "liquidity",
          "type": "uint256"
        }
      ],
      "stateMutability": "payable",
      "type": "function"
    },
    {
      "inputs": [],
      "name": "factory",
      "outputs": [
        {
          "internalType": "address",
          "name": "",
          "type": "address"
        }
      ],
      "stateMutability": "view",
      "type": "function"
    },
    {
      "inputs": [
        {
          "internalType": "uint256",
          "name": "amountOut",
          "type": "uint256"
        },
        {
          "internalType": "uint256",
          "name": "reserveIn",
          "type": "uint256"
        },
        {
          "internalType": "uint256",
          "name": "reserveOut",
          "type": "uint256"
        }
      ],
      "name": "getAmountIn",
      "outputs": [
        {
          "internalType": "uint256",
          "name": "amountIn",
          "type": "uint256"
        }
      ],
      "stateMutability": "view",
      "type": "function"
    },
    {
      "inputs": [
        {
          "internalType": "uint256",
          "name": "amountIn",
          "type": "uint256"
        },
        {
          "internalType": "uint256",
          "name": "reserveIn",
          "type": "uint256"
        },
        {
          "internalType": "uint256",
          "name": "reserveOut",
          "type": "uint256"
        }
      ],
      "name": "getAmountOut",
      "outputs": [
        {
          "internalType": "uint256",
          "name": "amountOut",
          "type": "uint256"
        }
      ],
      "stateMutability": "view",
      "type": "function"
    },
    {
      "inputs": [
        {
          "internalType": "uint256",
          "name": "amountOut",
          "type": "uint256"
        },
        {
          "internalType": "address[]",
          "name": "path",
          "type": "address[]"
        }
      ],
      "name": "getAmountsIn",
      "outputs": [
        {
          "internalType": "uint256[]",
          "name": "amounts",
          "type": "uint256[]"
        }
      ],
      "stateMutability": "view",
      "type": "function"
    },
    {
      "inputs": [
        {
          "internalType": "uint256",
          "name": "amountIn",
          "type": "uint256"
        },
        {
          "internalType": "address[]",
          "name": "path",
          "type": "address[]"
        }
      ],
      "name": "getAmountsOut",
      "outputs": [
        {
          "internalType": "uint256[]",
          "name": "amounts",
          "type": "uint256[]"
        }
      ],
      "stateMutability": "view",
      "type": "function"
    },
    {
      "inputs": [],
      "name": "owner",
      "outputs": [
        {
          "internalType": "address",
          "name": "",
          "type": "address"
        }
      ],
      "stateMutability": "view",
      "type": "function"
    },
    {
      "inputs": [
        {
          "internalType": "uint256",
          "name": "amountA",
          "type": "uint256"
        },
        {
          "internalType": "uint256",
          "name": "reserveA",
          "type": "uint256"
        },
        {
          "internalType": "uint256",
          "name": "reserveB",
          "type": "uint256"
        }
      ],
      "name": "quote",
      "outputs": [
        {
          "internalType": "uint256",
          "name": "amountB",
          "type": "uint256"
        }
      ],
      "stateMutability": "pure",
      "type": "function"
    },
    {
      "inputs": [
        {
          "internalType": "address",
          "name": "tokenA",
          "type": "address"
        },
        {
          "internalType": "address",
          "name": "tokenB",
          "type": "address"
        },
        {
          "internalType": "uint256",
          "name": "liquidity",
          "type": "uint256"
        },
        {
          "internalType": "uint256",
          "name": "amountAMin",
          "type": "uint256"
        },
        {
          "internalType": "uint256",
          "name": "amountBMin",
          "type": "uint256"
        },
        {
          "internalType": "address",
          "name": "to",
          "type": "address"
        },
        {
          "internalType": "uint256",
          "name": "deadline",
          "type": "uint256"
        }
      ],
      "name": "removeLiquidity",
      "outputs": [
        {
          "internalType": "uint256",
          "name": "amountA",
          "type": "uint256"
        },
        {
          "internalType": "uint256",
          "name": "amountB",
          "type": "uint256"
        }
      ],
      "stateMutability": "nonpayable",
      "type": "function"
    },
    {
      "inputs": [
        {
          "internalType": "address",
          "name": "token",
          "type": "address"
        },
        {
          "internalType": "uint256",
          "name": "liquidity",
          "type": "uint256"
        },
        {
          "internalType": "uint256",
          "name": "amountTokenMin",
          "type": "uint256"
        },
        {
          "internalType": "uint256",
          "name": "amountETHMin",
          "type": "uint256"
        },
        {
          "internalType": "address",
          "name": "to",
          "type": "address"
        },
        {
          "internalType": "uint256",
          "name": "deadline",
          "type": "uint256"
        }
      ],
      "name": "removeLiquidityETH",
      "outputs": [
        {
          "internalType": "uint256",
          "name": "amountToken",
          "type": "uint256"
        },
        {
          "internalType": "uint256",
          "name": "amountETH",
          "type": "uint256"
        }
      ],
      "stateMutability": "nonpayable",
      "type": "function"
    },
    {
      "inputs": [
        {
          "internalType": "address",
          "name": "token",
          "type": "address"
        },
        {
          "internalType": "uint256",
          "name": "liquidity",
          "type": "uint256"
        },
        {
          "internalType": "uint256",
          "name": "amountTokenMin",
          "type": "uint256"
        },
        {
          "internalType": "uint256",
          "name": "amountETHMin",
          "type": "uint256"
        },
        {
          "internalType": "address",
          "name": "to",
          "type": "address"
        },
        {
          "internalType": "uint256",
          "name": "deadline",
          "type": "uint256"
        }
      ],
      "name": "removeLiquidityETHSupportingFeeOnTransferTokens",
      "outputs": [
        {
          "internalType": "uint256",
          "name": "amountETH",
          "type": "uint256"
        }
      ],
      "stateMutability": "nonpayable",
      "type": "function"
    },
    {
      "inputs": [],
      "name": "renounceOwnership",
      "outputs": [],
      "stateMutability": "nonpayable",
      "type": "function"
    },
    {
      "inputs": [
        {
          "internalType": "uint256",
          "name": "amountOut",
          "type": "uint256"
        },
        {
          "internalType": "address[]",
          "name": "path",
          "type": "address[]"
        },
        {
          "internalType": "address",
          "name": "to",
          "type": "address"
        },
        {
          "internalType": "uint256",
          "name": "deadline",
          "type": "uint256"
        }
      ],
      "name": "swapETHForExactTokens",
      "outputs": [
        {
          "internalType": "uint256[]",
          "name": "amounts",
          "type": "uint256[]"
        }
      ],
      "stateMutability": "payable",
      "type": "function"
    },
    {
      "inputs": [
        {
          "internalType": "uint256",
          "name": "amountOutMin",
          "type": "uint256"
        },
        {
          "internalType": "address[]",
          "name": "path",
          "type": "address[]"
        },
        {
          "internalType": "address",
          "name": "to",
          "type": "address"
        },
        {
          "internalType": "uint256",
          "name": "deadline",
          "type": "uint256"
        }
      ],
      "name": "swapExactETHForTokens",
      "outputs": [
        {
          "internalType": "uint256[]",
          "name": "amounts",
          "type": "uint256[]"
        }
      ],
      "stateMutability": "payable",
      "type": "function"
    },
    {
      "inputs": [
        {
          "internalType": "uint256",
          "name": "amountOutMin",
          "type": "uint256"
        },
        {
          "internalType": "address[]",
          "name": "path",
          "type": "address[]"
        },
        {
          "internalType": "address",
          "name": "to",
          "type": "address"
        },
        {
          "internalType": "uint256",
          "name": "deadline",
          "type": "uint256"
        }
      ],
      "name": "swapExactETHForTokensSupportingFeeOnTransferTokens",
      "outputs": [],
      "stateMutability": "payable",
      "type": "function"
    },
    {
      "inputs": [
        {
          "internalType": "uint256",
          "name": "amountIn",
          "type": "uint256"
        },
        {
          "internalType": "uint256",
          "name": "amountOutMin",
          "type": "uint256"
        },
        {
          "internalType": "address[]",
          "name": "path",
          "type": "address[]"
        },
        {
          "internalType": "address",
          "name": "to",
          "type": "address"
        },
        {
          "internalType": "uint256",
          "name": "deadline",
          "type": "uint256"
        }
      ],
      "name": "swapExactTokensForETH",
      "outputs": [
        {
          "internalType": "uint256[]",
          "name": "amounts",
          "type": "uint256[]"
        }
      ],
      "stateMutability": "payable",
      "type": "function"
    },
    {
      "inputs": [
        {
          "internalType": "uint256",
          "name": "amountIn",
          "type": "uint256"
        },
        {
          "internalType": "uint256",
          "name": "amountOutMin",
          "type": "uint256"
        },
        {
          "internalType": "address[]",
          "name": "path",
          "type": "address[]"
        },
        {
          "internalType": "address",
          "name": "to",
          "type": "address"
        },
        {
          "internalType": "uint256",
          "name": "deadline",
          "type": "uint256"
        }
      ],
      "name": "swapExactTokensForETHSupportingFeeOnTransferTokens",
      "outputs": [],
      "stateMutability": "payable",
      "type": "function"
    },
    {
      "inputs": [
        {
          "internalType": "uint256",
          "name": "amountIn",
          "type": "uint256"
        },
        {
          "internalType": "uint256",
          "name": "amountOutMin",
          "type": "uint256"
        },
        {
          "internalType": "address[]",
          "name": "path",
          "type": "address[]"
        },
        {
          "internalType": "address",
          "name": "to",
          "type": "address"
        },
        {
          "internalType": "uint256",
          "name": "deadline",
          "type": "uint256"
        }
      ],
      "name": "swapExactTokensForTokens",
      "outputs": [
        {
          "internalType": "uint256[]",
          "name": "amounts",
          "type": "uint256[]"
        }
      ],
      "stateMutability": "payable",
      "type": "function"
    },
    {
      "inputs": [
        {
          "internalType": "uint256",
          "name": "amountIn",
          "type": "uint256"
        },
        {
          "internalType": "uint256",
          "name": "amountOutMin",
          "type": "uint256"
        },
        {
          "internalType": "address[]",
          "name": "path",
          "type": "address[]"
        },
        {
          "internalType": "address",
          "name": "to",
          "type": "address"
        },
        {
          "internalType": "uint256",
          "name": "deadline",
          "type": "uint256"
        }
      ],
      "name": "swapExactTokensForTokensSupportingFeeOnTransferTokens",
      "outputs": [],
      "stateMutability": "payable",
      "type": "function"
    },
    {
      "inputs": [
        {
          "internalType": "uint256",
          "name": "amountOut",
          "type": "uint256"
        },
        {
          "internalType": "uint256",
          "name": "amountInMax",
          "type": "uint256"
        },
        {
          "internalType": "address[]",
          "name": "path",
          "type": "address[]"
        },
        {
          "internalType": "address",
          "name": "to",
          "type": "address"
        },
        {
          "internalType": "uint256",
          "name": "deadline",
          "type": "uint256"
        }
      ],
      "name": "swapTokensForExactETH",
      "outputs": [
        {
          "internalType": "uint256[]",
          "name": "amounts",
          "type": "uint256[]"
        }
      ],
      "stateMutability": "payable",
      "type": "function"
    },
    {
      "inputs": [
        {
          "internalType": "uint256",
          "name": "amountOut",
          "type": "uint256"
        },
        {
          "internalType": "uint256",
          "name": "amountInMax",
          "type": "uint256"
        },
        {
          "internalType": "address[]",
          "name": "path",
          "type": "address[]"
        },
        {
          "internalType": "address",
          "name": "to",
          "type": "address"
        },
        {
          "internalType": "uint256",
          "name": "deadline",
          "type": "uint256"
        }
      ],
      "name": "swapTokensForExactTokens",
      "outputs": [
        {
          "internalType": "uint256[]",
          "name": "amounts",
          "type": "uint256[]"
        }
      ],
      "stateMutability": "payable",
      "type": "function"
    },
    {
      "inputs": [
        {
          "internalType": "address",
          "name": "newOwner",
          "type": "address"
        }
      ],
      "name": "transferOwnership",
      "outputs": [],
      "stateMutability": "nonpayable",
      "type": "function"
    },
    {
      "inputs": [],
      "name": "withdawlBNB",
      "outputs": [],
      "stateMutability": "nonpayable",
      "type": "function"
    },
    {
      "inputs": [
        {
          "internalType": "address",
          "name": "_tokenAddress",
          "type": "address"
        }
      ],
      "name": "withdrawlToken",
      "outputs": [],
      "stateMutability": "nonpayable",
      "type": "function"
    },
    {
      "stateMutability": "payable",
      "type": "receive"
    }
  ],
  "bytecode": "0x60c06040523480156200001157600080fd5b5060405162004663380380620046638339810160408190526200003491620000c4565b6200003f3362000057565b6001600160a01b039182166080521660a052620000fc565b600080546001600160a01b038381166001600160a01b0319831681178455604051919092169283917f8be0079c531659141344cd1fd0a4f28419497f9722a3daafe3b4186f6b6457e09190a35050565b80516001600160a01b0381168114620000bf57600080fd5b919050565b60008060408385031215620000d857600080fd5b620000e383620000a7565b9150620000f360208401620000a7565b90509250929050565b60805160a0516143ea62000279600039600081816101950152818161037c0152818161052e0152818161057d0152818161069a015281816108f101528181610c12015281816110680152818161114d015281816111f8015281816112ef0152818161142d015281816114bb015281816118a10152818161195901528181611a5901528181611af401528181611b68015281816121d3015281816122290152818161225d015281816122f20152818161248f015281816125c90152612657015260008181610423015281816107160152818161081a015281816109da01528181610a9201528181610c8e01528181610db50152818161136a015281816114ed015281816116c601528181611b9a01528181611de601528181611f8a01528181612051015281816122070152818161250a0152818161268901528181612a2401528181612ba2015281816130360152818161308601528181613346015281816134af0152818161386501528181613907015261397e01526143ea6000f3fe6080604052600436106101855760003560e01c8063ac5cad56116100d1578063c45a01551161008a578063e8e3370011610064578063e8e337001461047a578063f2fde38b146104b5578063f305d719146104d5578063fb3bdb41146104e857600080fd5b8063c45a015514610411578063d06ca61f14610445578063e799ffb11461046557600080fd5b8063ac5cad561461034a578063ad5c46481461036a578063ad615dec1461039e578063af2979eb146103be578063b6f9de95146103de578063baa2abde146103f157600080fd5b80635c11d7951161013e5780637ff36ab5116101185780637ff36ab5146102d257806385f8c259146102e55780638803dbee146103055780638da5cb5b1461031857600080fd5b80635c11d79514610297578063715018a6146102aa578063791ac947146102bf57600080fd5b806302751cec146101c9578063054d50d41461020357806318cbafe5146102315780631f00ca741461025157806338ed1739146102715780634a25d94a1461028457600080fd5b366101c457336001600160a01b037f000000000000000000000000000000000000000000000000000000000000000016146101c2576101c2613b49565b005b600080fd5b3480156101d557600080fd5b506101e96101e4366004613b84565b6104fb565b604080519283526020830191909152015b60405180910390f35b34801561020f57600080fd5b5061022361021e366004613be2565b6105f7565b6040519081526020016101fa565b61024461023f366004613c53565b610614565b6040516101fa9190613cc6565b34801561025d57600080fd5b5061024461026c366004613d20565b6109d3565b61024461027f366004613c53565b610a11565b610244610292366004613c53565b610b8c565b6101c26102a5366004613c53565b610d25565b3480156102b657600080fd5b506101c2610fc9565b6101c26102cd366004613c53565b610fff565b6102446102e0366004613df1565b611266565b3480156102f157600080fd5b50610223610300366004613be2565b611630565b610244610313366004613c53565b611645565b34801561032457600080fd5b506000546001600160a01b03165b6040516001600160a01b0390911681526020016101fa565b34801561035657600080fd5b506101c2610365366004613e58565b61175d565b34801561037657600080fd5b506103327f000000000000000000000000000000000000000000000000000000000000000081565b3480156103aa57600080fd5b506102236103b9366004613be2565b61186b565b3480156103ca57600080fd5b506102236103d9366004613b84565b611878565b6101c26103ec366004613df1565b6119d2565b3480156103fd57600080fd5b506101e961040c366004613e7c565b611dbb565b34801561041d57600080fd5b506103327f000000000000000000000000000000000000000000000000000000000000000081565b34801561045157600080fd5b50610244610460366004613d20565b611f83565b34801561047157600080fd5b506101c2611fb8565b34801561048657600080fd5b5061049a610495366004613eee565b612011565b604080519384526020840192909252908201526060016101fa565b3480156104c157600080fd5b506101c26104d0366004613e58565b61210f565b61049a6104e3366004613b84565b6121a7565b6102446104f6366004613df1565b612406565b60008082428110156105285760405162461bcd60e51b815260040161051f90613f6a565b60405180910390fd5b610557897f00000000000000000000000000000000000000000000000000000000000000008a8a8a308a611dbb565b9093509150610567898685612839565b604051632e1a7d4d60e01b8152600481018390527f00000000000000000000000000000000000000000000000000000000000000006001600160a01b031690632e1a7d4d90602401600060405180830381600087803b1580156105c957600080fd5b505af11580156105dd573d6000803e3d6000fd5b505050506105eb8583612954565b50965096945050505050565b600061060c848484610607612a1d565b612abd565b949350505050565b606081428110156106375760405162461bcd60e51b815260040161051f90613f6a565b60008080610646600189613fae565b61064e612b9e565b6106589190613fc1565b341015905080610669576000610675565b610671612b9e565b9150815b50801561068357600061068f565b61068b612a1d565b9250825b506001600160a01b037f00000000000000000000000000000000000000000000000000000000000000001689896106c7600182613fae565b8181106106d6576106d6613fd8565b90506020020160208101906106eb9190613e58565b6001600160a01b0316146107115760405162461bcd60e51b815260040161051f90613fee565b6107717f00000000000000000000000000000000000000000000000000000000000000008c8b8b80806020026020016040519081016040528093929190818152602001838360200280828437600092019190915250899250612c27915050565b94508985600187516107839190613fae565b8151811061079357610793613fd8565b602002602001015110156107e95760405162461bcd60e51b815260206004820152601e60248201527f46473a20494e53554646494349454e545f4f55545055545f414d4f554e540000604482015260640161051f565b6108ae898960008181106107ff576107ff613fd8565b90506020020160208101906108149190613e58565b3361088e7f00000000000000000000000000000000000000000000000000000000000000008d8d600081811061084c5761084c613fd8565b90506020020160208101906108619190613e58565b8e8e600181811061087457610874613fd8565b90506020020160208101906108899190613e58565b612dad565b886000815181106108a1576108a1613fd8565b6020026020010151612e23565b6108ef858a8a80806020026020016040519081016040528093929190818152602001838360200280828437600092019190915250309250879150612f539050565b7f00000000000000000000000000000000000000000000000000000000000000006001600160a01b0316632e1a7d4d866001885161092d9190613fae565b8151811061093d5761093d613fd8565b60200260200101516040518263ffffffff1660e01b815260040161096391815260200190565b600060405180830381600087803b15801561097d57600080fd5b505af1158015610991573d6000803e3d6000fd5b505050506109c58786600188516109a89190613fae565b815181106109b8576109b8613fd8565b6020026020010151612954565b505050509695505050505050565b6060610a087f00000000000000000000000000000000000000000000000000000000000000008484610a03612a1d565b613156565b90505b92915050565b60608142811015610a345760405162461bcd60e51b815260040161051f90613f6a565b60008080610a43600189613fae565b610a4b612b9e565b610a559190613fc1565b341015905080610a66576000610a72565b610a6e612b9e565b9150815b508015610a80576000610a8c565b610a88612a1d565b9250825b50610aed7f00000000000000000000000000000000000000000000000000000000000000008c8b8b80806020026020016040519081016040528093929190818152602001838360200280828437600092019190915250899250612c27915050565b9450898560018751610aff9190613fae565b81518110610b0f57610b0f613fd8565b60200260200101511015610b355760405162461bcd60e51b815260040161051f90614025565b610b4b898960008181106107ff576107ff613fd8565b6109c5858a8a808060200260200160405190810160405280939291908181526020018383602002808284376000920191909152508c9250879150612f539050565b60608142811015610baf5760405162461bcd60e51b815260040161051f90613f6a565b60008080610bbe600189613fae565b610bc6612b9e565b610bd09190613fc1565b341015905080610be1576000610bed565b610be9612b9e565b9150815b508015610bfb576000610c07565b610c03612a1d565b9250825b506001600160a01b037f0000000000000000000000000000000000000000000000000000000000000000168989610c3f600182613fae565b818110610c4e57610c4e613fd8565b9050602002016020810190610c639190613e58565b6001600160a01b031614610c895760405162461bcd60e51b815260040161051f90613fee565b610ce97f00000000000000000000000000000000000000000000000000000000000000008c8b8b80806020026020016040519081016040528093929190818152602001838360200280828437600092019190915250899250613156915050565b94508985600081518110610cff57610cff613fd8565b602002602001015111156107e95760405162461bcd60e51b815260040161051f9061406c565b8042811015610d465760405162461bcd60e51b815260040161051f90613f6a565b600080610d54600187613fae565b610d5c612b9e565b610d669190613fc1565b341080159150610d77576000610d83565b610d7f612a1d565b9150815b50610e1587876000818110610d9a57610d9a613fd8565b9050602002016020810190610daf9190613e58565b33610e0f7f00000000000000000000000000000000000000000000000000000000000000008b8b6000818110610de757610de7613fd8565b9050602002016020810190610dfc9190613e58565b8c8c600181811061087457610874613fd8565b8c612e23565b60008787610e24600182613fae565b818110610e3357610e33613fd8565b9050602002016020810190610e489190613e58565b6040516370a0823160e01b81526001600160a01b03888116600483015291909116906370a0823190602401602060405180830381865afa158015610e90573d6000803e3d6000fd5b505050506040513d601f19601f82011682018060405250810190610eb491906140af565b9050610ef68888808060200260200160405190810160405280939291908181526020018383602002808284376000920191909152508a92508791506132d19050565b88610f9f828a8a610f08600182613fae565b818110610f1757610f17613fd8565b9050602002016020810190610f2c9190613e58565b6040516370a0823160e01b81526001600160a01b038b8116600483015291909116906370a08231906024015b602060405180830381865afa158015610f75573d6000803e3d6000fd5b505050506040513d601f19601f82011682018060405250810190610f9991906140af565b9061358d565b1015610fbd5760405162461bcd60e51b815260040161051f90614025565b50505050505050505050565b6000546001600160a01b03163314610ff35760405162461bcd60e51b815260040161051f906140c8565b610ffd6000613599565b565b80428110156110205760405162461bcd60e51b815260040161051f90613f6a565b60008061102e600187613fae565b611036612b9e565b6110409190613fc1565b34108015915061105157600061105d565b611059612a1d565b9150815b506001600160a01b037f0000000000000000000000000000000000000000000000000000000000000000168787611095600182613fae565b8181106110a4576110a4613fd8565b90506020020160208101906110b99190613e58565b6001600160a01b0316146110df5760405162461bcd60e51b815260040161051f90613fee565b6110f587876000818110610d9a57610d9a613fd8565b6111358787808060200260200160405190810160405280939291908181526020018383602002808284376000920191909152503092508691506132d19050565b6040516370a0823160e01b81523060048201526000907f00000000000000000000000000000000000000000000000000000000000000006001600160a01b0316906370a0823190602401602060405180830381865afa15801561119c573d6000803e3d6000fd5b505050506040513d601f19601f820116820180604052508101906111c091906140af565b9050888110156111e25760405162461bcd60e51b815260040161051f90614025565b604051632e1a7d4d60e01b8152600481018290527f00000000000000000000000000000000000000000000000000000000000000006001600160a01b031690632e1a7d4d90602401600060405180830381600087803b15801561124457600080fd5b505af1158015611258573d6000803e3d6000fd5b50505050610fbd8682612954565b606081428110156112895760405162461bcd60e51b815260040161051f90613f6a565b60008080611298600189613fae565b6112a0612b9e565b6112aa9190613fc1565b6112b5906032613fc1565b3410159050806112c65760006112d2565b6112ce612b9e565b9150815b5080156112e05760006112ec565b6112e8612a1d565b9250825b507f00000000000000000000000000000000000000000000000000000000000000006001600160a01b03168989600081811061132a5761132a613fd8565b905060200201602081019061133f9190613e58565b6001600160a01b0316146113655760405162461bcd60e51b815260040161051f90613fee565b6113e37f000000000000000000000000000000000000000000000000000000000000000061139460018b613fae565b61139e9085613fc1565b6113a89034613fae565b8b8b80806020026020016040519081016040528093929190818152602001838360200280828437600092019190915250899250612c27915050565b94508985600187516113f59190613fae565b8151811061140557611405613fd8565b6020026020010151101561142b5760405162461bcd60e51b815260040161051f90614025565b7f00000000000000000000000000000000000000000000000000000000000000006001600160a01b031663d0e30db08660008151811061146d5761146d613fd8565b60200260200101516040518263ffffffff1660e01b81526004016000604051808303818588803b1580156114a057600080fd5b505af11580156114b4573d6000803e3d6000fd5b50505050507f00000000000000000000000000000000000000000000000000000000000000006001600160a01b031663a9059cbb6115477f00000000000000000000000000000000000000000000000000000000000000008c8c600081811061151f5761151f613fd8565b90506020020160208101906115349190613e58565b8d8d600181811061087457610874613fd8565b8760008151811061155a5761155a613fd8565b60200260200101516040518363ffffffff1660e01b81526004016115939291906001600160a01b03929092168252602082015260400190565b6020604051808303816000875af11580156115b2573d6000803e3d6000fd5b505050506040513d601f19601f820116820180604052508101906115d691906140fd565b6115e2576115e2613b49565b611623858a8a808060200260200160405190810160405280939291908181526020018383602002808284376000920191909152508c9250879150612f539050565b5050505095945050505050565b600061060c848484611640612a1d565b6135e9565b606081428110156116685760405162461bcd60e51b815260040161051f90613f6a565b60008080611677600189613fae565b61167f612b9e565b6116899190613fc1565b34101590508061169a5760006116a6565b6116a2612b9e565b9150815b5080156116b45760006116c0565b6116bc612a1d565b9250825b506117217f00000000000000000000000000000000000000000000000000000000000000008c8b8b80806020026020016040519081016040528093929190818152602001838360200280828437600092019190915250899250613156915050565b9450898560008151811061173757611737613fd8565b60200260200101511115610b355760405162461bcd60e51b815260040161051f9061406c565b6000546001600160a01b031633146117875760405162461bcd60e51b815260040161051f906140c8565b6040516370a0823160e01b81523060048201526000906001600160a01b038316906370a0823190602401602060405180830381865afa1580156117ce573d6000803e3d6000fd5b505050506040513d601f19601f820116820180604052508101906117f291906140af565b60405163a9059cbb60e01b8152336004820152602481018290529091506001600160a01b0383169063a9059cbb906044016020604051808303816000875af1158015611842573d6000803e3d6000fd5b505050506040513d601f19601f8201168201806040525081019061186691906140fd565b505050565b600061060c8484846136c3565b6000814281101561189b5760405162461bcd60e51b815260040161051f90613f6a565b6118ca887f00000000000000000000000000000000000000000000000000000000000000008989893089611dbb565b6040516370a0823160e01b81523060048201529093506119439150899086906001600160a01b038316906370a0823190602401602060405180830381865afa15801561191a573d6000803e3d6000fd5b505050506040513d601f19601f8201168201806040525081019061193e91906140af565b612839565b604051632e1a7d4d60e01b8152600481018390527f00000000000000000000000000000000000000000000000000000000000000006001600160a01b031690632e1a7d4d90602401600060405180830381600087803b1580156119a557600080fd5b505af11580156119b9573d6000803e3d6000fd5b505050506119c78483612954565b509695505050505050565b80428110156119f35760405162461bcd60e51b815260040161051f90613f6a565b60008080611a02600188613fae565b611a0a612b9e565b611a149190613fc1565b611a1f906032613fc1565b341015905080611a30576000611a3c565b611a38612b9e565b9150815b508015611a4a576000611a56565b611a52612a1d565b9250825b507f00000000000000000000000000000000000000000000000000000000000000006001600160a01b031688886000818110611a9457611a94613fd8565b9050602002016020810190611aa99190613e58565b6001600160a01b031614611acf5760405162461bcd60e51b815260040161051f90613fee565b6000611adc600189613fae565b611ae69084613fc1565b611af09034613fae565b90507f00000000000000000000000000000000000000000000000000000000000000006001600160a01b031663d0e30db0826040518263ffffffff1660e01b81526004016000604051808303818588803b158015611b4d57600080fd5b505af1158015611b61573d6000803e3d6000fd5b50505050507f00000000000000000000000000000000000000000000000000000000000000006001600160a01b031663a9059cbb611bcc7f00000000000000000000000000000000000000000000000000000000000000008c8c600081811061151f5761151f613fd8565b6040516001600160e01b031960e084901b1681526001600160a01b039091166004820152602481018490526044016020604051808303816000875af1158015611c19573d6000803e3d6000fd5b505050506040513d601f19601f82011682018060405250810190611c3d91906140fd565b611c4957611c49613b49565b60008989611c58600182613fae565b818110611c6757611c67613fd8565b9050602002016020810190611c7c9190613e58565b6040516370a0823160e01b81526001600160a01b038a8116600483015291909116906370a0823190602401602060405180830381865afa158015611cc4573d6000803e3d6000fd5b505050506040513d601f19601f82011682018060405250810190611ce891906140af565b9050611d2a8a8a808060200260200160405190810160405280939291908181526020018383602002808284376000920191909152508c92508991506132d19050565b8a611d90828c8c611d3c600182613fae565b818110611d4b57611d4b613fd8565b9050602002016020810190611d609190613e58565b6040516370a0823160e01b81526001600160a01b038d8116600483015291909116906370a0823190602401610f58565b1015611dae5760405162461bcd60e51b815260040161051f90614025565b5050505050505050505050565b6000808242811015611ddf5760405162461bcd60e51b815260040161051f90613f6a565b6000611e0c7f00000000000000000000000000000000000000000000000000000000000000008c8c612dad565b6040516323b872dd60e01b81523360048201526001600160a01b03821660248201819052604482018c90529192506323b872dd906064016020604051808303816000875af1158015611e62573d6000803e3d6000fd5b505050506040513d601f19601f82011682018060405250810190611e8691906140fd565b5060405163226bf2d160e21b81526001600160a01b03878116600483015260009182918416906389afcb449060240160408051808303816000875af1158015611ed3573d6000803e3d6000fd5b505050506040513d601f19601f82011682018060405250810190611ef7919061411f565b915091506000611f078e8e613755565b509050806001600160a01b03168e6001600160a01b031614611f2a578183611f2d565b82825b90975095508a871015611f525760405162461bcd60e51b815260040161051f90614143565b89861015611f725760405162461bcd60e51b815260040161051f90614185565b505050505097509795505050505050565b6060610a087f00000000000000000000000000000000000000000000000000000000000000008484611fb3612a1d565b612c27565b6000546001600160a01b03163314611fe25760405162461bcd60e51b815260040161051f906140c8565b60405133904780156108fc02916000818181858888f1935050505015801561200e573d6000803e3d6000fd5b50565b600080600083428110156120375760405162461bcd60e51b815260040161051f90613f6a565b6120458c8c8c8c8c8c613837565b909450925060006120777f00000000000000000000000000000000000000000000000000000000000000008e8e612dad565b90506120858d338388612e23565b6120918c338387612e23565b6040516335313c2160e11b81526001600160a01b038881166004830152821690636a627842906024016020604051808303816000875af11580156120d9573d6000803e3d6000fd5b505050506040513d601f19601f820116820180604052508101906120fd91906140af565b92505050985098509895505050505050565b6000546001600160a01b031633146121395760405162461bcd60e51b815260040161051f906140c8565b6001600160a01b03811661219e5760405162461bcd60e51b815260206004820152602660248201527f4f776e61626c653a206e6577206f776e657220697320746865207a65726f206160448201526564647265737360d01b606482015260840161051f565b61200e81613599565b600080600083428110156121cd5760405162461bcd60e51b815260040161051f90613f6a565b6121fb8a7f00000000000000000000000000000000000000000000000000000000000000008b348c8c613837565b9094509250600061224d7f00000000000000000000000000000000000000000000000000000000000000008c7f0000000000000000000000000000000000000000000000000000000000000000612dad565b905061225b8b338388612e23565b7f00000000000000000000000000000000000000000000000000000000000000006001600160a01b031663d0e30db0856040518263ffffffff1660e01b81526004016000604051808303818588803b1580156122b657600080fd5b505af11580156122ca573d6000803e3d6000fd5b505060405163a9059cbb60e01b81526001600160a01b038581166004830152602482018990527f000000000000000000000000000000000000000000000000000000000000000016935063a9059cbb925060440190506020604051808303816000875af115801561233f573d6000803e3d6000fd5b505050506040513d601f19601f8201168201806040525081019061236391906140fd565b61236f5761236f613b49565b6040516335313c2160e11b81526001600160a01b038881166004830152821690636a627842906024016020604051808303816000875af11580156123b7573d6000803e3d6000fd5b505050506040513d601f19601f820116820180604052508101906123db91906140af565b9250833411156123f8576123f8336123f38634613fae565b612954565b505096509650969350505050565b606081428110156124295760405162461bcd60e51b815260040161051f90613f6a565b60008080612438600189613fae565b612440612b9e565b61244a9190613fc1565b612455906032613fc1565b341015905080612466576000612472565b61246e612b9e565b9150815b50801561248057600061248c565b612488612a1d565b9250825b507f00000000000000000000000000000000000000000000000000000000000000006001600160a01b0316898960008181106124ca576124ca613fd8565b90506020020160208101906124df9190613e58565b6001600160a01b0316146125055760405162461bcd60e51b815260040161051f90613fee565b6125657f00000000000000000000000000000000000000000000000000000000000000008b8b8b80806020026020016040519081016040528093929190818152602001838360200280828437600092019190915250899250613156915050565b9450612572600189613fae565b61257a612b9e565b6125849190613fc1565b61258e9034613fae565b856000815181106125a1576125a1613fd8565b602002602001015111156125c75760405162461bcd60e51b815260040161051f9061406c565b7f00000000000000000000000000000000000000000000000000000000000000006001600160a01b031663d0e30db08660008151811061260957612609613fd8565b60200260200101516040518263ffffffff1660e01b81526004016000604051808303818588803b15801561263c57600080fd5b505af1158015612650573d6000803e3d6000fd5b50505050507f00000000000000000000000000000000000000000000000000000000000000006001600160a01b031663a9059cbb6126bb7f00000000000000000000000000000000000000000000000000000000000000008c8c600081811061151f5761151f613fd8565b876000815181106126ce576126ce613fd8565b60200260200101516040518363ffffffff1660e01b81526004016127079291906001600160a01b03929092168252602082015260400190565b6020604051808303816000875af1158015612726573d6000803e3d6000fd5b505050506040513d601f19601f8201168201806040525081019061274a91906140fd565b61275657612756613b49565b612797858a8a808060200260200160405190810160405280939291908181526020018383602002808284376000920191909152508c9250879150612f539050565b846000815181106127aa576127aa613fd8565b602002602001015160018a8a90506127c0612b9e565b6127ca9190613fc1565b6127d49190613fae565b6127de9034613fae565b11156116235761162333866000815181106127fb576127fb613fd8565b602002602001015160018c8c9050612811612b9e565b61281b9190613fc1565b6128259190613fae565b61282f9034613fae565b6123f39190613fae565b604080516001600160a01b038481166024830152604480830185905283518084039091018152606490920183526020820180516001600160e01b031663a9059cbb60e01b179052915160009283929087169161289591906141eb565b6000604051808303816000865af19150503d80600081146128d2576040519150601f19603f3d011682016040523d82523d6000602084013e6128d7565b606091505b509150915081801561290157508051158061290157508080602001905181019061290191906140fd565b61294d5760405162461bcd60e51b815260206004820152601f60248201527f5472616e7366657248656c7065723a205452414e534645525f4641494c454400604482015260640161051f565b5050505050565b604080516000808252602082019092526001600160a01b03841690839060405161297e91906141eb565b60006040518083038185875af1925050503d80600081146129bb576040519150601f19603f3d011682016040523d82523d6000602084013e6129c0565b606091505b50509050806118665760405162461bcd60e51b815260206004820152602360248201527f5472616e7366657248656c7065723a204554485f5452414e534645525f46414960448201526213115160ea1b606482015260840161051f565b60008060007f00000000000000000000000000000000000000000000000000000000000000006001600160a01b031663aa958d356040518163ffffffff1660e01b8152600401608060405180830381865afa158015612a80573d6000803e3d6000fd5b505050506040513d601f19601f82011682018060405250810190612aa49190614207565b5092509250508082612ab69190614246565b9250505090565b6000808511612b1a5760405162461bcd60e51b815260206004820152602360248201527f494c6962726172793a20494e53554646494349454e545f494e5055545f414d4f60448201526215539560ea1b606482015260840161051f565b600084118015612b2a5750600083115b612b465760405162461bcd60e51b815260040161051f90614259565b6000612b5e612b5784612710613fae565b8790613a5b565b90506000612b6c8286613a5b565b90506000612b8683612b8089612710613a5b565b90613a67565b9050612b92818361428e565b98975050505050505050565b60007f00000000000000000000000000000000000000000000000000000000000000006001600160a01b031663d9eb59476040518163ffffffff1660e01b8152600401602060405180830381865afa158015612bfe573d6000803e3d6000fd5b505050506040513d601f19601f82011682018060405250810190612c2291906140af565b905090565b6060600283511015612c745760405162461bcd60e51b815260206004820152601660248201527509298d2c4e4c2e4f27440929cac82989288bea082a8960531b604482015260640161051f565b825167ffffffffffffffff811115612c8e57612c8e613d0a565b604051908082528060200260200182016040528015612cb7578160200160208202803683370190505b5090508381600081518110612cce57612cce613fd8565b60200260200101818152505060005b60018451612ceb9190613fae565b811015612da457600080612d3e88878581518110612d0b57612d0b613fd8565b602002602001015188866001612d219190614246565b81518110612d3157612d31613fd8565b6020026020010151613a73565b91509150612d67848481518110612d5757612d57613fd8565b6020026020010151838388612abd565b84612d73856001614246565b81518110612d8357612d83613fd8565b60200260200101818152505050508080612d9c906142b0565b915050612cdd565b50949350505050565b60405163e6a4390560e01b81526001600160a01b03838116600483015282811660248301526000919085169063e6a4390590604401602060405180830381865afa158015612dff573d6000803e3d6000fd5b505050506040513d601f19601f8201168201806040525081019061060c91906142c9565b604080516001600160a01b0385811660248301528481166044830152606480830185905283518084039091018152608490920183526020820180516001600160e01b03166323b872dd60e01b1790529151600092839290881691612e8791906141eb565b6000604051808303816000865af19150503d8060008114612ec4576040519150601f19603f3d011682016040523d82523d6000602084013e612ec9565b606091505b5091509150818015612ef3575080511580612ef3575080806020019051810190612ef391906140fd565b612f4b5760405162461bcd60e51b8152602060048201526024808201527f5472616e7366657248656c7065723a205452414e534645525f46524f4d5f46416044820152631253115160e21b606482015260840161051f565b505050505050565b60005b60018451612f649190613fae565b81101561294d57600080858381518110612f8057612f80613fd8565b602002602001015186846001612f969190614246565b81518110612fa657612fa6613fd8565b6020026020010151915091506000612fbe8383613755565b509050600088612fcf866001614246565b81518110612fdf57612fdf613fd8565b60200260200101519050600080836001600160a01b0316866001600160a01b03161461300d57826000613011565b6000835b91509150600060028b516130259190613fae565b8810613031578961307f565b61307f7f0000000000000000000000000000000000000000000000000000000000000000878d6130628c6002614246565b8151811061307257613072613fd8565b6020026020010151612dad565b90506130ac7f00000000000000000000000000000000000000000000000000000000000000008888612dad565b6001600160a01b031663022c0d9f8a85858560006040519080825280601f01601f1916602001820160405280156130ea576020820181803683370190505b506040518663ffffffff1660e01b815260040161310a94939291906142e6565b6000604051808303818588803b15801561312357600080fd5b505af1158015613137573d6000803e3d6000fd5b505050505050505050505050808061314e906142b0565b915050612f56565b60606002835110156131a35760405162461bcd60e51b815260206004820152601660248201527509298d2c4e4c2e4f27440929cac82989288bea082a8960531b604482015260640161051f565b825167ffffffffffffffff8111156131bd576131bd613d0a565b6040519080825280602002602001820160405280156131e6578160200160208202803683370190505b5090508381600183516131f99190613fae565b8151811061320957613209613fd8565b6020026020010181815250506000600184516132259190613fae565b90505b8015612da45760008061326b8887613241600187613fae565b8151811061325157613251613fd8565b6020026020010151888681518110612d3157612d31613fd8565b9150915061329484848151811061328457613284613fd8565b60200260200101518383886135e9565b846132a0600186613fae565b815181106132b0576132b0613fd8565b602002602001018181525050505080806132c990614336565b915050613228565b60005b600184516132e29190613fae565b811015613587576000808583815181106132fe576132fe613fd8565b6020026020010151868460016133149190614246565b8151811061332457613324613fd8565b602002602001015191509150600061333c8383613755565b509050600061336c7f00000000000000000000000000000000000000000000000000000000000000008585612dad565b9050600080600080846001600160a01b0316630902f1ac6040518163ffffffff1660e01b8152600401606060405180830381865afa1580156133b2573d6000803e3d6000fd5b505050506040513d601f19601f820116820180604052508101906133d69190614364565b506001600160701b031691506001600160701b03169150600080876001600160a01b03168a6001600160a01b031614613410578284613413565b83835b6040516370a0823160e01b81526001600160a01b038a8116600483015292945090925061344e918491908d16906370a0823190602401610f58565b955061345c8683838f612abd565b945050505050600080856001600160a01b0316886001600160a01b0316146134865782600061348a565b6000835b91509150600060028d5161349e9190613fae565b8a106134aa578b6134db565b6134db7f0000000000000000000000000000000000000000000000000000000000000000898f6130628e6002614246565b905060008b156134ec5760006134f4565b6134f4612b9e565b6040805160008152602081019182905263022c0d9f60e01b9091529091506001600160a01b0388169063022c0d9f90839061353890889088908890602481016142e6565b6000604051808303818588803b15801561355157600080fd5b505af1158015613565573d6000803e3d6000fd5b505050505050505050505050505050808061357f906142b0565b9150506132d4565b50505050565b6000610a088284613fae565b600080546001600160a01b038381166001600160a01b0319831681178455604051919092169283917f8be0079c531659141344cd1fd0a4f28419497f9722a3daafe3b4186f6b6457e09190a35050565b60008085116136465760405162461bcd60e51b8152602060048201526024808201527f494c6962726172793a20494e53554646494349454e545f4f55545055545f414d60448201526313d5539560e21b606482015260840161051f565b6000841180156136565750600083115b6136725760405162461bcd60e51b815260040161051f90614259565b600061369361368384612710613fae565b61368d8789613a5b565b90613a5b565b905060006136a761271061368d878a61358d565b90506136b86001612b80838561428e565b979650505050505050565b60008084116137145760405162461bcd60e51b815260206004820152601d60248201527f494c6962726172793a20494e53554646494349454e545f414d4f554e54000000604482015260640161051f565b6000831180156137245750600082115b6137405760405162461bcd60e51b815260040161051f90614259565b8261374b8584613a5b565b61060c919061428e565b600080826001600160a01b0316846001600160a01b0316036137b95760405162461bcd60e51b815260206004820152601d60248201527f494c6962726172793a204944454e544943414c5f414444524553534553000000604482015260640161051f565b826001600160a01b0316846001600160a01b0316106137d95782846137dc565b83835b90925090506001600160a01b0382166138305760405162461bcd60e51b8152602060048201526016602482015275494c6962726172793a205a45524f5f4144445245535360501b604482015260640161051f565b9250929050565b60405163e6a4390560e01b81526001600160a01b0387811660048301528681166024830152600091829182917f00000000000000000000000000000000000000000000000000000000000000009091169063e6a4390590604401602060405180830381865afa1580156138ae573d6000803e3d6000fd5b505050506040513d601f19601f820116820180604052508101906138d291906142c9565b6001600160a01b031603613976576040516364e329cb60e11b81526001600160a01b03898116600483015288811660248301527f0000000000000000000000000000000000000000000000000000000000000000169063c9c65396906044016020604051808303816000875af1158015613950573d6000803e3d6000fd5b505050506040513d601f19601f8201168201806040525081019061397491906142c9565b505b6000806139a47f00000000000000000000000000000000000000000000000000000000000000008b8b613a73565b915091508160001480156139b6575080155b156139c657879350869250613a4e565b60006139d38984846136c3565b9050878111613a0757858110156139fc5760405162461bcd60e51b815260040161051f90614185565b889450925082613a4c565b6000613a148984866136c3565b905089811115613a2657613a26613b49565b87811015613a465760405162461bcd60e51b815260040161051f90614143565b94508793505b505b5050965096945050505050565b6000610a088284613fc1565b6000610a088284614246565b6000806000613a828585613755565b509050613a90868686612dad565b50600080613a9f888888612dad565b6001600160a01b0316630902f1ac6040518163ffffffff1660e01b8152600401606060405180830381865afa158015613adc573d6000803e3d6000fd5b505050506040513d601f19601f82011682018060405250810190613b009190614364565b506001600160701b031691506001600160701b03169150826001600160a01b0316876001600160a01b031614613b37578082613b3a565b81815b90999098509650505050505050565b634e487b7160e01b600052600160045260246000fd5b6001600160a01b038116811461200e57600080fd5b8035613b7f81613b5f565b919050565b60008060008060008060c08789031215613b9d57600080fd5b8635613ba881613b5f565b95506020870135945060408701359350606087013592506080870135613bcd81613b5f565b8092505060a087013590509295509295509295565b600080600060608486031215613bf757600080fd5b505081359360208301359350604090920135919050565b60008083601f840112613c2057600080fd5b50813567ffffffffffffffff811115613c3857600080fd5b6020830191508360208260051b850101111561383057600080fd5b60008060008060008060a08789031215613c6c57600080fd5b8635955060208701359450604087013567ffffffffffffffff811115613c9157600080fd5b613c9d89828a01613c0e565b9095509350506060870135613cb181613b5f565b80925050608087013590509295509295509295565b6020808252825182820181905260009190848201906040850190845b81811015613cfe57835183529284019291840191600101613ce2565b50909695505050505050565b634e487b7160e01b600052604160045260246000fd5b60008060408385031215613d3357600080fd5b8235915060208084013567ffffffffffffffff80821115613d5357600080fd5b818601915086601f830112613d6757600080fd5b813581811115613d7957613d79613d0a565b8060051b604051601f19603f83011681018181108582111715613d9e57613d9e613d0a565b604052918252848201925083810185019189831115613dbc57600080fd5b938501935b82851015613de157613dd285613b74565b84529385019392850192613dc1565b8096505050505050509250929050565b600080600080600060808688031215613e0957600080fd5b85359450602086013567ffffffffffffffff811115613e2757600080fd5b613e3388828901613c0e565b9095509350506040860135613e4781613b5f565b949793965091946060013592915050565b600060208284031215613e6a57600080fd5b8135613e7581613b5f565b9392505050565b600080600080600080600060e0888a031215613e9757600080fd5b8735613ea281613b5f565b96506020880135613eb281613b5f565b955060408801359450606088013593506080880135925060a0880135613ed781613b5f565b8092505060c0880135905092959891949750929550565b600080600080600080600080610100898b031215613f0b57600080fd5b8835613f1681613b5f565b97506020890135613f2681613b5f565b965060408901359550606089013594506080890135935060a0890135925060c0890135613f5281613b5f565b8092505060e089013590509295985092959890939650565b60208082526014908201527313505494d7d49bdd5d195c8e881156141254915160621b604082015260600190565b634e487b7160e01b600052601160045260246000fd5b81810381811115610a0b57610a0b613f98565b8082028115828204841417610a0b57610a0b613f98565b634e487b7160e01b600052603260045260246000fd5b60208082526019908201527f4d4152535f526f757465723a20494e56414c49445f5041544800000000000000604082015260600190565b60208082526027908201527f4d4152535f526f757465723a20494e53554646494349454e545f4f555450555460408201526617d05353d5539560ca1b606082015260800190565b60208082526023908201527f4d4152535f526f757465723a204558434553534956455f494e5055545f414d4f60408201526215539560ea1b606082015260800190565b6000602082840312156140c157600080fd5b5051919050565b6020808252818101527f4f776e61626c653a2063616c6c6572206973206e6f7420746865206f776e6572604082015260600190565b60006020828403121561410f57600080fd5b81518015158114613e7557600080fd5b6000806040838503121561413257600080fd5b505080516020909101519092909150565b60208082526022908201527f4d4152535f526f757465723a20494e53554646494349454e545f415f414d4f55604082015261139560f21b606082015260800190565b60208082526022908201527f4d4152535f526f757465723a20494e53554646494349454e545f425f414d4f55604082015261139560f21b606082015260800190565b60005b838110156141e25781810151838201526020016141ca565b50506000910152565b600082516141fd8184602087016141c7565b9190910192915050565b6000806000806080858703121561421d57600080fd5b845161422881613b5f565b60208601516040870151606090970151919890975090945092505050565b80820180821115610a0b57610a0b613f98565b6020808252818101527f494c6962726172793a20494e53554646494349454e545f4c4951554944495459604082015260600190565b6000826142ab57634e487b7160e01b600052601260045260246000fd5b500490565b6000600182016142c2576142c2613f98565b5060010190565b6000602082840312156142db57600080fd5b8151613e7581613b5f565b84815283602082015260018060a01b0383166040820152608060608201526000825180608084015261431f8160a08501602087016141c7565b601f01601f19169190910160a00195945050505050565b60008161434557614345613f98565b506000190190565b80516001600160701b0381168114613b7f57600080fd5b60008060006060848603121561437957600080fd5b6143828461434d565b92506143906020850161434d565b9150604084015163ffffffff811681146143a957600080fd5b80915050925092509256fea2646970667358221220dc7fb8b1de62f3582b16d35da3ac43f20416e590c7c94ccaf0a82d16a42cd07a64736f6c63430008140033",
  "linkReferences": {},
  "deployedLinkReferences": {}
}