{
  "_format": "hh-sol-artifact-1",
  "contractName": "Router",
  "sourceName": "contracts/MswapRouterNeon.sol",
  "abi": [
    {
      "inputs": [
        {
          "internalType": "address",
          "name": "_factory",
          "type": "address"
        },
        {
          "internalType": "address",
          "name": "_WETH",
          "type": "address"
        }
      ],
      "stateMutability": "nonpayable",
      "type": "constructor"
    },
    {
      "anonymous": false,
      "inputs": [
        {
          "indexed": true,
          "internalType": "address",
          "name": "previousOwner",
          "type": "address"
        },
        {
          "indexed": true,
          "internalType": "address",
          "name": "newOwner",
          "type": "address"
        }
      ],
      "name": "OwnershipTransferred",
      "type": "event"
    },
    {
      "inputs": [],
      "name": "WETH",
      "outputs": [
        {
          "internalType": "address",
          "name": "",
          "type": "address"
        }
      ],
      "stateMutability": "view",
      "type": "function"
    },
    {
      "inputs": [
        {
          "internalType": "address",
          "name": "tokenA",
          "type": "address"
        },
        {
          "internalType": "address",
          "name": "tokenB",
          "type": "address"
        },
        {
          "internalType": "uint256",
          "name": "amountADesired",
          "type": "uint256"
        },
        {
          "internalType": "uint256",
          "name": "amountBDesired",
          "type": "uint256"
        },
        {
          "internalType": "uint256",
          "name": "amountAMin",
          "type": "uint256"
        },
        {
          "internalType": "uint256",
          "name": "amountBMin",
          "type": "uint256"
        },
        {
          "internalType": "address",
          "name": "to",
          "type": "address"
        },
        {
          "internalType": "uint256",
          "name": "deadline",
          "type": "uint256"
        }
      ],
      "name": "addLiquidity",
      "outputs": [
        {
          "internalType": "uint256",
          "name": "amountA",
          "type": "uint256"
        },
        {
          "internalType": "uint256",
          "name": "amountB",
          "type": "uint256"
        },
        {
          "internalType": "uint256",
          "name": "liquidity",
          "type": "uint256"
        }
      ],
      "stateMutability": "nonpayable",
      "type": "function"
    },
    {
      "inputs": [
        {
          "internalType": "address",
          "name": "token",
          "type": "address"
        },
        {
          "internalType": "uint256",
          "name": "amountTokenDesired",
          "type": "uint256"
        },
        {
          "internalType": "uint256",
          "name": "amountTokenMin",
          "type": "uint256"
        },
        {
          "internalType": "uint256",
          "name": "amountETHMin",
          "type": "uint256"
        },
        {
          "internalType": "address",
          "name": "to",
          "type": "address"
        },
        {
          "internalType": "uint256",
          "name": "deadline",
          "type": "uint256"
        }
      ],
      "name": "addLiquidityETH",
      "outputs": [
        {
          "internalType": "uint256",
          "name": "amountToken",
          "type": "uint256"
        },
        {
          "internalType": "uint256",
          "name": "amountETH",
          "type": "uint256"
        },
        {
          "internalType": "uint256",
          "name": "liquidity",
          "type": "uint256"
        }
      ],
      "stateMutability": "payable",
      "type": "function"
    },
    {
      "inputs": [],
      "name": "factory",
      "outputs": [
        {
          "internalType": "address",
          "name": "",
          "type": "address"
        }
      ],
      "stateMutability": "view",
      "type": "function"
    },
    {
      "inputs": [],
      "name": "owner",
      "outputs": [
        {
          "internalType": "address",
          "name": "",
          "type": "address"
        }
      ],
      "stateMutability": "view",
      "type": "function"
    },
    {
      "inputs": [],
      "name": "renounceOwnership",
      "outputs": [],
      "stateMutability": "nonpayable",
      "type": "function"
    },
    {
      "inputs": [
        {
          "internalType": "address",
          "name": "newOwner",
          "type": "address"
        }
      ],
      "name": "transferOwnership",
      "outputs": [],
      "stateMutability": "nonpayable",
      "type": "function"
    },
    {
      "stateMutability": "payable",
      "type": "receive"
    }
  ],
  "bytecode": "0x60c060405234801561001057600080fd5b506040516111b83803806111b88339818101604052604081101561003357600080fd5b50805160209091015161005e6100506001600160e01b0361007c16565b6001600160e01b0361008016565b6001600160601b0319606092831b8116608052911b1660a0526100d0565b3390565b600080546001600160a01b038381166001600160a01b0319831681178455604051919092169283917f8be0079c531659141344cd1fd0a4f28419497f9722a3daafe3b4186f6b6457e09190a35050565b60805160601c60a05160601c61108e61012a60003980608452806102ac528061054a52806105a052806105d452806106485250806102d05280610359528061057e528061082552806108d35280610953525061108e6000f3fe6080604052600436106100745760003560e01c8063c45a01551161004e578063c45a01551461010d578063e8e3370014610122578063f2fde38b146101a2578063f305d719146101d5576100ad565b8063715018a6146100b25780638da5cb5b146100c7578063ad5c4648146100f8576100ad565b366100ad57336001600160a01b037f000000000000000000000000000000000000000000000000000000000000000016146100ab57fe5b005b600080fd5b3480156100be57600080fd5b506100ab61021b565b3480156100d357600080fd5b506100dc61029b565b604080516001600160a01b039092168252519081900360200190f35b34801561010457600080fd5b506100dc6102aa565b34801561011957600080fd5b506100dc6102ce565b34801561012e57600080fd5b50610184600480360361010081101561014657600080fd5b506001600160a01b038135811691602081013582169160408201359160608101359160808201359160a08101359160c0820135169060e001356102f2565b60408051938452602084019290925282820152519081900360600190f35b3480156101ae57600080fd5b506100ab600480360360208110156101c557600080fd5b50356001600160a01b0316610432565b610184600480360360c08110156101eb57600080fd5b506001600160a01b0381358116916020810135916040820135916060810135916080820135169060a001356104f7565b6102236107a0565b6001600160a01b031661023461029b565b6001600160a01b03161461028f576040805162461bcd60e51b815260206004820181905260248201527f4f776e61626c653a2063616c6c6572206973206e6f7420746865206f776e6572604482015290519081900360640190fd5b61029960006107a4565b565b6000546001600160a01b031690565b7f000000000000000000000000000000000000000000000000000000000000000081565b7f000000000000000000000000000000000000000000000000000000000000000081565b6000806000834281101561033f576040805162461bcd60e51b815260206004820152600f60248201526e149bdd5d195c8e8811561412549151608a1b604482015290519081900360640190fd5b61034d8c8c8c8c8c8c6107f4565b9094509250600061037f7f00000000000000000000000000000000000000000000000000000000000000008e8e610a8a565b905061038d8d338388610b11565b6103998c338387610b11565b806001600160a01b0316636a627842886040518263ffffffff1660e01b815260040180826001600160a01b03166001600160a01b03168152602001915050602060405180830381600087803b1580156103f157600080fd5b505af1158015610405573d6000803e3d6000fd5b505050506040513d602081101561041b57600080fd5b5051949d939c50939a509198505050505050505050565b61043a6107a0565b6001600160a01b031661044b61029b565b6001600160a01b0316146104a6576040805162461bcd60e51b815260206004820181905260248201527f4f776e61626c653a2063616c6c6572206973206e6f7420746865206f776e6572604482015290519081900360640190fd5b6001600160a01b0381166104eb5760405162461bcd60e51b8152600401808060200182810382526026815260200180610fec6026913960400191505060405180910390fd5b6104f4816107a4565b50565b60008060008342811015610544576040805162461bcd60e51b815260206004820152600f60248201526e149bdd5d195c8e8811561412549151608a1b604482015290519081900360640190fd5b6105728a7f00000000000000000000000000000000000000000000000000000000000000008b348c8c6107f4565b909450925060006105c47f00000000000000000000000000000000000000000000000000000000000000008c7f0000000000000000000000000000000000000000000000000000000000000000610a8a565b90506105d28b338388610b11565b7f00000000000000000000000000000000000000000000000000000000000000006001600160a01b031663d0e30db0856040518263ffffffff1660e01b81526004016000604051808303818588803b15801561062d57600080fd5b505af1158015610641573d6000803e3d6000fd5b50505050507f00000000000000000000000000000000000000000000000000000000000000006001600160a01b031663a9059cbb82866040518363ffffffff1660e01b815260040180836001600160a01b03166001600160a01b0316815260200182815260200192505050602060405180830381600087803b1580156106c657600080fd5b505af11580156106da573d6000803e3d6000fd5b505050506040513d60208110156106f057600080fd5b50516106f857fe5b806001600160a01b0316636a627842886040518263ffffffff1660e01b815260040180826001600160a01b03166001600160a01b03168152602001915050602060405180830381600087803b15801561075057600080fd5b505af1158015610764573d6000803e3d6000fd5b505050506040513d602081101561077a57600080fd5b50519250348410156107925761079233853403610c6e565b505096509650969350505050565b3390565b600080546001600160a01b038381166001600160a01b0319831681178455604051919092169283917f8be0079c531659141344cd1fd0a4f28419497f9722a3daafe3b4186f6b6457e09190a35050565b6040805163e6a4390560e01b81526001600160a01b03888116600483015287811660248301529151600092839283927f00000000000000000000000000000000000000000000000000000000000000009092169163e6a4390591604480820192602092909190829003018186803b15801561086e57600080fd5b505afa158015610882573d6000803e3d6000fd5b505050506040513d602081101561089857600080fd5b50516001600160a01b0316141561094b57604080516364e329cb60e11b81526001600160a01b038a81166004830152898116602483015291517f00000000000000000000000000000000000000000000000000000000000000009092169163c9c65396916044808201926020929091908290030181600087803b15801561091e57600080fd5b505af1158015610932573d6000803e3d6000fd5b505050506040513d602081101561094857600080fd5b50505b6000806109797f00000000000000000000000000000000000000000000000000000000000000008b8b610d66565b9150915081600014801561098b575080155b1561099b57879350869250610a7d565b60006109a8898484610e34565b9050878111610a115785811015610a06576040805162461bcd60e51b815260206004820152601d60248201527f526f757465723a20494e53554646494349454e545f425f414d4f554e54000000604482015290519081900360640190fd5b889450925082610a7b565b6000610a1e898486610e34565b905087811015610a75576040805162461bcd60e51b815260206004820152601d60248201527f526f757465723a20494e53554646494349454e545f415f414d4f554e54000000604482015290519081900360640190fd5b94508793505b505b5050965096945050505050565b6040805163e6a4390560e01b81526001600160a01b0384811660048301528381166024830152915160009286169163e6a43905916044808301926020929190829003018186803b158015610add57600080fd5b505afa158015610af1573d6000803e3d6000fd5b505050506040513d6020811015610b0757600080fd5b5051949350505050565b604080516001600160a01b0385811660248301528481166044830152606480830185905283518084039091018152608490920183526020820180516001600160e01b03166323b872dd60e01b17815292518251600094606094938a169392918291908083835b60208310610b965780518252601f199092019160209182019101610b77565b6001836020036101000a0380198251168184511680821785525050505050509050019150506000604051808303816000865af19150503d8060008114610bf8576040519150601f19603f3d011682016040523d82523d6000602084013e610bfd565b606091505b5091509150818015610c2b575080511580610c2b5750808060200190516020811015610c2857600080fd5b50515b610c665760405162461bcd60e51b81526004018080602001828103825260248152602001806110356024913960400191505060405180910390fd5b505050505050565b604080516000808252602082019092526001600160a01b0384169083906040518082805190602001908083835b60208310610cba5780518252601f199092019160209182019101610c9b565b6001836020036101000a03801982511681845116808217855250505050505090500191505060006040518083038185875af1925050503d8060008114610d1c576040519150601f19603f3d011682016040523d82523d6000602084013e610d21565b606091505b5050905080610d615760405162461bcd60e51b81526004018080602001828103825260238152602001806110126023913960400191505060405180910390fd5b505050565b6000806000610d758585610eff565b509050600080610d86888888610a8a565b6001600160a01b0316630902f1ac6040518163ffffffff1660e01b815260040160606040518083038186803b158015610dbe57600080fd5b505afa158015610dd2573d6000803e3d6000fd5b505050506040513d6060811015610de857600080fd5b5080516020909101516dffffffffffffffffffffffffffff91821693501690506001600160a01b0387811690841614610e22578082610e25565b81815b90999098509650505050505050565b6000808411610e8a576040805162461bcd60e51b815260206004820152601c60248201527f4c6962726172793a20494e53554646494349454e545f414d4f554e5400000000604482015290519081900360640190fd5b600083118015610e9a5750600082115b610eeb576040805162461bcd60e51b815260206004820152601f60248201527f4c6962726172793a20494e53554646494349454e545f4c495155494449545900604482015290519081900360640190fd5b8282850281610ef657fe5b04949350505050565b600080826001600160a01b0316846001600160a01b03161415610f69576040805162461bcd60e51b815260206004820152601c60248201527f4c6962726172793a204944454e544943414c5f41444452455353455300000000604482015290519081900360640190fd5b826001600160a01b0316846001600160a01b031610610f89578284610f8c565b83835b90925090506001600160a01b038216610fe4576040805162461bcd60e51b81526020600482015260156024820152744c6962726172793a205a45524f5f4144445245535360581b604482015290519081900360640190fd5b925092905056fe4f776e61626c653a206e6577206f776e657220697320746865207a65726f20616464726573735472616e7366657248656c7065723a204554485f5452414e534645525f4641494c45445472616e7366657248656c7065723a205452414e534645525f46524f4d5f4641494c4544a26469706673582212202adec72a739e1a17406a53c2d5db380a93de052c7b603d3c41f17eb529bafbbd64736f6c63430006060033",
  "linkReferences": {},
  "deployedLinkReferences": {}
}